{
	"contracts/vesting_1.4_test.sol": {
		"VestingTeamAndAdvisors": {
			"abi": [
				{
					"inputs": [
						{
							"internalType": "contract Token",
							"name": "token_",
							"type": "address"
						},
						{
							"internalType": "address",
							"name": "approver_",
							"type": "address"
						}
					],
					"stateMutability": "nonpayable",
					"type": "constructor"
				},
				{
					"anonymous": false,
					"inputs": [
						{
							"indexed": true,
							"internalType": "address",
							"name": "previousOwner",
							"type": "address"
						},
						{
							"indexed": true,
							"internalType": "address",
							"name": "newOwner",
							"type": "address"
						}
					],
					"name": "OwnershipTransferred",
					"type": "event"
				},
				{
					"inputs": [
						{
							"internalType": "address",
							"name": "beneficiary_",
							"type": "address"
						},
						{
							"internalType": "uint256[]",
							"name": "amounts",
							"type": "uint256[]"
						},
						{
							"internalType": "uint256[]",
							"name": "releaseDates",
							"type": "uint256[]"
						}
					],
					"name": "addBeneficiary",
					"outputs": [],
					"stateMutability": "nonpayable",
					"type": "function"
				},
				{
					"inputs": [
						{
							"internalType": "address",
							"name": "beneficiary_",
							"type": "address"
						},
						{
							"internalType": "uint256",
							"name": "amount",
							"type": "uint256"
						},
						{
							"internalType": "uint256",
							"name": "releaseDate",
							"type": "uint256"
						}
					],
					"name": "addPaymentToBeneficiary",
					"outputs": [],
					"stateMutability": "nonpayable",
					"type": "function"
				},
				{
					"inputs": [],
					"name": "approver",
					"outputs": [
						{
							"internalType": "address",
							"name": "",
							"type": "address"
						}
					],
					"stateMutability": "view",
					"type": "function"
				},
				{
					"inputs": [
						{
							"internalType": "address",
							"name": "beneficiary_",
							"type": "address"
						}
					],
					"name": "beneficiary",
					"outputs": [
						{
							"internalType": "uint256[4][]",
							"name": "",
							"type": "uint256[4][]"
						}
					],
					"stateMutability": "view",
					"type": "function"
				},
				{
					"inputs": [
						{
							"internalType": "address",
							"name": "beneficiary_",
							"type": "address"
						},
						{
							"internalType": "uint256",
							"name": "index",
							"type": "uint256"
						},
						{
							"internalType": "string",
							"name": "reason",
							"type": "string"
						}
					],
					"name": "cancelPaymentToBeneficiary",
					"outputs": [],
					"stateMutability": "nonpayable",
					"type": "function"
				},
				{
					"inputs": [
						{
							"internalType": "address",
							"name": "wallet",
							"type": "address"
						}
					],
					"name": "changeApprover",
					"outputs": [
						{
							"internalType": "bool",
							"name": "",
							"type": "bool"
						}
					],
					"stateMutability": "nonpayable",
					"type": "function"
				},
				{
					"inputs": [
						{
							"internalType": "address",
							"name": "newBeneficiary",
							"type": "address"
						}
					],
					"name": "changeBeneficiaryWallet",
					"outputs": [],
					"stateMutability": "nonpayable",
					"type": "function"
				},
				{
					"inputs": [],
					"name": "changedWallets",
					"outputs": [
						{
							"internalType": "address[]",
							"name": "",
							"type": "address[]"
						}
					],
					"stateMutability": "view",
					"type": "function"
				},
				{
					"inputs": [
						{
							"internalType": "address",
							"name": "wallet",
							"type": "address"
						}
					],
					"name": "checkWalletChange",
					"outputs": [
						{
							"internalType": "address",
							"name": "",
							"type": "address"
						}
					],
					"stateMutability": "view",
					"type": "function"
				},
				{
					"inputs": [],
					"name": "currentBalance",
					"outputs": [
						{
							"internalType": "uint256",
							"name": "",
							"type": "uint256"
						}
					],
					"stateMutability": "view",
					"type": "function"
				},
				{
					"inputs": [],
					"name": "currentNonUtilizedAmount",
					"outputs": [
						{
							"internalType": "uint256",
							"name": "",
							"type": "uint256"
						}
					],
					"stateMutability": "view",
					"type": "function"
				},
				{
					"inputs": [],
					"name": "decimals",
					"outputs": [
						{
							"internalType": "uint256",
							"name": "",
							"type": "uint256"
						}
					],
					"stateMutability": "view",
					"type": "function"
				},
				{
					"inputs": [],
					"name": "getCanceledPaymentsAddresses",
					"outputs": [
						{
							"internalType": "address[]",
							"name": "",
							"type": "address[]"
						}
					],
					"stateMutability": "view",
					"type": "function"
				},
				{
					"inputs": [
						{
							"internalType": "address",
							"name": "beneficiary_",
							"type": "address"
						}
					],
					"name": "getReasonForCancellation",
					"outputs": [
						{
							"internalType": "string[]",
							"name": "",
							"type": "string[]"
						}
					],
					"stateMutability": "view",
					"type": "function"
				},
				{
					"inputs": [],
					"name": "owner",
					"outputs": [
						{
							"internalType": "address",
							"name": "",
							"type": "address"
						}
					],
					"stateMutability": "view",
					"type": "function"
				},
				{
					"inputs": [
						{
							"internalType": "address",
							"name": "beneficiary_",
							"type": "address"
						}
					],
					"name": "release",
					"outputs": [],
					"stateMutability": "nonpayable",
					"type": "function"
				},
				{
					"inputs": [],
					"name": "renounceOwnership",
					"outputs": [],
					"stateMutability": "view",
					"type": "function"
				},
				{
					"inputs": [],
					"name": "returnBeneficiaryList",
					"outputs": [
						{
							"internalType": "address[]",
							"name": "",
							"type": "address[]"
						}
					],
					"stateMutability": "view",
					"type": "function"
				},
				{
					"inputs": [],
					"name": "symbol",
					"outputs": [
						{
							"internalType": "string",
							"name": "",
							"type": "string"
						}
					],
					"stateMutability": "view",
					"type": "function"
				},
				{
					"inputs": [],
					"name": "timeNow",
					"outputs": [
						{
							"internalType": "uint256",
							"name": "",
							"type": "uint256"
						}
					],
					"stateMutability": "view",
					"type": "function"
				},
				{
					"inputs": [],
					"name": "token",
					"outputs": [
						{
							"internalType": "contract Token",
							"name": "",
							"type": "address"
						}
					],
					"stateMutability": "view",
					"type": "function"
				},
				{
					"inputs": [],
					"name": "totalUnreleasedPayments",
					"outputs": [
						{
							"internalType": "uint256",
							"name": "",
							"type": "uint256"
						}
					],
					"stateMutability": "view",
					"type": "function"
				},
				{
					"inputs": [
						{
							"internalType": "address",
							"name": "wallet",
							"type": "address"
						}
					],
					"name": "transferExcessBalance",
					"outputs": [],
					"stateMutability": "nonpayable",
					"type": "function"
				},
				{
					"inputs": [
						{
							"internalType": "address",
							"name": "newOwner",
							"type": "address"
						}
					],
					"name": "transferOwnership",
					"outputs": [],
					"stateMutability": "nonpayable",
					"type": "function"
				}
			],
			"devdoc": {
				"kind": "dev",
				"methods": {
					"owner()": {
						"details": "Returns the address of the current owner."
					},
					"transferOwnership(address)": {
						"details": "Transfers ownership of the contract to a new account (`newOwner`). Can only be called by the current owner."
					}
				},
				"version": 1
			},
			"evm": {
				"assembly": "    /* \"contracts/vesting_1.4_test.sol\":517:11502  contract VestingTeamAndAdvisors is Ownable {... */\n  mstore(0x40, 0xa0)\n    /* \"contracts/vesting_1.4_test.sol\":1686:1844  constructor(... */\n  callvalue\n  dup1\n  iszero\n  tag_1\n  jumpi\n  0x00\n  dup1\n  revert\ntag_1:\n  pop\n  mload(0x40)\n  sub(codesize, bytecodeSize)\n  dup1\n  bytecodeSize\n  dup4\n  codecopy\n  dup2\n  dup2\n  add\n  0x40\n  mstore\n  dup2\n  add\n  swap1\n  tag_2\n  swap2\n  swap1\n  tag_3\n  jump\t// in\ntag_2:\n    /* \"@openzeppelin/contracts/access/Ownable.sol\":936:968  _transferOwnership(_msgSender()) */\n  tag_7\n    /* \"@openzeppelin/contracts/access/Ownable.sol\":955:967  _msgSender() */\n  tag_8\n    /* \"@openzeppelin/contracts/access/Ownable.sol\":955:965  _msgSender */\n  shl(0x20, tag_9)\n    /* \"@openzeppelin/contracts/access/Ownable.sol\":955:967  _msgSender() */\n  0x20\n  shr\n  jump\t// in\ntag_8:\n    /* \"@openzeppelin/contracts/access/Ownable.sol\":936:954  _transferOwnership */\n  shl(0x20, tag_10)\n    /* \"@openzeppelin/contracts/access/Ownable.sol\":936:968  _transferOwnership(_msgSender()) */\n  0x20\n  shr\n  jump\t// in\ntag_7:\n    /* \"contracts/vesting_1.4_test.sol\":1764:1770  token_ */\n  dup2\n    /* \"contracts/vesting_1.4_test.sol\":1755:1770  _token = token_ */\n  0xffffffffffffffffffffffffffffffffffffffff\n  and\n  0x80\n  dup2\n  0xffffffffffffffffffffffffffffffffffffffff\n  and\n  dup2\n  mstore\n  pop\n  pop\n    /* \"contracts/vesting_1.4_test.sol\":1808:1809  0 */\n  0x00\n    /* \"contracts/vesting_1.4_test.sol\":1780:1805  _totalBeneficiariesAmount */\n  0x06\n    /* \"contracts/vesting_1.4_test.sol\":1780:1809  _totalBeneficiariesAmount = 0 */\n  dup2\n  swap1\n  sstore\n  pop\n    /* \"contracts/vesting_1.4_test.sol\":1828:1837  approver_ */\n  dup1\n    /* \"contracts/vesting_1.4_test.sol\":1819:1827  approver */\n  0x08\n  0x00\n    /* \"contracts/vesting_1.4_test.sol\":1819:1837  approver=approver_ */\n  0x0100\n  exp\n  dup2\n  sload\n  dup2\n  0xffffffffffffffffffffffffffffffffffffffff\n  mul\n  not\n  and\n  swap1\n  dup4\n  0xffffffffffffffffffffffffffffffffffffffff\n  and\n  mul\n  or\n  swap1\n  sstore\n  pop\n    /* \"contracts/vesting_1.4_test.sol\":1686:1844  constructor(... */\n  pop\n  pop\n    /* \"contracts/vesting_1.4_test.sol\":517:11502  contract VestingTeamAndAdvisors is Ownable {... */\n  jump(tag_12)\n    /* \"@openzeppelin/contracts/utils/Context.sol\":640:736  function _msgSender() internal view virtual returns (address) {... */\ntag_9:\n    /* \"@openzeppelin/contracts/utils/Context.sol\":693:700  address */\n  0x00\n    /* \"@openzeppelin/contracts/utils/Context.sol\":719:729  msg.sender */\n  caller\n    /* \"@openzeppelin/contracts/utils/Context.sol\":712:729  return msg.sender */\n  swap1\n  pop\n    /* \"@openzeppelin/contracts/utils/Context.sol\":640:736  function _msgSender() internal view virtual returns (address) {... */\n  swap1\n  jump\t// out\n    /* \"@openzeppelin/contracts/access/Ownable.sol\":2433:2620  function _transferOwnership(address newOwner) internal virtual {... */\ntag_10:\n    /* \"@openzeppelin/contracts/access/Ownable.sol\":2506:2522  address oldOwner */\n  0x00\n    /* \"@openzeppelin/contracts/access/Ownable.sol\":2525:2531  _owner */\n  dup1\n  0x00\n  swap1\n  sload\n  swap1\n  0x0100\n  exp\n  swap1\n  div\n  0xffffffffffffffffffffffffffffffffffffffff\n  and\n    /* \"@openzeppelin/contracts/access/Ownable.sol\":2506:2531  address oldOwner = _owner */\n  swap1\n  pop\n    /* \"@openzeppelin/contracts/access/Ownable.sol\":2550:2558  newOwner */\n  dup2\n    /* \"@openzeppelin/contracts/access/Ownable.sol\":2541:2547  _owner */\n  0x00\n  dup1\n    /* \"@openzeppelin/contracts/access/Ownable.sol\":2541:2558  _owner = newOwner */\n  0x0100\n  exp\n  dup2\n  sload\n  dup2\n  0xffffffffffffffffffffffffffffffffffffffff\n  mul\n  not\n  and\n  swap1\n  dup4\n  0xffffffffffffffffffffffffffffffffffffffff\n  and\n  mul\n  or\n  swap1\n  sstore\n  pop\n    /* \"@openzeppelin/contracts/access/Ownable.sol\":2604:2612  newOwner */\n  dup2\n    /* \"@openzeppelin/contracts/access/Ownable.sol\":2573:2613  OwnershipTransferred(oldOwner, newOwner) */\n  0xffffffffffffffffffffffffffffffffffffffff\n  and\n    /* \"@openzeppelin/contracts/access/Ownable.sol\":2594:2602  oldOwner */\n  dup2\n    /* \"@openzeppelin/contracts/access/Ownable.sol\":2573:2613  OwnershipTransferred(oldOwner, newOwner) */\n  0xffffffffffffffffffffffffffffffffffffffff\n  and\n  0x8be0079c531659141344cd1fd0a4f28419497f9722a3daafe3b4186f6b6457e0\n  mload(0x40)\n  mload(0x40)\n  dup1\n  swap2\n  sub\n  swap1\n  log3\n    /* \"@openzeppelin/contracts/access/Ownable.sol\":2496:2620  {... */\n  pop\n    /* \"@openzeppelin/contracts/access/Ownable.sol\":2433:2620  function _transferOwnership(address newOwner) internal virtual {... */\n  pop\n  jump\t// out\n    /* \"#utility.yul\":88:205   */\ntag_16:\n    /* \"#utility.yul\":197:198   */\n  0x00\n    /* \"#utility.yul\":194:195   */\n  dup1\n    /* \"#utility.yul\":187:199   */\n  revert\n    /* \"#utility.yul\":334:460   */\ntag_18:\n    /* \"#utility.yul\":371:378   */\n  0x00\n    /* \"#utility.yul\":411:453   */\n  0xffffffffffffffffffffffffffffffffffffffff\n    /* \"#utility.yul\":404:409   */\n  dup3\n    /* \"#utility.yul\":400:454   */\n  and\n    /* \"#utility.yul\":389:454   */\n  swap1\n  pop\n    /* \"#utility.yul\":334:460   */\n  swap2\n  swap1\n  pop\n  jump\t// out\n    /* \"#utility.yul\":466:562   */\ntag_19:\n    /* \"#utility.yul\":503:510   */\n  0x00\n    /* \"#utility.yul\":532:556   */\n  tag_31\n    /* \"#utility.yul\":550:555   */\n  dup3\n    /* \"#utility.yul\":532:556   */\n  tag_18\n  jump\t// in\ntag_31:\n    /* \"#utility.yul\":521:556   */\n  swap1\n  pop\n    /* \"#utility.yul\":466:562   */\n  swap2\n  swap1\n  pop\n  jump\t// out\n    /* \"#utility.yul\":568:677   */\ntag_20:\n    /* \"#utility.yul\":618:625   */\n  0x00\n    /* \"#utility.yul\":647:671   */\n  tag_33\n    /* \"#utility.yul\":665:670   */\n  dup3\n    /* \"#utility.yul\":647:671   */\n  tag_19\n  jump\t// in\ntag_33:\n    /* \"#utility.yul\":636:671   */\n  swap1\n  pop\n    /* \"#utility.yul\":568:677   */\n  swap2\n  swap1\n  pop\n  jump\t// out\n    /* \"#utility.yul\":683:831   */\ntag_21:\n    /* \"#utility.yul\":769:806   */\n  tag_35\n    /* \"#utility.yul\":800:805   */\n  dup2\n    /* \"#utility.yul\":769:806   */\n  tag_20\n  jump\t// in\ntag_35:\n    /* \"#utility.yul\":762:767   */\n  dup2\n    /* \"#utility.yul\":759:807   */\n  eq\n    /* \"#utility.yul\":749:825   */\n  tag_36\n  jumpi\n    /* \"#utility.yul\":821:822   */\n  0x00\n    /* \"#utility.yul\":818:819   */\n  dup1\n    /* \"#utility.yul\":811:823   */\n  revert\n    /* \"#utility.yul\":749:825   */\ntag_36:\n    /* \"#utility.yul\":683:831   */\n  pop\n  jump\t// out\n    /* \"#utility.yul\":837:1006   */\ntag_22:\n    /* \"#utility.yul\":907:912   */\n  0x00\n    /* \"#utility.yul\":938:944   */\n  dup2\n    /* \"#utility.yul\":932:945   */\n  mload\n    /* \"#utility.yul\":923:945   */\n  swap1\n  pop\n    /* \"#utility.yul\":954:1000   */\n  tag_38\n    /* \"#utility.yul\":994:999   */\n  dup2\n    /* \"#utility.yul\":954:1000   */\n  tag_21\n  jump\t// in\ntag_38:\n    /* \"#utility.yul\":837:1006   */\n  swap3\n  swap2\n  pop\n  pop\n  jump\t// out\n    /* \"#utility.yul\":1012:1134   */\ntag_23:\n    /* \"#utility.yul\":1085:1109   */\n  tag_40\n    /* \"#utility.yul\":1103:1108   */\n  dup2\n    /* \"#utility.yul\":1085:1109   */\n  tag_19\n  jump\t// in\ntag_40:\n    /* \"#utility.yul\":1078:1083   */\n  dup2\n    /* \"#utility.yul\":1075:1110   */\n  eq\n    /* \"#utility.yul\":1065:1128   */\n  tag_41\n  jumpi\n    /* \"#utility.yul\":1124:1125   */\n  0x00\n    /* \"#utility.yul\":1121:1122   */\n  dup1\n    /* \"#utility.yul\":1114:1126   */\n  revert\n    /* \"#utility.yul\":1065:1128   */\ntag_41:\n    /* \"#utility.yul\":1012:1134   */\n  pop\n  jump\t// out\n    /* \"#utility.yul\":1140:1283   */\ntag_24:\n    /* \"#utility.yul\":1197:1202   */\n  0x00\n    /* \"#utility.yul\":1228:1234   */\n  dup2\n    /* \"#utility.yul\":1222:1235   */\n  mload\n    /* \"#utility.yul\":1213:1235   */\n  swap1\n  pop\n    /* \"#utility.yul\":1244:1277   */\n  tag_43\n    /* \"#utility.yul\":1271:1276   */\n  dup2\n    /* \"#utility.yul\":1244:1277   */\n  tag_23\n  jump\t// in\ntag_43:\n    /* \"#utility.yul\":1140:1283   */\n  swap3\n  swap2\n  pop\n  pop\n  jump\t// out\n    /* \"#utility.yul\":1289:1822   */\ntag_3:\n    /* \"#utility.yul\":1381:1387   */\n  0x00\n    /* \"#utility.yul\":1389:1395   */\n  dup1\n    /* \"#utility.yul\":1438:1440   */\n  0x40\n    /* \"#utility.yul\":1426:1435   */\n  dup4\n    /* \"#utility.yul\":1417:1424   */\n  dup6\n    /* \"#utility.yul\":1413:1436   */\n  sub\n    /* \"#utility.yul\":1409:1441   */\n  slt\n    /* \"#utility.yul\":1406:1525   */\n  iszero\n  tag_45\n  jumpi\n    /* \"#utility.yul\":1444:1523   */\n  tag_46\n  tag_16\n  jump\t// in\ntag_46:\n    /* \"#utility.yul\":1406:1525   */\ntag_45:\n    /* \"#utility.yul\":1564:1565   */\n  0x00\n    /* \"#utility.yul\":1589:1666   */\n  tag_47\n    /* \"#utility.yul\":1658:1665   */\n  dup6\n    /* \"#utility.yul\":1649:1655   */\n  dup3\n    /* \"#utility.yul\":1638:1647   */\n  dup7\n    /* \"#utility.yul\":1634:1656   */\n  add\n    /* \"#utility.yul\":1589:1666   */\n  tag_22\n  jump\t// in\ntag_47:\n    /* \"#utility.yul\":1579:1666   */\n  swap3\n  pop\n    /* \"#utility.yul\":1535:1676   */\n  pop\n    /* \"#utility.yul\":1715:1717   */\n  0x20\n    /* \"#utility.yul\":1741:1805   */\n  tag_48\n    /* \"#utility.yul\":1797:1804   */\n  dup6\n    /* \"#utility.yul\":1788:1794   */\n  dup3\n    /* \"#utility.yul\":1777:1786   */\n  dup7\n    /* \"#utility.yul\":1773:1795   */\n  add\n    /* \"#utility.yul\":1741:1805   */\n  tag_24\n  jump\t// in\ntag_48:\n    /* \"#utility.yul\":1731:1805   */\n  swap2\n  pop\n    /* \"#utility.yul\":1686:1815   */\n  pop\n    /* \"#utility.yul\":1289:1822   */\n  swap3\n  pop\n  swap3\n  swap1\n  pop\n  jump\t// out\n    /* \"contracts/vesting_1.4_test.sol\":517:11502  contract VestingTeamAndAdvisors is Ownable {... */\ntag_12:\n  mload(0x80)\n  codecopy(0x00, dataOffset(sub_0), dataSize(sub_0))\n  0x00\n  assignImmutable(\"0x02f6903e55725b8fb1e67e68fc4dfbf8e90ced5ec278dfd2021debfe4c69d139\")\n  return(0x00, dataSize(sub_0))\nstop\n\nsub_0: assembly {\n        /* \"contracts/vesting_1.4_test.sol\":517:11502  contract VestingTeamAndAdvisors is Ownable {... */\n      mstore(0x40, 0x80)\n      callvalue\n      dup1\n      iszero\n      tag_1\n      jumpi\n      0x00\n      dup1\n      revert\n    tag_1:\n      pop\n      jumpi(tag_2, lt(calldatasize, 0x04))\n      shr(0xe0, calldataload(0x00))\n      dup1\n      0x95d89b41\n      gt\n      tag_27\n      jumpi\n      dup1\n      0xc9e701ae\n      gt\n      tag_28\n      jumpi\n      dup1\n      0xc9e701ae\n      eq\n      tag_21\n      jumpi\n      dup1\n      0xce845d1d\n      eq\n      tag_22\n      jumpi\n      dup1\n      0xd95660be\n      eq\n      tag_23\n      jumpi\n      dup1\n      0xf2fde38b\n      eq\n      tag_24\n      jumpi\n      dup1\n      0xf61eb2d4\n      eq\n      tag_25\n      jumpi\n      dup1\n      0xfc0c546a\n      eq\n      tag_26\n      jumpi\n      jump(tag_2)\n    tag_28:\n      dup1\n      0x95d89b41\n      eq\n      tag_15\n      jumpi\n      dup1\n      0xa99d38cb\n      eq\n      tag_16\n      jumpi\n      dup1\n      0xb347f859\n      eq\n      tag_17\n      jumpi\n      dup1\n      0xb70b64ec\n      eq\n      tag_18\n      jumpi\n      dup1\n      0xc4be66a1\n      eq\n      tag_19\n      jumpi\n      dup1\n      0xc6c599c1\n      eq\n      tag_20\n      jumpi\n      jump(tag_2)\n    tag_27:\n      dup1\n      0x70c80f99\n      gt\n      tag_29\n      jumpi\n      dup1\n      0x70c80f99\n      eq\n      tag_9\n      jumpi\n      dup1\n      0x711ec9b5\n      eq\n      tag_10\n      jumpi\n      dup1\n      0x715018a6\n      eq\n      tag_11\n      jumpi\n      dup1\n      0x81008568\n      eq\n      tag_12\n      jumpi\n      dup1\n      0x8da5cb5b\n      eq\n      tag_13\n      jumpi\n      dup1\n      0x8f26fb7f\n      eq\n      tag_14\n      jumpi\n      jump(tag_2)\n    tag_29:\n      dup1\n      0x0d43848b\n      eq\n      tag_3\n      jumpi\n      dup1\n      0x141a8dd8\n      eq\n      tag_4\n      jumpi\n      dup1\n      0x19165587\n      eq\n      tag_5\n      jumpi\n      dup1\n      0x313ce567\n      eq\n      tag_6\n      jumpi\n      dup1\n      0x4a3149cd\n      eq\n      tag_7\n      jumpi\n      dup1\n      0x530a60ef\n      eq\n      tag_8\n      jumpi\n    tag_2:\n      0x00\n      dup1\n      revert\n        /* \"contracts/vesting_1.4_test.sol\":9438:9682  function checkWalletChange(address wallet) external view onlyOwner returns (address){... */\n    tag_3:\n      tag_30\n      0x04\n      dup1\n      calldatasize\n      sub\n      dup2\n      add\n      swap1\n      tag_31\n      swap2\n      swap1\n      tag_32\n      jump\t// in\n    tag_31:\n      tag_33\n      jump\t// in\n    tag_30:\n      mload(0x40)\n      tag_34\n      swap2\n      swap1\n      tag_35\n      jump\t// in\n    tag_34:\n      mload(0x40)\n      dup1\n      swap2\n      sub\n      swap1\n      return\n        /* \"contracts/vesting_1.4_test.sol\":1098:1121  address public approver */\n    tag_4:\n      tag_36\n      tag_37\n      jump\t// in\n    tag_36:\n      mload(0x40)\n      tag_38\n      swap2\n      swap1\n      tag_35\n      jump\t// in\n    tag_38:\n      mload(0x40)\n      dup1\n      swap2\n      sub\n      swap1\n      return\n        /* \"contracts/vesting_1.4_test.sol\":9882:10977  function release(address beneficiary_) external {... */\n    tag_5:\n      tag_39\n      0x04\n      dup1\n      calldatasize\n      sub\n      dup2\n      add\n      swap1\n      tag_40\n      swap2\n      swap1\n      tag_32\n      jump\t// in\n    tag_40:\n      tag_41\n      jump\t// in\n    tag_39:\n      stop\n        /* \"contracts/vesting_1.4_test.sol\":2313:2406  function decimals() external view returns (uint256) {... */\n    tag_6:\n      tag_42\n      tag_43\n      jump\t// in\n    tag_42:\n      mload(0x40)\n      tag_44\n      swap2\n      swap1\n      tag_45\n      jump\t// in\n    tag_44:\n      mload(0x40)\n      dup1\n      swap2\n      sub\n      swap1\n      return\n        /* \"contracts/vesting_1.4_test.sol\":6604:7776  function cancelPaymentToBeneficiary(address beneficiary_, uint256 index, string calldata reason) external onlyOwner {... */\n    tag_7:\n      tag_46\n      0x04\n      dup1\n      calldatasize\n      sub\n      dup2\n      add\n      swap1\n      tag_47\n      swap2\n      swap1\n      tag_48\n      jump\t// in\n    tag_47:\n      tag_49\n      jump\t// in\n    tag_46:\n      stop\n        /* \"contracts/vesting_1.4_test.sol\":9311:9432  function changedWallets() external view onlyOwner returns (address[] memory){... */\n    tag_8:\n      tag_50\n      tag_51\n      jump\t// in\n    tag_50:\n      mload(0x40)\n      tag_52\n      swap2\n      swap1\n      tag_53\n      jump\t// in\n    tag_52:\n      mload(0x40)\n      dup1\n      swap2\n      sub\n      swap1\n      return\n        /* \"contracts/vesting_1.4_test.sol\":3189:3302  function totalUnreleasedPayments() public view returns (uint256){... */\n    tag_9:\n      tag_54\n      tag_55\n      jump\t// in\n    tag_54:\n      mload(0x40)\n      tag_56\n      swap2\n      swap1\n      tag_45\n      jump\t// in\n    tag_56:\n      mload(0x40)\n      dup1\n      swap2\n      sub\n      swap1\n      return\n        /* \"contracts/vesting_1.4_test.sol\":2680:2794  function returnBeneficiaryList() external view returns (address[] memory){... */\n    tag_10:\n      tag_57\n      tag_58\n      jump\t// in\n    tag_57:\n      mload(0x40)\n      tag_59\n      swap2\n      swap1\n      tag_53\n      jump\t// in\n    tag_59:\n      mload(0x40)\n      dup1\n      swap2\n      sub\n      swap1\n      return\n        /* \"contracts/vesting_1.4_test.sol\":3387:3539  function renounceOwnership() public onlyOwner view override  (Ownable) {... */\n    tag_11:\n      tag_60\n      tag_61\n      jump\t// in\n    tag_60:\n      stop\n        /* \"contracts/vesting_1.4_test.sol\":3679:3904  function beneficiary(address beneficiary_) external view returns (uint256[4][] memory){... */\n    tag_12:\n      tag_62\n      0x04\n      dup1\n      calldatasize\n      sub\n      dup2\n      add\n      swap1\n      tag_63\n      swap2\n      swap1\n      tag_32\n      jump\t// in\n    tag_63:\n      tag_64\n      jump\t// in\n    tag_62:\n      mload(0x40)\n      tag_65\n      swap2\n      swap1\n      tag_66\n      jump\t// in\n    tag_65:\n      mload(0x40)\n      dup1\n      swap2\n      sub\n      swap1\n      return\n        /* \"@openzeppelin/contracts/access/Ownable.sol\":1201:1286  function owner() public view virtual returns (address) {... */\n    tag_13:\n      tag_67\n      tag_68\n      jump\t// in\n    tag_67:\n      mload(0x40)\n      tag_69\n      swap2\n      swap1\n      tag_35\n      jump\t// in\n    tag_69:\n      mload(0x40)\n      dup1\n      swap2\n      sub\n      swap1\n      return\n        /* \"contracts/vesting_1.4_test.sol\":11095:11363  function transferExcessBalance(address wallet) external onlyOwner {... */\n    tag_14:\n      tag_70\n      0x04\n      dup1\n      calldatasize\n      sub\n      dup2\n      add\n      swap1\n      tag_71\n      swap2\n      swap1\n      tag_32\n      jump\t// in\n    tag_71:\n      tag_72\n      jump\t// in\n    tag_70:\n      stop\n        /* \"contracts/vesting_1.4_test.sol\":2144:2239  function symbol() external view returns (string memory) {... */\n    tag_15:\n      tag_73\n      tag_74\n      jump\t// in\n    tag_73:\n      mload(0x40)\n      tag_75\n      swap2\n      swap1\n      tag_76\n      jump\t// in\n    tag_75:\n      mload(0x40)\n      dup1\n      swap2\n      sub\n      swap1\n      return\n        /* \"contracts/vesting_1.4_test.sol\":2892:3122  function currentNonUtilizedAmount() public view returns (uint256){... */\n    tag_16:\n      tag_77\n      tag_78\n      jump\t// in\n    tag_77:\n      mload(0x40)\n      tag_79\n      swap2\n      swap1\n      tag_45\n      jump\t// in\n    tag_79:\n      mload(0x40)\n      dup1\n      swap2\n      sub\n      swap1\n      return\n        /* \"contracts/vesting_1.4_test.sol\":5762:6540  function addPaymentToBeneficiary(address beneficiary_, uint256 amount, uint256 releaseDate) external onlyOwner {... */\n    tag_17:\n      tag_80\n      0x04\n      dup1\n      calldatasize\n      sub\n      dup2\n      add\n      swap1\n      tag_81\n      swap2\n      swap1\n      tag_82\n      jump\t// in\n    tag_81:\n      tag_83\n      jump\t// in\n    tag_80:\n      stop\n        /* \"contracts/vesting_1.4_test.sol\":8564:9305  function changeBeneficiaryWallet(address newBeneficiary) external {... */\n    tag_18:\n      tag_84\n      0x04\n      dup1\n      calldatasize\n      sub\n      dup2\n      add\n      swap1\n      tag_85\n      swap2\n      swap1\n      tag_32\n      jump\t// in\n    tag_85:\n      tag_86\n      jump\t// in\n    tag_84:\n      stop\n        /* \"contracts/vesting_1.4_test.sol\":4224:4686  function getReasonForCancellation(address beneficiary_) external view returns (string[] memory){... */\n    tag_19:\n      tag_87\n      0x04\n      dup1\n      calldatasize\n      sub\n      dup2\n      add\n      swap1\n      tag_88\n      swap2\n      swap1\n      tag_32\n      jump\t// in\n    tag_88:\n      tag_89\n      jump\t// in\n    tag_87:\n      mload(0x40)\n      tag_90\n      swap2\n      swap1\n      tag_91\n      jump\t// in\n    tag_90:\n      mload(0x40)\n      dup1\n      swap2\n      sub\n      swap1\n      return\n        /* \"contracts/vesting_1.4_test.sol\":11369:11497  function changeApprover(address wallet) external onlyOwner returns (bool){... */\n    tag_20:\n      tag_92\n      0x04\n      dup1\n      calldatasize\n      sub\n      dup2\n      add\n      swap1\n      tag_93\n      swap2\n      swap1\n      tag_32\n      jump\t// in\n    tag_93:\n      tag_94\n      jump\t// in\n    tag_92:\n      mload(0x40)\n      tag_95\n      swap2\n      swap1\n      tag_96\n      jump\t// in\n    tag_95:\n      mload(0x40)\n      dup1\n      swap2\n      sub\n      swap1\n      return\n        /* \"contracts/vesting_1.4_test.sol\":4003:4135  function getCanceledPaymentsAddresses() external view returns (address[] memory){... */\n    tag_21:\n      tag_97\n      tag_98\n      jump\t// in\n    tag_97:\n      mload(0x40)\n      tag_99\n      swap2\n      swap1\n      tag_53\n      jump\t// in\n    tag_99:\n      mload(0x40)\n      dup1\n      swap2\n      sub\n      swap1\n      return\n        /* \"contracts/vesting_1.4_test.sol\":2472:2583  function currentBalance() public view returns (uint256){... */\n    tag_22:\n      tag_100\n      tag_101\n      jump\t// in\n    tag_100:\n      mload(0x40)\n      tag_102\n      swap2\n      swap1\n      tag_45\n      jump\t// in\n    tag_102:\n      mload(0x40)\n      dup1\n      swap2\n      sub\n      swap1\n      return\n        /* \"contracts/vesting_1.4_test.sol\":1984:2072  function timeNow() public view returns (uint256) {... */\n    tag_23:\n      tag_103\n      tag_104\n      jump\t// in\n    tag_103:\n      mload(0x40)\n      tag_105\n      swap2\n      swap1\n      tag_45\n      jump\t// in\n    tag_105:\n      mload(0x40)\n      dup1\n      swap2\n      sub\n      swap1\n      return\n        /* \"@openzeppelin/contracts/access/Ownable.sol\":2081:2279  function transferOwnership(address newOwner) public virtual onlyOwner {... */\n    tag_24:\n      tag_106\n      0x04\n      dup1\n      calldatasize\n      sub\n      dup2\n      add\n      swap1\n      tag_107\n      swap2\n      swap1\n      tag_32\n      jump\t// in\n    tag_107:\n      tag_108\n      jump\t// in\n    tag_106:\n      stop\n        /* \"contracts/vesting_1.4_test.sol\":4767:5692  function addBeneficiary(address beneficiary_, uint256[] calldata amounts, uint256[] calldata releaseDates) external onlyOwner {... */\n    tag_25:\n      tag_109\n      0x04\n      dup1\n      calldatasize\n      sub\n      dup2\n      add\n      swap1\n      tag_110\n      swap2\n      swap1\n      tag_111\n      jump\t// in\n    tag_110:\n      tag_112\n      jump\t// in\n    tag_109:\n      stop\n        /* \"contracts/vesting_1.4_test.sol\":1903:1978  function token() public view returns (Token) {... */\n    tag_26:\n      tag_113\n      tag_114\n      jump\t// in\n    tag_113:\n      mload(0x40)\n      tag_115\n      swap2\n      swap1\n      tag_116\n      jump\t// in\n    tag_115:\n      mload(0x40)\n      dup1\n      swap2\n      sub\n      swap1\n      return\n        /* \"contracts/vesting_1.4_test.sol\":9438:9682  function checkWalletChange(address wallet) external view onlyOwner returns (address){... */\n    tag_33:\n        /* \"contracts/vesting_1.4_test.sol\":9514:9521  address */\n      0x00\n        /* \"@openzeppelin/contracts/access/Ownable.sol\":1094:1107  _checkOwner() */\n      tag_118\n        /* \"@openzeppelin/contracts/access/Ownable.sol\":1094:1105  _checkOwner */\n      tag_119\n        /* \"@openzeppelin/contracts/access/Ownable.sol\":1094:1107  _checkOwner() */\n      jump\t// in\n    tag_118:\n        /* \"contracts/vesting_1.4_test.sol\":9567:9609  0x0000000000000000000000000000000000000000 */\n      0x00\n        /* \"contracts/vesting_1.4_test.sol\":9540:9609  _changed_wallet[wallet] != 0x0000000000000000000000000000000000000000 */\n      0xffffffffffffffffffffffffffffffffffffffff\n      and\n        /* \"contracts/vesting_1.4_test.sol\":9540:9555  _changed_wallet */\n      0x03\n        /* \"contracts/vesting_1.4_test.sol\":9540:9563  _changed_wallet[wallet] */\n      0x00\n        /* \"contracts/vesting_1.4_test.sol\":9556:9562  wallet */\n      dup5\n        /* \"contracts/vesting_1.4_test.sol\":9540:9563  _changed_wallet[wallet] */\n      0xffffffffffffffffffffffffffffffffffffffff\n      and\n      0xffffffffffffffffffffffffffffffffffffffff\n      and\n      dup2\n      mstore\n      0x20\n      add\n      swap1\n      dup2\n      mstore\n      0x20\n      add\n      0x00\n      keccak256\n      0x00\n      swap1\n      sload\n      swap1\n      0x0100\n      exp\n      swap1\n      div\n      0xffffffffffffffffffffffffffffffffffffffff\n      and\n        /* \"contracts/vesting_1.4_test.sol\":9540:9609  _changed_wallet[wallet] != 0x0000000000000000000000000000000000000000 */\n      0xffffffffffffffffffffffffffffffffffffffff\n      and\n      sub\n        /* \"contracts/vesting_1.4_test.sol\":9532:9635  require(_changed_wallet[wallet] != 0x0000000000000000000000000000000000000000, \"Wallet never changed!\") */\n      tag_121\n      jumpi\n      mload(0x40)\n      0x08c379a000000000000000000000000000000000000000000000000000000000\n      dup2\n      mstore\n      0x04\n      add\n      tag_122\n      swap1\n      tag_123\n      jump\t// in\n    tag_122:\n      mload(0x40)\n      dup1\n      swap2\n      sub\n      swap1\n      revert\n    tag_121:\n        /* \"contracts/vesting_1.4_test.sol\":9652:9667  _changed_wallet */\n      0x03\n        /* \"contracts/vesting_1.4_test.sol\":9652:9675  _changed_wallet[wallet] */\n      0x00\n        /* \"contracts/vesting_1.4_test.sol\":9668:9674  wallet */\n      dup4\n        /* \"contracts/vesting_1.4_test.sol\":9652:9675  _changed_wallet[wallet] */\n      0xffffffffffffffffffffffffffffffffffffffff\n      and\n      0xffffffffffffffffffffffffffffffffffffffff\n      and\n      dup2\n      mstore\n      0x20\n      add\n      swap1\n      dup2\n      mstore\n      0x20\n      add\n      0x00\n      keccak256\n      0x00\n      swap1\n      sload\n      swap1\n      0x0100\n      exp\n      swap1\n      div\n      0xffffffffffffffffffffffffffffffffffffffff\n      and\n        /* \"contracts/vesting_1.4_test.sol\":9645:9675  return _changed_wallet[wallet] */\n      swap1\n      pop\n        /* \"contracts/vesting_1.4_test.sol\":9438:9682  function checkWalletChange(address wallet) external view onlyOwner returns (address){... */\n      swap2\n      swap1\n      pop\n      jump\t// out\n        /* \"contracts/vesting_1.4_test.sol\":1098:1121  address public approver */\n    tag_37:\n      0x08\n      0x00\n      swap1\n      sload\n      swap1\n      0x0100\n      exp\n      swap1\n      div\n      0xffffffffffffffffffffffffffffffffffffffff\n      and\n      dup2\n      jump\t// out\n        /* \"contracts/vesting_1.4_test.sol\":9882:10977  function release(address beneficiary_) external {... */\n    tag_41:\n        /* \"contracts/vesting_1.4_test.sol\":9962:9969  owner() */\n      tag_125\n        /* \"contracts/vesting_1.4_test.sol\":9962:9967  owner */\n      tag_68\n        /* \"contracts/vesting_1.4_test.sol\":9962:9969  owner() */\n      jump\t// in\n    tag_125:\n        /* \"contracts/vesting_1.4_test.sol\":9948:9969  msg.sender == owner() */\n      0xffffffffffffffffffffffffffffffffffffffff\n      and\n        /* \"contracts/vesting_1.4_test.sol\":9948:9958  msg.sender */\n      caller\n        /* \"contracts/vesting_1.4_test.sol\":9948:9969  msg.sender == owner() */\n      0xffffffffffffffffffffffffffffffffffffffff\n      and\n      eq\n        /* \"contracts/vesting_1.4_test.sol\":9948:9999  msg.sender == owner() || msg.sender == beneficiary_ */\n      dup1\n      tag_126\n      jumpi\n      pop\n        /* \"contracts/vesting_1.4_test.sol\":9987:9999  beneficiary_ */\n      dup1\n        /* \"contracts/vesting_1.4_test.sol\":9973:9999  msg.sender == beneficiary_ */\n      0xffffffffffffffffffffffffffffffffffffffff\n      and\n        /* \"contracts/vesting_1.4_test.sol\":9973:9983  msg.sender */\n      caller\n        /* \"contracts/vesting_1.4_test.sol\":9973:9999  msg.sender == beneficiary_ */\n      0xffffffffffffffffffffffffffffffffffffffff\n      and\n      eq\n        /* \"contracts/vesting_1.4_test.sol\":9948:9999  msg.sender == owner() || msg.sender == beneficiary_ */\n    tag_126:\n        /* \"contracts/vesting_1.4_test.sol\":9940:10063  require(msg.sender == owner() || msg.sender == beneficiary_, \"Withdraw can be done only by contract owner or beneficiary!\") */\n      tag_127\n      jumpi\n      mload(0x40)\n      0x08c379a000000000000000000000000000000000000000000000000000000000\n      dup2\n      mstore\n      0x04\n      add\n      tag_128\n      swap1\n      tag_129\n      jump\t// in\n    tag_128:\n      mload(0x40)\n      dup1\n      swap2\n      sub\n      swap1\n      revert\n    tag_127:\n        /* \"contracts/vesting_1.4_test.sol\":10119:10120  0 */\n      0x00\n        /* \"contracts/vesting_1.4_test.sol\":10081:10095  _beneficiaries */\n      0x01\n        /* \"contracts/vesting_1.4_test.sol\":10081:10109  _beneficiaries[beneficiary_] */\n      0x00\n        /* \"contracts/vesting_1.4_test.sol\":10096:10108  beneficiary_ */\n      dup4\n        /* \"contracts/vesting_1.4_test.sol\":10081:10109  _beneficiaries[beneficiary_] */\n      0xffffffffffffffffffffffffffffffffffffffff\n      and\n      0xffffffffffffffffffffffffffffffffffffffff\n      and\n      dup2\n      mstore\n      0x20\n      add\n      swap1\n      dup2\n      mstore\n      0x20\n      add\n      0x00\n      keccak256\n        /* \"contracts/vesting_1.4_test.sol\":10081:10116  _beneficiaries[beneficiary_].length */\n      dup1\n      sload\n      swap1\n      pop\n        /* \"contracts/vesting_1.4_test.sol\":10081:10120  _beneficiaries[beneficiary_].length > 0 */\n      gt\n        /* \"contracts/vesting_1.4_test.sol\":10073:10150  require(_beneficiaries[beneficiary_].length > 0, \"Beneficiary not existing!\") */\n      tag_130\n      jumpi\n      mload(0x40)\n      0x08c379a000000000000000000000000000000000000000000000000000000000\n      dup2\n      mstore\n      0x04\n      add\n      tag_131\n      swap1\n      tag_132\n      jump\t// in\n    tag_131:\n      mload(0x40)\n      dup1\n      swap2\n      sub\n      swap1\n      revert\n    tag_130:\n        /* \"contracts/vesting_1.4_test.sol\":10161:10176  uint256 counter */\n      0x00\n        /* \"contracts/vesting_1.4_test.sol\":10190:10206  uint256 approved */\n      dup1\n        /* \"contracts/vesting_1.4_test.sol\":10220:10232  uint256 paid */\n      0x00\n        /* \"contracts/vesting_1.4_test.sol\":10235:10236  1 */\n      0x01\n        /* \"contracts/vesting_1.4_test.sol\":10220:10236  uint256 paid = 1 */\n      swap1\n      pop\n        /* \"contracts/vesting_1.4_test.sol\":10251:10260  uint256 i */\n      0x00\n        /* \"contracts/vesting_1.4_test.sol\":10246:10875  for (uint256 i = 0; i < _beneficiaries[beneficiary_].length; i++) {... */\n    tag_133:\n        /* \"contracts/vesting_1.4_test.sol\":10270:10284  _beneficiaries */\n      0x01\n        /* \"contracts/vesting_1.4_test.sol\":10270:10298  _beneficiaries[beneficiary_] */\n      0x00\n        /* \"contracts/vesting_1.4_test.sol\":10285:10297  beneficiary_ */\n      dup7\n        /* \"contracts/vesting_1.4_test.sol\":10270:10298  _beneficiaries[beneficiary_] */\n      0xffffffffffffffffffffffffffffffffffffffff\n      and\n      0xffffffffffffffffffffffffffffffffffffffff\n      and\n      dup2\n      mstore\n      0x20\n      add\n      swap1\n      dup2\n      mstore\n      0x20\n      add\n      0x00\n      keccak256\n        /* \"contracts/vesting_1.4_test.sol\":10270:10305  _beneficiaries[beneficiary_].length */\n      dup1\n      sload\n      swap1\n      pop\n        /* \"contracts/vesting_1.4_test.sol\":10266:10267  i */\n      dup2\n        /* \"contracts/vesting_1.4_test.sol\":10266:10305  i < _beneficiaries[beneficiary_].length */\n      lt\n        /* \"contracts/vesting_1.4_test.sol\":10246:10875  for (uint256 i = 0; i < _beneficiaries[beneficiary_].length; i++) {... */\n      iszero\n      tag_134\n      jumpi\n        /* \"contracts/vesting_1.4_test.sol\":10368:10372  paid */\n      dup2\n        /* \"contracts/vesting_1.4_test.sol\":10330:10344  _beneficiaries */\n      0x01\n        /* \"contracts/vesting_1.4_test.sol\":10330:10358  _beneficiaries[beneficiary_] */\n      0x00\n        /* \"contracts/vesting_1.4_test.sol\":10345:10357  beneficiary_ */\n      dup8\n        /* \"contracts/vesting_1.4_test.sol\":10330:10358  _beneficiaries[beneficiary_] */\n      0xffffffffffffffffffffffffffffffffffffffff\n      and\n      0xffffffffffffffffffffffffffffffffffffffff\n      and\n      dup2\n      mstore\n      0x20\n      add\n      swap1\n      dup2\n      mstore\n      0x20\n      add\n      0x00\n      keccak256\n        /* \"contracts/vesting_1.4_test.sol\":10359:10360  i */\n      dup3\n        /* \"contracts/vesting_1.4_test.sol\":10330:10361  _beneficiaries[beneficiary_][i] */\n      dup2\n      sload\n      dup2\n      lt\n      tag_136\n      jumpi\n      tag_137\n      tag_138\n      jump\t// in\n    tag_137:\n    tag_136:\n      swap1\n      0x00\n      mstore\n      keccak256(0x00, 0x20)\n      swap1\n      0x04\n      mul\n      add\n        /* \"contracts/vesting_1.4_test.sol\":10362:10363  2 */\n      0x02\n        /* \"contracts/vesting_1.4_test.sol\":10330:10364  _beneficiaries[beneficiary_][i][2] */\n      0x04\n      dup2\n      lt\n      tag_140\n      jumpi\n      tag_141\n      tag_138\n      jump\t// in\n    tag_141:\n    tag_140:\n      add\n      sload\n        /* \"contracts/vesting_1.4_test.sol\":10330:10372  _beneficiaries[beneficiary_][i][2] == paid */\n      sub\n        /* \"contracts/vesting_1.4_test.sol\":10326:10415  if (_beneficiaries[beneficiary_][i][2] == paid) {... */\n      iszero\n        /* \"contracts/vesting_1.4_test.sol\":10392:10400  continue */\n      tag_135\n        /* \"contracts/vesting_1.4_test.sol\":10326:10415  if (_beneficiaries[beneficiary_][i][2] == paid) {... */\n      jumpi\n        /* \"contracts/vesting_1.4_test.sol\":10470:10478  approved */\n      dup3\n        /* \"contracts/vesting_1.4_test.sol\":10432:10446  _beneficiaries */\n      0x01\n        /* \"contracts/vesting_1.4_test.sol\":10432:10460  _beneficiaries[beneficiary_] */\n      0x00\n        /* \"contracts/vesting_1.4_test.sol\":10447:10459  beneficiary_ */\n      dup8\n        /* \"contracts/vesting_1.4_test.sol\":10432:10460  _beneficiaries[beneficiary_] */\n      0xffffffffffffffffffffffffffffffffffffffff\n      and\n      0xffffffffffffffffffffffffffffffffffffffff\n      and\n      dup2\n      mstore\n      0x20\n      add\n      swap1\n      dup2\n      mstore\n      0x20\n      add\n      0x00\n      keccak256\n        /* \"contracts/vesting_1.4_test.sol\":10461:10462  i */\n      dup3\n        /* \"contracts/vesting_1.4_test.sol\":10432:10463  _beneficiaries[beneficiary_][i] */\n      dup2\n      sload\n      dup2\n      lt\n      tag_144\n      jumpi\n      tag_145\n      tag_138\n      jump\t// in\n    tag_145:\n    tag_144:\n      swap1\n      0x00\n      mstore\n      keccak256(0x00, 0x20)\n      swap1\n      0x04\n      mul\n      add\n        /* \"contracts/vesting_1.4_test.sol\":10464:10465  3 */\n      0x03\n        /* \"contracts/vesting_1.4_test.sol\":10432:10466  _beneficiaries[beneficiary_][i][3] */\n      0x04\n      dup2\n      lt\n      tag_147\n      jumpi\n      tag_148\n      tag_138\n      jump\t// in\n    tag_148:\n    tag_147:\n      add\n      sload\n        /* \"contracts/vesting_1.4_test.sol\":10432:10478  _beneficiaries[beneficiary_][i][3] == approved */\n      sub\n        /* \"contracts/vesting_1.4_test.sol\":10428:10521  if (_beneficiaries[beneficiary_][i][3] == approved) {... */\n      iszero\n        /* \"contracts/vesting_1.4_test.sol\":10498:10506  continue */\n      tag_135\n        /* \"contracts/vesting_1.4_test.sol\":10428:10521  if (_beneficiaries[beneficiary_][i][3] == approved) {... */\n      jumpi\n        /* \"contracts/vesting_1.4_test.sol\":10576:10585  timeNow() */\n      tag_151\n        /* \"contracts/vesting_1.4_test.sol\":10576:10583  timeNow */\n      tag_104\n        /* \"contracts/vesting_1.4_test.sol\":10576:10585  timeNow() */\n      jump\t// in\n    tag_151:\n        /* \"contracts/vesting_1.4_test.sol\":10538:10552  _beneficiaries */\n      0x01\n        /* \"contracts/vesting_1.4_test.sol\":10538:10566  _beneficiaries[beneficiary_] */\n      0x00\n        /* \"contracts/vesting_1.4_test.sol\":10553:10565  beneficiary_ */\n      dup8\n        /* \"contracts/vesting_1.4_test.sol\":10538:10566  _beneficiaries[beneficiary_] */\n      0xffffffffffffffffffffffffffffffffffffffff\n      and\n      0xffffffffffffffffffffffffffffffffffffffff\n      and\n      dup2\n      mstore\n      0x20\n      add\n      swap1\n      dup2\n      mstore\n      0x20\n      add\n      0x00\n      keccak256\n        /* \"contracts/vesting_1.4_test.sol\":10567:10568  i */\n      dup3\n        /* \"contracts/vesting_1.4_test.sol\":10538:10569  _beneficiaries[beneficiary_][i] */\n      dup2\n      sload\n      dup2\n      lt\n      tag_152\n      jumpi\n      tag_153\n      tag_138\n      jump\t// in\n    tag_153:\n    tag_152:\n      swap1\n      0x00\n      mstore\n      keccak256(0x00, 0x20)\n      swap1\n      0x04\n      mul\n      add\n        /* \"contracts/vesting_1.4_test.sol\":10570:10571  1 */\n      0x01\n        /* \"contracts/vesting_1.4_test.sol\":10538:10572  _beneficiaries[beneficiary_][i][1] */\n      0x04\n      dup2\n      lt\n      tag_155\n      jumpi\n      tag_156\n      tag_138\n      jump\t// in\n    tag_156:\n    tag_155:\n      add\n      sload\n        /* \"contracts/vesting_1.4_test.sol\":10538:10585  _beneficiaries[beneficiary_][i][1] >= timeNow() */\n      lt\n        /* \"contracts/vesting_1.4_test.sol\":10534:10625  if (_beneficiaries[beneficiary_][i][1] >= timeNow()) {... */\n      iszero\n        /* \"contracts/vesting_1.4_test.sol\":10605:10610  break */\n      tag_134\n        /* \"contracts/vesting_1.4_test.sol\":10534:10625  if (_beneficiaries[beneficiary_][i][1] >= timeNow()) {... */\n      jumpi\n        /* \"contracts/vesting_1.4_test.sol\":10676:10680  paid */\n      dup2\n        /* \"contracts/vesting_1.4_test.sol\":10639:10653  _beneficiaries */\n      0x01\n        /* \"contracts/vesting_1.4_test.sol\":10639:10667  _beneficiaries[beneficiary_] */\n      0x00\n        /* \"contracts/vesting_1.4_test.sol\":10654:10666  beneficiary_ */\n      dup8\n        /* \"contracts/vesting_1.4_test.sol\":10639:10667  _beneficiaries[beneficiary_] */\n      0xffffffffffffffffffffffffffffffffffffffff\n      and\n      0xffffffffffffffffffffffffffffffffffffffff\n      and\n      dup2\n      mstore\n      0x20\n      add\n      swap1\n      dup2\n      mstore\n      0x20\n      add\n      0x00\n      keccak256\n        /* \"contracts/vesting_1.4_test.sol\":10668:10669  i */\n      dup3\n        /* \"contracts/vesting_1.4_test.sol\":10639:10670  _beneficiaries[beneficiary_][i] */\n      dup2\n      sload\n      dup2\n      lt\n      tag_159\n      jumpi\n      tag_160\n      tag_138\n      jump\t// in\n    tag_160:\n    tag_159:\n      swap1\n      0x00\n      mstore\n      keccak256(0x00, 0x20)\n      swap1\n      0x04\n      mul\n      add\n        /* \"contracts/vesting_1.4_test.sol\":10671:10672  2 */\n      0x02\n        /* \"contracts/vesting_1.4_test.sol\":10639:10673  _beneficiaries[beneficiary_][i][2] */\n      0x04\n      dup2\n      lt\n      tag_162\n      jumpi\n      tag_163\n      tag_138\n      jump\t// in\n    tag_163:\n    tag_162:\n      add\n        /* \"contracts/vesting_1.4_test.sol\":10639:10680  _beneficiaries[beneficiary_][i][2] = paid */\n      dup2\n      swap1\n      sstore\n      pop\n        /* \"contracts/vesting_1.4_test.sol\":10723:10737  _beneficiaries */\n      0x01\n        /* \"contracts/vesting_1.4_test.sol\":10723:10751  _beneficiaries[beneficiary_] */\n      0x00\n        /* \"contracts/vesting_1.4_test.sol\":10738:10750  beneficiary_ */\n      dup7\n        /* \"contracts/vesting_1.4_test.sol\":10723:10751  _beneficiaries[beneficiary_] */\n      0xffffffffffffffffffffffffffffffffffffffff\n      and\n      0xffffffffffffffffffffffffffffffffffffffff\n      and\n      dup2\n      mstore\n      0x20\n      add\n      swap1\n      dup2\n      mstore\n      0x20\n      add\n      0x00\n      keccak256\n        /* \"contracts/vesting_1.4_test.sol\":10752:10753  i */\n      dup2\n        /* \"contracts/vesting_1.4_test.sol\":10723:10754  _beneficiaries[beneficiary_][i] */\n      dup2\n      sload\n      dup2\n      lt\n      tag_165\n      jumpi\n      tag_166\n      tag_138\n      jump\t// in\n    tag_166:\n    tag_165:\n      swap1\n      0x00\n      mstore\n      keccak256(0x00, 0x20)\n      swap1\n      0x04\n      mul\n      add\n        /* \"contracts/vesting_1.4_test.sol\":10755:10756  0 */\n      0x00\n        /* \"contracts/vesting_1.4_test.sol\":10723:10757  _beneficiaries[beneficiary_][i][0] */\n      0x04\n      dup2\n      lt\n      tag_168\n      jumpi\n      tag_169\n      tag_138\n      jump\t// in\n    tag_169:\n    tag_168:\n      add\n      sload\n        /* \"contracts/vesting_1.4_test.sol\":10694:10719  _totalBeneficiariesAmount */\n      0x06\n      0x00\n        /* \"contracts/vesting_1.4_test.sol\":10694:10757  _totalBeneficiariesAmount -= _beneficiaries[beneficiary_][i][0] */\n      dup3\n      dup3\n      sload\n      tag_171\n      swap2\n      swap1\n      tag_172\n      jump\t// in\n    tag_171:\n      swap3\n      pop\n      pop\n      dup2\n      swap1\n      sstore\n      pop\n        /* \"contracts/vesting_1.4_test.sol\":10771:10841  token().safeTransfer(beneficiary_, _beneficiaries[beneficiary_][i][0]) */\n      tag_173\n        /* \"contracts/vesting_1.4_test.sol\":10792:10804  beneficiary_ */\n      dup6\n        /* \"contracts/vesting_1.4_test.sol\":10806:10820  _beneficiaries */\n      0x01\n        /* \"contracts/vesting_1.4_test.sol\":10806:10834  _beneficiaries[beneficiary_] */\n      0x00\n        /* \"contracts/vesting_1.4_test.sol\":10821:10833  beneficiary_ */\n      dup9\n        /* \"contracts/vesting_1.4_test.sol\":10806:10834  _beneficiaries[beneficiary_] */\n      0xffffffffffffffffffffffffffffffffffffffff\n      and\n      0xffffffffffffffffffffffffffffffffffffffff\n      and\n      dup2\n      mstore\n      0x20\n      add\n      swap1\n      dup2\n      mstore\n      0x20\n      add\n      0x00\n      keccak256\n        /* \"contracts/vesting_1.4_test.sol\":10835:10836  i */\n      dup4\n        /* \"contracts/vesting_1.4_test.sol\":10806:10837  _beneficiaries[beneficiary_][i] */\n      dup2\n      sload\n      dup2\n      lt\n      tag_174\n      jumpi\n      tag_175\n      tag_138\n      jump\t// in\n    tag_175:\n    tag_174:\n      swap1\n      0x00\n      mstore\n      keccak256(0x00, 0x20)\n      swap1\n      0x04\n      mul\n      add\n        /* \"contracts/vesting_1.4_test.sol\":10838:10839  0 */\n      0x00\n        /* \"contracts/vesting_1.4_test.sol\":10806:10840  _beneficiaries[beneficiary_][i][0] */\n      0x04\n      dup2\n      lt\n      tag_177\n      jumpi\n      tag_178\n      tag_138\n      jump\t// in\n    tag_178:\n    tag_177:\n      add\n      sload\n        /* \"contracts/vesting_1.4_test.sol\":10771:10778  token() */\n      tag_180\n        /* \"contracts/vesting_1.4_test.sol\":10771:10776  token */\n      tag_114\n        /* \"contracts/vesting_1.4_test.sol\":10771:10778  token() */\n      jump\t// in\n    tag_180:\n        /* \"contracts/vesting_1.4_test.sol\":10771:10791  token().safeTransfer */\n      0xffffffffffffffffffffffffffffffffffffffff\n      and\n      tag_181\n      swap1\n        /* \"contracts/vesting_1.4_test.sol\":10771:10841  token().safeTransfer(beneficiary_, _beneficiaries[beneficiary_][i][0]) */\n      swap3\n      swap2\n      swap1\n      0xffffffff\n      and\n      jump\t// in\n    tag_173:\n        /* \"contracts/vesting_1.4_test.sol\":10855:10864  counter++ */\n      dup4\n      dup1\n      tag_182\n      swap1\n      tag_183\n      jump\t// in\n    tag_182:\n      swap5\n      pop\n      pop\n        /* \"contracts/vesting_1.4_test.sol\":10246:10875  for (uint256 i = 0; i < _beneficiaries[beneficiary_].length; i++) {... */\n    tag_135:\n        /* \"contracts/vesting_1.4_test.sol\":10307:10310  i++ */\n      dup1\n      dup1\n      0x01\n      add\n      swap2\n      pop\n      pop\n        /* \"contracts/vesting_1.4_test.sol\":10246:10875  for (uint256 i = 0; i < _beneficiaries[beneficiary_].length; i++) {... */\n      jump(tag_133)\n    tag_134:\n      pop\n        /* \"contracts/vesting_1.4_test.sol\":10899:10900  0 */\n      0x00\n        /* \"contracts/vesting_1.4_test.sol\":10888:10895  counter */\n      dup4\n        /* \"contracts/vesting_1.4_test.sol\":10888:10900  counter == 0 */\n      sub\n        /* \"contracts/vesting_1.4_test.sol\":10884:10971  if (counter == 0) {... */\n      tag_184\n      jumpi\n        /* \"contracts/vesting_1.4_test.sol\":10916:10960  revert(\"No released payments for transfer!\") */\n      mload(0x40)\n      0x08c379a000000000000000000000000000000000000000000000000000000000\n      dup2\n      mstore\n      0x04\n      add\n      tag_185\n      swap1\n      tag_186\n      jump\t// in\n    tag_185:\n      mload(0x40)\n      dup1\n      swap2\n      sub\n      swap1\n      revert\n        /* \"contracts/vesting_1.4_test.sol\":10884:10971  if (counter == 0) {... */\n    tag_184:\n        /* \"contracts/vesting_1.4_test.sol\":9930:10977  {... */\n      pop\n      pop\n      pop\n        /* \"contracts/vesting_1.4_test.sol\":9882:10977  function release(address beneficiary_) external {... */\n      pop\n      jump\t// out\n        /* \"contracts/vesting_1.4_test.sol\":2313:2406  function decimals() external view returns (uint256) {... */\n    tag_43:\n        /* \"contracts/vesting_1.4_test.sol\":2356:2363  uint256 */\n      0x00\n        /* \"contracts/vesting_1.4_test.sol\":2382:2388  _token */\n      immutable(\"0x02f6903e55725b8fb1e67e68fc4dfbf8e90ced5ec278dfd2021debfe4c69d139\")\n        /* \"contracts/vesting_1.4_test.sol\":2382:2397  _token.decimals */\n      0xffffffffffffffffffffffffffffffffffffffff\n      and\n      0x313ce567\n        /* \"contracts/vesting_1.4_test.sol\":2382:2399  _token.decimals() */\n      mload(0x40)\n      dup2\n      0xffffffff\n      and\n      0xe0\n      shl\n      dup2\n      mstore\n      0x04\n      add\n      0x20\n      mload(0x40)\n      dup1\n      dup4\n      sub\n      dup2\n      dup7\n      gas\n      staticcall\n      iszero\n      dup1\n      iszero\n      tag_189\n      jumpi\n      returndatasize\n      0x00\n      dup1\n      returndatacopy\n      revert(0x00, returndatasize)\n    tag_189:\n      pop\n      pop\n      pop\n      pop\n      mload(0x40)\n      returndatasize\n      not(0x1f)\n      0x1f\n      dup3\n      add\n      and\n      dup3\n      add\n      dup1\n      0x40\n      mstore\n      pop\n      dup2\n      add\n      swap1\n      tag_190\n      swap2\n      swap1\n      tag_191\n      jump\t// in\n    tag_190:\n        /* \"contracts/vesting_1.4_test.sol\":2375:2399  return _token.decimals() */\n      0xff\n      and\n      swap1\n      pop\n        /* \"contracts/vesting_1.4_test.sol\":2313:2406  function decimals() external view returns (uint256) {... */\n      swap1\n      jump\t// out\n        /* \"contracts/vesting_1.4_test.sol\":6604:7776  function cancelPaymentToBeneficiary(address beneficiary_, uint256 index, string calldata reason) external onlyOwner {... */\n    tag_49:\n        /* \"@openzeppelin/contracts/access/Ownable.sol\":1094:1107  _checkOwner() */\n      tag_193\n        /* \"@openzeppelin/contracts/access/Ownable.sol\":1094:1105  _checkOwner */\n      tag_119\n        /* \"@openzeppelin/contracts/access/Ownable.sol\":1094:1107  _checkOwner() */\n      jump\t// in\n    tag_193:\n        /* \"contracts/vesting_1.4_test.sol\":6776:6777  0 */\n      0x00\n        /* \"contracts/vesting_1.4_test.sol\":6738:6752  _beneficiaries */\n      0x01\n        /* \"contracts/vesting_1.4_test.sol\":6738:6766  _beneficiaries[beneficiary_] */\n      0x00\n        /* \"contracts/vesting_1.4_test.sol\":6753:6765  beneficiary_ */\n      dup7\n        /* \"contracts/vesting_1.4_test.sol\":6738:6766  _beneficiaries[beneficiary_] */\n      0xffffffffffffffffffffffffffffffffffffffff\n      and\n      0xffffffffffffffffffffffffffffffffffffffff\n      and\n      dup2\n      mstore\n      0x20\n      add\n      swap1\n      dup2\n      mstore\n      0x20\n      add\n      0x00\n      keccak256\n        /* \"contracts/vesting_1.4_test.sol\":6738:6773  _beneficiaries[beneficiary_].length */\n      dup1\n      sload\n      swap1\n      pop\n        /* \"contracts/vesting_1.4_test.sol\":6738:6777  _beneficiaries[beneficiary_].length > 0 */\n      gt\n        /* \"contracts/vesting_1.4_test.sol\":6730:6807  require(_beneficiaries[beneficiary_].length > 0, \"Beneficiary not existing!\") */\n      tag_195\n      jumpi\n      mload(0x40)\n      0x08c379a000000000000000000000000000000000000000000000000000000000\n      dup2\n      mstore\n      0x04\n      add\n      tag_196\n      swap1\n      tag_132\n      jump\t// in\n    tag_196:\n      mload(0x40)\n      dup1\n      swap2\n      sub\n      swap1\n      revert\n    tag_195:\n        /* \"contracts/vesting_1.4_test.sol\":6846:6860  _beneficiaries */\n      0x01\n        /* \"contracts/vesting_1.4_test.sol\":6846:6874  _beneficiaries[beneficiary_] */\n      0x00\n        /* \"contracts/vesting_1.4_test.sol\":6861:6873  beneficiary_ */\n      dup6\n        /* \"contracts/vesting_1.4_test.sol\":6846:6874  _beneficiaries[beneficiary_] */\n      0xffffffffffffffffffffffffffffffffffffffff\n      and\n      0xffffffffffffffffffffffffffffffffffffffff\n      and\n      dup2\n      mstore\n      0x20\n      add\n      swap1\n      dup2\n      mstore\n      0x20\n      add\n      0x00\n      keccak256\n        /* \"contracts/vesting_1.4_test.sol\":6875:6880  index */\n      dup4\n        /* \"contracts/vesting_1.4_test.sol\":6846:6881  _beneficiaries[beneficiary_][index] */\n      dup2\n      sload\n      dup2\n      lt\n      tag_197\n      jumpi\n      tag_198\n      tag_138\n      jump\t// in\n    tag_198:\n    tag_197:\n      swap1\n      0x00\n      mstore\n      keccak256(0x00, 0x20)\n      swap1\n      0x04\n      mul\n      add\n        /* \"contracts/vesting_1.4_test.sol\":6882:6883  1 */\n      0x01\n        /* \"contracts/vesting_1.4_test.sol\":6846:6884  _beneficiaries[beneficiary_][index][1] */\n      0x04\n      dup2\n      lt\n      tag_200\n      jumpi\n      tag_201\n      tag_138\n      jump\t// in\n    tag_201:\n    tag_200:\n      add\n      sload\n        /* \"contracts/vesting_1.4_test.sol\":6834:6843  timeNow() */\n      tag_203\n        /* \"contracts/vesting_1.4_test.sol\":6834:6841  timeNow */\n      tag_104\n        /* \"contracts/vesting_1.4_test.sol\":6834:6843  timeNow() */\n      jump\t// in\n    tag_203:\n        /* \"contracts/vesting_1.4_test.sol\":6834:6884  timeNow() < _beneficiaries[beneficiary_][index][1] */\n      lt\n        /* \"contracts/vesting_1.4_test.sol\":6834:6931  timeNow() < _beneficiaries[beneficiary_][index][1] && _beneficiaries[beneficiary_][index][2] == 0 */\n      dup1\n      iszero\n      tag_204\n      jumpi\n      pop\n        /* \"contracts/vesting_1.4_test.sol\":6930:6931  0 */\n      0x00\n        /* \"contracts/vesting_1.4_test.sol\":6888:6902  _beneficiaries */\n      0x01\n        /* \"contracts/vesting_1.4_test.sol\":6888:6916  _beneficiaries[beneficiary_] */\n      0x00\n        /* \"contracts/vesting_1.4_test.sol\":6903:6915  beneficiary_ */\n      dup7\n        /* \"contracts/vesting_1.4_test.sol\":6888:6916  _beneficiaries[beneficiary_] */\n      0xffffffffffffffffffffffffffffffffffffffff\n      and\n      0xffffffffffffffffffffffffffffffffffffffff\n      and\n      dup2\n      mstore\n      0x20\n      add\n      swap1\n      dup2\n      mstore\n      0x20\n      add\n      0x00\n      keccak256\n        /* \"contracts/vesting_1.4_test.sol\":6917:6922  index */\n      dup5\n        /* \"contracts/vesting_1.4_test.sol\":6888:6923  _beneficiaries[beneficiary_][index] */\n      dup2\n      sload\n      dup2\n      lt\n      tag_205\n      jumpi\n      tag_206\n      tag_138\n      jump\t// in\n    tag_206:\n    tag_205:\n      swap1\n      0x00\n      mstore\n      keccak256(0x00, 0x20)\n      swap1\n      0x04\n      mul\n      add\n        /* \"contracts/vesting_1.4_test.sol\":6924:6925  2 */\n      0x02\n        /* \"contracts/vesting_1.4_test.sol\":6888:6926  _beneficiaries[beneficiary_][index][2] */\n      0x04\n      dup2\n      lt\n      tag_208\n      jumpi\n      tag_209\n      tag_138\n      jump\t// in\n    tag_209:\n    tag_208:\n      add\n      sload\n        /* \"contracts/vesting_1.4_test.sol\":6888:6931  _beneficiaries[beneficiary_][index][2] == 0 */\n      eq\n        /* \"contracts/vesting_1.4_test.sol\":6834:6931  timeNow() < _beneficiaries[beneficiary_][index][1] && _beneficiaries[beneficiary_][index][2] == 0 */\n    tag_204:\n        /* \"contracts/vesting_1.4_test.sol\":6834:6978  timeNow() < _beneficiaries[beneficiary_][index][1] && _beneficiaries[beneficiary_][index][2] == 0 && _beneficiaries[beneficiary_][index][3] == 0 */\n      dup1\n      iszero\n      tag_211\n      jumpi\n      pop\n        /* \"contracts/vesting_1.4_test.sol\":6977:6978  0 */\n      0x00\n        /* \"contracts/vesting_1.4_test.sol\":6935:6949  _beneficiaries */\n      0x01\n        /* \"contracts/vesting_1.4_test.sol\":6935:6963  _beneficiaries[beneficiary_] */\n      0x00\n        /* \"contracts/vesting_1.4_test.sol\":6950:6962  beneficiary_ */\n      dup7\n        /* \"contracts/vesting_1.4_test.sol\":6935:6963  _beneficiaries[beneficiary_] */\n      0xffffffffffffffffffffffffffffffffffffffff\n      and\n      0xffffffffffffffffffffffffffffffffffffffff\n      and\n      dup2\n      mstore\n      0x20\n      add\n      swap1\n      dup2\n      mstore\n      0x20\n      add\n      0x00\n      keccak256\n        /* \"contracts/vesting_1.4_test.sol\":6964:6969  index */\n      dup5\n        /* \"contracts/vesting_1.4_test.sol\":6935:6970  _beneficiaries[beneficiary_][index] */\n      dup2\n      sload\n      dup2\n      lt\n      tag_212\n      jumpi\n      tag_213\n      tag_138\n      jump\t// in\n    tag_213:\n    tag_212:\n      swap1\n      0x00\n      mstore\n      keccak256(0x00, 0x20)\n      swap1\n      0x04\n      mul\n      add\n        /* \"contracts/vesting_1.4_test.sol\":6971:6972  3 */\n      0x03\n        /* \"contracts/vesting_1.4_test.sol\":6935:6973  _beneficiaries[beneficiary_][index][3] */\n      0x04\n      dup2\n      lt\n      tag_215\n      jumpi\n      tag_216\n      tag_138\n      jump\t// in\n    tag_216:\n    tag_215:\n      add\n      sload\n        /* \"contracts/vesting_1.4_test.sol\":6935:6978  _beneficiaries[beneficiary_][index][3] == 0 */\n      eq\n        /* \"contracts/vesting_1.4_test.sol\":6834:6978  timeNow() < _beneficiaries[beneficiary_][index][1] && _beneficiaries[beneficiary_][index][2] == 0 && _beneficiaries[beneficiary_][index][3] == 0 */\n    tag_211:\n        /* \"contracts/vesting_1.4_test.sol\":6830:7372  if (timeNow() < _beneficiaries[beneficiary_][index][1] && _beneficiaries[beneficiary_][index][2] == 0 && _beneficiaries[beneficiary_][index][3] == 0) {... */\n      iszero\n      tag_218\n      jumpi\n        /* \"contracts/vesting_1.4_test.sol\":7023:7037  _beneficiaries */\n      0x01\n        /* \"contracts/vesting_1.4_test.sol\":7023:7051  _beneficiaries[beneficiary_] */\n      0x00\n        /* \"contracts/vesting_1.4_test.sol\":7038:7050  beneficiary_ */\n      dup6\n        /* \"contracts/vesting_1.4_test.sol\":7023:7051  _beneficiaries[beneficiary_] */\n      0xffffffffffffffffffffffffffffffffffffffff\n      and\n      0xffffffffffffffffffffffffffffffffffffffff\n      and\n      dup2\n      mstore\n      0x20\n      add\n      swap1\n      dup2\n      mstore\n      0x20\n      add\n      0x00\n      keccak256\n        /* \"contracts/vesting_1.4_test.sol\":7052:7057  index */\n      dup4\n        /* \"contracts/vesting_1.4_test.sol\":7023:7058  _beneficiaries[beneficiary_][index] */\n      dup2\n      sload\n      dup2\n      lt\n      tag_219\n      jumpi\n      tag_220\n      tag_138\n      jump\t// in\n    tag_220:\n    tag_219:\n      swap1\n      0x00\n      mstore\n      keccak256(0x00, 0x20)\n      swap1\n      0x04\n      mul\n      add\n        /* \"contracts/vesting_1.4_test.sol\":7059:7060  0 */\n      0x00\n        /* \"contracts/vesting_1.4_test.sol\":7023:7061  _beneficiaries[beneficiary_][index][0] */\n      0x04\n      dup2\n      lt\n      tag_222\n      jumpi\n      tag_223\n      tag_138\n      jump\t// in\n    tag_223:\n    tag_222:\n      add\n      sload\n        /* \"contracts/vesting_1.4_test.sol\":6994:7019  _totalBeneficiariesAmount */\n      0x06\n      0x00\n        /* \"contracts/vesting_1.4_test.sol\":6994:7061  _totalBeneficiariesAmount -= _beneficiaries[beneficiary_][index][0] */\n      dup3\n      dup3\n      sload\n      tag_225\n      swap2\n      swap1\n      tag_172\n      jump\t// in\n    tag_225:\n      swap3\n      pop\n      pop\n      dup2\n      swap1\n      sstore\n      pop\n        /* \"contracts/vesting_1.4_test.sol\":7075:7103  _canceledPaymentsDueToReason */\n      0x02\n        /* \"contracts/vesting_1.4_test.sol\":7075:7117  _canceledPaymentsDueToReason[beneficiary_] */\n      0x00\n        /* \"contracts/vesting_1.4_test.sol\":7104:7116  beneficiary_ */\n      dup6\n        /* \"contracts/vesting_1.4_test.sol\":7075:7117  _canceledPaymentsDueToReason[beneficiary_] */\n      0xffffffffffffffffffffffffffffffffffffffff\n      and\n      0xffffffffffffffffffffffffffffffffffffffff\n      and\n      dup2\n      mstore\n      0x20\n      add\n      swap1\n      dup2\n      mstore\n      0x20\n      add\n      0x00\n      keccak256\n        /* \"contracts/vesting_1.4_test.sol\":7123:7129  reason */\n      dup3\n      dup3\n        /* \"contracts/vesting_1.4_test.sol\":7075:7130  _canceledPaymentsDueToReason[beneficiary_].push(reason) */\n      swap1\n      swap2\n      dup1\n      0x01\n      dup2\n      sload\n      add\n      dup1\n      dup3\n      sstore\n      dup1\n      swap2\n      pop\n      pop\n      0x01\n      swap1\n      sub\n      swap1\n      0x00\n      mstore\n      keccak256(0x00, 0x20)\n      add\n      0x00\n      swap1\n      swap2\n      swap3\n      swap1\n      swap2\n      swap3\n      swap1\n      swap2\n      swap3\n      swap1\n      swap2\n      swap3\n      pop\n      swap2\n      dup3\n      tag_227\n      swap3\n      swap2\n      swap1\n      tag_228\n      jump\t// in\n    tag_227:\n      pop\n        /* \"contracts/vesting_1.4_test.sol\":7144:7172  _canceledPaymentsAddressList */\n      0x05\n        /* \"contracts/vesting_1.4_test.sol\":7178:7190  beneficiary_ */\n      dup5\n        /* \"contracts/vesting_1.4_test.sol\":7144:7191  _canceledPaymentsAddressList.push(beneficiary_) */\n      swap1\n      dup1\n      0x01\n      dup2\n      sload\n      add\n      dup1\n      dup3\n      sstore\n      dup1\n      swap2\n      pop\n      pop\n      0x01\n      swap1\n      sub\n      swap1\n      0x00\n      mstore\n      keccak256(0x00, 0x20)\n      add\n      0x00\n      swap1\n      swap2\n      swap1\n      swap2\n      swap1\n      swap2\n      0x0100\n      exp\n      dup2\n      sload\n      dup2\n      0xffffffffffffffffffffffffffffffffffffffff\n      mul\n      not\n      and\n      swap1\n      dup4\n      0xffffffffffffffffffffffffffffffffffffffff\n      and\n      mul\n      or\n      swap1\n      sstore\n      pop\n        /* \"contracts/vesting_1.4_test.sol\":7205:7246  removeFromPaymentList(index,beneficiary_) */\n      tag_230\n        /* \"contracts/vesting_1.4_test.sol\":7227:7232  index */\n      dup4\n        /* \"contracts/vesting_1.4_test.sol\":7233:7245  beneficiary_ */\n      dup6\n        /* \"contracts/vesting_1.4_test.sol\":7205:7226  removeFromPaymentList */\n      tag_231\n        /* \"contracts/vesting_1.4_test.sol\":7205:7246  removeFromPaymentList(index,beneficiary_) */\n      jump\t// in\n    tag_230:\n        /* \"contracts/vesting_1.4_test.sol\":6830:7372  if (timeNow() < _beneficiaries[beneficiary_][index][1] && _beneficiaries[beneficiary_][index][2] == 0 && _beneficiaries[beneficiary_][index][3] == 0) {... */\n      jump(tag_232)\n    tag_218:\n        /* \"contracts/vesting_1.4_test.sol\":7294:7361  revert(\"Can't delete approved,withdrawn or after duedate payment!\") */\n      mload(0x40)\n      0x08c379a000000000000000000000000000000000000000000000000000000000\n      dup2\n      mstore\n      0x04\n      add\n      tag_233\n      swap1\n      tag_234\n      jump\t// in\n    tag_233:\n      mload(0x40)\n      dup1\n      swap2\n      sub\n      swap1\n      revert\n        /* \"contracts/vesting_1.4_test.sol\":6830:7372  if (timeNow() < _beneficiaries[beneficiary_][index][1] && _beneficiaries[beneficiary_][index][2] == 0 && _beneficiaries[beneficiary_][index][3] == 0) {... */\n    tag_232:\n        /* \"contracts/vesting_1.4_test.sol\":7442:7443  0 */\n      0x00\n        /* \"contracts/vesting_1.4_test.sol\":7403:7417  _beneficiaries */\n      0x01\n        /* \"contracts/vesting_1.4_test.sol\":7403:7431  _beneficiaries[beneficiary_] */\n      0x00\n        /* \"contracts/vesting_1.4_test.sol\":7418:7430  beneficiary_ */\n      dup7\n        /* \"contracts/vesting_1.4_test.sol\":7403:7431  _beneficiaries[beneficiary_] */\n      0xffffffffffffffffffffffffffffffffffffffff\n      and\n      0xffffffffffffffffffffffffffffffffffffffff\n      and\n      dup2\n      mstore\n      0x20\n      add\n      swap1\n      dup2\n      mstore\n      0x20\n      add\n      0x00\n      keccak256\n        /* \"contracts/vesting_1.4_test.sol\":7403:7438  _beneficiaries[beneficiary_].length */\n      dup1\n      sload\n      swap1\n      pop\n        /* \"contracts/vesting_1.4_test.sol\":7403:7443  _beneficiaries[beneficiary_].length == 0 */\n      sub\n        /* \"contracts/vesting_1.4_test.sol\":7399:7770  if (_beneficiaries[beneficiary_].length == 0) {... */\n      tag_235\n      jumpi\n        /* \"contracts/vesting_1.4_test.sol\":7466:7480  _beneficiaries */\n      0x01\n        /* \"contracts/vesting_1.4_test.sol\":7466:7494  _beneficiaries[beneficiary_] */\n      0x00\n        /* \"contracts/vesting_1.4_test.sol\":7481:7493  beneficiary_ */\n      dup6\n        /* \"contracts/vesting_1.4_test.sol\":7466:7494  _beneficiaries[beneficiary_] */\n      0xffffffffffffffffffffffffffffffffffffffff\n      and\n      0xffffffffffffffffffffffffffffffffffffffff\n      and\n      dup2\n      mstore\n      0x20\n      add\n      swap1\n      dup2\n      mstore\n      0x20\n      add\n      0x00\n      keccak256\n      0x00\n        /* \"contracts/vesting_1.4_test.sol\":7459:7494  delete _beneficiaries[beneficiary_] */\n      tag_236\n      swap2\n      swap1\n      tag_237\n      jump\t// in\n    tag_236:\n        /* \"contracts/vesting_1.4_test.sol\":7513:7522  uint256 i */\n      0x00\n        /* \"contracts/vesting_1.4_test.sol\":7508:7714  for (uint256 i = 0; i < _beneficiary_list.length; i++) {... */\n    tag_238:\n        /* \"contracts/vesting_1.4_test.sol\":7532:7549  _beneficiary_list */\n      0x07\n        /* \"contracts/vesting_1.4_test.sol\":7532:7556  _beneficiary_list.length */\n      dup1\n      sload\n      swap1\n      pop\n        /* \"contracts/vesting_1.4_test.sol\":7528:7529  i */\n      dup2\n        /* \"contracts/vesting_1.4_test.sol\":7528:7556  i < _beneficiary_list.length */\n      lt\n        /* \"contracts/vesting_1.4_test.sol\":7508:7714  for (uint256 i = 0; i < _beneficiary_list.length; i++) {... */\n      iszero\n      tag_239\n      jumpi\n        /* \"contracts/vesting_1.4_test.sol\":7601:7618  _beneficiary_list */\n      0x07\n        /* \"contracts/vesting_1.4_test.sol\":7619:7620  i */\n      dup2\n        /* \"contracts/vesting_1.4_test.sol\":7601:7621  _beneficiary_list[i] */\n      dup2\n      sload\n      dup2\n      lt\n      tag_241\n      jumpi\n      tag_242\n      tag_138\n      jump\t// in\n    tag_242:\n    tag_241:\n      swap1\n      0x00\n      mstore\n      keccak256(0x00, 0x20)\n      add\n      0x00\n      swap1\n      sload\n      swap1\n      0x0100\n      exp\n      swap1\n      div\n      0xffffffffffffffffffffffffffffffffffffffff\n      and\n        /* \"contracts/vesting_1.4_test.sol\":7585:7621  beneficiary_ == _beneficiary_list[i] */\n      0xffffffffffffffffffffffffffffffffffffffff\n      and\n        /* \"contracts/vesting_1.4_test.sol\":7585:7597  beneficiary_ */\n      dup6\n        /* \"contracts/vesting_1.4_test.sol\":7585:7621  beneficiary_ == _beneficiary_list[i] */\n      0xffffffffffffffffffffffffffffffffffffffff\n      and\n      sub\n        /* \"contracts/vesting_1.4_test.sol\":7581:7700  if (beneficiary_ == _beneficiary_list[i]) {... */\n      tag_244\n      jumpi\n        /* \"contracts/vesting_1.4_test.sol\":7653:7654  i */\n      dup1\n        /* \"contracts/vesting_1.4_test.sol\":7645:7654  index = i */\n      swap4\n      pop\n        /* \"contracts/vesting_1.4_test.sol\":7676:7681  break */\n      jump(tag_239)\n        /* \"contracts/vesting_1.4_test.sol\":7581:7700  if (beneficiary_ == _beneficiary_list[i]) {... */\n    tag_244:\n        /* \"contracts/vesting_1.4_test.sol\":7558:7561  i++ */\n      dup1\n      dup1\n      0x01\n      add\n      swap2\n      pop\n      pop\n        /* \"contracts/vesting_1.4_test.sol\":7508:7714  for (uint256 i = 0; i < _beneficiary_list.length; i++) {... */\n      jump(tag_238)\n    tag_239:\n      pop\n        /* \"contracts/vesting_1.4_test.sol\":7727:7759  removeFromBeneficiaryList(index) */\n      tag_245\n        /* \"contracts/vesting_1.4_test.sol\":7753:7758  index */\n      dup4\n        /* \"contracts/vesting_1.4_test.sol\":7727:7752  removeFromBeneficiaryList */\n      tag_246\n        /* \"contracts/vesting_1.4_test.sol\":7727:7759  removeFromBeneficiaryList(index) */\n      jump\t// in\n    tag_245:\n        /* \"contracts/vesting_1.4_test.sol\":7399:7770  if (_beneficiaries[beneficiary_].length == 0) {... */\n    tag_235:\n        /* \"contracts/vesting_1.4_test.sol\":6604:7776  function cancelPaymentToBeneficiary(address beneficiary_, uint256 index, string calldata reason) external onlyOwner {... */\n      pop\n      pop\n      pop\n      pop\n      jump\t// out\n        /* \"contracts/vesting_1.4_test.sol\":9311:9432  function changedWallets() external view onlyOwner returns (address[] memory){... */\n    tag_51:\n        /* \"contracts/vesting_1.4_test.sol\":9370:9386  address[] memory */\n      0x60\n        /* \"@openzeppelin/contracts/access/Ownable.sol\":1094:1107  _checkOwner() */\n      tag_248\n        /* \"@openzeppelin/contracts/access/Ownable.sol\":1094:1105  _checkOwner */\n      tag_119\n        /* \"@openzeppelin/contracts/access/Ownable.sol\":1094:1107  _checkOwner() */\n      jump\t// in\n    tag_248:\n        /* \"contracts/vesting_1.4_test.sol\":9404:9425  _changed_wallets_list */\n      0x04\n        /* \"contracts/vesting_1.4_test.sol\":9397:9425  return _changed_wallets_list */\n      dup1\n      sload\n      dup1\n      0x20\n      mul\n      0x20\n      add\n      mload(0x40)\n      swap1\n      dup2\n      add\n      0x40\n      mstore\n      dup1\n      swap3\n      swap2\n      swap1\n      dup2\n      dup2\n      mstore\n      0x20\n      add\n      dup3\n      dup1\n      sload\n      dup1\n      iszero\n      tag_250\n      jumpi\n      0x20\n      mul\n      dup3\n      add\n      swap2\n      swap1\n      0x00\n      mstore\n      keccak256(0x00, 0x20)\n      swap1\n    tag_251:\n      dup2\n      0x00\n      swap1\n      sload\n      swap1\n      0x0100\n      exp\n      swap1\n      div\n      0xffffffffffffffffffffffffffffffffffffffff\n      and\n      0xffffffffffffffffffffffffffffffffffffffff\n      and\n      dup2\n      mstore\n      0x20\n      add\n      swap1\n      0x01\n      add\n      swap1\n      dup1\n      dup4\n      gt\n      tag_251\n      jumpi\n    tag_250:\n      pop\n      pop\n      pop\n      pop\n      pop\n      swap1\n      pop\n        /* \"contracts/vesting_1.4_test.sol\":9311:9432  function changedWallets() external view onlyOwner returns (address[] memory){... */\n      swap1\n      jump\t// out\n        /* \"contracts/vesting_1.4_test.sol\":3189:3302  function totalUnreleasedPayments() public view returns (uint256){... */\n    tag_55:\n        /* \"contracts/vesting_1.4_test.sol\":3245:3252  uint256 */\n      0x00\n        /* \"contracts/vesting_1.4_test.sol\":3270:3295  _totalBeneficiariesAmount */\n      sload(0x06)\n        /* \"contracts/vesting_1.4_test.sol\":3263:3295  return _totalBeneficiariesAmount */\n      swap1\n      pop\n        /* \"contracts/vesting_1.4_test.sol\":3189:3302  function totalUnreleasedPayments() public view returns (uint256){... */\n      swap1\n      jump\t// out\n        /* \"contracts/vesting_1.4_test.sol\":2680:2794  function returnBeneficiaryList() external view returns (address[] memory){... */\n    tag_58:\n        /* \"contracts/vesting_1.4_test.sol\":2736:2752  address[] memory */\n      0x60\n        /* \"contracts/vesting_1.4_test.sol\":2770:2787  _beneficiary_list */\n      0x07\n        /* \"contracts/vesting_1.4_test.sol\":2763:2787  return _beneficiary_list */\n      dup1\n      sload\n      dup1\n      0x20\n      mul\n      0x20\n      add\n      mload(0x40)\n      swap1\n      dup2\n      add\n      0x40\n      mstore\n      dup1\n      swap3\n      swap2\n      swap1\n      dup2\n      dup2\n      mstore\n      0x20\n      add\n      dup3\n      dup1\n      sload\n      dup1\n      iszero\n      tag_254\n      jumpi\n      0x20\n      mul\n      dup3\n      add\n      swap2\n      swap1\n      0x00\n      mstore\n      keccak256(0x00, 0x20)\n      swap1\n    tag_255:\n      dup2\n      0x00\n      swap1\n      sload\n      swap1\n      0x0100\n      exp\n      swap1\n      div\n      0xffffffffffffffffffffffffffffffffffffffff\n      and\n      0xffffffffffffffffffffffffffffffffffffffff\n      and\n      dup2\n      mstore\n      0x20\n      add\n      swap1\n      0x01\n      add\n      swap1\n      dup1\n      dup4\n      gt\n      tag_255\n      jumpi\n    tag_254:\n      pop\n      pop\n      pop\n      pop\n      pop\n      swap1\n      pop\n        /* \"contracts/vesting_1.4_test.sol\":2680:2794  function returnBeneficiaryList() external view returns (address[] memory){... */\n      swap1\n      jump\t// out\n        /* \"contracts/vesting_1.4_test.sol\":3387:3539  function renounceOwnership() public onlyOwner view override  (Ownable) {... */\n    tag_61:\n        /* \"@openzeppelin/contracts/access/Ownable.sol\":1094:1107  _checkOwner() */\n      tag_257\n        /* \"@openzeppelin/contracts/access/Ownable.sol\":1094:1105  _checkOwner */\n      tag_119\n        /* \"@openzeppelin/contracts/access/Ownable.sol\":1094:1107  _checkOwner() */\n      jump\t// in\n    tag_257:\n        /* \"contracts/vesting_1.4_test.sol\":3468:3531  revert(\"This contract doesn't support renouncing of ownership\") */\n      mload(0x40)\n      0x08c379a000000000000000000000000000000000000000000000000000000000\n      dup2\n      mstore\n      0x04\n      add\n      tag_259\n      swap1\n      tag_260\n      jump\t// in\n    tag_259:\n      mload(0x40)\n      dup1\n      swap2\n      sub\n      swap1\n      revert\n        /* \"contracts/vesting_1.4_test.sol\":3679:3904  function beneficiary(address beneficiary_) external view returns (uint256[4][] memory){... */\n    tag_64:\n        /* \"contracts/vesting_1.4_test.sol\":3745:3764  uint256[4][] memory */\n      0x60\n        /* \"contracts/vesting_1.4_test.sol\":3821:3822  0 */\n      0x00\n        /* \"contracts/vesting_1.4_test.sol\":3783:3797  _beneficiaries */\n      0x01\n        /* \"contracts/vesting_1.4_test.sol\":3783:3811  _beneficiaries[beneficiary_] */\n      0x00\n        /* \"contracts/vesting_1.4_test.sol\":3798:3810  beneficiary_ */\n      dup5\n        /* \"contracts/vesting_1.4_test.sol\":3783:3811  _beneficiaries[beneficiary_] */\n      0xffffffffffffffffffffffffffffffffffffffff\n      and\n      0xffffffffffffffffffffffffffffffffffffffff\n      and\n      dup2\n      mstore\n      0x20\n      add\n      swap1\n      dup2\n      mstore\n      0x20\n      add\n      0x00\n      keccak256\n        /* \"contracts/vesting_1.4_test.sol\":3783:3818  _beneficiaries[beneficiary_].length */\n      dup1\n      sload\n      swap1\n      pop\n        /* \"contracts/vesting_1.4_test.sol\":3783:3822  _beneficiaries[beneficiary_].length > 0 */\n      gt\n        /* \"contracts/vesting_1.4_test.sol\":3775:3852  require(_beneficiaries[beneficiary_].length > 0, \"Beneficiary not existing!\") */\n      tag_262\n      jumpi\n      mload(0x40)\n      0x08c379a000000000000000000000000000000000000000000000000000000000\n      dup2\n      mstore\n      0x04\n      add\n      tag_263\n      swap1\n      tag_132\n      jump\t// in\n    tag_263:\n      mload(0x40)\n      dup1\n      swap2\n      sub\n      swap1\n      revert\n    tag_262:\n        /* \"contracts/vesting_1.4_test.sol\":3869:3883  _beneficiaries */\n      0x01\n        /* \"contracts/vesting_1.4_test.sol\":3869:3897  _beneficiaries[beneficiary_] */\n      0x00\n        /* \"contracts/vesting_1.4_test.sol\":3884:3896  beneficiary_ */\n      dup4\n        /* \"contracts/vesting_1.4_test.sol\":3869:3897  _beneficiaries[beneficiary_] */\n      0xffffffffffffffffffffffffffffffffffffffff\n      and\n      0xffffffffffffffffffffffffffffffffffffffff\n      and\n      dup2\n      mstore\n      0x20\n      add\n      swap1\n      dup2\n      mstore\n      0x20\n      add\n      0x00\n      keccak256\n        /* \"contracts/vesting_1.4_test.sol\":3862:3897  return _beneficiaries[beneficiary_] */\n      dup1\n      sload\n      dup1\n      0x20\n      mul\n      0x20\n      add\n      mload(0x40)\n      swap1\n      dup2\n      add\n      0x40\n      mstore\n      dup1\n      swap3\n      swap2\n      swap1\n      dup2\n      dup2\n      mstore\n      0x20\n      add\n      0x00\n      swap1\n    tag_264:\n      dup3\n      dup3\n      lt\n      iszero\n      tag_265\n      jumpi\n      dup4\n      dup3\n      swap1\n      0x00\n      mstore\n      keccak256(0x00, 0x20)\n      swap1\n      0x04\n      mul\n      add\n      0x04\n      dup1\n      0x20\n      mul\n      mload(0x40)\n      swap1\n      dup2\n      add\n      0x40\n      mstore\n      dup1\n      swap3\n      swap2\n      swap1\n      dup3\n      0x04\n      dup1\n      iszero\n      tag_267\n      jumpi\n      0x20\n      mul\n      dup3\n      add\n      swap2\n    tag_268:\n      dup2\n      sload\n      dup2\n      mstore\n      0x20\n      add\n      swap1\n      0x01\n      add\n      swap1\n      dup1\n      dup4\n      gt\n      tag_268\n      jumpi\n    tag_267:\n      pop\n      pop\n      pop\n      pop\n      pop\n      dup2\n      mstore\n      0x20\n      add\n      swap1\n      0x01\n      add\n      swap1\n      jump(tag_264)\n    tag_265:\n      pop\n      pop\n      pop\n      pop\n      swap1\n      pop\n        /* \"contracts/vesting_1.4_test.sol\":3679:3904  function beneficiary(address beneficiary_) external view returns (uint256[4][] memory){... */\n      swap2\n      swap1\n      pop\n      jump\t// out\n        /* \"@openzeppelin/contracts/access/Ownable.sol\":1201:1286  function owner() public view virtual returns (address) {... */\n    tag_68:\n        /* \"@openzeppelin/contracts/access/Ownable.sol\":1247:1254  address */\n      0x00\n        /* \"@openzeppelin/contracts/access/Ownable.sol\":1273:1279  _owner */\n      dup1\n      0x00\n      swap1\n      sload\n      swap1\n      0x0100\n      exp\n      swap1\n      div\n      0xffffffffffffffffffffffffffffffffffffffff\n      and\n        /* \"@openzeppelin/contracts/access/Ownable.sol\":1266:1279  return _owner */\n      swap1\n      pop\n        /* \"@openzeppelin/contracts/access/Ownable.sol\":1201:1286  function owner() public view virtual returns (address) {... */\n      swap1\n      jump\t// out\n        /* \"contracts/vesting_1.4_test.sol\":11095:11363  function transferExcessBalance(address wallet) external onlyOwner {... */\n    tag_72:\n        /* \"@openzeppelin/contracts/access/Ownable.sol\":1094:1107  _checkOwner() */\n      tag_271\n        /* \"@openzeppelin/contracts/access/Ownable.sol\":1094:1105  _checkOwner */\n      tag_119\n        /* \"@openzeppelin/contracts/access/Ownable.sol\":1094:1107  _checkOwner() */\n      jump\t// in\n    tag_271:\n        /* \"contracts/vesting_1.4_test.sol\":11198:11223  totalUnreleasedPayments() */\n      tag_273\n        /* \"contracts/vesting_1.4_test.sol\":11198:11221  totalUnreleasedPayments */\n      tag_55\n        /* \"contracts/vesting_1.4_test.sol\":11198:11223  totalUnreleasedPayments() */\n      jump\t// in\n    tag_273:\n        /* \"contracts/vesting_1.4_test.sol\":11179:11195  currentBalance() */\n      tag_274\n        /* \"contracts/vesting_1.4_test.sol\":11179:11193  currentBalance */\n      tag_101\n        /* \"contracts/vesting_1.4_test.sol\":11179:11195  currentBalance() */\n      jump\t// in\n    tag_274:\n        /* \"contracts/vesting_1.4_test.sol\":11179:11223  currentBalance() > totalUnreleasedPayments() */\n      gt\n        /* \"contracts/vesting_1.4_test.sol\":11171:11257  require(currentBalance() > totalUnreleasedPayments(), \"No excess tokens to transfer!\") */\n      tag_275\n      jumpi\n      mload(0x40)\n      0x08c379a000000000000000000000000000000000000000000000000000000000\n      dup2\n      mstore\n      0x04\n      add\n      tag_276\n      swap1\n      tag_277\n      jump\t// in\n    tag_276:\n      mload(0x40)\n      dup1\n      swap2\n      sub\n      swap1\n      revert\n    tag_275:\n        /* \"contracts/vesting_1.4_test.sol\":11267:11281  uint256 amount */\n      0x00\n        /* \"contracts/vesting_1.4_test.sol\":11284:11310  currentNonUtilizedAmount() */\n      tag_278\n        /* \"contracts/vesting_1.4_test.sol\":11284:11308  currentNonUtilizedAmount */\n      tag_78\n        /* \"contracts/vesting_1.4_test.sol\":11284:11310  currentNonUtilizedAmount() */\n      jump\t// in\n    tag_278:\n        /* \"contracts/vesting_1.4_test.sol\":11267:11310  uint256 amount = currentNonUtilizedAmount() */\n      swap1\n      pop\n        /* \"contracts/vesting_1.4_test.sol\":11320:11356  token().safeTransfer(wallet, amount) */\n      tag_279\n        /* \"contracts/vesting_1.4_test.sol\":11341:11347  wallet */\n      dup3\n        /* \"contracts/vesting_1.4_test.sol\":11349:11355  amount */\n      dup3\n        /* \"contracts/vesting_1.4_test.sol\":11320:11327  token() */\n      tag_280\n        /* \"contracts/vesting_1.4_test.sol\":11320:11325  token */\n      tag_114\n        /* \"contracts/vesting_1.4_test.sol\":11320:11327  token() */\n      jump\t// in\n    tag_280:\n        /* \"contracts/vesting_1.4_test.sol\":11320:11340  token().safeTransfer */\n      0xffffffffffffffffffffffffffffffffffffffff\n      and\n      tag_181\n      swap1\n        /* \"contracts/vesting_1.4_test.sol\":11320:11356  token().safeTransfer(wallet, amount) */\n      swap3\n      swap2\n      swap1\n      0xffffffff\n      and\n      jump\t// in\n    tag_279:\n        /* \"contracts/vesting_1.4_test.sol\":11161:11363  {... */\n      pop\n        /* \"contracts/vesting_1.4_test.sol\":11095:11363  function transferExcessBalance(address wallet) external onlyOwner {... */\n      pop\n      jump\t// out\n        /* \"contracts/vesting_1.4_test.sol\":2144:2239  function symbol() external view returns (string memory) {... */\n    tag_74:\n        /* \"contracts/vesting_1.4_test.sol\":2185:2198  string memory */\n      0x60\n        /* \"contracts/vesting_1.4_test.sol\":2217:2223  _token */\n      immutable(\"0x02f6903e55725b8fb1e67e68fc4dfbf8e90ced5ec278dfd2021debfe4c69d139\")\n        /* \"contracts/vesting_1.4_test.sol\":2217:2230  _token.symbol */\n      0xffffffffffffffffffffffffffffffffffffffff\n      and\n      0x95d89b41\n        /* \"contracts/vesting_1.4_test.sol\":2217:2232  _token.symbol() */\n      mload(0x40)\n      dup2\n      0xffffffff\n      and\n      0xe0\n      shl\n      dup2\n      mstore\n      0x04\n      add\n      0x00\n      mload(0x40)\n      dup1\n      dup4\n      sub\n      dup2\n      dup7\n      gas\n      staticcall\n      iszero\n      dup1\n      iszero\n      tag_283\n      jumpi\n      returndatasize\n      0x00\n      dup1\n      returndatacopy\n      revert(0x00, returndatasize)\n    tag_283:\n      pop\n      pop\n      pop\n      pop\n      mload(0x40)\n      returndatasize\n      0x00\n      dup3\n      returndatacopy\n      returndatasize\n      not(0x1f)\n      0x1f\n      dup3\n      add\n      and\n      dup3\n      add\n      dup1\n      0x40\n      mstore\n      pop\n      dup2\n      add\n      swap1\n      tag_284\n      swap2\n      swap1\n      tag_285\n      jump\t// in\n    tag_284:\n        /* \"contracts/vesting_1.4_test.sol\":2210:2232  return _token.symbol() */\n      swap1\n      pop\n        /* \"contracts/vesting_1.4_test.sol\":2144:2239  function symbol() external view returns (string memory) {... */\n      swap1\n      jump\t// out\n        /* \"contracts/vesting_1.4_test.sol\":2892:3122  function currentNonUtilizedAmount() public view returns (uint256){... */\n    tag_78:\n        /* \"contracts/vesting_1.4_test.sol\":2949:2956  uint256 */\n      0x00\n        /* \"contracts/vesting_1.4_test.sol\":2995:3020  totalUnreleasedPayments() */\n      tag_287\n        /* \"contracts/vesting_1.4_test.sol\":2995:3018  totalUnreleasedPayments */\n      tag_55\n        /* \"contracts/vesting_1.4_test.sol\":2995:3020  totalUnreleasedPayments() */\n      jump\t// in\n    tag_287:\n        /* \"contracts/vesting_1.4_test.sol\":2975:2991  currentBalance() */\n      tag_288\n        /* \"contracts/vesting_1.4_test.sol\":2975:2989  currentBalance */\n      tag_101\n        /* \"contracts/vesting_1.4_test.sol\":2975:2991  currentBalance() */\n      jump\t// in\n    tag_288:\n        /* \"contracts/vesting_1.4_test.sol\":2975:3020  currentBalance() >= totalUnreleasedPayments() */\n      lt\n      iszero\n        /* \"contracts/vesting_1.4_test.sol\":2967:3021  require(currentBalance() >= totalUnreleasedPayments()) */\n      tag_289\n      jumpi\n      0x00\n      dup1\n      revert\n    tag_289:\n        /* \"contracts/vesting_1.4_test.sol\":3031:3045  uint256 result */\n      0x00\n        /* \"contracts/vesting_1.4_test.sol\":3067:3092  totalUnreleasedPayments() */\n      tag_290\n        /* \"contracts/vesting_1.4_test.sol\":3067:3090  totalUnreleasedPayments */\n      tag_55\n        /* \"contracts/vesting_1.4_test.sol\":3067:3092  totalUnreleasedPayments() */\n      jump\t// in\n    tag_290:\n        /* \"contracts/vesting_1.4_test.sol\":3048:3064  currentBalance() */\n      tag_291\n        /* \"contracts/vesting_1.4_test.sol\":3048:3062  currentBalance */\n      tag_101\n        /* \"contracts/vesting_1.4_test.sol\":3048:3064  currentBalance() */\n      jump\t// in\n    tag_291:\n        /* \"contracts/vesting_1.4_test.sol\":3048:3092  currentBalance() - totalUnreleasedPayments() */\n      tag_292\n      swap2\n      swap1\n      tag_172\n      jump\t// in\n    tag_292:\n        /* \"contracts/vesting_1.4_test.sol\":3031:3092  uint256 result = currentBalance() - totalUnreleasedPayments() */\n      swap1\n      pop\n        /* \"contracts/vesting_1.4_test.sol\":3109:3115  result */\n      dup1\n        /* \"contracts/vesting_1.4_test.sol\":3102:3115  return result */\n      swap2\n      pop\n      pop\n        /* \"contracts/vesting_1.4_test.sol\":2892:3122  function currentNonUtilizedAmount() public view returns (uint256){... */\n      swap1\n      jump\t// out\n        /* \"contracts/vesting_1.4_test.sol\":5762:6540  function addPaymentToBeneficiary(address beneficiary_, uint256 amount, uint256 releaseDate) external onlyOwner {... */\n    tag_83:\n        /* \"@openzeppelin/contracts/access/Ownable.sol\":1094:1107  _checkOwner() */\n      tag_294\n        /* \"@openzeppelin/contracts/access/Ownable.sol\":1094:1105  _checkOwner */\n      tag_119\n        /* \"@openzeppelin/contracts/access/Ownable.sol\":1094:1107  _checkOwner() */\n      jump\t// in\n    tag_294:\n        /* \"contracts/vesting_1.4_test.sol\":5929:5930  0 */\n      0x00\n        /* \"contracts/vesting_1.4_test.sol\":5891:5905  _beneficiaries */\n      0x01\n        /* \"contracts/vesting_1.4_test.sol\":5891:5919  _beneficiaries[beneficiary_] */\n      0x00\n        /* \"contracts/vesting_1.4_test.sol\":5906:5918  beneficiary_ */\n      dup6\n        /* \"contracts/vesting_1.4_test.sol\":5891:5919  _beneficiaries[beneficiary_] */\n      0xffffffffffffffffffffffffffffffffffffffff\n      and\n      0xffffffffffffffffffffffffffffffffffffffff\n      and\n      dup2\n      mstore\n      0x20\n      add\n      swap1\n      dup2\n      mstore\n      0x20\n      add\n      0x00\n      keccak256\n        /* \"contracts/vesting_1.4_test.sol\":5891:5926  _beneficiaries[beneficiary_].length */\n      dup1\n      sload\n      swap1\n      pop\n        /* \"contracts/vesting_1.4_test.sol\":5891:5930  _beneficiaries[beneficiary_].length > 0 */\n      gt\n        /* \"contracts/vesting_1.4_test.sol\":5883:5960  require(_beneficiaries[beneficiary_].length > 0, \"Beneficiary not existing!\") */\n      tag_296\n      jumpi\n      mload(0x40)\n      0x08c379a000000000000000000000000000000000000000000000000000000000\n      dup2\n      mstore\n      0x04\n      add\n      tag_297\n      swap1\n      tag_132\n      jump\t// in\n    tag_297:\n      mload(0x40)\n      dup1\n      swap2\n      sub\n      swap1\n      revert\n    tag_296:\n        /* \"contracts/vesting_1.4_test.sol\":6016:6032  currentBalance() */\n      tag_298\n        /* \"contracts/vesting_1.4_test.sol\":6016:6030  currentBalance */\n      tag_101\n        /* \"contracts/vesting_1.4_test.sol\":6016:6032  currentBalance() */\n      jump\t// in\n    tag_298:\n        /* \"contracts/vesting_1.4_test.sol\":5987:6012  _totalBeneficiariesAmount */\n      sload(0x06)\n        /* \"contracts/vesting_1.4_test.sol\":5978:5984  amount */\n      dup4\n        /* \"contracts/vesting_1.4_test.sol\":5978:6012  amount + _totalBeneficiariesAmount */\n      tag_299\n      swap2\n      swap1\n      tag_300\n      jump\t// in\n    tag_299:\n        /* \"contracts/vesting_1.4_test.sol\":5978:6032  amount + _totalBeneficiariesAmount <= currentBalance() */\n      gt\n      iszero\n        /* \"contracts/vesting_1.4_test.sol\":5970:6082  require(amount + _totalBeneficiariesAmount <= currentBalance(), \"Insufficient balance! Can't add new payments!\") */\n      tag_301\n      jumpi\n      mload(0x40)\n      0x08c379a000000000000000000000000000000000000000000000000000000000\n      dup2\n      mstore\n      0x04\n      add\n      tag_302\n      swap1\n      tag_303\n      jump\t// in\n    tag_302:\n      mload(0x40)\n      dup1\n      swap2\n      sub\n      swap1\n      revert\n    tag_301:\n        /* \"contracts/vesting_1.4_test.sol\":6175:6186  releaseDate */\n      dup1\n        /* \"contracts/vesting_1.4_test.sol\":6100:6114  _beneficiaries */\n      0x01\n        /* \"contracts/vesting_1.4_test.sol\":6100:6128  _beneficiaries[beneficiary_] */\n      0x00\n        /* \"contracts/vesting_1.4_test.sol\":6115:6127  beneficiary_ */\n      dup6\n        /* \"contracts/vesting_1.4_test.sol\":6100:6128  _beneficiaries[beneficiary_] */\n      0xffffffffffffffffffffffffffffffffffffffff\n      and\n      0xffffffffffffffffffffffffffffffffffffffff\n      and\n      dup2\n      mstore\n      0x20\n      add\n      swap1\n      dup2\n      mstore\n      0x20\n      add\n      0x00\n      keccak256\n        /* \"contracts/vesting_1.4_test.sol\":6167:6168  1 */\n      0x01\n        /* \"contracts/vesting_1.4_test.sol\":6129:6143  _beneficiaries */\n      dup1\n        /* \"contracts/vesting_1.4_test.sol\":6129:6157  _beneficiaries[beneficiary_] */\n      0x00\n        /* \"contracts/vesting_1.4_test.sol\":6144:6156  beneficiary_ */\n      dup8\n        /* \"contracts/vesting_1.4_test.sol\":6129:6157  _beneficiaries[beneficiary_] */\n      0xffffffffffffffffffffffffffffffffffffffff\n      and\n      0xffffffffffffffffffffffffffffffffffffffff\n      and\n      dup2\n      mstore\n      0x20\n      add\n      swap1\n      dup2\n      mstore\n      0x20\n      add\n      0x00\n      keccak256\n        /* \"contracts/vesting_1.4_test.sol\":6129:6164  _beneficiaries[beneficiary_].length */\n      dup1\n      sload\n      swap1\n      pop\n        /* \"contracts/vesting_1.4_test.sol\":6129:6168  _beneficiaries[beneficiary_].length - 1 */\n      tag_304\n      swap2\n      swap1\n      tag_172\n      jump\t// in\n    tag_304:\n        /* \"contracts/vesting_1.4_test.sol\":6100:6169  _beneficiaries[beneficiary_][_beneficiaries[beneficiary_].length - 1] */\n      dup2\n      sload\n      dup2\n      lt\n      tag_305\n      jumpi\n      tag_306\n      tag_138\n      jump\t// in\n    tag_306:\n    tag_305:\n      swap1\n      0x00\n      mstore\n      keccak256(0x00, 0x20)\n      swap1\n      0x04\n      mul\n      add\n        /* \"contracts/vesting_1.4_test.sol\":6170:6171  1 */\n      0x01\n        /* \"contracts/vesting_1.4_test.sol\":6100:6172  _beneficiaries[beneficiary_][_beneficiaries[beneficiary_].length - 1][1] */\n      0x04\n      dup2\n      lt\n      tag_308\n      jumpi\n      tag_309\n      tag_138\n      jump\t// in\n    tag_309:\n    tag_308:\n      add\n      sload\n        /* \"contracts/vesting_1.4_test.sol\":6100:6186  _beneficiaries[beneficiary_][_beneficiaries[beneficiary_].length - 1][1] < releaseDate */\n      lt\n        /* \"contracts/vesting_1.4_test.sol\":6092:6250  require(_beneficiaries[beneficiary_][_beneficiaries[beneficiary_].length - 1][1] < releaseDate, \"Future release date can't be smaller than the last entered!\") */\n      tag_311\n      jumpi\n      mload(0x40)\n      0x08c379a000000000000000000000000000000000000000000000000000000000\n      dup2\n      mstore\n      0x04\n      add\n      tag_312\n      swap1\n      tag_313\n      jump\t// in\n    tag_312:\n      mload(0x40)\n      dup1\n      swap2\n      sub\n      swap1\n      revert\n    tag_311:\n        /* \"contracts/vesting_1.4_test.sol\":6280:6291  releaseDate */\n      dup1\n        /* \"contracts/vesting_1.4_test.sol\":6268:6277  timeNow() */\n      tag_314\n        /* \"contracts/vesting_1.4_test.sol\":6268:6275  timeNow */\n      tag_104\n        /* \"contracts/vesting_1.4_test.sol\":6268:6277  timeNow() */\n      jump\t// in\n    tag_314:\n        /* \"contracts/vesting_1.4_test.sol\":6268:6291  timeNow() < releaseDate */\n      lt\n        /* \"contracts/vesting_1.4_test.sol\":6260:6350  require(timeNow() < releaseDate, \"Release date can't be equal or less than current date!\") */\n      tag_315\n      jumpi\n      mload(0x40)\n      0x08c379a000000000000000000000000000000000000000000000000000000000\n      dup2\n      mstore\n      0x04\n      add\n      tag_316\n      swap1\n      tag_317\n      jump\t// in\n    tag_316:\n      mload(0x40)\n      dup1\n      swap2\n      sub\n      swap1\n      revert\n    tag_315:\n        /* \"contracts/vesting_1.4_test.sol\":6360:6372  uint256 paid */\n      0x00\n        /* \"contracts/vesting_1.4_test.sol\":6386:6402  uint256 approved */\n      dup1\n        /* \"contracts/vesting_1.4_test.sol\":6445:6451  amount */\n      dup4\n        /* \"contracts/vesting_1.4_test.sol\":6416:6441  _totalBeneficiariesAmount */\n      0x06\n      0x00\n        /* \"contracts/vesting_1.4_test.sol\":6416:6451  _totalBeneficiariesAmount += amount */\n      dup3\n      dup3\n      sload\n      tag_318\n      swap2\n      swap1\n      tag_300\n      jump\t// in\n    tag_318:\n      swap3\n      pop\n      pop\n      dup2\n      swap1\n      sstore\n      pop\n        /* \"contracts/vesting_1.4_test.sol\":6461:6475  _beneficiaries */\n      0x01\n        /* \"contracts/vesting_1.4_test.sol\":6461:6489  _beneficiaries[beneficiary_] */\n      0x00\n        /* \"contracts/vesting_1.4_test.sol\":6476:6488  beneficiary_ */\n      dup7\n        /* \"contracts/vesting_1.4_test.sol\":6461:6489  _beneficiaries[beneficiary_] */\n      0xffffffffffffffffffffffffffffffffffffffff\n      and\n      0xffffffffffffffffffffffffffffffffffffffff\n      and\n      dup2\n      mstore\n      0x20\n      add\n      swap1\n      dup2\n      mstore\n      0x20\n      add\n      0x00\n      keccak256\n        /* \"contracts/vesting_1.4_test.sol\":6461:6533  _beneficiaries[beneficiary_].push([amount, releaseDate, paid, approved]) */\n      mload(0x40)\n      dup1\n      0x80\n      add\n      0x40\n      mstore\n      dup1\n        /* \"contracts/vesting_1.4_test.sol\":6496:6502  amount */\n      dup7\n        /* \"contracts/vesting_1.4_test.sol\":6461:6533  _beneficiaries[beneficiary_].push([amount, releaseDate, paid, approved]) */\n      dup2\n      mstore\n      0x20\n      add\n        /* \"contracts/vesting_1.4_test.sol\":6504:6515  releaseDate */\n      dup6\n        /* \"contracts/vesting_1.4_test.sol\":6461:6533  _beneficiaries[beneficiary_].push([amount, releaseDate, paid, approved]) */\n      dup2\n      mstore\n      0x20\n      add\n        /* \"contracts/vesting_1.4_test.sol\":6517:6521  paid */\n      dup5\n        /* \"contracts/vesting_1.4_test.sol\":6461:6533  _beneficiaries[beneficiary_].push([amount, releaseDate, paid, approved]) */\n      dup2\n      mstore\n      0x20\n      add\n        /* \"contracts/vesting_1.4_test.sol\":6523:6531  approved */\n      dup4\n        /* \"contracts/vesting_1.4_test.sol\":6461:6533  _beneficiaries[beneficiary_].push([amount, releaseDate, paid, approved]) */\n      dup2\n      mstore\n      pop\n      swap1\n      dup1\n      0x01\n      dup2\n      sload\n      add\n      dup1\n      dup3\n      sstore\n      dup1\n      swap2\n      pop\n      pop\n      0x01\n      swap1\n      sub\n      swap1\n      0x00\n      mstore\n      keccak256(0x00, 0x20)\n      swap1\n      0x04\n      mul\n      add\n      0x00\n      swap1\n      swap2\n      swap1\n      swap2\n      swap1\n      swap2\n      pop\n      swap1\n      0x04\n      tag_320\n      swap3\n      swap2\n      swap1\n      tag_321\n      jump\t// in\n    tag_320:\n      pop\n        /* \"contracts/vesting_1.4_test.sol\":5873:6540  {... */\n      pop\n      pop\n        /* \"contracts/vesting_1.4_test.sol\":5762:6540  function addPaymentToBeneficiary(address beneficiary_, uint256 amount, uint256 releaseDate) external onlyOwner {... */\n      pop\n      pop\n      pop\n      jump\t// out\n        /* \"contracts/vesting_1.4_test.sol\":8564:9305  function changeBeneficiaryWallet(address newBeneficiary) external {... */\n    tag_86:\n        /* \"contracts/vesting_1.4_test.sol\":8684:8685  0 */\n      0x00\n        /* \"contracts/vesting_1.4_test.sol\":8648:8662  _beneficiaries */\n      0x01\n        /* \"contracts/vesting_1.4_test.sol\":8648:8674  _beneficiaries[msg.sender] */\n      0x00\n        /* \"contracts/vesting_1.4_test.sol\":8663:8673  msg.sender */\n      caller\n        /* \"contracts/vesting_1.4_test.sol\":8648:8674  _beneficiaries[msg.sender] */\n      0xffffffffffffffffffffffffffffffffffffffff\n      and\n      0xffffffffffffffffffffffffffffffffffffffff\n      and\n      dup2\n      mstore\n      0x20\n      add\n      swap1\n      dup2\n      mstore\n      0x20\n      add\n      0x00\n      keccak256\n        /* \"contracts/vesting_1.4_test.sol\":8648:8681  _beneficiaries[msg.sender].length */\n      dup1\n      sload\n      swap1\n      pop\n        /* \"contracts/vesting_1.4_test.sol\":8648:8685  _beneficiaries[msg.sender].length > 0 */\n      gt\n        /* \"contracts/vesting_1.4_test.sol\":8640:8715  require(_beneficiaries[msg.sender].length > 0, \"Beneficiary not existing!\") */\n      tag_323\n      jumpi\n      mload(0x40)\n      0x08c379a000000000000000000000000000000000000000000000000000000000\n      dup2\n      mstore\n      0x04\n      add\n      tag_324\n      swap1\n      tag_132\n      jump\t// in\n    tag_324:\n      mload(0x40)\n      dup1\n      swap2\n      sub\n      swap1\n      revert\n    tag_323:\n        /* \"contracts/vesting_1.4_test.sol\":8725:8748  uint256[4][] memory old */\n      0x60\n        /* \"contracts/vesting_1.4_test.sol\":8764:8778  _beneficiaries */\n      0x01\n        /* \"contracts/vesting_1.4_test.sol\":8764:8790  _beneficiaries[msg.sender] */\n      0x00\n        /* \"contracts/vesting_1.4_test.sol\":8779:8789  msg.sender */\n      caller\n        /* \"contracts/vesting_1.4_test.sol\":8764:8790  _beneficiaries[msg.sender] */\n      0xffffffffffffffffffffffffffffffffffffffff\n      and\n      0xffffffffffffffffffffffffffffffffffffffff\n      and\n      dup2\n      mstore\n      0x20\n      add\n      swap1\n      dup2\n      mstore\n      0x20\n      add\n      0x00\n      keccak256\n        /* \"contracts/vesting_1.4_test.sol\":8758:8790  old = _beneficiaries[msg.sender] */\n      dup1\n      sload\n      dup1\n      0x20\n      mul\n      0x20\n      add\n      mload(0x40)\n      swap1\n      dup2\n      add\n      0x40\n      mstore\n      dup1\n      swap3\n      swap2\n      swap1\n      dup2\n      dup2\n      mstore\n      0x20\n      add\n      0x00\n      swap1\n    tag_325:\n      dup3\n      dup3\n      lt\n      iszero\n      tag_326\n      jumpi\n      dup4\n      dup3\n      swap1\n      0x00\n      mstore\n      keccak256(0x00, 0x20)\n      swap1\n      0x04\n      mul\n      add\n      0x04\n      dup1\n      0x20\n      mul\n      mload(0x40)\n      swap1\n      dup2\n      add\n      0x40\n      mstore\n      dup1\n      swap3\n      swap2\n      swap1\n      dup3\n      0x04\n      dup1\n      iszero\n      tag_328\n      jumpi\n      0x20\n      mul\n      dup3\n      add\n      swap2\n    tag_329:\n      dup2\n      sload\n      dup2\n      mstore\n      0x20\n      add\n      swap1\n      0x01\n      add\n      swap1\n      dup1\n      dup4\n      gt\n      tag_329\n      jumpi\n    tag_328:\n      pop\n      pop\n      pop\n      pop\n      pop\n      dup2\n      mstore\n      0x20\n      add\n      swap1\n      0x01\n      add\n      swap1\n      jump(tag_325)\n    tag_326:\n      pop\n      pop\n      pop\n      pop\n      swap1\n      pop\n        /* \"contracts/vesting_1.4_test.sol\":8807:8821  _beneficiaries */\n      0x01\n        /* \"contracts/vesting_1.4_test.sol\":8807:8833  _beneficiaries[msg.sender] */\n      0x00\n        /* \"contracts/vesting_1.4_test.sol\":8822:8832  msg.sender */\n      caller\n        /* \"contracts/vesting_1.4_test.sol\":8807:8833  _beneficiaries[msg.sender] */\n      0xffffffffffffffffffffffffffffffffffffffff\n      and\n      0xffffffffffffffffffffffffffffffffffffffff\n      and\n      dup2\n      mstore\n      0x20\n      add\n      swap1\n      dup2\n      mstore\n      0x20\n      add\n      0x00\n      keccak256\n      0x00\n        /* \"contracts/vesting_1.4_test.sol\":8800:8833  delete _beneficiaries[msg.sender] */\n      tag_330\n      swap2\n      swap1\n      tag_237\n      jump\t// in\n    tag_330:\n        /* \"contracts/vesting_1.4_test.sol\":8876:8879  old */\n      dup1\n        /* \"contracts/vesting_1.4_test.sol\":8843:8857  _beneficiaries */\n      0x01\n        /* \"contracts/vesting_1.4_test.sol\":8843:8873  _beneficiaries[newBeneficiary] */\n      0x00\n        /* \"contracts/vesting_1.4_test.sol\":8858:8872  newBeneficiary */\n      dup5\n        /* \"contracts/vesting_1.4_test.sol\":8843:8873  _beneficiaries[newBeneficiary] */\n      0xffffffffffffffffffffffffffffffffffffffff\n      and\n      0xffffffffffffffffffffffffffffffffffffffff\n      and\n      dup2\n      mstore\n      0x20\n      add\n      swap1\n      dup2\n      mstore\n      0x20\n      add\n      0x00\n      keccak256\n        /* \"contracts/vesting_1.4_test.sol\":8843:8879  _beneficiaries[newBeneficiary] = old */\n      swap1\n      dup1\n      mload\n      swap1\n      0x20\n      add\n      swap1\n      tag_331\n      swap3\n      swap2\n      swap1\n      tag_332\n      jump\t// in\n    tag_331:\n      pop\n        /* \"contracts/vesting_1.4_test.sol\":8889:8902  uint256 index */\n      0x00\n        /* \"contracts/vesting_1.4_test.sol\":8917:8926  uint256 i */\n      dup1\n        /* \"contracts/vesting_1.4_test.sol\":8929:8930  0 */\n      0x00\n        /* \"contracts/vesting_1.4_test.sol\":8917:8930  uint256 i = 0 */\n      swap1\n      pop\n        /* \"contracts/vesting_1.4_test.sol\":8912:9145  for (uint256 i = 0; i < _beneficiary_list.length; i++) {... */\n    tag_333:\n        /* \"contracts/vesting_1.4_test.sol\":8936:8953  _beneficiary_list */\n      0x07\n        /* \"contracts/vesting_1.4_test.sol\":8936:8960  _beneficiary_list.length */\n      dup1\n      sload\n      swap1\n      pop\n        /* \"contracts/vesting_1.4_test.sol\":8932:8933  i */\n      dup2\n        /* \"contracts/vesting_1.4_test.sol\":8932:8960  i < _beneficiary_list.length */\n      lt\n        /* \"contracts/vesting_1.4_test.sol\":8912:9145  for (uint256 i = 0; i < _beneficiary_list.length; i++) {... */\n      iszero\n      tag_334\n      jumpi\n        /* \"contracts/vesting_1.4_test.sol\":8981:9001  address beneficiary_ */\n      0x00\n        /* \"contracts/vesting_1.4_test.sol\":9004:9014  msg.sender */\n      caller\n        /* \"contracts/vesting_1.4_test.sol\":8981:9014  address beneficiary_ = msg.sender */\n      swap1\n      pop\n        /* \"contracts/vesting_1.4_test.sol\":9048:9065  _beneficiary_list */\n      0x07\n        /* \"contracts/vesting_1.4_test.sol\":9066:9067  i */\n      dup3\n        /* \"contracts/vesting_1.4_test.sol\":9048:9068  _beneficiary_list[i] */\n      dup2\n      sload\n      dup2\n      lt\n      tag_336\n      jumpi\n      tag_337\n      tag_138\n      jump\t// in\n    tag_337:\n    tag_336:\n      swap1\n      0x00\n      mstore\n      keccak256(0x00, 0x20)\n      add\n      0x00\n      swap1\n      sload\n      swap1\n      0x0100\n      exp\n      swap1\n      div\n      0xffffffffffffffffffffffffffffffffffffffff\n      and\n        /* \"contracts/vesting_1.4_test.sol\":9032:9068  beneficiary_ == _beneficiary_list[i] */\n      0xffffffffffffffffffffffffffffffffffffffff\n      and\n        /* \"contracts/vesting_1.4_test.sol\":9032:9044  beneficiary_ */\n      dup2\n        /* \"contracts/vesting_1.4_test.sol\":9032:9068  beneficiary_ == _beneficiary_list[i] */\n      0xffffffffffffffffffffffffffffffffffffffff\n      and\n      sub\n        /* \"contracts/vesting_1.4_test.sol\":9028:9135  if (beneficiary_ == _beneficiary_list[i]) {... */\n      tag_339\n      jumpi\n        /* \"contracts/vesting_1.4_test.sol\":9096:9097  i */\n      dup2\n        /* \"contracts/vesting_1.4_test.sol\":9088:9097  index = i */\n      swap3\n      pop\n        /* \"contracts/vesting_1.4_test.sol\":9115:9120  break */\n      pop\n      jump(tag_334)\n        /* \"contracts/vesting_1.4_test.sol\":9028:9135  if (beneficiary_ == _beneficiary_list[i]) {... */\n    tag_339:\n        /* \"contracts/vesting_1.4_test.sol\":8967:9145  {... */\n      pop\n        /* \"contracts/vesting_1.4_test.sol\":8962:8965  i++ */\n      dup1\n      dup1\n      0x01\n      add\n      swap2\n      pop\n      pop\n        /* \"contracts/vesting_1.4_test.sol\":8912:9145  for (uint256 i = 0; i < _beneficiary_list.length; i++) {... */\n      jump(tag_333)\n    tag_334:\n      pop\n        /* \"contracts/vesting_1.4_test.sol\":9181:9195  newBeneficiary */\n      dup3\n        /* \"contracts/vesting_1.4_test.sol\":9154:9171  _beneficiary_list */\n      0x07\n        /* \"contracts/vesting_1.4_test.sol\":9172:9177  index */\n      dup3\n        /* \"contracts/vesting_1.4_test.sol\":9154:9178  _beneficiary_list[index] */\n      dup2\n      sload\n      dup2\n      lt\n      tag_340\n      jumpi\n      tag_341\n      tag_138\n      jump\t// in\n    tag_341:\n    tag_340:\n      swap1\n      0x00\n      mstore\n      keccak256(0x00, 0x20)\n      add\n      0x00\n        /* \"contracts/vesting_1.4_test.sol\":9154:9195  _beneficiary_list[index] = newBeneficiary */\n      0x0100\n      exp\n      dup2\n      sload\n      dup2\n      0xffffffffffffffffffffffffffffffffffffffff\n      mul\n      not\n      and\n      swap1\n      dup4\n      0xffffffffffffffffffffffffffffffffffffffff\n      and\n      mul\n      or\n      swap1\n      sstore\n      pop\n        /* \"contracts/vesting_1.4_test.sol\":9205:9226  _changed_wallets_list */\n      0x04\n        /* \"contracts/vesting_1.4_test.sol\":9232:9242  msg.sender */\n      caller\n        /* \"contracts/vesting_1.4_test.sol\":9205:9243  _changed_wallets_list.push(msg.sender) */\n      swap1\n      dup1\n      0x01\n      dup2\n      sload\n      add\n      dup1\n      dup3\n      sstore\n      dup1\n      swap2\n      pop\n      pop\n      0x01\n      swap1\n      sub\n      swap1\n      0x00\n      mstore\n      keccak256(0x00, 0x20)\n      add\n      0x00\n      swap1\n      swap2\n      swap1\n      swap2\n      swap1\n      swap2\n      0x0100\n      exp\n      dup2\n      sload\n      dup2\n      0xffffffffffffffffffffffffffffffffffffffff\n      mul\n      not\n      and\n      swap1\n      dup4\n      0xffffffffffffffffffffffffffffffffffffffff\n      and\n      mul\n      or\n      swap1\n      sstore\n      pop\n        /* \"contracts/vesting_1.4_test.sol\":9283:9297  newBeneficiary */\n      dup3\n        /* \"contracts/vesting_1.4_test.sol\":9253:9268  _changed_wallet */\n      0x03\n        /* \"contracts/vesting_1.4_test.sol\":9253:9280  _changed_wallet[msg.sender] */\n      0x00\n        /* \"contracts/vesting_1.4_test.sol\":9269:9279  msg.sender */\n      caller\n        /* \"contracts/vesting_1.4_test.sol\":9253:9280  _changed_wallet[msg.sender] */\n      0xffffffffffffffffffffffffffffffffffffffff\n      and\n      0xffffffffffffffffffffffffffffffffffffffff\n      and\n      dup2\n      mstore\n      0x20\n      add\n      swap1\n      dup2\n      mstore\n      0x20\n      add\n      0x00\n      keccak256\n      0x00\n        /* \"contracts/vesting_1.4_test.sol\":9253:9297  _changed_wallet[msg.sender] = newBeneficiary */\n      0x0100\n      exp\n      dup2\n      sload\n      dup2\n      0xffffffffffffffffffffffffffffffffffffffff\n      mul\n      not\n      and\n      swap1\n      dup4\n      0xffffffffffffffffffffffffffffffffffffffff\n      and\n      mul\n      or\n      swap1\n      sstore\n      pop\n        /* \"contracts/vesting_1.4_test.sol\":8630:9305  {... */\n      pop\n      pop\n        /* \"contracts/vesting_1.4_test.sol\":8564:9305  function changeBeneficiaryWallet(address newBeneficiary) external {... */\n      pop\n      jump\t// out\n        /* \"contracts/vesting_1.4_test.sol\":4224:4686  function getReasonForCancellation(address beneficiary_) external view returns (string[] memory){... */\n    tag_89:\n        /* \"contracts/vesting_1.4_test.sol\":4303:4318  string[] memory */\n      0x60\n        /* \"contracts/vesting_1.4_test.sol\":4329:4344  uint256 counter */\n      0x00\n        /* \"contracts/vesting_1.4_test.sol\":4363:4372  uint256 i */\n      dup1\n        /* \"contracts/vesting_1.4_test.sol\":4358:4543  for (uint256 i = 0; i < _canceledPaymentsAddressList.length; i++) {... */\n    tag_345:\n        /* \"contracts/vesting_1.4_test.sol\":4382:4410  _canceledPaymentsAddressList */\n      0x05\n        /* \"contracts/vesting_1.4_test.sol\":4382:4417  _canceledPaymentsAddressList.length */\n      dup1\n      sload\n      swap1\n      pop\n        /* \"contracts/vesting_1.4_test.sol\":4378:4379  i */\n      dup2\n        /* \"contracts/vesting_1.4_test.sol\":4378:4417  i < _canceledPaymentsAddressList.length */\n      lt\n        /* \"contracts/vesting_1.4_test.sol\":4358:4543  for (uint256 i = 0; i < _canceledPaymentsAddressList.length; i++) {... */\n      iszero\n      tag_346\n      jumpi\n        /* \"contracts/vesting_1.4_test.sol\":4458:4486  _canceledPaymentsAddressList */\n      0x05\n        /* \"contracts/vesting_1.4_test.sol\":4487:4488  i */\n      dup2\n        /* \"contracts/vesting_1.4_test.sol\":4458:4489  _canceledPaymentsAddressList[i] */\n      dup2\n      sload\n      dup2\n      lt\n      tag_348\n      jumpi\n      tag_349\n      tag_138\n      jump\t// in\n    tag_349:\n    tag_348:\n      swap1\n      0x00\n      mstore\n      keccak256(0x00, 0x20)\n      add\n      0x00\n      swap1\n      sload\n      swap1\n      0x0100\n      exp\n      swap1\n      div\n      0xffffffffffffffffffffffffffffffffffffffff\n      and\n        /* \"contracts/vesting_1.4_test.sol\":4442:4489  beneficiary_ == _canceledPaymentsAddressList[i] */\n      0xffffffffffffffffffffffffffffffffffffffff\n      and\n        /* \"contracts/vesting_1.4_test.sol\":4442:4454  beneficiary_ */\n      dup5\n        /* \"contracts/vesting_1.4_test.sol\":4442:4489  beneficiary_ == _canceledPaymentsAddressList[i] */\n      0xffffffffffffffffffffffffffffffffffffffff\n      and\n      sub\n        /* \"contracts/vesting_1.4_test.sol\":4438:4533  if (beneficiary_ == _canceledPaymentsAddressList[i]) {... */\n      tag_351\n      jumpi\n        /* \"contracts/vesting_1.4_test.sol\":4509:4518  counter++ */\n      dup2\n      dup1\n      tag_352\n      swap1\n      tag_183\n      jump\t// in\n    tag_352:\n      swap3\n      pop\n      pop\n        /* \"contracts/vesting_1.4_test.sol\":4438:4533  if (beneficiary_ == _canceledPaymentsAddressList[i]) {... */\n    tag_351:\n        /* \"contracts/vesting_1.4_test.sol\":4419:4422  i++ */\n      dup1\n      dup1\n      0x01\n      add\n      swap2\n      pop\n      pop\n        /* \"contracts/vesting_1.4_test.sol\":4358:4543  for (uint256 i = 0; i < _canceledPaymentsAddressList.length; i++) {... */\n      jump(tag_345)\n    tag_346:\n      pop\n        /* \"contracts/vesting_1.4_test.sol\":4570:4571  0 */\n      0x00\n        /* \"contracts/vesting_1.4_test.sol\":4560:4567  counter */\n      dup2\n        /* \"contracts/vesting_1.4_test.sol\":4560:4571  counter > 0 */\n      gt\n        /* \"contracts/vesting_1.4_test.sol\":4552:4620  require(counter > 0, \"Beneficiary does not have canceled payments!\") */\n      tag_353\n      jumpi\n      mload(0x40)\n      0x08c379a000000000000000000000000000000000000000000000000000000000\n      dup2\n      mstore\n      0x04\n      add\n      tag_354\n      swap1\n      tag_355\n      jump\t// in\n    tag_354:\n      mload(0x40)\n      dup1\n      swap2\n      sub\n      swap1\n      revert\n    tag_353:\n        /* \"contracts/vesting_1.4_test.sol\":4637:4665  _canceledPaymentsDueToReason */\n      0x02\n        /* \"contracts/vesting_1.4_test.sol\":4637:4679  _canceledPaymentsDueToReason[beneficiary_] */\n      0x00\n        /* \"contracts/vesting_1.4_test.sol\":4666:4678  beneficiary_ */\n      dup5\n        /* \"contracts/vesting_1.4_test.sol\":4637:4679  _canceledPaymentsDueToReason[beneficiary_] */\n      0xffffffffffffffffffffffffffffffffffffffff\n      and\n      0xffffffffffffffffffffffffffffffffffffffff\n      and\n      dup2\n      mstore\n      0x20\n      add\n      swap1\n      dup2\n      mstore\n      0x20\n      add\n      0x00\n      keccak256\n        /* \"contracts/vesting_1.4_test.sol\":4630:4679  return _canceledPaymentsDueToReason[beneficiary_] */\n      dup1\n      sload\n      dup1\n      0x20\n      mul\n      0x20\n      add\n      mload(0x40)\n      swap1\n      dup2\n      add\n      0x40\n      mstore\n      dup1\n      swap3\n      swap2\n      swap1\n      dup2\n      dup2\n      mstore\n      0x20\n      add\n      0x00\n      swap1\n    tag_356:\n      dup3\n      dup3\n      lt\n      iszero\n      tag_357\n      jumpi\n      dup4\n      dup3\n      swap1\n      0x00\n      mstore\n      keccak256(0x00, 0x20)\n      add\n      dup1\n      sload\n      tag_359\n      swap1\n      tag_360\n      jump\t// in\n    tag_359:\n      dup1\n      0x1f\n      add\n      0x20\n      dup1\n      swap2\n      div\n      mul\n      0x20\n      add\n      mload(0x40)\n      swap1\n      dup2\n      add\n      0x40\n      mstore\n      dup1\n      swap3\n      swap2\n      swap1\n      dup2\n      dup2\n      mstore\n      0x20\n      add\n      dup3\n      dup1\n      sload\n      tag_361\n      swap1\n      tag_360\n      jump\t// in\n    tag_361:\n      dup1\n      iszero\n      tag_362\n      jumpi\n      dup1\n      0x1f\n      lt\n      tag_363\n      jumpi\n      0x0100\n      dup1\n      dup4\n      sload\n      div\n      mul\n      dup4\n      mstore\n      swap2\n      0x20\n      add\n      swap2\n      jump(tag_362)\n    tag_363:\n      dup3\n      add\n      swap2\n      swap1\n      0x00\n      mstore\n      keccak256(0x00, 0x20)\n      swap1\n    tag_364:\n      dup2\n      sload\n      dup2\n      mstore\n      swap1\n      0x01\n      add\n      swap1\n      0x20\n      add\n      dup1\n      dup4\n      gt\n      tag_364\n      jumpi\n      dup3\n      swap1\n      sub\n      0x1f\n      and\n      dup3\n      add\n      swap2\n    tag_362:\n      pop\n      pop\n      pop\n      pop\n      pop\n      dup2\n      mstore\n      0x20\n      add\n      swap1\n      0x01\n      add\n      swap1\n      jump(tag_356)\n    tag_357:\n      pop\n      pop\n      pop\n      pop\n      swap2\n      pop\n      pop\n        /* \"contracts/vesting_1.4_test.sol\":4224:4686  function getReasonForCancellation(address beneficiary_) external view returns (string[] memory){... */\n      swap2\n      swap1\n      pop\n      jump\t// out\n        /* \"contracts/vesting_1.4_test.sol\":11369:11497  function changeApprover(address wallet) external onlyOwner returns (bool){... */\n    tag_94:\n        /* \"contracts/vesting_1.4_test.sol\":11437:11441  bool */\n      0x00\n        /* \"@openzeppelin/contracts/access/Ownable.sol\":1094:1107  _checkOwner() */\n      tag_366\n        /* \"@openzeppelin/contracts/access/Ownable.sol\":1094:1105  _checkOwner */\n      tag_119\n        /* \"@openzeppelin/contracts/access/Ownable.sol\":1094:1107  _checkOwner() */\n      jump\t// in\n    tag_366:\n        /* \"contracts/vesting_1.4_test.sol\":11463:11469  wallet */\n      dup2\n        /* \"contracts/vesting_1.4_test.sol\":11452:11460  approver */\n      0x08\n      0x00\n        /* \"contracts/vesting_1.4_test.sol\":11452:11469  approver = wallet */\n      0x0100\n      exp\n      dup2\n      sload\n      dup2\n      0xffffffffffffffffffffffffffffffffffffffff\n      mul\n      not\n      and\n      swap1\n      dup4\n      0xffffffffffffffffffffffffffffffffffffffff\n      and\n      mul\n      or\n      swap1\n      sstore\n      pop\n        /* \"contracts/vesting_1.4_test.sol\":11486:11490  true */\n      0x01\n        /* \"contracts/vesting_1.4_test.sol\":11479:11490  return true */\n      swap1\n      pop\n        /* \"contracts/vesting_1.4_test.sol\":11369:11497  function changeApprover(address wallet) external onlyOwner returns (bool){... */\n      swap2\n      swap1\n      pop\n      jump\t// out\n        /* \"contracts/vesting_1.4_test.sol\":4003:4135  function getCanceledPaymentsAddresses() external view returns (address[] memory){... */\n    tag_98:\n        /* \"contracts/vesting_1.4_test.sol\":4066:4082  address[] memory */\n      0x60\n        /* \"contracts/vesting_1.4_test.sol\":4100:4128  _canceledPaymentsAddressList */\n      0x05\n        /* \"contracts/vesting_1.4_test.sol\":4093:4128  return _canceledPaymentsAddressList */\n      dup1\n      sload\n      dup1\n      0x20\n      mul\n      0x20\n      add\n      mload(0x40)\n      swap1\n      dup2\n      add\n      0x40\n      mstore\n      dup1\n      swap3\n      swap2\n      swap1\n      dup2\n      dup2\n      mstore\n      0x20\n      add\n      dup3\n      dup1\n      sload\n      dup1\n      iszero\n      tag_369\n      jumpi\n      0x20\n      mul\n      dup3\n      add\n      swap2\n      swap1\n      0x00\n      mstore\n      keccak256(0x00, 0x20)\n      swap1\n    tag_370:\n      dup2\n      0x00\n      swap1\n      sload\n      swap1\n      0x0100\n      exp\n      swap1\n      div\n      0xffffffffffffffffffffffffffffffffffffffff\n      and\n      0xffffffffffffffffffffffffffffffffffffffff\n      and\n      dup2\n      mstore\n      0x20\n      add\n      swap1\n      0x01\n      add\n      swap1\n      dup1\n      dup4\n      gt\n      tag_370\n      jumpi\n    tag_369:\n      pop\n      pop\n      pop\n      pop\n      pop\n      swap1\n      pop\n        /* \"contracts/vesting_1.4_test.sol\":4003:4135  function getCanceledPaymentsAddresses() external view returns (address[] memory){... */\n      swap1\n      jump\t// out\n        /* \"contracts/vesting_1.4_test.sol\":2472:2583  function currentBalance() public view returns (uint256){... */\n    tag_101:\n        /* \"contracts/vesting_1.4_test.sol\":2519:2526  uint256 */\n      0x00\n        /* \"contracts/vesting_1.4_test.sol\":2544:2551  token() */\n      tag_372\n        /* \"contracts/vesting_1.4_test.sol\":2544:2549  token */\n      tag_114\n        /* \"contracts/vesting_1.4_test.sol\":2544:2551  token() */\n      jump\t// in\n    tag_372:\n        /* \"contracts/vesting_1.4_test.sol\":2544:2561  token().balanceOf */\n      0xffffffffffffffffffffffffffffffffffffffff\n      and\n      0x70a08231\n        /* \"contracts/vesting_1.4_test.sol\":2570:2574  this */\n      address\n        /* \"contracts/vesting_1.4_test.sol\":2544:2576  token().balanceOf(address(this)) */\n      mload(0x40)\n      dup3\n      0xffffffff\n      and\n      0xe0\n      shl\n      dup2\n      mstore\n      0x04\n      add\n      tag_373\n      swap2\n      swap1\n      tag_35\n      jump\t// in\n    tag_373:\n      0x20\n      mload(0x40)\n      dup1\n      dup4\n      sub\n      dup2\n      dup7\n      gas\n      staticcall\n      iszero\n      dup1\n      iszero\n      tag_375\n      jumpi\n      returndatasize\n      0x00\n      dup1\n      returndatacopy\n      revert(0x00, returndatasize)\n    tag_375:\n      pop\n      pop\n      pop\n      pop\n      mload(0x40)\n      returndatasize\n      not(0x1f)\n      0x1f\n      dup3\n      add\n      and\n      dup3\n      add\n      dup1\n      0x40\n      mstore\n      pop\n      dup2\n      add\n      swap1\n      tag_376\n      swap2\n      swap1\n      tag_377\n      jump\t// in\n    tag_376:\n        /* \"contracts/vesting_1.4_test.sol\":2537:2576  return token().balanceOf(address(this)) */\n      swap1\n      pop\n        /* \"contracts/vesting_1.4_test.sol\":2472:2583  function currentBalance() public view returns (uint256){... */\n      swap1\n      jump\t// out\n        /* \"contracts/vesting_1.4_test.sol\":1984:2072  function timeNow() public view returns (uint256) {... */\n    tag_104:\n        /* \"contracts/vesting_1.4_test.sol\":2024:2031  uint256 */\n      0x00\n        /* \"contracts/vesting_1.4_test.sol\":2050:2065  block.timestamp */\n      timestamp\n        /* \"contracts/vesting_1.4_test.sol\":2043:2065  return block.timestamp */\n      swap1\n      pop\n        /* \"contracts/vesting_1.4_test.sol\":1984:2072  function timeNow() public view returns (uint256) {... */\n      swap1\n      jump\t// out\n        /* \"@openzeppelin/contracts/access/Ownable.sol\":2081:2279  function transferOwnership(address newOwner) public virtual onlyOwner {... */\n    tag_108:\n        /* \"@openzeppelin/contracts/access/Ownable.sol\":1094:1107  _checkOwner() */\n      tag_380\n        /* \"@openzeppelin/contracts/access/Ownable.sol\":1094:1105  _checkOwner */\n      tag_119\n        /* \"@openzeppelin/contracts/access/Ownable.sol\":1094:1107  _checkOwner() */\n      jump\t// in\n    tag_380:\n        /* \"@openzeppelin/contracts/access/Ownable.sol\":2189:2190  0 */\n      0x00\n        /* \"@openzeppelin/contracts/access/Ownable.sol\":2169:2191  newOwner != address(0) */\n      0xffffffffffffffffffffffffffffffffffffffff\n      and\n        /* \"@openzeppelin/contracts/access/Ownable.sol\":2169:2177  newOwner */\n      dup2\n        /* \"@openzeppelin/contracts/access/Ownable.sol\":2169:2191  newOwner != address(0) */\n      0xffffffffffffffffffffffffffffffffffffffff\n      and\n      sub\n        /* \"@openzeppelin/contracts/access/Ownable.sol\":2161:2234  require(newOwner != address(0), \"Ownable: new owner is the zero address\") */\n      tag_382\n      jumpi\n      mload(0x40)\n      0x08c379a000000000000000000000000000000000000000000000000000000000\n      dup2\n      mstore\n      0x04\n      add\n      tag_383\n      swap1\n      tag_384\n      jump\t// in\n    tag_383:\n      mload(0x40)\n      dup1\n      swap2\n      sub\n      swap1\n      revert\n    tag_382:\n        /* \"@openzeppelin/contracts/access/Ownable.sol\":2244:2272  _transferOwnership(newOwner) */\n      tag_385\n        /* \"@openzeppelin/contracts/access/Ownable.sol\":2263:2271  newOwner */\n      dup2\n        /* \"@openzeppelin/contracts/access/Ownable.sol\":2244:2262  _transferOwnership */\n      tag_386\n        /* \"@openzeppelin/contracts/access/Ownable.sol\":2244:2272  _transferOwnership(newOwner) */\n      jump\t// in\n    tag_385:\n        /* \"@openzeppelin/contracts/access/Ownable.sol\":2081:2279  function transferOwnership(address newOwner) public virtual onlyOwner {... */\n      pop\n      jump\t// out\n        /* \"contracts/vesting_1.4_test.sol\":4767:5692  function addBeneficiary(address beneficiary_, uint256[] calldata amounts, uint256[] calldata releaseDates) external onlyOwner {... */\n    tag_112:\n        /* \"@openzeppelin/contracts/access/Ownable.sol\":1094:1107  _checkOwner() */\n      tag_388\n        /* \"@openzeppelin/contracts/access/Ownable.sol\":1094:1105  _checkOwner */\n      tag_119\n        /* \"@openzeppelin/contracts/access/Ownable.sol\":1094:1107  _checkOwner() */\n      jump\t// in\n    tag_388:\n        /* \"contracts/vesting_1.4_test.sol\":4929:4941  releaseDates */\n      dup2\n      dup2\n        /* \"contracts/vesting_1.4_test.sol\":4929:4948  releaseDates.length */\n      swap1\n      pop\n        /* \"contracts/vesting_1.4_test.sol\":4911:4918  amounts */\n      dup5\n      dup5\n        /* \"contracts/vesting_1.4_test.sol\":4911:4925  amounts.length */\n      swap1\n      pop\n        /* \"contracts/vesting_1.4_test.sol\":4911:4948  amounts.length == releaseDates.length */\n      eq\n        /* \"contracts/vesting_1.4_test.sol\":4911:4971  amounts.length == releaseDates.length && amounts.length >= 1 */\n      dup1\n      iszero\n      tag_390\n      jumpi\n      pop\n        /* \"contracts/vesting_1.4_test.sol\":4970:4971  1 */\n      0x01\n        /* \"contracts/vesting_1.4_test.sol\":4952:4959  amounts */\n      dup5\n      dup5\n        /* \"contracts/vesting_1.4_test.sol\":4952:4966  amounts.length */\n      swap1\n      pop\n        /* \"contracts/vesting_1.4_test.sol\":4952:4971  amounts.length >= 1 */\n      lt\n      iszero\n        /* \"contracts/vesting_1.4_test.sol\":4911:4971  amounts.length == releaseDates.length && amounts.length >= 1 */\n    tag_390:\n        /* \"contracts/vesting_1.4_test.sol\":4903:5048  require(amounts.length == releaseDates.length && amounts.length >= 1, \"Data for not correct!. Count of release dates and amounts must be equal!\") */\n      tag_391\n      jumpi\n      mload(0x40)\n      0x08c379a000000000000000000000000000000000000000000000000000000000\n      dup2\n      mstore\n      0x04\n      add\n      tag_392\n      swap1\n      tag_393\n      jump\t// in\n    tag_392:\n      mload(0x40)\n      dup1\n      swap2\n      sub\n      swap1\n      revert\n    tag_391:\n        /* \"contracts/vesting_1.4_test.sol\":5105:5106  0 */\n      0x00\n        /* \"contracts/vesting_1.4_test.sol\":5066:5080  _beneficiaries */\n      0x01\n        /* \"contracts/vesting_1.4_test.sol\":5066:5094  _beneficiaries[beneficiary_] */\n      0x00\n        /* \"contracts/vesting_1.4_test.sol\":5081:5093  beneficiary_ */\n      dup8\n        /* \"contracts/vesting_1.4_test.sol\":5066:5094  _beneficiaries[beneficiary_] */\n      0xffffffffffffffffffffffffffffffffffffffff\n      and\n      0xffffffffffffffffffffffffffffffffffffffff\n      and\n      dup2\n      mstore\n      0x20\n      add\n      swap1\n      dup2\n      mstore\n      0x20\n      add\n      0x00\n      keccak256\n        /* \"contracts/vesting_1.4_test.sol\":5066:5101  _beneficiaries[beneficiary_].length */\n      dup1\n      sload\n      swap1\n      pop\n        /* \"contracts/vesting_1.4_test.sol\":5066:5106  _beneficiaries[beneficiary_].length == 0 */\n      eq\n        /* \"contracts/vesting_1.4_test.sol\":5058:5140  require(_beneficiaries[beneficiary_].length == 0, \"Beneficiary already existing!\") */\n      tag_394\n      jumpi\n      mload(0x40)\n      0x08c379a000000000000000000000000000000000000000000000000000000000\n      dup2\n      mstore\n      0x04\n      add\n      tag_395\n      swap1\n      tag_396\n      jump\t// in\n    tag_395:\n      mload(0x40)\n      dup1\n      swap2\n      sub\n      swap1\n      revert\n    tag_394:\n        /* \"contracts/vesting_1.4_test.sol\":5150:5162  uint256 paid */\n      0x00\n        /* \"contracts/vesting_1.4_test.sol\":5176:5192  uint256 approved */\n      dup1\n        /* \"contracts/vesting_1.4_test.sol\":5211:5220  uint256 i */\n      0x00\n        /* \"contracts/vesting_1.4_test.sol\":5206:5639  for (uint256 i = 0; i < amounts.length; i++) {... */\n    tag_397:\n        /* \"contracts/vesting_1.4_test.sol\":5230:5237  amounts */\n      dup7\n      dup7\n        /* \"contracts/vesting_1.4_test.sol\":5230:5244  amounts.length */\n      swap1\n      pop\n        /* \"contracts/vesting_1.4_test.sol\":5226:5227  i */\n      dup2\n        /* \"contracts/vesting_1.4_test.sol\":5226:5244  i < amounts.length */\n      lt\n        /* \"contracts/vesting_1.4_test.sol\":5206:5639  for (uint256 i = 0; i < amounts.length; i++) {... */\n      iszero\n      tag_398\n      jumpi\n        /* \"contracts/vesting_1.4_test.sol\":5285:5297  releaseDates */\n      dup5\n      dup5\n        /* \"contracts/vesting_1.4_test.sol\":5298:5299  i */\n      dup3\n        /* \"contracts/vesting_1.4_test.sol\":5285:5300  releaseDates[i] */\n      dup2\n      dup2\n      lt\n      tag_400\n      jumpi\n      tag_401\n      tag_138\n      jump\t// in\n    tag_401:\n    tag_400:\n      swap1\n      pop\n      0x20\n      mul\n      add\n      calldataload\n        /* \"contracts/vesting_1.4_test.sol\":5273:5282  timeNow() */\n      tag_402\n        /* \"contracts/vesting_1.4_test.sol\":5273:5280  timeNow */\n      tag_104\n        /* \"contracts/vesting_1.4_test.sol\":5273:5282  timeNow() */\n      jump\t// in\n    tag_402:\n        /* \"contracts/vesting_1.4_test.sol\":5273:5300  timeNow() < releaseDates[i] */\n      lt\n        /* \"contracts/vesting_1.4_test.sol\":5265:5359  require(timeNow() < releaseDates[i], \"Release date can't be equal or less than current date!\") */\n      tag_403\n      jumpi\n      mload(0x40)\n      0x08c379a000000000000000000000000000000000000000000000000000000000\n      dup2\n      mstore\n      0x04\n      add\n      tag_404\n      swap1\n      tag_317\n      jump\t// in\n    tag_404:\n      mload(0x40)\n      dup1\n      swap2\n      sub\n      swap1\n      revert\n    tag_403:\n        /* \"contracts/vesting_1.4_test.sol\":5402:5409  amounts */\n      dup7\n      dup7\n        /* \"contracts/vesting_1.4_test.sol\":5410:5411  i */\n      dup3\n        /* \"contracts/vesting_1.4_test.sol\":5402:5412  amounts[i] */\n      dup2\n      dup2\n      lt\n      tag_405\n      jumpi\n      tag_406\n      tag_138\n      jump\t// in\n    tag_406:\n    tag_405:\n      swap1\n      pop\n      0x20\n      mul\n      add\n      calldataload\n        /* \"contracts/vesting_1.4_test.sol\":5373:5398  _totalBeneficiariesAmount */\n      0x06\n      0x00\n        /* \"contracts/vesting_1.4_test.sol\":5373:5412  _totalBeneficiariesAmount += amounts[i] */\n      dup3\n      dup3\n      sload\n      tag_407\n      swap2\n      swap1\n      tag_300\n      jump\t// in\n    tag_407:\n      swap3\n      pop\n      pop\n      dup2\n      swap1\n      sstore\n      pop\n        /* \"contracts/vesting_1.4_test.sol\":5463:5479  currentBalance() */\n      tag_408\n        /* \"contracts/vesting_1.4_test.sol\":5463:5477  currentBalance */\n      tag_101\n        /* \"contracts/vesting_1.4_test.sol\":5463:5479  currentBalance() */\n      jump\t// in\n    tag_408:\n        /* \"contracts/vesting_1.4_test.sol\":5434:5459  _totalBeneficiariesAmount */\n      sload(0x06)\n        /* \"contracts/vesting_1.4_test.sol\":5434:5479  _totalBeneficiariesAmount <= currentBalance() */\n      gt\n      iszero\n        /* \"contracts/vesting_1.4_test.sol\":5426:5534  require(_totalBeneficiariesAmount <= currentBalance(), \"Insufficient balance! Can't add new beneficiaries!\") */\n      tag_409\n      jumpi\n      mload(0x40)\n      0x08c379a000000000000000000000000000000000000000000000000000000000\n      dup2\n      mstore\n      0x04\n      add\n      tag_410\n      swap1\n      tag_411\n      jump\t// in\n    tag_410:\n      mload(0x40)\n      dup1\n      swap2\n      sub\n      swap1\n      revert\n    tag_409:\n        /* \"contracts/vesting_1.4_test.sol\":5548:5562  _beneficiaries */\n      0x01\n        /* \"contracts/vesting_1.4_test.sol\":5548:5576  _beneficiaries[beneficiary_] */\n      0x00\n        /* \"contracts/vesting_1.4_test.sol\":5563:5575  beneficiary_ */\n      dup10\n        /* \"contracts/vesting_1.4_test.sol\":5548:5576  _beneficiaries[beneficiary_] */\n      0xffffffffffffffffffffffffffffffffffffffff\n      and\n      0xffffffffffffffffffffffffffffffffffffffff\n      and\n      dup2\n      mstore\n      0x20\n      add\n      swap1\n      dup2\n      mstore\n      0x20\n      add\n      0x00\n      keccak256\n        /* \"contracts/vesting_1.4_test.sol\":5548:5628  _beneficiaries[beneficiary_].push([amounts[i], releaseDates[i], paid, approved]) */\n      mload(0x40)\n      dup1\n      0x80\n      add\n      0x40\n      mstore\n      dup1\n        /* \"contracts/vesting_1.4_test.sol\":5583:5590  amounts */\n      dup10\n      dup10\n        /* \"contracts/vesting_1.4_test.sol\":5591:5592  i */\n      dup6\n        /* \"contracts/vesting_1.4_test.sol\":5583:5593  amounts[i] */\n      dup2\n      dup2\n      lt\n      tag_412\n      jumpi\n      tag_413\n      tag_138\n      jump\t// in\n    tag_413:\n    tag_412:\n      swap1\n      pop\n      0x20\n      mul\n      add\n      calldataload\n        /* \"contracts/vesting_1.4_test.sol\":5548:5628  _beneficiaries[beneficiary_].push([amounts[i], releaseDates[i], paid, approved]) */\n      dup2\n      mstore\n      0x20\n      add\n        /* \"contracts/vesting_1.4_test.sol\":5595:5607  releaseDates */\n      dup8\n      dup8\n        /* \"contracts/vesting_1.4_test.sol\":5608:5609  i */\n      dup6\n        /* \"contracts/vesting_1.4_test.sol\":5595:5610  releaseDates[i] */\n      dup2\n      dup2\n      lt\n      tag_414\n      jumpi\n      tag_415\n      tag_138\n      jump\t// in\n    tag_415:\n    tag_414:\n      swap1\n      pop\n      0x20\n      mul\n      add\n      calldataload\n        /* \"contracts/vesting_1.4_test.sol\":5548:5628  _beneficiaries[beneficiary_].push([amounts[i], releaseDates[i], paid, approved]) */\n      dup2\n      mstore\n      0x20\n      add\n        /* \"contracts/vesting_1.4_test.sol\":5612:5616  paid */\n      dup6\n        /* \"contracts/vesting_1.4_test.sol\":5548:5628  _beneficiaries[beneficiary_].push([amounts[i], releaseDates[i], paid, approved]) */\n      dup2\n      mstore\n      0x20\n      add\n        /* \"contracts/vesting_1.4_test.sol\":5618:5626  approved */\n      dup5\n        /* \"contracts/vesting_1.4_test.sol\":5548:5628  _beneficiaries[beneficiary_].push([amounts[i], releaseDates[i], paid, approved]) */\n      dup2\n      mstore\n      pop\n      swap1\n      dup1\n      0x01\n      dup2\n      sload\n      add\n      dup1\n      dup3\n      sstore\n      dup1\n      swap2\n      pop\n      pop\n      0x01\n      swap1\n      sub\n      swap1\n      0x00\n      mstore\n      keccak256(0x00, 0x20)\n      swap1\n      0x04\n      mul\n      add\n      0x00\n      swap1\n      swap2\n      swap1\n      swap2\n      swap1\n      swap2\n      pop\n      swap1\n      0x04\n      tag_417\n      swap3\n      swap2\n      swap1\n      tag_321\n      jump\t// in\n    tag_417:\n      pop\n        /* \"contracts/vesting_1.4_test.sol\":5246:5249  i++ */\n      dup1\n      dup1\n      0x01\n      add\n      swap2\n      pop\n      pop\n        /* \"contracts/vesting_1.4_test.sol\":5206:5639  for (uint256 i = 0; i < amounts.length; i++) {... */\n      jump(tag_397)\n    tag_398:\n      pop\n        /* \"contracts/vesting_1.4_test.sol\":5649:5666  _beneficiary_list */\n      0x07\n        /* \"contracts/vesting_1.4_test.sol\":5672:5684  beneficiary_ */\n      dup8\n        /* \"contracts/vesting_1.4_test.sol\":5649:5685  _beneficiary_list.push(beneficiary_) */\n      swap1\n      dup1\n      0x01\n      dup2\n      sload\n      add\n      dup1\n      dup3\n      sstore\n      dup1\n      swap2\n      pop\n      pop\n      0x01\n      swap1\n      sub\n      swap1\n      0x00\n      mstore\n      keccak256(0x00, 0x20)\n      add\n      0x00\n      swap1\n      swap2\n      swap1\n      swap2\n      swap1\n      swap2\n      0x0100\n      exp\n      dup2\n      sload\n      dup2\n      0xffffffffffffffffffffffffffffffffffffffff\n      mul\n      not\n      and\n      swap1\n      dup4\n      0xffffffffffffffffffffffffffffffffffffffff\n      and\n      mul\n      or\n      swap1\n      sstore\n      pop\n        /* \"contracts/vesting_1.4_test.sol\":4893:5692  {... */\n      pop\n      pop\n        /* \"contracts/vesting_1.4_test.sol\":4767:5692  function addBeneficiary(address beneficiary_, uint256[] calldata amounts, uint256[] calldata releaseDates) external onlyOwner {... */\n      pop\n      pop\n      pop\n      pop\n      pop\n      jump\t// out\n        /* \"contracts/vesting_1.4_test.sol\":1903:1978  function token() public view returns (Token) {... */\n    tag_114:\n        /* \"contracts/vesting_1.4_test.sol\":1941:1946  Token */\n      0x00\n        /* \"contracts/vesting_1.4_test.sol\":1965:1971  _token */\n      immutable(\"0x02f6903e55725b8fb1e67e68fc4dfbf8e90ced5ec278dfd2021debfe4c69d139\")\n        /* \"contracts/vesting_1.4_test.sol\":1958:1971  return _token */\n      swap1\n      pop\n        /* \"contracts/vesting_1.4_test.sol\":1903:1978  function token() public view returns (Token) {... */\n      swap1\n      jump\t// out\n        /* \"@openzeppelin/contracts/access/Ownable.sol\":1359:1489  function _checkOwner() internal view virtual {... */\n    tag_119:\n        /* \"@openzeppelin/contracts/access/Ownable.sol\":1433:1445  _msgSender() */\n      tag_421\n        /* \"@openzeppelin/contracts/access/Ownable.sol\":1433:1443  _msgSender */\n      tag_422\n        /* \"@openzeppelin/contracts/access/Ownable.sol\":1433:1445  _msgSender() */\n      jump\t// in\n    tag_421:\n        /* \"@openzeppelin/contracts/access/Ownable.sol\":1422:1445  owner() == _msgSender() */\n      0xffffffffffffffffffffffffffffffffffffffff\n      and\n        /* \"@openzeppelin/contracts/access/Ownable.sol\":1422:1429  owner() */\n      tag_423\n        /* \"@openzeppelin/contracts/access/Ownable.sol\":1422:1427  owner */\n      tag_68\n        /* \"@openzeppelin/contracts/access/Ownable.sol\":1422:1429  owner() */\n      jump\t// in\n    tag_423:\n        /* \"@openzeppelin/contracts/access/Ownable.sol\":1422:1445  owner() == _msgSender() */\n      0xffffffffffffffffffffffffffffffffffffffff\n      and\n      eq\n        /* \"@openzeppelin/contracts/access/Ownable.sol\":1414:1482  require(owner() == _msgSender(), \"Ownable: caller is not the owner\") */\n      tag_424\n      jumpi\n      mload(0x40)\n      0x08c379a000000000000000000000000000000000000000000000000000000000\n      dup2\n      mstore\n      0x04\n      add\n      tag_425\n      swap1\n      tag_426\n      jump\t// in\n    tag_425:\n      mload(0x40)\n      dup1\n      swap2\n      sub\n      swap1\n      revert\n    tag_424:\n        /* \"@openzeppelin/contracts/access/Ownable.sol\":1359:1489  function _checkOwner() internal view virtual {... */\n      jump\t// out\n        /* \"@openzeppelin/contracts/token/ERC20/utils/SafeERC20.sol\":763:968  function safeTransfer(... */\n    tag_181:\n        /* \"@openzeppelin/contracts/token/ERC20/utils/SafeERC20.sol\":875:961  _callOptionalReturn(token, abi.encodeWithSelector(token.transfer.selector, to, value)) */\n      tag_428\n        /* \"@openzeppelin/contracts/token/ERC20/utils/SafeERC20.sol\":895:900  token */\n      dup4\n        /* \"@openzeppelin/contracts/token/ERC20/utils/SafeERC20.sol\":925:948  token.transfer.selector */\n      shl(0xe0, 0xa9059cbb)\n        /* \"@openzeppelin/contracts/token/ERC20/utils/SafeERC20.sol\":950:952  to */\n      dup5\n        /* \"@openzeppelin/contracts/token/ERC20/utils/SafeERC20.sol\":954:959  value */\n      dup5\n        /* \"@openzeppelin/contracts/token/ERC20/utils/SafeERC20.sol\":902:960  abi.encodeWithSelector(token.transfer.selector, to, value) */\n      add(0x24, mload(0x40))\n      tag_429\n      swap3\n      swap2\n      swap1\n      tag_430\n      jump\t// in\n    tag_429:\n      mload(0x40)\n      0x20\n      dup2\n      dup4\n      sub\n      sub\n      dup2\n      mstore\n      swap1\n      0x40\n      mstore\n      swap1\n      not(0xffffffffffffffffffffffffffffffffffffffffffffffffffffffff)\n      and\n      0x20\n      dup3\n      add\n      dup1\n      mload\n      0xffffffffffffffffffffffffffffffffffffffffffffffffffffffff\n      dup4\n      dup2\n      dup4\n      and\n      or\n      dup4\n      mstore\n      pop\n      pop\n      pop\n      pop\n        /* \"@openzeppelin/contracts/token/ERC20/utils/SafeERC20.sol\":875:894  _callOptionalReturn */\n      tag_431\n        /* \"@openzeppelin/contracts/token/ERC20/utils/SafeERC20.sol\":875:961  _callOptionalReturn(token, abi.encodeWithSelector(token.transfer.selector, to, value)) */\n      jump\t// in\n    tag_428:\n        /* \"@openzeppelin/contracts/token/ERC20/utils/SafeERC20.sol\":763:968  function safeTransfer(... */\n      pop\n      pop\n      pop\n      jump\t// out\n        /* \"contracts/vesting_1.4_test.sol\":8200:8441  function removeFromPaymentList(uint index, address beneficiary_) private {... */\n    tag_231:\n        /* \"contracts/vesting_1.4_test.sol\":8321:8335  _beneficiaries */\n      0x01\n        /* \"contracts/vesting_1.4_test.sol\":8321:8349  _beneficiaries[beneficiary_] */\n      0x00\n        /* \"contracts/vesting_1.4_test.sol\":8336:8348  beneficiary_ */\n      dup3\n        /* \"contracts/vesting_1.4_test.sol\":8321:8349  _beneficiaries[beneficiary_] */\n      0xffffffffffffffffffffffffffffffffffffffff\n      and\n      0xffffffffffffffffffffffffffffffffffffffff\n      and\n      dup2\n      mstore\n      0x20\n      add\n      swap1\n      dup2\n      mstore\n      0x20\n      add\n      0x00\n      keccak256\n        /* \"contracts/vesting_1.4_test.sol\":8388:8389  1 */\n      0x01\n        /* \"contracts/vesting_1.4_test.sol\":8350:8364  _beneficiaries */\n      dup1\n        /* \"contracts/vesting_1.4_test.sol\":8350:8378  _beneficiaries[beneficiary_] */\n      0x00\n        /* \"contracts/vesting_1.4_test.sol\":8365:8377  beneficiary_ */\n      dup5\n        /* \"contracts/vesting_1.4_test.sol\":8350:8378  _beneficiaries[beneficiary_] */\n      0xffffffffffffffffffffffffffffffffffffffff\n      and\n      0xffffffffffffffffffffffffffffffffffffffff\n      and\n      dup2\n      mstore\n      0x20\n      add\n      swap1\n      dup2\n      mstore\n      0x20\n      add\n      0x00\n      keccak256\n        /* \"contracts/vesting_1.4_test.sol\":8350:8385  _beneficiaries[beneficiary_].length */\n      dup1\n      sload\n      swap1\n      pop\n        /* \"contracts/vesting_1.4_test.sol\":8350:8389  _beneficiaries[beneficiary_].length - 1 */\n      tag_433\n      swap2\n      swap1\n      tag_172\n      jump\t// in\n    tag_433:\n        /* \"contracts/vesting_1.4_test.sol\":8321:8390  _beneficiaries[beneficiary_][_beneficiaries[beneficiary_].length - 1] */\n      dup2\n      sload\n      dup2\n      lt\n      tag_434\n      jumpi\n      tag_435\n      tag_138\n      jump\t// in\n    tag_435:\n    tag_434:\n      swap1\n      0x00\n      mstore\n      keccak256(0x00, 0x20)\n      swap1\n      0x04\n      mul\n      add\n        /* \"contracts/vesting_1.4_test.sol\":8283:8297  _beneficiaries */\n      0x01\n        /* \"contracts/vesting_1.4_test.sol\":8283:8311  _beneficiaries[beneficiary_] */\n      0x00\n        /* \"contracts/vesting_1.4_test.sol\":8298:8310  beneficiary_ */\n      dup4\n        /* \"contracts/vesting_1.4_test.sol\":8283:8311  _beneficiaries[beneficiary_] */\n      0xffffffffffffffffffffffffffffffffffffffff\n      and\n      0xffffffffffffffffffffffffffffffffffffffff\n      and\n      dup2\n      mstore\n      0x20\n      add\n      swap1\n      dup2\n      mstore\n      0x20\n      add\n      0x00\n      keccak256\n        /* \"contracts/vesting_1.4_test.sol\":8312:8317  index */\n      dup4\n        /* \"contracts/vesting_1.4_test.sol\":8283:8318  _beneficiaries[beneficiary_][index] */\n      dup2\n      sload\n      dup2\n      lt\n      tag_437\n      jumpi\n      tag_438\n      tag_138\n      jump\t// in\n    tag_438:\n    tag_437:\n      swap1\n      0x00\n      mstore\n      keccak256(0x00, 0x20)\n      swap1\n      0x04\n      mul\n      add\n        /* \"contracts/vesting_1.4_test.sol\":8283:8390  _beneficiaries[beneficiary_][index] = _beneficiaries[beneficiary_][_beneficiaries[beneficiary_].length - 1] */\n      swap1\n      0x04\n      tag_440\n      swap3\n      swap2\n      swap1\n      tag_441\n      jump\t// in\n    tag_440:\n      pop\n        /* \"contracts/vesting_1.4_test.sol\":8400:8414  _beneficiaries */\n      0x01\n        /* \"contracts/vesting_1.4_test.sol\":8400:8428  _beneficiaries[beneficiary_] */\n      0x00\n        /* \"contracts/vesting_1.4_test.sol\":8415:8427  beneficiary_ */\n      dup3\n        /* \"contracts/vesting_1.4_test.sol\":8400:8428  _beneficiaries[beneficiary_] */\n      0xffffffffffffffffffffffffffffffffffffffff\n      and\n      0xffffffffffffffffffffffffffffffffffffffff\n      and\n      dup2\n      mstore\n      0x20\n      add\n      swap1\n      dup2\n      mstore\n      0x20\n      add\n      0x00\n      keccak256\n        /* \"contracts/vesting_1.4_test.sol\":8400:8434  _beneficiaries[beneficiary_].pop() */\n      dup1\n      sload\n      dup1\n      tag_442\n      jumpi\n      tag_443\n      tag_444\n      jump\t// in\n    tag_443:\n    tag_442:\n      0x01\n      swap1\n      sub\n      dup2\n      dup2\n      swap1\n      0x00\n      mstore\n      keccak256(0x00, 0x20)\n      swap1\n      0x04\n      mul\n      add\n      0x00\n      tag_446\n      swap2\n      swap1\n      tag_447\n      jump\t// in\n    tag_446:\n      swap1\n      sstore\n        /* \"contracts/vesting_1.4_test.sol\":8200:8441  function removeFromPaymentList(uint index, address beneficiary_) private {... */\n      pop\n      pop\n      jump\t// out\n        /* \"contracts/vesting_1.4_test.sol\":7914:8093  function removeFromBeneficiaryList(uint index) private {... */\n    tag_246:\n        /* \"contracts/vesting_1.4_test.sol\":8006:8023  _beneficiary_list */\n      0x07\n        /* \"contracts/vesting_1.4_test.sol\":8051:8052  1 */\n      0x01\n        /* \"contracts/vesting_1.4_test.sol\":8024:8041  _beneficiary_list */\n      0x07\n        /* \"contracts/vesting_1.4_test.sol\":8024:8048  _beneficiary_list.length */\n      dup1\n      sload\n      swap1\n      pop\n        /* \"contracts/vesting_1.4_test.sol\":8024:8052  _beneficiary_list.length - 1 */\n      tag_449\n      swap2\n      swap1\n      tag_172\n      jump\t// in\n    tag_449:\n        /* \"contracts/vesting_1.4_test.sol\":8006:8053  _beneficiary_list[_beneficiary_list.length - 1] */\n      dup2\n      sload\n      dup2\n      lt\n      tag_450\n      jumpi\n      tag_451\n      tag_138\n      jump\t// in\n    tag_451:\n    tag_450:\n      swap1\n      0x00\n      mstore\n      keccak256(0x00, 0x20)\n      add\n      0x00\n      swap1\n      sload\n      swap1\n      0x0100\n      exp\n      swap1\n      div\n      0xffffffffffffffffffffffffffffffffffffffff\n      and\n        /* \"contracts/vesting_1.4_test.sol\":7979:7996  _beneficiary_list */\n      0x07\n        /* \"contracts/vesting_1.4_test.sol\":7997:8002  index */\n      dup3\n        /* \"contracts/vesting_1.4_test.sol\":7979:8003  _beneficiary_list[index] */\n      dup2\n      sload\n      dup2\n      lt\n      tag_453\n      jumpi\n      tag_454\n      tag_138\n      jump\t// in\n    tag_454:\n    tag_453:\n      swap1\n      0x00\n      mstore\n      keccak256(0x00, 0x20)\n      add\n      0x00\n        /* \"contracts/vesting_1.4_test.sol\":7979:8053  _beneficiary_list[index] = _beneficiary_list[_beneficiary_list.length - 1] */\n      0x0100\n      exp\n      dup2\n      sload\n      dup2\n      0xffffffffffffffffffffffffffffffffffffffff\n      mul\n      not\n      and\n      swap1\n      dup4\n      0xffffffffffffffffffffffffffffffffffffffff\n      and\n      mul\n      or\n      swap1\n      sstore\n      pop\n        /* \"contracts/vesting_1.4_test.sol\":8063:8080  _beneficiary_list */\n      0x07\n        /* \"contracts/vesting_1.4_test.sol\":8063:8086  _beneficiary_list.pop() */\n      dup1\n      sload\n      dup1\n      tag_456\n      jumpi\n      tag_457\n      tag_444\n      jump\t// in\n    tag_457:\n    tag_456:\n      0x01\n      swap1\n      sub\n      dup2\n      dup2\n      swap1\n      0x00\n      mstore\n      keccak256(0x00, 0x20)\n      add\n      exp(0x0100, 0x00)\n      dup2\n      sload\n      swap1\n      0xffffffffffffffffffffffffffffffffffffffff\n      mul\n      not\n      and\n      swap1\n      sstore\n      swap1\n      sstore\n        /* \"contracts/vesting_1.4_test.sol\":7914:8093  function removeFromBeneficiaryList(uint index) private {... */\n      pop\n      jump\t// out\n        /* \"@openzeppelin/contracts/access/Ownable.sol\":2433:2620  function _transferOwnership(address newOwner) internal virtual {... */\n    tag_386:\n        /* \"@openzeppelin/contracts/access/Ownable.sol\":2506:2522  address oldOwner */\n      0x00\n        /* \"@openzeppelin/contracts/access/Ownable.sol\":2525:2531  _owner */\n      dup1\n      0x00\n      swap1\n      sload\n      swap1\n      0x0100\n      exp\n      swap1\n      div\n      0xffffffffffffffffffffffffffffffffffffffff\n      and\n        /* \"@openzeppelin/contracts/access/Ownable.sol\":2506:2531  address oldOwner = _owner */\n      swap1\n      pop\n        /* \"@openzeppelin/contracts/access/Ownable.sol\":2550:2558  newOwner */\n      dup2\n        /* \"@openzeppelin/contracts/access/Ownable.sol\":2541:2547  _owner */\n      0x00\n      dup1\n        /* \"@openzeppelin/contracts/access/Ownable.sol\":2541:2558  _owner = newOwner */\n      0x0100\n      exp\n      dup2\n      sload\n      dup2\n      0xffffffffffffffffffffffffffffffffffffffff\n      mul\n      not\n      and\n      swap1\n      dup4\n      0xffffffffffffffffffffffffffffffffffffffff\n      and\n      mul\n      or\n      swap1\n      sstore\n      pop\n        /* \"@openzeppelin/contracts/access/Ownable.sol\":2604:2612  newOwner */\n      dup2\n        /* \"@openzeppelin/contracts/access/Ownable.sol\":2573:2613  OwnershipTransferred(oldOwner, newOwner) */\n      0xffffffffffffffffffffffffffffffffffffffff\n      and\n        /* \"@openzeppelin/contracts/access/Ownable.sol\":2594:2602  oldOwner */\n      dup2\n        /* \"@openzeppelin/contracts/access/Ownable.sol\":2573:2613  OwnershipTransferred(oldOwner, newOwner) */\n      0xffffffffffffffffffffffffffffffffffffffff\n      and\n      0x8be0079c531659141344cd1fd0a4f28419497f9722a3daafe3b4186f6b6457e0\n      mload(0x40)\n      mload(0x40)\n      dup1\n      swap2\n      sub\n      swap1\n      log3\n        /* \"@openzeppelin/contracts/access/Ownable.sol\":2496:2620  {... */\n      pop\n        /* \"@openzeppelin/contracts/access/Ownable.sol\":2433:2620  function _transferOwnership(address newOwner) internal virtual {... */\n      pop\n      jump\t// out\n        /* \"@openzeppelin/contracts/utils/Context.sol\":640:736  function _msgSender() internal view virtual returns (address) {... */\n    tag_422:\n        /* \"@openzeppelin/contracts/utils/Context.sol\":693:700  address */\n      0x00\n        /* \"@openzeppelin/contracts/utils/Context.sol\":719:729  msg.sender */\n      caller\n        /* \"@openzeppelin/contracts/utils/Context.sol\":712:729  return msg.sender */\n      swap1\n      pop\n        /* \"@openzeppelin/contracts/utils/Context.sol\":640:736  function _msgSender() internal view virtual returns (address) {... */\n      swap1\n      jump\t// out\n        /* \"@openzeppelin/contracts/token/ERC20/utils/SafeERC20.sol\":3747:4453  function _callOptionalReturn(IERC20 token, bytes memory data) private {... */\n    tag_431:\n        /* \"@openzeppelin/contracts/token/ERC20/utils/SafeERC20.sol\":4166:4189  bytes memory returndata */\n      0x00\n        /* \"@openzeppelin/contracts/token/ERC20/utils/SafeERC20.sol\":4192:4261  address(token).functionCall(data, \"SafeERC20: low-level call failed\") */\n      tag_462\n        /* \"@openzeppelin/contracts/token/ERC20/utils/SafeERC20.sol\":4220:4224  data */\n      dup3\n        /* \"@openzeppelin/contracts/token/ERC20/utils/SafeERC20.sol\":4192:4261  address(token).functionCall(data, \"SafeERC20: low-level call failed\") */\n      mload(0x40)\n      dup1\n      0x40\n      add\n      0x40\n      mstore\n      dup1\n      0x20\n      dup2\n      mstore\n      0x20\n      add\n      0x5361666545524332303a206c6f772d6c6576656c2063616c6c206661696c6564\n      dup2\n      mstore\n      pop\n        /* \"@openzeppelin/contracts/token/ERC20/utils/SafeERC20.sol\":4200:4205  token */\n      dup6\n        /* \"@openzeppelin/contracts/token/ERC20/utils/SafeERC20.sol\":4192:4219  address(token).functionCall */\n      0xffffffffffffffffffffffffffffffffffffffff\n      and\n      tag_463\n      swap1\n        /* \"@openzeppelin/contracts/token/ERC20/utils/SafeERC20.sol\":4192:4261  address(token).functionCall(data, \"SafeERC20: low-level call failed\") */\n      swap3\n      swap2\n      swap1\n      0xffffffff\n      and\n      jump\t// in\n    tag_462:\n        /* \"@openzeppelin/contracts/token/ERC20/utils/SafeERC20.sol\":4166:4261  bytes memory returndata = address(token).functionCall(data, \"SafeERC20: low-level call failed\") */\n      swap1\n      pop\n        /* \"@openzeppelin/contracts/token/ERC20/utils/SafeERC20.sol\":4295:4296  0 */\n      0x00\n        /* \"@openzeppelin/contracts/token/ERC20/utils/SafeERC20.sol\":4275:4285  returndata */\n      dup2\n        /* \"@openzeppelin/contracts/token/ERC20/utils/SafeERC20.sol\":4275:4292  returndata.length */\n      mload\n        /* \"@openzeppelin/contracts/token/ERC20/utils/SafeERC20.sol\":4275:4296  returndata.length > 0 */\n      gt\n        /* \"@openzeppelin/contracts/token/ERC20/utils/SafeERC20.sol\":4271:4447  if (returndata.length > 0) {... */\n      iszero\n      tag_464\n      jumpi\n        /* \"@openzeppelin/contracts/token/ERC20/utils/SafeERC20.sol\":4370:4380  returndata */\n      dup1\n        /* \"@openzeppelin/contracts/token/ERC20/utils/SafeERC20.sol\":4359:4389  abi.decode(returndata, (bool)) */\n      dup1\n      0x20\n      add\n      swap1\n      mload\n      dup2\n      add\n      swap1\n      tag_465\n      swap2\n      swap1\n      tag_466\n      jump\t// in\n    tag_465:\n        /* \"@openzeppelin/contracts/token/ERC20/utils/SafeERC20.sol\":4351:4436  require(abi.decode(returndata, (bool)), \"SafeERC20: ERC20 operation did not succeed\") */\n      tag_467\n      jumpi\n      mload(0x40)\n      0x08c379a000000000000000000000000000000000000000000000000000000000\n      dup2\n      mstore\n      0x04\n      add\n      tag_468\n      swap1\n      tag_469\n      jump\t// in\n    tag_468:\n      mload(0x40)\n      dup1\n      swap2\n      sub\n      swap1\n      revert\n    tag_467:\n        /* \"@openzeppelin/contracts/token/ERC20/utils/SafeERC20.sol\":4271:4447  if (returndata.length > 0) {... */\n    tag_464:\n        /* \"@openzeppelin/contracts/token/ERC20/utils/SafeERC20.sol\":3817:4453  {... */\n      pop\n        /* \"@openzeppelin/contracts/token/ERC20/utils/SafeERC20.sol\":3747:4453  function _callOptionalReturn(IERC20 token, bytes memory data) private {... */\n      pop\n      pop\n      jump\t// out\n        /* \"@openzeppelin/contracts/utils/Address.sol\":3861:4084  function functionCall(... */\n    tag_463:\n        /* \"@openzeppelin/contracts/utils/Address.sol\":3994:4006  bytes memory */\n      0x60\n        /* \"@openzeppelin/contracts/utils/Address.sol\":4025:4077  functionCallWithValue(target, data, 0, errorMessage) */\n      tag_471\n        /* \"@openzeppelin/contracts/utils/Address.sol\":4047:4053  target */\n      dup5\n        /* \"@openzeppelin/contracts/utils/Address.sol\":4055:4059  data */\n      dup5\n        /* \"@openzeppelin/contracts/utils/Address.sol\":4061:4062  0 */\n      0x00\n        /* \"@openzeppelin/contracts/utils/Address.sol\":4064:4076  errorMessage */\n      dup6\n        /* \"@openzeppelin/contracts/utils/Address.sol\":4025:4046  functionCallWithValue */\n      tag_472\n        /* \"@openzeppelin/contracts/utils/Address.sol\":4025:4077  functionCallWithValue(target, data, 0, errorMessage) */\n      jump\t// in\n    tag_471:\n        /* \"@openzeppelin/contracts/utils/Address.sol\":4018:4077  return functionCallWithValue(target, data, 0, errorMessage) */\n      swap1\n      pop\n        /* \"@openzeppelin/contracts/utils/Address.sol\":3861:4084  function functionCall(... */\n      swap4\n      swap3\n      pop\n      pop\n      pop\n      jump\t// out\n        /* \"@openzeppelin/contracts/utils/Address.sol\":4948:5447  function functionCallWithValue(... */\n    tag_472:\n        /* \"@openzeppelin/contracts/utils/Address.sol\":5113:5125  bytes memory */\n      0x60\n        /* \"@openzeppelin/contracts/utils/Address.sol\":5170:5175  value */\n      dup3\n        /* \"@openzeppelin/contracts/utils/Address.sol\":5145:5166  address(this).balance */\n      selfbalance\n        /* \"@openzeppelin/contracts/utils/Address.sol\":5145:5175  address(this).balance >= value */\n      lt\n      iszero\n        /* \"@openzeppelin/contracts/utils/Address.sol\":5137:5218  require(address(this).balance >= value, \"Address: insufficient balance for call\") */\n      tag_474\n      jumpi\n      mload(0x40)\n      0x08c379a000000000000000000000000000000000000000000000000000000000\n      dup2\n      mstore\n      0x04\n      add\n      tag_475\n      swap1\n      tag_476\n      jump\t// in\n    tag_475:\n      mload(0x40)\n      dup1\n      swap2\n      sub\n      swap1\n      revert\n    tag_474:\n        /* \"@openzeppelin/contracts/utils/Address.sol\":5236:5254  isContract(target) */\n      tag_477\n        /* \"@openzeppelin/contracts/utils/Address.sol\":5247:5253  target */\n      dup6\n        /* \"@openzeppelin/contracts/utils/Address.sol\":5236:5246  isContract */\n      tag_478\n        /* \"@openzeppelin/contracts/utils/Address.sol\":5236:5254  isContract(target) */\n      jump\t// in\n    tag_477:\n        /* \"@openzeppelin/contracts/utils/Address.sol\":5228:5288  require(isContract(target), \"Address: call to non-contract\") */\n      tag_479\n      jumpi\n      mload(0x40)\n      0x08c379a000000000000000000000000000000000000000000000000000000000\n      dup2\n      mstore\n      0x04\n      add\n      tag_480\n      swap1\n      tag_481\n      jump\t// in\n    tag_480:\n      mload(0x40)\n      dup1\n      swap2\n      sub\n      swap1\n      revert\n    tag_479:\n        /* \"@openzeppelin/contracts/utils/Address.sol\":5300:5312  bool success */\n      0x00\n        /* \"@openzeppelin/contracts/utils/Address.sol\":5314:5337  bytes memory returndata */\n      dup1\n        /* \"@openzeppelin/contracts/utils/Address.sol\":5341:5347  target */\n      dup7\n        /* \"@openzeppelin/contracts/utils/Address.sol\":5341:5352  target.call */\n      0xffffffffffffffffffffffffffffffffffffffff\n      and\n        /* \"@openzeppelin/contracts/utils/Address.sol\":5360:5365  value */\n      dup6\n        /* \"@openzeppelin/contracts/utils/Address.sol\":5367:5371  data */\n      dup8\n        /* \"@openzeppelin/contracts/utils/Address.sol\":5341:5372  target.call{value: value}(data) */\n      mload(0x40)\n      tag_482\n      swap2\n      swap1\n      tag_483\n      jump\t// in\n    tag_482:\n      0x00\n      mload(0x40)\n      dup1\n      dup4\n      sub\n      dup2\n      dup6\n      dup8\n      gas\n      call\n      swap3\n      pop\n      pop\n      pop\n      returndatasize\n      dup1\n      0x00\n      dup2\n      eq\n      tag_486\n      jumpi\n      mload(0x40)\n      swap2\n      pop\n      and(add(returndatasize, 0x3f), not(0x1f))\n      dup3\n      add\n      0x40\n      mstore\n      returndatasize\n      dup3\n      mstore\n      returndatasize\n      0x00\n      0x20\n      dup5\n      add\n      returndatacopy\n      jump(tag_485)\n    tag_486:\n      0x60\n      swap2\n      pop\n    tag_485:\n      pop\n        /* \"@openzeppelin/contracts/utils/Address.sol\":5299:5372  (bool success, bytes memory returndata) = target.call{value: value}(data) */\n      swap2\n      pop\n      swap2\n      pop\n        /* \"@openzeppelin/contracts/utils/Address.sol\":5389:5440  verifyCallResult(success, returndata, errorMessage) */\n      tag_487\n        /* \"@openzeppelin/contracts/utils/Address.sol\":5406:5413  success */\n      dup3\n        /* \"@openzeppelin/contracts/utils/Address.sol\":5415:5425  returndata */\n      dup3\n        /* \"@openzeppelin/contracts/utils/Address.sol\":5427:5439  errorMessage */\n      dup7\n        /* \"@openzeppelin/contracts/utils/Address.sol\":5389:5405  verifyCallResult */\n      tag_488\n        /* \"@openzeppelin/contracts/utils/Address.sol\":5389:5440  verifyCallResult(success, returndata, errorMessage) */\n      jump\t// in\n    tag_487:\n        /* \"@openzeppelin/contracts/utils/Address.sol\":5382:5440  return verifyCallResult(success, returndata, errorMessage) */\n      swap3\n      pop\n      pop\n      pop\n        /* \"@openzeppelin/contracts/utils/Address.sol\":4948:5447  function functionCallWithValue(... */\n      swap5\n      swap4\n      pop\n      pop\n      pop\n      pop\n      jump\t// out\n        /* \"@openzeppelin/contracts/utils/Address.sol\":1175:1495  function isContract(address account) internal view returns (bool) {... */\n    tag_478:\n        /* \"@openzeppelin/contracts/utils/Address.sol\":1235:1239  bool */\n      0x00\n        /* \"@openzeppelin/contracts/utils/Address.sol\":1487:1488  0 */\n      dup1\n        /* \"@openzeppelin/contracts/utils/Address.sol\":1465:1472  account */\n      dup3\n        /* \"@openzeppelin/contracts/utils/Address.sol\":1465:1484  account.code.length */\n      0xffffffffffffffffffffffffffffffffffffffff\n      and\n      extcodesize\n        /* \"@openzeppelin/contracts/utils/Address.sol\":1465:1488  account.code.length > 0 */\n      gt\n        /* \"@openzeppelin/contracts/utils/Address.sol\":1458:1488  return account.code.length > 0 */\n      swap1\n      pop\n        /* \"@openzeppelin/contracts/utils/Address.sol\":1175:1495  function isContract(address account) internal view returns (bool) {... */\n      swap2\n      swap1\n      pop\n      jump\t// out\n        /* \"@openzeppelin/contracts/utils/Address.sol\":7561:8303  function verifyCallResult(... */\n    tag_488:\n        /* \"@openzeppelin/contracts/utils/Address.sol\":7707:7719  bytes memory */\n      0x60\n        /* \"@openzeppelin/contracts/utils/Address.sol\":7735:7742  success */\n      dup4\n        /* \"@openzeppelin/contracts/utils/Address.sol\":7731:8297  if (success) {... */\n      iszero\n      tag_491\n      jumpi\n        /* \"@openzeppelin/contracts/utils/Address.sol\":7765:7775  returndata */\n      dup3\n        /* \"@openzeppelin/contracts/utils/Address.sol\":7758:7775  return returndata */\n      swap1\n      pop\n      jump(tag_490)\n        /* \"@openzeppelin/contracts/utils/Address.sol\":7731:8297  if (success) {... */\n    tag_491:\n        /* \"@openzeppelin/contracts/utils/Address.sol\":7896:7897  0 */\n      0x00\n        /* \"@openzeppelin/contracts/utils/Address.sol\":7876:7886  returndata */\n      dup4\n        /* \"@openzeppelin/contracts/utils/Address.sol\":7876:7893  returndata.length */\n      mload\n        /* \"@openzeppelin/contracts/utils/Address.sol\":7876:7897  returndata.length > 0 */\n      gt\n        /* \"@openzeppelin/contracts/utils/Address.sol\":7872:8287  if (returndata.length > 0) {... */\n      iszero\n      tag_493\n      jumpi\n        /* \"@openzeppelin/contracts/utils/Address.sol\":8120:8130  returndata */\n      dup3\n        /* \"@openzeppelin/contracts/utils/Address.sol\":8114:8131  mload(returndata) */\n      mload\n        /* \"@openzeppelin/contracts/utils/Address.sol\":8180:8195  returndata_size */\n      dup1\n        /* \"@openzeppelin/contracts/utils/Address.sol\":8167:8177  returndata */\n      dup5\n        /* \"@openzeppelin/contracts/utils/Address.sol\":8163:8165  32 */\n      0x20\n        /* \"@openzeppelin/contracts/utils/Address.sol\":8159:8178  add(32, returndata) */\n      add\n        /* \"@openzeppelin/contracts/utils/Address.sol\":8152:8196  revert(add(32, returndata), returndata_size) */\n      revert\n        /* \"@openzeppelin/contracts/utils/Address.sol\":7872:8287  if (returndata.length > 0) {... */\n    tag_493:\n        /* \"@openzeppelin/contracts/utils/Address.sol\":8259:8271  errorMessage */\n      dup2\n        /* \"@openzeppelin/contracts/utils/Address.sol\":8252:8272  revert(errorMessage) */\n      mload(0x40)\n      0x08c379a000000000000000000000000000000000000000000000000000000000\n      dup2\n      mstore\n      0x04\n      add\n      tag_495\n      swap2\n      swap1\n      tag_76\n      jump\t// in\n    tag_495:\n      mload(0x40)\n      dup1\n      swap2\n      sub\n      swap1\n      revert\n        /* \"@openzeppelin/contracts/utils/Address.sol\":7561:8303  function verifyCallResult(... */\n    tag_490:\n      swap4\n      swap3\n      pop\n      pop\n      pop\n      jump\t// out\n    tag_237:\n      pop\n      dup1\n      sload\n      0x00\n      dup3\n      sstore\n      0x04\n      mul\n      swap1\n      0x00\n      mstore\n      keccak256(0x00, 0x20)\n      swap1\n      dup2\n      add\n      swap1\n      tag_497\n      swap2\n      swap1\n      tag_498\n      jump\t// in\n    tag_497:\n      pop\n      jump\t// out\n    tag_321:\n      dup3\n      0x04\n      dup2\n      add\n      swap3\n      dup3\n      iszero\n      tag_499\n      jumpi\n      swap2\n      0x20\n      mul\n      dup3\n      add\n    tag_500:\n      dup3\n      dup2\n      gt\n      iszero\n      tag_501\n      jumpi\n      dup3\n      mload\n      dup3\n      sstore\n      swap2\n      0x20\n      add\n      swap2\n      swap1\n      0x01\n      add\n      swap1\n      jump(tag_500)\n    tag_501:\n    tag_499:\n      pop\n      swap1\n      pop\n      tag_502\n      swap2\n      swap1\n      tag_503\n      jump\t// in\n    tag_502:\n      pop\n      swap1\n      jump\t// out\n    tag_332:\n      dup3\n      dup1\n      sload\n      dup3\n      dup3\n      sstore\n      swap1\n      0x00\n      mstore\n      keccak256(0x00, 0x20)\n      swap1\n      0x04\n      mul\n      dup2\n      add\n      swap3\n      dup3\n      iszero\n      tag_504\n      jumpi\n      swap2\n      0x20\n      mul\n      dup3\n      add\n    tag_505:\n      dup3\n      dup2\n      gt\n      iszero\n      tag_506\n      jumpi\n      dup3\n      mload\n      dup3\n      swap1\n      0x04\n      tag_507\n      swap3\n      swap2\n      swap1\n      tag_321\n      jump\t// in\n    tag_507:\n      pop\n      swap2\n      0x20\n      add\n      swap2\n      swap1\n      0x04\n      add\n      swap1\n      jump(tag_505)\n    tag_506:\n    tag_504:\n      pop\n      swap1\n      pop\n      tag_508\n      swap2\n      swap1\n      tag_498\n      jump\t// in\n    tag_508:\n      pop\n      swap1\n      jump\t// out\n    tag_441:\n      dup3\n      0x04\n      dup2\n      add\n      swap3\n      dup3\n      iszero\n      tag_509\n      jumpi\n      swap2\n      dup3\n      add\n    tag_510:\n      dup3\n      dup2\n      gt\n      iszero\n      tag_511\n      jumpi\n      dup3\n      sload\n      dup3\n      sstore\n      swap2\n      0x01\n      add\n      swap2\n      swap1\n      0x01\n      add\n      swap1\n      jump(tag_510)\n    tag_511:\n    tag_509:\n      pop\n      swap1\n      pop\n      tag_512\n      swap2\n      swap1\n      tag_503\n      jump\t// in\n    tag_512:\n      pop\n      swap1\n      jump\t// out\n    tag_447:\n      pop\n      0x00\n      dup2\n      sstore\n      0x01\n      add\n      0x00\n      dup2\n      sstore\n      0x01\n      add\n      0x00\n      dup2\n      sstore\n      0x01\n      add\n      0x00\n      swap1\n      sstore\n      jump\t// out\n    tag_498:\n    tag_513:\n      dup1\n      dup3\n      gt\n      iszero\n      tag_514\n      jumpi\n      0x00\n      dup2\n      dup2\n      tag_515\n      swap2\n      swap1\n      tag_447\n      jump\t// in\n    tag_515:\n      pop\n      0x04\n      add\n      jump(tag_513)\n    tag_514:\n      pop\n      swap1\n      jump\t// out\n    tag_503:\n    tag_516:\n      dup1\n      dup3\n      gt\n      iszero\n      tag_517\n      jumpi\n      0x00\n      dup2\n      0x00\n      swap1\n      sstore\n      pop\n      0x01\n      add\n      jump(tag_516)\n    tag_517:\n      pop\n      swap1\n      jump\t// out\n        /* \"#utility.yul\":7:82   */\n    tag_518:\n        /* \"#utility.yul\":40:46   */\n      0x00\n        /* \"#utility.yul\":73:75   */\n      0x40\n        /* \"#utility.yul\":67:76   */\n      mload\n        /* \"#utility.yul\":57:76   */\n      swap1\n      pop\n        /* \"#utility.yul\":7:82   */\n      swap1\n      jump\t// out\n        /* \"#utility.yul\":88:205   */\n    tag_519:\n        /* \"#utility.yul\":197:198   */\n      0x00\n        /* \"#utility.yul\":194:195   */\n      dup1\n        /* \"#utility.yul\":187:199   */\n      revert\n        /* \"#utility.yul\":211:328   */\n    tag_520:\n        /* \"#utility.yul\":320:321   */\n      0x00\n        /* \"#utility.yul\":317:318   */\n      dup1\n        /* \"#utility.yul\":310:322   */\n      revert\n        /* \"#utility.yul\":334:460   */\n    tag_521:\n        /* \"#utility.yul\":371:378   */\n      0x00\n        /* \"#utility.yul\":411:453   */\n      0xffffffffffffffffffffffffffffffffffffffff\n        /* \"#utility.yul\":404:409   */\n      dup3\n        /* \"#utility.yul\":400:454   */\n      and\n        /* \"#utility.yul\":389:454   */\n      swap1\n      pop\n        /* \"#utility.yul\":334:460   */\n      swap2\n      swap1\n      pop\n      jump\t// out\n        /* \"#utility.yul\":466:562   */\n    tag_522:\n        /* \"#utility.yul\":503:510   */\n      0x00\n        /* \"#utility.yul\":532:556   */\n      tag_652\n        /* \"#utility.yul\":550:555   */\n      dup3\n        /* \"#utility.yul\":532:556   */\n      tag_521\n      jump\t// in\n    tag_652:\n        /* \"#utility.yul\":521:556   */\n      swap1\n      pop\n        /* \"#utility.yul\":466:562   */\n      swap2\n      swap1\n      pop\n      jump\t// out\n        /* \"#utility.yul\":568:690   */\n    tag_523:\n        /* \"#utility.yul\":641:665   */\n      tag_654\n        /* \"#utility.yul\":659:664   */\n      dup2\n        /* \"#utility.yul\":641:665   */\n      tag_522\n      jump\t// in\n    tag_654:\n        /* \"#utility.yul\":634:639   */\n      dup2\n        /* \"#utility.yul\":631:666   */\n      eq\n        /* \"#utility.yul\":621:684   */\n      tag_655\n      jumpi\n        /* \"#utility.yul\":680:681   */\n      0x00\n        /* \"#utility.yul\":677:678   */\n      dup1\n        /* \"#utility.yul\":670:682   */\n      revert\n        /* \"#utility.yul\":621:684   */\n    tag_655:\n        /* \"#utility.yul\":568:690   */\n      pop\n      jump\t// out\n        /* \"#utility.yul\":696:835   */\n    tag_524:\n        /* \"#utility.yul\":742:747   */\n      0x00\n        /* \"#utility.yul\":780:786   */\n      dup2\n        /* \"#utility.yul\":767:787   */\n      calldataload\n        /* \"#utility.yul\":758:787   */\n      swap1\n      pop\n        /* \"#utility.yul\":796:829   */\n      tag_657\n        /* \"#utility.yul\":823:828   */\n      dup2\n        /* \"#utility.yul\":796:829   */\n      tag_523\n      jump\t// in\n    tag_657:\n        /* \"#utility.yul\":696:835   */\n      swap3\n      swap2\n      pop\n      pop\n      jump\t// out\n        /* \"#utility.yul\":841:1170   */\n    tag_32:\n        /* \"#utility.yul\":900:906   */\n      0x00\n        /* \"#utility.yul\":949:951   */\n      0x20\n        /* \"#utility.yul\":937:946   */\n      dup3\n        /* \"#utility.yul\":928:935   */\n      dup5\n        /* \"#utility.yul\":924:947   */\n      sub\n        /* \"#utility.yul\":920:952   */\n      slt\n        /* \"#utility.yul\":917:1036   */\n      iszero\n      tag_659\n      jumpi\n        /* \"#utility.yul\":955:1034   */\n      tag_660\n      tag_519\n      jump\t// in\n    tag_660:\n        /* \"#utility.yul\":917:1036   */\n    tag_659:\n        /* \"#utility.yul\":1075:1076   */\n      0x00\n        /* \"#utility.yul\":1100:1153   */\n      tag_661\n        /* \"#utility.yul\":1145:1152   */\n      dup5\n        /* \"#utility.yul\":1136:1142   */\n      dup3\n        /* \"#utility.yul\":1125:1134   */\n      dup6\n        /* \"#utility.yul\":1121:1143   */\n      add\n        /* \"#utility.yul\":1100:1153   */\n      tag_524\n      jump\t// in\n    tag_661:\n        /* \"#utility.yul\":1090:1153   */\n      swap2\n      pop\n        /* \"#utility.yul\":1046:1163   */\n      pop\n        /* \"#utility.yul\":841:1170   */\n      swap3\n      swap2\n      pop\n      pop\n      jump\t// out\n        /* \"#utility.yul\":1176:1294   */\n    tag_525:\n        /* \"#utility.yul\":1263:1287   */\n      tag_663\n        /* \"#utility.yul\":1281:1286   */\n      dup2\n        /* \"#utility.yul\":1263:1287   */\n      tag_522\n      jump\t// in\n    tag_663:\n        /* \"#utility.yul\":1258:1261   */\n      dup3\n        /* \"#utility.yul\":1251:1288   */\n      mstore\n        /* \"#utility.yul\":1176:1294   */\n      pop\n      pop\n      jump\t// out\n        /* \"#utility.yul\":1300:1522   */\n    tag_35:\n        /* \"#utility.yul\":1393:1397   */\n      0x00\n        /* \"#utility.yul\":1431:1433   */\n      0x20\n        /* \"#utility.yul\":1420:1429   */\n      dup3\n        /* \"#utility.yul\":1416:1434   */\n      add\n        /* \"#utility.yul\":1408:1434   */\n      swap1\n      pop\n        /* \"#utility.yul\":1444:1515   */\n      tag_665\n        /* \"#utility.yul\":1512:1513   */\n      0x00\n        /* \"#utility.yul\":1501:1510   */\n      dup4\n        /* \"#utility.yul\":1497:1514   */\n      add\n        /* \"#utility.yul\":1488:1494   */\n      dup5\n        /* \"#utility.yul\":1444:1515   */\n      tag_525\n      jump\t// in\n    tag_665:\n        /* \"#utility.yul\":1300:1522   */\n      swap3\n      swap2\n      pop\n      pop\n      jump\t// out\n        /* \"#utility.yul\":1528:1605   */\n    tag_526:\n        /* \"#utility.yul\":1565:1572   */\n      0x00\n        /* \"#utility.yul\":1594:1599   */\n      dup2\n        /* \"#utility.yul\":1583:1599   */\n      swap1\n      pop\n        /* \"#utility.yul\":1528:1605   */\n      swap2\n      swap1\n      pop\n      jump\t// out\n        /* \"#utility.yul\":1611:1729   */\n    tag_527:\n        /* \"#utility.yul\":1698:1722   */\n      tag_668\n        /* \"#utility.yul\":1716:1721   */\n      dup2\n        /* \"#utility.yul\":1698:1722   */\n      tag_526\n      jump\t// in\n    tag_668:\n        /* \"#utility.yul\":1693:1696   */\n      dup3\n        /* \"#utility.yul\":1686:1723   */\n      mstore\n        /* \"#utility.yul\":1611:1729   */\n      pop\n      pop\n      jump\t// out\n        /* \"#utility.yul\":1735:1957   */\n    tag_45:\n        /* \"#utility.yul\":1828:1832   */\n      0x00\n        /* \"#utility.yul\":1866:1868   */\n      0x20\n        /* \"#utility.yul\":1855:1864   */\n      dup3\n        /* \"#utility.yul\":1851:1869   */\n      add\n        /* \"#utility.yul\":1843:1869   */\n      swap1\n      pop\n        /* \"#utility.yul\":1879:1950   */\n      tag_670\n        /* \"#utility.yul\":1947:1948   */\n      0x00\n        /* \"#utility.yul\":1936:1945   */\n      dup4\n        /* \"#utility.yul\":1932:1949   */\n      add\n        /* \"#utility.yul\":1923:1929   */\n      dup5\n        /* \"#utility.yul\":1879:1950   */\n      tag_527\n      jump\t// in\n    tag_670:\n        /* \"#utility.yul\":1735:1957   */\n      swap3\n      swap2\n      pop\n      pop\n      jump\t// out\n        /* \"#utility.yul\":1963:2085   */\n    tag_528:\n        /* \"#utility.yul\":2036:2060   */\n      tag_672\n        /* \"#utility.yul\":2054:2059   */\n      dup2\n        /* \"#utility.yul\":2036:2060   */\n      tag_526\n      jump\t// in\n    tag_672:\n        /* \"#utility.yul\":2029:2034   */\n      dup2\n        /* \"#utility.yul\":2026:2061   */\n      eq\n        /* \"#utility.yul\":2016:2079   */\n      tag_673\n      jumpi\n        /* \"#utility.yul\":2075:2076   */\n      0x00\n        /* \"#utility.yul\":2072:2073   */\n      dup1\n        /* \"#utility.yul\":2065:2077   */\n      revert\n        /* \"#utility.yul\":2016:2079   */\n    tag_673:\n        /* \"#utility.yul\":1963:2085   */\n      pop\n      jump\t// out\n        /* \"#utility.yul\":2091:2230   */\n    tag_529:\n        /* \"#utility.yul\":2137:2142   */\n      0x00\n        /* \"#utility.yul\":2175:2181   */\n      dup2\n        /* \"#utility.yul\":2162:2182   */\n      calldataload\n        /* \"#utility.yul\":2153:2182   */\n      swap1\n      pop\n        /* \"#utility.yul\":2191:2224   */\n      tag_675\n        /* \"#utility.yul\":2218:2223   */\n      dup2\n        /* \"#utility.yul\":2191:2224   */\n      tag_528\n      jump\t// in\n    tag_675:\n        /* \"#utility.yul\":2091:2230   */\n      swap3\n      swap2\n      pop\n      pop\n      jump\t// out\n        /* \"#utility.yul\":2236:2353   */\n    tag_530:\n        /* \"#utility.yul\":2345:2346   */\n      0x00\n        /* \"#utility.yul\":2342:2343   */\n      dup1\n        /* \"#utility.yul\":2335:2347   */\n      revert\n        /* \"#utility.yul\":2359:2476   */\n    tag_531:\n        /* \"#utility.yul\":2468:2469   */\n      0x00\n        /* \"#utility.yul\":2465:2466   */\n      dup1\n        /* \"#utility.yul\":2458:2470   */\n      revert\n        /* \"#utility.yul\":2482:2599   */\n    tag_532:\n        /* \"#utility.yul\":2591:2592   */\n      0x00\n        /* \"#utility.yul\":2588:2589   */\n      dup1\n        /* \"#utility.yul\":2581:2593   */\n      revert\n        /* \"#utility.yul\":2619:3172   */\n    tag_533:\n        /* \"#utility.yul\":2677:2685   */\n      0x00\n        /* \"#utility.yul\":2687:2693   */\n      dup1\n        /* \"#utility.yul\":2737:2740   */\n      dup4\n        /* \"#utility.yul\":2730:2734   */\n      0x1f\n        /* \"#utility.yul\":2722:2728   */\n      dup5\n        /* \"#utility.yul\":2718:2735   */\n      add\n        /* \"#utility.yul\":2714:2741   */\n      slt\n        /* \"#utility.yul\":2704:2826   */\n      tag_680\n      jumpi\n        /* \"#utility.yul\":2745:2824   */\n      tag_681\n      tag_530\n      jump\t// in\n    tag_681:\n        /* \"#utility.yul\":2704:2826   */\n    tag_680:\n        /* \"#utility.yul\":2858:2864   */\n      dup3\n        /* \"#utility.yul\":2845:2865   */\n      calldataload\n        /* \"#utility.yul\":2835:2865   */\n      swap1\n      pop\n        /* \"#utility.yul\":2888:2906   */\n      0xffffffffffffffff\n        /* \"#utility.yul\":2880:2886   */\n      dup2\n        /* \"#utility.yul\":2877:2907   */\n      gt\n        /* \"#utility.yul\":2874:2991   */\n      iszero\n      tag_682\n      jumpi\n        /* \"#utility.yul\":2910:2989   */\n      tag_683\n      tag_531\n      jump\t// in\n    tag_683:\n        /* \"#utility.yul\":2874:2991   */\n    tag_682:\n        /* \"#utility.yul\":3024:3028   */\n      0x20\n        /* \"#utility.yul\":3016:3022   */\n      dup4\n        /* \"#utility.yul\":3012:3029   */\n      add\n        /* \"#utility.yul\":3000:3029   */\n      swap2\n      pop\n        /* \"#utility.yul\":3078:3081   */\n      dup4\n        /* \"#utility.yul\":3070:3074   */\n      0x01\n        /* \"#utility.yul\":3062:3068   */\n      dup3\n        /* \"#utility.yul\":3058:3075   */\n      mul\n        /* \"#utility.yul\":3048:3056   */\n      dup4\n        /* \"#utility.yul\":3044:3076   */\n      add\n        /* \"#utility.yul\":3041:3082   */\n      gt\n        /* \"#utility.yul\":3038:3166   */\n      iszero\n      tag_684\n      jumpi\n        /* \"#utility.yul\":3085:3164   */\n      tag_685\n      tag_532\n      jump\t// in\n    tag_685:\n        /* \"#utility.yul\":3038:3166   */\n    tag_684:\n        /* \"#utility.yul\":2619:3172   */\n      swap3\n      pop\n      swap3\n      swap1\n      pop\n      jump\t// out\n        /* \"#utility.yul\":3178:3997   */\n    tag_48:\n        /* \"#utility.yul\":3267:3273   */\n      0x00\n        /* \"#utility.yul\":3275:3281   */\n      dup1\n        /* \"#utility.yul\":3283:3289   */\n      0x00\n        /* \"#utility.yul\":3291:3297   */\n      dup1\n        /* \"#utility.yul\":3340:3342   */\n      0x60\n        /* \"#utility.yul\":3328:3337   */\n      dup6\n        /* \"#utility.yul\":3319:3326   */\n      dup8\n        /* \"#utility.yul\":3315:3338   */\n      sub\n        /* \"#utility.yul\":3311:3343   */\n      slt\n        /* \"#utility.yul\":3308:3427   */\n      iszero\n      tag_687\n      jumpi\n        /* \"#utility.yul\":3346:3425   */\n      tag_688\n      tag_519\n      jump\t// in\n    tag_688:\n        /* \"#utility.yul\":3308:3427   */\n    tag_687:\n        /* \"#utility.yul\":3466:3467   */\n      0x00\n        /* \"#utility.yul\":3491:3544   */\n      tag_689\n        /* \"#utility.yul\":3536:3543   */\n      dup8\n        /* \"#utility.yul\":3527:3533   */\n      dup3\n        /* \"#utility.yul\":3516:3525   */\n      dup9\n        /* \"#utility.yul\":3512:3534   */\n      add\n        /* \"#utility.yul\":3491:3544   */\n      tag_524\n      jump\t// in\n    tag_689:\n        /* \"#utility.yul\":3481:3544   */\n      swap5\n      pop\n        /* \"#utility.yul\":3437:3554   */\n      pop\n        /* \"#utility.yul\":3593:3595   */\n      0x20\n        /* \"#utility.yul\":3619:3672   */\n      tag_690\n        /* \"#utility.yul\":3664:3671   */\n      dup8\n        /* \"#utility.yul\":3655:3661   */\n      dup3\n        /* \"#utility.yul\":3644:3653   */\n      dup9\n        /* \"#utility.yul\":3640:3662   */\n      add\n        /* \"#utility.yul\":3619:3672   */\n      tag_529\n      jump\t// in\n    tag_690:\n        /* \"#utility.yul\":3609:3672   */\n      swap4\n      pop\n        /* \"#utility.yul\":3564:3682   */\n      pop\n        /* \"#utility.yul\":3749:3751   */\n      0x40\n        /* \"#utility.yul\":3738:3747   */\n      dup6\n        /* \"#utility.yul\":3734:3752   */\n      add\n        /* \"#utility.yul\":3721:3753   */\n      calldataload\n        /* \"#utility.yul\":3780:3798   */\n      0xffffffffffffffff\n        /* \"#utility.yul\":3772:3778   */\n      dup2\n        /* \"#utility.yul\":3769:3799   */\n      gt\n        /* \"#utility.yul\":3766:3883   */\n      iszero\n      tag_691\n      jumpi\n        /* \"#utility.yul\":3802:3881   */\n      tag_692\n      tag_520\n      jump\t// in\n    tag_692:\n        /* \"#utility.yul\":3766:3883   */\n    tag_691:\n        /* \"#utility.yul\":3915:3980   */\n      tag_693\n        /* \"#utility.yul\":3972:3979   */\n      dup8\n        /* \"#utility.yul\":3963:3969   */\n      dup3\n        /* \"#utility.yul\":3952:3961   */\n      dup9\n        /* \"#utility.yul\":3948:3970   */\n      add\n        /* \"#utility.yul\":3915:3980   */\n      tag_533\n      jump\t// in\n    tag_693:\n        /* \"#utility.yul\":3897:3980   */\n      swap3\n      pop\n      swap3\n      pop\n        /* \"#utility.yul\":3692:3990   */\n      pop\n        /* \"#utility.yul\":3178:3997   */\n      swap3\n      swap6\n      swap2\n      swap5\n      pop\n      swap3\n      pop\n      jump\t// out\n        /* \"#utility.yul\":4003:4117   */\n    tag_534:\n        /* \"#utility.yul\":4070:4076   */\n      0x00\n        /* \"#utility.yul\":4104:4109   */\n      dup2\n        /* \"#utility.yul\":4098:4110   */\n      mload\n        /* \"#utility.yul\":4088:4110   */\n      swap1\n      pop\n        /* \"#utility.yul\":4003:4117   */\n      swap2\n      swap1\n      pop\n      jump\t// out\n        /* \"#utility.yul\":4123:4307   */\n    tag_535:\n        /* \"#utility.yul\":4222:4233   */\n      0x00\n        /* \"#utility.yul\":4256:4262   */\n      dup3\n        /* \"#utility.yul\":4251:4254   */\n      dup3\n        /* \"#utility.yul\":4244:4263   */\n      mstore\n        /* \"#utility.yul\":4296:4300   */\n      0x20\n        /* \"#utility.yul\":4291:4294   */\n      dup3\n        /* \"#utility.yul\":4287:4301   */\n      add\n        /* \"#utility.yul\":4272:4301   */\n      swap1\n      pop\n        /* \"#utility.yul\":4123:4307   */\n      swap3\n      swap2\n      pop\n      pop\n      jump\t// out\n        /* \"#utility.yul\":4313:4445   */\n    tag_536:\n        /* \"#utility.yul\":4380:4384   */\n      0x00\n        /* \"#utility.yul\":4403:4406   */\n      dup2\n        /* \"#utility.yul\":4395:4406   */\n      swap1\n      pop\n        /* \"#utility.yul\":4433:4437   */\n      0x20\n        /* \"#utility.yul\":4428:4431   */\n      dup3\n        /* \"#utility.yul\":4424:4438   */\n      add\n        /* \"#utility.yul\":4416:4438   */\n      swap1\n      pop\n        /* \"#utility.yul\":4313:4445   */\n      swap2\n      swap1\n      pop\n      jump\t// out\n        /* \"#utility.yul\":4451:4559   */\n    tag_537:\n        /* \"#utility.yul\":4528:4552   */\n      tag_698\n        /* \"#utility.yul\":4546:4551   */\n      dup2\n        /* \"#utility.yul\":4528:4552   */\n      tag_522\n      jump\t// in\n    tag_698:\n        /* \"#utility.yul\":4523:4526   */\n      dup3\n        /* \"#utility.yul\":4516:4553   */\n      mstore\n        /* \"#utility.yul\":4451:4559   */\n      pop\n      pop\n      jump\t// out\n        /* \"#utility.yul\":4565:4744   */\n    tag_538:\n        /* \"#utility.yul\":4634:4644   */\n      0x00\n        /* \"#utility.yul\":4655:4701   */\n      tag_700\n        /* \"#utility.yul\":4697:4700   */\n      dup4\n        /* \"#utility.yul\":4689:4695   */\n      dup4\n        /* \"#utility.yul\":4655:4701   */\n      tag_537\n      jump\t// in\n    tag_700:\n        /* \"#utility.yul\":4733:4737   */\n      0x20\n        /* \"#utility.yul\":4728:4731   */\n      dup4\n        /* \"#utility.yul\":4724:4738   */\n      add\n        /* \"#utility.yul\":4710:4738   */\n      swap1\n      pop\n        /* \"#utility.yul\":4565:4744   */\n      swap3\n      swap2\n      pop\n      pop\n      jump\t// out\n        /* \"#utility.yul\":4750:4863   */\n    tag_539:\n        /* \"#utility.yul\":4820:4824   */\n      0x00\n        /* \"#utility.yul\":4852:4856   */\n      0x20\n        /* \"#utility.yul\":4847:4850   */\n      dup3\n        /* \"#utility.yul\":4843:4857   */\n      add\n        /* \"#utility.yul\":4835:4857   */\n      swap1\n      pop\n        /* \"#utility.yul\":4750:4863   */\n      swap2\n      swap1\n      pop\n      jump\t// out\n        /* \"#utility.yul\":4899:5631   */\n    tag_540:\n        /* \"#utility.yul\":5018:5021   */\n      0x00\n        /* \"#utility.yul\":5047:5101   */\n      tag_703\n        /* \"#utility.yul\":5095:5100   */\n      dup3\n        /* \"#utility.yul\":5047:5101   */\n      tag_534\n      jump\t// in\n    tag_703:\n        /* \"#utility.yul\":5117:5203   */\n      tag_704\n        /* \"#utility.yul\":5196:5202   */\n      dup2\n        /* \"#utility.yul\":5191:5194   */\n      dup6\n        /* \"#utility.yul\":5117:5203   */\n      tag_535\n      jump\t// in\n    tag_704:\n        /* \"#utility.yul\":5110:5203   */\n      swap4\n      pop\n        /* \"#utility.yul\":5227:5283   */\n      tag_705\n        /* \"#utility.yul\":5277:5282   */\n      dup4\n        /* \"#utility.yul\":5227:5283   */\n      tag_536\n      jump\t// in\n    tag_705:\n        /* \"#utility.yul\":5306:5313   */\n      dup1\n        /* \"#utility.yul\":5337:5338   */\n      0x00\n        /* \"#utility.yul\":5322:5606   */\n    tag_706:\n        /* \"#utility.yul\":5347:5353   */\n      dup4\n        /* \"#utility.yul\":5344:5345   */\n      dup2\n        /* \"#utility.yul\":5341:5354   */\n      lt\n        /* \"#utility.yul\":5322:5606   */\n      iszero\n      tag_708\n      jumpi\n        /* \"#utility.yul\":5423:5429   */\n      dup2\n        /* \"#utility.yul\":5417:5430   */\n      mload\n        /* \"#utility.yul\":5450:5513   */\n      tag_709\n        /* \"#utility.yul\":5509:5512   */\n      dup9\n        /* \"#utility.yul\":5494:5507   */\n      dup3\n        /* \"#utility.yul\":5450:5513   */\n      tag_538\n      jump\t// in\n    tag_709:\n        /* \"#utility.yul\":5443:5513   */\n      swap8\n      pop\n        /* \"#utility.yul\":5536:5596   */\n      tag_710\n        /* \"#utility.yul\":5589:5595   */\n      dup4\n        /* \"#utility.yul\":5536:5596   */\n      tag_539\n      jump\t// in\n    tag_710:\n        /* \"#utility.yul\":5526:5596   */\n      swap3\n      pop\n        /* \"#utility.yul\":5382:5606   */\n      pop\n        /* \"#utility.yul\":5369:5370   */\n      0x01\n        /* \"#utility.yul\":5366:5367   */\n      dup2\n        /* \"#utility.yul\":5362:5371   */\n      add\n        /* \"#utility.yul\":5357:5371   */\n      swap1\n      pop\n        /* \"#utility.yul\":5322:5606   */\n      jump(tag_706)\n    tag_708:\n        /* \"#utility.yul\":5326:5340   */\n      pop\n        /* \"#utility.yul\":5622:5625   */\n      dup6\n        /* \"#utility.yul\":5615:5625   */\n      swap4\n      pop\n        /* \"#utility.yul\":5023:5631   */\n      pop\n      pop\n      pop\n        /* \"#utility.yul\":4899:5631   */\n      swap3\n      swap2\n      pop\n      pop\n      jump\t// out\n        /* \"#utility.yul\":5637:6010   */\n    tag_53:\n        /* \"#utility.yul\":5780:5784   */\n      0x00\n        /* \"#utility.yul\":5818:5820   */\n      0x20\n        /* \"#utility.yul\":5807:5816   */\n      dup3\n        /* \"#utility.yul\":5803:5821   */\n      add\n        /* \"#utility.yul\":5795:5821   */\n      swap1\n      pop\n        /* \"#utility.yul\":5867:5876   */\n      dup2\n        /* \"#utility.yul\":5861:5865   */\n      dup2\n        /* \"#utility.yul\":5857:5877   */\n      sub\n        /* \"#utility.yul\":5853:5854   */\n      0x00\n        /* \"#utility.yul\":5842:5851   */\n      dup4\n        /* \"#utility.yul\":5838:5855   */\n      add\n        /* \"#utility.yul\":5831:5878   */\n      mstore\n        /* \"#utility.yul\":5895:6003   */\n      tag_712\n        /* \"#utility.yul\":5998:6002   */\n      dup2\n        /* \"#utility.yul\":5989:5995   */\n      dup5\n        /* \"#utility.yul\":5895:6003   */\n      tag_540\n      jump\t// in\n    tag_712:\n        /* \"#utility.yul\":5887:6003   */\n      swap1\n      pop\n        /* \"#utility.yul\":5637:6010   */\n      swap3\n      swap2\n      pop\n      pop\n      jump\t// out\n        /* \"#utility.yul\":6016:6153   */\n    tag_541:\n        /* \"#utility.yul\":6106:6112   */\n      0x00\n        /* \"#utility.yul\":6140:6145   */\n      dup2\n        /* \"#utility.yul\":6134:6146   */\n      mload\n        /* \"#utility.yul\":6124:6146   */\n      swap1\n      pop\n        /* \"#utility.yul\":6016:6153   */\n      swap2\n      swap1\n      pop\n      jump\t// out\n        /* \"#utility.yul\":6159:6366   */\n    tag_542:\n        /* \"#utility.yul\":6281:6292   */\n      0x00\n        /* \"#utility.yul\":6315:6321   */\n      dup3\n        /* \"#utility.yul\":6310:6313   */\n      dup3\n        /* \"#utility.yul\":6303:6322   */\n      mstore\n        /* \"#utility.yul\":6355:6359   */\n      0x20\n        /* \"#utility.yul\":6350:6353   */\n      dup3\n        /* \"#utility.yul\":6346:6360   */\n      add\n        /* \"#utility.yul\":6331:6360   */\n      swap1\n      pop\n        /* \"#utility.yul\":6159:6366   */\n      swap3\n      swap2\n      pop\n      pop\n      jump\t// out\n        /* \"#utility.yul\":6372:6527   */\n    tag_543:\n        /* \"#utility.yul\":6462:6466   */\n      0x00\n        /* \"#utility.yul\":6485:6488   */\n      dup2\n        /* \"#utility.yul\":6477:6488   */\n      swap1\n      pop\n        /* \"#utility.yul\":6515:6519   */\n      0x20\n        /* \"#utility.yul\":6510:6513   */\n      dup3\n        /* \"#utility.yul\":6506:6520   */\n      add\n        /* \"#utility.yul\":6498:6520   */\n      swap1\n      pop\n        /* \"#utility.yul\":6372:6527   */\n      swap2\n      swap1\n      pop\n      jump\t// out\n        /* \"#utility.yul\":6533:6637   */\n    tag_544:\n        /* \"#utility.yul\":6598:6604   */\n      0x00\n        /* \"#utility.yul\":6626:6630   */\n      0x04\n        /* \"#utility.yul\":6616:6630   */\n      swap1\n      pop\n        /* \"#utility.yul\":6533:6637   */\n      swap2\n      swap1\n      pop\n      jump\t// out\n        /* \"#utility.yul\":6643:6776   */\n    tag_545:\n        /* \"#utility.yul\":6730:6741   */\n      0x00\n        /* \"#utility.yul\":6767:6770   */\n      dup2\n        /* \"#utility.yul\":6752:6770   */\n      swap1\n      pop\n        /* \"#utility.yul\":6643:6776   */\n      swap3\n      swap2\n      pop\n      pop\n      jump\t// out\n        /* \"#utility.yul\":6782:6880   */\n    tag_546:\n        /* \"#utility.yul\":6847:6851   */\n      0x00\n        /* \"#utility.yul\":6870:6873   */\n      dup2\n        /* \"#utility.yul\":6862:6873   */\n      swap1\n      pop\n        /* \"#utility.yul\":6782:6880   */\n      swap2\n      swap1\n      pop\n      jump\t// out\n        /* \"#utility.yul\":6886:6994   */\n    tag_547:\n        /* \"#utility.yul\":6963:6987   */\n      tag_720\n        /* \"#utility.yul\":6981:6986   */\n      dup2\n        /* \"#utility.yul\":6963:6987   */\n      tag_526\n      jump\t// in\n    tag_720:\n        /* \"#utility.yul\":6958:6961   */\n      dup3\n        /* \"#utility.yul\":6951:6988   */\n      mstore\n        /* \"#utility.yul\":6886:6994   */\n      pop\n      pop\n      jump\t// out\n        /* \"#utility.yul\":7000:7179   */\n    tag_548:\n        /* \"#utility.yul\":7069:7079   */\n      0x00\n        /* \"#utility.yul\":7090:7136   */\n      tag_722\n        /* \"#utility.yul\":7132:7135   */\n      dup4\n        /* \"#utility.yul\":7124:7130   */\n      dup4\n        /* \"#utility.yul\":7090:7136   */\n      tag_547\n      jump\t// in\n    tag_722:\n        /* \"#utility.yul\":7168:7172   */\n      0x20\n        /* \"#utility.yul\":7163:7166   */\n      dup4\n        /* \"#utility.yul\":7159:7173   */\n      add\n        /* \"#utility.yul\":7145:7173   */\n      swap1\n      pop\n        /* \"#utility.yul\":7000:7179   */\n      swap3\n      swap2\n      pop\n      pop\n      jump\t// out\n        /* \"#utility.yul\":7185:7296   */\n    tag_549:\n        /* \"#utility.yul\":7253:7257   */\n      0x00\n        /* \"#utility.yul\":7285:7289   */\n      0x20\n        /* \"#utility.yul\":7280:7283   */\n      dup3\n        /* \"#utility.yul\":7276:7290   */\n      add\n        /* \"#utility.yul\":7268:7290   */\n      swap1\n      pop\n        /* \"#utility.yul\":7185:7296   */\n      swap2\n      swap1\n      pop\n      jump\t// out\n        /* \"#utility.yul\":7334:8008   */\n    tag_550:\n        /* \"#utility.yul\":7460:7512   */\n      tag_725\n        /* \"#utility.yul\":7506:7511   */\n      dup2\n        /* \"#utility.yul\":7460:7512   */\n      tag_544\n      jump\t// in\n    tag_725:\n        /* \"#utility.yul\":7528:7602   */\n      tag_726\n        /* \"#utility.yul\":7595:7601   */\n      dup2\n        /* \"#utility.yul\":7590:7593   */\n      dup5\n        /* \"#utility.yul\":7528:7602   */\n      tag_545\n      jump\t// in\n    tag_726:\n        /* \"#utility.yul\":7521:7602   */\n      swap3\n      pop\n        /* \"#utility.yul\":7626:7680   */\n      tag_727\n        /* \"#utility.yul\":7674:7679   */\n      dup3\n        /* \"#utility.yul\":7626:7680   */\n      tag_546\n      jump\t// in\n    tag_727:\n        /* \"#utility.yul\":7703:7710   */\n      dup1\n        /* \"#utility.yul\":7734:7735   */\n      0x00\n        /* \"#utility.yul\":7719:8001   */\n    tag_728:\n        /* \"#utility.yul\":7744:7750   */\n      dup4\n        /* \"#utility.yul\":7741:7742   */\n      dup2\n        /* \"#utility.yul\":7738:7751   */\n      lt\n        /* \"#utility.yul\":7719:8001   */\n      iszero\n      tag_730\n      jumpi\n        /* \"#utility.yul\":7820:7826   */\n      dup2\n        /* \"#utility.yul\":7814:7827   */\n      mload\n        /* \"#utility.yul\":7847:7910   */\n      tag_731\n        /* \"#utility.yul\":7906:7909   */\n      dup8\n        /* \"#utility.yul\":7891:7904   */\n      dup3\n        /* \"#utility.yul\":7847:7910   */\n      tag_548\n      jump\t// in\n    tag_731:\n        /* \"#utility.yul\":7840:7910   */\n      swap7\n      pop\n        /* \"#utility.yul\":7933:7991   */\n      tag_732\n        /* \"#utility.yul\":7984:7990   */\n      dup4\n        /* \"#utility.yul\":7933:7991   */\n      tag_549\n      jump\t// in\n    tag_732:\n        /* \"#utility.yul\":7923:7991   */\n      swap3\n      pop\n        /* \"#utility.yul\":7779:8001   */\n      pop\n        /* \"#utility.yul\":7766:7767   */\n      0x01\n        /* \"#utility.yul\":7763:7764   */\n      dup2\n        /* \"#utility.yul\":7759:7768   */\n      add\n        /* \"#utility.yul\":7754:7768   */\n      swap1\n      pop\n        /* \"#utility.yul\":7719:8001   */\n      jump(tag_728)\n    tag_730:\n        /* \"#utility.yul\":7723:7737   */\n      pop\n        /* \"#utility.yul\":7436:8008   */\n      pop\n      pop\n      pop\n        /* \"#utility.yul\":7334:8008   */\n      pop\n      pop\n      jump\t// out\n        /* \"#utility.yul\":8014:8285   */\n    tag_551:\n        /* \"#utility.yul\":8129:8139   */\n      0x00\n        /* \"#utility.yul\":8150:8242   */\n      tag_734\n        /* \"#utility.yul\":8238:8241   */\n      dup4\n        /* \"#utility.yul\":8230:8236   */\n      dup4\n        /* \"#utility.yul\":8150:8242   */\n      tag_550\n      jump\t// in\n    tag_734:\n        /* \"#utility.yul\":8274:8278   */\n      0x80\n        /* \"#utility.yul\":8269:8272   */\n      dup4\n        /* \"#utility.yul\":8265:8279   */\n      add\n        /* \"#utility.yul\":8251:8279   */\n      swap1\n      pop\n        /* \"#utility.yul\":8014:8285   */\n      swap3\n      swap2\n      pop\n      pop\n      jump\t// out\n        /* \"#utility.yul\":8291:8427   */\n    tag_552:\n        /* \"#utility.yul\":8384:8388   */\n      0x00\n        /* \"#utility.yul\":8416:8420   */\n      0x20\n        /* \"#utility.yul\":8411:8414   */\n      dup3\n        /* \"#utility.yul\":8407:8421   */\n      add\n        /* \"#utility.yul\":8399:8421   */\n      swap1\n      pop\n        /* \"#utility.yul\":8291:8427   */\n      swap2\n      swap1\n      pop\n      jump\t// out\n        /* \"#utility.yul\":8469:9385   */\n    tag_553:\n        /* \"#utility.yul\":8634:8637   */\n      0x00\n        /* \"#utility.yul\":8663:8740   */\n      tag_737\n        /* \"#utility.yul\":8734:8739   */\n      dup3\n        /* \"#utility.yul\":8663:8740   */\n      tag_541\n      jump\t// in\n    tag_737:\n        /* \"#utility.yul\":8756:8865   */\n      tag_738\n        /* \"#utility.yul\":8858:8864   */\n      dup2\n        /* \"#utility.yul\":8853:8856   */\n      dup6\n        /* \"#utility.yul\":8756:8865   */\n      tag_542\n      jump\t// in\n    tag_738:\n        /* \"#utility.yul\":8749:8865   */\n      swap4\n      pop\n        /* \"#utility.yul\":8889:8968   */\n      tag_739\n        /* \"#utility.yul\":8962:8967   */\n      dup4\n        /* \"#utility.yul\":8889:8968   */\n      tag_543\n      jump\t// in\n    tag_739:\n        /* \"#utility.yul\":8991:8998   */\n      dup1\n        /* \"#utility.yul\":9022:9023   */\n      0x00\n        /* \"#utility.yul\":9007:9360   */\n    tag_740:\n        /* \"#utility.yul\":9032:9038   */\n      dup4\n        /* \"#utility.yul\":9029:9030   */\n      dup2\n        /* \"#utility.yul\":9026:9039   */\n      lt\n        /* \"#utility.yul\":9007:9360   */\n      iszero\n      tag_742\n      jumpi\n        /* \"#utility.yul\":9108:9114   */\n      dup2\n        /* \"#utility.yul\":9102:9115   */\n      mload\n        /* \"#utility.yul\":9135:9244   */\n      tag_743\n        /* \"#utility.yul\":9240:9243   */\n      dup9\n        /* \"#utility.yul\":9225:9238   */\n      dup3\n        /* \"#utility.yul\":9135:9244   */\n      tag_551\n      jump\t// in\n    tag_743:\n        /* \"#utility.yul\":9128:9244   */\n      swap8\n      pop\n        /* \"#utility.yul\":9267:9350   */\n      tag_744\n        /* \"#utility.yul\":9343:9349   */\n      dup4\n        /* \"#utility.yul\":9267:9350   */\n      tag_552\n      jump\t// in\n    tag_744:\n        /* \"#utility.yul\":9257:9350   */\n      swap3\n      pop\n        /* \"#utility.yul\":9067:9360   */\n      pop\n        /* \"#utility.yul\":9054:9055   */\n      0x01\n        /* \"#utility.yul\":9051:9052   */\n      dup2\n        /* \"#utility.yul\":9047:9056   */\n      add\n        /* \"#utility.yul\":9042:9056   */\n      swap1\n      pop\n        /* \"#utility.yul\":9007:9360   */\n      jump(tag_740)\n    tag_742:\n        /* \"#utility.yul\":9011:9025   */\n      pop\n        /* \"#utility.yul\":9376:9379   */\n      dup6\n        /* \"#utility.yul\":9369:9379   */\n      swap4\n      pop\n        /* \"#utility.yul\":8639:9385   */\n      pop\n      pop\n      pop\n        /* \"#utility.yul\":8469:9385   */\n      swap3\n      swap2\n      pop\n      pop\n      jump\t// out\n        /* \"#utility.yul\":9391:9856   */\n    tag_66:\n        /* \"#utility.yul\":9580:9584   */\n      0x00\n        /* \"#utility.yul\":9618:9620   */\n      0x20\n        /* \"#utility.yul\":9607:9616   */\n      dup3\n        /* \"#utility.yul\":9603:9621   */\n      add\n        /* \"#utility.yul\":9595:9621   */\n      swap1\n      pop\n        /* \"#utility.yul\":9667:9676   */\n      dup2\n        /* \"#utility.yul\":9661:9665   */\n      dup2\n        /* \"#utility.yul\":9657:9677   */\n      sub\n        /* \"#utility.yul\":9653:9654   */\n      0x00\n        /* \"#utility.yul\":9642:9651   */\n      dup4\n        /* \"#utility.yul\":9638:9655   */\n      add\n        /* \"#utility.yul\":9631:9678   */\n      mstore\n        /* \"#utility.yul\":9695:9849   */\n      tag_746\n        /* \"#utility.yul\":9844:9848   */\n      dup2\n        /* \"#utility.yul\":9835:9841   */\n      dup5\n        /* \"#utility.yul\":9695:9849   */\n      tag_553\n      jump\t// in\n    tag_746:\n        /* \"#utility.yul\":9687:9849   */\n      swap1\n      pop\n        /* \"#utility.yul\":9391:9856   */\n      swap3\n      swap2\n      pop\n      pop\n      jump\t// out\n        /* \"#utility.yul\":9862:9961   */\n    tag_554:\n        /* \"#utility.yul\":9914:9920   */\n      0x00\n        /* \"#utility.yul\":9948:9953   */\n      dup2\n        /* \"#utility.yul\":9942:9954   */\n      mload\n        /* \"#utility.yul\":9932:9954   */\n      swap1\n      pop\n        /* \"#utility.yul\":9862:9961   */\n      swap2\n      swap1\n      pop\n      jump\t// out\n        /* \"#utility.yul\":9967:10136   */\n    tag_555:\n        /* \"#utility.yul\":10051:10062   */\n      0x00\n        /* \"#utility.yul\":10085:10091   */\n      dup3\n        /* \"#utility.yul\":10080:10083   */\n      dup3\n        /* \"#utility.yul\":10073:10092   */\n      mstore\n        /* \"#utility.yul\":10125:10129   */\n      0x20\n        /* \"#utility.yul\":10120:10123   */\n      dup3\n        /* \"#utility.yul\":10116:10130   */\n      add\n        /* \"#utility.yul\":10101:10130   */\n      swap1\n      pop\n        /* \"#utility.yul\":9967:10136   */\n      swap3\n      swap2\n      pop\n      pop\n      jump\t// out\n        /* \"#utility.yul\":10142:10388   */\n    tag_556:\n        /* \"#utility.yul\":10223:10224   */\n      0x00\n        /* \"#utility.yul\":10233:10346   */\n    tag_750:\n        /* \"#utility.yul\":10247:10253   */\n      dup4\n        /* \"#utility.yul\":10244:10245   */\n      dup2\n        /* \"#utility.yul\":10241:10254   */\n      lt\n        /* \"#utility.yul\":10233:10346   */\n      iszero\n      tag_752\n      jumpi\n        /* \"#utility.yul\":10332:10333   */\n      dup1\n        /* \"#utility.yul\":10327:10330   */\n      dup3\n        /* \"#utility.yul\":10323:10334   */\n      add\n        /* \"#utility.yul\":10317:10335   */\n      mload\n        /* \"#utility.yul\":10313:10314   */\n      dup2\n        /* \"#utility.yul\":10308:10311   */\n      dup5\n        /* \"#utility.yul\":10304:10315   */\n      add\n        /* \"#utility.yul\":10297:10336   */\n      mstore\n        /* \"#utility.yul\":10269:10271   */\n      0x20\n        /* \"#utility.yul\":10266:10267   */\n      dup2\n        /* \"#utility.yul\":10262:10272   */\n      add\n        /* \"#utility.yul\":10257:10272   */\n      swap1\n      pop\n        /* \"#utility.yul\":10233:10346   */\n      jump(tag_750)\n    tag_752:\n        /* \"#utility.yul\":10380:10381   */\n      0x00\n        /* \"#utility.yul\":10371:10377   */\n      dup5\n        /* \"#utility.yul\":10366:10369   */\n      dup5\n        /* \"#utility.yul\":10362:10378   */\n      add\n        /* \"#utility.yul\":10355:10382   */\n      mstore\n        /* \"#utility.yul\":10204:10388   */\n      pop\n        /* \"#utility.yul\":10142:10388   */\n      pop\n      pop\n      pop\n      jump\t// out\n        /* \"#utility.yul\":10394:10496   */\n    tag_557:\n        /* \"#utility.yul\":10435:10441   */\n      0x00\n        /* \"#utility.yul\":10486:10488   */\n      0x1f\n        /* \"#utility.yul\":10482:10489   */\n      not\n        /* \"#utility.yul\":10477:10479   */\n      0x1f\n        /* \"#utility.yul\":10470:10475   */\n      dup4\n        /* \"#utility.yul\":10466:10480   */\n      add\n        /* \"#utility.yul\":10462:10490   */\n      and\n        /* \"#utility.yul\":10452:10490   */\n      swap1\n      pop\n        /* \"#utility.yul\":10394:10496   */\n      swap2\n      swap1\n      pop\n      jump\t// out\n        /* \"#utility.yul\":10502:10879   */\n    tag_558:\n        /* \"#utility.yul\":10590:10593   */\n      0x00\n        /* \"#utility.yul\":10618:10657   */\n      tag_755\n        /* \"#utility.yul\":10651:10656   */\n      dup3\n        /* \"#utility.yul\":10618:10657   */\n      tag_554\n      jump\t// in\n    tag_755:\n        /* \"#utility.yul\":10673:10744   */\n      tag_756\n        /* \"#utility.yul\":10737:10743   */\n      dup2\n        /* \"#utility.yul\":10732:10735   */\n      dup6\n        /* \"#utility.yul\":10673:10744   */\n      tag_555\n      jump\t// in\n    tag_756:\n        /* \"#utility.yul\":10666:10744   */\n      swap4\n      pop\n        /* \"#utility.yul\":10753:10818   */\n      tag_757\n        /* \"#utility.yul\":10811:10817   */\n      dup2\n        /* \"#utility.yul\":10806:10809   */\n      dup6\n        /* \"#utility.yul\":10799:10803   */\n      0x20\n        /* \"#utility.yul\":10792:10797   */\n      dup7\n        /* \"#utility.yul\":10788:10804   */\n      add\n        /* \"#utility.yul\":10753:10818   */\n      tag_556\n      jump\t// in\n    tag_757:\n        /* \"#utility.yul\":10843:10872   */\n      tag_758\n        /* \"#utility.yul\":10865:10871   */\n      dup2\n        /* \"#utility.yul\":10843:10872   */\n      tag_557\n      jump\t// in\n    tag_758:\n        /* \"#utility.yul\":10838:10841   */\n      dup5\n        /* \"#utility.yul\":10834:10873   */\n      add\n        /* \"#utility.yul\":10827:10873   */\n      swap2\n      pop\n        /* \"#utility.yul\":10594:10879   */\n      pop\n        /* \"#utility.yul\":10502:10879   */\n      swap3\n      swap2\n      pop\n      pop\n      jump\t// out\n        /* \"#utility.yul\":10885:11198   */\n    tag_76:\n        /* \"#utility.yul\":10998:11002   */\n      0x00\n        /* \"#utility.yul\":11036:11038   */\n      0x20\n        /* \"#utility.yul\":11025:11034   */\n      dup3\n        /* \"#utility.yul\":11021:11039   */\n      add\n        /* \"#utility.yul\":11013:11039   */\n      swap1\n      pop\n        /* \"#utility.yul\":11085:11094   */\n      dup2\n        /* \"#utility.yul\":11079:11083   */\n      dup2\n        /* \"#utility.yul\":11075:11095   */\n      sub\n        /* \"#utility.yul\":11071:11072   */\n      0x00\n        /* \"#utility.yul\":11060:11069   */\n      dup4\n        /* \"#utility.yul\":11056:11073   */\n      add\n        /* \"#utility.yul\":11049:11096   */\n      mstore\n        /* \"#utility.yul\":11113:11191   */\n      tag_760\n        /* \"#utility.yul\":11186:11190   */\n      dup2\n        /* \"#utility.yul\":11177:11183   */\n      dup5\n        /* \"#utility.yul\":11113:11191   */\n      tag_558\n      jump\t// in\n    tag_760:\n        /* \"#utility.yul\":11105:11191   */\n      swap1\n      pop\n        /* \"#utility.yul\":10885:11198   */\n      swap3\n      swap2\n      pop\n      pop\n      jump\t// out\n        /* \"#utility.yul\":11204:11823   */\n    tag_82:\n        /* \"#utility.yul\":11281:11287   */\n      0x00\n        /* \"#utility.yul\":11289:11295   */\n      dup1\n        /* \"#utility.yul\":11297:11303   */\n      0x00\n        /* \"#utility.yul\":11346:11348   */\n      0x60\n        /* \"#utility.yul\":11334:11343   */\n      dup5\n        /* \"#utility.yul\":11325:11332   */\n      dup7\n        /* \"#utility.yul\":11321:11344   */\n      sub\n        /* \"#utility.yul\":11317:11349   */\n      slt\n        /* \"#utility.yul\":11314:11433   */\n      iszero\n      tag_762\n      jumpi\n        /* \"#utility.yul\":11352:11431   */\n      tag_763\n      tag_519\n      jump\t// in\n    tag_763:\n        /* \"#utility.yul\":11314:11433   */\n    tag_762:\n        /* \"#utility.yul\":11472:11473   */\n      0x00\n        /* \"#utility.yul\":11497:11550   */\n      tag_764\n        /* \"#utility.yul\":11542:11549   */\n      dup7\n        /* \"#utility.yul\":11533:11539   */\n      dup3\n        /* \"#utility.yul\":11522:11531   */\n      dup8\n        /* \"#utility.yul\":11518:11540   */\n      add\n        /* \"#utility.yul\":11497:11550   */\n      tag_524\n      jump\t// in\n    tag_764:\n        /* \"#utility.yul\":11487:11550   */\n      swap4\n      pop\n        /* \"#utility.yul\":11443:11560   */\n      pop\n        /* \"#utility.yul\":11599:11601   */\n      0x20\n        /* \"#utility.yul\":11625:11678   */\n      tag_765\n        /* \"#utility.yul\":11670:11677   */\n      dup7\n        /* \"#utility.yul\":11661:11667   */\n      dup3\n        /* \"#utility.yul\":11650:11659   */\n      dup8\n        /* \"#utility.yul\":11646:11668   */\n      add\n        /* \"#utility.yul\":11625:11678   */\n      tag_529\n      jump\t// in\n    tag_765:\n        /* \"#utility.yul\":11615:11678   */\n      swap3\n      pop\n        /* \"#utility.yul\":11570:11688   */\n      pop\n        /* \"#utility.yul\":11727:11729   */\n      0x40\n        /* \"#utility.yul\":11753:11806   */\n      tag_766\n        /* \"#utility.yul\":11798:11805   */\n      dup7\n        /* \"#utility.yul\":11789:11795   */\n      dup3\n        /* \"#utility.yul\":11778:11787   */\n      dup8\n        /* \"#utility.yul\":11774:11796   */\n      add\n        /* \"#utility.yul\":11753:11806   */\n      tag_529\n      jump\t// in\n    tag_766:\n        /* \"#utility.yul\":11743:11806   */\n      swap2\n      pop\n        /* \"#utility.yul\":11698:11816   */\n      pop\n        /* \"#utility.yul\":11204:11823   */\n      swap3\n      pop\n      swap3\n      pop\n      swap3\n      jump\t// out\n        /* \"#utility.yul\":11829:11953   */\n    tag_559:\n        /* \"#utility.yul\":11906:11912   */\n      0x00\n        /* \"#utility.yul\":11940:11945   */\n      dup2\n        /* \"#utility.yul\":11934:11946   */\n      mload\n        /* \"#utility.yul\":11924:11946   */\n      swap1\n      pop\n        /* \"#utility.yul\":11829:11953   */\n      swap2\n      swap1\n      pop\n      jump\t// out\n        /* \"#utility.yul\":11959:12153   */\n    tag_560:\n        /* \"#utility.yul\":12068:12079   */\n      0x00\n        /* \"#utility.yul\":12102:12108   */\n      dup3\n        /* \"#utility.yul\":12097:12100   */\n      dup3\n        /* \"#utility.yul\":12090:12109   */\n      mstore\n        /* \"#utility.yul\":12142:12146   */\n      0x20\n        /* \"#utility.yul\":12137:12140   */\n      dup3\n        /* \"#utility.yul\":12133:12147   */\n      add\n        /* \"#utility.yul\":12118:12147   */\n      swap1\n      pop\n        /* \"#utility.yul\":11959:12153   */\n      swap3\n      swap2\n      pop\n      pop\n      jump\t// out\n        /* \"#utility.yul\":12159:12301   */\n    tag_561:\n        /* \"#utility.yul\":12236:12240   */\n      0x00\n        /* \"#utility.yul\":12259:12262   */\n      dup2\n        /* \"#utility.yul\":12251:12262   */\n      swap1\n      pop\n        /* \"#utility.yul\":12289:12293   */\n      0x20\n        /* \"#utility.yul\":12284:12287   */\n      dup3\n        /* \"#utility.yul\":12280:12294   */\n      add\n        /* \"#utility.yul\":12272:12294   */\n      swap1\n      pop\n        /* \"#utility.yul\":12159:12301   */\n      swap2\n      swap1\n      pop\n      jump\t// out\n        /* \"#utility.yul\":12307:12466   */\n    tag_562:\n        /* \"#utility.yul\":12381:12392   */\n      0x00\n        /* \"#utility.yul\":12415:12421   */\n      dup3\n        /* \"#utility.yul\":12410:12413   */\n      dup3\n        /* \"#utility.yul\":12403:12422   */\n      mstore\n        /* \"#utility.yul\":12455:12459   */\n      0x20\n        /* \"#utility.yul\":12450:12453   */\n      dup3\n        /* \"#utility.yul\":12446:12460   */\n      add\n        /* \"#utility.yul\":12431:12460   */\n      swap1\n      pop\n        /* \"#utility.yul\":12307:12466   */\n      swap3\n      swap2\n      pop\n      pop\n      jump\t// out\n        /* \"#utility.yul\":12472:12829   */\n    tag_563:\n        /* \"#utility.yul\":12550:12553   */\n      0x00\n        /* \"#utility.yul\":12578:12617   */\n      tag_772\n        /* \"#utility.yul\":12611:12616   */\n      dup3\n        /* \"#utility.yul\":12578:12617   */\n      tag_554\n      jump\t// in\n    tag_772:\n        /* \"#utility.yul\":12633:12694   */\n      tag_773\n        /* \"#utility.yul\":12687:12693   */\n      dup2\n        /* \"#utility.yul\":12682:12685   */\n      dup6\n        /* \"#utility.yul\":12633:12694   */\n      tag_562\n      jump\t// in\n    tag_773:\n        /* \"#utility.yul\":12626:12694   */\n      swap4\n      pop\n        /* \"#utility.yul\":12703:12768   */\n      tag_774\n        /* \"#utility.yul\":12761:12767   */\n      dup2\n        /* \"#utility.yul\":12756:12759   */\n      dup6\n        /* \"#utility.yul\":12749:12753   */\n      0x20\n        /* \"#utility.yul\":12742:12747   */\n      dup7\n        /* \"#utility.yul\":12738:12754   */\n      add\n        /* \"#utility.yul\":12703:12768   */\n      tag_556\n      jump\t// in\n    tag_774:\n        /* \"#utility.yul\":12793:12822   */\n      tag_775\n        /* \"#utility.yul\":12815:12821   */\n      dup2\n        /* \"#utility.yul\":12793:12822   */\n      tag_557\n      jump\t// in\n    tag_775:\n        /* \"#utility.yul\":12788:12791   */\n      dup5\n        /* \"#utility.yul\":12784:12823   */\n      add\n        /* \"#utility.yul\":12777:12823   */\n      swap2\n      pop\n        /* \"#utility.yul\":12554:12829   */\n      pop\n        /* \"#utility.yul\":12472:12829   */\n      swap3\n      swap2\n      pop\n      pop\n      jump\t// out\n        /* \"#utility.yul\":12835:13031   */\n    tag_564:\n        /* \"#utility.yul\":12924:12934   */\n      0x00\n        /* \"#utility.yul\":12959:13025   */\n      tag_777\n        /* \"#utility.yul\":13021:13024   */\n      dup4\n        /* \"#utility.yul\":13013:13019   */\n      dup4\n        /* \"#utility.yul\":12959:13025   */\n      tag_563\n      jump\t// in\n    tag_777:\n        /* \"#utility.yul\":12945:13025   */\n      swap1\n      pop\n        /* \"#utility.yul\":12835:13031   */\n      swap3\n      swap2\n      pop\n      pop\n      jump\t// out\n        /* \"#utility.yul\":13037:13160   */\n    tag_565:\n        /* \"#utility.yul\":13117:13121   */\n      0x00\n        /* \"#utility.yul\":13149:13153   */\n      0x20\n        /* \"#utility.yul\":13144:13147   */\n      dup3\n        /* \"#utility.yul\":13140:13154   */\n      add\n        /* \"#utility.yul\":13132:13154   */\n      swap1\n      pop\n        /* \"#utility.yul\":13037:13160   */\n      swap2\n      swap1\n      pop\n      jump\t// out\n        /* \"#utility.yul\":13194:14185   */\n    tag_566:\n        /* \"#utility.yul\":13333:13336   */\n      0x00\n        /* \"#utility.yul\":13362:13426   */\n      tag_780\n        /* \"#utility.yul\":13420:13425   */\n      dup3\n        /* \"#utility.yul\":13362:13426   */\n      tag_559\n      jump\t// in\n    tag_780:\n        /* \"#utility.yul\":13442:13538   */\n      tag_781\n        /* \"#utility.yul\":13531:13537   */\n      dup2\n        /* \"#utility.yul\":13526:13529   */\n      dup6\n        /* \"#utility.yul\":13442:13538   */\n      tag_560\n      jump\t// in\n    tag_781:\n        /* \"#utility.yul\":13435:13538   */\n      swap4\n      pop\n        /* \"#utility.yul\":13564:13567   */\n      dup4\n        /* \"#utility.yul\":13609:13613   */\n      0x20\n        /* \"#utility.yul\":13601:13607   */\n      dup3\n        /* \"#utility.yul\":13597:13614   */\n      mul\n        /* \"#utility.yul\":13592:13595   */\n      dup6\n        /* \"#utility.yul\":13588:13615   */\n      add\n        /* \"#utility.yul\":13639:13705   */\n      tag_782\n        /* \"#utility.yul\":13699:13704   */\n      dup6\n        /* \"#utility.yul\":13639:13705   */\n      tag_561\n      jump\t// in\n    tag_782:\n        /* \"#utility.yul\":13728:13735   */\n      dup1\n        /* \"#utility.yul\":13759:13760   */\n      0x00\n        /* \"#utility.yul\":13744:14140   */\n    tag_783:\n        /* \"#utility.yul\":13769:13775   */\n      dup6\n        /* \"#utility.yul\":13766:13767   */\n      dup2\n        /* \"#utility.yul\":13763:13776   */\n      lt\n        /* \"#utility.yul\":13744:14140   */\n      iszero\n      tag_785\n      jumpi\n        /* \"#utility.yul\":13840:13849   */\n      dup5\n        /* \"#utility.yul\":13834:13838   */\n      dup5\n        /* \"#utility.yul\":13830:13850   */\n      sub\n        /* \"#utility.yul\":13825:13828   */\n      dup10\n        /* \"#utility.yul\":13818:13851   */\n      mstore\n        /* \"#utility.yul\":13891:13897   */\n      dup2\n        /* \"#utility.yul\":13885:13898   */\n      mload\n        /* \"#utility.yul\":13919:14003   */\n      tag_786\n        /* \"#utility.yul\":13998:14002   */\n      dup6\n        /* \"#utility.yul\":13983:13996   */\n      dup3\n        /* \"#utility.yul\":13919:14003   */\n      tag_564\n      jump\t// in\n    tag_786:\n        /* \"#utility.yul\":13911:14003   */\n      swap5\n      pop\n        /* \"#utility.yul\":14026:14096   */\n      tag_787\n        /* \"#utility.yul\":14089:14095   */\n      dup4\n        /* \"#utility.yul\":14026:14096   */\n      tag_565\n      jump\t// in\n    tag_787:\n        /* \"#utility.yul\":14016:14096   */\n      swap3\n      pop\n        /* \"#utility.yul\":14125:14129   */\n      0x20\n        /* \"#utility.yul\":14120:14123   */\n      dup11\n        /* \"#utility.yul\":14116:14130   */\n      add\n        /* \"#utility.yul\":14109:14130   */\n      swap10\n      pop\n        /* \"#utility.yul\":13804:14140   */\n      pop\n        /* \"#utility.yul\":13791:13792   */\n      0x01\n        /* \"#utility.yul\":13788:13789   */\n      dup2\n        /* \"#utility.yul\":13784:13793   */\n      add\n        /* \"#utility.yul\":13779:13793   */\n      swap1\n      pop\n        /* \"#utility.yul\":13744:14140   */\n      jump(tag_783)\n    tag_785:\n        /* \"#utility.yul\":13748:13762   */\n      pop\n        /* \"#utility.yul\":14156:14160   */\n      dup3\n        /* \"#utility.yul\":14149:14160   */\n      swap8\n      pop\n        /* \"#utility.yul\":14176:14179   */\n      dup8\n        /* \"#utility.yul\":14169:14179   */\n      swap6\n      pop\n        /* \"#utility.yul\":13338:14185   */\n      pop\n      pop\n      pop\n      pop\n      pop\n        /* \"#utility.yul\":13194:14185   */\n      swap3\n      swap2\n      pop\n      pop\n      jump\t// out\n        /* \"#utility.yul\":14191:14604   */\n    tag_91:\n        /* \"#utility.yul\":14354:14358   */\n      0x00\n        /* \"#utility.yul\":14392:14394   */\n      0x20\n        /* \"#utility.yul\":14381:14390   */\n      dup3\n        /* \"#utility.yul\":14377:14395   */\n      add\n        /* \"#utility.yul\":14369:14395   */\n      swap1\n      pop\n        /* \"#utility.yul\":14441:14450   */\n      dup2\n        /* \"#utility.yul\":14435:14439   */\n      dup2\n        /* \"#utility.yul\":14431:14451   */\n      sub\n        /* \"#utility.yul\":14427:14428   */\n      0x00\n        /* \"#utility.yul\":14416:14425   */\n      dup4\n        /* \"#utility.yul\":14412:14429   */\n      add\n        /* \"#utility.yul\":14405:14452   */\n      mstore\n        /* \"#utility.yul\":14469:14597   */\n      tag_789\n        /* \"#utility.yul\":14592:14596   */\n      dup2\n        /* \"#utility.yul\":14583:14589   */\n      dup5\n        /* \"#utility.yul\":14469:14597   */\n      tag_566\n      jump\t// in\n    tag_789:\n        /* \"#utility.yul\":14461:14597   */\n      swap1\n      pop\n        /* \"#utility.yul\":14191:14604   */\n      swap3\n      swap2\n      pop\n      pop\n      jump\t// out\n        /* \"#utility.yul\":14610:14700   */\n    tag_567:\n        /* \"#utility.yul\":14644:14651   */\n      0x00\n        /* \"#utility.yul\":14687:14692   */\n      dup2\n        /* \"#utility.yul\":14680:14693   */\n      iszero\n        /* \"#utility.yul\":14673:14694   */\n      iszero\n        /* \"#utility.yul\":14662:14694   */\n      swap1\n      pop\n        /* \"#utility.yul\":14610:14700   */\n      swap2\n      swap1\n      pop\n      jump\t// out\n        /* \"#utility.yul\":14706:14815   */\n    tag_568:\n        /* \"#utility.yul\":14787:14808   */\n      tag_792\n        /* \"#utility.yul\":14802:14807   */\n      dup2\n        /* \"#utility.yul\":14787:14808   */\n      tag_567\n      jump\t// in\n    tag_792:\n        /* \"#utility.yul\":14782:14785   */\n      dup3\n        /* \"#utility.yul\":14775:14809   */\n      mstore\n        /* \"#utility.yul\":14706:14815   */\n      pop\n      pop\n      jump\t// out\n        /* \"#utility.yul\":14821:15031   */\n    tag_96:\n        /* \"#utility.yul\":14908:14912   */\n      0x00\n        /* \"#utility.yul\":14946:14948   */\n      0x20\n        /* \"#utility.yul\":14935:14944   */\n      dup3\n        /* \"#utility.yul\":14931:14949   */\n      add\n        /* \"#utility.yul\":14923:14949   */\n      swap1\n      pop\n        /* \"#utility.yul\":14959:15024   */\n      tag_794\n        /* \"#utility.yul\":15021:15022   */\n      0x00\n        /* \"#utility.yul\":15010:15019   */\n      dup4\n        /* \"#utility.yul\":15006:15023   */\n      add\n        /* \"#utility.yul\":14997:15003   */\n      dup5\n        /* \"#utility.yul\":14959:15024   */\n      tag_568\n      jump\t// in\n    tag_794:\n        /* \"#utility.yul\":14821:15031   */\n      swap3\n      swap2\n      pop\n      pop\n      jump\t// out\n        /* \"#utility.yul\":15054:15622   */\n    tag_569:\n        /* \"#utility.yul\":15127:15135   */\n      0x00\n        /* \"#utility.yul\":15137:15143   */\n      dup1\n        /* \"#utility.yul\":15187:15190   */\n      dup4\n        /* \"#utility.yul\":15180:15184   */\n      0x1f\n        /* \"#utility.yul\":15172:15178   */\n      dup5\n        /* \"#utility.yul\":15168:15185   */\n      add\n        /* \"#utility.yul\":15164:15191   */\n      slt\n        /* \"#utility.yul\":15154:15276   */\n      tag_796\n      jumpi\n        /* \"#utility.yul\":15195:15274   */\n      tag_797\n      tag_530\n      jump\t// in\n    tag_797:\n        /* \"#utility.yul\":15154:15276   */\n    tag_796:\n        /* \"#utility.yul\":15308:15314   */\n      dup3\n        /* \"#utility.yul\":15295:15315   */\n      calldataload\n        /* \"#utility.yul\":15285:15315   */\n      swap1\n      pop\n        /* \"#utility.yul\":15338:15356   */\n      0xffffffffffffffff\n        /* \"#utility.yul\":15330:15336   */\n      dup2\n        /* \"#utility.yul\":15327:15357   */\n      gt\n        /* \"#utility.yul\":15324:15441   */\n      iszero\n      tag_798\n      jumpi\n        /* \"#utility.yul\":15360:15439   */\n      tag_799\n      tag_531\n      jump\t// in\n    tag_799:\n        /* \"#utility.yul\":15324:15441   */\n    tag_798:\n        /* \"#utility.yul\":15474:15478   */\n      0x20\n        /* \"#utility.yul\":15466:15472   */\n      dup4\n        /* \"#utility.yul\":15462:15479   */\n      add\n        /* \"#utility.yul\":15450:15479   */\n      swap2\n      pop\n        /* \"#utility.yul\":15528:15531   */\n      dup4\n        /* \"#utility.yul\":15520:15524   */\n      0x20\n        /* \"#utility.yul\":15512:15518   */\n      dup3\n        /* \"#utility.yul\":15508:15525   */\n      mul\n        /* \"#utility.yul\":15498:15506   */\n      dup4\n        /* \"#utility.yul\":15494:15526   */\n      add\n        /* \"#utility.yul\":15491:15532   */\n      gt\n        /* \"#utility.yul\":15488:15616   */\n      iszero\n      tag_800\n      jumpi\n        /* \"#utility.yul\":15535:15614   */\n      tag_801\n      tag_532\n      jump\t// in\n    tag_801:\n        /* \"#utility.yul\":15488:15616   */\n    tag_800:\n        /* \"#utility.yul\":15054:15622   */\n      swap3\n      pop\n      swap3\n      swap1\n      pop\n      jump\t// out\n        /* \"#utility.yul\":15628:16707   */\n    tag_111:\n        /* \"#utility.yul\":15759:15765   */\n      0x00\n        /* \"#utility.yul\":15767:15773   */\n      dup1\n        /* \"#utility.yul\":15775:15781   */\n      0x00\n        /* \"#utility.yul\":15783:15789   */\n      dup1\n        /* \"#utility.yul\":15791:15797   */\n      0x00\n        /* \"#utility.yul\":15840:15842   */\n      0x60\n        /* \"#utility.yul\":15828:15837   */\n      dup7\n        /* \"#utility.yul\":15819:15826   */\n      dup9\n        /* \"#utility.yul\":15815:15838   */\n      sub\n        /* \"#utility.yul\":15811:15843   */\n      slt\n        /* \"#utility.yul\":15808:15927   */\n      iszero\n      tag_803\n      jumpi\n        /* \"#utility.yul\":15846:15925   */\n      tag_804\n      tag_519\n      jump\t// in\n    tag_804:\n        /* \"#utility.yul\":15808:15927   */\n    tag_803:\n        /* \"#utility.yul\":15966:15967   */\n      0x00\n        /* \"#utility.yul\":15991:16044   */\n      tag_805\n        /* \"#utility.yul\":16036:16043   */\n      dup9\n        /* \"#utility.yul\":16027:16033   */\n      dup3\n        /* \"#utility.yul\":16016:16025   */\n      dup10\n        /* \"#utility.yul\":16012:16034   */\n      add\n        /* \"#utility.yul\":15991:16044   */\n      tag_524\n      jump\t// in\n    tag_805:\n        /* \"#utility.yul\":15981:16044   */\n      swap6\n      pop\n        /* \"#utility.yul\":15937:16054   */\n      pop\n        /* \"#utility.yul\":16121:16123   */\n      0x20\n        /* \"#utility.yul\":16110:16119   */\n      dup7\n        /* \"#utility.yul\":16106:16124   */\n      add\n        /* \"#utility.yul\":16093:16125   */\n      calldataload\n        /* \"#utility.yul\":16152:16170   */\n      0xffffffffffffffff\n        /* \"#utility.yul\":16144:16150   */\n      dup2\n        /* \"#utility.yul\":16141:16171   */\n      gt\n        /* \"#utility.yul\":16138:16255   */\n      iszero\n      tag_806\n      jumpi\n        /* \"#utility.yul\":16174:16253   */\n      tag_807\n      tag_520\n      jump\t// in\n    tag_807:\n        /* \"#utility.yul\":16138:16255   */\n    tag_806:\n        /* \"#utility.yul\":16287:16367   */\n      tag_808\n        /* \"#utility.yul\":16359:16366   */\n      dup9\n        /* \"#utility.yul\":16350:16356   */\n      dup3\n        /* \"#utility.yul\":16339:16348   */\n      dup10\n        /* \"#utility.yul\":16335:16357   */\n      add\n        /* \"#utility.yul\":16287:16367   */\n      tag_569\n      jump\t// in\n    tag_808:\n        /* \"#utility.yul\":16269:16367   */\n      swap5\n      pop\n      swap5\n      pop\n        /* \"#utility.yul\":16064:16377   */\n      pop\n        /* \"#utility.yul\":16444:16446   */\n      0x40\n        /* \"#utility.yul\":16433:16442   */\n      dup7\n        /* \"#utility.yul\":16429:16447   */\n      add\n        /* \"#utility.yul\":16416:16448   */\n      calldataload\n        /* \"#utility.yul\":16475:16493   */\n      0xffffffffffffffff\n        /* \"#utility.yul\":16467:16473   */\n      dup2\n        /* \"#utility.yul\":16464:16494   */\n      gt\n        /* \"#utility.yul\":16461:16578   */\n      iszero\n      tag_809\n      jumpi\n        /* \"#utility.yul\":16497:16576   */\n      tag_810\n      tag_520\n      jump\t// in\n    tag_810:\n        /* \"#utility.yul\":16461:16578   */\n    tag_809:\n        /* \"#utility.yul\":16610:16690   */\n      tag_811\n        /* \"#utility.yul\":16682:16689   */\n      dup9\n        /* \"#utility.yul\":16673:16679   */\n      dup3\n        /* \"#utility.yul\":16662:16671   */\n      dup10\n        /* \"#utility.yul\":16658:16680   */\n      add\n        /* \"#utility.yul\":16610:16690   */\n      tag_569\n      jump\t// in\n    tag_811:\n        /* \"#utility.yul\":16592:16690   */\n      swap3\n      pop\n      swap3\n      pop\n        /* \"#utility.yul\":16387:16700   */\n      pop\n        /* \"#utility.yul\":15628:16707   */\n      swap3\n      swap6\n      pop\n      swap3\n      swap6\n      swap1\n      swap4\n      pop\n      jump\t// out\n        /* \"#utility.yul\":16713:16773   */\n    tag_570:\n        /* \"#utility.yul\":16741:16744   */\n      0x00\n        /* \"#utility.yul\":16762:16767   */\n      dup2\n        /* \"#utility.yul\":16755:16767   */\n      swap1\n      pop\n        /* \"#utility.yul\":16713:16773   */\n      swap2\n      swap1\n      pop\n      jump\t// out\n        /* \"#utility.yul\":16779:16921   */\n    tag_571:\n        /* \"#utility.yul\":16829:16838   */\n      0x00\n        /* \"#utility.yul\":16862:16915   */\n      tag_814\n        /* \"#utility.yul\":16880:16914   */\n      tag_815\n        /* \"#utility.yul\":16889:16913   */\n      tag_816\n        /* \"#utility.yul\":16907:16912   */\n      dup5\n        /* \"#utility.yul\":16889:16913   */\n      tag_521\n      jump\t// in\n    tag_816:\n        /* \"#utility.yul\":16880:16914   */\n      tag_570\n      jump\t// in\n    tag_815:\n        /* \"#utility.yul\":16862:16915   */\n      tag_521\n      jump\t// in\n    tag_814:\n        /* \"#utility.yul\":16849:16915   */\n      swap1\n      pop\n        /* \"#utility.yul\":16779:16921   */\n      swap2\n      swap1\n      pop\n      jump\t// out\n        /* \"#utility.yul\":16927:17053   */\n    tag_572:\n        /* \"#utility.yul\":16977:16986   */\n      0x00\n        /* \"#utility.yul\":17010:17047   */\n      tag_818\n        /* \"#utility.yul\":17041:17046   */\n      dup3\n        /* \"#utility.yul\":17010:17047   */\n      tag_571\n      jump\t// in\n    tag_818:\n        /* \"#utility.yul\":16997:17047   */\n      swap1\n      pop\n        /* \"#utility.yul\":16927:17053   */\n      swap2\n      swap1\n      pop\n      jump\t// out\n        /* \"#utility.yul\":17059:17198   */\n    tag_573:\n        /* \"#utility.yul\":17122:17131   */\n      0x00\n        /* \"#utility.yul\":17155:17192   */\n      tag_820\n        /* \"#utility.yul\":17186:17191   */\n      dup3\n        /* \"#utility.yul\":17155:17192   */\n      tag_572\n      jump\t// in\n    tag_820:\n        /* \"#utility.yul\":17142:17192   */\n      swap1\n      pop\n        /* \"#utility.yul\":17059:17198   */\n      swap2\n      swap1\n      pop\n      jump\t// out\n        /* \"#utility.yul\":17204:17361   */\n    tag_574:\n        /* \"#utility.yul\":17304:17354   */\n      tag_822\n        /* \"#utility.yul\":17348:17353   */\n      dup2\n        /* \"#utility.yul\":17304:17354   */\n      tag_573\n      jump\t// in\n    tag_822:\n        /* \"#utility.yul\":17299:17302   */\n      dup3\n        /* \"#utility.yul\":17292:17355   */\n      mstore\n        /* \"#utility.yul\":17204:17361   */\n      pop\n      pop\n      jump\t// out\n        /* \"#utility.yul\":17367:17615   */\n    tag_116:\n        /* \"#utility.yul\":17473:17477   */\n      0x00\n        /* \"#utility.yul\":17511:17513   */\n      0x20\n        /* \"#utility.yul\":17500:17509   */\n      dup3\n        /* \"#utility.yul\":17496:17514   */\n      add\n        /* \"#utility.yul\":17488:17514   */\n      swap1\n      pop\n        /* \"#utility.yul\":17524:17608   */\n      tag_824\n        /* \"#utility.yul\":17605:17606   */\n      0x00\n        /* \"#utility.yul\":17594:17603   */\n      dup4\n        /* \"#utility.yul\":17590:17607   */\n      add\n        /* \"#utility.yul\":17581:17587   */\n      dup5\n        /* \"#utility.yul\":17524:17608   */\n      tag_574\n      jump\t// in\n    tag_824:\n        /* \"#utility.yul\":17367:17615   */\n      swap3\n      swap2\n      pop\n      pop\n      jump\t// out\n        /* \"#utility.yul\":17621:17792   */\n    tag_575:\n        /* \"#utility.yul\":17761:17784   */\n      0x57616c6c6574206e65766572206368616e676564210000000000000000000000\n        /* \"#utility.yul\":17757:17758   */\n      0x00\n        /* \"#utility.yul\":17749:17755   */\n      dup3\n        /* \"#utility.yul\":17745:17759   */\n      add\n        /* \"#utility.yul\":17738:17785   */\n      mstore\n        /* \"#utility.yul\":17621:17792   */\n      pop\n      jump\t// out\n        /* \"#utility.yul\":17798:18164   */\n    tag_576:\n        /* \"#utility.yul\":17940:17943   */\n      0x00\n        /* \"#utility.yul\":17961:18028   */\n      tag_827\n        /* \"#utility.yul\":18025:18027   */\n      0x15\n        /* \"#utility.yul\":18020:18023   */\n      dup4\n        /* \"#utility.yul\":17961:18028   */\n      tag_555\n      jump\t// in\n    tag_827:\n        /* \"#utility.yul\":17954:18028   */\n      swap2\n      pop\n        /* \"#utility.yul\":18037:18130   */\n      tag_828\n        /* \"#utility.yul\":18126:18129   */\n      dup3\n        /* \"#utility.yul\":18037:18130   */\n      tag_575\n      jump\t// in\n    tag_828:\n        /* \"#utility.yul\":18155:18157   */\n      0x20\n        /* \"#utility.yul\":18150:18153   */\n      dup3\n        /* \"#utility.yul\":18146:18158   */\n      add\n        /* \"#utility.yul\":18139:18158   */\n      swap1\n      pop\n        /* \"#utility.yul\":17798:18164   */\n      swap2\n      swap1\n      pop\n      jump\t// out\n        /* \"#utility.yul\":18170:18589   */\n    tag_123:\n        /* \"#utility.yul\":18336:18340   */\n      0x00\n        /* \"#utility.yul\":18374:18376   */\n      0x20\n        /* \"#utility.yul\":18363:18372   */\n      dup3\n        /* \"#utility.yul\":18359:18377   */\n      add\n        /* \"#utility.yul\":18351:18377   */\n      swap1\n      pop\n        /* \"#utility.yul\":18423:18432   */\n      dup2\n        /* \"#utility.yul\":18417:18421   */\n      dup2\n        /* \"#utility.yul\":18413:18433   */\n      sub\n        /* \"#utility.yul\":18409:18410   */\n      0x00\n        /* \"#utility.yul\":18398:18407   */\n      dup4\n        /* \"#utility.yul\":18394:18411   */\n      add\n        /* \"#utility.yul\":18387:18434   */\n      mstore\n        /* \"#utility.yul\":18451:18582   */\n      tag_830\n        /* \"#utility.yul\":18577:18581   */\n      dup2\n        /* \"#utility.yul\":18451:18582   */\n      tag_576\n      jump\t// in\n    tag_830:\n        /* \"#utility.yul\":18443:18582   */\n      swap1\n      pop\n        /* \"#utility.yul\":18170:18589   */\n      swap2\n      swap1\n      pop\n      jump\t// out\n        /* \"#utility.yul\":18595:18841   */\n    tag_577:\n        /* \"#utility.yul\":18735:18769   */\n      0x57697468647261772063616e20626520646f6e65206f6e6c7920627920636f6e\n        /* \"#utility.yul\":18731:18732   */\n      0x00\n        /* \"#utility.yul\":18723:18729   */\n      dup3\n        /* \"#utility.yul\":18719:18733   */\n      add\n        /* \"#utility.yul\":18712:18770   */\n      mstore\n        /* \"#utility.yul\":18804:18833   */\n      0x7472616374206f776e6572206f722062656e6566696369617279210000000000\n        /* \"#utility.yul\":18799:18801   */\n      0x20\n        /* \"#utility.yul\":18791:18797   */\n      dup3\n        /* \"#utility.yul\":18787:18802   */\n      add\n        /* \"#utility.yul\":18780:18834   */\n      mstore\n        /* \"#utility.yul\":18595:18841   */\n      pop\n      jump\t// out\n        /* \"#utility.yul\":18847:19213   */\n    tag_578:\n        /* \"#utility.yul\":18989:18992   */\n      0x00\n        /* \"#utility.yul\":19010:19077   */\n      tag_833\n        /* \"#utility.yul\":19074:19076   */\n      0x3b\n        /* \"#utility.yul\":19069:19072   */\n      dup4\n        /* \"#utility.yul\":19010:19077   */\n      tag_555\n      jump\t// in\n    tag_833:\n        /* \"#utility.yul\":19003:19077   */\n      swap2\n      pop\n        /* \"#utility.yul\":19086:19179   */\n      tag_834\n        /* \"#utility.yul\":19175:19178   */\n      dup3\n        /* \"#utility.yul\":19086:19179   */\n      tag_577\n      jump\t// in\n    tag_834:\n        /* \"#utility.yul\":19204:19206   */\n      0x40\n        /* \"#utility.yul\":19199:19202   */\n      dup3\n        /* \"#utility.yul\":19195:19207   */\n      add\n        /* \"#utility.yul\":19188:19207   */\n      swap1\n      pop\n        /* \"#utility.yul\":18847:19213   */\n      swap2\n      swap1\n      pop\n      jump\t// out\n        /* \"#utility.yul\":19219:19638   */\n    tag_129:\n        /* \"#utility.yul\":19385:19389   */\n      0x00\n        /* \"#utility.yul\":19423:19425   */\n      0x20\n        /* \"#utility.yul\":19412:19421   */\n      dup3\n        /* \"#utility.yul\":19408:19426   */\n      add\n        /* \"#utility.yul\":19400:19426   */\n      swap1\n      pop\n        /* \"#utility.yul\":19472:19481   */\n      dup2\n        /* \"#utility.yul\":19466:19470   */\n      dup2\n        /* \"#utility.yul\":19462:19482   */\n      sub\n        /* \"#utility.yul\":19458:19459   */\n      0x00\n        /* \"#utility.yul\":19447:19456   */\n      dup4\n        /* \"#utility.yul\":19443:19460   */\n      add\n        /* \"#utility.yul\":19436:19483   */\n      mstore\n        /* \"#utility.yul\":19500:19631   */\n      tag_836\n        /* \"#utility.yul\":19626:19630   */\n      dup2\n        /* \"#utility.yul\":19500:19631   */\n      tag_578\n      jump\t// in\n    tag_836:\n        /* \"#utility.yul\":19492:19631   */\n      swap1\n      pop\n        /* \"#utility.yul\":19219:19638   */\n      swap2\n      swap1\n      pop\n      jump\t// out\n        /* \"#utility.yul\":19644:19819   */\n    tag_579:\n        /* \"#utility.yul\":19784:19811   */\n      0x42656e6566696369617279206e6f74206578697374696e672100000000000000\n        /* \"#utility.yul\":19780:19781   */\n      0x00\n        /* \"#utility.yul\":19772:19778   */\n      dup3\n        /* \"#utility.yul\":19768:19782   */\n      add\n        /* \"#utility.yul\":19761:19812   */\n      mstore\n        /* \"#utility.yul\":19644:19819   */\n      pop\n      jump\t// out\n        /* \"#utility.yul\":19825:20191   */\n    tag_580:\n        /* \"#utility.yul\":19967:19970   */\n      0x00\n        /* \"#utility.yul\":19988:20055   */\n      tag_839\n        /* \"#utility.yul\":20052:20054   */\n      0x19\n        /* \"#utility.yul\":20047:20050   */\n      dup4\n        /* \"#utility.yul\":19988:20055   */\n      tag_555\n      jump\t// in\n    tag_839:\n        /* \"#utility.yul\":19981:20055   */\n      swap2\n      pop\n        /* \"#utility.yul\":20064:20157   */\n      tag_840\n        /* \"#utility.yul\":20153:20156   */\n      dup3\n        /* \"#utility.yul\":20064:20157   */\n      tag_579\n      jump\t// in\n    tag_840:\n        /* \"#utility.yul\":20182:20184   */\n      0x20\n        /* \"#utility.yul\":20177:20180   */\n      dup3\n        /* \"#utility.yul\":20173:20185   */\n      add\n        /* \"#utility.yul\":20166:20185   */\n      swap1\n      pop\n        /* \"#utility.yul\":19825:20191   */\n      swap2\n      swap1\n      pop\n      jump\t// out\n        /* \"#utility.yul\":20197:20616   */\n    tag_132:\n        /* \"#utility.yul\":20363:20367   */\n      0x00\n        /* \"#utility.yul\":20401:20403   */\n      0x20\n        /* \"#utility.yul\":20390:20399   */\n      dup3\n        /* \"#utility.yul\":20386:20404   */\n      add\n        /* \"#utility.yul\":20378:20404   */\n      swap1\n      pop\n        /* \"#utility.yul\":20450:20459   */\n      dup2\n        /* \"#utility.yul\":20444:20448   */\n      dup2\n        /* \"#utility.yul\":20440:20460   */\n      sub\n        /* \"#utility.yul\":20436:20437   */\n      0x00\n        /* \"#utility.yul\":20425:20434   */\n      dup4\n        /* \"#utility.yul\":20421:20438   */\n      add\n        /* \"#utility.yul\":20414:20461   */\n      mstore\n        /* \"#utility.yul\":20478:20609   */\n      tag_842\n        /* \"#utility.yul\":20604:20608   */\n      dup2\n        /* \"#utility.yul\":20478:20609   */\n      tag_580\n      jump\t// in\n    tag_842:\n        /* \"#utility.yul\":20470:20609   */\n      swap1\n      pop\n        /* \"#utility.yul\":20197:20616   */\n      swap2\n      swap1\n      pop\n      jump\t// out\n        /* \"#utility.yul\":20622:20802   */\n    tag_138:\n        /* \"#utility.yul\":20670:20747   */\n      0x4e487b7100000000000000000000000000000000000000000000000000000000\n        /* \"#utility.yul\":20667:20668   */\n      0x00\n        /* \"#utility.yul\":20660:20748   */\n      mstore\n        /* \"#utility.yul\":20767:20771   */\n      0x32\n        /* \"#utility.yul\":20764:20765   */\n      0x04\n        /* \"#utility.yul\":20757:20772   */\n      mstore\n        /* \"#utility.yul\":20791:20795   */\n      0x24\n        /* \"#utility.yul\":20788:20789   */\n      0x00\n        /* \"#utility.yul\":20781:20796   */\n      revert\n        /* \"#utility.yul\":20808:20988   */\n    tag_581:\n        /* \"#utility.yul\":20856:20933   */\n      0x4e487b7100000000000000000000000000000000000000000000000000000000\n        /* \"#utility.yul\":20853:20854   */\n      0x00\n        /* \"#utility.yul\":20846:20934   */\n      mstore\n        /* \"#utility.yul\":20953:20957   */\n      0x11\n        /* \"#utility.yul\":20950:20951   */\n      0x04\n        /* \"#utility.yul\":20943:20958   */\n      mstore\n        /* \"#utility.yul\":20977:20981   */\n      0x24\n        /* \"#utility.yul\":20974:20975   */\n      0x00\n        /* \"#utility.yul\":20967:20982   */\n      revert\n        /* \"#utility.yul\":20994:21188   */\n    tag_172:\n        /* \"#utility.yul\":21034:21038   */\n      0x00\n        /* \"#utility.yul\":21054:21074   */\n      tag_846\n        /* \"#utility.yul\":21072:21073   */\n      dup3\n        /* \"#utility.yul\":21054:21074   */\n      tag_526\n      jump\t// in\n    tag_846:\n        /* \"#utility.yul\":21049:21074   */\n      swap2\n      pop\n        /* \"#utility.yul\":21088:21108   */\n      tag_847\n        /* \"#utility.yul\":21106:21107   */\n      dup4\n        /* \"#utility.yul\":21088:21108   */\n      tag_526\n      jump\t// in\n    tag_847:\n        /* \"#utility.yul\":21083:21108   */\n      swap3\n      pop\n        /* \"#utility.yul\":21132:21133   */\n      dup3\n        /* \"#utility.yul\":21129:21130   */\n      dup3\n        /* \"#utility.yul\":21125:21134   */\n      sub\n        /* \"#utility.yul\":21117:21134   */\n      swap1\n      pop\n        /* \"#utility.yul\":21156:21157   */\n      dup2\n        /* \"#utility.yul\":21150:21154   */\n      dup2\n        /* \"#utility.yul\":21147:21158   */\n      gt\n        /* \"#utility.yul\":21144:21181   */\n      iszero\n      tag_848\n      jumpi\n        /* \"#utility.yul\":21161:21179   */\n      tag_849\n      tag_581\n      jump\t// in\n    tag_849:\n        /* \"#utility.yul\":21144:21181   */\n    tag_848:\n        /* \"#utility.yul\":20994:21188   */\n      swap3\n      swap2\n      pop\n      pop\n      jump\t// out\n        /* \"#utility.yul\":21194:21427   */\n    tag_183:\n        /* \"#utility.yul\":21233:21236   */\n      0x00\n        /* \"#utility.yul\":21256:21280   */\n      tag_851\n        /* \"#utility.yul\":21274:21279   */\n      dup3\n        /* \"#utility.yul\":21256:21280   */\n      tag_526\n      jump\t// in\n    tag_851:\n        /* \"#utility.yul\":21247:21280   */\n      swap2\n      pop\n        /* \"#utility.yul\":21302:21368   */\n      0xffffffffffffffffffffffffffffffffffffffffffffffffffffffffffffffff\n        /* \"#utility.yul\":21295:21300   */\n      dup3\n        /* \"#utility.yul\":21292:21369   */\n      sub\n        /* \"#utility.yul\":21289:21392   */\n      tag_852\n      jumpi\n        /* \"#utility.yul\":21372:21390   */\n      tag_853\n      tag_581\n      jump\t// in\n    tag_853:\n        /* \"#utility.yul\":21289:21392   */\n    tag_852:\n        /* \"#utility.yul\":21419:21420   */\n      0x01\n        /* \"#utility.yul\":21412:21417   */\n      dup3\n        /* \"#utility.yul\":21408:21421   */\n      add\n        /* \"#utility.yul\":21401:21421   */\n      swap1\n      pop\n        /* \"#utility.yul\":21194:21427   */\n      swap2\n      swap1\n      pop\n      jump\t// out\n        /* \"#utility.yul\":21433:21654   */\n    tag_582:\n        /* \"#utility.yul\":21573:21607   */\n      0x4e6f2072656c6561736564207061796d656e747320666f72207472616e736665\n        /* \"#utility.yul\":21569:21570   */\n      0x00\n        /* \"#utility.yul\":21561:21567   */\n      dup3\n        /* \"#utility.yul\":21557:21571   */\n      add\n        /* \"#utility.yul\":21550:21608   */\n      mstore\n        /* \"#utility.yul\":21642:21646   */\n      0x7221000000000000000000000000000000000000000000000000000000000000\n        /* \"#utility.yul\":21637:21639   */\n      0x20\n        /* \"#utility.yul\":21629:21635   */\n      dup3\n        /* \"#utility.yul\":21625:21640   */\n      add\n        /* \"#utility.yul\":21618:21647   */\n      mstore\n        /* \"#utility.yul\":21433:21654   */\n      pop\n      jump\t// out\n        /* \"#utility.yul\":21660:22026   */\n    tag_583:\n        /* \"#utility.yul\":21802:21805   */\n      0x00\n        /* \"#utility.yul\":21823:21890   */\n      tag_856\n        /* \"#utility.yul\":21887:21889   */\n      0x22\n        /* \"#utility.yul\":21882:21885   */\n      dup4\n        /* \"#utility.yul\":21823:21890   */\n      tag_555\n      jump\t// in\n    tag_856:\n        /* \"#utility.yul\":21816:21890   */\n      swap2\n      pop\n        /* \"#utility.yul\":21899:21992   */\n      tag_857\n        /* \"#utility.yul\":21988:21991   */\n      dup3\n        /* \"#utility.yul\":21899:21992   */\n      tag_582\n      jump\t// in\n    tag_857:\n        /* \"#utility.yul\":22017:22019   */\n      0x40\n        /* \"#utility.yul\":22012:22015   */\n      dup3\n        /* \"#utility.yul\":22008:22020   */\n      add\n        /* \"#utility.yul\":22001:22020   */\n      swap1\n      pop\n        /* \"#utility.yul\":21660:22026   */\n      swap2\n      swap1\n      pop\n      jump\t// out\n        /* \"#utility.yul\":22032:22451   */\n    tag_186:\n        /* \"#utility.yul\":22198:22202   */\n      0x00\n        /* \"#utility.yul\":22236:22238   */\n      0x20\n        /* \"#utility.yul\":22225:22234   */\n      dup3\n        /* \"#utility.yul\":22221:22239   */\n      add\n        /* \"#utility.yul\":22213:22239   */\n      swap1\n      pop\n        /* \"#utility.yul\":22285:22294   */\n      dup2\n        /* \"#utility.yul\":22279:22283   */\n      dup2\n        /* \"#utility.yul\":22275:22295   */\n      sub\n        /* \"#utility.yul\":22271:22272   */\n      0x00\n        /* \"#utility.yul\":22260:22269   */\n      dup4\n        /* \"#utility.yul\":22256:22273   */\n      add\n        /* \"#utility.yul\":22249:22296   */\n      mstore\n        /* \"#utility.yul\":22313:22444   */\n      tag_859\n        /* \"#utility.yul\":22439:22443   */\n      dup2\n        /* \"#utility.yul\":22313:22444   */\n      tag_583\n      jump\t// in\n    tag_859:\n        /* \"#utility.yul\":22305:22444   */\n      swap1\n      pop\n        /* \"#utility.yul\":22032:22451   */\n      swap2\n      swap1\n      pop\n      jump\t// out\n        /* \"#utility.yul\":22457:22543   */\n    tag_584:\n        /* \"#utility.yul\":22492:22499   */\n      0x00\n        /* \"#utility.yul\":22532:22536   */\n      0xff\n        /* \"#utility.yul\":22525:22530   */\n      dup3\n        /* \"#utility.yul\":22521:22537   */\n      and\n        /* \"#utility.yul\":22510:22537   */\n      swap1\n      pop\n        /* \"#utility.yul\":22457:22543   */\n      swap2\n      swap1\n      pop\n      jump\t// out\n        /* \"#utility.yul\":22549:22667   */\n    tag_585:\n        /* \"#utility.yul\":22620:22642   */\n      tag_862\n        /* \"#utility.yul\":22636:22641   */\n      dup2\n        /* \"#utility.yul\":22620:22642   */\n      tag_584\n      jump\t// in\n    tag_862:\n        /* \"#utility.yul\":22613:22618   */\n      dup2\n        /* \"#utility.yul\":22610:22643   */\n      eq\n        /* \"#utility.yul\":22600:22661   */\n      tag_863\n      jumpi\n        /* \"#utility.yul\":22657:22658   */\n      0x00\n        /* \"#utility.yul\":22654:22655   */\n      dup1\n        /* \"#utility.yul\":22647:22659   */\n      revert\n        /* \"#utility.yul\":22600:22661   */\n    tag_863:\n        /* \"#utility.yul\":22549:22667   */\n      pop\n      jump\t// out\n        /* \"#utility.yul\":22673:22812   */\n    tag_586:\n        /* \"#utility.yul\":22728:22733   */\n      0x00\n        /* \"#utility.yul\":22759:22765   */\n      dup2\n        /* \"#utility.yul\":22753:22766   */\n      mload\n        /* \"#utility.yul\":22744:22766   */\n      swap1\n      pop\n        /* \"#utility.yul\":22775:22806   */\n      tag_865\n        /* \"#utility.yul\":22800:22805   */\n      dup2\n        /* \"#utility.yul\":22775:22806   */\n      tag_585\n      jump\t// in\n    tag_865:\n        /* \"#utility.yul\":22673:22812   */\n      swap3\n      swap2\n      pop\n      pop\n      jump\t// out\n        /* \"#utility.yul\":22818:23165   */\n    tag_191:\n        /* \"#utility.yul\":22886:22892   */\n      0x00\n        /* \"#utility.yul\":22935:22937   */\n      0x20\n        /* \"#utility.yul\":22923:22932   */\n      dup3\n        /* \"#utility.yul\":22914:22921   */\n      dup5\n        /* \"#utility.yul\":22910:22933   */\n      sub\n        /* \"#utility.yul\":22906:22938   */\n      slt\n        /* \"#utility.yul\":22903:23022   */\n      iszero\n      tag_867\n      jumpi\n        /* \"#utility.yul\":22941:23020   */\n      tag_868\n      tag_519\n      jump\t// in\n    tag_868:\n        /* \"#utility.yul\":22903:23022   */\n    tag_867:\n        /* \"#utility.yul\":23061:23062   */\n      0x00\n        /* \"#utility.yul\":23086:23148   */\n      tag_869\n        /* \"#utility.yul\":23140:23147   */\n      dup5\n        /* \"#utility.yul\":23131:23137   */\n      dup3\n        /* \"#utility.yul\":23120:23129   */\n      dup6\n        /* \"#utility.yul\":23116:23138   */\n      add\n        /* \"#utility.yul\":23086:23148   */\n      tag_586\n      jump\t// in\n    tag_869:\n        /* \"#utility.yul\":23076:23148   */\n      swap2\n      pop\n        /* \"#utility.yul\":23032:23158   */\n      pop\n        /* \"#utility.yul\":22818:23165   */\n      swap3\n      swap2\n      pop\n      pop\n      jump\t// out\n        /* \"#utility.yul\":23171:23268   */\n    tag_587:\n        /* \"#utility.yul\":23230:23236   */\n      0x00\n        /* \"#utility.yul\":23258:23261   */\n      dup3\n        /* \"#utility.yul\":23248:23261   */\n      swap1\n      pop\n        /* \"#utility.yul\":23171:23268   */\n      swap3\n      swap2\n      pop\n      pop\n      jump\t// out\n        /* \"#utility.yul\":23274:23454   */\n    tag_588:\n        /* \"#utility.yul\":23322:23399   */\n      0x4e487b7100000000000000000000000000000000000000000000000000000000\n        /* \"#utility.yul\":23319:23320   */\n      0x00\n        /* \"#utility.yul\":23312:23400   */\n      mstore\n        /* \"#utility.yul\":23419:23423   */\n      0x41\n        /* \"#utility.yul\":23416:23417   */\n      0x04\n        /* \"#utility.yul\":23409:23424   */\n      mstore\n        /* \"#utility.yul\":23443:23447   */\n      0x24\n        /* \"#utility.yul\":23440:23441   */\n      0x00\n        /* \"#utility.yul\":23433:23448   */\n      revert\n        /* \"#utility.yul\":23460:23640   */\n    tag_589:\n        /* \"#utility.yul\":23508:23585   */\n      0x4e487b7100000000000000000000000000000000000000000000000000000000\n        /* \"#utility.yul\":23505:23506   */\n      0x00\n        /* \"#utility.yul\":23498:23586   */\n      mstore\n        /* \"#utility.yul\":23605:23609   */\n      0x22\n        /* \"#utility.yul\":23602:23603   */\n      0x04\n        /* \"#utility.yul\":23595:23610   */\n      mstore\n        /* \"#utility.yul\":23629:23633   */\n      0x24\n        /* \"#utility.yul\":23626:23627   */\n      0x00\n        /* \"#utility.yul\":23619:23634   */\n      revert\n        /* \"#utility.yul\":23646:23966   */\n    tag_360:\n        /* \"#utility.yul\":23690:23696   */\n      0x00\n        /* \"#utility.yul\":23727:23728   */\n      0x02\n        /* \"#utility.yul\":23721:23725   */\n      dup3\n        /* \"#utility.yul\":23717:23729   */\n      div\n        /* \"#utility.yul\":23707:23729   */\n      swap1\n      pop\n        /* \"#utility.yul\":23774:23775   */\n      0x01\n        /* \"#utility.yul\":23768:23772   */\n      dup3\n        /* \"#utility.yul\":23764:23776   */\n      and\n        /* \"#utility.yul\":23795:23813   */\n      dup1\n        /* \"#utility.yul\":23785:23866   */\n      tag_874\n      jumpi\n        /* \"#utility.yul\":23851:23855   */\n      0x7f\n        /* \"#utility.yul\":23843:23849   */\n      dup3\n        /* \"#utility.yul\":23839:23856   */\n      and\n        /* \"#utility.yul\":23829:23856   */\n      swap2\n      pop\n        /* \"#utility.yul\":23785:23866   */\n    tag_874:\n        /* \"#utility.yul\":23913:23915   */\n      0x20\n        /* \"#utility.yul\":23905:23911   */\n      dup3\n        /* \"#utility.yul\":23902:23916   */\n      lt\n        /* \"#utility.yul\":23882:23900   */\n      dup2\n        /* \"#utility.yul\":23879:23917   */\n      sub\n        /* \"#utility.yul\":23876:23960   */\n      tag_875\n      jumpi\n        /* \"#utility.yul\":23932:23950   */\n      tag_876\n      tag_589\n      jump\t// in\n    tag_876:\n        /* \"#utility.yul\":23876:23960   */\n    tag_875:\n        /* \"#utility.yul\":23697:23966   */\n      pop\n        /* \"#utility.yul\":23646:23966   */\n      swap2\n      swap1\n      pop\n      jump\t// out\n        /* \"#utility.yul\":23972:24113   */\n    tag_590:\n        /* \"#utility.yul\":24021:24025   */\n      0x00\n        /* \"#utility.yul\":24044:24047   */\n      dup2\n        /* \"#utility.yul\":24036:24047   */\n      swap1\n      pop\n        /* \"#utility.yul\":24067:24070   */\n      dup2\n        /* \"#utility.yul\":24064:24065   */\n      0x00\n        /* \"#utility.yul\":24057:24071   */\n      mstore\n        /* \"#utility.yul\":24101:24105   */\n      0x20\n        /* \"#utility.yul\":24098:24099   */\n      0x00\n        /* \"#utility.yul\":24088:24106   */\n      keccak256\n        /* \"#utility.yul\":24080:24106   */\n      swap1\n      pop\n        /* \"#utility.yul\":23972:24113   */\n      swap2\n      swap1\n      pop\n      jump\t// out\n        /* \"#utility.yul\":24119:24212   */\n    tag_591:\n        /* \"#utility.yul\":24156:24162   */\n      0x00\n        /* \"#utility.yul\":24203:24205   */\n      0x20\n        /* \"#utility.yul\":24198:24200   */\n      0x1f\n        /* \"#utility.yul\":24191:24196   */\n      dup4\n        /* \"#utility.yul\":24187:24201   */\n      add\n        /* \"#utility.yul\":24183:24206   */\n      div\n        /* \"#utility.yul\":24173:24206   */\n      swap1\n      pop\n        /* \"#utility.yul\":24119:24212   */\n      swap2\n      swap1\n      pop\n      jump\t// out\n        /* \"#utility.yul\":24218:24325   */\n    tag_592:\n        /* \"#utility.yul\":24262:24270   */\n      0x00\n        /* \"#utility.yul\":24312:24317   */\n      dup3\n        /* \"#utility.yul\":24306:24310   */\n      dup3\n        /* \"#utility.yul\":24302:24318   */\n      shl\n        /* \"#utility.yul\":24281:24318   */\n      swap1\n      pop\n        /* \"#utility.yul\":24218:24325   */\n      swap3\n      swap2\n      pop\n      pop\n      jump\t// out\n        /* \"#utility.yul\":24331:24724   */\n    tag_593:\n        /* \"#utility.yul\":24400:24406   */\n      0x00\n        /* \"#utility.yul\":24450:24451   */\n      0x08\n        /* \"#utility.yul\":24438:24448   */\n      dup4\n        /* \"#utility.yul\":24434:24452   */\n      mul\n        /* \"#utility.yul\":24473:24570   */\n      tag_881\n        /* \"#utility.yul\":24503:24569   */\n      0xffffffffffffffffffffffffffffffffffffffffffffffffffffffffffffffff\n        /* \"#utility.yul\":24492:24501   */\n      dup3\n        /* \"#utility.yul\":24473:24570   */\n      tag_592\n      jump\t// in\n    tag_881:\n        /* \"#utility.yul\":24591:24630   */\n      tag_882\n        /* \"#utility.yul\":24621:24629   */\n      dup7\n        /* \"#utility.yul\":24610:24619   */\n      dup4\n        /* \"#utility.yul\":24591:24630   */\n      tag_592\n      jump\t// in\n    tag_882:\n        /* \"#utility.yul\":24579:24630   */\n      swap6\n      pop\n        /* \"#utility.yul\":24663:24667   */\n      dup1\n        /* \"#utility.yul\":24659:24668   */\n      not\n        /* \"#utility.yul\":24652:24657   */\n      dup5\n        /* \"#utility.yul\":24648:24669   */\n      and\n        /* \"#utility.yul\":24639:24669   */\n      swap4\n      pop\n        /* \"#utility.yul\":24712:24716   */\n      dup1\n        /* \"#utility.yul\":24702:24710   */\n      dup7\n        /* \"#utility.yul\":24698:24717   */\n      and\n        /* \"#utility.yul\":24691:24696   */\n      dup5\n        /* \"#utility.yul\":24688:24718   */\n      or\n        /* \"#utility.yul\":24678:24718   */\n      swap3\n      pop\n        /* \"#utility.yul\":24407:24724   */\n      pop\n      pop\n        /* \"#utility.yul\":24331:24724   */\n      swap4\n      swap3\n      pop\n      pop\n      pop\n      jump\t// out\n        /* \"#utility.yul\":24730:24872   */\n    tag_594:\n        /* \"#utility.yul\":24780:24789   */\n      0x00\n        /* \"#utility.yul\":24813:24866   */\n      tag_884\n        /* \"#utility.yul\":24831:24865   */\n      tag_885\n        /* \"#utility.yul\":24840:24864   */\n      tag_886\n        /* \"#utility.yul\":24858:24863   */\n      dup5\n        /* \"#utility.yul\":24840:24864   */\n      tag_526\n      jump\t// in\n    tag_886:\n        /* \"#utility.yul\":24831:24865   */\n      tag_570\n      jump\t// in\n    tag_885:\n        /* \"#utility.yul\":24813:24866   */\n      tag_526\n      jump\t// in\n    tag_884:\n        /* \"#utility.yul\":24800:24866   */\n      swap1\n      pop\n        /* \"#utility.yul\":24730:24872   */\n      swap2\n      swap1\n      pop\n      jump\t// out\n        /* \"#utility.yul\":24878:24953   */\n    tag_595:\n        /* \"#utility.yul\":24921:24924   */\n      0x00\n        /* \"#utility.yul\":24942:24947   */\n      dup2\n        /* \"#utility.yul\":24935:24947   */\n      swap1\n      pop\n        /* \"#utility.yul\":24878:24953   */\n      swap2\n      swap1\n      pop\n      jump\t// out\n        /* \"#utility.yul\":24959:25228   */\n    tag_596:\n        /* \"#utility.yul\":25069:25108   */\n      tag_889\n        /* \"#utility.yul\":25100:25107   */\n      dup4\n        /* \"#utility.yul\":25069:25108   */\n      tag_594\n      jump\t// in\n    tag_889:\n        /* \"#utility.yul\":25130:25221   */\n      tag_890\n        /* \"#utility.yul\":25179:25220   */\n      tag_891\n        /* \"#utility.yul\":25203:25219   */\n      dup3\n        /* \"#utility.yul\":25179:25220   */\n      tag_595\n      jump\t// in\n    tag_891:\n        /* \"#utility.yul\":25171:25177   */\n      dup5\n        /* \"#utility.yul\":25164:25168   */\n      dup5\n        /* \"#utility.yul\":25158:25169   */\n      sload\n        /* \"#utility.yul\":25130:25221   */\n      tag_593\n      jump\t// in\n    tag_890:\n        /* \"#utility.yul\":25124:25128   */\n      dup3\n        /* \"#utility.yul\":25117:25222   */\n      sstore\n        /* \"#utility.yul\":25035:25228   */\n      pop\n        /* \"#utility.yul\":24959:25228   */\n      pop\n      pop\n      pop\n      jump\t// out\n        /* \"#utility.yul\":25234:25307   */\n    tag_597:\n        /* \"#utility.yul\":25279:25282   */\n      0x00\n        /* \"#utility.yul\":25234:25307   */\n      swap1\n      jump\t// out\n        /* \"#utility.yul\":25313:25502   */\n    tag_598:\n        /* \"#utility.yul\":25390:25422   */\n      tag_894\n      tag_597\n      jump\t// in\n    tag_894:\n        /* \"#utility.yul\":25431:25496   */\n      tag_895\n        /* \"#utility.yul\":25489:25495   */\n      dup2\n        /* \"#utility.yul\":25481:25487   */\n      dup5\n        /* \"#utility.yul\":25475:25479   */\n      dup5\n        /* \"#utility.yul\":25431:25496   */\n      tag_596\n      jump\t// in\n    tag_895:\n        /* \"#utility.yul\":25366:25502   */\n      pop\n        /* \"#utility.yul\":25313:25502   */\n      pop\n      pop\n      jump\t// out\n        /* \"#utility.yul\":25508:25694   */\n    tag_599:\n        /* \"#utility.yul\":25568:25688   */\n    tag_897:\n        /* \"#utility.yul\":25585:25588   */\n      dup2\n        /* \"#utility.yul\":25578:25583   */\n      dup2\n        /* \"#utility.yul\":25575:25589   */\n      lt\n        /* \"#utility.yul\":25568:25688   */\n      iszero\n      tag_899\n      jumpi\n        /* \"#utility.yul\":25639:25678   */\n      tag_900\n        /* \"#utility.yul\":25676:25677   */\n      0x00\n        /* \"#utility.yul\":25669:25674   */\n      dup3\n        /* \"#utility.yul\":25639:25678   */\n      tag_598\n      jump\t// in\n    tag_900:\n        /* \"#utility.yul\":25612:25613   */\n      0x01\n        /* \"#utility.yul\":25605:25610   */\n      dup2\n        /* \"#utility.yul\":25601:25614   */\n      add\n        /* \"#utility.yul\":25592:25614   */\n      swap1\n      pop\n        /* \"#utility.yul\":25568:25688   */\n      jump(tag_897)\n    tag_899:\n        /* \"#utility.yul\":25508:25694   */\n      pop\n      pop\n      jump\t// out\n        /* \"#utility.yul\":25700:26243   */\n    tag_600:\n        /* \"#utility.yul\":25801:25803   */\n      0x1f\n        /* \"#utility.yul\":25796:25799   */\n      dup3\n        /* \"#utility.yul\":25793:25804   */\n      gt\n        /* \"#utility.yul\":25790:26236   */\n      iszero\n      tag_902\n      jumpi\n        /* \"#utility.yul\":25835:25873   */\n      tag_903\n        /* \"#utility.yul\":25867:25872   */\n      dup2\n        /* \"#utility.yul\":25835:25873   */\n      tag_590\n      jump\t// in\n    tag_903:\n        /* \"#utility.yul\":25919:25948   */\n      tag_904\n        /* \"#utility.yul\":25937:25947   */\n      dup5\n        /* \"#utility.yul\":25919:25948   */\n      tag_591\n      jump\t// in\n    tag_904:\n        /* \"#utility.yul\":25909:25917   */\n      dup2\n        /* \"#utility.yul\":25905:25949   */\n      add\n        /* \"#utility.yul\":26102:26104   */\n      0x20\n        /* \"#utility.yul\":26090:26100   */\n      dup6\n        /* \"#utility.yul\":26087:26105   */\n      lt\n        /* \"#utility.yul\":26084:26133   */\n      iszero\n      tag_905\n      jumpi\n        /* \"#utility.yul\":26123:26131   */\n      dup2\n        /* \"#utility.yul\":26108:26131   */\n      swap1\n      pop\n        /* \"#utility.yul\":26084:26133   */\n    tag_905:\n        /* \"#utility.yul\":26146:26226   */\n      tag_906\n        /* \"#utility.yul\":26202:26224   */\n      tag_907\n        /* \"#utility.yul\":26220:26223   */\n      dup6\n        /* \"#utility.yul\":26202:26224   */\n      tag_591\n      jump\t// in\n    tag_907:\n        /* \"#utility.yul\":26192:26200   */\n      dup4\n        /* \"#utility.yul\":26188:26225   */\n      add\n        /* \"#utility.yul\":26175:26186   */\n      dup3\n        /* \"#utility.yul\":26146:26226   */\n      tag_599\n      jump\t// in\n    tag_906:\n        /* \"#utility.yul\":25805:26236   */\n      pop\n      pop\n        /* \"#utility.yul\":25790:26236   */\n    tag_902:\n        /* \"#utility.yul\":25700:26243   */\n      pop\n      pop\n      pop\n      jump\t// out\n        /* \"#utility.yul\":26249:26366   */\n    tag_601:\n        /* \"#utility.yul\":26303:26311   */\n      0x00\n        /* \"#utility.yul\":26353:26358   */\n      dup3\n        /* \"#utility.yul\":26347:26351   */\n      dup3\n        /* \"#utility.yul\":26343:26359   */\n      shr\n        /* \"#utility.yul\":26322:26359   */\n      swap1\n      pop\n        /* \"#utility.yul\":26249:26366   */\n      swap3\n      swap2\n      pop\n      pop\n      jump\t// out\n        /* \"#utility.yul\":26372:26541   */\n    tag_602:\n        /* \"#utility.yul\":26416:26422   */\n      0x00\n        /* \"#utility.yul\":26449:26500   */\n      tag_910\n        /* \"#utility.yul\":26497:26498   */\n      0x00\n        /* \"#utility.yul\":26493:26499   */\n      not\n        /* \"#utility.yul\":26485:26490   */\n      dup5\n        /* \"#utility.yul\":26482:26483   */\n      0x08\n        /* \"#utility.yul\":26478:26491   */\n      mul\n        /* \"#utility.yul\":26449:26500   */\n      tag_601\n      jump\t// in\n    tag_910:\n        /* \"#utility.yul\":26445:26501   */\n      not\n        /* \"#utility.yul\":26530:26534   */\n      dup1\n        /* \"#utility.yul\":26524:26528   */\n      dup4\n        /* \"#utility.yul\":26520:26535   */\n      and\n        /* \"#utility.yul\":26510:26535   */\n      swap2\n      pop\n        /* \"#utility.yul\":26423:26541   */\n      pop\n        /* \"#utility.yul\":26372:26541   */\n      swap3\n      swap2\n      pop\n      pop\n      jump\t// out\n        /* \"#utility.yul\":26546:26841   */\n    tag_603:\n        /* \"#utility.yul\":26622:26626   */\n      0x00\n        /* \"#utility.yul\":26768:26797   */\n      tag_912\n        /* \"#utility.yul\":26793:26796   */\n      dup4\n        /* \"#utility.yul\":26787:26791   */\n      dup4\n        /* \"#utility.yul\":26768:26797   */\n      tag_602\n      jump\t// in\n    tag_912:\n        /* \"#utility.yul\":26760:26797   */\n      swap2\n      pop\n        /* \"#utility.yul\":26830:26833   */\n      dup3\n        /* \"#utility.yul\":26827:26828   */\n      0x02\n        /* \"#utility.yul\":26823:26834   */\n      mul\n        /* \"#utility.yul\":26817:26821   */\n      dup3\n        /* \"#utility.yul\":26814:26835   */\n      or\n        /* \"#utility.yul\":26806:26835   */\n      swap1\n      pop\n        /* \"#utility.yul\":26546:26841   */\n      swap3\n      swap2\n      pop\n      pop\n      jump\t// out\n        /* \"#utility.yul\":26846:28249   */\n    tag_228:\n        /* \"#utility.yul\":26970:27014   */\n      tag_914\n        /* \"#utility.yul\":27010:27013   */\n      dup4\n        /* \"#utility.yul\":27005:27008   */\n      dup4\n        /* \"#utility.yul\":26970:27014   */\n      tag_587\n      jump\t// in\n    tag_914:\n        /* \"#utility.yul\":27079:27097   */\n      0xffffffffffffffff\n        /* \"#utility.yul\":27071:27077   */\n      dup2\n        /* \"#utility.yul\":27068:27098   */\n      gt\n        /* \"#utility.yul\":27065:27121   */\n      iszero\n      tag_915\n      jumpi\n        /* \"#utility.yul\":27101:27119   */\n      tag_916\n      tag_588\n      jump\t// in\n    tag_916:\n        /* \"#utility.yul\":27065:27121   */\n    tag_915:\n        /* \"#utility.yul\":27145:27183   */\n      tag_917\n        /* \"#utility.yul\":27177:27181   */\n      dup3\n        /* \"#utility.yul\":27171:27182   */\n      sload\n        /* \"#utility.yul\":27145:27183   */\n      tag_360\n      jump\t// in\n    tag_917:\n        /* \"#utility.yul\":27230:27297   */\n      tag_918\n        /* \"#utility.yul\":27290:27296   */\n      dup3\n        /* \"#utility.yul\":27282:27288   */\n      dup3\n        /* \"#utility.yul\":27276:27280   */\n      dup6\n        /* \"#utility.yul\":27230:27297   */\n      tag_600\n      jump\t// in\n    tag_918:\n        /* \"#utility.yul\":27324:27325   */\n      0x00\n        /* \"#utility.yul\":27353:27355   */\n      0x1f\n        /* \"#utility.yul\":27345:27351   */\n      dup4\n        /* \"#utility.yul\":27342:27356   */\n      gt\n        /* \"#utility.yul\":27370:27371   */\n      0x01\n        /* \"#utility.yul\":27365:27997   */\n      dup2\n      eq\n      tag_920\n      jumpi\n        /* \"#utility.yul\":28041:28042   */\n      0x00\n        /* \"#utility.yul\":28058:28064   */\n      dup5\n        /* \"#utility.yul\":28055:28139   */\n      iszero\n      tag_921\n      jumpi\n        /* \"#utility.yul\":28114:28123   */\n      dup3\n        /* \"#utility.yul\":28109:28112   */\n      dup8\n        /* \"#utility.yul\":28105:28124   */\n      add\n        /* \"#utility.yul\":28092:28125   */\n      calldataload\n        /* \"#utility.yul\":28083:28125   */\n      swap1\n      pop\n        /* \"#utility.yul\":28055:28139   */\n    tag_921:\n        /* \"#utility.yul\":28165:28232   */\n      tag_922\n        /* \"#utility.yul\":28225:28231   */\n      dup6\n        /* \"#utility.yul\":28218:28223   */\n      dup3\n        /* \"#utility.yul\":28165:28232   */\n      tag_603\n      jump\t// in\n    tag_922:\n        /* \"#utility.yul\":28159:28163   */\n      dup7\n        /* \"#utility.yul\":28152:28233   */\n      sstore\n        /* \"#utility.yul\":28014:28243   */\n      pop\n        /* \"#utility.yul\":27335:28243   */\n      jump(tag_919)\n        /* \"#utility.yul\":27365:27997   */\n    tag_920:\n        /* \"#utility.yul\":27417:27421   */\n      0x1f\n        /* \"#utility.yul\":27413:27422   */\n      not\n        /* \"#utility.yul\":27405:27411   */\n      dup5\n        /* \"#utility.yul\":27401:27423   */\n      and\n        /* \"#utility.yul\":27451:27488   */\n      tag_923\n        /* \"#utility.yul\":27483:27487   */\n      dup7\n        /* \"#utility.yul\":27451:27488   */\n      tag_590\n      jump\t// in\n    tag_923:\n        /* \"#utility.yul\":27510:27511   */\n      0x00\n        /* \"#utility.yul\":27524:27739   */\n    tag_924:\n        /* \"#utility.yul\":27538:27545   */\n      dup3\n        /* \"#utility.yul\":27535:27536   */\n      dup2\n        /* \"#utility.yul\":27532:27546   */\n      lt\n        /* \"#utility.yul\":27524:27739   */\n      iszero\n      tag_926\n      jumpi\n        /* \"#utility.yul\":27624:27633   */\n      dup5\n        /* \"#utility.yul\":27619:27622   */\n      dup10\n        /* \"#utility.yul\":27615:27634   */\n      add\n        /* \"#utility.yul\":27602:27635   */\n      calldataload\n        /* \"#utility.yul\":27594:27600   */\n      dup3\n        /* \"#utility.yul\":27587:27636   */\n      sstore\n        /* \"#utility.yul\":27675:27676   */\n      0x01\n        /* \"#utility.yul\":27667:27673   */\n      dup3\n        /* \"#utility.yul\":27663:27677   */\n      add\n        /* \"#utility.yul\":27653:27677   */\n      swap2\n      pop\n        /* \"#utility.yul\":27722:27724   */\n      0x20\n        /* \"#utility.yul\":27711:27720   */\n      dup6\n        /* \"#utility.yul\":27707:27725   */\n      add\n        /* \"#utility.yul\":27694:27725   */\n      swap5\n      pop\n        /* \"#utility.yul\":27561:27565   */\n      0x20\n        /* \"#utility.yul\":27558:27559   */\n      dup2\n        /* \"#utility.yul\":27554:27566   */\n      add\n        /* \"#utility.yul\":27549:27566   */\n      swap1\n      pop\n        /* \"#utility.yul\":27524:27739   */\n      jump(tag_924)\n    tag_926:\n        /* \"#utility.yul\":27767:27773   */\n      dup7\n        /* \"#utility.yul\":27758:27765   */\n      dup4\n        /* \"#utility.yul\":27755:27774   */\n      lt\n        /* \"#utility.yul\":27752:27938   */\n      iszero\n      tag_927\n      jumpi\n        /* \"#utility.yul\":27832:27841   */\n      dup5\n        /* \"#utility.yul\":27827:27830   */\n      dup10\n        /* \"#utility.yul\":27823:27842   */\n      add\n        /* \"#utility.yul\":27810:27843   */\n      calldataload\n        /* \"#utility.yul\":27875:27923   */\n      tag_928\n        /* \"#utility.yul\":27917:27921   */\n      0x1f\n        /* \"#utility.yul\":27909:27915   */\n      dup10\n        /* \"#utility.yul\":27905:27922   */\n      and\n        /* \"#utility.yul\":27894:27903   */\n      dup3\n        /* \"#utility.yul\":27875:27923   */\n      tag_602\n      jump\t// in\n    tag_928:\n        /* \"#utility.yul\":27867:27873   */\n      dup4\n        /* \"#utility.yul\":27860:27924   */\n      sstore\n        /* \"#utility.yul\":27775:27938   */\n      pop\n        /* \"#utility.yul\":27752:27938   */\n    tag_927:\n        /* \"#utility.yul\":27984:27985   */\n      0x01\n        /* \"#utility.yul\":27980:27981   */\n      0x02\n        /* \"#utility.yul\":27972:27978   */\n      dup9\n        /* \"#utility.yul\":27968:27982   */\n      mul\n        /* \"#utility.yul\":27964:27986   */\n      add\n        /* \"#utility.yul\":27958:27962   */\n      dup9\n        /* \"#utility.yul\":27951:27987   */\n      sstore\n        /* \"#utility.yul\":27372:27997   */\n      pop\n      pop\n      pop\n        /* \"#utility.yul\":27335:28243   */\n    tag_919:\n      pop\n        /* \"#utility.yul\":26945:28249   */\n      pop\n      pop\n      pop\n        /* \"#utility.yul\":26846:28249   */\n      pop\n      pop\n      pop\n      jump\t// out\n        /* \"#utility.yul\":28255:28499   */\n    tag_604:\n        /* \"#utility.yul\":28395:28429   */\n      0x43616e27742064656c65746520617070726f7665642c77697468647261776e20\n        /* \"#utility.yul\":28391:28392   */\n      0x00\n        /* \"#utility.yul\":28383:28389   */\n      dup3\n        /* \"#utility.yul\":28379:28393   */\n      add\n        /* \"#utility.yul\":28372:28430   */\n      mstore\n        /* \"#utility.yul\":28464:28491   */\n      0x6f722061667465722064756564617465207061796d656e742100000000000000\n        /* \"#utility.yul\":28459:28461   */\n      0x20\n        /* \"#utility.yul\":28451:28457   */\n      dup3\n        /* \"#utility.yul\":28447:28462   */\n      add\n        /* \"#utility.yul\":28440:28492   */\n      mstore\n        /* \"#utility.yul\":28255:28499   */\n      pop\n      jump\t// out\n        /* \"#utility.yul\":28505:28871   */\n    tag_605:\n        /* \"#utility.yul\":28647:28650   */\n      0x00\n        /* \"#utility.yul\":28668:28735   */\n      tag_931\n        /* \"#utility.yul\":28732:28734   */\n      0x39\n        /* \"#utility.yul\":28727:28730   */\n      dup4\n        /* \"#utility.yul\":28668:28735   */\n      tag_555\n      jump\t// in\n    tag_931:\n        /* \"#utility.yul\":28661:28735   */\n      swap2\n      pop\n        /* \"#utility.yul\":28744:28837   */\n      tag_932\n        /* \"#utility.yul\":28833:28836   */\n      dup3\n        /* \"#utility.yul\":28744:28837   */\n      tag_604\n      jump\t// in\n    tag_932:\n        /* \"#utility.yul\":28862:28864   */\n      0x40\n        /* \"#utility.yul\":28857:28860   */\n      dup3\n        /* \"#utility.yul\":28853:28865   */\n      add\n        /* \"#utility.yul\":28846:28865   */\n      swap1\n      pop\n        /* \"#utility.yul\":28505:28871   */\n      swap2\n      swap1\n      pop\n      jump\t// out\n        /* \"#utility.yul\":28877:29296   */\n    tag_234:\n        /* \"#utility.yul\":29043:29047   */\n      0x00\n        /* \"#utility.yul\":29081:29083   */\n      0x20\n        /* \"#utility.yul\":29070:29079   */\n      dup3\n        /* \"#utility.yul\":29066:29084   */\n      add\n        /* \"#utility.yul\":29058:29084   */\n      swap1\n      pop\n        /* \"#utility.yul\":29130:29139   */\n      dup2\n        /* \"#utility.yul\":29124:29128   */\n      dup2\n        /* \"#utility.yul\":29120:29140   */\n      sub\n        /* \"#utility.yul\":29116:29117   */\n      0x00\n        /* \"#utility.yul\":29105:29114   */\n      dup4\n        /* \"#utility.yul\":29101:29118   */\n      add\n        /* \"#utility.yul\":29094:29141   */\n      mstore\n        /* \"#utility.yul\":29158:29289   */\n      tag_934\n        /* \"#utility.yul\":29284:29288   */\n      dup2\n        /* \"#utility.yul\":29158:29289   */\n      tag_605\n      jump\t// in\n    tag_934:\n        /* \"#utility.yul\":29150:29289   */\n      swap1\n      pop\n        /* \"#utility.yul\":28877:29296   */\n      swap2\n      swap1\n      pop\n      jump\t// out\n        /* \"#utility.yul\":29302:29542   */\n    tag_606:\n        /* \"#utility.yul\":29442:29476   */\n      0x5468697320636f6e747261637420646f65736e277420737570706f7274207265\n        /* \"#utility.yul\":29438:29439   */\n      0x00\n        /* \"#utility.yul\":29430:29436   */\n      dup3\n        /* \"#utility.yul\":29426:29440   */\n      add\n        /* \"#utility.yul\":29419:29477   */\n      mstore\n        /* \"#utility.yul\":29511:29534   */\n      0x6e6f756e63696e67206f66206f776e6572736869700000000000000000000000\n        /* \"#utility.yul\":29506:29508   */\n      0x20\n        /* \"#utility.yul\":29498:29504   */\n      dup3\n        /* \"#utility.yul\":29494:29509   */\n      add\n        /* \"#utility.yul\":29487:29535   */\n      mstore\n        /* \"#utility.yul\":29302:29542   */\n      pop\n      jump\t// out\n        /* \"#utility.yul\":29548:29914   */\n    tag_607:\n        /* \"#utility.yul\":29690:29693   */\n      0x00\n        /* \"#utility.yul\":29711:29778   */\n      tag_937\n        /* \"#utility.yul\":29775:29777   */\n      0x35\n        /* \"#utility.yul\":29770:29773   */\n      dup4\n        /* \"#utility.yul\":29711:29778   */\n      tag_555\n      jump\t// in\n    tag_937:\n        /* \"#utility.yul\":29704:29778   */\n      swap2\n      pop\n        /* \"#utility.yul\":29787:29880   */\n      tag_938\n        /* \"#utility.yul\":29876:29879   */\n      dup3\n        /* \"#utility.yul\":29787:29880   */\n      tag_606\n      jump\t// in\n    tag_938:\n        /* \"#utility.yul\":29905:29907   */\n      0x40\n        /* \"#utility.yul\":29900:29903   */\n      dup3\n        /* \"#utility.yul\":29896:29908   */\n      add\n        /* \"#utility.yul\":29889:29908   */\n      swap1\n      pop\n        /* \"#utility.yul\":29548:29914   */\n      swap2\n      swap1\n      pop\n      jump\t// out\n        /* \"#utility.yul\":29920:30339   */\n    tag_260:\n        /* \"#utility.yul\":30086:30090   */\n      0x00\n        /* \"#utility.yul\":30124:30126   */\n      0x20\n        /* \"#utility.yul\":30113:30122   */\n      dup3\n        /* \"#utility.yul\":30109:30127   */\n      add\n        /* \"#utility.yul\":30101:30127   */\n      swap1\n      pop\n        /* \"#utility.yul\":30173:30182   */\n      dup2\n        /* \"#utility.yul\":30167:30171   */\n      dup2\n        /* \"#utility.yul\":30163:30183   */\n      sub\n        /* \"#utility.yul\":30159:30160   */\n      0x00\n        /* \"#utility.yul\":30148:30157   */\n      dup4\n        /* \"#utility.yul\":30144:30161   */\n      add\n        /* \"#utility.yul\":30137:30184   */\n      mstore\n        /* \"#utility.yul\":30201:30332   */\n      tag_940\n        /* \"#utility.yul\":30327:30331   */\n      dup2\n        /* \"#utility.yul\":30201:30332   */\n      tag_607\n      jump\t// in\n    tag_940:\n        /* \"#utility.yul\":30193:30332   */\n      swap1\n      pop\n        /* \"#utility.yul\":29920:30339   */\n      swap2\n      swap1\n      pop\n      jump\t// out\n        /* \"#utility.yul\":30345:30524   */\n    tag_608:\n        /* \"#utility.yul\":30485:30516   */\n      0x4e6f2065786365737320746f6b656e7320746f207472616e7366657221000000\n        /* \"#utility.yul\":30481:30482   */\n      0x00\n        /* \"#utility.yul\":30473:30479   */\n      dup3\n        /* \"#utility.yul\":30469:30483   */\n      add\n        /* \"#utility.yul\":30462:30517   */\n      mstore\n        /* \"#utility.yul\":30345:30524   */\n      pop\n      jump\t// out\n        /* \"#utility.yul\":30530:30896   */\n    tag_609:\n        /* \"#utility.yul\":30672:30675   */\n      0x00\n        /* \"#utility.yul\":30693:30760   */\n      tag_943\n        /* \"#utility.yul\":30757:30759   */\n      0x1d\n        /* \"#utility.yul\":30752:30755   */\n      dup4\n        /* \"#utility.yul\":30693:30760   */\n      tag_555\n      jump\t// in\n    tag_943:\n        /* \"#utility.yul\":30686:30760   */\n      swap2\n      pop\n        /* \"#utility.yul\":30769:30862   */\n      tag_944\n        /* \"#utility.yul\":30858:30861   */\n      dup3\n        /* \"#utility.yul\":30769:30862   */\n      tag_608\n      jump\t// in\n    tag_944:\n        /* \"#utility.yul\":30887:30889   */\n      0x20\n        /* \"#utility.yul\":30882:30885   */\n      dup3\n        /* \"#utility.yul\":30878:30890   */\n      add\n        /* \"#utility.yul\":30871:30890   */\n      swap1\n      pop\n        /* \"#utility.yul\":30530:30896   */\n      swap2\n      swap1\n      pop\n      jump\t// out\n        /* \"#utility.yul\":30902:31321   */\n    tag_277:\n        /* \"#utility.yul\":31068:31072   */\n      0x00\n        /* \"#utility.yul\":31106:31108   */\n      0x20\n        /* \"#utility.yul\":31095:31104   */\n      dup3\n        /* \"#utility.yul\":31091:31109   */\n      add\n        /* \"#utility.yul\":31083:31109   */\n      swap1\n      pop\n        /* \"#utility.yul\":31155:31164   */\n      dup2\n        /* \"#utility.yul\":31149:31153   */\n      dup2\n        /* \"#utility.yul\":31145:31165   */\n      sub\n        /* \"#utility.yul\":31141:31142   */\n      0x00\n        /* \"#utility.yul\":31130:31139   */\n      dup4\n        /* \"#utility.yul\":31126:31143   */\n      add\n        /* \"#utility.yul\":31119:31166   */\n      mstore\n        /* \"#utility.yul\":31183:31314   */\n      tag_946\n        /* \"#utility.yul\":31309:31313   */\n      dup2\n        /* \"#utility.yul\":31183:31314   */\n      tag_609\n      jump\t// in\n    tag_946:\n        /* \"#utility.yul\":31175:31314   */\n      swap1\n      pop\n        /* \"#utility.yul\":30902:31321   */\n      swap2\n      swap1\n      pop\n      jump\t// out\n        /* \"#utility.yul\":31327:31444   */\n    tag_610:\n        /* \"#utility.yul\":31436:31437   */\n      0x00\n        /* \"#utility.yul\":31433:31434   */\n      dup1\n        /* \"#utility.yul\":31426:31438   */\n      revert\n        /* \"#utility.yul\":31450:31731   */\n    tag_611:\n        /* \"#utility.yul\":31533:31560   */\n      tag_949\n        /* \"#utility.yul\":31555:31559   */\n      dup3\n        /* \"#utility.yul\":31533:31560   */\n      tag_557\n      jump\t// in\n    tag_949:\n        /* \"#utility.yul\":31525:31531   */\n      dup2\n        /* \"#utility.yul\":31521:31561   */\n      add\n        /* \"#utility.yul\":31663:31669   */\n      dup2\n        /* \"#utility.yul\":31651:31661   */\n      dup2\n        /* \"#utility.yul\":31648:31670   */\n      lt\n        /* \"#utility.yul\":31627:31645   */\n      0xffffffffffffffff\n        /* \"#utility.yul\":31615:31625   */\n      dup3\n        /* \"#utility.yul\":31612:31646   */\n      gt\n        /* \"#utility.yul\":31609:31671   */\n      or\n        /* \"#utility.yul\":31606:31694   */\n      iszero\n      tag_950\n      jumpi\n        /* \"#utility.yul\":31674:31692   */\n      tag_951\n      tag_588\n      jump\t// in\n    tag_951:\n        /* \"#utility.yul\":31606:31694   */\n    tag_950:\n        /* \"#utility.yul\":31714:31724   */\n      dup1\n        /* \"#utility.yul\":31710:31712   */\n      0x40\n        /* \"#utility.yul\":31703:31725   */\n      mstore\n        /* \"#utility.yul\":31493:31731   */\n      pop\n        /* \"#utility.yul\":31450:31731   */\n      pop\n      pop\n      jump\t// out\n        /* \"#utility.yul\":31737:31866   */\n    tag_612:\n        /* \"#utility.yul\":31771:31777   */\n      0x00\n        /* \"#utility.yul\":31798:31818   */\n      tag_953\n      tag_518\n      jump\t// in\n    tag_953:\n        /* \"#utility.yul\":31788:31818   */\n      swap1\n      pop\n        /* \"#utility.yul\":31827:31860   */\n      tag_954\n        /* \"#utility.yul\":31855:31859   */\n      dup3\n        /* \"#utility.yul\":31847:31853   */\n      dup3\n        /* \"#utility.yul\":31827:31860   */\n      tag_611\n      jump\t// in\n    tag_954:\n        /* \"#utility.yul\":31737:31866   */\n      swap2\n      swap1\n      pop\n      jump\t// out\n        /* \"#utility.yul\":31872:32180   */\n    tag_613:\n        /* \"#utility.yul\":31934:31938   */\n      0x00\n        /* \"#utility.yul\":32024:32042   */\n      0xffffffffffffffff\n        /* \"#utility.yul\":32016:32022   */\n      dup3\n        /* \"#utility.yul\":32013:32043   */\n      gt\n        /* \"#utility.yul\":32010:32066   */\n      iszero\n      tag_956\n      jumpi\n        /* \"#utility.yul\":32046:32064   */\n      tag_957\n      tag_588\n      jump\t// in\n    tag_957:\n        /* \"#utility.yul\":32010:32066   */\n    tag_956:\n        /* \"#utility.yul\":32084:32113   */\n      tag_958\n        /* \"#utility.yul\":32106:32112   */\n      dup3\n        /* \"#utility.yul\":32084:32113   */\n      tag_557\n      jump\t// in\n    tag_958:\n        /* \"#utility.yul\":32076:32113   */\n      swap1\n      pop\n        /* \"#utility.yul\":32168:32172   */\n      0x20\n        /* \"#utility.yul\":32162:32166   */\n      dup2\n        /* \"#utility.yul\":32158:32173   */\n      add\n        /* \"#utility.yul\":32150:32173   */\n      swap1\n      pop\n        /* \"#utility.yul\":31872:32180   */\n      swap2\n      swap1\n      pop\n      jump\t// out\n        /* \"#utility.yul\":32186:32620   */\n    tag_614:\n        /* \"#utility.yul\":32275:32280   */\n      0x00\n        /* \"#utility.yul\":32300:32366   */\n      tag_960\n        /* \"#utility.yul\":32316:32365   */\n      tag_961\n        /* \"#utility.yul\":32358:32364   */\n      dup5\n        /* \"#utility.yul\":32316:32365   */\n      tag_613\n      jump\t// in\n    tag_961:\n        /* \"#utility.yul\":32300:32366   */\n      tag_612\n      jump\t// in\n    tag_960:\n        /* \"#utility.yul\":32291:32366   */\n      swap1\n      pop\n        /* \"#utility.yul\":32389:32395   */\n      dup3\n        /* \"#utility.yul\":32382:32387   */\n      dup2\n        /* \"#utility.yul\":32375:32396   */\n      mstore\n        /* \"#utility.yul\":32427:32431   */\n      0x20\n        /* \"#utility.yul\":32420:32425   */\n      dup2\n        /* \"#utility.yul\":32416:32432   */\n      add\n        /* \"#utility.yul\":32465:32468   */\n      dup5\n        /* \"#utility.yul\":32456:32462   */\n      dup5\n        /* \"#utility.yul\":32451:32454   */\n      dup5\n        /* \"#utility.yul\":32447:32463   */\n      add\n        /* \"#utility.yul\":32444:32469   */\n      gt\n        /* \"#utility.yul\":32441:32553   */\n      iszero\n      tag_962\n      jumpi\n        /* \"#utility.yul\":32472:32551   */\n      tag_963\n      tag_610\n      jump\t// in\n    tag_963:\n        /* \"#utility.yul\":32441:32553   */\n    tag_962:\n        /* \"#utility.yul\":32562:32614   */\n      tag_964\n        /* \"#utility.yul\":32607:32613   */\n      dup5\n        /* \"#utility.yul\":32602:32605   */\n      dup3\n        /* \"#utility.yul\":32597:32600   */\n      dup6\n        /* \"#utility.yul\":32562:32614   */\n      tag_556\n      jump\t// in\n    tag_964:\n        /* \"#utility.yul\":32281:32620   */\n      pop\n        /* \"#utility.yul\":32186:32620   */\n      swap4\n      swap3\n      pop\n      pop\n      pop\n      jump\t// out\n        /* \"#utility.yul\":32640:32995   */\n    tag_615:\n        /* \"#utility.yul\":32707:32712   */\n      0x00\n        /* \"#utility.yul\":32756:32759   */\n      dup3\n        /* \"#utility.yul\":32749:32753   */\n      0x1f\n        /* \"#utility.yul\":32741:32747   */\n      dup4\n        /* \"#utility.yul\":32737:32754   */\n      add\n        /* \"#utility.yul\":32733:32760   */\n      slt\n        /* \"#utility.yul\":32723:32845   */\n      tag_966\n      jumpi\n        /* \"#utility.yul\":32764:32843   */\n      tag_967\n      tag_530\n      jump\t// in\n    tag_967:\n        /* \"#utility.yul\":32723:32845   */\n    tag_966:\n        /* \"#utility.yul\":32874:32880   */\n      dup2\n        /* \"#utility.yul\":32868:32881   */\n      mload\n        /* \"#utility.yul\":32899:32989   */\n      tag_968\n        /* \"#utility.yul\":32985:32988   */\n      dup5\n        /* \"#utility.yul\":32977:32983   */\n      dup3\n        /* \"#utility.yul\":32970:32974   */\n      0x20\n        /* \"#utility.yul\":32962:32968   */\n      dup7\n        /* \"#utility.yul\":32958:32975   */\n      add\n        /* \"#utility.yul\":32899:32989   */\n      tag_614\n      jump\t// in\n    tag_968:\n        /* \"#utility.yul\":32890:32989   */\n      swap2\n      pop\n        /* \"#utility.yul\":32713:32995   */\n      pop\n        /* \"#utility.yul\":32640:32995   */\n      swap3\n      swap2\n      pop\n      pop\n      jump\t// out\n        /* \"#utility.yul\":33001:33525   */\n    tag_285:\n        /* \"#utility.yul\":33081:33087   */\n      0x00\n        /* \"#utility.yul\":33130:33132   */\n      0x20\n        /* \"#utility.yul\":33118:33127   */\n      dup3\n        /* \"#utility.yul\":33109:33116   */\n      dup5\n        /* \"#utility.yul\":33105:33128   */\n      sub\n        /* \"#utility.yul\":33101:33133   */\n      slt\n        /* \"#utility.yul\":33098:33217   */\n      iszero\n      tag_970\n      jumpi\n        /* \"#utility.yul\":33136:33215   */\n      tag_971\n      tag_519\n      jump\t// in\n    tag_971:\n        /* \"#utility.yul\":33098:33217   */\n    tag_970:\n        /* \"#utility.yul\":33277:33278   */\n      0x00\n        /* \"#utility.yul\":33266:33275   */\n      dup3\n        /* \"#utility.yul\":33262:33279   */\n      add\n        /* \"#utility.yul\":33256:33280   */\n      mload\n        /* \"#utility.yul\":33307:33325   */\n      0xffffffffffffffff\n        /* \"#utility.yul\":33299:33305   */\n      dup2\n        /* \"#utility.yul\":33296:33326   */\n      gt\n        /* \"#utility.yul\":33293:33410   */\n      iszero\n      tag_972\n      jumpi\n        /* \"#utility.yul\":33329:33408   */\n      tag_973\n      tag_520\n      jump\t// in\n    tag_973:\n        /* \"#utility.yul\":33293:33410   */\n    tag_972:\n        /* \"#utility.yul\":33434:33508   */\n      tag_974\n        /* \"#utility.yul\":33500:33507   */\n      dup5\n        /* \"#utility.yul\":33491:33497   */\n      dup3\n        /* \"#utility.yul\":33480:33489   */\n      dup6\n        /* \"#utility.yul\":33476:33498   */\n      add\n        /* \"#utility.yul\":33434:33508   */\n      tag_615\n      jump\t// in\n    tag_974:\n        /* \"#utility.yul\":33424:33508   */\n      swap2\n      pop\n        /* \"#utility.yul\":33227:33518   */\n      pop\n        /* \"#utility.yul\":33001:33525   */\n      swap3\n      swap2\n      pop\n      pop\n      jump\t// out\n        /* \"#utility.yul\":33531:33722   */\n    tag_300:\n        /* \"#utility.yul\":33571:33574   */\n      0x00\n        /* \"#utility.yul\":33590:33610   */\n      tag_976\n        /* \"#utility.yul\":33608:33609   */\n      dup3\n        /* \"#utility.yul\":33590:33610   */\n      tag_526\n      jump\t// in\n    tag_976:\n        /* \"#utility.yul\":33585:33610   */\n      swap2\n      pop\n        /* \"#utility.yul\":33624:33644   */\n      tag_977\n        /* \"#utility.yul\":33642:33643   */\n      dup4\n        /* \"#utility.yul\":33624:33644   */\n      tag_526\n      jump\t// in\n    tag_977:\n        /* \"#utility.yul\":33619:33644   */\n      swap3\n      pop\n        /* \"#utility.yul\":33667:33668   */\n      dup3\n        /* \"#utility.yul\":33664:33665   */\n      dup3\n        /* \"#utility.yul\":33660:33669   */\n      add\n        /* \"#utility.yul\":33653:33669   */\n      swap1\n      pop\n        /* \"#utility.yul\":33688:33691   */\n      dup1\n        /* \"#utility.yul\":33685:33686   */\n      dup3\n        /* \"#utility.yul\":33682:33692   */\n      gt\n        /* \"#utility.yul\":33679:33715   */\n      iszero\n      tag_978\n      jumpi\n        /* \"#utility.yul\":33695:33713   */\n      tag_979\n      tag_581\n      jump\t// in\n    tag_979:\n        /* \"#utility.yul\":33679:33715   */\n    tag_978:\n        /* \"#utility.yul\":33531:33722   */\n      swap3\n      swap2\n      pop\n      pop\n      jump\t// out\n        /* \"#utility.yul\":33728:33960   */\n    tag_616:\n        /* \"#utility.yul\":33868:33902   */\n      0x496e73756666696369656e742062616c616e6365212043616e27742061646420\n        /* \"#utility.yul\":33864:33865   */\n      0x00\n        /* \"#utility.yul\":33856:33862   */\n      dup3\n        /* \"#utility.yul\":33852:33866   */\n      add\n        /* \"#utility.yul\":33845:33903   */\n      mstore\n        /* \"#utility.yul\":33937:33952   */\n      0x6e6577207061796d656e74732100000000000000000000000000000000000000\n        /* \"#utility.yul\":33932:33934   */\n      0x20\n        /* \"#utility.yul\":33924:33930   */\n      dup3\n        /* \"#utility.yul\":33920:33935   */\n      add\n        /* \"#utility.yul\":33913:33953   */\n      mstore\n        /* \"#utility.yul\":33728:33960   */\n      pop\n      jump\t// out\n        /* \"#utility.yul\":33966:34332   */\n    tag_617:\n        /* \"#utility.yul\":34108:34111   */\n      0x00\n        /* \"#utility.yul\":34129:34196   */\n      tag_982\n        /* \"#utility.yul\":34193:34195   */\n      0x2d\n        /* \"#utility.yul\":34188:34191   */\n      dup4\n        /* \"#utility.yul\":34129:34196   */\n      tag_555\n      jump\t// in\n    tag_982:\n        /* \"#utility.yul\":34122:34196   */\n      swap2\n      pop\n        /* \"#utility.yul\":34205:34298   */\n      tag_983\n        /* \"#utility.yul\":34294:34297   */\n      dup3\n        /* \"#utility.yul\":34205:34298   */\n      tag_616\n      jump\t// in\n    tag_983:\n        /* \"#utility.yul\":34323:34325   */\n      0x40\n        /* \"#utility.yul\":34318:34321   */\n      dup3\n        /* \"#utility.yul\":34314:34326   */\n      add\n        /* \"#utility.yul\":34307:34326   */\n      swap1\n      pop\n        /* \"#utility.yul\":33966:34332   */\n      swap2\n      swap1\n      pop\n      jump\t// out\n        /* \"#utility.yul\":34338:34757   */\n    tag_303:\n        /* \"#utility.yul\":34504:34508   */\n      0x00\n        /* \"#utility.yul\":34542:34544   */\n      0x20\n        /* \"#utility.yul\":34531:34540   */\n      dup3\n        /* \"#utility.yul\":34527:34545   */\n      add\n        /* \"#utility.yul\":34519:34545   */\n      swap1\n      pop\n        /* \"#utility.yul\":34591:34600   */\n      dup2\n        /* \"#utility.yul\":34585:34589   */\n      dup2\n        /* \"#utility.yul\":34581:34601   */\n      sub\n        /* \"#utility.yul\":34577:34578   */\n      0x00\n        /* \"#utility.yul\":34566:34575   */\n      dup4\n        /* \"#utility.yul\":34562:34579   */\n      add\n        /* \"#utility.yul\":34555:34602   */\n      mstore\n        /* \"#utility.yul\":34619:34750   */\n      tag_985\n        /* \"#utility.yul\":34745:34749   */\n      dup2\n        /* \"#utility.yul\":34619:34750   */\n      tag_617\n      jump\t// in\n    tag_985:\n        /* \"#utility.yul\":34611:34750   */\n      swap1\n      pop\n        /* \"#utility.yul\":34338:34757   */\n      swap2\n      swap1\n      pop\n      jump\t// out\n        /* \"#utility.yul\":34763:35009   */\n    tag_618:\n        /* \"#utility.yul\":34903:34937   */\n      0x4675747572652072656c6561736520646174652063616e277420626520736d61\n        /* \"#utility.yul\":34899:34900   */\n      0x00\n        /* \"#utility.yul\":34891:34897   */\n      dup3\n        /* \"#utility.yul\":34887:34901   */\n      add\n        /* \"#utility.yul\":34880:34938   */\n      mstore\n        /* \"#utility.yul\":34972:35001   */\n      0x6c6c6572207468616e20746865206c61737420656e7465726564210000000000\n        /* \"#utility.yul\":34967:34969   */\n      0x20\n        /* \"#utility.yul\":34959:34965   */\n      dup3\n        /* \"#utility.yul\":34955:34970   */\n      add\n        /* \"#utility.yul\":34948:35002   */\n      mstore\n        /* \"#utility.yul\":34763:35009   */\n      pop\n      jump\t// out\n        /* \"#utility.yul\":35015:35381   */\n    tag_619:\n        /* \"#utility.yul\":35157:35160   */\n      0x00\n        /* \"#utility.yul\":35178:35245   */\n      tag_988\n        /* \"#utility.yul\":35242:35244   */\n      0x3b\n        /* \"#utility.yul\":35237:35240   */\n      dup4\n        /* \"#utility.yul\":35178:35245   */\n      tag_555\n      jump\t// in\n    tag_988:\n        /* \"#utility.yul\":35171:35245   */\n      swap2\n      pop\n        /* \"#utility.yul\":35254:35347   */\n      tag_989\n        /* \"#utility.yul\":35343:35346   */\n      dup3\n        /* \"#utility.yul\":35254:35347   */\n      tag_618\n      jump\t// in\n    tag_989:\n        /* \"#utility.yul\":35372:35374   */\n      0x40\n        /* \"#utility.yul\":35367:35370   */\n      dup3\n        /* \"#utility.yul\":35363:35375   */\n      add\n        /* \"#utility.yul\":35356:35375   */\n      swap1\n      pop\n        /* \"#utility.yul\":35015:35381   */\n      swap2\n      swap1\n      pop\n      jump\t// out\n        /* \"#utility.yul\":35387:35806   */\n    tag_313:\n        /* \"#utility.yul\":35553:35557   */\n      0x00\n        /* \"#utility.yul\":35591:35593   */\n      0x20\n        /* \"#utility.yul\":35580:35589   */\n      dup3\n        /* \"#utility.yul\":35576:35594   */\n      add\n        /* \"#utility.yul\":35568:35594   */\n      swap1\n      pop\n        /* \"#utility.yul\":35640:35649   */\n      dup2\n        /* \"#utility.yul\":35634:35638   */\n      dup2\n        /* \"#utility.yul\":35630:35650   */\n      sub\n        /* \"#utility.yul\":35626:35627   */\n      0x00\n        /* \"#utility.yul\":35615:35624   */\n      dup4\n        /* \"#utility.yul\":35611:35628   */\n      add\n        /* \"#utility.yul\":35604:35651   */\n      mstore\n        /* \"#utility.yul\":35668:35799   */\n      tag_991\n        /* \"#utility.yul\":35794:35798   */\n      dup2\n        /* \"#utility.yul\":35668:35799   */\n      tag_619\n      jump\t// in\n    tag_991:\n        /* \"#utility.yul\":35660:35799   */\n      swap1\n      pop\n        /* \"#utility.yul\":35387:35806   */\n      swap2\n      swap1\n      pop\n      jump\t// out\n        /* \"#utility.yul\":35812:36053   */\n    tag_620:\n        /* \"#utility.yul\":35952:35986   */\n      0x52656c6561736520646174652063616e277420626520657175616c206f72206c\n        /* \"#utility.yul\":35948:35949   */\n      0x00\n        /* \"#utility.yul\":35940:35946   */\n      dup3\n        /* \"#utility.yul\":35936:35950   */\n      add\n        /* \"#utility.yul\":35929:35987   */\n      mstore\n        /* \"#utility.yul\":36021:36045   */\n      0x657373207468616e2063757272656e7420646174652100000000000000000000\n        /* \"#utility.yul\":36016:36018   */\n      0x20\n        /* \"#utility.yul\":36008:36014   */\n      dup3\n        /* \"#utility.yul\":36004:36019   */\n      add\n        /* \"#utility.yul\":35997:36046   */\n      mstore\n        /* \"#utility.yul\":35812:36053   */\n      pop\n      jump\t// out\n        /* \"#utility.yul\":36059:36425   */\n    tag_621:\n        /* \"#utility.yul\":36201:36204   */\n      0x00\n        /* \"#utility.yul\":36222:36289   */\n      tag_994\n        /* \"#utility.yul\":36286:36288   */\n      0x36\n        /* \"#utility.yul\":36281:36284   */\n      dup4\n        /* \"#utility.yul\":36222:36289   */\n      tag_555\n      jump\t// in\n    tag_994:\n        /* \"#utility.yul\":36215:36289   */\n      swap2\n      pop\n        /* \"#utility.yul\":36298:36391   */\n      tag_995\n        /* \"#utility.yul\":36387:36390   */\n      dup3\n        /* \"#utility.yul\":36298:36391   */\n      tag_620\n      jump\t// in\n    tag_995:\n        /* \"#utility.yul\":36416:36418   */\n      0x40\n        /* \"#utility.yul\":36411:36414   */\n      dup3\n        /* \"#utility.yul\":36407:36419   */\n      add\n        /* \"#utility.yul\":36400:36419   */\n      swap1\n      pop\n        /* \"#utility.yul\":36059:36425   */\n      swap2\n      swap1\n      pop\n      jump\t// out\n        /* \"#utility.yul\":36431:36850   */\n    tag_317:\n        /* \"#utility.yul\":36597:36601   */\n      0x00\n        /* \"#utility.yul\":36635:36637   */\n      0x20\n        /* \"#utility.yul\":36624:36633   */\n      dup3\n        /* \"#utility.yul\":36620:36638   */\n      add\n        /* \"#utility.yul\":36612:36638   */\n      swap1\n      pop\n        /* \"#utility.yul\":36684:36693   */\n      dup2\n        /* \"#utility.yul\":36678:36682   */\n      dup2\n        /* \"#utility.yul\":36674:36694   */\n      sub\n        /* \"#utility.yul\":36670:36671   */\n      0x00\n        /* \"#utility.yul\":36659:36668   */\n      dup4\n        /* \"#utility.yul\":36655:36672   */\n      add\n        /* \"#utility.yul\":36648:36695   */\n      mstore\n        /* \"#utility.yul\":36712:36843   */\n      tag_997\n        /* \"#utility.yul\":36838:36842   */\n      dup2\n        /* \"#utility.yul\":36712:36843   */\n      tag_621\n      jump\t// in\n    tag_997:\n        /* \"#utility.yul\":36704:36843   */\n      swap1\n      pop\n        /* \"#utility.yul\":36431:36850   */\n      swap2\n      swap1\n      pop\n      jump\t// out\n        /* \"#utility.yul\":36856:37087   */\n    tag_622:\n        /* \"#utility.yul\":36996:37030   */\n      0x42656e656669636961727920646f6573206e6f7420686176652063616e63656c\n        /* \"#utility.yul\":36992:36993   */\n      0x00\n        /* \"#utility.yul\":36984:36990   */\n      dup3\n        /* \"#utility.yul\":36980:36994   */\n      add\n        /* \"#utility.yul\":36973:37031   */\n      mstore\n        /* \"#utility.yul\":37065:37079   */\n      0x6564207061796d656e7473210000000000000000000000000000000000000000\n        /* \"#utility.yul\":37060:37062   */\n      0x20\n        /* \"#utility.yul\":37052:37058   */\n      dup3\n        /* \"#utility.yul\":37048:37063   */\n      add\n        /* \"#utility.yul\":37041:37080   */\n      mstore\n        /* \"#utility.yul\":36856:37087   */\n      pop\n      jump\t// out\n        /* \"#utility.yul\":37093:37459   */\n    tag_623:\n        /* \"#utility.yul\":37235:37238   */\n      0x00\n        /* \"#utility.yul\":37256:37323   */\n      tag_1000\n        /* \"#utility.yul\":37320:37322   */\n      0x2c\n        /* \"#utility.yul\":37315:37318   */\n      dup4\n        /* \"#utility.yul\":37256:37323   */\n      tag_555\n      jump\t// in\n    tag_1000:\n        /* \"#utility.yul\":37249:37323   */\n      swap2\n      pop\n        /* \"#utility.yul\":37332:37425   */\n      tag_1001\n        /* \"#utility.yul\":37421:37424   */\n      dup3\n        /* \"#utility.yul\":37332:37425   */\n      tag_622\n      jump\t// in\n    tag_1001:\n        /* \"#utility.yul\":37450:37452   */\n      0x40\n        /* \"#utility.yul\":37445:37448   */\n      dup3\n        /* \"#utility.yul\":37441:37453   */\n      add\n        /* \"#utility.yul\":37434:37453   */\n      swap1\n      pop\n        /* \"#utility.yul\":37093:37459   */\n      swap2\n      swap1\n      pop\n      jump\t// out\n        /* \"#utility.yul\":37465:37884   */\n    tag_355:\n        /* \"#utility.yul\":37631:37635   */\n      0x00\n        /* \"#utility.yul\":37669:37671   */\n      0x20\n        /* \"#utility.yul\":37658:37667   */\n      dup3\n        /* \"#utility.yul\":37654:37672   */\n      add\n        /* \"#utility.yul\":37646:37672   */\n      swap1\n      pop\n        /* \"#utility.yul\":37718:37727   */\n      dup2\n        /* \"#utility.yul\":37712:37716   */\n      dup2\n        /* \"#utility.yul\":37708:37728   */\n      sub\n        /* \"#utility.yul\":37704:37705   */\n      0x00\n        /* \"#utility.yul\":37693:37702   */\n      dup4\n        /* \"#utility.yul\":37689:37706   */\n      add\n        /* \"#utility.yul\":37682:37729   */\n      mstore\n        /* \"#utility.yul\":37746:37877   */\n      tag_1003\n        /* \"#utility.yul\":37872:37876   */\n      dup2\n        /* \"#utility.yul\":37746:37877   */\n      tag_623\n      jump\t// in\n    tag_1003:\n        /* \"#utility.yul\":37738:37877   */\n      swap1\n      pop\n        /* \"#utility.yul\":37465:37884   */\n      swap2\n      swap1\n      pop\n      jump\t// out\n        /* \"#utility.yul\":37890:38033   */\n    tag_624:\n        /* \"#utility.yul\":37947:37952   */\n      0x00\n        /* \"#utility.yul\":37978:37984   */\n      dup2\n        /* \"#utility.yul\":37972:37985   */\n      mload\n        /* \"#utility.yul\":37963:37985   */\n      swap1\n      pop\n        /* \"#utility.yul\":37994:38027   */\n      tag_1005\n        /* \"#utility.yul\":38021:38026   */\n      dup2\n        /* \"#utility.yul\":37994:38027   */\n      tag_528\n      jump\t// in\n    tag_1005:\n        /* \"#utility.yul\":37890:38033   */\n      swap3\n      swap2\n      pop\n      pop\n      jump\t// out\n        /* \"#utility.yul\":38039:38390   */\n    tag_377:\n        /* \"#utility.yul\":38109:38115   */\n      0x00\n        /* \"#utility.yul\":38158:38160   */\n      0x20\n        /* \"#utility.yul\":38146:38155   */\n      dup3\n        /* \"#utility.yul\":38137:38144   */\n      dup5\n        /* \"#utility.yul\":38133:38156   */\n      sub\n        /* \"#utility.yul\":38129:38161   */\n      slt\n        /* \"#utility.yul\":38126:38245   */\n      iszero\n      tag_1007\n      jumpi\n        /* \"#utility.yul\":38164:38243   */\n      tag_1008\n      tag_519\n      jump\t// in\n    tag_1008:\n        /* \"#utility.yul\":38126:38245   */\n    tag_1007:\n        /* \"#utility.yul\":38284:38285   */\n      0x00\n        /* \"#utility.yul\":38309:38373   */\n      tag_1009\n        /* \"#utility.yul\":38365:38372   */\n      dup5\n        /* \"#utility.yul\":38356:38362   */\n      dup3\n        /* \"#utility.yul\":38345:38354   */\n      dup6\n        /* \"#utility.yul\":38341:38363   */\n      add\n        /* \"#utility.yul\":38309:38373   */\n      tag_624\n      jump\t// in\n    tag_1009:\n        /* \"#utility.yul\":38299:38373   */\n      swap2\n      pop\n        /* \"#utility.yul\":38255:38383   */\n      pop\n        /* \"#utility.yul\":38039:38390   */\n      swap3\n      swap2\n      pop\n      pop\n      jump\t// out\n        /* \"#utility.yul\":38396:38621   */\n    tag_625:\n        /* \"#utility.yul\":38536:38570   */\n      0x4f776e61626c653a206e6577206f776e657220697320746865207a65726f2061\n        /* \"#utility.yul\":38532:38533   */\n      0x00\n        /* \"#utility.yul\":38524:38530   */\n      dup3\n        /* \"#utility.yul\":38520:38534   */\n      add\n        /* \"#utility.yul\":38513:38571   */\n      mstore\n        /* \"#utility.yul\":38605:38613   */\n      0x6464726573730000000000000000000000000000000000000000000000000000\n        /* \"#utility.yul\":38600:38602   */\n      0x20\n        /* \"#utility.yul\":38592:38598   */\n      dup3\n        /* \"#utility.yul\":38588:38603   */\n      add\n        /* \"#utility.yul\":38581:38614   */\n      mstore\n        /* \"#utility.yul\":38396:38621   */\n      pop\n      jump\t// out\n        /* \"#utility.yul\":38627:38993   */\n    tag_626:\n        /* \"#utility.yul\":38769:38772   */\n      0x00\n        /* \"#utility.yul\":38790:38857   */\n      tag_1012\n        /* \"#utility.yul\":38854:38856   */\n      0x26\n        /* \"#utility.yul\":38849:38852   */\n      dup4\n        /* \"#utility.yul\":38790:38857   */\n      tag_555\n      jump\t// in\n    tag_1012:\n        /* \"#utility.yul\":38783:38857   */\n      swap2\n      pop\n        /* \"#utility.yul\":38866:38959   */\n      tag_1013\n        /* \"#utility.yul\":38955:38958   */\n      dup3\n        /* \"#utility.yul\":38866:38959   */\n      tag_625\n      jump\t// in\n    tag_1013:\n        /* \"#utility.yul\":38984:38986   */\n      0x40\n        /* \"#utility.yul\":38979:38982   */\n      dup3\n        /* \"#utility.yul\":38975:38987   */\n      add\n        /* \"#utility.yul\":38968:38987   */\n      swap1\n      pop\n        /* \"#utility.yul\":38627:38993   */\n      swap2\n      swap1\n      pop\n      jump\t// out\n        /* \"#utility.yul\":38999:39418   */\n    tag_384:\n        /* \"#utility.yul\":39165:39169   */\n      0x00\n        /* \"#utility.yul\":39203:39205   */\n      0x20\n        /* \"#utility.yul\":39192:39201   */\n      dup3\n        /* \"#utility.yul\":39188:39206   */\n      add\n        /* \"#utility.yul\":39180:39206   */\n      swap1\n      pop\n        /* \"#utility.yul\":39252:39261   */\n      dup2\n        /* \"#utility.yul\":39246:39250   */\n      dup2\n        /* \"#utility.yul\":39242:39262   */\n      sub\n        /* \"#utility.yul\":39238:39239   */\n      0x00\n        /* \"#utility.yul\":39227:39236   */\n      dup4\n        /* \"#utility.yul\":39223:39240   */\n      add\n        /* \"#utility.yul\":39216:39263   */\n      mstore\n        /* \"#utility.yul\":39280:39411   */\n      tag_1015\n        /* \"#utility.yul\":39406:39410   */\n      dup2\n        /* \"#utility.yul\":39280:39411   */\n      tag_626\n      jump\t// in\n    tag_1015:\n        /* \"#utility.yul\":39272:39411   */\n      swap1\n      pop\n        /* \"#utility.yul\":38999:39418   */\n      swap2\n      swap1\n      pop\n      jump\t// out\n        /* \"#utility.yul\":39424:39720   */\n    tag_627:\n        /* \"#utility.yul\":39564:39598   */\n      0x4461746120666f72206e6f7420636f7272656374212e20436f756e74206f6620\n        /* \"#utility.yul\":39560:39561   */\n      0x00\n        /* \"#utility.yul\":39552:39558   */\n      dup3\n        /* \"#utility.yul\":39548:39562   */\n      add\n        /* \"#utility.yul\":39541:39599   */\n      mstore\n        /* \"#utility.yul\":39633:39667   */\n      0x72656c6561736520646174657320616e6420616d6f756e7473206d7573742062\n        /* \"#utility.yul\":39628:39630   */\n      0x20\n        /* \"#utility.yul\":39620:39626   */\n      dup3\n        /* \"#utility.yul\":39616:39631   */\n      add\n        /* \"#utility.yul\":39609:39668   */\n      mstore\n        /* \"#utility.yul\":39702:39712   */\n      0x6520657175616c21000000000000000000000000000000000000000000000000\n        /* \"#utility.yul\":39697:39699   */\n      0x40\n        /* \"#utility.yul\":39689:39695   */\n      dup3\n        /* \"#utility.yul\":39685:39700   */\n      add\n        /* \"#utility.yul\":39678:39713   */\n      mstore\n        /* \"#utility.yul\":39424:39720   */\n      pop\n      jump\t// out\n        /* \"#utility.yul\":39726:40092   */\n    tag_628:\n        /* \"#utility.yul\":39868:39871   */\n      0x00\n        /* \"#utility.yul\":39889:39956   */\n      tag_1018\n        /* \"#utility.yul\":39953:39955   */\n      0x48\n        /* \"#utility.yul\":39948:39951   */\n      dup4\n        /* \"#utility.yul\":39889:39956   */\n      tag_555\n      jump\t// in\n    tag_1018:\n        /* \"#utility.yul\":39882:39956   */\n      swap2\n      pop\n        /* \"#utility.yul\":39965:40058   */\n      tag_1019\n        /* \"#utility.yul\":40054:40057   */\n      dup3\n        /* \"#utility.yul\":39965:40058   */\n      tag_627\n      jump\t// in\n    tag_1019:\n        /* \"#utility.yul\":40083:40085   */\n      0x60\n        /* \"#utility.yul\":40078:40081   */\n      dup3\n        /* \"#utility.yul\":40074:40086   */\n      add\n        /* \"#utility.yul\":40067:40086   */\n      swap1\n      pop\n        /* \"#utility.yul\":39726:40092   */\n      swap2\n      swap1\n      pop\n      jump\t// out\n        /* \"#utility.yul\":40098:40517   */\n    tag_393:\n        /* \"#utility.yul\":40264:40268   */\n      0x00\n        /* \"#utility.yul\":40302:40304   */\n      0x20\n        /* \"#utility.yul\":40291:40300   */\n      dup3\n        /* \"#utility.yul\":40287:40305   */\n      add\n        /* \"#utility.yul\":40279:40305   */\n      swap1\n      pop\n        /* \"#utility.yul\":40351:40360   */\n      dup2\n        /* \"#utility.yul\":40345:40349   */\n      dup2\n        /* \"#utility.yul\":40341:40361   */\n      sub\n        /* \"#utility.yul\":40337:40338   */\n      0x00\n        /* \"#utility.yul\":40326:40335   */\n      dup4\n        /* \"#utility.yul\":40322:40339   */\n      add\n        /* \"#utility.yul\":40315:40362   */\n      mstore\n        /* \"#utility.yul\":40379:40510   */\n      tag_1021\n        /* \"#utility.yul\":40505:40509   */\n      dup2\n        /* \"#utility.yul\":40379:40510   */\n      tag_628\n      jump\t// in\n    tag_1021:\n        /* \"#utility.yul\":40371:40510   */\n      swap1\n      pop\n        /* \"#utility.yul\":40098:40517   */\n      swap2\n      swap1\n      pop\n      jump\t// out\n        /* \"#utility.yul\":40523:40702   */\n    tag_629:\n        /* \"#utility.yul\":40663:40694   */\n      0x42656e656669636961727920616c7265616479206578697374696e6721000000\n        /* \"#utility.yul\":40659:40660   */\n      0x00\n        /* \"#utility.yul\":40651:40657   */\n      dup3\n        /* \"#utility.yul\":40647:40661   */\n      add\n        /* \"#utility.yul\":40640:40695   */\n      mstore\n        /* \"#utility.yul\":40523:40702   */\n      pop\n      jump\t// out\n        /* \"#utility.yul\":40708:41074   */\n    tag_630:\n        /* \"#utility.yul\":40850:40853   */\n      0x00\n        /* \"#utility.yul\":40871:40938   */\n      tag_1024\n        /* \"#utility.yul\":40935:40937   */\n      0x1d\n        /* \"#utility.yul\":40930:40933   */\n      dup4\n        /* \"#utility.yul\":40871:40938   */\n      tag_555\n      jump\t// in\n    tag_1024:\n        /* \"#utility.yul\":40864:40938   */\n      swap2\n      pop\n        /* \"#utility.yul\":40947:41040   */\n      tag_1025\n        /* \"#utility.yul\":41036:41039   */\n      dup3\n        /* \"#utility.yul\":40947:41040   */\n      tag_629\n      jump\t// in\n    tag_1025:\n        /* \"#utility.yul\":41065:41067   */\n      0x20\n        /* \"#utility.yul\":41060:41063   */\n      dup3\n        /* \"#utility.yul\":41056:41068   */\n      add\n        /* \"#utility.yul\":41049:41068   */\n      swap1\n      pop\n        /* \"#utility.yul\":40708:41074   */\n      swap2\n      swap1\n      pop\n      jump\t// out\n        /* \"#utility.yul\":41080:41499   */\n    tag_396:\n        /* \"#utility.yul\":41246:41250   */\n      0x00\n        /* \"#utility.yul\":41284:41286   */\n      0x20\n        /* \"#utility.yul\":41273:41282   */\n      dup3\n        /* \"#utility.yul\":41269:41287   */\n      add\n        /* \"#utility.yul\":41261:41287   */\n      swap1\n      pop\n        /* \"#utility.yul\":41333:41342   */\n      dup2\n        /* \"#utility.yul\":41327:41331   */\n      dup2\n        /* \"#utility.yul\":41323:41343   */\n      sub\n        /* \"#utility.yul\":41319:41320   */\n      0x00\n        /* \"#utility.yul\":41308:41317   */\n      dup4\n        /* \"#utility.yul\":41304:41321   */\n      add\n        /* \"#utility.yul\":41297:41344   */\n      mstore\n        /* \"#utility.yul\":41361:41492   */\n      tag_1027\n        /* \"#utility.yul\":41487:41491   */\n      dup2\n        /* \"#utility.yul\":41361:41492   */\n      tag_630\n      jump\t// in\n    tag_1027:\n        /* \"#utility.yul\":41353:41492   */\n      swap1\n      pop\n        /* \"#utility.yul\":41080:41499   */\n      swap2\n      swap1\n      pop\n      jump\t// out\n        /* \"#utility.yul\":41505:41742   */\n    tag_631:\n        /* \"#utility.yul\":41645:41679   */\n      0x496e73756666696369656e742062616c616e6365212043616e27742061646420\n        /* \"#utility.yul\":41641:41642   */\n      0x00\n        /* \"#utility.yul\":41633:41639   */\n      dup3\n        /* \"#utility.yul\":41629:41643   */\n      add\n        /* \"#utility.yul\":41622:41680   */\n      mstore\n        /* \"#utility.yul\":41714:41734   */\n      0x6e65772062656e65666963696172696573210000000000000000000000000000\n        /* \"#utility.yul\":41709:41711   */\n      0x20\n        /* \"#utility.yul\":41701:41707   */\n      dup3\n        /* \"#utility.yul\":41697:41712   */\n      add\n        /* \"#utility.yul\":41690:41735   */\n      mstore\n        /* \"#utility.yul\":41505:41742   */\n      pop\n      jump\t// out\n        /* \"#utility.yul\":41748:42114   */\n    tag_632:\n        /* \"#utility.yul\":41890:41893   */\n      0x00\n        /* \"#utility.yul\":41911:41978   */\n      tag_1030\n        /* \"#utility.yul\":41975:41977   */\n      0x32\n        /* \"#utility.yul\":41970:41973   */\n      dup4\n        /* \"#utility.yul\":41911:41978   */\n      tag_555\n      jump\t// in\n    tag_1030:\n        /* \"#utility.yul\":41904:41978   */\n      swap2\n      pop\n        /* \"#utility.yul\":41987:42080   */\n      tag_1031\n        /* \"#utility.yul\":42076:42079   */\n      dup3\n        /* \"#utility.yul\":41987:42080   */\n      tag_631\n      jump\t// in\n    tag_1031:\n        /* \"#utility.yul\":42105:42107   */\n      0x40\n        /* \"#utility.yul\":42100:42103   */\n      dup3\n        /* \"#utility.yul\":42096:42108   */\n      add\n        /* \"#utility.yul\":42089:42108   */\n      swap1\n      pop\n        /* \"#utility.yul\":41748:42114   */\n      swap2\n      swap1\n      pop\n      jump\t// out\n        /* \"#utility.yul\":42120:42539   */\n    tag_411:\n        /* \"#utility.yul\":42286:42290   */\n      0x00\n        /* \"#utility.yul\":42324:42326   */\n      0x20\n        /* \"#utility.yul\":42313:42322   */\n      dup3\n        /* \"#utility.yul\":42309:42327   */\n      add\n        /* \"#utility.yul\":42301:42327   */\n      swap1\n      pop\n        /* \"#utility.yul\":42373:42382   */\n      dup2\n        /* \"#utility.yul\":42367:42371   */\n      dup2\n        /* \"#utility.yul\":42363:42383   */\n      sub\n        /* \"#utility.yul\":42359:42360   */\n      0x00\n        /* \"#utility.yul\":42348:42357   */\n      dup4\n        /* \"#utility.yul\":42344:42361   */\n      add\n        /* \"#utility.yul\":42337:42384   */\n      mstore\n        /* \"#utility.yul\":42401:42532   */\n      tag_1033\n        /* \"#utility.yul\":42527:42531   */\n      dup2\n        /* \"#utility.yul\":42401:42532   */\n      tag_632\n      jump\t// in\n    tag_1033:\n        /* \"#utility.yul\":42393:42532   */\n      swap1\n      pop\n        /* \"#utility.yul\":42120:42539   */\n      swap2\n      swap1\n      pop\n      jump\t// out\n        /* \"#utility.yul\":42545:42727   */\n    tag_633:\n        /* \"#utility.yul\":42685:42719   */\n      0x4f776e61626c653a2063616c6c6572206973206e6f7420746865206f776e6572\n        /* \"#utility.yul\":42681:42682   */\n      0x00\n        /* \"#utility.yul\":42673:42679   */\n      dup3\n        /* \"#utility.yul\":42669:42683   */\n      add\n        /* \"#utility.yul\":42662:42720   */\n      mstore\n        /* \"#utility.yul\":42545:42727   */\n      pop\n      jump\t// out\n        /* \"#utility.yul\":42733:43099   */\n    tag_634:\n        /* \"#utility.yul\":42875:42878   */\n      0x00\n        /* \"#utility.yul\":42896:42963   */\n      tag_1036\n        /* \"#utility.yul\":42960:42962   */\n      0x20\n        /* \"#utility.yul\":42955:42958   */\n      dup4\n        /* \"#utility.yul\":42896:42963   */\n      tag_555\n      jump\t// in\n    tag_1036:\n        /* \"#utility.yul\":42889:42963   */\n      swap2\n      pop\n        /* \"#utility.yul\":42972:43065   */\n      tag_1037\n        /* \"#utility.yul\":43061:43064   */\n      dup3\n        /* \"#utility.yul\":42972:43065   */\n      tag_633\n      jump\t// in\n    tag_1037:\n        /* \"#utility.yul\":43090:43092   */\n      0x20\n        /* \"#utility.yul\":43085:43088   */\n      dup3\n        /* \"#utility.yul\":43081:43093   */\n      add\n        /* \"#utility.yul\":43074:43093   */\n      swap1\n      pop\n        /* \"#utility.yul\":42733:43099   */\n      swap2\n      swap1\n      pop\n      jump\t// out\n        /* \"#utility.yul\":43105:43524   */\n    tag_426:\n        /* \"#utility.yul\":43271:43275   */\n      0x00\n        /* \"#utility.yul\":43309:43311   */\n      0x20\n        /* \"#utility.yul\":43298:43307   */\n      dup3\n        /* \"#utility.yul\":43294:43312   */\n      add\n        /* \"#utility.yul\":43286:43312   */\n      swap1\n      pop\n        /* \"#utility.yul\":43358:43367   */\n      dup2\n        /* \"#utility.yul\":43352:43356   */\n      dup2\n        /* \"#utility.yul\":43348:43368   */\n      sub\n        /* \"#utility.yul\":43344:43345   */\n      0x00\n        /* \"#utility.yul\":43333:43342   */\n      dup4\n        /* \"#utility.yul\":43329:43346   */\n      add\n        /* \"#utility.yul\":43322:43369   */\n      mstore\n        /* \"#utility.yul\":43386:43517   */\n      tag_1039\n        /* \"#utility.yul\":43512:43516   */\n      dup2\n        /* \"#utility.yul\":43386:43517   */\n      tag_634\n      jump\t// in\n    tag_1039:\n        /* \"#utility.yul\":43378:43517   */\n      swap1\n      pop\n        /* \"#utility.yul\":43105:43524   */\n      swap2\n      swap1\n      pop\n      jump\t// out\n        /* \"#utility.yul\":43530:43862   */\n    tag_430:\n        /* \"#utility.yul\":43651:43655   */\n      0x00\n        /* \"#utility.yul\":43689:43691   */\n      0x40\n        /* \"#utility.yul\":43678:43687   */\n      dup3\n        /* \"#utility.yul\":43674:43692   */\n      add\n        /* \"#utility.yul\":43666:43692   */\n      swap1\n      pop\n        /* \"#utility.yul\":43702:43773   */\n      tag_1041\n        /* \"#utility.yul\":43770:43771   */\n      0x00\n        /* \"#utility.yul\":43759:43768   */\n      dup4\n        /* \"#utility.yul\":43755:43772   */\n      add\n        /* \"#utility.yul\":43746:43752   */\n      dup6\n        /* \"#utility.yul\":43702:43773   */\n      tag_525\n      jump\t// in\n    tag_1041:\n        /* \"#utility.yul\":43783:43855   */\n      tag_1042\n        /* \"#utility.yul\":43851:43853   */\n      0x20\n        /* \"#utility.yul\":43840:43849   */\n      dup4\n        /* \"#utility.yul\":43836:43854   */\n      add\n        /* \"#utility.yul\":43827:43833   */\n      dup5\n        /* \"#utility.yul\":43783:43855   */\n      tag_527\n      jump\t// in\n    tag_1042:\n        /* \"#utility.yul\":43530:43862   */\n      swap4\n      swap3\n      pop\n      pop\n      pop\n      jump\t// out\n        /* \"#utility.yul\":43868:44048   */\n    tag_444:\n        /* \"#utility.yul\":43916:43993   */\n      0x4e487b7100000000000000000000000000000000000000000000000000000000\n        /* \"#utility.yul\":43913:43914   */\n      0x00\n        /* \"#utility.yul\":43906:43994   */\n      mstore\n        /* \"#utility.yul\":44013:44017   */\n      0x31\n        /* \"#utility.yul\":44010:44011   */\n      0x04\n        /* \"#utility.yul\":44003:44018   */\n      mstore\n        /* \"#utility.yul\":44037:44041   */\n      0x24\n        /* \"#utility.yul\":44034:44035   */\n      0x00\n        /* \"#utility.yul\":44027:44042   */\n      revert\n        /* \"#utility.yul\":44054:44170   */\n    tag_635:\n        /* \"#utility.yul\":44124:44145   */\n      tag_1045\n        /* \"#utility.yul\":44139:44144   */\n      dup2\n        /* \"#utility.yul\":44124:44145   */\n      tag_567\n      jump\t// in\n    tag_1045:\n        /* \"#utility.yul\":44117:44122   */\n      dup2\n        /* \"#utility.yul\":44114:44146   */\n      eq\n        /* \"#utility.yul\":44104:44164   */\n      tag_1046\n      jumpi\n        /* \"#utility.yul\":44160:44161   */\n      0x00\n        /* \"#utility.yul\":44157:44158   */\n      dup1\n        /* \"#utility.yul\":44150:44162   */\n      revert\n        /* \"#utility.yul\":44104:44164   */\n    tag_1046:\n        /* \"#utility.yul\":44054:44170   */\n      pop\n      jump\t// out\n        /* \"#utility.yul\":44176:44313   */\n    tag_636:\n        /* \"#utility.yul\":44230:44235   */\n      0x00\n        /* \"#utility.yul\":44261:44267   */\n      dup2\n        /* \"#utility.yul\":44255:44268   */\n      mload\n        /* \"#utility.yul\":44246:44268   */\n      swap1\n      pop\n        /* \"#utility.yul\":44277:44307   */\n      tag_1048\n        /* \"#utility.yul\":44301:44306   */\n      dup2\n        /* \"#utility.yul\":44277:44307   */\n      tag_635\n      jump\t// in\n    tag_1048:\n        /* \"#utility.yul\":44176:44313   */\n      swap3\n      swap2\n      pop\n      pop\n      jump\t// out\n        /* \"#utility.yul\":44319:44664   */\n    tag_466:\n        /* \"#utility.yul\":44386:44392   */\n      0x00\n        /* \"#utility.yul\":44435:44437   */\n      0x20\n        /* \"#utility.yul\":44423:44432   */\n      dup3\n        /* \"#utility.yul\":44414:44421   */\n      dup5\n        /* \"#utility.yul\":44410:44433   */\n      sub\n        /* \"#utility.yul\":44406:44438   */\n      slt\n        /* \"#utility.yul\":44403:44522   */\n      iszero\n      tag_1050\n      jumpi\n        /* \"#utility.yul\":44441:44520   */\n      tag_1051\n      tag_519\n      jump\t// in\n    tag_1051:\n        /* \"#utility.yul\":44403:44522   */\n    tag_1050:\n        /* \"#utility.yul\":44561:44562   */\n      0x00\n        /* \"#utility.yul\":44586:44647   */\n      tag_1052\n        /* \"#utility.yul\":44639:44646   */\n      dup5\n        /* \"#utility.yul\":44630:44636   */\n      dup3\n        /* \"#utility.yul\":44619:44628   */\n      dup6\n        /* \"#utility.yul\":44615:44637   */\n      add\n        /* \"#utility.yul\":44586:44647   */\n      tag_636\n      jump\t// in\n    tag_1052:\n        /* \"#utility.yul\":44576:44647   */\n      swap2\n      pop\n        /* \"#utility.yul\":44532:44657   */\n      pop\n        /* \"#utility.yul\":44319:44664   */\n      swap3\n      swap2\n      pop\n      pop\n      jump\t// out\n        /* \"#utility.yul\":44670:44899   */\n    tag_637:\n        /* \"#utility.yul\":44810:44844   */\n      0x5361666545524332303a204552433230206f7065726174696f6e20646964206e\n        /* \"#utility.yul\":44806:44807   */\n      0x00\n        /* \"#utility.yul\":44798:44804   */\n      dup3\n        /* \"#utility.yul\":44794:44808   */\n      add\n        /* \"#utility.yul\":44787:44845   */\n      mstore\n        /* \"#utility.yul\":44879:44891   */\n      0x6f74207375636365656400000000000000000000000000000000000000000000\n        /* \"#utility.yul\":44874:44876   */\n      0x20\n        /* \"#utility.yul\":44866:44872   */\n      dup3\n        /* \"#utility.yul\":44862:44877   */\n      add\n        /* \"#utility.yul\":44855:44892   */\n      mstore\n        /* \"#utility.yul\":44670:44899   */\n      pop\n      jump\t// out\n        /* \"#utility.yul\":44905:45271   */\n    tag_638:\n        /* \"#utility.yul\":45047:45050   */\n      0x00\n        /* \"#utility.yul\":45068:45135   */\n      tag_1055\n        /* \"#utility.yul\":45132:45134   */\n      0x2a\n        /* \"#utility.yul\":45127:45130   */\n      dup4\n        /* \"#utility.yul\":45068:45135   */\n      tag_555\n      jump\t// in\n    tag_1055:\n        /* \"#utility.yul\":45061:45135   */\n      swap2\n      pop\n        /* \"#utility.yul\":45144:45237   */\n      tag_1056\n        /* \"#utility.yul\":45233:45236   */\n      dup3\n        /* \"#utility.yul\":45144:45237   */\n      tag_637\n      jump\t// in\n    tag_1056:\n        /* \"#utility.yul\":45262:45264   */\n      0x40\n        /* \"#utility.yul\":45257:45260   */\n      dup3\n        /* \"#utility.yul\":45253:45265   */\n      add\n        /* \"#utility.yul\":45246:45265   */\n      swap1\n      pop\n        /* \"#utility.yul\":44905:45271   */\n      swap2\n      swap1\n      pop\n      jump\t// out\n        /* \"#utility.yul\":45277:45696   */\n    tag_469:\n        /* \"#utility.yul\":45443:45447   */\n      0x00\n        /* \"#utility.yul\":45481:45483   */\n      0x20\n        /* \"#utility.yul\":45470:45479   */\n      dup3\n        /* \"#utility.yul\":45466:45484   */\n      add\n        /* \"#utility.yul\":45458:45484   */\n      swap1\n      pop\n        /* \"#utility.yul\":45530:45539   */\n      dup2\n        /* \"#utility.yul\":45524:45528   */\n      dup2\n        /* \"#utility.yul\":45520:45540   */\n      sub\n        /* \"#utility.yul\":45516:45517   */\n      0x00\n        /* \"#utility.yul\":45505:45514   */\n      dup4\n        /* \"#utility.yul\":45501:45518   */\n      add\n        /* \"#utility.yul\":45494:45541   */\n      mstore\n        /* \"#utility.yul\":45558:45689   */\n      tag_1058\n        /* \"#utility.yul\":45684:45688   */\n      dup2\n        /* \"#utility.yul\":45558:45689   */\n      tag_638\n      jump\t// in\n    tag_1058:\n        /* \"#utility.yul\":45550:45689   */\n      swap1\n      pop\n        /* \"#utility.yul\":45277:45696   */\n      swap2\n      swap1\n      pop\n      jump\t// out\n        /* \"#utility.yul\":45702:45927   */\n    tag_639:\n        /* \"#utility.yul\":45842:45876   */\n      0x416464726573733a20696e73756666696369656e742062616c616e636520666f\n        /* \"#utility.yul\":45838:45839   */\n      0x00\n        /* \"#utility.yul\":45830:45836   */\n      dup3\n        /* \"#utility.yul\":45826:45840   */\n      add\n        /* \"#utility.yul\":45819:45877   */\n      mstore\n        /* \"#utility.yul\":45911:45919   */\n      0x722063616c6c0000000000000000000000000000000000000000000000000000\n        /* \"#utility.yul\":45906:45908   */\n      0x20\n        /* \"#utility.yul\":45898:45904   */\n      dup3\n        /* \"#utility.yul\":45894:45909   */\n      add\n        /* \"#utility.yul\":45887:45920   */\n      mstore\n        /* \"#utility.yul\":45702:45927   */\n      pop\n      jump\t// out\n        /* \"#utility.yul\":45933:46299   */\n    tag_640:\n        /* \"#utility.yul\":46075:46078   */\n      0x00\n        /* \"#utility.yul\":46096:46163   */\n      tag_1061\n        /* \"#utility.yul\":46160:46162   */\n      0x26\n        /* \"#utility.yul\":46155:46158   */\n      dup4\n        /* \"#utility.yul\":46096:46163   */\n      tag_555\n      jump\t// in\n    tag_1061:\n        /* \"#utility.yul\":46089:46163   */\n      swap2\n      pop\n        /* \"#utility.yul\":46172:46265   */\n      tag_1062\n        /* \"#utility.yul\":46261:46264   */\n      dup3\n        /* \"#utility.yul\":46172:46265   */\n      tag_639\n      jump\t// in\n    tag_1062:\n        /* \"#utility.yul\":46290:46292   */\n      0x40\n        /* \"#utility.yul\":46285:46288   */\n      dup3\n        /* \"#utility.yul\":46281:46293   */\n      add\n        /* \"#utility.yul\":46274:46293   */\n      swap1\n      pop\n        /* \"#utility.yul\":45933:46299   */\n      swap2\n      swap1\n      pop\n      jump\t// out\n        /* \"#utility.yul\":46305:46724   */\n    tag_476:\n        /* \"#utility.yul\":46471:46475   */\n      0x00\n        /* \"#utility.yul\":46509:46511   */\n      0x20\n        /* \"#utility.yul\":46498:46507   */\n      dup3\n        /* \"#utility.yul\":46494:46512   */\n      add\n        /* \"#utility.yul\":46486:46512   */\n      swap1\n      pop\n        /* \"#utility.yul\":46558:46567   */\n      dup2\n        /* \"#utility.yul\":46552:46556   */\n      dup2\n        /* \"#utility.yul\":46548:46568   */\n      sub\n        /* \"#utility.yul\":46544:46545   */\n      0x00\n        /* \"#utility.yul\":46533:46542   */\n      dup4\n        /* \"#utility.yul\":46529:46546   */\n      add\n        /* \"#utility.yul\":46522:46569   */\n      mstore\n        /* \"#utility.yul\":46586:46717   */\n      tag_1064\n        /* \"#utility.yul\":46712:46716   */\n      dup2\n        /* \"#utility.yul\":46586:46717   */\n      tag_640\n      jump\t// in\n    tag_1064:\n        /* \"#utility.yul\":46578:46717   */\n      swap1\n      pop\n        /* \"#utility.yul\":46305:46724   */\n      swap2\n      swap1\n      pop\n      jump\t// out\n        /* \"#utility.yul\":46730:46909   */\n    tag_641:\n        /* \"#utility.yul\":46870:46901   */\n      0x416464726573733a2063616c6c20746f206e6f6e2d636f6e7472616374000000\n        /* \"#utility.yul\":46866:46867   */\n      0x00\n        /* \"#utility.yul\":46858:46864   */\n      dup3\n        /* \"#utility.yul\":46854:46868   */\n      add\n        /* \"#utility.yul\":46847:46902   */\n      mstore\n        /* \"#utility.yul\":46730:46909   */\n      pop\n      jump\t// out\n        /* \"#utility.yul\":46915:47281   */\n    tag_642:\n        /* \"#utility.yul\":47057:47060   */\n      0x00\n        /* \"#utility.yul\":47078:47145   */\n      tag_1067\n        /* \"#utility.yul\":47142:47144   */\n      0x1d\n        /* \"#utility.yul\":47137:47140   */\n      dup4\n        /* \"#utility.yul\":47078:47145   */\n      tag_555\n      jump\t// in\n    tag_1067:\n        /* \"#utility.yul\":47071:47145   */\n      swap2\n      pop\n        /* \"#utility.yul\":47154:47247   */\n      tag_1068\n        /* \"#utility.yul\":47243:47246   */\n      dup3\n        /* \"#utility.yul\":47154:47247   */\n      tag_641\n      jump\t// in\n    tag_1068:\n        /* \"#utility.yul\":47272:47274   */\n      0x20\n        /* \"#utility.yul\":47267:47270   */\n      dup3\n        /* \"#utility.yul\":47263:47275   */\n      add\n        /* \"#utility.yul\":47256:47275   */\n      swap1\n      pop\n        /* \"#utility.yul\":46915:47281   */\n      swap2\n      swap1\n      pop\n      jump\t// out\n        /* \"#utility.yul\":47287:47706   */\n    tag_481:\n        /* \"#utility.yul\":47453:47457   */\n      0x00\n        /* \"#utility.yul\":47491:47493   */\n      0x20\n        /* \"#utility.yul\":47480:47489   */\n      dup3\n        /* \"#utility.yul\":47476:47494   */\n      add\n        /* \"#utility.yul\":47468:47494   */\n      swap1\n      pop\n        /* \"#utility.yul\":47540:47549   */\n      dup2\n        /* \"#utility.yul\":47534:47538   */\n      dup2\n        /* \"#utility.yul\":47530:47550   */\n      sub\n        /* \"#utility.yul\":47526:47527   */\n      0x00\n        /* \"#utility.yul\":47515:47524   */\n      dup4\n        /* \"#utility.yul\":47511:47528   */\n      add\n        /* \"#utility.yul\":47504:47551   */\n      mstore\n        /* \"#utility.yul\":47568:47699   */\n      tag_1070\n        /* \"#utility.yul\":47694:47698   */\n      dup2\n        /* \"#utility.yul\":47568:47699   */\n      tag_642\n      jump\t// in\n    tag_1070:\n        /* \"#utility.yul\":47560:47699   */\n      swap1\n      pop\n        /* \"#utility.yul\":47287:47706   */\n      swap2\n      swap1\n      pop\n      jump\t// out\n        /* \"#utility.yul\":47712:47810   */\n    tag_643:\n        /* \"#utility.yul\":47763:47769   */\n      0x00\n        /* \"#utility.yul\":47797:47802   */\n      dup2\n        /* \"#utility.yul\":47791:47803   */\n      mload\n        /* \"#utility.yul\":47781:47803   */\n      swap1\n      pop\n        /* \"#utility.yul\":47712:47810   */\n      swap2\n      swap1\n      pop\n      jump\t// out\n        /* \"#utility.yul\":47816:47963   */\n    tag_644:\n        /* \"#utility.yul\":47917:47928   */\n      0x00\n        /* \"#utility.yul\":47954:47957   */\n      dup2\n        /* \"#utility.yul\":47939:47957   */\n      swap1\n      pop\n        /* \"#utility.yul\":47816:47963   */\n      swap3\n      swap2\n      pop\n      pop\n      jump\t// out\n        /* \"#utility.yul\":47969:48355   */\n    tag_645:\n        /* \"#utility.yul\":48073:48076   */\n      0x00\n        /* \"#utility.yul\":48101:48139   */\n      tag_1074\n        /* \"#utility.yul\":48133:48138   */\n      dup3\n        /* \"#utility.yul\":48101:48139   */\n      tag_643\n      jump\t// in\n    tag_1074:\n        /* \"#utility.yul\":48155:48243   */\n      tag_1075\n        /* \"#utility.yul\":48236:48242   */\n      dup2\n        /* \"#utility.yul\":48231:48234   */\n      dup6\n        /* \"#utility.yul\":48155:48243   */\n      tag_644\n      jump\t// in\n    tag_1075:\n        /* \"#utility.yul\":48148:48243   */\n      swap4\n      pop\n        /* \"#utility.yul\":48252:48317   */\n      tag_1076\n        /* \"#utility.yul\":48310:48316   */\n      dup2\n        /* \"#utility.yul\":48305:48308   */\n      dup6\n        /* \"#utility.yul\":48298:48302   */\n      0x20\n        /* \"#utility.yul\":48291:48296   */\n      dup7\n        /* \"#utility.yul\":48287:48303   */\n      add\n        /* \"#utility.yul\":48252:48317   */\n      tag_556\n      jump\t// in\n    tag_1076:\n        /* \"#utility.yul\":48342:48348   */\n      dup1\n        /* \"#utility.yul\":48337:48340   */\n      dup5\n        /* \"#utility.yul\":48333:48349   */\n      add\n        /* \"#utility.yul\":48326:48349   */\n      swap2\n      pop\n        /* \"#utility.yul\":48077:48355   */\n      pop\n        /* \"#utility.yul\":47969:48355   */\n      swap3\n      swap2\n      pop\n      pop\n      jump\t// out\n        /* \"#utility.yul\":48361:48632   */\n    tag_483:\n        /* \"#utility.yul\":48491:48494   */\n      0x00\n        /* \"#utility.yul\":48513:48606   */\n      tag_1078\n        /* \"#utility.yul\":48602:48605   */\n      dup3\n        /* \"#utility.yul\":48593:48599   */\n      dup5\n        /* \"#utility.yul\":48513:48606   */\n      tag_645\n      jump\t// in\n    tag_1078:\n        /* \"#utility.yul\":48506:48606   */\n      swap2\n      pop\n        /* \"#utility.yul\":48623:48626   */\n      dup2\n        /* \"#utility.yul\":48616:48626   */\n      swap1\n      pop\n        /* \"#utility.yul\":48361:48632   */\n      swap3\n      swap2\n      pop\n      pop\n      jump\t// out\n\n    auxdata: 0xa26469706673582212207644d2c1f2ca96d5e96fc15590616ad1ce50d8b37e8e87c6de373c8c58db4ef764736f6c63430008170033\n}\n",
				"bytecode": {
					"linkReferences": {},
					"object": "60a060405234801562000010575f80fd5b506040516200454938038062004549833981810160405281019062000036919062000248565b620000566200004a620000d960201b60201c565b620000e060201b60201c565b8173ffffffffffffffffffffffffffffffffffffffff1660808173ffffffffffffffffffffffffffffffffffffffff16815250505f6006819055508060085f6101000a81548173ffffffffffffffffffffffffffffffffffffffff021916908373ffffffffffffffffffffffffffffffffffffffff16021790555050506200028d565b5f33905090565b5f805f9054906101000a900473ffffffffffffffffffffffffffffffffffffffff169050815f806101000a81548173ffffffffffffffffffffffffffffffffffffffff021916908373ffffffffffffffffffffffffffffffffffffffff1602179055508173ffffffffffffffffffffffffffffffffffffffff168173ffffffffffffffffffffffffffffffffffffffff167f8be0079c531659141344cd1fd0a4f28419497f9722a3daafe3b4186f6b6457e060405160405180910390a35050565b5f80fd5b5f73ffffffffffffffffffffffffffffffffffffffff82169050919050565b5f620001d082620001a5565b9050919050565b5f620001e382620001c4565b9050919050565b620001f581620001d7565b811462000200575f80fd5b50565b5f815190506200021381620001ea565b92915050565b6200022481620001c4565b81146200022f575f80fd5b50565b5f81519050620002428162000219565b92915050565b5f8060408385031215620002615762000260620001a1565b5b5f620002708582860162000203565b9250506020620002838582860162000232565b9150509250929050565b608051614295620002b45f395f8181610a980152818161137901526121c601526142955ff3fe608060405234801561000f575f80fd5b5060043610610156575f3560e01c806395d89b41116100c1578063c9e701ae1161007a578063c9e701ae146103a0578063ce845d1d146103be578063d95660be146103dc578063f2fde38b146103fa578063f61eb2d414610416578063fc0c546a1461043257610156565b806395d89b41146102cc578063a99d38cb146102ea578063b347f85914610308578063b70b64ec14610324578063c4be66a114610340578063c6c599c11461037057610156565b806370c80f991161011357806370c80f991461021c578063711ec9b51461023a578063715018a61461025857806381008568146102625780638da5cb5b146102925780638f26fb7f146102b057610156565b80630d43848b1461015a578063141a8dd81461018a57806319165587146101a8578063313ce567146101c45780634a3149cd146101e2578063530a60ef146101fe575b5f80fd5b610174600480360381019061016f9190612a52565b610450565b6040516101819190612a8c565b60405180910390f35b610192610587565b60405161019f9190612a8c565b60405180910390f35b6101c260048036038101906101bd9190612a52565b6105ac565b005b6101cc610a95565b6040516101d99190612abd565b60405180910390f35b6101fc60048036038101906101f79190612b61565b610b2b565b005b610206610fff565b6040516102139190612c89565b60405180910390f35b610224611092565b6040516102319190612abd565b60405180910390f35b61024261109b565b60405161024f9190612c89565b60405180910390f35b610260611126565b005b61027c60048036038101906102779190612a52565b611169565b6040516102899190612df6565b60405180910390f35b61029a6112b5565b6040516102a79190612a8c565b60405180910390f35b6102ca60048036038101906102c59190612a52565b6112dc565b005b6102d4611375565b6040516102e19190612ea0565b60405180910390f35b6102f261140c565b6040516102ff9190612abd565b60405180910390f35b610322600480360381019061031d9190612ec0565b61144b565b005b61033e60048036038101906103399190612a52565b611725565b005b61035a60048036038101906103559190612a52565b611add565b6040516103679190613013565b60405180910390f35b61038a60048036038101906103859190612a52565b611ccc565b604051610397919061304d565b60405180910390f35b6103a8611d1e565b6040516103b59190612c89565b60405180910390f35b6103c6611da9565b6040516103d39190612abd565b60405180910390f35b6103e4611e2e565b6040516103f19190612abd565b60405180910390f35b610414600480360381019061040f9190612a52565b611e35565b005b610430600480360381019061042b91906130bb565b611eb7565b005b61043a6121c3565b60405161044791906131a7565b60405180910390f35b5f6104596121ea565b5f73ffffffffffffffffffffffffffffffffffffffff1660035f8473ffffffffffffffffffffffffffffffffffffffff1673ffffffffffffffffffffffffffffffffffffffff1681526020019081526020015f205f9054906101000a900473ffffffffffffffffffffffffffffffffffffffff1673ffffffffffffffffffffffffffffffffffffffff1603610523576040517f08c379a000000000000000000000000000000000000000000000000000000000815260040161051a9061320a565b60405180910390fd5b60035f8373ffffffffffffffffffffffffffffffffffffffff1673ffffffffffffffffffffffffffffffffffffffff1681526020019081526020015f205f9054906101000a900473ffffffffffffffffffffffffffffffffffffffff169050919050565b60085f9054906101000a900473ffffffffffffffffffffffffffffffffffffffff1681565b6105b46112b5565b73ffffffffffffffffffffffffffffffffffffffff163373ffffffffffffffffffffffffffffffffffffffff16148061061857508073ffffffffffffffffffffffffffffffffffffffff163373ffffffffffffffffffffffffffffffffffffffff16145b610657576040517f08c379a000000000000000000000000000000000000000000000000000000000815260040161064e90613298565b60405180910390fd5b5f60015f8373ffffffffffffffffffffffffffffffffffffffff1673ffffffffffffffffffffffffffffffffffffffff1681526020019081526020015f2080549050116106d9576040517f08c379a00000000000000000000000000000000000000000000000000000000081526004016106d090613300565b60405180910390fd5b5f805f600190505f5b60015f8673ffffffffffffffffffffffffffffffffffffffff1673ffffffffffffffffffffffffffffffffffffffff1681526020019081526020015f2080549050811015610a4c578160015f8773ffffffffffffffffffffffffffffffffffffffff1673ffffffffffffffffffffffffffffffffffffffff1681526020019081526020015f20828154811061077a5761077961331e565b5b905f5260205f2090600402016002600481106107995761079861331e565b5b01540315610a3f578260015f8773ffffffffffffffffffffffffffffffffffffffff1673ffffffffffffffffffffffffffffffffffffffff1681526020019081526020015f2082815481106107f1576107f061331e565b5b905f5260205f2090600402016003600481106108105761080f61331e565b5b01540315610a3f57610820611e2e565b60015f8773ffffffffffffffffffffffffffffffffffffffff1673ffffffffffffffffffffffffffffffffffffffff1681526020019081526020015f20828154811061086f5761086e61331e565b5b905f5260205f20906004020160016004811061088e5761088d61331e565b5b01541015610a4c578160015f8773ffffffffffffffffffffffffffffffffffffffff1673ffffffffffffffffffffffffffffffffffffffff1681526020019081526020015f2082815481106108e6576108e561331e565b5b905f5260205f2090600402016002600481106109055761090461331e565b5b018190555060015f8673ffffffffffffffffffffffffffffffffffffffff1673ffffffffffffffffffffffffffffffffffffffff1681526020019081526020015f2081815481106109595761095861331e565b5b905f5260205f2090600402015f600481106109775761097661331e565b5b015460065f8282546109899190613378565b92505081905550610a308560015f8873ffffffffffffffffffffffffffffffffffffffff1673ffffffffffffffffffffffffffffffffffffffff1681526020019081526020015f2083815481106109e3576109e261331e565b5b905f5260205f2090600402015f60048110610a0157610a0061331e565b5b0154610a0b6121c3565b73ffffffffffffffffffffffffffffffffffffffff166122689092919063ffffffff16565b8380610a3b906133ab565b9450505b80806001019150506106e2565b505f8303610a8f576040517f08c379a0000000000000000000000000000000000000000000000000000000008152600401610a8690613462565b60405180910390fd5b50505050565b5f7f000000000000000000000000000000000000000000000000000000000000000073ffffffffffffffffffffffffffffffffffffffff1663313ce5676040518163ffffffff1660e01b8152600401602060405180830381865afa158015610aff573d5f803e3d5ffd5b505050506040513d601f19601f82011682018060405250810190610b2391906134b6565b60ff16905090565b610b336121ea565b5f60015f8673ffffffffffffffffffffffffffffffffffffffff1673ffffffffffffffffffffffffffffffffffffffff1681526020019081526020015f208054905011610bb5576040517f08c379a0000000000000000000000000000000000000000000000000000000008152600401610bac90613300565b60405180910390fd5b60015f8573ffffffffffffffffffffffffffffffffffffffff1673ffffffffffffffffffffffffffffffffffffffff1681526020019081526020015f208381548110610c0457610c0361331e565b5b905f5260205f209060040201600160048110610c2357610c2261331e565b5b0154610c2d611e2e565b108015610ca857505f60015f8673ffffffffffffffffffffffffffffffffffffffff1673ffffffffffffffffffffffffffffffffffffffff1681526020019081526020015f208481548110610c8557610c8461331e565b5b905f5260205f209060040201600260048110610ca457610ca361331e565b5b0154145b8015610d2257505f60015f8673ffffffffffffffffffffffffffffffffffffffff1673ffffffffffffffffffffffffffffffffffffffff1681526020019081526020015f208481548110610cff57610cfe61331e565b5b905f5260205f209060040201600360048110610d1e57610d1d61331e565b5b0154145b15610e925760015f8573ffffffffffffffffffffffffffffffffffffffff1673ffffffffffffffffffffffffffffffffffffffff1681526020019081526020015f208381548110610d7657610d7561331e565b5b905f5260205f2090600402015f60048110610d9457610d9361331e565b5b015460065f828254610da69190613378565b9250508190555060025f8573ffffffffffffffffffffffffffffffffffffffff1673ffffffffffffffffffffffffffffffffffffffff1681526020019081526020015f20828290918060018154018082558091505060019003905f5260205f20015f909192909192909192909192509182610e22929190613709565b50600584908060018154018082558091505060019003905f5260205f20015f9091909190916101000a81548173ffffffffffffffffffffffffffffffffffffffff021916908373ffffffffffffffffffffffffffffffffffffffff160217905550610e8d83856122ee565b610ecd565b6040517f08c379a0000000000000000000000000000000000000000000000000000000008152600401610ec490613846565b60405180910390fd5b5f60015f8673ffffffffffffffffffffffffffffffffffffffff1673ffffffffffffffffffffffffffffffffffffffff1681526020019081526020015f208054905003610ff95760015f8573ffffffffffffffffffffffffffffffffffffffff1673ffffffffffffffffffffffffffffffffffffffff1681526020019081526020015f205f610f5c9190612897565b5f5b600780549050811015610fee5760078181548110610f7f57610f7e61331e565b5b905f5260205f20015f9054906101000a900473ffffffffffffffffffffffffffffffffffffffff1673ffffffffffffffffffffffffffffffffffffffff168573ffffffffffffffffffffffffffffffffffffffff1603610fe157809350610fee565b8080600101915050610f5e565b50610ff88361246e565b5b50505050565b60606110096121ea565b600480548060200260200160405190810160405280929190818152602001828054801561108857602002820191905f5260205f20905b815f9054906101000a900473ffffffffffffffffffffffffffffffffffffffff1673ffffffffffffffffffffffffffffffffffffffff168152602001906001019080831161103f575b5050505050905090565b5f600654905090565b6060600780548060200260200160405190810160405280929190818152602001828054801561111c57602002820191905f5260205f20905b815f9054906101000a900473ffffffffffffffffffffffffffffffffffffffff1673ffffffffffffffffffffffffffffffffffffffff16815260200190600101908083116110d3575b5050505050905090565b61112e6121ea565b6040517f08c379a0000000000000000000000000000000000000000000000000000000008152600401611160906138d4565b60405180910390fd5b60605f60015f8473ffffffffffffffffffffffffffffffffffffffff1673ffffffffffffffffffffffffffffffffffffffff1681526020019081526020015f2080549050116111ed576040517f08c379a00000000000000000000000000000000000000000000000000000000081526004016111e490613300565b60405180910390fd5b60015f8373ffffffffffffffffffffffffffffffffffffffff1673ffffffffffffffffffffffffffffffffffffffff1681526020019081526020015f20805480602002602001604051908101604052809291908181526020015f905b828210156112aa578382905f5260205f209060040201600480602002604051908101604052809291908260048015611296576020028201915b815481526020019060010190808311611282575b505050505081526020019060010190611249565b505050509050919050565b5f805f9054906101000a900473ffffffffffffffffffffffffffffffffffffffff16905090565b6112e46121ea565b6112ec611092565b6112f4611da9565b11611334576040517f08c379a000000000000000000000000000000000000000000000000000000000815260040161132b9061393c565b60405180910390fd5b5f61133d61140c565b9050611371828261134c6121c3565b73ffffffffffffffffffffffffffffffffffffffff166122689092919063ffffffff16565b5050565b60607f000000000000000000000000000000000000000000000000000000000000000073ffffffffffffffffffffffffffffffffffffffff166395d89b416040518163ffffffff1660e01b81526004015f60405180830381865afa1580156113df573d5f803e3d5ffd5b505050506040513d5f823e3d601f19601f820116820180604052508101906114079190613a47565b905090565b5f611415611092565b61141d611da9565b1015611427575f80fd5b5f611430611092565b611438611da9565b6114429190613378565b90508091505090565b6114536121ea565b5f60015f8573ffffffffffffffffffffffffffffffffffffffff1673ffffffffffffffffffffffffffffffffffffffff1681526020019081526020015f2080549050116114d5576040517f08c379a00000000000000000000000000000000000000000000000000000000081526004016114cc90613300565b60405180910390fd5b6114dd611da9565b600654836114eb9190613a8e565b111561152c576040517f08c379a000000000000000000000000000000000000000000000000000000000815260040161152390613b31565b60405180910390fd5b8060015f8573ffffffffffffffffffffffffffffffffffffffff1673ffffffffffffffffffffffffffffffffffffffff1681526020019081526020015f206001805f8773ffffffffffffffffffffffffffffffffffffffff1673ffffffffffffffffffffffffffffffffffffffff1681526020019081526020015f20805490506115b69190613378565b815481106115c7576115c661331e565b5b905f5260205f2090600402016001600481106115e6576115e561331e565b5b015410611628576040517f08c379a000000000000000000000000000000000000000000000000000000000815260040161161f90613bbf565b60405180910390fd5b80611631611e2e565b10611671576040517f08c379a000000000000000000000000000000000000000000000000000000000815260040161166890613c4d565b60405180910390fd5b5f808360065f8282546116849190613a8e565b9250508190555060015f8673ffffffffffffffffffffffffffffffffffffffff1673ffffffffffffffffffffffffffffffffffffffff1681526020019081526020015f20604051806080016040528086815260200185815260200184815260200183815250908060018154018082558091505060019003905f5260205f2090600402015f9091909190915090600461171d9291906128b8565b505050505050565b5f60015f3373ffffffffffffffffffffffffffffffffffffffff1673ffffffffffffffffffffffffffffffffffffffff1681526020019081526020015f2080549050116117a7576040517f08c379a000000000000000000000000000000000000000000000000000000000815260040161179e90613300565b60405180910390fd5b606060015f3373ffffffffffffffffffffffffffffffffffffffff1673ffffffffffffffffffffffffffffffffffffffff1681526020019081526020015f20805480602002602001604051908101604052809291908181526020015f905b82821015611866578382905f5260205f209060040201600480602002604051908101604052809291908260048015611852576020028201915b81548152602001906001019080831161183e575b505050505081526020019060010190611805565b50505050905060015f3373ffffffffffffffffffffffffffffffffffffffff1673ffffffffffffffffffffffffffffffffffffffff1681526020019081526020015f205f6118b49190612897565b8060015f8473ffffffffffffffffffffffffffffffffffffffff1673ffffffffffffffffffffffffffffffffffffffff1681526020019081526020015f2090805190602001906119059291906128f8565b505f805f90505b6007805490508110156119a2575f339050600782815481106119315761193061331e565b5b905f5260205f20015f9054906101000a900473ffffffffffffffffffffffffffffffffffffffff1673ffffffffffffffffffffffffffffffffffffffff168173ffffffffffffffffffffffffffffffffffffffff160361199457819250506119a2565b50808060010191505061190c565b5082600782815481106119b8576119b761331e565b5b905f5260205f20015f6101000a81548173ffffffffffffffffffffffffffffffffffffffff021916908373ffffffffffffffffffffffffffffffffffffffff160217905550600433908060018154018082558091505060019003905f5260205f20015f9091909190916101000a81548173ffffffffffffffffffffffffffffffffffffffff021916908373ffffffffffffffffffffffffffffffffffffffff1602179055508260035f3373ffffffffffffffffffffffffffffffffffffffff1673ffffffffffffffffffffffffffffffffffffffff1681526020019081526020015f205f6101000a81548173ffffffffffffffffffffffffffffffffffffffff021916908373ffffffffffffffffffffffffffffffffffffffff160217905550505050565b60605f805b600580549050811015611b795760058181548110611b0357611b0261331e565b5b905f5260205f20015f9054906101000a900473ffffffffffffffffffffffffffffffffffffffff1673ffffffffffffffffffffffffffffffffffffffff168473ffffffffffffffffffffffffffffffffffffffff1603611b6c578180611b68906133ab565b9250505b8080600101915050611ae2565b505f8111611bbc576040517f08c379a0000000000000000000000000000000000000000000000000000000008152600401611bb390613cdb565b60405180910390fd5b60025f8473ffffffffffffffffffffffffffffffffffffffff1673ffffffffffffffffffffffffffffffffffffffff1681526020019081526020015f20805480602002602001604051908101604052809291908181526020015f905b82821015611cc0578382905f5260205f20018054611c3590613545565b80601f0160208091040260200160405190810160405280929190818152602001828054611c6190613545565b8015611cac5780601f10611c8357610100808354040283529160200191611cac565b820191905f5260205f20905b815481529060010190602001808311611c8f57829003601f168201915b505050505081526020019060010190611c18565b50505050915050919050565b5f611cd56121ea565b8160085f6101000a81548173ffffffffffffffffffffffffffffffffffffffff021916908373ffffffffffffffffffffffffffffffffffffffff16021790555060019050919050565b60606005805480602002602001604051908101604052809291908181526020018280548015611d9f57602002820191905f5260205f20905b815f9054906101000a900473ffffffffffffffffffffffffffffffffffffffff1673ffffffffffffffffffffffffffffffffffffffff1681526020019060010190808311611d56575b5050505050905090565b5f611db26121c3565b73ffffffffffffffffffffffffffffffffffffffff166370a08231306040518263ffffffff1660e01b8152600401611dea9190612a8c565b602060405180830381865afa158015611e05573d5f803e3d5ffd5b505050506040513d601f19601f82011682018060405250810190611e299190613d0d565b905090565b5f42905090565b611e3d6121ea565b5f73ffffffffffffffffffffffffffffffffffffffff168173ffffffffffffffffffffffffffffffffffffffff1603611eab576040517f08c379a0000000000000000000000000000000000000000000000000000000008152600401611ea290613da8565b60405180910390fd5b611eb48161255b565b50565b611ebf6121ea565b8181905084849050148015611ed8575060018484905010155b611f17576040517f08c379a0000000000000000000000000000000000000000000000000000000008152600401611f0e90613e5c565b60405180910390fd5b5f60015f8773ffffffffffffffffffffffffffffffffffffffff1673ffffffffffffffffffffffffffffffffffffffff1681526020019081526020015f208054905014611f99576040517f08c379a0000000000000000000000000000000000000000000000000000000008152600401611f9090613ec4565b60405180910390fd5b5f805f5b8686905081101561215957848482818110611fbb57611fba61331e565b5b90506020020135611fca611e2e565b1061200a576040517f08c379a000000000000000000000000000000000000000000000000000000000815260040161200190613c4d565b60405180910390fd5b86868281811061201d5761201c61331e565b5b9050602002013560065f8282546120349190613a8e565b92505081905550612043611da9565b6006541115612087576040517f08c379a000000000000000000000000000000000000000000000000000000000815260040161207e90613f52565b60405180910390fd5b60015f8973ffffffffffffffffffffffffffffffffffffffff1673ffffffffffffffffffffffffffffffffffffffff1681526020019081526020015f2060405180608001604052808989858181106120e2576120e161331e565b5b9050602002013581526020018787858181106121015761210061331e565b5b90506020020135815260200185815260200184815250908060018154018082558091505060019003905f5260205f2090600402015f9091909190915090600461214b9291906128b8565b508080600101915050611f9d565b50600787908060018154018082558091505060019003905f5260205f20015f9091909190916101000a81548173ffffffffffffffffffffffffffffffffffffffff021916908373ffffffffffffffffffffffffffffffffffffffff16021790555050505050505050565b5f7f0000000000000000000000000000000000000000000000000000000000000000905090565b6121f261261c565b73ffffffffffffffffffffffffffffffffffffffff166122106112b5565b73ffffffffffffffffffffffffffffffffffffffff1614612266576040517f08c379a000000000000000000000000000000000000000000000000000000000815260040161225d90613fba565b60405180910390fd5b565b6122e98363a9059cbb60e01b8484604051602401612287929190613fd8565b604051602081830303815290604052907bffffffffffffffffffffffffffffffffffffffffffffffffffffffff19166020820180517bffffffffffffffffffffffffffffffffffffffffffffffffffffffff8381831617835250505050612623565b505050565b60015f8273ffffffffffffffffffffffffffffffffffffffff1673ffffffffffffffffffffffffffffffffffffffff1681526020019081526020015f206001805f8473ffffffffffffffffffffffffffffffffffffffff1673ffffffffffffffffffffffffffffffffffffffff1681526020019081526020015f20805490506123779190613378565b815481106123885761238761331e565b5b905f5260205f20906004020160015f8373ffffffffffffffffffffffffffffffffffffffff1673ffffffffffffffffffffffffffffffffffffffff1681526020019081526020015f2083815481106123e3576123e261331e565b5b905f5260205f2090600402019060046123fd929190612954565b5060015f8273ffffffffffffffffffffffffffffffffffffffff1673ffffffffffffffffffffffffffffffffffffffff1681526020019081526020015f2080548061244b5761244a613fff565b5b600190038181905f5260205f2090600402015f6124689190612991565b90555050565b600760016007805490506124829190613378565b815481106124935761249261331e565b5b905f5260205f20015f9054906101000a900473ffffffffffffffffffffffffffffffffffffffff16600782815481106124cf576124ce61331e565b5b905f5260205f20015f6101000a81548173ffffffffffffffffffffffffffffffffffffffff021916908373ffffffffffffffffffffffffffffffffffffffff160217905550600780548061252657612525613fff565b5b600190038181905f5260205f20015f6101000a81549073ffffffffffffffffffffffffffffffffffffffff0219169055905550565b5f805f9054906101000a900473ffffffffffffffffffffffffffffffffffffffff169050815f806101000a81548173ffffffffffffffffffffffffffffffffffffffff021916908373ffffffffffffffffffffffffffffffffffffffff1602179055508173ffffffffffffffffffffffffffffffffffffffff168173ffffffffffffffffffffffffffffffffffffffff167f8be0079c531659141344cd1fd0a4f28419497f9722a3daafe3b4186f6b6457e060405160405180910390a35050565b5f33905090565b5f612684826040518060400160405280602081526020017f5361666545524332303a206c6f772d6c6576656c2063616c6c206661696c65648152508573ffffffffffffffffffffffffffffffffffffffff166126e89092919063ffffffff16565b90505f815111156126e357808060200190518101906126a39190614056565b6126e2576040517f08c379a00000000000000000000000000000000000000000000000000000000081526004016126d9906140f1565b60405180910390fd5b5b505050565b60606126f684845f856126ff565b90509392505050565b606082471015612744576040517f08c379a000000000000000000000000000000000000000000000000000000000815260040161273b9061417f565b60405180910390fd5b61274d8561280f565b61278c576040517f08c379a0000000000000000000000000000000000000000000000000000000008152600401612783906141e7565b60405180910390fd5b5f808673ffffffffffffffffffffffffffffffffffffffff1685876040516127b49190614249565b5f6040518083038185875af1925050503d805f81146127ee576040519150601f19603f3d011682016040523d82523d5f602084013e6127f3565b606091505b5091509150612803828286612831565b92505050949350505050565b5f808273ffffffffffffffffffffffffffffffffffffffff163b119050919050565b6060831561284157829050612890565b5f835111156128535782518084602001fd5b816040517f08c379a00000000000000000000000000000000000000000000000000000000081526004016128879190612ea0565b60405180910390fd5b9392505050565b5080545f8255600402905f5260205f20908101906128b591906129a9565b50565b82600481019282156128e7579160200282015b828111156128e65782518255916020019190600101906128cb565b5b5090506128f491906129cc565b5090565b828054828255905f5260205f20906004028101928215612943579160200282015b82811115612942578251829060046129329291906128b8565b5091602001919060040190612919565b5b50905061295091906129a9565b5090565b8260048101928215612980579182015b8281111561297f578254825591600101919060010190612964565b5b50905061298d91906129cc565b5090565b505f81556001015f81556001015f81556001015f9055565b5b808211156129c8575f81816129bf9190612991565b506004016129aa565b5090565b5b808211156129e3575f815f9055506001016129cd565b5090565b5f604051905090565b5f80fd5b5f80fd5b5f73ffffffffffffffffffffffffffffffffffffffff82169050919050565b5f612a21826129f8565b9050919050565b612a3181612a17565b8114612a3b575f80fd5b50565b5f81359050612a4c81612a28565b92915050565b5f60208284031215612a6757612a666129f0565b5b5f612a7484828501612a3e565b91505092915050565b612a8681612a17565b82525050565b5f602082019050612a9f5f830184612a7d565b92915050565b5f819050919050565b612ab781612aa5565b82525050565b5f602082019050612ad05f830184612aae565b92915050565b612adf81612aa5565b8114612ae9575f80fd5b50565b5f81359050612afa81612ad6565b92915050565b5f80fd5b5f80fd5b5f80fd5b5f8083601f840112612b2157612b20612b00565b5b8235905067ffffffffffffffff811115612b3e57612b3d612b04565b5b602083019150836001820283011115612b5a57612b59612b08565b5b9250929050565b5f805f8060608587031215612b7957612b786129f0565b5b5f612b8687828801612a3e565b9450506020612b9787828801612aec565b935050604085013567ffffffffffffffff811115612bb857612bb76129f4565b5b612bc487828801612b0c565b925092505092959194509250565b5f81519050919050565b5f82825260208201905092915050565b5f819050602082019050919050565b612c0481612a17565b82525050565b5f612c158383612bfb565b60208301905092915050565b5f602082019050919050565b5f612c3782612bd2565b612c418185612bdc565b9350612c4c83612bec565b805f5b83811015612c7c578151612c638882612c0a565b9750612c6e83612c21565b925050600181019050612c4f565b5085935050505092915050565b5f6020820190508181035f830152612ca18184612c2d565b905092915050565b5f81519050919050565b5f82825260208201905092915050565b5f819050602082019050919050565b5f60049050919050565b5f81905092915050565b5f819050919050565b612cf881612aa5565b82525050565b5f612d098383612cef565b60208301905092915050565b5f602082019050919050565b612d2a81612cd2565b612d348184612cdc565b9250612d3f82612ce6565b805f5b83811015612d6f578151612d568782612cfe565b9650612d6183612d15565b925050600181019050612d42565b505050505050565b5f612d828383612d21565b60808301905092915050565b5f602082019050919050565b5f612da482612ca9565b612dae8185612cb3565b9350612db983612cc3565b805f5b83811015612de9578151612dd08882612d77565b9750612ddb83612d8e565b925050600181019050612dbc565b5085935050505092915050565b5f6020820190508181035f830152612e0e8184612d9a565b905092915050565b5f81519050919050565b5f82825260208201905092915050565b5f5b83811015612e4d578082015181840152602081019050612e32565b5f8484015250505050565b5f601f19601f8301169050919050565b5f612e7282612e16565b612e7c8185612e20565b9350612e8c818560208601612e30565b612e9581612e58565b840191505092915050565b5f6020820190508181035f830152612eb88184612e68565b905092915050565b5f805f60608486031215612ed757612ed66129f0565b5b5f612ee486828701612a3e565b9350506020612ef586828701612aec565b9250506040612f0686828701612aec565b9150509250925092565b5f81519050919050565b5f82825260208201905092915050565b5f819050602082019050919050565b5f82825260208201905092915050565b5f612f5382612e16565b612f5d8185612f39565b9350612f6d818560208601612e30565b612f7681612e58565b840191505092915050565b5f612f8c8383612f49565b905092915050565b5f602082019050919050565b5f612faa82612f10565b612fb48185612f1a565b935083602082028501612fc685612f2a565b805f5b858110156130015784840389528151612fe28582612f81565b9450612fed83612f94565b925060208a01995050600181019050612fc9565b50829750879550505050505092915050565b5f6020820190508181035f83015261302b8184612fa0565b905092915050565b5f8115159050919050565b61304781613033565b82525050565b5f6020820190506130605f83018461303e565b92915050565b5f8083601f84011261307b5761307a612b00565b5b8235905067ffffffffffffffff81111561309857613097612b04565b5b6020830191508360208202830111156130b4576130b3612b08565b5b9250929050565b5f805f805f606086880312156130d4576130d36129f0565b5b5f6130e188828901612a3e565b955050602086013567ffffffffffffffff811115613102576131016129f4565b5b61310e88828901613066565b9450945050604086013567ffffffffffffffff811115613131576131306129f4565b5b61313d88828901613066565b92509250509295509295909350565b5f819050919050565b5f61316f61316a613165846129f8565b61314c565b6129f8565b9050919050565b5f61318082613155565b9050919050565b5f61319182613176565b9050919050565b6131a181613187565b82525050565b5f6020820190506131ba5f830184613198565b92915050565b7f57616c6c6574206e65766572206368616e6765642100000000000000000000005f82015250565b5f6131f4601583612e20565b91506131ff826131c0565b602082019050919050565b5f6020820190508181035f830152613221816131e8565b9050919050565b7f57697468647261772063616e20626520646f6e65206f6e6c7920627920636f6e5f8201527f7472616374206f776e6572206f722062656e6566696369617279210000000000602082015250565b5f613282603b83612e20565b915061328d82613228565b604082019050919050565b5f6020820190508181035f8301526132af81613276565b9050919050565b7f42656e6566696369617279206e6f74206578697374696e6721000000000000005f82015250565b5f6132ea601983612e20565b91506132f5826132b6565b602082019050919050565b5f6020820190508181035f830152613317816132de565b9050919050565b7f4e487b71000000000000000000000000000000000000000000000000000000005f52603260045260245ffd5b7f4e487b71000000000000000000000000000000000000000000000000000000005f52601160045260245ffd5b5f61338282612aa5565b915061338d83612aa5565b92508282039050818111156133a5576133a461334b565b5b92915050565b5f6133b582612aa5565b91507fffffffffffffffffffffffffffffffffffffffffffffffffffffffffffffffff82036133e7576133e661334b565b5b600182019050919050565b7f4e6f2072656c6561736564207061796d656e747320666f72207472616e7366655f8201527f7221000000000000000000000000000000000000000000000000000000000000602082015250565b5f61344c602283612e20565b9150613457826133f2565b604082019050919050565b5f6020820190508181035f83015261347981613440565b9050919050565b5f60ff82169050919050565b61349581613480565b811461349f575f80fd5b50565b5f815190506134b08161348c565b92915050565b5f602082840312156134cb576134ca6129f0565b5b5f6134d8848285016134a2565b91505092915050565b5f82905092915050565b7f4e487b71000000000000000000000000000000000000000000000000000000005f52604160045260245ffd5b7f4e487b71000000000000000000000000000000000000000000000000000000005f52602260045260245ffd5b5f600282049050600182168061355c57607f821691505b60208210810361356f5761356e613518565b5b50919050565b5f819050815f5260205f209050919050565b5f6020601f8301049050919050565b5f82821b905092915050565b5f600883026135d17fffffffffffffffffffffffffffffffffffffffffffffffffffffffffffffffff82613596565b6135db8683613596565b95508019841693508086168417925050509392505050565b5f61360d61360861360384612aa5565b61314c565b612aa5565b9050919050565b5f819050919050565b613626836135f3565b61363a61363282613614565b8484546135a2565b825550505050565b5f90565b61364e613642565b61365981848461361d565b505050565b5b8181101561367c576136715f82613646565b60018101905061365f565b5050565b601f8211156136c15761369281613575565b61369b84613587565b810160208510156136aa578190505b6136be6136b685613587565b83018261365e565b50505b505050565b5f82821c905092915050565b5f6136e15f19846008026136c6565b1980831691505092915050565b5f6136f983836136d2565b9150826002028217905092915050565b61371383836134e1565b67ffffffffffffffff81111561372c5761372b6134eb565b5b6137368254613545565b613741828285613680565b5f601f83116001811461376e575f841561375c578287013590505b61376685826136ee565b8655506137cd565b601f19841661377c86613575565b5f5b828110156137a35784890135825560018201915060208501945060208101905061377e565b868310156137c057848901356137bc601f8916826136d2565b8355505b6001600288020188555050505b50505050505050565b7f43616e27742064656c65746520617070726f7665642c77697468647261776e205f8201527f6f722061667465722064756564617465207061796d656e742100000000000000602082015250565b5f613830603983612e20565b915061383b826137d6565b604082019050919050565b5f6020820190508181035f83015261385d81613824565b9050919050565b7f5468697320636f6e747261637420646f65736e277420737570706f72742072655f8201527f6e6f756e63696e67206f66206f776e6572736869700000000000000000000000602082015250565b5f6138be603583612e20565b91506138c982613864565b604082019050919050565b5f6020820190508181035f8301526138eb816138b2565b9050919050565b7f4e6f2065786365737320746f6b656e7320746f207472616e73666572210000005f82015250565b5f613926601d83612e20565b9150613931826138f2565b602082019050919050565b5f6020820190508181035f8301526139538161391a565b9050919050565b5f80fd5b61396782612e58565b810181811067ffffffffffffffff82111715613986576139856134eb565b5b80604052505050565b5f6139986129e7565b90506139a4828261395e565b919050565b5f67ffffffffffffffff8211156139c3576139c26134eb565b5b6139cc82612e58565b9050602081019050919050565b5f6139eb6139e6846139a9565b61398f565b905082815260208101848484011115613a0757613a0661395a565b5b613a12848285612e30565b509392505050565b5f82601f830112613a2e57613a2d612b00565b5b8151613a3e8482602086016139d9565b91505092915050565b5f60208284031215613a5c57613a5b6129f0565b5b5f82015167ffffffffffffffff811115613a7957613a786129f4565b5b613a8584828501613a1a565b91505092915050565b5f613a9882612aa5565b9150613aa383612aa5565b9250828201905080821115613abb57613aba61334b565b5b92915050565b7f496e73756666696369656e742062616c616e6365212043616e277420616464205f8201527f6e6577207061796d656e74732100000000000000000000000000000000000000602082015250565b5f613b1b602d83612e20565b9150613b2682613ac1565b604082019050919050565b5f6020820190508181035f830152613b4881613b0f565b9050919050565b7f4675747572652072656c6561736520646174652063616e277420626520736d615f8201527f6c6c6572207468616e20746865206c61737420656e7465726564210000000000602082015250565b5f613ba9603b83612e20565b9150613bb482613b4f565b604082019050919050565b5f6020820190508181035f830152613bd681613b9d565b9050919050565b7f52656c6561736520646174652063616e277420626520657175616c206f72206c5f8201527f657373207468616e2063757272656e7420646174652100000000000000000000602082015250565b5f613c37603683612e20565b9150613c4282613bdd565b604082019050919050565b5f6020820190508181035f830152613c6481613c2b565b9050919050565b7f42656e656669636961727920646f6573206e6f7420686176652063616e63656c5f8201527f6564207061796d656e7473210000000000000000000000000000000000000000602082015250565b5f613cc5602c83612e20565b9150613cd082613c6b565b604082019050919050565b5f6020820190508181035f830152613cf281613cb9565b9050919050565b5f81519050613d0781612ad6565b92915050565b5f60208284031215613d2257613d216129f0565b5b5f613d2f84828501613cf9565b91505092915050565b7f4f776e61626c653a206e6577206f776e657220697320746865207a65726f20615f8201527f6464726573730000000000000000000000000000000000000000000000000000602082015250565b5f613d92602683612e20565b9150613d9d82613d38565b604082019050919050565b5f6020820190508181035f830152613dbf81613d86565b9050919050565b7f4461746120666f72206e6f7420636f7272656374212e20436f756e74206f66205f8201527f72656c6561736520646174657320616e6420616d6f756e7473206d757374206260208201527f6520657175616c21000000000000000000000000000000000000000000000000604082015250565b5f613e46604883612e20565b9150613e5182613dc6565b606082019050919050565b5f6020820190508181035f830152613e7381613e3a565b9050919050565b7f42656e656669636961727920616c7265616479206578697374696e67210000005f82015250565b5f613eae601d83612e20565b9150613eb982613e7a565b602082019050919050565b5f6020820190508181035f830152613edb81613ea2565b9050919050565b7f496e73756666696369656e742062616c616e6365212043616e277420616464205f8201527f6e65772062656e65666963696172696573210000000000000000000000000000602082015250565b5f613f3c603283612e20565b9150613f4782613ee2565b604082019050919050565b5f6020820190508181035f830152613f6981613f30565b9050919050565b7f4f776e61626c653a2063616c6c6572206973206e6f7420746865206f776e65725f82015250565b5f613fa4602083612e20565b9150613faf82613f70565b602082019050919050565b5f6020820190508181035f830152613fd181613f98565b9050919050565b5f604082019050613feb5f830185612a7d565b613ff86020830184612aae565b9392505050565b7f4e487b71000000000000000000000000000000000000000000000000000000005f52603160045260245ffd5b61403581613033565b811461403f575f80fd5b50565b5f815190506140508161402c565b92915050565b5f6020828403121561406b5761406a6129f0565b5b5f61407884828501614042565b91505092915050565b7f5361666545524332303a204552433230206f7065726174696f6e20646964206e5f8201527f6f74207375636365656400000000000000000000000000000000000000000000602082015250565b5f6140db602a83612e20565b91506140e682614081565b604082019050919050565b5f6020820190508181035f830152614108816140cf565b9050919050565b7f416464726573733a20696e73756666696369656e742062616c616e636520666f5f8201527f722063616c6c0000000000000000000000000000000000000000000000000000602082015250565b5f614169602683612e20565b91506141748261410f565b604082019050919050565b5f6020820190508181035f8301526141968161415d565b9050919050565b7f416464726573733a2063616c6c20746f206e6f6e2d636f6e74726163740000005f82015250565b5f6141d1601d83612e20565b91506141dc8261419d565b602082019050919050565b5f6020820190508181035f8301526141fe816141c5565b9050919050565b5f81519050919050565b5f81905092915050565b5f61422382614205565b61422d818561420f565b935061423d818560208601612e30565b80840191505092915050565b5f6142548284614219565b91508190509291505056fea26469706673582212207644d2c1f2ca96d5e96fc15590616ad1ce50d8b37e8e87c6de373c8c58db4ef764736f6c63430008170033",
					"opcodes": "PUSH1 0xA0 PUSH1 0x40 MSTORE CALLVALUE DUP1 ISZERO PUSH3 0x10 JUMPI PUSH0 DUP1 REVERT JUMPDEST POP PUSH1 0x40 MLOAD PUSH3 0x4549 CODESIZE SUB DUP1 PUSH3 0x4549 DUP4 CODECOPY DUP2 DUP2 ADD PUSH1 0x40 MSTORE DUP2 ADD SWAP1 PUSH3 0x36 SWAP2 SWAP1 PUSH3 0x248 JUMP JUMPDEST PUSH3 0x56 PUSH3 0x4A PUSH3 0xD9 PUSH1 0x20 SHL PUSH1 0x20 SHR JUMP JUMPDEST PUSH3 0xE0 PUSH1 0x20 SHL PUSH1 0x20 SHR JUMP JUMPDEST DUP2 PUSH20 0xFFFFFFFFFFFFFFFFFFFFFFFFFFFFFFFFFFFFFFFF AND PUSH1 0x80 DUP2 PUSH20 0xFFFFFFFFFFFFFFFFFFFFFFFFFFFFFFFFFFFFFFFF AND DUP2 MSTORE POP POP PUSH0 PUSH1 0x6 DUP2 SWAP1 SSTORE POP DUP1 PUSH1 0x8 PUSH0 PUSH2 0x100 EXP DUP2 SLOAD DUP2 PUSH20 0xFFFFFFFFFFFFFFFFFFFFFFFFFFFFFFFFFFFFFFFF MUL NOT AND SWAP1 DUP4 PUSH20 0xFFFFFFFFFFFFFFFFFFFFFFFFFFFFFFFFFFFFFFFF AND MUL OR SWAP1 SSTORE POP POP POP PUSH3 0x28D JUMP JUMPDEST PUSH0 CALLER SWAP1 POP SWAP1 JUMP JUMPDEST PUSH0 DUP1 PUSH0 SWAP1 SLOAD SWAP1 PUSH2 0x100 EXP SWAP1 DIV PUSH20 0xFFFFFFFFFFFFFFFFFFFFFFFFFFFFFFFFFFFFFFFF AND SWAP1 POP DUP2 PUSH0 DUP1 PUSH2 0x100 EXP DUP2 SLOAD DUP2 PUSH20 0xFFFFFFFFFFFFFFFFFFFFFFFFFFFFFFFFFFFFFFFF MUL NOT AND SWAP1 DUP4 PUSH20 0xFFFFFFFFFFFFFFFFFFFFFFFFFFFFFFFFFFFFFFFF AND MUL OR SWAP1 SSTORE POP DUP2 PUSH20 0xFFFFFFFFFFFFFFFFFFFFFFFFFFFFFFFFFFFFFFFF AND DUP2 PUSH20 0xFFFFFFFFFFFFFFFFFFFFFFFFFFFFFFFFFFFFFFFF AND PUSH32 0x8BE0079C531659141344CD1FD0A4F28419497F9722A3DAAFE3B4186F6B6457E0 PUSH1 0x40 MLOAD PUSH1 0x40 MLOAD DUP1 SWAP2 SUB SWAP1 LOG3 POP POP JUMP JUMPDEST PUSH0 DUP1 REVERT JUMPDEST PUSH0 PUSH20 0xFFFFFFFFFFFFFFFFFFFFFFFFFFFFFFFFFFFFFFFF DUP3 AND SWAP1 POP SWAP2 SWAP1 POP JUMP JUMPDEST PUSH0 PUSH3 0x1D0 DUP3 PUSH3 0x1A5 JUMP JUMPDEST SWAP1 POP SWAP2 SWAP1 POP JUMP JUMPDEST PUSH0 PUSH3 0x1E3 DUP3 PUSH3 0x1C4 JUMP JUMPDEST SWAP1 POP SWAP2 SWAP1 POP JUMP JUMPDEST PUSH3 0x1F5 DUP2 PUSH3 0x1D7 JUMP JUMPDEST DUP2 EQ PUSH3 0x200 JUMPI PUSH0 DUP1 REVERT JUMPDEST POP JUMP JUMPDEST PUSH0 DUP2 MLOAD SWAP1 POP PUSH3 0x213 DUP2 PUSH3 0x1EA JUMP JUMPDEST SWAP3 SWAP2 POP POP JUMP JUMPDEST PUSH3 0x224 DUP2 PUSH3 0x1C4 JUMP JUMPDEST DUP2 EQ PUSH3 0x22F JUMPI PUSH0 DUP1 REVERT JUMPDEST POP JUMP JUMPDEST PUSH0 DUP2 MLOAD SWAP1 POP PUSH3 0x242 DUP2 PUSH3 0x219 JUMP JUMPDEST SWAP3 SWAP2 POP POP JUMP JUMPDEST PUSH0 DUP1 PUSH1 0x40 DUP4 DUP6 SUB SLT ISZERO PUSH3 0x261 JUMPI PUSH3 0x260 PUSH3 0x1A1 JUMP JUMPDEST JUMPDEST PUSH0 PUSH3 0x270 DUP6 DUP3 DUP7 ADD PUSH3 0x203 JUMP JUMPDEST SWAP3 POP POP PUSH1 0x20 PUSH3 0x283 DUP6 DUP3 DUP7 ADD PUSH3 0x232 JUMP JUMPDEST SWAP2 POP POP SWAP3 POP SWAP3 SWAP1 POP JUMP JUMPDEST PUSH1 0x80 MLOAD PUSH2 0x4295 PUSH3 0x2B4 PUSH0 CODECOPY PUSH0 DUP2 DUP2 PUSH2 0xA98 ADD MSTORE DUP2 DUP2 PUSH2 0x1379 ADD MSTORE PUSH2 0x21C6 ADD MSTORE PUSH2 0x4295 PUSH0 RETURN INVALID PUSH1 0x80 PUSH1 0x40 MSTORE CALLVALUE DUP1 ISZERO PUSH2 0xF JUMPI PUSH0 DUP1 REVERT JUMPDEST POP PUSH1 0x4 CALLDATASIZE LT PUSH2 0x156 JUMPI PUSH0 CALLDATALOAD PUSH1 0xE0 SHR DUP1 PUSH4 0x95D89B41 GT PUSH2 0xC1 JUMPI DUP1 PUSH4 0xC9E701AE GT PUSH2 0x7A JUMPI DUP1 PUSH4 0xC9E701AE EQ PUSH2 0x3A0 JUMPI DUP1 PUSH4 0xCE845D1D EQ PUSH2 0x3BE JUMPI DUP1 PUSH4 0xD95660BE EQ PUSH2 0x3DC JUMPI DUP1 PUSH4 0xF2FDE38B EQ PUSH2 0x3FA JUMPI DUP1 PUSH4 0xF61EB2D4 EQ PUSH2 0x416 JUMPI DUP1 PUSH4 0xFC0C546A EQ PUSH2 0x432 JUMPI PUSH2 0x156 JUMP JUMPDEST DUP1 PUSH4 0x95D89B41 EQ PUSH2 0x2CC JUMPI DUP1 PUSH4 0xA99D38CB EQ PUSH2 0x2EA JUMPI DUP1 PUSH4 0xB347F859 EQ PUSH2 0x308 JUMPI DUP1 PUSH4 0xB70B64EC EQ PUSH2 0x324 JUMPI DUP1 PUSH4 0xC4BE66A1 EQ PUSH2 0x340 JUMPI DUP1 PUSH4 0xC6C599C1 EQ PUSH2 0x370 JUMPI PUSH2 0x156 JUMP JUMPDEST DUP1 PUSH4 0x70C80F99 GT PUSH2 0x113 JUMPI DUP1 PUSH4 0x70C80F99 EQ PUSH2 0x21C JUMPI DUP1 PUSH4 0x711EC9B5 EQ PUSH2 0x23A JUMPI DUP1 PUSH4 0x715018A6 EQ PUSH2 0x258 JUMPI DUP1 PUSH4 0x81008568 EQ PUSH2 0x262 JUMPI DUP1 PUSH4 0x8DA5CB5B EQ PUSH2 0x292 JUMPI DUP1 PUSH4 0x8F26FB7F EQ PUSH2 0x2B0 JUMPI PUSH2 0x156 JUMP JUMPDEST DUP1 PUSH4 0xD43848B EQ PUSH2 0x15A JUMPI DUP1 PUSH4 0x141A8DD8 EQ PUSH2 0x18A JUMPI DUP1 PUSH4 0x19165587 EQ PUSH2 0x1A8 JUMPI DUP1 PUSH4 0x313CE567 EQ PUSH2 0x1C4 JUMPI DUP1 PUSH4 0x4A3149CD EQ PUSH2 0x1E2 JUMPI DUP1 PUSH4 0x530A60EF EQ PUSH2 0x1FE JUMPI JUMPDEST PUSH0 DUP1 REVERT JUMPDEST PUSH2 0x174 PUSH1 0x4 DUP1 CALLDATASIZE SUB DUP2 ADD SWAP1 PUSH2 0x16F SWAP2 SWAP1 PUSH2 0x2A52 JUMP JUMPDEST PUSH2 0x450 JUMP JUMPDEST PUSH1 0x40 MLOAD PUSH2 0x181 SWAP2 SWAP1 PUSH2 0x2A8C JUMP JUMPDEST PUSH1 0x40 MLOAD DUP1 SWAP2 SUB SWAP1 RETURN JUMPDEST PUSH2 0x192 PUSH2 0x587 JUMP JUMPDEST PUSH1 0x40 MLOAD PUSH2 0x19F SWAP2 SWAP1 PUSH2 0x2A8C JUMP JUMPDEST PUSH1 0x40 MLOAD DUP1 SWAP2 SUB SWAP1 RETURN JUMPDEST PUSH2 0x1C2 PUSH1 0x4 DUP1 CALLDATASIZE SUB DUP2 ADD SWAP1 PUSH2 0x1BD SWAP2 SWAP1 PUSH2 0x2A52 JUMP JUMPDEST PUSH2 0x5AC JUMP JUMPDEST STOP JUMPDEST PUSH2 0x1CC PUSH2 0xA95 JUMP JUMPDEST PUSH1 0x40 MLOAD PUSH2 0x1D9 SWAP2 SWAP1 PUSH2 0x2ABD JUMP JUMPDEST PUSH1 0x40 MLOAD DUP1 SWAP2 SUB SWAP1 RETURN JUMPDEST PUSH2 0x1FC PUSH1 0x4 DUP1 CALLDATASIZE SUB DUP2 ADD SWAP1 PUSH2 0x1F7 SWAP2 SWAP1 PUSH2 0x2B61 JUMP JUMPDEST PUSH2 0xB2B JUMP JUMPDEST STOP JUMPDEST PUSH2 0x206 PUSH2 0xFFF JUMP JUMPDEST PUSH1 0x40 MLOAD PUSH2 0x213 SWAP2 SWAP1 PUSH2 0x2C89 JUMP JUMPDEST PUSH1 0x40 MLOAD DUP1 SWAP2 SUB SWAP1 RETURN JUMPDEST PUSH2 0x224 PUSH2 0x1092 JUMP JUMPDEST PUSH1 0x40 MLOAD PUSH2 0x231 SWAP2 SWAP1 PUSH2 0x2ABD JUMP JUMPDEST PUSH1 0x40 MLOAD DUP1 SWAP2 SUB SWAP1 RETURN JUMPDEST PUSH2 0x242 PUSH2 0x109B JUMP JUMPDEST PUSH1 0x40 MLOAD PUSH2 0x24F SWAP2 SWAP1 PUSH2 0x2C89 JUMP JUMPDEST PUSH1 0x40 MLOAD DUP1 SWAP2 SUB SWAP1 RETURN JUMPDEST PUSH2 0x260 PUSH2 0x1126 JUMP JUMPDEST STOP JUMPDEST PUSH2 0x27C PUSH1 0x4 DUP1 CALLDATASIZE SUB DUP2 ADD SWAP1 PUSH2 0x277 SWAP2 SWAP1 PUSH2 0x2A52 JUMP JUMPDEST PUSH2 0x1169 JUMP JUMPDEST PUSH1 0x40 MLOAD PUSH2 0x289 SWAP2 SWAP1 PUSH2 0x2DF6 JUMP JUMPDEST PUSH1 0x40 MLOAD DUP1 SWAP2 SUB SWAP1 RETURN JUMPDEST PUSH2 0x29A PUSH2 0x12B5 JUMP JUMPDEST PUSH1 0x40 MLOAD PUSH2 0x2A7 SWAP2 SWAP1 PUSH2 0x2A8C JUMP JUMPDEST PUSH1 0x40 MLOAD DUP1 SWAP2 SUB SWAP1 RETURN JUMPDEST PUSH2 0x2CA PUSH1 0x4 DUP1 CALLDATASIZE SUB DUP2 ADD SWAP1 PUSH2 0x2C5 SWAP2 SWAP1 PUSH2 0x2A52 JUMP JUMPDEST PUSH2 0x12DC JUMP JUMPDEST STOP JUMPDEST PUSH2 0x2D4 PUSH2 0x1375 JUMP JUMPDEST PUSH1 0x40 MLOAD PUSH2 0x2E1 SWAP2 SWAP1 PUSH2 0x2EA0 JUMP JUMPDEST PUSH1 0x40 MLOAD DUP1 SWAP2 SUB SWAP1 RETURN JUMPDEST PUSH2 0x2F2 PUSH2 0x140C JUMP JUMPDEST PUSH1 0x40 MLOAD PUSH2 0x2FF SWAP2 SWAP1 PUSH2 0x2ABD JUMP JUMPDEST PUSH1 0x40 MLOAD DUP1 SWAP2 SUB SWAP1 RETURN JUMPDEST PUSH2 0x322 PUSH1 0x4 DUP1 CALLDATASIZE SUB DUP2 ADD SWAP1 PUSH2 0x31D SWAP2 SWAP1 PUSH2 0x2EC0 JUMP JUMPDEST PUSH2 0x144B JUMP JUMPDEST STOP JUMPDEST PUSH2 0x33E PUSH1 0x4 DUP1 CALLDATASIZE SUB DUP2 ADD SWAP1 PUSH2 0x339 SWAP2 SWAP1 PUSH2 0x2A52 JUMP JUMPDEST PUSH2 0x1725 JUMP JUMPDEST STOP JUMPDEST PUSH2 0x35A PUSH1 0x4 DUP1 CALLDATASIZE SUB DUP2 ADD SWAP1 PUSH2 0x355 SWAP2 SWAP1 PUSH2 0x2A52 JUMP JUMPDEST PUSH2 0x1ADD JUMP JUMPDEST PUSH1 0x40 MLOAD PUSH2 0x367 SWAP2 SWAP1 PUSH2 0x3013 JUMP JUMPDEST PUSH1 0x40 MLOAD DUP1 SWAP2 SUB SWAP1 RETURN JUMPDEST PUSH2 0x38A PUSH1 0x4 DUP1 CALLDATASIZE SUB DUP2 ADD SWAP1 PUSH2 0x385 SWAP2 SWAP1 PUSH2 0x2A52 JUMP JUMPDEST PUSH2 0x1CCC JUMP JUMPDEST PUSH1 0x40 MLOAD PUSH2 0x397 SWAP2 SWAP1 PUSH2 0x304D JUMP JUMPDEST PUSH1 0x40 MLOAD DUP1 SWAP2 SUB SWAP1 RETURN JUMPDEST PUSH2 0x3A8 PUSH2 0x1D1E JUMP JUMPDEST PUSH1 0x40 MLOAD PUSH2 0x3B5 SWAP2 SWAP1 PUSH2 0x2C89 JUMP JUMPDEST PUSH1 0x40 MLOAD DUP1 SWAP2 SUB SWAP1 RETURN JUMPDEST PUSH2 0x3C6 PUSH2 0x1DA9 JUMP JUMPDEST PUSH1 0x40 MLOAD PUSH2 0x3D3 SWAP2 SWAP1 PUSH2 0x2ABD JUMP JUMPDEST PUSH1 0x40 MLOAD DUP1 SWAP2 SUB SWAP1 RETURN JUMPDEST PUSH2 0x3E4 PUSH2 0x1E2E JUMP JUMPDEST PUSH1 0x40 MLOAD PUSH2 0x3F1 SWAP2 SWAP1 PUSH2 0x2ABD JUMP JUMPDEST PUSH1 0x40 MLOAD DUP1 SWAP2 SUB SWAP1 RETURN JUMPDEST PUSH2 0x414 PUSH1 0x4 DUP1 CALLDATASIZE SUB DUP2 ADD SWAP1 PUSH2 0x40F SWAP2 SWAP1 PUSH2 0x2A52 JUMP JUMPDEST PUSH2 0x1E35 JUMP JUMPDEST STOP JUMPDEST PUSH2 0x430 PUSH1 0x4 DUP1 CALLDATASIZE SUB DUP2 ADD SWAP1 PUSH2 0x42B SWAP2 SWAP1 PUSH2 0x30BB JUMP JUMPDEST PUSH2 0x1EB7 JUMP JUMPDEST STOP JUMPDEST PUSH2 0x43A PUSH2 0x21C3 JUMP JUMPDEST PUSH1 0x40 MLOAD PUSH2 0x447 SWAP2 SWAP1 PUSH2 0x31A7 JUMP JUMPDEST PUSH1 0x40 MLOAD DUP1 SWAP2 SUB SWAP1 RETURN JUMPDEST PUSH0 PUSH2 0x459 PUSH2 0x21EA JUMP JUMPDEST PUSH0 PUSH20 0xFFFFFFFFFFFFFFFFFFFFFFFFFFFFFFFFFFFFFFFF AND PUSH1 0x3 PUSH0 DUP5 PUSH20 0xFFFFFFFFFFFFFFFFFFFFFFFFFFFFFFFFFFFFFFFF AND PUSH20 0xFFFFFFFFFFFFFFFFFFFFFFFFFFFFFFFFFFFFFFFF AND DUP2 MSTORE PUSH1 0x20 ADD SWAP1 DUP2 MSTORE PUSH1 0x20 ADD PUSH0 KECCAK256 PUSH0 SWAP1 SLOAD SWAP1 PUSH2 0x100 EXP SWAP1 DIV PUSH20 0xFFFFFFFFFFFFFFFFFFFFFFFFFFFFFFFFFFFFFFFF AND PUSH20 0xFFFFFFFFFFFFFFFFFFFFFFFFFFFFFFFFFFFFFFFF AND SUB PUSH2 0x523 JUMPI PUSH1 0x40 MLOAD PUSH32 0x8C379A000000000000000000000000000000000000000000000000000000000 DUP2 MSTORE PUSH1 0x4 ADD PUSH2 0x51A SWAP1 PUSH2 0x320A JUMP JUMPDEST PUSH1 0x40 MLOAD DUP1 SWAP2 SUB SWAP1 REVERT JUMPDEST PUSH1 0x3 PUSH0 DUP4 PUSH20 0xFFFFFFFFFFFFFFFFFFFFFFFFFFFFFFFFFFFFFFFF AND PUSH20 0xFFFFFFFFFFFFFFFFFFFFFFFFFFFFFFFFFFFFFFFF AND DUP2 MSTORE PUSH1 0x20 ADD SWAP1 DUP2 MSTORE PUSH1 0x20 ADD PUSH0 KECCAK256 PUSH0 SWAP1 SLOAD SWAP1 PUSH2 0x100 EXP SWAP1 DIV PUSH20 0xFFFFFFFFFFFFFFFFFFFFFFFFFFFFFFFFFFFFFFFF AND SWAP1 POP SWAP2 SWAP1 POP JUMP JUMPDEST PUSH1 0x8 PUSH0 SWAP1 SLOAD SWAP1 PUSH2 0x100 EXP SWAP1 DIV PUSH20 0xFFFFFFFFFFFFFFFFFFFFFFFFFFFFFFFFFFFFFFFF AND DUP2 JUMP JUMPDEST PUSH2 0x5B4 PUSH2 0x12B5 JUMP JUMPDEST PUSH20 0xFFFFFFFFFFFFFFFFFFFFFFFFFFFFFFFFFFFFFFFF AND CALLER PUSH20 0xFFFFFFFFFFFFFFFFFFFFFFFFFFFFFFFFFFFFFFFF AND EQ DUP1 PUSH2 0x618 JUMPI POP DUP1 PUSH20 0xFFFFFFFFFFFFFFFFFFFFFFFFFFFFFFFFFFFFFFFF AND CALLER PUSH20 0xFFFFFFFFFFFFFFFFFFFFFFFFFFFFFFFFFFFFFFFF AND EQ JUMPDEST PUSH2 0x657 JUMPI PUSH1 0x40 MLOAD PUSH32 0x8C379A000000000000000000000000000000000000000000000000000000000 DUP2 MSTORE PUSH1 0x4 ADD PUSH2 0x64E SWAP1 PUSH2 0x3298 JUMP JUMPDEST PUSH1 0x40 MLOAD DUP1 SWAP2 SUB SWAP1 REVERT JUMPDEST PUSH0 PUSH1 0x1 PUSH0 DUP4 PUSH20 0xFFFFFFFFFFFFFFFFFFFFFFFFFFFFFFFFFFFFFFFF AND PUSH20 0xFFFFFFFFFFFFFFFFFFFFFFFFFFFFFFFFFFFFFFFF AND DUP2 MSTORE PUSH1 0x20 ADD SWAP1 DUP2 MSTORE PUSH1 0x20 ADD PUSH0 KECCAK256 DUP1 SLOAD SWAP1 POP GT PUSH2 0x6D9 JUMPI PUSH1 0x40 MLOAD PUSH32 0x8C379A000000000000000000000000000000000000000000000000000000000 DUP2 MSTORE PUSH1 0x4 ADD PUSH2 0x6D0 SWAP1 PUSH2 0x3300 JUMP JUMPDEST PUSH1 0x40 MLOAD DUP1 SWAP2 SUB SWAP1 REVERT JUMPDEST PUSH0 DUP1 PUSH0 PUSH1 0x1 SWAP1 POP PUSH0 JUMPDEST PUSH1 0x1 PUSH0 DUP7 PUSH20 0xFFFFFFFFFFFFFFFFFFFFFFFFFFFFFFFFFFFFFFFF AND PUSH20 0xFFFFFFFFFFFFFFFFFFFFFFFFFFFFFFFFFFFFFFFF AND DUP2 MSTORE PUSH1 0x20 ADD SWAP1 DUP2 MSTORE PUSH1 0x20 ADD PUSH0 KECCAK256 DUP1 SLOAD SWAP1 POP DUP2 LT ISZERO PUSH2 0xA4C JUMPI DUP2 PUSH1 0x1 PUSH0 DUP8 PUSH20 0xFFFFFFFFFFFFFFFFFFFFFFFFFFFFFFFFFFFFFFFF AND PUSH20 0xFFFFFFFFFFFFFFFFFFFFFFFFFFFFFFFFFFFFFFFF AND DUP2 MSTORE PUSH1 0x20 ADD SWAP1 DUP2 MSTORE PUSH1 0x20 ADD PUSH0 KECCAK256 DUP3 DUP2 SLOAD DUP2 LT PUSH2 0x77A JUMPI PUSH2 0x779 PUSH2 0x331E JUMP JUMPDEST JUMPDEST SWAP1 PUSH0 MSTORE PUSH1 0x20 PUSH0 KECCAK256 SWAP1 PUSH1 0x4 MUL ADD PUSH1 0x2 PUSH1 0x4 DUP2 LT PUSH2 0x799 JUMPI PUSH2 0x798 PUSH2 0x331E JUMP JUMPDEST JUMPDEST ADD SLOAD SUB ISZERO PUSH2 0xA3F JUMPI DUP3 PUSH1 0x1 PUSH0 DUP8 PUSH20 0xFFFFFFFFFFFFFFFFFFFFFFFFFFFFFFFFFFFFFFFF AND PUSH20 0xFFFFFFFFFFFFFFFFFFFFFFFFFFFFFFFFFFFFFFFF AND DUP2 MSTORE PUSH1 0x20 ADD SWAP1 DUP2 MSTORE PUSH1 0x20 ADD PUSH0 KECCAK256 DUP3 DUP2 SLOAD DUP2 LT PUSH2 0x7F1 JUMPI PUSH2 0x7F0 PUSH2 0x331E JUMP JUMPDEST JUMPDEST SWAP1 PUSH0 MSTORE PUSH1 0x20 PUSH0 KECCAK256 SWAP1 PUSH1 0x4 MUL ADD PUSH1 0x3 PUSH1 0x4 DUP2 LT PUSH2 0x810 JUMPI PUSH2 0x80F PUSH2 0x331E JUMP JUMPDEST JUMPDEST ADD SLOAD SUB ISZERO PUSH2 0xA3F JUMPI PUSH2 0x820 PUSH2 0x1E2E JUMP JUMPDEST PUSH1 0x1 PUSH0 DUP8 PUSH20 0xFFFFFFFFFFFFFFFFFFFFFFFFFFFFFFFFFFFFFFFF AND PUSH20 0xFFFFFFFFFFFFFFFFFFFFFFFFFFFFFFFFFFFFFFFF AND DUP2 MSTORE PUSH1 0x20 ADD SWAP1 DUP2 MSTORE PUSH1 0x20 ADD PUSH0 KECCAK256 DUP3 DUP2 SLOAD DUP2 LT PUSH2 0x86F JUMPI PUSH2 0x86E PUSH2 0x331E JUMP JUMPDEST JUMPDEST SWAP1 PUSH0 MSTORE PUSH1 0x20 PUSH0 KECCAK256 SWAP1 PUSH1 0x4 MUL ADD PUSH1 0x1 PUSH1 0x4 DUP2 LT PUSH2 0x88E JUMPI PUSH2 0x88D PUSH2 0x331E JUMP JUMPDEST JUMPDEST ADD SLOAD LT ISZERO PUSH2 0xA4C JUMPI DUP2 PUSH1 0x1 PUSH0 DUP8 PUSH20 0xFFFFFFFFFFFFFFFFFFFFFFFFFFFFFFFFFFFFFFFF AND PUSH20 0xFFFFFFFFFFFFFFFFFFFFFFFFFFFFFFFFFFFFFFFF AND DUP2 MSTORE PUSH1 0x20 ADD SWAP1 DUP2 MSTORE PUSH1 0x20 ADD PUSH0 KECCAK256 DUP3 DUP2 SLOAD DUP2 LT PUSH2 0x8E6 JUMPI PUSH2 0x8E5 PUSH2 0x331E JUMP JUMPDEST JUMPDEST SWAP1 PUSH0 MSTORE PUSH1 0x20 PUSH0 KECCAK256 SWAP1 PUSH1 0x4 MUL ADD PUSH1 0x2 PUSH1 0x4 DUP2 LT PUSH2 0x905 JUMPI PUSH2 0x904 PUSH2 0x331E JUMP JUMPDEST JUMPDEST ADD DUP2 SWAP1 SSTORE POP PUSH1 0x1 PUSH0 DUP7 PUSH20 0xFFFFFFFFFFFFFFFFFFFFFFFFFFFFFFFFFFFFFFFF AND PUSH20 0xFFFFFFFFFFFFFFFFFFFFFFFFFFFFFFFFFFFFFFFF AND DUP2 MSTORE PUSH1 0x20 ADD SWAP1 DUP2 MSTORE PUSH1 0x20 ADD PUSH0 KECCAK256 DUP2 DUP2 SLOAD DUP2 LT PUSH2 0x959 JUMPI PUSH2 0x958 PUSH2 0x331E JUMP JUMPDEST JUMPDEST SWAP1 PUSH0 MSTORE PUSH1 0x20 PUSH0 KECCAK256 SWAP1 PUSH1 0x4 MUL ADD PUSH0 PUSH1 0x4 DUP2 LT PUSH2 0x977 JUMPI PUSH2 0x976 PUSH2 0x331E JUMP JUMPDEST JUMPDEST ADD SLOAD PUSH1 0x6 PUSH0 DUP3 DUP3 SLOAD PUSH2 0x989 SWAP2 SWAP1 PUSH2 0x3378 JUMP JUMPDEST SWAP3 POP POP DUP2 SWAP1 SSTORE POP PUSH2 0xA30 DUP6 PUSH1 0x1 PUSH0 DUP9 PUSH20 0xFFFFFFFFFFFFFFFFFFFFFFFFFFFFFFFFFFFFFFFF AND PUSH20 0xFFFFFFFFFFFFFFFFFFFFFFFFFFFFFFFFFFFFFFFF AND DUP2 MSTORE PUSH1 0x20 ADD SWAP1 DUP2 MSTORE PUSH1 0x20 ADD PUSH0 KECCAK256 DUP4 DUP2 SLOAD DUP2 LT PUSH2 0x9E3 JUMPI PUSH2 0x9E2 PUSH2 0x331E JUMP JUMPDEST JUMPDEST SWAP1 PUSH0 MSTORE PUSH1 0x20 PUSH0 KECCAK256 SWAP1 PUSH1 0x4 MUL ADD PUSH0 PUSH1 0x4 DUP2 LT PUSH2 0xA01 JUMPI PUSH2 0xA00 PUSH2 0x331E JUMP JUMPDEST JUMPDEST ADD SLOAD PUSH2 0xA0B PUSH2 0x21C3 JUMP JUMPDEST PUSH20 0xFFFFFFFFFFFFFFFFFFFFFFFFFFFFFFFFFFFFFFFF AND PUSH2 0x2268 SWAP1 SWAP3 SWAP2 SWAP1 PUSH4 0xFFFFFFFF AND JUMP JUMPDEST DUP4 DUP1 PUSH2 0xA3B SWAP1 PUSH2 0x33AB JUMP JUMPDEST SWAP5 POP POP JUMPDEST DUP1 DUP1 PUSH1 0x1 ADD SWAP2 POP POP PUSH2 0x6E2 JUMP JUMPDEST POP PUSH0 DUP4 SUB PUSH2 0xA8F JUMPI PUSH1 0x40 MLOAD PUSH32 0x8C379A000000000000000000000000000000000000000000000000000000000 DUP2 MSTORE PUSH1 0x4 ADD PUSH2 0xA86 SWAP1 PUSH2 0x3462 JUMP JUMPDEST PUSH1 0x40 MLOAD DUP1 SWAP2 SUB SWAP1 REVERT JUMPDEST POP POP POP POP JUMP JUMPDEST PUSH0 PUSH32 0x0 PUSH20 0xFFFFFFFFFFFFFFFFFFFFFFFFFFFFFFFFFFFFFFFF AND PUSH4 0x313CE567 PUSH1 0x40 MLOAD DUP2 PUSH4 0xFFFFFFFF AND PUSH1 0xE0 SHL DUP2 MSTORE PUSH1 0x4 ADD PUSH1 0x20 PUSH1 0x40 MLOAD DUP1 DUP4 SUB DUP2 DUP7 GAS STATICCALL ISZERO DUP1 ISZERO PUSH2 0xAFF JUMPI RETURNDATASIZE PUSH0 DUP1 RETURNDATACOPY RETURNDATASIZE PUSH0 REVERT JUMPDEST POP POP POP POP PUSH1 0x40 MLOAD RETURNDATASIZE PUSH1 0x1F NOT PUSH1 0x1F DUP3 ADD AND DUP3 ADD DUP1 PUSH1 0x40 MSTORE POP DUP2 ADD SWAP1 PUSH2 0xB23 SWAP2 SWAP1 PUSH2 0x34B6 JUMP JUMPDEST PUSH1 0xFF AND SWAP1 POP SWAP1 JUMP JUMPDEST PUSH2 0xB33 PUSH2 0x21EA JUMP JUMPDEST PUSH0 PUSH1 0x1 PUSH0 DUP7 PUSH20 0xFFFFFFFFFFFFFFFFFFFFFFFFFFFFFFFFFFFFFFFF AND PUSH20 0xFFFFFFFFFFFFFFFFFFFFFFFFFFFFFFFFFFFFFFFF AND DUP2 MSTORE PUSH1 0x20 ADD SWAP1 DUP2 MSTORE PUSH1 0x20 ADD PUSH0 KECCAK256 DUP1 SLOAD SWAP1 POP GT PUSH2 0xBB5 JUMPI PUSH1 0x40 MLOAD PUSH32 0x8C379A000000000000000000000000000000000000000000000000000000000 DUP2 MSTORE PUSH1 0x4 ADD PUSH2 0xBAC SWAP1 PUSH2 0x3300 JUMP JUMPDEST PUSH1 0x40 MLOAD DUP1 SWAP2 SUB SWAP1 REVERT JUMPDEST PUSH1 0x1 PUSH0 DUP6 PUSH20 0xFFFFFFFFFFFFFFFFFFFFFFFFFFFFFFFFFFFFFFFF AND PUSH20 0xFFFFFFFFFFFFFFFFFFFFFFFFFFFFFFFFFFFFFFFF AND DUP2 MSTORE PUSH1 0x20 ADD SWAP1 DUP2 MSTORE PUSH1 0x20 ADD PUSH0 KECCAK256 DUP4 DUP2 SLOAD DUP2 LT PUSH2 0xC04 JUMPI PUSH2 0xC03 PUSH2 0x331E JUMP JUMPDEST JUMPDEST SWAP1 PUSH0 MSTORE PUSH1 0x20 PUSH0 KECCAK256 SWAP1 PUSH1 0x4 MUL ADD PUSH1 0x1 PUSH1 0x4 DUP2 LT PUSH2 0xC23 JUMPI PUSH2 0xC22 PUSH2 0x331E JUMP JUMPDEST JUMPDEST ADD SLOAD PUSH2 0xC2D PUSH2 0x1E2E JUMP JUMPDEST LT DUP1 ISZERO PUSH2 0xCA8 JUMPI POP PUSH0 PUSH1 0x1 PUSH0 DUP7 PUSH20 0xFFFFFFFFFFFFFFFFFFFFFFFFFFFFFFFFFFFFFFFF AND PUSH20 0xFFFFFFFFFFFFFFFFFFFFFFFFFFFFFFFFFFFFFFFF AND DUP2 MSTORE PUSH1 0x20 ADD SWAP1 DUP2 MSTORE PUSH1 0x20 ADD PUSH0 KECCAK256 DUP5 DUP2 SLOAD DUP2 LT PUSH2 0xC85 JUMPI PUSH2 0xC84 PUSH2 0x331E JUMP JUMPDEST JUMPDEST SWAP1 PUSH0 MSTORE PUSH1 0x20 PUSH0 KECCAK256 SWAP1 PUSH1 0x4 MUL ADD PUSH1 0x2 PUSH1 0x4 DUP2 LT PUSH2 0xCA4 JUMPI PUSH2 0xCA3 PUSH2 0x331E JUMP JUMPDEST JUMPDEST ADD SLOAD EQ JUMPDEST DUP1 ISZERO PUSH2 0xD22 JUMPI POP PUSH0 PUSH1 0x1 PUSH0 DUP7 PUSH20 0xFFFFFFFFFFFFFFFFFFFFFFFFFFFFFFFFFFFFFFFF AND PUSH20 0xFFFFFFFFFFFFFFFFFFFFFFFFFFFFFFFFFFFFFFFF AND DUP2 MSTORE PUSH1 0x20 ADD SWAP1 DUP2 MSTORE PUSH1 0x20 ADD PUSH0 KECCAK256 DUP5 DUP2 SLOAD DUP2 LT PUSH2 0xCFF JUMPI PUSH2 0xCFE PUSH2 0x331E JUMP JUMPDEST JUMPDEST SWAP1 PUSH0 MSTORE PUSH1 0x20 PUSH0 KECCAK256 SWAP1 PUSH1 0x4 MUL ADD PUSH1 0x3 PUSH1 0x4 DUP2 LT PUSH2 0xD1E JUMPI PUSH2 0xD1D PUSH2 0x331E JUMP JUMPDEST JUMPDEST ADD SLOAD EQ JUMPDEST ISZERO PUSH2 0xE92 JUMPI PUSH1 0x1 PUSH0 DUP6 PUSH20 0xFFFFFFFFFFFFFFFFFFFFFFFFFFFFFFFFFFFFFFFF AND PUSH20 0xFFFFFFFFFFFFFFFFFFFFFFFFFFFFFFFFFFFFFFFF AND DUP2 MSTORE PUSH1 0x20 ADD SWAP1 DUP2 MSTORE PUSH1 0x20 ADD PUSH0 KECCAK256 DUP4 DUP2 SLOAD DUP2 LT PUSH2 0xD76 JUMPI PUSH2 0xD75 PUSH2 0x331E JUMP JUMPDEST JUMPDEST SWAP1 PUSH0 MSTORE PUSH1 0x20 PUSH0 KECCAK256 SWAP1 PUSH1 0x4 MUL ADD PUSH0 PUSH1 0x4 DUP2 LT PUSH2 0xD94 JUMPI PUSH2 0xD93 PUSH2 0x331E JUMP JUMPDEST JUMPDEST ADD SLOAD PUSH1 0x6 PUSH0 DUP3 DUP3 SLOAD PUSH2 0xDA6 SWAP2 SWAP1 PUSH2 0x3378 JUMP JUMPDEST SWAP3 POP POP DUP2 SWAP1 SSTORE POP PUSH1 0x2 PUSH0 DUP6 PUSH20 0xFFFFFFFFFFFFFFFFFFFFFFFFFFFFFFFFFFFFFFFF AND PUSH20 0xFFFFFFFFFFFFFFFFFFFFFFFFFFFFFFFFFFFFFFFF AND DUP2 MSTORE PUSH1 0x20 ADD SWAP1 DUP2 MSTORE PUSH1 0x20 ADD PUSH0 KECCAK256 DUP3 DUP3 SWAP1 SWAP2 DUP1 PUSH1 0x1 DUP2 SLOAD ADD DUP1 DUP3 SSTORE DUP1 SWAP2 POP POP PUSH1 0x1 SWAP1 SUB SWAP1 PUSH0 MSTORE PUSH1 0x20 PUSH0 KECCAK256 ADD PUSH0 SWAP1 SWAP2 SWAP3 SWAP1 SWAP2 SWAP3 SWAP1 SWAP2 SWAP3 SWAP1 SWAP2 SWAP3 POP SWAP2 DUP3 PUSH2 0xE22 SWAP3 SWAP2 SWAP1 PUSH2 0x3709 JUMP JUMPDEST POP PUSH1 0x5 DUP5 SWAP1 DUP1 PUSH1 0x1 DUP2 SLOAD ADD DUP1 DUP3 SSTORE DUP1 SWAP2 POP POP PUSH1 0x1 SWAP1 SUB SWAP1 PUSH0 MSTORE PUSH1 0x20 PUSH0 KECCAK256 ADD PUSH0 SWAP1 SWAP2 SWAP1 SWAP2 SWAP1 SWAP2 PUSH2 0x100 EXP DUP2 SLOAD DUP2 PUSH20 0xFFFFFFFFFFFFFFFFFFFFFFFFFFFFFFFFFFFFFFFF MUL NOT AND SWAP1 DUP4 PUSH20 0xFFFFFFFFFFFFFFFFFFFFFFFFFFFFFFFFFFFFFFFF AND MUL OR SWAP1 SSTORE POP PUSH2 0xE8D DUP4 DUP6 PUSH2 0x22EE JUMP JUMPDEST PUSH2 0xECD JUMP JUMPDEST PUSH1 0x40 MLOAD PUSH32 0x8C379A000000000000000000000000000000000000000000000000000000000 DUP2 MSTORE PUSH1 0x4 ADD PUSH2 0xEC4 SWAP1 PUSH2 0x3846 JUMP JUMPDEST PUSH1 0x40 MLOAD DUP1 SWAP2 SUB SWAP1 REVERT JUMPDEST PUSH0 PUSH1 0x1 PUSH0 DUP7 PUSH20 0xFFFFFFFFFFFFFFFFFFFFFFFFFFFFFFFFFFFFFFFF AND PUSH20 0xFFFFFFFFFFFFFFFFFFFFFFFFFFFFFFFFFFFFFFFF AND DUP2 MSTORE PUSH1 0x20 ADD SWAP1 DUP2 MSTORE PUSH1 0x20 ADD PUSH0 KECCAK256 DUP1 SLOAD SWAP1 POP SUB PUSH2 0xFF9 JUMPI PUSH1 0x1 PUSH0 DUP6 PUSH20 0xFFFFFFFFFFFFFFFFFFFFFFFFFFFFFFFFFFFFFFFF AND PUSH20 0xFFFFFFFFFFFFFFFFFFFFFFFFFFFFFFFFFFFFFFFF AND DUP2 MSTORE PUSH1 0x20 ADD SWAP1 DUP2 MSTORE PUSH1 0x20 ADD PUSH0 KECCAK256 PUSH0 PUSH2 0xF5C SWAP2 SWAP1 PUSH2 0x2897 JUMP JUMPDEST PUSH0 JUMPDEST PUSH1 0x7 DUP1 SLOAD SWAP1 POP DUP2 LT ISZERO PUSH2 0xFEE JUMPI PUSH1 0x7 DUP2 DUP2 SLOAD DUP2 LT PUSH2 0xF7F JUMPI PUSH2 0xF7E PUSH2 0x331E JUMP JUMPDEST JUMPDEST SWAP1 PUSH0 MSTORE PUSH1 0x20 PUSH0 KECCAK256 ADD PUSH0 SWAP1 SLOAD SWAP1 PUSH2 0x100 EXP SWAP1 DIV PUSH20 0xFFFFFFFFFFFFFFFFFFFFFFFFFFFFFFFFFFFFFFFF AND PUSH20 0xFFFFFFFFFFFFFFFFFFFFFFFFFFFFFFFFFFFFFFFF AND DUP6 PUSH20 0xFFFFFFFFFFFFFFFFFFFFFFFFFFFFFFFFFFFFFFFF AND SUB PUSH2 0xFE1 JUMPI DUP1 SWAP4 POP PUSH2 0xFEE JUMP JUMPDEST DUP1 DUP1 PUSH1 0x1 ADD SWAP2 POP POP PUSH2 0xF5E JUMP JUMPDEST POP PUSH2 0xFF8 DUP4 PUSH2 0x246E JUMP JUMPDEST JUMPDEST POP POP POP POP JUMP JUMPDEST PUSH1 0x60 PUSH2 0x1009 PUSH2 0x21EA JUMP JUMPDEST PUSH1 0x4 DUP1 SLOAD DUP1 PUSH1 0x20 MUL PUSH1 0x20 ADD PUSH1 0x40 MLOAD SWAP1 DUP2 ADD PUSH1 0x40 MSTORE DUP1 SWAP3 SWAP2 SWAP1 DUP2 DUP2 MSTORE PUSH1 0x20 ADD DUP3 DUP1 SLOAD DUP1 ISZERO PUSH2 0x1088 JUMPI PUSH1 0x20 MUL DUP3 ADD SWAP2 SWAP1 PUSH0 MSTORE PUSH1 0x20 PUSH0 KECCAK256 SWAP1 JUMPDEST DUP2 PUSH0 SWAP1 SLOAD SWAP1 PUSH2 0x100 EXP SWAP1 DIV PUSH20 0xFFFFFFFFFFFFFFFFFFFFFFFFFFFFFFFFFFFFFFFF AND PUSH20 0xFFFFFFFFFFFFFFFFFFFFFFFFFFFFFFFFFFFFFFFF AND DUP2 MSTORE PUSH1 0x20 ADD SWAP1 PUSH1 0x1 ADD SWAP1 DUP1 DUP4 GT PUSH2 0x103F JUMPI JUMPDEST POP POP POP POP POP SWAP1 POP SWAP1 JUMP JUMPDEST PUSH0 PUSH1 0x6 SLOAD SWAP1 POP SWAP1 JUMP JUMPDEST PUSH1 0x60 PUSH1 0x7 DUP1 SLOAD DUP1 PUSH1 0x20 MUL PUSH1 0x20 ADD PUSH1 0x40 MLOAD SWAP1 DUP2 ADD PUSH1 0x40 MSTORE DUP1 SWAP3 SWAP2 SWAP1 DUP2 DUP2 MSTORE PUSH1 0x20 ADD DUP3 DUP1 SLOAD DUP1 ISZERO PUSH2 0x111C JUMPI PUSH1 0x20 MUL DUP3 ADD SWAP2 SWAP1 PUSH0 MSTORE PUSH1 0x20 PUSH0 KECCAK256 SWAP1 JUMPDEST DUP2 PUSH0 SWAP1 SLOAD SWAP1 PUSH2 0x100 EXP SWAP1 DIV PUSH20 0xFFFFFFFFFFFFFFFFFFFFFFFFFFFFFFFFFFFFFFFF AND PUSH20 0xFFFFFFFFFFFFFFFFFFFFFFFFFFFFFFFFFFFFFFFF AND DUP2 MSTORE PUSH1 0x20 ADD SWAP1 PUSH1 0x1 ADD SWAP1 DUP1 DUP4 GT PUSH2 0x10D3 JUMPI JUMPDEST POP POP POP POP POP SWAP1 POP SWAP1 JUMP JUMPDEST PUSH2 0x112E PUSH2 0x21EA JUMP JUMPDEST PUSH1 0x40 MLOAD PUSH32 0x8C379A000000000000000000000000000000000000000000000000000000000 DUP2 MSTORE PUSH1 0x4 ADD PUSH2 0x1160 SWAP1 PUSH2 0x38D4 JUMP JUMPDEST PUSH1 0x40 MLOAD DUP1 SWAP2 SUB SWAP1 REVERT JUMPDEST PUSH1 0x60 PUSH0 PUSH1 0x1 PUSH0 DUP5 PUSH20 0xFFFFFFFFFFFFFFFFFFFFFFFFFFFFFFFFFFFFFFFF AND PUSH20 0xFFFFFFFFFFFFFFFFFFFFFFFFFFFFFFFFFFFFFFFF AND DUP2 MSTORE PUSH1 0x20 ADD SWAP1 DUP2 MSTORE PUSH1 0x20 ADD PUSH0 KECCAK256 DUP1 SLOAD SWAP1 POP GT PUSH2 0x11ED JUMPI PUSH1 0x40 MLOAD PUSH32 0x8C379A000000000000000000000000000000000000000000000000000000000 DUP2 MSTORE PUSH1 0x4 ADD PUSH2 0x11E4 SWAP1 PUSH2 0x3300 JUMP JUMPDEST PUSH1 0x40 MLOAD DUP1 SWAP2 SUB SWAP1 REVERT JUMPDEST PUSH1 0x1 PUSH0 DUP4 PUSH20 0xFFFFFFFFFFFFFFFFFFFFFFFFFFFFFFFFFFFFFFFF AND PUSH20 0xFFFFFFFFFFFFFFFFFFFFFFFFFFFFFFFFFFFFFFFF AND DUP2 MSTORE PUSH1 0x20 ADD SWAP1 DUP2 MSTORE PUSH1 0x20 ADD PUSH0 KECCAK256 DUP1 SLOAD DUP1 PUSH1 0x20 MUL PUSH1 0x20 ADD PUSH1 0x40 MLOAD SWAP1 DUP2 ADD PUSH1 0x40 MSTORE DUP1 SWAP3 SWAP2 SWAP1 DUP2 DUP2 MSTORE PUSH1 0x20 ADD PUSH0 SWAP1 JUMPDEST DUP3 DUP3 LT ISZERO PUSH2 0x12AA JUMPI DUP4 DUP3 SWAP1 PUSH0 MSTORE PUSH1 0x20 PUSH0 KECCAK256 SWAP1 PUSH1 0x4 MUL ADD PUSH1 0x4 DUP1 PUSH1 0x20 MUL PUSH1 0x40 MLOAD SWAP1 DUP2 ADD PUSH1 0x40 MSTORE DUP1 SWAP3 SWAP2 SWAP1 DUP3 PUSH1 0x4 DUP1 ISZERO PUSH2 0x1296 JUMPI PUSH1 0x20 MUL DUP3 ADD SWAP2 JUMPDEST DUP2 SLOAD DUP2 MSTORE PUSH1 0x20 ADD SWAP1 PUSH1 0x1 ADD SWAP1 DUP1 DUP4 GT PUSH2 0x1282 JUMPI JUMPDEST POP POP POP POP POP DUP2 MSTORE PUSH1 0x20 ADD SWAP1 PUSH1 0x1 ADD SWAP1 PUSH2 0x1249 JUMP JUMPDEST POP POP POP POP SWAP1 POP SWAP2 SWAP1 POP JUMP JUMPDEST PUSH0 DUP1 PUSH0 SWAP1 SLOAD SWAP1 PUSH2 0x100 EXP SWAP1 DIV PUSH20 0xFFFFFFFFFFFFFFFFFFFFFFFFFFFFFFFFFFFFFFFF AND SWAP1 POP SWAP1 JUMP JUMPDEST PUSH2 0x12E4 PUSH2 0x21EA JUMP JUMPDEST PUSH2 0x12EC PUSH2 0x1092 JUMP JUMPDEST PUSH2 0x12F4 PUSH2 0x1DA9 JUMP JUMPDEST GT PUSH2 0x1334 JUMPI PUSH1 0x40 MLOAD PUSH32 0x8C379A000000000000000000000000000000000000000000000000000000000 DUP2 MSTORE PUSH1 0x4 ADD PUSH2 0x132B SWAP1 PUSH2 0x393C JUMP JUMPDEST PUSH1 0x40 MLOAD DUP1 SWAP2 SUB SWAP1 REVERT JUMPDEST PUSH0 PUSH2 0x133D PUSH2 0x140C JUMP JUMPDEST SWAP1 POP PUSH2 0x1371 DUP3 DUP3 PUSH2 0x134C PUSH2 0x21C3 JUMP JUMPDEST PUSH20 0xFFFFFFFFFFFFFFFFFFFFFFFFFFFFFFFFFFFFFFFF AND PUSH2 0x2268 SWAP1 SWAP3 SWAP2 SWAP1 PUSH4 0xFFFFFFFF AND JUMP JUMPDEST POP POP JUMP JUMPDEST PUSH1 0x60 PUSH32 0x0 PUSH20 0xFFFFFFFFFFFFFFFFFFFFFFFFFFFFFFFFFFFFFFFF AND PUSH4 0x95D89B41 PUSH1 0x40 MLOAD DUP2 PUSH4 0xFFFFFFFF AND PUSH1 0xE0 SHL DUP2 MSTORE PUSH1 0x4 ADD PUSH0 PUSH1 0x40 MLOAD DUP1 DUP4 SUB DUP2 DUP7 GAS STATICCALL ISZERO DUP1 ISZERO PUSH2 0x13DF JUMPI RETURNDATASIZE PUSH0 DUP1 RETURNDATACOPY RETURNDATASIZE PUSH0 REVERT JUMPDEST POP POP POP POP PUSH1 0x40 MLOAD RETURNDATASIZE PUSH0 DUP3 RETURNDATACOPY RETURNDATASIZE PUSH1 0x1F NOT PUSH1 0x1F DUP3 ADD AND DUP3 ADD DUP1 PUSH1 0x40 MSTORE POP DUP2 ADD SWAP1 PUSH2 0x1407 SWAP2 SWAP1 PUSH2 0x3A47 JUMP JUMPDEST SWAP1 POP SWAP1 JUMP JUMPDEST PUSH0 PUSH2 0x1415 PUSH2 0x1092 JUMP JUMPDEST PUSH2 0x141D PUSH2 0x1DA9 JUMP JUMPDEST LT ISZERO PUSH2 0x1427 JUMPI PUSH0 DUP1 REVERT JUMPDEST PUSH0 PUSH2 0x1430 PUSH2 0x1092 JUMP JUMPDEST PUSH2 0x1438 PUSH2 0x1DA9 JUMP JUMPDEST PUSH2 0x1442 SWAP2 SWAP1 PUSH2 0x3378 JUMP JUMPDEST SWAP1 POP DUP1 SWAP2 POP POP SWAP1 JUMP JUMPDEST PUSH2 0x1453 PUSH2 0x21EA JUMP JUMPDEST PUSH0 PUSH1 0x1 PUSH0 DUP6 PUSH20 0xFFFFFFFFFFFFFFFFFFFFFFFFFFFFFFFFFFFFFFFF AND PUSH20 0xFFFFFFFFFFFFFFFFFFFFFFFFFFFFFFFFFFFFFFFF AND DUP2 MSTORE PUSH1 0x20 ADD SWAP1 DUP2 MSTORE PUSH1 0x20 ADD PUSH0 KECCAK256 DUP1 SLOAD SWAP1 POP GT PUSH2 0x14D5 JUMPI PUSH1 0x40 MLOAD PUSH32 0x8C379A000000000000000000000000000000000000000000000000000000000 DUP2 MSTORE PUSH1 0x4 ADD PUSH2 0x14CC SWAP1 PUSH2 0x3300 JUMP JUMPDEST PUSH1 0x40 MLOAD DUP1 SWAP2 SUB SWAP1 REVERT JUMPDEST PUSH2 0x14DD PUSH2 0x1DA9 JUMP JUMPDEST PUSH1 0x6 SLOAD DUP4 PUSH2 0x14EB SWAP2 SWAP1 PUSH2 0x3A8E JUMP JUMPDEST GT ISZERO PUSH2 0x152C JUMPI PUSH1 0x40 MLOAD PUSH32 0x8C379A000000000000000000000000000000000000000000000000000000000 DUP2 MSTORE PUSH1 0x4 ADD PUSH2 0x1523 SWAP1 PUSH2 0x3B31 JUMP JUMPDEST PUSH1 0x40 MLOAD DUP1 SWAP2 SUB SWAP1 REVERT JUMPDEST DUP1 PUSH1 0x1 PUSH0 DUP6 PUSH20 0xFFFFFFFFFFFFFFFFFFFFFFFFFFFFFFFFFFFFFFFF AND PUSH20 0xFFFFFFFFFFFFFFFFFFFFFFFFFFFFFFFFFFFFFFFF AND DUP2 MSTORE PUSH1 0x20 ADD SWAP1 DUP2 MSTORE PUSH1 0x20 ADD PUSH0 KECCAK256 PUSH1 0x1 DUP1 PUSH0 DUP8 PUSH20 0xFFFFFFFFFFFFFFFFFFFFFFFFFFFFFFFFFFFFFFFF AND PUSH20 0xFFFFFFFFFFFFFFFFFFFFFFFFFFFFFFFFFFFFFFFF AND DUP2 MSTORE PUSH1 0x20 ADD SWAP1 DUP2 MSTORE PUSH1 0x20 ADD PUSH0 KECCAK256 DUP1 SLOAD SWAP1 POP PUSH2 0x15B6 SWAP2 SWAP1 PUSH2 0x3378 JUMP JUMPDEST DUP2 SLOAD DUP2 LT PUSH2 0x15C7 JUMPI PUSH2 0x15C6 PUSH2 0x331E JUMP JUMPDEST JUMPDEST SWAP1 PUSH0 MSTORE PUSH1 0x20 PUSH0 KECCAK256 SWAP1 PUSH1 0x4 MUL ADD PUSH1 0x1 PUSH1 0x4 DUP2 LT PUSH2 0x15E6 JUMPI PUSH2 0x15E5 PUSH2 0x331E JUMP JUMPDEST JUMPDEST ADD SLOAD LT PUSH2 0x1628 JUMPI PUSH1 0x40 MLOAD PUSH32 0x8C379A000000000000000000000000000000000000000000000000000000000 DUP2 MSTORE PUSH1 0x4 ADD PUSH2 0x161F SWAP1 PUSH2 0x3BBF JUMP JUMPDEST PUSH1 0x40 MLOAD DUP1 SWAP2 SUB SWAP1 REVERT JUMPDEST DUP1 PUSH2 0x1631 PUSH2 0x1E2E JUMP JUMPDEST LT PUSH2 0x1671 JUMPI PUSH1 0x40 MLOAD PUSH32 0x8C379A000000000000000000000000000000000000000000000000000000000 DUP2 MSTORE PUSH1 0x4 ADD PUSH2 0x1668 SWAP1 PUSH2 0x3C4D JUMP JUMPDEST PUSH1 0x40 MLOAD DUP1 SWAP2 SUB SWAP1 REVERT JUMPDEST PUSH0 DUP1 DUP4 PUSH1 0x6 PUSH0 DUP3 DUP3 SLOAD PUSH2 0x1684 SWAP2 SWAP1 PUSH2 0x3A8E JUMP JUMPDEST SWAP3 POP POP DUP2 SWAP1 SSTORE POP PUSH1 0x1 PUSH0 DUP7 PUSH20 0xFFFFFFFFFFFFFFFFFFFFFFFFFFFFFFFFFFFFFFFF AND PUSH20 0xFFFFFFFFFFFFFFFFFFFFFFFFFFFFFFFFFFFFFFFF AND DUP2 MSTORE PUSH1 0x20 ADD SWAP1 DUP2 MSTORE PUSH1 0x20 ADD PUSH0 KECCAK256 PUSH1 0x40 MLOAD DUP1 PUSH1 0x80 ADD PUSH1 0x40 MSTORE DUP1 DUP7 DUP2 MSTORE PUSH1 0x20 ADD DUP6 DUP2 MSTORE PUSH1 0x20 ADD DUP5 DUP2 MSTORE PUSH1 0x20 ADD DUP4 DUP2 MSTORE POP SWAP1 DUP1 PUSH1 0x1 DUP2 SLOAD ADD DUP1 DUP3 SSTORE DUP1 SWAP2 POP POP PUSH1 0x1 SWAP1 SUB SWAP1 PUSH0 MSTORE PUSH1 0x20 PUSH0 KECCAK256 SWAP1 PUSH1 0x4 MUL ADD PUSH0 SWAP1 SWAP2 SWAP1 SWAP2 SWAP1 SWAP2 POP SWAP1 PUSH1 0x4 PUSH2 0x171D SWAP3 SWAP2 SWAP1 PUSH2 0x28B8 JUMP JUMPDEST POP POP POP POP POP POP JUMP JUMPDEST PUSH0 PUSH1 0x1 PUSH0 CALLER PUSH20 0xFFFFFFFFFFFFFFFFFFFFFFFFFFFFFFFFFFFFFFFF AND PUSH20 0xFFFFFFFFFFFFFFFFFFFFFFFFFFFFFFFFFFFFFFFF AND DUP2 MSTORE PUSH1 0x20 ADD SWAP1 DUP2 MSTORE PUSH1 0x20 ADD PUSH0 KECCAK256 DUP1 SLOAD SWAP1 POP GT PUSH2 0x17A7 JUMPI PUSH1 0x40 MLOAD PUSH32 0x8C379A000000000000000000000000000000000000000000000000000000000 DUP2 MSTORE PUSH1 0x4 ADD PUSH2 0x179E SWAP1 PUSH2 0x3300 JUMP JUMPDEST PUSH1 0x40 MLOAD DUP1 SWAP2 SUB SWAP1 REVERT JUMPDEST PUSH1 0x60 PUSH1 0x1 PUSH0 CALLER PUSH20 0xFFFFFFFFFFFFFFFFFFFFFFFFFFFFFFFFFFFFFFFF AND PUSH20 0xFFFFFFFFFFFFFFFFFFFFFFFFFFFFFFFFFFFFFFFF AND DUP2 MSTORE PUSH1 0x20 ADD SWAP1 DUP2 MSTORE PUSH1 0x20 ADD PUSH0 KECCAK256 DUP1 SLOAD DUP1 PUSH1 0x20 MUL PUSH1 0x20 ADD PUSH1 0x40 MLOAD SWAP1 DUP2 ADD PUSH1 0x40 MSTORE DUP1 SWAP3 SWAP2 SWAP1 DUP2 DUP2 MSTORE PUSH1 0x20 ADD PUSH0 SWAP1 JUMPDEST DUP3 DUP3 LT ISZERO PUSH2 0x1866 JUMPI DUP4 DUP3 SWAP1 PUSH0 MSTORE PUSH1 0x20 PUSH0 KECCAK256 SWAP1 PUSH1 0x4 MUL ADD PUSH1 0x4 DUP1 PUSH1 0x20 MUL PUSH1 0x40 MLOAD SWAP1 DUP2 ADD PUSH1 0x40 MSTORE DUP1 SWAP3 SWAP2 SWAP1 DUP3 PUSH1 0x4 DUP1 ISZERO PUSH2 0x1852 JUMPI PUSH1 0x20 MUL DUP3 ADD SWAP2 JUMPDEST DUP2 SLOAD DUP2 MSTORE PUSH1 0x20 ADD SWAP1 PUSH1 0x1 ADD SWAP1 DUP1 DUP4 GT PUSH2 0x183E JUMPI JUMPDEST POP POP POP POP POP DUP2 MSTORE PUSH1 0x20 ADD SWAP1 PUSH1 0x1 ADD SWAP1 PUSH2 0x1805 JUMP JUMPDEST POP POP POP POP SWAP1 POP PUSH1 0x1 PUSH0 CALLER PUSH20 0xFFFFFFFFFFFFFFFFFFFFFFFFFFFFFFFFFFFFFFFF AND PUSH20 0xFFFFFFFFFFFFFFFFFFFFFFFFFFFFFFFFFFFFFFFF AND DUP2 MSTORE PUSH1 0x20 ADD SWAP1 DUP2 MSTORE PUSH1 0x20 ADD PUSH0 KECCAK256 PUSH0 PUSH2 0x18B4 SWAP2 SWAP1 PUSH2 0x2897 JUMP JUMPDEST DUP1 PUSH1 0x1 PUSH0 DUP5 PUSH20 0xFFFFFFFFFFFFFFFFFFFFFFFFFFFFFFFFFFFFFFFF AND PUSH20 0xFFFFFFFFFFFFFFFFFFFFFFFFFFFFFFFFFFFFFFFF AND DUP2 MSTORE PUSH1 0x20 ADD SWAP1 DUP2 MSTORE PUSH1 0x20 ADD PUSH0 KECCAK256 SWAP1 DUP1 MLOAD SWAP1 PUSH1 0x20 ADD SWAP1 PUSH2 0x1905 SWAP3 SWAP2 SWAP1 PUSH2 0x28F8 JUMP JUMPDEST POP PUSH0 DUP1 PUSH0 SWAP1 POP JUMPDEST PUSH1 0x7 DUP1 SLOAD SWAP1 POP DUP2 LT ISZERO PUSH2 0x19A2 JUMPI PUSH0 CALLER SWAP1 POP PUSH1 0x7 DUP3 DUP2 SLOAD DUP2 LT PUSH2 0x1931 JUMPI PUSH2 0x1930 PUSH2 0x331E JUMP JUMPDEST JUMPDEST SWAP1 PUSH0 MSTORE PUSH1 0x20 PUSH0 KECCAK256 ADD PUSH0 SWAP1 SLOAD SWAP1 PUSH2 0x100 EXP SWAP1 DIV PUSH20 0xFFFFFFFFFFFFFFFFFFFFFFFFFFFFFFFFFFFFFFFF AND PUSH20 0xFFFFFFFFFFFFFFFFFFFFFFFFFFFFFFFFFFFFFFFF AND DUP2 PUSH20 0xFFFFFFFFFFFFFFFFFFFFFFFFFFFFFFFFFFFFFFFF AND SUB PUSH2 0x1994 JUMPI DUP2 SWAP3 POP POP PUSH2 0x19A2 JUMP JUMPDEST POP DUP1 DUP1 PUSH1 0x1 ADD SWAP2 POP POP PUSH2 0x190C JUMP JUMPDEST POP DUP3 PUSH1 0x7 DUP3 DUP2 SLOAD DUP2 LT PUSH2 0x19B8 JUMPI PUSH2 0x19B7 PUSH2 0x331E JUMP JUMPDEST JUMPDEST SWAP1 PUSH0 MSTORE PUSH1 0x20 PUSH0 KECCAK256 ADD PUSH0 PUSH2 0x100 EXP DUP2 SLOAD DUP2 PUSH20 0xFFFFFFFFFFFFFFFFFFFFFFFFFFFFFFFFFFFFFFFF MUL NOT AND SWAP1 DUP4 PUSH20 0xFFFFFFFFFFFFFFFFFFFFFFFFFFFFFFFFFFFFFFFF AND MUL OR SWAP1 SSTORE POP PUSH1 0x4 CALLER SWAP1 DUP1 PUSH1 0x1 DUP2 SLOAD ADD DUP1 DUP3 SSTORE DUP1 SWAP2 POP POP PUSH1 0x1 SWAP1 SUB SWAP1 PUSH0 MSTORE PUSH1 0x20 PUSH0 KECCAK256 ADD PUSH0 SWAP1 SWAP2 SWAP1 SWAP2 SWAP1 SWAP2 PUSH2 0x100 EXP DUP2 SLOAD DUP2 PUSH20 0xFFFFFFFFFFFFFFFFFFFFFFFFFFFFFFFFFFFFFFFF MUL NOT AND SWAP1 DUP4 PUSH20 0xFFFFFFFFFFFFFFFFFFFFFFFFFFFFFFFFFFFFFFFF AND MUL OR SWAP1 SSTORE POP DUP3 PUSH1 0x3 PUSH0 CALLER PUSH20 0xFFFFFFFFFFFFFFFFFFFFFFFFFFFFFFFFFFFFFFFF AND PUSH20 0xFFFFFFFFFFFFFFFFFFFFFFFFFFFFFFFFFFFFFFFF AND DUP2 MSTORE PUSH1 0x20 ADD SWAP1 DUP2 MSTORE PUSH1 0x20 ADD PUSH0 KECCAK256 PUSH0 PUSH2 0x100 EXP DUP2 SLOAD DUP2 PUSH20 0xFFFFFFFFFFFFFFFFFFFFFFFFFFFFFFFFFFFFFFFF MUL NOT AND SWAP1 DUP4 PUSH20 0xFFFFFFFFFFFFFFFFFFFFFFFFFFFFFFFFFFFFFFFF AND MUL OR SWAP1 SSTORE POP POP POP POP JUMP JUMPDEST PUSH1 0x60 PUSH0 DUP1 JUMPDEST PUSH1 0x5 DUP1 SLOAD SWAP1 POP DUP2 LT ISZERO PUSH2 0x1B79 JUMPI PUSH1 0x5 DUP2 DUP2 SLOAD DUP2 LT PUSH2 0x1B03 JUMPI PUSH2 0x1B02 PUSH2 0x331E JUMP JUMPDEST JUMPDEST SWAP1 PUSH0 MSTORE PUSH1 0x20 PUSH0 KECCAK256 ADD PUSH0 SWAP1 SLOAD SWAP1 PUSH2 0x100 EXP SWAP1 DIV PUSH20 0xFFFFFFFFFFFFFFFFFFFFFFFFFFFFFFFFFFFFFFFF AND PUSH20 0xFFFFFFFFFFFFFFFFFFFFFFFFFFFFFFFFFFFFFFFF AND DUP5 PUSH20 0xFFFFFFFFFFFFFFFFFFFFFFFFFFFFFFFFFFFFFFFF AND SUB PUSH2 0x1B6C JUMPI DUP2 DUP1 PUSH2 0x1B68 SWAP1 PUSH2 0x33AB JUMP JUMPDEST SWAP3 POP POP JUMPDEST DUP1 DUP1 PUSH1 0x1 ADD SWAP2 POP POP PUSH2 0x1AE2 JUMP JUMPDEST POP PUSH0 DUP2 GT PUSH2 0x1BBC JUMPI PUSH1 0x40 MLOAD PUSH32 0x8C379A000000000000000000000000000000000000000000000000000000000 DUP2 MSTORE PUSH1 0x4 ADD PUSH2 0x1BB3 SWAP1 PUSH2 0x3CDB JUMP JUMPDEST PUSH1 0x40 MLOAD DUP1 SWAP2 SUB SWAP1 REVERT JUMPDEST PUSH1 0x2 PUSH0 DUP5 PUSH20 0xFFFFFFFFFFFFFFFFFFFFFFFFFFFFFFFFFFFFFFFF AND PUSH20 0xFFFFFFFFFFFFFFFFFFFFFFFFFFFFFFFFFFFFFFFF AND DUP2 MSTORE PUSH1 0x20 ADD SWAP1 DUP2 MSTORE PUSH1 0x20 ADD PUSH0 KECCAK256 DUP1 SLOAD DUP1 PUSH1 0x20 MUL PUSH1 0x20 ADD PUSH1 0x40 MLOAD SWAP1 DUP2 ADD PUSH1 0x40 MSTORE DUP1 SWAP3 SWAP2 SWAP1 DUP2 DUP2 MSTORE PUSH1 0x20 ADD PUSH0 SWAP1 JUMPDEST DUP3 DUP3 LT ISZERO PUSH2 0x1CC0 JUMPI DUP4 DUP3 SWAP1 PUSH0 MSTORE PUSH1 0x20 PUSH0 KECCAK256 ADD DUP1 SLOAD PUSH2 0x1C35 SWAP1 PUSH2 0x3545 JUMP JUMPDEST DUP1 PUSH1 0x1F ADD PUSH1 0x20 DUP1 SWAP2 DIV MUL PUSH1 0x20 ADD PUSH1 0x40 MLOAD SWAP1 DUP2 ADD PUSH1 0x40 MSTORE DUP1 SWAP3 SWAP2 SWAP1 DUP2 DUP2 MSTORE PUSH1 0x20 ADD DUP3 DUP1 SLOAD PUSH2 0x1C61 SWAP1 PUSH2 0x3545 JUMP JUMPDEST DUP1 ISZERO PUSH2 0x1CAC JUMPI DUP1 PUSH1 0x1F LT PUSH2 0x1C83 JUMPI PUSH2 0x100 DUP1 DUP4 SLOAD DIV MUL DUP4 MSTORE SWAP2 PUSH1 0x20 ADD SWAP2 PUSH2 0x1CAC JUMP JUMPDEST DUP3 ADD SWAP2 SWAP1 PUSH0 MSTORE PUSH1 0x20 PUSH0 KECCAK256 SWAP1 JUMPDEST DUP2 SLOAD DUP2 MSTORE SWAP1 PUSH1 0x1 ADD SWAP1 PUSH1 0x20 ADD DUP1 DUP4 GT PUSH2 0x1C8F JUMPI DUP3 SWAP1 SUB PUSH1 0x1F AND DUP3 ADD SWAP2 JUMPDEST POP POP POP POP POP DUP2 MSTORE PUSH1 0x20 ADD SWAP1 PUSH1 0x1 ADD SWAP1 PUSH2 0x1C18 JUMP JUMPDEST POP POP POP POP SWAP2 POP POP SWAP2 SWAP1 POP JUMP JUMPDEST PUSH0 PUSH2 0x1CD5 PUSH2 0x21EA JUMP JUMPDEST DUP2 PUSH1 0x8 PUSH0 PUSH2 0x100 EXP DUP2 SLOAD DUP2 PUSH20 0xFFFFFFFFFFFFFFFFFFFFFFFFFFFFFFFFFFFFFFFF MUL NOT AND SWAP1 DUP4 PUSH20 0xFFFFFFFFFFFFFFFFFFFFFFFFFFFFFFFFFFFFFFFF AND MUL OR SWAP1 SSTORE POP PUSH1 0x1 SWAP1 POP SWAP2 SWAP1 POP JUMP JUMPDEST PUSH1 0x60 PUSH1 0x5 DUP1 SLOAD DUP1 PUSH1 0x20 MUL PUSH1 0x20 ADD PUSH1 0x40 MLOAD SWAP1 DUP2 ADD PUSH1 0x40 MSTORE DUP1 SWAP3 SWAP2 SWAP1 DUP2 DUP2 MSTORE PUSH1 0x20 ADD DUP3 DUP1 SLOAD DUP1 ISZERO PUSH2 0x1D9F JUMPI PUSH1 0x20 MUL DUP3 ADD SWAP2 SWAP1 PUSH0 MSTORE PUSH1 0x20 PUSH0 KECCAK256 SWAP1 JUMPDEST DUP2 PUSH0 SWAP1 SLOAD SWAP1 PUSH2 0x100 EXP SWAP1 DIV PUSH20 0xFFFFFFFFFFFFFFFFFFFFFFFFFFFFFFFFFFFFFFFF AND PUSH20 0xFFFFFFFFFFFFFFFFFFFFFFFFFFFFFFFFFFFFFFFF AND DUP2 MSTORE PUSH1 0x20 ADD SWAP1 PUSH1 0x1 ADD SWAP1 DUP1 DUP4 GT PUSH2 0x1D56 JUMPI JUMPDEST POP POP POP POP POP SWAP1 POP SWAP1 JUMP JUMPDEST PUSH0 PUSH2 0x1DB2 PUSH2 0x21C3 JUMP JUMPDEST PUSH20 0xFFFFFFFFFFFFFFFFFFFFFFFFFFFFFFFFFFFFFFFF AND PUSH4 0x70A08231 ADDRESS PUSH1 0x40 MLOAD DUP3 PUSH4 0xFFFFFFFF AND PUSH1 0xE0 SHL DUP2 MSTORE PUSH1 0x4 ADD PUSH2 0x1DEA SWAP2 SWAP1 PUSH2 0x2A8C JUMP JUMPDEST PUSH1 0x20 PUSH1 0x40 MLOAD DUP1 DUP4 SUB DUP2 DUP7 GAS STATICCALL ISZERO DUP1 ISZERO PUSH2 0x1E05 JUMPI RETURNDATASIZE PUSH0 DUP1 RETURNDATACOPY RETURNDATASIZE PUSH0 REVERT JUMPDEST POP POP POP POP PUSH1 0x40 MLOAD RETURNDATASIZE PUSH1 0x1F NOT PUSH1 0x1F DUP3 ADD AND DUP3 ADD DUP1 PUSH1 0x40 MSTORE POP DUP2 ADD SWAP1 PUSH2 0x1E29 SWAP2 SWAP1 PUSH2 0x3D0D JUMP JUMPDEST SWAP1 POP SWAP1 JUMP JUMPDEST PUSH0 TIMESTAMP SWAP1 POP SWAP1 JUMP JUMPDEST PUSH2 0x1E3D PUSH2 0x21EA JUMP JUMPDEST PUSH0 PUSH20 0xFFFFFFFFFFFFFFFFFFFFFFFFFFFFFFFFFFFFFFFF AND DUP2 PUSH20 0xFFFFFFFFFFFFFFFFFFFFFFFFFFFFFFFFFFFFFFFF AND SUB PUSH2 0x1EAB JUMPI PUSH1 0x40 MLOAD PUSH32 0x8C379A000000000000000000000000000000000000000000000000000000000 DUP2 MSTORE PUSH1 0x4 ADD PUSH2 0x1EA2 SWAP1 PUSH2 0x3DA8 JUMP JUMPDEST PUSH1 0x40 MLOAD DUP1 SWAP2 SUB SWAP1 REVERT JUMPDEST PUSH2 0x1EB4 DUP2 PUSH2 0x255B JUMP JUMPDEST POP JUMP JUMPDEST PUSH2 0x1EBF PUSH2 0x21EA JUMP JUMPDEST DUP2 DUP2 SWAP1 POP DUP5 DUP5 SWAP1 POP EQ DUP1 ISZERO PUSH2 0x1ED8 JUMPI POP PUSH1 0x1 DUP5 DUP5 SWAP1 POP LT ISZERO JUMPDEST PUSH2 0x1F17 JUMPI PUSH1 0x40 MLOAD PUSH32 0x8C379A000000000000000000000000000000000000000000000000000000000 DUP2 MSTORE PUSH1 0x4 ADD PUSH2 0x1F0E SWAP1 PUSH2 0x3E5C JUMP JUMPDEST PUSH1 0x40 MLOAD DUP1 SWAP2 SUB SWAP1 REVERT JUMPDEST PUSH0 PUSH1 0x1 PUSH0 DUP8 PUSH20 0xFFFFFFFFFFFFFFFFFFFFFFFFFFFFFFFFFFFFFFFF AND PUSH20 0xFFFFFFFFFFFFFFFFFFFFFFFFFFFFFFFFFFFFFFFF AND DUP2 MSTORE PUSH1 0x20 ADD SWAP1 DUP2 MSTORE PUSH1 0x20 ADD PUSH0 KECCAK256 DUP1 SLOAD SWAP1 POP EQ PUSH2 0x1F99 JUMPI PUSH1 0x40 MLOAD PUSH32 0x8C379A000000000000000000000000000000000000000000000000000000000 DUP2 MSTORE PUSH1 0x4 ADD PUSH2 0x1F90 SWAP1 PUSH2 0x3EC4 JUMP JUMPDEST PUSH1 0x40 MLOAD DUP1 SWAP2 SUB SWAP1 REVERT JUMPDEST PUSH0 DUP1 PUSH0 JUMPDEST DUP7 DUP7 SWAP1 POP DUP2 LT ISZERO PUSH2 0x2159 JUMPI DUP5 DUP5 DUP3 DUP2 DUP2 LT PUSH2 0x1FBB JUMPI PUSH2 0x1FBA PUSH2 0x331E JUMP JUMPDEST JUMPDEST SWAP1 POP PUSH1 0x20 MUL ADD CALLDATALOAD PUSH2 0x1FCA PUSH2 0x1E2E JUMP JUMPDEST LT PUSH2 0x200A JUMPI PUSH1 0x40 MLOAD PUSH32 0x8C379A000000000000000000000000000000000000000000000000000000000 DUP2 MSTORE PUSH1 0x4 ADD PUSH2 0x2001 SWAP1 PUSH2 0x3C4D JUMP JUMPDEST PUSH1 0x40 MLOAD DUP1 SWAP2 SUB SWAP1 REVERT JUMPDEST DUP7 DUP7 DUP3 DUP2 DUP2 LT PUSH2 0x201D JUMPI PUSH2 0x201C PUSH2 0x331E JUMP JUMPDEST JUMPDEST SWAP1 POP PUSH1 0x20 MUL ADD CALLDATALOAD PUSH1 0x6 PUSH0 DUP3 DUP3 SLOAD PUSH2 0x2034 SWAP2 SWAP1 PUSH2 0x3A8E JUMP JUMPDEST SWAP3 POP POP DUP2 SWAP1 SSTORE POP PUSH2 0x2043 PUSH2 0x1DA9 JUMP JUMPDEST PUSH1 0x6 SLOAD GT ISZERO PUSH2 0x2087 JUMPI PUSH1 0x40 MLOAD PUSH32 0x8C379A000000000000000000000000000000000000000000000000000000000 DUP2 MSTORE PUSH1 0x4 ADD PUSH2 0x207E SWAP1 PUSH2 0x3F52 JUMP JUMPDEST PUSH1 0x40 MLOAD DUP1 SWAP2 SUB SWAP1 REVERT JUMPDEST PUSH1 0x1 PUSH0 DUP10 PUSH20 0xFFFFFFFFFFFFFFFFFFFFFFFFFFFFFFFFFFFFFFFF AND PUSH20 0xFFFFFFFFFFFFFFFFFFFFFFFFFFFFFFFFFFFFFFFF AND DUP2 MSTORE PUSH1 0x20 ADD SWAP1 DUP2 MSTORE PUSH1 0x20 ADD PUSH0 KECCAK256 PUSH1 0x40 MLOAD DUP1 PUSH1 0x80 ADD PUSH1 0x40 MSTORE DUP1 DUP10 DUP10 DUP6 DUP2 DUP2 LT PUSH2 0x20E2 JUMPI PUSH2 0x20E1 PUSH2 0x331E JUMP JUMPDEST JUMPDEST SWAP1 POP PUSH1 0x20 MUL ADD CALLDATALOAD DUP2 MSTORE PUSH1 0x20 ADD DUP8 DUP8 DUP6 DUP2 DUP2 LT PUSH2 0x2101 JUMPI PUSH2 0x2100 PUSH2 0x331E JUMP JUMPDEST JUMPDEST SWAP1 POP PUSH1 0x20 MUL ADD CALLDATALOAD DUP2 MSTORE PUSH1 0x20 ADD DUP6 DUP2 MSTORE PUSH1 0x20 ADD DUP5 DUP2 MSTORE POP SWAP1 DUP1 PUSH1 0x1 DUP2 SLOAD ADD DUP1 DUP3 SSTORE DUP1 SWAP2 POP POP PUSH1 0x1 SWAP1 SUB SWAP1 PUSH0 MSTORE PUSH1 0x20 PUSH0 KECCAK256 SWAP1 PUSH1 0x4 MUL ADD PUSH0 SWAP1 SWAP2 SWAP1 SWAP2 SWAP1 SWAP2 POP SWAP1 PUSH1 0x4 PUSH2 0x214B SWAP3 SWAP2 SWAP1 PUSH2 0x28B8 JUMP JUMPDEST POP DUP1 DUP1 PUSH1 0x1 ADD SWAP2 POP POP PUSH2 0x1F9D JUMP JUMPDEST POP PUSH1 0x7 DUP8 SWAP1 DUP1 PUSH1 0x1 DUP2 SLOAD ADD DUP1 DUP3 SSTORE DUP1 SWAP2 POP POP PUSH1 0x1 SWAP1 SUB SWAP1 PUSH0 MSTORE PUSH1 0x20 PUSH0 KECCAK256 ADD PUSH0 SWAP1 SWAP2 SWAP1 SWAP2 SWAP1 SWAP2 PUSH2 0x100 EXP DUP2 SLOAD DUP2 PUSH20 0xFFFFFFFFFFFFFFFFFFFFFFFFFFFFFFFFFFFFFFFF MUL NOT AND SWAP1 DUP4 PUSH20 0xFFFFFFFFFFFFFFFFFFFFFFFFFFFFFFFFFFFFFFFF AND MUL OR SWAP1 SSTORE POP POP POP POP POP POP POP POP JUMP JUMPDEST PUSH0 PUSH32 0x0 SWAP1 POP SWAP1 JUMP JUMPDEST PUSH2 0x21F2 PUSH2 0x261C JUMP JUMPDEST PUSH20 0xFFFFFFFFFFFFFFFFFFFFFFFFFFFFFFFFFFFFFFFF AND PUSH2 0x2210 PUSH2 0x12B5 JUMP JUMPDEST PUSH20 0xFFFFFFFFFFFFFFFFFFFFFFFFFFFFFFFFFFFFFFFF AND EQ PUSH2 0x2266 JUMPI PUSH1 0x40 MLOAD PUSH32 0x8C379A000000000000000000000000000000000000000000000000000000000 DUP2 MSTORE PUSH1 0x4 ADD PUSH2 0x225D SWAP1 PUSH2 0x3FBA JUMP JUMPDEST PUSH1 0x40 MLOAD DUP1 SWAP2 SUB SWAP1 REVERT JUMPDEST JUMP JUMPDEST PUSH2 0x22E9 DUP4 PUSH4 0xA9059CBB PUSH1 0xE0 SHL DUP5 DUP5 PUSH1 0x40 MLOAD PUSH1 0x24 ADD PUSH2 0x2287 SWAP3 SWAP2 SWAP1 PUSH2 0x3FD8 JUMP JUMPDEST PUSH1 0x40 MLOAD PUSH1 0x20 DUP2 DUP4 SUB SUB DUP2 MSTORE SWAP1 PUSH1 0x40 MSTORE SWAP1 PUSH28 0xFFFFFFFFFFFFFFFFFFFFFFFFFFFFFFFFFFFFFFFFFFFFFFFFFFFFFFFF NOT AND PUSH1 0x20 DUP3 ADD DUP1 MLOAD PUSH28 0xFFFFFFFFFFFFFFFFFFFFFFFFFFFFFFFFFFFFFFFFFFFFFFFFFFFFFFFF DUP4 DUP2 DUP4 AND OR DUP4 MSTORE POP POP POP POP PUSH2 0x2623 JUMP JUMPDEST POP POP POP JUMP JUMPDEST PUSH1 0x1 PUSH0 DUP3 PUSH20 0xFFFFFFFFFFFFFFFFFFFFFFFFFFFFFFFFFFFFFFFF AND PUSH20 0xFFFFFFFFFFFFFFFFFFFFFFFFFFFFFFFFFFFFFFFF AND DUP2 MSTORE PUSH1 0x20 ADD SWAP1 DUP2 MSTORE PUSH1 0x20 ADD PUSH0 KECCAK256 PUSH1 0x1 DUP1 PUSH0 DUP5 PUSH20 0xFFFFFFFFFFFFFFFFFFFFFFFFFFFFFFFFFFFFFFFF AND PUSH20 0xFFFFFFFFFFFFFFFFFFFFFFFFFFFFFFFFFFFFFFFF AND DUP2 MSTORE PUSH1 0x20 ADD SWAP1 DUP2 MSTORE PUSH1 0x20 ADD PUSH0 KECCAK256 DUP1 SLOAD SWAP1 POP PUSH2 0x2377 SWAP2 SWAP1 PUSH2 0x3378 JUMP JUMPDEST DUP2 SLOAD DUP2 LT PUSH2 0x2388 JUMPI PUSH2 0x2387 PUSH2 0x331E JUMP JUMPDEST JUMPDEST SWAP1 PUSH0 MSTORE PUSH1 0x20 PUSH0 KECCAK256 SWAP1 PUSH1 0x4 MUL ADD PUSH1 0x1 PUSH0 DUP4 PUSH20 0xFFFFFFFFFFFFFFFFFFFFFFFFFFFFFFFFFFFFFFFF AND PUSH20 0xFFFFFFFFFFFFFFFFFFFFFFFFFFFFFFFFFFFFFFFF AND DUP2 MSTORE PUSH1 0x20 ADD SWAP1 DUP2 MSTORE PUSH1 0x20 ADD PUSH0 KECCAK256 DUP4 DUP2 SLOAD DUP2 LT PUSH2 0x23E3 JUMPI PUSH2 0x23E2 PUSH2 0x331E JUMP JUMPDEST JUMPDEST SWAP1 PUSH0 MSTORE PUSH1 0x20 PUSH0 KECCAK256 SWAP1 PUSH1 0x4 MUL ADD SWAP1 PUSH1 0x4 PUSH2 0x23FD SWAP3 SWAP2 SWAP1 PUSH2 0x2954 JUMP JUMPDEST POP PUSH1 0x1 PUSH0 DUP3 PUSH20 0xFFFFFFFFFFFFFFFFFFFFFFFFFFFFFFFFFFFFFFFF AND PUSH20 0xFFFFFFFFFFFFFFFFFFFFFFFFFFFFFFFFFFFFFFFF AND DUP2 MSTORE PUSH1 0x20 ADD SWAP1 DUP2 MSTORE PUSH1 0x20 ADD PUSH0 KECCAK256 DUP1 SLOAD DUP1 PUSH2 0x244B JUMPI PUSH2 0x244A PUSH2 0x3FFF JUMP JUMPDEST JUMPDEST PUSH1 0x1 SWAP1 SUB DUP2 DUP2 SWAP1 PUSH0 MSTORE PUSH1 0x20 PUSH0 KECCAK256 SWAP1 PUSH1 0x4 MUL ADD PUSH0 PUSH2 0x2468 SWAP2 SWAP1 PUSH2 0x2991 JUMP JUMPDEST SWAP1 SSTORE POP POP JUMP JUMPDEST PUSH1 0x7 PUSH1 0x1 PUSH1 0x7 DUP1 SLOAD SWAP1 POP PUSH2 0x2482 SWAP2 SWAP1 PUSH2 0x3378 JUMP JUMPDEST DUP2 SLOAD DUP2 LT PUSH2 0x2493 JUMPI PUSH2 0x2492 PUSH2 0x331E JUMP JUMPDEST JUMPDEST SWAP1 PUSH0 MSTORE PUSH1 0x20 PUSH0 KECCAK256 ADD PUSH0 SWAP1 SLOAD SWAP1 PUSH2 0x100 EXP SWAP1 DIV PUSH20 0xFFFFFFFFFFFFFFFFFFFFFFFFFFFFFFFFFFFFFFFF AND PUSH1 0x7 DUP3 DUP2 SLOAD DUP2 LT PUSH2 0x24CF JUMPI PUSH2 0x24CE PUSH2 0x331E JUMP JUMPDEST JUMPDEST SWAP1 PUSH0 MSTORE PUSH1 0x20 PUSH0 KECCAK256 ADD PUSH0 PUSH2 0x100 EXP DUP2 SLOAD DUP2 PUSH20 0xFFFFFFFFFFFFFFFFFFFFFFFFFFFFFFFFFFFFFFFF MUL NOT AND SWAP1 DUP4 PUSH20 0xFFFFFFFFFFFFFFFFFFFFFFFFFFFFFFFFFFFFFFFF AND MUL OR SWAP1 SSTORE POP PUSH1 0x7 DUP1 SLOAD DUP1 PUSH2 0x2526 JUMPI PUSH2 0x2525 PUSH2 0x3FFF JUMP JUMPDEST JUMPDEST PUSH1 0x1 SWAP1 SUB DUP2 DUP2 SWAP1 PUSH0 MSTORE PUSH1 0x20 PUSH0 KECCAK256 ADD PUSH0 PUSH2 0x100 EXP DUP2 SLOAD SWAP1 PUSH20 0xFFFFFFFFFFFFFFFFFFFFFFFFFFFFFFFFFFFFFFFF MUL NOT AND SWAP1 SSTORE SWAP1 SSTORE POP JUMP JUMPDEST PUSH0 DUP1 PUSH0 SWAP1 SLOAD SWAP1 PUSH2 0x100 EXP SWAP1 DIV PUSH20 0xFFFFFFFFFFFFFFFFFFFFFFFFFFFFFFFFFFFFFFFF AND SWAP1 POP DUP2 PUSH0 DUP1 PUSH2 0x100 EXP DUP2 SLOAD DUP2 PUSH20 0xFFFFFFFFFFFFFFFFFFFFFFFFFFFFFFFFFFFFFFFF MUL NOT AND SWAP1 DUP4 PUSH20 0xFFFFFFFFFFFFFFFFFFFFFFFFFFFFFFFFFFFFFFFF AND MUL OR SWAP1 SSTORE POP DUP2 PUSH20 0xFFFFFFFFFFFFFFFFFFFFFFFFFFFFFFFFFFFFFFFF AND DUP2 PUSH20 0xFFFFFFFFFFFFFFFFFFFFFFFFFFFFFFFFFFFFFFFF AND PUSH32 0x8BE0079C531659141344CD1FD0A4F28419497F9722A3DAAFE3B4186F6B6457E0 PUSH1 0x40 MLOAD PUSH1 0x40 MLOAD DUP1 SWAP2 SUB SWAP1 LOG3 POP POP JUMP JUMPDEST PUSH0 CALLER SWAP1 POP SWAP1 JUMP JUMPDEST PUSH0 PUSH2 0x2684 DUP3 PUSH1 0x40 MLOAD DUP1 PUSH1 0x40 ADD PUSH1 0x40 MSTORE DUP1 PUSH1 0x20 DUP2 MSTORE PUSH1 0x20 ADD PUSH32 0x5361666545524332303A206C6F772D6C6576656C2063616C6C206661696C6564 DUP2 MSTORE POP DUP6 PUSH20 0xFFFFFFFFFFFFFFFFFFFFFFFFFFFFFFFFFFFFFFFF AND PUSH2 0x26E8 SWAP1 SWAP3 SWAP2 SWAP1 PUSH4 0xFFFFFFFF AND JUMP JUMPDEST SWAP1 POP PUSH0 DUP2 MLOAD GT ISZERO PUSH2 0x26E3 JUMPI DUP1 DUP1 PUSH1 0x20 ADD SWAP1 MLOAD DUP2 ADD SWAP1 PUSH2 0x26A3 SWAP2 SWAP1 PUSH2 0x4056 JUMP JUMPDEST PUSH2 0x26E2 JUMPI PUSH1 0x40 MLOAD PUSH32 0x8C379A000000000000000000000000000000000000000000000000000000000 DUP2 MSTORE PUSH1 0x4 ADD PUSH2 0x26D9 SWAP1 PUSH2 0x40F1 JUMP JUMPDEST PUSH1 0x40 MLOAD DUP1 SWAP2 SUB SWAP1 REVERT JUMPDEST JUMPDEST POP POP POP JUMP JUMPDEST PUSH1 0x60 PUSH2 0x26F6 DUP5 DUP5 PUSH0 DUP6 PUSH2 0x26FF JUMP JUMPDEST SWAP1 POP SWAP4 SWAP3 POP POP POP JUMP JUMPDEST PUSH1 0x60 DUP3 SELFBALANCE LT ISZERO PUSH2 0x2744 JUMPI PUSH1 0x40 MLOAD PUSH32 0x8C379A000000000000000000000000000000000000000000000000000000000 DUP2 MSTORE PUSH1 0x4 ADD PUSH2 0x273B SWAP1 PUSH2 0x417F JUMP JUMPDEST PUSH1 0x40 MLOAD DUP1 SWAP2 SUB SWAP1 REVERT JUMPDEST PUSH2 0x274D DUP6 PUSH2 0x280F JUMP JUMPDEST PUSH2 0x278C JUMPI PUSH1 0x40 MLOAD PUSH32 0x8C379A000000000000000000000000000000000000000000000000000000000 DUP2 MSTORE PUSH1 0x4 ADD PUSH2 0x2783 SWAP1 PUSH2 0x41E7 JUMP JUMPDEST PUSH1 0x40 MLOAD DUP1 SWAP2 SUB SWAP1 REVERT JUMPDEST PUSH0 DUP1 DUP7 PUSH20 0xFFFFFFFFFFFFFFFFFFFFFFFFFFFFFFFFFFFFFFFF AND DUP6 DUP8 PUSH1 0x40 MLOAD PUSH2 0x27B4 SWAP2 SWAP1 PUSH2 0x4249 JUMP JUMPDEST PUSH0 PUSH1 0x40 MLOAD DUP1 DUP4 SUB DUP2 DUP6 DUP8 GAS CALL SWAP3 POP POP POP RETURNDATASIZE DUP1 PUSH0 DUP2 EQ PUSH2 0x27EE JUMPI PUSH1 0x40 MLOAD SWAP2 POP PUSH1 0x1F NOT PUSH1 0x3F RETURNDATASIZE ADD AND DUP3 ADD PUSH1 0x40 MSTORE RETURNDATASIZE DUP3 MSTORE RETURNDATASIZE PUSH0 PUSH1 0x20 DUP5 ADD RETURNDATACOPY PUSH2 0x27F3 JUMP JUMPDEST PUSH1 0x60 SWAP2 POP JUMPDEST POP SWAP2 POP SWAP2 POP PUSH2 0x2803 DUP3 DUP3 DUP7 PUSH2 0x2831 JUMP JUMPDEST SWAP3 POP POP POP SWAP5 SWAP4 POP POP POP POP JUMP JUMPDEST PUSH0 DUP1 DUP3 PUSH20 0xFFFFFFFFFFFFFFFFFFFFFFFFFFFFFFFFFFFFFFFF AND EXTCODESIZE GT SWAP1 POP SWAP2 SWAP1 POP JUMP JUMPDEST PUSH1 0x60 DUP4 ISZERO PUSH2 0x2841 JUMPI DUP3 SWAP1 POP PUSH2 0x2890 JUMP JUMPDEST PUSH0 DUP4 MLOAD GT ISZERO PUSH2 0x2853 JUMPI DUP3 MLOAD DUP1 DUP5 PUSH1 0x20 ADD REVERT JUMPDEST DUP2 PUSH1 0x40 MLOAD PUSH32 0x8C379A000000000000000000000000000000000000000000000000000000000 DUP2 MSTORE PUSH1 0x4 ADD PUSH2 0x2887 SWAP2 SWAP1 PUSH2 0x2EA0 JUMP JUMPDEST PUSH1 0x40 MLOAD DUP1 SWAP2 SUB SWAP1 REVERT JUMPDEST SWAP4 SWAP3 POP POP POP JUMP JUMPDEST POP DUP1 SLOAD PUSH0 DUP3 SSTORE PUSH1 0x4 MUL SWAP1 PUSH0 MSTORE PUSH1 0x20 PUSH0 KECCAK256 SWAP1 DUP2 ADD SWAP1 PUSH2 0x28B5 SWAP2 SWAP1 PUSH2 0x29A9 JUMP JUMPDEST POP JUMP JUMPDEST DUP3 PUSH1 0x4 DUP2 ADD SWAP3 DUP3 ISZERO PUSH2 0x28E7 JUMPI SWAP2 PUSH1 0x20 MUL DUP3 ADD JUMPDEST DUP3 DUP2 GT ISZERO PUSH2 0x28E6 JUMPI DUP3 MLOAD DUP3 SSTORE SWAP2 PUSH1 0x20 ADD SWAP2 SWAP1 PUSH1 0x1 ADD SWAP1 PUSH2 0x28CB JUMP JUMPDEST JUMPDEST POP SWAP1 POP PUSH2 0x28F4 SWAP2 SWAP1 PUSH2 0x29CC JUMP JUMPDEST POP SWAP1 JUMP JUMPDEST DUP3 DUP1 SLOAD DUP3 DUP3 SSTORE SWAP1 PUSH0 MSTORE PUSH1 0x20 PUSH0 KECCAK256 SWAP1 PUSH1 0x4 MUL DUP2 ADD SWAP3 DUP3 ISZERO PUSH2 0x2943 JUMPI SWAP2 PUSH1 0x20 MUL DUP3 ADD JUMPDEST DUP3 DUP2 GT ISZERO PUSH2 0x2942 JUMPI DUP3 MLOAD DUP3 SWAP1 PUSH1 0x4 PUSH2 0x2932 SWAP3 SWAP2 SWAP1 PUSH2 0x28B8 JUMP JUMPDEST POP SWAP2 PUSH1 0x20 ADD SWAP2 SWAP1 PUSH1 0x4 ADD SWAP1 PUSH2 0x2919 JUMP JUMPDEST JUMPDEST POP SWAP1 POP PUSH2 0x2950 SWAP2 SWAP1 PUSH2 0x29A9 JUMP JUMPDEST POP SWAP1 JUMP JUMPDEST DUP3 PUSH1 0x4 DUP2 ADD SWAP3 DUP3 ISZERO PUSH2 0x2980 JUMPI SWAP2 DUP3 ADD JUMPDEST DUP3 DUP2 GT ISZERO PUSH2 0x297F JUMPI DUP3 SLOAD DUP3 SSTORE SWAP2 PUSH1 0x1 ADD SWAP2 SWAP1 PUSH1 0x1 ADD SWAP1 PUSH2 0x2964 JUMP JUMPDEST JUMPDEST POP SWAP1 POP PUSH2 0x298D SWAP2 SWAP1 PUSH2 0x29CC JUMP JUMPDEST POP SWAP1 JUMP JUMPDEST POP PUSH0 DUP2 SSTORE PUSH1 0x1 ADD PUSH0 DUP2 SSTORE PUSH1 0x1 ADD PUSH0 DUP2 SSTORE PUSH1 0x1 ADD PUSH0 SWAP1 SSTORE JUMP JUMPDEST JUMPDEST DUP1 DUP3 GT ISZERO PUSH2 0x29C8 JUMPI PUSH0 DUP2 DUP2 PUSH2 0x29BF SWAP2 SWAP1 PUSH2 0x2991 JUMP JUMPDEST POP PUSH1 0x4 ADD PUSH2 0x29AA JUMP JUMPDEST POP SWAP1 JUMP JUMPDEST JUMPDEST DUP1 DUP3 GT ISZERO PUSH2 0x29E3 JUMPI PUSH0 DUP2 PUSH0 SWAP1 SSTORE POP PUSH1 0x1 ADD PUSH2 0x29CD JUMP JUMPDEST POP SWAP1 JUMP JUMPDEST PUSH0 PUSH1 0x40 MLOAD SWAP1 POP SWAP1 JUMP JUMPDEST PUSH0 DUP1 REVERT JUMPDEST PUSH0 DUP1 REVERT JUMPDEST PUSH0 PUSH20 0xFFFFFFFFFFFFFFFFFFFFFFFFFFFFFFFFFFFFFFFF DUP3 AND SWAP1 POP SWAP2 SWAP1 POP JUMP JUMPDEST PUSH0 PUSH2 0x2A21 DUP3 PUSH2 0x29F8 JUMP JUMPDEST SWAP1 POP SWAP2 SWAP1 POP JUMP JUMPDEST PUSH2 0x2A31 DUP2 PUSH2 0x2A17 JUMP JUMPDEST DUP2 EQ PUSH2 0x2A3B JUMPI PUSH0 DUP1 REVERT JUMPDEST POP JUMP JUMPDEST PUSH0 DUP2 CALLDATALOAD SWAP1 POP PUSH2 0x2A4C DUP2 PUSH2 0x2A28 JUMP JUMPDEST SWAP3 SWAP2 POP POP JUMP JUMPDEST PUSH0 PUSH1 0x20 DUP3 DUP5 SUB SLT ISZERO PUSH2 0x2A67 JUMPI PUSH2 0x2A66 PUSH2 0x29F0 JUMP JUMPDEST JUMPDEST PUSH0 PUSH2 0x2A74 DUP5 DUP3 DUP6 ADD PUSH2 0x2A3E JUMP JUMPDEST SWAP2 POP POP SWAP3 SWAP2 POP POP JUMP JUMPDEST PUSH2 0x2A86 DUP2 PUSH2 0x2A17 JUMP JUMPDEST DUP3 MSTORE POP POP JUMP JUMPDEST PUSH0 PUSH1 0x20 DUP3 ADD SWAP1 POP PUSH2 0x2A9F PUSH0 DUP4 ADD DUP5 PUSH2 0x2A7D JUMP JUMPDEST SWAP3 SWAP2 POP POP JUMP JUMPDEST PUSH0 DUP2 SWAP1 POP SWAP2 SWAP1 POP JUMP JUMPDEST PUSH2 0x2AB7 DUP2 PUSH2 0x2AA5 JUMP JUMPDEST DUP3 MSTORE POP POP JUMP JUMPDEST PUSH0 PUSH1 0x20 DUP3 ADD SWAP1 POP PUSH2 0x2AD0 PUSH0 DUP4 ADD DUP5 PUSH2 0x2AAE JUMP JUMPDEST SWAP3 SWAP2 POP POP JUMP JUMPDEST PUSH2 0x2ADF DUP2 PUSH2 0x2AA5 JUMP JUMPDEST DUP2 EQ PUSH2 0x2AE9 JUMPI PUSH0 DUP1 REVERT JUMPDEST POP JUMP JUMPDEST PUSH0 DUP2 CALLDATALOAD SWAP1 POP PUSH2 0x2AFA DUP2 PUSH2 0x2AD6 JUMP JUMPDEST SWAP3 SWAP2 POP POP JUMP JUMPDEST PUSH0 DUP1 REVERT JUMPDEST PUSH0 DUP1 REVERT JUMPDEST PUSH0 DUP1 REVERT JUMPDEST PUSH0 DUP1 DUP4 PUSH1 0x1F DUP5 ADD SLT PUSH2 0x2B21 JUMPI PUSH2 0x2B20 PUSH2 0x2B00 JUMP JUMPDEST JUMPDEST DUP3 CALLDATALOAD SWAP1 POP PUSH8 0xFFFFFFFFFFFFFFFF DUP2 GT ISZERO PUSH2 0x2B3E JUMPI PUSH2 0x2B3D PUSH2 0x2B04 JUMP JUMPDEST JUMPDEST PUSH1 0x20 DUP4 ADD SWAP2 POP DUP4 PUSH1 0x1 DUP3 MUL DUP4 ADD GT ISZERO PUSH2 0x2B5A JUMPI PUSH2 0x2B59 PUSH2 0x2B08 JUMP JUMPDEST JUMPDEST SWAP3 POP SWAP3 SWAP1 POP JUMP JUMPDEST PUSH0 DUP1 PUSH0 DUP1 PUSH1 0x60 DUP6 DUP8 SUB SLT ISZERO PUSH2 0x2B79 JUMPI PUSH2 0x2B78 PUSH2 0x29F0 JUMP JUMPDEST JUMPDEST PUSH0 PUSH2 0x2B86 DUP8 DUP3 DUP9 ADD PUSH2 0x2A3E JUMP JUMPDEST SWAP5 POP POP PUSH1 0x20 PUSH2 0x2B97 DUP8 DUP3 DUP9 ADD PUSH2 0x2AEC JUMP JUMPDEST SWAP4 POP POP PUSH1 0x40 DUP6 ADD CALLDATALOAD PUSH8 0xFFFFFFFFFFFFFFFF DUP2 GT ISZERO PUSH2 0x2BB8 JUMPI PUSH2 0x2BB7 PUSH2 0x29F4 JUMP JUMPDEST JUMPDEST PUSH2 0x2BC4 DUP8 DUP3 DUP9 ADD PUSH2 0x2B0C JUMP JUMPDEST SWAP3 POP SWAP3 POP POP SWAP3 SWAP6 SWAP2 SWAP5 POP SWAP3 POP JUMP JUMPDEST PUSH0 DUP2 MLOAD SWAP1 POP SWAP2 SWAP1 POP JUMP JUMPDEST PUSH0 DUP3 DUP3 MSTORE PUSH1 0x20 DUP3 ADD SWAP1 POP SWAP3 SWAP2 POP POP JUMP JUMPDEST PUSH0 DUP2 SWAP1 POP PUSH1 0x20 DUP3 ADD SWAP1 POP SWAP2 SWAP1 POP JUMP JUMPDEST PUSH2 0x2C04 DUP2 PUSH2 0x2A17 JUMP JUMPDEST DUP3 MSTORE POP POP JUMP JUMPDEST PUSH0 PUSH2 0x2C15 DUP4 DUP4 PUSH2 0x2BFB JUMP JUMPDEST PUSH1 0x20 DUP4 ADD SWAP1 POP SWAP3 SWAP2 POP POP JUMP JUMPDEST PUSH0 PUSH1 0x20 DUP3 ADD SWAP1 POP SWAP2 SWAP1 POP JUMP JUMPDEST PUSH0 PUSH2 0x2C37 DUP3 PUSH2 0x2BD2 JUMP JUMPDEST PUSH2 0x2C41 DUP2 DUP6 PUSH2 0x2BDC JUMP JUMPDEST SWAP4 POP PUSH2 0x2C4C DUP4 PUSH2 0x2BEC JUMP JUMPDEST DUP1 PUSH0 JUMPDEST DUP4 DUP2 LT ISZERO PUSH2 0x2C7C JUMPI DUP2 MLOAD PUSH2 0x2C63 DUP9 DUP3 PUSH2 0x2C0A JUMP JUMPDEST SWAP8 POP PUSH2 0x2C6E DUP4 PUSH2 0x2C21 JUMP JUMPDEST SWAP3 POP POP PUSH1 0x1 DUP2 ADD SWAP1 POP PUSH2 0x2C4F JUMP JUMPDEST POP DUP6 SWAP4 POP POP POP POP SWAP3 SWAP2 POP POP JUMP JUMPDEST PUSH0 PUSH1 0x20 DUP3 ADD SWAP1 POP DUP2 DUP2 SUB PUSH0 DUP4 ADD MSTORE PUSH2 0x2CA1 DUP2 DUP5 PUSH2 0x2C2D JUMP JUMPDEST SWAP1 POP SWAP3 SWAP2 POP POP JUMP JUMPDEST PUSH0 DUP2 MLOAD SWAP1 POP SWAP2 SWAP1 POP JUMP JUMPDEST PUSH0 DUP3 DUP3 MSTORE PUSH1 0x20 DUP3 ADD SWAP1 POP SWAP3 SWAP2 POP POP JUMP JUMPDEST PUSH0 DUP2 SWAP1 POP PUSH1 0x20 DUP3 ADD SWAP1 POP SWAP2 SWAP1 POP JUMP JUMPDEST PUSH0 PUSH1 0x4 SWAP1 POP SWAP2 SWAP1 POP JUMP JUMPDEST PUSH0 DUP2 SWAP1 POP SWAP3 SWAP2 POP POP JUMP JUMPDEST PUSH0 DUP2 SWAP1 POP SWAP2 SWAP1 POP JUMP JUMPDEST PUSH2 0x2CF8 DUP2 PUSH2 0x2AA5 JUMP JUMPDEST DUP3 MSTORE POP POP JUMP JUMPDEST PUSH0 PUSH2 0x2D09 DUP4 DUP4 PUSH2 0x2CEF JUMP JUMPDEST PUSH1 0x20 DUP4 ADD SWAP1 POP SWAP3 SWAP2 POP POP JUMP JUMPDEST PUSH0 PUSH1 0x20 DUP3 ADD SWAP1 POP SWAP2 SWAP1 POP JUMP JUMPDEST PUSH2 0x2D2A DUP2 PUSH2 0x2CD2 JUMP JUMPDEST PUSH2 0x2D34 DUP2 DUP5 PUSH2 0x2CDC JUMP JUMPDEST SWAP3 POP PUSH2 0x2D3F DUP3 PUSH2 0x2CE6 JUMP JUMPDEST DUP1 PUSH0 JUMPDEST DUP4 DUP2 LT ISZERO PUSH2 0x2D6F JUMPI DUP2 MLOAD PUSH2 0x2D56 DUP8 DUP3 PUSH2 0x2CFE JUMP JUMPDEST SWAP7 POP PUSH2 0x2D61 DUP4 PUSH2 0x2D15 JUMP JUMPDEST SWAP3 POP POP PUSH1 0x1 DUP2 ADD SWAP1 POP PUSH2 0x2D42 JUMP JUMPDEST POP POP POP POP POP POP JUMP JUMPDEST PUSH0 PUSH2 0x2D82 DUP4 DUP4 PUSH2 0x2D21 JUMP JUMPDEST PUSH1 0x80 DUP4 ADD SWAP1 POP SWAP3 SWAP2 POP POP JUMP JUMPDEST PUSH0 PUSH1 0x20 DUP3 ADD SWAP1 POP SWAP2 SWAP1 POP JUMP JUMPDEST PUSH0 PUSH2 0x2DA4 DUP3 PUSH2 0x2CA9 JUMP JUMPDEST PUSH2 0x2DAE DUP2 DUP6 PUSH2 0x2CB3 JUMP JUMPDEST SWAP4 POP PUSH2 0x2DB9 DUP4 PUSH2 0x2CC3 JUMP JUMPDEST DUP1 PUSH0 JUMPDEST DUP4 DUP2 LT ISZERO PUSH2 0x2DE9 JUMPI DUP2 MLOAD PUSH2 0x2DD0 DUP9 DUP3 PUSH2 0x2D77 JUMP JUMPDEST SWAP8 POP PUSH2 0x2DDB DUP4 PUSH2 0x2D8E JUMP JUMPDEST SWAP3 POP POP PUSH1 0x1 DUP2 ADD SWAP1 POP PUSH2 0x2DBC JUMP JUMPDEST POP DUP6 SWAP4 POP POP POP POP SWAP3 SWAP2 POP POP JUMP JUMPDEST PUSH0 PUSH1 0x20 DUP3 ADD SWAP1 POP DUP2 DUP2 SUB PUSH0 DUP4 ADD MSTORE PUSH2 0x2E0E DUP2 DUP5 PUSH2 0x2D9A JUMP JUMPDEST SWAP1 POP SWAP3 SWAP2 POP POP JUMP JUMPDEST PUSH0 DUP2 MLOAD SWAP1 POP SWAP2 SWAP1 POP JUMP JUMPDEST PUSH0 DUP3 DUP3 MSTORE PUSH1 0x20 DUP3 ADD SWAP1 POP SWAP3 SWAP2 POP POP JUMP JUMPDEST PUSH0 JUMPDEST DUP4 DUP2 LT ISZERO PUSH2 0x2E4D JUMPI DUP1 DUP3 ADD MLOAD DUP2 DUP5 ADD MSTORE PUSH1 0x20 DUP2 ADD SWAP1 POP PUSH2 0x2E32 JUMP JUMPDEST PUSH0 DUP5 DUP5 ADD MSTORE POP POP POP POP JUMP JUMPDEST PUSH0 PUSH1 0x1F NOT PUSH1 0x1F DUP4 ADD AND SWAP1 POP SWAP2 SWAP1 POP JUMP JUMPDEST PUSH0 PUSH2 0x2E72 DUP3 PUSH2 0x2E16 JUMP JUMPDEST PUSH2 0x2E7C DUP2 DUP6 PUSH2 0x2E20 JUMP JUMPDEST SWAP4 POP PUSH2 0x2E8C DUP2 DUP6 PUSH1 0x20 DUP7 ADD PUSH2 0x2E30 JUMP JUMPDEST PUSH2 0x2E95 DUP2 PUSH2 0x2E58 JUMP JUMPDEST DUP5 ADD SWAP2 POP POP SWAP3 SWAP2 POP POP JUMP JUMPDEST PUSH0 PUSH1 0x20 DUP3 ADD SWAP1 POP DUP2 DUP2 SUB PUSH0 DUP4 ADD MSTORE PUSH2 0x2EB8 DUP2 DUP5 PUSH2 0x2E68 JUMP JUMPDEST SWAP1 POP SWAP3 SWAP2 POP POP JUMP JUMPDEST PUSH0 DUP1 PUSH0 PUSH1 0x60 DUP5 DUP7 SUB SLT ISZERO PUSH2 0x2ED7 JUMPI PUSH2 0x2ED6 PUSH2 0x29F0 JUMP JUMPDEST JUMPDEST PUSH0 PUSH2 0x2EE4 DUP7 DUP3 DUP8 ADD PUSH2 0x2A3E JUMP JUMPDEST SWAP4 POP POP PUSH1 0x20 PUSH2 0x2EF5 DUP7 DUP3 DUP8 ADD PUSH2 0x2AEC JUMP JUMPDEST SWAP3 POP POP PUSH1 0x40 PUSH2 0x2F06 DUP7 DUP3 DUP8 ADD PUSH2 0x2AEC JUMP JUMPDEST SWAP2 POP POP SWAP3 POP SWAP3 POP SWAP3 JUMP JUMPDEST PUSH0 DUP2 MLOAD SWAP1 POP SWAP2 SWAP1 POP JUMP JUMPDEST PUSH0 DUP3 DUP3 MSTORE PUSH1 0x20 DUP3 ADD SWAP1 POP SWAP3 SWAP2 POP POP JUMP JUMPDEST PUSH0 DUP2 SWAP1 POP PUSH1 0x20 DUP3 ADD SWAP1 POP SWAP2 SWAP1 POP JUMP JUMPDEST PUSH0 DUP3 DUP3 MSTORE PUSH1 0x20 DUP3 ADD SWAP1 POP SWAP3 SWAP2 POP POP JUMP JUMPDEST PUSH0 PUSH2 0x2F53 DUP3 PUSH2 0x2E16 JUMP JUMPDEST PUSH2 0x2F5D DUP2 DUP6 PUSH2 0x2F39 JUMP JUMPDEST SWAP4 POP PUSH2 0x2F6D DUP2 DUP6 PUSH1 0x20 DUP7 ADD PUSH2 0x2E30 JUMP JUMPDEST PUSH2 0x2F76 DUP2 PUSH2 0x2E58 JUMP JUMPDEST DUP5 ADD SWAP2 POP POP SWAP3 SWAP2 POP POP JUMP JUMPDEST PUSH0 PUSH2 0x2F8C DUP4 DUP4 PUSH2 0x2F49 JUMP JUMPDEST SWAP1 POP SWAP3 SWAP2 POP POP JUMP JUMPDEST PUSH0 PUSH1 0x20 DUP3 ADD SWAP1 POP SWAP2 SWAP1 POP JUMP JUMPDEST PUSH0 PUSH2 0x2FAA DUP3 PUSH2 0x2F10 JUMP JUMPDEST PUSH2 0x2FB4 DUP2 DUP6 PUSH2 0x2F1A JUMP JUMPDEST SWAP4 POP DUP4 PUSH1 0x20 DUP3 MUL DUP6 ADD PUSH2 0x2FC6 DUP6 PUSH2 0x2F2A JUMP JUMPDEST DUP1 PUSH0 JUMPDEST DUP6 DUP2 LT ISZERO PUSH2 0x3001 JUMPI DUP5 DUP5 SUB DUP10 MSTORE DUP2 MLOAD PUSH2 0x2FE2 DUP6 DUP3 PUSH2 0x2F81 JUMP JUMPDEST SWAP5 POP PUSH2 0x2FED DUP4 PUSH2 0x2F94 JUMP JUMPDEST SWAP3 POP PUSH1 0x20 DUP11 ADD SWAP10 POP POP PUSH1 0x1 DUP2 ADD SWAP1 POP PUSH2 0x2FC9 JUMP JUMPDEST POP DUP3 SWAP8 POP DUP8 SWAP6 POP POP POP POP POP POP SWAP3 SWAP2 POP POP JUMP JUMPDEST PUSH0 PUSH1 0x20 DUP3 ADD SWAP1 POP DUP2 DUP2 SUB PUSH0 DUP4 ADD MSTORE PUSH2 0x302B DUP2 DUP5 PUSH2 0x2FA0 JUMP JUMPDEST SWAP1 POP SWAP3 SWAP2 POP POP JUMP JUMPDEST PUSH0 DUP2 ISZERO ISZERO SWAP1 POP SWAP2 SWAP1 POP JUMP JUMPDEST PUSH2 0x3047 DUP2 PUSH2 0x3033 JUMP JUMPDEST DUP3 MSTORE POP POP JUMP JUMPDEST PUSH0 PUSH1 0x20 DUP3 ADD SWAP1 POP PUSH2 0x3060 PUSH0 DUP4 ADD DUP5 PUSH2 0x303E JUMP JUMPDEST SWAP3 SWAP2 POP POP JUMP JUMPDEST PUSH0 DUP1 DUP4 PUSH1 0x1F DUP5 ADD SLT PUSH2 0x307B JUMPI PUSH2 0x307A PUSH2 0x2B00 JUMP JUMPDEST JUMPDEST DUP3 CALLDATALOAD SWAP1 POP PUSH8 0xFFFFFFFFFFFFFFFF DUP2 GT ISZERO PUSH2 0x3098 JUMPI PUSH2 0x3097 PUSH2 0x2B04 JUMP JUMPDEST JUMPDEST PUSH1 0x20 DUP4 ADD SWAP2 POP DUP4 PUSH1 0x20 DUP3 MUL DUP4 ADD GT ISZERO PUSH2 0x30B4 JUMPI PUSH2 0x30B3 PUSH2 0x2B08 JUMP JUMPDEST JUMPDEST SWAP3 POP SWAP3 SWAP1 POP JUMP JUMPDEST PUSH0 DUP1 PUSH0 DUP1 PUSH0 PUSH1 0x60 DUP7 DUP9 SUB SLT ISZERO PUSH2 0x30D4 JUMPI PUSH2 0x30D3 PUSH2 0x29F0 JUMP JUMPDEST JUMPDEST PUSH0 PUSH2 0x30E1 DUP9 DUP3 DUP10 ADD PUSH2 0x2A3E JUMP JUMPDEST SWAP6 POP POP PUSH1 0x20 DUP7 ADD CALLDATALOAD PUSH8 0xFFFFFFFFFFFFFFFF DUP2 GT ISZERO PUSH2 0x3102 JUMPI PUSH2 0x3101 PUSH2 0x29F4 JUMP JUMPDEST JUMPDEST PUSH2 0x310E DUP9 DUP3 DUP10 ADD PUSH2 0x3066 JUMP JUMPDEST SWAP5 POP SWAP5 POP POP PUSH1 0x40 DUP7 ADD CALLDATALOAD PUSH8 0xFFFFFFFFFFFFFFFF DUP2 GT ISZERO PUSH2 0x3131 JUMPI PUSH2 0x3130 PUSH2 0x29F4 JUMP JUMPDEST JUMPDEST PUSH2 0x313D DUP9 DUP3 DUP10 ADD PUSH2 0x3066 JUMP JUMPDEST SWAP3 POP SWAP3 POP POP SWAP3 SWAP6 POP SWAP3 SWAP6 SWAP1 SWAP4 POP JUMP JUMPDEST PUSH0 DUP2 SWAP1 POP SWAP2 SWAP1 POP JUMP JUMPDEST PUSH0 PUSH2 0x316F PUSH2 0x316A PUSH2 0x3165 DUP5 PUSH2 0x29F8 JUMP JUMPDEST PUSH2 0x314C JUMP JUMPDEST PUSH2 0x29F8 JUMP JUMPDEST SWAP1 POP SWAP2 SWAP1 POP JUMP JUMPDEST PUSH0 PUSH2 0x3180 DUP3 PUSH2 0x3155 JUMP JUMPDEST SWAP1 POP SWAP2 SWAP1 POP JUMP JUMPDEST PUSH0 PUSH2 0x3191 DUP3 PUSH2 0x3176 JUMP JUMPDEST SWAP1 POP SWAP2 SWAP1 POP JUMP JUMPDEST PUSH2 0x31A1 DUP2 PUSH2 0x3187 JUMP JUMPDEST DUP3 MSTORE POP POP JUMP JUMPDEST PUSH0 PUSH1 0x20 DUP3 ADD SWAP1 POP PUSH2 0x31BA PUSH0 DUP4 ADD DUP5 PUSH2 0x3198 JUMP JUMPDEST SWAP3 SWAP2 POP POP JUMP JUMPDEST PUSH32 0x57616C6C6574206E65766572206368616E676564210000000000000000000000 PUSH0 DUP3 ADD MSTORE POP JUMP JUMPDEST PUSH0 PUSH2 0x31F4 PUSH1 0x15 DUP4 PUSH2 0x2E20 JUMP JUMPDEST SWAP2 POP PUSH2 0x31FF DUP3 PUSH2 0x31C0 JUMP JUMPDEST PUSH1 0x20 DUP3 ADD SWAP1 POP SWAP2 SWAP1 POP JUMP JUMPDEST PUSH0 PUSH1 0x20 DUP3 ADD SWAP1 POP DUP2 DUP2 SUB PUSH0 DUP4 ADD MSTORE PUSH2 0x3221 DUP2 PUSH2 0x31E8 JUMP JUMPDEST SWAP1 POP SWAP2 SWAP1 POP JUMP JUMPDEST PUSH32 0x57697468647261772063616E20626520646F6E65206F6E6C7920627920636F6E PUSH0 DUP3 ADD MSTORE PUSH32 0x7472616374206F776E6572206F722062656E6566696369617279210000000000 PUSH1 0x20 DUP3 ADD MSTORE POP JUMP JUMPDEST PUSH0 PUSH2 0x3282 PUSH1 0x3B DUP4 PUSH2 0x2E20 JUMP JUMPDEST SWAP2 POP PUSH2 0x328D DUP3 PUSH2 0x3228 JUMP JUMPDEST PUSH1 0x40 DUP3 ADD SWAP1 POP SWAP2 SWAP1 POP JUMP JUMPDEST PUSH0 PUSH1 0x20 DUP3 ADD SWAP1 POP DUP2 DUP2 SUB PUSH0 DUP4 ADD MSTORE PUSH2 0x32AF DUP2 PUSH2 0x3276 JUMP JUMPDEST SWAP1 POP SWAP2 SWAP1 POP JUMP JUMPDEST PUSH32 0x42656E6566696369617279206E6F74206578697374696E672100000000000000 PUSH0 DUP3 ADD MSTORE POP JUMP JUMPDEST PUSH0 PUSH2 0x32EA PUSH1 0x19 DUP4 PUSH2 0x2E20 JUMP JUMPDEST SWAP2 POP PUSH2 0x32F5 DUP3 PUSH2 0x32B6 JUMP JUMPDEST PUSH1 0x20 DUP3 ADD SWAP1 POP SWAP2 SWAP1 POP JUMP JUMPDEST PUSH0 PUSH1 0x20 DUP3 ADD SWAP1 POP DUP2 DUP2 SUB PUSH0 DUP4 ADD MSTORE PUSH2 0x3317 DUP2 PUSH2 0x32DE JUMP JUMPDEST SWAP1 POP SWAP2 SWAP1 POP JUMP JUMPDEST PUSH32 0x4E487B7100000000000000000000000000000000000000000000000000000000 PUSH0 MSTORE PUSH1 0x32 PUSH1 0x4 MSTORE PUSH1 0x24 PUSH0 REVERT JUMPDEST PUSH32 0x4E487B7100000000000000000000000000000000000000000000000000000000 PUSH0 MSTORE PUSH1 0x11 PUSH1 0x4 MSTORE PUSH1 0x24 PUSH0 REVERT JUMPDEST PUSH0 PUSH2 0x3382 DUP3 PUSH2 0x2AA5 JUMP JUMPDEST SWAP2 POP PUSH2 0x338D DUP4 PUSH2 0x2AA5 JUMP JUMPDEST SWAP3 POP DUP3 DUP3 SUB SWAP1 POP DUP2 DUP2 GT ISZERO PUSH2 0x33A5 JUMPI PUSH2 0x33A4 PUSH2 0x334B JUMP JUMPDEST JUMPDEST SWAP3 SWAP2 POP POP JUMP JUMPDEST PUSH0 PUSH2 0x33B5 DUP3 PUSH2 0x2AA5 JUMP JUMPDEST SWAP2 POP PUSH32 0xFFFFFFFFFFFFFFFFFFFFFFFFFFFFFFFFFFFFFFFFFFFFFFFFFFFFFFFFFFFFFFFF DUP3 SUB PUSH2 0x33E7 JUMPI PUSH2 0x33E6 PUSH2 0x334B JUMP JUMPDEST JUMPDEST PUSH1 0x1 DUP3 ADD SWAP1 POP SWAP2 SWAP1 POP JUMP JUMPDEST PUSH32 0x4E6F2072656C6561736564207061796D656E747320666F72207472616E736665 PUSH0 DUP3 ADD MSTORE PUSH32 0x7221000000000000000000000000000000000000000000000000000000000000 PUSH1 0x20 DUP3 ADD MSTORE POP JUMP JUMPDEST PUSH0 PUSH2 0x344C PUSH1 0x22 DUP4 PUSH2 0x2E20 JUMP JUMPDEST SWAP2 POP PUSH2 0x3457 DUP3 PUSH2 0x33F2 JUMP JUMPDEST PUSH1 0x40 DUP3 ADD SWAP1 POP SWAP2 SWAP1 POP JUMP JUMPDEST PUSH0 PUSH1 0x20 DUP3 ADD SWAP1 POP DUP2 DUP2 SUB PUSH0 DUP4 ADD MSTORE PUSH2 0x3479 DUP2 PUSH2 0x3440 JUMP JUMPDEST SWAP1 POP SWAP2 SWAP1 POP JUMP JUMPDEST PUSH0 PUSH1 0xFF DUP3 AND SWAP1 POP SWAP2 SWAP1 POP JUMP JUMPDEST PUSH2 0x3495 DUP2 PUSH2 0x3480 JUMP JUMPDEST DUP2 EQ PUSH2 0x349F JUMPI PUSH0 DUP1 REVERT JUMPDEST POP JUMP JUMPDEST PUSH0 DUP2 MLOAD SWAP1 POP PUSH2 0x34B0 DUP2 PUSH2 0x348C JUMP JUMPDEST SWAP3 SWAP2 POP POP JUMP JUMPDEST PUSH0 PUSH1 0x20 DUP3 DUP5 SUB SLT ISZERO PUSH2 0x34CB JUMPI PUSH2 0x34CA PUSH2 0x29F0 JUMP JUMPDEST JUMPDEST PUSH0 PUSH2 0x34D8 DUP5 DUP3 DUP6 ADD PUSH2 0x34A2 JUMP JUMPDEST SWAP2 POP POP SWAP3 SWAP2 POP POP JUMP JUMPDEST PUSH0 DUP3 SWAP1 POP SWAP3 SWAP2 POP POP JUMP JUMPDEST PUSH32 0x4E487B7100000000000000000000000000000000000000000000000000000000 PUSH0 MSTORE PUSH1 0x41 PUSH1 0x4 MSTORE PUSH1 0x24 PUSH0 REVERT JUMPDEST PUSH32 0x4E487B7100000000000000000000000000000000000000000000000000000000 PUSH0 MSTORE PUSH1 0x22 PUSH1 0x4 MSTORE PUSH1 0x24 PUSH0 REVERT JUMPDEST PUSH0 PUSH1 0x2 DUP3 DIV SWAP1 POP PUSH1 0x1 DUP3 AND DUP1 PUSH2 0x355C JUMPI PUSH1 0x7F DUP3 AND SWAP2 POP JUMPDEST PUSH1 0x20 DUP3 LT DUP2 SUB PUSH2 0x356F JUMPI PUSH2 0x356E PUSH2 0x3518 JUMP JUMPDEST JUMPDEST POP SWAP2 SWAP1 POP JUMP JUMPDEST PUSH0 DUP2 SWAP1 POP DUP2 PUSH0 MSTORE PUSH1 0x20 PUSH0 KECCAK256 SWAP1 POP SWAP2 SWAP1 POP JUMP JUMPDEST PUSH0 PUSH1 0x20 PUSH1 0x1F DUP4 ADD DIV SWAP1 POP SWAP2 SWAP1 POP JUMP JUMPDEST PUSH0 DUP3 DUP3 SHL SWAP1 POP SWAP3 SWAP2 POP POP JUMP JUMPDEST PUSH0 PUSH1 0x8 DUP4 MUL PUSH2 0x35D1 PUSH32 0xFFFFFFFFFFFFFFFFFFFFFFFFFFFFFFFFFFFFFFFFFFFFFFFFFFFFFFFFFFFFFFFF DUP3 PUSH2 0x3596 JUMP JUMPDEST PUSH2 0x35DB DUP7 DUP4 PUSH2 0x3596 JUMP JUMPDEST SWAP6 POP DUP1 NOT DUP5 AND SWAP4 POP DUP1 DUP7 AND DUP5 OR SWAP3 POP POP POP SWAP4 SWAP3 POP POP POP JUMP JUMPDEST PUSH0 PUSH2 0x360D PUSH2 0x3608 PUSH2 0x3603 DUP5 PUSH2 0x2AA5 JUMP JUMPDEST PUSH2 0x314C JUMP JUMPDEST PUSH2 0x2AA5 JUMP JUMPDEST SWAP1 POP SWAP2 SWAP1 POP JUMP JUMPDEST PUSH0 DUP2 SWAP1 POP SWAP2 SWAP1 POP JUMP JUMPDEST PUSH2 0x3626 DUP4 PUSH2 0x35F3 JUMP JUMPDEST PUSH2 0x363A PUSH2 0x3632 DUP3 PUSH2 0x3614 JUMP JUMPDEST DUP5 DUP5 SLOAD PUSH2 0x35A2 JUMP JUMPDEST DUP3 SSTORE POP POP POP POP JUMP JUMPDEST PUSH0 SWAP1 JUMP JUMPDEST PUSH2 0x364E PUSH2 0x3642 JUMP JUMPDEST PUSH2 0x3659 DUP2 DUP5 DUP5 PUSH2 0x361D JUMP JUMPDEST POP POP POP JUMP JUMPDEST JUMPDEST DUP2 DUP2 LT ISZERO PUSH2 0x367C JUMPI PUSH2 0x3671 PUSH0 DUP3 PUSH2 0x3646 JUMP JUMPDEST PUSH1 0x1 DUP2 ADD SWAP1 POP PUSH2 0x365F JUMP JUMPDEST POP POP JUMP JUMPDEST PUSH1 0x1F DUP3 GT ISZERO PUSH2 0x36C1 JUMPI PUSH2 0x3692 DUP2 PUSH2 0x3575 JUMP JUMPDEST PUSH2 0x369B DUP5 PUSH2 0x3587 JUMP JUMPDEST DUP2 ADD PUSH1 0x20 DUP6 LT ISZERO PUSH2 0x36AA JUMPI DUP2 SWAP1 POP JUMPDEST PUSH2 0x36BE PUSH2 0x36B6 DUP6 PUSH2 0x3587 JUMP JUMPDEST DUP4 ADD DUP3 PUSH2 0x365E JUMP JUMPDEST POP POP JUMPDEST POP POP POP JUMP JUMPDEST PUSH0 DUP3 DUP3 SHR SWAP1 POP SWAP3 SWAP2 POP POP JUMP JUMPDEST PUSH0 PUSH2 0x36E1 PUSH0 NOT DUP5 PUSH1 0x8 MUL PUSH2 0x36C6 JUMP JUMPDEST NOT DUP1 DUP4 AND SWAP2 POP POP SWAP3 SWAP2 POP POP JUMP JUMPDEST PUSH0 PUSH2 0x36F9 DUP4 DUP4 PUSH2 0x36D2 JUMP JUMPDEST SWAP2 POP DUP3 PUSH1 0x2 MUL DUP3 OR SWAP1 POP SWAP3 SWAP2 POP POP JUMP JUMPDEST PUSH2 0x3713 DUP4 DUP4 PUSH2 0x34E1 JUMP JUMPDEST PUSH8 0xFFFFFFFFFFFFFFFF DUP2 GT ISZERO PUSH2 0x372C JUMPI PUSH2 0x372B PUSH2 0x34EB JUMP JUMPDEST JUMPDEST PUSH2 0x3736 DUP3 SLOAD PUSH2 0x3545 JUMP JUMPDEST PUSH2 0x3741 DUP3 DUP3 DUP6 PUSH2 0x3680 JUMP JUMPDEST PUSH0 PUSH1 0x1F DUP4 GT PUSH1 0x1 DUP2 EQ PUSH2 0x376E JUMPI PUSH0 DUP5 ISZERO PUSH2 0x375C JUMPI DUP3 DUP8 ADD CALLDATALOAD SWAP1 POP JUMPDEST PUSH2 0x3766 DUP6 DUP3 PUSH2 0x36EE JUMP JUMPDEST DUP7 SSTORE POP PUSH2 0x37CD JUMP JUMPDEST PUSH1 0x1F NOT DUP5 AND PUSH2 0x377C DUP7 PUSH2 0x3575 JUMP JUMPDEST PUSH0 JUMPDEST DUP3 DUP2 LT ISZERO PUSH2 0x37A3 JUMPI DUP5 DUP10 ADD CALLDATALOAD DUP3 SSTORE PUSH1 0x1 DUP3 ADD SWAP2 POP PUSH1 0x20 DUP6 ADD SWAP5 POP PUSH1 0x20 DUP2 ADD SWAP1 POP PUSH2 0x377E JUMP JUMPDEST DUP7 DUP4 LT ISZERO PUSH2 0x37C0 JUMPI DUP5 DUP10 ADD CALLDATALOAD PUSH2 0x37BC PUSH1 0x1F DUP10 AND DUP3 PUSH2 0x36D2 JUMP JUMPDEST DUP4 SSTORE POP JUMPDEST PUSH1 0x1 PUSH1 0x2 DUP9 MUL ADD DUP9 SSTORE POP POP POP JUMPDEST POP POP POP POP POP POP POP JUMP JUMPDEST PUSH32 0x43616E27742064656C65746520617070726F7665642C77697468647261776E20 PUSH0 DUP3 ADD MSTORE PUSH32 0x6F722061667465722064756564617465207061796D656E742100000000000000 PUSH1 0x20 DUP3 ADD MSTORE POP JUMP JUMPDEST PUSH0 PUSH2 0x3830 PUSH1 0x39 DUP4 PUSH2 0x2E20 JUMP JUMPDEST SWAP2 POP PUSH2 0x383B DUP3 PUSH2 0x37D6 JUMP JUMPDEST PUSH1 0x40 DUP3 ADD SWAP1 POP SWAP2 SWAP1 POP JUMP JUMPDEST PUSH0 PUSH1 0x20 DUP3 ADD SWAP1 POP DUP2 DUP2 SUB PUSH0 DUP4 ADD MSTORE PUSH2 0x385D DUP2 PUSH2 0x3824 JUMP JUMPDEST SWAP1 POP SWAP2 SWAP1 POP JUMP JUMPDEST PUSH32 0x5468697320636F6E747261637420646F65736E277420737570706F7274207265 PUSH0 DUP3 ADD MSTORE PUSH32 0x6E6F756E63696E67206F66206F776E6572736869700000000000000000000000 PUSH1 0x20 DUP3 ADD MSTORE POP JUMP JUMPDEST PUSH0 PUSH2 0x38BE PUSH1 0x35 DUP4 PUSH2 0x2E20 JUMP JUMPDEST SWAP2 POP PUSH2 0x38C9 DUP3 PUSH2 0x3864 JUMP JUMPDEST PUSH1 0x40 DUP3 ADD SWAP1 POP SWAP2 SWAP1 POP JUMP JUMPDEST PUSH0 PUSH1 0x20 DUP3 ADD SWAP1 POP DUP2 DUP2 SUB PUSH0 DUP4 ADD MSTORE PUSH2 0x38EB DUP2 PUSH2 0x38B2 JUMP JUMPDEST SWAP1 POP SWAP2 SWAP1 POP JUMP JUMPDEST PUSH32 0x4E6F2065786365737320746F6B656E7320746F207472616E7366657221000000 PUSH0 DUP3 ADD MSTORE POP JUMP JUMPDEST PUSH0 PUSH2 0x3926 PUSH1 0x1D DUP4 PUSH2 0x2E20 JUMP JUMPDEST SWAP2 POP PUSH2 0x3931 DUP3 PUSH2 0x38F2 JUMP JUMPDEST PUSH1 0x20 DUP3 ADD SWAP1 POP SWAP2 SWAP1 POP JUMP JUMPDEST PUSH0 PUSH1 0x20 DUP3 ADD SWAP1 POP DUP2 DUP2 SUB PUSH0 DUP4 ADD MSTORE PUSH2 0x3953 DUP2 PUSH2 0x391A JUMP JUMPDEST SWAP1 POP SWAP2 SWAP1 POP JUMP JUMPDEST PUSH0 DUP1 REVERT JUMPDEST PUSH2 0x3967 DUP3 PUSH2 0x2E58 JUMP JUMPDEST DUP2 ADD DUP2 DUP2 LT PUSH8 0xFFFFFFFFFFFFFFFF DUP3 GT OR ISZERO PUSH2 0x3986 JUMPI PUSH2 0x3985 PUSH2 0x34EB JUMP JUMPDEST JUMPDEST DUP1 PUSH1 0x40 MSTORE POP POP POP JUMP JUMPDEST PUSH0 PUSH2 0x3998 PUSH2 0x29E7 JUMP JUMPDEST SWAP1 POP PUSH2 0x39A4 DUP3 DUP3 PUSH2 0x395E JUMP JUMPDEST SWAP2 SWAP1 POP JUMP JUMPDEST PUSH0 PUSH8 0xFFFFFFFFFFFFFFFF DUP3 GT ISZERO PUSH2 0x39C3 JUMPI PUSH2 0x39C2 PUSH2 0x34EB JUMP JUMPDEST JUMPDEST PUSH2 0x39CC DUP3 PUSH2 0x2E58 JUMP JUMPDEST SWAP1 POP PUSH1 0x20 DUP2 ADD SWAP1 POP SWAP2 SWAP1 POP JUMP JUMPDEST PUSH0 PUSH2 0x39EB PUSH2 0x39E6 DUP5 PUSH2 0x39A9 JUMP JUMPDEST PUSH2 0x398F JUMP JUMPDEST SWAP1 POP DUP3 DUP2 MSTORE PUSH1 0x20 DUP2 ADD DUP5 DUP5 DUP5 ADD GT ISZERO PUSH2 0x3A07 JUMPI PUSH2 0x3A06 PUSH2 0x395A JUMP JUMPDEST JUMPDEST PUSH2 0x3A12 DUP5 DUP3 DUP6 PUSH2 0x2E30 JUMP JUMPDEST POP SWAP4 SWAP3 POP POP POP JUMP JUMPDEST PUSH0 DUP3 PUSH1 0x1F DUP4 ADD SLT PUSH2 0x3A2E JUMPI PUSH2 0x3A2D PUSH2 0x2B00 JUMP JUMPDEST JUMPDEST DUP2 MLOAD PUSH2 0x3A3E DUP5 DUP3 PUSH1 0x20 DUP7 ADD PUSH2 0x39D9 JUMP JUMPDEST SWAP2 POP POP SWAP3 SWAP2 POP POP JUMP JUMPDEST PUSH0 PUSH1 0x20 DUP3 DUP5 SUB SLT ISZERO PUSH2 0x3A5C JUMPI PUSH2 0x3A5B PUSH2 0x29F0 JUMP JUMPDEST JUMPDEST PUSH0 DUP3 ADD MLOAD PUSH8 0xFFFFFFFFFFFFFFFF DUP2 GT ISZERO PUSH2 0x3A79 JUMPI PUSH2 0x3A78 PUSH2 0x29F4 JUMP JUMPDEST JUMPDEST PUSH2 0x3A85 DUP5 DUP3 DUP6 ADD PUSH2 0x3A1A JUMP JUMPDEST SWAP2 POP POP SWAP3 SWAP2 POP POP JUMP JUMPDEST PUSH0 PUSH2 0x3A98 DUP3 PUSH2 0x2AA5 JUMP JUMPDEST SWAP2 POP PUSH2 0x3AA3 DUP4 PUSH2 0x2AA5 JUMP JUMPDEST SWAP3 POP DUP3 DUP3 ADD SWAP1 POP DUP1 DUP3 GT ISZERO PUSH2 0x3ABB JUMPI PUSH2 0x3ABA PUSH2 0x334B JUMP JUMPDEST JUMPDEST SWAP3 SWAP2 POP POP JUMP JUMPDEST PUSH32 0x496E73756666696369656E742062616C616E6365212043616E27742061646420 PUSH0 DUP3 ADD MSTORE PUSH32 0x6E6577207061796D656E74732100000000000000000000000000000000000000 PUSH1 0x20 DUP3 ADD MSTORE POP JUMP JUMPDEST PUSH0 PUSH2 0x3B1B PUSH1 0x2D DUP4 PUSH2 0x2E20 JUMP JUMPDEST SWAP2 POP PUSH2 0x3B26 DUP3 PUSH2 0x3AC1 JUMP JUMPDEST PUSH1 0x40 DUP3 ADD SWAP1 POP SWAP2 SWAP1 POP JUMP JUMPDEST PUSH0 PUSH1 0x20 DUP3 ADD SWAP1 POP DUP2 DUP2 SUB PUSH0 DUP4 ADD MSTORE PUSH2 0x3B48 DUP2 PUSH2 0x3B0F JUMP JUMPDEST SWAP1 POP SWAP2 SWAP1 POP JUMP JUMPDEST PUSH32 0x4675747572652072656C6561736520646174652063616E277420626520736D61 PUSH0 DUP3 ADD MSTORE PUSH32 0x6C6C6572207468616E20746865206C61737420656E7465726564210000000000 PUSH1 0x20 DUP3 ADD MSTORE POP JUMP JUMPDEST PUSH0 PUSH2 0x3BA9 PUSH1 0x3B DUP4 PUSH2 0x2E20 JUMP JUMPDEST SWAP2 POP PUSH2 0x3BB4 DUP3 PUSH2 0x3B4F JUMP JUMPDEST PUSH1 0x40 DUP3 ADD SWAP1 POP SWAP2 SWAP1 POP JUMP JUMPDEST PUSH0 PUSH1 0x20 DUP3 ADD SWAP1 POP DUP2 DUP2 SUB PUSH0 DUP4 ADD MSTORE PUSH2 0x3BD6 DUP2 PUSH2 0x3B9D JUMP JUMPDEST SWAP1 POP SWAP2 SWAP1 POP JUMP JUMPDEST PUSH32 0x52656C6561736520646174652063616E277420626520657175616C206F72206C PUSH0 DUP3 ADD MSTORE PUSH32 0x657373207468616E2063757272656E7420646174652100000000000000000000 PUSH1 0x20 DUP3 ADD MSTORE POP JUMP JUMPDEST PUSH0 PUSH2 0x3C37 PUSH1 0x36 DUP4 PUSH2 0x2E20 JUMP JUMPDEST SWAP2 POP PUSH2 0x3C42 DUP3 PUSH2 0x3BDD JUMP JUMPDEST PUSH1 0x40 DUP3 ADD SWAP1 POP SWAP2 SWAP1 POP JUMP JUMPDEST PUSH0 PUSH1 0x20 DUP3 ADD SWAP1 POP DUP2 DUP2 SUB PUSH0 DUP4 ADD MSTORE PUSH2 0x3C64 DUP2 PUSH2 0x3C2B JUMP JUMPDEST SWAP1 POP SWAP2 SWAP1 POP JUMP JUMPDEST PUSH32 0x42656E656669636961727920646F6573206E6F7420686176652063616E63656C PUSH0 DUP3 ADD MSTORE PUSH32 0x6564207061796D656E7473210000000000000000000000000000000000000000 PUSH1 0x20 DUP3 ADD MSTORE POP JUMP JUMPDEST PUSH0 PUSH2 0x3CC5 PUSH1 0x2C DUP4 PUSH2 0x2E20 JUMP JUMPDEST SWAP2 POP PUSH2 0x3CD0 DUP3 PUSH2 0x3C6B JUMP JUMPDEST PUSH1 0x40 DUP3 ADD SWAP1 POP SWAP2 SWAP1 POP JUMP JUMPDEST PUSH0 PUSH1 0x20 DUP3 ADD SWAP1 POP DUP2 DUP2 SUB PUSH0 DUP4 ADD MSTORE PUSH2 0x3CF2 DUP2 PUSH2 0x3CB9 JUMP JUMPDEST SWAP1 POP SWAP2 SWAP1 POP JUMP JUMPDEST PUSH0 DUP2 MLOAD SWAP1 POP PUSH2 0x3D07 DUP2 PUSH2 0x2AD6 JUMP JUMPDEST SWAP3 SWAP2 POP POP JUMP JUMPDEST PUSH0 PUSH1 0x20 DUP3 DUP5 SUB SLT ISZERO PUSH2 0x3D22 JUMPI PUSH2 0x3D21 PUSH2 0x29F0 JUMP JUMPDEST JUMPDEST PUSH0 PUSH2 0x3D2F DUP5 DUP3 DUP6 ADD PUSH2 0x3CF9 JUMP JUMPDEST SWAP2 POP POP SWAP3 SWAP2 POP POP JUMP JUMPDEST PUSH32 0x4F776E61626C653A206E6577206F776E657220697320746865207A65726F2061 PUSH0 DUP3 ADD MSTORE PUSH32 0x6464726573730000000000000000000000000000000000000000000000000000 PUSH1 0x20 DUP3 ADD MSTORE POP JUMP JUMPDEST PUSH0 PUSH2 0x3D92 PUSH1 0x26 DUP4 PUSH2 0x2E20 JUMP JUMPDEST SWAP2 POP PUSH2 0x3D9D DUP3 PUSH2 0x3D38 JUMP JUMPDEST PUSH1 0x40 DUP3 ADD SWAP1 POP SWAP2 SWAP1 POP JUMP JUMPDEST PUSH0 PUSH1 0x20 DUP3 ADD SWAP1 POP DUP2 DUP2 SUB PUSH0 DUP4 ADD MSTORE PUSH2 0x3DBF DUP2 PUSH2 0x3D86 JUMP JUMPDEST SWAP1 POP SWAP2 SWAP1 POP JUMP JUMPDEST PUSH32 0x4461746120666F72206E6F7420636F7272656374212E20436F756E74206F6620 PUSH0 DUP3 ADD MSTORE PUSH32 0x72656C6561736520646174657320616E6420616D6F756E7473206D7573742062 PUSH1 0x20 DUP3 ADD MSTORE PUSH32 0x6520657175616C21000000000000000000000000000000000000000000000000 PUSH1 0x40 DUP3 ADD MSTORE POP JUMP JUMPDEST PUSH0 PUSH2 0x3E46 PUSH1 0x48 DUP4 PUSH2 0x2E20 JUMP JUMPDEST SWAP2 POP PUSH2 0x3E51 DUP3 PUSH2 0x3DC6 JUMP JUMPDEST PUSH1 0x60 DUP3 ADD SWAP1 POP SWAP2 SWAP1 POP JUMP JUMPDEST PUSH0 PUSH1 0x20 DUP3 ADD SWAP1 POP DUP2 DUP2 SUB PUSH0 DUP4 ADD MSTORE PUSH2 0x3E73 DUP2 PUSH2 0x3E3A JUMP JUMPDEST SWAP1 POP SWAP2 SWAP1 POP JUMP JUMPDEST PUSH32 0x42656E656669636961727920616C7265616479206578697374696E6721000000 PUSH0 DUP3 ADD MSTORE POP JUMP JUMPDEST PUSH0 PUSH2 0x3EAE PUSH1 0x1D DUP4 PUSH2 0x2E20 JUMP JUMPDEST SWAP2 POP PUSH2 0x3EB9 DUP3 PUSH2 0x3E7A JUMP JUMPDEST PUSH1 0x20 DUP3 ADD SWAP1 POP SWAP2 SWAP1 POP JUMP JUMPDEST PUSH0 PUSH1 0x20 DUP3 ADD SWAP1 POP DUP2 DUP2 SUB PUSH0 DUP4 ADD MSTORE PUSH2 0x3EDB DUP2 PUSH2 0x3EA2 JUMP JUMPDEST SWAP1 POP SWAP2 SWAP1 POP JUMP JUMPDEST PUSH32 0x496E73756666696369656E742062616C616E6365212043616E27742061646420 PUSH0 DUP3 ADD MSTORE PUSH32 0x6E65772062656E65666963696172696573210000000000000000000000000000 PUSH1 0x20 DUP3 ADD MSTORE POP JUMP JUMPDEST PUSH0 PUSH2 0x3F3C PUSH1 0x32 DUP4 PUSH2 0x2E20 JUMP JUMPDEST SWAP2 POP PUSH2 0x3F47 DUP3 PUSH2 0x3EE2 JUMP JUMPDEST PUSH1 0x40 DUP3 ADD SWAP1 POP SWAP2 SWAP1 POP JUMP JUMPDEST PUSH0 PUSH1 0x20 DUP3 ADD SWAP1 POP DUP2 DUP2 SUB PUSH0 DUP4 ADD MSTORE PUSH2 0x3F69 DUP2 PUSH2 0x3F30 JUMP JUMPDEST SWAP1 POP SWAP2 SWAP1 POP JUMP JUMPDEST PUSH32 0x4F776E61626C653A2063616C6C6572206973206E6F7420746865206F776E6572 PUSH0 DUP3 ADD MSTORE POP JUMP JUMPDEST PUSH0 PUSH2 0x3FA4 PUSH1 0x20 DUP4 PUSH2 0x2E20 JUMP JUMPDEST SWAP2 POP PUSH2 0x3FAF DUP3 PUSH2 0x3F70 JUMP JUMPDEST PUSH1 0x20 DUP3 ADD SWAP1 POP SWAP2 SWAP1 POP JUMP JUMPDEST PUSH0 PUSH1 0x20 DUP3 ADD SWAP1 POP DUP2 DUP2 SUB PUSH0 DUP4 ADD MSTORE PUSH2 0x3FD1 DUP2 PUSH2 0x3F98 JUMP JUMPDEST SWAP1 POP SWAP2 SWAP1 POP JUMP JUMPDEST PUSH0 PUSH1 0x40 DUP3 ADD SWAP1 POP PUSH2 0x3FEB PUSH0 DUP4 ADD DUP6 PUSH2 0x2A7D JUMP JUMPDEST PUSH2 0x3FF8 PUSH1 0x20 DUP4 ADD DUP5 PUSH2 0x2AAE JUMP JUMPDEST SWAP4 SWAP3 POP POP POP JUMP JUMPDEST PUSH32 0x4E487B7100000000000000000000000000000000000000000000000000000000 PUSH0 MSTORE PUSH1 0x31 PUSH1 0x4 MSTORE PUSH1 0x24 PUSH0 REVERT JUMPDEST PUSH2 0x4035 DUP2 PUSH2 0x3033 JUMP JUMPDEST DUP2 EQ PUSH2 0x403F JUMPI PUSH0 DUP1 REVERT JUMPDEST POP JUMP JUMPDEST PUSH0 DUP2 MLOAD SWAP1 POP PUSH2 0x4050 DUP2 PUSH2 0x402C JUMP JUMPDEST SWAP3 SWAP2 POP POP JUMP JUMPDEST PUSH0 PUSH1 0x20 DUP3 DUP5 SUB SLT ISZERO PUSH2 0x406B JUMPI PUSH2 0x406A PUSH2 0x29F0 JUMP JUMPDEST JUMPDEST PUSH0 PUSH2 0x4078 DUP5 DUP3 DUP6 ADD PUSH2 0x4042 JUMP JUMPDEST SWAP2 POP POP SWAP3 SWAP2 POP POP JUMP JUMPDEST PUSH32 0x5361666545524332303A204552433230206F7065726174696F6E20646964206E PUSH0 DUP3 ADD MSTORE PUSH32 0x6F74207375636365656400000000000000000000000000000000000000000000 PUSH1 0x20 DUP3 ADD MSTORE POP JUMP JUMPDEST PUSH0 PUSH2 0x40DB PUSH1 0x2A DUP4 PUSH2 0x2E20 JUMP JUMPDEST SWAP2 POP PUSH2 0x40E6 DUP3 PUSH2 0x4081 JUMP JUMPDEST PUSH1 0x40 DUP3 ADD SWAP1 POP SWAP2 SWAP1 POP JUMP JUMPDEST PUSH0 PUSH1 0x20 DUP3 ADD SWAP1 POP DUP2 DUP2 SUB PUSH0 DUP4 ADD MSTORE PUSH2 0x4108 DUP2 PUSH2 0x40CF JUMP JUMPDEST SWAP1 POP SWAP2 SWAP1 POP JUMP JUMPDEST PUSH32 0x416464726573733A20696E73756666696369656E742062616C616E636520666F PUSH0 DUP3 ADD MSTORE PUSH32 0x722063616C6C0000000000000000000000000000000000000000000000000000 PUSH1 0x20 DUP3 ADD MSTORE POP JUMP JUMPDEST PUSH0 PUSH2 0x4169 PUSH1 0x26 DUP4 PUSH2 0x2E20 JUMP JUMPDEST SWAP2 POP PUSH2 0x4174 DUP3 PUSH2 0x410F JUMP JUMPDEST PUSH1 0x40 DUP3 ADD SWAP1 POP SWAP2 SWAP1 POP JUMP JUMPDEST PUSH0 PUSH1 0x20 DUP3 ADD SWAP1 POP DUP2 DUP2 SUB PUSH0 DUP4 ADD MSTORE PUSH2 0x4196 DUP2 PUSH2 0x415D JUMP JUMPDEST SWAP1 POP SWAP2 SWAP1 POP JUMP JUMPDEST PUSH32 0x416464726573733A2063616C6C20746F206E6F6E2D636F6E7472616374000000 PUSH0 DUP3 ADD MSTORE POP JUMP JUMPDEST PUSH0 PUSH2 0x41D1 PUSH1 0x1D DUP4 PUSH2 0x2E20 JUMP JUMPDEST SWAP2 POP PUSH2 0x41DC DUP3 PUSH2 0x419D JUMP JUMPDEST PUSH1 0x20 DUP3 ADD SWAP1 POP SWAP2 SWAP1 POP JUMP JUMPDEST PUSH0 PUSH1 0x20 DUP3 ADD SWAP1 POP DUP2 DUP2 SUB PUSH0 DUP4 ADD MSTORE PUSH2 0x41FE DUP2 PUSH2 0x41C5 JUMP JUMPDEST SWAP1 POP SWAP2 SWAP1 POP JUMP JUMPDEST PUSH0 DUP2 MLOAD SWAP1 POP SWAP2 SWAP1 POP JUMP JUMPDEST PUSH0 DUP2 SWAP1 POP SWAP3 SWAP2 POP POP JUMP JUMPDEST PUSH0 PUSH2 0x4223 DUP3 PUSH2 0x4205 JUMP JUMPDEST PUSH2 0x422D DUP2 DUP6 PUSH2 0x420F JUMP JUMPDEST SWAP4 POP PUSH2 0x423D DUP2 DUP6 PUSH1 0x20 DUP7 ADD PUSH2 0x2E30 JUMP JUMPDEST DUP1 DUP5 ADD SWAP2 POP POP SWAP3 SWAP2 POP POP JUMP JUMPDEST PUSH0 PUSH2 0x4254 DUP3 DUP5 PUSH2 0x4219 JUMP JUMPDEST SWAP2 POP DUP2 SWAP1 POP SWAP3 SWAP2 POP POP JUMP INVALID LOG2 PUSH5 0x6970667358 0x22 SLT KECCAK256 PUSH23 0x44D2C1F2CA96D5E96FC15590616AD1CE50D8B37E8E87C6 0xDE CALLDATACOPY EXTCODECOPY DUP13 PC 0xDB 0x4E 0xF7 PUSH5 0x736F6C6343 STOP ADDMOD OR STOP CALLER "
				},
				"gasEstimates": {
					"creation": {
						"codeDepositCost": "3409000",
						"executionCost": "infinite",
						"totalCost": "infinite"
					},
					"external": {
						"addBeneficiary(address,uint256[],uint256[])": "infinite",
						"addPaymentToBeneficiary(address,uint256,uint256)": "infinite",
						"approver()": "2554",
						"beneficiary(address)": "infinite",
						"cancelPaymentToBeneficiary(address,uint256,string)": "infinite",
						"changeApprover(address)": "27307",
						"changeBeneficiaryWallet(address)": "infinite",
						"changedWallets()": "infinite",
						"checkWalletChange(address)": "infinite",
						"currentBalance()": "infinite",
						"currentNonUtilizedAmount()": "infinite",
						"decimals()": "infinite",
						"getCanceledPaymentsAddresses()": "infinite",
						"getReasonForCancellation(address)": "infinite",
						"owner()": "2626",
						"release(address)": "infinite",
						"renounceOwnership()": "2774",
						"returnBeneficiaryList()": "infinite",
						"symbol()": "infinite",
						"timeNow()": "397",
						"token()": "infinite",
						"totalUnreleasedPayments()": "2455",
						"transferExcessBalance(address)": "infinite",
						"transferOwnership(address)": "30819"
					},
					"internal": {
						"removeFromBeneficiaryList(uint256)": "infinite",
						"removeFromPaymentList(uint256,address)": "infinite"
					}
				},
				"methodIdentifiers": {
					"addBeneficiary(address,uint256[],uint256[])": "f61eb2d4",
					"addPaymentToBeneficiary(address,uint256,uint256)": "b347f859",
					"approver()": "141a8dd8",
					"beneficiary(address)": "81008568",
					"cancelPaymentToBeneficiary(address,uint256,string)": "4a3149cd",
					"changeApprover(address)": "c6c599c1",
					"changeBeneficiaryWallet(address)": "b70b64ec",
					"changedWallets()": "530a60ef",
					"checkWalletChange(address)": "0d43848b",
					"currentBalance()": "ce845d1d",
					"currentNonUtilizedAmount()": "a99d38cb",
					"decimals()": "313ce567",
					"getCanceledPaymentsAddresses()": "c9e701ae",
					"getReasonForCancellation(address)": "c4be66a1",
					"owner()": "8da5cb5b",
					"release(address)": "19165587",
					"renounceOwnership()": "715018a6",
					"returnBeneficiaryList()": "711ec9b5",
					"symbol()": "95d89b41",
					"timeNow()": "d95660be",
					"token()": "fc0c546a",
					"totalUnreleasedPayments()": "70c80f99",
					"transferExcessBalance(address)": "8f26fb7f",
					"transferOwnership(address)": "f2fde38b"
				}
			},
			"storageLayout": {
				"storage": [
					{
						"astId": 7,
						"contract": "contracts/vesting_1.4_test.sol:VestingTeamAndAdvisors",
						"label": "_owner",
						"offset": 0,
						"slot": "0",
						"type": "t_address"
					},
					{
						"astId": 876,
						"contract": "contracts/vesting_1.4_test.sol:VestingTeamAndAdvisors",
						"label": "_beneficiaries",
						"offset": 0,
						"slot": "1",
						"type": "t_mapping(t_address,t_array(t_array(t_uint256)4_storage)dyn_storage)"
					},
					{
						"astId": 881,
						"contract": "contracts/vesting_1.4_test.sol:VestingTeamAndAdvisors",
						"label": "_canceledPaymentsDueToReason",
						"offset": 0,
						"slot": "2",
						"type": "t_mapping(t_address,t_array(t_string_storage)dyn_storage)"
					},
					{
						"astId": 885,
						"contract": "contracts/vesting_1.4_test.sol:VestingTeamAndAdvisors",
						"label": "_changed_wallet",
						"offset": 0,
						"slot": "3",
						"type": "t_mapping(t_address,t_address)"
					},
					{
						"astId": 888,
						"contract": "contracts/vesting_1.4_test.sol:VestingTeamAndAdvisors",
						"label": "_changed_wallets_list",
						"offset": 0,
						"slot": "4",
						"type": "t_array(t_address)dyn_storage"
					},
					{
						"astId": 891,
						"contract": "contracts/vesting_1.4_test.sol:VestingTeamAndAdvisors",
						"label": "_canceledPaymentsAddressList",
						"offset": 0,
						"slot": "5",
						"type": "t_array(t_address)dyn_storage"
					},
					{
						"astId": 893,
						"contract": "contracts/vesting_1.4_test.sol:VestingTeamAndAdvisors",
						"label": "_totalBeneficiariesAmount",
						"offset": 0,
						"slot": "6",
						"type": "t_uint256"
					},
					{
						"astId": 896,
						"contract": "contracts/vesting_1.4_test.sol:VestingTeamAndAdvisors",
						"label": "_beneficiary_list",
						"offset": 0,
						"slot": "7",
						"type": "t_array(t_address)dyn_storage"
					},
					{
						"astId": 898,
						"contract": "contracts/vesting_1.4_test.sol:VestingTeamAndAdvisors",
						"label": "approver",
						"offset": 0,
						"slot": "8",
						"type": "t_address"
					}
				],
				"types": {
					"t_address": {
						"encoding": "inplace",
						"label": "address",
						"numberOfBytes": "20"
					},
					"t_array(t_address)dyn_storage": {
						"base": "t_address",
						"encoding": "dynamic_array",
						"label": "address[]",
						"numberOfBytes": "32"
					},
					"t_array(t_array(t_uint256)4_storage)dyn_storage": {
						"base": "t_array(t_uint256)4_storage",
						"encoding": "dynamic_array",
						"label": "uint256[4][]",
						"numberOfBytes": "32"
					},
					"t_array(t_string_storage)dyn_storage": {
						"base": "t_string_storage",
						"encoding": "dynamic_array",
						"label": "string[]",
						"numberOfBytes": "32"
					},
					"t_array(t_uint256)4_storage": {
						"base": "t_uint256",
						"encoding": "inplace",
						"label": "uint256[4]",
						"numberOfBytes": "128"
					},
					"t_mapping(t_address,t_address)": {
						"encoding": "mapping",
						"key": "t_address",
						"label": "mapping(address => address)",
						"numberOfBytes": "32",
						"value": "t_address"
					},
					"t_mapping(t_address,t_array(t_array(t_uint256)4_storage)dyn_storage)": {
						"encoding": "mapping",
						"key": "t_address",
						"label": "mapping(address => uint256[4][])",
						"numberOfBytes": "32",
						"value": "t_array(t_array(t_uint256)4_storage)dyn_storage"
					},
					"t_mapping(t_address,t_array(t_string_storage)dyn_storage)": {
						"encoding": "mapping",
						"key": "t_address",
						"label": "mapping(address => string[])",
						"numberOfBytes": "32",
						"value": "t_array(t_string_storage)dyn_storage"
					},
					"t_string_storage": {
						"encoding": "bytes",
						"label": "string",
						"numberOfBytes": "32"
					},
					"t_uint256": {
						"encoding": "inplace",
						"label": "uint256",
						"numberOfBytes": "32"
					}
				}
			},
			"userdoc": {
				"kind": "user",
				"methods": {
					"addBeneficiary(address,uint256[],uint256[])": {
						"notice": "Add beneficiary with initial tokens to be received."
					},
					"addPaymentToBeneficiary(address,uint256,uint256)": {
						"notice": "Add additional payments to beneficiary."
					},
					"beneficiary(address)": {
						"notice": "Returns array with all payments(released and not released) for given beneficiary that will receive the tokens."
					},
					"cancelPaymentToBeneficiary(address,uint256,string)": {
						"notice": "Removes payment from beneficiary."
					},
					"changeBeneficiaryWallet(address)": {
						"notice": "Beneficiary can change wallet address for some reason. Can be done only by the beneficiary"
					},
					"constructor": {
						"notice": "Deploys a time-lock instance that is able to hold the token specified, and will only release it to `beneficiary_` when {release} is invoked after `releaseTime_ (parameter at index 1 in  address => uint256[3][])`.  The release time is specified as a Unix timestamp (in seconds)."
					},
					"currentBalance()": {
						"notice": "Returns all tokens held in contract."
					},
					"currentNonUtilizedAmount()": {
						"notice": "Returns the difference between token balance and locked tokens if any."
					},
					"decimals()": {
						"notice": "Returns the decimal of the token being held."
					},
					"getCanceledPaymentsAddresses()": {
						"notice": "Returns array with addresses of beneficiaries with canceled payments."
					},
					"getReasonForCancellation(address)": {
						"notice": "Returns reason for cancellation of payments of beneficiary."
					},
					"release(address)": {
						"notice": "Checks if there are released payments for a beneficiary and any transfers the tokens to the beneficiary. Can be called by Owner of the contract or the beneficiary."
					},
					"renounceOwnership()": {
						"notice": "Renounce ownership not possible with this smart contract."
					},
					"returnBeneficiaryList()": {
						"notice": "Returns all beneficiary addresses included in the vesting contract."
					},
					"symbol()": {
						"notice": "Returns the symbol of the token being held."
					},
					"token()": {
						"notice": "Returns the token being held."
					},
					"totalUnreleasedPayments()": {
						"notice": "Returns the sum of all locked tokens."
					},
					"transferExcessBalance(address)": {
						"notice": "Owner can transfer excess balance(after canceling of payments) to address of his choice."
					}
				},
				"notice": "A token holder contract that will allow a beneficiary to extract the tokens after a given release time. Useful for vesting schedules like \"advisors get their tokens on predefined tim schedule\".",
				"version": 1
			}
		}
	}
}