{
	"contracts/contract_with_solidity_features.sol": {
		"Tester": {
			"abi": [
				{
					"inputs": [],
					"stateMutability": "nonpayable",
					"type": "constructor"
				},
				{
					"inputs": [
						{
							"internalType": "string",
							"name": "message",
							"type": "string"
						}
					],
					"name": "Custom__Error",
					"type": "error"
				},
				{
					"inputs": [
						{
							"internalType": "bytes",
							"name": "response",
							"type": "bytes"
						}
					],
					"name": "YourError",
					"type": "error"
				},
				{
					"anonymous": false,
					"inputs": [
						{
							"indexed": false,
							"internalType": "address",
							"name": "user",
							"type": "address"
						},
						{
							"indexed": false,
							"internalType": "uint256",
							"name": "value",
							"type": "uint256"
						}
					],
					"name": "addressAdded",
					"type": "event"
				},
				{
					"inputs": [],
					"name": "RaiseError",
					"outputs": [],
					"stateMutability": "pure",
					"type": "function"
				},
				{
					"inputs": [],
					"name": "activate",
					"outputs": [],
					"stateMutability": "nonpayable",
					"type": "function"
				},
				{
					"inputs": [
						{
							"internalType": "address",
							"name": "_addr",
							"type": "address"
						},
						{
							"internalType": "uint256",
							"name": "_amount",
							"type": "uint256"
						}
					],
					"name": "addUser",
					"outputs": [],
					"stateMutability": "nonpayable",
					"type": "function"
				},
				{
					"inputs": [],
					"name": "currentState",
					"outputs": [
						{
							"internalType": "enum State",
							"name": "",
							"type": "uint8"
						}
					],
					"stateMutability": "view",
					"type": "function"
				},
				{
					"inputs": [],
					"name": "deactivate",
					"outputs": [],
					"stateMutability": "nonpayable",
					"type": "function"
				},
				{
					"inputs": [
						{
							"internalType": "address",
							"name": "_addr",
							"type": "address"
						}
					],
					"name": "getUser",
					"outputs": [
						{
							"internalType": "uint256",
							"name": "",
							"type": "uint256"
						}
					],
					"stateMutability": "view",
					"type": "function"
				},
				{
					"inputs": [
						{
							"internalType": "int256",
							"name": "a",
							"type": "int256"
						},
						{
							"internalType": "int256",
							"name": "b",
							"type": "int256"
						}
					],
					"name": "simpleSubstraction",
					"outputs": [
						{
							"internalType": "int256",
							"name": "",
							"type": "int256"
						}
					],
					"stateMutability": "pure",
					"type": "function"
				},
				{
					"inputs": [
						{
							"internalType": "int256",
							"name": "a",
							"type": "int256"
						},
						{
							"internalType": "int256",
							"name": "b",
							"type": "int256"
						}
					],
					"name": "simpleSubstractionWithOtherErrorHandling",
					"outputs": [
						{
							"internalType": "int256",
							"name": "",
							"type": "int256"
						}
					],
					"stateMutability": "pure",
					"type": "function"
				},
				{
					"inputs": [
						{
							"internalType": "string",
							"name": "message",
							"type": "string"
						}
					],
					"name": "testCaldata",
					"outputs": [
						{
							"internalType": "string",
							"name": "",
							"type": "string"
						}
					],
					"stateMutability": "pure",
					"type": "function"
				},
				{
					"inputs": [],
					"name": "testFuncReturningMoreThanOneValue",
					"outputs": [
						{
							"internalType": "uint256",
							"name": "",
							"type": "uint256"
						},
						{
							"internalType": "string",
							"name": "",
							"type": "string"
						}
					],
					"stateMutability": "pure",
					"type": "function"
				},
				{
					"inputs": [],
					"name": "testReturnsTupleWhichIsNotPossibleInSolidity",
					"outputs": [
						{
							"internalType": "uint256",
							"name": "",
							"type": "uint256"
						},
						{
							"internalType": "uint256",
							"name": "",
							"type": "uint256"
						}
					],
					"stateMutability": "pure",
					"type": "function"
				}
			],
			"devdoc": {
				"kind": "dev",
				"methods": {},
				"version": 1
			},
			"evm": {
				"assembly": "    /* \"contracts/contract_with_solidity_features.sol\":173:2193  contract Tester {... */\n  mstore(0x40, 0x80)\n    /* \"contracts/contract_with_solidity_features.sol\":383:441  constructor(){... */\n  callvalue\n  dup1\n  iszero\n  tag_1\n  jumpi\n  0x00\n  dup1\n  revert\ntag_1:\n  pop\n    /* \"contracts/contract_with_solidity_features.sol\":421:434  State.Pending */\n  0x00\n    /* \"contracts/contract_with_solidity_features.sol\":406:418  currentState */\n  dup1\n  0x00\n    /* \"contracts/contract_with_solidity_features.sol\":406:434  currentState = State.Pending */\n  0x0100\n  exp\n  dup2\n  sload\n  dup2\n  0xff\n  mul\n  not\n  and\n  swap1\n  dup4\n  0x02\n  dup2\n  gt\n  iszero\n  tag_4\n  jumpi\n  tag_5\n  tag_6\n  jump\t// in\ntag_5:\ntag_4:\n  mul\n  or\n  swap1\n  sstore\n  pop\n    /* \"contracts/contract_with_solidity_features.sol\":173:2193  contract Tester {... */\n  jump(tag_7)\n    /* \"#utility.yul\":7:187   */\ntag_6:\n    /* \"#utility.yul\":55:132   */\n  0x4e487b7100000000000000000000000000000000000000000000000000000000\n    /* \"#utility.yul\":52:53   */\n  0x00\n    /* \"#utility.yul\":45:133   */\n  mstore\n    /* \"#utility.yul\":152:156   */\n  0x21\n    /* \"#utility.yul\":149:150   */\n  0x04\n    /* \"#utility.yul\":142:157   */\n  mstore\n    /* \"#utility.yul\":176:180   */\n  0x24\n    /* \"#utility.yul\":173:174   */\n  0x00\n    /* \"#utility.yul\":166:181   */\n  revert\n    /* \"contracts/contract_with_solidity_features.sol\":173:2193  contract Tester {... */\ntag_7:\n  dataSize(sub_0)\n  dup1\n  dataOffset(sub_0)\n  0x00\n  codecopy\n  0x00\n  return\nstop\n\nsub_0: assembly {\n        /* \"contracts/contract_with_solidity_features.sol\":173:2193  contract Tester {... */\n      mstore(0x40, 0x80)\n      callvalue\n      dup1\n      iszero\n      tag_1\n      jumpi\n      0x00\n      dup1\n      revert\n    tag_1:\n      pop\n      jumpi(tag_2, lt(calldatasize, 0x04))\n      shr(0xe0, calldataload(0x00))\n      dup1\n      0x6f77926b\n      gt\n      tag_14\n      jumpi\n      dup1\n      0x6f77926b\n      eq\n      tag_8\n      jumpi\n      dup1\n      0xa1b82903\n      eq\n      tag_9\n      jumpi\n      dup1\n      0xa395be10\n      eq\n      tag_10\n      jumpi\n      dup1\n      0xaa08f2fc\n      eq\n      tag_11\n      jumpi\n      dup1\n      0xb8cc5f88\n      eq\n      tag_12\n      jumpi\n      dup1\n      0xd3017193\n      eq\n      tag_13\n      jumpi\n      jump(tag_2)\n    tag_14:\n      dup1\n      0x0a311a43\n      eq\n      tag_3\n      jumpi\n      dup1\n      0x0c3f6acf\n      eq\n      tag_4\n      jumpi\n      dup1\n      0x0f15f4c0\n      eq\n      tag_5\n      jumpi\n      dup1\n      0x39896f83\n      eq\n      tag_6\n      jumpi\n      dup1\n      0x51b42b00\n      eq\n      tag_7\n      jumpi\n    tag_2:\n      0x00\n      dup1\n      revert\n        /* \"contracts/contract_with_solidity_features.sol\":1758:1886  function testFuncReturningMoreThanOneValue() external pure returns (uint256, string memory){... */\n    tag_3:\n      tag_15\n      tag_16\n      jump\t// in\n    tag_15:\n      mload(0x40)\n      tag_17\n      swap3\n      swap2\n      swap1\n      tag_18\n      jump\t// in\n    tag_17:\n      mload(0x40)\n      dup1\n      swap2\n      sub\n      swap1\n      return\n        /* \"contracts/contract_with_solidity_features.sol\":247:272  State public currentState */\n    tag_4:\n      tag_19\n      tag_20\n      jump\t// in\n    tag_19:\n      mload(0x40)\n      tag_21\n      swap2\n      swap1\n      tag_22\n      jump\t// in\n    tag_21:\n      mload(0x40)\n      dup1\n      swap2\n      sub\n      swap1\n      return\n        /* \"contracts/contract_with_solidity_features.sol\":2027:2100  function activate() external {... */\n    tag_5:\n      tag_23\n      tag_24\n      jump\t// in\n    tag_23:\n      stop\n        /* \"contracts/contract_with_solidity_features.sol\":1896:2021  function testReturnsTupleWhichIsNotPossibleInSolidity() external pure returns (uint256, uint256){... */\n    tag_6:\n      tag_25\n      tag_26\n      jump\t// in\n    tag_25:\n      mload(0x40)\n      tag_27\n      swap3\n      swap2\n      swap1\n      tag_28\n      jump\t// in\n    tag_27:\n      mload(0x40)\n      dup1\n      swap2\n      sub\n      swap1\n      return\n        /* \"contracts/contract_with_solidity_features.sol\":2106:2183  function deactivate() external {... */\n    tag_7:\n      tag_29\n      tag_30\n      jump\t// in\n    tag_29:\n      stop\n        /* \"contracts/contract_with_solidity_features.sol\":1444:1752  function getUser(address _addr) public view returns(uint256){... */\n    tag_8:\n      tag_31\n      0x04\n      dup1\n      calldatasize\n      sub\n      dup2\n      add\n      swap1\n      tag_32\n      swap2\n      swap1\n      tag_33\n      jump\t// in\n    tag_32:\n      tag_34\n      jump\t// in\n    tag_31:\n      mload(0x40)\n      tag_35\n      swap2\n      swap1\n      tag_36\n      jump\t// in\n    tag_35:\n      mload(0x40)\n      dup1\n      swap2\n      sub\n      swap1\n      return\n        /* \"contracts/contract_with_solidity_features.sol\":1056:1245  function simpleSubstractionWithOtherErrorHandling(int256 a, int256 b) public pure returns (int){... */\n    tag_9:\n      tag_37\n      0x04\n      dup1\n      calldatasize\n      sub\n      dup2\n      add\n      swap1\n      tag_38\n      swap2\n      swap1\n      tag_39\n      jump\t// in\n    tag_38:\n      tag_40\n      jump\t// in\n    tag_37:\n      mload(0x40)\n      tag_41\n      swap2\n      swap1\n      tag_42\n      jump\t// in\n    tag_41:\n      mload(0x40)\n      dup1\n      swap2\n      sub\n      swap1\n      return\n        /* \"contracts/contract_with_solidity_features.sol\":507:598  function RaiseError() public pure {... */\n    tag_10:\n      tag_43\n      tag_44\n      jump\t// in\n    tag_43:\n      stop\n        /* \"contracts/contract_with_solidity_features.sol\":866:1050  function simpleSubstraction(int256 a, int256 b) public pure returns (int){... */\n    tag_11:\n      tag_45\n      0x04\n      dup1\n      calldatasize\n      sub\n      dup2\n      add\n      swap1\n      tag_46\n      swap2\n      swap1\n      tag_39\n      jump\t// in\n    tag_46:\n      tag_47\n      jump\t// in\n    tag_45:\n      mload(0x40)\n      tag_48\n      swap2\n      swap1\n      tag_42\n      jump\t// in\n    tag_48:\n      mload(0x40)\n      dup1\n      swap2\n      sub\n      swap1\n      return\n        /* \"contracts/contract_with_solidity_features.sol\":604:860  function testCaldata(string calldata message) public pure returns (string memory){... */\n    tag_12:\n      tag_49\n      0x04\n      dup1\n      calldatasize\n      sub\n      dup2\n      add\n      swap1\n      tag_50\n      swap2\n      swap1\n      tag_51\n      jump\t// in\n    tag_50:\n      tag_52\n      jump\t// in\n    tag_49:\n      mload(0x40)\n      tag_53\n      swap2\n      swap1\n      tag_54\n      jump\t// in\n    tag_53:\n      mload(0x40)\n      dup1\n      swap2\n      sub\n      swap1\n      return\n        /* \"contracts/contract_with_solidity_features.sol\":1251:1438  function addUser(address _addr, uint256 _amount) public {... */\n    tag_13:\n      tag_55\n      0x04\n      dup1\n      calldatasize\n      sub\n      dup2\n      add\n      swap1\n      tag_56\n      swap2\n      swap1\n      tag_57\n      jump\t// in\n    tag_56:\n      tag_58\n      jump\t// in\n    tag_55:\n      stop\n        /* \"contracts/contract_with_solidity_features.sol\":1758:1886  function testFuncReturningMoreThanOneValue() external pure returns (uint256, string memory){... */\n    tag_16:\n        /* \"contracts/contract_with_solidity_features.sol\":1826:1833  uint256 */\n      0x00\n        /* \"contracts/contract_with_solidity_features.sol\":1835:1848  string memory */\n      0x60\n        /* \"contracts/contract_with_solidity_features.sol\":1867:1869  12 */\n      0x0c\n        /* \"contracts/contract_with_solidity_features.sol\":1859:1879  return (12, \"pesho\") */\n      mload(0x40)\n      dup1\n      0x40\n      add\n      0x40\n      mstore\n      dup1\n      0x05\n      dup2\n      mstore\n      0x20\n      add\n      0x706573686f000000000000000000000000000000000000000000000000000000\n      dup2\n      mstore\n      pop\n      swap2\n      pop\n      swap2\n      pop\n        /* \"contracts/contract_with_solidity_features.sol\":1758:1886  function testFuncReturningMoreThanOneValue() external pure returns (uint256, string memory){... */\n      swap1\n      swap2\n      jump\t// out\n        /* \"contracts/contract_with_solidity_features.sol\":247:272  State public currentState */\n    tag_20:\n      0x00\n      dup1\n      sload\n      swap1\n      0x0100\n      exp\n      swap1\n      div\n      0xff\n      and\n      dup2\n      jump\t// out\n        /* \"contracts/contract_with_solidity_features.sol\":2027:2100  function activate() external {... */\n    tag_24:\n        /* \"contracts/contract_with_solidity_features.sol\":2081:2093  State.Active */\n      0x01\n        /* \"contracts/contract_with_solidity_features.sol\":2066:2078  currentState */\n      0x00\n      dup1\n        /* \"contracts/contract_with_solidity_features.sol\":2066:2093  currentState = State.Active */\n      0x0100\n      exp\n      dup2\n      sload\n      dup2\n      0xff\n      mul\n      not\n      and\n      swap1\n      dup4\n      0x02\n      dup2\n      gt\n      iszero\n      tag_61\n      jumpi\n      tag_62\n      tag_63\n      jump\t// in\n    tag_62:\n    tag_61:\n      mul\n      or\n      swap1\n      sstore\n      pop\n        /* \"contracts/contract_with_solidity_features.sol\":2027:2100  function activate() external {... */\n      jump\t// out\n        /* \"contracts/contract_with_solidity_features.sol\":1896:2021  function testReturnsTupleWhichIsNotPossibleInSolidity() external pure returns (uint256, uint256){... */\n    tag_26:\n        /* \"contracts/contract_with_solidity_features.sol\":1975:1982  uint256 */\n      0x00\n        /* \"contracts/contract_with_solidity_features.sol\":1984:1991  uint256 */\n      dup1\n        /* \"contracts/contract_with_solidity_features.sol\":2010:2011  1 */\n      0x01\n        /* \"contracts/contract_with_solidity_features.sol\":2012:2013  2 */\n      0x02\n        /* \"contracts/contract_with_solidity_features.sol\":2002:2014  return (1,2) */\n      swap2\n      pop\n      swap2\n      pop\n        /* \"contracts/contract_with_solidity_features.sol\":1896:2021  function testReturnsTupleWhichIsNotPossibleInSolidity() external pure returns (uint256, uint256){... */\n      swap1\n      swap2\n      jump\t// out\n        /* \"contracts/contract_with_solidity_features.sol\":2106:2183  function deactivate() external {... */\n    tag_30:\n        /* \"contracts/contract_with_solidity_features.sol\":2162:2176  State.Inactive */\n      0x02\n        /* \"contracts/contract_with_solidity_features.sol\":2147:2159  currentState */\n      0x00\n      dup1\n        /* \"contracts/contract_with_solidity_features.sol\":2147:2176  currentState = State.Inactive */\n      0x0100\n      exp\n      dup2\n      sload\n      dup2\n      0xff\n      mul\n      not\n      and\n      swap1\n      dup4\n      0x02\n      dup2\n      gt\n      iszero\n      tag_66\n      jumpi\n      tag_67\n      tag_63\n      jump\t// in\n    tag_67:\n    tag_66:\n      mul\n      or\n      swap1\n      sstore\n      pop\n        /* \"contracts/contract_with_solidity_features.sol\":2106:2183  function deactivate() external {... */\n      jump\t// out\n        /* \"contracts/contract_with_solidity_features.sol\":1444:1752  function getUser(address _addr) public view returns(uint256){... */\n    tag_34:\n        /* \"contracts/contract_with_solidity_features.sol\":1496:1503  uint256 */\n      0x00\n        /* \"contracts/contract_with_solidity_features.sol\":1514:1528  uint256 amount */\n      dup1\n        /* \"contracts/contract_with_solidity_features.sol\":1531:1532  0 */\n      0x00\n        /* \"contracts/contract_with_solidity_features.sol\":1514:1532  uint256 amount = 0 */\n      swap1\n      pop\n        /* \"contracts/contract_with_solidity_features.sol\":1547:1556  uint256 i */\n      0x00\n        /* \"contracts/contract_with_solidity_features.sol\":1542:1723  for (uint256 i; i<users.length; i++) ... */\n    tag_69:\n        /* \"contracts/contract_with_solidity_features.sol\":1560:1565  users */\n      0x01\n        /* \"contracts/contract_with_solidity_features.sol\":1560:1572  users.length */\n      dup1\n      sload\n      swap1\n      pop\n        /* \"contracts/contract_with_solidity_features.sol\":1558:1559  i */\n      dup2\n        /* \"contracts/contract_with_solidity_features.sol\":1558:1572  i<users.length */\n      lt\n        /* \"contracts/contract_with_solidity_features.sol\":1542:1723  for (uint256 i; i<users.length; i++) ... */\n      iszero\n      tag_70\n      jumpi\n        /* \"contracts/contract_with_solidity_features.sol\":1615:1620  users */\n      0x01\n        /* \"contracts/contract_with_solidity_features.sol\":1621:1622  i */\n      dup2\n        /* \"contracts/contract_with_solidity_features.sol\":1615:1623  users[i] */\n      dup2\n      sload\n      dup2\n      lt\n      tag_72\n      jumpi\n      tag_73\n      tag_74\n      jump\t// in\n    tag_73:\n    tag_72:\n      swap1\n      0x00\n      mstore\n      keccak256(0x00, 0x20)\n      swap1\n      0x02\n      mul\n      add\n        /* \"contracts/contract_with_solidity_features.sol\":1615:1630  users[i].wallet */\n      0x00\n      add\n      0x00\n      swap1\n      sload\n      swap1\n      0x0100\n      exp\n      swap1\n      div\n      0xffffffffffffffffffffffffffffffffffffffff\n      and\n        /* \"contracts/contract_with_solidity_features.sol\":1606:1630  _addr == users[i].wallet */\n      0xffffffffffffffffffffffffffffffffffffffff\n      and\n        /* \"contracts/contract_with_solidity_features.sol\":1606:1611  _addr */\n      dup5\n        /* \"contracts/contract_with_solidity_features.sol\":1606:1630  _addr == users[i].wallet */\n      0xffffffffffffffffffffffffffffffffffffffff\n      and\n      sub\n        /* \"contracts/contract_with_solidity_features.sol\":1602:1713  if (_addr == users[i].wallet) {... */\n      tag_76\n      jumpi\n        /* \"contracts/contract_with_solidity_features.sol\":1659:1664  users */\n      0x01\n        /* \"contracts/contract_with_solidity_features.sol\":1665:1666  i */\n      dup2\n        /* \"contracts/contract_with_solidity_features.sol\":1659:1667  users[i] */\n      dup2\n      sload\n      dup2\n      lt\n      tag_77\n      jumpi\n      tag_78\n      tag_74\n      jump\t// in\n    tag_78:\n    tag_77:\n      swap1\n      0x00\n      mstore\n      keccak256(0x00, 0x20)\n      swap1\n      0x02\n      mul\n      add\n        /* \"contracts/contract_with_solidity_features.sol\":1659:1674  users[i].amount */\n      0x01\n      add\n      sload\n        /* \"contracts/contract_with_solidity_features.sol\":1650:1674  amount = users[i].amount */\n      swap2\n      pop\n        /* \"contracts/contract_with_solidity_features.sol\":1692:1697  break */\n      jump(tag_70)\n        /* \"contracts/contract_with_solidity_features.sol\":1602:1713  if (_addr == users[i].wallet) {... */\n    tag_76:\n        /* \"contracts/contract_with_solidity_features.sol\":1574:1577  i++ */\n      dup1\n      dup1\n      0x01\n      add\n      swap2\n      pop\n      pop\n        /* \"contracts/contract_with_solidity_features.sol\":1542:1723  for (uint256 i; i<users.length; i++) ... */\n      jump(tag_69)\n    tag_70:\n      pop\n        /* \"contracts/contract_with_solidity_features.sol\":1739:1745  amount */\n      dup1\n        /* \"contracts/contract_with_solidity_features.sol\":1732:1745  return amount */\n      swap2\n      pop\n      pop\n        /* \"contracts/contract_with_solidity_features.sol\":1444:1752  function getUser(address _addr) public view returns(uint256){... */\n      swap2\n      swap1\n      pop\n      jump\t// out\n        /* \"contracts/contract_with_solidity_features.sol\":1056:1245  function simpleSubstractionWithOtherErrorHandling(int256 a, int256 b) public pure returns (int){... */\n    tag_40:\n        /* \"contracts/contract_with_solidity_features.sol\":1147:1150  int */\n      0x00\n        /* \"contracts/contract_with_solidity_features.sol\":1161:1173  bool success */\n      dup1\n        /* \"contracts/contract_with_solidity_features.sol\":1178:1179  0 */\n      0x00\n        /* \"contracts/contract_with_solidity_features.sol\":1176:1177  a */\n      dup5\n        /* \"contracts/contract_with_solidity_features.sol\":1176:1179  a>0 */\n      sgt\n        /* \"contracts/contract_with_solidity_features.sol\":1161:1179  bool success = a>0 */\n      swap1\n      pop\n        /* \"contracts/contract_with_solidity_features.sol\":1197:1204  success */\n      dup1\n        /* \"contracts/contract_with_solidity_features.sol\":1189:1217  require(success, \"ne staaa\") */\n      tag_81\n      jumpi\n      mload(0x40)\n      0x08c379a000000000000000000000000000000000000000000000000000000000\n      dup2\n      mstore\n      0x04\n      add\n      tag_82\n      swap1\n      tag_83\n      jump\t// in\n    tag_82:\n      mload(0x40)\n      dup1\n      swap2\n      sub\n      swap1\n      revert\n    tag_81:\n        /* \"contracts/contract_with_solidity_features.sol\":1236:1237  b */\n      dup3\n        /* \"contracts/contract_with_solidity_features.sol\":1234:1235  a */\n      dup5\n        /* \"contracts/contract_with_solidity_features.sol\":1234:1237  a-b */\n      tag_84\n      swap2\n      swap1\n      tag_85\n      jump\t// in\n    tag_84:\n        /* \"contracts/contract_with_solidity_features.sol\":1227:1237  return a-b */\n      swap2\n      pop\n      pop\n        /* \"contracts/contract_with_solidity_features.sol\":1056:1245  function simpleSubstractionWithOtherErrorHandling(int256 a, int256 b) public pure returns (int){... */\n      swap3\n      swap2\n      pop\n      pop\n      jump\t// out\n        /* \"contracts/contract_with_solidity_features.sol\":507:598  function RaiseError() public pure {... */\n    tag_44:\n        /* \"contracts/contract_with_solidity_features.sol\":558:591  Custom__Error(\"Pesho e pedal!!!\") */\n      mload(0x40)\n      0x5457dcdf00000000000000000000000000000000000000000000000000000000\n      dup2\n      mstore\n      0x04\n      add\n      tag_87\n      swap1\n      tag_88\n      jump\t// in\n    tag_87:\n      mload(0x40)\n      dup1\n      swap2\n      sub\n      swap1\n      revert\n        /* \"contracts/contract_with_solidity_features.sol\":866:1050  function simpleSubstraction(int256 a, int256 b) public pure returns (int){... */\n    tag_47:\n        /* \"contracts/contract_with_solidity_features.sol\":935:938  int */\n      0x00\n        /* \"contracts/contract_with_solidity_features.sol\":949:961  bool success */\n      dup1\n        /* \"contracts/contract_with_solidity_features.sol\":966:967  0 */\n      0x00\n        /* \"contracts/contract_with_solidity_features.sol\":964:965  a */\n      dup5\n        /* \"contracts/contract_with_solidity_features.sol\":964:967  a>0 */\n      sgt\n        /* \"contracts/contract_with_solidity_features.sol\":949:967  bool success = a>0 */\n      swap1\n      pop\n        /* \"contracts/contract_with_solidity_features.sol\":982:989  success */\n      dup1\n        /* \"contracts/contract_with_solidity_features.sol\":977:1023  if (!success) { revert YourError(\"Ne staa\"); } */\n      tag_90\n      jumpi\n        /* \"contracts/contract_with_solidity_features.sol\":1000:1020  YourError(\"Ne staa\") */\n      mload(0x40)\n      0xb2f324f900000000000000000000000000000000000000000000000000000000\n      dup2\n      mstore\n      0x04\n      add\n      tag_91\n      swap1\n      tag_92\n      jump\t// in\n    tag_91:\n      mload(0x40)\n      dup1\n      swap2\n      sub\n      swap1\n      revert\n        /* \"contracts/contract_with_solidity_features.sol\":977:1023  if (!success) { revert YourError(\"Ne staa\"); } */\n    tag_90:\n        /* \"contracts/contract_with_solidity_features.sol\":1041:1042  b */\n      dup3\n        /* \"contracts/contract_with_solidity_features.sol\":1039:1040  a */\n      dup5\n        /* \"contracts/contract_with_solidity_features.sol\":1039:1042  a-b */\n      tag_93\n      swap2\n      swap1\n      tag_85\n      jump\t// in\n    tag_93:\n        /* \"contracts/contract_with_solidity_features.sol\":1032:1042  return a-b */\n      swap2\n      pop\n      pop\n        /* \"contracts/contract_with_solidity_features.sol\":866:1050  function simpleSubstraction(int256 a, int256 b) public pure returns (int){... */\n      swap3\n      swap2\n      pop\n      pop\n      jump\t// out\n        /* \"contracts/contract_with_solidity_features.sol\":604:860  function testCaldata(string calldata message) public pure returns (string memory){... */\n    tag_52:\n        /* \"contracts/contract_with_solidity_features.sol\":671:684  string memory */\n      0x60\n        /* \"contracts/contract_with_solidity_features.sol\":695:710  string memory a */\n      0x00\n        /* \"contracts/contract_with_solidity_features.sol\":695:718  string memory a = \"123\" */\n      mload(0x40)\n      dup1\n      0x40\n      add\n      0x40\n      mstore\n      dup1\n      0x03\n      dup2\n      mstore\n      0x20\n      add\n      0x3132330000000000000000000000000000000000000000000000000000000000\n      dup2\n      mstore\n      pop\n      swap1\n      pop\n        /* \"contracts/contract_with_solidity_features.sol\":774:798  string memory newMessage */\n      0x00\n        /* \"contracts/contract_with_solidity_features.sol\":815:822  message */\n      dup5\n      dup5\n        /* \"contracts/contract_with_solidity_features.sol\":824:825  a */\n      dup4\n        /* \"contracts/contract_with_solidity_features.sol\":801:826  string.concat(message, a) */\n      add(0x20, mload(0x40))\n      tag_95\n      swap4\n      swap3\n      swap2\n      swap1\n      tag_96\n      jump\t// in\n    tag_95:\n      mload(0x40)\n      0x20\n      dup2\n      dup4\n      sub\n      sub\n      dup2\n      mstore\n      swap1\n      0x40\n      mstore\n        /* \"contracts/contract_with_solidity_features.sol\":774:826  string memory newMessage = string.concat(message, a) */\n      swap1\n      pop\n        /* \"contracts/contract_with_solidity_features.sol\":843:853  newMessage */\n      dup1\n        /* \"contracts/contract_with_solidity_features.sol\":836:853  return newMessage */\n      swap3\n      pop\n      pop\n      pop\n        /* \"contracts/contract_with_solidity_features.sol\":604:860  function testCaldata(string calldata message) public pure returns (string memory){... */\n      swap3\n      swap2\n      pop\n      pop\n      jump\t// out\n        /* \"contracts/contract_with_solidity_features.sol\":1251:1438  function addUser(address _addr, uint256 _amount) public {... */\n    tag_58:\n        /* \"contracts/contract_with_solidity_features.sol\":1317:1336  User memory newUser */\n      0x00\n        /* \"contracts/contract_with_solidity_features.sol\":1339:1359  User(_addr, _amount) */\n      mload(0x40)\n      dup1\n      0x40\n      add\n      0x40\n      mstore\n      dup1\n        /* \"contracts/contract_with_solidity_features.sol\":1344:1349  _addr */\n      dup5\n        /* \"contracts/contract_with_solidity_features.sol\":1339:1359  User(_addr, _amount) */\n      0xffffffffffffffffffffffffffffffffffffffff\n      and\n      dup2\n      mstore\n      0x20\n      add\n        /* \"contracts/contract_with_solidity_features.sol\":1351:1358  _amount */\n      dup4\n        /* \"contracts/contract_with_solidity_features.sol\":1339:1359  User(_addr, _amount) */\n      dup2\n      mstore\n      pop\n        /* \"contracts/contract_with_solidity_features.sol\":1317:1359  User memory newUser = User(_addr, _amount) */\n      swap1\n      pop\n        /* \"contracts/contract_with_solidity_features.sol\":1369:1374  users */\n      0x01\n        /* \"contracts/contract_with_solidity_features.sol\":1380:1387  newUser */\n      dup2\n        /* \"contracts/contract_with_solidity_features.sol\":1369:1388  users.push(newUser) */\n      swap1\n      dup1\n      0x01\n      dup2\n      sload\n      add\n      dup1\n      dup3\n      sstore\n      dup1\n      swap2\n      pop\n      pop\n      0x01\n      swap1\n      sub\n      swap1\n      0x00\n      mstore\n      keccak256(0x00, 0x20)\n      swap1\n      0x02\n      mul\n      add\n      0x00\n      swap1\n      swap2\n      swap1\n      swap2\n      swap1\n      swap2\n      pop\n      0x00\n      dup3\n      add\n      mload\n      dup2\n      0x00\n      add\n      exp(0x0100, 0x00)\n      dup2\n      sload\n      dup2\n      0xffffffffffffffffffffffffffffffffffffffff\n      mul\n      not\n      and\n      swap1\n      dup4\n      0xffffffffffffffffffffffffffffffffffffffff\n      and\n      mul\n      or\n      swap1\n      sstore\n      pop\n      0x20\n      dup3\n      add\n      mload\n      dup2\n      0x01\n      add\n      sstore\n      pop\n      pop\n        /* \"contracts/contract_with_solidity_features.sol\":1403:1431  addressAdded(_addr, _amount) */\n      0xe31e113f724c5be3599d7591cd59dee45629ae2c10baa65b083c0a9a9087fe06\n        /* \"contracts/contract_with_solidity_features.sol\":1416:1421  _addr */\n      dup4\n        /* \"contracts/contract_with_solidity_features.sol\":1423:1430  _amount */\n      dup4\n        /* \"contracts/contract_with_solidity_features.sol\":1403:1431  addressAdded(_addr, _amount) */\n      mload(0x40)\n      tag_99\n      swap3\n      swap2\n      swap1\n      tag_100\n      jump\t// in\n    tag_99:\n      mload(0x40)\n      dup1\n      swap2\n      sub\n      swap1\n      log1\n        /* \"contracts/contract_with_solidity_features.sol\":1307:1438  {... */\n      pop\n        /* \"contracts/contract_with_solidity_features.sol\":1251:1438  function addUser(address _addr, uint256 _amount) public {... */\n      pop\n      pop\n      jump\t// out\n        /* \"#utility.yul\":7:84   */\n    tag_101:\n        /* \"#utility.yul\":44:51   */\n      0x00\n        /* \"#utility.yul\":73:78   */\n      dup2\n        /* \"#utility.yul\":62:78   */\n      swap1\n      pop\n        /* \"#utility.yul\":7:84   */\n      swap2\n      swap1\n      pop\n      jump\t// out\n        /* \"#utility.yul\":90:208   */\n    tag_102:\n        /* \"#utility.yul\":177:201   */\n      tag_145\n        /* \"#utility.yul\":195:200   */\n      dup2\n        /* \"#utility.yul\":177:201   */\n      tag_101\n      jump\t// in\n    tag_145:\n        /* \"#utility.yul\":172:175   */\n      dup3\n        /* \"#utility.yul\":165:202   */\n      mstore\n        /* \"#utility.yul\":90:208   */\n      pop\n      pop\n      jump\t// out\n        /* \"#utility.yul\":214:313   */\n    tag_103:\n        /* \"#utility.yul\":266:272   */\n      0x00\n        /* \"#utility.yul\":300:305   */\n      dup2\n        /* \"#utility.yul\":294:306   */\n      mload\n        /* \"#utility.yul\":284:306   */\n      swap1\n      pop\n        /* \"#utility.yul\":214:313   */\n      swap2\n      swap1\n      pop\n      jump\t// out\n        /* \"#utility.yul\":319:488   */\n    tag_104:\n        /* \"#utility.yul\":403:414   */\n      0x00\n        /* \"#utility.yul\":437:443   */\n      dup3\n        /* \"#utility.yul\":432:435   */\n      dup3\n        /* \"#utility.yul\":425:444   */\n      mstore\n        /* \"#utility.yul\":477:481   */\n      0x20\n        /* \"#utility.yul\":472:475   */\n      dup3\n        /* \"#utility.yul\":468:482   */\n      add\n        /* \"#utility.yul\":453:482   */\n      swap1\n      pop\n        /* \"#utility.yul\":319:488   */\n      swap3\n      swap2\n      pop\n      pop\n      jump\t// out\n        /* \"#utility.yul\":494:740   */\n    tag_105:\n        /* \"#utility.yul\":575:576   */\n      0x00\n        /* \"#utility.yul\":585:698   */\n    tag_149:\n        /* \"#utility.yul\":599:605   */\n      dup4\n        /* \"#utility.yul\":596:597   */\n      dup2\n        /* \"#utility.yul\":593:606   */\n      lt\n        /* \"#utility.yul\":585:698   */\n      iszero\n      tag_151\n      jumpi\n        /* \"#utility.yul\":684:685   */\n      dup1\n        /* \"#utility.yul\":679:682   */\n      dup3\n        /* \"#utility.yul\":675:686   */\n      add\n        /* \"#utility.yul\":669:687   */\n      mload\n        /* \"#utility.yul\":665:666   */\n      dup2\n        /* \"#utility.yul\":660:663   */\n      dup5\n        /* \"#utility.yul\":656:667   */\n      add\n        /* \"#utility.yul\":649:688   */\n      mstore\n        /* \"#utility.yul\":621:623   */\n      0x20\n        /* \"#utility.yul\":618:619   */\n      dup2\n        /* \"#utility.yul\":614:624   */\n      add\n        /* \"#utility.yul\":609:624   */\n      swap1\n      pop\n        /* \"#utility.yul\":585:698   */\n      jump(tag_149)\n    tag_151:\n        /* \"#utility.yul\":732:733   */\n      0x00\n        /* \"#utility.yul\":723:729   */\n      dup5\n        /* \"#utility.yul\":718:721   */\n      dup5\n        /* \"#utility.yul\":714:730   */\n      add\n        /* \"#utility.yul\":707:734   */\n      mstore\n        /* \"#utility.yul\":556:740   */\n      pop\n        /* \"#utility.yul\":494:740   */\n      pop\n      pop\n      pop\n      jump\t// out\n        /* \"#utility.yul\":746:848   */\n    tag_106:\n        /* \"#utility.yul\":787:793   */\n      0x00\n        /* \"#utility.yul\":838:840   */\n      0x1f\n        /* \"#utility.yul\":834:841   */\n      not\n        /* \"#utility.yul\":829:831   */\n      0x1f\n        /* \"#utility.yul\":822:827   */\n      dup4\n        /* \"#utility.yul\":818:832   */\n      add\n        /* \"#utility.yul\":814:842   */\n      and\n        /* \"#utility.yul\":804:842   */\n      swap1\n      pop\n        /* \"#utility.yul\":746:848   */\n      swap2\n      swap1\n      pop\n      jump\t// out\n        /* \"#utility.yul\":854:1231   */\n    tag_107:\n        /* \"#utility.yul\":942:945   */\n      0x00\n        /* \"#utility.yul\":970:1009   */\n      tag_154\n        /* \"#utility.yul\":1003:1008   */\n      dup3\n        /* \"#utility.yul\":970:1009   */\n      tag_103\n      jump\t// in\n    tag_154:\n        /* \"#utility.yul\":1025:1096   */\n      tag_155\n        /* \"#utility.yul\":1089:1095   */\n      dup2\n        /* \"#utility.yul\":1084:1087   */\n      dup6\n        /* \"#utility.yul\":1025:1096   */\n      tag_104\n      jump\t// in\n    tag_155:\n        /* \"#utility.yul\":1018:1096   */\n      swap4\n      pop\n        /* \"#utility.yul\":1105:1170   */\n      tag_156\n        /* \"#utility.yul\":1163:1169   */\n      dup2\n        /* \"#utility.yul\":1158:1161   */\n      dup6\n        /* \"#utility.yul\":1151:1155   */\n      0x20\n        /* \"#utility.yul\":1144:1149   */\n      dup7\n        /* \"#utility.yul\":1140:1156   */\n      add\n        /* \"#utility.yul\":1105:1170   */\n      tag_105\n      jump\t// in\n    tag_156:\n        /* \"#utility.yul\":1195:1224   */\n      tag_157\n        /* \"#utility.yul\":1217:1223   */\n      dup2\n        /* \"#utility.yul\":1195:1224   */\n      tag_106\n      jump\t// in\n    tag_157:\n        /* \"#utility.yul\":1190:1193   */\n      dup5\n        /* \"#utility.yul\":1186:1225   */\n      add\n        /* \"#utility.yul\":1179:1225   */\n      swap2\n      pop\n        /* \"#utility.yul\":946:1231   */\n      pop\n        /* \"#utility.yul\":854:1231   */\n      swap3\n      swap2\n      pop\n      pop\n      jump\t// out\n        /* \"#utility.yul\":1237:1660   */\n    tag_18:\n        /* \"#utility.yul\":1378:1382   */\n      0x00\n        /* \"#utility.yul\":1416:1418   */\n      0x40\n        /* \"#utility.yul\":1405:1414   */\n      dup3\n        /* \"#utility.yul\":1401:1419   */\n      add\n        /* \"#utility.yul\":1393:1419   */\n      swap1\n      pop\n        /* \"#utility.yul\":1429:1500   */\n      tag_159\n        /* \"#utility.yul\":1497:1498   */\n      0x00\n        /* \"#utility.yul\":1486:1495   */\n      dup4\n        /* \"#utility.yul\":1482:1499   */\n      add\n        /* \"#utility.yul\":1473:1479   */\n      dup6\n        /* \"#utility.yul\":1429:1500   */\n      tag_102\n      jump\t// in\n    tag_159:\n        /* \"#utility.yul\":1547:1556   */\n      dup2\n        /* \"#utility.yul\":1541:1545   */\n      dup2\n        /* \"#utility.yul\":1537:1557   */\n      sub\n        /* \"#utility.yul\":1532:1534   */\n      0x20\n        /* \"#utility.yul\":1521:1530   */\n      dup4\n        /* \"#utility.yul\":1517:1535   */\n      add\n        /* \"#utility.yul\":1510:1558   */\n      mstore\n        /* \"#utility.yul\":1575:1653   */\n      tag_160\n        /* \"#utility.yul\":1648:1652   */\n      dup2\n        /* \"#utility.yul\":1639:1645   */\n      dup5\n        /* \"#utility.yul\":1575:1653   */\n      tag_107\n      jump\t// in\n    tag_160:\n        /* \"#utility.yul\":1567:1653   */\n      swap1\n      pop\n        /* \"#utility.yul\":1237:1660   */\n      swap4\n      swap3\n      pop\n      pop\n      pop\n      jump\t// out\n        /* \"#utility.yul\":1666:1846   */\n    tag_63:\n        /* \"#utility.yul\":1714:1791   */\n      0x4e487b7100000000000000000000000000000000000000000000000000000000\n        /* \"#utility.yul\":1711:1712   */\n      0x00\n        /* \"#utility.yul\":1704:1792   */\n      mstore\n        /* \"#utility.yul\":1811:1815   */\n      0x21\n        /* \"#utility.yul\":1808:1809   */\n      0x04\n        /* \"#utility.yul\":1801:1816   */\n      mstore\n        /* \"#utility.yul\":1835:1839   */\n      0x24\n        /* \"#utility.yul\":1832:1833   */\n      0x00\n        /* \"#utility.yul\":1825:1840   */\n      revert\n        /* \"#utility.yul\":1852:1965   */\n    tag_108:\n        /* \"#utility.yul\":1933:1934   */\n      0x03\n        /* \"#utility.yul\":1926:1931   */\n      dup2\n        /* \"#utility.yul\":1923:1935   */\n      lt\n        /* \"#utility.yul\":1913:1959   */\n      tag_163\n      jumpi\n        /* \"#utility.yul\":1939:1957   */\n      tag_164\n      tag_63\n      jump\t// in\n    tag_164:\n        /* \"#utility.yul\":1913:1959   */\n    tag_163:\n        /* \"#utility.yul\":1852:1965   */\n      pop\n      jump\t// out\n        /* \"#utility.yul\":1971:2098   */\n    tag_109:\n        /* \"#utility.yul\":2016:2023   */\n      0x00\n        /* \"#utility.yul\":2045:2050   */\n      dup2\n        /* \"#utility.yul\":2034:2050   */\n      swap1\n      pop\n        /* \"#utility.yul\":2051:2092   */\n      tag_166\n        /* \"#utility.yul\":2086:2091   */\n      dup3\n        /* \"#utility.yul\":2051:2092   */\n      tag_108\n      jump\t// in\n    tag_166:\n        /* \"#utility.yul\":1971:2098   */\n      swap2\n      swap1\n      pop\n      jump\t// out\n        /* \"#utility.yul\":2104:2231   */\n    tag_110:\n        /* \"#utility.yul\":2160:2169   */\n      0x00\n        /* \"#utility.yul\":2193:2225   */\n      tag_168\n        /* \"#utility.yul\":2219:2224   */\n      dup3\n        /* \"#utility.yul\":2193:2225   */\n      tag_109\n      jump\t// in\n    tag_168:\n        /* \"#utility.yul\":2180:2225   */\n      swap1\n      pop\n        /* \"#utility.yul\":2104:2231   */\n      swap2\n      swap1\n      pop\n      jump\t// out\n        /* \"#utility.yul\":2237:2380   */\n    tag_111:\n        /* \"#utility.yul\":2330:2373   */\n      tag_170\n        /* \"#utility.yul\":2367:2372   */\n      dup2\n        /* \"#utility.yul\":2330:2373   */\n      tag_110\n      jump\t// in\n    tag_170:\n        /* \"#utility.yul\":2325:2328   */\n      dup3\n        /* \"#utility.yul\":2318:2374   */\n      mstore\n        /* \"#utility.yul\":2237:2380   */\n      pop\n      pop\n      jump\t// out\n        /* \"#utility.yul\":2386:2620   */\n    tag_22:\n        /* \"#utility.yul\":2485:2489   */\n      0x00\n        /* \"#utility.yul\":2523:2525   */\n      0x20\n        /* \"#utility.yul\":2512:2521   */\n      dup3\n        /* \"#utility.yul\":2508:2526   */\n      add\n        /* \"#utility.yul\":2500:2526   */\n      swap1\n      pop\n        /* \"#utility.yul\":2536:2613   */\n      tag_172\n        /* \"#utility.yul\":2610:2611   */\n      0x00\n        /* \"#utility.yul\":2599:2608   */\n      dup4\n        /* \"#utility.yul\":2595:2612   */\n      add\n        /* \"#utility.yul\":2586:2592   */\n      dup5\n        /* \"#utility.yul\":2536:2613   */\n      tag_111\n      jump\t// in\n    tag_172:\n        /* \"#utility.yul\":2386:2620   */\n      swap3\n      swap2\n      pop\n      pop\n      jump\t// out\n        /* \"#utility.yul\":2626:2958   */\n    tag_28:\n        /* \"#utility.yul\":2747:2751   */\n      0x00\n        /* \"#utility.yul\":2785:2787   */\n      0x40\n        /* \"#utility.yul\":2774:2783   */\n      dup3\n        /* \"#utility.yul\":2770:2788   */\n      add\n        /* \"#utility.yul\":2762:2788   */\n      swap1\n      pop\n        /* \"#utility.yul\":2798:2869   */\n      tag_174\n        /* \"#utility.yul\":2866:2867   */\n      0x00\n        /* \"#utility.yul\":2855:2864   */\n      dup4\n        /* \"#utility.yul\":2851:2868   */\n      add\n        /* \"#utility.yul\":2842:2848   */\n      dup6\n        /* \"#utility.yul\":2798:2869   */\n      tag_102\n      jump\t// in\n    tag_174:\n        /* \"#utility.yul\":2879:2951   */\n      tag_175\n        /* \"#utility.yul\":2947:2949   */\n      0x20\n        /* \"#utility.yul\":2936:2945   */\n      dup4\n        /* \"#utility.yul\":2932:2950   */\n      add\n        /* \"#utility.yul\":2923:2929   */\n      dup5\n        /* \"#utility.yul\":2879:2951   */\n      tag_102\n      jump\t// in\n    tag_175:\n        /* \"#utility.yul\":2626:2958   */\n      swap4\n      swap3\n      pop\n      pop\n      pop\n      jump\t// out\n        /* \"#utility.yul\":3045:3162   */\n    tag_113:\n        /* \"#utility.yul\":3154:3155   */\n      0x00\n        /* \"#utility.yul\":3151:3152   */\n      dup1\n        /* \"#utility.yul\":3144:3156   */\n      revert\n        /* \"#utility.yul\":3168:3285   */\n    tag_114:\n        /* \"#utility.yul\":3277:3278   */\n      0x00\n        /* \"#utility.yul\":3274:3275   */\n      dup1\n        /* \"#utility.yul\":3267:3279   */\n      revert\n        /* \"#utility.yul\":3291:3417   */\n    tag_115:\n        /* \"#utility.yul\":3328:3335   */\n      0x00\n        /* \"#utility.yul\":3368:3410   */\n      0xffffffffffffffffffffffffffffffffffffffff\n        /* \"#utility.yul\":3361:3366   */\n      dup3\n        /* \"#utility.yul\":3357:3411   */\n      and\n        /* \"#utility.yul\":3346:3411   */\n      swap1\n      pop\n        /* \"#utility.yul\":3291:3417   */\n      swap2\n      swap1\n      pop\n      jump\t// out\n        /* \"#utility.yul\":3423:3519   */\n    tag_116:\n        /* \"#utility.yul\":3460:3467   */\n      0x00\n        /* \"#utility.yul\":3489:3513   */\n      tag_181\n        /* \"#utility.yul\":3507:3512   */\n      dup3\n        /* \"#utility.yul\":3489:3513   */\n      tag_115\n      jump\t// in\n    tag_181:\n        /* \"#utility.yul\":3478:3513   */\n      swap1\n      pop\n        /* \"#utility.yul\":3423:3519   */\n      swap2\n      swap1\n      pop\n      jump\t// out\n        /* \"#utility.yul\":3525:3647   */\n    tag_117:\n        /* \"#utility.yul\":3598:3622   */\n      tag_183\n        /* \"#utility.yul\":3616:3621   */\n      dup2\n        /* \"#utility.yul\":3598:3622   */\n      tag_116\n      jump\t// in\n    tag_183:\n        /* \"#utility.yul\":3591:3596   */\n      dup2\n        /* \"#utility.yul\":3588:3623   */\n      eq\n        /* \"#utility.yul\":3578:3641   */\n      tag_184\n      jumpi\n        /* \"#utility.yul\":3637:3638   */\n      0x00\n        /* \"#utility.yul\":3634:3635   */\n      dup1\n        /* \"#utility.yul\":3627:3639   */\n      revert\n        /* \"#utility.yul\":3578:3641   */\n    tag_184:\n        /* \"#utility.yul\":3525:3647   */\n      pop\n      jump\t// out\n        /* \"#utility.yul\":3653:3792   */\n    tag_118:\n        /* \"#utility.yul\":3699:3704   */\n      0x00\n        /* \"#utility.yul\":3737:3743   */\n      dup2\n        /* \"#utility.yul\":3724:3744   */\n      calldataload\n        /* \"#utility.yul\":3715:3744   */\n      swap1\n      pop\n        /* \"#utility.yul\":3753:3786   */\n      tag_186\n        /* \"#utility.yul\":3780:3785   */\n      dup2\n        /* \"#utility.yul\":3753:3786   */\n      tag_117\n      jump\t// in\n    tag_186:\n        /* \"#utility.yul\":3653:3792   */\n      swap3\n      swap2\n      pop\n      pop\n      jump\t// out\n        /* \"#utility.yul\":3798:4127   */\n    tag_33:\n        /* \"#utility.yul\":3857:3863   */\n      0x00\n        /* \"#utility.yul\":3906:3908   */\n      0x20\n        /* \"#utility.yul\":3894:3903   */\n      dup3\n        /* \"#utility.yul\":3885:3892   */\n      dup5\n        /* \"#utility.yul\":3881:3904   */\n      sub\n        /* \"#utility.yul\":3877:3909   */\n      slt\n        /* \"#utility.yul\":3874:3993   */\n      iszero\n      tag_188\n      jumpi\n        /* \"#utility.yul\":3912:3991   */\n      tag_189\n      tag_113\n      jump\t// in\n    tag_189:\n        /* \"#utility.yul\":3874:3993   */\n    tag_188:\n        /* \"#utility.yul\":4032:4033   */\n      0x00\n        /* \"#utility.yul\":4057:4110   */\n      tag_190\n        /* \"#utility.yul\":4102:4109   */\n      dup5\n        /* \"#utility.yul\":4093:4099   */\n      dup3\n        /* \"#utility.yul\":4082:4091   */\n      dup6\n        /* \"#utility.yul\":4078:4100   */\n      add\n        /* \"#utility.yul\":4057:4110   */\n      tag_118\n      jump\t// in\n    tag_190:\n        /* \"#utility.yul\":4047:4110   */\n      swap2\n      pop\n        /* \"#utility.yul\":4003:4120   */\n      pop\n        /* \"#utility.yul\":3798:4127   */\n      swap3\n      swap2\n      pop\n      pop\n      jump\t// out\n        /* \"#utility.yul\":4133:4355   */\n    tag_36:\n        /* \"#utility.yul\":4226:4230   */\n      0x00\n        /* \"#utility.yul\":4264:4266   */\n      0x20\n        /* \"#utility.yul\":4253:4262   */\n      dup3\n        /* \"#utility.yul\":4249:4267   */\n      add\n        /* \"#utility.yul\":4241:4267   */\n      swap1\n      pop\n        /* \"#utility.yul\":4277:4348   */\n      tag_192\n        /* \"#utility.yul\":4345:4346   */\n      0x00\n        /* \"#utility.yul\":4334:4343   */\n      dup4\n        /* \"#utility.yul\":4330:4347   */\n      add\n        /* \"#utility.yul\":4321:4327   */\n      dup5\n        /* \"#utility.yul\":4277:4348   */\n      tag_102\n      jump\t// in\n    tag_192:\n        /* \"#utility.yul\":4133:4355   */\n      swap3\n      swap2\n      pop\n      pop\n      jump\t// out\n        /* \"#utility.yul\":4361:4437   */\n    tag_119:\n        /* \"#utility.yul\":4397:4404   */\n      0x00\n        /* \"#utility.yul\":4426:4431   */\n      dup2\n        /* \"#utility.yul\":4415:4431   */\n      swap1\n      pop\n        /* \"#utility.yul\":4361:4437   */\n      swap2\n      swap1\n      pop\n      jump\t// out\n        /* \"#utility.yul\":4443:4563   */\n    tag_120:\n        /* \"#utility.yul\":4515:4538   */\n      tag_195\n        /* \"#utility.yul\":4532:4537   */\n      dup2\n        /* \"#utility.yul\":4515:4538   */\n      tag_119\n      jump\t// in\n    tag_195:\n        /* \"#utility.yul\":4508:4513   */\n      dup2\n        /* \"#utility.yul\":4505:4539   */\n      eq\n        /* \"#utility.yul\":4495:4557   */\n      tag_196\n      jumpi\n        /* \"#utility.yul\":4553:4554   */\n      0x00\n        /* \"#utility.yul\":4550:4551   */\n      dup1\n        /* \"#utility.yul\":4543:4555   */\n      revert\n        /* \"#utility.yul\":4495:4557   */\n    tag_196:\n        /* \"#utility.yul\":4443:4563   */\n      pop\n      jump\t// out\n        /* \"#utility.yul\":4569:4706   */\n    tag_121:\n        /* \"#utility.yul\":4614:4619   */\n      0x00\n        /* \"#utility.yul\":4652:4658   */\n      dup2\n        /* \"#utility.yul\":4639:4659   */\n      calldataload\n        /* \"#utility.yul\":4630:4659   */\n      swap1\n      pop\n        /* \"#utility.yul\":4668:4700   */\n      tag_198\n        /* \"#utility.yul\":4694:4699   */\n      dup2\n        /* \"#utility.yul\":4668:4700   */\n      tag_120\n      jump\t// in\n    tag_198:\n        /* \"#utility.yul\":4569:4706   */\n      swap3\n      swap2\n      pop\n      pop\n      jump\t// out\n        /* \"#utility.yul\":4712:5182   */\n    tag_39:\n        /* \"#utility.yul\":4778:4784   */\n      0x00\n        /* \"#utility.yul\":4786:4792   */\n      dup1\n        /* \"#utility.yul\":4835:4837   */\n      0x40\n        /* \"#utility.yul\":4823:4832   */\n      dup4\n        /* \"#utility.yul\":4814:4821   */\n      dup6\n        /* \"#utility.yul\":4810:4833   */\n      sub\n        /* \"#utility.yul\":4806:4838   */\n      slt\n        /* \"#utility.yul\":4803:4922   */\n      iszero\n      tag_200\n      jumpi\n        /* \"#utility.yul\":4841:4920   */\n      tag_201\n      tag_113\n      jump\t// in\n    tag_201:\n        /* \"#utility.yul\":4803:4922   */\n    tag_200:\n        /* \"#utility.yul\":4961:4962   */\n      0x00\n        /* \"#utility.yul\":4986:5038   */\n      tag_202\n        /* \"#utility.yul\":5030:5037   */\n      dup6\n        /* \"#utility.yul\":5021:5027   */\n      dup3\n        /* \"#utility.yul\":5010:5019   */\n      dup7\n        /* \"#utility.yul\":5006:5028   */\n      add\n        /* \"#utility.yul\":4986:5038   */\n      tag_121\n      jump\t// in\n    tag_202:\n        /* \"#utility.yul\":4976:5038   */\n      swap3\n      pop\n        /* \"#utility.yul\":4932:5048   */\n      pop\n        /* \"#utility.yul\":5087:5089   */\n      0x20\n        /* \"#utility.yul\":5113:5165   */\n      tag_203\n        /* \"#utility.yul\":5157:5164   */\n      dup6\n        /* \"#utility.yul\":5148:5154   */\n      dup3\n        /* \"#utility.yul\":5137:5146   */\n      dup7\n        /* \"#utility.yul\":5133:5155   */\n      add\n        /* \"#utility.yul\":5113:5165   */\n      tag_121\n      jump\t// in\n    tag_203:\n        /* \"#utility.yul\":5103:5165   */\n      swap2\n      pop\n        /* \"#utility.yul\":5058:5175   */\n      pop\n        /* \"#utility.yul\":4712:5182   */\n      swap3\n      pop\n      swap3\n      swap1\n      pop\n      jump\t// out\n        /* \"#utility.yul\":5188:5303   */\n    tag_122:\n        /* \"#utility.yul\":5273:5296   */\n      tag_205\n        /* \"#utility.yul\":5290:5295   */\n      dup2\n        /* \"#utility.yul\":5273:5296   */\n      tag_119\n      jump\t// in\n    tag_205:\n        /* \"#utility.yul\":5268:5271   */\n      dup3\n        /* \"#utility.yul\":5261:5297   */\n      mstore\n        /* \"#utility.yul\":5188:5303   */\n      pop\n      pop\n      jump\t// out\n        /* \"#utility.yul\":5309:5527   */\n    tag_42:\n        /* \"#utility.yul\":5400:5404   */\n      0x00\n        /* \"#utility.yul\":5438:5440   */\n      0x20\n        /* \"#utility.yul\":5427:5436   */\n      dup3\n        /* \"#utility.yul\":5423:5441   */\n      add\n        /* \"#utility.yul\":5415:5441   */\n      swap1\n      pop\n        /* \"#utility.yul\":5451:5520   */\n      tag_207\n        /* \"#utility.yul\":5517:5518   */\n      0x00\n        /* \"#utility.yul\":5506:5515   */\n      dup4\n        /* \"#utility.yul\":5502:5519   */\n      add\n        /* \"#utility.yul\":5493:5499   */\n      dup5\n        /* \"#utility.yul\":5451:5520   */\n      tag_122\n      jump\t// in\n    tag_207:\n        /* \"#utility.yul\":5309:5527   */\n      swap3\n      swap2\n      pop\n      pop\n      jump\t// out\n        /* \"#utility.yul\":5533:5650   */\n    tag_123:\n        /* \"#utility.yul\":5642:5643   */\n      0x00\n        /* \"#utility.yul\":5639:5640   */\n      dup1\n        /* \"#utility.yul\":5632:5644   */\n      revert\n        /* \"#utility.yul\":5656:5773   */\n    tag_124:\n        /* \"#utility.yul\":5765:5766   */\n      0x00\n        /* \"#utility.yul\":5762:5763   */\n      dup1\n        /* \"#utility.yul\":5755:5767   */\n      revert\n        /* \"#utility.yul\":5779:5896   */\n    tag_125:\n        /* \"#utility.yul\":5888:5889   */\n      0x00\n        /* \"#utility.yul\":5885:5886   */\n      dup1\n        /* \"#utility.yul\":5878:5890   */\n      revert\n        /* \"#utility.yul\":5916:6469   */\n    tag_126:\n        /* \"#utility.yul\":5974:5982   */\n      0x00\n        /* \"#utility.yul\":5984:5990   */\n      dup1\n        /* \"#utility.yul\":6034:6037   */\n      dup4\n        /* \"#utility.yul\":6027:6031   */\n      0x1f\n        /* \"#utility.yul\":6019:6025   */\n      dup5\n        /* \"#utility.yul\":6015:6032   */\n      add\n        /* \"#utility.yul\":6011:6038   */\n      slt\n        /* \"#utility.yul\":6001:6123   */\n      tag_212\n      jumpi\n        /* \"#utility.yul\":6042:6121   */\n      tag_213\n      tag_123\n      jump\t// in\n    tag_213:\n        /* \"#utility.yul\":6001:6123   */\n    tag_212:\n        /* \"#utility.yul\":6155:6161   */\n      dup3\n        /* \"#utility.yul\":6142:6162   */\n      calldataload\n        /* \"#utility.yul\":6132:6162   */\n      swap1\n      pop\n        /* \"#utility.yul\":6185:6203   */\n      0xffffffffffffffff\n        /* \"#utility.yul\":6177:6183   */\n      dup2\n        /* \"#utility.yul\":6174:6204   */\n      gt\n        /* \"#utility.yul\":6171:6288   */\n      iszero\n      tag_214\n      jumpi\n        /* \"#utility.yul\":6207:6286   */\n      tag_215\n      tag_124\n      jump\t// in\n    tag_215:\n        /* \"#utility.yul\":6171:6288   */\n    tag_214:\n        /* \"#utility.yul\":6321:6325   */\n      0x20\n        /* \"#utility.yul\":6313:6319   */\n      dup4\n        /* \"#utility.yul\":6309:6326   */\n      add\n        /* \"#utility.yul\":6297:6326   */\n      swap2\n      pop\n        /* \"#utility.yul\":6375:6378   */\n      dup4\n        /* \"#utility.yul\":6367:6371   */\n      0x01\n        /* \"#utility.yul\":6359:6365   */\n      dup3\n        /* \"#utility.yul\":6355:6372   */\n      mul\n        /* \"#utility.yul\":6345:6353   */\n      dup4\n        /* \"#utility.yul\":6341:6373   */\n      add\n        /* \"#utility.yul\":6338:6379   */\n      gt\n        /* \"#utility.yul\":6335:6463   */\n      iszero\n      tag_216\n      jumpi\n        /* \"#utility.yul\":6382:6461   */\n      tag_217\n      tag_125\n      jump\t// in\n    tag_217:\n        /* \"#utility.yul\":6335:6463   */\n    tag_216:\n        /* \"#utility.yul\":5916:6469   */\n      swap3\n      pop\n      swap3\n      swap1\n      pop\n      jump\t// out\n        /* \"#utility.yul\":6475:7004   */\n    tag_51:\n        /* \"#utility.yul\":6546:6552   */\n      0x00\n        /* \"#utility.yul\":6554:6560   */\n      dup1\n        /* \"#utility.yul\":6603:6605   */\n      0x20\n        /* \"#utility.yul\":6591:6600   */\n      dup4\n        /* \"#utility.yul\":6582:6589   */\n      dup6\n        /* \"#utility.yul\":6578:6601   */\n      sub\n        /* \"#utility.yul\":6574:6606   */\n      slt\n        /* \"#utility.yul\":6571:6690   */\n      iszero\n      tag_219\n      jumpi\n        /* \"#utility.yul\":6609:6688   */\n      tag_220\n      tag_113\n      jump\t// in\n    tag_220:\n        /* \"#utility.yul\":6571:6690   */\n    tag_219:\n        /* \"#utility.yul\":6757:6758   */\n      0x00\n        /* \"#utility.yul\":6746:6755   */\n      dup4\n        /* \"#utility.yul\":6742:6759   */\n      add\n        /* \"#utility.yul\":6729:6760   */\n      calldataload\n        /* \"#utility.yul\":6787:6805   */\n      0xffffffffffffffff\n        /* \"#utility.yul\":6779:6785   */\n      dup2\n        /* \"#utility.yul\":6776:6806   */\n      gt\n        /* \"#utility.yul\":6773:6890   */\n      iszero\n      tag_221\n      jumpi\n        /* \"#utility.yul\":6809:6888   */\n      tag_222\n      tag_114\n      jump\t// in\n    tag_222:\n        /* \"#utility.yul\":6773:6890   */\n    tag_221:\n        /* \"#utility.yul\":6922:6987   */\n      tag_223\n        /* \"#utility.yul\":6979:6986   */\n      dup6\n        /* \"#utility.yul\":6970:6976   */\n      dup3\n        /* \"#utility.yul\":6959:6968   */\n      dup7\n        /* \"#utility.yul\":6955:6977   */\n      add\n        /* \"#utility.yul\":6922:6987   */\n      tag_126\n      jump\t// in\n    tag_223:\n        /* \"#utility.yul\":6904:6987   */\n      swap3\n      pop\n      swap3\n      pop\n        /* \"#utility.yul\":6700:6997   */\n      pop\n        /* \"#utility.yul\":6475:7004   */\n      swap3\n      pop\n      swap3\n      swap1\n      pop\n      jump\t// out\n        /* \"#utility.yul\":7010:7323   */\n    tag_54:\n        /* \"#utility.yul\":7123:7127   */\n      0x00\n        /* \"#utility.yul\":7161:7163   */\n      0x20\n        /* \"#utility.yul\":7150:7159   */\n      dup3\n        /* \"#utility.yul\":7146:7164   */\n      add\n        /* \"#utility.yul\":7138:7164   */\n      swap1\n      pop\n        /* \"#utility.yul\":7210:7219   */\n      dup2\n        /* \"#utility.yul\":7204:7208   */\n      dup2\n        /* \"#utility.yul\":7200:7220   */\n      sub\n        /* \"#utility.yul\":7196:7197   */\n      0x00\n        /* \"#utility.yul\":7185:7194   */\n      dup4\n        /* \"#utility.yul\":7181:7198   */\n      add\n        /* \"#utility.yul\":7174:7221   */\n      mstore\n        /* \"#utility.yul\":7238:7316   */\n      tag_225\n        /* \"#utility.yul\":7311:7315   */\n      dup2\n        /* \"#utility.yul\":7302:7308   */\n      dup5\n        /* \"#utility.yul\":7238:7316   */\n      tag_107\n      jump\t// in\n    tag_225:\n        /* \"#utility.yul\":7230:7316   */\n      swap1\n      pop\n        /* \"#utility.yul\":7010:7323   */\n      swap3\n      swap2\n      pop\n      pop\n      jump\t// out\n        /* \"#utility.yul\":7329:7451   */\n    tag_127:\n        /* \"#utility.yul\":7402:7426   */\n      tag_227\n        /* \"#utility.yul\":7420:7425   */\n      dup2\n        /* \"#utility.yul\":7402:7426   */\n      tag_101\n      jump\t// in\n    tag_227:\n        /* \"#utility.yul\":7395:7400   */\n      dup2\n        /* \"#utility.yul\":7392:7427   */\n      eq\n        /* \"#utility.yul\":7382:7445   */\n      tag_228\n      jumpi\n        /* \"#utility.yul\":7441:7442   */\n      0x00\n        /* \"#utility.yul\":7438:7439   */\n      dup1\n        /* \"#utility.yul\":7431:7443   */\n      revert\n        /* \"#utility.yul\":7382:7445   */\n    tag_228:\n        /* \"#utility.yul\":7329:7451   */\n      pop\n      jump\t// out\n        /* \"#utility.yul\":7457:7596   */\n    tag_128:\n        /* \"#utility.yul\":7503:7508   */\n      0x00\n        /* \"#utility.yul\":7541:7547   */\n      dup2\n        /* \"#utility.yul\":7528:7548   */\n      calldataload\n        /* \"#utility.yul\":7519:7548   */\n      swap1\n      pop\n        /* \"#utility.yul\":7557:7590   */\n      tag_230\n        /* \"#utility.yul\":7584:7589   */\n      dup2\n        /* \"#utility.yul\":7557:7590   */\n      tag_127\n      jump\t// in\n    tag_230:\n        /* \"#utility.yul\":7457:7596   */\n      swap3\n      swap2\n      pop\n      pop\n      jump\t// out\n        /* \"#utility.yul\":7602:8076   */\n    tag_57:\n        /* \"#utility.yul\":7670:7676   */\n      0x00\n        /* \"#utility.yul\":7678:7684   */\n      dup1\n        /* \"#utility.yul\":7727:7729   */\n      0x40\n        /* \"#utility.yul\":7715:7724   */\n      dup4\n        /* \"#utility.yul\":7706:7713   */\n      dup6\n        /* \"#utility.yul\":7702:7725   */\n      sub\n        /* \"#utility.yul\":7698:7730   */\n      slt\n        /* \"#utility.yul\":7695:7814   */\n      iszero\n      tag_232\n      jumpi\n        /* \"#utility.yul\":7733:7812   */\n      tag_233\n      tag_113\n      jump\t// in\n    tag_233:\n        /* \"#utility.yul\":7695:7814   */\n    tag_232:\n        /* \"#utility.yul\":7853:7854   */\n      0x00\n        /* \"#utility.yul\":7878:7931   */\n      tag_234\n        /* \"#utility.yul\":7923:7930   */\n      dup6\n        /* \"#utility.yul\":7914:7920   */\n      dup3\n        /* \"#utility.yul\":7903:7912   */\n      dup7\n        /* \"#utility.yul\":7899:7921   */\n      add\n        /* \"#utility.yul\":7878:7931   */\n      tag_118\n      jump\t// in\n    tag_234:\n        /* \"#utility.yul\":7868:7931   */\n      swap3\n      pop\n        /* \"#utility.yul\":7824:7941   */\n      pop\n        /* \"#utility.yul\":7980:7982   */\n      0x20\n        /* \"#utility.yul\":8006:8059   */\n      tag_235\n        /* \"#utility.yul\":8051:8058   */\n      dup6\n        /* \"#utility.yul\":8042:8048   */\n      dup3\n        /* \"#utility.yul\":8031:8040   */\n      dup7\n        /* \"#utility.yul\":8027:8049   */\n      add\n        /* \"#utility.yul\":8006:8059   */\n      tag_128\n      jump\t// in\n    tag_235:\n        /* \"#utility.yul\":7996:8059   */\n      swap2\n      pop\n        /* \"#utility.yul\":7951:8069   */\n      pop\n        /* \"#utility.yul\":7602:8076   */\n      swap3\n      pop\n      swap3\n      swap1\n      pop\n      jump\t// out\n        /* \"#utility.yul\":8082:8262   */\n    tag_74:\n        /* \"#utility.yul\":8130:8207   */\n      0x4e487b7100000000000000000000000000000000000000000000000000000000\n        /* \"#utility.yul\":8127:8128   */\n      0x00\n        /* \"#utility.yul\":8120:8208   */\n      mstore\n        /* \"#utility.yul\":8227:8231   */\n      0x32\n        /* \"#utility.yul\":8224:8225   */\n      0x04\n        /* \"#utility.yul\":8217:8232   */\n      mstore\n        /* \"#utility.yul\":8251:8255   */\n      0x24\n        /* \"#utility.yul\":8248:8249   */\n      0x00\n        /* \"#utility.yul\":8241:8256   */\n      revert\n        /* \"#utility.yul\":8268:8426   */\n    tag_129:\n        /* \"#utility.yul\":8408:8418   */\n      0x6e65207374616161000000000000000000000000000000000000000000000000\n        /* \"#utility.yul\":8404:8405   */\n      0x00\n        /* \"#utility.yul\":8396:8402   */\n      dup3\n        /* \"#utility.yul\":8392:8406   */\n      add\n        /* \"#utility.yul\":8385:8419   */\n      mstore\n        /* \"#utility.yul\":8268:8426   */\n      pop\n      jump\t// out\n        /* \"#utility.yul\":8432:8797   */\n    tag_130:\n        /* \"#utility.yul\":8574:8577   */\n      0x00\n        /* \"#utility.yul\":8595:8661   */\n      tag_239\n        /* \"#utility.yul\":8659:8660   */\n      0x08\n        /* \"#utility.yul\":8654:8657   */\n      dup4\n        /* \"#utility.yul\":8595:8661   */\n      tag_104\n      jump\t// in\n    tag_239:\n        /* \"#utility.yul\":8588:8661   */\n      swap2\n      pop\n        /* \"#utility.yul\":8670:8763   */\n      tag_240\n        /* \"#utility.yul\":8759:8762   */\n      dup3\n        /* \"#utility.yul\":8670:8763   */\n      tag_129\n      jump\t// in\n    tag_240:\n        /* \"#utility.yul\":8788:8790   */\n      0x20\n        /* \"#utility.yul\":8783:8786   */\n      dup3\n        /* \"#utility.yul\":8779:8791   */\n      add\n        /* \"#utility.yul\":8772:8791   */\n      swap1\n      pop\n        /* \"#utility.yul\":8432:8797   */\n      swap2\n      swap1\n      pop\n      jump\t// out\n        /* \"#utility.yul\":8803:9222   */\n    tag_83:\n        /* \"#utility.yul\":8969:8973   */\n      0x00\n        /* \"#utility.yul\":9007:9009   */\n      0x20\n        /* \"#utility.yul\":8996:9005   */\n      dup3\n        /* \"#utility.yul\":8992:9010   */\n      add\n        /* \"#utility.yul\":8984:9010   */\n      swap1\n      pop\n        /* \"#utility.yul\":9056:9065   */\n      dup2\n        /* \"#utility.yul\":9050:9054   */\n      dup2\n        /* \"#utility.yul\":9046:9066   */\n      sub\n        /* \"#utility.yul\":9042:9043   */\n      0x00\n        /* \"#utility.yul\":9031:9040   */\n      dup4\n        /* \"#utility.yul\":9027:9044   */\n      add\n        /* \"#utility.yul\":9020:9067   */\n      mstore\n        /* \"#utility.yul\":9084:9215   */\n      tag_242\n        /* \"#utility.yul\":9210:9214   */\n      dup2\n        /* \"#utility.yul\":9084:9215   */\n      tag_130\n      jump\t// in\n    tag_242:\n        /* \"#utility.yul\":9076:9215   */\n      swap1\n      pop\n        /* \"#utility.yul\":8803:9222   */\n      swap2\n      swap1\n      pop\n      jump\t// out\n        /* \"#utility.yul\":9228:9408   */\n    tag_131:\n        /* \"#utility.yul\":9276:9353   */\n      0x4e487b7100000000000000000000000000000000000000000000000000000000\n        /* \"#utility.yul\":9273:9274   */\n      0x00\n        /* \"#utility.yul\":9266:9354   */\n      mstore\n        /* \"#utility.yul\":9373:9377   */\n      0x11\n        /* \"#utility.yul\":9370:9371   */\n      0x04\n        /* \"#utility.yul\":9363:9378   */\n      mstore\n        /* \"#utility.yul\":9397:9401   */\n      0x24\n        /* \"#utility.yul\":9394:9395   */\n      0x00\n        /* \"#utility.yul\":9387:9402   */\n      revert\n        /* \"#utility.yul\":9414:9786   */\n    tag_85:\n        /* \"#utility.yul\":9453:9457   */\n      0x00\n        /* \"#utility.yul\":9473:9492   */\n      tag_245\n        /* \"#utility.yul\":9490:9491   */\n      dup3\n        /* \"#utility.yul\":9473:9492   */\n      tag_119\n      jump\t// in\n    tag_245:\n        /* \"#utility.yul\":9468:9492   */\n      swap2\n      pop\n        /* \"#utility.yul\":9506:9525   */\n      tag_246\n        /* \"#utility.yul\":9523:9524   */\n      dup4\n        /* \"#utility.yul\":9506:9525   */\n      tag_119\n      jump\t// in\n    tag_246:\n        /* \"#utility.yul\":9501:9525   */\n      swap3\n      pop\n        /* \"#utility.yul\":9549:9550   */\n      dup3\n        /* \"#utility.yul\":9546:9547   */\n      dup3\n        /* \"#utility.yul\":9542:9551   */\n      sub\n        /* \"#utility.yul\":9534:9551   */\n      swap1\n      pop\n        /* \"#utility.yul\":9743:9744   */\n      dup2\n        /* \"#utility.yul\":9737:9741   */\n      dup2\n        /* \"#utility.yul\":9733:9745   */\n      slt\n        /* \"#utility.yul\":9729:9730   */\n      0x00\n        /* \"#utility.yul\":9726:9727   */\n      dup5\n        /* \"#utility.yul\":9722:9731   */\n      slt\n        /* \"#utility.yul\":9718:9746   */\n      and\n        /* \"#utility.yul\":9701:9702   */\n      dup3\n        /* \"#utility.yul\":9695:9699   */\n      dup3\n        /* \"#utility.yul\":9691:9703   */\n      sgt\n        /* \"#utility.yul\":9686:9687   */\n      0x00\n        /* \"#utility.yul\":9683:9684   */\n      dup6\n        /* \"#utility.yul\":9679:9688   */\n      slt\n        /* \"#utility.yul\":9672:9689   */\n      iszero\n        /* \"#utility.yul\":9668:9704   */\n      and\n        /* \"#utility.yul\":9652:9756   */\n      or\n        /* \"#utility.yul\":9649:9779   */\n      iszero\n      tag_247\n      jumpi\n        /* \"#utility.yul\":9759:9777   */\n      tag_248\n      tag_131\n      jump\t// in\n    tag_248:\n        /* \"#utility.yul\":9649:9779   */\n    tag_247:\n        /* \"#utility.yul\":9414:9786   */\n      swap3\n      swap2\n      pop\n      pop\n      jump\t// out\n        /* \"#utility.yul\":9792:9958   */\n    tag_132:\n        /* \"#utility.yul\":9932:9950   */\n      0x506573686f206520706564616c21212100000000000000000000000000000000\n        /* \"#utility.yul\":9928:9929   */\n      0x00\n        /* \"#utility.yul\":9920:9926   */\n      dup3\n        /* \"#utility.yul\":9916:9930   */\n      add\n        /* \"#utility.yul\":9909:9951   */\n      mstore\n        /* \"#utility.yul\":9792:9958   */\n      pop\n      jump\t// out\n        /* \"#utility.yul\":9964:10330   */\n    tag_133:\n        /* \"#utility.yul\":10106:10109   */\n      0x00\n        /* \"#utility.yul\":10127:10194   */\n      tag_251\n        /* \"#utility.yul\":10191:10193   */\n      0x10\n        /* \"#utility.yul\":10186:10189   */\n      dup4\n        /* \"#utility.yul\":10127:10194   */\n      tag_104\n      jump\t// in\n    tag_251:\n        /* \"#utility.yul\":10120:10194   */\n      swap2\n      pop\n        /* \"#utility.yul\":10203:10296   */\n      tag_252\n        /* \"#utility.yul\":10292:10295   */\n      dup3\n        /* \"#utility.yul\":10203:10296   */\n      tag_132\n      jump\t// in\n    tag_252:\n        /* \"#utility.yul\":10321:10323   */\n      0x20\n        /* \"#utility.yul\":10316:10319   */\n      dup3\n        /* \"#utility.yul\":10312:10324   */\n      add\n        /* \"#utility.yul\":10305:10324   */\n      swap1\n      pop\n        /* \"#utility.yul\":9964:10330   */\n      swap2\n      swap1\n      pop\n      jump\t// out\n        /* \"#utility.yul\":10336:10755   */\n    tag_88:\n        /* \"#utility.yul\":10502:10506   */\n      0x00\n        /* \"#utility.yul\":10540:10542   */\n      0x20\n        /* \"#utility.yul\":10529:10538   */\n      dup3\n        /* \"#utility.yul\":10525:10543   */\n      add\n        /* \"#utility.yul\":10517:10543   */\n      swap1\n      pop\n        /* \"#utility.yul\":10589:10598   */\n      dup2\n        /* \"#utility.yul\":10583:10587   */\n      dup2\n        /* \"#utility.yul\":10579:10599   */\n      sub\n        /* \"#utility.yul\":10575:10576   */\n      0x00\n        /* \"#utility.yul\":10564:10573   */\n      dup4\n        /* \"#utility.yul\":10560:10577   */\n      add\n        /* \"#utility.yul\":10553:10600   */\n      mstore\n        /* \"#utility.yul\":10617:10748   */\n      tag_254\n        /* \"#utility.yul\":10743:10747   */\n      dup2\n        /* \"#utility.yul\":10617:10748   */\n      tag_133\n      jump\t// in\n    tag_254:\n        /* \"#utility.yul\":10609:10748   */\n      swap1\n      pop\n        /* \"#utility.yul\":10336:10755   */\n      swap2\n      swap1\n      pop\n      jump\t// out\n        /* \"#utility.yul\":10761:10929   */\n    tag_134:\n        /* \"#utility.yul\":10844:10855   */\n      0x00\n        /* \"#utility.yul\":10878:10884   */\n      dup3\n        /* \"#utility.yul\":10873:10876   */\n      dup3\n        /* \"#utility.yul\":10866:10885   */\n      mstore\n        /* \"#utility.yul\":10918:10922   */\n      0x20\n        /* \"#utility.yul\":10913:10916   */\n      dup3\n        /* \"#utility.yul\":10909:10923   */\n      add\n        /* \"#utility.yul\":10894:10923   */\n      swap1\n      pop\n        /* \"#utility.yul\":10761:10929   */\n      swap3\n      swap2\n      pop\n      pop\n      jump\t// out\n        /* \"#utility.yul\":10935:11092   */\n    tag_135:\n        /* \"#utility.yul\":11075:11084   */\n      0x4e65207374616100000000000000000000000000000000000000000000000000\n        /* \"#utility.yul\":11071:11072   */\n      0x00\n        /* \"#utility.yul\":11063:11069   */\n      dup3\n        /* \"#utility.yul\":11059:11073   */\n      add\n        /* \"#utility.yul\":11052:11085   */\n      mstore\n        /* \"#utility.yul\":10935:11092   */\n      pop\n      jump\t// out\n        /* \"#utility.yul\":11098:11461   */\n    tag_136:\n        /* \"#utility.yul\":11239:11242   */\n      0x00\n        /* \"#utility.yul\":11260:11325   */\n      tag_258\n        /* \"#utility.yul\":11323:11324   */\n      0x07\n        /* \"#utility.yul\":11318:11321   */\n      dup4\n        /* \"#utility.yul\":11260:11325   */\n      tag_134\n      jump\t// in\n    tag_258:\n        /* \"#utility.yul\":11253:11325   */\n      swap2\n      pop\n        /* \"#utility.yul\":11334:11427   */\n      tag_259\n        /* \"#utility.yul\":11423:11426   */\n      dup3\n        /* \"#utility.yul\":11334:11427   */\n      tag_135\n      jump\t// in\n    tag_259:\n        /* \"#utility.yul\":11452:11454   */\n      0x20\n        /* \"#utility.yul\":11447:11450   */\n      dup3\n        /* \"#utility.yul\":11443:11455   */\n      add\n        /* \"#utility.yul\":11436:11455   */\n      swap1\n      pop\n        /* \"#utility.yul\":11098:11461   */\n      swap2\n      swap1\n      pop\n      jump\t// out\n        /* \"#utility.yul\":11467:11884   */\n    tag_92:\n        /* \"#utility.yul\":11632:11636   */\n      0x00\n        /* \"#utility.yul\":11670:11672   */\n      0x20\n        /* \"#utility.yul\":11659:11668   */\n      dup3\n        /* \"#utility.yul\":11655:11673   */\n      add\n        /* \"#utility.yul\":11647:11673   */\n      swap1\n      pop\n        /* \"#utility.yul\":11719:11728   */\n      dup2\n        /* \"#utility.yul\":11713:11717   */\n      dup2\n        /* \"#utility.yul\":11709:11729   */\n      sub\n        /* \"#utility.yul\":11705:11706   */\n      0x00\n        /* \"#utility.yul\":11694:11703   */\n      dup4\n        /* \"#utility.yul\":11690:11707   */\n      add\n        /* \"#utility.yul\":11683:11730   */\n      mstore\n        /* \"#utility.yul\":11747:11877   */\n      tag_261\n        /* \"#utility.yul\":11872:11876   */\n      dup2\n        /* \"#utility.yul\":11747:11877   */\n      tag_136\n      jump\t// in\n    tag_261:\n        /* \"#utility.yul\":11739:11877   */\n      swap1\n      pop\n        /* \"#utility.yul\":11467:11884   */\n      swap2\n      swap1\n      pop\n      jump\t// out\n        /* \"#utility.yul\":11890:12038   */\n    tag_137:\n        /* \"#utility.yul\":11992:12003   */\n      0x00\n        /* \"#utility.yul\":12029:12032   */\n      dup2\n        /* \"#utility.yul\":12014:12032   */\n      swap1\n      pop\n        /* \"#utility.yul\":11890:12038   */\n      swap3\n      swap2\n      pop\n      pop\n      jump\t// out\n        /* \"#utility.yul\":12044:12190   */\n    tag_138:\n        /* \"#utility.yul\":12141:12147   */\n      dup3\n        /* \"#utility.yul\":12136:12139   */\n      dup2\n        /* \"#utility.yul\":12131:12134   */\n      dup4\n        /* \"#utility.yul\":12118:12148   */\n      calldatacopy\n        /* \"#utility.yul\":12182:12183   */\n      0x00\n        /* \"#utility.yul\":12173:12179   */\n      dup4\n        /* \"#utility.yul\":12168:12171   */\n      dup4\n        /* \"#utility.yul\":12164:12180   */\n      add\n        /* \"#utility.yul\":12157:12184   */\n      mstore\n        /* \"#utility.yul\":12044:12190   */\n      pop\n      pop\n      pop\n      jump\t// out\n        /* \"#utility.yul\":12220:12550   */\n    tag_139:\n        /* \"#utility.yul\":12336:12339   */\n      0x00\n        /* \"#utility.yul\":12357:12446   */\n      tag_265\n        /* \"#utility.yul\":12439:12445   */\n      dup4\n        /* \"#utility.yul\":12434:12437   */\n      dup6\n        /* \"#utility.yul\":12357:12446   */\n      tag_137\n      jump\t// in\n    tag_265:\n        /* \"#utility.yul\":12350:12446   */\n      swap4\n      pop\n        /* \"#utility.yul\":12456:12512   */\n      tag_266\n        /* \"#utility.yul\":12505:12511   */\n      dup4\n        /* \"#utility.yul\":12500:12503   */\n      dup6\n        /* \"#utility.yul\":12493:12498   */\n      dup5\n        /* \"#utility.yul\":12456:12512   */\n      tag_138\n      jump\t// in\n    tag_266:\n        /* \"#utility.yul\":12537:12543   */\n      dup3\n        /* \"#utility.yul\":12532:12535   */\n      dup5\n        /* \"#utility.yul\":12528:12544   */\n      add\n        /* \"#utility.yul\":12521:12544   */\n      swap1\n      pop\n        /* \"#utility.yul\":12220:12550   */\n      swap4\n      swap3\n      pop\n      pop\n      pop\n      jump\t// out\n        /* \"#utility.yul\":12556:12946   */\n    tag_140:\n        /* \"#utility.yul\":12662:12665   */\n      0x00\n        /* \"#utility.yul\":12690:12729   */\n      tag_268\n        /* \"#utility.yul\":12723:12728   */\n      dup3\n        /* \"#utility.yul\":12690:12729   */\n      tag_103\n      jump\t// in\n    tag_268:\n        /* \"#utility.yul\":12745:12834   */\n      tag_269\n        /* \"#utility.yul\":12827:12833   */\n      dup2\n        /* \"#utility.yul\":12822:12825   */\n      dup6\n        /* \"#utility.yul\":12745:12834   */\n      tag_137\n      jump\t// in\n    tag_269:\n        /* \"#utility.yul\":12738:12834   */\n      swap4\n      pop\n        /* \"#utility.yul\":12843:12908   */\n      tag_270\n        /* \"#utility.yul\":12901:12907   */\n      dup2\n        /* \"#utility.yul\":12896:12899   */\n      dup6\n        /* \"#utility.yul\":12889:12893   */\n      0x20\n        /* \"#utility.yul\":12882:12887   */\n      dup7\n        /* \"#utility.yul\":12878:12894   */\n      add\n        /* \"#utility.yul\":12843:12908   */\n      tag_105\n      jump\t// in\n    tag_270:\n        /* \"#utility.yul\":12933:12939   */\n      dup1\n        /* \"#utility.yul\":12928:12931   */\n      dup5\n        /* \"#utility.yul\":12924:12940   */\n      add\n        /* \"#utility.yul\":12917:12940   */\n      swap2\n      pop\n        /* \"#utility.yul\":12666:12946   */\n      pop\n        /* \"#utility.yul\":12556:12946   */\n      swap3\n      swap2\n      pop\n      pop\n      jump\t// out\n        /* \"#utility.yul\":12952:13407   */\n    tag_96:\n        /* \"#utility.yul\":13142:13145   */\n      0x00\n        /* \"#utility.yul\":13164:13269   */\n      tag_272\n        /* \"#utility.yul\":13265:13268   */\n      dup3\n        /* \"#utility.yul\":13256:13262   */\n      dup6\n        /* \"#utility.yul\":13248:13254   */\n      dup8\n        /* \"#utility.yul\":13164:13269   */\n      tag_139\n      jump\t// in\n    tag_272:\n        /* \"#utility.yul\":13157:13269   */\n      swap2\n      pop\n        /* \"#utility.yul\":13286:13381   */\n      tag_273\n        /* \"#utility.yul\":13377:13380   */\n      dup3\n        /* \"#utility.yul\":13368:13374   */\n      dup5\n        /* \"#utility.yul\":13286:13381   */\n      tag_140\n      jump\t// in\n    tag_273:\n        /* \"#utility.yul\":13279:13381   */\n      swap2\n      pop\n        /* \"#utility.yul\":13398:13401   */\n      dup2\n        /* \"#utility.yul\":13391:13401   */\n      swap1\n      pop\n        /* \"#utility.yul\":12952:13407   */\n      swap5\n      swap4\n      pop\n      pop\n      pop\n      pop\n      jump\t// out\n        /* \"#utility.yul\":13413:13531   */\n    tag_141:\n        /* \"#utility.yul\":13500:13524   */\n      tag_275\n        /* \"#utility.yul\":13518:13523   */\n      dup2\n        /* \"#utility.yul\":13500:13524   */\n      tag_116\n      jump\t// in\n    tag_275:\n        /* \"#utility.yul\":13495:13498   */\n      dup3\n        /* \"#utility.yul\":13488:13525   */\n      mstore\n        /* \"#utility.yul\":13413:13531   */\n      pop\n      pop\n      jump\t// out\n        /* \"#utility.yul\":13537:13869   */\n    tag_100:\n        /* \"#utility.yul\":13658:13662   */\n      0x00\n        /* \"#utility.yul\":13696:13698   */\n      0x40\n        /* \"#utility.yul\":13685:13694   */\n      dup3\n        /* \"#utility.yul\":13681:13699   */\n      add\n        /* \"#utility.yul\":13673:13699   */\n      swap1\n      pop\n        /* \"#utility.yul\":13709:13780   */\n      tag_277\n        /* \"#utility.yul\":13777:13778   */\n      0x00\n        /* \"#utility.yul\":13766:13775   */\n      dup4\n        /* \"#utility.yul\":13762:13779   */\n      add\n        /* \"#utility.yul\":13753:13759   */\n      dup6\n        /* \"#utility.yul\":13709:13780   */\n      tag_141\n      jump\t// in\n    tag_277:\n        /* \"#utility.yul\":13790:13862   */\n      tag_278\n        /* \"#utility.yul\":13858:13860   */\n      0x20\n        /* \"#utility.yul\":13847:13856   */\n      dup4\n        /* \"#utility.yul\":13843:13861   */\n      add\n        /* \"#utility.yul\":13834:13840   */\n      dup5\n        /* \"#utility.yul\":13790:13862   */\n      tag_102\n      jump\t// in\n    tag_278:\n        /* \"#utility.yul\":13537:13869   */\n      swap4\n      swap3\n      pop\n      pop\n      pop\n      jump\t// out\n\n    auxdata: 0xa2646970667358221220ecc3cda5f7480cfc0cf095a09b1a3d5c26a9f6fd0e62d838ab314d78cb81256a64736f6c63430008170033\n}\n",
				"bytecode": {
					"linkReferences": {},
					"object": "608060405234801561001057600080fd5b5060008060006101000a81548160ff0219169083600281111561003657610035610040565b5b021790555061006f565b7f4e487b7100000000000000000000000000000000000000000000000000000000600052602160045260246000fd5b610d038061007e6000396000f3fe608060405234801561001057600080fd5b50600436106100a95760003560e01c80636f77926b116100715780636f77926b1461011e578063a1b829031461014e578063a395be101461017e578063aa08f2fc14610188578063b8cc5f88146101b8578063d3017193146101e8576100a9565b80630a311a43146100ae5780630c3f6acf146100cd5780630f15f4c0146100eb57806339896f83146100f557806351b42b0014610114575b600080fd5b6100b6610204565b6040516100c492919061068e565b60405180910390f35b6100d5610248565b6040516100e29190610735565b60405180910390f35b6100f3610259565b005b6100fd610285565b60405161010b929190610750565b60405180910390f35b61011c610294565b005b610138600480360381019061013391906107e1565b6102c0565b604051610145919061080e565b60405180910390f35b6101686004803603810190610163919061085f565b610393565b60405161017591906108ae565b60405180910390f35b6101866103f1565b005b6101a2600480360381019061019d919061085f565b61042c565b6040516101af91906108ae565b60405180910390f35b6101d260048036038101906101cd919061092e565b61048a565b6040516101df919061097b565b60405180910390f35b61020260048036038101906101fd91906109c9565b6104f9565b005b60006060600c6040518060400160405280600581526020017f706573686f000000000000000000000000000000000000000000000000000000815250915091509091565b60008054906101000a900460ff1681565b60016000806101000a81548160ff0219169083600281111561027e5761027d6106be565b5b0217905550565b60008060016002915091509091565b60026000806101000a81548160ff021916908360028111156102b9576102b86106be565b5b0217905550565b6000806000905060005b60018054905081101561038957600181815481106102eb576102ea610a09565b5b906000526020600020906002020160000160009054906101000a900473ffffffffffffffffffffffffffffffffffffffff1673ffffffffffffffffffffffffffffffffffffffff168473ffffffffffffffffffffffffffffffffffffffff160361037c576001818154811061036357610362610a09565b5b9060005260206000209060020201600101549150610389565b80806001019150506102ca565b5080915050919050565b600080600084139050806103dc576040517f08c379a00000000000000000000000000000000000000000000000000000000081526004016103d390610a84565b60405180910390fd5b82846103e89190610ad3565b91505092915050565b6040517f5457dcdf00000000000000000000000000000000000000000000000000000000815260040161042390610b62565b60405180910390fd5b60008060008413905080610475576040517fb2f324f900000000000000000000000000000000000000000000000000000000815260040161046c90610bdf565b60405180910390fd5b82846104819190610ad3565b91505092915050565b606060006040518060400160405280600381526020017f3132330000000000000000000000000000000000000000000000000000000000815250905060008484836040516020016104dd93929190610c6f565b6040516020818303038152906040529050809250505092915050565b600060405180604001604052808473ffffffffffffffffffffffffffffffffffffffff168152602001838152509050600181908060018154018082558091505060019003906000526020600020906002020160009091909190915060008201518160000160006101000a81548173ffffffffffffffffffffffffffffffffffffffff021916908373ffffffffffffffffffffffffffffffffffffffff1602179055506020820151816001015550507fe31e113f724c5be3599d7591cd59dee45629ae2c10baa65b083c0a9a9087fe0683836040516105d8929190610ca4565b60405180910390a1505050565b6000819050919050565b6105f8816105e5565b82525050565b600081519050919050565b600082825260208201905092915050565b60005b8381101561063857808201518184015260208101905061061d565b60008484015250505050565b6000601f19601f8301169050919050565b6000610660826105fe565b61066a8185610609565b935061067a81856020860161061a565b61068381610644565b840191505092915050565b60006040820190506106a360008301856105ef565b81810360208301526106b58184610655565b90509392505050565b7f4e487b7100000000000000000000000000000000000000000000000000000000600052602160045260246000fd5b600381106106fe576106fd6106be565b5b50565b600081905061070f826106ed565b919050565b600061071f82610701565b9050919050565b61072f81610714565b82525050565b600060208201905061074a6000830184610726565b92915050565b600060408201905061076560008301856105ef565b61077260208301846105ef565b9392505050565b600080fd5b600080fd5b600073ffffffffffffffffffffffffffffffffffffffff82169050919050565b60006107ae82610783565b9050919050565b6107be816107a3565b81146107c957600080fd5b50565b6000813590506107db816107b5565b92915050565b6000602082840312156107f7576107f6610779565b5b6000610805848285016107cc565b91505092915050565b600060208201905061082360008301846105ef565b92915050565b6000819050919050565b61083c81610829565b811461084757600080fd5b50565b60008135905061085981610833565b92915050565b6000806040838503121561087657610875610779565b5b60006108848582860161084a565b92505060206108958582860161084a565b9150509250929050565b6108a881610829565b82525050565b60006020820190506108c3600083018461089f565b92915050565b600080fd5b600080fd5b600080fd5b60008083601f8401126108ee576108ed6108c9565b5b8235905067ffffffffffffffff81111561090b5761090a6108ce565b5b602083019150836001820283011115610927576109266108d3565b5b9250929050565b6000806020838503121561094557610944610779565b5b600083013567ffffffffffffffff8111156109635761096261077e565b5b61096f858286016108d8565b92509250509250929050565b600060208201905081810360008301526109958184610655565b905092915050565b6109a6816105e5565b81146109b157600080fd5b50565b6000813590506109c38161099d565b92915050565b600080604083850312156109e0576109df610779565b5b60006109ee858286016107cc565b92505060206109ff858286016109b4565b9150509250929050565b7f4e487b7100000000000000000000000000000000000000000000000000000000600052603260045260246000fd5b7f6e65207374616161000000000000000000000000000000000000000000000000600082015250565b6000610a6e600883610609565b9150610a7982610a38565b602082019050919050565b60006020820190508181036000830152610a9d81610a61565b9050919050565b7f4e487b7100000000000000000000000000000000000000000000000000000000600052601160045260246000fd5b6000610ade82610829565b9150610ae983610829565b9250828203905081811260008412168282136000851215161715610b1057610b0f610aa4565b5b92915050565b7f506573686f206520706564616c21212100000000000000000000000000000000600082015250565b6000610b4c601083610609565b9150610b5782610b16565b602082019050919050565b60006020820190508181036000830152610b7b81610b3f565b9050919050565b600082825260208201905092915050565b7f4e65207374616100000000000000000000000000000000000000000000000000600082015250565b6000610bc9600783610b82565b9150610bd482610b93565b602082019050919050565b60006020820190508181036000830152610bf881610bbc565b9050919050565b600081905092915050565b82818337600083830152505050565b6000610c258385610bff565b9350610c32838584610c0a565b82840190509392505050565b6000610c49826105fe565b610c538185610bff565b9350610c6381856020860161061a565b80840191505092915050565b6000610c7c828587610c19565b9150610c888284610c3e565b9150819050949350505050565b610c9e816107a3565b82525050565b6000604082019050610cb96000830185610c95565b610cc660208301846105ef565b939250505056fea2646970667358221220ecc3cda5f7480cfc0cf095a09b1a3d5c26a9f6fd0e62d838ab314d78cb81256a64736f6c63430008170033",
					"opcodes": "PUSH1 0x80 PUSH1 0x40 MSTORE CALLVALUE DUP1 ISZERO PUSH2 0x10 JUMPI PUSH1 0x0 DUP1 REVERT JUMPDEST POP PUSH1 0x0 DUP1 PUSH1 0x0 PUSH2 0x100 EXP DUP2 SLOAD DUP2 PUSH1 0xFF MUL NOT AND SWAP1 DUP4 PUSH1 0x2 DUP2 GT ISZERO PUSH2 0x36 JUMPI PUSH2 0x35 PUSH2 0x40 JUMP JUMPDEST JUMPDEST MUL OR SWAP1 SSTORE POP PUSH2 0x6F JUMP JUMPDEST PUSH32 0x4E487B7100000000000000000000000000000000000000000000000000000000 PUSH1 0x0 MSTORE PUSH1 0x21 PUSH1 0x4 MSTORE PUSH1 0x24 PUSH1 0x0 REVERT JUMPDEST PUSH2 0xD03 DUP1 PUSH2 0x7E PUSH1 0x0 CODECOPY PUSH1 0x0 RETURN INVALID PUSH1 0x80 PUSH1 0x40 MSTORE CALLVALUE DUP1 ISZERO PUSH2 0x10 JUMPI PUSH1 0x0 DUP1 REVERT JUMPDEST POP PUSH1 0x4 CALLDATASIZE LT PUSH2 0xA9 JUMPI PUSH1 0x0 CALLDATALOAD PUSH1 0xE0 SHR DUP1 PUSH4 0x6F77926B GT PUSH2 0x71 JUMPI DUP1 PUSH4 0x6F77926B EQ PUSH2 0x11E JUMPI DUP1 PUSH4 0xA1B82903 EQ PUSH2 0x14E JUMPI DUP1 PUSH4 0xA395BE10 EQ PUSH2 0x17E JUMPI DUP1 PUSH4 0xAA08F2FC EQ PUSH2 0x188 JUMPI DUP1 PUSH4 0xB8CC5F88 EQ PUSH2 0x1B8 JUMPI DUP1 PUSH4 0xD3017193 EQ PUSH2 0x1E8 JUMPI PUSH2 0xA9 JUMP JUMPDEST DUP1 PUSH4 0xA311A43 EQ PUSH2 0xAE JUMPI DUP1 PUSH4 0xC3F6ACF EQ PUSH2 0xCD JUMPI DUP1 PUSH4 0xF15F4C0 EQ PUSH2 0xEB JUMPI DUP1 PUSH4 0x39896F83 EQ PUSH2 0xF5 JUMPI DUP1 PUSH4 0x51B42B00 EQ PUSH2 0x114 JUMPI JUMPDEST PUSH1 0x0 DUP1 REVERT JUMPDEST PUSH2 0xB6 PUSH2 0x204 JUMP JUMPDEST PUSH1 0x40 MLOAD PUSH2 0xC4 SWAP3 SWAP2 SWAP1 PUSH2 0x68E JUMP JUMPDEST PUSH1 0x40 MLOAD DUP1 SWAP2 SUB SWAP1 RETURN JUMPDEST PUSH2 0xD5 PUSH2 0x248 JUMP JUMPDEST PUSH1 0x40 MLOAD PUSH2 0xE2 SWAP2 SWAP1 PUSH2 0x735 JUMP JUMPDEST PUSH1 0x40 MLOAD DUP1 SWAP2 SUB SWAP1 RETURN JUMPDEST PUSH2 0xF3 PUSH2 0x259 JUMP JUMPDEST STOP JUMPDEST PUSH2 0xFD PUSH2 0x285 JUMP JUMPDEST PUSH1 0x40 MLOAD PUSH2 0x10B SWAP3 SWAP2 SWAP1 PUSH2 0x750 JUMP JUMPDEST PUSH1 0x40 MLOAD DUP1 SWAP2 SUB SWAP1 RETURN JUMPDEST PUSH2 0x11C PUSH2 0x294 JUMP JUMPDEST STOP JUMPDEST PUSH2 0x138 PUSH1 0x4 DUP1 CALLDATASIZE SUB DUP2 ADD SWAP1 PUSH2 0x133 SWAP2 SWAP1 PUSH2 0x7E1 JUMP JUMPDEST PUSH2 0x2C0 JUMP JUMPDEST PUSH1 0x40 MLOAD PUSH2 0x145 SWAP2 SWAP1 PUSH2 0x80E JUMP JUMPDEST PUSH1 0x40 MLOAD DUP1 SWAP2 SUB SWAP1 RETURN JUMPDEST PUSH2 0x168 PUSH1 0x4 DUP1 CALLDATASIZE SUB DUP2 ADD SWAP1 PUSH2 0x163 SWAP2 SWAP1 PUSH2 0x85F JUMP JUMPDEST PUSH2 0x393 JUMP JUMPDEST PUSH1 0x40 MLOAD PUSH2 0x175 SWAP2 SWAP1 PUSH2 0x8AE JUMP JUMPDEST PUSH1 0x40 MLOAD DUP1 SWAP2 SUB SWAP1 RETURN JUMPDEST PUSH2 0x186 PUSH2 0x3F1 JUMP JUMPDEST STOP JUMPDEST PUSH2 0x1A2 PUSH1 0x4 DUP1 CALLDATASIZE SUB DUP2 ADD SWAP1 PUSH2 0x19D SWAP2 SWAP1 PUSH2 0x85F JUMP JUMPDEST PUSH2 0x42C JUMP JUMPDEST PUSH1 0x40 MLOAD PUSH2 0x1AF SWAP2 SWAP1 PUSH2 0x8AE JUMP JUMPDEST PUSH1 0x40 MLOAD DUP1 SWAP2 SUB SWAP1 RETURN JUMPDEST PUSH2 0x1D2 PUSH1 0x4 DUP1 CALLDATASIZE SUB DUP2 ADD SWAP1 PUSH2 0x1CD SWAP2 SWAP1 PUSH2 0x92E JUMP JUMPDEST PUSH2 0x48A JUMP JUMPDEST PUSH1 0x40 MLOAD PUSH2 0x1DF SWAP2 SWAP1 PUSH2 0x97B JUMP JUMPDEST PUSH1 0x40 MLOAD DUP1 SWAP2 SUB SWAP1 RETURN JUMPDEST PUSH2 0x202 PUSH1 0x4 DUP1 CALLDATASIZE SUB DUP2 ADD SWAP1 PUSH2 0x1FD SWAP2 SWAP1 PUSH2 0x9C9 JUMP JUMPDEST PUSH2 0x4F9 JUMP JUMPDEST STOP JUMPDEST PUSH1 0x0 PUSH1 0x60 PUSH1 0xC PUSH1 0x40 MLOAD DUP1 PUSH1 0x40 ADD PUSH1 0x40 MSTORE DUP1 PUSH1 0x5 DUP2 MSTORE PUSH1 0x20 ADD PUSH32 0x706573686F000000000000000000000000000000000000000000000000000000 DUP2 MSTORE POP SWAP2 POP SWAP2 POP SWAP1 SWAP2 JUMP JUMPDEST PUSH1 0x0 DUP1 SLOAD SWAP1 PUSH2 0x100 EXP SWAP1 DIV PUSH1 0xFF AND DUP2 JUMP JUMPDEST PUSH1 0x1 PUSH1 0x0 DUP1 PUSH2 0x100 EXP DUP2 SLOAD DUP2 PUSH1 0xFF MUL NOT AND SWAP1 DUP4 PUSH1 0x2 DUP2 GT ISZERO PUSH2 0x27E JUMPI PUSH2 0x27D PUSH2 0x6BE JUMP JUMPDEST JUMPDEST MUL OR SWAP1 SSTORE POP JUMP JUMPDEST PUSH1 0x0 DUP1 PUSH1 0x1 PUSH1 0x2 SWAP2 POP SWAP2 POP SWAP1 SWAP2 JUMP JUMPDEST PUSH1 0x2 PUSH1 0x0 DUP1 PUSH2 0x100 EXP DUP2 SLOAD DUP2 PUSH1 0xFF MUL NOT AND SWAP1 DUP4 PUSH1 0x2 DUP2 GT ISZERO PUSH2 0x2B9 JUMPI PUSH2 0x2B8 PUSH2 0x6BE JUMP JUMPDEST JUMPDEST MUL OR SWAP1 SSTORE POP JUMP JUMPDEST PUSH1 0x0 DUP1 PUSH1 0x0 SWAP1 POP PUSH1 0x0 JUMPDEST PUSH1 0x1 DUP1 SLOAD SWAP1 POP DUP2 LT ISZERO PUSH2 0x389 JUMPI PUSH1 0x1 DUP2 DUP2 SLOAD DUP2 LT PUSH2 0x2EB JUMPI PUSH2 0x2EA PUSH2 0xA09 JUMP JUMPDEST JUMPDEST SWAP1 PUSH1 0x0 MSTORE PUSH1 0x20 PUSH1 0x0 KECCAK256 SWAP1 PUSH1 0x2 MUL ADD PUSH1 0x0 ADD PUSH1 0x0 SWAP1 SLOAD SWAP1 PUSH2 0x100 EXP SWAP1 DIV PUSH20 0xFFFFFFFFFFFFFFFFFFFFFFFFFFFFFFFFFFFFFFFF AND PUSH20 0xFFFFFFFFFFFFFFFFFFFFFFFFFFFFFFFFFFFFFFFF AND DUP5 PUSH20 0xFFFFFFFFFFFFFFFFFFFFFFFFFFFFFFFFFFFFFFFF AND SUB PUSH2 0x37C JUMPI PUSH1 0x1 DUP2 DUP2 SLOAD DUP2 LT PUSH2 0x363 JUMPI PUSH2 0x362 PUSH2 0xA09 JUMP JUMPDEST JUMPDEST SWAP1 PUSH1 0x0 MSTORE PUSH1 0x20 PUSH1 0x0 KECCAK256 SWAP1 PUSH1 0x2 MUL ADD PUSH1 0x1 ADD SLOAD SWAP2 POP PUSH2 0x389 JUMP JUMPDEST DUP1 DUP1 PUSH1 0x1 ADD SWAP2 POP POP PUSH2 0x2CA JUMP JUMPDEST POP DUP1 SWAP2 POP POP SWAP2 SWAP1 POP JUMP JUMPDEST PUSH1 0x0 DUP1 PUSH1 0x0 DUP5 SGT SWAP1 POP DUP1 PUSH2 0x3DC JUMPI PUSH1 0x40 MLOAD PUSH32 0x8C379A000000000000000000000000000000000000000000000000000000000 DUP2 MSTORE PUSH1 0x4 ADD PUSH2 0x3D3 SWAP1 PUSH2 0xA84 JUMP JUMPDEST PUSH1 0x40 MLOAD DUP1 SWAP2 SUB SWAP1 REVERT JUMPDEST DUP3 DUP5 PUSH2 0x3E8 SWAP2 SWAP1 PUSH2 0xAD3 JUMP JUMPDEST SWAP2 POP POP SWAP3 SWAP2 POP POP JUMP JUMPDEST PUSH1 0x40 MLOAD PUSH32 0x5457DCDF00000000000000000000000000000000000000000000000000000000 DUP2 MSTORE PUSH1 0x4 ADD PUSH2 0x423 SWAP1 PUSH2 0xB62 JUMP JUMPDEST PUSH1 0x40 MLOAD DUP1 SWAP2 SUB SWAP1 REVERT JUMPDEST PUSH1 0x0 DUP1 PUSH1 0x0 DUP5 SGT SWAP1 POP DUP1 PUSH2 0x475 JUMPI PUSH1 0x40 MLOAD PUSH32 0xB2F324F900000000000000000000000000000000000000000000000000000000 DUP2 MSTORE PUSH1 0x4 ADD PUSH2 0x46C SWAP1 PUSH2 0xBDF JUMP JUMPDEST PUSH1 0x40 MLOAD DUP1 SWAP2 SUB SWAP1 REVERT JUMPDEST DUP3 DUP5 PUSH2 0x481 SWAP2 SWAP1 PUSH2 0xAD3 JUMP JUMPDEST SWAP2 POP POP SWAP3 SWAP2 POP POP JUMP JUMPDEST PUSH1 0x60 PUSH1 0x0 PUSH1 0x40 MLOAD DUP1 PUSH1 0x40 ADD PUSH1 0x40 MSTORE DUP1 PUSH1 0x3 DUP2 MSTORE PUSH1 0x20 ADD PUSH32 0x3132330000000000000000000000000000000000000000000000000000000000 DUP2 MSTORE POP SWAP1 POP PUSH1 0x0 DUP5 DUP5 DUP4 PUSH1 0x40 MLOAD PUSH1 0x20 ADD PUSH2 0x4DD SWAP4 SWAP3 SWAP2 SWAP1 PUSH2 0xC6F JUMP JUMPDEST PUSH1 0x40 MLOAD PUSH1 0x20 DUP2 DUP4 SUB SUB DUP2 MSTORE SWAP1 PUSH1 0x40 MSTORE SWAP1 POP DUP1 SWAP3 POP POP POP SWAP3 SWAP2 POP POP JUMP JUMPDEST PUSH1 0x0 PUSH1 0x40 MLOAD DUP1 PUSH1 0x40 ADD PUSH1 0x40 MSTORE DUP1 DUP5 PUSH20 0xFFFFFFFFFFFFFFFFFFFFFFFFFFFFFFFFFFFFFFFF AND DUP2 MSTORE PUSH1 0x20 ADD DUP4 DUP2 MSTORE POP SWAP1 POP PUSH1 0x1 DUP2 SWAP1 DUP1 PUSH1 0x1 DUP2 SLOAD ADD DUP1 DUP3 SSTORE DUP1 SWAP2 POP POP PUSH1 0x1 SWAP1 SUB SWAP1 PUSH1 0x0 MSTORE PUSH1 0x20 PUSH1 0x0 KECCAK256 SWAP1 PUSH1 0x2 MUL ADD PUSH1 0x0 SWAP1 SWAP2 SWAP1 SWAP2 SWAP1 SWAP2 POP PUSH1 0x0 DUP3 ADD MLOAD DUP2 PUSH1 0x0 ADD PUSH1 0x0 PUSH2 0x100 EXP DUP2 SLOAD DUP2 PUSH20 0xFFFFFFFFFFFFFFFFFFFFFFFFFFFFFFFFFFFFFFFF MUL NOT AND SWAP1 DUP4 PUSH20 0xFFFFFFFFFFFFFFFFFFFFFFFFFFFFFFFFFFFFFFFF AND MUL OR SWAP1 SSTORE POP PUSH1 0x20 DUP3 ADD MLOAD DUP2 PUSH1 0x1 ADD SSTORE POP POP PUSH32 0xE31E113F724C5BE3599D7591CD59DEE45629AE2C10BAA65B083C0A9A9087FE06 DUP4 DUP4 PUSH1 0x40 MLOAD PUSH2 0x5D8 SWAP3 SWAP2 SWAP1 PUSH2 0xCA4 JUMP JUMPDEST PUSH1 0x40 MLOAD DUP1 SWAP2 SUB SWAP1 LOG1 POP POP POP JUMP JUMPDEST PUSH1 0x0 DUP2 SWAP1 POP SWAP2 SWAP1 POP JUMP JUMPDEST PUSH2 0x5F8 DUP2 PUSH2 0x5E5 JUMP JUMPDEST DUP3 MSTORE POP POP JUMP JUMPDEST PUSH1 0x0 DUP2 MLOAD SWAP1 POP SWAP2 SWAP1 POP JUMP JUMPDEST PUSH1 0x0 DUP3 DUP3 MSTORE PUSH1 0x20 DUP3 ADD SWAP1 POP SWAP3 SWAP2 POP POP JUMP JUMPDEST PUSH1 0x0 JUMPDEST DUP4 DUP2 LT ISZERO PUSH2 0x638 JUMPI DUP1 DUP3 ADD MLOAD DUP2 DUP5 ADD MSTORE PUSH1 0x20 DUP2 ADD SWAP1 POP PUSH2 0x61D JUMP JUMPDEST PUSH1 0x0 DUP5 DUP5 ADD MSTORE POP POP POP POP JUMP JUMPDEST PUSH1 0x0 PUSH1 0x1F NOT PUSH1 0x1F DUP4 ADD AND SWAP1 POP SWAP2 SWAP1 POP JUMP JUMPDEST PUSH1 0x0 PUSH2 0x660 DUP3 PUSH2 0x5FE JUMP JUMPDEST PUSH2 0x66A DUP2 DUP6 PUSH2 0x609 JUMP JUMPDEST SWAP4 POP PUSH2 0x67A DUP2 DUP6 PUSH1 0x20 DUP7 ADD PUSH2 0x61A JUMP JUMPDEST PUSH2 0x683 DUP2 PUSH2 0x644 JUMP JUMPDEST DUP5 ADD SWAP2 POP POP SWAP3 SWAP2 POP POP JUMP JUMPDEST PUSH1 0x0 PUSH1 0x40 DUP3 ADD SWAP1 POP PUSH2 0x6A3 PUSH1 0x0 DUP4 ADD DUP6 PUSH2 0x5EF JUMP JUMPDEST DUP2 DUP2 SUB PUSH1 0x20 DUP4 ADD MSTORE PUSH2 0x6B5 DUP2 DUP5 PUSH2 0x655 JUMP JUMPDEST SWAP1 POP SWAP4 SWAP3 POP POP POP JUMP JUMPDEST PUSH32 0x4E487B7100000000000000000000000000000000000000000000000000000000 PUSH1 0x0 MSTORE PUSH1 0x21 PUSH1 0x4 MSTORE PUSH1 0x24 PUSH1 0x0 REVERT JUMPDEST PUSH1 0x3 DUP2 LT PUSH2 0x6FE JUMPI PUSH2 0x6FD PUSH2 0x6BE JUMP JUMPDEST JUMPDEST POP JUMP JUMPDEST PUSH1 0x0 DUP2 SWAP1 POP PUSH2 0x70F DUP3 PUSH2 0x6ED JUMP JUMPDEST SWAP2 SWAP1 POP JUMP JUMPDEST PUSH1 0x0 PUSH2 0x71F DUP3 PUSH2 0x701 JUMP JUMPDEST SWAP1 POP SWAP2 SWAP1 POP JUMP JUMPDEST PUSH2 0x72F DUP2 PUSH2 0x714 JUMP JUMPDEST DUP3 MSTORE POP POP JUMP JUMPDEST PUSH1 0x0 PUSH1 0x20 DUP3 ADD SWAP1 POP PUSH2 0x74A PUSH1 0x0 DUP4 ADD DUP5 PUSH2 0x726 JUMP JUMPDEST SWAP3 SWAP2 POP POP JUMP JUMPDEST PUSH1 0x0 PUSH1 0x40 DUP3 ADD SWAP1 POP PUSH2 0x765 PUSH1 0x0 DUP4 ADD DUP6 PUSH2 0x5EF JUMP JUMPDEST PUSH2 0x772 PUSH1 0x20 DUP4 ADD DUP5 PUSH2 0x5EF JUMP JUMPDEST SWAP4 SWAP3 POP POP POP JUMP JUMPDEST PUSH1 0x0 DUP1 REVERT JUMPDEST PUSH1 0x0 DUP1 REVERT JUMPDEST PUSH1 0x0 PUSH20 0xFFFFFFFFFFFFFFFFFFFFFFFFFFFFFFFFFFFFFFFF DUP3 AND SWAP1 POP SWAP2 SWAP1 POP JUMP JUMPDEST PUSH1 0x0 PUSH2 0x7AE DUP3 PUSH2 0x783 JUMP JUMPDEST SWAP1 POP SWAP2 SWAP1 POP JUMP JUMPDEST PUSH2 0x7BE DUP2 PUSH2 0x7A3 JUMP JUMPDEST DUP2 EQ PUSH2 0x7C9 JUMPI PUSH1 0x0 DUP1 REVERT JUMPDEST POP JUMP JUMPDEST PUSH1 0x0 DUP2 CALLDATALOAD SWAP1 POP PUSH2 0x7DB DUP2 PUSH2 0x7B5 JUMP JUMPDEST SWAP3 SWAP2 POP POP JUMP JUMPDEST PUSH1 0x0 PUSH1 0x20 DUP3 DUP5 SUB SLT ISZERO PUSH2 0x7F7 JUMPI PUSH2 0x7F6 PUSH2 0x779 JUMP JUMPDEST JUMPDEST PUSH1 0x0 PUSH2 0x805 DUP5 DUP3 DUP6 ADD PUSH2 0x7CC JUMP JUMPDEST SWAP2 POP POP SWAP3 SWAP2 POP POP JUMP JUMPDEST PUSH1 0x0 PUSH1 0x20 DUP3 ADD SWAP1 POP PUSH2 0x823 PUSH1 0x0 DUP4 ADD DUP5 PUSH2 0x5EF JUMP JUMPDEST SWAP3 SWAP2 POP POP JUMP JUMPDEST PUSH1 0x0 DUP2 SWAP1 POP SWAP2 SWAP1 POP JUMP JUMPDEST PUSH2 0x83C DUP2 PUSH2 0x829 JUMP JUMPDEST DUP2 EQ PUSH2 0x847 JUMPI PUSH1 0x0 DUP1 REVERT JUMPDEST POP JUMP JUMPDEST PUSH1 0x0 DUP2 CALLDATALOAD SWAP1 POP PUSH2 0x859 DUP2 PUSH2 0x833 JUMP JUMPDEST SWAP3 SWAP2 POP POP JUMP JUMPDEST PUSH1 0x0 DUP1 PUSH1 0x40 DUP4 DUP6 SUB SLT ISZERO PUSH2 0x876 JUMPI PUSH2 0x875 PUSH2 0x779 JUMP JUMPDEST JUMPDEST PUSH1 0x0 PUSH2 0x884 DUP6 DUP3 DUP7 ADD PUSH2 0x84A JUMP JUMPDEST SWAP3 POP POP PUSH1 0x20 PUSH2 0x895 DUP6 DUP3 DUP7 ADD PUSH2 0x84A JUMP JUMPDEST SWAP2 POP POP SWAP3 POP SWAP3 SWAP1 POP JUMP JUMPDEST PUSH2 0x8A8 DUP2 PUSH2 0x829 JUMP JUMPDEST DUP3 MSTORE POP POP JUMP JUMPDEST PUSH1 0x0 PUSH1 0x20 DUP3 ADD SWAP1 POP PUSH2 0x8C3 PUSH1 0x0 DUP4 ADD DUP5 PUSH2 0x89F JUMP JUMPDEST SWAP3 SWAP2 POP POP JUMP JUMPDEST PUSH1 0x0 DUP1 REVERT JUMPDEST PUSH1 0x0 DUP1 REVERT JUMPDEST PUSH1 0x0 DUP1 REVERT JUMPDEST PUSH1 0x0 DUP1 DUP4 PUSH1 0x1F DUP5 ADD SLT PUSH2 0x8EE JUMPI PUSH2 0x8ED PUSH2 0x8C9 JUMP JUMPDEST JUMPDEST DUP3 CALLDATALOAD SWAP1 POP PUSH8 0xFFFFFFFFFFFFFFFF DUP2 GT ISZERO PUSH2 0x90B JUMPI PUSH2 0x90A PUSH2 0x8CE JUMP JUMPDEST JUMPDEST PUSH1 0x20 DUP4 ADD SWAP2 POP DUP4 PUSH1 0x1 DUP3 MUL DUP4 ADD GT ISZERO PUSH2 0x927 JUMPI PUSH2 0x926 PUSH2 0x8D3 JUMP JUMPDEST JUMPDEST SWAP3 POP SWAP3 SWAP1 POP JUMP JUMPDEST PUSH1 0x0 DUP1 PUSH1 0x20 DUP4 DUP6 SUB SLT ISZERO PUSH2 0x945 JUMPI PUSH2 0x944 PUSH2 0x779 JUMP JUMPDEST JUMPDEST PUSH1 0x0 DUP4 ADD CALLDATALOAD PUSH8 0xFFFFFFFFFFFFFFFF DUP2 GT ISZERO PUSH2 0x963 JUMPI PUSH2 0x962 PUSH2 0x77E JUMP JUMPDEST JUMPDEST PUSH2 0x96F DUP6 DUP3 DUP7 ADD PUSH2 0x8D8 JUMP JUMPDEST SWAP3 POP SWAP3 POP POP SWAP3 POP SWAP3 SWAP1 POP JUMP JUMPDEST PUSH1 0x0 PUSH1 0x20 DUP3 ADD SWAP1 POP DUP2 DUP2 SUB PUSH1 0x0 DUP4 ADD MSTORE PUSH2 0x995 DUP2 DUP5 PUSH2 0x655 JUMP JUMPDEST SWAP1 POP SWAP3 SWAP2 POP POP JUMP JUMPDEST PUSH2 0x9A6 DUP2 PUSH2 0x5E5 JUMP JUMPDEST DUP2 EQ PUSH2 0x9B1 JUMPI PUSH1 0x0 DUP1 REVERT JUMPDEST POP JUMP JUMPDEST PUSH1 0x0 DUP2 CALLDATALOAD SWAP1 POP PUSH2 0x9C3 DUP2 PUSH2 0x99D JUMP JUMPDEST SWAP3 SWAP2 POP POP JUMP JUMPDEST PUSH1 0x0 DUP1 PUSH1 0x40 DUP4 DUP6 SUB SLT ISZERO PUSH2 0x9E0 JUMPI PUSH2 0x9DF PUSH2 0x779 JUMP JUMPDEST JUMPDEST PUSH1 0x0 PUSH2 0x9EE DUP6 DUP3 DUP7 ADD PUSH2 0x7CC JUMP JUMPDEST SWAP3 POP POP PUSH1 0x20 PUSH2 0x9FF DUP6 DUP3 DUP7 ADD PUSH2 0x9B4 JUMP JUMPDEST SWAP2 POP POP SWAP3 POP SWAP3 SWAP1 POP JUMP JUMPDEST PUSH32 0x4E487B7100000000000000000000000000000000000000000000000000000000 PUSH1 0x0 MSTORE PUSH1 0x32 PUSH1 0x4 MSTORE PUSH1 0x24 PUSH1 0x0 REVERT JUMPDEST PUSH32 0x6E65207374616161000000000000000000000000000000000000000000000000 PUSH1 0x0 DUP3 ADD MSTORE POP JUMP JUMPDEST PUSH1 0x0 PUSH2 0xA6E PUSH1 0x8 DUP4 PUSH2 0x609 JUMP JUMPDEST SWAP2 POP PUSH2 0xA79 DUP3 PUSH2 0xA38 JUMP JUMPDEST PUSH1 0x20 DUP3 ADD SWAP1 POP SWAP2 SWAP1 POP JUMP JUMPDEST PUSH1 0x0 PUSH1 0x20 DUP3 ADD SWAP1 POP DUP2 DUP2 SUB PUSH1 0x0 DUP4 ADD MSTORE PUSH2 0xA9D DUP2 PUSH2 0xA61 JUMP JUMPDEST SWAP1 POP SWAP2 SWAP1 POP JUMP JUMPDEST PUSH32 0x4E487B7100000000000000000000000000000000000000000000000000000000 PUSH1 0x0 MSTORE PUSH1 0x11 PUSH1 0x4 MSTORE PUSH1 0x24 PUSH1 0x0 REVERT JUMPDEST PUSH1 0x0 PUSH2 0xADE DUP3 PUSH2 0x829 JUMP JUMPDEST SWAP2 POP PUSH2 0xAE9 DUP4 PUSH2 0x829 JUMP JUMPDEST SWAP3 POP DUP3 DUP3 SUB SWAP1 POP DUP2 DUP2 SLT PUSH1 0x0 DUP5 SLT AND DUP3 DUP3 SGT PUSH1 0x0 DUP6 SLT ISZERO AND OR ISZERO PUSH2 0xB10 JUMPI PUSH2 0xB0F PUSH2 0xAA4 JUMP JUMPDEST JUMPDEST SWAP3 SWAP2 POP POP JUMP JUMPDEST PUSH32 0x506573686F206520706564616C21212100000000000000000000000000000000 PUSH1 0x0 DUP3 ADD MSTORE POP JUMP JUMPDEST PUSH1 0x0 PUSH2 0xB4C PUSH1 0x10 DUP4 PUSH2 0x609 JUMP JUMPDEST SWAP2 POP PUSH2 0xB57 DUP3 PUSH2 0xB16 JUMP JUMPDEST PUSH1 0x20 DUP3 ADD SWAP1 POP SWAP2 SWAP1 POP JUMP JUMPDEST PUSH1 0x0 PUSH1 0x20 DUP3 ADD SWAP1 POP DUP2 DUP2 SUB PUSH1 0x0 DUP4 ADD MSTORE PUSH2 0xB7B DUP2 PUSH2 0xB3F JUMP JUMPDEST SWAP1 POP SWAP2 SWAP1 POP JUMP JUMPDEST PUSH1 0x0 DUP3 DUP3 MSTORE PUSH1 0x20 DUP3 ADD SWAP1 POP SWAP3 SWAP2 POP POP JUMP JUMPDEST PUSH32 0x4E65207374616100000000000000000000000000000000000000000000000000 PUSH1 0x0 DUP3 ADD MSTORE POP JUMP JUMPDEST PUSH1 0x0 PUSH2 0xBC9 PUSH1 0x7 DUP4 PUSH2 0xB82 JUMP JUMPDEST SWAP2 POP PUSH2 0xBD4 DUP3 PUSH2 0xB93 JUMP JUMPDEST PUSH1 0x20 DUP3 ADD SWAP1 POP SWAP2 SWAP1 POP JUMP JUMPDEST PUSH1 0x0 PUSH1 0x20 DUP3 ADD SWAP1 POP DUP2 DUP2 SUB PUSH1 0x0 DUP4 ADD MSTORE PUSH2 0xBF8 DUP2 PUSH2 0xBBC JUMP JUMPDEST SWAP1 POP SWAP2 SWAP1 POP JUMP JUMPDEST PUSH1 0x0 DUP2 SWAP1 POP SWAP3 SWAP2 POP POP JUMP JUMPDEST DUP3 DUP2 DUP4 CALLDATACOPY PUSH1 0x0 DUP4 DUP4 ADD MSTORE POP POP POP JUMP JUMPDEST PUSH1 0x0 PUSH2 0xC25 DUP4 DUP6 PUSH2 0xBFF JUMP JUMPDEST SWAP4 POP PUSH2 0xC32 DUP4 DUP6 DUP5 PUSH2 0xC0A JUMP JUMPDEST DUP3 DUP5 ADD SWAP1 POP SWAP4 SWAP3 POP POP POP JUMP JUMPDEST PUSH1 0x0 PUSH2 0xC49 DUP3 PUSH2 0x5FE JUMP JUMPDEST PUSH2 0xC53 DUP2 DUP6 PUSH2 0xBFF JUMP JUMPDEST SWAP4 POP PUSH2 0xC63 DUP2 DUP6 PUSH1 0x20 DUP7 ADD PUSH2 0x61A JUMP JUMPDEST DUP1 DUP5 ADD SWAP2 POP POP SWAP3 SWAP2 POP POP JUMP JUMPDEST PUSH1 0x0 PUSH2 0xC7C DUP3 DUP6 DUP8 PUSH2 0xC19 JUMP JUMPDEST SWAP2 POP PUSH2 0xC88 DUP3 DUP5 PUSH2 0xC3E JUMP JUMPDEST SWAP2 POP DUP2 SWAP1 POP SWAP5 SWAP4 POP POP POP POP JUMP JUMPDEST PUSH2 0xC9E DUP2 PUSH2 0x7A3 JUMP JUMPDEST DUP3 MSTORE POP POP JUMP JUMPDEST PUSH1 0x0 PUSH1 0x40 DUP3 ADD SWAP1 POP PUSH2 0xCB9 PUSH1 0x0 DUP4 ADD DUP6 PUSH2 0xC95 JUMP JUMPDEST PUSH2 0xCC6 PUSH1 0x20 DUP4 ADD DUP5 PUSH2 0x5EF JUMP JUMPDEST SWAP4 SWAP3 POP POP POP JUMP INVALID LOG2 PUSH5 0x6970667358 0x22 SLT KECCAK256 0xEC 0xC3 0xCD 0xA5 0xF7 BASEFEE 0xC 0xFC 0xC CREATE SWAP6 LOG0 SWAP12 BYTE RETURNDATASIZE 0x5C 0x26 0xA9 0xF6 REVERT 0xE PUSH3 0xD838AB BALANCE 0x4D PUSH25 0xCB81256A64736F6C6343000817003300000000000000000000 "
				},
				"gasEstimates": {
					"creation": {
						"codeDepositCost": "666200",
						"executionCost": "25001",
						"totalCost": "691201"
					},
					"external": {
						"RaiseError()": "478",
						"activate()": "24476",
						"addUser(address,uint256)": "infinite",
						"currentState()": "2580",
						"deactivate()": "24520",
						"getUser(address)": "infinite",
						"simpleSubstraction(int256,int256)": "infinite",
						"simpleSubstractionWithOtherErrorHandling(int256,int256)": "infinite",
						"testCaldata(string)": "infinite",
						"testFuncReturningMoreThanOneValue()": "infinite",
						"testReturnsTupleWhichIsNotPossibleInSolidity()": "infinite"
					}
				},
				"methodIdentifiers": {
					"RaiseError()": "a395be10",
					"activate()": "0f15f4c0",
					"addUser(address,uint256)": "d3017193",
					"currentState()": "0c3f6acf",
					"deactivate()": "51b42b00",
					"getUser(address)": "6f77926b",
					"simpleSubstraction(int256,int256)": "aa08f2fc",
					"simpleSubstractionWithOtherErrorHandling(int256,int256)": "a1b82903",
					"testCaldata(string)": "b8cc5f88",
					"testFuncReturningMoreThanOneValue()": "0a311a43",
					"testReturnsTupleWhichIsNotPossibleInSolidity()": "39896f83"
				}
			},
			"storageLayout": {
				"storage": [
					{
						"astId": 19,
						"contract": "contracts/contract_with_solidity_features.sol:Tester",
						"label": "currentState",
						"offset": 0,
						"slot": "0",
						"type": "t_enum(State)13"
					},
					{
						"astId": 28,
						"contract": "contracts/contract_with_solidity_features.sol:Tester",
						"label": "users",
						"offset": 0,
						"slot": "1",
						"type": "t_array(t_struct(User)24_storage)dyn_storage"
					}
				],
				"types": {
					"t_address": {
						"encoding": "inplace",
						"label": "address",
						"numberOfBytes": "20"
					},
					"t_array(t_struct(User)24_storage)dyn_storage": {
						"base": "t_struct(User)24_storage",
						"encoding": "dynamic_array",
						"label": "struct Tester.User[]",
						"numberOfBytes": "32"
					},
					"t_enum(State)13": {
						"encoding": "inplace",
						"label": "enum State",
						"numberOfBytes": "1"
					},
					"t_struct(User)24_storage": {
						"encoding": "inplace",
						"label": "struct Tester.User",
						"members": [
							{
								"astId": 21,
								"contract": "contracts/contract_with_solidity_features.sol:Tester",
								"label": "wallet",
								"offset": 0,
								"slot": "0",
								"type": "t_address"
							},
							{
								"astId": 23,
								"contract": "contracts/contract_with_solidity_features.sol:Tester",
								"label": "amount",
								"offset": 0,
								"slot": "1",
								"type": "t_uint256"
							}
						],
						"numberOfBytes": "64"
					},
					"t_uint256": {
						"encoding": "inplace",
						"label": "uint256",
						"numberOfBytes": "32"
					}
				}
			},
			"userdoc": {
				"kind": "user",
				"methods": {},
				"version": 1
			}
		}
	}
}