{
	"contracts/test_time_now.sol": {
		"testTimeNow": {
			"abi": [
				{
					"inputs": [
						{
							"internalType": "bool",
							"name": "a",
							"type": "bool"
						}
					],
					"name": "checkBool",
					"outputs": [
						{
							"internalType": "bool",
							"name": "",
							"type": "bool"
						}
					],
					"stateMutability": "pure",
					"type": "function"
				},
				{
					"inputs": [
						{
							"internalType": "uint256",
							"name": "timestamp",
							"type": "uint256"
						}
					],
					"name": "checkTimediff",
					"outputs": [
						{
							"internalType": "bool",
							"name": "",
							"type": "bool"
						}
					],
					"stateMutability": "view",
					"type": "function"
				},
				{
					"inputs": [],
					"name": "gasss",
					"outputs": [
						{
							"internalType": "uint256",
							"name": "",
							"type": "uint256"
						}
					],
					"stateMutability": "view",
					"type": "function"
				},
				{
					"inputs": [
						{
							"internalType": "uint160",
							"name": "number",
							"type": "uint160"
						}
					],
					"name": "generateAddress",
					"outputs": [
						{
							"internalType": "address",
							"name": "",
							"type": "address"
						}
					],
					"stateMutability": "pure",
					"type": "function"
				},
				{
					"inputs": [
						{
							"internalType": "string",
							"name": "a",
							"type": "string"
						}
					],
					"name": "stringCompare",
					"outputs": [
						{
							"internalType": "bool",
							"name": "",
							"type": "bool"
						}
					],
					"stateMutability": "pure",
					"type": "function"
				},
				{
					"inputs": [
						{
							"internalType": "string",
							"name": "a",
							"type": "string"
						}
					],
					"name": "stringLength",
					"outputs": [
						{
							"internalType": "uint256",
							"name": "",
							"type": "uint256"
						}
					],
					"stateMutability": "pure",
					"type": "function"
				},
				{
					"inputs": [],
					"name": "timeNow",
					"outputs": [
						{
							"internalType": "uint256",
							"name": "",
							"type": "uint256"
						}
					],
					"stateMutability": "view",
					"type": "function"
				}
			],
			"devdoc": {
				"kind": "dev",
				"methods": {},
				"version": 1
			},
			"evm": {
				"assembly": "    /* \"contracts/test_time_now.sol\":24:865  contract testTimeNow{... */\n  mstore(0x40, 0x80)\n  callvalue\n  dup1\n  iszero\n  tag_1\n  jumpi\n  0x00\n  dup1\n  revert\ntag_1:\n  pop\n  dataSize(sub_0)\n  dup1\n  dataOffset(sub_0)\n  0x00\n  codecopy\n  0x00\n  return\nstop\n\nsub_0: assembly {\n        /* \"contracts/test_time_now.sol\":24:865  contract testTimeNow{... */\n      mstore(0x40, 0x80)\n      callvalue\n      dup1\n      iszero\n      tag_1\n      jumpi\n      0x00\n      dup1\n      revert\n    tag_1:\n      pop\n      jumpi(tag_2, lt(calldatasize, 0x04))\n      shr(0xe0, calldataload(0x00))\n      dup1\n      0x733b5a58\n      gt\n      tag_10\n      jumpi\n      dup1\n      0x733b5a58\n      eq\n      tag_6\n      jumpi\n      dup1\n      0x98a365a9\n      eq\n      tag_7\n      jumpi\n      dup1\n      0xb118060e\n      eq\n      tag_8\n      jumpi\n      dup1\n      0xd95660be\n      eq\n      tag_9\n      jumpi\n      jump(tag_2)\n    tag_10:\n      dup1\n      0x34d4a46a\n      eq\n      tag_3\n      jumpi\n      dup1\n      0x35b93311\n      eq\n      tag_4\n      jumpi\n      dup1\n      0x4ebcd472\n      eq\n      tag_5\n      jumpi\n    tag_2:\n      0x00\n      dup1\n      revert\n        /* \"contracts/test_time_now.sol\":439:523  function checkBool(bool a) public pure returns(bool){... */\n    tag_3:\n      tag_11\n      0x04\n      dup1\n      calldatasize\n      sub\n      dup2\n      add\n      swap1\n      tag_12\n      swap2\n      swap1\n      tag_13\n      jump\t// in\n    tag_12:\n      tag_14\n      jump\t// in\n    tag_11:\n      mload(0x40)\n      tag_15\n      swap2\n      swap1\n      tag_16\n      jump\t// in\n    tag_15:\n      mload(0x40)\n      dup1\n      swap2\n      sub\n      swap1\n      return\n        /* \"contracts/test_time_now.sol\":780:862  function gasss() public view  returns (uint256){... */\n    tag_4:\n      tag_17\n      tag_18\n      jump\t// in\n    tag_17:\n      mload(0x40)\n      tag_19\n      swap2\n      swap1\n      tag_20\n      jump\t// in\n    tag_19:\n      mload(0x40)\n      dup1\n      swap2\n      sub\n      swap1\n      return\n        /* \"contracts/test_time_now.sol\":148:268  function checkTimediff(uint256 timestamp) public view returns (bool){... */\n    tag_5:\n      tag_21\n      0x04\n      dup1\n      calldatasize\n      sub\n      dup2\n      add\n      swap1\n      tag_22\n      swap2\n      swap1\n      tag_23\n      jump\t// in\n    tag_22:\n      tag_24\n      jump\t// in\n    tag_21:\n      mload(0x40)\n      tag_25\n      swap2\n      swap1\n      tag_16\n      jump\t// in\n    tag_25:\n      mload(0x40)\n      dup1\n      swap2\n      sub\n      swap1\n      return\n        /* \"contracts/test_time_now.sol\":643:775  function generateAddress(uint160 number) public pure returns (address){... */\n    tag_6:\n      tag_26\n      0x04\n      dup1\n      calldatasize\n      sub\n      dup2\n      add\n      swap1\n      tag_27\n      swap2\n      swap1\n      tag_28\n      jump\t// in\n    tag_27:\n      tag_29\n      jump\t// in\n    tag_26:\n      mload(0x40)\n      tag_30\n      swap2\n      swap1\n      tag_31\n      jump\t// in\n    tag_30:\n      mload(0x40)\n      dup1\n      swap2\n      sub\n      swap1\n      return\n        /* \"contracts/test_time_now.sol\":274:433  function stringCompare(string calldata a)public pure returns(bool){... */\n    tag_7:\n      tag_32\n      0x04\n      dup1\n      calldatasize\n      sub\n      dup2\n      add\n      swap1\n      tag_33\n      swap2\n      swap1\n      tag_34\n      jump\t// in\n    tag_33:\n      tag_35\n      jump\t// in\n    tag_32:\n      mload(0x40)\n      tag_36\n      swap2\n      swap1\n      tag_16\n      jump\t// in\n    tag_36:\n      mload(0x40)\n      dup1\n      swap2\n      sub\n      swap1\n      return\n        /* \"contracts/test_time_now.sol\":529:637  function stringLength(string calldata a) public pure returns(uint256){... */\n    tag_8:\n      tag_37\n      0x04\n      dup1\n      calldatasize\n      sub\n      dup2\n      add\n      swap1\n      tag_38\n      swap2\n      swap1\n      tag_34\n      jump\t// in\n    tag_38:\n      tag_39\n      jump\t// in\n    tag_37:\n      mload(0x40)\n      tag_40\n      swap2\n      swap1\n      tag_20\n      jump\t// in\n    tag_40:\n      mload(0x40)\n      dup1\n      swap2\n      sub\n      swap1\n      return\n        /* \"contracts/test_time_now.sol\":53:141  function timeNow() public view returns (uint256) {... */\n    tag_9:\n      tag_41\n      tag_42\n      jump\t// in\n    tag_41:\n      mload(0x40)\n      tag_43\n      swap2\n      swap1\n      tag_20\n      jump\t// in\n    tag_43:\n      mload(0x40)\n      dup1\n      swap2\n      sub\n      swap1\n      return\n        /* \"contracts/test_time_now.sol\":439:523  function checkBool(bool a) public pure returns(bool){... */\n    tag_14:\n        /* \"contracts/test_time_now.sol\":486:490  bool */\n      0x00\n        /* \"contracts/test_time_now.sol\":511:516  false */\n      dup1\n        /* \"contracts/test_time_now.sol\":508:516  a==false */\n      iszero\n      iszero\n        /* \"contracts/test_time_now.sol\":508:509  a */\n      dup3\n        /* \"contracts/test_time_now.sol\":508:516  a==false */\n      iszero\n      iszero\n      eq\n        /* \"contracts/test_time_now.sol\":501:516  return a==false */\n      swap1\n      pop\n        /* \"contracts/test_time_now.sol\":439:523  function checkBool(bool a) public pure returns(bool){... */\n      swap2\n      swap1\n      pop\n      jump\t// out\n        /* \"contracts/test_time_now.sol\":780:862  function gasss() public view  returns (uint256){... */\n    tag_18:\n        /* \"contracts/test_time_now.sol\":819:826  uint256 */\n      0x00\n        /* \"contracts/test_time_now.sol\":844:855  tx.gasprice */\n      gasprice\n        /* \"contracts/test_time_now.sol\":837:855  return tx.gasprice */\n      swap1\n      pop\n        /* \"contracts/test_time_now.sol\":780:862  function gasss() public view  returns (uint256){... */\n      swap1\n      jump\t// out\n        /* \"contracts/test_time_now.sol\":148:268  function checkTimediff(uint256 timestamp) public view returns (bool){... */\n    tag_24:\n        /* \"contracts/test_time_now.sol\":211:215  bool */\n      0x00\n        /* \"contracts/test_time_now.sol\":243:252  timeNow() */\n      tag_47\n        /* \"contracts/test_time_now.sol\":243:250  timeNow */\n      tag_42\n        /* \"contracts/test_time_now.sol\":243:252  timeNow() */\n      jump\t// in\n    tag_47:\n        /* \"contracts/test_time_now.sol\":233:242  timestamp */\n      dup3\n        /* \"contracts/test_time_now.sol\":233:252  timestamp>timeNow() */\n      gt\n        /* \"contracts/test_time_now.sol\":226:252  return timestamp>timeNow() */\n      swap1\n      pop\n        /* \"contracts/test_time_now.sol\":148:268  function checkTimediff(uint256 timestamp) public view returns (bool){... */\n      swap2\n      swap1\n      pop\n      jump\t// out\n        /* \"contracts/test_time_now.sol\":643:775  function generateAddress(uint160 number) public pure returns (address){... */\n    tag_29:\n        /* \"contracts/test_time_now.sol\":705:712  address */\n      0x00\n        /* \"contracts/test_time_now.sol\":723:732  address a */\n      dup1\n        /* \"contracts/test_time_now.sol\":743:749  number */\n      dup3\n        /* \"contracts/test_time_now.sol\":723:750  address a = address(number) */\n      swap1\n      pop\n        /* \"contracts/test_time_now.sol\":767:768  a */\n      dup1\n        /* \"contracts/test_time_now.sol\":760:768  return a */\n      swap2\n      pop\n      pop\n        /* \"contracts/test_time_now.sol\":643:775  function generateAddress(uint160 number) public pure returns (address){... */\n      swap2\n      swap1\n      pop\n      jump\t// out\n        /* \"contracts/test_time_now.sol\":274:433  function stringCompare(string calldata a)public pure returns(bool){... */\n    tag_35:\n        /* \"contracts/test_time_now.sol\":335:339  bool */\n      0x00\n        /* \"contracts/test_time_now.sol\":422:423  a */\n      dup3\n      dup3\n        /* \"contracts/test_time_now.sol\":404:425  abi.encodePacked((a)) */\n      add(0x20, mload(0x40))\n      tag_50\n      swap3\n      swap2\n      swap1\n      tag_51\n      jump\t// in\n    tag_50:\n      mload(0x40)\n      0x20\n      dup2\n      dup4\n      sub\n      sub\n      dup2\n      mstore\n      swap1\n      0x40\n      mstore\n        /* \"contracts/test_time_now.sol\":394:426  keccak256(abi.encodePacked((a))) */\n      dup1\n      mload\n      swap1\n      0x20\n      add\n      keccak256\n        /* \"contracts/test_time_now.sol\":367:389  abi.encodePacked((\"\")) */\n      add(0x20, mload(0x40))\n      tag_52\n      swap1\n      tag_53\n      jump\t// in\n    tag_52:\n      mload(0x40)\n      0x20\n      dup2\n      dup4\n      sub\n      sub\n      dup2\n      mstore\n      swap1\n      0x40\n      mstore\n        /* \"contracts/test_time_now.sol\":357:390  keccak256(abi.encodePacked((\"\"))) */\n      dup1\n      mload\n      swap1\n      0x20\n      add\n      keccak256\n        /* \"contracts/test_time_now.sol\":357:426  keccak256(abi.encodePacked((\"\"))) != keccak256(abi.encodePacked((a))) */\n      eq\n      iszero\n        /* \"contracts/test_time_now.sol\":350:426  return keccak256(abi.encodePacked((\"\"))) != keccak256(abi.encodePacked((a))) */\n      swap1\n      pop\n        /* \"contracts/test_time_now.sol\":274:433  function stringCompare(string calldata a)public pure returns(bool){... */\n      swap3\n      swap2\n      pop\n      pop\n      jump\t// out\n        /* \"contracts/test_time_now.sol\":529:637  function stringLength(string calldata a) public pure returns(uint256){... */\n    tag_39:\n        /* \"contracts/test_time_now.sol\":590:597  uint256 */\n      0x00\n        /* \"contracts/test_time_now.sol\":621:622  a */\n      dup3\n      dup3\n        /* \"contracts/test_time_now.sol\":615:630  bytes(a).length */\n      swap1\n      pop\n        /* \"contracts/test_time_now.sol\":608:630  return bytes(a).length */\n      swap1\n      pop\n        /* \"contracts/test_time_now.sol\":529:637  function stringLength(string calldata a) public pure returns(uint256){... */\n      swap3\n      swap2\n      pop\n      pop\n      jump\t// out\n        /* \"contracts/test_time_now.sol\":53:141  function timeNow() public view returns (uint256) {... */\n    tag_42:\n        /* \"contracts/test_time_now.sol\":93:100  uint256 */\n      0x00\n        /* \"contracts/test_time_now.sol\":119:134  block.timestamp */\n      timestamp\n        /* \"contracts/test_time_now.sol\":112:134  return block.timestamp */\n      swap1\n      pop\n        /* \"contracts/test_time_now.sol\":53:141  function timeNow() public view returns (uint256) {... */\n      swap1\n      jump\t// out\n        /* \"#utility.yul\":88:205   */\n    tag_57:\n        /* \"#utility.yul\":197:198   */\n      0x00\n        /* \"#utility.yul\":194:195   */\n      dup1\n        /* \"#utility.yul\":187:199   */\n      revert\n        /* \"#utility.yul\":211:328   */\n    tag_58:\n        /* \"#utility.yul\":320:321   */\n      0x00\n        /* \"#utility.yul\":317:318   */\n      dup1\n        /* \"#utility.yul\":310:322   */\n      revert\n        /* \"#utility.yul\":334:424   */\n    tag_59:\n        /* \"#utility.yul\":368:375   */\n      0x00\n        /* \"#utility.yul\":411:416   */\n      dup2\n        /* \"#utility.yul\":404:417   */\n      iszero\n        /* \"#utility.yul\":397:418   */\n      iszero\n        /* \"#utility.yul\":386:418   */\n      swap1\n      pop\n        /* \"#utility.yul\":334:424   */\n      swap2\n      swap1\n      pop\n      jump\t// out\n        /* \"#utility.yul\":430:546   */\n    tag_60:\n        /* \"#utility.yul\":500:521   */\n      tag_87\n        /* \"#utility.yul\":515:520   */\n      dup2\n        /* \"#utility.yul\":500:521   */\n      tag_59\n      jump\t// in\n    tag_87:\n        /* \"#utility.yul\":493:498   */\n      dup2\n        /* \"#utility.yul\":490:522   */\n      eq\n        /* \"#utility.yul\":480:540   */\n      tag_88\n      jumpi\n        /* \"#utility.yul\":536:537   */\n      0x00\n        /* \"#utility.yul\":533:534   */\n      dup1\n        /* \"#utility.yul\":526:538   */\n      revert\n        /* \"#utility.yul\":480:540   */\n    tag_88:\n        /* \"#utility.yul\":430:546   */\n      pop\n      jump\t// out\n        /* \"#utility.yul\":552:685   */\n    tag_61:\n        /* \"#utility.yul\":595:600   */\n      0x00\n        /* \"#utility.yul\":633:639   */\n      dup2\n        /* \"#utility.yul\":620:640   */\n      calldataload\n        /* \"#utility.yul\":611:640   */\n      swap1\n      pop\n        /* \"#utility.yul\":649:679   */\n      tag_90\n        /* \"#utility.yul\":673:678   */\n      dup2\n        /* \"#utility.yul\":649:679   */\n      tag_60\n      jump\t// in\n    tag_90:\n        /* \"#utility.yul\":552:685   */\n      swap3\n      swap2\n      pop\n      pop\n      jump\t// out\n        /* \"#utility.yul\":691:1014   */\n    tag_13:\n        /* \"#utility.yul\":747:753   */\n      0x00\n        /* \"#utility.yul\":796:798   */\n      0x20\n        /* \"#utility.yul\":784:793   */\n      dup3\n        /* \"#utility.yul\":775:782   */\n      dup5\n        /* \"#utility.yul\":771:794   */\n      sub\n        /* \"#utility.yul\":767:799   */\n      slt\n        /* \"#utility.yul\":764:883   */\n      iszero\n      tag_92\n      jumpi\n        /* \"#utility.yul\":802:881   */\n      tag_93\n      tag_57\n      jump\t// in\n    tag_93:\n        /* \"#utility.yul\":764:883   */\n    tag_92:\n        /* \"#utility.yul\":922:923   */\n      0x00\n        /* \"#utility.yul\":947:997   */\n      tag_94\n        /* \"#utility.yul\":989:996   */\n      dup5\n        /* \"#utility.yul\":980:986   */\n      dup3\n        /* \"#utility.yul\":969:978   */\n      dup6\n        /* \"#utility.yul\":965:987   */\n      add\n        /* \"#utility.yul\":947:997   */\n      tag_61\n      jump\t// in\n    tag_94:\n        /* \"#utility.yul\":937:997   */\n      swap2\n      pop\n        /* \"#utility.yul\":893:1007   */\n      pop\n        /* \"#utility.yul\":691:1014   */\n      swap3\n      swap2\n      pop\n      pop\n      jump\t// out\n        /* \"#utility.yul\":1020:1129   */\n    tag_62:\n        /* \"#utility.yul\":1101:1122   */\n      tag_96\n        /* \"#utility.yul\":1116:1121   */\n      dup2\n        /* \"#utility.yul\":1101:1122   */\n      tag_59\n      jump\t// in\n    tag_96:\n        /* \"#utility.yul\":1096:1099   */\n      dup3\n        /* \"#utility.yul\":1089:1123   */\n      mstore\n        /* \"#utility.yul\":1020:1129   */\n      pop\n      pop\n      jump\t// out\n        /* \"#utility.yul\":1135:1345   */\n    tag_16:\n        /* \"#utility.yul\":1222:1226   */\n      0x00\n        /* \"#utility.yul\":1260:1262   */\n      0x20\n        /* \"#utility.yul\":1249:1258   */\n      dup3\n        /* \"#utility.yul\":1245:1263   */\n      add\n        /* \"#utility.yul\":1237:1263   */\n      swap1\n      pop\n        /* \"#utility.yul\":1273:1338   */\n      tag_98\n        /* \"#utility.yul\":1335:1336   */\n      0x00\n        /* \"#utility.yul\":1324:1333   */\n      dup4\n        /* \"#utility.yul\":1320:1337   */\n      add\n        /* \"#utility.yul\":1311:1317   */\n      dup5\n        /* \"#utility.yul\":1273:1338   */\n      tag_62\n      jump\t// in\n    tag_98:\n        /* \"#utility.yul\":1135:1345   */\n      swap3\n      swap2\n      pop\n      pop\n      jump\t// out\n        /* \"#utility.yul\":1351:1428   */\n    tag_63:\n        /* \"#utility.yul\":1388:1395   */\n      0x00\n        /* \"#utility.yul\":1417:1422   */\n      dup2\n        /* \"#utility.yul\":1406:1422   */\n      swap1\n      pop\n        /* \"#utility.yul\":1351:1428   */\n      swap2\n      swap1\n      pop\n      jump\t// out\n        /* \"#utility.yul\":1434:1552   */\n    tag_64:\n        /* \"#utility.yul\":1521:1545   */\n      tag_101\n        /* \"#utility.yul\":1539:1544   */\n      dup2\n        /* \"#utility.yul\":1521:1545   */\n      tag_63\n      jump\t// in\n    tag_101:\n        /* \"#utility.yul\":1516:1519   */\n      dup3\n        /* \"#utility.yul\":1509:1546   */\n      mstore\n        /* \"#utility.yul\":1434:1552   */\n      pop\n      pop\n      jump\t// out\n        /* \"#utility.yul\":1558:1780   */\n    tag_20:\n        /* \"#utility.yul\":1651:1655   */\n      0x00\n        /* \"#utility.yul\":1689:1691   */\n      0x20\n        /* \"#utility.yul\":1678:1687   */\n      dup3\n        /* \"#utility.yul\":1674:1692   */\n      add\n        /* \"#utility.yul\":1666:1692   */\n      swap1\n      pop\n        /* \"#utility.yul\":1702:1773   */\n      tag_103\n        /* \"#utility.yul\":1770:1771   */\n      0x00\n        /* \"#utility.yul\":1759:1768   */\n      dup4\n        /* \"#utility.yul\":1755:1772   */\n      add\n        /* \"#utility.yul\":1746:1752   */\n      dup5\n        /* \"#utility.yul\":1702:1773   */\n      tag_64\n      jump\t// in\n    tag_103:\n        /* \"#utility.yul\":1558:1780   */\n      swap3\n      swap2\n      pop\n      pop\n      jump\t// out\n        /* \"#utility.yul\":1786:1908   */\n    tag_65:\n        /* \"#utility.yul\":1859:1883   */\n      tag_105\n        /* \"#utility.yul\":1877:1882   */\n      dup2\n        /* \"#utility.yul\":1859:1883   */\n      tag_63\n      jump\t// in\n    tag_105:\n        /* \"#utility.yul\":1852:1857   */\n      dup2\n        /* \"#utility.yul\":1849:1884   */\n      eq\n        /* \"#utility.yul\":1839:1902   */\n      tag_106\n      jumpi\n        /* \"#utility.yul\":1898:1899   */\n      0x00\n        /* \"#utility.yul\":1895:1896   */\n      dup1\n        /* \"#utility.yul\":1888:1900   */\n      revert\n        /* \"#utility.yul\":1839:1902   */\n    tag_106:\n        /* \"#utility.yul\":1786:1908   */\n      pop\n      jump\t// out\n        /* \"#utility.yul\":1914:2053   */\n    tag_66:\n        /* \"#utility.yul\":1960:1965   */\n      0x00\n        /* \"#utility.yul\":1998:2004   */\n      dup2\n        /* \"#utility.yul\":1985:2005   */\n      calldataload\n        /* \"#utility.yul\":1976:2005   */\n      swap1\n      pop\n        /* \"#utility.yul\":2014:2047   */\n      tag_108\n        /* \"#utility.yul\":2041:2046   */\n      dup2\n        /* \"#utility.yul\":2014:2047   */\n      tag_65\n      jump\t// in\n    tag_108:\n        /* \"#utility.yul\":1914:2053   */\n      swap3\n      swap2\n      pop\n      pop\n      jump\t// out\n        /* \"#utility.yul\":2059:2388   */\n    tag_23:\n        /* \"#utility.yul\":2118:2124   */\n      0x00\n        /* \"#utility.yul\":2167:2169   */\n      0x20\n        /* \"#utility.yul\":2155:2164   */\n      dup3\n        /* \"#utility.yul\":2146:2153   */\n      dup5\n        /* \"#utility.yul\":2142:2165   */\n      sub\n        /* \"#utility.yul\":2138:2170   */\n      slt\n        /* \"#utility.yul\":2135:2254   */\n      iszero\n      tag_110\n      jumpi\n        /* \"#utility.yul\":2173:2252   */\n      tag_111\n      tag_57\n      jump\t// in\n    tag_111:\n        /* \"#utility.yul\":2135:2254   */\n    tag_110:\n        /* \"#utility.yul\":2293:2294   */\n      0x00\n        /* \"#utility.yul\":2318:2371   */\n      tag_112\n        /* \"#utility.yul\":2363:2370   */\n      dup5\n        /* \"#utility.yul\":2354:2360   */\n      dup3\n        /* \"#utility.yul\":2343:2352   */\n      dup6\n        /* \"#utility.yul\":2339:2361   */\n      add\n        /* \"#utility.yul\":2318:2371   */\n      tag_66\n      jump\t// in\n    tag_112:\n        /* \"#utility.yul\":2308:2371   */\n      swap2\n      pop\n        /* \"#utility.yul\":2264:2381   */\n      pop\n        /* \"#utility.yul\":2059:2388   */\n      swap3\n      swap2\n      pop\n      pop\n      jump\t// out\n        /* \"#utility.yul\":2394:2520   */\n    tag_67:\n        /* \"#utility.yul\":2431:2438   */\n      0x00\n        /* \"#utility.yul\":2471:2513   */\n      0xffffffffffffffffffffffffffffffffffffffff\n        /* \"#utility.yul\":2464:2469   */\n      dup3\n        /* \"#utility.yul\":2460:2514   */\n      and\n        /* \"#utility.yul\":2449:2514   */\n      swap1\n      pop\n        /* \"#utility.yul\":2394:2520   */\n      swap2\n      swap1\n      pop\n      jump\t// out\n        /* \"#utility.yul\":2526:2648   */\n    tag_68:\n        /* \"#utility.yul\":2599:2623   */\n      tag_115\n        /* \"#utility.yul\":2617:2622   */\n      dup2\n        /* \"#utility.yul\":2599:2623   */\n      tag_67\n      jump\t// in\n    tag_115:\n        /* \"#utility.yul\":2592:2597   */\n      dup2\n        /* \"#utility.yul\":2589:2624   */\n      eq\n        /* \"#utility.yul\":2579:2642   */\n      tag_116\n      jumpi\n        /* \"#utility.yul\":2638:2639   */\n      0x00\n        /* \"#utility.yul\":2635:2636   */\n      dup1\n        /* \"#utility.yul\":2628:2640   */\n      revert\n        /* \"#utility.yul\":2579:2642   */\n    tag_116:\n        /* \"#utility.yul\":2526:2648   */\n      pop\n      jump\t// out\n        /* \"#utility.yul\":2654:2793   */\n    tag_69:\n        /* \"#utility.yul\":2700:2705   */\n      0x00\n        /* \"#utility.yul\":2738:2744   */\n      dup2\n        /* \"#utility.yul\":2725:2745   */\n      calldataload\n        /* \"#utility.yul\":2716:2745   */\n      swap1\n      pop\n        /* \"#utility.yul\":2754:2787   */\n      tag_118\n        /* \"#utility.yul\":2781:2786   */\n      dup2\n        /* \"#utility.yul\":2754:2787   */\n      tag_68\n      jump\t// in\n    tag_118:\n        /* \"#utility.yul\":2654:2793   */\n      swap3\n      swap2\n      pop\n      pop\n      jump\t// out\n        /* \"#utility.yul\":2799:3128   */\n    tag_28:\n        /* \"#utility.yul\":2858:2864   */\n      0x00\n        /* \"#utility.yul\":2907:2909   */\n      0x20\n        /* \"#utility.yul\":2895:2904   */\n      dup3\n        /* \"#utility.yul\":2886:2893   */\n      dup5\n        /* \"#utility.yul\":2882:2905   */\n      sub\n        /* \"#utility.yul\":2878:2910   */\n      slt\n        /* \"#utility.yul\":2875:2994   */\n      iszero\n      tag_120\n      jumpi\n        /* \"#utility.yul\":2913:2992   */\n      tag_121\n      tag_57\n      jump\t// in\n    tag_121:\n        /* \"#utility.yul\":2875:2994   */\n    tag_120:\n        /* \"#utility.yul\":3033:3034   */\n      0x00\n        /* \"#utility.yul\":3058:3111   */\n      tag_122\n        /* \"#utility.yul\":3103:3110   */\n      dup5\n        /* \"#utility.yul\":3094:3100   */\n      dup3\n        /* \"#utility.yul\":3083:3092   */\n      dup6\n        /* \"#utility.yul\":3079:3101   */\n      add\n        /* \"#utility.yul\":3058:3111   */\n      tag_69\n      jump\t// in\n    tag_122:\n        /* \"#utility.yul\":3048:3111   */\n      swap2\n      pop\n        /* \"#utility.yul\":3004:3121   */\n      pop\n        /* \"#utility.yul\":2799:3128   */\n      swap3\n      swap2\n      pop\n      pop\n      jump\t// out\n        /* \"#utility.yul\":3134:3230   */\n    tag_70:\n        /* \"#utility.yul\":3171:3178   */\n      0x00\n        /* \"#utility.yul\":3200:3224   */\n      tag_124\n        /* \"#utility.yul\":3218:3223   */\n      dup3\n        /* \"#utility.yul\":3200:3224   */\n      tag_67\n      jump\t// in\n    tag_124:\n        /* \"#utility.yul\":3189:3224   */\n      swap1\n      pop\n        /* \"#utility.yul\":3134:3230   */\n      swap2\n      swap1\n      pop\n      jump\t// out\n        /* \"#utility.yul\":3236:3354   */\n    tag_71:\n        /* \"#utility.yul\":3323:3347   */\n      tag_126\n        /* \"#utility.yul\":3341:3346   */\n      dup2\n        /* \"#utility.yul\":3323:3347   */\n      tag_70\n      jump\t// in\n    tag_126:\n        /* \"#utility.yul\":3318:3321   */\n      dup3\n        /* \"#utility.yul\":3311:3348   */\n      mstore\n        /* \"#utility.yul\":3236:3354   */\n      pop\n      pop\n      jump\t// out\n        /* \"#utility.yul\":3360:3582   */\n    tag_31:\n        /* \"#utility.yul\":3453:3457   */\n      0x00\n        /* \"#utility.yul\":3491:3493   */\n      0x20\n        /* \"#utility.yul\":3480:3489   */\n      dup3\n        /* \"#utility.yul\":3476:3494   */\n      add\n        /* \"#utility.yul\":3468:3494   */\n      swap1\n      pop\n        /* \"#utility.yul\":3504:3575   */\n      tag_128\n        /* \"#utility.yul\":3572:3573   */\n      0x00\n        /* \"#utility.yul\":3561:3570   */\n      dup4\n        /* \"#utility.yul\":3557:3574   */\n      add\n        /* \"#utility.yul\":3548:3554   */\n      dup5\n        /* \"#utility.yul\":3504:3575   */\n      tag_71\n      jump\t// in\n    tag_128:\n        /* \"#utility.yul\":3360:3582   */\n      swap3\n      swap2\n      pop\n      pop\n      jump\t// out\n        /* \"#utility.yul\":3588:3705   */\n    tag_72:\n        /* \"#utility.yul\":3697:3698   */\n      0x00\n        /* \"#utility.yul\":3694:3695   */\n      dup1\n        /* \"#utility.yul\":3687:3699   */\n      revert\n        /* \"#utility.yul\":3711:3828   */\n    tag_73:\n        /* \"#utility.yul\":3820:3821   */\n      0x00\n        /* \"#utility.yul\":3817:3818   */\n      dup1\n        /* \"#utility.yul\":3810:3822   */\n      revert\n        /* \"#utility.yul\":3834:3951   */\n    tag_74:\n        /* \"#utility.yul\":3943:3944   */\n      0x00\n        /* \"#utility.yul\":3940:3941   */\n      dup1\n        /* \"#utility.yul\":3933:3945   */\n      revert\n        /* \"#utility.yul\":3971:4524   */\n    tag_75:\n        /* \"#utility.yul\":4029:4037   */\n      0x00\n        /* \"#utility.yul\":4039:4045   */\n      dup1\n        /* \"#utility.yul\":4089:4092   */\n      dup4\n        /* \"#utility.yul\":4082:4086   */\n      0x1f\n        /* \"#utility.yul\":4074:4080   */\n      dup5\n        /* \"#utility.yul\":4070:4087   */\n      add\n        /* \"#utility.yul\":4066:4093   */\n      slt\n        /* \"#utility.yul\":4056:4178   */\n      tag_133\n      jumpi\n        /* \"#utility.yul\":4097:4176   */\n      tag_134\n      tag_72\n      jump\t// in\n    tag_134:\n        /* \"#utility.yul\":4056:4178   */\n    tag_133:\n        /* \"#utility.yul\":4210:4216   */\n      dup3\n        /* \"#utility.yul\":4197:4217   */\n      calldataload\n        /* \"#utility.yul\":4187:4217   */\n      swap1\n      pop\n        /* \"#utility.yul\":4240:4258   */\n      0xffffffffffffffff\n        /* \"#utility.yul\":4232:4238   */\n      dup2\n        /* \"#utility.yul\":4229:4259   */\n      gt\n        /* \"#utility.yul\":4226:4343   */\n      iszero\n      tag_135\n      jumpi\n        /* \"#utility.yul\":4262:4341   */\n      tag_136\n      tag_73\n      jump\t// in\n    tag_136:\n        /* \"#utility.yul\":4226:4343   */\n    tag_135:\n        /* \"#utility.yul\":4376:4380   */\n      0x20\n        /* \"#utility.yul\":4368:4374   */\n      dup4\n        /* \"#utility.yul\":4364:4381   */\n      add\n        /* \"#utility.yul\":4352:4381   */\n      swap2\n      pop\n        /* \"#utility.yul\":4430:4433   */\n      dup4\n        /* \"#utility.yul\":4422:4426   */\n      0x01\n        /* \"#utility.yul\":4414:4420   */\n      dup3\n        /* \"#utility.yul\":4410:4427   */\n      mul\n        /* \"#utility.yul\":4400:4408   */\n      dup4\n        /* \"#utility.yul\":4396:4428   */\n      add\n        /* \"#utility.yul\":4393:4434   */\n      gt\n        /* \"#utility.yul\":4390:4518   */\n      iszero\n      tag_137\n      jumpi\n        /* \"#utility.yul\":4437:4516   */\n      tag_138\n      tag_74\n      jump\t// in\n    tag_138:\n        /* \"#utility.yul\":4390:4518   */\n    tag_137:\n        /* \"#utility.yul\":3971:4524   */\n      swap3\n      pop\n      swap3\n      swap1\n      pop\n      jump\t// out\n        /* \"#utility.yul\":4530:5059   */\n    tag_34:\n        /* \"#utility.yul\":4601:4607   */\n      0x00\n        /* \"#utility.yul\":4609:4615   */\n      dup1\n        /* \"#utility.yul\":4658:4660   */\n      0x20\n        /* \"#utility.yul\":4646:4655   */\n      dup4\n        /* \"#utility.yul\":4637:4644   */\n      dup6\n        /* \"#utility.yul\":4633:4656   */\n      sub\n        /* \"#utility.yul\":4629:4661   */\n      slt\n        /* \"#utility.yul\":4626:4745   */\n      iszero\n      tag_140\n      jumpi\n        /* \"#utility.yul\":4664:4743   */\n      tag_141\n      tag_57\n      jump\t// in\n    tag_141:\n        /* \"#utility.yul\":4626:4745   */\n    tag_140:\n        /* \"#utility.yul\":4812:4813   */\n      0x00\n        /* \"#utility.yul\":4801:4810   */\n      dup4\n        /* \"#utility.yul\":4797:4814   */\n      add\n        /* \"#utility.yul\":4784:4815   */\n      calldataload\n        /* \"#utility.yul\":4842:4860   */\n      0xffffffffffffffff\n        /* \"#utility.yul\":4834:4840   */\n      dup2\n        /* \"#utility.yul\":4831:4861   */\n      gt\n        /* \"#utility.yul\":4828:4945   */\n      iszero\n      tag_142\n      jumpi\n        /* \"#utility.yul\":4864:4943   */\n      tag_143\n      tag_58\n      jump\t// in\n    tag_143:\n        /* \"#utility.yul\":4828:4945   */\n    tag_142:\n        /* \"#utility.yul\":4977:5042   */\n      tag_144\n        /* \"#utility.yul\":5034:5041   */\n      dup6\n        /* \"#utility.yul\":5025:5031   */\n      dup3\n        /* \"#utility.yul\":5014:5023   */\n      dup7\n        /* \"#utility.yul\":5010:5032   */\n      add\n        /* \"#utility.yul\":4977:5042   */\n      tag_75\n      jump\t// in\n    tag_144:\n        /* \"#utility.yul\":4959:5042   */\n      swap3\n      pop\n      swap3\n      pop\n        /* \"#utility.yul\":4755:5052   */\n      pop\n        /* \"#utility.yul\":4530:5059   */\n      swap3\n      pop\n      swap3\n      swap1\n      pop\n      jump\t// out\n        /* \"#utility.yul\":5065:5213   */\n    tag_76:\n        /* \"#utility.yul\":5167:5178   */\n      0x00\n        /* \"#utility.yul\":5204:5207   */\n      dup2\n        /* \"#utility.yul\":5189:5207   */\n      swap1\n      pop\n        /* \"#utility.yul\":5065:5213   */\n      swap3\n      swap2\n      pop\n      pop\n      jump\t// out\n        /* \"#utility.yul\":5219:5365   */\n    tag_77:\n        /* \"#utility.yul\":5316:5322   */\n      dup3\n        /* \"#utility.yul\":5311:5314   */\n      dup2\n        /* \"#utility.yul\":5306:5309   */\n      dup4\n        /* \"#utility.yul\":5293:5323   */\n      calldatacopy\n        /* \"#utility.yul\":5357:5358   */\n      0x00\n        /* \"#utility.yul\":5348:5354   */\n      dup4\n        /* \"#utility.yul\":5343:5346   */\n      dup4\n        /* \"#utility.yul\":5339:5355   */\n      add\n        /* \"#utility.yul\":5332:5359   */\n      mstore\n        /* \"#utility.yul\":5219:5365   */\n      pop\n      pop\n      pop\n      jump\t// out\n        /* \"#utility.yul\":5395:5725   */\n    tag_78:\n        /* \"#utility.yul\":5511:5514   */\n      0x00\n        /* \"#utility.yul\":5532:5621   */\n      tag_148\n        /* \"#utility.yul\":5614:5620   */\n      dup4\n        /* \"#utility.yul\":5609:5612   */\n      dup6\n        /* \"#utility.yul\":5532:5621   */\n      tag_76\n      jump\t// in\n    tag_148:\n        /* \"#utility.yul\":5525:5621   */\n      swap4\n      pop\n        /* \"#utility.yul\":5631:5687   */\n      tag_149\n        /* \"#utility.yul\":5680:5686   */\n      dup4\n        /* \"#utility.yul\":5675:5678   */\n      dup6\n        /* \"#utility.yul\":5668:5673   */\n      dup5\n        /* \"#utility.yul\":5631:5687   */\n      tag_77\n      jump\t// in\n    tag_149:\n        /* \"#utility.yul\":5712:5718   */\n      dup3\n        /* \"#utility.yul\":5707:5710   */\n      dup5\n        /* \"#utility.yul\":5703:5719   */\n      add\n        /* \"#utility.yul\":5696:5719   */\n      swap1\n      pop\n        /* \"#utility.yul\":5395:5725   */\n      swap4\n      swap3\n      pop\n      pop\n      pop\n      jump\t// out\n        /* \"#utility.yul\":5731:6026   */\n    tag_51:\n        /* \"#utility.yul\":5873:5876   */\n      0x00\n        /* \"#utility.yul\":5895:6000   */\n      tag_151\n        /* \"#utility.yul\":5996:5999   */\n      dup3\n        /* \"#utility.yul\":5987:5993   */\n      dup5\n        /* \"#utility.yul\":5979:5985   */\n      dup7\n        /* \"#utility.yul\":5895:6000   */\n      tag_78\n      jump\t// in\n    tag_151:\n        /* \"#utility.yul\":5888:6000   */\n      swap2\n      pop\n        /* \"#utility.yul\":6017:6020   */\n      dup2\n        /* \"#utility.yul\":6010:6020   */\n      swap1\n      pop\n        /* \"#utility.yul\":5731:6026   */\n      swap4\n      swap3\n      pop\n      pop\n      pop\n      jump\t// out\n        /* \"#utility.yul\":6032:6146   */\n    tag_79:\n      pop\n      jump\t// out\n        /* \"#utility.yul\":6152:6552   */\n    tag_80:\n        /* \"#utility.yul\":6312:6315   */\n      0x00\n        /* \"#utility.yul\":6333:6417   */\n      tag_154\n        /* \"#utility.yul\":6415:6416   */\n      0x00\n        /* \"#utility.yul\":6410:6413   */\n      dup4\n        /* \"#utility.yul\":6333:6417   */\n      tag_76\n      jump\t// in\n    tag_154:\n        /* \"#utility.yul\":6326:6417   */\n      swap2\n      pop\n        /* \"#utility.yul\":6426:6519   */\n      tag_155\n        /* \"#utility.yul\":6515:6518   */\n      dup3\n        /* \"#utility.yul\":6426:6519   */\n      tag_79\n      jump\t// in\n    tag_155:\n        /* \"#utility.yul\":6544:6545   */\n      0x00\n        /* \"#utility.yul\":6539:6542   */\n      dup3\n        /* \"#utility.yul\":6535:6546   */\n      add\n        /* \"#utility.yul\":6528:6546   */\n      swap1\n      pop\n        /* \"#utility.yul\":6152:6552   */\n      swap2\n      swap1\n      pop\n      jump\t// out\n        /* \"#utility.yul\":6558:6939   */\n    tag_53:\n        /* \"#utility.yul\":6743:6746   */\n      0x00\n        /* \"#utility.yul\":6765:6913   */\n      tag_157\n        /* \"#utility.yul\":6909:6912   */\n      dup3\n        /* \"#utility.yul\":6765:6913   */\n      tag_80\n      jump\t// in\n    tag_157:\n        /* \"#utility.yul\":6758:6913   */\n      swap2\n      pop\n        /* \"#utility.yul\":6930:6933   */\n      dup2\n        /* \"#utility.yul\":6923:6933   */\n      swap1\n      pop\n        /* \"#utility.yul\":6558:6939   */\n      swap2\n      swap1\n      pop\n      jump\t// out\n\n    auxdata: 0xa2646970667358221220fbe74c450374d3beacb45c09fb75c3b78acfc4c4b20b198067deff787865554a64736f6c63430008170033\n}\n",
				"bytecode": {
					"linkReferences": {},
					"object": "608060405234801561001057600080fd5b506105ae806100206000396000f3fe608060405234801561001057600080fd5b506004361061007d5760003560e01c8063733b5a581161005b578063733b5a581461010057806398a365a914610130578063b118060e14610160578063d95660be146101905761007d565b806334d4a46a1461008257806335b93311146100b25780634ebcd472146100d0575b600080fd5b61009c6004803603810190610097919061029a565b6101ae565b6040516100a991906102d6565b60405180910390f35b6100ba6101be565b6040516100c7919061030a565b60405180910390f35b6100ea60048036038101906100e59190610351565b6101c6565b6040516100f791906102d6565b60405180910390f35b61011a600480360381019061011591906103ca565b6101d9565b6040516101279190610418565b60405180910390f35b61014a60048036038101906101459190610498565b6101e8565b60405161015791906102d6565b60405180910390f35b61017a60048036038101906101759190610498565b610242565b604051610187919061030a565b60405180910390f35b610198610250565b6040516101a5919061030a565b60405180910390f35b6000801515821515149050919050565b60003a905090565b60006101d0610250565b82119050919050565b60008082905080915050919050565b600082826040516020016101fd929190610524565b6040516020818303038152906040528051906020012060405160200161022290610563565b604051602081830303815290604052805190602001201415905092915050565b600082829050905092915050565b600042905090565b600080fd5b600080fd5b60008115159050919050565b61027781610262565b811461028257600080fd5b50565b6000813590506102948161026e565b92915050565b6000602082840312156102b0576102af610258565b5b60006102be84828501610285565b91505092915050565b6102d081610262565b82525050565b60006020820190506102eb60008301846102c7565b92915050565b6000819050919050565b610304816102f1565b82525050565b600060208201905061031f60008301846102fb565b92915050565b61032e816102f1565b811461033957600080fd5b50565b60008135905061034b81610325565b92915050565b60006020828403121561036757610366610258565b5b60006103758482850161033c565b91505092915050565b600073ffffffffffffffffffffffffffffffffffffffff82169050919050565b6103a78161037e565b81146103b257600080fd5b50565b6000813590506103c48161039e565b92915050565b6000602082840312156103e0576103df610258565b5b60006103ee848285016103b5565b91505092915050565b60006104028261037e565b9050919050565b610412816103f7565b82525050565b600060208201905061042d6000830184610409565b92915050565b600080fd5b600080fd5b600080fd5b60008083601f84011261045857610457610433565b5b8235905067ffffffffffffffff81111561047557610474610438565b5b6020830191508360018202830111156104915761049061043d565b5b9250929050565b600080602083850312156104af576104ae610258565b5b600083013567ffffffffffffffff8111156104cd576104cc61025d565b5b6104d985828601610442565b92509250509250929050565b600081905092915050565b82818337600083830152505050565b600061050b83856104e5565b93506105188385846104f0565b82840190509392505050565b60006105318284866104ff565b91508190509392505050565b50565b600061054d6000836104e5565b91506105588261053d565b600082019050919050565b600061056e82610540565b915081905091905056fea2646970667358221220fbe74c450374d3beacb45c09fb75c3b78acfc4c4b20b198067deff787865554a64736f6c63430008170033",
					"opcodes": "PUSH1 0x80 PUSH1 0x40 MSTORE CALLVALUE DUP1 ISZERO PUSH2 0x10 JUMPI PUSH1 0x0 DUP1 REVERT JUMPDEST POP PUSH2 0x5AE DUP1 PUSH2 0x20 PUSH1 0x0 CODECOPY PUSH1 0x0 RETURN INVALID PUSH1 0x80 PUSH1 0x40 MSTORE CALLVALUE DUP1 ISZERO PUSH2 0x10 JUMPI PUSH1 0x0 DUP1 REVERT JUMPDEST POP PUSH1 0x4 CALLDATASIZE LT PUSH2 0x7D JUMPI PUSH1 0x0 CALLDATALOAD PUSH1 0xE0 SHR DUP1 PUSH4 0x733B5A58 GT PUSH2 0x5B JUMPI DUP1 PUSH4 0x733B5A58 EQ PUSH2 0x100 JUMPI DUP1 PUSH4 0x98A365A9 EQ PUSH2 0x130 JUMPI DUP1 PUSH4 0xB118060E EQ PUSH2 0x160 JUMPI DUP1 PUSH4 0xD95660BE EQ PUSH2 0x190 JUMPI PUSH2 0x7D JUMP JUMPDEST DUP1 PUSH4 0x34D4A46A EQ PUSH2 0x82 JUMPI DUP1 PUSH4 0x35B93311 EQ PUSH2 0xB2 JUMPI DUP1 PUSH4 0x4EBCD472 EQ PUSH2 0xD0 JUMPI JUMPDEST PUSH1 0x0 DUP1 REVERT JUMPDEST PUSH2 0x9C PUSH1 0x4 DUP1 CALLDATASIZE SUB DUP2 ADD SWAP1 PUSH2 0x97 SWAP2 SWAP1 PUSH2 0x29A JUMP JUMPDEST PUSH2 0x1AE JUMP JUMPDEST PUSH1 0x40 MLOAD PUSH2 0xA9 SWAP2 SWAP1 PUSH2 0x2D6 JUMP JUMPDEST PUSH1 0x40 MLOAD DUP1 SWAP2 SUB SWAP1 RETURN JUMPDEST PUSH2 0xBA PUSH2 0x1BE JUMP JUMPDEST PUSH1 0x40 MLOAD PUSH2 0xC7 SWAP2 SWAP1 PUSH2 0x30A JUMP JUMPDEST PUSH1 0x40 MLOAD DUP1 SWAP2 SUB SWAP1 RETURN JUMPDEST PUSH2 0xEA PUSH1 0x4 DUP1 CALLDATASIZE SUB DUP2 ADD SWAP1 PUSH2 0xE5 SWAP2 SWAP1 PUSH2 0x351 JUMP JUMPDEST PUSH2 0x1C6 JUMP JUMPDEST PUSH1 0x40 MLOAD PUSH2 0xF7 SWAP2 SWAP1 PUSH2 0x2D6 JUMP JUMPDEST PUSH1 0x40 MLOAD DUP1 SWAP2 SUB SWAP1 RETURN JUMPDEST PUSH2 0x11A PUSH1 0x4 DUP1 CALLDATASIZE SUB DUP2 ADD SWAP1 PUSH2 0x115 SWAP2 SWAP1 PUSH2 0x3CA JUMP JUMPDEST PUSH2 0x1D9 JUMP JUMPDEST PUSH1 0x40 MLOAD PUSH2 0x127 SWAP2 SWAP1 PUSH2 0x418 JUMP JUMPDEST PUSH1 0x40 MLOAD DUP1 SWAP2 SUB SWAP1 RETURN JUMPDEST PUSH2 0x14A PUSH1 0x4 DUP1 CALLDATASIZE SUB DUP2 ADD SWAP1 PUSH2 0x145 SWAP2 SWAP1 PUSH2 0x498 JUMP JUMPDEST PUSH2 0x1E8 JUMP JUMPDEST PUSH1 0x40 MLOAD PUSH2 0x157 SWAP2 SWAP1 PUSH2 0x2D6 JUMP JUMPDEST PUSH1 0x40 MLOAD DUP1 SWAP2 SUB SWAP1 RETURN JUMPDEST PUSH2 0x17A PUSH1 0x4 DUP1 CALLDATASIZE SUB DUP2 ADD SWAP1 PUSH2 0x175 SWAP2 SWAP1 PUSH2 0x498 JUMP JUMPDEST PUSH2 0x242 JUMP JUMPDEST PUSH1 0x40 MLOAD PUSH2 0x187 SWAP2 SWAP1 PUSH2 0x30A JUMP JUMPDEST PUSH1 0x40 MLOAD DUP1 SWAP2 SUB SWAP1 RETURN JUMPDEST PUSH2 0x198 PUSH2 0x250 JUMP JUMPDEST PUSH1 0x40 MLOAD PUSH2 0x1A5 SWAP2 SWAP1 PUSH2 0x30A JUMP JUMPDEST PUSH1 0x40 MLOAD DUP1 SWAP2 SUB SWAP1 RETURN JUMPDEST PUSH1 0x0 DUP1 ISZERO ISZERO DUP3 ISZERO ISZERO EQ SWAP1 POP SWAP2 SWAP1 POP JUMP JUMPDEST PUSH1 0x0 GASPRICE SWAP1 POP SWAP1 JUMP JUMPDEST PUSH1 0x0 PUSH2 0x1D0 PUSH2 0x250 JUMP JUMPDEST DUP3 GT SWAP1 POP SWAP2 SWAP1 POP JUMP JUMPDEST PUSH1 0x0 DUP1 DUP3 SWAP1 POP DUP1 SWAP2 POP POP SWAP2 SWAP1 POP JUMP JUMPDEST PUSH1 0x0 DUP3 DUP3 PUSH1 0x40 MLOAD PUSH1 0x20 ADD PUSH2 0x1FD SWAP3 SWAP2 SWAP1 PUSH2 0x524 JUMP JUMPDEST PUSH1 0x40 MLOAD PUSH1 0x20 DUP2 DUP4 SUB SUB DUP2 MSTORE SWAP1 PUSH1 0x40 MSTORE DUP1 MLOAD SWAP1 PUSH1 0x20 ADD KECCAK256 PUSH1 0x40 MLOAD PUSH1 0x20 ADD PUSH2 0x222 SWAP1 PUSH2 0x563 JUMP JUMPDEST PUSH1 0x40 MLOAD PUSH1 0x20 DUP2 DUP4 SUB SUB DUP2 MSTORE SWAP1 PUSH1 0x40 MSTORE DUP1 MLOAD SWAP1 PUSH1 0x20 ADD KECCAK256 EQ ISZERO SWAP1 POP SWAP3 SWAP2 POP POP JUMP JUMPDEST PUSH1 0x0 DUP3 DUP3 SWAP1 POP SWAP1 POP SWAP3 SWAP2 POP POP JUMP JUMPDEST PUSH1 0x0 TIMESTAMP SWAP1 POP SWAP1 JUMP JUMPDEST PUSH1 0x0 DUP1 REVERT JUMPDEST PUSH1 0x0 DUP1 REVERT JUMPDEST PUSH1 0x0 DUP2 ISZERO ISZERO SWAP1 POP SWAP2 SWAP1 POP JUMP JUMPDEST PUSH2 0x277 DUP2 PUSH2 0x262 JUMP JUMPDEST DUP2 EQ PUSH2 0x282 JUMPI PUSH1 0x0 DUP1 REVERT JUMPDEST POP JUMP JUMPDEST PUSH1 0x0 DUP2 CALLDATALOAD SWAP1 POP PUSH2 0x294 DUP2 PUSH2 0x26E JUMP JUMPDEST SWAP3 SWAP2 POP POP JUMP JUMPDEST PUSH1 0x0 PUSH1 0x20 DUP3 DUP5 SUB SLT ISZERO PUSH2 0x2B0 JUMPI PUSH2 0x2AF PUSH2 0x258 JUMP JUMPDEST JUMPDEST PUSH1 0x0 PUSH2 0x2BE DUP5 DUP3 DUP6 ADD PUSH2 0x285 JUMP JUMPDEST SWAP2 POP POP SWAP3 SWAP2 POP POP JUMP JUMPDEST PUSH2 0x2D0 DUP2 PUSH2 0x262 JUMP JUMPDEST DUP3 MSTORE POP POP JUMP JUMPDEST PUSH1 0x0 PUSH1 0x20 DUP3 ADD SWAP1 POP PUSH2 0x2EB PUSH1 0x0 DUP4 ADD DUP5 PUSH2 0x2C7 JUMP JUMPDEST SWAP3 SWAP2 POP POP JUMP JUMPDEST PUSH1 0x0 DUP2 SWAP1 POP SWAP2 SWAP1 POP JUMP JUMPDEST PUSH2 0x304 DUP2 PUSH2 0x2F1 JUMP JUMPDEST DUP3 MSTORE POP POP JUMP JUMPDEST PUSH1 0x0 PUSH1 0x20 DUP3 ADD SWAP1 POP PUSH2 0x31F PUSH1 0x0 DUP4 ADD DUP5 PUSH2 0x2FB JUMP JUMPDEST SWAP3 SWAP2 POP POP JUMP JUMPDEST PUSH2 0x32E DUP2 PUSH2 0x2F1 JUMP JUMPDEST DUP2 EQ PUSH2 0x339 JUMPI PUSH1 0x0 DUP1 REVERT JUMPDEST POP JUMP JUMPDEST PUSH1 0x0 DUP2 CALLDATALOAD SWAP1 POP PUSH2 0x34B DUP2 PUSH2 0x325 JUMP JUMPDEST SWAP3 SWAP2 POP POP JUMP JUMPDEST PUSH1 0x0 PUSH1 0x20 DUP3 DUP5 SUB SLT ISZERO PUSH2 0x367 JUMPI PUSH2 0x366 PUSH2 0x258 JUMP JUMPDEST JUMPDEST PUSH1 0x0 PUSH2 0x375 DUP5 DUP3 DUP6 ADD PUSH2 0x33C JUMP JUMPDEST SWAP2 POP POP SWAP3 SWAP2 POP POP JUMP JUMPDEST PUSH1 0x0 PUSH20 0xFFFFFFFFFFFFFFFFFFFFFFFFFFFFFFFFFFFFFFFF DUP3 AND SWAP1 POP SWAP2 SWAP1 POP JUMP JUMPDEST PUSH2 0x3A7 DUP2 PUSH2 0x37E JUMP JUMPDEST DUP2 EQ PUSH2 0x3B2 JUMPI PUSH1 0x0 DUP1 REVERT JUMPDEST POP JUMP JUMPDEST PUSH1 0x0 DUP2 CALLDATALOAD SWAP1 POP PUSH2 0x3C4 DUP2 PUSH2 0x39E JUMP JUMPDEST SWAP3 SWAP2 POP POP JUMP JUMPDEST PUSH1 0x0 PUSH1 0x20 DUP3 DUP5 SUB SLT ISZERO PUSH2 0x3E0 JUMPI PUSH2 0x3DF PUSH2 0x258 JUMP JUMPDEST JUMPDEST PUSH1 0x0 PUSH2 0x3EE DUP5 DUP3 DUP6 ADD PUSH2 0x3B5 JUMP JUMPDEST SWAP2 POP POP SWAP3 SWAP2 POP POP JUMP JUMPDEST PUSH1 0x0 PUSH2 0x402 DUP3 PUSH2 0x37E JUMP JUMPDEST SWAP1 POP SWAP2 SWAP1 POP JUMP JUMPDEST PUSH2 0x412 DUP2 PUSH2 0x3F7 JUMP JUMPDEST DUP3 MSTORE POP POP JUMP JUMPDEST PUSH1 0x0 PUSH1 0x20 DUP3 ADD SWAP1 POP PUSH2 0x42D PUSH1 0x0 DUP4 ADD DUP5 PUSH2 0x409 JUMP JUMPDEST SWAP3 SWAP2 POP POP JUMP JUMPDEST PUSH1 0x0 DUP1 REVERT JUMPDEST PUSH1 0x0 DUP1 REVERT JUMPDEST PUSH1 0x0 DUP1 REVERT JUMPDEST PUSH1 0x0 DUP1 DUP4 PUSH1 0x1F DUP5 ADD SLT PUSH2 0x458 JUMPI PUSH2 0x457 PUSH2 0x433 JUMP JUMPDEST JUMPDEST DUP3 CALLDATALOAD SWAP1 POP PUSH8 0xFFFFFFFFFFFFFFFF DUP2 GT ISZERO PUSH2 0x475 JUMPI PUSH2 0x474 PUSH2 0x438 JUMP JUMPDEST JUMPDEST PUSH1 0x20 DUP4 ADD SWAP2 POP DUP4 PUSH1 0x1 DUP3 MUL DUP4 ADD GT ISZERO PUSH2 0x491 JUMPI PUSH2 0x490 PUSH2 0x43D JUMP JUMPDEST JUMPDEST SWAP3 POP SWAP3 SWAP1 POP JUMP JUMPDEST PUSH1 0x0 DUP1 PUSH1 0x20 DUP4 DUP6 SUB SLT ISZERO PUSH2 0x4AF JUMPI PUSH2 0x4AE PUSH2 0x258 JUMP JUMPDEST JUMPDEST PUSH1 0x0 DUP4 ADD CALLDATALOAD PUSH8 0xFFFFFFFFFFFFFFFF DUP2 GT ISZERO PUSH2 0x4CD JUMPI PUSH2 0x4CC PUSH2 0x25D JUMP JUMPDEST JUMPDEST PUSH2 0x4D9 DUP6 DUP3 DUP7 ADD PUSH2 0x442 JUMP JUMPDEST SWAP3 POP SWAP3 POP POP SWAP3 POP SWAP3 SWAP1 POP JUMP JUMPDEST PUSH1 0x0 DUP2 SWAP1 POP SWAP3 SWAP2 POP POP JUMP JUMPDEST DUP3 DUP2 DUP4 CALLDATACOPY PUSH1 0x0 DUP4 DUP4 ADD MSTORE POP POP POP JUMP JUMPDEST PUSH1 0x0 PUSH2 0x50B DUP4 DUP6 PUSH2 0x4E5 JUMP JUMPDEST SWAP4 POP PUSH2 0x518 DUP4 DUP6 DUP5 PUSH2 0x4F0 JUMP JUMPDEST DUP3 DUP5 ADD SWAP1 POP SWAP4 SWAP3 POP POP POP JUMP JUMPDEST PUSH1 0x0 PUSH2 0x531 DUP3 DUP5 DUP7 PUSH2 0x4FF JUMP JUMPDEST SWAP2 POP DUP2 SWAP1 POP SWAP4 SWAP3 POP POP POP JUMP JUMPDEST POP JUMP JUMPDEST PUSH1 0x0 PUSH2 0x54D PUSH1 0x0 DUP4 PUSH2 0x4E5 JUMP JUMPDEST SWAP2 POP PUSH2 0x558 DUP3 PUSH2 0x53D JUMP JUMPDEST PUSH1 0x0 DUP3 ADD SWAP1 POP SWAP2 SWAP1 POP JUMP JUMPDEST PUSH1 0x0 PUSH2 0x56E DUP3 PUSH2 0x540 JUMP JUMPDEST SWAP2 POP DUP2 SWAP1 POP SWAP2 SWAP1 POP JUMP INVALID LOG2 PUSH5 0x6970667358 0x22 SLT KECCAK256 0xFB 0xE7 0x4C GASLIMIT SUB PUSH21 0xD3BEACB45C09FB75C3B78ACFC4C4B20B198067DEFF PUSH25 0x7865554A64736F6C6343000817003300000000000000000000 "
				},
				"gasEstimates": {
					"creation": {
						"codeDepositCost": "290800",
						"executionCost": "331",
						"totalCost": "291131"
					},
					"external": {
						"checkBool(bool)": "infinite",
						"checkTimediff(uint256)": "693",
						"gasss()": "359",
						"generateAddress(uint160)": "infinite",
						"stringCompare(string)": "infinite",
						"stringLength(string)": "722",
						"timeNow()": "402"
					}
				},
				"methodIdentifiers": {
					"checkBool(bool)": "34d4a46a",
					"checkTimediff(uint256)": "4ebcd472",
					"gasss()": "35b93311",
					"generateAddress(uint160)": "733b5a58",
					"stringCompare(string)": "98a365a9",
					"stringLength(string)": "b118060e",
					"timeNow()": "d95660be"
				}
			},
			"storageLayout": {
				"storage": [],
				"types": null
			},
			"userdoc": {
				"kind": "user",
				"methods": {},
				"version": 1
			}
		}
	}
}