{
	"ptrn_eco_system_dev_contracts/poolPriceFeed.sol": {
		"RateFromPool": {
			"abi": [
				{
					"inputs": [],
					"name": "PoolRate",
					"outputs": [
						{
							"internalType": "uint256",
							"name": "",
							"type": "uint256"
						},
						{
							"internalType": "uint256",
							"name": "",
							"type": "uint256"
						},
						{
							"internalType": "string",
							"name": "",
							"type": "string"
						},
						{
							"internalType": "uint256",
							"name": "",
							"type": "uint256"
						}
					],
					"stateMutability": "nonpayable",
					"type": "function"
				},
				{
					"inputs": [
						{
							"internalType": "address",
							"name": "_poolConsumerInterfaceAddress",
							"type": "address"
						}
					],
					"name": "addPoolFeed",
					"outputs": [],
					"stateMutability": "nonpayable",
					"type": "function"
				}
			],
			"devdoc": {
				"kind": "dev",
				"methods": {},
				"version": 1
			},
			"evm": {
				"assembly": "    /* \"ptrn_eco_system_dev_contracts/poolPriceFeed.sol\":438:2661  contract RateFromPool {... */\n  mstore(0x40, 0x80)\n  callvalue\n  dup1\n  iszero\n  tag_1\n  jumpi\n  0x00\n  dup1\n  revert\ntag_1:\n  pop\n  dataSize(sub_0)\n  dup1\n  dataOffset(sub_0)\n  0x00\n  codecopy\n  0x00\n  return\nstop\n\nsub_0: assembly {\n        /* \"ptrn_eco_system_dev_contracts/poolPriceFeed.sol\":438:2661  contract RateFromPool {... */\n      mstore(0x40, 0x80)\n      callvalue\n      dup1\n      iszero\n      tag_1\n      jumpi\n      0x00\n      dup1\n      revert\n    tag_1:\n      pop\n      jumpi(tag_2, lt(calldatasize, 0x04))\n      shr(0xe0, calldataload(0x00))\n      dup1\n      0x454d1256\n      eq\n      tag_3\n      jumpi\n      dup1\n      0xcd5ea1c6\n      eq\n      tag_4\n      jumpi\n    tag_2:\n      0x00\n      dup1\n      revert\n        /* \"ptrn_eco_system_dev_contracts/poolPriceFeed.sol\":767:1632  function PoolRate() public returns (uint256, uint256, string memory, uint256) {... */\n    tag_3:\n      tag_5\n      tag_6\n      jump\t// in\n    tag_5:\n      mload(0x40)\n      tag_7\n      swap5\n      swap4\n      swap3\n      swap2\n      swap1\n      tag_8\n      jump\t// in\n    tag_7:\n      mload(0x40)\n      dup1\n      swap2\n      sub\n      swap1\n      return\n        /* \"ptrn_eco_system_dev_contracts/poolPriceFeed.sol\":587:760  function addPoolFeed(address _poolConsumerInterfaceAddress)... */\n    tag_4:\n      tag_9\n      0x04\n      dup1\n      calldatasize\n      sub\n      dup2\n      add\n      swap1\n      tag_10\n      swap2\n      swap1\n      tag_11\n      jump\t// in\n    tag_10:\n      tag_12\n      jump\t// in\n    tag_9:\n      stop\n        /* \"ptrn_eco_system_dev_contracts/poolPriceFeed.sol\":767:1632  function PoolRate() public returns (uint256, uint256, string memory, uint256) {... */\n    tag_6:\n        /* \"ptrn_eco_system_dev_contracts/poolPriceFeed.sol\":803:810  uint256 */\n      0x00\n        /* \"ptrn_eco_system_dev_contracts/poolPriceFeed.sol\":812:819  uint256 */\n      dup1\n        /* \"ptrn_eco_system_dev_contracts/poolPriceFeed.sol\":821:834  string memory */\n      0x60\n        /* \"ptrn_eco_system_dev_contracts/poolPriceFeed.sol\":836:843  uint256 */\n      0x00\n        /* \"ptrn_eco_system_dev_contracts/poolPriceFeed.sol\":856:872  uint256 tokenOne */\n      dup1\n        /* \"ptrn_eco_system_dev_contracts/poolPriceFeed.sol\":874:890  uint256 tokenTwo */\n      0x00\n        /* \"ptrn_eco_system_dev_contracts/poolPriceFeed.sol\":892:903  uint32 date */\n      dup1\n        /* \"ptrn_eco_system_dev_contracts/poolPriceFeed.sol\":907:919  poolConsumer */\n      0x00\n      dup1\n      sload\n      swap1\n      0x0100\n      exp\n      swap1\n      div\n      0xffffffffffffffffffffffffffffffffffffffff\n      and\n        /* \"ptrn_eco_system_dev_contracts/poolPriceFeed.sol\":907:931  poolConsumer.getReserves */\n      0xffffffffffffffffffffffffffffffffffffffff\n      and\n      0x0902f1ac\n        /* \"ptrn_eco_system_dev_contracts/poolPriceFeed.sol\":907:933  poolConsumer.getReserves() */\n      mload(0x40)\n      dup2\n      0xffffffff\n      and\n      0xe0\n      shl\n      dup2\n      mstore\n      0x04\n      add\n      0x60\n      mload(0x40)\n      dup1\n      dup4\n      sub\n      dup2\n      0x00\n      dup8\n      gas\n      call\n      iszero\n      dup1\n      iszero\n      tag_15\n      jumpi\n      returndatasize\n      0x00\n      dup1\n      returndatacopy\n      revert(0x00, returndatasize)\n    tag_15:\n      pop\n      pop\n      pop\n      pop\n      mload(0x40)\n      returndatasize\n      not(0x1f)\n      0x1f\n      dup3\n      add\n      and\n      dup3\n      add\n      dup1\n      0x40\n      mstore\n      pop\n      dup2\n      add\n      swap1\n      tag_16\n      swap2\n      swap1\n      tag_17\n      jump\t// in\n    tag_16:\n        /* \"ptrn_eco_system_dev_contracts/poolPriceFeed.sol\":855:933  (uint256 tokenOne, uint256 tokenTwo, uint32 date) = poolConsumer.getReserves() */\n      swap3\n      pop\n      0xffffffffffffffffffffffffffff\n      and\n      swap3\n      pop\n      0xffffffffffffffffffffffffffff\n      and\n      swap3\n      pop\n        /* \"ptrn_eco_system_dev_contracts/poolPriceFeed.sol\":943:966  address tokenOneAddress */\n      0x00\n        /* \"ptrn_eco_system_dev_contracts/poolPriceFeed.sol\":969:981  poolConsumer */\n      dup1\n      0x00\n      swap1\n      sload\n      swap1\n      0x0100\n      exp\n      swap1\n      div\n      0xffffffffffffffffffffffffffffffffffffffff\n      and\n        /* \"ptrn_eco_system_dev_contracts/poolPriceFeed.sol\":969:988  poolConsumer.token0 */\n      0xffffffffffffffffffffffffffffffffffffffff\n      and\n      0x0dfe1681\n        /* \"ptrn_eco_system_dev_contracts/poolPriceFeed.sol\":969:990  poolConsumer.token0() */\n      mload(0x40)\n      dup2\n      0xffffffff\n      and\n      0xe0\n      shl\n      dup2\n      mstore\n      0x04\n      add\n      0x20\n      mload(0x40)\n      dup1\n      dup4\n      sub\n      dup2\n      0x00\n      dup8\n      gas\n      call\n      iszero\n      dup1\n      iszero\n      tag_19\n      jumpi\n      returndatasize\n      0x00\n      dup1\n      returndatacopy\n      revert(0x00, returndatasize)\n    tag_19:\n      pop\n      pop\n      pop\n      pop\n      mload(0x40)\n      returndatasize\n      not(0x1f)\n      0x1f\n      dup3\n      add\n      and\n      dup3\n      add\n      dup1\n      0x40\n      mstore\n      pop\n      dup2\n      add\n      swap1\n      tag_20\n      swap2\n      swap1\n      tag_21\n      jump\t// in\n    tag_20:\n        /* \"ptrn_eco_system_dev_contracts/poolPriceFeed.sol\":943:990  address tokenOneAddress = poolConsumer.token0() */\n      swap1\n      pop\n        /* \"ptrn_eco_system_dev_contracts/poolPriceFeed.sol\":1000:1023  address tokenTwoAddress */\n      0x00\n        /* \"ptrn_eco_system_dev_contracts/poolPriceFeed.sol\":1026:1038  poolConsumer */\n      dup1\n      0x00\n      swap1\n      sload\n      swap1\n      0x0100\n      exp\n      swap1\n      div\n      0xffffffffffffffffffffffffffffffffffffffff\n      and\n        /* \"ptrn_eco_system_dev_contracts/poolPriceFeed.sol\":1026:1045  poolConsumer.token1 */\n      0xffffffffffffffffffffffffffffffffffffffff\n      and\n      0xd21220a7\n        /* \"ptrn_eco_system_dev_contracts/poolPriceFeed.sol\":1026:1047  poolConsumer.token1() */\n      mload(0x40)\n      dup2\n      0xffffffff\n      and\n      0xe0\n      shl\n      dup2\n      mstore\n      0x04\n      add\n      0x20\n      mload(0x40)\n      dup1\n      dup4\n      sub\n      dup2\n      0x00\n      dup8\n      gas\n      call\n      iszero\n      dup1\n      iszero\n      tag_23\n      jumpi\n      returndatasize\n      0x00\n      dup1\n      returndatacopy\n      revert(0x00, returndatasize)\n    tag_23:\n      pop\n      pop\n      pop\n      pop\n      mload(0x40)\n      returndatasize\n      not(0x1f)\n      0x1f\n      dup3\n      add\n      and\n      dup3\n      add\n      dup1\n      0x40\n      mstore\n      pop\n      dup2\n      add\n      swap1\n      tag_24\n      swap2\n      swap1\n      tag_21\n      jump\t// in\n    tag_24:\n        /* \"ptrn_eco_system_dev_contracts/poolPriceFeed.sol\":1000:1047  address tokenTwoAddress = poolConsumer.token1() */\n      swap1\n      pop\n        /* \"ptrn_eco_system_dev_contracts/poolPriceFeed.sol\":1098:1113  tokenOneAddress */\n      dup2\n        /* \"ptrn_eco_system_dev_contracts/poolPriceFeed.sol\":1058:1077  decimalsConsumerOne */\n      0x01\n      0x00\n        /* \"ptrn_eco_system_dev_contracts/poolPriceFeed.sol\":1058:1114  decimalsConsumerOne = DecimalsInterface(tokenOneAddress) */\n      0x0100\n      exp\n      dup2\n      sload\n      dup2\n      0xffffffffffffffffffffffffffffffffffffffff\n      mul\n      not\n      and\n      swap1\n      dup4\n      0xffffffffffffffffffffffffffffffffffffffff\n      and\n      mul\n      or\n      swap1\n      sstore\n      pop\n        /* \"ptrn_eco_system_dev_contracts/poolPriceFeed.sol\":1164:1179  tokenTwoAddress */\n      dup1\n        /* \"ptrn_eco_system_dev_contracts/poolPriceFeed.sol\":1124:1143  decimalsConsumerTwo */\n      0x02\n      0x00\n        /* \"ptrn_eco_system_dev_contracts/poolPriceFeed.sol\":1124:1180  decimalsConsumerTwo = DecimalsInterface(tokenTwoAddress) */\n      0x0100\n      exp\n      dup2\n      sload\n      dup2\n      0xffffffffffffffffffffffffffffffffffffffff\n      mul\n      not\n      and\n      swap1\n      dup4\n      0xffffffffffffffffffffffffffffffffffffffff\n      and\n      mul\n      or\n      swap1\n      sstore\n      pop\n        /* \"ptrn_eco_system_dev_contracts/poolPriceFeed.sol\":1190:1209  uint256 decimalsOne */\n      0x00\n        /* \"ptrn_eco_system_dev_contracts/poolPriceFeed.sol\":1212:1231  decimalsConsumerOne */\n      0x01\n      0x00\n      swap1\n      sload\n      swap1\n      0x0100\n      exp\n      swap1\n      div\n      0xffffffffffffffffffffffffffffffffffffffff\n      and\n        /* \"ptrn_eco_system_dev_contracts/poolPriceFeed.sol\":1212:1240  decimalsConsumerOne.decimals */\n      0xffffffffffffffffffffffffffffffffffffffff\n      and\n      0x313ce567\n        /* \"ptrn_eco_system_dev_contracts/poolPriceFeed.sol\":1212:1242  decimalsConsumerOne.decimals() */\n      mload(0x40)\n      dup2\n      0xffffffff\n      and\n      0xe0\n      shl\n      dup2\n      mstore\n      0x04\n      add\n      0x20\n      mload(0x40)\n      dup1\n      dup4\n      sub\n      dup2\n      0x00\n      dup8\n      gas\n      call\n      iszero\n      dup1\n      iszero\n      tag_26\n      jumpi\n      returndatasize\n      0x00\n      dup1\n      returndatacopy\n      revert(0x00, returndatasize)\n    tag_26:\n      pop\n      pop\n      pop\n      pop\n      mload(0x40)\n      returndatasize\n      not(0x1f)\n      0x1f\n      dup3\n      add\n      and\n      dup3\n      add\n      dup1\n      0x40\n      mstore\n      pop\n      dup2\n      add\n      swap1\n      tag_27\n      swap2\n      swap1\n      tag_28\n      jump\t// in\n    tag_27:\n        /* \"ptrn_eco_system_dev_contracts/poolPriceFeed.sol\":1190:1242  uint256 decimalsOne = decimalsConsumerOne.decimals() */\n      0xff\n      and\n      swap1\n      pop\n        /* \"ptrn_eco_system_dev_contracts/poolPriceFeed.sol\":1252:1271  uint256 decimalsTwo */\n      0x00\n        /* \"ptrn_eco_system_dev_contracts/poolPriceFeed.sol\":1274:1293  decimalsConsumerTwo */\n      0x02\n      0x00\n      swap1\n      sload\n      swap1\n      0x0100\n      exp\n      swap1\n      div\n      0xffffffffffffffffffffffffffffffffffffffff\n      and\n        /* \"ptrn_eco_system_dev_contracts/poolPriceFeed.sol\":1274:1302  decimalsConsumerTwo.decimals */\n      0xffffffffffffffffffffffffffffffffffffffff\n      and\n      0x313ce567\n        /* \"ptrn_eco_system_dev_contracts/poolPriceFeed.sol\":1274:1304  decimalsConsumerTwo.decimals() */\n      mload(0x40)\n      dup2\n      0xffffffff\n      and\n      0xe0\n      shl\n      dup2\n      mstore\n      0x04\n      add\n      0x20\n      mload(0x40)\n      dup1\n      dup4\n      sub\n      dup2\n      0x00\n      dup8\n      gas\n      call\n      iszero\n      dup1\n      iszero\n      tag_30\n      jumpi\n      returndatasize\n      0x00\n      dup1\n      returndatacopy\n      revert(0x00, returndatasize)\n    tag_30:\n      pop\n      pop\n      pop\n      pop\n      mload(0x40)\n      returndatasize\n      not(0x1f)\n      0x1f\n      dup3\n      add\n      and\n      dup3\n      add\n      dup1\n      0x40\n      mstore\n      pop\n      dup2\n      add\n      swap1\n      tag_31\n      swap2\n      swap1\n      tag_28\n      jump\t// in\n    tag_31:\n        /* \"ptrn_eco_system_dev_contracts/poolPriceFeed.sol\":1252:1304  uint256 decimalsTwo = decimalsConsumerTwo.decimals() */\n      0xff\n      and\n      swap1\n      pop\n        /* \"ptrn_eco_system_dev_contracts/poolPriceFeed.sol\":1314:1335  string memory nameOne */\n      0x00\n        /* \"ptrn_eco_system_dev_contracts/poolPriceFeed.sol\":1338:1357  decimalsConsumerOne */\n      0x01\n      0x00\n      swap1\n      sload\n      swap1\n      0x0100\n      exp\n      swap1\n      div\n      0xffffffffffffffffffffffffffffffffffffffff\n      and\n        /* \"ptrn_eco_system_dev_contracts/poolPriceFeed.sol\":1338:1362  decimalsConsumerOne.name */\n      0xffffffffffffffffffffffffffffffffffffffff\n      and\n      0x06fdde03\n        /* \"ptrn_eco_system_dev_contracts/poolPriceFeed.sol\":1338:1364  decimalsConsumerOne.name() */\n      mload(0x40)\n      dup2\n      0xffffffff\n      and\n      0xe0\n      shl\n      dup2\n      mstore\n      0x04\n      add\n      0x00\n      mload(0x40)\n      dup1\n      dup4\n      sub\n      dup2\n      0x00\n      dup8\n      gas\n      call\n      iszero\n      dup1\n      iszero\n      tag_33\n      jumpi\n      returndatasize\n      0x00\n      dup1\n      returndatacopy\n      revert(0x00, returndatasize)\n    tag_33:\n      pop\n      pop\n      pop\n      pop\n      mload(0x40)\n      returndatasize\n      0x00\n      dup3\n      returndatacopy\n      returndatasize\n      not(0x1f)\n      0x1f\n      dup3\n      add\n      and\n      dup3\n      add\n      dup1\n      0x40\n      mstore\n      pop\n      dup2\n      add\n      swap1\n      tag_34\n      swap2\n      swap1\n      tag_35\n      jump\t// in\n    tag_34:\n        /* \"ptrn_eco_system_dev_contracts/poolPriceFeed.sol\":1314:1364  string memory nameOne = decimalsConsumerOne.name() */\n      swap1\n      pop\n        /* \"ptrn_eco_system_dev_contracts/poolPriceFeed.sol\":1374:1395  string memory nameTwo */\n      0x00\n        /* \"ptrn_eco_system_dev_contracts/poolPriceFeed.sol\":1398:1417  decimalsConsumerTwo */\n      0x02\n      0x00\n      swap1\n      sload\n      swap1\n      0x0100\n      exp\n      swap1\n      div\n      0xffffffffffffffffffffffffffffffffffffffff\n      and\n        /* \"ptrn_eco_system_dev_contracts/poolPriceFeed.sol\":1398:1422  decimalsConsumerTwo.name */\n      0xffffffffffffffffffffffffffffffffffffffff\n      and\n      0x06fdde03\n        /* \"ptrn_eco_system_dev_contracts/poolPriceFeed.sol\":1398:1424  decimalsConsumerTwo.name() */\n      mload(0x40)\n      dup2\n      0xffffffff\n      and\n      0xe0\n      shl\n      dup2\n      mstore\n      0x04\n      add\n      0x00\n      mload(0x40)\n      dup1\n      dup4\n      sub\n      dup2\n      0x00\n      dup8\n      gas\n      call\n      iszero\n      dup1\n      iszero\n      tag_37\n      jumpi\n      returndatasize\n      0x00\n      dup1\n      returndatacopy\n      revert(0x00, returndatasize)\n    tag_37:\n      pop\n      pop\n      pop\n      pop\n      mload(0x40)\n      returndatasize\n      0x00\n      dup3\n      returndatacopy\n      returndatasize\n      not(0x1f)\n      0x1f\n      dup3\n      add\n      and\n      dup3\n      add\n      dup1\n      0x40\n      mstore\n      pop\n      dup2\n      add\n      swap1\n      tag_38\n      swap2\n      swap1\n      tag_35\n      jump\t// in\n    tag_38:\n        /* \"ptrn_eco_system_dev_contracts/poolPriceFeed.sol\":1374:1424  string memory nameTwo = decimalsConsumerTwo.name() */\n      swap1\n      pop\n        /* \"ptrn_eco_system_dev_contracts/poolPriceFeed.sol\":1443:1624  calculatePoolRate(... */\n      tag_39\n        /* \"ptrn_eco_system_dev_contracts/poolPriceFeed.sol\":1474:1482  tokenOne */\n      dup10\n        /* \"ptrn_eco_system_dev_contracts/poolPriceFeed.sol\":1496:1507  decimalsOne */\n      dup6\n        /* \"ptrn_eco_system_dev_contracts/poolPriceFeed.sol\":1521:1528  nameOne */\n      dup5\n        /* \"ptrn_eco_system_dev_contracts/poolPriceFeed.sol\":1542:1550  tokenTwo */\n      dup12\n        /* \"ptrn_eco_system_dev_contracts/poolPriceFeed.sol\":1564:1575  decimalsTwo */\n      dup8\n        /* \"ptrn_eco_system_dev_contracts/poolPriceFeed.sol\":1589:1596  nameTwo */\n      dup7\n        /* \"ptrn_eco_system_dev_contracts/poolPriceFeed.sol\":1610:1614  date */\n      dup14\n        /* \"ptrn_eco_system_dev_contracts/poolPriceFeed.sol\":1443:1460  calculatePoolRate */\n      tag_40\n        /* \"ptrn_eco_system_dev_contracts/poolPriceFeed.sol\":1443:1624  calculatePoolRate(... */\n      jump\t// in\n    tag_39:\n        /* \"ptrn_eco_system_dev_contracts/poolPriceFeed.sol\":1436:1624  return calculatePoolRate(... */\n      swap13\n      pop\n      swap13\n      pop\n      swap13\n      pop\n      swap13\n      pop\n      pop\n      pop\n      pop\n      pop\n      pop\n      pop\n      pop\n      pop\n      pop\n        /* \"ptrn_eco_system_dev_contracts/poolPriceFeed.sol\":767:1632  function PoolRate() public returns (uint256, uint256, string memory, uint256) {... */\n      swap1\n      swap2\n      swap3\n      swap4\n      jump\t// out\n        /* \"ptrn_eco_system_dev_contracts/poolPriceFeed.sol\":587:760  function addPoolFeed(address _poolConsumerInterfaceAddress)... */\n    tag_12:\n        /* \"ptrn_eco_system_dev_contracts/poolPriceFeed.sol\":714:743  _poolConsumerInterfaceAddress */\n      dup1\n        /* \"ptrn_eco_system_dev_contracts/poolPriceFeed.sol\":672:684  poolConsumer */\n      0x00\n      dup1\n        /* \"ptrn_eco_system_dev_contracts/poolPriceFeed.sol\":672:753  poolConsumer = PoolInterface(... */\n      0x0100\n      exp\n      dup2\n      sload\n      dup2\n      0xffffffffffffffffffffffffffffffffffffffff\n      mul\n      not\n      and\n      swap1\n      dup4\n      0xffffffffffffffffffffffffffffffffffffffff\n      and\n      mul\n      or\n      swap1\n      sstore\n      pop\n        /* \"ptrn_eco_system_dev_contracts/poolPriceFeed.sol\":587:760  function addPoolFeed(address _poolConsumerInterfaceAddress)... */\n      pop\n      jump\t// out\n        /* \"ptrn_eco_system_dev_contracts/poolPriceFeed.sol\":1638:2659  function calculatePoolRate(... */\n    tag_40:\n        /* \"ptrn_eco_system_dev_contracts/poolPriceFeed.sol\":1896:1903  uint256 */\n      0x00\n        /* \"ptrn_eco_system_dev_contracts/poolPriceFeed.sol\":1905:1912  uint256 */\n      dup1\n        /* \"ptrn_eco_system_dev_contracts/poolPriceFeed.sol\":1914:1927  string memory */\n      0x60\n        /* \"ptrn_eco_system_dev_contracts/poolPriceFeed.sol\":1929:1936  uint256 */\n      0x00\n        /* \"ptrn_eco_system_dev_contracts/poolPriceFeed.sol\":1985:1986  0 */\n      dup1\n        /* \"ptrn_eco_system_dev_contracts/poolPriceFeed.sol\":1962:1974  tokenOneName */\n      dup10\n        /* \"ptrn_eco_system_dev_contracts/poolPriceFeed.sol\":1956:1982  bytes(tokenOneName).length */\n      mload\n        /* \"ptrn_eco_system_dev_contracts/poolPriceFeed.sol\":1956:1986  bytes(tokenOneName).length > 0 */\n      gt\n        /* \"ptrn_eco_system_dev_contracts/poolPriceFeed.sol\":1956:2020  bytes(tokenOneName).length > 0 && bytes(tokenTwoName).length > 0 */\n      dup1\n      iszero\n      tag_43\n      jumpi\n      pop\n        /* \"ptrn_eco_system_dev_contracts/poolPriceFeed.sol\":2019:2020  0 */\n      0x00\n        /* \"ptrn_eco_system_dev_contracts/poolPriceFeed.sol\":1996:2008  tokenTwoName */\n      dup7\n        /* \"ptrn_eco_system_dev_contracts/poolPriceFeed.sol\":1990:2016  bytes(tokenTwoName).length */\n      mload\n        /* \"ptrn_eco_system_dev_contracts/poolPriceFeed.sol\":1990:2020  bytes(tokenTwoName).length > 0 */\n      gt\n        /* \"ptrn_eco_system_dev_contracts/poolPriceFeed.sol\":1956:2020  bytes(tokenOneName).length > 0 && bytes(tokenTwoName).length > 0 */\n    tag_43:\n        /* \"ptrn_eco_system_dev_contracts/poolPriceFeed.sol\":1948:2054  require(bytes(tokenOneName).length > 0 && bytes(tokenTwoName).length > 0, \"Missing input for token name!\") */\n      tag_44\n      jumpi\n      mload(0x40)\n      0x08c379a000000000000000000000000000000000000000000000000000000000\n      dup2\n      mstore\n      0x04\n      add\n      tag_45\n      swap1\n      tag_46\n      jump\t// in\n    tag_45:\n      mload(0x40)\n      dup1\n      swap2\n      sub\n      swap1\n      revert\n    tag_44:\n        /* \"ptrn_eco_system_dev_contracts/poolPriceFeed.sol\":2086:2088  18 */\n      0x12\n        /* \"ptrn_eco_system_dev_contracts/poolPriceFeed.sol\":2072:2082  decimalOne */\n      dup11\n        /* \"ptrn_eco_system_dev_contracts/poolPriceFeed.sol\":2072:2088  decimalOne <= 18 */\n      gt\n      iszero\n        /* \"ptrn_eco_system_dev_contracts/poolPriceFeed.sol\":2072:2108  decimalOne <= 18 && decimalTwo <= 18 */\n      dup1\n      iszero\n      tag_47\n      jumpi\n      pop\n        /* \"ptrn_eco_system_dev_contracts/poolPriceFeed.sol\":2106:2108  18 */\n      0x12\n        /* \"ptrn_eco_system_dev_contracts/poolPriceFeed.sol\":2092:2102  decimalTwo */\n      dup8\n        /* \"ptrn_eco_system_dev_contracts/poolPriceFeed.sol\":2092:2108  decimalTwo <= 18 */\n      gt\n      iszero\n        /* \"ptrn_eco_system_dev_contracts/poolPriceFeed.sol\":2072:2108  decimalOne <= 18 && decimalTwo <= 18 */\n    tag_47:\n        /* \"ptrn_eco_system_dev_contracts/poolPriceFeed.sol\":2064:2156  require(decimalOne <= 18 && decimalTwo <= 18, \"Decimals should be less than or equal to 18\") */\n      tag_48\n      jumpi\n      mload(0x40)\n      0x08c379a000000000000000000000000000000000000000000000000000000000\n      dup2\n      mstore\n      0x04\n      add\n      tag_49\n      swap1\n      tag_50\n      jump\t// in\n    tag_49:\n      mload(0x40)\n      dup1\n      swap2\n      sub\n      swap1\n      revert\n    tag_48:\n        /* \"ptrn_eco_system_dev_contracts/poolPriceFeed.sol\":2187:2188  0 */\n      0x00\n        /* \"ptrn_eco_system_dev_contracts/poolPriceFeed.sol\":2174:2184  decimalOne */\n      dup11\n        /* \"ptrn_eco_system_dev_contracts/poolPriceFeed.sol\":2174:2188  decimalOne > 0 */\n      gt\n        /* \"ptrn_eco_system_dev_contracts/poolPriceFeed.sol\":2174:2206  decimalOne > 0 && decimalTwo > 0 */\n      dup1\n      iszero\n      tag_51\n      jumpi\n      pop\n        /* \"ptrn_eco_system_dev_contracts/poolPriceFeed.sol\":2205:2206  0 */\n      0x00\n        /* \"ptrn_eco_system_dev_contracts/poolPriceFeed.sol\":2192:2202  decimalTwo */\n      dup8\n        /* \"ptrn_eco_system_dev_contracts/poolPriceFeed.sol\":2192:2206  decimalTwo > 0 */\n      gt\n        /* \"ptrn_eco_system_dev_contracts/poolPriceFeed.sol\":2174:2206  decimalOne > 0 && decimalTwo > 0 */\n    tag_51:\n        /* \"ptrn_eco_system_dev_contracts/poolPriceFeed.sol\":2166:2244  require(decimalOne > 0 && decimalTwo > 0, \"Decimals should be greater than 0\") */\n      tag_52\n      jumpi\n      mload(0x40)\n      0x08c379a000000000000000000000000000000000000000000000000000000000\n      dup2\n      mstore\n      0x04\n      add\n      tag_53\n      swap1\n      tag_54\n      jump\t// in\n    tag_53:\n      mload(0x40)\n      dup1\n      swap2\n      sub\n      swap1\n      revert\n    tag_52:\n        /* \"ptrn_eco_system_dev_contracts/poolPriceFeed.sol\":2273:2274  0 */\n      0x00\n        /* \"ptrn_eco_system_dev_contracts/poolPriceFeed.sol\":2262:2270  tokenOne */\n      dup12\n        /* \"ptrn_eco_system_dev_contracts/poolPriceFeed.sol\":2262:2274  tokenOne > 0 */\n      gt\n        /* \"ptrn_eco_system_dev_contracts/poolPriceFeed.sol\":2262:2290  tokenOne > 0 && tokenTwo > 0 */\n      dup1\n      iszero\n      tag_55\n      jumpi\n      pop\n        /* \"ptrn_eco_system_dev_contracts/poolPriceFeed.sol\":2289:2290  0 */\n      0x00\n        /* \"ptrn_eco_system_dev_contracts/poolPriceFeed.sol\":2278:2286  tokenTwo */\n      dup9\n        /* \"ptrn_eco_system_dev_contracts/poolPriceFeed.sol\":2278:2290  tokenTwo > 0 */\n      gt\n        /* \"ptrn_eco_system_dev_contracts/poolPriceFeed.sol\":2262:2290  tokenOne > 0 && tokenTwo > 0 */\n    tag_55:\n        /* \"ptrn_eco_system_dev_contracts/poolPriceFeed.sol\":2254:2332  require(tokenOne > 0 && tokenTwo > 0, \"Token values should be greater than 0\") */\n      tag_56\n      jumpi\n      mload(0x40)\n      0x08c379a000000000000000000000000000000000000000000000000000000000\n      dup2\n      mstore\n      0x04\n      add\n      tag_57\n      swap1\n      tag_58\n      jump\t// in\n    tag_57:\n      mload(0x40)\n      dup1\n      swap2\n      sub\n      swap1\n      revert\n    tag_56:\n        /* \"ptrn_eco_system_dev_contracts/poolPriceFeed.sol\":2368:2378  decimalTwo */\n      dup7\n        /* \"ptrn_eco_system_dev_contracts/poolPriceFeed.sol\":2355:2365  decimalOne */\n      dup11\n        /* \"ptrn_eco_system_dev_contracts/poolPriceFeed.sol\":2355:2378  decimalOne > decimalTwo */\n      gt\n        /* \"ptrn_eco_system_dev_contracts/poolPriceFeed.sol\":2351:2538  if (decimalOne > decimalTwo) {... */\n      iszero\n      tag_59\n      jumpi\n        /* \"ptrn_eco_system_dev_contracts/poolPriceFeed.sol\":2434:2444  decimalTwo */\n      dup7\n        /* \"ptrn_eco_system_dev_contracts/poolPriceFeed.sol\":2421:2431  decimalOne */\n      dup11\n        /* \"ptrn_eco_system_dev_contracts/poolPriceFeed.sol\":2421:2444  decimalOne - decimalTwo */\n      tag_60\n      swap2\n      swap1\n      tag_61\n      jump\t// in\n    tag_60:\n        /* \"ptrn_eco_system_dev_contracts/poolPriceFeed.sol\":2416:2418  10 */\n      0x0a\n        /* \"ptrn_eco_system_dev_contracts/poolPriceFeed.sol\":2416:2445  10**(decimalOne - decimalTwo) */\n      tag_62\n      swap2\n      swap1\n      tag_63\n      jump\t// in\n    tag_62:\n        /* \"ptrn_eco_system_dev_contracts/poolPriceFeed.sol\":2405:2413  tokenTwo */\n      dup9\n        /* \"ptrn_eco_system_dev_contracts/poolPriceFeed.sol\":2405:2445  tokenTwo * 10**(decimalOne - decimalTwo) */\n      tag_64\n      swap2\n      swap1\n      tag_65\n      jump\t// in\n    tag_64:\n        /* \"ptrn_eco_system_dev_contracts/poolPriceFeed.sol\":2394:2445  tokenTwo = tokenTwo * 10**(decimalOne - decimalTwo) */\n      swap8\n      pop\n        /* \"ptrn_eco_system_dev_contracts/poolPriceFeed.sol\":2351:2538  if (decimalOne > decimalTwo) {... */\n      jump(tag_66)\n    tag_59:\n        /* \"ptrn_eco_system_dev_contracts/poolPriceFeed.sol\":2516:2526  decimalOne */\n      dup10\n        /* \"ptrn_eco_system_dev_contracts/poolPriceFeed.sol\":2503:2513  decimalTwo */\n      dup8\n        /* \"ptrn_eco_system_dev_contracts/poolPriceFeed.sol\":2503:2526  decimalTwo - decimalOne */\n      tag_67\n      swap2\n      swap1\n      tag_61\n      jump\t// in\n    tag_67:\n        /* \"ptrn_eco_system_dev_contracts/poolPriceFeed.sol\":2498:2500  10 */\n      0x0a\n        /* \"ptrn_eco_system_dev_contracts/poolPriceFeed.sol\":2498:2527  10**(decimalTwo - decimalOne) */\n      tag_68\n      swap2\n      swap1\n      tag_63\n      jump\t// in\n    tag_68:\n        /* \"ptrn_eco_system_dev_contracts/poolPriceFeed.sol\":2487:2495  tokenOne */\n      dup12\n        /* \"ptrn_eco_system_dev_contracts/poolPriceFeed.sol\":2487:2527  tokenOne * 10**(decimalTwo - decimalOne) */\n      tag_69\n      swap2\n      swap1\n      tag_65\n      jump\t// in\n    tag_69:\n        /* \"ptrn_eco_system_dev_contracts/poolPriceFeed.sol\":2476:2527  tokenOne = tokenOne * 10**(decimalTwo - decimalOne) */\n      swap11\n      pop\n        /* \"ptrn_eco_system_dev_contracts/poolPriceFeed.sol\":2351:2538  if (decimalOne > decimalTwo) {... */\n    tag_66:\n        /* \"ptrn_eco_system_dev_contracts/poolPriceFeed.sol\":2589:2594  10**8 */\n      0x05f5e100\n        /* \"ptrn_eco_system_dev_contracts/poolPriceFeed.sol\":2582:2587  10**8 */\n      dup1\n        /* \"ptrn_eco_system_dev_contracts/poolPriceFeed.sol\":2573:2581  tokenTwo */\n      dup10\n        /* \"ptrn_eco_system_dev_contracts/poolPriceFeed.sol\":2565:2570  10**8 */\n      0x05f5e100\n        /* \"ptrn_eco_system_dev_contracts/poolPriceFeed.sol\":2556:2564  tokenOne */\n      dup15\n        /* \"ptrn_eco_system_dev_contracts/poolPriceFeed.sol\":2556:2570  tokenOne*10**8 */\n      tag_70\n      swap2\n      swap1\n      tag_65\n      jump\t// in\n    tag_70:\n        /* \"ptrn_eco_system_dev_contracts/poolPriceFeed.sol\":2556:2581  tokenOne*10**8 / tokenTwo */\n      tag_71\n      swap2\n      swap1\n      tag_72\n      jump\t// in\n    tag_71:\n        /* \"ptrn_eco_system_dev_contracts/poolPriceFeed.sol\":2556:2587  tokenOne*10**8 / tokenTwo*10**8 */\n      tag_73\n      swap2\n      swap1\n      tag_65\n      jump\t// in\n    tag_73:\n        /* \"ptrn_eco_system_dev_contracts/poolPriceFeed.sol\":2555:2594  (tokenOne*10**8 / tokenTwo*10**8)/10**8 */\n      tag_74\n      swap2\n      swap1\n      tag_72\n      jump\t// in\n    tag_74:\n        /* \"ptrn_eco_system_dev_contracts/poolPriceFeed.sol\":2596:2597  8 */\n      0x08\n        /* \"ptrn_eco_system_dev_contracts/poolPriceFeed.sol\":2613:2625  tokenOneName */\n      dup11\n        /* \"ptrn_eco_system_dev_contracts/poolPriceFeed.sol\":2632:2644  tokenTwoName */\n      dup9\n        /* \"ptrn_eco_system_dev_contracts/poolPriceFeed.sol\":2599:2645  string.concat(tokenOneName, \"/\", tokenTwoName) */\n      add(0x20, mload(0x40))\n      tag_75\n      swap3\n      swap2\n      swap1\n      tag_76\n      jump\t// in\n    tag_75:\n      mload(0x40)\n      0x20\n      dup2\n      dup4\n      sub\n      sub\n      dup2\n      mstore\n      swap1\n      0x40\n      mstore\n        /* \"ptrn_eco_system_dev_contracts/poolPriceFeed.sol\":2647:2651  date */\n      dup8\n        /* \"ptrn_eco_system_dev_contracts/poolPriceFeed.sol\":2547:2652  return ((tokenOne*10**8 / tokenTwo*10**8)/10**8, 8, string.concat(tokenOneName, \"/\", tokenTwoName), date) */\n      dup1\n      0xffffffff\n      and\n      swap1\n      pop\n      swap4\n      pop\n      swap4\n      pop\n      swap4\n      pop\n      swap4\n      pop\n        /* \"ptrn_eco_system_dev_contracts/poolPriceFeed.sol\":1638:2659  function calculatePoolRate(... */\n      swap8\n      pop\n      swap8\n      pop\n      swap8\n      pop\n      swap8\n      swap4\n      pop\n      pop\n      pop\n      pop\n      jump\t// out\n        /* \"#utility.yul\":7:84   */\n    tag_77:\n        /* \"#utility.yul\":44:51   */\n      0x00\n        /* \"#utility.yul\":73:78   */\n      dup2\n        /* \"#utility.yul\":62:78   */\n      swap1\n      pop\n        /* \"#utility.yul\":7:84   */\n      swap2\n      swap1\n      pop\n      jump\t// out\n        /* \"#utility.yul\":90:208   */\n    tag_78:\n        /* \"#utility.yul\":177:201   */\n      tag_128\n        /* \"#utility.yul\":195:200   */\n      dup2\n        /* \"#utility.yul\":177:201   */\n      tag_77\n      jump\t// in\n    tag_128:\n        /* \"#utility.yul\":172:175   */\n      dup3\n        /* \"#utility.yul\":165:202   */\n      mstore\n        /* \"#utility.yul\":90:208   */\n      pop\n      pop\n      jump\t// out\n        /* \"#utility.yul\":214:313   */\n    tag_79:\n        /* \"#utility.yul\":266:272   */\n      0x00\n        /* \"#utility.yul\":300:305   */\n      dup2\n        /* \"#utility.yul\":294:306   */\n      mload\n        /* \"#utility.yul\":284:306   */\n      swap1\n      pop\n        /* \"#utility.yul\":214:313   */\n      swap2\n      swap1\n      pop\n      jump\t// out\n        /* \"#utility.yul\":319:488   */\n    tag_80:\n        /* \"#utility.yul\":403:414   */\n      0x00\n        /* \"#utility.yul\":437:443   */\n      dup3\n        /* \"#utility.yul\":432:435   */\n      dup3\n        /* \"#utility.yul\":425:444   */\n      mstore\n        /* \"#utility.yul\":477:481   */\n      0x20\n        /* \"#utility.yul\":472:475   */\n      dup3\n        /* \"#utility.yul\":468:482   */\n      add\n        /* \"#utility.yul\":453:482   */\n      swap1\n      pop\n        /* \"#utility.yul\":319:488   */\n      swap3\n      swap2\n      pop\n      pop\n      jump\t// out\n        /* \"#utility.yul\":494:740   */\n    tag_81:\n        /* \"#utility.yul\":575:576   */\n      0x00\n        /* \"#utility.yul\":585:698   */\n    tag_132:\n        /* \"#utility.yul\":599:605   */\n      dup4\n        /* \"#utility.yul\":596:597   */\n      dup2\n        /* \"#utility.yul\":593:606   */\n      lt\n        /* \"#utility.yul\":585:698   */\n      iszero\n      tag_134\n      jumpi\n        /* \"#utility.yul\":684:685   */\n      dup1\n        /* \"#utility.yul\":679:682   */\n      dup3\n        /* \"#utility.yul\":675:686   */\n      add\n        /* \"#utility.yul\":669:687   */\n      mload\n        /* \"#utility.yul\":665:666   */\n      dup2\n        /* \"#utility.yul\":660:663   */\n      dup5\n        /* \"#utility.yul\":656:667   */\n      add\n        /* \"#utility.yul\":649:688   */\n      mstore\n        /* \"#utility.yul\":621:623   */\n      0x20\n        /* \"#utility.yul\":618:619   */\n      dup2\n        /* \"#utility.yul\":614:624   */\n      add\n        /* \"#utility.yul\":609:624   */\n      swap1\n      pop\n        /* \"#utility.yul\":585:698   */\n      jump(tag_132)\n    tag_134:\n        /* \"#utility.yul\":732:733   */\n      0x00\n        /* \"#utility.yul\":723:729   */\n      dup5\n        /* \"#utility.yul\":718:721   */\n      dup5\n        /* \"#utility.yul\":714:730   */\n      add\n        /* \"#utility.yul\":707:734   */\n      mstore\n        /* \"#utility.yul\":556:740   */\n      pop\n        /* \"#utility.yul\":494:740   */\n      pop\n      pop\n      pop\n      jump\t// out\n        /* \"#utility.yul\":746:848   */\n    tag_82:\n        /* \"#utility.yul\":787:793   */\n      0x00\n        /* \"#utility.yul\":838:840   */\n      0x1f\n        /* \"#utility.yul\":834:841   */\n      not\n        /* \"#utility.yul\":829:831   */\n      0x1f\n        /* \"#utility.yul\":822:827   */\n      dup4\n        /* \"#utility.yul\":818:832   */\n      add\n        /* \"#utility.yul\":814:842   */\n      and\n        /* \"#utility.yul\":804:842   */\n      swap1\n      pop\n        /* \"#utility.yul\":746:848   */\n      swap2\n      swap1\n      pop\n      jump\t// out\n        /* \"#utility.yul\":854:1231   */\n    tag_83:\n        /* \"#utility.yul\":942:945   */\n      0x00\n        /* \"#utility.yul\":970:1009   */\n      tag_137\n        /* \"#utility.yul\":1003:1008   */\n      dup3\n        /* \"#utility.yul\":970:1009   */\n      tag_79\n      jump\t// in\n    tag_137:\n        /* \"#utility.yul\":1025:1096   */\n      tag_138\n        /* \"#utility.yul\":1089:1095   */\n      dup2\n        /* \"#utility.yul\":1084:1087   */\n      dup6\n        /* \"#utility.yul\":1025:1096   */\n      tag_80\n      jump\t// in\n    tag_138:\n        /* \"#utility.yul\":1018:1096   */\n      swap4\n      pop\n        /* \"#utility.yul\":1105:1170   */\n      tag_139\n        /* \"#utility.yul\":1163:1169   */\n      dup2\n        /* \"#utility.yul\":1158:1161   */\n      dup6\n        /* \"#utility.yul\":1151:1155   */\n      0x20\n        /* \"#utility.yul\":1144:1149   */\n      dup7\n        /* \"#utility.yul\":1140:1156   */\n      add\n        /* \"#utility.yul\":1105:1170   */\n      tag_81\n      jump\t// in\n    tag_139:\n        /* \"#utility.yul\":1195:1224   */\n      tag_140\n        /* \"#utility.yul\":1217:1223   */\n      dup2\n        /* \"#utility.yul\":1195:1224   */\n      tag_82\n      jump\t// in\n    tag_140:\n        /* \"#utility.yul\":1190:1193   */\n      dup5\n        /* \"#utility.yul\":1186:1225   */\n      add\n        /* \"#utility.yul\":1179:1225   */\n      swap2\n      pop\n        /* \"#utility.yul\":946:1231   */\n      pop\n        /* \"#utility.yul\":854:1231   */\n      swap3\n      swap2\n      pop\n      pop\n      jump\t// out\n        /* \"#utility.yul\":1237:1881   */\n    tag_8:\n        /* \"#utility.yul\":1434:1438   */\n      0x00\n        /* \"#utility.yul\":1472:1475   */\n      0x80\n        /* \"#utility.yul\":1461:1470   */\n      dup3\n        /* \"#utility.yul\":1457:1476   */\n      add\n        /* \"#utility.yul\":1449:1476   */\n      swap1\n      pop\n        /* \"#utility.yul\":1486:1557   */\n      tag_142\n        /* \"#utility.yul\":1554:1555   */\n      0x00\n        /* \"#utility.yul\":1543:1552   */\n      dup4\n        /* \"#utility.yul\":1539:1556   */\n      add\n        /* \"#utility.yul\":1530:1536   */\n      dup8\n        /* \"#utility.yul\":1486:1557   */\n      tag_78\n      jump\t// in\n    tag_142:\n        /* \"#utility.yul\":1567:1639   */\n      tag_143\n        /* \"#utility.yul\":1635:1637   */\n      0x20\n        /* \"#utility.yul\":1624:1633   */\n      dup4\n        /* \"#utility.yul\":1620:1638   */\n      add\n        /* \"#utility.yul\":1611:1617   */\n      dup7\n        /* \"#utility.yul\":1567:1639   */\n      tag_78\n      jump\t// in\n    tag_143:\n        /* \"#utility.yul\":1686:1695   */\n      dup2\n        /* \"#utility.yul\":1680:1684   */\n      dup2\n        /* \"#utility.yul\":1676:1696   */\n      sub\n        /* \"#utility.yul\":1671:1673   */\n      0x40\n        /* \"#utility.yul\":1660:1669   */\n      dup4\n        /* \"#utility.yul\":1656:1674   */\n      add\n        /* \"#utility.yul\":1649:1697   */\n      mstore\n        /* \"#utility.yul\":1714:1792   */\n      tag_144\n        /* \"#utility.yul\":1787:1791   */\n      dup2\n        /* \"#utility.yul\":1778:1784   */\n      dup6\n        /* \"#utility.yul\":1714:1792   */\n      tag_83\n      jump\t// in\n    tag_144:\n        /* \"#utility.yul\":1706:1792   */\n      swap1\n      pop\n        /* \"#utility.yul\":1802:1874   */\n      tag_145\n        /* \"#utility.yul\":1870:1872   */\n      0x60\n        /* \"#utility.yul\":1859:1868   */\n      dup4\n        /* \"#utility.yul\":1855:1873   */\n      add\n        /* \"#utility.yul\":1846:1852   */\n      dup5\n        /* \"#utility.yul\":1802:1874   */\n      tag_78\n      jump\t// in\n    tag_145:\n        /* \"#utility.yul\":1237:1881   */\n      swap6\n      swap5\n      pop\n      pop\n      pop\n      pop\n      pop\n      jump\t// out\n        /* \"#utility.yul\":1887:1962   */\n    tag_84:\n        /* \"#utility.yul\":1920:1926   */\n      0x00\n        /* \"#utility.yul\":1953:1955   */\n      0x40\n        /* \"#utility.yul\":1947:1956   */\n      mload\n        /* \"#utility.yul\":1937:1956   */\n      swap1\n      pop\n        /* \"#utility.yul\":1887:1962   */\n      swap1\n      jump\t// out\n        /* \"#utility.yul\":1968:2085   */\n    tag_85:\n        /* \"#utility.yul\":2077:2078   */\n      0x00\n        /* \"#utility.yul\":2074:2075   */\n      dup1\n        /* \"#utility.yul\":2067:2079   */\n      revert\n        /* \"#utility.yul\":2091:2208   */\n    tag_86:\n        /* \"#utility.yul\":2200:2201   */\n      0x00\n        /* \"#utility.yul\":2197:2198   */\n      dup1\n        /* \"#utility.yul\":2190:2202   */\n      revert\n        /* \"#utility.yul\":2214:2340   */\n    tag_87:\n        /* \"#utility.yul\":2251:2258   */\n      0x00\n        /* \"#utility.yul\":2291:2333   */\n      0xffffffffffffffffffffffffffffffffffffffff\n        /* \"#utility.yul\":2284:2289   */\n      dup3\n        /* \"#utility.yul\":2280:2334   */\n      and\n        /* \"#utility.yul\":2269:2334   */\n      swap1\n      pop\n        /* \"#utility.yul\":2214:2340   */\n      swap2\n      swap1\n      pop\n      jump\t// out\n        /* \"#utility.yul\":2346:2442   */\n    tag_88:\n        /* \"#utility.yul\":2383:2390   */\n      0x00\n        /* \"#utility.yul\":2412:2436   */\n      tag_151\n        /* \"#utility.yul\":2430:2435   */\n      dup3\n        /* \"#utility.yul\":2412:2436   */\n      tag_87\n      jump\t// in\n    tag_151:\n        /* \"#utility.yul\":2401:2436   */\n      swap1\n      pop\n        /* \"#utility.yul\":2346:2442   */\n      swap2\n      swap1\n      pop\n      jump\t// out\n        /* \"#utility.yul\":2448:2570   */\n    tag_89:\n        /* \"#utility.yul\":2521:2545   */\n      tag_153\n        /* \"#utility.yul\":2539:2544   */\n      dup2\n        /* \"#utility.yul\":2521:2545   */\n      tag_88\n      jump\t// in\n    tag_153:\n        /* \"#utility.yul\":2514:2519   */\n      dup2\n        /* \"#utility.yul\":2511:2546   */\n      eq\n        /* \"#utility.yul\":2501:2564   */\n      tag_154\n      jumpi\n        /* \"#utility.yul\":2560:2561   */\n      0x00\n        /* \"#utility.yul\":2557:2558   */\n      dup1\n        /* \"#utility.yul\":2550:2562   */\n      revert\n        /* \"#utility.yul\":2501:2564   */\n    tag_154:\n        /* \"#utility.yul\":2448:2570   */\n      pop\n      jump\t// out\n        /* \"#utility.yul\":2576:2715   */\n    tag_90:\n        /* \"#utility.yul\":2622:2627   */\n      0x00\n        /* \"#utility.yul\":2660:2666   */\n      dup2\n        /* \"#utility.yul\":2647:2667   */\n      calldataload\n        /* \"#utility.yul\":2638:2667   */\n      swap1\n      pop\n        /* \"#utility.yul\":2676:2709   */\n      tag_156\n        /* \"#utility.yul\":2703:2708   */\n      dup2\n        /* \"#utility.yul\":2676:2709   */\n      tag_89\n      jump\t// in\n    tag_156:\n        /* \"#utility.yul\":2576:2715   */\n      swap3\n      swap2\n      pop\n      pop\n      jump\t// out\n        /* \"#utility.yul\":2721:3050   */\n    tag_11:\n        /* \"#utility.yul\":2780:2786   */\n      0x00\n        /* \"#utility.yul\":2829:2831   */\n      0x20\n        /* \"#utility.yul\":2817:2826   */\n      dup3\n        /* \"#utility.yul\":2808:2815   */\n      dup5\n        /* \"#utility.yul\":2804:2827   */\n      sub\n        /* \"#utility.yul\":2800:2832   */\n      slt\n        /* \"#utility.yul\":2797:2916   */\n      iszero\n      tag_158\n      jumpi\n        /* \"#utility.yul\":2835:2914   */\n      tag_159\n      tag_85\n      jump\t// in\n    tag_159:\n        /* \"#utility.yul\":2797:2916   */\n    tag_158:\n        /* \"#utility.yul\":2955:2956   */\n      0x00\n        /* \"#utility.yul\":2980:3033   */\n      tag_160\n        /* \"#utility.yul\":3025:3032   */\n      dup5\n        /* \"#utility.yul\":3016:3022   */\n      dup3\n        /* \"#utility.yul\":3005:3014   */\n      dup6\n        /* \"#utility.yul\":3001:3023   */\n      add\n        /* \"#utility.yul\":2980:3033   */\n      tag_90\n      jump\t// in\n    tag_160:\n        /* \"#utility.yul\":2970:3033   */\n      swap2\n      pop\n        /* \"#utility.yul\":2926:3043   */\n      pop\n        /* \"#utility.yul\":2721:3050   */\n      swap3\n      swap2\n      pop\n      pop\n      jump\t// out\n        /* \"#utility.yul\":3056:3170   */\n    tag_91:\n        /* \"#utility.yul\":3093:3100   */\n      0x00\n        /* \"#utility.yul\":3133:3163   */\n      0xffffffffffffffffffffffffffff\n        /* \"#utility.yul\":3126:3131   */\n      dup3\n        /* \"#utility.yul\":3122:3164   */\n      and\n        /* \"#utility.yul\":3111:3164   */\n      swap1\n      pop\n        /* \"#utility.yul\":3056:3170   */\n      swap2\n      swap1\n      pop\n      jump\t// out\n        /* \"#utility.yul\":3176:3298   */\n    tag_92:\n        /* \"#utility.yul\":3249:3273   */\n      tag_163\n        /* \"#utility.yul\":3267:3272   */\n      dup2\n        /* \"#utility.yul\":3249:3273   */\n      tag_91\n      jump\t// in\n    tag_163:\n        /* \"#utility.yul\":3242:3247   */\n      dup2\n        /* \"#utility.yul\":3239:3274   */\n      eq\n        /* \"#utility.yul\":3229:3292   */\n      tag_164\n      jumpi\n        /* \"#utility.yul\":3288:3289   */\n      0x00\n        /* \"#utility.yul\":3285:3286   */\n      dup1\n        /* \"#utility.yul\":3278:3290   */\n      revert\n        /* \"#utility.yul\":3229:3292   */\n    tag_164:\n        /* \"#utility.yul\":3176:3298   */\n      pop\n      jump\t// out\n        /* \"#utility.yul\":3304:3447   */\n    tag_93:\n        /* \"#utility.yul\":3361:3366   */\n      0x00\n        /* \"#utility.yul\":3392:3398   */\n      dup2\n        /* \"#utility.yul\":3386:3399   */\n      mload\n        /* \"#utility.yul\":3377:3399   */\n      swap1\n      pop\n        /* \"#utility.yul\":3408:3441   */\n      tag_166\n        /* \"#utility.yul\":3435:3440   */\n      dup2\n        /* \"#utility.yul\":3408:3441   */\n      tag_92\n      jump\t// in\n    tag_166:\n        /* \"#utility.yul\":3304:3447   */\n      swap3\n      swap2\n      pop\n      pop\n      jump\t// out\n        /* \"#utility.yul\":3453:3546   */\n    tag_94:\n        /* \"#utility.yul\":3489:3496   */\n      0x00\n        /* \"#utility.yul\":3529:3539   */\n      0xffffffff\n        /* \"#utility.yul\":3522:3527   */\n      dup3\n        /* \"#utility.yul\":3518:3540   */\n      and\n        /* \"#utility.yul\":3507:3540   */\n      swap1\n      pop\n        /* \"#utility.yul\":3453:3546   */\n      swap2\n      swap1\n      pop\n      jump\t// out\n        /* \"#utility.yul\":3552:3672   */\n    tag_95:\n        /* \"#utility.yul\":3624:3647   */\n      tag_169\n        /* \"#utility.yul\":3641:3646   */\n      dup2\n        /* \"#utility.yul\":3624:3647   */\n      tag_94\n      jump\t// in\n    tag_169:\n        /* \"#utility.yul\":3617:3622   */\n      dup2\n        /* \"#utility.yul\":3614:3648   */\n      eq\n        /* \"#utility.yul\":3604:3666   */\n      tag_170\n      jumpi\n        /* \"#utility.yul\":3662:3663   */\n      0x00\n        /* \"#utility.yul\":3659:3660   */\n      dup1\n        /* \"#utility.yul\":3652:3664   */\n      revert\n        /* \"#utility.yul\":3604:3666   */\n    tag_170:\n        /* \"#utility.yul\":3552:3672   */\n      pop\n      jump\t// out\n        /* \"#utility.yul\":3678:3819   */\n    tag_96:\n        /* \"#utility.yul\":3734:3739   */\n      0x00\n        /* \"#utility.yul\":3765:3771   */\n      dup2\n        /* \"#utility.yul\":3759:3772   */\n      mload\n        /* \"#utility.yul\":3750:3772   */\n      swap1\n      pop\n        /* \"#utility.yul\":3781:3813   */\n      tag_172\n        /* \"#utility.yul\":3807:3812   */\n      dup2\n        /* \"#utility.yul\":3781:3813   */\n      tag_95\n      jump\t// in\n    tag_172:\n        /* \"#utility.yul\":3678:3819   */\n      swap3\n      swap2\n      pop\n      pop\n      jump\t// out\n        /* \"#utility.yul\":3825:4486   */\n    tag_17:\n        /* \"#utility.yul\":3912:3918   */\n      0x00\n        /* \"#utility.yul\":3920:3926   */\n      dup1\n        /* \"#utility.yul\":3928:3934   */\n      0x00\n        /* \"#utility.yul\":3977:3979   */\n      0x60\n        /* \"#utility.yul\":3965:3974   */\n      dup5\n        /* \"#utility.yul\":3956:3963   */\n      dup7\n        /* \"#utility.yul\":3952:3975   */\n      sub\n        /* \"#utility.yul\":3948:3980   */\n      slt\n        /* \"#utility.yul\":3945:4064   */\n      iszero\n      tag_174\n      jumpi\n        /* \"#utility.yul\":3983:4062   */\n      tag_175\n      tag_85\n      jump\t// in\n    tag_175:\n        /* \"#utility.yul\":3945:4064   */\n    tag_174:\n        /* \"#utility.yul\":4103:4104   */\n      0x00\n        /* \"#utility.yul\":4128:4192   */\n      tag_176\n        /* \"#utility.yul\":4184:4191   */\n      dup7\n        /* \"#utility.yul\":4175:4181   */\n      dup3\n        /* \"#utility.yul\":4164:4173   */\n      dup8\n        /* \"#utility.yul\":4160:4182   */\n      add\n        /* \"#utility.yul\":4128:4192   */\n      tag_93\n      jump\t// in\n    tag_176:\n        /* \"#utility.yul\":4118:4192   */\n      swap4\n      pop\n        /* \"#utility.yul\":4074:4202   */\n      pop\n        /* \"#utility.yul\":4241:4243   */\n      0x20\n        /* \"#utility.yul\":4267:4331   */\n      tag_177\n        /* \"#utility.yul\":4323:4330   */\n      dup7\n        /* \"#utility.yul\":4314:4320   */\n      dup3\n        /* \"#utility.yul\":4303:4312   */\n      dup8\n        /* \"#utility.yul\":4299:4321   */\n      add\n        /* \"#utility.yul\":4267:4331   */\n      tag_93\n      jump\t// in\n    tag_177:\n        /* \"#utility.yul\":4257:4331   */\n      swap3\n      pop\n        /* \"#utility.yul\":4212:4341   */\n      pop\n        /* \"#utility.yul\":4380:4382   */\n      0x40\n        /* \"#utility.yul\":4406:4469   */\n      tag_178\n        /* \"#utility.yul\":4461:4468   */\n      dup7\n        /* \"#utility.yul\":4452:4458   */\n      dup3\n        /* \"#utility.yul\":4441:4450   */\n      dup8\n        /* \"#utility.yul\":4437:4459   */\n      add\n        /* \"#utility.yul\":4406:4469   */\n      tag_96\n      jump\t// in\n    tag_178:\n        /* \"#utility.yul\":4396:4469   */\n      swap2\n      pop\n        /* \"#utility.yul\":4351:4479   */\n      pop\n        /* \"#utility.yul\":3825:4486   */\n      swap3\n      pop\n      swap3\n      pop\n      swap3\n      jump\t// out\n        /* \"#utility.yul\":4492:4635   */\n    tag_97:\n        /* \"#utility.yul\":4549:4554   */\n      0x00\n        /* \"#utility.yul\":4580:4586   */\n      dup2\n        /* \"#utility.yul\":4574:4587   */\n      mload\n        /* \"#utility.yul\":4565:4587   */\n      swap1\n      pop\n        /* \"#utility.yul\":4596:4629   */\n      tag_180\n        /* \"#utility.yul\":4623:4628   */\n      dup2\n        /* \"#utility.yul\":4596:4629   */\n      tag_89\n      jump\t// in\n    tag_180:\n        /* \"#utility.yul\":4492:4635   */\n      swap3\n      swap2\n      pop\n      pop\n      jump\t// out\n        /* \"#utility.yul\":4641:4992   */\n    tag_21:\n        /* \"#utility.yul\":4711:4717   */\n      0x00\n        /* \"#utility.yul\":4760:4762   */\n      0x20\n        /* \"#utility.yul\":4748:4757   */\n      dup3\n        /* \"#utility.yul\":4739:4746   */\n      dup5\n        /* \"#utility.yul\":4735:4758   */\n      sub\n        /* \"#utility.yul\":4731:4763   */\n      slt\n        /* \"#utility.yul\":4728:4847   */\n      iszero\n      tag_182\n      jumpi\n        /* \"#utility.yul\":4766:4845   */\n      tag_183\n      tag_85\n      jump\t// in\n    tag_183:\n        /* \"#utility.yul\":4728:4847   */\n    tag_182:\n        /* \"#utility.yul\":4886:4887   */\n      0x00\n        /* \"#utility.yul\":4911:4975   */\n      tag_184\n        /* \"#utility.yul\":4967:4974   */\n      dup5\n        /* \"#utility.yul\":4958:4964   */\n      dup3\n        /* \"#utility.yul\":4947:4956   */\n      dup6\n        /* \"#utility.yul\":4943:4965   */\n      add\n        /* \"#utility.yul\":4911:4975   */\n      tag_97\n      jump\t// in\n    tag_184:\n        /* \"#utility.yul\":4901:4975   */\n      swap2\n      pop\n        /* \"#utility.yul\":4857:4985   */\n      pop\n        /* \"#utility.yul\":4641:4992   */\n      swap3\n      swap2\n      pop\n      pop\n      jump\t// out\n        /* \"#utility.yul\":4998:5084   */\n    tag_98:\n        /* \"#utility.yul\":5033:5040   */\n      0x00\n        /* \"#utility.yul\":5073:5077   */\n      0xff\n        /* \"#utility.yul\":5066:5071   */\n      dup3\n        /* \"#utility.yul\":5062:5078   */\n      and\n        /* \"#utility.yul\":5051:5078   */\n      swap1\n      pop\n        /* \"#utility.yul\":4998:5084   */\n      swap2\n      swap1\n      pop\n      jump\t// out\n        /* \"#utility.yul\":5090:5208   */\n    tag_99:\n        /* \"#utility.yul\":5161:5183   */\n      tag_187\n        /* \"#utility.yul\":5177:5182   */\n      dup2\n        /* \"#utility.yul\":5161:5183   */\n      tag_98\n      jump\t// in\n    tag_187:\n        /* \"#utility.yul\":5154:5159   */\n      dup2\n        /* \"#utility.yul\":5151:5184   */\n      eq\n        /* \"#utility.yul\":5141:5202   */\n      tag_188\n      jumpi\n        /* \"#utility.yul\":5198:5199   */\n      0x00\n        /* \"#utility.yul\":5195:5196   */\n      dup1\n        /* \"#utility.yul\":5188:5200   */\n      revert\n        /* \"#utility.yul\":5141:5202   */\n    tag_188:\n        /* \"#utility.yul\":5090:5208   */\n      pop\n      jump\t// out\n        /* \"#utility.yul\":5214:5353   */\n    tag_100:\n        /* \"#utility.yul\":5269:5274   */\n      0x00\n        /* \"#utility.yul\":5300:5306   */\n      dup2\n        /* \"#utility.yul\":5294:5307   */\n      mload\n        /* \"#utility.yul\":5285:5307   */\n      swap1\n      pop\n        /* \"#utility.yul\":5316:5347   */\n      tag_190\n        /* \"#utility.yul\":5341:5346   */\n      dup2\n        /* \"#utility.yul\":5316:5347   */\n      tag_99\n      jump\t// in\n    tag_190:\n        /* \"#utility.yul\":5214:5353   */\n      swap3\n      swap2\n      pop\n      pop\n      jump\t// out\n        /* \"#utility.yul\":5359:5706   */\n    tag_28:\n        /* \"#utility.yul\":5427:5433   */\n      0x00\n        /* \"#utility.yul\":5476:5478   */\n      0x20\n        /* \"#utility.yul\":5464:5473   */\n      dup3\n        /* \"#utility.yul\":5455:5462   */\n      dup5\n        /* \"#utility.yul\":5451:5474   */\n      sub\n        /* \"#utility.yul\":5447:5479   */\n      slt\n        /* \"#utility.yul\":5444:5563   */\n      iszero\n      tag_192\n      jumpi\n        /* \"#utility.yul\":5482:5561   */\n      tag_193\n      tag_85\n      jump\t// in\n    tag_193:\n        /* \"#utility.yul\":5444:5563   */\n    tag_192:\n        /* \"#utility.yul\":5602:5603   */\n      0x00\n        /* \"#utility.yul\":5627:5689   */\n      tag_194\n        /* \"#utility.yul\":5681:5688   */\n      dup5\n        /* \"#utility.yul\":5672:5678   */\n      dup3\n        /* \"#utility.yul\":5661:5670   */\n      dup6\n        /* \"#utility.yul\":5657:5679   */\n      add\n        /* \"#utility.yul\":5627:5689   */\n      tag_100\n      jump\t// in\n    tag_194:\n        /* \"#utility.yul\":5617:5689   */\n      swap2\n      pop\n        /* \"#utility.yul\":5573:5699   */\n      pop\n        /* \"#utility.yul\":5359:5706   */\n      swap3\n      swap2\n      pop\n      pop\n      jump\t// out\n        /* \"#utility.yul\":5712:5829   */\n    tag_101:\n        /* \"#utility.yul\":5821:5822   */\n      0x00\n        /* \"#utility.yul\":5818:5819   */\n      dup1\n        /* \"#utility.yul\":5811:5823   */\n      revert\n        /* \"#utility.yul\":5835:5952   */\n    tag_102:\n        /* \"#utility.yul\":5944:5945   */\n      0x00\n        /* \"#utility.yul\":5941:5942   */\n      dup1\n        /* \"#utility.yul\":5934:5946   */\n      revert\n        /* \"#utility.yul\":5958:6138   */\n    tag_103:\n        /* \"#utility.yul\":6006:6083   */\n      0x4e487b7100000000000000000000000000000000000000000000000000000000\n        /* \"#utility.yul\":6003:6004   */\n      0x00\n        /* \"#utility.yul\":5996:6084   */\n      mstore\n        /* \"#utility.yul\":6103:6107   */\n      0x41\n        /* \"#utility.yul\":6100:6101   */\n      0x04\n        /* \"#utility.yul\":6093:6108   */\n      mstore\n        /* \"#utility.yul\":6127:6131   */\n      0x24\n        /* \"#utility.yul\":6124:6125   */\n      0x00\n        /* \"#utility.yul\":6117:6132   */\n      revert\n        /* \"#utility.yul\":6144:6425   */\n    tag_104:\n        /* \"#utility.yul\":6227:6254   */\n      tag_199\n        /* \"#utility.yul\":6249:6253   */\n      dup3\n        /* \"#utility.yul\":6227:6254   */\n      tag_82\n      jump\t// in\n    tag_199:\n        /* \"#utility.yul\":6219:6225   */\n      dup2\n        /* \"#utility.yul\":6215:6255   */\n      add\n        /* \"#utility.yul\":6357:6363   */\n      dup2\n        /* \"#utility.yul\":6345:6355   */\n      dup2\n        /* \"#utility.yul\":6342:6364   */\n      lt\n        /* \"#utility.yul\":6321:6339   */\n      0xffffffffffffffff\n        /* \"#utility.yul\":6309:6319   */\n      dup3\n        /* \"#utility.yul\":6306:6340   */\n      gt\n        /* \"#utility.yul\":6303:6365   */\n      or\n        /* \"#utility.yul\":6300:6388   */\n      iszero\n      tag_200\n      jumpi\n        /* \"#utility.yul\":6368:6386   */\n      tag_201\n      tag_103\n      jump\t// in\n    tag_201:\n        /* \"#utility.yul\":6300:6388   */\n    tag_200:\n        /* \"#utility.yul\":6408:6418   */\n      dup1\n        /* \"#utility.yul\":6404:6406   */\n      0x40\n        /* \"#utility.yul\":6397:6419   */\n      mstore\n        /* \"#utility.yul\":6187:6425   */\n      pop\n        /* \"#utility.yul\":6144:6425   */\n      pop\n      pop\n      jump\t// out\n        /* \"#utility.yul\":6431:6560   */\n    tag_105:\n        /* \"#utility.yul\":6465:6471   */\n      0x00\n        /* \"#utility.yul\":6492:6512   */\n      tag_203\n      tag_84\n      jump\t// in\n    tag_203:\n        /* \"#utility.yul\":6482:6512   */\n      swap1\n      pop\n        /* \"#utility.yul\":6521:6554   */\n      tag_204\n        /* \"#utility.yul\":6549:6553   */\n      dup3\n        /* \"#utility.yul\":6541:6547   */\n      dup3\n        /* \"#utility.yul\":6521:6554   */\n      tag_104\n      jump\t// in\n    tag_204:\n        /* \"#utility.yul\":6431:6560   */\n      swap2\n      swap1\n      pop\n      jump\t// out\n        /* \"#utility.yul\":6566:6874   */\n    tag_106:\n        /* \"#utility.yul\":6628:6632   */\n      0x00\n        /* \"#utility.yul\":6718:6736   */\n      0xffffffffffffffff\n        /* \"#utility.yul\":6710:6716   */\n      dup3\n        /* \"#utility.yul\":6707:6737   */\n      gt\n        /* \"#utility.yul\":6704:6760   */\n      iszero\n      tag_206\n      jumpi\n        /* \"#utility.yul\":6740:6758   */\n      tag_207\n      tag_103\n      jump\t// in\n    tag_207:\n        /* \"#utility.yul\":6704:6760   */\n    tag_206:\n        /* \"#utility.yul\":6778:6807   */\n      tag_208\n        /* \"#utility.yul\":6800:6806   */\n      dup3\n        /* \"#utility.yul\":6778:6807   */\n      tag_82\n      jump\t// in\n    tag_208:\n        /* \"#utility.yul\":6770:6807   */\n      swap1\n      pop\n        /* \"#utility.yul\":6862:6866   */\n      0x20\n        /* \"#utility.yul\":6856:6860   */\n      dup2\n        /* \"#utility.yul\":6852:6867   */\n      add\n        /* \"#utility.yul\":6844:6867   */\n      swap1\n      pop\n        /* \"#utility.yul\":6566:6874   */\n      swap2\n      swap1\n      pop\n      jump\t// out\n        /* \"#utility.yul\":6880:7314   */\n    tag_107:\n        /* \"#utility.yul\":6969:6974   */\n      0x00\n        /* \"#utility.yul\":6994:7060   */\n      tag_210\n        /* \"#utility.yul\":7010:7059   */\n      tag_211\n        /* \"#utility.yul\":7052:7058   */\n      dup5\n        /* \"#utility.yul\":7010:7059   */\n      tag_106\n      jump\t// in\n    tag_211:\n        /* \"#utility.yul\":6994:7060   */\n      tag_105\n      jump\t// in\n    tag_210:\n        /* \"#utility.yul\":6985:7060   */\n      swap1\n      pop\n        /* \"#utility.yul\":7083:7089   */\n      dup3\n        /* \"#utility.yul\":7076:7081   */\n      dup2\n        /* \"#utility.yul\":7069:7090   */\n      mstore\n        /* \"#utility.yul\":7121:7125   */\n      0x20\n        /* \"#utility.yul\":7114:7119   */\n      dup2\n        /* \"#utility.yul\":7110:7126   */\n      add\n        /* \"#utility.yul\":7159:7162   */\n      dup5\n        /* \"#utility.yul\":7150:7156   */\n      dup5\n        /* \"#utility.yul\":7145:7148   */\n      dup5\n        /* \"#utility.yul\":7141:7157   */\n      add\n        /* \"#utility.yul\":7138:7163   */\n      gt\n        /* \"#utility.yul\":7135:7247   */\n      iszero\n      tag_212\n      jumpi\n        /* \"#utility.yul\":7166:7245   */\n      tag_213\n      tag_102\n      jump\t// in\n    tag_213:\n        /* \"#utility.yul\":7135:7247   */\n    tag_212:\n        /* \"#utility.yul\":7256:7308   */\n      tag_214\n        /* \"#utility.yul\":7301:7307   */\n      dup5\n        /* \"#utility.yul\":7296:7299   */\n      dup3\n        /* \"#utility.yul\":7291:7294   */\n      dup6\n        /* \"#utility.yul\":7256:7308   */\n      tag_81\n      jump\t// in\n    tag_214:\n        /* \"#utility.yul\":6975:7314   */\n      pop\n        /* \"#utility.yul\":6880:7314   */\n      swap4\n      swap3\n      pop\n      pop\n      pop\n      jump\t// out\n        /* \"#utility.yul\":7334:7689   */\n    tag_108:\n        /* \"#utility.yul\":7401:7406   */\n      0x00\n        /* \"#utility.yul\":7450:7453   */\n      dup3\n        /* \"#utility.yul\":7443:7447   */\n      0x1f\n        /* \"#utility.yul\":7435:7441   */\n      dup4\n        /* \"#utility.yul\":7431:7448   */\n      add\n        /* \"#utility.yul\":7427:7454   */\n      slt\n        /* \"#utility.yul\":7417:7539   */\n      tag_216\n      jumpi\n        /* \"#utility.yul\":7458:7537   */\n      tag_217\n      tag_101\n      jump\t// in\n    tag_217:\n        /* \"#utility.yul\":7417:7539   */\n    tag_216:\n        /* \"#utility.yul\":7568:7574   */\n      dup2\n        /* \"#utility.yul\":7562:7575   */\n      mload\n        /* \"#utility.yul\":7593:7683   */\n      tag_218\n        /* \"#utility.yul\":7679:7682   */\n      dup5\n        /* \"#utility.yul\":7671:7677   */\n      dup3\n        /* \"#utility.yul\":7664:7668   */\n      0x20\n        /* \"#utility.yul\":7656:7662   */\n      dup7\n        /* \"#utility.yul\":7652:7669   */\n      add\n        /* \"#utility.yul\":7593:7683   */\n      tag_107\n      jump\t// in\n    tag_218:\n        /* \"#utility.yul\":7584:7683   */\n      swap2\n      pop\n        /* \"#utility.yul\":7407:7689   */\n      pop\n        /* \"#utility.yul\":7334:7689   */\n      swap3\n      swap2\n      pop\n      pop\n      jump\t// out\n        /* \"#utility.yul\":7695:8219   */\n    tag_35:\n        /* \"#utility.yul\":7775:7781   */\n      0x00\n        /* \"#utility.yul\":7824:7826   */\n      0x20\n        /* \"#utility.yul\":7812:7821   */\n      dup3\n        /* \"#utility.yul\":7803:7810   */\n      dup5\n        /* \"#utility.yul\":7799:7822   */\n      sub\n        /* \"#utility.yul\":7795:7827   */\n      slt\n        /* \"#utility.yul\":7792:7911   */\n      iszero\n      tag_220\n      jumpi\n        /* \"#utility.yul\":7830:7909   */\n      tag_221\n      tag_85\n      jump\t// in\n    tag_221:\n        /* \"#utility.yul\":7792:7911   */\n    tag_220:\n        /* \"#utility.yul\":7971:7972   */\n      0x00\n        /* \"#utility.yul\":7960:7969   */\n      dup3\n        /* \"#utility.yul\":7956:7973   */\n      add\n        /* \"#utility.yul\":7950:7974   */\n      mload\n        /* \"#utility.yul\":8001:8019   */\n      0xffffffffffffffff\n        /* \"#utility.yul\":7993:7999   */\n      dup2\n        /* \"#utility.yul\":7990:8020   */\n      gt\n        /* \"#utility.yul\":7987:8104   */\n      iszero\n      tag_222\n      jumpi\n        /* \"#utility.yul\":8023:8102   */\n      tag_223\n      tag_86\n      jump\t// in\n    tag_223:\n        /* \"#utility.yul\":7987:8104   */\n    tag_222:\n        /* \"#utility.yul\":8128:8202   */\n      tag_224\n        /* \"#utility.yul\":8194:8201   */\n      dup5\n        /* \"#utility.yul\":8185:8191   */\n      dup3\n        /* \"#utility.yul\":8174:8183   */\n      dup6\n        /* \"#utility.yul\":8170:8192   */\n      add\n        /* \"#utility.yul\":8128:8202   */\n      tag_108\n      jump\t// in\n    tag_224:\n        /* \"#utility.yul\":8118:8202   */\n      swap2\n      pop\n        /* \"#utility.yul\":7921:8212   */\n      pop\n        /* \"#utility.yul\":7695:8219   */\n      swap3\n      swap2\n      pop\n      pop\n      jump\t// out\n        /* \"#utility.yul\":8225:8404   */\n    tag_109:\n        /* \"#utility.yul\":8365:8396   */\n      0x4d697373696e6720696e70757420666f7220746f6b656e206e616d6521000000\n        /* \"#utility.yul\":8361:8362   */\n      0x00\n        /* \"#utility.yul\":8353:8359   */\n      dup3\n        /* \"#utility.yul\":8349:8363   */\n      add\n        /* \"#utility.yul\":8342:8397   */\n      mstore\n        /* \"#utility.yul\":8225:8404   */\n      pop\n      jump\t// out\n        /* \"#utility.yul\":8410:8776   */\n    tag_110:\n        /* \"#utility.yul\":8552:8555   */\n      0x00\n        /* \"#utility.yul\":8573:8640   */\n      tag_227\n        /* \"#utility.yul\":8637:8639   */\n      0x1d\n        /* \"#utility.yul\":8632:8635   */\n      dup4\n        /* \"#utility.yul\":8573:8640   */\n      tag_80\n      jump\t// in\n    tag_227:\n        /* \"#utility.yul\":8566:8640   */\n      swap2\n      pop\n        /* \"#utility.yul\":8649:8742   */\n      tag_228\n        /* \"#utility.yul\":8738:8741   */\n      dup3\n        /* \"#utility.yul\":8649:8742   */\n      tag_109\n      jump\t// in\n    tag_228:\n        /* \"#utility.yul\":8767:8769   */\n      0x20\n        /* \"#utility.yul\":8762:8765   */\n      dup3\n        /* \"#utility.yul\":8758:8770   */\n      add\n        /* \"#utility.yul\":8751:8770   */\n      swap1\n      pop\n        /* \"#utility.yul\":8410:8776   */\n      swap2\n      swap1\n      pop\n      jump\t// out\n        /* \"#utility.yul\":8782:9201   */\n    tag_46:\n        /* \"#utility.yul\":8948:8952   */\n      0x00\n        /* \"#utility.yul\":8986:8988   */\n      0x20\n        /* \"#utility.yul\":8975:8984   */\n      dup3\n        /* \"#utility.yul\":8971:8989   */\n      add\n        /* \"#utility.yul\":8963:8989   */\n      swap1\n      pop\n        /* \"#utility.yul\":9035:9044   */\n      dup2\n        /* \"#utility.yul\":9029:9033   */\n      dup2\n        /* \"#utility.yul\":9025:9045   */\n      sub\n        /* \"#utility.yul\":9021:9022   */\n      0x00\n        /* \"#utility.yul\":9010:9019   */\n      dup4\n        /* \"#utility.yul\":9006:9023   */\n      add\n        /* \"#utility.yul\":8999:9046   */\n      mstore\n        /* \"#utility.yul\":9063:9194   */\n      tag_230\n        /* \"#utility.yul\":9189:9193   */\n      dup2\n        /* \"#utility.yul\":9063:9194   */\n      tag_110\n      jump\t// in\n    tag_230:\n        /* \"#utility.yul\":9055:9194   */\n      swap1\n      pop\n        /* \"#utility.yul\":8782:9201   */\n      swap2\n      swap1\n      pop\n      jump\t// out\n        /* \"#utility.yul\":9207:9437   */\n    tag_111:\n        /* \"#utility.yul\":9347:9381   */\n      0x446563696d616c732073686f756c64206265206c657373207468616e206f7220\n        /* \"#utility.yul\":9343:9344   */\n      0x00\n        /* \"#utility.yul\":9335:9341   */\n      dup3\n        /* \"#utility.yul\":9331:9345   */\n      add\n        /* \"#utility.yul\":9324:9382   */\n      mstore\n        /* \"#utility.yul\":9416:9429   */\n      0x657175616c20746f203138000000000000000000000000000000000000000000\n        /* \"#utility.yul\":9411:9413   */\n      0x20\n        /* \"#utility.yul\":9403:9409   */\n      dup3\n        /* \"#utility.yul\":9399:9414   */\n      add\n        /* \"#utility.yul\":9392:9430   */\n      mstore\n        /* \"#utility.yul\":9207:9437   */\n      pop\n      jump\t// out\n        /* \"#utility.yul\":9443:9809   */\n    tag_112:\n        /* \"#utility.yul\":9585:9588   */\n      0x00\n        /* \"#utility.yul\":9606:9673   */\n      tag_233\n        /* \"#utility.yul\":9670:9672   */\n      0x2b\n        /* \"#utility.yul\":9665:9668   */\n      dup4\n        /* \"#utility.yul\":9606:9673   */\n      tag_80\n      jump\t// in\n    tag_233:\n        /* \"#utility.yul\":9599:9673   */\n      swap2\n      pop\n        /* \"#utility.yul\":9682:9775   */\n      tag_234\n        /* \"#utility.yul\":9771:9774   */\n      dup3\n        /* \"#utility.yul\":9682:9775   */\n      tag_111\n      jump\t// in\n    tag_234:\n        /* \"#utility.yul\":9800:9802   */\n      0x40\n        /* \"#utility.yul\":9795:9798   */\n      dup3\n        /* \"#utility.yul\":9791:9803   */\n      add\n        /* \"#utility.yul\":9784:9803   */\n      swap1\n      pop\n        /* \"#utility.yul\":9443:9809   */\n      swap2\n      swap1\n      pop\n      jump\t// out\n        /* \"#utility.yul\":9815:10234   */\n    tag_50:\n        /* \"#utility.yul\":9981:9985   */\n      0x00\n        /* \"#utility.yul\":10019:10021   */\n      0x20\n        /* \"#utility.yul\":10008:10017   */\n      dup3\n        /* \"#utility.yul\":10004:10022   */\n      add\n        /* \"#utility.yul\":9996:10022   */\n      swap1\n      pop\n        /* \"#utility.yul\":10068:10077   */\n      dup2\n        /* \"#utility.yul\":10062:10066   */\n      dup2\n        /* \"#utility.yul\":10058:10078   */\n      sub\n        /* \"#utility.yul\":10054:10055   */\n      0x00\n        /* \"#utility.yul\":10043:10052   */\n      dup4\n        /* \"#utility.yul\":10039:10056   */\n      add\n        /* \"#utility.yul\":10032:10079   */\n      mstore\n        /* \"#utility.yul\":10096:10227   */\n      tag_236\n        /* \"#utility.yul\":10222:10226   */\n      dup2\n        /* \"#utility.yul\":10096:10227   */\n      tag_112\n      jump\t// in\n    tag_236:\n        /* \"#utility.yul\":10088:10227   */\n      swap1\n      pop\n        /* \"#utility.yul\":9815:10234   */\n      swap2\n      swap1\n      pop\n      jump\t// out\n        /* \"#utility.yul\":10240:10460   */\n    tag_113:\n        /* \"#utility.yul\":10380:10414   */\n      0x446563696d616c732073686f756c642062652067726561746572207468616e20\n        /* \"#utility.yul\":10376:10377   */\n      0x00\n        /* \"#utility.yul\":10368:10374   */\n      dup3\n        /* \"#utility.yul\":10364:10378   */\n      add\n        /* \"#utility.yul\":10357:10415   */\n      mstore\n        /* \"#utility.yul\":10449:10452   */\n      0x3000000000000000000000000000000000000000000000000000000000000000\n        /* \"#utility.yul\":10444:10446   */\n      0x20\n        /* \"#utility.yul\":10436:10442   */\n      dup3\n        /* \"#utility.yul\":10432:10447   */\n      add\n        /* \"#utility.yul\":10425:10453   */\n      mstore\n        /* \"#utility.yul\":10240:10460   */\n      pop\n      jump\t// out\n        /* \"#utility.yul\":10466:10832   */\n    tag_114:\n        /* \"#utility.yul\":10608:10611   */\n      0x00\n        /* \"#utility.yul\":10629:10696   */\n      tag_239\n        /* \"#utility.yul\":10693:10695   */\n      0x21\n        /* \"#utility.yul\":10688:10691   */\n      dup4\n        /* \"#utility.yul\":10629:10696   */\n      tag_80\n      jump\t// in\n    tag_239:\n        /* \"#utility.yul\":10622:10696   */\n      swap2\n      pop\n        /* \"#utility.yul\":10705:10798   */\n      tag_240\n        /* \"#utility.yul\":10794:10797   */\n      dup3\n        /* \"#utility.yul\":10705:10798   */\n      tag_113\n      jump\t// in\n    tag_240:\n        /* \"#utility.yul\":10823:10825   */\n      0x40\n        /* \"#utility.yul\":10818:10821   */\n      dup3\n        /* \"#utility.yul\":10814:10826   */\n      add\n        /* \"#utility.yul\":10807:10826   */\n      swap1\n      pop\n        /* \"#utility.yul\":10466:10832   */\n      swap2\n      swap1\n      pop\n      jump\t// out\n        /* \"#utility.yul\":10838:11257   */\n    tag_54:\n        /* \"#utility.yul\":11004:11008   */\n      0x00\n        /* \"#utility.yul\":11042:11044   */\n      0x20\n        /* \"#utility.yul\":11031:11040   */\n      dup3\n        /* \"#utility.yul\":11027:11045   */\n      add\n        /* \"#utility.yul\":11019:11045   */\n      swap1\n      pop\n        /* \"#utility.yul\":11091:11100   */\n      dup2\n        /* \"#utility.yul\":11085:11089   */\n      dup2\n        /* \"#utility.yul\":11081:11101   */\n      sub\n        /* \"#utility.yul\":11077:11078   */\n      0x00\n        /* \"#utility.yul\":11066:11075   */\n      dup4\n        /* \"#utility.yul\":11062:11079   */\n      add\n        /* \"#utility.yul\":11055:11102   */\n      mstore\n        /* \"#utility.yul\":11119:11250   */\n      tag_242\n        /* \"#utility.yul\":11245:11249   */\n      dup2\n        /* \"#utility.yul\":11119:11250   */\n      tag_114\n      jump\t// in\n    tag_242:\n        /* \"#utility.yul\":11111:11250   */\n      swap1\n      pop\n        /* \"#utility.yul\":10838:11257   */\n      swap2\n      swap1\n      pop\n      jump\t// out\n        /* \"#utility.yul\":11263:11487   */\n    tag_115:\n        /* \"#utility.yul\":11403:11437   */\n      0x546f6b656e2076616c7565732073686f756c6420626520677265617465722074\n        /* \"#utility.yul\":11399:11400   */\n      0x00\n        /* \"#utility.yul\":11391:11397   */\n      dup3\n        /* \"#utility.yul\":11387:11401   */\n      add\n        /* \"#utility.yul\":11380:11438   */\n      mstore\n        /* \"#utility.yul\":11472:11479   */\n      0x68616e2030000000000000000000000000000000000000000000000000000000\n        /* \"#utility.yul\":11467:11469   */\n      0x20\n        /* \"#utility.yul\":11459:11465   */\n      dup3\n        /* \"#utility.yul\":11455:11470   */\n      add\n        /* \"#utility.yul\":11448:11480   */\n      mstore\n        /* \"#utility.yul\":11263:11487   */\n      pop\n      jump\t// out\n        /* \"#utility.yul\":11493:11859   */\n    tag_116:\n        /* \"#utility.yul\":11635:11638   */\n      0x00\n        /* \"#utility.yul\":11656:11723   */\n      tag_245\n        /* \"#utility.yul\":11720:11722   */\n      0x25\n        /* \"#utility.yul\":11715:11718   */\n      dup4\n        /* \"#utility.yul\":11656:11723   */\n      tag_80\n      jump\t// in\n    tag_245:\n        /* \"#utility.yul\":11649:11723   */\n      swap2\n      pop\n        /* \"#utility.yul\":11732:11825   */\n      tag_246\n        /* \"#utility.yul\":11821:11824   */\n      dup3\n        /* \"#utility.yul\":11732:11825   */\n      tag_115\n      jump\t// in\n    tag_246:\n        /* \"#utility.yul\":11850:11852   */\n      0x40\n        /* \"#utility.yul\":11845:11848   */\n      dup3\n        /* \"#utility.yul\":11841:11853   */\n      add\n        /* \"#utility.yul\":11834:11853   */\n      swap1\n      pop\n        /* \"#utility.yul\":11493:11859   */\n      swap2\n      swap1\n      pop\n      jump\t// out\n        /* \"#utility.yul\":11865:12284   */\n    tag_58:\n        /* \"#utility.yul\":12031:12035   */\n      0x00\n        /* \"#utility.yul\":12069:12071   */\n      0x20\n        /* \"#utility.yul\":12058:12067   */\n      dup3\n        /* \"#utility.yul\":12054:12072   */\n      add\n        /* \"#utility.yul\":12046:12072   */\n      swap1\n      pop\n        /* \"#utility.yul\":12118:12127   */\n      dup2\n        /* \"#utility.yul\":12112:12116   */\n      dup2\n        /* \"#utility.yul\":12108:12128   */\n      sub\n        /* \"#utility.yul\":12104:12105   */\n      0x00\n        /* \"#utility.yul\":12093:12102   */\n      dup4\n        /* \"#utility.yul\":12089:12106   */\n      add\n        /* \"#utility.yul\":12082:12129   */\n      mstore\n        /* \"#utility.yul\":12146:12277   */\n      tag_248\n        /* \"#utility.yul\":12272:12276   */\n      dup2\n        /* \"#utility.yul\":12146:12277   */\n      tag_116\n      jump\t// in\n    tag_248:\n        /* \"#utility.yul\":12138:12277   */\n      swap1\n      pop\n        /* \"#utility.yul\":11865:12284   */\n      swap2\n      swap1\n      pop\n      jump\t// out\n        /* \"#utility.yul\":12290:12470   */\n    tag_117:\n        /* \"#utility.yul\":12338:12415   */\n      0x4e487b7100000000000000000000000000000000000000000000000000000000\n        /* \"#utility.yul\":12335:12336   */\n      0x00\n        /* \"#utility.yul\":12328:12416   */\n      mstore\n        /* \"#utility.yul\":12435:12439   */\n      0x11\n        /* \"#utility.yul\":12432:12433   */\n      0x04\n        /* \"#utility.yul\":12425:12440   */\n      mstore\n        /* \"#utility.yul\":12459:12463   */\n      0x24\n        /* \"#utility.yul\":12456:12457   */\n      0x00\n        /* \"#utility.yul\":12449:12464   */\n      revert\n        /* \"#utility.yul\":12476:12670   */\n    tag_61:\n        /* \"#utility.yul\":12516:12520   */\n      0x00\n        /* \"#utility.yul\":12536:12556   */\n      tag_251\n        /* \"#utility.yul\":12554:12555   */\n      dup3\n        /* \"#utility.yul\":12536:12556   */\n      tag_77\n      jump\t// in\n    tag_251:\n        /* \"#utility.yul\":12531:12556   */\n      swap2\n      pop\n        /* \"#utility.yul\":12570:12590   */\n      tag_252\n        /* \"#utility.yul\":12588:12589   */\n      dup4\n        /* \"#utility.yul\":12570:12590   */\n      tag_77\n      jump\t// in\n    tag_252:\n        /* \"#utility.yul\":12565:12590   */\n      swap3\n      pop\n        /* \"#utility.yul\":12614:12615   */\n      dup3\n        /* \"#utility.yul\":12611:12612   */\n      dup3\n        /* \"#utility.yul\":12607:12616   */\n      sub\n        /* \"#utility.yul\":12599:12616   */\n      swap1\n      pop\n        /* \"#utility.yul\":12638:12639   */\n      dup2\n        /* \"#utility.yul\":12632:12636   */\n      dup2\n        /* \"#utility.yul\":12629:12640   */\n      gt\n        /* \"#utility.yul\":12626:12663   */\n      iszero\n      tag_253\n      jumpi\n        /* \"#utility.yul\":12643:12661   */\n      tag_254\n      tag_117\n      jump\t// in\n    tag_254:\n        /* \"#utility.yul\":12626:12663   */\n    tag_253:\n        /* \"#utility.yul\":12476:12670   */\n      swap3\n      swap2\n      pop\n      pop\n      jump\t// out\n        /* \"#utility.yul\":12676:12778   */\n    tag_118:\n        /* \"#utility.yul\":12718:12726   */\n      0x00\n        /* \"#utility.yul\":12765:12770   */\n      dup2\n        /* \"#utility.yul\":12762:12763   */\n      0x01\n        /* \"#utility.yul\":12758:12771   */\n      shr\n        /* \"#utility.yul\":12737:12771   */\n      swap1\n      pop\n        /* \"#utility.yul\":12676:12778   */\n      swap2\n      swap1\n      pop\n      jump\t// out\n        /* \"#utility.yul\":12784:13632   */\n    tag_119:\n        /* \"#utility.yul\":12845:12850   */\n      0x00\n        /* \"#utility.yul\":12852:12856   */\n      dup1\n        /* \"#utility.yul\":12876:12882   */\n      dup3\n        /* \"#utility.yul\":12867:12882   */\n      swap2\n      pop\n        /* \"#utility.yul\":12900:12905   */\n      dup4\n        /* \"#utility.yul\":12891:12905   */\n      swap1\n      pop\n        /* \"#utility.yul\":12914:13626   */\n    tag_257:\n        /* \"#utility.yul\":12935:12936   */\n      0x01\n        /* \"#utility.yul\":12925:12933   */\n      dup6\n        /* \"#utility.yul\":12922:12937   */\n      gt\n        /* \"#utility.yul\":12914:13626   */\n      iszero\n      tag_259\n      jumpi\n        /* \"#utility.yul\":13030:13034   */\n      dup1\n        /* \"#utility.yul\":13025:13028   */\n      dup7\n        /* \"#utility.yul\":13021:13035   */\n      div\n        /* \"#utility.yul\":13015:13019   */\n      dup2\n        /* \"#utility.yul\":13012:13036   */\n      gt\n        /* \"#utility.yul\":13009:13059   */\n      iszero\n      tag_260\n      jumpi\n        /* \"#utility.yul\":13039:13057   */\n      tag_261\n      tag_117\n      jump\t// in\n    tag_261:\n        /* \"#utility.yul\":13009:13059   */\n    tag_260:\n        /* \"#utility.yul\":13089:13090   */\n      0x01\n        /* \"#utility.yul\":13079:13087   */\n      dup6\n        /* \"#utility.yul\":13075:13091   */\n      and\n        /* \"#utility.yul\":13072:13523   */\n      iszero\n      tag_262\n      jumpi\n        /* \"#utility.yul\":13504:13508   */\n      dup1\n        /* \"#utility.yul\":13497:13502   */\n      dup3\n        /* \"#utility.yul\":13493:13509   */\n      mul\n        /* \"#utility.yul\":13484:13509   */\n      swap2\n      pop\n        /* \"#utility.yul\":13072:13523   */\n    tag_262:\n        /* \"#utility.yul\":13554:13558   */\n      dup1\n        /* \"#utility.yul\":13548:13552   */\n      dup2\n        /* \"#utility.yul\":13544:13559   */\n      mul\n        /* \"#utility.yul\":13536:13559   */\n      swap1\n      pop\n        /* \"#utility.yul\":13584:13616   */\n      tag_263\n        /* \"#utility.yul\":13607:13615   */\n      dup6\n        /* \"#utility.yul\":13584:13616   */\n      tag_118\n      jump\t// in\n    tag_263:\n        /* \"#utility.yul\":13572:13616   */\n      swap5\n      pop\n        /* \"#utility.yul\":12914:13626   */\n      jump(tag_257)\n    tag_259:\n        /* \"#utility.yul\":12784:13632   */\n      swap5\n      pop\n      swap5\n      swap3\n      pop\n      pop\n      pop\n      jump\t// out\n        /* \"#utility.yul\":13638:14711   */\n    tag_120:\n        /* \"#utility.yul\":13692:13697   */\n      0x00\n        /* \"#utility.yul\":13883:13891   */\n      dup3\n        /* \"#utility.yul\":13873:13913   */\n      tag_265\n      jumpi\n        /* \"#utility.yul\":13904:13905   */\n      0x01\n        /* \"#utility.yul\":13895:13905   */\n      swap1\n      pop\n        /* \"#utility.yul\":13906:13911   */\n      jump(tag_264)\n        /* \"#utility.yul\":13873:13913   */\n    tag_265:\n        /* \"#utility.yul\":13932:13936   */\n      dup2\n        /* \"#utility.yul\":13922:13958   */\n      tag_266\n      jumpi\n        /* \"#utility.yul\":13949:13950   */\n      0x00\n        /* \"#utility.yul\":13940:13950   */\n      swap1\n      pop\n        /* \"#utility.yul\":13951:13956   */\n      jump(tag_264)\n        /* \"#utility.yul\":13922:13958   */\n    tag_266:\n        /* \"#utility.yul\":14018:14022   */\n      dup2\n        /* \"#utility.yul\":14066:14067   */\n      0x01\n        /* \"#utility.yul\":14061:14088   */\n      dup2\n      eq\n      tag_268\n      jumpi\n        /* \"#utility.yul\":14102:14103   */\n      0x02\n        /* \"#utility.yul\":14097:14288   */\n      dup2\n      eq\n      tag_269\n      jumpi\n        /* \"#utility.yul\":14011:14288   */\n      jump(tag_267)\n        /* \"#utility.yul\":14061:14088   */\n    tag_268:\n        /* \"#utility.yul\":14079:14080   */\n      0x01\n        /* \"#utility.yul\":14070:14080   */\n      swap2\n      pop\n        /* \"#utility.yul\":14081:14086   */\n      pop\n      jump(tag_264)\n        /* \"#utility.yul\":14097:14288   */\n    tag_269:\n        /* \"#utility.yul\":14142:14145   */\n      0xff\n        /* \"#utility.yul\":14132:14140   */\n      dup5\n        /* \"#utility.yul\":14129:14146   */\n      gt\n        /* \"#utility.yul\":14126:14169   */\n      iszero\n      tag_270\n      jumpi\n        /* \"#utility.yul\":14149:14167   */\n      tag_271\n      tag_117\n      jump\t// in\n    tag_271:\n        /* \"#utility.yul\":14126:14169   */\n    tag_270:\n        /* \"#utility.yul\":14198:14206   */\n      dup4\n        /* \"#utility.yul\":14195:14196   */\n      0x02\n        /* \"#utility.yul\":14191:14207   */\n      exp\n        /* \"#utility.yul\":14182:14207   */\n      swap2\n      pop\n        /* \"#utility.yul\":14233:14236   */\n      dup5\n        /* \"#utility.yul\":14226:14231   */\n      dup3\n        /* \"#utility.yul\":14223:14237   */\n      gt\n        /* \"#utility.yul\":14220:14260   */\n      iszero\n      tag_272\n      jumpi\n        /* \"#utility.yul\":14240:14258   */\n      tag_273\n      tag_117\n      jump\t// in\n    tag_273:\n        /* \"#utility.yul\":14220:14260   */\n    tag_272:\n        /* \"#utility.yul\":14273:14278   */\n      pop\n      jump(tag_264)\n        /* \"#utility.yul\":14011:14288   */\n    tag_267:\n      pop\n        /* \"#utility.yul\":14397:14399   */\n      0x20\n        /* \"#utility.yul\":14387:14395   */\n      dup4\n        /* \"#utility.yul\":14384:14400   */\n      lt\n        /* \"#utility.yul\":14378:14381   */\n      0x0133\n        /* \"#utility.yul\":14372:14376   */\n      dup4\n        /* \"#utility.yul\":14369:14382   */\n      lt\n        /* \"#utility.yul\":14365:14401   */\n      and\n        /* \"#utility.yul\":14347:14349   */\n      0x4e\n        /* \"#utility.yul\":14337:14345   */\n      dup5\n        /* \"#utility.yul\":14334:14350   */\n      lt\n        /* \"#utility.yul\":14329:14331   */\n      0x0b\n        /* \"#utility.yul\":14323:14327   */\n      dup5\n        /* \"#utility.yul\":14320:14332   */\n      lt\n        /* \"#utility.yul\":14316:14351   */\n      and\n        /* \"#utility.yul\":14300:14411   */\n      or\n        /* \"#utility.yul\":14297:14543   */\n      iszero\n      tag_274\n      jumpi\n        /* \"#utility.yul\":14453:14461   */\n      dup3\n        /* \"#utility.yul\":14447:14451   */\n      dup3\n        /* \"#utility.yul\":14443:14462   */\n      exp\n        /* \"#utility.yul\":14434:14462   */\n      swap1\n      pop\n        /* \"#utility.yul\":14488:14491   */\n      dup4\n        /* \"#utility.yul\":14481:14486   */\n      dup2\n        /* \"#utility.yul\":14478:14492   */\n      gt\n        /* \"#utility.yul\":14475:14515   */\n      iszero\n      tag_275\n      jumpi\n        /* \"#utility.yul\":14495:14513   */\n      tag_276\n      tag_117\n      jump\t// in\n    tag_276:\n        /* \"#utility.yul\":14475:14515   */\n    tag_275:\n        /* \"#utility.yul\":14528:14533   */\n      jump(tag_264)\n        /* \"#utility.yul\":14297:14543   */\n    tag_274:\n        /* \"#utility.yul\":14568:14610   */\n      tag_277\n        /* \"#utility.yul\":14606:14609   */\n      dup5\n        /* \"#utility.yul\":14596:14604   */\n      dup5\n        /* \"#utility.yul\":14590:14594   */\n      dup5\n        /* \"#utility.yul\":14587:14588   */\n      0x01\n        /* \"#utility.yul\":14568:14610   */\n      tag_119\n      jump\t// in\n    tag_277:\n        /* \"#utility.yul\":14553:14610   */\n      swap3\n      pop\n      swap1\n      pop\n        /* \"#utility.yul\":14642:14646   */\n      dup2\n        /* \"#utility.yul\":14637:14640   */\n      dup5\n        /* \"#utility.yul\":14633:14647   */\n      div\n        /* \"#utility.yul\":14626:14631   */\n      dup2\n        /* \"#utility.yul\":14623:14648   */\n      gt\n        /* \"#utility.yul\":14620:14671   */\n      iszero\n      tag_278\n      jumpi\n        /* \"#utility.yul\":14651:14669   */\n      tag_279\n      tag_117\n      jump\t// in\n    tag_279:\n        /* \"#utility.yul\":14620:14671   */\n    tag_278:\n        /* \"#utility.yul\":14700:14704   */\n      dup2\n        /* \"#utility.yul\":14693:14698   */\n      dup2\n        /* \"#utility.yul\":14689:14705   */\n      mul\n        /* \"#utility.yul\":14680:14705   */\n      swap1\n      pop\n        /* \"#utility.yul\":13638:14711   */\n    tag_264:\n      swap4\n      swap3\n      pop\n      pop\n      pop\n      jump\t// out\n        /* \"#utility.yul\":14717:15002   */\n    tag_63:\n        /* \"#utility.yul\":14777:14782   */\n      0x00\n        /* \"#utility.yul\":14801:14824   */\n      tag_281\n        /* \"#utility.yul\":14819:14823   */\n      dup3\n        /* \"#utility.yul\":14801:14824   */\n      tag_77\n      jump\t// in\n    tag_281:\n        /* \"#utility.yul\":14793:14824   */\n      swap2\n      pop\n        /* \"#utility.yul\":14845:14872   */\n      tag_282\n        /* \"#utility.yul\":14863:14871   */\n      dup4\n        /* \"#utility.yul\":14845:14872   */\n      tag_77\n      jump\t// in\n    tag_282:\n        /* \"#utility.yul\":14833:14872   */\n      swap3\n      pop\n        /* \"#utility.yul\":14891:14995   */\n      tag_283\n        /* \"#utility.yul\":14928:14994   */\n      0xffffffffffffffffffffffffffffffffffffffffffffffffffffffffffffffff\n        /* \"#utility.yul\":14918:14926   */\n      dup5\n        /* \"#utility.yul\":14912:14916   */\n      dup5\n        /* \"#utility.yul\":14891:14995   */\n      tag_120\n      jump\t// in\n    tag_283:\n        /* \"#utility.yul\":14882:14995   */\n      swap1\n      pop\n        /* \"#utility.yul\":14717:15002   */\n      swap3\n      swap2\n      pop\n      pop\n      jump\t// out\n        /* \"#utility.yul\":15008:15418   */\n    tag_65:\n        /* \"#utility.yul\":15048:15055   */\n      0x00\n        /* \"#utility.yul\":15071:15091   */\n      tag_285\n        /* \"#utility.yul\":15089:15090   */\n      dup3\n        /* \"#utility.yul\":15071:15091   */\n      tag_77\n      jump\t// in\n    tag_285:\n        /* \"#utility.yul\":15066:15091   */\n      swap2\n      pop\n        /* \"#utility.yul\":15105:15125   */\n      tag_286\n        /* \"#utility.yul\":15123:15124   */\n      dup4\n        /* \"#utility.yul\":15105:15125   */\n      tag_77\n      jump\t// in\n    tag_286:\n        /* \"#utility.yul\":15100:15125   */\n      swap3\n      pop\n        /* \"#utility.yul\":15160:15161   */\n      dup3\n        /* \"#utility.yul\":15157:15158   */\n      dup3\n        /* \"#utility.yul\":15153:15162   */\n      mul\n        /* \"#utility.yul\":15182:15212   */\n      tag_287\n        /* \"#utility.yul\":15200:15211   */\n      dup2\n        /* \"#utility.yul\":15182:15212   */\n      tag_77\n      jump\t// in\n    tag_287:\n        /* \"#utility.yul\":15171:15212   */\n      swap2\n      pop\n        /* \"#utility.yul\":15361:15362   */\n      dup3\n        /* \"#utility.yul\":15352:15359   */\n      dup3\n        /* \"#utility.yul\":15348:15363   */\n      div\n        /* \"#utility.yul\":15345:15346   */\n      dup5\n        /* \"#utility.yul\":15342:15364   */\n      eq\n        /* \"#utility.yul\":15322:15323   */\n      dup4\n        /* \"#utility.yul\":15315:15324   */\n      iszero\n        /* \"#utility.yul\":15295:15378   */\n      or\n        /* \"#utility.yul\":15272:15411   */\n      tag_288\n      jumpi\n        /* \"#utility.yul\":15391:15409   */\n      tag_289\n      tag_117\n      jump\t// in\n    tag_289:\n        /* \"#utility.yul\":15272:15411   */\n    tag_288:\n        /* \"#utility.yul\":15056:15418   */\n      pop\n        /* \"#utility.yul\":15008:15418   */\n      swap3\n      swap2\n      pop\n      pop\n      jump\t// out\n        /* \"#utility.yul\":15424:15604   */\n    tag_121:\n        /* \"#utility.yul\":15472:15549   */\n      0x4e487b7100000000000000000000000000000000000000000000000000000000\n        /* \"#utility.yul\":15469:15470   */\n      0x00\n        /* \"#utility.yul\":15462:15550   */\n      mstore\n        /* \"#utility.yul\":15569:15573   */\n      0x12\n        /* \"#utility.yul\":15566:15567   */\n      0x04\n        /* \"#utility.yul\":15559:15574   */\n      mstore\n        /* \"#utility.yul\":15593:15597   */\n      0x24\n        /* \"#utility.yul\":15590:15591   */\n      0x00\n        /* \"#utility.yul\":15583:15598   */\n      revert\n        /* \"#utility.yul\":15610:15795   */\n    tag_72:\n        /* \"#utility.yul\":15650:15651   */\n      0x00\n        /* \"#utility.yul\":15667:15687   */\n      tag_292\n        /* \"#utility.yul\":15685:15686   */\n      dup3\n        /* \"#utility.yul\":15667:15687   */\n      tag_77\n      jump\t// in\n    tag_292:\n        /* \"#utility.yul\":15662:15687   */\n      swap2\n      pop\n        /* \"#utility.yul\":15701:15721   */\n      tag_293\n        /* \"#utility.yul\":15719:15720   */\n      dup4\n        /* \"#utility.yul\":15701:15721   */\n      tag_77\n      jump\t// in\n    tag_293:\n        /* \"#utility.yul\":15696:15721   */\n      swap3\n      pop\n        /* \"#utility.yul\":15740:15741   */\n      dup3\n        /* \"#utility.yul\":15730:15765   */\n      tag_294\n      jumpi\n        /* \"#utility.yul\":15745:15763   */\n      tag_295\n      tag_121\n      jump\t// in\n    tag_295:\n        /* \"#utility.yul\":15730:15765   */\n    tag_294:\n        /* \"#utility.yul\":15787:15788   */\n      dup3\n        /* \"#utility.yul\":15784:15785   */\n      dup3\n        /* \"#utility.yul\":15780:15789   */\n      div\n        /* \"#utility.yul\":15775:15789   */\n      swap1\n      pop\n        /* \"#utility.yul\":15610:15795   */\n      swap3\n      swap2\n      pop\n      pop\n      jump\t// out\n        /* \"#utility.yul\":15801:15949   */\n    tag_122:\n        /* \"#utility.yul\":15903:15914   */\n      0x00\n        /* \"#utility.yul\":15940:15943   */\n      dup2\n        /* \"#utility.yul\":15925:15943   */\n      swap1\n      pop\n        /* \"#utility.yul\":15801:15949   */\n      swap3\n      swap2\n      pop\n      pop\n      jump\t// out\n        /* \"#utility.yul\":15955:16345   */\n    tag_123:\n        /* \"#utility.yul\":16061:16064   */\n      0x00\n        /* \"#utility.yul\":16089:16128   */\n      tag_298\n        /* \"#utility.yul\":16122:16127   */\n      dup3\n        /* \"#utility.yul\":16089:16128   */\n      tag_79\n      jump\t// in\n    tag_298:\n        /* \"#utility.yul\":16144:16233   */\n      tag_299\n        /* \"#utility.yul\":16226:16232   */\n      dup2\n        /* \"#utility.yul\":16221:16224   */\n      dup6\n        /* \"#utility.yul\":16144:16233   */\n      tag_122\n      jump\t// in\n    tag_299:\n        /* \"#utility.yul\":16137:16233   */\n      swap4\n      pop\n        /* \"#utility.yul\":16242:16307   */\n      tag_300\n        /* \"#utility.yul\":16300:16306   */\n      dup2\n        /* \"#utility.yul\":16295:16298   */\n      dup6\n        /* \"#utility.yul\":16288:16292   */\n      0x20\n        /* \"#utility.yul\":16281:16286   */\n      dup7\n        /* \"#utility.yul\":16277:16293   */\n      add\n        /* \"#utility.yul\":16242:16307   */\n      tag_81\n      jump\t// in\n    tag_300:\n        /* \"#utility.yul\":16332:16338   */\n      dup1\n        /* \"#utility.yul\":16327:16330   */\n      dup5\n        /* \"#utility.yul\":16323:16339   */\n      add\n        /* \"#utility.yul\":16316:16339   */\n      swap2\n      pop\n        /* \"#utility.yul\":16065:16345   */\n      pop\n        /* \"#utility.yul\":15955:16345   */\n      swap3\n      swap2\n      pop\n      pop\n      jump\t// out\n        /* \"#utility.yul\":16351:16529   */\n    tag_124:\n        /* \"#utility.yul\":16519:16522   */\n      0x2f00000000000000000000000000000000000000000000000000000000000000\n        /* \"#utility.yul\":16514:16517   */\n      dup2\n        /* \"#utility.yul\":16507:16523   */\n      mstore\n        /* \"#utility.yul\":16351:16529   */\n      pop\n      jump\t// out\n        /* \"#utility.yul\":16535:17234   */\n    tag_76:\n        /* \"#utility.yul\":16805:16808   */\n      0x00\n        /* \"#utility.yul\":16827:16922   */\n      tag_303\n        /* \"#utility.yul\":16918:16921   */\n      dup3\n        /* \"#utility.yul\":16909:16915   */\n      dup6\n        /* \"#utility.yul\":16827:16922   */\n      tag_123\n      jump\t// in\n    tag_303:\n        /* \"#utility.yul\":16820:16922   */\n      swap2\n      pop\n        /* \"#utility.yul\":16932:17069   */\n      tag_304\n        /* \"#utility.yul\":17065:17068   */\n      dup3\n        /* \"#utility.yul\":16932:17069   */\n      tag_124\n      jump\t// in\n    tag_304:\n        /* \"#utility.yul\":17094:17095   */\n      0x01\n        /* \"#utility.yul\":17089:17092   */\n      dup3\n        /* \"#utility.yul\":17085:17096   */\n      add\n        /* \"#utility.yul\":17078:17096   */\n      swap2\n      pop\n        /* \"#utility.yul\":17113:17208   */\n      tag_305\n        /* \"#utility.yul\":17204:17207   */\n      dup3\n        /* \"#utility.yul\":17195:17201   */\n      dup5\n        /* \"#utility.yul\":17113:17208   */\n      tag_123\n      jump\t// in\n    tag_305:\n        /* \"#utility.yul\":17106:17208   */\n      swap2\n      pop\n        /* \"#utility.yul\":17225:17228   */\n      dup2\n        /* \"#utility.yul\":17218:17228   */\n      swap1\n      pop\n        /* \"#utility.yul\":16535:17234   */\n      swap4\n      swap3\n      pop\n      pop\n      pop\n      jump\t// out\n\n    auxdata: 0xa2646970667358221220de28e7127afcf444c19b71d523c576663a7e2a62db44e701b7fcf5807c7a996764736f6c63430008170033\n}\n",
				"bytecode": {
					"linkReferences": {},
					"object": "608060405234801561001057600080fd5b506111c4806100206000396000f3fe608060405234801561001057600080fd5b50600436106100365760003560e01c8063454d12561461003b578063cd5ea1c61461005c575b600080fd5b610043610078565b604051610053949392919061087d565b60405180910390f35b6100766004803603810190610071919061093b565b61057a565b005b600080606060008060008060008054906101000a900473ffffffffffffffffffffffffffffffffffffffff1673ffffffffffffffffffffffffffffffffffffffff16630902f1ac6040518163ffffffff1660e01b81526004016060604051808303816000875af11580156100f0573d6000803e3d6000fd5b505050506040513d601f19601f8201168201806040525081019061011491906109ea565b92506dffffffffffffffffffffffffffff1692506dffffffffffffffffffffffffffff16925060008060009054906101000a900473ffffffffffffffffffffffffffffffffffffffff1673ffffffffffffffffffffffffffffffffffffffff16630dfe16816040518163ffffffff1660e01b81526004016020604051808303816000875af11580156101aa573d6000803e3d6000fd5b505050506040513d601f19601f820116820180604052508101906101ce9190610a52565b905060008060009054906101000a900473ffffffffffffffffffffffffffffffffffffffff1673ffffffffffffffffffffffffffffffffffffffff1663d21220a76040518163ffffffff1660e01b81526004016020604051808303816000875af1158015610240573d6000803e3d6000fd5b505050506040513d601f19601f820116820180604052508101906102649190610a52565b905081600160006101000a81548173ffffffffffffffffffffffffffffffffffffffff021916908373ffffffffffffffffffffffffffffffffffffffff16021790555080600260006101000a81548173ffffffffffffffffffffffffffffffffffffffff021916908373ffffffffffffffffffffffffffffffffffffffff1602179055506000600160009054906101000a900473ffffffffffffffffffffffffffffffffffffffff1673ffffffffffffffffffffffffffffffffffffffff1663313ce5676040518163ffffffff1660e01b81526004016020604051808303816000875af1158015610359573d6000803e3d6000fd5b505050506040513d601f19601f8201168201806040525081019061037d9190610ab8565b60ff1690506000600260009054906101000a900473ffffffffffffffffffffffffffffffffffffffff1673ffffffffffffffffffffffffffffffffffffffff1663313ce5676040518163ffffffff1660e01b81526004016020604051808303816000875af11580156103f3573d6000803e3d6000fd5b505050506040513d601f19601f820116820180604052508101906104179190610ab8565b60ff1690506000600160009054906101000a900473ffffffffffffffffffffffffffffffffffffffff1673ffffffffffffffffffffffffffffffffffffffff166306fdde036040518163ffffffff1660e01b81526004016000604051808303816000875af115801561048d573d6000803e3d6000fd5b505050506040513d6000823e3d601f19601f820116820180604052508101906104b69190610c0b565b90506000600260009054906101000a900473ffffffffffffffffffffffffffffffffffffffff1673ffffffffffffffffffffffffffffffffffffffff166306fdde036040518163ffffffff1660e01b81526004016000604051808303816000875af1158015610529573d6000803e3d6000fd5b505050506040513d6000823e3d601f19601f820116820180604052508101906105529190610c0b565b90506105638985848b87868d6105bd565b9c509c509c509c5050505050505050505090919293565b806000806101000a81548173ffffffffffffffffffffffffffffffffffffffff021916908373ffffffffffffffffffffffffffffffffffffffff16021790555050565b600080606060008089511180156105d5575060008651115b610614576040517f08c379a000000000000000000000000000000000000000000000000000000000815260040161060b90610ca0565b60405180910390fd5b60128a11158015610626575060128711155b610665576040517f08c379a000000000000000000000000000000000000000000000000000000000815260040161065c90610d32565b60405180910390fd5b60008a1180156106755750600087115b6106b4576040517f08c379a00000000000000000000000000000000000000000000000000000000081526004016106ab90610dc4565b60405180910390fd5b60008b1180156106c45750600088115b610703576040517f08c379a00000000000000000000000000000000000000000000000000000000081526004016106fa90610e56565b60405180910390fd5b868a111561073557868a6107179190610ea5565b600a610723919061100c565b8861072e9190611057565b975061075b565b89876107419190610ea5565b600a61074d919061100c565b8b6107589190611057565b9a505b6305f5e10080896305f5e1008e6107729190611057565b61077c91906110c8565b6107869190611057565b61079091906110c8565b60088a886040516020016107a592919061115b565b604051602081830303815290604052878063ffffffff1690509350935093509350975097509750979350505050565b6000819050919050565b6107e7816107d4565b82525050565b600081519050919050565b600082825260208201905092915050565b60005b8381101561082757808201518184015260208101905061080c565b60008484015250505050565b6000601f19601f8301169050919050565b600061084f826107ed565b61085981856107f8565b9350610869818560208601610809565b61087281610833565b840191505092915050565b600060808201905061089260008301876107de565b61089f60208301866107de565b81810360408301526108b18185610844565b90506108c060608301846107de565b95945050505050565b6000604051905090565b600080fd5b600080fd5b600073ffffffffffffffffffffffffffffffffffffffff82169050919050565b6000610908826108dd565b9050919050565b610918816108fd565b811461092357600080fd5b50565b6000813590506109358161090f565b92915050565b600060208284031215610951576109506108d3565b5b600061095f84828501610926565b91505092915050565b60006dffffffffffffffffffffffffffff82169050919050565b61098b81610968565b811461099657600080fd5b50565b6000815190506109a881610982565b92915050565b600063ffffffff82169050919050565b6109c7816109ae565b81146109d257600080fd5b50565b6000815190506109e4816109be565b92915050565b600080600060608486031215610a0357610a026108d3565b5b6000610a1186828701610999565b9350506020610a2286828701610999565b9250506040610a33868287016109d5565b9150509250925092565b600081519050610a4c8161090f565b92915050565b600060208284031215610a6857610a676108d3565b5b6000610a7684828501610a3d565b91505092915050565b600060ff82169050919050565b610a9581610a7f565b8114610aa057600080fd5b50565b600081519050610ab281610a8c565b92915050565b600060208284031215610ace57610acd6108d3565b5b6000610adc84828501610aa3565b91505092915050565b600080fd5b600080fd5b7f4e487b7100000000000000000000000000000000000000000000000000000000600052604160045260246000fd5b610b2782610833565b810181811067ffffffffffffffff82111715610b4657610b45610aef565b5b80604052505050565b6000610b596108c9565b9050610b658282610b1e565b919050565b600067ffffffffffffffff821115610b8557610b84610aef565b5b610b8e82610833565b9050602081019050919050565b6000610bae610ba984610b6a565b610b4f565b905082815260208101848484011115610bca57610bc9610aea565b5b610bd5848285610809565b509392505050565b600082601f830112610bf257610bf1610ae5565b5b8151610c02848260208601610b9b565b91505092915050565b600060208284031215610c2157610c206108d3565b5b600082015167ffffffffffffffff811115610c3f57610c3e6108d8565b5b610c4b84828501610bdd565b91505092915050565b7f4d697373696e6720696e70757420666f7220746f6b656e206e616d6521000000600082015250565b6000610c8a601d836107f8565b9150610c9582610c54565b602082019050919050565b60006020820190508181036000830152610cb981610c7d565b9050919050565b7f446563696d616c732073686f756c64206265206c657373207468616e206f722060008201527f657175616c20746f203138000000000000000000000000000000000000000000602082015250565b6000610d1c602b836107f8565b9150610d2782610cc0565b604082019050919050565b60006020820190508181036000830152610d4b81610d0f565b9050919050565b7f446563696d616c732073686f756c642062652067726561746572207468616e2060008201527f3000000000000000000000000000000000000000000000000000000000000000602082015250565b6000610dae6021836107f8565b9150610db982610d52565b604082019050919050565b60006020820190508181036000830152610ddd81610da1565b9050919050565b7f546f6b656e2076616c7565732073686f756c642062652067726561746572207460008201527f68616e2030000000000000000000000000000000000000000000000000000000602082015250565b6000610e406025836107f8565b9150610e4b82610de4565b604082019050919050565b60006020820190508181036000830152610e6f81610e33565b9050919050565b7f4e487b7100000000000000000000000000000000000000000000000000000000600052601160045260246000fd5b6000610eb0826107d4565b9150610ebb836107d4565b9250828203905081811115610ed357610ed2610e76565b5b92915050565b60008160011c9050919050565b6000808291508390505b6001851115610f3057808604811115610f0c57610f0b610e76565b5b6001851615610f1b5780820291505b8081029050610f2985610ed9565b9450610ef0565b94509492505050565b600082610f495760019050611005565b81610f575760009050611005565b8160018114610f6d5760028114610f7757610fa6565b6001915050611005565b60ff841115610f8957610f88610e76565b5b8360020a915084821115610fa057610f9f610e76565b5b50611005565b5060208310610133831016604e8410600b8410161715610fdb5782820a905083811115610fd657610fd5610e76565b5b611005565b610fe88484846001610ee6565b92509050818404811115610fff57610ffe610e76565b5b81810290505b9392505050565b6000611017826107d4565b9150611022836107d4565b925061104f7fffffffffffffffffffffffffffffffffffffffffffffffffffffffffffffffff8484610f39565b905092915050565b6000611062826107d4565b915061106d836107d4565b925082820261107b816107d4565b9150828204841483151761109257611091610e76565b5b5092915050565b7f4e487b7100000000000000000000000000000000000000000000000000000000600052601260045260246000fd5b60006110d3826107d4565b91506110de836107d4565b9250826110ee576110ed611099565b5b828204905092915050565b600081905092915050565b600061110f826107ed565b61111981856110f9565b9350611129818560208601610809565b80840191505092915050565b7f2f00000000000000000000000000000000000000000000000000000000000000815250565b60006111678285611104565b915061117282611135565b6001820191506111828284611104565b9150819050939250505056fea2646970667358221220de28e7127afcf444c19b71d523c576663a7e2a62db44e701b7fcf5807c7a996764736f6c63430008170033",
					"opcodes": "PUSH1 0x80 PUSH1 0x40 MSTORE CALLVALUE DUP1 ISZERO PUSH2 0x10 JUMPI PUSH1 0x0 DUP1 REVERT JUMPDEST POP PUSH2 0x11C4 DUP1 PUSH2 0x20 PUSH1 0x0 CODECOPY PUSH1 0x0 RETURN INVALID PUSH1 0x80 PUSH1 0x40 MSTORE CALLVALUE DUP1 ISZERO PUSH2 0x10 JUMPI PUSH1 0x0 DUP1 REVERT JUMPDEST POP PUSH1 0x4 CALLDATASIZE LT PUSH2 0x36 JUMPI PUSH1 0x0 CALLDATALOAD PUSH1 0xE0 SHR DUP1 PUSH4 0x454D1256 EQ PUSH2 0x3B JUMPI DUP1 PUSH4 0xCD5EA1C6 EQ PUSH2 0x5C JUMPI JUMPDEST PUSH1 0x0 DUP1 REVERT JUMPDEST PUSH2 0x43 PUSH2 0x78 JUMP JUMPDEST PUSH1 0x40 MLOAD PUSH2 0x53 SWAP5 SWAP4 SWAP3 SWAP2 SWAP1 PUSH2 0x87D JUMP JUMPDEST PUSH1 0x40 MLOAD DUP1 SWAP2 SUB SWAP1 RETURN JUMPDEST PUSH2 0x76 PUSH1 0x4 DUP1 CALLDATASIZE SUB DUP2 ADD SWAP1 PUSH2 0x71 SWAP2 SWAP1 PUSH2 0x93B JUMP JUMPDEST PUSH2 0x57A JUMP JUMPDEST STOP JUMPDEST PUSH1 0x0 DUP1 PUSH1 0x60 PUSH1 0x0 DUP1 PUSH1 0x0 DUP1 PUSH1 0x0 DUP1 SLOAD SWAP1 PUSH2 0x100 EXP SWAP1 DIV PUSH20 0xFFFFFFFFFFFFFFFFFFFFFFFFFFFFFFFFFFFFFFFF AND PUSH20 0xFFFFFFFFFFFFFFFFFFFFFFFFFFFFFFFFFFFFFFFF AND PUSH4 0x902F1AC PUSH1 0x40 MLOAD DUP2 PUSH4 0xFFFFFFFF AND PUSH1 0xE0 SHL DUP2 MSTORE PUSH1 0x4 ADD PUSH1 0x60 PUSH1 0x40 MLOAD DUP1 DUP4 SUB DUP2 PUSH1 0x0 DUP8 GAS CALL ISZERO DUP1 ISZERO PUSH2 0xF0 JUMPI RETURNDATASIZE PUSH1 0x0 DUP1 RETURNDATACOPY RETURNDATASIZE PUSH1 0x0 REVERT JUMPDEST POP POP POP POP PUSH1 0x40 MLOAD RETURNDATASIZE PUSH1 0x1F NOT PUSH1 0x1F DUP3 ADD AND DUP3 ADD DUP1 PUSH1 0x40 MSTORE POP DUP2 ADD SWAP1 PUSH2 0x114 SWAP2 SWAP1 PUSH2 0x9EA JUMP JUMPDEST SWAP3 POP PUSH14 0xFFFFFFFFFFFFFFFFFFFFFFFFFFFF AND SWAP3 POP PUSH14 0xFFFFFFFFFFFFFFFFFFFFFFFFFFFF AND SWAP3 POP PUSH1 0x0 DUP1 PUSH1 0x0 SWAP1 SLOAD SWAP1 PUSH2 0x100 EXP SWAP1 DIV PUSH20 0xFFFFFFFFFFFFFFFFFFFFFFFFFFFFFFFFFFFFFFFF AND PUSH20 0xFFFFFFFFFFFFFFFFFFFFFFFFFFFFFFFFFFFFFFFF AND PUSH4 0xDFE1681 PUSH1 0x40 MLOAD DUP2 PUSH4 0xFFFFFFFF AND PUSH1 0xE0 SHL DUP2 MSTORE PUSH1 0x4 ADD PUSH1 0x20 PUSH1 0x40 MLOAD DUP1 DUP4 SUB DUP2 PUSH1 0x0 DUP8 GAS CALL ISZERO DUP1 ISZERO PUSH2 0x1AA JUMPI RETURNDATASIZE PUSH1 0x0 DUP1 RETURNDATACOPY RETURNDATASIZE PUSH1 0x0 REVERT JUMPDEST POP POP POP POP PUSH1 0x40 MLOAD RETURNDATASIZE PUSH1 0x1F NOT PUSH1 0x1F DUP3 ADD AND DUP3 ADD DUP1 PUSH1 0x40 MSTORE POP DUP2 ADD SWAP1 PUSH2 0x1CE SWAP2 SWAP1 PUSH2 0xA52 JUMP JUMPDEST SWAP1 POP PUSH1 0x0 DUP1 PUSH1 0x0 SWAP1 SLOAD SWAP1 PUSH2 0x100 EXP SWAP1 DIV PUSH20 0xFFFFFFFFFFFFFFFFFFFFFFFFFFFFFFFFFFFFFFFF AND PUSH20 0xFFFFFFFFFFFFFFFFFFFFFFFFFFFFFFFFFFFFFFFF AND PUSH4 0xD21220A7 PUSH1 0x40 MLOAD DUP2 PUSH4 0xFFFFFFFF AND PUSH1 0xE0 SHL DUP2 MSTORE PUSH1 0x4 ADD PUSH1 0x20 PUSH1 0x40 MLOAD DUP1 DUP4 SUB DUP2 PUSH1 0x0 DUP8 GAS CALL ISZERO DUP1 ISZERO PUSH2 0x240 JUMPI RETURNDATASIZE PUSH1 0x0 DUP1 RETURNDATACOPY RETURNDATASIZE PUSH1 0x0 REVERT JUMPDEST POP POP POP POP PUSH1 0x40 MLOAD RETURNDATASIZE PUSH1 0x1F NOT PUSH1 0x1F DUP3 ADD AND DUP3 ADD DUP1 PUSH1 0x40 MSTORE POP DUP2 ADD SWAP1 PUSH2 0x264 SWAP2 SWAP1 PUSH2 0xA52 JUMP JUMPDEST SWAP1 POP DUP2 PUSH1 0x1 PUSH1 0x0 PUSH2 0x100 EXP DUP2 SLOAD DUP2 PUSH20 0xFFFFFFFFFFFFFFFFFFFFFFFFFFFFFFFFFFFFFFFF MUL NOT AND SWAP1 DUP4 PUSH20 0xFFFFFFFFFFFFFFFFFFFFFFFFFFFFFFFFFFFFFFFF AND MUL OR SWAP1 SSTORE POP DUP1 PUSH1 0x2 PUSH1 0x0 PUSH2 0x100 EXP DUP2 SLOAD DUP2 PUSH20 0xFFFFFFFFFFFFFFFFFFFFFFFFFFFFFFFFFFFFFFFF MUL NOT AND SWAP1 DUP4 PUSH20 0xFFFFFFFFFFFFFFFFFFFFFFFFFFFFFFFFFFFFFFFF AND MUL OR SWAP1 SSTORE POP PUSH1 0x0 PUSH1 0x1 PUSH1 0x0 SWAP1 SLOAD SWAP1 PUSH2 0x100 EXP SWAP1 DIV PUSH20 0xFFFFFFFFFFFFFFFFFFFFFFFFFFFFFFFFFFFFFFFF AND PUSH20 0xFFFFFFFFFFFFFFFFFFFFFFFFFFFFFFFFFFFFFFFF AND PUSH4 0x313CE567 PUSH1 0x40 MLOAD DUP2 PUSH4 0xFFFFFFFF AND PUSH1 0xE0 SHL DUP2 MSTORE PUSH1 0x4 ADD PUSH1 0x20 PUSH1 0x40 MLOAD DUP1 DUP4 SUB DUP2 PUSH1 0x0 DUP8 GAS CALL ISZERO DUP1 ISZERO PUSH2 0x359 JUMPI RETURNDATASIZE PUSH1 0x0 DUP1 RETURNDATACOPY RETURNDATASIZE PUSH1 0x0 REVERT JUMPDEST POP POP POP POP PUSH1 0x40 MLOAD RETURNDATASIZE PUSH1 0x1F NOT PUSH1 0x1F DUP3 ADD AND DUP3 ADD DUP1 PUSH1 0x40 MSTORE POP DUP2 ADD SWAP1 PUSH2 0x37D SWAP2 SWAP1 PUSH2 0xAB8 JUMP JUMPDEST PUSH1 0xFF AND SWAP1 POP PUSH1 0x0 PUSH1 0x2 PUSH1 0x0 SWAP1 SLOAD SWAP1 PUSH2 0x100 EXP SWAP1 DIV PUSH20 0xFFFFFFFFFFFFFFFFFFFFFFFFFFFFFFFFFFFFFFFF AND PUSH20 0xFFFFFFFFFFFFFFFFFFFFFFFFFFFFFFFFFFFFFFFF AND PUSH4 0x313CE567 PUSH1 0x40 MLOAD DUP2 PUSH4 0xFFFFFFFF AND PUSH1 0xE0 SHL DUP2 MSTORE PUSH1 0x4 ADD PUSH1 0x20 PUSH1 0x40 MLOAD DUP1 DUP4 SUB DUP2 PUSH1 0x0 DUP8 GAS CALL ISZERO DUP1 ISZERO PUSH2 0x3F3 JUMPI RETURNDATASIZE PUSH1 0x0 DUP1 RETURNDATACOPY RETURNDATASIZE PUSH1 0x0 REVERT JUMPDEST POP POP POP POP PUSH1 0x40 MLOAD RETURNDATASIZE PUSH1 0x1F NOT PUSH1 0x1F DUP3 ADD AND DUP3 ADD DUP1 PUSH1 0x40 MSTORE POP DUP2 ADD SWAP1 PUSH2 0x417 SWAP2 SWAP1 PUSH2 0xAB8 JUMP JUMPDEST PUSH1 0xFF AND SWAP1 POP PUSH1 0x0 PUSH1 0x1 PUSH1 0x0 SWAP1 SLOAD SWAP1 PUSH2 0x100 EXP SWAP1 DIV PUSH20 0xFFFFFFFFFFFFFFFFFFFFFFFFFFFFFFFFFFFFFFFF AND PUSH20 0xFFFFFFFFFFFFFFFFFFFFFFFFFFFFFFFFFFFFFFFF AND PUSH4 0x6FDDE03 PUSH1 0x40 MLOAD DUP2 PUSH4 0xFFFFFFFF AND PUSH1 0xE0 SHL DUP2 MSTORE PUSH1 0x4 ADD PUSH1 0x0 PUSH1 0x40 MLOAD DUP1 DUP4 SUB DUP2 PUSH1 0x0 DUP8 GAS CALL ISZERO DUP1 ISZERO PUSH2 0x48D JUMPI RETURNDATASIZE PUSH1 0x0 DUP1 RETURNDATACOPY RETURNDATASIZE PUSH1 0x0 REVERT JUMPDEST POP POP POP POP PUSH1 0x40 MLOAD RETURNDATASIZE PUSH1 0x0 DUP3 RETURNDATACOPY RETURNDATASIZE PUSH1 0x1F NOT PUSH1 0x1F DUP3 ADD AND DUP3 ADD DUP1 PUSH1 0x40 MSTORE POP DUP2 ADD SWAP1 PUSH2 0x4B6 SWAP2 SWAP1 PUSH2 0xC0B JUMP JUMPDEST SWAP1 POP PUSH1 0x0 PUSH1 0x2 PUSH1 0x0 SWAP1 SLOAD SWAP1 PUSH2 0x100 EXP SWAP1 DIV PUSH20 0xFFFFFFFFFFFFFFFFFFFFFFFFFFFFFFFFFFFFFFFF AND PUSH20 0xFFFFFFFFFFFFFFFFFFFFFFFFFFFFFFFFFFFFFFFF AND PUSH4 0x6FDDE03 PUSH1 0x40 MLOAD DUP2 PUSH4 0xFFFFFFFF AND PUSH1 0xE0 SHL DUP2 MSTORE PUSH1 0x4 ADD PUSH1 0x0 PUSH1 0x40 MLOAD DUP1 DUP4 SUB DUP2 PUSH1 0x0 DUP8 GAS CALL ISZERO DUP1 ISZERO PUSH2 0x529 JUMPI RETURNDATASIZE PUSH1 0x0 DUP1 RETURNDATACOPY RETURNDATASIZE PUSH1 0x0 REVERT JUMPDEST POP POP POP POP PUSH1 0x40 MLOAD RETURNDATASIZE PUSH1 0x0 DUP3 RETURNDATACOPY RETURNDATASIZE PUSH1 0x1F NOT PUSH1 0x1F DUP3 ADD AND DUP3 ADD DUP1 PUSH1 0x40 MSTORE POP DUP2 ADD SWAP1 PUSH2 0x552 SWAP2 SWAP1 PUSH2 0xC0B JUMP JUMPDEST SWAP1 POP PUSH2 0x563 DUP10 DUP6 DUP5 DUP12 DUP8 DUP7 DUP14 PUSH2 0x5BD JUMP JUMPDEST SWAP13 POP SWAP13 POP SWAP13 POP SWAP13 POP POP POP POP POP POP POP POP POP POP SWAP1 SWAP2 SWAP3 SWAP4 JUMP JUMPDEST DUP1 PUSH1 0x0 DUP1 PUSH2 0x100 EXP DUP2 SLOAD DUP2 PUSH20 0xFFFFFFFFFFFFFFFFFFFFFFFFFFFFFFFFFFFFFFFF MUL NOT AND SWAP1 DUP4 PUSH20 0xFFFFFFFFFFFFFFFFFFFFFFFFFFFFFFFFFFFFFFFF AND MUL OR SWAP1 SSTORE POP POP JUMP JUMPDEST PUSH1 0x0 DUP1 PUSH1 0x60 PUSH1 0x0 DUP1 DUP10 MLOAD GT DUP1 ISZERO PUSH2 0x5D5 JUMPI POP PUSH1 0x0 DUP7 MLOAD GT JUMPDEST PUSH2 0x614 JUMPI PUSH1 0x40 MLOAD PUSH32 0x8C379A000000000000000000000000000000000000000000000000000000000 DUP2 MSTORE PUSH1 0x4 ADD PUSH2 0x60B SWAP1 PUSH2 0xCA0 JUMP JUMPDEST PUSH1 0x40 MLOAD DUP1 SWAP2 SUB SWAP1 REVERT JUMPDEST PUSH1 0x12 DUP11 GT ISZERO DUP1 ISZERO PUSH2 0x626 JUMPI POP PUSH1 0x12 DUP8 GT ISZERO JUMPDEST PUSH2 0x665 JUMPI PUSH1 0x40 MLOAD PUSH32 0x8C379A000000000000000000000000000000000000000000000000000000000 DUP2 MSTORE PUSH1 0x4 ADD PUSH2 0x65C SWAP1 PUSH2 0xD32 JUMP JUMPDEST PUSH1 0x40 MLOAD DUP1 SWAP2 SUB SWAP1 REVERT JUMPDEST PUSH1 0x0 DUP11 GT DUP1 ISZERO PUSH2 0x675 JUMPI POP PUSH1 0x0 DUP8 GT JUMPDEST PUSH2 0x6B4 JUMPI PUSH1 0x40 MLOAD PUSH32 0x8C379A000000000000000000000000000000000000000000000000000000000 DUP2 MSTORE PUSH1 0x4 ADD PUSH2 0x6AB SWAP1 PUSH2 0xDC4 JUMP JUMPDEST PUSH1 0x40 MLOAD DUP1 SWAP2 SUB SWAP1 REVERT JUMPDEST PUSH1 0x0 DUP12 GT DUP1 ISZERO PUSH2 0x6C4 JUMPI POP PUSH1 0x0 DUP9 GT JUMPDEST PUSH2 0x703 JUMPI PUSH1 0x40 MLOAD PUSH32 0x8C379A000000000000000000000000000000000000000000000000000000000 DUP2 MSTORE PUSH1 0x4 ADD PUSH2 0x6FA SWAP1 PUSH2 0xE56 JUMP JUMPDEST PUSH1 0x40 MLOAD DUP1 SWAP2 SUB SWAP1 REVERT JUMPDEST DUP7 DUP11 GT ISZERO PUSH2 0x735 JUMPI DUP7 DUP11 PUSH2 0x717 SWAP2 SWAP1 PUSH2 0xEA5 JUMP JUMPDEST PUSH1 0xA PUSH2 0x723 SWAP2 SWAP1 PUSH2 0x100C JUMP JUMPDEST DUP9 PUSH2 0x72E SWAP2 SWAP1 PUSH2 0x1057 JUMP JUMPDEST SWAP8 POP PUSH2 0x75B JUMP JUMPDEST DUP10 DUP8 PUSH2 0x741 SWAP2 SWAP1 PUSH2 0xEA5 JUMP JUMPDEST PUSH1 0xA PUSH2 0x74D SWAP2 SWAP1 PUSH2 0x100C JUMP JUMPDEST DUP12 PUSH2 0x758 SWAP2 SWAP1 PUSH2 0x1057 JUMP JUMPDEST SWAP11 POP JUMPDEST PUSH4 0x5F5E100 DUP1 DUP10 PUSH4 0x5F5E100 DUP15 PUSH2 0x772 SWAP2 SWAP1 PUSH2 0x1057 JUMP JUMPDEST PUSH2 0x77C SWAP2 SWAP1 PUSH2 0x10C8 JUMP JUMPDEST PUSH2 0x786 SWAP2 SWAP1 PUSH2 0x1057 JUMP JUMPDEST PUSH2 0x790 SWAP2 SWAP1 PUSH2 0x10C8 JUMP JUMPDEST PUSH1 0x8 DUP11 DUP9 PUSH1 0x40 MLOAD PUSH1 0x20 ADD PUSH2 0x7A5 SWAP3 SWAP2 SWAP1 PUSH2 0x115B JUMP JUMPDEST PUSH1 0x40 MLOAD PUSH1 0x20 DUP2 DUP4 SUB SUB DUP2 MSTORE SWAP1 PUSH1 0x40 MSTORE DUP8 DUP1 PUSH4 0xFFFFFFFF AND SWAP1 POP SWAP4 POP SWAP4 POP SWAP4 POP SWAP4 POP SWAP8 POP SWAP8 POP SWAP8 POP SWAP8 SWAP4 POP POP POP POP JUMP JUMPDEST PUSH1 0x0 DUP2 SWAP1 POP SWAP2 SWAP1 POP JUMP JUMPDEST PUSH2 0x7E7 DUP2 PUSH2 0x7D4 JUMP JUMPDEST DUP3 MSTORE POP POP JUMP JUMPDEST PUSH1 0x0 DUP2 MLOAD SWAP1 POP SWAP2 SWAP1 POP JUMP JUMPDEST PUSH1 0x0 DUP3 DUP3 MSTORE PUSH1 0x20 DUP3 ADD SWAP1 POP SWAP3 SWAP2 POP POP JUMP JUMPDEST PUSH1 0x0 JUMPDEST DUP4 DUP2 LT ISZERO PUSH2 0x827 JUMPI DUP1 DUP3 ADD MLOAD DUP2 DUP5 ADD MSTORE PUSH1 0x20 DUP2 ADD SWAP1 POP PUSH2 0x80C JUMP JUMPDEST PUSH1 0x0 DUP5 DUP5 ADD MSTORE POP POP POP POP JUMP JUMPDEST PUSH1 0x0 PUSH1 0x1F NOT PUSH1 0x1F DUP4 ADD AND SWAP1 POP SWAP2 SWAP1 POP JUMP JUMPDEST PUSH1 0x0 PUSH2 0x84F DUP3 PUSH2 0x7ED JUMP JUMPDEST PUSH2 0x859 DUP2 DUP6 PUSH2 0x7F8 JUMP JUMPDEST SWAP4 POP PUSH2 0x869 DUP2 DUP6 PUSH1 0x20 DUP7 ADD PUSH2 0x809 JUMP JUMPDEST PUSH2 0x872 DUP2 PUSH2 0x833 JUMP JUMPDEST DUP5 ADD SWAP2 POP POP SWAP3 SWAP2 POP POP JUMP JUMPDEST PUSH1 0x0 PUSH1 0x80 DUP3 ADD SWAP1 POP PUSH2 0x892 PUSH1 0x0 DUP4 ADD DUP8 PUSH2 0x7DE JUMP JUMPDEST PUSH2 0x89F PUSH1 0x20 DUP4 ADD DUP7 PUSH2 0x7DE JUMP JUMPDEST DUP2 DUP2 SUB PUSH1 0x40 DUP4 ADD MSTORE PUSH2 0x8B1 DUP2 DUP6 PUSH2 0x844 JUMP JUMPDEST SWAP1 POP PUSH2 0x8C0 PUSH1 0x60 DUP4 ADD DUP5 PUSH2 0x7DE JUMP JUMPDEST SWAP6 SWAP5 POP POP POP POP POP JUMP JUMPDEST PUSH1 0x0 PUSH1 0x40 MLOAD SWAP1 POP SWAP1 JUMP JUMPDEST PUSH1 0x0 DUP1 REVERT JUMPDEST PUSH1 0x0 DUP1 REVERT JUMPDEST PUSH1 0x0 PUSH20 0xFFFFFFFFFFFFFFFFFFFFFFFFFFFFFFFFFFFFFFFF DUP3 AND SWAP1 POP SWAP2 SWAP1 POP JUMP JUMPDEST PUSH1 0x0 PUSH2 0x908 DUP3 PUSH2 0x8DD JUMP JUMPDEST SWAP1 POP SWAP2 SWAP1 POP JUMP JUMPDEST PUSH2 0x918 DUP2 PUSH2 0x8FD JUMP JUMPDEST DUP2 EQ PUSH2 0x923 JUMPI PUSH1 0x0 DUP1 REVERT JUMPDEST POP JUMP JUMPDEST PUSH1 0x0 DUP2 CALLDATALOAD SWAP1 POP PUSH2 0x935 DUP2 PUSH2 0x90F JUMP JUMPDEST SWAP3 SWAP2 POP POP JUMP JUMPDEST PUSH1 0x0 PUSH1 0x20 DUP3 DUP5 SUB SLT ISZERO PUSH2 0x951 JUMPI PUSH2 0x950 PUSH2 0x8D3 JUMP JUMPDEST JUMPDEST PUSH1 0x0 PUSH2 0x95F DUP5 DUP3 DUP6 ADD PUSH2 0x926 JUMP JUMPDEST SWAP2 POP POP SWAP3 SWAP2 POP POP JUMP JUMPDEST PUSH1 0x0 PUSH14 0xFFFFFFFFFFFFFFFFFFFFFFFFFFFF DUP3 AND SWAP1 POP SWAP2 SWAP1 POP JUMP JUMPDEST PUSH2 0x98B DUP2 PUSH2 0x968 JUMP JUMPDEST DUP2 EQ PUSH2 0x996 JUMPI PUSH1 0x0 DUP1 REVERT JUMPDEST POP JUMP JUMPDEST PUSH1 0x0 DUP2 MLOAD SWAP1 POP PUSH2 0x9A8 DUP2 PUSH2 0x982 JUMP JUMPDEST SWAP3 SWAP2 POP POP JUMP JUMPDEST PUSH1 0x0 PUSH4 0xFFFFFFFF DUP3 AND SWAP1 POP SWAP2 SWAP1 POP JUMP JUMPDEST PUSH2 0x9C7 DUP2 PUSH2 0x9AE JUMP JUMPDEST DUP2 EQ PUSH2 0x9D2 JUMPI PUSH1 0x0 DUP1 REVERT JUMPDEST POP JUMP JUMPDEST PUSH1 0x0 DUP2 MLOAD SWAP1 POP PUSH2 0x9E4 DUP2 PUSH2 0x9BE JUMP JUMPDEST SWAP3 SWAP2 POP POP JUMP JUMPDEST PUSH1 0x0 DUP1 PUSH1 0x0 PUSH1 0x60 DUP5 DUP7 SUB SLT ISZERO PUSH2 0xA03 JUMPI PUSH2 0xA02 PUSH2 0x8D3 JUMP JUMPDEST JUMPDEST PUSH1 0x0 PUSH2 0xA11 DUP7 DUP3 DUP8 ADD PUSH2 0x999 JUMP JUMPDEST SWAP4 POP POP PUSH1 0x20 PUSH2 0xA22 DUP7 DUP3 DUP8 ADD PUSH2 0x999 JUMP JUMPDEST SWAP3 POP POP PUSH1 0x40 PUSH2 0xA33 DUP7 DUP3 DUP8 ADD PUSH2 0x9D5 JUMP JUMPDEST SWAP2 POP POP SWAP3 POP SWAP3 POP SWAP3 JUMP JUMPDEST PUSH1 0x0 DUP2 MLOAD SWAP1 POP PUSH2 0xA4C DUP2 PUSH2 0x90F JUMP JUMPDEST SWAP3 SWAP2 POP POP JUMP JUMPDEST PUSH1 0x0 PUSH1 0x20 DUP3 DUP5 SUB SLT ISZERO PUSH2 0xA68 JUMPI PUSH2 0xA67 PUSH2 0x8D3 JUMP JUMPDEST JUMPDEST PUSH1 0x0 PUSH2 0xA76 DUP5 DUP3 DUP6 ADD PUSH2 0xA3D JUMP JUMPDEST SWAP2 POP POP SWAP3 SWAP2 POP POP JUMP JUMPDEST PUSH1 0x0 PUSH1 0xFF DUP3 AND SWAP1 POP SWAP2 SWAP1 POP JUMP JUMPDEST PUSH2 0xA95 DUP2 PUSH2 0xA7F JUMP JUMPDEST DUP2 EQ PUSH2 0xAA0 JUMPI PUSH1 0x0 DUP1 REVERT JUMPDEST POP JUMP JUMPDEST PUSH1 0x0 DUP2 MLOAD SWAP1 POP PUSH2 0xAB2 DUP2 PUSH2 0xA8C JUMP JUMPDEST SWAP3 SWAP2 POP POP JUMP JUMPDEST PUSH1 0x0 PUSH1 0x20 DUP3 DUP5 SUB SLT ISZERO PUSH2 0xACE JUMPI PUSH2 0xACD PUSH2 0x8D3 JUMP JUMPDEST JUMPDEST PUSH1 0x0 PUSH2 0xADC DUP5 DUP3 DUP6 ADD PUSH2 0xAA3 JUMP JUMPDEST SWAP2 POP POP SWAP3 SWAP2 POP POP JUMP JUMPDEST PUSH1 0x0 DUP1 REVERT JUMPDEST PUSH1 0x0 DUP1 REVERT JUMPDEST PUSH32 0x4E487B7100000000000000000000000000000000000000000000000000000000 PUSH1 0x0 MSTORE PUSH1 0x41 PUSH1 0x4 MSTORE PUSH1 0x24 PUSH1 0x0 REVERT JUMPDEST PUSH2 0xB27 DUP3 PUSH2 0x833 JUMP JUMPDEST DUP2 ADD DUP2 DUP2 LT PUSH8 0xFFFFFFFFFFFFFFFF DUP3 GT OR ISZERO PUSH2 0xB46 JUMPI PUSH2 0xB45 PUSH2 0xAEF JUMP JUMPDEST JUMPDEST DUP1 PUSH1 0x40 MSTORE POP POP POP JUMP JUMPDEST PUSH1 0x0 PUSH2 0xB59 PUSH2 0x8C9 JUMP JUMPDEST SWAP1 POP PUSH2 0xB65 DUP3 DUP3 PUSH2 0xB1E JUMP JUMPDEST SWAP2 SWAP1 POP JUMP JUMPDEST PUSH1 0x0 PUSH8 0xFFFFFFFFFFFFFFFF DUP3 GT ISZERO PUSH2 0xB85 JUMPI PUSH2 0xB84 PUSH2 0xAEF JUMP JUMPDEST JUMPDEST PUSH2 0xB8E DUP3 PUSH2 0x833 JUMP JUMPDEST SWAP1 POP PUSH1 0x20 DUP2 ADD SWAP1 POP SWAP2 SWAP1 POP JUMP JUMPDEST PUSH1 0x0 PUSH2 0xBAE PUSH2 0xBA9 DUP5 PUSH2 0xB6A JUMP JUMPDEST PUSH2 0xB4F JUMP JUMPDEST SWAP1 POP DUP3 DUP2 MSTORE PUSH1 0x20 DUP2 ADD DUP5 DUP5 DUP5 ADD GT ISZERO PUSH2 0xBCA JUMPI PUSH2 0xBC9 PUSH2 0xAEA JUMP JUMPDEST JUMPDEST PUSH2 0xBD5 DUP5 DUP3 DUP6 PUSH2 0x809 JUMP JUMPDEST POP SWAP4 SWAP3 POP POP POP JUMP JUMPDEST PUSH1 0x0 DUP3 PUSH1 0x1F DUP4 ADD SLT PUSH2 0xBF2 JUMPI PUSH2 0xBF1 PUSH2 0xAE5 JUMP JUMPDEST JUMPDEST DUP2 MLOAD PUSH2 0xC02 DUP5 DUP3 PUSH1 0x20 DUP7 ADD PUSH2 0xB9B JUMP JUMPDEST SWAP2 POP POP SWAP3 SWAP2 POP POP JUMP JUMPDEST PUSH1 0x0 PUSH1 0x20 DUP3 DUP5 SUB SLT ISZERO PUSH2 0xC21 JUMPI PUSH2 0xC20 PUSH2 0x8D3 JUMP JUMPDEST JUMPDEST PUSH1 0x0 DUP3 ADD MLOAD PUSH8 0xFFFFFFFFFFFFFFFF DUP2 GT ISZERO PUSH2 0xC3F JUMPI PUSH2 0xC3E PUSH2 0x8D8 JUMP JUMPDEST JUMPDEST PUSH2 0xC4B DUP5 DUP3 DUP6 ADD PUSH2 0xBDD JUMP JUMPDEST SWAP2 POP POP SWAP3 SWAP2 POP POP JUMP JUMPDEST PUSH32 0x4D697373696E6720696E70757420666F7220746F6B656E206E616D6521000000 PUSH1 0x0 DUP3 ADD MSTORE POP JUMP JUMPDEST PUSH1 0x0 PUSH2 0xC8A PUSH1 0x1D DUP4 PUSH2 0x7F8 JUMP JUMPDEST SWAP2 POP PUSH2 0xC95 DUP3 PUSH2 0xC54 JUMP JUMPDEST PUSH1 0x20 DUP3 ADD SWAP1 POP SWAP2 SWAP1 POP JUMP JUMPDEST PUSH1 0x0 PUSH1 0x20 DUP3 ADD SWAP1 POP DUP2 DUP2 SUB PUSH1 0x0 DUP4 ADD MSTORE PUSH2 0xCB9 DUP2 PUSH2 0xC7D JUMP JUMPDEST SWAP1 POP SWAP2 SWAP1 POP JUMP JUMPDEST PUSH32 0x446563696D616C732073686F756C64206265206C657373207468616E206F7220 PUSH1 0x0 DUP3 ADD MSTORE PUSH32 0x657175616C20746F203138000000000000000000000000000000000000000000 PUSH1 0x20 DUP3 ADD MSTORE POP JUMP JUMPDEST PUSH1 0x0 PUSH2 0xD1C PUSH1 0x2B DUP4 PUSH2 0x7F8 JUMP JUMPDEST SWAP2 POP PUSH2 0xD27 DUP3 PUSH2 0xCC0 JUMP JUMPDEST PUSH1 0x40 DUP3 ADD SWAP1 POP SWAP2 SWAP1 POP JUMP JUMPDEST PUSH1 0x0 PUSH1 0x20 DUP3 ADD SWAP1 POP DUP2 DUP2 SUB PUSH1 0x0 DUP4 ADD MSTORE PUSH2 0xD4B DUP2 PUSH2 0xD0F JUMP JUMPDEST SWAP1 POP SWAP2 SWAP1 POP JUMP JUMPDEST PUSH32 0x446563696D616C732073686F756C642062652067726561746572207468616E20 PUSH1 0x0 DUP3 ADD MSTORE PUSH32 0x3000000000000000000000000000000000000000000000000000000000000000 PUSH1 0x20 DUP3 ADD MSTORE POP JUMP JUMPDEST PUSH1 0x0 PUSH2 0xDAE PUSH1 0x21 DUP4 PUSH2 0x7F8 JUMP JUMPDEST SWAP2 POP PUSH2 0xDB9 DUP3 PUSH2 0xD52 JUMP JUMPDEST PUSH1 0x40 DUP3 ADD SWAP1 POP SWAP2 SWAP1 POP JUMP JUMPDEST PUSH1 0x0 PUSH1 0x20 DUP3 ADD SWAP1 POP DUP2 DUP2 SUB PUSH1 0x0 DUP4 ADD MSTORE PUSH2 0xDDD DUP2 PUSH2 0xDA1 JUMP JUMPDEST SWAP1 POP SWAP2 SWAP1 POP JUMP JUMPDEST PUSH32 0x546F6B656E2076616C7565732073686F756C6420626520677265617465722074 PUSH1 0x0 DUP3 ADD MSTORE PUSH32 0x68616E2030000000000000000000000000000000000000000000000000000000 PUSH1 0x20 DUP3 ADD MSTORE POP JUMP JUMPDEST PUSH1 0x0 PUSH2 0xE40 PUSH1 0x25 DUP4 PUSH2 0x7F8 JUMP JUMPDEST SWAP2 POP PUSH2 0xE4B DUP3 PUSH2 0xDE4 JUMP JUMPDEST PUSH1 0x40 DUP3 ADD SWAP1 POP SWAP2 SWAP1 POP JUMP JUMPDEST PUSH1 0x0 PUSH1 0x20 DUP3 ADD SWAP1 POP DUP2 DUP2 SUB PUSH1 0x0 DUP4 ADD MSTORE PUSH2 0xE6F DUP2 PUSH2 0xE33 JUMP JUMPDEST SWAP1 POP SWAP2 SWAP1 POP JUMP JUMPDEST PUSH32 0x4E487B7100000000000000000000000000000000000000000000000000000000 PUSH1 0x0 MSTORE PUSH1 0x11 PUSH1 0x4 MSTORE PUSH1 0x24 PUSH1 0x0 REVERT JUMPDEST PUSH1 0x0 PUSH2 0xEB0 DUP3 PUSH2 0x7D4 JUMP JUMPDEST SWAP2 POP PUSH2 0xEBB DUP4 PUSH2 0x7D4 JUMP JUMPDEST SWAP3 POP DUP3 DUP3 SUB SWAP1 POP DUP2 DUP2 GT ISZERO PUSH2 0xED3 JUMPI PUSH2 0xED2 PUSH2 0xE76 JUMP JUMPDEST JUMPDEST SWAP3 SWAP2 POP POP JUMP JUMPDEST PUSH1 0x0 DUP2 PUSH1 0x1 SHR SWAP1 POP SWAP2 SWAP1 POP JUMP JUMPDEST PUSH1 0x0 DUP1 DUP3 SWAP2 POP DUP4 SWAP1 POP JUMPDEST PUSH1 0x1 DUP6 GT ISZERO PUSH2 0xF30 JUMPI DUP1 DUP7 DIV DUP2 GT ISZERO PUSH2 0xF0C JUMPI PUSH2 0xF0B PUSH2 0xE76 JUMP JUMPDEST JUMPDEST PUSH1 0x1 DUP6 AND ISZERO PUSH2 0xF1B JUMPI DUP1 DUP3 MUL SWAP2 POP JUMPDEST DUP1 DUP2 MUL SWAP1 POP PUSH2 0xF29 DUP6 PUSH2 0xED9 JUMP JUMPDEST SWAP5 POP PUSH2 0xEF0 JUMP JUMPDEST SWAP5 POP SWAP5 SWAP3 POP POP POP JUMP JUMPDEST PUSH1 0x0 DUP3 PUSH2 0xF49 JUMPI PUSH1 0x1 SWAP1 POP PUSH2 0x1005 JUMP JUMPDEST DUP2 PUSH2 0xF57 JUMPI PUSH1 0x0 SWAP1 POP PUSH2 0x1005 JUMP JUMPDEST DUP2 PUSH1 0x1 DUP2 EQ PUSH2 0xF6D JUMPI PUSH1 0x2 DUP2 EQ PUSH2 0xF77 JUMPI PUSH2 0xFA6 JUMP JUMPDEST PUSH1 0x1 SWAP2 POP POP PUSH2 0x1005 JUMP JUMPDEST PUSH1 0xFF DUP5 GT ISZERO PUSH2 0xF89 JUMPI PUSH2 0xF88 PUSH2 0xE76 JUMP JUMPDEST JUMPDEST DUP4 PUSH1 0x2 EXP SWAP2 POP DUP5 DUP3 GT ISZERO PUSH2 0xFA0 JUMPI PUSH2 0xF9F PUSH2 0xE76 JUMP JUMPDEST JUMPDEST POP PUSH2 0x1005 JUMP JUMPDEST POP PUSH1 0x20 DUP4 LT PUSH2 0x133 DUP4 LT AND PUSH1 0x4E DUP5 LT PUSH1 0xB DUP5 LT AND OR ISZERO PUSH2 0xFDB JUMPI DUP3 DUP3 EXP SWAP1 POP DUP4 DUP2 GT ISZERO PUSH2 0xFD6 JUMPI PUSH2 0xFD5 PUSH2 0xE76 JUMP JUMPDEST JUMPDEST PUSH2 0x1005 JUMP JUMPDEST PUSH2 0xFE8 DUP5 DUP5 DUP5 PUSH1 0x1 PUSH2 0xEE6 JUMP JUMPDEST SWAP3 POP SWAP1 POP DUP2 DUP5 DIV DUP2 GT ISZERO PUSH2 0xFFF JUMPI PUSH2 0xFFE PUSH2 0xE76 JUMP JUMPDEST JUMPDEST DUP2 DUP2 MUL SWAP1 POP JUMPDEST SWAP4 SWAP3 POP POP POP JUMP JUMPDEST PUSH1 0x0 PUSH2 0x1017 DUP3 PUSH2 0x7D4 JUMP JUMPDEST SWAP2 POP PUSH2 0x1022 DUP4 PUSH2 0x7D4 JUMP JUMPDEST SWAP3 POP PUSH2 0x104F PUSH32 0xFFFFFFFFFFFFFFFFFFFFFFFFFFFFFFFFFFFFFFFFFFFFFFFFFFFFFFFFFFFFFFFF DUP5 DUP5 PUSH2 0xF39 JUMP JUMPDEST SWAP1 POP SWAP3 SWAP2 POP POP JUMP JUMPDEST PUSH1 0x0 PUSH2 0x1062 DUP3 PUSH2 0x7D4 JUMP JUMPDEST SWAP2 POP PUSH2 0x106D DUP4 PUSH2 0x7D4 JUMP JUMPDEST SWAP3 POP DUP3 DUP3 MUL PUSH2 0x107B DUP2 PUSH2 0x7D4 JUMP JUMPDEST SWAP2 POP DUP3 DUP3 DIV DUP5 EQ DUP4 ISZERO OR PUSH2 0x1092 JUMPI PUSH2 0x1091 PUSH2 0xE76 JUMP JUMPDEST JUMPDEST POP SWAP3 SWAP2 POP POP JUMP JUMPDEST PUSH32 0x4E487B7100000000000000000000000000000000000000000000000000000000 PUSH1 0x0 MSTORE PUSH1 0x12 PUSH1 0x4 MSTORE PUSH1 0x24 PUSH1 0x0 REVERT JUMPDEST PUSH1 0x0 PUSH2 0x10D3 DUP3 PUSH2 0x7D4 JUMP JUMPDEST SWAP2 POP PUSH2 0x10DE DUP4 PUSH2 0x7D4 JUMP JUMPDEST SWAP3 POP DUP3 PUSH2 0x10EE JUMPI PUSH2 0x10ED PUSH2 0x1099 JUMP JUMPDEST JUMPDEST DUP3 DUP3 DIV SWAP1 POP SWAP3 SWAP2 POP POP JUMP JUMPDEST PUSH1 0x0 DUP2 SWAP1 POP SWAP3 SWAP2 POP POP JUMP JUMPDEST PUSH1 0x0 PUSH2 0x110F DUP3 PUSH2 0x7ED JUMP JUMPDEST PUSH2 0x1119 DUP2 DUP6 PUSH2 0x10F9 JUMP JUMPDEST SWAP4 POP PUSH2 0x1129 DUP2 DUP6 PUSH1 0x20 DUP7 ADD PUSH2 0x809 JUMP JUMPDEST DUP1 DUP5 ADD SWAP2 POP POP SWAP3 SWAP2 POP POP JUMP JUMPDEST PUSH32 0x2F00000000000000000000000000000000000000000000000000000000000000 DUP2 MSTORE POP JUMP JUMPDEST PUSH1 0x0 PUSH2 0x1167 DUP3 DUP6 PUSH2 0x1104 JUMP JUMPDEST SWAP2 POP PUSH2 0x1172 DUP3 PUSH2 0x1135 JUMP JUMPDEST PUSH1 0x1 DUP3 ADD SWAP2 POP PUSH2 0x1182 DUP3 DUP5 PUSH2 0x1104 JUMP JUMPDEST SWAP2 POP DUP2 SWAP1 POP SWAP4 SWAP3 POP POP POP JUMP INVALID LOG2 PUSH5 0x6970667358 0x22 SLT KECCAK256 0xDE 0x28 0xE7 SLT PUSH27 0xFCF444C19B71D523C576663A7E2A62DB44E701B7FCF5807C7A9967 PUSH5 0x736F6C6343 STOP ADDMOD OR STOP CALLER "
				},
				"gasEstimates": {
					"creation": {
						"codeDepositCost": "909600",
						"executionCost": "948",
						"totalCost": "910548"
					},
					"external": {
						"PoolRate()": "infinite",
						"addPoolFeed(address)": "24722"
					},
					"internal": {
						"calculatePoolRate(uint256,uint256,string memory,uint256,uint256,string memory,uint32)": "infinite"
					}
				},
				"methodIdentifiers": {
					"PoolRate()": "454d1256",
					"addPoolFeed(address)": "cd5ea1c6"
				}
			},
			"storageLayout": {
				"storage": [
					{
						"astId": 35,
						"contract": "ptrn_eco_system_dev_contracts/poolPriceFeed.sol:RateFromPool",
						"label": "poolConsumer",
						"offset": 0,
						"slot": "0",
						"type": "t_contract(PoolInterface)21"
					},
					{
						"astId": 38,
						"contract": "ptrn_eco_system_dev_contracts/poolPriceFeed.sol:RateFromPool",
						"label": "decimalsConsumerOne",
						"offset": 0,
						"slot": "1",
						"type": "t_contract(DecimalsInterface)32"
					},
					{
						"astId": 41,
						"contract": "ptrn_eco_system_dev_contracts/poolPriceFeed.sol:RateFromPool",
						"label": "decimalsConsumerTwo",
						"offset": 0,
						"slot": "2",
						"type": "t_contract(DecimalsInterface)32"
					}
				],
				"types": {
					"t_contract(DecimalsInterface)32": {
						"encoding": "inplace",
						"label": "contract DecimalsInterface",
						"numberOfBytes": "20"
					},
					"t_contract(PoolInterface)21": {
						"encoding": "inplace",
						"label": "contract PoolInterface",
						"numberOfBytes": "20"
					}
				}
			},
			"userdoc": {
				"kind": "user",
				"methods": {},
				"version": 1
			}
		}
	}
}