{
	"ptrn_eco_system_dev_contracts/fakePtrnEcosystemParticipationSmartContract.sol": {
		"PtrnEcoSystemParticipation": {
			"abi": [
				{
					"inputs": [
						{
							"internalType": "address",
							"name": "_acceptedTokens",
							"type": "address"
						},
						{
							"internalType": "address",
							"name": "_acceptedSenderAddress",
							"type": "address"
						}
					],
					"stateMutability": "nonpayable",
					"type": "constructor"
				},
				{
					"anonymous": false,
					"inputs": [
						{
							"indexed": true,
							"internalType": "address",
							"name": "previousOwner",
							"type": "address"
						},
						{
							"indexed": true,
							"internalType": "address",
							"name": "newOwner",
							"type": "address"
						}
					],
					"name": "OwnershipTransferred",
					"type": "event"
				},
				{
					"anonymous": false,
					"inputs": [
						{
							"indexed": false,
							"internalType": "address",
							"name": "account",
							"type": "address"
						}
					],
					"name": "Paused",
					"type": "event"
				},
				{
					"anonymous": false,
					"inputs": [
						{
							"indexed": false,
							"internalType": "address",
							"name": "account",
							"type": "address"
						}
					],
					"name": "Unpaused",
					"type": "event"
				},
				{
					"inputs": [
						{
							"internalType": "address",
							"name": "_ConsumerInterfaceAddress",
							"type": "address"
						}
					],
					"name": "addAgregatorPriceFeed",
					"outputs": [],
					"stateMutability": "nonpayable",
					"type": "function"
				},
				{
					"inputs": [
						{
							"internalType": "address",
							"name": "_ConsumerInterfaceAddress",
							"type": "address"
						}
					],
					"name": "addPoolRateFeed",
					"outputs": [],
					"stateMutability": "nonpayable",
					"type": "function"
				},
				{
					"inputs": [],
					"name": "availableToWithdraw",
					"outputs": [
						{
							"internalType": "uint256",
							"name": "",
							"type": "uint256"
						}
					],
					"stateMutability": "view",
					"type": "function"
				},
				{
					"inputs": [],
					"name": "balanceOf",
					"outputs": [
						{
							"internalType": "uint256",
							"name": "",
							"type": "uint256"
						}
					],
					"stateMutability": "view",
					"type": "function"
				},
				{
					"inputs": [
						{
							"internalType": "address",
							"name": "tokenAddress",
							"type": "address"
						}
					],
					"name": "balanceOfToken",
					"outputs": [
						{
							"internalType": "uint256",
							"name": "",
							"type": "uint256"
						}
					],
					"stateMutability": "view",
					"type": "function"
				},
				{
					"inputs": [],
					"name": "burned",
					"outputs": [
						{
							"internalType": "uint256",
							"name": "",
							"type": "uint256"
						}
					],
					"stateMutability": "view",
					"type": "function"
				},
				{
					"inputs": [
						{
							"internalType": "uint256",
							"name": "points",
							"type": "uint256"
						},
						{
							"internalType": "uint256",
							"name": "rate",
							"type": "uint256"
						},
						{
							"internalType": "uint256",
							"name": "_decimals",
							"type": "uint256"
						}
					],
					"name": "calculateAmount",
					"outputs": [
						{
							"internalType": "uint256",
							"name": "",
							"type": "uint256"
						}
					],
					"stateMutability": "pure",
					"type": "function"
				},
				{
					"inputs": [
						{
							"internalType": "uint256",
							"name": "amount",
							"type": "uint256"
						},
						{
							"internalType": "uint256",
							"name": "rate",
							"type": "uint256"
						},
						{
							"internalType": "uint256",
							"name": "decimals",
							"type": "uint256"
						}
					],
					"name": "calculatePoints",
					"outputs": [
						{
							"internalType": "uint256",
							"name": "",
							"type": "uint256"
						}
					],
					"stateMutability": "pure",
					"type": "function"
				},
				{
					"inputs": [],
					"name": "changeRateFeed",
					"outputs": [],
					"stateMutability": "nonpayable",
					"type": "function"
				},
				{
					"inputs": [
						{
							"internalType": "uint256",
							"name": "amount",
							"type": "uint256"
						}
					],
					"name": "chargeContract",
					"outputs": [
						{
							"internalType": "bool",
							"name": "",
							"type": "bool"
						}
					],
					"stateMutability": "nonpayable",
					"type": "function"
				},
				{
					"inputs": [],
					"name": "currentRateFeed",
					"outputs": [
						{
							"internalType": "string",
							"name": "",
							"type": "string"
						}
					],
					"stateMutability": "view",
					"type": "function"
				},
				{
					"inputs": [],
					"name": "dailyReward",
					"outputs": [],
					"stateMutability": "nonpayable",
					"type": "function"
				},
				{
					"inputs": [],
					"name": "daily_withdraw",
					"outputs": [
						{
							"internalType": "uint256",
							"name": "",
							"type": "uint256"
						}
					],
					"stateMutability": "view",
					"type": "function"
				},
				{
					"inputs": [],
					"name": "getRate",
					"outputs": [
						{
							"internalType": "uint256",
							"name": "",
							"type": "uint256"
						},
						{
							"internalType": "uint256",
							"name": "",
							"type": "uint256"
						},
						{
							"internalType": "string",
							"name": "",
							"type": "string"
						},
						{
							"internalType": "uint256",
							"name": "",
							"type": "uint256"
						},
						{
							"internalType": "string",
							"name": "",
							"type": "string"
						}
					],
					"stateMutability": "view",
					"type": "function"
				},
				{
					"inputs": [],
					"name": "owner",
					"outputs": [
						{
							"internalType": "address",
							"name": "",
							"type": "address"
						}
					],
					"stateMutability": "view",
					"type": "function"
				},
				{
					"inputs": [],
					"name": "paused",
					"outputs": [
						{
							"internalType": "bool",
							"name": "",
							"type": "bool"
						}
					],
					"stateMutability": "view",
					"type": "function"
				},
				{
					"inputs": [],
					"name": "renounceOwnership",
					"outputs": [],
					"stateMutability": "nonpayable",
					"type": "function"
				},
				{
					"inputs": [],
					"name": "setRate",
					"outputs": [
						{
							"internalType": "bool",
							"name": "",
							"type": "bool"
						}
					],
					"stateMutability": "nonpayable",
					"type": "function"
				},
				{
					"inputs": [
						{
							"internalType": "address",
							"name": "tokenAddress",
							"type": "address"
						},
						{
							"internalType": "address",
							"name": "receiver",
							"type": "address"
						},
						{
							"internalType": "uint256",
							"name": "amount",
							"type": "uint256"
						}
					],
					"name": "transferOfToken",
					"outputs": [
						{
							"internalType": "bool",
							"name": "",
							"type": "bool"
						}
					],
					"stateMutability": "nonpayable",
					"type": "function"
				},
				{
					"inputs": [
						{
							"internalType": "address",
							"name": "newOwner",
							"type": "address"
						}
					],
					"name": "transferOwnership",
					"outputs": [],
					"stateMutability": "nonpayable",
					"type": "function"
				},
				{
					"inputs": [
						{
							"internalType": "uint256",
							"name": "value",
							"type": "uint256"
						}
					],
					"name": "withdraw",
					"outputs": [],
					"stateMutability": "nonpayable",
					"type": "function"
				}
			],
			"devdoc": {
				"events": {
					"Paused(address)": {
						"details": "Emitted when the pause is triggered by `account`."
					},
					"Unpaused(address)": {
						"details": "Emitted when the pause is lifted by `account`."
					}
				},
				"kind": "dev",
				"methods": {
					"owner()": {
						"details": "Returns the address of the current owner."
					},
					"paused()": {
						"details": "Returns true if the contract is paused, and false otherwise."
					},
					"renounceOwnership()": {
						"details": "Leaves the contract without owner. It will not be possible to call `onlyOwner` functions anymore. Can only be called by the current owner. NOTE: Renouncing ownership will leave the contract without an owner, thereby removing any functionality that is only available to the owner."
					},
					"transferOwnership(address)": {
						"details": "Transfers ownership of the contract to a new account (`newOwner`). Can only be called by the current owner."
					}
				},
				"version": 1
			},
			"evm": {
				"assembly": "    /* \"ptrn_eco_system_dev_contracts/fakePtrnEcosystemParticipationSmartContract.sol\":563:7397  contract PtrnEcoSystemParticipation is Pausable, Ownable {... */\n  mstore(0x40, 0xc0)\n    /* \"ptrn_eco_system_dev_contracts/fakePtrnEcosystemParticipationSmartContract.sol\":810:814  true */\n  0x01\n    /* \"ptrn_eco_system_dev_contracts/fakePtrnEcosystemParticipationSmartContract.sol\":790:814  bool poolRateFeed = true */\n  0x00\n  exp(0x0100, 0x15)\n  dup2\n  sload\n  dup2\n  0xff\n  mul\n  not\n  and\n  swap1\n  dup4\n  iszero\n  iszero\n  mul\n  or\n  swap1\n  sstore\n  pop\n    /* \"ptrn_eco_system_dev_contracts/fakePtrnEcosystemParticipationSmartContract.sol\":1137:1138  0 */\n  0x00\n    /* \"ptrn_eco_system_dev_contracts/fakePtrnEcosystemParticipationSmartContract.sol\":1115:1138  uint256 public burned=0 */\n  0x03\n  sstore\n    /* \"ptrn_eco_system_dev_contracts/fakePtrnEcosystemParticipationSmartContract.sol\":1372:1373  0 */\n  0x00\n    /* \"ptrn_eco_system_dev_contracts/fakePtrnEcosystemParticipationSmartContract.sol\":1335:1373  uint256 public availableToWithdraw = 0 */\n  0x09\n  sstore\n    /* \"ptrn_eco_system_dev_contracts/fakePtrnEcosystemParticipationSmartContract.sol\":1411:1412  0 */\n  0x00\n    /* \"ptrn_eco_system_dev_contracts/fakePtrnEcosystemParticipationSmartContract.sol\":1379:1412  uint256 public daily_withdraw = 0 */\n  0x0a\n  sstore\n    /* \"ptrn_eco_system_dev_contracts/fakePtrnEcosystemParticipationSmartContract.sol\":1420:1603  constructor(address _acceptedTokens, address _acceptedSenderAddress){... */\n  callvalue\n  dup1\n  iszero\n  tag_1\n  jumpi\n  0x00\n  dup1\n  revert\ntag_1:\n  pop\n  mload(0x40)\n  sub(codesize, bytecodeSize)\n  dup1\n  bytecodeSize\n  dup4\n  codecopy\n  dup2\n  dup2\n  add\n  0x40\n  mstore\n  dup2\n  add\n  swap1\n  tag_2\n  swap2\n  swap1\n  tag_3\n  jump\t// in\ntag_2:\n    /* \"@openzeppelin/contracts/security/Pausable.sol\":1006:1011  false */\n  0x00\n    /* \"@openzeppelin/contracts/security/Pausable.sol\":996:1003  _paused */\n  dup1\n  0x00\n    /* \"@openzeppelin/contracts/security/Pausable.sol\":996:1011  _paused = false */\n  0x0100\n  exp\n  dup2\n  sload\n  dup2\n  0xff\n  mul\n  not\n  and\n  swap1\n  dup4\n  iszero\n  iszero\n  mul\n  or\n  swap1\n  sstore\n  pop\n    /* \"@openzeppelin/contracts/access/Ownable.sol\":936:968  _transferOwnership(_msgSender()) */\n  tag_9\n    /* \"@openzeppelin/contracts/access/Ownable.sol\":955:967  _msgSender() */\n  tag_10\n    /* \"@openzeppelin/contracts/access/Ownable.sol\":955:965  _msgSender */\n  shl(0x20, tag_11)\n    /* \"@openzeppelin/contracts/access/Ownable.sol\":955:967  _msgSender() */\n  0x20\n  shr\n  jump\t// in\ntag_10:\n    /* \"@openzeppelin/contracts/access/Ownable.sol\":936:954  _transferOwnership */\n  shl(0x20, tag_12)\n    /* \"@openzeppelin/contracts/access/Ownable.sol\":936:968  _transferOwnership(_msgSender()) */\n  0x20\n  shr\n  jump\t// in\ntag_9:\n    /* \"ptrn_eco_system_dev_contracts/fakePtrnEcosystemParticipationSmartContract.sol\":1523:1538  _acceptedTokens */\n  dup2\n    /* \"ptrn_eco_system_dev_contracts/fakePtrnEcosystemParticipationSmartContract.sol\":1498:1538  ACCEPTED_TOKEN_ADDRESS = _acceptedTokens */\n  0xffffffffffffffffffffffffffffffffffffffff\n  and\n  0x80\n  dup2\n  0xffffffffffffffffffffffffffffffffffffffff\n  and\n  dup2\n  mstore\n  pop\n  pop\n    /* \"ptrn_eco_system_dev_contracts/fakePtrnEcosystemParticipationSmartContract.sol\":1574:1596  _acceptedSenderAddress */\n  dup1\n    /* \"ptrn_eco_system_dev_contracts/fakePtrnEcosystemParticipationSmartContract.sol\":1548:1596  ACCEPTED_SENDER_ADDRESS = _acceptedSenderAddress */\n  0xffffffffffffffffffffffffffffffffffffffff\n  and\n  0xa0\n  dup2\n  0xffffffffffffffffffffffffffffffffffffffff\n  and\n  dup2\n  mstore\n  pop\n  pop\n    /* \"ptrn_eco_system_dev_contracts/fakePtrnEcosystemParticipationSmartContract.sol\":1420:1603  constructor(address _acceptedTokens, address _acceptedSenderAddress){... */\n  pop\n  pop\n    /* \"ptrn_eco_system_dev_contracts/fakePtrnEcosystemParticipationSmartContract.sol\":563:7397  contract PtrnEcoSystemParticipation is Pausable, Ownable {... */\n  jump(tag_14)\n    /* \"@openzeppelin/contracts/utils/Context.sol\":640:736  function _msgSender() internal view virtual returns (address) {... */\ntag_11:\n    /* \"@openzeppelin/contracts/utils/Context.sol\":693:700  address */\n  0x00\n    /* \"@openzeppelin/contracts/utils/Context.sol\":719:729  msg.sender */\n  caller\n    /* \"@openzeppelin/contracts/utils/Context.sol\":712:729  return msg.sender */\n  swap1\n  pop\n    /* \"@openzeppelin/contracts/utils/Context.sol\":640:736  function _msgSender() internal view virtual returns (address) {... */\n  swap1\n  jump\t// out\n    /* \"@openzeppelin/contracts/access/Ownable.sol\":2433:2620  function _transferOwnership(address newOwner) internal virtual {... */\ntag_12:\n    /* \"@openzeppelin/contracts/access/Ownable.sol\":2506:2522  address oldOwner */\n  0x00\n    /* \"@openzeppelin/contracts/access/Ownable.sol\":2525:2531  _owner */\n  dup1\n  0x01\n  swap1\n  sload\n  swap1\n  0x0100\n  exp\n  swap1\n  div\n  0xffffffffffffffffffffffffffffffffffffffff\n  and\n    /* \"@openzeppelin/contracts/access/Ownable.sol\":2506:2531  address oldOwner = _owner */\n  swap1\n  pop\n    /* \"@openzeppelin/contracts/access/Ownable.sol\":2550:2558  newOwner */\n  dup2\n    /* \"@openzeppelin/contracts/access/Ownable.sol\":2541:2547  _owner */\n  0x00\n  0x01\n    /* \"@openzeppelin/contracts/access/Ownable.sol\":2541:2558  _owner = newOwner */\n  0x0100\n  exp\n  dup2\n  sload\n  dup2\n  0xffffffffffffffffffffffffffffffffffffffff\n  mul\n  not\n  and\n  swap1\n  dup4\n  0xffffffffffffffffffffffffffffffffffffffff\n  and\n  mul\n  or\n  swap1\n  sstore\n  pop\n    /* \"@openzeppelin/contracts/access/Ownable.sol\":2604:2612  newOwner */\n  dup2\n    /* \"@openzeppelin/contracts/access/Ownable.sol\":2573:2613  OwnershipTransferred(oldOwner, newOwner) */\n  0xffffffffffffffffffffffffffffffffffffffff\n  and\n    /* \"@openzeppelin/contracts/access/Ownable.sol\":2594:2602  oldOwner */\n  dup2\n    /* \"@openzeppelin/contracts/access/Ownable.sol\":2573:2613  OwnershipTransferred(oldOwner, newOwner) */\n  0xffffffffffffffffffffffffffffffffffffffff\n  and\n  0x8be0079c531659141344cd1fd0a4f28419497f9722a3daafe3b4186f6b6457e0\n  mload(0x40)\n  mload(0x40)\n  dup1\n  swap2\n  sub\n  swap1\n  log3\n    /* \"@openzeppelin/contracts/access/Ownable.sol\":2496:2620  {... */\n  pop\n    /* \"@openzeppelin/contracts/access/Ownable.sol\":2433:2620  function _transferOwnership(address newOwner) internal virtual {... */\n  pop\n  jump\t// out\n    /* \"#utility.yul\":88:205   */\ntag_18:\n    /* \"#utility.yul\":197:198   */\n  0x00\n    /* \"#utility.yul\":194:195   */\n  dup1\n    /* \"#utility.yul\":187:199   */\n  revert\n    /* \"#utility.yul\":334:460   */\ntag_20:\n    /* \"#utility.yul\":371:378   */\n  0x00\n    /* \"#utility.yul\":411:453   */\n  0xffffffffffffffffffffffffffffffffffffffff\n    /* \"#utility.yul\":404:409   */\n  dup3\n    /* \"#utility.yul\":400:454   */\n  and\n    /* \"#utility.yul\":389:454   */\n  swap1\n  pop\n    /* \"#utility.yul\":334:460   */\n  swap2\n  swap1\n  pop\n  jump\t// out\n    /* \"#utility.yul\":466:562   */\ntag_21:\n    /* \"#utility.yul\":503:510   */\n  0x00\n    /* \"#utility.yul\":532:556   */\n  tag_30\n    /* \"#utility.yul\":550:555   */\n  dup3\n    /* \"#utility.yul\":532:556   */\n  tag_20\n  jump\t// in\ntag_30:\n    /* \"#utility.yul\":521:556   */\n  swap1\n  pop\n    /* \"#utility.yul\":466:562   */\n  swap2\n  swap1\n  pop\n  jump\t// out\n    /* \"#utility.yul\":568:690   */\ntag_22:\n    /* \"#utility.yul\":641:665   */\n  tag_32\n    /* \"#utility.yul\":659:664   */\n  dup2\n    /* \"#utility.yul\":641:665   */\n  tag_21\n  jump\t// in\ntag_32:\n    /* \"#utility.yul\":634:639   */\n  dup2\n    /* \"#utility.yul\":631:666   */\n  eq\n    /* \"#utility.yul\":621:684   */\n  tag_33\n  jumpi\n    /* \"#utility.yul\":680:681   */\n  0x00\n    /* \"#utility.yul\":677:678   */\n  dup1\n    /* \"#utility.yul\":670:682   */\n  revert\n    /* \"#utility.yul\":621:684   */\ntag_33:\n    /* \"#utility.yul\":568:690   */\n  pop\n  jump\t// out\n    /* \"#utility.yul\":696:839   */\ntag_23:\n    /* \"#utility.yul\":753:758   */\n  0x00\n    /* \"#utility.yul\":784:790   */\n  dup2\n    /* \"#utility.yul\":778:791   */\n  mload\n    /* \"#utility.yul\":769:791   */\n  swap1\n  pop\n    /* \"#utility.yul\":800:833   */\n  tag_35\n    /* \"#utility.yul\":827:832   */\n  dup2\n    /* \"#utility.yul\":800:833   */\n  tag_22\n  jump\t// in\ntag_35:\n    /* \"#utility.yul\":696:839   */\n  swap3\n  swap2\n  pop\n  pop\n  jump\t// out\n    /* \"#utility.yul\":845:1352   */\ntag_3:\n    /* \"#utility.yul\":924:930   */\n  0x00\n    /* \"#utility.yul\":932:938   */\n  dup1\n    /* \"#utility.yul\":981:983   */\n  0x40\n    /* \"#utility.yul\":969:978   */\n  dup4\n    /* \"#utility.yul\":960:967   */\n  dup6\n    /* \"#utility.yul\":956:979   */\n  sub\n    /* \"#utility.yul\":952:984   */\n  slt\n    /* \"#utility.yul\":949:1068   */\n  iszero\n  tag_37\n  jumpi\n    /* \"#utility.yul\":987:1066   */\n  tag_38\n  tag_18\n  jump\t// in\ntag_38:\n    /* \"#utility.yul\":949:1068   */\ntag_37:\n    /* \"#utility.yul\":1107:1108   */\n  0x00\n    /* \"#utility.yul\":1132:1196   */\n  tag_39\n    /* \"#utility.yul\":1188:1195   */\n  dup6\n    /* \"#utility.yul\":1179:1185   */\n  dup3\n    /* \"#utility.yul\":1168:1177   */\n  dup7\n    /* \"#utility.yul\":1164:1186   */\n  add\n    /* \"#utility.yul\":1132:1196   */\n  tag_23\n  jump\t// in\ntag_39:\n    /* \"#utility.yul\":1122:1196   */\n  swap3\n  pop\n    /* \"#utility.yul\":1078:1206   */\n  pop\n    /* \"#utility.yul\":1245:1247   */\n  0x20\n    /* \"#utility.yul\":1271:1335   */\n  tag_40\n    /* \"#utility.yul\":1327:1334   */\n  dup6\n    /* \"#utility.yul\":1318:1324   */\n  dup3\n    /* \"#utility.yul\":1307:1316   */\n  dup7\n    /* \"#utility.yul\":1303:1325   */\n  add\n    /* \"#utility.yul\":1271:1335   */\n  tag_23\n  jump\t// in\ntag_40:\n    /* \"#utility.yul\":1261:1335   */\n  swap2\n  pop\n    /* \"#utility.yul\":1216:1345   */\n  pop\n    /* \"#utility.yul\":845:1352   */\n  swap3\n  pop\n  swap3\n  swap1\n  pop\n  jump\t// out\n    /* \"ptrn_eco_system_dev_contracts/fakePtrnEcosystemParticipationSmartContract.sol\":563:7397  contract PtrnEcoSystemParticipation is Pausable, Ownable {... */\ntag_14:\n  mload(0x80)\n  mload(0xa0)\n  codecopy(0x00, dataOffset(sub_0), dataSize(sub_0))\n  0x00\n  assignImmutable(\"0x6b88fa438cae5c1216aa45b8d58426fb848d0ea4056264a8a6a1dd473ff0fc05\")\n  0x00\n  assignImmutable(\"0xcb0a4f1f828404731a71b48e4a53cfdf163c30c8a6e88ce60e13ee7555a5c733\")\n  return(0x00, dataSize(sub_0))\nstop\n\nsub_0: assembly {\n        /* \"ptrn_eco_system_dev_contracts/fakePtrnEcosystemParticipationSmartContract.sol\":563:7397  contract PtrnEcoSystemParticipation is Pausable, Ownable {... */\n      mstore(0x40, 0x80)\n      callvalue\n      dup1\n      iszero\n      tag_1\n      jumpi\n      0x00\n      dup1\n      revert\n    tag_1:\n      pop\n      jumpi(tag_2, lt(calldatasize, 0x04))\n      shr(0xe0, calldataload(0x00))\n      dup1\n      0x8da5cb5b\n      gt\n      tag_24\n      jumpi\n      dup1\n      0xe055aeeb\n      gt\n      tag_25\n      jumpi\n      dup1\n      0xe055aeeb\n      eq\n      tag_18\n      jumpi\n      dup1\n      0xe322ad2b\n      eq\n      tag_19\n      jumpi\n      dup1\n      0xe6367ebe\n      eq\n      tag_20\n      jumpi\n      dup1\n      0xe8088766\n      eq\n      tag_21\n      jumpi\n      dup1\n      0xed969c84\n      eq\n      tag_22\n      jumpi\n      dup1\n      0xf2fde38b\n      eq\n      tag_23\n      jumpi\n      jump(tag_2)\n    tag_25:\n      dup1\n      0x8da5cb5b\n      eq\n      tag_13\n      jumpi\n      dup1\n      0xb99152d0\n      eq\n      tag_14\n      jumpi\n      dup1\n      0xc1f74cc8\n      eq\n      tag_15\n      jumpi\n      dup1\n      0xc794363e\n      eq\n      tag_16\n      jumpi\n      dup1\n      0xc964ad45\n      eq\n      tag_17\n      jumpi\n      jump(tag_2)\n    tag_24:\n      dup1\n      0x715018a6\n      gt\n      tag_26\n      jumpi\n      dup1\n      0x715018a6\n      eq\n      tag_8\n      jumpi\n      dup1\n      0x722713f7\n      eq\n      tag_9\n      jumpi\n      dup1\n      0x723e27ff\n      eq\n      tag_10\n      jumpi\n      dup1\n      0x73f42561\n      eq\n      tag_11\n      jumpi\n      dup1\n      0x7754723e\n      eq\n      tag_12\n      jumpi\n      jump(tag_2)\n    tag_26:\n      dup1\n      0x1d9abd7f\n      eq\n      tag_3\n      jumpi\n      dup1\n      0x2e1a7d4d\n      eq\n      tag_4\n      jumpi\n      dup1\n      0x5c975abb\n      eq\n      tag_5\n      jumpi\n      dup1\n      0x679aefce\n      eq\n      tag_6\n      jumpi\n      dup1\n      0x6a9d43dd\n      eq\n      tag_7\n      jumpi\n    tag_2:\n      0x00\n      dup1\n      revert\n        /* \"ptrn_eco_system_dev_contracts/fakePtrnEcosystemParticipationSmartContract.sol\":2292:2465  function addAgregatorPriceFeed(address _ConsumerInterfaceAddress) public onlyOwner {... */\n    tag_3:\n      tag_27\n      0x04\n      dup1\n      calldatasize\n      sub\n      dup2\n      add\n      swap1\n      tag_28\n      swap2\n      swap1\n      tag_29\n      jump\t// in\n    tag_28:\n      tag_30\n      jump\t// in\n    tag_27:\n      stop\n        /* \"ptrn_eco_system_dev_contracts/fakePtrnEcosystemParticipationSmartContract.sol\":6195:6409  function withdraw(uint256 value) onlyOwner public{... */\n    tag_4:\n      tag_31\n      0x04\n      dup1\n      calldatasize\n      sub\n      dup2\n      add\n      swap1\n      tag_32\n      swap2\n      swap1\n      tag_33\n      jump\t// in\n    tag_32:\n      tag_34\n      jump\t// in\n    tag_31:\n      stop\n        /* \"@openzeppelin/contracts/security/Pausable.sol\":1615:1699  function paused() public view virtual returns (bool) {... */\n    tag_5:\n      tag_35\n      tag_36\n      jump\t// in\n    tag_35:\n      mload(0x40)\n      tag_37\n      swap2\n      swap1\n      tag_38\n      jump\t// in\n    tag_37:\n      mload(0x40)\n      dup1\n      swap2\n      sub\n      swap1\n      return\n        /* \"ptrn_eco_system_dev_contracts/fakePtrnEcosystemParticipationSmartContract.sol\":4084:4300  function getRate() public view returns (uint256, uint256, string memory, uint256, string memory) {... */\n    tag_6:\n      tag_39\n      tag_40\n      jump\t// in\n    tag_39:\n      mload(0x40)\n      tag_41\n      swap6\n      swap5\n      swap4\n      swap3\n      swap2\n      swap1\n      tag_42\n      jump\t// in\n    tag_41:\n      mload(0x40)\n      dup1\n      swap2\n      sub\n      swap1\n      return\n        /* \"ptrn_eco_system_dev_contracts/fakePtrnEcosystemParticipationSmartContract.sol\":6849:7110  function transferOfToken(address tokenAddress, address receiver, uint256 amount) public onlyOwner returns (bool){... */\n    tag_7:\n      tag_43\n      0x04\n      dup1\n      calldatasize\n      sub\n      dup2\n      add\n      swap1\n      tag_44\n      swap2\n      swap1\n      tag_45\n      jump\t// in\n    tag_44:\n      tag_46\n      jump\t// in\n    tag_43:\n      mload(0x40)\n      tag_47\n      swap2\n      swap1\n      tag_38\n      jump\t// in\n    tag_47:\n      mload(0x40)\n      dup1\n      swap2\n      sub\n      swap1\n      return\n        /* \"@openzeppelin/contracts/access/Ownable.sol\":1831:1932  function renounceOwnership() public virtual onlyOwner {... */\n    tag_8:\n      tag_48\n      tag_49\n      jump\t// in\n    tag_48:\n      stop\n        /* \"ptrn_eco_system_dev_contracts/fakePtrnEcosystemParticipationSmartContract.sol\":6059:6189  function balanceOf() public view returns (uint256) {... */\n    tag_9:\n      tag_50\n      tag_51\n      jump\t// in\n    tag_50:\n      mload(0x40)\n      tag_52\n      swap2\n      swap1\n      tag_53\n      jump\t// in\n    tag_52:\n      mload(0x40)\n      dup1\n      swap2\n      sub\n      swap1\n      return\n        /* \"ptrn_eco_system_dev_contracts/fakePtrnEcosystemParticipationSmartContract.sol\":3409:4077  function setRate() public returns (bool) {... */\n    tag_10:\n      tag_54\n      tag_55\n      jump\t// in\n    tag_54:\n      mload(0x40)\n      tag_56\n      swap2\n      swap1\n      tag_38\n      jump\t// in\n    tag_56:\n      mload(0x40)\n      dup1\n      swap2\n      sub\n      swap1\n      return\n        /* \"ptrn_eco_system_dev_contracts/fakePtrnEcosystemParticipationSmartContract.sol\":1115:1138  uint256 public burned=0 */\n    tag_11:\n      tag_57\n      tag_58\n      jump\t// in\n    tag_57:\n      mload(0x40)\n      tag_59\n      swap2\n      swap1\n      tag_53\n      jump\t// in\n    tag_59:\n      mload(0x40)\n      dup1\n      swap2\n      sub\n      swap1\n      return\n        /* \"ptrn_eco_system_dev_contracts/fakePtrnEcosystemParticipationSmartContract.sol\":4524:4798  function calculateAmount(uint256 points, uint256 rate, uint256 _decimals) public pure returns (uint256){... */\n    tag_12:\n      tag_60\n      0x04\n      dup1\n      calldatasize\n      sub\n      dup2\n      add\n      swap1\n      tag_61\n      swap2\n      swap1\n      tag_62\n      jump\t// in\n    tag_61:\n      tag_63\n      jump\t// in\n    tag_60:\n      mload(0x40)\n      tag_64\n      swap2\n      swap1\n      tag_53\n      jump\t// in\n    tag_64:\n      mload(0x40)\n      dup1\n      swap2\n      sub\n      swap1\n      return\n        /* \"@openzeppelin/contracts/access/Ownable.sol\":1201:1286  function owner() public view virtual returns (address) {... */\n    tag_13:\n      tag_65\n      tag_66\n      jump\t// in\n    tag_65:\n      mload(0x40)\n      tag_67\n      swap2\n      swap1\n      tag_68\n      jump\t// in\n    tag_67:\n      mload(0x40)\n      dup1\n      swap2\n      sub\n      swap1\n      return\n        /* \"ptrn_eco_system_dev_contracts/fakePtrnEcosystemParticipationSmartContract.sol\":6642:6797  function balanceOfToken(address tokenAddress) public onlyOwner view returns (uint256) {... */\n    tag_14:\n      tag_69\n      0x04\n      dup1\n      calldatasize\n      sub\n      dup2\n      add\n      swap1\n      tag_70\n      swap2\n      swap1\n      tag_29\n      jump\t// in\n    tag_70:\n      tag_71\n      jump\t// in\n    tag_69:\n      mload(0x40)\n      tag_72\n      swap2\n      swap1\n      tag_53\n      jump\t// in\n    tag_72:\n      mload(0x40)\n      dup1\n      swap2\n      sub\n      swap1\n      return\n        /* \"ptrn_eco_system_dev_contracts/fakePtrnEcosystemParticipationSmartContract.sol\":1379:1412  uint256 public daily_withdraw = 0 */\n    tag_15:\n      tag_73\n      tag_74\n      jump\t// in\n    tag_73:\n      mload(0x40)\n      tag_75\n      swap2\n      swap1\n      tag_53\n      jump\t// in\n    tag_75:\n      mload(0x40)\n      dup1\n      swap2\n      sub\n      swap1\n      return\n        /* \"ptrn_eco_system_dev_contracts/fakePtrnEcosystemParticipationSmartContract.sol\":2471:2627  function addPoolRateFeed(address _ConsumerInterfaceAddress) public onlyOwner{... */\n    tag_16:\n      tag_76\n      0x04\n      dup1\n      calldatasize\n      sub\n      dup2\n      add\n      swap1\n      tag_77\n      swap2\n      swap1\n      tag_29\n      jump\t// in\n    tag_77:\n      tag_78\n      jump\t// in\n    tag_76:\n      stop\n        /* \"ptrn_eco_system_dev_contracts/fakePtrnEcosystemParticipationSmartContract.sol\":6415:6583  function dailyReward() onlyOwner public{... */\n    tag_17:\n      tag_79\n      tag_80\n      jump\t// in\n    tag_79:\n      stop\n        /* \"ptrn_eco_system_dev_contracts/fakePtrnEcosystemParticipationSmartContract.sol\":4306:4518  function calculatePoints(uint256 amount, uint256 rate, uint256 decimals) public pure returns (uint256){... */\n    tag_18:\n      tag_81\n      0x04\n      dup1\n      calldatasize\n      sub\n      dup2\n      add\n      swap1\n      tag_82\n      swap2\n      swap1\n      tag_62\n      jump\t// in\n    tag_82:\n      tag_83\n      jump\t// in\n    tag_81:\n      mload(0x40)\n      tag_84\n      swap2\n      swap1\n      tag_53\n      jump\t// in\n    tag_84:\n      mload(0x40)\n      dup1\n      swap2\n      sub\n      swap1\n      return\n        /* \"ptrn_eco_system_dev_contracts/fakePtrnEcosystemParticipationSmartContract.sol\":1335:1373  uint256 public availableToWithdraw = 0 */\n    tag_19:\n      tag_85\n      tag_86\n      jump\t// in\n    tag_85:\n      mload(0x40)\n      tag_87\n      swap2\n      swap1\n      tag_53\n      jump\t// in\n    tag_87:\n      mload(0x40)\n      dup1\n      swap2\n      sub\n      swap1\n      return\n        /* \"ptrn_eco_system_dev_contracts/fakePtrnEcosystemParticipationSmartContract.sol\":2094:2281  function currentRateFeed() public view returns (string memory){... */\n    tag_20:\n      tag_88\n      tag_89\n      jump\t// in\n    tag_88:\n      mload(0x40)\n      tag_90\n      swap2\n      swap1\n      tag_91\n      jump\t// in\n    tag_90:\n      mload(0x40)\n      dup1\n      swap2\n      sub\n      swap1\n      return\n        /* \"ptrn_eco_system_dev_contracts/fakePtrnEcosystemParticipationSmartContract.sol\":1999:2087  function changeRateFeed() public onlyOwner{... */\n    tag_21:\n      tag_92\n      tag_93\n      jump\t// in\n    tag_92:\n      stop\n        /* \"ptrn_eco_system_dev_contracts/fakePtrnEcosystemParticipationSmartContract.sol\":4981:6053  function chargeContract(uint256 amount) public returns (bool){... */\n    tag_22:\n      tag_94\n      0x04\n      dup1\n      calldatasize\n      sub\n      dup2\n      add\n      swap1\n      tag_95\n      swap2\n      swap1\n      tag_33\n      jump\t// in\n    tag_95:\n      tag_96\n      jump\t// in\n    tag_94:\n      mload(0x40)\n      tag_97\n      swap2\n      swap1\n      tag_38\n      jump\t// in\n    tag_97:\n      mload(0x40)\n      dup1\n      swap2\n      sub\n      swap1\n      return\n        /* \"@openzeppelin/contracts/access/Ownable.sol\":2081:2279  function transferOwnership(address newOwner) public virtual onlyOwner {... */\n    tag_23:\n      tag_98\n      0x04\n      dup1\n      calldatasize\n      sub\n      dup2\n      add\n      swap1\n      tag_99\n      swap2\n      swap1\n      tag_29\n      jump\t// in\n    tag_99:\n      tag_100\n      jump\t// in\n    tag_98:\n      stop\n        /* \"ptrn_eco_system_dev_contracts/fakePtrnEcosystemParticipationSmartContract.sol\":2292:2465  function addAgregatorPriceFeed(address _ConsumerInterfaceAddress) public onlyOwner {... */\n    tag_30:\n        /* \"@openzeppelin/contracts/access/Ownable.sol\":1094:1107  _checkOwner() */\n      tag_102\n        /* \"@openzeppelin/contracts/access/Ownable.sol\":1094:1105  _checkOwner */\n      tag_103\n        /* \"@openzeppelin/contracts/access/Ownable.sol\":1094:1107  _checkOwner() */\n      jump\t// in\n    tag_102:\n        /* \"ptrn_eco_system_dev_contracts/fakePtrnEcosystemParticipationSmartContract.sol\":2432:2457  _ConsumerInterfaceAddress */\n      dup1\n        /* \"ptrn_eco_system_dev_contracts/fakePtrnEcosystemParticipationSmartContract.sol\":2385:2402  agregatorConsumer */\n      0x01\n      0x00\n        /* \"ptrn_eco_system_dev_contracts/fakePtrnEcosystemParticipationSmartContract.sol\":2385:2458  agregatorConsumer = AgregatorConsumerInterface(_ConsumerInterfaceAddress) */\n      0x0100\n      exp\n      dup2\n      sload\n      dup2\n      0xffffffffffffffffffffffffffffffffffffffff\n      mul\n      not\n      and\n      swap1\n      dup4\n      0xffffffffffffffffffffffffffffffffffffffff\n      and\n      mul\n      or\n      swap1\n      sstore\n      pop\n        /* \"ptrn_eco_system_dev_contracts/fakePtrnEcosystemParticipationSmartContract.sol\":2292:2465  function addAgregatorPriceFeed(address _ConsumerInterfaceAddress) public onlyOwner {... */\n      pop\n      jump\t// out\n        /* \"ptrn_eco_system_dev_contracts/fakePtrnEcosystemParticipationSmartContract.sol\":6195:6409  function withdraw(uint256 value) onlyOwner public{... */\n    tag_34:\n        /* \"@openzeppelin/contracts/access/Ownable.sol\":1094:1107  _checkOwner() */\n      tag_106\n        /* \"@openzeppelin/contracts/access/Ownable.sol\":1094:1105  _checkOwner */\n      tag_103\n        /* \"@openzeppelin/contracts/access/Ownable.sol\":1094:1107  _checkOwner() */\n      jump\t// in\n    tag_106:\n        /* \"ptrn_eco_system_dev_contracts/fakePtrnEcosystemParticipationSmartContract.sol\":6290:6304  daily_withdraw */\n      sload(0x0a)\n        /* \"ptrn_eco_system_dev_contracts/fakePtrnEcosystemParticipationSmartContract.sol\":6270:6289  availableToWithdraw */\n      sload(0x09)\n        /* \"ptrn_eco_system_dev_contracts/fakePtrnEcosystemParticipationSmartContract.sol\":6270:6304  availableToWithdraw-daily_withdraw */\n      tag_108\n      swap2\n      swap1\n      tag_109\n      jump\t// in\n    tag_108:\n        /* \"ptrn_eco_system_dev_contracts/fakePtrnEcosystemParticipationSmartContract.sol\":6262:6267  value */\n      dup2\n        /* \"ptrn_eco_system_dev_contracts/fakePtrnEcosystemParticipationSmartContract.sol\":6262:6304  value<= availableToWithdraw-daily_withdraw */\n      gt\n      iszero\n        /* \"ptrn_eco_system_dev_contracts/fakePtrnEcosystemParticipationSmartContract.sol\":6254:6371  require(value<= availableToWithdraw-daily_withdraw, \"Not enough points. The contract must be charged with more PTRN\") */\n      tag_110\n      jumpi\n      mload(0x40)\n      0x08c379a000000000000000000000000000000000000000000000000000000000\n      dup2\n      mstore\n      0x04\n      add\n      tag_111\n      swap1\n      tag_112\n      jump\t// in\n    tag_111:\n      mload(0x40)\n      dup1\n      swap2\n      sub\n      swap1\n      revert\n    tag_110:\n        /* \"ptrn_eco_system_dev_contracts/fakePtrnEcosystemParticipationSmartContract.sol\":6397:6402  value */\n      dup1\n        /* \"ptrn_eco_system_dev_contracts/fakePtrnEcosystemParticipationSmartContract.sol\":6381:6395  daily_withdraw */\n      0x0a\n      0x00\n        /* \"ptrn_eco_system_dev_contracts/fakePtrnEcosystemParticipationSmartContract.sol\":6381:6402  daily_withdraw+=value */\n      dup3\n      dup3\n      sload\n      tag_113\n      swap2\n      swap1\n      tag_114\n      jump\t// in\n    tag_113:\n      swap3\n      pop\n      pop\n      dup2\n      swap1\n      sstore\n      pop\n        /* \"ptrn_eco_system_dev_contracts/fakePtrnEcosystemParticipationSmartContract.sol\":6195:6409  function withdraw(uint256 value) onlyOwner public{... */\n      pop\n      jump\t// out\n        /* \"@openzeppelin/contracts/security/Pausable.sol\":1615:1699  function paused() public view virtual returns (bool) {... */\n    tag_36:\n        /* \"@openzeppelin/contracts/security/Pausable.sol\":1662:1666  bool */\n      0x00\n        /* \"@openzeppelin/contracts/security/Pausable.sol\":1685:1692  _paused */\n      dup1\n      0x00\n      swap1\n      sload\n      swap1\n      0x0100\n      exp\n      swap1\n      div\n      0xff\n      and\n        /* \"@openzeppelin/contracts/security/Pausable.sol\":1678:1692  return _paused */\n      swap1\n      pop\n        /* \"@openzeppelin/contracts/security/Pausable.sol\":1615:1699  function paused() public view virtual returns (bool) {... */\n      swap1\n      jump\t// out\n        /* \"ptrn_eco_system_dev_contracts/fakePtrnEcosystemParticipationSmartContract.sol\":4084:4300  function getRate() public view returns (uint256, uint256, string memory, uint256, string memory) {... */\n    tag_40:\n        /* \"ptrn_eco_system_dev_contracts/fakePtrnEcosystemParticipationSmartContract.sol\":4124:4131  uint256 */\n      0x00\n        /* \"ptrn_eco_system_dev_contracts/fakePtrnEcosystemParticipationSmartContract.sol\":4133:4140  uint256 */\n      dup1\n        /* \"ptrn_eco_system_dev_contracts/fakePtrnEcosystemParticipationSmartContract.sol\":4142:4155  string memory */\n      0x60\n        /* \"ptrn_eco_system_dev_contracts/fakePtrnEcosystemParticipationSmartContract.sol\":4157:4164  uint256 */\n      0x00\n        /* \"ptrn_eco_system_dev_contracts/fakePtrnEcosystemParticipationSmartContract.sol\":4166:4179  string memory */\n      0x60\n        /* \"ptrn_eco_system_dev_contracts/fakePtrnEcosystemParticipationSmartContract.sol\":4199:4207  rateData */\n      0x04\n        /* \"ptrn_eco_system_dev_contracts/fakePtrnEcosystemParticipationSmartContract.sol\":4199:4217  rateData.tokenRate */\n      0x00\n      add\n      sload\n        /* \"ptrn_eco_system_dev_contracts/fakePtrnEcosystemParticipationSmartContract.sol\":4219:4227  rateData */\n      0x04\n        /* \"ptrn_eco_system_dev_contracts/fakePtrnEcosystemParticipationSmartContract.sol\":4219:4236  rateData.decimals */\n      0x01\n      add\n      sload\n        /* \"ptrn_eco_system_dev_contracts/fakePtrnEcosystemParticipationSmartContract.sol\":4238:4246  rateData */\n      0x04\n        /* \"ptrn_eco_system_dev_contracts/fakePtrnEcosystemParticipationSmartContract.sol\":4238:4262  rateData.tokenRateString */\n      0x02\n      add\n        /* \"ptrn_eco_system_dev_contracts/fakePtrnEcosystemParticipationSmartContract.sol\":4264:4272  rateData */\n      0x04\n        /* \"ptrn_eco_system_dev_contracts/fakePtrnEcosystemParticipationSmartContract.sol\":4264:4277  rateData.date */\n      0x03\n      add\n      sload\n        /* \"ptrn_eco_system_dev_contracts/fakePtrnEcosystemParticipationSmartContract.sol\":4279:4287  rateData */\n      0x04\n        /* \"ptrn_eco_system_dev_contracts/fakePtrnEcosystemParticipationSmartContract.sol\":4279:4292  rateData.feed */\n      dup1\n      add\n        /* \"ptrn_eco_system_dev_contracts/fakePtrnEcosystemParticipationSmartContract.sol\":4191:4293  return (rateData.tokenRate, rateData.decimals, rateData.tokenRateString, rateData.date, rateData.feed) */\n      dup3\n      dup1\n      sload\n      tag_117\n      swap1\n      tag_118\n      jump\t// in\n    tag_117:\n      dup1\n      0x1f\n      add\n      0x20\n      dup1\n      swap2\n      div\n      mul\n      0x20\n      add\n      mload(0x40)\n      swap1\n      dup2\n      add\n      0x40\n      mstore\n      dup1\n      swap3\n      swap2\n      swap1\n      dup2\n      dup2\n      mstore\n      0x20\n      add\n      dup3\n      dup1\n      sload\n      tag_119\n      swap1\n      tag_118\n      jump\t// in\n    tag_119:\n      dup1\n      iszero\n      tag_120\n      jumpi\n      dup1\n      0x1f\n      lt\n      tag_121\n      jumpi\n      0x0100\n      dup1\n      dup4\n      sload\n      div\n      mul\n      dup4\n      mstore\n      swap2\n      0x20\n      add\n      swap2\n      jump(tag_120)\n    tag_121:\n      dup3\n      add\n      swap2\n      swap1\n      0x00\n      mstore\n      keccak256(0x00, 0x20)\n      swap1\n    tag_122:\n      dup2\n      sload\n      dup2\n      mstore\n      swap1\n      0x01\n      add\n      swap1\n      0x20\n      add\n      dup1\n      dup4\n      gt\n      tag_122\n      jumpi\n      dup3\n      swap1\n      sub\n      0x1f\n      and\n      dup3\n      add\n      swap2\n    tag_120:\n      pop\n      pop\n      pop\n      pop\n      pop\n      swap3\n      pop\n      dup1\n      dup1\n      sload\n      tag_123\n      swap1\n      tag_118\n      jump\t// in\n    tag_123:\n      dup1\n      0x1f\n      add\n      0x20\n      dup1\n      swap2\n      div\n      mul\n      0x20\n      add\n      mload(0x40)\n      swap1\n      dup2\n      add\n      0x40\n      mstore\n      dup1\n      swap3\n      swap2\n      swap1\n      dup2\n      dup2\n      mstore\n      0x20\n      add\n      dup3\n      dup1\n      sload\n      tag_124\n      swap1\n      tag_118\n      jump\t// in\n    tag_124:\n      dup1\n      iszero\n      tag_125\n      jumpi\n      dup1\n      0x1f\n      lt\n      tag_126\n      jumpi\n      0x0100\n      dup1\n      dup4\n      sload\n      div\n      mul\n      dup4\n      mstore\n      swap2\n      0x20\n      add\n      swap2\n      jump(tag_125)\n    tag_126:\n      dup3\n      add\n      swap2\n      swap1\n      0x00\n      mstore\n      keccak256(0x00, 0x20)\n      swap1\n    tag_127:\n      dup2\n      sload\n      dup2\n      mstore\n      swap1\n      0x01\n      add\n      swap1\n      0x20\n      add\n      dup1\n      dup4\n      gt\n      tag_127\n      jumpi\n      dup3\n      swap1\n      sub\n      0x1f\n      and\n      dup3\n      add\n      swap2\n    tag_125:\n      pop\n      pop\n      pop\n      pop\n      pop\n      swap1\n      pop\n      swap5\n      pop\n      swap5\n      pop\n      swap5\n      pop\n      swap5\n      pop\n      swap5\n      pop\n        /* \"ptrn_eco_system_dev_contracts/fakePtrnEcosystemParticipationSmartContract.sol\":4084:4300  function getRate() public view returns (uint256, uint256, string memory, uint256, string memory) {... */\n      swap1\n      swap2\n      swap3\n      swap4\n      swap5\n      jump\t// out\n        /* \"ptrn_eco_system_dev_contracts/fakePtrnEcosystemParticipationSmartContract.sol\":6849:7110  function transferOfToken(address tokenAddress, address receiver, uint256 amount) public onlyOwner returns (bool){... */\n    tag_46:\n        /* \"ptrn_eco_system_dev_contracts/fakePtrnEcosystemParticipationSmartContract.sol\":6956:6960  bool */\n      0x00\n        /* \"@openzeppelin/contracts/access/Ownable.sol\":1094:1107  _checkOwner() */\n      tag_129\n        /* \"@openzeppelin/contracts/access/Ownable.sol\":1094:1105  _checkOwner */\n      tag_103\n        /* \"@openzeppelin/contracts/access/Ownable.sol\":1094:1107  _checkOwner() */\n      jump\t// in\n    tag_129:\n        /* \"ptrn_eco_system_dev_contracts/fakePtrnEcosystemParticipationSmartContract.sol\":7009:7015  amount */\n      dup2\n        /* \"ptrn_eco_system_dev_contracts/fakePtrnEcosystemParticipationSmartContract.sol\":6979:7007  balanceOfToken(tokenAddress) */\n      tag_131\n        /* \"ptrn_eco_system_dev_contracts/fakePtrnEcosystemParticipationSmartContract.sol\":6994:7006  tokenAddress */\n      dup6\n        /* \"ptrn_eco_system_dev_contracts/fakePtrnEcosystemParticipationSmartContract.sol\":6979:6993  balanceOfToken */\n      tag_71\n        /* \"ptrn_eco_system_dev_contracts/fakePtrnEcosystemParticipationSmartContract.sol\":6979:7007  balanceOfToken(tokenAddress) */\n      jump\t// in\n    tag_131:\n        /* \"ptrn_eco_system_dev_contracts/fakePtrnEcosystemParticipationSmartContract.sol\":6979:7015  balanceOfToken(tokenAddress)>=amount */\n      lt\n      iszero\n        /* \"ptrn_eco_system_dev_contracts/fakePtrnEcosystemParticipationSmartContract.sol\":6971:7039  require(balanceOfToken(tokenAddress)>=amount, \"Not enough balance!\") */\n      tag_132\n      jumpi\n      mload(0x40)\n      0x08c379a000000000000000000000000000000000000000000000000000000000\n      dup2\n      mstore\n      0x04\n      add\n      tag_133\n      swap1\n      tag_134\n      jump\t// in\n    tag_133:\n      mload(0x40)\n      dup1\n      swap2\n      sub\n      swap1\n      revert\n    tag_132:\n        /* \"ptrn_eco_system_dev_contracts/fakePtrnEcosystemParticipationSmartContract.sol\":7063:7075  tokenAddress */\n      dup4\n        /* \"ptrn_eco_system_dev_contracts/fakePtrnEcosystemParticipationSmartContract.sol\":7056:7085  IERC20(tokenAddress).transfer */\n      0xffffffffffffffffffffffffffffffffffffffff\n      and\n      0xa9059cbb\n        /* \"ptrn_eco_system_dev_contracts/fakePtrnEcosystemParticipationSmartContract.sol\":7086:7094  receiver */\n      dup5\n        /* \"ptrn_eco_system_dev_contracts/fakePtrnEcosystemParticipationSmartContract.sol\":7096:7102  amount */\n      dup5\n        /* \"ptrn_eco_system_dev_contracts/fakePtrnEcosystemParticipationSmartContract.sol\":7056:7103  IERC20(tokenAddress).transfer(receiver, amount) */\n      mload(0x40)\n      dup4\n      0xffffffff\n      and\n      0xe0\n      shl\n      dup2\n      mstore\n      0x04\n      add\n      tag_135\n      swap3\n      swap2\n      swap1\n      tag_136\n      jump\t// in\n    tag_135:\n      0x20\n      mload(0x40)\n      dup1\n      dup4\n      sub\n      dup2\n      0x00\n      dup8\n      gas\n      call\n      iszero\n      dup1\n      iszero\n      tag_138\n      jumpi\n      returndatasize\n      0x00\n      dup1\n      returndatacopy\n      revert(0x00, returndatasize)\n    tag_138:\n      pop\n      pop\n      pop\n      pop\n      mload(0x40)\n      returndatasize\n      not(0x1f)\n      0x1f\n      dup3\n      add\n      and\n      dup3\n      add\n      dup1\n      0x40\n      mstore\n      pop\n      dup2\n      add\n      swap1\n      tag_139\n      swap2\n      swap1\n      tag_140\n      jump\t// in\n    tag_139:\n        /* \"ptrn_eco_system_dev_contracts/fakePtrnEcosystemParticipationSmartContract.sol\":7049:7103  return IERC20(tokenAddress).transfer(receiver, amount) */\n      swap1\n      pop\n        /* \"ptrn_eco_system_dev_contracts/fakePtrnEcosystemParticipationSmartContract.sol\":6849:7110  function transferOfToken(address tokenAddress, address receiver, uint256 amount) public onlyOwner returns (bool){... */\n      swap4\n      swap3\n      pop\n      pop\n      pop\n      jump\t// out\n        /* \"@openzeppelin/contracts/access/Ownable.sol\":1831:1932  function renounceOwnership() public virtual onlyOwner {... */\n    tag_49:\n        /* \"@openzeppelin/contracts/access/Ownable.sol\":1094:1107  _checkOwner() */\n      tag_142\n        /* \"@openzeppelin/contracts/access/Ownable.sol\":1094:1105  _checkOwner */\n      tag_103\n        /* \"@openzeppelin/contracts/access/Ownable.sol\":1094:1107  _checkOwner() */\n      jump\t// in\n    tag_142:\n        /* \"@openzeppelin/contracts/access/Ownable.sol\":1895:1925  _transferOwnership(address(0)) */\n      tag_144\n        /* \"@openzeppelin/contracts/access/Ownable.sol\":1922:1923  0 */\n      0x00\n        /* \"@openzeppelin/contracts/access/Ownable.sol\":1895:1913  _transferOwnership */\n      tag_145\n        /* \"@openzeppelin/contracts/access/Ownable.sol\":1895:1925  _transferOwnership(address(0)) */\n      jump\t// in\n    tag_144:\n        /* \"@openzeppelin/contracts/access/Ownable.sol\":1831:1932  function renounceOwnership() public virtual onlyOwner {... */\n      jump\t// out\n        /* \"ptrn_eco_system_dev_contracts/fakePtrnEcosystemParticipationSmartContract.sol\":6059:6189  function balanceOf() public view returns (uint256) {... */\n    tag_51:\n        /* \"ptrn_eco_system_dev_contracts/fakePtrnEcosystemParticipationSmartContract.sol\":6101:6108  uint256 */\n      0x00\n        /* \"ptrn_eco_system_dev_contracts/fakePtrnEcosystemParticipationSmartContract.sol\":6134:6156  ACCEPTED_TOKEN_ADDRESS */\n      immutable(\"0xcb0a4f1f828404731a71b48e4a53cfdf163c30c8a6e88ce60e13ee7555a5c733\")\n        /* \"ptrn_eco_system_dev_contracts/fakePtrnEcosystemParticipationSmartContract.sol\":6127:6167  IERC20(ACCEPTED_TOKEN_ADDRESS).balanceOf */\n      0xffffffffffffffffffffffffffffffffffffffff\n      and\n      0x70a08231\n        /* \"ptrn_eco_system_dev_contracts/fakePtrnEcosystemParticipationSmartContract.sol\":6176:6180  this */\n      address\n        /* \"ptrn_eco_system_dev_contracts/fakePtrnEcosystemParticipationSmartContract.sol\":6127:6182  IERC20(ACCEPTED_TOKEN_ADDRESS).balanceOf(address(this)) */\n      mload(0x40)\n      dup3\n      0xffffffff\n      and\n      0xe0\n      shl\n      dup2\n      mstore\n      0x04\n      add\n      tag_147\n      swap2\n      swap1\n      tag_68\n      jump\t// in\n    tag_147:\n      0x20\n      mload(0x40)\n      dup1\n      dup4\n      sub\n      dup2\n      dup7\n      gas\n      staticcall\n      iszero\n      dup1\n      iszero\n      tag_149\n      jumpi\n      returndatasize\n      0x00\n      dup1\n      returndatacopy\n      revert(0x00, returndatasize)\n    tag_149:\n      pop\n      pop\n      pop\n      pop\n      mload(0x40)\n      returndatasize\n      not(0x1f)\n      0x1f\n      dup3\n      add\n      and\n      dup3\n      add\n      dup1\n      0x40\n      mstore\n      pop\n      dup2\n      add\n      swap1\n      tag_150\n      swap2\n      swap1\n      tag_151\n      jump\t// in\n    tag_150:\n        /* \"ptrn_eco_system_dev_contracts/fakePtrnEcosystemParticipationSmartContract.sol\":6120:6182  return IERC20(ACCEPTED_TOKEN_ADDRESS).balanceOf(address(this)) */\n      swap1\n      pop\n        /* \"ptrn_eco_system_dev_contracts/fakePtrnEcosystemParticipationSmartContract.sol\":6059:6189  function balanceOf() public view returns (uint256) {... */\n      swap1\n      jump\t// out\n        /* \"ptrn_eco_system_dev_contracts/fakePtrnEcosystemParticipationSmartContract.sol\":3409:4077  function setRate() public returns (bool) {... */\n    tag_55:\n        /* \"ptrn_eco_system_dev_contracts/fakePtrnEcosystemParticipationSmartContract.sol\":3444:3448  bool */\n      0x00\n        /* \"ptrn_eco_system_dev_contracts/fakePtrnEcosystemParticipationSmartContract.sol\":3873:3881  11111111 */\n      0xa98ac7\n        /* \"ptrn_eco_system_dev_contracts/fakePtrnEcosystemParticipationSmartContract.sol\":3852:3860  rateData */\n      0x04\n        /* \"ptrn_eco_system_dev_contracts/fakePtrnEcosystemParticipationSmartContract.sol\":3852:3870  rateData.tokenRate */\n      0x00\n      add\n        /* \"ptrn_eco_system_dev_contracts/fakePtrnEcosystemParticipationSmartContract.sol\":3852:3881  rateData.tokenRate = 11111111 */\n      dup2\n      swap1\n      sstore\n      pop\n        /* \"ptrn_eco_system_dev_contracts/fakePtrnEcosystemParticipationSmartContract.sol\":3907:3908  8 */\n      0x08\n        /* \"ptrn_eco_system_dev_contracts/fakePtrnEcosystemParticipationSmartContract.sol\":3887:3895  rateData */\n      0x04\n        /* \"ptrn_eco_system_dev_contracts/fakePtrnEcosystemParticipationSmartContract.sol\":3887:3904  rateData.decimals */\n      0x01\n      add\n        /* \"ptrn_eco_system_dev_contracts/fakePtrnEcosystemParticipationSmartContract.sol\":3887:3908  rateData.decimals = 8 */\n      dup2\n      swap1\n      sstore\n      pop\n        /* \"ptrn_eco_system_dev_contracts/fakePtrnEcosystemParticipationSmartContract.sol\":3914:3961  rateData.tokenRateString = \"fakeUSDT/DummyPTRN\" */\n      mload(0x40)\n      dup1\n      0x40\n      add\n      0x40\n      mstore\n      dup1\n      0x12\n      dup2\n      mstore\n      0x20\n      add\n      0x66616b65555344542f44756d6d795054524e0000000000000000000000000000\n      dup2\n      mstore\n      pop\n        /* \"ptrn_eco_system_dev_contracts/fakePtrnEcosystemParticipationSmartContract.sol\":3914:3922  rateData */\n      0x04\n        /* \"ptrn_eco_system_dev_contracts/fakePtrnEcosystemParticipationSmartContract.sol\":3914:3938  rateData.tokenRateString */\n      0x02\n      add\n        /* \"ptrn_eco_system_dev_contracts/fakePtrnEcosystemParticipationSmartContract.sol\":3914:3961  rateData.tokenRateString = \"fakeUSDT/DummyPTRN\" */\n      swap1\n      dup2\n      tag_153\n      swap2\n      swap1\n      tag_154\n      jump\t// in\n    tag_153:\n      pop\n        /* \"ptrn_eco_system_dev_contracts/fakePtrnEcosystemParticipationSmartContract.sol\":3983:3993  1700135082 */\n      0x655600aa\n        /* \"ptrn_eco_system_dev_contracts/fakePtrnEcosystemParticipationSmartContract.sol\":3967:3975  rateData */\n      0x04\n        /* \"ptrn_eco_system_dev_contracts/fakePtrnEcosystemParticipationSmartContract.sol\":3967:3980  rateData.date */\n      0x03\n      add\n        /* \"ptrn_eco_system_dev_contracts/fakePtrnEcosystemParticipationSmartContract.sol\":3967:3993  rateData.date = 1700135082 */\n      dup2\n      swap1\n      sstore\n      pop\n        /* \"ptrn_eco_system_dev_contracts/fakePtrnEcosystemParticipationSmartContract.sol\":4015:4027  poolRateFeed */\n      0x00\n      0x15\n      swap1\n      sload\n      swap1\n      0x0100\n      exp\n      swap1\n      div\n      0xff\n      and\n        /* \"ptrn_eco_system_dev_contracts/fakePtrnEcosystemParticipationSmartContract.sol\":4015:4052  poolRateFeed ? \"Pool\" : \"AgregatorV3\" */\n      tag_155\n      jumpi\n      mload(0x40)\n      dup1\n      0x40\n      add\n      0x40\n      mstore\n      dup1\n      0x0b\n      dup2\n      mstore\n      0x20\n      add\n      0x416772656761746f725633000000000000000000000000000000000000000000\n      dup2\n      mstore\n      pop\n      jump(tag_156)\n    tag_155:\n      mload(0x40)\n      dup1\n      0x40\n      add\n      0x40\n      mstore\n      dup1\n      0x04\n      dup2\n      mstore\n      0x20\n      add\n      0x506f6f6c00000000000000000000000000000000000000000000000000000000\n      dup2\n      mstore\n      pop\n    tag_156:\n        /* \"ptrn_eco_system_dev_contracts/fakePtrnEcosystemParticipationSmartContract.sol\":3999:4007  rateData */\n      0x04\n        /* \"ptrn_eco_system_dev_contracts/fakePtrnEcosystemParticipationSmartContract.sol\":3999:4012  rateData.feed */\n      dup1\n      add\n        /* \"ptrn_eco_system_dev_contracts/fakePtrnEcosystemParticipationSmartContract.sol\":3999:4052  rateData.feed = poolRateFeed ? \"Pool\" : \"AgregatorV3\" */\n      swap1\n      dup2\n      tag_157\n      swap2\n      swap1\n      tag_154\n      jump\t// in\n    tag_157:\n      pop\n        /* \"ptrn_eco_system_dev_contracts/fakePtrnEcosystemParticipationSmartContract.sol\":4066:4070  true */\n      0x01\n        /* \"ptrn_eco_system_dev_contracts/fakePtrnEcosystemParticipationSmartContract.sol\":4059:4070  return true */\n      swap1\n      pop\n        /* \"ptrn_eco_system_dev_contracts/fakePtrnEcosystemParticipationSmartContract.sol\":3409:4077  function setRate() public returns (bool) {... */\n      swap1\n      jump\t// out\n        /* \"ptrn_eco_system_dev_contracts/fakePtrnEcosystemParticipationSmartContract.sol\":1115:1138  uint256 public burned=0 */\n    tag_58:\n      sload(0x03)\n      dup2\n      jump\t// out\n        /* \"ptrn_eco_system_dev_contracts/fakePtrnEcosystemParticipationSmartContract.sol\":4524:4798  function calculateAmount(uint256 points, uint256 rate, uint256 _decimals) public pure returns (uint256){... */\n    tag_63:\n        /* \"ptrn_eco_system_dev_contracts/fakePtrnEcosystemParticipationSmartContract.sol\":4619:4626  uint256 */\n      0x00\n        /* \"ptrn_eco_system_dev_contracts/fakePtrnEcosystemParticipationSmartContract.sol\":4652:4653  0 */\n      dup1\n        /* \"ptrn_eco_system_dev_contracts/fakePtrnEcosystemParticipationSmartContract.sol\":4645:4649  rate */\n      dup4\n        /* \"ptrn_eco_system_dev_contracts/fakePtrnEcosystemParticipationSmartContract.sol\":4645:4653  rate > 0 */\n      gt\n        /* \"ptrn_eco_system_dev_contracts/fakePtrnEcosystemParticipationSmartContract.sol\":4637:4688  require(rate > 0, \"Rate must be greater than zero\") */\n      tag_159\n      jumpi\n      mload(0x40)\n      0x08c379a000000000000000000000000000000000000000000000000000000000\n      dup2\n      mstore\n      0x04\n      add\n      tag_160\n      swap1\n      tag_161\n      jump\t// in\n    tag_160:\n      mload(0x40)\n      dup1\n      swap2\n      sub\n      swap1\n      revert\n    tag_159:\n        /* \"ptrn_eco_system_dev_contracts/fakePtrnEcosystemParticipationSmartContract.sol\":4698:4724  uint256 amountIn26Decimals */\n      0x00\n        /* \"ptrn_eco_system_dev_contracts/fakePtrnEcosystemParticipationSmartContract.sol\":4740:4749  _decimals */\n      dup3\n        /* \"ptrn_eco_system_dev_contracts/fakePtrnEcosystemParticipationSmartContract.sol\":4736:4738  10 */\n      0x0a\n        /* \"ptrn_eco_system_dev_contracts/fakePtrnEcosystemParticipationSmartContract.sol\":4736:4749  10**_decimals */\n      tag_162\n      swap2\n      swap1\n      tag_163\n      jump\t// in\n    tag_162:\n        /* \"ptrn_eco_system_dev_contracts/fakePtrnEcosystemParticipationSmartContract.sol\":4727:4733  points */\n      dup6\n        /* \"ptrn_eco_system_dev_contracts/fakePtrnEcosystemParticipationSmartContract.sol\":4727:4749  points * 10**_decimals */\n      tag_164\n      swap2\n      swap1\n      tag_165\n      jump\t// in\n    tag_164:\n        /* \"ptrn_eco_system_dev_contracts/fakePtrnEcosystemParticipationSmartContract.sol\":4698:4749  uint256 amountIn26Decimals = points * 10**_decimals */\n      swap1\n      pop\n        /* \"ptrn_eco_system_dev_contracts/fakePtrnEcosystemParticipationSmartContract.sol\":4787:4791  rate */\n      dup4\n        /* \"ptrn_eco_system_dev_contracts/fakePtrnEcosystemParticipationSmartContract.sol\":4766:4784  amountIn26Decimals */\n      dup2\n        /* \"ptrn_eco_system_dev_contracts/fakePtrnEcosystemParticipationSmartContract.sol\":4766:4791  amountIn26Decimals / rate */\n      tag_166\n      swap2\n      swap1\n      tag_167\n      jump\t// in\n    tag_166:\n        /* \"ptrn_eco_system_dev_contracts/fakePtrnEcosystemParticipationSmartContract.sol\":4759:4791  return amountIn26Decimals / rate */\n      swap2\n      pop\n      pop\n        /* \"ptrn_eco_system_dev_contracts/fakePtrnEcosystemParticipationSmartContract.sol\":4524:4798  function calculateAmount(uint256 points, uint256 rate, uint256 _decimals) public pure returns (uint256){... */\n      swap4\n      swap3\n      pop\n      pop\n      pop\n      jump\t// out\n        /* \"@openzeppelin/contracts/access/Ownable.sol\":1201:1286  function owner() public view virtual returns (address) {... */\n    tag_66:\n        /* \"@openzeppelin/contracts/access/Ownable.sol\":1247:1254  address */\n      0x00\n        /* \"@openzeppelin/contracts/access/Ownable.sol\":1273:1279  _owner */\n      dup1\n      0x01\n      swap1\n      sload\n      swap1\n      0x0100\n      exp\n      swap1\n      div\n      0xffffffffffffffffffffffffffffffffffffffff\n      and\n        /* \"@openzeppelin/contracts/access/Ownable.sol\":1266:1279  return _owner */\n      swap1\n      pop\n        /* \"@openzeppelin/contracts/access/Ownable.sol\":1201:1286  function owner() public view virtual returns (address) {... */\n      swap1\n      jump\t// out\n        /* \"ptrn_eco_system_dev_contracts/fakePtrnEcosystemParticipationSmartContract.sol\":6642:6797  function balanceOfToken(address tokenAddress) public onlyOwner view returns (uint256) {... */\n    tag_71:\n        /* \"ptrn_eco_system_dev_contracts/fakePtrnEcosystemParticipationSmartContract.sol\":6719:6726  uint256 */\n      0x00\n        /* \"@openzeppelin/contracts/access/Ownable.sol\":1094:1107  _checkOwner() */\n      tag_170\n        /* \"@openzeppelin/contracts/access/Ownable.sol\":1094:1105  _checkOwner */\n      tag_103\n        /* \"@openzeppelin/contracts/access/Ownable.sol\":1094:1107  _checkOwner() */\n      jump\t// in\n    tag_170:\n        /* \"ptrn_eco_system_dev_contracts/fakePtrnEcosystemParticipationSmartContract.sol\":6752:6764  tokenAddress */\n      dup2\n        /* \"ptrn_eco_system_dev_contracts/fakePtrnEcosystemParticipationSmartContract.sol\":6745:6775  IERC20(tokenAddress).balanceOf */\n      0xffffffffffffffffffffffffffffffffffffffff\n      and\n      0x70a08231\n        /* \"ptrn_eco_system_dev_contracts/fakePtrnEcosystemParticipationSmartContract.sol\":6784:6788  this */\n      address\n        /* \"ptrn_eco_system_dev_contracts/fakePtrnEcosystemParticipationSmartContract.sol\":6745:6790  IERC20(tokenAddress).balanceOf(address(this)) */\n      mload(0x40)\n      dup3\n      0xffffffff\n      and\n      0xe0\n      shl\n      dup2\n      mstore\n      0x04\n      add\n      tag_172\n      swap2\n      swap1\n      tag_68\n      jump\t// in\n    tag_172:\n      0x20\n      mload(0x40)\n      dup1\n      dup4\n      sub\n      dup2\n      dup7\n      gas\n      staticcall\n      iszero\n      dup1\n      iszero\n      tag_174\n      jumpi\n      returndatasize\n      0x00\n      dup1\n      returndatacopy\n      revert(0x00, returndatasize)\n    tag_174:\n      pop\n      pop\n      pop\n      pop\n      mload(0x40)\n      returndatasize\n      not(0x1f)\n      0x1f\n      dup3\n      add\n      and\n      dup3\n      add\n      dup1\n      0x40\n      mstore\n      pop\n      dup2\n      add\n      swap1\n      tag_175\n      swap2\n      swap1\n      tag_151\n      jump\t// in\n    tag_175:\n        /* \"ptrn_eco_system_dev_contracts/fakePtrnEcosystemParticipationSmartContract.sol\":6738:6790  return IERC20(tokenAddress).balanceOf(address(this)) */\n      swap1\n      pop\n        /* \"ptrn_eco_system_dev_contracts/fakePtrnEcosystemParticipationSmartContract.sol\":6642:6797  function balanceOfToken(address tokenAddress) public onlyOwner view returns (uint256) {... */\n      swap2\n      swap1\n      pop\n      jump\t// out\n        /* \"ptrn_eco_system_dev_contracts/fakePtrnEcosystemParticipationSmartContract.sol\":1379:1412  uint256 public daily_withdraw = 0 */\n    tag_74:\n      sload(0x0a)\n      dup2\n      jump\t// out\n        /* \"ptrn_eco_system_dev_contracts/fakePtrnEcosystemParticipationSmartContract.sol\":2471:2627  function addPoolRateFeed(address _ConsumerInterfaceAddress) public onlyOwner{... */\n    tag_78:\n        /* \"@openzeppelin/contracts/access/Ownable.sol\":1094:1107  _checkOwner() */\n      tag_177\n        /* \"@openzeppelin/contracts/access/Ownable.sol\":1094:1105  _checkOwner */\n      tag_103\n        /* \"@openzeppelin/contracts/access/Ownable.sol\":1094:1107  _checkOwner() */\n      jump\t// in\n    tag_177:\n        /* \"ptrn_eco_system_dev_contracts/fakePtrnEcosystemParticipationSmartContract.sol\":2594:2619  _ConsumerInterfaceAddress */\n      dup1\n        /* \"ptrn_eco_system_dev_contracts/fakePtrnEcosystemParticipationSmartContract.sol\":2557:2569  poolConsumer */\n      0x02\n      0x00\n        /* \"ptrn_eco_system_dev_contracts/fakePtrnEcosystemParticipationSmartContract.sol\":2557:2620  poolConsumer = PoolConsumerInterface(_ConsumerInterfaceAddress) */\n      0x0100\n      exp\n      dup2\n      sload\n      dup2\n      0xffffffffffffffffffffffffffffffffffffffff\n      mul\n      not\n      and\n      swap1\n      dup4\n      0xffffffffffffffffffffffffffffffffffffffff\n      and\n      mul\n      or\n      swap1\n      sstore\n      pop\n        /* \"ptrn_eco_system_dev_contracts/fakePtrnEcosystemParticipationSmartContract.sol\":2471:2627  function addPoolRateFeed(address _ConsumerInterfaceAddress) public onlyOwner{... */\n      pop\n      jump\t// out\n        /* \"ptrn_eco_system_dev_contracts/fakePtrnEcosystemParticipationSmartContract.sol\":6415:6583  function dailyReward() onlyOwner public{... */\n    tag_80:\n        /* \"@openzeppelin/contracts/access/Ownable.sol\":1094:1107  _checkOwner() */\n      tag_180\n        /* \"@openzeppelin/contracts/access/Ownable.sol\":1094:1105  _checkOwner */\n      tag_103\n        /* \"@openzeppelin/contracts/access/Ownable.sol\":1094:1107  _checkOwner() */\n      jump\t// in\n    tag_180:\n        /* \"ptrn_eco_system_dev_contracts/fakePtrnEcosystemParticipationSmartContract.sol\":6536:6550  daily_withdraw */\n      sload(0x0a)\n        /* \"ptrn_eco_system_dev_contracts/fakePtrnEcosystemParticipationSmartContract.sol\":6515:6534  availableToWithdraw */\n      0x09\n      0x00\n        /* \"ptrn_eco_system_dev_contracts/fakePtrnEcosystemParticipationSmartContract.sol\":6515:6550  availableToWithdraw-=daily_withdraw */\n      dup3\n      dup3\n      sload\n      tag_182\n      swap2\n      swap1\n      tag_109\n      jump\t// in\n    tag_182:\n      swap3\n      pop\n      pop\n      dup2\n      swap1\n      sstore\n      pop\n        /* \"ptrn_eco_system_dev_contracts/fakePtrnEcosystemParticipationSmartContract.sol\":6575:6576  0 */\n      0x00\n        /* \"ptrn_eco_system_dev_contracts/fakePtrnEcosystemParticipationSmartContract.sol\":6560:6574  daily_withdraw */\n      0x0a\n        /* \"ptrn_eco_system_dev_contracts/fakePtrnEcosystemParticipationSmartContract.sol\":6560:6576  daily_withdraw=0 */\n      dup2\n      swap1\n      sstore\n      pop\n        /* \"ptrn_eco_system_dev_contracts/fakePtrnEcosystemParticipationSmartContract.sol\":6415:6583  function dailyReward() onlyOwner public{... */\n      jump\t// out\n        /* \"ptrn_eco_system_dev_contracts/fakePtrnEcosystemParticipationSmartContract.sol\":4306:4518  function calculatePoints(uint256 amount, uint256 rate, uint256 decimals) public pure returns (uint256){... */\n    tag_83:\n        /* \"ptrn_eco_system_dev_contracts/fakePtrnEcosystemParticipationSmartContract.sol\":4400:4407  uint256 */\n      0x00\n        /* \"ptrn_eco_system_dev_contracts/fakePtrnEcosystemParticipationSmartContract.sol\":4418:4444  uint256 resultIn26Decimals */\n      dup1\n        /* \"ptrn_eco_system_dev_contracts/fakePtrnEcosystemParticipationSmartContract.sol\":4456:4460  rate */\n      dup4\n        /* \"ptrn_eco_system_dev_contracts/fakePtrnEcosystemParticipationSmartContract.sol\":4447:4453  amount */\n      dup6\n        /* \"ptrn_eco_system_dev_contracts/fakePtrnEcosystemParticipationSmartContract.sol\":4447:4460  amount * rate */\n      tag_184\n      swap2\n      swap1\n      tag_165\n      jump\t// in\n    tag_184:\n        /* \"ptrn_eco_system_dev_contracts/fakePtrnEcosystemParticipationSmartContract.sol\":4418:4460  uint256 resultIn26Decimals = amount * rate */\n      swap1\n      pop\n        /* \"ptrn_eco_system_dev_contracts/fakePtrnEcosystemParticipationSmartContract.sol\":4502:4510  decimals */\n      dup3\n        /* \"ptrn_eco_system_dev_contracts/fakePtrnEcosystemParticipationSmartContract.sol\":4498:4500  10 */\n      0x0a\n        /* \"ptrn_eco_system_dev_contracts/fakePtrnEcosystemParticipationSmartContract.sol\":4498:4510  10**decimals */\n      tag_185\n      swap2\n      swap1\n      tag_163\n      jump\t// in\n    tag_185:\n        /* \"ptrn_eco_system_dev_contracts/fakePtrnEcosystemParticipationSmartContract.sol\":4477:4495  resultIn26Decimals */\n      dup2\n        /* \"ptrn_eco_system_dev_contracts/fakePtrnEcosystemParticipationSmartContract.sol\":4477:4510  resultIn26Decimals / 10**decimals */\n      tag_186\n      swap2\n      swap1\n      tag_167\n      jump\t// in\n    tag_186:\n        /* \"ptrn_eco_system_dev_contracts/fakePtrnEcosystemParticipationSmartContract.sol\":4470:4510  return resultIn26Decimals / 10**decimals */\n      swap2\n      pop\n      pop\n        /* \"ptrn_eco_system_dev_contracts/fakePtrnEcosystemParticipationSmartContract.sol\":4306:4518  function calculatePoints(uint256 amount, uint256 rate, uint256 decimals) public pure returns (uint256){... */\n      swap4\n      swap3\n      pop\n      pop\n      pop\n      jump\t// out\n        /* \"ptrn_eco_system_dev_contracts/fakePtrnEcosystemParticipationSmartContract.sol\":1335:1373  uint256 public availableToWithdraw = 0 */\n    tag_86:\n      sload(0x09)\n      dup2\n      jump\t// out\n        /* \"ptrn_eco_system_dev_contracts/fakePtrnEcosystemParticipationSmartContract.sol\":2094:2281  function currentRateFeed() public view returns (string memory){... */\n    tag_89:\n        /* \"ptrn_eco_system_dev_contracts/fakePtrnEcosystemParticipationSmartContract.sol\":2142:2155  string memory */\n      0x60\n        /* \"ptrn_eco_system_dev_contracts/fakePtrnEcosystemParticipationSmartContract.sol\":2166:2186  string memory result */\n      dup1\n        /* \"ptrn_eco_system_dev_contracts/fakePtrnEcosystemParticipationSmartContract.sol\":2196:2208  poolRateFeed */\n      0x00\n      0x15\n      swap1\n      sload\n      swap1\n      0x0100\n      exp\n      swap1\n      div\n      0xff\n      and\n        /* \"ptrn_eco_system_dev_contracts/fakePtrnEcosystemParticipationSmartContract.sol\":2196:2251  poolRateFeed ? result = \"Pool\": result = \"AggregatorV3\" */\n      tag_188\n      jumpi\n        /* \"ptrn_eco_system_dev_contracts/fakePtrnEcosystemParticipationSmartContract.sol\":2228:2251  result = \"AggregatorV3\" */\n      mload(0x40)\n      dup1\n      0x40\n      add\n      0x40\n      mstore\n      dup1\n      0x0c\n      dup2\n      mstore\n      0x20\n      add\n      0x41676772656761746f7256330000000000000000000000000000000000000000\n      dup2\n      mstore\n      pop\n      swap1\n      pop\n      dup1\n        /* \"ptrn_eco_system_dev_contracts/fakePtrnEcosystemParticipationSmartContract.sol\":2196:2251  poolRateFeed ? result = \"Pool\": result = \"AggregatorV3\" */\n      jump(tag_189)\n    tag_188:\n        /* \"ptrn_eco_system_dev_contracts/fakePtrnEcosystemParticipationSmartContract.sol\":2211:2226  result = \"Pool\" */\n      mload(0x40)\n      dup1\n      0x40\n      add\n      0x40\n      mstore\n      dup1\n      0x04\n      dup2\n      mstore\n      0x20\n      add\n      0x506f6f6c00000000000000000000000000000000000000000000000000000000\n      dup2\n      mstore\n      pop\n      swap1\n      pop\n      dup1\n        /* \"ptrn_eco_system_dev_contracts/fakePtrnEcosystemParticipationSmartContract.sol\":2196:2251  poolRateFeed ? result = \"Pool\": result = \"AggregatorV3\" */\n    tag_189:\n      pop\n        /* \"ptrn_eco_system_dev_contracts/fakePtrnEcosystemParticipationSmartContract.sol\":2268:2274  result */\n      dup1\n        /* \"ptrn_eco_system_dev_contracts/fakePtrnEcosystemParticipationSmartContract.sol\":2261:2274  return result */\n      swap2\n      pop\n      pop\n        /* \"ptrn_eco_system_dev_contracts/fakePtrnEcosystemParticipationSmartContract.sol\":2094:2281  function currentRateFeed() public view returns (string memory){... */\n      swap1\n      jump\t// out\n        /* \"ptrn_eco_system_dev_contracts/fakePtrnEcosystemParticipationSmartContract.sol\":1999:2087  function changeRateFeed() public onlyOwner{... */\n    tag_93:\n        /* \"@openzeppelin/contracts/access/Ownable.sol\":1094:1107  _checkOwner() */\n      tag_191\n        /* \"@openzeppelin/contracts/access/Ownable.sol\":1094:1105  _checkOwner */\n      tag_103\n        /* \"@openzeppelin/contracts/access/Ownable.sol\":1094:1107  _checkOwner() */\n      jump\t// in\n    tag_191:\n        /* \"ptrn_eco_system_dev_contracts/fakePtrnEcosystemParticipationSmartContract.sol\":2068:2080  poolRateFeed */\n      0x00\n      0x15\n      swap1\n      sload\n      swap1\n      0x0100\n      exp\n      swap1\n      div\n      0xff\n      and\n        /* \"ptrn_eco_system_dev_contracts/fakePtrnEcosystemParticipationSmartContract.sol\":2067:2080  !poolRateFeed */\n      iszero\n        /* \"ptrn_eco_system_dev_contracts/fakePtrnEcosystemParticipationSmartContract.sol\":2052:2064  poolRateFeed */\n      0x00\n      0x15\n        /* \"ptrn_eco_system_dev_contracts/fakePtrnEcosystemParticipationSmartContract.sol\":2052:2080  poolRateFeed = !poolRateFeed */\n      0x0100\n      exp\n      dup2\n      sload\n      dup2\n      0xff\n      mul\n      not\n      and\n      swap1\n      dup4\n      iszero\n      iszero\n      mul\n      or\n      swap1\n      sstore\n      pop\n        /* \"ptrn_eco_system_dev_contracts/fakePtrnEcosystemParticipationSmartContract.sol\":1999:2087  function changeRateFeed() public onlyOwner{... */\n      jump\t// out\n        /* \"ptrn_eco_system_dev_contracts/fakePtrnEcosystemParticipationSmartContract.sol\":4981:6053  function chargeContract(uint256 amount) public returns (bool){... */\n    tag_96:\n        /* \"ptrn_eco_system_dev_contracts/fakePtrnEcosystemParticipationSmartContract.sol\":5037:5041  bool */\n      0x00\n        /* \"ptrn_eco_system_dev_contracts/fakePtrnEcosystemParticipationSmartContract.sol\":5074:5097  ACCEPTED_SENDER_ADDRESS */\n      immutable(\"0x6b88fa438cae5c1216aa45b8d58426fb848d0ea4056264a8a6a1dd473ff0fc05\")\n        /* \"ptrn_eco_system_dev_contracts/fakePtrnEcosystemParticipationSmartContract.sol\":5060:5097  msg.sender == ACCEPTED_SENDER_ADDRESS */\n      0xffffffffffffffffffffffffffffffffffffffff\n      and\n        /* \"ptrn_eco_system_dev_contracts/fakePtrnEcosystemParticipationSmartContract.sol\":5060:5070  msg.sender */\n      caller\n        /* \"ptrn_eco_system_dev_contracts/fakePtrnEcosystemParticipationSmartContract.sol\":5060:5097  msg.sender == ACCEPTED_SENDER_ADDRESS */\n      0xffffffffffffffffffffffffffffffffffffffff\n      and\n      eq\n        /* \"ptrn_eco_system_dev_contracts/fakePtrnEcosystemParticipationSmartContract.sol\":5052:5123  require(msg.sender == ACCEPTED_SENDER_ADDRESS, \"Sender not authorized\") */\n      tag_194\n      jumpi\n      mload(0x40)\n      0x08c379a000000000000000000000000000000000000000000000000000000000\n      dup2\n      mstore\n      0x04\n      add\n      tag_195\n      swap1\n      tag_196\n      jump\t// in\n    tag_195:\n      mload(0x40)\n      dup1\n      swap2\n      sub\n      swap1\n      revert\n    tag_194:\n        /* \"ptrn_eco_system_dev_contracts/fakePtrnEcosystemParticipationSmartContract.sol\":5375:5398  ACCEPTED_SENDER_ADDRESS */\n      immutable(\"0x6b88fa438cae5c1216aa45b8d58426fb848d0ea4056264a8a6a1dd473ff0fc05\")\n        /* \"ptrn_eco_system_dev_contracts/fakePtrnEcosystemParticipationSmartContract.sol\":5361:5398  msg.sender == ACCEPTED_SENDER_ADDRESS */\n      0xffffffffffffffffffffffffffffffffffffffff\n      and\n        /* \"ptrn_eco_system_dev_contracts/fakePtrnEcosystemParticipationSmartContract.sol\":5361:5371  msg.sender */\n      caller\n        /* \"ptrn_eco_system_dev_contracts/fakePtrnEcosystemParticipationSmartContract.sol\":5361:5398  msg.sender == ACCEPTED_SENDER_ADDRESS */\n      0xffffffffffffffffffffffffffffffffffffffff\n      and\n      eq\n        /* \"ptrn_eco_system_dev_contracts/fakePtrnEcosystemParticipationSmartContract.sol\":5353:5424  require(msg.sender == ACCEPTED_SENDER_ADDRESS, \"Sender not authorized\") */\n      tag_197\n      jumpi\n      mload(0x40)\n      0x08c379a000000000000000000000000000000000000000000000000000000000\n      dup2\n      mstore\n      0x04\n      add\n      tag_198\n      swap1\n      tag_196\n      jump\t// in\n    tag_198:\n      mload(0x40)\n      dup1\n      swap2\n      sub\n      swap1\n      revert\n    tag_197:\n        /* \"ptrn_eco_system_dev_contracts/fakePtrnEcosystemParticipationSmartContract.sol\":5434:5446  IERC20 token */\n      0x00\n        /* \"ptrn_eco_system_dev_contracts/fakePtrnEcosystemParticipationSmartContract.sol\":5456:5478  ACCEPTED_TOKEN_ADDRESS */\n      immutable(\"0xcb0a4f1f828404731a71b48e4a53cfdf163c30c8a6e88ce60e13ee7555a5c733\")\n        /* \"ptrn_eco_system_dev_contracts/fakePtrnEcosystemParticipationSmartContract.sol\":5434:5479  IERC20 token = IERC20(ACCEPTED_TOKEN_ADDRESS) */\n      swap1\n      pop\n        /* \"ptrn_eco_system_dev_contracts/fakePtrnEcosystemParticipationSmartContract.sol\":5489:5506  uint256 allowance */\n      0x00\n        /* \"ptrn_eco_system_dev_contracts/fakePtrnEcosystemParticipationSmartContract.sol\":5509:5514  token */\n      dup2\n        /* \"ptrn_eco_system_dev_contracts/fakePtrnEcosystemParticipationSmartContract.sol\":5509:5524  token.allowance */\n      0xffffffffffffffffffffffffffffffffffffffff\n      and\n      0xdd62ed3e\n        /* \"ptrn_eco_system_dev_contracts/fakePtrnEcosystemParticipationSmartContract.sol\":5525:5535  msg.sender */\n      caller\n        /* \"ptrn_eco_system_dev_contracts/fakePtrnEcosystemParticipationSmartContract.sol\":5545:5549  this */\n      address\n        /* \"ptrn_eco_system_dev_contracts/fakePtrnEcosystemParticipationSmartContract.sol\":5509:5551  token.allowance(msg.sender, address(this)) */\n      mload(0x40)\n      dup4\n      0xffffffff\n      and\n      0xe0\n      shl\n      dup2\n      mstore\n      0x04\n      add\n      tag_199\n      swap3\n      swap2\n      swap1\n      tag_200\n      jump\t// in\n    tag_199:\n      0x20\n      mload(0x40)\n      dup1\n      dup4\n      sub\n      dup2\n      dup7\n      gas\n      staticcall\n      iszero\n      dup1\n      iszero\n      tag_202\n      jumpi\n      returndatasize\n      0x00\n      dup1\n      returndatacopy\n      revert(0x00, returndatasize)\n    tag_202:\n      pop\n      pop\n      pop\n      pop\n      mload(0x40)\n      returndatasize\n      not(0x1f)\n      0x1f\n      dup3\n      add\n      and\n      dup3\n      add\n      dup1\n      0x40\n      mstore\n      pop\n      dup2\n      add\n      swap1\n      tag_203\n      swap2\n      swap1\n      tag_151\n      jump\t// in\n    tag_203:\n        /* \"ptrn_eco_system_dev_contracts/fakePtrnEcosystemParticipationSmartContract.sol\":5489:5551  uint256 allowance = token.allowance(msg.sender, address(this)) */\n      swap1\n      pop\n        /* \"ptrn_eco_system_dev_contracts/fakePtrnEcosystemParticipationSmartContract.sol\":5582:5588  amount */\n      dup4\n        /* \"ptrn_eco_system_dev_contracts/fakePtrnEcosystemParticipationSmartContract.sol\":5569:5578  allowance */\n      dup2\n        /* \"ptrn_eco_system_dev_contracts/fakePtrnEcosystemParticipationSmartContract.sol\":5569:5588  allowance >= amount */\n      lt\n      iszero\n        /* \"ptrn_eco_system_dev_contracts/fakePtrnEcosystemParticipationSmartContract.sol\":5561:5618  require(allowance >= amount, \"Check the token allowance\") */\n      tag_204\n      jumpi\n      mload(0x40)\n      0x08c379a000000000000000000000000000000000000000000000000000000000\n      dup2\n      mstore\n      0x04\n      add\n      tag_205\n      swap1\n      tag_206\n      jump\t// in\n    tag_205:\n      mload(0x40)\n      dup1\n      swap2\n      sub\n      swap1\n      revert\n    tag_204:\n        /* \"ptrn_eco_system_dev_contracts/fakePtrnEcosystemParticipationSmartContract.sol\":5628:5633  token */\n      dup2\n        /* \"ptrn_eco_system_dev_contracts/fakePtrnEcosystemParticipationSmartContract.sol\":5628:5646  token.transferFrom */\n      0xffffffffffffffffffffffffffffffffffffffff\n      and\n      0x23b872dd\n        /* \"ptrn_eco_system_dev_contracts/fakePtrnEcosystemParticipationSmartContract.sol\":5647:5657  msg.sender */\n      caller\n        /* \"ptrn_eco_system_dev_contracts/fakePtrnEcosystemParticipationSmartContract.sol\":5667:5671  this */\n      address\n        /* \"ptrn_eco_system_dev_contracts/fakePtrnEcosystemParticipationSmartContract.sol\":5674:5680  amount */\n      dup8\n        /* \"ptrn_eco_system_dev_contracts/fakePtrnEcosystemParticipationSmartContract.sol\":5628:5681  token.transferFrom(msg.sender, address(this), amount) */\n      mload(0x40)\n      dup5\n      0xffffffff\n      and\n      0xe0\n      shl\n      dup2\n      mstore\n      0x04\n      add\n      tag_207\n      swap4\n      swap3\n      swap2\n      swap1\n      tag_208\n      jump\t// in\n    tag_207:\n      0x20\n      mload(0x40)\n      dup1\n      dup4\n      sub\n      dup2\n      0x00\n      dup8\n      gas\n      call\n      iszero\n      dup1\n      iszero\n      tag_210\n      jumpi\n      returndatasize\n      0x00\n      dup1\n      returndatacopy\n      revert(0x00, returndatasize)\n    tag_210:\n      pop\n      pop\n      pop\n      pop\n      mload(0x40)\n      returndatasize\n      not(0x1f)\n      0x1f\n      dup3\n      add\n      and\n      dup3\n      add\n      dup1\n      0x40\n      mstore\n      pop\n      dup2\n      add\n      swap1\n      tag_211\n      swap2\n      swap1\n      tag_140\n      jump\t// in\n    tag_211:\n      pop\n        /* \"ptrn_eco_system_dev_contracts/fakePtrnEcosystemParticipationSmartContract.sol\":5719:5728  setRate() */\n      tag_212\n        /* \"ptrn_eco_system_dev_contracts/fakePtrnEcosystemParticipationSmartContract.sol\":5719:5726  setRate */\n      tag_55\n        /* \"ptrn_eco_system_dev_contracts/fakePtrnEcosystemParticipationSmartContract.sol\":5719:5728  setRate() */\n      jump\t// in\n    tag_212:\n      pop\n        /* \"ptrn_eco_system_dev_contracts/fakePtrnEcosystemParticipationSmartContract.sol\":5739:5751  uint256 rate */\n      0x00\n        /* \"ptrn_eco_system_dev_contracts/fakePtrnEcosystemParticipationSmartContract.sol\":5753:5769  uint256 decimals */\n      dup1\n        /* \"ptrn_eco_system_dev_contracts/fakePtrnEcosystemParticipationSmartContract.sol\":5778:5787  getRate() */\n      tag_213\n        /* \"ptrn_eco_system_dev_contracts/fakePtrnEcosystemParticipationSmartContract.sol\":5778:5785  getRate */\n      tag_40\n        /* \"ptrn_eco_system_dev_contracts/fakePtrnEcosystemParticipationSmartContract.sol\":5778:5787  getRate() */\n      jump\t// in\n    tag_213:\n        /* \"ptrn_eco_system_dev_contracts/fakePtrnEcosystemParticipationSmartContract.sol\":5738:5787  (uint256 rate, uint256 decimals, , ,) = getRate() */\n      pop\n      pop\n      pop\n      swap2\n      pop\n      swap2\n      pop\n        /* \"ptrn_eco_system_dev_contracts/fakePtrnEcosystemParticipationSmartContract.sol\":5797:5823  burnIncomingTokens(amount) */\n      tag_214\n        /* \"ptrn_eco_system_dev_contracts/fakePtrnEcosystemParticipationSmartContract.sol\":5816:5822  amount */\n      dup7\n        /* \"ptrn_eco_system_dev_contracts/fakePtrnEcosystemParticipationSmartContract.sol\":5797:5815  burnIncomingTokens */\n      tag_215\n        /* \"ptrn_eco_system_dev_contracts/fakePtrnEcosystemParticipationSmartContract.sol\":5797:5823  burnIncomingTokens(amount) */\n      jump\t// in\n    tag_214:\n      pop\n        /* \"ptrn_eco_system_dev_contracts/fakePtrnEcosystemParticipationSmartContract.sol\":5856:5895  calculatePoints(amount, rate, decimals) */\n      tag_216\n        /* \"ptrn_eco_system_dev_contracts/fakePtrnEcosystemParticipationSmartContract.sol\":5872:5878  amount */\n      dup7\n        /* \"ptrn_eco_system_dev_contracts/fakePtrnEcosystemParticipationSmartContract.sol\":5880:5884  rate */\n      dup4\n        /* \"ptrn_eco_system_dev_contracts/fakePtrnEcosystemParticipationSmartContract.sol\":5886:5894  decimals */\n      dup4\n        /* \"ptrn_eco_system_dev_contracts/fakePtrnEcosystemParticipationSmartContract.sol\":5856:5871  calculatePoints */\n      tag_83\n        /* \"ptrn_eco_system_dev_contracts/fakePtrnEcosystemParticipationSmartContract.sol\":5856:5895  calculatePoints(amount, rate, decimals) */\n      jump\t// in\n    tag_216:\n        /* \"ptrn_eco_system_dev_contracts/fakePtrnEcosystemParticipationSmartContract.sol\":5833:5852  availableToWithdraw */\n      0x09\n      0x00\n        /* \"ptrn_eco_system_dev_contracts/fakePtrnEcosystemParticipationSmartContract.sol\":5833:5895  availableToWithdraw += calculatePoints(amount, rate, decimals) */\n      dup3\n      dup3\n      sload\n      tag_217\n      swap2\n      swap1\n      tag_114\n      jump\t// in\n    tag_217:\n      swap3\n      pop\n      pop\n      dup2\n      swap1\n      sstore\n      pop\n        /* \"ptrn_eco_system_dev_contracts/fakePtrnEcosystemParticipationSmartContract.sol\":6041:6045  true */\n      0x01\n        /* \"ptrn_eco_system_dev_contracts/fakePtrnEcosystemParticipationSmartContract.sol\":6034:6046  return(true) */\n      swap5\n      pop\n      pop\n      pop\n      pop\n      pop\n        /* \"ptrn_eco_system_dev_contracts/fakePtrnEcosystemParticipationSmartContract.sol\":4981:6053  function chargeContract(uint256 amount) public returns (bool){... */\n      swap2\n      swap1\n      pop\n      jump\t// out\n        /* \"@openzeppelin/contracts/access/Ownable.sol\":2081:2279  function transferOwnership(address newOwner) public virtual onlyOwner {... */\n    tag_100:\n        /* \"@openzeppelin/contracts/access/Ownable.sol\":1094:1107  _checkOwner() */\n      tag_219\n        /* \"@openzeppelin/contracts/access/Ownable.sol\":1094:1105  _checkOwner */\n      tag_103\n        /* \"@openzeppelin/contracts/access/Ownable.sol\":1094:1107  _checkOwner() */\n      jump\t// in\n    tag_219:\n        /* \"@openzeppelin/contracts/access/Ownable.sol\":2189:2190  0 */\n      0x00\n        /* \"@openzeppelin/contracts/access/Ownable.sol\":2169:2191  newOwner != address(0) */\n      0xffffffffffffffffffffffffffffffffffffffff\n      and\n        /* \"@openzeppelin/contracts/access/Ownable.sol\":2169:2177  newOwner */\n      dup2\n        /* \"@openzeppelin/contracts/access/Ownable.sol\":2169:2191  newOwner != address(0) */\n      0xffffffffffffffffffffffffffffffffffffffff\n      and\n      sub\n        /* \"@openzeppelin/contracts/access/Ownable.sol\":2161:2234  require(newOwner != address(0), \"Ownable: new owner is the zero address\") */\n      tag_221\n      jumpi\n      mload(0x40)\n      0x08c379a000000000000000000000000000000000000000000000000000000000\n      dup2\n      mstore\n      0x04\n      add\n      tag_222\n      swap1\n      tag_223\n      jump\t// in\n    tag_222:\n      mload(0x40)\n      dup1\n      swap2\n      sub\n      swap1\n      revert\n    tag_221:\n        /* \"@openzeppelin/contracts/access/Ownable.sol\":2244:2272  _transferOwnership(newOwner) */\n      tag_224\n        /* \"@openzeppelin/contracts/access/Ownable.sol\":2263:2271  newOwner */\n      dup2\n        /* \"@openzeppelin/contracts/access/Ownable.sol\":2244:2262  _transferOwnership */\n      tag_145\n        /* \"@openzeppelin/contracts/access/Ownable.sol\":2244:2272  _transferOwnership(newOwner) */\n      jump\t// in\n    tag_224:\n        /* \"@openzeppelin/contracts/access/Ownable.sol\":2081:2279  function transferOwnership(address newOwner) public virtual onlyOwner {... */\n      pop\n      jump\t// out\n        /* \"@openzeppelin/contracts/access/Ownable.sol\":1359:1489  function _checkOwner() internal view virtual {... */\n    tag_103:\n        /* \"@openzeppelin/contracts/access/Ownable.sol\":1433:1445  _msgSender() */\n      tag_226\n        /* \"@openzeppelin/contracts/access/Ownable.sol\":1433:1443  _msgSender */\n      tag_227\n        /* \"@openzeppelin/contracts/access/Ownable.sol\":1433:1445  _msgSender() */\n      jump\t// in\n    tag_226:\n        /* \"@openzeppelin/contracts/access/Ownable.sol\":1422:1445  owner() == _msgSender() */\n      0xffffffffffffffffffffffffffffffffffffffff\n      and\n        /* \"@openzeppelin/contracts/access/Ownable.sol\":1422:1429  owner() */\n      tag_228\n        /* \"@openzeppelin/contracts/access/Ownable.sol\":1422:1427  owner */\n      tag_66\n        /* \"@openzeppelin/contracts/access/Ownable.sol\":1422:1429  owner() */\n      jump\t// in\n    tag_228:\n        /* \"@openzeppelin/contracts/access/Ownable.sol\":1422:1445  owner() == _msgSender() */\n      0xffffffffffffffffffffffffffffffffffffffff\n      and\n      eq\n        /* \"@openzeppelin/contracts/access/Ownable.sol\":1414:1482  require(owner() == _msgSender(), \"Ownable: caller is not the owner\") */\n      tag_229\n      jumpi\n      mload(0x40)\n      0x08c379a000000000000000000000000000000000000000000000000000000000\n      dup2\n      mstore\n      0x04\n      add\n      tag_230\n      swap1\n      tag_231\n      jump\t// in\n    tag_230:\n      mload(0x40)\n      dup1\n      swap2\n      sub\n      swap1\n      revert\n    tag_229:\n        /* \"@openzeppelin/contracts/access/Ownable.sol\":1359:1489  function _checkOwner() internal view virtual {... */\n      jump\t// out\n        /* \"@openzeppelin/contracts/access/Ownable.sol\":2433:2620  function _transferOwnership(address newOwner) internal virtual {... */\n    tag_145:\n        /* \"@openzeppelin/contracts/access/Ownable.sol\":2506:2522  address oldOwner */\n      0x00\n        /* \"@openzeppelin/contracts/access/Ownable.sol\":2525:2531  _owner */\n      dup1\n      0x01\n      swap1\n      sload\n      swap1\n      0x0100\n      exp\n      swap1\n      div\n      0xffffffffffffffffffffffffffffffffffffffff\n      and\n        /* \"@openzeppelin/contracts/access/Ownable.sol\":2506:2531  address oldOwner = _owner */\n      swap1\n      pop\n        /* \"@openzeppelin/contracts/access/Ownable.sol\":2550:2558  newOwner */\n      dup2\n        /* \"@openzeppelin/contracts/access/Ownable.sol\":2541:2547  _owner */\n      0x00\n      0x01\n        /* \"@openzeppelin/contracts/access/Ownable.sol\":2541:2558  _owner = newOwner */\n      0x0100\n      exp\n      dup2\n      sload\n      dup2\n      0xffffffffffffffffffffffffffffffffffffffff\n      mul\n      not\n      and\n      swap1\n      dup4\n      0xffffffffffffffffffffffffffffffffffffffff\n      and\n      mul\n      or\n      swap1\n      sstore\n      pop\n        /* \"@openzeppelin/contracts/access/Ownable.sol\":2604:2612  newOwner */\n      dup2\n        /* \"@openzeppelin/contracts/access/Ownable.sol\":2573:2613  OwnershipTransferred(oldOwner, newOwner) */\n      0xffffffffffffffffffffffffffffffffffffffff\n      and\n        /* \"@openzeppelin/contracts/access/Ownable.sol\":2594:2602  oldOwner */\n      dup2\n        /* \"@openzeppelin/contracts/access/Ownable.sol\":2573:2613  OwnershipTransferred(oldOwner, newOwner) */\n      0xffffffffffffffffffffffffffffffffffffffff\n      and\n      0x8be0079c531659141344cd1fd0a4f28419497f9722a3daafe3b4186f6b6457e0\n      mload(0x40)\n      mload(0x40)\n      dup1\n      swap2\n      sub\n      swap1\n      log3\n        /* \"@openzeppelin/contracts/access/Ownable.sol\":2496:2620  {... */\n      pop\n        /* \"@openzeppelin/contracts/access/Ownable.sol\":2433:2620  function _transferOwnership(address newOwner) internal virtual {... */\n      pop\n      jump\t// out\n        /* \"ptrn_eco_system_dev_contracts/fakePtrnEcosystemParticipationSmartContract.sol\":7116:7393  function burnIncomingTokens(uint256 amount) private returns (bool) {... */\n    tag_215:\n        /* \"ptrn_eco_system_dev_contracts/fakePtrnEcosystemParticipationSmartContract.sol\":7177:7181  bool */\n      0x00\n        /* \"ptrn_eco_system_dev_contracts/fakePtrnEcosystemParticipationSmartContract.sol\":7217:7218  0 */\n      dup1\n        /* \"ptrn_eco_system_dev_contracts/fakePtrnEcosystemParticipationSmartContract.sol\":7210:7216  amount */\n      dup3\n        /* \"ptrn_eco_system_dev_contracts/fakePtrnEcosystemParticipationSmartContract.sol\":7210:7218  amount>0 */\n      gt\n        /* \"ptrn_eco_system_dev_contracts/fakePtrnEcosystemParticipationSmartContract.sol\":7202:7246  require(amount>0, \"No tokens to be burned!\") */\n      tag_234\n      jumpi\n      mload(0x40)\n      0x08c379a000000000000000000000000000000000000000000000000000000000\n      dup2\n      mstore\n      0x04\n      add\n      tag_235\n      swap1\n      tag_236\n      jump\t// in\n    tag_235:\n      mload(0x40)\n      dup1\n      swap2\n      sub\n      swap1\n      revert\n    tag_234:\n        /* \"ptrn_eco_system_dev_contracts/fakePtrnEcosystemParticipationSmartContract.sol\":7256:7276  IERC20Burnable token */\n      0x00\n        /* \"ptrn_eco_system_dev_contracts/fakePtrnEcosystemParticipationSmartContract.sol\":7294:7316  ACCEPTED_TOKEN_ADDRESS */\n      immutable(\"0xcb0a4f1f828404731a71b48e4a53cfdf163c30c8a6e88ce60e13ee7555a5c733\")\n        /* \"ptrn_eco_system_dev_contracts/fakePtrnEcosystemParticipationSmartContract.sol\":7256:7317  IERC20Burnable token = IERC20Burnable(ACCEPTED_TOKEN_ADDRESS) */\n      swap1\n      pop\n        /* \"ptrn_eco_system_dev_contracts/fakePtrnEcosystemParticipationSmartContract.sol\":7327:7332  token */\n      dup1\n        /* \"ptrn_eco_system_dev_contracts/fakePtrnEcosystemParticipationSmartContract.sol\":7327:7337  token.burn */\n      0xffffffffffffffffffffffffffffffffffffffff\n      and\n      0x42966c68\n        /* \"ptrn_eco_system_dev_contracts/fakePtrnEcosystemParticipationSmartContract.sol\":7338:7344  amount */\n      dup5\n        /* \"ptrn_eco_system_dev_contracts/fakePtrnEcosystemParticipationSmartContract.sol\":7327:7345  token.burn(amount) */\n      mload(0x40)\n      dup3\n      0xffffffff\n      and\n      0xe0\n      shl\n      dup2\n      mstore\n      0x04\n      add\n      tag_237\n      swap2\n      swap1\n      tag_53\n      jump\t// in\n    tag_237:\n      0x00\n      mload(0x40)\n      dup1\n      dup4\n      sub\n      dup2\n      0x00\n      dup8\n      dup1\n      extcodesize\n      iszero\n      dup1\n      iszero\n      tag_238\n      jumpi\n      0x00\n      dup1\n      revert\n    tag_238:\n      pop\n      gas\n      call\n      iszero\n      dup1\n      iszero\n      tag_240\n      jumpi\n      returndatasize\n      0x00\n      dup1\n      returndatacopy\n      revert(0x00, returndatasize)\n    tag_240:\n      pop\n      pop\n      pop\n      pop\n        /* \"ptrn_eco_system_dev_contracts/fakePtrnEcosystemParticipationSmartContract.sol\":7363:7369  amount */\n      dup3\n        /* \"ptrn_eco_system_dev_contracts/fakePtrnEcosystemParticipationSmartContract.sol\":7355:7361  burned */\n      0x03\n      0x00\n        /* \"ptrn_eco_system_dev_contracts/fakePtrnEcosystemParticipationSmartContract.sol\":7355:7369  burned+=amount */\n      dup3\n      dup3\n      sload\n      tag_241\n      swap2\n      swap1\n      tag_114\n      jump\t// in\n    tag_241:\n      swap3\n      pop\n      pop\n      dup2\n      swap1\n      sstore\n      pop\n        /* \"ptrn_eco_system_dev_contracts/fakePtrnEcosystemParticipationSmartContract.sol\":7382:7386  true */\n      0x01\n        /* \"ptrn_eco_system_dev_contracts/fakePtrnEcosystemParticipationSmartContract.sol\":7375:7386  return true */\n      swap2\n      pop\n      pop\n        /* \"ptrn_eco_system_dev_contracts/fakePtrnEcosystemParticipationSmartContract.sol\":7116:7393  function burnIncomingTokens(uint256 amount) private returns (bool) {... */\n      swap2\n      swap1\n      pop\n      jump\t// out\n        /* \"@openzeppelin/contracts/utils/Context.sol\":640:736  function _msgSender() internal view virtual returns (address) {... */\n    tag_227:\n        /* \"@openzeppelin/contracts/utils/Context.sol\":693:700  address */\n      0x00\n        /* \"@openzeppelin/contracts/utils/Context.sol\":719:729  msg.sender */\n      caller\n        /* \"@openzeppelin/contracts/utils/Context.sol\":712:729  return msg.sender */\n      swap1\n      pop\n        /* \"@openzeppelin/contracts/utils/Context.sol\":640:736  function _msgSender() internal view virtual returns (address) {... */\n      swap1\n      jump\t// out\n        /* \"#utility.yul\":88:205   */\n    tag_244:\n        /* \"#utility.yul\":197:198   */\n      0x00\n        /* \"#utility.yul\":194:195   */\n      dup1\n        /* \"#utility.yul\":187:199   */\n      revert\n        /* \"#utility.yul\":334:460   */\n    tag_246:\n        /* \"#utility.yul\":371:378   */\n      0x00\n        /* \"#utility.yul\":411:453   */\n      0xffffffffffffffffffffffffffffffffffffffff\n        /* \"#utility.yul\":404:409   */\n      dup3\n        /* \"#utility.yul\":400:454   */\n      and\n        /* \"#utility.yul\":389:454   */\n      swap1\n      pop\n        /* \"#utility.yul\":334:460   */\n      swap2\n      swap1\n      pop\n      jump\t// out\n        /* \"#utility.yul\":466:562   */\n    tag_247:\n        /* \"#utility.yul\":503:510   */\n      0x00\n        /* \"#utility.yul\":532:556   */\n      tag_309\n        /* \"#utility.yul\":550:555   */\n      dup3\n        /* \"#utility.yul\":532:556   */\n      tag_246\n      jump\t// in\n    tag_309:\n        /* \"#utility.yul\":521:556   */\n      swap1\n      pop\n        /* \"#utility.yul\":466:562   */\n      swap2\n      swap1\n      pop\n      jump\t// out\n        /* \"#utility.yul\":568:690   */\n    tag_248:\n        /* \"#utility.yul\":641:665   */\n      tag_311\n        /* \"#utility.yul\":659:664   */\n      dup2\n        /* \"#utility.yul\":641:665   */\n      tag_247\n      jump\t// in\n    tag_311:\n        /* \"#utility.yul\":634:639   */\n      dup2\n        /* \"#utility.yul\":631:666   */\n      eq\n        /* \"#utility.yul\":621:684   */\n      tag_312\n      jumpi\n        /* \"#utility.yul\":680:681   */\n      0x00\n        /* \"#utility.yul\":677:678   */\n      dup1\n        /* \"#utility.yul\":670:682   */\n      revert\n        /* \"#utility.yul\":621:684   */\n    tag_312:\n        /* \"#utility.yul\":568:690   */\n      pop\n      jump\t// out\n        /* \"#utility.yul\":696:835   */\n    tag_249:\n        /* \"#utility.yul\":742:747   */\n      0x00\n        /* \"#utility.yul\":780:786   */\n      dup2\n        /* \"#utility.yul\":767:787   */\n      calldataload\n        /* \"#utility.yul\":758:787   */\n      swap1\n      pop\n        /* \"#utility.yul\":796:829   */\n      tag_314\n        /* \"#utility.yul\":823:828   */\n      dup2\n        /* \"#utility.yul\":796:829   */\n      tag_248\n      jump\t// in\n    tag_314:\n        /* \"#utility.yul\":696:835   */\n      swap3\n      swap2\n      pop\n      pop\n      jump\t// out\n        /* \"#utility.yul\":841:1170   */\n    tag_29:\n        /* \"#utility.yul\":900:906   */\n      0x00\n        /* \"#utility.yul\":949:951   */\n      0x20\n        /* \"#utility.yul\":937:946   */\n      dup3\n        /* \"#utility.yul\":928:935   */\n      dup5\n        /* \"#utility.yul\":924:947   */\n      sub\n        /* \"#utility.yul\":920:952   */\n      slt\n        /* \"#utility.yul\":917:1036   */\n      iszero\n      tag_316\n      jumpi\n        /* \"#utility.yul\":955:1034   */\n      tag_317\n      tag_244\n      jump\t// in\n    tag_317:\n        /* \"#utility.yul\":917:1036   */\n    tag_316:\n        /* \"#utility.yul\":1075:1076   */\n      0x00\n        /* \"#utility.yul\":1100:1153   */\n      tag_318\n        /* \"#utility.yul\":1145:1152   */\n      dup5\n        /* \"#utility.yul\":1136:1142   */\n      dup3\n        /* \"#utility.yul\":1125:1134   */\n      dup6\n        /* \"#utility.yul\":1121:1143   */\n      add\n        /* \"#utility.yul\":1100:1153   */\n      tag_249\n      jump\t// in\n    tag_318:\n        /* \"#utility.yul\":1090:1153   */\n      swap2\n      pop\n        /* \"#utility.yul\":1046:1163   */\n      pop\n        /* \"#utility.yul\":841:1170   */\n      swap3\n      swap2\n      pop\n      pop\n      jump\t// out\n        /* \"#utility.yul\":1176:1253   */\n    tag_250:\n        /* \"#utility.yul\":1213:1220   */\n      0x00\n        /* \"#utility.yul\":1242:1247   */\n      dup2\n        /* \"#utility.yul\":1231:1247   */\n      swap1\n      pop\n        /* \"#utility.yul\":1176:1253   */\n      swap2\n      swap1\n      pop\n      jump\t// out\n        /* \"#utility.yul\":1259:1381   */\n    tag_251:\n        /* \"#utility.yul\":1332:1356   */\n      tag_321\n        /* \"#utility.yul\":1350:1355   */\n      dup2\n        /* \"#utility.yul\":1332:1356   */\n      tag_250\n      jump\t// in\n    tag_321:\n        /* \"#utility.yul\":1325:1330   */\n      dup2\n        /* \"#utility.yul\":1322:1357   */\n      eq\n        /* \"#utility.yul\":1312:1375   */\n      tag_322\n      jumpi\n        /* \"#utility.yul\":1371:1372   */\n      0x00\n        /* \"#utility.yul\":1368:1369   */\n      dup1\n        /* \"#utility.yul\":1361:1373   */\n      revert\n        /* \"#utility.yul\":1312:1375   */\n    tag_322:\n        /* \"#utility.yul\":1259:1381   */\n      pop\n      jump\t// out\n        /* \"#utility.yul\":1387:1526   */\n    tag_252:\n        /* \"#utility.yul\":1433:1438   */\n      0x00\n        /* \"#utility.yul\":1471:1477   */\n      dup2\n        /* \"#utility.yul\":1458:1478   */\n      calldataload\n        /* \"#utility.yul\":1449:1478   */\n      swap1\n      pop\n        /* \"#utility.yul\":1487:1520   */\n      tag_324\n        /* \"#utility.yul\":1514:1519   */\n      dup2\n        /* \"#utility.yul\":1487:1520   */\n      tag_251\n      jump\t// in\n    tag_324:\n        /* \"#utility.yul\":1387:1526   */\n      swap3\n      swap2\n      pop\n      pop\n      jump\t// out\n        /* \"#utility.yul\":1532:1861   */\n    tag_33:\n        /* \"#utility.yul\":1591:1597   */\n      0x00\n        /* \"#utility.yul\":1640:1642   */\n      0x20\n        /* \"#utility.yul\":1628:1637   */\n      dup3\n        /* \"#utility.yul\":1619:1626   */\n      dup5\n        /* \"#utility.yul\":1615:1638   */\n      sub\n        /* \"#utility.yul\":1611:1643   */\n      slt\n        /* \"#utility.yul\":1608:1727   */\n      iszero\n      tag_326\n      jumpi\n        /* \"#utility.yul\":1646:1725   */\n      tag_327\n      tag_244\n      jump\t// in\n    tag_327:\n        /* \"#utility.yul\":1608:1727   */\n    tag_326:\n        /* \"#utility.yul\":1766:1767   */\n      0x00\n        /* \"#utility.yul\":1791:1844   */\n      tag_328\n        /* \"#utility.yul\":1836:1843   */\n      dup5\n        /* \"#utility.yul\":1827:1833   */\n      dup3\n        /* \"#utility.yul\":1816:1825   */\n      dup6\n        /* \"#utility.yul\":1812:1834   */\n      add\n        /* \"#utility.yul\":1791:1844   */\n      tag_252\n      jump\t// in\n    tag_328:\n        /* \"#utility.yul\":1781:1844   */\n      swap2\n      pop\n        /* \"#utility.yul\":1737:1854   */\n      pop\n        /* \"#utility.yul\":1532:1861   */\n      swap3\n      swap2\n      pop\n      pop\n      jump\t// out\n        /* \"#utility.yul\":1867:1957   */\n    tag_253:\n        /* \"#utility.yul\":1901:1908   */\n      0x00\n        /* \"#utility.yul\":1944:1949   */\n      dup2\n        /* \"#utility.yul\":1937:1950   */\n      iszero\n        /* \"#utility.yul\":1930:1951   */\n      iszero\n        /* \"#utility.yul\":1919:1951   */\n      swap1\n      pop\n        /* \"#utility.yul\":1867:1957   */\n      swap2\n      swap1\n      pop\n      jump\t// out\n        /* \"#utility.yul\":1963:2072   */\n    tag_254:\n        /* \"#utility.yul\":2044:2065   */\n      tag_331\n        /* \"#utility.yul\":2059:2064   */\n      dup2\n        /* \"#utility.yul\":2044:2065   */\n      tag_253\n      jump\t// in\n    tag_331:\n        /* \"#utility.yul\":2039:2042   */\n      dup3\n        /* \"#utility.yul\":2032:2066   */\n      mstore\n        /* \"#utility.yul\":1963:2072   */\n      pop\n      pop\n      jump\t// out\n        /* \"#utility.yul\":2078:2288   */\n    tag_38:\n        /* \"#utility.yul\":2165:2169   */\n      0x00\n        /* \"#utility.yul\":2203:2205   */\n      0x20\n        /* \"#utility.yul\":2192:2201   */\n      dup3\n        /* \"#utility.yul\":2188:2206   */\n      add\n        /* \"#utility.yul\":2180:2206   */\n      swap1\n      pop\n        /* \"#utility.yul\":2216:2281   */\n      tag_333\n        /* \"#utility.yul\":2278:2279   */\n      0x00\n        /* \"#utility.yul\":2267:2276   */\n      dup4\n        /* \"#utility.yul\":2263:2280   */\n      add\n        /* \"#utility.yul\":2254:2260   */\n      dup5\n        /* \"#utility.yul\":2216:2281   */\n      tag_254\n      jump\t// in\n    tag_333:\n        /* \"#utility.yul\":2078:2288   */\n      swap3\n      swap2\n      pop\n      pop\n      jump\t// out\n        /* \"#utility.yul\":2294:2412   */\n    tag_255:\n        /* \"#utility.yul\":2381:2405   */\n      tag_335\n        /* \"#utility.yul\":2399:2404   */\n      dup2\n        /* \"#utility.yul\":2381:2405   */\n      tag_250\n      jump\t// in\n    tag_335:\n        /* \"#utility.yul\":2376:2379   */\n      dup3\n        /* \"#utility.yul\":2369:2406   */\n      mstore\n        /* \"#utility.yul\":2294:2412   */\n      pop\n      pop\n      jump\t// out\n        /* \"#utility.yul\":2418:2517   */\n    tag_256:\n        /* \"#utility.yul\":2470:2476   */\n      0x00\n        /* \"#utility.yul\":2504:2509   */\n      dup2\n        /* \"#utility.yul\":2498:2510   */\n      mload\n        /* \"#utility.yul\":2488:2510   */\n      swap1\n      pop\n        /* \"#utility.yul\":2418:2517   */\n      swap2\n      swap1\n      pop\n      jump\t// out\n        /* \"#utility.yul\":2523:2692   */\n    tag_257:\n        /* \"#utility.yul\":2607:2618   */\n      0x00\n        /* \"#utility.yul\":2641:2647   */\n      dup3\n        /* \"#utility.yul\":2636:2639   */\n      dup3\n        /* \"#utility.yul\":2629:2648   */\n      mstore\n        /* \"#utility.yul\":2681:2685   */\n      0x20\n        /* \"#utility.yul\":2676:2679   */\n      dup3\n        /* \"#utility.yul\":2672:2686   */\n      add\n        /* \"#utility.yul\":2657:2686   */\n      swap1\n      pop\n        /* \"#utility.yul\":2523:2692   */\n      swap3\n      swap2\n      pop\n      pop\n      jump\t// out\n        /* \"#utility.yul\":2698:2944   */\n    tag_258:\n        /* \"#utility.yul\":2779:2780   */\n      0x00\n        /* \"#utility.yul\":2789:2902   */\n    tag_339:\n        /* \"#utility.yul\":2803:2809   */\n      dup4\n        /* \"#utility.yul\":2800:2801   */\n      dup2\n        /* \"#utility.yul\":2797:2810   */\n      lt\n        /* \"#utility.yul\":2789:2902   */\n      iszero\n      tag_341\n      jumpi\n        /* \"#utility.yul\":2888:2889   */\n      dup1\n        /* \"#utility.yul\":2883:2886   */\n      dup3\n        /* \"#utility.yul\":2879:2890   */\n      add\n        /* \"#utility.yul\":2873:2891   */\n      mload\n        /* \"#utility.yul\":2869:2870   */\n      dup2\n        /* \"#utility.yul\":2864:2867   */\n      dup5\n        /* \"#utility.yul\":2860:2871   */\n      add\n        /* \"#utility.yul\":2853:2892   */\n      mstore\n        /* \"#utility.yul\":2825:2827   */\n      0x20\n        /* \"#utility.yul\":2822:2823   */\n      dup2\n        /* \"#utility.yul\":2818:2828   */\n      add\n        /* \"#utility.yul\":2813:2828   */\n      swap1\n      pop\n        /* \"#utility.yul\":2789:2902   */\n      jump(tag_339)\n    tag_341:\n        /* \"#utility.yul\":2936:2937   */\n      0x00\n        /* \"#utility.yul\":2927:2933   */\n      dup5\n        /* \"#utility.yul\":2922:2925   */\n      dup5\n        /* \"#utility.yul\":2918:2934   */\n      add\n        /* \"#utility.yul\":2911:2938   */\n      mstore\n        /* \"#utility.yul\":2760:2944   */\n      pop\n        /* \"#utility.yul\":2698:2944   */\n      pop\n      pop\n      pop\n      jump\t// out\n        /* \"#utility.yul\":2950:3052   */\n    tag_259:\n        /* \"#utility.yul\":2991:2997   */\n      0x00\n        /* \"#utility.yul\":3042:3044   */\n      0x1f\n        /* \"#utility.yul\":3038:3045   */\n      not\n        /* \"#utility.yul\":3033:3035   */\n      0x1f\n        /* \"#utility.yul\":3026:3031   */\n      dup4\n        /* \"#utility.yul\":3022:3036   */\n      add\n        /* \"#utility.yul\":3018:3046   */\n      and\n        /* \"#utility.yul\":3008:3046   */\n      swap1\n      pop\n        /* \"#utility.yul\":2950:3052   */\n      swap2\n      swap1\n      pop\n      jump\t// out\n        /* \"#utility.yul\":3058:3435   */\n    tag_260:\n        /* \"#utility.yul\":3146:3149   */\n      0x00\n        /* \"#utility.yul\":3174:3213   */\n      tag_344\n        /* \"#utility.yul\":3207:3212   */\n      dup3\n        /* \"#utility.yul\":3174:3213   */\n      tag_256\n      jump\t// in\n    tag_344:\n        /* \"#utility.yul\":3229:3300   */\n      tag_345\n        /* \"#utility.yul\":3293:3299   */\n      dup2\n        /* \"#utility.yul\":3288:3291   */\n      dup6\n        /* \"#utility.yul\":3229:3300   */\n      tag_257\n      jump\t// in\n    tag_345:\n        /* \"#utility.yul\":3222:3300   */\n      swap4\n      pop\n        /* \"#utility.yul\":3309:3374   */\n      tag_346\n        /* \"#utility.yul\":3367:3373   */\n      dup2\n        /* \"#utility.yul\":3362:3365   */\n      dup6\n        /* \"#utility.yul\":3355:3359   */\n      0x20\n        /* \"#utility.yul\":3348:3353   */\n      dup7\n        /* \"#utility.yul\":3344:3360   */\n      add\n        /* \"#utility.yul\":3309:3374   */\n      tag_258\n      jump\t// in\n    tag_346:\n        /* \"#utility.yul\":3399:3428   */\n      tag_347\n        /* \"#utility.yul\":3421:3427   */\n      dup2\n        /* \"#utility.yul\":3399:3428   */\n      tag_259\n      jump\t// in\n    tag_347:\n        /* \"#utility.yul\":3394:3397   */\n      dup5\n        /* \"#utility.yul\":3390:3429   */\n      add\n        /* \"#utility.yul\":3383:3429   */\n      swap2\n      pop\n        /* \"#utility.yul\":3150:3435   */\n      pop\n        /* \"#utility.yul\":3058:3435   */\n      swap3\n      swap2\n      pop\n      pop\n      jump\t// out\n        /* \"#utility.yul\":3441:4287   */\n    tag_42:\n        /* \"#utility.yul\":3686:3690   */\n      0x00\n        /* \"#utility.yul\":3724:3727   */\n      0xa0\n        /* \"#utility.yul\":3713:3722   */\n      dup3\n        /* \"#utility.yul\":3709:3728   */\n      add\n        /* \"#utility.yul\":3701:3728   */\n      swap1\n      pop\n        /* \"#utility.yul\":3738:3809   */\n      tag_349\n        /* \"#utility.yul\":3806:3807   */\n      0x00\n        /* \"#utility.yul\":3795:3804   */\n      dup4\n        /* \"#utility.yul\":3791:3808   */\n      add\n        /* \"#utility.yul\":3782:3788   */\n      dup9\n        /* \"#utility.yul\":3738:3809   */\n      tag_255\n      jump\t// in\n    tag_349:\n        /* \"#utility.yul\":3819:3891   */\n      tag_350\n        /* \"#utility.yul\":3887:3889   */\n      0x20\n        /* \"#utility.yul\":3876:3885   */\n      dup4\n        /* \"#utility.yul\":3872:3890   */\n      add\n        /* \"#utility.yul\":3863:3869   */\n      dup8\n        /* \"#utility.yul\":3819:3891   */\n      tag_255\n      jump\t// in\n    tag_350:\n        /* \"#utility.yul\":3938:3947   */\n      dup2\n        /* \"#utility.yul\":3932:3936   */\n      dup2\n        /* \"#utility.yul\":3928:3948   */\n      sub\n        /* \"#utility.yul\":3923:3925   */\n      0x40\n        /* \"#utility.yul\":3912:3921   */\n      dup4\n        /* \"#utility.yul\":3908:3926   */\n      add\n        /* \"#utility.yul\":3901:3949   */\n      mstore\n        /* \"#utility.yul\":3966:4044   */\n      tag_351\n        /* \"#utility.yul\":4039:4043   */\n      dup2\n        /* \"#utility.yul\":4030:4036   */\n      dup7\n        /* \"#utility.yul\":3966:4044   */\n      tag_260\n      jump\t// in\n    tag_351:\n        /* \"#utility.yul\":3958:4044   */\n      swap1\n      pop\n        /* \"#utility.yul\":4054:4126   */\n      tag_352\n        /* \"#utility.yul\":4122:4124   */\n      0x60\n        /* \"#utility.yul\":4111:4120   */\n      dup4\n        /* \"#utility.yul\":4107:4125   */\n      add\n        /* \"#utility.yul\":4098:4104   */\n      dup6\n        /* \"#utility.yul\":4054:4126   */\n      tag_255\n      jump\t// in\n    tag_352:\n        /* \"#utility.yul\":4174:4183   */\n      dup2\n        /* \"#utility.yul\":4168:4172   */\n      dup2\n        /* \"#utility.yul\":4164:4184   */\n      sub\n        /* \"#utility.yul\":4158:4161   */\n      0x80\n        /* \"#utility.yul\":4147:4156   */\n      dup4\n        /* \"#utility.yul\":4143:4162   */\n      add\n        /* \"#utility.yul\":4136:4185   */\n      mstore\n        /* \"#utility.yul\":4202:4280   */\n      tag_353\n        /* \"#utility.yul\":4275:4279   */\n      dup2\n        /* \"#utility.yul\":4266:4272   */\n      dup5\n        /* \"#utility.yul\":4202:4280   */\n      tag_260\n      jump\t// in\n    tag_353:\n        /* \"#utility.yul\":4194:4280   */\n      swap1\n      pop\n        /* \"#utility.yul\":3441:4287   */\n      swap7\n      swap6\n      pop\n      pop\n      pop\n      pop\n      pop\n      pop\n      jump\t// out\n        /* \"#utility.yul\":4293:4912   */\n    tag_45:\n        /* \"#utility.yul\":4370:4376   */\n      0x00\n        /* \"#utility.yul\":4378:4384   */\n      dup1\n        /* \"#utility.yul\":4386:4392   */\n      0x00\n        /* \"#utility.yul\":4435:4437   */\n      0x60\n        /* \"#utility.yul\":4423:4432   */\n      dup5\n        /* \"#utility.yul\":4414:4421   */\n      dup7\n        /* \"#utility.yul\":4410:4433   */\n      sub\n        /* \"#utility.yul\":4406:4438   */\n      slt\n        /* \"#utility.yul\":4403:4522   */\n      iszero\n      tag_355\n      jumpi\n        /* \"#utility.yul\":4441:4520   */\n      tag_356\n      tag_244\n      jump\t// in\n    tag_356:\n        /* \"#utility.yul\":4403:4522   */\n    tag_355:\n        /* \"#utility.yul\":4561:4562   */\n      0x00\n        /* \"#utility.yul\":4586:4639   */\n      tag_357\n        /* \"#utility.yul\":4631:4638   */\n      dup7\n        /* \"#utility.yul\":4622:4628   */\n      dup3\n        /* \"#utility.yul\":4611:4620   */\n      dup8\n        /* \"#utility.yul\":4607:4629   */\n      add\n        /* \"#utility.yul\":4586:4639   */\n      tag_249\n      jump\t// in\n    tag_357:\n        /* \"#utility.yul\":4576:4639   */\n      swap4\n      pop\n        /* \"#utility.yul\":4532:4649   */\n      pop\n        /* \"#utility.yul\":4688:4690   */\n      0x20\n        /* \"#utility.yul\":4714:4767   */\n      tag_358\n        /* \"#utility.yul\":4759:4766   */\n      dup7\n        /* \"#utility.yul\":4750:4756   */\n      dup3\n        /* \"#utility.yul\":4739:4748   */\n      dup8\n        /* \"#utility.yul\":4735:4757   */\n      add\n        /* \"#utility.yul\":4714:4767   */\n      tag_249\n      jump\t// in\n    tag_358:\n        /* \"#utility.yul\":4704:4767   */\n      swap3\n      pop\n        /* \"#utility.yul\":4659:4777   */\n      pop\n        /* \"#utility.yul\":4816:4818   */\n      0x40\n        /* \"#utility.yul\":4842:4895   */\n      tag_359\n        /* \"#utility.yul\":4887:4894   */\n      dup7\n        /* \"#utility.yul\":4878:4884   */\n      dup3\n        /* \"#utility.yul\":4867:4876   */\n      dup8\n        /* \"#utility.yul\":4863:4885   */\n      add\n        /* \"#utility.yul\":4842:4895   */\n      tag_252\n      jump\t// in\n    tag_359:\n        /* \"#utility.yul\":4832:4895   */\n      swap2\n      pop\n        /* \"#utility.yul\":4787:4905   */\n      pop\n        /* \"#utility.yul\":4293:4912   */\n      swap3\n      pop\n      swap3\n      pop\n      swap3\n      jump\t// out\n        /* \"#utility.yul\":4918:5140   */\n    tag_53:\n        /* \"#utility.yul\":5011:5015   */\n      0x00\n        /* \"#utility.yul\":5049:5051   */\n      0x20\n        /* \"#utility.yul\":5038:5047   */\n      dup3\n        /* \"#utility.yul\":5034:5052   */\n      add\n        /* \"#utility.yul\":5026:5052   */\n      swap1\n      pop\n        /* \"#utility.yul\":5062:5133   */\n      tag_361\n        /* \"#utility.yul\":5130:5131   */\n      0x00\n        /* \"#utility.yul\":5119:5128   */\n      dup4\n        /* \"#utility.yul\":5115:5132   */\n      add\n        /* \"#utility.yul\":5106:5112   */\n      dup5\n        /* \"#utility.yul\":5062:5133   */\n      tag_255\n      jump\t// in\n    tag_361:\n        /* \"#utility.yul\":4918:5140   */\n      swap3\n      swap2\n      pop\n      pop\n      jump\t// out\n        /* \"#utility.yul\":5146:5765   */\n    tag_62:\n        /* \"#utility.yul\":5223:5229   */\n      0x00\n        /* \"#utility.yul\":5231:5237   */\n      dup1\n        /* \"#utility.yul\":5239:5245   */\n      0x00\n        /* \"#utility.yul\":5288:5290   */\n      0x60\n        /* \"#utility.yul\":5276:5285   */\n      dup5\n        /* \"#utility.yul\":5267:5274   */\n      dup7\n        /* \"#utility.yul\":5263:5286   */\n      sub\n        /* \"#utility.yul\":5259:5291   */\n      slt\n        /* \"#utility.yul\":5256:5375   */\n      iszero\n      tag_363\n      jumpi\n        /* \"#utility.yul\":5294:5373   */\n      tag_364\n      tag_244\n      jump\t// in\n    tag_364:\n        /* \"#utility.yul\":5256:5375   */\n    tag_363:\n        /* \"#utility.yul\":5414:5415   */\n      0x00\n        /* \"#utility.yul\":5439:5492   */\n      tag_365\n        /* \"#utility.yul\":5484:5491   */\n      dup7\n        /* \"#utility.yul\":5475:5481   */\n      dup3\n        /* \"#utility.yul\":5464:5473   */\n      dup8\n        /* \"#utility.yul\":5460:5482   */\n      add\n        /* \"#utility.yul\":5439:5492   */\n      tag_252\n      jump\t// in\n    tag_365:\n        /* \"#utility.yul\":5429:5492   */\n      swap4\n      pop\n        /* \"#utility.yul\":5385:5502   */\n      pop\n        /* \"#utility.yul\":5541:5543   */\n      0x20\n        /* \"#utility.yul\":5567:5620   */\n      tag_366\n        /* \"#utility.yul\":5612:5619   */\n      dup7\n        /* \"#utility.yul\":5603:5609   */\n      dup3\n        /* \"#utility.yul\":5592:5601   */\n      dup8\n        /* \"#utility.yul\":5588:5610   */\n      add\n        /* \"#utility.yul\":5567:5620   */\n      tag_252\n      jump\t// in\n    tag_366:\n        /* \"#utility.yul\":5557:5620   */\n      swap3\n      pop\n        /* \"#utility.yul\":5512:5630   */\n      pop\n        /* \"#utility.yul\":5669:5671   */\n      0x40\n        /* \"#utility.yul\":5695:5748   */\n      tag_367\n        /* \"#utility.yul\":5740:5747   */\n      dup7\n        /* \"#utility.yul\":5731:5737   */\n      dup3\n        /* \"#utility.yul\":5720:5729   */\n      dup8\n        /* \"#utility.yul\":5716:5738   */\n      add\n        /* \"#utility.yul\":5695:5748   */\n      tag_252\n      jump\t// in\n    tag_367:\n        /* \"#utility.yul\":5685:5748   */\n      swap2\n      pop\n        /* \"#utility.yul\":5640:5758   */\n      pop\n        /* \"#utility.yul\":5146:5765   */\n      swap3\n      pop\n      swap3\n      pop\n      swap3\n      jump\t// out\n        /* \"#utility.yul\":5771:5889   */\n    tag_261:\n        /* \"#utility.yul\":5858:5882   */\n      tag_369\n        /* \"#utility.yul\":5876:5881   */\n      dup2\n        /* \"#utility.yul\":5858:5882   */\n      tag_247\n      jump\t// in\n    tag_369:\n        /* \"#utility.yul\":5853:5856   */\n      dup3\n        /* \"#utility.yul\":5846:5883   */\n      mstore\n        /* \"#utility.yul\":5771:5889   */\n      pop\n      pop\n      jump\t// out\n        /* \"#utility.yul\":5895:6117   */\n    tag_68:\n        /* \"#utility.yul\":5988:5992   */\n      0x00\n        /* \"#utility.yul\":6026:6028   */\n      0x20\n        /* \"#utility.yul\":6015:6024   */\n      dup3\n        /* \"#utility.yul\":6011:6029   */\n      add\n        /* \"#utility.yul\":6003:6029   */\n      swap1\n      pop\n        /* \"#utility.yul\":6039:6110   */\n      tag_371\n        /* \"#utility.yul\":6107:6108   */\n      0x00\n        /* \"#utility.yul\":6096:6105   */\n      dup4\n        /* \"#utility.yul\":6092:6109   */\n      add\n        /* \"#utility.yul\":6083:6089   */\n      dup5\n        /* \"#utility.yul\":6039:6110   */\n      tag_261\n      jump\t// in\n    tag_371:\n        /* \"#utility.yul\":5895:6117   */\n      swap3\n      swap2\n      pop\n      pop\n      jump\t// out\n        /* \"#utility.yul\":6123:6436   */\n    tag_91:\n        /* \"#utility.yul\":6236:6240   */\n      0x00\n        /* \"#utility.yul\":6274:6276   */\n      0x20\n        /* \"#utility.yul\":6263:6272   */\n      dup3\n        /* \"#utility.yul\":6259:6277   */\n      add\n        /* \"#utility.yul\":6251:6277   */\n      swap1\n      pop\n        /* \"#utility.yul\":6323:6332   */\n      dup2\n        /* \"#utility.yul\":6317:6321   */\n      dup2\n        /* \"#utility.yul\":6313:6333   */\n      sub\n        /* \"#utility.yul\":6309:6310   */\n      0x00\n        /* \"#utility.yul\":6298:6307   */\n      dup4\n        /* \"#utility.yul\":6294:6311   */\n      add\n        /* \"#utility.yul\":6287:6334   */\n      mstore\n        /* \"#utility.yul\":6351:6429   */\n      tag_373\n        /* \"#utility.yul\":6424:6428   */\n      dup2\n        /* \"#utility.yul\":6415:6421   */\n      dup5\n        /* \"#utility.yul\":6351:6429   */\n      tag_260\n      jump\t// in\n    tag_373:\n        /* \"#utility.yul\":6343:6429   */\n      swap1\n      pop\n        /* \"#utility.yul\":6123:6436   */\n      swap3\n      swap2\n      pop\n      pop\n      jump\t// out\n        /* \"#utility.yul\":6442:6622   */\n    tag_262:\n        /* \"#utility.yul\":6490:6567   */\n      0x4e487b7100000000000000000000000000000000000000000000000000000000\n        /* \"#utility.yul\":6487:6488   */\n      0x00\n        /* \"#utility.yul\":6480:6568   */\n      mstore\n        /* \"#utility.yul\":6587:6591   */\n      0x11\n        /* \"#utility.yul\":6584:6585   */\n      0x04\n        /* \"#utility.yul\":6577:6592   */\n      mstore\n        /* \"#utility.yul\":6611:6615   */\n      0x24\n        /* \"#utility.yul\":6608:6609   */\n      0x00\n        /* \"#utility.yul\":6601:6616   */\n      revert\n        /* \"#utility.yul\":6628:6822   */\n    tag_109:\n        /* \"#utility.yul\":6668:6672   */\n      0x00\n        /* \"#utility.yul\":6688:6708   */\n      tag_376\n        /* \"#utility.yul\":6706:6707   */\n      dup3\n        /* \"#utility.yul\":6688:6708   */\n      tag_250\n      jump\t// in\n    tag_376:\n        /* \"#utility.yul\":6683:6708   */\n      swap2\n      pop\n        /* \"#utility.yul\":6722:6742   */\n      tag_377\n        /* \"#utility.yul\":6740:6741   */\n      dup4\n        /* \"#utility.yul\":6722:6742   */\n      tag_250\n      jump\t// in\n    tag_377:\n        /* \"#utility.yul\":6717:6742   */\n      swap3\n      pop\n        /* \"#utility.yul\":6766:6767   */\n      dup3\n        /* \"#utility.yul\":6763:6764   */\n      dup3\n        /* \"#utility.yul\":6759:6768   */\n      sub\n        /* \"#utility.yul\":6751:6768   */\n      swap1\n      pop\n        /* \"#utility.yul\":6790:6791   */\n      dup2\n        /* \"#utility.yul\":6784:6788   */\n      dup2\n        /* \"#utility.yul\":6781:6792   */\n      gt\n        /* \"#utility.yul\":6778:6815   */\n      iszero\n      tag_378\n      jumpi\n        /* \"#utility.yul\":6795:6813   */\n      tag_379\n      tag_262\n      jump\t// in\n    tag_379:\n        /* \"#utility.yul\":6778:6815   */\n    tag_378:\n        /* \"#utility.yul\":6628:6822   */\n      swap3\n      swap2\n      pop\n      pop\n      jump\t// out\n        /* \"#utility.yul\":6828:7077   */\n    tag_263:\n        /* \"#utility.yul\":6968:7002   */\n      0x4e6f7420656e6f75676820706f696e74732e2054686520636f6e747261637420\n        /* \"#utility.yul\":6964:6965   */\n      0x00\n        /* \"#utility.yul\":6956:6962   */\n      dup3\n        /* \"#utility.yul\":6952:6966   */\n      add\n        /* \"#utility.yul\":6945:7003   */\n      mstore\n        /* \"#utility.yul\":7037:7069   */\n      0x6d75737420626520636861726765642077697468206d6f7265205054524e0000\n        /* \"#utility.yul\":7032:7034   */\n      0x20\n        /* \"#utility.yul\":7024:7030   */\n      dup3\n        /* \"#utility.yul\":7020:7035   */\n      add\n        /* \"#utility.yul\":7013:7070   */\n      mstore\n        /* \"#utility.yul\":6828:7077   */\n      pop\n      jump\t// out\n        /* \"#utility.yul\":7083:7449   */\n    tag_264:\n        /* \"#utility.yul\":7225:7228   */\n      0x00\n        /* \"#utility.yul\":7246:7313   */\n      tag_382\n        /* \"#utility.yul\":7310:7312   */\n      0x3e\n        /* \"#utility.yul\":7305:7308   */\n      dup4\n        /* \"#utility.yul\":7246:7313   */\n      tag_257\n      jump\t// in\n    tag_382:\n        /* \"#utility.yul\":7239:7313   */\n      swap2\n      pop\n        /* \"#utility.yul\":7322:7415   */\n      tag_383\n        /* \"#utility.yul\":7411:7414   */\n      dup3\n        /* \"#utility.yul\":7322:7415   */\n      tag_263\n      jump\t// in\n    tag_383:\n        /* \"#utility.yul\":7440:7442   */\n      0x40\n        /* \"#utility.yul\":7435:7438   */\n      dup3\n        /* \"#utility.yul\":7431:7443   */\n      add\n        /* \"#utility.yul\":7424:7443   */\n      swap1\n      pop\n        /* \"#utility.yul\":7083:7449   */\n      swap2\n      swap1\n      pop\n      jump\t// out\n        /* \"#utility.yul\":7455:7874   */\n    tag_112:\n        /* \"#utility.yul\":7621:7625   */\n      0x00\n        /* \"#utility.yul\":7659:7661   */\n      0x20\n        /* \"#utility.yul\":7648:7657   */\n      dup3\n        /* \"#utility.yul\":7644:7662   */\n      add\n        /* \"#utility.yul\":7636:7662   */\n      swap1\n      pop\n        /* \"#utility.yul\":7708:7717   */\n      dup2\n        /* \"#utility.yul\":7702:7706   */\n      dup2\n        /* \"#utility.yul\":7698:7718   */\n      sub\n        /* \"#utility.yul\":7694:7695   */\n      0x00\n        /* \"#utility.yul\":7683:7692   */\n      dup4\n        /* \"#utility.yul\":7679:7696   */\n      add\n        /* \"#utility.yul\":7672:7719   */\n      mstore\n        /* \"#utility.yul\":7736:7867   */\n      tag_385\n        /* \"#utility.yul\":7862:7866   */\n      dup2\n        /* \"#utility.yul\":7736:7867   */\n      tag_264\n      jump\t// in\n    tag_385:\n        /* \"#utility.yul\":7728:7867   */\n      swap1\n      pop\n        /* \"#utility.yul\":7455:7874   */\n      swap2\n      swap1\n      pop\n      jump\t// out\n        /* \"#utility.yul\":7880:8071   */\n    tag_114:\n        /* \"#utility.yul\":7920:7923   */\n      0x00\n        /* \"#utility.yul\":7939:7959   */\n      tag_387\n        /* \"#utility.yul\":7957:7958   */\n      dup3\n        /* \"#utility.yul\":7939:7959   */\n      tag_250\n      jump\t// in\n    tag_387:\n        /* \"#utility.yul\":7934:7959   */\n      swap2\n      pop\n        /* \"#utility.yul\":7973:7993   */\n      tag_388\n        /* \"#utility.yul\":7991:7992   */\n      dup4\n        /* \"#utility.yul\":7973:7993   */\n      tag_250\n      jump\t// in\n    tag_388:\n        /* \"#utility.yul\":7968:7993   */\n      swap3\n      pop\n        /* \"#utility.yul\":8016:8017   */\n      dup3\n        /* \"#utility.yul\":8013:8014   */\n      dup3\n        /* \"#utility.yul\":8009:8018   */\n      add\n        /* \"#utility.yul\":8002:8018   */\n      swap1\n      pop\n        /* \"#utility.yul\":8037:8040   */\n      dup1\n        /* \"#utility.yul\":8034:8035   */\n      dup3\n        /* \"#utility.yul\":8031:8041   */\n      gt\n        /* \"#utility.yul\":8028:8064   */\n      iszero\n      tag_389\n      jumpi\n        /* \"#utility.yul\":8044:8062   */\n      tag_390\n      tag_262\n      jump\t// in\n    tag_390:\n        /* \"#utility.yul\":8028:8064   */\n    tag_389:\n        /* \"#utility.yul\":7880:8071   */\n      swap3\n      swap2\n      pop\n      pop\n      jump\t// out\n        /* \"#utility.yul\":8077:8257   */\n    tag_265:\n        /* \"#utility.yul\":8125:8202   */\n      0x4e487b7100000000000000000000000000000000000000000000000000000000\n        /* \"#utility.yul\":8122:8123   */\n      0x00\n        /* \"#utility.yul\":8115:8203   */\n      mstore\n        /* \"#utility.yul\":8222:8226   */\n      0x22\n        /* \"#utility.yul\":8219:8220   */\n      0x04\n        /* \"#utility.yul\":8212:8227   */\n      mstore\n        /* \"#utility.yul\":8246:8250   */\n      0x24\n        /* \"#utility.yul\":8243:8244   */\n      0x00\n        /* \"#utility.yul\":8236:8251   */\n      revert\n        /* \"#utility.yul\":8263:8583   */\n    tag_118:\n        /* \"#utility.yul\":8307:8313   */\n      0x00\n        /* \"#utility.yul\":8344:8345   */\n      0x02\n        /* \"#utility.yul\":8338:8342   */\n      dup3\n        /* \"#utility.yul\":8334:8346   */\n      div\n        /* \"#utility.yul\":8324:8346   */\n      swap1\n      pop\n        /* \"#utility.yul\":8391:8392   */\n      0x01\n        /* \"#utility.yul\":8385:8389   */\n      dup3\n        /* \"#utility.yul\":8381:8393   */\n      and\n        /* \"#utility.yul\":8412:8430   */\n      dup1\n        /* \"#utility.yul\":8402:8483   */\n      tag_393\n      jumpi\n        /* \"#utility.yul\":8468:8472   */\n      0x7f\n        /* \"#utility.yul\":8460:8466   */\n      dup3\n        /* \"#utility.yul\":8456:8473   */\n      and\n        /* \"#utility.yul\":8446:8473   */\n      swap2\n      pop\n        /* \"#utility.yul\":8402:8483   */\n    tag_393:\n        /* \"#utility.yul\":8530:8532   */\n      0x20\n        /* \"#utility.yul\":8522:8528   */\n      dup3\n        /* \"#utility.yul\":8519:8533   */\n      lt\n        /* \"#utility.yul\":8499:8517   */\n      dup2\n        /* \"#utility.yul\":8496:8534   */\n      sub\n        /* \"#utility.yul\":8493:8577   */\n      tag_394\n      jumpi\n        /* \"#utility.yul\":8549:8567   */\n      tag_395\n      tag_265\n      jump\t// in\n    tag_395:\n        /* \"#utility.yul\":8493:8577   */\n    tag_394:\n        /* \"#utility.yul\":8314:8583   */\n      pop\n        /* \"#utility.yul\":8263:8583   */\n      swap2\n      swap1\n      pop\n      jump\t// out\n        /* \"#utility.yul\":8589:8758   */\n    tag_266:\n        /* \"#utility.yul\":8729:8750   */\n      0x4e6f7420656e6f7567682062616c616e63652100000000000000000000000000\n        /* \"#utility.yul\":8725:8726   */\n      0x00\n        /* \"#utility.yul\":8717:8723   */\n      dup3\n        /* \"#utility.yul\":8713:8727   */\n      add\n        /* \"#utility.yul\":8706:8751   */\n      mstore\n        /* \"#utility.yul\":8589:8758   */\n      pop\n      jump\t// out\n        /* \"#utility.yul\":8764:9130   */\n    tag_267:\n        /* \"#utility.yul\":8906:8909   */\n      0x00\n        /* \"#utility.yul\":8927:8994   */\n      tag_398\n        /* \"#utility.yul\":8991:8993   */\n      0x13\n        /* \"#utility.yul\":8986:8989   */\n      dup4\n        /* \"#utility.yul\":8927:8994   */\n      tag_257\n      jump\t// in\n    tag_398:\n        /* \"#utility.yul\":8920:8994   */\n      swap2\n      pop\n        /* \"#utility.yul\":9003:9096   */\n      tag_399\n        /* \"#utility.yul\":9092:9095   */\n      dup3\n        /* \"#utility.yul\":9003:9096   */\n      tag_266\n      jump\t// in\n    tag_399:\n        /* \"#utility.yul\":9121:9123   */\n      0x20\n        /* \"#utility.yul\":9116:9119   */\n      dup3\n        /* \"#utility.yul\":9112:9124   */\n      add\n        /* \"#utility.yul\":9105:9124   */\n      swap1\n      pop\n        /* \"#utility.yul\":8764:9130   */\n      swap2\n      swap1\n      pop\n      jump\t// out\n        /* \"#utility.yul\":9136:9555   */\n    tag_134:\n        /* \"#utility.yul\":9302:9306   */\n      0x00\n        /* \"#utility.yul\":9340:9342   */\n      0x20\n        /* \"#utility.yul\":9329:9338   */\n      dup3\n        /* \"#utility.yul\":9325:9343   */\n      add\n        /* \"#utility.yul\":9317:9343   */\n      swap1\n      pop\n        /* \"#utility.yul\":9389:9398   */\n      dup2\n        /* \"#utility.yul\":9383:9387   */\n      dup2\n        /* \"#utility.yul\":9379:9399   */\n      sub\n        /* \"#utility.yul\":9375:9376   */\n      0x00\n        /* \"#utility.yul\":9364:9373   */\n      dup4\n        /* \"#utility.yul\":9360:9377   */\n      add\n        /* \"#utility.yul\":9353:9400   */\n      mstore\n        /* \"#utility.yul\":9417:9548   */\n      tag_401\n        /* \"#utility.yul\":9543:9547   */\n      dup2\n        /* \"#utility.yul\":9417:9548   */\n      tag_267\n      jump\t// in\n    tag_401:\n        /* \"#utility.yul\":9409:9548   */\n      swap1\n      pop\n        /* \"#utility.yul\":9136:9555   */\n      swap2\n      swap1\n      pop\n      jump\t// out\n        /* \"#utility.yul\":9561:9893   */\n    tag_136:\n        /* \"#utility.yul\":9682:9686   */\n      0x00\n        /* \"#utility.yul\":9720:9722   */\n      0x40\n        /* \"#utility.yul\":9709:9718   */\n      dup3\n        /* \"#utility.yul\":9705:9723   */\n      add\n        /* \"#utility.yul\":9697:9723   */\n      swap1\n      pop\n        /* \"#utility.yul\":9733:9804   */\n      tag_403\n        /* \"#utility.yul\":9801:9802   */\n      0x00\n        /* \"#utility.yul\":9790:9799   */\n      dup4\n        /* \"#utility.yul\":9786:9803   */\n      add\n        /* \"#utility.yul\":9777:9783   */\n      dup6\n        /* \"#utility.yul\":9733:9804   */\n      tag_261\n      jump\t// in\n    tag_403:\n        /* \"#utility.yul\":9814:9886   */\n      tag_404\n        /* \"#utility.yul\":9882:9884   */\n      0x20\n        /* \"#utility.yul\":9871:9880   */\n      dup4\n        /* \"#utility.yul\":9867:9885   */\n      add\n        /* \"#utility.yul\":9858:9864   */\n      dup5\n        /* \"#utility.yul\":9814:9886   */\n      tag_255\n      jump\t// in\n    tag_404:\n        /* \"#utility.yul\":9561:9893   */\n      swap4\n      swap3\n      pop\n      pop\n      pop\n      jump\t// out\n        /* \"#utility.yul\":9899:10015   */\n    tag_268:\n        /* \"#utility.yul\":9969:9990   */\n      tag_406\n        /* \"#utility.yul\":9984:9989   */\n      dup2\n        /* \"#utility.yul\":9969:9990   */\n      tag_253\n      jump\t// in\n    tag_406:\n        /* \"#utility.yul\":9962:9967   */\n      dup2\n        /* \"#utility.yul\":9959:9991   */\n      eq\n        /* \"#utility.yul\":9949:10009   */\n      tag_407\n      jumpi\n        /* \"#utility.yul\":10005:10006   */\n      0x00\n        /* \"#utility.yul\":10002:10003   */\n      dup1\n        /* \"#utility.yul\":9995:10007   */\n      revert\n        /* \"#utility.yul\":9949:10009   */\n    tag_407:\n        /* \"#utility.yul\":9899:10015   */\n      pop\n      jump\t// out\n        /* \"#utility.yul\":10021:10158   */\n    tag_269:\n        /* \"#utility.yul\":10075:10080   */\n      0x00\n        /* \"#utility.yul\":10106:10112   */\n      dup2\n        /* \"#utility.yul\":10100:10113   */\n      mload\n        /* \"#utility.yul\":10091:10113   */\n      swap1\n      pop\n        /* \"#utility.yul\":10122:10152   */\n      tag_409\n        /* \"#utility.yul\":10146:10151   */\n      dup2\n        /* \"#utility.yul\":10122:10152   */\n      tag_268\n      jump\t// in\n    tag_409:\n        /* \"#utility.yul\":10021:10158   */\n      swap3\n      swap2\n      pop\n      pop\n      jump\t// out\n        /* \"#utility.yul\":10164:10509   */\n    tag_140:\n        /* \"#utility.yul\":10231:10237   */\n      0x00\n        /* \"#utility.yul\":10280:10282   */\n      0x20\n        /* \"#utility.yul\":10268:10277   */\n      dup3\n        /* \"#utility.yul\":10259:10266   */\n      dup5\n        /* \"#utility.yul\":10255:10278   */\n      sub\n        /* \"#utility.yul\":10251:10283   */\n      slt\n        /* \"#utility.yul\":10248:10367   */\n      iszero\n      tag_411\n      jumpi\n        /* \"#utility.yul\":10286:10365   */\n      tag_412\n      tag_244\n      jump\t// in\n    tag_412:\n        /* \"#utility.yul\":10248:10367   */\n    tag_411:\n        /* \"#utility.yul\":10406:10407   */\n      0x00\n        /* \"#utility.yul\":10431:10492   */\n      tag_413\n        /* \"#utility.yul\":10484:10491   */\n      dup5\n        /* \"#utility.yul\":10475:10481   */\n      dup3\n        /* \"#utility.yul\":10464:10473   */\n      dup6\n        /* \"#utility.yul\":10460:10482   */\n      add\n        /* \"#utility.yul\":10431:10492   */\n      tag_269\n      jump\t// in\n    tag_413:\n        /* \"#utility.yul\":10421:10492   */\n      swap2\n      pop\n        /* \"#utility.yul\":10377:10502   */\n      pop\n        /* \"#utility.yul\":10164:10509   */\n      swap3\n      swap2\n      pop\n      pop\n      jump\t// out\n        /* \"#utility.yul\":10515:10658   */\n    tag_270:\n        /* \"#utility.yul\":10572:10577   */\n      0x00\n        /* \"#utility.yul\":10603:10609   */\n      dup2\n        /* \"#utility.yul\":10597:10610   */\n      mload\n        /* \"#utility.yul\":10588:10610   */\n      swap1\n      pop\n        /* \"#utility.yul\":10619:10652   */\n      tag_415\n        /* \"#utility.yul\":10646:10651   */\n      dup2\n        /* \"#utility.yul\":10619:10652   */\n      tag_251\n      jump\t// in\n    tag_415:\n        /* \"#utility.yul\":10515:10658   */\n      swap3\n      swap2\n      pop\n      pop\n      jump\t// out\n        /* \"#utility.yul\":10664:11015   */\n    tag_151:\n        /* \"#utility.yul\":10734:10740   */\n      0x00\n        /* \"#utility.yul\":10783:10785   */\n      0x20\n        /* \"#utility.yul\":10771:10780   */\n      dup3\n        /* \"#utility.yul\":10762:10769   */\n      dup5\n        /* \"#utility.yul\":10758:10781   */\n      sub\n        /* \"#utility.yul\":10754:10786   */\n      slt\n        /* \"#utility.yul\":10751:10870   */\n      iszero\n      tag_417\n      jumpi\n        /* \"#utility.yul\":10789:10868   */\n      tag_418\n      tag_244\n      jump\t// in\n    tag_418:\n        /* \"#utility.yul\":10751:10870   */\n    tag_417:\n        /* \"#utility.yul\":10909:10910   */\n      0x00\n        /* \"#utility.yul\":10934:10998   */\n      tag_419\n        /* \"#utility.yul\":10990:10997   */\n      dup5\n        /* \"#utility.yul\":10981:10987   */\n      dup3\n        /* \"#utility.yul\":10970:10979   */\n      dup6\n        /* \"#utility.yul\":10966:10988   */\n      add\n        /* \"#utility.yul\":10934:10998   */\n      tag_270\n      jump\t// in\n    tag_419:\n        /* \"#utility.yul\":10924:10998   */\n      swap2\n      pop\n        /* \"#utility.yul\":10880:11008   */\n      pop\n        /* \"#utility.yul\":10664:11015   */\n      swap3\n      swap2\n      pop\n      pop\n      jump\t// out\n        /* \"#utility.yul\":11021:11201   */\n    tag_271:\n        /* \"#utility.yul\":11069:11146   */\n      0x4e487b7100000000000000000000000000000000000000000000000000000000\n        /* \"#utility.yul\":11066:11067   */\n      0x00\n        /* \"#utility.yul\":11059:11147   */\n      mstore\n        /* \"#utility.yul\":11166:11170   */\n      0x41\n        /* \"#utility.yul\":11163:11164   */\n      0x04\n        /* \"#utility.yul\":11156:11171   */\n      mstore\n        /* \"#utility.yul\":11190:11194   */\n      0x24\n        /* \"#utility.yul\":11187:11188   */\n      0x00\n        /* \"#utility.yul\":11180:11195   */\n      revert\n        /* \"#utility.yul\":11207:11348   */\n    tag_272:\n        /* \"#utility.yul\":11256:11260   */\n      0x00\n        /* \"#utility.yul\":11279:11282   */\n      dup2\n        /* \"#utility.yul\":11271:11282   */\n      swap1\n      pop\n        /* \"#utility.yul\":11302:11305   */\n      dup2\n        /* \"#utility.yul\":11299:11300   */\n      0x00\n        /* \"#utility.yul\":11292:11306   */\n      mstore\n        /* \"#utility.yul\":11336:11340   */\n      0x20\n        /* \"#utility.yul\":11333:11334   */\n      0x00\n        /* \"#utility.yul\":11323:11341   */\n      keccak256\n        /* \"#utility.yul\":11315:11341   */\n      swap1\n      pop\n        /* \"#utility.yul\":11207:11348   */\n      swap2\n      swap1\n      pop\n      jump\t// out\n        /* \"#utility.yul\":11354:11447   */\n    tag_273:\n        /* \"#utility.yul\":11391:11397   */\n      0x00\n        /* \"#utility.yul\":11438:11440   */\n      0x20\n        /* \"#utility.yul\":11433:11435   */\n      0x1f\n        /* \"#utility.yul\":11426:11431   */\n      dup4\n        /* \"#utility.yul\":11422:11436   */\n      add\n        /* \"#utility.yul\":11418:11441   */\n      div\n        /* \"#utility.yul\":11408:11441   */\n      swap1\n      pop\n        /* \"#utility.yul\":11354:11447   */\n      swap2\n      swap1\n      pop\n      jump\t// out\n        /* \"#utility.yul\":11453:11560   */\n    tag_274:\n        /* \"#utility.yul\":11497:11505   */\n      0x00\n        /* \"#utility.yul\":11547:11552   */\n      dup3\n        /* \"#utility.yul\":11541:11545   */\n      dup3\n        /* \"#utility.yul\":11537:11553   */\n      shl\n        /* \"#utility.yul\":11516:11553   */\n      swap1\n      pop\n        /* \"#utility.yul\":11453:11560   */\n      swap3\n      swap2\n      pop\n      pop\n      jump\t// out\n        /* \"#utility.yul\":11566:11959   */\n    tag_275:\n        /* \"#utility.yul\":11635:11641   */\n      0x00\n        /* \"#utility.yul\":11685:11686   */\n      0x08\n        /* \"#utility.yul\":11673:11683   */\n      dup4\n        /* \"#utility.yul\":11669:11687   */\n      mul\n        /* \"#utility.yul\":11708:11805   */\n      tag_425\n        /* \"#utility.yul\":11738:11804   */\n      0xffffffffffffffffffffffffffffffffffffffffffffffffffffffffffffffff\n        /* \"#utility.yul\":11727:11736   */\n      dup3\n        /* \"#utility.yul\":11708:11805   */\n      tag_274\n      jump\t// in\n    tag_425:\n        /* \"#utility.yul\":11826:11865   */\n      tag_426\n        /* \"#utility.yul\":11856:11864   */\n      dup7\n        /* \"#utility.yul\":11845:11854   */\n      dup4\n        /* \"#utility.yul\":11826:11865   */\n      tag_274\n      jump\t// in\n    tag_426:\n        /* \"#utility.yul\":11814:11865   */\n      swap6\n      pop\n        /* \"#utility.yul\":11898:11902   */\n      dup1\n        /* \"#utility.yul\":11894:11903   */\n      not\n        /* \"#utility.yul\":11887:11892   */\n      dup5\n        /* \"#utility.yul\":11883:11904   */\n      and\n        /* \"#utility.yul\":11874:11904   */\n      swap4\n      pop\n        /* \"#utility.yul\":11947:11951   */\n      dup1\n        /* \"#utility.yul\":11937:11945   */\n      dup7\n        /* \"#utility.yul\":11933:11952   */\n      and\n        /* \"#utility.yul\":11926:11931   */\n      dup5\n        /* \"#utility.yul\":11923:11953   */\n      or\n        /* \"#utility.yul\":11913:11953   */\n      swap3\n      pop\n        /* \"#utility.yul\":11642:11959   */\n      pop\n      pop\n        /* \"#utility.yul\":11566:11959   */\n      swap4\n      swap3\n      pop\n      pop\n      pop\n      jump\t// out\n        /* \"#utility.yul\":11965:12025   */\n    tag_276:\n        /* \"#utility.yul\":11993:11996   */\n      0x00\n        /* \"#utility.yul\":12014:12019   */\n      dup2\n        /* \"#utility.yul\":12007:12019   */\n      swap1\n      pop\n        /* \"#utility.yul\":11965:12025   */\n      swap2\n      swap1\n      pop\n      jump\t// out\n        /* \"#utility.yul\":12031:12173   */\n    tag_277:\n        /* \"#utility.yul\":12081:12090   */\n      0x00\n        /* \"#utility.yul\":12114:12167   */\n      tag_429\n        /* \"#utility.yul\":12132:12166   */\n      tag_430\n        /* \"#utility.yul\":12141:12165   */\n      tag_431\n        /* \"#utility.yul\":12159:12164   */\n      dup5\n        /* \"#utility.yul\":12141:12165   */\n      tag_250\n      jump\t// in\n    tag_431:\n        /* \"#utility.yul\":12132:12166   */\n      tag_276\n      jump\t// in\n    tag_430:\n        /* \"#utility.yul\":12114:12167   */\n      tag_250\n      jump\t// in\n    tag_429:\n        /* \"#utility.yul\":12101:12167   */\n      swap1\n      pop\n        /* \"#utility.yul\":12031:12173   */\n      swap2\n      swap1\n      pop\n      jump\t// out\n        /* \"#utility.yul\":12179:12254   */\n    tag_278:\n        /* \"#utility.yul\":12222:12225   */\n      0x00\n        /* \"#utility.yul\":12243:12248   */\n      dup2\n        /* \"#utility.yul\":12236:12248   */\n      swap1\n      pop\n        /* \"#utility.yul\":12179:12254   */\n      swap2\n      swap1\n      pop\n      jump\t// out\n        /* \"#utility.yul\":12260:12529   */\n    tag_279:\n        /* \"#utility.yul\":12370:12409   */\n      tag_434\n        /* \"#utility.yul\":12401:12408   */\n      dup4\n        /* \"#utility.yul\":12370:12409   */\n      tag_277\n      jump\t// in\n    tag_434:\n        /* \"#utility.yul\":12431:12522   */\n      tag_435\n        /* \"#utility.yul\":12480:12521   */\n      tag_436\n        /* \"#utility.yul\":12504:12520   */\n      dup3\n        /* \"#utility.yul\":12480:12521   */\n      tag_278\n      jump\t// in\n    tag_436:\n        /* \"#utility.yul\":12472:12478   */\n      dup5\n        /* \"#utility.yul\":12465:12469   */\n      dup5\n        /* \"#utility.yul\":12459:12470   */\n      sload\n        /* \"#utility.yul\":12431:12522   */\n      tag_275\n      jump\t// in\n    tag_435:\n        /* \"#utility.yul\":12425:12429   */\n      dup3\n        /* \"#utility.yul\":12418:12523   */\n      sstore\n        /* \"#utility.yul\":12336:12529   */\n      pop\n        /* \"#utility.yul\":12260:12529   */\n      pop\n      pop\n      pop\n      jump\t// out\n        /* \"#utility.yul\":12535:12608   */\n    tag_280:\n        /* \"#utility.yul\":12580:12583   */\n      0x00\n        /* \"#utility.yul\":12535:12608   */\n      swap1\n      jump\t// out\n        /* \"#utility.yul\":12614:12803   */\n    tag_281:\n        /* \"#utility.yul\":12691:12723   */\n      tag_439\n      tag_280\n      jump\t// in\n    tag_439:\n        /* \"#utility.yul\":12732:12797   */\n      tag_440\n        /* \"#utility.yul\":12790:12796   */\n      dup2\n        /* \"#utility.yul\":12782:12788   */\n      dup5\n        /* \"#utility.yul\":12776:12780   */\n      dup5\n        /* \"#utility.yul\":12732:12797   */\n      tag_279\n      jump\t// in\n    tag_440:\n        /* \"#utility.yul\":12667:12803   */\n      pop\n        /* \"#utility.yul\":12614:12803   */\n      pop\n      pop\n      jump\t// out\n        /* \"#utility.yul\":12809:12995   */\n    tag_282:\n        /* \"#utility.yul\":12869:12989   */\n    tag_442:\n        /* \"#utility.yul\":12886:12889   */\n      dup2\n        /* \"#utility.yul\":12879:12884   */\n      dup2\n        /* \"#utility.yul\":12876:12890   */\n      lt\n        /* \"#utility.yul\":12869:12989   */\n      iszero\n      tag_444\n      jumpi\n        /* \"#utility.yul\":12940:12979   */\n      tag_445\n        /* \"#utility.yul\":12977:12978   */\n      0x00\n        /* \"#utility.yul\":12970:12975   */\n      dup3\n        /* \"#utility.yul\":12940:12979   */\n      tag_281\n      jump\t// in\n    tag_445:\n        /* \"#utility.yul\":12913:12914   */\n      0x01\n        /* \"#utility.yul\":12906:12911   */\n      dup2\n        /* \"#utility.yul\":12902:12915   */\n      add\n        /* \"#utility.yul\":12893:12915   */\n      swap1\n      pop\n        /* \"#utility.yul\":12869:12989   */\n      jump(tag_442)\n    tag_444:\n        /* \"#utility.yul\":12809:12995   */\n      pop\n      pop\n      jump\t// out\n        /* \"#utility.yul\":13001:13544   */\n    tag_283:\n        /* \"#utility.yul\":13102:13104   */\n      0x1f\n        /* \"#utility.yul\":13097:13100   */\n      dup3\n        /* \"#utility.yul\":13094:13105   */\n      gt\n        /* \"#utility.yul\":13091:13537   */\n      iszero\n      tag_447\n      jumpi\n        /* \"#utility.yul\":13136:13174   */\n      tag_448\n        /* \"#utility.yul\":13168:13173   */\n      dup2\n        /* \"#utility.yul\":13136:13174   */\n      tag_272\n      jump\t// in\n    tag_448:\n        /* \"#utility.yul\":13220:13249   */\n      tag_449\n        /* \"#utility.yul\":13238:13248   */\n      dup5\n        /* \"#utility.yul\":13220:13249   */\n      tag_273\n      jump\t// in\n    tag_449:\n        /* \"#utility.yul\":13210:13218   */\n      dup2\n        /* \"#utility.yul\":13206:13250   */\n      add\n        /* \"#utility.yul\":13403:13405   */\n      0x20\n        /* \"#utility.yul\":13391:13401   */\n      dup6\n        /* \"#utility.yul\":13388:13406   */\n      lt\n        /* \"#utility.yul\":13385:13434   */\n      iszero\n      tag_450\n      jumpi\n        /* \"#utility.yul\":13424:13432   */\n      dup2\n        /* \"#utility.yul\":13409:13432   */\n      swap1\n      pop\n        /* \"#utility.yul\":13385:13434   */\n    tag_450:\n        /* \"#utility.yul\":13447:13527   */\n      tag_451\n        /* \"#utility.yul\":13503:13525   */\n      tag_452\n        /* \"#utility.yul\":13521:13524   */\n      dup6\n        /* \"#utility.yul\":13503:13525   */\n      tag_273\n      jump\t// in\n    tag_452:\n        /* \"#utility.yul\":13493:13501   */\n      dup4\n        /* \"#utility.yul\":13489:13526   */\n      add\n        /* \"#utility.yul\":13476:13487   */\n      dup3\n        /* \"#utility.yul\":13447:13527   */\n      tag_282\n      jump\t// in\n    tag_451:\n        /* \"#utility.yul\":13106:13537   */\n      pop\n      pop\n        /* \"#utility.yul\":13091:13537   */\n    tag_447:\n        /* \"#utility.yul\":13001:13544   */\n      pop\n      pop\n      pop\n      jump\t// out\n        /* \"#utility.yul\":13550:13667   */\n    tag_284:\n        /* \"#utility.yul\":13604:13612   */\n      0x00\n        /* \"#utility.yul\":13654:13659   */\n      dup3\n        /* \"#utility.yul\":13648:13652   */\n      dup3\n        /* \"#utility.yul\":13644:13660   */\n      shr\n        /* \"#utility.yul\":13623:13660   */\n      swap1\n      pop\n        /* \"#utility.yul\":13550:13667   */\n      swap3\n      swap2\n      pop\n      pop\n      jump\t// out\n        /* \"#utility.yul\":13673:13842   */\n    tag_285:\n        /* \"#utility.yul\":13717:13723   */\n      0x00\n        /* \"#utility.yul\":13750:13801   */\n      tag_455\n        /* \"#utility.yul\":13798:13799   */\n      0x00\n        /* \"#utility.yul\":13794:13800   */\n      not\n        /* \"#utility.yul\":13786:13791   */\n      dup5\n        /* \"#utility.yul\":13783:13784   */\n      0x08\n        /* \"#utility.yul\":13779:13792   */\n      mul\n        /* \"#utility.yul\":13750:13801   */\n      tag_284\n      jump\t// in\n    tag_455:\n        /* \"#utility.yul\":13746:13802   */\n      not\n        /* \"#utility.yul\":13831:13835   */\n      dup1\n        /* \"#utility.yul\":13825:13829   */\n      dup4\n        /* \"#utility.yul\":13821:13836   */\n      and\n        /* \"#utility.yul\":13811:13836   */\n      swap2\n      pop\n        /* \"#utility.yul\":13724:13842   */\n      pop\n        /* \"#utility.yul\":13673:13842   */\n      swap3\n      swap2\n      pop\n      pop\n      jump\t// out\n        /* \"#utility.yul\":13847:14142   */\n    tag_286:\n        /* \"#utility.yul\":13923:13927   */\n      0x00\n        /* \"#utility.yul\":14069:14098   */\n      tag_457\n        /* \"#utility.yul\":14094:14097   */\n      dup4\n        /* \"#utility.yul\":14088:14092   */\n      dup4\n        /* \"#utility.yul\":14069:14098   */\n      tag_285\n      jump\t// in\n    tag_457:\n        /* \"#utility.yul\":14061:14098   */\n      swap2\n      pop\n        /* \"#utility.yul\":14131:14134   */\n      dup3\n        /* \"#utility.yul\":14128:14129   */\n      0x02\n        /* \"#utility.yul\":14124:14135   */\n      mul\n        /* \"#utility.yul\":14118:14122   */\n      dup3\n        /* \"#utility.yul\":14115:14136   */\n      or\n        /* \"#utility.yul\":14107:14136   */\n      swap1\n      pop\n        /* \"#utility.yul\":13847:14142   */\n      swap3\n      swap2\n      pop\n      pop\n      jump\t// out\n        /* \"#utility.yul\":14147:15542   */\n    tag_154:\n        /* \"#utility.yul\":14264:14301   */\n      tag_459\n        /* \"#utility.yul\":14297:14300   */\n      dup3\n        /* \"#utility.yul\":14264:14301   */\n      tag_256\n      jump\t// in\n    tag_459:\n        /* \"#utility.yul\":14366:14384   */\n      0xffffffffffffffff\n        /* \"#utility.yul\":14358:14364   */\n      dup2\n        /* \"#utility.yul\":14355:14385   */\n      gt\n        /* \"#utility.yul\":14352:14408   */\n      iszero\n      tag_460\n      jumpi\n        /* \"#utility.yul\":14388:14406   */\n      tag_461\n      tag_271\n      jump\t// in\n    tag_461:\n        /* \"#utility.yul\":14352:14408   */\n    tag_460:\n        /* \"#utility.yul\":14432:14470   */\n      tag_462\n        /* \"#utility.yul\":14464:14468   */\n      dup3\n        /* \"#utility.yul\":14458:14469   */\n      sload\n        /* \"#utility.yul\":14432:14470   */\n      tag_118\n      jump\t// in\n    tag_462:\n        /* \"#utility.yul\":14517:14584   */\n      tag_463\n        /* \"#utility.yul\":14577:14583   */\n      dup3\n        /* \"#utility.yul\":14569:14575   */\n      dup3\n        /* \"#utility.yul\":14563:14567   */\n      dup6\n        /* \"#utility.yul\":14517:14584   */\n      tag_283\n      jump\t// in\n    tag_463:\n        /* \"#utility.yul\":14611:14612   */\n      0x00\n        /* \"#utility.yul\":14635:14639   */\n      0x20\n        /* \"#utility.yul\":14622:14639   */\n      swap1\n      pop\n        /* \"#utility.yul\":14667:14669   */\n      0x1f\n        /* \"#utility.yul\":14659:14665   */\n      dup4\n        /* \"#utility.yul\":14656:14670   */\n      gt\n        /* \"#utility.yul\":14684:14685   */\n      0x01\n        /* \"#utility.yul\":14679:15297   */\n      dup2\n      eq\n      tag_465\n      jumpi\n        /* \"#utility.yul\":15341:15342   */\n      0x00\n        /* \"#utility.yul\":15358:15364   */\n      dup5\n        /* \"#utility.yul\":15355:15432   */\n      iszero\n      tag_466\n      jumpi\n        /* \"#utility.yul\":15407:15416   */\n      dup3\n        /* \"#utility.yul\":15402:15405   */\n      dup8\n        /* \"#utility.yul\":15398:15417   */\n      add\n        /* \"#utility.yul\":15392:15418   */\n      mload\n        /* \"#utility.yul\":15383:15418   */\n      swap1\n      pop\n        /* \"#utility.yul\":15355:15432   */\n    tag_466:\n        /* \"#utility.yul\":15458:15525   */\n      tag_467\n        /* \"#utility.yul\":15518:15524   */\n      dup6\n        /* \"#utility.yul\":15511:15516   */\n      dup3\n        /* \"#utility.yul\":15458:15525   */\n      tag_286\n      jump\t// in\n    tag_467:\n        /* \"#utility.yul\":15452:15456   */\n      dup7\n        /* \"#utility.yul\":15445:15526   */\n      sstore\n        /* \"#utility.yul\":15314:15536   */\n      pop\n        /* \"#utility.yul\":14649:15536   */\n      jump(tag_464)\n        /* \"#utility.yul\":14679:15297   */\n    tag_465:\n        /* \"#utility.yul\":14731:14735   */\n      0x1f\n        /* \"#utility.yul\":14727:14736   */\n      not\n        /* \"#utility.yul\":14719:14725   */\n      dup5\n        /* \"#utility.yul\":14715:14737   */\n      and\n        /* \"#utility.yul\":14765:14802   */\n      tag_468\n        /* \"#utility.yul\":14797:14801   */\n      dup7\n        /* \"#utility.yul\":14765:14802   */\n      tag_272\n      jump\t// in\n    tag_468:\n        /* \"#utility.yul\":14824:14825   */\n      0x00\n        /* \"#utility.yul\":14838:15046   */\n    tag_469:\n        /* \"#utility.yul\":14852:14859   */\n      dup3\n        /* \"#utility.yul\":14849:14850   */\n      dup2\n        /* \"#utility.yul\":14846:14860   */\n      lt\n        /* \"#utility.yul\":14838:15046   */\n      iszero\n      tag_471\n      jumpi\n        /* \"#utility.yul\":14931:14940   */\n      dup5\n        /* \"#utility.yul\":14926:14929   */\n      dup10\n        /* \"#utility.yul\":14922:14941   */\n      add\n        /* \"#utility.yul\":14916:14942   */\n      mload\n        /* \"#utility.yul\":14908:14914   */\n      dup3\n        /* \"#utility.yul\":14901:14943   */\n      sstore\n        /* \"#utility.yul\":14982:14983   */\n      0x01\n        /* \"#utility.yul\":14974:14980   */\n      dup3\n        /* \"#utility.yul\":14970:14984   */\n      add\n        /* \"#utility.yul\":14960:14984   */\n      swap2\n      pop\n        /* \"#utility.yul\":15029:15031   */\n      0x20\n        /* \"#utility.yul\":15018:15027   */\n      dup6\n        /* \"#utility.yul\":15014:15032   */\n      add\n        /* \"#utility.yul\":15001:15032   */\n      swap5\n      pop\n        /* \"#utility.yul\":14875:14879   */\n      0x20\n        /* \"#utility.yul\":14872:14873   */\n      dup2\n        /* \"#utility.yul\":14868:14880   */\n      add\n        /* \"#utility.yul\":14863:14880   */\n      swap1\n      pop\n        /* \"#utility.yul\":14838:15046   */\n      jump(tag_469)\n    tag_471:\n        /* \"#utility.yul\":15074:15080   */\n      dup7\n        /* \"#utility.yul\":15065:15072   */\n      dup4\n        /* \"#utility.yul\":15062:15081   */\n      lt\n        /* \"#utility.yul\":15059:15238   */\n      iszero\n      tag_472\n      jumpi\n        /* \"#utility.yul\":15132:15141   */\n      dup5\n        /* \"#utility.yul\":15127:15130   */\n      dup10\n        /* \"#utility.yul\":15123:15142   */\n      add\n        /* \"#utility.yul\":15117:15143   */\n      mload\n        /* \"#utility.yul\":15175:15223   */\n      tag_473\n        /* \"#utility.yul\":15217:15221   */\n      0x1f\n        /* \"#utility.yul\":15209:15215   */\n      dup10\n        /* \"#utility.yul\":15205:15222   */\n      and\n        /* \"#utility.yul\":15194:15203   */\n      dup3\n        /* \"#utility.yul\":15175:15223   */\n      tag_285\n      jump\t// in\n    tag_473:\n        /* \"#utility.yul\":15167:15173   */\n      dup4\n        /* \"#utility.yul\":15160:15224   */\n      sstore\n        /* \"#utility.yul\":15082:15238   */\n      pop\n        /* \"#utility.yul\":15059:15238   */\n    tag_472:\n        /* \"#utility.yul\":15284:15285   */\n      0x01\n        /* \"#utility.yul\":15280:15281   */\n      0x02\n        /* \"#utility.yul\":15272:15278   */\n      dup9\n        /* \"#utility.yul\":15268:15282   */\n      mul\n        /* \"#utility.yul\":15264:15286   */\n      add\n        /* \"#utility.yul\":15258:15262   */\n      dup9\n        /* \"#utility.yul\":15251:15287   */\n      sstore\n        /* \"#utility.yul\":14686:15297   */\n      pop\n      pop\n      pop\n        /* \"#utility.yul\":14649:15536   */\n    tag_464:\n      pop\n        /* \"#utility.yul\":14239:15542   */\n      pop\n      pop\n      pop\n        /* \"#utility.yul\":14147:15542   */\n      pop\n      pop\n      jump\t// out\n        /* \"#utility.yul\":15548:15728   */\n    tag_287:\n        /* \"#utility.yul\":15688:15720   */\n      0x52617465206d7573742062652067726561746572207468616e207a65726f0000\n        /* \"#utility.yul\":15684:15685   */\n      0x00\n        /* \"#utility.yul\":15676:15682   */\n      dup3\n        /* \"#utility.yul\":15672:15686   */\n      add\n        /* \"#utility.yul\":15665:15721   */\n      mstore\n        /* \"#utility.yul\":15548:15728   */\n      pop\n      jump\t// out\n        /* \"#utility.yul\":15734:16100   */\n    tag_288:\n        /* \"#utility.yul\":15876:15879   */\n      0x00\n        /* \"#utility.yul\":15897:15964   */\n      tag_476\n        /* \"#utility.yul\":15961:15963   */\n      0x1e\n        /* \"#utility.yul\":15956:15959   */\n      dup4\n        /* \"#utility.yul\":15897:15964   */\n      tag_257\n      jump\t// in\n    tag_476:\n        /* \"#utility.yul\":15890:15964   */\n      swap2\n      pop\n        /* \"#utility.yul\":15973:16066   */\n      tag_477\n        /* \"#utility.yul\":16062:16065   */\n      dup3\n        /* \"#utility.yul\":15973:16066   */\n      tag_287\n      jump\t// in\n    tag_477:\n        /* \"#utility.yul\":16091:16093   */\n      0x20\n        /* \"#utility.yul\":16086:16089   */\n      dup3\n        /* \"#utility.yul\":16082:16094   */\n      add\n        /* \"#utility.yul\":16075:16094   */\n      swap1\n      pop\n        /* \"#utility.yul\":15734:16100   */\n      swap2\n      swap1\n      pop\n      jump\t// out\n        /* \"#utility.yul\":16106:16525   */\n    tag_161:\n        /* \"#utility.yul\":16272:16276   */\n      0x00\n        /* \"#utility.yul\":16310:16312   */\n      0x20\n        /* \"#utility.yul\":16299:16308   */\n      dup3\n        /* \"#utility.yul\":16295:16313   */\n      add\n        /* \"#utility.yul\":16287:16313   */\n      swap1\n      pop\n        /* \"#utility.yul\":16359:16368   */\n      dup2\n        /* \"#utility.yul\":16353:16357   */\n      dup2\n        /* \"#utility.yul\":16349:16369   */\n      sub\n        /* \"#utility.yul\":16345:16346   */\n      0x00\n        /* \"#utility.yul\":16334:16343   */\n      dup4\n        /* \"#utility.yul\":16330:16347   */\n      add\n        /* \"#utility.yul\":16323:16370   */\n      mstore\n        /* \"#utility.yul\":16387:16518   */\n      tag_479\n        /* \"#utility.yul\":16513:16517   */\n      dup2\n        /* \"#utility.yul\":16387:16518   */\n      tag_288\n      jump\t// in\n    tag_479:\n        /* \"#utility.yul\":16379:16518   */\n      swap1\n      pop\n        /* \"#utility.yul\":16106:16525   */\n      swap2\n      swap1\n      pop\n      jump\t// out\n        /* \"#utility.yul\":16531:16633   */\n    tag_289:\n        /* \"#utility.yul\":16573:16581   */\n      0x00\n        /* \"#utility.yul\":16620:16625   */\n      dup2\n        /* \"#utility.yul\":16617:16618   */\n      0x01\n        /* \"#utility.yul\":16613:16626   */\n      shr\n        /* \"#utility.yul\":16592:16626   */\n      swap1\n      pop\n        /* \"#utility.yul\":16531:16633   */\n      swap2\n      swap1\n      pop\n      jump\t// out\n        /* \"#utility.yul\":16639:17487   */\n    tag_290:\n        /* \"#utility.yul\":16700:16705   */\n      0x00\n        /* \"#utility.yul\":16707:16711   */\n      dup1\n        /* \"#utility.yul\":16731:16737   */\n      dup3\n        /* \"#utility.yul\":16722:16737   */\n      swap2\n      pop\n        /* \"#utility.yul\":16755:16760   */\n      dup4\n        /* \"#utility.yul\":16746:16760   */\n      swap1\n      pop\n        /* \"#utility.yul\":16769:17481   */\n    tag_482:\n        /* \"#utility.yul\":16790:16791   */\n      0x01\n        /* \"#utility.yul\":16780:16788   */\n      dup6\n        /* \"#utility.yul\":16777:16792   */\n      gt\n        /* \"#utility.yul\":16769:17481   */\n      iszero\n      tag_484\n      jumpi\n        /* \"#utility.yul\":16885:16889   */\n      dup1\n        /* \"#utility.yul\":16880:16883   */\n      dup7\n        /* \"#utility.yul\":16876:16890   */\n      div\n        /* \"#utility.yul\":16870:16874   */\n      dup2\n        /* \"#utility.yul\":16867:16891   */\n      gt\n        /* \"#utility.yul\":16864:16914   */\n      iszero\n      tag_485\n      jumpi\n        /* \"#utility.yul\":16894:16912   */\n      tag_486\n      tag_262\n      jump\t// in\n    tag_486:\n        /* \"#utility.yul\":16864:16914   */\n    tag_485:\n        /* \"#utility.yul\":16944:16945   */\n      0x01\n        /* \"#utility.yul\":16934:16942   */\n      dup6\n        /* \"#utility.yul\":16930:16946   */\n      and\n        /* \"#utility.yul\":16927:17378   */\n      iszero\n      tag_487\n      jumpi\n        /* \"#utility.yul\":17359:17363   */\n      dup1\n        /* \"#utility.yul\":17352:17357   */\n      dup3\n        /* \"#utility.yul\":17348:17364   */\n      mul\n        /* \"#utility.yul\":17339:17364   */\n      swap2\n      pop\n        /* \"#utility.yul\":16927:17378   */\n    tag_487:\n        /* \"#utility.yul\":17409:17413   */\n      dup1\n        /* \"#utility.yul\":17403:17407   */\n      dup2\n        /* \"#utility.yul\":17399:17414   */\n      mul\n        /* \"#utility.yul\":17391:17414   */\n      swap1\n      pop\n        /* \"#utility.yul\":17439:17471   */\n      tag_488\n        /* \"#utility.yul\":17462:17470   */\n      dup6\n        /* \"#utility.yul\":17439:17471   */\n      tag_289\n      jump\t// in\n    tag_488:\n        /* \"#utility.yul\":17427:17471   */\n      swap5\n      pop\n        /* \"#utility.yul\":16769:17481   */\n      jump(tag_482)\n    tag_484:\n        /* \"#utility.yul\":16639:17487   */\n      swap5\n      pop\n      swap5\n      swap3\n      pop\n      pop\n      pop\n      jump\t// out\n        /* \"#utility.yul\":17493:18566   */\n    tag_291:\n        /* \"#utility.yul\":17547:17552   */\n      0x00\n        /* \"#utility.yul\":17738:17746   */\n      dup3\n        /* \"#utility.yul\":17728:17768   */\n      tag_490\n      jumpi\n        /* \"#utility.yul\":17759:17760   */\n      0x01\n        /* \"#utility.yul\":17750:17760   */\n      swap1\n      pop\n        /* \"#utility.yul\":17761:17766   */\n      jump(tag_489)\n        /* \"#utility.yul\":17728:17768   */\n    tag_490:\n        /* \"#utility.yul\":17787:17791   */\n      dup2\n        /* \"#utility.yul\":17777:17813   */\n      tag_491\n      jumpi\n        /* \"#utility.yul\":17804:17805   */\n      0x00\n        /* \"#utility.yul\":17795:17805   */\n      swap1\n      pop\n        /* \"#utility.yul\":17806:17811   */\n      jump(tag_489)\n        /* \"#utility.yul\":17777:17813   */\n    tag_491:\n        /* \"#utility.yul\":17873:17877   */\n      dup2\n        /* \"#utility.yul\":17921:17922   */\n      0x01\n        /* \"#utility.yul\":17916:17943   */\n      dup2\n      eq\n      tag_493\n      jumpi\n        /* \"#utility.yul\":17957:17958   */\n      0x02\n        /* \"#utility.yul\":17952:18143   */\n      dup2\n      eq\n      tag_494\n      jumpi\n        /* \"#utility.yul\":17866:18143   */\n      jump(tag_492)\n        /* \"#utility.yul\":17916:17943   */\n    tag_493:\n        /* \"#utility.yul\":17934:17935   */\n      0x01\n        /* \"#utility.yul\":17925:17935   */\n      swap2\n      pop\n        /* \"#utility.yul\":17936:17941   */\n      pop\n      jump(tag_489)\n        /* \"#utility.yul\":17952:18143   */\n    tag_494:\n        /* \"#utility.yul\":17997:18000   */\n      0xff\n        /* \"#utility.yul\":17987:17995   */\n      dup5\n        /* \"#utility.yul\":17984:18001   */\n      gt\n        /* \"#utility.yul\":17981:18024   */\n      iszero\n      tag_495\n      jumpi\n        /* \"#utility.yul\":18004:18022   */\n      tag_496\n      tag_262\n      jump\t// in\n    tag_496:\n        /* \"#utility.yul\":17981:18024   */\n    tag_495:\n        /* \"#utility.yul\":18053:18061   */\n      dup4\n        /* \"#utility.yul\":18050:18051   */\n      0x02\n        /* \"#utility.yul\":18046:18062   */\n      exp\n        /* \"#utility.yul\":18037:18062   */\n      swap2\n      pop\n        /* \"#utility.yul\":18088:18091   */\n      dup5\n        /* \"#utility.yul\":18081:18086   */\n      dup3\n        /* \"#utility.yul\":18078:18092   */\n      gt\n        /* \"#utility.yul\":18075:18115   */\n      iszero\n      tag_497\n      jumpi\n        /* \"#utility.yul\":18095:18113   */\n      tag_498\n      tag_262\n      jump\t// in\n    tag_498:\n        /* \"#utility.yul\":18075:18115   */\n    tag_497:\n        /* \"#utility.yul\":18128:18133   */\n      pop\n      jump(tag_489)\n        /* \"#utility.yul\":17866:18143   */\n    tag_492:\n      pop\n        /* \"#utility.yul\":18252:18254   */\n      0x20\n        /* \"#utility.yul\":18242:18250   */\n      dup4\n        /* \"#utility.yul\":18239:18255   */\n      lt\n        /* \"#utility.yul\":18233:18236   */\n      0x0133\n        /* \"#utility.yul\":18227:18231   */\n      dup4\n        /* \"#utility.yul\":18224:18237   */\n      lt\n        /* \"#utility.yul\":18220:18256   */\n      and\n        /* \"#utility.yul\":18202:18204   */\n      0x4e\n        /* \"#utility.yul\":18192:18200   */\n      dup5\n        /* \"#utility.yul\":18189:18205   */\n      lt\n        /* \"#utility.yul\":18184:18186   */\n      0x0b\n        /* \"#utility.yul\":18178:18182   */\n      dup5\n        /* \"#utility.yul\":18175:18187   */\n      lt\n        /* \"#utility.yul\":18171:18206   */\n      and\n        /* \"#utility.yul\":18155:18266   */\n      or\n        /* \"#utility.yul\":18152:18398   */\n      iszero\n      tag_499\n      jumpi\n        /* \"#utility.yul\":18308:18316   */\n      dup3\n        /* \"#utility.yul\":18302:18306   */\n      dup3\n        /* \"#utility.yul\":18298:18317   */\n      exp\n        /* \"#utility.yul\":18289:18317   */\n      swap1\n      pop\n        /* \"#utility.yul\":18343:18346   */\n      dup4\n        /* \"#utility.yul\":18336:18341   */\n      dup2\n        /* \"#utility.yul\":18333:18347   */\n      gt\n        /* \"#utility.yul\":18330:18370   */\n      iszero\n      tag_500\n      jumpi\n        /* \"#utility.yul\":18350:18368   */\n      tag_501\n      tag_262\n      jump\t// in\n    tag_501:\n        /* \"#utility.yul\":18330:18370   */\n    tag_500:\n        /* \"#utility.yul\":18383:18388   */\n      jump(tag_489)\n        /* \"#utility.yul\":18152:18398   */\n    tag_499:\n        /* \"#utility.yul\":18423:18465   */\n      tag_502\n        /* \"#utility.yul\":18461:18464   */\n      dup5\n        /* \"#utility.yul\":18451:18459   */\n      dup5\n        /* \"#utility.yul\":18445:18449   */\n      dup5\n        /* \"#utility.yul\":18442:18443   */\n      0x01\n        /* \"#utility.yul\":18423:18465   */\n      tag_290\n      jump\t// in\n    tag_502:\n        /* \"#utility.yul\":18408:18465   */\n      swap3\n      pop\n      swap1\n      pop\n        /* \"#utility.yul\":18497:18501   */\n      dup2\n        /* \"#utility.yul\":18492:18495   */\n      dup5\n        /* \"#utility.yul\":18488:18502   */\n      div\n        /* \"#utility.yul\":18481:18486   */\n      dup2\n        /* \"#utility.yul\":18478:18503   */\n      gt\n        /* \"#utility.yul\":18475:18526   */\n      iszero\n      tag_503\n      jumpi\n        /* \"#utility.yul\":18506:18524   */\n      tag_504\n      tag_262\n      jump\t// in\n    tag_504:\n        /* \"#utility.yul\":18475:18526   */\n    tag_503:\n        /* \"#utility.yul\":18555:18559   */\n      dup2\n        /* \"#utility.yul\":18548:18553   */\n      dup2\n        /* \"#utility.yul\":18544:18560   */\n      mul\n        /* \"#utility.yul\":18535:18560   */\n      swap1\n      pop\n        /* \"#utility.yul\":17493:18566   */\n    tag_489:\n      swap4\n      swap3\n      pop\n      pop\n      pop\n      jump\t// out\n        /* \"#utility.yul\":18572:18857   */\n    tag_163:\n        /* \"#utility.yul\":18632:18637   */\n      0x00\n        /* \"#utility.yul\":18656:18679   */\n      tag_506\n        /* \"#utility.yul\":18674:18678   */\n      dup3\n        /* \"#utility.yul\":18656:18679   */\n      tag_250\n      jump\t// in\n    tag_506:\n        /* \"#utility.yul\":18648:18679   */\n      swap2\n      pop\n        /* \"#utility.yul\":18700:18727   */\n      tag_507\n        /* \"#utility.yul\":18718:18726   */\n      dup4\n        /* \"#utility.yul\":18700:18727   */\n      tag_250\n      jump\t// in\n    tag_507:\n        /* \"#utility.yul\":18688:18727   */\n      swap3\n      pop\n        /* \"#utility.yul\":18746:18850   */\n      tag_508\n        /* \"#utility.yul\":18783:18849   */\n      0xffffffffffffffffffffffffffffffffffffffffffffffffffffffffffffffff\n        /* \"#utility.yul\":18773:18781   */\n      dup5\n        /* \"#utility.yul\":18767:18771   */\n      dup5\n        /* \"#utility.yul\":18746:18850   */\n      tag_291\n      jump\t// in\n    tag_508:\n        /* \"#utility.yul\":18737:18850   */\n      swap1\n      pop\n        /* \"#utility.yul\":18572:18857   */\n      swap3\n      swap2\n      pop\n      pop\n      jump\t// out\n        /* \"#utility.yul\":18863:19273   */\n    tag_165:\n        /* \"#utility.yul\":18903:18910   */\n      0x00\n        /* \"#utility.yul\":18926:18946   */\n      tag_510\n        /* \"#utility.yul\":18944:18945   */\n      dup3\n        /* \"#utility.yul\":18926:18946   */\n      tag_250\n      jump\t// in\n    tag_510:\n        /* \"#utility.yul\":18921:18946   */\n      swap2\n      pop\n        /* \"#utility.yul\":18960:18980   */\n      tag_511\n        /* \"#utility.yul\":18978:18979   */\n      dup4\n        /* \"#utility.yul\":18960:18980   */\n      tag_250\n      jump\t// in\n    tag_511:\n        /* \"#utility.yul\":18955:18980   */\n      swap3\n      pop\n        /* \"#utility.yul\":19015:19016   */\n      dup3\n        /* \"#utility.yul\":19012:19013   */\n      dup3\n        /* \"#utility.yul\":19008:19017   */\n      mul\n        /* \"#utility.yul\":19037:19067   */\n      tag_512\n        /* \"#utility.yul\":19055:19066   */\n      dup2\n        /* \"#utility.yul\":19037:19067   */\n      tag_250\n      jump\t// in\n    tag_512:\n        /* \"#utility.yul\":19026:19067   */\n      swap2\n      pop\n        /* \"#utility.yul\":19216:19217   */\n      dup3\n        /* \"#utility.yul\":19207:19214   */\n      dup3\n        /* \"#utility.yul\":19203:19218   */\n      div\n        /* \"#utility.yul\":19200:19201   */\n      dup5\n        /* \"#utility.yul\":19197:19219   */\n      eq\n        /* \"#utility.yul\":19177:19178   */\n      dup4\n        /* \"#utility.yul\":19170:19179   */\n      iszero\n        /* \"#utility.yul\":19150:19233   */\n      or\n        /* \"#utility.yul\":19127:19266   */\n      tag_513\n      jumpi\n        /* \"#utility.yul\":19246:19264   */\n      tag_514\n      tag_262\n      jump\t// in\n    tag_514:\n        /* \"#utility.yul\":19127:19266   */\n    tag_513:\n        /* \"#utility.yul\":18911:19273   */\n      pop\n        /* \"#utility.yul\":18863:19273   */\n      swap3\n      swap2\n      pop\n      pop\n      jump\t// out\n        /* \"#utility.yul\":19279:19459   */\n    tag_292:\n        /* \"#utility.yul\":19327:19404   */\n      0x4e487b7100000000000000000000000000000000000000000000000000000000\n        /* \"#utility.yul\":19324:19325   */\n      0x00\n        /* \"#utility.yul\":19317:19405   */\n      mstore\n        /* \"#utility.yul\":19424:19428   */\n      0x12\n        /* \"#utility.yul\":19421:19422   */\n      0x04\n        /* \"#utility.yul\":19414:19429   */\n      mstore\n        /* \"#utility.yul\":19448:19452   */\n      0x24\n        /* \"#utility.yul\":19445:19446   */\n      0x00\n        /* \"#utility.yul\":19438:19453   */\n      revert\n        /* \"#utility.yul\":19465:19650   */\n    tag_167:\n        /* \"#utility.yul\":19505:19506   */\n      0x00\n        /* \"#utility.yul\":19522:19542   */\n      tag_517\n        /* \"#utility.yul\":19540:19541   */\n      dup3\n        /* \"#utility.yul\":19522:19542   */\n      tag_250\n      jump\t// in\n    tag_517:\n        /* \"#utility.yul\":19517:19542   */\n      swap2\n      pop\n        /* \"#utility.yul\":19556:19576   */\n      tag_518\n        /* \"#utility.yul\":19574:19575   */\n      dup4\n        /* \"#utility.yul\":19556:19576   */\n      tag_250\n      jump\t// in\n    tag_518:\n        /* \"#utility.yul\":19551:19576   */\n      swap3\n      pop\n        /* \"#utility.yul\":19595:19596   */\n      dup3\n        /* \"#utility.yul\":19585:19620   */\n      tag_519\n      jumpi\n        /* \"#utility.yul\":19600:19618   */\n      tag_520\n      tag_292\n      jump\t// in\n    tag_520:\n        /* \"#utility.yul\":19585:19620   */\n    tag_519:\n        /* \"#utility.yul\":19642:19643   */\n      dup3\n        /* \"#utility.yul\":19639:19640   */\n      dup3\n        /* \"#utility.yul\":19635:19644   */\n      div\n        /* \"#utility.yul\":19630:19644   */\n      swap1\n      pop\n        /* \"#utility.yul\":19465:19650   */\n      swap3\n      swap2\n      pop\n      pop\n      jump\t// out\n        /* \"#utility.yul\":19656:19827   */\n    tag_293:\n        /* \"#utility.yul\":19796:19819   */\n      0x53656e646572206e6f7420617574686f72697a65640000000000000000000000\n        /* \"#utility.yul\":19792:19793   */\n      0x00\n        /* \"#utility.yul\":19784:19790   */\n      dup3\n        /* \"#utility.yul\":19780:19794   */\n      add\n        /* \"#utility.yul\":19773:19820   */\n      mstore\n        /* \"#utility.yul\":19656:19827   */\n      pop\n      jump\t// out\n        /* \"#utility.yul\":19833:20199   */\n    tag_294:\n        /* \"#utility.yul\":19975:19978   */\n      0x00\n        /* \"#utility.yul\":19996:20063   */\n      tag_523\n        /* \"#utility.yul\":20060:20062   */\n      0x15\n        /* \"#utility.yul\":20055:20058   */\n      dup4\n        /* \"#utility.yul\":19996:20063   */\n      tag_257\n      jump\t// in\n    tag_523:\n        /* \"#utility.yul\":19989:20063   */\n      swap2\n      pop\n        /* \"#utility.yul\":20072:20165   */\n      tag_524\n        /* \"#utility.yul\":20161:20164   */\n      dup3\n        /* \"#utility.yul\":20072:20165   */\n      tag_293\n      jump\t// in\n    tag_524:\n        /* \"#utility.yul\":20190:20192   */\n      0x20\n        /* \"#utility.yul\":20185:20188   */\n      dup3\n        /* \"#utility.yul\":20181:20193   */\n      add\n        /* \"#utility.yul\":20174:20193   */\n      swap1\n      pop\n        /* \"#utility.yul\":19833:20199   */\n      swap2\n      swap1\n      pop\n      jump\t// out\n        /* \"#utility.yul\":20205:20624   */\n    tag_196:\n        /* \"#utility.yul\":20371:20375   */\n      0x00\n        /* \"#utility.yul\":20409:20411   */\n      0x20\n        /* \"#utility.yul\":20398:20407   */\n      dup3\n        /* \"#utility.yul\":20394:20412   */\n      add\n        /* \"#utility.yul\":20386:20412   */\n      swap1\n      pop\n        /* \"#utility.yul\":20458:20467   */\n      dup2\n        /* \"#utility.yul\":20452:20456   */\n      dup2\n        /* \"#utility.yul\":20448:20468   */\n      sub\n        /* \"#utility.yul\":20444:20445   */\n      0x00\n        /* \"#utility.yul\":20433:20442   */\n      dup4\n        /* \"#utility.yul\":20429:20446   */\n      add\n        /* \"#utility.yul\":20422:20469   */\n      mstore\n        /* \"#utility.yul\":20486:20617   */\n      tag_526\n        /* \"#utility.yul\":20612:20616   */\n      dup2\n        /* \"#utility.yul\":20486:20617   */\n      tag_294\n      jump\t// in\n    tag_526:\n        /* \"#utility.yul\":20478:20617   */\n      swap1\n      pop\n        /* \"#utility.yul\":20205:20624   */\n      swap2\n      swap1\n      pop\n      jump\t// out\n        /* \"#utility.yul\":20630:20962   */\n    tag_200:\n        /* \"#utility.yul\":20751:20755   */\n      0x00\n        /* \"#utility.yul\":20789:20791   */\n      0x40\n        /* \"#utility.yul\":20778:20787   */\n      dup3\n        /* \"#utility.yul\":20774:20792   */\n      add\n        /* \"#utility.yul\":20766:20792   */\n      swap1\n      pop\n        /* \"#utility.yul\":20802:20873   */\n      tag_528\n        /* \"#utility.yul\":20870:20871   */\n      0x00\n        /* \"#utility.yul\":20859:20868   */\n      dup4\n        /* \"#utility.yul\":20855:20872   */\n      add\n        /* \"#utility.yul\":20846:20852   */\n      dup6\n        /* \"#utility.yul\":20802:20873   */\n      tag_261\n      jump\t// in\n    tag_528:\n        /* \"#utility.yul\":20883:20955   */\n      tag_529\n        /* \"#utility.yul\":20951:20953   */\n      0x20\n        /* \"#utility.yul\":20940:20949   */\n      dup4\n        /* \"#utility.yul\":20936:20954   */\n      add\n        /* \"#utility.yul\":20927:20933   */\n      dup5\n        /* \"#utility.yul\":20883:20955   */\n      tag_261\n      jump\t// in\n    tag_529:\n        /* \"#utility.yul\":20630:20962   */\n      swap4\n      swap3\n      pop\n      pop\n      pop\n      jump\t// out\n        /* \"#utility.yul\":20968:21143   */\n    tag_295:\n        /* \"#utility.yul\":21108:21135   */\n      0x436865636b2074686520746f6b656e20616c6c6f77616e636500000000000000\n        /* \"#utility.yul\":21104:21105   */\n      0x00\n        /* \"#utility.yul\":21096:21102   */\n      dup3\n        /* \"#utility.yul\":21092:21106   */\n      add\n        /* \"#utility.yul\":21085:21136   */\n      mstore\n        /* \"#utility.yul\":20968:21143   */\n      pop\n      jump\t// out\n        /* \"#utility.yul\":21149:21515   */\n    tag_296:\n        /* \"#utility.yul\":21291:21294   */\n      0x00\n        /* \"#utility.yul\":21312:21379   */\n      tag_532\n        /* \"#utility.yul\":21376:21378   */\n      0x19\n        /* \"#utility.yul\":21371:21374   */\n      dup4\n        /* \"#utility.yul\":21312:21379   */\n      tag_257\n      jump\t// in\n    tag_532:\n        /* \"#utility.yul\":21305:21379   */\n      swap2\n      pop\n        /* \"#utility.yul\":21388:21481   */\n      tag_533\n        /* \"#utility.yul\":21477:21480   */\n      dup3\n        /* \"#utility.yul\":21388:21481   */\n      tag_295\n      jump\t// in\n    tag_533:\n        /* \"#utility.yul\":21506:21508   */\n      0x20\n        /* \"#utility.yul\":21501:21504   */\n      dup3\n        /* \"#utility.yul\":21497:21509   */\n      add\n        /* \"#utility.yul\":21490:21509   */\n      swap1\n      pop\n        /* \"#utility.yul\":21149:21515   */\n      swap2\n      swap1\n      pop\n      jump\t// out\n        /* \"#utility.yul\":21521:21940   */\n    tag_206:\n        /* \"#utility.yul\":21687:21691   */\n      0x00\n        /* \"#utility.yul\":21725:21727   */\n      0x20\n        /* \"#utility.yul\":21714:21723   */\n      dup3\n        /* \"#utility.yul\":21710:21728   */\n      add\n        /* \"#utility.yul\":21702:21728   */\n      swap1\n      pop\n        /* \"#utility.yul\":21774:21783   */\n      dup2\n        /* \"#utility.yul\":21768:21772   */\n      dup2\n        /* \"#utility.yul\":21764:21784   */\n      sub\n        /* \"#utility.yul\":21760:21761   */\n      0x00\n        /* \"#utility.yul\":21749:21758   */\n      dup4\n        /* \"#utility.yul\":21745:21762   */\n      add\n        /* \"#utility.yul\":21738:21785   */\n      mstore\n        /* \"#utility.yul\":21802:21933   */\n      tag_535\n        /* \"#utility.yul\":21928:21932   */\n      dup2\n        /* \"#utility.yul\":21802:21933   */\n      tag_296\n      jump\t// in\n    tag_535:\n        /* \"#utility.yul\":21794:21933   */\n      swap1\n      pop\n        /* \"#utility.yul\":21521:21940   */\n      swap2\n      swap1\n      pop\n      jump\t// out\n        /* \"#utility.yul\":21946:22388   */\n    tag_208:\n        /* \"#utility.yul\":22095:22099   */\n      0x00\n        /* \"#utility.yul\":22133:22135   */\n      0x60\n        /* \"#utility.yul\":22122:22131   */\n      dup3\n        /* \"#utility.yul\":22118:22136   */\n      add\n        /* \"#utility.yul\":22110:22136   */\n      swap1\n      pop\n        /* \"#utility.yul\":22146:22217   */\n      tag_537\n        /* \"#utility.yul\":22214:22215   */\n      0x00\n        /* \"#utility.yul\":22203:22212   */\n      dup4\n        /* \"#utility.yul\":22199:22216   */\n      add\n        /* \"#utility.yul\":22190:22196   */\n      dup7\n        /* \"#utility.yul\":22146:22217   */\n      tag_261\n      jump\t// in\n    tag_537:\n        /* \"#utility.yul\":22227:22299   */\n      tag_538\n        /* \"#utility.yul\":22295:22297   */\n      0x20\n        /* \"#utility.yul\":22284:22293   */\n      dup4\n        /* \"#utility.yul\":22280:22298   */\n      add\n        /* \"#utility.yul\":22271:22277   */\n      dup6\n        /* \"#utility.yul\":22227:22299   */\n      tag_261\n      jump\t// in\n    tag_538:\n        /* \"#utility.yul\":22309:22381   */\n      tag_539\n        /* \"#utility.yul\":22377:22379   */\n      0x40\n        /* \"#utility.yul\":22366:22375   */\n      dup4\n        /* \"#utility.yul\":22362:22380   */\n      add\n        /* \"#utility.yul\":22353:22359   */\n      dup5\n        /* \"#utility.yul\":22309:22381   */\n      tag_255\n      jump\t// in\n    tag_539:\n        /* \"#utility.yul\":21946:22388   */\n      swap5\n      swap4\n      pop\n      pop\n      pop\n      pop\n      jump\t// out\n        /* \"#utility.yul\":22394:22619   */\n    tag_297:\n        /* \"#utility.yul\":22534:22568   */\n      0x4f776e61626c653a206e6577206f776e657220697320746865207a65726f2061\n        /* \"#utility.yul\":22530:22531   */\n      0x00\n        /* \"#utility.yul\":22522:22528   */\n      dup3\n        /* \"#utility.yul\":22518:22532   */\n      add\n        /* \"#utility.yul\":22511:22569   */\n      mstore\n        /* \"#utility.yul\":22603:22611   */\n      0x6464726573730000000000000000000000000000000000000000000000000000\n        /* \"#utility.yul\":22598:22600   */\n      0x20\n        /* \"#utility.yul\":22590:22596   */\n      dup3\n        /* \"#utility.yul\":22586:22601   */\n      add\n        /* \"#utility.yul\":22579:22612   */\n      mstore\n        /* \"#utility.yul\":22394:22619   */\n      pop\n      jump\t// out\n        /* \"#utility.yul\":22625:22991   */\n    tag_298:\n        /* \"#utility.yul\":22767:22770   */\n      0x00\n        /* \"#utility.yul\":22788:22855   */\n      tag_542\n        /* \"#utility.yul\":22852:22854   */\n      0x26\n        /* \"#utility.yul\":22847:22850   */\n      dup4\n        /* \"#utility.yul\":22788:22855   */\n      tag_257\n      jump\t// in\n    tag_542:\n        /* \"#utility.yul\":22781:22855   */\n      swap2\n      pop\n        /* \"#utility.yul\":22864:22957   */\n      tag_543\n        /* \"#utility.yul\":22953:22956   */\n      dup3\n        /* \"#utility.yul\":22864:22957   */\n      tag_297\n      jump\t// in\n    tag_543:\n        /* \"#utility.yul\":22982:22984   */\n      0x40\n        /* \"#utility.yul\":22977:22980   */\n      dup3\n        /* \"#utility.yul\":22973:22985   */\n      add\n        /* \"#utility.yul\":22966:22985   */\n      swap1\n      pop\n        /* \"#utility.yul\":22625:22991   */\n      swap2\n      swap1\n      pop\n      jump\t// out\n        /* \"#utility.yul\":22997:23416   */\n    tag_223:\n        /* \"#utility.yul\":23163:23167   */\n      0x00\n        /* \"#utility.yul\":23201:23203   */\n      0x20\n        /* \"#utility.yul\":23190:23199   */\n      dup3\n        /* \"#utility.yul\":23186:23204   */\n      add\n        /* \"#utility.yul\":23178:23204   */\n      swap1\n      pop\n        /* \"#utility.yul\":23250:23259   */\n      dup2\n        /* \"#utility.yul\":23244:23248   */\n      dup2\n        /* \"#utility.yul\":23240:23260   */\n      sub\n        /* \"#utility.yul\":23236:23237   */\n      0x00\n        /* \"#utility.yul\":23225:23234   */\n      dup4\n        /* \"#utility.yul\":23221:23238   */\n      add\n        /* \"#utility.yul\":23214:23261   */\n      mstore\n        /* \"#utility.yul\":23278:23409   */\n      tag_545\n        /* \"#utility.yul\":23404:23408   */\n      dup2\n        /* \"#utility.yul\":23278:23409   */\n      tag_298\n      jump\t// in\n    tag_545:\n        /* \"#utility.yul\":23270:23409   */\n      swap1\n      pop\n        /* \"#utility.yul\":22997:23416   */\n      swap2\n      swap1\n      pop\n      jump\t// out\n        /* \"#utility.yul\":23422:23604   */\n    tag_299:\n        /* \"#utility.yul\":23562:23596   */\n      0x4f776e61626c653a2063616c6c6572206973206e6f7420746865206f776e6572\n        /* \"#utility.yul\":23558:23559   */\n      0x00\n        /* \"#utility.yul\":23550:23556   */\n      dup3\n        /* \"#utility.yul\":23546:23560   */\n      add\n        /* \"#utility.yul\":23539:23597   */\n      mstore\n        /* \"#utility.yul\":23422:23604   */\n      pop\n      jump\t// out\n        /* \"#utility.yul\":23610:23976   */\n    tag_300:\n        /* \"#utility.yul\":23752:23755   */\n      0x00\n        /* \"#utility.yul\":23773:23840   */\n      tag_548\n        /* \"#utility.yul\":23837:23839   */\n      0x20\n        /* \"#utility.yul\":23832:23835   */\n      dup4\n        /* \"#utility.yul\":23773:23840   */\n      tag_257\n      jump\t// in\n    tag_548:\n        /* \"#utility.yul\":23766:23840   */\n      swap2\n      pop\n        /* \"#utility.yul\":23849:23942   */\n      tag_549\n        /* \"#utility.yul\":23938:23941   */\n      dup3\n        /* \"#utility.yul\":23849:23942   */\n      tag_299\n      jump\t// in\n    tag_549:\n        /* \"#utility.yul\":23967:23969   */\n      0x20\n        /* \"#utility.yul\":23962:23965   */\n      dup3\n        /* \"#utility.yul\":23958:23970   */\n      add\n        /* \"#utility.yul\":23951:23970   */\n      swap1\n      pop\n        /* \"#utility.yul\":23610:23976   */\n      swap2\n      swap1\n      pop\n      jump\t// out\n        /* \"#utility.yul\":23982:24401   */\n    tag_231:\n        /* \"#utility.yul\":24148:24152   */\n      0x00\n        /* \"#utility.yul\":24186:24188   */\n      0x20\n        /* \"#utility.yul\":24175:24184   */\n      dup3\n        /* \"#utility.yul\":24171:24189   */\n      add\n        /* \"#utility.yul\":24163:24189   */\n      swap1\n      pop\n        /* \"#utility.yul\":24235:24244   */\n      dup2\n        /* \"#utility.yul\":24229:24233   */\n      dup2\n        /* \"#utility.yul\":24225:24245   */\n      sub\n        /* \"#utility.yul\":24221:24222   */\n      0x00\n        /* \"#utility.yul\":24210:24219   */\n      dup4\n        /* \"#utility.yul\":24206:24223   */\n      add\n        /* \"#utility.yul\":24199:24246   */\n      mstore\n        /* \"#utility.yul\":24263:24394   */\n      tag_551\n        /* \"#utility.yul\":24389:24393   */\n      dup2\n        /* \"#utility.yul\":24263:24394   */\n      tag_300\n      jump\t// in\n    tag_551:\n        /* \"#utility.yul\":24255:24394   */\n      swap1\n      pop\n        /* \"#utility.yul\":23982:24401   */\n      swap2\n      swap1\n      pop\n      jump\t// out\n        /* \"#utility.yul\":24407:24580   */\n    tag_301:\n        /* \"#utility.yul\":24547:24572   */\n      0x4e6f20746f6b656e7320746f206265206275726e656421000000000000000000\n        /* \"#utility.yul\":24543:24544   */\n      0x00\n        /* \"#utility.yul\":24535:24541   */\n      dup3\n        /* \"#utility.yul\":24531:24545   */\n      add\n        /* \"#utility.yul\":24524:24573   */\n      mstore\n        /* \"#utility.yul\":24407:24580   */\n      pop\n      jump\t// out\n        /* \"#utility.yul\":24586:24952   */\n    tag_302:\n        /* \"#utility.yul\":24728:24731   */\n      0x00\n        /* \"#utility.yul\":24749:24816   */\n      tag_554\n        /* \"#utility.yul\":24813:24815   */\n      0x17\n        /* \"#utility.yul\":24808:24811   */\n      dup4\n        /* \"#utility.yul\":24749:24816   */\n      tag_257\n      jump\t// in\n    tag_554:\n        /* \"#utility.yul\":24742:24816   */\n      swap2\n      pop\n        /* \"#utility.yul\":24825:24918   */\n      tag_555\n        /* \"#utility.yul\":24914:24917   */\n      dup3\n        /* \"#utility.yul\":24825:24918   */\n      tag_301\n      jump\t// in\n    tag_555:\n        /* \"#utility.yul\":24943:24945   */\n      0x20\n        /* \"#utility.yul\":24938:24941   */\n      dup3\n        /* \"#utility.yul\":24934:24946   */\n      add\n        /* \"#utility.yul\":24927:24946   */\n      swap1\n      pop\n        /* \"#utility.yul\":24586:24952   */\n      swap2\n      swap1\n      pop\n      jump\t// out\n        /* \"#utility.yul\":24958:25377   */\n    tag_236:\n        /* \"#utility.yul\":25124:25128   */\n      0x00\n        /* \"#utility.yul\":25162:25164   */\n      0x20\n        /* \"#utility.yul\":25151:25160   */\n      dup3\n        /* \"#utility.yul\":25147:25165   */\n      add\n        /* \"#utility.yul\":25139:25165   */\n      swap1\n      pop\n        /* \"#utility.yul\":25211:25220   */\n      dup2\n        /* \"#utility.yul\":25205:25209   */\n      dup2\n        /* \"#utility.yul\":25201:25221   */\n      sub\n        /* \"#utility.yul\":25197:25198   */\n      0x00\n        /* \"#utility.yul\":25186:25195   */\n      dup4\n        /* \"#utility.yul\":25182:25199   */\n      add\n        /* \"#utility.yul\":25175:25222   */\n      mstore\n        /* \"#utility.yul\":25239:25370   */\n      tag_557\n        /* \"#utility.yul\":25365:25369   */\n      dup2\n        /* \"#utility.yul\":25239:25370   */\n      tag_302\n      jump\t// in\n    tag_557:\n        /* \"#utility.yul\":25231:25370   */\n      swap1\n      pop\n        /* \"#utility.yul\":24958:25377   */\n      swap2\n      swap1\n      pop\n      jump\t// out\n\n    auxdata: 0xa264697066735822122069a7f303414fc25eb5ed9b568d7396dbb863cfa8bb79cddda6be4ce6115d76ef64736f6c63430008170033\n}\n",
				"bytecode": {
					"linkReferences": {},
					"object": "60c06040526001600060156101000a81548160ff021916908315150217905550600060035560006009556000600a553480156200003b57600080fd5b50604051620021a8380380620021a8833981810160405281019062000061919062000242565b60008060006101000a81548160ff0219169083151502179055506200009b6200008f6200010b60201b60201c565b6200011360201b60201c565b8173ffffffffffffffffffffffffffffffffffffffff1660808173ffffffffffffffffffffffffffffffffffffffff16815250508073ffffffffffffffffffffffffffffffffffffffff1660a08173ffffffffffffffffffffffffffffffffffffffff1681525050505062000289565b600033905090565b60008060019054906101000a900473ffffffffffffffffffffffffffffffffffffffff16905081600060016101000a81548173ffffffffffffffffffffffffffffffffffffffff021916908373ffffffffffffffffffffffffffffffffffffffff1602179055508173ffffffffffffffffffffffffffffffffffffffff168173ffffffffffffffffffffffffffffffffffffffff167f8be0079c531659141344cd1fd0a4f28419497f9722a3daafe3b4186f6b6457e060405160405180910390a35050565b600080fd5b600073ffffffffffffffffffffffffffffffffffffffff82169050919050565b60006200020a82620001dd565b9050919050565b6200021c81620001fd565b81146200022857600080fd5b50565b6000815190506200023c8162000211565b92915050565b600080604083850312156200025c576200025b620001d8565b5b60006200026c858286016200022b565b92505060206200027f858286016200022b565b9150509250929050565b60805160a051611ee4620002c460003960008181610b470152610bd50152600081816106e501528181610c65015261102d0152611ee46000f3fe608060405234801561001057600080fd5b50600436106101375760003560e01c80638da5cb5b116100b8578063e055aeeb1161007c578063e055aeeb1461030a578063e322ad2b1461033a578063e6367ebe14610358578063e808876614610376578063ed969c8414610380578063f2fde38b146103b057610137565b80638da5cb5b14610278578063b99152d014610296578063c1f74cc8146102c6578063c794363e146102e4578063c964ad451461030057610137565b8063715018a6116100ff578063715018a6146101e4578063722713f7146101ee578063723e27ff1461020c57806373f425611461022a5780637754723e1461024857610137565b80631d9abd7f1461013c5780632e1a7d4d146101585780635c975abb14610174578063679aefce146101925780636a9d43dd146101b4575b600080fd5b61015660048036038101906101519190611147565b6103cc565b005b610172600480360381019061016d91906111aa565b610418565b005b61017c61048e565b60405161018991906111f2565b60405180910390f35b61019a6104a4565b6040516101ab9594939291906112ac565b60405180910390f35b6101ce60048036038101906101c9919061130d565b6105f1565b6040516101db91906111f2565b60405180910390f35b6101ec6106cd565b005b6101f66106e1565b6040516102039190611360565b60405180910390f35b610214610782565b60405161022191906111f2565b60405180910390f35b610232610890565b60405161023f9190611360565b60405180910390f35b610262600480360381019061025d919061137b565b610896565b60405161026f9190611360565b60405180910390f35b61028061090c565b60405161028d91906113dd565b60405180910390f35b6102b060048036038101906102ab9190611147565b610935565b6040516102bd9190611360565b60405180910390f35b6102ce6109c0565b6040516102db9190611360565b60405180910390f35b6102fe60048036038101906102f99190611147565b6109c6565b005b610308610a12565b005b610324600480360381019061031f919061137b565b610a3f565b6040516103319190611360565b60405180910390f35b610342610a72565b60405161034f9190611360565b60405180910390f35b610360610a78565b60405161036d91906113f8565b60405180910390f35b61037e610b0f565b005b61039a600480360381019061039591906111aa565b610b43565b6040516103a791906111f2565b60405180910390f35b6103ca60048036038101906103c59190611147565b610e1f565b005b6103d4610ea2565b80600160006101000a81548173ffffffffffffffffffffffffffffffffffffffff021916908373ffffffffffffffffffffffffffffffffffffffff16021790555050565b610420610ea2565b600a546009546104309190611449565b811115610472576040517f08c379a0000000000000000000000000000000000000000000000000000000008152600401610469906114ef565b60405180910390fd5b80600a6000828254610484919061150f565b9250508190555050565b60008060009054906101000a900460ff16905090565b6000806060600060606004600001546004600101546004600201600460030154600480018280546104d490611572565b80601f016020809104026020016040519081016040528092919081815260200182805461050090611572565b801561054d5780601f106105225761010080835404028352916020019161054d565b820191906000526020600020905b81548152906001019060200180831161053057829003601f168201915b5050505050925080805461056090611572565b80601f016020809104026020016040519081016040528092919081815260200182805461058c90611572565b80156105d95780601f106105ae576101008083540402835291602001916105d9565b820191906000526020600020905b8154815290600101906020018083116105bc57829003601f168201915b50505050509050945094509450945094509091929394565b60006105fb610ea2565b8161060585610935565b1015610646576040517f08c379a000000000000000000000000000000000000000000000000000000000815260040161063d906115ef565b60405180910390fd5b8373ffffffffffffffffffffffffffffffffffffffff1663a9059cbb84846040518363ffffffff1660e01b815260040161068192919061160f565b6020604051808303816000875af11580156106a0573d6000803e3d6000fd5b505050506040513d601f19601f820116820180604052508101906106c49190611664565b90509392505050565b6106d5610ea2565b6106df6000610f20565b565b60007f000000000000000000000000000000000000000000000000000000000000000073ffffffffffffffffffffffffffffffffffffffff166370a08231306040518263ffffffff1660e01b815260040161073c91906113dd565b602060405180830381865afa158015610759573d6000803e3d6000fd5b505050506040513d601f19601f8201168201806040525081019061077d91906116a6565b905090565b600062a98ac760046000018190555060086004600101819055506040518060400160405280601281526020017f66616b65555344542f44756d6d795054524e0000000000000000000000000000815250600460020190816107e391906118ae565b5063655600aa600460030181905550600060159054906101000a900460ff16610841576040518060400160405280600b81526020017f416772656761746f725633000000000000000000000000000000000000000000815250610878565b6040518060400160405280600481526020017f506f6f6c000000000000000000000000000000000000000000000000000000008152505b60048001908161088891906118ae565b506001905090565b60035481565b60008083116108da576040517f08c379a00000000000000000000000000000000000000000000000000000000081526004016108d1906119cc565b60405180910390fd5b600082600a6108e99190611b1f565b856108f49190611b6a565b905083816109029190611bdb565b9150509392505050565b60008060019054906101000a900473ffffffffffffffffffffffffffffffffffffffff16905090565b600061093f610ea2565b8173ffffffffffffffffffffffffffffffffffffffff166370a08231306040518263ffffffff1660e01b815260040161097891906113dd565b602060405180830381865afa158015610995573d6000803e3d6000fd5b505050506040513d601f19601f820116820180604052508101906109b991906116a6565b9050919050565b600a5481565b6109ce610ea2565b80600260006101000a81548173ffffffffffffffffffffffffffffffffffffffff021916908373ffffffffffffffffffffffffffffffffffffffff16021790555050565b610a1a610ea2565b600a5460096000828254610a2e9190611449565b925050819055506000600a81905550565b6000808385610a4e9190611b6a565b905082600a610a5d9190611b1f565b81610a689190611bdb565b9150509392505050565b60095481565b606080600060159054906101000a900460ff16610acd576040518060400160405280600c81526020017f41676772656761746f7256330000000000000000000000000000000000000000815250905080610b07565b6040518060400160405280600481526020017f506f6f6c000000000000000000000000000000000000000000000000000000008152509050805b508091505090565b610b17610ea2565b600060159054906101000a900460ff1615600060156101000a81548160ff021916908315150217905550565b60007f000000000000000000000000000000000000000000000000000000000000000073ffffffffffffffffffffffffffffffffffffffff163373ffffffffffffffffffffffffffffffffffffffff1614610bd3576040517f08c379a0000000000000000000000000000000000000000000000000000000008152600401610bca90611c58565b60405180910390fd5b7f000000000000000000000000000000000000000000000000000000000000000073ffffffffffffffffffffffffffffffffffffffff163373ffffffffffffffffffffffffffffffffffffffff1614610c61576040517f08c379a0000000000000000000000000000000000000000000000000000000008152600401610c5890611c58565b60405180910390fd5b60007f0000000000000000000000000000000000000000000000000000000000000000905060008173ffffffffffffffffffffffffffffffffffffffff1663dd62ed3e33306040518363ffffffff1660e01b8152600401610cc3929190611c78565b602060405180830381865afa158015610ce0573d6000803e3d6000fd5b505050506040513d601f19601f82011682018060405250810190610d0491906116a6565b905083811015610d49576040517f08c379a0000000000000000000000000000000000000000000000000000000008152600401610d4090611ced565b60405180910390fd5b8173ffffffffffffffffffffffffffffffffffffffff166323b872dd3330876040518463ffffffff1660e01b8152600401610d8693929190611d0d565b6020604051808303816000875af1158015610da5573d6000803e3d6000fd5b505050506040513d601f19601f82011682018060405250810190610dc99190611664565b50610dd2610782565b50600080610dde6104a4565b50505091509150610dee86610fe5565b50610dfa868383610a3f565b60096000828254610e0b919061150f565b925050819055506001945050505050919050565b610e27610ea2565b600073ffffffffffffffffffffffffffffffffffffffff168173ffffffffffffffffffffffffffffffffffffffff1603610e96576040517f08c379a0000000000000000000000000000000000000000000000000000000008152600401610e8d90611db6565b60405180910390fd5b610e9f81610f20565b50565b610eaa6110dc565b73ffffffffffffffffffffffffffffffffffffffff16610ec861090c565b73ffffffffffffffffffffffffffffffffffffffff1614610f1e576040517f08c379a0000000000000000000000000000000000000000000000000000000008152600401610f1590611e22565b60405180910390fd5b565b60008060019054906101000a900473ffffffffffffffffffffffffffffffffffffffff16905081600060016101000a81548173ffffffffffffffffffffffffffffffffffffffff021916908373ffffffffffffffffffffffffffffffffffffffff1602179055508173ffffffffffffffffffffffffffffffffffffffff168173ffffffffffffffffffffffffffffffffffffffff167f8be0079c531659141344cd1fd0a4f28419497f9722a3daafe3b4186f6b6457e060405160405180910390a35050565b6000808211611029576040517f08c379a000000000000000000000000000000000000000000000000000000000815260040161102090611e8e565b60405180910390fd5b60007f000000000000000000000000000000000000000000000000000000000000000090508073ffffffffffffffffffffffffffffffffffffffff166342966c68846040518263ffffffff1660e01b81526004016110879190611360565b600060405180830381600087803b1580156110a157600080fd5b505af11580156110b5573d6000803e3d6000fd5b5050505082600360008282546110cb919061150f565b925050819055506001915050919050565b600033905090565b600080fd5b600073ffffffffffffffffffffffffffffffffffffffff82169050919050565b6000611114826110e9565b9050919050565b61112481611109565b811461112f57600080fd5b50565b6000813590506111418161111b565b92915050565b60006020828403121561115d5761115c6110e4565b5b600061116b84828501611132565b91505092915050565b6000819050919050565b61118781611174565b811461119257600080fd5b50565b6000813590506111a48161117e565b92915050565b6000602082840312156111c0576111bf6110e4565b5b60006111ce84828501611195565b91505092915050565b60008115159050919050565b6111ec816111d7565b82525050565b600060208201905061120760008301846111e3565b92915050565b61121681611174565b82525050565b600081519050919050565b600082825260208201905092915050565b60005b8381101561125657808201518184015260208101905061123b565b60008484015250505050565b6000601f19601f8301169050919050565b600061127e8261121c565b6112888185611227565b9350611298818560208601611238565b6112a181611262565b840191505092915050565b600060a0820190506112c1600083018861120d565b6112ce602083018761120d565b81810360408301526112e08186611273565b90506112ef606083018561120d565b81810360808301526113018184611273565b90509695505050505050565b600080600060608486031215611326576113256110e4565b5b600061133486828701611132565b935050602061134586828701611132565b925050604061135686828701611195565b9150509250925092565b6000602082019050611375600083018461120d565b92915050565b600080600060608486031215611394576113936110e4565b5b60006113a286828701611195565b93505060206113b386828701611195565b92505060406113c486828701611195565b9150509250925092565b6113d781611109565b82525050565b60006020820190506113f260008301846113ce565b92915050565b600060208201905081810360008301526114128184611273565b905092915050565b7f4e487b7100000000000000000000000000000000000000000000000000000000600052601160045260246000fd5b600061145482611174565b915061145f83611174565b92508282039050818111156114775761147661141a565b5b92915050565b7f4e6f7420656e6f75676820706f696e74732e2054686520636f6e74726163742060008201527f6d75737420626520636861726765642077697468206d6f7265205054524e0000602082015250565b60006114d9603e83611227565b91506114e48261147d565b604082019050919050565b60006020820190508181036000830152611508816114cc565b9050919050565b600061151a82611174565b915061152583611174565b925082820190508082111561153d5761153c61141a565b5b92915050565b7f4e487b7100000000000000000000000000000000000000000000000000000000600052602260045260246000fd5b6000600282049050600182168061158a57607f821691505b60208210810361159d5761159c611543565b5b50919050565b7f4e6f7420656e6f7567682062616c616e63652100000000000000000000000000600082015250565b60006115d9601383611227565b91506115e4826115a3565b602082019050919050565b60006020820190508181036000830152611608816115cc565b9050919050565b600060408201905061162460008301856113ce565b611631602083018461120d565b9392505050565b611641816111d7565b811461164c57600080fd5b50565b60008151905061165e81611638565b92915050565b60006020828403121561167a576116796110e4565b5b60006116888482850161164f565b91505092915050565b6000815190506116a08161117e565b92915050565b6000602082840312156116bc576116bb6110e4565b5b60006116ca84828501611691565b91505092915050565b7f4e487b7100000000000000000000000000000000000000000000000000000000600052604160045260246000fd5b60008190508160005260206000209050919050565b60006020601f8301049050919050565b600082821b905092915050565b6000600883026117647fffffffffffffffffffffffffffffffffffffffffffffffffffffffffffffffff82611727565b61176e8683611727565b95508019841693508086168417925050509392505050565b6000819050919050565b60006117ab6117a66117a184611174565b611786565b611174565b9050919050565b6000819050919050565b6117c583611790565b6117d96117d1826117b2565b848454611734565b825550505050565b600090565b6117ee6117e1565b6117f98184846117bc565b505050565b5b8181101561181d576118126000826117e6565b6001810190506117ff565b5050565b601f8211156118625761183381611702565b61183c84611717565b8101602085101561184b578190505b61185f61185785611717565b8301826117fe565b50505b505050565b600082821c905092915050565b600061188560001984600802611867565b1980831691505092915050565b600061189e8383611874565b9150826002028217905092915050565b6118b78261121c565b67ffffffffffffffff8111156118d0576118cf6116d3565b5b6118da8254611572565b6118e5828285611821565b600060209050601f8311600181146119185760008415611906578287015190505b6119108582611892565b865550611978565b601f19841661192686611702565b60005b8281101561194e57848901518255600182019150602085019450602081019050611929565b8683101561196b5784890151611967601f891682611874565b8355505b6001600288020188555050505b505050505050565b7f52617465206d7573742062652067726561746572207468616e207a65726f0000600082015250565b60006119b6601e83611227565b91506119c182611980565b602082019050919050565b600060208201905081810360008301526119e5816119a9565b9050919050565b60008160011c9050919050565b6000808291508390505b6001851115611a4357808604811115611a1f57611a1e61141a565b5b6001851615611a2e5780820291505b8081029050611a3c856119ec565b9450611a03565b94509492505050565b600082611a5c5760019050611b18565b81611a6a5760009050611b18565b8160018114611a805760028114611a8a57611ab9565b6001915050611b18565b60ff841115611a9c57611a9b61141a565b5b8360020a915084821115611ab357611ab261141a565b5b50611b18565b5060208310610133831016604e8410600b8410161715611aee5782820a905083811115611ae957611ae861141a565b5b611b18565b611afb84848460016119f9565b92509050818404811115611b1257611b1161141a565b5b81810290505b9392505050565b6000611b2a82611174565b9150611b3583611174565b9250611b627fffffffffffffffffffffffffffffffffffffffffffffffffffffffffffffffff8484611a4c565b905092915050565b6000611b7582611174565b9150611b8083611174565b9250828202611b8e81611174565b91508282048414831517611ba557611ba461141a565b5b5092915050565b7f4e487b7100000000000000000000000000000000000000000000000000000000600052601260045260246000fd5b6000611be682611174565b9150611bf183611174565b925082611c0157611c00611bac565b5b828204905092915050565b7f53656e646572206e6f7420617574686f72697a65640000000000000000000000600082015250565b6000611c42601583611227565b9150611c4d82611c0c565b602082019050919050565b60006020820190508181036000830152611c7181611c35565b9050919050565b6000604082019050611c8d60008301856113ce565b611c9a60208301846113ce565b9392505050565b7f436865636b2074686520746f6b656e20616c6c6f77616e636500000000000000600082015250565b6000611cd7601983611227565b9150611ce282611ca1565b602082019050919050565b60006020820190508181036000830152611d0681611cca565b9050919050565b6000606082019050611d2260008301866113ce565b611d2f60208301856113ce565b611d3c604083018461120d565b949350505050565b7f4f776e61626c653a206e6577206f776e657220697320746865207a65726f206160008201527f6464726573730000000000000000000000000000000000000000000000000000602082015250565b6000611da0602683611227565b9150611dab82611d44565b604082019050919050565b60006020820190508181036000830152611dcf81611d93565b9050919050565b7f4f776e61626c653a2063616c6c6572206973206e6f7420746865206f776e6572600082015250565b6000611e0c602083611227565b9150611e1782611dd6565b602082019050919050565b60006020820190508181036000830152611e3b81611dff565b9050919050565b7f4e6f20746f6b656e7320746f206265206275726e656421000000000000000000600082015250565b6000611e78601783611227565b9150611e8382611e42565b602082019050919050565b60006020820190508181036000830152611ea781611e6b565b905091905056fea264697066735822122069a7f303414fc25eb5ed9b568d7396dbb863cfa8bb79cddda6be4ce6115d76ef64736f6c63430008170033",
					"opcodes": "PUSH1 0xC0 PUSH1 0x40 MSTORE PUSH1 0x1 PUSH1 0x0 PUSH1 0x15 PUSH2 0x100 EXP DUP2 SLOAD DUP2 PUSH1 0xFF MUL NOT AND SWAP1 DUP4 ISZERO ISZERO MUL OR SWAP1 SSTORE POP PUSH1 0x0 PUSH1 0x3 SSTORE PUSH1 0x0 PUSH1 0x9 SSTORE PUSH1 0x0 PUSH1 0xA SSTORE CALLVALUE DUP1 ISZERO PUSH3 0x3B JUMPI PUSH1 0x0 DUP1 REVERT JUMPDEST POP PUSH1 0x40 MLOAD PUSH3 0x21A8 CODESIZE SUB DUP1 PUSH3 0x21A8 DUP4 CODECOPY DUP2 DUP2 ADD PUSH1 0x40 MSTORE DUP2 ADD SWAP1 PUSH3 0x61 SWAP2 SWAP1 PUSH3 0x242 JUMP JUMPDEST PUSH1 0x0 DUP1 PUSH1 0x0 PUSH2 0x100 EXP DUP2 SLOAD DUP2 PUSH1 0xFF MUL NOT AND SWAP1 DUP4 ISZERO ISZERO MUL OR SWAP1 SSTORE POP PUSH3 0x9B PUSH3 0x8F PUSH3 0x10B PUSH1 0x20 SHL PUSH1 0x20 SHR JUMP JUMPDEST PUSH3 0x113 PUSH1 0x20 SHL PUSH1 0x20 SHR JUMP JUMPDEST DUP2 PUSH20 0xFFFFFFFFFFFFFFFFFFFFFFFFFFFFFFFFFFFFFFFF AND PUSH1 0x80 DUP2 PUSH20 0xFFFFFFFFFFFFFFFFFFFFFFFFFFFFFFFFFFFFFFFF AND DUP2 MSTORE POP POP DUP1 PUSH20 0xFFFFFFFFFFFFFFFFFFFFFFFFFFFFFFFFFFFFFFFF AND PUSH1 0xA0 DUP2 PUSH20 0xFFFFFFFFFFFFFFFFFFFFFFFFFFFFFFFFFFFFFFFF AND DUP2 MSTORE POP POP POP POP PUSH3 0x289 JUMP JUMPDEST PUSH1 0x0 CALLER SWAP1 POP SWAP1 JUMP JUMPDEST PUSH1 0x0 DUP1 PUSH1 0x1 SWAP1 SLOAD SWAP1 PUSH2 0x100 EXP SWAP1 DIV PUSH20 0xFFFFFFFFFFFFFFFFFFFFFFFFFFFFFFFFFFFFFFFF AND SWAP1 POP DUP2 PUSH1 0x0 PUSH1 0x1 PUSH2 0x100 EXP DUP2 SLOAD DUP2 PUSH20 0xFFFFFFFFFFFFFFFFFFFFFFFFFFFFFFFFFFFFFFFF MUL NOT AND SWAP1 DUP4 PUSH20 0xFFFFFFFFFFFFFFFFFFFFFFFFFFFFFFFFFFFFFFFF AND MUL OR SWAP1 SSTORE POP DUP2 PUSH20 0xFFFFFFFFFFFFFFFFFFFFFFFFFFFFFFFFFFFFFFFF AND DUP2 PUSH20 0xFFFFFFFFFFFFFFFFFFFFFFFFFFFFFFFFFFFFFFFF AND PUSH32 0x8BE0079C531659141344CD1FD0A4F28419497F9722A3DAAFE3B4186F6B6457E0 PUSH1 0x40 MLOAD PUSH1 0x40 MLOAD DUP1 SWAP2 SUB SWAP1 LOG3 POP POP JUMP JUMPDEST PUSH1 0x0 DUP1 REVERT JUMPDEST PUSH1 0x0 PUSH20 0xFFFFFFFFFFFFFFFFFFFFFFFFFFFFFFFFFFFFFFFF DUP3 AND SWAP1 POP SWAP2 SWAP1 POP JUMP JUMPDEST PUSH1 0x0 PUSH3 0x20A DUP3 PUSH3 0x1DD JUMP JUMPDEST SWAP1 POP SWAP2 SWAP1 POP JUMP JUMPDEST PUSH3 0x21C DUP2 PUSH3 0x1FD JUMP JUMPDEST DUP2 EQ PUSH3 0x228 JUMPI PUSH1 0x0 DUP1 REVERT JUMPDEST POP JUMP JUMPDEST PUSH1 0x0 DUP2 MLOAD SWAP1 POP PUSH3 0x23C DUP2 PUSH3 0x211 JUMP JUMPDEST SWAP3 SWAP2 POP POP JUMP JUMPDEST PUSH1 0x0 DUP1 PUSH1 0x40 DUP4 DUP6 SUB SLT ISZERO PUSH3 0x25C JUMPI PUSH3 0x25B PUSH3 0x1D8 JUMP JUMPDEST JUMPDEST PUSH1 0x0 PUSH3 0x26C DUP6 DUP3 DUP7 ADD PUSH3 0x22B JUMP JUMPDEST SWAP3 POP POP PUSH1 0x20 PUSH3 0x27F DUP6 DUP3 DUP7 ADD PUSH3 0x22B JUMP JUMPDEST SWAP2 POP POP SWAP3 POP SWAP3 SWAP1 POP JUMP JUMPDEST PUSH1 0x80 MLOAD PUSH1 0xA0 MLOAD PUSH2 0x1EE4 PUSH3 0x2C4 PUSH1 0x0 CODECOPY PUSH1 0x0 DUP2 DUP2 PUSH2 0xB47 ADD MSTORE PUSH2 0xBD5 ADD MSTORE PUSH1 0x0 DUP2 DUP2 PUSH2 0x6E5 ADD MSTORE DUP2 DUP2 PUSH2 0xC65 ADD MSTORE PUSH2 0x102D ADD MSTORE PUSH2 0x1EE4 PUSH1 0x0 RETURN INVALID PUSH1 0x80 PUSH1 0x40 MSTORE CALLVALUE DUP1 ISZERO PUSH2 0x10 JUMPI PUSH1 0x0 DUP1 REVERT JUMPDEST POP PUSH1 0x4 CALLDATASIZE LT PUSH2 0x137 JUMPI PUSH1 0x0 CALLDATALOAD PUSH1 0xE0 SHR DUP1 PUSH4 0x8DA5CB5B GT PUSH2 0xB8 JUMPI DUP1 PUSH4 0xE055AEEB GT PUSH2 0x7C JUMPI DUP1 PUSH4 0xE055AEEB EQ PUSH2 0x30A JUMPI DUP1 PUSH4 0xE322AD2B EQ PUSH2 0x33A JUMPI DUP1 PUSH4 0xE6367EBE EQ PUSH2 0x358 JUMPI DUP1 PUSH4 0xE8088766 EQ PUSH2 0x376 JUMPI DUP1 PUSH4 0xED969C84 EQ PUSH2 0x380 JUMPI DUP1 PUSH4 0xF2FDE38B EQ PUSH2 0x3B0 JUMPI PUSH2 0x137 JUMP JUMPDEST DUP1 PUSH4 0x8DA5CB5B EQ PUSH2 0x278 JUMPI DUP1 PUSH4 0xB99152D0 EQ PUSH2 0x296 JUMPI DUP1 PUSH4 0xC1F74CC8 EQ PUSH2 0x2C6 JUMPI DUP1 PUSH4 0xC794363E EQ PUSH2 0x2E4 JUMPI DUP1 PUSH4 0xC964AD45 EQ PUSH2 0x300 JUMPI PUSH2 0x137 JUMP JUMPDEST DUP1 PUSH4 0x715018A6 GT PUSH2 0xFF JUMPI DUP1 PUSH4 0x715018A6 EQ PUSH2 0x1E4 JUMPI DUP1 PUSH4 0x722713F7 EQ PUSH2 0x1EE JUMPI DUP1 PUSH4 0x723E27FF EQ PUSH2 0x20C JUMPI DUP1 PUSH4 0x73F42561 EQ PUSH2 0x22A JUMPI DUP1 PUSH4 0x7754723E EQ PUSH2 0x248 JUMPI PUSH2 0x137 JUMP JUMPDEST DUP1 PUSH4 0x1D9ABD7F EQ PUSH2 0x13C JUMPI DUP1 PUSH4 0x2E1A7D4D EQ PUSH2 0x158 JUMPI DUP1 PUSH4 0x5C975ABB EQ PUSH2 0x174 JUMPI DUP1 PUSH4 0x679AEFCE EQ PUSH2 0x192 JUMPI DUP1 PUSH4 0x6A9D43DD EQ PUSH2 0x1B4 JUMPI JUMPDEST PUSH1 0x0 DUP1 REVERT JUMPDEST PUSH2 0x156 PUSH1 0x4 DUP1 CALLDATASIZE SUB DUP2 ADD SWAP1 PUSH2 0x151 SWAP2 SWAP1 PUSH2 0x1147 JUMP JUMPDEST PUSH2 0x3CC JUMP JUMPDEST STOP JUMPDEST PUSH2 0x172 PUSH1 0x4 DUP1 CALLDATASIZE SUB DUP2 ADD SWAP1 PUSH2 0x16D SWAP2 SWAP1 PUSH2 0x11AA JUMP JUMPDEST PUSH2 0x418 JUMP JUMPDEST STOP JUMPDEST PUSH2 0x17C PUSH2 0x48E JUMP JUMPDEST PUSH1 0x40 MLOAD PUSH2 0x189 SWAP2 SWAP1 PUSH2 0x11F2 JUMP JUMPDEST PUSH1 0x40 MLOAD DUP1 SWAP2 SUB SWAP1 RETURN JUMPDEST PUSH2 0x19A PUSH2 0x4A4 JUMP JUMPDEST PUSH1 0x40 MLOAD PUSH2 0x1AB SWAP6 SWAP5 SWAP4 SWAP3 SWAP2 SWAP1 PUSH2 0x12AC JUMP JUMPDEST PUSH1 0x40 MLOAD DUP1 SWAP2 SUB SWAP1 RETURN JUMPDEST PUSH2 0x1CE PUSH1 0x4 DUP1 CALLDATASIZE SUB DUP2 ADD SWAP1 PUSH2 0x1C9 SWAP2 SWAP1 PUSH2 0x130D JUMP JUMPDEST PUSH2 0x5F1 JUMP JUMPDEST PUSH1 0x40 MLOAD PUSH2 0x1DB SWAP2 SWAP1 PUSH2 0x11F2 JUMP JUMPDEST PUSH1 0x40 MLOAD DUP1 SWAP2 SUB SWAP1 RETURN JUMPDEST PUSH2 0x1EC PUSH2 0x6CD JUMP JUMPDEST STOP JUMPDEST PUSH2 0x1F6 PUSH2 0x6E1 JUMP JUMPDEST PUSH1 0x40 MLOAD PUSH2 0x203 SWAP2 SWAP1 PUSH2 0x1360 JUMP JUMPDEST PUSH1 0x40 MLOAD DUP1 SWAP2 SUB SWAP1 RETURN JUMPDEST PUSH2 0x214 PUSH2 0x782 JUMP JUMPDEST PUSH1 0x40 MLOAD PUSH2 0x221 SWAP2 SWAP1 PUSH2 0x11F2 JUMP JUMPDEST PUSH1 0x40 MLOAD DUP1 SWAP2 SUB SWAP1 RETURN JUMPDEST PUSH2 0x232 PUSH2 0x890 JUMP JUMPDEST PUSH1 0x40 MLOAD PUSH2 0x23F SWAP2 SWAP1 PUSH2 0x1360 JUMP JUMPDEST PUSH1 0x40 MLOAD DUP1 SWAP2 SUB SWAP1 RETURN JUMPDEST PUSH2 0x262 PUSH1 0x4 DUP1 CALLDATASIZE SUB DUP2 ADD SWAP1 PUSH2 0x25D SWAP2 SWAP1 PUSH2 0x137B JUMP JUMPDEST PUSH2 0x896 JUMP JUMPDEST PUSH1 0x40 MLOAD PUSH2 0x26F SWAP2 SWAP1 PUSH2 0x1360 JUMP JUMPDEST PUSH1 0x40 MLOAD DUP1 SWAP2 SUB SWAP1 RETURN JUMPDEST PUSH2 0x280 PUSH2 0x90C JUMP JUMPDEST PUSH1 0x40 MLOAD PUSH2 0x28D SWAP2 SWAP1 PUSH2 0x13DD JUMP JUMPDEST PUSH1 0x40 MLOAD DUP1 SWAP2 SUB SWAP1 RETURN JUMPDEST PUSH2 0x2B0 PUSH1 0x4 DUP1 CALLDATASIZE SUB DUP2 ADD SWAP1 PUSH2 0x2AB SWAP2 SWAP1 PUSH2 0x1147 JUMP JUMPDEST PUSH2 0x935 JUMP JUMPDEST PUSH1 0x40 MLOAD PUSH2 0x2BD SWAP2 SWAP1 PUSH2 0x1360 JUMP JUMPDEST PUSH1 0x40 MLOAD DUP1 SWAP2 SUB SWAP1 RETURN JUMPDEST PUSH2 0x2CE PUSH2 0x9C0 JUMP JUMPDEST PUSH1 0x40 MLOAD PUSH2 0x2DB SWAP2 SWAP1 PUSH2 0x1360 JUMP JUMPDEST PUSH1 0x40 MLOAD DUP1 SWAP2 SUB SWAP1 RETURN JUMPDEST PUSH2 0x2FE PUSH1 0x4 DUP1 CALLDATASIZE SUB DUP2 ADD SWAP1 PUSH2 0x2F9 SWAP2 SWAP1 PUSH2 0x1147 JUMP JUMPDEST PUSH2 0x9C6 JUMP JUMPDEST STOP JUMPDEST PUSH2 0x308 PUSH2 0xA12 JUMP JUMPDEST STOP JUMPDEST PUSH2 0x324 PUSH1 0x4 DUP1 CALLDATASIZE SUB DUP2 ADD SWAP1 PUSH2 0x31F SWAP2 SWAP1 PUSH2 0x137B JUMP JUMPDEST PUSH2 0xA3F JUMP JUMPDEST PUSH1 0x40 MLOAD PUSH2 0x331 SWAP2 SWAP1 PUSH2 0x1360 JUMP JUMPDEST PUSH1 0x40 MLOAD DUP1 SWAP2 SUB SWAP1 RETURN JUMPDEST PUSH2 0x342 PUSH2 0xA72 JUMP JUMPDEST PUSH1 0x40 MLOAD PUSH2 0x34F SWAP2 SWAP1 PUSH2 0x1360 JUMP JUMPDEST PUSH1 0x40 MLOAD DUP1 SWAP2 SUB SWAP1 RETURN JUMPDEST PUSH2 0x360 PUSH2 0xA78 JUMP JUMPDEST PUSH1 0x40 MLOAD PUSH2 0x36D SWAP2 SWAP1 PUSH2 0x13F8 JUMP JUMPDEST PUSH1 0x40 MLOAD DUP1 SWAP2 SUB SWAP1 RETURN JUMPDEST PUSH2 0x37E PUSH2 0xB0F JUMP JUMPDEST STOP JUMPDEST PUSH2 0x39A PUSH1 0x4 DUP1 CALLDATASIZE SUB DUP2 ADD SWAP1 PUSH2 0x395 SWAP2 SWAP1 PUSH2 0x11AA JUMP JUMPDEST PUSH2 0xB43 JUMP JUMPDEST PUSH1 0x40 MLOAD PUSH2 0x3A7 SWAP2 SWAP1 PUSH2 0x11F2 JUMP JUMPDEST PUSH1 0x40 MLOAD DUP1 SWAP2 SUB SWAP1 RETURN JUMPDEST PUSH2 0x3CA PUSH1 0x4 DUP1 CALLDATASIZE SUB DUP2 ADD SWAP1 PUSH2 0x3C5 SWAP2 SWAP1 PUSH2 0x1147 JUMP JUMPDEST PUSH2 0xE1F JUMP JUMPDEST STOP JUMPDEST PUSH2 0x3D4 PUSH2 0xEA2 JUMP JUMPDEST DUP1 PUSH1 0x1 PUSH1 0x0 PUSH2 0x100 EXP DUP2 SLOAD DUP2 PUSH20 0xFFFFFFFFFFFFFFFFFFFFFFFFFFFFFFFFFFFFFFFF MUL NOT AND SWAP1 DUP4 PUSH20 0xFFFFFFFFFFFFFFFFFFFFFFFFFFFFFFFFFFFFFFFF AND MUL OR SWAP1 SSTORE POP POP JUMP JUMPDEST PUSH2 0x420 PUSH2 0xEA2 JUMP JUMPDEST PUSH1 0xA SLOAD PUSH1 0x9 SLOAD PUSH2 0x430 SWAP2 SWAP1 PUSH2 0x1449 JUMP JUMPDEST DUP2 GT ISZERO PUSH2 0x472 JUMPI PUSH1 0x40 MLOAD PUSH32 0x8C379A000000000000000000000000000000000000000000000000000000000 DUP2 MSTORE PUSH1 0x4 ADD PUSH2 0x469 SWAP1 PUSH2 0x14EF JUMP JUMPDEST PUSH1 0x40 MLOAD DUP1 SWAP2 SUB SWAP1 REVERT JUMPDEST DUP1 PUSH1 0xA PUSH1 0x0 DUP3 DUP3 SLOAD PUSH2 0x484 SWAP2 SWAP1 PUSH2 0x150F JUMP JUMPDEST SWAP3 POP POP DUP2 SWAP1 SSTORE POP POP JUMP JUMPDEST PUSH1 0x0 DUP1 PUSH1 0x0 SWAP1 SLOAD SWAP1 PUSH2 0x100 EXP SWAP1 DIV PUSH1 0xFF AND SWAP1 POP SWAP1 JUMP JUMPDEST PUSH1 0x0 DUP1 PUSH1 0x60 PUSH1 0x0 PUSH1 0x60 PUSH1 0x4 PUSH1 0x0 ADD SLOAD PUSH1 0x4 PUSH1 0x1 ADD SLOAD PUSH1 0x4 PUSH1 0x2 ADD PUSH1 0x4 PUSH1 0x3 ADD SLOAD PUSH1 0x4 DUP1 ADD DUP3 DUP1 SLOAD PUSH2 0x4D4 SWAP1 PUSH2 0x1572 JUMP JUMPDEST DUP1 PUSH1 0x1F ADD PUSH1 0x20 DUP1 SWAP2 DIV MUL PUSH1 0x20 ADD PUSH1 0x40 MLOAD SWAP1 DUP2 ADD PUSH1 0x40 MSTORE DUP1 SWAP3 SWAP2 SWAP1 DUP2 DUP2 MSTORE PUSH1 0x20 ADD DUP3 DUP1 SLOAD PUSH2 0x500 SWAP1 PUSH2 0x1572 JUMP JUMPDEST DUP1 ISZERO PUSH2 0x54D JUMPI DUP1 PUSH1 0x1F LT PUSH2 0x522 JUMPI PUSH2 0x100 DUP1 DUP4 SLOAD DIV MUL DUP4 MSTORE SWAP2 PUSH1 0x20 ADD SWAP2 PUSH2 0x54D JUMP JUMPDEST DUP3 ADD SWAP2 SWAP1 PUSH1 0x0 MSTORE PUSH1 0x20 PUSH1 0x0 KECCAK256 SWAP1 JUMPDEST DUP2 SLOAD DUP2 MSTORE SWAP1 PUSH1 0x1 ADD SWAP1 PUSH1 0x20 ADD DUP1 DUP4 GT PUSH2 0x530 JUMPI DUP3 SWAP1 SUB PUSH1 0x1F AND DUP3 ADD SWAP2 JUMPDEST POP POP POP POP POP SWAP3 POP DUP1 DUP1 SLOAD PUSH2 0x560 SWAP1 PUSH2 0x1572 JUMP JUMPDEST DUP1 PUSH1 0x1F ADD PUSH1 0x20 DUP1 SWAP2 DIV MUL PUSH1 0x20 ADD PUSH1 0x40 MLOAD SWAP1 DUP2 ADD PUSH1 0x40 MSTORE DUP1 SWAP3 SWAP2 SWAP1 DUP2 DUP2 MSTORE PUSH1 0x20 ADD DUP3 DUP1 SLOAD PUSH2 0x58C SWAP1 PUSH2 0x1572 JUMP JUMPDEST DUP1 ISZERO PUSH2 0x5D9 JUMPI DUP1 PUSH1 0x1F LT PUSH2 0x5AE JUMPI PUSH2 0x100 DUP1 DUP4 SLOAD DIV MUL DUP4 MSTORE SWAP2 PUSH1 0x20 ADD SWAP2 PUSH2 0x5D9 JUMP JUMPDEST DUP3 ADD SWAP2 SWAP1 PUSH1 0x0 MSTORE PUSH1 0x20 PUSH1 0x0 KECCAK256 SWAP1 JUMPDEST DUP2 SLOAD DUP2 MSTORE SWAP1 PUSH1 0x1 ADD SWAP1 PUSH1 0x20 ADD DUP1 DUP4 GT PUSH2 0x5BC JUMPI DUP3 SWAP1 SUB PUSH1 0x1F AND DUP3 ADD SWAP2 JUMPDEST POP POP POP POP POP SWAP1 POP SWAP5 POP SWAP5 POP SWAP5 POP SWAP5 POP SWAP5 POP SWAP1 SWAP2 SWAP3 SWAP4 SWAP5 JUMP JUMPDEST PUSH1 0x0 PUSH2 0x5FB PUSH2 0xEA2 JUMP JUMPDEST DUP2 PUSH2 0x605 DUP6 PUSH2 0x935 JUMP JUMPDEST LT ISZERO PUSH2 0x646 JUMPI PUSH1 0x40 MLOAD PUSH32 0x8C379A000000000000000000000000000000000000000000000000000000000 DUP2 MSTORE PUSH1 0x4 ADD PUSH2 0x63D SWAP1 PUSH2 0x15EF JUMP JUMPDEST PUSH1 0x40 MLOAD DUP1 SWAP2 SUB SWAP1 REVERT JUMPDEST DUP4 PUSH20 0xFFFFFFFFFFFFFFFFFFFFFFFFFFFFFFFFFFFFFFFF AND PUSH4 0xA9059CBB DUP5 DUP5 PUSH1 0x40 MLOAD DUP4 PUSH4 0xFFFFFFFF AND PUSH1 0xE0 SHL DUP2 MSTORE PUSH1 0x4 ADD PUSH2 0x681 SWAP3 SWAP2 SWAP1 PUSH2 0x160F JUMP JUMPDEST PUSH1 0x20 PUSH1 0x40 MLOAD DUP1 DUP4 SUB DUP2 PUSH1 0x0 DUP8 GAS CALL ISZERO DUP1 ISZERO PUSH2 0x6A0 JUMPI RETURNDATASIZE PUSH1 0x0 DUP1 RETURNDATACOPY RETURNDATASIZE PUSH1 0x0 REVERT JUMPDEST POP POP POP POP PUSH1 0x40 MLOAD RETURNDATASIZE PUSH1 0x1F NOT PUSH1 0x1F DUP3 ADD AND DUP3 ADD DUP1 PUSH1 0x40 MSTORE POP DUP2 ADD SWAP1 PUSH2 0x6C4 SWAP2 SWAP1 PUSH2 0x1664 JUMP JUMPDEST SWAP1 POP SWAP4 SWAP3 POP POP POP JUMP JUMPDEST PUSH2 0x6D5 PUSH2 0xEA2 JUMP JUMPDEST PUSH2 0x6DF PUSH1 0x0 PUSH2 0xF20 JUMP JUMPDEST JUMP JUMPDEST PUSH1 0x0 PUSH32 0x0 PUSH20 0xFFFFFFFFFFFFFFFFFFFFFFFFFFFFFFFFFFFFFFFF AND PUSH4 0x70A08231 ADDRESS PUSH1 0x40 MLOAD DUP3 PUSH4 0xFFFFFFFF AND PUSH1 0xE0 SHL DUP2 MSTORE PUSH1 0x4 ADD PUSH2 0x73C SWAP2 SWAP1 PUSH2 0x13DD JUMP JUMPDEST PUSH1 0x20 PUSH1 0x40 MLOAD DUP1 DUP4 SUB DUP2 DUP7 GAS STATICCALL ISZERO DUP1 ISZERO PUSH2 0x759 JUMPI RETURNDATASIZE PUSH1 0x0 DUP1 RETURNDATACOPY RETURNDATASIZE PUSH1 0x0 REVERT JUMPDEST POP POP POP POP PUSH1 0x40 MLOAD RETURNDATASIZE PUSH1 0x1F NOT PUSH1 0x1F DUP3 ADD AND DUP3 ADD DUP1 PUSH1 0x40 MSTORE POP DUP2 ADD SWAP1 PUSH2 0x77D SWAP2 SWAP1 PUSH2 0x16A6 JUMP JUMPDEST SWAP1 POP SWAP1 JUMP JUMPDEST PUSH1 0x0 PUSH3 0xA98AC7 PUSH1 0x4 PUSH1 0x0 ADD DUP2 SWAP1 SSTORE POP PUSH1 0x8 PUSH1 0x4 PUSH1 0x1 ADD DUP2 SWAP1 SSTORE POP PUSH1 0x40 MLOAD DUP1 PUSH1 0x40 ADD PUSH1 0x40 MSTORE DUP1 PUSH1 0x12 DUP2 MSTORE PUSH1 0x20 ADD PUSH32 0x66616B65555344542F44756D6D795054524E0000000000000000000000000000 DUP2 MSTORE POP PUSH1 0x4 PUSH1 0x2 ADD SWAP1 DUP2 PUSH2 0x7E3 SWAP2 SWAP1 PUSH2 0x18AE JUMP JUMPDEST POP PUSH4 0x655600AA PUSH1 0x4 PUSH1 0x3 ADD DUP2 SWAP1 SSTORE POP PUSH1 0x0 PUSH1 0x15 SWAP1 SLOAD SWAP1 PUSH2 0x100 EXP SWAP1 DIV PUSH1 0xFF AND PUSH2 0x841 JUMPI PUSH1 0x40 MLOAD DUP1 PUSH1 0x40 ADD PUSH1 0x40 MSTORE DUP1 PUSH1 0xB DUP2 MSTORE PUSH1 0x20 ADD PUSH32 0x416772656761746F725633000000000000000000000000000000000000000000 DUP2 MSTORE POP PUSH2 0x878 JUMP JUMPDEST PUSH1 0x40 MLOAD DUP1 PUSH1 0x40 ADD PUSH1 0x40 MSTORE DUP1 PUSH1 0x4 DUP2 MSTORE PUSH1 0x20 ADD PUSH32 0x506F6F6C00000000000000000000000000000000000000000000000000000000 DUP2 MSTORE POP JUMPDEST PUSH1 0x4 DUP1 ADD SWAP1 DUP2 PUSH2 0x888 SWAP2 SWAP1 PUSH2 0x18AE JUMP JUMPDEST POP PUSH1 0x1 SWAP1 POP SWAP1 JUMP JUMPDEST PUSH1 0x3 SLOAD DUP2 JUMP JUMPDEST PUSH1 0x0 DUP1 DUP4 GT PUSH2 0x8DA JUMPI PUSH1 0x40 MLOAD PUSH32 0x8C379A000000000000000000000000000000000000000000000000000000000 DUP2 MSTORE PUSH1 0x4 ADD PUSH2 0x8D1 SWAP1 PUSH2 0x19CC JUMP JUMPDEST PUSH1 0x40 MLOAD DUP1 SWAP2 SUB SWAP1 REVERT JUMPDEST PUSH1 0x0 DUP3 PUSH1 0xA PUSH2 0x8E9 SWAP2 SWAP1 PUSH2 0x1B1F JUMP JUMPDEST DUP6 PUSH2 0x8F4 SWAP2 SWAP1 PUSH2 0x1B6A JUMP JUMPDEST SWAP1 POP DUP4 DUP2 PUSH2 0x902 SWAP2 SWAP1 PUSH2 0x1BDB JUMP JUMPDEST SWAP2 POP POP SWAP4 SWAP3 POP POP POP JUMP JUMPDEST PUSH1 0x0 DUP1 PUSH1 0x1 SWAP1 SLOAD SWAP1 PUSH2 0x100 EXP SWAP1 DIV PUSH20 0xFFFFFFFFFFFFFFFFFFFFFFFFFFFFFFFFFFFFFFFF AND SWAP1 POP SWAP1 JUMP JUMPDEST PUSH1 0x0 PUSH2 0x93F PUSH2 0xEA2 JUMP JUMPDEST DUP2 PUSH20 0xFFFFFFFFFFFFFFFFFFFFFFFFFFFFFFFFFFFFFFFF AND PUSH4 0x70A08231 ADDRESS PUSH1 0x40 MLOAD DUP3 PUSH4 0xFFFFFFFF AND PUSH1 0xE0 SHL DUP2 MSTORE PUSH1 0x4 ADD PUSH2 0x978 SWAP2 SWAP1 PUSH2 0x13DD JUMP JUMPDEST PUSH1 0x20 PUSH1 0x40 MLOAD DUP1 DUP4 SUB DUP2 DUP7 GAS STATICCALL ISZERO DUP1 ISZERO PUSH2 0x995 JUMPI RETURNDATASIZE PUSH1 0x0 DUP1 RETURNDATACOPY RETURNDATASIZE PUSH1 0x0 REVERT JUMPDEST POP POP POP POP PUSH1 0x40 MLOAD RETURNDATASIZE PUSH1 0x1F NOT PUSH1 0x1F DUP3 ADD AND DUP3 ADD DUP1 PUSH1 0x40 MSTORE POP DUP2 ADD SWAP1 PUSH2 0x9B9 SWAP2 SWAP1 PUSH2 0x16A6 JUMP JUMPDEST SWAP1 POP SWAP2 SWAP1 POP JUMP JUMPDEST PUSH1 0xA SLOAD DUP2 JUMP JUMPDEST PUSH2 0x9CE PUSH2 0xEA2 JUMP JUMPDEST DUP1 PUSH1 0x2 PUSH1 0x0 PUSH2 0x100 EXP DUP2 SLOAD DUP2 PUSH20 0xFFFFFFFFFFFFFFFFFFFFFFFFFFFFFFFFFFFFFFFF MUL NOT AND SWAP1 DUP4 PUSH20 0xFFFFFFFFFFFFFFFFFFFFFFFFFFFFFFFFFFFFFFFF AND MUL OR SWAP1 SSTORE POP POP JUMP JUMPDEST PUSH2 0xA1A PUSH2 0xEA2 JUMP JUMPDEST PUSH1 0xA SLOAD PUSH1 0x9 PUSH1 0x0 DUP3 DUP3 SLOAD PUSH2 0xA2E SWAP2 SWAP1 PUSH2 0x1449 JUMP JUMPDEST SWAP3 POP POP DUP2 SWAP1 SSTORE POP PUSH1 0x0 PUSH1 0xA DUP2 SWAP1 SSTORE POP JUMP JUMPDEST PUSH1 0x0 DUP1 DUP4 DUP6 PUSH2 0xA4E SWAP2 SWAP1 PUSH2 0x1B6A JUMP JUMPDEST SWAP1 POP DUP3 PUSH1 0xA PUSH2 0xA5D SWAP2 SWAP1 PUSH2 0x1B1F JUMP JUMPDEST DUP2 PUSH2 0xA68 SWAP2 SWAP1 PUSH2 0x1BDB JUMP JUMPDEST SWAP2 POP POP SWAP4 SWAP3 POP POP POP JUMP JUMPDEST PUSH1 0x9 SLOAD DUP2 JUMP JUMPDEST PUSH1 0x60 DUP1 PUSH1 0x0 PUSH1 0x15 SWAP1 SLOAD SWAP1 PUSH2 0x100 EXP SWAP1 DIV PUSH1 0xFF AND PUSH2 0xACD JUMPI PUSH1 0x40 MLOAD DUP1 PUSH1 0x40 ADD PUSH1 0x40 MSTORE DUP1 PUSH1 0xC DUP2 MSTORE PUSH1 0x20 ADD PUSH32 0x41676772656761746F7256330000000000000000000000000000000000000000 DUP2 MSTORE POP SWAP1 POP DUP1 PUSH2 0xB07 JUMP JUMPDEST PUSH1 0x40 MLOAD DUP1 PUSH1 0x40 ADD PUSH1 0x40 MSTORE DUP1 PUSH1 0x4 DUP2 MSTORE PUSH1 0x20 ADD PUSH32 0x506F6F6C00000000000000000000000000000000000000000000000000000000 DUP2 MSTORE POP SWAP1 POP DUP1 JUMPDEST POP DUP1 SWAP2 POP POP SWAP1 JUMP JUMPDEST PUSH2 0xB17 PUSH2 0xEA2 JUMP JUMPDEST PUSH1 0x0 PUSH1 0x15 SWAP1 SLOAD SWAP1 PUSH2 0x100 EXP SWAP1 DIV PUSH1 0xFF AND ISZERO PUSH1 0x0 PUSH1 0x15 PUSH2 0x100 EXP DUP2 SLOAD DUP2 PUSH1 0xFF MUL NOT AND SWAP1 DUP4 ISZERO ISZERO MUL OR SWAP1 SSTORE POP JUMP JUMPDEST PUSH1 0x0 PUSH32 0x0 PUSH20 0xFFFFFFFFFFFFFFFFFFFFFFFFFFFFFFFFFFFFFFFF AND CALLER PUSH20 0xFFFFFFFFFFFFFFFFFFFFFFFFFFFFFFFFFFFFFFFF AND EQ PUSH2 0xBD3 JUMPI PUSH1 0x40 MLOAD PUSH32 0x8C379A000000000000000000000000000000000000000000000000000000000 DUP2 MSTORE PUSH1 0x4 ADD PUSH2 0xBCA SWAP1 PUSH2 0x1C58 JUMP JUMPDEST PUSH1 0x40 MLOAD DUP1 SWAP2 SUB SWAP1 REVERT JUMPDEST PUSH32 0x0 PUSH20 0xFFFFFFFFFFFFFFFFFFFFFFFFFFFFFFFFFFFFFFFF AND CALLER PUSH20 0xFFFFFFFFFFFFFFFFFFFFFFFFFFFFFFFFFFFFFFFF AND EQ PUSH2 0xC61 JUMPI PUSH1 0x40 MLOAD PUSH32 0x8C379A000000000000000000000000000000000000000000000000000000000 DUP2 MSTORE PUSH1 0x4 ADD PUSH2 0xC58 SWAP1 PUSH2 0x1C58 JUMP JUMPDEST PUSH1 0x40 MLOAD DUP1 SWAP2 SUB SWAP1 REVERT JUMPDEST PUSH1 0x0 PUSH32 0x0 SWAP1 POP PUSH1 0x0 DUP2 PUSH20 0xFFFFFFFFFFFFFFFFFFFFFFFFFFFFFFFFFFFFFFFF AND PUSH4 0xDD62ED3E CALLER ADDRESS PUSH1 0x40 MLOAD DUP4 PUSH4 0xFFFFFFFF AND PUSH1 0xE0 SHL DUP2 MSTORE PUSH1 0x4 ADD PUSH2 0xCC3 SWAP3 SWAP2 SWAP1 PUSH2 0x1C78 JUMP JUMPDEST PUSH1 0x20 PUSH1 0x40 MLOAD DUP1 DUP4 SUB DUP2 DUP7 GAS STATICCALL ISZERO DUP1 ISZERO PUSH2 0xCE0 JUMPI RETURNDATASIZE PUSH1 0x0 DUP1 RETURNDATACOPY RETURNDATASIZE PUSH1 0x0 REVERT JUMPDEST POP POP POP POP PUSH1 0x40 MLOAD RETURNDATASIZE PUSH1 0x1F NOT PUSH1 0x1F DUP3 ADD AND DUP3 ADD DUP1 PUSH1 0x40 MSTORE POP DUP2 ADD SWAP1 PUSH2 0xD04 SWAP2 SWAP1 PUSH2 0x16A6 JUMP JUMPDEST SWAP1 POP DUP4 DUP2 LT ISZERO PUSH2 0xD49 JUMPI PUSH1 0x40 MLOAD PUSH32 0x8C379A000000000000000000000000000000000000000000000000000000000 DUP2 MSTORE PUSH1 0x4 ADD PUSH2 0xD40 SWAP1 PUSH2 0x1CED JUMP JUMPDEST PUSH1 0x40 MLOAD DUP1 SWAP2 SUB SWAP1 REVERT JUMPDEST DUP2 PUSH20 0xFFFFFFFFFFFFFFFFFFFFFFFFFFFFFFFFFFFFFFFF AND PUSH4 0x23B872DD CALLER ADDRESS DUP8 PUSH1 0x40 MLOAD DUP5 PUSH4 0xFFFFFFFF AND PUSH1 0xE0 SHL DUP2 MSTORE PUSH1 0x4 ADD PUSH2 0xD86 SWAP4 SWAP3 SWAP2 SWAP1 PUSH2 0x1D0D JUMP JUMPDEST PUSH1 0x20 PUSH1 0x40 MLOAD DUP1 DUP4 SUB DUP2 PUSH1 0x0 DUP8 GAS CALL ISZERO DUP1 ISZERO PUSH2 0xDA5 JUMPI RETURNDATASIZE PUSH1 0x0 DUP1 RETURNDATACOPY RETURNDATASIZE PUSH1 0x0 REVERT JUMPDEST POP POP POP POP PUSH1 0x40 MLOAD RETURNDATASIZE PUSH1 0x1F NOT PUSH1 0x1F DUP3 ADD AND DUP3 ADD DUP1 PUSH1 0x40 MSTORE POP DUP2 ADD SWAP1 PUSH2 0xDC9 SWAP2 SWAP1 PUSH2 0x1664 JUMP JUMPDEST POP PUSH2 0xDD2 PUSH2 0x782 JUMP JUMPDEST POP PUSH1 0x0 DUP1 PUSH2 0xDDE PUSH2 0x4A4 JUMP JUMPDEST POP POP POP SWAP2 POP SWAP2 POP PUSH2 0xDEE DUP7 PUSH2 0xFE5 JUMP JUMPDEST POP PUSH2 0xDFA DUP7 DUP4 DUP4 PUSH2 0xA3F JUMP JUMPDEST PUSH1 0x9 PUSH1 0x0 DUP3 DUP3 SLOAD PUSH2 0xE0B SWAP2 SWAP1 PUSH2 0x150F JUMP JUMPDEST SWAP3 POP POP DUP2 SWAP1 SSTORE POP PUSH1 0x1 SWAP5 POP POP POP POP POP SWAP2 SWAP1 POP JUMP JUMPDEST PUSH2 0xE27 PUSH2 0xEA2 JUMP JUMPDEST PUSH1 0x0 PUSH20 0xFFFFFFFFFFFFFFFFFFFFFFFFFFFFFFFFFFFFFFFF AND DUP2 PUSH20 0xFFFFFFFFFFFFFFFFFFFFFFFFFFFFFFFFFFFFFFFF AND SUB PUSH2 0xE96 JUMPI PUSH1 0x40 MLOAD PUSH32 0x8C379A000000000000000000000000000000000000000000000000000000000 DUP2 MSTORE PUSH1 0x4 ADD PUSH2 0xE8D SWAP1 PUSH2 0x1DB6 JUMP JUMPDEST PUSH1 0x40 MLOAD DUP1 SWAP2 SUB SWAP1 REVERT JUMPDEST PUSH2 0xE9F DUP2 PUSH2 0xF20 JUMP JUMPDEST POP JUMP JUMPDEST PUSH2 0xEAA PUSH2 0x10DC JUMP JUMPDEST PUSH20 0xFFFFFFFFFFFFFFFFFFFFFFFFFFFFFFFFFFFFFFFF AND PUSH2 0xEC8 PUSH2 0x90C JUMP JUMPDEST PUSH20 0xFFFFFFFFFFFFFFFFFFFFFFFFFFFFFFFFFFFFFFFF AND EQ PUSH2 0xF1E JUMPI PUSH1 0x40 MLOAD PUSH32 0x8C379A000000000000000000000000000000000000000000000000000000000 DUP2 MSTORE PUSH1 0x4 ADD PUSH2 0xF15 SWAP1 PUSH2 0x1E22 JUMP JUMPDEST PUSH1 0x40 MLOAD DUP1 SWAP2 SUB SWAP1 REVERT JUMPDEST JUMP JUMPDEST PUSH1 0x0 DUP1 PUSH1 0x1 SWAP1 SLOAD SWAP1 PUSH2 0x100 EXP SWAP1 DIV PUSH20 0xFFFFFFFFFFFFFFFFFFFFFFFFFFFFFFFFFFFFFFFF AND SWAP1 POP DUP2 PUSH1 0x0 PUSH1 0x1 PUSH2 0x100 EXP DUP2 SLOAD DUP2 PUSH20 0xFFFFFFFFFFFFFFFFFFFFFFFFFFFFFFFFFFFFFFFF MUL NOT AND SWAP1 DUP4 PUSH20 0xFFFFFFFFFFFFFFFFFFFFFFFFFFFFFFFFFFFFFFFF AND MUL OR SWAP1 SSTORE POP DUP2 PUSH20 0xFFFFFFFFFFFFFFFFFFFFFFFFFFFFFFFFFFFFFFFF AND DUP2 PUSH20 0xFFFFFFFFFFFFFFFFFFFFFFFFFFFFFFFFFFFFFFFF AND PUSH32 0x8BE0079C531659141344CD1FD0A4F28419497F9722A3DAAFE3B4186F6B6457E0 PUSH1 0x40 MLOAD PUSH1 0x40 MLOAD DUP1 SWAP2 SUB SWAP1 LOG3 POP POP JUMP JUMPDEST PUSH1 0x0 DUP1 DUP3 GT PUSH2 0x1029 JUMPI PUSH1 0x40 MLOAD PUSH32 0x8C379A000000000000000000000000000000000000000000000000000000000 DUP2 MSTORE PUSH1 0x4 ADD PUSH2 0x1020 SWAP1 PUSH2 0x1E8E JUMP JUMPDEST PUSH1 0x40 MLOAD DUP1 SWAP2 SUB SWAP1 REVERT JUMPDEST PUSH1 0x0 PUSH32 0x0 SWAP1 POP DUP1 PUSH20 0xFFFFFFFFFFFFFFFFFFFFFFFFFFFFFFFFFFFFFFFF AND PUSH4 0x42966C68 DUP5 PUSH1 0x40 MLOAD DUP3 PUSH4 0xFFFFFFFF AND PUSH1 0xE0 SHL DUP2 MSTORE PUSH1 0x4 ADD PUSH2 0x1087 SWAP2 SWAP1 PUSH2 0x1360 JUMP JUMPDEST PUSH1 0x0 PUSH1 0x40 MLOAD DUP1 DUP4 SUB DUP2 PUSH1 0x0 DUP8 DUP1 EXTCODESIZE ISZERO DUP1 ISZERO PUSH2 0x10A1 JUMPI PUSH1 0x0 DUP1 REVERT JUMPDEST POP GAS CALL ISZERO DUP1 ISZERO PUSH2 0x10B5 JUMPI RETURNDATASIZE PUSH1 0x0 DUP1 RETURNDATACOPY RETURNDATASIZE PUSH1 0x0 REVERT JUMPDEST POP POP POP POP DUP3 PUSH1 0x3 PUSH1 0x0 DUP3 DUP3 SLOAD PUSH2 0x10CB SWAP2 SWAP1 PUSH2 0x150F JUMP JUMPDEST SWAP3 POP POP DUP2 SWAP1 SSTORE POP PUSH1 0x1 SWAP2 POP POP SWAP2 SWAP1 POP JUMP JUMPDEST PUSH1 0x0 CALLER SWAP1 POP SWAP1 JUMP JUMPDEST PUSH1 0x0 DUP1 REVERT JUMPDEST PUSH1 0x0 PUSH20 0xFFFFFFFFFFFFFFFFFFFFFFFFFFFFFFFFFFFFFFFF DUP3 AND SWAP1 POP SWAP2 SWAP1 POP JUMP JUMPDEST PUSH1 0x0 PUSH2 0x1114 DUP3 PUSH2 0x10E9 JUMP JUMPDEST SWAP1 POP SWAP2 SWAP1 POP JUMP JUMPDEST PUSH2 0x1124 DUP2 PUSH2 0x1109 JUMP JUMPDEST DUP2 EQ PUSH2 0x112F JUMPI PUSH1 0x0 DUP1 REVERT JUMPDEST POP JUMP JUMPDEST PUSH1 0x0 DUP2 CALLDATALOAD SWAP1 POP PUSH2 0x1141 DUP2 PUSH2 0x111B JUMP JUMPDEST SWAP3 SWAP2 POP POP JUMP JUMPDEST PUSH1 0x0 PUSH1 0x20 DUP3 DUP5 SUB SLT ISZERO PUSH2 0x115D JUMPI PUSH2 0x115C PUSH2 0x10E4 JUMP JUMPDEST JUMPDEST PUSH1 0x0 PUSH2 0x116B DUP5 DUP3 DUP6 ADD PUSH2 0x1132 JUMP JUMPDEST SWAP2 POP POP SWAP3 SWAP2 POP POP JUMP JUMPDEST PUSH1 0x0 DUP2 SWAP1 POP SWAP2 SWAP1 POP JUMP JUMPDEST PUSH2 0x1187 DUP2 PUSH2 0x1174 JUMP JUMPDEST DUP2 EQ PUSH2 0x1192 JUMPI PUSH1 0x0 DUP1 REVERT JUMPDEST POP JUMP JUMPDEST PUSH1 0x0 DUP2 CALLDATALOAD SWAP1 POP PUSH2 0x11A4 DUP2 PUSH2 0x117E JUMP JUMPDEST SWAP3 SWAP2 POP POP JUMP JUMPDEST PUSH1 0x0 PUSH1 0x20 DUP3 DUP5 SUB SLT ISZERO PUSH2 0x11C0 JUMPI PUSH2 0x11BF PUSH2 0x10E4 JUMP JUMPDEST JUMPDEST PUSH1 0x0 PUSH2 0x11CE DUP5 DUP3 DUP6 ADD PUSH2 0x1195 JUMP JUMPDEST SWAP2 POP POP SWAP3 SWAP2 POP POP JUMP JUMPDEST PUSH1 0x0 DUP2 ISZERO ISZERO SWAP1 POP SWAP2 SWAP1 POP JUMP JUMPDEST PUSH2 0x11EC DUP2 PUSH2 0x11D7 JUMP JUMPDEST DUP3 MSTORE POP POP JUMP JUMPDEST PUSH1 0x0 PUSH1 0x20 DUP3 ADD SWAP1 POP PUSH2 0x1207 PUSH1 0x0 DUP4 ADD DUP5 PUSH2 0x11E3 JUMP JUMPDEST SWAP3 SWAP2 POP POP JUMP JUMPDEST PUSH2 0x1216 DUP2 PUSH2 0x1174 JUMP JUMPDEST DUP3 MSTORE POP POP JUMP JUMPDEST PUSH1 0x0 DUP2 MLOAD SWAP1 POP SWAP2 SWAP1 POP JUMP JUMPDEST PUSH1 0x0 DUP3 DUP3 MSTORE PUSH1 0x20 DUP3 ADD SWAP1 POP SWAP3 SWAP2 POP POP JUMP JUMPDEST PUSH1 0x0 JUMPDEST DUP4 DUP2 LT ISZERO PUSH2 0x1256 JUMPI DUP1 DUP3 ADD MLOAD DUP2 DUP5 ADD MSTORE PUSH1 0x20 DUP2 ADD SWAP1 POP PUSH2 0x123B JUMP JUMPDEST PUSH1 0x0 DUP5 DUP5 ADD MSTORE POP POP POP POP JUMP JUMPDEST PUSH1 0x0 PUSH1 0x1F NOT PUSH1 0x1F DUP4 ADD AND SWAP1 POP SWAP2 SWAP1 POP JUMP JUMPDEST PUSH1 0x0 PUSH2 0x127E DUP3 PUSH2 0x121C JUMP JUMPDEST PUSH2 0x1288 DUP2 DUP6 PUSH2 0x1227 JUMP JUMPDEST SWAP4 POP PUSH2 0x1298 DUP2 DUP6 PUSH1 0x20 DUP7 ADD PUSH2 0x1238 JUMP JUMPDEST PUSH2 0x12A1 DUP2 PUSH2 0x1262 JUMP JUMPDEST DUP5 ADD SWAP2 POP POP SWAP3 SWAP2 POP POP JUMP JUMPDEST PUSH1 0x0 PUSH1 0xA0 DUP3 ADD SWAP1 POP PUSH2 0x12C1 PUSH1 0x0 DUP4 ADD DUP9 PUSH2 0x120D JUMP JUMPDEST PUSH2 0x12CE PUSH1 0x20 DUP4 ADD DUP8 PUSH2 0x120D JUMP JUMPDEST DUP2 DUP2 SUB PUSH1 0x40 DUP4 ADD MSTORE PUSH2 0x12E0 DUP2 DUP7 PUSH2 0x1273 JUMP JUMPDEST SWAP1 POP PUSH2 0x12EF PUSH1 0x60 DUP4 ADD DUP6 PUSH2 0x120D JUMP JUMPDEST DUP2 DUP2 SUB PUSH1 0x80 DUP4 ADD MSTORE PUSH2 0x1301 DUP2 DUP5 PUSH2 0x1273 JUMP JUMPDEST SWAP1 POP SWAP7 SWAP6 POP POP POP POP POP POP JUMP JUMPDEST PUSH1 0x0 DUP1 PUSH1 0x0 PUSH1 0x60 DUP5 DUP7 SUB SLT ISZERO PUSH2 0x1326 JUMPI PUSH2 0x1325 PUSH2 0x10E4 JUMP JUMPDEST JUMPDEST PUSH1 0x0 PUSH2 0x1334 DUP7 DUP3 DUP8 ADD PUSH2 0x1132 JUMP JUMPDEST SWAP4 POP POP PUSH1 0x20 PUSH2 0x1345 DUP7 DUP3 DUP8 ADD PUSH2 0x1132 JUMP JUMPDEST SWAP3 POP POP PUSH1 0x40 PUSH2 0x1356 DUP7 DUP3 DUP8 ADD PUSH2 0x1195 JUMP JUMPDEST SWAP2 POP POP SWAP3 POP SWAP3 POP SWAP3 JUMP JUMPDEST PUSH1 0x0 PUSH1 0x20 DUP3 ADD SWAP1 POP PUSH2 0x1375 PUSH1 0x0 DUP4 ADD DUP5 PUSH2 0x120D JUMP JUMPDEST SWAP3 SWAP2 POP POP JUMP JUMPDEST PUSH1 0x0 DUP1 PUSH1 0x0 PUSH1 0x60 DUP5 DUP7 SUB SLT ISZERO PUSH2 0x1394 JUMPI PUSH2 0x1393 PUSH2 0x10E4 JUMP JUMPDEST JUMPDEST PUSH1 0x0 PUSH2 0x13A2 DUP7 DUP3 DUP8 ADD PUSH2 0x1195 JUMP JUMPDEST SWAP4 POP POP PUSH1 0x20 PUSH2 0x13B3 DUP7 DUP3 DUP8 ADD PUSH2 0x1195 JUMP JUMPDEST SWAP3 POP POP PUSH1 0x40 PUSH2 0x13C4 DUP7 DUP3 DUP8 ADD PUSH2 0x1195 JUMP JUMPDEST SWAP2 POP POP SWAP3 POP SWAP3 POP SWAP3 JUMP JUMPDEST PUSH2 0x13D7 DUP2 PUSH2 0x1109 JUMP JUMPDEST DUP3 MSTORE POP POP JUMP JUMPDEST PUSH1 0x0 PUSH1 0x20 DUP3 ADD SWAP1 POP PUSH2 0x13F2 PUSH1 0x0 DUP4 ADD DUP5 PUSH2 0x13CE JUMP JUMPDEST SWAP3 SWAP2 POP POP JUMP JUMPDEST PUSH1 0x0 PUSH1 0x20 DUP3 ADD SWAP1 POP DUP2 DUP2 SUB PUSH1 0x0 DUP4 ADD MSTORE PUSH2 0x1412 DUP2 DUP5 PUSH2 0x1273 JUMP JUMPDEST SWAP1 POP SWAP3 SWAP2 POP POP JUMP JUMPDEST PUSH32 0x4E487B7100000000000000000000000000000000000000000000000000000000 PUSH1 0x0 MSTORE PUSH1 0x11 PUSH1 0x4 MSTORE PUSH1 0x24 PUSH1 0x0 REVERT JUMPDEST PUSH1 0x0 PUSH2 0x1454 DUP3 PUSH2 0x1174 JUMP JUMPDEST SWAP2 POP PUSH2 0x145F DUP4 PUSH2 0x1174 JUMP JUMPDEST SWAP3 POP DUP3 DUP3 SUB SWAP1 POP DUP2 DUP2 GT ISZERO PUSH2 0x1477 JUMPI PUSH2 0x1476 PUSH2 0x141A JUMP JUMPDEST JUMPDEST SWAP3 SWAP2 POP POP JUMP JUMPDEST PUSH32 0x4E6F7420656E6F75676820706F696E74732E2054686520636F6E747261637420 PUSH1 0x0 DUP3 ADD MSTORE PUSH32 0x6D75737420626520636861726765642077697468206D6F7265205054524E0000 PUSH1 0x20 DUP3 ADD MSTORE POP JUMP JUMPDEST PUSH1 0x0 PUSH2 0x14D9 PUSH1 0x3E DUP4 PUSH2 0x1227 JUMP JUMPDEST SWAP2 POP PUSH2 0x14E4 DUP3 PUSH2 0x147D JUMP JUMPDEST PUSH1 0x40 DUP3 ADD SWAP1 POP SWAP2 SWAP1 POP JUMP JUMPDEST PUSH1 0x0 PUSH1 0x20 DUP3 ADD SWAP1 POP DUP2 DUP2 SUB PUSH1 0x0 DUP4 ADD MSTORE PUSH2 0x1508 DUP2 PUSH2 0x14CC JUMP JUMPDEST SWAP1 POP SWAP2 SWAP1 POP JUMP JUMPDEST PUSH1 0x0 PUSH2 0x151A DUP3 PUSH2 0x1174 JUMP JUMPDEST SWAP2 POP PUSH2 0x1525 DUP4 PUSH2 0x1174 JUMP JUMPDEST SWAP3 POP DUP3 DUP3 ADD SWAP1 POP DUP1 DUP3 GT ISZERO PUSH2 0x153D JUMPI PUSH2 0x153C PUSH2 0x141A JUMP JUMPDEST JUMPDEST SWAP3 SWAP2 POP POP JUMP JUMPDEST PUSH32 0x4E487B7100000000000000000000000000000000000000000000000000000000 PUSH1 0x0 MSTORE PUSH1 0x22 PUSH1 0x4 MSTORE PUSH1 0x24 PUSH1 0x0 REVERT JUMPDEST PUSH1 0x0 PUSH1 0x2 DUP3 DIV SWAP1 POP PUSH1 0x1 DUP3 AND DUP1 PUSH2 0x158A JUMPI PUSH1 0x7F DUP3 AND SWAP2 POP JUMPDEST PUSH1 0x20 DUP3 LT DUP2 SUB PUSH2 0x159D JUMPI PUSH2 0x159C PUSH2 0x1543 JUMP JUMPDEST JUMPDEST POP SWAP2 SWAP1 POP JUMP JUMPDEST PUSH32 0x4E6F7420656E6F7567682062616C616E63652100000000000000000000000000 PUSH1 0x0 DUP3 ADD MSTORE POP JUMP JUMPDEST PUSH1 0x0 PUSH2 0x15D9 PUSH1 0x13 DUP4 PUSH2 0x1227 JUMP JUMPDEST SWAP2 POP PUSH2 0x15E4 DUP3 PUSH2 0x15A3 JUMP JUMPDEST PUSH1 0x20 DUP3 ADD SWAP1 POP SWAP2 SWAP1 POP JUMP JUMPDEST PUSH1 0x0 PUSH1 0x20 DUP3 ADD SWAP1 POP DUP2 DUP2 SUB PUSH1 0x0 DUP4 ADD MSTORE PUSH2 0x1608 DUP2 PUSH2 0x15CC JUMP JUMPDEST SWAP1 POP SWAP2 SWAP1 POP JUMP JUMPDEST PUSH1 0x0 PUSH1 0x40 DUP3 ADD SWAP1 POP PUSH2 0x1624 PUSH1 0x0 DUP4 ADD DUP6 PUSH2 0x13CE JUMP JUMPDEST PUSH2 0x1631 PUSH1 0x20 DUP4 ADD DUP5 PUSH2 0x120D JUMP JUMPDEST SWAP4 SWAP3 POP POP POP JUMP JUMPDEST PUSH2 0x1641 DUP2 PUSH2 0x11D7 JUMP JUMPDEST DUP2 EQ PUSH2 0x164C JUMPI PUSH1 0x0 DUP1 REVERT JUMPDEST POP JUMP JUMPDEST PUSH1 0x0 DUP2 MLOAD SWAP1 POP PUSH2 0x165E DUP2 PUSH2 0x1638 JUMP JUMPDEST SWAP3 SWAP2 POP POP JUMP JUMPDEST PUSH1 0x0 PUSH1 0x20 DUP3 DUP5 SUB SLT ISZERO PUSH2 0x167A JUMPI PUSH2 0x1679 PUSH2 0x10E4 JUMP JUMPDEST JUMPDEST PUSH1 0x0 PUSH2 0x1688 DUP5 DUP3 DUP6 ADD PUSH2 0x164F JUMP JUMPDEST SWAP2 POP POP SWAP3 SWAP2 POP POP JUMP JUMPDEST PUSH1 0x0 DUP2 MLOAD SWAP1 POP PUSH2 0x16A0 DUP2 PUSH2 0x117E JUMP JUMPDEST SWAP3 SWAP2 POP POP JUMP JUMPDEST PUSH1 0x0 PUSH1 0x20 DUP3 DUP5 SUB SLT ISZERO PUSH2 0x16BC JUMPI PUSH2 0x16BB PUSH2 0x10E4 JUMP JUMPDEST JUMPDEST PUSH1 0x0 PUSH2 0x16CA DUP5 DUP3 DUP6 ADD PUSH2 0x1691 JUMP JUMPDEST SWAP2 POP POP SWAP3 SWAP2 POP POP JUMP JUMPDEST PUSH32 0x4E487B7100000000000000000000000000000000000000000000000000000000 PUSH1 0x0 MSTORE PUSH1 0x41 PUSH1 0x4 MSTORE PUSH1 0x24 PUSH1 0x0 REVERT JUMPDEST PUSH1 0x0 DUP2 SWAP1 POP DUP2 PUSH1 0x0 MSTORE PUSH1 0x20 PUSH1 0x0 KECCAK256 SWAP1 POP SWAP2 SWAP1 POP JUMP JUMPDEST PUSH1 0x0 PUSH1 0x20 PUSH1 0x1F DUP4 ADD DIV SWAP1 POP SWAP2 SWAP1 POP JUMP JUMPDEST PUSH1 0x0 DUP3 DUP3 SHL SWAP1 POP SWAP3 SWAP2 POP POP JUMP JUMPDEST PUSH1 0x0 PUSH1 0x8 DUP4 MUL PUSH2 0x1764 PUSH32 0xFFFFFFFFFFFFFFFFFFFFFFFFFFFFFFFFFFFFFFFFFFFFFFFFFFFFFFFFFFFFFFFF DUP3 PUSH2 0x1727 JUMP JUMPDEST PUSH2 0x176E DUP7 DUP4 PUSH2 0x1727 JUMP JUMPDEST SWAP6 POP DUP1 NOT DUP5 AND SWAP4 POP DUP1 DUP7 AND DUP5 OR SWAP3 POP POP POP SWAP4 SWAP3 POP POP POP JUMP JUMPDEST PUSH1 0x0 DUP2 SWAP1 POP SWAP2 SWAP1 POP JUMP JUMPDEST PUSH1 0x0 PUSH2 0x17AB PUSH2 0x17A6 PUSH2 0x17A1 DUP5 PUSH2 0x1174 JUMP JUMPDEST PUSH2 0x1786 JUMP JUMPDEST PUSH2 0x1174 JUMP JUMPDEST SWAP1 POP SWAP2 SWAP1 POP JUMP JUMPDEST PUSH1 0x0 DUP2 SWAP1 POP SWAP2 SWAP1 POP JUMP JUMPDEST PUSH2 0x17C5 DUP4 PUSH2 0x1790 JUMP JUMPDEST PUSH2 0x17D9 PUSH2 0x17D1 DUP3 PUSH2 0x17B2 JUMP JUMPDEST DUP5 DUP5 SLOAD PUSH2 0x1734 JUMP JUMPDEST DUP3 SSTORE POP POP POP POP JUMP JUMPDEST PUSH1 0x0 SWAP1 JUMP JUMPDEST PUSH2 0x17EE PUSH2 0x17E1 JUMP JUMPDEST PUSH2 0x17F9 DUP2 DUP5 DUP5 PUSH2 0x17BC JUMP JUMPDEST POP POP POP JUMP JUMPDEST JUMPDEST DUP2 DUP2 LT ISZERO PUSH2 0x181D JUMPI PUSH2 0x1812 PUSH1 0x0 DUP3 PUSH2 0x17E6 JUMP JUMPDEST PUSH1 0x1 DUP2 ADD SWAP1 POP PUSH2 0x17FF JUMP JUMPDEST POP POP JUMP JUMPDEST PUSH1 0x1F DUP3 GT ISZERO PUSH2 0x1862 JUMPI PUSH2 0x1833 DUP2 PUSH2 0x1702 JUMP JUMPDEST PUSH2 0x183C DUP5 PUSH2 0x1717 JUMP JUMPDEST DUP2 ADD PUSH1 0x20 DUP6 LT ISZERO PUSH2 0x184B JUMPI DUP2 SWAP1 POP JUMPDEST PUSH2 0x185F PUSH2 0x1857 DUP6 PUSH2 0x1717 JUMP JUMPDEST DUP4 ADD DUP3 PUSH2 0x17FE JUMP JUMPDEST POP POP JUMPDEST POP POP POP JUMP JUMPDEST PUSH1 0x0 DUP3 DUP3 SHR SWAP1 POP SWAP3 SWAP2 POP POP JUMP JUMPDEST PUSH1 0x0 PUSH2 0x1885 PUSH1 0x0 NOT DUP5 PUSH1 0x8 MUL PUSH2 0x1867 JUMP JUMPDEST NOT DUP1 DUP4 AND SWAP2 POP POP SWAP3 SWAP2 POP POP JUMP JUMPDEST PUSH1 0x0 PUSH2 0x189E DUP4 DUP4 PUSH2 0x1874 JUMP JUMPDEST SWAP2 POP DUP3 PUSH1 0x2 MUL DUP3 OR SWAP1 POP SWAP3 SWAP2 POP POP JUMP JUMPDEST PUSH2 0x18B7 DUP3 PUSH2 0x121C JUMP JUMPDEST PUSH8 0xFFFFFFFFFFFFFFFF DUP2 GT ISZERO PUSH2 0x18D0 JUMPI PUSH2 0x18CF PUSH2 0x16D3 JUMP JUMPDEST JUMPDEST PUSH2 0x18DA DUP3 SLOAD PUSH2 0x1572 JUMP JUMPDEST PUSH2 0x18E5 DUP3 DUP3 DUP6 PUSH2 0x1821 JUMP JUMPDEST PUSH1 0x0 PUSH1 0x20 SWAP1 POP PUSH1 0x1F DUP4 GT PUSH1 0x1 DUP2 EQ PUSH2 0x1918 JUMPI PUSH1 0x0 DUP5 ISZERO PUSH2 0x1906 JUMPI DUP3 DUP8 ADD MLOAD SWAP1 POP JUMPDEST PUSH2 0x1910 DUP6 DUP3 PUSH2 0x1892 JUMP JUMPDEST DUP7 SSTORE POP PUSH2 0x1978 JUMP JUMPDEST PUSH1 0x1F NOT DUP5 AND PUSH2 0x1926 DUP7 PUSH2 0x1702 JUMP JUMPDEST PUSH1 0x0 JUMPDEST DUP3 DUP2 LT ISZERO PUSH2 0x194E JUMPI DUP5 DUP10 ADD MLOAD DUP3 SSTORE PUSH1 0x1 DUP3 ADD SWAP2 POP PUSH1 0x20 DUP6 ADD SWAP5 POP PUSH1 0x20 DUP2 ADD SWAP1 POP PUSH2 0x1929 JUMP JUMPDEST DUP7 DUP4 LT ISZERO PUSH2 0x196B JUMPI DUP5 DUP10 ADD MLOAD PUSH2 0x1967 PUSH1 0x1F DUP10 AND DUP3 PUSH2 0x1874 JUMP JUMPDEST DUP4 SSTORE POP JUMPDEST PUSH1 0x1 PUSH1 0x2 DUP9 MUL ADD DUP9 SSTORE POP POP POP JUMPDEST POP POP POP POP POP POP JUMP JUMPDEST PUSH32 0x52617465206D7573742062652067726561746572207468616E207A65726F0000 PUSH1 0x0 DUP3 ADD MSTORE POP JUMP JUMPDEST PUSH1 0x0 PUSH2 0x19B6 PUSH1 0x1E DUP4 PUSH2 0x1227 JUMP JUMPDEST SWAP2 POP PUSH2 0x19C1 DUP3 PUSH2 0x1980 JUMP JUMPDEST PUSH1 0x20 DUP3 ADD SWAP1 POP SWAP2 SWAP1 POP JUMP JUMPDEST PUSH1 0x0 PUSH1 0x20 DUP3 ADD SWAP1 POP DUP2 DUP2 SUB PUSH1 0x0 DUP4 ADD MSTORE PUSH2 0x19E5 DUP2 PUSH2 0x19A9 JUMP JUMPDEST SWAP1 POP SWAP2 SWAP1 POP JUMP JUMPDEST PUSH1 0x0 DUP2 PUSH1 0x1 SHR SWAP1 POP SWAP2 SWAP1 POP JUMP JUMPDEST PUSH1 0x0 DUP1 DUP3 SWAP2 POP DUP4 SWAP1 POP JUMPDEST PUSH1 0x1 DUP6 GT ISZERO PUSH2 0x1A43 JUMPI DUP1 DUP7 DIV DUP2 GT ISZERO PUSH2 0x1A1F JUMPI PUSH2 0x1A1E PUSH2 0x141A JUMP JUMPDEST JUMPDEST PUSH1 0x1 DUP6 AND ISZERO PUSH2 0x1A2E JUMPI DUP1 DUP3 MUL SWAP2 POP JUMPDEST DUP1 DUP2 MUL SWAP1 POP PUSH2 0x1A3C DUP6 PUSH2 0x19EC JUMP JUMPDEST SWAP5 POP PUSH2 0x1A03 JUMP JUMPDEST SWAP5 POP SWAP5 SWAP3 POP POP POP JUMP JUMPDEST PUSH1 0x0 DUP3 PUSH2 0x1A5C JUMPI PUSH1 0x1 SWAP1 POP PUSH2 0x1B18 JUMP JUMPDEST DUP2 PUSH2 0x1A6A JUMPI PUSH1 0x0 SWAP1 POP PUSH2 0x1B18 JUMP JUMPDEST DUP2 PUSH1 0x1 DUP2 EQ PUSH2 0x1A80 JUMPI PUSH1 0x2 DUP2 EQ PUSH2 0x1A8A JUMPI PUSH2 0x1AB9 JUMP JUMPDEST PUSH1 0x1 SWAP2 POP POP PUSH2 0x1B18 JUMP JUMPDEST PUSH1 0xFF DUP5 GT ISZERO PUSH2 0x1A9C JUMPI PUSH2 0x1A9B PUSH2 0x141A JUMP JUMPDEST JUMPDEST DUP4 PUSH1 0x2 EXP SWAP2 POP DUP5 DUP3 GT ISZERO PUSH2 0x1AB3 JUMPI PUSH2 0x1AB2 PUSH2 0x141A JUMP JUMPDEST JUMPDEST POP PUSH2 0x1B18 JUMP JUMPDEST POP PUSH1 0x20 DUP4 LT PUSH2 0x133 DUP4 LT AND PUSH1 0x4E DUP5 LT PUSH1 0xB DUP5 LT AND OR ISZERO PUSH2 0x1AEE JUMPI DUP3 DUP3 EXP SWAP1 POP DUP4 DUP2 GT ISZERO PUSH2 0x1AE9 JUMPI PUSH2 0x1AE8 PUSH2 0x141A JUMP JUMPDEST JUMPDEST PUSH2 0x1B18 JUMP JUMPDEST PUSH2 0x1AFB DUP5 DUP5 DUP5 PUSH1 0x1 PUSH2 0x19F9 JUMP JUMPDEST SWAP3 POP SWAP1 POP DUP2 DUP5 DIV DUP2 GT ISZERO PUSH2 0x1B12 JUMPI PUSH2 0x1B11 PUSH2 0x141A JUMP JUMPDEST JUMPDEST DUP2 DUP2 MUL SWAP1 POP JUMPDEST SWAP4 SWAP3 POP POP POP JUMP JUMPDEST PUSH1 0x0 PUSH2 0x1B2A DUP3 PUSH2 0x1174 JUMP JUMPDEST SWAP2 POP PUSH2 0x1B35 DUP4 PUSH2 0x1174 JUMP JUMPDEST SWAP3 POP PUSH2 0x1B62 PUSH32 0xFFFFFFFFFFFFFFFFFFFFFFFFFFFFFFFFFFFFFFFFFFFFFFFFFFFFFFFFFFFFFFFF DUP5 DUP5 PUSH2 0x1A4C JUMP JUMPDEST SWAP1 POP SWAP3 SWAP2 POP POP JUMP JUMPDEST PUSH1 0x0 PUSH2 0x1B75 DUP3 PUSH2 0x1174 JUMP JUMPDEST SWAP2 POP PUSH2 0x1B80 DUP4 PUSH2 0x1174 JUMP JUMPDEST SWAP3 POP DUP3 DUP3 MUL PUSH2 0x1B8E DUP2 PUSH2 0x1174 JUMP JUMPDEST SWAP2 POP DUP3 DUP3 DIV DUP5 EQ DUP4 ISZERO OR PUSH2 0x1BA5 JUMPI PUSH2 0x1BA4 PUSH2 0x141A JUMP JUMPDEST JUMPDEST POP SWAP3 SWAP2 POP POP JUMP JUMPDEST PUSH32 0x4E487B7100000000000000000000000000000000000000000000000000000000 PUSH1 0x0 MSTORE PUSH1 0x12 PUSH1 0x4 MSTORE PUSH1 0x24 PUSH1 0x0 REVERT JUMPDEST PUSH1 0x0 PUSH2 0x1BE6 DUP3 PUSH2 0x1174 JUMP JUMPDEST SWAP2 POP PUSH2 0x1BF1 DUP4 PUSH2 0x1174 JUMP JUMPDEST SWAP3 POP DUP3 PUSH2 0x1C01 JUMPI PUSH2 0x1C00 PUSH2 0x1BAC JUMP JUMPDEST JUMPDEST DUP3 DUP3 DIV SWAP1 POP SWAP3 SWAP2 POP POP JUMP JUMPDEST PUSH32 0x53656E646572206E6F7420617574686F72697A65640000000000000000000000 PUSH1 0x0 DUP3 ADD MSTORE POP JUMP JUMPDEST PUSH1 0x0 PUSH2 0x1C42 PUSH1 0x15 DUP4 PUSH2 0x1227 JUMP JUMPDEST SWAP2 POP PUSH2 0x1C4D DUP3 PUSH2 0x1C0C JUMP JUMPDEST PUSH1 0x20 DUP3 ADD SWAP1 POP SWAP2 SWAP1 POP JUMP JUMPDEST PUSH1 0x0 PUSH1 0x20 DUP3 ADD SWAP1 POP DUP2 DUP2 SUB PUSH1 0x0 DUP4 ADD MSTORE PUSH2 0x1C71 DUP2 PUSH2 0x1C35 JUMP JUMPDEST SWAP1 POP SWAP2 SWAP1 POP JUMP JUMPDEST PUSH1 0x0 PUSH1 0x40 DUP3 ADD SWAP1 POP PUSH2 0x1C8D PUSH1 0x0 DUP4 ADD DUP6 PUSH2 0x13CE JUMP JUMPDEST PUSH2 0x1C9A PUSH1 0x20 DUP4 ADD DUP5 PUSH2 0x13CE JUMP JUMPDEST SWAP4 SWAP3 POP POP POP JUMP JUMPDEST PUSH32 0x436865636B2074686520746F6B656E20616C6C6F77616E636500000000000000 PUSH1 0x0 DUP3 ADD MSTORE POP JUMP JUMPDEST PUSH1 0x0 PUSH2 0x1CD7 PUSH1 0x19 DUP4 PUSH2 0x1227 JUMP JUMPDEST SWAP2 POP PUSH2 0x1CE2 DUP3 PUSH2 0x1CA1 JUMP JUMPDEST PUSH1 0x20 DUP3 ADD SWAP1 POP SWAP2 SWAP1 POP JUMP JUMPDEST PUSH1 0x0 PUSH1 0x20 DUP3 ADD SWAP1 POP DUP2 DUP2 SUB PUSH1 0x0 DUP4 ADD MSTORE PUSH2 0x1D06 DUP2 PUSH2 0x1CCA JUMP JUMPDEST SWAP1 POP SWAP2 SWAP1 POP JUMP JUMPDEST PUSH1 0x0 PUSH1 0x60 DUP3 ADD SWAP1 POP PUSH2 0x1D22 PUSH1 0x0 DUP4 ADD DUP7 PUSH2 0x13CE JUMP JUMPDEST PUSH2 0x1D2F PUSH1 0x20 DUP4 ADD DUP6 PUSH2 0x13CE JUMP JUMPDEST PUSH2 0x1D3C PUSH1 0x40 DUP4 ADD DUP5 PUSH2 0x120D JUMP JUMPDEST SWAP5 SWAP4 POP POP POP POP JUMP JUMPDEST PUSH32 0x4F776E61626C653A206E6577206F776E657220697320746865207A65726F2061 PUSH1 0x0 DUP3 ADD MSTORE PUSH32 0x6464726573730000000000000000000000000000000000000000000000000000 PUSH1 0x20 DUP3 ADD MSTORE POP JUMP JUMPDEST PUSH1 0x0 PUSH2 0x1DA0 PUSH1 0x26 DUP4 PUSH2 0x1227 JUMP JUMPDEST SWAP2 POP PUSH2 0x1DAB DUP3 PUSH2 0x1D44 JUMP JUMPDEST PUSH1 0x40 DUP3 ADD SWAP1 POP SWAP2 SWAP1 POP JUMP JUMPDEST PUSH1 0x0 PUSH1 0x20 DUP3 ADD SWAP1 POP DUP2 DUP2 SUB PUSH1 0x0 DUP4 ADD MSTORE PUSH2 0x1DCF DUP2 PUSH2 0x1D93 JUMP JUMPDEST SWAP1 POP SWAP2 SWAP1 POP JUMP JUMPDEST PUSH32 0x4F776E61626C653A2063616C6C6572206973206E6F7420746865206F776E6572 PUSH1 0x0 DUP3 ADD MSTORE POP JUMP JUMPDEST PUSH1 0x0 PUSH2 0x1E0C PUSH1 0x20 DUP4 PUSH2 0x1227 JUMP JUMPDEST SWAP2 POP PUSH2 0x1E17 DUP3 PUSH2 0x1DD6 JUMP JUMPDEST PUSH1 0x20 DUP3 ADD SWAP1 POP SWAP2 SWAP1 POP JUMP JUMPDEST PUSH1 0x0 PUSH1 0x20 DUP3 ADD SWAP1 POP DUP2 DUP2 SUB PUSH1 0x0 DUP4 ADD MSTORE PUSH2 0x1E3B DUP2 PUSH2 0x1DFF JUMP JUMPDEST SWAP1 POP SWAP2 SWAP1 POP JUMP JUMPDEST PUSH32 0x4E6F20746F6B656E7320746F206265206275726E656421000000000000000000 PUSH1 0x0 DUP3 ADD MSTORE POP JUMP JUMPDEST PUSH1 0x0 PUSH2 0x1E78 PUSH1 0x17 DUP4 PUSH2 0x1227 JUMP JUMPDEST SWAP2 POP PUSH2 0x1E83 DUP3 PUSH2 0x1E42 JUMP JUMPDEST PUSH1 0x20 DUP3 ADD SWAP1 POP SWAP2 SWAP1 POP JUMP JUMPDEST PUSH1 0x0 PUSH1 0x20 DUP3 ADD SWAP1 POP DUP2 DUP2 SUB PUSH1 0x0 DUP4 ADD MSTORE PUSH2 0x1EA7 DUP2 PUSH2 0x1E6B JUMP JUMPDEST SWAP1 POP SWAP2 SWAP1 POP JUMP INVALID LOG2 PUSH5 0x6970667358 0x22 SLT KECCAK256 PUSH10 0xA7F303414FC25EB5ED9B JUMP DUP14 PUSH20 0x96DBB863CFA8BB79CDDDA6BE4CE6115D76EF6473 PUSH16 0x6C634300081700330000000000000000 "
				},
				"gasEstimates": {
					"creation": {
						"codeDepositCost": "1581600",
						"executionCost": "infinite",
						"totalCost": "infinite"
					},
					"external": {
						"addAgregatorPriceFeed(address)": "27060",
						"addPoolRateFeed(address)": "27125",
						"availableToWithdraw()": "2473",
						"balanceOf()": "infinite",
						"balanceOfToken(address)": "infinite",
						"burned()": "2518",
						"calculateAmount(uint256,uint256,uint256)": "infinite",
						"calculatePoints(uint256,uint256,uint256)": "infinite",
						"changeRateFeed()": "29052",
						"chargeContract(uint256)": "infinite",
						"currentRateFeed()": "infinite",
						"dailyReward()": "infinite",
						"daily_withdraw()": "2496",
						"getRate()": "infinite",
						"owner()": "2595",
						"paused()": "2547",
						"renounceOwnership()": "30571",
						"setRate()": "infinite",
						"transferOfToken(address,address,uint256)": "infinite",
						"transferOwnership(address)": "31026",
						"withdraw(uint256)": "infinite"
					},
					"internal": {
						"burnIncomingTokens(uint256)": "infinite"
					}
				},
				"methodIdentifiers": {
					"addAgregatorPriceFeed(address)": "1d9abd7f",
					"addPoolRateFeed(address)": "c794363e",
					"availableToWithdraw()": "e322ad2b",
					"balanceOf()": "722713f7",
					"balanceOfToken(address)": "b99152d0",
					"burned()": "73f42561",
					"calculateAmount(uint256,uint256,uint256)": "7754723e",
					"calculatePoints(uint256,uint256,uint256)": "e055aeeb",
					"changeRateFeed()": "e8088766",
					"chargeContract(uint256)": "ed969c84",
					"currentRateFeed()": "e6367ebe",
					"dailyReward()": "c964ad45",
					"daily_withdraw()": "c1f74cc8",
					"getRate()": "679aefce",
					"owner()": "8da5cb5b",
					"paused()": "5c975abb",
					"renounceOwnership()": "715018a6",
					"setRate()": "723e27ff",
					"transferOfToken(address,address,uint256)": "6a9d43dd",
					"transferOwnership(address)": "f2fde38b",
					"withdraw(uint256)": "2e1a7d4d"
				}
			},
			"storageLayout": {
				"storage": [
					{
						"astId": 130,
						"contract": "ptrn_eco_system_dev_contracts/fakePtrnEcosystemParticipationSmartContract.sol:PtrnEcoSystemParticipation",
						"label": "_paused",
						"offset": 0,
						"slot": "0",
						"type": "t_bool"
					},
					{
						"astId": 7,
						"contract": "ptrn_eco_system_dev_contracts/fakePtrnEcosystemParticipationSmartContract.sol:PtrnEcoSystemParticipation",
						"label": "_owner",
						"offset": 1,
						"slot": "0",
						"type": "t_address"
					},
					{
						"astId": 366,
						"contract": "ptrn_eco_system_dev_contracts/fakePtrnEcosystemParticipationSmartContract.sol:PtrnEcoSystemParticipation",
						"label": "poolRateFeed",
						"offset": 21,
						"slot": "0",
						"type": "t_bool"
					},
					{
						"astId": 369,
						"contract": "ptrn_eco_system_dev_contracts/fakePtrnEcosystemParticipationSmartContract.sol:PtrnEcoSystemParticipation",
						"label": "agregatorConsumer",
						"offset": 0,
						"slot": "1",
						"type": "t_contract(AgregatorConsumerInterface)337"
					},
					{
						"astId": 372,
						"contract": "ptrn_eco_system_dev_contracts/fakePtrnEcosystemParticipationSmartContract.sol:PtrnEcoSystemParticipation",
						"label": "poolConsumer",
						"offset": 0,
						"slot": "2",
						"type": "t_contract(PoolConsumerInterface)349"
					},
					{
						"astId": 375,
						"contract": "ptrn_eco_system_dev_contracts/fakePtrnEcosystemParticipationSmartContract.sol:PtrnEcoSystemParticipation",
						"label": "burned",
						"offset": 0,
						"slot": "3",
						"type": "t_uint256"
					},
					{
						"astId": 389,
						"contract": "ptrn_eco_system_dev_contracts/fakePtrnEcosystemParticipationSmartContract.sol:PtrnEcoSystemParticipation",
						"label": "rateData",
						"offset": 0,
						"slot": "4",
						"type": "t_struct(RateData)386_storage"
					},
					{
						"astId": 392,
						"contract": "ptrn_eco_system_dev_contracts/fakePtrnEcosystemParticipationSmartContract.sol:PtrnEcoSystemParticipation",
						"label": "availableToWithdraw",
						"offset": 0,
						"slot": "9",
						"type": "t_uint256"
					},
					{
						"astId": 395,
						"contract": "ptrn_eco_system_dev_contracts/fakePtrnEcosystemParticipationSmartContract.sol:PtrnEcoSystemParticipation",
						"label": "daily_withdraw",
						"offset": 0,
						"slot": "10",
						"type": "t_uint256"
					}
				],
				"types": {
					"t_address": {
						"encoding": "inplace",
						"label": "address",
						"numberOfBytes": "20"
					},
					"t_bool": {
						"encoding": "inplace",
						"label": "bool",
						"numberOfBytes": "1"
					},
					"t_contract(AgregatorConsumerInterface)337": {
						"encoding": "inplace",
						"label": "contract AgregatorConsumerInterface",
						"numberOfBytes": "20"
					},
					"t_contract(PoolConsumerInterface)349": {
						"encoding": "inplace",
						"label": "contract PoolConsumerInterface",
						"numberOfBytes": "20"
					},
					"t_string_storage": {
						"encoding": "bytes",
						"label": "string",
						"numberOfBytes": "32"
					},
					"t_struct(RateData)386_storage": {
						"encoding": "inplace",
						"label": "struct PtrnEcoSystemParticipation.RateData",
						"members": [
							{
								"astId": 377,
								"contract": "ptrn_eco_system_dev_contracts/fakePtrnEcosystemParticipationSmartContract.sol:PtrnEcoSystemParticipation",
								"label": "tokenRate",
								"offset": 0,
								"slot": "0",
								"type": "t_uint256"
							},
							{
								"astId": 379,
								"contract": "ptrn_eco_system_dev_contracts/fakePtrnEcosystemParticipationSmartContract.sol:PtrnEcoSystemParticipation",
								"label": "decimals",
								"offset": 0,
								"slot": "1",
								"type": "t_uint256"
							},
							{
								"astId": 381,
								"contract": "ptrn_eco_system_dev_contracts/fakePtrnEcosystemParticipationSmartContract.sol:PtrnEcoSystemParticipation",
								"label": "tokenRateString",
								"offset": 0,
								"slot": "2",
								"type": "t_string_storage"
							},
							{
								"astId": 383,
								"contract": "ptrn_eco_system_dev_contracts/fakePtrnEcosystemParticipationSmartContract.sol:PtrnEcoSystemParticipation",
								"label": "date",
								"offset": 0,
								"slot": "3",
								"type": "t_uint256"
							},
							{
								"astId": 385,
								"contract": "ptrn_eco_system_dev_contracts/fakePtrnEcosystemParticipationSmartContract.sol:PtrnEcoSystemParticipation",
								"label": "feed",
								"offset": 0,
								"slot": "4",
								"type": "t_string_storage"
							}
						],
						"numberOfBytes": "160"
					},
					"t_uint256": {
						"encoding": "inplace",
						"label": "uint256",
						"numberOfBytes": "32"
					}
				}
			},
			"userdoc": {
				"kind": "user",
				"methods": {},
				"version": 1
			}
		}
	}
}