{
	"ptrn_eco_system_dev_contracts/PtrnEcoSystemParticipationDev.sol": {
		"PtrnEcoSystemParticipation": {
			"abi": [
				{
					"inputs": [
						{
							"internalType": "address",
							"name": "_acceptedTokens",
							"type": "address"
						},
						{
							"internalType": "address",
							"name": "_activator",
							"type": "address"
						}
					],
					"stateMutability": "nonpayable",
					"type": "constructor"
				},
				{
					"anonymous": false,
					"inputs": [
						{
							"indexed": true,
							"internalType": "address",
							"name": "activator",
							"type": "address"
						},
						{
							"indexed": false,
							"internalType": "uint256",
							"name": "timestamp",
							"type": "uint256"
						}
					],
					"name": "Activate",
					"type": "event"
				},
				{
					"anonymous": false,
					"inputs": [
						{
							"indexed": false,
							"internalType": "uint256",
							"name": "chargeRate",
							"type": "uint256"
						},
						{
							"indexed": false,
							"internalType": "uint256",
							"name": "chargeRatedecimals",
							"type": "uint256"
						},
						{
							"indexed": false,
							"internalType": "uint256",
							"name": "chargeRateDate",
							"type": "uint256"
						},
						{
							"indexed": false,
							"internalType": "string",
							"name": "chargeRateString",
							"type": "string"
						},
						{
							"indexed": true,
							"internalType": "uint256",
							"name": "chargedPoints",
							"type": "uint256"
						},
						{
							"indexed": true,
							"internalType": "uint256",
							"name": "burnedTokens",
							"type": "uint256"
						},
						{
							"indexed": true,
							"internalType": "uint256",
							"name": "chargeDate",
							"type": "uint256"
						}
					],
					"name": "ChargeContract",
					"type": "event"
				},
				{
					"anonymous": false,
					"inputs": [
						{
							"indexed": true,
							"internalType": "address",
							"name": "deactivator",
							"type": "address"
						},
						{
							"indexed": false,
							"internalType": "uint256",
							"name": "timestamp",
							"type": "uint256"
						}
					],
					"name": "Deactivate",
					"type": "event"
				},
				{
					"anonymous": false,
					"inputs": [
						{
							"indexed": true,
							"internalType": "address",
							"name": "previousOwner",
							"type": "address"
						},
						{
							"indexed": true,
							"internalType": "address",
							"name": "newOwner",
							"type": "address"
						}
					],
					"name": "OwnershipTransferred",
					"type": "event"
				},
				{
					"anonymous": false,
					"inputs": [
						{
							"indexed": false,
							"internalType": "address",
							"name": "account",
							"type": "address"
						}
					],
					"name": "Paused",
					"type": "event"
				},
				{
					"anonymous": false,
					"inputs": [
						{
							"indexed": true,
							"internalType": "uint256",
							"name": "timestamp",
							"type": "uint256"
						},
						{
							"indexed": false,
							"internalType": "uint256",
							"name": "value",
							"type": "uint256"
						}
					],
					"name": "TotalDailyWithdraws",
					"type": "event"
				},
				{
					"anonymous": false,
					"inputs": [
						{
							"indexed": false,
							"internalType": "address",
							"name": "account",
							"type": "address"
						}
					],
					"name": "Unpaused",
					"type": "event"
				},
				{
					"anonymous": false,
					"inputs": [
						{
							"indexed": true,
							"internalType": "uint256",
							"name": "timestamp",
							"type": "uint256"
						},
						{
							"indexed": false,
							"internalType": "uint256",
							"name": "value",
							"type": "uint256"
						},
						{
							"indexed": true,
							"internalType": "address",
							"name": "wallet",
							"type": "address"
						}
					],
					"name": "Withdraw",
					"type": "event"
				},
				{
					"inputs": [],
					"name": "activate",
					"outputs": [],
					"stateMutability": "nonpayable",
					"type": "function"
				},
				{
					"inputs": [
						{
							"internalType": "address",
							"name": "_ConsumerInterfaceAddress",
							"type": "address"
						}
					],
					"name": "addNewAggregatorPriceFeed",
					"outputs": [],
					"stateMutability": "nonpayable",
					"type": "function"
				},
				{
					"inputs": [
						{
							"internalType": "address",
							"name": "_ConsumerInterfaceAddress",
							"type": "address"
						}
					],
					"name": "addNewPoolRateFeed",
					"outputs": [],
					"stateMutability": "nonpayable",
					"type": "function"
				},
				{
					"inputs": [],
					"name": "balanceOf",
					"outputs": [
						{
							"internalType": "uint256",
							"name": "",
							"type": "uint256"
						}
					],
					"stateMutability": "view",
					"type": "function"
				},
				{
					"inputs": [
						{
							"internalType": "address",
							"name": "tokenAddress",
							"type": "address"
						}
					],
					"name": "balanceOfToken",
					"outputs": [
						{
							"internalType": "uint256",
							"name": "",
							"type": "uint256"
						}
					],
					"stateMutability": "view",
					"type": "function"
				},
				{
					"inputs": [
						{
							"internalType": "uint256",
							"name": "points",
							"type": "uint256"
						},
						{
							"internalType": "uint256",
							"name": "rate",
							"type": "uint256"
						},
						{
							"internalType": "uint256",
							"name": "_decimals",
							"type": "uint256"
						}
					],
					"name": "calculateAmount",
					"outputs": [
						{
							"internalType": "uint256",
							"name": "",
							"type": "uint256"
						}
					],
					"stateMutability": "view",
					"type": "function"
				},
				{
					"inputs": [
						{
							"internalType": "address",
							"name": "newAcceptedSender",
							"type": "address"
						}
					],
					"name": "changeAcceptedSenderAddress",
					"outputs": [],
					"stateMutability": "nonpayable",
					"type": "function"
				},
				{
					"inputs": [],
					"name": "changeRateFeed",
					"outputs": [],
					"stateMutability": "nonpayable",
					"type": "function"
				},
				{
					"inputs": [
						{
							"internalType": "uint256",
							"name": "amount",
							"type": "uint256"
						}
					],
					"name": "chargeContract",
					"outputs": [
						{
							"internalType": "bool",
							"name": "",
							"type": "bool"
						}
					],
					"stateMutability": "nonpayable",
					"type": "function"
				},
				{
					"inputs": [],
					"name": "currentRateFeed",
					"outputs": [
						{
							"internalType": "string",
							"name": "",
							"type": "string"
						}
					],
					"stateMutability": "view",
					"type": "function"
				},
				{
					"inputs": [],
					"name": "deactivate",
					"outputs": [],
					"stateMutability": "nonpayable",
					"type": "function"
				},
				{
					"inputs": [],
					"name": "getAcceptedSenderAddress",
					"outputs": [
						{
							"internalType": "address",
							"name": "",
							"type": "address"
						}
					],
					"stateMutability": "view",
					"type": "function"
				},
				{
					"inputs": [],
					"name": "getCurrentPointsBalance",
					"outputs": [
						{
							"internalType": "uint256",
							"name": "",
							"type": "uint256"
						}
					],
					"stateMutability": "view",
					"type": "function"
				},
				{
					"inputs": [],
					"name": "getDailyWithdraw",
					"outputs": [
						{
							"internalType": "uint256",
							"name": "",
							"type": "uint256"
						}
					],
					"stateMutability": "view",
					"type": "function"
				},
				{
					"inputs": [],
					"name": "getInitialActivationAddress",
					"outputs": [
						{
							"internalType": "address",
							"name": "",
							"type": "address"
						}
					],
					"stateMutability": "view",
					"type": "function"
				},
				{
					"inputs": [],
					"name": "getTokenInfo",
					"outputs": [
						{
							"internalType": "address",
							"name": "",
							"type": "address"
						},
						{
							"internalType": "string",
							"name": "",
							"type": "string"
						}
					],
					"stateMutability": "view",
					"type": "function"
				},
				{
					"inputs": [],
					"name": "getTotalBurnedTokens",
					"outputs": [
						{
							"internalType": "uint256",
							"name": "",
							"type": "uint256"
						}
					],
					"stateMutability": "view",
					"type": "function"
				},
				{
					"inputs": [],
					"name": "getTotalPointsGenerated",
					"outputs": [
						{
							"internalType": "uint256",
							"name": "",
							"type": "uint256"
						}
					],
					"stateMutability": "view",
					"type": "function"
				},
				{
					"inputs": [],
					"name": "initiateBulkMint",
					"outputs": [],
					"stateMutability": "nonpayable",
					"type": "function"
				},
				{
					"inputs": [],
					"name": "owner",
					"outputs": [
						{
							"internalType": "address",
							"name": "",
							"type": "address"
						}
					],
					"stateMutability": "view",
					"type": "function"
				},
				{
					"inputs": [],
					"name": "paused",
					"outputs": [
						{
							"internalType": "bool",
							"name": "",
							"type": "bool"
						}
					],
					"stateMutability": "view",
					"type": "function"
				},
				{
					"inputs": [],
					"name": "renounceOwnership",
					"outputs": [],
					"stateMutability": "nonpayable",
					"type": "function"
				},
				{
					"inputs": [],
					"name": "resume",
					"outputs": [],
					"stateMutability": "nonpayable",
					"type": "function"
				},
				{
					"inputs": [],
					"name": "stop",
					"outputs": [],
					"stateMutability": "nonpayable",
					"type": "function"
				},
				{
					"inputs": [
						{
							"internalType": "address",
							"name": "tokenAddress",
							"type": "address"
						},
						{
							"internalType": "address",
							"name": "receiver",
							"type": "address"
						},
						{
							"internalType": "uint256",
							"name": "amount",
							"type": "uint256"
						}
					],
					"name": "transferOfToken",
					"outputs": [
						{
							"internalType": "bool",
							"name": "",
							"type": "bool"
						}
					],
					"stateMutability": "nonpayable",
					"type": "function"
				},
				{
					"inputs": [
						{
							"internalType": "address",
							"name": "newOwner",
							"type": "address"
						}
					],
					"name": "transferOwnership",
					"outputs": [],
					"stateMutability": "nonpayable",
					"type": "function"
				},
				{
					"inputs": [
						{
							"internalType": "uint256",
							"name": "value",
							"type": "uint256"
						},
						{
							"internalType": "address",
							"name": "wallet",
							"type": "address"
						}
					],
					"name": "withdraw",
					"outputs": [],
					"stateMutability": "nonpayable",
					"type": "function"
				}
			],
			"devdoc": {
				"events": {
					"Paused(address)": {
						"details": "Emitted when the pause is triggered by `account`."
					},
					"Unpaused(address)": {
						"details": "Emitted when the pause is lifted by `account`."
					}
				},
				"kind": "dev",
				"methods": {
					"owner()": {
						"details": "Returns the address of the current owner."
					},
					"paused()": {
						"details": "Returns true if the contract is paused, and false otherwise."
					},
					"renounceOwnership()": {
						"details": "Leaves the contract without owner. It will not be possible to call `onlyOwner` functions anymore. Can only be called by the current owner. NOTE: Renouncing ownership will leave the contract without an owner, thereby removing any functionality that is only available to the owner."
					},
					"transferOwnership(address)": {
						"details": "Transfers ownership of the contract to a new account (`newOwner`). Can only be called by the current owner."
					}
				},
				"version": 1
			},
			"evm": {
				"assembly": "    /* \"ptrn_eco_system_dev_contracts/PtrnEcoSystemParticipationDev.sol\":814:10200  contract PtrnEcoSystemParticipation is Pausable, Ownable {... */\n  mstore(0x40, 0xc0)\n    /* \"ptrn_eco_system_dev_contracts/PtrnEcoSystemParticipationDev.sol\":982:986  true */\n  0x01\n    /* \"ptrn_eco_system_dev_contracts/PtrnEcoSystemParticipationDev.sol\":962:986  bool poolRateFeed = true */\n  dup1\n  exp(0x0100, 0x14)\n  dup2\n  sload\n  dup2\n  0xff\n  mul\n  not\n  and\n  swap1\n  dup4\n  iszero\n  iszero\n  mul\n  or\n  swap1\n  sstore\n  pop\n    /* \"ptrn_eco_system_dev_contracts/PtrnEcoSystemParticipationDev.sol\":1022:1023  0 */\n  0x00\n    /* \"ptrn_eco_system_dev_contracts/PtrnEcoSystemParticipationDev.sol\":992:1023  uint256 private totalBurned = 0 */\n  0x02\n  sstore\n    /* \"ptrn_eco_system_dev_contracts/PtrnEcoSystemParticipationDev.sol\":1062:1063  0 */\n  0x00\n    /* \"ptrn_eco_system_dev_contracts/PtrnEcoSystemParticipationDev.sol\":1029:1063  uint256 private totalConverted = 0 */\n  0x03\n  sstore\n    /* \"ptrn_eco_system_dev_contracts/PtrnEcoSystemParticipationDev.sol\":1107:1108  0 */\n  0x00\n    /* \"ptrn_eco_system_dev_contracts/PtrnEcoSystemParticipationDev.sol\":1069:1108  uint256 private availableToWithdraw = 0 */\n  0x04\n  sstore\n    /* \"ptrn_eco_system_dev_contracts/PtrnEcoSystemParticipationDev.sol\":1146:1147  0 */\n  0x00\n    /* \"ptrn_eco_system_dev_contracts/PtrnEcoSystemParticipationDev.sol\":1114:1147  uint256 private dailyWithdraw = 0 */\n  0x05\n  sstore\n    /* \"ptrn_eco_system_dev_contracts/PtrnEcoSystemParticipationDev.sol\":2373:2556  constructor(address _acceptedTokens, address _activator) {... */\n  callvalue\n  dup1\n  iszero\n  tag_1\n  jumpi\n  0x00\n  dup1\n  revert\ntag_1:\n  pop\n  mload(0x40)\n  sub(codesize, bytecodeSize)\n  dup1\n  bytecodeSize\n  dup4\n  codecopy\n  dup2\n  dup2\n  add\n  0x40\n  mstore\n  dup2\n  add\n  swap1\n  tag_2\n  swap2\n  swap1\n  tag_3\n  jump\t// in\ntag_2:\n    /* \"@openzeppelin/contracts/security/Pausable.sol\":1006:1011  false */\n  0x00\n    /* \"@openzeppelin/contracts/security/Pausable.sol\":996:1003  _paused */\n  dup1\n  0x00\n    /* \"@openzeppelin/contracts/security/Pausable.sol\":996:1011  _paused = false */\n  0x0100\n  exp\n  dup2\n  sload\n  dup2\n  0xff\n  mul\n  not\n  and\n  swap1\n  dup4\n  iszero\n  iszero\n  mul\n  or\n  swap1\n  sstore\n  pop\n    /* \"@openzeppelin/contracts/access/Ownable.sol\":936:968  _transferOwnership(_msgSender()) */\n  tag_9\n    /* \"@openzeppelin/contracts/access/Ownable.sol\":955:967  _msgSender() */\n  tag_10\n    /* \"@openzeppelin/contracts/access/Ownable.sol\":955:965  _msgSender */\n  shl(0x20, tag_11)\n    /* \"@openzeppelin/contracts/access/Ownable.sol\":955:967  _msgSender() */\n  0x20\n  shr\n  jump\t// in\ntag_10:\n    /* \"@openzeppelin/contracts/access/Ownable.sol\":936:954  _transferOwnership */\n  shl(0x20, tag_12)\n    /* \"@openzeppelin/contracts/access/Ownable.sol\":936:968  _transferOwnership(_msgSender()) */\n  0x20\n  shr\n  jump\t// in\ntag_9:\n    /* \"ptrn_eco_system_dev_contracts/PtrnEcoSystemParticipationDev.sol\":2452:2462  _activator */\n  dup1\n    /* \"ptrn_eco_system_dev_contracts/PtrnEcoSystemParticipationDev.sol\":2440:2462  ACTIVATOR = _activator */\n  0xffffffffffffffffffffffffffffffffffffffff\n  and\n  0x80\n  dup2\n  0xffffffffffffffffffffffffffffffffffffffff\n  and\n  dup2\n  mstore\n  pop\n  pop\n    /* \"ptrn_eco_system_dev_contracts/PtrnEcoSystemParticipationDev.sol\":2495:2510  _acceptedTokens */\n  dup2\n    /* \"ptrn_eco_system_dev_contracts/PtrnEcoSystemParticipationDev.sol\":2472:2511  TOKEN = IERC20Burnable(_acceptedTokens) */\n  0xffffffffffffffffffffffffffffffffffffffff\n  and\n  0xa0\n  dup2\n  0xffffffffffffffffffffffffffffffffffffffff\n  and\n  dup2\n  mstore\n  pop\n  pop\n    /* \"ptrn_eco_system_dev_contracts/PtrnEcoSystemParticipationDev.sol\":2535:2540  TOKEN */\n  mload(0xa0)\n    /* \"ptrn_eco_system_dev_contracts/PtrnEcoSystemParticipationDev.sol\":2535:2547  TOKEN.symbol */\n  0xffffffffffffffffffffffffffffffffffffffff\n  and\n  0x95d89b41\n    /* \"ptrn_eco_system_dev_contracts/PtrnEcoSystemParticipationDev.sol\":2535:2549  TOKEN.symbol() */\n  mload(0x40)\n  dup2\n  0xffffffff\n  and\n  0xe0\n  shl\n  dup2\n  mstore\n  0x04\n  add\n  0x00\n  mload(0x40)\n  dup1\n  dup4\n  sub\n  dup2\n  0x00\n  dup8\n  gas\n  call\n  iszero\n  dup1\n  iszero\n  tag_15\n  jumpi\n  returndatasize\n  0x00\n  dup1\n  returndatacopy\n  revert(0x00, returndatasize)\ntag_15:\n  pop\n  pop\n  pop\n  pop\n  mload(0x40)\n  returndatasize\n  0x00\n  dup3\n  returndatacopy\n  returndatasize\n  not(0x1f)\n  0x1f\n  dup3\n  add\n  and\n  dup3\n  add\n  dup1\n  0x40\n  mstore\n  pop\n  dup2\n  add\n  swap1\n  tag_16\n  swap2\n  swap1\n  tag_17\n  jump\t// in\ntag_16:\n    /* \"ptrn_eco_system_dev_contracts/PtrnEcoSystemParticipationDev.sol\":2521:2532  tokenSymbol */\n  0x06\n    /* \"ptrn_eco_system_dev_contracts/PtrnEcoSystemParticipationDev.sol\":2521:2549  tokenSymbol = TOKEN.symbol() */\n  swap1\n  dup2\n  tag_18\n  swap2\n  swap1\n  tag_19\n  jump\t// in\ntag_18:\n  pop\n    /* \"ptrn_eco_system_dev_contracts/PtrnEcoSystemParticipationDev.sol\":2373:2556  constructor(address _acceptedTokens, address _activator) {... */\n  pop\n  pop\n    /* \"ptrn_eco_system_dev_contracts/PtrnEcoSystemParticipationDev.sol\":814:10200  contract PtrnEcoSystemParticipation is Pausable, Ownable {... */\n  jump(tag_20)\n    /* \"@openzeppelin/contracts/utils/Context.sol\":640:736  function _msgSender() internal view virtual returns (address) {... */\ntag_11:\n    /* \"@openzeppelin/contracts/utils/Context.sol\":693:700  address */\n  0x00\n    /* \"@openzeppelin/contracts/utils/Context.sol\":719:729  msg.sender */\n  caller\n    /* \"@openzeppelin/contracts/utils/Context.sol\":712:729  return msg.sender */\n  swap1\n  pop\n    /* \"@openzeppelin/contracts/utils/Context.sol\":640:736  function _msgSender() internal view virtual returns (address) {... */\n  swap1\n  jump\t// out\n    /* \"@openzeppelin/contracts/access/Ownable.sol\":2433:2620  function _transferOwnership(address newOwner) internal virtual {... */\ntag_12:\n    /* \"@openzeppelin/contracts/access/Ownable.sol\":2506:2522  address oldOwner */\n  0x00\n    /* \"@openzeppelin/contracts/access/Ownable.sol\":2525:2531  _owner */\n  dup1\n  0x01\n  swap1\n  sload\n  swap1\n  0x0100\n  exp\n  swap1\n  div\n  0xffffffffffffffffffffffffffffffffffffffff\n  and\n    /* \"@openzeppelin/contracts/access/Ownable.sol\":2506:2531  address oldOwner = _owner */\n  swap1\n  pop\n    /* \"@openzeppelin/contracts/access/Ownable.sol\":2550:2558  newOwner */\n  dup2\n    /* \"@openzeppelin/contracts/access/Ownable.sol\":2541:2547  _owner */\n  0x00\n  0x01\n    /* \"@openzeppelin/contracts/access/Ownable.sol\":2541:2558  _owner = newOwner */\n  0x0100\n  exp\n  dup2\n  sload\n  dup2\n  0xffffffffffffffffffffffffffffffffffffffff\n  mul\n  not\n  and\n  swap1\n  dup4\n  0xffffffffffffffffffffffffffffffffffffffff\n  and\n  mul\n  or\n  swap1\n  sstore\n  pop\n    /* \"@openzeppelin/contracts/access/Ownable.sol\":2604:2612  newOwner */\n  dup2\n    /* \"@openzeppelin/contracts/access/Ownable.sol\":2573:2613  OwnershipTransferred(oldOwner, newOwner) */\n  0xffffffffffffffffffffffffffffffffffffffff\n  and\n    /* \"@openzeppelin/contracts/access/Ownable.sol\":2594:2602  oldOwner */\n  dup2\n    /* \"@openzeppelin/contracts/access/Ownable.sol\":2573:2613  OwnershipTransferred(oldOwner, newOwner) */\n  0xffffffffffffffffffffffffffffffffffffffff\n  and\n  0x8be0079c531659141344cd1fd0a4f28419497f9722a3daafe3b4186f6b6457e0\n  mload(0x40)\n  mload(0x40)\n  dup1\n  swap2\n  sub\n  swap1\n  log3\n    /* \"@openzeppelin/contracts/access/Ownable.sol\":2496:2620  {... */\n  pop\n    /* \"@openzeppelin/contracts/access/Ownable.sol\":2433:2620  function _transferOwnership(address newOwner) internal virtual {... */\n  pop\n  jump\t// out\n    /* \"#utility.yul\":7:82   */\ntag_23:\n    /* \"#utility.yul\":40:46   */\n  0x00\n    /* \"#utility.yul\":73:75   */\n  0x40\n    /* \"#utility.yul\":67:76   */\n  mload\n    /* \"#utility.yul\":57:76   */\n  swap1\n  pop\n    /* \"#utility.yul\":7:82   */\n  swap1\n  jump\t// out\n    /* \"#utility.yul\":88:205   */\ntag_24:\n    /* \"#utility.yul\":197:198   */\n  0x00\n    /* \"#utility.yul\":194:195   */\n  dup1\n    /* \"#utility.yul\":187:199   */\n  revert\n    /* \"#utility.yul\":211:328   */\ntag_25:\n    /* \"#utility.yul\":320:321   */\n  0x00\n    /* \"#utility.yul\":317:318   */\n  dup1\n    /* \"#utility.yul\":310:322   */\n  revert\n    /* \"#utility.yul\":334:460   */\ntag_26:\n    /* \"#utility.yul\":371:378   */\n  0x00\n    /* \"#utility.yul\":411:453   */\n  0xffffffffffffffffffffffffffffffffffffffff\n    /* \"#utility.yul\":404:409   */\n  dup3\n    /* \"#utility.yul\":400:454   */\n  and\n    /* \"#utility.yul\":389:454   */\n  swap1\n  pop\n    /* \"#utility.yul\":334:460   */\n  swap2\n  swap1\n  pop\n  jump\t// out\n    /* \"#utility.yul\":466:562   */\ntag_27:\n    /* \"#utility.yul\":503:510   */\n  0x00\n    /* \"#utility.yul\":532:556   */\n  tag_65\n    /* \"#utility.yul\":550:555   */\n  dup3\n    /* \"#utility.yul\":532:556   */\n  tag_26\n  jump\t// in\ntag_65:\n    /* \"#utility.yul\":521:556   */\n  swap1\n  pop\n    /* \"#utility.yul\":466:562   */\n  swap2\n  swap1\n  pop\n  jump\t// out\n    /* \"#utility.yul\":568:690   */\ntag_28:\n    /* \"#utility.yul\":641:665   */\n  tag_67\n    /* \"#utility.yul\":659:664   */\n  dup2\n    /* \"#utility.yul\":641:665   */\n  tag_27\n  jump\t// in\ntag_67:\n    /* \"#utility.yul\":634:639   */\n  dup2\n    /* \"#utility.yul\":631:666   */\n  eq\n    /* \"#utility.yul\":621:684   */\n  tag_68\n  jumpi\n    /* \"#utility.yul\":680:681   */\n  0x00\n    /* \"#utility.yul\":677:678   */\n  dup1\n    /* \"#utility.yul\":670:682   */\n  revert\n    /* \"#utility.yul\":621:684   */\ntag_68:\n    /* \"#utility.yul\":568:690   */\n  pop\n  jump\t// out\n    /* \"#utility.yul\":696:839   */\ntag_29:\n    /* \"#utility.yul\":753:758   */\n  0x00\n    /* \"#utility.yul\":784:790   */\n  dup2\n    /* \"#utility.yul\":778:791   */\n  mload\n    /* \"#utility.yul\":769:791   */\n  swap1\n  pop\n    /* \"#utility.yul\":800:833   */\n  tag_70\n    /* \"#utility.yul\":827:832   */\n  dup2\n    /* \"#utility.yul\":800:833   */\n  tag_28\n  jump\t// in\ntag_70:\n    /* \"#utility.yul\":696:839   */\n  swap3\n  swap2\n  pop\n  pop\n  jump\t// out\n    /* \"#utility.yul\":845:1352   */\ntag_3:\n    /* \"#utility.yul\":924:930   */\n  0x00\n    /* \"#utility.yul\":932:938   */\n  dup1\n    /* \"#utility.yul\":981:983   */\n  0x40\n    /* \"#utility.yul\":969:978   */\n  dup4\n    /* \"#utility.yul\":960:967   */\n  dup6\n    /* \"#utility.yul\":956:979   */\n  sub\n    /* \"#utility.yul\":952:984   */\n  slt\n    /* \"#utility.yul\":949:1068   */\n  iszero\n  tag_72\n  jumpi\n    /* \"#utility.yul\":987:1066   */\n  tag_73\n  tag_24\n  jump\t// in\ntag_73:\n    /* \"#utility.yul\":949:1068   */\ntag_72:\n    /* \"#utility.yul\":1107:1108   */\n  0x00\n    /* \"#utility.yul\":1132:1196   */\n  tag_74\n    /* \"#utility.yul\":1188:1195   */\n  dup6\n    /* \"#utility.yul\":1179:1185   */\n  dup3\n    /* \"#utility.yul\":1168:1177   */\n  dup7\n    /* \"#utility.yul\":1164:1186   */\n  add\n    /* \"#utility.yul\":1132:1196   */\n  tag_29\n  jump\t// in\ntag_74:\n    /* \"#utility.yul\":1122:1196   */\n  swap3\n  pop\n    /* \"#utility.yul\":1078:1206   */\n  pop\n    /* \"#utility.yul\":1245:1247   */\n  0x20\n    /* \"#utility.yul\":1271:1335   */\n  tag_75\n    /* \"#utility.yul\":1327:1334   */\n  dup6\n    /* \"#utility.yul\":1318:1324   */\n  dup3\n    /* \"#utility.yul\":1307:1316   */\n  dup7\n    /* \"#utility.yul\":1303:1325   */\n  add\n    /* \"#utility.yul\":1271:1335   */\n  tag_29\n  jump\t// in\ntag_75:\n    /* \"#utility.yul\":1261:1335   */\n  swap2\n  pop\n    /* \"#utility.yul\":1216:1345   */\n  pop\n    /* \"#utility.yul\":845:1352   */\n  swap3\n  pop\n  swap3\n  swap1\n  pop\n  jump\t// out\n    /* \"#utility.yul\":1358:1475   */\ntag_30:\n    /* \"#utility.yul\":1467:1468   */\n  0x00\n    /* \"#utility.yul\":1464:1465   */\n  dup1\n    /* \"#utility.yul\":1457:1469   */\n  revert\n    /* \"#utility.yul\":1481:1598   */\ntag_31:\n    /* \"#utility.yul\":1590:1591   */\n  0x00\n    /* \"#utility.yul\":1587:1588   */\n  dup1\n    /* \"#utility.yul\":1580:1592   */\n  revert\n    /* \"#utility.yul\":1604:1706   */\ntag_32:\n    /* \"#utility.yul\":1645:1651   */\n  0x00\n    /* \"#utility.yul\":1696:1698   */\n  0x1f\n    /* \"#utility.yul\":1692:1699   */\n  not\n    /* \"#utility.yul\":1687:1689   */\n  0x1f\n    /* \"#utility.yul\":1680:1685   */\n  dup4\n    /* \"#utility.yul\":1676:1690   */\n  add\n    /* \"#utility.yul\":1672:1700   */\n  and\n    /* \"#utility.yul\":1662:1700   */\n  swap1\n  pop\n    /* \"#utility.yul\":1604:1706   */\n  swap2\n  swap1\n  pop\n  jump\t// out\n    /* \"#utility.yul\":1712:1892   */\ntag_33:\n    /* \"#utility.yul\":1760:1837   */\n  0x4e487b7100000000000000000000000000000000000000000000000000000000\n    /* \"#utility.yul\":1757:1758   */\n  0x00\n    /* \"#utility.yul\":1750:1838   */\n  mstore\n    /* \"#utility.yul\":1857:1861   */\n  0x41\n    /* \"#utility.yul\":1854:1855   */\n  0x04\n    /* \"#utility.yul\":1847:1862   */\n  mstore\n    /* \"#utility.yul\":1881:1885   */\n  0x24\n    /* \"#utility.yul\":1878:1879   */\n  0x00\n    /* \"#utility.yul\":1871:1886   */\n  revert\n    /* \"#utility.yul\":1898:2179   */\ntag_34:\n    /* \"#utility.yul\":1981:2008   */\n  tag_81\n    /* \"#utility.yul\":2003:2007   */\n  dup3\n    /* \"#utility.yul\":1981:2008   */\n  tag_32\n  jump\t// in\ntag_81:\n    /* \"#utility.yul\":1973:1979   */\n  dup2\n    /* \"#utility.yul\":1969:2009   */\n  add\n    /* \"#utility.yul\":2111:2117   */\n  dup2\n    /* \"#utility.yul\":2099:2109   */\n  dup2\n    /* \"#utility.yul\":2096:2118   */\n  lt\n    /* \"#utility.yul\":2075:2093   */\n  0xffffffffffffffff\n    /* \"#utility.yul\":2063:2073   */\n  dup3\n    /* \"#utility.yul\":2060:2094   */\n  gt\n    /* \"#utility.yul\":2057:2119   */\n  or\n    /* \"#utility.yul\":2054:2142   */\n  iszero\n  tag_82\n  jumpi\n    /* \"#utility.yul\":2122:2140   */\n  tag_83\n  tag_33\n  jump\t// in\ntag_83:\n    /* \"#utility.yul\":2054:2142   */\ntag_82:\n    /* \"#utility.yul\":2162:2172   */\n  dup1\n    /* \"#utility.yul\":2158:2160   */\n  0x40\n    /* \"#utility.yul\":2151:2173   */\n  mstore\n    /* \"#utility.yul\":1941:2179   */\n  pop\n    /* \"#utility.yul\":1898:2179   */\n  pop\n  pop\n  jump\t// out\n    /* \"#utility.yul\":2185:2314   */\ntag_35:\n    /* \"#utility.yul\":2219:2225   */\n  0x00\n    /* \"#utility.yul\":2246:2266   */\n  tag_85\n  tag_23\n  jump\t// in\ntag_85:\n    /* \"#utility.yul\":2236:2266   */\n  swap1\n  pop\n    /* \"#utility.yul\":2275:2308   */\n  tag_86\n    /* \"#utility.yul\":2303:2307   */\n  dup3\n    /* \"#utility.yul\":2295:2301   */\n  dup3\n    /* \"#utility.yul\":2275:2308   */\n  tag_34\n  jump\t// in\ntag_86:\n    /* \"#utility.yul\":2185:2314   */\n  swap2\n  swap1\n  pop\n  jump\t// out\n    /* \"#utility.yul\":2320:2628   */\ntag_36:\n    /* \"#utility.yul\":2382:2386   */\n  0x00\n    /* \"#utility.yul\":2472:2490   */\n  0xffffffffffffffff\n    /* \"#utility.yul\":2464:2470   */\n  dup3\n    /* \"#utility.yul\":2461:2491   */\n  gt\n    /* \"#utility.yul\":2458:2514   */\n  iszero\n  tag_88\n  jumpi\n    /* \"#utility.yul\":2494:2512   */\n  tag_89\n  tag_33\n  jump\t// in\ntag_89:\n    /* \"#utility.yul\":2458:2514   */\ntag_88:\n    /* \"#utility.yul\":2532:2561   */\n  tag_90\n    /* \"#utility.yul\":2554:2560   */\n  dup3\n    /* \"#utility.yul\":2532:2561   */\n  tag_32\n  jump\t// in\ntag_90:\n    /* \"#utility.yul\":2524:2561   */\n  swap1\n  pop\n    /* \"#utility.yul\":2616:2620   */\n  0x20\n    /* \"#utility.yul\":2610:2614   */\n  dup2\n    /* \"#utility.yul\":2606:2621   */\n  add\n    /* \"#utility.yul\":2598:2621   */\n  swap1\n  pop\n    /* \"#utility.yul\":2320:2628   */\n  swap2\n  swap1\n  pop\n  jump\t// out\n    /* \"#utility.yul\":2634:2880   */\ntag_37:\n    /* \"#utility.yul\":2715:2716   */\n  0x00\n    /* \"#utility.yul\":2725:2838   */\ntag_92:\n    /* \"#utility.yul\":2739:2745   */\n  dup4\n    /* \"#utility.yul\":2736:2737   */\n  dup2\n    /* \"#utility.yul\":2733:2746   */\n  lt\n    /* \"#utility.yul\":2725:2838   */\n  iszero\n  tag_94\n  jumpi\n    /* \"#utility.yul\":2824:2825   */\n  dup1\n    /* \"#utility.yul\":2819:2822   */\n  dup3\n    /* \"#utility.yul\":2815:2826   */\n  add\n    /* \"#utility.yul\":2809:2827   */\n  mload\n    /* \"#utility.yul\":2805:2806   */\n  dup2\n    /* \"#utility.yul\":2800:2803   */\n  dup5\n    /* \"#utility.yul\":2796:2807   */\n  add\n    /* \"#utility.yul\":2789:2828   */\n  mstore\n    /* \"#utility.yul\":2761:2763   */\n  0x20\n    /* \"#utility.yul\":2758:2759   */\n  dup2\n    /* \"#utility.yul\":2754:2764   */\n  add\n    /* \"#utility.yul\":2749:2764   */\n  swap1\n  pop\n    /* \"#utility.yul\":2725:2838   */\n  jump(tag_92)\ntag_94:\n    /* \"#utility.yul\":2872:2873   */\n  0x00\n    /* \"#utility.yul\":2863:2869   */\n  dup5\n    /* \"#utility.yul\":2858:2861   */\n  dup5\n    /* \"#utility.yul\":2854:2870   */\n  add\n    /* \"#utility.yul\":2847:2874   */\n  mstore\n    /* \"#utility.yul\":2696:2880   */\n  pop\n    /* \"#utility.yul\":2634:2880   */\n  pop\n  pop\n  pop\n  jump\t// out\n    /* \"#utility.yul\":2886:3320   */\ntag_38:\n    /* \"#utility.yul\":2975:2980   */\n  0x00\n    /* \"#utility.yul\":3000:3066   */\n  tag_96\n    /* \"#utility.yul\":3016:3065   */\n  tag_97\n    /* \"#utility.yul\":3058:3064   */\n  dup5\n    /* \"#utility.yul\":3016:3065   */\n  tag_36\n  jump\t// in\ntag_97:\n    /* \"#utility.yul\":3000:3066   */\n  tag_35\n  jump\t// in\ntag_96:\n    /* \"#utility.yul\":2991:3066   */\n  swap1\n  pop\n    /* \"#utility.yul\":3089:3095   */\n  dup3\n    /* \"#utility.yul\":3082:3087   */\n  dup2\n    /* \"#utility.yul\":3075:3096   */\n  mstore\n    /* \"#utility.yul\":3127:3131   */\n  0x20\n    /* \"#utility.yul\":3120:3125   */\n  dup2\n    /* \"#utility.yul\":3116:3132   */\n  add\n    /* \"#utility.yul\":3165:3168   */\n  dup5\n    /* \"#utility.yul\":3156:3162   */\n  dup5\n    /* \"#utility.yul\":3151:3154   */\n  dup5\n    /* \"#utility.yul\":3147:3163   */\n  add\n    /* \"#utility.yul\":3144:3169   */\n  gt\n    /* \"#utility.yul\":3141:3253   */\n  iszero\n  tag_98\n  jumpi\n    /* \"#utility.yul\":3172:3251   */\n  tag_99\n  tag_31\n  jump\t// in\ntag_99:\n    /* \"#utility.yul\":3141:3253   */\ntag_98:\n    /* \"#utility.yul\":3262:3314   */\n  tag_100\n    /* \"#utility.yul\":3307:3313   */\n  dup5\n    /* \"#utility.yul\":3302:3305   */\n  dup3\n    /* \"#utility.yul\":3297:3300   */\n  dup6\n    /* \"#utility.yul\":3262:3314   */\n  tag_37\n  jump\t// in\ntag_100:\n    /* \"#utility.yul\":2981:3320   */\n  pop\n    /* \"#utility.yul\":2886:3320   */\n  swap4\n  swap3\n  pop\n  pop\n  pop\n  jump\t// out\n    /* \"#utility.yul\":3340:3695   */\ntag_39:\n    /* \"#utility.yul\":3407:3412   */\n  0x00\n    /* \"#utility.yul\":3456:3459   */\n  dup3\n    /* \"#utility.yul\":3449:3453   */\n  0x1f\n    /* \"#utility.yul\":3441:3447   */\n  dup4\n    /* \"#utility.yul\":3437:3454   */\n  add\n    /* \"#utility.yul\":3433:3460   */\n  slt\n    /* \"#utility.yul\":3423:3545   */\n  tag_102\n  jumpi\n    /* \"#utility.yul\":3464:3543   */\n  tag_103\n  tag_30\n  jump\t// in\ntag_103:\n    /* \"#utility.yul\":3423:3545   */\ntag_102:\n    /* \"#utility.yul\":3574:3580   */\n  dup2\n    /* \"#utility.yul\":3568:3581   */\n  mload\n    /* \"#utility.yul\":3599:3689   */\n  tag_104\n    /* \"#utility.yul\":3685:3688   */\n  dup5\n    /* \"#utility.yul\":3677:3683   */\n  dup3\n    /* \"#utility.yul\":3670:3674   */\n  0x20\n    /* \"#utility.yul\":3662:3668   */\n  dup7\n    /* \"#utility.yul\":3658:3675   */\n  add\n    /* \"#utility.yul\":3599:3689   */\n  tag_38\n  jump\t// in\ntag_104:\n    /* \"#utility.yul\":3590:3689   */\n  swap2\n  pop\n    /* \"#utility.yul\":3413:3695   */\n  pop\n    /* \"#utility.yul\":3340:3695   */\n  swap3\n  swap2\n  pop\n  pop\n  jump\t// out\n    /* \"#utility.yul\":3701:4225   */\ntag_17:\n    /* \"#utility.yul\":3781:3787   */\n  0x00\n    /* \"#utility.yul\":3830:3832   */\n  0x20\n    /* \"#utility.yul\":3818:3827   */\n  dup3\n    /* \"#utility.yul\":3809:3816   */\n  dup5\n    /* \"#utility.yul\":3805:3828   */\n  sub\n    /* \"#utility.yul\":3801:3833   */\n  slt\n    /* \"#utility.yul\":3798:3917   */\n  iszero\n  tag_106\n  jumpi\n    /* \"#utility.yul\":3836:3915   */\n  tag_107\n  tag_24\n  jump\t// in\ntag_107:\n    /* \"#utility.yul\":3798:3917   */\ntag_106:\n    /* \"#utility.yul\":3977:3978   */\n  0x00\n    /* \"#utility.yul\":3966:3975   */\n  dup3\n    /* \"#utility.yul\":3962:3979   */\n  add\n    /* \"#utility.yul\":3956:3980   */\n  mload\n    /* \"#utility.yul\":4007:4025   */\n  0xffffffffffffffff\n    /* \"#utility.yul\":3999:4005   */\n  dup2\n    /* \"#utility.yul\":3996:4026   */\n  gt\n    /* \"#utility.yul\":3993:4110   */\n  iszero\n  tag_108\n  jumpi\n    /* \"#utility.yul\":4029:4108   */\n  tag_109\n  tag_25\n  jump\t// in\ntag_109:\n    /* \"#utility.yul\":3993:4110   */\ntag_108:\n    /* \"#utility.yul\":4134:4208   */\n  tag_110\n    /* \"#utility.yul\":4200:4207   */\n  dup5\n    /* \"#utility.yul\":4191:4197   */\n  dup3\n    /* \"#utility.yul\":4180:4189   */\n  dup6\n    /* \"#utility.yul\":4176:4198   */\n  add\n    /* \"#utility.yul\":4134:4208   */\n  tag_39\n  jump\t// in\ntag_110:\n    /* \"#utility.yul\":4124:4208   */\n  swap2\n  pop\n    /* \"#utility.yul\":3927:4218   */\n  pop\n    /* \"#utility.yul\":3701:4225   */\n  swap3\n  swap2\n  pop\n  pop\n  jump\t// out\n    /* \"#utility.yul\":4231:4330   */\ntag_40:\n    /* \"#utility.yul\":4283:4289   */\n  0x00\n    /* \"#utility.yul\":4317:4322   */\n  dup2\n    /* \"#utility.yul\":4311:4323   */\n  mload\n    /* \"#utility.yul\":4301:4323   */\n  swap1\n  pop\n    /* \"#utility.yul\":4231:4330   */\n  swap2\n  swap1\n  pop\n  jump\t// out\n    /* \"#utility.yul\":4336:4516   */\ntag_41:\n    /* \"#utility.yul\":4384:4461   */\n  0x4e487b7100000000000000000000000000000000000000000000000000000000\n    /* \"#utility.yul\":4381:4382   */\n  0x00\n    /* \"#utility.yul\":4374:4462   */\n  mstore\n    /* \"#utility.yul\":4481:4485   */\n  0x22\n    /* \"#utility.yul\":4478:4479   */\n  0x04\n    /* \"#utility.yul\":4471:4486   */\n  mstore\n    /* \"#utility.yul\":4505:4509   */\n  0x24\n    /* \"#utility.yul\":4502:4503   */\n  0x00\n    /* \"#utility.yul\":4495:4510   */\n  revert\n    /* \"#utility.yul\":4522:4842   */\ntag_42:\n    /* \"#utility.yul\":4566:4572   */\n  0x00\n    /* \"#utility.yul\":4603:4604   */\n  0x02\n    /* \"#utility.yul\":4597:4601   */\n  dup3\n    /* \"#utility.yul\":4593:4605   */\n  div\n    /* \"#utility.yul\":4583:4605   */\n  swap1\n  pop\n    /* \"#utility.yul\":4650:4651   */\n  0x01\n    /* \"#utility.yul\":4644:4648   */\n  dup3\n    /* \"#utility.yul\":4640:4652   */\n  and\n    /* \"#utility.yul\":4671:4689   */\n  dup1\n    /* \"#utility.yul\":4661:4742   */\n  tag_114\n  jumpi\n    /* \"#utility.yul\":4727:4731   */\n  0x7f\n    /* \"#utility.yul\":4719:4725   */\n  dup3\n    /* \"#utility.yul\":4715:4732   */\n  and\n    /* \"#utility.yul\":4705:4732   */\n  swap2\n  pop\n    /* \"#utility.yul\":4661:4742   */\ntag_114:\n    /* \"#utility.yul\":4789:4791   */\n  0x20\n    /* \"#utility.yul\":4781:4787   */\n  dup3\n    /* \"#utility.yul\":4778:4792   */\n  lt\n    /* \"#utility.yul\":4758:4776   */\n  dup2\n    /* \"#utility.yul\":4755:4793   */\n  sub\n    /* \"#utility.yul\":4752:4836   */\n  tag_115\n  jumpi\n    /* \"#utility.yul\":4808:4826   */\n  tag_116\n  tag_41\n  jump\t// in\ntag_116:\n    /* \"#utility.yul\":4752:4836   */\ntag_115:\n    /* \"#utility.yul\":4573:4842   */\n  pop\n    /* \"#utility.yul\":4522:4842   */\n  swap2\n  swap1\n  pop\n  jump\t// out\n    /* \"#utility.yul\":4848:4989   */\ntag_43:\n    /* \"#utility.yul\":4897:4901   */\n  0x00\n    /* \"#utility.yul\":4920:4923   */\n  dup2\n    /* \"#utility.yul\":4912:4923   */\n  swap1\n  pop\n    /* \"#utility.yul\":4943:4946   */\n  dup2\n    /* \"#utility.yul\":4940:4941   */\n  0x00\n    /* \"#utility.yul\":4933:4947   */\n  mstore\n    /* \"#utility.yul\":4977:4981   */\n  0x20\n    /* \"#utility.yul\":4974:4975   */\n  0x00\n    /* \"#utility.yul\":4964:4982   */\n  keccak256\n    /* \"#utility.yul\":4956:4982   */\n  swap1\n  pop\n    /* \"#utility.yul\":4848:4989   */\n  swap2\n  swap1\n  pop\n  jump\t// out\n    /* \"#utility.yul\":4995:5088   */\ntag_44:\n    /* \"#utility.yul\":5032:5038   */\n  0x00\n    /* \"#utility.yul\":5079:5081   */\n  0x20\n    /* \"#utility.yul\":5074:5076   */\n  0x1f\n    /* \"#utility.yul\":5067:5072   */\n  dup4\n    /* \"#utility.yul\":5063:5077   */\n  add\n    /* \"#utility.yul\":5059:5082   */\n  div\n    /* \"#utility.yul\":5049:5082   */\n  swap1\n  pop\n    /* \"#utility.yul\":4995:5088   */\n  swap2\n  swap1\n  pop\n  jump\t// out\n    /* \"#utility.yul\":5094:5201   */\ntag_45:\n    /* \"#utility.yul\":5138:5146   */\n  0x00\n    /* \"#utility.yul\":5188:5193   */\n  dup3\n    /* \"#utility.yul\":5182:5186   */\n  dup3\n    /* \"#utility.yul\":5178:5194   */\n  shl\n    /* \"#utility.yul\":5157:5194   */\n  swap1\n  pop\n    /* \"#utility.yul\":5094:5201   */\n  swap3\n  swap2\n  pop\n  pop\n  jump\t// out\n    /* \"#utility.yul\":5207:5600   */\ntag_46:\n    /* \"#utility.yul\":5276:5282   */\n  0x00\n    /* \"#utility.yul\":5326:5327   */\n  0x08\n    /* \"#utility.yul\":5314:5324   */\n  dup4\n    /* \"#utility.yul\":5310:5328   */\n  mul\n    /* \"#utility.yul\":5349:5446   */\n  tag_121\n    /* \"#utility.yul\":5379:5445   */\n  0xffffffffffffffffffffffffffffffffffffffffffffffffffffffffffffffff\n    /* \"#utility.yul\":5368:5377   */\n  dup3\n    /* \"#utility.yul\":5349:5446   */\n  tag_45\n  jump\t// in\ntag_121:\n    /* \"#utility.yul\":5467:5506   */\n  tag_122\n    /* \"#utility.yul\":5497:5505   */\n  dup7\n    /* \"#utility.yul\":5486:5495   */\n  dup4\n    /* \"#utility.yul\":5467:5506   */\n  tag_45\n  jump\t// in\ntag_122:\n    /* \"#utility.yul\":5455:5506   */\n  swap6\n  pop\n    /* \"#utility.yul\":5539:5543   */\n  dup1\n    /* \"#utility.yul\":5535:5544   */\n  not\n    /* \"#utility.yul\":5528:5533   */\n  dup5\n    /* \"#utility.yul\":5524:5545   */\n  and\n    /* \"#utility.yul\":5515:5545   */\n  swap4\n  pop\n    /* \"#utility.yul\":5588:5592   */\n  dup1\n    /* \"#utility.yul\":5578:5586   */\n  dup7\n    /* \"#utility.yul\":5574:5593   */\n  and\n    /* \"#utility.yul\":5567:5572   */\n  dup5\n    /* \"#utility.yul\":5564:5594   */\n  or\n    /* \"#utility.yul\":5554:5594   */\n  swap3\n  pop\n    /* \"#utility.yul\":5283:5600   */\n  pop\n  pop\n    /* \"#utility.yul\":5207:5600   */\n  swap4\n  swap3\n  pop\n  pop\n  pop\n  jump\t// out\n    /* \"#utility.yul\":5606:5683   */\ntag_47:\n    /* \"#utility.yul\":5643:5650   */\n  0x00\n    /* \"#utility.yul\":5672:5677   */\n  dup2\n    /* \"#utility.yul\":5661:5677   */\n  swap1\n  pop\n    /* \"#utility.yul\":5606:5683   */\n  swap2\n  swap1\n  pop\n  jump\t// out\n    /* \"#utility.yul\":5689:5749   */\ntag_48:\n    /* \"#utility.yul\":5717:5720   */\n  0x00\n    /* \"#utility.yul\":5738:5743   */\n  dup2\n    /* \"#utility.yul\":5731:5743   */\n  swap1\n  pop\n    /* \"#utility.yul\":5689:5749   */\n  swap2\n  swap1\n  pop\n  jump\t// out\n    /* \"#utility.yul\":5755:5897   */\ntag_49:\n    /* \"#utility.yul\":5805:5814   */\n  0x00\n    /* \"#utility.yul\":5838:5891   */\n  tag_126\n    /* \"#utility.yul\":5856:5890   */\n  tag_127\n    /* \"#utility.yul\":5865:5889   */\n  tag_128\n    /* \"#utility.yul\":5883:5888   */\n  dup5\n    /* \"#utility.yul\":5865:5889   */\n  tag_47\n  jump\t// in\ntag_128:\n    /* \"#utility.yul\":5856:5890   */\n  tag_48\n  jump\t// in\ntag_127:\n    /* \"#utility.yul\":5838:5891   */\n  tag_47\n  jump\t// in\ntag_126:\n    /* \"#utility.yul\":5825:5891   */\n  swap1\n  pop\n    /* \"#utility.yul\":5755:5897   */\n  swap2\n  swap1\n  pop\n  jump\t// out\n    /* \"#utility.yul\":5903:5978   */\ntag_50:\n    /* \"#utility.yul\":5946:5949   */\n  0x00\n    /* \"#utility.yul\":5967:5972   */\n  dup2\n    /* \"#utility.yul\":5960:5972   */\n  swap1\n  pop\n    /* \"#utility.yul\":5903:5978   */\n  swap2\n  swap1\n  pop\n  jump\t// out\n    /* \"#utility.yul\":5984:6253   */\ntag_51:\n    /* \"#utility.yul\":6094:6133   */\n  tag_131\n    /* \"#utility.yul\":6125:6132   */\n  dup4\n    /* \"#utility.yul\":6094:6133   */\n  tag_49\n  jump\t// in\ntag_131:\n    /* \"#utility.yul\":6155:6246   */\n  tag_132\n    /* \"#utility.yul\":6204:6245   */\n  tag_133\n    /* \"#utility.yul\":6228:6244   */\n  dup3\n    /* \"#utility.yul\":6204:6245   */\n  tag_50\n  jump\t// in\ntag_133:\n    /* \"#utility.yul\":6196:6202   */\n  dup5\n    /* \"#utility.yul\":6189:6193   */\n  dup5\n    /* \"#utility.yul\":6183:6194   */\n  sload\n    /* \"#utility.yul\":6155:6246   */\n  tag_46\n  jump\t// in\ntag_132:\n    /* \"#utility.yul\":6149:6153   */\n  dup3\n    /* \"#utility.yul\":6142:6247   */\n  sstore\n    /* \"#utility.yul\":6060:6253   */\n  pop\n    /* \"#utility.yul\":5984:6253   */\n  pop\n  pop\n  pop\n  jump\t// out\n    /* \"#utility.yul\":6259:6332   */\ntag_52:\n    /* \"#utility.yul\":6304:6307   */\n  0x00\n    /* \"#utility.yul\":6259:6332   */\n  swap1\n  jump\t// out\n    /* \"#utility.yul\":6338:6527   */\ntag_53:\n    /* \"#utility.yul\":6415:6447   */\n  tag_136\n  tag_52\n  jump\t// in\ntag_136:\n    /* \"#utility.yul\":6456:6521   */\n  tag_137\n    /* \"#utility.yul\":6514:6520   */\n  dup2\n    /* \"#utility.yul\":6506:6512   */\n  dup5\n    /* \"#utility.yul\":6500:6504   */\n  dup5\n    /* \"#utility.yul\":6456:6521   */\n  tag_51\n  jump\t// in\ntag_137:\n    /* \"#utility.yul\":6391:6527   */\n  pop\n    /* \"#utility.yul\":6338:6527   */\n  pop\n  pop\n  jump\t// out\n    /* \"#utility.yul\":6533:6719   */\ntag_54:\n    /* \"#utility.yul\":6593:6713   */\ntag_139:\n    /* \"#utility.yul\":6610:6613   */\n  dup2\n    /* \"#utility.yul\":6603:6608   */\n  dup2\n    /* \"#utility.yul\":6600:6614   */\n  lt\n    /* \"#utility.yul\":6593:6713   */\n  iszero\n  tag_141\n  jumpi\n    /* \"#utility.yul\":6664:6703   */\n  tag_142\n    /* \"#utility.yul\":6701:6702   */\n  0x00\n    /* \"#utility.yul\":6694:6699   */\n  dup3\n    /* \"#utility.yul\":6664:6703   */\n  tag_53\n  jump\t// in\ntag_142:\n    /* \"#utility.yul\":6637:6638   */\n  0x01\n    /* \"#utility.yul\":6630:6635   */\n  dup2\n    /* \"#utility.yul\":6626:6639   */\n  add\n    /* \"#utility.yul\":6617:6639   */\n  swap1\n  pop\n    /* \"#utility.yul\":6593:6713   */\n  jump(tag_139)\ntag_141:\n    /* \"#utility.yul\":6533:6719   */\n  pop\n  pop\n  jump\t// out\n    /* \"#utility.yul\":6725:7268   */\ntag_55:\n    /* \"#utility.yul\":6826:6828   */\n  0x1f\n    /* \"#utility.yul\":6821:6824   */\n  dup3\n    /* \"#utility.yul\":6818:6829   */\n  gt\n    /* \"#utility.yul\":6815:7261   */\n  iszero\n  tag_144\n  jumpi\n    /* \"#utility.yul\":6860:6898   */\n  tag_145\n    /* \"#utility.yul\":6892:6897   */\n  dup2\n    /* \"#utility.yul\":6860:6898   */\n  tag_43\n  jump\t// in\ntag_145:\n    /* \"#utility.yul\":6944:6973   */\n  tag_146\n    /* \"#utility.yul\":6962:6972   */\n  dup5\n    /* \"#utility.yul\":6944:6973   */\n  tag_44\n  jump\t// in\ntag_146:\n    /* \"#utility.yul\":6934:6942   */\n  dup2\n    /* \"#utility.yul\":6930:6974   */\n  add\n    /* \"#utility.yul\":7127:7129   */\n  0x20\n    /* \"#utility.yul\":7115:7125   */\n  dup6\n    /* \"#utility.yul\":7112:7130   */\n  lt\n    /* \"#utility.yul\":7109:7158   */\n  iszero\n  tag_147\n  jumpi\n    /* \"#utility.yul\":7148:7156   */\n  dup2\n    /* \"#utility.yul\":7133:7156   */\n  swap1\n  pop\n    /* \"#utility.yul\":7109:7158   */\ntag_147:\n    /* \"#utility.yul\":7171:7251   */\n  tag_148\n    /* \"#utility.yul\":7227:7249   */\n  tag_149\n    /* \"#utility.yul\":7245:7248   */\n  dup6\n    /* \"#utility.yul\":7227:7249   */\n  tag_44\n  jump\t// in\ntag_149:\n    /* \"#utility.yul\":7217:7225   */\n  dup4\n    /* \"#utility.yul\":7213:7250   */\n  add\n    /* \"#utility.yul\":7200:7211   */\n  dup3\n    /* \"#utility.yul\":7171:7251   */\n  tag_54\n  jump\t// in\ntag_148:\n    /* \"#utility.yul\":6830:7261   */\n  pop\n  pop\n    /* \"#utility.yul\":6815:7261   */\ntag_144:\n    /* \"#utility.yul\":6725:7268   */\n  pop\n  pop\n  pop\n  jump\t// out\n    /* \"#utility.yul\":7274:7391   */\ntag_56:\n    /* \"#utility.yul\":7328:7336   */\n  0x00\n    /* \"#utility.yul\":7378:7383   */\n  dup3\n    /* \"#utility.yul\":7372:7376   */\n  dup3\n    /* \"#utility.yul\":7368:7384   */\n  shr\n    /* \"#utility.yul\":7347:7384   */\n  swap1\n  pop\n    /* \"#utility.yul\":7274:7391   */\n  swap3\n  swap2\n  pop\n  pop\n  jump\t// out\n    /* \"#utility.yul\":7397:7566   */\ntag_57:\n    /* \"#utility.yul\":7441:7447   */\n  0x00\n    /* \"#utility.yul\":7474:7525   */\n  tag_152\n    /* \"#utility.yul\":7522:7523   */\n  0x00\n    /* \"#utility.yul\":7518:7524   */\n  not\n    /* \"#utility.yul\":7510:7515   */\n  dup5\n    /* \"#utility.yul\":7507:7508   */\n  0x08\n    /* \"#utility.yul\":7503:7516   */\n  mul\n    /* \"#utility.yul\":7474:7525   */\n  tag_56\n  jump\t// in\ntag_152:\n    /* \"#utility.yul\":7470:7526   */\n  not\n    /* \"#utility.yul\":7555:7559   */\n  dup1\n    /* \"#utility.yul\":7549:7553   */\n  dup4\n    /* \"#utility.yul\":7545:7560   */\n  and\n    /* \"#utility.yul\":7535:7560   */\n  swap2\n  pop\n    /* \"#utility.yul\":7448:7566   */\n  pop\n    /* \"#utility.yul\":7397:7566   */\n  swap3\n  swap2\n  pop\n  pop\n  jump\t// out\n    /* \"#utility.yul\":7571:7866   */\ntag_58:\n    /* \"#utility.yul\":7647:7651   */\n  0x00\n    /* \"#utility.yul\":7793:7822   */\n  tag_154\n    /* \"#utility.yul\":7818:7821   */\n  dup4\n    /* \"#utility.yul\":7812:7816   */\n  dup4\n    /* \"#utility.yul\":7793:7822   */\n  tag_57\n  jump\t// in\ntag_154:\n    /* \"#utility.yul\":7785:7822   */\n  swap2\n  pop\n    /* \"#utility.yul\":7855:7858   */\n  dup3\n    /* \"#utility.yul\":7852:7853   */\n  0x02\n    /* \"#utility.yul\":7848:7859   */\n  mul\n    /* \"#utility.yul\":7842:7846   */\n  dup3\n    /* \"#utility.yul\":7839:7860   */\n  or\n    /* \"#utility.yul\":7831:7860   */\n  swap1\n  pop\n    /* \"#utility.yul\":7571:7866   */\n  swap3\n  swap2\n  pop\n  pop\n  jump\t// out\n    /* \"#utility.yul\":7871:9266   */\ntag_19:\n    /* \"#utility.yul\":7988:8025   */\n  tag_156\n    /* \"#utility.yul\":8021:8024   */\n  dup3\n    /* \"#utility.yul\":7988:8025   */\n  tag_40\n  jump\t// in\ntag_156:\n    /* \"#utility.yul\":8090:8108   */\n  0xffffffffffffffff\n    /* \"#utility.yul\":8082:8088   */\n  dup2\n    /* \"#utility.yul\":8079:8109   */\n  gt\n    /* \"#utility.yul\":8076:8132   */\n  iszero\n  tag_157\n  jumpi\n    /* \"#utility.yul\":8112:8130   */\n  tag_158\n  tag_33\n  jump\t// in\ntag_158:\n    /* \"#utility.yul\":8076:8132   */\ntag_157:\n    /* \"#utility.yul\":8156:8194   */\n  tag_159\n    /* \"#utility.yul\":8188:8192   */\n  dup3\n    /* \"#utility.yul\":8182:8193   */\n  sload\n    /* \"#utility.yul\":8156:8194   */\n  tag_42\n  jump\t// in\ntag_159:\n    /* \"#utility.yul\":8241:8308   */\n  tag_160\n    /* \"#utility.yul\":8301:8307   */\n  dup3\n    /* \"#utility.yul\":8293:8299   */\n  dup3\n    /* \"#utility.yul\":8287:8291   */\n  dup6\n    /* \"#utility.yul\":8241:8308   */\n  tag_55\n  jump\t// in\ntag_160:\n    /* \"#utility.yul\":8335:8336   */\n  0x00\n    /* \"#utility.yul\":8359:8363   */\n  0x20\n    /* \"#utility.yul\":8346:8363   */\n  swap1\n  pop\n    /* \"#utility.yul\":8391:8393   */\n  0x1f\n    /* \"#utility.yul\":8383:8389   */\n  dup4\n    /* \"#utility.yul\":8380:8394   */\n  gt\n    /* \"#utility.yul\":8408:8409   */\n  0x01\n    /* \"#utility.yul\":8403:9021   */\n  dup2\n  eq\n  tag_162\n  jumpi\n    /* \"#utility.yul\":9065:9066   */\n  0x00\n    /* \"#utility.yul\":9082:9088   */\n  dup5\n    /* \"#utility.yul\":9079:9156   */\n  iszero\n  tag_163\n  jumpi\n    /* \"#utility.yul\":9131:9140   */\n  dup3\n    /* \"#utility.yul\":9126:9129   */\n  dup8\n    /* \"#utility.yul\":9122:9141   */\n  add\n    /* \"#utility.yul\":9116:9142   */\n  mload\n    /* \"#utility.yul\":9107:9142   */\n  swap1\n  pop\n    /* \"#utility.yul\":9079:9156   */\ntag_163:\n    /* \"#utility.yul\":9182:9249   */\n  tag_164\n    /* \"#utility.yul\":9242:9248   */\n  dup6\n    /* \"#utility.yul\":9235:9240   */\n  dup3\n    /* \"#utility.yul\":9182:9249   */\n  tag_58\n  jump\t// in\ntag_164:\n    /* \"#utility.yul\":9176:9180   */\n  dup7\n    /* \"#utility.yul\":9169:9250   */\n  sstore\n    /* \"#utility.yul\":9038:9260   */\n  pop\n    /* \"#utility.yul\":8373:9260   */\n  jump(tag_161)\n    /* \"#utility.yul\":8403:9021   */\ntag_162:\n    /* \"#utility.yul\":8455:8459   */\n  0x1f\n    /* \"#utility.yul\":8451:8460   */\n  not\n    /* \"#utility.yul\":8443:8449   */\n  dup5\n    /* \"#utility.yul\":8439:8461   */\n  and\n    /* \"#utility.yul\":8489:8526   */\n  tag_165\n    /* \"#utility.yul\":8521:8525   */\n  dup7\n    /* \"#utility.yul\":8489:8526   */\n  tag_43\n  jump\t// in\ntag_165:\n    /* \"#utility.yul\":8548:8549   */\n  0x00\n    /* \"#utility.yul\":8562:8770   */\ntag_166:\n    /* \"#utility.yul\":8576:8583   */\n  dup3\n    /* \"#utility.yul\":8573:8574   */\n  dup2\n    /* \"#utility.yul\":8570:8584   */\n  lt\n    /* \"#utility.yul\":8562:8770   */\n  iszero\n  tag_168\n  jumpi\n    /* \"#utility.yul\":8655:8664   */\n  dup5\n    /* \"#utility.yul\":8650:8653   */\n  dup10\n    /* \"#utility.yul\":8646:8665   */\n  add\n    /* \"#utility.yul\":8640:8666   */\n  mload\n    /* \"#utility.yul\":8632:8638   */\n  dup3\n    /* \"#utility.yul\":8625:8667   */\n  sstore\n    /* \"#utility.yul\":8706:8707   */\n  0x01\n    /* \"#utility.yul\":8698:8704   */\n  dup3\n    /* \"#utility.yul\":8694:8708   */\n  add\n    /* \"#utility.yul\":8684:8708   */\n  swap2\n  pop\n    /* \"#utility.yul\":8753:8755   */\n  0x20\n    /* \"#utility.yul\":8742:8751   */\n  dup6\n    /* \"#utility.yul\":8738:8756   */\n  add\n    /* \"#utility.yul\":8725:8756   */\n  swap5\n  pop\n    /* \"#utility.yul\":8599:8603   */\n  0x20\n    /* \"#utility.yul\":8596:8597   */\n  dup2\n    /* \"#utility.yul\":8592:8604   */\n  add\n    /* \"#utility.yul\":8587:8604   */\n  swap1\n  pop\n    /* \"#utility.yul\":8562:8770   */\n  jump(tag_166)\ntag_168:\n    /* \"#utility.yul\":8798:8804   */\n  dup7\n    /* \"#utility.yul\":8789:8796   */\n  dup4\n    /* \"#utility.yul\":8786:8805   */\n  lt\n    /* \"#utility.yul\":8783:8962   */\n  iszero\n  tag_169\n  jumpi\n    /* \"#utility.yul\":8856:8865   */\n  dup5\n    /* \"#utility.yul\":8851:8854   */\n  dup10\n    /* \"#utility.yul\":8847:8866   */\n  add\n    /* \"#utility.yul\":8841:8867   */\n  mload\n    /* \"#utility.yul\":8899:8947   */\n  tag_170\n    /* \"#utility.yul\":8941:8945   */\n  0x1f\n    /* \"#utility.yul\":8933:8939   */\n  dup10\n    /* \"#utility.yul\":8929:8946   */\n  and\n    /* \"#utility.yul\":8918:8927   */\n  dup3\n    /* \"#utility.yul\":8899:8947   */\n  tag_57\n  jump\t// in\ntag_170:\n    /* \"#utility.yul\":8891:8897   */\n  dup4\n    /* \"#utility.yul\":8884:8948   */\n  sstore\n    /* \"#utility.yul\":8806:8962   */\n  pop\n    /* \"#utility.yul\":8783:8962   */\ntag_169:\n    /* \"#utility.yul\":9008:9009   */\n  0x01\n    /* \"#utility.yul\":9004:9005   */\n  0x02\n    /* \"#utility.yul\":8996:9002   */\n  dup9\n    /* \"#utility.yul\":8992:9006   */\n  mul\n    /* \"#utility.yul\":8988:9010   */\n  add\n    /* \"#utility.yul\":8982:8986   */\n  dup9\n    /* \"#utility.yul\":8975:9011   */\n  sstore\n    /* \"#utility.yul\":8410:9021   */\n  pop\n  pop\n  pop\n    /* \"#utility.yul\":8373:9260   */\ntag_161:\n  pop\n    /* \"#utility.yul\":7963:9266   */\n  pop\n  pop\n  pop\n    /* \"#utility.yul\":7871:9266   */\n  pop\n  pop\n  jump\t// out\n    /* \"ptrn_eco_system_dev_contracts/PtrnEcoSystemParticipationDev.sol\":814:10200  contract PtrnEcoSystemParticipation is Pausable, Ownable {... */\ntag_20:\n  mload(0x80)\n  mload(0xa0)\n  codecopy(0x00, dataOffset(sub_0), dataSize(sub_0))\n  0x00\n  assignImmutable(\"0x765257ac7904069d2df513bf5979f3f927ab42f163b276055be4b8deb0e5a482\")\n  0x00\n  assignImmutable(\"0x5fe7a1a414abe991afbda9a853d967f992c558068728d0e3ee148ed2656bb10a\")\n  return(0x00, dataSize(sub_0))\nstop\n\nsub_0: assembly {\n        /* \"ptrn_eco_system_dev_contracts/PtrnEcoSystemParticipationDev.sol\":814:10200  contract PtrnEcoSystemParticipation is Pausable, Ownable {... */\n      mstore(0x40, 0x80)\n      callvalue\n      dup1\n      iszero\n      tag_1\n      jumpi\n      0x00\n      dup1\n      revert\n    tag_1:\n      pop\n      jumpi(tag_2, lt(calldatasize, 0x04))\n      shr(0xe0, calldataload(0x00))\n      dup1\n      0x722713f7\n      gt\n      tag_30\n      jumpi\n      dup1\n      0xb99152d0\n      gt\n      tag_31\n      jumpi\n      dup1\n      0xe8088766\n      gt\n      tag_32\n      jumpi\n      dup1\n      0xe8088766\n      eq\n      tag_26\n      jumpi\n      dup1\n      0xed969c84\n      eq\n      tag_27\n      jumpi\n      dup1\n      0xf2fde38b\n      eq\n      tag_28\n      jumpi\n      dup1\n      0xf9850907\n      eq\n      tag_29\n      jumpi\n      jump(tag_2)\n    tag_32:\n      dup1\n      0xb99152d0\n      eq\n      tag_23\n      jumpi\n      dup1\n      0xba007e75\n      eq\n      tag_24\n      jumpi\n      dup1\n      0xe6367ebe\n      eq\n      tag_25\n      jumpi\n      jump(tag_2)\n    tag_31:\n      dup1\n      0xa24723e8\n      gt\n      tag_33\n      jumpi\n      dup1\n      0xa24723e8\n      eq\n      tag_19\n      jumpi\n      dup1\n      0xa684ab5c\n      eq\n      tag_20\n      jumpi\n      dup1\n      0xabb1dc44\n      eq\n      tag_21\n      jumpi\n      dup1\n      0xb0b5e39e\n      eq\n      tag_22\n      jumpi\n      jump(tag_2)\n    tag_33:\n      dup1\n      0x722713f7\n      eq\n      tag_16\n      jumpi\n      dup1\n      0x7754723e\n      eq\n      tag_17\n      jumpi\n      dup1\n      0x8da5cb5b\n      eq\n      tag_18\n      jumpi\n      jump(tag_2)\n    tag_30:\n      dup1\n      0x0f15f4c0\n      gt\n      tag_34\n      jumpi\n      dup1\n      0x51b42b00\n      gt\n      tag_35\n      jumpi\n      dup1\n      0x51b42b00\n      eq\n      tag_12\n      jumpi\n      dup1\n      0x5c975abb\n      eq\n      tag_13\n      jumpi\n      dup1\n      0x6a9d43dd\n      eq\n      tag_14\n      jumpi\n      dup1\n      0x715018a6\n      eq\n      tag_15\n      jumpi\n      jump(tag_2)\n    tag_35:\n      dup1\n      0x0f15f4c0\n      eq\n      tag_9\n      jumpi\n      dup1\n      0x2af0e251\n      eq\n      tag_10\n      jumpi\n      dup1\n      0x390885f7\n      eq\n      tag_11\n      jumpi\n      jump(tag_2)\n    tag_34:\n      dup1\n      0xf714ce\n      eq\n      tag_3\n      jumpi\n      dup1\n      0x046f7da2\n      eq\n      tag_4\n      jumpi\n      dup1\n      0x07da68f5\n      eq\n      tag_5\n      jumpi\n      dup1\n      0x08fadcb0\n      eq\n      tag_6\n      jumpi\n      dup1\n      0x0a6cb062\n      eq\n      tag_7\n      jumpi\n      dup1\n      0x0ba2f1d8\n      eq\n      tag_8\n      jumpi\n    tag_2:\n      0x00\n      dup1\n      revert\n        /* \"ptrn_eco_system_dev_contracts/PtrnEcoSystemParticipationDev.sol\":7403:7865  function withdraw(uint256 value, address wallet) public onlyOwner {... */\n    tag_3:\n      tag_36\n      0x04\n      dup1\n      calldatasize\n      sub\n      dup2\n      add\n      swap1\n      tag_37\n      swap2\n      swap1\n      tag_38\n      jump\t// in\n    tag_37:\n      tag_39\n      jump\t// in\n    tag_36:\n      stop\n        /* \"ptrn_eco_system_dev_contracts/PtrnEcoSystemParticipationDev.sol\":3391:3464  function resume() public whenPaused onlyOwner {... */\n    tag_4:\n      tag_40\n      tag_41\n      jump\t// in\n    tag_40:\n      stop\n        /* \"ptrn_eco_system_dev_contracts/PtrnEcoSystemParticipationDev.sol\":3313:3385  function stop() public whenNotPaused onlyOwner {... */\n    tag_5:\n      tag_42\n      tag_43\n      jump\t// in\n    tag_42:\n      stop\n        /* \"ptrn_eco_system_dev_contracts/PtrnEcoSystemParticipationDev.sol\":9747:9904  function getAcceptedSenderAddress()... */\n    tag_6:\n      tag_44\n      tag_45\n      jump\t// in\n    tag_44:\n      mload(0x40)\n      tag_46\n      swap2\n      swap1\n      tag_47\n      jump\t// in\n    tag_46:\n      mload(0x40)\n      dup1\n      swap2\n      sub\n      swap1\n      return\n        /* \"ptrn_eco_system_dev_contracts/PtrnEcoSystemParticipationDev.sol\":4150:4427  function addNewAggregatorPriceFeed(address _ConsumerInterfaceAddress)... */\n    tag_7:\n      tag_48\n      0x04\n      dup1\n      calldatasize\n      sub\n      dup2\n      add\n      swap1\n      tag_49\n      swap2\n      swap1\n      tag_50\n      jump\t// in\n    tag_49:\n      tag_51\n      jump\t// in\n    tag_48:\n      stop\n        /* \"ptrn_eco_system_dev_contracts/PtrnEcoSystemParticipationDev.sol\":3057:3307  function changeAcceptedSenderAddress(address newAcceptedSender)... */\n    tag_8:\n      tag_52\n      0x04\n      dup1\n      calldatasize\n      sub\n      dup2\n      add\n      swap1\n      tag_53\n      swap2\n      swap1\n      tag_50\n      jump\t// in\n    tag_53:\n      tag_54\n      jump\t// in\n    tag_52:\n      stop\n        /* \"ptrn_eco_system_dev_contracts/PtrnEcoSystemParticipationDev.sol\":2562:2872  function activate() public whenNotPaused {... */\n    tag_9:\n      tag_55\n      tag_56\n      jump\t// in\n    tag_55:\n      stop\n        /* \"ptrn_eco_system_dev_contracts/PtrnEcoSystemParticipationDev.sol\":9016:9189  function getTotalBurnedTokens()... */\n    tag_10:\n      tag_57\n      tag_58\n      jump\t// in\n    tag_57:\n      mload(0x40)\n      tag_59\n      swap2\n      swap1\n      tag_60\n      jump\t// in\n    tag_59:\n      mload(0x40)\n      dup1\n      swap2\n      sub\n      swap1\n      return\n        /* \"ptrn_eco_system_dev_contracts/PtrnEcoSystemParticipationDev.sol\":7871:8250  function initiateBulkMint() public onlyOwner {... */\n    tag_11:\n      tag_61\n      tag_62\n      jump\t// in\n    tag_61:\n      stop\n        /* \"ptrn_eco_system_dev_contracts/PtrnEcoSystemParticipationDev.sol\":2878:3051  function deactivate() public activated onlyAuthorized whenNotPaused {... */\n    tag_12:\n      tag_63\n      tag_64\n      jump\t// in\n    tag_63:\n      stop\n        /* \"@openzeppelin/contracts/security/Pausable.sol\":1615:1699  function paused() public view virtual returns (bool) {... */\n    tag_13:\n      tag_65\n      tag_66\n      jump\t// in\n    tag_65:\n      mload(0x40)\n      tag_67\n      swap2\n      swap1\n      tag_68\n      jump\t// in\n    tag_67:\n      mload(0x40)\n      dup1\n      swap2\n      sub\n      swap1\n      return\n        /* \"ptrn_eco_system_dev_contracts/PtrnEcoSystemParticipationDev.sol\":8500:8794  function transferOfToken(... */\n    tag_14:\n      tag_69\n      0x04\n      dup1\n      calldatasize\n      sub\n      dup2\n      add\n      swap1\n      tag_70\n      swap2\n      swap1\n      tag_71\n      jump\t// in\n    tag_70:\n      tag_72\n      jump\t// in\n    tag_69:\n      mload(0x40)\n      tag_73\n      swap2\n      swap1\n      tag_68\n      jump\t// in\n    tag_73:\n      mload(0x40)\n      dup1\n      swap2\n      sub\n      swap1\n      return\n        /* \"@openzeppelin/contracts/access/Ownable.sol\":1831:1932  function renounceOwnership() public virtual onlyOwner {... */\n    tag_15:\n      tag_74\n      tag_75\n      jump\t// in\n    tag_74:\n      stop\n        /* \"ptrn_eco_system_dev_contracts/PtrnEcoSystemParticipationDev.sol\":7282:7397  function balanceOf() public view onlyOwner returns (uint256) {... */\n    tag_16:\n      tag_76\n      tag_77\n      jump\t// in\n    tag_76:\n      mload(0x40)\n      tag_78\n      swap2\n      swap1\n      tag_60\n      jump\t// in\n    tag_78:\n      mload(0x40)\n      dup1\n      swap2\n      sub\n      swap1\n      return\n        /* \"ptrn_eco_system_dev_contracts/PtrnEcoSystemParticipationDev.sol\":5721:6051  function calculateAmount(... */\n    tag_17:\n      tag_79\n      0x04\n      dup1\n      calldatasize\n      sub\n      dup2\n      add\n      swap1\n      tag_80\n      swap2\n      swap1\n      tag_81\n      jump\t// in\n    tag_80:\n      tag_82\n      jump\t// in\n    tag_79:\n      mload(0x40)\n      tag_83\n      swap2\n      swap1\n      tag_60\n      jump\t// in\n    tag_83:\n      mload(0x40)\n      dup1\n      swap2\n      sub\n      swap1\n      return\n        /* \"@openzeppelin/contracts/access/Ownable.sol\":1201:1286  function owner() public view virtual returns (address) {... */\n    tag_18:\n      tag_84\n      tag_85\n      jump\t// in\n    tag_84:\n      mload(0x40)\n      tag_86\n      swap2\n      swap1\n      tag_47\n      jump\t// in\n    tag_86:\n      mload(0x40)\n      dup1\n      swap2\n      sub\n      swap1\n      return\n        /* \"ptrn_eco_system_dev_contracts/PtrnEcoSystemParticipationDev.sol\":9570:9741  function getDailyWithdraw()... */\n    tag_19:\n      tag_87\n      tag_88\n      jump\t// in\n    tag_87:\n      mload(0x40)\n      tag_89\n      swap2\n      swap1\n      tag_60\n      jump\t// in\n    tag_89:\n      mload(0x40)\n      dup1\n      swap2\n      sub\n      swap1\n      return\n        /* \"ptrn_eco_system_dev_contracts/PtrnEcoSystemParticipationDev.sol\":9195:9374  function getTotalPointsGenerated()... */\n    tag_20:\n      tag_90\n      tag_91\n      jump\t// in\n    tag_90:\n      mload(0x40)\n      tag_92\n      swap2\n      swap1\n      tag_60\n      jump\t// in\n    tag_92:\n      mload(0x40)\n      dup1\n      swap2\n      sub\n      swap1\n      return\n        /* \"ptrn_eco_system_dev_contracts/PtrnEcoSystemParticipationDev.sol\":10018:10198  function getTokenInfo()... */\n    tag_21:\n      tag_93\n      tag_94\n      jump\t// in\n    tag_93:\n      mload(0x40)\n      tag_95\n      swap3\n      swap2\n      swap1\n      tag_96\n      jump\t// in\n    tag_95:\n      mload(0x40)\n      dup1\n      swap2\n      sub\n      swap1\n      return\n        /* \"ptrn_eco_system_dev_contracts/PtrnEcoSystemParticipationDev.sol\":4433:4669  function addNewPoolRateFeed(address _ConsumerInterfaceAddress)... */\n    tag_22:\n      tag_97\n      0x04\n      dup1\n      calldatasize\n      sub\n      dup2\n      add\n      swap1\n      tag_98\n      swap2\n      swap1\n      tag_50\n      jump\t// in\n    tag_98:\n      tag_99\n      jump\t// in\n    tag_97:\n      stop\n        /* \"ptrn_eco_system_dev_contracts/PtrnEcoSystemParticipationDev.sol\":8303:8494  function balanceOfToken(address tokenAddress)... */\n    tag_23:\n      tag_100\n      0x04\n      dup1\n      calldatasize\n      sub\n      dup2\n      add\n      swap1\n      tag_101\n      swap2\n      swap1\n      tag_50\n      jump\t// in\n    tag_101:\n      tag_102\n      jump\t// in\n    tag_100:\n      mload(0x40)\n      tag_103\n      swap2\n      swap1\n      tag_60\n      jump\t// in\n    tag_103:\n      mload(0x40)\n      dup1\n      swap2\n      sub\n      swap1\n      return\n        /* \"ptrn_eco_system_dev_contracts/PtrnEcoSystemParticipationDev.sol\":9910:10012  function getInitialActivationAddress() public view returns (address) {... */\n    tag_24:\n      tag_104\n      tag_105\n      jump\t// in\n    tag_104:\n      mload(0x40)\n      tag_106\n      swap2\n      swap1\n      tag_47\n      jump\t// in\n    tag_106:\n      mload(0x40)\n      dup1\n      swap2\n      sub\n      swap1\n      return\n        /* \"ptrn_eco_system_dev_contracts/PtrnEcoSystemParticipationDev.sol\":3945:4144  function currentRateFeed() public view onlyOwner returns (string memory) {... */\n    tag_25:\n      tag_107\n      tag_108\n      jump\t// in\n    tag_107:\n      mload(0x40)\n      tag_109\n      swap2\n      swap1\n      tag_110\n      jump\t// in\n    tag_109:\n      mload(0x40)\n      dup1\n      swap2\n      sub\n      swap1\n      return\n        /* \"ptrn_eco_system_dev_contracts/PtrnEcoSystemParticipationDev.sol\":3470:3939  function changeRateFeed() public onlyOwner {... */\n    tag_26:\n      tag_111\n      tag_112\n      jump\t// in\n    tag_111:\n      stop\n        /* \"ptrn_eco_system_dev_contracts/PtrnEcoSystemParticipationDev.sol\":6057:7276  function chargeContract(uint256 amount)... */\n    tag_27:\n      tag_113\n      0x04\n      dup1\n      calldatasize\n      sub\n      dup2\n      add\n      swap1\n      tag_114\n      swap2\n      swap1\n      tag_115\n      jump\t// in\n    tag_114:\n      tag_116\n      jump\t// in\n    tag_113:\n      mload(0x40)\n      tag_117\n      swap2\n      swap1\n      tag_68\n      jump\t// in\n    tag_117:\n      mload(0x40)\n      dup1\n      swap2\n      sub\n      swap1\n      return\n        /* \"@openzeppelin/contracts/access/Ownable.sol\":2081:2279  function transferOwnership(address newOwner) public virtual onlyOwner {... */\n    tag_28:\n      tag_118\n      0x04\n      dup1\n      calldatasize\n      sub\n      dup2\n      add\n      swap1\n      tag_119\n      swap2\n      swap1\n      tag_50\n      jump\t// in\n    tag_119:\n      tag_120\n      jump\t// in\n    tag_118:\n      stop\n        /* \"ptrn_eco_system_dev_contracts/PtrnEcoSystemParticipationDev.sol\":9380:9564  function getCurrentPointsBalance()... */\n    tag_29:\n      tag_121\n      tag_122\n      jump\t// in\n    tag_121:\n      mload(0x40)\n      tag_123\n      swap2\n      swap1\n      tag_60\n      jump\t// in\n    tag_123:\n      mload(0x40)\n      dup1\n      swap2\n      sub\n      swap1\n      return\n        /* \"ptrn_eco_system_dev_contracts/PtrnEcoSystemParticipationDev.sol\":7403:7865  function withdraw(uint256 value, address wallet) public onlyOwner {... */\n    tag_39:\n        /* \"@openzeppelin/contracts/access/Ownable.sol\":1094:1107  _checkOwner() */\n      tag_125\n        /* \"@openzeppelin/contracts/access/Ownable.sol\":1094:1105  _checkOwner */\n      tag_126\n        /* \"@openzeppelin/contracts/access/Ownable.sol\":1094:1107  _checkOwner() */\n      jump\t// in\n    tag_125:\n        /* \"ptrn_eco_system_dev_contracts/PtrnEcoSystemParticipationDev.sol\":7531:7544  dailyWithdraw */\n      sload(0x05)\n        /* \"ptrn_eco_system_dev_contracts/PtrnEcoSystemParticipationDev.sol\":7509:7528  availableToWithdraw */\n      sload(0x04)\n        /* \"ptrn_eco_system_dev_contracts/PtrnEcoSystemParticipationDev.sol\":7509:7544  availableToWithdraw - dailyWithdraw */\n      tag_128\n      swap2\n      swap1\n      tag_129\n      jump\t// in\n    tag_128:\n        /* \"ptrn_eco_system_dev_contracts/PtrnEcoSystemParticipationDev.sol\":7500:7505  value */\n      dup3\n        /* \"ptrn_eco_system_dev_contracts/PtrnEcoSystemParticipationDev.sol\":7500:7544  value <= availableToWithdraw - dailyWithdraw */\n      gt\n      iszero\n        /* \"ptrn_eco_system_dev_contracts/PtrnEcoSystemParticipationDev.sol\":7667:7678  tokenSymbol */\n      0x06\n        /* \"ptrn_eco_system_dev_contracts/PtrnEcoSystemParticipationDev.sol\":7558:7692  string.concat(... */\n      add(0x20, mload(0x40))\n      tag_130\n      swap2\n      swap1\n      tag_131\n      jump\t// in\n    tag_130:\n      mload(0x40)\n      0x20\n      dup2\n      dup4\n      sub\n      sub\n      dup2\n      mstore\n      swap1\n      0x40\n      mstore\n        /* \"ptrn_eco_system_dev_contracts/PtrnEcoSystemParticipationDev.sol\":7479:7702  require(... */\n      swap1\n      tag_132\n      jumpi\n      mload(0x40)\n      0x08c379a000000000000000000000000000000000000000000000000000000000\n      dup2\n      mstore\n      0x04\n      add\n      tag_133\n      swap2\n      swap1\n      tag_110\n      jump\t// in\n    tag_133:\n      mload(0x40)\n      dup1\n      swap2\n      sub\n      swap1\n      revert\n    tag_132:\n      pop\n        /* \"ptrn_eco_system_dev_contracts/PtrnEcoSystemParticipationDev.sol\":7728:7729  0 */\n      0x00\n        /* \"ptrn_eco_system_dev_contracts/PtrnEcoSystemParticipationDev.sol\":7720:7725  value */\n      dup3\n        /* \"ptrn_eco_system_dev_contracts/PtrnEcoSystemParticipationDev.sol\":7720:7729  value > 0 */\n      gt\n        /* \"ptrn_eco_system_dev_contracts/PtrnEcoSystemParticipationDev.sol\":7712:7771  require(value > 0, \"Withdraw value must be greater than 0\") */\n      tag_134\n      jumpi\n      mload(0x40)\n      0x08c379a000000000000000000000000000000000000000000000000000000000\n      dup2\n      mstore\n      0x04\n      add\n      tag_135\n      swap1\n      tag_136\n      jump\t// in\n    tag_135:\n      mload(0x40)\n      dup1\n      swap2\n      sub\n      swap1\n      revert\n    tag_134:\n        /* \"ptrn_eco_system_dev_contracts/PtrnEcoSystemParticipationDev.sol\":7798:7803  value */\n      dup2\n        /* \"ptrn_eco_system_dev_contracts/PtrnEcoSystemParticipationDev.sol\":7781:7794  dailyWithdraw */\n      0x05\n      0x00\n        /* \"ptrn_eco_system_dev_contracts/PtrnEcoSystemParticipationDev.sol\":7781:7803  dailyWithdraw += value */\n      dup3\n      dup3\n      sload\n      tag_137\n      swap2\n      swap1\n      tag_138\n      jump\t// in\n    tag_137:\n      swap3\n      pop\n      pop\n      dup2\n      swap1\n      sstore\n      pop\n        /* \"ptrn_eco_system_dev_contracts/PtrnEcoSystemParticipationDev.sol\":7851:7857  wallet */\n      dup1\n        /* \"ptrn_eco_system_dev_contracts/PtrnEcoSystemParticipationDev.sol\":7818:7858  Withdraw(block.timestamp, value, wallet) */\n      0xffffffffffffffffffffffffffffffffffffffff\n      and\n        /* \"ptrn_eco_system_dev_contracts/PtrnEcoSystemParticipationDev.sol\":7827:7842  block.timestamp */\n      timestamp\n        /* \"ptrn_eco_system_dev_contracts/PtrnEcoSystemParticipationDev.sol\":7818:7858  Withdraw(block.timestamp, value, wallet) */\n      0x71ef96c43343734b1d843bb85d52ef329f5e9143e4d35827771e3b0dd90c5f84\n        /* \"ptrn_eco_system_dev_contracts/PtrnEcoSystemParticipationDev.sol\":7844:7849  value */\n      dup5\n        /* \"ptrn_eco_system_dev_contracts/PtrnEcoSystemParticipationDev.sol\":7818:7858  Withdraw(block.timestamp, value, wallet) */\n      mload(0x40)\n      tag_139\n      swap2\n      swap1\n      tag_60\n      jump\t// in\n    tag_139:\n      mload(0x40)\n      dup1\n      swap2\n      sub\n      swap1\n      log3\n        /* \"ptrn_eco_system_dev_contracts/PtrnEcoSystemParticipationDev.sol\":7403:7865  function withdraw(uint256 value, address wallet) public onlyOwner {... */\n      pop\n      pop\n      jump\t// out\n        /* \"ptrn_eco_system_dev_contracts/PtrnEcoSystemParticipationDev.sol\":3391:3464  function resume() public whenPaused onlyOwner {... */\n    tag_41:\n        /* \"@openzeppelin/contracts/security/Pausable.sol\":1486:1502  _requirePaused() */\n      tag_141\n        /* \"@openzeppelin/contracts/security/Pausable.sol\":1486:1500  _requirePaused */\n      tag_142\n        /* \"@openzeppelin/contracts/security/Pausable.sol\":1486:1502  _requirePaused() */\n      jump\t// in\n    tag_141:\n        /* \"@openzeppelin/contracts/access/Ownable.sol\":1094:1107  _checkOwner() */\n      tag_144\n        /* \"@openzeppelin/contracts/access/Ownable.sol\":1094:1105  _checkOwner */\n      tag_126\n        /* \"@openzeppelin/contracts/access/Ownable.sol\":1094:1107  _checkOwner() */\n      jump\t// in\n    tag_144:\n        /* \"ptrn_eco_system_dev_contracts/PtrnEcoSystemParticipationDev.sol\":3447:3457  _unpause() */\n      tag_146\n        /* \"ptrn_eco_system_dev_contracts/PtrnEcoSystemParticipationDev.sol\":3447:3455  _unpause */\n      tag_147\n        /* \"ptrn_eco_system_dev_contracts/PtrnEcoSystemParticipationDev.sol\":3447:3457  _unpause() */\n      jump\t// in\n    tag_146:\n        /* \"ptrn_eco_system_dev_contracts/PtrnEcoSystemParticipationDev.sol\":3391:3464  function resume() public whenPaused onlyOwner {... */\n      jump\t// out\n        /* \"ptrn_eco_system_dev_contracts/PtrnEcoSystemParticipationDev.sol\":3313:3385  function stop() public whenNotPaused onlyOwner {... */\n    tag_43:\n        /* \"@openzeppelin/contracts/security/Pausable.sol\":1239:1258  _requireNotPaused() */\n      tag_149\n        /* \"@openzeppelin/contracts/security/Pausable.sol\":1239:1256  _requireNotPaused */\n      tag_150\n        /* \"@openzeppelin/contracts/security/Pausable.sol\":1239:1258  _requireNotPaused() */\n      jump\t// in\n    tag_149:\n        /* \"@openzeppelin/contracts/access/Ownable.sol\":1094:1107  _checkOwner() */\n      tag_152\n        /* \"@openzeppelin/contracts/access/Ownable.sol\":1094:1105  _checkOwner */\n      tag_126\n        /* \"@openzeppelin/contracts/access/Ownable.sol\":1094:1107  _checkOwner() */\n      jump\t// in\n    tag_152:\n        /* \"ptrn_eco_system_dev_contracts/PtrnEcoSystemParticipationDev.sol\":3370:3378  _pause() */\n      tag_154\n        /* \"ptrn_eco_system_dev_contracts/PtrnEcoSystemParticipationDev.sol\":3370:3376  _pause */\n      tag_155\n        /* \"ptrn_eco_system_dev_contracts/PtrnEcoSystemParticipationDev.sol\":3370:3378  _pause() */\n      jump\t// in\n    tag_154:\n        /* \"ptrn_eco_system_dev_contracts/PtrnEcoSystemParticipationDev.sol\":3313:3385  function stop() public whenNotPaused onlyOwner {... */\n      jump\t// out\n        /* \"ptrn_eco_system_dev_contracts/PtrnEcoSystemParticipationDev.sol\":9747:9904  function getAcceptedSenderAddress()... */\n    tag_45:\n        /* \"ptrn_eco_system_dev_contracts/PtrnEcoSystemParticipationDev.sol\":9846:9853  address */\n      0x00\n        /* \"ptrn_eco_system_dev_contracts/PtrnEcoSystemParticipationDev.sol\":1510:1511  0 */\n      dup1\n        /* \"ptrn_eco_system_dev_contracts/PtrnEcoSystemParticipationDev.sol\":1477:1512  acceptedSenderAddress != address(0) */\n      0xffffffffffffffffffffffffffffffffffffffff\n      and\n        /* \"ptrn_eco_system_dev_contracts/PtrnEcoSystemParticipationDev.sol\":1477:1498  acceptedSenderAddress */\n      0x01\n      0x00\n      swap1\n      sload\n      swap1\n      0x0100\n      exp\n      swap1\n      div\n      0xffffffffffffffffffffffffffffffffffffffff\n      and\n        /* \"ptrn_eco_system_dev_contracts/PtrnEcoSystemParticipationDev.sol\":1477:1512  acceptedSenderAddress != address(0) */\n      0xffffffffffffffffffffffffffffffffffffffff\n      and\n      sub\n        /* \"ptrn_eco_system_dev_contracts/PtrnEcoSystemParticipationDev.sol\":1469:1531  require(acceptedSenderAddress != address(0), \"Not activated.\") */\n      tag_157\n      jumpi\n      mload(0x40)\n      0x08c379a000000000000000000000000000000000000000000000000000000000\n      dup2\n      mstore\n      0x04\n      add\n      tag_158\n      swap1\n      tag_159\n      jump\t// in\n    tag_158:\n      mload(0x40)\n      dup1\n      swap2\n      sub\n      swap1\n      revert\n    tag_157:\n        /* \"ptrn_eco_system_dev_contracts/PtrnEcoSystemParticipationDev.sol\":9876:9897  acceptedSenderAddress */\n      0x01\n      0x00\n      swap1\n      sload\n      swap1\n      0x0100\n      exp\n      swap1\n      div\n      0xffffffffffffffffffffffffffffffffffffffff\n      and\n        /* \"ptrn_eco_system_dev_contracts/PtrnEcoSystemParticipationDev.sol\":9869:9897  return acceptedSenderAddress */\n      swap1\n      pop\n        /* \"ptrn_eco_system_dev_contracts/PtrnEcoSystemParticipationDev.sol\":9747:9904  function getAcceptedSenderAddress()... */\n      swap1\n      jump\t// out\n        /* \"ptrn_eco_system_dev_contracts/PtrnEcoSystemParticipationDev.sol\":4150:4427  function addNewAggregatorPriceFeed(address _ConsumerInterfaceAddress)... */\n    tag_51:\n        /* \"@openzeppelin/contracts/access/Ownable.sol\":1094:1107  _checkOwner() */\n      tag_162\n        /* \"@openzeppelin/contracts/access/Ownable.sol\":1094:1105  _checkOwner */\n      tag_126\n        /* \"@openzeppelin/contracts/access/Ownable.sol\":1094:1107  _checkOwner() */\n      jump\t// in\n    tag_162:\n        /* \"ptrn_eco_system_dev_contracts/PtrnEcoSystemParticipationDev.sol\":4310:4311  0 */\n      0x00\n        /* \"ptrn_eco_system_dev_contracts/PtrnEcoSystemParticipationDev.sol\":4275:4312  _ConsumerInterfaceAddress!=address(0) */\n      0xffffffffffffffffffffffffffffffffffffffff\n      and\n        /* \"ptrn_eco_system_dev_contracts/PtrnEcoSystemParticipationDev.sol\":4275:4300  _ConsumerInterfaceAddress */\n      dup2\n        /* \"ptrn_eco_system_dev_contracts/PtrnEcoSystemParticipationDev.sol\":4275:4312  _ConsumerInterfaceAddress!=address(0) */\n      0xffffffffffffffffffffffffffffffffffffffff\n      and\n      sub\n        /* \"ptrn_eco_system_dev_contracts/PtrnEcoSystemParticipationDev.sol\":4267:4313  require(_ConsumerInterfaceAddress!=address(0)) */\n      tag_164\n      jumpi\n      0x00\n      dup1\n      revert\n    tag_164:\n        /* \"ptrn_eco_system_dev_contracts/PtrnEcoSystemParticipationDev.sol\":4385:4410  _ConsumerInterfaceAddress */\n      dup1\n        /* \"ptrn_eco_system_dev_contracts/PtrnEcoSystemParticipationDev.sol\":4323:4341  aggregatorConsumer */\n      0x07\n      0x00\n        /* \"ptrn_eco_system_dev_contracts/PtrnEcoSystemParticipationDev.sol\":4323:4420  aggregatorConsumer = AggregatorConsumerInterface(... */\n      0x0100\n      exp\n      dup2\n      sload\n      dup2\n      0xffffffffffffffffffffffffffffffffffffffff\n      mul\n      not\n      and\n      swap1\n      dup4\n      0xffffffffffffffffffffffffffffffffffffffff\n      and\n      mul\n      or\n      swap1\n      sstore\n      pop\n        /* \"ptrn_eco_system_dev_contracts/PtrnEcoSystemParticipationDev.sol\":4150:4427  function addNewAggregatorPriceFeed(address _ConsumerInterfaceAddress)... */\n      pop\n      jump\t// out\n        /* \"ptrn_eco_system_dev_contracts/PtrnEcoSystemParticipationDev.sol\":3057:3307  function changeAcceptedSenderAddress(address newAcceptedSender)... */\n    tag_54:\n        /* \"ptrn_eco_system_dev_contracts/PtrnEcoSystemParticipationDev.sol\":1510:1511  0 */\n      0x00\n        /* \"ptrn_eco_system_dev_contracts/PtrnEcoSystemParticipationDev.sol\":1477:1512  acceptedSenderAddress != address(0) */\n      0xffffffffffffffffffffffffffffffffffffffff\n      and\n        /* \"ptrn_eco_system_dev_contracts/PtrnEcoSystemParticipationDev.sol\":1477:1498  acceptedSenderAddress */\n      0x01\n      0x00\n      swap1\n      sload\n      swap1\n      0x0100\n      exp\n      swap1\n      div\n      0xffffffffffffffffffffffffffffffffffffffff\n      and\n        /* \"ptrn_eco_system_dev_contracts/PtrnEcoSystemParticipationDev.sol\":1477:1512  acceptedSenderAddress != address(0) */\n      0xffffffffffffffffffffffffffffffffffffffff\n      and\n      sub\n        /* \"ptrn_eco_system_dev_contracts/PtrnEcoSystemParticipationDev.sol\":1469:1531  require(acceptedSenderAddress != address(0), \"Not activated.\") */\n      tag_166\n      jumpi\n      mload(0x40)\n      0x08c379a000000000000000000000000000000000000000000000000000000000\n      dup2\n      mstore\n      0x04\n      add\n      tag_167\n      swap1\n      tag_159\n      jump\t// in\n    tag_167:\n      mload(0x40)\n      dup1\n      swap2\n      sub\n      swap1\n      revert\n    tag_166:\n        /* \"ptrn_eco_system_dev_contracts/PtrnEcoSystemParticipationDev.sol\":1373:1394  acceptedSenderAddress */\n      0x01\n      0x00\n      swap1\n      sload\n      swap1\n      0x0100\n      exp\n      swap1\n      div\n      0xffffffffffffffffffffffffffffffffffffffff\n      and\n        /* \"ptrn_eco_system_dev_contracts/PtrnEcoSystemParticipationDev.sol\":1359:1394  msg.sender == acceptedSenderAddress */\n      0xffffffffffffffffffffffffffffffffffffffff\n      and\n        /* \"ptrn_eco_system_dev_contracts/PtrnEcoSystemParticipationDev.sol\":1359:1369  msg.sender */\n      caller\n        /* \"ptrn_eco_system_dev_contracts/PtrnEcoSystemParticipationDev.sol\":1359:1394  msg.sender == acceptedSenderAddress */\n      0xffffffffffffffffffffffffffffffffffffffff\n      and\n      eq\n        /* \"ptrn_eco_system_dev_contracts/PtrnEcoSystemParticipationDev.sol\":1351:1414  require(msg.sender == acceptedSenderAddress, \"Not Authorized!\") */\n      tag_169\n      jumpi\n      mload(0x40)\n      0x08c379a000000000000000000000000000000000000000000000000000000000\n      dup2\n      mstore\n      0x04\n      add\n      tag_170\n      swap1\n      tag_171\n      jump\t// in\n    tag_170:\n      mload(0x40)\n      dup1\n      swap2\n      sub\n      swap1\n      revert\n    tag_169:\n        /* \"ptrn_eco_system_dev_contracts/PtrnEcoSystemParticipationDev.sol\":1510:1511  0 */\n      0x00\n        /* \"ptrn_eco_system_dev_contracts/PtrnEcoSystemParticipationDev.sol\":1477:1512  acceptedSenderAddress != address(0) */\n      0xffffffffffffffffffffffffffffffffffffffff\n      and\n        /* \"ptrn_eco_system_dev_contracts/PtrnEcoSystemParticipationDev.sol\":1477:1498  acceptedSenderAddress */\n      0x01\n      0x00\n      swap1\n      sload\n      swap1\n      0x0100\n      exp\n      swap1\n      div\n      0xffffffffffffffffffffffffffffffffffffffff\n      and\n        /* \"ptrn_eco_system_dev_contracts/PtrnEcoSystemParticipationDev.sol\":1477:1512  acceptedSenderAddress != address(0) */\n      0xffffffffffffffffffffffffffffffffffffffff\n      and\n      sub\n        /* \"ptrn_eco_system_dev_contracts/PtrnEcoSystemParticipationDev.sol\":1469:1531  require(acceptedSenderAddress != address(0), \"Not activated.\") */\n      tag_173\n      jumpi\n      mload(0x40)\n      0x08c379a000000000000000000000000000000000000000000000000000000000\n      dup2\n      mstore\n      0x04\n      add\n      tag_174\n      swap1\n      tag_159\n      jump\t// in\n    tag_174:\n      mload(0x40)\n      dup1\n      swap2\n      sub\n      swap1\n      revert\n    tag_173:\n        /* \"ptrn_eco_system_dev_contracts/PtrnEcoSystemParticipationDev.sol\":3246:3247  0 */\n      0x00\n        /* \"ptrn_eco_system_dev_contracts/PtrnEcoSystemParticipationDev.sol\":3217:3248  newAcceptedSender != address(0) */\n      0xffffffffffffffffffffffffffffffffffffffff\n      and\n        /* \"ptrn_eco_system_dev_contracts/PtrnEcoSystemParticipationDev.sol\":3217:3234  newAcceptedSender */\n      dup2\n        /* \"ptrn_eco_system_dev_contracts/PtrnEcoSystemParticipationDev.sol\":3217:3248  newAcceptedSender != address(0) */\n      0xffffffffffffffffffffffffffffffffffffffff\n      and\n      sub\n        /* \"ptrn_eco_system_dev_contracts/PtrnEcoSystemParticipationDev.sol\":3209:3249  require(newAcceptedSender != address(0)) */\n      tag_176\n      jumpi\n      0x00\n      dup1\n      revert\n    tag_176:\n        /* \"ptrn_eco_system_dev_contracts/PtrnEcoSystemParticipationDev.sol\":3283:3300  newAcceptedSender */\n      dup1\n        /* \"ptrn_eco_system_dev_contracts/PtrnEcoSystemParticipationDev.sol\":3259:3280  acceptedSenderAddress */\n      0x01\n      0x00\n        /* \"ptrn_eco_system_dev_contracts/PtrnEcoSystemParticipationDev.sol\":3259:3300  acceptedSenderAddress = newAcceptedSender */\n      0x0100\n      exp\n      dup2\n      sload\n      dup2\n      0xffffffffffffffffffffffffffffffffffffffff\n      mul\n      not\n      and\n      swap1\n      dup4\n      0xffffffffffffffffffffffffffffffffffffffff\n      and\n      mul\n      or\n      swap1\n      sstore\n      pop\n        /* \"ptrn_eco_system_dev_contracts/PtrnEcoSystemParticipationDev.sol\":3057:3307  function changeAcceptedSenderAddress(address newAcceptedSender)... */\n      pop\n      jump\t// out\n        /* \"ptrn_eco_system_dev_contracts/PtrnEcoSystemParticipationDev.sol\":2562:2872  function activate() public whenNotPaused {... */\n    tag_56:\n        /* \"@openzeppelin/contracts/security/Pausable.sol\":1239:1258  _requireNotPaused() */\n      tag_178\n        /* \"@openzeppelin/contracts/security/Pausable.sol\":1239:1256  _requireNotPaused */\n      tag_150\n        /* \"@openzeppelin/contracts/security/Pausable.sol\":1239:1258  _requireNotPaused() */\n      jump\t// in\n    tag_178:\n        /* \"ptrn_eco_system_dev_contracts/PtrnEcoSystemParticipationDev.sol\":2634:2644  msg.sender */\n      caller\n        /* \"ptrn_eco_system_dev_contracts/PtrnEcoSystemParticipationDev.sol\":2621:2644  ACTIVATOR == msg.sender */\n      0xffffffffffffffffffffffffffffffffffffffff\n      and\n        /* \"ptrn_eco_system_dev_contracts/PtrnEcoSystemParticipationDev.sol\":2621:2630  ACTIVATOR */\n      immutable(\"0x5fe7a1a414abe991afbda9a853d967f992c558068728d0e3ee148ed2656bb10a\")\n        /* \"ptrn_eco_system_dev_contracts/PtrnEcoSystemParticipationDev.sol\":2621:2644  ACTIVATOR == msg.sender */\n      0xffffffffffffffffffffffffffffffffffffffff\n      and\n      eq\n        /* \"ptrn_eco_system_dev_contracts/PtrnEcoSystemParticipationDev.sol\":2613:2682  require(ACTIVATOR == msg.sender, \"Can't activate with this address!\") */\n      tag_180\n      jumpi\n      mload(0x40)\n      0x08c379a000000000000000000000000000000000000000000000000000000000\n      dup2\n      mstore\n      0x04\n      add\n      tag_181\n      swap1\n      tag_182\n      jump\t// in\n    tag_181:\n      mload(0x40)\n      dup1\n      swap2\n      sub\n      swap1\n      revert\n    tag_180:\n        /* \"ptrn_eco_system_dev_contracts/PtrnEcoSystemParticipationDev.sol\":2733:2734  0 */\n      0x00\n        /* \"ptrn_eco_system_dev_contracts/PtrnEcoSystemParticipationDev.sol\":2700:2735  acceptedSenderAddress == address(0) */\n      0xffffffffffffffffffffffffffffffffffffffff\n      and\n        /* \"ptrn_eco_system_dev_contracts/PtrnEcoSystemParticipationDev.sol\":2700:2721  acceptedSenderAddress */\n      0x01\n      0x00\n      swap1\n      sload\n      swap1\n      0x0100\n      exp\n      swap1\n      div\n      0xffffffffffffffffffffffffffffffffffffffff\n      and\n        /* \"ptrn_eco_system_dev_contracts/PtrnEcoSystemParticipationDev.sol\":2700:2735  acceptedSenderAddress == address(0) */\n      0xffffffffffffffffffffffffffffffffffffffff\n      and\n      eq\n        /* \"ptrn_eco_system_dev_contracts/PtrnEcoSystemParticipationDev.sol\":2692:2758  require(acceptedSenderAddress == address(0), \"Already activated.\") */\n      tag_183\n      jumpi\n      mload(0x40)\n      0x08c379a000000000000000000000000000000000000000000000000000000000\n      dup2\n      mstore\n      0x04\n      add\n      tag_184\n      swap1\n      tag_185\n      jump\t// in\n    tag_184:\n      mload(0x40)\n      dup1\n      swap2\n      sub\n      swap1\n      revert\n    tag_183:\n        /* \"ptrn_eco_system_dev_contracts/PtrnEcoSystemParticipationDev.sol\":2792:2802  msg.sender */\n      caller\n        /* \"ptrn_eco_system_dev_contracts/PtrnEcoSystemParticipationDev.sol\":2768:2789  acceptedSenderAddress */\n      0x01\n      0x00\n        /* \"ptrn_eco_system_dev_contracts/PtrnEcoSystemParticipationDev.sol\":2768:2802  acceptedSenderAddress = msg.sender */\n      0x0100\n      exp\n      dup2\n      sload\n      dup2\n      0xffffffffffffffffffffffffffffffffffffffff\n      mul\n      not\n      and\n      swap1\n      dup4\n      0xffffffffffffffffffffffffffffffffffffffff\n      and\n      mul\n      or\n      swap1\n      sstore\n      pop\n        /* \"ptrn_eco_system_dev_contracts/PtrnEcoSystemParticipationDev.sol\":2826:2847  acceptedSenderAddress */\n      0x01\n      0x00\n      swap1\n      sload\n      swap1\n      0x0100\n      exp\n      swap1\n      div\n      0xffffffffffffffffffffffffffffffffffffffff\n      and\n        /* \"ptrn_eco_system_dev_contracts/PtrnEcoSystemParticipationDev.sol\":2817:2865  Activate(acceptedSenderAddress, block.timestamp) */\n      0xffffffffffffffffffffffffffffffffffffffff\n      and\n      0xfbd0a3f6e9a0dd5f834515748047e83de8064477489a0a0d6b59c64bbecc992a\n        /* \"ptrn_eco_system_dev_contracts/PtrnEcoSystemParticipationDev.sol\":2849:2864  block.timestamp */\n      timestamp\n        /* \"ptrn_eco_system_dev_contracts/PtrnEcoSystemParticipationDev.sol\":2817:2865  Activate(acceptedSenderAddress, block.timestamp) */\n      mload(0x40)\n      tag_186\n      swap2\n      swap1\n      tag_60\n      jump\t// in\n    tag_186:\n      mload(0x40)\n      dup1\n      swap2\n      sub\n      swap1\n      log2\n        /* \"ptrn_eco_system_dev_contracts/PtrnEcoSystemParticipationDev.sol\":2562:2872  function activate() public whenNotPaused {... */\n      jump\t// out\n        /* \"ptrn_eco_system_dev_contracts/PtrnEcoSystemParticipationDev.sol\":9016:9189  function getTotalBurnedTokens()... */\n    tag_58:\n        /* \"ptrn_eco_system_dev_contracts/PtrnEcoSystemParticipationDev.sol\":9141:9148  uint256 */\n      0x00\n        /* \"ptrn_eco_system_dev_contracts/PtrnEcoSystemParticipationDev.sol\":1510:1511  0 */\n      dup1\n        /* \"ptrn_eco_system_dev_contracts/PtrnEcoSystemParticipationDev.sol\":1477:1512  acceptedSenderAddress != address(0) */\n      0xffffffffffffffffffffffffffffffffffffffff\n      and\n        /* \"ptrn_eco_system_dev_contracts/PtrnEcoSystemParticipationDev.sol\":1477:1498  acceptedSenderAddress */\n      0x01\n      0x00\n      swap1\n      sload\n      swap1\n      0x0100\n      exp\n      swap1\n      div\n      0xffffffffffffffffffffffffffffffffffffffff\n      and\n        /* \"ptrn_eco_system_dev_contracts/PtrnEcoSystemParticipationDev.sol\":1477:1512  acceptedSenderAddress != address(0) */\n      0xffffffffffffffffffffffffffffffffffffffff\n      and\n      sub\n        /* \"ptrn_eco_system_dev_contracts/PtrnEcoSystemParticipationDev.sol\":1469:1531  require(acceptedSenderAddress != address(0), \"Not activated.\") */\n      tag_188\n      jumpi\n      mload(0x40)\n      0x08c379a000000000000000000000000000000000000000000000000000000000\n      dup2\n      mstore\n      0x04\n      add\n      tag_189\n      swap1\n      tag_159\n      jump\t// in\n    tag_189:\n      mload(0x40)\n      dup1\n      swap2\n      sub\n      swap1\n      revert\n    tag_188:\n        /* \"ptrn_eco_system_dev_contracts/PtrnEcoSystemParticipationDev.sol\":1634:1655  acceptedSenderAddress */\n      0x01\n      0x00\n      swap1\n      sload\n      swap1\n      0x0100\n      exp\n      swap1\n      div\n      0xffffffffffffffffffffffffffffffffffffffff\n      and\n        /* \"ptrn_eco_system_dev_contracts/PtrnEcoSystemParticipationDev.sol\":1620:1655  msg.sender == acceptedSenderAddress */\n      0xffffffffffffffffffffffffffffffffffffffff\n      and\n        /* \"ptrn_eco_system_dev_contracts/PtrnEcoSystemParticipationDev.sol\":1620:1630  msg.sender */\n      caller\n        /* \"ptrn_eco_system_dev_contracts/PtrnEcoSystemParticipationDev.sol\":1620:1655  msg.sender == acceptedSenderAddress */\n      0xffffffffffffffffffffffffffffffffffffffff\n      and\n      eq\n        /* \"ptrn_eco_system_dev_contracts/PtrnEcoSystemParticipationDev.sol\":1620:1680  msg.sender == acceptedSenderAddress || msg.sender == owner() */\n      dup1\n      tag_191\n      jumpi\n      pop\n        /* \"ptrn_eco_system_dev_contracts/PtrnEcoSystemParticipationDev.sol\":1673:1680  owner() */\n      tag_192\n        /* \"ptrn_eco_system_dev_contracts/PtrnEcoSystemParticipationDev.sol\":1673:1678  owner */\n      tag_85\n        /* \"ptrn_eco_system_dev_contracts/PtrnEcoSystemParticipationDev.sol\":1673:1680  owner() */\n      jump\t// in\n    tag_192:\n        /* \"ptrn_eco_system_dev_contracts/PtrnEcoSystemParticipationDev.sol\":1659:1680  msg.sender == owner() */\n      0xffffffffffffffffffffffffffffffffffffffff\n      and\n        /* \"ptrn_eco_system_dev_contracts/PtrnEcoSystemParticipationDev.sol\":1659:1669  msg.sender */\n      caller\n        /* \"ptrn_eco_system_dev_contracts/PtrnEcoSystemParticipationDev.sol\":1659:1680  msg.sender == owner() */\n      0xffffffffffffffffffffffffffffffffffffffff\n      and\n      eq\n        /* \"ptrn_eco_system_dev_contracts/PtrnEcoSystemParticipationDev.sol\":1620:1680  msg.sender == acceptedSenderAddress || msg.sender == owner() */\n    tag_191:\n        /* \"ptrn_eco_system_dev_contracts/PtrnEcoSystemParticipationDev.sol\":1598:1745  require(... */\n      tag_193\n      jumpi\n      mload(0x40)\n      0x08c379a000000000000000000000000000000000000000000000000000000000\n      dup2\n      mstore\n      0x04\n      add\n      tag_194\n      swap1\n      tag_195\n      jump\t// in\n    tag_194:\n      mload(0x40)\n      dup1\n      swap2\n      sub\n      swap1\n      revert\n    tag_193:\n        /* \"ptrn_eco_system_dev_contracts/PtrnEcoSystemParticipationDev.sol\":9171:9182  totalBurned */\n      sload(0x02)\n        /* \"ptrn_eco_system_dev_contracts/PtrnEcoSystemParticipationDev.sol\":9164:9182  return totalBurned */\n      swap1\n      pop\n        /* \"ptrn_eco_system_dev_contracts/PtrnEcoSystemParticipationDev.sol\":9016:9189  function getTotalBurnedTokens()... */\n      swap1\n      jump\t// out\n        /* \"ptrn_eco_system_dev_contracts/PtrnEcoSystemParticipationDev.sol\":7871:8250  function initiateBulkMint() public onlyOwner {... */\n    tag_62:\n        /* \"@openzeppelin/contracts/access/Ownable.sol\":1094:1107  _checkOwner() */\n      tag_198\n        /* \"@openzeppelin/contracts/access/Ownable.sol\":1094:1105  _checkOwner */\n      tag_126\n        /* \"@openzeppelin/contracts/access/Ownable.sol\":1094:1107  _checkOwner() */\n      jump\t// in\n    tag_198:\n        /* \"ptrn_eco_system_dev_contracts/PtrnEcoSystemParticipationDev.sol\":7950:7951  0 */\n      0x00\n        /* \"ptrn_eco_system_dev_contracts/PtrnEcoSystemParticipationDev.sol\":7934:7947  dailyWithdraw */\n      sload(0x05)\n        /* \"ptrn_eco_system_dev_contracts/PtrnEcoSystemParticipationDev.sol\":7934:7951  dailyWithdraw > 0 */\n      gt\n        /* \"ptrn_eco_system_dev_contracts/PtrnEcoSystemParticipationDev.sol\":7926:7976  require(dailyWithdraw > 0, \"Nothing to withdraw.\") */\n      tag_200\n      jumpi\n      mload(0x40)\n      0x08c379a000000000000000000000000000000000000000000000000000000000\n      dup2\n      mstore\n      0x04\n      add\n      tag_201\n      swap1\n      tag_202\n      jump\t// in\n    tag_201:\n      mload(0x40)\n      dup1\n      swap2\n      sub\n      swap1\n      revert\n    tag_200:\n        /* \"ptrn_eco_system_dev_contracts/PtrnEcoSystemParticipationDev.sol\":8045:8046  0 */\n      0x00\n        /* \"ptrn_eco_system_dev_contracts/PtrnEcoSystemParticipationDev.sol\":8029:8042  dailyWithdraw */\n      sload(0x05)\n        /* \"ptrn_eco_system_dev_contracts/PtrnEcoSystemParticipationDev.sol\":8007:8026  availableToWithdraw */\n      sload(0x04)\n        /* \"ptrn_eco_system_dev_contracts/PtrnEcoSystemParticipationDev.sol\":8007:8042  availableToWithdraw - dailyWithdraw */\n      tag_203\n      swap2\n      swap1\n      tag_129\n      jump\t// in\n    tag_203:\n        /* \"ptrn_eco_system_dev_contracts/PtrnEcoSystemParticipationDev.sol\":8007:8046  availableToWithdraw - dailyWithdraw > 0 */\n      gt\n        /* \"ptrn_eco_system_dev_contracts/PtrnEcoSystemParticipationDev.sol\":7986:8104  require(... */\n      tag_204\n      jumpi\n      mload(0x40)\n      0x08c379a000000000000000000000000000000000000000000000000000000000\n      dup2\n      mstore\n      0x04\n      add\n      tag_205\n      swap1\n      tag_206\n      jump\t// in\n    tag_205:\n      mload(0x40)\n      dup1\n      swap2\n      sub\n      swap1\n      revert\n    tag_204:\n        /* \"ptrn_eco_system_dev_contracts/PtrnEcoSystemParticipationDev.sol\":8137:8150  dailyWithdraw */\n      sload(0x05)\n        /* \"ptrn_eco_system_dev_contracts/PtrnEcoSystemParticipationDev.sol\":8114:8133  availableToWithdraw */\n      0x04\n      0x00\n        /* \"ptrn_eco_system_dev_contracts/PtrnEcoSystemParticipationDev.sol\":8114:8150  availableToWithdraw -= dailyWithdraw */\n      dup3\n      dup3\n      sload\n      tag_207\n      swap2\n      swap1\n      tag_129\n      jump\t// in\n    tag_207:\n      swap3\n      pop\n      pop\n      dup2\n      swap1\n      sstore\n      pop\n        /* \"ptrn_eco_system_dev_contracts/PtrnEcoSystemParticipationDev.sol\":8176:8177  0 */\n      0x00\n        /* \"ptrn_eco_system_dev_contracts/PtrnEcoSystemParticipationDev.sol\":8160:8173  dailyWithdraw */\n      0x05\n        /* \"ptrn_eco_system_dev_contracts/PtrnEcoSystemParticipationDev.sol\":8160:8177  dailyWithdraw = 0 */\n      dup2\n      swap1\n      sstore\n      pop\n        /* \"ptrn_eco_system_dev_contracts/PtrnEcoSystemParticipationDev.sol\":8212:8227  block.timestamp */\n      timestamp\n        /* \"ptrn_eco_system_dev_contracts/PtrnEcoSystemParticipationDev.sol\":8192:8243  TotalDailyWithdraws(block.timestamp, dailyWithdraw) */\n      0x0e727ee3674546d683a39c7087ab966177f70026adb7d4fdefaef2bf0bb29a46\n        /* \"ptrn_eco_system_dev_contracts/PtrnEcoSystemParticipationDev.sol\":8229:8242  dailyWithdraw */\n      sload(0x05)\n        /* \"ptrn_eco_system_dev_contracts/PtrnEcoSystemParticipationDev.sol\":8192:8243  TotalDailyWithdraws(block.timestamp, dailyWithdraw) */\n      mload(0x40)\n      tag_208\n      swap2\n      swap1\n      tag_60\n      jump\t// in\n    tag_208:\n      mload(0x40)\n      dup1\n      swap2\n      sub\n      swap1\n      log2\n        /* \"ptrn_eco_system_dev_contracts/PtrnEcoSystemParticipationDev.sol\":7871:8250  function initiateBulkMint() public onlyOwner {... */\n      jump\t// out\n        /* \"ptrn_eco_system_dev_contracts/PtrnEcoSystemParticipationDev.sol\":2878:3051  function deactivate() public activated onlyAuthorized whenNotPaused {... */\n    tag_64:\n        /* \"ptrn_eco_system_dev_contracts/PtrnEcoSystemParticipationDev.sol\":1510:1511  0 */\n      0x00\n        /* \"ptrn_eco_system_dev_contracts/PtrnEcoSystemParticipationDev.sol\":1477:1512  acceptedSenderAddress != address(0) */\n      0xffffffffffffffffffffffffffffffffffffffff\n      and\n        /* \"ptrn_eco_system_dev_contracts/PtrnEcoSystemParticipationDev.sol\":1477:1498  acceptedSenderAddress */\n      0x01\n      0x00\n      swap1\n      sload\n      swap1\n      0x0100\n      exp\n      swap1\n      div\n      0xffffffffffffffffffffffffffffffffffffffff\n      and\n        /* \"ptrn_eco_system_dev_contracts/PtrnEcoSystemParticipationDev.sol\":1477:1512  acceptedSenderAddress != address(0) */\n      0xffffffffffffffffffffffffffffffffffffffff\n      and\n      sub\n        /* \"ptrn_eco_system_dev_contracts/PtrnEcoSystemParticipationDev.sol\":1469:1531  require(acceptedSenderAddress != address(0), \"Not activated.\") */\n      tag_210\n      jumpi\n      mload(0x40)\n      0x08c379a000000000000000000000000000000000000000000000000000000000\n      dup2\n      mstore\n      0x04\n      add\n      tag_211\n      swap1\n      tag_159\n      jump\t// in\n    tag_211:\n      mload(0x40)\n      dup1\n      swap2\n      sub\n      swap1\n      revert\n    tag_210:\n        /* \"ptrn_eco_system_dev_contracts/PtrnEcoSystemParticipationDev.sol\":1373:1394  acceptedSenderAddress */\n      0x01\n      0x00\n      swap1\n      sload\n      swap1\n      0x0100\n      exp\n      swap1\n      div\n      0xffffffffffffffffffffffffffffffffffffffff\n      and\n        /* \"ptrn_eco_system_dev_contracts/PtrnEcoSystemParticipationDev.sol\":1359:1394  msg.sender == acceptedSenderAddress */\n      0xffffffffffffffffffffffffffffffffffffffff\n      and\n        /* \"ptrn_eco_system_dev_contracts/PtrnEcoSystemParticipationDev.sol\":1359:1369  msg.sender */\n      caller\n        /* \"ptrn_eco_system_dev_contracts/PtrnEcoSystemParticipationDev.sol\":1359:1394  msg.sender == acceptedSenderAddress */\n      0xffffffffffffffffffffffffffffffffffffffff\n      and\n      eq\n        /* \"ptrn_eco_system_dev_contracts/PtrnEcoSystemParticipationDev.sol\":1351:1414  require(msg.sender == acceptedSenderAddress, \"Not Authorized!\") */\n      tag_213\n      jumpi\n      mload(0x40)\n      0x08c379a000000000000000000000000000000000000000000000000000000000\n      dup2\n      mstore\n      0x04\n      add\n      tag_214\n      swap1\n      tag_171\n      jump\t// in\n    tag_214:\n      mload(0x40)\n      dup1\n      swap2\n      sub\n      swap1\n      revert\n    tag_213:\n        /* \"@openzeppelin/contracts/security/Pausable.sol\":1239:1258  _requireNotPaused() */\n      tag_216\n        /* \"@openzeppelin/contracts/security/Pausable.sol\":1239:1256  _requireNotPaused */\n      tag_150\n        /* \"@openzeppelin/contracts/security/Pausable.sol\":1239:1258  _requireNotPaused() */\n      jump\t// in\n    tag_216:\n        /* \"ptrn_eco_system_dev_contracts/PtrnEcoSystemParticipationDev.sol\":2988:2989  0 */\n      0x00\n        /* \"ptrn_eco_system_dev_contracts/PtrnEcoSystemParticipationDev.sol\":2956:2977  acceptedSenderAddress */\n      0x01\n      0x00\n        /* \"ptrn_eco_system_dev_contracts/PtrnEcoSystemParticipationDev.sol\":2956:2990  acceptedSenderAddress = address(0) */\n      0x0100\n      exp\n      dup2\n      sload\n      dup2\n      0xffffffffffffffffffffffffffffffffffffffff\n      mul\n      not\n      and\n      swap1\n      dup4\n      0xffffffffffffffffffffffffffffffffffffffff\n      and\n      mul\n      or\n      swap1\n      sstore\n      pop\n        /* \"ptrn_eco_system_dev_contracts/PtrnEcoSystemParticipationDev.sol\":3016:3026  msg.sender */\n      caller\n        /* \"ptrn_eco_system_dev_contracts/PtrnEcoSystemParticipationDev.sol\":3005:3044  Deactivate(msg.sender, block.timestamp) */\n      0xffffffffffffffffffffffffffffffffffffffff\n      and\n      0x13b865880a841dc469b629159fa1e730fee99568b0decc6737fd688b36246381\n        /* \"ptrn_eco_system_dev_contracts/PtrnEcoSystemParticipationDev.sol\":3028:3043  block.timestamp */\n      timestamp\n        /* \"ptrn_eco_system_dev_contracts/PtrnEcoSystemParticipationDev.sol\":3005:3044  Deactivate(msg.sender, block.timestamp) */\n      mload(0x40)\n      tag_218\n      swap2\n      swap1\n      tag_60\n      jump\t// in\n    tag_218:\n      mload(0x40)\n      dup1\n      swap2\n      sub\n      swap1\n      log2\n        /* \"ptrn_eco_system_dev_contracts/PtrnEcoSystemParticipationDev.sol\":2878:3051  function deactivate() public activated onlyAuthorized whenNotPaused {... */\n      jump\t// out\n        /* \"@openzeppelin/contracts/security/Pausable.sol\":1615:1699  function paused() public view virtual returns (bool) {... */\n    tag_66:\n        /* \"@openzeppelin/contracts/security/Pausable.sol\":1662:1666  bool */\n      0x00\n        /* \"@openzeppelin/contracts/security/Pausable.sol\":1685:1692  _paused */\n      dup1\n      0x00\n      swap1\n      sload\n      swap1\n      0x0100\n      exp\n      swap1\n      div\n      0xff\n      and\n        /* \"@openzeppelin/contracts/security/Pausable.sol\":1678:1692  return _paused */\n      swap1\n      pop\n        /* \"@openzeppelin/contracts/security/Pausable.sol\":1615:1699  function paused() public view virtual returns (bool) {... */\n      swap1\n      jump\t// out\n        /* \"ptrn_eco_system_dev_contracts/PtrnEcoSystemParticipationDev.sol\":8500:8794  function transferOfToken(... */\n    tag_72:\n        /* \"ptrn_eco_system_dev_contracts/PtrnEcoSystemParticipationDev.sol\":8637:8641  bool */\n      0x00\n        /* \"@openzeppelin/contracts/access/Ownable.sol\":1094:1107  _checkOwner() */\n      tag_221\n        /* \"@openzeppelin/contracts/access/Ownable.sol\":1094:1105  _checkOwner */\n      tag_126\n        /* \"@openzeppelin/contracts/access/Ownable.sol\":1094:1107  _checkOwner() */\n      jump\t// in\n    tag_221:\n        /* \"ptrn_eco_system_dev_contracts/PtrnEcoSystemParticipationDev.sol\":8693:8699  amount */\n      dup2\n        /* \"ptrn_eco_system_dev_contracts/PtrnEcoSystemParticipationDev.sol\":8661:8689  balanceOfToken(tokenAddress) */\n      tag_223\n        /* \"ptrn_eco_system_dev_contracts/PtrnEcoSystemParticipationDev.sol\":8676:8688  tokenAddress */\n      dup6\n        /* \"ptrn_eco_system_dev_contracts/PtrnEcoSystemParticipationDev.sol\":8661:8675  balanceOfToken */\n      tag_102\n        /* \"ptrn_eco_system_dev_contracts/PtrnEcoSystemParticipationDev.sol\":8661:8689  balanceOfToken(tokenAddress) */\n      jump\t// in\n    tag_223:\n        /* \"ptrn_eco_system_dev_contracts/PtrnEcoSystemParticipationDev.sol\":8661:8699  balanceOfToken(tokenAddress) >= amount */\n      lt\n      iszero\n        /* \"ptrn_eco_system_dev_contracts/PtrnEcoSystemParticipationDev.sol\":8653:8723  require(balanceOfToken(tokenAddress) >= amount, \"Not enough balance!\") */\n      tag_224\n      jumpi\n      mload(0x40)\n      0x08c379a000000000000000000000000000000000000000000000000000000000\n      dup2\n      mstore\n      0x04\n      add\n      tag_225\n      swap1\n      tag_226\n      jump\t// in\n    tag_225:\n      mload(0x40)\n      dup1\n      swap2\n      sub\n      swap1\n      revert\n    tag_224:\n        /* \"ptrn_eco_system_dev_contracts/PtrnEcoSystemParticipationDev.sol\":8747:8759  tokenAddress */\n      dup4\n        /* \"ptrn_eco_system_dev_contracts/PtrnEcoSystemParticipationDev.sol\":8740:8769  IERC20(tokenAddress).transfer */\n      0xffffffffffffffffffffffffffffffffffffffff\n      and\n      0xa9059cbb\n        /* \"ptrn_eco_system_dev_contracts/PtrnEcoSystemParticipationDev.sol\":8770:8778  receiver */\n      dup5\n        /* \"ptrn_eco_system_dev_contracts/PtrnEcoSystemParticipationDev.sol\":8780:8786  amount */\n      dup5\n        /* \"ptrn_eco_system_dev_contracts/PtrnEcoSystemParticipationDev.sol\":8740:8787  IERC20(tokenAddress).transfer(receiver, amount) */\n      mload(0x40)\n      dup4\n      0xffffffff\n      and\n      0xe0\n      shl\n      dup2\n      mstore\n      0x04\n      add\n      tag_227\n      swap3\n      swap2\n      swap1\n      tag_228\n      jump\t// in\n    tag_227:\n      0x20\n      mload(0x40)\n      dup1\n      dup4\n      sub\n      dup2\n      0x00\n      dup8\n      gas\n      call\n      iszero\n      dup1\n      iszero\n      tag_230\n      jumpi\n      returndatasize\n      0x00\n      dup1\n      returndatacopy\n      revert(0x00, returndatasize)\n    tag_230:\n      pop\n      pop\n      pop\n      pop\n      mload(0x40)\n      returndatasize\n      not(0x1f)\n      0x1f\n      dup3\n      add\n      and\n      dup3\n      add\n      dup1\n      0x40\n      mstore\n      pop\n      dup2\n      add\n      swap1\n      tag_231\n      swap2\n      swap1\n      tag_232\n      jump\t// in\n    tag_231:\n        /* \"ptrn_eco_system_dev_contracts/PtrnEcoSystemParticipationDev.sol\":8733:8787  return IERC20(tokenAddress).transfer(receiver, amount) */\n      swap1\n      pop\n        /* \"ptrn_eco_system_dev_contracts/PtrnEcoSystemParticipationDev.sol\":8500:8794  function transferOfToken(... */\n      swap4\n      swap3\n      pop\n      pop\n      pop\n      jump\t// out\n        /* \"@openzeppelin/contracts/access/Ownable.sol\":1831:1932  function renounceOwnership() public virtual onlyOwner {... */\n    tag_75:\n        /* \"@openzeppelin/contracts/access/Ownable.sol\":1094:1107  _checkOwner() */\n      tag_234\n        /* \"@openzeppelin/contracts/access/Ownable.sol\":1094:1105  _checkOwner */\n      tag_126\n        /* \"@openzeppelin/contracts/access/Ownable.sol\":1094:1107  _checkOwner() */\n      jump\t// in\n    tag_234:\n        /* \"@openzeppelin/contracts/access/Ownable.sol\":1895:1925  _transferOwnership(address(0)) */\n      tag_236\n        /* \"@openzeppelin/contracts/access/Ownable.sol\":1922:1923  0 */\n      0x00\n        /* \"@openzeppelin/contracts/access/Ownable.sol\":1895:1913  _transferOwnership */\n      tag_237\n        /* \"@openzeppelin/contracts/access/Ownable.sol\":1895:1925  _transferOwnership(address(0)) */\n      jump\t// in\n    tag_236:\n        /* \"@openzeppelin/contracts/access/Ownable.sol\":1831:1932  function renounceOwnership() public virtual onlyOwner {... */\n      jump\t// out\n        /* \"ptrn_eco_system_dev_contracts/PtrnEcoSystemParticipationDev.sol\":7282:7397  function balanceOf() public view onlyOwner returns (uint256) {... */\n    tag_77:\n        /* \"ptrn_eco_system_dev_contracts/PtrnEcoSystemParticipationDev.sol\":7334:7341  uint256 */\n      0x00\n        /* \"@openzeppelin/contracts/access/Ownable.sol\":1094:1107  _checkOwner() */\n      tag_239\n        /* \"@openzeppelin/contracts/access/Ownable.sol\":1094:1105  _checkOwner */\n      tag_126\n        /* \"@openzeppelin/contracts/access/Ownable.sol\":1094:1107  _checkOwner() */\n      jump\t// in\n    tag_239:\n        /* \"ptrn_eco_system_dev_contracts/PtrnEcoSystemParticipationDev.sol\":7360:7365  TOKEN */\n      immutable(\"0x765257ac7904069d2df513bf5979f3f927ab42f163b276055be4b8deb0e5a482\")\n        /* \"ptrn_eco_system_dev_contracts/PtrnEcoSystemParticipationDev.sol\":7360:7375  TOKEN.balanceOf */\n      0xffffffffffffffffffffffffffffffffffffffff\n      and\n      0x70a08231\n        /* \"ptrn_eco_system_dev_contracts/PtrnEcoSystemParticipationDev.sol\":7384:7388  this */\n      address\n        /* \"ptrn_eco_system_dev_contracts/PtrnEcoSystemParticipationDev.sol\":7360:7390  TOKEN.balanceOf(address(this)) */\n      mload(0x40)\n      dup3\n      0xffffffff\n      and\n      0xe0\n      shl\n      dup2\n      mstore\n      0x04\n      add\n      tag_241\n      swap2\n      swap1\n      tag_47\n      jump\t// in\n    tag_241:\n      0x20\n      mload(0x40)\n      dup1\n      dup4\n      sub\n      dup2\n      dup7\n      gas\n      staticcall\n      iszero\n      dup1\n      iszero\n      tag_243\n      jumpi\n      returndatasize\n      0x00\n      dup1\n      returndatacopy\n      revert(0x00, returndatasize)\n    tag_243:\n      pop\n      pop\n      pop\n      pop\n      mload(0x40)\n      returndatasize\n      not(0x1f)\n      0x1f\n      dup3\n      add\n      and\n      dup3\n      add\n      dup1\n      0x40\n      mstore\n      pop\n      dup2\n      add\n      swap1\n      tag_244\n      swap2\n      swap1\n      tag_245\n      jump\t// in\n    tag_244:\n        /* \"ptrn_eco_system_dev_contracts/PtrnEcoSystemParticipationDev.sol\":7353:7390  return TOKEN.balanceOf(address(this)) */\n      swap1\n      pop\n        /* \"ptrn_eco_system_dev_contracts/PtrnEcoSystemParticipationDev.sol\":7282:7397  function balanceOf() public view onlyOwner returns (uint256) {... */\n      swap1\n      jump\t// out\n        /* \"ptrn_eco_system_dev_contracts/PtrnEcoSystemParticipationDev.sol\":5721:6051  function calculateAmount(... */\n    tag_82:\n        /* \"ptrn_eco_system_dev_contracts/PtrnEcoSystemParticipationDev.sol\":5878:5885  uint256 */\n      0x00\n        /* \"ptrn_eco_system_dev_contracts/PtrnEcoSystemParticipationDev.sol\":1510:1511  0 */\n      dup1\n        /* \"ptrn_eco_system_dev_contracts/PtrnEcoSystemParticipationDev.sol\":1477:1512  acceptedSenderAddress != address(0) */\n      0xffffffffffffffffffffffffffffffffffffffff\n      and\n        /* \"ptrn_eco_system_dev_contracts/PtrnEcoSystemParticipationDev.sol\":1477:1498  acceptedSenderAddress */\n      0x01\n      0x00\n      swap1\n      sload\n      swap1\n      0x0100\n      exp\n      swap1\n      div\n      0xffffffffffffffffffffffffffffffffffffffff\n      and\n        /* \"ptrn_eco_system_dev_contracts/PtrnEcoSystemParticipationDev.sol\":1477:1512  acceptedSenderAddress != address(0) */\n      0xffffffffffffffffffffffffffffffffffffffff\n      and\n      sub\n        /* \"ptrn_eco_system_dev_contracts/PtrnEcoSystemParticipationDev.sol\":1469:1531  require(acceptedSenderAddress != address(0), \"Not activated.\") */\n      tag_247\n      jumpi\n      mload(0x40)\n      0x08c379a000000000000000000000000000000000000000000000000000000000\n      dup2\n      mstore\n      0x04\n      add\n      tag_248\n      swap1\n      tag_159\n      jump\t// in\n    tag_248:\n      mload(0x40)\n      dup1\n      swap2\n      sub\n      swap1\n      revert\n    tag_247:\n        /* \"ptrn_eco_system_dev_contracts/PtrnEcoSystemParticipationDev.sol\":1634:1655  acceptedSenderAddress */\n      0x01\n      0x00\n      swap1\n      sload\n      swap1\n      0x0100\n      exp\n      swap1\n      div\n      0xffffffffffffffffffffffffffffffffffffffff\n      and\n        /* \"ptrn_eco_system_dev_contracts/PtrnEcoSystemParticipationDev.sol\":1620:1655  msg.sender == acceptedSenderAddress */\n      0xffffffffffffffffffffffffffffffffffffffff\n      and\n        /* \"ptrn_eco_system_dev_contracts/PtrnEcoSystemParticipationDev.sol\":1620:1630  msg.sender */\n      caller\n        /* \"ptrn_eco_system_dev_contracts/PtrnEcoSystemParticipationDev.sol\":1620:1655  msg.sender == acceptedSenderAddress */\n      0xffffffffffffffffffffffffffffffffffffffff\n      and\n      eq\n        /* \"ptrn_eco_system_dev_contracts/PtrnEcoSystemParticipationDev.sol\":1620:1680  msg.sender == acceptedSenderAddress || msg.sender == owner() */\n      dup1\n      tag_250\n      jumpi\n      pop\n        /* \"ptrn_eco_system_dev_contracts/PtrnEcoSystemParticipationDev.sol\":1673:1680  owner() */\n      tag_251\n        /* \"ptrn_eco_system_dev_contracts/PtrnEcoSystemParticipationDev.sol\":1673:1678  owner */\n      tag_85\n        /* \"ptrn_eco_system_dev_contracts/PtrnEcoSystemParticipationDev.sol\":1673:1680  owner() */\n      jump\t// in\n    tag_251:\n        /* \"ptrn_eco_system_dev_contracts/PtrnEcoSystemParticipationDev.sol\":1659:1680  msg.sender == owner() */\n      0xffffffffffffffffffffffffffffffffffffffff\n      and\n        /* \"ptrn_eco_system_dev_contracts/PtrnEcoSystemParticipationDev.sol\":1659:1669  msg.sender */\n      caller\n        /* \"ptrn_eco_system_dev_contracts/PtrnEcoSystemParticipationDev.sol\":1659:1680  msg.sender == owner() */\n      0xffffffffffffffffffffffffffffffffffffffff\n      and\n      eq\n        /* \"ptrn_eco_system_dev_contracts/PtrnEcoSystemParticipationDev.sol\":1620:1680  msg.sender == acceptedSenderAddress || msg.sender == owner() */\n    tag_250:\n        /* \"ptrn_eco_system_dev_contracts/PtrnEcoSystemParticipationDev.sol\":1598:1745  require(... */\n      tag_252\n      jumpi\n      mload(0x40)\n      0x08c379a000000000000000000000000000000000000000000000000000000000\n      dup2\n      mstore\n      0x04\n      add\n      tag_253\n      swap1\n      tag_195\n      jump\t// in\n    tag_253:\n      mload(0x40)\n      dup1\n      swap2\n      sub\n      swap1\n      revert\n    tag_252:\n        /* \"ptrn_eco_system_dev_contracts/PtrnEcoSystemParticipationDev.sol\":5912:5913  0 */\n      0x00\n        /* \"ptrn_eco_system_dev_contracts/PtrnEcoSystemParticipationDev.sol\":5905:5909  rate */\n      dup4\n        /* \"ptrn_eco_system_dev_contracts/PtrnEcoSystemParticipationDev.sol\":5905:5913  rate > 0 */\n      gt\n        /* \"ptrn_eco_system_dev_contracts/PtrnEcoSystemParticipationDev.sol\":5905:5927  rate > 0 && points > 0 */\n      dup1\n      iszero\n      tag_255\n      jumpi\n      pop\n        /* \"ptrn_eco_system_dev_contracts/PtrnEcoSystemParticipationDev.sol\":5926:5927  0 */\n      0x00\n        /* \"ptrn_eco_system_dev_contracts/PtrnEcoSystemParticipationDev.sol\":5917:5923  points */\n      dup5\n        /* \"ptrn_eco_system_dev_contracts/PtrnEcoSystemParticipationDev.sol\":5917:5927  points > 0 */\n      gt\n        /* \"ptrn_eco_system_dev_contracts/PtrnEcoSystemParticipationDev.sol\":5905:5927  rate > 0 && points > 0 */\n    tag_255:\n        /* \"ptrn_eco_system_dev_contracts/PtrnEcoSystemParticipationDev.sol\":5905:5942  rate > 0 && points > 0 && _decimals>0 */\n      dup1\n      iszero\n      tag_256\n      jumpi\n      pop\n        /* \"ptrn_eco_system_dev_contracts/PtrnEcoSystemParticipationDev.sol\":5941:5942  0 */\n      0x00\n        /* \"ptrn_eco_system_dev_contracts/PtrnEcoSystemParticipationDev.sol\":5931:5940  _decimals */\n      dup3\n        /* \"ptrn_eco_system_dev_contracts/PtrnEcoSystemParticipationDev.sol\":5931:5942  _decimals>0 */\n      gt\n        /* \"ptrn_eco_system_dev_contracts/PtrnEcoSystemParticipationDev.sol\":5905:5942  rate > 0 && points > 0 && _decimals>0 */\n    tag_256:\n        /* \"ptrn_eco_system_dev_contracts/PtrnEcoSystemParticipationDev.sol\":5897:5998  require(rate > 0 && points > 0 && _decimals>0, \"Rate, points and decimals must be greater than zero\") */\n      tag_257\n      jumpi\n      mload(0x40)\n      0x08c379a000000000000000000000000000000000000000000000000000000000\n      dup2\n      mstore\n      0x04\n      add\n      tag_258\n      swap1\n      tag_259\n      jump\t// in\n    tag_258:\n      mload(0x40)\n      dup1\n      swap2\n      sub\n      swap1\n      revert\n    tag_257:\n        /* \"ptrn_eco_system_dev_contracts/PtrnEcoSystemParticipationDev.sol\":6040:6044  rate */\n      dup3\n        /* \"ptrn_eco_system_dev_contracts/PtrnEcoSystemParticipationDev.sol\":6028:6037  _decimals */\n      dup3\n        /* \"ptrn_eco_system_dev_contracts/PtrnEcoSystemParticipationDev.sol\":6024:6026  10 */\n      0x0a\n        /* \"ptrn_eco_system_dev_contracts/PtrnEcoSystemParticipationDev.sol\":6024:6037  10**_decimals */\n      tag_260\n      swap2\n      swap1\n      tag_261\n      jump\t// in\n    tag_260:\n        /* \"ptrn_eco_system_dev_contracts/PtrnEcoSystemParticipationDev.sol\":6015:6021  points */\n      dup6\n        /* \"ptrn_eco_system_dev_contracts/PtrnEcoSystemParticipationDev.sol\":6015:6037  points * 10**_decimals */\n      tag_262\n      swap2\n      swap1\n      tag_263\n      jump\t// in\n    tag_262:\n        /* \"ptrn_eco_system_dev_contracts/PtrnEcoSystemParticipationDev.sol\":6015:6044  points * 10**_decimals / rate */\n      tag_264\n      swap2\n      swap1\n      tag_265\n      jump\t// in\n    tag_264:\n        /* \"ptrn_eco_system_dev_contracts/PtrnEcoSystemParticipationDev.sol\":6008:6044  return points * 10**_decimals / rate */\n      swap1\n      pop\n        /* \"ptrn_eco_system_dev_contracts/PtrnEcoSystemParticipationDev.sol\":5721:6051  function calculateAmount(... */\n      swap4\n      swap3\n      pop\n      pop\n      pop\n      jump\t// out\n        /* \"@openzeppelin/contracts/access/Ownable.sol\":1201:1286  function owner() public view virtual returns (address) {... */\n    tag_85:\n        /* \"@openzeppelin/contracts/access/Ownable.sol\":1247:1254  address */\n      0x00\n        /* \"@openzeppelin/contracts/access/Ownable.sol\":1273:1279  _owner */\n      dup1\n      0x01\n      swap1\n      sload\n      swap1\n      0x0100\n      exp\n      swap1\n      div\n      0xffffffffffffffffffffffffffffffffffffffff\n      and\n        /* \"@openzeppelin/contracts/access/Ownable.sol\":1266:1279  return _owner */\n      swap1\n      pop\n        /* \"@openzeppelin/contracts/access/Ownable.sol\":1201:1286  function owner() public view virtual returns (address) {... */\n      swap1\n      jump\t// out\n        /* \"ptrn_eco_system_dev_contracts/PtrnEcoSystemParticipationDev.sol\":9570:9741  function getDailyWithdraw()... */\n    tag_88:\n        /* \"ptrn_eco_system_dev_contracts/PtrnEcoSystemParticipationDev.sol\":9691:9698  uint256 */\n      0x00\n        /* \"ptrn_eco_system_dev_contracts/PtrnEcoSystemParticipationDev.sol\":1510:1511  0 */\n      dup1\n        /* \"ptrn_eco_system_dev_contracts/PtrnEcoSystemParticipationDev.sol\":1477:1512  acceptedSenderAddress != address(0) */\n      0xffffffffffffffffffffffffffffffffffffffff\n      and\n        /* \"ptrn_eco_system_dev_contracts/PtrnEcoSystemParticipationDev.sol\":1477:1498  acceptedSenderAddress */\n      0x01\n      0x00\n      swap1\n      sload\n      swap1\n      0x0100\n      exp\n      swap1\n      div\n      0xffffffffffffffffffffffffffffffffffffffff\n      and\n        /* \"ptrn_eco_system_dev_contracts/PtrnEcoSystemParticipationDev.sol\":1477:1512  acceptedSenderAddress != address(0) */\n      0xffffffffffffffffffffffffffffffffffffffff\n      and\n      sub\n        /* \"ptrn_eco_system_dev_contracts/PtrnEcoSystemParticipationDev.sol\":1469:1531  require(acceptedSenderAddress != address(0), \"Not activated.\") */\n      tag_268\n      jumpi\n      mload(0x40)\n      0x08c379a000000000000000000000000000000000000000000000000000000000\n      dup2\n      mstore\n      0x04\n      add\n      tag_269\n      swap1\n      tag_159\n      jump\t// in\n    tag_269:\n      mload(0x40)\n      dup1\n      swap2\n      sub\n      swap1\n      revert\n    tag_268:\n        /* \"ptrn_eco_system_dev_contracts/PtrnEcoSystemParticipationDev.sol\":1634:1655  acceptedSenderAddress */\n      0x01\n      0x00\n      swap1\n      sload\n      swap1\n      0x0100\n      exp\n      swap1\n      div\n      0xffffffffffffffffffffffffffffffffffffffff\n      and\n        /* \"ptrn_eco_system_dev_contracts/PtrnEcoSystemParticipationDev.sol\":1620:1655  msg.sender == acceptedSenderAddress */\n      0xffffffffffffffffffffffffffffffffffffffff\n      and\n        /* \"ptrn_eco_system_dev_contracts/PtrnEcoSystemParticipationDev.sol\":1620:1630  msg.sender */\n      caller\n        /* \"ptrn_eco_system_dev_contracts/PtrnEcoSystemParticipationDev.sol\":1620:1655  msg.sender == acceptedSenderAddress */\n      0xffffffffffffffffffffffffffffffffffffffff\n      and\n      eq\n        /* \"ptrn_eco_system_dev_contracts/PtrnEcoSystemParticipationDev.sol\":1620:1680  msg.sender == acceptedSenderAddress || msg.sender == owner() */\n      dup1\n      tag_271\n      jumpi\n      pop\n        /* \"ptrn_eco_system_dev_contracts/PtrnEcoSystemParticipationDev.sol\":1673:1680  owner() */\n      tag_272\n        /* \"ptrn_eco_system_dev_contracts/PtrnEcoSystemParticipationDev.sol\":1673:1678  owner */\n      tag_85\n        /* \"ptrn_eco_system_dev_contracts/PtrnEcoSystemParticipationDev.sol\":1673:1680  owner() */\n      jump\t// in\n    tag_272:\n        /* \"ptrn_eco_system_dev_contracts/PtrnEcoSystemParticipationDev.sol\":1659:1680  msg.sender == owner() */\n      0xffffffffffffffffffffffffffffffffffffffff\n      and\n        /* \"ptrn_eco_system_dev_contracts/PtrnEcoSystemParticipationDev.sol\":1659:1669  msg.sender */\n      caller\n        /* \"ptrn_eco_system_dev_contracts/PtrnEcoSystemParticipationDev.sol\":1659:1680  msg.sender == owner() */\n      0xffffffffffffffffffffffffffffffffffffffff\n      and\n      eq\n        /* \"ptrn_eco_system_dev_contracts/PtrnEcoSystemParticipationDev.sol\":1620:1680  msg.sender == acceptedSenderAddress || msg.sender == owner() */\n    tag_271:\n        /* \"ptrn_eco_system_dev_contracts/PtrnEcoSystemParticipationDev.sol\":1598:1745  require(... */\n      tag_273\n      jumpi\n      mload(0x40)\n      0x08c379a000000000000000000000000000000000000000000000000000000000\n      dup2\n      mstore\n      0x04\n      add\n      tag_274\n      swap1\n      tag_195\n      jump\t// in\n    tag_274:\n      mload(0x40)\n      dup1\n      swap2\n      sub\n      swap1\n      revert\n    tag_273:\n        /* \"ptrn_eco_system_dev_contracts/PtrnEcoSystemParticipationDev.sol\":9721:9734  dailyWithdraw */\n      sload(0x05)\n        /* \"ptrn_eco_system_dev_contracts/PtrnEcoSystemParticipationDev.sol\":9714:9734  return dailyWithdraw */\n      swap1\n      pop\n        /* \"ptrn_eco_system_dev_contracts/PtrnEcoSystemParticipationDev.sol\":9570:9741  function getDailyWithdraw()... */\n      swap1\n      jump\t// out\n        /* \"ptrn_eco_system_dev_contracts/PtrnEcoSystemParticipationDev.sol\":9195:9374  function getTotalPointsGenerated()... */\n    tag_91:\n        /* \"ptrn_eco_system_dev_contracts/PtrnEcoSystemParticipationDev.sol\":9323:9330  uint256 */\n      0x00\n        /* \"ptrn_eco_system_dev_contracts/PtrnEcoSystemParticipationDev.sol\":1510:1511  0 */\n      dup1\n        /* \"ptrn_eco_system_dev_contracts/PtrnEcoSystemParticipationDev.sol\":1477:1512  acceptedSenderAddress != address(0) */\n      0xffffffffffffffffffffffffffffffffffffffff\n      and\n        /* \"ptrn_eco_system_dev_contracts/PtrnEcoSystemParticipationDev.sol\":1477:1498  acceptedSenderAddress */\n      0x01\n      0x00\n      swap1\n      sload\n      swap1\n      0x0100\n      exp\n      swap1\n      div\n      0xffffffffffffffffffffffffffffffffffffffff\n      and\n        /* \"ptrn_eco_system_dev_contracts/PtrnEcoSystemParticipationDev.sol\":1477:1512  acceptedSenderAddress != address(0) */\n      0xffffffffffffffffffffffffffffffffffffffff\n      and\n      sub\n        /* \"ptrn_eco_system_dev_contracts/PtrnEcoSystemParticipationDev.sol\":1469:1531  require(acceptedSenderAddress != address(0), \"Not activated.\") */\n      tag_277\n      jumpi\n      mload(0x40)\n      0x08c379a000000000000000000000000000000000000000000000000000000000\n      dup2\n      mstore\n      0x04\n      add\n      tag_278\n      swap1\n      tag_159\n      jump\t// in\n    tag_278:\n      mload(0x40)\n      dup1\n      swap2\n      sub\n      swap1\n      revert\n    tag_277:\n        /* \"ptrn_eco_system_dev_contracts/PtrnEcoSystemParticipationDev.sol\":1634:1655  acceptedSenderAddress */\n      0x01\n      0x00\n      swap1\n      sload\n      swap1\n      0x0100\n      exp\n      swap1\n      div\n      0xffffffffffffffffffffffffffffffffffffffff\n      and\n        /* \"ptrn_eco_system_dev_contracts/PtrnEcoSystemParticipationDev.sol\":1620:1655  msg.sender == acceptedSenderAddress */\n      0xffffffffffffffffffffffffffffffffffffffff\n      and\n        /* \"ptrn_eco_system_dev_contracts/PtrnEcoSystemParticipationDev.sol\":1620:1630  msg.sender */\n      caller\n        /* \"ptrn_eco_system_dev_contracts/PtrnEcoSystemParticipationDev.sol\":1620:1655  msg.sender == acceptedSenderAddress */\n      0xffffffffffffffffffffffffffffffffffffffff\n      and\n      eq\n        /* \"ptrn_eco_system_dev_contracts/PtrnEcoSystemParticipationDev.sol\":1620:1680  msg.sender == acceptedSenderAddress || msg.sender == owner() */\n      dup1\n      tag_280\n      jumpi\n      pop\n        /* \"ptrn_eco_system_dev_contracts/PtrnEcoSystemParticipationDev.sol\":1673:1680  owner() */\n      tag_281\n        /* \"ptrn_eco_system_dev_contracts/PtrnEcoSystemParticipationDev.sol\":1673:1678  owner */\n      tag_85\n        /* \"ptrn_eco_system_dev_contracts/PtrnEcoSystemParticipationDev.sol\":1673:1680  owner() */\n      jump\t// in\n    tag_281:\n        /* \"ptrn_eco_system_dev_contracts/PtrnEcoSystemParticipationDev.sol\":1659:1680  msg.sender == owner() */\n      0xffffffffffffffffffffffffffffffffffffffff\n      and\n        /* \"ptrn_eco_system_dev_contracts/PtrnEcoSystemParticipationDev.sol\":1659:1669  msg.sender */\n      caller\n        /* \"ptrn_eco_system_dev_contracts/PtrnEcoSystemParticipationDev.sol\":1659:1680  msg.sender == owner() */\n      0xffffffffffffffffffffffffffffffffffffffff\n      and\n      eq\n        /* \"ptrn_eco_system_dev_contracts/PtrnEcoSystemParticipationDev.sol\":1620:1680  msg.sender == acceptedSenderAddress || msg.sender == owner() */\n    tag_280:\n        /* \"ptrn_eco_system_dev_contracts/PtrnEcoSystemParticipationDev.sol\":1598:1745  require(... */\n      tag_282\n      jumpi\n      mload(0x40)\n      0x08c379a000000000000000000000000000000000000000000000000000000000\n      dup2\n      mstore\n      0x04\n      add\n      tag_283\n      swap1\n      tag_195\n      jump\t// in\n    tag_283:\n      mload(0x40)\n      dup1\n      swap2\n      sub\n      swap1\n      revert\n    tag_282:\n        /* \"ptrn_eco_system_dev_contracts/PtrnEcoSystemParticipationDev.sol\":9353:9367  totalConverted */\n      sload(0x03)\n        /* \"ptrn_eco_system_dev_contracts/PtrnEcoSystemParticipationDev.sol\":9346:9367  return totalConverted */\n      swap1\n      pop\n        /* \"ptrn_eco_system_dev_contracts/PtrnEcoSystemParticipationDev.sol\":9195:9374  function getTotalPointsGenerated()... */\n      swap1\n      jump\t// out\n        /* \"ptrn_eco_system_dev_contracts/PtrnEcoSystemParticipationDev.sol\":10018:10198  function getTokenInfo()... */\n    tag_94:\n        /* \"ptrn_eco_system_dev_contracts/PtrnEcoSystemParticipationDev.sol\":10117:10124  address */\n      0x00\n        /* \"ptrn_eco_system_dev_contracts/PtrnEcoSystemParticipationDev.sol\":10126:10139  string memory */\n      0x60\n        /* \"ptrn_eco_system_dev_contracts/PtrnEcoSystemParticipationDev.sol\":1634:1655  acceptedSenderAddress */\n      0x01\n      0x00\n      swap1\n      sload\n      swap1\n      0x0100\n      exp\n      swap1\n      div\n      0xffffffffffffffffffffffffffffffffffffffff\n      and\n        /* \"ptrn_eco_system_dev_contracts/PtrnEcoSystemParticipationDev.sol\":1620:1655  msg.sender == acceptedSenderAddress */\n      0xffffffffffffffffffffffffffffffffffffffff\n      and\n        /* \"ptrn_eco_system_dev_contracts/PtrnEcoSystemParticipationDev.sol\":1620:1630  msg.sender */\n      caller\n        /* \"ptrn_eco_system_dev_contracts/PtrnEcoSystemParticipationDev.sol\":1620:1655  msg.sender == acceptedSenderAddress */\n      0xffffffffffffffffffffffffffffffffffffffff\n      and\n      eq\n        /* \"ptrn_eco_system_dev_contracts/PtrnEcoSystemParticipationDev.sol\":1620:1680  msg.sender == acceptedSenderAddress || msg.sender == owner() */\n      dup1\n      tag_286\n      jumpi\n      pop\n        /* \"ptrn_eco_system_dev_contracts/PtrnEcoSystemParticipationDev.sol\":1673:1680  owner() */\n      tag_287\n        /* \"ptrn_eco_system_dev_contracts/PtrnEcoSystemParticipationDev.sol\":1673:1678  owner */\n      tag_85\n        /* \"ptrn_eco_system_dev_contracts/PtrnEcoSystemParticipationDev.sol\":1673:1680  owner() */\n      jump\t// in\n    tag_287:\n        /* \"ptrn_eco_system_dev_contracts/PtrnEcoSystemParticipationDev.sol\":1659:1680  msg.sender == owner() */\n      0xffffffffffffffffffffffffffffffffffffffff\n      and\n        /* \"ptrn_eco_system_dev_contracts/PtrnEcoSystemParticipationDev.sol\":1659:1669  msg.sender */\n      caller\n        /* \"ptrn_eco_system_dev_contracts/PtrnEcoSystemParticipationDev.sol\":1659:1680  msg.sender == owner() */\n      0xffffffffffffffffffffffffffffffffffffffff\n      and\n      eq\n        /* \"ptrn_eco_system_dev_contracts/PtrnEcoSystemParticipationDev.sol\":1620:1680  msg.sender == acceptedSenderAddress || msg.sender == owner() */\n    tag_286:\n        /* \"ptrn_eco_system_dev_contracts/PtrnEcoSystemParticipationDev.sol\":1598:1745  require(... */\n      tag_288\n      jumpi\n      mload(0x40)\n      0x08c379a000000000000000000000000000000000000000000000000000000000\n      dup2\n      mstore\n      0x04\n      add\n      tag_289\n      swap1\n      tag_195\n      jump\t// in\n    tag_289:\n      mload(0x40)\n      dup1\n      swap2\n      sub\n      swap1\n      revert\n    tag_288:\n        /* \"ptrn_eco_system_dev_contracts/PtrnEcoSystemParticipationDev.sol\":10171:10176  TOKEN */\n      immutable(\"0x765257ac7904069d2df513bf5979f3f927ab42f163b276055be4b8deb0e5a482\")\n        /* \"ptrn_eco_system_dev_contracts/PtrnEcoSystemParticipationDev.sol\":10179:10190  tokenSymbol */\n      0x06\n        /* \"ptrn_eco_system_dev_contracts/PtrnEcoSystemParticipationDev.sol\":10155:10191  return (address(TOKEN), tokenSymbol) */\n      dup1\n      dup1\n      sload\n      tag_291\n      swap1\n      tag_292\n      jump\t// in\n    tag_291:\n      dup1\n      0x1f\n      add\n      0x20\n      dup1\n      swap2\n      div\n      mul\n      0x20\n      add\n      mload(0x40)\n      swap1\n      dup2\n      add\n      0x40\n      mstore\n      dup1\n      swap3\n      swap2\n      swap1\n      dup2\n      dup2\n      mstore\n      0x20\n      add\n      dup3\n      dup1\n      sload\n      tag_293\n      swap1\n      tag_292\n      jump\t// in\n    tag_293:\n      dup1\n      iszero\n      tag_294\n      jumpi\n      dup1\n      0x1f\n      lt\n      tag_295\n      jumpi\n      0x0100\n      dup1\n      dup4\n      sload\n      div\n      mul\n      dup4\n      mstore\n      swap2\n      0x20\n      add\n      swap2\n      jump(tag_294)\n    tag_295:\n      dup3\n      add\n      swap2\n      swap1\n      0x00\n      mstore\n      keccak256(0x00, 0x20)\n      swap1\n    tag_296:\n      dup2\n      sload\n      dup2\n      mstore\n      swap1\n      0x01\n      add\n      swap1\n      0x20\n      add\n      dup1\n      dup4\n      gt\n      tag_296\n      jumpi\n      dup3\n      swap1\n      sub\n      0x1f\n      and\n      dup3\n      add\n      swap2\n    tag_294:\n      pop\n      pop\n      pop\n      pop\n      pop\n      swap1\n      pop\n      swap2\n      pop\n      swap2\n      pop\n        /* \"ptrn_eco_system_dev_contracts/PtrnEcoSystemParticipationDev.sol\":10018:10198  function getTokenInfo()... */\n      swap1\n      swap2\n      jump\t// out\n        /* \"ptrn_eco_system_dev_contracts/PtrnEcoSystemParticipationDev.sol\":4433:4669  function addNewPoolRateFeed(address _ConsumerInterfaceAddress)... */\n    tag_99:\n        /* \"@openzeppelin/contracts/access/Ownable.sol\":1094:1107  _checkOwner() */\n      tag_298\n        /* \"@openzeppelin/contracts/access/Ownable.sol\":1094:1105  _checkOwner */\n      tag_126\n        /* \"@openzeppelin/contracts/access/Ownable.sol\":1094:1107  _checkOwner() */\n      jump\t// in\n    tag_298:\n        /* \"ptrn_eco_system_dev_contracts/PtrnEcoSystemParticipationDev.sol\":4586:4587  0 */\n      0x00\n        /* \"ptrn_eco_system_dev_contracts/PtrnEcoSystemParticipationDev.sol\":4551:4588  _ConsumerInterfaceAddress!=address(0) */\n      0xffffffffffffffffffffffffffffffffffffffff\n      and\n        /* \"ptrn_eco_system_dev_contracts/PtrnEcoSystemParticipationDev.sol\":4551:4576  _ConsumerInterfaceAddress */\n      dup2\n        /* \"ptrn_eco_system_dev_contracts/PtrnEcoSystemParticipationDev.sol\":4551:4588  _ConsumerInterfaceAddress!=address(0) */\n      0xffffffffffffffffffffffffffffffffffffffff\n      and\n      sub\n        /* \"ptrn_eco_system_dev_contracts/PtrnEcoSystemParticipationDev.sol\":4543:4589  require(_ConsumerInterfaceAddress!=address(0)) */\n      tag_300\n      jumpi\n      0x00\n      dup1\n      revert\n    tag_300:\n        /* \"ptrn_eco_system_dev_contracts/PtrnEcoSystemParticipationDev.sol\":4636:4661  _ConsumerInterfaceAddress */\n      dup1\n        /* \"ptrn_eco_system_dev_contracts/PtrnEcoSystemParticipationDev.sol\":4599:4611  poolConsumer */\n      0x08\n      0x00\n        /* \"ptrn_eco_system_dev_contracts/PtrnEcoSystemParticipationDev.sol\":4599:4662  poolConsumer = PoolConsumerInterface(_ConsumerInterfaceAddress) */\n      0x0100\n      exp\n      dup2\n      sload\n      dup2\n      0xffffffffffffffffffffffffffffffffffffffff\n      mul\n      not\n      and\n      swap1\n      dup4\n      0xffffffffffffffffffffffffffffffffffffffff\n      and\n      mul\n      or\n      swap1\n      sstore\n      pop\n        /* \"ptrn_eco_system_dev_contracts/PtrnEcoSystemParticipationDev.sol\":4433:4669  function addNewPoolRateFeed(address _ConsumerInterfaceAddress)... */\n      pop\n      jump\t// out\n        /* \"ptrn_eco_system_dev_contracts/PtrnEcoSystemParticipationDev.sol\":8303:8494  function balanceOfToken(address tokenAddress)... */\n    tag_102:\n        /* \"ptrn_eco_system_dev_contracts/PtrnEcoSystemParticipationDev.sol\":8412:8419  uint256 */\n      0x00\n        /* \"@openzeppelin/contracts/access/Ownable.sol\":1094:1107  _checkOwner() */\n      tag_302\n        /* \"@openzeppelin/contracts/access/Ownable.sol\":1094:1105  _checkOwner */\n      tag_126\n        /* \"@openzeppelin/contracts/access/Ownable.sol\":1094:1107  _checkOwner() */\n      jump\t// in\n    tag_302:\n        /* \"ptrn_eco_system_dev_contracts/PtrnEcoSystemParticipationDev.sol\":8449:8461  tokenAddress */\n      dup2\n        /* \"ptrn_eco_system_dev_contracts/PtrnEcoSystemParticipationDev.sol\":8442:8472  IERC20(tokenAddress).balanceOf */\n      0xffffffffffffffffffffffffffffffffffffffff\n      and\n      0x70a08231\n        /* \"ptrn_eco_system_dev_contracts/PtrnEcoSystemParticipationDev.sol\":8481:8485  this */\n      address\n        /* \"ptrn_eco_system_dev_contracts/PtrnEcoSystemParticipationDev.sol\":8442:8487  IERC20(tokenAddress).balanceOf(address(this)) */\n      mload(0x40)\n      dup3\n      0xffffffff\n      and\n      0xe0\n      shl\n      dup2\n      mstore\n      0x04\n      add\n      tag_304\n      swap2\n      swap1\n      tag_47\n      jump\t// in\n    tag_304:\n      0x20\n      mload(0x40)\n      dup1\n      dup4\n      sub\n      dup2\n      dup7\n      gas\n      staticcall\n      iszero\n      dup1\n      iszero\n      tag_306\n      jumpi\n      returndatasize\n      0x00\n      dup1\n      returndatacopy\n      revert(0x00, returndatasize)\n    tag_306:\n      pop\n      pop\n      pop\n      pop\n      mload(0x40)\n      returndatasize\n      not(0x1f)\n      0x1f\n      dup3\n      add\n      and\n      dup3\n      add\n      dup1\n      0x40\n      mstore\n      pop\n      dup2\n      add\n      swap1\n      tag_307\n      swap2\n      swap1\n      tag_245\n      jump\t// in\n    tag_307:\n        /* \"ptrn_eco_system_dev_contracts/PtrnEcoSystemParticipationDev.sol\":8435:8487  return IERC20(tokenAddress).balanceOf(address(this)) */\n      swap1\n      pop\n        /* \"ptrn_eco_system_dev_contracts/PtrnEcoSystemParticipationDev.sol\":8303:8494  function balanceOfToken(address tokenAddress)... */\n      swap2\n      swap1\n      pop\n      jump\t// out\n        /* \"ptrn_eco_system_dev_contracts/PtrnEcoSystemParticipationDev.sol\":9910:10012  function getInitialActivationAddress() public view returns (address) {... */\n    tag_105:\n        /* \"ptrn_eco_system_dev_contracts/PtrnEcoSystemParticipationDev.sol\":9970:9977  address */\n      0x00\n        /* \"ptrn_eco_system_dev_contracts/PtrnEcoSystemParticipationDev.sol\":9996:10005  ACTIVATOR */\n      immutable(\"0x5fe7a1a414abe991afbda9a853d967f992c558068728d0e3ee148ed2656bb10a\")\n        /* \"ptrn_eco_system_dev_contracts/PtrnEcoSystemParticipationDev.sol\":9989:10005  return ACTIVATOR */\n      swap1\n      pop\n        /* \"ptrn_eco_system_dev_contracts/PtrnEcoSystemParticipationDev.sol\":9910:10012  function getInitialActivationAddress() public view returns (address) {... */\n      swap1\n      jump\t// out\n        /* \"ptrn_eco_system_dev_contracts/PtrnEcoSystemParticipationDev.sol\":3945:4144  function currentRateFeed() public view onlyOwner returns (string memory) {... */\n    tag_108:\n        /* \"ptrn_eco_system_dev_contracts/PtrnEcoSystemParticipationDev.sol\":4003:4016  string memory */\n      0x60\n        /* \"@openzeppelin/contracts/access/Ownable.sol\":1094:1107  _checkOwner() */\n      tag_310\n        /* \"@openzeppelin/contracts/access/Ownable.sol\":1094:1105  _checkOwner */\n      tag_126\n        /* \"@openzeppelin/contracts/access/Ownable.sol\":1094:1107  _checkOwner() */\n      jump\t// in\n    tag_310:\n        /* \"ptrn_eco_system_dev_contracts/PtrnEcoSystemParticipationDev.sol\":4028:4048  string memory result */\n      0x60\n        /* \"ptrn_eco_system_dev_contracts/PtrnEcoSystemParticipationDev.sol\":4058:4070  poolRateFeed */\n      0x01\n      0x14\n      swap1\n      sload\n      swap1\n      0x0100\n      exp\n      swap1\n      div\n      0xff\n      and\n        /* \"ptrn_eco_system_dev_contracts/PtrnEcoSystemParticipationDev.sol\":4058:4114  poolRateFeed ? result = \"Pool\" : result = \"AggregatorV3\" */\n      tag_312\n      jumpi\n        /* \"ptrn_eco_system_dev_contracts/PtrnEcoSystemParticipationDev.sol\":4091:4114  result = \"AggregatorV3\" */\n      mload(0x40)\n      dup1\n      0x40\n      add\n      0x40\n      mstore\n      dup1\n      0x0c\n      dup2\n      mstore\n      0x20\n      add\n      0x41676772656761746f7256330000000000000000000000000000000000000000\n      dup2\n      mstore\n      pop\n      swap1\n      pop\n      dup1\n        /* \"ptrn_eco_system_dev_contracts/PtrnEcoSystemParticipationDev.sol\":4058:4114  poolRateFeed ? result = \"Pool\" : result = \"AggregatorV3\" */\n      jump(tag_313)\n    tag_312:\n        /* \"ptrn_eco_system_dev_contracts/PtrnEcoSystemParticipationDev.sol\":4073:4088  result = \"Pool\" */\n      mload(0x40)\n      dup1\n      0x40\n      add\n      0x40\n      mstore\n      dup1\n      0x04\n      dup2\n      mstore\n      0x20\n      add\n      0x506f6f6c00000000000000000000000000000000000000000000000000000000\n      dup2\n      mstore\n      pop\n      swap1\n      pop\n      dup1\n        /* \"ptrn_eco_system_dev_contracts/PtrnEcoSystemParticipationDev.sol\":4058:4114  poolRateFeed ? result = \"Pool\" : result = \"AggregatorV3\" */\n    tag_313:\n      pop\n        /* \"ptrn_eco_system_dev_contracts/PtrnEcoSystemParticipationDev.sol\":4131:4137  result */\n      dup1\n        /* \"ptrn_eco_system_dev_contracts/PtrnEcoSystemParticipationDev.sol\":4124:4137  return result */\n      swap2\n      pop\n      pop\n        /* \"ptrn_eco_system_dev_contracts/PtrnEcoSystemParticipationDev.sol\":3945:4144  function currentRateFeed() public view onlyOwner returns (string memory) {... */\n      swap1\n      jump\t// out\n        /* \"ptrn_eco_system_dev_contracts/PtrnEcoSystemParticipationDev.sol\":3470:3939  function changeRateFeed() public onlyOwner {... */\n    tag_112:\n        /* \"@openzeppelin/contracts/access/Ownable.sol\":1094:1107  _checkOwner() */\n      tag_315\n        /* \"@openzeppelin/contracts/access/Ownable.sol\":1094:1105  _checkOwner */\n      tag_126\n        /* \"@openzeppelin/contracts/access/Ownable.sol\":1094:1107  _checkOwner() */\n      jump\t// in\n    tag_315:\n        /* \"ptrn_eco_system_dev_contracts/PtrnEcoSystemParticipationDev.sol\":3527:3539  poolRateFeed */\n      0x01\n      0x14\n      swap1\n      sload\n      swap1\n      0x0100\n      exp\n      swap1\n      div\n      0xff\n      and\n        /* \"ptrn_eco_system_dev_contracts/PtrnEcoSystemParticipationDev.sol\":3523:3895  if (poolRateFeed) {... */\n      iszero\n      tag_317\n      jumpi\n        /* \"ptrn_eco_system_dev_contracts/PtrnEcoSystemParticipationDev.sol\":3580:3592  poolRateFeed */\n      0x01\n      0x14\n      swap1\n      sload\n      swap1\n      0x0100\n      exp\n      swap1\n      div\n      0xff\n      and\n        /* \"ptrn_eco_system_dev_contracts/PtrnEcoSystemParticipationDev.sol\":3580:3639  poolRateFeed && (address(aggregatorConsumer) != address(0)) */\n      dup1\n      iszero\n      tag_318\n      jumpi\n      pop\n        /* \"ptrn_eco_system_dev_contracts/PtrnEcoSystemParticipationDev.sol\":3636:3637  0 */\n      0x00\n        /* \"ptrn_eco_system_dev_contracts/PtrnEcoSystemParticipationDev.sol\":3597:3638  address(aggregatorConsumer) != address(0) */\n      0xffffffffffffffffffffffffffffffffffffffff\n      and\n        /* \"ptrn_eco_system_dev_contracts/PtrnEcoSystemParticipationDev.sol\":3605:3623  aggregatorConsumer */\n      0x07\n      0x00\n      swap1\n      sload\n      swap1\n      0x0100\n      exp\n      swap1\n      div\n      0xffffffffffffffffffffffffffffffffffffffff\n      and\n        /* \"ptrn_eco_system_dev_contracts/PtrnEcoSystemParticipationDev.sol\":3597:3638  address(aggregatorConsumer) != address(0) */\n      0xffffffffffffffffffffffffffffffffffffffff\n      and\n      eq\n      iszero\n        /* \"ptrn_eco_system_dev_contracts/PtrnEcoSystemParticipationDev.sol\":3580:3639  poolRateFeed && (address(aggregatorConsumer) != address(0)) */\n    tag_318:\n        /* \"ptrn_eco_system_dev_contracts/PtrnEcoSystemParticipationDev.sol\":3555:3710  require(... */\n      tag_319\n      jumpi\n      mload(0x40)\n      0x08c379a000000000000000000000000000000000000000000000000000000000\n      dup2\n      mstore\n      0x04\n      add\n      tag_320\n      swap1\n      tag_321\n      jump\t// in\n    tag_320:\n      mload(0x40)\n      dup1\n      swap2\n      sub\n      swap1\n      revert\n    tag_319:\n        /* \"ptrn_eco_system_dev_contracts/PtrnEcoSystemParticipationDev.sol\":3523:3895  if (poolRateFeed) {... */\n      jump(tag_322)\n    tag_317:\n        /* \"ptrn_eco_system_dev_contracts/PtrnEcoSystemParticipationDev.sol\":3766:3778  poolRateFeed */\n      0x01\n      0x14\n      swap1\n      sload\n      swap1\n      0x0100\n      exp\n      swap1\n      div\n      0xff\n      and\n        /* \"ptrn_eco_system_dev_contracts/PtrnEcoSystemParticipationDev.sol\":3766:3819  poolRateFeed && (address(poolConsumer) != address(0)) */\n      dup1\n      iszero\n      tag_323\n      jumpi\n      pop\n        /* \"ptrn_eco_system_dev_contracts/PtrnEcoSystemParticipationDev.sol\":3816:3817  0 */\n      0x00\n        /* \"ptrn_eco_system_dev_contracts/PtrnEcoSystemParticipationDev.sol\":3783:3818  address(poolConsumer) != address(0) */\n      0xffffffffffffffffffffffffffffffffffffffff\n      and\n        /* \"ptrn_eco_system_dev_contracts/PtrnEcoSystemParticipationDev.sol\":3791:3803  poolConsumer */\n      0x08\n      0x00\n      swap1\n      sload\n      swap1\n      0x0100\n      exp\n      swap1\n      div\n      0xffffffffffffffffffffffffffffffffffffffff\n      and\n        /* \"ptrn_eco_system_dev_contracts/PtrnEcoSystemParticipationDev.sol\":3783:3818  address(poolConsumer) != address(0) */\n      0xffffffffffffffffffffffffffffffffffffffff\n      and\n      eq\n      iszero\n        /* \"ptrn_eco_system_dev_contracts/PtrnEcoSystemParticipationDev.sol\":3766:3819  poolRateFeed && (address(poolConsumer) != address(0)) */\n    tag_323:\n        /* \"ptrn_eco_system_dev_contracts/PtrnEcoSystemParticipationDev.sol\":3741:3884  require(... */\n      tag_324\n      jumpi\n      mload(0x40)\n      0x08c379a000000000000000000000000000000000000000000000000000000000\n      dup2\n      mstore\n      0x04\n      add\n      tag_325\n      swap1\n      tag_326\n      jump\t// in\n    tag_325:\n      mload(0x40)\n      dup1\n      swap2\n      sub\n      swap1\n      revert\n    tag_324:\n        /* \"ptrn_eco_system_dev_contracts/PtrnEcoSystemParticipationDev.sol\":3523:3895  if (poolRateFeed) {... */\n    tag_322:\n        /* \"ptrn_eco_system_dev_contracts/PtrnEcoSystemParticipationDev.sol\":3920:3932  poolRateFeed */\n      0x01\n      0x14\n      swap1\n      sload\n      swap1\n      0x0100\n      exp\n      swap1\n      div\n      0xff\n      and\n        /* \"ptrn_eco_system_dev_contracts/PtrnEcoSystemParticipationDev.sol\":3919:3932  !poolRateFeed */\n      iszero\n        /* \"ptrn_eco_system_dev_contracts/PtrnEcoSystemParticipationDev.sol\":3904:3916  poolRateFeed */\n      0x01\n      0x14\n        /* \"ptrn_eco_system_dev_contracts/PtrnEcoSystemParticipationDev.sol\":3904:3932  poolRateFeed = !poolRateFeed */\n      0x0100\n      exp\n      dup2\n      sload\n      dup2\n      0xff\n      mul\n      not\n      and\n      swap1\n      dup4\n      iszero\n      iszero\n      mul\n      or\n      swap1\n      sstore\n      pop\n        /* \"ptrn_eco_system_dev_contracts/PtrnEcoSystemParticipationDev.sol\":3470:3939  function changeRateFeed() public onlyOwner {... */\n      jump\t// out\n        /* \"ptrn_eco_system_dev_contracts/PtrnEcoSystemParticipationDev.sol\":6057:7276  function chargeContract(uint256 amount)... */\n    tag_116:\n        /* \"ptrn_eco_system_dev_contracts/PtrnEcoSystemParticipationDev.sol\":6249:6253  bool */\n      0x00\n        /* \"@openzeppelin/contracts/security/Pausable.sol\":1239:1258  _requireNotPaused() */\n      tag_328\n        /* \"@openzeppelin/contracts/security/Pausable.sol\":1239:1256  _requireNotPaused */\n      tag_150\n        /* \"@openzeppelin/contracts/security/Pausable.sol\":1239:1258  _requireNotPaused() */\n      jump\t// in\n    tag_328:\n        /* \"ptrn_eco_system_dev_contracts/PtrnEcoSystemParticipationDev.sol\":1510:1511  0 */\n      0x00\n        /* \"ptrn_eco_system_dev_contracts/PtrnEcoSystemParticipationDev.sol\":1477:1512  acceptedSenderAddress != address(0) */\n      0xffffffffffffffffffffffffffffffffffffffff\n      and\n        /* \"ptrn_eco_system_dev_contracts/PtrnEcoSystemParticipationDev.sol\":1477:1498  acceptedSenderAddress */\n      0x01\n      0x00\n      swap1\n      sload\n      swap1\n      0x0100\n      exp\n      swap1\n      div\n      0xffffffffffffffffffffffffffffffffffffffff\n      and\n        /* \"ptrn_eco_system_dev_contracts/PtrnEcoSystemParticipationDev.sol\":1477:1512  acceptedSenderAddress != address(0) */\n      0xffffffffffffffffffffffffffffffffffffffff\n      and\n      sub\n        /* \"ptrn_eco_system_dev_contracts/PtrnEcoSystemParticipationDev.sol\":1469:1531  require(acceptedSenderAddress != address(0), \"Not activated.\") */\n      tag_330\n      jumpi\n      mload(0x40)\n      0x08c379a000000000000000000000000000000000000000000000000000000000\n      dup2\n      mstore\n      0x04\n      add\n      tag_331\n      swap1\n      tag_159\n      jump\t// in\n    tag_331:\n      mload(0x40)\n      dup1\n      swap2\n      sub\n      swap1\n      revert\n    tag_330:\n        /* \"ptrn_eco_system_dev_contracts/PtrnEcoSystemParticipationDev.sol\":1373:1394  acceptedSenderAddress */\n      0x01\n      0x00\n      swap1\n      sload\n      swap1\n      0x0100\n      exp\n      swap1\n      div\n      0xffffffffffffffffffffffffffffffffffffffff\n      and\n        /* \"ptrn_eco_system_dev_contracts/PtrnEcoSystemParticipationDev.sol\":1359:1394  msg.sender == acceptedSenderAddress */\n      0xffffffffffffffffffffffffffffffffffffffff\n      and\n        /* \"ptrn_eco_system_dev_contracts/PtrnEcoSystemParticipationDev.sol\":1359:1369  msg.sender */\n      caller\n        /* \"ptrn_eco_system_dev_contracts/PtrnEcoSystemParticipationDev.sol\":1359:1394  msg.sender == acceptedSenderAddress */\n      0xffffffffffffffffffffffffffffffffffffffff\n      and\n      eq\n        /* \"ptrn_eco_system_dev_contracts/PtrnEcoSystemParticipationDev.sol\":1351:1414  require(msg.sender == acceptedSenderAddress, \"Not Authorized!\") */\n      tag_333\n      jumpi\n      mload(0x40)\n      0x08c379a000000000000000000000000000000000000000000000000000000000\n      dup2\n      mstore\n      0x04\n      add\n      tag_334\n      swap1\n      tag_171\n      jump\t// in\n    tag_334:\n      mload(0x40)\n      dup1\n      swap2\n      sub\n      swap1\n      revert\n    tag_333:\n        /* \"ptrn_eco_system_dev_contracts/PtrnEcoSystemParticipationDev.sol\":6286:6287  0 */\n      0x00\n        /* \"ptrn_eco_system_dev_contracts/PtrnEcoSystemParticipationDev.sol\":6277:6283  amount */\n      dup3\n        /* \"ptrn_eco_system_dev_contracts/PtrnEcoSystemParticipationDev.sol\":6277:6287  amount > 0 */\n      gt\n        /* \"ptrn_eco_system_dev_contracts/PtrnEcoSystemParticipationDev.sol\":6269:6309  require(amount > 0, \"No charge amount!\") */\n      tag_336\n      jumpi\n      mload(0x40)\n      0x08c379a000000000000000000000000000000000000000000000000000000000\n      dup2\n      mstore\n      0x04\n      add\n      tag_337\n      swap1\n      tag_338\n      jump\t// in\n    tag_337:\n      mload(0x40)\n      dup1\n      swap2\n      sub\n      swap1\n      revert\n    tag_336:\n        /* \"ptrn_eco_system_dev_contracts/PtrnEcoSystemParticipationDev.sol\":6319:6336  uint256 allowance */\n      0x00\n        /* \"ptrn_eco_system_dev_contracts/PtrnEcoSystemParticipationDev.sol\":6339:6344  TOKEN */\n      immutable(\"0x765257ac7904069d2df513bf5979f3f927ab42f163b276055be4b8deb0e5a482\")\n        /* \"ptrn_eco_system_dev_contracts/PtrnEcoSystemParticipationDev.sol\":6339:6354  TOKEN.allowance */\n      0xffffffffffffffffffffffffffffffffffffffff\n      and\n      0xdd62ed3e\n        /* \"ptrn_eco_system_dev_contracts/PtrnEcoSystemParticipationDev.sol\":6355:6365  msg.sender */\n      caller\n        /* \"ptrn_eco_system_dev_contracts/PtrnEcoSystemParticipationDev.sol\":6375:6379  this */\n      address\n        /* \"ptrn_eco_system_dev_contracts/PtrnEcoSystemParticipationDev.sol\":6339:6381  TOKEN.allowance(msg.sender, address(this)) */\n      mload(0x40)\n      dup4\n      0xffffffff\n      and\n      0xe0\n      shl\n      dup2\n      mstore\n      0x04\n      add\n      tag_339\n      swap3\n      swap2\n      swap1\n      tag_340\n      jump\t// in\n    tag_339:\n      0x20\n      mload(0x40)\n      dup1\n      dup4\n      sub\n      dup2\n      dup7\n      gas\n      staticcall\n      iszero\n      dup1\n      iszero\n      tag_342\n      jumpi\n      returndatasize\n      0x00\n      dup1\n      returndatacopy\n      revert(0x00, returndatasize)\n    tag_342:\n      pop\n      pop\n      pop\n      pop\n      mload(0x40)\n      returndatasize\n      not(0x1f)\n      0x1f\n      dup3\n      add\n      and\n      dup3\n      add\n      dup1\n      0x40\n      mstore\n      pop\n      dup2\n      add\n      swap1\n      tag_343\n      swap2\n      swap1\n      tag_245\n      jump\t// in\n    tag_343:\n        /* \"ptrn_eco_system_dev_contracts/PtrnEcoSystemParticipationDev.sol\":6319:6381  uint256 allowance = TOKEN.allowance(msg.sender, address(this)) */\n      swap1\n      pop\n        /* \"ptrn_eco_system_dev_contracts/PtrnEcoSystemParticipationDev.sol\":6425:6431  amount */\n      dup3\n        /* \"ptrn_eco_system_dev_contracts/PtrnEcoSystemParticipationDev.sol\":6412:6421  allowance */\n      dup2\n        /* \"ptrn_eco_system_dev_contracts/PtrnEcoSystemParticipationDev.sol\":6412:6431  allowance >= amount */\n      lt\n      iszero\n        /* \"ptrn_eco_system_dev_contracts/PtrnEcoSystemParticipationDev.sol\":6473:6484  tokenSymbol */\n      0x06\n        /* \"ptrn_eco_system_dev_contracts/PtrnEcoSystemParticipationDev.sol\":6445:6510  string.concat(\"Check the \", tokenSymbol, \" token \", \"allowance.\") */\n      add(0x20, mload(0x40))\n      tag_344\n      swap2\n      swap1\n      tag_345\n      jump\t// in\n    tag_344:\n      mload(0x40)\n      0x20\n      dup2\n      dup4\n      sub\n      sub\n      dup2\n      mstore\n      swap1\n      0x40\n      mstore\n        /* \"ptrn_eco_system_dev_contracts/PtrnEcoSystemParticipationDev.sol\":6391:6520  require(... */\n      swap1\n      tag_346\n      jumpi\n      mload(0x40)\n      0x08c379a000000000000000000000000000000000000000000000000000000000\n      dup2\n      mstore\n      0x04\n      add\n      tag_347\n      swap2\n      swap1\n      tag_110\n      jump\t// in\n    tag_347:\n      mload(0x40)\n      dup1\n      swap2\n      sub\n      swap1\n      revert\n    tag_346:\n      pop\n        /* \"ptrn_eco_system_dev_contracts/PtrnEcoSystemParticipationDev.sol\":6530:6535  TOKEN */\n      immutable(\"0x765257ac7904069d2df513bf5979f3f927ab42f163b276055be4b8deb0e5a482\")\n        /* \"ptrn_eco_system_dev_contracts/PtrnEcoSystemParticipationDev.sol\":6530:6548  TOKEN.transferFrom */\n      0xffffffffffffffffffffffffffffffffffffffff\n      and\n      0x23b872dd\n        /* \"ptrn_eco_system_dev_contracts/PtrnEcoSystemParticipationDev.sol\":6549:6559  msg.sender */\n      caller\n        /* \"ptrn_eco_system_dev_contracts/PtrnEcoSystemParticipationDev.sol\":6569:6573  this */\n      address\n        /* \"ptrn_eco_system_dev_contracts/PtrnEcoSystemParticipationDev.sol\":6576:6582  amount */\n      dup7\n        /* \"ptrn_eco_system_dev_contracts/PtrnEcoSystemParticipationDev.sol\":6530:6583  TOKEN.transferFrom(msg.sender, address(this), amount) */\n      mload(0x40)\n      dup5\n      0xffffffff\n      and\n      0xe0\n      shl\n      dup2\n      mstore\n      0x04\n      add\n      tag_348\n      swap4\n      swap3\n      swap2\n      swap1\n      tag_349\n      jump\t// in\n    tag_348:\n      0x20\n      mload(0x40)\n      dup1\n      dup4\n      sub\n      dup2\n      0x00\n      dup8\n      gas\n      call\n      iszero\n      dup1\n      iszero\n      tag_351\n      jumpi\n      returndatasize\n      0x00\n      dup1\n      returndatacopy\n      revert(0x00, returndatasize)\n    tag_351:\n      pop\n      pop\n      pop\n      pop\n      mload(0x40)\n      returndatasize\n      not(0x1f)\n      0x1f\n      dup3\n      add\n      and\n      dup3\n      add\n      dup1\n      0x40\n      mstore\n      pop\n      dup2\n      add\n      swap1\n      tag_352\n      swap2\n      swap1\n      tag_232\n      jump\t// in\n    tag_352:\n      pop\n        /* \"ptrn_eco_system_dev_contracts/PtrnEcoSystemParticipationDev.sol\":6607:6619  uint256 rate */\n      0x00\n        /* \"ptrn_eco_system_dev_contracts/PtrnEcoSystemParticipationDev.sol\":6633:6649  uint256 decimals */\n      dup1\n        /* \"ptrn_eco_system_dev_contracts/PtrnEcoSystemParticipationDev.sol\":6663:6693  string memory chargeRateString */\n      0x00\n        /* \"ptrn_eco_system_dev_contracts/PtrnEcoSystemParticipationDev.sol\":6707:6729  uint256 chargeRateDate */\n      dup1\n        /* \"ptrn_eco_system_dev_contracts/PtrnEcoSystemParticipationDev.sol\":6742:6751  getRate() */\n      tag_353\n        /* \"ptrn_eco_system_dev_contracts/PtrnEcoSystemParticipationDev.sol\":6742:6749  getRate */\n      tag_354\n        /* \"ptrn_eco_system_dev_contracts/PtrnEcoSystemParticipationDev.sol\":6742:6751  getRate() */\n      jump\t// in\n    tag_353:\n        /* \"ptrn_eco_system_dev_contracts/PtrnEcoSystemParticipationDev.sol\":6593:6751  (... */\n      swap4\n      pop\n      swap4\n      pop\n      swap4\n      pop\n      swap4\n      pop\n        /* \"ptrn_eco_system_dev_contracts/PtrnEcoSystemParticipationDev.sol\":6774:6775  0 */\n      0x00\n        /* \"ptrn_eco_system_dev_contracts/PtrnEcoSystemParticipationDev.sol\":6769:6773  rate */\n      dup5\n        /* \"ptrn_eco_system_dev_contracts/PtrnEcoSystemParticipationDev.sol\":6769:6775  rate>0 */\n      gt\n        /* \"ptrn_eco_system_dev_contracts/PtrnEcoSystemParticipationDev.sol\":6769:6789  rate>0 && decimals>0 */\n      dup1\n      iszero\n      tag_355\n      jumpi\n      pop\n        /* \"ptrn_eco_system_dev_contracts/PtrnEcoSystemParticipationDev.sol\":6788:6789  0 */\n      0x00\n        /* \"ptrn_eco_system_dev_contracts/PtrnEcoSystemParticipationDev.sol\":6779:6787  decimals */\n      dup4\n        /* \"ptrn_eco_system_dev_contracts/PtrnEcoSystemParticipationDev.sol\":6779:6789  decimals>0 */\n      gt\n        /* \"ptrn_eco_system_dev_contracts/PtrnEcoSystemParticipationDev.sol\":6769:6789  rate>0 && decimals>0 */\n    tag_355:\n        /* \"ptrn_eco_system_dev_contracts/PtrnEcoSystemParticipationDev.sol\":6769:6809  rate>0 && decimals>0 && chargeRateDate>0 */\n      dup1\n      iszero\n      tag_356\n      jumpi\n      pop\n        /* \"ptrn_eco_system_dev_contracts/PtrnEcoSystemParticipationDev.sol\":6808:6809  0 */\n      0x00\n        /* \"ptrn_eco_system_dev_contracts/PtrnEcoSystemParticipationDev.sol\":6793:6807  chargeRateDate */\n      dup2\n        /* \"ptrn_eco_system_dev_contracts/PtrnEcoSystemParticipationDev.sol\":6793:6809  chargeRateDate>0 */\n      gt\n        /* \"ptrn_eco_system_dev_contracts/PtrnEcoSystemParticipationDev.sol\":6769:6809  rate>0 && decimals>0 && chargeRateDate>0 */\n    tag_356:\n        /* \"ptrn_eco_system_dev_contracts/PtrnEcoSystemParticipationDev.sol\":6761:6824  require(rate>0 && decimals>0 && chargeRateDate>0 ,\"rate error\") */\n      tag_357\n      jumpi\n      mload(0x40)\n      0x08c379a000000000000000000000000000000000000000000000000000000000\n      dup2\n      mstore\n      0x04\n      add\n      tag_358\n      swap1\n      tag_359\n      jump\t// in\n    tag_358:\n      mload(0x40)\n      dup1\n      swap2\n      sub\n      swap1\n      revert\n    tag_357:\n        /* \"ptrn_eco_system_dev_contracts/PtrnEcoSystemParticipationDev.sol\":6834:6860  burnIncomingTokens(amount) */\n      tag_360\n        /* \"ptrn_eco_system_dev_contracts/PtrnEcoSystemParticipationDev.sol\":6853:6859  amount */\n      dup8\n        /* \"ptrn_eco_system_dev_contracts/PtrnEcoSystemParticipationDev.sol\":6834:6852  burnIncomingTokens */\n      tag_361\n        /* \"ptrn_eco_system_dev_contracts/PtrnEcoSystemParticipationDev.sol\":6834:6860  burnIncomingTokens(amount) */\n      jump\t// in\n    tag_360:\n      pop\n        /* \"ptrn_eco_system_dev_contracts/PtrnEcoSystemParticipationDev.sol\":6870:6884  uint256 points */\n      0x00\n        /* \"ptrn_eco_system_dev_contracts/PtrnEcoSystemParticipationDev.sol\":6887:6926  calculatePoints(amount, rate, decimals) */\n      tag_362\n        /* \"ptrn_eco_system_dev_contracts/PtrnEcoSystemParticipationDev.sol\":6903:6909  amount */\n      dup9\n        /* \"ptrn_eco_system_dev_contracts/PtrnEcoSystemParticipationDev.sol\":6911:6915  rate */\n      dup7\n        /* \"ptrn_eco_system_dev_contracts/PtrnEcoSystemParticipationDev.sol\":6917:6925  decimals */\n      dup7\n        /* \"ptrn_eco_system_dev_contracts/PtrnEcoSystemParticipationDev.sol\":6887:6902  calculatePoints */\n      tag_363\n        /* \"ptrn_eco_system_dev_contracts/PtrnEcoSystemParticipationDev.sol\":6887:6926  calculatePoints(amount, rate, decimals) */\n      jump\t// in\n    tag_362:\n        /* \"ptrn_eco_system_dev_contracts/PtrnEcoSystemParticipationDev.sol\":6870:6926  uint256 points = calculatePoints(amount, rate, decimals) */\n      swap1\n      pop\n        /* \"ptrn_eco_system_dev_contracts/PtrnEcoSystemParticipationDev.sol\":6959:6965  points */\n      dup1\n        /* \"ptrn_eco_system_dev_contracts/PtrnEcoSystemParticipationDev.sol\":6936:6955  availableToWithdraw */\n      0x04\n      0x00\n        /* \"ptrn_eco_system_dev_contracts/PtrnEcoSystemParticipationDev.sol\":6936:6965  availableToWithdraw += points */\n      dup3\n      dup3\n      sload\n      tag_364\n      swap2\n      swap1\n      tag_138\n      jump\t// in\n    tag_364:\n      swap3\n      pop\n      pop\n      dup2\n      swap1\n      sstore\n      pop\n        /* \"ptrn_eco_system_dev_contracts/PtrnEcoSystemParticipationDev.sol\":6993:6999  points */\n      dup1\n        /* \"ptrn_eco_system_dev_contracts/PtrnEcoSystemParticipationDev.sol\":6975:6989  totalConverted */\n      0x03\n      0x00\n        /* \"ptrn_eco_system_dev_contracts/PtrnEcoSystemParticipationDev.sol\":6975:6999  totalConverted += points */\n      dup3\n      dup3\n      sload\n      tag_365\n      swap2\n      swap1\n      tag_138\n      jump\t// in\n    tag_365:\n      swap3\n      pop\n      pop\n      dup2\n      swap1\n      sstore\n      pop\n        /* \"ptrn_eco_system_dev_contracts/PtrnEcoSystemParticipationDev.sol\":7009:7027  uint256 chargeTime */\n      0x00\n        /* \"ptrn_eco_system_dev_contracts/PtrnEcoSystemParticipationDev.sol\":7030:7045  block.timestamp */\n      timestamp\n        /* \"ptrn_eco_system_dev_contracts/PtrnEcoSystemParticipationDev.sol\":7009:7045  uint256 chargeTime = block.timestamp */\n      swap1\n      pop\n        /* \"ptrn_eco_system_dev_contracts/PtrnEcoSystemParticipationDev.sol\":7226:7236  chargeTime */\n      dup1\n        /* \"ptrn_eco_system_dev_contracts/PtrnEcoSystemParticipationDev.sol\":7206:7212  amount */\n      dup10\n        /* \"ptrn_eco_system_dev_contracts/PtrnEcoSystemParticipationDev.sol\":7186:7192  points */\n      dup4\n        /* \"ptrn_eco_system_dev_contracts/PtrnEcoSystemParticipationDev.sol\":7060:7246  ChargeContract(... */\n      0xb5aeb7b225999adc33232be2121afb1a366c15108c1da745d17fd76108172fe4\n        /* \"ptrn_eco_system_dev_contracts/PtrnEcoSystemParticipationDev.sol\":7088:7092  rate */\n      dup10\n        /* \"ptrn_eco_system_dev_contracts/PtrnEcoSystemParticipationDev.sol\":7106:7114  decimals */\n      dup10\n        /* \"ptrn_eco_system_dev_contracts/PtrnEcoSystemParticipationDev.sol\":7128:7142  chargeRateDate */\n      dup9\n        /* \"ptrn_eco_system_dev_contracts/PtrnEcoSystemParticipationDev.sol\":7156:7172  chargeRateString */\n      dup11\n        /* \"ptrn_eco_system_dev_contracts/PtrnEcoSystemParticipationDev.sol\":7060:7246  ChargeContract(... */\n      mload(0x40)\n      tag_366\n      swap5\n      swap4\n      swap3\n      swap2\n      swap1\n      tag_367\n      jump\t// in\n    tag_366:\n      mload(0x40)\n      dup1\n      swap2\n      sub\n      swap1\n      log4\n        /* \"ptrn_eco_system_dev_contracts/PtrnEcoSystemParticipationDev.sol\":7264:7268  true */\n      0x01\n        /* \"ptrn_eco_system_dev_contracts/PtrnEcoSystemParticipationDev.sol\":7256:7269  return (true) */\n      swap8\n      pop\n      pop\n      pop\n      pop\n      pop\n      pop\n      pop\n      pop\n        /* \"ptrn_eco_system_dev_contracts/PtrnEcoSystemParticipationDev.sol\":6057:7276  function chargeContract(uint256 amount)... */\n      swap2\n      swap1\n      pop\n      jump\t// out\n        /* \"@openzeppelin/contracts/access/Ownable.sol\":2081:2279  function transferOwnership(address newOwner) public virtual onlyOwner {... */\n    tag_120:\n        /* \"@openzeppelin/contracts/access/Ownable.sol\":1094:1107  _checkOwner() */\n      tag_369\n        /* \"@openzeppelin/contracts/access/Ownable.sol\":1094:1105  _checkOwner */\n      tag_126\n        /* \"@openzeppelin/contracts/access/Ownable.sol\":1094:1107  _checkOwner() */\n      jump\t// in\n    tag_369:\n        /* \"@openzeppelin/contracts/access/Ownable.sol\":2189:2190  0 */\n      0x00\n        /* \"@openzeppelin/contracts/access/Ownable.sol\":2169:2191  newOwner != address(0) */\n      0xffffffffffffffffffffffffffffffffffffffff\n      and\n        /* \"@openzeppelin/contracts/access/Ownable.sol\":2169:2177  newOwner */\n      dup2\n        /* \"@openzeppelin/contracts/access/Ownable.sol\":2169:2191  newOwner != address(0) */\n      0xffffffffffffffffffffffffffffffffffffffff\n      and\n      sub\n        /* \"@openzeppelin/contracts/access/Ownable.sol\":2161:2234  require(newOwner != address(0), \"Ownable: new owner is the zero address\") */\n      tag_371\n      jumpi\n      mload(0x40)\n      0x08c379a000000000000000000000000000000000000000000000000000000000\n      dup2\n      mstore\n      0x04\n      add\n      tag_372\n      swap1\n      tag_373\n      jump\t// in\n    tag_372:\n      mload(0x40)\n      dup1\n      swap2\n      sub\n      swap1\n      revert\n    tag_371:\n        /* \"@openzeppelin/contracts/access/Ownable.sol\":2244:2272  _transferOwnership(newOwner) */\n      tag_374\n        /* \"@openzeppelin/contracts/access/Ownable.sol\":2263:2271  newOwner */\n      dup2\n        /* \"@openzeppelin/contracts/access/Ownable.sol\":2244:2262  _transferOwnership */\n      tag_237\n        /* \"@openzeppelin/contracts/access/Ownable.sol\":2244:2272  _transferOwnership(newOwner) */\n      jump\t// in\n    tag_374:\n        /* \"@openzeppelin/contracts/access/Ownable.sol\":2081:2279  function transferOwnership(address newOwner) public virtual onlyOwner {... */\n      pop\n      jump\t// out\n        /* \"ptrn_eco_system_dev_contracts/PtrnEcoSystemParticipationDev.sol\":9380:9564  function getCurrentPointsBalance()... */\n    tag_122:\n        /* \"ptrn_eco_system_dev_contracts/PtrnEcoSystemParticipationDev.sol\":9508:9515  uint256 */\n      0x00\n        /* \"ptrn_eco_system_dev_contracts/PtrnEcoSystemParticipationDev.sol\":1510:1511  0 */\n      dup1\n        /* \"ptrn_eco_system_dev_contracts/PtrnEcoSystemParticipationDev.sol\":1477:1512  acceptedSenderAddress != address(0) */\n      0xffffffffffffffffffffffffffffffffffffffff\n      and\n        /* \"ptrn_eco_system_dev_contracts/PtrnEcoSystemParticipationDev.sol\":1477:1498  acceptedSenderAddress */\n      0x01\n      0x00\n      swap1\n      sload\n      swap1\n      0x0100\n      exp\n      swap1\n      div\n      0xffffffffffffffffffffffffffffffffffffffff\n      and\n        /* \"ptrn_eco_system_dev_contracts/PtrnEcoSystemParticipationDev.sol\":1477:1512  acceptedSenderAddress != address(0) */\n      0xffffffffffffffffffffffffffffffffffffffff\n      and\n      sub\n        /* \"ptrn_eco_system_dev_contracts/PtrnEcoSystemParticipationDev.sol\":1469:1531  require(acceptedSenderAddress != address(0), \"Not activated.\") */\n      tag_376\n      jumpi\n      mload(0x40)\n      0x08c379a000000000000000000000000000000000000000000000000000000000\n      dup2\n      mstore\n      0x04\n      add\n      tag_377\n      swap1\n      tag_159\n      jump\t// in\n    tag_377:\n      mload(0x40)\n      dup1\n      swap2\n      sub\n      swap1\n      revert\n    tag_376:\n        /* \"ptrn_eco_system_dev_contracts/PtrnEcoSystemParticipationDev.sol\":1634:1655  acceptedSenderAddress */\n      0x01\n      0x00\n      swap1\n      sload\n      swap1\n      0x0100\n      exp\n      swap1\n      div\n      0xffffffffffffffffffffffffffffffffffffffff\n      and\n        /* \"ptrn_eco_system_dev_contracts/PtrnEcoSystemParticipationDev.sol\":1620:1655  msg.sender == acceptedSenderAddress */\n      0xffffffffffffffffffffffffffffffffffffffff\n      and\n        /* \"ptrn_eco_system_dev_contracts/PtrnEcoSystemParticipationDev.sol\":1620:1630  msg.sender */\n      caller\n        /* \"ptrn_eco_system_dev_contracts/PtrnEcoSystemParticipationDev.sol\":1620:1655  msg.sender == acceptedSenderAddress */\n      0xffffffffffffffffffffffffffffffffffffffff\n      and\n      eq\n        /* \"ptrn_eco_system_dev_contracts/PtrnEcoSystemParticipationDev.sol\":1620:1680  msg.sender == acceptedSenderAddress || msg.sender == owner() */\n      dup1\n      tag_379\n      jumpi\n      pop\n        /* \"ptrn_eco_system_dev_contracts/PtrnEcoSystemParticipationDev.sol\":1673:1680  owner() */\n      tag_380\n        /* \"ptrn_eco_system_dev_contracts/PtrnEcoSystemParticipationDev.sol\":1673:1678  owner */\n      tag_85\n        /* \"ptrn_eco_system_dev_contracts/PtrnEcoSystemParticipationDev.sol\":1673:1680  owner() */\n      jump\t// in\n    tag_380:\n        /* \"ptrn_eco_system_dev_contracts/PtrnEcoSystemParticipationDev.sol\":1659:1680  msg.sender == owner() */\n      0xffffffffffffffffffffffffffffffffffffffff\n      and\n        /* \"ptrn_eco_system_dev_contracts/PtrnEcoSystemParticipationDev.sol\":1659:1669  msg.sender */\n      caller\n        /* \"ptrn_eco_system_dev_contracts/PtrnEcoSystemParticipationDev.sol\":1659:1680  msg.sender == owner() */\n      0xffffffffffffffffffffffffffffffffffffffff\n      and\n      eq\n        /* \"ptrn_eco_system_dev_contracts/PtrnEcoSystemParticipationDev.sol\":1620:1680  msg.sender == acceptedSenderAddress || msg.sender == owner() */\n    tag_379:\n        /* \"ptrn_eco_system_dev_contracts/PtrnEcoSystemParticipationDev.sol\":1598:1745  require(... */\n      tag_381\n      jumpi\n      mload(0x40)\n      0x08c379a000000000000000000000000000000000000000000000000000000000\n      dup2\n      mstore\n      0x04\n      add\n      tag_382\n      swap1\n      tag_195\n      jump\t// in\n    tag_382:\n      mload(0x40)\n      dup1\n      swap2\n      sub\n      swap1\n      revert\n    tag_381:\n        /* \"ptrn_eco_system_dev_contracts/PtrnEcoSystemParticipationDev.sol\":9538:9557  availableToWithdraw */\n      sload(0x04)\n        /* \"ptrn_eco_system_dev_contracts/PtrnEcoSystemParticipationDev.sol\":9531:9557  return availableToWithdraw */\n      swap1\n      pop\n        /* \"ptrn_eco_system_dev_contracts/PtrnEcoSystemParticipationDev.sol\":9380:9564  function getCurrentPointsBalance()... */\n      swap1\n      jump\t// out\n        /* \"@openzeppelin/contracts/access/Ownable.sol\":1359:1489  function _checkOwner() internal view virtual {... */\n    tag_126:\n        /* \"@openzeppelin/contracts/access/Ownable.sol\":1433:1445  _msgSender() */\n      tag_385\n        /* \"@openzeppelin/contracts/access/Ownable.sol\":1433:1443  _msgSender */\n      tag_386\n        /* \"@openzeppelin/contracts/access/Ownable.sol\":1433:1445  _msgSender() */\n      jump\t// in\n    tag_385:\n        /* \"@openzeppelin/contracts/access/Ownable.sol\":1422:1445  owner() == _msgSender() */\n      0xffffffffffffffffffffffffffffffffffffffff\n      and\n        /* \"@openzeppelin/contracts/access/Ownable.sol\":1422:1429  owner() */\n      tag_387\n        /* \"@openzeppelin/contracts/access/Ownable.sol\":1422:1427  owner */\n      tag_85\n        /* \"@openzeppelin/contracts/access/Ownable.sol\":1422:1429  owner() */\n      jump\t// in\n    tag_387:\n        /* \"@openzeppelin/contracts/access/Ownable.sol\":1422:1445  owner() == _msgSender() */\n      0xffffffffffffffffffffffffffffffffffffffff\n      and\n      eq\n        /* \"@openzeppelin/contracts/access/Ownable.sol\":1414:1482  require(owner() == _msgSender(), \"Ownable: caller is not the owner\") */\n      tag_388\n      jumpi\n      mload(0x40)\n      0x08c379a000000000000000000000000000000000000000000000000000000000\n      dup2\n      mstore\n      0x04\n      add\n      tag_389\n      swap1\n      tag_390\n      jump\t// in\n    tag_389:\n      mload(0x40)\n      dup1\n      swap2\n      sub\n      swap1\n      revert\n    tag_388:\n        /* \"@openzeppelin/contracts/access/Ownable.sol\":1359:1489  function _checkOwner() internal view virtual {... */\n      jump\t// out\n        /* \"@openzeppelin/contracts/security/Pausable.sol\":1945:2051  function _requirePaused() internal view virtual {... */\n    tag_142:\n        /* \"@openzeppelin/contracts/security/Pausable.sol\":2011:2019  paused() */\n      tag_392\n        /* \"@openzeppelin/contracts/security/Pausable.sol\":2011:2017  paused */\n      tag_66\n        /* \"@openzeppelin/contracts/security/Pausable.sol\":2011:2019  paused() */\n      jump\t// in\n    tag_392:\n        /* \"@openzeppelin/contracts/security/Pausable.sol\":2003:2044  require(paused(), \"Pausable: not paused\") */\n      tag_393\n      jumpi\n      mload(0x40)\n      0x08c379a000000000000000000000000000000000000000000000000000000000\n      dup2\n      mstore\n      0x04\n      add\n      tag_394\n      swap1\n      tag_395\n      jump\t// in\n    tag_394:\n      mload(0x40)\n      dup1\n      swap2\n      sub\n      swap1\n      revert\n    tag_393:\n        /* \"@openzeppelin/contracts/security/Pausable.sol\":1945:2051  function _requirePaused() internal view virtual {... */\n      jump\t// out\n        /* \"@openzeppelin/contracts/security/Pausable.sol\":2433:2550  function _unpause() internal virtual whenPaused {... */\n    tag_147:\n        /* \"@openzeppelin/contracts/security/Pausable.sol\":1486:1502  _requirePaused() */\n      tag_397\n        /* \"@openzeppelin/contracts/security/Pausable.sol\":1486:1500  _requirePaused */\n      tag_142\n        /* \"@openzeppelin/contracts/security/Pausable.sol\":1486:1502  _requirePaused() */\n      jump\t// in\n    tag_397:\n        /* \"@openzeppelin/contracts/security/Pausable.sol\":2501:2506  false */\n      0x00\n        /* \"@openzeppelin/contracts/security/Pausable.sol\":2491:2498  _paused */\n      dup1\n      0x00\n        /* \"@openzeppelin/contracts/security/Pausable.sol\":2491:2506  _paused = false */\n      0x0100\n      exp\n      dup2\n      sload\n      dup2\n      0xff\n      mul\n      not\n      and\n      swap1\n      dup4\n      iszero\n      iszero\n      mul\n      or\n      swap1\n      sstore\n      pop\n        /* \"@openzeppelin/contracts/security/Pausable.sol\":2521:2543  Unpaused(_msgSender()) */\n      0x5db9ee0a495bf2e6ff9c91a7834c1ba4fdd244a5e8aa4e537bd38aeae4b073aa\n        /* \"@openzeppelin/contracts/security/Pausable.sol\":2530:2542  _msgSender() */\n      tag_399\n        /* \"@openzeppelin/contracts/security/Pausable.sol\":2530:2540  _msgSender */\n      tag_386\n        /* \"@openzeppelin/contracts/security/Pausable.sol\":2530:2542  _msgSender() */\n      jump\t// in\n    tag_399:\n        /* \"@openzeppelin/contracts/security/Pausable.sol\":2521:2543  Unpaused(_msgSender()) */\n      mload(0x40)\n      tag_400\n      swap2\n      swap1\n      tag_47\n      jump\t// in\n    tag_400:\n      mload(0x40)\n      dup1\n      swap2\n      sub\n      swap1\n      log1\n        /* \"@openzeppelin/contracts/security/Pausable.sol\":2433:2550  function _unpause() internal virtual whenPaused {... */\n      jump\t// out\n        /* \"@openzeppelin/contracts/security/Pausable.sol\":1767:1873  function _requireNotPaused() internal view virtual {... */\n    tag_150:\n        /* \"@openzeppelin/contracts/security/Pausable.sol\":1837:1845  paused() */\n      tag_402\n        /* \"@openzeppelin/contracts/security/Pausable.sol\":1837:1843  paused */\n      tag_66\n        /* \"@openzeppelin/contracts/security/Pausable.sol\":1837:1845  paused() */\n      jump\t// in\n    tag_402:\n        /* \"@openzeppelin/contracts/security/Pausable.sol\":1836:1845  !paused() */\n      iszero\n        /* \"@openzeppelin/contracts/security/Pausable.sol\":1828:1866  require(!paused(), \"Pausable: paused\") */\n      tag_403\n      jumpi\n      mload(0x40)\n      0x08c379a000000000000000000000000000000000000000000000000000000000\n      dup2\n      mstore\n      0x04\n      add\n      tag_404\n      swap1\n      tag_405\n      jump\t// in\n    tag_404:\n      mload(0x40)\n      dup1\n      swap2\n      sub\n      swap1\n      revert\n    tag_403:\n        /* \"@openzeppelin/contracts/security/Pausable.sol\":1767:1873  function _requireNotPaused() internal view virtual {... */\n      jump\t// out\n        /* \"@openzeppelin/contracts/security/Pausable.sol\":2186:2301  function _pause() internal virtual whenNotPaused {... */\n    tag_155:\n        /* \"@openzeppelin/contracts/security/Pausable.sol\":1239:1258  _requireNotPaused() */\n      tag_407\n        /* \"@openzeppelin/contracts/security/Pausable.sol\":1239:1256  _requireNotPaused */\n      tag_150\n        /* \"@openzeppelin/contracts/security/Pausable.sol\":1239:1258  _requireNotPaused() */\n      jump\t// in\n    tag_407:\n        /* \"@openzeppelin/contracts/security/Pausable.sol\":2255:2259  true */\n      0x01\n        /* \"@openzeppelin/contracts/security/Pausable.sol\":2245:2252  _paused */\n      0x00\n      dup1\n        /* \"@openzeppelin/contracts/security/Pausable.sol\":2245:2259  _paused = true */\n      0x0100\n      exp\n      dup2\n      sload\n      dup2\n      0xff\n      mul\n      not\n      and\n      swap1\n      dup4\n      iszero\n      iszero\n      mul\n      or\n      swap1\n      sstore\n      pop\n        /* \"@openzeppelin/contracts/security/Pausable.sol\":2274:2294  Paused(_msgSender()) */\n      0x62e78cea01bee320cd4e420270b5ea74000d11b0c9f74754ebdbfc544b05a258\n        /* \"@openzeppelin/contracts/security/Pausable.sol\":2281:2293  _msgSender() */\n      tag_409\n        /* \"@openzeppelin/contracts/security/Pausable.sol\":2281:2291  _msgSender */\n      tag_386\n        /* \"@openzeppelin/contracts/security/Pausable.sol\":2281:2293  _msgSender() */\n      jump\t// in\n    tag_409:\n        /* \"@openzeppelin/contracts/security/Pausable.sol\":2274:2294  Paused(_msgSender()) */\n      mload(0x40)\n      tag_410\n      swap2\n      swap1\n      tag_47\n      jump\t// in\n    tag_410:\n      mload(0x40)\n      dup1\n      swap2\n      sub\n      swap1\n      log1\n        /* \"@openzeppelin/contracts/security/Pausable.sol\":2186:2301  function _pause() internal virtual whenNotPaused {... */\n      jump\t// out\n        /* \"@openzeppelin/contracts/access/Ownable.sol\":2433:2620  function _transferOwnership(address newOwner) internal virtual {... */\n    tag_237:\n        /* \"@openzeppelin/contracts/access/Ownable.sol\":2506:2522  address oldOwner */\n      0x00\n        /* \"@openzeppelin/contracts/access/Ownable.sol\":2525:2531  _owner */\n      dup1\n      0x01\n      swap1\n      sload\n      swap1\n      0x0100\n      exp\n      swap1\n      div\n      0xffffffffffffffffffffffffffffffffffffffff\n      and\n        /* \"@openzeppelin/contracts/access/Ownable.sol\":2506:2531  address oldOwner = _owner */\n      swap1\n      pop\n        /* \"@openzeppelin/contracts/access/Ownable.sol\":2550:2558  newOwner */\n      dup2\n        /* \"@openzeppelin/contracts/access/Ownable.sol\":2541:2547  _owner */\n      0x00\n      0x01\n        /* \"@openzeppelin/contracts/access/Ownable.sol\":2541:2558  _owner = newOwner */\n      0x0100\n      exp\n      dup2\n      sload\n      dup2\n      0xffffffffffffffffffffffffffffffffffffffff\n      mul\n      not\n      and\n      swap1\n      dup4\n      0xffffffffffffffffffffffffffffffffffffffff\n      and\n      mul\n      or\n      swap1\n      sstore\n      pop\n        /* \"@openzeppelin/contracts/access/Ownable.sol\":2604:2612  newOwner */\n      dup2\n        /* \"@openzeppelin/contracts/access/Ownable.sol\":2573:2613  OwnershipTransferred(oldOwner, newOwner) */\n      0xffffffffffffffffffffffffffffffffffffffff\n      and\n        /* \"@openzeppelin/contracts/access/Ownable.sol\":2594:2602  oldOwner */\n      dup2\n        /* \"@openzeppelin/contracts/access/Ownable.sol\":2573:2613  OwnershipTransferred(oldOwner, newOwner) */\n      0xffffffffffffffffffffffffffffffffffffffff\n      and\n      0x8be0079c531659141344cd1fd0a4f28419497f9722a3daafe3b4186f6b6457e0\n      mload(0x40)\n      mload(0x40)\n      dup1\n      swap2\n      sub\n      swap1\n      log3\n        /* \"@openzeppelin/contracts/access/Ownable.sol\":2496:2620  {... */\n      pop\n        /* \"@openzeppelin/contracts/access/Ownable.sol\":2433:2620  function _transferOwnership(address newOwner) internal virtual {... */\n      pop\n      jump\t// out\n        /* \"ptrn_eco_system_dev_contracts/PtrnEcoSystemParticipationDev.sol\":4675:5523  function getRate()... */\n    tag_354:\n        /* \"ptrn_eco_system_dev_contracts/PtrnEcoSystemParticipationDev.sol\":4740:4747  uint256 */\n      0x00\n        /* \"ptrn_eco_system_dev_contracts/PtrnEcoSystemParticipationDev.sol\":4761:4768  uint256 */\n      dup1\n        /* \"ptrn_eco_system_dev_contracts/PtrnEcoSystemParticipationDev.sol\":4782:4795  string memory */\n      0x60\n        /* \"ptrn_eco_system_dev_contracts/PtrnEcoSystemParticipationDev.sol\":4809:4816  uint256 */\n      0x00\n        /* \"ptrn_eco_system_dev_contracts/PtrnEcoSystemParticipationDev.sol\":4845:4857  poolRateFeed */\n      0x01\n      0x14\n      swap1\n      sload\n      swap1\n      0x0100\n      exp\n      swap1\n      div\n      0xff\n      and\n        /* \"ptrn_eco_system_dev_contracts/PtrnEcoSystemParticipationDev.sol\":4841:5213  if (poolRateFeed) {... */\n      iszero\n      tag_413\n      jumpi\n        /* \"ptrn_eco_system_dev_contracts/PtrnEcoSystemParticipationDev.sol\":4898:4910  poolRateFeed */\n      0x01\n      0x14\n      swap1\n      sload\n      swap1\n      0x0100\n      exp\n      swap1\n      div\n      0xff\n      and\n        /* \"ptrn_eco_system_dev_contracts/PtrnEcoSystemParticipationDev.sol\":4898:4951  poolRateFeed && (address(poolConsumer) != address(0)) */\n      dup1\n      iszero\n      tag_414\n      jumpi\n      pop\n        /* \"ptrn_eco_system_dev_contracts/PtrnEcoSystemParticipationDev.sol\":4948:4949  0 */\n      0x00\n        /* \"ptrn_eco_system_dev_contracts/PtrnEcoSystemParticipationDev.sol\":4915:4950  address(poolConsumer) != address(0) */\n      0xffffffffffffffffffffffffffffffffffffffff\n      and\n        /* \"ptrn_eco_system_dev_contracts/PtrnEcoSystemParticipationDev.sol\":4923:4935  poolConsumer */\n      0x08\n      0x00\n      swap1\n      sload\n      swap1\n      0x0100\n      exp\n      swap1\n      div\n      0xffffffffffffffffffffffffffffffffffffffff\n      and\n        /* \"ptrn_eco_system_dev_contracts/PtrnEcoSystemParticipationDev.sol\":4915:4950  address(poolConsumer) != address(0) */\n      0xffffffffffffffffffffffffffffffffffffffff\n      and\n      eq\n      iszero\n        /* \"ptrn_eco_system_dev_contracts/PtrnEcoSystemParticipationDev.sol\":4898:4951  poolRateFeed && (address(poolConsumer) != address(0)) */\n    tag_414:\n        /* \"ptrn_eco_system_dev_contracts/PtrnEcoSystemParticipationDev.sol\":4873:5016  require(... */\n      tag_415\n      jumpi\n      mload(0x40)\n      0x08c379a000000000000000000000000000000000000000000000000000000000\n      dup2\n      mstore\n      0x04\n      add\n      tag_416\n      swap1\n      tag_326\n      jump\t// in\n    tag_416:\n      mload(0x40)\n      dup1\n      swap2\n      sub\n      swap1\n      revert\n    tag_415:\n        /* \"ptrn_eco_system_dev_contracts/PtrnEcoSystemParticipationDev.sol\":4841:5213  if (poolRateFeed) {... */\n      jump(tag_417)\n    tag_413:\n        /* \"ptrn_eco_system_dev_contracts/PtrnEcoSystemParticipationDev.sol\":5072:5084  poolRateFeed */\n      0x01\n      0x14\n      swap1\n      sload\n      swap1\n      0x0100\n      exp\n      swap1\n      div\n      0xff\n      and\n        /* \"ptrn_eco_system_dev_contracts/PtrnEcoSystemParticipationDev.sol\":5072:5131  poolRateFeed && (address(aggregatorConsumer) != address(0)) */\n      dup1\n      iszero\n      tag_418\n      jumpi\n      pop\n        /* \"ptrn_eco_system_dev_contracts/PtrnEcoSystemParticipationDev.sol\":5128:5129  0 */\n      0x00\n        /* \"ptrn_eco_system_dev_contracts/PtrnEcoSystemParticipationDev.sol\":5089:5130  address(aggregatorConsumer) != address(0) */\n      0xffffffffffffffffffffffffffffffffffffffff\n      and\n        /* \"ptrn_eco_system_dev_contracts/PtrnEcoSystemParticipationDev.sol\":5097:5115  aggregatorConsumer */\n      0x07\n      0x00\n      swap1\n      sload\n      swap1\n      0x0100\n      exp\n      swap1\n      div\n      0xffffffffffffffffffffffffffffffffffffffff\n      and\n        /* \"ptrn_eco_system_dev_contracts/PtrnEcoSystemParticipationDev.sol\":5089:5130  address(aggregatorConsumer) != address(0) */\n      0xffffffffffffffffffffffffffffffffffffffff\n      and\n      eq\n      iszero\n        /* \"ptrn_eco_system_dev_contracts/PtrnEcoSystemParticipationDev.sol\":5072:5131  poolRateFeed && (address(aggregatorConsumer) != address(0)) */\n    tag_418:\n        /* \"ptrn_eco_system_dev_contracts/PtrnEcoSystemParticipationDev.sol\":5047:5202  require(... */\n      tag_419\n      jumpi\n      mload(0x40)\n      0x08c379a000000000000000000000000000000000000000000000000000000000\n      dup2\n      mstore\n      0x04\n      add\n      tag_420\n      swap1\n      tag_321\n      jump\t// in\n    tag_420:\n      mload(0x40)\n      dup1\n      swap2\n      sub\n      swap1\n      revert\n    tag_419:\n        /* \"ptrn_eco_system_dev_contracts/PtrnEcoSystemParticipationDev.sol\":4841:5213  if (poolRateFeed) {... */\n    tag_417:\n        /* \"ptrn_eco_system_dev_contracts/PtrnEcoSystemParticipationDev.sol\":5237:5249  uint256 rate */\n      0x00\n        /* \"ptrn_eco_system_dev_contracts/PtrnEcoSystemParticipationDev.sol\":5263:5279  uint256 decimals */\n      dup1\n        /* \"ptrn_eco_system_dev_contracts/PtrnEcoSystemParticipationDev.sol\":5293:5317  string memory rateString */\n      0x00\n        /* \"ptrn_eco_system_dev_contracts/PtrnEcoSystemParticipationDev.sol\":5331:5343  uint256 date */\n      dup1\n        /* \"ptrn_eco_system_dev_contracts/PtrnEcoSystemParticipationDev.sol\":5357:5369  poolRateFeed */\n      0x01\n      0x14\n      swap1\n      sload\n      swap1\n      0x0100\n      exp\n      swap1\n      div\n      0xff\n      and\n        /* \"ptrn_eco_system_dev_contracts/PtrnEcoSystemParticipationDev.sol\":5356:5369  !poolRateFeed */\n      iszero\n        /* \"ptrn_eco_system_dev_contracts/PtrnEcoSystemParticipationDev.sol\":5356:5464  !poolRateFeed... */\n      tag_421\n      jumpi\n        /* \"ptrn_eco_system_dev_contracts/PtrnEcoSystemParticipationDev.sol\":5441:5453  poolConsumer */\n      0x08\n      0x00\n      swap1\n      sload\n      swap1\n      0x0100\n      exp\n      swap1\n      div\n      0xffffffffffffffffffffffffffffffffffffffff\n      and\n        /* \"ptrn_eco_system_dev_contracts/PtrnEcoSystemParticipationDev.sol\":5441:5462  poolConsumer.PoolRate */\n      0xffffffffffffffffffffffffffffffffffffffff\n      and\n      0x454d1256\n        /* \"ptrn_eco_system_dev_contracts/PtrnEcoSystemParticipationDev.sol\":5441:5464  poolConsumer.PoolRate() */\n      mload(0x40)\n      dup2\n      0xffffffff\n      and\n      0xe0\n      shl\n      dup2\n      mstore\n      0x04\n      add\n      0x00\n      mload(0x40)\n      dup1\n      dup4\n      sub\n      dup2\n      0x00\n      dup8\n      gas\n      call\n      iszero\n      dup1\n      iszero\n      tag_423\n      jumpi\n      returndatasize\n      0x00\n      dup1\n      returndatacopy\n      revert(0x00, returndatasize)\n    tag_423:\n      pop\n      pop\n      pop\n      pop\n      mload(0x40)\n      returndatasize\n      0x00\n      dup3\n      returndatacopy\n      returndatasize\n      not(0x1f)\n      0x1f\n      dup3\n      add\n      and\n      dup3\n      add\n      dup1\n      0x40\n      mstore\n      pop\n      dup2\n      add\n      swap1\n      tag_424\n      swap2\n      swap1\n      tag_425\n      jump\t// in\n    tag_424:\n        /* \"ptrn_eco_system_dev_contracts/PtrnEcoSystemParticipationDev.sol\":5356:5464  !poolRateFeed... */\n      jump(tag_426)\n    tag_421:\n        /* \"ptrn_eco_system_dev_contracts/PtrnEcoSystemParticipationDev.sol\":5388:5406  aggregatorConsumer */\n      0x07\n      0x00\n      swap1\n      sload\n      swap1\n      0x0100\n      exp\n      swap1\n      div\n      0xffffffffffffffffffffffffffffffffffffffff\n      and\n        /* \"ptrn_eco_system_dev_contracts/PtrnEcoSystemParticipationDev.sol\":5388:5420  aggregatorConsumer.getLatestRate */\n      0xffffffffffffffffffffffffffffffffffffffff\n      and\n      0xe1e7ff77\n        /* \"ptrn_eco_system_dev_contracts/PtrnEcoSystemParticipationDev.sol\":5388:5422  aggregatorConsumer.getLatestRate() */\n      mload(0x40)\n      dup2\n      0xffffffff\n      and\n      0xe0\n      shl\n      dup2\n      mstore\n      0x04\n      add\n      0x00\n      mload(0x40)\n      dup1\n      dup4\n      sub\n      dup2\n      0x00\n      dup8\n      gas\n      call\n      iszero\n      dup1\n      iszero\n      tag_428\n      jumpi\n      returndatasize\n      0x00\n      dup1\n      returndatacopy\n      revert(0x00, returndatasize)\n    tag_428:\n      pop\n      pop\n      pop\n      pop\n      mload(0x40)\n      returndatasize\n      0x00\n      dup3\n      returndatacopy\n      returndatasize\n      not(0x1f)\n      0x1f\n      dup3\n      add\n      and\n      dup3\n      add\n      dup1\n      0x40\n      mstore\n      pop\n      dup2\n      add\n      swap1\n      tag_429\n      swap2\n      swap1\n      tag_425\n      jump\t// in\n    tag_429:\n        /* \"ptrn_eco_system_dev_contracts/PtrnEcoSystemParticipationDev.sol\":5356:5464  !poolRateFeed... */\n    tag_426:\n        /* \"ptrn_eco_system_dev_contracts/PtrnEcoSystemParticipationDev.sol\":5223:5464  (... */\n      swap4\n      pop\n      swap4\n      pop\n      swap4\n      pop\n      swap4\n      pop\n        /* \"ptrn_eco_system_dev_contracts/PtrnEcoSystemParticipationDev.sol\":5483:5487  rate */\n      dup4\n        /* \"ptrn_eco_system_dev_contracts/PtrnEcoSystemParticipationDev.sol\":5489:5497  decimals */\n      dup4\n        /* \"ptrn_eco_system_dev_contracts/PtrnEcoSystemParticipationDev.sol\":5499:5509  rateString */\n      dup4\n        /* \"ptrn_eco_system_dev_contracts/PtrnEcoSystemParticipationDev.sol\":5511:5515  date */\n      dup4\n        /* \"ptrn_eco_system_dev_contracts/PtrnEcoSystemParticipationDev.sol\":5475:5516  return (rate, decimals, rateString, date) */\n      swap8\n      pop\n      swap8\n      pop\n      swap8\n      pop\n      swap8\n      pop\n      pop\n      pop\n      pop\n      pop\n        /* \"ptrn_eco_system_dev_contracts/PtrnEcoSystemParticipationDev.sol\":4675:5523  function getRate()... */\n      swap1\n      swap2\n      swap3\n      swap4\n      jump\t// out\n        /* \"ptrn_eco_system_dev_contracts/PtrnEcoSystemParticipationDev.sol\":8800:9010  function burnIncomingTokens(uint256 amount) private returns (bool) {... */\n    tag_361:\n        /* \"ptrn_eco_system_dev_contracts/PtrnEcoSystemParticipationDev.sol\":8861:8865  bool */\n      0x00\n        /* \"ptrn_eco_system_dev_contracts/PtrnEcoSystemParticipationDev.sol\":8894:8895  0 */\n      dup1\n        /* \"ptrn_eco_system_dev_contracts/PtrnEcoSystemParticipationDev.sol\":8885:8891  amount */\n      dup3\n        /* \"ptrn_eco_system_dev_contracts/PtrnEcoSystemParticipationDev.sol\":8885:8895  amount > 0 */\n      gt\n        /* \"ptrn_eco_system_dev_contracts/PtrnEcoSystemParticipationDev.sol\":8877:8923  require(amount > 0, \"No tokens to be burned!\") */\n      tag_431\n      jumpi\n      mload(0x40)\n      0x08c379a000000000000000000000000000000000000000000000000000000000\n      dup2\n      mstore\n      0x04\n      add\n      tag_432\n      swap1\n      tag_433\n      jump\t// in\n    tag_432:\n      mload(0x40)\n      dup1\n      swap2\n      sub\n      swap1\n      revert\n    tag_431:\n        /* \"ptrn_eco_system_dev_contracts/PtrnEcoSystemParticipationDev.sol\":8933:8938  TOKEN */\n      immutable(\"0x765257ac7904069d2df513bf5979f3f927ab42f163b276055be4b8deb0e5a482\")\n        /* \"ptrn_eco_system_dev_contracts/PtrnEcoSystemParticipationDev.sol\":8933:8943  TOKEN.burn */\n      0xffffffffffffffffffffffffffffffffffffffff\n      and\n      0x42966c68\n        /* \"ptrn_eco_system_dev_contracts/PtrnEcoSystemParticipationDev.sol\":8944:8950  amount */\n      dup4\n        /* \"ptrn_eco_system_dev_contracts/PtrnEcoSystemParticipationDev.sol\":8933:8951  TOKEN.burn(amount) */\n      mload(0x40)\n      dup3\n      0xffffffff\n      and\n      0xe0\n      shl\n      dup2\n      mstore\n      0x04\n      add\n      tag_434\n      swap2\n      swap1\n      tag_60\n      jump\t// in\n    tag_434:\n      0x00\n      mload(0x40)\n      dup1\n      dup4\n      sub\n      dup2\n      0x00\n      dup8\n      dup1\n      extcodesize\n      iszero\n      dup1\n      iszero\n      tag_435\n      jumpi\n      0x00\n      dup1\n      revert\n    tag_435:\n      pop\n      gas\n      call\n      iszero\n      dup1\n      iszero\n      tag_437\n      jumpi\n      returndatasize\n      0x00\n      dup1\n      returndatacopy\n      revert(0x00, returndatasize)\n    tag_437:\n      pop\n      pop\n      pop\n      pop\n        /* \"ptrn_eco_system_dev_contracts/PtrnEcoSystemParticipationDev.sol\":8976:8982  amount */\n      dup2\n        /* \"ptrn_eco_system_dev_contracts/PtrnEcoSystemParticipationDev.sol\":8961:8972  totalBurned */\n      0x02\n      0x00\n        /* \"ptrn_eco_system_dev_contracts/PtrnEcoSystemParticipationDev.sol\":8961:8982  totalBurned += amount */\n      dup3\n      dup3\n      sload\n      tag_438\n      swap2\n      swap1\n      tag_138\n      jump\t// in\n    tag_438:\n      swap3\n      pop\n      pop\n      dup2\n      swap1\n      sstore\n      pop\n        /* \"ptrn_eco_system_dev_contracts/PtrnEcoSystemParticipationDev.sol\":8999:9003  true */\n      0x01\n        /* \"ptrn_eco_system_dev_contracts/PtrnEcoSystemParticipationDev.sol\":8992:9003  return true */\n      swap1\n      pop\n        /* \"ptrn_eco_system_dev_contracts/PtrnEcoSystemParticipationDev.sol\":8800:9010  function burnIncomingTokens(uint256 amount) private returns (bool) {... */\n      swap2\n      swap1\n      pop\n      jump\t// out\n        /* \"ptrn_eco_system_dev_contracts/PtrnEcoSystemParticipationDev.sol\":5529:5715  function calculatePoints(... */\n    tag_363:\n        /* \"ptrn_eco_system_dev_contracts/PtrnEcoSystemParticipationDev.sol\":5654:5661  uint256 */\n      0x00\n        /* \"ptrn_eco_system_dev_contracts/PtrnEcoSystemParticipationDev.sol\":5700:5708  decimals */\n      dup2\n        /* \"ptrn_eco_system_dev_contracts/PtrnEcoSystemParticipationDev.sol\":5696:5698  10 */\n      0x0a\n        /* \"ptrn_eco_system_dev_contracts/PtrnEcoSystemParticipationDev.sol\":5696:5708  10**decimals */\n      tag_440\n      swap2\n      swap1\n      tag_261\n      jump\t// in\n    tag_440:\n        /* \"ptrn_eco_system_dev_contracts/PtrnEcoSystemParticipationDev.sol\":5689:5693  rate */\n      dup4\n        /* \"ptrn_eco_system_dev_contracts/PtrnEcoSystemParticipationDev.sol\":5680:5686  amount */\n      dup6\n        /* \"ptrn_eco_system_dev_contracts/PtrnEcoSystemParticipationDev.sol\":5680:5693  amount * rate */\n      tag_441\n      swap2\n      swap1\n      tag_263\n      jump\t// in\n    tag_441:\n        /* \"ptrn_eco_system_dev_contracts/PtrnEcoSystemParticipationDev.sol\":5680:5708  amount * rate / 10**decimals */\n      tag_442\n      swap2\n      swap1\n      tag_265\n      jump\t// in\n    tag_442:\n        /* \"ptrn_eco_system_dev_contracts/PtrnEcoSystemParticipationDev.sol\":5673:5708  return amount * rate / 10**decimals */\n      swap1\n      pop\n        /* \"ptrn_eco_system_dev_contracts/PtrnEcoSystemParticipationDev.sol\":5529:5715  function calculatePoints(... */\n      swap4\n      swap3\n      pop\n      pop\n      pop\n      jump\t// out\n        /* \"@openzeppelin/contracts/utils/Context.sol\":640:736  function _msgSender() internal view virtual returns (address) {... */\n    tag_386:\n        /* \"@openzeppelin/contracts/utils/Context.sol\":693:700  address */\n      0x00\n        /* \"@openzeppelin/contracts/utils/Context.sol\":719:729  msg.sender */\n      caller\n        /* \"@openzeppelin/contracts/utils/Context.sol\":712:729  return msg.sender */\n      swap1\n      pop\n        /* \"@openzeppelin/contracts/utils/Context.sol\":640:736  function _msgSender() internal view virtual returns (address) {... */\n      swap1\n      jump\t// out\n        /* \"#utility.yul\":7:82   */\n    tag_444:\n        /* \"#utility.yul\":40:46   */\n      0x00\n        /* \"#utility.yul\":73:75   */\n      0x40\n        /* \"#utility.yul\":67:76   */\n      mload\n        /* \"#utility.yul\":57:76   */\n      swap1\n      pop\n        /* \"#utility.yul\":7:82   */\n      swap1\n      jump\t// out\n        /* \"#utility.yul\":88:205   */\n    tag_445:\n        /* \"#utility.yul\":197:198   */\n      0x00\n        /* \"#utility.yul\":194:195   */\n      dup1\n        /* \"#utility.yul\":187:199   */\n      revert\n        /* \"#utility.yul\":211:328   */\n    tag_446:\n        /* \"#utility.yul\":320:321   */\n      0x00\n        /* \"#utility.yul\":317:318   */\n      dup1\n        /* \"#utility.yul\":310:322   */\n      revert\n        /* \"#utility.yul\":334:411   */\n    tag_447:\n        /* \"#utility.yul\":371:378   */\n      0x00\n        /* \"#utility.yul\":400:405   */\n      dup2\n        /* \"#utility.yul\":389:405   */\n      swap1\n      pop\n        /* \"#utility.yul\":334:411   */\n      swap2\n      swap1\n      pop\n      jump\t// out\n        /* \"#utility.yul\":417:539   */\n    tag_448:\n        /* \"#utility.yul\":490:514   */\n      tag_532\n        /* \"#utility.yul\":508:513   */\n      dup2\n        /* \"#utility.yul\":490:514   */\n      tag_447\n      jump\t// in\n    tag_532:\n        /* \"#utility.yul\":483:488   */\n      dup2\n        /* \"#utility.yul\":480:515   */\n      eq\n        /* \"#utility.yul\":470:533   */\n      tag_533\n      jumpi\n        /* \"#utility.yul\":529:530   */\n      0x00\n        /* \"#utility.yul\":526:527   */\n      dup1\n        /* \"#utility.yul\":519:531   */\n      revert\n        /* \"#utility.yul\":470:533   */\n    tag_533:\n        /* \"#utility.yul\":417:539   */\n      pop\n      jump\t// out\n        /* \"#utility.yul\":545:684   */\n    tag_449:\n        /* \"#utility.yul\":591:596   */\n      0x00\n        /* \"#utility.yul\":629:635   */\n      dup2\n        /* \"#utility.yul\":616:636   */\n      calldataload\n        /* \"#utility.yul\":607:636   */\n      swap1\n      pop\n        /* \"#utility.yul\":645:678   */\n      tag_535\n        /* \"#utility.yul\":672:677   */\n      dup2\n        /* \"#utility.yul\":645:678   */\n      tag_448\n      jump\t// in\n    tag_535:\n        /* \"#utility.yul\":545:684   */\n      swap3\n      swap2\n      pop\n      pop\n      jump\t// out\n        /* \"#utility.yul\":690:816   */\n    tag_450:\n        /* \"#utility.yul\":727:734   */\n      0x00\n        /* \"#utility.yul\":767:809   */\n      0xffffffffffffffffffffffffffffffffffffffff\n        /* \"#utility.yul\":760:765   */\n      dup3\n        /* \"#utility.yul\":756:810   */\n      and\n        /* \"#utility.yul\":745:810   */\n      swap1\n      pop\n        /* \"#utility.yul\":690:816   */\n      swap2\n      swap1\n      pop\n      jump\t// out\n        /* \"#utility.yul\":822:918   */\n    tag_451:\n        /* \"#utility.yul\":859:866   */\n      0x00\n        /* \"#utility.yul\":888:912   */\n      tag_538\n        /* \"#utility.yul\":906:911   */\n      dup3\n        /* \"#utility.yul\":888:912   */\n      tag_450\n      jump\t// in\n    tag_538:\n        /* \"#utility.yul\":877:912   */\n      swap1\n      pop\n        /* \"#utility.yul\":822:918   */\n      swap2\n      swap1\n      pop\n      jump\t// out\n        /* \"#utility.yul\":924:1046   */\n    tag_452:\n        /* \"#utility.yul\":997:1021   */\n      tag_540\n        /* \"#utility.yul\":1015:1020   */\n      dup2\n        /* \"#utility.yul\":997:1021   */\n      tag_451\n      jump\t// in\n    tag_540:\n        /* \"#utility.yul\":990:995   */\n      dup2\n        /* \"#utility.yul\":987:1022   */\n      eq\n        /* \"#utility.yul\":977:1040   */\n      tag_541\n      jumpi\n        /* \"#utility.yul\":1036:1037   */\n      0x00\n        /* \"#utility.yul\":1033:1034   */\n      dup1\n        /* \"#utility.yul\":1026:1038   */\n      revert\n        /* \"#utility.yul\":977:1040   */\n    tag_541:\n        /* \"#utility.yul\":924:1046   */\n      pop\n      jump\t// out\n        /* \"#utility.yul\":1052:1191   */\n    tag_453:\n        /* \"#utility.yul\":1098:1103   */\n      0x00\n        /* \"#utility.yul\":1136:1142   */\n      dup2\n        /* \"#utility.yul\":1123:1143   */\n      calldataload\n        /* \"#utility.yul\":1114:1143   */\n      swap1\n      pop\n        /* \"#utility.yul\":1152:1185   */\n      tag_543\n        /* \"#utility.yul\":1179:1184   */\n      dup2\n        /* \"#utility.yul\":1152:1185   */\n      tag_452\n      jump\t// in\n    tag_543:\n        /* \"#utility.yul\":1052:1191   */\n      swap3\n      swap2\n      pop\n      pop\n      jump\t// out\n        /* \"#utility.yul\":1197:1671   */\n    tag_38:\n        /* \"#utility.yul\":1265:1271   */\n      0x00\n        /* \"#utility.yul\":1273:1279   */\n      dup1\n        /* \"#utility.yul\":1322:1324   */\n      0x40\n        /* \"#utility.yul\":1310:1319   */\n      dup4\n        /* \"#utility.yul\":1301:1308   */\n      dup6\n        /* \"#utility.yul\":1297:1320   */\n      sub\n        /* \"#utility.yul\":1293:1325   */\n      slt\n        /* \"#utility.yul\":1290:1409   */\n      iszero\n      tag_545\n      jumpi\n        /* \"#utility.yul\":1328:1407   */\n      tag_546\n      tag_445\n      jump\t// in\n    tag_546:\n        /* \"#utility.yul\":1290:1409   */\n    tag_545:\n        /* \"#utility.yul\":1448:1449   */\n      0x00\n        /* \"#utility.yul\":1473:1526   */\n      tag_547\n        /* \"#utility.yul\":1518:1525   */\n      dup6\n        /* \"#utility.yul\":1509:1515   */\n      dup3\n        /* \"#utility.yul\":1498:1507   */\n      dup7\n        /* \"#utility.yul\":1494:1516   */\n      add\n        /* \"#utility.yul\":1473:1526   */\n      tag_449\n      jump\t// in\n    tag_547:\n        /* \"#utility.yul\":1463:1526   */\n      swap3\n      pop\n        /* \"#utility.yul\":1419:1536   */\n      pop\n        /* \"#utility.yul\":1575:1577   */\n      0x20\n        /* \"#utility.yul\":1601:1654   */\n      tag_548\n        /* \"#utility.yul\":1646:1653   */\n      dup6\n        /* \"#utility.yul\":1637:1643   */\n      dup3\n        /* \"#utility.yul\":1626:1635   */\n      dup7\n        /* \"#utility.yul\":1622:1644   */\n      add\n        /* \"#utility.yul\":1601:1654   */\n      tag_453\n      jump\t// in\n    tag_548:\n        /* \"#utility.yul\":1591:1654   */\n      swap2\n      pop\n        /* \"#utility.yul\":1546:1664   */\n      pop\n        /* \"#utility.yul\":1197:1671   */\n      swap3\n      pop\n      swap3\n      swap1\n      pop\n      jump\t// out\n        /* \"#utility.yul\":1677:1795   */\n    tag_454:\n        /* \"#utility.yul\":1764:1788   */\n      tag_550\n        /* \"#utility.yul\":1782:1787   */\n      dup2\n        /* \"#utility.yul\":1764:1788   */\n      tag_451\n      jump\t// in\n    tag_550:\n        /* \"#utility.yul\":1759:1762   */\n      dup3\n        /* \"#utility.yul\":1752:1789   */\n      mstore\n        /* \"#utility.yul\":1677:1795   */\n      pop\n      pop\n      jump\t// out\n        /* \"#utility.yul\":1801:2023   */\n    tag_47:\n        /* \"#utility.yul\":1894:1898   */\n      0x00\n        /* \"#utility.yul\":1932:1934   */\n      0x20\n        /* \"#utility.yul\":1921:1930   */\n      dup3\n        /* \"#utility.yul\":1917:1935   */\n      add\n        /* \"#utility.yul\":1909:1935   */\n      swap1\n      pop\n        /* \"#utility.yul\":1945:2016   */\n      tag_552\n        /* \"#utility.yul\":2013:2014   */\n      0x00\n        /* \"#utility.yul\":2002:2011   */\n      dup4\n        /* \"#utility.yul\":1998:2015   */\n      add\n        /* \"#utility.yul\":1989:1995   */\n      dup5\n        /* \"#utility.yul\":1945:2016   */\n      tag_454\n      jump\t// in\n    tag_552:\n        /* \"#utility.yul\":1801:2023   */\n      swap3\n      swap2\n      pop\n      pop\n      jump\t// out\n        /* \"#utility.yul\":2029:2358   */\n    tag_50:\n        /* \"#utility.yul\":2088:2094   */\n      0x00\n        /* \"#utility.yul\":2137:2139   */\n      0x20\n        /* \"#utility.yul\":2125:2134   */\n      dup3\n        /* \"#utility.yul\":2116:2123   */\n      dup5\n        /* \"#utility.yul\":2112:2135   */\n      sub\n        /* \"#utility.yul\":2108:2140   */\n      slt\n        /* \"#utility.yul\":2105:2224   */\n      iszero\n      tag_554\n      jumpi\n        /* \"#utility.yul\":2143:2222   */\n      tag_555\n      tag_445\n      jump\t// in\n    tag_555:\n        /* \"#utility.yul\":2105:2224   */\n    tag_554:\n        /* \"#utility.yul\":2263:2264   */\n      0x00\n        /* \"#utility.yul\":2288:2341   */\n      tag_556\n        /* \"#utility.yul\":2333:2340   */\n      dup5\n        /* \"#utility.yul\":2324:2330   */\n      dup3\n        /* \"#utility.yul\":2313:2322   */\n      dup6\n        /* \"#utility.yul\":2309:2331   */\n      add\n        /* \"#utility.yul\":2288:2341   */\n      tag_453\n      jump\t// in\n    tag_556:\n        /* \"#utility.yul\":2278:2341   */\n      swap2\n      pop\n        /* \"#utility.yul\":2234:2351   */\n      pop\n        /* \"#utility.yul\":2029:2358   */\n      swap3\n      swap2\n      pop\n      pop\n      jump\t// out\n        /* \"#utility.yul\":2364:2482   */\n    tag_455:\n        /* \"#utility.yul\":2451:2475   */\n      tag_558\n        /* \"#utility.yul\":2469:2474   */\n      dup2\n        /* \"#utility.yul\":2451:2475   */\n      tag_447\n      jump\t// in\n    tag_558:\n        /* \"#utility.yul\":2446:2449   */\n      dup3\n        /* \"#utility.yul\":2439:2476   */\n      mstore\n        /* \"#utility.yul\":2364:2482   */\n      pop\n      pop\n      jump\t// out\n        /* \"#utility.yul\":2488:2710   */\n    tag_60:\n        /* \"#utility.yul\":2581:2585   */\n      0x00\n        /* \"#utility.yul\":2619:2621   */\n      0x20\n        /* \"#utility.yul\":2608:2617   */\n      dup3\n        /* \"#utility.yul\":2604:2622   */\n      add\n        /* \"#utility.yul\":2596:2622   */\n      swap1\n      pop\n        /* \"#utility.yul\":2632:2703   */\n      tag_560\n        /* \"#utility.yul\":2700:2701   */\n      0x00\n        /* \"#utility.yul\":2689:2698   */\n      dup4\n        /* \"#utility.yul\":2685:2702   */\n      add\n        /* \"#utility.yul\":2676:2682   */\n      dup5\n        /* \"#utility.yul\":2632:2703   */\n      tag_455\n      jump\t// in\n    tag_560:\n        /* \"#utility.yul\":2488:2710   */\n      swap3\n      swap2\n      pop\n      pop\n      jump\t// out\n        /* \"#utility.yul\":2716:2806   */\n    tag_456:\n        /* \"#utility.yul\":2750:2757   */\n      0x00\n        /* \"#utility.yul\":2793:2798   */\n      dup2\n        /* \"#utility.yul\":2786:2799   */\n      iszero\n        /* \"#utility.yul\":2779:2800   */\n      iszero\n        /* \"#utility.yul\":2768:2800   */\n      swap1\n      pop\n        /* \"#utility.yul\":2716:2806   */\n      swap2\n      swap1\n      pop\n      jump\t// out\n        /* \"#utility.yul\":2812:2921   */\n    tag_457:\n        /* \"#utility.yul\":2893:2914   */\n      tag_563\n        /* \"#utility.yul\":2908:2913   */\n      dup2\n        /* \"#utility.yul\":2893:2914   */\n      tag_456\n      jump\t// in\n    tag_563:\n        /* \"#utility.yul\":2888:2891   */\n      dup3\n        /* \"#utility.yul\":2881:2915   */\n      mstore\n        /* \"#utility.yul\":2812:2921   */\n      pop\n      pop\n      jump\t// out\n        /* \"#utility.yul\":2927:3137   */\n    tag_68:\n        /* \"#utility.yul\":3014:3018   */\n      0x00\n        /* \"#utility.yul\":3052:3054   */\n      0x20\n        /* \"#utility.yul\":3041:3050   */\n      dup3\n        /* \"#utility.yul\":3037:3055   */\n      add\n        /* \"#utility.yul\":3029:3055   */\n      swap1\n      pop\n        /* \"#utility.yul\":3065:3130   */\n      tag_565\n        /* \"#utility.yul\":3127:3128   */\n      0x00\n        /* \"#utility.yul\":3116:3125   */\n      dup4\n        /* \"#utility.yul\":3112:3129   */\n      add\n        /* \"#utility.yul\":3103:3109   */\n      dup5\n        /* \"#utility.yul\":3065:3130   */\n      tag_457\n      jump\t// in\n    tag_565:\n        /* \"#utility.yul\":2927:3137   */\n      swap3\n      swap2\n      pop\n      pop\n      jump\t// out\n        /* \"#utility.yul\":3143:3762   */\n    tag_71:\n        /* \"#utility.yul\":3220:3226   */\n      0x00\n        /* \"#utility.yul\":3228:3234   */\n      dup1\n        /* \"#utility.yul\":3236:3242   */\n      0x00\n        /* \"#utility.yul\":3285:3287   */\n      0x60\n        /* \"#utility.yul\":3273:3282   */\n      dup5\n        /* \"#utility.yul\":3264:3271   */\n      dup7\n        /* \"#utility.yul\":3260:3283   */\n      sub\n        /* \"#utility.yul\":3256:3288   */\n      slt\n        /* \"#utility.yul\":3253:3372   */\n      iszero\n      tag_567\n      jumpi\n        /* \"#utility.yul\":3291:3370   */\n      tag_568\n      tag_445\n      jump\t// in\n    tag_568:\n        /* \"#utility.yul\":3253:3372   */\n    tag_567:\n        /* \"#utility.yul\":3411:3412   */\n      0x00\n        /* \"#utility.yul\":3436:3489   */\n      tag_569\n        /* \"#utility.yul\":3481:3488   */\n      dup7\n        /* \"#utility.yul\":3472:3478   */\n      dup3\n        /* \"#utility.yul\":3461:3470   */\n      dup8\n        /* \"#utility.yul\":3457:3479   */\n      add\n        /* \"#utility.yul\":3436:3489   */\n      tag_453\n      jump\t// in\n    tag_569:\n        /* \"#utility.yul\":3426:3489   */\n      swap4\n      pop\n        /* \"#utility.yul\":3382:3499   */\n      pop\n        /* \"#utility.yul\":3538:3540   */\n      0x20\n        /* \"#utility.yul\":3564:3617   */\n      tag_570\n        /* \"#utility.yul\":3609:3616   */\n      dup7\n        /* \"#utility.yul\":3600:3606   */\n      dup3\n        /* \"#utility.yul\":3589:3598   */\n      dup8\n        /* \"#utility.yul\":3585:3607   */\n      add\n        /* \"#utility.yul\":3564:3617   */\n      tag_453\n      jump\t// in\n    tag_570:\n        /* \"#utility.yul\":3554:3617   */\n      swap3\n      pop\n        /* \"#utility.yul\":3509:3627   */\n      pop\n        /* \"#utility.yul\":3666:3668   */\n      0x40\n        /* \"#utility.yul\":3692:3745   */\n      tag_571\n        /* \"#utility.yul\":3737:3744   */\n      dup7\n        /* \"#utility.yul\":3728:3734   */\n      dup3\n        /* \"#utility.yul\":3717:3726   */\n      dup8\n        /* \"#utility.yul\":3713:3735   */\n      add\n        /* \"#utility.yul\":3692:3745   */\n      tag_449\n      jump\t// in\n    tag_571:\n        /* \"#utility.yul\":3682:3745   */\n      swap2\n      pop\n        /* \"#utility.yul\":3637:3755   */\n      pop\n        /* \"#utility.yul\":3143:3762   */\n      swap3\n      pop\n      swap3\n      pop\n      swap3\n      jump\t// out\n        /* \"#utility.yul\":3768:4387   */\n    tag_81:\n        /* \"#utility.yul\":3845:3851   */\n      0x00\n        /* \"#utility.yul\":3853:3859   */\n      dup1\n        /* \"#utility.yul\":3861:3867   */\n      0x00\n        /* \"#utility.yul\":3910:3912   */\n      0x60\n        /* \"#utility.yul\":3898:3907   */\n      dup5\n        /* \"#utility.yul\":3889:3896   */\n      dup7\n        /* \"#utility.yul\":3885:3908   */\n      sub\n        /* \"#utility.yul\":3881:3913   */\n      slt\n        /* \"#utility.yul\":3878:3997   */\n      iszero\n      tag_573\n      jumpi\n        /* \"#utility.yul\":3916:3995   */\n      tag_574\n      tag_445\n      jump\t// in\n    tag_574:\n        /* \"#utility.yul\":3878:3997   */\n    tag_573:\n        /* \"#utility.yul\":4036:4037   */\n      0x00\n        /* \"#utility.yul\":4061:4114   */\n      tag_575\n        /* \"#utility.yul\":4106:4113   */\n      dup7\n        /* \"#utility.yul\":4097:4103   */\n      dup3\n        /* \"#utility.yul\":4086:4095   */\n      dup8\n        /* \"#utility.yul\":4082:4104   */\n      add\n        /* \"#utility.yul\":4061:4114   */\n      tag_449\n      jump\t// in\n    tag_575:\n        /* \"#utility.yul\":4051:4114   */\n      swap4\n      pop\n        /* \"#utility.yul\":4007:4124   */\n      pop\n        /* \"#utility.yul\":4163:4165   */\n      0x20\n        /* \"#utility.yul\":4189:4242   */\n      tag_576\n        /* \"#utility.yul\":4234:4241   */\n      dup7\n        /* \"#utility.yul\":4225:4231   */\n      dup3\n        /* \"#utility.yul\":4214:4223   */\n      dup8\n        /* \"#utility.yul\":4210:4232   */\n      add\n        /* \"#utility.yul\":4189:4242   */\n      tag_449\n      jump\t// in\n    tag_576:\n        /* \"#utility.yul\":4179:4242   */\n      swap3\n      pop\n        /* \"#utility.yul\":4134:4252   */\n      pop\n        /* \"#utility.yul\":4291:4293   */\n      0x40\n        /* \"#utility.yul\":4317:4370   */\n      tag_577\n        /* \"#utility.yul\":4362:4369   */\n      dup7\n        /* \"#utility.yul\":4353:4359   */\n      dup3\n        /* \"#utility.yul\":4342:4351   */\n      dup8\n        /* \"#utility.yul\":4338:4360   */\n      add\n        /* \"#utility.yul\":4317:4370   */\n      tag_449\n      jump\t// in\n    tag_577:\n        /* \"#utility.yul\":4307:4370   */\n      swap2\n      pop\n        /* \"#utility.yul\":4262:4380   */\n      pop\n        /* \"#utility.yul\":3768:4387   */\n      swap3\n      pop\n      swap3\n      pop\n      swap3\n      jump\t// out\n        /* \"#utility.yul\":4393:4492   */\n    tag_458:\n        /* \"#utility.yul\":4445:4451   */\n      0x00\n        /* \"#utility.yul\":4479:4484   */\n      dup2\n        /* \"#utility.yul\":4473:4485   */\n      mload\n        /* \"#utility.yul\":4463:4485   */\n      swap1\n      pop\n        /* \"#utility.yul\":4393:4492   */\n      swap2\n      swap1\n      pop\n      jump\t// out\n        /* \"#utility.yul\":4498:4667   */\n    tag_459:\n        /* \"#utility.yul\":4582:4593   */\n      0x00\n        /* \"#utility.yul\":4616:4622   */\n      dup3\n        /* \"#utility.yul\":4611:4614   */\n      dup3\n        /* \"#utility.yul\":4604:4623   */\n      mstore\n        /* \"#utility.yul\":4656:4660   */\n      0x20\n        /* \"#utility.yul\":4651:4654   */\n      dup3\n        /* \"#utility.yul\":4647:4661   */\n      add\n        /* \"#utility.yul\":4632:4661   */\n      swap1\n      pop\n        /* \"#utility.yul\":4498:4667   */\n      swap3\n      swap2\n      pop\n      pop\n      jump\t// out\n        /* \"#utility.yul\":4673:4919   */\n    tag_460:\n        /* \"#utility.yul\":4754:4755   */\n      0x00\n        /* \"#utility.yul\":4764:4877   */\n    tag_581:\n        /* \"#utility.yul\":4778:4784   */\n      dup4\n        /* \"#utility.yul\":4775:4776   */\n      dup2\n        /* \"#utility.yul\":4772:4785   */\n      lt\n        /* \"#utility.yul\":4764:4877   */\n      iszero\n      tag_583\n      jumpi\n        /* \"#utility.yul\":4863:4864   */\n      dup1\n        /* \"#utility.yul\":4858:4861   */\n      dup3\n        /* \"#utility.yul\":4854:4865   */\n      add\n        /* \"#utility.yul\":4848:4866   */\n      mload\n        /* \"#utility.yul\":4844:4845   */\n      dup2\n        /* \"#utility.yul\":4839:4842   */\n      dup5\n        /* \"#utility.yul\":4835:4846   */\n      add\n        /* \"#utility.yul\":4828:4867   */\n      mstore\n        /* \"#utility.yul\":4800:4802   */\n      0x20\n        /* \"#utility.yul\":4797:4798   */\n      dup2\n        /* \"#utility.yul\":4793:4803   */\n      add\n        /* \"#utility.yul\":4788:4803   */\n      swap1\n      pop\n        /* \"#utility.yul\":4764:4877   */\n      jump(tag_581)\n    tag_583:\n        /* \"#utility.yul\":4911:4912   */\n      0x00\n        /* \"#utility.yul\":4902:4908   */\n      dup5\n        /* \"#utility.yul\":4897:4900   */\n      dup5\n        /* \"#utility.yul\":4893:4909   */\n      add\n        /* \"#utility.yul\":4886:4913   */\n      mstore\n        /* \"#utility.yul\":4735:4919   */\n      pop\n        /* \"#utility.yul\":4673:4919   */\n      pop\n      pop\n      pop\n      jump\t// out\n        /* \"#utility.yul\":4925:5027   */\n    tag_461:\n        /* \"#utility.yul\":4966:4972   */\n      0x00\n        /* \"#utility.yul\":5017:5019   */\n      0x1f\n        /* \"#utility.yul\":5013:5020   */\n      not\n        /* \"#utility.yul\":5008:5010   */\n      0x1f\n        /* \"#utility.yul\":5001:5006   */\n      dup4\n        /* \"#utility.yul\":4997:5011   */\n      add\n        /* \"#utility.yul\":4993:5021   */\n      and\n        /* \"#utility.yul\":4983:5021   */\n      swap1\n      pop\n        /* \"#utility.yul\":4925:5027   */\n      swap2\n      swap1\n      pop\n      jump\t// out\n        /* \"#utility.yul\":5033:5410   */\n    tag_462:\n        /* \"#utility.yul\":5121:5124   */\n      0x00\n        /* \"#utility.yul\":5149:5188   */\n      tag_586\n        /* \"#utility.yul\":5182:5187   */\n      dup3\n        /* \"#utility.yul\":5149:5188   */\n      tag_458\n      jump\t// in\n    tag_586:\n        /* \"#utility.yul\":5204:5275   */\n      tag_587\n        /* \"#utility.yul\":5268:5274   */\n      dup2\n        /* \"#utility.yul\":5263:5266   */\n      dup6\n        /* \"#utility.yul\":5204:5275   */\n      tag_459\n      jump\t// in\n    tag_587:\n        /* \"#utility.yul\":5197:5275   */\n      swap4\n      pop\n        /* \"#utility.yul\":5284:5349   */\n      tag_588\n        /* \"#utility.yul\":5342:5348   */\n      dup2\n        /* \"#utility.yul\":5337:5340   */\n      dup6\n        /* \"#utility.yul\":5330:5334   */\n      0x20\n        /* \"#utility.yul\":5323:5328   */\n      dup7\n        /* \"#utility.yul\":5319:5335   */\n      add\n        /* \"#utility.yul\":5284:5349   */\n      tag_460\n      jump\t// in\n    tag_588:\n        /* \"#utility.yul\":5374:5403   */\n      tag_589\n        /* \"#utility.yul\":5396:5402   */\n      dup2\n        /* \"#utility.yul\":5374:5403   */\n      tag_461\n      jump\t// in\n    tag_589:\n        /* \"#utility.yul\":5369:5372   */\n      dup5\n        /* \"#utility.yul\":5365:5404   */\n      add\n        /* \"#utility.yul\":5358:5404   */\n      swap2\n      pop\n        /* \"#utility.yul\":5125:5410   */\n      pop\n        /* \"#utility.yul\":5033:5410   */\n      swap3\n      swap2\n      pop\n      pop\n      jump\t// out\n        /* \"#utility.yul\":5416:5839   */\n    tag_96:\n        /* \"#utility.yul\":5557:5561   */\n      0x00\n        /* \"#utility.yul\":5595:5597   */\n      0x40\n        /* \"#utility.yul\":5584:5593   */\n      dup3\n        /* \"#utility.yul\":5580:5598   */\n      add\n        /* \"#utility.yul\":5572:5598   */\n      swap1\n      pop\n        /* \"#utility.yul\":5608:5679   */\n      tag_591\n        /* \"#utility.yul\":5676:5677   */\n      0x00\n        /* \"#utility.yul\":5665:5674   */\n      dup4\n        /* \"#utility.yul\":5661:5678   */\n      add\n        /* \"#utility.yul\":5652:5658   */\n      dup6\n        /* \"#utility.yul\":5608:5679   */\n      tag_454\n      jump\t// in\n    tag_591:\n        /* \"#utility.yul\":5726:5735   */\n      dup2\n        /* \"#utility.yul\":5720:5724   */\n      dup2\n        /* \"#utility.yul\":5716:5736   */\n      sub\n        /* \"#utility.yul\":5711:5713   */\n      0x20\n        /* \"#utility.yul\":5700:5709   */\n      dup4\n        /* \"#utility.yul\":5696:5714   */\n      add\n        /* \"#utility.yul\":5689:5737   */\n      mstore\n        /* \"#utility.yul\":5754:5832   */\n      tag_592\n        /* \"#utility.yul\":5827:5831   */\n      dup2\n        /* \"#utility.yul\":5818:5824   */\n      dup5\n        /* \"#utility.yul\":5754:5832   */\n      tag_462\n      jump\t// in\n    tag_592:\n        /* \"#utility.yul\":5746:5832   */\n      swap1\n      pop\n        /* \"#utility.yul\":5416:5839   */\n      swap4\n      swap3\n      pop\n      pop\n      pop\n      jump\t// out\n        /* \"#utility.yul\":5845:6158   */\n    tag_110:\n        /* \"#utility.yul\":5958:5962   */\n      0x00\n        /* \"#utility.yul\":5996:5998   */\n      0x20\n        /* \"#utility.yul\":5985:5994   */\n      dup3\n        /* \"#utility.yul\":5981:5999   */\n      add\n        /* \"#utility.yul\":5973:5999   */\n      swap1\n      pop\n        /* \"#utility.yul\":6045:6054   */\n      dup2\n        /* \"#utility.yul\":6039:6043   */\n      dup2\n        /* \"#utility.yul\":6035:6055   */\n      sub\n        /* \"#utility.yul\":6031:6032   */\n      0x00\n        /* \"#utility.yul\":6020:6029   */\n      dup4\n        /* \"#utility.yul\":6016:6033   */\n      add\n        /* \"#utility.yul\":6009:6056   */\n      mstore\n        /* \"#utility.yul\":6073:6151   */\n      tag_594\n        /* \"#utility.yul\":6146:6150   */\n      dup2\n        /* \"#utility.yul\":6137:6143   */\n      dup5\n        /* \"#utility.yul\":6073:6151   */\n      tag_462\n      jump\t// in\n    tag_594:\n        /* \"#utility.yul\":6065:6151   */\n      swap1\n      pop\n        /* \"#utility.yul\":5845:6158   */\n      swap3\n      swap2\n      pop\n      pop\n      jump\t// out\n        /* \"#utility.yul\":6164:6493   */\n    tag_115:\n        /* \"#utility.yul\":6223:6229   */\n      0x00\n        /* \"#utility.yul\":6272:6274   */\n      0x20\n        /* \"#utility.yul\":6260:6269   */\n      dup3\n        /* \"#utility.yul\":6251:6258   */\n      dup5\n        /* \"#utility.yul\":6247:6270   */\n      sub\n        /* \"#utility.yul\":6243:6275   */\n      slt\n        /* \"#utility.yul\":6240:6359   */\n      iszero\n      tag_596\n      jumpi\n        /* \"#utility.yul\":6278:6357   */\n      tag_597\n      tag_445\n      jump\t// in\n    tag_597:\n        /* \"#utility.yul\":6240:6359   */\n    tag_596:\n        /* \"#utility.yul\":6398:6399   */\n      0x00\n        /* \"#utility.yul\":6423:6476   */\n      tag_598\n        /* \"#utility.yul\":6468:6475   */\n      dup5\n        /* \"#utility.yul\":6459:6465   */\n      dup3\n        /* \"#utility.yul\":6448:6457   */\n      dup6\n        /* \"#utility.yul\":6444:6466   */\n      add\n        /* \"#utility.yul\":6423:6476   */\n      tag_449\n      jump\t// in\n    tag_598:\n        /* \"#utility.yul\":6413:6476   */\n      swap2\n      pop\n        /* \"#utility.yul\":6369:6486   */\n      pop\n        /* \"#utility.yul\":6164:6493   */\n      swap3\n      swap2\n      pop\n      pop\n      jump\t// out\n        /* \"#utility.yul\":6499:6679   */\n    tag_463:\n        /* \"#utility.yul\":6547:6624   */\n      0x4e487b7100000000000000000000000000000000000000000000000000000000\n        /* \"#utility.yul\":6544:6545   */\n      0x00\n        /* \"#utility.yul\":6537:6625   */\n      mstore\n        /* \"#utility.yul\":6644:6648   */\n      0x11\n        /* \"#utility.yul\":6641:6642   */\n      0x04\n        /* \"#utility.yul\":6634:6649   */\n      mstore\n        /* \"#utility.yul\":6668:6672   */\n      0x24\n        /* \"#utility.yul\":6665:6666   */\n      0x00\n        /* \"#utility.yul\":6658:6673   */\n      revert\n        /* \"#utility.yul\":6685:6879   */\n    tag_129:\n        /* \"#utility.yul\":6725:6729   */\n      0x00\n        /* \"#utility.yul\":6745:6765   */\n      tag_601\n        /* \"#utility.yul\":6763:6764   */\n      dup3\n        /* \"#utility.yul\":6745:6765   */\n      tag_447\n      jump\t// in\n    tag_601:\n        /* \"#utility.yul\":6740:6765   */\n      swap2\n      pop\n        /* \"#utility.yul\":6779:6799   */\n      tag_602\n        /* \"#utility.yul\":6797:6798   */\n      dup4\n        /* \"#utility.yul\":6779:6799   */\n      tag_447\n      jump\t// in\n    tag_602:\n        /* \"#utility.yul\":6774:6799   */\n      swap3\n      pop\n        /* \"#utility.yul\":6823:6824   */\n      dup3\n        /* \"#utility.yul\":6820:6821   */\n      dup3\n        /* \"#utility.yul\":6816:6825   */\n      sub\n        /* \"#utility.yul\":6808:6825   */\n      swap1\n      pop\n        /* \"#utility.yul\":6847:6848   */\n      dup2\n        /* \"#utility.yul\":6841:6845   */\n      dup2\n        /* \"#utility.yul\":6838:6849   */\n      gt\n        /* \"#utility.yul\":6835:6872   */\n      iszero\n      tag_603\n      jumpi\n        /* \"#utility.yul\":6852:6870   */\n      tag_604\n      tag_463\n      jump\t// in\n    tag_604:\n        /* \"#utility.yul\":6835:6872   */\n    tag_603:\n        /* \"#utility.yul\":6685:6879   */\n      swap3\n      swap2\n      pop\n      pop\n      jump\t// out\n        /* \"#utility.yul\":6885:7033   */\n    tag_464:\n        /* \"#utility.yul\":6987:6998   */\n      0x00\n        /* \"#utility.yul\":7024:7027   */\n      dup2\n        /* \"#utility.yul\":7009:7027   */\n      swap1\n      pop\n        /* \"#utility.yul\":6885:7033   */\n      swap3\n      swap2\n      pop\n      pop\n      jump\t// out\n        /* \"#utility.yul\":7039:7284   */\n    tag_465:\n        /* \"#utility.yul\":7179:7213   */\n      0x4e6f7420656e6f75676820706f696e74732e2054686520636f6e747261637420\n        /* \"#utility.yul\":7175:7176   */\n      0x00\n        /* \"#utility.yul\":7167:7173   */\n      dup3\n        /* \"#utility.yul\":7163:7177   */\n      add\n        /* \"#utility.yul\":7156:7214   */\n      mstore\n        /* \"#utility.yul\":7248:7276   */\n      0x6d75737420626520636861726765642077697468206d6f726520000000000000\n        /* \"#utility.yul\":7243:7245   */\n      0x20\n        /* \"#utility.yul\":7235:7241   */\n      dup3\n        /* \"#utility.yul\":7231:7246   */\n      add\n        /* \"#utility.yul\":7224:7277   */\n      mstore\n        /* \"#utility.yul\":7039:7284   */\n      pop\n      jump\t// out\n        /* \"#utility.yul\":7290:7692   */\n    tag_466:\n        /* \"#utility.yul\":7450:7453   */\n      0x00\n        /* \"#utility.yul\":7471:7556   */\n      tag_608\n        /* \"#utility.yul\":7553:7555   */\n      0x3a\n        /* \"#utility.yul\":7548:7551   */\n      dup4\n        /* \"#utility.yul\":7471:7556   */\n      tag_464\n      jump\t// in\n    tag_608:\n        /* \"#utility.yul\":7464:7556   */\n      swap2\n      pop\n        /* \"#utility.yul\":7565:7658   */\n      tag_609\n        /* \"#utility.yul\":7654:7657   */\n      dup3\n        /* \"#utility.yul\":7565:7658   */\n      tag_465\n      jump\t// in\n    tag_609:\n        /* \"#utility.yul\":7683:7685   */\n      0x3a\n        /* \"#utility.yul\":7678:7681   */\n      dup3\n        /* \"#utility.yul\":7674:7686   */\n      add\n        /* \"#utility.yul\":7667:7686   */\n      swap1\n      pop\n        /* \"#utility.yul\":7290:7692   */\n      swap2\n      swap1\n      pop\n      jump\t// out\n        /* \"#utility.yul\":7698:7878   */\n    tag_467:\n        /* \"#utility.yul\":7746:7823   */\n      0x4e487b7100000000000000000000000000000000000000000000000000000000\n        /* \"#utility.yul\":7743:7744   */\n      0x00\n        /* \"#utility.yul\":7736:7824   */\n      mstore\n        /* \"#utility.yul\":7843:7847   */\n      0x22\n        /* \"#utility.yul\":7840:7841   */\n      0x04\n        /* \"#utility.yul\":7833:7848   */\n      mstore\n        /* \"#utility.yul\":7867:7871   */\n      0x24\n        /* \"#utility.yul\":7864:7865   */\n      0x00\n        /* \"#utility.yul\":7857:7872   */\n      revert\n        /* \"#utility.yul\":7884:8204   */\n    tag_292:\n        /* \"#utility.yul\":7928:7934   */\n      0x00\n        /* \"#utility.yul\":7965:7966   */\n      0x02\n        /* \"#utility.yul\":7959:7963   */\n      dup3\n        /* \"#utility.yul\":7955:7967   */\n      div\n        /* \"#utility.yul\":7945:7967   */\n      swap1\n      pop\n        /* \"#utility.yul\":8012:8013   */\n      0x01\n        /* \"#utility.yul\":8006:8010   */\n      dup3\n        /* \"#utility.yul\":8002:8014   */\n      and\n        /* \"#utility.yul\":8033:8051   */\n      dup1\n        /* \"#utility.yul\":8023:8104   */\n      tag_612\n      jumpi\n        /* \"#utility.yul\":8089:8093   */\n      0x7f\n        /* \"#utility.yul\":8081:8087   */\n      dup3\n        /* \"#utility.yul\":8077:8094   */\n      and\n        /* \"#utility.yul\":8067:8094   */\n      swap2\n      pop\n        /* \"#utility.yul\":8023:8104   */\n    tag_612:\n        /* \"#utility.yul\":8151:8153   */\n      0x20\n        /* \"#utility.yul\":8143:8149   */\n      dup3\n        /* \"#utility.yul\":8140:8154   */\n      lt\n        /* \"#utility.yul\":8120:8138   */\n      dup2\n        /* \"#utility.yul\":8117:8155   */\n      sub\n        /* \"#utility.yul\":8114:8198   */\n      tag_613\n      jumpi\n        /* \"#utility.yul\":8170:8188   */\n      tag_614\n      tag_467\n      jump\t// in\n    tag_614:\n        /* \"#utility.yul\":8114:8198   */\n    tag_613:\n        /* \"#utility.yul\":7935:8204   */\n      pop\n        /* \"#utility.yul\":7884:8204   */\n      swap2\n      swap1\n      pop\n      jump\t// out\n        /* \"#utility.yul\":8210:8351   */\n    tag_468:\n        /* \"#utility.yul\":8259:8263   */\n      0x00\n        /* \"#utility.yul\":8282:8285   */\n      dup2\n        /* \"#utility.yul\":8274:8285   */\n      swap1\n      pop\n        /* \"#utility.yul\":8305:8308   */\n      dup2\n        /* \"#utility.yul\":8302:8303   */\n      0x00\n        /* \"#utility.yul\":8295:8309   */\n      mstore\n        /* \"#utility.yul\":8339:8343   */\n      0x20\n        /* \"#utility.yul\":8336:8337   */\n      0x00\n        /* \"#utility.yul\":8326:8344   */\n      keccak256\n        /* \"#utility.yul\":8318:8344   */\n      swap1\n      pop\n        /* \"#utility.yul\":8210:8351   */\n      swap2\n      swap1\n      pop\n      jump\t// out\n        /* \"#utility.yul\":8381:9255   */\n    tag_469:\n        /* \"#utility.yul\":8484:8487   */\n      0x00\n        /* \"#utility.yul\":8521:8526   */\n      dup2\n        /* \"#utility.yul\":8515:8527   */\n      sload\n        /* \"#utility.yul\":8550:8586   */\n      tag_617\n        /* \"#utility.yul\":8576:8585   */\n      dup2\n        /* \"#utility.yul\":8550:8586   */\n      tag_292\n      jump\t// in\n    tag_617:\n        /* \"#utility.yul\":8602:8691   */\n      tag_618\n        /* \"#utility.yul\":8684:8690   */\n      dup2\n        /* \"#utility.yul\":8679:8682   */\n      dup7\n        /* \"#utility.yul\":8602:8691   */\n      tag_464\n      jump\t// in\n    tag_618:\n        /* \"#utility.yul\":8595:8691   */\n      swap5\n      pop\n        /* \"#utility.yul\":8722:8723   */\n      0x01\n        /* \"#utility.yul\":8711:8720   */\n      dup3\n        /* \"#utility.yul\":8707:8724   */\n      and\n        /* \"#utility.yul\":8738:8739   */\n      0x00\n        /* \"#utility.yul\":8733:8899   */\n      dup2\n      eq\n      tag_620\n      jumpi\n        /* \"#utility.yul\":8913:8914   */\n      0x01\n        /* \"#utility.yul\":8908:9249   */\n      dup2\n      eq\n      tag_621\n      jumpi\n        /* \"#utility.yul\":8700:9249   */\n      jump(tag_619)\n        /* \"#utility.yul\":8733:8899   */\n    tag_620:\n        /* \"#utility.yul\":8817:8821   */\n      0xff\n        /* \"#utility.yul\":8813:8822   */\n      not\n        /* \"#utility.yul\":8802:8811   */\n      dup4\n        /* \"#utility.yul\":8798:8823   */\n      and\n        /* \"#utility.yul\":8793:8796   */\n      dup7\n        /* \"#utility.yul\":8786:8824   */\n      mstore\n        /* \"#utility.yul\":8879:8885   */\n      dup2\n        /* \"#utility.yul\":8872:8886   */\n      iszero\n        /* \"#utility.yul\":8865:8887   */\n      iszero\n        /* \"#utility.yul\":8857:8863   */\n      dup3\n        /* \"#utility.yul\":8853:8888   */\n      mul\n        /* \"#utility.yul\":8848:8851   */\n      dup7\n        /* \"#utility.yul\":8844:8889   */\n      add\n        /* \"#utility.yul\":8837:8889   */\n      swap4\n      pop\n        /* \"#utility.yul\":8733:8899   */\n      jump(tag_619)\n        /* \"#utility.yul\":8908:9249   */\n    tag_621:\n        /* \"#utility.yul\":8975:9013   */\n      tag_622\n        /* \"#utility.yul\":9007:9012   */\n      dup6\n        /* \"#utility.yul\":8975:9013   */\n      tag_468\n      jump\t// in\n    tag_622:\n        /* \"#utility.yul\":9035:9036   */\n      0x00\n        /* \"#utility.yul\":9049:9203   */\n    tag_623:\n        /* \"#utility.yul\":9063:9069   */\n      dup4\n        /* \"#utility.yul\":9060:9061   */\n      dup2\n        /* \"#utility.yul\":9057:9070   */\n      lt\n        /* \"#utility.yul\":9049:9203   */\n      iszero\n      tag_625\n      jumpi\n        /* \"#utility.yul\":9137:9144   */\n      dup2\n        /* \"#utility.yul\":9131:9145   */\n      sload\n        /* \"#utility.yul\":9127:9128   */\n      dup2\n        /* \"#utility.yul\":9122:9125   */\n      dup10\n        /* \"#utility.yul\":9118:9129   */\n      add\n        /* \"#utility.yul\":9111:9146   */\n      mstore\n        /* \"#utility.yul\":9187:9188   */\n      0x01\n        /* \"#utility.yul\":9178:9185   */\n      dup3\n        /* \"#utility.yul\":9174:9189   */\n      add\n        /* \"#utility.yul\":9163:9189   */\n      swap2\n      pop\n        /* \"#utility.yul\":9085:9089   */\n      0x20\n        /* \"#utility.yul\":9082:9083   */\n      dup2\n        /* \"#utility.yul\":9078:9090   */\n      add\n        /* \"#utility.yul\":9073:9090   */\n      swap1\n      pop\n        /* \"#utility.yul\":9049:9203   */\n      jump(tag_623)\n    tag_625:\n        /* \"#utility.yul\":9232:9238   */\n      dup4\n        /* \"#utility.yul\":9227:9230   */\n      dup9\n        /* \"#utility.yul\":9223:9239   */\n      add\n        /* \"#utility.yul\":9216:9239   */\n      swap6\n      pop\n        /* \"#utility.yul\":8915:9249   */\n      pop\n      pop\n        /* \"#utility.yul\":8700:9249   */\n    tag_619:\n      pop\n        /* \"#utility.yul\":8488:9255   */\n      pop\n      pop\n        /* \"#utility.yul\":8381:9255   */\n      swap3\n      swap2\n      pop\n      pop\n      jump\t// out\n        /* \"#utility.yul\":9261:9796   */\n    tag_131:\n        /* \"#utility.yul\":9491:9494   */\n      0x00\n        /* \"#utility.yul\":9513:9661   */\n      tag_627\n        /* \"#utility.yul\":9657:9660   */\n      dup3\n        /* \"#utility.yul\":9513:9661   */\n      tag_466\n      jump\t// in\n    tag_627:\n        /* \"#utility.yul\":9506:9661   */\n      swap2\n      pop\n        /* \"#utility.yul\":9678:9770   */\n      tag_628\n        /* \"#utility.yul\":9766:9769   */\n      dup3\n        /* \"#utility.yul\":9757:9763   */\n      dup5\n        /* \"#utility.yul\":9678:9770   */\n      tag_469\n      jump\t// in\n    tag_628:\n        /* \"#utility.yul\":9671:9770   */\n      swap2\n      pop\n        /* \"#utility.yul\":9787:9790   */\n      dup2\n        /* \"#utility.yul\":9780:9790   */\n      swap1\n      pop\n        /* \"#utility.yul\":9261:9796   */\n      swap3\n      swap2\n      pop\n      pop\n      jump\t// out\n        /* \"#utility.yul\":9802:10026   */\n    tag_470:\n        /* \"#utility.yul\":9942:9976   */\n      0x57697468647261772076616c7565206d75737420626520677265617465722074\n        /* \"#utility.yul\":9938:9939   */\n      0x00\n        /* \"#utility.yul\":9930:9936   */\n      dup3\n        /* \"#utility.yul\":9926:9940   */\n      add\n        /* \"#utility.yul\":9919:9977   */\n      mstore\n        /* \"#utility.yul\":10011:10018   */\n      0x68616e2030000000000000000000000000000000000000000000000000000000\n        /* \"#utility.yul\":10006:10008   */\n      0x20\n        /* \"#utility.yul\":9998:10004   */\n      dup3\n        /* \"#utility.yul\":9994:10009   */\n      add\n        /* \"#utility.yul\":9987:10019   */\n      mstore\n        /* \"#utility.yul\":9802:10026   */\n      pop\n      jump\t// out\n        /* \"#utility.yul\":10032:10398   */\n    tag_471:\n        /* \"#utility.yul\":10174:10177   */\n      0x00\n        /* \"#utility.yul\":10195:10262   */\n      tag_631\n        /* \"#utility.yul\":10259:10261   */\n      0x25\n        /* \"#utility.yul\":10254:10257   */\n      dup4\n        /* \"#utility.yul\":10195:10262   */\n      tag_459\n      jump\t// in\n    tag_631:\n        /* \"#utility.yul\":10188:10262   */\n      swap2\n      pop\n        /* \"#utility.yul\":10271:10364   */\n      tag_632\n        /* \"#utility.yul\":10360:10363   */\n      dup3\n        /* \"#utility.yul\":10271:10364   */\n      tag_470\n      jump\t// in\n    tag_632:\n        /* \"#utility.yul\":10389:10391   */\n      0x40\n        /* \"#utility.yul\":10384:10387   */\n      dup3\n        /* \"#utility.yul\":10380:10392   */\n      add\n        /* \"#utility.yul\":10373:10392   */\n      swap1\n      pop\n        /* \"#utility.yul\":10032:10398   */\n      swap2\n      swap1\n      pop\n      jump\t// out\n        /* \"#utility.yul\":10404:10823   */\n    tag_136:\n        /* \"#utility.yul\":10570:10574   */\n      0x00\n        /* \"#utility.yul\":10608:10610   */\n      0x20\n        /* \"#utility.yul\":10597:10606   */\n      dup3\n        /* \"#utility.yul\":10593:10611   */\n      add\n        /* \"#utility.yul\":10585:10611   */\n      swap1\n      pop\n        /* \"#utility.yul\":10657:10666   */\n      dup2\n        /* \"#utility.yul\":10651:10655   */\n      dup2\n        /* \"#utility.yul\":10647:10667   */\n      sub\n        /* \"#utility.yul\":10643:10644   */\n      0x00\n        /* \"#utility.yul\":10632:10641   */\n      dup4\n        /* \"#utility.yul\":10628:10645   */\n      add\n        /* \"#utility.yul\":10621:10668   */\n      mstore\n        /* \"#utility.yul\":10685:10816   */\n      tag_634\n        /* \"#utility.yul\":10811:10815   */\n      dup2\n        /* \"#utility.yul\":10685:10816   */\n      tag_471\n      jump\t// in\n    tag_634:\n        /* \"#utility.yul\":10677:10816   */\n      swap1\n      pop\n        /* \"#utility.yul\":10404:10823   */\n      swap2\n      swap1\n      pop\n      jump\t// out\n        /* \"#utility.yul\":10829:11020   */\n    tag_138:\n        /* \"#utility.yul\":10869:10872   */\n      0x00\n        /* \"#utility.yul\":10888:10908   */\n      tag_636\n        /* \"#utility.yul\":10906:10907   */\n      dup3\n        /* \"#utility.yul\":10888:10908   */\n      tag_447\n      jump\t// in\n    tag_636:\n        /* \"#utility.yul\":10883:10908   */\n      swap2\n      pop\n        /* \"#utility.yul\":10922:10942   */\n      tag_637\n        /* \"#utility.yul\":10940:10941   */\n      dup4\n        /* \"#utility.yul\":10922:10942   */\n      tag_447\n      jump\t// in\n    tag_637:\n        /* \"#utility.yul\":10917:10942   */\n      swap3\n      pop\n        /* \"#utility.yul\":10965:10966   */\n      dup3\n        /* \"#utility.yul\":10962:10963   */\n      dup3\n        /* \"#utility.yul\":10958:10967   */\n      add\n        /* \"#utility.yul\":10951:10967   */\n      swap1\n      pop\n        /* \"#utility.yul\":10986:10989   */\n      dup1\n        /* \"#utility.yul\":10983:10984   */\n      dup3\n        /* \"#utility.yul\":10980:10990   */\n      gt\n        /* \"#utility.yul\":10977:11013   */\n      iszero\n      tag_638\n      jumpi\n        /* \"#utility.yul\":10993:11011   */\n      tag_639\n      tag_463\n      jump\t// in\n    tag_639:\n        /* \"#utility.yul\":10977:11013   */\n    tag_638:\n        /* \"#utility.yul\":10829:11020   */\n      swap3\n      swap2\n      pop\n      pop\n      jump\t// out\n        /* \"#utility.yul\":11026:11190   */\n    tag_472:\n        /* \"#utility.yul\":11166:11182   */\n      0x4e6f74206163746976617465642e000000000000000000000000000000000000\n        /* \"#utility.yul\":11162:11163   */\n      0x00\n        /* \"#utility.yul\":11154:11160   */\n      dup3\n        /* \"#utility.yul\":11150:11164   */\n      add\n        /* \"#utility.yul\":11143:11183   */\n      mstore\n        /* \"#utility.yul\":11026:11190   */\n      pop\n      jump\t// out\n        /* \"#utility.yul\":11196:11562   */\n    tag_473:\n        /* \"#utility.yul\":11338:11341   */\n      0x00\n        /* \"#utility.yul\":11359:11426   */\n      tag_642\n        /* \"#utility.yul\":11423:11425   */\n      0x0e\n        /* \"#utility.yul\":11418:11421   */\n      dup4\n        /* \"#utility.yul\":11359:11426   */\n      tag_459\n      jump\t// in\n    tag_642:\n        /* \"#utility.yul\":11352:11426   */\n      swap2\n      pop\n        /* \"#utility.yul\":11435:11528   */\n      tag_643\n        /* \"#utility.yul\":11524:11527   */\n      dup3\n        /* \"#utility.yul\":11435:11528   */\n      tag_472\n      jump\t// in\n    tag_643:\n        /* \"#utility.yul\":11553:11555   */\n      0x20\n        /* \"#utility.yul\":11548:11551   */\n      dup3\n        /* \"#utility.yul\":11544:11556   */\n      add\n        /* \"#utility.yul\":11537:11556   */\n      swap1\n      pop\n        /* \"#utility.yul\":11196:11562   */\n      swap2\n      swap1\n      pop\n      jump\t// out\n        /* \"#utility.yul\":11568:11987   */\n    tag_159:\n        /* \"#utility.yul\":11734:11738   */\n      0x00\n        /* \"#utility.yul\":11772:11774   */\n      0x20\n        /* \"#utility.yul\":11761:11770   */\n      dup3\n        /* \"#utility.yul\":11757:11775   */\n      add\n        /* \"#utility.yul\":11749:11775   */\n      swap1\n      pop\n        /* \"#utility.yul\":11821:11830   */\n      dup2\n        /* \"#utility.yul\":11815:11819   */\n      dup2\n        /* \"#utility.yul\":11811:11831   */\n      sub\n        /* \"#utility.yul\":11807:11808   */\n      0x00\n        /* \"#utility.yul\":11796:11805   */\n      dup4\n        /* \"#utility.yul\":11792:11809   */\n      add\n        /* \"#utility.yul\":11785:11832   */\n      mstore\n        /* \"#utility.yul\":11849:11980   */\n      tag_645\n        /* \"#utility.yul\":11975:11979   */\n      dup2\n        /* \"#utility.yul\":11849:11980   */\n      tag_473\n      jump\t// in\n    tag_645:\n        /* \"#utility.yul\":11841:11980   */\n      swap1\n      pop\n        /* \"#utility.yul\":11568:11987   */\n      swap2\n      swap1\n      pop\n      jump\t// out\n        /* \"#utility.yul\":11993:12158   */\n    tag_474:\n        /* \"#utility.yul\":12133:12150   */\n      0x4e6f7420417574686f72697a6564210000000000000000000000000000000000\n        /* \"#utility.yul\":12129:12130   */\n      0x00\n        /* \"#utility.yul\":12121:12127   */\n      dup3\n        /* \"#utility.yul\":12117:12131   */\n      add\n        /* \"#utility.yul\":12110:12151   */\n      mstore\n        /* \"#utility.yul\":11993:12158   */\n      pop\n      jump\t// out\n        /* \"#utility.yul\":12164:12530   */\n    tag_475:\n        /* \"#utility.yul\":12306:12309   */\n      0x00\n        /* \"#utility.yul\":12327:12394   */\n      tag_648\n        /* \"#utility.yul\":12391:12393   */\n      0x0f\n        /* \"#utility.yul\":12386:12389   */\n      dup4\n        /* \"#utility.yul\":12327:12394   */\n      tag_459\n      jump\t// in\n    tag_648:\n        /* \"#utility.yul\":12320:12394   */\n      swap2\n      pop\n        /* \"#utility.yul\":12403:12496   */\n      tag_649\n        /* \"#utility.yul\":12492:12495   */\n      dup3\n        /* \"#utility.yul\":12403:12496   */\n      tag_474\n      jump\t// in\n    tag_649:\n        /* \"#utility.yul\":12521:12523   */\n      0x20\n        /* \"#utility.yul\":12516:12519   */\n      dup3\n        /* \"#utility.yul\":12512:12524   */\n      add\n        /* \"#utility.yul\":12505:12524   */\n      swap1\n      pop\n        /* \"#utility.yul\":12164:12530   */\n      swap2\n      swap1\n      pop\n      jump\t// out\n        /* \"#utility.yul\":12536:12955   */\n    tag_171:\n        /* \"#utility.yul\":12702:12706   */\n      0x00\n        /* \"#utility.yul\":12740:12742   */\n      0x20\n        /* \"#utility.yul\":12729:12738   */\n      dup3\n        /* \"#utility.yul\":12725:12743   */\n      add\n        /* \"#utility.yul\":12717:12743   */\n      swap1\n      pop\n        /* \"#utility.yul\":12789:12798   */\n      dup2\n        /* \"#utility.yul\":12783:12787   */\n      dup2\n        /* \"#utility.yul\":12779:12799   */\n      sub\n        /* \"#utility.yul\":12775:12776   */\n      0x00\n        /* \"#utility.yul\":12764:12773   */\n      dup4\n        /* \"#utility.yul\":12760:12777   */\n      add\n        /* \"#utility.yul\":12753:12800   */\n      mstore\n        /* \"#utility.yul\":12817:12948   */\n      tag_651\n        /* \"#utility.yul\":12943:12947   */\n      dup2\n        /* \"#utility.yul\":12817:12948   */\n      tag_475\n      jump\t// in\n    tag_651:\n        /* \"#utility.yul\":12809:12948   */\n      swap1\n      pop\n        /* \"#utility.yul\":12536:12955   */\n      swap2\n      swap1\n      pop\n      jump\t// out\n        /* \"#utility.yul\":12961:13181   */\n    tag_476:\n        /* \"#utility.yul\":13101:13135   */\n      0x43616e2774206163746976617465207769746820746869732061646472657373\n        /* \"#utility.yul\":13097:13098   */\n      0x00\n        /* \"#utility.yul\":13089:13095   */\n      dup3\n        /* \"#utility.yul\":13085:13099   */\n      add\n        /* \"#utility.yul\":13078:13136   */\n      mstore\n        /* \"#utility.yul\":13170:13173   */\n      0x2100000000000000000000000000000000000000000000000000000000000000\n        /* \"#utility.yul\":13165:13167   */\n      0x20\n        /* \"#utility.yul\":13157:13163   */\n      dup3\n        /* \"#utility.yul\":13153:13168   */\n      add\n        /* \"#utility.yul\":13146:13174   */\n      mstore\n        /* \"#utility.yul\":12961:13181   */\n      pop\n      jump\t// out\n        /* \"#utility.yul\":13187:13553   */\n    tag_477:\n        /* \"#utility.yul\":13329:13332   */\n      0x00\n        /* \"#utility.yul\":13350:13417   */\n      tag_654\n        /* \"#utility.yul\":13414:13416   */\n      0x21\n        /* \"#utility.yul\":13409:13412   */\n      dup4\n        /* \"#utility.yul\":13350:13417   */\n      tag_459\n      jump\t// in\n    tag_654:\n        /* \"#utility.yul\":13343:13417   */\n      swap2\n      pop\n        /* \"#utility.yul\":13426:13519   */\n      tag_655\n        /* \"#utility.yul\":13515:13518   */\n      dup3\n        /* \"#utility.yul\":13426:13519   */\n      tag_476\n      jump\t// in\n    tag_655:\n        /* \"#utility.yul\":13544:13546   */\n      0x40\n        /* \"#utility.yul\":13539:13542   */\n      dup3\n        /* \"#utility.yul\":13535:13547   */\n      add\n        /* \"#utility.yul\":13528:13547   */\n      swap1\n      pop\n        /* \"#utility.yul\":13187:13553   */\n      swap2\n      swap1\n      pop\n      jump\t// out\n        /* \"#utility.yul\":13559:13978   */\n    tag_182:\n        /* \"#utility.yul\":13725:13729   */\n      0x00\n        /* \"#utility.yul\":13763:13765   */\n      0x20\n        /* \"#utility.yul\":13752:13761   */\n      dup3\n        /* \"#utility.yul\":13748:13766   */\n      add\n        /* \"#utility.yul\":13740:13766   */\n      swap1\n      pop\n        /* \"#utility.yul\":13812:13821   */\n      dup2\n        /* \"#utility.yul\":13806:13810   */\n      dup2\n        /* \"#utility.yul\":13802:13822   */\n      sub\n        /* \"#utility.yul\":13798:13799   */\n      0x00\n        /* \"#utility.yul\":13787:13796   */\n      dup4\n        /* \"#utility.yul\":13783:13800   */\n      add\n        /* \"#utility.yul\":13776:13823   */\n      mstore\n        /* \"#utility.yul\":13840:13971   */\n      tag_657\n        /* \"#utility.yul\":13966:13970   */\n      dup2\n        /* \"#utility.yul\":13840:13971   */\n      tag_477\n      jump\t// in\n    tag_657:\n        /* \"#utility.yul\":13832:13971   */\n      swap1\n      pop\n        /* \"#utility.yul\":13559:13978   */\n      swap2\n      swap1\n      pop\n      jump\t// out\n        /* \"#utility.yul\":13984:14152   */\n    tag_478:\n        /* \"#utility.yul\":14124:14144   */\n      0x416c7265616479206163746976617465642e0000000000000000000000000000\n        /* \"#utility.yul\":14120:14121   */\n      0x00\n        /* \"#utility.yul\":14112:14118   */\n      dup3\n        /* \"#utility.yul\":14108:14122   */\n      add\n        /* \"#utility.yul\":14101:14145   */\n      mstore\n        /* \"#utility.yul\":13984:14152   */\n      pop\n      jump\t// out\n        /* \"#utility.yul\":14158:14524   */\n    tag_479:\n        /* \"#utility.yul\":14300:14303   */\n      0x00\n        /* \"#utility.yul\":14321:14388   */\n      tag_660\n        /* \"#utility.yul\":14385:14387   */\n      0x12\n        /* \"#utility.yul\":14380:14383   */\n      dup4\n        /* \"#utility.yul\":14321:14388   */\n      tag_459\n      jump\t// in\n    tag_660:\n        /* \"#utility.yul\":14314:14388   */\n      swap2\n      pop\n        /* \"#utility.yul\":14397:14490   */\n      tag_661\n        /* \"#utility.yul\":14486:14489   */\n      dup3\n        /* \"#utility.yul\":14397:14490   */\n      tag_478\n      jump\t// in\n    tag_661:\n        /* \"#utility.yul\":14515:14517   */\n      0x20\n        /* \"#utility.yul\":14510:14513   */\n      dup3\n        /* \"#utility.yul\":14506:14518   */\n      add\n        /* \"#utility.yul\":14499:14518   */\n      swap1\n      pop\n        /* \"#utility.yul\":14158:14524   */\n      swap2\n      swap1\n      pop\n      jump\t// out\n        /* \"#utility.yul\":14530:14949   */\n    tag_185:\n        /* \"#utility.yul\":14696:14700   */\n      0x00\n        /* \"#utility.yul\":14734:14736   */\n      0x20\n        /* \"#utility.yul\":14723:14732   */\n      dup3\n        /* \"#utility.yul\":14719:14737   */\n      add\n        /* \"#utility.yul\":14711:14737   */\n      swap1\n      pop\n        /* \"#utility.yul\":14783:14792   */\n      dup2\n        /* \"#utility.yul\":14777:14781   */\n      dup2\n        /* \"#utility.yul\":14773:14793   */\n      sub\n        /* \"#utility.yul\":14769:14770   */\n      0x00\n        /* \"#utility.yul\":14758:14767   */\n      dup4\n        /* \"#utility.yul\":14754:14771   */\n      add\n        /* \"#utility.yul\":14747:14794   */\n      mstore\n        /* \"#utility.yul\":14811:14942   */\n      tag_663\n        /* \"#utility.yul\":14937:14941   */\n      dup2\n        /* \"#utility.yul\":14811:14942   */\n      tag_479\n      jump\t// in\n    tag_663:\n        /* \"#utility.yul\":14803:14942   */\n      swap1\n      pop\n        /* \"#utility.yul\":14530:14949   */\n      swap2\n      swap1\n      pop\n      jump\t// out\n        /* \"#utility.yul\":14955:15180   */\n    tag_480:\n        /* \"#utility.yul\":15095:15129   */\n      0x4f6e6c79204f776e6572206f7220417574686f72697a65642070617274696369\n        /* \"#utility.yul\":15091:15092   */\n      0x00\n        /* \"#utility.yul\":15083:15089   */\n      dup3\n        /* \"#utility.yul\":15079:15093   */\n      add\n        /* \"#utility.yul\":15072:15130   */\n      mstore\n        /* \"#utility.yul\":15164:15172   */\n      0x7061746f72210000000000000000000000000000000000000000000000000000\n        /* \"#utility.yul\":15159:15161   */\n      0x20\n        /* \"#utility.yul\":15151:15157   */\n      dup3\n        /* \"#utility.yul\":15147:15162   */\n      add\n        /* \"#utility.yul\":15140:15173   */\n      mstore\n        /* \"#utility.yul\":14955:15180   */\n      pop\n      jump\t// out\n        /* \"#utility.yul\":15186:15552   */\n    tag_481:\n        /* \"#utility.yul\":15328:15331   */\n      0x00\n        /* \"#utility.yul\":15349:15416   */\n      tag_666\n        /* \"#utility.yul\":15413:15415   */\n      0x26\n        /* \"#utility.yul\":15408:15411   */\n      dup4\n        /* \"#utility.yul\":15349:15416   */\n      tag_459\n      jump\t// in\n    tag_666:\n        /* \"#utility.yul\":15342:15416   */\n      swap2\n      pop\n        /* \"#utility.yul\":15425:15518   */\n      tag_667\n        /* \"#utility.yul\":15514:15517   */\n      dup3\n        /* \"#utility.yul\":15425:15518   */\n      tag_480\n      jump\t// in\n    tag_667:\n        /* \"#utility.yul\":15543:15545   */\n      0x40\n        /* \"#utility.yul\":15538:15541   */\n      dup3\n        /* \"#utility.yul\":15534:15546   */\n      add\n        /* \"#utility.yul\":15527:15546   */\n      swap1\n      pop\n        /* \"#utility.yul\":15186:15552   */\n      swap2\n      swap1\n      pop\n      jump\t// out\n        /* \"#utility.yul\":15558:15977   */\n    tag_195:\n        /* \"#utility.yul\":15724:15728   */\n      0x00\n        /* \"#utility.yul\":15762:15764   */\n      0x20\n        /* \"#utility.yul\":15751:15760   */\n      dup3\n        /* \"#utility.yul\":15747:15765   */\n      add\n        /* \"#utility.yul\":15739:15765   */\n      swap1\n      pop\n        /* \"#utility.yul\":15811:15820   */\n      dup2\n        /* \"#utility.yul\":15805:15809   */\n      dup2\n        /* \"#utility.yul\":15801:15821   */\n      sub\n        /* \"#utility.yul\":15797:15798   */\n      0x00\n        /* \"#utility.yul\":15786:15795   */\n      dup4\n        /* \"#utility.yul\":15782:15799   */\n      add\n        /* \"#utility.yul\":15775:15822   */\n      mstore\n        /* \"#utility.yul\":15839:15970   */\n      tag_669\n        /* \"#utility.yul\":15965:15969   */\n      dup2\n        /* \"#utility.yul\":15839:15970   */\n      tag_481\n      jump\t// in\n    tag_669:\n        /* \"#utility.yul\":15831:15970   */\n      swap1\n      pop\n        /* \"#utility.yul\":15558:15977   */\n      swap2\n      swap1\n      pop\n      jump\t// out\n        /* \"#utility.yul\":15983:16153   */\n    tag_482:\n        /* \"#utility.yul\":16123:16145   */\n      0x4e6f7468696e6720746f2077697468647261772e000000000000000000000000\n        /* \"#utility.yul\":16119:16120   */\n      0x00\n        /* \"#utility.yul\":16111:16117   */\n      dup3\n        /* \"#utility.yul\":16107:16121   */\n      add\n        /* \"#utility.yul\":16100:16146   */\n      mstore\n        /* \"#utility.yul\":15983:16153   */\n      pop\n      jump\t// out\n        /* \"#utility.yul\":16159:16525   */\n    tag_483:\n        /* \"#utility.yul\":16301:16304   */\n      0x00\n        /* \"#utility.yul\":16322:16389   */\n      tag_672\n        /* \"#utility.yul\":16386:16388   */\n      0x14\n        /* \"#utility.yul\":16381:16384   */\n      dup4\n        /* \"#utility.yul\":16322:16389   */\n      tag_459\n      jump\t// in\n    tag_672:\n        /* \"#utility.yul\":16315:16389   */\n      swap2\n      pop\n        /* \"#utility.yul\":16398:16491   */\n      tag_673\n        /* \"#utility.yul\":16487:16490   */\n      dup3\n        /* \"#utility.yul\":16398:16491   */\n      tag_482\n      jump\t// in\n    tag_673:\n        /* \"#utility.yul\":16516:16518   */\n      0x20\n        /* \"#utility.yul\":16511:16514   */\n      dup3\n        /* \"#utility.yul\":16507:16519   */\n      add\n        /* \"#utility.yul\":16500:16519   */\n      swap1\n      pop\n        /* \"#utility.yul\":16159:16525   */\n      swap2\n      swap1\n      pop\n      jump\t// out\n        /* \"#utility.yul\":16531:16950   */\n    tag_202:\n        /* \"#utility.yul\":16697:16701   */\n      0x00\n        /* \"#utility.yul\":16735:16737   */\n      0x20\n        /* \"#utility.yul\":16724:16733   */\n      dup3\n        /* \"#utility.yul\":16720:16738   */\n      add\n        /* \"#utility.yul\":16712:16738   */\n      swap1\n      pop\n        /* \"#utility.yul\":16784:16793   */\n      dup2\n        /* \"#utility.yul\":16778:16782   */\n      dup2\n        /* \"#utility.yul\":16774:16794   */\n      sub\n        /* \"#utility.yul\":16770:16771   */\n      0x00\n        /* \"#utility.yul\":16759:16768   */\n      dup4\n        /* \"#utility.yul\":16755:16772   */\n      add\n        /* \"#utility.yul\":16748:16795   */\n      mstore\n        /* \"#utility.yul\":16812:16943   */\n      tag_675\n        /* \"#utility.yul\":16938:16942   */\n      dup2\n        /* \"#utility.yul\":16812:16943   */\n      tag_483\n      jump\t// in\n    tag_675:\n        /* \"#utility.yul\":16804:16943   */\n      swap1\n      pop\n        /* \"#utility.yul\":16531:16950   */\n      swap2\n      swap1\n      pop\n      jump\t// out\n        /* \"#utility.yul\":16956:17138   */\n    tag_484:\n        /* \"#utility.yul\":17096:17130   */\n      0x4e6f7420656e6f7567682062616c616e636520666f7220776974686472617721\n        /* \"#utility.yul\":17092:17093   */\n      0x00\n        /* \"#utility.yul\":17084:17090   */\n      dup3\n        /* \"#utility.yul\":17080:17094   */\n      add\n        /* \"#utility.yul\":17073:17131   */\n      mstore\n        /* \"#utility.yul\":16956:17138   */\n      pop\n      jump\t// out\n        /* \"#utility.yul\":17144:17510   */\n    tag_485:\n        /* \"#utility.yul\":17286:17289   */\n      0x00\n        /* \"#utility.yul\":17307:17374   */\n      tag_678\n        /* \"#utility.yul\":17371:17373   */\n      0x20\n        /* \"#utility.yul\":17366:17369   */\n      dup4\n        /* \"#utility.yul\":17307:17374   */\n      tag_459\n      jump\t// in\n    tag_678:\n        /* \"#utility.yul\":17300:17374   */\n      swap2\n      pop\n        /* \"#utility.yul\":17383:17476   */\n      tag_679\n        /* \"#utility.yul\":17472:17475   */\n      dup3\n        /* \"#utility.yul\":17383:17476   */\n      tag_484\n      jump\t// in\n    tag_679:\n        /* \"#utility.yul\":17501:17503   */\n      0x20\n        /* \"#utility.yul\":17496:17499   */\n      dup3\n        /* \"#utility.yul\":17492:17504   */\n      add\n        /* \"#utility.yul\":17485:17504   */\n      swap1\n      pop\n        /* \"#utility.yul\":17144:17510   */\n      swap2\n      swap1\n      pop\n      jump\t// out\n        /* \"#utility.yul\":17516:17935   */\n    tag_206:\n        /* \"#utility.yul\":17682:17686   */\n      0x00\n        /* \"#utility.yul\":17720:17722   */\n      0x20\n        /* \"#utility.yul\":17709:17718   */\n      dup3\n        /* \"#utility.yul\":17705:17723   */\n      add\n        /* \"#utility.yul\":17697:17723   */\n      swap1\n      pop\n        /* \"#utility.yul\":17769:17778   */\n      dup2\n        /* \"#utility.yul\":17763:17767   */\n      dup2\n        /* \"#utility.yul\":17759:17779   */\n      sub\n        /* \"#utility.yul\":17755:17756   */\n      0x00\n        /* \"#utility.yul\":17744:17753   */\n      dup4\n        /* \"#utility.yul\":17740:17757   */\n      add\n        /* \"#utility.yul\":17733:17780   */\n      mstore\n        /* \"#utility.yul\":17797:17928   */\n      tag_681\n        /* \"#utility.yul\":17923:17927   */\n      dup2\n        /* \"#utility.yul\":17797:17928   */\n      tag_485\n      jump\t// in\n    tag_681:\n        /* \"#utility.yul\":17789:17928   */\n      swap1\n      pop\n        /* \"#utility.yul\":17516:17935   */\n      swap2\n      swap1\n      pop\n      jump\t// out\n        /* \"#utility.yul\":17941:18110   */\n    tag_486:\n        /* \"#utility.yul\":18081:18102   */\n      0x4e6f7420656e6f7567682062616c616e63652100000000000000000000000000\n        /* \"#utility.yul\":18077:18078   */\n      0x00\n        /* \"#utility.yul\":18069:18075   */\n      dup3\n        /* \"#utility.yul\":18065:18079   */\n      add\n        /* \"#utility.yul\":18058:18103   */\n      mstore\n        /* \"#utility.yul\":17941:18110   */\n      pop\n      jump\t// out\n        /* \"#utility.yul\":18116:18482   */\n    tag_487:\n        /* \"#utility.yul\":18258:18261   */\n      0x00\n        /* \"#utility.yul\":18279:18346   */\n      tag_684\n        /* \"#utility.yul\":18343:18345   */\n      0x13\n        /* \"#utility.yul\":18338:18341   */\n      dup4\n        /* \"#utility.yul\":18279:18346   */\n      tag_459\n      jump\t// in\n    tag_684:\n        /* \"#utility.yul\":18272:18346   */\n      swap2\n      pop\n        /* \"#utility.yul\":18355:18448   */\n      tag_685\n        /* \"#utility.yul\":18444:18447   */\n      dup3\n        /* \"#utility.yul\":18355:18448   */\n      tag_486\n      jump\t// in\n    tag_685:\n        /* \"#utility.yul\":18473:18475   */\n      0x20\n        /* \"#utility.yul\":18468:18471   */\n      dup3\n        /* \"#utility.yul\":18464:18476   */\n      add\n        /* \"#utility.yul\":18457:18476   */\n      swap1\n      pop\n        /* \"#utility.yul\":18116:18482   */\n      swap2\n      swap1\n      pop\n      jump\t// out\n        /* \"#utility.yul\":18488:18907   */\n    tag_226:\n        /* \"#utility.yul\":18654:18658   */\n      0x00\n        /* \"#utility.yul\":18692:18694   */\n      0x20\n        /* \"#utility.yul\":18681:18690   */\n      dup3\n        /* \"#utility.yul\":18677:18695   */\n      add\n        /* \"#utility.yul\":18669:18695   */\n      swap1\n      pop\n        /* \"#utility.yul\":18741:18750   */\n      dup2\n        /* \"#utility.yul\":18735:18739   */\n      dup2\n        /* \"#utility.yul\":18731:18751   */\n      sub\n        /* \"#utility.yul\":18727:18728   */\n      0x00\n        /* \"#utility.yul\":18716:18725   */\n      dup4\n        /* \"#utility.yul\":18712:18729   */\n      add\n        /* \"#utility.yul\":18705:18752   */\n      mstore\n        /* \"#utility.yul\":18769:18900   */\n      tag_687\n        /* \"#utility.yul\":18895:18899   */\n      dup2\n        /* \"#utility.yul\":18769:18900   */\n      tag_487\n      jump\t// in\n    tag_687:\n        /* \"#utility.yul\":18761:18900   */\n      swap1\n      pop\n        /* \"#utility.yul\":18488:18907   */\n      swap2\n      swap1\n      pop\n      jump\t// out\n        /* \"#utility.yul\":18913:19245   */\n    tag_228:\n        /* \"#utility.yul\":19034:19038   */\n      0x00\n        /* \"#utility.yul\":19072:19074   */\n      0x40\n        /* \"#utility.yul\":19061:19070   */\n      dup3\n        /* \"#utility.yul\":19057:19075   */\n      add\n        /* \"#utility.yul\":19049:19075   */\n      swap1\n      pop\n        /* \"#utility.yul\":19085:19156   */\n      tag_689\n        /* \"#utility.yul\":19153:19154   */\n      0x00\n        /* \"#utility.yul\":19142:19151   */\n      dup4\n        /* \"#utility.yul\":19138:19155   */\n      add\n        /* \"#utility.yul\":19129:19135   */\n      dup6\n        /* \"#utility.yul\":19085:19156   */\n      tag_454\n      jump\t// in\n    tag_689:\n        /* \"#utility.yul\":19166:19238   */\n      tag_690\n        /* \"#utility.yul\":19234:19236   */\n      0x20\n        /* \"#utility.yul\":19223:19232   */\n      dup4\n        /* \"#utility.yul\":19219:19237   */\n      add\n        /* \"#utility.yul\":19210:19216   */\n      dup5\n        /* \"#utility.yul\":19166:19238   */\n      tag_455\n      jump\t// in\n    tag_690:\n        /* \"#utility.yul\":18913:19245   */\n      swap4\n      swap3\n      pop\n      pop\n      pop\n      jump\t// out\n        /* \"#utility.yul\":19251:19367   */\n    tag_488:\n        /* \"#utility.yul\":19321:19342   */\n      tag_692\n        /* \"#utility.yul\":19336:19341   */\n      dup2\n        /* \"#utility.yul\":19321:19342   */\n      tag_456\n      jump\t// in\n    tag_692:\n        /* \"#utility.yul\":19314:19319   */\n      dup2\n        /* \"#utility.yul\":19311:19343   */\n      eq\n        /* \"#utility.yul\":19301:19361   */\n      tag_693\n      jumpi\n        /* \"#utility.yul\":19357:19358   */\n      0x00\n        /* \"#utility.yul\":19354:19355   */\n      dup1\n        /* \"#utility.yul\":19347:19359   */\n      revert\n        /* \"#utility.yul\":19301:19361   */\n    tag_693:\n        /* \"#utility.yul\":19251:19367   */\n      pop\n      jump\t// out\n        /* \"#utility.yul\":19373:19510   */\n    tag_489:\n        /* \"#utility.yul\":19427:19432   */\n      0x00\n        /* \"#utility.yul\":19458:19464   */\n      dup2\n        /* \"#utility.yul\":19452:19465   */\n      mload\n        /* \"#utility.yul\":19443:19465   */\n      swap1\n      pop\n        /* \"#utility.yul\":19474:19504   */\n      tag_695\n        /* \"#utility.yul\":19498:19503   */\n      dup2\n        /* \"#utility.yul\":19474:19504   */\n      tag_488\n      jump\t// in\n    tag_695:\n        /* \"#utility.yul\":19373:19510   */\n      swap3\n      swap2\n      pop\n      pop\n      jump\t// out\n        /* \"#utility.yul\":19516:19861   */\n    tag_232:\n        /* \"#utility.yul\":19583:19589   */\n      0x00\n        /* \"#utility.yul\":19632:19634   */\n      0x20\n        /* \"#utility.yul\":19620:19629   */\n      dup3\n        /* \"#utility.yul\":19611:19618   */\n      dup5\n        /* \"#utility.yul\":19607:19630   */\n      sub\n        /* \"#utility.yul\":19603:19635   */\n      slt\n        /* \"#utility.yul\":19600:19719   */\n      iszero\n      tag_697\n      jumpi\n        /* \"#utility.yul\":19638:19717   */\n      tag_698\n      tag_445\n      jump\t// in\n    tag_698:\n        /* \"#utility.yul\":19600:19719   */\n    tag_697:\n        /* \"#utility.yul\":19758:19759   */\n      0x00\n        /* \"#utility.yul\":19783:19844   */\n      tag_699\n        /* \"#utility.yul\":19836:19843   */\n      dup5\n        /* \"#utility.yul\":19827:19833   */\n      dup3\n        /* \"#utility.yul\":19816:19825   */\n      dup6\n        /* \"#utility.yul\":19812:19834   */\n      add\n        /* \"#utility.yul\":19783:19844   */\n      tag_489\n      jump\t// in\n    tag_699:\n        /* \"#utility.yul\":19773:19844   */\n      swap2\n      pop\n        /* \"#utility.yul\":19729:19854   */\n      pop\n        /* \"#utility.yul\":19516:19861   */\n      swap3\n      swap2\n      pop\n      pop\n      jump\t// out\n        /* \"#utility.yul\":19867:20010   */\n    tag_490:\n        /* \"#utility.yul\":19924:19929   */\n      0x00\n        /* \"#utility.yul\":19955:19961   */\n      dup2\n        /* \"#utility.yul\":19949:19962   */\n      mload\n        /* \"#utility.yul\":19940:19962   */\n      swap1\n      pop\n        /* \"#utility.yul\":19971:20004   */\n      tag_701\n        /* \"#utility.yul\":19998:20003   */\n      dup2\n        /* \"#utility.yul\":19971:20004   */\n      tag_448\n      jump\t// in\n    tag_701:\n        /* \"#utility.yul\":19867:20010   */\n      swap3\n      swap2\n      pop\n      pop\n      jump\t// out\n        /* \"#utility.yul\":20016:20367   */\n    tag_245:\n        /* \"#utility.yul\":20086:20092   */\n      0x00\n        /* \"#utility.yul\":20135:20137   */\n      0x20\n        /* \"#utility.yul\":20123:20132   */\n      dup3\n        /* \"#utility.yul\":20114:20121   */\n      dup5\n        /* \"#utility.yul\":20110:20133   */\n      sub\n        /* \"#utility.yul\":20106:20138   */\n      slt\n        /* \"#utility.yul\":20103:20222   */\n      iszero\n      tag_703\n      jumpi\n        /* \"#utility.yul\":20141:20220   */\n      tag_704\n      tag_445\n      jump\t// in\n    tag_704:\n        /* \"#utility.yul\":20103:20222   */\n    tag_703:\n        /* \"#utility.yul\":20261:20262   */\n      0x00\n        /* \"#utility.yul\":20286:20350   */\n      tag_705\n        /* \"#utility.yul\":20342:20349   */\n      dup5\n        /* \"#utility.yul\":20333:20339   */\n      dup3\n        /* \"#utility.yul\":20322:20331   */\n      dup6\n        /* \"#utility.yul\":20318:20340   */\n      add\n        /* \"#utility.yul\":20286:20350   */\n      tag_490\n      jump\t// in\n    tag_705:\n        /* \"#utility.yul\":20276:20350   */\n      swap2\n      pop\n        /* \"#utility.yul\":20232:20360   */\n      pop\n        /* \"#utility.yul\":20016:20367   */\n      swap3\n      swap2\n      pop\n      pop\n      jump\t// out\n        /* \"#utility.yul\":20373:20611   */\n    tag_491:\n        /* \"#utility.yul\":20513:20547   */\n      0x526174652c20706f696e747320616e6420646563696d616c73206d7573742062\n        /* \"#utility.yul\":20509:20510   */\n      0x00\n        /* \"#utility.yul\":20501:20507   */\n      dup3\n        /* \"#utility.yul\":20497:20511   */\n      add\n        /* \"#utility.yul\":20490:20548   */\n      mstore\n        /* \"#utility.yul\":20582:20603   */\n      0x652067726561746572207468616e207a65726f00000000000000000000000000\n        /* \"#utility.yul\":20577:20579   */\n      0x20\n        /* \"#utility.yul\":20569:20575   */\n      dup3\n        /* \"#utility.yul\":20565:20580   */\n      add\n        /* \"#utility.yul\":20558:20604   */\n      mstore\n        /* \"#utility.yul\":20373:20611   */\n      pop\n      jump\t// out\n        /* \"#utility.yul\":20617:20983   */\n    tag_492:\n        /* \"#utility.yul\":20759:20762   */\n      0x00\n        /* \"#utility.yul\":20780:20847   */\n      tag_708\n        /* \"#utility.yul\":20844:20846   */\n      0x33\n        /* \"#utility.yul\":20839:20842   */\n      dup4\n        /* \"#utility.yul\":20780:20847   */\n      tag_459\n      jump\t// in\n    tag_708:\n        /* \"#utility.yul\":20773:20847   */\n      swap2\n      pop\n        /* \"#utility.yul\":20856:20949   */\n      tag_709\n        /* \"#utility.yul\":20945:20948   */\n      dup3\n        /* \"#utility.yul\":20856:20949   */\n      tag_491\n      jump\t// in\n    tag_709:\n        /* \"#utility.yul\":20974:20976   */\n      0x40\n        /* \"#utility.yul\":20969:20972   */\n      dup3\n        /* \"#utility.yul\":20965:20977   */\n      add\n        /* \"#utility.yul\":20958:20977   */\n      swap1\n      pop\n        /* \"#utility.yul\":20617:20983   */\n      swap2\n      swap1\n      pop\n      jump\t// out\n        /* \"#utility.yul\":20989:21408   */\n    tag_259:\n        /* \"#utility.yul\":21155:21159   */\n      0x00\n        /* \"#utility.yul\":21193:21195   */\n      0x20\n        /* \"#utility.yul\":21182:21191   */\n      dup3\n        /* \"#utility.yul\":21178:21196   */\n      add\n        /* \"#utility.yul\":21170:21196   */\n      swap1\n      pop\n        /* \"#utility.yul\":21242:21251   */\n      dup2\n        /* \"#utility.yul\":21236:21240   */\n      dup2\n        /* \"#utility.yul\":21232:21252   */\n      sub\n        /* \"#utility.yul\":21228:21229   */\n      0x00\n        /* \"#utility.yul\":21217:21226   */\n      dup4\n        /* \"#utility.yul\":21213:21230   */\n      add\n        /* \"#utility.yul\":21206:21253   */\n      mstore\n        /* \"#utility.yul\":21270:21401   */\n      tag_711\n        /* \"#utility.yul\":21396:21400   */\n      dup2\n        /* \"#utility.yul\":21270:21401   */\n      tag_492\n      jump\t// in\n    tag_711:\n        /* \"#utility.yul\":21262:21401   */\n      swap1\n      pop\n        /* \"#utility.yul\":20989:21408   */\n      swap2\n      swap1\n      pop\n      jump\t// out\n        /* \"#utility.yul\":21414:21516   */\n    tag_493:\n        /* \"#utility.yul\":21456:21464   */\n      0x00\n        /* \"#utility.yul\":21503:21508   */\n      dup2\n        /* \"#utility.yul\":21500:21501   */\n      0x01\n        /* \"#utility.yul\":21496:21509   */\n      shr\n        /* \"#utility.yul\":21475:21509   */\n      swap1\n      pop\n        /* \"#utility.yul\":21414:21516   */\n      swap2\n      swap1\n      pop\n      jump\t// out\n        /* \"#utility.yul\":21522:22370   */\n    tag_494:\n        /* \"#utility.yul\":21583:21588   */\n      0x00\n        /* \"#utility.yul\":21590:21594   */\n      dup1\n        /* \"#utility.yul\":21614:21620   */\n      dup3\n        /* \"#utility.yul\":21605:21620   */\n      swap2\n      pop\n        /* \"#utility.yul\":21638:21643   */\n      dup4\n        /* \"#utility.yul\":21629:21643   */\n      swap1\n      pop\n        /* \"#utility.yul\":21652:22364   */\n    tag_714:\n        /* \"#utility.yul\":21673:21674   */\n      0x01\n        /* \"#utility.yul\":21663:21671   */\n      dup6\n        /* \"#utility.yul\":21660:21675   */\n      gt\n        /* \"#utility.yul\":21652:22364   */\n      iszero\n      tag_716\n      jumpi\n        /* \"#utility.yul\":21768:21772   */\n      dup1\n        /* \"#utility.yul\":21763:21766   */\n      dup7\n        /* \"#utility.yul\":21759:21773   */\n      div\n        /* \"#utility.yul\":21753:21757   */\n      dup2\n        /* \"#utility.yul\":21750:21774   */\n      gt\n        /* \"#utility.yul\":21747:21797   */\n      iszero\n      tag_717\n      jumpi\n        /* \"#utility.yul\":21777:21795   */\n      tag_718\n      tag_463\n      jump\t// in\n    tag_718:\n        /* \"#utility.yul\":21747:21797   */\n    tag_717:\n        /* \"#utility.yul\":21827:21828   */\n      0x01\n        /* \"#utility.yul\":21817:21825   */\n      dup6\n        /* \"#utility.yul\":21813:21829   */\n      and\n        /* \"#utility.yul\":21810:22261   */\n      iszero\n      tag_719\n      jumpi\n        /* \"#utility.yul\":22242:22246   */\n      dup1\n        /* \"#utility.yul\":22235:22240   */\n      dup3\n        /* \"#utility.yul\":22231:22247   */\n      mul\n        /* \"#utility.yul\":22222:22247   */\n      swap2\n      pop\n        /* \"#utility.yul\":21810:22261   */\n    tag_719:\n        /* \"#utility.yul\":22292:22296   */\n      dup1\n        /* \"#utility.yul\":22286:22290   */\n      dup2\n        /* \"#utility.yul\":22282:22297   */\n      mul\n        /* \"#utility.yul\":22274:22297   */\n      swap1\n      pop\n        /* \"#utility.yul\":22322:22354   */\n      tag_720\n        /* \"#utility.yul\":22345:22353   */\n      dup6\n        /* \"#utility.yul\":22322:22354   */\n      tag_493\n      jump\t// in\n    tag_720:\n        /* \"#utility.yul\":22310:22354   */\n      swap5\n      pop\n        /* \"#utility.yul\":21652:22364   */\n      jump(tag_714)\n    tag_716:\n        /* \"#utility.yul\":21522:22370   */\n      swap5\n      pop\n      swap5\n      swap3\n      pop\n      pop\n      pop\n      jump\t// out\n        /* \"#utility.yul\":22376:23449   */\n    tag_495:\n        /* \"#utility.yul\":22430:22435   */\n      0x00\n        /* \"#utility.yul\":22621:22629   */\n      dup3\n        /* \"#utility.yul\":22611:22651   */\n      tag_722\n      jumpi\n        /* \"#utility.yul\":22642:22643   */\n      0x01\n        /* \"#utility.yul\":22633:22643   */\n      swap1\n      pop\n        /* \"#utility.yul\":22644:22649   */\n      jump(tag_721)\n        /* \"#utility.yul\":22611:22651   */\n    tag_722:\n        /* \"#utility.yul\":22670:22674   */\n      dup2\n        /* \"#utility.yul\":22660:22696   */\n      tag_723\n      jumpi\n        /* \"#utility.yul\":22687:22688   */\n      0x00\n        /* \"#utility.yul\":22678:22688   */\n      swap1\n      pop\n        /* \"#utility.yul\":22689:22694   */\n      jump(tag_721)\n        /* \"#utility.yul\":22660:22696   */\n    tag_723:\n        /* \"#utility.yul\":22756:22760   */\n      dup2\n        /* \"#utility.yul\":22804:22805   */\n      0x01\n        /* \"#utility.yul\":22799:22826   */\n      dup2\n      eq\n      tag_725\n      jumpi\n        /* \"#utility.yul\":22840:22841   */\n      0x02\n        /* \"#utility.yul\":22835:23026   */\n      dup2\n      eq\n      tag_726\n      jumpi\n        /* \"#utility.yul\":22749:23026   */\n      jump(tag_724)\n        /* \"#utility.yul\":22799:22826   */\n    tag_725:\n        /* \"#utility.yul\":22817:22818   */\n      0x01\n        /* \"#utility.yul\":22808:22818   */\n      swap2\n      pop\n        /* \"#utility.yul\":22819:22824   */\n      pop\n      jump(tag_721)\n        /* \"#utility.yul\":22835:23026   */\n    tag_726:\n        /* \"#utility.yul\":22880:22883   */\n      0xff\n        /* \"#utility.yul\":22870:22878   */\n      dup5\n        /* \"#utility.yul\":22867:22884   */\n      gt\n        /* \"#utility.yul\":22864:22907   */\n      iszero\n      tag_727\n      jumpi\n        /* \"#utility.yul\":22887:22905   */\n      tag_728\n      tag_463\n      jump\t// in\n    tag_728:\n        /* \"#utility.yul\":22864:22907   */\n    tag_727:\n        /* \"#utility.yul\":22936:22944   */\n      dup4\n        /* \"#utility.yul\":22933:22934   */\n      0x02\n        /* \"#utility.yul\":22929:22945   */\n      exp\n        /* \"#utility.yul\":22920:22945   */\n      swap2\n      pop\n        /* \"#utility.yul\":22971:22974   */\n      dup5\n        /* \"#utility.yul\":22964:22969   */\n      dup3\n        /* \"#utility.yul\":22961:22975   */\n      gt\n        /* \"#utility.yul\":22958:22998   */\n      iszero\n      tag_729\n      jumpi\n        /* \"#utility.yul\":22978:22996   */\n      tag_730\n      tag_463\n      jump\t// in\n    tag_730:\n        /* \"#utility.yul\":22958:22998   */\n    tag_729:\n        /* \"#utility.yul\":23011:23016   */\n      pop\n      jump(tag_721)\n        /* \"#utility.yul\":22749:23026   */\n    tag_724:\n      pop\n        /* \"#utility.yul\":23135:23137   */\n      0x20\n        /* \"#utility.yul\":23125:23133   */\n      dup4\n        /* \"#utility.yul\":23122:23138   */\n      lt\n        /* \"#utility.yul\":23116:23119   */\n      0x0133\n        /* \"#utility.yul\":23110:23114   */\n      dup4\n        /* \"#utility.yul\":23107:23120   */\n      lt\n        /* \"#utility.yul\":23103:23139   */\n      and\n        /* \"#utility.yul\":23085:23087   */\n      0x4e\n        /* \"#utility.yul\":23075:23083   */\n      dup5\n        /* \"#utility.yul\":23072:23088   */\n      lt\n        /* \"#utility.yul\":23067:23069   */\n      0x0b\n        /* \"#utility.yul\":23061:23065   */\n      dup5\n        /* \"#utility.yul\":23058:23070   */\n      lt\n        /* \"#utility.yul\":23054:23089   */\n      and\n        /* \"#utility.yul\":23038:23149   */\n      or\n        /* \"#utility.yul\":23035:23281   */\n      iszero\n      tag_731\n      jumpi\n        /* \"#utility.yul\":23191:23199   */\n      dup3\n        /* \"#utility.yul\":23185:23189   */\n      dup3\n        /* \"#utility.yul\":23181:23200   */\n      exp\n        /* \"#utility.yul\":23172:23200   */\n      swap1\n      pop\n        /* \"#utility.yul\":23226:23229   */\n      dup4\n        /* \"#utility.yul\":23219:23224   */\n      dup2\n        /* \"#utility.yul\":23216:23230   */\n      gt\n        /* \"#utility.yul\":23213:23253   */\n      iszero\n      tag_732\n      jumpi\n        /* \"#utility.yul\":23233:23251   */\n      tag_733\n      tag_463\n      jump\t// in\n    tag_733:\n        /* \"#utility.yul\":23213:23253   */\n    tag_732:\n        /* \"#utility.yul\":23266:23271   */\n      jump(tag_721)\n        /* \"#utility.yul\":23035:23281   */\n    tag_731:\n        /* \"#utility.yul\":23306:23348   */\n      tag_734\n        /* \"#utility.yul\":23344:23347   */\n      dup5\n        /* \"#utility.yul\":23334:23342   */\n      dup5\n        /* \"#utility.yul\":23328:23332   */\n      dup5\n        /* \"#utility.yul\":23325:23326   */\n      0x01\n        /* \"#utility.yul\":23306:23348   */\n      tag_494\n      jump\t// in\n    tag_734:\n        /* \"#utility.yul\":23291:23348   */\n      swap3\n      pop\n      swap1\n      pop\n        /* \"#utility.yul\":23380:23384   */\n      dup2\n        /* \"#utility.yul\":23375:23378   */\n      dup5\n        /* \"#utility.yul\":23371:23385   */\n      div\n        /* \"#utility.yul\":23364:23369   */\n      dup2\n        /* \"#utility.yul\":23361:23386   */\n      gt\n        /* \"#utility.yul\":23358:23409   */\n      iszero\n      tag_735\n      jumpi\n        /* \"#utility.yul\":23389:23407   */\n      tag_736\n      tag_463\n      jump\t// in\n    tag_736:\n        /* \"#utility.yul\":23358:23409   */\n    tag_735:\n        /* \"#utility.yul\":23438:23442   */\n      dup2\n        /* \"#utility.yul\":23431:23436   */\n      dup2\n        /* \"#utility.yul\":23427:23443   */\n      mul\n        /* \"#utility.yul\":23418:23443   */\n      swap1\n      pop\n        /* \"#utility.yul\":22376:23449   */\n    tag_721:\n      swap4\n      swap3\n      pop\n      pop\n      pop\n      jump\t// out\n        /* \"#utility.yul\":23455:23740   */\n    tag_261:\n        /* \"#utility.yul\":23515:23520   */\n      0x00\n        /* \"#utility.yul\":23539:23562   */\n      tag_738\n        /* \"#utility.yul\":23557:23561   */\n      dup3\n        /* \"#utility.yul\":23539:23562   */\n      tag_447\n      jump\t// in\n    tag_738:\n        /* \"#utility.yul\":23531:23562   */\n      swap2\n      pop\n        /* \"#utility.yul\":23583:23610   */\n      tag_739\n        /* \"#utility.yul\":23601:23609   */\n      dup4\n        /* \"#utility.yul\":23583:23610   */\n      tag_447\n      jump\t// in\n    tag_739:\n        /* \"#utility.yul\":23571:23610   */\n      swap3\n      pop\n        /* \"#utility.yul\":23629:23733   */\n      tag_740\n        /* \"#utility.yul\":23666:23732   */\n      0xffffffffffffffffffffffffffffffffffffffffffffffffffffffffffffffff\n        /* \"#utility.yul\":23656:23664   */\n      dup5\n        /* \"#utility.yul\":23650:23654   */\n      dup5\n        /* \"#utility.yul\":23629:23733   */\n      tag_495\n      jump\t// in\n    tag_740:\n        /* \"#utility.yul\":23620:23733   */\n      swap1\n      pop\n        /* \"#utility.yul\":23455:23740   */\n      swap3\n      swap2\n      pop\n      pop\n      jump\t// out\n        /* \"#utility.yul\":23746:24156   */\n    tag_263:\n        /* \"#utility.yul\":23786:23793   */\n      0x00\n        /* \"#utility.yul\":23809:23829   */\n      tag_742\n        /* \"#utility.yul\":23827:23828   */\n      dup3\n        /* \"#utility.yul\":23809:23829   */\n      tag_447\n      jump\t// in\n    tag_742:\n        /* \"#utility.yul\":23804:23829   */\n      swap2\n      pop\n        /* \"#utility.yul\":23843:23863   */\n      tag_743\n        /* \"#utility.yul\":23861:23862   */\n      dup4\n        /* \"#utility.yul\":23843:23863   */\n      tag_447\n      jump\t// in\n    tag_743:\n        /* \"#utility.yul\":23838:23863   */\n      swap3\n      pop\n        /* \"#utility.yul\":23898:23899   */\n      dup3\n        /* \"#utility.yul\":23895:23896   */\n      dup3\n        /* \"#utility.yul\":23891:23900   */\n      mul\n        /* \"#utility.yul\":23920:23950   */\n      tag_744\n        /* \"#utility.yul\":23938:23949   */\n      dup2\n        /* \"#utility.yul\":23920:23950   */\n      tag_447\n      jump\t// in\n    tag_744:\n        /* \"#utility.yul\":23909:23950   */\n      swap2\n      pop\n        /* \"#utility.yul\":24099:24100   */\n      dup3\n        /* \"#utility.yul\":24090:24097   */\n      dup3\n        /* \"#utility.yul\":24086:24101   */\n      div\n        /* \"#utility.yul\":24083:24084   */\n      dup5\n        /* \"#utility.yul\":24080:24102   */\n      eq\n        /* \"#utility.yul\":24060:24061   */\n      dup4\n        /* \"#utility.yul\":24053:24062   */\n      iszero\n        /* \"#utility.yul\":24033:24116   */\n      or\n        /* \"#utility.yul\":24010:24149   */\n      tag_745\n      jumpi\n        /* \"#utility.yul\":24129:24147   */\n      tag_746\n      tag_463\n      jump\t// in\n    tag_746:\n        /* \"#utility.yul\":24010:24149   */\n    tag_745:\n        /* \"#utility.yul\":23794:24156   */\n      pop\n        /* \"#utility.yul\":23746:24156   */\n      swap3\n      swap2\n      pop\n      pop\n      jump\t// out\n        /* \"#utility.yul\":24162:24342   */\n    tag_496:\n        /* \"#utility.yul\":24210:24287   */\n      0x4e487b7100000000000000000000000000000000000000000000000000000000\n        /* \"#utility.yul\":24207:24208   */\n      0x00\n        /* \"#utility.yul\":24200:24288   */\n      mstore\n        /* \"#utility.yul\":24307:24311   */\n      0x12\n        /* \"#utility.yul\":24304:24305   */\n      0x04\n        /* \"#utility.yul\":24297:24312   */\n      mstore\n        /* \"#utility.yul\":24331:24335   */\n      0x24\n        /* \"#utility.yul\":24328:24329   */\n      0x00\n        /* \"#utility.yul\":24321:24336   */\n      revert\n        /* \"#utility.yul\":24348:24533   */\n    tag_265:\n        /* \"#utility.yul\":24388:24389   */\n      0x00\n        /* \"#utility.yul\":24405:24425   */\n      tag_749\n        /* \"#utility.yul\":24423:24424   */\n      dup3\n        /* \"#utility.yul\":24405:24425   */\n      tag_447\n      jump\t// in\n    tag_749:\n        /* \"#utility.yul\":24400:24425   */\n      swap2\n      pop\n        /* \"#utility.yul\":24439:24459   */\n      tag_750\n        /* \"#utility.yul\":24457:24458   */\n      dup4\n        /* \"#utility.yul\":24439:24459   */\n      tag_447\n      jump\t// in\n    tag_750:\n        /* \"#utility.yul\":24434:24459   */\n      swap3\n      pop\n        /* \"#utility.yul\":24478:24479   */\n      dup3\n        /* \"#utility.yul\":24468:24503   */\n      tag_751\n      jumpi\n        /* \"#utility.yul\":24483:24501   */\n      tag_752\n      tag_496\n      jump\t// in\n    tag_752:\n        /* \"#utility.yul\":24468:24503   */\n    tag_751:\n        /* \"#utility.yul\":24525:24526   */\n      dup3\n        /* \"#utility.yul\":24522:24523   */\n      dup3\n        /* \"#utility.yul\":24518:24527   */\n      div\n        /* \"#utility.yul\":24513:24527   */\n      swap1\n      pop\n        /* \"#utility.yul\":24348:24533   */\n      swap3\n      swap2\n      pop\n      pop\n      jump\t// out\n        /* \"#utility.yul\":24539:24763   */\n    tag_497:\n        /* \"#utility.yul\":24679:24713   */\n      0x41676772656761746f72436f6e73756d6572206973206e6f7420696e69746961\n        /* \"#utility.yul\":24675:24676   */\n      0x00\n        /* \"#utility.yul\":24667:24673   */\n      dup3\n        /* \"#utility.yul\":24663:24677   */\n      add\n        /* \"#utility.yul\":24656:24714   */\n      mstore\n        /* \"#utility.yul\":24748:24755   */\n      0x6c697a6564000000000000000000000000000000000000000000000000000000\n        /* \"#utility.yul\":24743:24745   */\n      0x20\n        /* \"#utility.yul\":24735:24741   */\n      dup3\n        /* \"#utility.yul\":24731:24746   */\n      add\n        /* \"#utility.yul\":24724:24756   */\n      mstore\n        /* \"#utility.yul\":24539:24763   */\n      pop\n      jump\t// out\n        /* \"#utility.yul\":24769:25135   */\n    tag_498:\n        /* \"#utility.yul\":24911:24914   */\n      0x00\n        /* \"#utility.yul\":24932:24999   */\n      tag_755\n        /* \"#utility.yul\":24996:24998   */\n      0x25\n        /* \"#utility.yul\":24991:24994   */\n      dup4\n        /* \"#utility.yul\":24932:24999   */\n      tag_459\n      jump\t// in\n    tag_755:\n        /* \"#utility.yul\":24925:24999   */\n      swap2\n      pop\n        /* \"#utility.yul\":25008:25101   */\n      tag_756\n        /* \"#utility.yul\":25097:25100   */\n      dup3\n        /* \"#utility.yul\":25008:25101   */\n      tag_497\n      jump\t// in\n    tag_756:\n        /* \"#utility.yul\":25126:25128   */\n      0x40\n        /* \"#utility.yul\":25121:25124   */\n      dup3\n        /* \"#utility.yul\":25117:25129   */\n      add\n        /* \"#utility.yul\":25110:25129   */\n      swap1\n      pop\n        /* \"#utility.yul\":24769:25135   */\n      swap2\n      swap1\n      pop\n      jump\t// out\n        /* \"#utility.yul\":25141:25560   */\n    tag_321:\n        /* \"#utility.yul\":25307:25311   */\n      0x00\n        /* \"#utility.yul\":25345:25347   */\n      0x20\n        /* \"#utility.yul\":25334:25343   */\n      dup3\n        /* \"#utility.yul\":25330:25348   */\n      add\n        /* \"#utility.yul\":25322:25348   */\n      swap1\n      pop\n        /* \"#utility.yul\":25394:25403   */\n      dup2\n        /* \"#utility.yul\":25388:25392   */\n      dup2\n        /* \"#utility.yul\":25384:25404   */\n      sub\n        /* \"#utility.yul\":25380:25381   */\n      0x00\n        /* \"#utility.yul\":25369:25378   */\n      dup4\n        /* \"#utility.yul\":25365:25382   */\n      add\n        /* \"#utility.yul\":25358:25405   */\n      mstore\n        /* \"#utility.yul\":25422:25553   */\n      tag_758\n        /* \"#utility.yul\":25548:25552   */\n      dup2\n        /* \"#utility.yul\":25422:25553   */\n      tag_498\n      jump\t// in\n    tag_758:\n        /* \"#utility.yul\":25414:25553   */\n      swap1\n      pop\n        /* \"#utility.yul\":25141:25560   */\n      swap2\n      swap1\n      pop\n      jump\t// out\n        /* \"#utility.yul\":25566:25747   */\n    tag_499:\n        /* \"#utility.yul\":25706:25739   */\n      0x506f6f6c436f6e73756d6572206973206e6f7420696e697469616c697a656400\n        /* \"#utility.yul\":25702:25703   */\n      0x00\n        /* \"#utility.yul\":25694:25700   */\n      dup3\n        /* \"#utility.yul\":25690:25704   */\n      add\n        /* \"#utility.yul\":25683:25740   */\n      mstore\n        /* \"#utility.yul\":25566:25747   */\n      pop\n      jump\t// out\n        /* \"#utility.yul\":25753:26119   */\n    tag_500:\n        /* \"#utility.yul\":25895:25898   */\n      0x00\n        /* \"#utility.yul\":25916:25983   */\n      tag_761\n        /* \"#utility.yul\":25980:25982   */\n      0x1f\n        /* \"#utility.yul\":25975:25978   */\n      dup4\n        /* \"#utility.yul\":25916:25983   */\n      tag_459\n      jump\t// in\n    tag_761:\n        /* \"#utility.yul\":25909:25983   */\n      swap2\n      pop\n        /* \"#utility.yul\":25992:26085   */\n      tag_762\n        /* \"#utility.yul\":26081:26084   */\n      dup3\n        /* \"#utility.yul\":25992:26085   */\n      tag_499\n      jump\t// in\n    tag_762:\n        /* \"#utility.yul\":26110:26112   */\n      0x20\n        /* \"#utility.yul\":26105:26108   */\n      dup3\n        /* \"#utility.yul\":26101:26113   */\n      add\n        /* \"#utility.yul\":26094:26113   */\n      swap1\n      pop\n        /* \"#utility.yul\":25753:26119   */\n      swap2\n      swap1\n      pop\n      jump\t// out\n        /* \"#utility.yul\":26125:26544   */\n    tag_326:\n        /* \"#utility.yul\":26291:26295   */\n      0x00\n        /* \"#utility.yul\":26329:26331   */\n      0x20\n        /* \"#utility.yul\":26318:26327   */\n      dup3\n        /* \"#utility.yul\":26314:26332   */\n      add\n        /* \"#utility.yul\":26306:26332   */\n      swap1\n      pop\n        /* \"#utility.yul\":26378:26387   */\n      dup2\n        /* \"#utility.yul\":26372:26376   */\n      dup2\n        /* \"#utility.yul\":26368:26388   */\n      sub\n        /* \"#utility.yul\":26364:26365   */\n      0x00\n        /* \"#utility.yul\":26353:26362   */\n      dup4\n        /* \"#utility.yul\":26349:26366   */\n      add\n        /* \"#utility.yul\":26342:26389   */\n      mstore\n        /* \"#utility.yul\":26406:26537   */\n      tag_764\n        /* \"#utility.yul\":26532:26536   */\n      dup2\n        /* \"#utility.yul\":26406:26537   */\n      tag_500\n      jump\t// in\n    tag_764:\n        /* \"#utility.yul\":26398:26537   */\n      swap1\n      pop\n        /* \"#utility.yul\":26125:26544   */\n      swap2\n      swap1\n      pop\n      jump\t// out\n        /* \"#utility.yul\":26550:26717   */\n    tag_501:\n        /* \"#utility.yul\":26690:26709   */\n      0x4e6f2063686172676520616d6f756e7421000000000000000000000000000000\n        /* \"#utility.yul\":26686:26687   */\n      0x00\n        /* \"#utility.yul\":26678:26684   */\n      dup3\n        /* \"#utility.yul\":26674:26688   */\n      add\n        /* \"#utility.yul\":26667:26710   */\n      mstore\n        /* \"#utility.yul\":26550:26717   */\n      pop\n      jump\t// out\n        /* \"#utility.yul\":26723:27089   */\n    tag_502:\n        /* \"#utility.yul\":26865:26868   */\n      0x00\n        /* \"#utility.yul\":26886:26953   */\n      tag_767\n        /* \"#utility.yul\":26950:26952   */\n      0x11\n        /* \"#utility.yul\":26945:26948   */\n      dup4\n        /* \"#utility.yul\":26886:26953   */\n      tag_459\n      jump\t// in\n    tag_767:\n        /* \"#utility.yul\":26879:26953   */\n      swap2\n      pop\n        /* \"#utility.yul\":26962:27055   */\n      tag_768\n        /* \"#utility.yul\":27051:27054   */\n      dup3\n        /* \"#utility.yul\":26962:27055   */\n      tag_501\n      jump\t// in\n    tag_768:\n        /* \"#utility.yul\":27080:27082   */\n      0x20\n        /* \"#utility.yul\":27075:27078   */\n      dup3\n        /* \"#utility.yul\":27071:27083   */\n      add\n        /* \"#utility.yul\":27064:27083   */\n      swap1\n      pop\n        /* \"#utility.yul\":26723:27089   */\n      swap2\n      swap1\n      pop\n      jump\t// out\n        /* \"#utility.yul\":27095:27514   */\n    tag_338:\n        /* \"#utility.yul\":27261:27265   */\n      0x00\n        /* \"#utility.yul\":27299:27301   */\n      0x20\n        /* \"#utility.yul\":27288:27297   */\n      dup3\n        /* \"#utility.yul\":27284:27302   */\n      add\n        /* \"#utility.yul\":27276:27302   */\n      swap1\n      pop\n        /* \"#utility.yul\":27348:27357   */\n      dup2\n        /* \"#utility.yul\":27342:27346   */\n      dup2\n        /* \"#utility.yul\":27338:27358   */\n      sub\n        /* \"#utility.yul\":27334:27335   */\n      0x00\n        /* \"#utility.yul\":27323:27332   */\n      dup4\n        /* \"#utility.yul\":27319:27336   */\n      add\n        /* \"#utility.yul\":27312:27359   */\n      mstore\n        /* \"#utility.yul\":27376:27507   */\n      tag_770\n        /* \"#utility.yul\":27502:27506   */\n      dup2\n        /* \"#utility.yul\":27376:27507   */\n      tag_502\n      jump\t// in\n    tag_770:\n        /* \"#utility.yul\":27368:27507   */\n      swap1\n      pop\n        /* \"#utility.yul\":27095:27514   */\n      swap2\n      swap1\n      pop\n      jump\t// out\n        /* \"#utility.yul\":27520:27852   */\n    tag_340:\n        /* \"#utility.yul\":27641:27645   */\n      0x00\n        /* \"#utility.yul\":27679:27681   */\n      0x40\n        /* \"#utility.yul\":27668:27677   */\n      dup3\n        /* \"#utility.yul\":27664:27682   */\n      add\n        /* \"#utility.yul\":27656:27682   */\n      swap1\n      pop\n        /* \"#utility.yul\":27692:27763   */\n      tag_772\n        /* \"#utility.yul\":27760:27761   */\n      0x00\n        /* \"#utility.yul\":27749:27758   */\n      dup4\n        /* \"#utility.yul\":27745:27762   */\n      add\n        /* \"#utility.yul\":27736:27742   */\n      dup6\n        /* \"#utility.yul\":27692:27763   */\n      tag_454\n      jump\t// in\n    tag_772:\n        /* \"#utility.yul\":27773:27845   */\n      tag_773\n        /* \"#utility.yul\":27841:27843   */\n      0x20\n        /* \"#utility.yul\":27830:27839   */\n      dup4\n        /* \"#utility.yul\":27826:27844   */\n      add\n        /* \"#utility.yul\":27817:27823   */\n      dup5\n        /* \"#utility.yul\":27773:27845   */\n      tag_454\n      jump\t// in\n    tag_773:\n        /* \"#utility.yul\":27520:27852   */\n      swap4\n      swap3\n      pop\n      pop\n      pop\n      jump\t// out\n        /* \"#utility.yul\":27858:28046   */\n    tag_503:\n        /* \"#utility.yul\":28027:28039   */\n      0x436865636b207468652000000000000000000000000000000000000000000000\n        /* \"#utility.yul\":28022:28025   */\n      dup2\n        /* \"#utility.yul\":28015:28040   */\n      mstore\n        /* \"#utility.yul\":27858:28046   */\n      pop\n      jump\t// out\n        /* \"#utility.yul\":28052:28236   */\n    tag_504:\n        /* \"#utility.yul\":28220:28229   */\n      0x20746f6b656e2000000000000000000000000000000000000000000000000000\n        /* \"#utility.yul\":28215:28218   */\n      dup2\n        /* \"#utility.yul\":28208:28230   */\n      mstore\n        /* \"#utility.yul\":28052:28236   */\n      pop\n      jump\t// out\n        /* \"#utility.yul\":28242:28430   */\n    tag_505:\n        /* \"#utility.yul\":28411:28423   */\n      0x616c6c6f77616e63652e00000000000000000000000000000000000000000000\n        /* \"#utility.yul\":28406:28409   */\n      dup2\n        /* \"#utility.yul\":28399:28424   */\n      mstore\n        /* \"#utility.yul\":28242:28430   */\n      pop\n      jump\t// out\n        /* \"#utility.yul\":28436:29503   */\n    tag_345:\n        /* \"#utility.yul\":28837:28840   */\n      0x00\n        /* \"#utility.yul\":28852:28990   */\n      tag_778\n        /* \"#utility.yul\":28986:28989   */\n      dup3\n        /* \"#utility.yul\":28852:28990   */\n      tag_503\n      jump\t// in\n    tag_778:\n        /* \"#utility.yul\":29015:29017   */\n      0x0a\n        /* \"#utility.yul\":29010:29013   */\n      dup3\n        /* \"#utility.yul\":29006:29018   */\n      add\n        /* \"#utility.yul\":28999:29018   */\n      swap2\n      pop\n        /* \"#utility.yul\":29035:29127   */\n      tag_779\n        /* \"#utility.yul\":29123:29126   */\n      dup3\n        /* \"#utility.yul\":29114:29120   */\n      dup5\n        /* \"#utility.yul\":29035:29127   */\n      tag_469\n      jump\t// in\n    tag_779:\n        /* \"#utility.yul\":29028:29127   */\n      swap2\n      pop\n        /* \"#utility.yul\":29137:29274   */\n      tag_780\n        /* \"#utility.yul\":29270:29273   */\n      dup3\n        /* \"#utility.yul\":29137:29274   */\n      tag_504\n      jump\t// in\n    tag_780:\n        /* \"#utility.yul\":29299:29300   */\n      0x07\n        /* \"#utility.yul\":29294:29297   */\n      dup3\n        /* \"#utility.yul\":29290:29301   */\n      add\n        /* \"#utility.yul\":29283:29301   */\n      swap2\n      pop\n        /* \"#utility.yul\":29311:29449   */\n      tag_781\n        /* \"#utility.yul\":29445:29448   */\n      dup3\n        /* \"#utility.yul\":29311:29449   */\n      tag_505\n      jump\t// in\n    tag_781:\n        /* \"#utility.yul\":29474:29476   */\n      0x0a\n        /* \"#utility.yul\":29469:29472   */\n      dup3\n        /* \"#utility.yul\":29465:29477   */\n      add\n        /* \"#utility.yul\":29458:29477   */\n      swap2\n      pop\n        /* \"#utility.yul\":29494:29497   */\n      dup2\n        /* \"#utility.yul\":29487:29497   */\n      swap1\n      pop\n        /* \"#utility.yul\":28436:29503   */\n      swap3\n      swap2\n      pop\n      pop\n      jump\t// out\n        /* \"#utility.yul\":29509:29951   */\n    tag_349:\n        /* \"#utility.yul\":29658:29662   */\n      0x00\n        /* \"#utility.yul\":29696:29698   */\n      0x60\n        /* \"#utility.yul\":29685:29694   */\n      dup3\n        /* \"#utility.yul\":29681:29699   */\n      add\n        /* \"#utility.yul\":29673:29699   */\n      swap1\n      pop\n        /* \"#utility.yul\":29709:29780   */\n      tag_783\n        /* \"#utility.yul\":29777:29778   */\n      0x00\n        /* \"#utility.yul\":29766:29775   */\n      dup4\n        /* \"#utility.yul\":29762:29779   */\n      add\n        /* \"#utility.yul\":29753:29759   */\n      dup7\n        /* \"#utility.yul\":29709:29780   */\n      tag_454\n      jump\t// in\n    tag_783:\n        /* \"#utility.yul\":29790:29862   */\n      tag_784\n        /* \"#utility.yul\":29858:29860   */\n      0x20\n        /* \"#utility.yul\":29847:29856   */\n      dup4\n        /* \"#utility.yul\":29843:29861   */\n      add\n        /* \"#utility.yul\":29834:29840   */\n      dup6\n        /* \"#utility.yul\":29790:29862   */\n      tag_454\n      jump\t// in\n    tag_784:\n        /* \"#utility.yul\":29872:29944   */\n      tag_785\n        /* \"#utility.yul\":29940:29942   */\n      0x40\n        /* \"#utility.yul\":29929:29938   */\n      dup4\n        /* \"#utility.yul\":29925:29943   */\n      add\n        /* \"#utility.yul\":29916:29922   */\n      dup5\n        /* \"#utility.yul\":29872:29944   */\n      tag_455\n      jump\t// in\n    tag_785:\n        /* \"#utility.yul\":29509:29951   */\n      swap5\n      swap4\n      pop\n      pop\n      pop\n      pop\n      jump\t// out\n        /* \"#utility.yul\":29957:30117   */\n    tag_506:\n        /* \"#utility.yul\":30097:30109   */\n      0x72617465206572726f7200000000000000000000000000000000000000000000\n        /* \"#utility.yul\":30093:30094   */\n      0x00\n        /* \"#utility.yul\":30085:30091   */\n      dup3\n        /* \"#utility.yul\":30081:30095   */\n      add\n        /* \"#utility.yul\":30074:30110   */\n      mstore\n        /* \"#utility.yul\":29957:30117   */\n      pop\n      jump\t// out\n        /* \"#utility.yul\":30123:30489   */\n    tag_507:\n        /* \"#utility.yul\":30265:30268   */\n      0x00\n        /* \"#utility.yul\":30286:30353   */\n      tag_788\n        /* \"#utility.yul\":30350:30352   */\n      0x0a\n        /* \"#utility.yul\":30345:30348   */\n      dup4\n        /* \"#utility.yul\":30286:30353   */\n      tag_459\n      jump\t// in\n    tag_788:\n        /* \"#utility.yul\":30279:30353   */\n      swap2\n      pop\n        /* \"#utility.yul\":30362:30455   */\n      tag_789\n        /* \"#utility.yul\":30451:30454   */\n      dup3\n        /* \"#utility.yul\":30362:30455   */\n      tag_506\n      jump\t// in\n    tag_789:\n        /* \"#utility.yul\":30480:30482   */\n      0x20\n        /* \"#utility.yul\":30475:30478   */\n      dup3\n        /* \"#utility.yul\":30471:30483   */\n      add\n        /* \"#utility.yul\":30464:30483   */\n      swap1\n      pop\n        /* \"#utility.yul\":30123:30489   */\n      swap2\n      swap1\n      pop\n      jump\t// out\n        /* \"#utility.yul\":30495:30914   */\n    tag_359:\n        /* \"#utility.yul\":30661:30665   */\n      0x00\n        /* \"#utility.yul\":30699:30701   */\n      0x20\n        /* \"#utility.yul\":30688:30697   */\n      dup3\n        /* \"#utility.yul\":30684:30702   */\n      add\n        /* \"#utility.yul\":30676:30702   */\n      swap1\n      pop\n        /* \"#utility.yul\":30748:30757   */\n      dup2\n        /* \"#utility.yul\":30742:30746   */\n      dup2\n        /* \"#utility.yul\":30738:30758   */\n      sub\n        /* \"#utility.yul\":30734:30735   */\n      0x00\n        /* \"#utility.yul\":30723:30732   */\n      dup4\n        /* \"#utility.yul\":30719:30736   */\n      add\n        /* \"#utility.yul\":30712:30759   */\n      mstore\n        /* \"#utility.yul\":30776:30907   */\n      tag_791\n        /* \"#utility.yul\":30902:30906   */\n      dup2\n        /* \"#utility.yul\":30776:30907   */\n      tag_507\n      jump\t// in\n    tag_791:\n        /* \"#utility.yul\":30768:30907   */\n      swap1\n      pop\n        /* \"#utility.yul\":30495:30914   */\n      swap2\n      swap1\n      pop\n      jump\t// out\n        /* \"#utility.yul\":30920:31564   */\n    tag_367:\n        /* \"#utility.yul\":31117:31121   */\n      0x00\n        /* \"#utility.yul\":31155:31158   */\n      0x80\n        /* \"#utility.yul\":31144:31153   */\n      dup3\n        /* \"#utility.yul\":31140:31159   */\n      add\n        /* \"#utility.yul\":31132:31159   */\n      swap1\n      pop\n        /* \"#utility.yul\":31169:31240   */\n      tag_793\n        /* \"#utility.yul\":31237:31238   */\n      0x00\n        /* \"#utility.yul\":31226:31235   */\n      dup4\n        /* \"#utility.yul\":31222:31239   */\n      add\n        /* \"#utility.yul\":31213:31219   */\n      dup8\n        /* \"#utility.yul\":31169:31240   */\n      tag_455\n      jump\t// in\n    tag_793:\n        /* \"#utility.yul\":31250:31322   */\n      tag_794\n        /* \"#utility.yul\":31318:31320   */\n      0x20\n        /* \"#utility.yul\":31307:31316   */\n      dup4\n        /* \"#utility.yul\":31303:31321   */\n      add\n        /* \"#utility.yul\":31294:31300   */\n      dup7\n        /* \"#utility.yul\":31250:31322   */\n      tag_455\n      jump\t// in\n    tag_794:\n        /* \"#utility.yul\":31332:31404   */\n      tag_795\n        /* \"#utility.yul\":31400:31402   */\n      0x40\n        /* \"#utility.yul\":31389:31398   */\n      dup4\n        /* \"#utility.yul\":31385:31403   */\n      add\n        /* \"#utility.yul\":31376:31382   */\n      dup6\n        /* \"#utility.yul\":31332:31404   */\n      tag_455\n      jump\t// in\n    tag_795:\n        /* \"#utility.yul\":31451:31460   */\n      dup2\n        /* \"#utility.yul\":31445:31449   */\n      dup2\n        /* \"#utility.yul\":31441:31461   */\n      sub\n        /* \"#utility.yul\":31436:31438   */\n      0x60\n        /* \"#utility.yul\":31425:31434   */\n      dup4\n        /* \"#utility.yul\":31421:31439   */\n      add\n        /* \"#utility.yul\":31414:31462   */\n      mstore\n        /* \"#utility.yul\":31479:31557   */\n      tag_796\n        /* \"#utility.yul\":31552:31556   */\n      dup2\n        /* \"#utility.yul\":31543:31549   */\n      dup5\n        /* \"#utility.yul\":31479:31557   */\n      tag_462\n      jump\t// in\n    tag_796:\n        /* \"#utility.yul\":31471:31557   */\n      swap1\n      pop\n        /* \"#utility.yul\":30920:31564   */\n      swap6\n      swap5\n      pop\n      pop\n      pop\n      pop\n      pop\n      jump\t// out\n        /* \"#utility.yul\":31570:31795   */\n    tag_508:\n        /* \"#utility.yul\":31710:31744   */\n      0x4f776e61626c653a206e6577206f776e657220697320746865207a65726f2061\n        /* \"#utility.yul\":31706:31707   */\n      0x00\n        /* \"#utility.yul\":31698:31704   */\n      dup3\n        /* \"#utility.yul\":31694:31708   */\n      add\n        /* \"#utility.yul\":31687:31745   */\n      mstore\n        /* \"#utility.yul\":31779:31787   */\n      0x6464726573730000000000000000000000000000000000000000000000000000\n        /* \"#utility.yul\":31774:31776   */\n      0x20\n        /* \"#utility.yul\":31766:31772   */\n      dup3\n        /* \"#utility.yul\":31762:31777   */\n      add\n        /* \"#utility.yul\":31755:31788   */\n      mstore\n        /* \"#utility.yul\":31570:31795   */\n      pop\n      jump\t// out\n        /* \"#utility.yul\":31801:32167   */\n    tag_509:\n        /* \"#utility.yul\":31943:31946   */\n      0x00\n        /* \"#utility.yul\":31964:32031   */\n      tag_799\n        /* \"#utility.yul\":32028:32030   */\n      0x26\n        /* \"#utility.yul\":32023:32026   */\n      dup4\n        /* \"#utility.yul\":31964:32031   */\n      tag_459\n      jump\t// in\n    tag_799:\n        /* \"#utility.yul\":31957:32031   */\n      swap2\n      pop\n        /* \"#utility.yul\":32040:32133   */\n      tag_800\n        /* \"#utility.yul\":32129:32132   */\n      dup3\n        /* \"#utility.yul\":32040:32133   */\n      tag_508\n      jump\t// in\n    tag_800:\n        /* \"#utility.yul\":32158:32160   */\n      0x40\n        /* \"#utility.yul\":32153:32156   */\n      dup3\n        /* \"#utility.yul\":32149:32161   */\n      add\n        /* \"#utility.yul\":32142:32161   */\n      swap1\n      pop\n        /* \"#utility.yul\":31801:32167   */\n      swap2\n      swap1\n      pop\n      jump\t// out\n        /* \"#utility.yul\":32173:32592   */\n    tag_373:\n        /* \"#utility.yul\":32339:32343   */\n      0x00\n        /* \"#utility.yul\":32377:32379   */\n      0x20\n        /* \"#utility.yul\":32366:32375   */\n      dup3\n        /* \"#utility.yul\":32362:32380   */\n      add\n        /* \"#utility.yul\":32354:32380   */\n      swap1\n      pop\n        /* \"#utility.yul\":32426:32435   */\n      dup2\n        /* \"#utility.yul\":32420:32424   */\n      dup2\n        /* \"#utility.yul\":32416:32436   */\n      sub\n        /* \"#utility.yul\":32412:32413   */\n      0x00\n        /* \"#utility.yul\":32401:32410   */\n      dup4\n        /* \"#utility.yul\":32397:32414   */\n      add\n        /* \"#utility.yul\":32390:32437   */\n      mstore\n        /* \"#utility.yul\":32454:32585   */\n      tag_802\n        /* \"#utility.yul\":32580:32584   */\n      dup2\n        /* \"#utility.yul\":32454:32585   */\n      tag_509\n      jump\t// in\n    tag_802:\n        /* \"#utility.yul\":32446:32585   */\n      swap1\n      pop\n        /* \"#utility.yul\":32173:32592   */\n      swap2\n      swap1\n      pop\n      jump\t// out\n        /* \"#utility.yul\":32598:32780   */\n    tag_510:\n        /* \"#utility.yul\":32738:32772   */\n      0x4f776e61626c653a2063616c6c6572206973206e6f7420746865206f776e6572\n        /* \"#utility.yul\":32734:32735   */\n      0x00\n        /* \"#utility.yul\":32726:32732   */\n      dup3\n        /* \"#utility.yul\":32722:32736   */\n      add\n        /* \"#utility.yul\":32715:32773   */\n      mstore\n        /* \"#utility.yul\":32598:32780   */\n      pop\n      jump\t// out\n        /* \"#utility.yul\":32786:33152   */\n    tag_511:\n        /* \"#utility.yul\":32928:32931   */\n      0x00\n        /* \"#utility.yul\":32949:33016   */\n      tag_805\n        /* \"#utility.yul\":33013:33015   */\n      0x20\n        /* \"#utility.yul\":33008:33011   */\n      dup4\n        /* \"#utility.yul\":32949:33016   */\n      tag_459\n      jump\t// in\n    tag_805:\n        /* \"#utility.yul\":32942:33016   */\n      swap2\n      pop\n        /* \"#utility.yul\":33025:33118   */\n      tag_806\n        /* \"#utility.yul\":33114:33117   */\n      dup3\n        /* \"#utility.yul\":33025:33118   */\n      tag_510\n      jump\t// in\n    tag_806:\n        /* \"#utility.yul\":33143:33145   */\n      0x20\n        /* \"#utility.yul\":33138:33141   */\n      dup3\n        /* \"#utility.yul\":33134:33146   */\n      add\n        /* \"#utility.yul\":33127:33146   */\n      swap1\n      pop\n        /* \"#utility.yul\":32786:33152   */\n      swap2\n      swap1\n      pop\n      jump\t// out\n        /* \"#utility.yul\":33158:33577   */\n    tag_390:\n        /* \"#utility.yul\":33324:33328   */\n      0x00\n        /* \"#utility.yul\":33362:33364   */\n      0x20\n        /* \"#utility.yul\":33351:33360   */\n      dup3\n        /* \"#utility.yul\":33347:33365   */\n      add\n        /* \"#utility.yul\":33339:33365   */\n      swap1\n      pop\n        /* \"#utility.yul\":33411:33420   */\n      dup2\n        /* \"#utility.yul\":33405:33409   */\n      dup2\n        /* \"#utility.yul\":33401:33421   */\n      sub\n        /* \"#utility.yul\":33397:33398   */\n      0x00\n        /* \"#utility.yul\":33386:33395   */\n      dup4\n        /* \"#utility.yul\":33382:33399   */\n      add\n        /* \"#utility.yul\":33375:33422   */\n      mstore\n        /* \"#utility.yul\":33439:33570   */\n      tag_808\n        /* \"#utility.yul\":33565:33569   */\n      dup2\n        /* \"#utility.yul\":33439:33570   */\n      tag_511\n      jump\t// in\n    tag_808:\n        /* \"#utility.yul\":33431:33570   */\n      swap1\n      pop\n        /* \"#utility.yul\":33158:33577   */\n      swap2\n      swap1\n      pop\n      jump\t// out\n        /* \"#utility.yul\":33583:33753   */\n    tag_512:\n        /* \"#utility.yul\":33723:33745   */\n      0x5061757361626c653a206e6f7420706175736564000000000000000000000000\n        /* \"#utility.yul\":33719:33720   */\n      0x00\n        /* \"#utility.yul\":33711:33717   */\n      dup3\n        /* \"#utility.yul\":33707:33721   */\n      add\n        /* \"#utility.yul\":33700:33746   */\n      mstore\n        /* \"#utility.yul\":33583:33753   */\n      pop\n      jump\t// out\n        /* \"#utility.yul\":33759:34125   */\n    tag_513:\n        /* \"#utility.yul\":33901:33904   */\n      0x00\n        /* \"#utility.yul\":33922:33989   */\n      tag_811\n        /* \"#utility.yul\":33986:33988   */\n      0x14\n        /* \"#utility.yul\":33981:33984   */\n      dup4\n        /* \"#utility.yul\":33922:33989   */\n      tag_459\n      jump\t// in\n    tag_811:\n        /* \"#utility.yul\":33915:33989   */\n      swap2\n      pop\n        /* \"#utility.yul\":33998:34091   */\n      tag_812\n        /* \"#utility.yul\":34087:34090   */\n      dup3\n        /* \"#utility.yul\":33998:34091   */\n      tag_512\n      jump\t// in\n    tag_812:\n        /* \"#utility.yul\":34116:34118   */\n      0x20\n        /* \"#utility.yul\":34111:34114   */\n      dup3\n        /* \"#utility.yul\":34107:34119   */\n      add\n        /* \"#utility.yul\":34100:34119   */\n      swap1\n      pop\n        /* \"#utility.yul\":33759:34125   */\n      swap2\n      swap1\n      pop\n      jump\t// out\n        /* \"#utility.yul\":34131:34550   */\n    tag_395:\n        /* \"#utility.yul\":34297:34301   */\n      0x00\n        /* \"#utility.yul\":34335:34337   */\n      0x20\n        /* \"#utility.yul\":34324:34333   */\n      dup3\n        /* \"#utility.yul\":34320:34338   */\n      add\n        /* \"#utility.yul\":34312:34338   */\n      swap1\n      pop\n        /* \"#utility.yul\":34384:34393   */\n      dup2\n        /* \"#utility.yul\":34378:34382   */\n      dup2\n        /* \"#utility.yul\":34374:34394   */\n      sub\n        /* \"#utility.yul\":34370:34371   */\n      0x00\n        /* \"#utility.yul\":34359:34368   */\n      dup4\n        /* \"#utility.yul\":34355:34372   */\n      add\n        /* \"#utility.yul\":34348:34395   */\n      mstore\n        /* \"#utility.yul\":34412:34543   */\n      tag_814\n        /* \"#utility.yul\":34538:34542   */\n      dup2\n        /* \"#utility.yul\":34412:34543   */\n      tag_513\n      jump\t// in\n    tag_814:\n        /* \"#utility.yul\":34404:34543   */\n      swap1\n      pop\n        /* \"#utility.yul\":34131:34550   */\n      swap2\n      swap1\n      pop\n      jump\t// out\n        /* \"#utility.yul\":34556:34722   */\n    tag_514:\n        /* \"#utility.yul\":34696:34714   */\n      0x5061757361626c653a2070617573656400000000000000000000000000000000\n        /* \"#utility.yul\":34692:34693   */\n      0x00\n        /* \"#utility.yul\":34684:34690   */\n      dup3\n        /* \"#utility.yul\":34680:34694   */\n      add\n        /* \"#utility.yul\":34673:34715   */\n      mstore\n        /* \"#utility.yul\":34556:34722   */\n      pop\n      jump\t// out\n        /* \"#utility.yul\":34728:35094   */\n    tag_515:\n        /* \"#utility.yul\":34870:34873   */\n      0x00\n        /* \"#utility.yul\":34891:34958   */\n      tag_817\n        /* \"#utility.yul\":34955:34957   */\n      0x10\n        /* \"#utility.yul\":34950:34953   */\n      dup4\n        /* \"#utility.yul\":34891:34958   */\n      tag_459\n      jump\t// in\n    tag_817:\n        /* \"#utility.yul\":34884:34958   */\n      swap2\n      pop\n        /* \"#utility.yul\":34967:35060   */\n      tag_818\n        /* \"#utility.yul\":35056:35059   */\n      dup3\n        /* \"#utility.yul\":34967:35060   */\n      tag_514\n      jump\t// in\n    tag_818:\n        /* \"#utility.yul\":35085:35087   */\n      0x20\n        /* \"#utility.yul\":35080:35083   */\n      dup3\n        /* \"#utility.yul\":35076:35088   */\n      add\n        /* \"#utility.yul\":35069:35088   */\n      swap1\n      pop\n        /* \"#utility.yul\":34728:35094   */\n      swap2\n      swap1\n      pop\n      jump\t// out\n        /* \"#utility.yul\":35100:35519   */\n    tag_405:\n        /* \"#utility.yul\":35266:35270   */\n      0x00\n        /* \"#utility.yul\":35304:35306   */\n      0x20\n        /* \"#utility.yul\":35293:35302   */\n      dup3\n        /* \"#utility.yul\":35289:35307   */\n      add\n        /* \"#utility.yul\":35281:35307   */\n      swap1\n      pop\n        /* \"#utility.yul\":35353:35362   */\n      dup2\n        /* \"#utility.yul\":35347:35351   */\n      dup2\n        /* \"#utility.yul\":35343:35363   */\n      sub\n        /* \"#utility.yul\":35339:35340   */\n      0x00\n        /* \"#utility.yul\":35328:35337   */\n      dup4\n        /* \"#utility.yul\":35324:35341   */\n      add\n        /* \"#utility.yul\":35317:35364   */\n      mstore\n        /* \"#utility.yul\":35381:35512   */\n      tag_820\n        /* \"#utility.yul\":35507:35511   */\n      dup2\n        /* \"#utility.yul\":35381:35512   */\n      tag_515\n      jump\t// in\n    tag_820:\n        /* \"#utility.yul\":35373:35512   */\n      swap1\n      pop\n        /* \"#utility.yul\":35100:35519   */\n      swap2\n      swap1\n      pop\n      jump\t// out\n        /* \"#utility.yul\":35525:35642   */\n    tag_516:\n        /* \"#utility.yul\":35634:35635   */\n      0x00\n        /* \"#utility.yul\":35631:35632   */\n      dup1\n        /* \"#utility.yul\":35624:35636   */\n      revert\n        /* \"#utility.yul\":35648:35765   */\n    tag_517:\n        /* \"#utility.yul\":35757:35758   */\n      0x00\n        /* \"#utility.yul\":35754:35755   */\n      dup1\n        /* \"#utility.yul\":35747:35759   */\n      revert\n        /* \"#utility.yul\":35771:35951   */\n    tag_518:\n        /* \"#utility.yul\":35819:35896   */\n      0x4e487b7100000000000000000000000000000000000000000000000000000000\n        /* \"#utility.yul\":35816:35817   */\n      0x00\n        /* \"#utility.yul\":35809:35897   */\n      mstore\n        /* \"#utility.yul\":35916:35920   */\n      0x41\n        /* \"#utility.yul\":35913:35914   */\n      0x04\n        /* \"#utility.yul\":35906:35921   */\n      mstore\n        /* \"#utility.yul\":35940:35944   */\n      0x24\n        /* \"#utility.yul\":35937:35938   */\n      0x00\n        /* \"#utility.yul\":35930:35945   */\n      revert\n        /* \"#utility.yul\":35957:36238   */\n    tag_519:\n        /* \"#utility.yul\":36040:36067   */\n      tag_825\n        /* \"#utility.yul\":36062:36066   */\n      dup3\n        /* \"#utility.yul\":36040:36067   */\n      tag_461\n      jump\t// in\n    tag_825:\n        /* \"#utility.yul\":36032:36038   */\n      dup2\n        /* \"#utility.yul\":36028:36068   */\n      add\n        /* \"#utility.yul\":36170:36176   */\n      dup2\n        /* \"#utility.yul\":36158:36168   */\n      dup2\n        /* \"#utility.yul\":36155:36177   */\n      lt\n        /* \"#utility.yul\":36134:36152   */\n      0xffffffffffffffff\n        /* \"#utility.yul\":36122:36132   */\n      dup3\n        /* \"#utility.yul\":36119:36153   */\n      gt\n        /* \"#utility.yul\":36116:36178   */\n      or\n        /* \"#utility.yul\":36113:36201   */\n      iszero\n      tag_826\n      jumpi\n        /* \"#utility.yul\":36181:36199   */\n      tag_827\n      tag_518\n      jump\t// in\n    tag_827:\n        /* \"#utility.yul\":36113:36201   */\n    tag_826:\n        /* \"#utility.yul\":36221:36231   */\n      dup1\n        /* \"#utility.yul\":36217:36219   */\n      0x40\n        /* \"#utility.yul\":36210:36232   */\n      mstore\n        /* \"#utility.yul\":36000:36238   */\n      pop\n        /* \"#utility.yul\":35957:36238   */\n      pop\n      pop\n      jump\t// out\n        /* \"#utility.yul\":36244:36373   */\n    tag_520:\n        /* \"#utility.yul\":36278:36284   */\n      0x00\n        /* \"#utility.yul\":36305:36325   */\n      tag_829\n      tag_444\n      jump\t// in\n    tag_829:\n        /* \"#utility.yul\":36295:36325   */\n      swap1\n      pop\n        /* \"#utility.yul\":36334:36367   */\n      tag_830\n        /* \"#utility.yul\":36362:36366   */\n      dup3\n        /* \"#utility.yul\":36354:36360   */\n      dup3\n        /* \"#utility.yul\":36334:36367   */\n      tag_519\n      jump\t// in\n    tag_830:\n        /* \"#utility.yul\":36244:36373   */\n      swap2\n      swap1\n      pop\n      jump\t// out\n        /* \"#utility.yul\":36379:36687   */\n    tag_521:\n        /* \"#utility.yul\":36441:36445   */\n      0x00\n        /* \"#utility.yul\":36531:36549   */\n      0xffffffffffffffff\n        /* \"#utility.yul\":36523:36529   */\n      dup3\n        /* \"#utility.yul\":36520:36550   */\n      gt\n        /* \"#utility.yul\":36517:36573   */\n      iszero\n      tag_832\n      jumpi\n        /* \"#utility.yul\":36553:36571   */\n      tag_833\n      tag_518\n      jump\t// in\n    tag_833:\n        /* \"#utility.yul\":36517:36573   */\n    tag_832:\n        /* \"#utility.yul\":36591:36620   */\n      tag_834\n        /* \"#utility.yul\":36613:36619   */\n      dup3\n        /* \"#utility.yul\":36591:36620   */\n      tag_461\n      jump\t// in\n    tag_834:\n        /* \"#utility.yul\":36583:36620   */\n      swap1\n      pop\n        /* \"#utility.yul\":36675:36679   */\n      0x20\n        /* \"#utility.yul\":36669:36673   */\n      dup2\n        /* \"#utility.yul\":36665:36680   */\n      add\n        /* \"#utility.yul\":36657:36680   */\n      swap1\n      pop\n        /* \"#utility.yul\":36379:36687   */\n      swap2\n      swap1\n      pop\n      jump\t// out\n        /* \"#utility.yul\":36693:37127   */\n    tag_522:\n        /* \"#utility.yul\":36782:36787   */\n      0x00\n        /* \"#utility.yul\":36807:36873   */\n      tag_836\n        /* \"#utility.yul\":36823:36872   */\n      tag_837\n        /* \"#utility.yul\":36865:36871   */\n      dup5\n        /* \"#utility.yul\":36823:36872   */\n      tag_521\n      jump\t// in\n    tag_837:\n        /* \"#utility.yul\":36807:36873   */\n      tag_520\n      jump\t// in\n    tag_836:\n        /* \"#utility.yul\":36798:36873   */\n      swap1\n      pop\n        /* \"#utility.yul\":36896:36902   */\n      dup3\n        /* \"#utility.yul\":36889:36894   */\n      dup2\n        /* \"#utility.yul\":36882:36903   */\n      mstore\n        /* \"#utility.yul\":36934:36938   */\n      0x20\n        /* \"#utility.yul\":36927:36932   */\n      dup2\n        /* \"#utility.yul\":36923:36939   */\n      add\n        /* \"#utility.yul\":36972:36975   */\n      dup5\n        /* \"#utility.yul\":36963:36969   */\n      dup5\n        /* \"#utility.yul\":36958:36961   */\n      dup5\n        /* \"#utility.yul\":36954:36970   */\n      add\n        /* \"#utility.yul\":36951:36976   */\n      gt\n        /* \"#utility.yul\":36948:37060   */\n      iszero\n      tag_838\n      jumpi\n        /* \"#utility.yul\":36979:37058   */\n      tag_839\n      tag_517\n      jump\t// in\n    tag_839:\n        /* \"#utility.yul\":36948:37060   */\n    tag_838:\n        /* \"#utility.yul\":37069:37121   */\n      tag_840\n        /* \"#utility.yul\":37114:37120   */\n      dup5\n        /* \"#utility.yul\":37109:37112   */\n      dup3\n        /* \"#utility.yul\":37104:37107   */\n      dup6\n        /* \"#utility.yul\":37069:37121   */\n      tag_460\n      jump\t// in\n    tag_840:\n        /* \"#utility.yul\":36788:37127   */\n      pop\n        /* \"#utility.yul\":36693:37127   */\n      swap4\n      swap3\n      pop\n      pop\n      pop\n      jump\t// out\n        /* \"#utility.yul\":37147:37502   */\n    tag_523:\n        /* \"#utility.yul\":37214:37219   */\n      0x00\n        /* \"#utility.yul\":37263:37266   */\n      dup3\n        /* \"#utility.yul\":37256:37260   */\n      0x1f\n        /* \"#utility.yul\":37248:37254   */\n      dup4\n        /* \"#utility.yul\":37244:37261   */\n      add\n        /* \"#utility.yul\":37240:37267   */\n      slt\n        /* \"#utility.yul\":37230:37352   */\n      tag_842\n      jumpi\n        /* \"#utility.yul\":37271:37350   */\n      tag_843\n      tag_516\n      jump\t// in\n    tag_843:\n        /* \"#utility.yul\":37230:37352   */\n    tag_842:\n        /* \"#utility.yul\":37381:37387   */\n      dup2\n        /* \"#utility.yul\":37375:37388   */\n      mload\n        /* \"#utility.yul\":37406:37496   */\n      tag_844\n        /* \"#utility.yul\":37492:37495   */\n      dup5\n        /* \"#utility.yul\":37484:37490   */\n      dup3\n        /* \"#utility.yul\":37477:37481   */\n      0x20\n        /* \"#utility.yul\":37469:37475   */\n      dup7\n        /* \"#utility.yul\":37465:37482   */\n      add\n        /* \"#utility.yul\":37406:37496   */\n      tag_522\n      jump\t// in\n    tag_844:\n        /* \"#utility.yul\":37397:37496   */\n      swap2\n      pop\n        /* \"#utility.yul\":37220:37502   */\n      pop\n        /* \"#utility.yul\":37147:37502   */\n      swap3\n      swap2\n      pop\n      pop\n      jump\t// out\n        /* \"#utility.yul\":37508:38501   */\n    tag_425:\n        /* \"#utility.yul\":37615:37621   */\n      0x00\n        /* \"#utility.yul\":37623:37629   */\n      dup1\n        /* \"#utility.yul\":37631:37637   */\n      0x00\n        /* \"#utility.yul\":37639:37645   */\n      dup1\n        /* \"#utility.yul\":37688:37691   */\n      0x80\n        /* \"#utility.yul\":37676:37685   */\n      dup6\n        /* \"#utility.yul\":37667:37674   */\n      dup8\n        /* \"#utility.yul\":37663:37686   */\n      sub\n        /* \"#utility.yul\":37659:37692   */\n      slt\n        /* \"#utility.yul\":37656:37776   */\n      iszero\n      tag_846\n      jumpi\n        /* \"#utility.yul\":37695:37774   */\n      tag_847\n      tag_445\n      jump\t// in\n    tag_847:\n        /* \"#utility.yul\":37656:37776   */\n    tag_846:\n        /* \"#utility.yul\":37815:37816   */\n      0x00\n        /* \"#utility.yul\":37840:37904   */\n      tag_848\n        /* \"#utility.yul\":37896:37903   */\n      dup8\n        /* \"#utility.yul\":37887:37893   */\n      dup3\n        /* \"#utility.yul\":37876:37885   */\n      dup9\n        /* \"#utility.yul\":37872:37894   */\n      add\n        /* \"#utility.yul\":37840:37904   */\n      tag_490\n      jump\t// in\n    tag_848:\n        /* \"#utility.yul\":37830:37904   */\n      swap5\n      pop\n        /* \"#utility.yul\":37786:37914   */\n      pop\n        /* \"#utility.yul\":37953:37955   */\n      0x20\n        /* \"#utility.yul\":37979:38043   */\n      tag_849\n        /* \"#utility.yul\":38035:38042   */\n      dup8\n        /* \"#utility.yul\":38026:38032   */\n      dup3\n        /* \"#utility.yul\":38015:38024   */\n      dup9\n        /* \"#utility.yul\":38011:38033   */\n      add\n        /* \"#utility.yul\":37979:38043   */\n      tag_490\n      jump\t// in\n    tag_849:\n        /* \"#utility.yul\":37969:38043   */\n      swap4\n      pop\n        /* \"#utility.yul\":37924:38053   */\n      pop\n        /* \"#utility.yul\":38113:38115   */\n      0x40\n        /* \"#utility.yul\":38102:38111   */\n      dup6\n        /* \"#utility.yul\":38098:38116   */\n      add\n        /* \"#utility.yul\":38092:38117   */\n      mload\n        /* \"#utility.yul\":38144:38162   */\n      0xffffffffffffffff\n        /* \"#utility.yul\":38136:38142   */\n      dup2\n        /* \"#utility.yul\":38133:38163   */\n      gt\n        /* \"#utility.yul\":38130:38247   */\n      iszero\n      tag_850\n      jumpi\n        /* \"#utility.yul\":38166:38245   */\n      tag_851\n      tag_446\n      jump\t// in\n    tag_851:\n        /* \"#utility.yul\":38130:38247   */\n    tag_850:\n        /* \"#utility.yul\":38271:38345   */\n      tag_852\n        /* \"#utility.yul\":38337:38344   */\n      dup8\n        /* \"#utility.yul\":38328:38334   */\n      dup3\n        /* \"#utility.yul\":38317:38326   */\n      dup9\n        /* \"#utility.yul\":38313:38335   */\n      add\n        /* \"#utility.yul\":38271:38345   */\n      tag_523\n      jump\t// in\n    tag_852:\n        /* \"#utility.yul\":38261:38345   */\n      swap3\n      pop\n        /* \"#utility.yul\":38063:38355   */\n      pop\n        /* \"#utility.yul\":38394:38396   */\n      0x60\n        /* \"#utility.yul\":38420:38484   */\n      tag_853\n        /* \"#utility.yul\":38476:38483   */\n      dup8\n        /* \"#utility.yul\":38467:38473   */\n      dup3\n        /* \"#utility.yul\":38456:38465   */\n      dup9\n        /* \"#utility.yul\":38452:38474   */\n      add\n        /* \"#utility.yul\":38420:38484   */\n      tag_490\n      jump\t// in\n    tag_853:\n        /* \"#utility.yul\":38410:38484   */\n      swap2\n      pop\n        /* \"#utility.yul\":38365:38494   */\n      pop\n        /* \"#utility.yul\":37508:38501   */\n      swap3\n      swap6\n      swap2\n      swap5\n      pop\n      swap3\n      pop\n      jump\t// out\n        /* \"#utility.yul\":38507:38680   */\n    tag_524:\n        /* \"#utility.yul\":38647:38672   */\n      0x4e6f20746f6b656e7320746f206265206275726e656421000000000000000000\n        /* \"#utility.yul\":38643:38644   */\n      0x00\n        /* \"#utility.yul\":38635:38641   */\n      dup3\n        /* \"#utility.yul\":38631:38645   */\n      add\n        /* \"#utility.yul\":38624:38673   */\n      mstore\n        /* \"#utility.yul\":38507:38680   */\n      pop\n      jump\t// out\n        /* \"#utility.yul\":38686:39052   */\n    tag_525:\n        /* \"#utility.yul\":38828:38831   */\n      0x00\n        /* \"#utility.yul\":38849:38916   */\n      tag_856\n        /* \"#utility.yul\":38913:38915   */\n      0x17\n        /* \"#utility.yul\":38908:38911   */\n      dup4\n        /* \"#utility.yul\":38849:38916   */\n      tag_459\n      jump\t// in\n    tag_856:\n        /* \"#utility.yul\":38842:38916   */\n      swap2\n      pop\n        /* \"#utility.yul\":38925:39018   */\n      tag_857\n        /* \"#utility.yul\":39014:39017   */\n      dup3\n        /* \"#utility.yul\":38925:39018   */\n      tag_524\n      jump\t// in\n    tag_857:\n        /* \"#utility.yul\":39043:39045   */\n      0x20\n        /* \"#utility.yul\":39038:39041   */\n      dup3\n        /* \"#utility.yul\":39034:39046   */\n      add\n        /* \"#utility.yul\":39027:39046   */\n      swap1\n      pop\n        /* \"#utility.yul\":38686:39052   */\n      swap2\n      swap1\n      pop\n      jump\t// out\n        /* \"#utility.yul\":39058:39477   */\n    tag_433:\n        /* \"#utility.yul\":39224:39228   */\n      0x00\n        /* \"#utility.yul\":39262:39264   */\n      0x20\n        /* \"#utility.yul\":39251:39260   */\n      dup3\n        /* \"#utility.yul\":39247:39265   */\n      add\n        /* \"#utility.yul\":39239:39265   */\n      swap1\n      pop\n        /* \"#utility.yul\":39311:39320   */\n      dup2\n        /* \"#utility.yul\":39305:39309   */\n      dup2\n        /* \"#utility.yul\":39301:39321   */\n      sub\n        /* \"#utility.yul\":39297:39298   */\n      0x00\n        /* \"#utility.yul\":39286:39295   */\n      dup4\n        /* \"#utility.yul\":39282:39299   */\n      add\n        /* \"#utility.yul\":39275:39322   */\n      mstore\n        /* \"#utility.yul\":39339:39470   */\n      tag_859\n        /* \"#utility.yul\":39465:39469   */\n      dup2\n        /* \"#utility.yul\":39339:39470   */\n      tag_525\n      jump\t// in\n    tag_859:\n        /* \"#utility.yul\":39331:39470   */\n      swap1\n      pop\n        /* \"#utility.yul\":39058:39477   */\n      swap2\n      swap1\n      pop\n      jump\t// out\n\n    auxdata: 0xa2646970667358221220c1a6b228238816bedc021747c6569a6e90ee9b145f9e5adf134be50ead324fa964736f6c63430008170033\n}\n",
				"bytecode": {
					"linkReferences": {},
					"object": "60c060405260018060146101000a81548160ff02191690831515021790555060006002556000600355600060045560006005553480156200003f57600080fd5b506040516200449b3803806200449b8339818101604052810190620000659190620002e1565b60008060006101000a81548160ff0219169083151502179055506200009f620000936200019b60201b60201c565b620001a360201b60201c565b8073ffffffffffffffffffffffffffffffffffffffff1660808173ffffffffffffffffffffffffffffffffffffffff16815250508173ffffffffffffffffffffffffffffffffffffffff1660a08173ffffffffffffffffffffffffffffffffffffffff168152505060a05173ffffffffffffffffffffffffffffffffffffffff166395d89b416040518163ffffffff1660e01b81526004016000604051808303816000875af115801562000157573d6000803e3d6000fd5b505050506040513d6000823e3d601f19601f82011682018060405250810190620001829190620004a7565b6006908162000192919062000743565b5050506200082a565b600033905090565b60008060019054906101000a900473ffffffffffffffffffffffffffffffffffffffff16905081600060016101000a81548173ffffffffffffffffffffffffffffffffffffffff021916908373ffffffffffffffffffffffffffffffffffffffff1602179055508173ffffffffffffffffffffffffffffffffffffffff168173ffffffffffffffffffffffffffffffffffffffff167f8be0079c531659141344cd1fd0a4f28419497f9722a3daafe3b4186f6b6457e060405160405180910390a35050565b6000604051905090565b600080fd5b600080fd5b600073ffffffffffffffffffffffffffffffffffffffff82169050919050565b6000620002a9826200027c565b9050919050565b620002bb816200029c565b8114620002c757600080fd5b50565b600081519050620002db81620002b0565b92915050565b60008060408385031215620002fb57620002fa62000272565b5b60006200030b85828601620002ca565b92505060206200031e85828601620002ca565b9150509250929050565b600080fd5b600080fd5b6000601f19601f8301169050919050565b7f4e487b7100000000000000000000000000000000000000000000000000000000600052604160045260246000fd5b6200037d8262000332565b810181811067ffffffffffffffff821117156200039f576200039e62000343565b5b80604052505050565b6000620003b462000268565b9050620003c2828262000372565b919050565b600067ffffffffffffffff821115620003e557620003e462000343565b5b620003f08262000332565b9050602081019050919050565b60005b838110156200041d57808201518184015260208101905062000400565b60008484015250505050565b6000620004406200043a84620003c7565b620003a8565b9050828152602081018484840111156200045f576200045e6200032d565b5b6200046c848285620003fd565b509392505050565b600082601f8301126200048c576200048b62000328565b5b81516200049e84826020860162000429565b91505092915050565b600060208284031215620004c057620004bf62000272565b5b600082015167ffffffffffffffff811115620004e157620004e062000277565b5b620004ef8482850162000474565b91505092915050565b600081519050919050565b7f4e487b7100000000000000000000000000000000000000000000000000000000600052602260045260246000fd5b600060028204905060018216806200054b57607f821691505b60208210810362000561576200056062000503565b5b50919050565b60008190508160005260206000209050919050565b60006020601f8301049050919050565b600082821b905092915050565b600060088302620005cb7fffffffffffffffffffffffffffffffffffffffffffffffffffffffffffffffff826200058c565b620005d786836200058c565b95508019841693508086168417925050509392505050565b6000819050919050565b6000819050919050565b6000620006246200061e6200061884620005ef565b620005f9565b620005ef565b9050919050565b6000819050919050565b620006408362000603565b620006586200064f826200062b565b84845462000599565b825550505050565b600090565b6200066f62000660565b6200067c81848462000635565b505050565b5b81811015620006a4576200069860008262000665565b60018101905062000682565b5050565b601f821115620006f357620006bd8162000567565b620006c8846200057c565b81016020851015620006d8578190505b620006f0620006e7856200057c565b83018262000681565b50505b505050565b600082821c905092915050565b60006200071860001984600802620006f8565b1980831691505092915050565b600062000733838362000705565b9150826002028217905092915050565b6200074e82620004f8565b67ffffffffffffffff8111156200076a576200076962000343565b5b62000776825462000532565b62000783828285620006a8565b600060209050601f831160018114620007bb5760008415620007a6578287015190505b620007b2858262000725565b86555062000822565b601f198416620007cb8662000567565b60005b82811015620007f557848901518255600182019150602085019450602081019050620007ce565b8683101562000815578489015162000811601f89168262000705565b8355505b6001600288020188555050505b505050505050565b60805160a051613c286200087360003960008181611065015281816116b201528181611c5401528181611d5901526126b801526000818161097a015261187b0152613c286000f3fe608060405234801561001057600080fd5b50600436106101a85760003560e01c8063722713f7116100f9578063b99152d011610097578063e808876611610071578063e808876614610416578063ed969c8414610420578063f2fde38b14610450578063f98509071461046c576101a8565b8063b99152d0146103aa578063ba007e75146103da578063e6367ebe146103f8576101a8565b8063a24723e8116100d3578063a24723e814610333578063a684ab5c14610351578063abb1dc441461036f578063b0b5e39e1461038e576101a8565b8063722713f7146102c75780637754723e146102e55780638da5cb5b14610315576101a8565b80630f15f4c01161016657806351b42b001161014057806351b42b00146102655780635c975abb1461026f5780636a9d43dd1461028d578063715018a6146102bd576101a8565b80630f15f4c0146102335780632af0e2511461023d578063390885f71461025b576101a8565b8062f714ce146101ad578063046f7da2146101c957806307da68f5146101d357806308fadcb0146101dd5780630a6cb062146101fb5780630ba2f1d814610217575b600080fd5b6101c760048036038101906101c29190612841565b61048a565b005b6101d16105b7565b005b6101db6105d1565b005b6101e56105eb565b6040516101f29190612890565b60405180910390f35b610215600480360381019061021091906128ab565b6106a5565b005b610231600480360381019061022c91906128ab565b61072a565b005b61023b610959565b005b610245610b33565b60405161025291906128e7565b60405180910390f35b610263610c9a565b005b61026d610d98565b005b610277610f53565b604051610284919061291d565b60405180910390f35b6102a760048036038101906102a29190612938565b610f69565b6040516102b4919061291d565b60405180910390f35b6102c5611045565b005b6102cf611059565b6040516102dc91906128e7565b60405180910390f35b6102ff60048036038101906102fa919061298b565b611102565b60405161030c91906128e7565b60405180910390f35b61031d6112e8565b60405161032a9190612890565b60405180910390f35b61033b611311565b60405161034891906128e7565b60405180910390f35b610359611478565b60405161036691906128e7565b60405180910390f35b6103776115df565b604051610385929190612a6e565b60405180910390f35b6103a860048036038101906103a391906128ab565b611767565b005b6103c460048036038101906103bf91906128ab565b6117ec565b6040516103d191906128e7565b60405180910390f35b6103e2611877565b6040516103ef9190612890565b60405180910390f35b61040061189f565b60405161040d9190612a9e565b60405180910390f35b61041e61193f565b005b61043a60048036038101906104359190612ac0565b611ae2565b604051610447919061291d565b60405180910390f35b61046a600480360381019061046591906128ab565b611f09565b005b610474611f8c565b60405161048191906128e7565b60405180910390f35b6104926120f3565b6005546004546104a29190612b1c565b82111560066040516020016104b79190612cc5565b60405160208183030381529060405290610507576040517f08c379a00000000000000000000000000000000000000000000000000000000081526004016104fe9190612a9e565b60405180910390fd5b506000821161054b576040517f08c379a000000000000000000000000000000000000000000000000000000000815260040161054290612d59565b60405180910390fd5b816005600082825461055d9190612d79565b925050819055508073ffffffffffffffffffffffffffffffffffffffff16427f71ef96c43343734b1d843bb85d52ef329f5e9143e4d35827771e3b0dd90c5f84846040516105ab91906128e7565b60405180910390a35050565b6105bf612171565b6105c76120f3565b6105cf6121ba565b565b6105d961221c565b6105e16120f3565b6105e9612266565b565b60008073ffffffffffffffffffffffffffffffffffffffff16600160009054906101000a900473ffffffffffffffffffffffffffffffffffffffff1673ffffffffffffffffffffffffffffffffffffffff160361067d576040517f08c379a000000000000000000000000000000000000000000000000000000000815260040161067490612df9565b60405180910390fd5b600160009054906101000a900473ffffffffffffffffffffffffffffffffffffffff16905090565b6106ad6120f3565b600073ffffffffffffffffffffffffffffffffffffffff168173ffffffffffffffffffffffffffffffffffffffff16036106e657600080fd5b80600760006101000a81548173ffffffffffffffffffffffffffffffffffffffff021916908373ffffffffffffffffffffffffffffffffffffffff16021790555050565b600073ffffffffffffffffffffffffffffffffffffffff16600160009054906101000a900473ffffffffffffffffffffffffffffffffffffffff1673ffffffffffffffffffffffffffffffffffffffff16036107bb576040517f08c379a00000000000000000000000000000000000000000000000000000000081526004016107b290612df9565b60405180910390fd5b600160009054906101000a900473ffffffffffffffffffffffffffffffffffffffff1673ffffffffffffffffffffffffffffffffffffffff163373ffffffffffffffffffffffffffffffffffffffff161461084b576040517f08c379a000000000000000000000000000000000000000000000000000000000815260040161084290612e65565b60405180910390fd5b600073ffffffffffffffffffffffffffffffffffffffff16600160009054906101000a900473ffffffffffffffffffffffffffffffffffffffff1673ffffffffffffffffffffffffffffffffffffffff16036108dc576040517f08c379a00000000000000000000000000000000000000000000000000000000081526004016108d390612df9565b60405180910390fd5b600073ffffffffffffffffffffffffffffffffffffffff168173ffffffffffffffffffffffffffffffffffffffff160361091557600080fd5b80600160006101000a81548173ffffffffffffffffffffffffffffffffffffffff021916908373ffffffffffffffffffffffffffffffffffffffff16021790555050565b61096161221c565b3373ffffffffffffffffffffffffffffffffffffffff167f000000000000000000000000000000000000000000000000000000000000000073ffffffffffffffffffffffffffffffffffffffff16146109ef576040517f08c379a00000000000000000000000000000000000000000000000000000000081526004016109e690612ef7565b60405180910390fd5b600073ffffffffffffffffffffffffffffffffffffffff16600160009054906101000a900473ffffffffffffffffffffffffffffffffffffffff1673ffffffffffffffffffffffffffffffffffffffff1614610a80576040517f08c379a0000000000000000000000000000000000000000000000000000000008152600401610a7790612f63565b60405180910390fd5b33600160006101000a81548173ffffffffffffffffffffffffffffffffffffffff021916908373ffffffffffffffffffffffffffffffffffffffff160217905550600160009054906101000a900473ffffffffffffffffffffffffffffffffffffffff1673ffffffffffffffffffffffffffffffffffffffff167ffbd0a3f6e9a0dd5f834515748047e83de8064477489a0a0d6b59c64bbecc992a42604051610b2991906128e7565b60405180910390a2565b60008073ffffffffffffffffffffffffffffffffffffffff16600160009054906101000a900473ffffffffffffffffffffffffffffffffffffffff1673ffffffffffffffffffffffffffffffffffffffff1603610bc5576040517f08c379a0000000000000000000000000000000000000000000000000000000008152600401610bbc90612df9565b60405180910390fd5b600160009054906101000a900473ffffffffffffffffffffffffffffffffffffffff1673ffffffffffffffffffffffffffffffffffffffff163373ffffffffffffffffffffffffffffffffffffffff161480610c535750610c246112e8565b73ffffffffffffffffffffffffffffffffffffffff163373ffffffffffffffffffffffffffffffffffffffff16145b610c92576040517f08c379a0000000000000000000000000000000000000000000000000000000008152600401610c8990612ff5565b60405180910390fd5b600254905090565b610ca26120f3565b600060055411610ce7576040517f08c379a0000000000000000000000000000000000000000000000000000000008152600401610cde90613061565b60405180910390fd5b6000600554600454610cf99190612b1c565b11610d39576040517f08c379a0000000000000000000000000000000000000000000000000000000008152600401610d30906130cd565b60405180910390fd5b60055460046000828254610d4d9190612b1c565b925050819055506000600581905550427f0e727ee3674546d683a39c7087ab966177f70026adb7d4fdefaef2bf0bb29a46600554604051610d8e91906128e7565b60405180910390a2565b600073ffffffffffffffffffffffffffffffffffffffff16600160009054906101000a900473ffffffffffffffffffffffffffffffffffffffff1673ffffffffffffffffffffffffffffffffffffffff1603610e29576040517f08c379a0000000000000000000000000000000000000000000000000000000008152600401610e2090612df9565b60405180910390fd5b600160009054906101000a900473ffffffffffffffffffffffffffffffffffffffff1673ffffffffffffffffffffffffffffffffffffffff163373ffffffffffffffffffffffffffffffffffffffff1614610eb9576040517f08c379a0000000000000000000000000000000000000000000000000000000008152600401610eb090612e65565b60405180910390fd5b610ec161221c565b6000600160006101000a81548173ffffffffffffffffffffffffffffffffffffffff021916908373ffffffffffffffffffffffffffffffffffffffff1602179055503373ffffffffffffffffffffffffffffffffffffffff167f13b865880a841dc469b629159fa1e730fee99568b0decc6737fd688b3624638142604051610f4991906128e7565b60405180910390a2565b60008060009054906101000a900460ff16905090565b6000610f736120f3565b81610f7d856117ec565b1015610fbe576040517f08c379a0000000000000000000000000000000000000000000000000000000008152600401610fb590613139565b60405180910390fd5b8373ffffffffffffffffffffffffffffffffffffffff1663a9059cbb84846040518363ffffffff1660e01b8152600401610ff9929190613159565b6020604051808303816000875af1158015611018573d6000803e3d6000fd5b505050506040513d601f19601f8201168201806040525081019061103c91906131ae565b90509392505050565b61104d6120f3565b61105760006122c8565b565b60006110636120f3565b7f000000000000000000000000000000000000000000000000000000000000000073ffffffffffffffffffffffffffffffffffffffff166370a08231306040518263ffffffff1660e01b81526004016110bc9190612890565b602060405180830381865afa1580156110d9573d6000803e3d6000fd5b505050506040513d601f19601f820116820180604052508101906110fd91906131f0565b905090565b60008073ffffffffffffffffffffffffffffffffffffffff16600160009054906101000a900473ffffffffffffffffffffffffffffffffffffffff1673ffffffffffffffffffffffffffffffffffffffff1603611194576040517f08c379a000000000000000000000000000000000000000000000000000000000815260040161118b90612df9565b60405180910390fd5b600160009054906101000a900473ffffffffffffffffffffffffffffffffffffffff1673ffffffffffffffffffffffffffffffffffffffff163373ffffffffffffffffffffffffffffffffffffffff16148061122257506111f36112e8565b73ffffffffffffffffffffffffffffffffffffffff163373ffffffffffffffffffffffffffffffffffffffff16145b611261576040517f08c379a000000000000000000000000000000000000000000000000000000000815260040161125890612ff5565b60405180910390fd5b6000831180156112715750600084115b801561127d5750600082115b6112bc576040517f08c379a00000000000000000000000000000000000000000000000000000000081526004016112b39061328f565b60405180910390fd5b8282600a6112ca91906133e2565b856112d5919061342d565b6112df919061349e565b90509392505050565b60008060019054906101000a900473ffffffffffffffffffffffffffffffffffffffff16905090565b60008073ffffffffffffffffffffffffffffffffffffffff16600160009054906101000a900473ffffffffffffffffffffffffffffffffffffffff1673ffffffffffffffffffffffffffffffffffffffff16036113a3576040517f08c379a000000000000000000000000000000000000000000000000000000000815260040161139a90612df9565b60405180910390fd5b600160009054906101000a900473ffffffffffffffffffffffffffffffffffffffff1673ffffffffffffffffffffffffffffffffffffffff163373ffffffffffffffffffffffffffffffffffffffff16148061143157506114026112e8565b73ffffffffffffffffffffffffffffffffffffffff163373ffffffffffffffffffffffffffffffffffffffff16145b611470576040517f08c379a000000000000000000000000000000000000000000000000000000000815260040161146790612ff5565b60405180910390fd5b600554905090565b60008073ffffffffffffffffffffffffffffffffffffffff16600160009054906101000a900473ffffffffffffffffffffffffffffffffffffffff1673ffffffffffffffffffffffffffffffffffffffff160361150a576040517f08c379a000000000000000000000000000000000000000000000000000000000815260040161150190612df9565b60405180910390fd5b600160009054906101000a900473ffffffffffffffffffffffffffffffffffffffff1673ffffffffffffffffffffffffffffffffffffffff163373ffffffffffffffffffffffffffffffffffffffff16148061159857506115696112e8565b73ffffffffffffffffffffffffffffffffffffffff163373ffffffffffffffffffffffffffffffffffffffff16145b6115d7576040517f08c379a00000000000000000000000000000000000000000000000000000000081526004016115ce90612ff5565b60405180910390fd5b600354905090565b60006060600160009054906101000a900473ffffffffffffffffffffffffffffffffffffffff1673ffffffffffffffffffffffffffffffffffffffff163373ffffffffffffffffffffffffffffffffffffffff16148061167157506116426112e8565b73ffffffffffffffffffffffffffffffffffffffff163373ffffffffffffffffffffffffffffffffffffffff16145b6116b0576040517f08c379a00000000000000000000000000000000000000000000000000000000081526004016116a790612ff5565b60405180910390fd5b7f000000000000000000000000000000000000000000000000000000000000000060068080546116df90612bfc565b80601f016020809104026020016040519081016040528092919081815260200182805461170b90612bfc565b80156117585780601f1061172d57610100808354040283529160200191611758565b820191906000526020600020905b81548152906001019060200180831161173b57829003601f168201915b50505050509050915091509091565b61176f6120f3565b600073ffffffffffffffffffffffffffffffffffffffff168173ffffffffffffffffffffffffffffffffffffffff16036117a857600080fd5b80600860006101000a81548173ffffffffffffffffffffffffffffffffffffffff021916908373ffffffffffffffffffffffffffffffffffffffff16021790555050565b60006117f66120f3565b8173ffffffffffffffffffffffffffffffffffffffff166370a08231306040518263ffffffff1660e01b815260040161182f9190612890565b602060405180830381865afa15801561184c573d6000803e3d6000fd5b505050506040513d601f19601f8201168201806040525081019061187091906131f0565b9050919050565b60007f0000000000000000000000000000000000000000000000000000000000000000905090565b60606118a96120f3565b6060600160149054906101000a900460ff166118fd576040518060400160405280600c81526020017f41676772656761746f7256330000000000000000000000000000000000000000815250905080611937565b6040518060400160405280600481526020017f506f6f6c000000000000000000000000000000000000000000000000000000008152509050805b508091505090565b6119476120f3565b600160149054906101000a900460ff1615611a0b57600160149054906101000a900460ff1680156119c75750600073ffffffffffffffffffffffffffffffffffffffff16600760009054906101000a900473ffffffffffffffffffffffffffffffffffffffff1673ffffffffffffffffffffffffffffffffffffffff1614155b611a06576040517f08c379a00000000000000000000000000000000000000000000000000000000081526004016119fd90613541565b60405180910390fd5b611ab6565b600160149054906101000a900460ff168015611a765750600073ffffffffffffffffffffffffffffffffffffffff16600860009054906101000a900473ffffffffffffffffffffffffffffffffffffffff1673ffffffffffffffffffffffffffffffffffffffff1614155b611ab5576040517f08c379a0000000000000000000000000000000000000000000000000000000008152600401611aac906135ad565b60405180910390fd5b5b600160149054906101000a900460ff1615600160146101000a81548160ff021916908315150217905550565b6000611aec61221c565b600073ffffffffffffffffffffffffffffffffffffffff16600160009054906101000a900473ffffffffffffffffffffffffffffffffffffffff1673ffffffffffffffffffffffffffffffffffffffff1603611b7d576040517f08c379a0000000000000000000000000000000000000000000000000000000008152600401611b7490612df9565b60405180910390fd5b600160009054906101000a900473ffffffffffffffffffffffffffffffffffffffff1673ffffffffffffffffffffffffffffffffffffffff163373ffffffffffffffffffffffffffffffffffffffff1614611c0d576040517f08c379a0000000000000000000000000000000000000000000000000000000008152600401611c0490612e65565b60405180910390fd5b60008211611c50576040517f08c379a0000000000000000000000000000000000000000000000000000000008152600401611c4790613619565b60405180910390fd5b60007f000000000000000000000000000000000000000000000000000000000000000073ffffffffffffffffffffffffffffffffffffffff1663dd62ed3e33306040518363ffffffff1660e01b8152600401611cad929190613639565b602060405180830381865afa158015611cca573d6000803e3d6000fd5b505050506040513d601f19601f82011682018060405250810190611cee91906131f0565b9050828110156006604051602001611d0691906136d4565b60405160208183030381529060405290611d56576040517f08c379a0000000000000000000000000000000000000000000000000000000008152600401611d4d9190612a9e565b60405180910390fd5b507f000000000000000000000000000000000000000000000000000000000000000073ffffffffffffffffffffffffffffffffffffffff166323b872dd3330866040518463ffffffff1660e01b8152600401611db493929190613718565b6020604051808303816000875af1158015611dd3573d6000803e3d6000fd5b505050506040513d601f19601f82011682018060405250810190611df791906131ae565b50600080600080611e0661238d565b9350935093509350600084118015611e1e5750600083115b8015611e2a5750600081115b611e69576040517f08c379a0000000000000000000000000000000000000000000000000000000008152600401611e609061379b565b60405180910390fd5b611e7287612672565b506000611e80888686612763565b90508060046000828254611e949190612d79565b925050819055508060036000828254611ead9190612d79565b9250508190555060004290508089837fb5aeb7b225999adc33232be2121afb1a366c15108c1da745d17fd76108172fe48989888a604051611ef194939291906137bb565b60405180910390a46001975050505050505050919050565b611f116120f3565b600073ffffffffffffffffffffffffffffffffffffffff168173ffffffffffffffffffffffffffffffffffffffff1603611f80576040517f08c379a0000000000000000000000000000000000000000000000000000000008152600401611f7790613879565b60405180910390fd5b611f89816122c8565b50565b60008073ffffffffffffffffffffffffffffffffffffffff16600160009054906101000a900473ffffffffffffffffffffffffffffffffffffffff1673ffffffffffffffffffffffffffffffffffffffff160361201e576040517f08c379a000000000000000000000000000000000000000000000000000000000815260040161201590612df9565b60405180910390fd5b600160009054906101000a900473ffffffffffffffffffffffffffffffffffffffff1673ffffffffffffffffffffffffffffffffffffffff163373ffffffffffffffffffffffffffffffffffffffff1614806120ac575061207d6112e8565b73ffffffffffffffffffffffffffffffffffffffff163373ffffffffffffffffffffffffffffffffffffffff16145b6120eb576040517f08c379a00000000000000000000000000000000000000000000000000000000081526004016120e290612ff5565b60405180910390fd5b600454905090565b6120fb612791565b73ffffffffffffffffffffffffffffffffffffffff166121196112e8565b73ffffffffffffffffffffffffffffffffffffffff161461216f576040517f08c379a0000000000000000000000000000000000000000000000000000000008152600401612166906138e5565b60405180910390fd5b565b612179610f53565b6121b8576040517f08c379a00000000000000000000000000000000000000000000000000000000081526004016121af90613951565b60405180910390fd5b565b6121c2612171565b60008060006101000a81548160ff0219169083151502179055507f5db9ee0a495bf2e6ff9c91a7834c1ba4fdd244a5e8aa4e537bd38aeae4b073aa612205612791565b6040516122129190612890565b60405180910390a1565b612224610f53565b15612264576040517f08c379a000000000000000000000000000000000000000000000000000000000815260040161225b906139bd565b60405180910390fd5b565b61226e61221c565b60016000806101000a81548160ff0219169083151502179055507f62e78cea01bee320cd4e420270b5ea74000d11b0c9f74754ebdbfc544b05a2586122b1612791565b6040516122be9190612890565b60405180910390a1565b60008060019054906101000a900473ffffffffffffffffffffffffffffffffffffffff16905081600060016101000a81548173ffffffffffffffffffffffffffffffffffffffff021916908373ffffffffffffffffffffffffffffffffffffffff1602179055508173ffffffffffffffffffffffffffffffffffffffff168173ffffffffffffffffffffffffffffffffffffffff167f8be0079c531659141344cd1fd0a4f28419497f9722a3daafe3b4186f6b6457e060405160405180910390a35050565b60008060606000600160149054906101000a900460ff161561245857600160149054906101000a900460ff1680156124145750600073ffffffffffffffffffffffffffffffffffffffff16600860009054906101000a900473ffffffffffffffffffffffffffffffffffffffff1673ffffffffffffffffffffffffffffffffffffffff1614155b612453576040517f08c379a000000000000000000000000000000000000000000000000000000000815260040161244a906135ad565b60405180910390fd5b612503565b600160149054906101000a900460ff1680156124c35750600073ffffffffffffffffffffffffffffffffffffffff16600760009054906101000a900473ffffffffffffffffffffffffffffffffffffffff1673ffffffffffffffffffffffffffffffffffffffff1614155b612502576040517f08c379a00000000000000000000000000000000000000000000000000000000081526004016124f990613541565b60405180910390fd5b5b600080600080600160149054906101000a900460ff16156125bb57600860009054906101000a900473ffffffffffffffffffffffffffffffffffffffff1673ffffffffffffffffffffffffffffffffffffffff1663454d12566040518163ffffffff1660e01b81526004016000604051808303816000875af115801561258d573d6000803e3d6000fd5b505050506040513d6000823e3d601f19601f820116820180604052508101906125b69190613b03565b612654565b600760009054906101000a900473ffffffffffffffffffffffffffffffffffffffff1673ffffffffffffffffffffffffffffffffffffffff1663e1e7ff776040518163ffffffff1660e01b81526004016000604051808303816000875af115801561262a573d6000803e3d6000fd5b505050506040513d6000823e3d601f19601f820116820180604052508101906126539190613b03565b5b93509350935093508383838397509750975097505050505090919293565b60008082116126b6576040517f08c379a00000000000000000000000000000000000000000000000000000000081526004016126ad90613bd2565b60405180910390fd5b7f000000000000000000000000000000000000000000000000000000000000000073ffffffffffffffffffffffffffffffffffffffff166342966c68836040518263ffffffff1660e01b815260040161270f91906128e7565b600060405180830381600087803b15801561272957600080fd5b505af115801561273d573d6000803e3d6000fd5b5050505081600260008282546127539190612d79565b9250508190555060019050919050565b600081600a61277291906133e2565b838561277e919061342d565b612788919061349e565b90509392505050565b600033905090565b6000604051905090565b600080fd5b600080fd5b6000819050919050565b6127c0816127ad565b81146127cb57600080fd5b50565b6000813590506127dd816127b7565b92915050565b600073ffffffffffffffffffffffffffffffffffffffff82169050919050565b600061280e826127e3565b9050919050565b61281e81612803565b811461282957600080fd5b50565b60008135905061283b81612815565b92915050565b60008060408385031215612858576128576127a3565b5b6000612866858286016127ce565b92505060206128778582860161282c565b9150509250929050565b61288a81612803565b82525050565b60006020820190506128a56000830184612881565b92915050565b6000602082840312156128c1576128c06127a3565b5b60006128cf8482850161282c565b91505092915050565b6128e1816127ad565b82525050565b60006020820190506128fc60008301846128d8565b92915050565b60008115159050919050565b61291781612902565b82525050565b6000602082019050612932600083018461290e565b92915050565b600080600060608486031215612951576129506127a3565b5b600061295f8682870161282c565b93505060206129708682870161282c565b9250506040612981868287016127ce565b9150509250925092565b6000806000606084860312156129a4576129a36127a3565b5b60006129b2868287016127ce565b93505060206129c3868287016127ce565b92505060406129d4868287016127ce565b9150509250925092565b600081519050919050565b600082825260208201905092915050565b60005b83811015612a185780820151818401526020810190506129fd565b60008484015250505050565b6000601f19601f8301169050919050565b6000612a40826129de565b612a4a81856129e9565b9350612a5a8185602086016129fa565b612a6381612a24565b840191505092915050565b6000604082019050612a836000830185612881565b8181036020830152612a958184612a35565b90509392505050565b60006020820190508181036000830152612ab88184612a35565b905092915050565b600060208284031215612ad657612ad56127a3565b5b6000612ae4848285016127ce565b91505092915050565b7f4e487b7100000000000000000000000000000000000000000000000000000000600052601160045260246000fd5b6000612b27826127ad565b9150612b32836127ad565b9250828203905081811115612b4a57612b49612aed565b5b92915050565b600081905092915050565b7f4e6f7420656e6f75676820706f696e74732e2054686520636f6e74726163742060008201527f6d75737420626520636861726765642077697468206d6f726520000000000000602082015250565b6000612bb7603a83612b50565b9150612bc282612b5b565b603a82019050919050565b7f4e487b7100000000000000000000000000000000000000000000000000000000600052602260045260246000fd5b60006002820490506001821680612c1457607f821691505b602082108103612c2757612c26612bcd565b5b50919050565b60008190508160005260206000209050919050565b60008154612c4f81612bfc565b612c598186612b50565b94506001821660008114612c745760018114612c8957612cbc565b60ff1983168652811515820286019350612cbc565b612c9285612c2d565b60005b83811015612cb457815481890152600182019150602081019050612c95565b838801955050505b50505092915050565b6000612cd082612baa565b9150612cdc8284612c42565b915081905092915050565b7f57697468647261772076616c7565206d7573742062652067726561746572207460008201527f68616e2030000000000000000000000000000000000000000000000000000000602082015250565b6000612d436025836129e9565b9150612d4e82612ce7565b604082019050919050565b60006020820190508181036000830152612d7281612d36565b9050919050565b6000612d84826127ad565b9150612d8f836127ad565b9250828201905080821115612da757612da6612aed565b5b92915050565b7f4e6f74206163746976617465642e000000000000000000000000000000000000600082015250565b6000612de3600e836129e9565b9150612dee82612dad565b602082019050919050565b60006020820190508181036000830152612e1281612dd6565b9050919050565b7f4e6f7420417574686f72697a6564210000000000000000000000000000000000600082015250565b6000612e4f600f836129e9565b9150612e5a82612e19565b602082019050919050565b60006020820190508181036000830152612e7e81612e42565b9050919050565b7f43616e277420616374697661746520776974682074686973206164647265737360008201527f2100000000000000000000000000000000000000000000000000000000000000602082015250565b6000612ee16021836129e9565b9150612eec82612e85565b604082019050919050565b60006020820190508181036000830152612f1081612ed4565b9050919050565b7f416c7265616479206163746976617465642e0000000000000000000000000000600082015250565b6000612f4d6012836129e9565b9150612f5882612f17565b602082019050919050565b60006020820190508181036000830152612f7c81612f40565b9050919050565b7f4f6e6c79204f776e6572206f7220417574686f72697a6564207061727469636960008201527f7061746f72210000000000000000000000000000000000000000000000000000602082015250565b6000612fdf6026836129e9565b9150612fea82612f83565b604082019050919050565b6000602082019050818103600083015261300e81612fd2565b9050919050565b7f4e6f7468696e6720746f2077697468647261772e000000000000000000000000600082015250565b600061304b6014836129e9565b915061305682613015565b602082019050919050565b6000602082019050818103600083015261307a8161303e565b9050919050565b7f4e6f7420656e6f7567682062616c616e636520666f7220776974686472617721600082015250565b60006130b76020836129e9565b91506130c282613081565b602082019050919050565b600060208201905081810360008301526130e6816130aa565b9050919050565b7f4e6f7420656e6f7567682062616c616e63652100000000000000000000000000600082015250565b60006131236013836129e9565b915061312e826130ed565b602082019050919050565b6000602082019050818103600083015261315281613116565b9050919050565b600060408201905061316e6000830185612881565b61317b60208301846128d8565b9392505050565b61318b81612902565b811461319657600080fd5b50565b6000815190506131a881613182565b92915050565b6000602082840312156131c4576131c36127a3565b5b60006131d284828501613199565b91505092915050565b6000815190506131ea816127b7565b92915050565b600060208284031215613206576132056127a3565b5b6000613214848285016131db565b91505092915050565b7f526174652c20706f696e747320616e6420646563696d616c73206d757374206260008201527f652067726561746572207468616e207a65726f00000000000000000000000000602082015250565b60006132796033836129e9565b91506132848261321d565b604082019050919050565b600060208201905081810360008301526132a88161326c565b9050919050565b60008160011c9050919050565b6000808291508390505b6001851115613306578086048111156132e2576132e1612aed565b5b60018516156132f15780820291505b80810290506132ff856132af565b94506132c6565b94509492505050565b60008261331f57600190506133db565b8161332d57600090506133db565b8160018114613343576002811461334d5761337c565b60019150506133db565b60ff84111561335f5761335e612aed565b5b8360020a91508482111561337657613375612aed565b5b506133db565b5060208310610133831016604e8410600b84101617156133b15782820a9050838111156133ac576133ab612aed565b5b6133db565b6133be84848460016132bc565b925090508184048111156133d5576133d4612aed565b5b81810290505b9392505050565b60006133ed826127ad565b91506133f8836127ad565b92506134257fffffffffffffffffffffffffffffffffffffffffffffffffffffffffffffffff848461330f565b905092915050565b6000613438826127ad565b9150613443836127ad565b9250828202613451816127ad565b9150828204841483151761346857613467612aed565b5b5092915050565b7f4e487b7100000000000000000000000000000000000000000000000000000000600052601260045260246000fd5b60006134a9826127ad565b91506134b4836127ad565b9250826134c4576134c361346f565b5b828204905092915050565b7f41676772656761746f72436f6e73756d6572206973206e6f7420696e6974696160008201527f6c697a6564000000000000000000000000000000000000000000000000000000602082015250565b600061352b6025836129e9565b9150613536826134cf565b604082019050919050565b6000602082019050818103600083015261355a8161351e565b9050919050565b7f506f6f6c436f6e73756d6572206973206e6f7420696e697469616c697a656400600082015250565b6000613597601f836129e9565b91506135a282613561565b602082019050919050565b600060208201905081810360008301526135c68161358a565b9050919050565b7f4e6f2063686172676520616d6f756e7421000000000000000000000000000000600082015250565b60006136036011836129e9565b915061360e826135cd565b602082019050919050565b60006020820190508181036000830152613632816135f6565b9050919050565b600060408201905061364e6000830185612881565b61365b6020830184612881565b9392505050565b7f436865636b207468652000000000000000000000000000000000000000000000815250565b7f20746f6b656e2000000000000000000000000000000000000000000000000000815250565b7f616c6c6f77616e63652e00000000000000000000000000000000000000000000815250565b60006136df82613662565b600a820191506136ef8284612c42565b91506136fa82613688565b600782019150613709826136ae565b600a8201915081905092915050565b600060608201905061372d6000830186612881565b61373a6020830185612881565b61374760408301846128d8565b949350505050565b7f72617465206572726f7200000000000000000000000000000000000000000000600082015250565b6000613785600a836129e9565b91506137908261374f565b602082019050919050565b600060208201905081810360008301526137b481613778565b9050919050565b60006080820190506137d060008301876128d8565b6137dd60208301866128d8565b6137ea60408301856128d8565b81810360608301526137fc8184612a35565b905095945050505050565b7f4f776e61626c653a206e6577206f776e657220697320746865207a65726f206160008201527f6464726573730000000000000000000000000000000000000000000000000000602082015250565b60006138636026836129e9565b915061386e82613807565b604082019050919050565b6000602082019050818103600083015261389281613856565b9050919050565b7f4f776e61626c653a2063616c6c6572206973206e6f7420746865206f776e6572600082015250565b60006138cf6020836129e9565b91506138da82613899565b602082019050919050565b600060208201905081810360008301526138fe816138c2565b9050919050565b7f5061757361626c653a206e6f7420706175736564000000000000000000000000600082015250565b600061393b6014836129e9565b915061394682613905565b602082019050919050565b6000602082019050818103600083015261396a8161392e565b9050919050565b7f5061757361626c653a2070617573656400000000000000000000000000000000600082015250565b60006139a76010836129e9565b91506139b282613971565b602082019050919050565b600060208201905081810360008301526139d68161399a565b9050919050565b600080fd5b600080fd5b7f4e487b7100000000000000000000000000000000000000000000000000000000600052604160045260246000fd5b613a1f82612a24565b810181811067ffffffffffffffff82111715613a3e57613a3d6139e7565b5b80604052505050565b6000613a51612799565b9050613a5d8282613a16565b919050565b600067ffffffffffffffff821115613a7d57613a7c6139e7565b5b613a8682612a24565b9050602081019050919050565b6000613aa6613aa184613a62565b613a47565b905082815260208101848484011115613ac257613ac16139e2565b5b613acd8482856129fa565b509392505050565b600082601f830112613aea57613ae96139dd565b5b8151613afa848260208601613a93565b91505092915050565b60008060008060808587031215613b1d57613b1c6127a3565b5b6000613b2b878288016131db565b9450506020613b3c878288016131db565b935050604085015167ffffffffffffffff811115613b5d57613b5c6127a8565b5b613b6987828801613ad5565b9250506060613b7a878288016131db565b91505092959194509250565b7f4e6f20746f6b656e7320746f206265206275726e656421000000000000000000600082015250565b6000613bbc6017836129e9565b9150613bc782613b86565b602082019050919050565b60006020820190508181036000830152613beb81613baf565b905091905056fea2646970667358221220c1a6b228238816bedc021747c6569a6e90ee9b145f9e5adf134be50ead324fa964736f6c63430008170033",
					"opcodes": "PUSH1 0xC0 PUSH1 0x40 MSTORE PUSH1 0x1 DUP1 PUSH1 0x14 PUSH2 0x100 EXP DUP2 SLOAD DUP2 PUSH1 0xFF MUL NOT AND SWAP1 DUP4 ISZERO ISZERO MUL OR SWAP1 SSTORE POP PUSH1 0x0 PUSH1 0x2 SSTORE PUSH1 0x0 PUSH1 0x3 SSTORE PUSH1 0x0 PUSH1 0x4 SSTORE PUSH1 0x0 PUSH1 0x5 SSTORE CALLVALUE DUP1 ISZERO PUSH3 0x3F JUMPI PUSH1 0x0 DUP1 REVERT JUMPDEST POP PUSH1 0x40 MLOAD PUSH3 0x449B CODESIZE SUB DUP1 PUSH3 0x449B DUP4 CODECOPY DUP2 DUP2 ADD PUSH1 0x40 MSTORE DUP2 ADD SWAP1 PUSH3 0x65 SWAP2 SWAP1 PUSH3 0x2E1 JUMP JUMPDEST PUSH1 0x0 DUP1 PUSH1 0x0 PUSH2 0x100 EXP DUP2 SLOAD DUP2 PUSH1 0xFF MUL NOT AND SWAP1 DUP4 ISZERO ISZERO MUL OR SWAP1 SSTORE POP PUSH3 0x9F PUSH3 0x93 PUSH3 0x19B PUSH1 0x20 SHL PUSH1 0x20 SHR JUMP JUMPDEST PUSH3 0x1A3 PUSH1 0x20 SHL PUSH1 0x20 SHR JUMP JUMPDEST DUP1 PUSH20 0xFFFFFFFFFFFFFFFFFFFFFFFFFFFFFFFFFFFFFFFF AND PUSH1 0x80 DUP2 PUSH20 0xFFFFFFFFFFFFFFFFFFFFFFFFFFFFFFFFFFFFFFFF AND DUP2 MSTORE POP POP DUP2 PUSH20 0xFFFFFFFFFFFFFFFFFFFFFFFFFFFFFFFFFFFFFFFF AND PUSH1 0xA0 DUP2 PUSH20 0xFFFFFFFFFFFFFFFFFFFFFFFFFFFFFFFFFFFFFFFF AND DUP2 MSTORE POP POP PUSH1 0xA0 MLOAD PUSH20 0xFFFFFFFFFFFFFFFFFFFFFFFFFFFFFFFFFFFFFFFF AND PUSH4 0x95D89B41 PUSH1 0x40 MLOAD DUP2 PUSH4 0xFFFFFFFF AND PUSH1 0xE0 SHL DUP2 MSTORE PUSH1 0x4 ADD PUSH1 0x0 PUSH1 0x40 MLOAD DUP1 DUP4 SUB DUP2 PUSH1 0x0 DUP8 GAS CALL ISZERO DUP1 ISZERO PUSH3 0x157 JUMPI RETURNDATASIZE PUSH1 0x0 DUP1 RETURNDATACOPY RETURNDATASIZE PUSH1 0x0 REVERT JUMPDEST POP POP POP POP PUSH1 0x40 MLOAD RETURNDATASIZE PUSH1 0x0 DUP3 RETURNDATACOPY RETURNDATASIZE PUSH1 0x1F NOT PUSH1 0x1F DUP3 ADD AND DUP3 ADD DUP1 PUSH1 0x40 MSTORE POP DUP2 ADD SWAP1 PUSH3 0x182 SWAP2 SWAP1 PUSH3 0x4A7 JUMP JUMPDEST PUSH1 0x6 SWAP1 DUP2 PUSH3 0x192 SWAP2 SWAP1 PUSH3 0x743 JUMP JUMPDEST POP POP POP PUSH3 0x82A JUMP JUMPDEST PUSH1 0x0 CALLER SWAP1 POP SWAP1 JUMP JUMPDEST PUSH1 0x0 DUP1 PUSH1 0x1 SWAP1 SLOAD SWAP1 PUSH2 0x100 EXP SWAP1 DIV PUSH20 0xFFFFFFFFFFFFFFFFFFFFFFFFFFFFFFFFFFFFFFFF AND SWAP1 POP DUP2 PUSH1 0x0 PUSH1 0x1 PUSH2 0x100 EXP DUP2 SLOAD DUP2 PUSH20 0xFFFFFFFFFFFFFFFFFFFFFFFFFFFFFFFFFFFFFFFF MUL NOT AND SWAP1 DUP4 PUSH20 0xFFFFFFFFFFFFFFFFFFFFFFFFFFFFFFFFFFFFFFFF AND MUL OR SWAP1 SSTORE POP DUP2 PUSH20 0xFFFFFFFFFFFFFFFFFFFFFFFFFFFFFFFFFFFFFFFF AND DUP2 PUSH20 0xFFFFFFFFFFFFFFFFFFFFFFFFFFFFFFFFFFFFFFFF AND PUSH32 0x8BE0079C531659141344CD1FD0A4F28419497F9722A3DAAFE3B4186F6B6457E0 PUSH1 0x40 MLOAD PUSH1 0x40 MLOAD DUP1 SWAP2 SUB SWAP1 LOG3 POP POP JUMP JUMPDEST PUSH1 0x0 PUSH1 0x40 MLOAD SWAP1 POP SWAP1 JUMP JUMPDEST PUSH1 0x0 DUP1 REVERT JUMPDEST PUSH1 0x0 DUP1 REVERT JUMPDEST PUSH1 0x0 PUSH20 0xFFFFFFFFFFFFFFFFFFFFFFFFFFFFFFFFFFFFFFFF DUP3 AND SWAP1 POP SWAP2 SWAP1 POP JUMP JUMPDEST PUSH1 0x0 PUSH3 0x2A9 DUP3 PUSH3 0x27C JUMP JUMPDEST SWAP1 POP SWAP2 SWAP1 POP JUMP JUMPDEST PUSH3 0x2BB DUP2 PUSH3 0x29C JUMP JUMPDEST DUP2 EQ PUSH3 0x2C7 JUMPI PUSH1 0x0 DUP1 REVERT JUMPDEST POP JUMP JUMPDEST PUSH1 0x0 DUP2 MLOAD SWAP1 POP PUSH3 0x2DB DUP2 PUSH3 0x2B0 JUMP JUMPDEST SWAP3 SWAP2 POP POP JUMP JUMPDEST PUSH1 0x0 DUP1 PUSH1 0x40 DUP4 DUP6 SUB SLT ISZERO PUSH3 0x2FB JUMPI PUSH3 0x2FA PUSH3 0x272 JUMP JUMPDEST JUMPDEST PUSH1 0x0 PUSH3 0x30B DUP6 DUP3 DUP7 ADD PUSH3 0x2CA JUMP JUMPDEST SWAP3 POP POP PUSH1 0x20 PUSH3 0x31E DUP6 DUP3 DUP7 ADD PUSH3 0x2CA JUMP JUMPDEST SWAP2 POP POP SWAP3 POP SWAP3 SWAP1 POP JUMP JUMPDEST PUSH1 0x0 DUP1 REVERT JUMPDEST PUSH1 0x0 DUP1 REVERT JUMPDEST PUSH1 0x0 PUSH1 0x1F NOT PUSH1 0x1F DUP4 ADD AND SWAP1 POP SWAP2 SWAP1 POP JUMP JUMPDEST PUSH32 0x4E487B7100000000000000000000000000000000000000000000000000000000 PUSH1 0x0 MSTORE PUSH1 0x41 PUSH1 0x4 MSTORE PUSH1 0x24 PUSH1 0x0 REVERT JUMPDEST PUSH3 0x37D DUP3 PUSH3 0x332 JUMP JUMPDEST DUP2 ADD DUP2 DUP2 LT PUSH8 0xFFFFFFFFFFFFFFFF DUP3 GT OR ISZERO PUSH3 0x39F JUMPI PUSH3 0x39E PUSH3 0x343 JUMP JUMPDEST JUMPDEST DUP1 PUSH1 0x40 MSTORE POP POP POP JUMP JUMPDEST PUSH1 0x0 PUSH3 0x3B4 PUSH3 0x268 JUMP JUMPDEST SWAP1 POP PUSH3 0x3C2 DUP3 DUP3 PUSH3 0x372 JUMP JUMPDEST SWAP2 SWAP1 POP JUMP JUMPDEST PUSH1 0x0 PUSH8 0xFFFFFFFFFFFFFFFF DUP3 GT ISZERO PUSH3 0x3E5 JUMPI PUSH3 0x3E4 PUSH3 0x343 JUMP JUMPDEST JUMPDEST PUSH3 0x3F0 DUP3 PUSH3 0x332 JUMP JUMPDEST SWAP1 POP PUSH1 0x20 DUP2 ADD SWAP1 POP SWAP2 SWAP1 POP JUMP JUMPDEST PUSH1 0x0 JUMPDEST DUP4 DUP2 LT ISZERO PUSH3 0x41D JUMPI DUP1 DUP3 ADD MLOAD DUP2 DUP5 ADD MSTORE PUSH1 0x20 DUP2 ADD SWAP1 POP PUSH3 0x400 JUMP JUMPDEST PUSH1 0x0 DUP5 DUP5 ADD MSTORE POP POP POP POP JUMP JUMPDEST PUSH1 0x0 PUSH3 0x440 PUSH3 0x43A DUP5 PUSH3 0x3C7 JUMP JUMPDEST PUSH3 0x3A8 JUMP JUMPDEST SWAP1 POP DUP3 DUP2 MSTORE PUSH1 0x20 DUP2 ADD DUP5 DUP5 DUP5 ADD GT ISZERO PUSH3 0x45F JUMPI PUSH3 0x45E PUSH3 0x32D JUMP JUMPDEST JUMPDEST PUSH3 0x46C DUP5 DUP3 DUP6 PUSH3 0x3FD JUMP JUMPDEST POP SWAP4 SWAP3 POP POP POP JUMP JUMPDEST PUSH1 0x0 DUP3 PUSH1 0x1F DUP4 ADD SLT PUSH3 0x48C JUMPI PUSH3 0x48B PUSH3 0x328 JUMP JUMPDEST JUMPDEST DUP2 MLOAD PUSH3 0x49E DUP5 DUP3 PUSH1 0x20 DUP7 ADD PUSH3 0x429 JUMP JUMPDEST SWAP2 POP POP SWAP3 SWAP2 POP POP JUMP JUMPDEST PUSH1 0x0 PUSH1 0x20 DUP3 DUP5 SUB SLT ISZERO PUSH3 0x4C0 JUMPI PUSH3 0x4BF PUSH3 0x272 JUMP JUMPDEST JUMPDEST PUSH1 0x0 DUP3 ADD MLOAD PUSH8 0xFFFFFFFFFFFFFFFF DUP2 GT ISZERO PUSH3 0x4E1 JUMPI PUSH3 0x4E0 PUSH3 0x277 JUMP JUMPDEST JUMPDEST PUSH3 0x4EF DUP5 DUP3 DUP6 ADD PUSH3 0x474 JUMP JUMPDEST SWAP2 POP POP SWAP3 SWAP2 POP POP JUMP JUMPDEST PUSH1 0x0 DUP2 MLOAD SWAP1 POP SWAP2 SWAP1 POP JUMP JUMPDEST PUSH32 0x4E487B7100000000000000000000000000000000000000000000000000000000 PUSH1 0x0 MSTORE PUSH1 0x22 PUSH1 0x4 MSTORE PUSH1 0x24 PUSH1 0x0 REVERT JUMPDEST PUSH1 0x0 PUSH1 0x2 DUP3 DIV SWAP1 POP PUSH1 0x1 DUP3 AND DUP1 PUSH3 0x54B JUMPI PUSH1 0x7F DUP3 AND SWAP2 POP JUMPDEST PUSH1 0x20 DUP3 LT DUP2 SUB PUSH3 0x561 JUMPI PUSH3 0x560 PUSH3 0x503 JUMP JUMPDEST JUMPDEST POP SWAP2 SWAP1 POP JUMP JUMPDEST PUSH1 0x0 DUP2 SWAP1 POP DUP2 PUSH1 0x0 MSTORE PUSH1 0x20 PUSH1 0x0 KECCAK256 SWAP1 POP SWAP2 SWAP1 POP JUMP JUMPDEST PUSH1 0x0 PUSH1 0x20 PUSH1 0x1F DUP4 ADD DIV SWAP1 POP SWAP2 SWAP1 POP JUMP JUMPDEST PUSH1 0x0 DUP3 DUP3 SHL SWAP1 POP SWAP3 SWAP2 POP POP JUMP JUMPDEST PUSH1 0x0 PUSH1 0x8 DUP4 MUL PUSH3 0x5CB PUSH32 0xFFFFFFFFFFFFFFFFFFFFFFFFFFFFFFFFFFFFFFFFFFFFFFFFFFFFFFFFFFFFFFFF DUP3 PUSH3 0x58C JUMP JUMPDEST PUSH3 0x5D7 DUP7 DUP4 PUSH3 0x58C JUMP JUMPDEST SWAP6 POP DUP1 NOT DUP5 AND SWAP4 POP DUP1 DUP7 AND DUP5 OR SWAP3 POP POP POP SWAP4 SWAP3 POP POP POP JUMP JUMPDEST PUSH1 0x0 DUP2 SWAP1 POP SWAP2 SWAP1 POP JUMP JUMPDEST PUSH1 0x0 DUP2 SWAP1 POP SWAP2 SWAP1 POP JUMP JUMPDEST PUSH1 0x0 PUSH3 0x624 PUSH3 0x61E PUSH3 0x618 DUP5 PUSH3 0x5EF JUMP JUMPDEST PUSH3 0x5F9 JUMP JUMPDEST PUSH3 0x5EF JUMP JUMPDEST SWAP1 POP SWAP2 SWAP1 POP JUMP JUMPDEST PUSH1 0x0 DUP2 SWAP1 POP SWAP2 SWAP1 POP JUMP JUMPDEST PUSH3 0x640 DUP4 PUSH3 0x603 JUMP JUMPDEST PUSH3 0x658 PUSH3 0x64F DUP3 PUSH3 0x62B JUMP JUMPDEST DUP5 DUP5 SLOAD PUSH3 0x599 JUMP JUMPDEST DUP3 SSTORE POP POP POP POP JUMP JUMPDEST PUSH1 0x0 SWAP1 JUMP JUMPDEST PUSH3 0x66F PUSH3 0x660 JUMP JUMPDEST PUSH3 0x67C DUP2 DUP5 DUP5 PUSH3 0x635 JUMP JUMPDEST POP POP POP JUMP JUMPDEST JUMPDEST DUP2 DUP2 LT ISZERO PUSH3 0x6A4 JUMPI PUSH3 0x698 PUSH1 0x0 DUP3 PUSH3 0x665 JUMP JUMPDEST PUSH1 0x1 DUP2 ADD SWAP1 POP PUSH3 0x682 JUMP JUMPDEST POP POP JUMP JUMPDEST PUSH1 0x1F DUP3 GT ISZERO PUSH3 0x6F3 JUMPI PUSH3 0x6BD DUP2 PUSH3 0x567 JUMP JUMPDEST PUSH3 0x6C8 DUP5 PUSH3 0x57C JUMP JUMPDEST DUP2 ADD PUSH1 0x20 DUP6 LT ISZERO PUSH3 0x6D8 JUMPI DUP2 SWAP1 POP JUMPDEST PUSH3 0x6F0 PUSH3 0x6E7 DUP6 PUSH3 0x57C JUMP JUMPDEST DUP4 ADD DUP3 PUSH3 0x681 JUMP JUMPDEST POP POP JUMPDEST POP POP POP JUMP JUMPDEST PUSH1 0x0 DUP3 DUP3 SHR SWAP1 POP SWAP3 SWAP2 POP POP JUMP JUMPDEST PUSH1 0x0 PUSH3 0x718 PUSH1 0x0 NOT DUP5 PUSH1 0x8 MUL PUSH3 0x6F8 JUMP JUMPDEST NOT DUP1 DUP4 AND SWAP2 POP POP SWAP3 SWAP2 POP POP JUMP JUMPDEST PUSH1 0x0 PUSH3 0x733 DUP4 DUP4 PUSH3 0x705 JUMP JUMPDEST SWAP2 POP DUP3 PUSH1 0x2 MUL DUP3 OR SWAP1 POP SWAP3 SWAP2 POP POP JUMP JUMPDEST PUSH3 0x74E DUP3 PUSH3 0x4F8 JUMP JUMPDEST PUSH8 0xFFFFFFFFFFFFFFFF DUP2 GT ISZERO PUSH3 0x76A JUMPI PUSH3 0x769 PUSH3 0x343 JUMP JUMPDEST JUMPDEST PUSH3 0x776 DUP3 SLOAD PUSH3 0x532 JUMP JUMPDEST PUSH3 0x783 DUP3 DUP3 DUP6 PUSH3 0x6A8 JUMP JUMPDEST PUSH1 0x0 PUSH1 0x20 SWAP1 POP PUSH1 0x1F DUP4 GT PUSH1 0x1 DUP2 EQ PUSH3 0x7BB JUMPI PUSH1 0x0 DUP5 ISZERO PUSH3 0x7A6 JUMPI DUP3 DUP8 ADD MLOAD SWAP1 POP JUMPDEST PUSH3 0x7B2 DUP6 DUP3 PUSH3 0x725 JUMP JUMPDEST DUP7 SSTORE POP PUSH3 0x822 JUMP JUMPDEST PUSH1 0x1F NOT DUP5 AND PUSH3 0x7CB DUP7 PUSH3 0x567 JUMP JUMPDEST PUSH1 0x0 JUMPDEST DUP3 DUP2 LT ISZERO PUSH3 0x7F5 JUMPI DUP5 DUP10 ADD MLOAD DUP3 SSTORE PUSH1 0x1 DUP3 ADD SWAP2 POP PUSH1 0x20 DUP6 ADD SWAP5 POP PUSH1 0x20 DUP2 ADD SWAP1 POP PUSH3 0x7CE JUMP JUMPDEST DUP7 DUP4 LT ISZERO PUSH3 0x815 JUMPI DUP5 DUP10 ADD MLOAD PUSH3 0x811 PUSH1 0x1F DUP10 AND DUP3 PUSH3 0x705 JUMP JUMPDEST DUP4 SSTORE POP JUMPDEST PUSH1 0x1 PUSH1 0x2 DUP9 MUL ADD DUP9 SSTORE POP POP POP JUMPDEST POP POP POP POP POP POP JUMP JUMPDEST PUSH1 0x80 MLOAD PUSH1 0xA0 MLOAD PUSH2 0x3C28 PUSH3 0x873 PUSH1 0x0 CODECOPY PUSH1 0x0 DUP2 DUP2 PUSH2 0x1065 ADD MSTORE DUP2 DUP2 PUSH2 0x16B2 ADD MSTORE DUP2 DUP2 PUSH2 0x1C54 ADD MSTORE DUP2 DUP2 PUSH2 0x1D59 ADD MSTORE PUSH2 0x26B8 ADD MSTORE PUSH1 0x0 DUP2 DUP2 PUSH2 0x97A ADD MSTORE PUSH2 0x187B ADD MSTORE PUSH2 0x3C28 PUSH1 0x0 RETURN INVALID PUSH1 0x80 PUSH1 0x40 MSTORE CALLVALUE DUP1 ISZERO PUSH2 0x10 JUMPI PUSH1 0x0 DUP1 REVERT JUMPDEST POP PUSH1 0x4 CALLDATASIZE LT PUSH2 0x1A8 JUMPI PUSH1 0x0 CALLDATALOAD PUSH1 0xE0 SHR DUP1 PUSH4 0x722713F7 GT PUSH2 0xF9 JUMPI DUP1 PUSH4 0xB99152D0 GT PUSH2 0x97 JUMPI DUP1 PUSH4 0xE8088766 GT PUSH2 0x71 JUMPI DUP1 PUSH4 0xE8088766 EQ PUSH2 0x416 JUMPI DUP1 PUSH4 0xED969C84 EQ PUSH2 0x420 JUMPI DUP1 PUSH4 0xF2FDE38B EQ PUSH2 0x450 JUMPI DUP1 PUSH4 0xF9850907 EQ PUSH2 0x46C JUMPI PUSH2 0x1A8 JUMP JUMPDEST DUP1 PUSH4 0xB99152D0 EQ PUSH2 0x3AA JUMPI DUP1 PUSH4 0xBA007E75 EQ PUSH2 0x3DA JUMPI DUP1 PUSH4 0xE6367EBE EQ PUSH2 0x3F8 JUMPI PUSH2 0x1A8 JUMP JUMPDEST DUP1 PUSH4 0xA24723E8 GT PUSH2 0xD3 JUMPI DUP1 PUSH4 0xA24723E8 EQ PUSH2 0x333 JUMPI DUP1 PUSH4 0xA684AB5C EQ PUSH2 0x351 JUMPI DUP1 PUSH4 0xABB1DC44 EQ PUSH2 0x36F JUMPI DUP1 PUSH4 0xB0B5E39E EQ PUSH2 0x38E JUMPI PUSH2 0x1A8 JUMP JUMPDEST DUP1 PUSH4 0x722713F7 EQ PUSH2 0x2C7 JUMPI DUP1 PUSH4 0x7754723E EQ PUSH2 0x2E5 JUMPI DUP1 PUSH4 0x8DA5CB5B EQ PUSH2 0x315 JUMPI PUSH2 0x1A8 JUMP JUMPDEST DUP1 PUSH4 0xF15F4C0 GT PUSH2 0x166 JUMPI DUP1 PUSH4 0x51B42B00 GT PUSH2 0x140 JUMPI DUP1 PUSH4 0x51B42B00 EQ PUSH2 0x265 JUMPI DUP1 PUSH4 0x5C975ABB EQ PUSH2 0x26F JUMPI DUP1 PUSH4 0x6A9D43DD EQ PUSH2 0x28D JUMPI DUP1 PUSH4 0x715018A6 EQ PUSH2 0x2BD JUMPI PUSH2 0x1A8 JUMP JUMPDEST DUP1 PUSH4 0xF15F4C0 EQ PUSH2 0x233 JUMPI DUP1 PUSH4 0x2AF0E251 EQ PUSH2 0x23D JUMPI DUP1 PUSH4 0x390885F7 EQ PUSH2 0x25B JUMPI PUSH2 0x1A8 JUMP JUMPDEST DUP1 PUSH3 0xF714CE EQ PUSH2 0x1AD JUMPI DUP1 PUSH4 0x46F7DA2 EQ PUSH2 0x1C9 JUMPI DUP1 PUSH4 0x7DA68F5 EQ PUSH2 0x1D3 JUMPI DUP1 PUSH4 0x8FADCB0 EQ PUSH2 0x1DD JUMPI DUP1 PUSH4 0xA6CB062 EQ PUSH2 0x1FB JUMPI DUP1 PUSH4 0xBA2F1D8 EQ PUSH2 0x217 JUMPI JUMPDEST PUSH1 0x0 DUP1 REVERT JUMPDEST PUSH2 0x1C7 PUSH1 0x4 DUP1 CALLDATASIZE SUB DUP2 ADD SWAP1 PUSH2 0x1C2 SWAP2 SWAP1 PUSH2 0x2841 JUMP JUMPDEST PUSH2 0x48A JUMP JUMPDEST STOP JUMPDEST PUSH2 0x1D1 PUSH2 0x5B7 JUMP JUMPDEST STOP JUMPDEST PUSH2 0x1DB PUSH2 0x5D1 JUMP JUMPDEST STOP JUMPDEST PUSH2 0x1E5 PUSH2 0x5EB JUMP JUMPDEST PUSH1 0x40 MLOAD PUSH2 0x1F2 SWAP2 SWAP1 PUSH2 0x2890 JUMP JUMPDEST PUSH1 0x40 MLOAD DUP1 SWAP2 SUB SWAP1 RETURN JUMPDEST PUSH2 0x215 PUSH1 0x4 DUP1 CALLDATASIZE SUB DUP2 ADD SWAP1 PUSH2 0x210 SWAP2 SWAP1 PUSH2 0x28AB JUMP JUMPDEST PUSH2 0x6A5 JUMP JUMPDEST STOP JUMPDEST PUSH2 0x231 PUSH1 0x4 DUP1 CALLDATASIZE SUB DUP2 ADD SWAP1 PUSH2 0x22C SWAP2 SWAP1 PUSH2 0x28AB JUMP JUMPDEST PUSH2 0x72A JUMP JUMPDEST STOP JUMPDEST PUSH2 0x23B PUSH2 0x959 JUMP JUMPDEST STOP JUMPDEST PUSH2 0x245 PUSH2 0xB33 JUMP JUMPDEST PUSH1 0x40 MLOAD PUSH2 0x252 SWAP2 SWAP1 PUSH2 0x28E7 JUMP JUMPDEST PUSH1 0x40 MLOAD DUP1 SWAP2 SUB SWAP1 RETURN JUMPDEST PUSH2 0x263 PUSH2 0xC9A JUMP JUMPDEST STOP JUMPDEST PUSH2 0x26D PUSH2 0xD98 JUMP JUMPDEST STOP JUMPDEST PUSH2 0x277 PUSH2 0xF53 JUMP JUMPDEST PUSH1 0x40 MLOAD PUSH2 0x284 SWAP2 SWAP1 PUSH2 0x291D JUMP JUMPDEST PUSH1 0x40 MLOAD DUP1 SWAP2 SUB SWAP1 RETURN JUMPDEST PUSH2 0x2A7 PUSH1 0x4 DUP1 CALLDATASIZE SUB DUP2 ADD SWAP1 PUSH2 0x2A2 SWAP2 SWAP1 PUSH2 0x2938 JUMP JUMPDEST PUSH2 0xF69 JUMP JUMPDEST PUSH1 0x40 MLOAD PUSH2 0x2B4 SWAP2 SWAP1 PUSH2 0x291D JUMP JUMPDEST PUSH1 0x40 MLOAD DUP1 SWAP2 SUB SWAP1 RETURN JUMPDEST PUSH2 0x2C5 PUSH2 0x1045 JUMP JUMPDEST STOP JUMPDEST PUSH2 0x2CF PUSH2 0x1059 JUMP JUMPDEST PUSH1 0x40 MLOAD PUSH2 0x2DC SWAP2 SWAP1 PUSH2 0x28E7 JUMP JUMPDEST PUSH1 0x40 MLOAD DUP1 SWAP2 SUB SWAP1 RETURN JUMPDEST PUSH2 0x2FF PUSH1 0x4 DUP1 CALLDATASIZE SUB DUP2 ADD SWAP1 PUSH2 0x2FA SWAP2 SWAP1 PUSH2 0x298B JUMP JUMPDEST PUSH2 0x1102 JUMP JUMPDEST PUSH1 0x40 MLOAD PUSH2 0x30C SWAP2 SWAP1 PUSH2 0x28E7 JUMP JUMPDEST PUSH1 0x40 MLOAD DUP1 SWAP2 SUB SWAP1 RETURN JUMPDEST PUSH2 0x31D PUSH2 0x12E8 JUMP JUMPDEST PUSH1 0x40 MLOAD PUSH2 0x32A SWAP2 SWAP1 PUSH2 0x2890 JUMP JUMPDEST PUSH1 0x40 MLOAD DUP1 SWAP2 SUB SWAP1 RETURN JUMPDEST PUSH2 0x33B PUSH2 0x1311 JUMP JUMPDEST PUSH1 0x40 MLOAD PUSH2 0x348 SWAP2 SWAP1 PUSH2 0x28E7 JUMP JUMPDEST PUSH1 0x40 MLOAD DUP1 SWAP2 SUB SWAP1 RETURN JUMPDEST PUSH2 0x359 PUSH2 0x1478 JUMP JUMPDEST PUSH1 0x40 MLOAD PUSH2 0x366 SWAP2 SWAP1 PUSH2 0x28E7 JUMP JUMPDEST PUSH1 0x40 MLOAD DUP1 SWAP2 SUB SWAP1 RETURN JUMPDEST PUSH2 0x377 PUSH2 0x15DF JUMP JUMPDEST PUSH1 0x40 MLOAD PUSH2 0x385 SWAP3 SWAP2 SWAP1 PUSH2 0x2A6E JUMP JUMPDEST PUSH1 0x40 MLOAD DUP1 SWAP2 SUB SWAP1 RETURN JUMPDEST PUSH2 0x3A8 PUSH1 0x4 DUP1 CALLDATASIZE SUB DUP2 ADD SWAP1 PUSH2 0x3A3 SWAP2 SWAP1 PUSH2 0x28AB JUMP JUMPDEST PUSH2 0x1767 JUMP JUMPDEST STOP JUMPDEST PUSH2 0x3C4 PUSH1 0x4 DUP1 CALLDATASIZE SUB DUP2 ADD SWAP1 PUSH2 0x3BF SWAP2 SWAP1 PUSH2 0x28AB JUMP JUMPDEST PUSH2 0x17EC JUMP JUMPDEST PUSH1 0x40 MLOAD PUSH2 0x3D1 SWAP2 SWAP1 PUSH2 0x28E7 JUMP JUMPDEST PUSH1 0x40 MLOAD DUP1 SWAP2 SUB SWAP1 RETURN JUMPDEST PUSH2 0x3E2 PUSH2 0x1877 JUMP JUMPDEST PUSH1 0x40 MLOAD PUSH2 0x3EF SWAP2 SWAP1 PUSH2 0x2890 JUMP JUMPDEST PUSH1 0x40 MLOAD DUP1 SWAP2 SUB SWAP1 RETURN JUMPDEST PUSH2 0x400 PUSH2 0x189F JUMP JUMPDEST PUSH1 0x40 MLOAD PUSH2 0x40D SWAP2 SWAP1 PUSH2 0x2A9E JUMP JUMPDEST PUSH1 0x40 MLOAD DUP1 SWAP2 SUB SWAP1 RETURN JUMPDEST PUSH2 0x41E PUSH2 0x193F JUMP JUMPDEST STOP JUMPDEST PUSH2 0x43A PUSH1 0x4 DUP1 CALLDATASIZE SUB DUP2 ADD SWAP1 PUSH2 0x435 SWAP2 SWAP1 PUSH2 0x2AC0 JUMP JUMPDEST PUSH2 0x1AE2 JUMP JUMPDEST PUSH1 0x40 MLOAD PUSH2 0x447 SWAP2 SWAP1 PUSH2 0x291D JUMP JUMPDEST PUSH1 0x40 MLOAD DUP1 SWAP2 SUB SWAP1 RETURN JUMPDEST PUSH2 0x46A PUSH1 0x4 DUP1 CALLDATASIZE SUB DUP2 ADD SWAP1 PUSH2 0x465 SWAP2 SWAP1 PUSH2 0x28AB JUMP JUMPDEST PUSH2 0x1F09 JUMP JUMPDEST STOP JUMPDEST PUSH2 0x474 PUSH2 0x1F8C JUMP JUMPDEST PUSH1 0x40 MLOAD PUSH2 0x481 SWAP2 SWAP1 PUSH2 0x28E7 JUMP JUMPDEST PUSH1 0x40 MLOAD DUP1 SWAP2 SUB SWAP1 RETURN JUMPDEST PUSH2 0x492 PUSH2 0x20F3 JUMP JUMPDEST PUSH1 0x5 SLOAD PUSH1 0x4 SLOAD PUSH2 0x4A2 SWAP2 SWAP1 PUSH2 0x2B1C JUMP JUMPDEST DUP3 GT ISZERO PUSH1 0x6 PUSH1 0x40 MLOAD PUSH1 0x20 ADD PUSH2 0x4B7 SWAP2 SWAP1 PUSH2 0x2CC5 JUMP JUMPDEST PUSH1 0x40 MLOAD PUSH1 0x20 DUP2 DUP4 SUB SUB DUP2 MSTORE SWAP1 PUSH1 0x40 MSTORE SWAP1 PUSH2 0x507 JUMPI PUSH1 0x40 MLOAD PUSH32 0x8C379A000000000000000000000000000000000000000000000000000000000 DUP2 MSTORE PUSH1 0x4 ADD PUSH2 0x4FE SWAP2 SWAP1 PUSH2 0x2A9E JUMP JUMPDEST PUSH1 0x40 MLOAD DUP1 SWAP2 SUB SWAP1 REVERT JUMPDEST POP PUSH1 0x0 DUP3 GT PUSH2 0x54B JUMPI PUSH1 0x40 MLOAD PUSH32 0x8C379A000000000000000000000000000000000000000000000000000000000 DUP2 MSTORE PUSH1 0x4 ADD PUSH2 0x542 SWAP1 PUSH2 0x2D59 JUMP JUMPDEST PUSH1 0x40 MLOAD DUP1 SWAP2 SUB SWAP1 REVERT JUMPDEST DUP2 PUSH1 0x5 PUSH1 0x0 DUP3 DUP3 SLOAD PUSH2 0x55D SWAP2 SWAP1 PUSH2 0x2D79 JUMP JUMPDEST SWAP3 POP POP DUP2 SWAP1 SSTORE POP DUP1 PUSH20 0xFFFFFFFFFFFFFFFFFFFFFFFFFFFFFFFFFFFFFFFF AND TIMESTAMP PUSH32 0x71EF96C43343734B1D843BB85D52EF329F5E9143E4D35827771E3B0DD90C5F84 DUP5 PUSH1 0x40 MLOAD PUSH2 0x5AB SWAP2 SWAP1 PUSH2 0x28E7 JUMP JUMPDEST PUSH1 0x40 MLOAD DUP1 SWAP2 SUB SWAP1 LOG3 POP POP JUMP JUMPDEST PUSH2 0x5BF PUSH2 0x2171 JUMP JUMPDEST PUSH2 0x5C7 PUSH2 0x20F3 JUMP JUMPDEST PUSH2 0x5CF PUSH2 0x21BA JUMP JUMPDEST JUMP JUMPDEST PUSH2 0x5D9 PUSH2 0x221C JUMP JUMPDEST PUSH2 0x5E1 PUSH2 0x20F3 JUMP JUMPDEST PUSH2 0x5E9 PUSH2 0x2266 JUMP JUMPDEST JUMP JUMPDEST PUSH1 0x0 DUP1 PUSH20 0xFFFFFFFFFFFFFFFFFFFFFFFFFFFFFFFFFFFFFFFF AND PUSH1 0x1 PUSH1 0x0 SWAP1 SLOAD SWAP1 PUSH2 0x100 EXP SWAP1 DIV PUSH20 0xFFFFFFFFFFFFFFFFFFFFFFFFFFFFFFFFFFFFFFFF AND PUSH20 0xFFFFFFFFFFFFFFFFFFFFFFFFFFFFFFFFFFFFFFFF AND SUB PUSH2 0x67D JUMPI PUSH1 0x40 MLOAD PUSH32 0x8C379A000000000000000000000000000000000000000000000000000000000 DUP2 MSTORE PUSH1 0x4 ADD PUSH2 0x674 SWAP1 PUSH2 0x2DF9 JUMP JUMPDEST PUSH1 0x40 MLOAD DUP1 SWAP2 SUB SWAP1 REVERT JUMPDEST PUSH1 0x1 PUSH1 0x0 SWAP1 SLOAD SWAP1 PUSH2 0x100 EXP SWAP1 DIV PUSH20 0xFFFFFFFFFFFFFFFFFFFFFFFFFFFFFFFFFFFFFFFF AND SWAP1 POP SWAP1 JUMP JUMPDEST PUSH2 0x6AD PUSH2 0x20F3 JUMP JUMPDEST PUSH1 0x0 PUSH20 0xFFFFFFFFFFFFFFFFFFFFFFFFFFFFFFFFFFFFFFFF AND DUP2 PUSH20 0xFFFFFFFFFFFFFFFFFFFFFFFFFFFFFFFFFFFFFFFF AND SUB PUSH2 0x6E6 JUMPI PUSH1 0x0 DUP1 REVERT JUMPDEST DUP1 PUSH1 0x7 PUSH1 0x0 PUSH2 0x100 EXP DUP2 SLOAD DUP2 PUSH20 0xFFFFFFFFFFFFFFFFFFFFFFFFFFFFFFFFFFFFFFFF MUL NOT AND SWAP1 DUP4 PUSH20 0xFFFFFFFFFFFFFFFFFFFFFFFFFFFFFFFFFFFFFFFF AND MUL OR SWAP1 SSTORE POP POP JUMP JUMPDEST PUSH1 0x0 PUSH20 0xFFFFFFFFFFFFFFFFFFFFFFFFFFFFFFFFFFFFFFFF AND PUSH1 0x1 PUSH1 0x0 SWAP1 SLOAD SWAP1 PUSH2 0x100 EXP SWAP1 DIV PUSH20 0xFFFFFFFFFFFFFFFFFFFFFFFFFFFFFFFFFFFFFFFF AND PUSH20 0xFFFFFFFFFFFFFFFFFFFFFFFFFFFFFFFFFFFFFFFF AND SUB PUSH2 0x7BB JUMPI PUSH1 0x40 MLOAD PUSH32 0x8C379A000000000000000000000000000000000000000000000000000000000 DUP2 MSTORE PUSH1 0x4 ADD PUSH2 0x7B2 SWAP1 PUSH2 0x2DF9 JUMP JUMPDEST PUSH1 0x40 MLOAD DUP1 SWAP2 SUB SWAP1 REVERT JUMPDEST PUSH1 0x1 PUSH1 0x0 SWAP1 SLOAD SWAP1 PUSH2 0x100 EXP SWAP1 DIV PUSH20 0xFFFFFFFFFFFFFFFFFFFFFFFFFFFFFFFFFFFFFFFF AND PUSH20 0xFFFFFFFFFFFFFFFFFFFFFFFFFFFFFFFFFFFFFFFF AND CALLER PUSH20 0xFFFFFFFFFFFFFFFFFFFFFFFFFFFFFFFFFFFFFFFF AND EQ PUSH2 0x84B JUMPI PUSH1 0x40 MLOAD PUSH32 0x8C379A000000000000000000000000000000000000000000000000000000000 DUP2 MSTORE PUSH1 0x4 ADD PUSH2 0x842 SWAP1 PUSH2 0x2E65 JUMP JUMPDEST PUSH1 0x40 MLOAD DUP1 SWAP2 SUB SWAP1 REVERT JUMPDEST PUSH1 0x0 PUSH20 0xFFFFFFFFFFFFFFFFFFFFFFFFFFFFFFFFFFFFFFFF AND PUSH1 0x1 PUSH1 0x0 SWAP1 SLOAD SWAP1 PUSH2 0x100 EXP SWAP1 DIV PUSH20 0xFFFFFFFFFFFFFFFFFFFFFFFFFFFFFFFFFFFFFFFF AND PUSH20 0xFFFFFFFFFFFFFFFFFFFFFFFFFFFFFFFFFFFFFFFF AND SUB PUSH2 0x8DC JUMPI PUSH1 0x40 MLOAD PUSH32 0x8C379A000000000000000000000000000000000000000000000000000000000 DUP2 MSTORE PUSH1 0x4 ADD PUSH2 0x8D3 SWAP1 PUSH2 0x2DF9 JUMP JUMPDEST PUSH1 0x40 MLOAD DUP1 SWAP2 SUB SWAP1 REVERT JUMPDEST PUSH1 0x0 PUSH20 0xFFFFFFFFFFFFFFFFFFFFFFFFFFFFFFFFFFFFFFFF AND DUP2 PUSH20 0xFFFFFFFFFFFFFFFFFFFFFFFFFFFFFFFFFFFFFFFF AND SUB PUSH2 0x915 JUMPI PUSH1 0x0 DUP1 REVERT JUMPDEST DUP1 PUSH1 0x1 PUSH1 0x0 PUSH2 0x100 EXP DUP2 SLOAD DUP2 PUSH20 0xFFFFFFFFFFFFFFFFFFFFFFFFFFFFFFFFFFFFFFFF MUL NOT AND SWAP1 DUP4 PUSH20 0xFFFFFFFFFFFFFFFFFFFFFFFFFFFFFFFFFFFFFFFF AND MUL OR SWAP1 SSTORE POP POP JUMP JUMPDEST PUSH2 0x961 PUSH2 0x221C JUMP JUMPDEST CALLER PUSH20 0xFFFFFFFFFFFFFFFFFFFFFFFFFFFFFFFFFFFFFFFF AND PUSH32 0x0 PUSH20 0xFFFFFFFFFFFFFFFFFFFFFFFFFFFFFFFFFFFFFFFF AND EQ PUSH2 0x9EF JUMPI PUSH1 0x40 MLOAD PUSH32 0x8C379A000000000000000000000000000000000000000000000000000000000 DUP2 MSTORE PUSH1 0x4 ADD PUSH2 0x9E6 SWAP1 PUSH2 0x2EF7 JUMP JUMPDEST PUSH1 0x40 MLOAD DUP1 SWAP2 SUB SWAP1 REVERT JUMPDEST PUSH1 0x0 PUSH20 0xFFFFFFFFFFFFFFFFFFFFFFFFFFFFFFFFFFFFFFFF AND PUSH1 0x1 PUSH1 0x0 SWAP1 SLOAD SWAP1 PUSH2 0x100 EXP SWAP1 DIV PUSH20 0xFFFFFFFFFFFFFFFFFFFFFFFFFFFFFFFFFFFFFFFF AND PUSH20 0xFFFFFFFFFFFFFFFFFFFFFFFFFFFFFFFFFFFFFFFF AND EQ PUSH2 0xA80 JUMPI PUSH1 0x40 MLOAD PUSH32 0x8C379A000000000000000000000000000000000000000000000000000000000 DUP2 MSTORE PUSH1 0x4 ADD PUSH2 0xA77 SWAP1 PUSH2 0x2F63 JUMP JUMPDEST PUSH1 0x40 MLOAD DUP1 SWAP2 SUB SWAP1 REVERT JUMPDEST CALLER PUSH1 0x1 PUSH1 0x0 PUSH2 0x100 EXP DUP2 SLOAD DUP2 PUSH20 0xFFFFFFFFFFFFFFFFFFFFFFFFFFFFFFFFFFFFFFFF MUL NOT AND SWAP1 DUP4 PUSH20 0xFFFFFFFFFFFFFFFFFFFFFFFFFFFFFFFFFFFFFFFF AND MUL OR SWAP1 SSTORE POP PUSH1 0x1 PUSH1 0x0 SWAP1 SLOAD SWAP1 PUSH2 0x100 EXP SWAP1 DIV PUSH20 0xFFFFFFFFFFFFFFFFFFFFFFFFFFFFFFFFFFFFFFFF AND PUSH20 0xFFFFFFFFFFFFFFFFFFFFFFFFFFFFFFFFFFFFFFFF AND PUSH32 0xFBD0A3F6E9A0DD5F834515748047E83DE8064477489A0A0D6B59C64BBECC992A TIMESTAMP PUSH1 0x40 MLOAD PUSH2 0xB29 SWAP2 SWAP1 PUSH2 0x28E7 JUMP JUMPDEST PUSH1 0x40 MLOAD DUP1 SWAP2 SUB SWAP1 LOG2 JUMP JUMPDEST PUSH1 0x0 DUP1 PUSH20 0xFFFFFFFFFFFFFFFFFFFFFFFFFFFFFFFFFFFFFFFF AND PUSH1 0x1 PUSH1 0x0 SWAP1 SLOAD SWAP1 PUSH2 0x100 EXP SWAP1 DIV PUSH20 0xFFFFFFFFFFFFFFFFFFFFFFFFFFFFFFFFFFFFFFFF AND PUSH20 0xFFFFFFFFFFFFFFFFFFFFFFFFFFFFFFFFFFFFFFFF AND SUB PUSH2 0xBC5 JUMPI PUSH1 0x40 MLOAD PUSH32 0x8C379A000000000000000000000000000000000000000000000000000000000 DUP2 MSTORE PUSH1 0x4 ADD PUSH2 0xBBC SWAP1 PUSH2 0x2DF9 JUMP JUMPDEST PUSH1 0x40 MLOAD DUP1 SWAP2 SUB SWAP1 REVERT JUMPDEST PUSH1 0x1 PUSH1 0x0 SWAP1 SLOAD SWAP1 PUSH2 0x100 EXP SWAP1 DIV PUSH20 0xFFFFFFFFFFFFFFFFFFFFFFFFFFFFFFFFFFFFFFFF AND PUSH20 0xFFFFFFFFFFFFFFFFFFFFFFFFFFFFFFFFFFFFFFFF AND CALLER PUSH20 0xFFFFFFFFFFFFFFFFFFFFFFFFFFFFFFFFFFFFFFFF AND EQ DUP1 PUSH2 0xC53 JUMPI POP PUSH2 0xC24 PUSH2 0x12E8 JUMP JUMPDEST PUSH20 0xFFFFFFFFFFFFFFFFFFFFFFFFFFFFFFFFFFFFFFFF AND CALLER PUSH20 0xFFFFFFFFFFFFFFFFFFFFFFFFFFFFFFFFFFFFFFFF AND EQ JUMPDEST PUSH2 0xC92 JUMPI PUSH1 0x40 MLOAD PUSH32 0x8C379A000000000000000000000000000000000000000000000000000000000 DUP2 MSTORE PUSH1 0x4 ADD PUSH2 0xC89 SWAP1 PUSH2 0x2FF5 JUMP JUMPDEST PUSH1 0x40 MLOAD DUP1 SWAP2 SUB SWAP1 REVERT JUMPDEST PUSH1 0x2 SLOAD SWAP1 POP SWAP1 JUMP JUMPDEST PUSH2 0xCA2 PUSH2 0x20F3 JUMP JUMPDEST PUSH1 0x0 PUSH1 0x5 SLOAD GT PUSH2 0xCE7 JUMPI PUSH1 0x40 MLOAD PUSH32 0x8C379A000000000000000000000000000000000000000000000000000000000 DUP2 MSTORE PUSH1 0x4 ADD PUSH2 0xCDE SWAP1 PUSH2 0x3061 JUMP JUMPDEST PUSH1 0x40 MLOAD DUP1 SWAP2 SUB SWAP1 REVERT JUMPDEST PUSH1 0x0 PUSH1 0x5 SLOAD PUSH1 0x4 SLOAD PUSH2 0xCF9 SWAP2 SWAP1 PUSH2 0x2B1C JUMP JUMPDEST GT PUSH2 0xD39 JUMPI PUSH1 0x40 MLOAD PUSH32 0x8C379A000000000000000000000000000000000000000000000000000000000 DUP2 MSTORE PUSH1 0x4 ADD PUSH2 0xD30 SWAP1 PUSH2 0x30CD JUMP JUMPDEST PUSH1 0x40 MLOAD DUP1 SWAP2 SUB SWAP1 REVERT JUMPDEST PUSH1 0x5 SLOAD PUSH1 0x4 PUSH1 0x0 DUP3 DUP3 SLOAD PUSH2 0xD4D SWAP2 SWAP1 PUSH2 0x2B1C JUMP JUMPDEST SWAP3 POP POP DUP2 SWAP1 SSTORE POP PUSH1 0x0 PUSH1 0x5 DUP2 SWAP1 SSTORE POP TIMESTAMP PUSH32 0xE727EE3674546D683A39C7087AB966177F70026ADB7D4FDEFAEF2BF0BB29A46 PUSH1 0x5 SLOAD PUSH1 0x40 MLOAD PUSH2 0xD8E SWAP2 SWAP1 PUSH2 0x28E7 JUMP JUMPDEST PUSH1 0x40 MLOAD DUP1 SWAP2 SUB SWAP1 LOG2 JUMP JUMPDEST PUSH1 0x0 PUSH20 0xFFFFFFFFFFFFFFFFFFFFFFFFFFFFFFFFFFFFFFFF AND PUSH1 0x1 PUSH1 0x0 SWAP1 SLOAD SWAP1 PUSH2 0x100 EXP SWAP1 DIV PUSH20 0xFFFFFFFFFFFFFFFFFFFFFFFFFFFFFFFFFFFFFFFF AND PUSH20 0xFFFFFFFFFFFFFFFFFFFFFFFFFFFFFFFFFFFFFFFF AND SUB PUSH2 0xE29 JUMPI PUSH1 0x40 MLOAD PUSH32 0x8C379A000000000000000000000000000000000000000000000000000000000 DUP2 MSTORE PUSH1 0x4 ADD PUSH2 0xE20 SWAP1 PUSH2 0x2DF9 JUMP JUMPDEST PUSH1 0x40 MLOAD DUP1 SWAP2 SUB SWAP1 REVERT JUMPDEST PUSH1 0x1 PUSH1 0x0 SWAP1 SLOAD SWAP1 PUSH2 0x100 EXP SWAP1 DIV PUSH20 0xFFFFFFFFFFFFFFFFFFFFFFFFFFFFFFFFFFFFFFFF AND PUSH20 0xFFFFFFFFFFFFFFFFFFFFFFFFFFFFFFFFFFFFFFFF AND CALLER PUSH20 0xFFFFFFFFFFFFFFFFFFFFFFFFFFFFFFFFFFFFFFFF AND EQ PUSH2 0xEB9 JUMPI PUSH1 0x40 MLOAD PUSH32 0x8C379A000000000000000000000000000000000000000000000000000000000 DUP2 MSTORE PUSH1 0x4 ADD PUSH2 0xEB0 SWAP1 PUSH2 0x2E65 JUMP JUMPDEST PUSH1 0x40 MLOAD DUP1 SWAP2 SUB SWAP1 REVERT JUMPDEST PUSH2 0xEC1 PUSH2 0x221C JUMP JUMPDEST PUSH1 0x0 PUSH1 0x1 PUSH1 0x0 PUSH2 0x100 EXP DUP2 SLOAD DUP2 PUSH20 0xFFFFFFFFFFFFFFFFFFFFFFFFFFFFFFFFFFFFFFFF MUL NOT AND SWAP1 DUP4 PUSH20 0xFFFFFFFFFFFFFFFFFFFFFFFFFFFFFFFFFFFFFFFF AND MUL OR SWAP1 SSTORE POP CALLER PUSH20 0xFFFFFFFFFFFFFFFFFFFFFFFFFFFFFFFFFFFFFFFF AND PUSH32 0x13B865880A841DC469B629159FA1E730FEE99568B0DECC6737FD688B36246381 TIMESTAMP PUSH1 0x40 MLOAD PUSH2 0xF49 SWAP2 SWAP1 PUSH2 0x28E7 JUMP JUMPDEST PUSH1 0x40 MLOAD DUP1 SWAP2 SUB SWAP1 LOG2 JUMP JUMPDEST PUSH1 0x0 DUP1 PUSH1 0x0 SWAP1 SLOAD SWAP1 PUSH2 0x100 EXP SWAP1 DIV PUSH1 0xFF AND SWAP1 POP SWAP1 JUMP JUMPDEST PUSH1 0x0 PUSH2 0xF73 PUSH2 0x20F3 JUMP JUMPDEST DUP2 PUSH2 0xF7D DUP6 PUSH2 0x17EC JUMP JUMPDEST LT ISZERO PUSH2 0xFBE JUMPI PUSH1 0x40 MLOAD PUSH32 0x8C379A000000000000000000000000000000000000000000000000000000000 DUP2 MSTORE PUSH1 0x4 ADD PUSH2 0xFB5 SWAP1 PUSH2 0x3139 JUMP JUMPDEST PUSH1 0x40 MLOAD DUP1 SWAP2 SUB SWAP1 REVERT JUMPDEST DUP4 PUSH20 0xFFFFFFFFFFFFFFFFFFFFFFFFFFFFFFFFFFFFFFFF AND PUSH4 0xA9059CBB DUP5 DUP5 PUSH1 0x40 MLOAD DUP4 PUSH4 0xFFFFFFFF AND PUSH1 0xE0 SHL DUP2 MSTORE PUSH1 0x4 ADD PUSH2 0xFF9 SWAP3 SWAP2 SWAP1 PUSH2 0x3159 JUMP JUMPDEST PUSH1 0x20 PUSH1 0x40 MLOAD DUP1 DUP4 SUB DUP2 PUSH1 0x0 DUP8 GAS CALL ISZERO DUP1 ISZERO PUSH2 0x1018 JUMPI RETURNDATASIZE PUSH1 0x0 DUP1 RETURNDATACOPY RETURNDATASIZE PUSH1 0x0 REVERT JUMPDEST POP POP POP POP PUSH1 0x40 MLOAD RETURNDATASIZE PUSH1 0x1F NOT PUSH1 0x1F DUP3 ADD AND DUP3 ADD DUP1 PUSH1 0x40 MSTORE POP DUP2 ADD SWAP1 PUSH2 0x103C SWAP2 SWAP1 PUSH2 0x31AE JUMP JUMPDEST SWAP1 POP SWAP4 SWAP3 POP POP POP JUMP JUMPDEST PUSH2 0x104D PUSH2 0x20F3 JUMP JUMPDEST PUSH2 0x1057 PUSH1 0x0 PUSH2 0x22C8 JUMP JUMPDEST JUMP JUMPDEST PUSH1 0x0 PUSH2 0x1063 PUSH2 0x20F3 JUMP JUMPDEST PUSH32 0x0 PUSH20 0xFFFFFFFFFFFFFFFFFFFFFFFFFFFFFFFFFFFFFFFF AND PUSH4 0x70A08231 ADDRESS PUSH1 0x40 MLOAD DUP3 PUSH4 0xFFFFFFFF AND PUSH1 0xE0 SHL DUP2 MSTORE PUSH1 0x4 ADD PUSH2 0x10BC SWAP2 SWAP1 PUSH2 0x2890 JUMP JUMPDEST PUSH1 0x20 PUSH1 0x40 MLOAD DUP1 DUP4 SUB DUP2 DUP7 GAS STATICCALL ISZERO DUP1 ISZERO PUSH2 0x10D9 JUMPI RETURNDATASIZE PUSH1 0x0 DUP1 RETURNDATACOPY RETURNDATASIZE PUSH1 0x0 REVERT JUMPDEST POP POP POP POP PUSH1 0x40 MLOAD RETURNDATASIZE PUSH1 0x1F NOT PUSH1 0x1F DUP3 ADD AND DUP3 ADD DUP1 PUSH1 0x40 MSTORE POP DUP2 ADD SWAP1 PUSH2 0x10FD SWAP2 SWAP1 PUSH2 0x31F0 JUMP JUMPDEST SWAP1 POP SWAP1 JUMP JUMPDEST PUSH1 0x0 DUP1 PUSH20 0xFFFFFFFFFFFFFFFFFFFFFFFFFFFFFFFFFFFFFFFF AND PUSH1 0x1 PUSH1 0x0 SWAP1 SLOAD SWAP1 PUSH2 0x100 EXP SWAP1 DIV PUSH20 0xFFFFFFFFFFFFFFFFFFFFFFFFFFFFFFFFFFFFFFFF AND PUSH20 0xFFFFFFFFFFFFFFFFFFFFFFFFFFFFFFFFFFFFFFFF AND SUB PUSH2 0x1194 JUMPI PUSH1 0x40 MLOAD PUSH32 0x8C379A000000000000000000000000000000000000000000000000000000000 DUP2 MSTORE PUSH1 0x4 ADD PUSH2 0x118B SWAP1 PUSH2 0x2DF9 JUMP JUMPDEST PUSH1 0x40 MLOAD DUP1 SWAP2 SUB SWAP1 REVERT JUMPDEST PUSH1 0x1 PUSH1 0x0 SWAP1 SLOAD SWAP1 PUSH2 0x100 EXP SWAP1 DIV PUSH20 0xFFFFFFFFFFFFFFFFFFFFFFFFFFFFFFFFFFFFFFFF AND PUSH20 0xFFFFFFFFFFFFFFFFFFFFFFFFFFFFFFFFFFFFFFFF AND CALLER PUSH20 0xFFFFFFFFFFFFFFFFFFFFFFFFFFFFFFFFFFFFFFFF AND EQ DUP1 PUSH2 0x1222 JUMPI POP PUSH2 0x11F3 PUSH2 0x12E8 JUMP JUMPDEST PUSH20 0xFFFFFFFFFFFFFFFFFFFFFFFFFFFFFFFFFFFFFFFF AND CALLER PUSH20 0xFFFFFFFFFFFFFFFFFFFFFFFFFFFFFFFFFFFFFFFF AND EQ JUMPDEST PUSH2 0x1261 JUMPI PUSH1 0x40 MLOAD PUSH32 0x8C379A000000000000000000000000000000000000000000000000000000000 DUP2 MSTORE PUSH1 0x4 ADD PUSH2 0x1258 SWAP1 PUSH2 0x2FF5 JUMP JUMPDEST PUSH1 0x40 MLOAD DUP1 SWAP2 SUB SWAP1 REVERT JUMPDEST PUSH1 0x0 DUP4 GT DUP1 ISZERO PUSH2 0x1271 JUMPI POP PUSH1 0x0 DUP5 GT JUMPDEST DUP1 ISZERO PUSH2 0x127D JUMPI POP PUSH1 0x0 DUP3 GT JUMPDEST PUSH2 0x12BC JUMPI PUSH1 0x40 MLOAD PUSH32 0x8C379A000000000000000000000000000000000000000000000000000000000 DUP2 MSTORE PUSH1 0x4 ADD PUSH2 0x12B3 SWAP1 PUSH2 0x328F JUMP JUMPDEST PUSH1 0x40 MLOAD DUP1 SWAP2 SUB SWAP1 REVERT JUMPDEST DUP3 DUP3 PUSH1 0xA PUSH2 0x12CA SWAP2 SWAP1 PUSH2 0x33E2 JUMP JUMPDEST DUP6 PUSH2 0x12D5 SWAP2 SWAP1 PUSH2 0x342D JUMP JUMPDEST PUSH2 0x12DF SWAP2 SWAP1 PUSH2 0x349E JUMP JUMPDEST SWAP1 POP SWAP4 SWAP3 POP POP POP JUMP JUMPDEST PUSH1 0x0 DUP1 PUSH1 0x1 SWAP1 SLOAD SWAP1 PUSH2 0x100 EXP SWAP1 DIV PUSH20 0xFFFFFFFFFFFFFFFFFFFFFFFFFFFFFFFFFFFFFFFF AND SWAP1 POP SWAP1 JUMP JUMPDEST PUSH1 0x0 DUP1 PUSH20 0xFFFFFFFFFFFFFFFFFFFFFFFFFFFFFFFFFFFFFFFF AND PUSH1 0x1 PUSH1 0x0 SWAP1 SLOAD SWAP1 PUSH2 0x100 EXP SWAP1 DIV PUSH20 0xFFFFFFFFFFFFFFFFFFFFFFFFFFFFFFFFFFFFFFFF AND PUSH20 0xFFFFFFFFFFFFFFFFFFFFFFFFFFFFFFFFFFFFFFFF AND SUB PUSH2 0x13A3 JUMPI PUSH1 0x40 MLOAD PUSH32 0x8C379A000000000000000000000000000000000000000000000000000000000 DUP2 MSTORE PUSH1 0x4 ADD PUSH2 0x139A SWAP1 PUSH2 0x2DF9 JUMP JUMPDEST PUSH1 0x40 MLOAD DUP1 SWAP2 SUB SWAP1 REVERT JUMPDEST PUSH1 0x1 PUSH1 0x0 SWAP1 SLOAD SWAP1 PUSH2 0x100 EXP SWAP1 DIV PUSH20 0xFFFFFFFFFFFFFFFFFFFFFFFFFFFFFFFFFFFFFFFF AND PUSH20 0xFFFFFFFFFFFFFFFFFFFFFFFFFFFFFFFFFFFFFFFF AND CALLER PUSH20 0xFFFFFFFFFFFFFFFFFFFFFFFFFFFFFFFFFFFFFFFF AND EQ DUP1 PUSH2 0x1431 JUMPI POP PUSH2 0x1402 PUSH2 0x12E8 JUMP JUMPDEST PUSH20 0xFFFFFFFFFFFFFFFFFFFFFFFFFFFFFFFFFFFFFFFF AND CALLER PUSH20 0xFFFFFFFFFFFFFFFFFFFFFFFFFFFFFFFFFFFFFFFF AND EQ JUMPDEST PUSH2 0x1470 JUMPI PUSH1 0x40 MLOAD PUSH32 0x8C379A000000000000000000000000000000000000000000000000000000000 DUP2 MSTORE PUSH1 0x4 ADD PUSH2 0x1467 SWAP1 PUSH2 0x2FF5 JUMP JUMPDEST PUSH1 0x40 MLOAD DUP1 SWAP2 SUB SWAP1 REVERT JUMPDEST PUSH1 0x5 SLOAD SWAP1 POP SWAP1 JUMP JUMPDEST PUSH1 0x0 DUP1 PUSH20 0xFFFFFFFFFFFFFFFFFFFFFFFFFFFFFFFFFFFFFFFF AND PUSH1 0x1 PUSH1 0x0 SWAP1 SLOAD SWAP1 PUSH2 0x100 EXP SWAP1 DIV PUSH20 0xFFFFFFFFFFFFFFFFFFFFFFFFFFFFFFFFFFFFFFFF AND PUSH20 0xFFFFFFFFFFFFFFFFFFFFFFFFFFFFFFFFFFFFFFFF AND SUB PUSH2 0x150A JUMPI PUSH1 0x40 MLOAD PUSH32 0x8C379A000000000000000000000000000000000000000000000000000000000 DUP2 MSTORE PUSH1 0x4 ADD PUSH2 0x1501 SWAP1 PUSH2 0x2DF9 JUMP JUMPDEST PUSH1 0x40 MLOAD DUP1 SWAP2 SUB SWAP1 REVERT JUMPDEST PUSH1 0x1 PUSH1 0x0 SWAP1 SLOAD SWAP1 PUSH2 0x100 EXP SWAP1 DIV PUSH20 0xFFFFFFFFFFFFFFFFFFFFFFFFFFFFFFFFFFFFFFFF AND PUSH20 0xFFFFFFFFFFFFFFFFFFFFFFFFFFFFFFFFFFFFFFFF AND CALLER PUSH20 0xFFFFFFFFFFFFFFFFFFFFFFFFFFFFFFFFFFFFFFFF AND EQ DUP1 PUSH2 0x1598 JUMPI POP PUSH2 0x1569 PUSH2 0x12E8 JUMP JUMPDEST PUSH20 0xFFFFFFFFFFFFFFFFFFFFFFFFFFFFFFFFFFFFFFFF AND CALLER PUSH20 0xFFFFFFFFFFFFFFFFFFFFFFFFFFFFFFFFFFFFFFFF AND EQ JUMPDEST PUSH2 0x15D7 JUMPI PUSH1 0x40 MLOAD PUSH32 0x8C379A000000000000000000000000000000000000000000000000000000000 DUP2 MSTORE PUSH1 0x4 ADD PUSH2 0x15CE SWAP1 PUSH2 0x2FF5 JUMP JUMPDEST PUSH1 0x40 MLOAD DUP1 SWAP2 SUB SWAP1 REVERT JUMPDEST PUSH1 0x3 SLOAD SWAP1 POP SWAP1 JUMP JUMPDEST PUSH1 0x0 PUSH1 0x60 PUSH1 0x1 PUSH1 0x0 SWAP1 SLOAD SWAP1 PUSH2 0x100 EXP SWAP1 DIV PUSH20 0xFFFFFFFFFFFFFFFFFFFFFFFFFFFFFFFFFFFFFFFF AND PUSH20 0xFFFFFFFFFFFFFFFFFFFFFFFFFFFFFFFFFFFFFFFF AND CALLER PUSH20 0xFFFFFFFFFFFFFFFFFFFFFFFFFFFFFFFFFFFFFFFF AND EQ DUP1 PUSH2 0x1671 JUMPI POP PUSH2 0x1642 PUSH2 0x12E8 JUMP JUMPDEST PUSH20 0xFFFFFFFFFFFFFFFFFFFFFFFFFFFFFFFFFFFFFFFF AND CALLER PUSH20 0xFFFFFFFFFFFFFFFFFFFFFFFFFFFFFFFFFFFFFFFF AND EQ JUMPDEST PUSH2 0x16B0 JUMPI PUSH1 0x40 MLOAD PUSH32 0x8C379A000000000000000000000000000000000000000000000000000000000 DUP2 MSTORE PUSH1 0x4 ADD PUSH2 0x16A7 SWAP1 PUSH2 0x2FF5 JUMP JUMPDEST PUSH1 0x40 MLOAD DUP1 SWAP2 SUB SWAP1 REVERT JUMPDEST PUSH32 0x0 PUSH1 0x6 DUP1 DUP1 SLOAD PUSH2 0x16DF SWAP1 PUSH2 0x2BFC JUMP JUMPDEST DUP1 PUSH1 0x1F ADD PUSH1 0x20 DUP1 SWAP2 DIV MUL PUSH1 0x20 ADD PUSH1 0x40 MLOAD SWAP1 DUP2 ADD PUSH1 0x40 MSTORE DUP1 SWAP3 SWAP2 SWAP1 DUP2 DUP2 MSTORE PUSH1 0x20 ADD DUP3 DUP1 SLOAD PUSH2 0x170B SWAP1 PUSH2 0x2BFC JUMP JUMPDEST DUP1 ISZERO PUSH2 0x1758 JUMPI DUP1 PUSH1 0x1F LT PUSH2 0x172D JUMPI PUSH2 0x100 DUP1 DUP4 SLOAD DIV MUL DUP4 MSTORE SWAP2 PUSH1 0x20 ADD SWAP2 PUSH2 0x1758 JUMP JUMPDEST DUP3 ADD SWAP2 SWAP1 PUSH1 0x0 MSTORE PUSH1 0x20 PUSH1 0x0 KECCAK256 SWAP1 JUMPDEST DUP2 SLOAD DUP2 MSTORE SWAP1 PUSH1 0x1 ADD SWAP1 PUSH1 0x20 ADD DUP1 DUP4 GT PUSH2 0x173B JUMPI DUP3 SWAP1 SUB PUSH1 0x1F AND DUP3 ADD SWAP2 JUMPDEST POP POP POP POP POP SWAP1 POP SWAP2 POP SWAP2 POP SWAP1 SWAP2 JUMP JUMPDEST PUSH2 0x176F PUSH2 0x20F3 JUMP JUMPDEST PUSH1 0x0 PUSH20 0xFFFFFFFFFFFFFFFFFFFFFFFFFFFFFFFFFFFFFFFF AND DUP2 PUSH20 0xFFFFFFFFFFFFFFFFFFFFFFFFFFFFFFFFFFFFFFFF AND SUB PUSH2 0x17A8 JUMPI PUSH1 0x0 DUP1 REVERT JUMPDEST DUP1 PUSH1 0x8 PUSH1 0x0 PUSH2 0x100 EXP DUP2 SLOAD DUP2 PUSH20 0xFFFFFFFFFFFFFFFFFFFFFFFFFFFFFFFFFFFFFFFF MUL NOT AND SWAP1 DUP4 PUSH20 0xFFFFFFFFFFFFFFFFFFFFFFFFFFFFFFFFFFFFFFFF AND MUL OR SWAP1 SSTORE POP POP JUMP JUMPDEST PUSH1 0x0 PUSH2 0x17F6 PUSH2 0x20F3 JUMP JUMPDEST DUP2 PUSH20 0xFFFFFFFFFFFFFFFFFFFFFFFFFFFFFFFFFFFFFFFF AND PUSH4 0x70A08231 ADDRESS PUSH1 0x40 MLOAD DUP3 PUSH4 0xFFFFFFFF AND PUSH1 0xE0 SHL DUP2 MSTORE PUSH1 0x4 ADD PUSH2 0x182F SWAP2 SWAP1 PUSH2 0x2890 JUMP JUMPDEST PUSH1 0x20 PUSH1 0x40 MLOAD DUP1 DUP4 SUB DUP2 DUP7 GAS STATICCALL ISZERO DUP1 ISZERO PUSH2 0x184C JUMPI RETURNDATASIZE PUSH1 0x0 DUP1 RETURNDATACOPY RETURNDATASIZE PUSH1 0x0 REVERT JUMPDEST POP POP POP POP PUSH1 0x40 MLOAD RETURNDATASIZE PUSH1 0x1F NOT PUSH1 0x1F DUP3 ADD AND DUP3 ADD DUP1 PUSH1 0x40 MSTORE POP DUP2 ADD SWAP1 PUSH2 0x1870 SWAP2 SWAP1 PUSH2 0x31F0 JUMP JUMPDEST SWAP1 POP SWAP2 SWAP1 POP JUMP JUMPDEST PUSH1 0x0 PUSH32 0x0 SWAP1 POP SWAP1 JUMP JUMPDEST PUSH1 0x60 PUSH2 0x18A9 PUSH2 0x20F3 JUMP JUMPDEST PUSH1 0x60 PUSH1 0x1 PUSH1 0x14 SWAP1 SLOAD SWAP1 PUSH2 0x100 EXP SWAP1 DIV PUSH1 0xFF AND PUSH2 0x18FD JUMPI PUSH1 0x40 MLOAD DUP1 PUSH1 0x40 ADD PUSH1 0x40 MSTORE DUP1 PUSH1 0xC DUP2 MSTORE PUSH1 0x20 ADD PUSH32 0x41676772656761746F7256330000000000000000000000000000000000000000 DUP2 MSTORE POP SWAP1 POP DUP1 PUSH2 0x1937 JUMP JUMPDEST PUSH1 0x40 MLOAD DUP1 PUSH1 0x40 ADD PUSH1 0x40 MSTORE DUP1 PUSH1 0x4 DUP2 MSTORE PUSH1 0x20 ADD PUSH32 0x506F6F6C00000000000000000000000000000000000000000000000000000000 DUP2 MSTORE POP SWAP1 POP DUP1 JUMPDEST POP DUP1 SWAP2 POP POP SWAP1 JUMP JUMPDEST PUSH2 0x1947 PUSH2 0x20F3 JUMP JUMPDEST PUSH1 0x1 PUSH1 0x14 SWAP1 SLOAD SWAP1 PUSH2 0x100 EXP SWAP1 DIV PUSH1 0xFF AND ISZERO PUSH2 0x1A0B JUMPI PUSH1 0x1 PUSH1 0x14 SWAP1 SLOAD SWAP1 PUSH2 0x100 EXP SWAP1 DIV PUSH1 0xFF AND DUP1 ISZERO PUSH2 0x19C7 JUMPI POP PUSH1 0x0 PUSH20 0xFFFFFFFFFFFFFFFFFFFFFFFFFFFFFFFFFFFFFFFF AND PUSH1 0x7 PUSH1 0x0 SWAP1 SLOAD SWAP1 PUSH2 0x100 EXP SWAP1 DIV PUSH20 0xFFFFFFFFFFFFFFFFFFFFFFFFFFFFFFFFFFFFFFFF AND PUSH20 0xFFFFFFFFFFFFFFFFFFFFFFFFFFFFFFFFFFFFFFFF AND EQ ISZERO JUMPDEST PUSH2 0x1A06 JUMPI PUSH1 0x40 MLOAD PUSH32 0x8C379A000000000000000000000000000000000000000000000000000000000 DUP2 MSTORE PUSH1 0x4 ADD PUSH2 0x19FD SWAP1 PUSH2 0x3541 JUMP JUMPDEST PUSH1 0x40 MLOAD DUP1 SWAP2 SUB SWAP1 REVERT JUMPDEST PUSH2 0x1AB6 JUMP JUMPDEST PUSH1 0x1 PUSH1 0x14 SWAP1 SLOAD SWAP1 PUSH2 0x100 EXP SWAP1 DIV PUSH1 0xFF AND DUP1 ISZERO PUSH2 0x1A76 JUMPI POP PUSH1 0x0 PUSH20 0xFFFFFFFFFFFFFFFFFFFFFFFFFFFFFFFFFFFFFFFF AND PUSH1 0x8 PUSH1 0x0 SWAP1 SLOAD SWAP1 PUSH2 0x100 EXP SWAP1 DIV PUSH20 0xFFFFFFFFFFFFFFFFFFFFFFFFFFFFFFFFFFFFFFFF AND PUSH20 0xFFFFFFFFFFFFFFFFFFFFFFFFFFFFFFFFFFFFFFFF AND EQ ISZERO JUMPDEST PUSH2 0x1AB5 JUMPI PUSH1 0x40 MLOAD PUSH32 0x8C379A000000000000000000000000000000000000000000000000000000000 DUP2 MSTORE PUSH1 0x4 ADD PUSH2 0x1AAC SWAP1 PUSH2 0x35AD JUMP JUMPDEST PUSH1 0x40 MLOAD DUP1 SWAP2 SUB SWAP1 REVERT JUMPDEST JUMPDEST PUSH1 0x1 PUSH1 0x14 SWAP1 SLOAD SWAP1 PUSH2 0x100 EXP SWAP1 DIV PUSH1 0xFF AND ISZERO PUSH1 0x1 PUSH1 0x14 PUSH2 0x100 EXP DUP2 SLOAD DUP2 PUSH1 0xFF MUL NOT AND SWAP1 DUP4 ISZERO ISZERO MUL OR SWAP1 SSTORE POP JUMP JUMPDEST PUSH1 0x0 PUSH2 0x1AEC PUSH2 0x221C JUMP JUMPDEST PUSH1 0x0 PUSH20 0xFFFFFFFFFFFFFFFFFFFFFFFFFFFFFFFFFFFFFFFF AND PUSH1 0x1 PUSH1 0x0 SWAP1 SLOAD SWAP1 PUSH2 0x100 EXP SWAP1 DIV PUSH20 0xFFFFFFFFFFFFFFFFFFFFFFFFFFFFFFFFFFFFFFFF AND PUSH20 0xFFFFFFFFFFFFFFFFFFFFFFFFFFFFFFFFFFFFFFFF AND SUB PUSH2 0x1B7D JUMPI PUSH1 0x40 MLOAD PUSH32 0x8C379A000000000000000000000000000000000000000000000000000000000 DUP2 MSTORE PUSH1 0x4 ADD PUSH2 0x1B74 SWAP1 PUSH2 0x2DF9 JUMP JUMPDEST PUSH1 0x40 MLOAD DUP1 SWAP2 SUB SWAP1 REVERT JUMPDEST PUSH1 0x1 PUSH1 0x0 SWAP1 SLOAD SWAP1 PUSH2 0x100 EXP SWAP1 DIV PUSH20 0xFFFFFFFFFFFFFFFFFFFFFFFFFFFFFFFFFFFFFFFF AND PUSH20 0xFFFFFFFFFFFFFFFFFFFFFFFFFFFFFFFFFFFFFFFF AND CALLER PUSH20 0xFFFFFFFFFFFFFFFFFFFFFFFFFFFFFFFFFFFFFFFF AND EQ PUSH2 0x1C0D JUMPI PUSH1 0x40 MLOAD PUSH32 0x8C379A000000000000000000000000000000000000000000000000000000000 DUP2 MSTORE PUSH1 0x4 ADD PUSH2 0x1C04 SWAP1 PUSH2 0x2E65 JUMP JUMPDEST PUSH1 0x40 MLOAD DUP1 SWAP2 SUB SWAP1 REVERT JUMPDEST PUSH1 0x0 DUP3 GT PUSH2 0x1C50 JUMPI PUSH1 0x40 MLOAD PUSH32 0x8C379A000000000000000000000000000000000000000000000000000000000 DUP2 MSTORE PUSH1 0x4 ADD PUSH2 0x1C47 SWAP1 PUSH2 0x3619 JUMP JUMPDEST PUSH1 0x40 MLOAD DUP1 SWAP2 SUB SWAP1 REVERT JUMPDEST PUSH1 0x0 PUSH32 0x0 PUSH20 0xFFFFFFFFFFFFFFFFFFFFFFFFFFFFFFFFFFFFFFFF AND PUSH4 0xDD62ED3E CALLER ADDRESS PUSH1 0x40 MLOAD DUP4 PUSH4 0xFFFFFFFF AND PUSH1 0xE0 SHL DUP2 MSTORE PUSH1 0x4 ADD PUSH2 0x1CAD SWAP3 SWAP2 SWAP1 PUSH2 0x3639 JUMP JUMPDEST PUSH1 0x20 PUSH1 0x40 MLOAD DUP1 DUP4 SUB DUP2 DUP7 GAS STATICCALL ISZERO DUP1 ISZERO PUSH2 0x1CCA JUMPI RETURNDATASIZE PUSH1 0x0 DUP1 RETURNDATACOPY RETURNDATASIZE PUSH1 0x0 REVERT JUMPDEST POP POP POP POP PUSH1 0x40 MLOAD RETURNDATASIZE PUSH1 0x1F NOT PUSH1 0x1F DUP3 ADD AND DUP3 ADD DUP1 PUSH1 0x40 MSTORE POP DUP2 ADD SWAP1 PUSH2 0x1CEE SWAP2 SWAP1 PUSH2 0x31F0 JUMP JUMPDEST SWAP1 POP DUP3 DUP2 LT ISZERO PUSH1 0x6 PUSH1 0x40 MLOAD PUSH1 0x20 ADD PUSH2 0x1D06 SWAP2 SWAP1 PUSH2 0x36D4 JUMP JUMPDEST PUSH1 0x40 MLOAD PUSH1 0x20 DUP2 DUP4 SUB SUB DUP2 MSTORE SWAP1 PUSH1 0x40 MSTORE SWAP1 PUSH2 0x1D56 JUMPI PUSH1 0x40 MLOAD PUSH32 0x8C379A000000000000000000000000000000000000000000000000000000000 DUP2 MSTORE PUSH1 0x4 ADD PUSH2 0x1D4D SWAP2 SWAP1 PUSH2 0x2A9E JUMP JUMPDEST PUSH1 0x40 MLOAD DUP1 SWAP2 SUB SWAP1 REVERT JUMPDEST POP PUSH32 0x0 PUSH20 0xFFFFFFFFFFFFFFFFFFFFFFFFFFFFFFFFFFFFFFFF AND PUSH4 0x23B872DD CALLER ADDRESS DUP7 PUSH1 0x40 MLOAD DUP5 PUSH4 0xFFFFFFFF AND PUSH1 0xE0 SHL DUP2 MSTORE PUSH1 0x4 ADD PUSH2 0x1DB4 SWAP4 SWAP3 SWAP2 SWAP1 PUSH2 0x3718 JUMP JUMPDEST PUSH1 0x20 PUSH1 0x40 MLOAD DUP1 DUP4 SUB DUP2 PUSH1 0x0 DUP8 GAS CALL ISZERO DUP1 ISZERO PUSH2 0x1DD3 JUMPI RETURNDATASIZE PUSH1 0x0 DUP1 RETURNDATACOPY RETURNDATASIZE PUSH1 0x0 REVERT JUMPDEST POP POP POP POP PUSH1 0x40 MLOAD RETURNDATASIZE PUSH1 0x1F NOT PUSH1 0x1F DUP3 ADD AND DUP3 ADD DUP1 PUSH1 0x40 MSTORE POP DUP2 ADD SWAP1 PUSH2 0x1DF7 SWAP2 SWAP1 PUSH2 0x31AE JUMP JUMPDEST POP PUSH1 0x0 DUP1 PUSH1 0x0 DUP1 PUSH2 0x1E06 PUSH2 0x238D JUMP JUMPDEST SWAP4 POP SWAP4 POP SWAP4 POP SWAP4 POP PUSH1 0x0 DUP5 GT DUP1 ISZERO PUSH2 0x1E1E JUMPI POP PUSH1 0x0 DUP4 GT JUMPDEST DUP1 ISZERO PUSH2 0x1E2A JUMPI POP PUSH1 0x0 DUP2 GT JUMPDEST PUSH2 0x1E69 JUMPI PUSH1 0x40 MLOAD PUSH32 0x8C379A000000000000000000000000000000000000000000000000000000000 DUP2 MSTORE PUSH1 0x4 ADD PUSH2 0x1E60 SWAP1 PUSH2 0x379B JUMP JUMPDEST PUSH1 0x40 MLOAD DUP1 SWAP2 SUB SWAP1 REVERT JUMPDEST PUSH2 0x1E72 DUP8 PUSH2 0x2672 JUMP JUMPDEST POP PUSH1 0x0 PUSH2 0x1E80 DUP9 DUP7 DUP7 PUSH2 0x2763 JUMP JUMPDEST SWAP1 POP DUP1 PUSH1 0x4 PUSH1 0x0 DUP3 DUP3 SLOAD PUSH2 0x1E94 SWAP2 SWAP1 PUSH2 0x2D79 JUMP JUMPDEST SWAP3 POP POP DUP2 SWAP1 SSTORE POP DUP1 PUSH1 0x3 PUSH1 0x0 DUP3 DUP3 SLOAD PUSH2 0x1EAD SWAP2 SWAP1 PUSH2 0x2D79 JUMP JUMPDEST SWAP3 POP POP DUP2 SWAP1 SSTORE POP PUSH1 0x0 TIMESTAMP SWAP1 POP DUP1 DUP10 DUP4 PUSH32 0xB5AEB7B225999ADC33232BE2121AFB1A366C15108C1DA745D17FD76108172FE4 DUP10 DUP10 DUP9 DUP11 PUSH1 0x40 MLOAD PUSH2 0x1EF1 SWAP5 SWAP4 SWAP3 SWAP2 SWAP1 PUSH2 0x37BB JUMP JUMPDEST PUSH1 0x40 MLOAD DUP1 SWAP2 SUB SWAP1 LOG4 PUSH1 0x1 SWAP8 POP POP POP POP POP POP POP POP SWAP2 SWAP1 POP JUMP JUMPDEST PUSH2 0x1F11 PUSH2 0x20F3 JUMP JUMPDEST PUSH1 0x0 PUSH20 0xFFFFFFFFFFFFFFFFFFFFFFFFFFFFFFFFFFFFFFFF AND DUP2 PUSH20 0xFFFFFFFFFFFFFFFFFFFFFFFFFFFFFFFFFFFFFFFF AND SUB PUSH2 0x1F80 JUMPI PUSH1 0x40 MLOAD PUSH32 0x8C379A000000000000000000000000000000000000000000000000000000000 DUP2 MSTORE PUSH1 0x4 ADD PUSH2 0x1F77 SWAP1 PUSH2 0x3879 JUMP JUMPDEST PUSH1 0x40 MLOAD DUP1 SWAP2 SUB SWAP1 REVERT JUMPDEST PUSH2 0x1F89 DUP2 PUSH2 0x22C8 JUMP JUMPDEST POP JUMP JUMPDEST PUSH1 0x0 DUP1 PUSH20 0xFFFFFFFFFFFFFFFFFFFFFFFFFFFFFFFFFFFFFFFF AND PUSH1 0x1 PUSH1 0x0 SWAP1 SLOAD SWAP1 PUSH2 0x100 EXP SWAP1 DIV PUSH20 0xFFFFFFFFFFFFFFFFFFFFFFFFFFFFFFFFFFFFFFFF AND PUSH20 0xFFFFFFFFFFFFFFFFFFFFFFFFFFFFFFFFFFFFFFFF AND SUB PUSH2 0x201E JUMPI PUSH1 0x40 MLOAD PUSH32 0x8C379A000000000000000000000000000000000000000000000000000000000 DUP2 MSTORE PUSH1 0x4 ADD PUSH2 0x2015 SWAP1 PUSH2 0x2DF9 JUMP JUMPDEST PUSH1 0x40 MLOAD DUP1 SWAP2 SUB SWAP1 REVERT JUMPDEST PUSH1 0x1 PUSH1 0x0 SWAP1 SLOAD SWAP1 PUSH2 0x100 EXP SWAP1 DIV PUSH20 0xFFFFFFFFFFFFFFFFFFFFFFFFFFFFFFFFFFFFFFFF AND PUSH20 0xFFFFFFFFFFFFFFFFFFFFFFFFFFFFFFFFFFFFFFFF AND CALLER PUSH20 0xFFFFFFFFFFFFFFFFFFFFFFFFFFFFFFFFFFFFFFFF AND EQ DUP1 PUSH2 0x20AC JUMPI POP PUSH2 0x207D PUSH2 0x12E8 JUMP JUMPDEST PUSH20 0xFFFFFFFFFFFFFFFFFFFFFFFFFFFFFFFFFFFFFFFF AND CALLER PUSH20 0xFFFFFFFFFFFFFFFFFFFFFFFFFFFFFFFFFFFFFFFF AND EQ JUMPDEST PUSH2 0x20EB JUMPI PUSH1 0x40 MLOAD PUSH32 0x8C379A000000000000000000000000000000000000000000000000000000000 DUP2 MSTORE PUSH1 0x4 ADD PUSH2 0x20E2 SWAP1 PUSH2 0x2FF5 JUMP JUMPDEST PUSH1 0x40 MLOAD DUP1 SWAP2 SUB SWAP1 REVERT JUMPDEST PUSH1 0x4 SLOAD SWAP1 POP SWAP1 JUMP JUMPDEST PUSH2 0x20FB PUSH2 0x2791 JUMP JUMPDEST PUSH20 0xFFFFFFFFFFFFFFFFFFFFFFFFFFFFFFFFFFFFFFFF AND PUSH2 0x2119 PUSH2 0x12E8 JUMP JUMPDEST PUSH20 0xFFFFFFFFFFFFFFFFFFFFFFFFFFFFFFFFFFFFFFFF AND EQ PUSH2 0x216F JUMPI PUSH1 0x40 MLOAD PUSH32 0x8C379A000000000000000000000000000000000000000000000000000000000 DUP2 MSTORE PUSH1 0x4 ADD PUSH2 0x2166 SWAP1 PUSH2 0x38E5 JUMP JUMPDEST PUSH1 0x40 MLOAD DUP1 SWAP2 SUB SWAP1 REVERT JUMPDEST JUMP JUMPDEST PUSH2 0x2179 PUSH2 0xF53 JUMP JUMPDEST PUSH2 0x21B8 JUMPI PUSH1 0x40 MLOAD PUSH32 0x8C379A000000000000000000000000000000000000000000000000000000000 DUP2 MSTORE PUSH1 0x4 ADD PUSH2 0x21AF SWAP1 PUSH2 0x3951 JUMP JUMPDEST PUSH1 0x40 MLOAD DUP1 SWAP2 SUB SWAP1 REVERT JUMPDEST JUMP JUMPDEST PUSH2 0x21C2 PUSH2 0x2171 JUMP JUMPDEST PUSH1 0x0 DUP1 PUSH1 0x0 PUSH2 0x100 EXP DUP2 SLOAD DUP2 PUSH1 0xFF MUL NOT AND SWAP1 DUP4 ISZERO ISZERO MUL OR SWAP1 SSTORE POP PUSH32 0x5DB9EE0A495BF2E6FF9C91A7834C1BA4FDD244A5E8AA4E537BD38AEAE4B073AA PUSH2 0x2205 PUSH2 0x2791 JUMP JUMPDEST PUSH1 0x40 MLOAD PUSH2 0x2212 SWAP2 SWAP1 PUSH2 0x2890 JUMP JUMPDEST PUSH1 0x40 MLOAD DUP1 SWAP2 SUB SWAP1 LOG1 JUMP JUMPDEST PUSH2 0x2224 PUSH2 0xF53 JUMP JUMPDEST ISZERO PUSH2 0x2264 JUMPI PUSH1 0x40 MLOAD PUSH32 0x8C379A000000000000000000000000000000000000000000000000000000000 DUP2 MSTORE PUSH1 0x4 ADD PUSH2 0x225B SWAP1 PUSH2 0x39BD JUMP JUMPDEST PUSH1 0x40 MLOAD DUP1 SWAP2 SUB SWAP1 REVERT JUMPDEST JUMP JUMPDEST PUSH2 0x226E PUSH2 0x221C JUMP JUMPDEST PUSH1 0x1 PUSH1 0x0 DUP1 PUSH2 0x100 EXP DUP2 SLOAD DUP2 PUSH1 0xFF MUL NOT AND SWAP1 DUP4 ISZERO ISZERO MUL OR SWAP1 SSTORE POP PUSH32 0x62E78CEA01BEE320CD4E420270B5EA74000D11B0C9F74754EBDBFC544B05A258 PUSH2 0x22B1 PUSH2 0x2791 JUMP JUMPDEST PUSH1 0x40 MLOAD PUSH2 0x22BE SWAP2 SWAP1 PUSH2 0x2890 JUMP JUMPDEST PUSH1 0x40 MLOAD DUP1 SWAP2 SUB SWAP1 LOG1 JUMP JUMPDEST PUSH1 0x0 DUP1 PUSH1 0x1 SWAP1 SLOAD SWAP1 PUSH2 0x100 EXP SWAP1 DIV PUSH20 0xFFFFFFFFFFFFFFFFFFFFFFFFFFFFFFFFFFFFFFFF AND SWAP1 POP DUP2 PUSH1 0x0 PUSH1 0x1 PUSH2 0x100 EXP DUP2 SLOAD DUP2 PUSH20 0xFFFFFFFFFFFFFFFFFFFFFFFFFFFFFFFFFFFFFFFF MUL NOT AND SWAP1 DUP4 PUSH20 0xFFFFFFFFFFFFFFFFFFFFFFFFFFFFFFFFFFFFFFFF AND MUL OR SWAP1 SSTORE POP DUP2 PUSH20 0xFFFFFFFFFFFFFFFFFFFFFFFFFFFFFFFFFFFFFFFF AND DUP2 PUSH20 0xFFFFFFFFFFFFFFFFFFFFFFFFFFFFFFFFFFFFFFFF AND PUSH32 0x8BE0079C531659141344CD1FD0A4F28419497F9722A3DAAFE3B4186F6B6457E0 PUSH1 0x40 MLOAD PUSH1 0x40 MLOAD DUP1 SWAP2 SUB SWAP1 LOG3 POP POP JUMP JUMPDEST PUSH1 0x0 DUP1 PUSH1 0x60 PUSH1 0x0 PUSH1 0x1 PUSH1 0x14 SWAP1 SLOAD SWAP1 PUSH2 0x100 EXP SWAP1 DIV PUSH1 0xFF AND ISZERO PUSH2 0x2458 JUMPI PUSH1 0x1 PUSH1 0x14 SWAP1 SLOAD SWAP1 PUSH2 0x100 EXP SWAP1 DIV PUSH1 0xFF AND DUP1 ISZERO PUSH2 0x2414 JUMPI POP PUSH1 0x0 PUSH20 0xFFFFFFFFFFFFFFFFFFFFFFFFFFFFFFFFFFFFFFFF AND PUSH1 0x8 PUSH1 0x0 SWAP1 SLOAD SWAP1 PUSH2 0x100 EXP SWAP1 DIV PUSH20 0xFFFFFFFFFFFFFFFFFFFFFFFFFFFFFFFFFFFFFFFF AND PUSH20 0xFFFFFFFFFFFFFFFFFFFFFFFFFFFFFFFFFFFFFFFF AND EQ ISZERO JUMPDEST PUSH2 0x2453 JUMPI PUSH1 0x40 MLOAD PUSH32 0x8C379A000000000000000000000000000000000000000000000000000000000 DUP2 MSTORE PUSH1 0x4 ADD PUSH2 0x244A SWAP1 PUSH2 0x35AD JUMP JUMPDEST PUSH1 0x40 MLOAD DUP1 SWAP2 SUB SWAP1 REVERT JUMPDEST PUSH2 0x2503 JUMP JUMPDEST PUSH1 0x1 PUSH1 0x14 SWAP1 SLOAD SWAP1 PUSH2 0x100 EXP SWAP1 DIV PUSH1 0xFF AND DUP1 ISZERO PUSH2 0x24C3 JUMPI POP PUSH1 0x0 PUSH20 0xFFFFFFFFFFFFFFFFFFFFFFFFFFFFFFFFFFFFFFFF AND PUSH1 0x7 PUSH1 0x0 SWAP1 SLOAD SWAP1 PUSH2 0x100 EXP SWAP1 DIV PUSH20 0xFFFFFFFFFFFFFFFFFFFFFFFFFFFFFFFFFFFFFFFF AND PUSH20 0xFFFFFFFFFFFFFFFFFFFFFFFFFFFFFFFFFFFFFFFF AND EQ ISZERO JUMPDEST PUSH2 0x2502 JUMPI PUSH1 0x40 MLOAD PUSH32 0x8C379A000000000000000000000000000000000000000000000000000000000 DUP2 MSTORE PUSH1 0x4 ADD PUSH2 0x24F9 SWAP1 PUSH2 0x3541 JUMP JUMPDEST PUSH1 0x40 MLOAD DUP1 SWAP2 SUB SWAP1 REVERT JUMPDEST JUMPDEST PUSH1 0x0 DUP1 PUSH1 0x0 DUP1 PUSH1 0x1 PUSH1 0x14 SWAP1 SLOAD SWAP1 PUSH2 0x100 EXP SWAP1 DIV PUSH1 0xFF AND ISZERO PUSH2 0x25BB JUMPI PUSH1 0x8 PUSH1 0x0 SWAP1 SLOAD SWAP1 PUSH2 0x100 EXP SWAP1 DIV PUSH20 0xFFFFFFFFFFFFFFFFFFFFFFFFFFFFFFFFFFFFFFFF AND PUSH20 0xFFFFFFFFFFFFFFFFFFFFFFFFFFFFFFFFFFFFFFFF AND PUSH4 0x454D1256 PUSH1 0x40 MLOAD DUP2 PUSH4 0xFFFFFFFF AND PUSH1 0xE0 SHL DUP2 MSTORE PUSH1 0x4 ADD PUSH1 0x0 PUSH1 0x40 MLOAD DUP1 DUP4 SUB DUP2 PUSH1 0x0 DUP8 GAS CALL ISZERO DUP1 ISZERO PUSH2 0x258D JUMPI RETURNDATASIZE PUSH1 0x0 DUP1 RETURNDATACOPY RETURNDATASIZE PUSH1 0x0 REVERT JUMPDEST POP POP POP POP PUSH1 0x40 MLOAD RETURNDATASIZE PUSH1 0x0 DUP3 RETURNDATACOPY RETURNDATASIZE PUSH1 0x1F NOT PUSH1 0x1F DUP3 ADD AND DUP3 ADD DUP1 PUSH1 0x40 MSTORE POP DUP2 ADD SWAP1 PUSH2 0x25B6 SWAP2 SWAP1 PUSH2 0x3B03 JUMP JUMPDEST PUSH2 0x2654 JUMP JUMPDEST PUSH1 0x7 PUSH1 0x0 SWAP1 SLOAD SWAP1 PUSH2 0x100 EXP SWAP1 DIV PUSH20 0xFFFFFFFFFFFFFFFFFFFFFFFFFFFFFFFFFFFFFFFF AND PUSH20 0xFFFFFFFFFFFFFFFFFFFFFFFFFFFFFFFFFFFFFFFF AND PUSH4 0xE1E7FF77 PUSH1 0x40 MLOAD DUP2 PUSH4 0xFFFFFFFF AND PUSH1 0xE0 SHL DUP2 MSTORE PUSH1 0x4 ADD PUSH1 0x0 PUSH1 0x40 MLOAD DUP1 DUP4 SUB DUP2 PUSH1 0x0 DUP8 GAS CALL ISZERO DUP1 ISZERO PUSH2 0x262A JUMPI RETURNDATASIZE PUSH1 0x0 DUP1 RETURNDATACOPY RETURNDATASIZE PUSH1 0x0 REVERT JUMPDEST POP POP POP POP PUSH1 0x40 MLOAD RETURNDATASIZE PUSH1 0x0 DUP3 RETURNDATACOPY RETURNDATASIZE PUSH1 0x1F NOT PUSH1 0x1F DUP3 ADD AND DUP3 ADD DUP1 PUSH1 0x40 MSTORE POP DUP2 ADD SWAP1 PUSH2 0x2653 SWAP2 SWAP1 PUSH2 0x3B03 JUMP JUMPDEST JUMPDEST SWAP4 POP SWAP4 POP SWAP4 POP SWAP4 POP DUP4 DUP4 DUP4 DUP4 SWAP8 POP SWAP8 POP SWAP8 POP SWAP8 POP POP POP POP POP SWAP1 SWAP2 SWAP3 SWAP4 JUMP JUMPDEST PUSH1 0x0 DUP1 DUP3 GT PUSH2 0x26B6 JUMPI PUSH1 0x40 MLOAD PUSH32 0x8C379A000000000000000000000000000000000000000000000000000000000 DUP2 MSTORE PUSH1 0x4 ADD PUSH2 0x26AD SWAP1 PUSH2 0x3BD2 JUMP JUMPDEST PUSH1 0x40 MLOAD DUP1 SWAP2 SUB SWAP1 REVERT JUMPDEST PUSH32 0x0 PUSH20 0xFFFFFFFFFFFFFFFFFFFFFFFFFFFFFFFFFFFFFFFF AND PUSH4 0x42966C68 DUP4 PUSH1 0x40 MLOAD DUP3 PUSH4 0xFFFFFFFF AND PUSH1 0xE0 SHL DUP2 MSTORE PUSH1 0x4 ADD PUSH2 0x270F SWAP2 SWAP1 PUSH2 0x28E7 JUMP JUMPDEST PUSH1 0x0 PUSH1 0x40 MLOAD DUP1 DUP4 SUB DUP2 PUSH1 0x0 DUP8 DUP1 EXTCODESIZE ISZERO DUP1 ISZERO PUSH2 0x2729 JUMPI PUSH1 0x0 DUP1 REVERT JUMPDEST POP GAS CALL ISZERO DUP1 ISZERO PUSH2 0x273D JUMPI RETURNDATASIZE PUSH1 0x0 DUP1 RETURNDATACOPY RETURNDATASIZE PUSH1 0x0 REVERT JUMPDEST POP POP POP POP DUP2 PUSH1 0x2 PUSH1 0x0 DUP3 DUP3 SLOAD PUSH2 0x2753 SWAP2 SWAP1 PUSH2 0x2D79 JUMP JUMPDEST SWAP3 POP POP DUP2 SWAP1 SSTORE POP PUSH1 0x1 SWAP1 POP SWAP2 SWAP1 POP JUMP JUMPDEST PUSH1 0x0 DUP2 PUSH1 0xA PUSH2 0x2772 SWAP2 SWAP1 PUSH2 0x33E2 JUMP JUMPDEST DUP4 DUP6 PUSH2 0x277E SWAP2 SWAP1 PUSH2 0x342D JUMP JUMPDEST PUSH2 0x2788 SWAP2 SWAP1 PUSH2 0x349E JUMP JUMPDEST SWAP1 POP SWAP4 SWAP3 POP POP POP JUMP JUMPDEST PUSH1 0x0 CALLER SWAP1 POP SWAP1 JUMP JUMPDEST PUSH1 0x0 PUSH1 0x40 MLOAD SWAP1 POP SWAP1 JUMP JUMPDEST PUSH1 0x0 DUP1 REVERT JUMPDEST PUSH1 0x0 DUP1 REVERT JUMPDEST PUSH1 0x0 DUP2 SWAP1 POP SWAP2 SWAP1 POP JUMP JUMPDEST PUSH2 0x27C0 DUP2 PUSH2 0x27AD JUMP JUMPDEST DUP2 EQ PUSH2 0x27CB JUMPI PUSH1 0x0 DUP1 REVERT JUMPDEST POP JUMP JUMPDEST PUSH1 0x0 DUP2 CALLDATALOAD SWAP1 POP PUSH2 0x27DD DUP2 PUSH2 0x27B7 JUMP JUMPDEST SWAP3 SWAP2 POP POP JUMP JUMPDEST PUSH1 0x0 PUSH20 0xFFFFFFFFFFFFFFFFFFFFFFFFFFFFFFFFFFFFFFFF DUP3 AND SWAP1 POP SWAP2 SWAP1 POP JUMP JUMPDEST PUSH1 0x0 PUSH2 0x280E DUP3 PUSH2 0x27E3 JUMP JUMPDEST SWAP1 POP SWAP2 SWAP1 POP JUMP JUMPDEST PUSH2 0x281E DUP2 PUSH2 0x2803 JUMP JUMPDEST DUP2 EQ PUSH2 0x2829 JUMPI PUSH1 0x0 DUP1 REVERT JUMPDEST POP JUMP JUMPDEST PUSH1 0x0 DUP2 CALLDATALOAD SWAP1 POP PUSH2 0x283B DUP2 PUSH2 0x2815 JUMP JUMPDEST SWAP3 SWAP2 POP POP JUMP JUMPDEST PUSH1 0x0 DUP1 PUSH1 0x40 DUP4 DUP6 SUB SLT ISZERO PUSH2 0x2858 JUMPI PUSH2 0x2857 PUSH2 0x27A3 JUMP JUMPDEST JUMPDEST PUSH1 0x0 PUSH2 0x2866 DUP6 DUP3 DUP7 ADD PUSH2 0x27CE JUMP JUMPDEST SWAP3 POP POP PUSH1 0x20 PUSH2 0x2877 DUP6 DUP3 DUP7 ADD PUSH2 0x282C JUMP JUMPDEST SWAP2 POP POP SWAP3 POP SWAP3 SWAP1 POP JUMP JUMPDEST PUSH2 0x288A DUP2 PUSH2 0x2803 JUMP JUMPDEST DUP3 MSTORE POP POP JUMP JUMPDEST PUSH1 0x0 PUSH1 0x20 DUP3 ADD SWAP1 POP PUSH2 0x28A5 PUSH1 0x0 DUP4 ADD DUP5 PUSH2 0x2881 JUMP JUMPDEST SWAP3 SWAP2 POP POP JUMP JUMPDEST PUSH1 0x0 PUSH1 0x20 DUP3 DUP5 SUB SLT ISZERO PUSH2 0x28C1 JUMPI PUSH2 0x28C0 PUSH2 0x27A3 JUMP JUMPDEST JUMPDEST PUSH1 0x0 PUSH2 0x28CF DUP5 DUP3 DUP6 ADD PUSH2 0x282C JUMP JUMPDEST SWAP2 POP POP SWAP3 SWAP2 POP POP JUMP JUMPDEST PUSH2 0x28E1 DUP2 PUSH2 0x27AD JUMP JUMPDEST DUP3 MSTORE POP POP JUMP JUMPDEST PUSH1 0x0 PUSH1 0x20 DUP3 ADD SWAP1 POP PUSH2 0x28FC PUSH1 0x0 DUP4 ADD DUP5 PUSH2 0x28D8 JUMP JUMPDEST SWAP3 SWAP2 POP POP JUMP JUMPDEST PUSH1 0x0 DUP2 ISZERO ISZERO SWAP1 POP SWAP2 SWAP1 POP JUMP JUMPDEST PUSH2 0x2917 DUP2 PUSH2 0x2902 JUMP JUMPDEST DUP3 MSTORE POP POP JUMP JUMPDEST PUSH1 0x0 PUSH1 0x20 DUP3 ADD SWAP1 POP PUSH2 0x2932 PUSH1 0x0 DUP4 ADD DUP5 PUSH2 0x290E JUMP JUMPDEST SWAP3 SWAP2 POP POP JUMP JUMPDEST PUSH1 0x0 DUP1 PUSH1 0x0 PUSH1 0x60 DUP5 DUP7 SUB SLT ISZERO PUSH2 0x2951 JUMPI PUSH2 0x2950 PUSH2 0x27A3 JUMP JUMPDEST JUMPDEST PUSH1 0x0 PUSH2 0x295F DUP7 DUP3 DUP8 ADD PUSH2 0x282C JUMP JUMPDEST SWAP4 POP POP PUSH1 0x20 PUSH2 0x2970 DUP7 DUP3 DUP8 ADD PUSH2 0x282C JUMP JUMPDEST SWAP3 POP POP PUSH1 0x40 PUSH2 0x2981 DUP7 DUP3 DUP8 ADD PUSH2 0x27CE JUMP JUMPDEST SWAP2 POP POP SWAP3 POP SWAP3 POP SWAP3 JUMP JUMPDEST PUSH1 0x0 DUP1 PUSH1 0x0 PUSH1 0x60 DUP5 DUP7 SUB SLT ISZERO PUSH2 0x29A4 JUMPI PUSH2 0x29A3 PUSH2 0x27A3 JUMP JUMPDEST JUMPDEST PUSH1 0x0 PUSH2 0x29B2 DUP7 DUP3 DUP8 ADD PUSH2 0x27CE JUMP JUMPDEST SWAP4 POP POP PUSH1 0x20 PUSH2 0x29C3 DUP7 DUP3 DUP8 ADD PUSH2 0x27CE JUMP JUMPDEST SWAP3 POP POP PUSH1 0x40 PUSH2 0x29D4 DUP7 DUP3 DUP8 ADD PUSH2 0x27CE JUMP JUMPDEST SWAP2 POP POP SWAP3 POP SWAP3 POP SWAP3 JUMP JUMPDEST PUSH1 0x0 DUP2 MLOAD SWAP1 POP SWAP2 SWAP1 POP JUMP JUMPDEST PUSH1 0x0 DUP3 DUP3 MSTORE PUSH1 0x20 DUP3 ADD SWAP1 POP SWAP3 SWAP2 POP POP JUMP JUMPDEST PUSH1 0x0 JUMPDEST DUP4 DUP2 LT ISZERO PUSH2 0x2A18 JUMPI DUP1 DUP3 ADD MLOAD DUP2 DUP5 ADD MSTORE PUSH1 0x20 DUP2 ADD SWAP1 POP PUSH2 0x29FD JUMP JUMPDEST PUSH1 0x0 DUP5 DUP5 ADD MSTORE POP POP POP POP JUMP JUMPDEST PUSH1 0x0 PUSH1 0x1F NOT PUSH1 0x1F DUP4 ADD AND SWAP1 POP SWAP2 SWAP1 POP JUMP JUMPDEST PUSH1 0x0 PUSH2 0x2A40 DUP3 PUSH2 0x29DE JUMP JUMPDEST PUSH2 0x2A4A DUP2 DUP6 PUSH2 0x29E9 JUMP JUMPDEST SWAP4 POP PUSH2 0x2A5A DUP2 DUP6 PUSH1 0x20 DUP7 ADD PUSH2 0x29FA JUMP JUMPDEST PUSH2 0x2A63 DUP2 PUSH2 0x2A24 JUMP JUMPDEST DUP5 ADD SWAP2 POP POP SWAP3 SWAP2 POP POP JUMP JUMPDEST PUSH1 0x0 PUSH1 0x40 DUP3 ADD SWAP1 POP PUSH2 0x2A83 PUSH1 0x0 DUP4 ADD DUP6 PUSH2 0x2881 JUMP JUMPDEST DUP2 DUP2 SUB PUSH1 0x20 DUP4 ADD MSTORE PUSH2 0x2A95 DUP2 DUP5 PUSH2 0x2A35 JUMP JUMPDEST SWAP1 POP SWAP4 SWAP3 POP POP POP JUMP JUMPDEST PUSH1 0x0 PUSH1 0x20 DUP3 ADD SWAP1 POP DUP2 DUP2 SUB PUSH1 0x0 DUP4 ADD MSTORE PUSH2 0x2AB8 DUP2 DUP5 PUSH2 0x2A35 JUMP JUMPDEST SWAP1 POP SWAP3 SWAP2 POP POP JUMP JUMPDEST PUSH1 0x0 PUSH1 0x20 DUP3 DUP5 SUB SLT ISZERO PUSH2 0x2AD6 JUMPI PUSH2 0x2AD5 PUSH2 0x27A3 JUMP JUMPDEST JUMPDEST PUSH1 0x0 PUSH2 0x2AE4 DUP5 DUP3 DUP6 ADD PUSH2 0x27CE JUMP JUMPDEST SWAP2 POP POP SWAP3 SWAP2 POP POP JUMP JUMPDEST PUSH32 0x4E487B7100000000000000000000000000000000000000000000000000000000 PUSH1 0x0 MSTORE PUSH1 0x11 PUSH1 0x4 MSTORE PUSH1 0x24 PUSH1 0x0 REVERT JUMPDEST PUSH1 0x0 PUSH2 0x2B27 DUP3 PUSH2 0x27AD JUMP JUMPDEST SWAP2 POP PUSH2 0x2B32 DUP4 PUSH2 0x27AD JUMP JUMPDEST SWAP3 POP DUP3 DUP3 SUB SWAP1 POP DUP2 DUP2 GT ISZERO PUSH2 0x2B4A JUMPI PUSH2 0x2B49 PUSH2 0x2AED JUMP JUMPDEST JUMPDEST SWAP3 SWAP2 POP POP JUMP JUMPDEST PUSH1 0x0 DUP2 SWAP1 POP SWAP3 SWAP2 POP POP JUMP JUMPDEST PUSH32 0x4E6F7420656E6F75676820706F696E74732E2054686520636F6E747261637420 PUSH1 0x0 DUP3 ADD MSTORE PUSH32 0x6D75737420626520636861726765642077697468206D6F726520000000000000 PUSH1 0x20 DUP3 ADD MSTORE POP JUMP JUMPDEST PUSH1 0x0 PUSH2 0x2BB7 PUSH1 0x3A DUP4 PUSH2 0x2B50 JUMP JUMPDEST SWAP2 POP PUSH2 0x2BC2 DUP3 PUSH2 0x2B5B JUMP JUMPDEST PUSH1 0x3A DUP3 ADD SWAP1 POP SWAP2 SWAP1 POP JUMP JUMPDEST PUSH32 0x4E487B7100000000000000000000000000000000000000000000000000000000 PUSH1 0x0 MSTORE PUSH1 0x22 PUSH1 0x4 MSTORE PUSH1 0x24 PUSH1 0x0 REVERT JUMPDEST PUSH1 0x0 PUSH1 0x2 DUP3 DIV SWAP1 POP PUSH1 0x1 DUP3 AND DUP1 PUSH2 0x2C14 JUMPI PUSH1 0x7F DUP3 AND SWAP2 POP JUMPDEST PUSH1 0x20 DUP3 LT DUP2 SUB PUSH2 0x2C27 JUMPI PUSH2 0x2C26 PUSH2 0x2BCD JUMP JUMPDEST JUMPDEST POP SWAP2 SWAP1 POP JUMP JUMPDEST PUSH1 0x0 DUP2 SWAP1 POP DUP2 PUSH1 0x0 MSTORE PUSH1 0x20 PUSH1 0x0 KECCAK256 SWAP1 POP SWAP2 SWAP1 POP JUMP JUMPDEST PUSH1 0x0 DUP2 SLOAD PUSH2 0x2C4F DUP2 PUSH2 0x2BFC JUMP JUMPDEST PUSH2 0x2C59 DUP2 DUP7 PUSH2 0x2B50 JUMP JUMPDEST SWAP5 POP PUSH1 0x1 DUP3 AND PUSH1 0x0 DUP2 EQ PUSH2 0x2C74 JUMPI PUSH1 0x1 DUP2 EQ PUSH2 0x2C89 JUMPI PUSH2 0x2CBC JUMP JUMPDEST PUSH1 0xFF NOT DUP4 AND DUP7 MSTORE DUP2 ISZERO ISZERO DUP3 MUL DUP7 ADD SWAP4 POP PUSH2 0x2CBC JUMP JUMPDEST PUSH2 0x2C92 DUP6 PUSH2 0x2C2D JUMP JUMPDEST PUSH1 0x0 JUMPDEST DUP4 DUP2 LT ISZERO PUSH2 0x2CB4 JUMPI DUP2 SLOAD DUP2 DUP10 ADD MSTORE PUSH1 0x1 DUP3 ADD SWAP2 POP PUSH1 0x20 DUP2 ADD SWAP1 POP PUSH2 0x2C95 JUMP JUMPDEST DUP4 DUP9 ADD SWAP6 POP POP POP JUMPDEST POP POP POP SWAP3 SWAP2 POP POP JUMP JUMPDEST PUSH1 0x0 PUSH2 0x2CD0 DUP3 PUSH2 0x2BAA JUMP JUMPDEST SWAP2 POP PUSH2 0x2CDC DUP3 DUP5 PUSH2 0x2C42 JUMP JUMPDEST SWAP2 POP DUP2 SWAP1 POP SWAP3 SWAP2 POP POP JUMP JUMPDEST PUSH32 0x57697468647261772076616C7565206D75737420626520677265617465722074 PUSH1 0x0 DUP3 ADD MSTORE PUSH32 0x68616E2030000000000000000000000000000000000000000000000000000000 PUSH1 0x20 DUP3 ADD MSTORE POP JUMP JUMPDEST PUSH1 0x0 PUSH2 0x2D43 PUSH1 0x25 DUP4 PUSH2 0x29E9 JUMP JUMPDEST SWAP2 POP PUSH2 0x2D4E DUP3 PUSH2 0x2CE7 JUMP JUMPDEST PUSH1 0x40 DUP3 ADD SWAP1 POP SWAP2 SWAP1 POP JUMP JUMPDEST PUSH1 0x0 PUSH1 0x20 DUP3 ADD SWAP1 POP DUP2 DUP2 SUB PUSH1 0x0 DUP4 ADD MSTORE PUSH2 0x2D72 DUP2 PUSH2 0x2D36 JUMP JUMPDEST SWAP1 POP SWAP2 SWAP1 POP JUMP JUMPDEST PUSH1 0x0 PUSH2 0x2D84 DUP3 PUSH2 0x27AD JUMP JUMPDEST SWAP2 POP PUSH2 0x2D8F DUP4 PUSH2 0x27AD JUMP JUMPDEST SWAP3 POP DUP3 DUP3 ADD SWAP1 POP DUP1 DUP3 GT ISZERO PUSH2 0x2DA7 JUMPI PUSH2 0x2DA6 PUSH2 0x2AED JUMP JUMPDEST JUMPDEST SWAP3 SWAP2 POP POP JUMP JUMPDEST PUSH32 0x4E6F74206163746976617465642E000000000000000000000000000000000000 PUSH1 0x0 DUP3 ADD MSTORE POP JUMP JUMPDEST PUSH1 0x0 PUSH2 0x2DE3 PUSH1 0xE DUP4 PUSH2 0x29E9 JUMP JUMPDEST SWAP2 POP PUSH2 0x2DEE DUP3 PUSH2 0x2DAD JUMP JUMPDEST PUSH1 0x20 DUP3 ADD SWAP1 POP SWAP2 SWAP1 POP JUMP JUMPDEST PUSH1 0x0 PUSH1 0x20 DUP3 ADD SWAP1 POP DUP2 DUP2 SUB PUSH1 0x0 DUP4 ADD MSTORE PUSH2 0x2E12 DUP2 PUSH2 0x2DD6 JUMP JUMPDEST SWAP1 POP SWAP2 SWAP1 POP JUMP JUMPDEST PUSH32 0x4E6F7420417574686F72697A6564210000000000000000000000000000000000 PUSH1 0x0 DUP3 ADD MSTORE POP JUMP JUMPDEST PUSH1 0x0 PUSH2 0x2E4F PUSH1 0xF DUP4 PUSH2 0x29E9 JUMP JUMPDEST SWAP2 POP PUSH2 0x2E5A DUP3 PUSH2 0x2E19 JUMP JUMPDEST PUSH1 0x20 DUP3 ADD SWAP1 POP SWAP2 SWAP1 POP JUMP JUMPDEST PUSH1 0x0 PUSH1 0x20 DUP3 ADD SWAP1 POP DUP2 DUP2 SUB PUSH1 0x0 DUP4 ADD MSTORE PUSH2 0x2E7E DUP2 PUSH2 0x2E42 JUMP JUMPDEST SWAP1 POP SWAP2 SWAP1 POP JUMP JUMPDEST PUSH32 0x43616E2774206163746976617465207769746820746869732061646472657373 PUSH1 0x0 DUP3 ADD MSTORE PUSH32 0x2100000000000000000000000000000000000000000000000000000000000000 PUSH1 0x20 DUP3 ADD MSTORE POP JUMP JUMPDEST PUSH1 0x0 PUSH2 0x2EE1 PUSH1 0x21 DUP4 PUSH2 0x29E9 JUMP JUMPDEST SWAP2 POP PUSH2 0x2EEC DUP3 PUSH2 0x2E85 JUMP JUMPDEST PUSH1 0x40 DUP3 ADD SWAP1 POP SWAP2 SWAP1 POP JUMP JUMPDEST PUSH1 0x0 PUSH1 0x20 DUP3 ADD SWAP1 POP DUP2 DUP2 SUB PUSH1 0x0 DUP4 ADD MSTORE PUSH2 0x2F10 DUP2 PUSH2 0x2ED4 JUMP JUMPDEST SWAP1 POP SWAP2 SWAP1 POP JUMP JUMPDEST PUSH32 0x416C7265616479206163746976617465642E0000000000000000000000000000 PUSH1 0x0 DUP3 ADD MSTORE POP JUMP JUMPDEST PUSH1 0x0 PUSH2 0x2F4D PUSH1 0x12 DUP4 PUSH2 0x29E9 JUMP JUMPDEST SWAP2 POP PUSH2 0x2F58 DUP3 PUSH2 0x2F17 JUMP JUMPDEST PUSH1 0x20 DUP3 ADD SWAP1 POP SWAP2 SWAP1 POP JUMP JUMPDEST PUSH1 0x0 PUSH1 0x20 DUP3 ADD SWAP1 POP DUP2 DUP2 SUB PUSH1 0x0 DUP4 ADD MSTORE PUSH2 0x2F7C DUP2 PUSH2 0x2F40 JUMP JUMPDEST SWAP1 POP SWAP2 SWAP1 POP JUMP JUMPDEST PUSH32 0x4F6E6C79204F776E6572206F7220417574686F72697A65642070617274696369 PUSH1 0x0 DUP3 ADD MSTORE PUSH32 0x7061746F72210000000000000000000000000000000000000000000000000000 PUSH1 0x20 DUP3 ADD MSTORE POP JUMP JUMPDEST PUSH1 0x0 PUSH2 0x2FDF PUSH1 0x26 DUP4 PUSH2 0x29E9 JUMP JUMPDEST SWAP2 POP PUSH2 0x2FEA DUP3 PUSH2 0x2F83 JUMP JUMPDEST PUSH1 0x40 DUP3 ADD SWAP1 POP SWAP2 SWAP1 POP JUMP JUMPDEST PUSH1 0x0 PUSH1 0x20 DUP3 ADD SWAP1 POP DUP2 DUP2 SUB PUSH1 0x0 DUP4 ADD MSTORE PUSH2 0x300E DUP2 PUSH2 0x2FD2 JUMP JUMPDEST SWAP1 POP SWAP2 SWAP1 POP JUMP JUMPDEST PUSH32 0x4E6F7468696E6720746F2077697468647261772E000000000000000000000000 PUSH1 0x0 DUP3 ADD MSTORE POP JUMP JUMPDEST PUSH1 0x0 PUSH2 0x304B PUSH1 0x14 DUP4 PUSH2 0x29E9 JUMP JUMPDEST SWAP2 POP PUSH2 0x3056 DUP3 PUSH2 0x3015 JUMP JUMPDEST PUSH1 0x20 DUP3 ADD SWAP1 POP SWAP2 SWAP1 POP JUMP JUMPDEST PUSH1 0x0 PUSH1 0x20 DUP3 ADD SWAP1 POP DUP2 DUP2 SUB PUSH1 0x0 DUP4 ADD MSTORE PUSH2 0x307A DUP2 PUSH2 0x303E JUMP JUMPDEST SWAP1 POP SWAP2 SWAP1 POP JUMP JUMPDEST PUSH32 0x4E6F7420656E6F7567682062616C616E636520666F7220776974686472617721 PUSH1 0x0 DUP3 ADD MSTORE POP JUMP JUMPDEST PUSH1 0x0 PUSH2 0x30B7 PUSH1 0x20 DUP4 PUSH2 0x29E9 JUMP JUMPDEST SWAP2 POP PUSH2 0x30C2 DUP3 PUSH2 0x3081 JUMP JUMPDEST PUSH1 0x20 DUP3 ADD SWAP1 POP SWAP2 SWAP1 POP JUMP JUMPDEST PUSH1 0x0 PUSH1 0x20 DUP3 ADD SWAP1 POP DUP2 DUP2 SUB PUSH1 0x0 DUP4 ADD MSTORE PUSH2 0x30E6 DUP2 PUSH2 0x30AA JUMP JUMPDEST SWAP1 POP SWAP2 SWAP1 POP JUMP JUMPDEST PUSH32 0x4E6F7420656E6F7567682062616C616E63652100000000000000000000000000 PUSH1 0x0 DUP3 ADD MSTORE POP JUMP JUMPDEST PUSH1 0x0 PUSH2 0x3123 PUSH1 0x13 DUP4 PUSH2 0x29E9 JUMP JUMPDEST SWAP2 POP PUSH2 0x312E DUP3 PUSH2 0x30ED JUMP JUMPDEST PUSH1 0x20 DUP3 ADD SWAP1 POP SWAP2 SWAP1 POP JUMP JUMPDEST PUSH1 0x0 PUSH1 0x20 DUP3 ADD SWAP1 POP DUP2 DUP2 SUB PUSH1 0x0 DUP4 ADD MSTORE PUSH2 0x3152 DUP2 PUSH2 0x3116 JUMP JUMPDEST SWAP1 POP SWAP2 SWAP1 POP JUMP JUMPDEST PUSH1 0x0 PUSH1 0x40 DUP3 ADD SWAP1 POP PUSH2 0x316E PUSH1 0x0 DUP4 ADD DUP6 PUSH2 0x2881 JUMP JUMPDEST PUSH2 0x317B PUSH1 0x20 DUP4 ADD DUP5 PUSH2 0x28D8 JUMP JUMPDEST SWAP4 SWAP3 POP POP POP JUMP JUMPDEST PUSH2 0x318B DUP2 PUSH2 0x2902 JUMP JUMPDEST DUP2 EQ PUSH2 0x3196 JUMPI PUSH1 0x0 DUP1 REVERT JUMPDEST POP JUMP JUMPDEST PUSH1 0x0 DUP2 MLOAD SWAP1 POP PUSH2 0x31A8 DUP2 PUSH2 0x3182 JUMP JUMPDEST SWAP3 SWAP2 POP POP JUMP JUMPDEST PUSH1 0x0 PUSH1 0x20 DUP3 DUP5 SUB SLT ISZERO PUSH2 0x31C4 JUMPI PUSH2 0x31C3 PUSH2 0x27A3 JUMP JUMPDEST JUMPDEST PUSH1 0x0 PUSH2 0x31D2 DUP5 DUP3 DUP6 ADD PUSH2 0x3199 JUMP JUMPDEST SWAP2 POP POP SWAP3 SWAP2 POP POP JUMP JUMPDEST PUSH1 0x0 DUP2 MLOAD SWAP1 POP PUSH2 0x31EA DUP2 PUSH2 0x27B7 JUMP JUMPDEST SWAP3 SWAP2 POP POP JUMP JUMPDEST PUSH1 0x0 PUSH1 0x20 DUP3 DUP5 SUB SLT ISZERO PUSH2 0x3206 JUMPI PUSH2 0x3205 PUSH2 0x27A3 JUMP JUMPDEST JUMPDEST PUSH1 0x0 PUSH2 0x3214 DUP5 DUP3 DUP6 ADD PUSH2 0x31DB JUMP JUMPDEST SWAP2 POP POP SWAP3 SWAP2 POP POP JUMP JUMPDEST PUSH32 0x526174652C20706F696E747320616E6420646563696D616C73206D7573742062 PUSH1 0x0 DUP3 ADD MSTORE PUSH32 0x652067726561746572207468616E207A65726F00000000000000000000000000 PUSH1 0x20 DUP3 ADD MSTORE POP JUMP JUMPDEST PUSH1 0x0 PUSH2 0x3279 PUSH1 0x33 DUP4 PUSH2 0x29E9 JUMP JUMPDEST SWAP2 POP PUSH2 0x3284 DUP3 PUSH2 0x321D JUMP JUMPDEST PUSH1 0x40 DUP3 ADD SWAP1 POP SWAP2 SWAP1 POP JUMP JUMPDEST PUSH1 0x0 PUSH1 0x20 DUP3 ADD SWAP1 POP DUP2 DUP2 SUB PUSH1 0x0 DUP4 ADD MSTORE PUSH2 0x32A8 DUP2 PUSH2 0x326C JUMP JUMPDEST SWAP1 POP SWAP2 SWAP1 POP JUMP JUMPDEST PUSH1 0x0 DUP2 PUSH1 0x1 SHR SWAP1 POP SWAP2 SWAP1 POP JUMP JUMPDEST PUSH1 0x0 DUP1 DUP3 SWAP2 POP DUP4 SWAP1 POP JUMPDEST PUSH1 0x1 DUP6 GT ISZERO PUSH2 0x3306 JUMPI DUP1 DUP7 DIV DUP2 GT ISZERO PUSH2 0x32E2 JUMPI PUSH2 0x32E1 PUSH2 0x2AED JUMP JUMPDEST JUMPDEST PUSH1 0x1 DUP6 AND ISZERO PUSH2 0x32F1 JUMPI DUP1 DUP3 MUL SWAP2 POP JUMPDEST DUP1 DUP2 MUL SWAP1 POP PUSH2 0x32FF DUP6 PUSH2 0x32AF JUMP JUMPDEST SWAP5 POP PUSH2 0x32C6 JUMP JUMPDEST SWAP5 POP SWAP5 SWAP3 POP POP POP JUMP JUMPDEST PUSH1 0x0 DUP3 PUSH2 0x331F JUMPI PUSH1 0x1 SWAP1 POP PUSH2 0x33DB JUMP JUMPDEST DUP2 PUSH2 0x332D JUMPI PUSH1 0x0 SWAP1 POP PUSH2 0x33DB JUMP JUMPDEST DUP2 PUSH1 0x1 DUP2 EQ PUSH2 0x3343 JUMPI PUSH1 0x2 DUP2 EQ PUSH2 0x334D JUMPI PUSH2 0x337C JUMP JUMPDEST PUSH1 0x1 SWAP2 POP POP PUSH2 0x33DB JUMP JUMPDEST PUSH1 0xFF DUP5 GT ISZERO PUSH2 0x335F JUMPI PUSH2 0x335E PUSH2 0x2AED JUMP JUMPDEST JUMPDEST DUP4 PUSH1 0x2 EXP SWAP2 POP DUP5 DUP3 GT ISZERO PUSH2 0x3376 JUMPI PUSH2 0x3375 PUSH2 0x2AED JUMP JUMPDEST JUMPDEST POP PUSH2 0x33DB JUMP JUMPDEST POP PUSH1 0x20 DUP4 LT PUSH2 0x133 DUP4 LT AND PUSH1 0x4E DUP5 LT PUSH1 0xB DUP5 LT AND OR ISZERO PUSH2 0x33B1 JUMPI DUP3 DUP3 EXP SWAP1 POP DUP4 DUP2 GT ISZERO PUSH2 0x33AC JUMPI PUSH2 0x33AB PUSH2 0x2AED JUMP JUMPDEST JUMPDEST PUSH2 0x33DB JUMP JUMPDEST PUSH2 0x33BE DUP5 DUP5 DUP5 PUSH1 0x1 PUSH2 0x32BC JUMP JUMPDEST SWAP3 POP SWAP1 POP DUP2 DUP5 DIV DUP2 GT ISZERO PUSH2 0x33D5 JUMPI PUSH2 0x33D4 PUSH2 0x2AED JUMP JUMPDEST JUMPDEST DUP2 DUP2 MUL SWAP1 POP JUMPDEST SWAP4 SWAP3 POP POP POP JUMP JUMPDEST PUSH1 0x0 PUSH2 0x33ED DUP3 PUSH2 0x27AD JUMP JUMPDEST SWAP2 POP PUSH2 0x33F8 DUP4 PUSH2 0x27AD JUMP JUMPDEST SWAP3 POP PUSH2 0x3425 PUSH32 0xFFFFFFFFFFFFFFFFFFFFFFFFFFFFFFFFFFFFFFFFFFFFFFFFFFFFFFFFFFFFFFFF DUP5 DUP5 PUSH2 0x330F JUMP JUMPDEST SWAP1 POP SWAP3 SWAP2 POP POP JUMP JUMPDEST PUSH1 0x0 PUSH2 0x3438 DUP3 PUSH2 0x27AD JUMP JUMPDEST SWAP2 POP PUSH2 0x3443 DUP4 PUSH2 0x27AD JUMP JUMPDEST SWAP3 POP DUP3 DUP3 MUL PUSH2 0x3451 DUP2 PUSH2 0x27AD JUMP JUMPDEST SWAP2 POP DUP3 DUP3 DIV DUP5 EQ DUP4 ISZERO OR PUSH2 0x3468 JUMPI PUSH2 0x3467 PUSH2 0x2AED JUMP JUMPDEST JUMPDEST POP SWAP3 SWAP2 POP POP JUMP JUMPDEST PUSH32 0x4E487B7100000000000000000000000000000000000000000000000000000000 PUSH1 0x0 MSTORE PUSH1 0x12 PUSH1 0x4 MSTORE PUSH1 0x24 PUSH1 0x0 REVERT JUMPDEST PUSH1 0x0 PUSH2 0x34A9 DUP3 PUSH2 0x27AD JUMP JUMPDEST SWAP2 POP PUSH2 0x34B4 DUP4 PUSH2 0x27AD JUMP JUMPDEST SWAP3 POP DUP3 PUSH2 0x34C4 JUMPI PUSH2 0x34C3 PUSH2 0x346F JUMP JUMPDEST JUMPDEST DUP3 DUP3 DIV SWAP1 POP SWAP3 SWAP2 POP POP JUMP JUMPDEST PUSH32 0x41676772656761746F72436F6E73756D6572206973206E6F7420696E69746961 PUSH1 0x0 DUP3 ADD MSTORE PUSH32 0x6C697A6564000000000000000000000000000000000000000000000000000000 PUSH1 0x20 DUP3 ADD MSTORE POP JUMP JUMPDEST PUSH1 0x0 PUSH2 0x352B PUSH1 0x25 DUP4 PUSH2 0x29E9 JUMP JUMPDEST SWAP2 POP PUSH2 0x3536 DUP3 PUSH2 0x34CF JUMP JUMPDEST PUSH1 0x40 DUP3 ADD SWAP1 POP SWAP2 SWAP1 POP JUMP JUMPDEST PUSH1 0x0 PUSH1 0x20 DUP3 ADD SWAP1 POP DUP2 DUP2 SUB PUSH1 0x0 DUP4 ADD MSTORE PUSH2 0x355A DUP2 PUSH2 0x351E JUMP JUMPDEST SWAP1 POP SWAP2 SWAP1 POP JUMP JUMPDEST PUSH32 0x506F6F6C436F6E73756D6572206973206E6F7420696E697469616C697A656400 PUSH1 0x0 DUP3 ADD MSTORE POP JUMP JUMPDEST PUSH1 0x0 PUSH2 0x3597 PUSH1 0x1F DUP4 PUSH2 0x29E9 JUMP JUMPDEST SWAP2 POP PUSH2 0x35A2 DUP3 PUSH2 0x3561 JUMP JUMPDEST PUSH1 0x20 DUP3 ADD SWAP1 POP SWAP2 SWAP1 POP JUMP JUMPDEST PUSH1 0x0 PUSH1 0x20 DUP3 ADD SWAP1 POP DUP2 DUP2 SUB PUSH1 0x0 DUP4 ADD MSTORE PUSH2 0x35C6 DUP2 PUSH2 0x358A JUMP JUMPDEST SWAP1 POP SWAP2 SWAP1 POP JUMP JUMPDEST PUSH32 0x4E6F2063686172676520616D6F756E7421000000000000000000000000000000 PUSH1 0x0 DUP3 ADD MSTORE POP JUMP JUMPDEST PUSH1 0x0 PUSH2 0x3603 PUSH1 0x11 DUP4 PUSH2 0x29E9 JUMP JUMPDEST SWAP2 POP PUSH2 0x360E DUP3 PUSH2 0x35CD JUMP JUMPDEST PUSH1 0x20 DUP3 ADD SWAP1 POP SWAP2 SWAP1 POP JUMP JUMPDEST PUSH1 0x0 PUSH1 0x20 DUP3 ADD SWAP1 POP DUP2 DUP2 SUB PUSH1 0x0 DUP4 ADD MSTORE PUSH2 0x3632 DUP2 PUSH2 0x35F6 JUMP JUMPDEST SWAP1 POP SWAP2 SWAP1 POP JUMP JUMPDEST PUSH1 0x0 PUSH1 0x40 DUP3 ADD SWAP1 POP PUSH2 0x364E PUSH1 0x0 DUP4 ADD DUP6 PUSH2 0x2881 JUMP JUMPDEST PUSH2 0x365B PUSH1 0x20 DUP4 ADD DUP5 PUSH2 0x2881 JUMP JUMPDEST SWAP4 SWAP3 POP POP POP JUMP JUMPDEST PUSH32 0x436865636B207468652000000000000000000000000000000000000000000000 DUP2 MSTORE POP JUMP JUMPDEST PUSH32 0x20746F6B656E2000000000000000000000000000000000000000000000000000 DUP2 MSTORE POP JUMP JUMPDEST PUSH32 0x616C6C6F77616E63652E00000000000000000000000000000000000000000000 DUP2 MSTORE POP JUMP JUMPDEST PUSH1 0x0 PUSH2 0x36DF DUP3 PUSH2 0x3662 JUMP JUMPDEST PUSH1 0xA DUP3 ADD SWAP2 POP PUSH2 0x36EF DUP3 DUP5 PUSH2 0x2C42 JUMP JUMPDEST SWAP2 POP PUSH2 0x36FA DUP3 PUSH2 0x3688 JUMP JUMPDEST PUSH1 0x7 DUP3 ADD SWAP2 POP PUSH2 0x3709 DUP3 PUSH2 0x36AE JUMP JUMPDEST PUSH1 0xA DUP3 ADD SWAP2 POP DUP2 SWAP1 POP SWAP3 SWAP2 POP POP JUMP JUMPDEST PUSH1 0x0 PUSH1 0x60 DUP3 ADD SWAP1 POP PUSH2 0x372D PUSH1 0x0 DUP4 ADD DUP7 PUSH2 0x2881 JUMP JUMPDEST PUSH2 0x373A PUSH1 0x20 DUP4 ADD DUP6 PUSH2 0x2881 JUMP JUMPDEST PUSH2 0x3747 PUSH1 0x40 DUP4 ADD DUP5 PUSH2 0x28D8 JUMP JUMPDEST SWAP5 SWAP4 POP POP POP POP JUMP JUMPDEST PUSH32 0x72617465206572726F7200000000000000000000000000000000000000000000 PUSH1 0x0 DUP3 ADD MSTORE POP JUMP JUMPDEST PUSH1 0x0 PUSH2 0x3785 PUSH1 0xA DUP4 PUSH2 0x29E9 JUMP JUMPDEST SWAP2 POP PUSH2 0x3790 DUP3 PUSH2 0x374F JUMP JUMPDEST PUSH1 0x20 DUP3 ADD SWAP1 POP SWAP2 SWAP1 POP JUMP JUMPDEST PUSH1 0x0 PUSH1 0x20 DUP3 ADD SWAP1 POP DUP2 DUP2 SUB PUSH1 0x0 DUP4 ADD MSTORE PUSH2 0x37B4 DUP2 PUSH2 0x3778 JUMP JUMPDEST SWAP1 POP SWAP2 SWAP1 POP JUMP JUMPDEST PUSH1 0x0 PUSH1 0x80 DUP3 ADD SWAP1 POP PUSH2 0x37D0 PUSH1 0x0 DUP4 ADD DUP8 PUSH2 0x28D8 JUMP JUMPDEST PUSH2 0x37DD PUSH1 0x20 DUP4 ADD DUP7 PUSH2 0x28D8 JUMP JUMPDEST PUSH2 0x37EA PUSH1 0x40 DUP4 ADD DUP6 PUSH2 0x28D8 JUMP JUMPDEST DUP2 DUP2 SUB PUSH1 0x60 DUP4 ADD MSTORE PUSH2 0x37FC DUP2 DUP5 PUSH2 0x2A35 JUMP JUMPDEST SWAP1 POP SWAP6 SWAP5 POP POP POP POP POP JUMP JUMPDEST PUSH32 0x4F776E61626C653A206E6577206F776E657220697320746865207A65726F2061 PUSH1 0x0 DUP3 ADD MSTORE PUSH32 0x6464726573730000000000000000000000000000000000000000000000000000 PUSH1 0x20 DUP3 ADD MSTORE POP JUMP JUMPDEST PUSH1 0x0 PUSH2 0x3863 PUSH1 0x26 DUP4 PUSH2 0x29E9 JUMP JUMPDEST SWAP2 POP PUSH2 0x386E DUP3 PUSH2 0x3807 JUMP JUMPDEST PUSH1 0x40 DUP3 ADD SWAP1 POP SWAP2 SWAP1 POP JUMP JUMPDEST PUSH1 0x0 PUSH1 0x20 DUP3 ADD SWAP1 POP DUP2 DUP2 SUB PUSH1 0x0 DUP4 ADD MSTORE PUSH2 0x3892 DUP2 PUSH2 0x3856 JUMP JUMPDEST SWAP1 POP SWAP2 SWAP1 POP JUMP JUMPDEST PUSH32 0x4F776E61626C653A2063616C6C6572206973206E6F7420746865206F776E6572 PUSH1 0x0 DUP3 ADD MSTORE POP JUMP JUMPDEST PUSH1 0x0 PUSH2 0x38CF PUSH1 0x20 DUP4 PUSH2 0x29E9 JUMP JUMPDEST SWAP2 POP PUSH2 0x38DA DUP3 PUSH2 0x3899 JUMP JUMPDEST PUSH1 0x20 DUP3 ADD SWAP1 POP SWAP2 SWAP1 POP JUMP JUMPDEST PUSH1 0x0 PUSH1 0x20 DUP3 ADD SWAP1 POP DUP2 DUP2 SUB PUSH1 0x0 DUP4 ADD MSTORE PUSH2 0x38FE DUP2 PUSH2 0x38C2 JUMP JUMPDEST SWAP1 POP SWAP2 SWAP1 POP JUMP JUMPDEST PUSH32 0x5061757361626C653A206E6F7420706175736564000000000000000000000000 PUSH1 0x0 DUP3 ADD MSTORE POP JUMP JUMPDEST PUSH1 0x0 PUSH2 0x393B PUSH1 0x14 DUP4 PUSH2 0x29E9 JUMP JUMPDEST SWAP2 POP PUSH2 0x3946 DUP3 PUSH2 0x3905 JUMP JUMPDEST PUSH1 0x20 DUP3 ADD SWAP1 POP SWAP2 SWAP1 POP JUMP JUMPDEST PUSH1 0x0 PUSH1 0x20 DUP3 ADD SWAP1 POP DUP2 DUP2 SUB PUSH1 0x0 DUP4 ADD MSTORE PUSH2 0x396A DUP2 PUSH2 0x392E JUMP JUMPDEST SWAP1 POP SWAP2 SWAP1 POP JUMP JUMPDEST PUSH32 0x5061757361626C653A2070617573656400000000000000000000000000000000 PUSH1 0x0 DUP3 ADD MSTORE POP JUMP JUMPDEST PUSH1 0x0 PUSH2 0x39A7 PUSH1 0x10 DUP4 PUSH2 0x29E9 JUMP JUMPDEST SWAP2 POP PUSH2 0x39B2 DUP3 PUSH2 0x3971 JUMP JUMPDEST PUSH1 0x20 DUP3 ADD SWAP1 POP SWAP2 SWAP1 POP JUMP JUMPDEST PUSH1 0x0 PUSH1 0x20 DUP3 ADD SWAP1 POP DUP2 DUP2 SUB PUSH1 0x0 DUP4 ADD MSTORE PUSH2 0x39D6 DUP2 PUSH2 0x399A JUMP JUMPDEST SWAP1 POP SWAP2 SWAP1 POP JUMP JUMPDEST PUSH1 0x0 DUP1 REVERT JUMPDEST PUSH1 0x0 DUP1 REVERT JUMPDEST PUSH32 0x4E487B7100000000000000000000000000000000000000000000000000000000 PUSH1 0x0 MSTORE PUSH1 0x41 PUSH1 0x4 MSTORE PUSH1 0x24 PUSH1 0x0 REVERT JUMPDEST PUSH2 0x3A1F DUP3 PUSH2 0x2A24 JUMP JUMPDEST DUP2 ADD DUP2 DUP2 LT PUSH8 0xFFFFFFFFFFFFFFFF DUP3 GT OR ISZERO PUSH2 0x3A3E JUMPI PUSH2 0x3A3D PUSH2 0x39E7 JUMP JUMPDEST JUMPDEST DUP1 PUSH1 0x40 MSTORE POP POP POP JUMP JUMPDEST PUSH1 0x0 PUSH2 0x3A51 PUSH2 0x2799 JUMP JUMPDEST SWAP1 POP PUSH2 0x3A5D DUP3 DUP3 PUSH2 0x3A16 JUMP JUMPDEST SWAP2 SWAP1 POP JUMP JUMPDEST PUSH1 0x0 PUSH8 0xFFFFFFFFFFFFFFFF DUP3 GT ISZERO PUSH2 0x3A7D JUMPI PUSH2 0x3A7C PUSH2 0x39E7 JUMP JUMPDEST JUMPDEST PUSH2 0x3A86 DUP3 PUSH2 0x2A24 JUMP JUMPDEST SWAP1 POP PUSH1 0x20 DUP2 ADD SWAP1 POP SWAP2 SWAP1 POP JUMP JUMPDEST PUSH1 0x0 PUSH2 0x3AA6 PUSH2 0x3AA1 DUP5 PUSH2 0x3A62 JUMP JUMPDEST PUSH2 0x3A47 JUMP JUMPDEST SWAP1 POP DUP3 DUP2 MSTORE PUSH1 0x20 DUP2 ADD DUP5 DUP5 DUP5 ADD GT ISZERO PUSH2 0x3AC2 JUMPI PUSH2 0x3AC1 PUSH2 0x39E2 JUMP JUMPDEST JUMPDEST PUSH2 0x3ACD DUP5 DUP3 DUP6 PUSH2 0x29FA JUMP JUMPDEST POP SWAP4 SWAP3 POP POP POP JUMP JUMPDEST PUSH1 0x0 DUP3 PUSH1 0x1F DUP4 ADD SLT PUSH2 0x3AEA JUMPI PUSH2 0x3AE9 PUSH2 0x39DD JUMP JUMPDEST JUMPDEST DUP2 MLOAD PUSH2 0x3AFA DUP5 DUP3 PUSH1 0x20 DUP7 ADD PUSH2 0x3A93 JUMP JUMPDEST SWAP2 POP POP SWAP3 SWAP2 POP POP JUMP JUMPDEST PUSH1 0x0 DUP1 PUSH1 0x0 DUP1 PUSH1 0x80 DUP6 DUP8 SUB SLT ISZERO PUSH2 0x3B1D JUMPI PUSH2 0x3B1C PUSH2 0x27A3 JUMP JUMPDEST JUMPDEST PUSH1 0x0 PUSH2 0x3B2B DUP8 DUP3 DUP9 ADD PUSH2 0x31DB JUMP JUMPDEST SWAP5 POP POP PUSH1 0x20 PUSH2 0x3B3C DUP8 DUP3 DUP9 ADD PUSH2 0x31DB JUMP JUMPDEST SWAP4 POP POP PUSH1 0x40 DUP6 ADD MLOAD PUSH8 0xFFFFFFFFFFFFFFFF DUP2 GT ISZERO PUSH2 0x3B5D JUMPI PUSH2 0x3B5C PUSH2 0x27A8 JUMP JUMPDEST JUMPDEST PUSH2 0x3B69 DUP8 DUP3 DUP9 ADD PUSH2 0x3AD5 JUMP JUMPDEST SWAP3 POP POP PUSH1 0x60 PUSH2 0x3B7A DUP8 DUP3 DUP9 ADD PUSH2 0x31DB JUMP JUMPDEST SWAP2 POP POP SWAP3 SWAP6 SWAP2 SWAP5 POP SWAP3 POP JUMP JUMPDEST PUSH32 0x4E6F20746F6B656E7320746F206265206275726E656421000000000000000000 PUSH1 0x0 DUP3 ADD MSTORE POP JUMP JUMPDEST PUSH1 0x0 PUSH2 0x3BBC PUSH1 0x17 DUP4 PUSH2 0x29E9 JUMP JUMPDEST SWAP2 POP PUSH2 0x3BC7 DUP3 PUSH2 0x3B86 JUMP JUMPDEST PUSH1 0x20 DUP3 ADD SWAP1 POP SWAP2 SWAP1 POP JUMP JUMPDEST PUSH1 0x0 PUSH1 0x20 DUP3 ADD SWAP1 POP DUP2 DUP2 SUB PUSH1 0x0 DUP4 ADD MSTORE PUSH2 0x3BEB DUP2 PUSH2 0x3BAF JUMP JUMPDEST SWAP1 POP SWAP2 SWAP1 POP JUMP INVALID LOG2 PUSH5 0x6970667358 0x22 SLT KECCAK256 0xC1 0xA6 0xB2 0x28 0x23 DUP9 AND 0xBE 0xDC MUL OR SELFBALANCE 0xC6 JUMP SWAP11 PUSH15 0x90EE9B145F9E5ADF134BE50EAD324F 0xA9 PUSH5 0x736F6C6343 STOP ADDMOD OR STOP CALLER "
				},
				"gasEstimates": {
					"creation": {
						"codeDepositCost": "3080000",
						"executionCost": "infinite",
						"totalCost": "infinite"
					},
					"external": {
						"activate()": "infinite",
						"addNewAggregatorPriceFeed(address)": "27183",
						"addNewPoolRateFeed(address)": "27182",
						"balanceOf()": "infinite",
						"balanceOfToken(address)": "infinite",
						"calculateAmount(uint256,uint256,uint256)": "infinite",
						"changeAcceptedSenderAddress(address)": "31403",
						"changeRateFeed()": "35610",
						"chargeContract(uint256)": "infinite",
						"currentRateFeed()": "infinite",
						"deactivate()": "32585",
						"getAcceptedSenderAddress()": "4783",
						"getCurrentPointsBalance()": "9148",
						"getDailyWithdraw()": "9083",
						"getInitialActivationAddress()": "infinite",
						"getTokenInfo()": "infinite",
						"getTotalBurnedTokens()": "9106",
						"getTotalPointsGenerated()": "9105",
						"initiateBulkMint()": "infinite",
						"owner()": "2662",
						"paused()": "2546",
						"renounceOwnership()": "30659",
						"resume()": "infinite",
						"stop()": "infinite",
						"transferOfToken(address,address,uint256)": "infinite",
						"transferOwnership(address)": "30982",
						"withdraw(uint256,address)": "infinite"
					},
					"internal": {
						"burnIncomingTokens(uint256)": "infinite",
						"calculatePoints(uint256,uint256,uint256)": "infinite",
						"getRate()": "infinite"
					}
				},
				"methodIdentifiers": {
					"activate()": "0f15f4c0",
					"addNewAggregatorPriceFeed(address)": "0a6cb062",
					"addNewPoolRateFeed(address)": "b0b5e39e",
					"balanceOf()": "722713f7",
					"balanceOfToken(address)": "b99152d0",
					"calculateAmount(uint256,uint256,uint256)": "7754723e",
					"changeAcceptedSenderAddress(address)": "0ba2f1d8",
					"changeRateFeed()": "e8088766",
					"chargeContract(uint256)": "ed969c84",
					"currentRateFeed()": "e6367ebe",
					"deactivate()": "51b42b00",
					"getAcceptedSenderAddress()": "08fadcb0",
					"getCurrentPointsBalance()": "f9850907",
					"getDailyWithdraw()": "a24723e8",
					"getInitialActivationAddress()": "ba007e75",
					"getTokenInfo()": "abb1dc44",
					"getTotalBurnedTokens()": "2af0e251",
					"getTotalPointsGenerated()": "a684ab5c",
					"initiateBulkMint()": "390885f7",
					"owner()": "8da5cb5b",
					"paused()": "5c975abb",
					"renounceOwnership()": "715018a6",
					"resume()": "046f7da2",
					"stop()": "07da68f5",
					"transferOfToken(address,address,uint256)": "6a9d43dd",
					"transferOwnership(address)": "f2fde38b",
					"withdraw(uint256,address)": "00f714ce"
				}
			},
			"storageLayout": {
				"storage": [
					{
						"astId": 130,
						"contract": "ptrn_eco_system_dev_contracts/PtrnEcoSystemParticipationDev.sol:PtrnEcoSystemParticipation",
						"label": "_paused",
						"offset": 0,
						"slot": "0",
						"type": "t_bool"
					},
					{
						"astId": 7,
						"contract": "ptrn_eco_system_dev_contracts/PtrnEcoSystemParticipationDev.sol:PtrnEcoSystemParticipation",
						"label": "_owner",
						"offset": 1,
						"slot": "0",
						"type": "t_address"
					},
					{
						"astId": 368,
						"contract": "ptrn_eco_system_dev_contracts/PtrnEcoSystemParticipationDev.sol:PtrnEcoSystemParticipation",
						"label": "acceptedSenderAddress",
						"offset": 0,
						"slot": "1",
						"type": "t_address"
					},
					{
						"astId": 373,
						"contract": "ptrn_eco_system_dev_contracts/PtrnEcoSystemParticipationDev.sol:PtrnEcoSystemParticipation",
						"label": "poolRateFeed",
						"offset": 20,
						"slot": "1",
						"type": "t_bool"
					},
					{
						"astId": 376,
						"contract": "ptrn_eco_system_dev_contracts/PtrnEcoSystemParticipationDev.sol:PtrnEcoSystemParticipation",
						"label": "totalBurned",
						"offset": 0,
						"slot": "2",
						"type": "t_uint256"
					},
					{
						"astId": 379,
						"contract": "ptrn_eco_system_dev_contracts/PtrnEcoSystemParticipationDev.sol:PtrnEcoSystemParticipation",
						"label": "totalConverted",
						"offset": 0,
						"slot": "3",
						"type": "t_uint256"
					},
					{
						"astId": 382,
						"contract": "ptrn_eco_system_dev_contracts/PtrnEcoSystemParticipationDev.sol:PtrnEcoSystemParticipation",
						"label": "availableToWithdraw",
						"offset": 0,
						"slot": "4",
						"type": "t_uint256"
					},
					{
						"astId": 385,
						"contract": "ptrn_eco_system_dev_contracts/PtrnEcoSystemParticipationDev.sol:PtrnEcoSystemParticipation",
						"label": "dailyWithdraw",
						"offset": 0,
						"slot": "5",
						"type": "t_uint256"
					},
					{
						"astId": 387,
						"contract": "ptrn_eco_system_dev_contracts/PtrnEcoSystemParticipationDev.sol:PtrnEcoSystemParticipation",
						"label": "tokenSymbol",
						"offset": 0,
						"slot": "6",
						"type": "t_string_storage"
					},
					{
						"astId": 390,
						"contract": "ptrn_eco_system_dev_contracts/PtrnEcoSystemParticipationDev.sol:PtrnEcoSystemParticipation",
						"label": "aggregatorConsumer",
						"offset": 0,
						"slot": "7",
						"type": "t_contract(AggregatorConsumerInterface)337"
					},
					{
						"astId": 393,
						"contract": "ptrn_eco_system_dev_contracts/PtrnEcoSystemParticipationDev.sol:PtrnEcoSystemParticipation",
						"label": "poolConsumer",
						"offset": 0,
						"slot": "8",
						"type": "t_contract(PoolConsumerInterface)349"
					}
				],
				"types": {
					"t_address": {
						"encoding": "inplace",
						"label": "address",
						"numberOfBytes": "20"
					},
					"t_bool": {
						"encoding": "inplace",
						"label": "bool",
						"numberOfBytes": "1"
					},
					"t_contract(AggregatorConsumerInterface)337": {
						"encoding": "inplace",
						"label": "contract AggregatorConsumerInterface",
						"numberOfBytes": "20"
					},
					"t_contract(PoolConsumerInterface)349": {
						"encoding": "inplace",
						"label": "contract PoolConsumerInterface",
						"numberOfBytes": "20"
					},
					"t_string_storage": {
						"encoding": "bytes",
						"label": "string",
						"numberOfBytes": "32"
					},
					"t_uint256": {
						"encoding": "inplace",
						"label": "uint256",
						"numberOfBytes": "32"
					}
				}
			},
			"userdoc": {
				"kind": "user",
				"methods": {},
				"version": 1
			}
		}
	}
}