{
	"ptrn_eco_system_dev_contracts/V1_fakePtrnEcosystemParticipationSmartContract.sol": {
		"PtrnEcoSystemParticipation": {
			"abi": [
				{
					"inputs": [
						{
							"internalType": "address",
							"name": "_ConsumerInterfaceAddress",
							"type": "address"
						}
					],
					"name": "addAgregatorPriceFeed",
					"outputs": [],
					"stateMutability": "nonpayable",
					"type": "function"
				},
				{
					"inputs": [
						{
							"internalType": "address",
							"name": "_ConsumerInterfaceAddress",
							"type": "address"
						}
					],
					"name": "addPoolPriceFeed",
					"outputs": [],
					"stateMutability": "nonpayable",
					"type": "function"
				},
				{
					"inputs": [],
					"name": "getRateFromAgregator",
					"outputs": [
						{
							"internalType": "uint256",
							"name": "",
							"type": "uint256"
						},
						{
							"internalType": "uint256",
							"name": "",
							"type": "uint256"
						},
						{
							"internalType": "string",
							"name": "",
							"type": "string"
						}
					],
					"stateMutability": "view",
					"type": "function"
				},
				{
					"inputs": [],
					"name": "getRateFromPool",
					"outputs": [
						{
							"internalType": "uint256",
							"name": "",
							"type": "uint256"
						},
						{
							"internalType": "uint256",
							"name": "",
							"type": "uint256"
						},
						{
							"internalType": "string",
							"name": "",
							"type": "string"
						}
					],
					"stateMutability": "view",
					"type": "function"
				},
				{
					"inputs": [],
					"name": "setRateFromAgregator",
					"outputs": [
						{
							"internalType": "bool",
							"name": "",
							"type": "bool"
						}
					],
					"stateMutability": "nonpayable",
					"type": "function"
				},
				{
					"inputs": [],
					"name": "setRateFromPool",
					"outputs": [
						{
							"internalType": "bool",
							"name": "",
							"type": "bool"
						}
					],
					"stateMutability": "nonpayable",
					"type": "function"
				}
			],
			"devdoc": {
				"kind": "dev",
				"methods": {},
				"version": 1
			},
			"evm": {
				"assembly": "    /* \"ptrn_eco_system_dev_contracts/V1_fakePtrnEcosystemParticipationSmartContract.sol\":341:2452  contract PtrnEcoSystemParticipation{... */\n  mstore(0x40, 0x80)\n  callvalue\n  dup1\n  iszero\n  tag_1\n  jumpi\n  0x00\n  dup1\n  revert\ntag_1:\n  pop\n  dataSize(sub_0)\n  dup1\n  dataOffset(sub_0)\n  0x00\n  codecopy\n  0x00\n  return\nstop\n\nsub_0: assembly {\n        /* \"ptrn_eco_system_dev_contracts/V1_fakePtrnEcosystemParticipationSmartContract.sol\":341:2452  contract PtrnEcoSystemParticipation{... */\n      mstore(0x40, 0x80)\n      callvalue\n      dup1\n      iszero\n      tag_1\n      jumpi\n      0x00\n      dup1\n      revert\n    tag_1:\n      pop\n      jumpi(tag_2, lt(calldatasize, 0x04))\n      shr(0xe0, calldataload(0x00))\n      dup1\n      0x01377cde\n      eq\n      tag_3\n      jumpi\n      dup1\n      0x1d9abd7f\n      eq\n      tag_4\n      jumpi\n      dup1\n      0x4cbbb4d2\n      eq\n      tag_5\n      jumpi\n      dup1\n      0x68adeb57\n      eq\n      tag_6\n      jumpi\n      dup1\n      0xa436e9f8\n      eq\n      tag_7\n      jumpi\n      dup1\n      0xe7cac28d\n      eq\n      tag_8\n      jumpi\n    tag_2:\n      0x00\n      dup1\n      revert\n        /* \"ptrn_eco_system_dev_contracts/V1_fakePtrnEcosystemParticipationSmartContract.sol\":1841:2262  function setRateFromPool() public returns (bool) {... */\n    tag_3:\n      tag_9\n      tag_10\n      jump\t// in\n    tag_9:\n      mload(0x40)\n      tag_11\n      swap2\n      swap1\n      tag_12\n      jump\t// in\n    tag_11:\n      mload(0x40)\n      dup1\n      swap2\n      sub\n      swap1\n      return\n        /* \"ptrn_eco_system_dev_contracts/V1_fakePtrnEcosystemParticipationSmartContract.sol\":815:980  function addAgregatorPriceFeed(address _ConsumerInterfaceAddress) public {... */\n    tag_4:\n      tag_13\n      0x04\n      dup1\n      calldatasize\n      sub\n      dup2\n      add\n      swap1\n      tag_14\n      swap2\n      swap1\n      tag_15\n      jump\t// in\n    tag_14:\n      tag_16\n      jump\t// in\n    tag_13:\n      stop\n        /* \"ptrn_eco_system_dev_contracts/V1_fakePtrnEcosystemParticipationSmartContract.sol\":1685:1835  function addPoolPriceFeed(address _ConsumerInterfaceAddress) public {... */\n    tag_5:\n      tag_17\n      0x04\n      dup1\n      calldatasize\n      sub\n      dup2\n      add\n      swap1\n      tag_18\n      swap2\n      swap1\n      tag_15\n      jump\t// in\n    tag_18:\n      tag_19\n      jump\t// in\n    tag_17:\n      stop\n        /* \"ptrn_eco_system_dev_contracts/V1_fakePtrnEcosystemParticipationSmartContract.sol\":2268:2450  function getRateFromPool() public view returns (uint256, uint256, string memory) {... */\n    tag_6:\n      tag_20\n      tag_21\n      jump\t// in\n    tag_20:\n      mload(0x40)\n      tag_22\n      swap4\n      swap3\n      swap2\n      swap1\n      tag_23\n      jump\t// in\n    tag_22:\n      mload(0x40)\n      dup1\n      swap2\n      sub\n      swap1\n      return\n        /* \"ptrn_eco_system_dev_contracts/V1_fakePtrnEcosystemParticipationSmartContract.sol\":1471:1676  function getRateFromAgregator() public view returns (uint256, uint256, string memory) {... */\n    tag_7:\n      tag_24\n      tag_25\n      jump\t// in\n    tag_24:\n      mload(0x40)\n      tag_26\n      swap4\n      swap3\n      swap2\n      swap1\n      tag_23\n      jump\t// in\n    tag_26:\n      mload(0x40)\n      dup1\n      swap2\n      sub\n      swap1\n      return\n        /* \"ptrn_eco_system_dev_contracts/V1_fakePtrnEcosystemParticipationSmartContract.sol\":986:1465  function setRateFromAgregator() public returns (bool) {... */\n    tag_8:\n      tag_27\n      tag_28\n      jump\t// in\n    tag_27:\n      mload(0x40)\n      tag_29\n      swap2\n      swap1\n      tag_12\n      jump\t// in\n    tag_29:\n      mload(0x40)\n      dup1\n      swap2\n      sub\n      swap1\n      return\n        /* \"ptrn_eco_system_dev_contracts/V1_fakePtrnEcosystemParticipationSmartContract.sol\":1841:2262  function setRateFromPool() public returns (bool) {... */\n    tag_10:\n        /* \"ptrn_eco_system_dev_contracts/V1_fakePtrnEcosystemParticipationSmartContract.sol\":1884:1888  bool */\n      0x00\n        /* \"ptrn_eco_system_dev_contracts/V1_fakePtrnEcosystemParticipationSmartContract.sol\":1925:1926  0 */\n      dup1\n        /* \"ptrn_eco_system_dev_contracts/V1_fakePtrnEcosystemParticipationSmartContract.sol\":1900:1912  poolRateData */\n      0x05\n        /* \"ptrn_eco_system_dev_contracts/V1_fakePtrnEcosystemParticipationSmartContract.sol\":1900:1922  poolRateData.tokenRate */\n      0x00\n      add\n        /* \"ptrn_eco_system_dev_contracts/V1_fakePtrnEcosystemParticipationSmartContract.sol\":1900:1926  poolRateData.tokenRate = 0 */\n      dup2\n      swap1\n      sstore\n      pop\n        /* \"ptrn_eco_system_dev_contracts/V1_fakePtrnEcosystemParticipationSmartContract.sol\":1960:1961  0 */\n      0x00\n        /* \"ptrn_eco_system_dev_contracts/V1_fakePtrnEcosystemParticipationSmartContract.sol\":1936:1948  poolRateData */\n      0x05\n        /* \"ptrn_eco_system_dev_contracts/V1_fakePtrnEcosystemParticipationSmartContract.sol\":1936:1957  poolRateData.decimals */\n      0x01\n      add\n        /* \"ptrn_eco_system_dev_contracts/V1_fakePtrnEcosystemParticipationSmartContract.sol\":1936:1961  poolRateData.decimals = 0 */\n      dup2\n      swap1\n      sstore\n      pop\n        /* \"ptrn_eco_system_dev_contracts/V1_fakePtrnEcosystemParticipationSmartContract.sol\":1971:2007  poolRateData.tokenRateString = \"N/A\" */\n      mload(0x40)\n      dup1\n      0x40\n      add\n      0x40\n      mstore\n      dup1\n      0x03\n      dup2\n      mstore\n      0x20\n      add\n      0x4e2f410000000000000000000000000000000000000000000000000000000000\n      dup2\n      mstore\n      pop\n        /* \"ptrn_eco_system_dev_contracts/V1_fakePtrnEcosystemParticipationSmartContract.sol\":1971:1983  poolRateData */\n      0x05\n        /* \"ptrn_eco_system_dev_contracts/V1_fakePtrnEcosystemParticipationSmartContract.sol\":1971:1999  poolRateData.tokenRateString */\n      0x02\n      add\n        /* \"ptrn_eco_system_dev_contracts/V1_fakePtrnEcosystemParticipationSmartContract.sol\":1971:2007  poolRateData.tokenRateString = \"N/A\" */\n      swap1\n      dup2\n      tag_31\n      swap2\n      swap1\n      tag_32\n      jump\t// in\n    tag_31:\n      pop\n        /* \"ptrn_eco_system_dev_contracts/V1_fakePtrnEcosystemParticipationSmartContract.sol\":2018:2030  uint256 rate */\n      0x00\n        /* \"ptrn_eco_system_dev_contracts/V1_fakePtrnEcosystemParticipationSmartContract.sol\":2032:2048  uint256 decimals */\n      dup1\n        /* \"ptrn_eco_system_dev_contracts/V1_fakePtrnEcosystemParticipationSmartContract.sol\":2050:2074  string memory rateString */\n      0x00\n        /* \"ptrn_eco_system_dev_contracts/V1_fakePtrnEcosystemParticipationSmartContract.sol\":2078:2090  poolConsumer */\n      0x01\n      0x00\n      swap1\n      sload\n      swap1\n      0x0100\n      exp\n      swap1\n      div\n      0xffffffffffffffffffffffffffffffffffffffff\n      and\n        /* \"ptrn_eco_system_dev_contracts/V1_fakePtrnEcosystemParticipationSmartContract.sol\":2078:2099  poolConsumer.PoolRate */\n      0xffffffffffffffffffffffffffffffffffffffff\n      and\n      0x454d1256\n        /* \"ptrn_eco_system_dev_contracts/V1_fakePtrnEcosystemParticipationSmartContract.sol\":2078:2101  poolConsumer.PoolRate() */\n      mload(0x40)\n      dup2\n      0xffffffff\n      and\n      0xe0\n      shl\n      dup2\n      mstore\n      0x04\n      add\n      0x00\n      mload(0x40)\n      dup1\n      dup4\n      sub\n      dup2\n      0x00\n      dup8\n      gas\n      call\n      iszero\n      dup1\n      iszero\n      tag_34\n      jumpi\n      returndatasize\n      0x00\n      dup1\n      returndatacopy\n      revert(0x00, returndatasize)\n    tag_34:\n      pop\n      pop\n      pop\n      pop\n      mload(0x40)\n      returndatasize\n      0x00\n      dup3\n      returndatacopy\n      returndatasize\n      not(0x1f)\n      0x1f\n      dup3\n      add\n      and\n      dup3\n      add\n      dup1\n      0x40\n      mstore\n      pop\n      dup2\n      add\n      swap1\n      tag_35\n      swap2\n      swap1\n      tag_36\n      jump\t// in\n    tag_35:\n        /* \"ptrn_eco_system_dev_contracts/V1_fakePtrnEcosystemParticipationSmartContract.sol\":2017:2101  (uint256 rate, uint256 decimals, string memory rateString) = poolConsumer.PoolRate() */\n      swap3\n      pop\n      swap3\n      pop\n      swap3\n      pop\n        /* \"ptrn_eco_system_dev_contracts/V1_fakePtrnEcosystemParticipationSmartContract.sol\":2136:2140  rate */\n      dup3\n        /* \"ptrn_eco_system_dev_contracts/V1_fakePtrnEcosystemParticipationSmartContract.sol\":2111:2123  poolRateData */\n      0x05\n        /* \"ptrn_eco_system_dev_contracts/V1_fakePtrnEcosystemParticipationSmartContract.sol\":2111:2133  poolRateData.tokenRate */\n      0x00\n      add\n        /* \"ptrn_eco_system_dev_contracts/V1_fakePtrnEcosystemParticipationSmartContract.sol\":2111:2140  poolRateData.tokenRate = rate */\n      dup2\n      swap1\n      sstore\n      pop\n        /* \"ptrn_eco_system_dev_contracts/V1_fakePtrnEcosystemParticipationSmartContract.sol\":2174:2182  decimals */\n      dup2\n        /* \"ptrn_eco_system_dev_contracts/V1_fakePtrnEcosystemParticipationSmartContract.sol\":2150:2162  poolRateData */\n      0x05\n        /* \"ptrn_eco_system_dev_contracts/V1_fakePtrnEcosystemParticipationSmartContract.sol\":2150:2171  poolRateData.decimals */\n      0x01\n      add\n        /* \"ptrn_eco_system_dev_contracts/V1_fakePtrnEcosystemParticipationSmartContract.sol\":2150:2182  poolRateData.decimals = decimals */\n      dup2\n      swap1\n      sstore\n      pop\n        /* \"ptrn_eco_system_dev_contracts/V1_fakePtrnEcosystemParticipationSmartContract.sol\":2223:2233  rateString */\n      dup1\n        /* \"ptrn_eco_system_dev_contracts/V1_fakePtrnEcosystemParticipationSmartContract.sol\":2192:2204  poolRateData */\n      0x05\n        /* \"ptrn_eco_system_dev_contracts/V1_fakePtrnEcosystemParticipationSmartContract.sol\":2192:2220  poolRateData.tokenRateString */\n      0x02\n      add\n        /* \"ptrn_eco_system_dev_contracts/V1_fakePtrnEcosystemParticipationSmartContract.sol\":2192:2233  poolRateData.tokenRateString = rateString */\n      swap1\n      dup2\n      tag_37\n      swap2\n      swap1\n      tag_32\n      jump\t// in\n    tag_37:\n      pop\n        /* \"ptrn_eco_system_dev_contracts/V1_fakePtrnEcosystemParticipationSmartContract.sol\":2251:2255  true */\n      0x01\n        /* \"ptrn_eco_system_dev_contracts/V1_fakePtrnEcosystemParticipationSmartContract.sol\":2244:2255  return true */\n      swap4\n      pop\n      pop\n      pop\n      pop\n        /* \"ptrn_eco_system_dev_contracts/V1_fakePtrnEcosystemParticipationSmartContract.sol\":1841:2262  function setRateFromPool() public returns (bool) {... */\n      swap1\n      jump\t// out\n        /* \"ptrn_eco_system_dev_contracts/V1_fakePtrnEcosystemParticipationSmartContract.sol\":815:980  function addAgregatorPriceFeed(address _ConsumerInterfaceAddress) public {... */\n    tag_16:\n        /* \"ptrn_eco_system_dev_contracts/V1_fakePtrnEcosystemParticipationSmartContract.sol\":946:971  _ConsumerInterfaceAddress */\n      dup1\n        /* \"ptrn_eco_system_dev_contracts/V1_fakePtrnEcosystemParticipationSmartContract.sol\":899:916  agregatorConsumer */\n      0x00\n      dup1\n        /* \"ptrn_eco_system_dev_contracts/V1_fakePtrnEcosystemParticipationSmartContract.sol\":899:972  agregatorConsumer = AgregatorConsumerInterface(_ConsumerInterfaceAddress) */\n      0x0100\n      exp\n      dup2\n      sload\n      dup2\n      0xffffffffffffffffffffffffffffffffffffffff\n      mul\n      not\n      and\n      swap1\n      dup4\n      0xffffffffffffffffffffffffffffffffffffffff\n      and\n      mul\n      or\n      swap1\n      sstore\n      pop\n        /* \"ptrn_eco_system_dev_contracts/V1_fakePtrnEcosystemParticipationSmartContract.sol\":815:980  function addAgregatorPriceFeed(address _ConsumerInterfaceAddress) public {... */\n      pop\n      jump\t// out\n        /* \"ptrn_eco_system_dev_contracts/V1_fakePtrnEcosystemParticipationSmartContract.sol\":1685:1835  function addPoolPriceFeed(address _ConsumerInterfaceAddress) public {... */\n    tag_19:\n        /* \"ptrn_eco_system_dev_contracts/V1_fakePtrnEcosystemParticipationSmartContract.sol\":1801:1826  _ConsumerInterfaceAddress */\n      dup1\n        /* \"ptrn_eco_system_dev_contracts/V1_fakePtrnEcosystemParticipationSmartContract.sol\":1764:1776  poolConsumer */\n      0x01\n      0x00\n        /* \"ptrn_eco_system_dev_contracts/V1_fakePtrnEcosystemParticipationSmartContract.sol\":1764:1827  poolConsumer = PoolConsumerInterface(_ConsumerInterfaceAddress) */\n      0x0100\n      exp\n      dup2\n      sload\n      dup2\n      0xffffffffffffffffffffffffffffffffffffffff\n      mul\n      not\n      and\n      swap1\n      dup4\n      0xffffffffffffffffffffffffffffffffffffffff\n      and\n      mul\n      or\n      swap1\n      sstore\n      pop\n        /* \"ptrn_eco_system_dev_contracts/V1_fakePtrnEcosystemParticipationSmartContract.sol\":1685:1835  function addPoolPriceFeed(address _ConsumerInterfaceAddress) public {... */\n      pop\n      jump\t// out\n        /* \"ptrn_eco_system_dev_contracts/V1_fakePtrnEcosystemParticipationSmartContract.sol\":2268:2450  function getRateFromPool() public view returns (uint256, uint256, string memory) {... */\n    tag_21:\n        /* \"ptrn_eco_system_dev_contracts/V1_fakePtrnEcosystemParticipationSmartContract.sol\":2316:2323  uint256 */\n      0x00\n        /* \"ptrn_eco_system_dev_contracts/V1_fakePtrnEcosystemParticipationSmartContract.sol\":2325:2332  uint256 */\n      dup1\n        /* \"ptrn_eco_system_dev_contracts/V1_fakePtrnEcosystemParticipationSmartContract.sol\":2334:2347  string memory */\n      0x60\n        /* \"ptrn_eco_system_dev_contracts/V1_fakePtrnEcosystemParticipationSmartContract.sol\":2367:2379  poolRateData */\n      0x05\n        /* \"ptrn_eco_system_dev_contracts/V1_fakePtrnEcosystemParticipationSmartContract.sol\":2367:2389  poolRateData.tokenRate */\n      0x00\n      add\n      sload\n        /* \"ptrn_eco_system_dev_contracts/V1_fakePtrnEcosystemParticipationSmartContract.sol\":2391:2403  poolRateData */\n      0x05\n        /* \"ptrn_eco_system_dev_contracts/V1_fakePtrnEcosystemParticipationSmartContract.sol\":2391:2412  poolRateData.decimals */\n      0x01\n      add\n      sload\n        /* \"ptrn_eco_system_dev_contracts/V1_fakePtrnEcosystemParticipationSmartContract.sol\":2414:2426  poolRateData */\n      0x05\n        /* \"ptrn_eco_system_dev_contracts/V1_fakePtrnEcosystemParticipationSmartContract.sol\":2414:2442  poolRateData.tokenRateString */\n      0x02\n      add\n        /* \"ptrn_eco_system_dev_contracts/V1_fakePtrnEcosystemParticipationSmartContract.sol\":2359:2443  return (poolRateData.tokenRate, poolRateData.decimals, poolRateData.tokenRateString) */\n      dup1\n      dup1\n      sload\n      tag_41\n      swap1\n      tag_42\n      jump\t// in\n    tag_41:\n      dup1\n      0x1f\n      add\n      0x20\n      dup1\n      swap2\n      div\n      mul\n      0x20\n      add\n      mload(0x40)\n      swap1\n      dup2\n      add\n      0x40\n      mstore\n      dup1\n      swap3\n      swap2\n      swap1\n      dup2\n      dup2\n      mstore\n      0x20\n      add\n      dup3\n      dup1\n      sload\n      tag_43\n      swap1\n      tag_42\n      jump\t// in\n    tag_43:\n      dup1\n      iszero\n      tag_44\n      jumpi\n      dup1\n      0x1f\n      lt\n      tag_45\n      jumpi\n      0x0100\n      dup1\n      dup4\n      sload\n      div\n      mul\n      dup4\n      mstore\n      swap2\n      0x20\n      add\n      swap2\n      jump(tag_44)\n    tag_45:\n      dup3\n      add\n      swap2\n      swap1\n      0x00\n      mstore\n      keccak256(0x00, 0x20)\n      swap1\n    tag_46:\n      dup2\n      sload\n      dup2\n      mstore\n      swap1\n      0x01\n      add\n      swap1\n      0x20\n      add\n      dup1\n      dup4\n      gt\n      tag_46\n      jumpi\n      dup3\n      swap1\n      sub\n      0x1f\n      and\n      dup3\n      add\n      swap2\n    tag_44:\n      pop\n      pop\n      pop\n      pop\n      pop\n      swap1\n      pop\n      swap3\n      pop\n      swap3\n      pop\n      swap3\n      pop\n        /* \"ptrn_eco_system_dev_contracts/V1_fakePtrnEcosystemParticipationSmartContract.sol\":2268:2450  function getRateFromPool() public view returns (uint256, uint256, string memory) {... */\n      swap1\n      swap2\n      swap3\n      jump\t// out\n        /* \"ptrn_eco_system_dev_contracts/V1_fakePtrnEcosystemParticipationSmartContract.sol\":1471:1676  function getRateFromAgregator() public view returns (uint256, uint256, string memory) {... */\n    tag_25:\n        /* \"ptrn_eco_system_dev_contracts/V1_fakePtrnEcosystemParticipationSmartContract.sol\":1524:1531  uint256 */\n      0x00\n        /* \"ptrn_eco_system_dev_contracts/V1_fakePtrnEcosystemParticipationSmartContract.sol\":1533:1540  uint256 */\n      dup1\n        /* \"ptrn_eco_system_dev_contracts/V1_fakePtrnEcosystemParticipationSmartContract.sol\":1542:1555  string memory */\n      0x60\n        /* \"ptrn_eco_system_dev_contracts/V1_fakePtrnEcosystemParticipationSmartContract.sol\":1575:1593  aggregatorRateData */\n      0x02\n        /* \"ptrn_eco_system_dev_contracts/V1_fakePtrnEcosystemParticipationSmartContract.sol\":1575:1603  aggregatorRateData.tokenRate */\n      0x00\n      add\n      sload\n        /* \"ptrn_eco_system_dev_contracts/V1_fakePtrnEcosystemParticipationSmartContract.sol\":1605:1623  aggregatorRateData */\n      0x02\n        /* \"ptrn_eco_system_dev_contracts/V1_fakePtrnEcosystemParticipationSmartContract.sol\":1605:1632  aggregatorRateData.decimals */\n      0x01\n      add\n      sload\n        /* \"ptrn_eco_system_dev_contracts/V1_fakePtrnEcosystemParticipationSmartContract.sol\":1634:1652  aggregatorRateData */\n      0x02\n        /* \"ptrn_eco_system_dev_contracts/V1_fakePtrnEcosystemParticipationSmartContract.sol\":1634:1668  aggregatorRateData.tokenRateString */\n      dup1\n      add\n        /* \"ptrn_eco_system_dev_contracts/V1_fakePtrnEcosystemParticipationSmartContract.sol\":1567:1669  return (aggregatorRateData.tokenRate, aggregatorRateData.decimals, aggregatorRateData.tokenRateString) */\n      dup1\n      dup1\n      sload\n      tag_48\n      swap1\n      tag_42\n      jump\t// in\n    tag_48:\n      dup1\n      0x1f\n      add\n      0x20\n      dup1\n      swap2\n      div\n      mul\n      0x20\n      add\n      mload(0x40)\n      swap1\n      dup2\n      add\n      0x40\n      mstore\n      dup1\n      swap3\n      swap2\n      swap1\n      dup2\n      dup2\n      mstore\n      0x20\n      add\n      dup3\n      dup1\n      sload\n      tag_49\n      swap1\n      tag_42\n      jump\t// in\n    tag_49:\n      dup1\n      iszero\n      tag_50\n      jumpi\n      dup1\n      0x1f\n      lt\n      tag_51\n      jumpi\n      0x0100\n      dup1\n      dup4\n      sload\n      div\n      mul\n      dup4\n      mstore\n      swap2\n      0x20\n      add\n      swap2\n      jump(tag_50)\n    tag_51:\n      dup3\n      add\n      swap2\n      swap1\n      0x00\n      mstore\n      keccak256(0x00, 0x20)\n      swap1\n    tag_52:\n      dup2\n      sload\n      dup2\n      mstore\n      swap1\n      0x01\n      add\n      swap1\n      0x20\n      add\n      dup1\n      dup4\n      gt\n      tag_52\n      jumpi\n      dup3\n      swap1\n      sub\n      0x1f\n      and\n      dup3\n      add\n      swap2\n    tag_50:\n      pop\n      pop\n      pop\n      pop\n      pop\n      swap1\n      pop\n      swap3\n      pop\n      swap3\n      pop\n      swap3\n      pop\n        /* \"ptrn_eco_system_dev_contracts/V1_fakePtrnEcosystemParticipationSmartContract.sol\":1471:1676  function getRateFromAgregator() public view returns (uint256, uint256, string memory) {... */\n      swap1\n      swap2\n      swap3\n      jump\t// out\n        /* \"ptrn_eco_system_dev_contracts/V1_fakePtrnEcosystemParticipationSmartContract.sol\":986:1465  function setRateFromAgregator() public returns (bool) {... */\n    tag_28:\n        /* \"ptrn_eco_system_dev_contracts/V1_fakePtrnEcosystemParticipationSmartContract.sol\":1034:1038  bool */\n      0x00\n        /* \"ptrn_eco_system_dev_contracts/V1_fakePtrnEcosystemParticipationSmartContract.sol\":1081:1082  0 */\n      dup1\n        /* \"ptrn_eco_system_dev_contracts/V1_fakePtrnEcosystemParticipationSmartContract.sol\":1050:1068  aggregatorRateData */\n      0x02\n        /* \"ptrn_eco_system_dev_contracts/V1_fakePtrnEcosystemParticipationSmartContract.sol\":1050:1078  aggregatorRateData.tokenRate */\n      0x00\n      add\n        /* \"ptrn_eco_system_dev_contracts/V1_fakePtrnEcosystemParticipationSmartContract.sol\":1050:1082  aggregatorRateData.tokenRate = 0 */\n      dup2\n      swap1\n      sstore\n      pop\n        /* \"ptrn_eco_system_dev_contracts/V1_fakePtrnEcosystemParticipationSmartContract.sol\":1122:1123  0 */\n      0x00\n        /* \"ptrn_eco_system_dev_contracts/V1_fakePtrnEcosystemParticipationSmartContract.sol\":1092:1110  aggregatorRateData */\n      0x02\n        /* \"ptrn_eco_system_dev_contracts/V1_fakePtrnEcosystemParticipationSmartContract.sol\":1092:1119  aggregatorRateData.decimals */\n      0x01\n      add\n        /* \"ptrn_eco_system_dev_contracts/V1_fakePtrnEcosystemParticipationSmartContract.sol\":1092:1123  aggregatorRateData.decimals = 0 */\n      dup2\n      swap1\n      sstore\n      pop\n        /* \"ptrn_eco_system_dev_contracts/V1_fakePtrnEcosystemParticipationSmartContract.sol\":1133:1175  aggregatorRateData.tokenRateString = \"N/A\" */\n      mload(0x40)\n      dup1\n      0x40\n      add\n      0x40\n      mstore\n      dup1\n      0x03\n      dup2\n      mstore\n      0x20\n      add\n      0x4e2f410000000000000000000000000000000000000000000000000000000000\n      dup2\n      mstore\n      pop\n        /* \"ptrn_eco_system_dev_contracts/V1_fakePtrnEcosystemParticipationSmartContract.sol\":1133:1151  aggregatorRateData */\n      0x02\n        /* \"ptrn_eco_system_dev_contracts/V1_fakePtrnEcosystemParticipationSmartContract.sol\":1133:1167  aggregatorRateData.tokenRateString */\n      dup1\n      add\n        /* \"ptrn_eco_system_dev_contracts/V1_fakePtrnEcosystemParticipationSmartContract.sol\":1133:1175  aggregatorRateData.tokenRateString = \"N/A\" */\n      swap1\n      dup2\n      tag_54\n      swap2\n      swap1\n      tag_32\n      jump\t// in\n    tag_54:\n      pop\n        /* \"ptrn_eco_system_dev_contracts/V1_fakePtrnEcosystemParticipationSmartContract.sol\":1186:1198  uint256 rate */\n      0x00\n        /* \"ptrn_eco_system_dev_contracts/V1_fakePtrnEcosystemParticipationSmartContract.sol\":1200:1216  uint256 decimals */\n      dup1\n        /* \"ptrn_eco_system_dev_contracts/V1_fakePtrnEcosystemParticipationSmartContract.sol\":1218:1242  string memory rateString */\n      0x00\n        /* \"ptrn_eco_system_dev_contracts/V1_fakePtrnEcosystemParticipationSmartContract.sol\":1246:1263  agregatorConsumer */\n      dup1\n      0x00\n      swap1\n      sload\n      swap1\n      0x0100\n      exp\n      swap1\n      div\n      0xffffffffffffffffffffffffffffffffffffffff\n      and\n        /* \"ptrn_eco_system_dev_contracts/V1_fakePtrnEcosystemParticipationSmartContract.sol\":1246:1284  agregatorConsumer.getLatestPriceOfUSDT */\n      0xffffffffffffffffffffffffffffffffffffffff\n      and\n      0x8463cd32\n        /* \"ptrn_eco_system_dev_contracts/V1_fakePtrnEcosystemParticipationSmartContract.sol\":1246:1286  agregatorConsumer.getLatestPriceOfUSDT() */\n      mload(0x40)\n      dup2\n      0xffffffff\n      and\n      0xe0\n      shl\n      dup2\n      mstore\n      0x04\n      add\n      0x00\n      mload(0x40)\n      dup1\n      dup4\n      sub\n      dup2\n      0x00\n      dup8\n      gas\n      call\n      iszero\n      dup1\n      iszero\n      tag_56\n      jumpi\n      returndatasize\n      0x00\n      dup1\n      returndatacopy\n      revert(0x00, returndatasize)\n    tag_56:\n      pop\n      pop\n      pop\n      pop\n      mload(0x40)\n      returndatasize\n      0x00\n      dup3\n      returndatacopy\n      returndatasize\n      not(0x1f)\n      0x1f\n      dup3\n      add\n      and\n      dup3\n      add\n      dup1\n      0x40\n      mstore\n      pop\n      dup2\n      add\n      swap1\n      tag_57\n      swap2\n      swap1\n      tag_36\n      jump\t// in\n    tag_57:\n        /* \"ptrn_eco_system_dev_contracts/V1_fakePtrnEcosystemParticipationSmartContract.sol\":1185:1286  (uint256 rate, uint256 decimals, string memory rateString) = agregatorConsumer.getLatestPriceOfUSDT() */\n      swap3\n      pop\n      swap3\n      pop\n      swap3\n      pop\n        /* \"ptrn_eco_system_dev_contracts/V1_fakePtrnEcosystemParticipationSmartContract.sol\":1327:1331  rate */\n      dup3\n        /* \"ptrn_eco_system_dev_contracts/V1_fakePtrnEcosystemParticipationSmartContract.sol\":1296:1314  aggregatorRateData */\n      0x02\n        /* \"ptrn_eco_system_dev_contracts/V1_fakePtrnEcosystemParticipationSmartContract.sol\":1296:1324  aggregatorRateData.tokenRate */\n      0x00\n      add\n        /* \"ptrn_eco_system_dev_contracts/V1_fakePtrnEcosystemParticipationSmartContract.sol\":1296:1331  aggregatorRateData.tokenRate = rate */\n      dup2\n      swap1\n      sstore\n      pop\n        /* \"ptrn_eco_system_dev_contracts/V1_fakePtrnEcosystemParticipationSmartContract.sol\":1371:1379  decimals */\n      dup2\n        /* \"ptrn_eco_system_dev_contracts/V1_fakePtrnEcosystemParticipationSmartContract.sol\":1341:1359  aggregatorRateData */\n      0x02\n        /* \"ptrn_eco_system_dev_contracts/V1_fakePtrnEcosystemParticipationSmartContract.sol\":1341:1368  aggregatorRateData.decimals */\n      0x01\n      add\n        /* \"ptrn_eco_system_dev_contracts/V1_fakePtrnEcosystemParticipationSmartContract.sol\":1341:1379  aggregatorRateData.decimals = decimals */\n      dup2\n      swap1\n      sstore\n      pop\n        /* \"ptrn_eco_system_dev_contracts/V1_fakePtrnEcosystemParticipationSmartContract.sol\":1426:1436  rateString */\n      dup1\n        /* \"ptrn_eco_system_dev_contracts/V1_fakePtrnEcosystemParticipationSmartContract.sol\":1389:1407  aggregatorRateData */\n      0x02\n        /* \"ptrn_eco_system_dev_contracts/V1_fakePtrnEcosystemParticipationSmartContract.sol\":1389:1423  aggregatorRateData.tokenRateString */\n      dup1\n      add\n        /* \"ptrn_eco_system_dev_contracts/V1_fakePtrnEcosystemParticipationSmartContract.sol\":1389:1436  aggregatorRateData.tokenRateString = rateString */\n      swap1\n      dup2\n      tag_58\n      swap2\n      swap1\n      tag_32\n      jump\t// in\n    tag_58:\n      pop\n        /* \"ptrn_eco_system_dev_contracts/V1_fakePtrnEcosystemParticipationSmartContract.sol\":1454:1458  true */\n      0x01\n        /* \"ptrn_eco_system_dev_contracts/V1_fakePtrnEcosystemParticipationSmartContract.sol\":1447:1458  return true */\n      swap4\n      pop\n      pop\n      pop\n      pop\n        /* \"ptrn_eco_system_dev_contracts/V1_fakePtrnEcosystemParticipationSmartContract.sol\":986:1465  function setRateFromAgregator() public returns (bool) {... */\n      swap1\n      jump\t// out\n        /* \"#utility.yul\":7:97   */\n    tag_59:\n        /* \"#utility.yul\":41:48   */\n      0x00\n        /* \"#utility.yul\":84:89   */\n      dup2\n        /* \"#utility.yul\":77:90   */\n      iszero\n        /* \"#utility.yul\":70:91   */\n      iszero\n        /* \"#utility.yul\":59:91   */\n      swap1\n      pop\n        /* \"#utility.yul\":7:97   */\n      swap2\n      swap1\n      pop\n      jump\t// out\n        /* \"#utility.yul\":103:212   */\n    tag_60:\n        /* \"#utility.yul\":184:205   */\n      tag_104\n        /* \"#utility.yul\":199:204   */\n      dup2\n        /* \"#utility.yul\":184:205   */\n      tag_59\n      jump\t// in\n    tag_104:\n        /* \"#utility.yul\":179:182   */\n      dup3\n        /* \"#utility.yul\":172:206   */\n      mstore\n        /* \"#utility.yul\":103:212   */\n      pop\n      pop\n      jump\t// out\n        /* \"#utility.yul\":218:428   */\n    tag_12:\n        /* \"#utility.yul\":305:309   */\n      0x00\n        /* \"#utility.yul\":343:345   */\n      0x20\n        /* \"#utility.yul\":332:341   */\n      dup3\n        /* \"#utility.yul\":328:346   */\n      add\n        /* \"#utility.yul\":320:346   */\n      swap1\n      pop\n        /* \"#utility.yul\":356:421   */\n      tag_106\n        /* \"#utility.yul\":418:419   */\n      0x00\n        /* \"#utility.yul\":407:416   */\n      dup4\n        /* \"#utility.yul\":403:420   */\n      add\n        /* \"#utility.yul\":394:400   */\n      dup5\n        /* \"#utility.yul\":356:421   */\n      tag_60\n      jump\t// in\n    tag_106:\n        /* \"#utility.yul\":218:428   */\n      swap3\n      swap2\n      pop\n      pop\n      jump\t// out\n        /* \"#utility.yul\":434:509   */\n    tag_61:\n        /* \"#utility.yul\":467:473   */\n      0x00\n        /* \"#utility.yul\":500:502   */\n      0x40\n        /* \"#utility.yul\":494:503   */\n      mload\n        /* \"#utility.yul\":484:503   */\n      swap1\n      pop\n        /* \"#utility.yul\":434:509   */\n      swap1\n      jump\t// out\n        /* \"#utility.yul\":515:632   */\n    tag_62:\n        /* \"#utility.yul\":624:625   */\n      0x00\n        /* \"#utility.yul\":621:622   */\n      dup1\n        /* \"#utility.yul\":614:626   */\n      revert\n        /* \"#utility.yul\":638:755   */\n    tag_63:\n        /* \"#utility.yul\":747:748   */\n      0x00\n        /* \"#utility.yul\":744:745   */\n      dup1\n        /* \"#utility.yul\":737:749   */\n      revert\n        /* \"#utility.yul\":761:887   */\n    tag_64:\n        /* \"#utility.yul\":798:805   */\n      0x00\n        /* \"#utility.yul\":838:880   */\n      0xffffffffffffffffffffffffffffffffffffffff\n        /* \"#utility.yul\":831:836   */\n      dup3\n        /* \"#utility.yul\":827:881   */\n      and\n        /* \"#utility.yul\":816:881   */\n      swap1\n      pop\n        /* \"#utility.yul\":761:887   */\n      swap2\n      swap1\n      pop\n      jump\t// out\n        /* \"#utility.yul\":893:989   */\n    tag_65:\n        /* \"#utility.yul\":930:937   */\n      0x00\n        /* \"#utility.yul\":959:983   */\n      tag_112\n        /* \"#utility.yul\":977:982   */\n      dup3\n        /* \"#utility.yul\":959:983   */\n      tag_64\n      jump\t// in\n    tag_112:\n        /* \"#utility.yul\":948:983   */\n      swap1\n      pop\n        /* \"#utility.yul\":893:989   */\n      swap2\n      swap1\n      pop\n      jump\t// out\n        /* \"#utility.yul\":995:1117   */\n    tag_66:\n        /* \"#utility.yul\":1068:1092   */\n      tag_114\n        /* \"#utility.yul\":1086:1091   */\n      dup2\n        /* \"#utility.yul\":1068:1092   */\n      tag_65\n      jump\t// in\n    tag_114:\n        /* \"#utility.yul\":1061:1066   */\n      dup2\n        /* \"#utility.yul\":1058:1093   */\n      eq\n        /* \"#utility.yul\":1048:1111   */\n      tag_115\n      jumpi\n        /* \"#utility.yul\":1107:1108   */\n      0x00\n        /* \"#utility.yul\":1104:1105   */\n      dup1\n        /* \"#utility.yul\":1097:1109   */\n      revert\n        /* \"#utility.yul\":1048:1111   */\n    tag_115:\n        /* \"#utility.yul\":995:1117   */\n      pop\n      jump\t// out\n        /* \"#utility.yul\":1123:1262   */\n    tag_67:\n        /* \"#utility.yul\":1169:1174   */\n      0x00\n        /* \"#utility.yul\":1207:1213   */\n      dup2\n        /* \"#utility.yul\":1194:1214   */\n      calldataload\n        /* \"#utility.yul\":1185:1214   */\n      swap1\n      pop\n        /* \"#utility.yul\":1223:1256   */\n      tag_117\n        /* \"#utility.yul\":1250:1255   */\n      dup2\n        /* \"#utility.yul\":1223:1256   */\n      tag_66\n      jump\t// in\n    tag_117:\n        /* \"#utility.yul\":1123:1262   */\n      swap3\n      swap2\n      pop\n      pop\n      jump\t// out\n        /* \"#utility.yul\":1268:1597   */\n    tag_15:\n        /* \"#utility.yul\":1327:1333   */\n      0x00\n        /* \"#utility.yul\":1376:1378   */\n      0x20\n        /* \"#utility.yul\":1364:1373   */\n      dup3\n        /* \"#utility.yul\":1355:1362   */\n      dup5\n        /* \"#utility.yul\":1351:1374   */\n      sub\n        /* \"#utility.yul\":1347:1379   */\n      slt\n        /* \"#utility.yul\":1344:1463   */\n      iszero\n      tag_119\n      jumpi\n        /* \"#utility.yul\":1382:1461   */\n      tag_120\n      tag_62\n      jump\t// in\n    tag_120:\n        /* \"#utility.yul\":1344:1463   */\n    tag_119:\n        /* \"#utility.yul\":1502:1503   */\n      0x00\n        /* \"#utility.yul\":1527:1580   */\n      tag_121\n        /* \"#utility.yul\":1572:1579   */\n      dup5\n        /* \"#utility.yul\":1563:1569   */\n      dup3\n        /* \"#utility.yul\":1552:1561   */\n      dup6\n        /* \"#utility.yul\":1548:1570   */\n      add\n        /* \"#utility.yul\":1527:1580   */\n      tag_67\n      jump\t// in\n    tag_121:\n        /* \"#utility.yul\":1517:1580   */\n      swap2\n      pop\n        /* \"#utility.yul\":1473:1590   */\n      pop\n        /* \"#utility.yul\":1268:1597   */\n      swap3\n      swap2\n      pop\n      pop\n      jump\t// out\n        /* \"#utility.yul\":1603:1680   */\n    tag_68:\n        /* \"#utility.yul\":1640:1647   */\n      0x00\n        /* \"#utility.yul\":1669:1674   */\n      dup2\n        /* \"#utility.yul\":1658:1674   */\n      swap1\n      pop\n        /* \"#utility.yul\":1603:1680   */\n      swap2\n      swap1\n      pop\n      jump\t// out\n        /* \"#utility.yul\":1686:1804   */\n    tag_69:\n        /* \"#utility.yul\":1773:1797   */\n      tag_124\n        /* \"#utility.yul\":1791:1796   */\n      dup2\n        /* \"#utility.yul\":1773:1797   */\n      tag_68\n      jump\t// in\n    tag_124:\n        /* \"#utility.yul\":1768:1771   */\n      dup3\n        /* \"#utility.yul\":1761:1798   */\n      mstore\n        /* \"#utility.yul\":1686:1804   */\n      pop\n      pop\n      jump\t// out\n        /* \"#utility.yul\":1810:1909   */\n    tag_70:\n        /* \"#utility.yul\":1862:1868   */\n      0x00\n        /* \"#utility.yul\":1896:1901   */\n      dup2\n        /* \"#utility.yul\":1890:1902   */\n      mload\n        /* \"#utility.yul\":1880:1902   */\n      swap1\n      pop\n        /* \"#utility.yul\":1810:1909   */\n      swap2\n      swap1\n      pop\n      jump\t// out\n        /* \"#utility.yul\":1915:2084   */\n    tag_71:\n        /* \"#utility.yul\":1999:2010   */\n      0x00\n        /* \"#utility.yul\":2033:2039   */\n      dup3\n        /* \"#utility.yul\":2028:2031   */\n      dup3\n        /* \"#utility.yul\":2021:2040   */\n      mstore\n        /* \"#utility.yul\":2073:2077   */\n      0x20\n        /* \"#utility.yul\":2068:2071   */\n      dup3\n        /* \"#utility.yul\":2064:2078   */\n      add\n        /* \"#utility.yul\":2049:2078   */\n      swap1\n      pop\n        /* \"#utility.yul\":1915:2084   */\n      swap3\n      swap2\n      pop\n      pop\n      jump\t// out\n        /* \"#utility.yul\":2090:2336   */\n    tag_72:\n        /* \"#utility.yul\":2171:2172   */\n      0x00\n        /* \"#utility.yul\":2181:2294   */\n    tag_128:\n        /* \"#utility.yul\":2195:2201   */\n      dup4\n        /* \"#utility.yul\":2192:2193   */\n      dup2\n        /* \"#utility.yul\":2189:2202   */\n      lt\n        /* \"#utility.yul\":2181:2294   */\n      iszero\n      tag_130\n      jumpi\n        /* \"#utility.yul\":2280:2281   */\n      dup1\n        /* \"#utility.yul\":2275:2278   */\n      dup3\n        /* \"#utility.yul\":2271:2282   */\n      add\n        /* \"#utility.yul\":2265:2283   */\n      mload\n        /* \"#utility.yul\":2261:2262   */\n      dup2\n        /* \"#utility.yul\":2256:2259   */\n      dup5\n        /* \"#utility.yul\":2252:2263   */\n      add\n        /* \"#utility.yul\":2245:2284   */\n      mstore\n        /* \"#utility.yul\":2217:2219   */\n      0x20\n        /* \"#utility.yul\":2214:2215   */\n      dup2\n        /* \"#utility.yul\":2210:2220   */\n      add\n        /* \"#utility.yul\":2205:2220   */\n      swap1\n      pop\n        /* \"#utility.yul\":2181:2294   */\n      jump(tag_128)\n    tag_130:\n        /* \"#utility.yul\":2328:2329   */\n      0x00\n        /* \"#utility.yul\":2319:2325   */\n      dup5\n        /* \"#utility.yul\":2314:2317   */\n      dup5\n        /* \"#utility.yul\":2310:2326   */\n      add\n        /* \"#utility.yul\":2303:2330   */\n      mstore\n        /* \"#utility.yul\":2152:2336   */\n      pop\n        /* \"#utility.yul\":2090:2336   */\n      pop\n      pop\n      pop\n      jump\t// out\n        /* \"#utility.yul\":2342:2444   */\n    tag_73:\n        /* \"#utility.yul\":2383:2389   */\n      0x00\n        /* \"#utility.yul\":2434:2436   */\n      0x1f\n        /* \"#utility.yul\":2430:2437   */\n      not\n        /* \"#utility.yul\":2425:2427   */\n      0x1f\n        /* \"#utility.yul\":2418:2423   */\n      dup4\n        /* \"#utility.yul\":2414:2428   */\n      add\n        /* \"#utility.yul\":2410:2438   */\n      and\n        /* \"#utility.yul\":2400:2438   */\n      swap1\n      pop\n        /* \"#utility.yul\":2342:2444   */\n      swap2\n      swap1\n      pop\n      jump\t// out\n        /* \"#utility.yul\":2450:2827   */\n    tag_74:\n        /* \"#utility.yul\":2538:2541   */\n      0x00\n        /* \"#utility.yul\":2566:2605   */\n      tag_133\n        /* \"#utility.yul\":2599:2604   */\n      dup3\n        /* \"#utility.yul\":2566:2605   */\n      tag_70\n      jump\t// in\n    tag_133:\n        /* \"#utility.yul\":2621:2692   */\n      tag_134\n        /* \"#utility.yul\":2685:2691   */\n      dup2\n        /* \"#utility.yul\":2680:2683   */\n      dup6\n        /* \"#utility.yul\":2621:2692   */\n      tag_71\n      jump\t// in\n    tag_134:\n        /* \"#utility.yul\":2614:2692   */\n      swap4\n      pop\n        /* \"#utility.yul\":2701:2766   */\n      tag_135\n        /* \"#utility.yul\":2759:2765   */\n      dup2\n        /* \"#utility.yul\":2754:2757   */\n      dup6\n        /* \"#utility.yul\":2747:2751   */\n      0x20\n        /* \"#utility.yul\":2740:2745   */\n      dup7\n        /* \"#utility.yul\":2736:2752   */\n      add\n        /* \"#utility.yul\":2701:2766   */\n      tag_72\n      jump\t// in\n    tag_135:\n        /* \"#utility.yul\":2791:2820   */\n      tag_136\n        /* \"#utility.yul\":2813:2819   */\n      dup2\n        /* \"#utility.yul\":2791:2820   */\n      tag_73\n      jump\t// in\n    tag_136:\n        /* \"#utility.yul\":2786:2789   */\n      dup5\n        /* \"#utility.yul\":2782:2821   */\n      add\n        /* \"#utility.yul\":2775:2821   */\n      swap2\n      pop\n        /* \"#utility.yul\":2542:2827   */\n      pop\n        /* \"#utility.yul\":2450:2827   */\n      swap3\n      swap2\n      pop\n      pop\n      jump\t// out\n        /* \"#utility.yul\":2833:3366   */\n    tag_23:\n        /* \"#utility.yul\":3002:3006   */\n      0x00\n        /* \"#utility.yul\":3040:3042   */\n      0x60\n        /* \"#utility.yul\":3029:3038   */\n      dup3\n        /* \"#utility.yul\":3025:3043   */\n      add\n        /* \"#utility.yul\":3017:3043   */\n      swap1\n      pop\n        /* \"#utility.yul\":3053:3124   */\n      tag_138\n        /* \"#utility.yul\":3121:3122   */\n      0x00\n        /* \"#utility.yul\":3110:3119   */\n      dup4\n        /* \"#utility.yul\":3106:3123   */\n      add\n        /* \"#utility.yul\":3097:3103   */\n      dup7\n        /* \"#utility.yul\":3053:3124   */\n      tag_69\n      jump\t// in\n    tag_138:\n        /* \"#utility.yul\":3134:3206   */\n      tag_139\n        /* \"#utility.yul\":3202:3204   */\n      0x20\n        /* \"#utility.yul\":3191:3200   */\n      dup4\n        /* \"#utility.yul\":3187:3205   */\n      add\n        /* \"#utility.yul\":3178:3184   */\n      dup6\n        /* \"#utility.yul\":3134:3206   */\n      tag_69\n      jump\t// in\n    tag_139:\n        /* \"#utility.yul\":3253:3262   */\n      dup2\n        /* \"#utility.yul\":3247:3251   */\n      dup2\n        /* \"#utility.yul\":3243:3263   */\n      sub\n        /* \"#utility.yul\":3238:3240   */\n      0x40\n        /* \"#utility.yul\":3227:3236   */\n      dup4\n        /* \"#utility.yul\":3223:3241   */\n      add\n        /* \"#utility.yul\":3216:3264   */\n      mstore\n        /* \"#utility.yul\":3281:3359   */\n      tag_140\n        /* \"#utility.yul\":3354:3358   */\n      dup2\n        /* \"#utility.yul\":3345:3351   */\n      dup5\n        /* \"#utility.yul\":3281:3359   */\n      tag_74\n      jump\t// in\n    tag_140:\n        /* \"#utility.yul\":3273:3359   */\n      swap1\n      pop\n        /* \"#utility.yul\":2833:3366   */\n      swap5\n      swap4\n      pop\n      pop\n      pop\n      pop\n      jump\t// out\n        /* \"#utility.yul\":3372:3552   */\n    tag_75:\n        /* \"#utility.yul\":3420:3497   */\n      0x4e487b7100000000000000000000000000000000000000000000000000000000\n        /* \"#utility.yul\":3417:3418   */\n      0x00\n        /* \"#utility.yul\":3410:3498   */\n      mstore\n        /* \"#utility.yul\":3517:3521   */\n      0x41\n        /* \"#utility.yul\":3514:3515   */\n      0x04\n        /* \"#utility.yul\":3507:3522   */\n      mstore\n        /* \"#utility.yul\":3541:3545   */\n      0x24\n        /* \"#utility.yul\":3538:3539   */\n      0x00\n        /* \"#utility.yul\":3531:3546   */\n      revert\n        /* \"#utility.yul\":3558:3738   */\n    tag_76:\n        /* \"#utility.yul\":3606:3683   */\n      0x4e487b7100000000000000000000000000000000000000000000000000000000\n        /* \"#utility.yul\":3603:3604   */\n      0x00\n        /* \"#utility.yul\":3596:3684   */\n      mstore\n        /* \"#utility.yul\":3703:3707   */\n      0x22\n        /* \"#utility.yul\":3700:3701   */\n      0x04\n        /* \"#utility.yul\":3693:3708   */\n      mstore\n        /* \"#utility.yul\":3727:3731   */\n      0x24\n        /* \"#utility.yul\":3724:3725   */\n      0x00\n        /* \"#utility.yul\":3717:3732   */\n      revert\n        /* \"#utility.yul\":3744:4064   */\n    tag_42:\n        /* \"#utility.yul\":3788:3794   */\n      0x00\n        /* \"#utility.yul\":3825:3826   */\n      0x02\n        /* \"#utility.yul\":3819:3823   */\n      dup3\n        /* \"#utility.yul\":3815:3827   */\n      div\n        /* \"#utility.yul\":3805:3827   */\n      swap1\n      pop\n        /* \"#utility.yul\":3872:3873   */\n      0x01\n        /* \"#utility.yul\":3866:3870   */\n      dup3\n        /* \"#utility.yul\":3862:3874   */\n      and\n        /* \"#utility.yul\":3893:3911   */\n      dup1\n        /* \"#utility.yul\":3883:3964   */\n      tag_144\n      jumpi\n        /* \"#utility.yul\":3949:3953   */\n      0x7f\n        /* \"#utility.yul\":3941:3947   */\n      dup3\n        /* \"#utility.yul\":3937:3954   */\n      and\n        /* \"#utility.yul\":3927:3954   */\n      swap2\n      pop\n        /* \"#utility.yul\":3883:3964   */\n    tag_144:\n        /* \"#utility.yul\":4011:4013   */\n      0x20\n        /* \"#utility.yul\":4003:4009   */\n      dup3\n        /* \"#utility.yul\":4000:4014   */\n      lt\n        /* \"#utility.yul\":3980:3998   */\n      dup2\n        /* \"#utility.yul\":3977:4015   */\n      sub\n        /* \"#utility.yul\":3974:4058   */\n      tag_145\n      jumpi\n        /* \"#utility.yul\":4030:4048   */\n      tag_146\n      tag_76\n      jump\t// in\n    tag_146:\n        /* \"#utility.yul\":3974:4058   */\n    tag_145:\n        /* \"#utility.yul\":3795:4064   */\n      pop\n        /* \"#utility.yul\":3744:4064   */\n      swap2\n      swap1\n      pop\n      jump\t// out\n        /* \"#utility.yul\":4070:4211   */\n    tag_77:\n        /* \"#utility.yul\":4119:4123   */\n      0x00\n        /* \"#utility.yul\":4142:4145   */\n      dup2\n        /* \"#utility.yul\":4134:4145   */\n      swap1\n      pop\n        /* \"#utility.yul\":4165:4168   */\n      dup2\n        /* \"#utility.yul\":4162:4163   */\n      0x00\n        /* \"#utility.yul\":4155:4169   */\n      mstore\n        /* \"#utility.yul\":4199:4203   */\n      0x20\n        /* \"#utility.yul\":4196:4197   */\n      0x00\n        /* \"#utility.yul\":4186:4204   */\n      keccak256\n        /* \"#utility.yul\":4178:4204   */\n      swap1\n      pop\n        /* \"#utility.yul\":4070:4211   */\n      swap2\n      swap1\n      pop\n      jump\t// out\n        /* \"#utility.yul\":4217:4310   */\n    tag_78:\n        /* \"#utility.yul\":4254:4260   */\n      0x00\n        /* \"#utility.yul\":4301:4303   */\n      0x20\n        /* \"#utility.yul\":4296:4298   */\n      0x1f\n        /* \"#utility.yul\":4289:4294   */\n      dup4\n        /* \"#utility.yul\":4285:4299   */\n      add\n        /* \"#utility.yul\":4281:4304   */\n      div\n        /* \"#utility.yul\":4271:4304   */\n      swap1\n      pop\n        /* \"#utility.yul\":4217:4310   */\n      swap2\n      swap1\n      pop\n      jump\t// out\n        /* \"#utility.yul\":4316:4423   */\n    tag_79:\n        /* \"#utility.yul\":4360:4368   */\n      0x00\n        /* \"#utility.yul\":4410:4415   */\n      dup3\n        /* \"#utility.yul\":4404:4408   */\n      dup3\n        /* \"#utility.yul\":4400:4416   */\n      shl\n        /* \"#utility.yul\":4379:4416   */\n      swap1\n      pop\n        /* \"#utility.yul\":4316:4423   */\n      swap3\n      swap2\n      pop\n      pop\n      jump\t// out\n        /* \"#utility.yul\":4429:4822   */\n    tag_80:\n        /* \"#utility.yul\":4498:4504   */\n      0x00\n        /* \"#utility.yul\":4548:4549   */\n      0x08\n        /* \"#utility.yul\":4536:4546   */\n      dup4\n        /* \"#utility.yul\":4532:4550   */\n      mul\n        /* \"#utility.yul\":4571:4668   */\n      tag_151\n        /* \"#utility.yul\":4601:4667   */\n      0xffffffffffffffffffffffffffffffffffffffffffffffffffffffffffffffff\n        /* \"#utility.yul\":4590:4599   */\n      dup3\n        /* \"#utility.yul\":4571:4668   */\n      tag_79\n      jump\t// in\n    tag_151:\n        /* \"#utility.yul\":4689:4728   */\n      tag_152\n        /* \"#utility.yul\":4719:4727   */\n      dup7\n        /* \"#utility.yul\":4708:4717   */\n      dup4\n        /* \"#utility.yul\":4689:4728   */\n      tag_79\n      jump\t// in\n    tag_152:\n        /* \"#utility.yul\":4677:4728   */\n      swap6\n      pop\n        /* \"#utility.yul\":4761:4765   */\n      dup1\n        /* \"#utility.yul\":4757:4766   */\n      not\n        /* \"#utility.yul\":4750:4755   */\n      dup5\n        /* \"#utility.yul\":4746:4767   */\n      and\n        /* \"#utility.yul\":4737:4767   */\n      swap4\n      pop\n        /* \"#utility.yul\":4810:4814   */\n      dup1\n        /* \"#utility.yul\":4800:4808   */\n      dup7\n        /* \"#utility.yul\":4796:4815   */\n      and\n        /* \"#utility.yul\":4789:4794   */\n      dup5\n        /* \"#utility.yul\":4786:4816   */\n      or\n        /* \"#utility.yul\":4776:4816   */\n      swap3\n      pop\n        /* \"#utility.yul\":4505:4822   */\n      pop\n      pop\n        /* \"#utility.yul\":4429:4822   */\n      swap4\n      swap3\n      pop\n      pop\n      pop\n      jump\t// out\n        /* \"#utility.yul\":4828:4888   */\n    tag_81:\n        /* \"#utility.yul\":4856:4859   */\n      0x00\n        /* \"#utility.yul\":4877:4882   */\n      dup2\n        /* \"#utility.yul\":4870:4882   */\n      swap1\n      pop\n        /* \"#utility.yul\":4828:4888   */\n      swap2\n      swap1\n      pop\n      jump\t// out\n        /* \"#utility.yul\":4894:5036   */\n    tag_82:\n        /* \"#utility.yul\":4944:4953   */\n      0x00\n        /* \"#utility.yul\":4977:5030   */\n      tag_155\n        /* \"#utility.yul\":4995:5029   */\n      tag_156\n        /* \"#utility.yul\":5004:5028   */\n      tag_157\n        /* \"#utility.yul\":5022:5027   */\n      dup5\n        /* \"#utility.yul\":5004:5028   */\n      tag_68\n      jump\t// in\n    tag_157:\n        /* \"#utility.yul\":4995:5029   */\n      tag_81\n      jump\t// in\n    tag_156:\n        /* \"#utility.yul\":4977:5030   */\n      tag_68\n      jump\t// in\n    tag_155:\n        /* \"#utility.yul\":4964:5030   */\n      swap1\n      pop\n        /* \"#utility.yul\":4894:5036   */\n      swap2\n      swap1\n      pop\n      jump\t// out\n        /* \"#utility.yul\":5042:5117   */\n    tag_83:\n        /* \"#utility.yul\":5085:5088   */\n      0x00\n        /* \"#utility.yul\":5106:5111   */\n      dup2\n        /* \"#utility.yul\":5099:5111   */\n      swap1\n      pop\n        /* \"#utility.yul\":5042:5117   */\n      swap2\n      swap1\n      pop\n      jump\t// out\n        /* \"#utility.yul\":5123:5392   */\n    tag_84:\n        /* \"#utility.yul\":5233:5272   */\n      tag_160\n        /* \"#utility.yul\":5264:5271   */\n      dup4\n        /* \"#utility.yul\":5233:5272   */\n      tag_82\n      jump\t// in\n    tag_160:\n        /* \"#utility.yul\":5294:5385   */\n      tag_161\n        /* \"#utility.yul\":5343:5384   */\n      tag_162\n        /* \"#utility.yul\":5367:5383   */\n      dup3\n        /* \"#utility.yul\":5343:5384   */\n      tag_83\n      jump\t// in\n    tag_162:\n        /* \"#utility.yul\":5335:5341   */\n      dup5\n        /* \"#utility.yul\":5328:5332   */\n      dup5\n        /* \"#utility.yul\":5322:5333   */\n      sload\n        /* \"#utility.yul\":5294:5385   */\n      tag_80\n      jump\t// in\n    tag_161:\n        /* \"#utility.yul\":5288:5292   */\n      dup3\n        /* \"#utility.yul\":5281:5386   */\n      sstore\n        /* \"#utility.yul\":5199:5392   */\n      pop\n        /* \"#utility.yul\":5123:5392   */\n      pop\n      pop\n      pop\n      jump\t// out\n        /* \"#utility.yul\":5398:5471   */\n    tag_85:\n        /* \"#utility.yul\":5443:5446   */\n      0x00\n        /* \"#utility.yul\":5398:5471   */\n      swap1\n      jump\t// out\n        /* \"#utility.yul\":5477:5666   */\n    tag_86:\n        /* \"#utility.yul\":5554:5586   */\n      tag_165\n      tag_85\n      jump\t// in\n    tag_165:\n        /* \"#utility.yul\":5595:5660   */\n      tag_166\n        /* \"#utility.yul\":5653:5659   */\n      dup2\n        /* \"#utility.yul\":5645:5651   */\n      dup5\n        /* \"#utility.yul\":5639:5643   */\n      dup5\n        /* \"#utility.yul\":5595:5660   */\n      tag_84\n      jump\t// in\n    tag_166:\n        /* \"#utility.yul\":5530:5666   */\n      pop\n        /* \"#utility.yul\":5477:5666   */\n      pop\n      pop\n      jump\t// out\n        /* \"#utility.yul\":5672:5858   */\n    tag_87:\n        /* \"#utility.yul\":5732:5852   */\n    tag_168:\n        /* \"#utility.yul\":5749:5752   */\n      dup2\n        /* \"#utility.yul\":5742:5747   */\n      dup2\n        /* \"#utility.yul\":5739:5753   */\n      lt\n        /* \"#utility.yul\":5732:5852   */\n      iszero\n      tag_170\n      jumpi\n        /* \"#utility.yul\":5803:5842   */\n      tag_171\n        /* \"#utility.yul\":5840:5841   */\n      0x00\n        /* \"#utility.yul\":5833:5838   */\n      dup3\n        /* \"#utility.yul\":5803:5842   */\n      tag_86\n      jump\t// in\n    tag_171:\n        /* \"#utility.yul\":5776:5777   */\n      0x01\n        /* \"#utility.yul\":5769:5774   */\n      dup2\n        /* \"#utility.yul\":5765:5778   */\n      add\n        /* \"#utility.yul\":5756:5778   */\n      swap1\n      pop\n        /* \"#utility.yul\":5732:5852   */\n      jump(tag_168)\n    tag_170:\n        /* \"#utility.yul\":5672:5858   */\n      pop\n      pop\n      jump\t// out\n        /* \"#utility.yul\":5864:6407   */\n    tag_88:\n        /* \"#utility.yul\":5965:5967   */\n      0x1f\n        /* \"#utility.yul\":5960:5963   */\n      dup3\n        /* \"#utility.yul\":5957:5968   */\n      gt\n        /* \"#utility.yul\":5954:6400   */\n      iszero\n      tag_173\n      jumpi\n        /* \"#utility.yul\":5999:6037   */\n      tag_174\n        /* \"#utility.yul\":6031:6036   */\n      dup2\n        /* \"#utility.yul\":5999:6037   */\n      tag_77\n      jump\t// in\n    tag_174:\n        /* \"#utility.yul\":6083:6112   */\n      tag_175\n        /* \"#utility.yul\":6101:6111   */\n      dup5\n        /* \"#utility.yul\":6083:6112   */\n      tag_78\n      jump\t// in\n    tag_175:\n        /* \"#utility.yul\":6073:6081   */\n      dup2\n        /* \"#utility.yul\":6069:6113   */\n      add\n        /* \"#utility.yul\":6266:6268   */\n      0x20\n        /* \"#utility.yul\":6254:6264   */\n      dup6\n        /* \"#utility.yul\":6251:6269   */\n      lt\n        /* \"#utility.yul\":6248:6297   */\n      iszero\n      tag_176\n      jumpi\n        /* \"#utility.yul\":6287:6295   */\n      dup2\n        /* \"#utility.yul\":6272:6295   */\n      swap1\n      pop\n        /* \"#utility.yul\":6248:6297   */\n    tag_176:\n        /* \"#utility.yul\":6310:6390   */\n      tag_177\n        /* \"#utility.yul\":6366:6388   */\n      tag_178\n        /* \"#utility.yul\":6384:6387   */\n      dup6\n        /* \"#utility.yul\":6366:6388   */\n      tag_78\n      jump\t// in\n    tag_178:\n        /* \"#utility.yul\":6356:6364   */\n      dup4\n        /* \"#utility.yul\":6352:6389   */\n      add\n        /* \"#utility.yul\":6339:6350   */\n      dup3\n        /* \"#utility.yul\":6310:6390   */\n      tag_87\n      jump\t// in\n    tag_177:\n        /* \"#utility.yul\":5969:6400   */\n      pop\n      pop\n        /* \"#utility.yul\":5954:6400   */\n    tag_173:\n        /* \"#utility.yul\":5864:6407   */\n      pop\n      pop\n      pop\n      jump\t// out\n        /* \"#utility.yul\":6413:6530   */\n    tag_89:\n        /* \"#utility.yul\":6467:6475   */\n      0x00\n        /* \"#utility.yul\":6517:6522   */\n      dup3\n        /* \"#utility.yul\":6511:6515   */\n      dup3\n        /* \"#utility.yul\":6507:6523   */\n      shr\n        /* \"#utility.yul\":6486:6523   */\n      swap1\n      pop\n        /* \"#utility.yul\":6413:6530   */\n      swap3\n      swap2\n      pop\n      pop\n      jump\t// out\n        /* \"#utility.yul\":6536:6705   */\n    tag_90:\n        /* \"#utility.yul\":6580:6586   */\n      0x00\n        /* \"#utility.yul\":6613:6664   */\n      tag_181\n        /* \"#utility.yul\":6661:6662   */\n      0x00\n        /* \"#utility.yul\":6657:6663   */\n      not\n        /* \"#utility.yul\":6649:6654   */\n      dup5\n        /* \"#utility.yul\":6646:6647   */\n      0x08\n        /* \"#utility.yul\":6642:6655   */\n      mul\n        /* \"#utility.yul\":6613:6664   */\n      tag_89\n      jump\t// in\n    tag_181:\n        /* \"#utility.yul\":6609:6665   */\n      not\n        /* \"#utility.yul\":6694:6698   */\n      dup1\n        /* \"#utility.yul\":6688:6692   */\n      dup4\n        /* \"#utility.yul\":6684:6699   */\n      and\n        /* \"#utility.yul\":6674:6699   */\n      swap2\n      pop\n        /* \"#utility.yul\":6587:6705   */\n      pop\n        /* \"#utility.yul\":6536:6705   */\n      swap3\n      swap2\n      pop\n      pop\n      jump\t// out\n        /* \"#utility.yul\":6710:7005   */\n    tag_91:\n        /* \"#utility.yul\":6786:6790   */\n      0x00\n        /* \"#utility.yul\":6932:6961   */\n      tag_183\n        /* \"#utility.yul\":6957:6960   */\n      dup4\n        /* \"#utility.yul\":6951:6955   */\n      dup4\n        /* \"#utility.yul\":6932:6961   */\n      tag_90\n      jump\t// in\n    tag_183:\n        /* \"#utility.yul\":6924:6961   */\n      swap2\n      pop\n        /* \"#utility.yul\":6994:6997   */\n      dup3\n        /* \"#utility.yul\":6991:6992   */\n      0x02\n        /* \"#utility.yul\":6987:6998   */\n      mul\n        /* \"#utility.yul\":6981:6985   */\n      dup3\n        /* \"#utility.yul\":6978:6999   */\n      or\n        /* \"#utility.yul\":6970:6999   */\n      swap1\n      pop\n        /* \"#utility.yul\":6710:7005   */\n      swap3\n      swap2\n      pop\n      pop\n      jump\t// out\n        /* \"#utility.yul\":7010:8405   */\n    tag_32:\n        /* \"#utility.yul\":7127:7164   */\n      tag_185\n        /* \"#utility.yul\":7160:7163   */\n      dup3\n        /* \"#utility.yul\":7127:7164   */\n      tag_70\n      jump\t// in\n    tag_185:\n        /* \"#utility.yul\":7229:7247   */\n      0xffffffffffffffff\n        /* \"#utility.yul\":7221:7227   */\n      dup2\n        /* \"#utility.yul\":7218:7248   */\n      gt\n        /* \"#utility.yul\":7215:7271   */\n      iszero\n      tag_186\n      jumpi\n        /* \"#utility.yul\":7251:7269   */\n      tag_187\n      tag_75\n      jump\t// in\n    tag_187:\n        /* \"#utility.yul\":7215:7271   */\n    tag_186:\n        /* \"#utility.yul\":7295:7333   */\n      tag_188\n        /* \"#utility.yul\":7327:7331   */\n      dup3\n        /* \"#utility.yul\":7321:7332   */\n      sload\n        /* \"#utility.yul\":7295:7333   */\n      tag_42\n      jump\t// in\n    tag_188:\n        /* \"#utility.yul\":7380:7447   */\n      tag_189\n        /* \"#utility.yul\":7440:7446   */\n      dup3\n        /* \"#utility.yul\":7432:7438   */\n      dup3\n        /* \"#utility.yul\":7426:7430   */\n      dup6\n        /* \"#utility.yul\":7380:7447   */\n      tag_88\n      jump\t// in\n    tag_189:\n        /* \"#utility.yul\":7474:7475   */\n      0x00\n        /* \"#utility.yul\":7498:7502   */\n      0x20\n        /* \"#utility.yul\":7485:7502   */\n      swap1\n      pop\n        /* \"#utility.yul\":7530:7532   */\n      0x1f\n        /* \"#utility.yul\":7522:7528   */\n      dup4\n        /* \"#utility.yul\":7519:7533   */\n      gt\n        /* \"#utility.yul\":7547:7548   */\n      0x01\n        /* \"#utility.yul\":7542:8160   */\n      dup2\n      eq\n      tag_191\n      jumpi\n        /* \"#utility.yul\":8204:8205   */\n      0x00\n        /* \"#utility.yul\":8221:8227   */\n      dup5\n        /* \"#utility.yul\":8218:8295   */\n      iszero\n      tag_192\n      jumpi\n        /* \"#utility.yul\":8270:8279   */\n      dup3\n        /* \"#utility.yul\":8265:8268   */\n      dup8\n        /* \"#utility.yul\":8261:8280   */\n      add\n        /* \"#utility.yul\":8255:8281   */\n      mload\n        /* \"#utility.yul\":8246:8281   */\n      swap1\n      pop\n        /* \"#utility.yul\":8218:8295   */\n    tag_192:\n        /* \"#utility.yul\":8321:8388   */\n      tag_193\n        /* \"#utility.yul\":8381:8387   */\n      dup6\n        /* \"#utility.yul\":8374:8379   */\n      dup3\n        /* \"#utility.yul\":8321:8388   */\n      tag_91\n      jump\t// in\n    tag_193:\n        /* \"#utility.yul\":8315:8319   */\n      dup7\n        /* \"#utility.yul\":8308:8389   */\n      sstore\n        /* \"#utility.yul\":8177:8399   */\n      pop\n        /* \"#utility.yul\":7512:8399   */\n      jump(tag_190)\n        /* \"#utility.yul\":7542:8160   */\n    tag_191:\n        /* \"#utility.yul\":7594:7598   */\n      0x1f\n        /* \"#utility.yul\":7590:7599   */\n      not\n        /* \"#utility.yul\":7582:7588   */\n      dup5\n        /* \"#utility.yul\":7578:7600   */\n      and\n        /* \"#utility.yul\":7628:7665   */\n      tag_194\n        /* \"#utility.yul\":7660:7664   */\n      dup7\n        /* \"#utility.yul\":7628:7665   */\n      tag_77\n      jump\t// in\n    tag_194:\n        /* \"#utility.yul\":7687:7688   */\n      0x00\n        /* \"#utility.yul\":7701:7909   */\n    tag_195:\n        /* \"#utility.yul\":7715:7722   */\n      dup3\n        /* \"#utility.yul\":7712:7713   */\n      dup2\n        /* \"#utility.yul\":7709:7723   */\n      lt\n        /* \"#utility.yul\":7701:7909   */\n      iszero\n      tag_197\n      jumpi\n        /* \"#utility.yul\":7794:7803   */\n      dup5\n        /* \"#utility.yul\":7789:7792   */\n      dup10\n        /* \"#utility.yul\":7785:7804   */\n      add\n        /* \"#utility.yul\":7779:7805   */\n      mload\n        /* \"#utility.yul\":7771:7777   */\n      dup3\n        /* \"#utility.yul\":7764:7806   */\n      sstore\n        /* \"#utility.yul\":7845:7846   */\n      0x01\n        /* \"#utility.yul\":7837:7843   */\n      dup3\n        /* \"#utility.yul\":7833:7847   */\n      add\n        /* \"#utility.yul\":7823:7847   */\n      swap2\n      pop\n        /* \"#utility.yul\":7892:7894   */\n      0x20\n        /* \"#utility.yul\":7881:7890   */\n      dup6\n        /* \"#utility.yul\":7877:7895   */\n      add\n        /* \"#utility.yul\":7864:7895   */\n      swap5\n      pop\n        /* \"#utility.yul\":7738:7742   */\n      0x20\n        /* \"#utility.yul\":7735:7736   */\n      dup2\n        /* \"#utility.yul\":7731:7743   */\n      add\n        /* \"#utility.yul\":7726:7743   */\n      swap1\n      pop\n        /* \"#utility.yul\":7701:7909   */\n      jump(tag_195)\n    tag_197:\n        /* \"#utility.yul\":7937:7943   */\n      dup7\n        /* \"#utility.yul\":7928:7935   */\n      dup4\n        /* \"#utility.yul\":7925:7944   */\n      lt\n        /* \"#utility.yul\":7922:8101   */\n      iszero\n      tag_198\n      jumpi\n        /* \"#utility.yul\":7995:8004   */\n      dup5\n        /* \"#utility.yul\":7990:7993   */\n      dup10\n        /* \"#utility.yul\":7986:8005   */\n      add\n        /* \"#utility.yul\":7980:8006   */\n      mload\n        /* \"#utility.yul\":8038:8086   */\n      tag_199\n        /* \"#utility.yul\":8080:8084   */\n      0x1f\n        /* \"#utility.yul\":8072:8078   */\n      dup10\n        /* \"#utility.yul\":8068:8085   */\n      and\n        /* \"#utility.yul\":8057:8066   */\n      dup3\n        /* \"#utility.yul\":8038:8086   */\n      tag_90\n      jump\t// in\n    tag_199:\n        /* \"#utility.yul\":8030:8036   */\n      dup4\n        /* \"#utility.yul\":8023:8087   */\n      sstore\n        /* \"#utility.yul\":7945:8101   */\n      pop\n        /* \"#utility.yul\":7922:8101   */\n    tag_198:\n        /* \"#utility.yul\":8147:8148   */\n      0x01\n        /* \"#utility.yul\":8143:8144   */\n      0x02\n        /* \"#utility.yul\":8135:8141   */\n      dup9\n        /* \"#utility.yul\":8131:8145   */\n      mul\n        /* \"#utility.yul\":8127:8149   */\n      add\n        /* \"#utility.yul\":8121:8125   */\n      dup9\n        /* \"#utility.yul\":8114:8150   */\n      sstore\n        /* \"#utility.yul\":7549:8160   */\n      pop\n      pop\n      pop\n        /* \"#utility.yul\":7512:8399   */\n    tag_190:\n      pop\n        /* \"#utility.yul\":7102:8405   */\n      pop\n      pop\n      pop\n        /* \"#utility.yul\":7010:8405   */\n      pop\n      pop\n      jump\t// out\n        /* \"#utility.yul\":8411:8533   */\n    tag_92:\n        /* \"#utility.yul\":8484:8508   */\n      tag_201\n        /* \"#utility.yul\":8502:8507   */\n      dup2\n        /* \"#utility.yul\":8484:8508   */\n      tag_68\n      jump\t// in\n    tag_201:\n        /* \"#utility.yul\":8477:8482   */\n      dup2\n        /* \"#utility.yul\":8474:8509   */\n      eq\n        /* \"#utility.yul\":8464:8527   */\n      tag_202\n      jumpi\n        /* \"#utility.yul\":8523:8524   */\n      0x00\n        /* \"#utility.yul\":8520:8521   */\n      dup1\n        /* \"#utility.yul\":8513:8525   */\n      revert\n        /* \"#utility.yul\":8464:8527   */\n    tag_202:\n        /* \"#utility.yul\":8411:8533   */\n      pop\n      jump\t// out\n        /* \"#utility.yul\":8539:8682   */\n    tag_93:\n        /* \"#utility.yul\":8596:8601   */\n      0x00\n        /* \"#utility.yul\":8627:8633   */\n      dup2\n        /* \"#utility.yul\":8621:8634   */\n      mload\n        /* \"#utility.yul\":8612:8634   */\n      swap1\n      pop\n        /* \"#utility.yul\":8643:8676   */\n      tag_204\n        /* \"#utility.yul\":8670:8675   */\n      dup2\n        /* \"#utility.yul\":8643:8676   */\n      tag_92\n      jump\t// in\n    tag_204:\n        /* \"#utility.yul\":8539:8682   */\n      swap3\n      swap2\n      pop\n      pop\n      jump\t// out\n        /* \"#utility.yul\":8688:8805   */\n    tag_94:\n        /* \"#utility.yul\":8797:8798   */\n      0x00\n        /* \"#utility.yul\":8794:8795   */\n      dup1\n        /* \"#utility.yul\":8787:8799   */\n      revert\n        /* \"#utility.yul\":8811:8928   */\n    tag_95:\n        /* \"#utility.yul\":8920:8921   */\n      0x00\n        /* \"#utility.yul\":8917:8918   */\n      dup1\n        /* \"#utility.yul\":8910:8922   */\n      revert\n        /* \"#utility.yul\":8934:9215   */\n    tag_96:\n        /* \"#utility.yul\":9017:9044   */\n      tag_208\n        /* \"#utility.yul\":9039:9043   */\n      dup3\n        /* \"#utility.yul\":9017:9044   */\n      tag_73\n      jump\t// in\n    tag_208:\n        /* \"#utility.yul\":9009:9015   */\n      dup2\n        /* \"#utility.yul\":9005:9045   */\n      add\n        /* \"#utility.yul\":9147:9153   */\n      dup2\n        /* \"#utility.yul\":9135:9145   */\n      dup2\n        /* \"#utility.yul\":9132:9154   */\n      lt\n        /* \"#utility.yul\":9111:9129   */\n      0xffffffffffffffff\n        /* \"#utility.yul\":9099:9109   */\n      dup3\n        /* \"#utility.yul\":9096:9130   */\n      gt\n        /* \"#utility.yul\":9093:9155   */\n      or\n        /* \"#utility.yul\":9090:9178   */\n      iszero\n      tag_209\n      jumpi\n        /* \"#utility.yul\":9158:9176   */\n      tag_210\n      tag_75\n      jump\t// in\n    tag_210:\n        /* \"#utility.yul\":9090:9178   */\n    tag_209:\n        /* \"#utility.yul\":9198:9208   */\n      dup1\n        /* \"#utility.yul\":9194:9196   */\n      0x40\n        /* \"#utility.yul\":9187:9209   */\n      mstore\n        /* \"#utility.yul\":8977:9215   */\n      pop\n        /* \"#utility.yul\":8934:9215   */\n      pop\n      pop\n      jump\t// out\n        /* \"#utility.yul\":9221:9350   */\n    tag_97:\n        /* \"#utility.yul\":9255:9261   */\n      0x00\n        /* \"#utility.yul\":9282:9302   */\n      tag_212\n      tag_61\n      jump\t// in\n    tag_212:\n        /* \"#utility.yul\":9272:9302   */\n      swap1\n      pop\n        /* \"#utility.yul\":9311:9344   */\n      tag_213\n        /* \"#utility.yul\":9339:9343   */\n      dup3\n        /* \"#utility.yul\":9331:9337   */\n      dup3\n        /* \"#utility.yul\":9311:9344   */\n      tag_96\n      jump\t// in\n    tag_213:\n        /* \"#utility.yul\":9221:9350   */\n      swap2\n      swap1\n      pop\n      jump\t// out\n        /* \"#utility.yul\":9356:9664   */\n    tag_98:\n        /* \"#utility.yul\":9418:9422   */\n      0x00\n        /* \"#utility.yul\":9508:9526   */\n      0xffffffffffffffff\n        /* \"#utility.yul\":9500:9506   */\n      dup3\n        /* \"#utility.yul\":9497:9527   */\n      gt\n        /* \"#utility.yul\":9494:9550   */\n      iszero\n      tag_215\n      jumpi\n        /* \"#utility.yul\":9530:9548   */\n      tag_216\n      tag_75\n      jump\t// in\n    tag_216:\n        /* \"#utility.yul\":9494:9550   */\n    tag_215:\n        /* \"#utility.yul\":9568:9597   */\n      tag_217\n        /* \"#utility.yul\":9590:9596   */\n      dup3\n        /* \"#utility.yul\":9568:9597   */\n      tag_73\n      jump\t// in\n    tag_217:\n        /* \"#utility.yul\":9560:9597   */\n      swap1\n      pop\n        /* \"#utility.yul\":9652:9656   */\n      0x20\n        /* \"#utility.yul\":9646:9650   */\n      dup2\n        /* \"#utility.yul\":9642:9657   */\n      add\n        /* \"#utility.yul\":9634:9657   */\n      swap1\n      pop\n        /* \"#utility.yul\":9356:9664   */\n      swap2\n      swap1\n      pop\n      jump\t// out\n        /* \"#utility.yul\":9670:10104   */\n    tag_99:\n        /* \"#utility.yul\":9759:9764   */\n      0x00\n        /* \"#utility.yul\":9784:9850   */\n      tag_219\n        /* \"#utility.yul\":9800:9849   */\n      tag_220\n        /* \"#utility.yul\":9842:9848   */\n      dup5\n        /* \"#utility.yul\":9800:9849   */\n      tag_98\n      jump\t// in\n    tag_220:\n        /* \"#utility.yul\":9784:9850   */\n      tag_97\n      jump\t// in\n    tag_219:\n        /* \"#utility.yul\":9775:9850   */\n      swap1\n      pop\n        /* \"#utility.yul\":9873:9879   */\n      dup3\n        /* \"#utility.yul\":9866:9871   */\n      dup2\n        /* \"#utility.yul\":9859:9880   */\n      mstore\n        /* \"#utility.yul\":9911:9915   */\n      0x20\n        /* \"#utility.yul\":9904:9909   */\n      dup2\n        /* \"#utility.yul\":9900:9916   */\n      add\n        /* \"#utility.yul\":9949:9952   */\n      dup5\n        /* \"#utility.yul\":9940:9946   */\n      dup5\n        /* \"#utility.yul\":9935:9938   */\n      dup5\n        /* \"#utility.yul\":9931:9947   */\n      add\n        /* \"#utility.yul\":9928:9953   */\n      gt\n        /* \"#utility.yul\":9925:10037   */\n      iszero\n      tag_221\n      jumpi\n        /* \"#utility.yul\":9956:10035   */\n      tag_222\n      tag_95\n      jump\t// in\n    tag_222:\n        /* \"#utility.yul\":9925:10037   */\n    tag_221:\n        /* \"#utility.yul\":10046:10098   */\n      tag_223\n        /* \"#utility.yul\":10091:10097   */\n      dup5\n        /* \"#utility.yul\":10086:10089   */\n      dup3\n        /* \"#utility.yul\":10081:10084   */\n      dup6\n        /* \"#utility.yul\":10046:10098   */\n      tag_72\n      jump\t// in\n    tag_223:\n        /* \"#utility.yul\":9765:10104   */\n      pop\n        /* \"#utility.yul\":9670:10104   */\n      swap4\n      swap3\n      pop\n      pop\n      pop\n      jump\t// out\n        /* \"#utility.yul\":10124:10479   */\n    tag_100:\n        /* \"#utility.yul\":10191:10196   */\n      0x00\n        /* \"#utility.yul\":10240:10243   */\n      dup3\n        /* \"#utility.yul\":10233:10237   */\n      0x1f\n        /* \"#utility.yul\":10225:10231   */\n      dup4\n        /* \"#utility.yul\":10221:10238   */\n      add\n        /* \"#utility.yul\":10217:10244   */\n      slt\n        /* \"#utility.yul\":10207:10329   */\n      tag_225\n      jumpi\n        /* \"#utility.yul\":10248:10327   */\n      tag_226\n      tag_94\n      jump\t// in\n    tag_226:\n        /* \"#utility.yul\":10207:10329   */\n    tag_225:\n        /* \"#utility.yul\":10358:10364   */\n      dup2\n        /* \"#utility.yul\":10352:10365   */\n      mload\n        /* \"#utility.yul\":10383:10473   */\n      tag_227\n        /* \"#utility.yul\":10469:10472   */\n      dup5\n        /* \"#utility.yul\":10461:10467   */\n      dup3\n        /* \"#utility.yul\":10454:10458   */\n      0x20\n        /* \"#utility.yul\":10446:10452   */\n      dup7\n        /* \"#utility.yul\":10442:10459   */\n      add\n        /* \"#utility.yul\":10383:10473   */\n      tag_99\n      jump\t// in\n    tag_227:\n        /* \"#utility.yul\":10374:10473   */\n      swap2\n      pop\n        /* \"#utility.yul\":10197:10479   */\n      pop\n        /* \"#utility.yul\":10124:10479   */\n      swap3\n      swap2\n      pop\n      pop\n      jump\t// out\n        /* \"#utility.yul\":10485:11321   */\n    tag_36:\n        /* \"#utility.yul\":10583:10589   */\n      0x00\n        /* \"#utility.yul\":10591:10597   */\n      dup1\n        /* \"#utility.yul\":10599:10605   */\n      0x00\n        /* \"#utility.yul\":10648:10650   */\n      0x60\n        /* \"#utility.yul\":10636:10645   */\n      dup5\n        /* \"#utility.yul\":10627:10634   */\n      dup7\n        /* \"#utility.yul\":10623:10646   */\n      sub\n        /* \"#utility.yul\":10619:10651   */\n      slt\n        /* \"#utility.yul\":10616:10735   */\n      iszero\n      tag_229\n      jumpi\n        /* \"#utility.yul\":10654:10733   */\n      tag_230\n      tag_62\n      jump\t// in\n    tag_230:\n        /* \"#utility.yul\":10616:10735   */\n    tag_229:\n        /* \"#utility.yul\":10774:10775   */\n      0x00\n        /* \"#utility.yul\":10799:10863   */\n      tag_231\n        /* \"#utility.yul\":10855:10862   */\n      dup7\n        /* \"#utility.yul\":10846:10852   */\n      dup3\n        /* \"#utility.yul\":10835:10844   */\n      dup8\n        /* \"#utility.yul\":10831:10853   */\n      add\n        /* \"#utility.yul\":10799:10863   */\n      tag_93\n      jump\t// in\n    tag_231:\n        /* \"#utility.yul\":10789:10863   */\n      swap4\n      pop\n        /* \"#utility.yul\":10745:10873   */\n      pop\n        /* \"#utility.yul\":10912:10914   */\n      0x20\n        /* \"#utility.yul\":10938:11002   */\n      tag_232\n        /* \"#utility.yul\":10994:11001   */\n      dup7\n        /* \"#utility.yul\":10985:10991   */\n      dup3\n        /* \"#utility.yul\":10974:10983   */\n      dup8\n        /* \"#utility.yul\":10970:10992   */\n      add\n        /* \"#utility.yul\":10938:11002   */\n      tag_93\n      jump\t// in\n    tag_232:\n        /* \"#utility.yul\":10928:11002   */\n      swap3\n      pop\n        /* \"#utility.yul\":10883:11012   */\n      pop\n        /* \"#utility.yul\":11072:11074   */\n      0x40\n        /* \"#utility.yul\":11061:11070   */\n      dup5\n        /* \"#utility.yul\":11057:11075   */\n      add\n        /* \"#utility.yul\":11051:11076   */\n      mload\n        /* \"#utility.yul\":11103:11121   */\n      0xffffffffffffffff\n        /* \"#utility.yul\":11095:11101   */\n      dup2\n        /* \"#utility.yul\":11092:11122   */\n      gt\n        /* \"#utility.yul\":11089:11206   */\n      iszero\n      tag_233\n      jumpi\n        /* \"#utility.yul\":11125:11204   */\n      tag_234\n      tag_63\n      jump\t// in\n    tag_234:\n        /* \"#utility.yul\":11089:11206   */\n    tag_233:\n        /* \"#utility.yul\":11230:11304   */\n      tag_235\n        /* \"#utility.yul\":11296:11303   */\n      dup7\n        /* \"#utility.yul\":11287:11293   */\n      dup3\n        /* \"#utility.yul\":11276:11285   */\n      dup8\n        /* \"#utility.yul\":11272:11294   */\n      add\n        /* \"#utility.yul\":11230:11304   */\n      tag_100\n      jump\t// in\n    tag_235:\n        /* \"#utility.yul\":11220:11304   */\n      swap2\n      pop\n        /* \"#utility.yul\":11022:11314   */\n      pop\n        /* \"#utility.yul\":10485:11321   */\n      swap3\n      pop\n      swap3\n      pop\n      swap3\n      jump\t// out\n\n    auxdata: 0xa26469706673582212209328e158739633ee0064aae803b58fd2a7f9d7e6f8cf11f09c665299c339471264736f6c63430008170033\n}\n",
				"bytecode": {
					"linkReferences": {},
					"object": "608060405234801561001057600080fd5b50610bef806100206000396000f3fe608060405234801561001057600080fd5b50600436106100625760003560e01c806301377cde146100675780631d9abd7f146100855780634cbbb4d2146100a157806368adeb57146100bd578063a436e9f8146100dd578063e7cac28d146100fd575b600080fd5b61006f61011b565b60405161007c9190610579565b60405180910390f35b61009f600480360381019061009a9190610606565b61024e565b005b6100bb60048036038101906100b69190610606565b610291565b005b6100c56102d5565b6040516100d4939291906106dc565b60405180910390f35b6100e5610382565b6040516100f4939291906106dc565b60405180910390f35b61010561042e565b6040516101129190610579565b60405180910390f35b60008060056000018190555060006005600101819055506040518060400160405280600381526020017f4e2f410000000000000000000000000000000000000000000000000000000000815250600560020190816101799190610955565b506000806000600160009054906101000a900473ffffffffffffffffffffffffffffffffffffffff1673ffffffffffffffffffffffffffffffffffffffff1663454d12566040518163ffffffff1660e01b81526004016000604051808303816000875af11580156101ee573d6000803e3d6000fd5b505050506040513d6000823e3d601f19601f820116820180604052508101906102179190610b4a565b925092509250826005600001819055508160056001018190555080600560020190816102439190610955565b506001935050505090565b806000806101000a81548173ffffffffffffffffffffffffffffffffffffffff021916908373ffffffffffffffffffffffffffffffffffffffff16021790555050565b80600160006101000a81548173ffffffffffffffffffffffffffffffffffffffff021916908373ffffffffffffffffffffffffffffffffffffffff16021790555050565b600080606060056000015460056001015460056002018080546102f790610778565b80601f016020809104026020016040519081016040528092919081815260200182805461032390610778565b80156103705780601f1061034557610100808354040283529160200191610370565b820191906000526020600020905b81548152906001019060200180831161035357829003601f168201915b50505050509050925092509250909192565b6000806060600260000154600260010154600280018080546103a390610778565b80601f01602080910402602001604051908101604052809291908181526020018280546103cf90610778565b801561041c5780601f106103f15761010080835404028352916020019161041c565b820191906000526020600020905b8154815290600101906020018083116103ff57829003601f168201915b50505050509050925092509250909192565b60008060026000018190555060006002600101819055506040518060400160405280600381526020017f4e2f41000000000000000000000000000000000000000000000000000000000081525060028001908161048b9190610955565b5060008060008060009054906101000a900473ffffffffffffffffffffffffffffffffffffffff1673ffffffffffffffffffffffffffffffffffffffff16638463cd326040518163ffffffff1660e01b81526004016000604051808303816000875af11580156104ff573d6000803e3d6000fd5b505050506040513d6000823e3d601f19601f820116820180604052508101906105289190610b4a565b9250925092508260026000018190555081600260010181905550806002800190816105539190610955565b506001935050505090565b60008115159050919050565b6105738161055e565b82525050565b600060208201905061058e600083018461056a565b92915050565b6000604051905090565b600080fd5b600080fd5b600073ffffffffffffffffffffffffffffffffffffffff82169050919050565b60006105d3826105a8565b9050919050565b6105e3816105c8565b81146105ee57600080fd5b50565b600081359050610600816105da565b92915050565b60006020828403121561061c5761061b61059e565b5b600061062a848285016105f1565b91505092915050565b6000819050919050565b61064681610633565b82525050565b600081519050919050565b600082825260208201905092915050565b60005b8381101561068657808201518184015260208101905061066b565b60008484015250505050565b6000601f19601f8301169050919050565b60006106ae8261064c565b6106b88185610657565b93506106c8818560208601610668565b6106d181610692565b840191505092915050565b60006060820190506106f1600083018661063d565b6106fe602083018561063d565b818103604083015261071081846106a3565b9050949350505050565b7f4e487b7100000000000000000000000000000000000000000000000000000000600052604160045260246000fd5b7f4e487b7100000000000000000000000000000000000000000000000000000000600052602260045260246000fd5b6000600282049050600182168061079057607f821691505b6020821081036107a3576107a2610749565b5b50919050565b60008190508160005260206000209050919050565b60006020601f8301049050919050565b600082821b905092915050565b60006008830261080b7fffffffffffffffffffffffffffffffffffffffffffffffffffffffffffffffff826107ce565b61081586836107ce565b95508019841693508086168417925050509392505050565b6000819050919050565b600061085261084d61084884610633565b61082d565b610633565b9050919050565b6000819050919050565b61086c83610837565b61088061087882610859565b8484546107db565b825550505050565b600090565b610895610888565b6108a0818484610863565b505050565b5b818110156108c4576108b960008261088d565b6001810190506108a6565b5050565b601f821115610909576108da816107a9565b6108e3846107be565b810160208510156108f2578190505b6109066108fe856107be565b8301826108a5565b50505b505050565b600082821c905092915050565b600061092c6000198460080261090e565b1980831691505092915050565b6000610945838361091b565b9150826002028217905092915050565b61095e8261064c565b67ffffffffffffffff8111156109775761097661071a565b5b6109818254610778565b61098c8282856108c8565b600060209050601f8311600181146109bf57600084156109ad578287015190505b6109b78582610939565b865550610a1f565b601f1984166109cd866107a9565b60005b828110156109f5578489015182556001820191506020850194506020810190506109d0565b86831015610a125784890151610a0e601f89168261091b565b8355505b6001600288020188555050505b505050505050565b610a3081610633565b8114610a3b57600080fd5b50565b600081519050610a4d81610a27565b92915050565b600080fd5b600080fd5b610a6682610692565b810181811067ffffffffffffffff82111715610a8557610a8461071a565b5b80604052505050565b6000610a98610594565b9050610aa48282610a5d565b919050565b600067ffffffffffffffff821115610ac457610ac361071a565b5b610acd82610692565b9050602081019050919050565b6000610aed610ae884610aa9565b610a8e565b905082815260208101848484011115610b0957610b08610a58565b5b610b14848285610668565b509392505050565b600082601f830112610b3157610b30610a53565b5b8151610b41848260208601610ada565b91505092915050565b600080600060608486031215610b6357610b6261059e565b5b6000610b7186828701610a3e565b9350506020610b8286828701610a3e565b925050604084015167ffffffffffffffff811115610ba357610ba26105a3565b5b610baf86828701610b1c565b915050925092509256fea26469706673582212209328e158739633ee0064aae803b58fd2a7f9d7e6f8cf11f09c665299c339471264736f6c63430008170033",
					"opcodes": "PUSH1 0x80 PUSH1 0x40 MSTORE CALLVALUE DUP1 ISZERO PUSH2 0x10 JUMPI PUSH1 0x0 DUP1 REVERT JUMPDEST POP PUSH2 0xBEF DUP1 PUSH2 0x20 PUSH1 0x0 CODECOPY PUSH1 0x0 RETURN INVALID PUSH1 0x80 PUSH1 0x40 MSTORE CALLVALUE DUP1 ISZERO PUSH2 0x10 JUMPI PUSH1 0x0 DUP1 REVERT JUMPDEST POP PUSH1 0x4 CALLDATASIZE LT PUSH2 0x62 JUMPI PUSH1 0x0 CALLDATALOAD PUSH1 0xE0 SHR DUP1 PUSH4 0x1377CDE EQ PUSH2 0x67 JUMPI DUP1 PUSH4 0x1D9ABD7F EQ PUSH2 0x85 JUMPI DUP1 PUSH4 0x4CBBB4D2 EQ PUSH2 0xA1 JUMPI DUP1 PUSH4 0x68ADEB57 EQ PUSH2 0xBD JUMPI DUP1 PUSH4 0xA436E9F8 EQ PUSH2 0xDD JUMPI DUP1 PUSH4 0xE7CAC28D EQ PUSH2 0xFD JUMPI JUMPDEST PUSH1 0x0 DUP1 REVERT JUMPDEST PUSH2 0x6F PUSH2 0x11B JUMP JUMPDEST PUSH1 0x40 MLOAD PUSH2 0x7C SWAP2 SWAP1 PUSH2 0x579 JUMP JUMPDEST PUSH1 0x40 MLOAD DUP1 SWAP2 SUB SWAP1 RETURN JUMPDEST PUSH2 0x9F PUSH1 0x4 DUP1 CALLDATASIZE SUB DUP2 ADD SWAP1 PUSH2 0x9A SWAP2 SWAP1 PUSH2 0x606 JUMP JUMPDEST PUSH2 0x24E JUMP JUMPDEST STOP JUMPDEST PUSH2 0xBB PUSH1 0x4 DUP1 CALLDATASIZE SUB DUP2 ADD SWAP1 PUSH2 0xB6 SWAP2 SWAP1 PUSH2 0x606 JUMP JUMPDEST PUSH2 0x291 JUMP JUMPDEST STOP JUMPDEST PUSH2 0xC5 PUSH2 0x2D5 JUMP JUMPDEST PUSH1 0x40 MLOAD PUSH2 0xD4 SWAP4 SWAP3 SWAP2 SWAP1 PUSH2 0x6DC JUMP JUMPDEST PUSH1 0x40 MLOAD DUP1 SWAP2 SUB SWAP1 RETURN JUMPDEST PUSH2 0xE5 PUSH2 0x382 JUMP JUMPDEST PUSH1 0x40 MLOAD PUSH2 0xF4 SWAP4 SWAP3 SWAP2 SWAP1 PUSH2 0x6DC JUMP JUMPDEST PUSH1 0x40 MLOAD DUP1 SWAP2 SUB SWAP1 RETURN JUMPDEST PUSH2 0x105 PUSH2 0x42E JUMP JUMPDEST PUSH1 0x40 MLOAD PUSH2 0x112 SWAP2 SWAP1 PUSH2 0x579 JUMP JUMPDEST PUSH1 0x40 MLOAD DUP1 SWAP2 SUB SWAP1 RETURN JUMPDEST PUSH1 0x0 DUP1 PUSH1 0x5 PUSH1 0x0 ADD DUP2 SWAP1 SSTORE POP PUSH1 0x0 PUSH1 0x5 PUSH1 0x1 ADD DUP2 SWAP1 SSTORE POP PUSH1 0x40 MLOAD DUP1 PUSH1 0x40 ADD PUSH1 0x40 MSTORE DUP1 PUSH1 0x3 DUP2 MSTORE PUSH1 0x20 ADD PUSH32 0x4E2F410000000000000000000000000000000000000000000000000000000000 DUP2 MSTORE POP PUSH1 0x5 PUSH1 0x2 ADD SWAP1 DUP2 PUSH2 0x179 SWAP2 SWAP1 PUSH2 0x955 JUMP JUMPDEST POP PUSH1 0x0 DUP1 PUSH1 0x0 PUSH1 0x1 PUSH1 0x0 SWAP1 SLOAD SWAP1 PUSH2 0x100 EXP SWAP1 DIV PUSH20 0xFFFFFFFFFFFFFFFFFFFFFFFFFFFFFFFFFFFFFFFF AND PUSH20 0xFFFFFFFFFFFFFFFFFFFFFFFFFFFFFFFFFFFFFFFF AND PUSH4 0x454D1256 PUSH1 0x40 MLOAD DUP2 PUSH4 0xFFFFFFFF AND PUSH1 0xE0 SHL DUP2 MSTORE PUSH1 0x4 ADD PUSH1 0x0 PUSH1 0x40 MLOAD DUP1 DUP4 SUB DUP2 PUSH1 0x0 DUP8 GAS CALL ISZERO DUP1 ISZERO PUSH2 0x1EE JUMPI RETURNDATASIZE PUSH1 0x0 DUP1 RETURNDATACOPY RETURNDATASIZE PUSH1 0x0 REVERT JUMPDEST POP POP POP POP PUSH1 0x40 MLOAD RETURNDATASIZE PUSH1 0x0 DUP3 RETURNDATACOPY RETURNDATASIZE PUSH1 0x1F NOT PUSH1 0x1F DUP3 ADD AND DUP3 ADD DUP1 PUSH1 0x40 MSTORE POP DUP2 ADD SWAP1 PUSH2 0x217 SWAP2 SWAP1 PUSH2 0xB4A JUMP JUMPDEST SWAP3 POP SWAP3 POP SWAP3 POP DUP3 PUSH1 0x5 PUSH1 0x0 ADD DUP2 SWAP1 SSTORE POP DUP2 PUSH1 0x5 PUSH1 0x1 ADD DUP2 SWAP1 SSTORE POP DUP1 PUSH1 0x5 PUSH1 0x2 ADD SWAP1 DUP2 PUSH2 0x243 SWAP2 SWAP1 PUSH2 0x955 JUMP JUMPDEST POP PUSH1 0x1 SWAP4 POP POP POP POP SWAP1 JUMP JUMPDEST DUP1 PUSH1 0x0 DUP1 PUSH2 0x100 EXP DUP2 SLOAD DUP2 PUSH20 0xFFFFFFFFFFFFFFFFFFFFFFFFFFFFFFFFFFFFFFFF MUL NOT AND SWAP1 DUP4 PUSH20 0xFFFFFFFFFFFFFFFFFFFFFFFFFFFFFFFFFFFFFFFF AND MUL OR SWAP1 SSTORE POP POP JUMP JUMPDEST DUP1 PUSH1 0x1 PUSH1 0x0 PUSH2 0x100 EXP DUP2 SLOAD DUP2 PUSH20 0xFFFFFFFFFFFFFFFFFFFFFFFFFFFFFFFFFFFFFFFF MUL NOT AND SWAP1 DUP4 PUSH20 0xFFFFFFFFFFFFFFFFFFFFFFFFFFFFFFFFFFFFFFFF AND MUL OR SWAP1 SSTORE POP POP JUMP JUMPDEST PUSH1 0x0 DUP1 PUSH1 0x60 PUSH1 0x5 PUSH1 0x0 ADD SLOAD PUSH1 0x5 PUSH1 0x1 ADD SLOAD PUSH1 0x5 PUSH1 0x2 ADD DUP1 DUP1 SLOAD PUSH2 0x2F7 SWAP1 PUSH2 0x778 JUMP JUMPDEST DUP1 PUSH1 0x1F ADD PUSH1 0x20 DUP1 SWAP2 DIV MUL PUSH1 0x20 ADD PUSH1 0x40 MLOAD SWAP1 DUP2 ADD PUSH1 0x40 MSTORE DUP1 SWAP3 SWAP2 SWAP1 DUP2 DUP2 MSTORE PUSH1 0x20 ADD DUP3 DUP1 SLOAD PUSH2 0x323 SWAP1 PUSH2 0x778 JUMP JUMPDEST DUP1 ISZERO PUSH2 0x370 JUMPI DUP1 PUSH1 0x1F LT PUSH2 0x345 JUMPI PUSH2 0x100 DUP1 DUP4 SLOAD DIV MUL DUP4 MSTORE SWAP2 PUSH1 0x20 ADD SWAP2 PUSH2 0x370 JUMP JUMPDEST DUP3 ADD SWAP2 SWAP1 PUSH1 0x0 MSTORE PUSH1 0x20 PUSH1 0x0 KECCAK256 SWAP1 JUMPDEST DUP2 SLOAD DUP2 MSTORE SWAP1 PUSH1 0x1 ADD SWAP1 PUSH1 0x20 ADD DUP1 DUP4 GT PUSH2 0x353 JUMPI DUP3 SWAP1 SUB PUSH1 0x1F AND DUP3 ADD SWAP2 JUMPDEST POP POP POP POP POP SWAP1 POP SWAP3 POP SWAP3 POP SWAP3 POP SWAP1 SWAP2 SWAP3 JUMP JUMPDEST PUSH1 0x0 DUP1 PUSH1 0x60 PUSH1 0x2 PUSH1 0x0 ADD SLOAD PUSH1 0x2 PUSH1 0x1 ADD SLOAD PUSH1 0x2 DUP1 ADD DUP1 DUP1 SLOAD PUSH2 0x3A3 SWAP1 PUSH2 0x778 JUMP JUMPDEST DUP1 PUSH1 0x1F ADD PUSH1 0x20 DUP1 SWAP2 DIV MUL PUSH1 0x20 ADD PUSH1 0x40 MLOAD SWAP1 DUP2 ADD PUSH1 0x40 MSTORE DUP1 SWAP3 SWAP2 SWAP1 DUP2 DUP2 MSTORE PUSH1 0x20 ADD DUP3 DUP1 SLOAD PUSH2 0x3CF SWAP1 PUSH2 0x778 JUMP JUMPDEST DUP1 ISZERO PUSH2 0x41C JUMPI DUP1 PUSH1 0x1F LT PUSH2 0x3F1 JUMPI PUSH2 0x100 DUP1 DUP4 SLOAD DIV MUL DUP4 MSTORE SWAP2 PUSH1 0x20 ADD SWAP2 PUSH2 0x41C JUMP JUMPDEST DUP3 ADD SWAP2 SWAP1 PUSH1 0x0 MSTORE PUSH1 0x20 PUSH1 0x0 KECCAK256 SWAP1 JUMPDEST DUP2 SLOAD DUP2 MSTORE SWAP1 PUSH1 0x1 ADD SWAP1 PUSH1 0x20 ADD DUP1 DUP4 GT PUSH2 0x3FF JUMPI DUP3 SWAP1 SUB PUSH1 0x1F AND DUP3 ADD SWAP2 JUMPDEST POP POP POP POP POP SWAP1 POP SWAP3 POP SWAP3 POP SWAP3 POP SWAP1 SWAP2 SWAP3 JUMP JUMPDEST PUSH1 0x0 DUP1 PUSH1 0x2 PUSH1 0x0 ADD DUP2 SWAP1 SSTORE POP PUSH1 0x0 PUSH1 0x2 PUSH1 0x1 ADD DUP2 SWAP1 SSTORE POP PUSH1 0x40 MLOAD DUP1 PUSH1 0x40 ADD PUSH1 0x40 MSTORE DUP1 PUSH1 0x3 DUP2 MSTORE PUSH1 0x20 ADD PUSH32 0x4E2F410000000000000000000000000000000000000000000000000000000000 DUP2 MSTORE POP PUSH1 0x2 DUP1 ADD SWAP1 DUP2 PUSH2 0x48B SWAP2 SWAP1 PUSH2 0x955 JUMP JUMPDEST POP PUSH1 0x0 DUP1 PUSH1 0x0 DUP1 PUSH1 0x0 SWAP1 SLOAD SWAP1 PUSH2 0x100 EXP SWAP1 DIV PUSH20 0xFFFFFFFFFFFFFFFFFFFFFFFFFFFFFFFFFFFFFFFF AND PUSH20 0xFFFFFFFFFFFFFFFFFFFFFFFFFFFFFFFFFFFFFFFF AND PUSH4 0x8463CD32 PUSH1 0x40 MLOAD DUP2 PUSH4 0xFFFFFFFF AND PUSH1 0xE0 SHL DUP2 MSTORE PUSH1 0x4 ADD PUSH1 0x0 PUSH1 0x40 MLOAD DUP1 DUP4 SUB DUP2 PUSH1 0x0 DUP8 GAS CALL ISZERO DUP1 ISZERO PUSH2 0x4FF JUMPI RETURNDATASIZE PUSH1 0x0 DUP1 RETURNDATACOPY RETURNDATASIZE PUSH1 0x0 REVERT JUMPDEST POP POP POP POP PUSH1 0x40 MLOAD RETURNDATASIZE PUSH1 0x0 DUP3 RETURNDATACOPY RETURNDATASIZE PUSH1 0x1F NOT PUSH1 0x1F DUP3 ADD AND DUP3 ADD DUP1 PUSH1 0x40 MSTORE POP DUP2 ADD SWAP1 PUSH2 0x528 SWAP2 SWAP1 PUSH2 0xB4A JUMP JUMPDEST SWAP3 POP SWAP3 POP SWAP3 POP DUP3 PUSH1 0x2 PUSH1 0x0 ADD DUP2 SWAP1 SSTORE POP DUP2 PUSH1 0x2 PUSH1 0x1 ADD DUP2 SWAP1 SSTORE POP DUP1 PUSH1 0x2 DUP1 ADD SWAP1 DUP2 PUSH2 0x553 SWAP2 SWAP1 PUSH2 0x955 JUMP JUMPDEST POP PUSH1 0x1 SWAP4 POP POP POP POP SWAP1 JUMP JUMPDEST PUSH1 0x0 DUP2 ISZERO ISZERO SWAP1 POP SWAP2 SWAP1 POP JUMP JUMPDEST PUSH2 0x573 DUP2 PUSH2 0x55E JUMP JUMPDEST DUP3 MSTORE POP POP JUMP JUMPDEST PUSH1 0x0 PUSH1 0x20 DUP3 ADD SWAP1 POP PUSH2 0x58E PUSH1 0x0 DUP4 ADD DUP5 PUSH2 0x56A JUMP JUMPDEST SWAP3 SWAP2 POP POP JUMP JUMPDEST PUSH1 0x0 PUSH1 0x40 MLOAD SWAP1 POP SWAP1 JUMP JUMPDEST PUSH1 0x0 DUP1 REVERT JUMPDEST PUSH1 0x0 DUP1 REVERT JUMPDEST PUSH1 0x0 PUSH20 0xFFFFFFFFFFFFFFFFFFFFFFFFFFFFFFFFFFFFFFFF DUP3 AND SWAP1 POP SWAP2 SWAP1 POP JUMP JUMPDEST PUSH1 0x0 PUSH2 0x5D3 DUP3 PUSH2 0x5A8 JUMP JUMPDEST SWAP1 POP SWAP2 SWAP1 POP JUMP JUMPDEST PUSH2 0x5E3 DUP2 PUSH2 0x5C8 JUMP JUMPDEST DUP2 EQ PUSH2 0x5EE JUMPI PUSH1 0x0 DUP1 REVERT JUMPDEST POP JUMP JUMPDEST PUSH1 0x0 DUP2 CALLDATALOAD SWAP1 POP PUSH2 0x600 DUP2 PUSH2 0x5DA JUMP JUMPDEST SWAP3 SWAP2 POP POP JUMP JUMPDEST PUSH1 0x0 PUSH1 0x20 DUP3 DUP5 SUB SLT ISZERO PUSH2 0x61C JUMPI PUSH2 0x61B PUSH2 0x59E JUMP JUMPDEST JUMPDEST PUSH1 0x0 PUSH2 0x62A DUP5 DUP3 DUP6 ADD PUSH2 0x5F1 JUMP JUMPDEST SWAP2 POP POP SWAP3 SWAP2 POP POP JUMP JUMPDEST PUSH1 0x0 DUP2 SWAP1 POP SWAP2 SWAP1 POP JUMP JUMPDEST PUSH2 0x646 DUP2 PUSH2 0x633 JUMP JUMPDEST DUP3 MSTORE POP POP JUMP JUMPDEST PUSH1 0x0 DUP2 MLOAD SWAP1 POP SWAP2 SWAP1 POP JUMP JUMPDEST PUSH1 0x0 DUP3 DUP3 MSTORE PUSH1 0x20 DUP3 ADD SWAP1 POP SWAP3 SWAP2 POP POP JUMP JUMPDEST PUSH1 0x0 JUMPDEST DUP4 DUP2 LT ISZERO PUSH2 0x686 JUMPI DUP1 DUP3 ADD MLOAD DUP2 DUP5 ADD MSTORE PUSH1 0x20 DUP2 ADD SWAP1 POP PUSH2 0x66B JUMP JUMPDEST PUSH1 0x0 DUP5 DUP5 ADD MSTORE POP POP POP POP JUMP JUMPDEST PUSH1 0x0 PUSH1 0x1F NOT PUSH1 0x1F DUP4 ADD AND SWAP1 POP SWAP2 SWAP1 POP JUMP JUMPDEST PUSH1 0x0 PUSH2 0x6AE DUP3 PUSH2 0x64C JUMP JUMPDEST PUSH2 0x6B8 DUP2 DUP6 PUSH2 0x657 JUMP JUMPDEST SWAP4 POP PUSH2 0x6C8 DUP2 DUP6 PUSH1 0x20 DUP7 ADD PUSH2 0x668 JUMP JUMPDEST PUSH2 0x6D1 DUP2 PUSH2 0x692 JUMP JUMPDEST DUP5 ADD SWAP2 POP POP SWAP3 SWAP2 POP POP JUMP JUMPDEST PUSH1 0x0 PUSH1 0x60 DUP3 ADD SWAP1 POP PUSH2 0x6F1 PUSH1 0x0 DUP4 ADD DUP7 PUSH2 0x63D JUMP JUMPDEST PUSH2 0x6FE PUSH1 0x20 DUP4 ADD DUP6 PUSH2 0x63D JUMP JUMPDEST DUP2 DUP2 SUB PUSH1 0x40 DUP4 ADD MSTORE PUSH2 0x710 DUP2 DUP5 PUSH2 0x6A3 JUMP JUMPDEST SWAP1 POP SWAP5 SWAP4 POP POP POP POP JUMP JUMPDEST PUSH32 0x4E487B7100000000000000000000000000000000000000000000000000000000 PUSH1 0x0 MSTORE PUSH1 0x41 PUSH1 0x4 MSTORE PUSH1 0x24 PUSH1 0x0 REVERT JUMPDEST PUSH32 0x4E487B7100000000000000000000000000000000000000000000000000000000 PUSH1 0x0 MSTORE PUSH1 0x22 PUSH1 0x4 MSTORE PUSH1 0x24 PUSH1 0x0 REVERT JUMPDEST PUSH1 0x0 PUSH1 0x2 DUP3 DIV SWAP1 POP PUSH1 0x1 DUP3 AND DUP1 PUSH2 0x790 JUMPI PUSH1 0x7F DUP3 AND SWAP2 POP JUMPDEST PUSH1 0x20 DUP3 LT DUP2 SUB PUSH2 0x7A3 JUMPI PUSH2 0x7A2 PUSH2 0x749 JUMP JUMPDEST JUMPDEST POP SWAP2 SWAP1 POP JUMP JUMPDEST PUSH1 0x0 DUP2 SWAP1 POP DUP2 PUSH1 0x0 MSTORE PUSH1 0x20 PUSH1 0x0 KECCAK256 SWAP1 POP SWAP2 SWAP1 POP JUMP JUMPDEST PUSH1 0x0 PUSH1 0x20 PUSH1 0x1F DUP4 ADD DIV SWAP1 POP SWAP2 SWAP1 POP JUMP JUMPDEST PUSH1 0x0 DUP3 DUP3 SHL SWAP1 POP SWAP3 SWAP2 POP POP JUMP JUMPDEST PUSH1 0x0 PUSH1 0x8 DUP4 MUL PUSH2 0x80B PUSH32 0xFFFFFFFFFFFFFFFFFFFFFFFFFFFFFFFFFFFFFFFFFFFFFFFFFFFFFFFFFFFFFFFF DUP3 PUSH2 0x7CE JUMP JUMPDEST PUSH2 0x815 DUP7 DUP4 PUSH2 0x7CE JUMP JUMPDEST SWAP6 POP DUP1 NOT DUP5 AND SWAP4 POP DUP1 DUP7 AND DUP5 OR SWAP3 POP POP POP SWAP4 SWAP3 POP POP POP JUMP JUMPDEST PUSH1 0x0 DUP2 SWAP1 POP SWAP2 SWAP1 POP JUMP JUMPDEST PUSH1 0x0 PUSH2 0x852 PUSH2 0x84D PUSH2 0x848 DUP5 PUSH2 0x633 JUMP JUMPDEST PUSH2 0x82D JUMP JUMPDEST PUSH2 0x633 JUMP JUMPDEST SWAP1 POP SWAP2 SWAP1 POP JUMP JUMPDEST PUSH1 0x0 DUP2 SWAP1 POP SWAP2 SWAP1 POP JUMP JUMPDEST PUSH2 0x86C DUP4 PUSH2 0x837 JUMP JUMPDEST PUSH2 0x880 PUSH2 0x878 DUP3 PUSH2 0x859 JUMP JUMPDEST DUP5 DUP5 SLOAD PUSH2 0x7DB JUMP JUMPDEST DUP3 SSTORE POP POP POP POP JUMP JUMPDEST PUSH1 0x0 SWAP1 JUMP JUMPDEST PUSH2 0x895 PUSH2 0x888 JUMP JUMPDEST PUSH2 0x8A0 DUP2 DUP5 DUP5 PUSH2 0x863 JUMP JUMPDEST POP POP POP JUMP JUMPDEST JUMPDEST DUP2 DUP2 LT ISZERO PUSH2 0x8C4 JUMPI PUSH2 0x8B9 PUSH1 0x0 DUP3 PUSH2 0x88D JUMP JUMPDEST PUSH1 0x1 DUP2 ADD SWAP1 POP PUSH2 0x8A6 JUMP JUMPDEST POP POP JUMP JUMPDEST PUSH1 0x1F DUP3 GT ISZERO PUSH2 0x909 JUMPI PUSH2 0x8DA DUP2 PUSH2 0x7A9 JUMP JUMPDEST PUSH2 0x8E3 DUP5 PUSH2 0x7BE JUMP JUMPDEST DUP2 ADD PUSH1 0x20 DUP6 LT ISZERO PUSH2 0x8F2 JUMPI DUP2 SWAP1 POP JUMPDEST PUSH2 0x906 PUSH2 0x8FE DUP6 PUSH2 0x7BE JUMP JUMPDEST DUP4 ADD DUP3 PUSH2 0x8A5 JUMP JUMPDEST POP POP JUMPDEST POP POP POP JUMP JUMPDEST PUSH1 0x0 DUP3 DUP3 SHR SWAP1 POP SWAP3 SWAP2 POP POP JUMP JUMPDEST PUSH1 0x0 PUSH2 0x92C PUSH1 0x0 NOT DUP5 PUSH1 0x8 MUL PUSH2 0x90E JUMP JUMPDEST NOT DUP1 DUP4 AND SWAP2 POP POP SWAP3 SWAP2 POP POP JUMP JUMPDEST PUSH1 0x0 PUSH2 0x945 DUP4 DUP4 PUSH2 0x91B JUMP JUMPDEST SWAP2 POP DUP3 PUSH1 0x2 MUL DUP3 OR SWAP1 POP SWAP3 SWAP2 POP POP JUMP JUMPDEST PUSH2 0x95E DUP3 PUSH2 0x64C JUMP JUMPDEST PUSH8 0xFFFFFFFFFFFFFFFF DUP2 GT ISZERO PUSH2 0x977 JUMPI PUSH2 0x976 PUSH2 0x71A JUMP JUMPDEST JUMPDEST PUSH2 0x981 DUP3 SLOAD PUSH2 0x778 JUMP JUMPDEST PUSH2 0x98C DUP3 DUP3 DUP6 PUSH2 0x8C8 JUMP JUMPDEST PUSH1 0x0 PUSH1 0x20 SWAP1 POP PUSH1 0x1F DUP4 GT PUSH1 0x1 DUP2 EQ PUSH2 0x9BF JUMPI PUSH1 0x0 DUP5 ISZERO PUSH2 0x9AD JUMPI DUP3 DUP8 ADD MLOAD SWAP1 POP JUMPDEST PUSH2 0x9B7 DUP6 DUP3 PUSH2 0x939 JUMP JUMPDEST DUP7 SSTORE POP PUSH2 0xA1F JUMP JUMPDEST PUSH1 0x1F NOT DUP5 AND PUSH2 0x9CD DUP7 PUSH2 0x7A9 JUMP JUMPDEST PUSH1 0x0 JUMPDEST DUP3 DUP2 LT ISZERO PUSH2 0x9F5 JUMPI DUP5 DUP10 ADD MLOAD DUP3 SSTORE PUSH1 0x1 DUP3 ADD SWAP2 POP PUSH1 0x20 DUP6 ADD SWAP5 POP PUSH1 0x20 DUP2 ADD SWAP1 POP PUSH2 0x9D0 JUMP JUMPDEST DUP7 DUP4 LT ISZERO PUSH2 0xA12 JUMPI DUP5 DUP10 ADD MLOAD PUSH2 0xA0E PUSH1 0x1F DUP10 AND DUP3 PUSH2 0x91B JUMP JUMPDEST DUP4 SSTORE POP JUMPDEST PUSH1 0x1 PUSH1 0x2 DUP9 MUL ADD DUP9 SSTORE POP POP POP JUMPDEST POP POP POP POP POP POP JUMP JUMPDEST PUSH2 0xA30 DUP2 PUSH2 0x633 JUMP JUMPDEST DUP2 EQ PUSH2 0xA3B JUMPI PUSH1 0x0 DUP1 REVERT JUMPDEST POP JUMP JUMPDEST PUSH1 0x0 DUP2 MLOAD SWAP1 POP PUSH2 0xA4D DUP2 PUSH2 0xA27 JUMP JUMPDEST SWAP3 SWAP2 POP POP JUMP JUMPDEST PUSH1 0x0 DUP1 REVERT JUMPDEST PUSH1 0x0 DUP1 REVERT JUMPDEST PUSH2 0xA66 DUP3 PUSH2 0x692 JUMP JUMPDEST DUP2 ADD DUP2 DUP2 LT PUSH8 0xFFFFFFFFFFFFFFFF DUP3 GT OR ISZERO PUSH2 0xA85 JUMPI PUSH2 0xA84 PUSH2 0x71A JUMP JUMPDEST JUMPDEST DUP1 PUSH1 0x40 MSTORE POP POP POP JUMP JUMPDEST PUSH1 0x0 PUSH2 0xA98 PUSH2 0x594 JUMP JUMPDEST SWAP1 POP PUSH2 0xAA4 DUP3 DUP3 PUSH2 0xA5D JUMP JUMPDEST SWAP2 SWAP1 POP JUMP JUMPDEST PUSH1 0x0 PUSH8 0xFFFFFFFFFFFFFFFF DUP3 GT ISZERO PUSH2 0xAC4 JUMPI PUSH2 0xAC3 PUSH2 0x71A JUMP JUMPDEST JUMPDEST PUSH2 0xACD DUP3 PUSH2 0x692 JUMP JUMPDEST SWAP1 POP PUSH1 0x20 DUP2 ADD SWAP1 POP SWAP2 SWAP1 POP JUMP JUMPDEST PUSH1 0x0 PUSH2 0xAED PUSH2 0xAE8 DUP5 PUSH2 0xAA9 JUMP JUMPDEST PUSH2 0xA8E JUMP JUMPDEST SWAP1 POP DUP3 DUP2 MSTORE PUSH1 0x20 DUP2 ADD DUP5 DUP5 DUP5 ADD GT ISZERO PUSH2 0xB09 JUMPI PUSH2 0xB08 PUSH2 0xA58 JUMP JUMPDEST JUMPDEST PUSH2 0xB14 DUP5 DUP3 DUP6 PUSH2 0x668 JUMP JUMPDEST POP SWAP4 SWAP3 POP POP POP JUMP JUMPDEST PUSH1 0x0 DUP3 PUSH1 0x1F DUP4 ADD SLT PUSH2 0xB31 JUMPI PUSH2 0xB30 PUSH2 0xA53 JUMP JUMPDEST JUMPDEST DUP2 MLOAD PUSH2 0xB41 DUP5 DUP3 PUSH1 0x20 DUP7 ADD PUSH2 0xADA JUMP JUMPDEST SWAP2 POP POP SWAP3 SWAP2 POP POP JUMP JUMPDEST PUSH1 0x0 DUP1 PUSH1 0x0 PUSH1 0x60 DUP5 DUP7 SUB SLT ISZERO PUSH2 0xB63 JUMPI PUSH2 0xB62 PUSH2 0x59E JUMP JUMPDEST JUMPDEST PUSH1 0x0 PUSH2 0xB71 DUP7 DUP3 DUP8 ADD PUSH2 0xA3E JUMP JUMPDEST SWAP4 POP POP PUSH1 0x20 PUSH2 0xB82 DUP7 DUP3 DUP8 ADD PUSH2 0xA3E JUMP JUMPDEST SWAP3 POP POP PUSH1 0x40 DUP5 ADD MLOAD PUSH8 0xFFFFFFFFFFFFFFFF DUP2 GT ISZERO PUSH2 0xBA3 JUMPI PUSH2 0xBA2 PUSH2 0x5A3 JUMP JUMPDEST JUMPDEST PUSH2 0xBAF DUP7 DUP3 DUP8 ADD PUSH2 0xB1C JUMP JUMPDEST SWAP2 POP POP SWAP3 POP SWAP3 POP SWAP3 JUMP INVALID LOG2 PUSH5 0x6970667358 0x22 SLT KECCAK256 SWAP4 0x28 0xE1 PC PUSH20 0x9633EE0064AAE803B58FD2A7F9D7E6F8CF11F09C PUSH7 0x5299C339471264 PUSH20 0x6F6C634300081700330000000000000000000000 "
				},
				"gasEstimates": {
					"creation": {
						"codeDepositCost": "611000",
						"executionCost": "645",
						"totalCost": "611645"
					},
					"external": {
						"addAgregatorPriceFeed(address)": "24722",
						"addPoolPriceFeed(address)": "24744",
						"getRateFromAgregator()": "infinite",
						"getRateFromPool()": "infinite",
						"setRateFromAgregator()": "infinite",
						"setRateFromPool()": "infinite"
					}
				},
				"methodIdentifiers": {
					"addAgregatorPriceFeed(address)": "1d9abd7f",
					"addPoolPriceFeed(address)": "4cbbb4d2",
					"getRateFromAgregator()": "a436e9f8",
					"getRateFromPool()": "68adeb57",
					"setRateFromAgregator()": "e7cac28d",
					"setRateFromPool()": "01377cde"
				}
			},
			"storageLayout": {
				"storage": [
					{
						"astId": 24,
						"contract": "ptrn_eco_system_dev_contracts/V1_fakePtrnEcosystemParticipationSmartContract.sol:PtrnEcoSystemParticipation",
						"label": "agregatorConsumer",
						"offset": 0,
						"slot": "0",
						"type": "t_contract(AgregatorConsumerInterface)11"
					},
					{
						"astId": 27,
						"contract": "ptrn_eco_system_dev_contracts/V1_fakePtrnEcosystemParticipationSmartContract.sol:PtrnEcoSystemParticipation",
						"label": "poolConsumer",
						"offset": 0,
						"slot": "1",
						"type": "t_contract(PoolConsumerInterface)21"
					},
					{
						"astId": 37,
						"contract": "ptrn_eco_system_dev_contracts/V1_fakePtrnEcosystemParticipationSmartContract.sol:PtrnEcoSystemParticipation",
						"label": "aggregatorRateData",
						"offset": 0,
						"slot": "2",
						"type": "t_struct(AggregatorRateData)34_storage"
					},
					{
						"astId": 47,
						"contract": "ptrn_eco_system_dev_contracts/V1_fakePtrnEcosystemParticipationSmartContract.sol:PtrnEcoSystemParticipation",
						"label": "poolRateData",
						"offset": 0,
						"slot": "5",
						"type": "t_struct(PoolRateData)44_storage"
					}
				],
				"types": {
					"t_contract(AgregatorConsumerInterface)11": {
						"encoding": "inplace",
						"label": "contract AgregatorConsumerInterface",
						"numberOfBytes": "20"
					},
					"t_contract(PoolConsumerInterface)21": {
						"encoding": "inplace",
						"label": "contract PoolConsumerInterface",
						"numberOfBytes": "20"
					},
					"t_string_storage": {
						"encoding": "bytes",
						"label": "string",
						"numberOfBytes": "32"
					},
					"t_struct(AggregatorRateData)34_storage": {
						"encoding": "inplace",
						"label": "struct PtrnEcoSystemParticipation.AggregatorRateData",
						"members": [
							{
								"astId": 29,
								"contract": "ptrn_eco_system_dev_contracts/V1_fakePtrnEcosystemParticipationSmartContract.sol:PtrnEcoSystemParticipation",
								"label": "tokenRate",
								"offset": 0,
								"slot": "0",
								"type": "t_uint256"
							},
							{
								"astId": 31,
								"contract": "ptrn_eco_system_dev_contracts/V1_fakePtrnEcosystemParticipationSmartContract.sol:PtrnEcoSystemParticipation",
								"label": "decimals",
								"offset": 0,
								"slot": "1",
								"type": "t_uint256"
							},
							{
								"astId": 33,
								"contract": "ptrn_eco_system_dev_contracts/V1_fakePtrnEcosystemParticipationSmartContract.sol:PtrnEcoSystemParticipation",
								"label": "tokenRateString",
								"offset": 0,
								"slot": "2",
								"type": "t_string_storage"
							}
						],
						"numberOfBytes": "96"
					},
					"t_struct(PoolRateData)44_storage": {
						"encoding": "inplace",
						"label": "struct PtrnEcoSystemParticipation.PoolRateData",
						"members": [
							{
								"astId": 39,
								"contract": "ptrn_eco_system_dev_contracts/V1_fakePtrnEcosystemParticipationSmartContract.sol:PtrnEcoSystemParticipation",
								"label": "tokenRate",
								"offset": 0,
								"slot": "0",
								"type": "t_uint256"
							},
							{
								"astId": 41,
								"contract": "ptrn_eco_system_dev_contracts/V1_fakePtrnEcosystemParticipationSmartContract.sol:PtrnEcoSystemParticipation",
								"label": "decimals",
								"offset": 0,
								"slot": "1",
								"type": "t_uint256"
							},
							{
								"astId": 43,
								"contract": "ptrn_eco_system_dev_contracts/V1_fakePtrnEcosystemParticipationSmartContract.sol:PtrnEcoSystemParticipation",
								"label": "tokenRateString",
								"offset": 0,
								"slot": "2",
								"type": "t_string_storage"
							}
						],
						"numberOfBytes": "96"
					},
					"t_uint256": {
						"encoding": "inplace",
						"label": "uint256",
						"numberOfBytes": "32"
					}
				}
			},
			"userdoc": {
				"kind": "user",
				"methods": {},
				"version": 1
			}
		}
	}
}