{
	"token_eco_system_dev_contracts/fakePtrnEcosystemParticipationSmartContract.sol": {
		"PtrnEcoSystemParticipation": {
			"abi": [
				{
					"inputs": [
						{
							"internalType": "address",
							"name": "_acceptedTokens",
							"type": "address"
						},
						{
							"internalType": "address",
							"name": "_acceptedSenderAddress",
							"type": "address"
						}
					],
					"stateMutability": "nonpayable",
					"type": "constructor"
				},
				{
					"anonymous": false,
					"inputs": [
						{
							"indexed": true,
							"internalType": "address",
							"name": "previousOwner",
							"type": "address"
						},
						{
							"indexed": true,
							"internalType": "address",
							"name": "newOwner",
							"type": "address"
						}
					],
					"name": "OwnershipTransferred",
					"type": "event"
				},
				{
					"anonymous": false,
					"inputs": [
						{
							"indexed": false,
							"internalType": "address",
							"name": "account",
							"type": "address"
						}
					],
					"name": "Paused",
					"type": "event"
				},
				{
					"anonymous": false,
					"inputs": [
						{
							"indexed": false,
							"internalType": "address",
							"name": "account",
							"type": "address"
						}
					],
					"name": "Unpaused",
					"type": "event"
				},
				{
					"inputs": [
						{
							"internalType": "address",
							"name": "_ConsumerInterfaceAddress",
							"type": "address"
						}
					],
					"name": "addAgregatorPriceFeed",
					"outputs": [],
					"stateMutability": "nonpayable",
					"type": "function"
				},
				{
					"inputs": [
						{
							"internalType": "address",
							"name": "_ConsumerInterfaceAddress",
							"type": "address"
						}
					],
					"name": "addPoolRateFeed",
					"outputs": [],
					"stateMutability": "nonpayable",
					"type": "function"
				},
				{
					"inputs": [],
					"name": "availableToWithdraw",
					"outputs": [
						{
							"internalType": "uint256",
							"name": "",
							"type": "uint256"
						}
					],
					"stateMutability": "view",
					"type": "function"
				},
				{
					"inputs": [],
					"name": "balanceOf",
					"outputs": [
						{
							"internalType": "uint256",
							"name": "",
							"type": "uint256"
						}
					],
					"stateMutability": "view",
					"type": "function"
				},
				{
					"inputs": [
						{
							"internalType": "address",
							"name": "tokenAddress",
							"type": "address"
						}
					],
					"name": "balanceOfToken",
					"outputs": [
						{
							"internalType": "uint256",
							"name": "",
							"type": "uint256"
						}
					],
					"stateMutability": "view",
					"type": "function"
				},
				{
					"inputs": [],
					"name": "burned",
					"outputs": [
						{
							"internalType": "uint256",
							"name": "",
							"type": "uint256"
						}
					],
					"stateMutability": "view",
					"type": "function"
				},
				{
					"inputs": [
						{
							"internalType": "uint256",
							"name": "points",
							"type": "uint256"
						},
						{
							"internalType": "uint256",
							"name": "rate",
							"type": "uint256"
						},
						{
							"internalType": "uint256",
							"name": "_decimals",
							"type": "uint256"
						}
					],
					"name": "calculateAmount",
					"outputs": [
						{
							"internalType": "uint256",
							"name": "",
							"type": "uint256"
						}
					],
					"stateMutability": "pure",
					"type": "function"
				},
				{
					"inputs": [
						{
							"internalType": "uint256",
							"name": "amount",
							"type": "uint256"
						},
						{
							"internalType": "uint256",
							"name": "rate",
							"type": "uint256"
						},
						{
							"internalType": "uint256",
							"name": "decimals",
							"type": "uint256"
						}
					],
					"name": "calculatePoints",
					"outputs": [
						{
							"internalType": "uint256",
							"name": "",
							"type": "uint256"
						}
					],
					"stateMutability": "pure",
					"type": "function"
				},
				{
					"inputs": [],
					"name": "changeRateFeed",
					"outputs": [],
					"stateMutability": "nonpayable",
					"type": "function"
				},
				{
					"inputs": [
						{
							"internalType": "uint256",
							"name": "amount",
							"type": "uint256"
						}
					],
					"name": "chargeContract",
					"outputs": [
						{
							"internalType": "bool",
							"name": "",
							"type": "bool"
						}
					],
					"stateMutability": "nonpayable",
					"type": "function"
				},
				{
					"inputs": [],
					"name": "currentRateFeed",
					"outputs": [
						{
							"internalType": "string",
							"name": "",
							"type": "string"
						}
					],
					"stateMutability": "view",
					"type": "function"
				},
				{
					"inputs": [],
					"name": "dailyReward",
					"outputs": [],
					"stateMutability": "nonpayable",
					"type": "function"
				},
				{
					"inputs": [],
					"name": "daily_withdraw",
					"outputs": [
						{
							"internalType": "uint256",
							"name": "",
							"type": "uint256"
						}
					],
					"stateMutability": "view",
					"type": "function"
				},
				{
					"inputs": [],
					"name": "getRate",
					"outputs": [
						{
							"internalType": "uint256",
							"name": "",
							"type": "uint256"
						},
						{
							"internalType": "uint256",
							"name": "",
							"type": "uint256"
						},
						{
							"internalType": "string",
							"name": "",
							"type": "string"
						},
						{
							"internalType": "uint256",
							"name": "",
							"type": "uint256"
						},
						{
							"internalType": "string",
							"name": "",
							"type": "string"
						}
					],
					"stateMutability": "view",
					"type": "function"
				},
				{
					"inputs": [],
					"name": "owner",
					"outputs": [
						{
							"internalType": "address",
							"name": "",
							"type": "address"
						}
					],
					"stateMutability": "view",
					"type": "function"
				},
				{
					"inputs": [],
					"name": "paused",
					"outputs": [
						{
							"internalType": "bool",
							"name": "",
							"type": "bool"
						}
					],
					"stateMutability": "view",
					"type": "function"
				},
				{
					"inputs": [],
					"name": "renounceOwnership",
					"outputs": [],
					"stateMutability": "nonpayable",
					"type": "function"
				},
				{
					"inputs": [],
					"name": "setRate",
					"outputs": [
						{
							"internalType": "bool",
							"name": "",
							"type": "bool"
						}
					],
					"stateMutability": "nonpayable",
					"type": "function"
				},
				{
					"inputs": [
						{
							"internalType": "address",
							"name": "tokenAddress",
							"type": "address"
						},
						{
							"internalType": "address",
							"name": "receiver",
							"type": "address"
						},
						{
							"internalType": "uint256",
							"name": "amount",
							"type": "uint256"
						}
					],
					"name": "transferOfToken",
					"outputs": [
						{
							"internalType": "bool",
							"name": "",
							"type": "bool"
						}
					],
					"stateMutability": "nonpayable",
					"type": "function"
				},
				{
					"inputs": [
						{
							"internalType": "address",
							"name": "newOwner",
							"type": "address"
						}
					],
					"name": "transferOwnership",
					"outputs": [],
					"stateMutability": "nonpayable",
					"type": "function"
				},
				{
					"inputs": [
						{
							"internalType": "uint256",
							"name": "value",
							"type": "uint256"
						}
					],
					"name": "withdraw",
					"outputs": [],
					"stateMutability": "nonpayable",
					"type": "function"
				}
			],
			"devdoc": {
				"events": {
					"Paused(address)": {
						"details": "Emitted when the pause is triggered by `account`."
					},
					"Unpaused(address)": {
						"details": "Emitted when the pause is lifted by `account`."
					}
				},
				"kind": "dev",
				"methods": {
					"owner()": {
						"details": "Returns the address of the current owner."
					},
					"paused()": {
						"details": "Returns true if the contract is paused, and false otherwise."
					},
					"renounceOwnership()": {
						"details": "Leaves the contract without owner. It will not be possible to call `onlyOwner` functions anymore. Can only be called by the current owner. NOTE: Renouncing ownership will leave the contract without an owner, thereby removing any functionality that is only available to the owner."
					},
					"transferOwnership(address)": {
						"details": "Transfers ownership of the contract to a new account (`newOwner`). Can only be called by the current owner."
					}
				},
				"version": 1
			},
			"evm": {
				"assembly": "    /* \"token_eco_system_dev_contracts/fakePtrnEcosystemParticipationSmartContract.sol\":563:7397  contract PtrnEcoSystemParticipation is Pausable, Ownable {... */\n  mstore(0x40, 0xc0)\n    /* \"token_eco_system_dev_contracts/fakePtrnEcosystemParticipationSmartContract.sol\":810:814  true */\n  0x01\n    /* \"token_eco_system_dev_contracts/fakePtrnEcosystemParticipationSmartContract.sol\":790:814  bool poolRateFeed = true */\n  0x00\n  exp(0x0100, 0x15)\n  dup2\n  sload\n  dup2\n  0xff\n  mul\n  not\n  and\n  swap1\n  dup4\n  iszero\n  iszero\n  mul\n  or\n  swap1\n  sstore\n  pop\n    /* \"token_eco_system_dev_contracts/fakePtrnEcosystemParticipationSmartContract.sol\":1137:1138  0 */\n  0x00\n    /* \"token_eco_system_dev_contracts/fakePtrnEcosystemParticipationSmartContract.sol\":1115:1138  uint256 public burned=0 */\n  0x03\n  sstore\n    /* \"token_eco_system_dev_contracts/fakePtrnEcosystemParticipationSmartContract.sol\":1372:1373  0 */\n  0x00\n    /* \"token_eco_system_dev_contracts/fakePtrnEcosystemParticipationSmartContract.sol\":1335:1373  uint256 public availableToWithdraw = 0 */\n  0x09\n  sstore\n    /* \"token_eco_system_dev_contracts/fakePtrnEcosystemParticipationSmartContract.sol\":1411:1412  0 */\n  0x00\n    /* \"token_eco_system_dev_contracts/fakePtrnEcosystemParticipationSmartContract.sol\":1379:1412  uint256 public daily_withdraw = 0 */\n  0x0a\n  sstore\n    /* \"token_eco_system_dev_contracts/fakePtrnEcosystemParticipationSmartContract.sol\":1420:1603  constructor(address _acceptedTokens, address _acceptedSenderAddress){... */\n  callvalue\n  dup1\n  iszero\n  tag_1\n  jumpi\n  0x00\n  dup1\n  revert\ntag_1:\n  pop\n  mload(0x40)\n  sub(codesize, bytecodeSize)\n  dup1\n  bytecodeSize\n  dup4\n  codecopy\n  dup2\n  dup2\n  add\n  0x40\n  mstore\n  dup2\n  add\n  swap1\n  tag_2\n  swap2\n  swap1\n  tag_3\n  jump\t// in\ntag_2:\n    /* \"@openzeppelin/contracts/security/Pausable.sol\":1006:1011  false */\n  0x00\n    /* \"@openzeppelin/contracts/security/Pausable.sol\":996:1003  _paused */\n  dup1\n  0x00\n    /* \"@openzeppelin/contracts/security/Pausable.sol\":996:1011  _paused = false */\n  0x0100\n  exp\n  dup2\n  sload\n  dup2\n  0xff\n  mul\n  not\n  and\n  swap1\n  dup4\n  iszero\n  iszero\n  mul\n  or\n  swap1\n  sstore\n  pop\n    /* \"@openzeppelin/contracts/access/Ownable.sol\":936:968  _transferOwnership(_msgSender()) */\n  tag_9\n    /* \"@openzeppelin/contracts/access/Ownable.sol\":955:967  _msgSender() */\n  tag_10\n    /* \"@openzeppelin/contracts/access/Ownable.sol\":955:965  _msgSender */\n  shl(0x20, tag_11)\n    /* \"@openzeppelin/contracts/access/Ownable.sol\":955:967  _msgSender() */\n  0x20\n  shr\n  jump\t// in\ntag_10:\n    /* \"@openzeppelin/contracts/access/Ownable.sol\":936:954  _transferOwnership */\n  shl(0x20, tag_12)\n    /* \"@openzeppelin/contracts/access/Ownable.sol\":936:968  _transferOwnership(_msgSender()) */\n  0x20\n  shr\n  jump\t// in\ntag_9:\n    /* \"token_eco_system_dev_contracts/fakePtrnEcosystemParticipationSmartContract.sol\":1523:1538  _acceptedTokens */\n  dup2\n    /* \"token_eco_system_dev_contracts/fakePtrnEcosystemParticipationSmartContract.sol\":1498:1538  ACCEPTED_TOKEN_ADDRESS = _acceptedTokens */\n  0xffffffffffffffffffffffffffffffffffffffff\n  and\n  0x80\n  dup2\n  0xffffffffffffffffffffffffffffffffffffffff\n  and\n  dup2\n  mstore\n  pop\n  pop\n    /* \"token_eco_system_dev_contracts/fakePtrnEcosystemParticipationSmartContract.sol\":1574:1596  _acceptedSenderAddress */\n  dup1\n    /* \"token_eco_system_dev_contracts/fakePtrnEcosystemParticipationSmartContract.sol\":1548:1596  ACCEPTED_SENDER_ADDRESS = _acceptedSenderAddress */\n  0xffffffffffffffffffffffffffffffffffffffff\n  and\n  0xa0\n  dup2\n  0xffffffffffffffffffffffffffffffffffffffff\n  and\n  dup2\n  mstore\n  pop\n  pop\n    /* \"token_eco_system_dev_contracts/fakePtrnEcosystemParticipationSmartContract.sol\":1420:1603  constructor(address _acceptedTokens, address _acceptedSenderAddress){... */\n  pop\n  pop\n    /* \"token_eco_system_dev_contracts/fakePtrnEcosystemParticipationSmartContract.sol\":563:7397  contract PtrnEcoSystemParticipation is Pausable, Ownable {... */\n  jump(tag_14)\n    /* \"@openzeppelin/contracts/utils/Context.sol\":640:736  function _msgSender() internal view virtual returns (address) {... */\ntag_11:\n    /* \"@openzeppelin/contracts/utils/Context.sol\":693:700  address */\n  0x00\n    /* \"@openzeppelin/contracts/utils/Context.sol\":719:729  msg.sender */\n  caller\n    /* \"@openzeppelin/contracts/utils/Context.sol\":712:729  return msg.sender */\n  swap1\n  pop\n    /* \"@openzeppelin/contracts/utils/Context.sol\":640:736  function _msgSender() internal view virtual returns (address) {... */\n  swap1\n  jump\t// out\n    /* \"@openzeppelin/contracts/access/Ownable.sol\":2433:2620  function _transferOwnership(address newOwner) internal virtual {... */\ntag_12:\n    /* \"@openzeppelin/contracts/access/Ownable.sol\":2506:2522  address oldOwner */\n  0x00\n    /* \"@openzeppelin/contracts/access/Ownable.sol\":2525:2531  _owner */\n  dup1\n  0x01\n  swap1\n  sload\n  swap1\n  0x0100\n  exp\n  swap1\n  div\n  0xffffffffffffffffffffffffffffffffffffffff\n  and\n    /* \"@openzeppelin/contracts/access/Ownable.sol\":2506:2531  address oldOwner = _owner */\n  swap1\n  pop\n    /* \"@openzeppelin/contracts/access/Ownable.sol\":2550:2558  newOwner */\n  dup2\n    /* \"@openzeppelin/contracts/access/Ownable.sol\":2541:2547  _owner */\n  0x00\n  0x01\n    /* \"@openzeppelin/contracts/access/Ownable.sol\":2541:2558  _owner = newOwner */\n  0x0100\n  exp\n  dup2\n  sload\n  dup2\n  0xffffffffffffffffffffffffffffffffffffffff\n  mul\n  not\n  and\n  swap1\n  dup4\n  0xffffffffffffffffffffffffffffffffffffffff\n  and\n  mul\n  or\n  swap1\n  sstore\n  pop\n    /* \"@openzeppelin/contracts/access/Ownable.sol\":2604:2612  newOwner */\n  dup2\n    /* \"@openzeppelin/contracts/access/Ownable.sol\":2573:2613  OwnershipTransferred(oldOwner, newOwner) */\n  0xffffffffffffffffffffffffffffffffffffffff\n  and\n    /* \"@openzeppelin/contracts/access/Ownable.sol\":2594:2602  oldOwner */\n  dup2\n    /* \"@openzeppelin/contracts/access/Ownable.sol\":2573:2613  OwnershipTransferred(oldOwner, newOwner) */\n  0xffffffffffffffffffffffffffffffffffffffff\n  and\n  0x8be0079c531659141344cd1fd0a4f28419497f9722a3daafe3b4186f6b6457e0\n  mload(0x40)\n  mload(0x40)\n  dup1\n  swap2\n  sub\n  swap1\n  log3\n    /* \"@openzeppelin/contracts/access/Ownable.sol\":2496:2620  {... */\n  pop\n    /* \"@openzeppelin/contracts/access/Ownable.sol\":2433:2620  function _transferOwnership(address newOwner) internal virtual {... */\n  pop\n  jump\t// out\n    /* \"#utility.yul\":88:205   */\ntag_18:\n    /* \"#utility.yul\":197:198   */\n  0x00\n    /* \"#utility.yul\":194:195   */\n  dup1\n    /* \"#utility.yul\":187:199   */\n  revert\n    /* \"#utility.yul\":334:460   */\ntag_20:\n    /* \"#utility.yul\":371:378   */\n  0x00\n    /* \"#utility.yul\":411:453   */\n  0xffffffffffffffffffffffffffffffffffffffff\n    /* \"#utility.yul\":404:409   */\n  dup3\n    /* \"#utility.yul\":400:454   */\n  and\n    /* \"#utility.yul\":389:454   */\n  swap1\n  pop\n    /* \"#utility.yul\":334:460   */\n  swap2\n  swap1\n  pop\n  jump\t// out\n    /* \"#utility.yul\":466:562   */\ntag_21:\n    /* \"#utility.yul\":503:510   */\n  0x00\n    /* \"#utility.yul\":532:556   */\n  tag_30\n    /* \"#utility.yul\":550:555   */\n  dup3\n    /* \"#utility.yul\":532:556   */\n  tag_20\n  jump\t// in\ntag_30:\n    /* \"#utility.yul\":521:556   */\n  swap1\n  pop\n    /* \"#utility.yul\":466:562   */\n  swap2\n  swap1\n  pop\n  jump\t// out\n    /* \"#utility.yul\":568:690   */\ntag_22:\n    /* \"#utility.yul\":641:665   */\n  tag_32\n    /* \"#utility.yul\":659:664   */\n  dup2\n    /* \"#utility.yul\":641:665   */\n  tag_21\n  jump\t// in\ntag_32:\n    /* \"#utility.yul\":634:639   */\n  dup2\n    /* \"#utility.yul\":631:666   */\n  eq\n    /* \"#utility.yul\":621:684   */\n  tag_33\n  jumpi\n    /* \"#utility.yul\":680:681   */\n  0x00\n    /* \"#utility.yul\":677:678   */\n  dup1\n    /* \"#utility.yul\":670:682   */\n  revert\n    /* \"#utility.yul\":621:684   */\ntag_33:\n    /* \"#utility.yul\":568:690   */\n  pop\n  jump\t// out\n    /* \"#utility.yul\":696:839   */\ntag_23:\n    /* \"#utility.yul\":753:758   */\n  0x00\n    /* \"#utility.yul\":784:790   */\n  dup2\n    /* \"#utility.yul\":778:791   */\n  mload\n    /* \"#utility.yul\":769:791   */\n  swap1\n  pop\n    /* \"#utility.yul\":800:833   */\n  tag_35\n    /* \"#utility.yul\":827:832   */\n  dup2\n    /* \"#utility.yul\":800:833   */\n  tag_22\n  jump\t// in\ntag_35:\n    /* \"#utility.yul\":696:839   */\n  swap3\n  swap2\n  pop\n  pop\n  jump\t// out\n    /* \"#utility.yul\":845:1352   */\ntag_3:\n    /* \"#utility.yul\":924:930   */\n  0x00\n    /* \"#utility.yul\":932:938   */\n  dup1\n    /* \"#utility.yul\":981:983   */\n  0x40\n    /* \"#utility.yul\":969:978   */\n  dup4\n    /* \"#utility.yul\":960:967   */\n  dup6\n    /* \"#utility.yul\":956:979   */\n  sub\n    /* \"#utility.yul\":952:984   */\n  slt\n    /* \"#utility.yul\":949:1068   */\n  iszero\n  tag_37\n  jumpi\n    /* \"#utility.yul\":987:1066   */\n  tag_38\n  tag_18\n  jump\t// in\ntag_38:\n    /* \"#utility.yul\":949:1068   */\ntag_37:\n    /* \"#utility.yul\":1107:1108   */\n  0x00\n    /* \"#utility.yul\":1132:1196   */\n  tag_39\n    /* \"#utility.yul\":1188:1195   */\n  dup6\n    /* \"#utility.yul\":1179:1185   */\n  dup3\n    /* \"#utility.yul\":1168:1177   */\n  dup7\n    /* \"#utility.yul\":1164:1186   */\n  add\n    /* \"#utility.yul\":1132:1196   */\n  tag_23\n  jump\t// in\ntag_39:\n    /* \"#utility.yul\":1122:1196   */\n  swap3\n  pop\n    /* \"#utility.yul\":1078:1206   */\n  pop\n    /* \"#utility.yul\":1245:1247   */\n  0x20\n    /* \"#utility.yul\":1271:1335   */\n  tag_40\n    /* \"#utility.yul\":1327:1334   */\n  dup6\n    /* \"#utility.yul\":1318:1324   */\n  dup3\n    /* \"#utility.yul\":1307:1316   */\n  dup7\n    /* \"#utility.yul\":1303:1325   */\n  add\n    /* \"#utility.yul\":1271:1335   */\n  tag_23\n  jump\t// in\ntag_40:\n    /* \"#utility.yul\":1261:1335   */\n  swap2\n  pop\n    /* \"#utility.yul\":1216:1345   */\n  pop\n    /* \"#utility.yul\":845:1352   */\n  swap3\n  pop\n  swap3\n  swap1\n  pop\n  jump\t// out\n    /* \"token_eco_system_dev_contracts/fakePtrnEcosystemParticipationSmartContract.sol\":563:7397  contract PtrnEcoSystemParticipation is Pausable, Ownable {... */\ntag_14:\n  mload(0x80)\n  mload(0xa0)\n  codecopy(0x00, dataOffset(sub_0), dataSize(sub_0))\n  0x00\n  assignImmutable(\"0x6b88fa438cae5c1216aa45b8d58426fb848d0ea4056264a8a6a1dd473ff0fc05\")\n  0x00\n  assignImmutable(\"0xcb0a4f1f828404731a71b48e4a53cfdf163c30c8a6e88ce60e13ee7555a5c733\")\n  return(0x00, dataSize(sub_0))\nstop\n\nsub_0: assembly {\n        /* \"token_eco_system_dev_contracts/fakePtrnEcosystemParticipationSmartContract.sol\":563:7397  contract PtrnEcoSystemParticipation is Pausable, Ownable {... */\n      mstore(0x40, 0x80)\n      callvalue\n      dup1\n      iszero\n      tag_1\n      jumpi\n      0x00\n      dup1\n      revert\n    tag_1:\n      pop\n      jumpi(tag_2, lt(calldatasize, 0x04))\n      shr(0xe0, calldataload(0x00))\n      dup1\n      0x8da5cb5b\n      gt\n      tag_24\n      jumpi\n      dup1\n      0xe055aeeb\n      gt\n      tag_25\n      jumpi\n      dup1\n      0xe055aeeb\n      eq\n      tag_18\n      jumpi\n      dup1\n      0xe322ad2b\n      eq\n      tag_19\n      jumpi\n      dup1\n      0xe6367ebe\n      eq\n      tag_20\n      jumpi\n      dup1\n      0xe8088766\n      eq\n      tag_21\n      jumpi\n      dup1\n      0xed969c84\n      eq\n      tag_22\n      jumpi\n      dup1\n      0xf2fde38b\n      eq\n      tag_23\n      jumpi\n      jump(tag_2)\n    tag_25:\n      dup1\n      0x8da5cb5b\n      eq\n      tag_13\n      jumpi\n      dup1\n      0xb99152d0\n      eq\n      tag_14\n      jumpi\n      dup1\n      0xc1f74cc8\n      eq\n      tag_15\n      jumpi\n      dup1\n      0xc794363e\n      eq\n      tag_16\n      jumpi\n      dup1\n      0xc964ad45\n      eq\n      tag_17\n      jumpi\n      jump(tag_2)\n    tag_24:\n      dup1\n      0x715018a6\n      gt\n      tag_26\n      jumpi\n      dup1\n      0x715018a6\n      eq\n      tag_8\n      jumpi\n      dup1\n      0x722713f7\n      eq\n      tag_9\n      jumpi\n      dup1\n      0x723e27ff\n      eq\n      tag_10\n      jumpi\n      dup1\n      0x73f42561\n      eq\n      tag_11\n      jumpi\n      dup1\n      0x7754723e\n      eq\n      tag_12\n      jumpi\n      jump(tag_2)\n    tag_26:\n      dup1\n      0x1d9abd7f\n      eq\n      tag_3\n      jumpi\n      dup1\n      0x2e1a7d4d\n      eq\n      tag_4\n      jumpi\n      dup1\n      0x5c975abb\n      eq\n      tag_5\n      jumpi\n      dup1\n      0x679aefce\n      eq\n      tag_6\n      jumpi\n      dup1\n      0x6a9d43dd\n      eq\n      tag_7\n      jumpi\n    tag_2:\n      0x00\n      dup1\n      revert\n        /* \"token_eco_system_dev_contracts/fakePtrnEcosystemParticipationSmartContract.sol\":2292:2465  function addAgregatorPriceFeed(address _ConsumerInterfaceAddress) public onlyOwner {... */\n    tag_3:\n      tag_27\n      0x04\n      dup1\n      calldatasize\n      sub\n      dup2\n      add\n      swap1\n      tag_28\n      swap2\n      swap1\n      tag_29\n      jump\t// in\n    tag_28:\n      tag_30\n      jump\t// in\n    tag_27:\n      stop\n        /* \"token_eco_system_dev_contracts/fakePtrnEcosystemParticipationSmartContract.sol\":6195:6409  function withdraw(uint256 value) onlyOwner public{... */\n    tag_4:\n      tag_31\n      0x04\n      dup1\n      calldatasize\n      sub\n      dup2\n      add\n      swap1\n      tag_32\n      swap2\n      swap1\n      tag_33\n      jump\t// in\n    tag_32:\n      tag_34\n      jump\t// in\n    tag_31:\n      stop\n        /* \"@openzeppelin/contracts/security/Pausable.sol\":1615:1699  function paused() public view virtual returns (bool) {... */\n    tag_5:\n      tag_35\n      tag_36\n      jump\t// in\n    tag_35:\n      mload(0x40)\n      tag_37\n      swap2\n      swap1\n      tag_38\n      jump\t// in\n    tag_37:\n      mload(0x40)\n      dup1\n      swap2\n      sub\n      swap1\n      return\n        /* \"token_eco_system_dev_contracts/fakePtrnEcosystemParticipationSmartContract.sol\":4084:4300  function getRate() public view returns (uint256, uint256, string memory, uint256, string memory) {... */\n    tag_6:\n      tag_39\n      tag_40\n      jump\t// in\n    tag_39:\n      mload(0x40)\n      tag_41\n      swap6\n      swap5\n      swap4\n      swap3\n      swap2\n      swap1\n      tag_42\n      jump\t// in\n    tag_41:\n      mload(0x40)\n      dup1\n      swap2\n      sub\n      swap1\n      return\n        /* \"token_eco_system_dev_contracts/fakePtrnEcosystemParticipationSmartContract.sol\":6849:7110  function transferOfToken(address tokenAddress, address receiver, uint256 amount) public onlyOwner returns (bool){... */\n    tag_7:\n      tag_43\n      0x04\n      dup1\n      calldatasize\n      sub\n      dup2\n      add\n      swap1\n      tag_44\n      swap2\n      swap1\n      tag_45\n      jump\t// in\n    tag_44:\n      tag_46\n      jump\t// in\n    tag_43:\n      mload(0x40)\n      tag_47\n      swap2\n      swap1\n      tag_38\n      jump\t// in\n    tag_47:\n      mload(0x40)\n      dup1\n      swap2\n      sub\n      swap1\n      return\n        /* \"@openzeppelin/contracts/access/Ownable.sol\":1831:1932  function renounceOwnership() public virtual onlyOwner {... */\n    tag_8:\n      tag_48\n      tag_49\n      jump\t// in\n    tag_48:\n      stop\n        /* \"token_eco_system_dev_contracts/fakePtrnEcosystemParticipationSmartContract.sol\":6059:6189  function balanceOf() public view returns (uint256) {... */\n    tag_9:\n      tag_50\n      tag_51\n      jump\t// in\n    tag_50:\n      mload(0x40)\n      tag_52\n      swap2\n      swap1\n      tag_53\n      jump\t// in\n    tag_52:\n      mload(0x40)\n      dup1\n      swap2\n      sub\n      swap1\n      return\n        /* \"token_eco_system_dev_contracts/fakePtrnEcosystemParticipationSmartContract.sol\":3409:4077  function setRate() public returns (bool) {... */\n    tag_10:\n      tag_54\n      tag_55\n      jump\t// in\n    tag_54:\n      mload(0x40)\n      tag_56\n      swap2\n      swap1\n      tag_38\n      jump\t// in\n    tag_56:\n      mload(0x40)\n      dup1\n      swap2\n      sub\n      swap1\n      return\n        /* \"token_eco_system_dev_contracts/fakePtrnEcosystemParticipationSmartContract.sol\":1115:1138  uint256 public burned=0 */\n    tag_11:\n      tag_57\n      tag_58\n      jump\t// in\n    tag_57:\n      mload(0x40)\n      tag_59\n      swap2\n      swap1\n      tag_53\n      jump\t// in\n    tag_59:\n      mload(0x40)\n      dup1\n      swap2\n      sub\n      swap1\n      return\n        /* \"token_eco_system_dev_contracts/fakePtrnEcosystemParticipationSmartContract.sol\":4524:4798  function calculateAmount(uint256 points, uint256 rate, uint256 _decimals) public pure returns (uint256){... */\n    tag_12:\n      tag_60\n      0x04\n      dup1\n      calldatasize\n      sub\n      dup2\n      add\n      swap1\n      tag_61\n      swap2\n      swap1\n      tag_62\n      jump\t// in\n    tag_61:\n      tag_63\n      jump\t// in\n    tag_60:\n      mload(0x40)\n      tag_64\n      swap2\n      swap1\n      tag_53\n      jump\t// in\n    tag_64:\n      mload(0x40)\n      dup1\n      swap2\n      sub\n      swap1\n      return\n        /* \"@openzeppelin/contracts/access/Ownable.sol\":1201:1286  function owner() public view virtual returns (address) {... */\n    tag_13:\n      tag_65\n      tag_66\n      jump\t// in\n    tag_65:\n      mload(0x40)\n      tag_67\n      swap2\n      swap1\n      tag_68\n      jump\t// in\n    tag_67:\n      mload(0x40)\n      dup1\n      swap2\n      sub\n      swap1\n      return\n        /* \"token_eco_system_dev_contracts/fakePtrnEcosystemParticipationSmartContract.sol\":6642:6797  function balanceOfToken(address tokenAddress) public onlyOwner view returns (uint256) {... */\n    tag_14:\n      tag_69\n      0x04\n      dup1\n      calldatasize\n      sub\n      dup2\n      add\n      swap1\n      tag_70\n      swap2\n      swap1\n      tag_29\n      jump\t// in\n    tag_70:\n      tag_71\n      jump\t// in\n    tag_69:\n      mload(0x40)\n      tag_72\n      swap2\n      swap1\n      tag_53\n      jump\t// in\n    tag_72:\n      mload(0x40)\n      dup1\n      swap2\n      sub\n      swap1\n      return\n        /* \"token_eco_system_dev_contracts/fakePtrnEcosystemParticipationSmartContract.sol\":1379:1412  uint256 public daily_withdraw = 0 */\n    tag_15:\n      tag_73\n      tag_74\n      jump\t// in\n    tag_73:\n      mload(0x40)\n      tag_75\n      swap2\n      swap1\n      tag_53\n      jump\t// in\n    tag_75:\n      mload(0x40)\n      dup1\n      swap2\n      sub\n      swap1\n      return\n        /* \"token_eco_system_dev_contracts/fakePtrnEcosystemParticipationSmartContract.sol\":2471:2627  function addPoolRateFeed(address _ConsumerInterfaceAddress) public onlyOwner{... */\n    tag_16:\n      tag_76\n      0x04\n      dup1\n      calldatasize\n      sub\n      dup2\n      add\n      swap1\n      tag_77\n      swap2\n      swap1\n      tag_29\n      jump\t// in\n    tag_77:\n      tag_78\n      jump\t// in\n    tag_76:\n      stop\n        /* \"token_eco_system_dev_contracts/fakePtrnEcosystemParticipationSmartContract.sol\":6415:6583  function dailyReward() onlyOwner public{... */\n    tag_17:\n      tag_79\n      tag_80\n      jump\t// in\n    tag_79:\n      stop\n        /* \"token_eco_system_dev_contracts/fakePtrnEcosystemParticipationSmartContract.sol\":4306:4518  function calculatePoints(uint256 amount, uint256 rate, uint256 decimals) public pure returns (uint256){... */\n    tag_18:\n      tag_81\n      0x04\n      dup1\n      calldatasize\n      sub\n      dup2\n      add\n      swap1\n      tag_82\n      swap2\n      swap1\n      tag_62\n      jump\t// in\n    tag_82:\n      tag_83\n      jump\t// in\n    tag_81:\n      mload(0x40)\n      tag_84\n      swap2\n      swap1\n      tag_53\n      jump\t// in\n    tag_84:\n      mload(0x40)\n      dup1\n      swap2\n      sub\n      swap1\n      return\n        /* \"token_eco_system_dev_contracts/fakePtrnEcosystemParticipationSmartContract.sol\":1335:1373  uint256 public availableToWithdraw = 0 */\n    tag_19:\n      tag_85\n      tag_86\n      jump\t// in\n    tag_85:\n      mload(0x40)\n      tag_87\n      swap2\n      swap1\n      tag_53\n      jump\t// in\n    tag_87:\n      mload(0x40)\n      dup1\n      swap2\n      sub\n      swap1\n      return\n        /* \"token_eco_system_dev_contracts/fakePtrnEcosystemParticipationSmartContract.sol\":2094:2281  function currentRateFeed() public view returns (string memory){... */\n    tag_20:\n      tag_88\n      tag_89\n      jump\t// in\n    tag_88:\n      mload(0x40)\n      tag_90\n      swap2\n      swap1\n      tag_91\n      jump\t// in\n    tag_90:\n      mload(0x40)\n      dup1\n      swap2\n      sub\n      swap1\n      return\n        /* \"token_eco_system_dev_contracts/fakePtrnEcosystemParticipationSmartContract.sol\":1999:2087  function changeRateFeed() public onlyOwner{... */\n    tag_21:\n      tag_92\n      tag_93\n      jump\t// in\n    tag_92:\n      stop\n        /* \"token_eco_system_dev_contracts/fakePtrnEcosystemParticipationSmartContract.sol\":4981:6053  function chargeContract(uint256 amount) public returns (bool){... */\n    tag_22:\n      tag_94\n      0x04\n      dup1\n      calldatasize\n      sub\n      dup2\n      add\n      swap1\n      tag_95\n      swap2\n      swap1\n      tag_33\n      jump\t// in\n    tag_95:\n      tag_96\n      jump\t// in\n    tag_94:\n      mload(0x40)\n      tag_97\n      swap2\n      swap1\n      tag_38\n      jump\t// in\n    tag_97:\n      mload(0x40)\n      dup1\n      swap2\n      sub\n      swap1\n      return\n        /* \"@openzeppelin/contracts/access/Ownable.sol\":2081:2279  function transferOwnership(address newOwner) public virtual onlyOwner {... */\n    tag_23:\n      tag_98\n      0x04\n      dup1\n      calldatasize\n      sub\n      dup2\n      add\n      swap1\n      tag_99\n      swap2\n      swap1\n      tag_29\n      jump\t// in\n    tag_99:\n      tag_100\n      jump\t// in\n    tag_98:\n      stop\n        /* \"token_eco_system_dev_contracts/fakePtrnEcosystemParticipationSmartContract.sol\":2292:2465  function addAgregatorPriceFeed(address _ConsumerInterfaceAddress) public onlyOwner {... */\n    tag_30:\n        /* \"@openzeppelin/contracts/access/Ownable.sol\":1094:1107  _checkOwner() */\n      tag_102\n        /* \"@openzeppelin/contracts/access/Ownable.sol\":1094:1105  _checkOwner */\n      tag_103\n        /* \"@openzeppelin/contracts/access/Ownable.sol\":1094:1107  _checkOwner() */\n      jump\t// in\n    tag_102:\n        /* \"token_eco_system_dev_contracts/fakePtrnEcosystemParticipationSmartContract.sol\":2432:2457  _ConsumerInterfaceAddress */\n      dup1\n        /* \"token_eco_system_dev_contracts/fakePtrnEcosystemParticipationSmartContract.sol\":2385:2402  agregatorConsumer */\n      0x01\n      0x00\n        /* \"token_eco_system_dev_contracts/fakePtrnEcosystemParticipationSmartContract.sol\":2385:2458  agregatorConsumer = AgregatorConsumerInterface(_ConsumerInterfaceAddress) */\n      0x0100\n      exp\n      dup2\n      sload\n      dup2\n      0xffffffffffffffffffffffffffffffffffffffff\n      mul\n      not\n      and\n      swap1\n      dup4\n      0xffffffffffffffffffffffffffffffffffffffff\n      and\n      mul\n      or\n      swap1\n      sstore\n      pop\n        /* \"token_eco_system_dev_contracts/fakePtrnEcosystemParticipationSmartContract.sol\":2292:2465  function addAgregatorPriceFeed(address _ConsumerInterfaceAddress) public onlyOwner {... */\n      pop\n      jump\t// out\n        /* \"token_eco_system_dev_contracts/fakePtrnEcosystemParticipationSmartContract.sol\":6195:6409  function withdraw(uint256 value) onlyOwner public{... */\n    tag_34:\n        /* \"@openzeppelin/contracts/access/Ownable.sol\":1094:1107  _checkOwner() */\n      tag_106\n        /* \"@openzeppelin/contracts/access/Ownable.sol\":1094:1105  _checkOwner */\n      tag_103\n        /* \"@openzeppelin/contracts/access/Ownable.sol\":1094:1107  _checkOwner() */\n      jump\t// in\n    tag_106:\n        /* \"token_eco_system_dev_contracts/fakePtrnEcosystemParticipationSmartContract.sol\":6290:6304  daily_withdraw */\n      sload(0x0a)\n        /* \"token_eco_system_dev_contracts/fakePtrnEcosystemParticipationSmartContract.sol\":6270:6289  availableToWithdraw */\n      sload(0x09)\n        /* \"token_eco_system_dev_contracts/fakePtrnEcosystemParticipationSmartContract.sol\":6270:6304  availableToWithdraw-daily_withdraw */\n      tag_108\n      swap2\n      swap1\n      tag_109\n      jump\t// in\n    tag_108:\n        /* \"token_eco_system_dev_contracts/fakePtrnEcosystemParticipationSmartContract.sol\":6262:6267  value */\n      dup2\n        /* \"token_eco_system_dev_contracts/fakePtrnEcosystemParticipationSmartContract.sol\":6262:6304  value<= availableToWithdraw-daily_withdraw */\n      gt\n      iszero\n        /* \"token_eco_system_dev_contracts/fakePtrnEcosystemParticipationSmartContract.sol\":6254:6371  require(value<= availableToWithdraw-daily_withdraw, \"Not enough points. The contract must be charged with more PTRN\") */\n      tag_110\n      jumpi\n      mload(0x40)\n      0x08c379a000000000000000000000000000000000000000000000000000000000\n      dup2\n      mstore\n      0x04\n      add\n      tag_111\n      swap1\n      tag_112\n      jump\t// in\n    tag_111:\n      mload(0x40)\n      dup1\n      swap2\n      sub\n      swap1\n      revert\n    tag_110:\n        /* \"token_eco_system_dev_contracts/fakePtrnEcosystemParticipationSmartContract.sol\":6397:6402  value */\n      dup1\n        /* \"token_eco_system_dev_contracts/fakePtrnEcosystemParticipationSmartContract.sol\":6381:6395  daily_withdraw */\n      0x0a\n      0x00\n        /* \"token_eco_system_dev_contracts/fakePtrnEcosystemParticipationSmartContract.sol\":6381:6402  daily_withdraw+=value */\n      dup3\n      dup3\n      sload\n      tag_113\n      swap2\n      swap1\n      tag_114\n      jump\t// in\n    tag_113:\n      swap3\n      pop\n      pop\n      dup2\n      swap1\n      sstore\n      pop\n        /* \"token_eco_system_dev_contracts/fakePtrnEcosystemParticipationSmartContract.sol\":6195:6409  function withdraw(uint256 value) onlyOwner public{... */\n      pop\n      jump\t// out\n        /* \"@openzeppelin/contracts/security/Pausable.sol\":1615:1699  function paused() public view virtual returns (bool) {... */\n    tag_36:\n        /* \"@openzeppelin/contracts/security/Pausable.sol\":1662:1666  bool */\n      0x00\n        /* \"@openzeppelin/contracts/security/Pausable.sol\":1685:1692  _paused */\n      dup1\n      0x00\n      swap1\n      sload\n      swap1\n      0x0100\n      exp\n      swap1\n      div\n      0xff\n      and\n        /* \"@openzeppelin/contracts/security/Pausable.sol\":1678:1692  return _paused */\n      swap1\n      pop\n        /* \"@openzeppelin/contracts/security/Pausable.sol\":1615:1699  function paused() public view virtual returns (bool) {... */\n      swap1\n      jump\t// out\n        /* \"token_eco_system_dev_contracts/fakePtrnEcosystemParticipationSmartContract.sol\":4084:4300  function getRate() public view returns (uint256, uint256, string memory, uint256, string memory) {... */\n    tag_40:\n        /* \"token_eco_system_dev_contracts/fakePtrnEcosystemParticipationSmartContract.sol\":4124:4131  uint256 */\n      0x00\n        /* \"token_eco_system_dev_contracts/fakePtrnEcosystemParticipationSmartContract.sol\":4133:4140  uint256 */\n      dup1\n        /* \"token_eco_system_dev_contracts/fakePtrnEcosystemParticipationSmartContract.sol\":4142:4155  string memory */\n      0x60\n        /* \"token_eco_system_dev_contracts/fakePtrnEcosystemParticipationSmartContract.sol\":4157:4164  uint256 */\n      0x00\n        /* \"token_eco_system_dev_contracts/fakePtrnEcosystemParticipationSmartContract.sol\":4166:4179  string memory */\n      0x60\n        /* \"token_eco_system_dev_contracts/fakePtrnEcosystemParticipationSmartContract.sol\":4199:4207  rateData */\n      0x04\n        /* \"token_eco_system_dev_contracts/fakePtrnEcosystemParticipationSmartContract.sol\":4199:4217  rateData.tokenRate */\n      0x00\n      add\n      sload\n        /* \"token_eco_system_dev_contracts/fakePtrnEcosystemParticipationSmartContract.sol\":4219:4227  rateData */\n      0x04\n        /* \"token_eco_system_dev_contracts/fakePtrnEcosystemParticipationSmartContract.sol\":4219:4236  rateData.decimals */\n      0x01\n      add\n      sload\n        /* \"token_eco_system_dev_contracts/fakePtrnEcosystemParticipationSmartContract.sol\":4238:4246  rateData */\n      0x04\n        /* \"token_eco_system_dev_contracts/fakePtrnEcosystemParticipationSmartContract.sol\":4238:4262  rateData.tokenRateString */\n      0x02\n      add\n        /* \"token_eco_system_dev_contracts/fakePtrnEcosystemParticipationSmartContract.sol\":4264:4272  rateData */\n      0x04\n        /* \"token_eco_system_dev_contracts/fakePtrnEcosystemParticipationSmartContract.sol\":4264:4277  rateData.date */\n      0x03\n      add\n      sload\n        /* \"token_eco_system_dev_contracts/fakePtrnEcosystemParticipationSmartContract.sol\":4279:4287  rateData */\n      0x04\n        /* \"token_eco_system_dev_contracts/fakePtrnEcosystemParticipationSmartContract.sol\":4279:4292  rateData.feed */\n      dup1\n      add\n        /* \"token_eco_system_dev_contracts/fakePtrnEcosystemParticipationSmartContract.sol\":4191:4293  return (rateData.tokenRate, rateData.decimals, rateData.tokenRateString, rateData.date, rateData.feed) */\n      dup3\n      dup1\n      sload\n      tag_117\n      swap1\n      tag_118\n      jump\t// in\n    tag_117:\n      dup1\n      0x1f\n      add\n      0x20\n      dup1\n      swap2\n      div\n      mul\n      0x20\n      add\n      mload(0x40)\n      swap1\n      dup2\n      add\n      0x40\n      mstore\n      dup1\n      swap3\n      swap2\n      swap1\n      dup2\n      dup2\n      mstore\n      0x20\n      add\n      dup3\n      dup1\n      sload\n      tag_119\n      swap1\n      tag_118\n      jump\t// in\n    tag_119:\n      dup1\n      iszero\n      tag_120\n      jumpi\n      dup1\n      0x1f\n      lt\n      tag_121\n      jumpi\n      0x0100\n      dup1\n      dup4\n      sload\n      div\n      mul\n      dup4\n      mstore\n      swap2\n      0x20\n      add\n      swap2\n      jump(tag_120)\n    tag_121:\n      dup3\n      add\n      swap2\n      swap1\n      0x00\n      mstore\n      keccak256(0x00, 0x20)\n      swap1\n    tag_122:\n      dup2\n      sload\n      dup2\n      mstore\n      swap1\n      0x01\n      add\n      swap1\n      0x20\n      add\n      dup1\n      dup4\n      gt\n      tag_122\n      jumpi\n      dup3\n      swap1\n      sub\n      0x1f\n      and\n      dup3\n      add\n      swap2\n    tag_120:\n      pop\n      pop\n      pop\n      pop\n      pop\n      swap3\n      pop\n      dup1\n      dup1\n      sload\n      tag_123\n      swap1\n      tag_118\n      jump\t// in\n    tag_123:\n      dup1\n      0x1f\n      add\n      0x20\n      dup1\n      swap2\n      div\n      mul\n      0x20\n      add\n      mload(0x40)\n      swap1\n      dup2\n      add\n      0x40\n      mstore\n      dup1\n      swap3\n      swap2\n      swap1\n      dup2\n      dup2\n      mstore\n      0x20\n      add\n      dup3\n      dup1\n      sload\n      tag_124\n      swap1\n      tag_118\n      jump\t// in\n    tag_124:\n      dup1\n      iszero\n      tag_125\n      jumpi\n      dup1\n      0x1f\n      lt\n      tag_126\n      jumpi\n      0x0100\n      dup1\n      dup4\n      sload\n      div\n      mul\n      dup4\n      mstore\n      swap2\n      0x20\n      add\n      swap2\n      jump(tag_125)\n    tag_126:\n      dup3\n      add\n      swap2\n      swap1\n      0x00\n      mstore\n      keccak256(0x00, 0x20)\n      swap1\n    tag_127:\n      dup2\n      sload\n      dup2\n      mstore\n      swap1\n      0x01\n      add\n      swap1\n      0x20\n      add\n      dup1\n      dup4\n      gt\n      tag_127\n      jumpi\n      dup3\n      swap1\n      sub\n      0x1f\n      and\n      dup3\n      add\n      swap2\n    tag_125:\n      pop\n      pop\n      pop\n      pop\n      pop\n      swap1\n      pop\n      swap5\n      pop\n      swap5\n      pop\n      swap5\n      pop\n      swap5\n      pop\n      swap5\n      pop\n        /* \"token_eco_system_dev_contracts/fakePtrnEcosystemParticipationSmartContract.sol\":4084:4300  function getRate() public view returns (uint256, uint256, string memory, uint256, string memory) {... */\n      swap1\n      swap2\n      swap3\n      swap4\n      swap5\n      jump\t// out\n        /* \"token_eco_system_dev_contracts/fakePtrnEcosystemParticipationSmartContract.sol\":6849:7110  function transferOfToken(address tokenAddress, address receiver, uint256 amount) public onlyOwner returns (bool){... */\n    tag_46:\n        /* \"token_eco_system_dev_contracts/fakePtrnEcosystemParticipationSmartContract.sol\":6956:6960  bool */\n      0x00\n        /* \"@openzeppelin/contracts/access/Ownable.sol\":1094:1107  _checkOwner() */\n      tag_129\n        /* \"@openzeppelin/contracts/access/Ownable.sol\":1094:1105  _checkOwner */\n      tag_103\n        /* \"@openzeppelin/contracts/access/Ownable.sol\":1094:1107  _checkOwner() */\n      jump\t// in\n    tag_129:\n        /* \"token_eco_system_dev_contracts/fakePtrnEcosystemParticipationSmartContract.sol\":7009:7015  amount */\n      dup2\n        /* \"token_eco_system_dev_contracts/fakePtrnEcosystemParticipationSmartContract.sol\":6979:7007  balanceOfToken(tokenAddress) */\n      tag_131\n        /* \"token_eco_system_dev_contracts/fakePtrnEcosystemParticipationSmartContract.sol\":6994:7006  tokenAddress */\n      dup6\n        /* \"token_eco_system_dev_contracts/fakePtrnEcosystemParticipationSmartContract.sol\":6979:6993  balanceOfToken */\n      tag_71\n        /* \"token_eco_system_dev_contracts/fakePtrnEcosystemParticipationSmartContract.sol\":6979:7007  balanceOfToken(tokenAddress) */\n      jump\t// in\n    tag_131:\n        /* \"token_eco_system_dev_contracts/fakePtrnEcosystemParticipationSmartContract.sol\":6979:7015  balanceOfToken(tokenAddress)>=amount */\n      lt\n      iszero\n        /* \"token_eco_system_dev_contracts/fakePtrnEcosystemParticipationSmartContract.sol\":6971:7039  require(balanceOfToken(tokenAddress)>=amount, \"Not enough balance!\") */\n      tag_132\n      jumpi\n      mload(0x40)\n      0x08c379a000000000000000000000000000000000000000000000000000000000\n      dup2\n      mstore\n      0x04\n      add\n      tag_133\n      swap1\n      tag_134\n      jump\t// in\n    tag_133:\n      mload(0x40)\n      dup1\n      swap2\n      sub\n      swap1\n      revert\n    tag_132:\n        /* \"token_eco_system_dev_contracts/fakePtrnEcosystemParticipationSmartContract.sol\":7063:7075  tokenAddress */\n      dup4\n        /* \"token_eco_system_dev_contracts/fakePtrnEcosystemParticipationSmartContract.sol\":7056:7085  IERC20(tokenAddress).transfer */\n      0xffffffffffffffffffffffffffffffffffffffff\n      and\n      0xa9059cbb\n        /* \"token_eco_system_dev_contracts/fakePtrnEcosystemParticipationSmartContract.sol\":7086:7094  receiver */\n      dup5\n        /* \"token_eco_system_dev_contracts/fakePtrnEcosystemParticipationSmartContract.sol\":7096:7102  amount */\n      dup5\n        /* \"token_eco_system_dev_contracts/fakePtrnEcosystemParticipationSmartContract.sol\":7056:7103  IERC20(tokenAddress).transfer(receiver, amount) */\n      mload(0x40)\n      dup4\n      0xffffffff\n      and\n      0xe0\n      shl\n      dup2\n      mstore\n      0x04\n      add\n      tag_135\n      swap3\n      swap2\n      swap1\n      tag_136\n      jump\t// in\n    tag_135:\n      0x20\n      mload(0x40)\n      dup1\n      dup4\n      sub\n      dup2\n      0x00\n      dup8\n      gas\n      call\n      iszero\n      dup1\n      iszero\n      tag_138\n      jumpi\n      returndatasize\n      0x00\n      dup1\n      returndatacopy\n      revert(0x00, returndatasize)\n    tag_138:\n      pop\n      pop\n      pop\n      pop\n      mload(0x40)\n      returndatasize\n      not(0x1f)\n      0x1f\n      dup3\n      add\n      and\n      dup3\n      add\n      dup1\n      0x40\n      mstore\n      pop\n      dup2\n      add\n      swap1\n      tag_139\n      swap2\n      swap1\n      tag_140\n      jump\t// in\n    tag_139:\n        /* \"token_eco_system_dev_contracts/fakePtrnEcosystemParticipationSmartContract.sol\":7049:7103  return IERC20(tokenAddress).transfer(receiver, amount) */\n      swap1\n      pop\n        /* \"token_eco_system_dev_contracts/fakePtrnEcosystemParticipationSmartContract.sol\":6849:7110  function transferOfToken(address tokenAddress, address receiver, uint256 amount) public onlyOwner returns (bool){... */\n      swap4\n      swap3\n      pop\n      pop\n      pop\n      jump\t// out\n        /* \"@openzeppelin/contracts/access/Ownable.sol\":1831:1932  function renounceOwnership() public virtual onlyOwner {... */\n    tag_49:\n        /* \"@openzeppelin/contracts/access/Ownable.sol\":1094:1107  _checkOwner() */\n      tag_142\n        /* \"@openzeppelin/contracts/access/Ownable.sol\":1094:1105  _checkOwner */\n      tag_103\n        /* \"@openzeppelin/contracts/access/Ownable.sol\":1094:1107  _checkOwner() */\n      jump\t// in\n    tag_142:\n        /* \"@openzeppelin/contracts/access/Ownable.sol\":1895:1925  _transferOwnership(address(0)) */\n      tag_144\n        /* \"@openzeppelin/contracts/access/Ownable.sol\":1922:1923  0 */\n      0x00\n        /* \"@openzeppelin/contracts/access/Ownable.sol\":1895:1913  _transferOwnership */\n      tag_145\n        /* \"@openzeppelin/contracts/access/Ownable.sol\":1895:1925  _transferOwnership(address(0)) */\n      jump\t// in\n    tag_144:\n        /* \"@openzeppelin/contracts/access/Ownable.sol\":1831:1932  function renounceOwnership() public virtual onlyOwner {... */\n      jump\t// out\n        /* \"token_eco_system_dev_contracts/fakePtrnEcosystemParticipationSmartContract.sol\":6059:6189  function balanceOf() public view returns (uint256) {... */\n    tag_51:\n        /* \"token_eco_system_dev_contracts/fakePtrnEcosystemParticipationSmartContract.sol\":6101:6108  uint256 */\n      0x00\n        /* \"token_eco_system_dev_contracts/fakePtrnEcosystemParticipationSmartContract.sol\":6134:6156  ACCEPTED_TOKEN_ADDRESS */\n      immutable(\"0xcb0a4f1f828404731a71b48e4a53cfdf163c30c8a6e88ce60e13ee7555a5c733\")\n        /* \"token_eco_system_dev_contracts/fakePtrnEcosystemParticipationSmartContract.sol\":6127:6167  IERC20(ACCEPTED_TOKEN_ADDRESS).balanceOf */\n      0xffffffffffffffffffffffffffffffffffffffff\n      and\n      0x70a08231\n        /* \"token_eco_system_dev_contracts/fakePtrnEcosystemParticipationSmartContract.sol\":6176:6180  this */\n      address\n        /* \"token_eco_system_dev_contracts/fakePtrnEcosystemParticipationSmartContract.sol\":6127:6182  IERC20(ACCEPTED_TOKEN_ADDRESS).balanceOf(address(this)) */\n      mload(0x40)\n      dup3\n      0xffffffff\n      and\n      0xe0\n      shl\n      dup2\n      mstore\n      0x04\n      add\n      tag_147\n      swap2\n      swap1\n      tag_68\n      jump\t// in\n    tag_147:\n      0x20\n      mload(0x40)\n      dup1\n      dup4\n      sub\n      dup2\n      dup7\n      gas\n      staticcall\n      iszero\n      dup1\n      iszero\n      tag_149\n      jumpi\n      returndatasize\n      0x00\n      dup1\n      returndatacopy\n      revert(0x00, returndatasize)\n    tag_149:\n      pop\n      pop\n      pop\n      pop\n      mload(0x40)\n      returndatasize\n      not(0x1f)\n      0x1f\n      dup3\n      add\n      and\n      dup3\n      add\n      dup1\n      0x40\n      mstore\n      pop\n      dup2\n      add\n      swap1\n      tag_150\n      swap2\n      swap1\n      tag_151\n      jump\t// in\n    tag_150:\n        /* \"token_eco_system_dev_contracts/fakePtrnEcosystemParticipationSmartContract.sol\":6120:6182  return IERC20(ACCEPTED_TOKEN_ADDRESS).balanceOf(address(this)) */\n      swap1\n      pop\n        /* \"token_eco_system_dev_contracts/fakePtrnEcosystemParticipationSmartContract.sol\":6059:6189  function balanceOf() public view returns (uint256) {... */\n      swap1\n      jump\t// out\n        /* \"token_eco_system_dev_contracts/fakePtrnEcosystemParticipationSmartContract.sol\":3409:4077  function setRate() public returns (bool) {... */\n    tag_55:\n        /* \"token_eco_system_dev_contracts/fakePtrnEcosystemParticipationSmartContract.sol\":3444:3448  bool */\n      0x00\n        /* \"token_eco_system_dev_contracts/fakePtrnEcosystemParticipationSmartContract.sol\":3873:3881  11111111 */\n      0xa98ac7\n        /* \"token_eco_system_dev_contracts/fakePtrnEcosystemParticipationSmartContract.sol\":3852:3860  rateData */\n      0x04\n        /* \"token_eco_system_dev_contracts/fakePtrnEcosystemParticipationSmartContract.sol\":3852:3870  rateData.tokenRate */\n      0x00\n      add\n        /* \"token_eco_system_dev_contracts/fakePtrnEcosystemParticipationSmartContract.sol\":3852:3881  rateData.tokenRate = 11111111 */\n      dup2\n      swap1\n      sstore\n      pop\n        /* \"token_eco_system_dev_contracts/fakePtrnEcosystemParticipationSmartContract.sol\":3907:3908  8 */\n      0x08\n        /* \"token_eco_system_dev_contracts/fakePtrnEcosystemParticipationSmartContract.sol\":3887:3895  rateData */\n      0x04\n        /* \"token_eco_system_dev_contracts/fakePtrnEcosystemParticipationSmartContract.sol\":3887:3904  rateData.decimals */\n      0x01\n      add\n        /* \"token_eco_system_dev_contracts/fakePtrnEcosystemParticipationSmartContract.sol\":3887:3908  rateData.decimals = 8 */\n      dup2\n      swap1\n      sstore\n      pop\n        /* \"token_eco_system_dev_contracts/fakePtrnEcosystemParticipationSmartContract.sol\":3914:3961  rateData.tokenRateString = \"fakeUSDT/DummyPTRN\" */\n      mload(0x40)\n      dup1\n      0x40\n      add\n      0x40\n      mstore\n      dup1\n      0x12\n      dup2\n      mstore\n      0x20\n      add\n      0x66616b65555344542f44756d6d795054524e0000000000000000000000000000\n      dup2\n      mstore\n      pop\n        /* \"token_eco_system_dev_contracts/fakePtrnEcosystemParticipationSmartContract.sol\":3914:3922  rateData */\n      0x04\n        /* \"token_eco_system_dev_contracts/fakePtrnEcosystemParticipationSmartContract.sol\":3914:3938  rateData.tokenRateString */\n      0x02\n      add\n        /* \"token_eco_system_dev_contracts/fakePtrnEcosystemParticipationSmartContract.sol\":3914:3961  rateData.tokenRateString = \"fakeUSDT/DummyPTRN\" */\n      swap1\n      dup2\n      tag_153\n      swap2\n      swap1\n      tag_154\n      jump\t// in\n    tag_153:\n      pop\n        /* \"token_eco_system_dev_contracts/fakePtrnEcosystemParticipationSmartContract.sol\":3983:3993  1700135082 */\n      0x655600aa\n        /* \"token_eco_system_dev_contracts/fakePtrnEcosystemParticipationSmartContract.sol\":3967:3975  rateData */\n      0x04\n        /* \"token_eco_system_dev_contracts/fakePtrnEcosystemParticipationSmartContract.sol\":3967:3980  rateData.date */\n      0x03\n      add\n        /* \"token_eco_system_dev_contracts/fakePtrnEcosystemParticipationSmartContract.sol\":3967:3993  rateData.date = 1700135082 */\n      dup2\n      swap1\n      sstore\n      pop\n        /* \"token_eco_system_dev_contracts/fakePtrnEcosystemParticipationSmartContract.sol\":4015:4027  poolRateFeed */\n      0x00\n      0x15\n      swap1\n      sload\n      swap1\n      0x0100\n      exp\n      swap1\n      div\n      0xff\n      and\n        /* \"token_eco_system_dev_contracts/fakePtrnEcosystemParticipationSmartContract.sol\":4015:4052  poolRateFeed ? \"Pool\" : \"AgregatorV3\" */\n      tag_155\n      jumpi\n      mload(0x40)\n      dup1\n      0x40\n      add\n      0x40\n      mstore\n      dup1\n      0x0b\n      dup2\n      mstore\n      0x20\n      add\n      0x416772656761746f725633000000000000000000000000000000000000000000\n      dup2\n      mstore\n      pop\n      jump(tag_156)\n    tag_155:\n      mload(0x40)\n      dup1\n      0x40\n      add\n      0x40\n      mstore\n      dup1\n      0x04\n      dup2\n      mstore\n      0x20\n      add\n      0x506f6f6c00000000000000000000000000000000000000000000000000000000\n      dup2\n      mstore\n      pop\n    tag_156:\n        /* \"token_eco_system_dev_contracts/fakePtrnEcosystemParticipationSmartContract.sol\":3999:4007  rateData */\n      0x04\n        /* \"token_eco_system_dev_contracts/fakePtrnEcosystemParticipationSmartContract.sol\":3999:4012  rateData.feed */\n      dup1\n      add\n        /* \"token_eco_system_dev_contracts/fakePtrnEcosystemParticipationSmartContract.sol\":3999:4052  rateData.feed = poolRateFeed ? \"Pool\" : \"AgregatorV3\" */\n      swap1\n      dup2\n      tag_157\n      swap2\n      swap1\n      tag_154\n      jump\t// in\n    tag_157:\n      pop\n        /* \"token_eco_system_dev_contracts/fakePtrnEcosystemParticipationSmartContract.sol\":4066:4070  true */\n      0x01\n        /* \"token_eco_system_dev_contracts/fakePtrnEcosystemParticipationSmartContract.sol\":4059:4070  return true */\n      swap1\n      pop\n        /* \"token_eco_system_dev_contracts/fakePtrnEcosystemParticipationSmartContract.sol\":3409:4077  function setRate() public returns (bool) {... */\n      swap1\n      jump\t// out\n        /* \"token_eco_system_dev_contracts/fakePtrnEcosystemParticipationSmartContract.sol\":1115:1138  uint256 public burned=0 */\n    tag_58:\n      sload(0x03)\n      dup2\n      jump\t// out\n        /* \"token_eco_system_dev_contracts/fakePtrnEcosystemParticipationSmartContract.sol\":4524:4798  function calculateAmount(uint256 points, uint256 rate, uint256 _decimals) public pure returns (uint256){... */\n    tag_63:\n        /* \"token_eco_system_dev_contracts/fakePtrnEcosystemParticipationSmartContract.sol\":4619:4626  uint256 */\n      0x00\n        /* \"token_eco_system_dev_contracts/fakePtrnEcosystemParticipationSmartContract.sol\":4652:4653  0 */\n      dup1\n        /* \"token_eco_system_dev_contracts/fakePtrnEcosystemParticipationSmartContract.sol\":4645:4649  rate */\n      dup4\n        /* \"token_eco_system_dev_contracts/fakePtrnEcosystemParticipationSmartContract.sol\":4645:4653  rate > 0 */\n      gt\n        /* \"token_eco_system_dev_contracts/fakePtrnEcosystemParticipationSmartContract.sol\":4637:4688  require(rate > 0, \"Rate must be greater than zero\") */\n      tag_159\n      jumpi\n      mload(0x40)\n      0x08c379a000000000000000000000000000000000000000000000000000000000\n      dup2\n      mstore\n      0x04\n      add\n      tag_160\n      swap1\n      tag_161\n      jump\t// in\n    tag_160:\n      mload(0x40)\n      dup1\n      swap2\n      sub\n      swap1\n      revert\n    tag_159:\n        /* \"token_eco_system_dev_contracts/fakePtrnEcosystemParticipationSmartContract.sol\":4698:4724  uint256 amountIn26Decimals */\n      0x00\n        /* \"token_eco_system_dev_contracts/fakePtrnEcosystemParticipationSmartContract.sol\":4740:4749  _decimals */\n      dup3\n        /* \"token_eco_system_dev_contracts/fakePtrnEcosystemParticipationSmartContract.sol\":4736:4738  10 */\n      0x0a\n        /* \"token_eco_system_dev_contracts/fakePtrnEcosystemParticipationSmartContract.sol\":4736:4749  10**_decimals */\n      tag_162\n      swap2\n      swap1\n      tag_163\n      jump\t// in\n    tag_162:\n        /* \"token_eco_system_dev_contracts/fakePtrnEcosystemParticipationSmartContract.sol\":4727:4733  points */\n      dup6\n        /* \"token_eco_system_dev_contracts/fakePtrnEcosystemParticipationSmartContract.sol\":4727:4749  points * 10**_decimals */\n      tag_164\n      swap2\n      swap1\n      tag_165\n      jump\t// in\n    tag_164:\n        /* \"token_eco_system_dev_contracts/fakePtrnEcosystemParticipationSmartContract.sol\":4698:4749  uint256 amountIn26Decimals = points * 10**_decimals */\n      swap1\n      pop\n        /* \"token_eco_system_dev_contracts/fakePtrnEcosystemParticipationSmartContract.sol\":4787:4791  rate */\n      dup4\n        /* \"token_eco_system_dev_contracts/fakePtrnEcosystemParticipationSmartContract.sol\":4766:4784  amountIn26Decimals */\n      dup2\n        /* \"token_eco_system_dev_contracts/fakePtrnEcosystemParticipationSmartContract.sol\":4766:4791  amountIn26Decimals / rate */\n      tag_166\n      swap2\n      swap1\n      tag_167\n      jump\t// in\n    tag_166:\n        /* \"token_eco_system_dev_contracts/fakePtrnEcosystemParticipationSmartContract.sol\":4759:4791  return amountIn26Decimals / rate */\n      swap2\n      pop\n      pop\n        /* \"token_eco_system_dev_contracts/fakePtrnEcosystemParticipationSmartContract.sol\":4524:4798  function calculateAmount(uint256 points, uint256 rate, uint256 _decimals) public pure returns (uint256){... */\n      swap4\n      swap3\n      pop\n      pop\n      pop\n      jump\t// out\n        /* \"@openzeppelin/contracts/access/Ownable.sol\":1201:1286  function owner() public view virtual returns (address) {... */\n    tag_66:\n        /* \"@openzeppelin/contracts/access/Ownable.sol\":1247:1254  address */\n      0x00\n        /* \"@openzeppelin/contracts/access/Ownable.sol\":1273:1279  _owner */\n      dup1\n      0x01\n      swap1\n      sload\n      swap1\n      0x0100\n      exp\n      swap1\n      div\n      0xffffffffffffffffffffffffffffffffffffffff\n      and\n        /* \"@openzeppelin/contracts/access/Ownable.sol\":1266:1279  return _owner */\n      swap1\n      pop\n        /* \"@openzeppelin/contracts/access/Ownable.sol\":1201:1286  function owner() public view virtual returns (address) {... */\n      swap1\n      jump\t// out\n        /* \"token_eco_system_dev_contracts/fakePtrnEcosystemParticipationSmartContract.sol\":6642:6797  function balanceOfToken(address tokenAddress) public onlyOwner view returns (uint256) {... */\n    tag_71:\n        /* \"token_eco_system_dev_contracts/fakePtrnEcosystemParticipationSmartContract.sol\":6719:6726  uint256 */\n      0x00\n        /* \"@openzeppelin/contracts/access/Ownable.sol\":1094:1107  _checkOwner() */\n      tag_170\n        /* \"@openzeppelin/contracts/access/Ownable.sol\":1094:1105  _checkOwner */\n      tag_103\n        /* \"@openzeppelin/contracts/access/Ownable.sol\":1094:1107  _checkOwner() */\n      jump\t// in\n    tag_170:\n        /* \"token_eco_system_dev_contracts/fakePtrnEcosystemParticipationSmartContract.sol\":6752:6764  tokenAddress */\n      dup2\n        /* \"token_eco_system_dev_contracts/fakePtrnEcosystemParticipationSmartContract.sol\":6745:6775  IERC20(tokenAddress).balanceOf */\n      0xffffffffffffffffffffffffffffffffffffffff\n      and\n      0x70a08231\n        /* \"token_eco_system_dev_contracts/fakePtrnEcosystemParticipationSmartContract.sol\":6784:6788  this */\n      address\n        /* \"token_eco_system_dev_contracts/fakePtrnEcosystemParticipationSmartContract.sol\":6745:6790  IERC20(tokenAddress).balanceOf(address(this)) */\n      mload(0x40)\n      dup3\n      0xffffffff\n      and\n      0xe0\n      shl\n      dup2\n      mstore\n      0x04\n      add\n      tag_172\n      swap2\n      swap1\n      tag_68\n      jump\t// in\n    tag_172:\n      0x20\n      mload(0x40)\n      dup1\n      dup4\n      sub\n      dup2\n      dup7\n      gas\n      staticcall\n      iszero\n      dup1\n      iszero\n      tag_174\n      jumpi\n      returndatasize\n      0x00\n      dup1\n      returndatacopy\n      revert(0x00, returndatasize)\n    tag_174:\n      pop\n      pop\n      pop\n      pop\n      mload(0x40)\n      returndatasize\n      not(0x1f)\n      0x1f\n      dup3\n      add\n      and\n      dup3\n      add\n      dup1\n      0x40\n      mstore\n      pop\n      dup2\n      add\n      swap1\n      tag_175\n      swap2\n      swap1\n      tag_151\n      jump\t// in\n    tag_175:\n        /* \"token_eco_system_dev_contracts/fakePtrnEcosystemParticipationSmartContract.sol\":6738:6790  return IERC20(tokenAddress).balanceOf(address(this)) */\n      swap1\n      pop\n        /* \"token_eco_system_dev_contracts/fakePtrnEcosystemParticipationSmartContract.sol\":6642:6797  function balanceOfToken(address tokenAddress) public onlyOwner view returns (uint256) {... */\n      swap2\n      swap1\n      pop\n      jump\t// out\n        /* \"token_eco_system_dev_contracts/fakePtrnEcosystemParticipationSmartContract.sol\":1379:1412  uint256 public daily_withdraw = 0 */\n    tag_74:\n      sload(0x0a)\n      dup2\n      jump\t// out\n        /* \"token_eco_system_dev_contracts/fakePtrnEcosystemParticipationSmartContract.sol\":2471:2627  function addPoolRateFeed(address _ConsumerInterfaceAddress) public onlyOwner{... */\n    tag_78:\n        /* \"@openzeppelin/contracts/access/Ownable.sol\":1094:1107  _checkOwner() */\n      tag_177\n        /* \"@openzeppelin/contracts/access/Ownable.sol\":1094:1105  _checkOwner */\n      tag_103\n        /* \"@openzeppelin/contracts/access/Ownable.sol\":1094:1107  _checkOwner() */\n      jump\t// in\n    tag_177:\n        /* \"token_eco_system_dev_contracts/fakePtrnEcosystemParticipationSmartContract.sol\":2594:2619  _ConsumerInterfaceAddress */\n      dup1\n        /* \"token_eco_system_dev_contracts/fakePtrnEcosystemParticipationSmartContract.sol\":2557:2569  poolConsumer */\n      0x02\n      0x00\n        /* \"token_eco_system_dev_contracts/fakePtrnEcosystemParticipationSmartContract.sol\":2557:2620  poolConsumer = PoolConsumerInterface(_ConsumerInterfaceAddress) */\n      0x0100\n      exp\n      dup2\n      sload\n      dup2\n      0xffffffffffffffffffffffffffffffffffffffff\n      mul\n      not\n      and\n      swap1\n      dup4\n      0xffffffffffffffffffffffffffffffffffffffff\n      and\n      mul\n      or\n      swap1\n      sstore\n      pop\n        /* \"token_eco_system_dev_contracts/fakePtrnEcosystemParticipationSmartContract.sol\":2471:2627  function addPoolRateFeed(address _ConsumerInterfaceAddress) public onlyOwner{... */\n      pop\n      jump\t// out\n        /* \"token_eco_system_dev_contracts/fakePtrnEcosystemParticipationSmartContract.sol\":6415:6583  function dailyReward() onlyOwner public{... */\n    tag_80:\n        /* \"@openzeppelin/contracts/access/Ownable.sol\":1094:1107  _checkOwner() */\n      tag_180\n        /* \"@openzeppelin/contracts/access/Ownable.sol\":1094:1105  _checkOwner */\n      tag_103\n        /* \"@openzeppelin/contracts/access/Ownable.sol\":1094:1107  _checkOwner() */\n      jump\t// in\n    tag_180:\n        /* \"token_eco_system_dev_contracts/fakePtrnEcosystemParticipationSmartContract.sol\":6536:6550  daily_withdraw */\n      sload(0x0a)\n        /* \"token_eco_system_dev_contracts/fakePtrnEcosystemParticipationSmartContract.sol\":6515:6534  availableToWithdraw */\n      0x09\n      0x00\n        /* \"token_eco_system_dev_contracts/fakePtrnEcosystemParticipationSmartContract.sol\":6515:6550  availableToWithdraw-=daily_withdraw */\n      dup3\n      dup3\n      sload\n      tag_182\n      swap2\n      swap1\n      tag_109\n      jump\t// in\n    tag_182:\n      swap3\n      pop\n      pop\n      dup2\n      swap1\n      sstore\n      pop\n        /* \"token_eco_system_dev_contracts/fakePtrnEcosystemParticipationSmartContract.sol\":6575:6576  0 */\n      0x00\n        /* \"token_eco_system_dev_contracts/fakePtrnEcosystemParticipationSmartContract.sol\":6560:6574  daily_withdraw */\n      0x0a\n        /* \"token_eco_system_dev_contracts/fakePtrnEcosystemParticipationSmartContract.sol\":6560:6576  daily_withdraw=0 */\n      dup2\n      swap1\n      sstore\n      pop\n        /* \"token_eco_system_dev_contracts/fakePtrnEcosystemParticipationSmartContract.sol\":6415:6583  function dailyReward() onlyOwner public{... */\n      jump\t// out\n        /* \"token_eco_system_dev_contracts/fakePtrnEcosystemParticipationSmartContract.sol\":4306:4518  function calculatePoints(uint256 amount, uint256 rate, uint256 decimals) public pure returns (uint256){... */\n    tag_83:\n        /* \"token_eco_system_dev_contracts/fakePtrnEcosystemParticipationSmartContract.sol\":4400:4407  uint256 */\n      0x00\n        /* \"token_eco_system_dev_contracts/fakePtrnEcosystemParticipationSmartContract.sol\":4418:4444  uint256 resultIn26Decimals */\n      dup1\n        /* \"token_eco_system_dev_contracts/fakePtrnEcosystemParticipationSmartContract.sol\":4456:4460  rate */\n      dup4\n        /* \"token_eco_system_dev_contracts/fakePtrnEcosystemParticipationSmartContract.sol\":4447:4453  amount */\n      dup6\n        /* \"token_eco_system_dev_contracts/fakePtrnEcosystemParticipationSmartContract.sol\":4447:4460  amount * rate */\n      tag_184\n      swap2\n      swap1\n      tag_165\n      jump\t// in\n    tag_184:\n        /* \"token_eco_system_dev_contracts/fakePtrnEcosystemParticipationSmartContract.sol\":4418:4460  uint256 resultIn26Decimals = amount * rate */\n      swap1\n      pop\n        /* \"token_eco_system_dev_contracts/fakePtrnEcosystemParticipationSmartContract.sol\":4502:4510  decimals */\n      dup3\n        /* \"token_eco_system_dev_contracts/fakePtrnEcosystemParticipationSmartContract.sol\":4498:4500  10 */\n      0x0a\n        /* \"token_eco_system_dev_contracts/fakePtrnEcosystemParticipationSmartContract.sol\":4498:4510  10**decimals */\n      tag_185\n      swap2\n      swap1\n      tag_163\n      jump\t// in\n    tag_185:\n        /* \"token_eco_system_dev_contracts/fakePtrnEcosystemParticipationSmartContract.sol\":4477:4495  resultIn26Decimals */\n      dup2\n        /* \"token_eco_system_dev_contracts/fakePtrnEcosystemParticipationSmartContract.sol\":4477:4510  resultIn26Decimals / 10**decimals */\n      tag_186\n      swap2\n      swap1\n      tag_167\n      jump\t// in\n    tag_186:\n        /* \"token_eco_system_dev_contracts/fakePtrnEcosystemParticipationSmartContract.sol\":4470:4510  return resultIn26Decimals / 10**decimals */\n      swap2\n      pop\n      pop\n        /* \"token_eco_system_dev_contracts/fakePtrnEcosystemParticipationSmartContract.sol\":4306:4518  function calculatePoints(uint256 amount, uint256 rate, uint256 decimals) public pure returns (uint256){... */\n      swap4\n      swap3\n      pop\n      pop\n      pop\n      jump\t// out\n        /* \"token_eco_system_dev_contracts/fakePtrnEcosystemParticipationSmartContract.sol\":1335:1373  uint256 public availableToWithdraw = 0 */\n    tag_86:\n      sload(0x09)\n      dup2\n      jump\t// out\n        /* \"token_eco_system_dev_contracts/fakePtrnEcosystemParticipationSmartContract.sol\":2094:2281  function currentRateFeed() public view returns (string memory){... */\n    tag_89:\n        /* \"token_eco_system_dev_contracts/fakePtrnEcosystemParticipationSmartContract.sol\":2142:2155  string memory */\n      0x60\n        /* \"token_eco_system_dev_contracts/fakePtrnEcosystemParticipationSmartContract.sol\":2166:2186  string memory result */\n      dup1\n        /* \"token_eco_system_dev_contracts/fakePtrnEcosystemParticipationSmartContract.sol\":2196:2208  poolRateFeed */\n      0x00\n      0x15\n      swap1\n      sload\n      swap1\n      0x0100\n      exp\n      swap1\n      div\n      0xff\n      and\n        /* \"token_eco_system_dev_contracts/fakePtrnEcosystemParticipationSmartContract.sol\":2196:2251  poolRateFeed ? result = \"Pool\": result = \"AggregatorV3\" */\n      tag_188\n      jumpi\n        /* \"token_eco_system_dev_contracts/fakePtrnEcosystemParticipationSmartContract.sol\":2228:2251  result = \"AggregatorV3\" */\n      mload(0x40)\n      dup1\n      0x40\n      add\n      0x40\n      mstore\n      dup1\n      0x0c\n      dup2\n      mstore\n      0x20\n      add\n      0x41676772656761746f7256330000000000000000000000000000000000000000\n      dup2\n      mstore\n      pop\n      swap1\n      pop\n      dup1\n        /* \"token_eco_system_dev_contracts/fakePtrnEcosystemParticipationSmartContract.sol\":2196:2251  poolRateFeed ? result = \"Pool\": result = \"AggregatorV3\" */\n      jump(tag_189)\n    tag_188:\n        /* \"token_eco_system_dev_contracts/fakePtrnEcosystemParticipationSmartContract.sol\":2211:2226  result = \"Pool\" */\n      mload(0x40)\n      dup1\n      0x40\n      add\n      0x40\n      mstore\n      dup1\n      0x04\n      dup2\n      mstore\n      0x20\n      add\n      0x506f6f6c00000000000000000000000000000000000000000000000000000000\n      dup2\n      mstore\n      pop\n      swap1\n      pop\n      dup1\n        /* \"token_eco_system_dev_contracts/fakePtrnEcosystemParticipationSmartContract.sol\":2196:2251  poolRateFeed ? result = \"Pool\": result = \"AggregatorV3\" */\n    tag_189:\n      pop\n        /* \"token_eco_system_dev_contracts/fakePtrnEcosystemParticipationSmartContract.sol\":2268:2274  result */\n      dup1\n        /* \"token_eco_system_dev_contracts/fakePtrnEcosystemParticipationSmartContract.sol\":2261:2274  return result */\n      swap2\n      pop\n      pop\n        /* \"token_eco_system_dev_contracts/fakePtrnEcosystemParticipationSmartContract.sol\":2094:2281  function currentRateFeed() public view returns (string memory){... */\n      swap1\n      jump\t// out\n        /* \"token_eco_system_dev_contracts/fakePtrnEcosystemParticipationSmartContract.sol\":1999:2087  function changeRateFeed() public onlyOwner{... */\n    tag_93:\n        /* \"@openzeppelin/contracts/access/Ownable.sol\":1094:1107  _checkOwner() */\n      tag_191\n        /* \"@openzeppelin/contracts/access/Ownable.sol\":1094:1105  _checkOwner */\n      tag_103\n        /* \"@openzeppelin/contracts/access/Ownable.sol\":1094:1107  _checkOwner() */\n      jump\t// in\n    tag_191:\n        /* \"token_eco_system_dev_contracts/fakePtrnEcosystemParticipationSmartContract.sol\":2068:2080  poolRateFeed */\n      0x00\n      0x15\n      swap1\n      sload\n      swap1\n      0x0100\n      exp\n      swap1\n      div\n      0xff\n      and\n        /* \"token_eco_system_dev_contracts/fakePtrnEcosystemParticipationSmartContract.sol\":2067:2080  !poolRateFeed */\n      iszero\n        /* \"token_eco_system_dev_contracts/fakePtrnEcosystemParticipationSmartContract.sol\":2052:2064  poolRateFeed */\n      0x00\n      0x15\n        /* \"token_eco_system_dev_contracts/fakePtrnEcosystemParticipationSmartContract.sol\":2052:2080  poolRateFeed = !poolRateFeed */\n      0x0100\n      exp\n      dup2\n      sload\n      dup2\n      0xff\n      mul\n      not\n      and\n      swap1\n      dup4\n      iszero\n      iszero\n      mul\n      or\n      swap1\n      sstore\n      pop\n        /* \"token_eco_system_dev_contracts/fakePtrnEcosystemParticipationSmartContract.sol\":1999:2087  function changeRateFeed() public onlyOwner{... */\n      jump\t// out\n        /* \"token_eco_system_dev_contracts/fakePtrnEcosystemParticipationSmartContract.sol\":4981:6053  function chargeContract(uint256 amount) public returns (bool){... */\n    tag_96:\n        /* \"token_eco_system_dev_contracts/fakePtrnEcosystemParticipationSmartContract.sol\":5037:5041  bool */\n      0x00\n        /* \"token_eco_system_dev_contracts/fakePtrnEcosystemParticipationSmartContract.sol\":5074:5097  ACCEPTED_SENDER_ADDRESS */\n      immutable(\"0x6b88fa438cae5c1216aa45b8d58426fb848d0ea4056264a8a6a1dd473ff0fc05\")\n        /* \"token_eco_system_dev_contracts/fakePtrnEcosystemParticipationSmartContract.sol\":5060:5097  msg.sender == ACCEPTED_SENDER_ADDRESS */\n      0xffffffffffffffffffffffffffffffffffffffff\n      and\n        /* \"token_eco_system_dev_contracts/fakePtrnEcosystemParticipationSmartContract.sol\":5060:5070  msg.sender */\n      caller\n        /* \"token_eco_system_dev_contracts/fakePtrnEcosystemParticipationSmartContract.sol\":5060:5097  msg.sender == ACCEPTED_SENDER_ADDRESS */\n      0xffffffffffffffffffffffffffffffffffffffff\n      and\n      eq\n        /* \"token_eco_system_dev_contracts/fakePtrnEcosystemParticipationSmartContract.sol\":5052:5123  require(msg.sender == ACCEPTED_SENDER_ADDRESS, \"Sender not authorized\") */\n      tag_194\n      jumpi\n      mload(0x40)\n      0x08c379a000000000000000000000000000000000000000000000000000000000\n      dup2\n      mstore\n      0x04\n      add\n      tag_195\n      swap1\n      tag_196\n      jump\t// in\n    tag_195:\n      mload(0x40)\n      dup1\n      swap2\n      sub\n      swap1\n      revert\n    tag_194:\n        /* \"token_eco_system_dev_contracts/fakePtrnEcosystemParticipationSmartContract.sol\":5375:5398  ACCEPTED_SENDER_ADDRESS */\n      immutable(\"0x6b88fa438cae5c1216aa45b8d58426fb848d0ea4056264a8a6a1dd473ff0fc05\")\n        /* \"token_eco_system_dev_contracts/fakePtrnEcosystemParticipationSmartContract.sol\":5361:5398  msg.sender == ACCEPTED_SENDER_ADDRESS */\n      0xffffffffffffffffffffffffffffffffffffffff\n      and\n        /* \"token_eco_system_dev_contracts/fakePtrnEcosystemParticipationSmartContract.sol\":5361:5371  msg.sender */\n      caller\n        /* \"token_eco_system_dev_contracts/fakePtrnEcosystemParticipationSmartContract.sol\":5361:5398  msg.sender == ACCEPTED_SENDER_ADDRESS */\n      0xffffffffffffffffffffffffffffffffffffffff\n      and\n      eq\n        /* \"token_eco_system_dev_contracts/fakePtrnEcosystemParticipationSmartContract.sol\":5353:5424  require(msg.sender == ACCEPTED_SENDER_ADDRESS, \"Sender not authorized\") */\n      tag_197\n      jumpi\n      mload(0x40)\n      0x08c379a000000000000000000000000000000000000000000000000000000000\n      dup2\n      mstore\n      0x04\n      add\n      tag_198\n      swap1\n      tag_196\n      jump\t// in\n    tag_198:\n      mload(0x40)\n      dup1\n      swap2\n      sub\n      swap1\n      revert\n    tag_197:\n        /* \"token_eco_system_dev_contracts/fakePtrnEcosystemParticipationSmartContract.sol\":5434:5446  IERC20 token */\n      0x00\n        /* \"token_eco_system_dev_contracts/fakePtrnEcosystemParticipationSmartContract.sol\":5456:5478  ACCEPTED_TOKEN_ADDRESS */\n      immutable(\"0xcb0a4f1f828404731a71b48e4a53cfdf163c30c8a6e88ce60e13ee7555a5c733\")\n        /* \"token_eco_system_dev_contracts/fakePtrnEcosystemParticipationSmartContract.sol\":5434:5479  IERC20 token = IERC20(ACCEPTED_TOKEN_ADDRESS) */\n      swap1\n      pop\n        /* \"token_eco_system_dev_contracts/fakePtrnEcosystemParticipationSmartContract.sol\":5489:5506  uint256 allowance */\n      0x00\n        /* \"token_eco_system_dev_contracts/fakePtrnEcosystemParticipationSmartContract.sol\":5509:5514  token */\n      dup2\n        /* \"token_eco_system_dev_contracts/fakePtrnEcosystemParticipationSmartContract.sol\":5509:5524  token.allowance */\n      0xffffffffffffffffffffffffffffffffffffffff\n      and\n      0xdd62ed3e\n        /* \"token_eco_system_dev_contracts/fakePtrnEcosystemParticipationSmartContract.sol\":5525:5535  msg.sender */\n      caller\n        /* \"token_eco_system_dev_contracts/fakePtrnEcosystemParticipationSmartContract.sol\":5545:5549  this */\n      address\n        /* \"token_eco_system_dev_contracts/fakePtrnEcosystemParticipationSmartContract.sol\":5509:5551  token.allowance(msg.sender, address(this)) */\n      mload(0x40)\n      dup4\n      0xffffffff\n      and\n      0xe0\n      shl\n      dup2\n      mstore\n      0x04\n      add\n      tag_199\n      swap3\n      swap2\n      swap1\n      tag_200\n      jump\t// in\n    tag_199:\n      0x20\n      mload(0x40)\n      dup1\n      dup4\n      sub\n      dup2\n      dup7\n      gas\n      staticcall\n      iszero\n      dup1\n      iszero\n      tag_202\n      jumpi\n      returndatasize\n      0x00\n      dup1\n      returndatacopy\n      revert(0x00, returndatasize)\n    tag_202:\n      pop\n      pop\n      pop\n      pop\n      mload(0x40)\n      returndatasize\n      not(0x1f)\n      0x1f\n      dup3\n      add\n      and\n      dup3\n      add\n      dup1\n      0x40\n      mstore\n      pop\n      dup2\n      add\n      swap1\n      tag_203\n      swap2\n      swap1\n      tag_151\n      jump\t// in\n    tag_203:\n        /* \"token_eco_system_dev_contracts/fakePtrnEcosystemParticipationSmartContract.sol\":5489:5551  uint256 allowance = token.allowance(msg.sender, address(this)) */\n      swap1\n      pop\n        /* \"token_eco_system_dev_contracts/fakePtrnEcosystemParticipationSmartContract.sol\":5582:5588  amount */\n      dup4\n        /* \"token_eco_system_dev_contracts/fakePtrnEcosystemParticipationSmartContract.sol\":5569:5578  allowance */\n      dup2\n        /* \"token_eco_system_dev_contracts/fakePtrnEcosystemParticipationSmartContract.sol\":5569:5588  allowance >= amount */\n      lt\n      iszero\n        /* \"token_eco_system_dev_contracts/fakePtrnEcosystemParticipationSmartContract.sol\":5561:5618  require(allowance >= amount, \"Check the token allowance\") */\n      tag_204\n      jumpi\n      mload(0x40)\n      0x08c379a000000000000000000000000000000000000000000000000000000000\n      dup2\n      mstore\n      0x04\n      add\n      tag_205\n      swap1\n      tag_206\n      jump\t// in\n    tag_205:\n      mload(0x40)\n      dup1\n      swap2\n      sub\n      swap1\n      revert\n    tag_204:\n        /* \"token_eco_system_dev_contracts/fakePtrnEcosystemParticipationSmartContract.sol\":5628:5633  token */\n      dup2\n        /* \"token_eco_system_dev_contracts/fakePtrnEcosystemParticipationSmartContract.sol\":5628:5646  token.transferFrom */\n      0xffffffffffffffffffffffffffffffffffffffff\n      and\n      0x23b872dd\n        /* \"token_eco_system_dev_contracts/fakePtrnEcosystemParticipationSmartContract.sol\":5647:5657  msg.sender */\n      caller\n        /* \"token_eco_system_dev_contracts/fakePtrnEcosystemParticipationSmartContract.sol\":5667:5671  this */\n      address\n        /* \"token_eco_system_dev_contracts/fakePtrnEcosystemParticipationSmartContract.sol\":5674:5680  amount */\n      dup8\n        /* \"token_eco_system_dev_contracts/fakePtrnEcosystemParticipationSmartContract.sol\":5628:5681  token.transferFrom(msg.sender, address(this), amount) */\n      mload(0x40)\n      dup5\n      0xffffffff\n      and\n      0xe0\n      shl\n      dup2\n      mstore\n      0x04\n      add\n      tag_207\n      swap4\n      swap3\n      swap2\n      swap1\n      tag_208\n      jump\t// in\n    tag_207:\n      0x20\n      mload(0x40)\n      dup1\n      dup4\n      sub\n      dup2\n      0x00\n      dup8\n      gas\n      call\n      iszero\n      dup1\n      iszero\n      tag_210\n      jumpi\n      returndatasize\n      0x00\n      dup1\n      returndatacopy\n      revert(0x00, returndatasize)\n    tag_210:\n      pop\n      pop\n      pop\n      pop\n      mload(0x40)\n      returndatasize\n      not(0x1f)\n      0x1f\n      dup3\n      add\n      and\n      dup3\n      add\n      dup1\n      0x40\n      mstore\n      pop\n      dup2\n      add\n      swap1\n      tag_211\n      swap2\n      swap1\n      tag_140\n      jump\t// in\n    tag_211:\n      pop\n        /* \"token_eco_system_dev_contracts/fakePtrnEcosystemParticipationSmartContract.sol\":5719:5728  setRate() */\n      tag_212\n        /* \"token_eco_system_dev_contracts/fakePtrnEcosystemParticipationSmartContract.sol\":5719:5726  setRate */\n      tag_55\n        /* \"token_eco_system_dev_contracts/fakePtrnEcosystemParticipationSmartContract.sol\":5719:5728  setRate() */\n      jump\t// in\n    tag_212:\n      pop\n        /* \"token_eco_system_dev_contracts/fakePtrnEcosystemParticipationSmartContract.sol\":5739:5751  uint256 rate */\n      0x00\n        /* \"token_eco_system_dev_contracts/fakePtrnEcosystemParticipationSmartContract.sol\":5753:5769  uint256 decimals */\n      dup1\n        /* \"token_eco_system_dev_contracts/fakePtrnEcosystemParticipationSmartContract.sol\":5778:5787  getRate() */\n      tag_213\n        /* \"token_eco_system_dev_contracts/fakePtrnEcosystemParticipationSmartContract.sol\":5778:5785  getRate */\n      tag_40\n        /* \"token_eco_system_dev_contracts/fakePtrnEcosystemParticipationSmartContract.sol\":5778:5787  getRate() */\n      jump\t// in\n    tag_213:\n        /* \"token_eco_system_dev_contracts/fakePtrnEcosystemParticipationSmartContract.sol\":5738:5787  (uint256 rate, uint256 decimals, , ,) = getRate() */\n      pop\n      pop\n      pop\n      swap2\n      pop\n      swap2\n      pop\n        /* \"token_eco_system_dev_contracts/fakePtrnEcosystemParticipationSmartContract.sol\":5797:5823  burnIncomingTokens(amount) */\n      tag_214\n        /* \"token_eco_system_dev_contracts/fakePtrnEcosystemParticipationSmartContract.sol\":5816:5822  amount */\n      dup7\n        /* \"token_eco_system_dev_contracts/fakePtrnEcosystemParticipationSmartContract.sol\":5797:5815  burnIncomingTokens */\n      tag_215\n        /* \"token_eco_system_dev_contracts/fakePtrnEcosystemParticipationSmartContract.sol\":5797:5823  burnIncomingTokens(amount) */\n      jump\t// in\n    tag_214:\n      pop\n        /* \"token_eco_system_dev_contracts/fakePtrnEcosystemParticipationSmartContract.sol\":5856:5895  calculatePoints(amount, rate, decimals) */\n      tag_216\n        /* \"token_eco_system_dev_contracts/fakePtrnEcosystemParticipationSmartContract.sol\":5872:5878  amount */\n      dup7\n        /* \"token_eco_system_dev_contracts/fakePtrnEcosystemParticipationSmartContract.sol\":5880:5884  rate */\n      dup4\n        /* \"token_eco_system_dev_contracts/fakePtrnEcosystemParticipationSmartContract.sol\":5886:5894  decimals */\n      dup4\n        /* \"token_eco_system_dev_contracts/fakePtrnEcosystemParticipationSmartContract.sol\":5856:5871  calculatePoints */\n      tag_83\n        /* \"token_eco_system_dev_contracts/fakePtrnEcosystemParticipationSmartContract.sol\":5856:5895  calculatePoints(amount, rate, decimals) */\n      jump\t// in\n    tag_216:\n        /* \"token_eco_system_dev_contracts/fakePtrnEcosystemParticipationSmartContract.sol\":5833:5852  availableToWithdraw */\n      0x09\n      0x00\n        /* \"token_eco_system_dev_contracts/fakePtrnEcosystemParticipationSmartContract.sol\":5833:5895  availableToWithdraw += calculatePoints(amount, rate, decimals) */\n      dup3\n      dup3\n      sload\n      tag_217\n      swap2\n      swap1\n      tag_114\n      jump\t// in\n    tag_217:\n      swap3\n      pop\n      pop\n      dup2\n      swap1\n      sstore\n      pop\n        /* \"token_eco_system_dev_contracts/fakePtrnEcosystemParticipationSmartContract.sol\":6041:6045  true */\n      0x01\n        /* \"token_eco_system_dev_contracts/fakePtrnEcosystemParticipationSmartContract.sol\":6034:6046  return(true) */\n      swap5\n      pop\n      pop\n      pop\n      pop\n      pop\n        /* \"token_eco_system_dev_contracts/fakePtrnEcosystemParticipationSmartContract.sol\":4981:6053  function chargeContract(uint256 amount) public returns (bool){... */\n      swap2\n      swap1\n      pop\n      jump\t// out\n        /* \"@openzeppelin/contracts/access/Ownable.sol\":2081:2279  function transferOwnership(address newOwner) public virtual onlyOwner {... */\n    tag_100:\n        /* \"@openzeppelin/contracts/access/Ownable.sol\":1094:1107  _checkOwner() */\n      tag_219\n        /* \"@openzeppelin/contracts/access/Ownable.sol\":1094:1105  _checkOwner */\n      tag_103\n        /* \"@openzeppelin/contracts/access/Ownable.sol\":1094:1107  _checkOwner() */\n      jump\t// in\n    tag_219:\n        /* \"@openzeppelin/contracts/access/Ownable.sol\":2189:2190  0 */\n      0x00\n        /* \"@openzeppelin/contracts/access/Ownable.sol\":2169:2191  newOwner != address(0) */\n      0xffffffffffffffffffffffffffffffffffffffff\n      and\n        /* \"@openzeppelin/contracts/access/Ownable.sol\":2169:2177  newOwner */\n      dup2\n        /* \"@openzeppelin/contracts/access/Ownable.sol\":2169:2191  newOwner != address(0) */\n      0xffffffffffffffffffffffffffffffffffffffff\n      and\n      sub\n        /* \"@openzeppelin/contracts/access/Ownable.sol\":2161:2234  require(newOwner != address(0), \"Ownable: new owner is the zero address\") */\n      tag_221\n      jumpi\n      mload(0x40)\n      0x08c379a000000000000000000000000000000000000000000000000000000000\n      dup2\n      mstore\n      0x04\n      add\n      tag_222\n      swap1\n      tag_223\n      jump\t// in\n    tag_222:\n      mload(0x40)\n      dup1\n      swap2\n      sub\n      swap1\n      revert\n    tag_221:\n        /* \"@openzeppelin/contracts/access/Ownable.sol\":2244:2272  _transferOwnership(newOwner) */\n      tag_224\n        /* \"@openzeppelin/contracts/access/Ownable.sol\":2263:2271  newOwner */\n      dup2\n        /* \"@openzeppelin/contracts/access/Ownable.sol\":2244:2262  _transferOwnership */\n      tag_145\n        /* \"@openzeppelin/contracts/access/Ownable.sol\":2244:2272  _transferOwnership(newOwner) */\n      jump\t// in\n    tag_224:\n        /* \"@openzeppelin/contracts/access/Ownable.sol\":2081:2279  function transferOwnership(address newOwner) public virtual onlyOwner {... */\n      pop\n      jump\t// out\n        /* \"@openzeppelin/contracts/access/Ownable.sol\":1359:1489  function _checkOwner() internal view virtual {... */\n    tag_103:\n        /* \"@openzeppelin/contracts/access/Ownable.sol\":1433:1445  _msgSender() */\n      tag_226\n        /* \"@openzeppelin/contracts/access/Ownable.sol\":1433:1443  _msgSender */\n      tag_227\n        /* \"@openzeppelin/contracts/access/Ownable.sol\":1433:1445  _msgSender() */\n      jump\t// in\n    tag_226:\n        /* \"@openzeppelin/contracts/access/Ownable.sol\":1422:1445  owner() == _msgSender() */\n      0xffffffffffffffffffffffffffffffffffffffff\n      and\n        /* \"@openzeppelin/contracts/access/Ownable.sol\":1422:1429  owner() */\n      tag_228\n        /* \"@openzeppelin/contracts/access/Ownable.sol\":1422:1427  owner */\n      tag_66\n        /* \"@openzeppelin/contracts/access/Ownable.sol\":1422:1429  owner() */\n      jump\t// in\n    tag_228:\n        /* \"@openzeppelin/contracts/access/Ownable.sol\":1422:1445  owner() == _msgSender() */\n      0xffffffffffffffffffffffffffffffffffffffff\n      and\n      eq\n        /* \"@openzeppelin/contracts/access/Ownable.sol\":1414:1482  require(owner() == _msgSender(), \"Ownable: caller is not the owner\") */\n      tag_229\n      jumpi\n      mload(0x40)\n      0x08c379a000000000000000000000000000000000000000000000000000000000\n      dup2\n      mstore\n      0x04\n      add\n      tag_230\n      swap1\n      tag_231\n      jump\t// in\n    tag_230:\n      mload(0x40)\n      dup1\n      swap2\n      sub\n      swap1\n      revert\n    tag_229:\n        /* \"@openzeppelin/contracts/access/Ownable.sol\":1359:1489  function _checkOwner() internal view virtual {... */\n      jump\t// out\n        /* \"@openzeppelin/contracts/access/Ownable.sol\":2433:2620  function _transferOwnership(address newOwner) internal virtual {... */\n    tag_145:\n        /* \"@openzeppelin/contracts/access/Ownable.sol\":2506:2522  address oldOwner */\n      0x00\n        /* \"@openzeppelin/contracts/access/Ownable.sol\":2525:2531  _owner */\n      dup1\n      0x01\n      swap1\n      sload\n      swap1\n      0x0100\n      exp\n      swap1\n      div\n      0xffffffffffffffffffffffffffffffffffffffff\n      and\n        /* \"@openzeppelin/contracts/access/Ownable.sol\":2506:2531  address oldOwner = _owner */\n      swap1\n      pop\n        /* \"@openzeppelin/contracts/access/Ownable.sol\":2550:2558  newOwner */\n      dup2\n        /* \"@openzeppelin/contracts/access/Ownable.sol\":2541:2547  _owner */\n      0x00\n      0x01\n        /* \"@openzeppelin/contracts/access/Ownable.sol\":2541:2558  _owner = newOwner */\n      0x0100\n      exp\n      dup2\n      sload\n      dup2\n      0xffffffffffffffffffffffffffffffffffffffff\n      mul\n      not\n      and\n      swap1\n      dup4\n      0xffffffffffffffffffffffffffffffffffffffff\n      and\n      mul\n      or\n      swap1\n      sstore\n      pop\n        /* \"@openzeppelin/contracts/access/Ownable.sol\":2604:2612  newOwner */\n      dup2\n        /* \"@openzeppelin/contracts/access/Ownable.sol\":2573:2613  OwnershipTransferred(oldOwner, newOwner) */\n      0xffffffffffffffffffffffffffffffffffffffff\n      and\n        /* \"@openzeppelin/contracts/access/Ownable.sol\":2594:2602  oldOwner */\n      dup2\n        /* \"@openzeppelin/contracts/access/Ownable.sol\":2573:2613  OwnershipTransferred(oldOwner, newOwner) */\n      0xffffffffffffffffffffffffffffffffffffffff\n      and\n      0x8be0079c531659141344cd1fd0a4f28419497f9722a3daafe3b4186f6b6457e0\n      mload(0x40)\n      mload(0x40)\n      dup1\n      swap2\n      sub\n      swap1\n      log3\n        /* \"@openzeppelin/contracts/access/Ownable.sol\":2496:2620  {... */\n      pop\n        /* \"@openzeppelin/contracts/access/Ownable.sol\":2433:2620  function _transferOwnership(address newOwner) internal virtual {... */\n      pop\n      jump\t// out\n        /* \"token_eco_system_dev_contracts/fakePtrnEcosystemParticipationSmartContract.sol\":7116:7393  function burnIncomingTokens(uint256 amount) private returns (bool) {... */\n    tag_215:\n        /* \"token_eco_system_dev_contracts/fakePtrnEcosystemParticipationSmartContract.sol\":7177:7181  bool */\n      0x00\n        /* \"token_eco_system_dev_contracts/fakePtrnEcosystemParticipationSmartContract.sol\":7217:7218  0 */\n      dup1\n        /* \"token_eco_system_dev_contracts/fakePtrnEcosystemParticipationSmartContract.sol\":7210:7216  amount */\n      dup3\n        /* \"token_eco_system_dev_contracts/fakePtrnEcosystemParticipationSmartContract.sol\":7210:7218  amount>0 */\n      gt\n        /* \"token_eco_system_dev_contracts/fakePtrnEcosystemParticipationSmartContract.sol\":7202:7246  require(amount>0, \"No tokens to be burned!\") */\n      tag_234\n      jumpi\n      mload(0x40)\n      0x08c379a000000000000000000000000000000000000000000000000000000000\n      dup2\n      mstore\n      0x04\n      add\n      tag_235\n      swap1\n      tag_236\n      jump\t// in\n    tag_235:\n      mload(0x40)\n      dup1\n      swap2\n      sub\n      swap1\n      revert\n    tag_234:\n        /* \"token_eco_system_dev_contracts/fakePtrnEcosystemParticipationSmartContract.sol\":7256:7276  IERC20Burnable token */\n      0x00\n        /* \"token_eco_system_dev_contracts/fakePtrnEcosystemParticipationSmartContract.sol\":7294:7316  ACCEPTED_TOKEN_ADDRESS */\n      immutable(\"0xcb0a4f1f828404731a71b48e4a53cfdf163c30c8a6e88ce60e13ee7555a5c733\")\n        /* \"token_eco_system_dev_contracts/fakePtrnEcosystemParticipationSmartContract.sol\":7256:7317  IERC20Burnable token = IERC20Burnable(ACCEPTED_TOKEN_ADDRESS) */\n      swap1\n      pop\n        /* \"token_eco_system_dev_contracts/fakePtrnEcosystemParticipationSmartContract.sol\":7327:7332  token */\n      dup1\n        /* \"token_eco_system_dev_contracts/fakePtrnEcosystemParticipationSmartContract.sol\":7327:7337  token.burn */\n      0xffffffffffffffffffffffffffffffffffffffff\n      and\n      0x42966c68\n        /* \"token_eco_system_dev_contracts/fakePtrnEcosystemParticipationSmartContract.sol\":7338:7344  amount */\n      dup5\n        /* \"token_eco_system_dev_contracts/fakePtrnEcosystemParticipationSmartContract.sol\":7327:7345  token.burn(amount) */\n      mload(0x40)\n      dup3\n      0xffffffff\n      and\n      0xe0\n      shl\n      dup2\n      mstore\n      0x04\n      add\n      tag_237\n      swap2\n      swap1\n      tag_53\n      jump\t// in\n    tag_237:\n      0x00\n      mload(0x40)\n      dup1\n      dup4\n      sub\n      dup2\n      0x00\n      dup8\n      dup1\n      extcodesize\n      iszero\n      dup1\n      iszero\n      tag_238\n      jumpi\n      0x00\n      dup1\n      revert\n    tag_238:\n      pop\n      gas\n      call\n      iszero\n      dup1\n      iszero\n      tag_240\n      jumpi\n      returndatasize\n      0x00\n      dup1\n      returndatacopy\n      revert(0x00, returndatasize)\n    tag_240:\n      pop\n      pop\n      pop\n      pop\n        /* \"token_eco_system_dev_contracts/fakePtrnEcosystemParticipationSmartContract.sol\":7363:7369  amount */\n      dup3\n        /* \"token_eco_system_dev_contracts/fakePtrnEcosystemParticipationSmartContract.sol\":7355:7361  burned */\n      0x03\n      0x00\n        /* \"token_eco_system_dev_contracts/fakePtrnEcosystemParticipationSmartContract.sol\":7355:7369  burned+=amount */\n      dup3\n      dup3\n      sload\n      tag_241\n      swap2\n      swap1\n      tag_114\n      jump\t// in\n    tag_241:\n      swap3\n      pop\n      pop\n      dup2\n      swap1\n      sstore\n      pop\n        /* \"token_eco_system_dev_contracts/fakePtrnEcosystemParticipationSmartContract.sol\":7382:7386  true */\n      0x01\n        /* \"token_eco_system_dev_contracts/fakePtrnEcosystemParticipationSmartContract.sol\":7375:7386  return true */\n      swap2\n      pop\n      pop\n        /* \"token_eco_system_dev_contracts/fakePtrnEcosystemParticipationSmartContract.sol\":7116:7393  function burnIncomingTokens(uint256 amount) private returns (bool) {... */\n      swap2\n      swap1\n      pop\n      jump\t// out\n        /* \"@openzeppelin/contracts/utils/Context.sol\":640:736  function _msgSender() internal view virtual returns (address) {... */\n    tag_227:\n        /* \"@openzeppelin/contracts/utils/Context.sol\":693:700  address */\n      0x00\n        /* \"@openzeppelin/contracts/utils/Context.sol\":719:729  msg.sender */\n      caller\n        /* \"@openzeppelin/contracts/utils/Context.sol\":712:729  return msg.sender */\n      swap1\n      pop\n        /* \"@openzeppelin/contracts/utils/Context.sol\":640:736  function _msgSender() internal view virtual returns (address) {... */\n      swap1\n      jump\t// out\n        /* \"#utility.yul\":88:205   */\n    tag_244:\n        /* \"#utility.yul\":197:198   */\n      0x00\n        /* \"#utility.yul\":194:195   */\n      dup1\n        /* \"#utility.yul\":187:199   */\n      revert\n        /* \"#utility.yul\":334:460   */\n    tag_246:\n        /* \"#utility.yul\":371:378   */\n      0x00\n        /* \"#utility.yul\":411:453   */\n      0xffffffffffffffffffffffffffffffffffffffff\n        /* \"#utility.yul\":404:409   */\n      dup3\n        /* \"#utility.yul\":400:454   */\n      and\n        /* \"#utility.yul\":389:454   */\n      swap1\n      pop\n        /* \"#utility.yul\":334:460   */\n      swap2\n      swap1\n      pop\n      jump\t// out\n        /* \"#utility.yul\":466:562   */\n    tag_247:\n        /* \"#utility.yul\":503:510   */\n      0x00\n        /* \"#utility.yul\":532:556   */\n      tag_309\n        /* \"#utility.yul\":550:555   */\n      dup3\n        /* \"#utility.yul\":532:556   */\n      tag_246\n      jump\t// in\n    tag_309:\n        /* \"#utility.yul\":521:556   */\n      swap1\n      pop\n        /* \"#utility.yul\":466:562   */\n      swap2\n      swap1\n      pop\n      jump\t// out\n        /* \"#utility.yul\":568:690   */\n    tag_248:\n        /* \"#utility.yul\":641:665   */\n      tag_311\n        /* \"#utility.yul\":659:664   */\n      dup2\n        /* \"#utility.yul\":641:665   */\n      tag_247\n      jump\t// in\n    tag_311:\n        /* \"#utility.yul\":634:639   */\n      dup2\n        /* \"#utility.yul\":631:666   */\n      eq\n        /* \"#utility.yul\":621:684   */\n      tag_312\n      jumpi\n        /* \"#utility.yul\":680:681   */\n      0x00\n        /* \"#utility.yul\":677:678   */\n      dup1\n        /* \"#utility.yul\":670:682   */\n      revert\n        /* \"#utility.yul\":621:684   */\n    tag_312:\n        /* \"#utility.yul\":568:690   */\n      pop\n      jump\t// out\n        /* \"#utility.yul\":696:835   */\n    tag_249:\n        /* \"#utility.yul\":742:747   */\n      0x00\n        /* \"#utility.yul\":780:786   */\n      dup2\n        /* \"#utility.yul\":767:787   */\n      calldataload\n        /* \"#utility.yul\":758:787   */\n      swap1\n      pop\n        /* \"#utility.yul\":796:829   */\n      tag_314\n        /* \"#utility.yul\":823:828   */\n      dup2\n        /* \"#utility.yul\":796:829   */\n      tag_248\n      jump\t// in\n    tag_314:\n        /* \"#utility.yul\":696:835   */\n      swap3\n      swap2\n      pop\n      pop\n      jump\t// out\n        /* \"#utility.yul\":841:1170   */\n    tag_29:\n        /* \"#utility.yul\":900:906   */\n      0x00\n        /* \"#utility.yul\":949:951   */\n      0x20\n        /* \"#utility.yul\":937:946   */\n      dup3\n        /* \"#utility.yul\":928:935   */\n      dup5\n        /* \"#utility.yul\":924:947   */\n      sub\n        /* \"#utility.yul\":920:952   */\n      slt\n        /* \"#utility.yul\":917:1036   */\n      iszero\n      tag_316\n      jumpi\n        /* \"#utility.yul\":955:1034   */\n      tag_317\n      tag_244\n      jump\t// in\n    tag_317:\n        /* \"#utility.yul\":917:1036   */\n    tag_316:\n        /* \"#utility.yul\":1075:1076   */\n      0x00\n        /* \"#utility.yul\":1100:1153   */\n      tag_318\n        /* \"#utility.yul\":1145:1152   */\n      dup5\n        /* \"#utility.yul\":1136:1142   */\n      dup3\n        /* \"#utility.yul\":1125:1134   */\n      dup6\n        /* \"#utility.yul\":1121:1143   */\n      add\n        /* \"#utility.yul\":1100:1153   */\n      tag_249\n      jump\t// in\n    tag_318:\n        /* \"#utility.yul\":1090:1153   */\n      swap2\n      pop\n        /* \"#utility.yul\":1046:1163   */\n      pop\n        /* \"#utility.yul\":841:1170   */\n      swap3\n      swap2\n      pop\n      pop\n      jump\t// out\n        /* \"#utility.yul\":1176:1253   */\n    tag_250:\n        /* \"#utility.yul\":1213:1220   */\n      0x00\n        /* \"#utility.yul\":1242:1247   */\n      dup2\n        /* \"#utility.yul\":1231:1247   */\n      swap1\n      pop\n        /* \"#utility.yul\":1176:1253   */\n      swap2\n      swap1\n      pop\n      jump\t// out\n        /* \"#utility.yul\":1259:1381   */\n    tag_251:\n        /* \"#utility.yul\":1332:1356   */\n      tag_321\n        /* \"#utility.yul\":1350:1355   */\n      dup2\n        /* \"#utility.yul\":1332:1356   */\n      tag_250\n      jump\t// in\n    tag_321:\n        /* \"#utility.yul\":1325:1330   */\n      dup2\n        /* \"#utility.yul\":1322:1357   */\n      eq\n        /* \"#utility.yul\":1312:1375   */\n      tag_322\n      jumpi\n        /* \"#utility.yul\":1371:1372   */\n      0x00\n        /* \"#utility.yul\":1368:1369   */\n      dup1\n        /* \"#utility.yul\":1361:1373   */\n      revert\n        /* \"#utility.yul\":1312:1375   */\n    tag_322:\n        /* \"#utility.yul\":1259:1381   */\n      pop\n      jump\t// out\n        /* \"#utility.yul\":1387:1526   */\n    tag_252:\n        /* \"#utility.yul\":1433:1438   */\n      0x00\n        /* \"#utility.yul\":1471:1477   */\n      dup2\n        /* \"#utility.yul\":1458:1478   */\n      calldataload\n        /* \"#utility.yul\":1449:1478   */\n      swap1\n      pop\n        /* \"#utility.yul\":1487:1520   */\n      tag_324\n        /* \"#utility.yul\":1514:1519   */\n      dup2\n        /* \"#utility.yul\":1487:1520   */\n      tag_251\n      jump\t// in\n    tag_324:\n        /* \"#utility.yul\":1387:1526   */\n      swap3\n      swap2\n      pop\n      pop\n      jump\t// out\n        /* \"#utility.yul\":1532:1861   */\n    tag_33:\n        /* \"#utility.yul\":1591:1597   */\n      0x00\n        /* \"#utility.yul\":1640:1642   */\n      0x20\n        /* \"#utility.yul\":1628:1637   */\n      dup3\n        /* \"#utility.yul\":1619:1626   */\n      dup5\n        /* \"#utility.yul\":1615:1638   */\n      sub\n        /* \"#utility.yul\":1611:1643   */\n      slt\n        /* \"#utility.yul\":1608:1727   */\n      iszero\n      tag_326\n      jumpi\n        /* \"#utility.yul\":1646:1725   */\n      tag_327\n      tag_244\n      jump\t// in\n    tag_327:\n        /* \"#utility.yul\":1608:1727   */\n    tag_326:\n        /* \"#utility.yul\":1766:1767   */\n      0x00\n        /* \"#utility.yul\":1791:1844   */\n      tag_328\n        /* \"#utility.yul\":1836:1843   */\n      dup5\n        /* \"#utility.yul\":1827:1833   */\n      dup3\n        /* \"#utility.yul\":1816:1825   */\n      dup6\n        /* \"#utility.yul\":1812:1834   */\n      add\n        /* \"#utility.yul\":1791:1844   */\n      tag_252\n      jump\t// in\n    tag_328:\n        /* \"#utility.yul\":1781:1844   */\n      swap2\n      pop\n        /* \"#utility.yul\":1737:1854   */\n      pop\n        /* \"#utility.yul\":1532:1861   */\n      swap3\n      swap2\n      pop\n      pop\n      jump\t// out\n        /* \"#utility.yul\":1867:1957   */\n    tag_253:\n        /* \"#utility.yul\":1901:1908   */\n      0x00\n        /* \"#utility.yul\":1944:1949   */\n      dup2\n        /* \"#utility.yul\":1937:1950   */\n      iszero\n        /* \"#utility.yul\":1930:1951   */\n      iszero\n        /* \"#utility.yul\":1919:1951   */\n      swap1\n      pop\n        /* \"#utility.yul\":1867:1957   */\n      swap2\n      swap1\n      pop\n      jump\t// out\n        /* \"#utility.yul\":1963:2072   */\n    tag_254:\n        /* \"#utility.yul\":2044:2065   */\n      tag_331\n        /* \"#utility.yul\":2059:2064   */\n      dup2\n        /* \"#utility.yul\":2044:2065   */\n      tag_253\n      jump\t// in\n    tag_331:\n        /* \"#utility.yul\":2039:2042   */\n      dup3\n        /* \"#utility.yul\":2032:2066   */\n      mstore\n        /* \"#utility.yul\":1963:2072   */\n      pop\n      pop\n      jump\t// out\n        /* \"#utility.yul\":2078:2288   */\n    tag_38:\n        /* \"#utility.yul\":2165:2169   */\n      0x00\n        /* \"#utility.yul\":2203:2205   */\n      0x20\n        /* \"#utility.yul\":2192:2201   */\n      dup3\n        /* \"#utility.yul\":2188:2206   */\n      add\n        /* \"#utility.yul\":2180:2206   */\n      swap1\n      pop\n        /* \"#utility.yul\":2216:2281   */\n      tag_333\n        /* \"#utility.yul\":2278:2279   */\n      0x00\n        /* \"#utility.yul\":2267:2276   */\n      dup4\n        /* \"#utility.yul\":2263:2280   */\n      add\n        /* \"#utility.yul\":2254:2260   */\n      dup5\n        /* \"#utility.yul\":2216:2281   */\n      tag_254\n      jump\t// in\n    tag_333:\n        /* \"#utility.yul\":2078:2288   */\n      swap3\n      swap2\n      pop\n      pop\n      jump\t// out\n        /* \"#utility.yul\":2294:2412   */\n    tag_255:\n        /* \"#utility.yul\":2381:2405   */\n      tag_335\n        /* \"#utility.yul\":2399:2404   */\n      dup2\n        /* \"#utility.yul\":2381:2405   */\n      tag_250\n      jump\t// in\n    tag_335:\n        /* \"#utility.yul\":2376:2379   */\n      dup3\n        /* \"#utility.yul\":2369:2406   */\n      mstore\n        /* \"#utility.yul\":2294:2412   */\n      pop\n      pop\n      jump\t// out\n        /* \"#utility.yul\":2418:2517   */\n    tag_256:\n        /* \"#utility.yul\":2470:2476   */\n      0x00\n        /* \"#utility.yul\":2504:2509   */\n      dup2\n        /* \"#utility.yul\":2498:2510   */\n      mload\n        /* \"#utility.yul\":2488:2510   */\n      swap1\n      pop\n        /* \"#utility.yul\":2418:2517   */\n      swap2\n      swap1\n      pop\n      jump\t// out\n        /* \"#utility.yul\":2523:2692   */\n    tag_257:\n        /* \"#utility.yul\":2607:2618   */\n      0x00\n        /* \"#utility.yul\":2641:2647   */\n      dup3\n        /* \"#utility.yul\":2636:2639   */\n      dup3\n        /* \"#utility.yul\":2629:2648   */\n      mstore\n        /* \"#utility.yul\":2681:2685   */\n      0x20\n        /* \"#utility.yul\":2676:2679   */\n      dup3\n        /* \"#utility.yul\":2672:2686   */\n      add\n        /* \"#utility.yul\":2657:2686   */\n      swap1\n      pop\n        /* \"#utility.yul\":2523:2692   */\n      swap3\n      swap2\n      pop\n      pop\n      jump\t// out\n        /* \"#utility.yul\":2698:2837   */\n    tag_258:\n        /* \"#utility.yul\":2787:2793   */\n      dup3\n        /* \"#utility.yul\":2782:2785   */\n      dup2\n        /* \"#utility.yul\":2777:2780   */\n      dup4\n        /* \"#utility.yul\":2771:2794   */\n      mcopy\n        /* \"#utility.yul\":2828:2829   */\n      0x00\n        /* \"#utility.yul\":2819:2825   */\n      dup4\n        /* \"#utility.yul\":2814:2817   */\n      dup4\n        /* \"#utility.yul\":2810:2826   */\n      add\n        /* \"#utility.yul\":2803:2830   */\n      mstore\n        /* \"#utility.yul\":2698:2837   */\n      pop\n      pop\n      pop\n      jump\t// out\n        /* \"#utility.yul\":2843:2945   */\n    tag_259:\n        /* \"#utility.yul\":2884:2890   */\n      0x00\n        /* \"#utility.yul\":2935:2937   */\n      0x1f\n        /* \"#utility.yul\":2931:2938   */\n      not\n        /* \"#utility.yul\":2926:2928   */\n      0x1f\n        /* \"#utility.yul\":2919:2924   */\n      dup4\n        /* \"#utility.yul\":2915:2929   */\n      add\n        /* \"#utility.yul\":2911:2939   */\n      and\n        /* \"#utility.yul\":2901:2939   */\n      swap1\n      pop\n        /* \"#utility.yul\":2843:2945   */\n      swap2\n      swap1\n      pop\n      jump\t// out\n        /* \"#utility.yul\":2951:3328   */\n    tag_260:\n        /* \"#utility.yul\":3039:3042   */\n      0x00\n        /* \"#utility.yul\":3067:3106   */\n      tag_341\n        /* \"#utility.yul\":3100:3105   */\n      dup3\n        /* \"#utility.yul\":3067:3106   */\n      tag_256\n      jump\t// in\n    tag_341:\n        /* \"#utility.yul\":3122:3193   */\n      tag_342\n        /* \"#utility.yul\":3186:3192   */\n      dup2\n        /* \"#utility.yul\":3181:3184   */\n      dup6\n        /* \"#utility.yul\":3122:3193   */\n      tag_257\n      jump\t// in\n    tag_342:\n        /* \"#utility.yul\":3115:3193   */\n      swap4\n      pop\n        /* \"#utility.yul\":3202:3267   */\n      tag_343\n        /* \"#utility.yul\":3260:3266   */\n      dup2\n        /* \"#utility.yul\":3255:3258   */\n      dup6\n        /* \"#utility.yul\":3248:3252   */\n      0x20\n        /* \"#utility.yul\":3241:3246   */\n      dup7\n        /* \"#utility.yul\":3237:3253   */\n      add\n        /* \"#utility.yul\":3202:3267   */\n      tag_258\n      jump\t// in\n    tag_343:\n        /* \"#utility.yul\":3292:3321   */\n      tag_344\n        /* \"#utility.yul\":3314:3320   */\n      dup2\n        /* \"#utility.yul\":3292:3321   */\n      tag_259\n      jump\t// in\n    tag_344:\n        /* \"#utility.yul\":3287:3290   */\n      dup5\n        /* \"#utility.yul\":3283:3322   */\n      add\n        /* \"#utility.yul\":3276:3322   */\n      swap2\n      pop\n        /* \"#utility.yul\":3043:3328   */\n      pop\n        /* \"#utility.yul\":2951:3328   */\n      swap3\n      swap2\n      pop\n      pop\n      jump\t// out\n        /* \"#utility.yul\":3334:4180   */\n    tag_42:\n        /* \"#utility.yul\":3579:3583   */\n      0x00\n        /* \"#utility.yul\":3617:3620   */\n      0xa0\n        /* \"#utility.yul\":3606:3615   */\n      dup3\n        /* \"#utility.yul\":3602:3621   */\n      add\n        /* \"#utility.yul\":3594:3621   */\n      swap1\n      pop\n        /* \"#utility.yul\":3631:3702   */\n      tag_346\n        /* \"#utility.yul\":3699:3700   */\n      0x00\n        /* \"#utility.yul\":3688:3697   */\n      dup4\n        /* \"#utility.yul\":3684:3701   */\n      add\n        /* \"#utility.yul\":3675:3681   */\n      dup9\n        /* \"#utility.yul\":3631:3702   */\n      tag_255\n      jump\t// in\n    tag_346:\n        /* \"#utility.yul\":3712:3784   */\n      tag_347\n        /* \"#utility.yul\":3780:3782   */\n      0x20\n        /* \"#utility.yul\":3769:3778   */\n      dup4\n        /* \"#utility.yul\":3765:3783   */\n      add\n        /* \"#utility.yul\":3756:3762   */\n      dup8\n        /* \"#utility.yul\":3712:3784   */\n      tag_255\n      jump\t// in\n    tag_347:\n        /* \"#utility.yul\":3831:3840   */\n      dup2\n        /* \"#utility.yul\":3825:3829   */\n      dup2\n        /* \"#utility.yul\":3821:3841   */\n      sub\n        /* \"#utility.yul\":3816:3818   */\n      0x40\n        /* \"#utility.yul\":3805:3814   */\n      dup4\n        /* \"#utility.yul\":3801:3819   */\n      add\n        /* \"#utility.yul\":3794:3842   */\n      mstore\n        /* \"#utility.yul\":3859:3937   */\n      tag_348\n        /* \"#utility.yul\":3932:3936   */\n      dup2\n        /* \"#utility.yul\":3923:3929   */\n      dup7\n        /* \"#utility.yul\":3859:3937   */\n      tag_260\n      jump\t// in\n    tag_348:\n        /* \"#utility.yul\":3851:3937   */\n      swap1\n      pop\n        /* \"#utility.yul\":3947:4019   */\n      tag_349\n        /* \"#utility.yul\":4015:4017   */\n      0x60\n        /* \"#utility.yul\":4004:4013   */\n      dup4\n        /* \"#utility.yul\":4000:4018   */\n      add\n        /* \"#utility.yul\":3991:3997   */\n      dup6\n        /* \"#utility.yul\":3947:4019   */\n      tag_255\n      jump\t// in\n    tag_349:\n        /* \"#utility.yul\":4067:4076   */\n      dup2\n        /* \"#utility.yul\":4061:4065   */\n      dup2\n        /* \"#utility.yul\":4057:4077   */\n      sub\n        /* \"#utility.yul\":4051:4054   */\n      0x80\n        /* \"#utility.yul\":4040:4049   */\n      dup4\n        /* \"#utility.yul\":4036:4055   */\n      add\n        /* \"#utility.yul\":4029:4078   */\n      mstore\n        /* \"#utility.yul\":4095:4173   */\n      tag_350\n        /* \"#utility.yul\":4168:4172   */\n      dup2\n        /* \"#utility.yul\":4159:4165   */\n      dup5\n        /* \"#utility.yul\":4095:4173   */\n      tag_260\n      jump\t// in\n    tag_350:\n        /* \"#utility.yul\":4087:4173   */\n      swap1\n      pop\n        /* \"#utility.yul\":3334:4180   */\n      swap7\n      swap6\n      pop\n      pop\n      pop\n      pop\n      pop\n      pop\n      jump\t// out\n        /* \"#utility.yul\":4186:4805   */\n    tag_45:\n        /* \"#utility.yul\":4263:4269   */\n      0x00\n        /* \"#utility.yul\":4271:4277   */\n      dup1\n        /* \"#utility.yul\":4279:4285   */\n      0x00\n        /* \"#utility.yul\":4328:4330   */\n      0x60\n        /* \"#utility.yul\":4316:4325   */\n      dup5\n        /* \"#utility.yul\":4307:4314   */\n      dup7\n        /* \"#utility.yul\":4303:4326   */\n      sub\n        /* \"#utility.yul\":4299:4331   */\n      slt\n        /* \"#utility.yul\":4296:4415   */\n      iszero\n      tag_352\n      jumpi\n        /* \"#utility.yul\":4334:4413   */\n      tag_353\n      tag_244\n      jump\t// in\n    tag_353:\n        /* \"#utility.yul\":4296:4415   */\n    tag_352:\n        /* \"#utility.yul\":4454:4455   */\n      0x00\n        /* \"#utility.yul\":4479:4532   */\n      tag_354\n        /* \"#utility.yul\":4524:4531   */\n      dup7\n        /* \"#utility.yul\":4515:4521   */\n      dup3\n        /* \"#utility.yul\":4504:4513   */\n      dup8\n        /* \"#utility.yul\":4500:4522   */\n      add\n        /* \"#utility.yul\":4479:4532   */\n      tag_249\n      jump\t// in\n    tag_354:\n        /* \"#utility.yul\":4469:4532   */\n      swap4\n      pop\n        /* \"#utility.yul\":4425:4542   */\n      pop\n        /* \"#utility.yul\":4581:4583   */\n      0x20\n        /* \"#utility.yul\":4607:4660   */\n      tag_355\n        /* \"#utility.yul\":4652:4659   */\n      dup7\n        /* \"#utility.yul\":4643:4649   */\n      dup3\n        /* \"#utility.yul\":4632:4641   */\n      dup8\n        /* \"#utility.yul\":4628:4650   */\n      add\n        /* \"#utility.yul\":4607:4660   */\n      tag_249\n      jump\t// in\n    tag_355:\n        /* \"#utility.yul\":4597:4660   */\n      swap3\n      pop\n        /* \"#utility.yul\":4552:4670   */\n      pop\n        /* \"#utility.yul\":4709:4711   */\n      0x40\n        /* \"#utility.yul\":4735:4788   */\n      tag_356\n        /* \"#utility.yul\":4780:4787   */\n      dup7\n        /* \"#utility.yul\":4771:4777   */\n      dup3\n        /* \"#utility.yul\":4760:4769   */\n      dup8\n        /* \"#utility.yul\":4756:4778   */\n      add\n        /* \"#utility.yul\":4735:4788   */\n      tag_252\n      jump\t// in\n    tag_356:\n        /* \"#utility.yul\":4725:4788   */\n      swap2\n      pop\n        /* \"#utility.yul\":4680:4798   */\n      pop\n        /* \"#utility.yul\":4186:4805   */\n      swap3\n      pop\n      swap3\n      pop\n      swap3\n      jump\t// out\n        /* \"#utility.yul\":4811:5033   */\n    tag_53:\n        /* \"#utility.yul\":4904:4908   */\n      0x00\n        /* \"#utility.yul\":4942:4944   */\n      0x20\n        /* \"#utility.yul\":4931:4940   */\n      dup3\n        /* \"#utility.yul\":4927:4945   */\n      add\n        /* \"#utility.yul\":4919:4945   */\n      swap1\n      pop\n        /* \"#utility.yul\":4955:5026   */\n      tag_358\n        /* \"#utility.yul\":5023:5024   */\n      0x00\n        /* \"#utility.yul\":5012:5021   */\n      dup4\n        /* \"#utility.yul\":5008:5025   */\n      add\n        /* \"#utility.yul\":4999:5005   */\n      dup5\n        /* \"#utility.yul\":4955:5026   */\n      tag_255\n      jump\t// in\n    tag_358:\n        /* \"#utility.yul\":4811:5033   */\n      swap3\n      swap2\n      pop\n      pop\n      jump\t// out\n        /* \"#utility.yul\":5039:5658   */\n    tag_62:\n        /* \"#utility.yul\":5116:5122   */\n      0x00\n        /* \"#utility.yul\":5124:5130   */\n      dup1\n        /* \"#utility.yul\":5132:5138   */\n      0x00\n        /* \"#utility.yul\":5181:5183   */\n      0x60\n        /* \"#utility.yul\":5169:5178   */\n      dup5\n        /* \"#utility.yul\":5160:5167   */\n      dup7\n        /* \"#utility.yul\":5156:5179   */\n      sub\n        /* \"#utility.yul\":5152:5184   */\n      slt\n        /* \"#utility.yul\":5149:5268   */\n      iszero\n      tag_360\n      jumpi\n        /* \"#utility.yul\":5187:5266   */\n      tag_361\n      tag_244\n      jump\t// in\n    tag_361:\n        /* \"#utility.yul\":5149:5268   */\n    tag_360:\n        /* \"#utility.yul\":5307:5308   */\n      0x00\n        /* \"#utility.yul\":5332:5385   */\n      tag_362\n        /* \"#utility.yul\":5377:5384   */\n      dup7\n        /* \"#utility.yul\":5368:5374   */\n      dup3\n        /* \"#utility.yul\":5357:5366   */\n      dup8\n        /* \"#utility.yul\":5353:5375   */\n      add\n        /* \"#utility.yul\":5332:5385   */\n      tag_252\n      jump\t// in\n    tag_362:\n        /* \"#utility.yul\":5322:5385   */\n      swap4\n      pop\n        /* \"#utility.yul\":5278:5395   */\n      pop\n        /* \"#utility.yul\":5434:5436   */\n      0x20\n        /* \"#utility.yul\":5460:5513   */\n      tag_363\n        /* \"#utility.yul\":5505:5512   */\n      dup7\n        /* \"#utility.yul\":5496:5502   */\n      dup3\n        /* \"#utility.yul\":5485:5494   */\n      dup8\n        /* \"#utility.yul\":5481:5503   */\n      add\n        /* \"#utility.yul\":5460:5513   */\n      tag_252\n      jump\t// in\n    tag_363:\n        /* \"#utility.yul\":5450:5513   */\n      swap3\n      pop\n        /* \"#utility.yul\":5405:5523   */\n      pop\n        /* \"#utility.yul\":5562:5564   */\n      0x40\n        /* \"#utility.yul\":5588:5641   */\n      tag_364\n        /* \"#utility.yul\":5633:5640   */\n      dup7\n        /* \"#utility.yul\":5624:5630   */\n      dup3\n        /* \"#utility.yul\":5613:5622   */\n      dup8\n        /* \"#utility.yul\":5609:5631   */\n      add\n        /* \"#utility.yul\":5588:5641   */\n      tag_252\n      jump\t// in\n    tag_364:\n        /* \"#utility.yul\":5578:5641   */\n      swap2\n      pop\n        /* \"#utility.yul\":5533:5651   */\n      pop\n        /* \"#utility.yul\":5039:5658   */\n      swap3\n      pop\n      swap3\n      pop\n      swap3\n      jump\t// out\n        /* \"#utility.yul\":5664:5782   */\n    tag_261:\n        /* \"#utility.yul\":5751:5775   */\n      tag_366\n        /* \"#utility.yul\":5769:5774   */\n      dup2\n        /* \"#utility.yul\":5751:5775   */\n      tag_247\n      jump\t// in\n    tag_366:\n        /* \"#utility.yul\":5746:5749   */\n      dup3\n        /* \"#utility.yul\":5739:5776   */\n      mstore\n        /* \"#utility.yul\":5664:5782   */\n      pop\n      pop\n      jump\t// out\n        /* \"#utility.yul\":5788:6010   */\n    tag_68:\n        /* \"#utility.yul\":5881:5885   */\n      0x00\n        /* \"#utility.yul\":5919:5921   */\n      0x20\n        /* \"#utility.yul\":5908:5917   */\n      dup3\n        /* \"#utility.yul\":5904:5922   */\n      add\n        /* \"#utility.yul\":5896:5922   */\n      swap1\n      pop\n        /* \"#utility.yul\":5932:6003   */\n      tag_368\n        /* \"#utility.yul\":6000:6001   */\n      0x00\n        /* \"#utility.yul\":5989:5998   */\n      dup4\n        /* \"#utility.yul\":5985:6002   */\n      add\n        /* \"#utility.yul\":5976:5982   */\n      dup5\n        /* \"#utility.yul\":5932:6003   */\n      tag_261\n      jump\t// in\n    tag_368:\n        /* \"#utility.yul\":5788:6010   */\n      swap3\n      swap2\n      pop\n      pop\n      jump\t// out\n        /* \"#utility.yul\":6016:6329   */\n    tag_91:\n        /* \"#utility.yul\":6129:6133   */\n      0x00\n        /* \"#utility.yul\":6167:6169   */\n      0x20\n        /* \"#utility.yul\":6156:6165   */\n      dup3\n        /* \"#utility.yul\":6152:6170   */\n      add\n        /* \"#utility.yul\":6144:6170   */\n      swap1\n      pop\n        /* \"#utility.yul\":6216:6225   */\n      dup2\n        /* \"#utility.yul\":6210:6214   */\n      dup2\n        /* \"#utility.yul\":6206:6226   */\n      sub\n        /* \"#utility.yul\":6202:6203   */\n      0x00\n        /* \"#utility.yul\":6191:6200   */\n      dup4\n        /* \"#utility.yul\":6187:6204   */\n      add\n        /* \"#utility.yul\":6180:6227   */\n      mstore\n        /* \"#utility.yul\":6244:6322   */\n      tag_370\n        /* \"#utility.yul\":6317:6321   */\n      dup2\n        /* \"#utility.yul\":6308:6314   */\n      dup5\n        /* \"#utility.yul\":6244:6322   */\n      tag_260\n      jump\t// in\n    tag_370:\n        /* \"#utility.yul\":6236:6322   */\n      swap1\n      pop\n        /* \"#utility.yul\":6016:6329   */\n      swap3\n      swap2\n      pop\n      pop\n      jump\t// out\n        /* \"#utility.yul\":6335:6515   */\n    tag_262:\n        /* \"#utility.yul\":6383:6460   */\n      0x4e487b7100000000000000000000000000000000000000000000000000000000\n        /* \"#utility.yul\":6380:6381   */\n      0x00\n        /* \"#utility.yul\":6373:6461   */\n      mstore\n        /* \"#utility.yul\":6480:6484   */\n      0x11\n        /* \"#utility.yul\":6477:6478   */\n      0x04\n        /* \"#utility.yul\":6470:6485   */\n      mstore\n        /* \"#utility.yul\":6504:6508   */\n      0x24\n        /* \"#utility.yul\":6501:6502   */\n      0x00\n        /* \"#utility.yul\":6494:6509   */\n      revert\n        /* \"#utility.yul\":6521:6715   */\n    tag_109:\n        /* \"#utility.yul\":6561:6565   */\n      0x00\n        /* \"#utility.yul\":6581:6601   */\n      tag_373\n        /* \"#utility.yul\":6599:6600   */\n      dup3\n        /* \"#utility.yul\":6581:6601   */\n      tag_250\n      jump\t// in\n    tag_373:\n        /* \"#utility.yul\":6576:6601   */\n      swap2\n      pop\n        /* \"#utility.yul\":6615:6635   */\n      tag_374\n        /* \"#utility.yul\":6633:6634   */\n      dup4\n        /* \"#utility.yul\":6615:6635   */\n      tag_250\n      jump\t// in\n    tag_374:\n        /* \"#utility.yul\":6610:6635   */\n      swap3\n      pop\n        /* \"#utility.yul\":6659:6660   */\n      dup3\n        /* \"#utility.yul\":6656:6657   */\n      dup3\n        /* \"#utility.yul\":6652:6661   */\n      sub\n        /* \"#utility.yul\":6644:6661   */\n      swap1\n      pop\n        /* \"#utility.yul\":6683:6684   */\n      dup2\n        /* \"#utility.yul\":6677:6681   */\n      dup2\n        /* \"#utility.yul\":6674:6685   */\n      gt\n        /* \"#utility.yul\":6671:6708   */\n      iszero\n      tag_375\n      jumpi\n        /* \"#utility.yul\":6688:6706   */\n      tag_376\n      tag_262\n      jump\t// in\n    tag_376:\n        /* \"#utility.yul\":6671:6708   */\n    tag_375:\n        /* \"#utility.yul\":6521:6715   */\n      swap3\n      swap2\n      pop\n      pop\n      jump\t// out\n        /* \"#utility.yul\":6721:6970   */\n    tag_263:\n        /* \"#utility.yul\":6861:6895   */\n      0x4e6f7420656e6f75676820706f696e74732e2054686520636f6e747261637420\n        /* \"#utility.yul\":6857:6858   */\n      0x00\n        /* \"#utility.yul\":6849:6855   */\n      dup3\n        /* \"#utility.yul\":6845:6859   */\n      add\n        /* \"#utility.yul\":6838:6896   */\n      mstore\n        /* \"#utility.yul\":6930:6962   */\n      0x6d75737420626520636861726765642077697468206d6f7265205054524e0000\n        /* \"#utility.yul\":6925:6927   */\n      0x20\n        /* \"#utility.yul\":6917:6923   */\n      dup3\n        /* \"#utility.yul\":6913:6928   */\n      add\n        /* \"#utility.yul\":6906:6963   */\n      mstore\n        /* \"#utility.yul\":6721:6970   */\n      pop\n      jump\t// out\n        /* \"#utility.yul\":6976:7342   */\n    tag_264:\n        /* \"#utility.yul\":7118:7121   */\n      0x00\n        /* \"#utility.yul\":7139:7206   */\n      tag_379\n        /* \"#utility.yul\":7203:7205   */\n      0x3e\n        /* \"#utility.yul\":7198:7201   */\n      dup4\n        /* \"#utility.yul\":7139:7206   */\n      tag_257\n      jump\t// in\n    tag_379:\n        /* \"#utility.yul\":7132:7206   */\n      swap2\n      pop\n        /* \"#utility.yul\":7215:7308   */\n      tag_380\n        /* \"#utility.yul\":7304:7307   */\n      dup3\n        /* \"#utility.yul\":7215:7308   */\n      tag_263\n      jump\t// in\n    tag_380:\n        /* \"#utility.yul\":7333:7335   */\n      0x40\n        /* \"#utility.yul\":7328:7331   */\n      dup3\n        /* \"#utility.yul\":7324:7336   */\n      add\n        /* \"#utility.yul\":7317:7336   */\n      swap1\n      pop\n        /* \"#utility.yul\":6976:7342   */\n      swap2\n      swap1\n      pop\n      jump\t// out\n        /* \"#utility.yul\":7348:7767   */\n    tag_112:\n        /* \"#utility.yul\":7514:7518   */\n      0x00\n        /* \"#utility.yul\":7552:7554   */\n      0x20\n        /* \"#utility.yul\":7541:7550   */\n      dup3\n        /* \"#utility.yul\":7537:7555   */\n      add\n        /* \"#utility.yul\":7529:7555   */\n      swap1\n      pop\n        /* \"#utility.yul\":7601:7610   */\n      dup2\n        /* \"#utility.yul\":7595:7599   */\n      dup2\n        /* \"#utility.yul\":7591:7611   */\n      sub\n        /* \"#utility.yul\":7587:7588   */\n      0x00\n        /* \"#utility.yul\":7576:7585   */\n      dup4\n        /* \"#utility.yul\":7572:7589   */\n      add\n        /* \"#utility.yul\":7565:7612   */\n      mstore\n        /* \"#utility.yul\":7629:7760   */\n      tag_382\n        /* \"#utility.yul\":7755:7759   */\n      dup2\n        /* \"#utility.yul\":7629:7760   */\n      tag_264\n      jump\t// in\n    tag_382:\n        /* \"#utility.yul\":7621:7760   */\n      swap1\n      pop\n        /* \"#utility.yul\":7348:7767   */\n      swap2\n      swap1\n      pop\n      jump\t// out\n        /* \"#utility.yul\":7773:7964   */\n    tag_114:\n        /* \"#utility.yul\":7813:7816   */\n      0x00\n        /* \"#utility.yul\":7832:7852   */\n      tag_384\n        /* \"#utility.yul\":7850:7851   */\n      dup3\n        /* \"#utility.yul\":7832:7852   */\n      tag_250\n      jump\t// in\n    tag_384:\n        /* \"#utility.yul\":7827:7852   */\n      swap2\n      pop\n        /* \"#utility.yul\":7866:7886   */\n      tag_385\n        /* \"#utility.yul\":7884:7885   */\n      dup4\n        /* \"#utility.yul\":7866:7886   */\n      tag_250\n      jump\t// in\n    tag_385:\n        /* \"#utility.yul\":7861:7886   */\n      swap3\n      pop\n        /* \"#utility.yul\":7909:7910   */\n      dup3\n        /* \"#utility.yul\":7906:7907   */\n      dup3\n        /* \"#utility.yul\":7902:7911   */\n      add\n        /* \"#utility.yul\":7895:7911   */\n      swap1\n      pop\n        /* \"#utility.yul\":7930:7933   */\n      dup1\n        /* \"#utility.yul\":7927:7928   */\n      dup3\n        /* \"#utility.yul\":7924:7934   */\n      gt\n        /* \"#utility.yul\":7921:7957   */\n      iszero\n      tag_386\n      jumpi\n        /* \"#utility.yul\":7937:7955   */\n      tag_387\n      tag_262\n      jump\t// in\n    tag_387:\n        /* \"#utility.yul\":7921:7957   */\n    tag_386:\n        /* \"#utility.yul\":7773:7964   */\n      swap3\n      swap2\n      pop\n      pop\n      jump\t// out\n        /* \"#utility.yul\":7970:8150   */\n    tag_265:\n        /* \"#utility.yul\":8018:8095   */\n      0x4e487b7100000000000000000000000000000000000000000000000000000000\n        /* \"#utility.yul\":8015:8016   */\n      0x00\n        /* \"#utility.yul\":8008:8096   */\n      mstore\n        /* \"#utility.yul\":8115:8119   */\n      0x22\n        /* \"#utility.yul\":8112:8113   */\n      0x04\n        /* \"#utility.yul\":8105:8120   */\n      mstore\n        /* \"#utility.yul\":8139:8143   */\n      0x24\n        /* \"#utility.yul\":8136:8137   */\n      0x00\n        /* \"#utility.yul\":8129:8144   */\n      revert\n        /* \"#utility.yul\":8156:8476   */\n    tag_118:\n        /* \"#utility.yul\":8200:8206   */\n      0x00\n        /* \"#utility.yul\":8237:8238   */\n      0x02\n        /* \"#utility.yul\":8231:8235   */\n      dup3\n        /* \"#utility.yul\":8227:8239   */\n      div\n        /* \"#utility.yul\":8217:8239   */\n      swap1\n      pop\n        /* \"#utility.yul\":8284:8285   */\n      0x01\n        /* \"#utility.yul\":8278:8282   */\n      dup3\n        /* \"#utility.yul\":8274:8286   */\n      and\n        /* \"#utility.yul\":8305:8323   */\n      dup1\n        /* \"#utility.yul\":8295:8376   */\n      tag_390\n      jumpi\n        /* \"#utility.yul\":8361:8365   */\n      0x7f\n        /* \"#utility.yul\":8353:8359   */\n      dup3\n        /* \"#utility.yul\":8349:8366   */\n      and\n        /* \"#utility.yul\":8339:8366   */\n      swap2\n      pop\n        /* \"#utility.yul\":8295:8376   */\n    tag_390:\n        /* \"#utility.yul\":8423:8425   */\n      0x20\n        /* \"#utility.yul\":8415:8421   */\n      dup3\n        /* \"#utility.yul\":8412:8426   */\n      lt\n        /* \"#utility.yul\":8392:8410   */\n      dup2\n        /* \"#utility.yul\":8389:8427   */\n      sub\n        /* \"#utility.yul\":8386:8470   */\n      tag_391\n      jumpi\n        /* \"#utility.yul\":8442:8460   */\n      tag_392\n      tag_265\n      jump\t// in\n    tag_392:\n        /* \"#utility.yul\":8386:8470   */\n    tag_391:\n        /* \"#utility.yul\":8207:8476   */\n      pop\n        /* \"#utility.yul\":8156:8476   */\n      swap2\n      swap1\n      pop\n      jump\t// out\n        /* \"#utility.yul\":8482:8651   */\n    tag_266:\n        /* \"#utility.yul\":8622:8643   */\n      0x4e6f7420656e6f7567682062616c616e63652100000000000000000000000000\n        /* \"#utility.yul\":8618:8619   */\n      0x00\n        /* \"#utility.yul\":8610:8616   */\n      dup3\n        /* \"#utility.yul\":8606:8620   */\n      add\n        /* \"#utility.yul\":8599:8644   */\n      mstore\n        /* \"#utility.yul\":8482:8651   */\n      pop\n      jump\t// out\n        /* \"#utility.yul\":8657:9023   */\n    tag_267:\n        /* \"#utility.yul\":8799:8802   */\n      0x00\n        /* \"#utility.yul\":8820:8887   */\n      tag_395\n        /* \"#utility.yul\":8884:8886   */\n      0x13\n        /* \"#utility.yul\":8879:8882   */\n      dup4\n        /* \"#utility.yul\":8820:8887   */\n      tag_257\n      jump\t// in\n    tag_395:\n        /* \"#utility.yul\":8813:8887   */\n      swap2\n      pop\n        /* \"#utility.yul\":8896:8989   */\n      tag_396\n        /* \"#utility.yul\":8985:8988   */\n      dup3\n        /* \"#utility.yul\":8896:8989   */\n      tag_266\n      jump\t// in\n    tag_396:\n        /* \"#utility.yul\":9014:9016   */\n      0x20\n        /* \"#utility.yul\":9009:9012   */\n      dup3\n        /* \"#utility.yul\":9005:9017   */\n      add\n        /* \"#utility.yul\":8998:9017   */\n      swap1\n      pop\n        /* \"#utility.yul\":8657:9023   */\n      swap2\n      swap1\n      pop\n      jump\t// out\n        /* \"#utility.yul\":9029:9448   */\n    tag_134:\n        /* \"#utility.yul\":9195:9199   */\n      0x00\n        /* \"#utility.yul\":9233:9235   */\n      0x20\n        /* \"#utility.yul\":9222:9231   */\n      dup3\n        /* \"#utility.yul\":9218:9236   */\n      add\n        /* \"#utility.yul\":9210:9236   */\n      swap1\n      pop\n        /* \"#utility.yul\":9282:9291   */\n      dup2\n        /* \"#utility.yul\":9276:9280   */\n      dup2\n        /* \"#utility.yul\":9272:9292   */\n      sub\n        /* \"#utility.yul\":9268:9269   */\n      0x00\n        /* \"#utility.yul\":9257:9266   */\n      dup4\n        /* \"#utility.yul\":9253:9270   */\n      add\n        /* \"#utility.yul\":9246:9293   */\n      mstore\n        /* \"#utility.yul\":9310:9441   */\n      tag_398\n        /* \"#utility.yul\":9436:9440   */\n      dup2\n        /* \"#utility.yul\":9310:9441   */\n      tag_267\n      jump\t// in\n    tag_398:\n        /* \"#utility.yul\":9302:9441   */\n      swap1\n      pop\n        /* \"#utility.yul\":9029:9448   */\n      swap2\n      swap1\n      pop\n      jump\t// out\n        /* \"#utility.yul\":9454:9786   */\n    tag_136:\n        /* \"#utility.yul\":9575:9579   */\n      0x00\n        /* \"#utility.yul\":9613:9615   */\n      0x40\n        /* \"#utility.yul\":9602:9611   */\n      dup3\n        /* \"#utility.yul\":9598:9616   */\n      add\n        /* \"#utility.yul\":9590:9616   */\n      swap1\n      pop\n        /* \"#utility.yul\":9626:9697   */\n      tag_400\n        /* \"#utility.yul\":9694:9695   */\n      0x00\n        /* \"#utility.yul\":9683:9692   */\n      dup4\n        /* \"#utility.yul\":9679:9696   */\n      add\n        /* \"#utility.yul\":9670:9676   */\n      dup6\n        /* \"#utility.yul\":9626:9697   */\n      tag_261\n      jump\t// in\n    tag_400:\n        /* \"#utility.yul\":9707:9779   */\n      tag_401\n        /* \"#utility.yul\":9775:9777   */\n      0x20\n        /* \"#utility.yul\":9764:9773   */\n      dup4\n        /* \"#utility.yul\":9760:9778   */\n      add\n        /* \"#utility.yul\":9751:9757   */\n      dup5\n        /* \"#utility.yul\":9707:9779   */\n      tag_255\n      jump\t// in\n    tag_401:\n        /* \"#utility.yul\":9454:9786   */\n      swap4\n      swap3\n      pop\n      pop\n      pop\n      jump\t// out\n        /* \"#utility.yul\":9792:9908   */\n    tag_268:\n        /* \"#utility.yul\":9862:9883   */\n      tag_403\n        /* \"#utility.yul\":9877:9882   */\n      dup2\n        /* \"#utility.yul\":9862:9883   */\n      tag_253\n      jump\t// in\n    tag_403:\n        /* \"#utility.yul\":9855:9860   */\n      dup2\n        /* \"#utility.yul\":9852:9884   */\n      eq\n        /* \"#utility.yul\":9842:9902   */\n      tag_404\n      jumpi\n        /* \"#utility.yul\":9898:9899   */\n      0x00\n        /* \"#utility.yul\":9895:9896   */\n      dup1\n        /* \"#utility.yul\":9888:9900   */\n      revert\n        /* \"#utility.yul\":9842:9902   */\n    tag_404:\n        /* \"#utility.yul\":9792:9908   */\n      pop\n      jump\t// out\n        /* \"#utility.yul\":9914:10051   */\n    tag_269:\n        /* \"#utility.yul\":9968:9973   */\n      0x00\n        /* \"#utility.yul\":9999:10005   */\n      dup2\n        /* \"#utility.yul\":9993:10006   */\n      mload\n        /* \"#utility.yul\":9984:10006   */\n      swap1\n      pop\n        /* \"#utility.yul\":10015:10045   */\n      tag_406\n        /* \"#utility.yul\":10039:10044   */\n      dup2\n        /* \"#utility.yul\":10015:10045   */\n      tag_268\n      jump\t// in\n    tag_406:\n        /* \"#utility.yul\":9914:10051   */\n      swap3\n      swap2\n      pop\n      pop\n      jump\t// out\n        /* \"#utility.yul\":10057:10402   */\n    tag_140:\n        /* \"#utility.yul\":10124:10130   */\n      0x00\n        /* \"#utility.yul\":10173:10175   */\n      0x20\n        /* \"#utility.yul\":10161:10170   */\n      dup3\n        /* \"#utility.yul\":10152:10159   */\n      dup5\n        /* \"#utility.yul\":10148:10171   */\n      sub\n        /* \"#utility.yul\":10144:10176   */\n      slt\n        /* \"#utility.yul\":10141:10260   */\n      iszero\n      tag_408\n      jumpi\n        /* \"#utility.yul\":10179:10258   */\n      tag_409\n      tag_244\n      jump\t// in\n    tag_409:\n        /* \"#utility.yul\":10141:10260   */\n    tag_408:\n        /* \"#utility.yul\":10299:10300   */\n      0x00\n        /* \"#utility.yul\":10324:10385   */\n      tag_410\n        /* \"#utility.yul\":10377:10384   */\n      dup5\n        /* \"#utility.yul\":10368:10374   */\n      dup3\n        /* \"#utility.yul\":10357:10366   */\n      dup6\n        /* \"#utility.yul\":10353:10375   */\n      add\n        /* \"#utility.yul\":10324:10385   */\n      tag_269\n      jump\t// in\n    tag_410:\n        /* \"#utility.yul\":10314:10385   */\n      swap2\n      pop\n        /* \"#utility.yul\":10270:10395   */\n      pop\n        /* \"#utility.yul\":10057:10402   */\n      swap3\n      swap2\n      pop\n      pop\n      jump\t// out\n        /* \"#utility.yul\":10408:10551   */\n    tag_270:\n        /* \"#utility.yul\":10465:10470   */\n      0x00\n        /* \"#utility.yul\":10496:10502   */\n      dup2\n        /* \"#utility.yul\":10490:10503   */\n      mload\n        /* \"#utility.yul\":10481:10503   */\n      swap1\n      pop\n        /* \"#utility.yul\":10512:10545   */\n      tag_412\n        /* \"#utility.yul\":10539:10544   */\n      dup2\n        /* \"#utility.yul\":10512:10545   */\n      tag_251\n      jump\t// in\n    tag_412:\n        /* \"#utility.yul\":10408:10551   */\n      swap3\n      swap2\n      pop\n      pop\n      jump\t// out\n        /* \"#utility.yul\":10557:10908   */\n    tag_151:\n        /* \"#utility.yul\":10627:10633   */\n      0x00\n        /* \"#utility.yul\":10676:10678   */\n      0x20\n        /* \"#utility.yul\":10664:10673   */\n      dup3\n        /* \"#utility.yul\":10655:10662   */\n      dup5\n        /* \"#utility.yul\":10651:10674   */\n      sub\n        /* \"#utility.yul\":10647:10679   */\n      slt\n        /* \"#utility.yul\":10644:10763   */\n      iszero\n      tag_414\n      jumpi\n        /* \"#utility.yul\":10682:10761   */\n      tag_415\n      tag_244\n      jump\t// in\n    tag_415:\n        /* \"#utility.yul\":10644:10763   */\n    tag_414:\n        /* \"#utility.yul\":10802:10803   */\n      0x00\n        /* \"#utility.yul\":10827:10891   */\n      tag_416\n        /* \"#utility.yul\":10883:10890   */\n      dup5\n        /* \"#utility.yul\":10874:10880   */\n      dup3\n        /* \"#utility.yul\":10863:10872   */\n      dup6\n        /* \"#utility.yul\":10859:10881   */\n      add\n        /* \"#utility.yul\":10827:10891   */\n      tag_270\n      jump\t// in\n    tag_416:\n        /* \"#utility.yul\":10817:10891   */\n      swap2\n      pop\n        /* \"#utility.yul\":10773:10901   */\n      pop\n        /* \"#utility.yul\":10557:10908   */\n      swap3\n      swap2\n      pop\n      pop\n      jump\t// out\n        /* \"#utility.yul\":10914:11094   */\n    tag_271:\n        /* \"#utility.yul\":10962:11039   */\n      0x4e487b7100000000000000000000000000000000000000000000000000000000\n        /* \"#utility.yul\":10959:10960   */\n      0x00\n        /* \"#utility.yul\":10952:11040   */\n      mstore\n        /* \"#utility.yul\":11059:11063   */\n      0x41\n        /* \"#utility.yul\":11056:11057   */\n      0x04\n        /* \"#utility.yul\":11049:11064   */\n      mstore\n        /* \"#utility.yul\":11083:11087   */\n      0x24\n        /* \"#utility.yul\":11080:11081   */\n      0x00\n        /* \"#utility.yul\":11073:11088   */\n      revert\n        /* \"#utility.yul\":11100:11241   */\n    tag_272:\n        /* \"#utility.yul\":11149:11153   */\n      0x00\n        /* \"#utility.yul\":11172:11175   */\n      dup2\n        /* \"#utility.yul\":11164:11175   */\n      swap1\n      pop\n        /* \"#utility.yul\":11195:11198   */\n      dup2\n        /* \"#utility.yul\":11192:11193   */\n      0x00\n        /* \"#utility.yul\":11185:11199   */\n      mstore\n        /* \"#utility.yul\":11229:11233   */\n      0x20\n        /* \"#utility.yul\":11226:11227   */\n      0x00\n        /* \"#utility.yul\":11216:11234   */\n      keccak256\n        /* \"#utility.yul\":11208:11234   */\n      swap1\n      pop\n        /* \"#utility.yul\":11100:11241   */\n      swap2\n      swap1\n      pop\n      jump\t// out\n        /* \"#utility.yul\":11247:11340   */\n    tag_273:\n        /* \"#utility.yul\":11284:11290   */\n      0x00\n        /* \"#utility.yul\":11331:11333   */\n      0x20\n        /* \"#utility.yul\":11326:11328   */\n      0x1f\n        /* \"#utility.yul\":11319:11324   */\n      dup4\n        /* \"#utility.yul\":11315:11329   */\n      add\n        /* \"#utility.yul\":11311:11334   */\n      div\n        /* \"#utility.yul\":11301:11334   */\n      swap1\n      pop\n        /* \"#utility.yul\":11247:11340   */\n      swap2\n      swap1\n      pop\n      jump\t// out\n        /* \"#utility.yul\":11346:11453   */\n    tag_274:\n        /* \"#utility.yul\":11390:11398   */\n      0x00\n        /* \"#utility.yul\":11440:11445   */\n      dup3\n        /* \"#utility.yul\":11434:11438   */\n      dup3\n        /* \"#utility.yul\":11430:11446   */\n      shl\n        /* \"#utility.yul\":11409:11446   */\n      swap1\n      pop\n        /* \"#utility.yul\":11346:11453   */\n      swap3\n      swap2\n      pop\n      pop\n      jump\t// out\n        /* \"#utility.yul\":11459:11852   */\n    tag_275:\n        /* \"#utility.yul\":11528:11534   */\n      0x00\n        /* \"#utility.yul\":11578:11579   */\n      0x08\n        /* \"#utility.yul\":11566:11576   */\n      dup4\n        /* \"#utility.yul\":11562:11580   */\n      mul\n        /* \"#utility.yul\":11601:11698   */\n      tag_422\n        /* \"#utility.yul\":11631:11697   */\n      0xffffffffffffffffffffffffffffffffffffffffffffffffffffffffffffffff\n        /* \"#utility.yul\":11620:11629   */\n      dup3\n        /* \"#utility.yul\":11601:11698   */\n      tag_274\n      jump\t// in\n    tag_422:\n        /* \"#utility.yul\":11719:11758   */\n      tag_423\n        /* \"#utility.yul\":11749:11757   */\n      dup7\n        /* \"#utility.yul\":11738:11747   */\n      dup4\n        /* \"#utility.yul\":11719:11758   */\n      tag_274\n      jump\t// in\n    tag_423:\n        /* \"#utility.yul\":11707:11758   */\n      swap6\n      pop\n        /* \"#utility.yul\":11791:11795   */\n      dup1\n        /* \"#utility.yul\":11787:11796   */\n      not\n        /* \"#utility.yul\":11780:11785   */\n      dup5\n        /* \"#utility.yul\":11776:11797   */\n      and\n        /* \"#utility.yul\":11767:11797   */\n      swap4\n      pop\n        /* \"#utility.yul\":11840:11844   */\n      dup1\n        /* \"#utility.yul\":11830:11838   */\n      dup7\n        /* \"#utility.yul\":11826:11845   */\n      and\n        /* \"#utility.yul\":11819:11824   */\n      dup5\n        /* \"#utility.yul\":11816:11846   */\n      or\n        /* \"#utility.yul\":11806:11846   */\n      swap3\n      pop\n        /* \"#utility.yul\":11535:11852   */\n      pop\n      pop\n        /* \"#utility.yul\":11459:11852   */\n      swap4\n      swap3\n      pop\n      pop\n      pop\n      jump\t// out\n        /* \"#utility.yul\":11858:11918   */\n    tag_276:\n        /* \"#utility.yul\":11886:11889   */\n      0x00\n        /* \"#utility.yul\":11907:11912   */\n      dup2\n        /* \"#utility.yul\":11900:11912   */\n      swap1\n      pop\n        /* \"#utility.yul\":11858:11918   */\n      swap2\n      swap1\n      pop\n      jump\t// out\n        /* \"#utility.yul\":11924:12066   */\n    tag_277:\n        /* \"#utility.yul\":11974:11983   */\n      0x00\n        /* \"#utility.yul\":12007:12060   */\n      tag_426\n        /* \"#utility.yul\":12025:12059   */\n      tag_427\n        /* \"#utility.yul\":12034:12058   */\n      tag_428\n        /* \"#utility.yul\":12052:12057   */\n      dup5\n        /* \"#utility.yul\":12034:12058   */\n      tag_250\n      jump\t// in\n    tag_428:\n        /* \"#utility.yul\":12025:12059   */\n      tag_276\n      jump\t// in\n    tag_427:\n        /* \"#utility.yul\":12007:12060   */\n      tag_250\n      jump\t// in\n    tag_426:\n        /* \"#utility.yul\":11994:12060   */\n      swap1\n      pop\n        /* \"#utility.yul\":11924:12066   */\n      swap2\n      swap1\n      pop\n      jump\t// out\n        /* \"#utility.yul\":12072:12147   */\n    tag_278:\n        /* \"#utility.yul\":12115:12118   */\n      0x00\n        /* \"#utility.yul\":12136:12141   */\n      dup2\n        /* \"#utility.yul\":12129:12141   */\n      swap1\n      pop\n        /* \"#utility.yul\":12072:12147   */\n      swap2\n      swap1\n      pop\n      jump\t// out\n        /* \"#utility.yul\":12153:12422   */\n    tag_279:\n        /* \"#utility.yul\":12263:12302   */\n      tag_431\n        /* \"#utility.yul\":12294:12301   */\n      dup4\n        /* \"#utility.yul\":12263:12302   */\n      tag_277\n      jump\t// in\n    tag_431:\n        /* \"#utility.yul\":12324:12415   */\n      tag_432\n        /* \"#utility.yul\":12373:12414   */\n      tag_433\n        /* \"#utility.yul\":12397:12413   */\n      dup3\n        /* \"#utility.yul\":12373:12414   */\n      tag_278\n      jump\t// in\n    tag_433:\n        /* \"#utility.yul\":12365:12371   */\n      dup5\n        /* \"#utility.yul\":12358:12362   */\n      dup5\n        /* \"#utility.yul\":12352:12363   */\n      sload\n        /* \"#utility.yul\":12324:12415   */\n      tag_275\n      jump\t// in\n    tag_432:\n        /* \"#utility.yul\":12318:12322   */\n      dup3\n        /* \"#utility.yul\":12311:12416   */\n      sstore\n        /* \"#utility.yul\":12229:12422   */\n      pop\n        /* \"#utility.yul\":12153:12422   */\n      pop\n      pop\n      pop\n      jump\t// out\n        /* \"#utility.yul\":12428:12501   */\n    tag_280:\n        /* \"#utility.yul\":12473:12476   */\n      0x00\n        /* \"#utility.yul\":12428:12501   */\n      swap1\n      jump\t// out\n        /* \"#utility.yul\":12507:12696   */\n    tag_281:\n        /* \"#utility.yul\":12584:12616   */\n      tag_436\n      tag_280\n      jump\t// in\n    tag_436:\n        /* \"#utility.yul\":12625:12690   */\n      tag_437\n        /* \"#utility.yul\":12683:12689   */\n      dup2\n        /* \"#utility.yul\":12675:12681   */\n      dup5\n        /* \"#utility.yul\":12669:12673   */\n      dup5\n        /* \"#utility.yul\":12625:12690   */\n      tag_279\n      jump\t// in\n    tag_437:\n        /* \"#utility.yul\":12560:12696   */\n      pop\n        /* \"#utility.yul\":12507:12696   */\n      pop\n      pop\n      jump\t// out\n        /* \"#utility.yul\":12702:12888   */\n    tag_282:\n        /* \"#utility.yul\":12762:12882   */\n    tag_439:\n        /* \"#utility.yul\":12779:12782   */\n      dup2\n        /* \"#utility.yul\":12772:12777   */\n      dup2\n        /* \"#utility.yul\":12769:12783   */\n      lt\n        /* \"#utility.yul\":12762:12882   */\n      iszero\n      tag_441\n      jumpi\n        /* \"#utility.yul\":12833:12872   */\n      tag_442\n        /* \"#utility.yul\":12870:12871   */\n      0x00\n        /* \"#utility.yul\":12863:12868   */\n      dup3\n        /* \"#utility.yul\":12833:12872   */\n      tag_281\n      jump\t// in\n    tag_442:\n        /* \"#utility.yul\":12806:12807   */\n      0x01\n        /* \"#utility.yul\":12799:12804   */\n      dup2\n        /* \"#utility.yul\":12795:12808   */\n      add\n        /* \"#utility.yul\":12786:12808   */\n      swap1\n      pop\n        /* \"#utility.yul\":12762:12882   */\n      jump(tag_439)\n    tag_441:\n        /* \"#utility.yul\":12702:12888   */\n      pop\n      pop\n      jump\t// out\n        /* \"#utility.yul\":12894:13437   */\n    tag_283:\n        /* \"#utility.yul\":12995:12997   */\n      0x1f\n        /* \"#utility.yul\":12990:12993   */\n      dup3\n        /* \"#utility.yul\":12987:12998   */\n      gt\n        /* \"#utility.yul\":12984:13430   */\n      iszero\n      tag_444\n      jumpi\n        /* \"#utility.yul\":13029:13067   */\n      tag_445\n        /* \"#utility.yul\":13061:13066   */\n      dup2\n        /* \"#utility.yul\":13029:13067   */\n      tag_272\n      jump\t// in\n    tag_445:\n        /* \"#utility.yul\":13113:13142   */\n      tag_446\n        /* \"#utility.yul\":13131:13141   */\n      dup5\n        /* \"#utility.yul\":13113:13142   */\n      tag_273\n      jump\t// in\n    tag_446:\n        /* \"#utility.yul\":13103:13111   */\n      dup2\n        /* \"#utility.yul\":13099:13143   */\n      add\n        /* \"#utility.yul\":13296:13298   */\n      0x20\n        /* \"#utility.yul\":13284:13294   */\n      dup6\n        /* \"#utility.yul\":13281:13299   */\n      lt\n        /* \"#utility.yul\":13278:13327   */\n      iszero\n      tag_447\n      jumpi\n        /* \"#utility.yul\":13317:13325   */\n      dup2\n        /* \"#utility.yul\":13302:13325   */\n      swap1\n      pop\n        /* \"#utility.yul\":13278:13327   */\n    tag_447:\n        /* \"#utility.yul\":13340:13420   */\n      tag_448\n        /* \"#utility.yul\":13396:13418   */\n      tag_449\n        /* \"#utility.yul\":13414:13417   */\n      dup6\n        /* \"#utility.yul\":13396:13418   */\n      tag_273\n      jump\t// in\n    tag_449:\n        /* \"#utility.yul\":13386:13394   */\n      dup4\n        /* \"#utility.yul\":13382:13419   */\n      add\n        /* \"#utility.yul\":13369:13380   */\n      dup3\n        /* \"#utility.yul\":13340:13420   */\n      tag_282\n      jump\t// in\n    tag_448:\n        /* \"#utility.yul\":12999:13430   */\n      pop\n      pop\n        /* \"#utility.yul\":12984:13430   */\n    tag_444:\n        /* \"#utility.yul\":12894:13437   */\n      pop\n      pop\n      pop\n      jump\t// out\n        /* \"#utility.yul\":13443:13560   */\n    tag_284:\n        /* \"#utility.yul\":13497:13505   */\n      0x00\n        /* \"#utility.yul\":13547:13552   */\n      dup3\n        /* \"#utility.yul\":13541:13545   */\n      dup3\n        /* \"#utility.yul\":13537:13553   */\n      shr\n        /* \"#utility.yul\":13516:13553   */\n      swap1\n      pop\n        /* \"#utility.yul\":13443:13560   */\n      swap3\n      swap2\n      pop\n      pop\n      jump\t// out\n        /* \"#utility.yul\":13566:13735   */\n    tag_285:\n        /* \"#utility.yul\":13610:13616   */\n      0x00\n        /* \"#utility.yul\":13643:13694   */\n      tag_452\n        /* \"#utility.yul\":13691:13692   */\n      0x00\n        /* \"#utility.yul\":13687:13693   */\n      not\n        /* \"#utility.yul\":13679:13684   */\n      dup5\n        /* \"#utility.yul\":13676:13677   */\n      0x08\n        /* \"#utility.yul\":13672:13685   */\n      mul\n        /* \"#utility.yul\":13643:13694   */\n      tag_284\n      jump\t// in\n    tag_452:\n        /* \"#utility.yul\":13639:13695   */\n      not\n        /* \"#utility.yul\":13724:13728   */\n      dup1\n        /* \"#utility.yul\":13718:13722   */\n      dup4\n        /* \"#utility.yul\":13714:13729   */\n      and\n        /* \"#utility.yul\":13704:13729   */\n      swap2\n      pop\n        /* \"#utility.yul\":13617:13735   */\n      pop\n        /* \"#utility.yul\":13566:13735   */\n      swap3\n      swap2\n      pop\n      pop\n      jump\t// out\n        /* \"#utility.yul\":13740:14035   */\n    tag_286:\n        /* \"#utility.yul\":13816:13820   */\n      0x00\n        /* \"#utility.yul\":13962:13991   */\n      tag_454\n        /* \"#utility.yul\":13987:13990   */\n      dup4\n        /* \"#utility.yul\":13981:13985   */\n      dup4\n        /* \"#utility.yul\":13962:13991   */\n      tag_285\n      jump\t// in\n    tag_454:\n        /* \"#utility.yul\":13954:13991   */\n      swap2\n      pop\n        /* \"#utility.yul\":14024:14027   */\n      dup3\n        /* \"#utility.yul\":14021:14022   */\n      0x02\n        /* \"#utility.yul\":14017:14028   */\n      mul\n        /* \"#utility.yul\":14011:14015   */\n      dup3\n        /* \"#utility.yul\":14008:14029   */\n      or\n        /* \"#utility.yul\":14000:14029   */\n      swap1\n      pop\n        /* \"#utility.yul\":13740:14035   */\n      swap3\n      swap2\n      pop\n      pop\n      jump\t// out\n        /* \"#utility.yul\":14040:15435   */\n    tag_154:\n        /* \"#utility.yul\":14157:14194   */\n      tag_456\n        /* \"#utility.yul\":14190:14193   */\n      dup3\n        /* \"#utility.yul\":14157:14194   */\n      tag_256\n      jump\t// in\n    tag_456:\n        /* \"#utility.yul\":14259:14277   */\n      0xffffffffffffffff\n        /* \"#utility.yul\":14251:14257   */\n      dup2\n        /* \"#utility.yul\":14248:14278   */\n      gt\n        /* \"#utility.yul\":14245:14301   */\n      iszero\n      tag_457\n      jumpi\n        /* \"#utility.yul\":14281:14299   */\n      tag_458\n      tag_271\n      jump\t// in\n    tag_458:\n        /* \"#utility.yul\":14245:14301   */\n    tag_457:\n        /* \"#utility.yul\":14325:14363   */\n      tag_459\n        /* \"#utility.yul\":14357:14361   */\n      dup3\n        /* \"#utility.yul\":14351:14362   */\n      sload\n        /* \"#utility.yul\":14325:14363   */\n      tag_118\n      jump\t// in\n    tag_459:\n        /* \"#utility.yul\":14410:14477   */\n      tag_460\n        /* \"#utility.yul\":14470:14476   */\n      dup3\n        /* \"#utility.yul\":14462:14468   */\n      dup3\n        /* \"#utility.yul\":14456:14460   */\n      dup6\n        /* \"#utility.yul\":14410:14477   */\n      tag_283\n      jump\t// in\n    tag_460:\n        /* \"#utility.yul\":14504:14505   */\n      0x00\n        /* \"#utility.yul\":14528:14532   */\n      0x20\n        /* \"#utility.yul\":14515:14532   */\n      swap1\n      pop\n        /* \"#utility.yul\":14560:14562   */\n      0x1f\n        /* \"#utility.yul\":14552:14558   */\n      dup4\n        /* \"#utility.yul\":14549:14563   */\n      gt\n        /* \"#utility.yul\":14577:14578   */\n      0x01\n        /* \"#utility.yul\":14572:15190   */\n      dup2\n      eq\n      tag_462\n      jumpi\n        /* \"#utility.yul\":15234:15235   */\n      0x00\n        /* \"#utility.yul\":15251:15257   */\n      dup5\n        /* \"#utility.yul\":15248:15325   */\n      iszero\n      tag_463\n      jumpi\n        /* \"#utility.yul\":15300:15309   */\n      dup3\n        /* \"#utility.yul\":15295:15298   */\n      dup8\n        /* \"#utility.yul\":15291:15310   */\n      add\n        /* \"#utility.yul\":15285:15311   */\n      mload\n        /* \"#utility.yul\":15276:15311   */\n      swap1\n      pop\n        /* \"#utility.yul\":15248:15325   */\n    tag_463:\n        /* \"#utility.yul\":15351:15418   */\n      tag_464\n        /* \"#utility.yul\":15411:15417   */\n      dup6\n        /* \"#utility.yul\":15404:15409   */\n      dup3\n        /* \"#utility.yul\":15351:15418   */\n      tag_286\n      jump\t// in\n    tag_464:\n        /* \"#utility.yul\":15345:15349   */\n      dup7\n        /* \"#utility.yul\":15338:15419   */\n      sstore\n        /* \"#utility.yul\":15207:15429   */\n      pop\n        /* \"#utility.yul\":14542:15429   */\n      jump(tag_461)\n        /* \"#utility.yul\":14572:15190   */\n    tag_462:\n        /* \"#utility.yul\":14624:14628   */\n      0x1f\n        /* \"#utility.yul\":14620:14629   */\n      not\n        /* \"#utility.yul\":14612:14618   */\n      dup5\n        /* \"#utility.yul\":14608:14630   */\n      and\n        /* \"#utility.yul\":14658:14695   */\n      tag_465\n        /* \"#utility.yul\":14690:14694   */\n      dup7\n        /* \"#utility.yul\":14658:14695   */\n      tag_272\n      jump\t// in\n    tag_465:\n        /* \"#utility.yul\":14717:14718   */\n      0x00\n        /* \"#utility.yul\":14731:14939   */\n    tag_466:\n        /* \"#utility.yul\":14745:14752   */\n      dup3\n        /* \"#utility.yul\":14742:14743   */\n      dup2\n        /* \"#utility.yul\":14739:14753   */\n      lt\n        /* \"#utility.yul\":14731:14939   */\n      iszero\n      tag_468\n      jumpi\n        /* \"#utility.yul\":14824:14833   */\n      dup5\n        /* \"#utility.yul\":14819:14822   */\n      dup10\n        /* \"#utility.yul\":14815:14834   */\n      add\n        /* \"#utility.yul\":14809:14835   */\n      mload\n        /* \"#utility.yul\":14801:14807   */\n      dup3\n        /* \"#utility.yul\":14794:14836   */\n      sstore\n        /* \"#utility.yul\":14875:14876   */\n      0x01\n        /* \"#utility.yul\":14867:14873   */\n      dup3\n        /* \"#utility.yul\":14863:14877   */\n      add\n        /* \"#utility.yul\":14853:14877   */\n      swap2\n      pop\n        /* \"#utility.yul\":14922:14924   */\n      0x20\n        /* \"#utility.yul\":14911:14920   */\n      dup6\n        /* \"#utility.yul\":14907:14925   */\n      add\n        /* \"#utility.yul\":14894:14925   */\n      swap5\n      pop\n        /* \"#utility.yul\":14768:14772   */\n      0x20\n        /* \"#utility.yul\":14765:14766   */\n      dup2\n        /* \"#utility.yul\":14761:14773   */\n      add\n        /* \"#utility.yul\":14756:14773   */\n      swap1\n      pop\n        /* \"#utility.yul\":14731:14939   */\n      jump(tag_466)\n    tag_468:\n        /* \"#utility.yul\":14967:14973   */\n      dup7\n        /* \"#utility.yul\":14958:14965   */\n      dup4\n        /* \"#utility.yul\":14955:14974   */\n      lt\n        /* \"#utility.yul\":14952:15131   */\n      iszero\n      tag_469\n      jumpi\n        /* \"#utility.yul\":15025:15034   */\n      dup5\n        /* \"#utility.yul\":15020:15023   */\n      dup10\n        /* \"#utility.yul\":15016:15035   */\n      add\n        /* \"#utility.yul\":15010:15036   */\n      mload\n        /* \"#utility.yul\":15068:15116   */\n      tag_470\n        /* \"#utility.yul\":15110:15114   */\n      0x1f\n        /* \"#utility.yul\":15102:15108   */\n      dup10\n        /* \"#utility.yul\":15098:15115   */\n      and\n        /* \"#utility.yul\":15087:15096   */\n      dup3\n        /* \"#utility.yul\":15068:15116   */\n      tag_285\n      jump\t// in\n    tag_470:\n        /* \"#utility.yul\":15060:15066   */\n      dup4\n        /* \"#utility.yul\":15053:15117   */\n      sstore\n        /* \"#utility.yul\":14975:15131   */\n      pop\n        /* \"#utility.yul\":14952:15131   */\n    tag_469:\n        /* \"#utility.yul\":15177:15178   */\n      0x01\n        /* \"#utility.yul\":15173:15174   */\n      0x02\n        /* \"#utility.yul\":15165:15171   */\n      dup9\n        /* \"#utility.yul\":15161:15175   */\n      mul\n        /* \"#utility.yul\":15157:15179   */\n      add\n        /* \"#utility.yul\":15151:15155   */\n      dup9\n        /* \"#utility.yul\":15144:15180   */\n      sstore\n        /* \"#utility.yul\":14579:15190   */\n      pop\n      pop\n      pop\n        /* \"#utility.yul\":14542:15429   */\n    tag_461:\n      pop\n        /* \"#utility.yul\":14132:15435   */\n      pop\n      pop\n      pop\n        /* \"#utility.yul\":14040:15435   */\n      pop\n      pop\n      jump\t// out\n        /* \"#utility.yul\":15441:15621   */\n    tag_287:\n        /* \"#utility.yul\":15581:15613   */\n      0x52617465206d7573742062652067726561746572207468616e207a65726f0000\n        /* \"#utility.yul\":15577:15578   */\n      0x00\n        /* \"#utility.yul\":15569:15575   */\n      dup3\n        /* \"#utility.yul\":15565:15579   */\n      add\n        /* \"#utility.yul\":15558:15614   */\n      mstore\n        /* \"#utility.yul\":15441:15621   */\n      pop\n      jump\t// out\n        /* \"#utility.yul\":15627:15993   */\n    tag_288:\n        /* \"#utility.yul\":15769:15772   */\n      0x00\n        /* \"#utility.yul\":15790:15857   */\n      tag_473\n        /* \"#utility.yul\":15854:15856   */\n      0x1e\n        /* \"#utility.yul\":15849:15852   */\n      dup4\n        /* \"#utility.yul\":15790:15857   */\n      tag_257\n      jump\t// in\n    tag_473:\n        /* \"#utility.yul\":15783:15857   */\n      swap2\n      pop\n        /* \"#utility.yul\":15866:15959   */\n      tag_474\n        /* \"#utility.yul\":15955:15958   */\n      dup3\n        /* \"#utility.yul\":15866:15959   */\n      tag_287\n      jump\t// in\n    tag_474:\n        /* \"#utility.yul\":15984:15986   */\n      0x20\n        /* \"#utility.yul\":15979:15982   */\n      dup3\n        /* \"#utility.yul\":15975:15987   */\n      add\n        /* \"#utility.yul\":15968:15987   */\n      swap1\n      pop\n        /* \"#utility.yul\":15627:15993   */\n      swap2\n      swap1\n      pop\n      jump\t// out\n        /* \"#utility.yul\":15999:16418   */\n    tag_161:\n        /* \"#utility.yul\":16165:16169   */\n      0x00\n        /* \"#utility.yul\":16203:16205   */\n      0x20\n        /* \"#utility.yul\":16192:16201   */\n      dup3\n        /* \"#utility.yul\":16188:16206   */\n      add\n        /* \"#utility.yul\":16180:16206   */\n      swap1\n      pop\n        /* \"#utility.yul\":16252:16261   */\n      dup2\n        /* \"#utility.yul\":16246:16250   */\n      dup2\n        /* \"#utility.yul\":16242:16262   */\n      sub\n        /* \"#utility.yul\":16238:16239   */\n      0x00\n        /* \"#utility.yul\":16227:16236   */\n      dup4\n        /* \"#utility.yul\":16223:16240   */\n      add\n        /* \"#utility.yul\":16216:16263   */\n      mstore\n        /* \"#utility.yul\":16280:16411   */\n      tag_476\n        /* \"#utility.yul\":16406:16410   */\n      dup2\n        /* \"#utility.yul\":16280:16411   */\n      tag_288\n      jump\t// in\n    tag_476:\n        /* \"#utility.yul\":16272:16411   */\n      swap1\n      pop\n        /* \"#utility.yul\":15999:16418   */\n      swap2\n      swap1\n      pop\n      jump\t// out\n        /* \"#utility.yul\":16424:16526   */\n    tag_289:\n        /* \"#utility.yul\":16466:16474   */\n      0x00\n        /* \"#utility.yul\":16513:16518   */\n      dup2\n        /* \"#utility.yul\":16510:16511   */\n      0x01\n        /* \"#utility.yul\":16506:16519   */\n      shr\n        /* \"#utility.yul\":16485:16519   */\n      swap1\n      pop\n        /* \"#utility.yul\":16424:16526   */\n      swap2\n      swap1\n      pop\n      jump\t// out\n        /* \"#utility.yul\":16532:17380   */\n    tag_290:\n        /* \"#utility.yul\":16593:16598   */\n      0x00\n        /* \"#utility.yul\":16600:16604   */\n      dup1\n        /* \"#utility.yul\":16624:16630   */\n      dup3\n        /* \"#utility.yul\":16615:16630   */\n      swap2\n      pop\n        /* \"#utility.yul\":16648:16653   */\n      dup4\n        /* \"#utility.yul\":16639:16653   */\n      swap1\n      pop\n        /* \"#utility.yul\":16662:17374   */\n    tag_479:\n        /* \"#utility.yul\":16683:16684   */\n      0x01\n        /* \"#utility.yul\":16673:16681   */\n      dup6\n        /* \"#utility.yul\":16670:16685   */\n      gt\n        /* \"#utility.yul\":16662:17374   */\n      iszero\n      tag_481\n      jumpi\n        /* \"#utility.yul\":16778:16782   */\n      dup1\n        /* \"#utility.yul\":16773:16776   */\n      dup7\n        /* \"#utility.yul\":16769:16783   */\n      div\n        /* \"#utility.yul\":16763:16767   */\n      dup2\n        /* \"#utility.yul\":16760:16784   */\n      gt\n        /* \"#utility.yul\":16757:16807   */\n      iszero\n      tag_482\n      jumpi\n        /* \"#utility.yul\":16787:16805   */\n      tag_483\n      tag_262\n      jump\t// in\n    tag_483:\n        /* \"#utility.yul\":16757:16807   */\n    tag_482:\n        /* \"#utility.yul\":16837:16838   */\n      0x01\n        /* \"#utility.yul\":16827:16835   */\n      dup6\n        /* \"#utility.yul\":16823:16839   */\n      and\n        /* \"#utility.yul\":16820:17271   */\n      iszero\n      tag_484\n      jumpi\n        /* \"#utility.yul\":17252:17256   */\n      dup1\n        /* \"#utility.yul\":17245:17250   */\n      dup3\n        /* \"#utility.yul\":17241:17257   */\n      mul\n        /* \"#utility.yul\":17232:17257   */\n      swap2\n      pop\n        /* \"#utility.yul\":16820:17271   */\n    tag_484:\n        /* \"#utility.yul\":17302:17306   */\n      dup1\n        /* \"#utility.yul\":17296:17300   */\n      dup2\n        /* \"#utility.yul\":17292:17307   */\n      mul\n        /* \"#utility.yul\":17284:17307   */\n      swap1\n      pop\n        /* \"#utility.yul\":17332:17364   */\n      tag_485\n        /* \"#utility.yul\":17355:17363   */\n      dup6\n        /* \"#utility.yul\":17332:17364   */\n      tag_289\n      jump\t// in\n    tag_485:\n        /* \"#utility.yul\":17320:17364   */\n      swap5\n      pop\n        /* \"#utility.yul\":16662:17374   */\n      jump(tag_479)\n    tag_481:\n        /* \"#utility.yul\":16532:17380   */\n      swap5\n      pop\n      swap5\n      swap3\n      pop\n      pop\n      pop\n      jump\t// out\n        /* \"#utility.yul\":17386:18459   */\n    tag_291:\n        /* \"#utility.yul\":17440:17445   */\n      0x00\n        /* \"#utility.yul\":17631:17639   */\n      dup3\n        /* \"#utility.yul\":17621:17661   */\n      tag_487\n      jumpi\n        /* \"#utility.yul\":17652:17653   */\n      0x01\n        /* \"#utility.yul\":17643:17653   */\n      swap1\n      pop\n        /* \"#utility.yul\":17654:17659   */\n      jump(tag_486)\n        /* \"#utility.yul\":17621:17661   */\n    tag_487:\n        /* \"#utility.yul\":17680:17684   */\n      dup2\n        /* \"#utility.yul\":17670:17706   */\n      tag_488\n      jumpi\n        /* \"#utility.yul\":17697:17698   */\n      0x00\n        /* \"#utility.yul\":17688:17698   */\n      swap1\n      pop\n        /* \"#utility.yul\":17699:17704   */\n      jump(tag_486)\n        /* \"#utility.yul\":17670:17706   */\n    tag_488:\n        /* \"#utility.yul\":17766:17770   */\n      dup2\n        /* \"#utility.yul\":17814:17815   */\n      0x01\n        /* \"#utility.yul\":17809:17836   */\n      dup2\n      eq\n      tag_490\n      jumpi\n        /* \"#utility.yul\":17850:17851   */\n      0x02\n        /* \"#utility.yul\":17845:18036   */\n      dup2\n      eq\n      tag_491\n      jumpi\n        /* \"#utility.yul\":17759:18036   */\n      jump(tag_489)\n        /* \"#utility.yul\":17809:17836   */\n    tag_490:\n        /* \"#utility.yul\":17827:17828   */\n      0x01\n        /* \"#utility.yul\":17818:17828   */\n      swap2\n      pop\n        /* \"#utility.yul\":17829:17834   */\n      pop\n      jump(tag_486)\n        /* \"#utility.yul\":17845:18036   */\n    tag_491:\n        /* \"#utility.yul\":17890:17893   */\n      0xff\n        /* \"#utility.yul\":17880:17888   */\n      dup5\n        /* \"#utility.yul\":17877:17894   */\n      gt\n        /* \"#utility.yul\":17874:17917   */\n      iszero\n      tag_492\n      jumpi\n        /* \"#utility.yul\":17897:17915   */\n      tag_493\n      tag_262\n      jump\t// in\n    tag_493:\n        /* \"#utility.yul\":17874:17917   */\n    tag_492:\n        /* \"#utility.yul\":17946:17954   */\n      dup4\n        /* \"#utility.yul\":17943:17944   */\n      0x02\n        /* \"#utility.yul\":17939:17955   */\n      exp\n        /* \"#utility.yul\":17930:17955   */\n      swap2\n      pop\n        /* \"#utility.yul\":17981:17984   */\n      dup5\n        /* \"#utility.yul\":17974:17979   */\n      dup3\n        /* \"#utility.yul\":17971:17985   */\n      gt\n        /* \"#utility.yul\":17968:18008   */\n      iszero\n      tag_494\n      jumpi\n        /* \"#utility.yul\":17988:18006   */\n      tag_495\n      tag_262\n      jump\t// in\n    tag_495:\n        /* \"#utility.yul\":17968:18008   */\n    tag_494:\n        /* \"#utility.yul\":18021:18026   */\n      pop\n      jump(tag_486)\n        /* \"#utility.yul\":17759:18036   */\n    tag_489:\n      pop\n        /* \"#utility.yul\":18145:18147   */\n      0x20\n        /* \"#utility.yul\":18135:18143   */\n      dup4\n        /* \"#utility.yul\":18132:18148   */\n      lt\n        /* \"#utility.yul\":18126:18129   */\n      0x0133\n        /* \"#utility.yul\":18120:18124   */\n      dup4\n        /* \"#utility.yul\":18117:18130   */\n      lt\n        /* \"#utility.yul\":18113:18149   */\n      and\n        /* \"#utility.yul\":18095:18097   */\n      0x4e\n        /* \"#utility.yul\":18085:18093   */\n      dup5\n        /* \"#utility.yul\":18082:18098   */\n      lt\n        /* \"#utility.yul\":18077:18079   */\n      0x0b\n        /* \"#utility.yul\":18071:18075   */\n      dup5\n        /* \"#utility.yul\":18068:18080   */\n      lt\n        /* \"#utility.yul\":18064:18099   */\n      and\n        /* \"#utility.yul\":18048:18159   */\n      or\n        /* \"#utility.yul\":18045:18291   */\n      iszero\n      tag_496\n      jumpi\n        /* \"#utility.yul\":18201:18209   */\n      dup3\n        /* \"#utility.yul\":18195:18199   */\n      dup3\n        /* \"#utility.yul\":18191:18210   */\n      exp\n        /* \"#utility.yul\":18182:18210   */\n      swap1\n      pop\n        /* \"#utility.yul\":18236:18239   */\n      dup4\n        /* \"#utility.yul\":18229:18234   */\n      dup2\n        /* \"#utility.yul\":18226:18240   */\n      gt\n        /* \"#utility.yul\":18223:18263   */\n      iszero\n      tag_497\n      jumpi\n        /* \"#utility.yul\":18243:18261   */\n      tag_498\n      tag_262\n      jump\t// in\n    tag_498:\n        /* \"#utility.yul\":18223:18263   */\n    tag_497:\n        /* \"#utility.yul\":18276:18281   */\n      jump(tag_486)\n        /* \"#utility.yul\":18045:18291   */\n    tag_496:\n        /* \"#utility.yul\":18316:18358   */\n      tag_499\n        /* \"#utility.yul\":18354:18357   */\n      dup5\n        /* \"#utility.yul\":18344:18352   */\n      dup5\n        /* \"#utility.yul\":18338:18342   */\n      dup5\n        /* \"#utility.yul\":18335:18336   */\n      0x01\n        /* \"#utility.yul\":18316:18358   */\n      tag_290\n      jump\t// in\n    tag_499:\n        /* \"#utility.yul\":18301:18358   */\n      swap3\n      pop\n      swap1\n      pop\n        /* \"#utility.yul\":18390:18394   */\n      dup2\n        /* \"#utility.yul\":18385:18388   */\n      dup5\n        /* \"#utility.yul\":18381:18395   */\n      div\n        /* \"#utility.yul\":18374:18379   */\n      dup2\n        /* \"#utility.yul\":18371:18396   */\n      gt\n        /* \"#utility.yul\":18368:18419   */\n      iszero\n      tag_500\n      jumpi\n        /* \"#utility.yul\":18399:18417   */\n      tag_501\n      tag_262\n      jump\t// in\n    tag_501:\n        /* \"#utility.yul\":18368:18419   */\n    tag_500:\n        /* \"#utility.yul\":18448:18452   */\n      dup2\n        /* \"#utility.yul\":18441:18446   */\n      dup2\n        /* \"#utility.yul\":18437:18453   */\n      mul\n        /* \"#utility.yul\":18428:18453   */\n      swap1\n      pop\n        /* \"#utility.yul\":17386:18459   */\n    tag_486:\n      swap4\n      swap3\n      pop\n      pop\n      pop\n      jump\t// out\n        /* \"#utility.yul\":18465:18750   */\n    tag_163:\n        /* \"#utility.yul\":18525:18530   */\n      0x00\n        /* \"#utility.yul\":18549:18572   */\n      tag_503\n        /* \"#utility.yul\":18567:18571   */\n      dup3\n        /* \"#utility.yul\":18549:18572   */\n      tag_250\n      jump\t// in\n    tag_503:\n        /* \"#utility.yul\":18541:18572   */\n      swap2\n      pop\n        /* \"#utility.yul\":18593:18620   */\n      tag_504\n        /* \"#utility.yul\":18611:18619   */\n      dup4\n        /* \"#utility.yul\":18593:18620   */\n      tag_250\n      jump\t// in\n    tag_504:\n        /* \"#utility.yul\":18581:18620   */\n      swap3\n      pop\n        /* \"#utility.yul\":18639:18743   */\n      tag_505\n        /* \"#utility.yul\":18676:18742   */\n      0xffffffffffffffffffffffffffffffffffffffffffffffffffffffffffffffff\n        /* \"#utility.yul\":18666:18674   */\n      dup5\n        /* \"#utility.yul\":18660:18664   */\n      dup5\n        /* \"#utility.yul\":18639:18743   */\n      tag_291\n      jump\t// in\n    tag_505:\n        /* \"#utility.yul\":18630:18743   */\n      swap1\n      pop\n        /* \"#utility.yul\":18465:18750   */\n      swap3\n      swap2\n      pop\n      pop\n      jump\t// out\n        /* \"#utility.yul\":18756:19166   */\n    tag_165:\n        /* \"#utility.yul\":18796:18803   */\n      0x00\n        /* \"#utility.yul\":18819:18839   */\n      tag_507\n        /* \"#utility.yul\":18837:18838   */\n      dup3\n        /* \"#utility.yul\":18819:18839   */\n      tag_250\n      jump\t// in\n    tag_507:\n        /* \"#utility.yul\":18814:18839   */\n      swap2\n      pop\n        /* \"#utility.yul\":18853:18873   */\n      tag_508\n        /* \"#utility.yul\":18871:18872   */\n      dup4\n        /* \"#utility.yul\":18853:18873   */\n      tag_250\n      jump\t// in\n    tag_508:\n        /* \"#utility.yul\":18848:18873   */\n      swap3\n      pop\n        /* \"#utility.yul\":18908:18909   */\n      dup3\n        /* \"#utility.yul\":18905:18906   */\n      dup3\n        /* \"#utility.yul\":18901:18910   */\n      mul\n        /* \"#utility.yul\":18930:18960   */\n      tag_509\n        /* \"#utility.yul\":18948:18959   */\n      dup2\n        /* \"#utility.yul\":18930:18960   */\n      tag_250\n      jump\t// in\n    tag_509:\n        /* \"#utility.yul\":18919:18960   */\n      swap2\n      pop\n        /* \"#utility.yul\":19109:19110   */\n      dup3\n        /* \"#utility.yul\":19100:19107   */\n      dup3\n        /* \"#utility.yul\":19096:19111   */\n      div\n        /* \"#utility.yul\":19093:19094   */\n      dup5\n        /* \"#utility.yul\":19090:19112   */\n      eq\n        /* \"#utility.yul\":19070:19071   */\n      dup4\n        /* \"#utility.yul\":19063:19072   */\n      iszero\n        /* \"#utility.yul\":19043:19126   */\n      or\n        /* \"#utility.yul\":19020:19159   */\n      tag_510\n      jumpi\n        /* \"#utility.yul\":19139:19157   */\n      tag_511\n      tag_262\n      jump\t// in\n    tag_511:\n        /* \"#utility.yul\":19020:19159   */\n    tag_510:\n        /* \"#utility.yul\":18804:19166   */\n      pop\n        /* \"#utility.yul\":18756:19166   */\n      swap3\n      swap2\n      pop\n      pop\n      jump\t// out\n        /* \"#utility.yul\":19172:19352   */\n    tag_292:\n        /* \"#utility.yul\":19220:19297   */\n      0x4e487b7100000000000000000000000000000000000000000000000000000000\n        /* \"#utility.yul\":19217:19218   */\n      0x00\n        /* \"#utility.yul\":19210:19298   */\n      mstore\n        /* \"#utility.yul\":19317:19321   */\n      0x12\n        /* \"#utility.yul\":19314:19315   */\n      0x04\n        /* \"#utility.yul\":19307:19322   */\n      mstore\n        /* \"#utility.yul\":19341:19345   */\n      0x24\n        /* \"#utility.yul\":19338:19339   */\n      0x00\n        /* \"#utility.yul\":19331:19346   */\n      revert\n        /* \"#utility.yul\":19358:19543   */\n    tag_167:\n        /* \"#utility.yul\":19398:19399   */\n      0x00\n        /* \"#utility.yul\":19415:19435   */\n      tag_514\n        /* \"#utility.yul\":19433:19434   */\n      dup3\n        /* \"#utility.yul\":19415:19435   */\n      tag_250\n      jump\t// in\n    tag_514:\n        /* \"#utility.yul\":19410:19435   */\n      swap2\n      pop\n        /* \"#utility.yul\":19449:19469   */\n      tag_515\n        /* \"#utility.yul\":19467:19468   */\n      dup4\n        /* \"#utility.yul\":19449:19469   */\n      tag_250\n      jump\t// in\n    tag_515:\n        /* \"#utility.yul\":19444:19469   */\n      swap3\n      pop\n        /* \"#utility.yul\":19488:19489   */\n      dup3\n        /* \"#utility.yul\":19478:19513   */\n      tag_516\n      jumpi\n        /* \"#utility.yul\":19493:19511   */\n      tag_517\n      tag_292\n      jump\t// in\n    tag_517:\n        /* \"#utility.yul\":19478:19513   */\n    tag_516:\n        /* \"#utility.yul\":19535:19536   */\n      dup3\n        /* \"#utility.yul\":19532:19533   */\n      dup3\n        /* \"#utility.yul\":19528:19537   */\n      div\n        /* \"#utility.yul\":19523:19537   */\n      swap1\n      pop\n        /* \"#utility.yul\":19358:19543   */\n      swap3\n      swap2\n      pop\n      pop\n      jump\t// out\n        /* \"#utility.yul\":19549:19720   */\n    tag_293:\n        /* \"#utility.yul\":19689:19712   */\n      0x53656e646572206e6f7420617574686f72697a65640000000000000000000000\n        /* \"#utility.yul\":19685:19686   */\n      0x00\n        /* \"#utility.yul\":19677:19683   */\n      dup3\n        /* \"#utility.yul\":19673:19687   */\n      add\n        /* \"#utility.yul\":19666:19713   */\n      mstore\n        /* \"#utility.yul\":19549:19720   */\n      pop\n      jump\t// out\n        /* \"#utility.yul\":19726:20092   */\n    tag_294:\n        /* \"#utility.yul\":19868:19871   */\n      0x00\n        /* \"#utility.yul\":19889:19956   */\n      tag_520\n        /* \"#utility.yul\":19953:19955   */\n      0x15\n        /* \"#utility.yul\":19948:19951   */\n      dup4\n        /* \"#utility.yul\":19889:19956   */\n      tag_257\n      jump\t// in\n    tag_520:\n        /* \"#utility.yul\":19882:19956   */\n      swap2\n      pop\n        /* \"#utility.yul\":19965:20058   */\n      tag_521\n        /* \"#utility.yul\":20054:20057   */\n      dup3\n        /* \"#utility.yul\":19965:20058   */\n      tag_293\n      jump\t// in\n    tag_521:\n        /* \"#utility.yul\":20083:20085   */\n      0x20\n        /* \"#utility.yul\":20078:20081   */\n      dup3\n        /* \"#utility.yul\":20074:20086   */\n      add\n        /* \"#utility.yul\":20067:20086   */\n      swap1\n      pop\n        /* \"#utility.yul\":19726:20092   */\n      swap2\n      swap1\n      pop\n      jump\t// out\n        /* \"#utility.yul\":20098:20517   */\n    tag_196:\n        /* \"#utility.yul\":20264:20268   */\n      0x00\n        /* \"#utility.yul\":20302:20304   */\n      0x20\n        /* \"#utility.yul\":20291:20300   */\n      dup3\n        /* \"#utility.yul\":20287:20305   */\n      add\n        /* \"#utility.yul\":20279:20305   */\n      swap1\n      pop\n        /* \"#utility.yul\":20351:20360   */\n      dup2\n        /* \"#utility.yul\":20345:20349   */\n      dup2\n        /* \"#utility.yul\":20341:20361   */\n      sub\n        /* \"#utility.yul\":20337:20338   */\n      0x00\n        /* \"#utility.yul\":20326:20335   */\n      dup4\n        /* \"#utility.yul\":20322:20339   */\n      add\n        /* \"#utility.yul\":20315:20362   */\n      mstore\n        /* \"#utility.yul\":20379:20510   */\n      tag_523\n        /* \"#utility.yul\":20505:20509   */\n      dup2\n        /* \"#utility.yul\":20379:20510   */\n      tag_294\n      jump\t// in\n    tag_523:\n        /* \"#utility.yul\":20371:20510   */\n      swap1\n      pop\n        /* \"#utility.yul\":20098:20517   */\n      swap2\n      swap1\n      pop\n      jump\t// out\n        /* \"#utility.yul\":20523:20855   */\n    tag_200:\n        /* \"#utility.yul\":20644:20648   */\n      0x00\n        /* \"#utility.yul\":20682:20684   */\n      0x40\n        /* \"#utility.yul\":20671:20680   */\n      dup3\n        /* \"#utility.yul\":20667:20685   */\n      add\n        /* \"#utility.yul\":20659:20685   */\n      swap1\n      pop\n        /* \"#utility.yul\":20695:20766   */\n      tag_525\n        /* \"#utility.yul\":20763:20764   */\n      0x00\n        /* \"#utility.yul\":20752:20761   */\n      dup4\n        /* \"#utility.yul\":20748:20765   */\n      add\n        /* \"#utility.yul\":20739:20745   */\n      dup6\n        /* \"#utility.yul\":20695:20766   */\n      tag_261\n      jump\t// in\n    tag_525:\n        /* \"#utility.yul\":20776:20848   */\n      tag_526\n        /* \"#utility.yul\":20844:20846   */\n      0x20\n        /* \"#utility.yul\":20833:20842   */\n      dup4\n        /* \"#utility.yul\":20829:20847   */\n      add\n        /* \"#utility.yul\":20820:20826   */\n      dup5\n        /* \"#utility.yul\":20776:20848   */\n      tag_261\n      jump\t// in\n    tag_526:\n        /* \"#utility.yul\":20523:20855   */\n      swap4\n      swap3\n      pop\n      pop\n      pop\n      jump\t// out\n        /* \"#utility.yul\":20861:21036   */\n    tag_295:\n        /* \"#utility.yul\":21001:21028   */\n      0x436865636b2074686520746f6b656e20616c6c6f77616e636500000000000000\n        /* \"#utility.yul\":20997:20998   */\n      0x00\n        /* \"#utility.yul\":20989:20995   */\n      dup3\n        /* \"#utility.yul\":20985:20999   */\n      add\n        /* \"#utility.yul\":20978:21029   */\n      mstore\n        /* \"#utility.yul\":20861:21036   */\n      pop\n      jump\t// out\n        /* \"#utility.yul\":21042:21408   */\n    tag_296:\n        /* \"#utility.yul\":21184:21187   */\n      0x00\n        /* \"#utility.yul\":21205:21272   */\n      tag_529\n        /* \"#utility.yul\":21269:21271   */\n      0x19\n        /* \"#utility.yul\":21264:21267   */\n      dup4\n        /* \"#utility.yul\":21205:21272   */\n      tag_257\n      jump\t// in\n    tag_529:\n        /* \"#utility.yul\":21198:21272   */\n      swap2\n      pop\n        /* \"#utility.yul\":21281:21374   */\n      tag_530\n        /* \"#utility.yul\":21370:21373   */\n      dup3\n        /* \"#utility.yul\":21281:21374   */\n      tag_295\n      jump\t// in\n    tag_530:\n        /* \"#utility.yul\":21399:21401   */\n      0x20\n        /* \"#utility.yul\":21394:21397   */\n      dup3\n        /* \"#utility.yul\":21390:21402   */\n      add\n        /* \"#utility.yul\":21383:21402   */\n      swap1\n      pop\n        /* \"#utility.yul\":21042:21408   */\n      swap2\n      swap1\n      pop\n      jump\t// out\n        /* \"#utility.yul\":21414:21833   */\n    tag_206:\n        /* \"#utility.yul\":21580:21584   */\n      0x00\n        /* \"#utility.yul\":21618:21620   */\n      0x20\n        /* \"#utility.yul\":21607:21616   */\n      dup3\n        /* \"#utility.yul\":21603:21621   */\n      add\n        /* \"#utility.yul\":21595:21621   */\n      swap1\n      pop\n        /* \"#utility.yul\":21667:21676   */\n      dup2\n        /* \"#utility.yul\":21661:21665   */\n      dup2\n        /* \"#utility.yul\":21657:21677   */\n      sub\n        /* \"#utility.yul\":21653:21654   */\n      0x00\n        /* \"#utility.yul\":21642:21651   */\n      dup4\n        /* \"#utility.yul\":21638:21655   */\n      add\n        /* \"#utility.yul\":21631:21678   */\n      mstore\n        /* \"#utility.yul\":21695:21826   */\n      tag_532\n        /* \"#utility.yul\":21821:21825   */\n      dup2\n        /* \"#utility.yul\":21695:21826   */\n      tag_296\n      jump\t// in\n    tag_532:\n        /* \"#utility.yul\":21687:21826   */\n      swap1\n      pop\n        /* \"#utility.yul\":21414:21833   */\n      swap2\n      swap1\n      pop\n      jump\t// out\n        /* \"#utility.yul\":21839:22281   */\n    tag_208:\n        /* \"#utility.yul\":21988:21992   */\n      0x00\n        /* \"#utility.yul\":22026:22028   */\n      0x60\n        /* \"#utility.yul\":22015:22024   */\n      dup3\n        /* \"#utility.yul\":22011:22029   */\n      add\n        /* \"#utility.yul\":22003:22029   */\n      swap1\n      pop\n        /* \"#utility.yul\":22039:22110   */\n      tag_534\n        /* \"#utility.yul\":22107:22108   */\n      0x00\n        /* \"#utility.yul\":22096:22105   */\n      dup4\n        /* \"#utility.yul\":22092:22109   */\n      add\n        /* \"#utility.yul\":22083:22089   */\n      dup7\n        /* \"#utility.yul\":22039:22110   */\n      tag_261\n      jump\t// in\n    tag_534:\n        /* \"#utility.yul\":22120:22192   */\n      tag_535\n        /* \"#utility.yul\":22188:22190   */\n      0x20\n        /* \"#utility.yul\":22177:22186   */\n      dup4\n        /* \"#utility.yul\":22173:22191   */\n      add\n        /* \"#utility.yul\":22164:22170   */\n      dup6\n        /* \"#utility.yul\":22120:22192   */\n      tag_261\n      jump\t// in\n    tag_535:\n        /* \"#utility.yul\":22202:22274   */\n      tag_536\n        /* \"#utility.yul\":22270:22272   */\n      0x40\n        /* \"#utility.yul\":22259:22268   */\n      dup4\n        /* \"#utility.yul\":22255:22273   */\n      add\n        /* \"#utility.yul\":22246:22252   */\n      dup5\n        /* \"#utility.yul\":22202:22274   */\n      tag_255\n      jump\t// in\n    tag_536:\n        /* \"#utility.yul\":21839:22281   */\n      swap5\n      swap4\n      pop\n      pop\n      pop\n      pop\n      jump\t// out\n        /* \"#utility.yul\":22287:22512   */\n    tag_297:\n        /* \"#utility.yul\":22427:22461   */\n      0x4f776e61626c653a206e6577206f776e657220697320746865207a65726f2061\n        /* \"#utility.yul\":22423:22424   */\n      0x00\n        /* \"#utility.yul\":22415:22421   */\n      dup3\n        /* \"#utility.yul\":22411:22425   */\n      add\n        /* \"#utility.yul\":22404:22462   */\n      mstore\n        /* \"#utility.yul\":22496:22504   */\n      0x6464726573730000000000000000000000000000000000000000000000000000\n        /* \"#utility.yul\":22491:22493   */\n      0x20\n        /* \"#utility.yul\":22483:22489   */\n      dup3\n        /* \"#utility.yul\":22479:22494   */\n      add\n        /* \"#utility.yul\":22472:22505   */\n      mstore\n        /* \"#utility.yul\":22287:22512   */\n      pop\n      jump\t// out\n        /* \"#utility.yul\":22518:22884   */\n    tag_298:\n        /* \"#utility.yul\":22660:22663   */\n      0x00\n        /* \"#utility.yul\":22681:22748   */\n      tag_539\n        /* \"#utility.yul\":22745:22747   */\n      0x26\n        /* \"#utility.yul\":22740:22743   */\n      dup4\n        /* \"#utility.yul\":22681:22748   */\n      tag_257\n      jump\t// in\n    tag_539:\n        /* \"#utility.yul\":22674:22748   */\n      swap2\n      pop\n        /* \"#utility.yul\":22757:22850   */\n      tag_540\n        /* \"#utility.yul\":22846:22849   */\n      dup3\n        /* \"#utility.yul\":22757:22850   */\n      tag_297\n      jump\t// in\n    tag_540:\n        /* \"#utility.yul\":22875:22877   */\n      0x40\n        /* \"#utility.yul\":22870:22873   */\n      dup3\n        /* \"#utility.yul\":22866:22878   */\n      add\n        /* \"#utility.yul\":22859:22878   */\n      swap1\n      pop\n        /* \"#utility.yul\":22518:22884   */\n      swap2\n      swap1\n      pop\n      jump\t// out\n        /* \"#utility.yul\":22890:23309   */\n    tag_223:\n        /* \"#utility.yul\":23056:23060   */\n      0x00\n        /* \"#utility.yul\":23094:23096   */\n      0x20\n        /* \"#utility.yul\":23083:23092   */\n      dup3\n        /* \"#utility.yul\":23079:23097   */\n      add\n        /* \"#utility.yul\":23071:23097   */\n      swap1\n      pop\n        /* \"#utility.yul\":23143:23152   */\n      dup2\n        /* \"#utility.yul\":23137:23141   */\n      dup2\n        /* \"#utility.yul\":23133:23153   */\n      sub\n        /* \"#utility.yul\":23129:23130   */\n      0x00\n        /* \"#utility.yul\":23118:23127   */\n      dup4\n        /* \"#utility.yul\":23114:23131   */\n      add\n        /* \"#utility.yul\":23107:23154   */\n      mstore\n        /* \"#utility.yul\":23171:23302   */\n      tag_542\n        /* \"#utility.yul\":23297:23301   */\n      dup2\n        /* \"#utility.yul\":23171:23302   */\n      tag_298\n      jump\t// in\n    tag_542:\n        /* \"#utility.yul\":23163:23302   */\n      swap1\n      pop\n        /* \"#utility.yul\":22890:23309   */\n      swap2\n      swap1\n      pop\n      jump\t// out\n        /* \"#utility.yul\":23315:23497   */\n    tag_299:\n        /* \"#utility.yul\":23455:23489   */\n      0x4f776e61626c653a2063616c6c6572206973206e6f7420746865206f776e6572\n        /* \"#utility.yul\":23451:23452   */\n      0x00\n        /* \"#utility.yul\":23443:23449   */\n      dup3\n        /* \"#utility.yul\":23439:23453   */\n      add\n        /* \"#utility.yul\":23432:23490   */\n      mstore\n        /* \"#utility.yul\":23315:23497   */\n      pop\n      jump\t// out\n        /* \"#utility.yul\":23503:23869   */\n    tag_300:\n        /* \"#utility.yul\":23645:23648   */\n      0x00\n        /* \"#utility.yul\":23666:23733   */\n      tag_545\n        /* \"#utility.yul\":23730:23732   */\n      0x20\n        /* \"#utility.yul\":23725:23728   */\n      dup4\n        /* \"#utility.yul\":23666:23733   */\n      tag_257\n      jump\t// in\n    tag_545:\n        /* \"#utility.yul\":23659:23733   */\n      swap2\n      pop\n        /* \"#utility.yul\":23742:23835   */\n      tag_546\n        /* \"#utility.yul\":23831:23834   */\n      dup3\n        /* \"#utility.yul\":23742:23835   */\n      tag_299\n      jump\t// in\n    tag_546:\n        /* \"#utility.yul\":23860:23862   */\n      0x20\n        /* \"#utility.yul\":23855:23858   */\n      dup3\n        /* \"#utility.yul\":23851:23863   */\n      add\n        /* \"#utility.yul\":23844:23863   */\n      swap1\n      pop\n        /* \"#utility.yul\":23503:23869   */\n      swap2\n      swap1\n      pop\n      jump\t// out\n        /* \"#utility.yul\":23875:24294   */\n    tag_231:\n        /* \"#utility.yul\":24041:24045   */\n      0x00\n        /* \"#utility.yul\":24079:24081   */\n      0x20\n        /* \"#utility.yul\":24068:24077   */\n      dup3\n        /* \"#utility.yul\":24064:24082   */\n      add\n        /* \"#utility.yul\":24056:24082   */\n      swap1\n      pop\n        /* \"#utility.yul\":24128:24137   */\n      dup2\n        /* \"#utility.yul\":24122:24126   */\n      dup2\n        /* \"#utility.yul\":24118:24138   */\n      sub\n        /* \"#utility.yul\":24114:24115   */\n      0x00\n        /* \"#utility.yul\":24103:24112   */\n      dup4\n        /* \"#utility.yul\":24099:24116   */\n      add\n        /* \"#utility.yul\":24092:24139   */\n      mstore\n        /* \"#utility.yul\":24156:24287   */\n      tag_548\n        /* \"#utility.yul\":24282:24286   */\n      dup2\n        /* \"#utility.yul\":24156:24287   */\n      tag_300\n      jump\t// in\n    tag_548:\n        /* \"#utility.yul\":24148:24287   */\n      swap1\n      pop\n        /* \"#utility.yul\":23875:24294   */\n      swap2\n      swap1\n      pop\n      jump\t// out\n        /* \"#utility.yul\":24300:24473   */\n    tag_301:\n        /* \"#utility.yul\":24440:24465   */\n      0x4e6f20746f6b656e7320746f206265206275726e656421000000000000000000\n        /* \"#utility.yul\":24436:24437   */\n      0x00\n        /* \"#utility.yul\":24428:24434   */\n      dup3\n        /* \"#utility.yul\":24424:24438   */\n      add\n        /* \"#utility.yul\":24417:24466   */\n      mstore\n        /* \"#utility.yul\":24300:24473   */\n      pop\n      jump\t// out\n        /* \"#utility.yul\":24479:24845   */\n    tag_302:\n        /* \"#utility.yul\":24621:24624   */\n      0x00\n        /* \"#utility.yul\":24642:24709   */\n      tag_551\n        /* \"#utility.yul\":24706:24708   */\n      0x17\n        /* \"#utility.yul\":24701:24704   */\n      dup4\n        /* \"#utility.yul\":24642:24709   */\n      tag_257\n      jump\t// in\n    tag_551:\n        /* \"#utility.yul\":24635:24709   */\n      swap2\n      pop\n        /* \"#utility.yul\":24718:24811   */\n      tag_552\n        /* \"#utility.yul\":24807:24810   */\n      dup3\n        /* \"#utility.yul\":24718:24811   */\n      tag_301\n      jump\t// in\n    tag_552:\n        /* \"#utility.yul\":24836:24838   */\n      0x20\n        /* \"#utility.yul\":24831:24834   */\n      dup3\n        /* \"#utility.yul\":24827:24839   */\n      add\n        /* \"#utility.yul\":24820:24839   */\n      swap1\n      pop\n        /* \"#utility.yul\":24479:24845   */\n      swap2\n      swap1\n      pop\n      jump\t// out\n        /* \"#utility.yul\":24851:25270   */\n    tag_236:\n        /* \"#utility.yul\":25017:25021   */\n      0x00\n        /* \"#utility.yul\":25055:25057   */\n      0x20\n        /* \"#utility.yul\":25044:25053   */\n      dup3\n        /* \"#utility.yul\":25040:25058   */\n      add\n        /* \"#utility.yul\":25032:25058   */\n      swap1\n      pop\n        /* \"#utility.yul\":25104:25113   */\n      dup2\n        /* \"#utility.yul\":25098:25102   */\n      dup2\n        /* \"#utility.yul\":25094:25114   */\n      sub\n        /* \"#utility.yul\":25090:25091   */\n      0x00\n        /* \"#utility.yul\":25079:25088   */\n      dup4\n        /* \"#utility.yul\":25075:25092   */\n      add\n        /* \"#utility.yul\":25068:25115   */\n      mstore\n        /* \"#utility.yul\":25132:25263   */\n      tag_554\n        /* \"#utility.yul\":25258:25262   */\n      dup2\n        /* \"#utility.yul\":25132:25263   */\n      tag_302\n      jump\t// in\n    tag_554:\n        /* \"#utility.yul\":25124:25263   */\n      swap1\n      pop\n        /* \"#utility.yul\":24851:25270   */\n      swap2\n      swap1\n      pop\n      jump\t// out\n\n    auxdata: 0xa2646970667358221220d39c32d443037e5b20b486672ce5765188096b4dda724cde373699aa5213c0b864736f6c634300081a0033\n}\n",
				"bytecode": {
					"linkReferences": {},
					"object": "60c060405260015f60156101000a81548160ff0219169083151502179055505f6003555f6009555f600a55348015610035575f80fd5b506040516120b03803806120b083398181016040528101906100579190610222565b5f805f6101000a81548160ff02191690831515021790555061008b6100806100fa60201b60201c565b61010160201b60201c565b8173ffffffffffffffffffffffffffffffffffffffff1660808173ffffffffffffffffffffffffffffffffffffffff16815250508073ffffffffffffffffffffffffffffffffffffffff1660a08173ffffffffffffffffffffffffffffffffffffffff16815250505050610260565b5f33905090565b5f8060019054906101000a900473ffffffffffffffffffffffffffffffffffffffff169050815f60016101000a81548173ffffffffffffffffffffffffffffffffffffffff021916908373ffffffffffffffffffffffffffffffffffffffff1602179055508173ffffffffffffffffffffffffffffffffffffffff168173ffffffffffffffffffffffffffffffffffffffff167f8be0079c531659141344cd1fd0a4f28419497f9722a3daafe3b4186f6b6457e060405160405180910390a35050565b5f80fd5b5f73ffffffffffffffffffffffffffffffffffffffff82169050919050565b5f6101f1826101c8565b9050919050565b610201816101e7565b811461020b575f80fd5b50565b5f8151905061021c816101f8565b92915050565b5f8060408385031215610238576102376101c4565b5b5f6102458582860161020e565b92505060206102568582860161020e565b9150509250929050565b60805160a051611e1a6102965f395f8181610b200152610bae01525f81816106d101528181610c3d0152610ff80152611e1a5ff3fe608060405234801561000f575f80fd5b5060043610610135575f3560e01c80638da5cb5b116100b6578063e055aeeb1161007a578063e055aeeb14610307578063e322ad2b14610337578063e6367ebe14610355578063e808876614610373578063ed969c841461037d578063f2fde38b146103ad57610135565b80638da5cb5b14610275578063b99152d014610293578063c1f74cc8146102c3578063c794363e146102e1578063c964ad45146102fd57610135565b8063715018a6116100fd578063715018a6146101e1578063722713f7146101eb578063723e27ff1461020957806373f42561146102275780637754723e1461024557610135565b80631d9abd7f146101395780632e1a7d4d146101555780635c975abb14610171578063679aefce1461018f5780636a9d43dd146101b1575b5f80fd5b610153600480360381019061014e9190611106565b6103c9565b005b61016f600480360381019061016a9190611164565b610414565b005b610179610489565b60405161018691906111a9565b60405180910390f35b61019761049d565b6040516101a8959493929190611241565b60405180910390f35b6101cb60048036038101906101c691906112a0565b6105e3565b6040516101d891906111a9565b60405180910390f35b6101e96106bb565b005b6101f36106ce565b60405161020091906112f0565b60405180910390f35b61021161076c565b60405161021e91906111a9565b60405180910390f35b61022f610877565b60405161023c91906112f0565b60405180910390f35b61025f600480360381019061025a9190611309565b61087d565b60405161026c91906112f0565b60405180910390f35b61027d6108f1565b60405161028a9190611368565b60405180910390f35b6102ad60048036038101906102a89190611106565b610919565b6040516102ba91906112f0565b60405180910390f35b6102cb6109a1565b6040516102d891906112f0565b60405180910390f35b6102fb60048036038101906102f69190611106565b6109a7565b005b6103056109f2565b005b610321600480360381019061031c9190611309565b610a1d565b60405161032e91906112f0565b60405180910390f35b61033f610a4f565b60405161034c91906112f0565b60405180910390f35b61035d610a55565b60405161036a9190611381565b60405180910390f35b61037b610aeb565b005b61039760048036038101906103929190611164565b610b1d565b6040516103a491906111a9565b60405180910390f35b6103c760048036038101906103c29190611106565b610def565b005b6103d1610e71565b8060015f6101000a81548173ffffffffffffffffffffffffffffffffffffffff021916908373ffffffffffffffffffffffffffffffffffffffff16021790555050565b61041c610e71565b600a5460095461042c91906113ce565b81111561046e576040517f08c379a000000000000000000000000000000000000000000000000000000000815260040161046590611471565b60405180910390fd5b80600a5f82825461047f919061148f565b9250508190555050565b5f805f9054906101000a900460ff16905090565b5f8060605f606060045f01546004600101546004600201600460030154600480018280546104ca906114ef565b80601f01602080910402602001604051908101604052809291908181526020018280546104f6906114ef565b80156105415780601f1061051857610100808354040283529160200191610541565b820191905f5260205f20905b81548152906001019060200180831161052457829003601f168201915b50505050509250808054610554906114ef565b80601f0160208091040260200160405190810160405280929190818152602001828054610580906114ef565b80156105cb5780601f106105a2576101008083540402835291602001916105cb565b820191905f5260205f20905b8154815290600101906020018083116105ae57829003601f168201915b50505050509050945094509450945094509091929394565b5f6105ec610e71565b816105f685610919565b1015610637576040517f08c379a000000000000000000000000000000000000000000000000000000000815260040161062e90611569565b60405180910390fd5b8373ffffffffffffffffffffffffffffffffffffffff1663a9059cbb84846040518363ffffffff1660e01b8152600401610672929190611587565b6020604051808303815f875af115801561068e573d5f803e3d5ffd5b505050506040513d601f19601f820116820180604052508101906106b291906115d8565b90509392505050565b6106c3610e71565b6106cc5f610eef565b565b5f7f000000000000000000000000000000000000000000000000000000000000000073ffffffffffffffffffffffffffffffffffffffff166370a08231306040518263ffffffff1660e01b81526004016107289190611368565b602060405180830381865afa158015610743573d5f803e3d5ffd5b505050506040513d601f19601f820116820180604052508101906107679190611617565b905090565b5f62a98ac760045f018190555060086004600101819055506040518060400160405280601281526020017f66616b65555344542f44756d6d795054524e0000000000000000000000000000815250600460020190816107cb919061180c565b5063655600aa6004600301819055505f60159054906101000a900460ff16610828576040518060400160405280600b81526020017f416772656761746f72563300000000000000000000000000000000000000000081525061085f565b6040518060400160405280600481526020017f506f6f6c000000000000000000000000000000000000000000000000000000008152505b60048001908161086f919061180c565b506001905090565b60035481565b5f8083116108c0576040517f08c379a00000000000000000000000000000000000000000000000000000000081526004016108b790611925565b60405180910390fd5b5f82600a6108ce9190611a72565b856108d99190611abc565b905083816108e79190611b2a565b9150509392505050565b5f8060019054906101000a900473ffffffffffffffffffffffffffffffffffffffff16905090565b5f610922610e71565b8173ffffffffffffffffffffffffffffffffffffffff166370a08231306040518263ffffffff1660e01b815260040161095b9190611368565b602060405180830381865afa158015610976573d5f803e3d5ffd5b505050506040513d601f19601f8201168201806040525081019061099a9190611617565b9050919050565b600a5481565b6109af610e71565b8060025f6101000a81548173ffffffffffffffffffffffffffffffffffffffff021916908373ffffffffffffffffffffffffffffffffffffffff16021790555050565b6109fa610e71565b600a5460095f828254610a0d91906113ce565b925050819055505f600a81905550565b5f808385610a2b9190611abc565b905082600a610a3a9190611a72565b81610a459190611b2a565b9150509392505050565b60095481565b6060805f60159054906101000a900460ff16610aa9576040518060400160405280600c81526020017f41676772656761746f7256330000000000000000000000000000000000000000815250905080610ae3565b6040518060400160405280600481526020017f506f6f6c000000000000000000000000000000000000000000000000000000008152509050805b508091505090565b610af3610e71565b5f60159054906101000a900460ff16155f60156101000a81548160ff021916908315150217905550565b5f7f000000000000000000000000000000000000000000000000000000000000000073ffffffffffffffffffffffffffffffffffffffff163373ffffffffffffffffffffffffffffffffffffffff1614610bac576040517f08c379a0000000000000000000000000000000000000000000000000000000008152600401610ba390611ba4565b60405180910390fd5b7f000000000000000000000000000000000000000000000000000000000000000073ffffffffffffffffffffffffffffffffffffffff163373ffffffffffffffffffffffffffffffffffffffff1614610c3a576040517f08c379a0000000000000000000000000000000000000000000000000000000008152600401610c3190611ba4565b60405180910390fd5b5f7f000000000000000000000000000000000000000000000000000000000000000090505f8173ffffffffffffffffffffffffffffffffffffffff1663dd62ed3e33306040518363ffffffff1660e01b8152600401610c9a929190611bc2565b602060405180830381865afa158015610cb5573d5f803e3d5ffd5b505050506040513d601f19601f82011682018060405250810190610cd99190611617565b905083811015610d1e576040517f08c379a0000000000000000000000000000000000000000000000000000000008152600401610d1590611c33565b60405180910390fd5b8173ffffffffffffffffffffffffffffffffffffffff166323b872dd3330876040518463ffffffff1660e01b8152600401610d5b93929190611c51565b6020604051808303815f875af1158015610d77573d5f803e3d5ffd5b505050506040513d601f19601f82011682018060405250810190610d9b91906115d8565b50610da461076c565b505f80610daf61049d565b50505091509150610dbf86610fb2565b50610dcb868383610a1d565b60095f828254610ddb919061148f565b925050819055506001945050505050919050565b610df7610e71565b5f73ffffffffffffffffffffffffffffffffffffffff168173ffffffffffffffffffffffffffffffffffffffff1603610e65576040517f08c379a0000000000000000000000000000000000000000000000000000000008152600401610e5c90611cf6565b60405180910390fd5b610e6e81610eef565b50565b610e796110a1565b73ffffffffffffffffffffffffffffffffffffffff16610e976108f1565b73ffffffffffffffffffffffffffffffffffffffff1614610eed576040517f08c379a0000000000000000000000000000000000000000000000000000000008152600401610ee490611d5e565b60405180910390fd5b565b5f8060019054906101000a900473ffffffffffffffffffffffffffffffffffffffff169050815f60016101000a81548173ffffffffffffffffffffffffffffffffffffffff021916908373ffffffffffffffffffffffffffffffffffffffff1602179055508173ffffffffffffffffffffffffffffffffffffffff168173ffffffffffffffffffffffffffffffffffffffff167f8be0079c531659141344cd1fd0a4f28419497f9722a3daafe3b4186f6b6457e060405160405180910390a35050565b5f808211610ff5576040517f08c379a0000000000000000000000000000000000000000000000000000000008152600401610fec90611dc6565b60405180910390fd5b5f7f000000000000000000000000000000000000000000000000000000000000000090508073ffffffffffffffffffffffffffffffffffffffff166342966c68846040518263ffffffff1660e01b815260040161105291906112f0565b5f604051808303815f87803b158015611069575f80fd5b505af115801561107b573d5f803e3d5ffd5b505050508260035f828254611090919061148f565b925050819055506001915050919050565b5f33905090565b5f80fd5b5f73ffffffffffffffffffffffffffffffffffffffff82169050919050565b5f6110d5826110ac565b9050919050565b6110e5816110cb565b81146110ef575f80fd5b50565b5f81359050611100816110dc565b92915050565b5f6020828403121561111b5761111a6110a8565b5b5f611128848285016110f2565b91505092915050565b5f819050919050565b61114381611131565b811461114d575f80fd5b50565b5f8135905061115e8161113a565b92915050565b5f60208284031215611179576111786110a8565b5b5f61118684828501611150565b91505092915050565b5f8115159050919050565b6111a38161118f565b82525050565b5f6020820190506111bc5f83018461119a565b92915050565b6111cb81611131565b82525050565b5f81519050919050565b5f82825260208201905092915050565b8281835e5f83830152505050565b5f601f19601f8301169050919050565b5f611213826111d1565b61121d81856111db565b935061122d8185602086016111eb565b611236816111f9565b840191505092915050565b5f60a0820190506112545f8301886111c2565b61126160208301876111c2565b81810360408301526112738186611209565b905061128260608301856111c2565b81810360808301526112948184611209565b90509695505050505050565b5f805f606084860312156112b7576112b66110a8565b5b5f6112c4868287016110f2565b93505060206112d5868287016110f2565b92505060406112e686828701611150565b9150509250925092565b5f6020820190506113035f8301846111c2565b92915050565b5f805f606084860312156113205761131f6110a8565b5b5f61132d86828701611150565b935050602061133e86828701611150565b925050604061134f86828701611150565b9150509250925092565b611362816110cb565b82525050565b5f60208201905061137b5f830184611359565b92915050565b5f6020820190508181035f8301526113998184611209565b905092915050565b7f4e487b71000000000000000000000000000000000000000000000000000000005f52601160045260245ffd5b5f6113d882611131565b91506113e383611131565b92508282039050818111156113fb576113fa6113a1565b5b92915050565b7f4e6f7420656e6f75676820706f696e74732e2054686520636f6e7472616374205f8201527f6d75737420626520636861726765642077697468206d6f7265205054524e0000602082015250565b5f61145b603e836111db565b915061146682611401565b604082019050919050565b5f6020820190508181035f8301526114888161144f565b9050919050565b5f61149982611131565b91506114a483611131565b92508282019050808211156114bc576114bb6113a1565b5b92915050565b7f4e487b71000000000000000000000000000000000000000000000000000000005f52602260045260245ffd5b5f600282049050600182168061150657607f821691505b602082108103611519576115186114c2565b5b50919050565b7f4e6f7420656e6f7567682062616c616e636521000000000000000000000000005f82015250565b5f6115536013836111db565b915061155e8261151f565b602082019050919050565b5f6020820190508181035f83015261158081611547565b9050919050565b5f60408201905061159a5f830185611359565b6115a760208301846111c2565b9392505050565b6115b78161118f565b81146115c1575f80fd5b50565b5f815190506115d2816115ae565b92915050565b5f602082840312156115ed576115ec6110a8565b5b5f6115fa848285016115c4565b91505092915050565b5f815190506116118161113a565b92915050565b5f6020828403121561162c5761162b6110a8565b5b5f61163984828501611603565b91505092915050565b7f4e487b71000000000000000000000000000000000000000000000000000000005f52604160045260245ffd5b5f819050815f5260205f209050919050565b5f6020601f8301049050919050565b5f82821b905092915050565b5f600883026116cb7fffffffffffffffffffffffffffffffffffffffffffffffffffffffffffffffff82611690565b6116d58683611690565b95508019841693508086168417925050509392505050565b5f819050919050565b5f61171061170b61170684611131565b6116ed565b611131565b9050919050565b5f819050919050565b611729836116f6565b61173d61173582611717565b84845461169c565b825550505050565b5f90565b611751611745565b61175c818484611720565b505050565b5b8181101561177f576117745f82611749565b600181019050611762565b5050565b601f8211156117c4576117958161166f565b61179e84611681565b810160208510156117ad578190505b6117c16117b985611681565b830182611761565b50505b505050565b5f82821c905092915050565b5f6117e45f19846008026117c9565b1980831691505092915050565b5f6117fc83836117d5565b9150826002028217905092915050565b611815826111d1565b67ffffffffffffffff81111561182e5761182d611642565b5b61183882546114ef565b611843828285611783565b5f60209050601f831160018114611874575f8415611862578287015190505b61186c85826117f1565b8655506118d3565b601f1984166118828661166f565b5f5b828110156118a957848901518255600182019150602085019450602081019050611884565b868310156118c657848901516118c2601f8916826117d5565b8355505b6001600288020188555050505b505050505050565b7f52617465206d7573742062652067726561746572207468616e207a65726f00005f82015250565b5f61190f601e836111db565b915061191a826118db565b602082019050919050565b5f6020820190508181035f83015261193c81611903565b9050919050565b5f8160011c9050919050565b5f808291508390505b600185111561199857808604811115611974576119736113a1565b5b60018516156119835780820291505b808102905061199185611943565b9450611958565b94509492505050565b5f826119b05760019050611a6b565b816119bd575f9050611a6b565b81600181146119d357600281146119dd57611a0c565b6001915050611a6b565b60ff8411156119ef576119ee6113a1565b5b8360020a915084821115611a0657611a056113a1565b5b50611a6b565b5060208310610133831016604e8410600b8410161715611a415782820a905083811115611a3c57611a3b6113a1565b5b611a6b565b611a4e848484600161194f565b92509050818404811115611a6557611a646113a1565b5b81810290505b9392505050565b5f611a7c82611131565b9150611a8783611131565b9250611ab47fffffffffffffffffffffffffffffffffffffffffffffffffffffffffffffffff84846119a1565b905092915050565b5f611ac682611131565b9150611ad183611131565b9250828202611adf81611131565b91508282048414831517611af657611af56113a1565b5b5092915050565b7f4e487b71000000000000000000000000000000000000000000000000000000005f52601260045260245ffd5b5f611b3482611131565b9150611b3f83611131565b925082611b4f57611b4e611afd565b5b828204905092915050565b7f53656e646572206e6f7420617574686f72697a656400000000000000000000005f82015250565b5f611b8e6015836111db565b9150611b9982611b5a565b602082019050919050565b5f6020820190508181035f830152611bbb81611b82565b9050919050565b5f604082019050611bd55f830185611359565b611be26020830184611359565b9392505050565b7f436865636b2074686520746f6b656e20616c6c6f77616e6365000000000000005f82015250565b5f611c1d6019836111db565b9150611c2882611be9565b602082019050919050565b5f6020820190508181035f830152611c4a81611c11565b9050919050565b5f606082019050611c645f830186611359565b611c716020830185611359565b611c7e60408301846111c2565b949350505050565b7f4f776e61626c653a206e6577206f776e657220697320746865207a65726f20615f8201527f6464726573730000000000000000000000000000000000000000000000000000602082015250565b5f611ce06026836111db565b9150611ceb82611c86565b604082019050919050565b5f6020820190508181035f830152611d0d81611cd4565b9050919050565b7f4f776e61626c653a2063616c6c6572206973206e6f7420746865206f776e65725f82015250565b5f611d486020836111db565b9150611d5382611d14565b602082019050919050565b5f6020820190508181035f830152611d7581611d3c565b9050919050565b7f4e6f20746f6b656e7320746f206265206275726e6564210000000000000000005f82015250565b5f611db06017836111db565b9150611dbb82611d7c565b602082019050919050565b5f6020820190508181035f830152611ddd81611da4565b905091905056fea2646970667358221220d39c32d443037e5b20b486672ce5765188096b4dda724cde373699aa5213c0b864736f6c634300081a0033",
					"opcodes": "PUSH1 0xC0 PUSH1 0x40 MSTORE PUSH1 0x1 PUSH0 PUSH1 0x15 PUSH2 0x100 EXP DUP2 SLOAD DUP2 PUSH1 0xFF MUL NOT AND SWAP1 DUP4 ISZERO ISZERO MUL OR SWAP1 SSTORE POP PUSH0 PUSH1 0x3 SSTORE PUSH0 PUSH1 0x9 SSTORE PUSH0 PUSH1 0xA SSTORE CALLVALUE DUP1 ISZERO PUSH2 0x35 JUMPI PUSH0 DUP1 REVERT JUMPDEST POP PUSH1 0x40 MLOAD PUSH2 0x20B0 CODESIZE SUB DUP1 PUSH2 0x20B0 DUP4 CODECOPY DUP2 DUP2 ADD PUSH1 0x40 MSTORE DUP2 ADD SWAP1 PUSH2 0x57 SWAP2 SWAP1 PUSH2 0x222 JUMP JUMPDEST PUSH0 DUP1 PUSH0 PUSH2 0x100 EXP DUP2 SLOAD DUP2 PUSH1 0xFF MUL NOT AND SWAP1 DUP4 ISZERO ISZERO MUL OR SWAP1 SSTORE POP PUSH2 0x8B PUSH2 0x80 PUSH2 0xFA PUSH1 0x20 SHL PUSH1 0x20 SHR JUMP JUMPDEST PUSH2 0x101 PUSH1 0x20 SHL PUSH1 0x20 SHR JUMP JUMPDEST DUP2 PUSH20 0xFFFFFFFFFFFFFFFFFFFFFFFFFFFFFFFFFFFFFFFF AND PUSH1 0x80 DUP2 PUSH20 0xFFFFFFFFFFFFFFFFFFFFFFFFFFFFFFFFFFFFFFFF AND DUP2 MSTORE POP POP DUP1 PUSH20 0xFFFFFFFFFFFFFFFFFFFFFFFFFFFFFFFFFFFFFFFF AND PUSH1 0xA0 DUP2 PUSH20 0xFFFFFFFFFFFFFFFFFFFFFFFFFFFFFFFFFFFFFFFF AND DUP2 MSTORE POP POP POP POP PUSH2 0x260 JUMP JUMPDEST PUSH0 CALLER SWAP1 POP SWAP1 JUMP JUMPDEST PUSH0 DUP1 PUSH1 0x1 SWAP1 SLOAD SWAP1 PUSH2 0x100 EXP SWAP1 DIV PUSH20 0xFFFFFFFFFFFFFFFFFFFFFFFFFFFFFFFFFFFFFFFF AND SWAP1 POP DUP2 PUSH0 PUSH1 0x1 PUSH2 0x100 EXP DUP2 SLOAD DUP2 PUSH20 0xFFFFFFFFFFFFFFFFFFFFFFFFFFFFFFFFFFFFFFFF MUL NOT AND SWAP1 DUP4 PUSH20 0xFFFFFFFFFFFFFFFFFFFFFFFFFFFFFFFFFFFFFFFF AND MUL OR SWAP1 SSTORE POP DUP2 PUSH20 0xFFFFFFFFFFFFFFFFFFFFFFFFFFFFFFFFFFFFFFFF AND DUP2 PUSH20 0xFFFFFFFFFFFFFFFFFFFFFFFFFFFFFFFFFFFFFFFF AND PUSH32 0x8BE0079C531659141344CD1FD0A4F28419497F9722A3DAAFE3B4186F6B6457E0 PUSH1 0x40 MLOAD PUSH1 0x40 MLOAD DUP1 SWAP2 SUB SWAP1 LOG3 POP POP JUMP JUMPDEST PUSH0 DUP1 REVERT JUMPDEST PUSH0 PUSH20 0xFFFFFFFFFFFFFFFFFFFFFFFFFFFFFFFFFFFFFFFF DUP3 AND SWAP1 POP SWAP2 SWAP1 POP JUMP JUMPDEST PUSH0 PUSH2 0x1F1 DUP3 PUSH2 0x1C8 JUMP JUMPDEST SWAP1 POP SWAP2 SWAP1 POP JUMP JUMPDEST PUSH2 0x201 DUP2 PUSH2 0x1E7 JUMP JUMPDEST DUP2 EQ PUSH2 0x20B JUMPI PUSH0 DUP1 REVERT JUMPDEST POP JUMP JUMPDEST PUSH0 DUP2 MLOAD SWAP1 POP PUSH2 0x21C DUP2 PUSH2 0x1F8 JUMP JUMPDEST SWAP3 SWAP2 POP POP JUMP JUMPDEST PUSH0 DUP1 PUSH1 0x40 DUP4 DUP6 SUB SLT ISZERO PUSH2 0x238 JUMPI PUSH2 0x237 PUSH2 0x1C4 JUMP JUMPDEST JUMPDEST PUSH0 PUSH2 0x245 DUP6 DUP3 DUP7 ADD PUSH2 0x20E JUMP JUMPDEST SWAP3 POP POP PUSH1 0x20 PUSH2 0x256 DUP6 DUP3 DUP7 ADD PUSH2 0x20E JUMP JUMPDEST SWAP2 POP POP SWAP3 POP SWAP3 SWAP1 POP JUMP JUMPDEST PUSH1 0x80 MLOAD PUSH1 0xA0 MLOAD PUSH2 0x1E1A PUSH2 0x296 PUSH0 CODECOPY PUSH0 DUP2 DUP2 PUSH2 0xB20 ADD MSTORE PUSH2 0xBAE ADD MSTORE PUSH0 DUP2 DUP2 PUSH2 0x6D1 ADD MSTORE DUP2 DUP2 PUSH2 0xC3D ADD MSTORE PUSH2 0xFF8 ADD MSTORE PUSH2 0x1E1A PUSH0 RETURN INVALID PUSH1 0x80 PUSH1 0x40 MSTORE CALLVALUE DUP1 ISZERO PUSH2 0xF JUMPI PUSH0 DUP1 REVERT JUMPDEST POP PUSH1 0x4 CALLDATASIZE LT PUSH2 0x135 JUMPI PUSH0 CALLDATALOAD PUSH1 0xE0 SHR DUP1 PUSH4 0x8DA5CB5B GT PUSH2 0xB6 JUMPI DUP1 PUSH4 0xE055AEEB GT PUSH2 0x7A JUMPI DUP1 PUSH4 0xE055AEEB EQ PUSH2 0x307 JUMPI DUP1 PUSH4 0xE322AD2B EQ PUSH2 0x337 JUMPI DUP1 PUSH4 0xE6367EBE EQ PUSH2 0x355 JUMPI DUP1 PUSH4 0xE8088766 EQ PUSH2 0x373 JUMPI DUP1 PUSH4 0xED969C84 EQ PUSH2 0x37D JUMPI DUP1 PUSH4 0xF2FDE38B EQ PUSH2 0x3AD JUMPI PUSH2 0x135 JUMP JUMPDEST DUP1 PUSH4 0x8DA5CB5B EQ PUSH2 0x275 JUMPI DUP1 PUSH4 0xB99152D0 EQ PUSH2 0x293 JUMPI DUP1 PUSH4 0xC1F74CC8 EQ PUSH2 0x2C3 JUMPI DUP1 PUSH4 0xC794363E EQ PUSH2 0x2E1 JUMPI DUP1 PUSH4 0xC964AD45 EQ PUSH2 0x2FD JUMPI PUSH2 0x135 JUMP JUMPDEST DUP1 PUSH4 0x715018A6 GT PUSH2 0xFD JUMPI DUP1 PUSH4 0x715018A6 EQ PUSH2 0x1E1 JUMPI DUP1 PUSH4 0x722713F7 EQ PUSH2 0x1EB JUMPI DUP1 PUSH4 0x723E27FF EQ PUSH2 0x209 JUMPI DUP1 PUSH4 0x73F42561 EQ PUSH2 0x227 JUMPI DUP1 PUSH4 0x7754723E EQ PUSH2 0x245 JUMPI PUSH2 0x135 JUMP JUMPDEST DUP1 PUSH4 0x1D9ABD7F EQ PUSH2 0x139 JUMPI DUP1 PUSH4 0x2E1A7D4D EQ PUSH2 0x155 JUMPI DUP1 PUSH4 0x5C975ABB EQ PUSH2 0x171 JUMPI DUP1 PUSH4 0x679AEFCE EQ PUSH2 0x18F JUMPI DUP1 PUSH4 0x6A9D43DD EQ PUSH2 0x1B1 JUMPI JUMPDEST PUSH0 DUP1 REVERT JUMPDEST PUSH2 0x153 PUSH1 0x4 DUP1 CALLDATASIZE SUB DUP2 ADD SWAP1 PUSH2 0x14E SWAP2 SWAP1 PUSH2 0x1106 JUMP JUMPDEST PUSH2 0x3C9 JUMP JUMPDEST STOP JUMPDEST PUSH2 0x16F PUSH1 0x4 DUP1 CALLDATASIZE SUB DUP2 ADD SWAP1 PUSH2 0x16A SWAP2 SWAP1 PUSH2 0x1164 JUMP JUMPDEST PUSH2 0x414 JUMP JUMPDEST STOP JUMPDEST PUSH2 0x179 PUSH2 0x489 JUMP JUMPDEST PUSH1 0x40 MLOAD PUSH2 0x186 SWAP2 SWAP1 PUSH2 0x11A9 JUMP JUMPDEST PUSH1 0x40 MLOAD DUP1 SWAP2 SUB SWAP1 RETURN JUMPDEST PUSH2 0x197 PUSH2 0x49D JUMP JUMPDEST PUSH1 0x40 MLOAD PUSH2 0x1A8 SWAP6 SWAP5 SWAP4 SWAP3 SWAP2 SWAP1 PUSH2 0x1241 JUMP JUMPDEST PUSH1 0x40 MLOAD DUP1 SWAP2 SUB SWAP1 RETURN JUMPDEST PUSH2 0x1CB PUSH1 0x4 DUP1 CALLDATASIZE SUB DUP2 ADD SWAP1 PUSH2 0x1C6 SWAP2 SWAP1 PUSH2 0x12A0 JUMP JUMPDEST PUSH2 0x5E3 JUMP JUMPDEST PUSH1 0x40 MLOAD PUSH2 0x1D8 SWAP2 SWAP1 PUSH2 0x11A9 JUMP JUMPDEST PUSH1 0x40 MLOAD DUP1 SWAP2 SUB SWAP1 RETURN JUMPDEST PUSH2 0x1E9 PUSH2 0x6BB JUMP JUMPDEST STOP JUMPDEST PUSH2 0x1F3 PUSH2 0x6CE JUMP JUMPDEST PUSH1 0x40 MLOAD PUSH2 0x200 SWAP2 SWAP1 PUSH2 0x12F0 JUMP JUMPDEST PUSH1 0x40 MLOAD DUP1 SWAP2 SUB SWAP1 RETURN JUMPDEST PUSH2 0x211 PUSH2 0x76C JUMP JUMPDEST PUSH1 0x40 MLOAD PUSH2 0x21E SWAP2 SWAP1 PUSH2 0x11A9 JUMP JUMPDEST PUSH1 0x40 MLOAD DUP1 SWAP2 SUB SWAP1 RETURN JUMPDEST PUSH2 0x22F PUSH2 0x877 JUMP JUMPDEST PUSH1 0x40 MLOAD PUSH2 0x23C SWAP2 SWAP1 PUSH2 0x12F0 JUMP JUMPDEST PUSH1 0x40 MLOAD DUP1 SWAP2 SUB SWAP1 RETURN JUMPDEST PUSH2 0x25F PUSH1 0x4 DUP1 CALLDATASIZE SUB DUP2 ADD SWAP1 PUSH2 0x25A SWAP2 SWAP1 PUSH2 0x1309 JUMP JUMPDEST PUSH2 0x87D JUMP JUMPDEST PUSH1 0x40 MLOAD PUSH2 0x26C SWAP2 SWAP1 PUSH2 0x12F0 JUMP JUMPDEST PUSH1 0x40 MLOAD DUP1 SWAP2 SUB SWAP1 RETURN JUMPDEST PUSH2 0x27D PUSH2 0x8F1 JUMP JUMPDEST PUSH1 0x40 MLOAD PUSH2 0x28A SWAP2 SWAP1 PUSH2 0x1368 JUMP JUMPDEST PUSH1 0x40 MLOAD DUP1 SWAP2 SUB SWAP1 RETURN JUMPDEST PUSH2 0x2AD PUSH1 0x4 DUP1 CALLDATASIZE SUB DUP2 ADD SWAP1 PUSH2 0x2A8 SWAP2 SWAP1 PUSH2 0x1106 JUMP JUMPDEST PUSH2 0x919 JUMP JUMPDEST PUSH1 0x40 MLOAD PUSH2 0x2BA SWAP2 SWAP1 PUSH2 0x12F0 JUMP JUMPDEST PUSH1 0x40 MLOAD DUP1 SWAP2 SUB SWAP1 RETURN JUMPDEST PUSH2 0x2CB PUSH2 0x9A1 JUMP JUMPDEST PUSH1 0x40 MLOAD PUSH2 0x2D8 SWAP2 SWAP1 PUSH2 0x12F0 JUMP JUMPDEST PUSH1 0x40 MLOAD DUP1 SWAP2 SUB SWAP1 RETURN JUMPDEST PUSH2 0x2FB PUSH1 0x4 DUP1 CALLDATASIZE SUB DUP2 ADD SWAP1 PUSH2 0x2F6 SWAP2 SWAP1 PUSH2 0x1106 JUMP JUMPDEST PUSH2 0x9A7 JUMP JUMPDEST STOP JUMPDEST PUSH2 0x305 PUSH2 0x9F2 JUMP JUMPDEST STOP JUMPDEST PUSH2 0x321 PUSH1 0x4 DUP1 CALLDATASIZE SUB DUP2 ADD SWAP1 PUSH2 0x31C SWAP2 SWAP1 PUSH2 0x1309 JUMP JUMPDEST PUSH2 0xA1D JUMP JUMPDEST PUSH1 0x40 MLOAD PUSH2 0x32E SWAP2 SWAP1 PUSH2 0x12F0 JUMP JUMPDEST PUSH1 0x40 MLOAD DUP1 SWAP2 SUB SWAP1 RETURN JUMPDEST PUSH2 0x33F PUSH2 0xA4F JUMP JUMPDEST PUSH1 0x40 MLOAD PUSH2 0x34C SWAP2 SWAP1 PUSH2 0x12F0 JUMP JUMPDEST PUSH1 0x40 MLOAD DUP1 SWAP2 SUB SWAP1 RETURN JUMPDEST PUSH2 0x35D PUSH2 0xA55 JUMP JUMPDEST PUSH1 0x40 MLOAD PUSH2 0x36A SWAP2 SWAP1 PUSH2 0x1381 JUMP JUMPDEST PUSH1 0x40 MLOAD DUP1 SWAP2 SUB SWAP1 RETURN JUMPDEST PUSH2 0x37B PUSH2 0xAEB JUMP JUMPDEST STOP JUMPDEST PUSH2 0x397 PUSH1 0x4 DUP1 CALLDATASIZE SUB DUP2 ADD SWAP1 PUSH2 0x392 SWAP2 SWAP1 PUSH2 0x1164 JUMP JUMPDEST PUSH2 0xB1D JUMP JUMPDEST PUSH1 0x40 MLOAD PUSH2 0x3A4 SWAP2 SWAP1 PUSH2 0x11A9 JUMP JUMPDEST PUSH1 0x40 MLOAD DUP1 SWAP2 SUB SWAP1 RETURN JUMPDEST PUSH2 0x3C7 PUSH1 0x4 DUP1 CALLDATASIZE SUB DUP2 ADD SWAP1 PUSH2 0x3C2 SWAP2 SWAP1 PUSH2 0x1106 JUMP JUMPDEST PUSH2 0xDEF JUMP JUMPDEST STOP JUMPDEST PUSH2 0x3D1 PUSH2 0xE71 JUMP JUMPDEST DUP1 PUSH1 0x1 PUSH0 PUSH2 0x100 EXP DUP2 SLOAD DUP2 PUSH20 0xFFFFFFFFFFFFFFFFFFFFFFFFFFFFFFFFFFFFFFFF MUL NOT AND SWAP1 DUP4 PUSH20 0xFFFFFFFFFFFFFFFFFFFFFFFFFFFFFFFFFFFFFFFF AND MUL OR SWAP1 SSTORE POP POP JUMP JUMPDEST PUSH2 0x41C PUSH2 0xE71 JUMP JUMPDEST PUSH1 0xA SLOAD PUSH1 0x9 SLOAD PUSH2 0x42C SWAP2 SWAP1 PUSH2 0x13CE JUMP JUMPDEST DUP2 GT ISZERO PUSH2 0x46E JUMPI PUSH1 0x40 MLOAD PUSH32 0x8C379A000000000000000000000000000000000000000000000000000000000 DUP2 MSTORE PUSH1 0x4 ADD PUSH2 0x465 SWAP1 PUSH2 0x1471 JUMP JUMPDEST PUSH1 0x40 MLOAD DUP1 SWAP2 SUB SWAP1 REVERT JUMPDEST DUP1 PUSH1 0xA PUSH0 DUP3 DUP3 SLOAD PUSH2 0x47F SWAP2 SWAP1 PUSH2 0x148F JUMP JUMPDEST SWAP3 POP POP DUP2 SWAP1 SSTORE POP POP JUMP JUMPDEST PUSH0 DUP1 PUSH0 SWAP1 SLOAD SWAP1 PUSH2 0x100 EXP SWAP1 DIV PUSH1 0xFF AND SWAP1 POP SWAP1 JUMP JUMPDEST PUSH0 DUP1 PUSH1 0x60 PUSH0 PUSH1 0x60 PUSH1 0x4 PUSH0 ADD SLOAD PUSH1 0x4 PUSH1 0x1 ADD SLOAD PUSH1 0x4 PUSH1 0x2 ADD PUSH1 0x4 PUSH1 0x3 ADD SLOAD PUSH1 0x4 DUP1 ADD DUP3 DUP1 SLOAD PUSH2 0x4CA SWAP1 PUSH2 0x14EF JUMP JUMPDEST DUP1 PUSH1 0x1F ADD PUSH1 0x20 DUP1 SWAP2 DIV MUL PUSH1 0x20 ADD PUSH1 0x40 MLOAD SWAP1 DUP2 ADD PUSH1 0x40 MSTORE DUP1 SWAP3 SWAP2 SWAP1 DUP2 DUP2 MSTORE PUSH1 0x20 ADD DUP3 DUP1 SLOAD PUSH2 0x4F6 SWAP1 PUSH2 0x14EF JUMP JUMPDEST DUP1 ISZERO PUSH2 0x541 JUMPI DUP1 PUSH1 0x1F LT PUSH2 0x518 JUMPI PUSH2 0x100 DUP1 DUP4 SLOAD DIV MUL DUP4 MSTORE SWAP2 PUSH1 0x20 ADD SWAP2 PUSH2 0x541 JUMP JUMPDEST DUP3 ADD SWAP2 SWAP1 PUSH0 MSTORE PUSH1 0x20 PUSH0 KECCAK256 SWAP1 JUMPDEST DUP2 SLOAD DUP2 MSTORE SWAP1 PUSH1 0x1 ADD SWAP1 PUSH1 0x20 ADD DUP1 DUP4 GT PUSH2 0x524 JUMPI DUP3 SWAP1 SUB PUSH1 0x1F AND DUP3 ADD SWAP2 JUMPDEST POP POP POP POP POP SWAP3 POP DUP1 DUP1 SLOAD PUSH2 0x554 SWAP1 PUSH2 0x14EF JUMP JUMPDEST DUP1 PUSH1 0x1F ADD PUSH1 0x20 DUP1 SWAP2 DIV MUL PUSH1 0x20 ADD PUSH1 0x40 MLOAD SWAP1 DUP2 ADD PUSH1 0x40 MSTORE DUP1 SWAP3 SWAP2 SWAP1 DUP2 DUP2 MSTORE PUSH1 0x20 ADD DUP3 DUP1 SLOAD PUSH2 0x580 SWAP1 PUSH2 0x14EF JUMP JUMPDEST DUP1 ISZERO PUSH2 0x5CB JUMPI DUP1 PUSH1 0x1F LT PUSH2 0x5A2 JUMPI PUSH2 0x100 DUP1 DUP4 SLOAD DIV MUL DUP4 MSTORE SWAP2 PUSH1 0x20 ADD SWAP2 PUSH2 0x5CB JUMP JUMPDEST DUP3 ADD SWAP2 SWAP1 PUSH0 MSTORE PUSH1 0x20 PUSH0 KECCAK256 SWAP1 JUMPDEST DUP2 SLOAD DUP2 MSTORE SWAP1 PUSH1 0x1 ADD SWAP1 PUSH1 0x20 ADD DUP1 DUP4 GT PUSH2 0x5AE JUMPI DUP3 SWAP1 SUB PUSH1 0x1F AND DUP3 ADD SWAP2 JUMPDEST POP POP POP POP POP SWAP1 POP SWAP5 POP SWAP5 POP SWAP5 POP SWAP5 POP SWAP5 POP SWAP1 SWAP2 SWAP3 SWAP4 SWAP5 JUMP JUMPDEST PUSH0 PUSH2 0x5EC PUSH2 0xE71 JUMP JUMPDEST DUP2 PUSH2 0x5F6 DUP6 PUSH2 0x919 JUMP JUMPDEST LT ISZERO PUSH2 0x637 JUMPI PUSH1 0x40 MLOAD PUSH32 0x8C379A000000000000000000000000000000000000000000000000000000000 DUP2 MSTORE PUSH1 0x4 ADD PUSH2 0x62E SWAP1 PUSH2 0x1569 JUMP JUMPDEST PUSH1 0x40 MLOAD DUP1 SWAP2 SUB SWAP1 REVERT JUMPDEST DUP4 PUSH20 0xFFFFFFFFFFFFFFFFFFFFFFFFFFFFFFFFFFFFFFFF AND PUSH4 0xA9059CBB DUP5 DUP5 PUSH1 0x40 MLOAD DUP4 PUSH4 0xFFFFFFFF AND PUSH1 0xE0 SHL DUP2 MSTORE PUSH1 0x4 ADD PUSH2 0x672 SWAP3 SWAP2 SWAP1 PUSH2 0x1587 JUMP JUMPDEST PUSH1 0x20 PUSH1 0x40 MLOAD DUP1 DUP4 SUB DUP2 PUSH0 DUP8 GAS CALL ISZERO DUP1 ISZERO PUSH2 0x68E JUMPI RETURNDATASIZE PUSH0 DUP1 RETURNDATACOPY RETURNDATASIZE PUSH0 REVERT JUMPDEST POP POP POP POP PUSH1 0x40 MLOAD RETURNDATASIZE PUSH1 0x1F NOT PUSH1 0x1F DUP3 ADD AND DUP3 ADD DUP1 PUSH1 0x40 MSTORE POP DUP2 ADD SWAP1 PUSH2 0x6B2 SWAP2 SWAP1 PUSH2 0x15D8 JUMP JUMPDEST SWAP1 POP SWAP4 SWAP3 POP POP POP JUMP JUMPDEST PUSH2 0x6C3 PUSH2 0xE71 JUMP JUMPDEST PUSH2 0x6CC PUSH0 PUSH2 0xEEF JUMP JUMPDEST JUMP JUMPDEST PUSH0 PUSH32 0x0 PUSH20 0xFFFFFFFFFFFFFFFFFFFFFFFFFFFFFFFFFFFFFFFF AND PUSH4 0x70A08231 ADDRESS PUSH1 0x40 MLOAD DUP3 PUSH4 0xFFFFFFFF AND PUSH1 0xE0 SHL DUP2 MSTORE PUSH1 0x4 ADD PUSH2 0x728 SWAP2 SWAP1 PUSH2 0x1368 JUMP JUMPDEST PUSH1 0x20 PUSH1 0x40 MLOAD DUP1 DUP4 SUB DUP2 DUP7 GAS STATICCALL ISZERO DUP1 ISZERO PUSH2 0x743 JUMPI RETURNDATASIZE PUSH0 DUP1 RETURNDATACOPY RETURNDATASIZE PUSH0 REVERT JUMPDEST POP POP POP POP PUSH1 0x40 MLOAD RETURNDATASIZE PUSH1 0x1F NOT PUSH1 0x1F DUP3 ADD AND DUP3 ADD DUP1 PUSH1 0x40 MSTORE POP DUP2 ADD SWAP1 PUSH2 0x767 SWAP2 SWAP1 PUSH2 0x1617 JUMP JUMPDEST SWAP1 POP SWAP1 JUMP JUMPDEST PUSH0 PUSH3 0xA98AC7 PUSH1 0x4 PUSH0 ADD DUP2 SWAP1 SSTORE POP PUSH1 0x8 PUSH1 0x4 PUSH1 0x1 ADD DUP2 SWAP1 SSTORE POP PUSH1 0x40 MLOAD DUP1 PUSH1 0x40 ADD PUSH1 0x40 MSTORE DUP1 PUSH1 0x12 DUP2 MSTORE PUSH1 0x20 ADD PUSH32 0x66616B65555344542F44756D6D795054524E0000000000000000000000000000 DUP2 MSTORE POP PUSH1 0x4 PUSH1 0x2 ADD SWAP1 DUP2 PUSH2 0x7CB SWAP2 SWAP1 PUSH2 0x180C JUMP JUMPDEST POP PUSH4 0x655600AA PUSH1 0x4 PUSH1 0x3 ADD DUP2 SWAP1 SSTORE POP PUSH0 PUSH1 0x15 SWAP1 SLOAD SWAP1 PUSH2 0x100 EXP SWAP1 DIV PUSH1 0xFF AND PUSH2 0x828 JUMPI PUSH1 0x40 MLOAD DUP1 PUSH1 0x40 ADD PUSH1 0x40 MSTORE DUP1 PUSH1 0xB DUP2 MSTORE PUSH1 0x20 ADD PUSH32 0x416772656761746F725633000000000000000000000000000000000000000000 DUP2 MSTORE POP PUSH2 0x85F JUMP JUMPDEST PUSH1 0x40 MLOAD DUP1 PUSH1 0x40 ADD PUSH1 0x40 MSTORE DUP1 PUSH1 0x4 DUP2 MSTORE PUSH1 0x20 ADD PUSH32 0x506F6F6C00000000000000000000000000000000000000000000000000000000 DUP2 MSTORE POP JUMPDEST PUSH1 0x4 DUP1 ADD SWAP1 DUP2 PUSH2 0x86F SWAP2 SWAP1 PUSH2 0x180C JUMP JUMPDEST POP PUSH1 0x1 SWAP1 POP SWAP1 JUMP JUMPDEST PUSH1 0x3 SLOAD DUP2 JUMP JUMPDEST PUSH0 DUP1 DUP4 GT PUSH2 0x8C0 JUMPI PUSH1 0x40 MLOAD PUSH32 0x8C379A000000000000000000000000000000000000000000000000000000000 DUP2 MSTORE PUSH1 0x4 ADD PUSH2 0x8B7 SWAP1 PUSH2 0x1925 JUMP JUMPDEST PUSH1 0x40 MLOAD DUP1 SWAP2 SUB SWAP1 REVERT JUMPDEST PUSH0 DUP3 PUSH1 0xA PUSH2 0x8CE SWAP2 SWAP1 PUSH2 0x1A72 JUMP JUMPDEST DUP6 PUSH2 0x8D9 SWAP2 SWAP1 PUSH2 0x1ABC JUMP JUMPDEST SWAP1 POP DUP4 DUP2 PUSH2 0x8E7 SWAP2 SWAP1 PUSH2 0x1B2A JUMP JUMPDEST SWAP2 POP POP SWAP4 SWAP3 POP POP POP JUMP JUMPDEST PUSH0 DUP1 PUSH1 0x1 SWAP1 SLOAD SWAP1 PUSH2 0x100 EXP SWAP1 DIV PUSH20 0xFFFFFFFFFFFFFFFFFFFFFFFFFFFFFFFFFFFFFFFF AND SWAP1 POP SWAP1 JUMP JUMPDEST PUSH0 PUSH2 0x922 PUSH2 0xE71 JUMP JUMPDEST DUP2 PUSH20 0xFFFFFFFFFFFFFFFFFFFFFFFFFFFFFFFFFFFFFFFF AND PUSH4 0x70A08231 ADDRESS PUSH1 0x40 MLOAD DUP3 PUSH4 0xFFFFFFFF AND PUSH1 0xE0 SHL DUP2 MSTORE PUSH1 0x4 ADD PUSH2 0x95B SWAP2 SWAP1 PUSH2 0x1368 JUMP JUMPDEST PUSH1 0x20 PUSH1 0x40 MLOAD DUP1 DUP4 SUB DUP2 DUP7 GAS STATICCALL ISZERO DUP1 ISZERO PUSH2 0x976 JUMPI RETURNDATASIZE PUSH0 DUP1 RETURNDATACOPY RETURNDATASIZE PUSH0 REVERT JUMPDEST POP POP POP POP PUSH1 0x40 MLOAD RETURNDATASIZE PUSH1 0x1F NOT PUSH1 0x1F DUP3 ADD AND DUP3 ADD DUP1 PUSH1 0x40 MSTORE POP DUP2 ADD SWAP1 PUSH2 0x99A SWAP2 SWAP1 PUSH2 0x1617 JUMP JUMPDEST SWAP1 POP SWAP2 SWAP1 POP JUMP JUMPDEST PUSH1 0xA SLOAD DUP2 JUMP JUMPDEST PUSH2 0x9AF PUSH2 0xE71 JUMP JUMPDEST DUP1 PUSH1 0x2 PUSH0 PUSH2 0x100 EXP DUP2 SLOAD DUP2 PUSH20 0xFFFFFFFFFFFFFFFFFFFFFFFFFFFFFFFFFFFFFFFF MUL NOT AND SWAP1 DUP4 PUSH20 0xFFFFFFFFFFFFFFFFFFFFFFFFFFFFFFFFFFFFFFFF AND MUL OR SWAP1 SSTORE POP POP JUMP JUMPDEST PUSH2 0x9FA PUSH2 0xE71 JUMP JUMPDEST PUSH1 0xA SLOAD PUSH1 0x9 PUSH0 DUP3 DUP3 SLOAD PUSH2 0xA0D SWAP2 SWAP1 PUSH2 0x13CE JUMP JUMPDEST SWAP3 POP POP DUP2 SWAP1 SSTORE POP PUSH0 PUSH1 0xA DUP2 SWAP1 SSTORE POP JUMP JUMPDEST PUSH0 DUP1 DUP4 DUP6 PUSH2 0xA2B SWAP2 SWAP1 PUSH2 0x1ABC JUMP JUMPDEST SWAP1 POP DUP3 PUSH1 0xA PUSH2 0xA3A SWAP2 SWAP1 PUSH2 0x1A72 JUMP JUMPDEST DUP2 PUSH2 0xA45 SWAP2 SWAP1 PUSH2 0x1B2A JUMP JUMPDEST SWAP2 POP POP SWAP4 SWAP3 POP POP POP JUMP JUMPDEST PUSH1 0x9 SLOAD DUP2 JUMP JUMPDEST PUSH1 0x60 DUP1 PUSH0 PUSH1 0x15 SWAP1 SLOAD SWAP1 PUSH2 0x100 EXP SWAP1 DIV PUSH1 0xFF AND PUSH2 0xAA9 JUMPI PUSH1 0x40 MLOAD DUP1 PUSH1 0x40 ADD PUSH1 0x40 MSTORE DUP1 PUSH1 0xC DUP2 MSTORE PUSH1 0x20 ADD PUSH32 0x41676772656761746F7256330000000000000000000000000000000000000000 DUP2 MSTORE POP SWAP1 POP DUP1 PUSH2 0xAE3 JUMP JUMPDEST PUSH1 0x40 MLOAD DUP1 PUSH1 0x40 ADD PUSH1 0x40 MSTORE DUP1 PUSH1 0x4 DUP2 MSTORE PUSH1 0x20 ADD PUSH32 0x506F6F6C00000000000000000000000000000000000000000000000000000000 DUP2 MSTORE POP SWAP1 POP DUP1 JUMPDEST POP DUP1 SWAP2 POP POP SWAP1 JUMP JUMPDEST PUSH2 0xAF3 PUSH2 0xE71 JUMP JUMPDEST PUSH0 PUSH1 0x15 SWAP1 SLOAD SWAP1 PUSH2 0x100 EXP SWAP1 DIV PUSH1 0xFF AND ISZERO PUSH0 PUSH1 0x15 PUSH2 0x100 EXP DUP2 SLOAD DUP2 PUSH1 0xFF MUL NOT AND SWAP1 DUP4 ISZERO ISZERO MUL OR SWAP1 SSTORE POP JUMP JUMPDEST PUSH0 PUSH32 0x0 PUSH20 0xFFFFFFFFFFFFFFFFFFFFFFFFFFFFFFFFFFFFFFFF AND CALLER PUSH20 0xFFFFFFFFFFFFFFFFFFFFFFFFFFFFFFFFFFFFFFFF AND EQ PUSH2 0xBAC JUMPI PUSH1 0x40 MLOAD PUSH32 0x8C379A000000000000000000000000000000000000000000000000000000000 DUP2 MSTORE PUSH1 0x4 ADD PUSH2 0xBA3 SWAP1 PUSH2 0x1BA4 JUMP JUMPDEST PUSH1 0x40 MLOAD DUP1 SWAP2 SUB SWAP1 REVERT JUMPDEST PUSH32 0x0 PUSH20 0xFFFFFFFFFFFFFFFFFFFFFFFFFFFFFFFFFFFFFFFF AND CALLER PUSH20 0xFFFFFFFFFFFFFFFFFFFFFFFFFFFFFFFFFFFFFFFF AND EQ PUSH2 0xC3A JUMPI PUSH1 0x40 MLOAD PUSH32 0x8C379A000000000000000000000000000000000000000000000000000000000 DUP2 MSTORE PUSH1 0x4 ADD PUSH2 0xC31 SWAP1 PUSH2 0x1BA4 JUMP JUMPDEST PUSH1 0x40 MLOAD DUP1 SWAP2 SUB SWAP1 REVERT JUMPDEST PUSH0 PUSH32 0x0 SWAP1 POP PUSH0 DUP2 PUSH20 0xFFFFFFFFFFFFFFFFFFFFFFFFFFFFFFFFFFFFFFFF AND PUSH4 0xDD62ED3E CALLER ADDRESS PUSH1 0x40 MLOAD DUP4 PUSH4 0xFFFFFFFF AND PUSH1 0xE0 SHL DUP2 MSTORE PUSH1 0x4 ADD PUSH2 0xC9A SWAP3 SWAP2 SWAP1 PUSH2 0x1BC2 JUMP JUMPDEST PUSH1 0x20 PUSH1 0x40 MLOAD DUP1 DUP4 SUB DUP2 DUP7 GAS STATICCALL ISZERO DUP1 ISZERO PUSH2 0xCB5 JUMPI RETURNDATASIZE PUSH0 DUP1 RETURNDATACOPY RETURNDATASIZE PUSH0 REVERT JUMPDEST POP POP POP POP PUSH1 0x40 MLOAD RETURNDATASIZE PUSH1 0x1F NOT PUSH1 0x1F DUP3 ADD AND DUP3 ADD DUP1 PUSH1 0x40 MSTORE POP DUP2 ADD SWAP1 PUSH2 0xCD9 SWAP2 SWAP1 PUSH2 0x1617 JUMP JUMPDEST SWAP1 POP DUP4 DUP2 LT ISZERO PUSH2 0xD1E JUMPI PUSH1 0x40 MLOAD PUSH32 0x8C379A000000000000000000000000000000000000000000000000000000000 DUP2 MSTORE PUSH1 0x4 ADD PUSH2 0xD15 SWAP1 PUSH2 0x1C33 JUMP JUMPDEST PUSH1 0x40 MLOAD DUP1 SWAP2 SUB SWAP1 REVERT JUMPDEST DUP2 PUSH20 0xFFFFFFFFFFFFFFFFFFFFFFFFFFFFFFFFFFFFFFFF AND PUSH4 0x23B872DD CALLER ADDRESS DUP8 PUSH1 0x40 MLOAD DUP5 PUSH4 0xFFFFFFFF AND PUSH1 0xE0 SHL DUP2 MSTORE PUSH1 0x4 ADD PUSH2 0xD5B SWAP4 SWAP3 SWAP2 SWAP1 PUSH2 0x1C51 JUMP JUMPDEST PUSH1 0x20 PUSH1 0x40 MLOAD DUP1 DUP4 SUB DUP2 PUSH0 DUP8 GAS CALL ISZERO DUP1 ISZERO PUSH2 0xD77 JUMPI RETURNDATASIZE PUSH0 DUP1 RETURNDATACOPY RETURNDATASIZE PUSH0 REVERT JUMPDEST POP POP POP POP PUSH1 0x40 MLOAD RETURNDATASIZE PUSH1 0x1F NOT PUSH1 0x1F DUP3 ADD AND DUP3 ADD DUP1 PUSH1 0x40 MSTORE POP DUP2 ADD SWAP1 PUSH2 0xD9B SWAP2 SWAP1 PUSH2 0x15D8 JUMP JUMPDEST POP PUSH2 0xDA4 PUSH2 0x76C JUMP JUMPDEST POP PUSH0 DUP1 PUSH2 0xDAF PUSH2 0x49D JUMP JUMPDEST POP POP POP SWAP2 POP SWAP2 POP PUSH2 0xDBF DUP7 PUSH2 0xFB2 JUMP JUMPDEST POP PUSH2 0xDCB DUP7 DUP4 DUP4 PUSH2 0xA1D JUMP JUMPDEST PUSH1 0x9 PUSH0 DUP3 DUP3 SLOAD PUSH2 0xDDB SWAP2 SWAP1 PUSH2 0x148F JUMP JUMPDEST SWAP3 POP POP DUP2 SWAP1 SSTORE POP PUSH1 0x1 SWAP5 POP POP POP POP POP SWAP2 SWAP1 POP JUMP JUMPDEST PUSH2 0xDF7 PUSH2 0xE71 JUMP JUMPDEST PUSH0 PUSH20 0xFFFFFFFFFFFFFFFFFFFFFFFFFFFFFFFFFFFFFFFF AND DUP2 PUSH20 0xFFFFFFFFFFFFFFFFFFFFFFFFFFFFFFFFFFFFFFFF AND SUB PUSH2 0xE65 JUMPI PUSH1 0x40 MLOAD PUSH32 0x8C379A000000000000000000000000000000000000000000000000000000000 DUP2 MSTORE PUSH1 0x4 ADD PUSH2 0xE5C SWAP1 PUSH2 0x1CF6 JUMP JUMPDEST PUSH1 0x40 MLOAD DUP1 SWAP2 SUB SWAP1 REVERT JUMPDEST PUSH2 0xE6E DUP2 PUSH2 0xEEF JUMP JUMPDEST POP JUMP JUMPDEST PUSH2 0xE79 PUSH2 0x10A1 JUMP JUMPDEST PUSH20 0xFFFFFFFFFFFFFFFFFFFFFFFFFFFFFFFFFFFFFFFF AND PUSH2 0xE97 PUSH2 0x8F1 JUMP JUMPDEST PUSH20 0xFFFFFFFFFFFFFFFFFFFFFFFFFFFFFFFFFFFFFFFF AND EQ PUSH2 0xEED JUMPI PUSH1 0x40 MLOAD PUSH32 0x8C379A000000000000000000000000000000000000000000000000000000000 DUP2 MSTORE PUSH1 0x4 ADD PUSH2 0xEE4 SWAP1 PUSH2 0x1D5E JUMP JUMPDEST PUSH1 0x40 MLOAD DUP1 SWAP2 SUB SWAP1 REVERT JUMPDEST JUMP JUMPDEST PUSH0 DUP1 PUSH1 0x1 SWAP1 SLOAD SWAP1 PUSH2 0x100 EXP SWAP1 DIV PUSH20 0xFFFFFFFFFFFFFFFFFFFFFFFFFFFFFFFFFFFFFFFF AND SWAP1 POP DUP2 PUSH0 PUSH1 0x1 PUSH2 0x100 EXP DUP2 SLOAD DUP2 PUSH20 0xFFFFFFFFFFFFFFFFFFFFFFFFFFFFFFFFFFFFFFFF MUL NOT AND SWAP1 DUP4 PUSH20 0xFFFFFFFFFFFFFFFFFFFFFFFFFFFFFFFFFFFFFFFF AND MUL OR SWAP1 SSTORE POP DUP2 PUSH20 0xFFFFFFFFFFFFFFFFFFFFFFFFFFFFFFFFFFFFFFFF AND DUP2 PUSH20 0xFFFFFFFFFFFFFFFFFFFFFFFFFFFFFFFFFFFFFFFF AND PUSH32 0x8BE0079C531659141344CD1FD0A4F28419497F9722A3DAAFE3B4186F6B6457E0 PUSH1 0x40 MLOAD PUSH1 0x40 MLOAD DUP1 SWAP2 SUB SWAP1 LOG3 POP POP JUMP JUMPDEST PUSH0 DUP1 DUP3 GT PUSH2 0xFF5 JUMPI PUSH1 0x40 MLOAD PUSH32 0x8C379A000000000000000000000000000000000000000000000000000000000 DUP2 MSTORE PUSH1 0x4 ADD PUSH2 0xFEC SWAP1 PUSH2 0x1DC6 JUMP JUMPDEST PUSH1 0x40 MLOAD DUP1 SWAP2 SUB SWAP1 REVERT JUMPDEST PUSH0 PUSH32 0x0 SWAP1 POP DUP1 PUSH20 0xFFFFFFFFFFFFFFFFFFFFFFFFFFFFFFFFFFFFFFFF AND PUSH4 0x42966C68 DUP5 PUSH1 0x40 MLOAD DUP3 PUSH4 0xFFFFFFFF AND PUSH1 0xE0 SHL DUP2 MSTORE PUSH1 0x4 ADD PUSH2 0x1052 SWAP2 SWAP1 PUSH2 0x12F0 JUMP JUMPDEST PUSH0 PUSH1 0x40 MLOAD DUP1 DUP4 SUB DUP2 PUSH0 DUP8 DUP1 EXTCODESIZE ISZERO DUP1 ISZERO PUSH2 0x1069 JUMPI PUSH0 DUP1 REVERT JUMPDEST POP GAS CALL ISZERO DUP1 ISZERO PUSH2 0x107B JUMPI RETURNDATASIZE PUSH0 DUP1 RETURNDATACOPY RETURNDATASIZE PUSH0 REVERT JUMPDEST POP POP POP POP DUP3 PUSH1 0x3 PUSH0 DUP3 DUP3 SLOAD PUSH2 0x1090 SWAP2 SWAP1 PUSH2 0x148F JUMP JUMPDEST SWAP3 POP POP DUP2 SWAP1 SSTORE POP PUSH1 0x1 SWAP2 POP POP SWAP2 SWAP1 POP JUMP JUMPDEST PUSH0 CALLER SWAP1 POP SWAP1 JUMP JUMPDEST PUSH0 DUP1 REVERT JUMPDEST PUSH0 PUSH20 0xFFFFFFFFFFFFFFFFFFFFFFFFFFFFFFFFFFFFFFFF DUP3 AND SWAP1 POP SWAP2 SWAP1 POP JUMP JUMPDEST PUSH0 PUSH2 0x10D5 DUP3 PUSH2 0x10AC JUMP JUMPDEST SWAP1 POP SWAP2 SWAP1 POP JUMP JUMPDEST PUSH2 0x10E5 DUP2 PUSH2 0x10CB JUMP JUMPDEST DUP2 EQ PUSH2 0x10EF JUMPI PUSH0 DUP1 REVERT JUMPDEST POP JUMP JUMPDEST PUSH0 DUP2 CALLDATALOAD SWAP1 POP PUSH2 0x1100 DUP2 PUSH2 0x10DC JUMP JUMPDEST SWAP3 SWAP2 POP POP JUMP JUMPDEST PUSH0 PUSH1 0x20 DUP3 DUP5 SUB SLT ISZERO PUSH2 0x111B JUMPI PUSH2 0x111A PUSH2 0x10A8 JUMP JUMPDEST JUMPDEST PUSH0 PUSH2 0x1128 DUP5 DUP3 DUP6 ADD PUSH2 0x10F2 JUMP JUMPDEST SWAP2 POP POP SWAP3 SWAP2 POP POP JUMP JUMPDEST PUSH0 DUP2 SWAP1 POP SWAP2 SWAP1 POP JUMP JUMPDEST PUSH2 0x1143 DUP2 PUSH2 0x1131 JUMP JUMPDEST DUP2 EQ PUSH2 0x114D JUMPI PUSH0 DUP1 REVERT JUMPDEST POP JUMP JUMPDEST PUSH0 DUP2 CALLDATALOAD SWAP1 POP PUSH2 0x115E DUP2 PUSH2 0x113A JUMP JUMPDEST SWAP3 SWAP2 POP POP JUMP JUMPDEST PUSH0 PUSH1 0x20 DUP3 DUP5 SUB SLT ISZERO PUSH2 0x1179 JUMPI PUSH2 0x1178 PUSH2 0x10A8 JUMP JUMPDEST JUMPDEST PUSH0 PUSH2 0x1186 DUP5 DUP3 DUP6 ADD PUSH2 0x1150 JUMP JUMPDEST SWAP2 POP POP SWAP3 SWAP2 POP POP JUMP JUMPDEST PUSH0 DUP2 ISZERO ISZERO SWAP1 POP SWAP2 SWAP1 POP JUMP JUMPDEST PUSH2 0x11A3 DUP2 PUSH2 0x118F JUMP JUMPDEST DUP3 MSTORE POP POP JUMP JUMPDEST PUSH0 PUSH1 0x20 DUP3 ADD SWAP1 POP PUSH2 0x11BC PUSH0 DUP4 ADD DUP5 PUSH2 0x119A JUMP JUMPDEST SWAP3 SWAP2 POP POP JUMP JUMPDEST PUSH2 0x11CB DUP2 PUSH2 0x1131 JUMP JUMPDEST DUP3 MSTORE POP POP JUMP JUMPDEST PUSH0 DUP2 MLOAD SWAP1 POP SWAP2 SWAP1 POP JUMP JUMPDEST PUSH0 DUP3 DUP3 MSTORE PUSH1 0x20 DUP3 ADD SWAP1 POP SWAP3 SWAP2 POP POP JUMP JUMPDEST DUP3 DUP2 DUP4 MCOPY PUSH0 DUP4 DUP4 ADD MSTORE POP POP POP JUMP JUMPDEST PUSH0 PUSH1 0x1F NOT PUSH1 0x1F DUP4 ADD AND SWAP1 POP SWAP2 SWAP1 POP JUMP JUMPDEST PUSH0 PUSH2 0x1213 DUP3 PUSH2 0x11D1 JUMP JUMPDEST PUSH2 0x121D DUP2 DUP6 PUSH2 0x11DB JUMP JUMPDEST SWAP4 POP PUSH2 0x122D DUP2 DUP6 PUSH1 0x20 DUP7 ADD PUSH2 0x11EB JUMP JUMPDEST PUSH2 0x1236 DUP2 PUSH2 0x11F9 JUMP JUMPDEST DUP5 ADD SWAP2 POP POP SWAP3 SWAP2 POP POP JUMP JUMPDEST PUSH0 PUSH1 0xA0 DUP3 ADD SWAP1 POP PUSH2 0x1254 PUSH0 DUP4 ADD DUP9 PUSH2 0x11C2 JUMP JUMPDEST PUSH2 0x1261 PUSH1 0x20 DUP4 ADD DUP8 PUSH2 0x11C2 JUMP JUMPDEST DUP2 DUP2 SUB PUSH1 0x40 DUP4 ADD MSTORE PUSH2 0x1273 DUP2 DUP7 PUSH2 0x1209 JUMP JUMPDEST SWAP1 POP PUSH2 0x1282 PUSH1 0x60 DUP4 ADD DUP6 PUSH2 0x11C2 JUMP JUMPDEST DUP2 DUP2 SUB PUSH1 0x80 DUP4 ADD MSTORE PUSH2 0x1294 DUP2 DUP5 PUSH2 0x1209 JUMP JUMPDEST SWAP1 POP SWAP7 SWAP6 POP POP POP POP POP POP JUMP JUMPDEST PUSH0 DUP1 PUSH0 PUSH1 0x60 DUP5 DUP7 SUB SLT ISZERO PUSH2 0x12B7 JUMPI PUSH2 0x12B6 PUSH2 0x10A8 JUMP JUMPDEST JUMPDEST PUSH0 PUSH2 0x12C4 DUP7 DUP3 DUP8 ADD PUSH2 0x10F2 JUMP JUMPDEST SWAP4 POP POP PUSH1 0x20 PUSH2 0x12D5 DUP7 DUP3 DUP8 ADD PUSH2 0x10F2 JUMP JUMPDEST SWAP3 POP POP PUSH1 0x40 PUSH2 0x12E6 DUP7 DUP3 DUP8 ADD PUSH2 0x1150 JUMP JUMPDEST SWAP2 POP POP SWAP3 POP SWAP3 POP SWAP3 JUMP JUMPDEST PUSH0 PUSH1 0x20 DUP3 ADD SWAP1 POP PUSH2 0x1303 PUSH0 DUP4 ADD DUP5 PUSH2 0x11C2 JUMP JUMPDEST SWAP3 SWAP2 POP POP JUMP JUMPDEST PUSH0 DUP1 PUSH0 PUSH1 0x60 DUP5 DUP7 SUB SLT ISZERO PUSH2 0x1320 JUMPI PUSH2 0x131F PUSH2 0x10A8 JUMP JUMPDEST JUMPDEST PUSH0 PUSH2 0x132D DUP7 DUP3 DUP8 ADD PUSH2 0x1150 JUMP JUMPDEST SWAP4 POP POP PUSH1 0x20 PUSH2 0x133E DUP7 DUP3 DUP8 ADD PUSH2 0x1150 JUMP JUMPDEST SWAP3 POP POP PUSH1 0x40 PUSH2 0x134F DUP7 DUP3 DUP8 ADD PUSH2 0x1150 JUMP JUMPDEST SWAP2 POP POP SWAP3 POP SWAP3 POP SWAP3 JUMP JUMPDEST PUSH2 0x1362 DUP2 PUSH2 0x10CB JUMP JUMPDEST DUP3 MSTORE POP POP JUMP JUMPDEST PUSH0 PUSH1 0x20 DUP3 ADD SWAP1 POP PUSH2 0x137B PUSH0 DUP4 ADD DUP5 PUSH2 0x1359 JUMP JUMPDEST SWAP3 SWAP2 POP POP JUMP JUMPDEST PUSH0 PUSH1 0x20 DUP3 ADD SWAP1 POP DUP2 DUP2 SUB PUSH0 DUP4 ADD MSTORE PUSH2 0x1399 DUP2 DUP5 PUSH2 0x1209 JUMP JUMPDEST SWAP1 POP SWAP3 SWAP2 POP POP JUMP JUMPDEST PUSH32 0x4E487B7100000000000000000000000000000000000000000000000000000000 PUSH0 MSTORE PUSH1 0x11 PUSH1 0x4 MSTORE PUSH1 0x24 PUSH0 REVERT JUMPDEST PUSH0 PUSH2 0x13D8 DUP3 PUSH2 0x1131 JUMP JUMPDEST SWAP2 POP PUSH2 0x13E3 DUP4 PUSH2 0x1131 JUMP JUMPDEST SWAP3 POP DUP3 DUP3 SUB SWAP1 POP DUP2 DUP2 GT ISZERO PUSH2 0x13FB JUMPI PUSH2 0x13FA PUSH2 0x13A1 JUMP JUMPDEST JUMPDEST SWAP3 SWAP2 POP POP JUMP JUMPDEST PUSH32 0x4E6F7420656E6F75676820706F696E74732E2054686520636F6E747261637420 PUSH0 DUP3 ADD MSTORE PUSH32 0x6D75737420626520636861726765642077697468206D6F7265205054524E0000 PUSH1 0x20 DUP3 ADD MSTORE POP JUMP JUMPDEST PUSH0 PUSH2 0x145B PUSH1 0x3E DUP4 PUSH2 0x11DB JUMP JUMPDEST SWAP2 POP PUSH2 0x1466 DUP3 PUSH2 0x1401 JUMP JUMPDEST PUSH1 0x40 DUP3 ADD SWAP1 POP SWAP2 SWAP1 POP JUMP JUMPDEST PUSH0 PUSH1 0x20 DUP3 ADD SWAP1 POP DUP2 DUP2 SUB PUSH0 DUP4 ADD MSTORE PUSH2 0x1488 DUP2 PUSH2 0x144F JUMP JUMPDEST SWAP1 POP SWAP2 SWAP1 POP JUMP JUMPDEST PUSH0 PUSH2 0x1499 DUP3 PUSH2 0x1131 JUMP JUMPDEST SWAP2 POP PUSH2 0x14A4 DUP4 PUSH2 0x1131 JUMP JUMPDEST SWAP3 POP DUP3 DUP3 ADD SWAP1 POP DUP1 DUP3 GT ISZERO PUSH2 0x14BC JUMPI PUSH2 0x14BB PUSH2 0x13A1 JUMP JUMPDEST JUMPDEST SWAP3 SWAP2 POP POP JUMP JUMPDEST PUSH32 0x4E487B7100000000000000000000000000000000000000000000000000000000 PUSH0 MSTORE PUSH1 0x22 PUSH1 0x4 MSTORE PUSH1 0x24 PUSH0 REVERT JUMPDEST PUSH0 PUSH1 0x2 DUP3 DIV SWAP1 POP PUSH1 0x1 DUP3 AND DUP1 PUSH2 0x1506 JUMPI PUSH1 0x7F DUP3 AND SWAP2 POP JUMPDEST PUSH1 0x20 DUP3 LT DUP2 SUB PUSH2 0x1519 JUMPI PUSH2 0x1518 PUSH2 0x14C2 JUMP JUMPDEST JUMPDEST POP SWAP2 SWAP1 POP JUMP JUMPDEST PUSH32 0x4E6F7420656E6F7567682062616C616E63652100000000000000000000000000 PUSH0 DUP3 ADD MSTORE POP JUMP JUMPDEST PUSH0 PUSH2 0x1553 PUSH1 0x13 DUP4 PUSH2 0x11DB JUMP JUMPDEST SWAP2 POP PUSH2 0x155E DUP3 PUSH2 0x151F JUMP JUMPDEST PUSH1 0x20 DUP3 ADD SWAP1 POP SWAP2 SWAP1 POP JUMP JUMPDEST PUSH0 PUSH1 0x20 DUP3 ADD SWAP1 POP DUP2 DUP2 SUB PUSH0 DUP4 ADD MSTORE PUSH2 0x1580 DUP2 PUSH2 0x1547 JUMP JUMPDEST SWAP1 POP SWAP2 SWAP1 POP JUMP JUMPDEST PUSH0 PUSH1 0x40 DUP3 ADD SWAP1 POP PUSH2 0x159A PUSH0 DUP4 ADD DUP6 PUSH2 0x1359 JUMP JUMPDEST PUSH2 0x15A7 PUSH1 0x20 DUP4 ADD DUP5 PUSH2 0x11C2 JUMP JUMPDEST SWAP4 SWAP3 POP POP POP JUMP JUMPDEST PUSH2 0x15B7 DUP2 PUSH2 0x118F JUMP JUMPDEST DUP2 EQ PUSH2 0x15C1 JUMPI PUSH0 DUP1 REVERT JUMPDEST POP JUMP JUMPDEST PUSH0 DUP2 MLOAD SWAP1 POP PUSH2 0x15D2 DUP2 PUSH2 0x15AE JUMP JUMPDEST SWAP3 SWAP2 POP POP JUMP JUMPDEST PUSH0 PUSH1 0x20 DUP3 DUP5 SUB SLT ISZERO PUSH2 0x15ED JUMPI PUSH2 0x15EC PUSH2 0x10A8 JUMP JUMPDEST JUMPDEST PUSH0 PUSH2 0x15FA DUP5 DUP3 DUP6 ADD PUSH2 0x15C4 JUMP JUMPDEST SWAP2 POP POP SWAP3 SWAP2 POP POP JUMP JUMPDEST PUSH0 DUP2 MLOAD SWAP1 POP PUSH2 0x1611 DUP2 PUSH2 0x113A JUMP JUMPDEST SWAP3 SWAP2 POP POP JUMP JUMPDEST PUSH0 PUSH1 0x20 DUP3 DUP5 SUB SLT ISZERO PUSH2 0x162C JUMPI PUSH2 0x162B PUSH2 0x10A8 JUMP JUMPDEST JUMPDEST PUSH0 PUSH2 0x1639 DUP5 DUP3 DUP6 ADD PUSH2 0x1603 JUMP JUMPDEST SWAP2 POP POP SWAP3 SWAP2 POP POP JUMP JUMPDEST PUSH32 0x4E487B7100000000000000000000000000000000000000000000000000000000 PUSH0 MSTORE PUSH1 0x41 PUSH1 0x4 MSTORE PUSH1 0x24 PUSH0 REVERT JUMPDEST PUSH0 DUP2 SWAP1 POP DUP2 PUSH0 MSTORE PUSH1 0x20 PUSH0 KECCAK256 SWAP1 POP SWAP2 SWAP1 POP JUMP JUMPDEST PUSH0 PUSH1 0x20 PUSH1 0x1F DUP4 ADD DIV SWAP1 POP SWAP2 SWAP1 POP JUMP JUMPDEST PUSH0 DUP3 DUP3 SHL SWAP1 POP SWAP3 SWAP2 POP POP JUMP JUMPDEST PUSH0 PUSH1 0x8 DUP4 MUL PUSH2 0x16CB PUSH32 0xFFFFFFFFFFFFFFFFFFFFFFFFFFFFFFFFFFFFFFFFFFFFFFFFFFFFFFFFFFFFFFFF DUP3 PUSH2 0x1690 JUMP JUMPDEST PUSH2 0x16D5 DUP7 DUP4 PUSH2 0x1690 JUMP JUMPDEST SWAP6 POP DUP1 NOT DUP5 AND SWAP4 POP DUP1 DUP7 AND DUP5 OR SWAP3 POP POP POP SWAP4 SWAP3 POP POP POP JUMP JUMPDEST PUSH0 DUP2 SWAP1 POP SWAP2 SWAP1 POP JUMP JUMPDEST PUSH0 PUSH2 0x1710 PUSH2 0x170B PUSH2 0x1706 DUP5 PUSH2 0x1131 JUMP JUMPDEST PUSH2 0x16ED JUMP JUMPDEST PUSH2 0x1131 JUMP JUMPDEST SWAP1 POP SWAP2 SWAP1 POP JUMP JUMPDEST PUSH0 DUP2 SWAP1 POP SWAP2 SWAP1 POP JUMP JUMPDEST PUSH2 0x1729 DUP4 PUSH2 0x16F6 JUMP JUMPDEST PUSH2 0x173D PUSH2 0x1735 DUP3 PUSH2 0x1717 JUMP JUMPDEST DUP5 DUP5 SLOAD PUSH2 0x169C JUMP JUMPDEST DUP3 SSTORE POP POP POP POP JUMP JUMPDEST PUSH0 SWAP1 JUMP JUMPDEST PUSH2 0x1751 PUSH2 0x1745 JUMP JUMPDEST PUSH2 0x175C DUP2 DUP5 DUP5 PUSH2 0x1720 JUMP JUMPDEST POP POP POP JUMP JUMPDEST JUMPDEST DUP2 DUP2 LT ISZERO PUSH2 0x177F JUMPI PUSH2 0x1774 PUSH0 DUP3 PUSH2 0x1749 JUMP JUMPDEST PUSH1 0x1 DUP2 ADD SWAP1 POP PUSH2 0x1762 JUMP JUMPDEST POP POP JUMP JUMPDEST PUSH1 0x1F DUP3 GT ISZERO PUSH2 0x17C4 JUMPI PUSH2 0x1795 DUP2 PUSH2 0x166F JUMP JUMPDEST PUSH2 0x179E DUP5 PUSH2 0x1681 JUMP JUMPDEST DUP2 ADD PUSH1 0x20 DUP6 LT ISZERO PUSH2 0x17AD JUMPI DUP2 SWAP1 POP JUMPDEST PUSH2 0x17C1 PUSH2 0x17B9 DUP6 PUSH2 0x1681 JUMP JUMPDEST DUP4 ADD DUP3 PUSH2 0x1761 JUMP JUMPDEST POP POP JUMPDEST POP POP POP JUMP JUMPDEST PUSH0 DUP3 DUP3 SHR SWAP1 POP SWAP3 SWAP2 POP POP JUMP JUMPDEST PUSH0 PUSH2 0x17E4 PUSH0 NOT DUP5 PUSH1 0x8 MUL PUSH2 0x17C9 JUMP JUMPDEST NOT DUP1 DUP4 AND SWAP2 POP POP SWAP3 SWAP2 POP POP JUMP JUMPDEST PUSH0 PUSH2 0x17FC DUP4 DUP4 PUSH2 0x17D5 JUMP JUMPDEST SWAP2 POP DUP3 PUSH1 0x2 MUL DUP3 OR SWAP1 POP SWAP3 SWAP2 POP POP JUMP JUMPDEST PUSH2 0x1815 DUP3 PUSH2 0x11D1 JUMP JUMPDEST PUSH8 0xFFFFFFFFFFFFFFFF DUP2 GT ISZERO PUSH2 0x182E JUMPI PUSH2 0x182D PUSH2 0x1642 JUMP JUMPDEST JUMPDEST PUSH2 0x1838 DUP3 SLOAD PUSH2 0x14EF JUMP JUMPDEST PUSH2 0x1843 DUP3 DUP3 DUP6 PUSH2 0x1783 JUMP JUMPDEST PUSH0 PUSH1 0x20 SWAP1 POP PUSH1 0x1F DUP4 GT PUSH1 0x1 DUP2 EQ PUSH2 0x1874 JUMPI PUSH0 DUP5 ISZERO PUSH2 0x1862 JUMPI DUP3 DUP8 ADD MLOAD SWAP1 POP JUMPDEST PUSH2 0x186C DUP6 DUP3 PUSH2 0x17F1 JUMP JUMPDEST DUP7 SSTORE POP PUSH2 0x18D3 JUMP JUMPDEST PUSH1 0x1F NOT DUP5 AND PUSH2 0x1882 DUP7 PUSH2 0x166F JUMP JUMPDEST PUSH0 JUMPDEST DUP3 DUP2 LT ISZERO PUSH2 0x18A9 JUMPI DUP5 DUP10 ADD MLOAD DUP3 SSTORE PUSH1 0x1 DUP3 ADD SWAP2 POP PUSH1 0x20 DUP6 ADD SWAP5 POP PUSH1 0x20 DUP2 ADD SWAP1 POP PUSH2 0x1884 JUMP JUMPDEST DUP7 DUP4 LT ISZERO PUSH2 0x18C6 JUMPI DUP5 DUP10 ADD MLOAD PUSH2 0x18C2 PUSH1 0x1F DUP10 AND DUP3 PUSH2 0x17D5 JUMP JUMPDEST DUP4 SSTORE POP JUMPDEST PUSH1 0x1 PUSH1 0x2 DUP9 MUL ADD DUP9 SSTORE POP POP POP JUMPDEST POP POP POP POP POP POP JUMP JUMPDEST PUSH32 0x52617465206D7573742062652067726561746572207468616E207A65726F0000 PUSH0 DUP3 ADD MSTORE POP JUMP JUMPDEST PUSH0 PUSH2 0x190F PUSH1 0x1E DUP4 PUSH2 0x11DB JUMP JUMPDEST SWAP2 POP PUSH2 0x191A DUP3 PUSH2 0x18DB JUMP JUMPDEST PUSH1 0x20 DUP3 ADD SWAP1 POP SWAP2 SWAP1 POP JUMP JUMPDEST PUSH0 PUSH1 0x20 DUP3 ADD SWAP1 POP DUP2 DUP2 SUB PUSH0 DUP4 ADD MSTORE PUSH2 0x193C DUP2 PUSH2 0x1903 JUMP JUMPDEST SWAP1 POP SWAP2 SWAP1 POP JUMP JUMPDEST PUSH0 DUP2 PUSH1 0x1 SHR SWAP1 POP SWAP2 SWAP1 POP JUMP JUMPDEST PUSH0 DUP1 DUP3 SWAP2 POP DUP4 SWAP1 POP JUMPDEST PUSH1 0x1 DUP6 GT ISZERO PUSH2 0x1998 JUMPI DUP1 DUP7 DIV DUP2 GT ISZERO PUSH2 0x1974 JUMPI PUSH2 0x1973 PUSH2 0x13A1 JUMP JUMPDEST JUMPDEST PUSH1 0x1 DUP6 AND ISZERO PUSH2 0x1983 JUMPI DUP1 DUP3 MUL SWAP2 POP JUMPDEST DUP1 DUP2 MUL SWAP1 POP PUSH2 0x1991 DUP6 PUSH2 0x1943 JUMP JUMPDEST SWAP5 POP PUSH2 0x1958 JUMP JUMPDEST SWAP5 POP SWAP5 SWAP3 POP POP POP JUMP JUMPDEST PUSH0 DUP3 PUSH2 0x19B0 JUMPI PUSH1 0x1 SWAP1 POP PUSH2 0x1A6B JUMP JUMPDEST DUP2 PUSH2 0x19BD JUMPI PUSH0 SWAP1 POP PUSH2 0x1A6B JUMP JUMPDEST DUP2 PUSH1 0x1 DUP2 EQ PUSH2 0x19D3 JUMPI PUSH1 0x2 DUP2 EQ PUSH2 0x19DD JUMPI PUSH2 0x1A0C JUMP JUMPDEST PUSH1 0x1 SWAP2 POP POP PUSH2 0x1A6B JUMP JUMPDEST PUSH1 0xFF DUP5 GT ISZERO PUSH2 0x19EF JUMPI PUSH2 0x19EE PUSH2 0x13A1 JUMP JUMPDEST JUMPDEST DUP4 PUSH1 0x2 EXP SWAP2 POP DUP5 DUP3 GT ISZERO PUSH2 0x1A06 JUMPI PUSH2 0x1A05 PUSH2 0x13A1 JUMP JUMPDEST JUMPDEST POP PUSH2 0x1A6B JUMP JUMPDEST POP PUSH1 0x20 DUP4 LT PUSH2 0x133 DUP4 LT AND PUSH1 0x4E DUP5 LT PUSH1 0xB DUP5 LT AND OR ISZERO PUSH2 0x1A41 JUMPI DUP3 DUP3 EXP SWAP1 POP DUP4 DUP2 GT ISZERO PUSH2 0x1A3C JUMPI PUSH2 0x1A3B PUSH2 0x13A1 JUMP JUMPDEST JUMPDEST PUSH2 0x1A6B JUMP JUMPDEST PUSH2 0x1A4E DUP5 DUP5 DUP5 PUSH1 0x1 PUSH2 0x194F JUMP JUMPDEST SWAP3 POP SWAP1 POP DUP2 DUP5 DIV DUP2 GT ISZERO PUSH2 0x1A65 JUMPI PUSH2 0x1A64 PUSH2 0x13A1 JUMP JUMPDEST JUMPDEST DUP2 DUP2 MUL SWAP1 POP JUMPDEST SWAP4 SWAP3 POP POP POP JUMP JUMPDEST PUSH0 PUSH2 0x1A7C DUP3 PUSH2 0x1131 JUMP JUMPDEST SWAP2 POP PUSH2 0x1A87 DUP4 PUSH2 0x1131 JUMP JUMPDEST SWAP3 POP PUSH2 0x1AB4 PUSH32 0xFFFFFFFFFFFFFFFFFFFFFFFFFFFFFFFFFFFFFFFFFFFFFFFFFFFFFFFFFFFFFFFF DUP5 DUP5 PUSH2 0x19A1 JUMP JUMPDEST SWAP1 POP SWAP3 SWAP2 POP POP JUMP JUMPDEST PUSH0 PUSH2 0x1AC6 DUP3 PUSH2 0x1131 JUMP JUMPDEST SWAP2 POP PUSH2 0x1AD1 DUP4 PUSH2 0x1131 JUMP JUMPDEST SWAP3 POP DUP3 DUP3 MUL PUSH2 0x1ADF DUP2 PUSH2 0x1131 JUMP JUMPDEST SWAP2 POP DUP3 DUP3 DIV DUP5 EQ DUP4 ISZERO OR PUSH2 0x1AF6 JUMPI PUSH2 0x1AF5 PUSH2 0x13A1 JUMP JUMPDEST JUMPDEST POP SWAP3 SWAP2 POP POP JUMP JUMPDEST PUSH32 0x4E487B7100000000000000000000000000000000000000000000000000000000 PUSH0 MSTORE PUSH1 0x12 PUSH1 0x4 MSTORE PUSH1 0x24 PUSH0 REVERT JUMPDEST PUSH0 PUSH2 0x1B34 DUP3 PUSH2 0x1131 JUMP JUMPDEST SWAP2 POP PUSH2 0x1B3F DUP4 PUSH2 0x1131 JUMP JUMPDEST SWAP3 POP DUP3 PUSH2 0x1B4F JUMPI PUSH2 0x1B4E PUSH2 0x1AFD JUMP JUMPDEST JUMPDEST DUP3 DUP3 DIV SWAP1 POP SWAP3 SWAP2 POP POP JUMP JUMPDEST PUSH32 0x53656E646572206E6F7420617574686F72697A65640000000000000000000000 PUSH0 DUP3 ADD MSTORE POP JUMP JUMPDEST PUSH0 PUSH2 0x1B8E PUSH1 0x15 DUP4 PUSH2 0x11DB JUMP JUMPDEST SWAP2 POP PUSH2 0x1B99 DUP3 PUSH2 0x1B5A JUMP JUMPDEST PUSH1 0x20 DUP3 ADD SWAP1 POP SWAP2 SWAP1 POP JUMP JUMPDEST PUSH0 PUSH1 0x20 DUP3 ADD SWAP1 POP DUP2 DUP2 SUB PUSH0 DUP4 ADD MSTORE PUSH2 0x1BBB DUP2 PUSH2 0x1B82 JUMP JUMPDEST SWAP1 POP SWAP2 SWAP1 POP JUMP JUMPDEST PUSH0 PUSH1 0x40 DUP3 ADD SWAP1 POP PUSH2 0x1BD5 PUSH0 DUP4 ADD DUP6 PUSH2 0x1359 JUMP JUMPDEST PUSH2 0x1BE2 PUSH1 0x20 DUP4 ADD DUP5 PUSH2 0x1359 JUMP JUMPDEST SWAP4 SWAP3 POP POP POP JUMP JUMPDEST PUSH32 0x436865636B2074686520746F6B656E20616C6C6F77616E636500000000000000 PUSH0 DUP3 ADD MSTORE POP JUMP JUMPDEST PUSH0 PUSH2 0x1C1D PUSH1 0x19 DUP4 PUSH2 0x11DB JUMP JUMPDEST SWAP2 POP PUSH2 0x1C28 DUP3 PUSH2 0x1BE9 JUMP JUMPDEST PUSH1 0x20 DUP3 ADD SWAP1 POP SWAP2 SWAP1 POP JUMP JUMPDEST PUSH0 PUSH1 0x20 DUP3 ADD SWAP1 POP DUP2 DUP2 SUB PUSH0 DUP4 ADD MSTORE PUSH2 0x1C4A DUP2 PUSH2 0x1C11 JUMP JUMPDEST SWAP1 POP SWAP2 SWAP1 POP JUMP JUMPDEST PUSH0 PUSH1 0x60 DUP3 ADD SWAP1 POP PUSH2 0x1C64 PUSH0 DUP4 ADD DUP7 PUSH2 0x1359 JUMP JUMPDEST PUSH2 0x1C71 PUSH1 0x20 DUP4 ADD DUP6 PUSH2 0x1359 JUMP JUMPDEST PUSH2 0x1C7E PUSH1 0x40 DUP4 ADD DUP5 PUSH2 0x11C2 JUMP JUMPDEST SWAP5 SWAP4 POP POP POP POP JUMP JUMPDEST PUSH32 0x4F776E61626C653A206E6577206F776E657220697320746865207A65726F2061 PUSH0 DUP3 ADD MSTORE PUSH32 0x6464726573730000000000000000000000000000000000000000000000000000 PUSH1 0x20 DUP3 ADD MSTORE POP JUMP JUMPDEST PUSH0 PUSH2 0x1CE0 PUSH1 0x26 DUP4 PUSH2 0x11DB JUMP JUMPDEST SWAP2 POP PUSH2 0x1CEB DUP3 PUSH2 0x1C86 JUMP JUMPDEST PUSH1 0x40 DUP3 ADD SWAP1 POP SWAP2 SWAP1 POP JUMP JUMPDEST PUSH0 PUSH1 0x20 DUP3 ADD SWAP1 POP DUP2 DUP2 SUB PUSH0 DUP4 ADD MSTORE PUSH2 0x1D0D DUP2 PUSH2 0x1CD4 JUMP JUMPDEST SWAP1 POP SWAP2 SWAP1 POP JUMP JUMPDEST PUSH32 0x4F776E61626C653A2063616C6C6572206973206E6F7420746865206F776E6572 PUSH0 DUP3 ADD MSTORE POP JUMP JUMPDEST PUSH0 PUSH2 0x1D48 PUSH1 0x20 DUP4 PUSH2 0x11DB JUMP JUMPDEST SWAP2 POP PUSH2 0x1D53 DUP3 PUSH2 0x1D14 JUMP JUMPDEST PUSH1 0x20 DUP3 ADD SWAP1 POP SWAP2 SWAP1 POP JUMP JUMPDEST PUSH0 PUSH1 0x20 DUP3 ADD SWAP1 POP DUP2 DUP2 SUB PUSH0 DUP4 ADD MSTORE PUSH2 0x1D75 DUP2 PUSH2 0x1D3C JUMP JUMPDEST SWAP1 POP SWAP2 SWAP1 POP JUMP JUMPDEST PUSH32 0x4E6F20746F6B656E7320746F206265206275726E656421000000000000000000 PUSH0 DUP3 ADD MSTORE POP JUMP JUMPDEST PUSH0 PUSH2 0x1DB0 PUSH1 0x17 DUP4 PUSH2 0x11DB JUMP JUMPDEST SWAP2 POP PUSH2 0x1DBB DUP3 PUSH2 0x1D7C JUMP JUMPDEST PUSH1 0x20 DUP3 ADD SWAP1 POP SWAP2 SWAP1 POP JUMP JUMPDEST PUSH0 PUSH1 0x20 DUP3 ADD SWAP1 POP DUP2 DUP2 SUB PUSH0 DUP4 ADD MSTORE PUSH2 0x1DDD DUP2 PUSH2 0x1DA4 JUMP JUMPDEST SWAP1 POP SWAP2 SWAP1 POP JUMP INVALID LOG2 PUSH5 0x6970667358 0x22 SLT KECCAK256 0xD3 SWAP13 ORIGIN 0xD4 NUMBER SUB PUSH31 0x5B20B486672CE5765188096B4DDA724CDE373699AA5213C0B864736F6C6343 STOP ADDMOD BYTE STOP CALLER "
				},
				"gasEstimates": {
					"creation": {
						"codeDepositCost": "1541200",
						"executionCost": "infinite",
						"totalCost": "infinite"
					},
					"external": {
						"addAgregatorPriceFeed(address)": "27051",
						"addPoolRateFeed(address)": "27116",
						"availableToWithdraw()": "2469",
						"balanceOf()": "infinite",
						"balanceOfToken(address)": "infinite",
						"burned()": "2514",
						"calculateAmount(uint256,uint256,uint256)": "infinite",
						"calculatePoints(uint256,uint256,uint256)": "infinite",
						"changeRateFeed()": "29047",
						"chargeContract(uint256)": "infinite",
						"currentRateFeed()": "infinite",
						"dailyReward()": "infinite",
						"daily_withdraw()": "2492",
						"getRate()": "infinite",
						"owner()": "2589",
						"paused()": "2541",
						"renounceOwnership()": "30565",
						"setRate()": "infinite",
						"transferOfToken(address,address,uint256)": "infinite",
						"transferOwnership(address)": "31015",
						"withdraw(uint256)": "infinite"
					},
					"internal": {
						"burnIncomingTokens(uint256)": "infinite"
					}
				},
				"methodIdentifiers": {
					"addAgregatorPriceFeed(address)": "1d9abd7f",
					"addPoolRateFeed(address)": "c794363e",
					"availableToWithdraw()": "e322ad2b",
					"balanceOf()": "722713f7",
					"balanceOfToken(address)": "b99152d0",
					"burned()": "73f42561",
					"calculateAmount(uint256,uint256,uint256)": "7754723e",
					"calculatePoints(uint256,uint256,uint256)": "e055aeeb",
					"changeRateFeed()": "e8088766",
					"chargeContract(uint256)": "ed969c84",
					"currentRateFeed()": "e6367ebe",
					"dailyReward()": "c964ad45",
					"daily_withdraw()": "c1f74cc8",
					"getRate()": "679aefce",
					"owner()": "8da5cb5b",
					"paused()": "5c975abb",
					"renounceOwnership()": "715018a6",
					"setRate()": "723e27ff",
					"transferOfToken(address,address,uint256)": "6a9d43dd",
					"transferOwnership(address)": "f2fde38b",
					"withdraw(uint256)": "2e1a7d4d"
				}
			},
			"storageLayout": {
				"storage": [
					{
						"astId": 130,
						"contract": "token_eco_system_dev_contracts/fakePtrnEcosystemParticipationSmartContract.sol:PtrnEcoSystemParticipation",
						"label": "_paused",
						"offset": 0,
						"slot": "0",
						"type": "t_bool"
					},
					{
						"astId": 7,
						"contract": "token_eco_system_dev_contracts/fakePtrnEcosystemParticipationSmartContract.sol:PtrnEcoSystemParticipation",
						"label": "_owner",
						"offset": 1,
						"slot": "0",
						"type": "t_address"
					},
					{
						"astId": 366,
						"contract": "token_eco_system_dev_contracts/fakePtrnEcosystemParticipationSmartContract.sol:PtrnEcoSystemParticipation",
						"label": "poolRateFeed",
						"offset": 21,
						"slot": "0",
						"type": "t_bool"
					},
					{
						"astId": 369,
						"contract": "token_eco_system_dev_contracts/fakePtrnEcosystemParticipationSmartContract.sol:PtrnEcoSystemParticipation",
						"label": "agregatorConsumer",
						"offset": 0,
						"slot": "1",
						"type": "t_contract(AgregatorConsumerInterface)337"
					},
					{
						"astId": 372,
						"contract": "token_eco_system_dev_contracts/fakePtrnEcosystemParticipationSmartContract.sol:PtrnEcoSystemParticipation",
						"label": "poolConsumer",
						"offset": 0,
						"slot": "2",
						"type": "t_contract(PoolConsumerInterface)349"
					},
					{
						"astId": 375,
						"contract": "token_eco_system_dev_contracts/fakePtrnEcosystemParticipationSmartContract.sol:PtrnEcoSystemParticipation",
						"label": "burned",
						"offset": 0,
						"slot": "3",
						"type": "t_uint256"
					},
					{
						"astId": 389,
						"contract": "token_eco_system_dev_contracts/fakePtrnEcosystemParticipationSmartContract.sol:PtrnEcoSystemParticipation",
						"label": "rateData",
						"offset": 0,
						"slot": "4",
						"type": "t_struct(RateData)386_storage"
					},
					{
						"astId": 392,
						"contract": "token_eco_system_dev_contracts/fakePtrnEcosystemParticipationSmartContract.sol:PtrnEcoSystemParticipation",
						"label": "availableToWithdraw",
						"offset": 0,
						"slot": "9",
						"type": "t_uint256"
					},
					{
						"astId": 395,
						"contract": "token_eco_system_dev_contracts/fakePtrnEcosystemParticipationSmartContract.sol:PtrnEcoSystemParticipation",
						"label": "daily_withdraw",
						"offset": 0,
						"slot": "10",
						"type": "t_uint256"
					}
				],
				"types": {
					"t_address": {
						"encoding": "inplace",
						"label": "address",
						"numberOfBytes": "20"
					},
					"t_bool": {
						"encoding": "inplace",
						"label": "bool",
						"numberOfBytes": "1"
					},
					"t_contract(AgregatorConsumerInterface)337": {
						"encoding": "inplace",
						"label": "contract AgregatorConsumerInterface",
						"numberOfBytes": "20"
					},
					"t_contract(PoolConsumerInterface)349": {
						"encoding": "inplace",
						"label": "contract PoolConsumerInterface",
						"numberOfBytes": "20"
					},
					"t_string_storage": {
						"encoding": "bytes",
						"label": "string",
						"numberOfBytes": "32"
					},
					"t_struct(RateData)386_storage": {
						"encoding": "inplace",
						"label": "struct PtrnEcoSystemParticipation.RateData",
						"members": [
							{
								"astId": 377,
								"contract": "token_eco_system_dev_contracts/fakePtrnEcosystemParticipationSmartContract.sol:PtrnEcoSystemParticipation",
								"label": "tokenRate",
								"offset": 0,
								"slot": "0",
								"type": "t_uint256"
							},
							{
								"astId": 379,
								"contract": "token_eco_system_dev_contracts/fakePtrnEcosystemParticipationSmartContract.sol:PtrnEcoSystemParticipation",
								"label": "decimals",
								"offset": 0,
								"slot": "1",
								"type": "t_uint256"
							},
							{
								"astId": 381,
								"contract": "token_eco_system_dev_contracts/fakePtrnEcosystemParticipationSmartContract.sol:PtrnEcoSystemParticipation",
								"label": "tokenRateString",
								"offset": 0,
								"slot": "2",
								"type": "t_string_storage"
							},
							{
								"astId": 383,
								"contract": "token_eco_system_dev_contracts/fakePtrnEcosystemParticipationSmartContract.sol:PtrnEcoSystemParticipation",
								"label": "date",
								"offset": 0,
								"slot": "3",
								"type": "t_uint256"
							},
							{
								"astId": 385,
								"contract": "token_eco_system_dev_contracts/fakePtrnEcosystemParticipationSmartContract.sol:PtrnEcoSystemParticipation",
								"label": "feed",
								"offset": 0,
								"slot": "4",
								"type": "t_string_storage"
							}
						],
						"numberOfBytes": "160"
					},
					"t_uint256": {
						"encoding": "inplace",
						"label": "uint256",
						"numberOfBytes": "32"
					}
				}
			},
			"userdoc": {
				"kind": "user",
				"methods": {},
				"version": 1
			}
		}
	}
}