{
	"ptrn_eco_system_dev_contracts/V1_poolPriceFeed.sol": {
		"RateFromPool": {
			"abi": [
				{
					"inputs": [],
					"name": "PoolRate",
					"outputs": [
						{
							"internalType": "uint256",
							"name": "",
							"type": "uint256"
						},
						{
							"internalType": "uint256",
							"name": "",
							"type": "uint256"
						},
						{
							"internalType": "string",
							"name": "",
							"type": "string"
						}
					],
					"stateMutability": "nonpayable",
					"type": "function"
				},
				{
					"inputs": [
						{
							"internalType": "address",
							"name": "_poolConsumerInterfaceAddress",
							"type": "address"
						}
					],
					"name": "addPoolFeed",
					"outputs": [],
					"stateMutability": "nonpayable",
					"type": "function"
				}
			],
			"devdoc": {
				"kind": "dev",
				"methods": {},
				"version": 1
			},
			"evm": {
				"assembly": "    /* \"ptrn_eco_system_dev_contracts/V1_poolPriceFeed.sol\":461:3211  contract RateFromPool {... */\n  mstore(0x40, 0x80)\n  callvalue\n  dup1\n  iszero\n  tag_1\n  jumpi\n  0x00\n  dup1\n  revert\ntag_1:\n  pop\n  dataSize(sub_0)\n  dup1\n  dataOffset(sub_0)\n  0x00\n  codecopy\n  0x00\n  return\nstop\n\nsub_0: assembly {\n        /* \"ptrn_eco_system_dev_contracts/V1_poolPriceFeed.sol\":461:3211  contract RateFromPool {... */\n      mstore(0x40, 0x80)\n      callvalue\n      dup1\n      iszero\n      tag_1\n      jumpi\n      0x00\n      dup1\n      revert\n    tag_1:\n      pop\n      jumpi(tag_2, lt(calldatasize, 0x04))\n      shr(0xe0, calldataload(0x00))\n      dup1\n      0x454d1256\n      eq\n      tag_3\n      jumpi\n      dup1\n      0xcd5ea1c6\n      eq\n      tag_4\n      jumpi\n    tag_2:\n      0x00\n      dup1\n      revert\n        /* \"ptrn_eco_system_dev_contracts/V1_poolPriceFeed.sol\":794:1625  function PoolRate() public returns ( uint256, uint256, string memory ) {... */\n    tag_3:\n      tag_5\n      tag_6\n      jump\t// in\n    tag_5:\n      mload(0x40)\n      tag_7\n      swap4\n      swap3\n      swap2\n      swap1\n      tag_8\n      jump\t// in\n    tag_7:\n      mload(0x40)\n      dup1\n      swap2\n      sub\n      swap1\n      return\n        /* \"ptrn_eco_system_dev_contracts/V1_poolPriceFeed.sol\":610:787  function addPoolFeed(address _poolConsumerInterfaceAddress)... */\n    tag_4:\n      tag_9\n      0x04\n      dup1\n      calldatasize\n      sub\n      dup2\n      add\n      swap1\n      tag_10\n      swap2\n      swap1\n      tag_11\n      jump\t// in\n    tag_10:\n      tag_12\n      jump\t// in\n    tag_9:\n      stop\n        /* \"ptrn_eco_system_dev_contracts/V1_poolPriceFeed.sol\":794:1625  function PoolRate() public returns ( uint256, uint256, string memory ) {... */\n    tag_6:\n        /* \"ptrn_eco_system_dev_contracts/V1_poolPriceFeed.sol\":831:838  uint256 */\n      0x00\n        /* \"ptrn_eco_system_dev_contracts/V1_poolPriceFeed.sol\":840:847  uint256 */\n      dup1\n        /* \"ptrn_eco_system_dev_contracts/V1_poolPriceFeed.sol\":849:862  string memory */\n      0x60\n        /* \"ptrn_eco_system_dev_contracts/V1_poolPriceFeed.sol\":876:892  uint256 tokenOne */\n      0x00\n        /* \"ptrn_eco_system_dev_contracts/V1_poolPriceFeed.sol\":894:910  uint256 tokenTwo */\n      dup1\n        /* \"ptrn_eco_system_dev_contracts/V1_poolPriceFeed.sol\":916:928  poolConsumer */\n      0x00\n      dup1\n      sload\n      swap1\n      0x0100\n      exp\n      swap1\n      div\n      0xffffffffffffffffffffffffffffffffffffffff\n      and\n        /* \"ptrn_eco_system_dev_contracts/V1_poolPriceFeed.sol\":916:940  poolConsumer.getReserves */\n      0xffffffffffffffffffffffffffffffffffffffff\n      and\n      0x0902f1ac\n        /* \"ptrn_eco_system_dev_contracts/V1_poolPriceFeed.sol\":916:942  poolConsumer.getReserves() */\n      mload(0x40)\n      dup2\n      0xffffffff\n      and\n      0xe0\n      shl\n      dup2\n      mstore\n      0x04\n      add\n      0x60\n      mload(0x40)\n      dup1\n      dup4\n      sub\n      dup2\n      0x00\n      dup8\n      gas\n      call\n      iszero\n      dup1\n      iszero\n      tag_15\n      jumpi\n      returndatasize\n      0x00\n      dup1\n      returndatacopy\n      revert(0x00, returndatasize)\n    tag_15:\n      pop\n      pop\n      pop\n      pop\n      mload(0x40)\n      returndatasize\n      not(0x1f)\n      0x1f\n      dup3\n      add\n      and\n      dup3\n      add\n      dup1\n      0x40\n      mstore\n      pop\n      dup2\n      add\n      swap1\n      tag_16\n      swap2\n      swap1\n      tag_17\n      jump\t// in\n    tag_16:\n        /* \"ptrn_eco_system_dev_contracts/V1_poolPriceFeed.sol\":875:942  (uint256 tokenOne, uint256 tokenTwo, ) = poolConsumer.getReserves() */\n      pop\n      0xffffffffffffffffffffffffffff\n      and\n      swap2\n      pop\n      0xffffffffffffffffffffffffffff\n      and\n      swap2\n      pop\n        /* \"ptrn_eco_system_dev_contracts/V1_poolPriceFeed.sol\":952:975  address tokenOneAddress */\n      0x00\n        /* \"ptrn_eco_system_dev_contracts/V1_poolPriceFeed.sol\":978:990  poolConsumer */\n      dup1\n      0x00\n      swap1\n      sload\n      swap1\n      0x0100\n      exp\n      swap1\n      div\n      0xffffffffffffffffffffffffffffffffffffffff\n      and\n        /* \"ptrn_eco_system_dev_contracts/V1_poolPriceFeed.sol\":978:997  poolConsumer.token0 */\n      0xffffffffffffffffffffffffffffffffffffffff\n      and\n      0x0dfe1681\n        /* \"ptrn_eco_system_dev_contracts/V1_poolPriceFeed.sol\":978:999  poolConsumer.token0() */\n      mload(0x40)\n      dup2\n      0xffffffff\n      and\n      0xe0\n      shl\n      dup2\n      mstore\n      0x04\n      add\n      0x20\n      mload(0x40)\n      dup1\n      dup4\n      sub\n      dup2\n      0x00\n      dup8\n      gas\n      call\n      iszero\n      dup1\n      iszero\n      tag_19\n      jumpi\n      returndatasize\n      0x00\n      dup1\n      returndatacopy\n      revert(0x00, returndatasize)\n    tag_19:\n      pop\n      pop\n      pop\n      pop\n      mload(0x40)\n      returndatasize\n      not(0x1f)\n      0x1f\n      dup3\n      add\n      and\n      dup3\n      add\n      dup1\n      0x40\n      mstore\n      pop\n      dup2\n      add\n      swap1\n      tag_20\n      swap2\n      swap1\n      tag_21\n      jump\t// in\n    tag_20:\n        /* \"ptrn_eco_system_dev_contracts/V1_poolPriceFeed.sol\":952:999  address tokenOneAddress = poolConsumer.token0() */\n      swap1\n      pop\n        /* \"ptrn_eco_system_dev_contracts/V1_poolPriceFeed.sol\":1009:1032  address tokenTwoAddress */\n      0x00\n        /* \"ptrn_eco_system_dev_contracts/V1_poolPriceFeed.sol\":1035:1047  poolConsumer */\n      dup1\n      0x00\n      swap1\n      sload\n      swap1\n      0x0100\n      exp\n      swap1\n      div\n      0xffffffffffffffffffffffffffffffffffffffff\n      and\n        /* \"ptrn_eco_system_dev_contracts/V1_poolPriceFeed.sol\":1035:1054  poolConsumer.token1 */\n      0xffffffffffffffffffffffffffffffffffffffff\n      and\n      0xd21220a7\n        /* \"ptrn_eco_system_dev_contracts/V1_poolPriceFeed.sol\":1035:1056  poolConsumer.token1() */\n      mload(0x40)\n      dup2\n      0xffffffff\n      and\n      0xe0\n      shl\n      dup2\n      mstore\n      0x04\n      add\n      0x20\n      mload(0x40)\n      dup1\n      dup4\n      sub\n      dup2\n      0x00\n      dup8\n      gas\n      call\n      iszero\n      dup1\n      iszero\n      tag_23\n      jumpi\n      returndatasize\n      0x00\n      dup1\n      returndatacopy\n      revert(0x00, returndatasize)\n    tag_23:\n      pop\n      pop\n      pop\n      pop\n      mload(0x40)\n      returndatasize\n      not(0x1f)\n      0x1f\n      dup3\n      add\n      and\n      dup3\n      add\n      dup1\n      0x40\n      mstore\n      pop\n      dup2\n      add\n      swap1\n      tag_24\n      swap2\n      swap1\n      tag_21\n      jump\t// in\n    tag_24:\n        /* \"ptrn_eco_system_dev_contracts/V1_poolPriceFeed.sol\":1009:1056  address tokenTwoAddress = poolConsumer.token1() */\n      swap1\n      pop\n        /* \"ptrn_eco_system_dev_contracts/V1_poolPriceFeed.sol\":1107:1122  tokenOneAddress */\n      dup2\n        /* \"ptrn_eco_system_dev_contracts/V1_poolPriceFeed.sol\":1067:1086  decimalsConsumerOne */\n      0x01\n      0x00\n        /* \"ptrn_eco_system_dev_contracts/V1_poolPriceFeed.sol\":1067:1123  decimalsConsumerOne = DecimalsInterface(tokenOneAddress) */\n      0x0100\n      exp\n      dup2\n      sload\n      dup2\n      0xffffffffffffffffffffffffffffffffffffffff\n      mul\n      not\n      and\n      swap1\n      dup4\n      0xffffffffffffffffffffffffffffffffffffffff\n      and\n      mul\n      or\n      swap1\n      sstore\n      pop\n        /* \"ptrn_eco_system_dev_contracts/V1_poolPriceFeed.sol\":1173:1188  tokenTwoAddress */\n      dup1\n        /* \"ptrn_eco_system_dev_contracts/V1_poolPriceFeed.sol\":1133:1152  decimalsConsumerTwo */\n      0x02\n      0x00\n        /* \"ptrn_eco_system_dev_contracts/V1_poolPriceFeed.sol\":1133:1189  decimalsConsumerTwo = DecimalsInterface(tokenTwoAddress) */\n      0x0100\n      exp\n      dup2\n      sload\n      dup2\n      0xffffffffffffffffffffffffffffffffffffffff\n      mul\n      not\n      and\n      swap1\n      dup4\n      0xffffffffffffffffffffffffffffffffffffffff\n      and\n      mul\n      or\n      swap1\n      sstore\n      pop\n        /* \"ptrn_eco_system_dev_contracts/V1_poolPriceFeed.sol\":1199:1218  uint256 decimalsOne */\n      0x00\n        /* \"ptrn_eco_system_dev_contracts/V1_poolPriceFeed.sol\":1221:1240  decimalsConsumerOne */\n      0x01\n      0x00\n      swap1\n      sload\n      swap1\n      0x0100\n      exp\n      swap1\n      div\n      0xffffffffffffffffffffffffffffffffffffffff\n      and\n        /* \"ptrn_eco_system_dev_contracts/V1_poolPriceFeed.sol\":1221:1249  decimalsConsumerOne.decimals */\n      0xffffffffffffffffffffffffffffffffffffffff\n      and\n      0x313ce567\n        /* \"ptrn_eco_system_dev_contracts/V1_poolPriceFeed.sol\":1221:1251  decimalsConsumerOne.decimals() */\n      mload(0x40)\n      dup2\n      0xffffffff\n      and\n      0xe0\n      shl\n      dup2\n      mstore\n      0x04\n      add\n      0x20\n      mload(0x40)\n      dup1\n      dup4\n      sub\n      dup2\n      0x00\n      dup8\n      gas\n      call\n      iszero\n      dup1\n      iszero\n      tag_26\n      jumpi\n      returndatasize\n      0x00\n      dup1\n      returndatacopy\n      revert(0x00, returndatasize)\n    tag_26:\n      pop\n      pop\n      pop\n      pop\n      mload(0x40)\n      returndatasize\n      not(0x1f)\n      0x1f\n      dup3\n      add\n      and\n      dup3\n      add\n      dup1\n      0x40\n      mstore\n      pop\n      dup2\n      add\n      swap1\n      tag_27\n      swap2\n      swap1\n      tag_28\n      jump\t// in\n    tag_27:\n        /* \"ptrn_eco_system_dev_contracts/V1_poolPriceFeed.sol\":1199:1251  uint256 decimalsOne = decimalsConsumerOne.decimals() */\n      0xff\n      and\n      swap1\n      pop\n        /* \"ptrn_eco_system_dev_contracts/V1_poolPriceFeed.sol\":1262:1281  uint256 decimalsTwo */\n      0x00\n        /* \"ptrn_eco_system_dev_contracts/V1_poolPriceFeed.sol\":1284:1303  decimalsConsumerTwo */\n      0x02\n      0x00\n      swap1\n      sload\n      swap1\n      0x0100\n      exp\n      swap1\n      div\n      0xffffffffffffffffffffffffffffffffffffffff\n      and\n        /* \"ptrn_eco_system_dev_contracts/V1_poolPriceFeed.sol\":1284:1312  decimalsConsumerTwo.decimals */\n      0xffffffffffffffffffffffffffffffffffffffff\n      and\n      0x313ce567\n        /* \"ptrn_eco_system_dev_contracts/V1_poolPriceFeed.sol\":1284:1314  decimalsConsumerTwo.decimals() */\n      mload(0x40)\n      dup2\n      0xffffffff\n      and\n      0xe0\n      shl\n      dup2\n      mstore\n      0x04\n      add\n      0x20\n      mload(0x40)\n      dup1\n      dup4\n      sub\n      dup2\n      0x00\n      dup8\n      gas\n      call\n      iszero\n      dup1\n      iszero\n      tag_30\n      jumpi\n      returndatasize\n      0x00\n      dup1\n      returndatacopy\n      revert(0x00, returndatasize)\n    tag_30:\n      pop\n      pop\n      pop\n      pop\n      mload(0x40)\n      returndatasize\n      not(0x1f)\n      0x1f\n      dup3\n      add\n      and\n      dup3\n      add\n      dup1\n      0x40\n      mstore\n      pop\n      dup2\n      add\n      swap1\n      tag_31\n      swap2\n      swap1\n      tag_28\n      jump\t// in\n    tag_31:\n        /* \"ptrn_eco_system_dev_contracts/V1_poolPriceFeed.sol\":1262:1314  uint256 decimalsTwo = decimalsConsumerTwo.decimals() */\n      0xff\n      and\n      swap1\n      pop\n        /* \"ptrn_eco_system_dev_contracts/V1_poolPriceFeed.sol\":1325:1346  string memory nameOne */\n      0x00\n        /* \"ptrn_eco_system_dev_contracts/V1_poolPriceFeed.sol\":1349:1368  decimalsConsumerOne */\n      0x01\n      0x00\n      swap1\n      sload\n      swap1\n      0x0100\n      exp\n      swap1\n      div\n      0xffffffffffffffffffffffffffffffffffffffff\n      and\n        /* \"ptrn_eco_system_dev_contracts/V1_poolPriceFeed.sol\":1349:1373  decimalsConsumerOne.name */\n      0xffffffffffffffffffffffffffffffffffffffff\n      and\n      0x06fdde03\n        /* \"ptrn_eco_system_dev_contracts/V1_poolPriceFeed.sol\":1349:1375  decimalsConsumerOne.name() */\n      mload(0x40)\n      dup2\n      0xffffffff\n      and\n      0xe0\n      shl\n      dup2\n      mstore\n      0x04\n      add\n      0x00\n      mload(0x40)\n      dup1\n      dup4\n      sub\n      dup2\n      0x00\n      dup8\n      gas\n      call\n      iszero\n      dup1\n      iszero\n      tag_33\n      jumpi\n      returndatasize\n      0x00\n      dup1\n      returndatacopy\n      revert(0x00, returndatasize)\n    tag_33:\n      pop\n      pop\n      pop\n      pop\n      mload(0x40)\n      returndatasize\n      0x00\n      dup3\n      returndatacopy\n      returndatasize\n      not(0x1f)\n      0x1f\n      dup3\n      add\n      and\n      dup3\n      add\n      dup1\n      0x40\n      mstore\n      pop\n      dup2\n      add\n      swap1\n      tag_34\n      swap2\n      swap1\n      tag_35\n      jump\t// in\n    tag_34:\n        /* \"ptrn_eco_system_dev_contracts/V1_poolPriceFeed.sol\":1325:1375  string memory nameOne = decimalsConsumerOne.name() */\n      swap1\n      pop\n        /* \"ptrn_eco_system_dev_contracts/V1_poolPriceFeed.sol\":1385:1406  string memory nameTwo */\n      0x00\n        /* \"ptrn_eco_system_dev_contracts/V1_poolPriceFeed.sol\":1409:1428  decimalsConsumerTwo */\n      0x02\n      0x00\n      swap1\n      sload\n      swap1\n      0x0100\n      exp\n      swap1\n      div\n      0xffffffffffffffffffffffffffffffffffffffff\n      and\n        /* \"ptrn_eco_system_dev_contracts/V1_poolPriceFeed.sol\":1409:1433  decimalsConsumerTwo.name */\n      0xffffffffffffffffffffffffffffffffffffffff\n      and\n      0x06fdde03\n        /* \"ptrn_eco_system_dev_contracts/V1_poolPriceFeed.sol\":1409:1435  decimalsConsumerTwo.name() */\n      mload(0x40)\n      dup2\n      0xffffffff\n      and\n      0xe0\n      shl\n      dup2\n      mstore\n      0x04\n      add\n      0x00\n      mload(0x40)\n      dup1\n      dup4\n      sub\n      dup2\n      0x00\n      dup8\n      gas\n      call\n      iszero\n      dup1\n      iszero\n      tag_37\n      jumpi\n      returndatasize\n      0x00\n      dup1\n      returndatacopy\n      revert(0x00, returndatasize)\n    tag_37:\n      pop\n      pop\n      pop\n      pop\n      mload(0x40)\n      returndatasize\n      0x00\n      dup3\n      returndatacopy\n      returndatasize\n      not(0x1f)\n      0x1f\n      dup3\n      add\n      and\n      dup3\n      add\n      dup1\n      0x40\n      mstore\n      pop\n      dup2\n      add\n      swap1\n      tag_38\n      swap2\n      swap1\n      tag_35\n      jump\t// in\n    tag_38:\n        /* \"ptrn_eco_system_dev_contracts/V1_poolPriceFeed.sol\":1385:1435  string memory nameTwo = decimalsConsumerTwo.name() */\n      swap1\n      pop\n        /* \"ptrn_eco_system_dev_contracts/V1_poolPriceFeed.sol\":1454:1617  calculatePoolRate(... */\n      tag_39\n        /* \"ptrn_eco_system_dev_contracts/V1_poolPriceFeed.sol\":1485:1493  tokenOne */\n      dup9\n        /* \"ptrn_eco_system_dev_contracts/V1_poolPriceFeed.sol\":1507:1518  decimalsOne */\n      dup6\n        /* \"ptrn_eco_system_dev_contracts/V1_poolPriceFeed.sol\":1532:1539  nameOne */\n      dup5\n        /* \"ptrn_eco_system_dev_contracts/V1_poolPriceFeed.sol\":1553:1561  tokenTwo */\n      dup11\n        /* \"ptrn_eco_system_dev_contracts/V1_poolPriceFeed.sol\":1575:1586  decimalsTwo */\n      dup8\n        /* \"ptrn_eco_system_dev_contracts/V1_poolPriceFeed.sol\":1600:1607  nameTwo */\n      dup7\n        /* \"ptrn_eco_system_dev_contracts/V1_poolPriceFeed.sol\":1454:1471  calculatePoolRate */\n      tag_40\n        /* \"ptrn_eco_system_dev_contracts/V1_poolPriceFeed.sol\":1454:1617  calculatePoolRate(... */\n      jump\t// in\n    tag_39:\n        /* \"ptrn_eco_system_dev_contracts/V1_poolPriceFeed.sol\":1447:1617  return calculatePoolRate(... */\n      swap11\n      pop\n      swap11\n      pop\n      swap11\n      pop\n      pop\n      pop\n      pop\n      pop\n      pop\n      pop\n      pop\n      pop\n        /* \"ptrn_eco_system_dev_contracts/V1_poolPriceFeed.sol\":794:1625  function PoolRate() public returns ( uint256, uint256, string memory ) {... */\n      swap1\n      swap2\n      swap3\n      jump\t// out\n        /* \"ptrn_eco_system_dev_contracts/V1_poolPriceFeed.sol\":610:787  function addPoolFeed(address _poolConsumerInterfaceAddress)... */\n    tag_12:\n        /* \"ptrn_eco_system_dev_contracts/V1_poolPriceFeed.sol\":741:770  _poolConsumerInterfaceAddress */\n      dup1\n        /* \"ptrn_eco_system_dev_contracts/V1_poolPriceFeed.sol\":699:711  poolConsumer */\n      0x00\n      dup1\n        /* \"ptrn_eco_system_dev_contracts/V1_poolPriceFeed.sol\":699:780  poolConsumer = PoolInterface(... */\n      0x0100\n      exp\n      dup2\n      sload\n      dup2\n      0xffffffffffffffffffffffffffffffffffffffff\n      mul\n      not\n      and\n      swap1\n      dup4\n      0xffffffffffffffffffffffffffffffffffffffff\n      and\n      mul\n      or\n      swap1\n      sstore\n      pop\n        /* \"ptrn_eco_system_dev_contracts/V1_poolPriceFeed.sol\":610:787  function addPoolFeed(address _poolConsumerInterfaceAddress)... */\n      pop\n      jump\t// out\n        /* \"ptrn_eco_system_dev_contracts/V1_poolPriceFeed.sol\":1632:3209  function calculatePoolRate(... */\n    tag_40:\n        /* \"ptrn_eco_system_dev_contracts/V1_poolPriceFeed.sol\":1878:1885  uint256 */\n      0x00\n        /* \"ptrn_eco_system_dev_contracts/V1_poolPriceFeed.sol\":1887:1894  uint256 */\n      dup1\n        /* \"ptrn_eco_system_dev_contracts/V1_poolPriceFeed.sol\":1896:1909  string memory */\n      0x60\n        /* \"ptrn_eco_system_dev_contracts/V1_poolPriceFeed.sol\":1956:1957  0 */\n      0x00\n        /* \"ptrn_eco_system_dev_contracts/V1_poolPriceFeed.sol\":1935:1947  tokenOneName */\n      dup8\n        /* \"ptrn_eco_system_dev_contracts/V1_poolPriceFeed.sol\":1929:1955  bytes(tokenOneName).length */\n      mload\n        /* \"ptrn_eco_system_dev_contracts/V1_poolPriceFeed.sol\":1929:1957  bytes(tokenOneName).length>0 */\n      gt\n        /* \"ptrn_eco_system_dev_contracts/V1_poolPriceFeed.sol\":1929:1989  bytes(tokenOneName).length>0 && bytes(tokenTwoName).length>0 */\n      dup1\n      iszero\n      tag_43\n      jumpi\n      pop\n        /* \"ptrn_eco_system_dev_contracts/V1_poolPriceFeed.sol\":1988:1989  0 */\n      0x00\n        /* \"ptrn_eco_system_dev_contracts/V1_poolPriceFeed.sol\":1967:1979  tokenTwoName */\n      dup5\n        /* \"ptrn_eco_system_dev_contracts/V1_poolPriceFeed.sol\":1961:1987  bytes(tokenTwoName).length */\n      mload\n        /* \"ptrn_eco_system_dev_contracts/V1_poolPriceFeed.sol\":1961:1989  bytes(tokenTwoName).length>0 */\n      gt\n        /* \"ptrn_eco_system_dev_contracts/V1_poolPriceFeed.sol\":1929:1989  bytes(tokenOneName).length>0 && bytes(tokenTwoName).length>0 */\n    tag_43:\n        /* \"ptrn_eco_system_dev_contracts/V1_poolPriceFeed.sol\":1921:2024  require(bytes(tokenOneName).length>0 && bytes(tokenTwoName).length>0, \"Missing input for token names!\") */\n      tag_44\n      jumpi\n      mload(0x40)\n      0x08c379a000000000000000000000000000000000000000000000000000000000\n      dup2\n      mstore\n      0x04\n      add\n      tag_45\n      swap1\n      tag_46\n      jump\t// in\n    tag_45:\n      mload(0x40)\n      dup1\n      swap2\n      sub\n      swap1\n      revert\n    tag_44:\n        /* \"ptrn_eco_system_dev_contracts/V1_poolPriceFeed.sol\":2056:2058  18 */\n      0x12\n        /* \"ptrn_eco_system_dev_contracts/V1_poolPriceFeed.sol\":2042:2052  decimalOne */\n      dup9\n        /* \"ptrn_eco_system_dev_contracts/V1_poolPriceFeed.sol\":2042:2058  decimalOne <= 18 */\n      gt\n      iszero\n        /* \"ptrn_eco_system_dev_contracts/V1_poolPriceFeed.sol\":2042:2078  decimalOne <= 18 && decimalTwo <= 18 */\n      dup1\n      iszero\n      tag_47\n      jumpi\n      pop\n        /* \"ptrn_eco_system_dev_contracts/V1_poolPriceFeed.sol\":2076:2078  18 */\n      0x12\n        /* \"ptrn_eco_system_dev_contracts/V1_poolPriceFeed.sol\":2062:2072  decimalTwo */\n      dup6\n        /* \"ptrn_eco_system_dev_contracts/V1_poolPriceFeed.sol\":2062:2078  decimalTwo <= 18 */\n      gt\n      iszero\n        /* \"ptrn_eco_system_dev_contracts/V1_poolPriceFeed.sol\":2042:2078  decimalOne <= 18 && decimalTwo <= 18 */\n    tag_47:\n        /* \"ptrn_eco_system_dev_contracts/V1_poolPriceFeed.sol\":2034:2126  require(decimalOne <= 18 && decimalTwo <= 18, \"Decimals should be less than or equal to 18\") */\n      tag_48\n      jumpi\n      mload(0x40)\n      0x08c379a000000000000000000000000000000000000000000000000000000000\n      dup2\n      mstore\n      0x04\n      add\n      tag_49\n      swap1\n      tag_50\n      jump\t// in\n    tag_49:\n      mload(0x40)\n      dup1\n      swap2\n      sub\n      swap1\n      revert\n    tag_48:\n        /* \"ptrn_eco_system_dev_contracts/V1_poolPriceFeed.sol\":2157:2158  0 */\n      0x00\n        /* \"ptrn_eco_system_dev_contracts/V1_poolPriceFeed.sol\":2144:2154  decimalOne */\n      dup9\n        /* \"ptrn_eco_system_dev_contracts/V1_poolPriceFeed.sol\":2144:2158  decimalOne > 0 */\n      gt\n        /* \"ptrn_eco_system_dev_contracts/V1_poolPriceFeed.sol\":2144:2176  decimalOne > 0 && decimalTwo > 0 */\n      dup1\n      iszero\n      tag_51\n      jumpi\n      pop\n        /* \"ptrn_eco_system_dev_contracts/V1_poolPriceFeed.sol\":2175:2176  0 */\n      0x00\n        /* \"ptrn_eco_system_dev_contracts/V1_poolPriceFeed.sol\":2162:2172  decimalTwo */\n      dup6\n        /* \"ptrn_eco_system_dev_contracts/V1_poolPriceFeed.sol\":2162:2176  decimalTwo > 0 */\n      gt\n        /* \"ptrn_eco_system_dev_contracts/V1_poolPriceFeed.sol\":2144:2176  decimalOne > 0 && decimalTwo > 0 */\n    tag_51:\n        /* \"ptrn_eco_system_dev_contracts/V1_poolPriceFeed.sol\":2136:2214  require(decimalOne > 0 && decimalTwo > 0, \"Decimals should be greater than 0\") */\n      tag_52\n      jumpi\n      mload(0x40)\n      0x08c379a000000000000000000000000000000000000000000000000000000000\n      dup2\n      mstore\n      0x04\n      add\n      tag_53\n      swap1\n      tag_54\n      jump\t// in\n    tag_53:\n      mload(0x40)\n      dup1\n      swap2\n      sub\n      swap1\n      revert\n    tag_52:\n        /* \"ptrn_eco_system_dev_contracts/V1_poolPriceFeed.sol\":2243:2244  0 */\n      0x00\n        /* \"ptrn_eco_system_dev_contracts/V1_poolPriceFeed.sol\":2232:2240  tokenOne */\n      dup10\n        /* \"ptrn_eco_system_dev_contracts/V1_poolPriceFeed.sol\":2232:2244  tokenOne > 0 */\n      gt\n        /* \"ptrn_eco_system_dev_contracts/V1_poolPriceFeed.sol\":2232:2260  tokenOne > 0 && tokenTwo > 0 */\n      dup1\n      iszero\n      tag_55\n      jumpi\n      pop\n        /* \"ptrn_eco_system_dev_contracts/V1_poolPriceFeed.sol\":2259:2260  0 */\n      0x00\n        /* \"ptrn_eco_system_dev_contracts/V1_poolPriceFeed.sol\":2248:2256  tokenTwo */\n      dup7\n        /* \"ptrn_eco_system_dev_contracts/V1_poolPriceFeed.sol\":2248:2260  tokenTwo > 0 */\n      gt\n        /* \"ptrn_eco_system_dev_contracts/V1_poolPriceFeed.sol\":2232:2260  tokenOne > 0 && tokenTwo > 0 */\n    tag_55:\n        /* \"ptrn_eco_system_dev_contracts/V1_poolPriceFeed.sol\":2224:2302  require(tokenOne > 0 && tokenTwo > 0, \"Token values should be greater than 0\") */\n      tag_56\n      jumpi\n      mload(0x40)\n      0x08c379a000000000000000000000000000000000000000000000000000000000\n      dup2\n      mstore\n      0x04\n      add\n      tag_57\n      swap1\n      tag_58\n      jump\t// in\n    tag_57:\n      mload(0x40)\n      dup1\n      swap2\n      sub\n      swap1\n      revert\n    tag_56:\n        /* \"ptrn_eco_system_dev_contracts/V1_poolPriceFeed.sol\":2330:2340  decimalTwo */\n      dup5\n        /* \"ptrn_eco_system_dev_contracts/V1_poolPriceFeed.sol\":2317:2327  decimalOne */\n      dup9\n        /* \"ptrn_eco_system_dev_contracts/V1_poolPriceFeed.sol\":2317:2340  decimalOne > decimalTwo */\n      gt\n        /* \"ptrn_eco_system_dev_contracts/V1_poolPriceFeed.sol\":2313:3203  if (decimalOne > decimalTwo) {... */\n      iszero\n      tag_59\n      jumpi\n        /* \"ptrn_eco_system_dev_contracts/V1_poolPriceFeed.sol\":2356:2381  uint256 tokenTwoconverted */\n      0x00\n        /* \"ptrn_eco_system_dev_contracts/V1_poolPriceFeed.sol\":2413:2423  decimalTwo */\n      dup6\n        /* \"ptrn_eco_system_dev_contracts/V1_poolPriceFeed.sol\":2400:2410  decimalOne */\n      dup10\n        /* \"ptrn_eco_system_dev_contracts/V1_poolPriceFeed.sol\":2400:2423  decimalOne - decimalTwo */\n      tag_60\n      swap2\n      swap1\n      tag_61\n      jump\t// in\n    tag_60:\n        /* \"ptrn_eco_system_dev_contracts/V1_poolPriceFeed.sol\":2395:2397  10 */\n      0x0a\n        /* \"ptrn_eco_system_dev_contracts/V1_poolPriceFeed.sol\":2395:2424  10**(decimalOne - decimalTwo) */\n      tag_62\n      swap2\n      swap1\n      tag_63\n      jump\t// in\n    tag_62:\n        /* \"ptrn_eco_system_dev_contracts/V1_poolPriceFeed.sol\":2384:2392  tokenTwo */\n      dup8\n        /* \"ptrn_eco_system_dev_contracts/V1_poolPriceFeed.sol\":2384:2424  tokenTwo * 10**(decimalOne - decimalTwo) */\n      tag_64\n      swap2\n      swap1\n      tag_65\n      jump\t// in\n    tag_64:\n        /* \"ptrn_eco_system_dev_contracts/V1_poolPriceFeed.sol\":2356:2424  uint256 tokenTwoconverted = tokenTwo * 10**(decimalOne - decimalTwo) */\n      swap1\n      pop\n        /* \"ptrn_eco_system_dev_contracts/V1_poolPriceFeed.sol\":2453:2470  tokenTwoconverted */\n      dup1\n        /* \"ptrn_eco_system_dev_contracts/V1_poolPriceFeed.sol\":2442:2450  tokenOne */\n      dup11\n        /* \"ptrn_eco_system_dev_contracts/V1_poolPriceFeed.sol\":2442:2470  tokenOne > tokenTwoconverted */\n      gt\n        /* \"ptrn_eco_system_dev_contracts/V1_poolPriceFeed.sol\":2438:2760  if (tokenOne > tokenTwoconverted) {... */\n      iszero\n      tag_66\n      jumpi\n        /* \"ptrn_eco_system_dev_contracts/V1_poolPriceFeed.sol\":2541:2546  10**8 */\n      0x05f5e100\n        /* \"ptrn_eco_system_dev_contracts/V1_poolPriceFeed.sol\":2534:2539  10**8 */\n      dup1\n        /* \"ptrn_eco_system_dev_contracts/V1_poolPriceFeed.sol\":2516:2533  tokenTwoconverted */\n      dup3\n        /* \"ptrn_eco_system_dev_contracts/V1_poolPriceFeed.sol\":2508:2513  10**8 */\n      0x05f5e100\n        /* \"ptrn_eco_system_dev_contracts/V1_poolPriceFeed.sol\":2499:2507  tokenOne */\n      dup14\n        /* \"ptrn_eco_system_dev_contracts/V1_poolPriceFeed.sol\":2499:2513  tokenOne*10**8 */\n      tag_67\n      swap2\n      swap1\n      tag_65\n      jump\t// in\n    tag_67:\n        /* \"ptrn_eco_system_dev_contracts/V1_poolPriceFeed.sol\":2499:2533  tokenOne*10**8 / tokenTwoconverted */\n      tag_68\n      swap2\n      swap1\n      tag_69\n      jump\t// in\n    tag_68:\n        /* \"ptrn_eco_system_dev_contracts/V1_poolPriceFeed.sol\":2499:2539  tokenOne*10**8 / tokenTwoconverted*10**8 */\n      tag_70\n      swap2\n      swap1\n      tag_65\n      jump\t// in\n    tag_70:\n        /* \"ptrn_eco_system_dev_contracts/V1_poolPriceFeed.sol\":2498:2546  (tokenOne*10**8 / tokenTwoconverted*10**8)/10**8 */\n      tag_71\n      swap2\n      swap1\n      tag_69\n      jump\t// in\n    tag_71:\n        /* \"ptrn_eco_system_dev_contracts/V1_poolPriceFeed.sol\":2548:2549  8 */\n      0x08\n        /* \"ptrn_eco_system_dev_contracts/V1_poolPriceFeed.sol\":2565:2577  tokenOneName */\n      dup10\n        /* \"ptrn_eco_system_dev_contracts/V1_poolPriceFeed.sol\":2584:2596  tokenTwoName */\n      dup8\n        /* \"ptrn_eco_system_dev_contracts/V1_poolPriceFeed.sol\":2551:2597  string.concat(tokenOneName, \"/\", tokenTwoName) */\n      add(0x20, mload(0x40))\n      tag_72\n      swap3\n      swap2\n      swap1\n      tag_73\n      jump\t// in\n    tag_72:\n      mload(0x40)\n      0x20\n      dup2\n      dup4\n      sub\n      sub\n      dup2\n      mstore\n      swap1\n      0x40\n      mstore\n        /* \"ptrn_eco_system_dev_contracts/V1_poolPriceFeed.sol\":2490:2598  return ((tokenOne*10**8 / tokenTwoconverted*10**8)/10**8, 8, string.concat(tokenOneName, \"/\", tokenTwoName)) */\n      swap4\n      pop\n      swap4\n      pop\n      swap4\n      pop\n      pop\n      jump(tag_42)\n        /* \"ptrn_eco_system_dev_contracts/V1_poolPriceFeed.sol\":2438:2760  if (tokenOne > tokenTwoconverted) {... */\n    tag_66:\n        /* \"ptrn_eco_system_dev_contracts/V1_poolPriceFeed.sol\":2688:2693  10**8 */\n      0x05f5e100\n        /* \"ptrn_eco_system_dev_contracts/V1_poolPriceFeed.sol\":2681:2686  10**8 */\n      dup1\n        /* \"ptrn_eco_system_dev_contracts/V1_poolPriceFeed.sol\":2672:2680  tokenOne */\n      dup12\n        /* \"ptrn_eco_system_dev_contracts/V1_poolPriceFeed.sol\":2664:2669  10**8 */\n      0x05f5e100\n        /* \"ptrn_eco_system_dev_contracts/V1_poolPriceFeed.sol\":2646:2663  tokenTwoconverted */\n      dup5\n        /* \"ptrn_eco_system_dev_contracts/V1_poolPriceFeed.sol\":2646:2669  tokenTwoconverted*10**8 */\n      tag_75\n      swap2\n      swap1\n      tag_65\n      jump\t// in\n    tag_75:\n        /* \"ptrn_eco_system_dev_contracts/V1_poolPriceFeed.sol\":2646:2680  tokenTwoconverted*10**8 / tokenOne */\n      tag_76\n      swap2\n      swap1\n      tag_69\n      jump\t// in\n    tag_76:\n        /* \"ptrn_eco_system_dev_contracts/V1_poolPriceFeed.sol\":2646:2686  tokenTwoconverted*10**8 / tokenOne*10**8 */\n      tag_77\n      swap2\n      swap1\n      tag_65\n      jump\t// in\n    tag_77:\n        /* \"ptrn_eco_system_dev_contracts/V1_poolPriceFeed.sol\":2645:2693  (tokenTwoconverted*10**8 / tokenOne*10**8)/10**8 */\n      tag_78\n      swap2\n      swap1\n      tag_69\n      jump\t// in\n    tag_78:\n        /* \"ptrn_eco_system_dev_contracts/V1_poolPriceFeed.sol\":2695:2696  8 */\n      0x08\n        /* \"ptrn_eco_system_dev_contracts/V1_poolPriceFeed.sol\":2712:2724  tokenTwoName */\n      dup7\n        /* \"ptrn_eco_system_dev_contracts/V1_poolPriceFeed.sol\":2731:2743  tokenOneName */\n      dup11\n        /* \"ptrn_eco_system_dev_contracts/V1_poolPriceFeed.sol\":2698:2744  string.concat(tokenTwoName, \"/\", tokenOneName) */\n      add(0x20, mload(0x40))\n      tag_79\n      swap3\n      swap2\n      swap1\n      tag_73\n      jump\t// in\n    tag_79:\n      mload(0x40)\n      0x20\n      dup2\n      dup4\n      sub\n      sub\n      dup2\n      mstore\n      swap1\n      0x40\n      mstore\n        /* \"ptrn_eco_system_dev_contracts/V1_poolPriceFeed.sol\":2637:2745  return ((tokenTwoconverted*10**8 / tokenOne*10**8)/10**8, 8, string.concat(tokenTwoName, \"/\", tokenOneName)) */\n      swap4\n      pop\n      swap4\n      pop\n      swap4\n      pop\n      pop\n      jump(tag_42)\n        /* \"ptrn_eco_system_dev_contracts/V1_poolPriceFeed.sol\":2313:3203  if (decimalOne > decimalTwo) {... */\n    tag_59:\n        /* \"ptrn_eco_system_dev_contracts/V1_poolPriceFeed.sol\":2790:2815  uint256 tokenOneconverted */\n      0x00\n        /* \"ptrn_eco_system_dev_contracts/V1_poolPriceFeed.sol\":2847:2857  decimalOne */\n      dup9\n        /* \"ptrn_eco_system_dev_contracts/V1_poolPriceFeed.sol\":2834:2844  decimalTwo */\n      dup7\n        /* \"ptrn_eco_system_dev_contracts/V1_poolPriceFeed.sol\":2834:2857  decimalTwo - decimalOne */\n      tag_81\n      swap2\n      swap1\n      tag_61\n      jump\t// in\n    tag_81:\n        /* \"ptrn_eco_system_dev_contracts/V1_poolPriceFeed.sol\":2829:2831  10 */\n      0x0a\n        /* \"ptrn_eco_system_dev_contracts/V1_poolPriceFeed.sol\":2829:2858  10**(decimalTwo - decimalOne) */\n      tag_82\n      swap2\n      swap1\n      tag_63\n      jump\t// in\n    tag_82:\n        /* \"ptrn_eco_system_dev_contracts/V1_poolPriceFeed.sol\":2818:2826  tokenOne */\n      dup11\n        /* \"ptrn_eco_system_dev_contracts/V1_poolPriceFeed.sol\":2818:2858  tokenOne * 10**(decimalTwo - decimalOne) */\n      tag_83\n      swap2\n      swap1\n      tag_65\n      jump\t// in\n    tag_83:\n        /* \"ptrn_eco_system_dev_contracts/V1_poolPriceFeed.sol\":2790:2858  uint256 tokenOneconverted = tokenOne * 10**(decimalTwo - decimalOne) */\n      swap1\n      pop\n        /* \"ptrn_eco_system_dev_contracts/V1_poolPriceFeed.sol\":2887:2904  tokenOneconverted */\n      dup1\n        /* \"ptrn_eco_system_dev_contracts/V1_poolPriceFeed.sol\":2876:2884  tokenTwo */\n      dup8\n        /* \"ptrn_eco_system_dev_contracts/V1_poolPriceFeed.sol\":2876:2904  tokenTwo > tokenOneconverted */\n      gt\n        /* \"ptrn_eco_system_dev_contracts/V1_poolPriceFeed.sol\":2872:3193  if (tokenTwo > tokenOneconverted) {... */\n      iszero\n      tag_84\n      jumpi\n        /* \"ptrn_eco_system_dev_contracts/V1_poolPriceFeed.sol\":2975:2980  10**8 */\n      0x05f5e100\n        /* \"ptrn_eco_system_dev_contracts/V1_poolPriceFeed.sol\":2968:2973  10**8 */\n      dup1\n        /* \"ptrn_eco_system_dev_contracts/V1_poolPriceFeed.sol\":2950:2967  tokenOneconverted */\n      dup3\n        /* \"ptrn_eco_system_dev_contracts/V1_poolPriceFeed.sol\":2942:2947  10**8 */\n      0x05f5e100\n        /* \"ptrn_eco_system_dev_contracts/V1_poolPriceFeed.sol\":2933:2941  tokenTwo */\n      dup11\n        /* \"ptrn_eco_system_dev_contracts/V1_poolPriceFeed.sol\":2933:2947  tokenTwo*10**8 */\n      tag_85\n      swap2\n      swap1\n      tag_65\n      jump\t// in\n    tag_85:\n        /* \"ptrn_eco_system_dev_contracts/V1_poolPriceFeed.sol\":2933:2967  tokenTwo*10**8 / tokenOneconverted */\n      tag_86\n      swap2\n      swap1\n      tag_69\n      jump\t// in\n    tag_86:\n        /* \"ptrn_eco_system_dev_contracts/V1_poolPriceFeed.sol\":2933:2973  tokenTwo*10**8 / tokenOneconverted*10**8 */\n      tag_87\n      swap2\n      swap1\n      tag_65\n      jump\t// in\n    tag_87:\n        /* \"ptrn_eco_system_dev_contracts/V1_poolPriceFeed.sol\":2932:2980  (tokenTwo*10**8 / tokenOneconverted*10**8)/10**8 */\n      tag_88\n      swap2\n      swap1\n      tag_69\n      jump\t// in\n    tag_88:\n        /* \"ptrn_eco_system_dev_contracts/V1_poolPriceFeed.sol\":2982:2983  8 */\n      0x08\n        /* \"ptrn_eco_system_dev_contracts/V1_poolPriceFeed.sol\":2999:3011  tokenTwoName */\n      dup7\n        /* \"ptrn_eco_system_dev_contracts/V1_poolPriceFeed.sol\":3018:3030  tokenOneName */\n      dup11\n        /* \"ptrn_eco_system_dev_contracts/V1_poolPriceFeed.sol\":2985:3031  string.concat(tokenTwoName, \"/\", tokenOneName) */\n      add(0x20, mload(0x40))\n      tag_89\n      swap3\n      swap2\n      swap1\n      tag_73\n      jump\t// in\n    tag_89:\n      mload(0x40)\n      0x20\n      dup2\n      dup4\n      sub\n      sub\n      dup2\n      mstore\n      swap1\n      0x40\n      mstore\n        /* \"ptrn_eco_system_dev_contracts/V1_poolPriceFeed.sol\":2924:3032  return ((tokenTwo*10**8 / tokenOneconverted*10**8)/10**8, 8, string.concat(tokenTwoName, \"/\", tokenOneName)) */\n      swap4\n      pop\n      swap4\n      pop\n      swap4\n      pop\n      pop\n      jump(tag_42)\n        /* \"ptrn_eco_system_dev_contracts/V1_poolPriceFeed.sol\":2872:3193  if (tokenTwo > tokenOneconverted) {... */\n    tag_84:\n        /* \"ptrn_eco_system_dev_contracts/V1_poolPriceFeed.sol\":3122:3127  10**8 */\n      0x05f5e100\n        /* \"ptrn_eco_system_dev_contracts/V1_poolPriceFeed.sol\":3115:3120  10**8 */\n      dup1\n        /* \"ptrn_eco_system_dev_contracts/V1_poolPriceFeed.sol\":3106:3114  tokenTwo */\n      dup9\n        /* \"ptrn_eco_system_dev_contracts/V1_poolPriceFeed.sol\":3098:3103  10**8 */\n      0x05f5e100\n        /* \"ptrn_eco_system_dev_contracts/V1_poolPriceFeed.sol\":3080:3097  tokenOneconverted */\n      dup5\n        /* \"ptrn_eco_system_dev_contracts/V1_poolPriceFeed.sol\":3080:3103  tokenOneconverted*10**8 */\n      tag_91\n      swap2\n      swap1\n      tag_65\n      jump\t// in\n    tag_91:\n        /* \"ptrn_eco_system_dev_contracts/V1_poolPriceFeed.sol\":3080:3114  tokenOneconverted*10**8 / tokenTwo */\n      tag_92\n      swap2\n      swap1\n      tag_69\n      jump\t// in\n    tag_92:\n        /* \"ptrn_eco_system_dev_contracts/V1_poolPriceFeed.sol\":3080:3120  tokenOneconverted*10**8 / tokenTwo*10**8 */\n      tag_93\n      swap2\n      swap1\n      tag_65\n      jump\t// in\n    tag_93:\n        /* \"ptrn_eco_system_dev_contracts/V1_poolPriceFeed.sol\":3079:3127  (tokenOneconverted*10**8 / tokenTwo*10**8)/10**8 */\n      tag_94\n      swap2\n      swap1\n      tag_69\n      jump\t// in\n    tag_94:\n        /* \"ptrn_eco_system_dev_contracts/V1_poolPriceFeed.sol\":3129:3130  8 */\n      0x08\n        /* \"ptrn_eco_system_dev_contracts/V1_poolPriceFeed.sol\":3145:3157  tokenOneName */\n      dup10\n        /* \"ptrn_eco_system_dev_contracts/V1_poolPriceFeed.sol\":3164:3176  tokenTwoName */\n      dup8\n        /* \"ptrn_eco_system_dev_contracts/V1_poolPriceFeed.sol\":3131:3177  string.concat(tokenOneName, \"/\", tokenTwoName) */\n      add(0x20, mload(0x40))\n      tag_95\n      swap3\n      swap2\n      swap1\n      tag_73\n      jump\t// in\n    tag_95:\n      mload(0x40)\n      0x20\n      dup2\n      dup4\n      sub\n      sub\n      dup2\n      mstore\n      swap1\n      0x40\n      mstore\n        /* \"ptrn_eco_system_dev_contracts/V1_poolPriceFeed.sol\":3071:3178  return ((tokenOneconverted*10**8 / tokenTwo*10**8)/10**8, 8,string.concat(tokenOneName, \"/\", tokenTwoName)) */\n      swap4\n      pop\n      swap4\n      pop\n      swap4\n      pop\n      pop\n        /* \"ptrn_eco_system_dev_contracts/V1_poolPriceFeed.sol\":1632:3209  function calculatePoolRate(... */\n    tag_42:\n      swap7\n      pop\n      swap7\n      pop\n      swap7\n      swap4\n      pop\n      pop\n      pop\n      pop\n      jump\t// out\n        /* \"#utility.yul\":7:84   */\n    tag_96:\n        /* \"#utility.yul\":44:51   */\n      0x00\n        /* \"#utility.yul\":73:78   */\n      dup2\n        /* \"#utility.yul\":62:78   */\n      swap1\n      pop\n        /* \"#utility.yul\":7:84   */\n      swap2\n      swap1\n      pop\n      jump\t// out\n        /* \"#utility.yul\":90:208   */\n    tag_97:\n        /* \"#utility.yul\":177:201   */\n      tag_147\n        /* \"#utility.yul\":195:200   */\n      dup2\n        /* \"#utility.yul\":177:201   */\n      tag_96\n      jump\t// in\n    tag_147:\n        /* \"#utility.yul\":172:175   */\n      dup3\n        /* \"#utility.yul\":165:202   */\n      mstore\n        /* \"#utility.yul\":90:208   */\n      pop\n      pop\n      jump\t// out\n        /* \"#utility.yul\":214:313   */\n    tag_98:\n        /* \"#utility.yul\":266:272   */\n      0x00\n        /* \"#utility.yul\":300:305   */\n      dup2\n        /* \"#utility.yul\":294:306   */\n      mload\n        /* \"#utility.yul\":284:306   */\n      swap1\n      pop\n        /* \"#utility.yul\":214:313   */\n      swap2\n      swap1\n      pop\n      jump\t// out\n        /* \"#utility.yul\":319:488   */\n    tag_99:\n        /* \"#utility.yul\":403:414   */\n      0x00\n        /* \"#utility.yul\":437:443   */\n      dup3\n        /* \"#utility.yul\":432:435   */\n      dup3\n        /* \"#utility.yul\":425:444   */\n      mstore\n        /* \"#utility.yul\":477:481   */\n      0x20\n        /* \"#utility.yul\":472:475   */\n      dup3\n        /* \"#utility.yul\":468:482   */\n      add\n        /* \"#utility.yul\":453:482   */\n      swap1\n      pop\n        /* \"#utility.yul\":319:488   */\n      swap3\n      swap2\n      pop\n      pop\n      jump\t// out\n        /* \"#utility.yul\":494:740   */\n    tag_100:\n        /* \"#utility.yul\":575:576   */\n      0x00\n        /* \"#utility.yul\":585:698   */\n    tag_151:\n        /* \"#utility.yul\":599:605   */\n      dup4\n        /* \"#utility.yul\":596:597   */\n      dup2\n        /* \"#utility.yul\":593:606   */\n      lt\n        /* \"#utility.yul\":585:698   */\n      iszero\n      tag_153\n      jumpi\n        /* \"#utility.yul\":684:685   */\n      dup1\n        /* \"#utility.yul\":679:682   */\n      dup3\n        /* \"#utility.yul\":675:686   */\n      add\n        /* \"#utility.yul\":669:687   */\n      mload\n        /* \"#utility.yul\":665:666   */\n      dup2\n        /* \"#utility.yul\":660:663   */\n      dup5\n        /* \"#utility.yul\":656:667   */\n      add\n        /* \"#utility.yul\":649:688   */\n      mstore\n        /* \"#utility.yul\":621:623   */\n      0x20\n        /* \"#utility.yul\":618:619   */\n      dup2\n        /* \"#utility.yul\":614:624   */\n      add\n        /* \"#utility.yul\":609:624   */\n      swap1\n      pop\n        /* \"#utility.yul\":585:698   */\n      jump(tag_151)\n    tag_153:\n        /* \"#utility.yul\":732:733   */\n      0x00\n        /* \"#utility.yul\":723:729   */\n      dup5\n        /* \"#utility.yul\":718:721   */\n      dup5\n        /* \"#utility.yul\":714:730   */\n      add\n        /* \"#utility.yul\":707:734   */\n      mstore\n        /* \"#utility.yul\":556:740   */\n      pop\n        /* \"#utility.yul\":494:740   */\n      pop\n      pop\n      pop\n      jump\t// out\n        /* \"#utility.yul\":746:848   */\n    tag_101:\n        /* \"#utility.yul\":787:793   */\n      0x00\n        /* \"#utility.yul\":838:840   */\n      0x1f\n        /* \"#utility.yul\":834:841   */\n      not\n        /* \"#utility.yul\":829:831   */\n      0x1f\n        /* \"#utility.yul\":822:827   */\n      dup4\n        /* \"#utility.yul\":818:832   */\n      add\n        /* \"#utility.yul\":814:842   */\n      and\n        /* \"#utility.yul\":804:842   */\n      swap1\n      pop\n        /* \"#utility.yul\":746:848   */\n      swap2\n      swap1\n      pop\n      jump\t// out\n        /* \"#utility.yul\":854:1231   */\n    tag_102:\n        /* \"#utility.yul\":942:945   */\n      0x00\n        /* \"#utility.yul\":970:1009   */\n      tag_156\n        /* \"#utility.yul\":1003:1008   */\n      dup3\n        /* \"#utility.yul\":970:1009   */\n      tag_98\n      jump\t// in\n    tag_156:\n        /* \"#utility.yul\":1025:1096   */\n      tag_157\n        /* \"#utility.yul\":1089:1095   */\n      dup2\n        /* \"#utility.yul\":1084:1087   */\n      dup6\n        /* \"#utility.yul\":1025:1096   */\n      tag_99\n      jump\t// in\n    tag_157:\n        /* \"#utility.yul\":1018:1096   */\n      swap4\n      pop\n        /* \"#utility.yul\":1105:1170   */\n      tag_158\n        /* \"#utility.yul\":1163:1169   */\n      dup2\n        /* \"#utility.yul\":1158:1161   */\n      dup6\n        /* \"#utility.yul\":1151:1155   */\n      0x20\n        /* \"#utility.yul\":1144:1149   */\n      dup7\n        /* \"#utility.yul\":1140:1156   */\n      add\n        /* \"#utility.yul\":1105:1170   */\n      tag_100\n      jump\t// in\n    tag_158:\n        /* \"#utility.yul\":1195:1224   */\n      tag_159\n        /* \"#utility.yul\":1217:1223   */\n      dup2\n        /* \"#utility.yul\":1195:1224   */\n      tag_101\n      jump\t// in\n    tag_159:\n        /* \"#utility.yul\":1190:1193   */\n      dup5\n        /* \"#utility.yul\":1186:1225   */\n      add\n        /* \"#utility.yul\":1179:1225   */\n      swap2\n      pop\n        /* \"#utility.yul\":946:1231   */\n      pop\n        /* \"#utility.yul\":854:1231   */\n      swap3\n      swap2\n      pop\n      pop\n      jump\t// out\n        /* \"#utility.yul\":1237:1770   */\n    tag_8:\n        /* \"#utility.yul\":1406:1410   */\n      0x00\n        /* \"#utility.yul\":1444:1446   */\n      0x60\n        /* \"#utility.yul\":1433:1442   */\n      dup3\n        /* \"#utility.yul\":1429:1447   */\n      add\n        /* \"#utility.yul\":1421:1447   */\n      swap1\n      pop\n        /* \"#utility.yul\":1457:1528   */\n      tag_161\n        /* \"#utility.yul\":1525:1526   */\n      0x00\n        /* \"#utility.yul\":1514:1523   */\n      dup4\n        /* \"#utility.yul\":1510:1527   */\n      add\n        /* \"#utility.yul\":1501:1507   */\n      dup7\n        /* \"#utility.yul\":1457:1528   */\n      tag_97\n      jump\t// in\n    tag_161:\n        /* \"#utility.yul\":1538:1610   */\n      tag_162\n        /* \"#utility.yul\":1606:1608   */\n      0x20\n        /* \"#utility.yul\":1595:1604   */\n      dup4\n        /* \"#utility.yul\":1591:1609   */\n      add\n        /* \"#utility.yul\":1582:1588   */\n      dup6\n        /* \"#utility.yul\":1538:1610   */\n      tag_97\n      jump\t// in\n    tag_162:\n        /* \"#utility.yul\":1657:1666   */\n      dup2\n        /* \"#utility.yul\":1651:1655   */\n      dup2\n        /* \"#utility.yul\":1647:1667   */\n      sub\n        /* \"#utility.yul\":1642:1644   */\n      0x40\n        /* \"#utility.yul\":1631:1640   */\n      dup4\n        /* \"#utility.yul\":1627:1645   */\n      add\n        /* \"#utility.yul\":1620:1668   */\n      mstore\n        /* \"#utility.yul\":1685:1763   */\n      tag_163\n        /* \"#utility.yul\":1758:1762   */\n      dup2\n        /* \"#utility.yul\":1749:1755   */\n      dup5\n        /* \"#utility.yul\":1685:1763   */\n      tag_102\n      jump\t// in\n    tag_163:\n        /* \"#utility.yul\":1677:1763   */\n      swap1\n      pop\n        /* \"#utility.yul\":1237:1770   */\n      swap5\n      swap4\n      pop\n      pop\n      pop\n      pop\n      jump\t// out\n        /* \"#utility.yul\":1776:1851   */\n    tag_103:\n        /* \"#utility.yul\":1809:1815   */\n      0x00\n        /* \"#utility.yul\":1842:1844   */\n      0x40\n        /* \"#utility.yul\":1836:1845   */\n      mload\n        /* \"#utility.yul\":1826:1845   */\n      swap1\n      pop\n        /* \"#utility.yul\":1776:1851   */\n      swap1\n      jump\t// out\n        /* \"#utility.yul\":1857:1974   */\n    tag_104:\n        /* \"#utility.yul\":1966:1967   */\n      0x00\n        /* \"#utility.yul\":1963:1964   */\n      dup1\n        /* \"#utility.yul\":1956:1968   */\n      revert\n        /* \"#utility.yul\":1980:2097   */\n    tag_105:\n        /* \"#utility.yul\":2089:2090   */\n      0x00\n        /* \"#utility.yul\":2086:2087   */\n      dup1\n        /* \"#utility.yul\":2079:2091   */\n      revert\n        /* \"#utility.yul\":2103:2229   */\n    tag_106:\n        /* \"#utility.yul\":2140:2147   */\n      0x00\n        /* \"#utility.yul\":2180:2222   */\n      0xffffffffffffffffffffffffffffffffffffffff\n        /* \"#utility.yul\":2173:2178   */\n      dup3\n        /* \"#utility.yul\":2169:2223   */\n      and\n        /* \"#utility.yul\":2158:2223   */\n      swap1\n      pop\n        /* \"#utility.yul\":2103:2229   */\n      swap2\n      swap1\n      pop\n      jump\t// out\n        /* \"#utility.yul\":2235:2331   */\n    tag_107:\n        /* \"#utility.yul\":2272:2279   */\n      0x00\n        /* \"#utility.yul\":2301:2325   */\n      tag_169\n        /* \"#utility.yul\":2319:2324   */\n      dup3\n        /* \"#utility.yul\":2301:2325   */\n      tag_106\n      jump\t// in\n    tag_169:\n        /* \"#utility.yul\":2290:2325   */\n      swap1\n      pop\n        /* \"#utility.yul\":2235:2331   */\n      swap2\n      swap1\n      pop\n      jump\t// out\n        /* \"#utility.yul\":2337:2459   */\n    tag_108:\n        /* \"#utility.yul\":2410:2434   */\n      tag_171\n        /* \"#utility.yul\":2428:2433   */\n      dup2\n        /* \"#utility.yul\":2410:2434   */\n      tag_107\n      jump\t// in\n    tag_171:\n        /* \"#utility.yul\":2403:2408   */\n      dup2\n        /* \"#utility.yul\":2400:2435   */\n      eq\n        /* \"#utility.yul\":2390:2453   */\n      tag_172\n      jumpi\n        /* \"#utility.yul\":2449:2450   */\n      0x00\n        /* \"#utility.yul\":2446:2447   */\n      dup1\n        /* \"#utility.yul\":2439:2451   */\n      revert\n        /* \"#utility.yul\":2390:2453   */\n    tag_172:\n        /* \"#utility.yul\":2337:2459   */\n      pop\n      jump\t// out\n        /* \"#utility.yul\":2465:2604   */\n    tag_109:\n        /* \"#utility.yul\":2511:2516   */\n      0x00\n        /* \"#utility.yul\":2549:2555   */\n      dup2\n        /* \"#utility.yul\":2536:2556   */\n      calldataload\n        /* \"#utility.yul\":2527:2556   */\n      swap1\n      pop\n        /* \"#utility.yul\":2565:2598   */\n      tag_174\n        /* \"#utility.yul\":2592:2597   */\n      dup2\n        /* \"#utility.yul\":2565:2598   */\n      tag_108\n      jump\t// in\n    tag_174:\n        /* \"#utility.yul\":2465:2604   */\n      swap3\n      swap2\n      pop\n      pop\n      jump\t// out\n        /* \"#utility.yul\":2610:2939   */\n    tag_11:\n        /* \"#utility.yul\":2669:2675   */\n      0x00\n        /* \"#utility.yul\":2718:2720   */\n      0x20\n        /* \"#utility.yul\":2706:2715   */\n      dup3\n        /* \"#utility.yul\":2697:2704   */\n      dup5\n        /* \"#utility.yul\":2693:2716   */\n      sub\n        /* \"#utility.yul\":2689:2721   */\n      slt\n        /* \"#utility.yul\":2686:2805   */\n      iszero\n      tag_176\n      jumpi\n        /* \"#utility.yul\":2724:2803   */\n      tag_177\n      tag_104\n      jump\t// in\n    tag_177:\n        /* \"#utility.yul\":2686:2805   */\n    tag_176:\n        /* \"#utility.yul\":2844:2845   */\n      0x00\n        /* \"#utility.yul\":2869:2922   */\n      tag_178\n        /* \"#utility.yul\":2914:2921   */\n      dup5\n        /* \"#utility.yul\":2905:2911   */\n      dup3\n        /* \"#utility.yul\":2894:2903   */\n      dup6\n        /* \"#utility.yul\":2890:2912   */\n      add\n        /* \"#utility.yul\":2869:2922   */\n      tag_109\n      jump\t// in\n    tag_178:\n        /* \"#utility.yul\":2859:2922   */\n      swap2\n      pop\n        /* \"#utility.yul\":2815:2932   */\n      pop\n        /* \"#utility.yul\":2610:2939   */\n      swap3\n      swap2\n      pop\n      pop\n      jump\t// out\n        /* \"#utility.yul\":2945:3059   */\n    tag_110:\n        /* \"#utility.yul\":2982:2989   */\n      0x00\n        /* \"#utility.yul\":3022:3052   */\n      0xffffffffffffffffffffffffffff\n        /* \"#utility.yul\":3015:3020   */\n      dup3\n        /* \"#utility.yul\":3011:3053   */\n      and\n        /* \"#utility.yul\":3000:3053   */\n      swap1\n      pop\n        /* \"#utility.yul\":2945:3059   */\n      swap2\n      swap1\n      pop\n      jump\t// out\n        /* \"#utility.yul\":3065:3187   */\n    tag_111:\n        /* \"#utility.yul\":3138:3162   */\n      tag_181\n        /* \"#utility.yul\":3156:3161   */\n      dup2\n        /* \"#utility.yul\":3138:3162   */\n      tag_110\n      jump\t// in\n    tag_181:\n        /* \"#utility.yul\":3131:3136   */\n      dup2\n        /* \"#utility.yul\":3128:3163   */\n      eq\n        /* \"#utility.yul\":3118:3181   */\n      tag_182\n      jumpi\n        /* \"#utility.yul\":3177:3178   */\n      0x00\n        /* \"#utility.yul\":3174:3175   */\n      dup1\n        /* \"#utility.yul\":3167:3179   */\n      revert\n        /* \"#utility.yul\":3118:3181   */\n    tag_182:\n        /* \"#utility.yul\":3065:3187   */\n      pop\n      jump\t// out\n        /* \"#utility.yul\":3193:3336   */\n    tag_112:\n        /* \"#utility.yul\":3250:3255   */\n      0x00\n        /* \"#utility.yul\":3281:3287   */\n      dup2\n        /* \"#utility.yul\":3275:3288   */\n      mload\n        /* \"#utility.yul\":3266:3288   */\n      swap1\n      pop\n        /* \"#utility.yul\":3297:3330   */\n      tag_184\n        /* \"#utility.yul\":3324:3329   */\n      dup2\n        /* \"#utility.yul\":3297:3330   */\n      tag_111\n      jump\t// in\n    tag_184:\n        /* \"#utility.yul\":3193:3336   */\n      swap3\n      swap2\n      pop\n      pop\n      jump\t// out\n        /* \"#utility.yul\":3342:3435   */\n    tag_113:\n        /* \"#utility.yul\":3378:3385   */\n      0x00\n        /* \"#utility.yul\":3418:3428   */\n      0xffffffff\n        /* \"#utility.yul\":3411:3416   */\n      dup3\n        /* \"#utility.yul\":3407:3429   */\n      and\n        /* \"#utility.yul\":3396:3429   */\n      swap1\n      pop\n        /* \"#utility.yul\":3342:3435   */\n      swap2\n      swap1\n      pop\n      jump\t// out\n        /* \"#utility.yul\":3441:3561   */\n    tag_114:\n        /* \"#utility.yul\":3513:3536   */\n      tag_187\n        /* \"#utility.yul\":3530:3535   */\n      dup2\n        /* \"#utility.yul\":3513:3536   */\n      tag_113\n      jump\t// in\n    tag_187:\n        /* \"#utility.yul\":3506:3511   */\n      dup2\n        /* \"#utility.yul\":3503:3537   */\n      eq\n        /* \"#utility.yul\":3493:3555   */\n      tag_188\n      jumpi\n        /* \"#utility.yul\":3551:3552   */\n      0x00\n        /* \"#utility.yul\":3548:3549   */\n      dup1\n        /* \"#utility.yul\":3541:3553   */\n      revert\n        /* \"#utility.yul\":3493:3555   */\n    tag_188:\n        /* \"#utility.yul\":3441:3561   */\n      pop\n      jump\t// out\n        /* \"#utility.yul\":3567:3708   */\n    tag_115:\n        /* \"#utility.yul\":3623:3628   */\n      0x00\n        /* \"#utility.yul\":3654:3660   */\n      dup2\n        /* \"#utility.yul\":3648:3661   */\n      mload\n        /* \"#utility.yul\":3639:3661   */\n      swap1\n      pop\n        /* \"#utility.yul\":3670:3702   */\n      tag_190\n        /* \"#utility.yul\":3696:3701   */\n      dup2\n        /* \"#utility.yul\":3670:3702   */\n      tag_114\n      jump\t// in\n    tag_190:\n        /* \"#utility.yul\":3567:3708   */\n      swap3\n      swap2\n      pop\n      pop\n      jump\t// out\n        /* \"#utility.yul\":3714:4375   */\n    tag_17:\n        /* \"#utility.yul\":3801:3807   */\n      0x00\n        /* \"#utility.yul\":3809:3815   */\n      dup1\n        /* \"#utility.yul\":3817:3823   */\n      0x00\n        /* \"#utility.yul\":3866:3868   */\n      0x60\n        /* \"#utility.yul\":3854:3863   */\n      dup5\n        /* \"#utility.yul\":3845:3852   */\n      dup7\n        /* \"#utility.yul\":3841:3864   */\n      sub\n        /* \"#utility.yul\":3837:3869   */\n      slt\n        /* \"#utility.yul\":3834:3953   */\n      iszero\n      tag_192\n      jumpi\n        /* \"#utility.yul\":3872:3951   */\n      tag_193\n      tag_104\n      jump\t// in\n    tag_193:\n        /* \"#utility.yul\":3834:3953   */\n    tag_192:\n        /* \"#utility.yul\":3992:3993   */\n      0x00\n        /* \"#utility.yul\":4017:4081   */\n      tag_194\n        /* \"#utility.yul\":4073:4080   */\n      dup7\n        /* \"#utility.yul\":4064:4070   */\n      dup3\n        /* \"#utility.yul\":4053:4062   */\n      dup8\n        /* \"#utility.yul\":4049:4071   */\n      add\n        /* \"#utility.yul\":4017:4081   */\n      tag_112\n      jump\t// in\n    tag_194:\n        /* \"#utility.yul\":4007:4081   */\n      swap4\n      pop\n        /* \"#utility.yul\":3963:4091   */\n      pop\n        /* \"#utility.yul\":4130:4132   */\n      0x20\n        /* \"#utility.yul\":4156:4220   */\n      tag_195\n        /* \"#utility.yul\":4212:4219   */\n      dup7\n        /* \"#utility.yul\":4203:4209   */\n      dup3\n        /* \"#utility.yul\":4192:4201   */\n      dup8\n        /* \"#utility.yul\":4188:4210   */\n      add\n        /* \"#utility.yul\":4156:4220   */\n      tag_112\n      jump\t// in\n    tag_195:\n        /* \"#utility.yul\":4146:4220   */\n      swap3\n      pop\n        /* \"#utility.yul\":4101:4230   */\n      pop\n        /* \"#utility.yul\":4269:4271   */\n      0x40\n        /* \"#utility.yul\":4295:4358   */\n      tag_196\n        /* \"#utility.yul\":4350:4357   */\n      dup7\n        /* \"#utility.yul\":4341:4347   */\n      dup3\n        /* \"#utility.yul\":4330:4339   */\n      dup8\n        /* \"#utility.yul\":4326:4348   */\n      add\n        /* \"#utility.yul\":4295:4358   */\n      tag_115\n      jump\t// in\n    tag_196:\n        /* \"#utility.yul\":4285:4358   */\n      swap2\n      pop\n        /* \"#utility.yul\":4240:4368   */\n      pop\n        /* \"#utility.yul\":3714:4375   */\n      swap3\n      pop\n      swap3\n      pop\n      swap3\n      jump\t// out\n        /* \"#utility.yul\":4381:4524   */\n    tag_116:\n        /* \"#utility.yul\":4438:4443   */\n      0x00\n        /* \"#utility.yul\":4469:4475   */\n      dup2\n        /* \"#utility.yul\":4463:4476   */\n      mload\n        /* \"#utility.yul\":4454:4476   */\n      swap1\n      pop\n        /* \"#utility.yul\":4485:4518   */\n      tag_198\n        /* \"#utility.yul\":4512:4517   */\n      dup2\n        /* \"#utility.yul\":4485:4518   */\n      tag_108\n      jump\t// in\n    tag_198:\n        /* \"#utility.yul\":4381:4524   */\n      swap3\n      swap2\n      pop\n      pop\n      jump\t// out\n        /* \"#utility.yul\":4530:4881   */\n    tag_21:\n        /* \"#utility.yul\":4600:4606   */\n      0x00\n        /* \"#utility.yul\":4649:4651   */\n      0x20\n        /* \"#utility.yul\":4637:4646   */\n      dup3\n        /* \"#utility.yul\":4628:4635   */\n      dup5\n        /* \"#utility.yul\":4624:4647   */\n      sub\n        /* \"#utility.yul\":4620:4652   */\n      slt\n        /* \"#utility.yul\":4617:4736   */\n      iszero\n      tag_200\n      jumpi\n        /* \"#utility.yul\":4655:4734   */\n      tag_201\n      tag_104\n      jump\t// in\n    tag_201:\n        /* \"#utility.yul\":4617:4736   */\n    tag_200:\n        /* \"#utility.yul\":4775:4776   */\n      0x00\n        /* \"#utility.yul\":4800:4864   */\n      tag_202\n        /* \"#utility.yul\":4856:4863   */\n      dup5\n        /* \"#utility.yul\":4847:4853   */\n      dup3\n        /* \"#utility.yul\":4836:4845   */\n      dup6\n        /* \"#utility.yul\":4832:4854   */\n      add\n        /* \"#utility.yul\":4800:4864   */\n      tag_116\n      jump\t// in\n    tag_202:\n        /* \"#utility.yul\":4790:4864   */\n      swap2\n      pop\n        /* \"#utility.yul\":4746:4874   */\n      pop\n        /* \"#utility.yul\":4530:4881   */\n      swap3\n      swap2\n      pop\n      pop\n      jump\t// out\n        /* \"#utility.yul\":4887:4973   */\n    tag_117:\n        /* \"#utility.yul\":4922:4929   */\n      0x00\n        /* \"#utility.yul\":4962:4966   */\n      0xff\n        /* \"#utility.yul\":4955:4960   */\n      dup3\n        /* \"#utility.yul\":4951:4967   */\n      and\n        /* \"#utility.yul\":4940:4967   */\n      swap1\n      pop\n        /* \"#utility.yul\":4887:4973   */\n      swap2\n      swap1\n      pop\n      jump\t// out\n        /* \"#utility.yul\":4979:5097   */\n    tag_118:\n        /* \"#utility.yul\":5050:5072   */\n      tag_205\n        /* \"#utility.yul\":5066:5071   */\n      dup2\n        /* \"#utility.yul\":5050:5072   */\n      tag_117\n      jump\t// in\n    tag_205:\n        /* \"#utility.yul\":5043:5048   */\n      dup2\n        /* \"#utility.yul\":5040:5073   */\n      eq\n        /* \"#utility.yul\":5030:5091   */\n      tag_206\n      jumpi\n        /* \"#utility.yul\":5087:5088   */\n      0x00\n        /* \"#utility.yul\":5084:5085   */\n      dup1\n        /* \"#utility.yul\":5077:5089   */\n      revert\n        /* \"#utility.yul\":5030:5091   */\n    tag_206:\n        /* \"#utility.yul\":4979:5097   */\n      pop\n      jump\t// out\n        /* \"#utility.yul\":5103:5242   */\n    tag_119:\n        /* \"#utility.yul\":5158:5163   */\n      0x00\n        /* \"#utility.yul\":5189:5195   */\n      dup2\n        /* \"#utility.yul\":5183:5196   */\n      mload\n        /* \"#utility.yul\":5174:5196   */\n      swap1\n      pop\n        /* \"#utility.yul\":5205:5236   */\n      tag_208\n        /* \"#utility.yul\":5230:5235   */\n      dup2\n        /* \"#utility.yul\":5205:5236   */\n      tag_118\n      jump\t// in\n    tag_208:\n        /* \"#utility.yul\":5103:5242   */\n      swap3\n      swap2\n      pop\n      pop\n      jump\t// out\n        /* \"#utility.yul\":5248:5595   */\n    tag_28:\n        /* \"#utility.yul\":5316:5322   */\n      0x00\n        /* \"#utility.yul\":5365:5367   */\n      0x20\n        /* \"#utility.yul\":5353:5362   */\n      dup3\n        /* \"#utility.yul\":5344:5351   */\n      dup5\n        /* \"#utility.yul\":5340:5363   */\n      sub\n        /* \"#utility.yul\":5336:5368   */\n      slt\n        /* \"#utility.yul\":5333:5452   */\n      iszero\n      tag_210\n      jumpi\n        /* \"#utility.yul\":5371:5450   */\n      tag_211\n      tag_104\n      jump\t// in\n    tag_211:\n        /* \"#utility.yul\":5333:5452   */\n    tag_210:\n        /* \"#utility.yul\":5491:5492   */\n      0x00\n        /* \"#utility.yul\":5516:5578   */\n      tag_212\n        /* \"#utility.yul\":5570:5577   */\n      dup5\n        /* \"#utility.yul\":5561:5567   */\n      dup3\n        /* \"#utility.yul\":5550:5559   */\n      dup6\n        /* \"#utility.yul\":5546:5568   */\n      add\n        /* \"#utility.yul\":5516:5578   */\n      tag_119\n      jump\t// in\n    tag_212:\n        /* \"#utility.yul\":5506:5578   */\n      swap2\n      pop\n        /* \"#utility.yul\":5462:5588   */\n      pop\n        /* \"#utility.yul\":5248:5595   */\n      swap3\n      swap2\n      pop\n      pop\n      jump\t// out\n        /* \"#utility.yul\":5601:5718   */\n    tag_120:\n        /* \"#utility.yul\":5710:5711   */\n      0x00\n        /* \"#utility.yul\":5707:5708   */\n      dup1\n        /* \"#utility.yul\":5700:5712   */\n      revert\n        /* \"#utility.yul\":5724:5841   */\n    tag_121:\n        /* \"#utility.yul\":5833:5834   */\n      0x00\n        /* \"#utility.yul\":5830:5831   */\n      dup1\n        /* \"#utility.yul\":5823:5835   */\n      revert\n        /* \"#utility.yul\":5847:6027   */\n    tag_122:\n        /* \"#utility.yul\":5895:5972   */\n      0x4e487b7100000000000000000000000000000000000000000000000000000000\n        /* \"#utility.yul\":5892:5893   */\n      0x00\n        /* \"#utility.yul\":5885:5973   */\n      mstore\n        /* \"#utility.yul\":5992:5996   */\n      0x41\n        /* \"#utility.yul\":5989:5990   */\n      0x04\n        /* \"#utility.yul\":5982:5997   */\n      mstore\n        /* \"#utility.yul\":6016:6020   */\n      0x24\n        /* \"#utility.yul\":6013:6014   */\n      0x00\n        /* \"#utility.yul\":6006:6021   */\n      revert\n        /* \"#utility.yul\":6033:6314   */\n    tag_123:\n        /* \"#utility.yul\":6116:6143   */\n      tag_217\n        /* \"#utility.yul\":6138:6142   */\n      dup3\n        /* \"#utility.yul\":6116:6143   */\n      tag_101\n      jump\t// in\n    tag_217:\n        /* \"#utility.yul\":6108:6114   */\n      dup2\n        /* \"#utility.yul\":6104:6144   */\n      add\n        /* \"#utility.yul\":6246:6252   */\n      dup2\n        /* \"#utility.yul\":6234:6244   */\n      dup2\n        /* \"#utility.yul\":6231:6253   */\n      lt\n        /* \"#utility.yul\":6210:6228   */\n      0xffffffffffffffff\n        /* \"#utility.yul\":6198:6208   */\n      dup3\n        /* \"#utility.yul\":6195:6229   */\n      gt\n        /* \"#utility.yul\":6192:6254   */\n      or\n        /* \"#utility.yul\":6189:6277   */\n      iszero\n      tag_218\n      jumpi\n        /* \"#utility.yul\":6257:6275   */\n      tag_219\n      tag_122\n      jump\t// in\n    tag_219:\n        /* \"#utility.yul\":6189:6277   */\n    tag_218:\n        /* \"#utility.yul\":6297:6307   */\n      dup1\n        /* \"#utility.yul\":6293:6295   */\n      0x40\n        /* \"#utility.yul\":6286:6308   */\n      mstore\n        /* \"#utility.yul\":6076:6314   */\n      pop\n        /* \"#utility.yul\":6033:6314   */\n      pop\n      pop\n      jump\t// out\n        /* \"#utility.yul\":6320:6449   */\n    tag_124:\n        /* \"#utility.yul\":6354:6360   */\n      0x00\n        /* \"#utility.yul\":6381:6401   */\n      tag_221\n      tag_103\n      jump\t// in\n    tag_221:\n        /* \"#utility.yul\":6371:6401   */\n      swap1\n      pop\n        /* \"#utility.yul\":6410:6443   */\n      tag_222\n        /* \"#utility.yul\":6438:6442   */\n      dup3\n        /* \"#utility.yul\":6430:6436   */\n      dup3\n        /* \"#utility.yul\":6410:6443   */\n      tag_123\n      jump\t// in\n    tag_222:\n        /* \"#utility.yul\":6320:6449   */\n      swap2\n      swap1\n      pop\n      jump\t// out\n        /* \"#utility.yul\":6455:6763   */\n    tag_125:\n        /* \"#utility.yul\":6517:6521   */\n      0x00\n        /* \"#utility.yul\":6607:6625   */\n      0xffffffffffffffff\n        /* \"#utility.yul\":6599:6605   */\n      dup3\n        /* \"#utility.yul\":6596:6626   */\n      gt\n        /* \"#utility.yul\":6593:6649   */\n      iszero\n      tag_224\n      jumpi\n        /* \"#utility.yul\":6629:6647   */\n      tag_225\n      tag_122\n      jump\t// in\n    tag_225:\n        /* \"#utility.yul\":6593:6649   */\n    tag_224:\n        /* \"#utility.yul\":6667:6696   */\n      tag_226\n        /* \"#utility.yul\":6689:6695   */\n      dup3\n        /* \"#utility.yul\":6667:6696   */\n      tag_101\n      jump\t// in\n    tag_226:\n        /* \"#utility.yul\":6659:6696   */\n      swap1\n      pop\n        /* \"#utility.yul\":6751:6755   */\n      0x20\n        /* \"#utility.yul\":6745:6749   */\n      dup2\n        /* \"#utility.yul\":6741:6756   */\n      add\n        /* \"#utility.yul\":6733:6756   */\n      swap1\n      pop\n        /* \"#utility.yul\":6455:6763   */\n      swap2\n      swap1\n      pop\n      jump\t// out\n        /* \"#utility.yul\":6769:7203   */\n    tag_126:\n        /* \"#utility.yul\":6858:6863   */\n      0x00\n        /* \"#utility.yul\":6883:6949   */\n      tag_228\n        /* \"#utility.yul\":6899:6948   */\n      tag_229\n        /* \"#utility.yul\":6941:6947   */\n      dup5\n        /* \"#utility.yul\":6899:6948   */\n      tag_125\n      jump\t// in\n    tag_229:\n        /* \"#utility.yul\":6883:6949   */\n      tag_124\n      jump\t// in\n    tag_228:\n        /* \"#utility.yul\":6874:6949   */\n      swap1\n      pop\n        /* \"#utility.yul\":6972:6978   */\n      dup3\n        /* \"#utility.yul\":6965:6970   */\n      dup2\n        /* \"#utility.yul\":6958:6979   */\n      mstore\n        /* \"#utility.yul\":7010:7014   */\n      0x20\n        /* \"#utility.yul\":7003:7008   */\n      dup2\n        /* \"#utility.yul\":6999:7015   */\n      add\n        /* \"#utility.yul\":7048:7051   */\n      dup5\n        /* \"#utility.yul\":7039:7045   */\n      dup5\n        /* \"#utility.yul\":7034:7037   */\n      dup5\n        /* \"#utility.yul\":7030:7046   */\n      add\n        /* \"#utility.yul\":7027:7052   */\n      gt\n        /* \"#utility.yul\":7024:7136   */\n      iszero\n      tag_230\n      jumpi\n        /* \"#utility.yul\":7055:7134   */\n      tag_231\n      tag_121\n      jump\t// in\n    tag_231:\n        /* \"#utility.yul\":7024:7136   */\n    tag_230:\n        /* \"#utility.yul\":7145:7197   */\n      tag_232\n        /* \"#utility.yul\":7190:7196   */\n      dup5\n        /* \"#utility.yul\":7185:7188   */\n      dup3\n        /* \"#utility.yul\":7180:7183   */\n      dup6\n        /* \"#utility.yul\":7145:7197   */\n      tag_100\n      jump\t// in\n    tag_232:\n        /* \"#utility.yul\":6864:7203   */\n      pop\n        /* \"#utility.yul\":6769:7203   */\n      swap4\n      swap3\n      pop\n      pop\n      pop\n      jump\t// out\n        /* \"#utility.yul\":7223:7578   */\n    tag_127:\n        /* \"#utility.yul\":7290:7295   */\n      0x00\n        /* \"#utility.yul\":7339:7342   */\n      dup3\n        /* \"#utility.yul\":7332:7336   */\n      0x1f\n        /* \"#utility.yul\":7324:7330   */\n      dup4\n        /* \"#utility.yul\":7320:7337   */\n      add\n        /* \"#utility.yul\":7316:7343   */\n      slt\n        /* \"#utility.yul\":7306:7428   */\n      tag_234\n      jumpi\n        /* \"#utility.yul\":7347:7426   */\n      tag_235\n      tag_120\n      jump\t// in\n    tag_235:\n        /* \"#utility.yul\":7306:7428   */\n    tag_234:\n        /* \"#utility.yul\":7457:7463   */\n      dup2\n        /* \"#utility.yul\":7451:7464   */\n      mload\n        /* \"#utility.yul\":7482:7572   */\n      tag_236\n        /* \"#utility.yul\":7568:7571   */\n      dup5\n        /* \"#utility.yul\":7560:7566   */\n      dup3\n        /* \"#utility.yul\":7553:7557   */\n      0x20\n        /* \"#utility.yul\":7545:7551   */\n      dup7\n        /* \"#utility.yul\":7541:7558   */\n      add\n        /* \"#utility.yul\":7482:7572   */\n      tag_126\n      jump\t// in\n    tag_236:\n        /* \"#utility.yul\":7473:7572   */\n      swap2\n      pop\n        /* \"#utility.yul\":7296:7578   */\n      pop\n        /* \"#utility.yul\":7223:7578   */\n      swap3\n      swap2\n      pop\n      pop\n      jump\t// out\n        /* \"#utility.yul\":7584:8108   */\n    tag_35:\n        /* \"#utility.yul\":7664:7670   */\n      0x00\n        /* \"#utility.yul\":7713:7715   */\n      0x20\n        /* \"#utility.yul\":7701:7710   */\n      dup3\n        /* \"#utility.yul\":7692:7699   */\n      dup5\n        /* \"#utility.yul\":7688:7711   */\n      sub\n        /* \"#utility.yul\":7684:7716   */\n      slt\n        /* \"#utility.yul\":7681:7800   */\n      iszero\n      tag_238\n      jumpi\n        /* \"#utility.yul\":7719:7798   */\n      tag_239\n      tag_104\n      jump\t// in\n    tag_239:\n        /* \"#utility.yul\":7681:7800   */\n    tag_238:\n        /* \"#utility.yul\":7860:7861   */\n      0x00\n        /* \"#utility.yul\":7849:7858   */\n      dup3\n        /* \"#utility.yul\":7845:7862   */\n      add\n        /* \"#utility.yul\":7839:7863   */\n      mload\n        /* \"#utility.yul\":7890:7908   */\n      0xffffffffffffffff\n        /* \"#utility.yul\":7882:7888   */\n      dup2\n        /* \"#utility.yul\":7879:7909   */\n      gt\n        /* \"#utility.yul\":7876:7993   */\n      iszero\n      tag_240\n      jumpi\n        /* \"#utility.yul\":7912:7991   */\n      tag_241\n      tag_105\n      jump\t// in\n    tag_241:\n        /* \"#utility.yul\":7876:7993   */\n    tag_240:\n        /* \"#utility.yul\":8017:8091   */\n      tag_242\n        /* \"#utility.yul\":8083:8090   */\n      dup5\n        /* \"#utility.yul\":8074:8080   */\n      dup3\n        /* \"#utility.yul\":8063:8072   */\n      dup6\n        /* \"#utility.yul\":8059:8081   */\n      add\n        /* \"#utility.yul\":8017:8091   */\n      tag_127\n      jump\t// in\n    tag_242:\n        /* \"#utility.yul\":8007:8091   */\n      swap2\n      pop\n        /* \"#utility.yul\":7810:8101   */\n      pop\n        /* \"#utility.yul\":7584:8108   */\n      swap3\n      swap2\n      pop\n      pop\n      jump\t// out\n        /* \"#utility.yul\":8114:8294   */\n    tag_128:\n        /* \"#utility.yul\":8254:8286   */\n      0x4d697373696e6720696e70757420666f7220746f6b656e206e616d6573210000\n        /* \"#utility.yul\":8250:8251   */\n      0x00\n        /* \"#utility.yul\":8242:8248   */\n      dup3\n        /* \"#utility.yul\":8238:8252   */\n      add\n        /* \"#utility.yul\":8231:8287   */\n      mstore\n        /* \"#utility.yul\":8114:8294   */\n      pop\n      jump\t// out\n        /* \"#utility.yul\":8300:8666   */\n    tag_129:\n        /* \"#utility.yul\":8442:8445   */\n      0x00\n        /* \"#utility.yul\":8463:8530   */\n      tag_245\n        /* \"#utility.yul\":8527:8529   */\n      0x1e\n        /* \"#utility.yul\":8522:8525   */\n      dup4\n        /* \"#utility.yul\":8463:8530   */\n      tag_99\n      jump\t// in\n    tag_245:\n        /* \"#utility.yul\":8456:8530   */\n      swap2\n      pop\n        /* \"#utility.yul\":8539:8632   */\n      tag_246\n        /* \"#utility.yul\":8628:8631   */\n      dup3\n        /* \"#utility.yul\":8539:8632   */\n      tag_128\n      jump\t// in\n    tag_246:\n        /* \"#utility.yul\":8657:8659   */\n      0x20\n        /* \"#utility.yul\":8652:8655   */\n      dup3\n        /* \"#utility.yul\":8648:8660   */\n      add\n        /* \"#utility.yul\":8641:8660   */\n      swap1\n      pop\n        /* \"#utility.yul\":8300:8666   */\n      swap2\n      swap1\n      pop\n      jump\t// out\n        /* \"#utility.yul\":8672:9091   */\n    tag_46:\n        /* \"#utility.yul\":8838:8842   */\n      0x00\n        /* \"#utility.yul\":8876:8878   */\n      0x20\n        /* \"#utility.yul\":8865:8874   */\n      dup3\n        /* \"#utility.yul\":8861:8879   */\n      add\n        /* \"#utility.yul\":8853:8879   */\n      swap1\n      pop\n        /* \"#utility.yul\":8925:8934   */\n      dup2\n        /* \"#utility.yul\":8919:8923   */\n      dup2\n        /* \"#utility.yul\":8915:8935   */\n      sub\n        /* \"#utility.yul\":8911:8912   */\n      0x00\n        /* \"#utility.yul\":8900:8909   */\n      dup4\n        /* \"#utility.yul\":8896:8913   */\n      add\n        /* \"#utility.yul\":8889:8936   */\n      mstore\n        /* \"#utility.yul\":8953:9084   */\n      tag_248\n        /* \"#utility.yul\":9079:9083   */\n      dup2\n        /* \"#utility.yul\":8953:9084   */\n      tag_129\n      jump\t// in\n    tag_248:\n        /* \"#utility.yul\":8945:9084   */\n      swap1\n      pop\n        /* \"#utility.yul\":8672:9091   */\n      swap2\n      swap1\n      pop\n      jump\t// out\n        /* \"#utility.yul\":9097:9327   */\n    tag_130:\n        /* \"#utility.yul\":9237:9271   */\n      0x446563696d616c732073686f756c64206265206c657373207468616e206f7220\n        /* \"#utility.yul\":9233:9234   */\n      0x00\n        /* \"#utility.yul\":9225:9231   */\n      dup3\n        /* \"#utility.yul\":9221:9235   */\n      add\n        /* \"#utility.yul\":9214:9272   */\n      mstore\n        /* \"#utility.yul\":9306:9319   */\n      0x657175616c20746f203138000000000000000000000000000000000000000000\n        /* \"#utility.yul\":9301:9303   */\n      0x20\n        /* \"#utility.yul\":9293:9299   */\n      dup3\n        /* \"#utility.yul\":9289:9304   */\n      add\n        /* \"#utility.yul\":9282:9320   */\n      mstore\n        /* \"#utility.yul\":9097:9327   */\n      pop\n      jump\t// out\n        /* \"#utility.yul\":9333:9699   */\n    tag_131:\n        /* \"#utility.yul\":9475:9478   */\n      0x00\n        /* \"#utility.yul\":9496:9563   */\n      tag_251\n        /* \"#utility.yul\":9560:9562   */\n      0x2b\n        /* \"#utility.yul\":9555:9558   */\n      dup4\n        /* \"#utility.yul\":9496:9563   */\n      tag_99\n      jump\t// in\n    tag_251:\n        /* \"#utility.yul\":9489:9563   */\n      swap2\n      pop\n        /* \"#utility.yul\":9572:9665   */\n      tag_252\n        /* \"#utility.yul\":9661:9664   */\n      dup3\n        /* \"#utility.yul\":9572:9665   */\n      tag_130\n      jump\t// in\n    tag_252:\n        /* \"#utility.yul\":9690:9692   */\n      0x40\n        /* \"#utility.yul\":9685:9688   */\n      dup3\n        /* \"#utility.yul\":9681:9693   */\n      add\n        /* \"#utility.yul\":9674:9693   */\n      swap1\n      pop\n        /* \"#utility.yul\":9333:9699   */\n      swap2\n      swap1\n      pop\n      jump\t// out\n        /* \"#utility.yul\":9705:10124   */\n    tag_50:\n        /* \"#utility.yul\":9871:9875   */\n      0x00\n        /* \"#utility.yul\":9909:9911   */\n      0x20\n        /* \"#utility.yul\":9898:9907   */\n      dup3\n        /* \"#utility.yul\":9894:9912   */\n      add\n        /* \"#utility.yul\":9886:9912   */\n      swap1\n      pop\n        /* \"#utility.yul\":9958:9967   */\n      dup2\n        /* \"#utility.yul\":9952:9956   */\n      dup2\n        /* \"#utility.yul\":9948:9968   */\n      sub\n        /* \"#utility.yul\":9944:9945   */\n      0x00\n        /* \"#utility.yul\":9933:9942   */\n      dup4\n        /* \"#utility.yul\":9929:9946   */\n      add\n        /* \"#utility.yul\":9922:9969   */\n      mstore\n        /* \"#utility.yul\":9986:10117   */\n      tag_254\n        /* \"#utility.yul\":10112:10116   */\n      dup2\n        /* \"#utility.yul\":9986:10117   */\n      tag_131\n      jump\t// in\n    tag_254:\n        /* \"#utility.yul\":9978:10117   */\n      swap1\n      pop\n        /* \"#utility.yul\":9705:10124   */\n      swap2\n      swap1\n      pop\n      jump\t// out\n        /* \"#utility.yul\":10130:10350   */\n    tag_132:\n        /* \"#utility.yul\":10270:10304   */\n      0x446563696d616c732073686f756c642062652067726561746572207468616e20\n        /* \"#utility.yul\":10266:10267   */\n      0x00\n        /* \"#utility.yul\":10258:10264   */\n      dup3\n        /* \"#utility.yul\":10254:10268   */\n      add\n        /* \"#utility.yul\":10247:10305   */\n      mstore\n        /* \"#utility.yul\":10339:10342   */\n      0x3000000000000000000000000000000000000000000000000000000000000000\n        /* \"#utility.yul\":10334:10336   */\n      0x20\n        /* \"#utility.yul\":10326:10332   */\n      dup3\n        /* \"#utility.yul\":10322:10337   */\n      add\n        /* \"#utility.yul\":10315:10343   */\n      mstore\n        /* \"#utility.yul\":10130:10350   */\n      pop\n      jump\t// out\n        /* \"#utility.yul\":10356:10722   */\n    tag_133:\n        /* \"#utility.yul\":10498:10501   */\n      0x00\n        /* \"#utility.yul\":10519:10586   */\n      tag_257\n        /* \"#utility.yul\":10583:10585   */\n      0x21\n        /* \"#utility.yul\":10578:10581   */\n      dup4\n        /* \"#utility.yul\":10519:10586   */\n      tag_99\n      jump\t// in\n    tag_257:\n        /* \"#utility.yul\":10512:10586   */\n      swap2\n      pop\n        /* \"#utility.yul\":10595:10688   */\n      tag_258\n        /* \"#utility.yul\":10684:10687   */\n      dup3\n        /* \"#utility.yul\":10595:10688   */\n      tag_132\n      jump\t// in\n    tag_258:\n        /* \"#utility.yul\":10713:10715   */\n      0x40\n        /* \"#utility.yul\":10708:10711   */\n      dup3\n        /* \"#utility.yul\":10704:10716   */\n      add\n        /* \"#utility.yul\":10697:10716   */\n      swap1\n      pop\n        /* \"#utility.yul\":10356:10722   */\n      swap2\n      swap1\n      pop\n      jump\t// out\n        /* \"#utility.yul\":10728:11147   */\n    tag_54:\n        /* \"#utility.yul\":10894:10898   */\n      0x00\n        /* \"#utility.yul\":10932:10934   */\n      0x20\n        /* \"#utility.yul\":10921:10930   */\n      dup3\n        /* \"#utility.yul\":10917:10935   */\n      add\n        /* \"#utility.yul\":10909:10935   */\n      swap1\n      pop\n        /* \"#utility.yul\":10981:10990   */\n      dup2\n        /* \"#utility.yul\":10975:10979   */\n      dup2\n        /* \"#utility.yul\":10971:10991   */\n      sub\n        /* \"#utility.yul\":10967:10968   */\n      0x00\n        /* \"#utility.yul\":10956:10965   */\n      dup4\n        /* \"#utility.yul\":10952:10969   */\n      add\n        /* \"#utility.yul\":10945:10992   */\n      mstore\n        /* \"#utility.yul\":11009:11140   */\n      tag_260\n        /* \"#utility.yul\":11135:11139   */\n      dup2\n        /* \"#utility.yul\":11009:11140   */\n      tag_133\n      jump\t// in\n    tag_260:\n        /* \"#utility.yul\":11001:11140   */\n      swap1\n      pop\n        /* \"#utility.yul\":10728:11147   */\n      swap2\n      swap1\n      pop\n      jump\t// out\n        /* \"#utility.yul\":11153:11377   */\n    tag_134:\n        /* \"#utility.yul\":11293:11327   */\n      0x546f6b656e2076616c7565732073686f756c6420626520677265617465722074\n        /* \"#utility.yul\":11289:11290   */\n      0x00\n        /* \"#utility.yul\":11281:11287   */\n      dup3\n        /* \"#utility.yul\":11277:11291   */\n      add\n        /* \"#utility.yul\":11270:11328   */\n      mstore\n        /* \"#utility.yul\":11362:11369   */\n      0x68616e2030000000000000000000000000000000000000000000000000000000\n        /* \"#utility.yul\":11357:11359   */\n      0x20\n        /* \"#utility.yul\":11349:11355   */\n      dup3\n        /* \"#utility.yul\":11345:11360   */\n      add\n        /* \"#utility.yul\":11338:11370   */\n      mstore\n        /* \"#utility.yul\":11153:11377   */\n      pop\n      jump\t// out\n        /* \"#utility.yul\":11383:11749   */\n    tag_135:\n        /* \"#utility.yul\":11525:11528   */\n      0x00\n        /* \"#utility.yul\":11546:11613   */\n      tag_263\n        /* \"#utility.yul\":11610:11612   */\n      0x25\n        /* \"#utility.yul\":11605:11608   */\n      dup4\n        /* \"#utility.yul\":11546:11613   */\n      tag_99\n      jump\t// in\n    tag_263:\n        /* \"#utility.yul\":11539:11613   */\n      swap2\n      pop\n        /* \"#utility.yul\":11622:11715   */\n      tag_264\n        /* \"#utility.yul\":11711:11714   */\n      dup3\n        /* \"#utility.yul\":11622:11715   */\n      tag_134\n      jump\t// in\n    tag_264:\n        /* \"#utility.yul\":11740:11742   */\n      0x40\n        /* \"#utility.yul\":11735:11738   */\n      dup3\n        /* \"#utility.yul\":11731:11743   */\n      add\n        /* \"#utility.yul\":11724:11743   */\n      swap1\n      pop\n        /* \"#utility.yul\":11383:11749   */\n      swap2\n      swap1\n      pop\n      jump\t// out\n        /* \"#utility.yul\":11755:12174   */\n    tag_58:\n        /* \"#utility.yul\":11921:11925   */\n      0x00\n        /* \"#utility.yul\":11959:11961   */\n      0x20\n        /* \"#utility.yul\":11948:11957   */\n      dup3\n        /* \"#utility.yul\":11944:11962   */\n      add\n        /* \"#utility.yul\":11936:11962   */\n      swap1\n      pop\n        /* \"#utility.yul\":12008:12017   */\n      dup2\n        /* \"#utility.yul\":12002:12006   */\n      dup2\n        /* \"#utility.yul\":11998:12018   */\n      sub\n        /* \"#utility.yul\":11994:11995   */\n      0x00\n        /* \"#utility.yul\":11983:11992   */\n      dup4\n        /* \"#utility.yul\":11979:11996   */\n      add\n        /* \"#utility.yul\":11972:12019   */\n      mstore\n        /* \"#utility.yul\":12036:12167   */\n      tag_266\n        /* \"#utility.yul\":12162:12166   */\n      dup2\n        /* \"#utility.yul\":12036:12167   */\n      tag_135\n      jump\t// in\n    tag_266:\n        /* \"#utility.yul\":12028:12167   */\n      swap1\n      pop\n        /* \"#utility.yul\":11755:12174   */\n      swap2\n      swap1\n      pop\n      jump\t// out\n        /* \"#utility.yul\":12180:12360   */\n    tag_136:\n        /* \"#utility.yul\":12228:12305   */\n      0x4e487b7100000000000000000000000000000000000000000000000000000000\n        /* \"#utility.yul\":12225:12226   */\n      0x00\n        /* \"#utility.yul\":12218:12306   */\n      mstore\n        /* \"#utility.yul\":12325:12329   */\n      0x11\n        /* \"#utility.yul\":12322:12323   */\n      0x04\n        /* \"#utility.yul\":12315:12330   */\n      mstore\n        /* \"#utility.yul\":12349:12353   */\n      0x24\n        /* \"#utility.yul\":12346:12347   */\n      0x00\n        /* \"#utility.yul\":12339:12354   */\n      revert\n        /* \"#utility.yul\":12366:12560   */\n    tag_61:\n        /* \"#utility.yul\":12406:12410   */\n      0x00\n        /* \"#utility.yul\":12426:12446   */\n      tag_269\n        /* \"#utility.yul\":12444:12445   */\n      dup3\n        /* \"#utility.yul\":12426:12446   */\n      tag_96\n      jump\t// in\n    tag_269:\n        /* \"#utility.yul\":12421:12446   */\n      swap2\n      pop\n        /* \"#utility.yul\":12460:12480   */\n      tag_270\n        /* \"#utility.yul\":12478:12479   */\n      dup4\n        /* \"#utility.yul\":12460:12480   */\n      tag_96\n      jump\t// in\n    tag_270:\n        /* \"#utility.yul\":12455:12480   */\n      swap3\n      pop\n        /* \"#utility.yul\":12504:12505   */\n      dup3\n        /* \"#utility.yul\":12501:12502   */\n      dup3\n        /* \"#utility.yul\":12497:12506   */\n      sub\n        /* \"#utility.yul\":12489:12506   */\n      swap1\n      pop\n        /* \"#utility.yul\":12528:12529   */\n      dup2\n        /* \"#utility.yul\":12522:12526   */\n      dup2\n        /* \"#utility.yul\":12519:12530   */\n      gt\n        /* \"#utility.yul\":12516:12553   */\n      iszero\n      tag_271\n      jumpi\n        /* \"#utility.yul\":12533:12551   */\n      tag_272\n      tag_136\n      jump\t// in\n    tag_272:\n        /* \"#utility.yul\":12516:12553   */\n    tag_271:\n        /* \"#utility.yul\":12366:12560   */\n      swap3\n      swap2\n      pop\n      pop\n      jump\t// out\n        /* \"#utility.yul\":12566:12668   */\n    tag_137:\n        /* \"#utility.yul\":12608:12616   */\n      0x00\n        /* \"#utility.yul\":12655:12660   */\n      dup2\n        /* \"#utility.yul\":12652:12653   */\n      0x01\n        /* \"#utility.yul\":12648:12661   */\n      shr\n        /* \"#utility.yul\":12627:12661   */\n      swap1\n      pop\n        /* \"#utility.yul\":12566:12668   */\n      swap2\n      swap1\n      pop\n      jump\t// out\n        /* \"#utility.yul\":12674:13522   */\n    tag_138:\n        /* \"#utility.yul\":12735:12740   */\n      0x00\n        /* \"#utility.yul\":12742:12746   */\n      dup1\n        /* \"#utility.yul\":12766:12772   */\n      dup3\n        /* \"#utility.yul\":12757:12772   */\n      swap2\n      pop\n        /* \"#utility.yul\":12790:12795   */\n      dup4\n        /* \"#utility.yul\":12781:12795   */\n      swap1\n      pop\n        /* \"#utility.yul\":12804:13516   */\n    tag_275:\n        /* \"#utility.yul\":12825:12826   */\n      0x01\n        /* \"#utility.yul\":12815:12823   */\n      dup6\n        /* \"#utility.yul\":12812:12827   */\n      gt\n        /* \"#utility.yul\":12804:13516   */\n      iszero\n      tag_277\n      jumpi\n        /* \"#utility.yul\":12920:12924   */\n      dup1\n        /* \"#utility.yul\":12915:12918   */\n      dup7\n        /* \"#utility.yul\":12911:12925   */\n      div\n        /* \"#utility.yul\":12905:12909   */\n      dup2\n        /* \"#utility.yul\":12902:12926   */\n      gt\n        /* \"#utility.yul\":12899:12949   */\n      iszero\n      tag_278\n      jumpi\n        /* \"#utility.yul\":12929:12947   */\n      tag_279\n      tag_136\n      jump\t// in\n    tag_279:\n        /* \"#utility.yul\":12899:12949   */\n    tag_278:\n        /* \"#utility.yul\":12979:12980   */\n      0x01\n        /* \"#utility.yul\":12969:12977   */\n      dup6\n        /* \"#utility.yul\":12965:12981   */\n      and\n        /* \"#utility.yul\":12962:13413   */\n      iszero\n      tag_280\n      jumpi\n        /* \"#utility.yul\":13394:13398   */\n      dup1\n        /* \"#utility.yul\":13387:13392   */\n      dup3\n        /* \"#utility.yul\":13383:13399   */\n      mul\n        /* \"#utility.yul\":13374:13399   */\n      swap2\n      pop\n        /* \"#utility.yul\":12962:13413   */\n    tag_280:\n        /* \"#utility.yul\":13444:13448   */\n      dup1\n        /* \"#utility.yul\":13438:13442   */\n      dup2\n        /* \"#utility.yul\":13434:13449   */\n      mul\n        /* \"#utility.yul\":13426:13449   */\n      swap1\n      pop\n        /* \"#utility.yul\":13474:13506   */\n      tag_281\n        /* \"#utility.yul\":13497:13505   */\n      dup6\n        /* \"#utility.yul\":13474:13506   */\n      tag_137\n      jump\t// in\n    tag_281:\n        /* \"#utility.yul\":13462:13506   */\n      swap5\n      pop\n        /* \"#utility.yul\":12804:13516   */\n      jump(tag_275)\n    tag_277:\n        /* \"#utility.yul\":12674:13522   */\n      swap5\n      pop\n      swap5\n      swap3\n      pop\n      pop\n      pop\n      jump\t// out\n        /* \"#utility.yul\":13528:14601   */\n    tag_139:\n        /* \"#utility.yul\":13582:13587   */\n      0x00\n        /* \"#utility.yul\":13773:13781   */\n      dup3\n        /* \"#utility.yul\":13763:13803   */\n      tag_283\n      jumpi\n        /* \"#utility.yul\":13794:13795   */\n      0x01\n        /* \"#utility.yul\":13785:13795   */\n      swap1\n      pop\n        /* \"#utility.yul\":13796:13801   */\n      jump(tag_282)\n        /* \"#utility.yul\":13763:13803   */\n    tag_283:\n        /* \"#utility.yul\":13822:13826   */\n      dup2\n        /* \"#utility.yul\":13812:13848   */\n      tag_284\n      jumpi\n        /* \"#utility.yul\":13839:13840   */\n      0x00\n        /* \"#utility.yul\":13830:13840   */\n      swap1\n      pop\n        /* \"#utility.yul\":13841:13846   */\n      jump(tag_282)\n        /* \"#utility.yul\":13812:13848   */\n    tag_284:\n        /* \"#utility.yul\":13908:13912   */\n      dup2\n        /* \"#utility.yul\":13956:13957   */\n      0x01\n        /* \"#utility.yul\":13951:13978   */\n      dup2\n      eq\n      tag_286\n      jumpi\n        /* \"#utility.yul\":13992:13993   */\n      0x02\n        /* \"#utility.yul\":13987:14178   */\n      dup2\n      eq\n      tag_287\n      jumpi\n        /* \"#utility.yul\":13901:14178   */\n      jump(tag_285)\n        /* \"#utility.yul\":13951:13978   */\n    tag_286:\n        /* \"#utility.yul\":13969:13970   */\n      0x01\n        /* \"#utility.yul\":13960:13970   */\n      swap2\n      pop\n        /* \"#utility.yul\":13971:13976   */\n      pop\n      jump(tag_282)\n        /* \"#utility.yul\":13987:14178   */\n    tag_287:\n        /* \"#utility.yul\":14032:14035   */\n      0xff\n        /* \"#utility.yul\":14022:14030   */\n      dup5\n        /* \"#utility.yul\":14019:14036   */\n      gt\n        /* \"#utility.yul\":14016:14059   */\n      iszero\n      tag_288\n      jumpi\n        /* \"#utility.yul\":14039:14057   */\n      tag_289\n      tag_136\n      jump\t// in\n    tag_289:\n        /* \"#utility.yul\":14016:14059   */\n    tag_288:\n        /* \"#utility.yul\":14088:14096   */\n      dup4\n        /* \"#utility.yul\":14085:14086   */\n      0x02\n        /* \"#utility.yul\":14081:14097   */\n      exp\n        /* \"#utility.yul\":14072:14097   */\n      swap2\n      pop\n        /* \"#utility.yul\":14123:14126   */\n      dup5\n        /* \"#utility.yul\":14116:14121   */\n      dup3\n        /* \"#utility.yul\":14113:14127   */\n      gt\n        /* \"#utility.yul\":14110:14150   */\n      iszero\n      tag_290\n      jumpi\n        /* \"#utility.yul\":14130:14148   */\n      tag_291\n      tag_136\n      jump\t// in\n    tag_291:\n        /* \"#utility.yul\":14110:14150   */\n    tag_290:\n        /* \"#utility.yul\":14163:14168   */\n      pop\n      jump(tag_282)\n        /* \"#utility.yul\":13901:14178   */\n    tag_285:\n      pop\n        /* \"#utility.yul\":14287:14289   */\n      0x20\n        /* \"#utility.yul\":14277:14285   */\n      dup4\n        /* \"#utility.yul\":14274:14290   */\n      lt\n        /* \"#utility.yul\":14268:14271   */\n      0x0133\n        /* \"#utility.yul\":14262:14266   */\n      dup4\n        /* \"#utility.yul\":14259:14272   */\n      lt\n        /* \"#utility.yul\":14255:14291   */\n      and\n        /* \"#utility.yul\":14237:14239   */\n      0x4e\n        /* \"#utility.yul\":14227:14235   */\n      dup5\n        /* \"#utility.yul\":14224:14240   */\n      lt\n        /* \"#utility.yul\":14219:14221   */\n      0x0b\n        /* \"#utility.yul\":14213:14217   */\n      dup5\n        /* \"#utility.yul\":14210:14222   */\n      lt\n        /* \"#utility.yul\":14206:14241   */\n      and\n        /* \"#utility.yul\":14190:14301   */\n      or\n        /* \"#utility.yul\":14187:14433   */\n      iszero\n      tag_292\n      jumpi\n        /* \"#utility.yul\":14343:14351   */\n      dup3\n        /* \"#utility.yul\":14337:14341   */\n      dup3\n        /* \"#utility.yul\":14333:14352   */\n      exp\n        /* \"#utility.yul\":14324:14352   */\n      swap1\n      pop\n        /* \"#utility.yul\":14378:14381   */\n      dup4\n        /* \"#utility.yul\":14371:14376   */\n      dup2\n        /* \"#utility.yul\":14368:14382   */\n      gt\n        /* \"#utility.yul\":14365:14405   */\n      iszero\n      tag_293\n      jumpi\n        /* \"#utility.yul\":14385:14403   */\n      tag_294\n      tag_136\n      jump\t// in\n    tag_294:\n        /* \"#utility.yul\":14365:14405   */\n    tag_293:\n        /* \"#utility.yul\":14418:14423   */\n      jump(tag_282)\n        /* \"#utility.yul\":14187:14433   */\n    tag_292:\n        /* \"#utility.yul\":14458:14500   */\n      tag_295\n        /* \"#utility.yul\":14496:14499   */\n      dup5\n        /* \"#utility.yul\":14486:14494   */\n      dup5\n        /* \"#utility.yul\":14480:14484   */\n      dup5\n        /* \"#utility.yul\":14477:14478   */\n      0x01\n        /* \"#utility.yul\":14458:14500   */\n      tag_138\n      jump\t// in\n    tag_295:\n        /* \"#utility.yul\":14443:14500   */\n      swap3\n      pop\n      swap1\n      pop\n        /* \"#utility.yul\":14532:14536   */\n      dup2\n        /* \"#utility.yul\":14527:14530   */\n      dup5\n        /* \"#utility.yul\":14523:14537   */\n      div\n        /* \"#utility.yul\":14516:14521   */\n      dup2\n        /* \"#utility.yul\":14513:14538   */\n      gt\n        /* \"#utility.yul\":14510:14561   */\n      iszero\n      tag_296\n      jumpi\n        /* \"#utility.yul\":14541:14559   */\n      tag_297\n      tag_136\n      jump\t// in\n    tag_297:\n        /* \"#utility.yul\":14510:14561   */\n    tag_296:\n        /* \"#utility.yul\":14590:14594   */\n      dup2\n        /* \"#utility.yul\":14583:14588   */\n      dup2\n        /* \"#utility.yul\":14579:14595   */\n      mul\n        /* \"#utility.yul\":14570:14595   */\n      swap1\n      pop\n        /* \"#utility.yul\":13528:14601   */\n    tag_282:\n      swap4\n      swap3\n      pop\n      pop\n      pop\n      jump\t// out\n        /* \"#utility.yul\":14607:14892   */\n    tag_63:\n        /* \"#utility.yul\":14667:14672   */\n      0x00\n        /* \"#utility.yul\":14691:14714   */\n      tag_299\n        /* \"#utility.yul\":14709:14713   */\n      dup3\n        /* \"#utility.yul\":14691:14714   */\n      tag_96\n      jump\t// in\n    tag_299:\n        /* \"#utility.yul\":14683:14714   */\n      swap2\n      pop\n        /* \"#utility.yul\":14735:14762   */\n      tag_300\n        /* \"#utility.yul\":14753:14761   */\n      dup4\n        /* \"#utility.yul\":14735:14762   */\n      tag_96\n      jump\t// in\n    tag_300:\n        /* \"#utility.yul\":14723:14762   */\n      swap3\n      pop\n        /* \"#utility.yul\":14781:14885   */\n      tag_301\n        /* \"#utility.yul\":14818:14884   */\n      0xffffffffffffffffffffffffffffffffffffffffffffffffffffffffffffffff\n        /* \"#utility.yul\":14808:14816   */\n      dup5\n        /* \"#utility.yul\":14802:14806   */\n      dup5\n        /* \"#utility.yul\":14781:14885   */\n      tag_139\n      jump\t// in\n    tag_301:\n        /* \"#utility.yul\":14772:14885   */\n      swap1\n      pop\n        /* \"#utility.yul\":14607:14892   */\n      swap3\n      swap2\n      pop\n      pop\n      jump\t// out\n        /* \"#utility.yul\":14898:15308   */\n    tag_65:\n        /* \"#utility.yul\":14938:14945   */\n      0x00\n        /* \"#utility.yul\":14961:14981   */\n      tag_303\n        /* \"#utility.yul\":14979:14980   */\n      dup3\n        /* \"#utility.yul\":14961:14981   */\n      tag_96\n      jump\t// in\n    tag_303:\n        /* \"#utility.yul\":14956:14981   */\n      swap2\n      pop\n        /* \"#utility.yul\":14995:15015   */\n      tag_304\n        /* \"#utility.yul\":15013:15014   */\n      dup4\n        /* \"#utility.yul\":14995:15015   */\n      tag_96\n      jump\t// in\n    tag_304:\n        /* \"#utility.yul\":14990:15015   */\n      swap3\n      pop\n        /* \"#utility.yul\":15050:15051   */\n      dup3\n        /* \"#utility.yul\":15047:15048   */\n      dup3\n        /* \"#utility.yul\":15043:15052   */\n      mul\n        /* \"#utility.yul\":15072:15102   */\n      tag_305\n        /* \"#utility.yul\":15090:15101   */\n      dup2\n        /* \"#utility.yul\":15072:15102   */\n      tag_96\n      jump\t// in\n    tag_305:\n        /* \"#utility.yul\":15061:15102   */\n      swap2\n      pop\n        /* \"#utility.yul\":15251:15252   */\n      dup3\n        /* \"#utility.yul\":15242:15249   */\n      dup3\n        /* \"#utility.yul\":15238:15253   */\n      div\n        /* \"#utility.yul\":15235:15236   */\n      dup5\n        /* \"#utility.yul\":15232:15254   */\n      eq\n        /* \"#utility.yul\":15212:15213   */\n      dup4\n        /* \"#utility.yul\":15205:15214   */\n      iszero\n        /* \"#utility.yul\":15185:15268   */\n      or\n        /* \"#utility.yul\":15162:15301   */\n      tag_306\n      jumpi\n        /* \"#utility.yul\":15281:15299   */\n      tag_307\n      tag_136\n      jump\t// in\n    tag_307:\n        /* \"#utility.yul\":15162:15301   */\n    tag_306:\n        /* \"#utility.yul\":14946:15308   */\n      pop\n        /* \"#utility.yul\":14898:15308   */\n      swap3\n      swap2\n      pop\n      pop\n      jump\t// out\n        /* \"#utility.yul\":15314:15494   */\n    tag_140:\n        /* \"#utility.yul\":15362:15439   */\n      0x4e487b7100000000000000000000000000000000000000000000000000000000\n        /* \"#utility.yul\":15359:15360   */\n      0x00\n        /* \"#utility.yul\":15352:15440   */\n      mstore\n        /* \"#utility.yul\":15459:15463   */\n      0x12\n        /* \"#utility.yul\":15456:15457   */\n      0x04\n        /* \"#utility.yul\":15449:15464   */\n      mstore\n        /* \"#utility.yul\":15483:15487   */\n      0x24\n        /* \"#utility.yul\":15480:15481   */\n      0x00\n        /* \"#utility.yul\":15473:15488   */\n      revert\n        /* \"#utility.yul\":15500:15685   */\n    tag_69:\n        /* \"#utility.yul\":15540:15541   */\n      0x00\n        /* \"#utility.yul\":15557:15577   */\n      tag_310\n        /* \"#utility.yul\":15575:15576   */\n      dup3\n        /* \"#utility.yul\":15557:15577   */\n      tag_96\n      jump\t// in\n    tag_310:\n        /* \"#utility.yul\":15552:15577   */\n      swap2\n      pop\n        /* \"#utility.yul\":15591:15611   */\n      tag_311\n        /* \"#utility.yul\":15609:15610   */\n      dup4\n        /* \"#utility.yul\":15591:15611   */\n      tag_96\n      jump\t// in\n    tag_311:\n        /* \"#utility.yul\":15586:15611   */\n      swap3\n      pop\n        /* \"#utility.yul\":15630:15631   */\n      dup3\n        /* \"#utility.yul\":15620:15655   */\n      tag_312\n      jumpi\n        /* \"#utility.yul\":15635:15653   */\n      tag_313\n      tag_140\n      jump\t// in\n    tag_313:\n        /* \"#utility.yul\":15620:15655   */\n    tag_312:\n        /* \"#utility.yul\":15677:15678   */\n      dup3\n        /* \"#utility.yul\":15674:15675   */\n      dup3\n        /* \"#utility.yul\":15670:15679   */\n      div\n        /* \"#utility.yul\":15665:15679   */\n      swap1\n      pop\n        /* \"#utility.yul\":15500:15685   */\n      swap3\n      swap2\n      pop\n      pop\n      jump\t// out\n        /* \"#utility.yul\":15691:15839   */\n    tag_141:\n        /* \"#utility.yul\":15793:15804   */\n      0x00\n        /* \"#utility.yul\":15830:15833   */\n      dup2\n        /* \"#utility.yul\":15815:15833   */\n      swap1\n      pop\n        /* \"#utility.yul\":15691:15839   */\n      swap3\n      swap2\n      pop\n      pop\n      jump\t// out\n        /* \"#utility.yul\":15845:16235   */\n    tag_142:\n        /* \"#utility.yul\":15951:15954   */\n      0x00\n        /* \"#utility.yul\":15979:16018   */\n      tag_316\n        /* \"#utility.yul\":16012:16017   */\n      dup3\n        /* \"#utility.yul\":15979:16018   */\n      tag_98\n      jump\t// in\n    tag_316:\n        /* \"#utility.yul\":16034:16123   */\n      tag_317\n        /* \"#utility.yul\":16116:16122   */\n      dup2\n        /* \"#utility.yul\":16111:16114   */\n      dup6\n        /* \"#utility.yul\":16034:16123   */\n      tag_141\n      jump\t// in\n    tag_317:\n        /* \"#utility.yul\":16027:16123   */\n      swap4\n      pop\n        /* \"#utility.yul\":16132:16197   */\n      tag_318\n        /* \"#utility.yul\":16190:16196   */\n      dup2\n        /* \"#utility.yul\":16185:16188   */\n      dup6\n        /* \"#utility.yul\":16178:16182   */\n      0x20\n        /* \"#utility.yul\":16171:16176   */\n      dup7\n        /* \"#utility.yul\":16167:16183   */\n      add\n        /* \"#utility.yul\":16132:16197   */\n      tag_100\n      jump\t// in\n    tag_318:\n        /* \"#utility.yul\":16222:16228   */\n      dup1\n        /* \"#utility.yul\":16217:16220   */\n      dup5\n        /* \"#utility.yul\":16213:16229   */\n      add\n        /* \"#utility.yul\":16206:16229   */\n      swap2\n      pop\n        /* \"#utility.yul\":15955:16235   */\n      pop\n        /* \"#utility.yul\":15845:16235   */\n      swap3\n      swap2\n      pop\n      pop\n      jump\t// out\n        /* \"#utility.yul\":16241:16419   */\n    tag_143:\n        /* \"#utility.yul\":16409:16412   */\n      0x2f00000000000000000000000000000000000000000000000000000000000000\n        /* \"#utility.yul\":16404:16407   */\n      dup2\n        /* \"#utility.yul\":16397:16413   */\n      mstore\n        /* \"#utility.yul\":16241:16419   */\n      pop\n      jump\t// out\n        /* \"#utility.yul\":16425:17124   */\n    tag_73:\n        /* \"#utility.yul\":16695:16698   */\n      0x00\n        /* \"#utility.yul\":16717:16812   */\n      tag_321\n        /* \"#utility.yul\":16808:16811   */\n      dup3\n        /* \"#utility.yul\":16799:16805   */\n      dup6\n        /* \"#utility.yul\":16717:16812   */\n      tag_142\n      jump\t// in\n    tag_321:\n        /* \"#utility.yul\":16710:16812   */\n      swap2\n      pop\n        /* \"#utility.yul\":16822:16959   */\n      tag_322\n        /* \"#utility.yul\":16955:16958   */\n      dup3\n        /* \"#utility.yul\":16822:16959   */\n      tag_143\n      jump\t// in\n    tag_322:\n        /* \"#utility.yul\":16984:16985   */\n      0x01\n        /* \"#utility.yul\":16979:16982   */\n      dup3\n        /* \"#utility.yul\":16975:16986   */\n      add\n        /* \"#utility.yul\":16968:16986   */\n      swap2\n      pop\n        /* \"#utility.yul\":17003:17098   */\n      tag_323\n        /* \"#utility.yul\":17094:17097   */\n      dup3\n        /* \"#utility.yul\":17085:17091   */\n      dup5\n        /* \"#utility.yul\":17003:17098   */\n      tag_142\n      jump\t// in\n    tag_323:\n        /* \"#utility.yul\":16996:17098   */\n      swap2\n      pop\n        /* \"#utility.yul\":17115:17118   */\n      dup2\n        /* \"#utility.yul\":17108:17118   */\n      swap1\n      pop\n        /* \"#utility.yul\":16425:17124   */\n      swap4\n      swap3\n      pop\n      pop\n      pop\n      jump\t// out\n\n    auxdata: 0xa2646970667358221220645cf09de4aad9d0d22c887e2e14f5e11ac4d90de79e5fad8d0ca4999e27009464736f6c63430008170033\n}\n",
				"bytecode": {
					"linkReferences": {},
					"object": "608060405234801561001057600080fd5b506112dc806100206000396000f3fe608060405234801561001057600080fd5b50600436106100365760003560e01c8063454d12561461003b578063cd5ea1c61461005b575b600080fd5b610043610077565b604051610052939291906109a3565b60405180910390f35b61007560048036038101906100709190610a53565b610570565b005b600080606060008060008054906101000a900473ffffffffffffffffffffffffffffffffffffffff1673ffffffffffffffffffffffffffffffffffffffff16630902f1ac6040518163ffffffff1660e01b81526004016060604051808303816000875af11580156100ec573d6000803e3d6000fd5b505050506040513d601f19601f820116820180604052508101906101109190610b02565b506dffffffffffffffffffffffffffff1691506dffffffffffffffffffffffffffff16915060008060009054906101000a900473ffffffffffffffffffffffffffffffffffffffff1673ffffffffffffffffffffffffffffffffffffffff16630dfe16816040518163ffffffff1660e01b81526004016020604051808303816000875af11580156101a5573d6000803e3d6000fd5b505050506040513d601f19601f820116820180604052508101906101c99190610b6a565b905060008060009054906101000a900473ffffffffffffffffffffffffffffffffffffffff1673ffffffffffffffffffffffffffffffffffffffff1663d21220a76040518163ffffffff1660e01b81526004016020604051808303816000875af115801561023b573d6000803e3d6000fd5b505050506040513d601f19601f8201168201806040525081019061025f9190610b6a565b905081600160006101000a81548173ffffffffffffffffffffffffffffffffffffffff021916908373ffffffffffffffffffffffffffffffffffffffff16021790555080600260006101000a81548173ffffffffffffffffffffffffffffffffffffffff021916908373ffffffffffffffffffffffffffffffffffffffff1602179055506000600160009054906101000a900473ffffffffffffffffffffffffffffffffffffffff1673ffffffffffffffffffffffffffffffffffffffff1663313ce5676040518163ffffffff1660e01b81526004016020604051808303816000875af1158015610354573d6000803e3d6000fd5b505050506040513d601f19601f820116820180604052508101906103789190610bd0565b60ff1690506000600260009054906101000a900473ffffffffffffffffffffffffffffffffffffffff1673ffffffffffffffffffffffffffffffffffffffff1663313ce5676040518163ffffffff1660e01b81526004016020604051808303816000875af11580156103ee573d6000803e3d6000fd5b505050506040513d601f19601f820116820180604052508101906104129190610bd0565b60ff1690506000600160009054906101000a900473ffffffffffffffffffffffffffffffffffffffff1673ffffffffffffffffffffffffffffffffffffffff166306fdde036040518163ffffffff1660e01b81526004016000604051808303816000875af1158015610488573d6000803e3d6000fd5b505050506040513d6000823e3d601f19601f820116820180604052508101906104b19190610d23565b90506000600260009054906101000a900473ffffffffffffffffffffffffffffffffffffffff1673ffffffffffffffffffffffffffffffffffffffff166306fdde036040518163ffffffff1660e01b81526004016000604051808303816000875af1158015610524573d6000803e3d6000fd5b505050506040513d6000823e3d601f19601f8201168201806040525081019061054d9190610d23565b905061055d8885848a87866105b3565b9a509a509a505050505050505050909192565b806000806101000a81548173ffffffffffffffffffffffffffffffffffffffff021916908373ffffffffffffffffffffffffffffffffffffffff16021790555050565b6000806060600087511180156105ca575060008451115b610609576040517f08c379a000000000000000000000000000000000000000000000000000000000815260040161060090610db8565b60405180910390fd5b6012881115801561061b575060128511155b61065a576040517f08c379a000000000000000000000000000000000000000000000000000000000815260040161065190610e4a565b60405180910390fd5b60008811801561066a5750600085115b6106a9576040517f08c379a00000000000000000000000000000000000000000000000000000000081526004016106a090610edc565b60405180910390fd5b6000891180156106b95750600086115b6106f8576040517f08c379a00000000000000000000000000000000000000000000000000000000081526004016106ef90610f6e565b60405180910390fd5b848811156107f9576000858961070e9190610fbd565b600a61071a9190611124565b87610725919061116f565b9050808a1115610794576305f5e10080826305f5e1008d610746919061116f565b61075091906111e0565b61075a919061116f565b61076491906111e0565b60088987604051602001610779929190611273565b604051602081830303815290604052935093509350506108ee565b6305f5e100808b6305f5e100846107ab919061116f565b6107b591906111e0565b6107bf919061116f565b6107c991906111e0565b6008868a6040516020016107de929190611273565b604051602081830303815290604052935093509350506108ee565b600088866108079190610fbd565b600a6108139190611124565b8a61081e919061116f565b90508087111561088d576305f5e10080826305f5e1008a61083f919061116f565b61084991906111e0565b610853919061116f565b61085d91906111e0565b6008868a604051602001610872929190611273565b604051602081830303815290604052935093509350506108ee565b6305f5e10080886305f5e100846108a4919061116f565b6108ae91906111e0565b6108b8919061116f565b6108c291906111e0565b600889876040516020016108d7929190611273565b604051602081830303815290604052935093509350505b96509650969350505050565b6000819050919050565b61090d816108fa565b82525050565b600081519050919050565b600082825260208201905092915050565b60005b8381101561094d578082015181840152602081019050610932565b60008484015250505050565b6000601f19601f8301169050919050565b600061097582610913565b61097f818561091e565b935061098f81856020860161092f565b61099881610959565b840191505092915050565b60006060820190506109b86000830186610904565b6109c56020830185610904565b81810360408301526109d7818461096a565b9050949350505050565b6000604051905090565b600080fd5b600080fd5b600073ffffffffffffffffffffffffffffffffffffffff82169050919050565b6000610a20826109f5565b9050919050565b610a3081610a15565b8114610a3b57600080fd5b50565b600081359050610a4d81610a27565b92915050565b600060208284031215610a6957610a686109eb565b5b6000610a7784828501610a3e565b91505092915050565b60006dffffffffffffffffffffffffffff82169050919050565b610aa381610a80565b8114610aae57600080fd5b50565b600081519050610ac081610a9a565b92915050565b600063ffffffff82169050919050565b610adf81610ac6565b8114610aea57600080fd5b50565b600081519050610afc81610ad6565b92915050565b600080600060608486031215610b1b57610b1a6109eb565b5b6000610b2986828701610ab1565b9350506020610b3a86828701610ab1565b9250506040610b4b86828701610aed565b9150509250925092565b600081519050610b6481610a27565b92915050565b600060208284031215610b8057610b7f6109eb565b5b6000610b8e84828501610b55565b91505092915050565b600060ff82169050919050565b610bad81610b97565b8114610bb857600080fd5b50565b600081519050610bca81610ba4565b92915050565b600060208284031215610be657610be56109eb565b5b6000610bf484828501610bbb565b91505092915050565b600080fd5b600080fd5b7f4e487b7100000000000000000000000000000000000000000000000000000000600052604160045260246000fd5b610c3f82610959565b810181811067ffffffffffffffff82111715610c5e57610c5d610c07565b5b80604052505050565b6000610c716109e1565b9050610c7d8282610c36565b919050565b600067ffffffffffffffff821115610c9d57610c9c610c07565b5b610ca682610959565b9050602081019050919050565b6000610cc6610cc184610c82565b610c67565b905082815260208101848484011115610ce257610ce1610c02565b5b610ced84828561092f565b509392505050565b600082601f830112610d0a57610d09610bfd565b5b8151610d1a848260208601610cb3565b91505092915050565b600060208284031215610d3957610d386109eb565b5b600082015167ffffffffffffffff811115610d5757610d566109f0565b5b610d6384828501610cf5565b91505092915050565b7f4d697373696e6720696e70757420666f7220746f6b656e206e616d6573210000600082015250565b6000610da2601e8361091e565b9150610dad82610d6c565b602082019050919050565b60006020820190508181036000830152610dd181610d95565b9050919050565b7f446563696d616c732073686f756c64206265206c657373207468616e206f722060008201527f657175616c20746f203138000000000000000000000000000000000000000000602082015250565b6000610e34602b8361091e565b9150610e3f82610dd8565b604082019050919050565b60006020820190508181036000830152610e6381610e27565b9050919050565b7f446563696d616c732073686f756c642062652067726561746572207468616e2060008201527f3000000000000000000000000000000000000000000000000000000000000000602082015250565b6000610ec660218361091e565b9150610ed182610e6a565b604082019050919050565b60006020820190508181036000830152610ef581610eb9565b9050919050565b7f546f6b656e2076616c7565732073686f756c642062652067726561746572207460008201527f68616e2030000000000000000000000000000000000000000000000000000000602082015250565b6000610f5860258361091e565b9150610f6382610efc565b604082019050919050565b60006020820190508181036000830152610f8781610f4b565b9050919050565b7f4e487b7100000000000000000000000000000000000000000000000000000000600052601160045260246000fd5b6000610fc8826108fa565b9150610fd3836108fa565b9250828203905081811115610feb57610fea610f8e565b5b92915050565b60008160011c9050919050565b6000808291508390505b60018511156110485780860481111561102457611023610f8e565b5b60018516156110335780820291505b808102905061104185610ff1565b9450611008565b94509492505050565b600082611061576001905061111d565b8161106f576000905061111d565b8160018114611085576002811461108f576110be565b600191505061111d565b60ff8411156110a1576110a0610f8e565b5b8360020a9150848211156110b8576110b7610f8e565b5b5061111d565b5060208310610133831016604e8410600b84101617156110f35782820a9050838111156110ee576110ed610f8e565b5b61111d565b6111008484846001610ffe565b9250905081840481111561111757611116610f8e565b5b81810290505b9392505050565b600061112f826108fa565b915061113a836108fa565b92506111677fffffffffffffffffffffffffffffffffffffffffffffffffffffffffffffffff8484611051565b905092915050565b600061117a826108fa565b9150611185836108fa565b9250828202611193816108fa565b915082820484148315176111aa576111a9610f8e565b5b5092915050565b7f4e487b7100000000000000000000000000000000000000000000000000000000600052601260045260246000fd5b60006111eb826108fa565b91506111f6836108fa565b925082611206576112056111b1565b5b828204905092915050565b600081905092915050565b600061122782610913565b6112318185611211565b935061124181856020860161092f565b80840191505092915050565b7f2f00000000000000000000000000000000000000000000000000000000000000815250565b600061127f828561121c565b915061128a8261124d565b60018201915061129a828461121c565b9150819050939250505056fea2646970667358221220645cf09de4aad9d0d22c887e2e14f5e11ac4d90de79e5fad8d0ca4999e27009464736f6c63430008170033",
					"opcodes": "PUSH1 0x80 PUSH1 0x40 MSTORE CALLVALUE DUP1 ISZERO PUSH2 0x10 JUMPI PUSH1 0x0 DUP1 REVERT JUMPDEST POP PUSH2 0x12DC DUP1 PUSH2 0x20 PUSH1 0x0 CODECOPY PUSH1 0x0 RETURN INVALID PUSH1 0x80 PUSH1 0x40 MSTORE CALLVALUE DUP1 ISZERO PUSH2 0x10 JUMPI PUSH1 0x0 DUP1 REVERT JUMPDEST POP PUSH1 0x4 CALLDATASIZE LT PUSH2 0x36 JUMPI PUSH1 0x0 CALLDATALOAD PUSH1 0xE0 SHR DUP1 PUSH4 0x454D1256 EQ PUSH2 0x3B JUMPI DUP1 PUSH4 0xCD5EA1C6 EQ PUSH2 0x5B JUMPI JUMPDEST PUSH1 0x0 DUP1 REVERT JUMPDEST PUSH2 0x43 PUSH2 0x77 JUMP JUMPDEST PUSH1 0x40 MLOAD PUSH2 0x52 SWAP4 SWAP3 SWAP2 SWAP1 PUSH2 0x9A3 JUMP JUMPDEST PUSH1 0x40 MLOAD DUP1 SWAP2 SUB SWAP1 RETURN JUMPDEST PUSH2 0x75 PUSH1 0x4 DUP1 CALLDATASIZE SUB DUP2 ADD SWAP1 PUSH2 0x70 SWAP2 SWAP1 PUSH2 0xA53 JUMP JUMPDEST PUSH2 0x570 JUMP JUMPDEST STOP JUMPDEST PUSH1 0x0 DUP1 PUSH1 0x60 PUSH1 0x0 DUP1 PUSH1 0x0 DUP1 SLOAD SWAP1 PUSH2 0x100 EXP SWAP1 DIV PUSH20 0xFFFFFFFFFFFFFFFFFFFFFFFFFFFFFFFFFFFFFFFF AND PUSH20 0xFFFFFFFFFFFFFFFFFFFFFFFFFFFFFFFFFFFFFFFF AND PUSH4 0x902F1AC PUSH1 0x40 MLOAD DUP2 PUSH4 0xFFFFFFFF AND PUSH1 0xE0 SHL DUP2 MSTORE PUSH1 0x4 ADD PUSH1 0x60 PUSH1 0x40 MLOAD DUP1 DUP4 SUB DUP2 PUSH1 0x0 DUP8 GAS CALL ISZERO DUP1 ISZERO PUSH2 0xEC JUMPI RETURNDATASIZE PUSH1 0x0 DUP1 RETURNDATACOPY RETURNDATASIZE PUSH1 0x0 REVERT JUMPDEST POP POP POP POP PUSH1 0x40 MLOAD RETURNDATASIZE PUSH1 0x1F NOT PUSH1 0x1F DUP3 ADD AND DUP3 ADD DUP1 PUSH1 0x40 MSTORE POP DUP2 ADD SWAP1 PUSH2 0x110 SWAP2 SWAP1 PUSH2 0xB02 JUMP JUMPDEST POP PUSH14 0xFFFFFFFFFFFFFFFFFFFFFFFFFFFF AND SWAP2 POP PUSH14 0xFFFFFFFFFFFFFFFFFFFFFFFFFFFF AND SWAP2 POP PUSH1 0x0 DUP1 PUSH1 0x0 SWAP1 SLOAD SWAP1 PUSH2 0x100 EXP SWAP1 DIV PUSH20 0xFFFFFFFFFFFFFFFFFFFFFFFFFFFFFFFFFFFFFFFF AND PUSH20 0xFFFFFFFFFFFFFFFFFFFFFFFFFFFFFFFFFFFFFFFF AND PUSH4 0xDFE1681 PUSH1 0x40 MLOAD DUP2 PUSH4 0xFFFFFFFF AND PUSH1 0xE0 SHL DUP2 MSTORE PUSH1 0x4 ADD PUSH1 0x20 PUSH1 0x40 MLOAD DUP1 DUP4 SUB DUP2 PUSH1 0x0 DUP8 GAS CALL ISZERO DUP1 ISZERO PUSH2 0x1A5 JUMPI RETURNDATASIZE PUSH1 0x0 DUP1 RETURNDATACOPY RETURNDATASIZE PUSH1 0x0 REVERT JUMPDEST POP POP POP POP PUSH1 0x40 MLOAD RETURNDATASIZE PUSH1 0x1F NOT PUSH1 0x1F DUP3 ADD AND DUP3 ADD DUP1 PUSH1 0x40 MSTORE POP DUP2 ADD SWAP1 PUSH2 0x1C9 SWAP2 SWAP1 PUSH2 0xB6A JUMP JUMPDEST SWAP1 POP PUSH1 0x0 DUP1 PUSH1 0x0 SWAP1 SLOAD SWAP1 PUSH2 0x100 EXP SWAP1 DIV PUSH20 0xFFFFFFFFFFFFFFFFFFFFFFFFFFFFFFFFFFFFFFFF AND PUSH20 0xFFFFFFFFFFFFFFFFFFFFFFFFFFFFFFFFFFFFFFFF AND PUSH4 0xD21220A7 PUSH1 0x40 MLOAD DUP2 PUSH4 0xFFFFFFFF AND PUSH1 0xE0 SHL DUP2 MSTORE PUSH1 0x4 ADD PUSH1 0x20 PUSH1 0x40 MLOAD DUP1 DUP4 SUB DUP2 PUSH1 0x0 DUP8 GAS CALL ISZERO DUP1 ISZERO PUSH2 0x23B JUMPI RETURNDATASIZE PUSH1 0x0 DUP1 RETURNDATACOPY RETURNDATASIZE PUSH1 0x0 REVERT JUMPDEST POP POP POP POP PUSH1 0x40 MLOAD RETURNDATASIZE PUSH1 0x1F NOT PUSH1 0x1F DUP3 ADD AND DUP3 ADD DUP1 PUSH1 0x40 MSTORE POP DUP2 ADD SWAP1 PUSH2 0x25F SWAP2 SWAP1 PUSH2 0xB6A JUMP JUMPDEST SWAP1 POP DUP2 PUSH1 0x1 PUSH1 0x0 PUSH2 0x100 EXP DUP2 SLOAD DUP2 PUSH20 0xFFFFFFFFFFFFFFFFFFFFFFFFFFFFFFFFFFFFFFFF MUL NOT AND SWAP1 DUP4 PUSH20 0xFFFFFFFFFFFFFFFFFFFFFFFFFFFFFFFFFFFFFFFF AND MUL OR SWAP1 SSTORE POP DUP1 PUSH1 0x2 PUSH1 0x0 PUSH2 0x100 EXP DUP2 SLOAD DUP2 PUSH20 0xFFFFFFFFFFFFFFFFFFFFFFFFFFFFFFFFFFFFFFFF MUL NOT AND SWAP1 DUP4 PUSH20 0xFFFFFFFFFFFFFFFFFFFFFFFFFFFFFFFFFFFFFFFF AND MUL OR SWAP1 SSTORE POP PUSH1 0x0 PUSH1 0x1 PUSH1 0x0 SWAP1 SLOAD SWAP1 PUSH2 0x100 EXP SWAP1 DIV PUSH20 0xFFFFFFFFFFFFFFFFFFFFFFFFFFFFFFFFFFFFFFFF AND PUSH20 0xFFFFFFFFFFFFFFFFFFFFFFFFFFFFFFFFFFFFFFFF AND PUSH4 0x313CE567 PUSH1 0x40 MLOAD DUP2 PUSH4 0xFFFFFFFF AND PUSH1 0xE0 SHL DUP2 MSTORE PUSH1 0x4 ADD PUSH1 0x20 PUSH1 0x40 MLOAD DUP1 DUP4 SUB DUP2 PUSH1 0x0 DUP8 GAS CALL ISZERO DUP1 ISZERO PUSH2 0x354 JUMPI RETURNDATASIZE PUSH1 0x0 DUP1 RETURNDATACOPY RETURNDATASIZE PUSH1 0x0 REVERT JUMPDEST POP POP POP POP PUSH1 0x40 MLOAD RETURNDATASIZE PUSH1 0x1F NOT PUSH1 0x1F DUP3 ADD AND DUP3 ADD DUP1 PUSH1 0x40 MSTORE POP DUP2 ADD SWAP1 PUSH2 0x378 SWAP2 SWAP1 PUSH2 0xBD0 JUMP JUMPDEST PUSH1 0xFF AND SWAP1 POP PUSH1 0x0 PUSH1 0x2 PUSH1 0x0 SWAP1 SLOAD SWAP1 PUSH2 0x100 EXP SWAP1 DIV PUSH20 0xFFFFFFFFFFFFFFFFFFFFFFFFFFFFFFFFFFFFFFFF AND PUSH20 0xFFFFFFFFFFFFFFFFFFFFFFFFFFFFFFFFFFFFFFFF AND PUSH4 0x313CE567 PUSH1 0x40 MLOAD DUP2 PUSH4 0xFFFFFFFF AND PUSH1 0xE0 SHL DUP2 MSTORE PUSH1 0x4 ADD PUSH1 0x20 PUSH1 0x40 MLOAD DUP1 DUP4 SUB DUP2 PUSH1 0x0 DUP8 GAS CALL ISZERO DUP1 ISZERO PUSH2 0x3EE JUMPI RETURNDATASIZE PUSH1 0x0 DUP1 RETURNDATACOPY RETURNDATASIZE PUSH1 0x0 REVERT JUMPDEST POP POP POP POP PUSH1 0x40 MLOAD RETURNDATASIZE PUSH1 0x1F NOT PUSH1 0x1F DUP3 ADD AND DUP3 ADD DUP1 PUSH1 0x40 MSTORE POP DUP2 ADD SWAP1 PUSH2 0x412 SWAP2 SWAP1 PUSH2 0xBD0 JUMP JUMPDEST PUSH1 0xFF AND SWAP1 POP PUSH1 0x0 PUSH1 0x1 PUSH1 0x0 SWAP1 SLOAD SWAP1 PUSH2 0x100 EXP SWAP1 DIV PUSH20 0xFFFFFFFFFFFFFFFFFFFFFFFFFFFFFFFFFFFFFFFF AND PUSH20 0xFFFFFFFFFFFFFFFFFFFFFFFFFFFFFFFFFFFFFFFF AND PUSH4 0x6FDDE03 PUSH1 0x40 MLOAD DUP2 PUSH4 0xFFFFFFFF AND PUSH1 0xE0 SHL DUP2 MSTORE PUSH1 0x4 ADD PUSH1 0x0 PUSH1 0x40 MLOAD DUP1 DUP4 SUB DUP2 PUSH1 0x0 DUP8 GAS CALL ISZERO DUP1 ISZERO PUSH2 0x488 JUMPI RETURNDATASIZE PUSH1 0x0 DUP1 RETURNDATACOPY RETURNDATASIZE PUSH1 0x0 REVERT JUMPDEST POP POP POP POP PUSH1 0x40 MLOAD RETURNDATASIZE PUSH1 0x0 DUP3 RETURNDATACOPY RETURNDATASIZE PUSH1 0x1F NOT PUSH1 0x1F DUP3 ADD AND DUP3 ADD DUP1 PUSH1 0x40 MSTORE POP DUP2 ADD SWAP1 PUSH2 0x4B1 SWAP2 SWAP1 PUSH2 0xD23 JUMP JUMPDEST SWAP1 POP PUSH1 0x0 PUSH1 0x2 PUSH1 0x0 SWAP1 SLOAD SWAP1 PUSH2 0x100 EXP SWAP1 DIV PUSH20 0xFFFFFFFFFFFFFFFFFFFFFFFFFFFFFFFFFFFFFFFF AND PUSH20 0xFFFFFFFFFFFFFFFFFFFFFFFFFFFFFFFFFFFFFFFF AND PUSH4 0x6FDDE03 PUSH1 0x40 MLOAD DUP2 PUSH4 0xFFFFFFFF AND PUSH1 0xE0 SHL DUP2 MSTORE PUSH1 0x4 ADD PUSH1 0x0 PUSH1 0x40 MLOAD DUP1 DUP4 SUB DUP2 PUSH1 0x0 DUP8 GAS CALL ISZERO DUP1 ISZERO PUSH2 0x524 JUMPI RETURNDATASIZE PUSH1 0x0 DUP1 RETURNDATACOPY RETURNDATASIZE PUSH1 0x0 REVERT JUMPDEST POP POP POP POP PUSH1 0x40 MLOAD RETURNDATASIZE PUSH1 0x0 DUP3 RETURNDATACOPY RETURNDATASIZE PUSH1 0x1F NOT PUSH1 0x1F DUP3 ADD AND DUP3 ADD DUP1 PUSH1 0x40 MSTORE POP DUP2 ADD SWAP1 PUSH2 0x54D SWAP2 SWAP1 PUSH2 0xD23 JUMP JUMPDEST SWAP1 POP PUSH2 0x55D DUP9 DUP6 DUP5 DUP11 DUP8 DUP7 PUSH2 0x5B3 JUMP JUMPDEST SWAP11 POP SWAP11 POP SWAP11 POP POP POP POP POP POP POP POP POP SWAP1 SWAP2 SWAP3 JUMP JUMPDEST DUP1 PUSH1 0x0 DUP1 PUSH2 0x100 EXP DUP2 SLOAD DUP2 PUSH20 0xFFFFFFFFFFFFFFFFFFFFFFFFFFFFFFFFFFFFFFFF MUL NOT AND SWAP1 DUP4 PUSH20 0xFFFFFFFFFFFFFFFFFFFFFFFFFFFFFFFFFFFFFFFF AND MUL OR SWAP1 SSTORE POP POP JUMP JUMPDEST PUSH1 0x0 DUP1 PUSH1 0x60 PUSH1 0x0 DUP8 MLOAD GT DUP1 ISZERO PUSH2 0x5CA JUMPI POP PUSH1 0x0 DUP5 MLOAD GT JUMPDEST PUSH2 0x609 JUMPI PUSH1 0x40 MLOAD PUSH32 0x8C379A000000000000000000000000000000000000000000000000000000000 DUP2 MSTORE PUSH1 0x4 ADD PUSH2 0x600 SWAP1 PUSH2 0xDB8 JUMP JUMPDEST PUSH1 0x40 MLOAD DUP1 SWAP2 SUB SWAP1 REVERT JUMPDEST PUSH1 0x12 DUP9 GT ISZERO DUP1 ISZERO PUSH2 0x61B JUMPI POP PUSH1 0x12 DUP6 GT ISZERO JUMPDEST PUSH2 0x65A JUMPI PUSH1 0x40 MLOAD PUSH32 0x8C379A000000000000000000000000000000000000000000000000000000000 DUP2 MSTORE PUSH1 0x4 ADD PUSH2 0x651 SWAP1 PUSH2 0xE4A JUMP JUMPDEST PUSH1 0x40 MLOAD DUP1 SWAP2 SUB SWAP1 REVERT JUMPDEST PUSH1 0x0 DUP9 GT DUP1 ISZERO PUSH2 0x66A JUMPI POP PUSH1 0x0 DUP6 GT JUMPDEST PUSH2 0x6A9 JUMPI PUSH1 0x40 MLOAD PUSH32 0x8C379A000000000000000000000000000000000000000000000000000000000 DUP2 MSTORE PUSH1 0x4 ADD PUSH2 0x6A0 SWAP1 PUSH2 0xEDC JUMP JUMPDEST PUSH1 0x40 MLOAD DUP1 SWAP2 SUB SWAP1 REVERT JUMPDEST PUSH1 0x0 DUP10 GT DUP1 ISZERO PUSH2 0x6B9 JUMPI POP PUSH1 0x0 DUP7 GT JUMPDEST PUSH2 0x6F8 JUMPI PUSH1 0x40 MLOAD PUSH32 0x8C379A000000000000000000000000000000000000000000000000000000000 DUP2 MSTORE PUSH1 0x4 ADD PUSH2 0x6EF SWAP1 PUSH2 0xF6E JUMP JUMPDEST PUSH1 0x40 MLOAD DUP1 SWAP2 SUB SWAP1 REVERT JUMPDEST DUP5 DUP9 GT ISZERO PUSH2 0x7F9 JUMPI PUSH1 0x0 DUP6 DUP10 PUSH2 0x70E SWAP2 SWAP1 PUSH2 0xFBD JUMP JUMPDEST PUSH1 0xA PUSH2 0x71A SWAP2 SWAP1 PUSH2 0x1124 JUMP JUMPDEST DUP8 PUSH2 0x725 SWAP2 SWAP1 PUSH2 0x116F JUMP JUMPDEST SWAP1 POP DUP1 DUP11 GT ISZERO PUSH2 0x794 JUMPI PUSH4 0x5F5E100 DUP1 DUP3 PUSH4 0x5F5E100 DUP14 PUSH2 0x746 SWAP2 SWAP1 PUSH2 0x116F JUMP JUMPDEST PUSH2 0x750 SWAP2 SWAP1 PUSH2 0x11E0 JUMP JUMPDEST PUSH2 0x75A SWAP2 SWAP1 PUSH2 0x116F JUMP JUMPDEST PUSH2 0x764 SWAP2 SWAP1 PUSH2 0x11E0 JUMP JUMPDEST PUSH1 0x8 DUP10 DUP8 PUSH1 0x40 MLOAD PUSH1 0x20 ADD PUSH2 0x779 SWAP3 SWAP2 SWAP1 PUSH2 0x1273 JUMP JUMPDEST PUSH1 0x40 MLOAD PUSH1 0x20 DUP2 DUP4 SUB SUB DUP2 MSTORE SWAP1 PUSH1 0x40 MSTORE SWAP4 POP SWAP4 POP SWAP4 POP POP PUSH2 0x8EE JUMP JUMPDEST PUSH4 0x5F5E100 DUP1 DUP12 PUSH4 0x5F5E100 DUP5 PUSH2 0x7AB SWAP2 SWAP1 PUSH2 0x116F JUMP JUMPDEST PUSH2 0x7B5 SWAP2 SWAP1 PUSH2 0x11E0 JUMP JUMPDEST PUSH2 0x7BF SWAP2 SWAP1 PUSH2 0x116F JUMP JUMPDEST PUSH2 0x7C9 SWAP2 SWAP1 PUSH2 0x11E0 JUMP JUMPDEST PUSH1 0x8 DUP7 DUP11 PUSH1 0x40 MLOAD PUSH1 0x20 ADD PUSH2 0x7DE SWAP3 SWAP2 SWAP1 PUSH2 0x1273 JUMP JUMPDEST PUSH1 0x40 MLOAD PUSH1 0x20 DUP2 DUP4 SUB SUB DUP2 MSTORE SWAP1 PUSH1 0x40 MSTORE SWAP4 POP SWAP4 POP SWAP4 POP POP PUSH2 0x8EE JUMP JUMPDEST PUSH1 0x0 DUP9 DUP7 PUSH2 0x807 SWAP2 SWAP1 PUSH2 0xFBD JUMP JUMPDEST PUSH1 0xA PUSH2 0x813 SWAP2 SWAP1 PUSH2 0x1124 JUMP JUMPDEST DUP11 PUSH2 0x81E SWAP2 SWAP1 PUSH2 0x116F JUMP JUMPDEST SWAP1 POP DUP1 DUP8 GT ISZERO PUSH2 0x88D JUMPI PUSH4 0x5F5E100 DUP1 DUP3 PUSH4 0x5F5E100 DUP11 PUSH2 0x83F SWAP2 SWAP1 PUSH2 0x116F JUMP JUMPDEST PUSH2 0x849 SWAP2 SWAP1 PUSH2 0x11E0 JUMP JUMPDEST PUSH2 0x853 SWAP2 SWAP1 PUSH2 0x116F JUMP JUMPDEST PUSH2 0x85D SWAP2 SWAP1 PUSH2 0x11E0 JUMP JUMPDEST PUSH1 0x8 DUP7 DUP11 PUSH1 0x40 MLOAD PUSH1 0x20 ADD PUSH2 0x872 SWAP3 SWAP2 SWAP1 PUSH2 0x1273 JUMP JUMPDEST PUSH1 0x40 MLOAD PUSH1 0x20 DUP2 DUP4 SUB SUB DUP2 MSTORE SWAP1 PUSH1 0x40 MSTORE SWAP4 POP SWAP4 POP SWAP4 POP POP PUSH2 0x8EE JUMP JUMPDEST PUSH4 0x5F5E100 DUP1 DUP9 PUSH4 0x5F5E100 DUP5 PUSH2 0x8A4 SWAP2 SWAP1 PUSH2 0x116F JUMP JUMPDEST PUSH2 0x8AE SWAP2 SWAP1 PUSH2 0x11E0 JUMP JUMPDEST PUSH2 0x8B8 SWAP2 SWAP1 PUSH2 0x116F JUMP JUMPDEST PUSH2 0x8C2 SWAP2 SWAP1 PUSH2 0x11E0 JUMP JUMPDEST PUSH1 0x8 DUP10 DUP8 PUSH1 0x40 MLOAD PUSH1 0x20 ADD PUSH2 0x8D7 SWAP3 SWAP2 SWAP1 PUSH2 0x1273 JUMP JUMPDEST PUSH1 0x40 MLOAD PUSH1 0x20 DUP2 DUP4 SUB SUB DUP2 MSTORE SWAP1 PUSH1 0x40 MSTORE SWAP4 POP SWAP4 POP SWAP4 POP POP JUMPDEST SWAP7 POP SWAP7 POP SWAP7 SWAP4 POP POP POP POP JUMP JUMPDEST PUSH1 0x0 DUP2 SWAP1 POP SWAP2 SWAP1 POP JUMP JUMPDEST PUSH2 0x90D DUP2 PUSH2 0x8FA JUMP JUMPDEST DUP3 MSTORE POP POP JUMP JUMPDEST PUSH1 0x0 DUP2 MLOAD SWAP1 POP SWAP2 SWAP1 POP JUMP JUMPDEST PUSH1 0x0 DUP3 DUP3 MSTORE PUSH1 0x20 DUP3 ADD SWAP1 POP SWAP3 SWAP2 POP POP JUMP JUMPDEST PUSH1 0x0 JUMPDEST DUP4 DUP2 LT ISZERO PUSH2 0x94D JUMPI DUP1 DUP3 ADD MLOAD DUP2 DUP5 ADD MSTORE PUSH1 0x20 DUP2 ADD SWAP1 POP PUSH2 0x932 JUMP JUMPDEST PUSH1 0x0 DUP5 DUP5 ADD MSTORE POP POP POP POP JUMP JUMPDEST PUSH1 0x0 PUSH1 0x1F NOT PUSH1 0x1F DUP4 ADD AND SWAP1 POP SWAP2 SWAP1 POP JUMP JUMPDEST PUSH1 0x0 PUSH2 0x975 DUP3 PUSH2 0x913 JUMP JUMPDEST PUSH2 0x97F DUP2 DUP6 PUSH2 0x91E JUMP JUMPDEST SWAP4 POP PUSH2 0x98F DUP2 DUP6 PUSH1 0x20 DUP7 ADD PUSH2 0x92F JUMP JUMPDEST PUSH2 0x998 DUP2 PUSH2 0x959 JUMP JUMPDEST DUP5 ADD SWAP2 POP POP SWAP3 SWAP2 POP POP JUMP JUMPDEST PUSH1 0x0 PUSH1 0x60 DUP3 ADD SWAP1 POP PUSH2 0x9B8 PUSH1 0x0 DUP4 ADD DUP7 PUSH2 0x904 JUMP JUMPDEST PUSH2 0x9C5 PUSH1 0x20 DUP4 ADD DUP6 PUSH2 0x904 JUMP JUMPDEST DUP2 DUP2 SUB PUSH1 0x40 DUP4 ADD MSTORE PUSH2 0x9D7 DUP2 DUP5 PUSH2 0x96A JUMP JUMPDEST SWAP1 POP SWAP5 SWAP4 POP POP POP POP JUMP JUMPDEST PUSH1 0x0 PUSH1 0x40 MLOAD SWAP1 POP SWAP1 JUMP JUMPDEST PUSH1 0x0 DUP1 REVERT JUMPDEST PUSH1 0x0 DUP1 REVERT JUMPDEST PUSH1 0x0 PUSH20 0xFFFFFFFFFFFFFFFFFFFFFFFFFFFFFFFFFFFFFFFF DUP3 AND SWAP1 POP SWAP2 SWAP1 POP JUMP JUMPDEST PUSH1 0x0 PUSH2 0xA20 DUP3 PUSH2 0x9F5 JUMP JUMPDEST SWAP1 POP SWAP2 SWAP1 POP JUMP JUMPDEST PUSH2 0xA30 DUP2 PUSH2 0xA15 JUMP JUMPDEST DUP2 EQ PUSH2 0xA3B JUMPI PUSH1 0x0 DUP1 REVERT JUMPDEST POP JUMP JUMPDEST PUSH1 0x0 DUP2 CALLDATALOAD SWAP1 POP PUSH2 0xA4D DUP2 PUSH2 0xA27 JUMP JUMPDEST SWAP3 SWAP2 POP POP JUMP JUMPDEST PUSH1 0x0 PUSH1 0x20 DUP3 DUP5 SUB SLT ISZERO PUSH2 0xA69 JUMPI PUSH2 0xA68 PUSH2 0x9EB JUMP JUMPDEST JUMPDEST PUSH1 0x0 PUSH2 0xA77 DUP5 DUP3 DUP6 ADD PUSH2 0xA3E JUMP JUMPDEST SWAP2 POP POP SWAP3 SWAP2 POP POP JUMP JUMPDEST PUSH1 0x0 PUSH14 0xFFFFFFFFFFFFFFFFFFFFFFFFFFFF DUP3 AND SWAP1 POP SWAP2 SWAP1 POP JUMP JUMPDEST PUSH2 0xAA3 DUP2 PUSH2 0xA80 JUMP JUMPDEST DUP2 EQ PUSH2 0xAAE JUMPI PUSH1 0x0 DUP1 REVERT JUMPDEST POP JUMP JUMPDEST PUSH1 0x0 DUP2 MLOAD SWAP1 POP PUSH2 0xAC0 DUP2 PUSH2 0xA9A JUMP JUMPDEST SWAP3 SWAP2 POP POP JUMP JUMPDEST PUSH1 0x0 PUSH4 0xFFFFFFFF DUP3 AND SWAP1 POP SWAP2 SWAP1 POP JUMP JUMPDEST PUSH2 0xADF DUP2 PUSH2 0xAC6 JUMP JUMPDEST DUP2 EQ PUSH2 0xAEA JUMPI PUSH1 0x0 DUP1 REVERT JUMPDEST POP JUMP JUMPDEST PUSH1 0x0 DUP2 MLOAD SWAP1 POP PUSH2 0xAFC DUP2 PUSH2 0xAD6 JUMP JUMPDEST SWAP3 SWAP2 POP POP JUMP JUMPDEST PUSH1 0x0 DUP1 PUSH1 0x0 PUSH1 0x60 DUP5 DUP7 SUB SLT ISZERO PUSH2 0xB1B JUMPI PUSH2 0xB1A PUSH2 0x9EB JUMP JUMPDEST JUMPDEST PUSH1 0x0 PUSH2 0xB29 DUP7 DUP3 DUP8 ADD PUSH2 0xAB1 JUMP JUMPDEST SWAP4 POP POP PUSH1 0x20 PUSH2 0xB3A DUP7 DUP3 DUP8 ADD PUSH2 0xAB1 JUMP JUMPDEST SWAP3 POP POP PUSH1 0x40 PUSH2 0xB4B DUP7 DUP3 DUP8 ADD PUSH2 0xAED JUMP JUMPDEST SWAP2 POP POP SWAP3 POP SWAP3 POP SWAP3 JUMP JUMPDEST PUSH1 0x0 DUP2 MLOAD SWAP1 POP PUSH2 0xB64 DUP2 PUSH2 0xA27 JUMP JUMPDEST SWAP3 SWAP2 POP POP JUMP JUMPDEST PUSH1 0x0 PUSH1 0x20 DUP3 DUP5 SUB SLT ISZERO PUSH2 0xB80 JUMPI PUSH2 0xB7F PUSH2 0x9EB JUMP JUMPDEST JUMPDEST PUSH1 0x0 PUSH2 0xB8E DUP5 DUP3 DUP6 ADD PUSH2 0xB55 JUMP JUMPDEST SWAP2 POP POP SWAP3 SWAP2 POP POP JUMP JUMPDEST PUSH1 0x0 PUSH1 0xFF DUP3 AND SWAP1 POP SWAP2 SWAP1 POP JUMP JUMPDEST PUSH2 0xBAD DUP2 PUSH2 0xB97 JUMP JUMPDEST DUP2 EQ PUSH2 0xBB8 JUMPI PUSH1 0x0 DUP1 REVERT JUMPDEST POP JUMP JUMPDEST PUSH1 0x0 DUP2 MLOAD SWAP1 POP PUSH2 0xBCA DUP2 PUSH2 0xBA4 JUMP JUMPDEST SWAP3 SWAP2 POP POP JUMP JUMPDEST PUSH1 0x0 PUSH1 0x20 DUP3 DUP5 SUB SLT ISZERO PUSH2 0xBE6 JUMPI PUSH2 0xBE5 PUSH2 0x9EB JUMP JUMPDEST JUMPDEST PUSH1 0x0 PUSH2 0xBF4 DUP5 DUP3 DUP6 ADD PUSH2 0xBBB JUMP JUMPDEST SWAP2 POP POP SWAP3 SWAP2 POP POP JUMP JUMPDEST PUSH1 0x0 DUP1 REVERT JUMPDEST PUSH1 0x0 DUP1 REVERT JUMPDEST PUSH32 0x4E487B7100000000000000000000000000000000000000000000000000000000 PUSH1 0x0 MSTORE PUSH1 0x41 PUSH1 0x4 MSTORE PUSH1 0x24 PUSH1 0x0 REVERT JUMPDEST PUSH2 0xC3F DUP3 PUSH2 0x959 JUMP JUMPDEST DUP2 ADD DUP2 DUP2 LT PUSH8 0xFFFFFFFFFFFFFFFF DUP3 GT OR ISZERO PUSH2 0xC5E JUMPI PUSH2 0xC5D PUSH2 0xC07 JUMP JUMPDEST JUMPDEST DUP1 PUSH1 0x40 MSTORE POP POP POP JUMP JUMPDEST PUSH1 0x0 PUSH2 0xC71 PUSH2 0x9E1 JUMP JUMPDEST SWAP1 POP PUSH2 0xC7D DUP3 DUP3 PUSH2 0xC36 JUMP JUMPDEST SWAP2 SWAP1 POP JUMP JUMPDEST PUSH1 0x0 PUSH8 0xFFFFFFFFFFFFFFFF DUP3 GT ISZERO PUSH2 0xC9D JUMPI PUSH2 0xC9C PUSH2 0xC07 JUMP JUMPDEST JUMPDEST PUSH2 0xCA6 DUP3 PUSH2 0x959 JUMP JUMPDEST SWAP1 POP PUSH1 0x20 DUP2 ADD SWAP1 POP SWAP2 SWAP1 POP JUMP JUMPDEST PUSH1 0x0 PUSH2 0xCC6 PUSH2 0xCC1 DUP5 PUSH2 0xC82 JUMP JUMPDEST PUSH2 0xC67 JUMP JUMPDEST SWAP1 POP DUP3 DUP2 MSTORE PUSH1 0x20 DUP2 ADD DUP5 DUP5 DUP5 ADD GT ISZERO PUSH2 0xCE2 JUMPI PUSH2 0xCE1 PUSH2 0xC02 JUMP JUMPDEST JUMPDEST PUSH2 0xCED DUP5 DUP3 DUP6 PUSH2 0x92F JUMP JUMPDEST POP SWAP4 SWAP3 POP POP POP JUMP JUMPDEST PUSH1 0x0 DUP3 PUSH1 0x1F DUP4 ADD SLT PUSH2 0xD0A JUMPI PUSH2 0xD09 PUSH2 0xBFD JUMP JUMPDEST JUMPDEST DUP2 MLOAD PUSH2 0xD1A DUP5 DUP3 PUSH1 0x20 DUP7 ADD PUSH2 0xCB3 JUMP JUMPDEST SWAP2 POP POP SWAP3 SWAP2 POP POP JUMP JUMPDEST PUSH1 0x0 PUSH1 0x20 DUP3 DUP5 SUB SLT ISZERO PUSH2 0xD39 JUMPI PUSH2 0xD38 PUSH2 0x9EB JUMP JUMPDEST JUMPDEST PUSH1 0x0 DUP3 ADD MLOAD PUSH8 0xFFFFFFFFFFFFFFFF DUP2 GT ISZERO PUSH2 0xD57 JUMPI PUSH2 0xD56 PUSH2 0x9F0 JUMP JUMPDEST JUMPDEST PUSH2 0xD63 DUP5 DUP3 DUP6 ADD PUSH2 0xCF5 JUMP JUMPDEST SWAP2 POP POP SWAP3 SWAP2 POP POP JUMP JUMPDEST PUSH32 0x4D697373696E6720696E70757420666F7220746F6B656E206E616D6573210000 PUSH1 0x0 DUP3 ADD MSTORE POP JUMP JUMPDEST PUSH1 0x0 PUSH2 0xDA2 PUSH1 0x1E DUP4 PUSH2 0x91E JUMP JUMPDEST SWAP2 POP PUSH2 0xDAD DUP3 PUSH2 0xD6C JUMP JUMPDEST PUSH1 0x20 DUP3 ADD SWAP1 POP SWAP2 SWAP1 POP JUMP JUMPDEST PUSH1 0x0 PUSH1 0x20 DUP3 ADD SWAP1 POP DUP2 DUP2 SUB PUSH1 0x0 DUP4 ADD MSTORE PUSH2 0xDD1 DUP2 PUSH2 0xD95 JUMP JUMPDEST SWAP1 POP SWAP2 SWAP1 POP JUMP JUMPDEST PUSH32 0x446563696D616C732073686F756C64206265206C657373207468616E206F7220 PUSH1 0x0 DUP3 ADD MSTORE PUSH32 0x657175616C20746F203138000000000000000000000000000000000000000000 PUSH1 0x20 DUP3 ADD MSTORE POP JUMP JUMPDEST PUSH1 0x0 PUSH2 0xE34 PUSH1 0x2B DUP4 PUSH2 0x91E JUMP JUMPDEST SWAP2 POP PUSH2 0xE3F DUP3 PUSH2 0xDD8 JUMP JUMPDEST PUSH1 0x40 DUP3 ADD SWAP1 POP SWAP2 SWAP1 POP JUMP JUMPDEST PUSH1 0x0 PUSH1 0x20 DUP3 ADD SWAP1 POP DUP2 DUP2 SUB PUSH1 0x0 DUP4 ADD MSTORE PUSH2 0xE63 DUP2 PUSH2 0xE27 JUMP JUMPDEST SWAP1 POP SWAP2 SWAP1 POP JUMP JUMPDEST PUSH32 0x446563696D616C732073686F756C642062652067726561746572207468616E20 PUSH1 0x0 DUP3 ADD MSTORE PUSH32 0x3000000000000000000000000000000000000000000000000000000000000000 PUSH1 0x20 DUP3 ADD MSTORE POP JUMP JUMPDEST PUSH1 0x0 PUSH2 0xEC6 PUSH1 0x21 DUP4 PUSH2 0x91E JUMP JUMPDEST SWAP2 POP PUSH2 0xED1 DUP3 PUSH2 0xE6A JUMP JUMPDEST PUSH1 0x40 DUP3 ADD SWAP1 POP SWAP2 SWAP1 POP JUMP JUMPDEST PUSH1 0x0 PUSH1 0x20 DUP3 ADD SWAP1 POP DUP2 DUP2 SUB PUSH1 0x0 DUP4 ADD MSTORE PUSH2 0xEF5 DUP2 PUSH2 0xEB9 JUMP JUMPDEST SWAP1 POP SWAP2 SWAP1 POP JUMP JUMPDEST PUSH32 0x546F6B656E2076616C7565732073686F756C6420626520677265617465722074 PUSH1 0x0 DUP3 ADD MSTORE PUSH32 0x68616E2030000000000000000000000000000000000000000000000000000000 PUSH1 0x20 DUP3 ADD MSTORE POP JUMP JUMPDEST PUSH1 0x0 PUSH2 0xF58 PUSH1 0x25 DUP4 PUSH2 0x91E JUMP JUMPDEST SWAP2 POP PUSH2 0xF63 DUP3 PUSH2 0xEFC JUMP JUMPDEST PUSH1 0x40 DUP3 ADD SWAP1 POP SWAP2 SWAP1 POP JUMP JUMPDEST PUSH1 0x0 PUSH1 0x20 DUP3 ADD SWAP1 POP DUP2 DUP2 SUB PUSH1 0x0 DUP4 ADD MSTORE PUSH2 0xF87 DUP2 PUSH2 0xF4B JUMP JUMPDEST SWAP1 POP SWAP2 SWAP1 POP JUMP JUMPDEST PUSH32 0x4E487B7100000000000000000000000000000000000000000000000000000000 PUSH1 0x0 MSTORE PUSH1 0x11 PUSH1 0x4 MSTORE PUSH1 0x24 PUSH1 0x0 REVERT JUMPDEST PUSH1 0x0 PUSH2 0xFC8 DUP3 PUSH2 0x8FA JUMP JUMPDEST SWAP2 POP PUSH2 0xFD3 DUP4 PUSH2 0x8FA JUMP JUMPDEST SWAP3 POP DUP3 DUP3 SUB SWAP1 POP DUP2 DUP2 GT ISZERO PUSH2 0xFEB JUMPI PUSH2 0xFEA PUSH2 0xF8E JUMP JUMPDEST JUMPDEST SWAP3 SWAP2 POP POP JUMP JUMPDEST PUSH1 0x0 DUP2 PUSH1 0x1 SHR SWAP1 POP SWAP2 SWAP1 POP JUMP JUMPDEST PUSH1 0x0 DUP1 DUP3 SWAP2 POP DUP4 SWAP1 POP JUMPDEST PUSH1 0x1 DUP6 GT ISZERO PUSH2 0x1048 JUMPI DUP1 DUP7 DIV DUP2 GT ISZERO PUSH2 0x1024 JUMPI PUSH2 0x1023 PUSH2 0xF8E JUMP JUMPDEST JUMPDEST PUSH1 0x1 DUP6 AND ISZERO PUSH2 0x1033 JUMPI DUP1 DUP3 MUL SWAP2 POP JUMPDEST DUP1 DUP2 MUL SWAP1 POP PUSH2 0x1041 DUP6 PUSH2 0xFF1 JUMP JUMPDEST SWAP5 POP PUSH2 0x1008 JUMP JUMPDEST SWAP5 POP SWAP5 SWAP3 POP POP POP JUMP JUMPDEST PUSH1 0x0 DUP3 PUSH2 0x1061 JUMPI PUSH1 0x1 SWAP1 POP PUSH2 0x111D JUMP JUMPDEST DUP2 PUSH2 0x106F JUMPI PUSH1 0x0 SWAP1 POP PUSH2 0x111D JUMP JUMPDEST DUP2 PUSH1 0x1 DUP2 EQ PUSH2 0x1085 JUMPI PUSH1 0x2 DUP2 EQ PUSH2 0x108F JUMPI PUSH2 0x10BE JUMP JUMPDEST PUSH1 0x1 SWAP2 POP POP PUSH2 0x111D JUMP JUMPDEST PUSH1 0xFF DUP5 GT ISZERO PUSH2 0x10A1 JUMPI PUSH2 0x10A0 PUSH2 0xF8E JUMP JUMPDEST JUMPDEST DUP4 PUSH1 0x2 EXP SWAP2 POP DUP5 DUP3 GT ISZERO PUSH2 0x10B8 JUMPI PUSH2 0x10B7 PUSH2 0xF8E JUMP JUMPDEST JUMPDEST POP PUSH2 0x111D JUMP JUMPDEST POP PUSH1 0x20 DUP4 LT PUSH2 0x133 DUP4 LT AND PUSH1 0x4E DUP5 LT PUSH1 0xB DUP5 LT AND OR ISZERO PUSH2 0x10F3 JUMPI DUP3 DUP3 EXP SWAP1 POP DUP4 DUP2 GT ISZERO PUSH2 0x10EE JUMPI PUSH2 0x10ED PUSH2 0xF8E JUMP JUMPDEST JUMPDEST PUSH2 0x111D JUMP JUMPDEST PUSH2 0x1100 DUP5 DUP5 DUP5 PUSH1 0x1 PUSH2 0xFFE JUMP JUMPDEST SWAP3 POP SWAP1 POP DUP2 DUP5 DIV DUP2 GT ISZERO PUSH2 0x1117 JUMPI PUSH2 0x1116 PUSH2 0xF8E JUMP JUMPDEST JUMPDEST DUP2 DUP2 MUL SWAP1 POP JUMPDEST SWAP4 SWAP3 POP POP POP JUMP JUMPDEST PUSH1 0x0 PUSH2 0x112F DUP3 PUSH2 0x8FA JUMP JUMPDEST SWAP2 POP PUSH2 0x113A DUP4 PUSH2 0x8FA JUMP JUMPDEST SWAP3 POP PUSH2 0x1167 PUSH32 0xFFFFFFFFFFFFFFFFFFFFFFFFFFFFFFFFFFFFFFFFFFFFFFFFFFFFFFFFFFFFFFFF DUP5 DUP5 PUSH2 0x1051 JUMP JUMPDEST SWAP1 POP SWAP3 SWAP2 POP POP JUMP JUMPDEST PUSH1 0x0 PUSH2 0x117A DUP3 PUSH2 0x8FA JUMP JUMPDEST SWAP2 POP PUSH2 0x1185 DUP4 PUSH2 0x8FA JUMP JUMPDEST SWAP3 POP DUP3 DUP3 MUL PUSH2 0x1193 DUP2 PUSH2 0x8FA JUMP JUMPDEST SWAP2 POP DUP3 DUP3 DIV DUP5 EQ DUP4 ISZERO OR PUSH2 0x11AA JUMPI PUSH2 0x11A9 PUSH2 0xF8E JUMP JUMPDEST JUMPDEST POP SWAP3 SWAP2 POP POP JUMP JUMPDEST PUSH32 0x4E487B7100000000000000000000000000000000000000000000000000000000 PUSH1 0x0 MSTORE PUSH1 0x12 PUSH1 0x4 MSTORE PUSH1 0x24 PUSH1 0x0 REVERT JUMPDEST PUSH1 0x0 PUSH2 0x11EB DUP3 PUSH2 0x8FA JUMP JUMPDEST SWAP2 POP PUSH2 0x11F6 DUP4 PUSH2 0x8FA JUMP JUMPDEST SWAP3 POP DUP3 PUSH2 0x1206 JUMPI PUSH2 0x1205 PUSH2 0x11B1 JUMP JUMPDEST JUMPDEST DUP3 DUP3 DIV SWAP1 POP SWAP3 SWAP2 POP POP JUMP JUMPDEST PUSH1 0x0 DUP2 SWAP1 POP SWAP3 SWAP2 POP POP JUMP JUMPDEST PUSH1 0x0 PUSH2 0x1227 DUP3 PUSH2 0x913 JUMP JUMPDEST PUSH2 0x1231 DUP2 DUP6 PUSH2 0x1211 JUMP JUMPDEST SWAP4 POP PUSH2 0x1241 DUP2 DUP6 PUSH1 0x20 DUP7 ADD PUSH2 0x92F JUMP JUMPDEST DUP1 DUP5 ADD SWAP2 POP POP SWAP3 SWAP2 POP POP JUMP JUMPDEST PUSH32 0x2F00000000000000000000000000000000000000000000000000000000000000 DUP2 MSTORE POP JUMP JUMPDEST PUSH1 0x0 PUSH2 0x127F DUP3 DUP6 PUSH2 0x121C JUMP JUMPDEST SWAP2 POP PUSH2 0x128A DUP3 PUSH2 0x124D JUMP JUMPDEST PUSH1 0x1 DUP3 ADD SWAP2 POP PUSH2 0x129A DUP3 DUP5 PUSH2 0x121C JUMP JUMPDEST SWAP2 POP DUP2 SWAP1 POP SWAP4 SWAP3 POP POP POP JUMP INVALID LOG2 PUSH5 0x6970667358 0x22 SLT KECCAK256 PUSH5 0x5CF09DE4AA 0xD9 0xD0 0xD2 0x2C DUP9 PUSH31 0x2E14F5E11AC4D90DE79E5FAD8D0CA4999E27009464736F6C63430008170033 "
				},
				"gasEstimates": {
					"creation": {
						"codeDepositCost": "965600",
						"executionCost": "1001",
						"totalCost": "966601"
					},
					"external": {
						"PoolRate()": "infinite",
						"addPoolFeed(address)": "24722"
					},
					"internal": {
						"calculatePoolRate(uint256,uint256,string memory,uint256,uint256,string memory)": "infinite"
					}
				},
				"methodIdentifiers": {
					"PoolRate()": "454d1256",
					"addPoolFeed(address)": "cd5ea1c6"
				}
			},
			"storageLayout": {
				"storage": [
					{
						"astId": 35,
						"contract": "ptrn_eco_system_dev_contracts/V1_poolPriceFeed.sol:RateFromPool",
						"label": "poolConsumer",
						"offset": 0,
						"slot": "0",
						"type": "t_contract(PoolInterface)21"
					},
					{
						"astId": 38,
						"contract": "ptrn_eco_system_dev_contracts/V1_poolPriceFeed.sol:RateFromPool",
						"label": "decimalsConsumerOne",
						"offset": 0,
						"slot": "1",
						"type": "t_contract(DecimalsInterface)32"
					},
					{
						"astId": 41,
						"contract": "ptrn_eco_system_dev_contracts/V1_poolPriceFeed.sol:RateFromPool",
						"label": "decimalsConsumerTwo",
						"offset": 0,
						"slot": "2",
						"type": "t_contract(DecimalsInterface)32"
					}
				],
				"types": {
					"t_contract(DecimalsInterface)32": {
						"encoding": "inplace",
						"label": "contract DecimalsInterface",
						"numberOfBytes": "20"
					},
					"t_contract(PoolInterface)21": {
						"encoding": "inplace",
						"label": "contract PoolInterface",
						"numberOfBytes": "20"
					}
				}
			},
			"userdoc": {
				"kind": "user",
				"methods": {},
				"version": 1
			}
		}
	}
}