{
	"data": {
		"bytecode": {
			"linkReferences": {},
			"object": "60a060405234801562000010575f80fd5b506040516200506838038062005068833981810160405281019062000036919062000218565b620000566200004a620000d860201b60201c565b620000df60201b60201c565b8073ffffffffffffffffffffffffffffffffffffffff1660808173ffffffffffffffffffffffffffffffffffffffff16815250505f6006819055503360085f6101000a81548173ffffffffffffffffffffffffffffffffffffffff021916908373ffffffffffffffffffffffffffffffffffffffff1602179055505062000248565b5f33905090565b5f805f9054906101000a900473ffffffffffffffffffffffffffffffffffffffff169050815f806101000a81548173ffffffffffffffffffffffffffffffffffffffff021916908373ffffffffffffffffffffffffffffffffffffffff1602179055508173ffffffffffffffffffffffffffffffffffffffff168173ffffffffffffffffffffffffffffffffffffffff167f8be0079c531659141344cd1fd0a4f28419497f9722a3daafe3b4186f6b6457e060405160405180910390a35050565b5f80fd5b5f73ffffffffffffffffffffffffffffffffffffffff82169050919050565b5f620001cf82620001a4565b9050919050565b5f620001e282620001c3565b9050919050565b620001f481620001d6565b8114620001ff575f80fd5b50565b5f815190506200021281620001e9565b92915050565b5f6020828403121562000230576200022f620001a0565b5b5f6200023f8482850162000202565b91505092915050565b608051614df96200026f5f395f818161122e01528181611a42015261288f0152614df95ff3fe608060405234801561000f575f80fd5b506004361061018c575f3560e01c80639011edb4116100dc578063c6c599c111610095578063d95660be1161006f578063d95660be1461044a578063f2fde38b14610468578063f61eb2d414610484578063fc0c546a146104a05761018c565b8063c6c599c1146103de578063c9e701ae1461040e578063ce845d1d1461042c5761018c565b80639011edb41461031e57806395d89b411461033a578063a99d38cb14610358578063b347f85914610376578063b70b64ec14610392578063c4be66a1146103ae5761018c565b8063530a60ef11610149578063715018a611610123578063715018a6146102aa57806381008568146102b45780638da5cb5b146102e45780638f26fb7f146103025761018c565b8063530a60ef1461025057806370c80f991461026e578063711ec9b51461028c5761018c565b80630d43848b14610190578063141a8dd8146101c057806319165587146101de5780632380996e146101fa578063313ce567146102165780633556597214610234575b5f80fd5b6101aa60048036038101906101a59190612f85565b6104be565b6040516101b79190612fbf565b60405180910390f35b6101c86105f5565b6040516101d59190612fbf565b60405180910390f35b6101f860048036038101906101f39190612f85565b61061a565b005b610214600480360381019061020f919061306e565b610b06565b005b61021e61122b565b60405161022b91906130f7565b60405180910390f35b61024e600480360381019061024991906131ba565b6112c1565b005b610258611484565b60405161026591906132ef565b60405180910390f35b610276611517565b60405161028391906130f7565b60405180910390f35b610294611520565b6040516102a191906132ef565b60405180910390f35b6102b26115ab565b005b6102ce60048036038101906102c99190612f85565b6115ee565b6040516102db919061345c565b60405180910390f35b6102ec61173a565b6040516102f99190612fbf565b60405180910390f35b61031c60048036038101906103179190612f85565b611761565b005b610338600480360381019061033391906134d1565b6117fa565b005b610342611a3e565b60405161034f91906135b8565b60405180910390f35b610360611ad5565b60405161036d91906130f7565b60405180910390f35b610390600480360381019061038b9190613602565b611b14565b005b6103ac60048036038101906103a79190612f85565b611dee565b005b6103c860048036038101906103c39190612f85565b6121a6565b6040516103d59190613755565b60405180910390f35b6103f860048036038101906103f39190612f85565b612395565b6040516104059190613784565b60405180910390f35b6104166123e7565b60405161042391906132ef565b60405180910390f35b610434612472565b60405161044191906130f7565b60405180910390f35b6104526124f7565b60405161045f91906130f7565b60405180910390f35b610482600480360381019061047d9190612f85565b6124fe565b005b61049e6004803603810190610499919061379d565b612580565b005b6104a861288c565b6040516104b59190613889565b60405180910390f35b5f6104c76128b3565b5f73ffffffffffffffffffffffffffffffffffffffff1660035f8473ffffffffffffffffffffffffffffffffffffffff1673ffffffffffffffffffffffffffffffffffffffff1681526020019081526020015f205f9054906101000a900473ffffffffffffffffffffffffffffffffffffffff1673ffffffffffffffffffffffffffffffffffffffff1603610591576040517f08c379a0000000000000000000000000000000000000000000000000000000008152600401610588906138ec565b60405180910390fd5b60035f8373ffffffffffffffffffffffffffffffffffffffff1673ffffffffffffffffffffffffffffffffffffffff1681526020019081526020015f205f9054906101000a900473ffffffffffffffffffffffffffffffffffffffff169050919050565b60085f9054906101000a900473ffffffffffffffffffffffffffffffffffffffff1681565b61062261173a565b73ffffffffffffffffffffffffffffffffffffffff163373ffffffffffffffffffffffffffffffffffffffff16148061068657508073ffffffffffffffffffffffffffffffffffffffff163373ffffffffffffffffffffffffffffffffffffffff16145b6106c5576040517f08c379a00000000000000000000000000000000000000000000000000000000081526004016106bc9061397a565b60405180910390fd5b5f60015f8373ffffffffffffffffffffffffffffffffffffffff1673ffffffffffffffffffffffffffffffffffffffff1681526020019081526020015f208054905011610747576040517f08c379a000000000000000000000000000000000000000000000000000000000815260040161073e906139e2565b60405180910390fd5b5f80600190505f600190505f5b60015f8673ffffffffffffffffffffffffffffffffffffffff1673ffffffffffffffffffffffffffffffffffffffff1681526020019081526020015f2080549050811015610abd578160015f8773ffffffffffffffffffffffffffffffffffffffff1673ffffffffffffffffffffffffffffffffffffffff1681526020019081526020015f2082815481106107ec576107eb613a00565b5b905f5260205f20906004020160026004811061080b5761080a613a00565b5b01540315610ab0578260015f8773ffffffffffffffffffffffffffffffffffffffff1673ffffffffffffffffffffffffffffffffffffffff1681526020019081526020015f20828154811061086357610862613a00565b5b905f5260205f20906004020160036004811061088257610881613a00565b5b015403610abd576108916124f7565b60015f8773ffffffffffffffffffffffffffffffffffffffff1673ffffffffffffffffffffffffffffffffffffffff1681526020019081526020015f2082815481106108e0576108df613a00565b5b905f5260205f2090600402016001600481106108ff576108fe613a00565b5b01541015610abd578160015f8773ffffffffffffffffffffffffffffffffffffffff1673ffffffffffffffffffffffffffffffffffffffff1681526020019081526020015f20828154811061095757610956613a00565b5b905f5260205f20906004020160026004811061097657610975613a00565b5b018190555060015f8673ffffffffffffffffffffffffffffffffffffffff1673ffffffffffffffffffffffffffffffffffffffff1681526020019081526020015f2081815481106109ca576109c9613a00565b5b905f5260205f2090600402015f600481106109e8576109e7613a00565b5b015460065f8282546109fa9190613a5a565b92505081905550610aa18560015f8873ffffffffffffffffffffffffffffffffffffffff1673ffffffffffffffffffffffffffffffffffffffff1681526020019081526020015f208381548110610a5457610a53613a00565b5b905f5260205f2090600402015f60048110610a7257610a71613a00565b5b0154610a7c61288c565b73ffffffffffffffffffffffffffffffffffffffff166129319092919063ffffffff16565b8380610aac90613a8d565b9450505b8080600101915050610754565b505f8303610b00576040517f08c379a0000000000000000000000000000000000000000000000000000000008152600401610af790613b90565b60405180910390fd5b50505050565b610b0e6128b3565b5f60015f8673ffffffffffffffffffffffffffffffffffffffff1673ffffffffffffffffffffffffffffffffffffffff1681526020019081526020015f208054905011610b90576040517f08c379a0000000000000000000000000000000000000000000000000000000008152600401610b87906139e2565b60405180910390fd5b5f805f90505f60015f8873ffffffffffffffffffffffffffffffffffffffff1673ffffffffffffffffffffffffffffffffffffffff1681526020019081526020015f208054905090505b5f811115610f5157600181610bef9190613a5a565b9250838015610c6c57505f60015f8973ffffffffffffffffffffffffffffffffffffffff1673ffffffffffffffffffffffffffffffffffffffff1681526020019081526020015f208481548110610c4957610c48613a00565b5b905f5260205f209060040201600360048110610c6857610c67613a00565b5b0154145b15610d2d578180610c7c90613a8d565b92505060015f8873ffffffffffffffffffffffffffffffffffffffff1673ffffffffffffffffffffffffffffffffffffffff1681526020019081526020015f208381548110610cce57610ccd613a00565b5b905f5260205f2090600402015f60048110610cec57610ceb613a00565b5b015460065f828254610cfe9190613a5a565b925050819055508585604051602001610d18929190613c10565b60405160208183030381529060405250610f3e565b60015f8873ffffffffffffffffffffffffffffffffffffffff1673ffffffffffffffffffffffffffffffffffffffff1681526020019081526020015f208381548110610d7c57610d7b613a00565b5b905f5260205f209060040201600160048110610d9b57610d9a613a00565b5b0154610da56124f7565b108015610e2057505f60015f8973ffffffffffffffffffffffffffffffffffffffff1673ffffffffffffffffffffffffffffffffffffffff1681526020019081526020015f208481548110610dfd57610dfc613a00565b5b905f5260205f209060040201600260048110610e1c57610e1b613a00565b5b0154145b8015610e9a57505f60015f8973ffffffffffffffffffffffffffffffffffffffff1673ffffffffffffffffffffffffffffffffffffffff1681526020019081526020015f208481548110610e7757610e76613a00565b5b905f5260205f209060040201600360048110610e9657610e95613a00565b5b0154145b15610f38578180610eaa90613a8d565b92505060015f8873ffffffffffffffffffffffffffffffffffffffff1673ffffffffffffffffffffffffffffffffffffffff1681526020019081526020015f208381548110610efc57610efb613a00565b5b905f5260205f2090600402015f60048110610f1a57610f19613a00565b5b015460065f828254610f2c9190613a5a565b92505081905550610f3d565b610f51565b5b8080610f4990613c37565b915050610bda565b505f8103610f94576040517f08c379a0000000000000000000000000000000000000000000000000000000008152600401610f8b90613ca8565b60405180910390fd5b60025f8773ffffffffffffffffffffffffffffffffffffffff1673ffffffffffffffffffffffffffffffffffffffff1681526020019081526020015f20858590918060018154018082558091505060019003905f5260205f20015f909192909192909192909192509182611009929190613eee565b50600586908060018154018082558091505060019003905f5260205f20015f9091909190916101000a81548173ffffffffffffffffffffffffffffffffffffffff021916908373ffffffffffffffffffffffffffffffffffffffff1602179055505b5f8111156110f25760015f8773ffffffffffffffffffffffffffffffffffffffff1673ffffffffffffffffffffffffffffffffffffffff1681526020019081526020015f208054806110c0576110bf613fbb565b5b600190038181905f5260205f2090600402015f6110dd9190612e07565b905580806110ea90613c37565b91505061106b565b5f60015f8873ffffffffffffffffffffffffffffffffffffffff1673ffffffffffffffffffffffffffffffffffffffff1681526020019081526020015f2080549050036112235760015f8773ffffffffffffffffffffffffffffffffffffffff1673ffffffffffffffffffffffffffffffffffffffff1681526020019081526020015f205f6111819190612e1f565b5f805f90505b60078054905081101561121757600781815481106111a8576111a7613a00565b5b905f5260205f20015f9054906101000a900473ffffffffffffffffffffffffffffffffffffffff1673ffffffffffffffffffffffffffffffffffffffff168873ffffffffffffffffffffffffffffffffffffffff160361120a57809150611217565b8080600101915050611187565b50611221816129b7565b505b505050505050565b5f7f000000000000000000000000000000000000000000000000000000000000000073ffffffffffffffffffffffffffffffffffffffff1663313ce5676040518163ffffffff1660e01b8152600401602060405180830381865afa158015611295573d5f803e3d5ffd5b505050506040513d601f19601f820116820180604052508101906112b9919061401e565b60ff16905090565b60085f9054906101000a900473ffffffffffffffffffffffffffffffffffffffff1673ffffffffffffffffffffffffffffffffffffffff163373ffffffffffffffffffffffffffffffffffffffff1614611319575f80fd5b5f848490501161135e576040517f08c379a0000000000000000000000000000000000000000000000000000000008152600401611355906140b9565b60405180910390fd5b8383905082829050146113a6576040517f08c379a000000000000000000000000000000000000000000000000000000000815260040161139d90614147565b60405180910390fd5b5f5b8484905081101561147d575f8383838181106113c7576113c6613a00565b5b90506020028101906113d99190614171565b90501161141b576040517f08c379a000000000000000000000000000000000000000000000000000000000815260040161141290614243565b60405180910390fd5b61147085858381811061143157611430613a00565b5b90506020020160208101906114469190612f85565b84848481811061145957611458613a00565b5b905060200281019061146b9190614171565b6117fa565b80806001019150506113a8565b5050505050565b606061148e6128b3565b600480548060200260200160405190810160405280929190818152602001828054801561150d57602002820191905f5260205f20905b815f9054906101000a900473ffffffffffffffffffffffffffffffffffffffff1673ffffffffffffffffffffffffffffffffffffffff16815260200190600101908083116114c4575b5050505050905090565b5f600654905090565b606060078054806020026020016040519081016040528092919081815260200182805480156115a157602002820191905f5260205f20905b815f9054906101000a900473ffffffffffffffffffffffffffffffffffffffff1673ffffffffffffffffffffffffffffffffffffffff1681526020019060010190808311611558575b5050505050905090565b6115b36128b3565b6040517f08c379a00000000000000000000000000000000000000000000000000000000081526004016115e5906142d1565b60405180910390fd5b60605f60015f8473ffffffffffffffffffffffffffffffffffffffff1673ffffffffffffffffffffffffffffffffffffffff1681526020019081526020015f208054905011611672576040517f08c379a0000000000000000000000000000000000000000000000000000000008152600401611669906139e2565b60405180910390fd5b60015f8373ffffffffffffffffffffffffffffffffffffffff1673ffffffffffffffffffffffffffffffffffffffff1681526020019081526020015f20805480602002602001604051908101604052809291908181526020015f905b8282101561172f578382905f5260205f20906004020160048060200260405190810160405280929190826004801561171b576020028201915b815481526020019060010190808311611707575b5050505050815260200190600101906116ce565b505050509050919050565b5f805f9054906101000a900473ffffffffffffffffffffffffffffffffffffffff16905090565b6117696128b3565b611771611517565b611779612472565b116117b9576040517f08c379a00000000000000000000000000000000000000000000000000000000081526004016117b090614339565b60405180910390fd5b5f6117c2611ad5565b90506117f682826117d161288c565b73ffffffffffffffffffffffffffffffffffffffff166129319092919063ffffffff16565b5050565b60085f9054906101000a900473ffffffffffffffffffffffffffffffffffffffff1673ffffffffffffffffffffffffffffffffffffffff163373ffffffffffffffffffffffffffffffffffffffff1614611889576040517f08c379a0000000000000000000000000000000000000000000000000000000008152600401611880906143c7565b60405180910390fd5b5f60015f8573ffffffffffffffffffffffffffffffffffffffff1673ffffffffffffffffffffffffffffffffffffffff1681526020019081526020015f20805490501161190b576040517f08c379a0000000000000000000000000000000000000000000000000000000008152600401611902906139e2565b60405180910390fd5b8181905060015f8573ffffffffffffffffffffffffffffffffffffffff1673ffffffffffffffffffffffffffffffffffffffff1681526020019081526020015f20805490501115611991576040517f08c379a00000000000000000000000000000000000000000000000000000000081526004016119889061442f565b60405180910390fd5b5f5b82829050811015611a38576001805f8673ffffffffffffffffffffffffffffffffffffffff1673ffffffffffffffffffffffffffffffffffffffff1681526020019081526020015f208484848181106119ef576119ee613a00565b5b9050602002013581548110611a0757611a06613a00565b5b905f5260205f209060040201600360048110611a2657611a25613a00565b5b01819055508080600101915050611993565b50505050565b60607f000000000000000000000000000000000000000000000000000000000000000073ffffffffffffffffffffffffffffffffffffffff166395d89b416040518163ffffffff1660e01b81526004015f60405180830381865afa158015611aa8573d5f803e3d5ffd5b505050506040513d5f823e3d601f19601f82011682018060405250810190611ad0919061453a565b905090565b5f611ade611517565b611ae6612472565b1015611af0575f80fd5b5f611af9611517565b611b01612472565b611b0b9190613a5a565b90508091505090565b611b1c6128b3565b5f60015f8573ffffffffffffffffffffffffffffffffffffffff1673ffffffffffffffffffffffffffffffffffffffff1681526020019081526020015f208054905011611b9e576040517f08c379a0000000000000000000000000000000000000000000000000000000008152600401611b95906139e2565b60405180910390fd5b611ba6612472565b60065483611bb49190614581565b1115611bf5576040517f08c379a0000000000000000000000000000000000000000000000000000000008152600401611bec90614624565b60405180910390fd5b8060015f8573ffffffffffffffffffffffffffffffffffffffff1673ffffffffffffffffffffffffffffffffffffffff1681526020019081526020015f206001805f8773ffffffffffffffffffffffffffffffffffffffff1673ffffffffffffffffffffffffffffffffffffffff1681526020019081526020015f2080549050611c7f9190613a5a565b81548110611c9057611c8f613a00565b5b905f5260205f209060040201600160048110611caf57611cae613a00565b5b015410611cf1576040517f08c379a0000000000000000000000000000000000000000000000000000000008152600401611ce8906146d8565b60405180910390fd5b80611cfa6124f7565b10611d3a576040517f08c379a0000000000000000000000000000000000000000000000000000000008152600401611d3190614766565b60405180910390fd5b5f808360065f828254611d4d9190614581565b9250508190555060015f8673ffffffffffffffffffffffffffffffffffffffff1673ffffffffffffffffffffffffffffffffffffffff1681526020019081526020015f20604051806080016040528086815260200185815260200184815260200183815250908060018154018082558091505060019003905f5260205f2090600402015f90919091909150906004611de6929190612e40565b505050505050565b5f60015f3373ffffffffffffffffffffffffffffffffffffffff1673ffffffffffffffffffffffffffffffffffffffff1681526020019081526020015f208054905011611e70576040517f08c379a0000000000000000000000000000000000000000000000000000000008152600401611e67906147f4565b60405180910390fd5b606060015f3373ffffffffffffffffffffffffffffffffffffffff1673ffffffffffffffffffffffffffffffffffffffff1681526020019081526020015f20805480602002602001604051908101604052809291908181526020015f905b82821015611f2f578382905f5260205f209060040201600480602002604051908101604052809291908260048015611f1b576020028201915b815481526020019060010190808311611f07575b505050505081526020019060010190611ece565b50505050905060015f3373ffffffffffffffffffffffffffffffffffffffff1673ffffffffffffffffffffffffffffffffffffffff1681526020019081526020015f205f611f7d9190612e1f565b8060015f8473ffffffffffffffffffffffffffffffffffffffff1673ffffffffffffffffffffffffffffffffffffffff1681526020019081526020015f209080519060200190611fce929190612e80565b505f805f90505b60078054905081101561206b575f33905060078281548110611ffa57611ff9613a00565b5b905f5260205f20015f9054906101000a900473ffffffffffffffffffffffffffffffffffffffff1673ffffffffffffffffffffffffffffffffffffffff168173ffffffffffffffffffffffffffffffffffffffff160361205d578192505061206b565b508080600101915050611fd5565b50826007828154811061208157612080613a00565b5b905f5260205f20015f6101000a81548173ffffffffffffffffffffffffffffffffffffffff021916908373ffffffffffffffffffffffffffffffffffffffff160217905550600433908060018154018082558091505060019003905f5260205f20015f9091909190916101000a81548173ffffffffffffffffffffffffffffffffffffffff021916908373ffffffffffffffffffffffffffffffffffffffff1602179055508260035f3373ffffffffffffffffffffffffffffffffffffffff1673ffffffffffffffffffffffffffffffffffffffff1681526020019081526020015f205f6101000a81548173ffffffffffffffffffffffffffffffffffffffff021916908373ffffffffffffffffffffffffffffffffffffffff160217905550505050565b60605f805b60058054905081101561224257600581815481106121cc576121cb613a00565b5b905f5260205f20015f9054906101000a900473ffffffffffffffffffffffffffffffffffffffff1673ffffffffffffffffffffffffffffffffffffffff168473ffffffffffffffffffffffffffffffffffffffff160361223557818061223190613a8d565b9250505b80806001019150506121ab565b505f8111612285576040517f08c379a000000000000000000000000000000000000000000000000000000000815260040161227c90614882565b60405180910390fd5b60025f8473ffffffffffffffffffffffffffffffffffffffff1673ffffffffffffffffffffffffffffffffffffffff1681526020019081526020015f20805480602002602001604051908101604052809291908181526020015f905b82821015612389578382905f5260205f200180546122fe90613d2a565b80601f016020809104026020016040519081016040528092919081815260200182805461232a90613d2a565b80156123755780601f1061234c57610100808354040283529160200191612375565b820191905f5260205f20905b81548152906001019060200180831161235857829003601f168201915b5050505050815260200190600101906122e1565b50505050915050919050565b5f61239e6128b3565b8160085f6101000a81548173ffffffffffffffffffffffffffffffffffffffff021916908373ffffffffffffffffffffffffffffffffffffffff16021790555060019050919050565b6060600580548060200260200160405190810160405280929190818152602001828054801561246857602002820191905f5260205f20905b815f9054906101000a900473ffffffffffffffffffffffffffffffffffffffff1673ffffffffffffffffffffffffffffffffffffffff168152602001906001019080831161241f575b5050505050905090565b5f61247b61288c565b73ffffffffffffffffffffffffffffffffffffffff166370a08231306040518263ffffffff1660e01b81526004016124b39190612fbf565b602060405180830381865afa1580156124ce573d5f803e3d5ffd5b505050506040513d601f19601f820116820180604052508101906124f291906148b4565b905090565b5f42905090565b6125066128b3565b5f73ffffffffffffffffffffffffffffffffffffffff168173ffffffffffffffffffffffffffffffffffffffff1603612574576040517f08c379a000000000000000000000000000000000000000000000000000000000815260040161256b9061494f565b60405180910390fd5b61257d81612acb565b50565b6125886128b3565b81819050848490501480156125a1575060018484905010155b6125e0576040517f08c379a00000000000000000000000000000000000000000000000000000000081526004016125d790614a03565b60405180910390fd5b5f60015f8773ffffffffffffffffffffffffffffffffffffffff1673ffffffffffffffffffffffffffffffffffffffff1681526020019081526020015f208054905014612662576040517f08c379a000000000000000000000000000000000000000000000000000000000815260040161265990614a6b565b60405180910390fd5b5f805f5b868690508110156128225784848281811061268457612683613a00565b5b905060200201356126936124f7565b106126d3576040517f08c379a00000000000000000000000000000000000000000000000000000000081526004016126ca90614766565b60405180910390fd5b8686828181106126e6576126e5613a00565b5b9050602002013560065f8282546126fd9190614581565b9250508190555061270c612472565b6006541115612750576040517f08c379a000000000000000000000000000000000000000000000000000000000815260040161274790614af9565b60405180910390fd5b60015f8973ffffffffffffffffffffffffffffffffffffffff1673ffffffffffffffffffffffffffffffffffffffff1681526020019081526020015f2060405180608001604052808989858181106127ab576127aa613a00565b5b9050602002013581526020018787858181106127ca576127c9613a00565b5b90506020020135815260200185815260200184815250908060018154018082558091505060019003905f5260205f2090600402015f90919091909150906004612814929190612e40565b508080600101915050612666565b50600787908060018154018082558091505060019003905f5260205f20015f9091909190916101000a81548173ffffffffffffffffffffffffffffffffffffffff021916908373ffffffffffffffffffffffffffffffffffffffff16021790555050505050505050565b5f7f0000000000000000000000000000000000000000000000000000000000000000905090565b6128bb612b8c565b73ffffffffffffffffffffffffffffffffffffffff166128d961173a565b73ffffffffffffffffffffffffffffffffffffffff161461292f576040517f08c379a000000000000000000000000000000000000000000000000000000000815260040161292690614b61565b60405180910390fd5b565b6129b28363a9059cbb60e01b8484604051602401612950929190614b7f565b604051602081830303815290604052907bffffffffffffffffffffffffffffffffffffffffffffffffffffffff19166020820180517bffffffffffffffffffffffffffffffffffffffffffffffffffffffff8381831617835250505050612b93565b505050565b5f8190505b60016007805490506129ce9190613a5a565b811015612a835760076001826129e49190614581565b815481106129f5576129f4613a00565b5b905f5260205f20015f9054906101000a900473ffffffffffffffffffffffffffffffffffffffff1660078281548110612a3157612a30613a00565b5b905f5260205f20015f6101000a81548173ffffffffffffffffffffffffffffffffffffffff021916908373ffffffffffffffffffffffffffffffffffffffff16021790555080806001019150506129bc565b506007805480612a9657612a95613fbb565b5b600190038181905f5260205f20015f6101000a81549073ffffffffffffffffffffffffffffffffffffffff0219169055905550565b5f805f9054906101000a900473ffffffffffffffffffffffffffffffffffffffff169050815f806101000a81548173ffffffffffffffffffffffffffffffffffffffff021916908373ffffffffffffffffffffffffffffffffffffffff1602179055508173ffffffffffffffffffffffffffffffffffffffff168173ffffffffffffffffffffffffffffffffffffffff167f8be0079c531659141344cd1fd0a4f28419497f9722a3daafe3b4186f6b6457e060405160405180910390a35050565b5f33905090565b5f612bf4826040518060400160405280602081526020017f5361666545524332303a206c6f772d6c6576656c2063616c6c206661696c65648152508573ffffffffffffffffffffffffffffffffffffffff16612c589092919063ffffffff16565b90505f81511115612c535780806020019051810190612c139190614bba565b612c52576040517f08c379a0000000000000000000000000000000000000000000000000000000008152600401612c4990614c55565b60405180910390fd5b5b505050565b6060612c6684845f85612c6f565b90509392505050565b606082471015612cb4576040517f08c379a0000000000000000000000000000000000000000000000000000000008152600401612cab90614ce3565b60405180910390fd5b612cbd85612d7f565b612cfc576040517f08c379a0000000000000000000000000000000000000000000000000000000008152600401612cf390614d4b565b60405180910390fd5b5f808673ffffffffffffffffffffffffffffffffffffffff168587604051612d249190614dad565b5f6040518083038185875af1925050503d805f8114612d5e576040519150601f19603f3d011682016040523d82523d5f602084013e612d63565b606091505b5091509150612d73828286612da1565b92505050949350505050565b5f808273ffffffffffffffffffffffffffffffffffffffff163b119050919050565b60608315612db157829050612e00565b5f83511115612dc35782518084602001fd5b816040517f08c379a0000000000000000000000000000000000000000000000000000000008152600401612df791906135b8565b60405180910390fd5b9392505050565b505f81556001015f81556001015f81556001015f9055565b5080545f8255600402905f5260205f2090810190612e3d9190612edc565b50565b8260048101928215612e6f579160200282015b82811115612e6e578251825591602001919060010190612e53565b5b509050612e7c9190612eff565b5090565b828054828255905f5260205f20906004028101928215612ecb579160200282015b82811115612eca57825182906004612eba929190612e40565b5091602001919060040190612ea1565b5b509050612ed89190612edc565b5090565b5b80821115612efb575f8181612ef29190612e07565b50600401612edd565b5090565b5b80821115612f16575f815f905550600101612f00565b5090565b5f604051905090565b5f80fd5b5f80fd5b5f73ffffffffffffffffffffffffffffffffffffffff82169050919050565b5f612f5482612f2b565b9050919050565b612f6481612f4a565b8114612f6e575f80fd5b50565b5f81359050612f7f81612f5b565b92915050565b5f60208284031215612f9a57612f99612f23565b5b5f612fa784828501612f71565b91505092915050565b612fb981612f4a565b82525050565b5f602082019050612fd25f830184612fb0565b92915050565b5f80fd5b5f80fd5b5f80fd5b5f8083601f840112612ff957612ff8612fd8565b5b8235905067ffffffffffffffff81111561301657613015612fdc565b5b60208301915083600182028301111561303257613031612fe0565b5b9250929050565b5f8115159050919050565b61304d81613039565b8114613057575f80fd5b50565b5f8135905061306881613044565b92915050565b5f805f806060858703121561308657613085612f23565b5b5f61309387828801612f71565b945050602085013567ffffffffffffffff8111156130b4576130b3612f27565b5b6130c087828801612fe4565b935093505060406130d38782880161305a565b91505092959194509250565b5f819050919050565b6130f1816130df565b82525050565b5f60208201905061310a5f8301846130e8565b92915050565b5f8083601f84011261312557613124612fd8565b5b8235905067ffffffffffffffff81111561314257613141612fdc565b5b60208301915083602082028301111561315e5761315d612fe0565b5b9250929050565b5f8083601f84011261317a57613179612fd8565b5b8235905067ffffffffffffffff81111561319757613196612fdc565b5b6020830191508360208202830111156131b3576131b2612fe0565b5b9250929050565b5f805f80604085870312156131d2576131d1612f23565b5b5f85013567ffffffffffffffff8111156131ef576131ee612f27565b5b6131fb87828801613110565b9450945050602085013567ffffffffffffffff81111561321e5761321d612f27565b5b61322a87828801613165565b925092505092959194509250565b5f81519050919050565b5f82825260208201905092915050565b5f819050602082019050919050565b61326a81612f4a565b82525050565b5f61327b8383613261565b60208301905092915050565b5f602082019050919050565b5f61329d82613238565b6132a78185613242565b93506132b283613252565b805f5b838110156132e25781516132c98882613270565b97506132d483613287565b9250506001810190506132b5565b5085935050505092915050565b5f6020820190508181035f8301526133078184613293565b905092915050565b5f81519050919050565b5f82825260208201905092915050565b5f819050602082019050919050565b5f60049050919050565b5f81905092915050565b5f819050919050565b61335e816130df565b82525050565b5f61336f8383613355565b60208301905092915050565b5f602082019050919050565b61339081613338565b61339a8184613342565b92506133a58261334c565b805f5b838110156133d55781516133bc8782613364565b96506133c78361337b565b9250506001810190506133a8565b505050505050565b5f6133e88383613387565b60808301905092915050565b5f602082019050919050565b5f61340a8261330f565b6134148185613319565b935061341f83613329565b805f5b8381101561344f57815161343688826133dd565b9750613441836133f4565b925050600181019050613422565b5085935050505092915050565b5f6020820190508181035f8301526134748184613400565b905092915050565b5f8083601f84011261349157613490612fd8565b5b8235905067ffffffffffffffff8111156134ae576134ad612fdc565b5b6020830191508360208202830111156134ca576134c9612fe0565b5b9250929050565b5f805f604084860312156134e8576134e7612f23565b5b5f6134f586828701612f71565b935050602084013567ffffffffffffffff81111561351657613515612f27565b5b6135228682870161347c565b92509250509250925092565b5f81519050919050565b5f82825260208201905092915050565b5f5b8381101561356557808201518184015260208101905061354a565b5f8484015250505050565b5f601f19601f8301169050919050565b5f61358a8261352e565b6135948185613538565b93506135a4818560208601613548565b6135ad81613570565b840191505092915050565b5f6020820190508181035f8301526135d08184613580565b905092915050565b6135e1816130df565b81146135eb575f80fd5b50565b5f813590506135fc816135d8565b92915050565b5f805f6060848603121561361957613618612f23565b5b5f61362686828701612f71565b9350506020613637868287016135ee565b9250506040613648868287016135ee565b9150509250925092565b5f81519050919050565b5f82825260208201905092915050565b5f819050602082019050919050565b5f82825260208201905092915050565b5f6136958261352e565b61369f818561367b565b93506136af818560208601613548565b6136b881613570565b840191505092915050565b5f6136ce838361368b565b905092915050565b5f602082019050919050565b5f6136ec82613652565b6136f6818561365c565b9350836020820285016137088561366c565b805f5b85811015613743578484038952815161372485826136c3565b945061372f836136d6565b925060208a0199505060018101905061370b565b50829750879550505050505092915050565b5f6020820190508181035f83015261376d81846136e2565b905092915050565b61377e81613039565b82525050565b5f6020820190506137975f830184613775565b92915050565b5f805f805f606086880312156137b6576137b5612f23565b5b5f6137c388828901612f71565b955050602086013567ffffffffffffffff8111156137e4576137e3612f27565b5b6137f08882890161347c565b9450945050604086013567ffffffffffffffff81111561381357613812612f27565b5b61381f8882890161347c565b92509250509295509295909350565b5f819050919050565b5f61385161384c61384784612f2b565b61382e565b612f2b565b9050919050565b5f61386282613837565b9050919050565b5f61387382613858565b9050919050565b61388381613869565b82525050565b5f60208201905061389c5f83018461387a565b92915050565b7f57616c6c657420686173206e65766572206368616e67656421000000000000005f82015250565b5f6138d6601983613538565b91506138e1826138a2565b602082019050919050565b5f6020820190508181035f830152613903816138ca565b9050919050565b7f57697468647261772063616e20626520646f6e65206f6e6c7920627920636f6e5f8201527f7472616374206f776e6572206f722062656e6566696369617279210000000000602082015250565b5f613964603b83613538565b915061396f8261390a565b604082019050919050565b5f6020820190508181035f83015261399181613958565b9050919050565b7f42656e6566696369617279206e6f74206578697374696e6721000000000000005f82015250565b5f6139cc601983613538565b91506139d782613998565b602082019050919050565b5f6020820190508181035f8301526139f9816139c0565b9050919050565b7f4e487b71000000000000000000000000000000000000000000000000000000005f52603260045260245ffd5b7f4e487b71000000000000000000000000000000000000000000000000000000005f52601160045260245ffd5b5f613a64826130df565b9150613a6f836130df565b9250828203905081811115613a8757613a86613a2d565b5b92915050565b5f613a97826130df565b91507fffffffffffffffffffffffffffffffffffffffffffffffffffffffffffffffff8203613ac957613ac8613a2d565b5b600182019050919050565b7f4e6f2072656c6561736564207061796d656e747320666f72207472616e7366655f8201527f722120506f737369626c6520726561736f6e733a207061796d656e742f73206e60208201527f6f7420617070726f7665642c2072656c65617365206265666f7265206475652060408201527f646174652c206e6f206578697374696e67207061796d656e74732e0000000000606082015250565b5f613b7a607b83613538565b9150613b8582613ad4565b608082019050919050565b5f6020820190508181035f830152613ba781613b6e565b9050919050565b7f466f7263652064656c657465642064756520746f3a2000000000000000000000815250565b5f81905092915050565b828183375f83830152505050565b5f613bf78385613bd4565b9350613c04838584613bde565b82840190509392505050565b5f613c1a82613bae565b601682019150613c2b828486613bec565b91508190509392505050565b5f613c41826130df565b91505f8203613c5357613c52613a2d565b5b600182039050919050565b7f4e6f207061796d656e747320746f2063616e63656c21000000000000000000005f82015250565b5f613c92601683613538565b9150613c9d82613c5e565b602082019050919050565b5f6020820190508181035f830152613cbf81613c86565b9050919050565b5f82905092915050565b7f4e487b71000000000000000000000000000000000000000000000000000000005f52604160045260245ffd5b7f4e487b71000000000000000000000000000000000000000000000000000000005f52602260045260245ffd5b5f6002820490506001821680613d4157607f821691505b602082108103613d5457613d53613cfd565b5b50919050565b5f819050815f5260205f209050919050565b5f6020601f8301049050919050565b5f82821b905092915050565b5f60088302613db67fffffffffffffffffffffffffffffffffffffffffffffffffffffffffffffffff82613d7b565b613dc08683613d7b565b95508019841693508086168417925050509392505050565b5f613df2613ded613de8846130df565b61382e565b6130df565b9050919050565b5f819050919050565b613e0b83613dd8565b613e1f613e1782613df9565b848454613d87565b825550505050565b5f90565b613e33613e27565b613e3e818484613e02565b505050565b5b81811015613e6157613e565f82613e2b565b600181019050613e44565b5050565b601f821115613ea657613e7781613d5a565b613e8084613d6c565b81016020851015613e8f578190505b613ea3613e9b85613d6c565b830182613e43565b50505b505050565b5f82821c905092915050565b5f613ec65f1984600802613eab565b1980831691505092915050565b5f613ede8383613eb7565b9150826002028217905092915050565b613ef88383613cc6565b67ffffffffffffffff811115613f1157613f10613cd0565b5b613f1b8254613d2a565b613f26828285613e65565b5f601f831160018114613f53575f8415613f41578287013590505b613f4b8582613ed3565b865550613fb2565b601f198416613f6186613d5a565b5f5b82811015613f8857848901358255600182019150602085019450602081019050613f63565b86831015613fa55784890135613fa1601f891682613eb7565b8355505b6001600288020188555050505b50505050505050565b7f4e487b71000000000000000000000000000000000000000000000000000000005f52603160045260245ffd5b5f60ff82169050919050565b613ffd81613fe8565b8114614007575f80fd5b50565b5f8151905061401881613ff4565b92915050565b5f6020828403121561403357614032612f23565b5b5f6140408482850161400a565b91505092915050565b7f4c697374206f662062656e6566696369617269657320697320726571756972655f8201527f6400000000000000000000000000000000000000000000000000000000000000602082015250565b5f6140a3602183613538565b91506140ae82614049565b604082019050919050565b5f6020820190508181035f8301526140d081614097565b9050919050565b7f496e646578657320666f72207061796d656e7473207065722062656e656669635f8201527f69617279206d7573742062652070726f76696465642100000000000000000000602082015250565b5f614131603683613538565b915061413c826140d7565b604082019050919050565b5f6020820190508181035f83015261415e81614125565b9050919050565b5f80fd5b5f80fd5b5f80fd5b5f808335600160200384360303811261418d5761418c614165565b5b80840192508235915067ffffffffffffffff8211156141af576141ae614169565b5b6020830192506020820236038313156141cb576141ca61416d565b5b509250929050565b7f4c697374206f66207061796d656e7473207065722062656e65666963696172795f8201527f2063616e277420626520656d7074792100000000000000000000000000000000602082015250565b5f61422d603083613538565b9150614238826141d3565b604082019050919050565b5f6020820190508181035f83015261425a81614221565b9050919050565b7f5468697320636f6e747261637420646f65736e277420737570706f72742072655f8201527f6e6f756e63696e67206f66206f776e6572736869700000000000000000000000602082015250565b5f6142bb603583613538565b91506142c682614261565b604082019050919050565b5f6020820190508181035f8301526142e8816142af565b9050919050565b7f4e6f2065786365737320746f6b656e7320746f207472616e73666572210000005f82015250565b5f614323601d83613538565b915061432e826142ef565b602082019050919050565b5f6020820190508181035f83015261435081614317565b9050919050565b7f4f6e6c7920617070726f7665722063616e20617070726f7665207061796d6e655f8201527f7473210000000000000000000000000000000000000000000000000000000000602082015250565b5f6143b1602383613538565b91506143bc82614357565b604082019050919050565b5f6020820190508181035f8301526143de816143a5565b9050919050565b7f57726f6e67207061796d656e74206461746121000000000000000000000000005f82015250565b5f614419601383613538565b9150614424826143e5565b602082019050919050565b5f6020820190508181035f8301526144468161440d565b9050919050565b5f80fd5b61445a82613570565b810181811067ffffffffffffffff8211171561447957614478613cd0565b5b80604052505050565b5f61448b612f1a565b90506144978282614451565b919050565b5f67ffffffffffffffff8211156144b6576144b5613cd0565b5b6144bf82613570565b9050602081019050919050565b5f6144de6144d98461449c565b614482565b9050828152602081018484840111156144fa576144f961444d565b5b614505848285613548565b509392505050565b5f82601f83011261452157614520612fd8565b5b81516145318482602086016144cc565b91505092915050565b5f6020828403121561454f5761454e612f23565b5b5f82015167ffffffffffffffff81111561456c5761456b612f27565b5b6145788482850161450d565b91505092915050565b5f61458b826130df565b9150614596836130df565b92508282019050808211156145ae576145ad613a2d565b5b92915050565b7f496e73756666696369656e742062616c616e6365212043616e277420616464205f8201527f6e6577207061796d656e74732100000000000000000000000000000000000000602082015250565b5f61460e602d83613538565b9150614619826145b4565b604082019050919050565b5f6020820190508181035f83015261463b81614602565b9050919050565b7f4675747572652072656c6561736520646174652063616e2774206265206571755f8201527f616c206f72206c657373207468616e20746865206c61737420656e746572656460208201527f2100000000000000000000000000000000000000000000000000000000000000604082015250565b5f6146c2604183613538565b91506146cd82614642565b606082019050919050565b5f6020820190508181035f8301526146ef816146b6565b9050919050565b7f52656c6561736520646174652063616e277420626520657175616c206f72206c5f8201527f657373207468616e2063757272656e7420646174652100000000000000000000602082015250565b5f614750603683613538565b915061475b826146f6565b604082019050919050565b5f6020820190508181035f83015261477d81614744565b9050919050565b7f4f6e6c79206578697374696e672062656e65666963696172792063616e2063685f8201527f616e67652077616c6c6574206164647265737321000000000000000000000000602082015250565b5f6147de603483613538565b91506147e982614784565b604082019050919050565b5f6020820190508181035f83015261480b816147d2565b9050919050565b7f42656e656669636961727920646f6573206e6f7420686176652063616e63656c5f8201527f6564207061796d656e7473210000000000000000000000000000000000000000602082015250565b5f61486c602c83613538565b915061487782614812565b604082019050919050565b5f6020820190508181035f83015261489981614860565b9050919050565b5f815190506148ae816135d8565b92915050565b5f602082840312156148c9576148c8612f23565b5b5f6148d6848285016148a0565b91505092915050565b7f4f776e61626c653a206e6577206f776e657220697320746865207a65726f20615f8201527f6464726573730000000000000000000000000000000000000000000000000000602082015250565b5f614939602683613538565b9150614944826148df565b604082019050919050565b5f6020820190508181035f8301526149668161492d565b9050919050565b7f4461746120666f72206e6f7420636f7272656374212e20436f756e74206f66205f8201527f72656c6561736520646174657320616e6420616d6f756e7473206d757374206260208201527f6520657175616c21000000000000000000000000000000000000000000000000604082015250565b5f6149ed604883613538565b91506149f88261496d565b606082019050919050565b5f6020820190508181035f830152614a1a816149e1565b9050919050565b7f42656e656669636961727920616c7265616479206578697374696e67210000005f82015250565b5f614a55601d83613538565b9150614a6082614a21565b602082019050919050565b5f6020820190508181035f830152614a8281614a49565b9050919050565b7f496e73756666696369656e742062616c616e6365212043616e277420616464205f8201527f6e65772062656e65666963696172696573210000000000000000000000000000602082015250565b5f614ae3603283613538565b9150614aee82614a89565b604082019050919050565b5f6020820190508181035f830152614b1081614ad7565b9050919050565b7f4f776e61626c653a2063616c6c6572206973206e6f7420746865206f776e65725f82015250565b5f614b4b602083613538565b9150614b5682614b17565b602082019050919050565b5f6020820190508181035f830152614b7881614b3f565b9050919050565b5f604082019050614b925f830185612fb0565b614b9f60208301846130e8565b9392505050565b5f81519050614bb481613044565b92915050565b5f60208284031215614bcf57614bce612f23565b5b5f614bdc84828501614ba6565b91505092915050565b7f5361666545524332303a204552433230206f7065726174696f6e20646964206e5f8201527f6f74207375636365656400000000000000000000000000000000000000000000602082015250565b5f614c3f602a83613538565b9150614c4a82614be5565b604082019050919050565b5f6020820190508181035f830152614c6c81614c33565b9050919050565b7f416464726573733a20696e73756666696369656e742062616c616e636520666f5f8201527f722063616c6c0000000000000000000000000000000000000000000000000000602082015250565b5f614ccd602683613538565b9150614cd882614c73565b604082019050919050565b5f6020820190508181035f830152614cfa81614cc1565b9050919050565b7f416464726573733a2063616c6c20746f206e6f6e2d636f6e74726163740000005f82015250565b5f614d35601d83613538565b9150614d4082614d01565b602082019050919050565b5f6020820190508181035f830152614d6281614d29565b9050919050565b5f81519050919050565b5f81905092915050565b5f614d8782614d69565b614d918185614d73565b9350614da1818560208601613548565b80840191505092915050565b5f614db88284614d7d565b91508190509291505056fea2646970667358221220ad5367210a95e69f04c384d154f5a96c6d30254586bfe3c656d424f40659bbca64736f6c63430008170033",
			"opcodes": "PUSH1 0xA0 PUSH1 0x40 MSTORE CALLVALUE DUP1 ISZERO PUSH3 0x10 JUMPI PUSH0 DUP1 REVERT JUMPDEST POP PUSH1 0x40 MLOAD PUSH3 0x5068 CODESIZE SUB DUP1 PUSH3 0x5068 DUP4 CODECOPY DUP2 DUP2 ADD PUSH1 0x40 MSTORE DUP2 ADD SWAP1 PUSH3 0x36 SWAP2 SWAP1 PUSH3 0x218 JUMP JUMPDEST PUSH3 0x56 PUSH3 0x4A PUSH3 0xD8 PUSH1 0x20 SHL PUSH1 0x20 SHR JUMP JUMPDEST PUSH3 0xDF PUSH1 0x20 SHL PUSH1 0x20 SHR JUMP JUMPDEST DUP1 PUSH20 0xFFFFFFFFFFFFFFFFFFFFFFFFFFFFFFFFFFFFFFFF AND PUSH1 0x80 DUP2 PUSH20 0xFFFFFFFFFFFFFFFFFFFFFFFFFFFFFFFFFFFFFFFF AND DUP2 MSTORE POP POP PUSH0 PUSH1 0x6 DUP2 SWAP1 SSTORE POP CALLER PUSH1 0x8 PUSH0 PUSH2 0x100 EXP DUP2 SLOAD DUP2 PUSH20 0xFFFFFFFFFFFFFFFFFFFFFFFFFFFFFFFFFFFFFFFF MUL NOT AND SWAP1 DUP4 PUSH20 0xFFFFFFFFFFFFFFFFFFFFFFFFFFFFFFFFFFFFFFFF AND MUL OR SWAP1 SSTORE POP POP PUSH3 0x248 JUMP JUMPDEST PUSH0 CALLER SWAP1 POP SWAP1 JUMP JUMPDEST PUSH0 DUP1 PUSH0 SWAP1 SLOAD SWAP1 PUSH2 0x100 EXP SWAP1 DIV PUSH20 0xFFFFFFFFFFFFFFFFFFFFFFFFFFFFFFFFFFFFFFFF AND SWAP1 POP DUP2 PUSH0 DUP1 PUSH2 0x100 EXP DUP2 SLOAD DUP2 PUSH20 0xFFFFFFFFFFFFFFFFFFFFFFFFFFFFFFFFFFFFFFFF MUL NOT AND SWAP1 DUP4 PUSH20 0xFFFFFFFFFFFFFFFFFFFFFFFFFFFFFFFFFFFFFFFF AND MUL OR SWAP1 SSTORE POP DUP2 PUSH20 0xFFFFFFFFFFFFFFFFFFFFFFFFFFFFFFFFFFFFFFFF AND DUP2 PUSH20 0xFFFFFFFFFFFFFFFFFFFFFFFFFFFFFFFFFFFFFFFF AND PUSH32 0x8BE0079C531659141344CD1FD0A4F28419497F9722A3DAAFE3B4186F6B6457E0 PUSH1 0x40 MLOAD PUSH1 0x40 MLOAD DUP1 SWAP2 SUB SWAP1 LOG3 POP POP JUMP JUMPDEST PUSH0 DUP1 REVERT JUMPDEST PUSH0 PUSH20 0xFFFFFFFFFFFFFFFFFFFFFFFFFFFFFFFFFFFFFFFF DUP3 AND SWAP1 POP SWAP2 SWAP1 POP JUMP JUMPDEST PUSH0 PUSH3 0x1CF DUP3 PUSH3 0x1A4 JUMP JUMPDEST SWAP1 POP SWAP2 SWAP1 POP JUMP JUMPDEST PUSH0 PUSH3 0x1E2 DUP3 PUSH3 0x1C3 JUMP JUMPDEST SWAP1 POP SWAP2 SWAP1 POP JUMP JUMPDEST PUSH3 0x1F4 DUP2 PUSH3 0x1D6 JUMP JUMPDEST DUP2 EQ PUSH3 0x1FF JUMPI PUSH0 DUP1 REVERT JUMPDEST POP JUMP JUMPDEST PUSH0 DUP2 MLOAD SWAP1 POP PUSH3 0x212 DUP2 PUSH3 0x1E9 JUMP JUMPDEST SWAP3 SWAP2 POP POP JUMP JUMPDEST PUSH0 PUSH1 0x20 DUP3 DUP5 SUB SLT ISZERO PUSH3 0x230 JUMPI PUSH3 0x22F PUSH3 0x1A0 JUMP JUMPDEST JUMPDEST PUSH0 PUSH3 0x23F DUP5 DUP3 DUP6 ADD PUSH3 0x202 JUMP JUMPDEST SWAP2 POP POP SWAP3 SWAP2 POP POP JUMP JUMPDEST PUSH1 0x80 MLOAD PUSH2 0x4DF9 PUSH3 0x26F PUSH0 CODECOPY PUSH0 DUP2 DUP2 PUSH2 0x122E ADD MSTORE DUP2 DUP2 PUSH2 0x1A42 ADD MSTORE PUSH2 0x288F ADD MSTORE PUSH2 0x4DF9 PUSH0 RETURN INVALID PUSH1 0x80 PUSH1 0x40 MSTORE CALLVALUE DUP1 ISZERO PUSH2 0xF JUMPI PUSH0 DUP1 REVERT JUMPDEST POP PUSH1 0x4 CALLDATASIZE LT PUSH2 0x18C JUMPI PUSH0 CALLDATALOAD PUSH1 0xE0 SHR DUP1 PUSH4 0x9011EDB4 GT PUSH2 0xDC JUMPI DUP1 PUSH4 0xC6C599C1 GT PUSH2 0x95 JUMPI DUP1 PUSH4 0xD95660BE GT PUSH2 0x6F JUMPI DUP1 PUSH4 0xD95660BE EQ PUSH2 0x44A JUMPI DUP1 PUSH4 0xF2FDE38B EQ PUSH2 0x468 JUMPI DUP1 PUSH4 0xF61EB2D4 EQ PUSH2 0x484 JUMPI DUP1 PUSH4 0xFC0C546A EQ PUSH2 0x4A0 JUMPI PUSH2 0x18C JUMP JUMPDEST DUP1 PUSH4 0xC6C599C1 EQ PUSH2 0x3DE JUMPI DUP1 PUSH4 0xC9E701AE EQ PUSH2 0x40E JUMPI DUP1 PUSH4 0xCE845D1D EQ PUSH2 0x42C JUMPI PUSH2 0x18C JUMP JUMPDEST DUP1 PUSH4 0x9011EDB4 EQ PUSH2 0x31E JUMPI DUP1 PUSH4 0x95D89B41 EQ PUSH2 0x33A JUMPI DUP1 PUSH4 0xA99D38CB EQ PUSH2 0x358 JUMPI DUP1 PUSH4 0xB347F859 EQ PUSH2 0x376 JUMPI DUP1 PUSH4 0xB70B64EC EQ PUSH2 0x392 JUMPI DUP1 PUSH4 0xC4BE66A1 EQ PUSH2 0x3AE JUMPI PUSH2 0x18C JUMP JUMPDEST DUP1 PUSH4 0x530A60EF GT PUSH2 0x149 JUMPI DUP1 PUSH4 0x715018A6 GT PUSH2 0x123 JUMPI DUP1 PUSH4 0x715018A6 EQ PUSH2 0x2AA JUMPI DUP1 PUSH4 0x81008568 EQ PUSH2 0x2B4 JUMPI DUP1 PUSH4 0x8DA5CB5B EQ PUSH2 0x2E4 JUMPI DUP1 PUSH4 0x8F26FB7F EQ PUSH2 0x302 JUMPI PUSH2 0x18C JUMP JUMPDEST DUP1 PUSH4 0x530A60EF EQ PUSH2 0x250 JUMPI DUP1 PUSH4 0x70C80F99 EQ PUSH2 0x26E JUMPI DUP1 PUSH4 0x711EC9B5 EQ PUSH2 0x28C JUMPI PUSH2 0x18C JUMP JUMPDEST DUP1 PUSH4 0xD43848B EQ PUSH2 0x190 JUMPI DUP1 PUSH4 0x141A8DD8 EQ PUSH2 0x1C0 JUMPI DUP1 PUSH4 0x19165587 EQ PUSH2 0x1DE JUMPI DUP1 PUSH4 0x2380996E EQ PUSH2 0x1FA JUMPI DUP1 PUSH4 0x313CE567 EQ PUSH2 0x216 JUMPI DUP1 PUSH4 0x35565972 EQ PUSH2 0x234 JUMPI JUMPDEST PUSH0 DUP1 REVERT JUMPDEST PUSH2 0x1AA PUSH1 0x4 DUP1 CALLDATASIZE SUB DUP2 ADD SWAP1 PUSH2 0x1A5 SWAP2 SWAP1 PUSH2 0x2F85 JUMP JUMPDEST PUSH2 0x4BE JUMP JUMPDEST PUSH1 0x40 MLOAD PUSH2 0x1B7 SWAP2 SWAP1 PUSH2 0x2FBF JUMP JUMPDEST PUSH1 0x40 MLOAD DUP1 SWAP2 SUB SWAP1 RETURN JUMPDEST PUSH2 0x1C8 PUSH2 0x5F5 JUMP JUMPDEST PUSH1 0x40 MLOAD PUSH2 0x1D5 SWAP2 SWAP1 PUSH2 0x2FBF JUMP JUMPDEST PUSH1 0x40 MLOAD DUP1 SWAP2 SUB SWAP1 RETURN JUMPDEST PUSH2 0x1F8 PUSH1 0x4 DUP1 CALLDATASIZE SUB DUP2 ADD SWAP1 PUSH2 0x1F3 SWAP2 SWAP1 PUSH2 0x2F85 JUMP JUMPDEST PUSH2 0x61A JUMP JUMPDEST STOP JUMPDEST PUSH2 0x214 PUSH1 0x4 DUP1 CALLDATASIZE SUB DUP2 ADD SWAP1 PUSH2 0x20F SWAP2 SWAP1 PUSH2 0x306E JUMP JUMPDEST PUSH2 0xB06 JUMP JUMPDEST STOP JUMPDEST PUSH2 0x21E PUSH2 0x122B JUMP JUMPDEST PUSH1 0x40 MLOAD PUSH2 0x22B SWAP2 SWAP1 PUSH2 0x30F7 JUMP JUMPDEST PUSH1 0x40 MLOAD DUP1 SWAP2 SUB SWAP1 RETURN JUMPDEST PUSH2 0x24E PUSH1 0x4 DUP1 CALLDATASIZE SUB DUP2 ADD SWAP1 PUSH2 0x249 SWAP2 SWAP1 PUSH2 0x31BA JUMP JUMPDEST PUSH2 0x12C1 JUMP JUMPDEST STOP JUMPDEST PUSH2 0x258 PUSH2 0x1484 JUMP JUMPDEST PUSH1 0x40 MLOAD PUSH2 0x265 SWAP2 SWAP1 PUSH2 0x32EF JUMP JUMPDEST PUSH1 0x40 MLOAD DUP1 SWAP2 SUB SWAP1 RETURN JUMPDEST PUSH2 0x276 PUSH2 0x1517 JUMP JUMPDEST PUSH1 0x40 MLOAD PUSH2 0x283 SWAP2 SWAP1 PUSH2 0x30F7 JUMP JUMPDEST PUSH1 0x40 MLOAD DUP1 SWAP2 SUB SWAP1 RETURN JUMPDEST PUSH2 0x294 PUSH2 0x1520 JUMP JUMPDEST PUSH1 0x40 MLOAD PUSH2 0x2A1 SWAP2 SWAP1 PUSH2 0x32EF JUMP JUMPDEST PUSH1 0x40 MLOAD DUP1 SWAP2 SUB SWAP1 RETURN JUMPDEST PUSH2 0x2B2 PUSH2 0x15AB JUMP JUMPDEST STOP JUMPDEST PUSH2 0x2CE PUSH1 0x4 DUP1 CALLDATASIZE SUB DUP2 ADD SWAP1 PUSH2 0x2C9 SWAP2 SWAP1 PUSH2 0x2F85 JUMP JUMPDEST PUSH2 0x15EE JUMP JUMPDEST PUSH1 0x40 MLOAD PUSH2 0x2DB SWAP2 SWAP1 PUSH2 0x345C JUMP JUMPDEST PUSH1 0x40 MLOAD DUP1 SWAP2 SUB SWAP1 RETURN JUMPDEST PUSH2 0x2EC PUSH2 0x173A JUMP JUMPDEST PUSH1 0x40 MLOAD PUSH2 0x2F9 SWAP2 SWAP1 PUSH2 0x2FBF JUMP JUMPDEST PUSH1 0x40 MLOAD DUP1 SWAP2 SUB SWAP1 RETURN JUMPDEST PUSH2 0x31C PUSH1 0x4 DUP1 CALLDATASIZE SUB DUP2 ADD SWAP1 PUSH2 0x317 SWAP2 SWAP1 PUSH2 0x2F85 JUMP JUMPDEST PUSH2 0x1761 JUMP JUMPDEST STOP JUMPDEST PUSH2 0x338 PUSH1 0x4 DUP1 CALLDATASIZE SUB DUP2 ADD SWAP1 PUSH2 0x333 SWAP2 SWAP1 PUSH2 0x34D1 JUMP JUMPDEST PUSH2 0x17FA JUMP JUMPDEST STOP JUMPDEST PUSH2 0x342 PUSH2 0x1A3E JUMP JUMPDEST PUSH1 0x40 MLOAD PUSH2 0x34F SWAP2 SWAP1 PUSH2 0x35B8 JUMP JUMPDEST PUSH1 0x40 MLOAD DUP1 SWAP2 SUB SWAP1 RETURN JUMPDEST PUSH2 0x360 PUSH2 0x1AD5 JUMP JUMPDEST PUSH1 0x40 MLOAD PUSH2 0x36D SWAP2 SWAP1 PUSH2 0x30F7 JUMP JUMPDEST PUSH1 0x40 MLOAD DUP1 SWAP2 SUB SWAP1 RETURN JUMPDEST PUSH2 0x390 PUSH1 0x4 DUP1 CALLDATASIZE SUB DUP2 ADD SWAP1 PUSH2 0x38B SWAP2 SWAP1 PUSH2 0x3602 JUMP JUMPDEST PUSH2 0x1B14 JUMP JUMPDEST STOP JUMPDEST PUSH2 0x3AC PUSH1 0x4 DUP1 CALLDATASIZE SUB DUP2 ADD SWAP1 PUSH2 0x3A7 SWAP2 SWAP1 PUSH2 0x2F85 JUMP JUMPDEST PUSH2 0x1DEE JUMP JUMPDEST STOP JUMPDEST PUSH2 0x3C8 PUSH1 0x4 DUP1 CALLDATASIZE SUB DUP2 ADD SWAP1 PUSH2 0x3C3 SWAP2 SWAP1 PUSH2 0x2F85 JUMP JUMPDEST PUSH2 0x21A6 JUMP JUMPDEST PUSH1 0x40 MLOAD PUSH2 0x3D5 SWAP2 SWAP1 PUSH2 0x3755 JUMP JUMPDEST PUSH1 0x40 MLOAD DUP1 SWAP2 SUB SWAP1 RETURN JUMPDEST PUSH2 0x3F8 PUSH1 0x4 DUP1 CALLDATASIZE SUB DUP2 ADD SWAP1 PUSH2 0x3F3 SWAP2 SWAP1 PUSH2 0x2F85 JUMP JUMPDEST PUSH2 0x2395 JUMP JUMPDEST PUSH1 0x40 MLOAD PUSH2 0x405 SWAP2 SWAP1 PUSH2 0x3784 JUMP JUMPDEST PUSH1 0x40 MLOAD DUP1 SWAP2 SUB SWAP1 RETURN JUMPDEST PUSH2 0x416 PUSH2 0x23E7 JUMP JUMPDEST PUSH1 0x40 MLOAD PUSH2 0x423 SWAP2 SWAP1 PUSH2 0x32EF JUMP JUMPDEST PUSH1 0x40 MLOAD DUP1 SWAP2 SUB SWAP1 RETURN JUMPDEST PUSH2 0x434 PUSH2 0x2472 JUMP JUMPDEST PUSH1 0x40 MLOAD PUSH2 0x441 SWAP2 SWAP1 PUSH2 0x30F7 JUMP JUMPDEST PUSH1 0x40 MLOAD DUP1 SWAP2 SUB SWAP1 RETURN JUMPDEST PUSH2 0x452 PUSH2 0x24F7 JUMP JUMPDEST PUSH1 0x40 MLOAD PUSH2 0x45F SWAP2 SWAP1 PUSH2 0x30F7 JUMP JUMPDEST PUSH1 0x40 MLOAD DUP1 SWAP2 SUB SWAP1 RETURN JUMPDEST PUSH2 0x482 PUSH1 0x4 DUP1 CALLDATASIZE SUB DUP2 ADD SWAP1 PUSH2 0x47D SWAP2 SWAP1 PUSH2 0x2F85 JUMP JUMPDEST PUSH2 0x24FE JUMP JUMPDEST STOP JUMPDEST PUSH2 0x49E PUSH1 0x4 DUP1 CALLDATASIZE SUB DUP2 ADD SWAP1 PUSH2 0x499 SWAP2 SWAP1 PUSH2 0x379D JUMP JUMPDEST PUSH2 0x2580 JUMP JUMPDEST STOP JUMPDEST PUSH2 0x4A8 PUSH2 0x288C JUMP JUMPDEST PUSH1 0x40 MLOAD PUSH2 0x4B5 SWAP2 SWAP1 PUSH2 0x3889 JUMP JUMPDEST PUSH1 0x40 MLOAD DUP1 SWAP2 SUB SWAP1 RETURN JUMPDEST PUSH0 PUSH2 0x4C7 PUSH2 0x28B3 JUMP JUMPDEST PUSH0 PUSH20 0xFFFFFFFFFFFFFFFFFFFFFFFFFFFFFFFFFFFFFFFF AND PUSH1 0x3 PUSH0 DUP5 PUSH20 0xFFFFFFFFFFFFFFFFFFFFFFFFFFFFFFFFFFFFFFFF AND PUSH20 0xFFFFFFFFFFFFFFFFFFFFFFFFFFFFFFFFFFFFFFFF AND DUP2 MSTORE PUSH1 0x20 ADD SWAP1 DUP2 MSTORE PUSH1 0x20 ADD PUSH0 KECCAK256 PUSH0 SWAP1 SLOAD SWAP1 PUSH2 0x100 EXP SWAP1 DIV PUSH20 0xFFFFFFFFFFFFFFFFFFFFFFFFFFFFFFFFFFFFFFFF AND PUSH20 0xFFFFFFFFFFFFFFFFFFFFFFFFFFFFFFFFFFFFFFFF AND SUB PUSH2 0x591 JUMPI PUSH1 0x40 MLOAD PUSH32 0x8C379A000000000000000000000000000000000000000000000000000000000 DUP2 MSTORE PUSH1 0x4 ADD PUSH2 0x588 SWAP1 PUSH2 0x38EC JUMP JUMPDEST PUSH1 0x40 MLOAD DUP1 SWAP2 SUB SWAP1 REVERT JUMPDEST PUSH1 0x3 PUSH0 DUP4 PUSH20 0xFFFFFFFFFFFFFFFFFFFFFFFFFFFFFFFFFFFFFFFF AND PUSH20 0xFFFFFFFFFFFFFFFFFFFFFFFFFFFFFFFFFFFFFFFF AND DUP2 MSTORE PUSH1 0x20 ADD SWAP1 DUP2 MSTORE PUSH1 0x20 ADD PUSH0 KECCAK256 PUSH0 SWAP1 SLOAD SWAP1 PUSH2 0x100 EXP SWAP1 DIV PUSH20 0xFFFFFFFFFFFFFFFFFFFFFFFFFFFFFFFFFFFFFFFF AND SWAP1 POP SWAP2 SWAP1 POP JUMP JUMPDEST PUSH1 0x8 PUSH0 SWAP1 SLOAD SWAP1 PUSH2 0x100 EXP SWAP1 DIV PUSH20 0xFFFFFFFFFFFFFFFFFFFFFFFFFFFFFFFFFFFFFFFF AND DUP2 JUMP JUMPDEST PUSH2 0x622 PUSH2 0x173A JUMP JUMPDEST PUSH20 0xFFFFFFFFFFFFFFFFFFFFFFFFFFFFFFFFFFFFFFFF AND CALLER PUSH20 0xFFFFFFFFFFFFFFFFFFFFFFFFFFFFFFFFFFFFFFFF AND EQ DUP1 PUSH2 0x686 JUMPI POP DUP1 PUSH20 0xFFFFFFFFFFFFFFFFFFFFFFFFFFFFFFFFFFFFFFFF AND CALLER PUSH20 0xFFFFFFFFFFFFFFFFFFFFFFFFFFFFFFFFFFFFFFFF AND EQ JUMPDEST PUSH2 0x6C5 JUMPI PUSH1 0x40 MLOAD PUSH32 0x8C379A000000000000000000000000000000000000000000000000000000000 DUP2 MSTORE PUSH1 0x4 ADD PUSH2 0x6BC SWAP1 PUSH2 0x397A JUMP JUMPDEST PUSH1 0x40 MLOAD DUP1 SWAP2 SUB SWAP1 REVERT JUMPDEST PUSH0 PUSH1 0x1 PUSH0 DUP4 PUSH20 0xFFFFFFFFFFFFFFFFFFFFFFFFFFFFFFFFFFFFFFFF AND PUSH20 0xFFFFFFFFFFFFFFFFFFFFFFFFFFFFFFFFFFFFFFFF AND DUP2 MSTORE PUSH1 0x20 ADD SWAP1 DUP2 MSTORE PUSH1 0x20 ADD PUSH0 KECCAK256 DUP1 SLOAD SWAP1 POP GT PUSH2 0x747 JUMPI PUSH1 0x40 MLOAD PUSH32 0x8C379A000000000000000000000000000000000000000000000000000000000 DUP2 MSTORE PUSH1 0x4 ADD PUSH2 0x73E SWAP1 PUSH2 0x39E2 JUMP JUMPDEST PUSH1 0x40 MLOAD DUP1 SWAP2 SUB SWAP1 REVERT JUMPDEST PUSH0 DUP1 PUSH1 0x1 SWAP1 POP PUSH0 PUSH1 0x1 SWAP1 POP PUSH0 JUMPDEST PUSH1 0x1 PUSH0 DUP7 PUSH20 0xFFFFFFFFFFFFFFFFFFFFFFFFFFFFFFFFFFFFFFFF AND PUSH20 0xFFFFFFFFFFFFFFFFFFFFFFFFFFFFFFFFFFFFFFFF AND DUP2 MSTORE PUSH1 0x20 ADD SWAP1 DUP2 MSTORE PUSH1 0x20 ADD PUSH0 KECCAK256 DUP1 SLOAD SWAP1 POP DUP2 LT ISZERO PUSH2 0xABD JUMPI DUP2 PUSH1 0x1 PUSH0 DUP8 PUSH20 0xFFFFFFFFFFFFFFFFFFFFFFFFFFFFFFFFFFFFFFFF AND PUSH20 0xFFFFFFFFFFFFFFFFFFFFFFFFFFFFFFFFFFFFFFFF AND DUP2 MSTORE PUSH1 0x20 ADD SWAP1 DUP2 MSTORE PUSH1 0x20 ADD PUSH0 KECCAK256 DUP3 DUP2 SLOAD DUP2 LT PUSH2 0x7EC JUMPI PUSH2 0x7EB PUSH2 0x3A00 JUMP JUMPDEST JUMPDEST SWAP1 PUSH0 MSTORE PUSH1 0x20 PUSH0 KECCAK256 SWAP1 PUSH1 0x4 MUL ADD PUSH1 0x2 PUSH1 0x4 DUP2 LT PUSH2 0x80B JUMPI PUSH2 0x80A PUSH2 0x3A00 JUMP JUMPDEST JUMPDEST ADD SLOAD SUB ISZERO PUSH2 0xAB0 JUMPI DUP3 PUSH1 0x1 PUSH0 DUP8 PUSH20 0xFFFFFFFFFFFFFFFFFFFFFFFFFFFFFFFFFFFFFFFF AND PUSH20 0xFFFFFFFFFFFFFFFFFFFFFFFFFFFFFFFFFFFFFFFF AND DUP2 MSTORE PUSH1 0x20 ADD SWAP1 DUP2 MSTORE PUSH1 0x20 ADD PUSH0 KECCAK256 DUP3 DUP2 SLOAD DUP2 LT PUSH2 0x863 JUMPI PUSH2 0x862 PUSH2 0x3A00 JUMP JUMPDEST JUMPDEST SWAP1 PUSH0 MSTORE PUSH1 0x20 PUSH0 KECCAK256 SWAP1 PUSH1 0x4 MUL ADD PUSH1 0x3 PUSH1 0x4 DUP2 LT PUSH2 0x882 JUMPI PUSH2 0x881 PUSH2 0x3A00 JUMP JUMPDEST JUMPDEST ADD SLOAD SUB PUSH2 0xABD JUMPI PUSH2 0x891 PUSH2 0x24F7 JUMP JUMPDEST PUSH1 0x1 PUSH0 DUP8 PUSH20 0xFFFFFFFFFFFFFFFFFFFFFFFFFFFFFFFFFFFFFFFF AND PUSH20 0xFFFFFFFFFFFFFFFFFFFFFFFFFFFFFFFFFFFFFFFF AND DUP2 MSTORE PUSH1 0x20 ADD SWAP1 DUP2 MSTORE PUSH1 0x20 ADD PUSH0 KECCAK256 DUP3 DUP2 SLOAD DUP2 LT PUSH2 0x8E0 JUMPI PUSH2 0x8DF PUSH2 0x3A00 JUMP JUMPDEST JUMPDEST SWAP1 PUSH0 MSTORE PUSH1 0x20 PUSH0 KECCAK256 SWAP1 PUSH1 0x4 MUL ADD PUSH1 0x1 PUSH1 0x4 DUP2 LT PUSH2 0x8FF JUMPI PUSH2 0x8FE PUSH2 0x3A00 JUMP JUMPDEST JUMPDEST ADD SLOAD LT ISZERO PUSH2 0xABD JUMPI DUP2 PUSH1 0x1 PUSH0 DUP8 PUSH20 0xFFFFFFFFFFFFFFFFFFFFFFFFFFFFFFFFFFFFFFFF AND PUSH20 0xFFFFFFFFFFFFFFFFFFFFFFFFFFFFFFFFFFFFFFFF AND DUP2 MSTORE PUSH1 0x20 ADD SWAP1 DUP2 MSTORE PUSH1 0x20 ADD PUSH0 KECCAK256 DUP3 DUP2 SLOAD DUP2 LT PUSH2 0x957 JUMPI PUSH2 0x956 PUSH2 0x3A00 JUMP JUMPDEST JUMPDEST SWAP1 PUSH0 MSTORE PUSH1 0x20 PUSH0 KECCAK256 SWAP1 PUSH1 0x4 MUL ADD PUSH1 0x2 PUSH1 0x4 DUP2 LT PUSH2 0x976 JUMPI PUSH2 0x975 PUSH2 0x3A00 JUMP JUMPDEST JUMPDEST ADD DUP2 SWAP1 SSTORE POP PUSH1 0x1 PUSH0 DUP7 PUSH20 0xFFFFFFFFFFFFFFFFFFFFFFFFFFFFFFFFFFFFFFFF AND PUSH20 0xFFFFFFFFFFFFFFFFFFFFFFFFFFFFFFFFFFFFFFFF AND DUP2 MSTORE PUSH1 0x20 ADD SWAP1 DUP2 MSTORE PUSH1 0x20 ADD PUSH0 KECCAK256 DUP2 DUP2 SLOAD DUP2 LT PUSH2 0x9CA JUMPI PUSH2 0x9C9 PUSH2 0x3A00 JUMP JUMPDEST JUMPDEST SWAP1 PUSH0 MSTORE PUSH1 0x20 PUSH0 KECCAK256 SWAP1 PUSH1 0x4 MUL ADD PUSH0 PUSH1 0x4 DUP2 LT PUSH2 0x9E8 JUMPI PUSH2 0x9E7 PUSH2 0x3A00 JUMP JUMPDEST JUMPDEST ADD SLOAD PUSH1 0x6 PUSH0 DUP3 DUP3 SLOAD PUSH2 0x9FA SWAP2 SWAP1 PUSH2 0x3A5A JUMP JUMPDEST SWAP3 POP POP DUP2 SWAP1 SSTORE POP PUSH2 0xAA1 DUP6 PUSH1 0x1 PUSH0 DUP9 PUSH20 0xFFFFFFFFFFFFFFFFFFFFFFFFFFFFFFFFFFFFFFFF AND PUSH20 0xFFFFFFFFFFFFFFFFFFFFFFFFFFFFFFFFFFFFFFFF AND DUP2 MSTORE PUSH1 0x20 ADD SWAP1 DUP2 MSTORE PUSH1 0x20 ADD PUSH0 KECCAK256 DUP4 DUP2 SLOAD DUP2 LT PUSH2 0xA54 JUMPI PUSH2 0xA53 PUSH2 0x3A00 JUMP JUMPDEST JUMPDEST SWAP1 PUSH0 MSTORE PUSH1 0x20 PUSH0 KECCAK256 SWAP1 PUSH1 0x4 MUL ADD PUSH0 PUSH1 0x4 DUP2 LT PUSH2 0xA72 JUMPI PUSH2 0xA71 PUSH2 0x3A00 JUMP JUMPDEST JUMPDEST ADD SLOAD PUSH2 0xA7C PUSH2 0x288C JUMP JUMPDEST PUSH20 0xFFFFFFFFFFFFFFFFFFFFFFFFFFFFFFFFFFFFFFFF AND PUSH2 0x2931 SWAP1 SWAP3 SWAP2 SWAP1 PUSH4 0xFFFFFFFF AND JUMP JUMPDEST DUP4 DUP1 PUSH2 0xAAC SWAP1 PUSH2 0x3A8D JUMP JUMPDEST SWAP5 POP POP JUMPDEST DUP1 DUP1 PUSH1 0x1 ADD SWAP2 POP POP PUSH2 0x754 JUMP JUMPDEST POP PUSH0 DUP4 SUB PUSH2 0xB00 JUMPI PUSH1 0x40 MLOAD PUSH32 0x8C379A000000000000000000000000000000000000000000000000000000000 DUP2 MSTORE PUSH1 0x4 ADD PUSH2 0xAF7 SWAP1 PUSH2 0x3B90 JUMP JUMPDEST PUSH1 0x40 MLOAD DUP1 SWAP2 SUB SWAP1 REVERT JUMPDEST POP POP POP POP JUMP JUMPDEST PUSH2 0xB0E PUSH2 0x28B3 JUMP JUMPDEST PUSH0 PUSH1 0x1 PUSH0 DUP7 PUSH20 0xFFFFFFFFFFFFFFFFFFFFFFFFFFFFFFFFFFFFFFFF AND PUSH20 0xFFFFFFFFFFFFFFFFFFFFFFFFFFFFFFFFFFFFFFFF AND DUP2 MSTORE PUSH1 0x20 ADD SWAP1 DUP2 MSTORE PUSH1 0x20 ADD PUSH0 KECCAK256 DUP1 SLOAD SWAP1 POP GT PUSH2 0xB90 JUMPI PUSH1 0x40 MLOAD PUSH32 0x8C379A000000000000000000000000000000000000000000000000000000000 DUP2 MSTORE PUSH1 0x4 ADD PUSH2 0xB87 SWAP1 PUSH2 0x39E2 JUMP JUMPDEST PUSH1 0x40 MLOAD DUP1 SWAP2 SUB SWAP1 REVERT JUMPDEST PUSH0 DUP1 PUSH0 SWAP1 POP PUSH0 PUSH1 0x1 PUSH0 DUP9 PUSH20 0xFFFFFFFFFFFFFFFFFFFFFFFFFFFFFFFFFFFFFFFF AND PUSH20 0xFFFFFFFFFFFFFFFFFFFFFFFFFFFFFFFFFFFFFFFF AND DUP2 MSTORE PUSH1 0x20 ADD SWAP1 DUP2 MSTORE PUSH1 0x20 ADD PUSH0 KECCAK256 DUP1 SLOAD SWAP1 POP SWAP1 POP JUMPDEST PUSH0 DUP2 GT ISZERO PUSH2 0xF51 JUMPI PUSH1 0x1 DUP2 PUSH2 0xBEF SWAP2 SWAP1 PUSH2 0x3A5A JUMP JUMPDEST SWAP3 POP DUP4 DUP1 ISZERO PUSH2 0xC6C JUMPI POP PUSH0 PUSH1 0x1 PUSH0 DUP10 PUSH20 0xFFFFFFFFFFFFFFFFFFFFFFFFFFFFFFFFFFFFFFFF AND PUSH20 0xFFFFFFFFFFFFFFFFFFFFFFFFFFFFFFFFFFFFFFFF AND DUP2 MSTORE PUSH1 0x20 ADD SWAP1 DUP2 MSTORE PUSH1 0x20 ADD PUSH0 KECCAK256 DUP5 DUP2 SLOAD DUP2 LT PUSH2 0xC49 JUMPI PUSH2 0xC48 PUSH2 0x3A00 JUMP JUMPDEST JUMPDEST SWAP1 PUSH0 MSTORE PUSH1 0x20 PUSH0 KECCAK256 SWAP1 PUSH1 0x4 MUL ADD PUSH1 0x3 PUSH1 0x4 DUP2 LT PUSH2 0xC68 JUMPI PUSH2 0xC67 PUSH2 0x3A00 JUMP JUMPDEST JUMPDEST ADD SLOAD EQ JUMPDEST ISZERO PUSH2 0xD2D JUMPI DUP2 DUP1 PUSH2 0xC7C SWAP1 PUSH2 0x3A8D JUMP JUMPDEST SWAP3 POP POP PUSH1 0x1 PUSH0 DUP9 PUSH20 0xFFFFFFFFFFFFFFFFFFFFFFFFFFFFFFFFFFFFFFFF AND PUSH20 0xFFFFFFFFFFFFFFFFFFFFFFFFFFFFFFFFFFFFFFFF AND DUP2 MSTORE PUSH1 0x20 ADD SWAP1 DUP2 MSTORE PUSH1 0x20 ADD PUSH0 KECCAK256 DUP4 DUP2 SLOAD DUP2 LT PUSH2 0xCCE JUMPI PUSH2 0xCCD PUSH2 0x3A00 JUMP JUMPDEST JUMPDEST SWAP1 PUSH0 MSTORE PUSH1 0x20 PUSH0 KECCAK256 SWAP1 PUSH1 0x4 MUL ADD PUSH0 PUSH1 0x4 DUP2 LT PUSH2 0xCEC JUMPI PUSH2 0xCEB PUSH2 0x3A00 JUMP JUMPDEST JUMPDEST ADD SLOAD PUSH1 0x6 PUSH0 DUP3 DUP3 SLOAD PUSH2 0xCFE SWAP2 SWAP1 PUSH2 0x3A5A JUMP JUMPDEST SWAP3 POP POP DUP2 SWAP1 SSTORE POP DUP6 DUP6 PUSH1 0x40 MLOAD PUSH1 0x20 ADD PUSH2 0xD18 SWAP3 SWAP2 SWAP1 PUSH2 0x3C10 JUMP JUMPDEST PUSH1 0x40 MLOAD PUSH1 0x20 DUP2 DUP4 SUB SUB DUP2 MSTORE SWAP1 PUSH1 0x40 MSTORE POP PUSH2 0xF3E JUMP JUMPDEST PUSH1 0x1 PUSH0 DUP9 PUSH20 0xFFFFFFFFFFFFFFFFFFFFFFFFFFFFFFFFFFFFFFFF AND PUSH20 0xFFFFFFFFFFFFFFFFFFFFFFFFFFFFFFFFFFFFFFFF AND DUP2 MSTORE PUSH1 0x20 ADD SWAP1 DUP2 MSTORE PUSH1 0x20 ADD PUSH0 KECCAK256 DUP4 DUP2 SLOAD DUP2 LT PUSH2 0xD7C JUMPI PUSH2 0xD7B PUSH2 0x3A00 JUMP JUMPDEST JUMPDEST SWAP1 PUSH0 MSTORE PUSH1 0x20 PUSH0 KECCAK256 SWAP1 PUSH1 0x4 MUL ADD PUSH1 0x1 PUSH1 0x4 DUP2 LT PUSH2 0xD9B JUMPI PUSH2 0xD9A PUSH2 0x3A00 JUMP JUMPDEST JUMPDEST ADD SLOAD PUSH2 0xDA5 PUSH2 0x24F7 JUMP JUMPDEST LT DUP1 ISZERO PUSH2 0xE20 JUMPI POP PUSH0 PUSH1 0x1 PUSH0 DUP10 PUSH20 0xFFFFFFFFFFFFFFFFFFFFFFFFFFFFFFFFFFFFFFFF AND PUSH20 0xFFFFFFFFFFFFFFFFFFFFFFFFFFFFFFFFFFFFFFFF AND DUP2 MSTORE PUSH1 0x20 ADD SWAP1 DUP2 MSTORE PUSH1 0x20 ADD PUSH0 KECCAK256 DUP5 DUP2 SLOAD DUP2 LT PUSH2 0xDFD JUMPI PUSH2 0xDFC PUSH2 0x3A00 JUMP JUMPDEST JUMPDEST SWAP1 PUSH0 MSTORE PUSH1 0x20 PUSH0 KECCAK256 SWAP1 PUSH1 0x4 MUL ADD PUSH1 0x2 PUSH1 0x4 DUP2 LT PUSH2 0xE1C JUMPI PUSH2 0xE1B PUSH2 0x3A00 JUMP JUMPDEST JUMPDEST ADD SLOAD EQ JUMPDEST DUP1 ISZERO PUSH2 0xE9A JUMPI POP PUSH0 PUSH1 0x1 PUSH0 DUP10 PUSH20 0xFFFFFFFFFFFFFFFFFFFFFFFFFFFFFFFFFFFFFFFF AND PUSH20 0xFFFFFFFFFFFFFFFFFFFFFFFFFFFFFFFFFFFFFFFF AND DUP2 MSTORE PUSH1 0x20 ADD SWAP1 DUP2 MSTORE PUSH1 0x20 ADD PUSH0 KECCAK256 DUP5 DUP2 SLOAD DUP2 LT PUSH2 0xE77 JUMPI PUSH2 0xE76 PUSH2 0x3A00 JUMP JUMPDEST JUMPDEST SWAP1 PUSH0 MSTORE PUSH1 0x20 PUSH0 KECCAK256 SWAP1 PUSH1 0x4 MUL ADD PUSH1 0x3 PUSH1 0x4 DUP2 LT PUSH2 0xE96 JUMPI PUSH2 0xE95 PUSH2 0x3A00 JUMP JUMPDEST JUMPDEST ADD SLOAD EQ JUMPDEST ISZERO PUSH2 0xF38 JUMPI DUP2 DUP1 PUSH2 0xEAA SWAP1 PUSH2 0x3A8D JUMP JUMPDEST SWAP3 POP POP PUSH1 0x1 PUSH0 DUP9 PUSH20 0xFFFFFFFFFFFFFFFFFFFFFFFFFFFFFFFFFFFFFFFF AND PUSH20 0xFFFFFFFFFFFFFFFFFFFFFFFFFFFFFFFFFFFFFFFF AND DUP2 MSTORE PUSH1 0x20 ADD SWAP1 DUP2 MSTORE PUSH1 0x20 ADD PUSH0 KECCAK256 DUP4 DUP2 SLOAD DUP2 LT PUSH2 0xEFC JUMPI PUSH2 0xEFB PUSH2 0x3A00 JUMP JUMPDEST JUMPDEST SWAP1 PUSH0 MSTORE PUSH1 0x20 PUSH0 KECCAK256 SWAP1 PUSH1 0x4 MUL ADD PUSH0 PUSH1 0x4 DUP2 LT PUSH2 0xF1A JUMPI PUSH2 0xF19 PUSH2 0x3A00 JUMP JUMPDEST JUMPDEST ADD SLOAD PUSH1 0x6 PUSH0 DUP3 DUP3 SLOAD PUSH2 0xF2C SWAP2 SWAP1 PUSH2 0x3A5A JUMP JUMPDEST SWAP3 POP POP DUP2 SWAP1 SSTORE POP PUSH2 0xF3D JUMP JUMPDEST PUSH2 0xF51 JUMP JUMPDEST JUMPDEST DUP1 DUP1 PUSH2 0xF49 SWAP1 PUSH2 0x3C37 JUMP JUMPDEST SWAP2 POP POP PUSH2 0xBDA JUMP JUMPDEST POP PUSH0 DUP2 SUB PUSH2 0xF94 JUMPI PUSH1 0x40 MLOAD PUSH32 0x8C379A000000000000000000000000000000000000000000000000000000000 DUP2 MSTORE PUSH1 0x4 ADD PUSH2 0xF8B SWAP1 PUSH2 0x3CA8 JUMP JUMPDEST PUSH1 0x40 MLOAD DUP1 SWAP2 SUB SWAP1 REVERT JUMPDEST PUSH1 0x2 PUSH0 DUP8 PUSH20 0xFFFFFFFFFFFFFFFFFFFFFFFFFFFFFFFFFFFFFFFF AND PUSH20 0xFFFFFFFFFFFFFFFFFFFFFFFFFFFFFFFFFFFFFFFF AND DUP2 MSTORE PUSH1 0x20 ADD SWAP1 DUP2 MSTORE PUSH1 0x20 ADD PUSH0 KECCAK256 DUP6 DUP6 SWAP1 SWAP2 DUP1 PUSH1 0x1 DUP2 SLOAD ADD DUP1 DUP3 SSTORE DUP1 SWAP2 POP POP PUSH1 0x1 SWAP1 SUB SWAP1 PUSH0 MSTORE PUSH1 0x20 PUSH0 KECCAK256 ADD PUSH0 SWAP1 SWAP2 SWAP3 SWAP1 SWAP2 SWAP3 SWAP1 SWAP2 SWAP3 SWAP1 SWAP2 SWAP3 POP SWAP2 DUP3 PUSH2 0x1009 SWAP3 SWAP2 SWAP1 PUSH2 0x3EEE JUMP JUMPDEST POP PUSH1 0x5 DUP7 SWAP1 DUP1 PUSH1 0x1 DUP2 SLOAD ADD DUP1 DUP3 SSTORE DUP1 SWAP2 POP POP PUSH1 0x1 SWAP1 SUB SWAP1 PUSH0 MSTORE PUSH1 0x20 PUSH0 KECCAK256 ADD PUSH0 SWAP1 SWAP2 SWAP1 SWAP2 SWAP1 SWAP2 PUSH2 0x100 EXP DUP2 SLOAD DUP2 PUSH20 0xFFFFFFFFFFFFFFFFFFFFFFFFFFFFFFFFFFFFFFFF MUL NOT AND SWAP1 DUP4 PUSH20 0xFFFFFFFFFFFFFFFFFFFFFFFFFFFFFFFFFFFFFFFF AND MUL OR SWAP1 SSTORE POP JUMPDEST PUSH0 DUP2 GT ISZERO PUSH2 0x10F2 JUMPI PUSH1 0x1 PUSH0 DUP8 PUSH20 0xFFFFFFFFFFFFFFFFFFFFFFFFFFFFFFFFFFFFFFFF AND PUSH20 0xFFFFFFFFFFFFFFFFFFFFFFFFFFFFFFFFFFFFFFFF AND DUP2 MSTORE PUSH1 0x20 ADD SWAP1 DUP2 MSTORE PUSH1 0x20 ADD PUSH0 KECCAK256 DUP1 SLOAD DUP1 PUSH2 0x10C0 JUMPI PUSH2 0x10BF PUSH2 0x3FBB JUMP JUMPDEST JUMPDEST PUSH1 0x1 SWAP1 SUB DUP2 DUP2 SWAP1 PUSH0 MSTORE PUSH1 0x20 PUSH0 KECCAK256 SWAP1 PUSH1 0x4 MUL ADD PUSH0 PUSH2 0x10DD SWAP2 SWAP1 PUSH2 0x2E07 JUMP JUMPDEST SWAP1 SSTORE DUP1 DUP1 PUSH2 0x10EA SWAP1 PUSH2 0x3C37 JUMP JUMPDEST SWAP2 POP POP PUSH2 0x106B JUMP JUMPDEST PUSH0 PUSH1 0x1 PUSH0 DUP9 PUSH20 0xFFFFFFFFFFFFFFFFFFFFFFFFFFFFFFFFFFFFFFFF AND PUSH20 0xFFFFFFFFFFFFFFFFFFFFFFFFFFFFFFFFFFFFFFFF AND DUP2 MSTORE PUSH1 0x20 ADD SWAP1 DUP2 MSTORE PUSH1 0x20 ADD PUSH0 KECCAK256 DUP1 SLOAD SWAP1 POP SUB PUSH2 0x1223 JUMPI PUSH1 0x1 PUSH0 DUP8 PUSH20 0xFFFFFFFFFFFFFFFFFFFFFFFFFFFFFFFFFFFFFFFF AND PUSH20 0xFFFFFFFFFFFFFFFFFFFFFFFFFFFFFFFFFFFFFFFF AND DUP2 MSTORE PUSH1 0x20 ADD SWAP1 DUP2 MSTORE PUSH1 0x20 ADD PUSH0 KECCAK256 PUSH0 PUSH2 0x1181 SWAP2 SWAP1 PUSH2 0x2E1F JUMP JUMPDEST PUSH0 DUP1 PUSH0 SWAP1 POP JUMPDEST PUSH1 0x7 DUP1 SLOAD SWAP1 POP DUP2 LT ISZERO PUSH2 0x1217 JUMPI PUSH1 0x7 DUP2 DUP2 SLOAD DUP2 LT PUSH2 0x11A8 JUMPI PUSH2 0x11A7 PUSH2 0x3A00 JUMP JUMPDEST JUMPDEST SWAP1 PUSH0 MSTORE PUSH1 0x20 PUSH0 KECCAK256 ADD PUSH0 SWAP1 SLOAD SWAP1 PUSH2 0x100 EXP SWAP1 DIV PUSH20 0xFFFFFFFFFFFFFFFFFFFFFFFFFFFFFFFFFFFFFFFF AND PUSH20 0xFFFFFFFFFFFFFFFFFFFFFFFFFFFFFFFFFFFFFFFF AND DUP9 PUSH20 0xFFFFFFFFFFFFFFFFFFFFFFFFFFFFFFFFFFFFFFFF AND SUB PUSH2 0x120A JUMPI DUP1 SWAP2 POP PUSH2 0x1217 JUMP JUMPDEST DUP1 DUP1 PUSH1 0x1 ADD SWAP2 POP POP PUSH2 0x1187 JUMP JUMPDEST POP PUSH2 0x1221 DUP2 PUSH2 0x29B7 JUMP JUMPDEST POP JUMPDEST POP POP POP POP POP POP JUMP JUMPDEST PUSH0 PUSH32 0x0 PUSH20 0xFFFFFFFFFFFFFFFFFFFFFFFFFFFFFFFFFFFFFFFF AND PUSH4 0x313CE567 PUSH1 0x40 MLOAD DUP2 PUSH4 0xFFFFFFFF AND PUSH1 0xE0 SHL DUP2 MSTORE PUSH1 0x4 ADD PUSH1 0x20 PUSH1 0x40 MLOAD DUP1 DUP4 SUB DUP2 DUP7 GAS STATICCALL ISZERO DUP1 ISZERO PUSH2 0x1295 JUMPI RETURNDATASIZE PUSH0 DUP1 RETURNDATACOPY RETURNDATASIZE PUSH0 REVERT JUMPDEST POP POP POP POP PUSH1 0x40 MLOAD RETURNDATASIZE PUSH1 0x1F NOT PUSH1 0x1F DUP3 ADD AND DUP3 ADD DUP1 PUSH1 0x40 MSTORE POP DUP2 ADD SWAP1 PUSH2 0x12B9 SWAP2 SWAP1 PUSH2 0x401E JUMP JUMPDEST PUSH1 0xFF AND SWAP1 POP SWAP1 JUMP JUMPDEST PUSH1 0x8 PUSH0 SWAP1 SLOAD SWAP1 PUSH2 0x100 EXP SWAP1 DIV PUSH20 0xFFFFFFFFFFFFFFFFFFFFFFFFFFFFFFFFFFFFFFFF AND PUSH20 0xFFFFFFFFFFFFFFFFFFFFFFFFFFFFFFFFFFFFFFFF AND CALLER PUSH20 0xFFFFFFFFFFFFFFFFFFFFFFFFFFFFFFFFFFFFFFFF AND EQ PUSH2 0x1319 JUMPI PUSH0 DUP1 REVERT JUMPDEST PUSH0 DUP5 DUP5 SWAP1 POP GT PUSH2 0x135E JUMPI PUSH1 0x40 MLOAD PUSH32 0x8C379A000000000000000000000000000000000000000000000000000000000 DUP2 MSTORE PUSH1 0x4 ADD PUSH2 0x1355 SWAP1 PUSH2 0x40B9 JUMP JUMPDEST PUSH1 0x40 MLOAD DUP1 SWAP2 SUB SWAP1 REVERT JUMPDEST DUP4 DUP4 SWAP1 POP DUP3 DUP3 SWAP1 POP EQ PUSH2 0x13A6 JUMPI PUSH1 0x40 MLOAD PUSH32 0x8C379A000000000000000000000000000000000000000000000000000000000 DUP2 MSTORE PUSH1 0x4 ADD PUSH2 0x139D SWAP1 PUSH2 0x4147 JUMP JUMPDEST PUSH1 0x40 MLOAD DUP1 SWAP2 SUB SWAP1 REVERT JUMPDEST PUSH0 JUMPDEST DUP5 DUP5 SWAP1 POP DUP2 LT ISZERO PUSH2 0x147D JUMPI PUSH0 DUP4 DUP4 DUP4 DUP2 DUP2 LT PUSH2 0x13C7 JUMPI PUSH2 0x13C6 PUSH2 0x3A00 JUMP JUMPDEST JUMPDEST SWAP1 POP PUSH1 0x20 MUL DUP2 ADD SWAP1 PUSH2 0x13D9 SWAP2 SWAP1 PUSH2 0x4171 JUMP JUMPDEST SWAP1 POP GT PUSH2 0x141B JUMPI PUSH1 0x40 MLOAD PUSH32 0x8C379A000000000000000000000000000000000000000000000000000000000 DUP2 MSTORE PUSH1 0x4 ADD PUSH2 0x1412 SWAP1 PUSH2 0x4243 JUMP JUMPDEST PUSH1 0x40 MLOAD DUP1 SWAP2 SUB SWAP1 REVERT JUMPDEST PUSH2 0x1470 DUP6 DUP6 DUP4 DUP2 DUP2 LT PUSH2 0x1431 JUMPI PUSH2 0x1430 PUSH2 0x3A00 JUMP JUMPDEST JUMPDEST SWAP1 POP PUSH1 0x20 MUL ADD PUSH1 0x20 DUP2 ADD SWAP1 PUSH2 0x1446 SWAP2 SWAP1 PUSH2 0x2F85 JUMP JUMPDEST DUP5 DUP5 DUP5 DUP2 DUP2 LT PUSH2 0x1459 JUMPI PUSH2 0x1458 PUSH2 0x3A00 JUMP JUMPDEST JUMPDEST SWAP1 POP PUSH1 0x20 MUL DUP2 ADD SWAP1 PUSH2 0x146B SWAP2 SWAP1 PUSH2 0x4171 JUMP JUMPDEST PUSH2 0x17FA JUMP JUMPDEST DUP1 DUP1 PUSH1 0x1 ADD SWAP2 POP POP PUSH2 0x13A8 JUMP JUMPDEST POP POP POP POP POP JUMP JUMPDEST PUSH1 0x60 PUSH2 0x148E PUSH2 0x28B3 JUMP JUMPDEST PUSH1 0x4 DUP1 SLOAD DUP1 PUSH1 0x20 MUL PUSH1 0x20 ADD PUSH1 0x40 MLOAD SWAP1 DUP2 ADD PUSH1 0x40 MSTORE DUP1 SWAP3 SWAP2 SWAP1 DUP2 DUP2 MSTORE PUSH1 0x20 ADD DUP3 DUP1 SLOAD DUP1 ISZERO PUSH2 0x150D JUMPI PUSH1 0x20 MUL DUP3 ADD SWAP2 SWAP1 PUSH0 MSTORE PUSH1 0x20 PUSH0 KECCAK256 SWAP1 JUMPDEST DUP2 PUSH0 SWAP1 SLOAD SWAP1 PUSH2 0x100 EXP SWAP1 DIV PUSH20 0xFFFFFFFFFFFFFFFFFFFFFFFFFFFFFFFFFFFFFFFF AND PUSH20 0xFFFFFFFFFFFFFFFFFFFFFFFFFFFFFFFFFFFFFFFF AND DUP2 MSTORE PUSH1 0x20 ADD SWAP1 PUSH1 0x1 ADD SWAP1 DUP1 DUP4 GT PUSH2 0x14C4 JUMPI JUMPDEST POP POP POP POP POP SWAP1 POP SWAP1 JUMP JUMPDEST PUSH0 PUSH1 0x6 SLOAD SWAP1 POP SWAP1 JUMP JUMPDEST PUSH1 0x60 PUSH1 0x7 DUP1 SLOAD DUP1 PUSH1 0x20 MUL PUSH1 0x20 ADD PUSH1 0x40 MLOAD SWAP1 DUP2 ADD PUSH1 0x40 MSTORE DUP1 SWAP3 SWAP2 SWAP1 DUP2 DUP2 MSTORE PUSH1 0x20 ADD DUP3 DUP1 SLOAD DUP1 ISZERO PUSH2 0x15A1 JUMPI PUSH1 0x20 MUL DUP3 ADD SWAP2 SWAP1 PUSH0 MSTORE PUSH1 0x20 PUSH0 KECCAK256 SWAP1 JUMPDEST DUP2 PUSH0 SWAP1 SLOAD SWAP1 PUSH2 0x100 EXP SWAP1 DIV PUSH20 0xFFFFFFFFFFFFFFFFFFFFFFFFFFFFFFFFFFFFFFFF AND PUSH20 0xFFFFFFFFFFFFFFFFFFFFFFFFFFFFFFFFFFFFFFFF AND DUP2 MSTORE PUSH1 0x20 ADD SWAP1 PUSH1 0x1 ADD SWAP1 DUP1 DUP4 GT PUSH2 0x1558 JUMPI JUMPDEST POP POP POP POP POP SWAP1 POP SWAP1 JUMP JUMPDEST PUSH2 0x15B3 PUSH2 0x28B3 JUMP JUMPDEST PUSH1 0x40 MLOAD PUSH32 0x8C379A000000000000000000000000000000000000000000000000000000000 DUP2 MSTORE PUSH1 0x4 ADD PUSH2 0x15E5 SWAP1 PUSH2 0x42D1 JUMP JUMPDEST PUSH1 0x40 MLOAD DUP1 SWAP2 SUB SWAP1 REVERT JUMPDEST PUSH1 0x60 PUSH0 PUSH1 0x1 PUSH0 DUP5 PUSH20 0xFFFFFFFFFFFFFFFFFFFFFFFFFFFFFFFFFFFFFFFF AND PUSH20 0xFFFFFFFFFFFFFFFFFFFFFFFFFFFFFFFFFFFFFFFF AND DUP2 MSTORE PUSH1 0x20 ADD SWAP1 DUP2 MSTORE PUSH1 0x20 ADD PUSH0 KECCAK256 DUP1 SLOAD SWAP1 POP GT PUSH2 0x1672 JUMPI PUSH1 0x40 MLOAD PUSH32 0x8C379A000000000000000000000000000000000000000000000000000000000 DUP2 MSTORE PUSH1 0x4 ADD PUSH2 0x1669 SWAP1 PUSH2 0x39E2 JUMP JUMPDEST PUSH1 0x40 MLOAD DUP1 SWAP2 SUB SWAP1 REVERT JUMPDEST PUSH1 0x1 PUSH0 DUP4 PUSH20 0xFFFFFFFFFFFFFFFFFFFFFFFFFFFFFFFFFFFFFFFF AND PUSH20 0xFFFFFFFFFFFFFFFFFFFFFFFFFFFFFFFFFFFFFFFF AND DUP2 MSTORE PUSH1 0x20 ADD SWAP1 DUP2 MSTORE PUSH1 0x20 ADD PUSH0 KECCAK256 DUP1 SLOAD DUP1 PUSH1 0x20 MUL PUSH1 0x20 ADD PUSH1 0x40 MLOAD SWAP1 DUP2 ADD PUSH1 0x40 MSTORE DUP1 SWAP3 SWAP2 SWAP1 DUP2 DUP2 MSTORE PUSH1 0x20 ADD PUSH0 SWAP1 JUMPDEST DUP3 DUP3 LT ISZERO PUSH2 0x172F JUMPI DUP4 DUP3 SWAP1 PUSH0 MSTORE PUSH1 0x20 PUSH0 KECCAK256 SWAP1 PUSH1 0x4 MUL ADD PUSH1 0x4 DUP1 PUSH1 0x20 MUL PUSH1 0x40 MLOAD SWAP1 DUP2 ADD PUSH1 0x40 MSTORE DUP1 SWAP3 SWAP2 SWAP1 DUP3 PUSH1 0x4 DUP1 ISZERO PUSH2 0x171B JUMPI PUSH1 0x20 MUL DUP3 ADD SWAP2 JUMPDEST DUP2 SLOAD DUP2 MSTORE PUSH1 0x20 ADD SWAP1 PUSH1 0x1 ADD SWAP1 DUP1 DUP4 GT PUSH2 0x1707 JUMPI JUMPDEST POP POP POP POP POP DUP2 MSTORE PUSH1 0x20 ADD SWAP1 PUSH1 0x1 ADD SWAP1 PUSH2 0x16CE JUMP JUMPDEST POP POP POP POP SWAP1 POP SWAP2 SWAP1 POP JUMP JUMPDEST PUSH0 DUP1 PUSH0 SWAP1 SLOAD SWAP1 PUSH2 0x100 EXP SWAP1 DIV PUSH20 0xFFFFFFFFFFFFFFFFFFFFFFFFFFFFFFFFFFFFFFFF AND SWAP1 POP SWAP1 JUMP JUMPDEST PUSH2 0x1769 PUSH2 0x28B3 JUMP JUMPDEST PUSH2 0x1771 PUSH2 0x1517 JUMP JUMPDEST PUSH2 0x1779 PUSH2 0x2472 JUMP JUMPDEST GT PUSH2 0x17B9 JUMPI PUSH1 0x40 MLOAD PUSH32 0x8C379A000000000000000000000000000000000000000000000000000000000 DUP2 MSTORE PUSH1 0x4 ADD PUSH2 0x17B0 SWAP1 PUSH2 0x4339 JUMP JUMPDEST PUSH1 0x40 MLOAD DUP1 SWAP2 SUB SWAP1 REVERT JUMPDEST PUSH0 PUSH2 0x17C2 PUSH2 0x1AD5 JUMP JUMPDEST SWAP1 POP PUSH2 0x17F6 DUP3 DUP3 PUSH2 0x17D1 PUSH2 0x288C JUMP JUMPDEST PUSH20 0xFFFFFFFFFFFFFFFFFFFFFFFFFFFFFFFFFFFFFFFF AND PUSH2 0x2931 SWAP1 SWAP3 SWAP2 SWAP1 PUSH4 0xFFFFFFFF AND JUMP JUMPDEST POP POP JUMP JUMPDEST PUSH1 0x8 PUSH0 SWAP1 SLOAD SWAP1 PUSH2 0x100 EXP SWAP1 DIV PUSH20 0xFFFFFFFFFFFFFFFFFFFFFFFFFFFFFFFFFFFFFFFF AND PUSH20 0xFFFFFFFFFFFFFFFFFFFFFFFFFFFFFFFFFFFFFFFF AND CALLER PUSH20 0xFFFFFFFFFFFFFFFFFFFFFFFFFFFFFFFFFFFFFFFF AND EQ PUSH2 0x1889 JUMPI PUSH1 0x40 MLOAD PUSH32 0x8C379A000000000000000000000000000000000000000000000000000000000 DUP2 MSTORE PUSH1 0x4 ADD PUSH2 0x1880 SWAP1 PUSH2 0x43C7 JUMP JUMPDEST PUSH1 0x40 MLOAD DUP1 SWAP2 SUB SWAP1 REVERT JUMPDEST PUSH0 PUSH1 0x1 PUSH0 DUP6 PUSH20 0xFFFFFFFFFFFFFFFFFFFFFFFFFFFFFFFFFFFFFFFF AND PUSH20 0xFFFFFFFFFFFFFFFFFFFFFFFFFFFFFFFFFFFFFFFF AND DUP2 MSTORE PUSH1 0x20 ADD SWAP1 DUP2 MSTORE PUSH1 0x20 ADD PUSH0 KECCAK256 DUP1 SLOAD SWAP1 POP GT PUSH2 0x190B JUMPI PUSH1 0x40 MLOAD PUSH32 0x8C379A000000000000000000000000000000000000000000000000000000000 DUP2 MSTORE PUSH1 0x4 ADD PUSH2 0x1902 SWAP1 PUSH2 0x39E2 JUMP JUMPDEST PUSH1 0x40 MLOAD DUP1 SWAP2 SUB SWAP1 REVERT JUMPDEST DUP2 DUP2 SWAP1 POP PUSH1 0x1 PUSH0 DUP6 PUSH20 0xFFFFFFFFFFFFFFFFFFFFFFFFFFFFFFFFFFFFFFFF AND PUSH20 0xFFFFFFFFFFFFFFFFFFFFFFFFFFFFFFFFFFFFFFFF AND DUP2 MSTORE PUSH1 0x20 ADD SWAP1 DUP2 MSTORE PUSH1 0x20 ADD PUSH0 KECCAK256 DUP1 SLOAD SWAP1 POP GT ISZERO PUSH2 0x1991 JUMPI PUSH1 0x40 MLOAD PUSH32 0x8C379A000000000000000000000000000000000000000000000000000000000 DUP2 MSTORE PUSH1 0x4 ADD PUSH2 0x1988 SWAP1 PUSH2 0x442F JUMP JUMPDEST PUSH1 0x40 MLOAD DUP1 SWAP2 SUB SWAP1 REVERT JUMPDEST PUSH0 JUMPDEST DUP3 DUP3 SWAP1 POP DUP2 LT ISZERO PUSH2 0x1A38 JUMPI PUSH1 0x1 DUP1 PUSH0 DUP7 PUSH20 0xFFFFFFFFFFFFFFFFFFFFFFFFFFFFFFFFFFFFFFFF AND PUSH20 0xFFFFFFFFFFFFFFFFFFFFFFFFFFFFFFFFFFFFFFFF AND DUP2 MSTORE PUSH1 0x20 ADD SWAP1 DUP2 MSTORE PUSH1 0x20 ADD PUSH0 KECCAK256 DUP5 DUP5 DUP5 DUP2 DUP2 LT PUSH2 0x19EF JUMPI PUSH2 0x19EE PUSH2 0x3A00 JUMP JUMPDEST JUMPDEST SWAP1 POP PUSH1 0x20 MUL ADD CALLDATALOAD DUP2 SLOAD DUP2 LT PUSH2 0x1A07 JUMPI PUSH2 0x1A06 PUSH2 0x3A00 JUMP JUMPDEST JUMPDEST SWAP1 PUSH0 MSTORE PUSH1 0x20 PUSH0 KECCAK256 SWAP1 PUSH1 0x4 MUL ADD PUSH1 0x3 PUSH1 0x4 DUP2 LT PUSH2 0x1A26 JUMPI PUSH2 0x1A25 PUSH2 0x3A00 JUMP JUMPDEST JUMPDEST ADD DUP2 SWAP1 SSTORE POP DUP1 DUP1 PUSH1 0x1 ADD SWAP2 POP POP PUSH2 0x1993 JUMP JUMPDEST POP POP POP POP JUMP JUMPDEST PUSH1 0x60 PUSH32 0x0 PUSH20 0xFFFFFFFFFFFFFFFFFFFFFFFFFFFFFFFFFFFFFFFF AND PUSH4 0x95D89B41 PUSH1 0x40 MLOAD DUP2 PUSH4 0xFFFFFFFF AND PUSH1 0xE0 SHL DUP2 MSTORE PUSH1 0x4 ADD PUSH0 PUSH1 0x40 MLOAD DUP1 DUP4 SUB DUP2 DUP7 GAS STATICCALL ISZERO DUP1 ISZERO PUSH2 0x1AA8 JUMPI RETURNDATASIZE PUSH0 DUP1 RETURNDATACOPY RETURNDATASIZE PUSH0 REVERT JUMPDEST POP POP POP POP PUSH1 0x40 MLOAD RETURNDATASIZE PUSH0 DUP3 RETURNDATACOPY RETURNDATASIZE PUSH1 0x1F NOT PUSH1 0x1F DUP3 ADD AND DUP3 ADD DUP1 PUSH1 0x40 MSTORE POP DUP2 ADD SWAP1 PUSH2 0x1AD0 SWAP2 SWAP1 PUSH2 0x453A JUMP JUMPDEST SWAP1 POP SWAP1 JUMP JUMPDEST PUSH0 PUSH2 0x1ADE PUSH2 0x1517 JUMP JUMPDEST PUSH2 0x1AE6 PUSH2 0x2472 JUMP JUMPDEST LT ISZERO PUSH2 0x1AF0 JUMPI PUSH0 DUP1 REVERT JUMPDEST PUSH0 PUSH2 0x1AF9 PUSH2 0x1517 JUMP JUMPDEST PUSH2 0x1B01 PUSH2 0x2472 JUMP JUMPDEST PUSH2 0x1B0B SWAP2 SWAP1 PUSH2 0x3A5A JUMP JUMPDEST SWAP1 POP DUP1 SWAP2 POP POP SWAP1 JUMP JUMPDEST PUSH2 0x1B1C PUSH2 0x28B3 JUMP JUMPDEST PUSH0 PUSH1 0x1 PUSH0 DUP6 PUSH20 0xFFFFFFFFFFFFFFFFFFFFFFFFFFFFFFFFFFFFFFFF AND PUSH20 0xFFFFFFFFFFFFFFFFFFFFFFFFFFFFFFFFFFFFFFFF AND DUP2 MSTORE PUSH1 0x20 ADD SWAP1 DUP2 MSTORE PUSH1 0x20 ADD PUSH0 KECCAK256 DUP1 SLOAD SWAP1 POP GT PUSH2 0x1B9E JUMPI PUSH1 0x40 MLOAD PUSH32 0x8C379A000000000000000000000000000000000000000000000000000000000 DUP2 MSTORE PUSH1 0x4 ADD PUSH2 0x1B95 SWAP1 PUSH2 0x39E2 JUMP JUMPDEST PUSH1 0x40 MLOAD DUP1 SWAP2 SUB SWAP1 REVERT JUMPDEST PUSH2 0x1BA6 PUSH2 0x2472 JUMP JUMPDEST PUSH1 0x6 SLOAD DUP4 PUSH2 0x1BB4 SWAP2 SWAP1 PUSH2 0x4581 JUMP JUMPDEST GT ISZERO PUSH2 0x1BF5 JUMPI PUSH1 0x40 MLOAD PUSH32 0x8C379A000000000000000000000000000000000000000000000000000000000 DUP2 MSTORE PUSH1 0x4 ADD PUSH2 0x1BEC SWAP1 PUSH2 0x4624 JUMP JUMPDEST PUSH1 0x40 MLOAD DUP1 SWAP2 SUB SWAP1 REVERT JUMPDEST DUP1 PUSH1 0x1 PUSH0 DUP6 PUSH20 0xFFFFFFFFFFFFFFFFFFFFFFFFFFFFFFFFFFFFFFFF AND PUSH20 0xFFFFFFFFFFFFFFFFFFFFFFFFFFFFFFFFFFFFFFFF AND DUP2 MSTORE PUSH1 0x20 ADD SWAP1 DUP2 MSTORE PUSH1 0x20 ADD PUSH0 KECCAK256 PUSH1 0x1 DUP1 PUSH0 DUP8 PUSH20 0xFFFFFFFFFFFFFFFFFFFFFFFFFFFFFFFFFFFFFFFF AND PUSH20 0xFFFFFFFFFFFFFFFFFFFFFFFFFFFFFFFFFFFFFFFF AND DUP2 MSTORE PUSH1 0x20 ADD SWAP1 DUP2 MSTORE PUSH1 0x20 ADD PUSH0 KECCAK256 DUP1 SLOAD SWAP1 POP PUSH2 0x1C7F SWAP2 SWAP1 PUSH2 0x3A5A JUMP JUMPDEST DUP2 SLOAD DUP2 LT PUSH2 0x1C90 JUMPI PUSH2 0x1C8F PUSH2 0x3A00 JUMP JUMPDEST JUMPDEST SWAP1 PUSH0 MSTORE PUSH1 0x20 PUSH0 KECCAK256 SWAP1 PUSH1 0x4 MUL ADD PUSH1 0x1 PUSH1 0x4 DUP2 LT PUSH2 0x1CAF JUMPI PUSH2 0x1CAE PUSH2 0x3A00 JUMP JUMPDEST JUMPDEST ADD SLOAD LT PUSH2 0x1CF1 JUMPI PUSH1 0x40 MLOAD PUSH32 0x8C379A000000000000000000000000000000000000000000000000000000000 DUP2 MSTORE PUSH1 0x4 ADD PUSH2 0x1CE8 SWAP1 PUSH2 0x46D8 JUMP JUMPDEST PUSH1 0x40 MLOAD DUP1 SWAP2 SUB SWAP1 REVERT JUMPDEST DUP1 PUSH2 0x1CFA PUSH2 0x24F7 JUMP JUMPDEST LT PUSH2 0x1D3A JUMPI PUSH1 0x40 MLOAD PUSH32 0x8C379A000000000000000000000000000000000000000000000000000000000 DUP2 MSTORE PUSH1 0x4 ADD PUSH2 0x1D31 SWAP1 PUSH2 0x4766 JUMP JUMPDEST PUSH1 0x40 MLOAD DUP1 SWAP2 SUB SWAP1 REVERT JUMPDEST PUSH0 DUP1 DUP4 PUSH1 0x6 PUSH0 DUP3 DUP3 SLOAD PUSH2 0x1D4D SWAP2 SWAP1 PUSH2 0x4581 JUMP JUMPDEST SWAP3 POP POP DUP2 SWAP1 SSTORE POP PUSH1 0x1 PUSH0 DUP7 PUSH20 0xFFFFFFFFFFFFFFFFFFFFFFFFFFFFFFFFFFFFFFFF AND PUSH20 0xFFFFFFFFFFFFFFFFFFFFFFFFFFFFFFFFFFFFFFFF AND DUP2 MSTORE PUSH1 0x20 ADD SWAP1 DUP2 MSTORE PUSH1 0x20 ADD PUSH0 KECCAK256 PUSH1 0x40 MLOAD DUP1 PUSH1 0x80 ADD PUSH1 0x40 MSTORE DUP1 DUP7 DUP2 MSTORE PUSH1 0x20 ADD DUP6 DUP2 MSTORE PUSH1 0x20 ADD DUP5 DUP2 MSTORE PUSH1 0x20 ADD DUP4 DUP2 MSTORE POP SWAP1 DUP1 PUSH1 0x1 DUP2 SLOAD ADD DUP1 DUP3 SSTORE DUP1 SWAP2 POP POP PUSH1 0x1 SWAP1 SUB SWAP1 PUSH0 MSTORE PUSH1 0x20 PUSH0 KECCAK256 SWAP1 PUSH1 0x4 MUL ADD PUSH0 SWAP1 SWAP2 SWAP1 SWAP2 SWAP1 SWAP2 POP SWAP1 PUSH1 0x4 PUSH2 0x1DE6 SWAP3 SWAP2 SWAP1 PUSH2 0x2E40 JUMP JUMPDEST POP POP POP POP POP POP JUMP JUMPDEST PUSH0 PUSH1 0x1 PUSH0 CALLER PUSH20 0xFFFFFFFFFFFFFFFFFFFFFFFFFFFFFFFFFFFFFFFF AND PUSH20 0xFFFFFFFFFFFFFFFFFFFFFFFFFFFFFFFFFFFFFFFF AND DUP2 MSTORE PUSH1 0x20 ADD SWAP1 DUP2 MSTORE PUSH1 0x20 ADD PUSH0 KECCAK256 DUP1 SLOAD SWAP1 POP GT PUSH2 0x1E70 JUMPI PUSH1 0x40 MLOAD PUSH32 0x8C379A000000000000000000000000000000000000000000000000000000000 DUP2 MSTORE PUSH1 0x4 ADD PUSH2 0x1E67 SWAP1 PUSH2 0x47F4 JUMP JUMPDEST PUSH1 0x40 MLOAD DUP1 SWAP2 SUB SWAP1 REVERT JUMPDEST PUSH1 0x60 PUSH1 0x1 PUSH0 CALLER PUSH20 0xFFFFFFFFFFFFFFFFFFFFFFFFFFFFFFFFFFFFFFFF AND PUSH20 0xFFFFFFFFFFFFFFFFFFFFFFFFFFFFFFFFFFFFFFFF AND DUP2 MSTORE PUSH1 0x20 ADD SWAP1 DUP2 MSTORE PUSH1 0x20 ADD PUSH0 KECCAK256 DUP1 SLOAD DUP1 PUSH1 0x20 MUL PUSH1 0x20 ADD PUSH1 0x40 MLOAD SWAP1 DUP2 ADD PUSH1 0x40 MSTORE DUP1 SWAP3 SWAP2 SWAP1 DUP2 DUP2 MSTORE PUSH1 0x20 ADD PUSH0 SWAP1 JUMPDEST DUP3 DUP3 LT ISZERO PUSH2 0x1F2F JUMPI DUP4 DUP3 SWAP1 PUSH0 MSTORE PUSH1 0x20 PUSH0 KECCAK256 SWAP1 PUSH1 0x4 MUL ADD PUSH1 0x4 DUP1 PUSH1 0x20 MUL PUSH1 0x40 MLOAD SWAP1 DUP2 ADD PUSH1 0x40 MSTORE DUP1 SWAP3 SWAP2 SWAP1 DUP3 PUSH1 0x4 DUP1 ISZERO PUSH2 0x1F1B JUMPI PUSH1 0x20 MUL DUP3 ADD SWAP2 JUMPDEST DUP2 SLOAD DUP2 MSTORE PUSH1 0x20 ADD SWAP1 PUSH1 0x1 ADD SWAP1 DUP1 DUP4 GT PUSH2 0x1F07 JUMPI JUMPDEST POP POP POP POP POP DUP2 MSTORE PUSH1 0x20 ADD SWAP1 PUSH1 0x1 ADD SWAP1 PUSH2 0x1ECE JUMP JUMPDEST POP POP POP POP SWAP1 POP PUSH1 0x1 PUSH0 CALLER PUSH20 0xFFFFFFFFFFFFFFFFFFFFFFFFFFFFFFFFFFFFFFFF AND PUSH20 0xFFFFFFFFFFFFFFFFFFFFFFFFFFFFFFFFFFFFFFFF AND DUP2 MSTORE PUSH1 0x20 ADD SWAP1 DUP2 MSTORE PUSH1 0x20 ADD PUSH0 KECCAK256 PUSH0 PUSH2 0x1F7D SWAP2 SWAP1 PUSH2 0x2E1F JUMP JUMPDEST DUP1 PUSH1 0x1 PUSH0 DUP5 PUSH20 0xFFFFFFFFFFFFFFFFFFFFFFFFFFFFFFFFFFFFFFFF AND PUSH20 0xFFFFFFFFFFFFFFFFFFFFFFFFFFFFFFFFFFFFFFFF AND DUP2 MSTORE PUSH1 0x20 ADD SWAP1 DUP2 MSTORE PUSH1 0x20 ADD PUSH0 KECCAK256 SWAP1 DUP1 MLOAD SWAP1 PUSH1 0x20 ADD SWAP1 PUSH2 0x1FCE SWAP3 SWAP2 SWAP1 PUSH2 0x2E80 JUMP JUMPDEST POP PUSH0 DUP1 PUSH0 SWAP1 POP JUMPDEST PUSH1 0x7 DUP1 SLOAD SWAP1 POP DUP2 LT ISZERO PUSH2 0x206B JUMPI PUSH0 CALLER SWAP1 POP PUSH1 0x7 DUP3 DUP2 SLOAD DUP2 LT PUSH2 0x1FFA JUMPI PUSH2 0x1FF9 PUSH2 0x3A00 JUMP JUMPDEST JUMPDEST SWAP1 PUSH0 MSTORE PUSH1 0x20 PUSH0 KECCAK256 ADD PUSH0 SWAP1 SLOAD SWAP1 PUSH2 0x100 EXP SWAP1 DIV PUSH20 0xFFFFFFFFFFFFFFFFFFFFFFFFFFFFFFFFFFFFFFFF AND PUSH20 0xFFFFFFFFFFFFFFFFFFFFFFFFFFFFFFFFFFFFFFFF AND DUP2 PUSH20 0xFFFFFFFFFFFFFFFFFFFFFFFFFFFFFFFFFFFFFFFF AND SUB PUSH2 0x205D JUMPI DUP2 SWAP3 POP POP PUSH2 0x206B JUMP JUMPDEST POP DUP1 DUP1 PUSH1 0x1 ADD SWAP2 POP POP PUSH2 0x1FD5 JUMP JUMPDEST POP DUP3 PUSH1 0x7 DUP3 DUP2 SLOAD DUP2 LT PUSH2 0x2081 JUMPI PUSH2 0x2080 PUSH2 0x3A00 JUMP JUMPDEST JUMPDEST SWAP1 PUSH0 MSTORE PUSH1 0x20 PUSH0 KECCAK256 ADD PUSH0 PUSH2 0x100 EXP DUP2 SLOAD DUP2 PUSH20 0xFFFFFFFFFFFFFFFFFFFFFFFFFFFFFFFFFFFFFFFF MUL NOT AND SWAP1 DUP4 PUSH20 0xFFFFFFFFFFFFFFFFFFFFFFFFFFFFFFFFFFFFFFFF AND MUL OR SWAP1 SSTORE POP PUSH1 0x4 CALLER SWAP1 DUP1 PUSH1 0x1 DUP2 SLOAD ADD DUP1 DUP3 SSTORE DUP1 SWAP2 POP POP PUSH1 0x1 SWAP1 SUB SWAP1 PUSH0 MSTORE PUSH1 0x20 PUSH0 KECCAK256 ADD PUSH0 SWAP1 SWAP2 SWAP1 SWAP2 SWAP1 SWAP2 PUSH2 0x100 EXP DUP2 SLOAD DUP2 PUSH20 0xFFFFFFFFFFFFFFFFFFFFFFFFFFFFFFFFFFFFFFFF MUL NOT AND SWAP1 DUP4 PUSH20 0xFFFFFFFFFFFFFFFFFFFFFFFFFFFFFFFFFFFFFFFF AND MUL OR SWAP1 SSTORE POP DUP3 PUSH1 0x3 PUSH0 CALLER PUSH20 0xFFFFFFFFFFFFFFFFFFFFFFFFFFFFFFFFFFFFFFFF AND PUSH20 0xFFFFFFFFFFFFFFFFFFFFFFFFFFFFFFFFFFFFFFFF AND DUP2 MSTORE PUSH1 0x20 ADD SWAP1 DUP2 MSTORE PUSH1 0x20 ADD PUSH0 KECCAK256 PUSH0 PUSH2 0x100 EXP DUP2 SLOAD DUP2 PUSH20 0xFFFFFFFFFFFFFFFFFFFFFFFFFFFFFFFFFFFFFFFF MUL NOT AND SWAP1 DUP4 PUSH20 0xFFFFFFFFFFFFFFFFFFFFFFFFFFFFFFFFFFFFFFFF AND MUL OR SWAP1 SSTORE POP POP POP POP JUMP JUMPDEST PUSH1 0x60 PUSH0 DUP1 JUMPDEST PUSH1 0x5 DUP1 SLOAD SWAP1 POP DUP2 LT ISZERO PUSH2 0x2242 JUMPI PUSH1 0x5 DUP2 DUP2 SLOAD DUP2 LT PUSH2 0x21CC JUMPI PUSH2 0x21CB PUSH2 0x3A00 JUMP JUMPDEST JUMPDEST SWAP1 PUSH0 MSTORE PUSH1 0x20 PUSH0 KECCAK256 ADD PUSH0 SWAP1 SLOAD SWAP1 PUSH2 0x100 EXP SWAP1 DIV PUSH20 0xFFFFFFFFFFFFFFFFFFFFFFFFFFFFFFFFFFFFFFFF AND PUSH20 0xFFFFFFFFFFFFFFFFFFFFFFFFFFFFFFFFFFFFFFFF AND DUP5 PUSH20 0xFFFFFFFFFFFFFFFFFFFFFFFFFFFFFFFFFFFFFFFF AND SUB PUSH2 0x2235 JUMPI DUP2 DUP1 PUSH2 0x2231 SWAP1 PUSH2 0x3A8D JUMP JUMPDEST SWAP3 POP POP JUMPDEST DUP1 DUP1 PUSH1 0x1 ADD SWAP2 POP POP PUSH2 0x21AB JUMP JUMPDEST POP PUSH0 DUP2 GT PUSH2 0x2285 JUMPI PUSH1 0x40 MLOAD PUSH32 0x8C379A000000000000000000000000000000000000000000000000000000000 DUP2 MSTORE PUSH1 0x4 ADD PUSH2 0x227C SWAP1 PUSH2 0x4882 JUMP JUMPDEST PUSH1 0x40 MLOAD DUP1 SWAP2 SUB SWAP1 REVERT JUMPDEST PUSH1 0x2 PUSH0 DUP5 PUSH20 0xFFFFFFFFFFFFFFFFFFFFFFFFFFFFFFFFFFFFFFFF AND PUSH20 0xFFFFFFFFFFFFFFFFFFFFFFFFFFFFFFFFFFFFFFFF AND DUP2 MSTORE PUSH1 0x20 ADD SWAP1 DUP2 MSTORE PUSH1 0x20 ADD PUSH0 KECCAK256 DUP1 SLOAD DUP1 PUSH1 0x20 MUL PUSH1 0x20 ADD PUSH1 0x40 MLOAD SWAP1 DUP2 ADD PUSH1 0x40 MSTORE DUP1 SWAP3 SWAP2 SWAP1 DUP2 DUP2 MSTORE PUSH1 0x20 ADD PUSH0 SWAP1 JUMPDEST DUP3 DUP3 LT ISZERO PUSH2 0x2389 JUMPI DUP4 DUP3 SWAP1 PUSH0 MSTORE PUSH1 0x20 PUSH0 KECCAK256 ADD DUP1 SLOAD PUSH2 0x22FE SWAP1 PUSH2 0x3D2A JUMP JUMPDEST DUP1 PUSH1 0x1F ADD PUSH1 0x20 DUP1 SWAP2 DIV MUL PUSH1 0x20 ADD PUSH1 0x40 MLOAD SWAP1 DUP2 ADD PUSH1 0x40 MSTORE DUP1 SWAP3 SWAP2 SWAP1 DUP2 DUP2 MSTORE PUSH1 0x20 ADD DUP3 DUP1 SLOAD PUSH2 0x232A SWAP1 PUSH2 0x3D2A JUMP JUMPDEST DUP1 ISZERO PUSH2 0x2375 JUMPI DUP1 PUSH1 0x1F LT PUSH2 0x234C JUMPI PUSH2 0x100 DUP1 DUP4 SLOAD DIV MUL DUP4 MSTORE SWAP2 PUSH1 0x20 ADD SWAP2 PUSH2 0x2375 JUMP JUMPDEST DUP3 ADD SWAP2 SWAP1 PUSH0 MSTORE PUSH1 0x20 PUSH0 KECCAK256 SWAP1 JUMPDEST DUP2 SLOAD DUP2 MSTORE SWAP1 PUSH1 0x1 ADD SWAP1 PUSH1 0x20 ADD DUP1 DUP4 GT PUSH2 0x2358 JUMPI DUP3 SWAP1 SUB PUSH1 0x1F AND DUP3 ADD SWAP2 JUMPDEST POP POP POP POP POP DUP2 MSTORE PUSH1 0x20 ADD SWAP1 PUSH1 0x1 ADD SWAP1 PUSH2 0x22E1 JUMP JUMPDEST POP POP POP POP SWAP2 POP POP SWAP2 SWAP1 POP JUMP JUMPDEST PUSH0 PUSH2 0x239E PUSH2 0x28B3 JUMP JUMPDEST DUP2 PUSH1 0x8 PUSH0 PUSH2 0x100 EXP DUP2 SLOAD DUP2 PUSH20 0xFFFFFFFFFFFFFFFFFFFFFFFFFFFFFFFFFFFFFFFF MUL NOT AND SWAP1 DUP4 PUSH20 0xFFFFFFFFFFFFFFFFFFFFFFFFFFFFFFFFFFFFFFFF AND MUL OR SWAP1 SSTORE POP PUSH1 0x1 SWAP1 POP SWAP2 SWAP1 POP JUMP JUMPDEST PUSH1 0x60 PUSH1 0x5 DUP1 SLOAD DUP1 PUSH1 0x20 MUL PUSH1 0x20 ADD PUSH1 0x40 MLOAD SWAP1 DUP2 ADD PUSH1 0x40 MSTORE DUP1 SWAP3 SWAP2 SWAP1 DUP2 DUP2 MSTORE PUSH1 0x20 ADD DUP3 DUP1 SLOAD DUP1 ISZERO PUSH2 0x2468 JUMPI PUSH1 0x20 MUL DUP3 ADD SWAP2 SWAP1 PUSH0 MSTORE PUSH1 0x20 PUSH0 KECCAK256 SWAP1 JUMPDEST DUP2 PUSH0 SWAP1 SLOAD SWAP1 PUSH2 0x100 EXP SWAP1 DIV PUSH20 0xFFFFFFFFFFFFFFFFFFFFFFFFFFFFFFFFFFFFFFFF AND PUSH20 0xFFFFFFFFFFFFFFFFFFFFFFFFFFFFFFFFFFFFFFFF AND DUP2 MSTORE PUSH1 0x20 ADD SWAP1 PUSH1 0x1 ADD SWAP1 DUP1 DUP4 GT PUSH2 0x241F JUMPI JUMPDEST POP POP POP POP POP SWAP1 POP SWAP1 JUMP JUMPDEST PUSH0 PUSH2 0x247B PUSH2 0x288C JUMP JUMPDEST PUSH20 0xFFFFFFFFFFFFFFFFFFFFFFFFFFFFFFFFFFFFFFFF AND PUSH4 0x70A08231 ADDRESS PUSH1 0x40 MLOAD DUP3 PUSH4 0xFFFFFFFF AND PUSH1 0xE0 SHL DUP2 MSTORE PUSH1 0x4 ADD PUSH2 0x24B3 SWAP2 SWAP1 PUSH2 0x2FBF JUMP JUMPDEST PUSH1 0x20 PUSH1 0x40 MLOAD DUP1 DUP4 SUB DUP2 DUP7 GAS STATICCALL ISZERO DUP1 ISZERO PUSH2 0x24CE JUMPI RETURNDATASIZE PUSH0 DUP1 RETURNDATACOPY RETURNDATASIZE PUSH0 REVERT JUMPDEST POP POP POP POP PUSH1 0x40 MLOAD RETURNDATASIZE PUSH1 0x1F NOT PUSH1 0x1F DUP3 ADD AND DUP3 ADD DUP1 PUSH1 0x40 MSTORE POP DUP2 ADD SWAP1 PUSH2 0x24F2 SWAP2 SWAP1 PUSH2 0x48B4 JUMP JUMPDEST SWAP1 POP SWAP1 JUMP JUMPDEST PUSH0 TIMESTAMP SWAP1 POP SWAP1 JUMP JUMPDEST PUSH2 0x2506 PUSH2 0x28B3 JUMP JUMPDEST PUSH0 PUSH20 0xFFFFFFFFFFFFFFFFFFFFFFFFFFFFFFFFFFFFFFFF AND DUP2 PUSH20 0xFFFFFFFFFFFFFFFFFFFFFFFFFFFFFFFFFFFFFFFF AND SUB PUSH2 0x2574 JUMPI PUSH1 0x40 MLOAD PUSH32 0x8C379A000000000000000000000000000000000000000000000000000000000 DUP2 MSTORE PUSH1 0x4 ADD PUSH2 0x256B SWAP1 PUSH2 0x494F JUMP JUMPDEST PUSH1 0x40 MLOAD DUP1 SWAP2 SUB SWAP1 REVERT JUMPDEST PUSH2 0x257D DUP2 PUSH2 0x2ACB JUMP JUMPDEST POP JUMP JUMPDEST PUSH2 0x2588 PUSH2 0x28B3 JUMP JUMPDEST DUP2 DUP2 SWAP1 POP DUP5 DUP5 SWAP1 POP EQ DUP1 ISZERO PUSH2 0x25A1 JUMPI POP PUSH1 0x1 DUP5 DUP5 SWAP1 POP LT ISZERO JUMPDEST PUSH2 0x25E0 JUMPI PUSH1 0x40 MLOAD PUSH32 0x8C379A000000000000000000000000000000000000000000000000000000000 DUP2 MSTORE PUSH1 0x4 ADD PUSH2 0x25D7 SWAP1 PUSH2 0x4A03 JUMP JUMPDEST PUSH1 0x40 MLOAD DUP1 SWAP2 SUB SWAP1 REVERT JUMPDEST PUSH0 PUSH1 0x1 PUSH0 DUP8 PUSH20 0xFFFFFFFFFFFFFFFFFFFFFFFFFFFFFFFFFFFFFFFF AND PUSH20 0xFFFFFFFFFFFFFFFFFFFFFFFFFFFFFFFFFFFFFFFF AND DUP2 MSTORE PUSH1 0x20 ADD SWAP1 DUP2 MSTORE PUSH1 0x20 ADD PUSH0 KECCAK256 DUP1 SLOAD SWAP1 POP EQ PUSH2 0x2662 JUMPI PUSH1 0x40 MLOAD PUSH32 0x8C379A000000000000000000000000000000000000000000000000000000000 DUP2 MSTORE PUSH1 0x4 ADD PUSH2 0x2659 SWAP1 PUSH2 0x4A6B JUMP JUMPDEST PUSH1 0x40 MLOAD DUP1 SWAP2 SUB SWAP1 REVERT JUMPDEST PUSH0 DUP1 PUSH0 JUMPDEST DUP7 DUP7 SWAP1 POP DUP2 LT ISZERO PUSH2 0x2822 JUMPI DUP5 DUP5 DUP3 DUP2 DUP2 LT PUSH2 0x2684 JUMPI PUSH2 0x2683 PUSH2 0x3A00 JUMP JUMPDEST JUMPDEST SWAP1 POP PUSH1 0x20 MUL ADD CALLDATALOAD PUSH2 0x2693 PUSH2 0x24F7 JUMP JUMPDEST LT PUSH2 0x26D3 JUMPI PUSH1 0x40 MLOAD PUSH32 0x8C379A000000000000000000000000000000000000000000000000000000000 DUP2 MSTORE PUSH1 0x4 ADD PUSH2 0x26CA SWAP1 PUSH2 0x4766 JUMP JUMPDEST PUSH1 0x40 MLOAD DUP1 SWAP2 SUB SWAP1 REVERT JUMPDEST DUP7 DUP7 DUP3 DUP2 DUP2 LT PUSH2 0x26E6 JUMPI PUSH2 0x26E5 PUSH2 0x3A00 JUMP JUMPDEST JUMPDEST SWAP1 POP PUSH1 0x20 MUL ADD CALLDATALOAD PUSH1 0x6 PUSH0 DUP3 DUP3 SLOAD PUSH2 0x26FD SWAP2 SWAP1 PUSH2 0x4581 JUMP JUMPDEST SWAP3 POP POP DUP2 SWAP1 SSTORE POP PUSH2 0x270C PUSH2 0x2472 JUMP JUMPDEST PUSH1 0x6 SLOAD GT ISZERO PUSH2 0x2750 JUMPI PUSH1 0x40 MLOAD PUSH32 0x8C379A000000000000000000000000000000000000000000000000000000000 DUP2 MSTORE PUSH1 0x4 ADD PUSH2 0x2747 SWAP1 PUSH2 0x4AF9 JUMP JUMPDEST PUSH1 0x40 MLOAD DUP1 SWAP2 SUB SWAP1 REVERT JUMPDEST PUSH1 0x1 PUSH0 DUP10 PUSH20 0xFFFFFFFFFFFFFFFFFFFFFFFFFFFFFFFFFFFFFFFF AND PUSH20 0xFFFFFFFFFFFFFFFFFFFFFFFFFFFFFFFFFFFFFFFF AND DUP2 MSTORE PUSH1 0x20 ADD SWAP1 DUP2 MSTORE PUSH1 0x20 ADD PUSH0 KECCAK256 PUSH1 0x40 MLOAD DUP1 PUSH1 0x80 ADD PUSH1 0x40 MSTORE DUP1 DUP10 DUP10 DUP6 DUP2 DUP2 LT PUSH2 0x27AB JUMPI PUSH2 0x27AA PUSH2 0x3A00 JUMP JUMPDEST JUMPDEST SWAP1 POP PUSH1 0x20 MUL ADD CALLDATALOAD DUP2 MSTORE PUSH1 0x20 ADD DUP8 DUP8 DUP6 DUP2 DUP2 LT PUSH2 0x27CA JUMPI PUSH2 0x27C9 PUSH2 0x3A00 JUMP JUMPDEST JUMPDEST SWAP1 POP PUSH1 0x20 MUL ADD CALLDATALOAD DUP2 MSTORE PUSH1 0x20 ADD DUP6 DUP2 MSTORE PUSH1 0x20 ADD DUP5 DUP2 MSTORE POP SWAP1 DUP1 PUSH1 0x1 DUP2 SLOAD ADD DUP1 DUP3 SSTORE DUP1 SWAP2 POP POP PUSH1 0x1 SWAP1 SUB SWAP1 PUSH0 MSTORE PUSH1 0x20 PUSH0 KECCAK256 SWAP1 PUSH1 0x4 MUL ADD PUSH0 SWAP1 SWAP2 SWAP1 SWAP2 SWAP1 SWAP2 POP SWAP1 PUSH1 0x4 PUSH2 0x2814 SWAP3 SWAP2 SWAP1 PUSH2 0x2E40 JUMP JUMPDEST POP DUP1 DUP1 PUSH1 0x1 ADD SWAP2 POP POP PUSH2 0x2666 JUMP JUMPDEST POP PUSH1 0x7 DUP8 SWAP1 DUP1 PUSH1 0x1 DUP2 SLOAD ADD DUP1 DUP3 SSTORE DUP1 SWAP2 POP POP PUSH1 0x1 SWAP1 SUB SWAP1 PUSH0 MSTORE PUSH1 0x20 PUSH0 KECCAK256 ADD PUSH0 SWAP1 SWAP2 SWAP1 SWAP2 SWAP1 SWAP2 PUSH2 0x100 EXP DUP2 SLOAD DUP2 PUSH20 0xFFFFFFFFFFFFFFFFFFFFFFFFFFFFFFFFFFFFFFFF MUL NOT AND SWAP1 DUP4 PUSH20 0xFFFFFFFFFFFFFFFFFFFFFFFFFFFFFFFFFFFFFFFF AND MUL OR SWAP1 SSTORE POP POP POP POP POP POP POP POP JUMP JUMPDEST PUSH0 PUSH32 0x0 SWAP1 POP SWAP1 JUMP JUMPDEST PUSH2 0x28BB PUSH2 0x2B8C JUMP JUMPDEST PUSH20 0xFFFFFFFFFFFFFFFFFFFFFFFFFFFFFFFFFFFFFFFF AND PUSH2 0x28D9 PUSH2 0x173A JUMP JUMPDEST PUSH20 0xFFFFFFFFFFFFFFFFFFFFFFFFFFFFFFFFFFFFFFFF AND EQ PUSH2 0x292F JUMPI PUSH1 0x40 MLOAD PUSH32 0x8C379A000000000000000000000000000000000000000000000000000000000 DUP2 MSTORE PUSH1 0x4 ADD PUSH2 0x2926 SWAP1 PUSH2 0x4B61 JUMP JUMPDEST PUSH1 0x40 MLOAD DUP1 SWAP2 SUB SWAP1 REVERT JUMPDEST JUMP JUMPDEST PUSH2 0x29B2 DUP4 PUSH4 0xA9059CBB PUSH1 0xE0 SHL DUP5 DUP5 PUSH1 0x40 MLOAD PUSH1 0x24 ADD PUSH2 0x2950 SWAP3 SWAP2 SWAP1 PUSH2 0x4B7F JUMP JUMPDEST PUSH1 0x40 MLOAD PUSH1 0x20 DUP2 DUP4 SUB SUB DUP2 MSTORE SWAP1 PUSH1 0x40 MSTORE SWAP1 PUSH28 0xFFFFFFFFFFFFFFFFFFFFFFFFFFFFFFFFFFFFFFFFFFFFFFFFFFFFFFFF NOT AND PUSH1 0x20 DUP3 ADD DUP1 MLOAD PUSH28 0xFFFFFFFFFFFFFFFFFFFFFFFFFFFFFFFFFFFFFFFFFFFFFFFFFFFFFFFF DUP4 DUP2 DUP4 AND OR DUP4 MSTORE POP POP POP POP PUSH2 0x2B93 JUMP JUMPDEST POP POP POP JUMP JUMPDEST PUSH0 DUP2 SWAP1 POP JUMPDEST PUSH1 0x1 PUSH1 0x7 DUP1 SLOAD SWAP1 POP PUSH2 0x29CE SWAP2 SWAP1 PUSH2 0x3A5A JUMP JUMPDEST DUP2 LT ISZERO PUSH2 0x2A83 JUMPI PUSH1 0x7 PUSH1 0x1 DUP3 PUSH2 0x29E4 SWAP2 SWAP1 PUSH2 0x4581 JUMP JUMPDEST DUP2 SLOAD DUP2 LT PUSH2 0x29F5 JUMPI PUSH2 0x29F4 PUSH2 0x3A00 JUMP JUMPDEST JUMPDEST SWAP1 PUSH0 MSTORE PUSH1 0x20 PUSH0 KECCAK256 ADD PUSH0 SWAP1 SLOAD SWAP1 PUSH2 0x100 EXP SWAP1 DIV PUSH20 0xFFFFFFFFFFFFFFFFFFFFFFFFFFFFFFFFFFFFFFFF AND PUSH1 0x7 DUP3 DUP2 SLOAD DUP2 LT PUSH2 0x2A31 JUMPI PUSH2 0x2A30 PUSH2 0x3A00 JUMP JUMPDEST JUMPDEST SWAP1 PUSH0 MSTORE PUSH1 0x20 PUSH0 KECCAK256 ADD PUSH0 PUSH2 0x100 EXP DUP2 SLOAD DUP2 PUSH20 0xFFFFFFFFFFFFFFFFFFFFFFFFFFFFFFFFFFFFFFFF MUL NOT AND SWAP1 DUP4 PUSH20 0xFFFFFFFFFFFFFFFFFFFFFFFFFFFFFFFFFFFFFFFF AND MUL OR SWAP1 SSTORE POP DUP1 DUP1 PUSH1 0x1 ADD SWAP2 POP POP PUSH2 0x29BC JUMP JUMPDEST POP PUSH1 0x7 DUP1 SLOAD DUP1 PUSH2 0x2A96 JUMPI PUSH2 0x2A95 PUSH2 0x3FBB JUMP JUMPDEST JUMPDEST PUSH1 0x1 SWAP1 SUB DUP2 DUP2 SWAP1 PUSH0 MSTORE PUSH1 0x20 PUSH0 KECCAK256 ADD PUSH0 PUSH2 0x100 EXP DUP2 SLOAD SWAP1 PUSH20 0xFFFFFFFFFFFFFFFFFFFFFFFFFFFFFFFFFFFFFFFF MUL NOT AND SWAP1 SSTORE SWAP1 SSTORE POP JUMP JUMPDEST PUSH0 DUP1 PUSH0 SWAP1 SLOAD SWAP1 PUSH2 0x100 EXP SWAP1 DIV PUSH20 0xFFFFFFFFFFFFFFFFFFFFFFFFFFFFFFFFFFFFFFFF AND SWAP1 POP DUP2 PUSH0 DUP1 PUSH2 0x100 EXP DUP2 SLOAD DUP2 PUSH20 0xFFFFFFFFFFFFFFFFFFFFFFFFFFFFFFFFFFFFFFFF MUL NOT AND SWAP1 DUP4 PUSH20 0xFFFFFFFFFFFFFFFFFFFFFFFFFFFFFFFFFFFFFFFF AND MUL OR SWAP1 SSTORE POP DUP2 PUSH20 0xFFFFFFFFFFFFFFFFFFFFFFFFFFFFFFFFFFFFFFFF AND DUP2 PUSH20 0xFFFFFFFFFFFFFFFFFFFFFFFFFFFFFFFFFFFFFFFF AND PUSH32 0x8BE0079C531659141344CD1FD0A4F28419497F9722A3DAAFE3B4186F6B6457E0 PUSH1 0x40 MLOAD PUSH1 0x40 MLOAD DUP1 SWAP2 SUB SWAP1 LOG3 POP POP JUMP JUMPDEST PUSH0 CALLER SWAP1 POP SWAP1 JUMP JUMPDEST PUSH0 PUSH2 0x2BF4 DUP3 PUSH1 0x40 MLOAD DUP1 PUSH1 0x40 ADD PUSH1 0x40 MSTORE DUP1 PUSH1 0x20 DUP2 MSTORE PUSH1 0x20 ADD PUSH32 0x5361666545524332303A206C6F772D6C6576656C2063616C6C206661696C6564 DUP2 MSTORE POP DUP6 PUSH20 0xFFFFFFFFFFFFFFFFFFFFFFFFFFFFFFFFFFFFFFFF AND PUSH2 0x2C58 SWAP1 SWAP3 SWAP2 SWAP1 PUSH4 0xFFFFFFFF AND JUMP JUMPDEST SWAP1 POP PUSH0 DUP2 MLOAD GT ISZERO PUSH2 0x2C53 JUMPI DUP1 DUP1 PUSH1 0x20 ADD SWAP1 MLOAD DUP2 ADD SWAP1 PUSH2 0x2C13 SWAP2 SWAP1 PUSH2 0x4BBA JUMP JUMPDEST PUSH2 0x2C52 JUMPI PUSH1 0x40 MLOAD PUSH32 0x8C379A000000000000000000000000000000000000000000000000000000000 DUP2 MSTORE PUSH1 0x4 ADD PUSH2 0x2C49 SWAP1 PUSH2 0x4C55 JUMP JUMPDEST PUSH1 0x40 MLOAD DUP1 SWAP2 SUB SWAP1 REVERT JUMPDEST JUMPDEST POP POP POP JUMP JUMPDEST PUSH1 0x60 PUSH2 0x2C66 DUP5 DUP5 PUSH0 DUP6 PUSH2 0x2C6F JUMP JUMPDEST SWAP1 POP SWAP4 SWAP3 POP POP POP JUMP JUMPDEST PUSH1 0x60 DUP3 SELFBALANCE LT ISZERO PUSH2 0x2CB4 JUMPI PUSH1 0x40 MLOAD PUSH32 0x8C379A000000000000000000000000000000000000000000000000000000000 DUP2 MSTORE PUSH1 0x4 ADD PUSH2 0x2CAB SWAP1 PUSH2 0x4CE3 JUMP JUMPDEST PUSH1 0x40 MLOAD DUP1 SWAP2 SUB SWAP1 REVERT JUMPDEST PUSH2 0x2CBD DUP6 PUSH2 0x2D7F JUMP JUMPDEST PUSH2 0x2CFC JUMPI PUSH1 0x40 MLOAD PUSH32 0x8C379A000000000000000000000000000000000000000000000000000000000 DUP2 MSTORE PUSH1 0x4 ADD PUSH2 0x2CF3 SWAP1 PUSH2 0x4D4B JUMP JUMPDEST PUSH1 0x40 MLOAD DUP1 SWAP2 SUB SWAP1 REVERT JUMPDEST PUSH0 DUP1 DUP7 PUSH20 0xFFFFFFFFFFFFFFFFFFFFFFFFFFFFFFFFFFFFFFFF AND DUP6 DUP8 PUSH1 0x40 MLOAD PUSH2 0x2D24 SWAP2 SWAP1 PUSH2 0x4DAD JUMP JUMPDEST PUSH0 PUSH1 0x40 MLOAD DUP1 DUP4 SUB DUP2 DUP6 DUP8 GAS CALL SWAP3 POP POP POP RETURNDATASIZE DUP1 PUSH0 DUP2 EQ PUSH2 0x2D5E JUMPI PUSH1 0x40 MLOAD SWAP2 POP PUSH1 0x1F NOT PUSH1 0x3F RETURNDATASIZE ADD AND DUP3 ADD PUSH1 0x40 MSTORE RETURNDATASIZE DUP3 MSTORE RETURNDATASIZE PUSH0 PUSH1 0x20 DUP5 ADD RETURNDATACOPY PUSH2 0x2D63 JUMP JUMPDEST PUSH1 0x60 SWAP2 POP JUMPDEST POP SWAP2 POP SWAP2 POP PUSH2 0x2D73 DUP3 DUP3 DUP7 PUSH2 0x2DA1 JUMP JUMPDEST SWAP3 POP POP POP SWAP5 SWAP4 POP POP POP POP JUMP JUMPDEST PUSH0 DUP1 DUP3 PUSH20 0xFFFFFFFFFFFFFFFFFFFFFFFFFFFFFFFFFFFFFFFF AND EXTCODESIZE GT SWAP1 POP SWAP2 SWAP1 POP JUMP JUMPDEST PUSH1 0x60 DUP4 ISZERO PUSH2 0x2DB1 JUMPI DUP3 SWAP1 POP PUSH2 0x2E00 JUMP JUMPDEST PUSH0 DUP4 MLOAD GT ISZERO PUSH2 0x2DC3 JUMPI DUP3 MLOAD DUP1 DUP5 PUSH1 0x20 ADD REVERT JUMPDEST DUP2 PUSH1 0x40 MLOAD PUSH32 0x8C379A000000000000000000000000000000000000000000000000000000000 DUP2 MSTORE PUSH1 0x4 ADD PUSH2 0x2DF7 SWAP2 SWAP1 PUSH2 0x35B8 JUMP JUMPDEST PUSH1 0x40 MLOAD DUP1 SWAP2 SUB SWAP1 REVERT JUMPDEST SWAP4 SWAP3 POP POP POP JUMP JUMPDEST POP PUSH0 DUP2 SSTORE PUSH1 0x1 ADD PUSH0 DUP2 SSTORE PUSH1 0x1 ADD PUSH0 DUP2 SSTORE PUSH1 0x1 ADD PUSH0 SWAP1 SSTORE JUMP JUMPDEST POP DUP1 SLOAD PUSH0 DUP3 SSTORE PUSH1 0x4 MUL SWAP1 PUSH0 MSTORE PUSH1 0x20 PUSH0 KECCAK256 SWAP1 DUP2 ADD SWAP1 PUSH2 0x2E3D SWAP2 SWAP1 PUSH2 0x2EDC JUMP JUMPDEST POP JUMP JUMPDEST DUP3 PUSH1 0x4 DUP2 ADD SWAP3 DUP3 ISZERO PUSH2 0x2E6F JUMPI SWAP2 PUSH1 0x20 MUL DUP3 ADD JUMPDEST DUP3 DUP2 GT ISZERO PUSH2 0x2E6E JUMPI DUP3 MLOAD DUP3 SSTORE SWAP2 PUSH1 0x20 ADD SWAP2 SWAP1 PUSH1 0x1 ADD SWAP1 PUSH2 0x2E53 JUMP JUMPDEST JUMPDEST POP SWAP1 POP PUSH2 0x2E7C SWAP2 SWAP1 PUSH2 0x2EFF JUMP JUMPDEST POP SWAP1 JUMP JUMPDEST DUP3 DUP1 SLOAD DUP3 DUP3 SSTORE SWAP1 PUSH0 MSTORE PUSH1 0x20 PUSH0 KECCAK256 SWAP1 PUSH1 0x4 MUL DUP2 ADD SWAP3 DUP3 ISZERO PUSH2 0x2ECB JUMPI SWAP2 PUSH1 0x20 MUL DUP3 ADD JUMPDEST DUP3 DUP2 GT ISZERO PUSH2 0x2ECA JUMPI DUP3 MLOAD DUP3 SWAP1 PUSH1 0x4 PUSH2 0x2EBA SWAP3 SWAP2 SWAP1 PUSH2 0x2E40 JUMP JUMPDEST POP SWAP2 PUSH1 0x20 ADD SWAP2 SWAP1 PUSH1 0x4 ADD SWAP1 PUSH2 0x2EA1 JUMP JUMPDEST JUMPDEST POP SWAP1 POP PUSH2 0x2ED8 SWAP2 SWAP1 PUSH2 0x2EDC JUMP JUMPDEST POP SWAP1 JUMP JUMPDEST JUMPDEST DUP1 DUP3 GT ISZERO PUSH2 0x2EFB JUMPI PUSH0 DUP2 DUP2 PUSH2 0x2EF2 SWAP2 SWAP1 PUSH2 0x2E07 JUMP JUMPDEST POP PUSH1 0x4 ADD PUSH2 0x2EDD JUMP JUMPDEST POP SWAP1 JUMP JUMPDEST JUMPDEST DUP1 DUP3 GT ISZERO PUSH2 0x2F16 JUMPI PUSH0 DUP2 PUSH0 SWAP1 SSTORE POP PUSH1 0x1 ADD PUSH2 0x2F00 JUMP JUMPDEST POP SWAP1 JUMP JUMPDEST PUSH0 PUSH1 0x40 MLOAD SWAP1 POP SWAP1 JUMP JUMPDEST PUSH0 DUP1 REVERT JUMPDEST PUSH0 DUP1 REVERT JUMPDEST PUSH0 PUSH20 0xFFFFFFFFFFFFFFFFFFFFFFFFFFFFFFFFFFFFFFFF DUP3 AND SWAP1 POP SWAP2 SWAP1 POP JUMP JUMPDEST PUSH0 PUSH2 0x2F54 DUP3 PUSH2 0x2F2B JUMP JUMPDEST SWAP1 POP SWAP2 SWAP1 POP JUMP JUMPDEST PUSH2 0x2F64 DUP2 PUSH2 0x2F4A JUMP JUMPDEST DUP2 EQ PUSH2 0x2F6E JUMPI PUSH0 DUP1 REVERT JUMPDEST POP JUMP JUMPDEST PUSH0 DUP2 CALLDATALOAD SWAP1 POP PUSH2 0x2F7F DUP2 PUSH2 0x2F5B JUMP JUMPDEST SWAP3 SWAP2 POP POP JUMP JUMPDEST PUSH0 PUSH1 0x20 DUP3 DUP5 SUB SLT ISZERO PUSH2 0x2F9A JUMPI PUSH2 0x2F99 PUSH2 0x2F23 JUMP JUMPDEST JUMPDEST PUSH0 PUSH2 0x2FA7 DUP5 DUP3 DUP6 ADD PUSH2 0x2F71 JUMP JUMPDEST SWAP2 POP POP SWAP3 SWAP2 POP POP JUMP JUMPDEST PUSH2 0x2FB9 DUP2 PUSH2 0x2F4A JUMP JUMPDEST DUP3 MSTORE POP POP JUMP JUMPDEST PUSH0 PUSH1 0x20 DUP3 ADD SWAP1 POP PUSH2 0x2FD2 PUSH0 DUP4 ADD DUP5 PUSH2 0x2FB0 JUMP JUMPDEST SWAP3 SWAP2 POP POP JUMP JUMPDEST PUSH0 DUP1 REVERT JUMPDEST PUSH0 DUP1 REVERT JUMPDEST PUSH0 DUP1 REVERT JUMPDEST PUSH0 DUP1 DUP4 PUSH1 0x1F DUP5 ADD SLT PUSH2 0x2FF9 JUMPI PUSH2 0x2FF8 PUSH2 0x2FD8 JUMP JUMPDEST JUMPDEST DUP3 CALLDATALOAD SWAP1 POP PUSH8 0xFFFFFFFFFFFFFFFF DUP2 GT ISZERO PUSH2 0x3016 JUMPI PUSH2 0x3015 PUSH2 0x2FDC JUMP JUMPDEST JUMPDEST PUSH1 0x20 DUP4 ADD SWAP2 POP DUP4 PUSH1 0x1 DUP3 MUL DUP4 ADD GT ISZERO PUSH2 0x3032 JUMPI PUSH2 0x3031 PUSH2 0x2FE0 JUMP JUMPDEST JUMPDEST SWAP3 POP SWAP3 SWAP1 POP JUMP JUMPDEST PUSH0 DUP2 ISZERO ISZERO SWAP1 POP SWAP2 SWAP1 POP JUMP JUMPDEST PUSH2 0x304D DUP2 PUSH2 0x3039 JUMP JUMPDEST DUP2 EQ PUSH2 0x3057 JUMPI PUSH0 DUP1 REVERT JUMPDEST POP JUMP JUMPDEST PUSH0 DUP2 CALLDATALOAD SWAP1 POP PUSH2 0x3068 DUP2 PUSH2 0x3044 JUMP JUMPDEST SWAP3 SWAP2 POP POP JUMP JUMPDEST PUSH0 DUP1 PUSH0 DUP1 PUSH1 0x60 DUP6 DUP8 SUB SLT ISZERO PUSH2 0x3086 JUMPI PUSH2 0x3085 PUSH2 0x2F23 JUMP JUMPDEST JUMPDEST PUSH0 PUSH2 0x3093 DUP8 DUP3 DUP9 ADD PUSH2 0x2F71 JUMP JUMPDEST SWAP5 POP POP PUSH1 0x20 DUP6 ADD CALLDATALOAD PUSH8 0xFFFFFFFFFFFFFFFF DUP2 GT ISZERO PUSH2 0x30B4 JUMPI PUSH2 0x30B3 PUSH2 0x2F27 JUMP JUMPDEST JUMPDEST PUSH2 0x30C0 DUP8 DUP3 DUP9 ADD PUSH2 0x2FE4 JUMP JUMPDEST SWAP4 POP SWAP4 POP POP PUSH1 0x40 PUSH2 0x30D3 DUP8 DUP3 DUP9 ADD PUSH2 0x305A JUMP JUMPDEST SWAP2 POP POP SWAP3 SWAP6 SWAP2 SWAP5 POP SWAP3 POP JUMP JUMPDEST PUSH0 DUP2 SWAP1 POP SWAP2 SWAP1 POP JUMP JUMPDEST PUSH2 0x30F1 DUP2 PUSH2 0x30DF JUMP JUMPDEST DUP3 MSTORE POP POP JUMP JUMPDEST PUSH0 PUSH1 0x20 DUP3 ADD SWAP1 POP PUSH2 0x310A PUSH0 DUP4 ADD DUP5 PUSH2 0x30E8 JUMP JUMPDEST SWAP3 SWAP2 POP POP JUMP JUMPDEST PUSH0 DUP1 DUP4 PUSH1 0x1F DUP5 ADD SLT PUSH2 0x3125 JUMPI PUSH2 0x3124 PUSH2 0x2FD8 JUMP JUMPDEST JUMPDEST DUP3 CALLDATALOAD SWAP1 POP PUSH8 0xFFFFFFFFFFFFFFFF DUP2 GT ISZERO PUSH2 0x3142 JUMPI PUSH2 0x3141 PUSH2 0x2FDC JUMP JUMPDEST JUMPDEST PUSH1 0x20 DUP4 ADD SWAP2 POP DUP4 PUSH1 0x20 DUP3 MUL DUP4 ADD GT ISZERO PUSH2 0x315E JUMPI PUSH2 0x315D PUSH2 0x2FE0 JUMP JUMPDEST JUMPDEST SWAP3 POP SWAP3 SWAP1 POP JUMP JUMPDEST PUSH0 DUP1 DUP4 PUSH1 0x1F DUP5 ADD SLT PUSH2 0x317A JUMPI PUSH2 0x3179 PUSH2 0x2FD8 JUMP JUMPDEST JUMPDEST DUP3 CALLDATALOAD SWAP1 POP PUSH8 0xFFFFFFFFFFFFFFFF DUP2 GT ISZERO PUSH2 0x3197 JUMPI PUSH2 0x3196 PUSH2 0x2FDC JUMP JUMPDEST JUMPDEST PUSH1 0x20 DUP4 ADD SWAP2 POP DUP4 PUSH1 0x20 DUP3 MUL DUP4 ADD GT ISZERO PUSH2 0x31B3 JUMPI PUSH2 0x31B2 PUSH2 0x2FE0 JUMP JUMPDEST JUMPDEST SWAP3 POP SWAP3 SWAP1 POP JUMP JUMPDEST PUSH0 DUP1 PUSH0 DUP1 PUSH1 0x40 DUP6 DUP8 SUB SLT ISZERO PUSH2 0x31D2 JUMPI PUSH2 0x31D1 PUSH2 0x2F23 JUMP JUMPDEST JUMPDEST PUSH0 DUP6 ADD CALLDATALOAD PUSH8 0xFFFFFFFFFFFFFFFF DUP2 GT ISZERO PUSH2 0x31EF JUMPI PUSH2 0x31EE PUSH2 0x2F27 JUMP JUMPDEST JUMPDEST PUSH2 0x31FB DUP8 DUP3 DUP9 ADD PUSH2 0x3110 JUMP JUMPDEST SWAP5 POP SWAP5 POP POP PUSH1 0x20 DUP6 ADD CALLDATALOAD PUSH8 0xFFFFFFFFFFFFFFFF DUP2 GT ISZERO PUSH2 0x321E JUMPI PUSH2 0x321D PUSH2 0x2F27 JUMP JUMPDEST JUMPDEST PUSH2 0x322A DUP8 DUP3 DUP9 ADD PUSH2 0x3165 JUMP JUMPDEST SWAP3 POP SWAP3 POP POP SWAP3 SWAP6 SWAP2 SWAP5 POP SWAP3 POP JUMP JUMPDEST PUSH0 DUP2 MLOAD SWAP1 POP SWAP2 SWAP1 POP JUMP JUMPDEST PUSH0 DUP3 DUP3 MSTORE PUSH1 0x20 DUP3 ADD SWAP1 POP SWAP3 SWAP2 POP POP JUMP JUMPDEST PUSH0 DUP2 SWAP1 POP PUSH1 0x20 DUP3 ADD SWAP1 POP SWAP2 SWAP1 POP JUMP JUMPDEST PUSH2 0x326A DUP2 PUSH2 0x2F4A JUMP JUMPDEST DUP3 MSTORE POP POP JUMP JUMPDEST PUSH0 PUSH2 0x327B DUP4 DUP4 PUSH2 0x3261 JUMP JUMPDEST PUSH1 0x20 DUP4 ADD SWAP1 POP SWAP3 SWAP2 POP POP JUMP JUMPDEST PUSH0 PUSH1 0x20 DUP3 ADD SWAP1 POP SWAP2 SWAP1 POP JUMP JUMPDEST PUSH0 PUSH2 0x329D DUP3 PUSH2 0x3238 JUMP JUMPDEST PUSH2 0x32A7 DUP2 DUP6 PUSH2 0x3242 JUMP JUMPDEST SWAP4 POP PUSH2 0x32B2 DUP4 PUSH2 0x3252 JUMP JUMPDEST DUP1 PUSH0 JUMPDEST DUP4 DUP2 LT ISZERO PUSH2 0x32E2 JUMPI DUP2 MLOAD PUSH2 0x32C9 DUP9 DUP3 PUSH2 0x3270 JUMP JUMPDEST SWAP8 POP PUSH2 0x32D4 DUP4 PUSH2 0x3287 JUMP JUMPDEST SWAP3 POP POP PUSH1 0x1 DUP2 ADD SWAP1 POP PUSH2 0x32B5 JUMP JUMPDEST POP DUP6 SWAP4 POP POP POP POP SWAP3 SWAP2 POP POP JUMP JUMPDEST PUSH0 PUSH1 0x20 DUP3 ADD SWAP1 POP DUP2 DUP2 SUB PUSH0 DUP4 ADD MSTORE PUSH2 0x3307 DUP2 DUP5 PUSH2 0x3293 JUMP JUMPDEST SWAP1 POP SWAP3 SWAP2 POP POP JUMP JUMPDEST PUSH0 DUP2 MLOAD SWAP1 POP SWAP2 SWAP1 POP JUMP JUMPDEST PUSH0 DUP3 DUP3 MSTORE PUSH1 0x20 DUP3 ADD SWAP1 POP SWAP3 SWAP2 POP POP JUMP JUMPDEST PUSH0 DUP2 SWAP1 POP PUSH1 0x20 DUP3 ADD SWAP1 POP SWAP2 SWAP1 POP JUMP JUMPDEST PUSH0 PUSH1 0x4 SWAP1 POP SWAP2 SWAP1 POP JUMP JUMPDEST PUSH0 DUP2 SWAP1 POP SWAP3 SWAP2 POP POP JUMP JUMPDEST PUSH0 DUP2 SWAP1 POP SWAP2 SWAP1 POP JUMP JUMPDEST PUSH2 0x335E DUP2 PUSH2 0x30DF JUMP JUMPDEST DUP3 MSTORE POP POP JUMP JUMPDEST PUSH0 PUSH2 0x336F DUP4 DUP4 PUSH2 0x3355 JUMP JUMPDEST PUSH1 0x20 DUP4 ADD SWAP1 POP SWAP3 SWAP2 POP POP JUMP JUMPDEST PUSH0 PUSH1 0x20 DUP3 ADD SWAP1 POP SWAP2 SWAP1 POP JUMP JUMPDEST PUSH2 0x3390 DUP2 PUSH2 0x3338 JUMP JUMPDEST PUSH2 0x339A DUP2 DUP5 PUSH2 0x3342 JUMP JUMPDEST SWAP3 POP PUSH2 0x33A5 DUP3 PUSH2 0x334C JUMP JUMPDEST DUP1 PUSH0 JUMPDEST DUP4 DUP2 LT ISZERO PUSH2 0x33D5 JUMPI DUP2 MLOAD PUSH2 0x33BC DUP8 DUP3 PUSH2 0x3364 JUMP JUMPDEST SWAP7 POP PUSH2 0x33C7 DUP4 PUSH2 0x337B JUMP JUMPDEST SWAP3 POP POP PUSH1 0x1 DUP2 ADD SWAP1 POP PUSH2 0x33A8 JUMP JUMPDEST POP POP POP POP POP POP JUMP JUMPDEST PUSH0 PUSH2 0x33E8 DUP4 DUP4 PUSH2 0x3387 JUMP JUMPDEST PUSH1 0x80 DUP4 ADD SWAP1 POP SWAP3 SWAP2 POP POP JUMP JUMPDEST PUSH0 PUSH1 0x20 DUP3 ADD SWAP1 POP SWAP2 SWAP1 POP JUMP JUMPDEST PUSH0 PUSH2 0x340A DUP3 PUSH2 0x330F JUMP JUMPDEST PUSH2 0x3414 DUP2 DUP6 PUSH2 0x3319 JUMP JUMPDEST SWAP4 POP PUSH2 0x341F DUP4 PUSH2 0x3329 JUMP JUMPDEST DUP1 PUSH0 JUMPDEST DUP4 DUP2 LT ISZERO PUSH2 0x344F JUMPI DUP2 MLOAD PUSH2 0x3436 DUP9 DUP3 PUSH2 0x33DD JUMP JUMPDEST SWAP8 POP PUSH2 0x3441 DUP4 PUSH2 0x33F4 JUMP JUMPDEST SWAP3 POP POP PUSH1 0x1 DUP2 ADD SWAP1 POP PUSH2 0x3422 JUMP JUMPDEST POP DUP6 SWAP4 POP POP POP POP SWAP3 SWAP2 POP POP JUMP JUMPDEST PUSH0 PUSH1 0x20 DUP3 ADD SWAP1 POP DUP2 DUP2 SUB PUSH0 DUP4 ADD MSTORE PUSH2 0x3474 DUP2 DUP5 PUSH2 0x3400 JUMP JUMPDEST SWAP1 POP SWAP3 SWAP2 POP POP JUMP JUMPDEST PUSH0 DUP1 DUP4 PUSH1 0x1F DUP5 ADD SLT PUSH2 0x3491 JUMPI PUSH2 0x3490 PUSH2 0x2FD8 JUMP JUMPDEST JUMPDEST DUP3 CALLDATALOAD SWAP1 POP PUSH8 0xFFFFFFFFFFFFFFFF DUP2 GT ISZERO PUSH2 0x34AE JUMPI PUSH2 0x34AD PUSH2 0x2FDC JUMP JUMPDEST JUMPDEST PUSH1 0x20 DUP4 ADD SWAP2 POP DUP4 PUSH1 0x20 DUP3 MUL DUP4 ADD GT ISZERO PUSH2 0x34CA JUMPI PUSH2 0x34C9 PUSH2 0x2FE0 JUMP JUMPDEST JUMPDEST SWAP3 POP SWAP3 SWAP1 POP JUMP JUMPDEST PUSH0 DUP1 PUSH0 PUSH1 0x40 DUP5 DUP7 SUB SLT ISZERO PUSH2 0x34E8 JUMPI PUSH2 0x34E7 PUSH2 0x2F23 JUMP JUMPDEST JUMPDEST PUSH0 PUSH2 0x34F5 DUP7 DUP3 DUP8 ADD PUSH2 0x2F71 JUMP JUMPDEST SWAP4 POP POP PUSH1 0x20 DUP5 ADD CALLDATALOAD PUSH8 0xFFFFFFFFFFFFFFFF DUP2 GT ISZERO PUSH2 0x3516 JUMPI PUSH2 0x3515 PUSH2 0x2F27 JUMP JUMPDEST JUMPDEST PUSH2 0x3522 DUP7 DUP3 DUP8 ADD PUSH2 0x347C JUMP JUMPDEST SWAP3 POP SWAP3 POP POP SWAP3 POP SWAP3 POP SWAP3 JUMP JUMPDEST PUSH0 DUP2 MLOAD SWAP1 POP SWAP2 SWAP1 POP JUMP JUMPDEST PUSH0 DUP3 DUP3 MSTORE PUSH1 0x20 DUP3 ADD SWAP1 POP SWAP3 SWAP2 POP POP JUMP JUMPDEST PUSH0 JUMPDEST DUP4 DUP2 LT ISZERO PUSH2 0x3565 JUMPI DUP1 DUP3 ADD MLOAD DUP2 DUP5 ADD MSTORE PUSH1 0x20 DUP2 ADD SWAP1 POP PUSH2 0x354A JUMP JUMPDEST PUSH0 DUP5 DUP5 ADD MSTORE POP POP POP POP JUMP JUMPDEST PUSH0 PUSH1 0x1F NOT PUSH1 0x1F DUP4 ADD AND SWAP1 POP SWAP2 SWAP1 POP JUMP JUMPDEST PUSH0 PUSH2 0x358A DUP3 PUSH2 0x352E JUMP JUMPDEST PUSH2 0x3594 DUP2 DUP6 PUSH2 0x3538 JUMP JUMPDEST SWAP4 POP PUSH2 0x35A4 DUP2 DUP6 PUSH1 0x20 DUP7 ADD PUSH2 0x3548 JUMP JUMPDEST PUSH2 0x35AD DUP2 PUSH2 0x3570 JUMP JUMPDEST DUP5 ADD SWAP2 POP POP SWAP3 SWAP2 POP POP JUMP JUMPDEST PUSH0 PUSH1 0x20 DUP3 ADD SWAP1 POP DUP2 DUP2 SUB PUSH0 DUP4 ADD MSTORE PUSH2 0x35D0 DUP2 DUP5 PUSH2 0x3580 JUMP JUMPDEST SWAP1 POP SWAP3 SWAP2 POP POP JUMP JUMPDEST PUSH2 0x35E1 DUP2 PUSH2 0x30DF JUMP JUMPDEST DUP2 EQ PUSH2 0x35EB JUMPI PUSH0 DUP1 REVERT JUMPDEST POP JUMP JUMPDEST PUSH0 DUP2 CALLDATALOAD SWAP1 POP PUSH2 0x35FC DUP2 PUSH2 0x35D8 JUMP JUMPDEST SWAP3 SWAP2 POP POP JUMP JUMPDEST PUSH0 DUP1 PUSH0 PUSH1 0x60 DUP5 DUP7 SUB SLT ISZERO PUSH2 0x3619 JUMPI PUSH2 0x3618 PUSH2 0x2F23 JUMP JUMPDEST JUMPDEST PUSH0 PUSH2 0x3626 DUP7 DUP3 DUP8 ADD PUSH2 0x2F71 JUMP JUMPDEST SWAP4 POP POP PUSH1 0x20 PUSH2 0x3637 DUP7 DUP3 DUP8 ADD PUSH2 0x35EE JUMP JUMPDEST SWAP3 POP POP PUSH1 0x40 PUSH2 0x3648 DUP7 DUP3 DUP8 ADD PUSH2 0x35EE JUMP JUMPDEST SWAP2 POP POP SWAP3 POP SWAP3 POP SWAP3 JUMP JUMPDEST PUSH0 DUP2 MLOAD SWAP1 POP SWAP2 SWAP1 POP JUMP JUMPDEST PUSH0 DUP3 DUP3 MSTORE PUSH1 0x20 DUP3 ADD SWAP1 POP SWAP3 SWAP2 POP POP JUMP JUMPDEST PUSH0 DUP2 SWAP1 POP PUSH1 0x20 DUP3 ADD SWAP1 POP SWAP2 SWAP1 POP JUMP JUMPDEST PUSH0 DUP3 DUP3 MSTORE PUSH1 0x20 DUP3 ADD SWAP1 POP SWAP3 SWAP2 POP POP JUMP JUMPDEST PUSH0 PUSH2 0x3695 DUP3 PUSH2 0x352E JUMP JUMPDEST PUSH2 0x369F DUP2 DUP6 PUSH2 0x367B JUMP JUMPDEST SWAP4 POP PUSH2 0x36AF DUP2 DUP6 PUSH1 0x20 DUP7 ADD PUSH2 0x3548 JUMP JUMPDEST PUSH2 0x36B8 DUP2 PUSH2 0x3570 JUMP JUMPDEST DUP5 ADD SWAP2 POP POP SWAP3 SWAP2 POP POP JUMP JUMPDEST PUSH0 PUSH2 0x36CE DUP4 DUP4 PUSH2 0x368B JUMP JUMPDEST SWAP1 POP SWAP3 SWAP2 POP POP JUMP JUMPDEST PUSH0 PUSH1 0x20 DUP3 ADD SWAP1 POP SWAP2 SWAP1 POP JUMP JUMPDEST PUSH0 PUSH2 0x36EC DUP3 PUSH2 0x3652 JUMP JUMPDEST PUSH2 0x36F6 DUP2 DUP6 PUSH2 0x365C JUMP JUMPDEST SWAP4 POP DUP4 PUSH1 0x20 DUP3 MUL DUP6 ADD PUSH2 0x3708 DUP6 PUSH2 0x366C JUMP JUMPDEST DUP1 PUSH0 JUMPDEST DUP6 DUP2 LT ISZERO PUSH2 0x3743 JUMPI DUP5 DUP5 SUB DUP10 MSTORE DUP2 MLOAD PUSH2 0x3724 DUP6 DUP3 PUSH2 0x36C3 JUMP JUMPDEST SWAP5 POP PUSH2 0x372F DUP4 PUSH2 0x36D6 JUMP JUMPDEST SWAP3 POP PUSH1 0x20 DUP11 ADD SWAP10 POP POP PUSH1 0x1 DUP2 ADD SWAP1 POP PUSH2 0x370B JUMP JUMPDEST POP DUP3 SWAP8 POP DUP8 SWAP6 POP POP POP POP POP POP SWAP3 SWAP2 POP POP JUMP JUMPDEST PUSH0 PUSH1 0x20 DUP3 ADD SWAP1 POP DUP2 DUP2 SUB PUSH0 DUP4 ADD MSTORE PUSH2 0x376D DUP2 DUP5 PUSH2 0x36E2 JUMP JUMPDEST SWAP1 POP SWAP3 SWAP2 POP POP JUMP JUMPDEST PUSH2 0x377E DUP2 PUSH2 0x3039 JUMP JUMPDEST DUP3 MSTORE POP POP JUMP JUMPDEST PUSH0 PUSH1 0x20 DUP3 ADD SWAP1 POP PUSH2 0x3797 PUSH0 DUP4 ADD DUP5 PUSH2 0x3775 JUMP JUMPDEST SWAP3 SWAP2 POP POP JUMP JUMPDEST PUSH0 DUP1 PUSH0 DUP1 PUSH0 PUSH1 0x60 DUP7 DUP9 SUB SLT ISZERO PUSH2 0x37B6 JUMPI PUSH2 0x37B5 PUSH2 0x2F23 JUMP JUMPDEST JUMPDEST PUSH0 PUSH2 0x37C3 DUP9 DUP3 DUP10 ADD PUSH2 0x2F71 JUMP JUMPDEST SWAP6 POP POP PUSH1 0x20 DUP7 ADD CALLDATALOAD PUSH8 0xFFFFFFFFFFFFFFFF DUP2 GT ISZERO PUSH2 0x37E4 JUMPI PUSH2 0x37E3 PUSH2 0x2F27 JUMP JUMPDEST JUMPDEST PUSH2 0x37F0 DUP9 DUP3 DUP10 ADD PUSH2 0x347C JUMP JUMPDEST SWAP5 POP SWAP5 POP POP PUSH1 0x40 DUP7 ADD CALLDATALOAD PUSH8 0xFFFFFFFFFFFFFFFF DUP2 GT ISZERO PUSH2 0x3813 JUMPI PUSH2 0x3812 PUSH2 0x2F27 JUMP JUMPDEST JUMPDEST PUSH2 0x381F DUP9 DUP3 DUP10 ADD PUSH2 0x347C JUMP JUMPDEST SWAP3 POP SWAP3 POP POP SWAP3 SWAP6 POP SWAP3 SWAP6 SWAP1 SWAP4 POP JUMP JUMPDEST PUSH0 DUP2 SWAP1 POP SWAP2 SWAP1 POP JUMP JUMPDEST PUSH0 PUSH2 0x3851 PUSH2 0x384C PUSH2 0x3847 DUP5 PUSH2 0x2F2B JUMP JUMPDEST PUSH2 0x382E JUMP JUMPDEST PUSH2 0x2F2B JUMP JUMPDEST SWAP1 POP SWAP2 SWAP1 POP JUMP JUMPDEST PUSH0 PUSH2 0x3862 DUP3 PUSH2 0x3837 JUMP JUMPDEST SWAP1 POP SWAP2 SWAP1 POP JUMP JUMPDEST PUSH0 PUSH2 0x3873 DUP3 PUSH2 0x3858 JUMP JUMPDEST SWAP1 POP SWAP2 SWAP1 POP JUMP JUMPDEST PUSH2 0x3883 DUP2 PUSH2 0x3869 JUMP JUMPDEST DUP3 MSTORE POP POP JUMP JUMPDEST PUSH0 PUSH1 0x20 DUP3 ADD SWAP1 POP PUSH2 0x389C PUSH0 DUP4 ADD DUP5 PUSH2 0x387A JUMP JUMPDEST SWAP3 SWAP2 POP POP JUMP JUMPDEST PUSH32 0x57616C6C657420686173206E65766572206368616E6765642100000000000000 PUSH0 DUP3 ADD MSTORE POP JUMP JUMPDEST PUSH0 PUSH2 0x38D6 PUSH1 0x19 DUP4 PUSH2 0x3538 JUMP JUMPDEST SWAP2 POP PUSH2 0x38E1 DUP3 PUSH2 0x38A2 JUMP JUMPDEST PUSH1 0x20 DUP3 ADD SWAP1 POP SWAP2 SWAP1 POP JUMP JUMPDEST PUSH0 PUSH1 0x20 DUP3 ADD SWAP1 POP DUP2 DUP2 SUB PUSH0 DUP4 ADD MSTORE PUSH2 0x3903 DUP2 PUSH2 0x38CA JUMP JUMPDEST SWAP1 POP SWAP2 SWAP1 POP JUMP JUMPDEST PUSH32 0x57697468647261772063616E20626520646F6E65206F6E6C7920627920636F6E PUSH0 DUP3 ADD MSTORE PUSH32 0x7472616374206F776E6572206F722062656E6566696369617279210000000000 PUSH1 0x20 DUP3 ADD MSTORE POP JUMP JUMPDEST PUSH0 PUSH2 0x3964 PUSH1 0x3B DUP4 PUSH2 0x3538 JUMP JUMPDEST SWAP2 POP PUSH2 0x396F DUP3 PUSH2 0x390A JUMP JUMPDEST PUSH1 0x40 DUP3 ADD SWAP1 POP SWAP2 SWAP1 POP JUMP JUMPDEST PUSH0 PUSH1 0x20 DUP3 ADD SWAP1 POP DUP2 DUP2 SUB PUSH0 DUP4 ADD MSTORE PUSH2 0x3991 DUP2 PUSH2 0x3958 JUMP JUMPDEST SWAP1 POP SWAP2 SWAP1 POP JUMP JUMPDEST PUSH32 0x42656E6566696369617279206E6F74206578697374696E672100000000000000 PUSH0 DUP3 ADD MSTORE POP JUMP JUMPDEST PUSH0 PUSH2 0x39CC PUSH1 0x19 DUP4 PUSH2 0x3538 JUMP JUMPDEST SWAP2 POP PUSH2 0x39D7 DUP3 PUSH2 0x3998 JUMP JUMPDEST PUSH1 0x20 DUP3 ADD SWAP1 POP SWAP2 SWAP1 POP JUMP JUMPDEST PUSH0 PUSH1 0x20 DUP3 ADD SWAP1 POP DUP2 DUP2 SUB PUSH0 DUP4 ADD MSTORE PUSH2 0x39F9 DUP2 PUSH2 0x39C0 JUMP JUMPDEST SWAP1 POP SWAP2 SWAP1 POP JUMP JUMPDEST PUSH32 0x4E487B7100000000000000000000000000000000000000000000000000000000 PUSH0 MSTORE PUSH1 0x32 PUSH1 0x4 MSTORE PUSH1 0x24 PUSH0 REVERT JUMPDEST PUSH32 0x4E487B7100000000000000000000000000000000000000000000000000000000 PUSH0 MSTORE PUSH1 0x11 PUSH1 0x4 MSTORE PUSH1 0x24 PUSH0 REVERT JUMPDEST PUSH0 PUSH2 0x3A64 DUP3 PUSH2 0x30DF JUMP JUMPDEST SWAP2 POP PUSH2 0x3A6F DUP4 PUSH2 0x30DF JUMP JUMPDEST SWAP3 POP DUP3 DUP3 SUB SWAP1 POP DUP2 DUP2 GT ISZERO PUSH2 0x3A87 JUMPI PUSH2 0x3A86 PUSH2 0x3A2D JUMP JUMPDEST JUMPDEST SWAP3 SWAP2 POP POP JUMP JUMPDEST PUSH0 PUSH2 0x3A97 DUP3 PUSH2 0x30DF JUMP JUMPDEST SWAP2 POP PUSH32 0xFFFFFFFFFFFFFFFFFFFFFFFFFFFFFFFFFFFFFFFFFFFFFFFFFFFFFFFFFFFFFFFF DUP3 SUB PUSH2 0x3AC9 JUMPI PUSH2 0x3AC8 PUSH2 0x3A2D JUMP JUMPDEST JUMPDEST PUSH1 0x1 DUP3 ADD SWAP1 POP SWAP2 SWAP1 POP JUMP JUMPDEST PUSH32 0x4E6F2072656C6561736564207061796D656E747320666F72207472616E736665 PUSH0 DUP3 ADD MSTORE PUSH32 0x722120506F737369626C6520726561736F6E733A207061796D656E742F73206E PUSH1 0x20 DUP3 ADD MSTORE PUSH32 0x6F7420617070726F7665642C2072656C65617365206265666F72652064756520 PUSH1 0x40 DUP3 ADD MSTORE PUSH32 0x646174652C206E6F206578697374696E67207061796D656E74732E0000000000 PUSH1 0x60 DUP3 ADD MSTORE POP JUMP JUMPDEST PUSH0 PUSH2 0x3B7A PUSH1 0x7B DUP4 PUSH2 0x3538 JUMP JUMPDEST SWAP2 POP PUSH2 0x3B85 DUP3 PUSH2 0x3AD4 JUMP JUMPDEST PUSH1 0x80 DUP3 ADD SWAP1 POP SWAP2 SWAP1 POP JUMP JUMPDEST PUSH0 PUSH1 0x20 DUP3 ADD SWAP1 POP DUP2 DUP2 SUB PUSH0 DUP4 ADD MSTORE PUSH2 0x3BA7 DUP2 PUSH2 0x3B6E JUMP JUMPDEST SWAP1 POP SWAP2 SWAP1 POP JUMP JUMPDEST PUSH32 0x466F7263652064656C657465642064756520746F3A2000000000000000000000 DUP2 MSTORE POP JUMP JUMPDEST PUSH0 DUP2 SWAP1 POP SWAP3 SWAP2 POP POP JUMP JUMPDEST DUP3 DUP2 DUP4 CALLDATACOPY PUSH0 DUP4 DUP4 ADD MSTORE POP POP POP JUMP JUMPDEST PUSH0 PUSH2 0x3BF7 DUP4 DUP6 PUSH2 0x3BD4 JUMP JUMPDEST SWAP4 POP PUSH2 0x3C04 DUP4 DUP6 DUP5 PUSH2 0x3BDE JUMP JUMPDEST DUP3 DUP5 ADD SWAP1 POP SWAP4 SWAP3 POP POP POP JUMP JUMPDEST PUSH0 PUSH2 0x3C1A DUP3 PUSH2 0x3BAE JUMP JUMPDEST PUSH1 0x16 DUP3 ADD SWAP2 POP PUSH2 0x3C2B DUP3 DUP5 DUP7 PUSH2 0x3BEC JUMP JUMPDEST SWAP2 POP DUP2 SWAP1 POP SWAP4 SWAP3 POP POP POP JUMP JUMPDEST PUSH0 PUSH2 0x3C41 DUP3 PUSH2 0x30DF JUMP JUMPDEST SWAP2 POP PUSH0 DUP3 SUB PUSH2 0x3C53 JUMPI PUSH2 0x3C52 PUSH2 0x3A2D JUMP JUMPDEST JUMPDEST PUSH1 0x1 DUP3 SUB SWAP1 POP SWAP2 SWAP1 POP JUMP JUMPDEST PUSH32 0x4E6F207061796D656E747320746F2063616E63656C2100000000000000000000 PUSH0 DUP3 ADD MSTORE POP JUMP JUMPDEST PUSH0 PUSH2 0x3C92 PUSH1 0x16 DUP4 PUSH2 0x3538 JUMP JUMPDEST SWAP2 POP PUSH2 0x3C9D DUP3 PUSH2 0x3C5E JUMP JUMPDEST PUSH1 0x20 DUP3 ADD SWAP1 POP SWAP2 SWAP1 POP JUMP JUMPDEST PUSH0 PUSH1 0x20 DUP3 ADD SWAP1 POP DUP2 DUP2 SUB PUSH0 DUP4 ADD MSTORE PUSH2 0x3CBF DUP2 PUSH2 0x3C86 JUMP JUMPDEST SWAP1 POP SWAP2 SWAP1 POP JUMP JUMPDEST PUSH0 DUP3 SWAP1 POP SWAP3 SWAP2 POP POP JUMP JUMPDEST PUSH32 0x4E487B7100000000000000000000000000000000000000000000000000000000 PUSH0 MSTORE PUSH1 0x41 PUSH1 0x4 MSTORE PUSH1 0x24 PUSH0 REVERT JUMPDEST PUSH32 0x4E487B7100000000000000000000000000000000000000000000000000000000 PUSH0 MSTORE PUSH1 0x22 PUSH1 0x4 MSTORE PUSH1 0x24 PUSH0 REVERT JUMPDEST PUSH0 PUSH1 0x2 DUP3 DIV SWAP1 POP PUSH1 0x1 DUP3 AND DUP1 PUSH2 0x3D41 JUMPI PUSH1 0x7F DUP3 AND SWAP2 POP JUMPDEST PUSH1 0x20 DUP3 LT DUP2 SUB PUSH2 0x3D54 JUMPI PUSH2 0x3D53 PUSH2 0x3CFD JUMP JUMPDEST JUMPDEST POP SWAP2 SWAP1 POP JUMP JUMPDEST PUSH0 DUP2 SWAP1 POP DUP2 PUSH0 MSTORE PUSH1 0x20 PUSH0 KECCAK256 SWAP1 POP SWAP2 SWAP1 POP JUMP JUMPDEST PUSH0 PUSH1 0x20 PUSH1 0x1F DUP4 ADD DIV SWAP1 POP SWAP2 SWAP1 POP JUMP JUMPDEST PUSH0 DUP3 DUP3 SHL SWAP1 POP SWAP3 SWAP2 POP POP JUMP JUMPDEST PUSH0 PUSH1 0x8 DUP4 MUL PUSH2 0x3DB6 PUSH32 0xFFFFFFFFFFFFFFFFFFFFFFFFFFFFFFFFFFFFFFFFFFFFFFFFFFFFFFFFFFFFFFFF DUP3 PUSH2 0x3D7B JUMP JUMPDEST PUSH2 0x3DC0 DUP7 DUP4 PUSH2 0x3D7B JUMP JUMPDEST SWAP6 POP DUP1 NOT DUP5 AND SWAP4 POP DUP1 DUP7 AND DUP5 OR SWAP3 POP POP POP SWAP4 SWAP3 POP POP POP JUMP JUMPDEST PUSH0 PUSH2 0x3DF2 PUSH2 0x3DED PUSH2 0x3DE8 DUP5 PUSH2 0x30DF JUMP JUMPDEST PUSH2 0x382E JUMP JUMPDEST PUSH2 0x30DF JUMP JUMPDEST SWAP1 POP SWAP2 SWAP1 POP JUMP JUMPDEST PUSH0 DUP2 SWAP1 POP SWAP2 SWAP1 POP JUMP JUMPDEST PUSH2 0x3E0B DUP4 PUSH2 0x3DD8 JUMP JUMPDEST PUSH2 0x3E1F PUSH2 0x3E17 DUP3 PUSH2 0x3DF9 JUMP JUMPDEST DUP5 DUP5 SLOAD PUSH2 0x3D87 JUMP JUMPDEST DUP3 SSTORE POP POP POP POP JUMP JUMPDEST PUSH0 SWAP1 JUMP JUMPDEST PUSH2 0x3E33 PUSH2 0x3E27 JUMP JUMPDEST PUSH2 0x3E3E DUP2 DUP5 DUP5 PUSH2 0x3E02 JUMP JUMPDEST POP POP POP JUMP JUMPDEST JUMPDEST DUP2 DUP2 LT ISZERO PUSH2 0x3E61 JUMPI PUSH2 0x3E56 PUSH0 DUP3 PUSH2 0x3E2B JUMP JUMPDEST PUSH1 0x1 DUP2 ADD SWAP1 POP PUSH2 0x3E44 JUMP JUMPDEST POP POP JUMP JUMPDEST PUSH1 0x1F DUP3 GT ISZERO PUSH2 0x3EA6 JUMPI PUSH2 0x3E77 DUP2 PUSH2 0x3D5A JUMP JUMPDEST PUSH2 0x3E80 DUP5 PUSH2 0x3D6C JUMP JUMPDEST DUP2 ADD PUSH1 0x20 DUP6 LT ISZERO PUSH2 0x3E8F JUMPI DUP2 SWAP1 POP JUMPDEST PUSH2 0x3EA3 PUSH2 0x3E9B DUP6 PUSH2 0x3D6C JUMP JUMPDEST DUP4 ADD DUP3 PUSH2 0x3E43 JUMP JUMPDEST POP POP JUMPDEST POP POP POP JUMP JUMPDEST PUSH0 DUP3 DUP3 SHR SWAP1 POP SWAP3 SWAP2 POP POP JUMP JUMPDEST PUSH0 PUSH2 0x3EC6 PUSH0 NOT DUP5 PUSH1 0x8 MUL PUSH2 0x3EAB JUMP JUMPDEST NOT DUP1 DUP4 AND SWAP2 POP POP SWAP3 SWAP2 POP POP JUMP JUMPDEST PUSH0 PUSH2 0x3EDE DUP4 DUP4 PUSH2 0x3EB7 JUMP JUMPDEST SWAP2 POP DUP3 PUSH1 0x2 MUL DUP3 OR SWAP1 POP SWAP3 SWAP2 POP POP JUMP JUMPDEST PUSH2 0x3EF8 DUP4 DUP4 PUSH2 0x3CC6 JUMP JUMPDEST PUSH8 0xFFFFFFFFFFFFFFFF DUP2 GT ISZERO PUSH2 0x3F11 JUMPI PUSH2 0x3F10 PUSH2 0x3CD0 JUMP JUMPDEST JUMPDEST PUSH2 0x3F1B DUP3 SLOAD PUSH2 0x3D2A JUMP JUMPDEST PUSH2 0x3F26 DUP3 DUP3 DUP6 PUSH2 0x3E65 JUMP JUMPDEST PUSH0 PUSH1 0x1F DUP4 GT PUSH1 0x1 DUP2 EQ PUSH2 0x3F53 JUMPI PUSH0 DUP5 ISZERO PUSH2 0x3F41 JUMPI DUP3 DUP8 ADD CALLDATALOAD SWAP1 POP JUMPDEST PUSH2 0x3F4B DUP6 DUP3 PUSH2 0x3ED3 JUMP JUMPDEST DUP7 SSTORE POP PUSH2 0x3FB2 JUMP JUMPDEST PUSH1 0x1F NOT DUP5 AND PUSH2 0x3F61 DUP7 PUSH2 0x3D5A JUMP JUMPDEST PUSH0 JUMPDEST DUP3 DUP2 LT ISZERO PUSH2 0x3F88 JUMPI DUP5 DUP10 ADD CALLDATALOAD DUP3 SSTORE PUSH1 0x1 DUP3 ADD SWAP2 POP PUSH1 0x20 DUP6 ADD SWAP5 POP PUSH1 0x20 DUP2 ADD SWAP1 POP PUSH2 0x3F63 JUMP JUMPDEST DUP7 DUP4 LT ISZERO PUSH2 0x3FA5 JUMPI DUP5 DUP10 ADD CALLDATALOAD PUSH2 0x3FA1 PUSH1 0x1F DUP10 AND DUP3 PUSH2 0x3EB7 JUMP JUMPDEST DUP4 SSTORE POP JUMPDEST PUSH1 0x1 PUSH1 0x2 DUP9 MUL ADD DUP9 SSTORE POP POP POP JUMPDEST POP POP POP POP POP POP POP JUMP JUMPDEST PUSH32 0x4E487B7100000000000000000000000000000000000000000000000000000000 PUSH0 MSTORE PUSH1 0x31 PUSH1 0x4 MSTORE PUSH1 0x24 PUSH0 REVERT JUMPDEST PUSH0 PUSH1 0xFF DUP3 AND SWAP1 POP SWAP2 SWAP1 POP JUMP JUMPDEST PUSH2 0x3FFD DUP2 PUSH2 0x3FE8 JUMP JUMPDEST DUP2 EQ PUSH2 0x4007 JUMPI PUSH0 DUP1 REVERT JUMPDEST POP JUMP JUMPDEST PUSH0 DUP2 MLOAD SWAP1 POP PUSH2 0x4018 DUP2 PUSH2 0x3FF4 JUMP JUMPDEST SWAP3 SWAP2 POP POP JUMP JUMPDEST PUSH0 PUSH1 0x20 DUP3 DUP5 SUB SLT ISZERO PUSH2 0x4033 JUMPI PUSH2 0x4032 PUSH2 0x2F23 JUMP JUMPDEST JUMPDEST PUSH0 PUSH2 0x4040 DUP5 DUP3 DUP6 ADD PUSH2 0x400A JUMP JUMPDEST SWAP2 POP POP SWAP3 SWAP2 POP POP JUMP JUMPDEST PUSH32 0x4C697374206F662062656E656669636961726965732069732072657175697265 PUSH0 DUP3 ADD MSTORE PUSH32 0x6400000000000000000000000000000000000000000000000000000000000000 PUSH1 0x20 DUP3 ADD MSTORE POP JUMP JUMPDEST PUSH0 PUSH2 0x40A3 PUSH1 0x21 DUP4 PUSH2 0x3538 JUMP JUMPDEST SWAP2 POP PUSH2 0x40AE DUP3 PUSH2 0x4049 JUMP JUMPDEST PUSH1 0x40 DUP3 ADD SWAP1 POP SWAP2 SWAP1 POP JUMP JUMPDEST PUSH0 PUSH1 0x20 DUP3 ADD SWAP1 POP DUP2 DUP2 SUB PUSH0 DUP4 ADD MSTORE PUSH2 0x40D0 DUP2 PUSH2 0x4097 JUMP JUMPDEST SWAP1 POP SWAP2 SWAP1 POP JUMP JUMPDEST PUSH32 0x496E646578657320666F72207061796D656E7473207065722062656E65666963 PUSH0 DUP3 ADD MSTORE PUSH32 0x69617279206D7573742062652070726F76696465642100000000000000000000 PUSH1 0x20 DUP3 ADD MSTORE POP JUMP JUMPDEST PUSH0 PUSH2 0x4131 PUSH1 0x36 DUP4 PUSH2 0x3538 JUMP JUMPDEST SWAP2 POP PUSH2 0x413C DUP3 PUSH2 0x40D7 JUMP JUMPDEST PUSH1 0x40 DUP3 ADD SWAP1 POP SWAP2 SWAP1 POP JUMP JUMPDEST PUSH0 PUSH1 0x20 DUP3 ADD SWAP1 POP DUP2 DUP2 SUB PUSH0 DUP4 ADD MSTORE PUSH2 0x415E DUP2 PUSH2 0x4125 JUMP JUMPDEST SWAP1 POP SWAP2 SWAP1 POP JUMP JUMPDEST PUSH0 DUP1 REVERT JUMPDEST PUSH0 DUP1 REVERT JUMPDEST PUSH0 DUP1 REVERT JUMPDEST PUSH0 DUP1 DUP4 CALLDATALOAD PUSH1 0x1 PUSH1 0x20 SUB DUP5 CALLDATASIZE SUB SUB DUP2 SLT PUSH2 0x418D JUMPI PUSH2 0x418C PUSH2 0x4165 JUMP JUMPDEST JUMPDEST DUP1 DUP5 ADD SWAP3 POP DUP3 CALLDATALOAD SWAP2 POP PUSH8 0xFFFFFFFFFFFFFFFF DUP3 GT ISZERO PUSH2 0x41AF JUMPI PUSH2 0x41AE PUSH2 0x4169 JUMP JUMPDEST JUMPDEST PUSH1 0x20 DUP4 ADD SWAP3 POP PUSH1 0x20 DUP3 MUL CALLDATASIZE SUB DUP4 SGT ISZERO PUSH2 0x41CB JUMPI PUSH2 0x41CA PUSH2 0x416D JUMP JUMPDEST JUMPDEST POP SWAP3 POP SWAP3 SWAP1 POP JUMP JUMPDEST PUSH32 0x4C697374206F66207061796D656E7473207065722062656E6566696369617279 PUSH0 DUP3 ADD MSTORE PUSH32 0x2063616E277420626520656D7074792100000000000000000000000000000000 PUSH1 0x20 DUP3 ADD MSTORE POP JUMP JUMPDEST PUSH0 PUSH2 0x422D PUSH1 0x30 DUP4 PUSH2 0x3538 JUMP JUMPDEST SWAP2 POP PUSH2 0x4238 DUP3 PUSH2 0x41D3 JUMP JUMPDEST PUSH1 0x40 DUP3 ADD SWAP1 POP SWAP2 SWAP1 POP JUMP JUMPDEST PUSH0 PUSH1 0x20 DUP3 ADD SWAP1 POP DUP2 DUP2 SUB PUSH0 DUP4 ADD MSTORE PUSH2 0x425A DUP2 PUSH2 0x4221 JUMP JUMPDEST SWAP1 POP SWAP2 SWAP1 POP JUMP JUMPDEST PUSH32 0x5468697320636F6E747261637420646F65736E277420737570706F7274207265 PUSH0 DUP3 ADD MSTORE PUSH32 0x6E6F756E63696E67206F66206F776E6572736869700000000000000000000000 PUSH1 0x20 DUP3 ADD MSTORE POP JUMP JUMPDEST PUSH0 PUSH2 0x42BB PUSH1 0x35 DUP4 PUSH2 0x3538 JUMP JUMPDEST SWAP2 POP PUSH2 0x42C6 DUP3 PUSH2 0x4261 JUMP JUMPDEST PUSH1 0x40 DUP3 ADD SWAP1 POP SWAP2 SWAP1 POP JUMP JUMPDEST PUSH0 PUSH1 0x20 DUP3 ADD SWAP1 POP DUP2 DUP2 SUB PUSH0 DUP4 ADD MSTORE PUSH2 0x42E8 DUP2 PUSH2 0x42AF JUMP JUMPDEST SWAP1 POP SWAP2 SWAP1 POP JUMP JUMPDEST PUSH32 0x4E6F2065786365737320746F6B656E7320746F207472616E7366657221000000 PUSH0 DUP3 ADD MSTORE POP JUMP JUMPDEST PUSH0 PUSH2 0x4323 PUSH1 0x1D DUP4 PUSH2 0x3538 JUMP JUMPDEST SWAP2 POP PUSH2 0x432E DUP3 PUSH2 0x42EF JUMP JUMPDEST PUSH1 0x20 DUP3 ADD SWAP1 POP SWAP2 SWAP1 POP JUMP JUMPDEST PUSH0 PUSH1 0x20 DUP3 ADD SWAP1 POP DUP2 DUP2 SUB PUSH0 DUP4 ADD MSTORE PUSH2 0x4350 DUP2 PUSH2 0x4317 JUMP JUMPDEST SWAP1 POP SWAP2 SWAP1 POP JUMP JUMPDEST PUSH32 0x4F6E6C7920617070726F7665722063616E20617070726F7665207061796D6E65 PUSH0 DUP3 ADD MSTORE PUSH32 0x7473210000000000000000000000000000000000000000000000000000000000 PUSH1 0x20 DUP3 ADD MSTORE POP JUMP JUMPDEST PUSH0 PUSH2 0x43B1 PUSH1 0x23 DUP4 PUSH2 0x3538 JUMP JUMPDEST SWAP2 POP PUSH2 0x43BC DUP3 PUSH2 0x4357 JUMP JUMPDEST PUSH1 0x40 DUP3 ADD SWAP1 POP SWAP2 SWAP1 POP JUMP JUMPDEST PUSH0 PUSH1 0x20 DUP3 ADD SWAP1 POP DUP2 DUP2 SUB PUSH0 DUP4 ADD MSTORE PUSH2 0x43DE DUP2 PUSH2 0x43A5 JUMP JUMPDEST SWAP1 POP SWAP2 SWAP1 POP JUMP JUMPDEST PUSH32 0x57726F6E67207061796D656E7420646174612100000000000000000000000000 PUSH0 DUP3 ADD MSTORE POP JUMP JUMPDEST PUSH0 PUSH2 0x4419 PUSH1 0x13 DUP4 PUSH2 0x3538 JUMP JUMPDEST SWAP2 POP PUSH2 0x4424 DUP3 PUSH2 0x43E5 JUMP JUMPDEST PUSH1 0x20 DUP3 ADD SWAP1 POP SWAP2 SWAP1 POP JUMP JUMPDEST PUSH0 PUSH1 0x20 DUP3 ADD SWAP1 POP DUP2 DUP2 SUB PUSH0 DUP4 ADD MSTORE PUSH2 0x4446 DUP2 PUSH2 0x440D JUMP JUMPDEST SWAP1 POP SWAP2 SWAP1 POP JUMP JUMPDEST PUSH0 DUP1 REVERT JUMPDEST PUSH2 0x445A DUP3 PUSH2 0x3570 JUMP JUMPDEST DUP2 ADD DUP2 DUP2 LT PUSH8 0xFFFFFFFFFFFFFFFF DUP3 GT OR ISZERO PUSH2 0x4479 JUMPI PUSH2 0x4478 PUSH2 0x3CD0 JUMP JUMPDEST JUMPDEST DUP1 PUSH1 0x40 MSTORE POP POP POP JUMP JUMPDEST PUSH0 PUSH2 0x448B PUSH2 0x2F1A JUMP JUMPDEST SWAP1 POP PUSH2 0x4497 DUP3 DUP3 PUSH2 0x4451 JUMP JUMPDEST SWAP2 SWAP1 POP JUMP JUMPDEST PUSH0 PUSH8 0xFFFFFFFFFFFFFFFF DUP3 GT ISZERO PUSH2 0x44B6 JUMPI PUSH2 0x44B5 PUSH2 0x3CD0 JUMP JUMPDEST JUMPDEST PUSH2 0x44BF DUP3 PUSH2 0x3570 JUMP JUMPDEST SWAP1 POP PUSH1 0x20 DUP2 ADD SWAP1 POP SWAP2 SWAP1 POP JUMP JUMPDEST PUSH0 PUSH2 0x44DE PUSH2 0x44D9 DUP5 PUSH2 0x449C JUMP JUMPDEST PUSH2 0x4482 JUMP JUMPDEST SWAP1 POP DUP3 DUP2 MSTORE PUSH1 0x20 DUP2 ADD DUP5 DUP5 DUP5 ADD GT ISZERO PUSH2 0x44FA JUMPI PUSH2 0x44F9 PUSH2 0x444D JUMP JUMPDEST JUMPDEST PUSH2 0x4505 DUP5 DUP3 DUP6 PUSH2 0x3548 JUMP JUMPDEST POP SWAP4 SWAP3 POP POP POP JUMP JUMPDEST PUSH0 DUP3 PUSH1 0x1F DUP4 ADD SLT PUSH2 0x4521 JUMPI PUSH2 0x4520 PUSH2 0x2FD8 JUMP JUMPDEST JUMPDEST DUP2 MLOAD PUSH2 0x4531 DUP5 DUP3 PUSH1 0x20 DUP7 ADD PUSH2 0x44CC JUMP JUMPDEST SWAP2 POP POP SWAP3 SWAP2 POP POP JUMP JUMPDEST PUSH0 PUSH1 0x20 DUP3 DUP5 SUB SLT ISZERO PUSH2 0x454F JUMPI PUSH2 0x454E PUSH2 0x2F23 JUMP JUMPDEST JUMPDEST PUSH0 DUP3 ADD MLOAD PUSH8 0xFFFFFFFFFFFFFFFF DUP2 GT ISZERO PUSH2 0x456C JUMPI PUSH2 0x456B PUSH2 0x2F27 JUMP JUMPDEST JUMPDEST PUSH2 0x4578 DUP5 DUP3 DUP6 ADD PUSH2 0x450D JUMP JUMPDEST SWAP2 POP POP SWAP3 SWAP2 POP POP JUMP JUMPDEST PUSH0 PUSH2 0x458B DUP3 PUSH2 0x30DF JUMP JUMPDEST SWAP2 POP PUSH2 0x4596 DUP4 PUSH2 0x30DF JUMP JUMPDEST SWAP3 POP DUP3 DUP3 ADD SWAP1 POP DUP1 DUP3 GT ISZERO PUSH2 0x45AE JUMPI PUSH2 0x45AD PUSH2 0x3A2D JUMP JUMPDEST JUMPDEST SWAP3 SWAP2 POP POP JUMP JUMPDEST PUSH32 0x496E73756666696369656E742062616C616E6365212043616E27742061646420 PUSH0 DUP3 ADD MSTORE PUSH32 0x6E6577207061796D656E74732100000000000000000000000000000000000000 PUSH1 0x20 DUP3 ADD MSTORE POP JUMP JUMPDEST PUSH0 PUSH2 0x460E PUSH1 0x2D DUP4 PUSH2 0x3538 JUMP JUMPDEST SWAP2 POP PUSH2 0x4619 DUP3 PUSH2 0x45B4 JUMP JUMPDEST PUSH1 0x40 DUP3 ADD SWAP1 POP SWAP2 SWAP1 POP JUMP JUMPDEST PUSH0 PUSH1 0x20 DUP3 ADD SWAP1 POP DUP2 DUP2 SUB PUSH0 DUP4 ADD MSTORE PUSH2 0x463B DUP2 PUSH2 0x4602 JUMP JUMPDEST SWAP1 POP SWAP2 SWAP1 POP JUMP JUMPDEST PUSH32 0x4675747572652072656C6561736520646174652063616E277420626520657175 PUSH0 DUP3 ADD MSTORE PUSH32 0x616C206F72206C657373207468616E20746865206C61737420656E7465726564 PUSH1 0x20 DUP3 ADD MSTORE PUSH32 0x2100000000000000000000000000000000000000000000000000000000000000 PUSH1 0x40 DUP3 ADD MSTORE POP JUMP JUMPDEST PUSH0 PUSH2 0x46C2 PUSH1 0x41 DUP4 PUSH2 0x3538 JUMP JUMPDEST SWAP2 POP PUSH2 0x46CD DUP3 PUSH2 0x4642 JUMP JUMPDEST PUSH1 0x60 DUP3 ADD SWAP1 POP SWAP2 SWAP1 POP JUMP JUMPDEST PUSH0 PUSH1 0x20 DUP3 ADD SWAP1 POP DUP2 DUP2 SUB PUSH0 DUP4 ADD MSTORE PUSH2 0x46EF DUP2 PUSH2 0x46B6 JUMP JUMPDEST SWAP1 POP SWAP2 SWAP1 POP JUMP JUMPDEST PUSH32 0x52656C6561736520646174652063616E277420626520657175616C206F72206C PUSH0 DUP3 ADD MSTORE PUSH32 0x657373207468616E2063757272656E7420646174652100000000000000000000 PUSH1 0x20 DUP3 ADD MSTORE POP JUMP JUMPDEST PUSH0 PUSH2 0x4750 PUSH1 0x36 DUP4 PUSH2 0x3538 JUMP JUMPDEST SWAP2 POP PUSH2 0x475B DUP3 PUSH2 0x46F6 JUMP JUMPDEST PUSH1 0x40 DUP3 ADD SWAP1 POP SWAP2 SWAP1 POP JUMP JUMPDEST PUSH0 PUSH1 0x20 DUP3 ADD SWAP1 POP DUP2 DUP2 SUB PUSH0 DUP4 ADD MSTORE PUSH2 0x477D DUP2 PUSH2 0x4744 JUMP JUMPDEST SWAP1 POP SWAP2 SWAP1 POP JUMP JUMPDEST PUSH32 0x4F6E6C79206578697374696E672062656E65666963696172792063616E206368 PUSH0 DUP3 ADD MSTORE PUSH32 0x616E67652077616C6C6574206164647265737321000000000000000000000000 PUSH1 0x20 DUP3 ADD MSTORE POP JUMP JUMPDEST PUSH0 PUSH2 0x47DE PUSH1 0x34 DUP4 PUSH2 0x3538 JUMP JUMPDEST SWAP2 POP PUSH2 0x47E9 DUP3 PUSH2 0x4784 JUMP JUMPDEST PUSH1 0x40 DUP3 ADD SWAP1 POP SWAP2 SWAP1 POP JUMP JUMPDEST PUSH0 PUSH1 0x20 DUP3 ADD SWAP1 POP DUP2 DUP2 SUB PUSH0 DUP4 ADD MSTORE PUSH2 0x480B DUP2 PUSH2 0x47D2 JUMP JUMPDEST SWAP1 POP SWAP2 SWAP1 POP JUMP JUMPDEST PUSH32 0x42656E656669636961727920646F6573206E6F7420686176652063616E63656C PUSH0 DUP3 ADD MSTORE PUSH32 0x6564207061796D656E7473210000000000000000000000000000000000000000 PUSH1 0x20 DUP3 ADD MSTORE POP JUMP JUMPDEST PUSH0 PUSH2 0x486C PUSH1 0x2C DUP4 PUSH2 0x3538 JUMP JUMPDEST SWAP2 POP PUSH2 0x4877 DUP3 PUSH2 0x4812 JUMP JUMPDEST PUSH1 0x40 DUP3 ADD SWAP1 POP SWAP2 SWAP1 POP JUMP JUMPDEST PUSH0 PUSH1 0x20 DUP3 ADD SWAP1 POP DUP2 DUP2 SUB PUSH0 DUP4 ADD MSTORE PUSH2 0x4899 DUP2 PUSH2 0x4860 JUMP JUMPDEST SWAP1 POP SWAP2 SWAP1 POP JUMP JUMPDEST PUSH0 DUP2 MLOAD SWAP1 POP PUSH2 0x48AE DUP2 PUSH2 0x35D8 JUMP JUMPDEST SWAP3 SWAP2 POP POP JUMP JUMPDEST PUSH0 PUSH1 0x20 DUP3 DUP5 SUB SLT ISZERO PUSH2 0x48C9 JUMPI PUSH2 0x48C8 PUSH2 0x2F23 JUMP JUMPDEST JUMPDEST PUSH0 PUSH2 0x48D6 DUP5 DUP3 DUP6 ADD PUSH2 0x48A0 JUMP JUMPDEST SWAP2 POP POP SWAP3 SWAP2 POP POP JUMP JUMPDEST PUSH32 0x4F776E61626C653A206E6577206F776E657220697320746865207A65726F2061 PUSH0 DUP3 ADD MSTORE PUSH32 0x6464726573730000000000000000000000000000000000000000000000000000 PUSH1 0x20 DUP3 ADD MSTORE POP JUMP JUMPDEST PUSH0 PUSH2 0x4939 PUSH1 0x26 DUP4 PUSH2 0x3538 JUMP JUMPDEST SWAP2 POP PUSH2 0x4944 DUP3 PUSH2 0x48DF JUMP JUMPDEST PUSH1 0x40 DUP3 ADD SWAP1 POP SWAP2 SWAP1 POP JUMP JUMPDEST PUSH0 PUSH1 0x20 DUP3 ADD SWAP1 POP DUP2 DUP2 SUB PUSH0 DUP4 ADD MSTORE PUSH2 0x4966 DUP2 PUSH2 0x492D JUMP JUMPDEST SWAP1 POP SWAP2 SWAP1 POP JUMP JUMPDEST PUSH32 0x4461746120666F72206E6F7420636F7272656374212E20436F756E74206F6620 PUSH0 DUP3 ADD MSTORE PUSH32 0x72656C6561736520646174657320616E6420616D6F756E7473206D7573742062 PUSH1 0x20 DUP3 ADD MSTORE PUSH32 0x6520657175616C21000000000000000000000000000000000000000000000000 PUSH1 0x40 DUP3 ADD MSTORE POP JUMP JUMPDEST PUSH0 PUSH2 0x49ED PUSH1 0x48 DUP4 PUSH2 0x3538 JUMP JUMPDEST SWAP2 POP PUSH2 0x49F8 DUP3 PUSH2 0x496D JUMP JUMPDEST PUSH1 0x60 DUP3 ADD SWAP1 POP SWAP2 SWAP1 POP JUMP JUMPDEST PUSH0 PUSH1 0x20 DUP3 ADD SWAP1 POP DUP2 DUP2 SUB PUSH0 DUP4 ADD MSTORE PUSH2 0x4A1A DUP2 PUSH2 0x49E1 JUMP JUMPDEST SWAP1 POP SWAP2 SWAP1 POP JUMP JUMPDEST PUSH32 0x42656E656669636961727920616C7265616479206578697374696E6721000000 PUSH0 DUP3 ADD MSTORE POP JUMP JUMPDEST PUSH0 PUSH2 0x4A55 PUSH1 0x1D DUP4 PUSH2 0x3538 JUMP JUMPDEST SWAP2 POP PUSH2 0x4A60 DUP3 PUSH2 0x4A21 JUMP JUMPDEST PUSH1 0x20 DUP3 ADD SWAP1 POP SWAP2 SWAP1 POP JUMP JUMPDEST PUSH0 PUSH1 0x20 DUP3 ADD SWAP1 POP DUP2 DUP2 SUB PUSH0 DUP4 ADD MSTORE PUSH2 0x4A82 DUP2 PUSH2 0x4A49 JUMP JUMPDEST SWAP1 POP SWAP2 SWAP1 POP JUMP JUMPDEST PUSH32 0x496E73756666696369656E742062616C616E6365212043616E27742061646420 PUSH0 DUP3 ADD MSTORE PUSH32 0x6E65772062656E65666963696172696573210000000000000000000000000000 PUSH1 0x20 DUP3 ADD MSTORE POP JUMP JUMPDEST PUSH0 PUSH2 0x4AE3 PUSH1 0x32 DUP4 PUSH2 0x3538 JUMP JUMPDEST SWAP2 POP PUSH2 0x4AEE DUP3 PUSH2 0x4A89 JUMP JUMPDEST PUSH1 0x40 DUP3 ADD SWAP1 POP SWAP2 SWAP1 POP JUMP JUMPDEST PUSH0 PUSH1 0x20 DUP3 ADD SWAP1 POP DUP2 DUP2 SUB PUSH0 DUP4 ADD MSTORE PUSH2 0x4B10 DUP2 PUSH2 0x4AD7 JUMP JUMPDEST SWAP1 POP SWAP2 SWAP1 POP JUMP JUMPDEST PUSH32 0x4F776E61626C653A2063616C6C6572206973206E6F7420746865206F776E6572 PUSH0 DUP3 ADD MSTORE POP JUMP JUMPDEST PUSH0 PUSH2 0x4B4B PUSH1 0x20 DUP4 PUSH2 0x3538 JUMP JUMPDEST SWAP2 POP PUSH2 0x4B56 DUP3 PUSH2 0x4B17 JUMP JUMPDEST PUSH1 0x20 DUP3 ADD SWAP1 POP SWAP2 SWAP1 POP JUMP JUMPDEST PUSH0 PUSH1 0x20 DUP3 ADD SWAP1 POP DUP2 DUP2 SUB PUSH0 DUP4 ADD MSTORE PUSH2 0x4B78 DUP2 PUSH2 0x4B3F JUMP JUMPDEST SWAP1 POP SWAP2 SWAP1 POP JUMP JUMPDEST PUSH0 PUSH1 0x40 DUP3 ADD SWAP1 POP PUSH2 0x4B92 PUSH0 DUP4 ADD DUP6 PUSH2 0x2FB0 JUMP JUMPDEST PUSH2 0x4B9F PUSH1 0x20 DUP4 ADD DUP5 PUSH2 0x30E8 JUMP JUMPDEST SWAP4 SWAP3 POP POP POP JUMP JUMPDEST PUSH0 DUP2 MLOAD SWAP1 POP PUSH2 0x4BB4 DUP2 PUSH2 0x3044 JUMP JUMPDEST SWAP3 SWAP2 POP POP JUMP JUMPDEST PUSH0 PUSH1 0x20 DUP3 DUP5 SUB SLT ISZERO PUSH2 0x4BCF JUMPI PUSH2 0x4BCE PUSH2 0x2F23 JUMP JUMPDEST JUMPDEST PUSH0 PUSH2 0x4BDC DUP5 DUP3 DUP6 ADD PUSH2 0x4BA6 JUMP JUMPDEST SWAP2 POP POP SWAP3 SWAP2 POP POP JUMP JUMPDEST PUSH32 0x5361666545524332303A204552433230206F7065726174696F6E20646964206E PUSH0 DUP3 ADD MSTORE PUSH32 0x6F74207375636365656400000000000000000000000000000000000000000000 PUSH1 0x20 DUP3 ADD MSTORE POP JUMP JUMPDEST PUSH0 PUSH2 0x4C3F PUSH1 0x2A DUP4 PUSH2 0x3538 JUMP JUMPDEST SWAP2 POP PUSH2 0x4C4A DUP3 PUSH2 0x4BE5 JUMP JUMPDEST PUSH1 0x40 DUP3 ADD SWAP1 POP SWAP2 SWAP1 POP JUMP JUMPDEST PUSH0 PUSH1 0x20 DUP3 ADD SWAP1 POP DUP2 DUP2 SUB PUSH0 DUP4 ADD MSTORE PUSH2 0x4C6C DUP2 PUSH2 0x4C33 JUMP JUMPDEST SWAP1 POP SWAP2 SWAP1 POP JUMP JUMPDEST PUSH32 0x416464726573733A20696E73756666696369656E742062616C616E636520666F PUSH0 DUP3 ADD MSTORE PUSH32 0x722063616C6C0000000000000000000000000000000000000000000000000000 PUSH1 0x20 DUP3 ADD MSTORE POP JUMP JUMPDEST PUSH0 PUSH2 0x4CCD PUSH1 0x26 DUP4 PUSH2 0x3538 JUMP JUMPDEST SWAP2 POP PUSH2 0x4CD8 DUP3 PUSH2 0x4C73 JUMP JUMPDEST PUSH1 0x40 DUP3 ADD SWAP1 POP SWAP2 SWAP1 POP JUMP JUMPDEST PUSH0 PUSH1 0x20 DUP3 ADD SWAP1 POP DUP2 DUP2 SUB PUSH0 DUP4 ADD MSTORE PUSH2 0x4CFA DUP2 PUSH2 0x4CC1 JUMP JUMPDEST SWAP1 POP SWAP2 SWAP1 POP JUMP JUMPDEST PUSH32 0x416464726573733A2063616C6C20746F206E6F6E2D636F6E7472616374000000 PUSH0 DUP3 ADD MSTORE POP JUMP JUMPDEST PUSH0 PUSH2 0x4D35 PUSH1 0x1D DUP4 PUSH2 0x3538 JUMP JUMPDEST SWAP2 POP PUSH2 0x4D40 DUP3 PUSH2 0x4D01 JUMP JUMPDEST PUSH1 0x20 DUP3 ADD SWAP1 POP SWAP2 SWAP1 POP JUMP JUMPDEST PUSH0 PUSH1 0x20 DUP3 ADD SWAP1 POP DUP2 DUP2 SUB PUSH0 DUP4 ADD MSTORE PUSH2 0x4D62 DUP2 PUSH2 0x4D29 JUMP JUMPDEST SWAP1 POP SWAP2 SWAP1 POP JUMP JUMPDEST PUSH0 DUP2 MLOAD SWAP1 POP SWAP2 SWAP1 POP JUMP JUMPDEST PUSH0 DUP2 SWAP1 POP SWAP3 SWAP2 POP POP JUMP JUMPDEST PUSH0 PUSH2 0x4D87 DUP3 PUSH2 0x4D69 JUMP JUMPDEST PUSH2 0x4D91 DUP2 DUP6 PUSH2 0x4D73 JUMP JUMPDEST SWAP4 POP PUSH2 0x4DA1 DUP2 DUP6 PUSH1 0x20 DUP7 ADD PUSH2 0x3548 JUMP JUMPDEST DUP1 DUP5 ADD SWAP2 POP POP SWAP3 SWAP2 POP POP JUMP JUMPDEST PUSH0 PUSH2 0x4DB8 DUP3 DUP5 PUSH2 0x4D7D JUMP JUMPDEST SWAP2 POP DUP2 SWAP1 POP SWAP3 SWAP2 POP POP JUMP INVALID LOG2 PUSH5 0x6970667358 0x22 SLT KECCAK256 0xAD MSTORE8 PUSH8 0x210A95E69F04C384 0xD1 SLOAD CREATE2 0xA9 PUSH13 0x6D30254586BFE3C656D424F406 MSIZE 0xBB 0xCA PUSH5 0x736F6C6343 STOP ADDMOD OR STOP CALLER "
		},
		"gasEstimates": {
			"creation": {
				"codeDepositCost": "3992200",
				"executionCost": "infinite",
				"totalCost": "infinite"
			},
			"external": {
				"addBeneficiary(address,uint256[],uint256[])": "infinite",
				"addPaymentToBeneficiary(address,uint256,uint256)": "infinite",
				"approvePayment(address,uint256[])": "infinite",
				"approver()": "2554",
				"beneficiary(address)": "infinite",
				"cancelPaymentsToBeneficiary(address,string,bool)": "infinite",
				"changeApprover(address)": "27219",
				"changeBeneficiaryWallet(address)": "infinite",
				"changedWallets()": "infinite",
				"checkWalletChange(address)": "infinite",
				"currentBalance()": "infinite",
				"currentNonUtilizedAmount()": "infinite",
				"decimals()": "infinite",
				"getCanceledPaymentsAddresses()": "infinite",
				"getReasonForCancellation(address)": "infinite",
				"massApproval(address[],uint256[][])": "infinite",
				"owner()": "2604",
				"release(address)": "infinite",
				"renounceOwnership()": "2752",
				"returnBeneficiaryList()": "infinite",
				"symbol()": "infinite",
				"timeNow()": "375",
				"token()": "infinite",
				"totalUnreleasedPayments()": "2500",
				"transferExcessBalance(address)": "infinite",
				"transferOwnership(address)": "30797"
			},
			"internal": {
				"addElementToArray(address,address[] storage pointer)": "infinite",
				"fastRemoveFromBeneficiaryList(uint256)": "infinite",
				"orderedRemoveFromBeneficiaryList(uint256)": "infinite"
			}
		},
		"methodIdentifiers": {
			"addBeneficiary(address,uint256[],uint256[])": "f61eb2d4",
			"addPaymentToBeneficiary(address,uint256,uint256)": "b347f859",
			"approvePayment(address,uint256[])": "9011edb4",
			"approver()": "141a8dd8",
			"beneficiary(address)": "81008568",
			"cancelPaymentsToBeneficiary(address,string,bool)": "2380996e",
			"changeApprover(address)": "c6c599c1",
			"changeBeneficiaryWallet(address)": "b70b64ec",
			"changedWallets()": "530a60ef",
			"checkWalletChange(address)": "0d43848b",
			"currentBalance()": "ce845d1d",
			"currentNonUtilizedAmount()": "a99d38cb",
			"decimals()": "313ce567",
			"getCanceledPaymentsAddresses()": "c9e701ae",
			"getReasonForCancellation(address)": "c4be66a1",
			"massApproval(address[],uint256[][])": "35565972",
			"owner()": "8da5cb5b",
			"release(address)": "19165587",
			"renounceOwnership()": "715018a6",
			"returnBeneficiaryList()": "711ec9b5",
			"symbol()": "95d89b41",
			"timeNow()": "d95660be",
			"token()": "fc0c546a",
			"totalUnreleasedPayments()": "70c80f99",
			"transferExcessBalance(address)": "8f26fb7f",
			"transferOwnership(address)": "f2fde38b"
		}
	},
	"abi": [
		{
			"inputs": [
				{
					"internalType": "contract DummyToken",
					"name": "token_",
					"type": "address"
				}
			],
			"stateMutability": "nonpayable",
			"type": "constructor"
		},
		{
			"anonymous": false,
			"inputs": [
				{
					"indexed": true,
					"internalType": "address",
					"name": "previousOwner",
					"type": "address"
				},
				{
					"indexed": true,
					"internalType": "address",
					"name": "newOwner",
					"type": "address"
				}
			],
			"name": "OwnershipTransferred",
			"type": "event"
		},
		{
			"inputs": [
				{
					"internalType": "address",
					"name": "beneficiary_",
					"type": "address"
				},
				{
					"internalType": "uint256[]",
					"name": "amounts",
					"type": "uint256[]"
				},
				{
					"internalType": "uint256[]",
					"name": "releaseDates",
					"type": "uint256[]"
				}
			],
			"name": "addBeneficiary",
			"outputs": [],
			"stateMutability": "nonpayable",
			"type": "function"
		},
		{
			"inputs": [
				{
					"internalType": "address",
					"name": "beneficiary_",
					"type": "address"
				},
				{
					"internalType": "uint256",
					"name": "amount",
					"type": "uint256"
				},
				{
					"internalType": "uint256",
					"name": "releaseDate",
					"type": "uint256"
				}
			],
			"name": "addPaymentToBeneficiary",
			"outputs": [],
			"stateMutability": "nonpayable",
			"type": "function"
		},
		{
			"inputs": [
				{
					"internalType": "address",
					"name": "beneficiary_",
					"type": "address"
				},
				{
					"internalType": "uint256[]",
					"name": "indexes",
					"type": "uint256[]"
				}
			],
			"name": "approvePayment",
			"outputs": [],
			"stateMutability": "nonpayable",
			"type": "function"
		},
		{
			"inputs": [],
			"name": "approver",
			"outputs": [
				{
					"internalType": "address",
					"name": "",
					"type": "address"
				}
			],
			"stateMutability": "view",
			"type": "function"
		},
		{
			"inputs": [
				{
					"internalType": "address",
					"name": "beneficiary_",
					"type": "address"
				}
			],
			"name": "beneficiary",
			"outputs": [
				{
					"internalType": "uint256[4][]",
					"name": "",
					"type": "uint256[4][]"
				}
			],
			"stateMutability": "view",
			"type": "function"
		},
		{
			"inputs": [
				{
					"internalType": "address",
					"name": "beneficiary_",
					"type": "address"
				},
				{
					"internalType": "string",
					"name": "reason",
					"type": "string"
				},
				{
					"internalType": "bool",
					"name": "force_delete",
					"type": "bool"
				}
			],
			"name": "cancelPaymentsToBeneficiary",
			"outputs": [],
			"stateMutability": "nonpayable",
			"type": "function"
		},
		{
			"inputs": [
				{
					"internalType": "address",
					"name": "wallet",
					"type": "address"
				}
			],
			"name": "changeApprover",
			"outputs": [
				{
					"internalType": "bool",
					"name": "",
					"type": "bool"
				}
			],
			"stateMutability": "nonpayable",
			"type": "function"
		},
		{
			"inputs": [
				{
					"internalType": "address",
					"name": "newBeneficiary",
					"type": "address"
				}
			],
			"name": "changeBeneficiaryWallet",
			"outputs": [],
			"stateMutability": "nonpayable",
			"type": "function"
		},
		{
			"inputs": [],
			"name": "changedWallets",
			"outputs": [
				{
					"internalType": "address[]",
					"name": "",
					"type": "address[]"
				}
			],
			"stateMutability": "view",
			"type": "function"
		},
		{
			"inputs": [
				{
					"internalType": "address",
					"name": "wallet",
					"type": "address"
				}
			],
			"name": "checkWalletChange",
			"outputs": [
				{
					"internalType": "address",
					"name": "",
					"type": "address"
				}
			],
			"stateMutability": "view",
			"type": "function"
		},
		{
			"inputs": [],
			"name": "currentBalance",
			"outputs": [
				{
					"internalType": "uint256",
					"name": "",
					"type": "uint256"
				}
			],
			"stateMutability": "view",
			"type": "function"
		},
		{
			"inputs": [],
			"name": "currentNonUtilizedAmount",
			"outputs": [
				{
					"internalType": "uint256",
					"name": "",
					"type": "uint256"
				}
			],
			"stateMutability": "view",
			"type": "function"
		},
		{
			"inputs": [],
			"name": "decimals",
			"outputs": [
				{
					"internalType": "uint256",
					"name": "",
					"type": "uint256"
				}
			],
			"stateMutability": "view",
			"type": "function"
		},
		{
			"inputs": [],
			"name": "getCanceledPaymentsAddresses",
			"outputs": [
				{
					"internalType": "address[]",
					"name": "",
					"type": "address[]"
				}
			],
			"stateMutability": "view",
			"type": "function"
		},
		{
			"inputs": [
				{
					"internalType": "address",
					"name": "beneficiary_",
					"type": "address"
				}
			],
			"name": "getReasonForCancellation",
			"outputs": [
				{
					"internalType": "string[]",
					"name": "",
					"type": "string[]"
				}
			],
			"stateMutability": "view",
			"type": "function"
		},
		{
			"inputs": [
				{
					"internalType": "address[]",
					"name": "beneficiaries_",
					"type": "address[]"
				},
				{
					"internalType": "uint256[][]",
					"name": "indexes_per_beneficiary",
					"type": "uint256[][]"
				}
			],
			"name": "massApproval",
			"outputs": [],
			"stateMutability": "nonpayable",
			"type": "function"
		},
		{
			"inputs": [],
			"name": "owner",
			"outputs": [
				{
					"internalType": "address",
					"name": "",
					"type": "address"
				}
			],
			"stateMutability": "view",
			"type": "function"
		},
		{
			"inputs": [
				{
					"internalType": "address",
					"name": "beneficiary_",
					"type": "address"
				}
			],
			"name": "release",
			"outputs": [],
			"stateMutability": "nonpayable",
			"type": "function"
		},
		{
			"inputs": [],
			"name": "renounceOwnership",
			"outputs": [],
			"stateMutability": "view",
			"type": "function"
		},
		{
			"inputs": [],
			"name": "returnBeneficiaryList",
			"outputs": [
				{
					"internalType": "address[]",
					"name": "",
					"type": "address[]"
				}
			],
			"stateMutability": "view",
			"type": "function"
		},
		{
			"inputs": [],
			"name": "symbol",
			"outputs": [
				{
					"internalType": "string",
					"name": "",
					"type": "string"
				}
			],
			"stateMutability": "view",
			"type": "function"
		},
		{
			"inputs": [],
			"name": "timeNow",
			"outputs": [
				{
					"internalType": "uint256",
					"name": "",
					"type": "uint256"
				}
			],
			"stateMutability": "view",
			"type": "function"
		},
		{
			"inputs": [],
			"name": "token",
			"outputs": [
				{
					"internalType": "contract DummyToken",
					"name": "",
					"type": "address"
				}
			],
			"stateMutability": "view",
			"type": "function"
		},
		{
			"inputs": [],
			"name": "totalUnreleasedPayments",
			"outputs": [
				{
					"internalType": "uint256",
					"name": "",
					"type": "uint256"
				}
			],
			"stateMutability": "view",
			"type": "function"
		},
		{
			"inputs": [
				{
					"internalType": "address",
					"name": "wallet",
					"type": "address"
				}
			],
			"name": "transferExcessBalance",
			"outputs": [],
			"stateMutability": "nonpayable",
			"type": "function"
		},
		{
			"inputs": [
				{
					"internalType": "address",
					"name": "newOwner",
					"type": "address"
				}
			],
			"name": "transferOwnership",
			"outputs": [],
			"stateMutability": "nonpayable",
			"type": "function"
		}
	]
}