{
	"data": {
		"bytecode": {
			"linkReferences": {},
			"object": "60806040523480156200001157600080fd5b50604051620017123803806200171283398181016040528101906200003791906200039a565b620000576200004b620000d660201b60201c565b620000de60201b60201c565b80600160006101000a81548173ffffffffffffffffffffffffffffffffffffffff021916908373ffffffffffffffffffffffffffffffffffffffff1602179055508282604051602001620000ad929190620004a7565b60405160208183030381529060405260029081620000cc919062000720565b5050505062000807565b600033905090565b60008060009054906101000a900473ffffffffffffffffffffffffffffffffffffffff169050816000806101000a81548173ffffffffffffffffffffffffffffffffffffffff021916908373ffffffffffffffffffffffffffffffffffffffff1602179055508173ffffffffffffffffffffffffffffffffffffffff168173ffffffffffffffffffffffffffffffffffffffff167f8be0079c531659141344cd1fd0a4f28419497f9722a3daafe3b4186f6b6457e060405160405180910390a35050565b6000604051905090565b600080fd5b600080fd5b600080fd5b600080fd5b6000601f19601f8301169050919050565b7f4e487b7100000000000000000000000000000000000000000000000000000000600052604160045260246000fd5b6200020b82620001c0565b810181811067ffffffffffffffff821117156200022d576200022c620001d1565b5b80604052505050565b600062000242620001a2565b905062000250828262000200565b919050565b600067ffffffffffffffff821115620002735762000272620001d1565b5b6200027e82620001c0565b9050602081019050919050565b60005b83811015620002ab5780820151818401526020810190506200028e565b60008484015250505050565b6000620002ce620002c88462000255565b62000236565b905082815260208101848484011115620002ed57620002ec620001bb565b5b620002fa8482856200028b565b509392505050565b600082601f8301126200031a5762000319620001b6565b5b81516200032c848260208601620002b7565b91505092915050565b600073ffffffffffffffffffffffffffffffffffffffff82169050919050565b6000620003628262000335565b9050919050565b620003748162000355565b81146200038057600080fd5b50565b600081519050620003948162000369565b92915050565b600080600060608486031215620003b657620003b5620001ac565b5b600084015167ffffffffffffffff811115620003d757620003d6620001b1565b5b620003e58682870162000302565b935050602084015167ffffffffffffffff811115620004095762000408620001b1565b5b620004178682870162000302565b92505060406200042a8682870162000383565b9150509250925092565b600081519050919050565b600081905092915050565b6000620004578262000434565b6200046381856200043f565b9350620004758185602086016200028b565b80840191505092915050565b7f2f00000000000000000000000000000000000000000000000000000000000000815250565b6000620004b582856200044a565b9150620004c28262000481565b600182019150620004d482846200044a565b91508190509392505050565b7f4e487b7100000000000000000000000000000000000000000000000000000000600052602260045260246000fd5b600060028204905060018216806200052857607f821691505b6020821081036200053e576200053d620004e0565b5b50919050565b60008190508160005260206000209050919050565b60006020601f8301049050919050565b600082821b905092915050565b600060088302620005a87fffffffffffffffffffffffffffffffffffffffffffffffffffffffffffffffff8262000569565b620005b4868362000569565b95508019841693508086168417925050509392505050565b6000819050919050565b6000819050919050565b600062000601620005fb620005f584620005cc565b620005d6565b620005cc565b9050919050565b6000819050919050565b6200061d83620005e0565b620006356200062c8262000608565b84845462000576565b825550505050565b600090565b6200064c6200063d565b6200065981848462000612565b505050565b5b8181101562000681576200067560008262000642565b6001810190506200065f565b5050565b601f821115620006d0576200069a8162000544565b620006a58462000559565b81016020851015620006b5578190505b620006cd620006c48562000559565b8301826200065e565b50505b505050565b600082821c905092915050565b6000620006f560001984600802620006d5565b1980831691505092915050565b6000620007108383620006e2565b9150826002028217905092915050565b6200072b8262000434565b67ffffffffffffffff811115620007475762000746620001d1565b5b6200075382546200050f565b6200076082828562000685565b600060209050601f83116001811462000798576000841562000783578287015190505b6200078f858262000702565b865550620007ff565b601f198416620007a88662000544565b60005b82811015620007d257848901518255600182019150602085019450602081019050620007ab565b86831015620007f25784890151620007ee601f891682620006e2565b8355505b6001600288020188555050505b505050505050565b610efb80620008176000396000f3fe608060405234801561001057600080fd5b50600436106100575760003560e01c8063082c44841461005c578063715018a6146100785780638da5cb5b14610082578063e1e7ff77146100a0578063f2fde38b146100c1575b600080fd5b610076600480360381019061007191906106fa565b6100dd565b005b61008061015c565b005b61008a610170565b6040516100979190610794565b60405180910390f35b6100a8610199565b6040516100b89493929190610860565b60405180910390f35b6100db60048036038101906100d691906108ac565b610375565b005b6100e56103f8565b80600160006101000a81548173ffffffffffffffffffffffffffffffffffffffff021916908373ffffffffffffffffffffffffffffffffffffffff160217905550828260405160200161013992919061093b565b604051602081830303815290604052600290816101569190610b7a565b50505050565b6101646103f8565b61016e6000610476565b565b60008060009054906101000a900473ffffffffffffffffffffffffffffffffffffffff16905090565b60008060606000806000600160009054906101000a900473ffffffffffffffffffffffffffffffffffffffff1673ffffffffffffffffffffffffffffffffffffffff1663feaf968c6040518163ffffffff1660e01b815260040160a060405180830381865afa158015610210573d6000803e3d6000fd5b505050506040513d601f19601f820116820180604052508101906102349190610ce6565b509350509250506000600160009054906101000a900473ffffffffffffffffffffffffffffffffffffffff1673ffffffffffffffffffffffffffffffffffffffff1663313ce5676040518163ffffffff1660e01b8152600401602060405180830381865afa1580156102aa573d6000803e3d6000fd5b505050506040513d601f19601f820116820180604052508101906102ce9190610d9a565b60ff16905082816002848180546102e49061099d565b80601f01602080910402602001604051908101604052809291908181526020018280546103109061099d565b801561035d5780601f106103325761010080835404028352916020019161035d565b820191906000526020600020905b81548152906001019060200180831161034057829003601f168201915b50505050509150965096509650965050505090919293565b61037d6103f8565b600073ffffffffffffffffffffffffffffffffffffffff168173ffffffffffffffffffffffffffffffffffffffff16036103ec576040517f08c379a00000000000000000000000000000000000000000000000000000000081526004016103e390610e39565b60405180910390fd5b6103f581610476565b50565b61040061053a565b73ffffffffffffffffffffffffffffffffffffffff1661041e610170565b73ffffffffffffffffffffffffffffffffffffffff1614610474576040517f08c379a000000000000000000000000000000000000000000000000000000000815260040161046b90610ea5565b60405180910390fd5b565b60008060009054906101000a900473ffffffffffffffffffffffffffffffffffffffff169050816000806101000a81548173ffffffffffffffffffffffffffffffffffffffff021916908373ffffffffffffffffffffffffffffffffffffffff1602179055508173ffffffffffffffffffffffffffffffffffffffff168173ffffffffffffffffffffffffffffffffffffffff167f8be0079c531659141344cd1fd0a4f28419497f9722a3daafe3b4186f6b6457e060405160405180910390a35050565b600033905090565b6000604051905090565b600080fd5b600080fd5b600080fd5b600080fd5b6000601f19601f8301169050919050565b7f4e487b7100000000000000000000000000000000000000000000000000000000600052604160045260246000fd5b6105a982610560565b810181811067ffffffffffffffff821117156105c8576105c7610571565b5b80604052505050565b60006105db610542565b90506105e782826105a0565b919050565b600067ffffffffffffffff82111561060757610606610571565b5b61061082610560565b9050602081019050919050565b82818337600083830152505050565b600061063f61063a846105ec565b6105d1565b90508281526020810184848401111561065b5761065a61055b565b5b61066684828561061d565b509392505050565b600082601f83011261068357610682610556565b5b813561069384826020860161062c565b91505092915050565b600073ffffffffffffffffffffffffffffffffffffffff82169050919050565b60006106c78261069c565b9050919050565b6106d7816106bc565b81146106e257600080fd5b50565b6000813590506106f4816106ce565b92915050565b6000806000606084860312156107135761071261054c565b5b600084013567ffffffffffffffff81111561073157610730610551565b5b61073d8682870161066e565b935050602084013567ffffffffffffffff81111561075e5761075d610551565b5b61076a8682870161066e565b925050604061077b868287016106e5565b9150509250925092565b61078e816106bc565b82525050565b60006020820190506107a96000830184610785565b92915050565b6000819050919050565b6107c2816107af565b82525050565b6000819050919050565b6107db816107c8565b82525050565b600081519050919050565b600082825260208201905092915050565b60005b8381101561081b578082015181840152602081019050610800565b60008484015250505050565b6000610832826107e1565b61083c81856107ec565b935061084c8185602086016107fd565b61085581610560565b840191505092915050565b600060808201905061087560008301876107b9565b61088260208301866107d2565b81810360408301526108948185610827565b90506108a360608301846107d2565b95945050505050565b6000602082840312156108c2576108c161054c565b5b60006108d0848285016106e5565b91505092915050565b600081905092915050565b60006108ef826107e1565b6108f981856108d9565b93506109098185602086016107fd565b80840191505092915050565b7f2f00000000000000000000000000000000000000000000000000000000000000815250565b600061094782856108e4565b915061095282610915565b60018201915061096282846108e4565b91508190509392505050565b7f4e487b7100000000000000000000000000000000000000000000000000000000600052602260045260246000fd5b600060028204905060018216806109b557607f821691505b6020821081036109c8576109c761096e565b5b50919050565b60008190508160005260206000209050919050565b60006020601f8301049050919050565b600082821b905092915050565b600060088302610a307fffffffffffffffffffffffffffffffffffffffffffffffffffffffffffffffff826109f3565b610a3a86836109f3565b95508019841693508086168417925050509392505050565b6000819050919050565b6000610a77610a72610a6d846107c8565b610a52565b6107c8565b9050919050565b6000819050919050565b610a9183610a5c565b610aa5610a9d82610a7e565b848454610a00565b825550505050565b600090565b610aba610aad565b610ac5818484610a88565b505050565b5b81811015610ae957610ade600082610ab2565b600181019050610acb565b5050565b601f821115610b2e57610aff816109ce565b610b08846109e3565b81016020851015610b17578190505b610b2b610b23856109e3565b830182610aca565b50505b505050565b600082821c905092915050565b6000610b5160001984600802610b33565b1980831691505092915050565b6000610b6a8383610b40565b9150826002028217905092915050565b610b83826107e1565b67ffffffffffffffff811115610b9c57610b9b610571565b5b610ba6825461099d565b610bb1828285610aed565b600060209050601f831160018114610be45760008415610bd2578287015190505b610bdc8582610b5e565b865550610c44565b601f198416610bf2866109ce565b60005b82811015610c1a57848901518255600182019150602085019450602081019050610bf5565b86831015610c375784890151610c33601f891682610b40565b8355505b6001600288020188555050505b505050505050565b600069ffffffffffffffffffff82169050919050565b610c6b81610c4c565b8114610c7657600080fd5b50565b600081519050610c8881610c62565b92915050565b610c97816107af565b8114610ca257600080fd5b50565b600081519050610cb481610c8e565b92915050565b610cc3816107c8565b8114610cce57600080fd5b50565b600081519050610ce081610cba565b92915050565b600080600080600060a08688031215610d0257610d0161054c565b5b6000610d1088828901610c79565b9550506020610d2188828901610ca5565b9450506040610d3288828901610cd1565b9350506060610d4388828901610cd1565b9250506080610d5488828901610c79565b9150509295509295909350565b600060ff82169050919050565b610d7781610d61565b8114610d8257600080fd5b50565b600081519050610d9481610d6e565b92915050565b600060208284031215610db057610daf61054c565b5b6000610dbe84828501610d85565b91505092915050565b7f4f776e61626c653a206e6577206f776e657220697320746865207a65726f206160008201527f6464726573730000000000000000000000000000000000000000000000000000602082015250565b6000610e236026836107ec565b9150610e2e82610dc7565b604082019050919050565b60006020820190508181036000830152610e5281610e16565b9050919050565b7f4f776e61626c653a2063616c6c6572206973206e6f7420746865206f776e6572600082015250565b6000610e8f6020836107ec565b9150610e9a82610e59565b602082019050919050565b60006020820190508181036000830152610ebe81610e82565b905091905056fea26469706673582212203490ad83422a748d2d91db9d17b6bc552e6ee0ffb8caf61f082600b7524fa0ae64736f6c63430008170033",
			"opcodes": "PUSH1 0x80 PUSH1 0x40 MSTORE CALLVALUE DUP1 ISZERO PUSH3 0x11 JUMPI PUSH1 0x0 DUP1 REVERT JUMPDEST POP PUSH1 0x40 MLOAD PUSH3 0x1712 CODESIZE SUB DUP1 PUSH3 0x1712 DUP4 CODECOPY DUP2 DUP2 ADD PUSH1 0x40 MSTORE DUP2 ADD SWAP1 PUSH3 0x37 SWAP2 SWAP1 PUSH3 0x39A JUMP JUMPDEST PUSH3 0x57 PUSH3 0x4B PUSH3 0xD6 PUSH1 0x20 SHL PUSH1 0x20 SHR JUMP JUMPDEST PUSH3 0xDE PUSH1 0x20 SHL PUSH1 0x20 SHR JUMP JUMPDEST DUP1 PUSH1 0x1 PUSH1 0x0 PUSH2 0x100 EXP DUP2 SLOAD DUP2 PUSH20 0xFFFFFFFFFFFFFFFFFFFFFFFFFFFFFFFFFFFFFFFF MUL NOT AND SWAP1 DUP4 PUSH20 0xFFFFFFFFFFFFFFFFFFFFFFFFFFFFFFFFFFFFFFFF AND MUL OR SWAP1 SSTORE POP DUP3 DUP3 PUSH1 0x40 MLOAD PUSH1 0x20 ADD PUSH3 0xAD SWAP3 SWAP2 SWAP1 PUSH3 0x4A7 JUMP JUMPDEST PUSH1 0x40 MLOAD PUSH1 0x20 DUP2 DUP4 SUB SUB DUP2 MSTORE SWAP1 PUSH1 0x40 MSTORE PUSH1 0x2 SWAP1 DUP2 PUSH3 0xCC SWAP2 SWAP1 PUSH3 0x720 JUMP JUMPDEST POP POP POP POP PUSH3 0x807 JUMP JUMPDEST PUSH1 0x0 CALLER SWAP1 POP SWAP1 JUMP JUMPDEST PUSH1 0x0 DUP1 PUSH1 0x0 SWAP1 SLOAD SWAP1 PUSH2 0x100 EXP SWAP1 DIV PUSH20 0xFFFFFFFFFFFFFFFFFFFFFFFFFFFFFFFFFFFFFFFF AND SWAP1 POP DUP2 PUSH1 0x0 DUP1 PUSH2 0x100 EXP DUP2 SLOAD DUP2 PUSH20 0xFFFFFFFFFFFFFFFFFFFFFFFFFFFFFFFFFFFFFFFF MUL NOT AND SWAP1 DUP4 PUSH20 0xFFFFFFFFFFFFFFFFFFFFFFFFFFFFFFFFFFFFFFFF AND MUL OR SWAP1 SSTORE POP DUP2 PUSH20 0xFFFFFFFFFFFFFFFFFFFFFFFFFFFFFFFFFFFFFFFF AND DUP2 PUSH20 0xFFFFFFFFFFFFFFFFFFFFFFFFFFFFFFFFFFFFFFFF AND PUSH32 0x8BE0079C531659141344CD1FD0A4F28419497F9722A3DAAFE3B4186F6B6457E0 PUSH1 0x40 MLOAD PUSH1 0x40 MLOAD DUP1 SWAP2 SUB SWAP1 LOG3 POP POP JUMP JUMPDEST PUSH1 0x0 PUSH1 0x40 MLOAD SWAP1 POP SWAP1 JUMP JUMPDEST PUSH1 0x0 DUP1 REVERT JUMPDEST PUSH1 0x0 DUP1 REVERT JUMPDEST PUSH1 0x0 DUP1 REVERT JUMPDEST PUSH1 0x0 DUP1 REVERT JUMPDEST PUSH1 0x0 PUSH1 0x1F NOT PUSH1 0x1F DUP4 ADD AND SWAP1 POP SWAP2 SWAP1 POP JUMP JUMPDEST PUSH32 0x4E487B7100000000000000000000000000000000000000000000000000000000 PUSH1 0x0 MSTORE PUSH1 0x41 PUSH1 0x4 MSTORE PUSH1 0x24 PUSH1 0x0 REVERT JUMPDEST PUSH3 0x20B DUP3 PUSH3 0x1C0 JUMP JUMPDEST DUP2 ADD DUP2 DUP2 LT PUSH8 0xFFFFFFFFFFFFFFFF DUP3 GT OR ISZERO PUSH3 0x22D JUMPI PUSH3 0x22C PUSH3 0x1D1 JUMP JUMPDEST JUMPDEST DUP1 PUSH1 0x40 MSTORE POP POP POP JUMP JUMPDEST PUSH1 0x0 PUSH3 0x242 PUSH3 0x1A2 JUMP JUMPDEST SWAP1 POP PUSH3 0x250 DUP3 DUP3 PUSH3 0x200 JUMP JUMPDEST SWAP2 SWAP1 POP JUMP JUMPDEST PUSH1 0x0 PUSH8 0xFFFFFFFFFFFFFFFF DUP3 GT ISZERO PUSH3 0x273 JUMPI PUSH3 0x272 PUSH3 0x1D1 JUMP JUMPDEST JUMPDEST PUSH3 0x27E DUP3 PUSH3 0x1C0 JUMP JUMPDEST SWAP1 POP PUSH1 0x20 DUP2 ADD SWAP1 POP SWAP2 SWAP1 POP JUMP JUMPDEST PUSH1 0x0 JUMPDEST DUP4 DUP2 LT ISZERO PUSH3 0x2AB JUMPI DUP1 DUP3 ADD MLOAD DUP2 DUP5 ADD MSTORE PUSH1 0x20 DUP2 ADD SWAP1 POP PUSH3 0x28E JUMP JUMPDEST PUSH1 0x0 DUP5 DUP5 ADD MSTORE POP POP POP POP JUMP JUMPDEST PUSH1 0x0 PUSH3 0x2CE PUSH3 0x2C8 DUP5 PUSH3 0x255 JUMP JUMPDEST PUSH3 0x236 JUMP JUMPDEST SWAP1 POP DUP3 DUP2 MSTORE PUSH1 0x20 DUP2 ADD DUP5 DUP5 DUP5 ADD GT ISZERO PUSH3 0x2ED JUMPI PUSH3 0x2EC PUSH3 0x1BB JUMP JUMPDEST JUMPDEST PUSH3 0x2FA DUP5 DUP3 DUP6 PUSH3 0x28B JUMP JUMPDEST POP SWAP4 SWAP3 POP POP POP JUMP JUMPDEST PUSH1 0x0 DUP3 PUSH1 0x1F DUP4 ADD SLT PUSH3 0x31A JUMPI PUSH3 0x319 PUSH3 0x1B6 JUMP JUMPDEST JUMPDEST DUP2 MLOAD PUSH3 0x32C DUP5 DUP3 PUSH1 0x20 DUP7 ADD PUSH3 0x2B7 JUMP JUMPDEST SWAP2 POP POP SWAP3 SWAP2 POP POP JUMP JUMPDEST PUSH1 0x0 PUSH20 0xFFFFFFFFFFFFFFFFFFFFFFFFFFFFFFFFFFFFFFFF DUP3 AND SWAP1 POP SWAP2 SWAP1 POP JUMP JUMPDEST PUSH1 0x0 PUSH3 0x362 DUP3 PUSH3 0x335 JUMP JUMPDEST SWAP1 POP SWAP2 SWAP1 POP JUMP JUMPDEST PUSH3 0x374 DUP2 PUSH3 0x355 JUMP JUMPDEST DUP2 EQ PUSH3 0x380 JUMPI PUSH1 0x0 DUP1 REVERT JUMPDEST POP JUMP JUMPDEST PUSH1 0x0 DUP2 MLOAD SWAP1 POP PUSH3 0x394 DUP2 PUSH3 0x369 JUMP JUMPDEST SWAP3 SWAP2 POP POP JUMP JUMPDEST PUSH1 0x0 DUP1 PUSH1 0x0 PUSH1 0x60 DUP5 DUP7 SUB SLT ISZERO PUSH3 0x3B6 JUMPI PUSH3 0x3B5 PUSH3 0x1AC JUMP JUMPDEST JUMPDEST PUSH1 0x0 DUP5 ADD MLOAD PUSH8 0xFFFFFFFFFFFFFFFF DUP2 GT ISZERO PUSH3 0x3D7 JUMPI PUSH3 0x3D6 PUSH3 0x1B1 JUMP JUMPDEST JUMPDEST PUSH3 0x3E5 DUP7 DUP3 DUP8 ADD PUSH3 0x302 JUMP JUMPDEST SWAP4 POP POP PUSH1 0x20 DUP5 ADD MLOAD PUSH8 0xFFFFFFFFFFFFFFFF DUP2 GT ISZERO PUSH3 0x409 JUMPI PUSH3 0x408 PUSH3 0x1B1 JUMP JUMPDEST JUMPDEST PUSH3 0x417 DUP7 DUP3 DUP8 ADD PUSH3 0x302 JUMP JUMPDEST SWAP3 POP POP PUSH1 0x40 PUSH3 0x42A DUP7 DUP3 DUP8 ADD PUSH3 0x383 JUMP JUMPDEST SWAP2 POP POP SWAP3 POP SWAP3 POP SWAP3 JUMP JUMPDEST PUSH1 0x0 DUP2 MLOAD SWAP1 POP SWAP2 SWAP1 POP JUMP JUMPDEST PUSH1 0x0 DUP2 SWAP1 POP SWAP3 SWAP2 POP POP JUMP JUMPDEST PUSH1 0x0 PUSH3 0x457 DUP3 PUSH3 0x434 JUMP JUMPDEST PUSH3 0x463 DUP2 DUP6 PUSH3 0x43F JUMP JUMPDEST SWAP4 POP PUSH3 0x475 DUP2 DUP6 PUSH1 0x20 DUP7 ADD PUSH3 0x28B JUMP JUMPDEST DUP1 DUP5 ADD SWAP2 POP POP SWAP3 SWAP2 POP POP JUMP JUMPDEST PUSH32 0x2F00000000000000000000000000000000000000000000000000000000000000 DUP2 MSTORE POP JUMP JUMPDEST PUSH1 0x0 PUSH3 0x4B5 DUP3 DUP6 PUSH3 0x44A JUMP JUMPDEST SWAP2 POP PUSH3 0x4C2 DUP3 PUSH3 0x481 JUMP JUMPDEST PUSH1 0x1 DUP3 ADD SWAP2 POP PUSH3 0x4D4 DUP3 DUP5 PUSH3 0x44A JUMP JUMPDEST SWAP2 POP DUP2 SWAP1 POP SWAP4 SWAP3 POP POP POP JUMP JUMPDEST PUSH32 0x4E487B7100000000000000000000000000000000000000000000000000000000 PUSH1 0x0 MSTORE PUSH1 0x22 PUSH1 0x4 MSTORE PUSH1 0x24 PUSH1 0x0 REVERT JUMPDEST PUSH1 0x0 PUSH1 0x2 DUP3 DIV SWAP1 POP PUSH1 0x1 DUP3 AND DUP1 PUSH3 0x528 JUMPI PUSH1 0x7F DUP3 AND SWAP2 POP JUMPDEST PUSH1 0x20 DUP3 LT DUP2 SUB PUSH3 0x53E JUMPI PUSH3 0x53D PUSH3 0x4E0 JUMP JUMPDEST JUMPDEST POP SWAP2 SWAP1 POP JUMP JUMPDEST PUSH1 0x0 DUP2 SWAP1 POP DUP2 PUSH1 0x0 MSTORE PUSH1 0x20 PUSH1 0x0 KECCAK256 SWAP1 POP SWAP2 SWAP1 POP JUMP JUMPDEST PUSH1 0x0 PUSH1 0x20 PUSH1 0x1F DUP4 ADD DIV SWAP1 POP SWAP2 SWAP1 POP JUMP JUMPDEST PUSH1 0x0 DUP3 DUP3 SHL SWAP1 POP SWAP3 SWAP2 POP POP JUMP JUMPDEST PUSH1 0x0 PUSH1 0x8 DUP4 MUL PUSH3 0x5A8 PUSH32 0xFFFFFFFFFFFFFFFFFFFFFFFFFFFFFFFFFFFFFFFFFFFFFFFFFFFFFFFFFFFFFFFF DUP3 PUSH3 0x569 JUMP JUMPDEST PUSH3 0x5B4 DUP7 DUP4 PUSH3 0x569 JUMP JUMPDEST SWAP6 POP DUP1 NOT DUP5 AND SWAP4 POP DUP1 DUP7 AND DUP5 OR SWAP3 POP POP POP SWAP4 SWAP3 POP POP POP JUMP JUMPDEST PUSH1 0x0 DUP2 SWAP1 POP SWAP2 SWAP1 POP JUMP JUMPDEST PUSH1 0x0 DUP2 SWAP1 POP SWAP2 SWAP1 POP JUMP JUMPDEST PUSH1 0x0 PUSH3 0x601 PUSH3 0x5FB PUSH3 0x5F5 DUP5 PUSH3 0x5CC JUMP JUMPDEST PUSH3 0x5D6 JUMP JUMPDEST PUSH3 0x5CC JUMP JUMPDEST SWAP1 POP SWAP2 SWAP1 POP JUMP JUMPDEST PUSH1 0x0 DUP2 SWAP1 POP SWAP2 SWAP1 POP JUMP JUMPDEST PUSH3 0x61D DUP4 PUSH3 0x5E0 JUMP JUMPDEST PUSH3 0x635 PUSH3 0x62C DUP3 PUSH3 0x608 JUMP JUMPDEST DUP5 DUP5 SLOAD PUSH3 0x576 JUMP JUMPDEST DUP3 SSTORE POP POP POP POP JUMP JUMPDEST PUSH1 0x0 SWAP1 JUMP JUMPDEST PUSH3 0x64C PUSH3 0x63D JUMP JUMPDEST PUSH3 0x659 DUP2 DUP5 DUP5 PUSH3 0x612 JUMP JUMPDEST POP POP POP JUMP JUMPDEST JUMPDEST DUP2 DUP2 LT ISZERO PUSH3 0x681 JUMPI PUSH3 0x675 PUSH1 0x0 DUP3 PUSH3 0x642 JUMP JUMPDEST PUSH1 0x1 DUP2 ADD SWAP1 POP PUSH3 0x65F JUMP JUMPDEST POP POP JUMP JUMPDEST PUSH1 0x1F DUP3 GT ISZERO PUSH3 0x6D0 JUMPI PUSH3 0x69A DUP2 PUSH3 0x544 JUMP JUMPDEST PUSH3 0x6A5 DUP5 PUSH3 0x559 JUMP JUMPDEST DUP2 ADD PUSH1 0x20 DUP6 LT ISZERO PUSH3 0x6B5 JUMPI DUP2 SWAP1 POP JUMPDEST PUSH3 0x6CD PUSH3 0x6C4 DUP6 PUSH3 0x559 JUMP JUMPDEST DUP4 ADD DUP3 PUSH3 0x65E JUMP JUMPDEST POP POP JUMPDEST POP POP POP JUMP JUMPDEST PUSH1 0x0 DUP3 DUP3 SHR SWAP1 POP SWAP3 SWAP2 POP POP JUMP JUMPDEST PUSH1 0x0 PUSH3 0x6F5 PUSH1 0x0 NOT DUP5 PUSH1 0x8 MUL PUSH3 0x6D5 JUMP JUMPDEST NOT DUP1 DUP4 AND SWAP2 POP POP SWAP3 SWAP2 POP POP JUMP JUMPDEST PUSH1 0x0 PUSH3 0x710 DUP4 DUP4 PUSH3 0x6E2 JUMP JUMPDEST SWAP2 POP DUP3 PUSH1 0x2 MUL DUP3 OR SWAP1 POP SWAP3 SWAP2 POP POP JUMP JUMPDEST PUSH3 0x72B DUP3 PUSH3 0x434 JUMP JUMPDEST PUSH8 0xFFFFFFFFFFFFFFFF DUP2 GT ISZERO PUSH3 0x747 JUMPI PUSH3 0x746 PUSH3 0x1D1 JUMP JUMPDEST JUMPDEST PUSH3 0x753 DUP3 SLOAD PUSH3 0x50F JUMP JUMPDEST PUSH3 0x760 DUP3 DUP3 DUP6 PUSH3 0x685 JUMP JUMPDEST PUSH1 0x0 PUSH1 0x20 SWAP1 POP PUSH1 0x1F DUP4 GT PUSH1 0x1 DUP2 EQ PUSH3 0x798 JUMPI PUSH1 0x0 DUP5 ISZERO PUSH3 0x783 JUMPI DUP3 DUP8 ADD MLOAD SWAP1 POP JUMPDEST PUSH3 0x78F DUP6 DUP3 PUSH3 0x702 JUMP JUMPDEST DUP7 SSTORE POP PUSH3 0x7FF JUMP JUMPDEST PUSH1 0x1F NOT DUP5 AND PUSH3 0x7A8 DUP7 PUSH3 0x544 JUMP JUMPDEST PUSH1 0x0 JUMPDEST DUP3 DUP2 LT ISZERO PUSH3 0x7D2 JUMPI DUP5 DUP10 ADD MLOAD DUP3 SSTORE PUSH1 0x1 DUP3 ADD SWAP2 POP PUSH1 0x20 DUP6 ADD SWAP5 POP PUSH1 0x20 DUP2 ADD SWAP1 POP PUSH3 0x7AB JUMP JUMPDEST DUP7 DUP4 LT ISZERO PUSH3 0x7F2 JUMPI DUP5 DUP10 ADD MLOAD PUSH3 0x7EE PUSH1 0x1F DUP10 AND DUP3 PUSH3 0x6E2 JUMP JUMPDEST DUP4 SSTORE POP JUMPDEST PUSH1 0x1 PUSH1 0x2 DUP9 MUL ADD DUP9 SSTORE POP POP POP JUMPDEST POP POP POP POP POP POP JUMP JUMPDEST PUSH2 0xEFB DUP1 PUSH3 0x817 PUSH1 0x0 CODECOPY PUSH1 0x0 RETURN INVALID PUSH1 0x80 PUSH1 0x40 MSTORE CALLVALUE DUP1 ISZERO PUSH2 0x10 JUMPI PUSH1 0x0 DUP1 REVERT JUMPDEST POP PUSH1 0x4 CALLDATASIZE LT PUSH2 0x57 JUMPI PUSH1 0x0 CALLDATALOAD PUSH1 0xE0 SHR DUP1 PUSH4 0x82C4484 EQ PUSH2 0x5C JUMPI DUP1 PUSH4 0x715018A6 EQ PUSH2 0x78 JUMPI DUP1 PUSH4 0x8DA5CB5B EQ PUSH2 0x82 JUMPI DUP1 PUSH4 0xE1E7FF77 EQ PUSH2 0xA0 JUMPI DUP1 PUSH4 0xF2FDE38B EQ PUSH2 0xC1 JUMPI JUMPDEST PUSH1 0x0 DUP1 REVERT JUMPDEST PUSH2 0x76 PUSH1 0x4 DUP1 CALLDATASIZE SUB DUP2 ADD SWAP1 PUSH2 0x71 SWAP2 SWAP1 PUSH2 0x6FA JUMP JUMPDEST PUSH2 0xDD JUMP JUMPDEST STOP JUMPDEST PUSH2 0x80 PUSH2 0x15C JUMP JUMPDEST STOP JUMPDEST PUSH2 0x8A PUSH2 0x170 JUMP JUMPDEST PUSH1 0x40 MLOAD PUSH2 0x97 SWAP2 SWAP1 PUSH2 0x794 JUMP JUMPDEST PUSH1 0x40 MLOAD DUP1 SWAP2 SUB SWAP1 RETURN JUMPDEST PUSH2 0xA8 PUSH2 0x199 JUMP JUMPDEST PUSH1 0x40 MLOAD PUSH2 0xB8 SWAP5 SWAP4 SWAP3 SWAP2 SWAP1 PUSH2 0x860 JUMP JUMPDEST PUSH1 0x40 MLOAD DUP1 SWAP2 SUB SWAP1 RETURN JUMPDEST PUSH2 0xDB PUSH1 0x4 DUP1 CALLDATASIZE SUB DUP2 ADD SWAP1 PUSH2 0xD6 SWAP2 SWAP1 PUSH2 0x8AC JUMP JUMPDEST PUSH2 0x375 JUMP JUMPDEST STOP JUMPDEST PUSH2 0xE5 PUSH2 0x3F8 JUMP JUMPDEST DUP1 PUSH1 0x1 PUSH1 0x0 PUSH2 0x100 EXP DUP2 SLOAD DUP2 PUSH20 0xFFFFFFFFFFFFFFFFFFFFFFFFFFFFFFFFFFFFFFFF MUL NOT AND SWAP1 DUP4 PUSH20 0xFFFFFFFFFFFFFFFFFFFFFFFFFFFFFFFFFFFFFFFF AND MUL OR SWAP1 SSTORE POP DUP3 DUP3 PUSH1 0x40 MLOAD PUSH1 0x20 ADD PUSH2 0x139 SWAP3 SWAP2 SWAP1 PUSH2 0x93B JUMP JUMPDEST PUSH1 0x40 MLOAD PUSH1 0x20 DUP2 DUP4 SUB SUB DUP2 MSTORE SWAP1 PUSH1 0x40 MSTORE PUSH1 0x2 SWAP1 DUP2 PUSH2 0x156 SWAP2 SWAP1 PUSH2 0xB7A JUMP JUMPDEST POP POP POP POP JUMP JUMPDEST PUSH2 0x164 PUSH2 0x3F8 JUMP JUMPDEST PUSH2 0x16E PUSH1 0x0 PUSH2 0x476 JUMP JUMPDEST JUMP JUMPDEST PUSH1 0x0 DUP1 PUSH1 0x0 SWAP1 SLOAD SWAP1 PUSH2 0x100 EXP SWAP1 DIV PUSH20 0xFFFFFFFFFFFFFFFFFFFFFFFFFFFFFFFFFFFFFFFF AND SWAP1 POP SWAP1 JUMP JUMPDEST PUSH1 0x0 DUP1 PUSH1 0x60 PUSH1 0x0 DUP1 PUSH1 0x0 PUSH1 0x1 PUSH1 0x0 SWAP1 SLOAD SWAP1 PUSH2 0x100 EXP SWAP1 DIV PUSH20 0xFFFFFFFFFFFFFFFFFFFFFFFFFFFFFFFFFFFFFFFF AND PUSH20 0xFFFFFFFFFFFFFFFFFFFFFFFFFFFFFFFFFFFFFFFF AND PUSH4 0xFEAF968C PUSH1 0x40 MLOAD DUP2 PUSH4 0xFFFFFFFF AND PUSH1 0xE0 SHL DUP2 MSTORE PUSH1 0x4 ADD PUSH1 0xA0 PUSH1 0x40 MLOAD DUP1 DUP4 SUB DUP2 DUP7 GAS STATICCALL ISZERO DUP1 ISZERO PUSH2 0x210 JUMPI RETURNDATASIZE PUSH1 0x0 DUP1 RETURNDATACOPY RETURNDATASIZE PUSH1 0x0 REVERT JUMPDEST POP POP POP POP PUSH1 0x40 MLOAD RETURNDATASIZE PUSH1 0x1F NOT PUSH1 0x1F DUP3 ADD AND DUP3 ADD DUP1 PUSH1 0x40 MSTORE POP DUP2 ADD SWAP1 PUSH2 0x234 SWAP2 SWAP1 PUSH2 0xCE6 JUMP JUMPDEST POP SWAP4 POP POP SWAP3 POP POP PUSH1 0x0 PUSH1 0x1 PUSH1 0x0 SWAP1 SLOAD SWAP1 PUSH2 0x100 EXP SWAP1 DIV PUSH20 0xFFFFFFFFFFFFFFFFFFFFFFFFFFFFFFFFFFFFFFFF AND PUSH20 0xFFFFFFFFFFFFFFFFFFFFFFFFFFFFFFFFFFFFFFFF AND PUSH4 0x313CE567 PUSH1 0x40 MLOAD DUP2 PUSH4 0xFFFFFFFF AND PUSH1 0xE0 SHL DUP2 MSTORE PUSH1 0x4 ADD PUSH1 0x20 PUSH1 0x40 MLOAD DUP1 DUP4 SUB DUP2 DUP7 GAS STATICCALL ISZERO DUP1 ISZERO PUSH2 0x2AA JUMPI RETURNDATASIZE PUSH1 0x0 DUP1 RETURNDATACOPY RETURNDATASIZE PUSH1 0x0 REVERT JUMPDEST POP POP POP POP PUSH1 0x40 MLOAD RETURNDATASIZE PUSH1 0x1F NOT PUSH1 0x1F DUP3 ADD AND DUP3 ADD DUP1 PUSH1 0x40 MSTORE POP DUP2 ADD SWAP1 PUSH2 0x2CE SWAP2 SWAP1 PUSH2 0xD9A JUMP JUMPDEST PUSH1 0xFF AND SWAP1 POP DUP3 DUP2 PUSH1 0x2 DUP5 DUP2 DUP1 SLOAD PUSH2 0x2E4 SWAP1 PUSH2 0x99D JUMP JUMPDEST DUP1 PUSH1 0x1F ADD PUSH1 0x20 DUP1 SWAP2 DIV MUL PUSH1 0x20 ADD PUSH1 0x40 MLOAD SWAP1 DUP2 ADD PUSH1 0x40 MSTORE DUP1 SWAP3 SWAP2 SWAP1 DUP2 DUP2 MSTORE PUSH1 0x20 ADD DUP3 DUP1 SLOAD PUSH2 0x310 SWAP1 PUSH2 0x99D JUMP JUMPDEST DUP1 ISZERO PUSH2 0x35D JUMPI DUP1 PUSH1 0x1F LT PUSH2 0x332 JUMPI PUSH2 0x100 DUP1 DUP4 SLOAD DIV MUL DUP4 MSTORE SWAP2 PUSH1 0x20 ADD SWAP2 PUSH2 0x35D JUMP JUMPDEST DUP3 ADD SWAP2 SWAP1 PUSH1 0x0 MSTORE PUSH1 0x20 PUSH1 0x0 KECCAK256 SWAP1 JUMPDEST DUP2 SLOAD DUP2 MSTORE SWAP1 PUSH1 0x1 ADD SWAP1 PUSH1 0x20 ADD DUP1 DUP4 GT PUSH2 0x340 JUMPI DUP3 SWAP1 SUB PUSH1 0x1F AND DUP3 ADD SWAP2 JUMPDEST POP POP POP POP POP SWAP2 POP SWAP7 POP SWAP7 POP SWAP7 POP SWAP7 POP POP POP POP SWAP1 SWAP2 SWAP3 SWAP4 JUMP JUMPDEST PUSH2 0x37D PUSH2 0x3F8 JUMP JUMPDEST PUSH1 0x0 PUSH20 0xFFFFFFFFFFFFFFFFFFFFFFFFFFFFFFFFFFFFFFFF AND DUP2 PUSH20 0xFFFFFFFFFFFFFFFFFFFFFFFFFFFFFFFFFFFFFFFF AND SUB PUSH2 0x3EC JUMPI PUSH1 0x40 MLOAD PUSH32 0x8C379A000000000000000000000000000000000000000000000000000000000 DUP2 MSTORE PUSH1 0x4 ADD PUSH2 0x3E3 SWAP1 PUSH2 0xE39 JUMP JUMPDEST PUSH1 0x40 MLOAD DUP1 SWAP2 SUB SWAP1 REVERT JUMPDEST PUSH2 0x3F5 DUP2 PUSH2 0x476 JUMP JUMPDEST POP JUMP JUMPDEST PUSH2 0x400 PUSH2 0x53A JUMP JUMPDEST PUSH20 0xFFFFFFFFFFFFFFFFFFFFFFFFFFFFFFFFFFFFFFFF AND PUSH2 0x41E PUSH2 0x170 JUMP JUMPDEST PUSH20 0xFFFFFFFFFFFFFFFFFFFFFFFFFFFFFFFFFFFFFFFF AND EQ PUSH2 0x474 JUMPI PUSH1 0x40 MLOAD PUSH32 0x8C379A000000000000000000000000000000000000000000000000000000000 DUP2 MSTORE PUSH1 0x4 ADD PUSH2 0x46B SWAP1 PUSH2 0xEA5 JUMP JUMPDEST PUSH1 0x40 MLOAD DUP1 SWAP2 SUB SWAP1 REVERT JUMPDEST JUMP JUMPDEST PUSH1 0x0 DUP1 PUSH1 0x0 SWAP1 SLOAD SWAP1 PUSH2 0x100 EXP SWAP1 DIV PUSH20 0xFFFFFFFFFFFFFFFFFFFFFFFFFFFFFFFFFFFFFFFF AND SWAP1 POP DUP2 PUSH1 0x0 DUP1 PUSH2 0x100 EXP DUP2 SLOAD DUP2 PUSH20 0xFFFFFFFFFFFFFFFFFFFFFFFFFFFFFFFFFFFFFFFF MUL NOT AND SWAP1 DUP4 PUSH20 0xFFFFFFFFFFFFFFFFFFFFFFFFFFFFFFFFFFFFFFFF AND MUL OR SWAP1 SSTORE POP DUP2 PUSH20 0xFFFFFFFFFFFFFFFFFFFFFFFFFFFFFFFFFFFFFFFF AND DUP2 PUSH20 0xFFFFFFFFFFFFFFFFFFFFFFFFFFFFFFFFFFFFFFFF AND PUSH32 0x8BE0079C531659141344CD1FD0A4F28419497F9722A3DAAFE3B4186F6B6457E0 PUSH1 0x40 MLOAD PUSH1 0x40 MLOAD DUP1 SWAP2 SUB SWAP1 LOG3 POP POP JUMP JUMPDEST PUSH1 0x0 CALLER SWAP1 POP SWAP1 JUMP JUMPDEST PUSH1 0x0 PUSH1 0x40 MLOAD SWAP1 POP SWAP1 JUMP JUMPDEST PUSH1 0x0 DUP1 REVERT JUMPDEST PUSH1 0x0 DUP1 REVERT JUMPDEST PUSH1 0x0 DUP1 REVERT JUMPDEST PUSH1 0x0 DUP1 REVERT JUMPDEST PUSH1 0x0 PUSH1 0x1F NOT PUSH1 0x1F DUP4 ADD AND SWAP1 POP SWAP2 SWAP1 POP JUMP JUMPDEST PUSH32 0x4E487B7100000000000000000000000000000000000000000000000000000000 PUSH1 0x0 MSTORE PUSH1 0x41 PUSH1 0x4 MSTORE PUSH1 0x24 PUSH1 0x0 REVERT JUMPDEST PUSH2 0x5A9 DUP3 PUSH2 0x560 JUMP JUMPDEST DUP2 ADD DUP2 DUP2 LT PUSH8 0xFFFFFFFFFFFFFFFF DUP3 GT OR ISZERO PUSH2 0x5C8 JUMPI PUSH2 0x5C7 PUSH2 0x571 JUMP JUMPDEST JUMPDEST DUP1 PUSH1 0x40 MSTORE POP POP POP JUMP JUMPDEST PUSH1 0x0 PUSH2 0x5DB PUSH2 0x542 JUMP JUMPDEST SWAP1 POP PUSH2 0x5E7 DUP3 DUP3 PUSH2 0x5A0 JUMP JUMPDEST SWAP2 SWAP1 POP JUMP JUMPDEST PUSH1 0x0 PUSH8 0xFFFFFFFFFFFFFFFF DUP3 GT ISZERO PUSH2 0x607 JUMPI PUSH2 0x606 PUSH2 0x571 JUMP JUMPDEST JUMPDEST PUSH2 0x610 DUP3 PUSH2 0x560 JUMP JUMPDEST SWAP1 POP PUSH1 0x20 DUP2 ADD SWAP1 POP SWAP2 SWAP1 POP JUMP JUMPDEST DUP3 DUP2 DUP4 CALLDATACOPY PUSH1 0x0 DUP4 DUP4 ADD MSTORE POP POP POP JUMP JUMPDEST PUSH1 0x0 PUSH2 0x63F PUSH2 0x63A DUP5 PUSH2 0x5EC JUMP JUMPDEST PUSH2 0x5D1 JUMP JUMPDEST SWAP1 POP DUP3 DUP2 MSTORE PUSH1 0x20 DUP2 ADD DUP5 DUP5 DUP5 ADD GT ISZERO PUSH2 0x65B JUMPI PUSH2 0x65A PUSH2 0x55B JUMP JUMPDEST JUMPDEST PUSH2 0x666 DUP5 DUP3 DUP6 PUSH2 0x61D JUMP JUMPDEST POP SWAP4 SWAP3 POP POP POP JUMP JUMPDEST PUSH1 0x0 DUP3 PUSH1 0x1F DUP4 ADD SLT PUSH2 0x683 JUMPI PUSH2 0x682 PUSH2 0x556 JUMP JUMPDEST JUMPDEST DUP2 CALLDATALOAD PUSH2 0x693 DUP5 DUP3 PUSH1 0x20 DUP7 ADD PUSH2 0x62C JUMP JUMPDEST SWAP2 POP POP SWAP3 SWAP2 POP POP JUMP JUMPDEST PUSH1 0x0 PUSH20 0xFFFFFFFFFFFFFFFFFFFFFFFFFFFFFFFFFFFFFFFF DUP3 AND SWAP1 POP SWAP2 SWAP1 POP JUMP JUMPDEST PUSH1 0x0 PUSH2 0x6C7 DUP3 PUSH2 0x69C JUMP JUMPDEST SWAP1 POP SWAP2 SWAP1 POP JUMP JUMPDEST PUSH2 0x6D7 DUP2 PUSH2 0x6BC JUMP JUMPDEST DUP2 EQ PUSH2 0x6E2 JUMPI PUSH1 0x0 DUP1 REVERT JUMPDEST POP JUMP JUMPDEST PUSH1 0x0 DUP2 CALLDATALOAD SWAP1 POP PUSH2 0x6F4 DUP2 PUSH2 0x6CE JUMP JUMPDEST SWAP3 SWAP2 POP POP JUMP JUMPDEST PUSH1 0x0 DUP1 PUSH1 0x0 PUSH1 0x60 DUP5 DUP7 SUB SLT ISZERO PUSH2 0x713 JUMPI PUSH2 0x712 PUSH2 0x54C JUMP JUMPDEST JUMPDEST PUSH1 0x0 DUP5 ADD CALLDATALOAD PUSH8 0xFFFFFFFFFFFFFFFF DUP2 GT ISZERO PUSH2 0x731 JUMPI PUSH2 0x730 PUSH2 0x551 JUMP JUMPDEST JUMPDEST PUSH2 0x73D DUP7 DUP3 DUP8 ADD PUSH2 0x66E JUMP JUMPDEST SWAP4 POP POP PUSH1 0x20 DUP5 ADD CALLDATALOAD PUSH8 0xFFFFFFFFFFFFFFFF DUP2 GT ISZERO PUSH2 0x75E JUMPI PUSH2 0x75D PUSH2 0x551 JUMP JUMPDEST JUMPDEST PUSH2 0x76A DUP7 DUP3 DUP8 ADD PUSH2 0x66E JUMP JUMPDEST SWAP3 POP POP PUSH1 0x40 PUSH2 0x77B DUP7 DUP3 DUP8 ADD PUSH2 0x6E5 JUMP JUMPDEST SWAP2 POP POP SWAP3 POP SWAP3 POP SWAP3 JUMP JUMPDEST PUSH2 0x78E DUP2 PUSH2 0x6BC JUMP JUMPDEST DUP3 MSTORE POP POP JUMP JUMPDEST PUSH1 0x0 PUSH1 0x20 DUP3 ADD SWAP1 POP PUSH2 0x7A9 PUSH1 0x0 DUP4 ADD DUP5 PUSH2 0x785 JUMP JUMPDEST SWAP3 SWAP2 POP POP JUMP JUMPDEST PUSH1 0x0 DUP2 SWAP1 POP SWAP2 SWAP1 POP JUMP JUMPDEST PUSH2 0x7C2 DUP2 PUSH2 0x7AF JUMP JUMPDEST DUP3 MSTORE POP POP JUMP JUMPDEST PUSH1 0x0 DUP2 SWAP1 POP SWAP2 SWAP1 POP JUMP JUMPDEST PUSH2 0x7DB DUP2 PUSH2 0x7C8 JUMP JUMPDEST DUP3 MSTORE POP POP JUMP JUMPDEST PUSH1 0x0 DUP2 MLOAD SWAP1 POP SWAP2 SWAP1 POP JUMP JUMPDEST PUSH1 0x0 DUP3 DUP3 MSTORE PUSH1 0x20 DUP3 ADD SWAP1 POP SWAP3 SWAP2 POP POP JUMP JUMPDEST PUSH1 0x0 JUMPDEST DUP4 DUP2 LT ISZERO PUSH2 0x81B JUMPI DUP1 DUP3 ADD MLOAD DUP2 DUP5 ADD MSTORE PUSH1 0x20 DUP2 ADD SWAP1 POP PUSH2 0x800 JUMP JUMPDEST PUSH1 0x0 DUP5 DUP5 ADD MSTORE POP POP POP POP JUMP JUMPDEST PUSH1 0x0 PUSH2 0x832 DUP3 PUSH2 0x7E1 JUMP JUMPDEST PUSH2 0x83C DUP2 DUP6 PUSH2 0x7EC JUMP JUMPDEST SWAP4 POP PUSH2 0x84C DUP2 DUP6 PUSH1 0x20 DUP7 ADD PUSH2 0x7FD JUMP JUMPDEST PUSH2 0x855 DUP2 PUSH2 0x560 JUMP JUMPDEST DUP5 ADD SWAP2 POP POP SWAP3 SWAP2 POP POP JUMP JUMPDEST PUSH1 0x0 PUSH1 0x80 DUP3 ADD SWAP1 POP PUSH2 0x875 PUSH1 0x0 DUP4 ADD DUP8 PUSH2 0x7B9 JUMP JUMPDEST PUSH2 0x882 PUSH1 0x20 DUP4 ADD DUP7 PUSH2 0x7D2 JUMP JUMPDEST DUP2 DUP2 SUB PUSH1 0x40 DUP4 ADD MSTORE PUSH2 0x894 DUP2 DUP6 PUSH2 0x827 JUMP JUMPDEST SWAP1 POP PUSH2 0x8A3 PUSH1 0x60 DUP4 ADD DUP5 PUSH2 0x7D2 JUMP JUMPDEST SWAP6 SWAP5 POP POP POP POP POP JUMP JUMPDEST PUSH1 0x0 PUSH1 0x20 DUP3 DUP5 SUB SLT ISZERO PUSH2 0x8C2 JUMPI PUSH2 0x8C1 PUSH2 0x54C JUMP JUMPDEST JUMPDEST PUSH1 0x0 PUSH2 0x8D0 DUP5 DUP3 DUP6 ADD PUSH2 0x6E5 JUMP JUMPDEST SWAP2 POP POP SWAP3 SWAP2 POP POP JUMP JUMPDEST PUSH1 0x0 DUP2 SWAP1 POP SWAP3 SWAP2 POP POP JUMP JUMPDEST PUSH1 0x0 PUSH2 0x8EF DUP3 PUSH2 0x7E1 JUMP JUMPDEST PUSH2 0x8F9 DUP2 DUP6 PUSH2 0x8D9 JUMP JUMPDEST SWAP4 POP PUSH2 0x909 DUP2 DUP6 PUSH1 0x20 DUP7 ADD PUSH2 0x7FD JUMP JUMPDEST DUP1 DUP5 ADD SWAP2 POP POP SWAP3 SWAP2 POP POP JUMP JUMPDEST PUSH32 0x2F00000000000000000000000000000000000000000000000000000000000000 DUP2 MSTORE POP JUMP JUMPDEST PUSH1 0x0 PUSH2 0x947 DUP3 DUP6 PUSH2 0x8E4 JUMP JUMPDEST SWAP2 POP PUSH2 0x952 DUP3 PUSH2 0x915 JUMP JUMPDEST PUSH1 0x1 DUP3 ADD SWAP2 POP PUSH2 0x962 DUP3 DUP5 PUSH2 0x8E4 JUMP JUMPDEST SWAP2 POP DUP2 SWAP1 POP SWAP4 SWAP3 POP POP POP JUMP JUMPDEST PUSH32 0x4E487B7100000000000000000000000000000000000000000000000000000000 PUSH1 0x0 MSTORE PUSH1 0x22 PUSH1 0x4 MSTORE PUSH1 0x24 PUSH1 0x0 REVERT JUMPDEST PUSH1 0x0 PUSH1 0x2 DUP3 DIV SWAP1 POP PUSH1 0x1 DUP3 AND DUP1 PUSH2 0x9B5 JUMPI PUSH1 0x7F DUP3 AND SWAP2 POP JUMPDEST PUSH1 0x20 DUP3 LT DUP2 SUB PUSH2 0x9C8 JUMPI PUSH2 0x9C7 PUSH2 0x96E JUMP JUMPDEST JUMPDEST POP SWAP2 SWAP1 POP JUMP JUMPDEST PUSH1 0x0 DUP2 SWAP1 POP DUP2 PUSH1 0x0 MSTORE PUSH1 0x20 PUSH1 0x0 KECCAK256 SWAP1 POP SWAP2 SWAP1 POP JUMP JUMPDEST PUSH1 0x0 PUSH1 0x20 PUSH1 0x1F DUP4 ADD DIV SWAP1 POP SWAP2 SWAP1 POP JUMP JUMPDEST PUSH1 0x0 DUP3 DUP3 SHL SWAP1 POP SWAP3 SWAP2 POP POP JUMP JUMPDEST PUSH1 0x0 PUSH1 0x8 DUP4 MUL PUSH2 0xA30 PUSH32 0xFFFFFFFFFFFFFFFFFFFFFFFFFFFFFFFFFFFFFFFFFFFFFFFFFFFFFFFFFFFFFFFF DUP3 PUSH2 0x9F3 JUMP JUMPDEST PUSH2 0xA3A DUP7 DUP4 PUSH2 0x9F3 JUMP JUMPDEST SWAP6 POP DUP1 NOT DUP5 AND SWAP4 POP DUP1 DUP7 AND DUP5 OR SWAP3 POP POP POP SWAP4 SWAP3 POP POP POP JUMP JUMPDEST PUSH1 0x0 DUP2 SWAP1 POP SWAP2 SWAP1 POP JUMP JUMPDEST PUSH1 0x0 PUSH2 0xA77 PUSH2 0xA72 PUSH2 0xA6D DUP5 PUSH2 0x7C8 JUMP JUMPDEST PUSH2 0xA52 JUMP JUMPDEST PUSH2 0x7C8 JUMP JUMPDEST SWAP1 POP SWAP2 SWAP1 POP JUMP JUMPDEST PUSH1 0x0 DUP2 SWAP1 POP SWAP2 SWAP1 POP JUMP JUMPDEST PUSH2 0xA91 DUP4 PUSH2 0xA5C JUMP JUMPDEST PUSH2 0xAA5 PUSH2 0xA9D DUP3 PUSH2 0xA7E JUMP JUMPDEST DUP5 DUP5 SLOAD PUSH2 0xA00 JUMP JUMPDEST DUP3 SSTORE POP POP POP POP JUMP JUMPDEST PUSH1 0x0 SWAP1 JUMP JUMPDEST PUSH2 0xABA PUSH2 0xAAD JUMP JUMPDEST PUSH2 0xAC5 DUP2 DUP5 DUP5 PUSH2 0xA88 JUMP JUMPDEST POP POP POP JUMP JUMPDEST JUMPDEST DUP2 DUP2 LT ISZERO PUSH2 0xAE9 JUMPI PUSH2 0xADE PUSH1 0x0 DUP3 PUSH2 0xAB2 JUMP JUMPDEST PUSH1 0x1 DUP2 ADD SWAP1 POP PUSH2 0xACB JUMP JUMPDEST POP POP JUMP JUMPDEST PUSH1 0x1F DUP3 GT ISZERO PUSH2 0xB2E JUMPI PUSH2 0xAFF DUP2 PUSH2 0x9CE JUMP JUMPDEST PUSH2 0xB08 DUP5 PUSH2 0x9E3 JUMP JUMPDEST DUP2 ADD PUSH1 0x20 DUP6 LT ISZERO PUSH2 0xB17 JUMPI DUP2 SWAP1 POP JUMPDEST PUSH2 0xB2B PUSH2 0xB23 DUP6 PUSH2 0x9E3 JUMP JUMPDEST DUP4 ADD DUP3 PUSH2 0xACA JUMP JUMPDEST POP POP JUMPDEST POP POP POP JUMP JUMPDEST PUSH1 0x0 DUP3 DUP3 SHR SWAP1 POP SWAP3 SWAP2 POP POP JUMP JUMPDEST PUSH1 0x0 PUSH2 0xB51 PUSH1 0x0 NOT DUP5 PUSH1 0x8 MUL PUSH2 0xB33 JUMP JUMPDEST NOT DUP1 DUP4 AND SWAP2 POP POP SWAP3 SWAP2 POP POP JUMP JUMPDEST PUSH1 0x0 PUSH2 0xB6A DUP4 DUP4 PUSH2 0xB40 JUMP JUMPDEST SWAP2 POP DUP3 PUSH1 0x2 MUL DUP3 OR SWAP1 POP SWAP3 SWAP2 POP POP JUMP JUMPDEST PUSH2 0xB83 DUP3 PUSH2 0x7E1 JUMP JUMPDEST PUSH8 0xFFFFFFFFFFFFFFFF DUP2 GT ISZERO PUSH2 0xB9C JUMPI PUSH2 0xB9B PUSH2 0x571 JUMP JUMPDEST JUMPDEST PUSH2 0xBA6 DUP3 SLOAD PUSH2 0x99D JUMP JUMPDEST PUSH2 0xBB1 DUP3 DUP3 DUP6 PUSH2 0xAED JUMP JUMPDEST PUSH1 0x0 PUSH1 0x20 SWAP1 POP PUSH1 0x1F DUP4 GT PUSH1 0x1 DUP2 EQ PUSH2 0xBE4 JUMPI PUSH1 0x0 DUP5 ISZERO PUSH2 0xBD2 JUMPI DUP3 DUP8 ADD MLOAD SWAP1 POP JUMPDEST PUSH2 0xBDC DUP6 DUP3 PUSH2 0xB5E JUMP JUMPDEST DUP7 SSTORE POP PUSH2 0xC44 JUMP JUMPDEST PUSH1 0x1F NOT DUP5 AND PUSH2 0xBF2 DUP7 PUSH2 0x9CE JUMP JUMPDEST PUSH1 0x0 JUMPDEST DUP3 DUP2 LT ISZERO PUSH2 0xC1A JUMPI DUP5 DUP10 ADD MLOAD DUP3 SSTORE PUSH1 0x1 DUP3 ADD SWAP2 POP PUSH1 0x20 DUP6 ADD SWAP5 POP PUSH1 0x20 DUP2 ADD SWAP1 POP PUSH2 0xBF5 JUMP JUMPDEST DUP7 DUP4 LT ISZERO PUSH2 0xC37 JUMPI DUP5 DUP10 ADD MLOAD PUSH2 0xC33 PUSH1 0x1F DUP10 AND DUP3 PUSH2 0xB40 JUMP JUMPDEST DUP4 SSTORE POP JUMPDEST PUSH1 0x1 PUSH1 0x2 DUP9 MUL ADD DUP9 SSTORE POP POP POP JUMPDEST POP POP POP POP POP POP JUMP JUMPDEST PUSH1 0x0 PUSH10 0xFFFFFFFFFFFFFFFFFFFF DUP3 AND SWAP1 POP SWAP2 SWAP1 POP JUMP JUMPDEST PUSH2 0xC6B DUP2 PUSH2 0xC4C JUMP JUMPDEST DUP2 EQ PUSH2 0xC76 JUMPI PUSH1 0x0 DUP1 REVERT JUMPDEST POP JUMP JUMPDEST PUSH1 0x0 DUP2 MLOAD SWAP1 POP PUSH2 0xC88 DUP2 PUSH2 0xC62 JUMP JUMPDEST SWAP3 SWAP2 POP POP JUMP JUMPDEST PUSH2 0xC97 DUP2 PUSH2 0x7AF JUMP JUMPDEST DUP2 EQ PUSH2 0xCA2 JUMPI PUSH1 0x0 DUP1 REVERT JUMPDEST POP JUMP JUMPDEST PUSH1 0x0 DUP2 MLOAD SWAP1 POP PUSH2 0xCB4 DUP2 PUSH2 0xC8E JUMP JUMPDEST SWAP3 SWAP2 POP POP JUMP JUMPDEST PUSH2 0xCC3 DUP2 PUSH2 0x7C8 JUMP JUMPDEST DUP2 EQ PUSH2 0xCCE JUMPI PUSH1 0x0 DUP1 REVERT JUMPDEST POP JUMP JUMPDEST PUSH1 0x0 DUP2 MLOAD SWAP1 POP PUSH2 0xCE0 DUP2 PUSH2 0xCBA JUMP JUMPDEST SWAP3 SWAP2 POP POP JUMP JUMPDEST PUSH1 0x0 DUP1 PUSH1 0x0 DUP1 PUSH1 0x0 PUSH1 0xA0 DUP7 DUP9 SUB SLT ISZERO PUSH2 0xD02 JUMPI PUSH2 0xD01 PUSH2 0x54C JUMP JUMPDEST JUMPDEST PUSH1 0x0 PUSH2 0xD10 DUP9 DUP3 DUP10 ADD PUSH2 0xC79 JUMP JUMPDEST SWAP6 POP POP PUSH1 0x20 PUSH2 0xD21 DUP9 DUP3 DUP10 ADD PUSH2 0xCA5 JUMP JUMPDEST SWAP5 POP POP PUSH1 0x40 PUSH2 0xD32 DUP9 DUP3 DUP10 ADD PUSH2 0xCD1 JUMP JUMPDEST SWAP4 POP POP PUSH1 0x60 PUSH2 0xD43 DUP9 DUP3 DUP10 ADD PUSH2 0xCD1 JUMP JUMPDEST SWAP3 POP POP PUSH1 0x80 PUSH2 0xD54 DUP9 DUP3 DUP10 ADD PUSH2 0xC79 JUMP JUMPDEST SWAP2 POP POP SWAP3 SWAP6 POP SWAP3 SWAP6 SWAP1 SWAP4 POP JUMP JUMPDEST PUSH1 0x0 PUSH1 0xFF DUP3 AND SWAP1 POP SWAP2 SWAP1 POP JUMP JUMPDEST PUSH2 0xD77 DUP2 PUSH2 0xD61 JUMP JUMPDEST DUP2 EQ PUSH2 0xD82 JUMPI PUSH1 0x0 DUP1 REVERT JUMPDEST POP JUMP JUMPDEST PUSH1 0x0 DUP2 MLOAD SWAP1 POP PUSH2 0xD94 DUP2 PUSH2 0xD6E JUMP JUMPDEST SWAP3 SWAP2 POP POP JUMP JUMPDEST PUSH1 0x0 PUSH1 0x20 DUP3 DUP5 SUB SLT ISZERO PUSH2 0xDB0 JUMPI PUSH2 0xDAF PUSH2 0x54C JUMP JUMPDEST JUMPDEST PUSH1 0x0 PUSH2 0xDBE DUP5 DUP3 DUP6 ADD PUSH2 0xD85 JUMP JUMPDEST SWAP2 POP POP SWAP3 SWAP2 POP POP JUMP JUMPDEST PUSH32 0x4F776E61626C653A206E6577206F776E657220697320746865207A65726F2061 PUSH1 0x0 DUP3 ADD MSTORE PUSH32 0x6464726573730000000000000000000000000000000000000000000000000000 PUSH1 0x20 DUP3 ADD MSTORE POP JUMP JUMPDEST PUSH1 0x0 PUSH2 0xE23 PUSH1 0x26 DUP4 PUSH2 0x7EC JUMP JUMPDEST SWAP2 POP PUSH2 0xE2E DUP3 PUSH2 0xDC7 JUMP JUMPDEST PUSH1 0x40 DUP3 ADD SWAP1 POP SWAP2 SWAP1 POP JUMP JUMPDEST PUSH1 0x0 PUSH1 0x20 DUP3 ADD SWAP1 POP DUP2 DUP2 SUB PUSH1 0x0 DUP4 ADD MSTORE PUSH2 0xE52 DUP2 PUSH2 0xE16 JUMP JUMPDEST SWAP1 POP SWAP2 SWAP1 POP JUMP JUMPDEST PUSH32 0x4F776E61626C653A2063616C6C6572206973206E6F7420746865206F776E6572 PUSH1 0x0 DUP3 ADD MSTORE POP JUMP JUMPDEST PUSH1 0x0 PUSH2 0xE8F PUSH1 0x20 DUP4 PUSH2 0x7EC JUMP JUMPDEST SWAP2 POP PUSH2 0xE9A DUP3 PUSH2 0xE59 JUMP JUMPDEST PUSH1 0x20 DUP3 ADD SWAP1 POP SWAP2 SWAP1 POP JUMP JUMPDEST PUSH1 0x0 PUSH1 0x20 DUP3 ADD SWAP1 POP DUP2 DUP2 SUB PUSH1 0x0 DUP4 ADD MSTORE PUSH2 0xEBE DUP2 PUSH2 0xE82 JUMP JUMPDEST SWAP1 POP SWAP2 SWAP1 POP JUMP INVALID LOG2 PUSH5 0x6970667358 0x22 SLT KECCAK256 CALLVALUE SWAP1 0xAD DUP4 TIMESTAMP 0x2A PUSH21 0x8D2D91DB9D17B6BC552E6EE0FFB8CAF61F082600B7 MSTORE 0x4F LOG0 0xAE PUSH5 0x736F6C6343 STOP ADDMOD OR STOP CALLER "
		},
		"gasEstimates": {
			"creation": {
				"codeDepositCost": "767000",
				"executionCost": "infinite",
				"totalCost": "infinite"
			},
			"external": {
				"changeAggregatorAddress(string,string,address)": "infinite",
				"getLatestRate()": "infinite",
				"owner()": "2544",
				"renounceOwnership()": "30398",
				"transferOwnership(address)": "30810"
			}
		},
		"methodIdentifiers": {
			"changeAggregatorAddress(string,string,address)": "082c4484",
			"getLatestRate()": "e1e7ff77",
			"owner()": "8da5cb5b",
			"renounceOwnership()": "715018a6",
			"transferOwnership(address)": "f2fde38b"
		}
	},
	"abi": [
		{
			"inputs": [
				{
					"internalType": "string",
					"name": "_assetOne",
					"type": "string"
				},
				{
					"internalType": "string",
					"name": "_assetTwo",
					"type": "string"
				},
				{
					"internalType": "address",
					"name": "_aggregatorAddress",
					"type": "address"
				}
			],
			"stateMutability": "nonpayable",
			"type": "constructor"
		},
		{
			"anonymous": false,
			"inputs": [
				{
					"indexed": true,
					"internalType": "address",
					"name": "previousOwner",
					"type": "address"
				},
				{
					"indexed": true,
					"internalType": "address",
					"name": "newOwner",
					"type": "address"
				}
			],
			"name": "OwnershipTransferred",
			"type": "event"
		},
		{
			"inputs": [
				{
					"internalType": "string",
					"name": "_assetOne",
					"type": "string"
				},
				{
					"internalType": "string",
					"name": "_assetTwo",
					"type": "string"
				},
				{
					"internalType": "address",
					"name": "_aggregatorAddress",
					"type": "address"
				}
			],
			"name": "changeAggregatorAddress",
			"outputs": [],
			"stateMutability": "nonpayable",
			"type": "function"
		},
		{
			"inputs": [],
			"name": "getLatestRate",
			"outputs": [
				{
					"internalType": "int256",
					"name": "",
					"type": "int256"
				},
				{
					"internalType": "uint256",
					"name": "",
					"type": "uint256"
				},
				{
					"internalType": "string",
					"name": "",
					"type": "string"
				},
				{
					"internalType": "uint256",
					"name": "",
					"type": "uint256"
				}
			],
			"stateMutability": "view",
			"type": "function"
		},
		{
			"inputs": [],
			"name": "owner",
			"outputs": [
				{
					"internalType": "address",
					"name": "",
					"type": "address"
				}
			],
			"stateMutability": "view",
			"type": "function"
		},
		{
			"inputs": [],
			"name": "renounceOwnership",
			"outputs": [],
			"stateMutability": "nonpayable",
			"type": "function"
		},
		{
			"inputs": [
				{
					"internalType": "address",
					"name": "newOwner",
					"type": "address"
				}
			],
			"name": "transferOwnership",
			"outputs": [],
			"stateMutability": "nonpayable",
			"type": "function"
		}
	]
}