{
	"data": {
		"bytecode": {
			"linkReferences": {},
			"object": "608060405234801561001057600080fd5b5061002d61002261003260201b60201c565b61003a60201b60201c565b6100fe565b600033905090565b60008060009054906101000a900473ffffffffffffffffffffffffffffffffffffffff169050816000806101000a81548173ffffffffffffffffffffffffffffffffffffffff021916908373ffffffffffffffffffffffffffffffffffffffff1602179055508173ffffffffffffffffffffffffffffffffffffffff168173ffffffffffffffffffffffffffffffffffffffff167f8be0079c531659141344cd1fd0a4f28419497f9722a3daafe3b4186f6b6457e060405160405180910390a35050565b6159758061010d6000396000f3fe60806040523480156200001157600080fd5b50600436106200005e5760003560e01c8063715018a614620000635780638da5cb5b146200006f578063aa9a068f1462000091578063b4b58ba314620000b3578063f2fde38b14620000d3575b600080fd5b6200006d620000f3565b005b620000796200010b565b6040516200008891906200055e565b60405180910390f35b6200009b62000134565b604051620000aa919062000649565b60405180910390f35b620000d16004803603810190620000cb919062000814565b620001c4565b005b620000f16004803603810190620000eb9190620008bb565b62000330565b005b620000fd620003ba565b6200010960006200043f565b565b60008060009054906101000a900473ffffffffffffffffffffffffffffffffffffffff16905090565b60606001805480602002602001604051908101604052809291908181526020018280548015620001ba57602002820191906000526020600020905b8160009054906101000a900473ffffffffffffffffffffffffffffffffffffffff1673ffffffffffffffffffffffffffffffffffffffff16815260200190600101908083116200016f575b5050505050905090565b620001ce620003ba565b60008585858585604051620001e3906200050b565b620001f395949392919062000976565b604051809103906000f08015801562000210573d6000803e3d6000fd5b5090508073ffffffffffffffffffffffffffffffffffffffff1663f2fde38b336040518263ffffffff1660e01b81526004016200024e91906200055e565b600060405180830381600087803b1580156200026957600080fd5b505af11580156200027e573d6000803e3d6000fd5b505050506001819080600181540180825580915050600190039060005260206000200160009091909190916101000a81548173ffffffffffffffffffffffffffffffffffffffff021916908373ffffffffffffffffffffffffffffffffffffffff1602179055508073ffffffffffffffffffffffffffffffffffffffff167fcf78cf0d6f3d8371e1075c69c492ab4ec5d8cf23a1a239b6a51a1d00be7ca31260405160405180910390a2505050505050565b6200033a620003ba565b600073ffffffffffffffffffffffffffffffffffffffff168173ffffffffffffffffffffffffffffffffffffffff1603620003ac576040517f08c379a0000000000000000000000000000000000000000000000000000000008152600401620003a39062000a50565b60405180910390fd5b620003b7816200043f565b50565b620003c462000503565b73ffffffffffffffffffffffffffffffffffffffff16620003e46200010b565b73ffffffffffffffffffffffffffffffffffffffff16146200043d576040517f08c379a0000000000000000000000000000000000000000000000000000000008152600401620004349062000ac2565b60405180910390fd5b565b60008060009054906101000a900473ffffffffffffffffffffffffffffffffffffffff169050816000806101000a81548173ffffffffffffffffffffffffffffffffffffffff021916908373ffffffffffffffffffffffffffffffffffffffff1602179055508173ffffffffffffffffffffffffffffffffffffffff168173ffffffffffffffffffffffffffffffffffffffff167f8be0079c531659141344cd1fd0a4f28419497f9722a3daafe3b4186f6b6457e060405160405180910390a35050565b600033905090565b614e5b8062000ae583390190565b600073ffffffffffffffffffffffffffffffffffffffff82169050919050565b6000620005468262000519565b9050919050565b620005588162000539565b82525050565b60006020820190506200057560008301846200054d565b92915050565b600081519050919050565b600082825260208201905092915050565b6000819050602082019050919050565b620005b28162000539565b82525050565b6000620005c68383620005a7565b60208301905092915050565b6000602082019050919050565b6000620005ec826200057b565b620005f8818562000586565b9350620006058362000597565b8060005b838110156200063c578151620006208882620005b8565b97506200062d83620005d2565b92505060018101905062000609565b5085935050505092915050565b60006020820190508181036000830152620006658184620005df565b905092915050565b6000604051905090565b600080fd5b600080fd5b600080fd5b600080fd5b6000601f19601f8301169050919050565b7f4e487b7100000000000000000000000000000000000000000000000000000000600052604160045260246000fd5b620006d6826200068b565b810181811067ffffffffffffffff82111715620006f857620006f76200069c565b5b80604052505050565b60006200070d6200066d565b90506200071b8282620006cb565b919050565b600067ffffffffffffffff8211156200073e576200073d6200069c565b5b62000749826200068b565b9050602081019050919050565b82818337600083830152505050565b60006200077c620007768462000720565b62000701565b9050828152602081018484840111156200079b576200079a62000686565b5b620007a884828562000756565b509392505050565b600082601f830112620007c857620007c762000681565b5b8135620007da84826020860162000765565b91505092915050565b620007ee8162000539565b8114620007fa57600080fd5b50565b6000813590506200080e81620007e3565b92915050565b600080600080600060a0868803121562000833576200083262000677565b5b600086013567ffffffffffffffff8111156200085457620008536200067c565b5b6200086288828901620007b0565b95505060206200087588828901620007fd565b94505060406200088888828901620007fd565b93505060606200089b88828901620007fd565b9250506080620008ae88828901620007fd565b9150509295509295909350565b600060208284031215620008d457620008d362000677565b5b6000620008e484828501620007fd565b91505092915050565b600081519050919050565b600082825260208201905092915050565b60005b83811015620009295780820151818401526020810190506200090c565b60008484015250505050565b60006200094282620008ed565b6200094e8185620008f8565b93506200096081856020860162000909565b6200096b816200068b565b840191505092915050565b600060a082019050818103600083015262000992818862000935565b9050620009a360208301876200054d565b620009b260408301866200054d565b620009c160608301856200054d565b620009d060808301846200054d565b9695505050505050565b7f4f776e61626c653a206e6577206f776e657220697320746865207a65726f206160008201527f6464726573730000000000000000000000000000000000000000000000000000602082015250565b600062000a38602683620008f8565b915062000a4582620009da565b604082019050919050565b6000602082019050818103600083015262000a6b8162000a29565b9050919050565b7f4f776e61626c653a2063616c6c6572206973206e6f7420746865206f776e6572600082015250565b600062000aaa602083620008f8565b915062000ab78262000a72565b602082019050919050565b6000602082019050818103600083015262000add8162000a9b565b905091905056fe60a06040526001600260006101000a81548160ff0219169083151502179055506001600260156101000a81548160ff02191690831515021790555060006003556000600455600060055560026006553480156200005b57600080fd5b5060405162004e5b38038062004e5b8339818101604052810190620000819190620005bf565b60008060006101000a81548160ff021916908315150217905550620000bb620000af620002fa60201b60201c565b6200030260201b60201c565b600073ffffffffffffffffffffffffffffffffffffffff168373ffffffffffffffffffffffffffffffffffffffff16036200012d576040517f08c379a00000000000000000000000000000000000000000000000000000000081526004016200012490620006c7565b60405180910390fd5b600073ffffffffffffffffffffffffffffffffffffffff168473ffffffffffffffffffffffffffffffffffffffff16036200019f576040517f08c379a00000000000000000000000000000000000000000000000000000000081526004016200019690620006c7565b60405180910390fd5b6003855114620001e6576040517f08c379a0000000000000000000000000000000000000000000000000000000008152600401620001dd9062000739565b60405180910390fd5b8460019081620001f79190620009a6565b5082600260016101000a81548173ffffffffffffffffffffffffffffffffffffffff021916908373ffffffffffffffffffffffffffffffffffffffff1602179055508373ffffffffffffffffffffffffffffffffffffffff1660808173ffffffffffffffffffffffffffffffffffffffff168152505081600860006101000a81548173ffffffffffffffffffffffffffffffffffffffff021916908373ffffffffffffffffffffffffffffffffffffffff16021790555080600760006101000a81548173ffffffffffffffffffffffffffffffffffffffff021916908373ffffffffffffffffffffffffffffffffffffffff160217905550505050505062000a8d565b600033905090565b60008060019054906101000a900473ffffffffffffffffffffffffffffffffffffffff16905081600060016101000a81548173ffffffffffffffffffffffffffffffffffffffff021916908373ffffffffffffffffffffffffffffffffffffffff1602179055508173ffffffffffffffffffffffffffffffffffffffff168173ffffffffffffffffffffffffffffffffffffffff167f8be0079c531659141344cd1fd0a4f28419497f9722a3daafe3b4186f6b6457e060405160405180910390a35050565b6000604051905090565b600080fd5b600080fd5b600080fd5b600080fd5b6000601f19601f8301169050919050565b7f4e487b7100000000000000000000000000000000000000000000000000000000600052604160045260246000fd5b6200043082620003e5565b810181811067ffffffffffffffff82111715620004525762000451620003f6565b5b80604052505050565b600062000467620003c7565b905062000475828262000425565b919050565b600067ffffffffffffffff821115620004985762000497620003f6565b5b620004a382620003e5565b9050602081019050919050565b60005b83811015620004d0578082015181840152602081019050620004b3565b60008484015250505050565b6000620004f3620004ed846200047a565b6200045b565b905082815260208101848484011115620005125762000511620003e0565b5b6200051f848285620004b0565b509392505050565b600082601f8301126200053f576200053e620003db565b5b815162000551848260208601620004dc565b91505092915050565b600073ffffffffffffffffffffffffffffffffffffffff82169050919050565b600062000587826200055a565b9050919050565b62000599816200057a565b8114620005a557600080fd5b50565b600081519050620005b9816200058e565b92915050565b600080600080600060a08688031215620005de57620005dd620003d1565b5b600086015167ffffffffffffffff811115620005ff57620005fe620003d6565b5b6200060d8882890162000527565b95505060206200062088828901620005a8565b94505060406200063388828901620005a8565b93505060606200064688828901620005a8565b92505060806200065988828901620005a8565b9150509295509295909350565b600082825260208201905092915050565b7f43616e2774206265207a65726f20616464726573732e00000000000000000000600082015250565b6000620006af60168362000666565b9150620006bc8262000677565b602082019050919050565b60006020820190508181036000830152620006e281620006a0565b9050919050565b7f4e616d65206c656e677468206d75737420626520332e00000000000000000000600082015250565b60006200072160168362000666565b91506200072e82620006e9565b602082019050919050565b60006020820190508181036000830152620007548162000712565b9050919050565b600081519050919050565b7f4e487b7100000000000000000000000000000000000000000000000000000000600052602260045260246000fd5b60006002820490506001821680620007ae57607f821691505b602082108103620007c457620007c362000766565b5b50919050565b60008190508160005260206000209050919050565b60006020601f8301049050919050565b600082821b905092915050565b6000600883026200082e7fffffffffffffffffffffffffffffffffffffffffffffffffffffffffffffffff82620007ef565b6200083a8683620007ef565b95508019841693508086168417925050509392505050565b6000819050919050565b6000819050919050565b600062000887620008816200087b8462000852565b6200085c565b62000852565b9050919050565b6000819050919050565b620008a38362000866565b620008bb620008b2826200088e565b848454620007fc565b825550505050565b600090565b620008d2620008c3565b620008df81848462000898565b505050565b5b818110156200090757620008fb600082620008c8565b600181019050620008e5565b5050565b601f82111562000956576200092081620007ca565b6200092b84620007df565b810160208510156200093b578190505b620009536200094a85620007df565b830182620008e4565b50505b505050565b600082821c905092915050565b60006200097b600019846008026200095b565b1980831691505092915050565b600062000996838362000968565b9150826002028217905092915050565b620009b1826200075b565b67ffffffffffffffff811115620009cd57620009cc620003f6565b5b620009d9825462000795565b620009e68282856200090b565b600060209050601f83116001811462000a1e576000841562000a09578287015190505b62000a15858262000988565b86555062000a85565b601f19841662000a2e86620007ca565b60005b8281101562000a585784890151825560018201915060208501945060208101905062000a31565b8683101562000a78578489015162000a74601f89168262000968565b8355505b6001600288020188555050505b505050505050565b60805161438862000ad360003960008181610de10152818161137d015281816116e00152818161170101528181611d6401528181611f7101526127c501526143886000f3fe608060405234801561001057600080fd5b50600436106101c45760003560e01c80638da5cb5b116100f9578063abb1dc4411610097578063e6367ebe11610071578063e6367ebe14610450578063e80887661461046f578063ed969c8414610479578063f2fde38b146104a9576101c4565b8063abb1dc44146103e5578063b0b5e39e14610404578063b99152d014610420576101c4565b80639164b15d116100d35780639164b15d1461036f5780639405de641461038b57806396eebff0146103a9578063a684ab5c146103c7576101c4565b80638da5cb5b146103175780638dd25b07146103355780638eb89a6114610351576101c4565b806322f3e2d4116101665780635c975abb116101405780635c975abb146102a15780636a9d43dd146102bf578063715018a6146102ef578063722713f7146102f9576101c4565b806322f3e2d41461025b5780632af0e2511461027957806351b42b0014610297576101c4565b806308fadcb0116101a257806308fadcb0146101fb5780630a6cb062146102195780630ba2f1d8146102355780630f15f4c014610251576101c4565b8063046f7da2146101c957806306fdde03146101d357806307da68f5146101f1575b600080fd5b6101d16104c5565b005b6101db6104df565b6040516101e89190612bc1565b60405180910390f35b6101f9610571565b005b61020361058b565b6040516102109190612c24565b60405180910390f35b610233600480360381019061022e9190612c7f565b610604565b005b61024f600480360381019061024a9190612c7f565b61070e565b005b610259610968565b005b610263610a65565b6040516102709190612cc7565b60405180910390f35b610281610a84565b60405161028e9190612cfb565b60405180910390f35b61029f610bdb565b005b6102a9610cd7565b6040516102b69190612cc7565b60405180910390f35b6102d960048036038101906102d49190612d42565b610ced565b6040516102e69190612cc7565b60405180910390f35b6102f7610dc9565b005b610301610ddd565b60405161030e9190612cfb565b60405180910390f35b61031f610e7e565b60405161032c9190612c24565b60405180910390f35b61034f600480360381019061034a9190612d95565b610ea7565b005b610359610fc3565b6040516103669190612cfb565b60405180910390f35b61038960048036038101906103849190612df8565b61111a565b005b610393611274565b6040516103a09190612cfb565b60405180910390f35b6103b161141c565b6040516103be9190612cfb565b60405180910390f35b6103cf61142e565b6040516103dc9190612cfb565b60405180910390f35b6103ed611585565b6040516103fb929190612e38565b60405180910390f35b61041e60048036038101906104199190612c7f565b61179b565b005b61043a60048036038101906104359190612c7f565b61186f565b6040516104479190612cfb565b60405180910390f35b6104586118fa565b604051610466929190612e68565b60405180910390f35b6104776119ca565b005b610493600480360381019061048e9190612d95565b611bbd565b6040516104a09190612cc7565b60405180910390f35b6104c360048036038101906104be9190612c7f565b611fcf565b005b6104cd612052565b6104d561209b565b6104dd612119565b565b6060600180546104ee90612ec7565b80601f016020809104026020016040519081016040528092919081815260200182805461051a90612ec7565b80156105675780601f1061053c57610100808354040283529160200191610567565b820191906000526020600020905b81548152906001019060200180831161054a57829003601f168201915b5050505050905090565b61057961217b565b61058161209b565b6105896121c5565b565b6000610595610a65565b6105d4576040517f08c379a00000000000000000000000000000000000000000000000000000000081526004016105cb90612f44565b60405180910390fd5b6105dc61217b565b600260019054906101000a900473ffffffffffffffffffffffffffffffffffffffff16905090565b61060c61209b565b61061461217b565b61061c610a65565b61065b576040517f08c379a000000000000000000000000000000000000000000000000000000000815260040161065290612f44565b60405180910390fd5b600073ffffffffffffffffffffffffffffffffffffffff168173ffffffffffffffffffffffffffffffffffffffff16036106ca576040517f08c379a00000000000000000000000000000000000000000000000000000000081526004016106c190612fb0565b60405180910390fd5b80600760006101000a81548173ffffffffffffffffffffffffffffffffffffffff021916908373ffffffffffffffffffffffffffffffffffffffff16021790555050565b610716610a65565b610755576040517f08c379a000000000000000000000000000000000000000000000000000000000815260040161074c90612f44565b60405180910390fd5b600260019054906101000a900473ffffffffffffffffffffffffffffffffffffffff1673ffffffffffffffffffffffffffffffffffffffff163373ffffffffffffffffffffffffffffffffffffffff16146107e5576040517f08c379a00000000000000000000000000000000000000000000000000000000081526004016107dc9061301c565b60405180910390fd5b6107ed61217b565b600073ffffffffffffffffffffffffffffffffffffffff168173ffffffffffffffffffffffffffffffffffffffff160361085c576040517f08c379a000000000000000000000000000000000000000000000000000000000815260040161085390612fb0565b60405180910390fd5b600260019054906101000a900473ffffffffffffffffffffffffffffffffffffffff1673ffffffffffffffffffffffffffffffffffffffff168173ffffffffffffffffffffffffffffffffffffffff16036108ec576040517f08c379a00000000000000000000000000000000000000000000000000000000081526004016108e3906130ae565b60405180910390fd5b427f2412641bb659a040d92e94fdf52e358b27923a5f93ad671d56dc97e0e6864fce8260405161091c9190612c24565b60405180910390a280600260016101000a81548173ffffffffffffffffffffffffffffffffffffffff021916908373ffffffffffffffffffffffffffffffffffffffff16021790555050565b600260019054906101000a900473ffffffffffffffffffffffffffffffffffffffff1673ffffffffffffffffffffffffffffffffffffffff163373ffffffffffffffffffffffffffffffffffffffff16146109f8576040517f08c379a00000000000000000000000000000000000000000000000000000000081526004016109ef9061301c565b60405180910390fd5b610a0061217b565b610a08610a65565b15610a48576040517f08c379a0000000000000000000000000000000000000000000000000000000008152600401610a3f9061311a565b60405180910390fd5b6001600260006101000a81548160ff021916908315150217905550565b6000610a6f61217b565b600260009054906101000a900460ff16905090565b6000610a8e610a65565b610acd576040517f08c379a0000000000000000000000000000000000000000000000000000000008152600401610ac490612f44565b60405180910390fd5b600073ffffffffffffffffffffffffffffffffffffffff163373ffffffffffffffffffffffffffffffffffffffff1603610b0657600080fd5b600260019054906101000a900473ffffffffffffffffffffffffffffffffffffffff1673ffffffffffffffffffffffffffffffffffffffff163373ffffffffffffffffffffffffffffffffffffffff161480610b945750610b65610e7e565b73ffffffffffffffffffffffffffffffffffffffff163373ffffffffffffffffffffffffffffffffffffffff16145b610bd3576040517f08c379a0000000000000000000000000000000000000000000000000000000008152600401610bca906131ac565b60405180910390fd5b600354905090565b610be3610a65565b610c22576040517f08c379a0000000000000000000000000000000000000000000000000000000008152600401610c1990612f44565b60405180910390fd5b600260019054906101000a900473ffffffffffffffffffffffffffffffffffffffff1673ffffffffffffffffffffffffffffffffffffffff163373ffffffffffffffffffffffffffffffffffffffff1614610cb2576040517f08c379a0000000000000000000000000000000000000000000000000000000008152600401610ca99061301c565b60405180910390fd5b610cba61217b565b6000600260006101000a81548160ff021916908315150217905550565b60008060009054906101000a900460ff16905090565b6000610cf761209b565b81610d018561186f565b1015610d42576040517f08c379a0000000000000000000000000000000000000000000000000000000008152600401610d3990613218565b60405180910390fd5b8373ffffffffffffffffffffffffffffffffffffffff1663a9059cbb84846040518363ffffffff1660e01b8152600401610d7d929190613238565b6020604051808303816000875af1158015610d9c573d6000803e3d6000fd5b505050506040513d601f19601f82011682018060405250810190610dc0919061328d565b90509392505050565b610dd161209b565b610ddb6000612227565b565b60007f000000000000000000000000000000000000000000000000000000000000000073ffffffffffffffffffffffffffffffffffffffff166370a08231306040518263ffffffff1660e01b8152600401610e389190612c24565b602060405180830381865afa158015610e55573d6000803e3d6000fd5b505050506040513d601f19601f82011682018060405250810190610e7991906132cf565b905090565b60008060019054906101000a900473ffffffffffffffffffffffffffffffffffffffff16905090565b610eaf61217b565b610eb761209b565b60008111610efa576040517f08c379a0000000000000000000000000000000000000000000000000000000008152600401610ef190613348565b60405180910390fd5b600a8110610f3d576040517f08c379a0000000000000000000000000000000000000000000000000000000008152600401610f34906133da565b60405180910390fd5b6006548103610f81576040517f08c379a0000000000000000000000000000000000000000000000000000000008152600401610f789061346c565b60405180910390fd5b427f0484a05d9fe4b08e9bbb359269069f0e08c5fffc2d2e8f0ac37bce4646db5cb482604051610fb19190612cfb565b60405180910390a28060068190555050565b6000610fcd610a65565b61100c576040517f08c379a000000000000000000000000000000000000000000000000000000000815260040161100390612f44565b60405180910390fd5b600073ffffffffffffffffffffffffffffffffffffffff163373ffffffffffffffffffffffffffffffffffffffff160361104557600080fd5b600260019054906101000a900473ffffffffffffffffffffffffffffffffffffffff1673ffffffffffffffffffffffffffffffffffffffff163373ffffffffffffffffffffffffffffffffffffffff1614806110d357506110a4610e7e565b73ffffffffffffffffffffffffffffffffffffffff163373ffffffffffffffffffffffffffffffffffffffff16145b611112576040517f08c379a0000000000000000000000000000000000000000000000000000000008152600401611109906131ac565b60405180910390fd5b600554905090565b61112261209b565b61112a610a65565b611169576040517f08c379a000000000000000000000000000000000000000000000000000000000815260040161116090612f44565b60405180910390fd5b61117161217b565b6005548211156111b6576040517f08c379a00000000000000000000000000000000000000000000000000000000081526004016111ad906134fe565b60405180910390fd5b600082116111f9576040517f08c379a00000000000000000000000000000000000000000000000000000000081526004016111f090613590565b60405180910390fd5b427feca05fb6416a6378993b4abf548b3c805bfa7b3375231fbd6d7f4a7b8d9fa0a3600260019054906101000a900473ffffffffffffffffffffffffffffffffffffffff16848460405161124f939291906135bf565b60405180910390a281600560008282546112699190613625565b925050819055505050565b60008073ffffffffffffffffffffffffffffffffffffffff163373ffffffffffffffffffffffffffffffffffffffff16036112ae57600080fd5b600260019054906101000a900473ffffffffffffffffffffffffffffffffffffffff1673ffffffffffffffffffffffffffffffffffffffff163373ffffffffffffffffffffffffffffffffffffffff16148061133c575061130d610e7e565b73ffffffffffffffffffffffffffffffffffffffff163373ffffffffffffffffffffffffffffffffffffffff16145b61137b576040517f08c379a0000000000000000000000000000000000000000000000000000000008152600401611372906131ac565b60405180910390fd5b7f000000000000000000000000000000000000000000000000000000000000000073ffffffffffffffffffffffffffffffffffffffff1663dd62ed3e33306040518363ffffffff1660e01b81526004016113d6929190613659565b602060405180830381865afa1580156113f3573d6000803e3d6000fd5b505050506040513d601f19601f8201168201806040525081019061141791906132cf565b905090565b600061142661217b565b600654905090565b6000611438610a65565b611477576040517f08c379a000000000000000000000000000000000000000000000000000000000815260040161146e90612f44565b60405180910390fd5b600073ffffffffffffffffffffffffffffffffffffffff163373ffffffffffffffffffffffffffffffffffffffff16036114b057600080fd5b600260019054906101000a900473ffffffffffffffffffffffffffffffffffffffff1673ffffffffffffffffffffffffffffffffffffffff163373ffffffffffffffffffffffffffffffffffffffff16148061153e575061150f610e7e565b73ffffffffffffffffffffffffffffffffffffffff163373ffffffffffffffffffffffffffffffffffffffff16145b61157d576040517f08c379a0000000000000000000000000000000000000000000000000000000008152600401611574906131ac565b60405180910390fd5b600454905090565b60006060611591610a65565b6115d0576040517f08c379a00000000000000000000000000000000000000000000000000000000081526004016115c790612f44565b60405180910390fd5b600073ffffffffffffffffffffffffffffffffffffffff163373ffffffffffffffffffffffffffffffffffffffff160361160957600080fd5b600260019054906101000a900473ffffffffffffffffffffffffffffffffffffffff1673ffffffffffffffffffffffffffffffffffffffff163373ffffffffffffffffffffffffffffffffffffffff1614806116975750611668610e7e565b73ffffffffffffffffffffffffffffffffffffffff163373ffffffffffffffffffffffffffffffffffffffff16145b6116d6576040517f08c379a00000000000000000000000000000000000000000000000000000000081526004016116cd906131ac565b60405180910390fd5b6116de61217b565b7f00000000000000000000000000000000000000000000000000000000000000007f000000000000000000000000000000000000000000000000000000000000000073ffffffffffffffffffffffffffffffffffffffff166395d89b416040518163ffffffff1660e01b8152600401600060405180830381865afa15801561176a573d6000803e3d6000fd5b505050506040513d6000823e3d601f19601f8201168201806040525081019061179391906137a8565b915091509091565b6117a361209b565b6117ab61217b565b6117b3610a65565b6117f2576040517f08c379a00000000000000000000000000000000000000000000000000000000081526004016117e990612f44565b60405180910390fd5b600073ffffffffffffffffffffffffffffffffffffffff168173ffffffffffffffffffffffffffffffffffffffff160361182b57600080fd5b80600860006101000a81548173ffffffffffffffffffffffffffffffffffffffff021916908373ffffffffffffffffffffffffffffffffffffffff16021790555050565b600061187961209b565b8173ffffffffffffffffffffffffffffffffffffffff166370a08231306040518263ffffffff1660e01b81526004016118b29190612c24565b602060405180830381865afa1580156118cf573d6000803e3d6000fd5b505050506040513d601f19601f820116820180604052508101906118f391906132cf565b9050919050565b6060600061190661217b565b61190e610a65565b61194d576040517f08c379a000000000000000000000000000000000000000000000000000000000815260040161194490612f44565b60405180910390fd5b60006119576122ec565b9050600260159054906101000a900460ff161561199c5780600860009054906101000a900473ffffffffffffffffffffffffffffffffffffffff1692509250506119c6565b80600760009054906101000a900473ffffffffffffffffffffffffffffffffffffffff1692509250505b9091565b6119d261209b565b6119da610a65565b611a19576040517f08c379a0000000000000000000000000000000000000000000000000000000008152600401611a1090612f44565b60405180910390fd5b611a2161217b565b600260159054906101000a900460ff1615611ae557600260159054906101000a900460ff168015611aa15750600073ffffffffffffffffffffffffffffffffffffffff16600760009054906101000a900473ffffffffffffffffffffffffffffffffffffffff1673ffffffffffffffffffffffffffffffffffffffff1614155b611ae0576040517f08c379a0000000000000000000000000000000000000000000000000000000008152600401611ad790613863565b60405180910390fd5b611b91565b600260159054906101000a900460ff16158015611b515750600073ffffffffffffffffffffffffffffffffffffffff16600860009054906101000a900473ffffffffffffffffffffffffffffffffffffffff1673ffffffffffffffffffffffffffffffffffffffff1614155b611b90576040517f08c379a0000000000000000000000000000000000000000000000000000000008152600401611b87906138cf565b60405180910390fd5b5b600260159054906101000a900460ff1615600260156101000a81548160ff021916908315150217905550565b6000611bc761217b565b611bcf610a65565b611c0e576040517f08c379a0000000000000000000000000000000000000000000000000000000008152600401611c0590612f44565b60405180910390fd5b600073ffffffffffffffffffffffffffffffffffffffff163373ffffffffffffffffffffffffffffffffffffffff1603611c4757600080fd5b600260019054906101000a900473ffffffffffffffffffffffffffffffffffffffff1673ffffffffffffffffffffffffffffffffffffffff163373ffffffffffffffffffffffffffffffffffffffff161480611cd55750611ca6610e7e565b73ffffffffffffffffffffffffffffffffffffffff163373ffffffffffffffffffffffffffffffffffffffff16145b611d14576040517f08c379a0000000000000000000000000000000000000000000000000000000008152600401611d0b906131ac565b60405180910390fd5b60008211611d57576040517f08c379a0000000000000000000000000000000000000000000000000000000008152600401611d4e9061393b565b60405180910390fd5b81611d60611274565b10157f000000000000000000000000000000000000000000000000000000000000000073ffffffffffffffffffffffffffffffffffffffff166395d89b416040518163ffffffff1660e01b8152600401600060405180830381865afa158015611dcd573d6000803e3d6000fd5b505050506040513d6000823e3d601f19601f82011682018060405250810190611df691906137a8565b604051602001611e069190613a09565b60405160208183030381529060405290611e56576040517f08c379a0000000000000000000000000000000000000000000000000000000008152600401611e4d9190612bc1565b60405180910390fd5b50600080600080611e65612383565b9350935093509350600084118015611e7d5750600083115b8015611e895750600081115b611ec8576040517f08c379a0000000000000000000000000000000000000000000000000000000008152600401611ebf90613a99565b60405180910390fd5b6000611ed58786866126af565b90508060056000828254611ee99190613ab9565b925050819055508060046000828254611f029190613ab9565b925050819055508660036000828254611f1b9190613ab9565b925050819055506000429050807fb5aeb7b225999adc33232be2121afb1a366c15108c1da745d17fd76108172fe487878688878e604051611f6196959493929190613aed565b60405180910390a2611fb633308a7f000000000000000000000000000000000000000000000000000000000000000073ffffffffffffffffffffffffffffffffffffffff166126ea909392919063ffffffff16565b611fbf88612773565b5060019650505050505050919050565b611fd761209b565b600073ffffffffffffffffffffffffffffffffffffffff168173ffffffffffffffffffffffffffffffffffffffff1603612046576040517f08c379a000000000000000000000000000000000000000000000000000000000815260040161203d90613bc7565b60405180910390fd5b61204f81612227565b50565b61205a610cd7565b612099576040517f08c379a000000000000000000000000000000000000000000000000000000000815260040161209090613c33565b60405180910390fd5b565b6120a36128ac565b73ffffffffffffffffffffffffffffffffffffffff166120c1610e7e565b73ffffffffffffffffffffffffffffffffffffffff1614612117576040517f08c379a000000000000000000000000000000000000000000000000000000000815260040161210e90613c9f565b60405180910390fd5b565b612121612052565b60008060006101000a81548160ff0219169083151502179055507f5db9ee0a495bf2e6ff9c91a7834c1ba4fdd244a5e8aa4e537bd38aeae4b073aa6121646128ac565b6040516121719190612c24565b60405180910390a1565b612183610cd7565b156121c3576040517f08c379a00000000000000000000000000000000000000000000000000000000081526004016121ba90613d0b565b60405180910390fd5b565b6121cd61217b565b60016000806101000a81548160ff0219169083151502179055507f62e78cea01bee320cd4e420270b5ea74000d11b0c9f74754ebdbfc544b05a2586122106128ac565b60405161221d9190612c24565b60405180910390a1565b60008060019054906101000a900473ffffffffffffffffffffffffffffffffffffffff16905081600060016101000a81548173ffffffffffffffffffffffffffffffffffffffff021916908373ffffffffffffffffffffffffffffffffffffffff1602179055508173ffffffffffffffffffffffffffffffffffffffff168173ffffffffffffffffffffffffffffffffffffffff167f8be0079c531659141344cd1fd0a4f28419497f9722a3daafe3b4186f6b6457e060405160405180910390a35050565b606080600260159054906101000a900460ff16612341576040518060400160405280600c81526020017f41676772656761746f725633000000000000000000000000000000000000000081525090508061237b565b6040518060400160405280600481526020017f506f6f6c000000000000000000000000000000000000000000000000000000008152509050805b508091505090565b60008060606000600260159054906101000a900460ff161561244e57600260159054906101000a900460ff16801561240a5750600073ffffffffffffffffffffffffffffffffffffffff16600860009054906101000a900473ffffffffffffffffffffffffffffffffffffffff1673ffffffffffffffffffffffffffffffffffffffff1614155b612449576040517f08c379a0000000000000000000000000000000000000000000000000000000008152600401612440906138cf565b60405180910390fd5b6124fa565b600260159054906101000a900460ff161580156124ba5750600073ffffffffffffffffffffffffffffffffffffffff16600760009054906101000a900473ffffffffffffffffffffffffffffffffffffffff1673ffffffffffffffffffffffffffffffffffffffff1614155b6124f9576040517f08c379a00000000000000000000000000000000000000000000000000000000081526004016124f090613863565b60405180910390fd5b5b600080600080600260159054906101000a900460ff16156125b257600860009054906101000a900473ffffffffffffffffffffffffffffffffffffffff1673ffffffffffffffffffffffffffffffffffffffff166385096edc6040518163ffffffff1660e01b81526004016000604051808303816000875af1158015612584573d6000803e3d6000fd5b505050506040513d6000823e3d601f19601f820116820180604052508101906125ad9190613d2b565b61264b565b600760009054906101000a900473ffffffffffffffffffffffffffffffffffffffff1673ffffffffffffffffffffffffffffffffffffffff1663e1e7ff776040518163ffffffff1660e01b81526004016000604051808303816000875af1158015612621573d6000803e3d6000fd5b505050506040513d6000823e3d601f19601f8201168201806040525081019061264a9190613d2b565b5b93509350935093507ff533c7ebcab9ca95557310f62aa7ad41d3a6b17aebec7762b994ef1a14863865848484846126806122ec565b604051612691959493929190613dae565b60405180910390a18383838397509750975097505050505090919293565b600081600a6126be9190613f42565b60065484866126cd9190613f8d565b6126d79190613ffe565b6126e19190613ffe565b90509392505050565b61276d846323b872dd60e01b85858560405160240161270b9392919061402f565b604051602081830303815290604052907bffffffffffffffffffffffffffffffffffffffffffffffffffffffff19166020820180517bffffffffffffffffffffffffffffffffffffffffffffffffffffffff83818316178352505050506128b4565b50505050565b60008082116127b7576040517f08c379a00000000000000000000000000000000000000000000000000000000081526004016127ae906140b2565b60405180910390fd5b60006127c1610ddd565b90507f000000000000000000000000000000000000000000000000000000000000000073ffffffffffffffffffffffffffffffffffffffff166342966c68846040518263ffffffff1660e01b815260040161281c9190612cfb565b600060405180830381600087803b15801561283657600080fd5b505af115801561284a573d6000803e3d6000fd5b50505050828161285a9190613625565b612862610ddd565b146128a2576040517f08c379a000000000000000000000000000000000000000000000000000000000815260040161289990614144565b60405180910390fd5b6001915050919050565b600033905090565b6000612916826040518060400160405280602081526020017f5361666545524332303a206c6f772d6c6576656c2063616c6c206661696c65648152508573ffffffffffffffffffffffffffffffffffffffff1661297b9092919063ffffffff16565b90506000815111156129765780806020019051810190612936919061328d565b612975576040517f08c379a000000000000000000000000000000000000000000000000000000000815260040161296c906141d6565b60405180910390fd5b5b505050565b606061298a8484600085612993565b90509392505050565b6060824710156129d8576040517f08c379a00000000000000000000000000000000000000000000000000000000081526004016129cf90614268565b60405180910390fd5b6129e185612aa7565b612a20576040517f08c379a0000000000000000000000000000000000000000000000000000000008152600401612a17906142d4565b60405180910390fd5b6000808673ffffffffffffffffffffffffffffffffffffffff168587604051612a49919061433b565b60006040518083038185875af1925050503d8060008114612a86576040519150601f19603f3d011682016040523d82523d6000602084013e612a8b565b606091505b5091509150612a9b828286612aca565b92505050949350505050565b6000808273ffffffffffffffffffffffffffffffffffffffff163b119050919050565b60608315612ada57829050612b2a565b600083511115612aed5782518084602001fd5b816040517f08c379a0000000000000000000000000000000000000000000000000000000008152600401612b219190612bc1565b60405180910390fd5b9392505050565b600081519050919050565b600082825260208201905092915050565b60005b83811015612b6b578082015181840152602081019050612b50565b60008484015250505050565b6000601f19601f8301169050919050565b6000612b9382612b31565b612b9d8185612b3c565b9350612bad818560208601612b4d565b612bb681612b77565b840191505092915050565b60006020820190508181036000830152612bdb8184612b88565b905092915050565b600073ffffffffffffffffffffffffffffffffffffffff82169050919050565b6000612c0e82612be3565b9050919050565b612c1e81612c03565b82525050565b6000602082019050612c396000830184612c15565b92915050565b6000604051905090565b600080fd5b600080fd5b612c5c81612c03565b8114612c6757600080fd5b50565b600081359050612c7981612c53565b92915050565b600060208284031215612c9557612c94612c49565b5b6000612ca384828501612c6a565b91505092915050565b60008115159050919050565b612cc181612cac565b82525050565b6000602082019050612cdc6000830184612cb8565b92915050565b6000819050919050565b612cf581612ce2565b82525050565b6000602082019050612d106000830184612cec565b92915050565b612d1f81612ce2565b8114612d2a57600080fd5b50565b600081359050612d3c81612d16565b92915050565b600080600060608486031215612d5b57612d5a612c49565b5b6000612d6986828701612c6a565b9350506020612d7a86828701612c6a565b9250506040612d8b86828701612d2d565b9150509250925092565b600060208284031215612dab57612daa612c49565b5b6000612db984828501612d2d565b91505092915050565b6000819050919050565b612dd581612dc2565b8114612de057600080fd5b50565b600081359050612df281612dcc565b92915050565b60008060408385031215612e0f57612e0e612c49565b5b6000612e1d85828601612d2d565b9250506020612e2e85828601612de3565b9150509250929050565b6000604082019050612e4d6000830185612c15565b8181036020830152612e5f8184612b88565b90509392505050565b60006040820190508181036000830152612e828185612b88565b9050612e916020830184612c15565b9392505050565b7f4e487b7100000000000000000000000000000000000000000000000000000000600052602260045260246000fd5b60006002820490506001821680612edf57607f821691505b602082108103612ef257612ef1612e98565b5b50919050565b7f4e6f742061637469766174656421000000000000000000000000000000000000600082015250565b6000612f2e600e83612b3c565b9150612f3982612ef8565b602082019050919050565b60006020820190508181036000830152612f5d81612f21565b9050919050565b7f43616e2774206265207a65726f20616464726573732e00000000000000000000600082015250565b6000612f9a601683612b3c565b9150612fa582612f64565b602082019050919050565b60006020820190508181036000830152612fc981612f8d565b9050919050565b7f4e6f7420417574686f72697a6564210000000000000000000000000000000000600082015250565b6000613006600f83612b3c565b915061301182612fd0565b602082019050919050565b6000602082019050818103600083015261303581612ff9565b9050919050565b7f43616e2774206368616e67652c2061646472657373206973207468652073616d60008201527f652e000000000000000000000000000000000000000000000000000000000000602082015250565b6000613098602283612b3c565b91506130a38261303c565b604082019050919050565b600060208201905081810360008301526130c78161308b565b9050919050565b7f416c726561647920616374697661746564210000000000000000000000000000600082015250565b6000613104601283612b3c565b915061310f826130ce565b602082019050919050565b60006020820190508181036000830152613133816130f7565b9050919050565b7f4f6e6c79204f776e6572206f7220417574686f72697a6564207061727469636960008201527f7061746f722063616e206163636573732074686973206f7065726174696f6e21602082015250565b6000613196604083612b3c565b91506131a18261313a565b604082019050919050565b600060208201905081810360008301526131c581613189565b9050919050565b7f4e6f7420656e6f7567682062616c616e63652100000000000000000000000000600082015250565b6000613202601383612b3c565b915061320d826131cc565b602082019050919050565b60006020820190508181036000830152613231816131f5565b9050919050565b600060408201905061324d6000830185612c15565b61325a6020830184612cec565b9392505050565b61326a81612cac565b811461327557600080fd5b50565b60008151905061328781613261565b92915050565b6000602082840312156132a3576132a2612c49565b5b60006132b184828501613278565b91505092915050565b6000815190506132c981612d16565b92915050565b6000602082840312156132e5576132e4612c49565b5b60006132f3848285016132ba565b91505092915050565b7f496e707574206d7573742062652067726561746572207468616e207a65726f21600082015250565b6000613332602083612b3c565b915061333d826132fc565b602082019050919050565b6000602082019050818103600083015261336181613325565b9050919050565b7f496e707574206d75737420626520612073696e676c652064696769742028302d60008201527f3929000000000000000000000000000000000000000000000000000000000000602082015250565b60006133c4602283612b3c565b91506133cf82613368565b604082019050919050565b600060208201905081810360008301526133f3816133b7565b9050919050565b7f496e7075742076616c7565206973207468652073616d65206c696b652065786960008201527f7374696e67210000000000000000000000000000000000000000000000000000602082015250565b6000613456602683612b3c565b9150613461826133fa565b604082019050919050565b6000602082019050818103600083015261348581613449565b9050919050565b7f4e6f7420656e6f75676820706f696e74732e2054686520636f6e74726163742060008201527f6d75737420626520636861726765642077697468206d6f726520746f6b656e73602082015250565b60006134e8604083612b3c565b91506134f38261348c565b604082019050919050565b60006020820190508181036000830152613517816134db565b9050919050565b7f57697468647261772076616c7565206d7573742062652067726561746572207460008201527f68616e2030210000000000000000000000000000000000000000000000000000602082015250565b600061357a602683612b3c565b91506135858261351e565b604082019050919050565b600060208201905081810360008301526135a98161356d565b9050919050565b6135b981612dc2565b82525050565b60006060820190506135d46000830186612c15565b6135e16020830185612cec565b6135ee60408301846135b0565b949350505050565b7f4e487b7100000000000000000000000000000000000000000000000000000000600052601160045260246000fd5b600061363082612ce2565b915061363b83612ce2565b9250828203905081811115613653576136526135f6565b5b92915050565b600060408201905061366e6000830185612c15565b61367b6020830184612c15565b9392505050565b600080fd5b600080fd5b7f4e487b7100000000000000000000000000000000000000000000000000000000600052604160045260246000fd5b6136c482612b77565b810181811067ffffffffffffffff821117156136e3576136e261368c565b5b80604052505050565b60006136f6612c3f565b905061370282826136bb565b919050565b600067ffffffffffffffff8211156137225761372161368c565b5b61372b82612b77565b9050602081019050919050565b600061374b61374684613707565b6136ec565b90508281526020810184848401111561376757613766613687565b5b613772848285612b4d565b509392505050565b600082601f83011261378f5761378e613682565b5b815161379f848260208601613738565b91505092915050565b6000602082840312156137be576137bd612c49565b5b600082015167ffffffffffffffff8111156137dc576137db612c4e565b5b6137e88482850161377a565b91505092915050565b7f41676772656761746f72436f6e73756d6572206973206e6f7420696e6974696160008201527f6c697a6564210000000000000000000000000000000000000000000000000000602082015250565b600061384d602683612b3c565b9150613858826137f1565b604082019050919050565b6000602082019050818103600083015261387c81613840565b9050919050565b7f506f6f6c436f6e73756d6572206973206e6f7420696e697469616c697a656421600082015250565b60006138b9602083612b3c565b91506138c482613883565b602082019050919050565b600060208201905081810360008301526138e8816138ac565b9050919050565b7f4e6f2063686172676520616d6f756e7421000000000000000000000000000000600082015250565b6000613925601183612b3c565b9150613930826138ef565b602082019050919050565b6000602082019050818103600083015261395481613918565b9050919050565b7f436865636b207468652000000000000000000000000000000000000000000000815250565b600081905092915050565b600061399782612b31565b6139a18185613981565b93506139b1818560208601612b4d565b80840191505092915050565b7f20746f6b656e2000000000000000000000000000000000000000000000000000815250565b7f616c6c6f77616e63652100000000000000000000000000000000000000000000815250565b6000613a148261395b565b600a82019150613a24828461398c565b9150613a2f826139bd565b600782019150613a3e826139e3565b600a8201915081905092915050565b7f52617465206572726f7221000000000000000000000000000000000000000000600082015250565b6000613a83600b83612b3c565b9150613a8e82613a4d565b602082019050919050565b60006020820190508181036000830152613ab281613a76565b9050919050565b6000613ac482612ce2565b9150613acf83612ce2565b9250828201905080821115613ae757613ae66135f6565b5b92915050565b600060c082019050613b026000830189612cec565b613b0f6020830188612cec565b613b1c6040830187612cec565b8181036060830152613b2e8186612b88565b9050613b3d6080830185612cec565b613b4a60a0830184612cec565b979650505050505050565b7f4f776e61626c653a206e6577206f776e657220697320746865207a65726f206160008201527f6464726573730000000000000000000000000000000000000000000000000000602082015250565b6000613bb1602683612b3c565b9150613bbc82613b55565b604082019050919050565b60006020820190508181036000830152613be081613ba4565b9050919050565b7f5061757361626c653a206e6f7420706175736564000000000000000000000000600082015250565b6000613c1d601483612b3c565b9150613c2882613be7565b602082019050919050565b60006020820190508181036000830152613c4c81613c10565b9050919050565b7f4f776e61626c653a2063616c6c6572206973206e6f7420746865206f776e6572600082015250565b6000613c89602083612b3c565b9150613c9482613c53565b602082019050919050565b60006020820190508181036000830152613cb881613c7c565b9050919050565b7f5061757361626c653a2070617573656400000000000000000000000000000000600082015250565b6000613cf5601083612b3c565b9150613d0082613cbf565b602082019050919050565b60006020820190508181036000830152613d2481613ce8565b9050919050565b60008060008060808587031215613d4557613d44612c49565b5b6000613d53878288016132ba565b9450506020613d64878288016132ba565b935050604085015167ffffffffffffffff811115613d8557613d84612c4e565b5b613d918782880161377a565b9250506060613da2878288016132ba565b91505092959194509250565b600060a082019050613dc36000830188612cec565b613dd06020830187612cec565b8181036040830152613de28186612b88565b9050613df16060830185612cec565b8181036080830152613e038184612b88565b90509695505050505050565b60008160011c9050919050565b6000808291508390505b6001851115613e6657808604811115613e4257613e416135f6565b5b6001851615613e515780820291505b8081029050613e5f85613e0f565b9450613e26565b94509492505050565b600082613e7f5760019050613f3b565b81613e8d5760009050613f3b565b8160018114613ea35760028114613ead57613edc565b6001915050613f3b565b60ff841115613ebf57613ebe6135f6565b5b8360020a915084821115613ed657613ed56135f6565b5b50613f3b565b5060208310610133831016604e8410600b8410161715613f115782820a905083811115613f0c57613f0b6135f6565b5b613f3b565b613f1e8484846001613e1c565b92509050818404811115613f3557613f346135f6565b5b81810290505b9392505050565b6000613f4d82612ce2565b9150613f5883612ce2565b9250613f857fffffffffffffffffffffffffffffffffffffffffffffffffffffffffffffffff8484613e6f565b905092915050565b6000613f9882612ce2565b9150613fa383612ce2565b9250828202613fb181612ce2565b91508282048414831517613fc857613fc76135f6565b5b5092915050565b7f4e487b7100000000000000000000000000000000000000000000000000000000600052601260045260246000fd5b600061400982612ce2565b915061401483612ce2565b92508261402457614023613fcf565b5b828204905092915050565b60006060820190506140446000830186612c15565b6140516020830185612c15565b61405e6040830184612cec565b949350505050565b7f4e6f20746f6b656e7320746f206265206275726e656421000000000000000000600082015250565b600061409c601783612b3c565b91506140a782614066565b602082019050919050565b600060208201905081810360008301526140cb8161408f565b9050919050565b7f7472616e73616374696f6e207265766572746564206275726e20756e7375636360008201527f65737366756c2100000000000000000000000000000000000000000000000000602082015250565b600061412e602783612b3c565b9150614139826140d2565b604082019050919050565b6000602082019050818103600083015261415d81614121565b9050919050565b7f5361666545524332303a204552433230206f7065726174696f6e20646964206e60008201527f6f74207375636365656400000000000000000000000000000000000000000000602082015250565b60006141c0602a83612b3c565b91506141cb82614164565b604082019050919050565b600060208201905081810360008301526141ef816141b3565b9050919050565b7f416464726573733a20696e73756666696369656e742062616c616e636520666f60008201527f722063616c6c0000000000000000000000000000000000000000000000000000602082015250565b6000614252602683612b3c565b915061425d826141f6565b604082019050919050565b6000602082019050818103600083015261428181614245565b9050919050565b7f416464726573733a2063616c6c20746f206e6f6e2d636f6e7472616374000000600082015250565b60006142be601d83612b3c565b91506142c982614288565b602082019050919050565b600060208201905081810360008301526142ed816142b1565b9050919050565b600081519050919050565b600081905092915050565b6000614315826142f4565b61431f81856142ff565b935061432f818560208601612b4d565b80840191505092915050565b6000614347828461430a565b91508190509291505056fea2646970667358221220c425273c777c5dbf28c0869cd4333863560dbea9b1f1104e4249a93f4508a3c764736f6c63430008170033a2646970667358221220c97ea782a34c0f031813ec376a8a3f1ea55d12d9028cfa5da099a7141875ecad64736f6c63430008170033",
			"opcodes": "PUSH1 0x80 PUSH1 0x40 MSTORE CALLVALUE DUP1 ISZERO PUSH2 0x10 JUMPI PUSH1 0x0 DUP1 REVERT JUMPDEST POP PUSH2 0x2D PUSH2 0x22 PUSH2 0x32 PUSH1 0x20 SHL PUSH1 0x20 SHR JUMP JUMPDEST PUSH2 0x3A PUSH1 0x20 SHL PUSH1 0x20 SHR JUMP JUMPDEST PUSH2 0xFE JUMP JUMPDEST PUSH1 0x0 CALLER SWAP1 POP SWAP1 JUMP JUMPDEST PUSH1 0x0 DUP1 PUSH1 0x0 SWAP1 SLOAD SWAP1 PUSH2 0x100 EXP SWAP1 DIV PUSH20 0xFFFFFFFFFFFFFFFFFFFFFFFFFFFFFFFFFFFFFFFF AND SWAP1 POP DUP2 PUSH1 0x0 DUP1 PUSH2 0x100 EXP DUP2 SLOAD DUP2 PUSH20 0xFFFFFFFFFFFFFFFFFFFFFFFFFFFFFFFFFFFFFFFF MUL NOT AND SWAP1 DUP4 PUSH20 0xFFFFFFFFFFFFFFFFFFFFFFFFFFFFFFFFFFFFFFFF AND MUL OR SWAP1 SSTORE POP DUP2 PUSH20 0xFFFFFFFFFFFFFFFFFFFFFFFFFFFFFFFFFFFFFFFF AND DUP2 PUSH20 0xFFFFFFFFFFFFFFFFFFFFFFFFFFFFFFFFFFFFFFFF AND PUSH32 0x8BE0079C531659141344CD1FD0A4F28419497F9722A3DAAFE3B4186F6B6457E0 PUSH1 0x40 MLOAD PUSH1 0x40 MLOAD DUP1 SWAP2 SUB SWAP1 LOG3 POP POP JUMP JUMPDEST PUSH2 0x5975 DUP1 PUSH2 0x10D PUSH1 0x0 CODECOPY PUSH1 0x0 RETURN INVALID PUSH1 0x80 PUSH1 0x40 MSTORE CALLVALUE DUP1 ISZERO PUSH3 0x11 JUMPI PUSH1 0x0 DUP1 REVERT JUMPDEST POP PUSH1 0x4 CALLDATASIZE LT PUSH3 0x5E JUMPI PUSH1 0x0 CALLDATALOAD PUSH1 0xE0 SHR DUP1 PUSH4 0x715018A6 EQ PUSH3 0x63 JUMPI DUP1 PUSH4 0x8DA5CB5B EQ PUSH3 0x6F JUMPI DUP1 PUSH4 0xAA9A068F EQ PUSH3 0x91 JUMPI DUP1 PUSH4 0xB4B58BA3 EQ PUSH3 0xB3 JUMPI DUP1 PUSH4 0xF2FDE38B EQ PUSH3 0xD3 JUMPI JUMPDEST PUSH1 0x0 DUP1 REVERT JUMPDEST PUSH3 0x6D PUSH3 0xF3 JUMP JUMPDEST STOP JUMPDEST PUSH3 0x79 PUSH3 0x10B JUMP JUMPDEST PUSH1 0x40 MLOAD PUSH3 0x88 SWAP2 SWAP1 PUSH3 0x55E JUMP JUMPDEST PUSH1 0x40 MLOAD DUP1 SWAP2 SUB SWAP1 RETURN JUMPDEST PUSH3 0x9B PUSH3 0x134 JUMP JUMPDEST PUSH1 0x40 MLOAD PUSH3 0xAA SWAP2 SWAP1 PUSH3 0x649 JUMP JUMPDEST PUSH1 0x40 MLOAD DUP1 SWAP2 SUB SWAP1 RETURN JUMPDEST PUSH3 0xD1 PUSH1 0x4 DUP1 CALLDATASIZE SUB DUP2 ADD SWAP1 PUSH3 0xCB SWAP2 SWAP1 PUSH3 0x814 JUMP JUMPDEST PUSH3 0x1C4 JUMP JUMPDEST STOP JUMPDEST PUSH3 0xF1 PUSH1 0x4 DUP1 CALLDATASIZE SUB DUP2 ADD SWAP1 PUSH3 0xEB SWAP2 SWAP1 PUSH3 0x8BB JUMP JUMPDEST PUSH3 0x330 JUMP JUMPDEST STOP JUMPDEST PUSH3 0xFD PUSH3 0x3BA JUMP JUMPDEST PUSH3 0x109 PUSH1 0x0 PUSH3 0x43F JUMP JUMPDEST JUMP JUMPDEST PUSH1 0x0 DUP1 PUSH1 0x0 SWAP1 SLOAD SWAP1 PUSH2 0x100 EXP SWAP1 DIV PUSH20 0xFFFFFFFFFFFFFFFFFFFFFFFFFFFFFFFFFFFFFFFF AND SWAP1 POP SWAP1 JUMP JUMPDEST PUSH1 0x60 PUSH1 0x1 DUP1 SLOAD DUP1 PUSH1 0x20 MUL PUSH1 0x20 ADD PUSH1 0x40 MLOAD SWAP1 DUP2 ADD PUSH1 0x40 MSTORE DUP1 SWAP3 SWAP2 SWAP1 DUP2 DUP2 MSTORE PUSH1 0x20 ADD DUP3 DUP1 SLOAD DUP1 ISZERO PUSH3 0x1BA JUMPI PUSH1 0x20 MUL DUP3 ADD SWAP2 SWAP1 PUSH1 0x0 MSTORE PUSH1 0x20 PUSH1 0x0 KECCAK256 SWAP1 JUMPDEST DUP2 PUSH1 0x0 SWAP1 SLOAD SWAP1 PUSH2 0x100 EXP SWAP1 DIV PUSH20 0xFFFFFFFFFFFFFFFFFFFFFFFFFFFFFFFFFFFFFFFF AND PUSH20 0xFFFFFFFFFFFFFFFFFFFFFFFFFFFFFFFFFFFFFFFF AND DUP2 MSTORE PUSH1 0x20 ADD SWAP1 PUSH1 0x1 ADD SWAP1 DUP1 DUP4 GT PUSH3 0x16F JUMPI JUMPDEST POP POP POP POP POP SWAP1 POP SWAP1 JUMP JUMPDEST PUSH3 0x1CE PUSH3 0x3BA JUMP JUMPDEST PUSH1 0x0 DUP6 DUP6 DUP6 DUP6 DUP6 PUSH1 0x40 MLOAD PUSH3 0x1E3 SWAP1 PUSH3 0x50B JUMP JUMPDEST PUSH3 0x1F3 SWAP6 SWAP5 SWAP4 SWAP3 SWAP2 SWAP1 PUSH3 0x976 JUMP JUMPDEST PUSH1 0x40 MLOAD DUP1 SWAP2 SUB SWAP1 PUSH1 0x0 CREATE DUP1 ISZERO DUP1 ISZERO PUSH3 0x210 JUMPI RETURNDATASIZE PUSH1 0x0 DUP1 RETURNDATACOPY RETURNDATASIZE PUSH1 0x0 REVERT JUMPDEST POP SWAP1 POP DUP1 PUSH20 0xFFFFFFFFFFFFFFFFFFFFFFFFFFFFFFFFFFFFFFFF AND PUSH4 0xF2FDE38B CALLER PUSH1 0x40 MLOAD DUP3 PUSH4 0xFFFFFFFF AND PUSH1 0xE0 SHL DUP2 MSTORE PUSH1 0x4 ADD PUSH3 0x24E SWAP2 SWAP1 PUSH3 0x55E JUMP JUMPDEST PUSH1 0x0 PUSH1 0x40 MLOAD DUP1 DUP4 SUB DUP2 PUSH1 0x0 DUP8 DUP1 EXTCODESIZE ISZERO DUP1 ISZERO PUSH3 0x269 JUMPI PUSH1 0x0 DUP1 REVERT JUMPDEST POP GAS CALL ISZERO DUP1 ISZERO PUSH3 0x27E JUMPI RETURNDATASIZE PUSH1 0x0 DUP1 RETURNDATACOPY RETURNDATASIZE PUSH1 0x0 REVERT JUMPDEST POP POP POP POP PUSH1 0x1 DUP2 SWAP1 DUP1 PUSH1 0x1 DUP2 SLOAD ADD DUP1 DUP3 SSTORE DUP1 SWAP2 POP POP PUSH1 0x1 SWAP1 SUB SWAP1 PUSH1 0x0 MSTORE PUSH1 0x20 PUSH1 0x0 KECCAK256 ADD PUSH1 0x0 SWAP1 SWAP2 SWAP1 SWAP2 SWAP1 SWAP2 PUSH2 0x100 EXP DUP2 SLOAD DUP2 PUSH20 0xFFFFFFFFFFFFFFFFFFFFFFFFFFFFFFFFFFFFFFFF MUL NOT AND SWAP1 DUP4 PUSH20 0xFFFFFFFFFFFFFFFFFFFFFFFFFFFFFFFFFFFFFFFF AND MUL OR SWAP1 SSTORE POP DUP1 PUSH20 0xFFFFFFFFFFFFFFFFFFFFFFFFFFFFFFFFFFFFFFFF AND PUSH32 0xCF78CF0D6F3D8371E1075C69C492AB4EC5D8CF23A1A239B6A51A1D00BE7CA312 PUSH1 0x40 MLOAD PUSH1 0x40 MLOAD DUP1 SWAP2 SUB SWAP1 LOG2 POP POP POP POP POP POP JUMP JUMPDEST PUSH3 0x33A PUSH3 0x3BA JUMP JUMPDEST PUSH1 0x0 PUSH20 0xFFFFFFFFFFFFFFFFFFFFFFFFFFFFFFFFFFFFFFFF AND DUP2 PUSH20 0xFFFFFFFFFFFFFFFFFFFFFFFFFFFFFFFFFFFFFFFF AND SUB PUSH3 0x3AC JUMPI PUSH1 0x40 MLOAD PUSH32 0x8C379A000000000000000000000000000000000000000000000000000000000 DUP2 MSTORE PUSH1 0x4 ADD PUSH3 0x3A3 SWAP1 PUSH3 0xA50 JUMP JUMPDEST PUSH1 0x40 MLOAD DUP1 SWAP2 SUB SWAP1 REVERT JUMPDEST PUSH3 0x3B7 DUP2 PUSH3 0x43F JUMP JUMPDEST POP JUMP JUMPDEST PUSH3 0x3C4 PUSH3 0x503 JUMP JUMPDEST PUSH20 0xFFFFFFFFFFFFFFFFFFFFFFFFFFFFFFFFFFFFFFFF AND PUSH3 0x3E4 PUSH3 0x10B JUMP JUMPDEST PUSH20 0xFFFFFFFFFFFFFFFFFFFFFFFFFFFFFFFFFFFFFFFF AND EQ PUSH3 0x43D JUMPI PUSH1 0x40 MLOAD PUSH32 0x8C379A000000000000000000000000000000000000000000000000000000000 DUP2 MSTORE PUSH1 0x4 ADD PUSH3 0x434 SWAP1 PUSH3 0xAC2 JUMP JUMPDEST PUSH1 0x40 MLOAD DUP1 SWAP2 SUB SWAP1 REVERT JUMPDEST JUMP JUMPDEST PUSH1 0x0 DUP1 PUSH1 0x0 SWAP1 SLOAD SWAP1 PUSH2 0x100 EXP SWAP1 DIV PUSH20 0xFFFFFFFFFFFFFFFFFFFFFFFFFFFFFFFFFFFFFFFF AND SWAP1 POP DUP2 PUSH1 0x0 DUP1 PUSH2 0x100 EXP DUP2 SLOAD DUP2 PUSH20 0xFFFFFFFFFFFFFFFFFFFFFFFFFFFFFFFFFFFFFFFF MUL NOT AND SWAP1 DUP4 PUSH20 0xFFFFFFFFFFFFFFFFFFFFFFFFFFFFFFFFFFFFFFFF AND MUL OR SWAP1 SSTORE POP DUP2 PUSH20 0xFFFFFFFFFFFFFFFFFFFFFFFFFFFFFFFFFFFFFFFF AND DUP2 PUSH20 0xFFFFFFFFFFFFFFFFFFFFFFFFFFFFFFFFFFFFFFFF AND PUSH32 0x8BE0079C531659141344CD1FD0A4F28419497F9722A3DAAFE3B4186F6B6457E0 PUSH1 0x40 MLOAD PUSH1 0x40 MLOAD DUP1 SWAP2 SUB SWAP1 LOG3 POP POP JUMP JUMPDEST PUSH1 0x0 CALLER SWAP1 POP SWAP1 JUMP JUMPDEST PUSH2 0x4E5B DUP1 PUSH3 0xAE5 DUP4 CODECOPY ADD SWAP1 JUMP JUMPDEST PUSH1 0x0 PUSH20 0xFFFFFFFFFFFFFFFFFFFFFFFFFFFFFFFFFFFFFFFF DUP3 AND SWAP1 POP SWAP2 SWAP1 POP JUMP JUMPDEST PUSH1 0x0 PUSH3 0x546 DUP3 PUSH3 0x519 JUMP JUMPDEST SWAP1 POP SWAP2 SWAP1 POP JUMP JUMPDEST PUSH3 0x558 DUP2 PUSH3 0x539 JUMP JUMPDEST DUP3 MSTORE POP POP JUMP JUMPDEST PUSH1 0x0 PUSH1 0x20 DUP3 ADD SWAP1 POP PUSH3 0x575 PUSH1 0x0 DUP4 ADD DUP5 PUSH3 0x54D JUMP JUMPDEST SWAP3 SWAP2 POP POP JUMP JUMPDEST PUSH1 0x0 DUP2 MLOAD SWAP1 POP SWAP2 SWAP1 POP JUMP JUMPDEST PUSH1 0x0 DUP3 DUP3 MSTORE PUSH1 0x20 DUP3 ADD SWAP1 POP SWAP3 SWAP2 POP POP JUMP JUMPDEST PUSH1 0x0 DUP2 SWAP1 POP PUSH1 0x20 DUP3 ADD SWAP1 POP SWAP2 SWAP1 POP JUMP JUMPDEST PUSH3 0x5B2 DUP2 PUSH3 0x539 JUMP JUMPDEST DUP3 MSTORE POP POP JUMP JUMPDEST PUSH1 0x0 PUSH3 0x5C6 DUP4 DUP4 PUSH3 0x5A7 JUMP JUMPDEST PUSH1 0x20 DUP4 ADD SWAP1 POP SWAP3 SWAP2 POP POP JUMP JUMPDEST PUSH1 0x0 PUSH1 0x20 DUP3 ADD SWAP1 POP SWAP2 SWAP1 POP JUMP JUMPDEST PUSH1 0x0 PUSH3 0x5EC DUP3 PUSH3 0x57B JUMP JUMPDEST PUSH3 0x5F8 DUP2 DUP6 PUSH3 0x586 JUMP JUMPDEST SWAP4 POP PUSH3 0x605 DUP4 PUSH3 0x597 JUMP JUMPDEST DUP1 PUSH1 0x0 JUMPDEST DUP4 DUP2 LT ISZERO PUSH3 0x63C JUMPI DUP2 MLOAD PUSH3 0x620 DUP9 DUP3 PUSH3 0x5B8 JUMP JUMPDEST SWAP8 POP PUSH3 0x62D DUP4 PUSH3 0x5D2 JUMP JUMPDEST SWAP3 POP POP PUSH1 0x1 DUP2 ADD SWAP1 POP PUSH3 0x609 JUMP JUMPDEST POP DUP6 SWAP4 POP POP POP POP SWAP3 SWAP2 POP POP JUMP JUMPDEST PUSH1 0x0 PUSH1 0x20 DUP3 ADD SWAP1 POP DUP2 DUP2 SUB PUSH1 0x0 DUP4 ADD MSTORE PUSH3 0x665 DUP2 DUP5 PUSH3 0x5DF JUMP JUMPDEST SWAP1 POP SWAP3 SWAP2 POP POP JUMP JUMPDEST PUSH1 0x0 PUSH1 0x40 MLOAD SWAP1 POP SWAP1 JUMP JUMPDEST PUSH1 0x0 DUP1 REVERT JUMPDEST PUSH1 0x0 DUP1 REVERT JUMPDEST PUSH1 0x0 DUP1 REVERT JUMPDEST PUSH1 0x0 DUP1 REVERT JUMPDEST PUSH1 0x0 PUSH1 0x1F NOT PUSH1 0x1F DUP4 ADD AND SWAP1 POP SWAP2 SWAP1 POP JUMP JUMPDEST PUSH32 0x4E487B7100000000000000000000000000000000000000000000000000000000 PUSH1 0x0 MSTORE PUSH1 0x41 PUSH1 0x4 MSTORE PUSH1 0x24 PUSH1 0x0 REVERT JUMPDEST PUSH3 0x6D6 DUP3 PUSH3 0x68B JUMP JUMPDEST DUP2 ADD DUP2 DUP2 LT PUSH8 0xFFFFFFFFFFFFFFFF DUP3 GT OR ISZERO PUSH3 0x6F8 JUMPI PUSH3 0x6F7 PUSH3 0x69C JUMP JUMPDEST JUMPDEST DUP1 PUSH1 0x40 MSTORE POP POP POP JUMP JUMPDEST PUSH1 0x0 PUSH3 0x70D PUSH3 0x66D JUMP JUMPDEST SWAP1 POP PUSH3 0x71B DUP3 DUP3 PUSH3 0x6CB JUMP JUMPDEST SWAP2 SWAP1 POP JUMP JUMPDEST PUSH1 0x0 PUSH8 0xFFFFFFFFFFFFFFFF DUP3 GT ISZERO PUSH3 0x73E JUMPI PUSH3 0x73D PUSH3 0x69C JUMP JUMPDEST JUMPDEST PUSH3 0x749 DUP3 PUSH3 0x68B JUMP JUMPDEST SWAP1 POP PUSH1 0x20 DUP2 ADD SWAP1 POP SWAP2 SWAP1 POP JUMP JUMPDEST DUP3 DUP2 DUP4 CALLDATACOPY PUSH1 0x0 DUP4 DUP4 ADD MSTORE POP POP POP JUMP JUMPDEST PUSH1 0x0 PUSH3 0x77C PUSH3 0x776 DUP5 PUSH3 0x720 JUMP JUMPDEST PUSH3 0x701 JUMP JUMPDEST SWAP1 POP DUP3 DUP2 MSTORE PUSH1 0x20 DUP2 ADD DUP5 DUP5 DUP5 ADD GT ISZERO PUSH3 0x79B JUMPI PUSH3 0x79A PUSH3 0x686 JUMP JUMPDEST JUMPDEST PUSH3 0x7A8 DUP5 DUP3 DUP6 PUSH3 0x756 JUMP JUMPDEST POP SWAP4 SWAP3 POP POP POP JUMP JUMPDEST PUSH1 0x0 DUP3 PUSH1 0x1F DUP4 ADD SLT PUSH3 0x7C8 JUMPI PUSH3 0x7C7 PUSH3 0x681 JUMP JUMPDEST JUMPDEST DUP2 CALLDATALOAD PUSH3 0x7DA DUP5 DUP3 PUSH1 0x20 DUP7 ADD PUSH3 0x765 JUMP JUMPDEST SWAP2 POP POP SWAP3 SWAP2 POP POP JUMP JUMPDEST PUSH3 0x7EE DUP2 PUSH3 0x539 JUMP JUMPDEST DUP2 EQ PUSH3 0x7FA JUMPI PUSH1 0x0 DUP1 REVERT JUMPDEST POP JUMP JUMPDEST PUSH1 0x0 DUP2 CALLDATALOAD SWAP1 POP PUSH3 0x80E DUP2 PUSH3 0x7E3 JUMP JUMPDEST SWAP3 SWAP2 POP POP JUMP JUMPDEST PUSH1 0x0 DUP1 PUSH1 0x0 DUP1 PUSH1 0x0 PUSH1 0xA0 DUP7 DUP9 SUB SLT ISZERO PUSH3 0x833 JUMPI PUSH3 0x832 PUSH3 0x677 JUMP JUMPDEST JUMPDEST PUSH1 0x0 DUP7 ADD CALLDATALOAD PUSH8 0xFFFFFFFFFFFFFFFF DUP2 GT ISZERO PUSH3 0x854 JUMPI PUSH3 0x853 PUSH3 0x67C JUMP JUMPDEST JUMPDEST PUSH3 0x862 DUP9 DUP3 DUP10 ADD PUSH3 0x7B0 JUMP JUMPDEST SWAP6 POP POP PUSH1 0x20 PUSH3 0x875 DUP9 DUP3 DUP10 ADD PUSH3 0x7FD JUMP JUMPDEST SWAP5 POP POP PUSH1 0x40 PUSH3 0x888 DUP9 DUP3 DUP10 ADD PUSH3 0x7FD JUMP JUMPDEST SWAP4 POP POP PUSH1 0x60 PUSH3 0x89B DUP9 DUP3 DUP10 ADD PUSH3 0x7FD JUMP JUMPDEST SWAP3 POP POP PUSH1 0x80 PUSH3 0x8AE DUP9 DUP3 DUP10 ADD PUSH3 0x7FD JUMP JUMPDEST SWAP2 POP POP SWAP3 SWAP6 POP SWAP3 SWAP6 SWAP1 SWAP4 POP JUMP JUMPDEST PUSH1 0x0 PUSH1 0x20 DUP3 DUP5 SUB SLT ISZERO PUSH3 0x8D4 JUMPI PUSH3 0x8D3 PUSH3 0x677 JUMP JUMPDEST JUMPDEST PUSH1 0x0 PUSH3 0x8E4 DUP5 DUP3 DUP6 ADD PUSH3 0x7FD JUMP JUMPDEST SWAP2 POP POP SWAP3 SWAP2 POP POP JUMP JUMPDEST PUSH1 0x0 DUP2 MLOAD SWAP1 POP SWAP2 SWAP1 POP JUMP JUMPDEST PUSH1 0x0 DUP3 DUP3 MSTORE PUSH1 0x20 DUP3 ADD SWAP1 POP SWAP3 SWAP2 POP POP JUMP JUMPDEST PUSH1 0x0 JUMPDEST DUP4 DUP2 LT ISZERO PUSH3 0x929 JUMPI DUP1 DUP3 ADD MLOAD DUP2 DUP5 ADD MSTORE PUSH1 0x20 DUP2 ADD SWAP1 POP PUSH3 0x90C JUMP JUMPDEST PUSH1 0x0 DUP5 DUP5 ADD MSTORE POP POP POP POP JUMP JUMPDEST PUSH1 0x0 PUSH3 0x942 DUP3 PUSH3 0x8ED JUMP JUMPDEST PUSH3 0x94E DUP2 DUP6 PUSH3 0x8F8 JUMP JUMPDEST SWAP4 POP PUSH3 0x960 DUP2 DUP6 PUSH1 0x20 DUP7 ADD PUSH3 0x909 JUMP JUMPDEST PUSH3 0x96B DUP2 PUSH3 0x68B JUMP JUMPDEST DUP5 ADD SWAP2 POP POP SWAP3 SWAP2 POP POP JUMP JUMPDEST PUSH1 0x0 PUSH1 0xA0 DUP3 ADD SWAP1 POP DUP2 DUP2 SUB PUSH1 0x0 DUP4 ADD MSTORE PUSH3 0x992 DUP2 DUP9 PUSH3 0x935 JUMP JUMPDEST SWAP1 POP PUSH3 0x9A3 PUSH1 0x20 DUP4 ADD DUP8 PUSH3 0x54D JUMP JUMPDEST PUSH3 0x9B2 PUSH1 0x40 DUP4 ADD DUP7 PUSH3 0x54D JUMP JUMPDEST PUSH3 0x9C1 PUSH1 0x60 DUP4 ADD DUP6 PUSH3 0x54D JUMP JUMPDEST PUSH3 0x9D0 PUSH1 0x80 DUP4 ADD DUP5 PUSH3 0x54D JUMP JUMPDEST SWAP7 SWAP6 POP POP POP POP POP POP JUMP JUMPDEST PUSH32 0x4F776E61626C653A206E6577206F776E657220697320746865207A65726F2061 PUSH1 0x0 DUP3 ADD MSTORE PUSH32 0x6464726573730000000000000000000000000000000000000000000000000000 PUSH1 0x20 DUP3 ADD MSTORE POP JUMP JUMPDEST PUSH1 0x0 PUSH3 0xA38 PUSH1 0x26 DUP4 PUSH3 0x8F8 JUMP JUMPDEST SWAP2 POP PUSH3 0xA45 DUP3 PUSH3 0x9DA JUMP JUMPDEST PUSH1 0x40 DUP3 ADD SWAP1 POP SWAP2 SWAP1 POP JUMP JUMPDEST PUSH1 0x0 PUSH1 0x20 DUP3 ADD SWAP1 POP DUP2 DUP2 SUB PUSH1 0x0 DUP4 ADD MSTORE PUSH3 0xA6B DUP2 PUSH3 0xA29 JUMP JUMPDEST SWAP1 POP SWAP2 SWAP1 POP JUMP JUMPDEST PUSH32 0x4F776E61626C653A2063616C6C6572206973206E6F7420746865206F776E6572 PUSH1 0x0 DUP3 ADD MSTORE POP JUMP JUMPDEST PUSH1 0x0 PUSH3 0xAAA PUSH1 0x20 DUP4 PUSH3 0x8F8 JUMP JUMPDEST SWAP2 POP PUSH3 0xAB7 DUP3 PUSH3 0xA72 JUMP JUMPDEST PUSH1 0x20 DUP3 ADD SWAP1 POP SWAP2 SWAP1 POP JUMP JUMPDEST PUSH1 0x0 PUSH1 0x20 DUP3 ADD SWAP1 POP DUP2 DUP2 SUB PUSH1 0x0 DUP4 ADD MSTORE PUSH3 0xADD DUP2 PUSH3 0xA9B JUMP JUMPDEST SWAP1 POP SWAP2 SWAP1 POP JUMP INVALID PUSH1 0xA0 PUSH1 0x40 MSTORE PUSH1 0x1 PUSH1 0x2 PUSH1 0x0 PUSH2 0x100 EXP DUP2 SLOAD DUP2 PUSH1 0xFF MUL NOT AND SWAP1 DUP4 ISZERO ISZERO MUL OR SWAP1 SSTORE POP PUSH1 0x1 PUSH1 0x2 PUSH1 0x15 PUSH2 0x100 EXP DUP2 SLOAD DUP2 PUSH1 0xFF MUL NOT AND SWAP1 DUP4 ISZERO ISZERO MUL OR SWAP1 SSTORE POP PUSH1 0x0 PUSH1 0x3 SSTORE PUSH1 0x0 PUSH1 0x4 SSTORE PUSH1 0x0 PUSH1 0x5 SSTORE PUSH1 0x2 PUSH1 0x6 SSTORE CALLVALUE DUP1 ISZERO PUSH3 0x5B JUMPI PUSH1 0x0 DUP1 REVERT JUMPDEST POP PUSH1 0x40 MLOAD PUSH3 0x4E5B CODESIZE SUB DUP1 PUSH3 0x4E5B DUP4 CODECOPY DUP2 DUP2 ADD PUSH1 0x40 MSTORE DUP2 ADD SWAP1 PUSH3 0x81 SWAP2 SWAP1 PUSH3 0x5BF JUMP JUMPDEST PUSH1 0x0 DUP1 PUSH1 0x0 PUSH2 0x100 EXP DUP2 SLOAD DUP2 PUSH1 0xFF MUL NOT AND SWAP1 DUP4 ISZERO ISZERO MUL OR SWAP1 SSTORE POP PUSH3 0xBB PUSH3 0xAF PUSH3 0x2FA PUSH1 0x20 SHL PUSH1 0x20 SHR JUMP JUMPDEST PUSH3 0x302 PUSH1 0x20 SHL PUSH1 0x20 SHR JUMP JUMPDEST PUSH1 0x0 PUSH20 0xFFFFFFFFFFFFFFFFFFFFFFFFFFFFFFFFFFFFFFFF AND DUP4 PUSH20 0xFFFFFFFFFFFFFFFFFFFFFFFFFFFFFFFFFFFFFFFF AND SUB PUSH3 0x12D JUMPI PUSH1 0x40 MLOAD PUSH32 0x8C379A000000000000000000000000000000000000000000000000000000000 DUP2 MSTORE PUSH1 0x4 ADD PUSH3 0x124 SWAP1 PUSH3 0x6C7 JUMP JUMPDEST PUSH1 0x40 MLOAD DUP1 SWAP2 SUB SWAP1 REVERT JUMPDEST PUSH1 0x0 PUSH20 0xFFFFFFFFFFFFFFFFFFFFFFFFFFFFFFFFFFFFFFFF AND DUP5 PUSH20 0xFFFFFFFFFFFFFFFFFFFFFFFFFFFFFFFFFFFFFFFF AND SUB PUSH3 0x19F JUMPI PUSH1 0x40 MLOAD PUSH32 0x8C379A000000000000000000000000000000000000000000000000000000000 DUP2 MSTORE PUSH1 0x4 ADD PUSH3 0x196 SWAP1 PUSH3 0x6C7 JUMP JUMPDEST PUSH1 0x40 MLOAD DUP1 SWAP2 SUB SWAP1 REVERT JUMPDEST PUSH1 0x3 DUP6 MLOAD EQ PUSH3 0x1E6 JUMPI PUSH1 0x40 MLOAD PUSH32 0x8C379A000000000000000000000000000000000000000000000000000000000 DUP2 MSTORE PUSH1 0x4 ADD PUSH3 0x1DD SWAP1 PUSH3 0x739 JUMP JUMPDEST PUSH1 0x40 MLOAD DUP1 SWAP2 SUB SWAP1 REVERT JUMPDEST DUP5 PUSH1 0x1 SWAP1 DUP2 PUSH3 0x1F7 SWAP2 SWAP1 PUSH3 0x9A6 JUMP JUMPDEST POP DUP3 PUSH1 0x2 PUSH1 0x1 PUSH2 0x100 EXP DUP2 SLOAD DUP2 PUSH20 0xFFFFFFFFFFFFFFFFFFFFFFFFFFFFFFFFFFFFFFFF MUL NOT AND SWAP1 DUP4 PUSH20 0xFFFFFFFFFFFFFFFFFFFFFFFFFFFFFFFFFFFFFFFF AND MUL OR SWAP1 SSTORE POP DUP4 PUSH20 0xFFFFFFFFFFFFFFFFFFFFFFFFFFFFFFFFFFFFFFFF AND PUSH1 0x80 DUP2 PUSH20 0xFFFFFFFFFFFFFFFFFFFFFFFFFFFFFFFFFFFFFFFF AND DUP2 MSTORE POP POP DUP2 PUSH1 0x8 PUSH1 0x0 PUSH2 0x100 EXP DUP2 SLOAD DUP2 PUSH20 0xFFFFFFFFFFFFFFFFFFFFFFFFFFFFFFFFFFFFFFFF MUL NOT AND SWAP1 DUP4 PUSH20 0xFFFFFFFFFFFFFFFFFFFFFFFFFFFFFFFFFFFFFFFF AND MUL OR SWAP1 SSTORE POP DUP1 PUSH1 0x7 PUSH1 0x0 PUSH2 0x100 EXP DUP2 SLOAD DUP2 PUSH20 0xFFFFFFFFFFFFFFFFFFFFFFFFFFFFFFFFFFFFFFFF MUL NOT AND SWAP1 DUP4 PUSH20 0xFFFFFFFFFFFFFFFFFFFFFFFFFFFFFFFFFFFFFFFF AND MUL OR SWAP1 SSTORE POP POP POP POP POP POP PUSH3 0xA8D JUMP JUMPDEST PUSH1 0x0 CALLER SWAP1 POP SWAP1 JUMP JUMPDEST PUSH1 0x0 DUP1 PUSH1 0x1 SWAP1 SLOAD SWAP1 PUSH2 0x100 EXP SWAP1 DIV PUSH20 0xFFFFFFFFFFFFFFFFFFFFFFFFFFFFFFFFFFFFFFFF AND SWAP1 POP DUP2 PUSH1 0x0 PUSH1 0x1 PUSH2 0x100 EXP DUP2 SLOAD DUP2 PUSH20 0xFFFFFFFFFFFFFFFFFFFFFFFFFFFFFFFFFFFFFFFF MUL NOT AND SWAP1 DUP4 PUSH20 0xFFFFFFFFFFFFFFFFFFFFFFFFFFFFFFFFFFFFFFFF AND MUL OR SWAP1 SSTORE POP DUP2 PUSH20 0xFFFFFFFFFFFFFFFFFFFFFFFFFFFFFFFFFFFFFFFF AND DUP2 PUSH20 0xFFFFFFFFFFFFFFFFFFFFFFFFFFFFFFFFFFFFFFFF AND PUSH32 0x8BE0079C531659141344CD1FD0A4F28419497F9722A3DAAFE3B4186F6B6457E0 PUSH1 0x40 MLOAD PUSH1 0x40 MLOAD DUP1 SWAP2 SUB SWAP1 LOG3 POP POP JUMP JUMPDEST PUSH1 0x0 PUSH1 0x40 MLOAD SWAP1 POP SWAP1 JUMP JUMPDEST PUSH1 0x0 DUP1 REVERT JUMPDEST PUSH1 0x0 DUP1 REVERT JUMPDEST PUSH1 0x0 DUP1 REVERT JUMPDEST PUSH1 0x0 DUP1 REVERT JUMPDEST PUSH1 0x0 PUSH1 0x1F NOT PUSH1 0x1F DUP4 ADD AND SWAP1 POP SWAP2 SWAP1 POP JUMP JUMPDEST PUSH32 0x4E487B7100000000000000000000000000000000000000000000000000000000 PUSH1 0x0 MSTORE PUSH1 0x41 PUSH1 0x4 MSTORE PUSH1 0x24 PUSH1 0x0 REVERT JUMPDEST PUSH3 0x430 DUP3 PUSH3 0x3E5 JUMP JUMPDEST DUP2 ADD DUP2 DUP2 LT PUSH8 0xFFFFFFFFFFFFFFFF DUP3 GT OR ISZERO PUSH3 0x452 JUMPI PUSH3 0x451 PUSH3 0x3F6 JUMP JUMPDEST JUMPDEST DUP1 PUSH1 0x40 MSTORE POP POP POP JUMP JUMPDEST PUSH1 0x0 PUSH3 0x467 PUSH3 0x3C7 JUMP JUMPDEST SWAP1 POP PUSH3 0x475 DUP3 DUP3 PUSH3 0x425 JUMP JUMPDEST SWAP2 SWAP1 POP JUMP JUMPDEST PUSH1 0x0 PUSH8 0xFFFFFFFFFFFFFFFF DUP3 GT ISZERO PUSH3 0x498 JUMPI PUSH3 0x497 PUSH3 0x3F6 JUMP JUMPDEST JUMPDEST PUSH3 0x4A3 DUP3 PUSH3 0x3E5 JUMP JUMPDEST SWAP1 POP PUSH1 0x20 DUP2 ADD SWAP1 POP SWAP2 SWAP1 POP JUMP JUMPDEST PUSH1 0x0 JUMPDEST DUP4 DUP2 LT ISZERO PUSH3 0x4D0 JUMPI DUP1 DUP3 ADD MLOAD DUP2 DUP5 ADD MSTORE PUSH1 0x20 DUP2 ADD SWAP1 POP PUSH3 0x4B3 JUMP JUMPDEST PUSH1 0x0 DUP5 DUP5 ADD MSTORE POP POP POP POP JUMP JUMPDEST PUSH1 0x0 PUSH3 0x4F3 PUSH3 0x4ED DUP5 PUSH3 0x47A JUMP JUMPDEST PUSH3 0x45B JUMP JUMPDEST SWAP1 POP DUP3 DUP2 MSTORE PUSH1 0x20 DUP2 ADD DUP5 DUP5 DUP5 ADD GT ISZERO PUSH3 0x512 JUMPI PUSH3 0x511 PUSH3 0x3E0 JUMP JUMPDEST JUMPDEST PUSH3 0x51F DUP5 DUP3 DUP6 PUSH3 0x4B0 JUMP JUMPDEST POP SWAP4 SWAP3 POP POP POP JUMP JUMPDEST PUSH1 0x0 DUP3 PUSH1 0x1F DUP4 ADD SLT PUSH3 0x53F JUMPI PUSH3 0x53E PUSH3 0x3DB JUMP JUMPDEST JUMPDEST DUP2 MLOAD PUSH3 0x551 DUP5 DUP3 PUSH1 0x20 DUP7 ADD PUSH3 0x4DC JUMP JUMPDEST SWAP2 POP POP SWAP3 SWAP2 POP POP JUMP JUMPDEST PUSH1 0x0 PUSH20 0xFFFFFFFFFFFFFFFFFFFFFFFFFFFFFFFFFFFFFFFF DUP3 AND SWAP1 POP SWAP2 SWAP1 POP JUMP JUMPDEST PUSH1 0x0 PUSH3 0x587 DUP3 PUSH3 0x55A JUMP JUMPDEST SWAP1 POP SWAP2 SWAP1 POP JUMP JUMPDEST PUSH3 0x599 DUP2 PUSH3 0x57A JUMP JUMPDEST DUP2 EQ PUSH3 0x5A5 JUMPI PUSH1 0x0 DUP1 REVERT JUMPDEST POP JUMP JUMPDEST PUSH1 0x0 DUP2 MLOAD SWAP1 POP PUSH3 0x5B9 DUP2 PUSH3 0x58E JUMP JUMPDEST SWAP3 SWAP2 POP POP JUMP JUMPDEST PUSH1 0x0 DUP1 PUSH1 0x0 DUP1 PUSH1 0x0 PUSH1 0xA0 DUP7 DUP9 SUB SLT ISZERO PUSH3 0x5DE JUMPI PUSH3 0x5DD PUSH3 0x3D1 JUMP JUMPDEST JUMPDEST PUSH1 0x0 DUP7 ADD MLOAD PUSH8 0xFFFFFFFFFFFFFFFF DUP2 GT ISZERO PUSH3 0x5FF JUMPI PUSH3 0x5FE PUSH3 0x3D6 JUMP JUMPDEST JUMPDEST PUSH3 0x60D DUP9 DUP3 DUP10 ADD PUSH3 0x527 JUMP JUMPDEST SWAP6 POP POP PUSH1 0x20 PUSH3 0x620 DUP9 DUP3 DUP10 ADD PUSH3 0x5A8 JUMP JUMPDEST SWAP5 POP POP PUSH1 0x40 PUSH3 0x633 DUP9 DUP3 DUP10 ADD PUSH3 0x5A8 JUMP JUMPDEST SWAP4 POP POP PUSH1 0x60 PUSH3 0x646 DUP9 DUP3 DUP10 ADD PUSH3 0x5A8 JUMP JUMPDEST SWAP3 POP POP PUSH1 0x80 PUSH3 0x659 DUP9 DUP3 DUP10 ADD PUSH3 0x5A8 JUMP JUMPDEST SWAP2 POP POP SWAP3 SWAP6 POP SWAP3 SWAP6 SWAP1 SWAP4 POP JUMP JUMPDEST PUSH1 0x0 DUP3 DUP3 MSTORE PUSH1 0x20 DUP3 ADD SWAP1 POP SWAP3 SWAP2 POP POP JUMP JUMPDEST PUSH32 0x43616E2774206265207A65726F20616464726573732E00000000000000000000 PUSH1 0x0 DUP3 ADD MSTORE POP JUMP JUMPDEST PUSH1 0x0 PUSH3 0x6AF PUSH1 0x16 DUP4 PUSH3 0x666 JUMP JUMPDEST SWAP2 POP PUSH3 0x6BC DUP3 PUSH3 0x677 JUMP JUMPDEST PUSH1 0x20 DUP3 ADD SWAP1 POP SWAP2 SWAP1 POP JUMP JUMPDEST PUSH1 0x0 PUSH1 0x20 DUP3 ADD SWAP1 POP DUP2 DUP2 SUB PUSH1 0x0 DUP4 ADD MSTORE PUSH3 0x6E2 DUP2 PUSH3 0x6A0 JUMP JUMPDEST SWAP1 POP SWAP2 SWAP1 POP JUMP JUMPDEST PUSH32 0x4E616D65206C656E677468206D75737420626520332E00000000000000000000 PUSH1 0x0 DUP3 ADD MSTORE POP JUMP JUMPDEST PUSH1 0x0 PUSH3 0x721 PUSH1 0x16 DUP4 PUSH3 0x666 JUMP JUMPDEST SWAP2 POP PUSH3 0x72E DUP3 PUSH3 0x6E9 JUMP JUMPDEST PUSH1 0x20 DUP3 ADD SWAP1 POP SWAP2 SWAP1 POP JUMP JUMPDEST PUSH1 0x0 PUSH1 0x20 DUP3 ADD SWAP1 POP DUP2 DUP2 SUB PUSH1 0x0 DUP4 ADD MSTORE PUSH3 0x754 DUP2 PUSH3 0x712 JUMP JUMPDEST SWAP1 POP SWAP2 SWAP1 POP JUMP JUMPDEST PUSH1 0x0 DUP2 MLOAD SWAP1 POP SWAP2 SWAP1 POP JUMP JUMPDEST PUSH32 0x4E487B7100000000000000000000000000000000000000000000000000000000 PUSH1 0x0 MSTORE PUSH1 0x22 PUSH1 0x4 MSTORE PUSH1 0x24 PUSH1 0x0 REVERT JUMPDEST PUSH1 0x0 PUSH1 0x2 DUP3 DIV SWAP1 POP PUSH1 0x1 DUP3 AND DUP1 PUSH3 0x7AE JUMPI PUSH1 0x7F DUP3 AND SWAP2 POP JUMPDEST PUSH1 0x20 DUP3 LT DUP2 SUB PUSH3 0x7C4 JUMPI PUSH3 0x7C3 PUSH3 0x766 JUMP JUMPDEST JUMPDEST POP SWAP2 SWAP1 POP JUMP JUMPDEST PUSH1 0x0 DUP2 SWAP1 POP DUP2 PUSH1 0x0 MSTORE PUSH1 0x20 PUSH1 0x0 KECCAK256 SWAP1 POP SWAP2 SWAP1 POP JUMP JUMPDEST PUSH1 0x0 PUSH1 0x20 PUSH1 0x1F DUP4 ADD DIV SWAP1 POP SWAP2 SWAP1 POP JUMP JUMPDEST PUSH1 0x0 DUP3 DUP3 SHL SWAP1 POP SWAP3 SWAP2 POP POP JUMP JUMPDEST PUSH1 0x0 PUSH1 0x8 DUP4 MUL PUSH3 0x82E PUSH32 0xFFFFFFFFFFFFFFFFFFFFFFFFFFFFFFFFFFFFFFFFFFFFFFFFFFFFFFFFFFFFFFFF DUP3 PUSH3 0x7EF JUMP JUMPDEST PUSH3 0x83A DUP7 DUP4 PUSH3 0x7EF JUMP JUMPDEST SWAP6 POP DUP1 NOT DUP5 AND SWAP4 POP DUP1 DUP7 AND DUP5 OR SWAP3 POP POP POP SWAP4 SWAP3 POP POP POP JUMP JUMPDEST PUSH1 0x0 DUP2 SWAP1 POP SWAP2 SWAP1 POP JUMP JUMPDEST PUSH1 0x0 DUP2 SWAP1 POP SWAP2 SWAP1 POP JUMP JUMPDEST PUSH1 0x0 PUSH3 0x887 PUSH3 0x881 PUSH3 0x87B DUP5 PUSH3 0x852 JUMP JUMPDEST PUSH3 0x85C JUMP JUMPDEST PUSH3 0x852 JUMP JUMPDEST SWAP1 POP SWAP2 SWAP1 POP JUMP JUMPDEST PUSH1 0x0 DUP2 SWAP1 POP SWAP2 SWAP1 POP JUMP JUMPDEST PUSH3 0x8A3 DUP4 PUSH3 0x866 JUMP JUMPDEST PUSH3 0x8BB PUSH3 0x8B2 DUP3 PUSH3 0x88E JUMP JUMPDEST DUP5 DUP5 SLOAD PUSH3 0x7FC JUMP JUMPDEST DUP3 SSTORE POP POP POP POP JUMP JUMPDEST PUSH1 0x0 SWAP1 JUMP JUMPDEST PUSH3 0x8D2 PUSH3 0x8C3 JUMP JUMPDEST PUSH3 0x8DF DUP2 DUP5 DUP5 PUSH3 0x898 JUMP JUMPDEST POP POP POP JUMP JUMPDEST JUMPDEST DUP2 DUP2 LT ISZERO PUSH3 0x907 JUMPI PUSH3 0x8FB PUSH1 0x0 DUP3 PUSH3 0x8C8 JUMP JUMPDEST PUSH1 0x1 DUP2 ADD SWAP1 POP PUSH3 0x8E5 JUMP JUMPDEST POP POP JUMP JUMPDEST PUSH1 0x1F DUP3 GT ISZERO PUSH3 0x956 JUMPI PUSH3 0x920 DUP2 PUSH3 0x7CA JUMP JUMPDEST PUSH3 0x92B DUP5 PUSH3 0x7DF JUMP JUMPDEST DUP2 ADD PUSH1 0x20 DUP6 LT ISZERO PUSH3 0x93B JUMPI DUP2 SWAP1 POP JUMPDEST PUSH3 0x953 PUSH3 0x94A DUP6 PUSH3 0x7DF JUMP JUMPDEST DUP4 ADD DUP3 PUSH3 0x8E4 JUMP JUMPDEST POP POP JUMPDEST POP POP POP JUMP JUMPDEST PUSH1 0x0 DUP3 DUP3 SHR SWAP1 POP SWAP3 SWAP2 POP POP JUMP JUMPDEST PUSH1 0x0 PUSH3 0x97B PUSH1 0x0 NOT DUP5 PUSH1 0x8 MUL PUSH3 0x95B JUMP JUMPDEST NOT DUP1 DUP4 AND SWAP2 POP POP SWAP3 SWAP2 POP POP JUMP JUMPDEST PUSH1 0x0 PUSH3 0x996 DUP4 DUP4 PUSH3 0x968 JUMP JUMPDEST SWAP2 POP DUP3 PUSH1 0x2 MUL DUP3 OR SWAP1 POP SWAP3 SWAP2 POP POP JUMP JUMPDEST PUSH3 0x9B1 DUP3 PUSH3 0x75B JUMP JUMPDEST PUSH8 0xFFFFFFFFFFFFFFFF DUP2 GT ISZERO PUSH3 0x9CD JUMPI PUSH3 0x9CC PUSH3 0x3F6 JUMP JUMPDEST JUMPDEST PUSH3 0x9D9 DUP3 SLOAD PUSH3 0x795 JUMP JUMPDEST PUSH3 0x9E6 DUP3 DUP3 DUP6 PUSH3 0x90B JUMP JUMPDEST PUSH1 0x0 PUSH1 0x20 SWAP1 POP PUSH1 0x1F DUP4 GT PUSH1 0x1 DUP2 EQ PUSH3 0xA1E JUMPI PUSH1 0x0 DUP5 ISZERO PUSH3 0xA09 JUMPI DUP3 DUP8 ADD MLOAD SWAP1 POP JUMPDEST PUSH3 0xA15 DUP6 DUP3 PUSH3 0x988 JUMP JUMPDEST DUP7 SSTORE POP PUSH3 0xA85 JUMP JUMPDEST PUSH1 0x1F NOT DUP5 AND PUSH3 0xA2E DUP7 PUSH3 0x7CA JUMP JUMPDEST PUSH1 0x0 JUMPDEST DUP3 DUP2 LT ISZERO PUSH3 0xA58 JUMPI DUP5 DUP10 ADD MLOAD DUP3 SSTORE PUSH1 0x1 DUP3 ADD SWAP2 POP PUSH1 0x20 DUP6 ADD SWAP5 POP PUSH1 0x20 DUP2 ADD SWAP1 POP PUSH3 0xA31 JUMP JUMPDEST DUP7 DUP4 LT ISZERO PUSH3 0xA78 JUMPI DUP5 DUP10 ADD MLOAD PUSH3 0xA74 PUSH1 0x1F DUP10 AND DUP3 PUSH3 0x968 JUMP JUMPDEST DUP4 SSTORE POP JUMPDEST PUSH1 0x1 PUSH1 0x2 DUP9 MUL ADD DUP9 SSTORE POP POP POP JUMPDEST POP POP POP POP POP POP JUMP JUMPDEST PUSH1 0x80 MLOAD PUSH2 0x4388 PUSH3 0xAD3 PUSH1 0x0 CODECOPY PUSH1 0x0 DUP2 DUP2 PUSH2 0xDE1 ADD MSTORE DUP2 DUP2 PUSH2 0x137D ADD MSTORE DUP2 DUP2 PUSH2 0x16E0 ADD MSTORE DUP2 DUP2 PUSH2 0x1701 ADD MSTORE DUP2 DUP2 PUSH2 0x1D64 ADD MSTORE DUP2 DUP2 PUSH2 0x1F71 ADD MSTORE PUSH2 0x27C5 ADD MSTORE PUSH2 0x4388 PUSH1 0x0 RETURN INVALID PUSH1 0x80 PUSH1 0x40 MSTORE CALLVALUE DUP1 ISZERO PUSH2 0x10 JUMPI PUSH1 0x0 DUP1 REVERT JUMPDEST POP PUSH1 0x4 CALLDATASIZE LT PUSH2 0x1C4 JUMPI PUSH1 0x0 CALLDATALOAD PUSH1 0xE0 SHR DUP1 PUSH4 0x8DA5CB5B GT PUSH2 0xF9 JUMPI DUP1 PUSH4 0xABB1DC44 GT PUSH2 0x97 JUMPI DUP1 PUSH4 0xE6367EBE GT PUSH2 0x71 JUMPI DUP1 PUSH4 0xE6367EBE EQ PUSH2 0x450 JUMPI DUP1 PUSH4 0xE8088766 EQ PUSH2 0x46F JUMPI DUP1 PUSH4 0xED969C84 EQ PUSH2 0x479 JUMPI DUP1 PUSH4 0xF2FDE38B EQ PUSH2 0x4A9 JUMPI PUSH2 0x1C4 JUMP JUMPDEST DUP1 PUSH4 0xABB1DC44 EQ PUSH2 0x3E5 JUMPI DUP1 PUSH4 0xB0B5E39E EQ PUSH2 0x404 JUMPI DUP1 PUSH4 0xB99152D0 EQ PUSH2 0x420 JUMPI PUSH2 0x1C4 JUMP JUMPDEST DUP1 PUSH4 0x9164B15D GT PUSH2 0xD3 JUMPI DUP1 PUSH4 0x9164B15D EQ PUSH2 0x36F JUMPI DUP1 PUSH4 0x9405DE64 EQ PUSH2 0x38B JUMPI DUP1 PUSH4 0x96EEBFF0 EQ PUSH2 0x3A9 JUMPI DUP1 PUSH4 0xA684AB5C EQ PUSH2 0x3C7 JUMPI PUSH2 0x1C4 JUMP JUMPDEST DUP1 PUSH4 0x8DA5CB5B EQ PUSH2 0x317 JUMPI DUP1 PUSH4 0x8DD25B07 EQ PUSH2 0x335 JUMPI DUP1 PUSH4 0x8EB89A61 EQ PUSH2 0x351 JUMPI PUSH2 0x1C4 JUMP JUMPDEST DUP1 PUSH4 0x22F3E2D4 GT PUSH2 0x166 JUMPI DUP1 PUSH4 0x5C975ABB GT PUSH2 0x140 JUMPI DUP1 PUSH4 0x5C975ABB EQ PUSH2 0x2A1 JUMPI DUP1 PUSH4 0x6A9D43DD EQ PUSH2 0x2BF JUMPI DUP1 PUSH4 0x715018A6 EQ PUSH2 0x2EF JUMPI DUP1 PUSH4 0x722713F7 EQ PUSH2 0x2F9 JUMPI PUSH2 0x1C4 JUMP JUMPDEST DUP1 PUSH4 0x22F3E2D4 EQ PUSH2 0x25B JUMPI DUP1 PUSH4 0x2AF0E251 EQ PUSH2 0x279 JUMPI DUP1 PUSH4 0x51B42B00 EQ PUSH2 0x297 JUMPI PUSH2 0x1C4 JUMP JUMPDEST DUP1 PUSH4 0x8FADCB0 GT PUSH2 0x1A2 JUMPI DUP1 PUSH4 0x8FADCB0 EQ PUSH2 0x1FB JUMPI DUP1 PUSH4 0xA6CB062 EQ PUSH2 0x219 JUMPI DUP1 PUSH4 0xBA2F1D8 EQ PUSH2 0x235 JUMPI DUP1 PUSH4 0xF15F4C0 EQ PUSH2 0x251 JUMPI PUSH2 0x1C4 JUMP JUMPDEST DUP1 PUSH4 0x46F7DA2 EQ PUSH2 0x1C9 JUMPI DUP1 PUSH4 0x6FDDE03 EQ PUSH2 0x1D3 JUMPI DUP1 PUSH4 0x7DA68F5 EQ PUSH2 0x1F1 JUMPI JUMPDEST PUSH1 0x0 DUP1 REVERT JUMPDEST PUSH2 0x1D1 PUSH2 0x4C5 JUMP JUMPDEST STOP JUMPDEST PUSH2 0x1DB PUSH2 0x4DF JUMP JUMPDEST PUSH1 0x40 MLOAD PUSH2 0x1E8 SWAP2 SWAP1 PUSH2 0x2BC1 JUMP JUMPDEST PUSH1 0x40 MLOAD DUP1 SWAP2 SUB SWAP1 RETURN JUMPDEST PUSH2 0x1F9 PUSH2 0x571 JUMP JUMPDEST STOP JUMPDEST PUSH2 0x203 PUSH2 0x58B JUMP JUMPDEST PUSH1 0x40 MLOAD PUSH2 0x210 SWAP2 SWAP1 PUSH2 0x2C24 JUMP JUMPDEST PUSH1 0x40 MLOAD DUP1 SWAP2 SUB SWAP1 RETURN JUMPDEST PUSH2 0x233 PUSH1 0x4 DUP1 CALLDATASIZE SUB DUP2 ADD SWAP1 PUSH2 0x22E SWAP2 SWAP1 PUSH2 0x2C7F JUMP JUMPDEST PUSH2 0x604 JUMP JUMPDEST STOP JUMPDEST PUSH2 0x24F PUSH1 0x4 DUP1 CALLDATASIZE SUB DUP2 ADD SWAP1 PUSH2 0x24A SWAP2 SWAP1 PUSH2 0x2C7F JUMP JUMPDEST PUSH2 0x70E JUMP JUMPDEST STOP JUMPDEST PUSH2 0x259 PUSH2 0x968 JUMP JUMPDEST STOP JUMPDEST PUSH2 0x263 PUSH2 0xA65 JUMP JUMPDEST PUSH1 0x40 MLOAD PUSH2 0x270 SWAP2 SWAP1 PUSH2 0x2CC7 JUMP JUMPDEST PUSH1 0x40 MLOAD DUP1 SWAP2 SUB SWAP1 RETURN JUMPDEST PUSH2 0x281 PUSH2 0xA84 JUMP JUMPDEST PUSH1 0x40 MLOAD PUSH2 0x28E SWAP2 SWAP1 PUSH2 0x2CFB JUMP JUMPDEST PUSH1 0x40 MLOAD DUP1 SWAP2 SUB SWAP1 RETURN JUMPDEST PUSH2 0x29F PUSH2 0xBDB JUMP JUMPDEST STOP JUMPDEST PUSH2 0x2A9 PUSH2 0xCD7 JUMP JUMPDEST PUSH1 0x40 MLOAD PUSH2 0x2B6 SWAP2 SWAP1 PUSH2 0x2CC7 JUMP JUMPDEST PUSH1 0x40 MLOAD DUP1 SWAP2 SUB SWAP1 RETURN JUMPDEST PUSH2 0x2D9 PUSH1 0x4 DUP1 CALLDATASIZE SUB DUP2 ADD SWAP1 PUSH2 0x2D4 SWAP2 SWAP1 PUSH2 0x2D42 JUMP JUMPDEST PUSH2 0xCED JUMP JUMPDEST PUSH1 0x40 MLOAD PUSH2 0x2E6 SWAP2 SWAP1 PUSH2 0x2CC7 JUMP JUMPDEST PUSH1 0x40 MLOAD DUP1 SWAP2 SUB SWAP1 RETURN JUMPDEST PUSH2 0x2F7 PUSH2 0xDC9 JUMP JUMPDEST STOP JUMPDEST PUSH2 0x301 PUSH2 0xDDD JUMP JUMPDEST PUSH1 0x40 MLOAD PUSH2 0x30E SWAP2 SWAP1 PUSH2 0x2CFB JUMP JUMPDEST PUSH1 0x40 MLOAD DUP1 SWAP2 SUB SWAP1 RETURN JUMPDEST PUSH2 0x31F PUSH2 0xE7E JUMP JUMPDEST PUSH1 0x40 MLOAD PUSH2 0x32C SWAP2 SWAP1 PUSH2 0x2C24 JUMP JUMPDEST PUSH1 0x40 MLOAD DUP1 SWAP2 SUB SWAP1 RETURN JUMPDEST PUSH2 0x34F PUSH1 0x4 DUP1 CALLDATASIZE SUB DUP2 ADD SWAP1 PUSH2 0x34A SWAP2 SWAP1 PUSH2 0x2D95 JUMP JUMPDEST PUSH2 0xEA7 JUMP JUMPDEST STOP JUMPDEST PUSH2 0x359 PUSH2 0xFC3 JUMP JUMPDEST PUSH1 0x40 MLOAD PUSH2 0x366 SWAP2 SWAP1 PUSH2 0x2CFB JUMP JUMPDEST PUSH1 0x40 MLOAD DUP1 SWAP2 SUB SWAP1 RETURN JUMPDEST PUSH2 0x389 PUSH1 0x4 DUP1 CALLDATASIZE SUB DUP2 ADD SWAP1 PUSH2 0x384 SWAP2 SWAP1 PUSH2 0x2DF8 JUMP JUMPDEST PUSH2 0x111A JUMP JUMPDEST STOP JUMPDEST PUSH2 0x393 PUSH2 0x1274 JUMP JUMPDEST PUSH1 0x40 MLOAD PUSH2 0x3A0 SWAP2 SWAP1 PUSH2 0x2CFB JUMP JUMPDEST PUSH1 0x40 MLOAD DUP1 SWAP2 SUB SWAP1 RETURN JUMPDEST PUSH2 0x3B1 PUSH2 0x141C JUMP JUMPDEST PUSH1 0x40 MLOAD PUSH2 0x3BE SWAP2 SWAP1 PUSH2 0x2CFB JUMP JUMPDEST PUSH1 0x40 MLOAD DUP1 SWAP2 SUB SWAP1 RETURN JUMPDEST PUSH2 0x3CF PUSH2 0x142E JUMP JUMPDEST PUSH1 0x40 MLOAD PUSH2 0x3DC SWAP2 SWAP1 PUSH2 0x2CFB JUMP JUMPDEST PUSH1 0x40 MLOAD DUP1 SWAP2 SUB SWAP1 RETURN JUMPDEST PUSH2 0x3ED PUSH2 0x1585 JUMP JUMPDEST PUSH1 0x40 MLOAD PUSH2 0x3FB SWAP3 SWAP2 SWAP1 PUSH2 0x2E38 JUMP JUMPDEST PUSH1 0x40 MLOAD DUP1 SWAP2 SUB SWAP1 RETURN JUMPDEST PUSH2 0x41E PUSH1 0x4 DUP1 CALLDATASIZE SUB DUP2 ADD SWAP1 PUSH2 0x419 SWAP2 SWAP1 PUSH2 0x2C7F JUMP JUMPDEST PUSH2 0x179B JUMP JUMPDEST STOP JUMPDEST PUSH2 0x43A PUSH1 0x4 DUP1 CALLDATASIZE SUB DUP2 ADD SWAP1 PUSH2 0x435 SWAP2 SWAP1 PUSH2 0x2C7F JUMP JUMPDEST PUSH2 0x186F JUMP JUMPDEST PUSH1 0x40 MLOAD PUSH2 0x447 SWAP2 SWAP1 PUSH2 0x2CFB JUMP JUMPDEST PUSH1 0x40 MLOAD DUP1 SWAP2 SUB SWAP1 RETURN JUMPDEST PUSH2 0x458 PUSH2 0x18FA JUMP JUMPDEST PUSH1 0x40 MLOAD PUSH2 0x466 SWAP3 SWAP2 SWAP1 PUSH2 0x2E68 JUMP JUMPDEST PUSH1 0x40 MLOAD DUP1 SWAP2 SUB SWAP1 RETURN JUMPDEST PUSH2 0x477 PUSH2 0x19CA JUMP JUMPDEST STOP JUMPDEST PUSH2 0x493 PUSH1 0x4 DUP1 CALLDATASIZE SUB DUP2 ADD SWAP1 PUSH2 0x48E SWAP2 SWAP1 PUSH2 0x2D95 JUMP JUMPDEST PUSH2 0x1BBD JUMP JUMPDEST PUSH1 0x40 MLOAD PUSH2 0x4A0 SWAP2 SWAP1 PUSH2 0x2CC7 JUMP JUMPDEST PUSH1 0x40 MLOAD DUP1 SWAP2 SUB SWAP1 RETURN JUMPDEST PUSH2 0x4C3 PUSH1 0x4 DUP1 CALLDATASIZE SUB DUP2 ADD SWAP1 PUSH2 0x4BE SWAP2 SWAP1 PUSH2 0x2C7F JUMP JUMPDEST PUSH2 0x1FCF JUMP JUMPDEST STOP JUMPDEST PUSH2 0x4CD PUSH2 0x2052 JUMP JUMPDEST PUSH2 0x4D5 PUSH2 0x209B JUMP JUMPDEST PUSH2 0x4DD PUSH2 0x2119 JUMP JUMPDEST JUMP JUMPDEST PUSH1 0x60 PUSH1 0x1 DUP1 SLOAD PUSH2 0x4EE SWAP1 PUSH2 0x2EC7 JUMP JUMPDEST DUP1 PUSH1 0x1F ADD PUSH1 0x20 DUP1 SWAP2 DIV MUL PUSH1 0x20 ADD PUSH1 0x40 MLOAD SWAP1 DUP2 ADD PUSH1 0x40 MSTORE DUP1 SWAP3 SWAP2 SWAP1 DUP2 DUP2 MSTORE PUSH1 0x20 ADD DUP3 DUP1 SLOAD PUSH2 0x51A SWAP1 PUSH2 0x2EC7 JUMP JUMPDEST DUP1 ISZERO PUSH2 0x567 JUMPI DUP1 PUSH1 0x1F LT PUSH2 0x53C JUMPI PUSH2 0x100 DUP1 DUP4 SLOAD DIV MUL DUP4 MSTORE SWAP2 PUSH1 0x20 ADD SWAP2 PUSH2 0x567 JUMP JUMPDEST DUP3 ADD SWAP2 SWAP1 PUSH1 0x0 MSTORE PUSH1 0x20 PUSH1 0x0 KECCAK256 SWAP1 JUMPDEST DUP2 SLOAD DUP2 MSTORE SWAP1 PUSH1 0x1 ADD SWAP1 PUSH1 0x20 ADD DUP1 DUP4 GT PUSH2 0x54A JUMPI DUP3 SWAP1 SUB PUSH1 0x1F AND DUP3 ADD SWAP2 JUMPDEST POP POP POP POP POP SWAP1 POP SWAP1 JUMP JUMPDEST PUSH2 0x579 PUSH2 0x217B JUMP JUMPDEST PUSH2 0x581 PUSH2 0x209B JUMP JUMPDEST PUSH2 0x589 PUSH2 0x21C5 JUMP JUMPDEST JUMP JUMPDEST PUSH1 0x0 PUSH2 0x595 PUSH2 0xA65 JUMP JUMPDEST PUSH2 0x5D4 JUMPI PUSH1 0x40 MLOAD PUSH32 0x8C379A000000000000000000000000000000000000000000000000000000000 DUP2 MSTORE PUSH1 0x4 ADD PUSH2 0x5CB SWAP1 PUSH2 0x2F44 JUMP JUMPDEST PUSH1 0x40 MLOAD DUP1 SWAP2 SUB SWAP1 REVERT JUMPDEST PUSH2 0x5DC PUSH2 0x217B JUMP JUMPDEST PUSH1 0x2 PUSH1 0x1 SWAP1 SLOAD SWAP1 PUSH2 0x100 EXP SWAP1 DIV PUSH20 0xFFFFFFFFFFFFFFFFFFFFFFFFFFFFFFFFFFFFFFFF AND SWAP1 POP SWAP1 JUMP JUMPDEST PUSH2 0x60C PUSH2 0x209B JUMP JUMPDEST PUSH2 0x614 PUSH2 0x217B JUMP JUMPDEST PUSH2 0x61C PUSH2 0xA65 JUMP JUMPDEST PUSH2 0x65B JUMPI PUSH1 0x40 MLOAD PUSH32 0x8C379A000000000000000000000000000000000000000000000000000000000 DUP2 MSTORE PUSH1 0x4 ADD PUSH2 0x652 SWAP1 PUSH2 0x2F44 JUMP JUMPDEST PUSH1 0x40 MLOAD DUP1 SWAP2 SUB SWAP1 REVERT JUMPDEST PUSH1 0x0 PUSH20 0xFFFFFFFFFFFFFFFFFFFFFFFFFFFFFFFFFFFFFFFF AND DUP2 PUSH20 0xFFFFFFFFFFFFFFFFFFFFFFFFFFFFFFFFFFFFFFFF AND SUB PUSH2 0x6CA JUMPI PUSH1 0x40 MLOAD PUSH32 0x8C379A000000000000000000000000000000000000000000000000000000000 DUP2 MSTORE PUSH1 0x4 ADD PUSH2 0x6C1 SWAP1 PUSH2 0x2FB0 JUMP JUMPDEST PUSH1 0x40 MLOAD DUP1 SWAP2 SUB SWAP1 REVERT JUMPDEST DUP1 PUSH1 0x7 PUSH1 0x0 PUSH2 0x100 EXP DUP2 SLOAD DUP2 PUSH20 0xFFFFFFFFFFFFFFFFFFFFFFFFFFFFFFFFFFFFFFFF MUL NOT AND SWAP1 DUP4 PUSH20 0xFFFFFFFFFFFFFFFFFFFFFFFFFFFFFFFFFFFFFFFF AND MUL OR SWAP1 SSTORE POP POP JUMP JUMPDEST PUSH2 0x716 PUSH2 0xA65 JUMP JUMPDEST PUSH2 0x755 JUMPI PUSH1 0x40 MLOAD PUSH32 0x8C379A000000000000000000000000000000000000000000000000000000000 DUP2 MSTORE PUSH1 0x4 ADD PUSH2 0x74C SWAP1 PUSH2 0x2F44 JUMP JUMPDEST PUSH1 0x40 MLOAD DUP1 SWAP2 SUB SWAP1 REVERT JUMPDEST PUSH1 0x2 PUSH1 0x1 SWAP1 SLOAD SWAP1 PUSH2 0x100 EXP SWAP1 DIV PUSH20 0xFFFFFFFFFFFFFFFFFFFFFFFFFFFFFFFFFFFFFFFF AND PUSH20 0xFFFFFFFFFFFFFFFFFFFFFFFFFFFFFFFFFFFFFFFF AND CALLER PUSH20 0xFFFFFFFFFFFFFFFFFFFFFFFFFFFFFFFFFFFFFFFF AND EQ PUSH2 0x7E5 JUMPI PUSH1 0x40 MLOAD PUSH32 0x8C379A000000000000000000000000000000000000000000000000000000000 DUP2 MSTORE PUSH1 0x4 ADD PUSH2 0x7DC SWAP1 PUSH2 0x301C JUMP JUMPDEST PUSH1 0x40 MLOAD DUP1 SWAP2 SUB SWAP1 REVERT JUMPDEST PUSH2 0x7ED PUSH2 0x217B JUMP JUMPDEST PUSH1 0x0 PUSH20 0xFFFFFFFFFFFFFFFFFFFFFFFFFFFFFFFFFFFFFFFF AND DUP2 PUSH20 0xFFFFFFFFFFFFFFFFFFFFFFFFFFFFFFFFFFFFFFFF AND SUB PUSH2 0x85C JUMPI PUSH1 0x40 MLOAD PUSH32 0x8C379A000000000000000000000000000000000000000000000000000000000 DUP2 MSTORE PUSH1 0x4 ADD PUSH2 0x853 SWAP1 PUSH2 0x2FB0 JUMP JUMPDEST PUSH1 0x40 MLOAD DUP1 SWAP2 SUB SWAP1 REVERT JUMPDEST PUSH1 0x2 PUSH1 0x1 SWAP1 SLOAD SWAP1 PUSH2 0x100 EXP SWAP1 DIV PUSH20 0xFFFFFFFFFFFFFFFFFFFFFFFFFFFFFFFFFFFFFFFF AND PUSH20 0xFFFFFFFFFFFFFFFFFFFFFFFFFFFFFFFFFFFFFFFF AND DUP2 PUSH20 0xFFFFFFFFFFFFFFFFFFFFFFFFFFFFFFFFFFFFFFFF AND SUB PUSH2 0x8EC JUMPI PUSH1 0x40 MLOAD PUSH32 0x8C379A000000000000000000000000000000000000000000000000000000000 DUP2 MSTORE PUSH1 0x4 ADD PUSH2 0x8E3 SWAP1 PUSH2 0x30AE JUMP JUMPDEST PUSH1 0x40 MLOAD DUP1 SWAP2 SUB SWAP1 REVERT JUMPDEST TIMESTAMP PUSH32 0x2412641BB659A040D92E94FDF52E358B27923A5F93AD671D56DC97E0E6864FCE DUP3 PUSH1 0x40 MLOAD PUSH2 0x91C SWAP2 SWAP1 PUSH2 0x2C24 JUMP JUMPDEST PUSH1 0x40 MLOAD DUP1 SWAP2 SUB SWAP1 LOG2 DUP1 PUSH1 0x2 PUSH1 0x1 PUSH2 0x100 EXP DUP2 SLOAD DUP2 PUSH20 0xFFFFFFFFFFFFFFFFFFFFFFFFFFFFFFFFFFFFFFFF MUL NOT AND SWAP1 DUP4 PUSH20 0xFFFFFFFFFFFFFFFFFFFFFFFFFFFFFFFFFFFFFFFF AND MUL OR SWAP1 SSTORE POP POP JUMP JUMPDEST PUSH1 0x2 PUSH1 0x1 SWAP1 SLOAD SWAP1 PUSH2 0x100 EXP SWAP1 DIV PUSH20 0xFFFFFFFFFFFFFFFFFFFFFFFFFFFFFFFFFFFFFFFF AND PUSH20 0xFFFFFFFFFFFFFFFFFFFFFFFFFFFFFFFFFFFFFFFF AND CALLER PUSH20 0xFFFFFFFFFFFFFFFFFFFFFFFFFFFFFFFFFFFFFFFF AND EQ PUSH2 0x9F8 JUMPI PUSH1 0x40 MLOAD PUSH32 0x8C379A000000000000000000000000000000000000000000000000000000000 DUP2 MSTORE PUSH1 0x4 ADD PUSH2 0x9EF SWAP1 PUSH2 0x301C JUMP JUMPDEST PUSH1 0x40 MLOAD DUP1 SWAP2 SUB SWAP1 REVERT JUMPDEST PUSH2 0xA00 PUSH2 0x217B JUMP JUMPDEST PUSH2 0xA08 PUSH2 0xA65 JUMP JUMPDEST ISZERO PUSH2 0xA48 JUMPI PUSH1 0x40 MLOAD PUSH32 0x8C379A000000000000000000000000000000000000000000000000000000000 DUP2 MSTORE PUSH1 0x4 ADD PUSH2 0xA3F SWAP1 PUSH2 0x311A JUMP JUMPDEST PUSH1 0x40 MLOAD DUP1 SWAP2 SUB SWAP1 REVERT JUMPDEST PUSH1 0x1 PUSH1 0x2 PUSH1 0x0 PUSH2 0x100 EXP DUP2 SLOAD DUP2 PUSH1 0xFF MUL NOT AND SWAP1 DUP4 ISZERO ISZERO MUL OR SWAP1 SSTORE POP JUMP JUMPDEST PUSH1 0x0 PUSH2 0xA6F PUSH2 0x217B JUMP JUMPDEST PUSH1 0x2 PUSH1 0x0 SWAP1 SLOAD SWAP1 PUSH2 0x100 EXP SWAP1 DIV PUSH1 0xFF AND SWAP1 POP SWAP1 JUMP JUMPDEST PUSH1 0x0 PUSH2 0xA8E PUSH2 0xA65 JUMP JUMPDEST PUSH2 0xACD JUMPI PUSH1 0x40 MLOAD PUSH32 0x8C379A000000000000000000000000000000000000000000000000000000000 DUP2 MSTORE PUSH1 0x4 ADD PUSH2 0xAC4 SWAP1 PUSH2 0x2F44 JUMP JUMPDEST PUSH1 0x40 MLOAD DUP1 SWAP2 SUB SWAP1 REVERT JUMPDEST PUSH1 0x0 PUSH20 0xFFFFFFFFFFFFFFFFFFFFFFFFFFFFFFFFFFFFFFFF AND CALLER PUSH20 0xFFFFFFFFFFFFFFFFFFFFFFFFFFFFFFFFFFFFFFFF AND SUB PUSH2 0xB06 JUMPI PUSH1 0x0 DUP1 REVERT JUMPDEST PUSH1 0x2 PUSH1 0x1 SWAP1 SLOAD SWAP1 PUSH2 0x100 EXP SWAP1 DIV PUSH20 0xFFFFFFFFFFFFFFFFFFFFFFFFFFFFFFFFFFFFFFFF AND PUSH20 0xFFFFFFFFFFFFFFFFFFFFFFFFFFFFFFFFFFFFFFFF AND CALLER PUSH20 0xFFFFFFFFFFFFFFFFFFFFFFFFFFFFFFFFFFFFFFFF AND EQ DUP1 PUSH2 0xB94 JUMPI POP PUSH2 0xB65 PUSH2 0xE7E JUMP JUMPDEST PUSH20 0xFFFFFFFFFFFFFFFFFFFFFFFFFFFFFFFFFFFFFFFF AND CALLER PUSH20 0xFFFFFFFFFFFFFFFFFFFFFFFFFFFFFFFFFFFFFFFF AND EQ JUMPDEST PUSH2 0xBD3 JUMPI PUSH1 0x40 MLOAD PUSH32 0x8C379A000000000000000000000000000000000000000000000000000000000 DUP2 MSTORE PUSH1 0x4 ADD PUSH2 0xBCA SWAP1 PUSH2 0x31AC JUMP JUMPDEST PUSH1 0x40 MLOAD DUP1 SWAP2 SUB SWAP1 REVERT JUMPDEST PUSH1 0x3 SLOAD SWAP1 POP SWAP1 JUMP JUMPDEST PUSH2 0xBE3 PUSH2 0xA65 JUMP JUMPDEST PUSH2 0xC22 JUMPI PUSH1 0x40 MLOAD PUSH32 0x8C379A000000000000000000000000000000000000000000000000000000000 DUP2 MSTORE PUSH1 0x4 ADD PUSH2 0xC19 SWAP1 PUSH2 0x2F44 JUMP JUMPDEST PUSH1 0x40 MLOAD DUP1 SWAP2 SUB SWAP1 REVERT JUMPDEST PUSH1 0x2 PUSH1 0x1 SWAP1 SLOAD SWAP1 PUSH2 0x100 EXP SWAP1 DIV PUSH20 0xFFFFFFFFFFFFFFFFFFFFFFFFFFFFFFFFFFFFFFFF AND PUSH20 0xFFFFFFFFFFFFFFFFFFFFFFFFFFFFFFFFFFFFFFFF AND CALLER PUSH20 0xFFFFFFFFFFFFFFFFFFFFFFFFFFFFFFFFFFFFFFFF AND EQ PUSH2 0xCB2 JUMPI PUSH1 0x40 MLOAD PUSH32 0x8C379A000000000000000000000000000000000000000000000000000000000 DUP2 MSTORE PUSH1 0x4 ADD PUSH2 0xCA9 SWAP1 PUSH2 0x301C JUMP JUMPDEST PUSH1 0x40 MLOAD DUP1 SWAP2 SUB SWAP1 REVERT JUMPDEST PUSH2 0xCBA PUSH2 0x217B JUMP JUMPDEST PUSH1 0x0 PUSH1 0x2 PUSH1 0x0 PUSH2 0x100 EXP DUP2 SLOAD DUP2 PUSH1 0xFF MUL NOT AND SWAP1 DUP4 ISZERO ISZERO MUL OR SWAP1 SSTORE POP JUMP JUMPDEST PUSH1 0x0 DUP1 PUSH1 0x0 SWAP1 SLOAD SWAP1 PUSH2 0x100 EXP SWAP1 DIV PUSH1 0xFF AND SWAP1 POP SWAP1 JUMP JUMPDEST PUSH1 0x0 PUSH2 0xCF7 PUSH2 0x209B JUMP JUMPDEST DUP2 PUSH2 0xD01 DUP6 PUSH2 0x186F JUMP JUMPDEST LT ISZERO PUSH2 0xD42 JUMPI PUSH1 0x40 MLOAD PUSH32 0x8C379A000000000000000000000000000000000000000000000000000000000 DUP2 MSTORE PUSH1 0x4 ADD PUSH2 0xD39 SWAP1 PUSH2 0x3218 JUMP JUMPDEST PUSH1 0x40 MLOAD DUP1 SWAP2 SUB SWAP1 REVERT JUMPDEST DUP4 PUSH20 0xFFFFFFFFFFFFFFFFFFFFFFFFFFFFFFFFFFFFFFFF AND PUSH4 0xA9059CBB DUP5 DUP5 PUSH1 0x40 MLOAD DUP4 PUSH4 0xFFFFFFFF AND PUSH1 0xE0 SHL DUP2 MSTORE PUSH1 0x4 ADD PUSH2 0xD7D SWAP3 SWAP2 SWAP1 PUSH2 0x3238 JUMP JUMPDEST PUSH1 0x20 PUSH1 0x40 MLOAD DUP1 DUP4 SUB DUP2 PUSH1 0x0 DUP8 GAS CALL ISZERO DUP1 ISZERO PUSH2 0xD9C JUMPI RETURNDATASIZE PUSH1 0x0 DUP1 RETURNDATACOPY RETURNDATASIZE PUSH1 0x0 REVERT JUMPDEST POP POP POP POP PUSH1 0x40 MLOAD RETURNDATASIZE PUSH1 0x1F NOT PUSH1 0x1F DUP3 ADD AND DUP3 ADD DUP1 PUSH1 0x40 MSTORE POP DUP2 ADD SWAP1 PUSH2 0xDC0 SWAP2 SWAP1 PUSH2 0x328D JUMP JUMPDEST SWAP1 POP SWAP4 SWAP3 POP POP POP JUMP JUMPDEST PUSH2 0xDD1 PUSH2 0x209B JUMP JUMPDEST PUSH2 0xDDB PUSH1 0x0 PUSH2 0x2227 JUMP JUMPDEST JUMP JUMPDEST PUSH1 0x0 PUSH32 0x0 PUSH20 0xFFFFFFFFFFFFFFFFFFFFFFFFFFFFFFFFFFFFFFFF AND PUSH4 0x70A08231 ADDRESS PUSH1 0x40 MLOAD DUP3 PUSH4 0xFFFFFFFF AND PUSH1 0xE0 SHL DUP2 MSTORE PUSH1 0x4 ADD PUSH2 0xE38 SWAP2 SWAP1 PUSH2 0x2C24 JUMP JUMPDEST PUSH1 0x20 PUSH1 0x40 MLOAD DUP1 DUP4 SUB DUP2 DUP7 GAS STATICCALL ISZERO DUP1 ISZERO PUSH2 0xE55 JUMPI RETURNDATASIZE PUSH1 0x0 DUP1 RETURNDATACOPY RETURNDATASIZE PUSH1 0x0 REVERT JUMPDEST POP POP POP POP PUSH1 0x40 MLOAD RETURNDATASIZE PUSH1 0x1F NOT PUSH1 0x1F DUP3 ADD AND DUP3 ADD DUP1 PUSH1 0x40 MSTORE POP DUP2 ADD SWAP1 PUSH2 0xE79 SWAP2 SWAP1 PUSH2 0x32CF JUMP JUMPDEST SWAP1 POP SWAP1 JUMP JUMPDEST PUSH1 0x0 DUP1 PUSH1 0x1 SWAP1 SLOAD SWAP1 PUSH2 0x100 EXP SWAP1 DIV PUSH20 0xFFFFFFFFFFFFFFFFFFFFFFFFFFFFFFFFFFFFFFFF AND SWAP1 POP SWAP1 JUMP JUMPDEST PUSH2 0xEAF PUSH2 0x217B JUMP JUMPDEST PUSH2 0xEB7 PUSH2 0x209B JUMP JUMPDEST PUSH1 0x0 DUP2 GT PUSH2 0xEFA JUMPI PUSH1 0x40 MLOAD PUSH32 0x8C379A000000000000000000000000000000000000000000000000000000000 DUP2 MSTORE PUSH1 0x4 ADD PUSH2 0xEF1 SWAP1 PUSH2 0x3348 JUMP JUMPDEST PUSH1 0x40 MLOAD DUP1 SWAP2 SUB SWAP1 REVERT JUMPDEST PUSH1 0xA DUP2 LT PUSH2 0xF3D JUMPI PUSH1 0x40 MLOAD PUSH32 0x8C379A000000000000000000000000000000000000000000000000000000000 DUP2 MSTORE PUSH1 0x4 ADD PUSH2 0xF34 SWAP1 PUSH2 0x33DA JUMP JUMPDEST PUSH1 0x40 MLOAD DUP1 SWAP2 SUB SWAP1 REVERT JUMPDEST PUSH1 0x6 SLOAD DUP2 SUB PUSH2 0xF81 JUMPI PUSH1 0x40 MLOAD PUSH32 0x8C379A000000000000000000000000000000000000000000000000000000000 DUP2 MSTORE PUSH1 0x4 ADD PUSH2 0xF78 SWAP1 PUSH2 0x346C JUMP JUMPDEST PUSH1 0x40 MLOAD DUP1 SWAP2 SUB SWAP1 REVERT JUMPDEST TIMESTAMP PUSH32 0x484A05D9FE4B08E9BBB359269069F0E08C5FFFC2D2E8F0AC37BCE4646DB5CB4 DUP3 PUSH1 0x40 MLOAD PUSH2 0xFB1 SWAP2 SWAP1 PUSH2 0x2CFB JUMP JUMPDEST PUSH1 0x40 MLOAD DUP1 SWAP2 SUB SWAP1 LOG2 DUP1 PUSH1 0x6 DUP2 SWAP1 SSTORE POP POP JUMP JUMPDEST PUSH1 0x0 PUSH2 0xFCD PUSH2 0xA65 JUMP JUMPDEST PUSH2 0x100C JUMPI PUSH1 0x40 MLOAD PUSH32 0x8C379A000000000000000000000000000000000000000000000000000000000 DUP2 MSTORE PUSH1 0x4 ADD PUSH2 0x1003 SWAP1 PUSH2 0x2F44 JUMP JUMPDEST PUSH1 0x40 MLOAD DUP1 SWAP2 SUB SWAP1 REVERT JUMPDEST PUSH1 0x0 PUSH20 0xFFFFFFFFFFFFFFFFFFFFFFFFFFFFFFFFFFFFFFFF AND CALLER PUSH20 0xFFFFFFFFFFFFFFFFFFFFFFFFFFFFFFFFFFFFFFFF AND SUB PUSH2 0x1045 JUMPI PUSH1 0x0 DUP1 REVERT JUMPDEST PUSH1 0x2 PUSH1 0x1 SWAP1 SLOAD SWAP1 PUSH2 0x100 EXP SWAP1 DIV PUSH20 0xFFFFFFFFFFFFFFFFFFFFFFFFFFFFFFFFFFFFFFFF AND PUSH20 0xFFFFFFFFFFFFFFFFFFFFFFFFFFFFFFFFFFFFFFFF AND CALLER PUSH20 0xFFFFFFFFFFFFFFFFFFFFFFFFFFFFFFFFFFFFFFFF AND EQ DUP1 PUSH2 0x10D3 JUMPI POP PUSH2 0x10A4 PUSH2 0xE7E JUMP JUMPDEST PUSH20 0xFFFFFFFFFFFFFFFFFFFFFFFFFFFFFFFFFFFFFFFF AND CALLER PUSH20 0xFFFFFFFFFFFFFFFFFFFFFFFFFFFFFFFFFFFFFFFF AND EQ JUMPDEST PUSH2 0x1112 JUMPI PUSH1 0x40 MLOAD PUSH32 0x8C379A000000000000000000000000000000000000000000000000000000000 DUP2 MSTORE PUSH1 0x4 ADD PUSH2 0x1109 SWAP1 PUSH2 0x31AC JUMP JUMPDEST PUSH1 0x40 MLOAD DUP1 SWAP2 SUB SWAP1 REVERT JUMPDEST PUSH1 0x5 SLOAD SWAP1 POP SWAP1 JUMP JUMPDEST PUSH2 0x1122 PUSH2 0x209B JUMP JUMPDEST PUSH2 0x112A PUSH2 0xA65 JUMP JUMPDEST PUSH2 0x1169 JUMPI PUSH1 0x40 MLOAD PUSH32 0x8C379A000000000000000000000000000000000000000000000000000000000 DUP2 MSTORE PUSH1 0x4 ADD PUSH2 0x1160 SWAP1 PUSH2 0x2F44 JUMP JUMPDEST PUSH1 0x40 MLOAD DUP1 SWAP2 SUB SWAP1 REVERT JUMPDEST PUSH2 0x1171 PUSH2 0x217B JUMP JUMPDEST PUSH1 0x5 SLOAD DUP3 GT ISZERO PUSH2 0x11B6 JUMPI PUSH1 0x40 MLOAD PUSH32 0x8C379A000000000000000000000000000000000000000000000000000000000 DUP2 MSTORE PUSH1 0x4 ADD PUSH2 0x11AD SWAP1 PUSH2 0x34FE JUMP JUMPDEST PUSH1 0x40 MLOAD DUP1 SWAP2 SUB SWAP1 REVERT JUMPDEST PUSH1 0x0 DUP3 GT PUSH2 0x11F9 JUMPI PUSH1 0x40 MLOAD PUSH32 0x8C379A000000000000000000000000000000000000000000000000000000000 DUP2 MSTORE PUSH1 0x4 ADD PUSH2 0x11F0 SWAP1 PUSH2 0x3590 JUMP JUMPDEST PUSH1 0x40 MLOAD DUP1 SWAP2 SUB SWAP1 REVERT JUMPDEST TIMESTAMP PUSH32 0xECA05FB6416A6378993B4ABF548B3C805BFA7B3375231FBD6D7F4A7B8D9FA0A3 PUSH1 0x2 PUSH1 0x1 SWAP1 SLOAD SWAP1 PUSH2 0x100 EXP SWAP1 DIV PUSH20 0xFFFFFFFFFFFFFFFFFFFFFFFFFFFFFFFFFFFFFFFF AND DUP5 DUP5 PUSH1 0x40 MLOAD PUSH2 0x124F SWAP4 SWAP3 SWAP2 SWAP1 PUSH2 0x35BF JUMP JUMPDEST PUSH1 0x40 MLOAD DUP1 SWAP2 SUB SWAP1 LOG2 DUP2 PUSH1 0x5 PUSH1 0x0 DUP3 DUP3 SLOAD PUSH2 0x1269 SWAP2 SWAP1 PUSH2 0x3625 JUMP JUMPDEST SWAP3 POP POP DUP2 SWAP1 SSTORE POP POP POP JUMP JUMPDEST PUSH1 0x0 DUP1 PUSH20 0xFFFFFFFFFFFFFFFFFFFFFFFFFFFFFFFFFFFFFFFF AND CALLER PUSH20 0xFFFFFFFFFFFFFFFFFFFFFFFFFFFFFFFFFFFFFFFF AND SUB PUSH2 0x12AE JUMPI PUSH1 0x0 DUP1 REVERT JUMPDEST PUSH1 0x2 PUSH1 0x1 SWAP1 SLOAD SWAP1 PUSH2 0x100 EXP SWAP1 DIV PUSH20 0xFFFFFFFFFFFFFFFFFFFFFFFFFFFFFFFFFFFFFFFF AND PUSH20 0xFFFFFFFFFFFFFFFFFFFFFFFFFFFFFFFFFFFFFFFF AND CALLER PUSH20 0xFFFFFFFFFFFFFFFFFFFFFFFFFFFFFFFFFFFFFFFF AND EQ DUP1 PUSH2 0x133C JUMPI POP PUSH2 0x130D PUSH2 0xE7E JUMP JUMPDEST PUSH20 0xFFFFFFFFFFFFFFFFFFFFFFFFFFFFFFFFFFFFFFFF AND CALLER PUSH20 0xFFFFFFFFFFFFFFFFFFFFFFFFFFFFFFFFFFFFFFFF AND EQ JUMPDEST PUSH2 0x137B JUMPI PUSH1 0x40 MLOAD PUSH32 0x8C379A000000000000000000000000000000000000000000000000000000000 DUP2 MSTORE PUSH1 0x4 ADD PUSH2 0x1372 SWAP1 PUSH2 0x31AC JUMP JUMPDEST PUSH1 0x40 MLOAD DUP1 SWAP2 SUB SWAP1 REVERT JUMPDEST PUSH32 0x0 PUSH20 0xFFFFFFFFFFFFFFFFFFFFFFFFFFFFFFFFFFFFFFFF AND PUSH4 0xDD62ED3E CALLER ADDRESS PUSH1 0x40 MLOAD DUP4 PUSH4 0xFFFFFFFF AND PUSH1 0xE0 SHL DUP2 MSTORE PUSH1 0x4 ADD PUSH2 0x13D6 SWAP3 SWAP2 SWAP1 PUSH2 0x3659 JUMP JUMPDEST PUSH1 0x20 PUSH1 0x40 MLOAD DUP1 DUP4 SUB DUP2 DUP7 GAS STATICCALL ISZERO DUP1 ISZERO PUSH2 0x13F3 JUMPI RETURNDATASIZE PUSH1 0x0 DUP1 RETURNDATACOPY RETURNDATASIZE PUSH1 0x0 REVERT JUMPDEST POP POP POP POP PUSH1 0x40 MLOAD RETURNDATASIZE PUSH1 0x1F NOT PUSH1 0x1F DUP3 ADD AND DUP3 ADD DUP1 PUSH1 0x40 MSTORE POP DUP2 ADD SWAP1 PUSH2 0x1417 SWAP2 SWAP1 PUSH2 0x32CF JUMP JUMPDEST SWAP1 POP SWAP1 JUMP JUMPDEST PUSH1 0x0 PUSH2 0x1426 PUSH2 0x217B JUMP JUMPDEST PUSH1 0x6 SLOAD SWAP1 POP SWAP1 JUMP JUMPDEST PUSH1 0x0 PUSH2 0x1438 PUSH2 0xA65 JUMP JUMPDEST PUSH2 0x1477 JUMPI PUSH1 0x40 MLOAD PUSH32 0x8C379A000000000000000000000000000000000000000000000000000000000 DUP2 MSTORE PUSH1 0x4 ADD PUSH2 0x146E SWAP1 PUSH2 0x2F44 JUMP JUMPDEST PUSH1 0x40 MLOAD DUP1 SWAP2 SUB SWAP1 REVERT JUMPDEST PUSH1 0x0 PUSH20 0xFFFFFFFFFFFFFFFFFFFFFFFFFFFFFFFFFFFFFFFF AND CALLER PUSH20 0xFFFFFFFFFFFFFFFFFFFFFFFFFFFFFFFFFFFFFFFF AND SUB PUSH2 0x14B0 JUMPI PUSH1 0x0 DUP1 REVERT JUMPDEST PUSH1 0x2 PUSH1 0x1 SWAP1 SLOAD SWAP1 PUSH2 0x100 EXP SWAP1 DIV PUSH20 0xFFFFFFFFFFFFFFFFFFFFFFFFFFFFFFFFFFFFFFFF AND PUSH20 0xFFFFFFFFFFFFFFFFFFFFFFFFFFFFFFFFFFFFFFFF AND CALLER PUSH20 0xFFFFFFFFFFFFFFFFFFFFFFFFFFFFFFFFFFFFFFFF AND EQ DUP1 PUSH2 0x153E JUMPI POP PUSH2 0x150F PUSH2 0xE7E JUMP JUMPDEST PUSH20 0xFFFFFFFFFFFFFFFFFFFFFFFFFFFFFFFFFFFFFFFF AND CALLER PUSH20 0xFFFFFFFFFFFFFFFFFFFFFFFFFFFFFFFFFFFFFFFF AND EQ JUMPDEST PUSH2 0x157D JUMPI PUSH1 0x40 MLOAD PUSH32 0x8C379A000000000000000000000000000000000000000000000000000000000 DUP2 MSTORE PUSH1 0x4 ADD PUSH2 0x1574 SWAP1 PUSH2 0x31AC JUMP JUMPDEST PUSH1 0x40 MLOAD DUP1 SWAP2 SUB SWAP1 REVERT JUMPDEST PUSH1 0x4 SLOAD SWAP1 POP SWAP1 JUMP JUMPDEST PUSH1 0x0 PUSH1 0x60 PUSH2 0x1591 PUSH2 0xA65 JUMP JUMPDEST PUSH2 0x15D0 JUMPI PUSH1 0x40 MLOAD PUSH32 0x8C379A000000000000000000000000000000000000000000000000000000000 DUP2 MSTORE PUSH1 0x4 ADD PUSH2 0x15C7 SWAP1 PUSH2 0x2F44 JUMP JUMPDEST PUSH1 0x40 MLOAD DUP1 SWAP2 SUB SWAP1 REVERT JUMPDEST PUSH1 0x0 PUSH20 0xFFFFFFFFFFFFFFFFFFFFFFFFFFFFFFFFFFFFFFFF AND CALLER PUSH20 0xFFFFFFFFFFFFFFFFFFFFFFFFFFFFFFFFFFFFFFFF AND SUB PUSH2 0x1609 JUMPI PUSH1 0x0 DUP1 REVERT JUMPDEST PUSH1 0x2 PUSH1 0x1 SWAP1 SLOAD SWAP1 PUSH2 0x100 EXP SWAP1 DIV PUSH20 0xFFFFFFFFFFFFFFFFFFFFFFFFFFFFFFFFFFFFFFFF AND PUSH20 0xFFFFFFFFFFFFFFFFFFFFFFFFFFFFFFFFFFFFFFFF AND CALLER PUSH20 0xFFFFFFFFFFFFFFFFFFFFFFFFFFFFFFFFFFFFFFFF AND EQ DUP1 PUSH2 0x1697 JUMPI POP PUSH2 0x1668 PUSH2 0xE7E JUMP JUMPDEST PUSH20 0xFFFFFFFFFFFFFFFFFFFFFFFFFFFFFFFFFFFFFFFF AND CALLER PUSH20 0xFFFFFFFFFFFFFFFFFFFFFFFFFFFFFFFFFFFFFFFF AND EQ JUMPDEST PUSH2 0x16D6 JUMPI PUSH1 0x40 MLOAD PUSH32 0x8C379A000000000000000000000000000000000000000000000000000000000 DUP2 MSTORE PUSH1 0x4 ADD PUSH2 0x16CD SWAP1 PUSH2 0x31AC JUMP JUMPDEST PUSH1 0x40 MLOAD DUP1 SWAP2 SUB SWAP1 REVERT JUMPDEST PUSH2 0x16DE PUSH2 0x217B JUMP JUMPDEST PUSH32 0x0 PUSH32 0x0 PUSH20 0xFFFFFFFFFFFFFFFFFFFFFFFFFFFFFFFFFFFFFFFF AND PUSH4 0x95D89B41 PUSH1 0x40 MLOAD DUP2 PUSH4 0xFFFFFFFF AND PUSH1 0xE0 SHL DUP2 MSTORE PUSH1 0x4 ADD PUSH1 0x0 PUSH1 0x40 MLOAD DUP1 DUP4 SUB DUP2 DUP7 GAS STATICCALL ISZERO DUP1 ISZERO PUSH2 0x176A JUMPI RETURNDATASIZE PUSH1 0x0 DUP1 RETURNDATACOPY RETURNDATASIZE PUSH1 0x0 REVERT JUMPDEST POP POP POP POP PUSH1 0x40 MLOAD RETURNDATASIZE PUSH1 0x0 DUP3 RETURNDATACOPY RETURNDATASIZE PUSH1 0x1F NOT PUSH1 0x1F DUP3 ADD AND DUP3 ADD DUP1 PUSH1 0x40 MSTORE POP DUP2 ADD SWAP1 PUSH2 0x1793 SWAP2 SWAP1 PUSH2 0x37A8 JUMP JUMPDEST SWAP2 POP SWAP2 POP SWAP1 SWAP2 JUMP JUMPDEST PUSH2 0x17A3 PUSH2 0x209B JUMP JUMPDEST PUSH2 0x17AB PUSH2 0x217B JUMP JUMPDEST PUSH2 0x17B3 PUSH2 0xA65 JUMP JUMPDEST PUSH2 0x17F2 JUMPI PUSH1 0x40 MLOAD PUSH32 0x8C379A000000000000000000000000000000000000000000000000000000000 DUP2 MSTORE PUSH1 0x4 ADD PUSH2 0x17E9 SWAP1 PUSH2 0x2F44 JUMP JUMPDEST PUSH1 0x40 MLOAD DUP1 SWAP2 SUB SWAP1 REVERT JUMPDEST PUSH1 0x0 PUSH20 0xFFFFFFFFFFFFFFFFFFFFFFFFFFFFFFFFFFFFFFFF AND DUP2 PUSH20 0xFFFFFFFFFFFFFFFFFFFFFFFFFFFFFFFFFFFFFFFF AND SUB PUSH2 0x182B JUMPI PUSH1 0x0 DUP1 REVERT JUMPDEST DUP1 PUSH1 0x8 PUSH1 0x0 PUSH2 0x100 EXP DUP2 SLOAD DUP2 PUSH20 0xFFFFFFFFFFFFFFFFFFFFFFFFFFFFFFFFFFFFFFFF MUL NOT AND SWAP1 DUP4 PUSH20 0xFFFFFFFFFFFFFFFFFFFFFFFFFFFFFFFFFFFFFFFF AND MUL OR SWAP1 SSTORE POP POP JUMP JUMPDEST PUSH1 0x0 PUSH2 0x1879 PUSH2 0x209B JUMP JUMPDEST DUP2 PUSH20 0xFFFFFFFFFFFFFFFFFFFFFFFFFFFFFFFFFFFFFFFF AND PUSH4 0x70A08231 ADDRESS PUSH1 0x40 MLOAD DUP3 PUSH4 0xFFFFFFFF AND PUSH1 0xE0 SHL DUP2 MSTORE PUSH1 0x4 ADD PUSH2 0x18B2 SWAP2 SWAP1 PUSH2 0x2C24 JUMP JUMPDEST PUSH1 0x20 PUSH1 0x40 MLOAD DUP1 DUP4 SUB DUP2 DUP7 GAS STATICCALL ISZERO DUP1 ISZERO PUSH2 0x18CF JUMPI RETURNDATASIZE PUSH1 0x0 DUP1 RETURNDATACOPY RETURNDATASIZE PUSH1 0x0 REVERT JUMPDEST POP POP POP POP PUSH1 0x40 MLOAD RETURNDATASIZE PUSH1 0x1F NOT PUSH1 0x1F DUP3 ADD AND DUP3 ADD DUP1 PUSH1 0x40 MSTORE POP DUP2 ADD SWAP1 PUSH2 0x18F3 SWAP2 SWAP1 PUSH2 0x32CF JUMP JUMPDEST SWAP1 POP SWAP2 SWAP1 POP JUMP JUMPDEST PUSH1 0x60 PUSH1 0x0 PUSH2 0x1906 PUSH2 0x217B JUMP JUMPDEST PUSH2 0x190E PUSH2 0xA65 JUMP JUMPDEST PUSH2 0x194D JUMPI PUSH1 0x40 MLOAD PUSH32 0x8C379A000000000000000000000000000000000000000000000000000000000 DUP2 MSTORE PUSH1 0x4 ADD PUSH2 0x1944 SWAP1 PUSH2 0x2F44 JUMP JUMPDEST PUSH1 0x40 MLOAD DUP1 SWAP2 SUB SWAP1 REVERT JUMPDEST PUSH1 0x0 PUSH2 0x1957 PUSH2 0x22EC JUMP JUMPDEST SWAP1 POP PUSH1 0x2 PUSH1 0x15 SWAP1 SLOAD SWAP1 PUSH2 0x100 EXP SWAP1 DIV PUSH1 0xFF AND ISZERO PUSH2 0x199C JUMPI DUP1 PUSH1 0x8 PUSH1 0x0 SWAP1 SLOAD SWAP1 PUSH2 0x100 EXP SWAP1 DIV PUSH20 0xFFFFFFFFFFFFFFFFFFFFFFFFFFFFFFFFFFFFFFFF AND SWAP3 POP SWAP3 POP POP PUSH2 0x19C6 JUMP JUMPDEST DUP1 PUSH1 0x7 PUSH1 0x0 SWAP1 SLOAD SWAP1 PUSH2 0x100 EXP SWAP1 DIV PUSH20 0xFFFFFFFFFFFFFFFFFFFFFFFFFFFFFFFFFFFFFFFF AND SWAP3 POP SWAP3 POP POP JUMPDEST SWAP1 SWAP2 JUMP JUMPDEST PUSH2 0x19D2 PUSH2 0x209B JUMP JUMPDEST PUSH2 0x19DA PUSH2 0xA65 JUMP JUMPDEST PUSH2 0x1A19 JUMPI PUSH1 0x40 MLOAD PUSH32 0x8C379A000000000000000000000000000000000000000000000000000000000 DUP2 MSTORE PUSH1 0x4 ADD PUSH2 0x1A10 SWAP1 PUSH2 0x2F44 JUMP JUMPDEST PUSH1 0x40 MLOAD DUP1 SWAP2 SUB SWAP1 REVERT JUMPDEST PUSH2 0x1A21 PUSH2 0x217B JUMP JUMPDEST PUSH1 0x2 PUSH1 0x15 SWAP1 SLOAD SWAP1 PUSH2 0x100 EXP SWAP1 DIV PUSH1 0xFF AND ISZERO PUSH2 0x1AE5 JUMPI PUSH1 0x2 PUSH1 0x15 SWAP1 SLOAD SWAP1 PUSH2 0x100 EXP SWAP1 DIV PUSH1 0xFF AND DUP1 ISZERO PUSH2 0x1AA1 JUMPI POP PUSH1 0x0 PUSH20 0xFFFFFFFFFFFFFFFFFFFFFFFFFFFFFFFFFFFFFFFF AND PUSH1 0x7 PUSH1 0x0 SWAP1 SLOAD SWAP1 PUSH2 0x100 EXP SWAP1 DIV PUSH20 0xFFFFFFFFFFFFFFFFFFFFFFFFFFFFFFFFFFFFFFFF AND PUSH20 0xFFFFFFFFFFFFFFFFFFFFFFFFFFFFFFFFFFFFFFFF AND EQ ISZERO JUMPDEST PUSH2 0x1AE0 JUMPI PUSH1 0x40 MLOAD PUSH32 0x8C379A000000000000000000000000000000000000000000000000000000000 DUP2 MSTORE PUSH1 0x4 ADD PUSH2 0x1AD7 SWAP1 PUSH2 0x3863 JUMP JUMPDEST PUSH1 0x40 MLOAD DUP1 SWAP2 SUB SWAP1 REVERT JUMPDEST PUSH2 0x1B91 JUMP JUMPDEST PUSH1 0x2 PUSH1 0x15 SWAP1 SLOAD SWAP1 PUSH2 0x100 EXP SWAP1 DIV PUSH1 0xFF AND ISZERO DUP1 ISZERO PUSH2 0x1B51 JUMPI POP PUSH1 0x0 PUSH20 0xFFFFFFFFFFFFFFFFFFFFFFFFFFFFFFFFFFFFFFFF AND PUSH1 0x8 PUSH1 0x0 SWAP1 SLOAD SWAP1 PUSH2 0x100 EXP SWAP1 DIV PUSH20 0xFFFFFFFFFFFFFFFFFFFFFFFFFFFFFFFFFFFFFFFF AND PUSH20 0xFFFFFFFFFFFFFFFFFFFFFFFFFFFFFFFFFFFFFFFF AND EQ ISZERO JUMPDEST PUSH2 0x1B90 JUMPI PUSH1 0x40 MLOAD PUSH32 0x8C379A000000000000000000000000000000000000000000000000000000000 DUP2 MSTORE PUSH1 0x4 ADD PUSH2 0x1B87 SWAP1 PUSH2 0x38CF JUMP JUMPDEST PUSH1 0x40 MLOAD DUP1 SWAP2 SUB SWAP1 REVERT JUMPDEST JUMPDEST PUSH1 0x2 PUSH1 0x15 SWAP1 SLOAD SWAP1 PUSH2 0x100 EXP SWAP1 DIV PUSH1 0xFF AND ISZERO PUSH1 0x2 PUSH1 0x15 PUSH2 0x100 EXP DUP2 SLOAD DUP2 PUSH1 0xFF MUL NOT AND SWAP1 DUP4 ISZERO ISZERO MUL OR SWAP1 SSTORE POP JUMP JUMPDEST PUSH1 0x0 PUSH2 0x1BC7 PUSH2 0x217B JUMP JUMPDEST PUSH2 0x1BCF PUSH2 0xA65 JUMP JUMPDEST PUSH2 0x1C0E JUMPI PUSH1 0x40 MLOAD PUSH32 0x8C379A000000000000000000000000000000000000000000000000000000000 DUP2 MSTORE PUSH1 0x4 ADD PUSH2 0x1C05 SWAP1 PUSH2 0x2F44 JUMP JUMPDEST PUSH1 0x40 MLOAD DUP1 SWAP2 SUB SWAP1 REVERT JUMPDEST PUSH1 0x0 PUSH20 0xFFFFFFFFFFFFFFFFFFFFFFFFFFFFFFFFFFFFFFFF AND CALLER PUSH20 0xFFFFFFFFFFFFFFFFFFFFFFFFFFFFFFFFFFFFFFFF AND SUB PUSH2 0x1C47 JUMPI PUSH1 0x0 DUP1 REVERT JUMPDEST PUSH1 0x2 PUSH1 0x1 SWAP1 SLOAD SWAP1 PUSH2 0x100 EXP SWAP1 DIV PUSH20 0xFFFFFFFFFFFFFFFFFFFFFFFFFFFFFFFFFFFFFFFF AND PUSH20 0xFFFFFFFFFFFFFFFFFFFFFFFFFFFFFFFFFFFFFFFF AND CALLER PUSH20 0xFFFFFFFFFFFFFFFFFFFFFFFFFFFFFFFFFFFFFFFF AND EQ DUP1 PUSH2 0x1CD5 JUMPI POP PUSH2 0x1CA6 PUSH2 0xE7E JUMP JUMPDEST PUSH20 0xFFFFFFFFFFFFFFFFFFFFFFFFFFFFFFFFFFFFFFFF AND CALLER PUSH20 0xFFFFFFFFFFFFFFFFFFFFFFFFFFFFFFFFFFFFFFFF AND EQ JUMPDEST PUSH2 0x1D14 JUMPI PUSH1 0x40 MLOAD PUSH32 0x8C379A000000000000000000000000000000000000000000000000000000000 DUP2 MSTORE PUSH1 0x4 ADD PUSH2 0x1D0B SWAP1 PUSH2 0x31AC JUMP JUMPDEST PUSH1 0x40 MLOAD DUP1 SWAP2 SUB SWAP1 REVERT JUMPDEST PUSH1 0x0 DUP3 GT PUSH2 0x1D57 JUMPI PUSH1 0x40 MLOAD PUSH32 0x8C379A000000000000000000000000000000000000000000000000000000000 DUP2 MSTORE PUSH1 0x4 ADD PUSH2 0x1D4E SWAP1 PUSH2 0x393B JUMP JUMPDEST PUSH1 0x40 MLOAD DUP1 SWAP2 SUB SWAP1 REVERT JUMPDEST DUP2 PUSH2 0x1D60 PUSH2 0x1274 JUMP JUMPDEST LT ISZERO PUSH32 0x0 PUSH20 0xFFFFFFFFFFFFFFFFFFFFFFFFFFFFFFFFFFFFFFFF AND PUSH4 0x95D89B41 PUSH1 0x40 MLOAD DUP2 PUSH4 0xFFFFFFFF AND PUSH1 0xE0 SHL DUP2 MSTORE PUSH1 0x4 ADD PUSH1 0x0 PUSH1 0x40 MLOAD DUP1 DUP4 SUB DUP2 DUP7 GAS STATICCALL ISZERO DUP1 ISZERO PUSH2 0x1DCD JUMPI RETURNDATASIZE PUSH1 0x0 DUP1 RETURNDATACOPY RETURNDATASIZE PUSH1 0x0 REVERT JUMPDEST POP POP POP POP PUSH1 0x40 MLOAD RETURNDATASIZE PUSH1 0x0 DUP3 RETURNDATACOPY RETURNDATASIZE PUSH1 0x1F NOT PUSH1 0x1F DUP3 ADD AND DUP3 ADD DUP1 PUSH1 0x40 MSTORE POP DUP2 ADD SWAP1 PUSH2 0x1DF6 SWAP2 SWAP1 PUSH2 0x37A8 JUMP JUMPDEST PUSH1 0x40 MLOAD PUSH1 0x20 ADD PUSH2 0x1E06 SWAP2 SWAP1 PUSH2 0x3A09 JUMP JUMPDEST PUSH1 0x40 MLOAD PUSH1 0x20 DUP2 DUP4 SUB SUB DUP2 MSTORE SWAP1 PUSH1 0x40 MSTORE SWAP1 PUSH2 0x1E56 JUMPI PUSH1 0x40 MLOAD PUSH32 0x8C379A000000000000000000000000000000000000000000000000000000000 DUP2 MSTORE PUSH1 0x4 ADD PUSH2 0x1E4D SWAP2 SWAP1 PUSH2 0x2BC1 JUMP JUMPDEST PUSH1 0x40 MLOAD DUP1 SWAP2 SUB SWAP1 REVERT JUMPDEST POP PUSH1 0x0 DUP1 PUSH1 0x0 DUP1 PUSH2 0x1E65 PUSH2 0x2383 JUMP JUMPDEST SWAP4 POP SWAP4 POP SWAP4 POP SWAP4 POP PUSH1 0x0 DUP5 GT DUP1 ISZERO PUSH2 0x1E7D JUMPI POP PUSH1 0x0 DUP4 GT JUMPDEST DUP1 ISZERO PUSH2 0x1E89 JUMPI POP PUSH1 0x0 DUP2 GT JUMPDEST PUSH2 0x1EC8 JUMPI PUSH1 0x40 MLOAD PUSH32 0x8C379A000000000000000000000000000000000000000000000000000000000 DUP2 MSTORE PUSH1 0x4 ADD PUSH2 0x1EBF SWAP1 PUSH2 0x3A99 JUMP JUMPDEST PUSH1 0x40 MLOAD DUP1 SWAP2 SUB SWAP1 REVERT JUMPDEST PUSH1 0x0 PUSH2 0x1ED5 DUP8 DUP7 DUP7 PUSH2 0x26AF JUMP JUMPDEST SWAP1 POP DUP1 PUSH1 0x5 PUSH1 0x0 DUP3 DUP3 SLOAD PUSH2 0x1EE9 SWAP2 SWAP1 PUSH2 0x3AB9 JUMP JUMPDEST SWAP3 POP POP DUP2 SWAP1 SSTORE POP DUP1 PUSH1 0x4 PUSH1 0x0 DUP3 DUP3 SLOAD PUSH2 0x1F02 SWAP2 SWAP1 PUSH2 0x3AB9 JUMP JUMPDEST SWAP3 POP POP DUP2 SWAP1 SSTORE POP DUP7 PUSH1 0x3 PUSH1 0x0 DUP3 DUP3 SLOAD PUSH2 0x1F1B SWAP2 SWAP1 PUSH2 0x3AB9 JUMP JUMPDEST SWAP3 POP POP DUP2 SWAP1 SSTORE POP PUSH1 0x0 TIMESTAMP SWAP1 POP DUP1 PUSH32 0xB5AEB7B225999ADC33232BE2121AFB1A366C15108C1DA745D17FD76108172FE4 DUP8 DUP8 DUP7 DUP9 DUP8 DUP15 PUSH1 0x40 MLOAD PUSH2 0x1F61 SWAP7 SWAP6 SWAP5 SWAP4 SWAP3 SWAP2 SWAP1 PUSH2 0x3AED JUMP JUMPDEST PUSH1 0x40 MLOAD DUP1 SWAP2 SUB SWAP1 LOG2 PUSH2 0x1FB6 CALLER ADDRESS DUP11 PUSH32 0x0 PUSH20 0xFFFFFFFFFFFFFFFFFFFFFFFFFFFFFFFFFFFFFFFF AND PUSH2 0x26EA SWAP1 SWAP4 SWAP3 SWAP2 SWAP1 PUSH4 0xFFFFFFFF AND JUMP JUMPDEST PUSH2 0x1FBF DUP9 PUSH2 0x2773 JUMP JUMPDEST POP PUSH1 0x1 SWAP7 POP POP POP POP POP POP POP SWAP2 SWAP1 POP JUMP JUMPDEST PUSH2 0x1FD7 PUSH2 0x209B JUMP JUMPDEST PUSH1 0x0 PUSH20 0xFFFFFFFFFFFFFFFFFFFFFFFFFFFFFFFFFFFFFFFF AND DUP2 PUSH20 0xFFFFFFFFFFFFFFFFFFFFFFFFFFFFFFFFFFFFFFFF AND SUB PUSH2 0x2046 JUMPI PUSH1 0x40 MLOAD PUSH32 0x8C379A000000000000000000000000000000000000000000000000000000000 DUP2 MSTORE PUSH1 0x4 ADD PUSH2 0x203D SWAP1 PUSH2 0x3BC7 JUMP JUMPDEST PUSH1 0x40 MLOAD DUP1 SWAP2 SUB SWAP1 REVERT JUMPDEST PUSH2 0x204F DUP2 PUSH2 0x2227 JUMP JUMPDEST POP JUMP JUMPDEST PUSH2 0x205A PUSH2 0xCD7 JUMP JUMPDEST PUSH2 0x2099 JUMPI PUSH1 0x40 MLOAD PUSH32 0x8C379A000000000000000000000000000000000000000000000000000000000 DUP2 MSTORE PUSH1 0x4 ADD PUSH2 0x2090 SWAP1 PUSH2 0x3C33 JUMP JUMPDEST PUSH1 0x40 MLOAD DUP1 SWAP2 SUB SWAP1 REVERT JUMPDEST JUMP JUMPDEST PUSH2 0x20A3 PUSH2 0x28AC JUMP JUMPDEST PUSH20 0xFFFFFFFFFFFFFFFFFFFFFFFFFFFFFFFFFFFFFFFF AND PUSH2 0x20C1 PUSH2 0xE7E JUMP JUMPDEST PUSH20 0xFFFFFFFFFFFFFFFFFFFFFFFFFFFFFFFFFFFFFFFF AND EQ PUSH2 0x2117 JUMPI PUSH1 0x40 MLOAD PUSH32 0x8C379A000000000000000000000000000000000000000000000000000000000 DUP2 MSTORE PUSH1 0x4 ADD PUSH2 0x210E SWAP1 PUSH2 0x3C9F JUMP JUMPDEST PUSH1 0x40 MLOAD DUP1 SWAP2 SUB SWAP1 REVERT JUMPDEST JUMP JUMPDEST PUSH2 0x2121 PUSH2 0x2052 JUMP JUMPDEST PUSH1 0x0 DUP1 PUSH1 0x0 PUSH2 0x100 EXP DUP2 SLOAD DUP2 PUSH1 0xFF MUL NOT AND SWAP1 DUP4 ISZERO ISZERO MUL OR SWAP1 SSTORE POP PUSH32 0x5DB9EE0A495BF2E6FF9C91A7834C1BA4FDD244A5E8AA4E537BD38AEAE4B073AA PUSH2 0x2164 PUSH2 0x28AC JUMP JUMPDEST PUSH1 0x40 MLOAD PUSH2 0x2171 SWAP2 SWAP1 PUSH2 0x2C24 JUMP JUMPDEST PUSH1 0x40 MLOAD DUP1 SWAP2 SUB SWAP1 LOG1 JUMP JUMPDEST PUSH2 0x2183 PUSH2 0xCD7 JUMP JUMPDEST ISZERO PUSH2 0x21C3 JUMPI PUSH1 0x40 MLOAD PUSH32 0x8C379A000000000000000000000000000000000000000000000000000000000 DUP2 MSTORE PUSH1 0x4 ADD PUSH2 0x21BA SWAP1 PUSH2 0x3D0B JUMP JUMPDEST PUSH1 0x40 MLOAD DUP1 SWAP2 SUB SWAP1 REVERT JUMPDEST JUMP JUMPDEST PUSH2 0x21CD PUSH2 0x217B JUMP JUMPDEST PUSH1 0x1 PUSH1 0x0 DUP1 PUSH2 0x100 EXP DUP2 SLOAD DUP2 PUSH1 0xFF MUL NOT AND SWAP1 DUP4 ISZERO ISZERO MUL OR SWAP1 SSTORE POP PUSH32 0x62E78CEA01BEE320CD4E420270B5EA74000D11B0C9F74754EBDBFC544B05A258 PUSH2 0x2210 PUSH2 0x28AC JUMP JUMPDEST PUSH1 0x40 MLOAD PUSH2 0x221D SWAP2 SWAP1 PUSH2 0x2C24 JUMP JUMPDEST PUSH1 0x40 MLOAD DUP1 SWAP2 SUB SWAP1 LOG1 JUMP JUMPDEST PUSH1 0x0 DUP1 PUSH1 0x1 SWAP1 SLOAD SWAP1 PUSH2 0x100 EXP SWAP1 DIV PUSH20 0xFFFFFFFFFFFFFFFFFFFFFFFFFFFFFFFFFFFFFFFF AND SWAP1 POP DUP2 PUSH1 0x0 PUSH1 0x1 PUSH2 0x100 EXP DUP2 SLOAD DUP2 PUSH20 0xFFFFFFFFFFFFFFFFFFFFFFFFFFFFFFFFFFFFFFFF MUL NOT AND SWAP1 DUP4 PUSH20 0xFFFFFFFFFFFFFFFFFFFFFFFFFFFFFFFFFFFFFFFF AND MUL OR SWAP1 SSTORE POP DUP2 PUSH20 0xFFFFFFFFFFFFFFFFFFFFFFFFFFFFFFFFFFFFFFFF AND DUP2 PUSH20 0xFFFFFFFFFFFFFFFFFFFFFFFFFFFFFFFFFFFFFFFF AND PUSH32 0x8BE0079C531659141344CD1FD0A4F28419497F9722A3DAAFE3B4186F6B6457E0 PUSH1 0x40 MLOAD PUSH1 0x40 MLOAD DUP1 SWAP2 SUB SWAP1 LOG3 POP POP JUMP JUMPDEST PUSH1 0x60 DUP1 PUSH1 0x2 PUSH1 0x15 SWAP1 SLOAD SWAP1 PUSH2 0x100 EXP SWAP1 DIV PUSH1 0xFF AND PUSH2 0x2341 JUMPI PUSH1 0x40 MLOAD DUP1 PUSH1 0x40 ADD PUSH1 0x40 MSTORE DUP1 PUSH1 0xC DUP2 MSTORE PUSH1 0x20 ADD PUSH32 0x41676772656761746F7256330000000000000000000000000000000000000000 DUP2 MSTORE POP SWAP1 POP DUP1 PUSH2 0x237B JUMP JUMPDEST PUSH1 0x40 MLOAD DUP1 PUSH1 0x40 ADD PUSH1 0x40 MSTORE DUP1 PUSH1 0x4 DUP2 MSTORE PUSH1 0x20 ADD PUSH32 0x506F6F6C00000000000000000000000000000000000000000000000000000000 DUP2 MSTORE POP SWAP1 POP DUP1 JUMPDEST POP DUP1 SWAP2 POP POP SWAP1 JUMP JUMPDEST PUSH1 0x0 DUP1 PUSH1 0x60 PUSH1 0x0 PUSH1 0x2 PUSH1 0x15 SWAP1 SLOAD SWAP1 PUSH2 0x100 EXP SWAP1 DIV PUSH1 0xFF AND ISZERO PUSH2 0x244E JUMPI PUSH1 0x2 PUSH1 0x15 SWAP1 SLOAD SWAP1 PUSH2 0x100 EXP SWAP1 DIV PUSH1 0xFF AND DUP1 ISZERO PUSH2 0x240A JUMPI POP PUSH1 0x0 PUSH20 0xFFFFFFFFFFFFFFFFFFFFFFFFFFFFFFFFFFFFFFFF AND PUSH1 0x8 PUSH1 0x0 SWAP1 SLOAD SWAP1 PUSH2 0x100 EXP SWAP1 DIV PUSH20 0xFFFFFFFFFFFFFFFFFFFFFFFFFFFFFFFFFFFFFFFF AND PUSH20 0xFFFFFFFFFFFFFFFFFFFFFFFFFFFFFFFFFFFFFFFF AND EQ ISZERO JUMPDEST PUSH2 0x2449 JUMPI PUSH1 0x40 MLOAD PUSH32 0x8C379A000000000000000000000000000000000000000000000000000000000 DUP2 MSTORE PUSH1 0x4 ADD PUSH2 0x2440 SWAP1 PUSH2 0x38CF JUMP JUMPDEST PUSH1 0x40 MLOAD DUP1 SWAP2 SUB SWAP1 REVERT JUMPDEST PUSH2 0x24FA JUMP JUMPDEST PUSH1 0x2 PUSH1 0x15 SWAP1 SLOAD SWAP1 PUSH2 0x100 EXP SWAP1 DIV PUSH1 0xFF AND ISZERO DUP1 ISZERO PUSH2 0x24BA JUMPI POP PUSH1 0x0 PUSH20 0xFFFFFFFFFFFFFFFFFFFFFFFFFFFFFFFFFFFFFFFF AND PUSH1 0x7 PUSH1 0x0 SWAP1 SLOAD SWAP1 PUSH2 0x100 EXP SWAP1 DIV PUSH20 0xFFFFFFFFFFFFFFFFFFFFFFFFFFFFFFFFFFFFFFFF AND PUSH20 0xFFFFFFFFFFFFFFFFFFFFFFFFFFFFFFFFFFFFFFFF AND EQ ISZERO JUMPDEST PUSH2 0x24F9 JUMPI PUSH1 0x40 MLOAD PUSH32 0x8C379A000000000000000000000000000000000000000000000000000000000 DUP2 MSTORE PUSH1 0x4 ADD PUSH2 0x24F0 SWAP1 PUSH2 0x3863 JUMP JUMPDEST PUSH1 0x40 MLOAD DUP1 SWAP2 SUB SWAP1 REVERT JUMPDEST JUMPDEST PUSH1 0x0 DUP1 PUSH1 0x0 DUP1 PUSH1 0x2 PUSH1 0x15 SWAP1 SLOAD SWAP1 PUSH2 0x100 EXP SWAP1 DIV PUSH1 0xFF AND ISZERO PUSH2 0x25B2 JUMPI PUSH1 0x8 PUSH1 0x0 SWAP1 SLOAD SWAP1 PUSH2 0x100 EXP SWAP1 DIV PUSH20 0xFFFFFFFFFFFFFFFFFFFFFFFFFFFFFFFFFFFFFFFF AND PUSH20 0xFFFFFFFFFFFFFFFFFFFFFFFFFFFFFFFFFFFFFFFF AND PUSH4 0x85096EDC PUSH1 0x40 MLOAD DUP2 PUSH4 0xFFFFFFFF AND PUSH1 0xE0 SHL DUP2 MSTORE PUSH1 0x4 ADD PUSH1 0x0 PUSH1 0x40 MLOAD DUP1 DUP4 SUB DUP2 PUSH1 0x0 DUP8 GAS CALL ISZERO DUP1 ISZERO PUSH2 0x2584 JUMPI RETURNDATASIZE PUSH1 0x0 DUP1 RETURNDATACOPY RETURNDATASIZE PUSH1 0x0 REVERT JUMPDEST POP POP POP POP PUSH1 0x40 MLOAD RETURNDATASIZE PUSH1 0x0 DUP3 RETURNDATACOPY RETURNDATASIZE PUSH1 0x1F NOT PUSH1 0x1F DUP3 ADD AND DUP3 ADD DUP1 PUSH1 0x40 MSTORE POP DUP2 ADD SWAP1 PUSH2 0x25AD SWAP2 SWAP1 PUSH2 0x3D2B JUMP JUMPDEST PUSH2 0x264B JUMP JUMPDEST PUSH1 0x7 PUSH1 0x0 SWAP1 SLOAD SWAP1 PUSH2 0x100 EXP SWAP1 DIV PUSH20 0xFFFFFFFFFFFFFFFFFFFFFFFFFFFFFFFFFFFFFFFF AND PUSH20 0xFFFFFFFFFFFFFFFFFFFFFFFFFFFFFFFFFFFFFFFF AND PUSH4 0xE1E7FF77 PUSH1 0x40 MLOAD DUP2 PUSH4 0xFFFFFFFF AND PUSH1 0xE0 SHL DUP2 MSTORE PUSH1 0x4 ADD PUSH1 0x0 PUSH1 0x40 MLOAD DUP1 DUP4 SUB DUP2 PUSH1 0x0 DUP8 GAS CALL ISZERO DUP1 ISZERO PUSH2 0x2621 JUMPI RETURNDATASIZE PUSH1 0x0 DUP1 RETURNDATACOPY RETURNDATASIZE PUSH1 0x0 REVERT JUMPDEST POP POP POP POP PUSH1 0x40 MLOAD RETURNDATASIZE PUSH1 0x0 DUP3 RETURNDATACOPY RETURNDATASIZE PUSH1 0x1F NOT PUSH1 0x1F DUP3 ADD AND DUP3 ADD DUP1 PUSH1 0x40 MSTORE POP DUP2 ADD SWAP1 PUSH2 0x264A SWAP2 SWAP1 PUSH2 0x3D2B JUMP JUMPDEST JUMPDEST SWAP4 POP SWAP4 POP SWAP4 POP SWAP4 POP PUSH32 0xF533C7EBCAB9CA95557310F62AA7AD41D3A6B17AEBEC7762B994EF1A14863865 DUP5 DUP5 DUP5 DUP5 PUSH2 0x2680 PUSH2 0x22EC JUMP JUMPDEST PUSH1 0x40 MLOAD PUSH2 0x2691 SWAP6 SWAP5 SWAP4 SWAP3 SWAP2 SWAP1 PUSH2 0x3DAE JUMP JUMPDEST PUSH1 0x40 MLOAD DUP1 SWAP2 SUB SWAP1 LOG1 DUP4 DUP4 DUP4 DUP4 SWAP8 POP SWAP8 POP SWAP8 POP SWAP8 POP POP POP POP POP SWAP1 SWAP2 SWAP3 SWAP4 JUMP JUMPDEST PUSH1 0x0 DUP2 PUSH1 0xA PUSH2 0x26BE SWAP2 SWAP1 PUSH2 0x3F42 JUMP JUMPDEST PUSH1 0x6 SLOAD DUP5 DUP7 PUSH2 0x26CD SWAP2 SWAP1 PUSH2 0x3F8D JUMP JUMPDEST PUSH2 0x26D7 SWAP2 SWAP1 PUSH2 0x3FFE JUMP JUMPDEST PUSH2 0x26E1 SWAP2 SWAP1 PUSH2 0x3FFE JUMP JUMPDEST SWAP1 POP SWAP4 SWAP3 POP POP POP JUMP JUMPDEST PUSH2 0x276D DUP5 PUSH4 0x23B872DD PUSH1 0xE0 SHL DUP6 DUP6 DUP6 PUSH1 0x40 MLOAD PUSH1 0x24 ADD PUSH2 0x270B SWAP4 SWAP3 SWAP2 SWAP1 PUSH2 0x402F JUMP JUMPDEST PUSH1 0x40 MLOAD PUSH1 0x20 DUP2 DUP4 SUB SUB DUP2 MSTORE SWAP1 PUSH1 0x40 MSTORE SWAP1 PUSH28 0xFFFFFFFFFFFFFFFFFFFFFFFFFFFFFFFFFFFFFFFFFFFFFFFFFFFFFFFF NOT AND PUSH1 0x20 DUP3 ADD DUP1 MLOAD PUSH28 0xFFFFFFFFFFFFFFFFFFFFFFFFFFFFFFFFFFFFFFFFFFFFFFFFFFFFFFFF DUP4 DUP2 DUP4 AND OR DUP4 MSTORE POP POP POP POP PUSH2 0x28B4 JUMP JUMPDEST POP POP POP POP JUMP JUMPDEST PUSH1 0x0 DUP1 DUP3 GT PUSH2 0x27B7 JUMPI PUSH1 0x40 MLOAD PUSH32 0x8C379A000000000000000000000000000000000000000000000000000000000 DUP2 MSTORE PUSH1 0x4 ADD PUSH2 0x27AE SWAP1 PUSH2 0x40B2 JUMP JUMPDEST PUSH1 0x40 MLOAD DUP1 SWAP2 SUB SWAP1 REVERT JUMPDEST PUSH1 0x0 PUSH2 0x27C1 PUSH2 0xDDD JUMP JUMPDEST SWAP1 POP PUSH32 0x0 PUSH20 0xFFFFFFFFFFFFFFFFFFFFFFFFFFFFFFFFFFFFFFFF AND PUSH4 0x42966C68 DUP5 PUSH1 0x40 MLOAD DUP3 PUSH4 0xFFFFFFFF AND PUSH1 0xE0 SHL DUP2 MSTORE PUSH1 0x4 ADD PUSH2 0x281C SWAP2 SWAP1 PUSH2 0x2CFB JUMP JUMPDEST PUSH1 0x0 PUSH1 0x40 MLOAD DUP1 DUP4 SUB DUP2 PUSH1 0x0 DUP8 DUP1 EXTCODESIZE ISZERO DUP1 ISZERO PUSH2 0x2836 JUMPI PUSH1 0x0 DUP1 REVERT JUMPDEST POP GAS CALL ISZERO DUP1 ISZERO PUSH2 0x284A JUMPI RETURNDATASIZE PUSH1 0x0 DUP1 RETURNDATACOPY RETURNDATASIZE PUSH1 0x0 REVERT JUMPDEST POP POP POP POP DUP3 DUP2 PUSH2 0x285A SWAP2 SWAP1 PUSH2 0x3625 JUMP JUMPDEST PUSH2 0x2862 PUSH2 0xDDD JUMP JUMPDEST EQ PUSH2 0x28A2 JUMPI PUSH1 0x40 MLOAD PUSH32 0x8C379A000000000000000000000000000000000000000000000000000000000 DUP2 MSTORE PUSH1 0x4 ADD PUSH2 0x2899 SWAP1 PUSH2 0x4144 JUMP JUMPDEST PUSH1 0x40 MLOAD DUP1 SWAP2 SUB SWAP1 REVERT JUMPDEST PUSH1 0x1 SWAP2 POP POP SWAP2 SWAP1 POP JUMP JUMPDEST PUSH1 0x0 CALLER SWAP1 POP SWAP1 JUMP JUMPDEST PUSH1 0x0 PUSH2 0x2916 DUP3 PUSH1 0x40 MLOAD DUP1 PUSH1 0x40 ADD PUSH1 0x40 MSTORE DUP1 PUSH1 0x20 DUP2 MSTORE PUSH1 0x20 ADD PUSH32 0x5361666545524332303A206C6F772D6C6576656C2063616C6C206661696C6564 DUP2 MSTORE POP DUP6 PUSH20 0xFFFFFFFFFFFFFFFFFFFFFFFFFFFFFFFFFFFFFFFF AND PUSH2 0x297B SWAP1 SWAP3 SWAP2 SWAP1 PUSH4 0xFFFFFFFF AND JUMP JUMPDEST SWAP1 POP PUSH1 0x0 DUP2 MLOAD GT ISZERO PUSH2 0x2976 JUMPI DUP1 DUP1 PUSH1 0x20 ADD SWAP1 MLOAD DUP2 ADD SWAP1 PUSH2 0x2936 SWAP2 SWAP1 PUSH2 0x328D JUMP JUMPDEST PUSH2 0x2975 JUMPI PUSH1 0x40 MLOAD PUSH32 0x8C379A000000000000000000000000000000000000000000000000000000000 DUP2 MSTORE PUSH1 0x4 ADD PUSH2 0x296C SWAP1 PUSH2 0x41D6 JUMP JUMPDEST PUSH1 0x40 MLOAD DUP1 SWAP2 SUB SWAP1 REVERT JUMPDEST JUMPDEST POP POP POP JUMP JUMPDEST PUSH1 0x60 PUSH2 0x298A DUP5 DUP5 PUSH1 0x0 DUP6 PUSH2 0x2993 JUMP JUMPDEST SWAP1 POP SWAP4 SWAP3 POP POP POP JUMP JUMPDEST PUSH1 0x60 DUP3 SELFBALANCE LT ISZERO PUSH2 0x29D8 JUMPI PUSH1 0x40 MLOAD PUSH32 0x8C379A000000000000000000000000000000000000000000000000000000000 DUP2 MSTORE PUSH1 0x4 ADD PUSH2 0x29CF SWAP1 PUSH2 0x4268 JUMP JUMPDEST PUSH1 0x40 MLOAD DUP1 SWAP2 SUB SWAP1 REVERT JUMPDEST PUSH2 0x29E1 DUP6 PUSH2 0x2AA7 JUMP JUMPDEST PUSH2 0x2A20 JUMPI PUSH1 0x40 MLOAD PUSH32 0x8C379A000000000000000000000000000000000000000000000000000000000 DUP2 MSTORE PUSH1 0x4 ADD PUSH2 0x2A17 SWAP1 PUSH2 0x42D4 JUMP JUMPDEST PUSH1 0x40 MLOAD DUP1 SWAP2 SUB SWAP1 REVERT JUMPDEST PUSH1 0x0 DUP1 DUP7 PUSH20 0xFFFFFFFFFFFFFFFFFFFFFFFFFFFFFFFFFFFFFFFF AND DUP6 DUP8 PUSH1 0x40 MLOAD PUSH2 0x2A49 SWAP2 SWAP1 PUSH2 0x433B JUMP JUMPDEST PUSH1 0x0 PUSH1 0x40 MLOAD DUP1 DUP4 SUB DUP2 DUP6 DUP8 GAS CALL SWAP3 POP POP POP RETURNDATASIZE DUP1 PUSH1 0x0 DUP2 EQ PUSH2 0x2A86 JUMPI PUSH1 0x40 MLOAD SWAP2 POP PUSH1 0x1F NOT PUSH1 0x3F RETURNDATASIZE ADD AND DUP3 ADD PUSH1 0x40 MSTORE RETURNDATASIZE DUP3 MSTORE RETURNDATASIZE PUSH1 0x0 PUSH1 0x20 DUP5 ADD RETURNDATACOPY PUSH2 0x2A8B JUMP JUMPDEST PUSH1 0x60 SWAP2 POP JUMPDEST POP SWAP2 POP SWAP2 POP PUSH2 0x2A9B DUP3 DUP3 DUP7 PUSH2 0x2ACA JUMP JUMPDEST SWAP3 POP POP POP SWAP5 SWAP4 POP POP POP POP JUMP JUMPDEST PUSH1 0x0 DUP1 DUP3 PUSH20 0xFFFFFFFFFFFFFFFFFFFFFFFFFFFFFFFFFFFFFFFF AND EXTCODESIZE GT SWAP1 POP SWAP2 SWAP1 POP JUMP JUMPDEST PUSH1 0x60 DUP4 ISZERO PUSH2 0x2ADA JUMPI DUP3 SWAP1 POP PUSH2 0x2B2A JUMP JUMPDEST PUSH1 0x0 DUP4 MLOAD GT ISZERO PUSH2 0x2AED JUMPI DUP3 MLOAD DUP1 DUP5 PUSH1 0x20 ADD REVERT JUMPDEST DUP2 PUSH1 0x40 MLOAD PUSH32 0x8C379A000000000000000000000000000000000000000000000000000000000 DUP2 MSTORE PUSH1 0x4 ADD PUSH2 0x2B21 SWAP2 SWAP1 PUSH2 0x2BC1 JUMP JUMPDEST PUSH1 0x40 MLOAD DUP1 SWAP2 SUB SWAP1 REVERT JUMPDEST SWAP4 SWAP3 POP POP POP JUMP JUMPDEST PUSH1 0x0 DUP2 MLOAD SWAP1 POP SWAP2 SWAP1 POP JUMP JUMPDEST PUSH1 0x0 DUP3 DUP3 MSTORE PUSH1 0x20 DUP3 ADD SWAP1 POP SWAP3 SWAP2 POP POP JUMP JUMPDEST PUSH1 0x0 JUMPDEST DUP4 DUP2 LT ISZERO PUSH2 0x2B6B JUMPI DUP1 DUP3 ADD MLOAD DUP2 DUP5 ADD MSTORE PUSH1 0x20 DUP2 ADD SWAP1 POP PUSH2 0x2B50 JUMP JUMPDEST PUSH1 0x0 DUP5 DUP5 ADD MSTORE POP POP POP POP JUMP JUMPDEST PUSH1 0x0 PUSH1 0x1F NOT PUSH1 0x1F DUP4 ADD AND SWAP1 POP SWAP2 SWAP1 POP JUMP JUMPDEST PUSH1 0x0 PUSH2 0x2B93 DUP3 PUSH2 0x2B31 JUMP JUMPDEST PUSH2 0x2B9D DUP2 DUP6 PUSH2 0x2B3C JUMP JUMPDEST SWAP4 POP PUSH2 0x2BAD DUP2 DUP6 PUSH1 0x20 DUP7 ADD PUSH2 0x2B4D JUMP JUMPDEST PUSH2 0x2BB6 DUP2 PUSH2 0x2B77 JUMP JUMPDEST DUP5 ADD SWAP2 POP POP SWAP3 SWAP2 POP POP JUMP JUMPDEST PUSH1 0x0 PUSH1 0x20 DUP3 ADD SWAP1 POP DUP2 DUP2 SUB PUSH1 0x0 DUP4 ADD MSTORE PUSH2 0x2BDB DUP2 DUP5 PUSH2 0x2B88 JUMP JUMPDEST SWAP1 POP SWAP3 SWAP2 POP POP JUMP JUMPDEST PUSH1 0x0 PUSH20 0xFFFFFFFFFFFFFFFFFFFFFFFFFFFFFFFFFFFFFFFF DUP3 AND SWAP1 POP SWAP2 SWAP1 POP JUMP JUMPDEST PUSH1 0x0 PUSH2 0x2C0E DUP3 PUSH2 0x2BE3 JUMP JUMPDEST SWAP1 POP SWAP2 SWAP1 POP JUMP JUMPDEST PUSH2 0x2C1E DUP2 PUSH2 0x2C03 JUMP JUMPDEST DUP3 MSTORE POP POP JUMP JUMPDEST PUSH1 0x0 PUSH1 0x20 DUP3 ADD SWAP1 POP PUSH2 0x2C39 PUSH1 0x0 DUP4 ADD DUP5 PUSH2 0x2C15 JUMP JUMPDEST SWAP3 SWAP2 POP POP JUMP JUMPDEST PUSH1 0x0 PUSH1 0x40 MLOAD SWAP1 POP SWAP1 JUMP JUMPDEST PUSH1 0x0 DUP1 REVERT JUMPDEST PUSH1 0x0 DUP1 REVERT JUMPDEST PUSH2 0x2C5C DUP2 PUSH2 0x2C03 JUMP JUMPDEST DUP2 EQ PUSH2 0x2C67 JUMPI PUSH1 0x0 DUP1 REVERT JUMPDEST POP JUMP JUMPDEST PUSH1 0x0 DUP2 CALLDATALOAD SWAP1 POP PUSH2 0x2C79 DUP2 PUSH2 0x2C53 JUMP JUMPDEST SWAP3 SWAP2 POP POP JUMP JUMPDEST PUSH1 0x0 PUSH1 0x20 DUP3 DUP5 SUB SLT ISZERO PUSH2 0x2C95 JUMPI PUSH2 0x2C94 PUSH2 0x2C49 JUMP JUMPDEST JUMPDEST PUSH1 0x0 PUSH2 0x2CA3 DUP5 DUP3 DUP6 ADD PUSH2 0x2C6A JUMP JUMPDEST SWAP2 POP POP SWAP3 SWAP2 POP POP JUMP JUMPDEST PUSH1 0x0 DUP2 ISZERO ISZERO SWAP1 POP SWAP2 SWAP1 POP JUMP JUMPDEST PUSH2 0x2CC1 DUP2 PUSH2 0x2CAC JUMP JUMPDEST DUP3 MSTORE POP POP JUMP JUMPDEST PUSH1 0x0 PUSH1 0x20 DUP3 ADD SWAP1 POP PUSH2 0x2CDC PUSH1 0x0 DUP4 ADD DUP5 PUSH2 0x2CB8 JUMP JUMPDEST SWAP3 SWAP2 POP POP JUMP JUMPDEST PUSH1 0x0 DUP2 SWAP1 POP SWAP2 SWAP1 POP JUMP JUMPDEST PUSH2 0x2CF5 DUP2 PUSH2 0x2CE2 JUMP JUMPDEST DUP3 MSTORE POP POP JUMP JUMPDEST PUSH1 0x0 PUSH1 0x20 DUP3 ADD SWAP1 POP PUSH2 0x2D10 PUSH1 0x0 DUP4 ADD DUP5 PUSH2 0x2CEC JUMP JUMPDEST SWAP3 SWAP2 POP POP JUMP JUMPDEST PUSH2 0x2D1F DUP2 PUSH2 0x2CE2 JUMP JUMPDEST DUP2 EQ PUSH2 0x2D2A JUMPI PUSH1 0x0 DUP1 REVERT JUMPDEST POP JUMP JUMPDEST PUSH1 0x0 DUP2 CALLDATALOAD SWAP1 POP PUSH2 0x2D3C DUP2 PUSH2 0x2D16 JUMP JUMPDEST SWAP3 SWAP2 POP POP JUMP JUMPDEST PUSH1 0x0 DUP1 PUSH1 0x0 PUSH1 0x60 DUP5 DUP7 SUB SLT ISZERO PUSH2 0x2D5B JUMPI PUSH2 0x2D5A PUSH2 0x2C49 JUMP JUMPDEST JUMPDEST PUSH1 0x0 PUSH2 0x2D69 DUP7 DUP3 DUP8 ADD PUSH2 0x2C6A JUMP JUMPDEST SWAP4 POP POP PUSH1 0x20 PUSH2 0x2D7A DUP7 DUP3 DUP8 ADD PUSH2 0x2C6A JUMP JUMPDEST SWAP3 POP POP PUSH1 0x40 PUSH2 0x2D8B DUP7 DUP3 DUP8 ADD PUSH2 0x2D2D JUMP JUMPDEST SWAP2 POP POP SWAP3 POP SWAP3 POP SWAP3 JUMP JUMPDEST PUSH1 0x0 PUSH1 0x20 DUP3 DUP5 SUB SLT ISZERO PUSH2 0x2DAB JUMPI PUSH2 0x2DAA PUSH2 0x2C49 JUMP JUMPDEST JUMPDEST PUSH1 0x0 PUSH2 0x2DB9 DUP5 DUP3 DUP6 ADD PUSH2 0x2D2D JUMP JUMPDEST SWAP2 POP POP SWAP3 SWAP2 POP POP JUMP JUMPDEST PUSH1 0x0 DUP2 SWAP1 POP SWAP2 SWAP1 POP JUMP JUMPDEST PUSH2 0x2DD5 DUP2 PUSH2 0x2DC2 JUMP JUMPDEST DUP2 EQ PUSH2 0x2DE0 JUMPI PUSH1 0x0 DUP1 REVERT JUMPDEST POP JUMP JUMPDEST PUSH1 0x0 DUP2 CALLDATALOAD SWAP1 POP PUSH2 0x2DF2 DUP2 PUSH2 0x2DCC JUMP JUMPDEST SWAP3 SWAP2 POP POP JUMP JUMPDEST PUSH1 0x0 DUP1 PUSH1 0x40 DUP4 DUP6 SUB SLT ISZERO PUSH2 0x2E0F JUMPI PUSH2 0x2E0E PUSH2 0x2C49 JUMP JUMPDEST JUMPDEST PUSH1 0x0 PUSH2 0x2E1D DUP6 DUP3 DUP7 ADD PUSH2 0x2D2D JUMP JUMPDEST SWAP3 POP POP PUSH1 0x20 PUSH2 0x2E2E DUP6 DUP3 DUP7 ADD PUSH2 0x2DE3 JUMP JUMPDEST SWAP2 POP POP SWAP3 POP SWAP3 SWAP1 POP JUMP JUMPDEST PUSH1 0x0 PUSH1 0x40 DUP3 ADD SWAP1 POP PUSH2 0x2E4D PUSH1 0x0 DUP4 ADD DUP6 PUSH2 0x2C15 JUMP JUMPDEST DUP2 DUP2 SUB PUSH1 0x20 DUP4 ADD MSTORE PUSH2 0x2E5F DUP2 DUP5 PUSH2 0x2B88 JUMP JUMPDEST SWAP1 POP SWAP4 SWAP3 POP POP POP JUMP JUMPDEST PUSH1 0x0 PUSH1 0x40 DUP3 ADD SWAP1 POP DUP2 DUP2 SUB PUSH1 0x0 DUP4 ADD MSTORE PUSH2 0x2E82 DUP2 DUP6 PUSH2 0x2B88 JUMP JUMPDEST SWAP1 POP PUSH2 0x2E91 PUSH1 0x20 DUP4 ADD DUP5 PUSH2 0x2C15 JUMP JUMPDEST SWAP4 SWAP3 POP POP POP JUMP JUMPDEST PUSH32 0x4E487B7100000000000000000000000000000000000000000000000000000000 PUSH1 0x0 MSTORE PUSH1 0x22 PUSH1 0x4 MSTORE PUSH1 0x24 PUSH1 0x0 REVERT JUMPDEST PUSH1 0x0 PUSH1 0x2 DUP3 DIV SWAP1 POP PUSH1 0x1 DUP3 AND DUP1 PUSH2 0x2EDF JUMPI PUSH1 0x7F DUP3 AND SWAP2 POP JUMPDEST PUSH1 0x20 DUP3 LT DUP2 SUB PUSH2 0x2EF2 JUMPI PUSH2 0x2EF1 PUSH2 0x2E98 JUMP JUMPDEST JUMPDEST POP SWAP2 SWAP1 POP JUMP JUMPDEST PUSH32 0x4E6F742061637469766174656421000000000000000000000000000000000000 PUSH1 0x0 DUP3 ADD MSTORE POP JUMP JUMPDEST PUSH1 0x0 PUSH2 0x2F2E PUSH1 0xE DUP4 PUSH2 0x2B3C JUMP JUMPDEST SWAP2 POP PUSH2 0x2F39 DUP3 PUSH2 0x2EF8 JUMP JUMPDEST PUSH1 0x20 DUP3 ADD SWAP1 POP SWAP2 SWAP1 POP JUMP JUMPDEST PUSH1 0x0 PUSH1 0x20 DUP3 ADD SWAP1 POP DUP2 DUP2 SUB PUSH1 0x0 DUP4 ADD MSTORE PUSH2 0x2F5D DUP2 PUSH2 0x2F21 JUMP JUMPDEST SWAP1 POP SWAP2 SWAP1 POP JUMP JUMPDEST PUSH32 0x43616E2774206265207A65726F20616464726573732E00000000000000000000 PUSH1 0x0 DUP3 ADD MSTORE POP JUMP JUMPDEST PUSH1 0x0 PUSH2 0x2F9A PUSH1 0x16 DUP4 PUSH2 0x2B3C JUMP JUMPDEST SWAP2 POP PUSH2 0x2FA5 DUP3 PUSH2 0x2F64 JUMP JUMPDEST PUSH1 0x20 DUP3 ADD SWAP1 POP SWAP2 SWAP1 POP JUMP JUMPDEST PUSH1 0x0 PUSH1 0x20 DUP3 ADD SWAP1 POP DUP2 DUP2 SUB PUSH1 0x0 DUP4 ADD MSTORE PUSH2 0x2FC9 DUP2 PUSH2 0x2F8D JUMP JUMPDEST SWAP1 POP SWAP2 SWAP1 POP JUMP JUMPDEST PUSH32 0x4E6F7420417574686F72697A6564210000000000000000000000000000000000 PUSH1 0x0 DUP3 ADD MSTORE POP JUMP JUMPDEST PUSH1 0x0 PUSH2 0x3006 PUSH1 0xF DUP4 PUSH2 0x2B3C JUMP JUMPDEST SWAP2 POP PUSH2 0x3011 DUP3 PUSH2 0x2FD0 JUMP JUMPDEST PUSH1 0x20 DUP3 ADD SWAP1 POP SWAP2 SWAP1 POP JUMP JUMPDEST PUSH1 0x0 PUSH1 0x20 DUP3 ADD SWAP1 POP DUP2 DUP2 SUB PUSH1 0x0 DUP4 ADD MSTORE PUSH2 0x3035 DUP2 PUSH2 0x2FF9 JUMP JUMPDEST SWAP1 POP SWAP2 SWAP1 POP JUMP JUMPDEST PUSH32 0x43616E2774206368616E67652C2061646472657373206973207468652073616D PUSH1 0x0 DUP3 ADD MSTORE PUSH32 0x652E000000000000000000000000000000000000000000000000000000000000 PUSH1 0x20 DUP3 ADD MSTORE POP JUMP JUMPDEST PUSH1 0x0 PUSH2 0x3098 PUSH1 0x22 DUP4 PUSH2 0x2B3C JUMP JUMPDEST SWAP2 POP PUSH2 0x30A3 DUP3 PUSH2 0x303C JUMP JUMPDEST PUSH1 0x40 DUP3 ADD SWAP1 POP SWAP2 SWAP1 POP JUMP JUMPDEST PUSH1 0x0 PUSH1 0x20 DUP3 ADD SWAP1 POP DUP2 DUP2 SUB PUSH1 0x0 DUP4 ADD MSTORE PUSH2 0x30C7 DUP2 PUSH2 0x308B JUMP JUMPDEST SWAP1 POP SWAP2 SWAP1 POP JUMP JUMPDEST PUSH32 0x416C726561647920616374697661746564210000000000000000000000000000 PUSH1 0x0 DUP3 ADD MSTORE POP JUMP JUMPDEST PUSH1 0x0 PUSH2 0x3104 PUSH1 0x12 DUP4 PUSH2 0x2B3C JUMP JUMPDEST SWAP2 POP PUSH2 0x310F DUP3 PUSH2 0x30CE JUMP JUMPDEST PUSH1 0x20 DUP3 ADD SWAP1 POP SWAP2 SWAP1 POP JUMP JUMPDEST PUSH1 0x0 PUSH1 0x20 DUP3 ADD SWAP1 POP DUP2 DUP2 SUB PUSH1 0x0 DUP4 ADD MSTORE PUSH2 0x3133 DUP2 PUSH2 0x30F7 JUMP JUMPDEST SWAP1 POP SWAP2 SWAP1 POP JUMP JUMPDEST PUSH32 0x4F6E6C79204F776E6572206F7220417574686F72697A65642070617274696369 PUSH1 0x0 DUP3 ADD MSTORE PUSH32 0x7061746F722063616E206163636573732074686973206F7065726174696F6E21 PUSH1 0x20 DUP3 ADD MSTORE POP JUMP JUMPDEST PUSH1 0x0 PUSH2 0x3196 PUSH1 0x40 DUP4 PUSH2 0x2B3C JUMP JUMPDEST SWAP2 POP PUSH2 0x31A1 DUP3 PUSH2 0x313A JUMP JUMPDEST PUSH1 0x40 DUP3 ADD SWAP1 POP SWAP2 SWAP1 POP JUMP JUMPDEST PUSH1 0x0 PUSH1 0x20 DUP3 ADD SWAP1 POP DUP2 DUP2 SUB PUSH1 0x0 DUP4 ADD MSTORE PUSH2 0x31C5 DUP2 PUSH2 0x3189 JUMP JUMPDEST SWAP1 POP SWAP2 SWAP1 POP JUMP JUMPDEST PUSH32 0x4E6F7420656E6F7567682062616C616E63652100000000000000000000000000 PUSH1 0x0 DUP3 ADD MSTORE POP JUMP JUMPDEST PUSH1 0x0 PUSH2 0x3202 PUSH1 0x13 DUP4 PUSH2 0x2B3C JUMP JUMPDEST SWAP2 POP PUSH2 0x320D DUP3 PUSH2 0x31CC JUMP JUMPDEST PUSH1 0x20 DUP3 ADD SWAP1 POP SWAP2 SWAP1 POP JUMP JUMPDEST PUSH1 0x0 PUSH1 0x20 DUP3 ADD SWAP1 POP DUP2 DUP2 SUB PUSH1 0x0 DUP4 ADD MSTORE PUSH2 0x3231 DUP2 PUSH2 0x31F5 JUMP JUMPDEST SWAP1 POP SWAP2 SWAP1 POP JUMP JUMPDEST PUSH1 0x0 PUSH1 0x40 DUP3 ADD SWAP1 POP PUSH2 0x324D PUSH1 0x0 DUP4 ADD DUP6 PUSH2 0x2C15 JUMP JUMPDEST PUSH2 0x325A PUSH1 0x20 DUP4 ADD DUP5 PUSH2 0x2CEC JUMP JUMPDEST SWAP4 SWAP3 POP POP POP JUMP JUMPDEST PUSH2 0x326A DUP2 PUSH2 0x2CAC JUMP JUMPDEST DUP2 EQ PUSH2 0x3275 JUMPI PUSH1 0x0 DUP1 REVERT JUMPDEST POP JUMP JUMPDEST PUSH1 0x0 DUP2 MLOAD SWAP1 POP PUSH2 0x3287 DUP2 PUSH2 0x3261 JUMP JUMPDEST SWAP3 SWAP2 POP POP JUMP JUMPDEST PUSH1 0x0 PUSH1 0x20 DUP3 DUP5 SUB SLT ISZERO PUSH2 0x32A3 JUMPI PUSH2 0x32A2 PUSH2 0x2C49 JUMP JUMPDEST JUMPDEST PUSH1 0x0 PUSH2 0x32B1 DUP5 DUP3 DUP6 ADD PUSH2 0x3278 JUMP JUMPDEST SWAP2 POP POP SWAP3 SWAP2 POP POP JUMP JUMPDEST PUSH1 0x0 DUP2 MLOAD SWAP1 POP PUSH2 0x32C9 DUP2 PUSH2 0x2D16 JUMP JUMPDEST SWAP3 SWAP2 POP POP JUMP JUMPDEST PUSH1 0x0 PUSH1 0x20 DUP3 DUP5 SUB SLT ISZERO PUSH2 0x32E5 JUMPI PUSH2 0x32E4 PUSH2 0x2C49 JUMP JUMPDEST JUMPDEST PUSH1 0x0 PUSH2 0x32F3 DUP5 DUP3 DUP6 ADD PUSH2 0x32BA JUMP JUMPDEST SWAP2 POP POP SWAP3 SWAP2 POP POP JUMP JUMPDEST PUSH32 0x496E707574206D7573742062652067726561746572207468616E207A65726F21 PUSH1 0x0 DUP3 ADD MSTORE POP JUMP JUMPDEST PUSH1 0x0 PUSH2 0x3332 PUSH1 0x20 DUP4 PUSH2 0x2B3C JUMP JUMPDEST SWAP2 POP PUSH2 0x333D DUP3 PUSH2 0x32FC JUMP JUMPDEST PUSH1 0x20 DUP3 ADD SWAP1 POP SWAP2 SWAP1 POP JUMP JUMPDEST PUSH1 0x0 PUSH1 0x20 DUP3 ADD SWAP1 POP DUP2 DUP2 SUB PUSH1 0x0 DUP4 ADD MSTORE PUSH2 0x3361 DUP2 PUSH2 0x3325 JUMP JUMPDEST SWAP1 POP SWAP2 SWAP1 POP JUMP JUMPDEST PUSH32 0x496E707574206D75737420626520612073696E676C652064696769742028302D PUSH1 0x0 DUP3 ADD MSTORE PUSH32 0x3929000000000000000000000000000000000000000000000000000000000000 PUSH1 0x20 DUP3 ADD MSTORE POP JUMP JUMPDEST PUSH1 0x0 PUSH2 0x33C4 PUSH1 0x22 DUP4 PUSH2 0x2B3C JUMP JUMPDEST SWAP2 POP PUSH2 0x33CF DUP3 PUSH2 0x3368 JUMP JUMPDEST PUSH1 0x40 DUP3 ADD SWAP1 POP SWAP2 SWAP1 POP JUMP JUMPDEST PUSH1 0x0 PUSH1 0x20 DUP3 ADD SWAP1 POP DUP2 DUP2 SUB PUSH1 0x0 DUP4 ADD MSTORE PUSH2 0x33F3 DUP2 PUSH2 0x33B7 JUMP JUMPDEST SWAP1 POP SWAP2 SWAP1 POP JUMP JUMPDEST PUSH32 0x496E7075742076616C7565206973207468652073616D65206C696B6520657869 PUSH1 0x0 DUP3 ADD MSTORE PUSH32 0x7374696E67210000000000000000000000000000000000000000000000000000 PUSH1 0x20 DUP3 ADD MSTORE POP JUMP JUMPDEST PUSH1 0x0 PUSH2 0x3456 PUSH1 0x26 DUP4 PUSH2 0x2B3C JUMP JUMPDEST SWAP2 POP PUSH2 0x3461 DUP3 PUSH2 0x33FA JUMP JUMPDEST PUSH1 0x40 DUP3 ADD SWAP1 POP SWAP2 SWAP1 POP JUMP JUMPDEST PUSH1 0x0 PUSH1 0x20 DUP3 ADD SWAP1 POP DUP2 DUP2 SUB PUSH1 0x0 DUP4 ADD MSTORE PUSH2 0x3485 DUP2 PUSH2 0x3449 JUMP JUMPDEST SWAP1 POP SWAP2 SWAP1 POP JUMP JUMPDEST PUSH32 0x4E6F7420656E6F75676820706F696E74732E2054686520636F6E747261637420 PUSH1 0x0 DUP3 ADD MSTORE PUSH32 0x6D75737420626520636861726765642077697468206D6F726520746F6B656E73 PUSH1 0x20 DUP3 ADD MSTORE POP JUMP JUMPDEST PUSH1 0x0 PUSH2 0x34E8 PUSH1 0x40 DUP4 PUSH2 0x2B3C JUMP JUMPDEST SWAP2 POP PUSH2 0x34F3 DUP3 PUSH2 0x348C JUMP JUMPDEST PUSH1 0x40 DUP3 ADD SWAP1 POP SWAP2 SWAP1 POP JUMP JUMPDEST PUSH1 0x0 PUSH1 0x20 DUP3 ADD SWAP1 POP DUP2 DUP2 SUB PUSH1 0x0 DUP4 ADD MSTORE PUSH2 0x3517 DUP2 PUSH2 0x34DB JUMP JUMPDEST SWAP1 POP SWAP2 SWAP1 POP JUMP JUMPDEST PUSH32 0x57697468647261772076616C7565206D75737420626520677265617465722074 PUSH1 0x0 DUP3 ADD MSTORE PUSH32 0x68616E2030210000000000000000000000000000000000000000000000000000 PUSH1 0x20 DUP3 ADD MSTORE POP JUMP JUMPDEST PUSH1 0x0 PUSH2 0x357A PUSH1 0x26 DUP4 PUSH2 0x2B3C JUMP JUMPDEST SWAP2 POP PUSH2 0x3585 DUP3 PUSH2 0x351E JUMP JUMPDEST PUSH1 0x40 DUP3 ADD SWAP1 POP SWAP2 SWAP1 POP JUMP JUMPDEST PUSH1 0x0 PUSH1 0x20 DUP3 ADD SWAP1 POP DUP2 DUP2 SUB PUSH1 0x0 DUP4 ADD MSTORE PUSH2 0x35A9 DUP2 PUSH2 0x356D JUMP JUMPDEST SWAP1 POP SWAP2 SWAP1 POP JUMP JUMPDEST PUSH2 0x35B9 DUP2 PUSH2 0x2DC2 JUMP JUMPDEST DUP3 MSTORE POP POP JUMP JUMPDEST PUSH1 0x0 PUSH1 0x60 DUP3 ADD SWAP1 POP PUSH2 0x35D4 PUSH1 0x0 DUP4 ADD DUP7 PUSH2 0x2C15 JUMP JUMPDEST PUSH2 0x35E1 PUSH1 0x20 DUP4 ADD DUP6 PUSH2 0x2CEC JUMP JUMPDEST PUSH2 0x35EE PUSH1 0x40 DUP4 ADD DUP5 PUSH2 0x35B0 JUMP JUMPDEST SWAP5 SWAP4 POP POP POP POP JUMP JUMPDEST PUSH32 0x4E487B7100000000000000000000000000000000000000000000000000000000 PUSH1 0x0 MSTORE PUSH1 0x11 PUSH1 0x4 MSTORE PUSH1 0x24 PUSH1 0x0 REVERT JUMPDEST PUSH1 0x0 PUSH2 0x3630 DUP3 PUSH2 0x2CE2 JUMP JUMPDEST SWAP2 POP PUSH2 0x363B DUP4 PUSH2 0x2CE2 JUMP JUMPDEST SWAP3 POP DUP3 DUP3 SUB SWAP1 POP DUP2 DUP2 GT ISZERO PUSH2 0x3653 JUMPI PUSH2 0x3652 PUSH2 0x35F6 JUMP JUMPDEST JUMPDEST SWAP3 SWAP2 POP POP JUMP JUMPDEST PUSH1 0x0 PUSH1 0x40 DUP3 ADD SWAP1 POP PUSH2 0x366E PUSH1 0x0 DUP4 ADD DUP6 PUSH2 0x2C15 JUMP JUMPDEST PUSH2 0x367B PUSH1 0x20 DUP4 ADD DUP5 PUSH2 0x2C15 JUMP JUMPDEST SWAP4 SWAP3 POP POP POP JUMP JUMPDEST PUSH1 0x0 DUP1 REVERT JUMPDEST PUSH1 0x0 DUP1 REVERT JUMPDEST PUSH32 0x4E487B7100000000000000000000000000000000000000000000000000000000 PUSH1 0x0 MSTORE PUSH1 0x41 PUSH1 0x4 MSTORE PUSH1 0x24 PUSH1 0x0 REVERT JUMPDEST PUSH2 0x36C4 DUP3 PUSH2 0x2B77 JUMP JUMPDEST DUP2 ADD DUP2 DUP2 LT PUSH8 0xFFFFFFFFFFFFFFFF DUP3 GT OR ISZERO PUSH2 0x36E3 JUMPI PUSH2 0x36E2 PUSH2 0x368C JUMP JUMPDEST JUMPDEST DUP1 PUSH1 0x40 MSTORE POP POP POP JUMP JUMPDEST PUSH1 0x0 PUSH2 0x36F6 PUSH2 0x2C3F JUMP JUMPDEST SWAP1 POP PUSH2 0x3702 DUP3 DUP3 PUSH2 0x36BB JUMP JUMPDEST SWAP2 SWAP1 POP JUMP JUMPDEST PUSH1 0x0 PUSH8 0xFFFFFFFFFFFFFFFF DUP3 GT ISZERO PUSH2 0x3722 JUMPI PUSH2 0x3721 PUSH2 0x368C JUMP JUMPDEST JUMPDEST PUSH2 0x372B DUP3 PUSH2 0x2B77 JUMP JUMPDEST SWAP1 POP PUSH1 0x20 DUP2 ADD SWAP1 POP SWAP2 SWAP1 POP JUMP JUMPDEST PUSH1 0x0 PUSH2 0x374B PUSH2 0x3746 DUP5 PUSH2 0x3707 JUMP JUMPDEST PUSH2 0x36EC JUMP JUMPDEST SWAP1 POP DUP3 DUP2 MSTORE PUSH1 0x20 DUP2 ADD DUP5 DUP5 DUP5 ADD GT ISZERO PUSH2 0x3767 JUMPI PUSH2 0x3766 PUSH2 0x3687 JUMP JUMPDEST JUMPDEST PUSH2 0x3772 DUP5 DUP3 DUP6 PUSH2 0x2B4D JUMP JUMPDEST POP SWAP4 SWAP3 POP POP POP JUMP JUMPDEST PUSH1 0x0 DUP3 PUSH1 0x1F DUP4 ADD SLT PUSH2 0x378F JUMPI PUSH2 0x378E PUSH2 0x3682 JUMP JUMPDEST JUMPDEST DUP2 MLOAD PUSH2 0x379F DUP5 DUP3 PUSH1 0x20 DUP7 ADD PUSH2 0x3738 JUMP JUMPDEST SWAP2 POP POP SWAP3 SWAP2 POP POP JUMP JUMPDEST PUSH1 0x0 PUSH1 0x20 DUP3 DUP5 SUB SLT ISZERO PUSH2 0x37BE JUMPI PUSH2 0x37BD PUSH2 0x2C49 JUMP JUMPDEST JUMPDEST PUSH1 0x0 DUP3 ADD MLOAD PUSH8 0xFFFFFFFFFFFFFFFF DUP2 GT ISZERO PUSH2 0x37DC JUMPI PUSH2 0x37DB PUSH2 0x2C4E JUMP JUMPDEST JUMPDEST PUSH2 0x37E8 DUP5 DUP3 DUP6 ADD PUSH2 0x377A JUMP JUMPDEST SWAP2 POP POP SWAP3 SWAP2 POP POP JUMP JUMPDEST PUSH32 0x41676772656761746F72436F6E73756D6572206973206E6F7420696E69746961 PUSH1 0x0 DUP3 ADD MSTORE PUSH32 0x6C697A6564210000000000000000000000000000000000000000000000000000 PUSH1 0x20 DUP3 ADD MSTORE POP JUMP JUMPDEST PUSH1 0x0 PUSH2 0x384D PUSH1 0x26 DUP4 PUSH2 0x2B3C JUMP JUMPDEST SWAP2 POP PUSH2 0x3858 DUP3 PUSH2 0x37F1 JUMP JUMPDEST PUSH1 0x40 DUP3 ADD SWAP1 POP SWAP2 SWAP1 POP JUMP JUMPDEST PUSH1 0x0 PUSH1 0x20 DUP3 ADD SWAP1 POP DUP2 DUP2 SUB PUSH1 0x0 DUP4 ADD MSTORE PUSH2 0x387C DUP2 PUSH2 0x3840 JUMP JUMPDEST SWAP1 POP SWAP2 SWAP1 POP JUMP JUMPDEST PUSH32 0x506F6F6C436F6E73756D6572206973206E6F7420696E697469616C697A656421 PUSH1 0x0 DUP3 ADD MSTORE POP JUMP JUMPDEST PUSH1 0x0 PUSH2 0x38B9 PUSH1 0x20 DUP4 PUSH2 0x2B3C JUMP JUMPDEST SWAP2 POP PUSH2 0x38C4 DUP3 PUSH2 0x3883 JUMP JUMPDEST PUSH1 0x20 DUP3 ADD SWAP1 POP SWAP2 SWAP1 POP JUMP JUMPDEST PUSH1 0x0 PUSH1 0x20 DUP3 ADD SWAP1 POP DUP2 DUP2 SUB PUSH1 0x0 DUP4 ADD MSTORE PUSH2 0x38E8 DUP2 PUSH2 0x38AC JUMP JUMPDEST SWAP1 POP SWAP2 SWAP1 POP JUMP JUMPDEST PUSH32 0x4E6F2063686172676520616D6F756E7421000000000000000000000000000000 PUSH1 0x0 DUP3 ADD MSTORE POP JUMP JUMPDEST PUSH1 0x0 PUSH2 0x3925 PUSH1 0x11 DUP4 PUSH2 0x2B3C JUMP JUMPDEST SWAP2 POP PUSH2 0x3930 DUP3 PUSH2 0x38EF JUMP JUMPDEST PUSH1 0x20 DUP3 ADD SWAP1 POP SWAP2 SWAP1 POP JUMP JUMPDEST PUSH1 0x0 PUSH1 0x20 DUP3 ADD SWAP1 POP DUP2 DUP2 SUB PUSH1 0x0 DUP4 ADD MSTORE PUSH2 0x3954 DUP2 PUSH2 0x3918 JUMP JUMPDEST SWAP1 POP SWAP2 SWAP1 POP JUMP JUMPDEST PUSH32 0x436865636B207468652000000000000000000000000000000000000000000000 DUP2 MSTORE POP JUMP JUMPDEST PUSH1 0x0 DUP2 SWAP1 POP SWAP3 SWAP2 POP POP JUMP JUMPDEST PUSH1 0x0 PUSH2 0x3997 DUP3 PUSH2 0x2B31 JUMP JUMPDEST PUSH2 0x39A1 DUP2 DUP6 PUSH2 0x3981 JUMP JUMPDEST SWAP4 POP PUSH2 0x39B1 DUP2 DUP6 PUSH1 0x20 DUP7 ADD PUSH2 0x2B4D JUMP JUMPDEST DUP1 DUP5 ADD SWAP2 POP POP SWAP3 SWAP2 POP POP JUMP JUMPDEST PUSH32 0x20746F6B656E2000000000000000000000000000000000000000000000000000 DUP2 MSTORE POP JUMP JUMPDEST PUSH32 0x616C6C6F77616E63652100000000000000000000000000000000000000000000 DUP2 MSTORE POP JUMP JUMPDEST PUSH1 0x0 PUSH2 0x3A14 DUP3 PUSH2 0x395B JUMP JUMPDEST PUSH1 0xA DUP3 ADD SWAP2 POP PUSH2 0x3A24 DUP3 DUP5 PUSH2 0x398C JUMP JUMPDEST SWAP2 POP PUSH2 0x3A2F DUP3 PUSH2 0x39BD JUMP JUMPDEST PUSH1 0x7 DUP3 ADD SWAP2 POP PUSH2 0x3A3E DUP3 PUSH2 0x39E3 JUMP JUMPDEST PUSH1 0xA DUP3 ADD SWAP2 POP DUP2 SWAP1 POP SWAP3 SWAP2 POP POP JUMP JUMPDEST PUSH32 0x52617465206572726F7221000000000000000000000000000000000000000000 PUSH1 0x0 DUP3 ADD MSTORE POP JUMP JUMPDEST PUSH1 0x0 PUSH2 0x3A83 PUSH1 0xB DUP4 PUSH2 0x2B3C JUMP JUMPDEST SWAP2 POP PUSH2 0x3A8E DUP3 PUSH2 0x3A4D JUMP JUMPDEST PUSH1 0x20 DUP3 ADD SWAP1 POP SWAP2 SWAP1 POP JUMP JUMPDEST PUSH1 0x0 PUSH1 0x20 DUP3 ADD SWAP1 POP DUP2 DUP2 SUB PUSH1 0x0 DUP4 ADD MSTORE PUSH2 0x3AB2 DUP2 PUSH2 0x3A76 JUMP JUMPDEST SWAP1 POP SWAP2 SWAP1 POP JUMP JUMPDEST PUSH1 0x0 PUSH2 0x3AC4 DUP3 PUSH2 0x2CE2 JUMP JUMPDEST SWAP2 POP PUSH2 0x3ACF DUP4 PUSH2 0x2CE2 JUMP JUMPDEST SWAP3 POP DUP3 DUP3 ADD SWAP1 POP DUP1 DUP3 GT ISZERO PUSH2 0x3AE7 JUMPI PUSH2 0x3AE6 PUSH2 0x35F6 JUMP JUMPDEST JUMPDEST SWAP3 SWAP2 POP POP JUMP JUMPDEST PUSH1 0x0 PUSH1 0xC0 DUP3 ADD SWAP1 POP PUSH2 0x3B02 PUSH1 0x0 DUP4 ADD DUP10 PUSH2 0x2CEC JUMP JUMPDEST PUSH2 0x3B0F PUSH1 0x20 DUP4 ADD DUP9 PUSH2 0x2CEC JUMP JUMPDEST PUSH2 0x3B1C PUSH1 0x40 DUP4 ADD DUP8 PUSH2 0x2CEC JUMP JUMPDEST DUP2 DUP2 SUB PUSH1 0x60 DUP4 ADD MSTORE PUSH2 0x3B2E DUP2 DUP7 PUSH2 0x2B88 JUMP JUMPDEST SWAP1 POP PUSH2 0x3B3D PUSH1 0x80 DUP4 ADD DUP6 PUSH2 0x2CEC JUMP JUMPDEST PUSH2 0x3B4A PUSH1 0xA0 DUP4 ADD DUP5 PUSH2 0x2CEC JUMP JUMPDEST SWAP8 SWAP7 POP POP POP POP POP POP POP JUMP JUMPDEST PUSH32 0x4F776E61626C653A206E6577206F776E657220697320746865207A65726F2061 PUSH1 0x0 DUP3 ADD MSTORE PUSH32 0x6464726573730000000000000000000000000000000000000000000000000000 PUSH1 0x20 DUP3 ADD MSTORE POP JUMP JUMPDEST PUSH1 0x0 PUSH2 0x3BB1 PUSH1 0x26 DUP4 PUSH2 0x2B3C JUMP JUMPDEST SWAP2 POP PUSH2 0x3BBC DUP3 PUSH2 0x3B55 JUMP JUMPDEST PUSH1 0x40 DUP3 ADD SWAP1 POP SWAP2 SWAP1 POP JUMP JUMPDEST PUSH1 0x0 PUSH1 0x20 DUP3 ADD SWAP1 POP DUP2 DUP2 SUB PUSH1 0x0 DUP4 ADD MSTORE PUSH2 0x3BE0 DUP2 PUSH2 0x3BA4 JUMP JUMPDEST SWAP1 POP SWAP2 SWAP1 POP JUMP JUMPDEST PUSH32 0x5061757361626C653A206E6F7420706175736564000000000000000000000000 PUSH1 0x0 DUP3 ADD MSTORE POP JUMP JUMPDEST PUSH1 0x0 PUSH2 0x3C1D PUSH1 0x14 DUP4 PUSH2 0x2B3C JUMP JUMPDEST SWAP2 POP PUSH2 0x3C28 DUP3 PUSH2 0x3BE7 JUMP JUMPDEST PUSH1 0x20 DUP3 ADD SWAP1 POP SWAP2 SWAP1 POP JUMP JUMPDEST PUSH1 0x0 PUSH1 0x20 DUP3 ADD SWAP1 POP DUP2 DUP2 SUB PUSH1 0x0 DUP4 ADD MSTORE PUSH2 0x3C4C DUP2 PUSH2 0x3C10 JUMP JUMPDEST SWAP1 POP SWAP2 SWAP1 POP JUMP JUMPDEST PUSH32 0x4F776E61626C653A2063616C6C6572206973206E6F7420746865206F776E6572 PUSH1 0x0 DUP3 ADD MSTORE POP JUMP JUMPDEST PUSH1 0x0 PUSH2 0x3C89 PUSH1 0x20 DUP4 PUSH2 0x2B3C JUMP JUMPDEST SWAP2 POP PUSH2 0x3C94 DUP3 PUSH2 0x3C53 JUMP JUMPDEST PUSH1 0x20 DUP3 ADD SWAP1 POP SWAP2 SWAP1 POP JUMP JUMPDEST PUSH1 0x0 PUSH1 0x20 DUP3 ADD SWAP1 POP DUP2 DUP2 SUB PUSH1 0x0 DUP4 ADD MSTORE PUSH2 0x3CB8 DUP2 PUSH2 0x3C7C JUMP JUMPDEST SWAP1 POP SWAP2 SWAP1 POP JUMP JUMPDEST PUSH32 0x5061757361626C653A2070617573656400000000000000000000000000000000 PUSH1 0x0 DUP3 ADD MSTORE POP JUMP JUMPDEST PUSH1 0x0 PUSH2 0x3CF5 PUSH1 0x10 DUP4 PUSH2 0x2B3C JUMP JUMPDEST SWAP2 POP PUSH2 0x3D00 DUP3 PUSH2 0x3CBF JUMP JUMPDEST PUSH1 0x20 DUP3 ADD SWAP1 POP SWAP2 SWAP1 POP JUMP JUMPDEST PUSH1 0x0 PUSH1 0x20 DUP3 ADD SWAP1 POP DUP2 DUP2 SUB PUSH1 0x0 DUP4 ADD MSTORE PUSH2 0x3D24 DUP2 PUSH2 0x3CE8 JUMP JUMPDEST SWAP1 POP SWAP2 SWAP1 POP JUMP JUMPDEST PUSH1 0x0 DUP1 PUSH1 0x0 DUP1 PUSH1 0x80 DUP6 DUP8 SUB SLT ISZERO PUSH2 0x3D45 JUMPI PUSH2 0x3D44 PUSH2 0x2C49 JUMP JUMPDEST JUMPDEST PUSH1 0x0 PUSH2 0x3D53 DUP8 DUP3 DUP9 ADD PUSH2 0x32BA JUMP JUMPDEST SWAP5 POP POP PUSH1 0x20 PUSH2 0x3D64 DUP8 DUP3 DUP9 ADD PUSH2 0x32BA JUMP JUMPDEST SWAP4 POP POP PUSH1 0x40 DUP6 ADD MLOAD PUSH8 0xFFFFFFFFFFFFFFFF DUP2 GT ISZERO PUSH2 0x3D85 JUMPI PUSH2 0x3D84 PUSH2 0x2C4E JUMP JUMPDEST JUMPDEST PUSH2 0x3D91 DUP8 DUP3 DUP9 ADD PUSH2 0x377A JUMP JUMPDEST SWAP3 POP POP PUSH1 0x60 PUSH2 0x3DA2 DUP8 DUP3 DUP9 ADD PUSH2 0x32BA JUMP JUMPDEST SWAP2 POP POP SWAP3 SWAP6 SWAP2 SWAP5 POP SWAP3 POP JUMP JUMPDEST PUSH1 0x0 PUSH1 0xA0 DUP3 ADD SWAP1 POP PUSH2 0x3DC3 PUSH1 0x0 DUP4 ADD DUP9 PUSH2 0x2CEC JUMP JUMPDEST PUSH2 0x3DD0 PUSH1 0x20 DUP4 ADD DUP8 PUSH2 0x2CEC JUMP JUMPDEST DUP2 DUP2 SUB PUSH1 0x40 DUP4 ADD MSTORE PUSH2 0x3DE2 DUP2 DUP7 PUSH2 0x2B88 JUMP JUMPDEST SWAP1 POP PUSH2 0x3DF1 PUSH1 0x60 DUP4 ADD DUP6 PUSH2 0x2CEC JUMP JUMPDEST DUP2 DUP2 SUB PUSH1 0x80 DUP4 ADD MSTORE PUSH2 0x3E03 DUP2 DUP5 PUSH2 0x2B88 JUMP JUMPDEST SWAP1 POP SWAP7 SWAP6 POP POP POP POP POP POP JUMP JUMPDEST PUSH1 0x0 DUP2 PUSH1 0x1 SHR SWAP1 POP SWAP2 SWAP1 POP JUMP JUMPDEST PUSH1 0x0 DUP1 DUP3 SWAP2 POP DUP4 SWAP1 POP JUMPDEST PUSH1 0x1 DUP6 GT ISZERO PUSH2 0x3E66 JUMPI DUP1 DUP7 DIV DUP2 GT ISZERO PUSH2 0x3E42 JUMPI PUSH2 0x3E41 PUSH2 0x35F6 JUMP JUMPDEST JUMPDEST PUSH1 0x1 DUP6 AND ISZERO PUSH2 0x3E51 JUMPI DUP1 DUP3 MUL SWAP2 POP JUMPDEST DUP1 DUP2 MUL SWAP1 POP PUSH2 0x3E5F DUP6 PUSH2 0x3E0F JUMP JUMPDEST SWAP5 POP PUSH2 0x3E26 JUMP JUMPDEST SWAP5 POP SWAP5 SWAP3 POP POP POP JUMP JUMPDEST PUSH1 0x0 DUP3 PUSH2 0x3E7F JUMPI PUSH1 0x1 SWAP1 POP PUSH2 0x3F3B JUMP JUMPDEST DUP2 PUSH2 0x3E8D JUMPI PUSH1 0x0 SWAP1 POP PUSH2 0x3F3B JUMP JUMPDEST DUP2 PUSH1 0x1 DUP2 EQ PUSH2 0x3EA3 JUMPI PUSH1 0x2 DUP2 EQ PUSH2 0x3EAD JUMPI PUSH2 0x3EDC JUMP JUMPDEST PUSH1 0x1 SWAP2 POP POP PUSH2 0x3F3B JUMP JUMPDEST PUSH1 0xFF DUP5 GT ISZERO PUSH2 0x3EBF JUMPI PUSH2 0x3EBE PUSH2 0x35F6 JUMP JUMPDEST JUMPDEST DUP4 PUSH1 0x2 EXP SWAP2 POP DUP5 DUP3 GT ISZERO PUSH2 0x3ED6 JUMPI PUSH2 0x3ED5 PUSH2 0x35F6 JUMP JUMPDEST JUMPDEST POP PUSH2 0x3F3B JUMP JUMPDEST POP PUSH1 0x20 DUP4 LT PUSH2 0x133 DUP4 LT AND PUSH1 0x4E DUP5 LT PUSH1 0xB DUP5 LT AND OR ISZERO PUSH2 0x3F11 JUMPI DUP3 DUP3 EXP SWAP1 POP DUP4 DUP2 GT ISZERO PUSH2 0x3F0C JUMPI PUSH2 0x3F0B PUSH2 0x35F6 JUMP JUMPDEST JUMPDEST PUSH2 0x3F3B JUMP JUMPDEST PUSH2 0x3F1E DUP5 DUP5 DUP5 PUSH1 0x1 PUSH2 0x3E1C JUMP JUMPDEST SWAP3 POP SWAP1 POP DUP2 DUP5 DIV DUP2 GT ISZERO PUSH2 0x3F35 JUMPI PUSH2 0x3F34 PUSH2 0x35F6 JUMP JUMPDEST JUMPDEST DUP2 DUP2 MUL SWAP1 POP JUMPDEST SWAP4 SWAP3 POP POP POP JUMP JUMPDEST PUSH1 0x0 PUSH2 0x3F4D DUP3 PUSH2 0x2CE2 JUMP JUMPDEST SWAP2 POP PUSH2 0x3F58 DUP4 PUSH2 0x2CE2 JUMP JUMPDEST SWAP3 POP PUSH2 0x3F85 PUSH32 0xFFFFFFFFFFFFFFFFFFFFFFFFFFFFFFFFFFFFFFFFFFFFFFFFFFFFFFFFFFFFFFFF DUP5 DUP5 PUSH2 0x3E6F JUMP JUMPDEST SWAP1 POP SWAP3 SWAP2 POP POP JUMP JUMPDEST PUSH1 0x0 PUSH2 0x3F98 DUP3 PUSH2 0x2CE2 JUMP JUMPDEST SWAP2 POP PUSH2 0x3FA3 DUP4 PUSH2 0x2CE2 JUMP JUMPDEST SWAP3 POP DUP3 DUP3 MUL PUSH2 0x3FB1 DUP2 PUSH2 0x2CE2 JUMP JUMPDEST SWAP2 POP DUP3 DUP3 DIV DUP5 EQ DUP4 ISZERO OR PUSH2 0x3FC8 JUMPI PUSH2 0x3FC7 PUSH2 0x35F6 JUMP JUMPDEST JUMPDEST POP SWAP3 SWAP2 POP POP JUMP JUMPDEST PUSH32 0x4E487B7100000000000000000000000000000000000000000000000000000000 PUSH1 0x0 MSTORE PUSH1 0x12 PUSH1 0x4 MSTORE PUSH1 0x24 PUSH1 0x0 REVERT JUMPDEST PUSH1 0x0 PUSH2 0x4009 DUP3 PUSH2 0x2CE2 JUMP JUMPDEST SWAP2 POP PUSH2 0x4014 DUP4 PUSH2 0x2CE2 JUMP JUMPDEST SWAP3 POP DUP3 PUSH2 0x4024 JUMPI PUSH2 0x4023 PUSH2 0x3FCF JUMP JUMPDEST JUMPDEST DUP3 DUP3 DIV SWAP1 POP SWAP3 SWAP2 POP POP JUMP JUMPDEST PUSH1 0x0 PUSH1 0x60 DUP3 ADD SWAP1 POP PUSH2 0x4044 PUSH1 0x0 DUP4 ADD DUP7 PUSH2 0x2C15 JUMP JUMPDEST PUSH2 0x4051 PUSH1 0x20 DUP4 ADD DUP6 PUSH2 0x2C15 JUMP JUMPDEST PUSH2 0x405E PUSH1 0x40 DUP4 ADD DUP5 PUSH2 0x2CEC JUMP JUMPDEST SWAP5 SWAP4 POP POP POP POP JUMP JUMPDEST PUSH32 0x4E6F20746F6B656E7320746F206265206275726E656421000000000000000000 PUSH1 0x0 DUP3 ADD MSTORE POP JUMP JUMPDEST PUSH1 0x0 PUSH2 0x409C PUSH1 0x17 DUP4 PUSH2 0x2B3C JUMP JUMPDEST SWAP2 POP PUSH2 0x40A7 DUP3 PUSH2 0x4066 JUMP JUMPDEST PUSH1 0x20 DUP3 ADD SWAP1 POP SWAP2 SWAP1 POP JUMP JUMPDEST PUSH1 0x0 PUSH1 0x20 DUP3 ADD SWAP1 POP DUP2 DUP2 SUB PUSH1 0x0 DUP4 ADD MSTORE PUSH2 0x40CB DUP2 PUSH2 0x408F JUMP JUMPDEST SWAP1 POP SWAP2 SWAP1 POP JUMP JUMPDEST PUSH32 0x7472616E73616374696F6E207265766572746564206275726E20756E73756363 PUSH1 0x0 DUP3 ADD MSTORE PUSH32 0x65737366756C2100000000000000000000000000000000000000000000000000 PUSH1 0x20 DUP3 ADD MSTORE POP JUMP JUMPDEST PUSH1 0x0 PUSH2 0x412E PUSH1 0x27 DUP4 PUSH2 0x2B3C JUMP JUMPDEST SWAP2 POP PUSH2 0x4139 DUP3 PUSH2 0x40D2 JUMP JUMPDEST PUSH1 0x40 DUP3 ADD SWAP1 POP SWAP2 SWAP1 POP JUMP JUMPDEST PUSH1 0x0 PUSH1 0x20 DUP3 ADD SWAP1 POP DUP2 DUP2 SUB PUSH1 0x0 DUP4 ADD MSTORE PUSH2 0x415D DUP2 PUSH2 0x4121 JUMP JUMPDEST SWAP1 POP SWAP2 SWAP1 POP JUMP JUMPDEST PUSH32 0x5361666545524332303A204552433230206F7065726174696F6E20646964206E PUSH1 0x0 DUP3 ADD MSTORE PUSH32 0x6F74207375636365656400000000000000000000000000000000000000000000 PUSH1 0x20 DUP3 ADD MSTORE POP JUMP JUMPDEST PUSH1 0x0 PUSH2 0x41C0 PUSH1 0x2A DUP4 PUSH2 0x2B3C JUMP JUMPDEST SWAP2 POP PUSH2 0x41CB DUP3 PUSH2 0x4164 JUMP JUMPDEST PUSH1 0x40 DUP3 ADD SWAP1 POP SWAP2 SWAP1 POP JUMP JUMPDEST PUSH1 0x0 PUSH1 0x20 DUP3 ADD SWAP1 POP DUP2 DUP2 SUB PUSH1 0x0 DUP4 ADD MSTORE PUSH2 0x41EF DUP2 PUSH2 0x41B3 JUMP JUMPDEST SWAP1 POP SWAP2 SWAP1 POP JUMP JUMPDEST PUSH32 0x416464726573733A20696E73756666696369656E742062616C616E636520666F PUSH1 0x0 DUP3 ADD MSTORE PUSH32 0x722063616C6C0000000000000000000000000000000000000000000000000000 PUSH1 0x20 DUP3 ADD MSTORE POP JUMP JUMPDEST PUSH1 0x0 PUSH2 0x4252 PUSH1 0x26 DUP4 PUSH2 0x2B3C JUMP JUMPDEST SWAP2 POP PUSH2 0x425D DUP3 PUSH2 0x41F6 JUMP JUMPDEST PUSH1 0x40 DUP3 ADD SWAP1 POP SWAP2 SWAP1 POP JUMP JUMPDEST PUSH1 0x0 PUSH1 0x20 DUP3 ADD SWAP1 POP DUP2 DUP2 SUB PUSH1 0x0 DUP4 ADD MSTORE PUSH2 0x4281 DUP2 PUSH2 0x4245 JUMP JUMPDEST SWAP1 POP SWAP2 SWAP1 POP JUMP JUMPDEST PUSH32 0x416464726573733A2063616C6C20746F206E6F6E2D636F6E7472616374000000 PUSH1 0x0 DUP3 ADD MSTORE POP JUMP JUMPDEST PUSH1 0x0 PUSH2 0x42BE PUSH1 0x1D DUP4 PUSH2 0x2B3C JUMP JUMPDEST SWAP2 POP PUSH2 0x42C9 DUP3 PUSH2 0x4288 JUMP JUMPDEST PUSH1 0x20 DUP3 ADD SWAP1 POP SWAP2 SWAP1 POP JUMP JUMPDEST PUSH1 0x0 PUSH1 0x20 DUP3 ADD SWAP1 POP DUP2 DUP2 SUB PUSH1 0x0 DUP4 ADD MSTORE PUSH2 0x42ED DUP2 PUSH2 0x42B1 JUMP JUMPDEST SWAP1 POP SWAP2 SWAP1 POP JUMP JUMPDEST PUSH1 0x0 DUP2 MLOAD SWAP1 POP SWAP2 SWAP1 POP JUMP JUMPDEST PUSH1 0x0 DUP2 SWAP1 POP SWAP3 SWAP2 POP POP JUMP JUMPDEST PUSH1 0x0 PUSH2 0x4315 DUP3 PUSH2 0x42F4 JUMP JUMPDEST PUSH2 0x431F DUP2 DUP6 PUSH2 0x42FF JUMP JUMPDEST SWAP4 POP PUSH2 0x432F DUP2 DUP6 PUSH1 0x20 DUP7 ADD PUSH2 0x2B4D JUMP JUMPDEST DUP1 DUP5 ADD SWAP2 POP POP SWAP3 SWAP2 POP POP JUMP JUMPDEST PUSH1 0x0 PUSH2 0x4347 DUP3 DUP5 PUSH2 0x430A JUMP JUMPDEST SWAP2 POP DUP2 SWAP1 POP SWAP3 SWAP2 POP POP JUMP INVALID LOG2 PUSH5 0x6970667358 0x22 SLT KECCAK256 0xC4 0x25 0x27 EXTCODECOPY PUSH24 0x7C5DBF28C0869CD4333863560DBEA9B1F1104E4249A93F45 ADDMOD LOG3 0xC7 PUSH5 0x736F6C6343 STOP ADDMOD OR STOP CALLER LOG2 PUSH5 0x6970667358 0x22 SLT KECCAK256 0xC9 PUSH31 0xA782A34C0F031813EC376A8A3F1EA55D12D9028CFA5DA099A7141875ECAD64 PUSH20 0x6F6C634300081700330000000000000000000000 "
		},
		"gasEstimates": {
			"creation": {
				"codeDepositCost": "4580200",
				"executionCost": "infinite",
				"totalCost": "infinite"
			},
			"external": {
				"createTokenEcoSystemParticipation(string,address,address,address,address)": "infinite",
				"getDeployedContracts()": "infinite",
				"owner()": "2522",
				"renounceOwnership()": "30376",
				"transferOwnership(address)": "30810"
			}
		},
		"methodIdentifiers": {
			"createTokenEcoSystemParticipation(string,address,address,address,address)": "b4b58ba3",
			"getDeployedContracts()": "aa9a068f",
			"owner()": "8da5cb5b",
			"renounceOwnership()": "715018a6",
			"transferOwnership(address)": "f2fde38b"
		}
	},
	"abi": [
		{
			"anonymous": false,
			"inputs": [
				{
					"indexed": true,
					"internalType": "address",
					"name": "newContract",
					"type": "address"
				}
			],
			"name": "ContractCreated",
			"type": "event"
		},
		{
			"anonymous": false,
			"inputs": [
				{
					"indexed": true,
					"internalType": "address",
					"name": "previousOwner",
					"type": "address"
				},
				{
					"indexed": true,
					"internalType": "address",
					"name": "newOwner",
					"type": "address"
				}
			],
			"name": "OwnershipTransferred",
			"type": "event"
		},
		{
			"inputs": [
				{
					"internalType": "string",
					"name": "_name",
					"type": "string"
				},
				{
					"internalType": "address",
					"name": "_acceptedTokens",
					"type": "address"
				},
				{
					"internalType": "address",
					"name": "_acceptedSenderAddress",
					"type": "address"
				},
				{
					"internalType": "address",
					"name": "_poolConsumerInterfaceAddress",
					"type": "address"
				},
				{
					"internalType": "address",
					"name": "_aggregatorConsumerInterfaceAddress",
					"type": "address"
				}
			],
			"name": "createTokenEcoSystemParticipation",
			"outputs": [],
			"stateMutability": "nonpayable",
			"type": "function"
		},
		{
			"inputs": [],
			"name": "getDeployedContracts",
			"outputs": [
				{
					"internalType": "address[]",
					"name": "",
					"type": "address[]"
				}
			],
			"stateMutability": "view",
			"type": "function"
		},
		{
			"inputs": [],
			"name": "owner",
			"outputs": [
				{
					"internalType": "address",
					"name": "",
					"type": "address"
				}
			],
			"stateMutability": "view",
			"type": "function"
		},
		{
			"inputs": [],
			"name": "renounceOwnership",
			"outputs": [],
			"stateMutability": "nonpayable",
			"type": "function"
		},
		{
			"inputs": [
				{
					"internalType": "address",
					"name": "newOwner",
					"type": "address"
				}
			],
			"name": "transferOwnership",
			"outputs": [],
			"stateMutability": "nonpayable",
			"type": "function"
		}
	]
}