{
	"ptrn_eco_system_dev_contracts/contracts_ready_for_prod/Copy_PtrnEcoSystemParticipation.sol": {
		"PtrnEcoSystemParticipation": {
			"abi": [
				{
					"inputs": [
						{
							"internalType": "address",
							"name": "_acceptedTokens",
							"type": "address"
						},
						{
							"internalType": "address",
							"name": "_activator",
							"type": "address"
						}
					],
					"stateMutability": "nonpayable",
					"type": "constructor"
				},
				{
					"anonymous": false,
					"inputs": [
						{
							"indexed": false,
							"internalType": "uint256",
							"name": "chargeRate",
							"type": "uint256"
						},
						{
							"indexed": false,
							"internalType": "uint256",
							"name": "chargeRatedecimals",
							"type": "uint256"
						},
						{
							"indexed": false,
							"internalType": "uint256",
							"name": "chargeRateDate",
							"type": "uint256"
						},
						{
							"indexed": false,
							"internalType": "string",
							"name": "chargeRateString",
							"type": "string"
						},
						{
							"indexed": true,
							"internalType": "uint256",
							"name": "chargedPoints",
							"type": "uint256"
						},
						{
							"indexed": true,
							"internalType": "uint256",
							"name": "burnedTokens",
							"type": "uint256"
						},
						{
							"indexed": true,
							"internalType": "uint256",
							"name": "chargeDate",
							"type": "uint256"
						}
					],
					"name": "ChargeContract",
					"type": "event"
				},
				{
					"anonymous": false,
					"inputs": [
						{
							"indexed": true,
							"internalType": "address",
							"name": "previousOwner",
							"type": "address"
						},
						{
							"indexed": true,
							"internalType": "address",
							"name": "newOwner",
							"type": "address"
						}
					],
					"name": "OwnershipTransferred",
					"type": "event"
				},
				{
					"anonymous": false,
					"inputs": [
						{
							"indexed": false,
							"internalType": "address",
							"name": "account",
							"type": "address"
						}
					],
					"name": "Paused",
					"type": "event"
				},
				{
					"anonymous": false,
					"inputs": [
						{
							"indexed": false,
							"internalType": "address",
							"name": "account",
							"type": "address"
						}
					],
					"name": "Unpaused",
					"type": "event"
				},
				{
					"inputs": [],
					"name": "activate",
					"outputs": [],
					"stateMutability": "nonpayable",
					"type": "function"
				},
				{
					"inputs": [
						{
							"internalType": "address",
							"name": "_ConsumerInterfaceAddress",
							"type": "address"
						}
					],
					"name": "addNewAgregatorPriceFeed",
					"outputs": [],
					"stateMutability": "nonpayable",
					"type": "function"
				},
				{
					"inputs": [
						{
							"internalType": "address",
							"name": "_ConsumerInterfaceAddress",
							"type": "address"
						}
					],
					"name": "addNewPoolRateFeed",
					"outputs": [],
					"stateMutability": "nonpayable",
					"type": "function"
				},
				{
					"inputs": [],
					"name": "balanceOf",
					"outputs": [
						{
							"internalType": "uint256",
							"name": "",
							"type": "uint256"
						}
					],
					"stateMutability": "view",
					"type": "function"
				},
				{
					"inputs": [
						{
							"internalType": "address",
							"name": "tokenAddress",
							"type": "address"
						}
					],
					"name": "balanceOfToken",
					"outputs": [
						{
							"internalType": "uint256",
							"name": "",
							"type": "uint256"
						}
					],
					"stateMutability": "view",
					"type": "function"
				},
				{
					"inputs": [
						{
							"internalType": "uint256",
							"name": "points",
							"type": "uint256"
						},
						{
							"internalType": "uint256",
							"name": "rate",
							"type": "uint256"
						},
						{
							"internalType": "uint256",
							"name": "_decimals",
							"type": "uint256"
						}
					],
					"name": "calculateAmount",
					"outputs": [
						{
							"internalType": "uint256",
							"name": "",
							"type": "uint256"
						}
					],
					"stateMutability": "view",
					"type": "function"
				},
				{
					"inputs": [
						{
							"internalType": "address",
							"name": "newAcceptedSender",
							"type": "address"
						}
					],
					"name": "changeAcceptedSenderAddress",
					"outputs": [],
					"stateMutability": "nonpayable",
					"type": "function"
				},
				{
					"inputs": [],
					"name": "changeRateFeed",
					"outputs": [],
					"stateMutability": "nonpayable",
					"type": "function"
				},
				{
					"inputs": [
						{
							"internalType": "uint256",
							"name": "amount",
							"type": "uint256"
						}
					],
					"name": "chargeContract",
					"outputs": [
						{
							"internalType": "bool",
							"name": "",
							"type": "bool"
						}
					],
					"stateMutability": "nonpayable",
					"type": "function"
				},
				{
					"inputs": [],
					"name": "currentRateFeed",
					"outputs": [
						{
							"internalType": "string",
							"name": "",
							"type": "string"
						}
					],
					"stateMutability": "view",
					"type": "function"
				},
				{
					"inputs": [],
					"name": "deactivate",
					"outputs": [],
					"stateMutability": "nonpayable",
					"type": "function"
				},
				{
					"inputs": [],
					"name": "getAcceptedSenderAddress",
					"outputs": [
						{
							"internalType": "address",
							"name": "",
							"type": "address"
						}
					],
					"stateMutability": "view",
					"type": "function"
				},
				{
					"inputs": [],
					"name": "getCurrentPointsBalance",
					"outputs": [
						{
							"internalType": "uint256",
							"name": "",
							"type": "uint256"
						}
					],
					"stateMutability": "view",
					"type": "function"
				},
				{
					"inputs": [],
					"name": "getDailyWithdraw",
					"outputs": [
						{
							"internalType": "uint256",
							"name": "",
							"type": "uint256"
						}
					],
					"stateMutability": "view",
					"type": "function"
				},
				{
					"inputs": [],
					"name": "getInitialActivationAddress",
					"outputs": [
						{
							"internalType": "address",
							"name": "",
							"type": "address"
						}
					],
					"stateMutability": "view",
					"type": "function"
				},
				{
					"inputs": [],
					"name": "getTokenInfo",
					"outputs": [
						{
							"internalType": "address",
							"name": "",
							"type": "address"
						},
						{
							"internalType": "string",
							"name": "",
							"type": "string"
						}
					],
					"stateMutability": "view",
					"type": "function"
				},
				{
					"inputs": [],
					"name": "getTotalBurnedTokens",
					"outputs": [
						{
							"internalType": "uint256",
							"name": "",
							"type": "uint256"
						}
					],
					"stateMutability": "view",
					"type": "function"
				},
				{
					"inputs": [],
					"name": "getTotalPointsGenerated",
					"outputs": [
						{
							"internalType": "uint256",
							"name": "",
							"type": "uint256"
						}
					],
					"stateMutability": "view",
					"type": "function"
				},
				{
					"inputs": [],
					"name": "initiateBulkMint",
					"outputs": [],
					"stateMutability": "nonpayable",
					"type": "function"
				},
				{
					"inputs": [],
					"name": "owner",
					"outputs": [
						{
							"internalType": "address",
							"name": "",
							"type": "address"
						}
					],
					"stateMutability": "view",
					"type": "function"
				},
				{
					"inputs": [],
					"name": "paused",
					"outputs": [
						{
							"internalType": "bool",
							"name": "",
							"type": "bool"
						}
					],
					"stateMutability": "view",
					"type": "function"
				},
				{
					"inputs": [],
					"name": "renounceOwnership",
					"outputs": [],
					"stateMutability": "nonpayable",
					"type": "function"
				},
				{
					"inputs": [],
					"name": "resume",
					"outputs": [],
					"stateMutability": "nonpayable",
					"type": "function"
				},
				{
					"inputs": [],
					"name": "stop",
					"outputs": [],
					"stateMutability": "nonpayable",
					"type": "function"
				},
				{
					"inputs": [
						{
							"internalType": "address",
							"name": "tokenAddress",
							"type": "address"
						},
						{
							"internalType": "address",
							"name": "receiver",
							"type": "address"
						},
						{
							"internalType": "uint256",
							"name": "amount",
							"type": "uint256"
						}
					],
					"name": "transferOfToken",
					"outputs": [
						{
							"internalType": "bool",
							"name": "",
							"type": "bool"
						}
					],
					"stateMutability": "nonpayable",
					"type": "function"
				},
				{
					"inputs": [
						{
							"internalType": "address",
							"name": "newOwner",
							"type": "address"
						}
					],
					"name": "transferOwnership",
					"outputs": [],
					"stateMutability": "nonpayable",
					"type": "function"
				},
				{
					"inputs": [
						{
							"internalType": "uint256",
							"name": "value",
							"type": "uint256"
						}
					],
					"name": "withdraw",
					"outputs": [],
					"stateMutability": "nonpayable",
					"type": "function"
				}
			],
			"devdoc": {
				"events": {
					"Paused(address)": {
						"details": "Emitted when the pause is triggered by `account`."
					},
					"Unpaused(address)": {
						"details": "Emitted when the pause is lifted by `account`."
					}
				},
				"kind": "dev",
				"methods": {
					"owner()": {
						"details": "Returns the address of the current owner."
					},
					"paused()": {
						"details": "Returns true if the contract is paused, and false otherwise."
					},
					"renounceOwnership()": {
						"details": "Leaves the contract without owner. It will not be possible to call `onlyOwner` functions anymore. Can only be called by the current owner. NOTE: Renouncing ownership will leave the contract without an owner, thereby removing any functionality that is only available to the owner."
					},
					"transferOwnership(address)": {
						"details": "Transfers ownership of the contract to a new account (`newOwner`). Can only be called by the current owner."
					}
				},
				"version": 1
			},
			"evm": {
				"assembly": "    /* \"ptrn_eco_system_dev_contracts/contracts_ready_for_prod/Copy_PtrnEcoSystemParticipation.sol\":842:12549  contract PtrnEcoSystemParticipation is Pausable, Ownable {... */\n  mstore(0x40, 0xc0)\n    /* \"ptrn_eco_system_dev_contracts/contracts_ready_for_prod/Copy_PtrnEcoSystemParticipation.sol\":1009:1013  true */\n  0x01\n    /* \"ptrn_eco_system_dev_contracts/contracts_ready_for_prod/Copy_PtrnEcoSystemParticipation.sol\":989:1013  bool poolRateFeed = true */\n  dup1\n  exp(0x0100, 0x14)\n  dup2\n  sload\n  dup2\n  0xff\n  mul\n  not\n  and\n  swap1\n  dup4\n  iszero\n  iszero\n  mul\n  or\n  swap1\n  sstore\n  pop\n    /* \"ptrn_eco_system_dev_contracts/contracts_ready_for_prod/Copy_PtrnEcoSystemParticipation.sol\":1141:1142  0 */\n  0x00\n    /* \"ptrn_eco_system_dev_contracts/contracts_ready_for_prod/Copy_PtrnEcoSystemParticipation.sol\":1111:1142  uint256 private totalBurned = 0 */\n  0x04\n  sstore\n    /* \"ptrn_eco_system_dev_contracts/contracts_ready_for_prod/Copy_PtrnEcoSystemParticipation.sol\":1181:1182  0 */\n  0x00\n    /* \"ptrn_eco_system_dev_contracts/contracts_ready_for_prod/Copy_PtrnEcoSystemParticipation.sol\":1148:1182  uint256 private totalConverted = 0 */\n  0x05\n  sstore\n    /* \"ptrn_eco_system_dev_contracts/contracts_ready_for_prod/Copy_PtrnEcoSystemParticipation.sol\":1226:1227  0 */\n  0x00\n    /* \"ptrn_eco_system_dev_contracts/contracts_ready_for_prod/Copy_PtrnEcoSystemParticipation.sol\":1188:1227  uint256 private availableToWithdraw = 0 */\n  0x06\n  sstore\n    /* \"ptrn_eco_system_dev_contracts/contracts_ready_for_prod/Copy_PtrnEcoSystemParticipation.sol\":1265:1266  0 */\n  0x00\n    /* \"ptrn_eco_system_dev_contracts/contracts_ready_for_prod/Copy_PtrnEcoSystemParticipation.sol\":1233:1266  uint256 private dailyWithdraw = 0 */\n  0x07\n  sstore\n    /* \"ptrn_eco_system_dev_contracts/contracts_ready_for_prod/Copy_PtrnEcoSystemParticipation.sol\":2473:2656  constructor(address _acceptedTokens, address _activator) {... */\n  callvalue\n  dup1\n  iszero\n  tag_1\n  jumpi\n  0x00\n  dup1\n  revert\ntag_1:\n  pop\n  mload(0x40)\n  sub(codesize, bytecodeSize)\n  dup1\n  bytecodeSize\n  dup4\n  codecopy\n  dup2\n  dup2\n  add\n  0x40\n  mstore\n  dup2\n  add\n  swap1\n  tag_2\n  swap2\n  swap1\n  tag_3\n  jump\t// in\ntag_2:\n    /* \"@openzeppelin/contracts/security/Pausable.sol\":1006:1011  false */\n  0x00\n    /* \"@openzeppelin/contracts/security/Pausable.sol\":996:1003  _paused */\n  dup1\n  0x00\n    /* \"@openzeppelin/contracts/security/Pausable.sol\":996:1011  _paused = false */\n  0x0100\n  exp\n  dup2\n  sload\n  dup2\n  0xff\n  mul\n  not\n  and\n  swap1\n  dup4\n  iszero\n  iszero\n  mul\n  or\n  swap1\n  sstore\n  pop\n    /* \"@openzeppelin/contracts/access/Ownable.sol\":936:968  _transferOwnership(_msgSender()) */\n  tag_9\n    /* \"@openzeppelin/contracts/access/Ownable.sol\":955:967  _msgSender() */\n  tag_10\n    /* \"@openzeppelin/contracts/access/Ownable.sol\":955:965  _msgSender */\n  shl(0x20, tag_11)\n    /* \"@openzeppelin/contracts/access/Ownable.sol\":955:967  _msgSender() */\n  0x20\n  shr\n  jump\t// in\ntag_10:\n    /* \"@openzeppelin/contracts/access/Ownable.sol\":936:954  _transferOwnership */\n  shl(0x20, tag_12)\n    /* \"@openzeppelin/contracts/access/Ownable.sol\":936:968  _transferOwnership(_msgSender()) */\n  0x20\n  shr\n  jump\t// in\ntag_9:\n    /* \"ptrn_eco_system_dev_contracts/contracts_ready_for_prod/Copy_PtrnEcoSystemParticipation.sol\":2552:2562  _activator */\n  dup1\n    /* \"ptrn_eco_system_dev_contracts/contracts_ready_for_prod/Copy_PtrnEcoSystemParticipation.sol\":2540:2562  ACTIVATOR = _activator */\n  0xffffffffffffffffffffffffffffffffffffffff\n  and\n  0x80\n  dup2\n  0xffffffffffffffffffffffffffffffffffffffff\n  and\n  dup2\n  mstore\n  pop\n  pop\n    /* \"ptrn_eco_system_dev_contracts/contracts_ready_for_prod/Copy_PtrnEcoSystemParticipation.sol\":2595:2610  _acceptedTokens */\n  dup2\n    /* \"ptrn_eco_system_dev_contracts/contracts_ready_for_prod/Copy_PtrnEcoSystemParticipation.sol\":2572:2611  TOKEN = IERC20Burnable(_acceptedTokens) */\n  0xffffffffffffffffffffffffffffffffffffffff\n  and\n  0xa0\n  dup2\n  0xffffffffffffffffffffffffffffffffffffffff\n  and\n  dup2\n  mstore\n  pop\n  pop\n    /* \"ptrn_eco_system_dev_contracts/contracts_ready_for_prod/Copy_PtrnEcoSystemParticipation.sol\":2635:2640  TOKEN */\n  mload(0xa0)\n    /* \"ptrn_eco_system_dev_contracts/contracts_ready_for_prod/Copy_PtrnEcoSystemParticipation.sol\":2635:2647  TOKEN.symbol */\n  0xffffffffffffffffffffffffffffffffffffffff\n  and\n  0x95d89b41\n    /* \"ptrn_eco_system_dev_contracts/contracts_ready_for_prod/Copy_PtrnEcoSystemParticipation.sol\":2635:2649  TOKEN.symbol() */\n  mload(0x40)\n  dup2\n  0xffffffff\n  and\n  0xe0\n  shl\n  dup2\n  mstore\n  0x04\n  add\n  0x00\n  mload(0x40)\n  dup1\n  dup4\n  sub\n  dup2\n  0x00\n  dup8\n  gas\n  call\n  iszero\n  dup1\n  iszero\n  tag_15\n  jumpi\n  returndatasize\n  0x00\n  dup1\n  returndatacopy\n  revert(0x00, returndatasize)\ntag_15:\n  pop\n  pop\n  pop\n  pop\n  mload(0x40)\n  returndatasize\n  0x00\n  dup3\n  returndatacopy\n  returndatasize\n  not(0x1f)\n  0x1f\n  dup3\n  add\n  and\n  dup3\n  add\n  dup1\n  0x40\n  mstore\n  pop\n  dup2\n  add\n  swap1\n  tag_16\n  swap2\n  swap1\n  tag_17\n  jump\t// in\ntag_16:\n    /* \"ptrn_eco_system_dev_contracts/contracts_ready_for_prod/Copy_PtrnEcoSystemParticipation.sol\":2621:2632  tokenSymbol */\n  0x08\n    /* \"ptrn_eco_system_dev_contracts/contracts_ready_for_prod/Copy_PtrnEcoSystemParticipation.sol\":2621:2649  tokenSymbol = TOKEN.symbol() */\n  swap1\n  dup2\n  tag_18\n  swap2\n  swap1\n  tag_19\n  jump\t// in\ntag_18:\n  pop\n    /* \"ptrn_eco_system_dev_contracts/contracts_ready_for_prod/Copy_PtrnEcoSystemParticipation.sol\":2473:2656  constructor(address _acceptedTokens, address _activator) {... */\n  pop\n  pop\n    /* \"ptrn_eco_system_dev_contracts/contracts_ready_for_prod/Copy_PtrnEcoSystemParticipation.sol\":842:12549  contract PtrnEcoSystemParticipation is Pausable, Ownable {... */\n  jump(tag_20)\n    /* \"@openzeppelin/contracts/utils/Context.sol\":640:736  function _msgSender() internal view virtual returns (address) {... */\ntag_11:\n    /* \"@openzeppelin/contracts/utils/Context.sol\":693:700  address */\n  0x00\n    /* \"@openzeppelin/contracts/utils/Context.sol\":719:729  msg.sender */\n  caller\n    /* \"@openzeppelin/contracts/utils/Context.sol\":712:729  return msg.sender */\n  swap1\n  pop\n    /* \"@openzeppelin/contracts/utils/Context.sol\":640:736  function _msgSender() internal view virtual returns (address) {... */\n  swap1\n  jump\t// out\n    /* \"@openzeppelin/contracts/access/Ownable.sol\":2433:2620  function _transferOwnership(address newOwner) internal virtual {... */\ntag_12:\n    /* \"@openzeppelin/contracts/access/Ownable.sol\":2506:2522  address oldOwner */\n  0x00\n    /* \"@openzeppelin/contracts/access/Ownable.sol\":2525:2531  _owner */\n  dup1\n  0x01\n  swap1\n  sload\n  swap1\n  0x0100\n  exp\n  swap1\n  div\n  0xffffffffffffffffffffffffffffffffffffffff\n  and\n    /* \"@openzeppelin/contracts/access/Ownable.sol\":2506:2531  address oldOwner = _owner */\n  swap1\n  pop\n    /* \"@openzeppelin/contracts/access/Ownable.sol\":2550:2558  newOwner */\n  dup2\n    /* \"@openzeppelin/contracts/access/Ownable.sol\":2541:2547  _owner */\n  0x00\n  0x01\n    /* \"@openzeppelin/contracts/access/Ownable.sol\":2541:2558  _owner = newOwner */\n  0x0100\n  exp\n  dup2\n  sload\n  dup2\n  0xffffffffffffffffffffffffffffffffffffffff\n  mul\n  not\n  and\n  swap1\n  dup4\n  0xffffffffffffffffffffffffffffffffffffffff\n  and\n  mul\n  or\n  swap1\n  sstore\n  pop\n    /* \"@openzeppelin/contracts/access/Ownable.sol\":2604:2612  newOwner */\n  dup2\n    /* \"@openzeppelin/contracts/access/Ownable.sol\":2573:2613  OwnershipTransferred(oldOwner, newOwner) */\n  0xffffffffffffffffffffffffffffffffffffffff\n  and\n    /* \"@openzeppelin/contracts/access/Ownable.sol\":2594:2602  oldOwner */\n  dup2\n    /* \"@openzeppelin/contracts/access/Ownable.sol\":2573:2613  OwnershipTransferred(oldOwner, newOwner) */\n  0xffffffffffffffffffffffffffffffffffffffff\n  and\n  0x8be0079c531659141344cd1fd0a4f28419497f9722a3daafe3b4186f6b6457e0\n  mload(0x40)\n  mload(0x40)\n  dup1\n  swap2\n  sub\n  swap1\n  log3\n    /* \"@openzeppelin/contracts/access/Ownable.sol\":2496:2620  {... */\n  pop\n    /* \"@openzeppelin/contracts/access/Ownable.sol\":2433:2620  function _transferOwnership(address newOwner) internal virtual {... */\n  pop\n  jump\t// out\n    /* \"#utility.yul\":7:82   */\ntag_23:\n    /* \"#utility.yul\":40:46   */\n  0x00\n    /* \"#utility.yul\":73:75   */\n  0x40\n    /* \"#utility.yul\":67:76   */\n  mload\n    /* \"#utility.yul\":57:76   */\n  swap1\n  pop\n    /* \"#utility.yul\":7:82   */\n  swap1\n  jump\t// out\n    /* \"#utility.yul\":88:205   */\ntag_24:\n    /* \"#utility.yul\":197:198   */\n  0x00\n    /* \"#utility.yul\":194:195   */\n  dup1\n    /* \"#utility.yul\":187:199   */\n  revert\n    /* \"#utility.yul\":211:328   */\ntag_25:\n    /* \"#utility.yul\":320:321   */\n  0x00\n    /* \"#utility.yul\":317:318   */\n  dup1\n    /* \"#utility.yul\":310:322   */\n  revert\n    /* \"#utility.yul\":334:460   */\ntag_26:\n    /* \"#utility.yul\":371:378   */\n  0x00\n    /* \"#utility.yul\":411:453   */\n  0xffffffffffffffffffffffffffffffffffffffff\n    /* \"#utility.yul\":404:409   */\n  dup3\n    /* \"#utility.yul\":400:454   */\n  and\n    /* \"#utility.yul\":389:454   */\n  swap1\n  pop\n    /* \"#utility.yul\":334:460   */\n  swap2\n  swap1\n  pop\n  jump\t// out\n    /* \"#utility.yul\":466:562   */\ntag_27:\n    /* \"#utility.yul\":503:510   */\n  0x00\n    /* \"#utility.yul\":532:556   */\n  tag_65\n    /* \"#utility.yul\":550:555   */\n  dup3\n    /* \"#utility.yul\":532:556   */\n  tag_26\n  jump\t// in\ntag_65:\n    /* \"#utility.yul\":521:556   */\n  swap1\n  pop\n    /* \"#utility.yul\":466:562   */\n  swap2\n  swap1\n  pop\n  jump\t// out\n    /* \"#utility.yul\":568:690   */\ntag_28:\n    /* \"#utility.yul\":641:665   */\n  tag_67\n    /* \"#utility.yul\":659:664   */\n  dup2\n    /* \"#utility.yul\":641:665   */\n  tag_27\n  jump\t// in\ntag_67:\n    /* \"#utility.yul\":634:639   */\n  dup2\n    /* \"#utility.yul\":631:666   */\n  eq\n    /* \"#utility.yul\":621:684   */\n  tag_68\n  jumpi\n    /* \"#utility.yul\":680:681   */\n  0x00\n    /* \"#utility.yul\":677:678   */\n  dup1\n    /* \"#utility.yul\":670:682   */\n  revert\n    /* \"#utility.yul\":621:684   */\ntag_68:\n    /* \"#utility.yul\":568:690   */\n  pop\n  jump\t// out\n    /* \"#utility.yul\":696:839   */\ntag_29:\n    /* \"#utility.yul\":753:758   */\n  0x00\n    /* \"#utility.yul\":784:790   */\n  dup2\n    /* \"#utility.yul\":778:791   */\n  mload\n    /* \"#utility.yul\":769:791   */\n  swap1\n  pop\n    /* \"#utility.yul\":800:833   */\n  tag_70\n    /* \"#utility.yul\":827:832   */\n  dup2\n    /* \"#utility.yul\":800:833   */\n  tag_28\n  jump\t// in\ntag_70:\n    /* \"#utility.yul\":696:839   */\n  swap3\n  swap2\n  pop\n  pop\n  jump\t// out\n    /* \"#utility.yul\":845:1352   */\ntag_3:\n    /* \"#utility.yul\":924:930   */\n  0x00\n    /* \"#utility.yul\":932:938   */\n  dup1\n    /* \"#utility.yul\":981:983   */\n  0x40\n    /* \"#utility.yul\":969:978   */\n  dup4\n    /* \"#utility.yul\":960:967   */\n  dup6\n    /* \"#utility.yul\":956:979   */\n  sub\n    /* \"#utility.yul\":952:984   */\n  slt\n    /* \"#utility.yul\":949:1068   */\n  iszero\n  tag_72\n  jumpi\n    /* \"#utility.yul\":987:1066   */\n  tag_73\n  tag_24\n  jump\t// in\ntag_73:\n    /* \"#utility.yul\":949:1068   */\ntag_72:\n    /* \"#utility.yul\":1107:1108   */\n  0x00\n    /* \"#utility.yul\":1132:1196   */\n  tag_74\n    /* \"#utility.yul\":1188:1195   */\n  dup6\n    /* \"#utility.yul\":1179:1185   */\n  dup3\n    /* \"#utility.yul\":1168:1177   */\n  dup7\n    /* \"#utility.yul\":1164:1186   */\n  add\n    /* \"#utility.yul\":1132:1196   */\n  tag_29\n  jump\t// in\ntag_74:\n    /* \"#utility.yul\":1122:1196   */\n  swap3\n  pop\n    /* \"#utility.yul\":1078:1206   */\n  pop\n    /* \"#utility.yul\":1245:1247   */\n  0x20\n    /* \"#utility.yul\":1271:1335   */\n  tag_75\n    /* \"#utility.yul\":1327:1334   */\n  dup6\n    /* \"#utility.yul\":1318:1324   */\n  dup3\n    /* \"#utility.yul\":1307:1316   */\n  dup7\n    /* \"#utility.yul\":1303:1325   */\n  add\n    /* \"#utility.yul\":1271:1335   */\n  tag_29\n  jump\t// in\ntag_75:\n    /* \"#utility.yul\":1261:1335   */\n  swap2\n  pop\n    /* \"#utility.yul\":1216:1345   */\n  pop\n    /* \"#utility.yul\":845:1352   */\n  swap3\n  pop\n  swap3\n  swap1\n  pop\n  jump\t// out\n    /* \"#utility.yul\":1358:1475   */\ntag_30:\n    /* \"#utility.yul\":1467:1468   */\n  0x00\n    /* \"#utility.yul\":1464:1465   */\n  dup1\n    /* \"#utility.yul\":1457:1469   */\n  revert\n    /* \"#utility.yul\":1481:1598   */\ntag_31:\n    /* \"#utility.yul\":1590:1591   */\n  0x00\n    /* \"#utility.yul\":1587:1588   */\n  dup1\n    /* \"#utility.yul\":1580:1592   */\n  revert\n    /* \"#utility.yul\":1604:1706   */\ntag_32:\n    /* \"#utility.yul\":1645:1651   */\n  0x00\n    /* \"#utility.yul\":1696:1698   */\n  0x1f\n    /* \"#utility.yul\":1692:1699   */\n  not\n    /* \"#utility.yul\":1687:1689   */\n  0x1f\n    /* \"#utility.yul\":1680:1685   */\n  dup4\n    /* \"#utility.yul\":1676:1690   */\n  add\n    /* \"#utility.yul\":1672:1700   */\n  and\n    /* \"#utility.yul\":1662:1700   */\n  swap1\n  pop\n    /* \"#utility.yul\":1604:1706   */\n  swap2\n  swap1\n  pop\n  jump\t// out\n    /* \"#utility.yul\":1712:1892   */\ntag_33:\n    /* \"#utility.yul\":1760:1837   */\n  0x4e487b7100000000000000000000000000000000000000000000000000000000\n    /* \"#utility.yul\":1757:1758   */\n  0x00\n    /* \"#utility.yul\":1750:1838   */\n  mstore\n    /* \"#utility.yul\":1857:1861   */\n  0x41\n    /* \"#utility.yul\":1854:1855   */\n  0x04\n    /* \"#utility.yul\":1847:1862   */\n  mstore\n    /* \"#utility.yul\":1881:1885   */\n  0x24\n    /* \"#utility.yul\":1878:1879   */\n  0x00\n    /* \"#utility.yul\":1871:1886   */\n  revert\n    /* \"#utility.yul\":1898:2179   */\ntag_34:\n    /* \"#utility.yul\":1981:2008   */\n  tag_81\n    /* \"#utility.yul\":2003:2007   */\n  dup3\n    /* \"#utility.yul\":1981:2008   */\n  tag_32\n  jump\t// in\ntag_81:\n    /* \"#utility.yul\":1973:1979   */\n  dup2\n    /* \"#utility.yul\":1969:2009   */\n  add\n    /* \"#utility.yul\":2111:2117   */\n  dup2\n    /* \"#utility.yul\":2099:2109   */\n  dup2\n    /* \"#utility.yul\":2096:2118   */\n  lt\n    /* \"#utility.yul\":2075:2093   */\n  0xffffffffffffffff\n    /* \"#utility.yul\":2063:2073   */\n  dup3\n    /* \"#utility.yul\":2060:2094   */\n  gt\n    /* \"#utility.yul\":2057:2119   */\n  or\n    /* \"#utility.yul\":2054:2142   */\n  iszero\n  tag_82\n  jumpi\n    /* \"#utility.yul\":2122:2140   */\n  tag_83\n  tag_33\n  jump\t// in\ntag_83:\n    /* \"#utility.yul\":2054:2142   */\ntag_82:\n    /* \"#utility.yul\":2162:2172   */\n  dup1\n    /* \"#utility.yul\":2158:2160   */\n  0x40\n    /* \"#utility.yul\":2151:2173   */\n  mstore\n    /* \"#utility.yul\":1941:2179   */\n  pop\n    /* \"#utility.yul\":1898:2179   */\n  pop\n  pop\n  jump\t// out\n    /* \"#utility.yul\":2185:2314   */\ntag_35:\n    /* \"#utility.yul\":2219:2225   */\n  0x00\n    /* \"#utility.yul\":2246:2266   */\n  tag_85\n  tag_23\n  jump\t// in\ntag_85:\n    /* \"#utility.yul\":2236:2266   */\n  swap1\n  pop\n    /* \"#utility.yul\":2275:2308   */\n  tag_86\n    /* \"#utility.yul\":2303:2307   */\n  dup3\n    /* \"#utility.yul\":2295:2301   */\n  dup3\n    /* \"#utility.yul\":2275:2308   */\n  tag_34\n  jump\t// in\ntag_86:\n    /* \"#utility.yul\":2185:2314   */\n  swap2\n  swap1\n  pop\n  jump\t// out\n    /* \"#utility.yul\":2320:2628   */\ntag_36:\n    /* \"#utility.yul\":2382:2386   */\n  0x00\n    /* \"#utility.yul\":2472:2490   */\n  0xffffffffffffffff\n    /* \"#utility.yul\":2464:2470   */\n  dup3\n    /* \"#utility.yul\":2461:2491   */\n  gt\n    /* \"#utility.yul\":2458:2514   */\n  iszero\n  tag_88\n  jumpi\n    /* \"#utility.yul\":2494:2512   */\n  tag_89\n  tag_33\n  jump\t// in\ntag_89:\n    /* \"#utility.yul\":2458:2514   */\ntag_88:\n    /* \"#utility.yul\":2532:2561   */\n  tag_90\n    /* \"#utility.yul\":2554:2560   */\n  dup3\n    /* \"#utility.yul\":2532:2561   */\n  tag_32\n  jump\t// in\ntag_90:\n    /* \"#utility.yul\":2524:2561   */\n  swap1\n  pop\n    /* \"#utility.yul\":2616:2620   */\n  0x20\n    /* \"#utility.yul\":2610:2614   */\n  dup2\n    /* \"#utility.yul\":2606:2621   */\n  add\n    /* \"#utility.yul\":2598:2621   */\n  swap1\n  pop\n    /* \"#utility.yul\":2320:2628   */\n  swap2\n  swap1\n  pop\n  jump\t// out\n    /* \"#utility.yul\":2634:2880   */\ntag_37:\n    /* \"#utility.yul\":2715:2716   */\n  0x00\n    /* \"#utility.yul\":2725:2838   */\ntag_92:\n    /* \"#utility.yul\":2739:2745   */\n  dup4\n    /* \"#utility.yul\":2736:2737   */\n  dup2\n    /* \"#utility.yul\":2733:2746   */\n  lt\n    /* \"#utility.yul\":2725:2838   */\n  iszero\n  tag_94\n  jumpi\n    /* \"#utility.yul\":2824:2825   */\n  dup1\n    /* \"#utility.yul\":2819:2822   */\n  dup3\n    /* \"#utility.yul\":2815:2826   */\n  add\n    /* \"#utility.yul\":2809:2827   */\n  mload\n    /* \"#utility.yul\":2805:2806   */\n  dup2\n    /* \"#utility.yul\":2800:2803   */\n  dup5\n    /* \"#utility.yul\":2796:2807   */\n  add\n    /* \"#utility.yul\":2789:2828   */\n  mstore\n    /* \"#utility.yul\":2761:2763   */\n  0x20\n    /* \"#utility.yul\":2758:2759   */\n  dup2\n    /* \"#utility.yul\":2754:2764   */\n  add\n    /* \"#utility.yul\":2749:2764   */\n  swap1\n  pop\n    /* \"#utility.yul\":2725:2838   */\n  jump(tag_92)\ntag_94:\n    /* \"#utility.yul\":2872:2873   */\n  0x00\n    /* \"#utility.yul\":2863:2869   */\n  dup5\n    /* \"#utility.yul\":2858:2861   */\n  dup5\n    /* \"#utility.yul\":2854:2870   */\n  add\n    /* \"#utility.yul\":2847:2874   */\n  mstore\n    /* \"#utility.yul\":2696:2880   */\n  pop\n    /* \"#utility.yul\":2634:2880   */\n  pop\n  pop\n  pop\n  jump\t// out\n    /* \"#utility.yul\":2886:3320   */\ntag_38:\n    /* \"#utility.yul\":2975:2980   */\n  0x00\n    /* \"#utility.yul\":3000:3066   */\n  tag_96\n    /* \"#utility.yul\":3016:3065   */\n  tag_97\n    /* \"#utility.yul\":3058:3064   */\n  dup5\n    /* \"#utility.yul\":3016:3065   */\n  tag_36\n  jump\t// in\ntag_97:\n    /* \"#utility.yul\":3000:3066   */\n  tag_35\n  jump\t// in\ntag_96:\n    /* \"#utility.yul\":2991:3066   */\n  swap1\n  pop\n    /* \"#utility.yul\":3089:3095   */\n  dup3\n    /* \"#utility.yul\":3082:3087   */\n  dup2\n    /* \"#utility.yul\":3075:3096   */\n  mstore\n    /* \"#utility.yul\":3127:3131   */\n  0x20\n    /* \"#utility.yul\":3120:3125   */\n  dup2\n    /* \"#utility.yul\":3116:3132   */\n  add\n    /* \"#utility.yul\":3165:3168   */\n  dup5\n    /* \"#utility.yul\":3156:3162   */\n  dup5\n    /* \"#utility.yul\":3151:3154   */\n  dup5\n    /* \"#utility.yul\":3147:3163   */\n  add\n    /* \"#utility.yul\":3144:3169   */\n  gt\n    /* \"#utility.yul\":3141:3253   */\n  iszero\n  tag_98\n  jumpi\n    /* \"#utility.yul\":3172:3251   */\n  tag_99\n  tag_31\n  jump\t// in\ntag_99:\n    /* \"#utility.yul\":3141:3253   */\ntag_98:\n    /* \"#utility.yul\":3262:3314   */\n  tag_100\n    /* \"#utility.yul\":3307:3313   */\n  dup5\n    /* \"#utility.yul\":3302:3305   */\n  dup3\n    /* \"#utility.yul\":3297:3300   */\n  dup6\n    /* \"#utility.yul\":3262:3314   */\n  tag_37\n  jump\t// in\ntag_100:\n    /* \"#utility.yul\":2981:3320   */\n  pop\n    /* \"#utility.yul\":2886:3320   */\n  swap4\n  swap3\n  pop\n  pop\n  pop\n  jump\t// out\n    /* \"#utility.yul\":3340:3695   */\ntag_39:\n    /* \"#utility.yul\":3407:3412   */\n  0x00\n    /* \"#utility.yul\":3456:3459   */\n  dup3\n    /* \"#utility.yul\":3449:3453   */\n  0x1f\n    /* \"#utility.yul\":3441:3447   */\n  dup4\n    /* \"#utility.yul\":3437:3454   */\n  add\n    /* \"#utility.yul\":3433:3460   */\n  slt\n    /* \"#utility.yul\":3423:3545   */\n  tag_102\n  jumpi\n    /* \"#utility.yul\":3464:3543   */\n  tag_103\n  tag_30\n  jump\t// in\ntag_103:\n    /* \"#utility.yul\":3423:3545   */\ntag_102:\n    /* \"#utility.yul\":3574:3580   */\n  dup2\n    /* \"#utility.yul\":3568:3581   */\n  mload\n    /* \"#utility.yul\":3599:3689   */\n  tag_104\n    /* \"#utility.yul\":3685:3688   */\n  dup5\n    /* \"#utility.yul\":3677:3683   */\n  dup3\n    /* \"#utility.yul\":3670:3674   */\n  0x20\n    /* \"#utility.yul\":3662:3668   */\n  dup7\n    /* \"#utility.yul\":3658:3675   */\n  add\n    /* \"#utility.yul\":3599:3689   */\n  tag_38\n  jump\t// in\ntag_104:\n    /* \"#utility.yul\":3590:3689   */\n  swap2\n  pop\n    /* \"#utility.yul\":3413:3695   */\n  pop\n    /* \"#utility.yul\":3340:3695   */\n  swap3\n  swap2\n  pop\n  pop\n  jump\t// out\n    /* \"#utility.yul\":3701:4225   */\ntag_17:\n    /* \"#utility.yul\":3781:3787   */\n  0x00\n    /* \"#utility.yul\":3830:3832   */\n  0x20\n    /* \"#utility.yul\":3818:3827   */\n  dup3\n    /* \"#utility.yul\":3809:3816   */\n  dup5\n    /* \"#utility.yul\":3805:3828   */\n  sub\n    /* \"#utility.yul\":3801:3833   */\n  slt\n    /* \"#utility.yul\":3798:3917   */\n  iszero\n  tag_106\n  jumpi\n    /* \"#utility.yul\":3836:3915   */\n  tag_107\n  tag_24\n  jump\t// in\ntag_107:\n    /* \"#utility.yul\":3798:3917   */\ntag_106:\n    /* \"#utility.yul\":3977:3978   */\n  0x00\n    /* \"#utility.yul\":3966:3975   */\n  dup3\n    /* \"#utility.yul\":3962:3979   */\n  add\n    /* \"#utility.yul\":3956:3980   */\n  mload\n    /* \"#utility.yul\":4007:4025   */\n  0xffffffffffffffff\n    /* \"#utility.yul\":3999:4005   */\n  dup2\n    /* \"#utility.yul\":3996:4026   */\n  gt\n    /* \"#utility.yul\":3993:4110   */\n  iszero\n  tag_108\n  jumpi\n    /* \"#utility.yul\":4029:4108   */\n  tag_109\n  tag_25\n  jump\t// in\ntag_109:\n    /* \"#utility.yul\":3993:4110   */\ntag_108:\n    /* \"#utility.yul\":4134:4208   */\n  tag_110\n    /* \"#utility.yul\":4200:4207   */\n  dup5\n    /* \"#utility.yul\":4191:4197   */\n  dup3\n    /* \"#utility.yul\":4180:4189   */\n  dup6\n    /* \"#utility.yul\":4176:4198   */\n  add\n    /* \"#utility.yul\":4134:4208   */\n  tag_39\n  jump\t// in\ntag_110:\n    /* \"#utility.yul\":4124:4208   */\n  swap2\n  pop\n    /* \"#utility.yul\":3927:4218   */\n  pop\n    /* \"#utility.yul\":3701:4225   */\n  swap3\n  swap2\n  pop\n  pop\n  jump\t// out\n    /* \"#utility.yul\":4231:4330   */\ntag_40:\n    /* \"#utility.yul\":4283:4289   */\n  0x00\n    /* \"#utility.yul\":4317:4322   */\n  dup2\n    /* \"#utility.yul\":4311:4323   */\n  mload\n    /* \"#utility.yul\":4301:4323   */\n  swap1\n  pop\n    /* \"#utility.yul\":4231:4330   */\n  swap2\n  swap1\n  pop\n  jump\t// out\n    /* \"#utility.yul\":4336:4516   */\ntag_41:\n    /* \"#utility.yul\":4384:4461   */\n  0x4e487b7100000000000000000000000000000000000000000000000000000000\n    /* \"#utility.yul\":4381:4382   */\n  0x00\n    /* \"#utility.yul\":4374:4462   */\n  mstore\n    /* \"#utility.yul\":4481:4485   */\n  0x22\n    /* \"#utility.yul\":4478:4479   */\n  0x04\n    /* \"#utility.yul\":4471:4486   */\n  mstore\n    /* \"#utility.yul\":4505:4509   */\n  0x24\n    /* \"#utility.yul\":4502:4503   */\n  0x00\n    /* \"#utility.yul\":4495:4510   */\n  revert\n    /* \"#utility.yul\":4522:4842   */\ntag_42:\n    /* \"#utility.yul\":4566:4572   */\n  0x00\n    /* \"#utility.yul\":4603:4604   */\n  0x02\n    /* \"#utility.yul\":4597:4601   */\n  dup3\n    /* \"#utility.yul\":4593:4605   */\n  div\n    /* \"#utility.yul\":4583:4605   */\n  swap1\n  pop\n    /* \"#utility.yul\":4650:4651   */\n  0x01\n    /* \"#utility.yul\":4644:4648   */\n  dup3\n    /* \"#utility.yul\":4640:4652   */\n  and\n    /* \"#utility.yul\":4671:4689   */\n  dup1\n    /* \"#utility.yul\":4661:4742   */\n  tag_114\n  jumpi\n    /* \"#utility.yul\":4727:4731   */\n  0x7f\n    /* \"#utility.yul\":4719:4725   */\n  dup3\n    /* \"#utility.yul\":4715:4732   */\n  and\n    /* \"#utility.yul\":4705:4732   */\n  swap2\n  pop\n    /* \"#utility.yul\":4661:4742   */\ntag_114:\n    /* \"#utility.yul\":4789:4791   */\n  0x20\n    /* \"#utility.yul\":4781:4787   */\n  dup3\n    /* \"#utility.yul\":4778:4792   */\n  lt\n    /* \"#utility.yul\":4758:4776   */\n  dup2\n    /* \"#utility.yul\":4755:4793   */\n  sub\n    /* \"#utility.yul\":4752:4836   */\n  tag_115\n  jumpi\n    /* \"#utility.yul\":4808:4826   */\n  tag_116\n  tag_41\n  jump\t// in\ntag_116:\n    /* \"#utility.yul\":4752:4836   */\ntag_115:\n    /* \"#utility.yul\":4573:4842   */\n  pop\n    /* \"#utility.yul\":4522:4842   */\n  swap2\n  swap1\n  pop\n  jump\t// out\n    /* \"#utility.yul\":4848:4989   */\ntag_43:\n    /* \"#utility.yul\":4897:4901   */\n  0x00\n    /* \"#utility.yul\":4920:4923   */\n  dup2\n    /* \"#utility.yul\":4912:4923   */\n  swap1\n  pop\n    /* \"#utility.yul\":4943:4946   */\n  dup2\n    /* \"#utility.yul\":4940:4941   */\n  0x00\n    /* \"#utility.yul\":4933:4947   */\n  mstore\n    /* \"#utility.yul\":4977:4981   */\n  0x20\n    /* \"#utility.yul\":4974:4975   */\n  0x00\n    /* \"#utility.yul\":4964:4982   */\n  keccak256\n    /* \"#utility.yul\":4956:4982   */\n  swap1\n  pop\n    /* \"#utility.yul\":4848:4989   */\n  swap2\n  swap1\n  pop\n  jump\t// out\n    /* \"#utility.yul\":4995:5088   */\ntag_44:\n    /* \"#utility.yul\":5032:5038   */\n  0x00\n    /* \"#utility.yul\":5079:5081   */\n  0x20\n    /* \"#utility.yul\":5074:5076   */\n  0x1f\n    /* \"#utility.yul\":5067:5072   */\n  dup4\n    /* \"#utility.yul\":5063:5077   */\n  add\n    /* \"#utility.yul\":5059:5082   */\n  div\n    /* \"#utility.yul\":5049:5082   */\n  swap1\n  pop\n    /* \"#utility.yul\":4995:5088   */\n  swap2\n  swap1\n  pop\n  jump\t// out\n    /* \"#utility.yul\":5094:5201   */\ntag_45:\n    /* \"#utility.yul\":5138:5146   */\n  0x00\n    /* \"#utility.yul\":5188:5193   */\n  dup3\n    /* \"#utility.yul\":5182:5186   */\n  dup3\n    /* \"#utility.yul\":5178:5194   */\n  shl\n    /* \"#utility.yul\":5157:5194   */\n  swap1\n  pop\n    /* \"#utility.yul\":5094:5201   */\n  swap3\n  swap2\n  pop\n  pop\n  jump\t// out\n    /* \"#utility.yul\":5207:5600   */\ntag_46:\n    /* \"#utility.yul\":5276:5282   */\n  0x00\n    /* \"#utility.yul\":5326:5327   */\n  0x08\n    /* \"#utility.yul\":5314:5324   */\n  dup4\n    /* \"#utility.yul\":5310:5328   */\n  mul\n    /* \"#utility.yul\":5349:5446   */\n  tag_121\n    /* \"#utility.yul\":5379:5445   */\n  0xffffffffffffffffffffffffffffffffffffffffffffffffffffffffffffffff\n    /* \"#utility.yul\":5368:5377   */\n  dup3\n    /* \"#utility.yul\":5349:5446   */\n  tag_45\n  jump\t// in\ntag_121:\n    /* \"#utility.yul\":5467:5506   */\n  tag_122\n    /* \"#utility.yul\":5497:5505   */\n  dup7\n    /* \"#utility.yul\":5486:5495   */\n  dup4\n    /* \"#utility.yul\":5467:5506   */\n  tag_45\n  jump\t// in\ntag_122:\n    /* \"#utility.yul\":5455:5506   */\n  swap6\n  pop\n    /* \"#utility.yul\":5539:5543   */\n  dup1\n    /* \"#utility.yul\":5535:5544   */\n  not\n    /* \"#utility.yul\":5528:5533   */\n  dup5\n    /* \"#utility.yul\":5524:5545   */\n  and\n    /* \"#utility.yul\":5515:5545   */\n  swap4\n  pop\n    /* \"#utility.yul\":5588:5592   */\n  dup1\n    /* \"#utility.yul\":5578:5586   */\n  dup7\n    /* \"#utility.yul\":5574:5593   */\n  and\n    /* \"#utility.yul\":5567:5572   */\n  dup5\n    /* \"#utility.yul\":5564:5594   */\n  or\n    /* \"#utility.yul\":5554:5594   */\n  swap3\n  pop\n    /* \"#utility.yul\":5283:5600   */\n  pop\n  pop\n    /* \"#utility.yul\":5207:5600   */\n  swap4\n  swap3\n  pop\n  pop\n  pop\n  jump\t// out\n    /* \"#utility.yul\":5606:5683   */\ntag_47:\n    /* \"#utility.yul\":5643:5650   */\n  0x00\n    /* \"#utility.yul\":5672:5677   */\n  dup2\n    /* \"#utility.yul\":5661:5677   */\n  swap1\n  pop\n    /* \"#utility.yul\":5606:5683   */\n  swap2\n  swap1\n  pop\n  jump\t// out\n    /* \"#utility.yul\":5689:5749   */\ntag_48:\n    /* \"#utility.yul\":5717:5720   */\n  0x00\n    /* \"#utility.yul\":5738:5743   */\n  dup2\n    /* \"#utility.yul\":5731:5743   */\n  swap1\n  pop\n    /* \"#utility.yul\":5689:5749   */\n  swap2\n  swap1\n  pop\n  jump\t// out\n    /* \"#utility.yul\":5755:5897   */\ntag_49:\n    /* \"#utility.yul\":5805:5814   */\n  0x00\n    /* \"#utility.yul\":5838:5891   */\n  tag_126\n    /* \"#utility.yul\":5856:5890   */\n  tag_127\n    /* \"#utility.yul\":5865:5889   */\n  tag_128\n    /* \"#utility.yul\":5883:5888   */\n  dup5\n    /* \"#utility.yul\":5865:5889   */\n  tag_47\n  jump\t// in\ntag_128:\n    /* \"#utility.yul\":5856:5890   */\n  tag_48\n  jump\t// in\ntag_127:\n    /* \"#utility.yul\":5838:5891   */\n  tag_47\n  jump\t// in\ntag_126:\n    /* \"#utility.yul\":5825:5891   */\n  swap1\n  pop\n    /* \"#utility.yul\":5755:5897   */\n  swap2\n  swap1\n  pop\n  jump\t// out\n    /* \"#utility.yul\":5903:5978   */\ntag_50:\n    /* \"#utility.yul\":5946:5949   */\n  0x00\n    /* \"#utility.yul\":5967:5972   */\n  dup2\n    /* \"#utility.yul\":5960:5972   */\n  swap1\n  pop\n    /* \"#utility.yul\":5903:5978   */\n  swap2\n  swap1\n  pop\n  jump\t// out\n    /* \"#utility.yul\":5984:6253   */\ntag_51:\n    /* \"#utility.yul\":6094:6133   */\n  tag_131\n    /* \"#utility.yul\":6125:6132   */\n  dup4\n    /* \"#utility.yul\":6094:6133   */\n  tag_49\n  jump\t// in\ntag_131:\n    /* \"#utility.yul\":6155:6246   */\n  tag_132\n    /* \"#utility.yul\":6204:6245   */\n  tag_133\n    /* \"#utility.yul\":6228:6244   */\n  dup3\n    /* \"#utility.yul\":6204:6245   */\n  tag_50\n  jump\t// in\ntag_133:\n    /* \"#utility.yul\":6196:6202   */\n  dup5\n    /* \"#utility.yul\":6189:6193   */\n  dup5\n    /* \"#utility.yul\":6183:6194   */\n  sload\n    /* \"#utility.yul\":6155:6246   */\n  tag_46\n  jump\t// in\ntag_132:\n    /* \"#utility.yul\":6149:6153   */\n  dup3\n    /* \"#utility.yul\":6142:6247   */\n  sstore\n    /* \"#utility.yul\":6060:6253   */\n  pop\n    /* \"#utility.yul\":5984:6253   */\n  pop\n  pop\n  pop\n  jump\t// out\n    /* \"#utility.yul\":6259:6332   */\ntag_52:\n    /* \"#utility.yul\":6304:6307   */\n  0x00\n    /* \"#utility.yul\":6259:6332   */\n  swap1\n  jump\t// out\n    /* \"#utility.yul\":6338:6527   */\ntag_53:\n    /* \"#utility.yul\":6415:6447   */\n  tag_136\n  tag_52\n  jump\t// in\ntag_136:\n    /* \"#utility.yul\":6456:6521   */\n  tag_137\n    /* \"#utility.yul\":6514:6520   */\n  dup2\n    /* \"#utility.yul\":6506:6512   */\n  dup5\n    /* \"#utility.yul\":6500:6504   */\n  dup5\n    /* \"#utility.yul\":6456:6521   */\n  tag_51\n  jump\t// in\ntag_137:\n    /* \"#utility.yul\":6391:6527   */\n  pop\n    /* \"#utility.yul\":6338:6527   */\n  pop\n  pop\n  jump\t// out\n    /* \"#utility.yul\":6533:6719   */\ntag_54:\n    /* \"#utility.yul\":6593:6713   */\ntag_139:\n    /* \"#utility.yul\":6610:6613   */\n  dup2\n    /* \"#utility.yul\":6603:6608   */\n  dup2\n    /* \"#utility.yul\":6600:6614   */\n  lt\n    /* \"#utility.yul\":6593:6713   */\n  iszero\n  tag_141\n  jumpi\n    /* \"#utility.yul\":6664:6703   */\n  tag_142\n    /* \"#utility.yul\":6701:6702   */\n  0x00\n    /* \"#utility.yul\":6694:6699   */\n  dup3\n    /* \"#utility.yul\":6664:6703   */\n  tag_53\n  jump\t// in\ntag_142:\n    /* \"#utility.yul\":6637:6638   */\n  0x01\n    /* \"#utility.yul\":6630:6635   */\n  dup2\n    /* \"#utility.yul\":6626:6639   */\n  add\n    /* \"#utility.yul\":6617:6639   */\n  swap1\n  pop\n    /* \"#utility.yul\":6593:6713   */\n  jump(tag_139)\ntag_141:\n    /* \"#utility.yul\":6533:6719   */\n  pop\n  pop\n  jump\t// out\n    /* \"#utility.yul\":6725:7268   */\ntag_55:\n    /* \"#utility.yul\":6826:6828   */\n  0x1f\n    /* \"#utility.yul\":6821:6824   */\n  dup3\n    /* \"#utility.yul\":6818:6829   */\n  gt\n    /* \"#utility.yul\":6815:7261   */\n  iszero\n  tag_144\n  jumpi\n    /* \"#utility.yul\":6860:6898   */\n  tag_145\n    /* \"#utility.yul\":6892:6897   */\n  dup2\n    /* \"#utility.yul\":6860:6898   */\n  tag_43\n  jump\t// in\ntag_145:\n    /* \"#utility.yul\":6944:6973   */\n  tag_146\n    /* \"#utility.yul\":6962:6972   */\n  dup5\n    /* \"#utility.yul\":6944:6973   */\n  tag_44\n  jump\t// in\ntag_146:\n    /* \"#utility.yul\":6934:6942   */\n  dup2\n    /* \"#utility.yul\":6930:6974   */\n  add\n    /* \"#utility.yul\":7127:7129   */\n  0x20\n    /* \"#utility.yul\":7115:7125   */\n  dup6\n    /* \"#utility.yul\":7112:7130   */\n  lt\n    /* \"#utility.yul\":7109:7158   */\n  iszero\n  tag_147\n  jumpi\n    /* \"#utility.yul\":7148:7156   */\n  dup2\n    /* \"#utility.yul\":7133:7156   */\n  swap1\n  pop\n    /* \"#utility.yul\":7109:7158   */\ntag_147:\n    /* \"#utility.yul\":7171:7251   */\n  tag_148\n    /* \"#utility.yul\":7227:7249   */\n  tag_149\n    /* \"#utility.yul\":7245:7248   */\n  dup6\n    /* \"#utility.yul\":7227:7249   */\n  tag_44\n  jump\t// in\ntag_149:\n    /* \"#utility.yul\":7217:7225   */\n  dup4\n    /* \"#utility.yul\":7213:7250   */\n  add\n    /* \"#utility.yul\":7200:7211   */\n  dup3\n    /* \"#utility.yul\":7171:7251   */\n  tag_54\n  jump\t// in\ntag_148:\n    /* \"#utility.yul\":6830:7261   */\n  pop\n  pop\n    /* \"#utility.yul\":6815:7261   */\ntag_144:\n    /* \"#utility.yul\":6725:7268   */\n  pop\n  pop\n  pop\n  jump\t// out\n    /* \"#utility.yul\":7274:7391   */\ntag_56:\n    /* \"#utility.yul\":7328:7336   */\n  0x00\n    /* \"#utility.yul\":7378:7383   */\n  dup3\n    /* \"#utility.yul\":7372:7376   */\n  dup3\n    /* \"#utility.yul\":7368:7384   */\n  shr\n    /* \"#utility.yul\":7347:7384   */\n  swap1\n  pop\n    /* \"#utility.yul\":7274:7391   */\n  swap3\n  swap2\n  pop\n  pop\n  jump\t// out\n    /* \"#utility.yul\":7397:7566   */\ntag_57:\n    /* \"#utility.yul\":7441:7447   */\n  0x00\n    /* \"#utility.yul\":7474:7525   */\n  tag_152\n    /* \"#utility.yul\":7522:7523   */\n  0x00\n    /* \"#utility.yul\":7518:7524   */\n  not\n    /* \"#utility.yul\":7510:7515   */\n  dup5\n    /* \"#utility.yul\":7507:7508   */\n  0x08\n    /* \"#utility.yul\":7503:7516   */\n  mul\n    /* \"#utility.yul\":7474:7525   */\n  tag_56\n  jump\t// in\ntag_152:\n    /* \"#utility.yul\":7470:7526   */\n  not\n    /* \"#utility.yul\":7555:7559   */\n  dup1\n    /* \"#utility.yul\":7549:7553   */\n  dup4\n    /* \"#utility.yul\":7545:7560   */\n  and\n    /* \"#utility.yul\":7535:7560   */\n  swap2\n  pop\n    /* \"#utility.yul\":7448:7566   */\n  pop\n    /* \"#utility.yul\":7397:7566   */\n  swap3\n  swap2\n  pop\n  pop\n  jump\t// out\n    /* \"#utility.yul\":7571:7866   */\ntag_58:\n    /* \"#utility.yul\":7647:7651   */\n  0x00\n    /* \"#utility.yul\":7793:7822   */\n  tag_154\n    /* \"#utility.yul\":7818:7821   */\n  dup4\n    /* \"#utility.yul\":7812:7816   */\n  dup4\n    /* \"#utility.yul\":7793:7822   */\n  tag_57\n  jump\t// in\ntag_154:\n    /* \"#utility.yul\":7785:7822   */\n  swap2\n  pop\n    /* \"#utility.yul\":7855:7858   */\n  dup3\n    /* \"#utility.yul\":7852:7853   */\n  0x02\n    /* \"#utility.yul\":7848:7859   */\n  mul\n    /* \"#utility.yul\":7842:7846   */\n  dup3\n    /* \"#utility.yul\":7839:7860   */\n  or\n    /* \"#utility.yul\":7831:7860   */\n  swap1\n  pop\n    /* \"#utility.yul\":7571:7866   */\n  swap3\n  swap2\n  pop\n  pop\n  jump\t// out\n    /* \"#utility.yul\":7871:9266   */\ntag_19:\n    /* \"#utility.yul\":7988:8025   */\n  tag_156\n    /* \"#utility.yul\":8021:8024   */\n  dup3\n    /* \"#utility.yul\":7988:8025   */\n  tag_40\n  jump\t// in\ntag_156:\n    /* \"#utility.yul\":8090:8108   */\n  0xffffffffffffffff\n    /* \"#utility.yul\":8082:8088   */\n  dup2\n    /* \"#utility.yul\":8079:8109   */\n  gt\n    /* \"#utility.yul\":8076:8132   */\n  iszero\n  tag_157\n  jumpi\n    /* \"#utility.yul\":8112:8130   */\n  tag_158\n  tag_33\n  jump\t// in\ntag_158:\n    /* \"#utility.yul\":8076:8132   */\ntag_157:\n    /* \"#utility.yul\":8156:8194   */\n  tag_159\n    /* \"#utility.yul\":8188:8192   */\n  dup3\n    /* \"#utility.yul\":8182:8193   */\n  sload\n    /* \"#utility.yul\":8156:8194   */\n  tag_42\n  jump\t// in\ntag_159:\n    /* \"#utility.yul\":8241:8308   */\n  tag_160\n    /* \"#utility.yul\":8301:8307   */\n  dup3\n    /* \"#utility.yul\":8293:8299   */\n  dup3\n    /* \"#utility.yul\":8287:8291   */\n  dup6\n    /* \"#utility.yul\":8241:8308   */\n  tag_55\n  jump\t// in\ntag_160:\n    /* \"#utility.yul\":8335:8336   */\n  0x00\n    /* \"#utility.yul\":8359:8363   */\n  0x20\n    /* \"#utility.yul\":8346:8363   */\n  swap1\n  pop\n    /* \"#utility.yul\":8391:8393   */\n  0x1f\n    /* \"#utility.yul\":8383:8389   */\n  dup4\n    /* \"#utility.yul\":8380:8394   */\n  gt\n    /* \"#utility.yul\":8408:8409   */\n  0x01\n    /* \"#utility.yul\":8403:9021   */\n  dup2\n  eq\n  tag_162\n  jumpi\n    /* \"#utility.yul\":9065:9066   */\n  0x00\n    /* \"#utility.yul\":9082:9088   */\n  dup5\n    /* \"#utility.yul\":9079:9156   */\n  iszero\n  tag_163\n  jumpi\n    /* \"#utility.yul\":9131:9140   */\n  dup3\n    /* \"#utility.yul\":9126:9129   */\n  dup8\n    /* \"#utility.yul\":9122:9141   */\n  add\n    /* \"#utility.yul\":9116:9142   */\n  mload\n    /* \"#utility.yul\":9107:9142   */\n  swap1\n  pop\n    /* \"#utility.yul\":9079:9156   */\ntag_163:\n    /* \"#utility.yul\":9182:9249   */\n  tag_164\n    /* \"#utility.yul\":9242:9248   */\n  dup6\n    /* \"#utility.yul\":9235:9240   */\n  dup3\n    /* \"#utility.yul\":9182:9249   */\n  tag_58\n  jump\t// in\ntag_164:\n    /* \"#utility.yul\":9176:9180   */\n  dup7\n    /* \"#utility.yul\":9169:9250   */\n  sstore\n    /* \"#utility.yul\":9038:9260   */\n  pop\n    /* \"#utility.yul\":8373:9260   */\n  jump(tag_161)\n    /* \"#utility.yul\":8403:9021   */\ntag_162:\n    /* \"#utility.yul\":8455:8459   */\n  0x1f\n    /* \"#utility.yul\":8451:8460   */\n  not\n    /* \"#utility.yul\":8443:8449   */\n  dup5\n    /* \"#utility.yul\":8439:8461   */\n  and\n    /* \"#utility.yul\":8489:8526   */\n  tag_165\n    /* \"#utility.yul\":8521:8525   */\n  dup7\n    /* \"#utility.yul\":8489:8526   */\n  tag_43\n  jump\t// in\ntag_165:\n    /* \"#utility.yul\":8548:8549   */\n  0x00\n    /* \"#utility.yul\":8562:8770   */\ntag_166:\n    /* \"#utility.yul\":8576:8583   */\n  dup3\n    /* \"#utility.yul\":8573:8574   */\n  dup2\n    /* \"#utility.yul\":8570:8584   */\n  lt\n    /* \"#utility.yul\":8562:8770   */\n  iszero\n  tag_168\n  jumpi\n    /* \"#utility.yul\":8655:8664   */\n  dup5\n    /* \"#utility.yul\":8650:8653   */\n  dup10\n    /* \"#utility.yul\":8646:8665   */\n  add\n    /* \"#utility.yul\":8640:8666   */\n  mload\n    /* \"#utility.yul\":8632:8638   */\n  dup3\n    /* \"#utility.yul\":8625:8667   */\n  sstore\n    /* \"#utility.yul\":8706:8707   */\n  0x01\n    /* \"#utility.yul\":8698:8704   */\n  dup3\n    /* \"#utility.yul\":8694:8708   */\n  add\n    /* \"#utility.yul\":8684:8708   */\n  swap2\n  pop\n    /* \"#utility.yul\":8753:8755   */\n  0x20\n    /* \"#utility.yul\":8742:8751   */\n  dup6\n    /* \"#utility.yul\":8738:8756   */\n  add\n    /* \"#utility.yul\":8725:8756   */\n  swap5\n  pop\n    /* \"#utility.yul\":8599:8603   */\n  0x20\n    /* \"#utility.yul\":8596:8597   */\n  dup2\n    /* \"#utility.yul\":8592:8604   */\n  add\n    /* \"#utility.yul\":8587:8604   */\n  swap1\n  pop\n    /* \"#utility.yul\":8562:8770   */\n  jump(tag_166)\ntag_168:\n    /* \"#utility.yul\":8798:8804   */\n  dup7\n    /* \"#utility.yul\":8789:8796   */\n  dup4\n    /* \"#utility.yul\":8786:8805   */\n  lt\n    /* \"#utility.yul\":8783:8962   */\n  iszero\n  tag_169\n  jumpi\n    /* \"#utility.yul\":8856:8865   */\n  dup5\n    /* \"#utility.yul\":8851:8854   */\n  dup10\n    /* \"#utility.yul\":8847:8866   */\n  add\n    /* \"#utility.yul\":8841:8867   */\n  mload\n    /* \"#utility.yul\":8899:8947   */\n  tag_170\n    /* \"#utility.yul\":8941:8945   */\n  0x1f\n    /* \"#utility.yul\":8933:8939   */\n  dup10\n    /* \"#utility.yul\":8929:8946   */\n  and\n    /* \"#utility.yul\":8918:8927   */\n  dup3\n    /* \"#utility.yul\":8899:8947   */\n  tag_57\n  jump\t// in\ntag_170:\n    /* \"#utility.yul\":8891:8897   */\n  dup4\n    /* \"#utility.yul\":8884:8948   */\n  sstore\n    /* \"#utility.yul\":8806:8962   */\n  pop\n    /* \"#utility.yul\":8783:8962   */\ntag_169:\n    /* \"#utility.yul\":9008:9009   */\n  0x01\n    /* \"#utility.yul\":9004:9005   */\n  0x02\n    /* \"#utility.yul\":8996:9002   */\n  dup9\n    /* \"#utility.yul\":8992:9006   */\n  mul\n    /* \"#utility.yul\":8988:9010   */\n  add\n    /* \"#utility.yul\":8982:8986   */\n  dup9\n    /* \"#utility.yul\":8975:9011   */\n  sstore\n    /* \"#utility.yul\":8410:9021   */\n  pop\n  pop\n  pop\n    /* \"#utility.yul\":8373:9260   */\ntag_161:\n  pop\n    /* \"#utility.yul\":7963:9266   */\n  pop\n  pop\n  pop\n    /* \"#utility.yul\":7871:9266   */\n  pop\n  pop\n  jump\t// out\n    /* \"ptrn_eco_system_dev_contracts/contracts_ready_for_prod/Copy_PtrnEcoSystemParticipation.sol\":842:12549  contract PtrnEcoSystemParticipation is Pausable, Ownable {... */\ntag_20:\n  mload(0x80)\n  mload(0xa0)\n  codecopy(0x00, dataOffset(sub_0), dataSize(sub_0))\n  0x00\n  assignImmutable(\"0x553650eae2a4d3756ef7157643f92ca8faebf3dd225aa14028a1a71d94f45eea\")\n  0x00\n  assignImmutable(\"0x5fe7a1a414abe991afbda9a853d967f992c558068728d0e3ee148ed2656bb10a\")\n  return(0x00, dataSize(sub_0))\nstop\n\nsub_0: assembly {\n        /* \"ptrn_eco_system_dev_contracts/contracts_ready_for_prod/Copy_PtrnEcoSystemParticipation.sol\":842:12549  contract PtrnEcoSystemParticipation is Pausable, Ownable {... */\n      mstore(0x40, 0x80)\n      callvalue\n      dup1\n      iszero\n      tag_1\n      jumpi\n      0x00\n      dup1\n      revert\n    tag_1:\n      pop\n      jumpi(tag_2, lt(calldatasize, 0x04))\n      shr(0xe0, calldataload(0x00))\n      dup1\n      0x7754723e\n      gt\n      tag_30\n      jumpi\n      dup1\n      0xb99152d0\n      gt\n      tag_31\n      jumpi\n      dup1\n      0xe8088766\n      gt\n      tag_32\n      jumpi\n      dup1\n      0xe8088766\n      eq\n      tag_26\n      jumpi\n      dup1\n      0xed969c84\n      eq\n      tag_27\n      jumpi\n      dup1\n      0xf2fde38b\n      eq\n      tag_28\n      jumpi\n      dup1\n      0xf9850907\n      eq\n      tag_29\n      jumpi\n      jump(tag_2)\n    tag_32:\n      dup1\n      0xb99152d0\n      eq\n      tag_23\n      jumpi\n      dup1\n      0xba007e75\n      eq\n      tag_24\n      jumpi\n      dup1\n      0xe6367ebe\n      eq\n      tag_25\n      jumpi\n      jump(tag_2)\n    tag_31:\n      dup1\n      0xa684ab5c\n      gt\n      tag_33\n      jumpi\n      dup1\n      0xa684ab5c\n      eq\n      tag_19\n      jumpi\n      dup1\n      0xabb1dc44\n      eq\n      tag_20\n      jumpi\n      dup1\n      0xaefbdfae\n      eq\n      tag_21\n      jumpi\n      dup1\n      0xb0b5e39e\n      eq\n      tag_22\n      jumpi\n      jump(tag_2)\n    tag_33:\n      dup1\n      0x7754723e\n      eq\n      tag_16\n      jumpi\n      dup1\n      0x8da5cb5b\n      eq\n      tag_17\n      jumpi\n      dup1\n      0xa24723e8\n      eq\n      tag_18\n      jumpi\n      jump(tag_2)\n    tag_30:\n      dup1\n      0x2e1a7d4d\n      gt\n      tag_34\n      jumpi\n      dup1\n      0x5c975abb\n      gt\n      tag_35\n      jumpi\n      dup1\n      0x5c975abb\n      eq\n      tag_12\n      jumpi\n      dup1\n      0x6a9d43dd\n      eq\n      tag_13\n      jumpi\n      dup1\n      0x715018a6\n      eq\n      tag_14\n      jumpi\n      dup1\n      0x722713f7\n      eq\n      tag_15\n      jumpi\n      jump(tag_2)\n    tag_35:\n      dup1\n      0x2e1a7d4d\n      eq\n      tag_9\n      jumpi\n      dup1\n      0x390885f7\n      eq\n      tag_10\n      jumpi\n      dup1\n      0x51b42b00\n      eq\n      tag_11\n      jumpi\n      jump(tag_2)\n    tag_34:\n      dup1\n      0x046f7da2\n      eq\n      tag_3\n      jumpi\n      dup1\n      0x07da68f5\n      eq\n      tag_4\n      jumpi\n      dup1\n      0x08fadcb0\n      eq\n      tag_5\n      jumpi\n      dup1\n      0x0ba2f1d8\n      eq\n      tag_6\n      jumpi\n      dup1\n      0x0f15f4c0\n      eq\n      tag_7\n      jumpi\n      dup1\n      0x2af0e251\n      eq\n      tag_8\n      jumpi\n    tag_2:\n      0x00\n      dup1\n      revert\n        /* \"ptrn_eco_system_dev_contracts/contracts_ready_for_prod/Copy_PtrnEcoSystemParticipation.sol\":3408:3481  function resume() public whenPaused onlyOwner {... */\n    tag_3:\n      tag_36\n      tag_37\n      jump\t// in\n    tag_36:\n      stop\n        /* \"ptrn_eco_system_dev_contracts/contracts_ready_for_prod/Copy_PtrnEcoSystemParticipation.sol\":3296:3402  function stop() public whenNotPaused onlyOwner {... */\n    tag_4:\n      tag_38\n      tag_39\n      jump\t// in\n    tag_38:\n      stop\n        /* \"ptrn_eco_system_dev_contracts/contracts_ready_for_prod/Copy_PtrnEcoSystemParticipation.sol\":12096:12253  function getAcceptedSenderAddress()... */\n    tag_5:\n      tag_40\n      tag_41\n      jump\t// in\n    tag_40:\n      mload(0x40)\n      tag_42\n      swap2\n      swap1\n      tag_43\n      jump\t// in\n    tag_42:\n      mload(0x40)\n      dup1\n      swap2\n      sub\n      swap1\n      return\n        /* \"ptrn_eco_system_dev_contracts/contracts_ready_for_prod/Copy_PtrnEcoSystemParticipation.sol\":3040:3290  function changeAcceptedSenderAddress(address newAcceptedSender)... */\n    tag_6:\n      tag_44\n      0x04\n      dup1\n      calldatasize\n      sub\n      dup2\n      add\n      swap1\n      tag_45\n      swap2\n      swap1\n      tag_46\n      jump\t// in\n    tag_45:\n      tag_47\n      jump\t// in\n    tag_44:\n      stop\n        /* \"ptrn_eco_system_dev_contracts/contracts_ready_for_prod/Copy_PtrnEcoSystemParticipation.sol\":2662:2909  function activate() public whenNotPaused {... */\n    tag_7:\n      tag_48\n      tag_49\n      jump\t// in\n    tag_48:\n      stop\n        /* \"ptrn_eco_system_dev_contracts/contracts_ready_for_prod/Copy_PtrnEcoSystemParticipation.sol\":11365:11538  function getTotalBurnedTokens()... */\n    tag_8:\n      tag_50\n      tag_51\n      jump\t// in\n    tag_50:\n      mload(0x40)\n      tag_52\n      swap2\n      swap1\n      tag_53\n      jump\t// in\n    tag_52:\n      mload(0x40)\n      dup1\n      swap2\n      sub\n      swap1\n      return\n        /* \"ptrn_eco_system_dev_contracts/contracts_ready_for_prod/Copy_PtrnEcoSystemParticipation.sol\":8795:9186  function withdraw(uint256 value) public onlyOwner {... */\n    tag_9:\n      tag_54\n      0x04\n      dup1\n      calldatasize\n      sub\n      dup2\n      add\n      swap1\n      tag_55\n      swap2\n      swap1\n      tag_56\n      jump\t// in\n    tag_55:\n      tag_57\n      jump\t// in\n    tag_54:\n      stop\n        /* \"ptrn_eco_system_dev_contracts/contracts_ready_for_prod/Copy_PtrnEcoSystemParticipation.sol\":9192:9504  function initiateBulkMint() public onlyOwner {... */\n    tag_10:\n      tag_58\n      tag_59\n      jump\t// in\n    tag_58:\n      stop\n        /* \"ptrn_eco_system_dev_contracts/contracts_ready_for_prod/Copy_PtrnEcoSystemParticipation.sol\":2915:3034  function deactivate() public activated onlyAuthorized whenNotPaused {... */\n    tag_11:\n      tag_60\n      tag_61\n      jump\t// in\n    tag_60:\n      stop\n        /* \"@openzeppelin/contracts/security/Pausable.sol\":1615:1699  function paused() public view virtual returns (bool) {... */\n    tag_12:\n      tag_62\n      tag_63\n      jump\t// in\n    tag_62:\n      mload(0x40)\n      tag_64\n      swap2\n      swap1\n      tag_65\n      jump\t// in\n    tag_64:\n      mload(0x40)\n      dup1\n      swap2\n      sub\n      swap1\n      return\n        /* \"ptrn_eco_system_dev_contracts/contracts_ready_for_prod/Copy_PtrnEcoSystemParticipation.sol\":9801:10095  function transferOfToken(... */\n    tag_13:\n      tag_66\n      0x04\n      dup1\n      calldatasize\n      sub\n      dup2\n      add\n      swap1\n      tag_67\n      swap2\n      swap1\n      tag_68\n      jump\t// in\n    tag_67:\n      tag_69\n      jump\t// in\n    tag_66:\n      mload(0x40)\n      tag_70\n      swap2\n      swap1\n      tag_65\n      jump\t// in\n    tag_70:\n      mload(0x40)\n      dup1\n      swap2\n      sub\n      swap1\n      return\n        /* \"@openzeppelin/contracts/access/Ownable.sol\":1831:1932  function renounceOwnership() public virtual onlyOwner {... */\n    tag_14:\n      tag_71\n      tag_72\n      jump\t// in\n    tag_71:\n      stop\n        /* \"ptrn_eco_system_dev_contracts/contracts_ready_for_prod/Copy_PtrnEcoSystemParticipation.sol\":8674:8789  function balanceOf() public view onlyOwner returns (uint256) {... */\n    tag_15:\n      tag_73\n      tag_74\n      jump\t// in\n    tag_73:\n      mload(0x40)\n      tag_75\n      swap2\n      swap1\n      tag_53\n      jump\t// in\n    tag_75:\n      mload(0x40)\n      dup1\n      swap2\n      sub\n      swap1\n      return\n        /* \"ptrn_eco_system_dev_contracts/contracts_ready_for_prod/Copy_PtrnEcoSystemParticipation.sol\":6950:7287  function calculateAmount(... */\n    tag_16:\n      tag_76\n      0x04\n      dup1\n      calldatasize\n      sub\n      dup2\n      add\n      swap1\n      tag_77\n      swap2\n      swap1\n      tag_78\n      jump\t// in\n    tag_77:\n      tag_79\n      jump\t// in\n    tag_76:\n      mload(0x40)\n      tag_80\n      swap2\n      swap1\n      tag_53\n      jump\t// in\n    tag_80:\n      mload(0x40)\n      dup1\n      swap2\n      sub\n      swap1\n      return\n        /* \"@openzeppelin/contracts/access/Ownable.sol\":1201:1286  function owner() public view virtual returns (address) {... */\n    tag_17:\n      tag_81\n      tag_82\n      jump\t// in\n    tag_81:\n      mload(0x40)\n      tag_83\n      swap2\n      swap1\n      tag_43\n      jump\t// in\n    tag_83:\n      mload(0x40)\n      dup1\n      swap2\n      sub\n      swap1\n      return\n        /* \"ptrn_eco_system_dev_contracts/contracts_ready_for_prod/Copy_PtrnEcoSystemParticipation.sol\":11919:12090  function getDailyWithdraw()... */\n    tag_18:\n      tag_84\n      tag_85\n      jump\t// in\n    tag_84:\n      mload(0x40)\n      tag_86\n      swap2\n      swap1\n      tag_53\n      jump\t// in\n    tag_86:\n      mload(0x40)\n      dup1\n      swap2\n      sub\n      swap1\n      return\n        /* \"ptrn_eco_system_dev_contracts/contracts_ready_for_prod/Copy_PtrnEcoSystemParticipation.sol\":11544:11723  function getTotalPointsGenerated()... */\n    tag_19:\n      tag_87\n      tag_88\n      jump\t// in\n    tag_87:\n      mload(0x40)\n      tag_89\n      swap2\n      swap1\n      tag_53\n      jump\t// in\n    tag_89:\n      mload(0x40)\n      dup1\n      swap2\n      sub\n      swap1\n      return\n        /* \"ptrn_eco_system_dev_contracts/contracts_ready_for_prod/Copy_PtrnEcoSystemParticipation.sol\":12367:12547  function getTokenInfo()... */\n    tag_20:\n      tag_90\n      tag_91\n      jump\t// in\n    tag_90:\n      mload(0x40)\n      tag_92\n      swap3\n      swap2\n      swap1\n      tag_93\n      jump\t// in\n    tag_92:\n      mload(0x40)\n      dup1\n      swap2\n      sub\n      swap1\n      return\n        /* \"ptrn_eco_system_dev_contracts/contracts_ready_for_prod/Copy_PtrnEcoSystemParticipation.sol\":4749:4967  function addNewAgregatorPriceFeed(address _ConsumerInterfaceAddress)... */\n    tag_21:\n      tag_94\n      0x04\n      dup1\n      calldatasize\n      sub\n      dup2\n      add\n      swap1\n      tag_95\n      swap2\n      swap1\n      tag_46\n      jump\t// in\n    tag_95:\n      tag_96\n      jump\t// in\n    tag_94:\n      stop\n        /* \"ptrn_eco_system_dev_contracts/contracts_ready_for_prod/Copy_PtrnEcoSystemParticipation.sol\":4973:5153  function addNewPoolRateFeed(address _ConsumerInterfaceAddress)... */\n    tag_22:\n      tag_97\n      0x04\n      dup1\n      calldatasize\n      sub\n      dup2\n      add\n      swap1\n      tag_98\n      swap2\n      swap1\n      tag_46\n      jump\t// in\n    tag_98:\n      tag_99\n      jump\t// in\n    tag_97:\n      stop\n        /* \"ptrn_eco_system_dev_contracts/contracts_ready_for_prod/Copy_PtrnEcoSystemParticipation.sol\":9557:9748  function balanceOfToken(address tokenAddress)... */\n    tag_23:\n      tag_100\n      0x04\n      dup1\n      calldatasize\n      sub\n      dup2\n      add\n      swap1\n      tag_101\n      swap2\n      swap1\n      tag_46\n      jump\t// in\n    tag_101:\n      tag_102\n      jump\t// in\n    tag_100:\n      mload(0x40)\n      tag_103\n      swap2\n      swap1\n      tag_53\n      jump\t// in\n    tag_103:\n      mload(0x40)\n      dup1\n      swap2\n      sub\n      swap1\n      return\n        /* \"ptrn_eco_system_dev_contracts/contracts_ready_for_prod/Copy_PtrnEcoSystemParticipation.sol\":12259:12361  function getInitialActivationAddress() public view returns (address) {... */\n    tag_24:\n      tag_104\n      tag_105\n      jump\t// in\n    tag_104:\n      mload(0x40)\n      tag_106\n      swap2\n      swap1\n      tag_43\n      jump\t// in\n    tag_106:\n      mload(0x40)\n      dup1\n      swap2\n      sub\n      swap1\n      return\n        /* \"ptrn_eco_system_dev_contracts/contracts_ready_for_prod/Copy_PtrnEcoSystemParticipation.sol\":4544:4743  function currentRateFeed() public view onlyOwner returns (string memory) {... */\n    tag_25:\n      tag_107\n      tag_108\n      jump\t// in\n    tag_107:\n      mload(0x40)\n      tag_109\n      swap2\n      swap1\n      tag_110\n      jump\t// in\n    tag_109:\n      mload(0x40)\n      dup1\n      swap2\n      sub\n      swap1\n      return\n        /* \"ptrn_eco_system_dev_contracts/contracts_ready_for_prod/Copy_PtrnEcoSystemParticipation.sol\":4450:4538  function changeRateFeed() public onlyOwner {... */\n    tag_26:\n      tag_111\n      tag_112\n      jump\t// in\n    tag_111:\n      stop\n        /* \"ptrn_eco_system_dev_contracts/contracts_ready_for_prod/Copy_PtrnEcoSystemParticipation.sol\":7293:8668  function chargeContract(uint256 amount)... */\n    tag_27:\n      tag_113\n      0x04\n      dup1\n      calldatasize\n      sub\n      dup2\n      add\n      swap1\n      tag_114\n      swap2\n      swap1\n      tag_56\n      jump\t// in\n    tag_114:\n      tag_115\n      jump\t// in\n    tag_113:\n      mload(0x40)\n      tag_116\n      swap2\n      swap1\n      tag_65\n      jump\t// in\n    tag_116:\n      mload(0x40)\n      dup1\n      swap2\n      sub\n      swap1\n      return\n        /* \"@openzeppelin/contracts/access/Ownable.sol\":2081:2279  function transferOwnership(address newOwner) public virtual onlyOwner {... */\n    tag_28:\n      tag_117\n      0x04\n      dup1\n      calldatasize\n      sub\n      dup2\n      add\n      swap1\n      tag_118\n      swap2\n      swap1\n      tag_46\n      jump\t// in\n    tag_118:\n      tag_119\n      jump\t// in\n    tag_117:\n      stop\n        /* \"ptrn_eco_system_dev_contracts/contracts_ready_for_prod/Copy_PtrnEcoSystemParticipation.sol\":11729:11913  function getCurrentPointsBalance()... */\n    tag_29:\n      tag_120\n      tag_121\n      jump\t// in\n    tag_120:\n      mload(0x40)\n      tag_122\n      swap2\n      swap1\n      tag_53\n      jump\t// in\n    tag_122:\n      mload(0x40)\n      dup1\n      swap2\n      sub\n      swap1\n      return\n        /* \"ptrn_eco_system_dev_contracts/contracts_ready_for_prod/Copy_PtrnEcoSystemParticipation.sol\":3408:3481  function resume() public whenPaused onlyOwner {... */\n    tag_37:\n        /* \"@openzeppelin/contracts/security/Pausable.sol\":1486:1502  _requirePaused() */\n      tag_124\n        /* \"@openzeppelin/contracts/security/Pausable.sol\":1486:1500  _requirePaused */\n      tag_125\n        /* \"@openzeppelin/contracts/security/Pausable.sol\":1486:1502  _requirePaused() */\n      jump\t// in\n    tag_124:\n        /* \"@openzeppelin/contracts/access/Ownable.sol\":1094:1107  _checkOwner() */\n      tag_127\n        /* \"@openzeppelin/contracts/access/Ownable.sol\":1094:1105  _checkOwner */\n      tag_128\n        /* \"@openzeppelin/contracts/access/Ownable.sol\":1094:1107  _checkOwner() */\n      jump\t// in\n    tag_127:\n        /* \"ptrn_eco_system_dev_contracts/contracts_ready_for_prod/Copy_PtrnEcoSystemParticipation.sol\":3464:3474  _unpause() */\n      tag_130\n        /* \"ptrn_eco_system_dev_contracts/contracts_ready_for_prod/Copy_PtrnEcoSystemParticipation.sol\":3464:3472  _unpause */\n      tag_131\n        /* \"ptrn_eco_system_dev_contracts/contracts_ready_for_prod/Copy_PtrnEcoSystemParticipation.sol\":3464:3474  _unpause() */\n      jump\t// in\n    tag_130:\n        /* \"ptrn_eco_system_dev_contracts/contracts_ready_for_prod/Copy_PtrnEcoSystemParticipation.sol\":3408:3481  function resume() public whenPaused onlyOwner {... */\n      jump\t// out\n        /* \"ptrn_eco_system_dev_contracts/contracts_ready_for_prod/Copy_PtrnEcoSystemParticipation.sol\":3296:3402  function stop() public whenNotPaused onlyOwner {... */\n    tag_39:\n        /* \"@openzeppelin/contracts/security/Pausable.sol\":1239:1258  _requireNotPaused() */\n      tag_133\n        /* \"@openzeppelin/contracts/security/Pausable.sol\":1239:1256  _requireNotPaused */\n      tag_134\n        /* \"@openzeppelin/contracts/security/Pausable.sol\":1239:1258  _requireNotPaused() */\n      jump\t// in\n    tag_133:\n        /* \"@openzeppelin/contracts/access/Ownable.sol\":1094:1107  _checkOwner() */\n      tag_136\n        /* \"@openzeppelin/contracts/access/Ownable.sol\":1094:1105  _checkOwner */\n      tag_128\n        /* \"@openzeppelin/contracts/access/Ownable.sol\":1094:1107  _checkOwner() */\n      jump\t// in\n    tag_136:\n        /* \"ptrn_eco_system_dev_contracts/contracts_ready_for_prod/Copy_PtrnEcoSystemParticipation.sol\":3387:3395  _pause() */\n      tag_138\n        /* \"ptrn_eco_system_dev_contracts/contracts_ready_for_prod/Copy_PtrnEcoSystemParticipation.sol\":3387:3393  _pause */\n      tag_139\n        /* \"ptrn_eco_system_dev_contracts/contracts_ready_for_prod/Copy_PtrnEcoSystemParticipation.sol\":3387:3395  _pause() */\n      jump\t// in\n    tag_138:\n        /* \"ptrn_eco_system_dev_contracts/contracts_ready_for_prod/Copy_PtrnEcoSystemParticipation.sol\":3296:3402  function stop() public whenNotPaused onlyOwner {... */\n      jump\t// out\n        /* \"ptrn_eco_system_dev_contracts/contracts_ready_for_prod/Copy_PtrnEcoSystemParticipation.sol\":12096:12253  function getAcceptedSenderAddress()... */\n    tag_41:\n        /* \"ptrn_eco_system_dev_contracts/contracts_ready_for_prod/Copy_PtrnEcoSystemParticipation.sol\":12195:12202  address */\n      0x00\n        /* \"ptrn_eco_system_dev_contracts/contracts_ready_for_prod/Copy_PtrnEcoSystemParticipation.sol\":1903:1904  0 */\n      dup1\n        /* \"ptrn_eco_system_dev_contracts/contracts_ready_for_prod/Copy_PtrnEcoSystemParticipation.sol\":1870:1905  acceptedSenderAddress != address(0) */\n      0xffffffffffffffffffffffffffffffffffffffff\n      and\n        /* \"ptrn_eco_system_dev_contracts/contracts_ready_for_prod/Copy_PtrnEcoSystemParticipation.sol\":1870:1891  acceptedSenderAddress */\n      0x01\n      0x00\n      swap1\n      sload\n      swap1\n      0x0100\n      exp\n      swap1\n      div\n      0xffffffffffffffffffffffffffffffffffffffff\n      and\n        /* \"ptrn_eco_system_dev_contracts/contracts_ready_for_prod/Copy_PtrnEcoSystemParticipation.sol\":1870:1905  acceptedSenderAddress != address(0) */\n      0xffffffffffffffffffffffffffffffffffffffff\n      and\n      sub\n        /* \"ptrn_eco_system_dev_contracts/contracts_ready_for_prod/Copy_PtrnEcoSystemParticipation.sol\":1862:1924  require(acceptedSenderAddress != address(0), \"Not activated.\") */\n      tag_141\n      jumpi\n      mload(0x40)\n      0x08c379a000000000000000000000000000000000000000000000000000000000\n      dup2\n      mstore\n      0x04\n      add\n      tag_142\n      swap1\n      tag_143\n      jump\t// in\n    tag_142:\n      mload(0x40)\n      dup1\n      swap2\n      sub\n      swap1\n      revert\n    tag_141:\n        /* \"ptrn_eco_system_dev_contracts/contracts_ready_for_prod/Copy_PtrnEcoSystemParticipation.sol\":12225:12246  acceptedSenderAddress */\n      0x01\n      0x00\n      swap1\n      sload\n      swap1\n      0x0100\n      exp\n      swap1\n      div\n      0xffffffffffffffffffffffffffffffffffffffff\n      and\n        /* \"ptrn_eco_system_dev_contracts/contracts_ready_for_prod/Copy_PtrnEcoSystemParticipation.sol\":12218:12246  return acceptedSenderAddress */\n      swap1\n      pop\n        /* \"ptrn_eco_system_dev_contracts/contracts_ready_for_prod/Copy_PtrnEcoSystemParticipation.sol\":12096:12253  function getAcceptedSenderAddress()... */\n      swap1\n      jump\t// out\n        /* \"ptrn_eco_system_dev_contracts/contracts_ready_for_prod/Copy_PtrnEcoSystemParticipation.sol\":3040:3290  function changeAcceptedSenderAddress(address newAcceptedSender)... */\n    tag_47:\n        /* \"ptrn_eco_system_dev_contracts/contracts_ready_for_prod/Copy_PtrnEcoSystemParticipation.sol\":1903:1904  0 */\n      0x00\n        /* \"ptrn_eco_system_dev_contracts/contracts_ready_for_prod/Copy_PtrnEcoSystemParticipation.sol\":1870:1905  acceptedSenderAddress != address(0) */\n      0xffffffffffffffffffffffffffffffffffffffff\n      and\n        /* \"ptrn_eco_system_dev_contracts/contracts_ready_for_prod/Copy_PtrnEcoSystemParticipation.sol\":1870:1891  acceptedSenderAddress */\n      0x01\n      0x00\n      swap1\n      sload\n      swap1\n      0x0100\n      exp\n      swap1\n      div\n      0xffffffffffffffffffffffffffffffffffffffff\n      and\n        /* \"ptrn_eco_system_dev_contracts/contracts_ready_for_prod/Copy_PtrnEcoSystemParticipation.sol\":1870:1905  acceptedSenderAddress != address(0) */\n      0xffffffffffffffffffffffffffffffffffffffff\n      and\n      sub\n        /* \"ptrn_eco_system_dev_contracts/contracts_ready_for_prod/Copy_PtrnEcoSystemParticipation.sol\":1862:1924  require(acceptedSenderAddress != address(0), \"Not activated.\") */\n      tag_146\n      jumpi\n      mload(0x40)\n      0x08c379a000000000000000000000000000000000000000000000000000000000\n      dup2\n      mstore\n      0x04\n      add\n      tag_147\n      swap1\n      tag_143\n      jump\t// in\n    tag_147:\n      mload(0x40)\n      dup1\n      swap2\n      sub\n      swap1\n      revert\n    tag_146:\n        /* \"ptrn_eco_system_dev_contracts/contracts_ready_for_prod/Copy_PtrnEcoSystemParticipation.sol\":1766:1787  acceptedSenderAddress */\n      0x01\n      0x00\n      swap1\n      sload\n      swap1\n      0x0100\n      exp\n      swap1\n      div\n      0xffffffffffffffffffffffffffffffffffffffff\n      and\n        /* \"ptrn_eco_system_dev_contracts/contracts_ready_for_prod/Copy_PtrnEcoSystemParticipation.sol\":1752:1787  msg.sender == acceptedSenderAddress */\n      0xffffffffffffffffffffffffffffffffffffffff\n      and\n        /* \"ptrn_eco_system_dev_contracts/contracts_ready_for_prod/Copy_PtrnEcoSystemParticipation.sol\":1752:1762  msg.sender */\n      caller\n        /* \"ptrn_eco_system_dev_contracts/contracts_ready_for_prod/Copy_PtrnEcoSystemParticipation.sol\":1752:1787  msg.sender == acceptedSenderAddress */\n      0xffffffffffffffffffffffffffffffffffffffff\n      and\n      eq\n        /* \"ptrn_eco_system_dev_contracts/contracts_ready_for_prod/Copy_PtrnEcoSystemParticipation.sol\":1744:1807  require(msg.sender == acceptedSenderAddress, \"Not Authorized!\") */\n      tag_149\n      jumpi\n      mload(0x40)\n      0x08c379a000000000000000000000000000000000000000000000000000000000\n      dup2\n      mstore\n      0x04\n      add\n      tag_150\n      swap1\n      tag_151\n      jump\t// in\n    tag_150:\n      mload(0x40)\n      dup1\n      swap2\n      sub\n      swap1\n      revert\n    tag_149:\n        /* \"ptrn_eco_system_dev_contracts/contracts_ready_for_prod/Copy_PtrnEcoSystemParticipation.sol\":1903:1904  0 */\n      0x00\n        /* \"ptrn_eco_system_dev_contracts/contracts_ready_for_prod/Copy_PtrnEcoSystemParticipation.sol\":1870:1905  acceptedSenderAddress != address(0) */\n      0xffffffffffffffffffffffffffffffffffffffff\n      and\n        /* \"ptrn_eco_system_dev_contracts/contracts_ready_for_prod/Copy_PtrnEcoSystemParticipation.sol\":1870:1891  acceptedSenderAddress */\n      0x01\n      0x00\n      swap1\n      sload\n      swap1\n      0x0100\n      exp\n      swap1\n      div\n      0xffffffffffffffffffffffffffffffffffffffff\n      and\n        /* \"ptrn_eco_system_dev_contracts/contracts_ready_for_prod/Copy_PtrnEcoSystemParticipation.sol\":1870:1905  acceptedSenderAddress != address(0) */\n      0xffffffffffffffffffffffffffffffffffffffff\n      and\n      sub\n        /* \"ptrn_eco_system_dev_contracts/contracts_ready_for_prod/Copy_PtrnEcoSystemParticipation.sol\":1862:1924  require(acceptedSenderAddress != address(0), \"Not activated.\") */\n      tag_153\n      jumpi\n      mload(0x40)\n      0x08c379a000000000000000000000000000000000000000000000000000000000\n      dup2\n      mstore\n      0x04\n      add\n      tag_154\n      swap1\n      tag_143\n      jump\t// in\n    tag_154:\n      mload(0x40)\n      dup1\n      swap2\n      sub\n      swap1\n      revert\n    tag_153:\n        /* \"ptrn_eco_system_dev_contracts/contracts_ready_for_prod/Copy_PtrnEcoSystemParticipation.sol\":3229:3230  0 */\n      0x00\n        /* \"ptrn_eco_system_dev_contracts/contracts_ready_for_prod/Copy_PtrnEcoSystemParticipation.sol\":3200:3231  newAcceptedSender != address(0) */\n      0xffffffffffffffffffffffffffffffffffffffff\n      and\n        /* \"ptrn_eco_system_dev_contracts/contracts_ready_for_prod/Copy_PtrnEcoSystemParticipation.sol\":3200:3217  newAcceptedSender */\n      dup2\n        /* \"ptrn_eco_system_dev_contracts/contracts_ready_for_prod/Copy_PtrnEcoSystemParticipation.sol\":3200:3231  newAcceptedSender != address(0) */\n      0xffffffffffffffffffffffffffffffffffffffff\n      and\n      sub\n        /* \"ptrn_eco_system_dev_contracts/contracts_ready_for_prod/Copy_PtrnEcoSystemParticipation.sol\":3192:3232  require(newAcceptedSender != address(0)) */\n      tag_156\n      jumpi\n      0x00\n      dup1\n      revert\n    tag_156:\n        /* \"ptrn_eco_system_dev_contracts/contracts_ready_for_prod/Copy_PtrnEcoSystemParticipation.sol\":3266:3283  newAcceptedSender */\n      dup1\n        /* \"ptrn_eco_system_dev_contracts/contracts_ready_for_prod/Copy_PtrnEcoSystemParticipation.sol\":3242:3263  acceptedSenderAddress */\n      0x01\n      0x00\n        /* \"ptrn_eco_system_dev_contracts/contracts_ready_for_prod/Copy_PtrnEcoSystemParticipation.sol\":3242:3283  acceptedSenderAddress = newAcceptedSender */\n      0x0100\n      exp\n      dup2\n      sload\n      dup2\n      0xffffffffffffffffffffffffffffffffffffffff\n      mul\n      not\n      and\n      swap1\n      dup4\n      0xffffffffffffffffffffffffffffffffffffffff\n      and\n      mul\n      or\n      swap1\n      sstore\n      pop\n        /* \"ptrn_eco_system_dev_contracts/contracts_ready_for_prod/Copy_PtrnEcoSystemParticipation.sol\":3040:3290  function changeAcceptedSenderAddress(address newAcceptedSender)... */\n      pop\n      jump\t// out\n        /* \"ptrn_eco_system_dev_contracts/contracts_ready_for_prod/Copy_PtrnEcoSystemParticipation.sol\":2662:2909  function activate() public whenNotPaused {... */\n    tag_49:\n        /* \"@openzeppelin/contracts/security/Pausable.sol\":1239:1258  _requireNotPaused() */\n      tag_158\n        /* \"@openzeppelin/contracts/security/Pausable.sol\":1239:1256  _requireNotPaused */\n      tag_134\n        /* \"@openzeppelin/contracts/security/Pausable.sol\":1239:1258  _requireNotPaused() */\n      jump\t// in\n    tag_158:\n        /* \"ptrn_eco_system_dev_contracts/contracts_ready_for_prod/Copy_PtrnEcoSystemParticipation.sol\":2734:2744  msg.sender */\n      caller\n        /* \"ptrn_eco_system_dev_contracts/contracts_ready_for_prod/Copy_PtrnEcoSystemParticipation.sol\":2721:2744  ACTIVATOR == msg.sender */\n      0xffffffffffffffffffffffffffffffffffffffff\n      and\n        /* \"ptrn_eco_system_dev_contracts/contracts_ready_for_prod/Copy_PtrnEcoSystemParticipation.sol\":2721:2730  ACTIVATOR */\n      immutable(\"0x5fe7a1a414abe991afbda9a853d967f992c558068728d0e3ee148ed2656bb10a\")\n        /* \"ptrn_eco_system_dev_contracts/contracts_ready_for_prod/Copy_PtrnEcoSystemParticipation.sol\":2721:2744  ACTIVATOR == msg.sender */\n      0xffffffffffffffffffffffffffffffffffffffff\n      and\n      eq\n        /* \"ptrn_eco_system_dev_contracts/contracts_ready_for_prod/Copy_PtrnEcoSystemParticipation.sol\":2713:2782  require(ACTIVATOR == msg.sender, \"Can't activate with this address!\") */\n      tag_160\n      jumpi\n      mload(0x40)\n      0x08c379a000000000000000000000000000000000000000000000000000000000\n      dup2\n      mstore\n      0x04\n      add\n      tag_161\n      swap1\n      tag_162\n      jump\t// in\n    tag_161:\n      mload(0x40)\n      dup1\n      swap2\n      sub\n      swap1\n      revert\n    tag_160:\n        /* \"ptrn_eco_system_dev_contracts/contracts_ready_for_prod/Copy_PtrnEcoSystemParticipation.sol\":2833:2834  0 */\n      0x00\n        /* \"ptrn_eco_system_dev_contracts/contracts_ready_for_prod/Copy_PtrnEcoSystemParticipation.sol\":2800:2835  acceptedSenderAddress == address(0) */\n      0xffffffffffffffffffffffffffffffffffffffff\n      and\n        /* \"ptrn_eco_system_dev_contracts/contracts_ready_for_prod/Copy_PtrnEcoSystemParticipation.sol\":2800:2821  acceptedSenderAddress */\n      0x01\n      0x00\n      swap1\n      sload\n      swap1\n      0x0100\n      exp\n      swap1\n      div\n      0xffffffffffffffffffffffffffffffffffffffff\n      and\n        /* \"ptrn_eco_system_dev_contracts/contracts_ready_for_prod/Copy_PtrnEcoSystemParticipation.sol\":2800:2835  acceptedSenderAddress == address(0) */\n      0xffffffffffffffffffffffffffffffffffffffff\n      and\n      eq\n        /* \"ptrn_eco_system_dev_contracts/contracts_ready_for_prod/Copy_PtrnEcoSystemParticipation.sol\":2792:2858  require(acceptedSenderAddress == address(0), \"Already activated.\") */\n      tag_163\n      jumpi\n      mload(0x40)\n      0x08c379a000000000000000000000000000000000000000000000000000000000\n      dup2\n      mstore\n      0x04\n      add\n      tag_164\n      swap1\n      tag_165\n      jump\t// in\n    tag_164:\n      mload(0x40)\n      dup1\n      swap2\n      sub\n      swap1\n      revert\n    tag_163:\n        /* \"ptrn_eco_system_dev_contracts/contracts_ready_for_prod/Copy_PtrnEcoSystemParticipation.sol\":2892:2902  msg.sender */\n      caller\n        /* \"ptrn_eco_system_dev_contracts/contracts_ready_for_prod/Copy_PtrnEcoSystemParticipation.sol\":2868:2889  acceptedSenderAddress */\n      0x01\n      0x00\n        /* \"ptrn_eco_system_dev_contracts/contracts_ready_for_prod/Copy_PtrnEcoSystemParticipation.sol\":2868:2902  acceptedSenderAddress = msg.sender */\n      0x0100\n      exp\n      dup2\n      sload\n      dup2\n      0xffffffffffffffffffffffffffffffffffffffff\n      mul\n      not\n      and\n      swap1\n      dup4\n      0xffffffffffffffffffffffffffffffffffffffff\n      and\n      mul\n      or\n      swap1\n      sstore\n      pop\n        /* \"ptrn_eco_system_dev_contracts/contracts_ready_for_prod/Copy_PtrnEcoSystemParticipation.sol\":2662:2909  function activate() public whenNotPaused {... */\n      jump\t// out\n        /* \"ptrn_eco_system_dev_contracts/contracts_ready_for_prod/Copy_PtrnEcoSystemParticipation.sol\":11365:11538  function getTotalBurnedTokens()... */\n    tag_51:\n        /* \"ptrn_eco_system_dev_contracts/contracts_ready_for_prod/Copy_PtrnEcoSystemParticipation.sol\":11490:11497  uint256 */\n      0x00\n        /* \"ptrn_eco_system_dev_contracts/contracts_ready_for_prod/Copy_PtrnEcoSystemParticipation.sol\":1903:1904  0 */\n      dup1\n        /* \"ptrn_eco_system_dev_contracts/contracts_ready_for_prod/Copy_PtrnEcoSystemParticipation.sol\":1870:1905  acceptedSenderAddress != address(0) */\n      0xffffffffffffffffffffffffffffffffffffffff\n      and\n        /* \"ptrn_eco_system_dev_contracts/contracts_ready_for_prod/Copy_PtrnEcoSystemParticipation.sol\":1870:1891  acceptedSenderAddress */\n      0x01\n      0x00\n      swap1\n      sload\n      swap1\n      0x0100\n      exp\n      swap1\n      div\n      0xffffffffffffffffffffffffffffffffffffffff\n      and\n        /* \"ptrn_eco_system_dev_contracts/contracts_ready_for_prod/Copy_PtrnEcoSystemParticipation.sol\":1870:1905  acceptedSenderAddress != address(0) */\n      0xffffffffffffffffffffffffffffffffffffffff\n      and\n      sub\n        /* \"ptrn_eco_system_dev_contracts/contracts_ready_for_prod/Copy_PtrnEcoSystemParticipation.sol\":1862:1924  require(acceptedSenderAddress != address(0), \"Not activated.\") */\n      tag_167\n      jumpi\n      mload(0x40)\n      0x08c379a000000000000000000000000000000000000000000000000000000000\n      dup2\n      mstore\n      0x04\n      add\n      tag_168\n      swap1\n      tag_143\n      jump\t// in\n    tag_168:\n      mload(0x40)\n      dup1\n      swap2\n      sub\n      swap1\n      revert\n    tag_167:\n        /* \"ptrn_eco_system_dev_contracts/contracts_ready_for_prod/Copy_PtrnEcoSystemParticipation.sol\":2027:2048  acceptedSenderAddress */\n      0x01\n      0x00\n      swap1\n      sload\n      swap1\n      0x0100\n      exp\n      swap1\n      div\n      0xffffffffffffffffffffffffffffffffffffffff\n      and\n        /* \"ptrn_eco_system_dev_contracts/contracts_ready_for_prod/Copy_PtrnEcoSystemParticipation.sol\":2013:2048  msg.sender == acceptedSenderAddress */\n      0xffffffffffffffffffffffffffffffffffffffff\n      and\n        /* \"ptrn_eco_system_dev_contracts/contracts_ready_for_prod/Copy_PtrnEcoSystemParticipation.sol\":2013:2023  msg.sender */\n      caller\n        /* \"ptrn_eco_system_dev_contracts/contracts_ready_for_prod/Copy_PtrnEcoSystemParticipation.sol\":2013:2048  msg.sender == acceptedSenderAddress */\n      0xffffffffffffffffffffffffffffffffffffffff\n      and\n      eq\n        /* \"ptrn_eco_system_dev_contracts/contracts_ready_for_prod/Copy_PtrnEcoSystemParticipation.sol\":2013:2073  msg.sender == acceptedSenderAddress || msg.sender == owner() */\n      dup1\n      tag_170\n      jumpi\n      pop\n        /* \"ptrn_eco_system_dev_contracts/contracts_ready_for_prod/Copy_PtrnEcoSystemParticipation.sol\":2066:2073  owner() */\n      tag_171\n        /* \"ptrn_eco_system_dev_contracts/contracts_ready_for_prod/Copy_PtrnEcoSystemParticipation.sol\":2066:2071  owner */\n      tag_82\n        /* \"ptrn_eco_system_dev_contracts/contracts_ready_for_prod/Copy_PtrnEcoSystemParticipation.sol\":2066:2073  owner() */\n      jump\t// in\n    tag_171:\n        /* \"ptrn_eco_system_dev_contracts/contracts_ready_for_prod/Copy_PtrnEcoSystemParticipation.sol\":2052:2073  msg.sender == owner() */\n      0xffffffffffffffffffffffffffffffffffffffff\n      and\n        /* \"ptrn_eco_system_dev_contracts/contracts_ready_for_prod/Copy_PtrnEcoSystemParticipation.sol\":2052:2062  msg.sender */\n      caller\n        /* \"ptrn_eco_system_dev_contracts/contracts_ready_for_prod/Copy_PtrnEcoSystemParticipation.sol\":2052:2073  msg.sender == owner() */\n      0xffffffffffffffffffffffffffffffffffffffff\n      and\n      eq\n        /* \"ptrn_eco_system_dev_contracts/contracts_ready_for_prod/Copy_PtrnEcoSystemParticipation.sol\":2013:2073  msg.sender == acceptedSenderAddress || msg.sender == owner() */\n    tag_170:\n        /* \"ptrn_eco_system_dev_contracts/contracts_ready_for_prod/Copy_PtrnEcoSystemParticipation.sol\":1991:2138  require(... */\n      tag_172\n      jumpi\n      mload(0x40)\n      0x08c379a000000000000000000000000000000000000000000000000000000000\n      dup2\n      mstore\n      0x04\n      add\n      tag_173\n      swap1\n      tag_174\n      jump\t// in\n    tag_173:\n      mload(0x40)\n      dup1\n      swap2\n      sub\n      swap1\n      revert\n    tag_172:\n        /* \"ptrn_eco_system_dev_contracts/contracts_ready_for_prod/Copy_PtrnEcoSystemParticipation.sol\":11520:11531  totalBurned */\n      sload(0x04)\n        /* \"ptrn_eco_system_dev_contracts/contracts_ready_for_prod/Copy_PtrnEcoSystemParticipation.sol\":11513:11531  return totalBurned */\n      swap1\n      pop\n        /* \"ptrn_eco_system_dev_contracts/contracts_ready_for_prod/Copy_PtrnEcoSystemParticipation.sol\":11365:11538  function getTotalBurnedTokens()... */\n      swap1\n      jump\t// out\n        /* \"ptrn_eco_system_dev_contracts/contracts_ready_for_prod/Copy_PtrnEcoSystemParticipation.sol\":8795:9186  function withdraw(uint256 value) public onlyOwner {... */\n    tag_57:\n        /* \"@openzeppelin/contracts/access/Ownable.sol\":1094:1107  _checkOwner() */\n      tag_177\n        /* \"@openzeppelin/contracts/access/Ownable.sol\":1094:1105  _checkOwner */\n      tag_128\n        /* \"@openzeppelin/contracts/access/Ownable.sol\":1094:1107  _checkOwner() */\n      jump\t// in\n    tag_177:\n        /* \"ptrn_eco_system_dev_contracts/contracts_ready_for_prod/Copy_PtrnEcoSystemParticipation.sol\":8907:8920  dailyWithdraw */\n      sload(0x07)\n        /* \"ptrn_eco_system_dev_contracts/contracts_ready_for_prod/Copy_PtrnEcoSystemParticipation.sol\":8885:8904  availableToWithdraw */\n      sload(0x06)\n        /* \"ptrn_eco_system_dev_contracts/contracts_ready_for_prod/Copy_PtrnEcoSystemParticipation.sol\":8885:8920  availableToWithdraw - dailyWithdraw */\n      tag_179\n      swap2\n      swap1\n      tag_180\n      jump\t// in\n    tag_179:\n        /* \"ptrn_eco_system_dev_contracts/contracts_ready_for_prod/Copy_PtrnEcoSystemParticipation.sol\":8876:8881  value */\n      dup2\n        /* \"ptrn_eco_system_dev_contracts/contracts_ready_for_prod/Copy_PtrnEcoSystemParticipation.sol\":8876:8920  value <= availableToWithdraw - dailyWithdraw */\n      gt\n      iszero\n        /* \"ptrn_eco_system_dev_contracts/contracts_ready_for_prod/Copy_PtrnEcoSystemParticipation.sol\":9043:9054  tokenSymbol */\n      0x08\n        /* \"ptrn_eco_system_dev_contracts/contracts_ready_for_prod/Copy_PtrnEcoSystemParticipation.sol\":8934:9068  string.concat(... */\n      add(0x20, mload(0x40))\n      tag_181\n      swap2\n      swap1\n      tag_182\n      jump\t// in\n    tag_181:\n      mload(0x40)\n      0x20\n      dup2\n      dup4\n      sub\n      sub\n      dup2\n      mstore\n      swap1\n      0x40\n      mstore\n        /* \"ptrn_eco_system_dev_contracts/contracts_ready_for_prod/Copy_PtrnEcoSystemParticipation.sol\":8855:9078  require(... */\n      swap1\n      tag_183\n      jumpi\n      mload(0x40)\n      0x08c379a000000000000000000000000000000000000000000000000000000000\n      dup2\n      mstore\n      0x04\n      add\n      tag_184\n      swap2\n      swap1\n      tag_110\n      jump\t// in\n    tag_184:\n      mload(0x40)\n      dup1\n      swap2\n      sub\n      swap1\n      revert\n    tag_183:\n      pop\n        /* \"ptrn_eco_system_dev_contracts/contracts_ready_for_prod/Copy_PtrnEcoSystemParticipation.sol\":9104:9105  0 */\n      0x00\n        /* \"ptrn_eco_system_dev_contracts/contracts_ready_for_prod/Copy_PtrnEcoSystemParticipation.sol\":9096:9101  value */\n      dup2\n        /* \"ptrn_eco_system_dev_contracts/contracts_ready_for_prod/Copy_PtrnEcoSystemParticipation.sol\":9096:9105  value > 0 */\n      gt\n        /* \"ptrn_eco_system_dev_contracts/contracts_ready_for_prod/Copy_PtrnEcoSystemParticipation.sol\":9088:9147  require(value > 0, \"Withdraw value must be greater than 0\") */\n      tag_185\n      jumpi\n      mload(0x40)\n      0x08c379a000000000000000000000000000000000000000000000000000000000\n      dup2\n      mstore\n      0x04\n      add\n      tag_186\n      swap1\n      tag_187\n      jump\t// in\n    tag_186:\n      mload(0x40)\n      dup1\n      swap2\n      sub\n      swap1\n      revert\n    tag_185:\n        /* \"ptrn_eco_system_dev_contracts/contracts_ready_for_prod/Copy_PtrnEcoSystemParticipation.sol\":9174:9179  value */\n      dup1\n        /* \"ptrn_eco_system_dev_contracts/contracts_ready_for_prod/Copy_PtrnEcoSystemParticipation.sol\":9157:9170  dailyWithdraw */\n      0x07\n      0x00\n        /* \"ptrn_eco_system_dev_contracts/contracts_ready_for_prod/Copy_PtrnEcoSystemParticipation.sol\":9157:9179  dailyWithdraw += value */\n      dup3\n      dup3\n      sload\n      tag_188\n      swap2\n      swap1\n      tag_189\n      jump\t// in\n    tag_188:\n      swap3\n      pop\n      pop\n      dup2\n      swap1\n      sstore\n      pop\n        /* \"ptrn_eco_system_dev_contracts/contracts_ready_for_prod/Copy_PtrnEcoSystemParticipation.sol\":8795:9186  function withdraw(uint256 value) public onlyOwner {... */\n      pop\n      jump\t// out\n        /* \"ptrn_eco_system_dev_contracts/contracts_ready_for_prod/Copy_PtrnEcoSystemParticipation.sol\":9192:9504  function initiateBulkMint() public onlyOwner {... */\n    tag_59:\n        /* \"@openzeppelin/contracts/access/Ownable.sol\":1094:1107  _checkOwner() */\n      tag_191\n        /* \"@openzeppelin/contracts/access/Ownable.sol\":1094:1105  _checkOwner */\n      tag_128\n        /* \"@openzeppelin/contracts/access/Ownable.sol\":1094:1107  _checkOwner() */\n      jump\t// in\n    tag_191:\n        /* \"ptrn_eco_system_dev_contracts/contracts_ready_for_prod/Copy_PtrnEcoSystemParticipation.sol\":9271:9272  0 */\n      0x00\n        /* \"ptrn_eco_system_dev_contracts/contracts_ready_for_prod/Copy_PtrnEcoSystemParticipation.sol\":9255:9268  dailyWithdraw */\n      sload(0x07)\n        /* \"ptrn_eco_system_dev_contracts/contracts_ready_for_prod/Copy_PtrnEcoSystemParticipation.sol\":9255:9272  dailyWithdraw > 0 */\n      gt\n        /* \"ptrn_eco_system_dev_contracts/contracts_ready_for_prod/Copy_PtrnEcoSystemParticipation.sol\":9247:9297  require(dailyWithdraw > 0, \"Nothing to withdraw.\") */\n      tag_193\n      jumpi\n      mload(0x40)\n      0x08c379a000000000000000000000000000000000000000000000000000000000\n      dup2\n      mstore\n      0x04\n      add\n      tag_194\n      swap1\n      tag_195\n      jump\t// in\n    tag_194:\n      mload(0x40)\n      dup1\n      swap2\n      sub\n      swap1\n      revert\n    tag_193:\n        /* \"ptrn_eco_system_dev_contracts/contracts_ready_for_prod/Copy_PtrnEcoSystemParticipation.sol\":9366:9367  0 */\n      0x00\n        /* \"ptrn_eco_system_dev_contracts/contracts_ready_for_prod/Copy_PtrnEcoSystemParticipation.sol\":9350:9363  dailyWithdraw */\n      sload(0x07)\n        /* \"ptrn_eco_system_dev_contracts/contracts_ready_for_prod/Copy_PtrnEcoSystemParticipation.sol\":9328:9347  availableToWithdraw */\n      sload(0x06)\n        /* \"ptrn_eco_system_dev_contracts/contracts_ready_for_prod/Copy_PtrnEcoSystemParticipation.sol\":9328:9363  availableToWithdraw - dailyWithdraw */\n      tag_196\n      swap2\n      swap1\n      tag_180\n      jump\t// in\n    tag_196:\n        /* \"ptrn_eco_system_dev_contracts/contracts_ready_for_prod/Copy_PtrnEcoSystemParticipation.sol\":9328:9367  availableToWithdraw - dailyWithdraw > 0 */\n      gt\n        /* \"ptrn_eco_system_dev_contracts/contracts_ready_for_prod/Copy_PtrnEcoSystemParticipation.sol\":9307:9424  require(... */\n      tag_197\n      jumpi\n      mload(0x40)\n      0x08c379a000000000000000000000000000000000000000000000000000000000\n      dup2\n      mstore\n      0x04\n      add\n      tag_198\n      swap1\n      tag_199\n      jump\t// in\n    tag_198:\n      mload(0x40)\n      dup1\n      swap2\n      sub\n      swap1\n      revert\n    tag_197:\n        /* \"ptrn_eco_system_dev_contracts/contracts_ready_for_prod/Copy_PtrnEcoSystemParticipation.sol\":9457:9470  dailyWithdraw */\n      sload(0x07)\n        /* \"ptrn_eco_system_dev_contracts/contracts_ready_for_prod/Copy_PtrnEcoSystemParticipation.sol\":9434:9453  availableToWithdraw */\n      0x06\n      0x00\n        /* \"ptrn_eco_system_dev_contracts/contracts_ready_for_prod/Copy_PtrnEcoSystemParticipation.sol\":9434:9470  availableToWithdraw -= dailyWithdraw */\n      dup3\n      dup3\n      sload\n      tag_200\n      swap2\n      swap1\n      tag_180\n      jump\t// in\n    tag_200:\n      swap3\n      pop\n      pop\n      dup2\n      swap1\n      sstore\n      pop\n        /* \"ptrn_eco_system_dev_contracts/contracts_ready_for_prod/Copy_PtrnEcoSystemParticipation.sol\":9496:9497  0 */\n      0x00\n        /* \"ptrn_eco_system_dev_contracts/contracts_ready_for_prod/Copy_PtrnEcoSystemParticipation.sol\":9480:9493  dailyWithdraw */\n      0x07\n        /* \"ptrn_eco_system_dev_contracts/contracts_ready_for_prod/Copy_PtrnEcoSystemParticipation.sol\":9480:9497  dailyWithdraw = 0 */\n      dup2\n      swap1\n      sstore\n      pop\n        /* \"ptrn_eco_system_dev_contracts/contracts_ready_for_prod/Copy_PtrnEcoSystemParticipation.sol\":9192:9504  function initiateBulkMint() public onlyOwner {... */\n      jump\t// out\n        /* \"ptrn_eco_system_dev_contracts/contracts_ready_for_prod/Copy_PtrnEcoSystemParticipation.sol\":2915:3034  function deactivate() public activated onlyAuthorized whenNotPaused {... */\n    tag_61:\n        /* \"ptrn_eco_system_dev_contracts/contracts_ready_for_prod/Copy_PtrnEcoSystemParticipation.sol\":1903:1904  0 */\n      0x00\n        /* \"ptrn_eco_system_dev_contracts/contracts_ready_for_prod/Copy_PtrnEcoSystemParticipation.sol\":1870:1905  acceptedSenderAddress != address(0) */\n      0xffffffffffffffffffffffffffffffffffffffff\n      and\n        /* \"ptrn_eco_system_dev_contracts/contracts_ready_for_prod/Copy_PtrnEcoSystemParticipation.sol\":1870:1891  acceptedSenderAddress */\n      0x01\n      0x00\n      swap1\n      sload\n      swap1\n      0x0100\n      exp\n      swap1\n      div\n      0xffffffffffffffffffffffffffffffffffffffff\n      and\n        /* \"ptrn_eco_system_dev_contracts/contracts_ready_for_prod/Copy_PtrnEcoSystemParticipation.sol\":1870:1905  acceptedSenderAddress != address(0) */\n      0xffffffffffffffffffffffffffffffffffffffff\n      and\n      sub\n        /* \"ptrn_eco_system_dev_contracts/contracts_ready_for_prod/Copy_PtrnEcoSystemParticipation.sol\":1862:1924  require(acceptedSenderAddress != address(0), \"Not activated.\") */\n      tag_202\n      jumpi\n      mload(0x40)\n      0x08c379a000000000000000000000000000000000000000000000000000000000\n      dup2\n      mstore\n      0x04\n      add\n      tag_203\n      swap1\n      tag_143\n      jump\t// in\n    tag_203:\n      mload(0x40)\n      dup1\n      swap2\n      sub\n      swap1\n      revert\n    tag_202:\n        /* \"ptrn_eco_system_dev_contracts/contracts_ready_for_prod/Copy_PtrnEcoSystemParticipation.sol\":1766:1787  acceptedSenderAddress */\n      0x01\n      0x00\n      swap1\n      sload\n      swap1\n      0x0100\n      exp\n      swap1\n      div\n      0xffffffffffffffffffffffffffffffffffffffff\n      and\n        /* \"ptrn_eco_system_dev_contracts/contracts_ready_for_prod/Copy_PtrnEcoSystemParticipation.sol\":1752:1787  msg.sender == acceptedSenderAddress */\n      0xffffffffffffffffffffffffffffffffffffffff\n      and\n        /* \"ptrn_eco_system_dev_contracts/contracts_ready_for_prod/Copy_PtrnEcoSystemParticipation.sol\":1752:1762  msg.sender */\n      caller\n        /* \"ptrn_eco_system_dev_contracts/contracts_ready_for_prod/Copy_PtrnEcoSystemParticipation.sol\":1752:1787  msg.sender == acceptedSenderAddress */\n      0xffffffffffffffffffffffffffffffffffffffff\n      and\n      eq\n        /* \"ptrn_eco_system_dev_contracts/contracts_ready_for_prod/Copy_PtrnEcoSystemParticipation.sol\":1744:1807  require(msg.sender == acceptedSenderAddress, \"Not Authorized!\") */\n      tag_205\n      jumpi\n      mload(0x40)\n      0x08c379a000000000000000000000000000000000000000000000000000000000\n      dup2\n      mstore\n      0x04\n      add\n      tag_206\n      swap1\n      tag_151\n      jump\t// in\n    tag_206:\n      mload(0x40)\n      dup1\n      swap2\n      sub\n      swap1\n      revert\n    tag_205:\n        /* \"@openzeppelin/contracts/security/Pausable.sol\":1239:1258  _requireNotPaused() */\n      tag_208\n        /* \"@openzeppelin/contracts/security/Pausable.sol\":1239:1256  _requireNotPaused */\n      tag_134\n        /* \"@openzeppelin/contracts/security/Pausable.sol\":1239:1258  _requireNotPaused() */\n      jump\t// in\n    tag_208:\n        /* \"ptrn_eco_system_dev_contracts/contracts_ready_for_prod/Copy_PtrnEcoSystemParticipation.sol\":3025:3026  0 */\n      0x00\n        /* \"ptrn_eco_system_dev_contracts/contracts_ready_for_prod/Copy_PtrnEcoSystemParticipation.sol\":2993:3014  acceptedSenderAddress */\n      0x01\n      0x00\n        /* \"ptrn_eco_system_dev_contracts/contracts_ready_for_prod/Copy_PtrnEcoSystemParticipation.sol\":2993:3027  acceptedSenderAddress = address(0) */\n      0x0100\n      exp\n      dup2\n      sload\n      dup2\n      0xffffffffffffffffffffffffffffffffffffffff\n      mul\n      not\n      and\n      swap1\n      dup4\n      0xffffffffffffffffffffffffffffffffffffffff\n      and\n      mul\n      or\n      swap1\n      sstore\n      pop\n        /* \"ptrn_eco_system_dev_contracts/contracts_ready_for_prod/Copy_PtrnEcoSystemParticipation.sol\":2915:3034  function deactivate() public activated onlyAuthorized whenNotPaused {... */\n      jump\t// out\n        /* \"@openzeppelin/contracts/security/Pausable.sol\":1615:1699  function paused() public view virtual returns (bool) {... */\n    tag_63:\n        /* \"@openzeppelin/contracts/security/Pausable.sol\":1662:1666  bool */\n      0x00\n        /* \"@openzeppelin/contracts/security/Pausable.sol\":1685:1692  _paused */\n      dup1\n      0x00\n      swap1\n      sload\n      swap1\n      0x0100\n      exp\n      swap1\n      div\n      0xff\n      and\n        /* \"@openzeppelin/contracts/security/Pausable.sol\":1678:1692  return _paused */\n      swap1\n      pop\n        /* \"@openzeppelin/contracts/security/Pausable.sol\":1615:1699  function paused() public view virtual returns (bool) {... */\n      swap1\n      jump\t// out\n        /* \"ptrn_eco_system_dev_contracts/contracts_ready_for_prod/Copy_PtrnEcoSystemParticipation.sol\":9801:10095  function transferOfToken(... */\n    tag_69:\n        /* \"ptrn_eco_system_dev_contracts/contracts_ready_for_prod/Copy_PtrnEcoSystemParticipation.sol\":9938:9942  bool */\n      0x00\n        /* \"@openzeppelin/contracts/access/Ownable.sol\":1094:1107  _checkOwner() */\n      tag_212\n        /* \"@openzeppelin/contracts/access/Ownable.sol\":1094:1105  _checkOwner */\n      tag_128\n        /* \"@openzeppelin/contracts/access/Ownable.sol\":1094:1107  _checkOwner() */\n      jump\t// in\n    tag_212:\n        /* \"ptrn_eco_system_dev_contracts/contracts_ready_for_prod/Copy_PtrnEcoSystemParticipation.sol\":9994:10000  amount */\n      dup2\n        /* \"ptrn_eco_system_dev_contracts/contracts_ready_for_prod/Copy_PtrnEcoSystemParticipation.sol\":9962:9990  balanceOfToken(tokenAddress) */\n      tag_214\n        /* \"ptrn_eco_system_dev_contracts/contracts_ready_for_prod/Copy_PtrnEcoSystemParticipation.sol\":9977:9989  tokenAddress */\n      dup6\n        /* \"ptrn_eco_system_dev_contracts/contracts_ready_for_prod/Copy_PtrnEcoSystemParticipation.sol\":9962:9976  balanceOfToken */\n      tag_102\n        /* \"ptrn_eco_system_dev_contracts/contracts_ready_for_prod/Copy_PtrnEcoSystemParticipation.sol\":9962:9990  balanceOfToken(tokenAddress) */\n      jump\t// in\n    tag_214:\n        /* \"ptrn_eco_system_dev_contracts/contracts_ready_for_prod/Copy_PtrnEcoSystemParticipation.sol\":9962:10000  balanceOfToken(tokenAddress) >= amount */\n      lt\n      iszero\n        /* \"ptrn_eco_system_dev_contracts/contracts_ready_for_prod/Copy_PtrnEcoSystemParticipation.sol\":9954:10024  require(balanceOfToken(tokenAddress) >= amount, \"Not enough balance!\") */\n      tag_215\n      jumpi\n      mload(0x40)\n      0x08c379a000000000000000000000000000000000000000000000000000000000\n      dup2\n      mstore\n      0x04\n      add\n      tag_216\n      swap1\n      tag_217\n      jump\t// in\n    tag_216:\n      mload(0x40)\n      dup1\n      swap2\n      sub\n      swap1\n      revert\n    tag_215:\n        /* \"ptrn_eco_system_dev_contracts/contracts_ready_for_prod/Copy_PtrnEcoSystemParticipation.sol\":10048:10060  tokenAddress */\n      dup4\n        /* \"ptrn_eco_system_dev_contracts/contracts_ready_for_prod/Copy_PtrnEcoSystemParticipation.sol\":10041:10070  IERC20(tokenAddress).transfer */\n      0xffffffffffffffffffffffffffffffffffffffff\n      and\n      0xa9059cbb\n        /* \"ptrn_eco_system_dev_contracts/contracts_ready_for_prod/Copy_PtrnEcoSystemParticipation.sol\":10071:10079  receiver */\n      dup5\n        /* \"ptrn_eco_system_dev_contracts/contracts_ready_for_prod/Copy_PtrnEcoSystemParticipation.sol\":10081:10087  amount */\n      dup5\n        /* \"ptrn_eco_system_dev_contracts/contracts_ready_for_prod/Copy_PtrnEcoSystemParticipation.sol\":10041:10088  IERC20(tokenAddress).transfer(receiver, amount) */\n      mload(0x40)\n      dup4\n      0xffffffff\n      and\n      0xe0\n      shl\n      dup2\n      mstore\n      0x04\n      add\n      tag_218\n      swap3\n      swap2\n      swap1\n      tag_219\n      jump\t// in\n    tag_218:\n      0x20\n      mload(0x40)\n      dup1\n      dup4\n      sub\n      dup2\n      0x00\n      dup8\n      gas\n      call\n      iszero\n      dup1\n      iszero\n      tag_221\n      jumpi\n      returndatasize\n      0x00\n      dup1\n      returndatacopy\n      revert(0x00, returndatasize)\n    tag_221:\n      pop\n      pop\n      pop\n      pop\n      mload(0x40)\n      returndatasize\n      not(0x1f)\n      0x1f\n      dup3\n      add\n      and\n      dup3\n      add\n      dup1\n      0x40\n      mstore\n      pop\n      dup2\n      add\n      swap1\n      tag_222\n      swap2\n      swap1\n      tag_223\n      jump\t// in\n    tag_222:\n        /* \"ptrn_eco_system_dev_contracts/contracts_ready_for_prod/Copy_PtrnEcoSystemParticipation.sol\":10034:10088  return IERC20(tokenAddress).transfer(receiver, amount) */\n      swap1\n      pop\n        /* \"ptrn_eco_system_dev_contracts/contracts_ready_for_prod/Copy_PtrnEcoSystemParticipation.sol\":9801:10095  function transferOfToken(... */\n      swap4\n      swap3\n      pop\n      pop\n      pop\n      jump\t// out\n        /* \"@openzeppelin/contracts/access/Ownable.sol\":1831:1932  function renounceOwnership() public virtual onlyOwner {... */\n    tag_72:\n        /* \"@openzeppelin/contracts/access/Ownable.sol\":1094:1107  _checkOwner() */\n      tag_225\n        /* \"@openzeppelin/contracts/access/Ownable.sol\":1094:1105  _checkOwner */\n      tag_128\n        /* \"@openzeppelin/contracts/access/Ownable.sol\":1094:1107  _checkOwner() */\n      jump\t// in\n    tag_225:\n        /* \"@openzeppelin/contracts/access/Ownable.sol\":1895:1925  _transferOwnership(address(0)) */\n      tag_227\n        /* \"@openzeppelin/contracts/access/Ownable.sol\":1922:1923  0 */\n      0x00\n        /* \"@openzeppelin/contracts/access/Ownable.sol\":1895:1913  _transferOwnership */\n      tag_228\n        /* \"@openzeppelin/contracts/access/Ownable.sol\":1895:1925  _transferOwnership(address(0)) */\n      jump\t// in\n    tag_227:\n        /* \"@openzeppelin/contracts/access/Ownable.sol\":1831:1932  function renounceOwnership() public virtual onlyOwner {... */\n      jump\t// out\n        /* \"ptrn_eco_system_dev_contracts/contracts_ready_for_prod/Copy_PtrnEcoSystemParticipation.sol\":8674:8789  function balanceOf() public view onlyOwner returns (uint256) {... */\n    tag_74:\n        /* \"ptrn_eco_system_dev_contracts/contracts_ready_for_prod/Copy_PtrnEcoSystemParticipation.sol\":8726:8733  uint256 */\n      0x00\n        /* \"@openzeppelin/contracts/access/Ownable.sol\":1094:1107  _checkOwner() */\n      tag_230\n        /* \"@openzeppelin/contracts/access/Ownable.sol\":1094:1105  _checkOwner */\n      tag_128\n        /* \"@openzeppelin/contracts/access/Ownable.sol\":1094:1107  _checkOwner() */\n      jump\t// in\n    tag_230:\n        /* \"ptrn_eco_system_dev_contracts/contracts_ready_for_prod/Copy_PtrnEcoSystemParticipation.sol\":8752:8757  TOKEN */\n      immutable(\"0x553650eae2a4d3756ef7157643f92ca8faebf3dd225aa14028a1a71d94f45eea\")\n        /* \"ptrn_eco_system_dev_contracts/contracts_ready_for_prod/Copy_PtrnEcoSystemParticipation.sol\":8752:8767  TOKEN.balanceOf */\n      0xffffffffffffffffffffffffffffffffffffffff\n      and\n      0x70a08231\n        /* \"ptrn_eco_system_dev_contracts/contracts_ready_for_prod/Copy_PtrnEcoSystemParticipation.sol\":8776:8780  this */\n      address\n        /* \"ptrn_eco_system_dev_contracts/contracts_ready_for_prod/Copy_PtrnEcoSystemParticipation.sol\":8752:8782  TOKEN.balanceOf(address(this)) */\n      mload(0x40)\n      dup3\n      0xffffffff\n      and\n      0xe0\n      shl\n      dup2\n      mstore\n      0x04\n      add\n      tag_232\n      swap2\n      swap1\n      tag_43\n      jump\t// in\n    tag_232:\n      0x20\n      mload(0x40)\n      dup1\n      dup4\n      sub\n      dup2\n      dup7\n      gas\n      staticcall\n      iszero\n      dup1\n      iszero\n      tag_234\n      jumpi\n      returndatasize\n      0x00\n      dup1\n      returndatacopy\n      revert(0x00, returndatasize)\n    tag_234:\n      pop\n      pop\n      pop\n      pop\n      mload(0x40)\n      returndatasize\n      not(0x1f)\n      0x1f\n      dup3\n      add\n      and\n      dup3\n      add\n      dup1\n      0x40\n      mstore\n      pop\n      dup2\n      add\n      swap1\n      tag_235\n      swap2\n      swap1\n      tag_236\n      jump\t// in\n    tag_235:\n        /* \"ptrn_eco_system_dev_contracts/contracts_ready_for_prod/Copy_PtrnEcoSystemParticipation.sol\":8745:8782  return TOKEN.balanceOf(address(this)) */\n      swap1\n      pop\n        /* \"ptrn_eco_system_dev_contracts/contracts_ready_for_prod/Copy_PtrnEcoSystemParticipation.sol\":8674:8789  function balanceOf() public view onlyOwner returns (uint256) {... */\n      swap1\n      jump\t// out\n        /* \"ptrn_eco_system_dev_contracts/contracts_ready_for_prod/Copy_PtrnEcoSystemParticipation.sol\":6950:7287  function calculateAmount(... */\n    tag_79:\n        /* \"ptrn_eco_system_dev_contracts/contracts_ready_for_prod/Copy_PtrnEcoSystemParticipation.sol\":7107:7114  uint256 */\n      0x00\n        /* \"ptrn_eco_system_dev_contracts/contracts_ready_for_prod/Copy_PtrnEcoSystemParticipation.sol\":1903:1904  0 */\n      dup1\n        /* \"ptrn_eco_system_dev_contracts/contracts_ready_for_prod/Copy_PtrnEcoSystemParticipation.sol\":1870:1905  acceptedSenderAddress != address(0) */\n      0xffffffffffffffffffffffffffffffffffffffff\n      and\n        /* \"ptrn_eco_system_dev_contracts/contracts_ready_for_prod/Copy_PtrnEcoSystemParticipation.sol\":1870:1891  acceptedSenderAddress */\n      0x01\n      0x00\n      swap1\n      sload\n      swap1\n      0x0100\n      exp\n      swap1\n      div\n      0xffffffffffffffffffffffffffffffffffffffff\n      and\n        /* \"ptrn_eco_system_dev_contracts/contracts_ready_for_prod/Copy_PtrnEcoSystemParticipation.sol\":1870:1905  acceptedSenderAddress != address(0) */\n      0xffffffffffffffffffffffffffffffffffffffff\n      and\n      sub\n        /* \"ptrn_eco_system_dev_contracts/contracts_ready_for_prod/Copy_PtrnEcoSystemParticipation.sol\":1862:1924  require(acceptedSenderAddress != address(0), \"Not activated.\") */\n      tag_238\n      jumpi\n      mload(0x40)\n      0x08c379a000000000000000000000000000000000000000000000000000000000\n      dup2\n      mstore\n      0x04\n      add\n      tag_239\n      swap1\n      tag_143\n      jump\t// in\n    tag_239:\n      mload(0x40)\n      dup1\n      swap2\n      sub\n      swap1\n      revert\n    tag_238:\n        /* \"ptrn_eco_system_dev_contracts/contracts_ready_for_prod/Copy_PtrnEcoSystemParticipation.sol\":2027:2048  acceptedSenderAddress */\n      0x01\n      0x00\n      swap1\n      sload\n      swap1\n      0x0100\n      exp\n      swap1\n      div\n      0xffffffffffffffffffffffffffffffffffffffff\n      and\n        /* \"ptrn_eco_system_dev_contracts/contracts_ready_for_prod/Copy_PtrnEcoSystemParticipation.sol\":2013:2048  msg.sender == acceptedSenderAddress */\n      0xffffffffffffffffffffffffffffffffffffffff\n      and\n        /* \"ptrn_eco_system_dev_contracts/contracts_ready_for_prod/Copy_PtrnEcoSystemParticipation.sol\":2013:2023  msg.sender */\n      caller\n        /* \"ptrn_eco_system_dev_contracts/contracts_ready_for_prod/Copy_PtrnEcoSystemParticipation.sol\":2013:2048  msg.sender == acceptedSenderAddress */\n      0xffffffffffffffffffffffffffffffffffffffff\n      and\n      eq\n        /* \"ptrn_eco_system_dev_contracts/contracts_ready_for_prod/Copy_PtrnEcoSystemParticipation.sol\":2013:2073  msg.sender == acceptedSenderAddress || msg.sender == owner() */\n      dup1\n      tag_241\n      jumpi\n      pop\n        /* \"ptrn_eco_system_dev_contracts/contracts_ready_for_prod/Copy_PtrnEcoSystemParticipation.sol\":2066:2073  owner() */\n      tag_242\n        /* \"ptrn_eco_system_dev_contracts/contracts_ready_for_prod/Copy_PtrnEcoSystemParticipation.sol\":2066:2071  owner */\n      tag_82\n        /* \"ptrn_eco_system_dev_contracts/contracts_ready_for_prod/Copy_PtrnEcoSystemParticipation.sol\":2066:2073  owner() */\n      jump\t// in\n    tag_242:\n        /* \"ptrn_eco_system_dev_contracts/contracts_ready_for_prod/Copy_PtrnEcoSystemParticipation.sol\":2052:2073  msg.sender == owner() */\n      0xffffffffffffffffffffffffffffffffffffffff\n      and\n        /* \"ptrn_eco_system_dev_contracts/contracts_ready_for_prod/Copy_PtrnEcoSystemParticipation.sol\":2052:2062  msg.sender */\n      caller\n        /* \"ptrn_eco_system_dev_contracts/contracts_ready_for_prod/Copy_PtrnEcoSystemParticipation.sol\":2052:2073  msg.sender == owner() */\n      0xffffffffffffffffffffffffffffffffffffffff\n      and\n      eq\n        /* \"ptrn_eco_system_dev_contracts/contracts_ready_for_prod/Copy_PtrnEcoSystemParticipation.sol\":2013:2073  msg.sender == acceptedSenderAddress || msg.sender == owner() */\n    tag_241:\n        /* \"ptrn_eco_system_dev_contracts/contracts_ready_for_prod/Copy_PtrnEcoSystemParticipation.sol\":1991:2138  require(... */\n      tag_243\n      jumpi\n      mload(0x40)\n      0x08c379a000000000000000000000000000000000000000000000000000000000\n      dup2\n      mstore\n      0x04\n      add\n      tag_244\n      swap1\n      tag_174\n      jump\t// in\n    tag_244:\n      mload(0x40)\n      dup1\n      swap2\n      sub\n      swap1\n      revert\n    tag_243:\n        /* \"ptrn_eco_system_dev_contracts/contracts_ready_for_prod/Copy_PtrnEcoSystemParticipation.sol\":7141:7142  0 */\n      0x00\n        /* \"ptrn_eco_system_dev_contracts/contracts_ready_for_prod/Copy_PtrnEcoSystemParticipation.sol\":7134:7138  rate */\n      dup4\n        /* \"ptrn_eco_system_dev_contracts/contracts_ready_for_prod/Copy_PtrnEcoSystemParticipation.sol\":7134:7142  rate > 0 */\n      gt\n        /* \"ptrn_eco_system_dev_contracts/contracts_ready_for_prod/Copy_PtrnEcoSystemParticipation.sol\":7126:7177  require(rate > 0, \"Rate must be greater than zero\") */\n      tag_246\n      jumpi\n      mload(0x40)\n      0x08c379a000000000000000000000000000000000000000000000000000000000\n      dup2\n      mstore\n      0x04\n      add\n      tag_247\n      swap1\n      tag_248\n      jump\t// in\n    tag_247:\n      mload(0x40)\n      dup1\n      swap2\n      sub\n      swap1\n      revert\n    tag_246:\n        /* \"ptrn_eco_system_dev_contracts/contracts_ready_for_prod/Copy_PtrnEcoSystemParticipation.sol\":7187:7213  uint256 amountIn26Decimals */\n      0x00\n        /* \"ptrn_eco_system_dev_contracts/contracts_ready_for_prod/Copy_PtrnEcoSystemParticipation.sol\":7229:7238  _decimals */\n      dup3\n        /* \"ptrn_eco_system_dev_contracts/contracts_ready_for_prod/Copy_PtrnEcoSystemParticipation.sol\":7225:7227  10 */\n      0x0a\n        /* \"ptrn_eco_system_dev_contracts/contracts_ready_for_prod/Copy_PtrnEcoSystemParticipation.sol\":7225:7238  10**_decimals */\n      tag_249\n      swap2\n      swap1\n      tag_250\n      jump\t// in\n    tag_249:\n        /* \"ptrn_eco_system_dev_contracts/contracts_ready_for_prod/Copy_PtrnEcoSystemParticipation.sol\":7216:7222  points */\n      dup6\n        /* \"ptrn_eco_system_dev_contracts/contracts_ready_for_prod/Copy_PtrnEcoSystemParticipation.sol\":7216:7238  points * 10**_decimals */\n      tag_251\n      swap2\n      swap1\n      tag_252\n      jump\t// in\n    tag_251:\n        /* \"ptrn_eco_system_dev_contracts/contracts_ready_for_prod/Copy_PtrnEcoSystemParticipation.sol\":7187:7238  uint256 amountIn26Decimals = points * 10**_decimals */\n      swap1\n      pop\n        /* \"ptrn_eco_system_dev_contracts/contracts_ready_for_prod/Copy_PtrnEcoSystemParticipation.sol\":7276:7280  rate */\n      dup4\n        /* \"ptrn_eco_system_dev_contracts/contracts_ready_for_prod/Copy_PtrnEcoSystemParticipation.sol\":7255:7273  amountIn26Decimals */\n      dup2\n        /* \"ptrn_eco_system_dev_contracts/contracts_ready_for_prod/Copy_PtrnEcoSystemParticipation.sol\":7255:7280  amountIn26Decimals / rate */\n      tag_253\n      swap2\n      swap1\n      tag_254\n      jump\t// in\n    tag_253:\n        /* \"ptrn_eco_system_dev_contracts/contracts_ready_for_prod/Copy_PtrnEcoSystemParticipation.sol\":7248:7280  return amountIn26Decimals / rate */\n      swap2\n      pop\n      pop\n        /* \"ptrn_eco_system_dev_contracts/contracts_ready_for_prod/Copy_PtrnEcoSystemParticipation.sol\":6950:7287  function calculateAmount(... */\n      swap4\n      swap3\n      pop\n      pop\n      pop\n      jump\t// out\n        /* \"@openzeppelin/contracts/access/Ownable.sol\":1201:1286  function owner() public view virtual returns (address) {... */\n    tag_82:\n        /* \"@openzeppelin/contracts/access/Ownable.sol\":1247:1254  address */\n      0x00\n        /* \"@openzeppelin/contracts/access/Ownable.sol\":1273:1279  _owner */\n      dup1\n      0x01\n      swap1\n      sload\n      swap1\n      0x0100\n      exp\n      swap1\n      div\n      0xffffffffffffffffffffffffffffffffffffffff\n      and\n        /* \"@openzeppelin/contracts/access/Ownable.sol\":1266:1279  return _owner */\n      swap1\n      pop\n        /* \"@openzeppelin/contracts/access/Ownable.sol\":1201:1286  function owner() public view virtual returns (address) {... */\n      swap1\n      jump\t// out\n        /* \"ptrn_eco_system_dev_contracts/contracts_ready_for_prod/Copy_PtrnEcoSystemParticipation.sol\":11919:12090  function getDailyWithdraw()... */\n    tag_85:\n        /* \"ptrn_eco_system_dev_contracts/contracts_ready_for_prod/Copy_PtrnEcoSystemParticipation.sol\":12040:12047  uint256 */\n      0x00\n        /* \"ptrn_eco_system_dev_contracts/contracts_ready_for_prod/Copy_PtrnEcoSystemParticipation.sol\":1903:1904  0 */\n      dup1\n        /* \"ptrn_eco_system_dev_contracts/contracts_ready_for_prod/Copy_PtrnEcoSystemParticipation.sol\":1870:1905  acceptedSenderAddress != address(0) */\n      0xffffffffffffffffffffffffffffffffffffffff\n      and\n        /* \"ptrn_eco_system_dev_contracts/contracts_ready_for_prod/Copy_PtrnEcoSystemParticipation.sol\":1870:1891  acceptedSenderAddress */\n      0x01\n      0x00\n      swap1\n      sload\n      swap1\n      0x0100\n      exp\n      swap1\n      div\n      0xffffffffffffffffffffffffffffffffffffffff\n      and\n        /* \"ptrn_eco_system_dev_contracts/contracts_ready_for_prod/Copy_PtrnEcoSystemParticipation.sol\":1870:1905  acceptedSenderAddress != address(0) */\n      0xffffffffffffffffffffffffffffffffffffffff\n      and\n      sub\n        /* \"ptrn_eco_system_dev_contracts/contracts_ready_for_prod/Copy_PtrnEcoSystemParticipation.sol\":1862:1924  require(acceptedSenderAddress != address(0), \"Not activated.\") */\n      tag_257\n      jumpi\n      mload(0x40)\n      0x08c379a000000000000000000000000000000000000000000000000000000000\n      dup2\n      mstore\n      0x04\n      add\n      tag_258\n      swap1\n      tag_143\n      jump\t// in\n    tag_258:\n      mload(0x40)\n      dup1\n      swap2\n      sub\n      swap1\n      revert\n    tag_257:\n        /* \"ptrn_eco_system_dev_contracts/contracts_ready_for_prod/Copy_PtrnEcoSystemParticipation.sol\":2027:2048  acceptedSenderAddress */\n      0x01\n      0x00\n      swap1\n      sload\n      swap1\n      0x0100\n      exp\n      swap1\n      div\n      0xffffffffffffffffffffffffffffffffffffffff\n      and\n        /* \"ptrn_eco_system_dev_contracts/contracts_ready_for_prod/Copy_PtrnEcoSystemParticipation.sol\":2013:2048  msg.sender == acceptedSenderAddress */\n      0xffffffffffffffffffffffffffffffffffffffff\n      and\n        /* \"ptrn_eco_system_dev_contracts/contracts_ready_for_prod/Copy_PtrnEcoSystemParticipation.sol\":2013:2023  msg.sender */\n      caller\n        /* \"ptrn_eco_system_dev_contracts/contracts_ready_for_prod/Copy_PtrnEcoSystemParticipation.sol\":2013:2048  msg.sender == acceptedSenderAddress */\n      0xffffffffffffffffffffffffffffffffffffffff\n      and\n      eq\n        /* \"ptrn_eco_system_dev_contracts/contracts_ready_for_prod/Copy_PtrnEcoSystemParticipation.sol\":2013:2073  msg.sender == acceptedSenderAddress || msg.sender == owner() */\n      dup1\n      tag_260\n      jumpi\n      pop\n        /* \"ptrn_eco_system_dev_contracts/contracts_ready_for_prod/Copy_PtrnEcoSystemParticipation.sol\":2066:2073  owner() */\n      tag_261\n        /* \"ptrn_eco_system_dev_contracts/contracts_ready_for_prod/Copy_PtrnEcoSystemParticipation.sol\":2066:2071  owner */\n      tag_82\n        /* \"ptrn_eco_system_dev_contracts/contracts_ready_for_prod/Copy_PtrnEcoSystemParticipation.sol\":2066:2073  owner() */\n      jump\t// in\n    tag_261:\n        /* \"ptrn_eco_system_dev_contracts/contracts_ready_for_prod/Copy_PtrnEcoSystemParticipation.sol\":2052:2073  msg.sender == owner() */\n      0xffffffffffffffffffffffffffffffffffffffff\n      and\n        /* \"ptrn_eco_system_dev_contracts/contracts_ready_for_prod/Copy_PtrnEcoSystemParticipation.sol\":2052:2062  msg.sender */\n      caller\n        /* \"ptrn_eco_system_dev_contracts/contracts_ready_for_prod/Copy_PtrnEcoSystemParticipation.sol\":2052:2073  msg.sender == owner() */\n      0xffffffffffffffffffffffffffffffffffffffff\n      and\n      eq\n        /* \"ptrn_eco_system_dev_contracts/contracts_ready_for_prod/Copy_PtrnEcoSystemParticipation.sol\":2013:2073  msg.sender == acceptedSenderAddress || msg.sender == owner() */\n    tag_260:\n        /* \"ptrn_eco_system_dev_contracts/contracts_ready_for_prod/Copy_PtrnEcoSystemParticipation.sol\":1991:2138  require(... */\n      tag_262\n      jumpi\n      mload(0x40)\n      0x08c379a000000000000000000000000000000000000000000000000000000000\n      dup2\n      mstore\n      0x04\n      add\n      tag_263\n      swap1\n      tag_174\n      jump\t// in\n    tag_263:\n      mload(0x40)\n      dup1\n      swap2\n      sub\n      swap1\n      revert\n    tag_262:\n        /* \"ptrn_eco_system_dev_contracts/contracts_ready_for_prod/Copy_PtrnEcoSystemParticipation.sol\":12070:12083  dailyWithdraw */\n      sload(0x07)\n        /* \"ptrn_eco_system_dev_contracts/contracts_ready_for_prod/Copy_PtrnEcoSystemParticipation.sol\":12063:12083  return dailyWithdraw */\n      swap1\n      pop\n        /* \"ptrn_eco_system_dev_contracts/contracts_ready_for_prod/Copy_PtrnEcoSystemParticipation.sol\":11919:12090  function getDailyWithdraw()... */\n      swap1\n      jump\t// out\n        /* \"ptrn_eco_system_dev_contracts/contracts_ready_for_prod/Copy_PtrnEcoSystemParticipation.sol\":11544:11723  function getTotalPointsGenerated()... */\n    tag_88:\n        /* \"ptrn_eco_system_dev_contracts/contracts_ready_for_prod/Copy_PtrnEcoSystemParticipation.sol\":11672:11679  uint256 */\n      0x00\n        /* \"ptrn_eco_system_dev_contracts/contracts_ready_for_prod/Copy_PtrnEcoSystemParticipation.sol\":1903:1904  0 */\n      dup1\n        /* \"ptrn_eco_system_dev_contracts/contracts_ready_for_prod/Copy_PtrnEcoSystemParticipation.sol\":1870:1905  acceptedSenderAddress != address(0) */\n      0xffffffffffffffffffffffffffffffffffffffff\n      and\n        /* \"ptrn_eco_system_dev_contracts/contracts_ready_for_prod/Copy_PtrnEcoSystemParticipation.sol\":1870:1891  acceptedSenderAddress */\n      0x01\n      0x00\n      swap1\n      sload\n      swap1\n      0x0100\n      exp\n      swap1\n      div\n      0xffffffffffffffffffffffffffffffffffffffff\n      and\n        /* \"ptrn_eco_system_dev_contracts/contracts_ready_for_prod/Copy_PtrnEcoSystemParticipation.sol\":1870:1905  acceptedSenderAddress != address(0) */\n      0xffffffffffffffffffffffffffffffffffffffff\n      and\n      sub\n        /* \"ptrn_eco_system_dev_contracts/contracts_ready_for_prod/Copy_PtrnEcoSystemParticipation.sol\":1862:1924  require(acceptedSenderAddress != address(0), \"Not activated.\") */\n      tag_266\n      jumpi\n      mload(0x40)\n      0x08c379a000000000000000000000000000000000000000000000000000000000\n      dup2\n      mstore\n      0x04\n      add\n      tag_267\n      swap1\n      tag_143\n      jump\t// in\n    tag_267:\n      mload(0x40)\n      dup1\n      swap2\n      sub\n      swap1\n      revert\n    tag_266:\n        /* \"ptrn_eco_system_dev_contracts/contracts_ready_for_prod/Copy_PtrnEcoSystemParticipation.sol\":2027:2048  acceptedSenderAddress */\n      0x01\n      0x00\n      swap1\n      sload\n      swap1\n      0x0100\n      exp\n      swap1\n      div\n      0xffffffffffffffffffffffffffffffffffffffff\n      and\n        /* \"ptrn_eco_system_dev_contracts/contracts_ready_for_prod/Copy_PtrnEcoSystemParticipation.sol\":2013:2048  msg.sender == acceptedSenderAddress */\n      0xffffffffffffffffffffffffffffffffffffffff\n      and\n        /* \"ptrn_eco_system_dev_contracts/contracts_ready_for_prod/Copy_PtrnEcoSystemParticipation.sol\":2013:2023  msg.sender */\n      caller\n        /* \"ptrn_eco_system_dev_contracts/contracts_ready_for_prod/Copy_PtrnEcoSystemParticipation.sol\":2013:2048  msg.sender == acceptedSenderAddress */\n      0xffffffffffffffffffffffffffffffffffffffff\n      and\n      eq\n        /* \"ptrn_eco_system_dev_contracts/contracts_ready_for_prod/Copy_PtrnEcoSystemParticipation.sol\":2013:2073  msg.sender == acceptedSenderAddress || msg.sender == owner() */\n      dup1\n      tag_269\n      jumpi\n      pop\n        /* \"ptrn_eco_system_dev_contracts/contracts_ready_for_prod/Copy_PtrnEcoSystemParticipation.sol\":2066:2073  owner() */\n      tag_270\n        /* \"ptrn_eco_system_dev_contracts/contracts_ready_for_prod/Copy_PtrnEcoSystemParticipation.sol\":2066:2071  owner */\n      tag_82\n        /* \"ptrn_eco_system_dev_contracts/contracts_ready_for_prod/Copy_PtrnEcoSystemParticipation.sol\":2066:2073  owner() */\n      jump\t// in\n    tag_270:\n        /* \"ptrn_eco_system_dev_contracts/contracts_ready_for_prod/Copy_PtrnEcoSystemParticipation.sol\":2052:2073  msg.sender == owner() */\n      0xffffffffffffffffffffffffffffffffffffffff\n      and\n        /* \"ptrn_eco_system_dev_contracts/contracts_ready_for_prod/Copy_PtrnEcoSystemParticipation.sol\":2052:2062  msg.sender */\n      caller\n        /* \"ptrn_eco_system_dev_contracts/contracts_ready_for_prod/Copy_PtrnEcoSystemParticipation.sol\":2052:2073  msg.sender == owner() */\n      0xffffffffffffffffffffffffffffffffffffffff\n      and\n      eq\n        /* \"ptrn_eco_system_dev_contracts/contracts_ready_for_prod/Copy_PtrnEcoSystemParticipation.sol\":2013:2073  msg.sender == acceptedSenderAddress || msg.sender == owner() */\n    tag_269:\n        /* \"ptrn_eco_system_dev_contracts/contracts_ready_for_prod/Copy_PtrnEcoSystemParticipation.sol\":1991:2138  require(... */\n      tag_271\n      jumpi\n      mload(0x40)\n      0x08c379a000000000000000000000000000000000000000000000000000000000\n      dup2\n      mstore\n      0x04\n      add\n      tag_272\n      swap1\n      tag_174\n      jump\t// in\n    tag_272:\n      mload(0x40)\n      dup1\n      swap2\n      sub\n      swap1\n      revert\n    tag_271:\n        /* \"ptrn_eco_system_dev_contracts/contracts_ready_for_prod/Copy_PtrnEcoSystemParticipation.sol\":11702:11716  totalConverted */\n      sload(0x05)\n        /* \"ptrn_eco_system_dev_contracts/contracts_ready_for_prod/Copy_PtrnEcoSystemParticipation.sol\":11695:11716  return totalConverted */\n      swap1\n      pop\n        /* \"ptrn_eco_system_dev_contracts/contracts_ready_for_prod/Copy_PtrnEcoSystemParticipation.sol\":11544:11723  function getTotalPointsGenerated()... */\n      swap1\n      jump\t// out\n        /* \"ptrn_eco_system_dev_contracts/contracts_ready_for_prod/Copy_PtrnEcoSystemParticipation.sol\":12367:12547  function getTokenInfo()... */\n    tag_91:\n        /* \"ptrn_eco_system_dev_contracts/contracts_ready_for_prod/Copy_PtrnEcoSystemParticipation.sol\":12466:12473  address */\n      0x00\n        /* \"ptrn_eco_system_dev_contracts/contracts_ready_for_prod/Copy_PtrnEcoSystemParticipation.sol\":12475:12488  string memory */\n      0x60\n        /* \"ptrn_eco_system_dev_contracts/contracts_ready_for_prod/Copy_PtrnEcoSystemParticipation.sol\":2027:2048  acceptedSenderAddress */\n      0x01\n      0x00\n      swap1\n      sload\n      swap1\n      0x0100\n      exp\n      swap1\n      div\n      0xffffffffffffffffffffffffffffffffffffffff\n      and\n        /* \"ptrn_eco_system_dev_contracts/contracts_ready_for_prod/Copy_PtrnEcoSystemParticipation.sol\":2013:2048  msg.sender == acceptedSenderAddress */\n      0xffffffffffffffffffffffffffffffffffffffff\n      and\n        /* \"ptrn_eco_system_dev_contracts/contracts_ready_for_prod/Copy_PtrnEcoSystemParticipation.sol\":2013:2023  msg.sender */\n      caller\n        /* \"ptrn_eco_system_dev_contracts/contracts_ready_for_prod/Copy_PtrnEcoSystemParticipation.sol\":2013:2048  msg.sender == acceptedSenderAddress */\n      0xffffffffffffffffffffffffffffffffffffffff\n      and\n      eq\n        /* \"ptrn_eco_system_dev_contracts/contracts_ready_for_prod/Copy_PtrnEcoSystemParticipation.sol\":2013:2073  msg.sender == acceptedSenderAddress || msg.sender == owner() */\n      dup1\n      tag_275\n      jumpi\n      pop\n        /* \"ptrn_eco_system_dev_contracts/contracts_ready_for_prod/Copy_PtrnEcoSystemParticipation.sol\":2066:2073  owner() */\n      tag_276\n        /* \"ptrn_eco_system_dev_contracts/contracts_ready_for_prod/Copy_PtrnEcoSystemParticipation.sol\":2066:2071  owner */\n      tag_82\n        /* \"ptrn_eco_system_dev_contracts/contracts_ready_for_prod/Copy_PtrnEcoSystemParticipation.sol\":2066:2073  owner() */\n      jump\t// in\n    tag_276:\n        /* \"ptrn_eco_system_dev_contracts/contracts_ready_for_prod/Copy_PtrnEcoSystemParticipation.sol\":2052:2073  msg.sender == owner() */\n      0xffffffffffffffffffffffffffffffffffffffff\n      and\n        /* \"ptrn_eco_system_dev_contracts/contracts_ready_for_prod/Copy_PtrnEcoSystemParticipation.sol\":2052:2062  msg.sender */\n      caller\n        /* \"ptrn_eco_system_dev_contracts/contracts_ready_for_prod/Copy_PtrnEcoSystemParticipation.sol\":2052:2073  msg.sender == owner() */\n      0xffffffffffffffffffffffffffffffffffffffff\n      and\n      eq\n        /* \"ptrn_eco_system_dev_contracts/contracts_ready_for_prod/Copy_PtrnEcoSystemParticipation.sol\":2013:2073  msg.sender == acceptedSenderAddress || msg.sender == owner() */\n    tag_275:\n        /* \"ptrn_eco_system_dev_contracts/contracts_ready_for_prod/Copy_PtrnEcoSystemParticipation.sol\":1991:2138  require(... */\n      tag_277\n      jumpi\n      mload(0x40)\n      0x08c379a000000000000000000000000000000000000000000000000000000000\n      dup2\n      mstore\n      0x04\n      add\n      tag_278\n      swap1\n      tag_174\n      jump\t// in\n    tag_278:\n      mload(0x40)\n      dup1\n      swap2\n      sub\n      swap1\n      revert\n    tag_277:\n        /* \"ptrn_eco_system_dev_contracts/contracts_ready_for_prod/Copy_PtrnEcoSystemParticipation.sol\":12520:12525  TOKEN */\n      immutable(\"0x553650eae2a4d3756ef7157643f92ca8faebf3dd225aa14028a1a71d94f45eea\")\n        /* \"ptrn_eco_system_dev_contracts/contracts_ready_for_prod/Copy_PtrnEcoSystemParticipation.sol\":12528:12539  tokenSymbol */\n      0x08\n        /* \"ptrn_eco_system_dev_contracts/contracts_ready_for_prod/Copy_PtrnEcoSystemParticipation.sol\":12504:12540  return (address(TOKEN), tokenSymbol) */\n      dup1\n      dup1\n      sload\n      tag_280\n      swap1\n      tag_281\n      jump\t// in\n    tag_280:\n      dup1\n      0x1f\n      add\n      0x20\n      dup1\n      swap2\n      div\n      mul\n      0x20\n      add\n      mload(0x40)\n      swap1\n      dup2\n      add\n      0x40\n      mstore\n      dup1\n      swap3\n      swap2\n      swap1\n      dup2\n      dup2\n      mstore\n      0x20\n      add\n      dup3\n      dup1\n      sload\n      tag_282\n      swap1\n      tag_281\n      jump\t// in\n    tag_282:\n      dup1\n      iszero\n      tag_283\n      jumpi\n      dup1\n      0x1f\n      lt\n      tag_284\n      jumpi\n      0x0100\n      dup1\n      dup4\n      sload\n      div\n      mul\n      dup4\n      mstore\n      swap2\n      0x20\n      add\n      swap2\n      jump(tag_283)\n    tag_284:\n      dup3\n      add\n      swap2\n      swap1\n      0x00\n      mstore\n      keccak256(0x00, 0x20)\n      swap1\n    tag_285:\n      dup2\n      sload\n      dup2\n      mstore\n      swap1\n      0x01\n      add\n      swap1\n      0x20\n      add\n      dup1\n      dup4\n      gt\n      tag_285\n      jumpi\n      dup3\n      swap1\n      sub\n      0x1f\n      and\n      dup3\n      add\n      swap2\n    tag_283:\n      pop\n      pop\n      pop\n      pop\n      pop\n      swap1\n      pop\n      swap2\n      pop\n      swap2\n      pop\n        /* \"ptrn_eco_system_dev_contracts/contracts_ready_for_prod/Copy_PtrnEcoSystemParticipation.sol\":12367:12547  function getTokenInfo()... */\n      swap1\n      swap2\n      jump\t// out\n        /* \"ptrn_eco_system_dev_contracts/contracts_ready_for_prod/Copy_PtrnEcoSystemParticipation.sol\":4749:4967  function addNewAgregatorPriceFeed(address _ConsumerInterfaceAddress)... */\n    tag_96:\n        /* \"@openzeppelin/contracts/access/Ownable.sol\":1094:1107  _checkOwner() */\n      tag_287\n        /* \"@openzeppelin/contracts/access/Ownable.sol\":1094:1105  _checkOwner */\n      tag_128\n        /* \"@openzeppelin/contracts/access/Ownable.sol\":1094:1107  _checkOwner() */\n      jump\t// in\n    tag_287:\n        /* \"ptrn_eco_system_dev_contracts/contracts_ready_for_prod/Copy_PtrnEcoSystemParticipation.sol\":4925:4950  _ConsumerInterfaceAddress */\n      dup1\n        /* \"ptrn_eco_system_dev_contracts/contracts_ready_for_prod/Copy_PtrnEcoSystemParticipation.sol\":4865:4882  agregatorConsumer */\n      0x02\n      0x00\n        /* \"ptrn_eco_system_dev_contracts/contracts_ready_for_prod/Copy_PtrnEcoSystemParticipation.sol\":4865:4960  agregatorConsumer = AgregatorConsumerInterface(... */\n      0x0100\n      exp\n      dup2\n      sload\n      dup2\n      0xffffffffffffffffffffffffffffffffffffffff\n      mul\n      not\n      and\n      swap1\n      dup4\n      0xffffffffffffffffffffffffffffffffffffffff\n      and\n      mul\n      or\n      swap1\n      sstore\n      pop\n        /* \"ptrn_eco_system_dev_contracts/contracts_ready_for_prod/Copy_PtrnEcoSystemParticipation.sol\":4749:4967  function addNewAgregatorPriceFeed(address _ConsumerInterfaceAddress)... */\n      pop\n      jump\t// out\n        /* \"ptrn_eco_system_dev_contracts/contracts_ready_for_prod/Copy_PtrnEcoSystemParticipation.sol\":4973:5153  function addNewPoolRateFeed(address _ConsumerInterfaceAddress)... */\n    tag_99:\n        /* \"@openzeppelin/contracts/access/Ownable.sol\":1094:1107  _checkOwner() */\n      tag_290\n        /* \"@openzeppelin/contracts/access/Ownable.sol\":1094:1105  _checkOwner */\n      tag_128\n        /* \"@openzeppelin/contracts/access/Ownable.sol\":1094:1107  _checkOwner() */\n      jump\t// in\n    tag_290:\n        /* \"ptrn_eco_system_dev_contracts/contracts_ready_for_prod/Copy_PtrnEcoSystemParticipation.sol\":5120:5145  _ConsumerInterfaceAddress */\n      dup1\n        /* \"ptrn_eco_system_dev_contracts/contracts_ready_for_prod/Copy_PtrnEcoSystemParticipation.sol\":5083:5095  poolConsumer */\n      0x03\n      0x00\n        /* \"ptrn_eco_system_dev_contracts/contracts_ready_for_prod/Copy_PtrnEcoSystemParticipation.sol\":5083:5146  poolConsumer = PoolConsumerInterface(_ConsumerInterfaceAddress) */\n      0x0100\n      exp\n      dup2\n      sload\n      dup2\n      0xffffffffffffffffffffffffffffffffffffffff\n      mul\n      not\n      and\n      swap1\n      dup4\n      0xffffffffffffffffffffffffffffffffffffffff\n      and\n      mul\n      or\n      swap1\n      sstore\n      pop\n        /* \"ptrn_eco_system_dev_contracts/contracts_ready_for_prod/Copy_PtrnEcoSystemParticipation.sol\":4973:5153  function addNewPoolRateFeed(address _ConsumerInterfaceAddress)... */\n      pop\n      jump\t// out\n        /* \"ptrn_eco_system_dev_contracts/contracts_ready_for_prod/Copy_PtrnEcoSystemParticipation.sol\":9557:9748  function balanceOfToken(address tokenAddress)... */\n    tag_102:\n        /* \"ptrn_eco_system_dev_contracts/contracts_ready_for_prod/Copy_PtrnEcoSystemParticipation.sol\":9666:9673  uint256 */\n      0x00\n        /* \"@openzeppelin/contracts/access/Ownable.sol\":1094:1107  _checkOwner() */\n      tag_293\n        /* \"@openzeppelin/contracts/access/Ownable.sol\":1094:1105  _checkOwner */\n      tag_128\n        /* \"@openzeppelin/contracts/access/Ownable.sol\":1094:1107  _checkOwner() */\n      jump\t// in\n    tag_293:\n        /* \"ptrn_eco_system_dev_contracts/contracts_ready_for_prod/Copy_PtrnEcoSystemParticipation.sol\":9703:9715  tokenAddress */\n      dup2\n        /* \"ptrn_eco_system_dev_contracts/contracts_ready_for_prod/Copy_PtrnEcoSystemParticipation.sol\":9696:9726  IERC20(tokenAddress).balanceOf */\n      0xffffffffffffffffffffffffffffffffffffffff\n      and\n      0x70a08231\n        /* \"ptrn_eco_system_dev_contracts/contracts_ready_for_prod/Copy_PtrnEcoSystemParticipation.sol\":9735:9739  this */\n      address\n        /* \"ptrn_eco_system_dev_contracts/contracts_ready_for_prod/Copy_PtrnEcoSystemParticipation.sol\":9696:9741  IERC20(tokenAddress).balanceOf(address(this)) */\n      mload(0x40)\n      dup3\n      0xffffffff\n      and\n      0xe0\n      shl\n      dup2\n      mstore\n      0x04\n      add\n      tag_295\n      swap2\n      swap1\n      tag_43\n      jump\t// in\n    tag_295:\n      0x20\n      mload(0x40)\n      dup1\n      dup4\n      sub\n      dup2\n      dup7\n      gas\n      staticcall\n      iszero\n      dup1\n      iszero\n      tag_297\n      jumpi\n      returndatasize\n      0x00\n      dup1\n      returndatacopy\n      revert(0x00, returndatasize)\n    tag_297:\n      pop\n      pop\n      pop\n      pop\n      mload(0x40)\n      returndatasize\n      not(0x1f)\n      0x1f\n      dup3\n      add\n      and\n      dup3\n      add\n      dup1\n      0x40\n      mstore\n      pop\n      dup2\n      add\n      swap1\n      tag_298\n      swap2\n      swap1\n      tag_236\n      jump\t// in\n    tag_298:\n        /* \"ptrn_eco_system_dev_contracts/contracts_ready_for_prod/Copy_PtrnEcoSystemParticipation.sol\":9689:9741  return IERC20(tokenAddress).balanceOf(address(this)) */\n      swap1\n      pop\n        /* \"ptrn_eco_system_dev_contracts/contracts_ready_for_prod/Copy_PtrnEcoSystemParticipation.sol\":9557:9748  function balanceOfToken(address tokenAddress)... */\n      swap2\n      swap1\n      pop\n      jump\t// out\n        /* \"ptrn_eco_system_dev_contracts/contracts_ready_for_prod/Copy_PtrnEcoSystemParticipation.sol\":12259:12361  function getInitialActivationAddress() public view returns (address) {... */\n    tag_105:\n        /* \"ptrn_eco_system_dev_contracts/contracts_ready_for_prod/Copy_PtrnEcoSystemParticipation.sol\":12319:12326  address */\n      0x00\n        /* \"ptrn_eco_system_dev_contracts/contracts_ready_for_prod/Copy_PtrnEcoSystemParticipation.sol\":12345:12354  ACTIVATOR */\n      immutable(\"0x5fe7a1a414abe991afbda9a853d967f992c558068728d0e3ee148ed2656bb10a\")\n        /* \"ptrn_eco_system_dev_contracts/contracts_ready_for_prod/Copy_PtrnEcoSystemParticipation.sol\":12338:12354  return ACTIVATOR */\n      swap1\n      pop\n        /* \"ptrn_eco_system_dev_contracts/contracts_ready_for_prod/Copy_PtrnEcoSystemParticipation.sol\":12259:12361  function getInitialActivationAddress() public view returns (address) {... */\n      swap1\n      jump\t// out\n        /* \"ptrn_eco_system_dev_contracts/contracts_ready_for_prod/Copy_PtrnEcoSystemParticipation.sol\":4544:4743  function currentRateFeed() public view onlyOwner returns (string memory) {... */\n    tag_108:\n        /* \"ptrn_eco_system_dev_contracts/contracts_ready_for_prod/Copy_PtrnEcoSystemParticipation.sol\":4602:4615  string memory */\n      0x60\n        /* \"@openzeppelin/contracts/access/Ownable.sol\":1094:1107  _checkOwner() */\n      tag_301\n        /* \"@openzeppelin/contracts/access/Ownable.sol\":1094:1105  _checkOwner */\n      tag_128\n        /* \"@openzeppelin/contracts/access/Ownable.sol\":1094:1107  _checkOwner() */\n      jump\t// in\n    tag_301:\n        /* \"ptrn_eco_system_dev_contracts/contracts_ready_for_prod/Copy_PtrnEcoSystemParticipation.sol\":4627:4647  string memory result */\n      0x60\n        /* \"ptrn_eco_system_dev_contracts/contracts_ready_for_prod/Copy_PtrnEcoSystemParticipation.sol\":4657:4669  poolRateFeed */\n      0x01\n      0x14\n      swap1\n      sload\n      swap1\n      0x0100\n      exp\n      swap1\n      div\n      0xff\n      and\n        /* \"ptrn_eco_system_dev_contracts/contracts_ready_for_prod/Copy_PtrnEcoSystemParticipation.sol\":4657:4713  poolRateFeed ? result = \"Pool\" : result = \"AggregatorV3\" */\n      tag_303\n      jumpi\n        /* \"ptrn_eco_system_dev_contracts/contracts_ready_for_prod/Copy_PtrnEcoSystemParticipation.sol\":4690:4713  result = \"AggregatorV3\" */\n      mload(0x40)\n      dup1\n      0x40\n      add\n      0x40\n      mstore\n      dup1\n      0x0c\n      dup2\n      mstore\n      0x20\n      add\n      0x41676772656761746f7256330000000000000000000000000000000000000000\n      dup2\n      mstore\n      pop\n      swap1\n      pop\n      dup1\n        /* \"ptrn_eco_system_dev_contracts/contracts_ready_for_prod/Copy_PtrnEcoSystemParticipation.sol\":4657:4713  poolRateFeed ? result = \"Pool\" : result = \"AggregatorV3\" */\n      jump(tag_304)\n    tag_303:\n        /* \"ptrn_eco_system_dev_contracts/contracts_ready_for_prod/Copy_PtrnEcoSystemParticipation.sol\":4672:4687  result = \"Pool\" */\n      mload(0x40)\n      dup1\n      0x40\n      add\n      0x40\n      mstore\n      dup1\n      0x04\n      dup2\n      mstore\n      0x20\n      add\n      0x506f6f6c00000000000000000000000000000000000000000000000000000000\n      dup2\n      mstore\n      pop\n      swap1\n      pop\n      dup1\n        /* \"ptrn_eco_system_dev_contracts/contracts_ready_for_prod/Copy_PtrnEcoSystemParticipation.sol\":4657:4713  poolRateFeed ? result = \"Pool\" : result = \"AggregatorV3\" */\n    tag_304:\n      pop\n        /* \"ptrn_eco_system_dev_contracts/contracts_ready_for_prod/Copy_PtrnEcoSystemParticipation.sol\":4730:4736  result */\n      dup1\n        /* \"ptrn_eco_system_dev_contracts/contracts_ready_for_prod/Copy_PtrnEcoSystemParticipation.sol\":4723:4736  return result */\n      swap2\n      pop\n      pop\n        /* \"ptrn_eco_system_dev_contracts/contracts_ready_for_prod/Copy_PtrnEcoSystemParticipation.sol\":4544:4743  function currentRateFeed() public view onlyOwner returns (string memory) {... */\n      swap1\n      jump\t// out\n        /* \"ptrn_eco_system_dev_contracts/contracts_ready_for_prod/Copy_PtrnEcoSystemParticipation.sol\":4450:4538  function changeRateFeed() public onlyOwner {... */\n    tag_112:\n        /* \"@openzeppelin/contracts/access/Ownable.sol\":1094:1107  _checkOwner() */\n      tag_306\n        /* \"@openzeppelin/contracts/access/Ownable.sol\":1094:1105  _checkOwner */\n      tag_128\n        /* \"@openzeppelin/contracts/access/Ownable.sol\":1094:1107  _checkOwner() */\n      jump\t// in\n    tag_306:\n        /* \"ptrn_eco_system_dev_contracts/contracts_ready_for_prod/Copy_PtrnEcoSystemParticipation.sol\":4519:4531  poolRateFeed */\n      0x01\n      0x14\n      swap1\n      sload\n      swap1\n      0x0100\n      exp\n      swap1\n      div\n      0xff\n      and\n        /* \"ptrn_eco_system_dev_contracts/contracts_ready_for_prod/Copy_PtrnEcoSystemParticipation.sol\":4518:4531  !poolRateFeed */\n      iszero\n        /* \"ptrn_eco_system_dev_contracts/contracts_ready_for_prod/Copy_PtrnEcoSystemParticipation.sol\":4503:4515  poolRateFeed */\n      0x01\n      0x14\n        /* \"ptrn_eco_system_dev_contracts/contracts_ready_for_prod/Copy_PtrnEcoSystemParticipation.sol\":4503:4531  poolRateFeed = !poolRateFeed */\n      0x0100\n      exp\n      dup2\n      sload\n      dup2\n      0xff\n      mul\n      not\n      and\n      swap1\n      dup4\n      iszero\n      iszero\n      mul\n      or\n      swap1\n      sstore\n      pop\n        /* \"ptrn_eco_system_dev_contracts/contracts_ready_for_prod/Copy_PtrnEcoSystemParticipation.sol\":4450:4538  function changeRateFeed() public onlyOwner {... */\n      jump\t// out\n        /* \"ptrn_eco_system_dev_contracts/contracts_ready_for_prod/Copy_PtrnEcoSystemParticipation.sol\":7293:8668  function chargeContract(uint256 amount)... */\n    tag_115:\n        /* \"ptrn_eco_system_dev_contracts/contracts_ready_for_prod/Copy_PtrnEcoSystemParticipation.sol\":7428:7432  bool */\n      0x00\n        /* \"@openzeppelin/contracts/security/Pausable.sol\":1239:1258  _requireNotPaused() */\n      tag_309\n        /* \"@openzeppelin/contracts/security/Pausable.sol\":1239:1256  _requireNotPaused */\n      tag_134\n        /* \"@openzeppelin/contracts/security/Pausable.sol\":1239:1258  _requireNotPaused() */\n      jump\t// in\n    tag_309:\n        /* \"ptrn_eco_system_dev_contracts/contracts_ready_for_prod/Copy_PtrnEcoSystemParticipation.sol\":1903:1904  0 */\n      0x00\n        /* \"ptrn_eco_system_dev_contracts/contracts_ready_for_prod/Copy_PtrnEcoSystemParticipation.sol\":1870:1905  acceptedSenderAddress != address(0) */\n      0xffffffffffffffffffffffffffffffffffffffff\n      and\n        /* \"ptrn_eco_system_dev_contracts/contracts_ready_for_prod/Copy_PtrnEcoSystemParticipation.sol\":1870:1891  acceptedSenderAddress */\n      0x01\n      0x00\n      swap1\n      sload\n      swap1\n      0x0100\n      exp\n      swap1\n      div\n      0xffffffffffffffffffffffffffffffffffffffff\n      and\n        /* \"ptrn_eco_system_dev_contracts/contracts_ready_for_prod/Copy_PtrnEcoSystemParticipation.sol\":1870:1905  acceptedSenderAddress != address(0) */\n      0xffffffffffffffffffffffffffffffffffffffff\n      and\n      sub\n        /* \"ptrn_eco_system_dev_contracts/contracts_ready_for_prod/Copy_PtrnEcoSystemParticipation.sol\":1862:1924  require(acceptedSenderAddress != address(0), \"Not activated.\") */\n      tag_311\n      jumpi\n      mload(0x40)\n      0x08c379a000000000000000000000000000000000000000000000000000000000\n      dup2\n      mstore\n      0x04\n      add\n      tag_312\n      swap1\n      tag_143\n      jump\t// in\n    tag_312:\n      mload(0x40)\n      dup1\n      swap2\n      sub\n      swap1\n      revert\n    tag_311:\n        /* \"ptrn_eco_system_dev_contracts/contracts_ready_for_prod/Copy_PtrnEcoSystemParticipation.sol\":1766:1787  acceptedSenderAddress */\n      0x01\n      0x00\n      swap1\n      sload\n      swap1\n      0x0100\n      exp\n      swap1\n      div\n      0xffffffffffffffffffffffffffffffffffffffff\n      and\n        /* \"ptrn_eco_system_dev_contracts/contracts_ready_for_prod/Copy_PtrnEcoSystemParticipation.sol\":1752:1787  msg.sender == acceptedSenderAddress */\n      0xffffffffffffffffffffffffffffffffffffffff\n      and\n        /* \"ptrn_eco_system_dev_contracts/contracts_ready_for_prod/Copy_PtrnEcoSystemParticipation.sol\":1752:1762  msg.sender */\n      caller\n        /* \"ptrn_eco_system_dev_contracts/contracts_ready_for_prod/Copy_PtrnEcoSystemParticipation.sol\":1752:1787  msg.sender == acceptedSenderAddress */\n      0xffffffffffffffffffffffffffffffffffffffff\n      and\n      eq\n        /* \"ptrn_eco_system_dev_contracts/contracts_ready_for_prod/Copy_PtrnEcoSystemParticipation.sol\":1744:1807  require(msg.sender == acceptedSenderAddress, \"Not Authorized!\") */\n      tag_314\n      jumpi\n      mload(0x40)\n      0x08c379a000000000000000000000000000000000000000000000000000000000\n      dup2\n      mstore\n      0x04\n      add\n      tag_315\n      swap1\n      tag_151\n      jump\t// in\n    tag_315:\n      mload(0x40)\n      dup1\n      swap2\n      sub\n      swap1\n      revert\n    tag_314:\n        /* \"ptrn_eco_system_dev_contracts/contracts_ready_for_prod/Copy_PtrnEcoSystemParticipation.sol\":7465:7466  0 */\n      0x00\n        /* \"ptrn_eco_system_dev_contracts/contracts_ready_for_prod/Copy_PtrnEcoSystemParticipation.sol\":7456:7462  amount */\n      dup3\n        /* \"ptrn_eco_system_dev_contracts/contracts_ready_for_prod/Copy_PtrnEcoSystemParticipation.sol\":7456:7466  amount > 0 */\n      gt\n        /* \"ptrn_eco_system_dev_contracts/contracts_ready_for_prod/Copy_PtrnEcoSystemParticipation.sol\":7448:7489  require(amount > 0, \"No charge ammount!\") */\n      tag_317\n      jumpi\n      mload(0x40)\n      0x08c379a000000000000000000000000000000000000000000000000000000000\n      dup2\n      mstore\n      0x04\n      add\n      tag_318\n      swap1\n      tag_319\n      jump\t// in\n    tag_318:\n      mload(0x40)\n      dup1\n      swap2\n      sub\n      swap1\n      revert\n    tag_317:\n        /* \"ptrn_eco_system_dev_contracts/contracts_ready_for_prod/Copy_PtrnEcoSystemParticipation.sol\":7499:7516  uint256 allowance */\n      0x00\n        /* \"ptrn_eco_system_dev_contracts/contracts_ready_for_prod/Copy_PtrnEcoSystemParticipation.sol\":7519:7524  TOKEN */\n      immutable(\"0x553650eae2a4d3756ef7157643f92ca8faebf3dd225aa14028a1a71d94f45eea\")\n        /* \"ptrn_eco_system_dev_contracts/contracts_ready_for_prod/Copy_PtrnEcoSystemParticipation.sol\":7519:7534  TOKEN.allowance */\n      0xffffffffffffffffffffffffffffffffffffffff\n      and\n      0xdd62ed3e\n        /* \"ptrn_eco_system_dev_contracts/contracts_ready_for_prod/Copy_PtrnEcoSystemParticipation.sol\":7535:7545  msg.sender */\n      caller\n        /* \"ptrn_eco_system_dev_contracts/contracts_ready_for_prod/Copy_PtrnEcoSystemParticipation.sol\":7555:7559  this */\n      address\n        /* \"ptrn_eco_system_dev_contracts/contracts_ready_for_prod/Copy_PtrnEcoSystemParticipation.sol\":7519:7561  TOKEN.allowance(msg.sender, address(this)) */\n      mload(0x40)\n      dup4\n      0xffffffff\n      and\n      0xe0\n      shl\n      dup2\n      mstore\n      0x04\n      add\n      tag_320\n      swap3\n      swap2\n      swap1\n      tag_321\n      jump\t// in\n    tag_320:\n      0x20\n      mload(0x40)\n      dup1\n      dup4\n      sub\n      dup2\n      dup7\n      gas\n      staticcall\n      iszero\n      dup1\n      iszero\n      tag_323\n      jumpi\n      returndatasize\n      0x00\n      dup1\n      returndatacopy\n      revert(0x00, returndatasize)\n    tag_323:\n      pop\n      pop\n      pop\n      pop\n      mload(0x40)\n      returndatasize\n      not(0x1f)\n      0x1f\n      dup3\n      add\n      and\n      dup3\n      add\n      dup1\n      0x40\n      mstore\n      pop\n      dup2\n      add\n      swap1\n      tag_324\n      swap2\n      swap1\n      tag_236\n      jump\t// in\n    tag_324:\n        /* \"ptrn_eco_system_dev_contracts/contracts_ready_for_prod/Copy_PtrnEcoSystemParticipation.sol\":7499:7561  uint256 allowance = TOKEN.allowance(msg.sender, address(this)) */\n      swap1\n      pop\n        /* \"ptrn_eco_system_dev_contracts/contracts_ready_for_prod/Copy_PtrnEcoSystemParticipation.sol\":7605:7611  amount */\n      dup3\n        /* \"ptrn_eco_system_dev_contracts/contracts_ready_for_prod/Copy_PtrnEcoSystemParticipation.sol\":7592:7601  allowance */\n      dup2\n        /* \"ptrn_eco_system_dev_contracts/contracts_ready_for_prod/Copy_PtrnEcoSystemParticipation.sol\":7592:7611  allowance >= amount */\n      lt\n      iszero\n        /* \"ptrn_eco_system_dev_contracts/contracts_ready_for_prod/Copy_PtrnEcoSystemParticipation.sol\":7653:7664  tokenSymbol */\n      0x08\n        /* \"ptrn_eco_system_dev_contracts/contracts_ready_for_prod/Copy_PtrnEcoSystemParticipation.sol\":7625:7690  string.concat(\"Check the \", tokenSymbol, \" token \", \"allowance.\") */\n      add(0x20, mload(0x40))\n      tag_325\n      swap2\n      swap1\n      tag_326\n      jump\t// in\n    tag_325:\n      mload(0x40)\n      0x20\n      dup2\n      dup4\n      sub\n      sub\n      dup2\n      mstore\n      swap1\n      0x40\n      mstore\n        /* \"ptrn_eco_system_dev_contracts/contracts_ready_for_prod/Copy_PtrnEcoSystemParticipation.sol\":7571:7700  require(... */\n      swap1\n      tag_327\n      jumpi\n      mload(0x40)\n      0x08c379a000000000000000000000000000000000000000000000000000000000\n      dup2\n      mstore\n      0x04\n      add\n      tag_328\n      swap2\n      swap1\n      tag_110\n      jump\t// in\n    tag_328:\n      mload(0x40)\n      dup1\n      swap2\n      sub\n      swap1\n      revert\n    tag_327:\n      pop\n        /* \"ptrn_eco_system_dev_contracts/contracts_ready_for_prod/Copy_PtrnEcoSystemParticipation.sol\":7710:7715  TOKEN */\n      immutable(\"0x553650eae2a4d3756ef7157643f92ca8faebf3dd225aa14028a1a71d94f45eea\")\n        /* \"ptrn_eco_system_dev_contracts/contracts_ready_for_prod/Copy_PtrnEcoSystemParticipation.sol\":7710:7728  TOKEN.transferFrom */\n      0xffffffffffffffffffffffffffffffffffffffff\n      and\n      0x23b872dd\n        /* \"ptrn_eco_system_dev_contracts/contracts_ready_for_prod/Copy_PtrnEcoSystemParticipation.sol\":7729:7739  msg.sender */\n      caller\n        /* \"ptrn_eco_system_dev_contracts/contracts_ready_for_prod/Copy_PtrnEcoSystemParticipation.sol\":7749:7753  this */\n      address\n        /* \"ptrn_eco_system_dev_contracts/contracts_ready_for_prod/Copy_PtrnEcoSystemParticipation.sol\":7756:7762  amount */\n      dup7\n        /* \"ptrn_eco_system_dev_contracts/contracts_ready_for_prod/Copy_PtrnEcoSystemParticipation.sol\":7710:7763  TOKEN.transferFrom(msg.sender, address(this), amount) */\n      mload(0x40)\n      dup5\n      0xffffffff\n      and\n      0xe0\n      shl\n      dup2\n      mstore\n      0x04\n      add\n      tag_329\n      swap4\n      swap3\n      swap2\n      swap1\n      tag_330\n      jump\t// in\n    tag_329:\n      0x20\n      mload(0x40)\n      dup1\n      dup4\n      sub\n      dup2\n      0x00\n      dup8\n      gas\n      call\n      iszero\n      dup1\n      iszero\n      tag_332\n      jumpi\n      returndatasize\n      0x00\n      dup1\n      returndatacopy\n      revert(0x00, returndatasize)\n    tag_332:\n      pop\n      pop\n      pop\n      pop\n      mload(0x40)\n      returndatasize\n      not(0x1f)\n      0x1f\n      dup3\n      add\n      and\n      dup3\n      add\n      dup1\n      0x40\n      mstore\n      pop\n      dup2\n      add\n      swap1\n      tag_333\n      swap2\n      swap1\n      tag_223\n      jump\t// in\n    tag_333:\n      pop\n        /* \"ptrn_eco_system_dev_contracts/contracts_ready_for_prod/Copy_PtrnEcoSystemParticipation.sol\":7811:7823  uint256 rate */\n      0x00\n        /* \"ptrn_eco_system_dev_contracts/contracts_ready_for_prod/Copy_PtrnEcoSystemParticipation.sol\":7837:7853  uint256 decimals */\n      dup1\n        /* \"ptrn_eco_system_dev_contracts/contracts_ready_for_prod/Copy_PtrnEcoSystemParticipation.sol\":7867:7897  string memory chargeRateString */\n      0x00\n        /* \"ptrn_eco_system_dev_contracts/contracts_ready_for_prod/Copy_PtrnEcoSystemParticipation.sol\":7911:7933  uint256 chargeRateDate */\n      dup1\n        /* \"ptrn_eco_system_dev_contracts/contracts_ready_for_prod/Copy_PtrnEcoSystemParticipation.sol\":7946:7955  getRate() */\n      tag_334\n        /* \"ptrn_eco_system_dev_contracts/contracts_ready_for_prod/Copy_PtrnEcoSystemParticipation.sol\":7946:7953  getRate */\n      tag_335\n        /* \"ptrn_eco_system_dev_contracts/contracts_ready_for_prod/Copy_PtrnEcoSystemParticipation.sol\":7946:7955  getRate() */\n      jump\t// in\n    tag_334:\n        /* \"ptrn_eco_system_dev_contracts/contracts_ready_for_prod/Copy_PtrnEcoSystemParticipation.sol\":7797:7955  (... */\n      swap4\n      pop\n      swap4\n      pop\n      swap4\n      pop\n      swap4\n      pop\n        /* \"ptrn_eco_system_dev_contracts/contracts_ready_for_prod/Copy_PtrnEcoSystemParticipation.sol\":8025:8051  burnIncomingTokens(amount) */\n      tag_336\n        /* \"ptrn_eco_system_dev_contracts/contracts_ready_for_prod/Copy_PtrnEcoSystemParticipation.sol\":8044:8050  amount */\n      dup8\n        /* \"ptrn_eco_system_dev_contracts/contracts_ready_for_prod/Copy_PtrnEcoSystemParticipation.sol\":8025:8043  burnIncomingTokens */\n      tag_337\n        /* \"ptrn_eco_system_dev_contracts/contracts_ready_for_prod/Copy_PtrnEcoSystemParticipation.sol\":8025:8051  burnIncomingTokens(amount) */\n      jump\t// in\n    tag_336:\n      pop\n        /* \"ptrn_eco_system_dev_contracts/contracts_ready_for_prod/Copy_PtrnEcoSystemParticipation.sol\":8061:8075  uint256 points */\n      0x00\n        /* \"ptrn_eco_system_dev_contracts/contracts_ready_for_prod/Copy_PtrnEcoSystemParticipation.sol\":8078:8117  calculatePoints(amount, rate, decimals) */\n      tag_338\n        /* \"ptrn_eco_system_dev_contracts/contracts_ready_for_prod/Copy_PtrnEcoSystemParticipation.sol\":8094:8100  amount */\n      dup9\n        /* \"ptrn_eco_system_dev_contracts/contracts_ready_for_prod/Copy_PtrnEcoSystemParticipation.sol\":8102:8106  rate */\n      dup7\n        /* \"ptrn_eco_system_dev_contracts/contracts_ready_for_prod/Copy_PtrnEcoSystemParticipation.sol\":8108:8116  decimals */\n      dup7\n        /* \"ptrn_eco_system_dev_contracts/contracts_ready_for_prod/Copy_PtrnEcoSystemParticipation.sol\":8078:8093  calculatePoints */\n      tag_339\n        /* \"ptrn_eco_system_dev_contracts/contracts_ready_for_prod/Copy_PtrnEcoSystemParticipation.sol\":8078:8117  calculatePoints(amount, rate, decimals) */\n      jump\t// in\n    tag_338:\n        /* \"ptrn_eco_system_dev_contracts/contracts_ready_for_prod/Copy_PtrnEcoSystemParticipation.sol\":8061:8117  uint256 points = calculatePoints(amount, rate, decimals) */\n      swap1\n      pop\n        /* \"ptrn_eco_system_dev_contracts/contracts_ready_for_prod/Copy_PtrnEcoSystemParticipation.sol\":8150:8156  points */\n      dup1\n        /* \"ptrn_eco_system_dev_contracts/contracts_ready_for_prod/Copy_PtrnEcoSystemParticipation.sol\":8127:8146  availableToWithdraw */\n      0x06\n      0x00\n        /* \"ptrn_eco_system_dev_contracts/contracts_ready_for_prod/Copy_PtrnEcoSystemParticipation.sol\":8127:8156  availableToWithdraw += points */\n      dup3\n      dup3\n      sload\n      tag_340\n      swap2\n      swap1\n      tag_189\n      jump\t// in\n    tag_340:\n      swap3\n      pop\n      pop\n      dup2\n      swap1\n      sstore\n      pop\n        /* \"ptrn_eco_system_dev_contracts/contracts_ready_for_prod/Copy_PtrnEcoSystemParticipation.sol\":8184:8190  points */\n      dup1\n        /* \"ptrn_eco_system_dev_contracts/contracts_ready_for_prod/Copy_PtrnEcoSystemParticipation.sol\":8166:8180  totalConverted */\n      0x05\n      0x00\n        /* \"ptrn_eco_system_dev_contracts/contracts_ready_for_prod/Copy_PtrnEcoSystemParticipation.sol\":8166:8190  totalConverted += points */\n      dup3\n      dup3\n      sload\n      tag_341\n      swap2\n      swap1\n      tag_189\n      jump\t// in\n    tag_341:\n      swap3\n      pop\n      pop\n      dup2\n      swap1\n      sstore\n      pop\n        /* \"ptrn_eco_system_dev_contracts/contracts_ready_for_prod/Copy_PtrnEcoSystemParticipation.sol\":8503:8521  uint256 chargeTime */\n      0x00\n        /* \"ptrn_eco_system_dev_contracts/contracts_ready_for_prod/Copy_PtrnEcoSystemParticipation.sol\":8522:8537  block.timestamp */\n      timestamp\n        /* \"ptrn_eco_system_dev_contracts/contracts_ready_for_prod/Copy_PtrnEcoSystemParticipation.sol\":8503:8537  uint256 chargeTime=block.timestamp */\n      swap1\n      pop\n        /* \"ptrn_eco_system_dev_contracts/contracts_ready_for_prod/Copy_PtrnEcoSystemParticipation.sol\":8627:8637  chargeTime */\n      dup1\n        /* \"ptrn_eco_system_dev_contracts/contracts_ready_for_prod/Copy_PtrnEcoSystemParticipation.sol\":8620:8626  amount */\n      dup10\n        /* \"ptrn_eco_system_dev_contracts/contracts_ready_for_prod/Copy_PtrnEcoSystemParticipation.sol\":8613:8619  points */\n      dup4\n        /* \"ptrn_eco_system_dev_contracts/contracts_ready_for_prod/Copy_PtrnEcoSystemParticipation.sol\":8552:8638  ChargeContract(rate,decimals,chargeRateDate,chargeRateString,points,amount,chargeTime) */\n      0xb5aeb7b225999adc33232be2121afb1a366c15108c1da745d17fd76108172fe4\n        /* \"ptrn_eco_system_dev_contracts/contracts_ready_for_prod/Copy_PtrnEcoSystemParticipation.sol\":8567:8571  rate */\n      dup10\n        /* \"ptrn_eco_system_dev_contracts/contracts_ready_for_prod/Copy_PtrnEcoSystemParticipation.sol\":8572:8580  decimals */\n      dup10\n        /* \"ptrn_eco_system_dev_contracts/contracts_ready_for_prod/Copy_PtrnEcoSystemParticipation.sol\":8581:8595  chargeRateDate */\n      dup9\n        /* \"ptrn_eco_system_dev_contracts/contracts_ready_for_prod/Copy_PtrnEcoSystemParticipation.sol\":8596:8612  chargeRateString */\n      dup11\n        /* \"ptrn_eco_system_dev_contracts/contracts_ready_for_prod/Copy_PtrnEcoSystemParticipation.sol\":8552:8638  ChargeContract(rate,decimals,chargeRateDate,chargeRateString,points,amount,chargeTime) */\n      mload(0x40)\n      tag_342\n      swap5\n      swap4\n      swap3\n      swap2\n      swap1\n      tag_343\n      jump\t// in\n    tag_342:\n      mload(0x40)\n      dup1\n      swap2\n      sub\n      swap1\n      log4\n        /* \"ptrn_eco_system_dev_contracts/contracts_ready_for_prod/Copy_PtrnEcoSystemParticipation.sol\":8656:8660  true */\n      0x01\n        /* \"ptrn_eco_system_dev_contracts/contracts_ready_for_prod/Copy_PtrnEcoSystemParticipation.sol\":8648:8661  return (true) */\n      swap8\n      pop\n      pop\n      pop\n      pop\n      pop\n      pop\n      pop\n      pop\n        /* \"ptrn_eco_system_dev_contracts/contracts_ready_for_prod/Copy_PtrnEcoSystemParticipation.sol\":7293:8668  function chargeContract(uint256 amount)... */\n      swap2\n      swap1\n      pop\n      jump\t// out\n        /* \"@openzeppelin/contracts/access/Ownable.sol\":2081:2279  function transferOwnership(address newOwner) public virtual onlyOwner {... */\n    tag_119:\n        /* \"@openzeppelin/contracts/access/Ownable.sol\":1094:1107  _checkOwner() */\n      tag_345\n        /* \"@openzeppelin/contracts/access/Ownable.sol\":1094:1105  _checkOwner */\n      tag_128\n        /* \"@openzeppelin/contracts/access/Ownable.sol\":1094:1107  _checkOwner() */\n      jump\t// in\n    tag_345:\n        /* \"@openzeppelin/contracts/access/Ownable.sol\":2189:2190  0 */\n      0x00\n        /* \"@openzeppelin/contracts/access/Ownable.sol\":2169:2191  newOwner != address(0) */\n      0xffffffffffffffffffffffffffffffffffffffff\n      and\n        /* \"@openzeppelin/contracts/access/Ownable.sol\":2169:2177  newOwner */\n      dup2\n        /* \"@openzeppelin/contracts/access/Ownable.sol\":2169:2191  newOwner != address(0) */\n      0xffffffffffffffffffffffffffffffffffffffff\n      and\n      sub\n        /* \"@openzeppelin/contracts/access/Ownable.sol\":2161:2234  require(newOwner != address(0), \"Ownable: new owner is the zero address\") */\n      tag_347\n      jumpi\n      mload(0x40)\n      0x08c379a000000000000000000000000000000000000000000000000000000000\n      dup2\n      mstore\n      0x04\n      add\n      tag_348\n      swap1\n      tag_349\n      jump\t// in\n    tag_348:\n      mload(0x40)\n      dup1\n      swap2\n      sub\n      swap1\n      revert\n    tag_347:\n        /* \"@openzeppelin/contracts/access/Ownable.sol\":2244:2272  _transferOwnership(newOwner) */\n      tag_350\n        /* \"@openzeppelin/contracts/access/Ownable.sol\":2263:2271  newOwner */\n      dup2\n        /* \"@openzeppelin/contracts/access/Ownable.sol\":2244:2262  _transferOwnership */\n      tag_228\n        /* \"@openzeppelin/contracts/access/Ownable.sol\":2244:2272  _transferOwnership(newOwner) */\n      jump\t// in\n    tag_350:\n        /* \"@openzeppelin/contracts/access/Ownable.sol\":2081:2279  function transferOwnership(address newOwner) public virtual onlyOwner {... */\n      pop\n      jump\t// out\n        /* \"ptrn_eco_system_dev_contracts/contracts_ready_for_prod/Copy_PtrnEcoSystemParticipation.sol\":11729:11913  function getCurrentPointsBalance()... */\n    tag_121:\n        /* \"ptrn_eco_system_dev_contracts/contracts_ready_for_prod/Copy_PtrnEcoSystemParticipation.sol\":11857:11864  uint256 */\n      0x00\n        /* \"ptrn_eco_system_dev_contracts/contracts_ready_for_prod/Copy_PtrnEcoSystemParticipation.sol\":1903:1904  0 */\n      dup1\n        /* \"ptrn_eco_system_dev_contracts/contracts_ready_for_prod/Copy_PtrnEcoSystemParticipation.sol\":1870:1905  acceptedSenderAddress != address(0) */\n      0xffffffffffffffffffffffffffffffffffffffff\n      and\n        /* \"ptrn_eco_system_dev_contracts/contracts_ready_for_prod/Copy_PtrnEcoSystemParticipation.sol\":1870:1891  acceptedSenderAddress */\n      0x01\n      0x00\n      swap1\n      sload\n      swap1\n      0x0100\n      exp\n      swap1\n      div\n      0xffffffffffffffffffffffffffffffffffffffff\n      and\n        /* \"ptrn_eco_system_dev_contracts/contracts_ready_for_prod/Copy_PtrnEcoSystemParticipation.sol\":1870:1905  acceptedSenderAddress != address(0) */\n      0xffffffffffffffffffffffffffffffffffffffff\n      and\n      sub\n        /* \"ptrn_eco_system_dev_contracts/contracts_ready_for_prod/Copy_PtrnEcoSystemParticipation.sol\":1862:1924  require(acceptedSenderAddress != address(0), \"Not activated.\") */\n      tag_352\n      jumpi\n      mload(0x40)\n      0x08c379a000000000000000000000000000000000000000000000000000000000\n      dup2\n      mstore\n      0x04\n      add\n      tag_353\n      swap1\n      tag_143\n      jump\t// in\n    tag_353:\n      mload(0x40)\n      dup1\n      swap2\n      sub\n      swap1\n      revert\n    tag_352:\n        /* \"ptrn_eco_system_dev_contracts/contracts_ready_for_prod/Copy_PtrnEcoSystemParticipation.sol\":2027:2048  acceptedSenderAddress */\n      0x01\n      0x00\n      swap1\n      sload\n      swap1\n      0x0100\n      exp\n      swap1\n      div\n      0xffffffffffffffffffffffffffffffffffffffff\n      and\n        /* \"ptrn_eco_system_dev_contracts/contracts_ready_for_prod/Copy_PtrnEcoSystemParticipation.sol\":2013:2048  msg.sender == acceptedSenderAddress */\n      0xffffffffffffffffffffffffffffffffffffffff\n      and\n        /* \"ptrn_eco_system_dev_contracts/contracts_ready_for_prod/Copy_PtrnEcoSystemParticipation.sol\":2013:2023  msg.sender */\n      caller\n        /* \"ptrn_eco_system_dev_contracts/contracts_ready_for_prod/Copy_PtrnEcoSystemParticipation.sol\":2013:2048  msg.sender == acceptedSenderAddress */\n      0xffffffffffffffffffffffffffffffffffffffff\n      and\n      eq\n        /* \"ptrn_eco_system_dev_contracts/contracts_ready_for_prod/Copy_PtrnEcoSystemParticipation.sol\":2013:2073  msg.sender == acceptedSenderAddress || msg.sender == owner() */\n      dup1\n      tag_355\n      jumpi\n      pop\n        /* \"ptrn_eco_system_dev_contracts/contracts_ready_for_prod/Copy_PtrnEcoSystemParticipation.sol\":2066:2073  owner() */\n      tag_356\n        /* \"ptrn_eco_system_dev_contracts/contracts_ready_for_prod/Copy_PtrnEcoSystemParticipation.sol\":2066:2071  owner */\n      tag_82\n        /* \"ptrn_eco_system_dev_contracts/contracts_ready_for_prod/Copy_PtrnEcoSystemParticipation.sol\":2066:2073  owner() */\n      jump\t// in\n    tag_356:\n        /* \"ptrn_eco_system_dev_contracts/contracts_ready_for_prod/Copy_PtrnEcoSystemParticipation.sol\":2052:2073  msg.sender == owner() */\n      0xffffffffffffffffffffffffffffffffffffffff\n      and\n        /* \"ptrn_eco_system_dev_contracts/contracts_ready_for_prod/Copy_PtrnEcoSystemParticipation.sol\":2052:2062  msg.sender */\n      caller\n        /* \"ptrn_eco_system_dev_contracts/contracts_ready_for_prod/Copy_PtrnEcoSystemParticipation.sol\":2052:2073  msg.sender == owner() */\n      0xffffffffffffffffffffffffffffffffffffffff\n      and\n      eq\n        /* \"ptrn_eco_system_dev_contracts/contracts_ready_for_prod/Copy_PtrnEcoSystemParticipation.sol\":2013:2073  msg.sender == acceptedSenderAddress || msg.sender == owner() */\n    tag_355:\n        /* \"ptrn_eco_system_dev_contracts/contracts_ready_for_prod/Copy_PtrnEcoSystemParticipation.sol\":1991:2138  require(... */\n      tag_357\n      jumpi\n      mload(0x40)\n      0x08c379a000000000000000000000000000000000000000000000000000000000\n      dup2\n      mstore\n      0x04\n      add\n      tag_358\n      swap1\n      tag_174\n      jump\t// in\n    tag_358:\n      mload(0x40)\n      dup1\n      swap2\n      sub\n      swap1\n      revert\n    tag_357:\n        /* \"ptrn_eco_system_dev_contracts/contracts_ready_for_prod/Copy_PtrnEcoSystemParticipation.sol\":11887:11906  availableToWithdraw */\n      sload(0x06)\n        /* \"ptrn_eco_system_dev_contracts/contracts_ready_for_prod/Copy_PtrnEcoSystemParticipation.sol\":11880:11906  return availableToWithdraw */\n      swap1\n      pop\n        /* \"ptrn_eco_system_dev_contracts/contracts_ready_for_prod/Copy_PtrnEcoSystemParticipation.sol\":11729:11913  function getCurrentPointsBalance()... */\n      swap1\n      jump\t// out\n        /* \"@openzeppelin/contracts/security/Pausable.sol\":1945:2051  function _requirePaused() internal view virtual {... */\n    tag_125:\n        /* \"@openzeppelin/contracts/security/Pausable.sol\":2011:2019  paused() */\n      tag_361\n        /* \"@openzeppelin/contracts/security/Pausable.sol\":2011:2017  paused */\n      tag_63\n        /* \"@openzeppelin/contracts/security/Pausable.sol\":2011:2019  paused() */\n      jump\t// in\n    tag_361:\n        /* \"@openzeppelin/contracts/security/Pausable.sol\":2003:2044  require(paused(), \"Pausable: not paused\") */\n      tag_362\n      jumpi\n      mload(0x40)\n      0x08c379a000000000000000000000000000000000000000000000000000000000\n      dup2\n      mstore\n      0x04\n      add\n      tag_363\n      swap1\n      tag_364\n      jump\t// in\n    tag_363:\n      mload(0x40)\n      dup1\n      swap2\n      sub\n      swap1\n      revert\n    tag_362:\n        /* \"@openzeppelin/contracts/security/Pausable.sol\":1945:2051  function _requirePaused() internal view virtual {... */\n      jump\t// out\n        /* \"@openzeppelin/contracts/access/Ownable.sol\":1359:1489  function _checkOwner() internal view virtual {... */\n    tag_128:\n        /* \"@openzeppelin/contracts/access/Ownable.sol\":1433:1445  _msgSender() */\n      tag_366\n        /* \"@openzeppelin/contracts/access/Ownable.sol\":1433:1443  _msgSender */\n      tag_367\n        /* \"@openzeppelin/contracts/access/Ownable.sol\":1433:1445  _msgSender() */\n      jump\t// in\n    tag_366:\n        /* \"@openzeppelin/contracts/access/Ownable.sol\":1422:1445  owner() == _msgSender() */\n      0xffffffffffffffffffffffffffffffffffffffff\n      and\n        /* \"@openzeppelin/contracts/access/Ownable.sol\":1422:1429  owner() */\n      tag_368\n        /* \"@openzeppelin/contracts/access/Ownable.sol\":1422:1427  owner */\n      tag_82\n        /* \"@openzeppelin/contracts/access/Ownable.sol\":1422:1429  owner() */\n      jump\t// in\n    tag_368:\n        /* \"@openzeppelin/contracts/access/Ownable.sol\":1422:1445  owner() == _msgSender() */\n      0xffffffffffffffffffffffffffffffffffffffff\n      and\n      eq\n        /* \"@openzeppelin/contracts/access/Ownable.sol\":1414:1482  require(owner() == _msgSender(), \"Ownable: caller is not the owner\") */\n      tag_369\n      jumpi\n      mload(0x40)\n      0x08c379a000000000000000000000000000000000000000000000000000000000\n      dup2\n      mstore\n      0x04\n      add\n      tag_370\n      swap1\n      tag_371\n      jump\t// in\n    tag_370:\n      mload(0x40)\n      dup1\n      swap2\n      sub\n      swap1\n      revert\n    tag_369:\n        /* \"@openzeppelin/contracts/access/Ownable.sol\":1359:1489  function _checkOwner() internal view virtual {... */\n      jump\t// out\n        /* \"@openzeppelin/contracts/security/Pausable.sol\":2433:2550  function _unpause() internal virtual whenPaused {... */\n    tag_131:\n        /* \"@openzeppelin/contracts/security/Pausable.sol\":1486:1502  _requirePaused() */\n      tag_373\n        /* \"@openzeppelin/contracts/security/Pausable.sol\":1486:1500  _requirePaused */\n      tag_125\n        /* \"@openzeppelin/contracts/security/Pausable.sol\":1486:1502  _requirePaused() */\n      jump\t// in\n    tag_373:\n        /* \"@openzeppelin/contracts/security/Pausable.sol\":2501:2506  false */\n      0x00\n        /* \"@openzeppelin/contracts/security/Pausable.sol\":2491:2498  _paused */\n      dup1\n      0x00\n        /* \"@openzeppelin/contracts/security/Pausable.sol\":2491:2506  _paused = false */\n      0x0100\n      exp\n      dup2\n      sload\n      dup2\n      0xff\n      mul\n      not\n      and\n      swap1\n      dup4\n      iszero\n      iszero\n      mul\n      or\n      swap1\n      sstore\n      pop\n        /* \"@openzeppelin/contracts/security/Pausable.sol\":2521:2543  Unpaused(_msgSender()) */\n      0x5db9ee0a495bf2e6ff9c91a7834c1ba4fdd244a5e8aa4e537bd38aeae4b073aa\n        /* \"@openzeppelin/contracts/security/Pausable.sol\":2530:2542  _msgSender() */\n      tag_375\n        /* \"@openzeppelin/contracts/security/Pausable.sol\":2530:2540  _msgSender */\n      tag_367\n        /* \"@openzeppelin/contracts/security/Pausable.sol\":2530:2542  _msgSender() */\n      jump\t// in\n    tag_375:\n        /* \"@openzeppelin/contracts/security/Pausable.sol\":2521:2543  Unpaused(_msgSender()) */\n      mload(0x40)\n      tag_376\n      swap2\n      swap1\n      tag_43\n      jump\t// in\n    tag_376:\n      mload(0x40)\n      dup1\n      swap2\n      sub\n      swap1\n      log1\n        /* \"@openzeppelin/contracts/security/Pausable.sol\":2433:2550  function _unpause() internal virtual whenPaused {... */\n      jump\t// out\n        /* \"@openzeppelin/contracts/security/Pausable.sol\":1767:1873  function _requireNotPaused() internal view virtual {... */\n    tag_134:\n        /* \"@openzeppelin/contracts/security/Pausable.sol\":1837:1845  paused() */\n      tag_378\n        /* \"@openzeppelin/contracts/security/Pausable.sol\":1837:1843  paused */\n      tag_63\n        /* \"@openzeppelin/contracts/security/Pausable.sol\":1837:1845  paused() */\n      jump\t// in\n    tag_378:\n        /* \"@openzeppelin/contracts/security/Pausable.sol\":1836:1845  !paused() */\n      iszero\n        /* \"@openzeppelin/contracts/security/Pausable.sol\":1828:1866  require(!paused(), \"Pausable: paused\") */\n      tag_379\n      jumpi\n      mload(0x40)\n      0x08c379a000000000000000000000000000000000000000000000000000000000\n      dup2\n      mstore\n      0x04\n      add\n      tag_380\n      swap1\n      tag_381\n      jump\t// in\n    tag_380:\n      mload(0x40)\n      dup1\n      swap2\n      sub\n      swap1\n      revert\n    tag_379:\n        /* \"@openzeppelin/contracts/security/Pausable.sol\":1767:1873  function _requireNotPaused() internal view virtual {... */\n      jump\t// out\n        /* \"@openzeppelin/contracts/security/Pausable.sol\":2186:2301  function _pause() internal virtual whenNotPaused {... */\n    tag_139:\n        /* \"@openzeppelin/contracts/security/Pausable.sol\":1239:1258  _requireNotPaused() */\n      tag_383\n        /* \"@openzeppelin/contracts/security/Pausable.sol\":1239:1256  _requireNotPaused */\n      tag_134\n        /* \"@openzeppelin/contracts/security/Pausable.sol\":1239:1258  _requireNotPaused() */\n      jump\t// in\n    tag_383:\n        /* \"@openzeppelin/contracts/security/Pausable.sol\":2255:2259  true */\n      0x01\n        /* \"@openzeppelin/contracts/security/Pausable.sol\":2245:2252  _paused */\n      0x00\n      dup1\n        /* \"@openzeppelin/contracts/security/Pausable.sol\":2245:2259  _paused = true */\n      0x0100\n      exp\n      dup2\n      sload\n      dup2\n      0xff\n      mul\n      not\n      and\n      swap1\n      dup4\n      iszero\n      iszero\n      mul\n      or\n      swap1\n      sstore\n      pop\n        /* \"@openzeppelin/contracts/security/Pausable.sol\":2274:2294  Paused(_msgSender()) */\n      0x62e78cea01bee320cd4e420270b5ea74000d11b0c9f74754ebdbfc544b05a258\n        /* \"@openzeppelin/contracts/security/Pausable.sol\":2281:2293  _msgSender() */\n      tag_385\n        /* \"@openzeppelin/contracts/security/Pausable.sol\":2281:2291  _msgSender */\n      tag_367\n        /* \"@openzeppelin/contracts/security/Pausable.sol\":2281:2293  _msgSender() */\n      jump\t// in\n    tag_385:\n        /* \"@openzeppelin/contracts/security/Pausable.sol\":2274:2294  Paused(_msgSender()) */\n      mload(0x40)\n      tag_386\n      swap2\n      swap1\n      tag_43\n      jump\t// in\n    tag_386:\n      mload(0x40)\n      dup1\n      swap2\n      sub\n      swap1\n      log1\n        /* \"@openzeppelin/contracts/security/Pausable.sol\":2186:2301  function _pause() internal virtual whenNotPaused {... */\n      jump\t// out\n        /* \"@openzeppelin/contracts/access/Ownable.sol\":2433:2620  function _transferOwnership(address newOwner) internal virtual {... */\n    tag_228:\n        /* \"@openzeppelin/contracts/access/Ownable.sol\":2506:2522  address oldOwner */\n      0x00\n        /* \"@openzeppelin/contracts/access/Ownable.sol\":2525:2531  _owner */\n      dup1\n      0x01\n      swap1\n      sload\n      swap1\n      0x0100\n      exp\n      swap1\n      div\n      0xffffffffffffffffffffffffffffffffffffffff\n      and\n        /* \"@openzeppelin/contracts/access/Ownable.sol\":2506:2531  address oldOwner = _owner */\n      swap1\n      pop\n        /* \"@openzeppelin/contracts/access/Ownable.sol\":2550:2558  newOwner */\n      dup2\n        /* \"@openzeppelin/contracts/access/Ownable.sol\":2541:2547  _owner */\n      0x00\n      0x01\n        /* \"@openzeppelin/contracts/access/Ownable.sol\":2541:2558  _owner = newOwner */\n      0x0100\n      exp\n      dup2\n      sload\n      dup2\n      0xffffffffffffffffffffffffffffffffffffffff\n      mul\n      not\n      and\n      swap1\n      dup4\n      0xffffffffffffffffffffffffffffffffffffffff\n      and\n      mul\n      or\n      swap1\n      sstore\n      pop\n        /* \"@openzeppelin/contracts/access/Ownable.sol\":2604:2612  newOwner */\n      dup2\n        /* \"@openzeppelin/contracts/access/Ownable.sol\":2573:2613  OwnershipTransferred(oldOwner, newOwner) */\n      0xffffffffffffffffffffffffffffffffffffffff\n      and\n        /* \"@openzeppelin/contracts/access/Ownable.sol\":2594:2602  oldOwner */\n      dup2\n        /* \"@openzeppelin/contracts/access/Ownable.sol\":2573:2613  OwnershipTransferred(oldOwner, newOwner) */\n      0xffffffffffffffffffffffffffffffffffffffff\n      and\n      0x8be0079c531659141344cd1fd0a4f28419497f9722a3daafe3b4186f6b6457e0\n      mload(0x40)\n      mload(0x40)\n      dup1\n      swap2\n      sub\n      swap1\n      log3\n        /* \"@openzeppelin/contracts/access/Ownable.sol\":2496:2620  {... */\n      pop\n        /* \"@openzeppelin/contracts/access/Ownable.sol\":2433:2620  function _transferOwnership(address newOwner) internal virtual {... */\n      pop\n      jump\t// out\n        /* \"ptrn_eco_system_dev_contracts/contracts_ready_for_prod/Copy_PtrnEcoSystemParticipation.sol\":5926:6602  function getRate()... */\n    tag_335:\n        /* \"ptrn_eco_system_dev_contracts/contracts_ready_for_prod/Copy_PtrnEcoSystemParticipation.sol\":6004:6011  uint256 */\n      0x00\n        /* \"ptrn_eco_system_dev_contracts/contracts_ready_for_prod/Copy_PtrnEcoSystemParticipation.sol\":6025:6032  uint256 */\n      dup1\n        /* \"ptrn_eco_system_dev_contracts/contracts_ready_for_prod/Copy_PtrnEcoSystemParticipation.sol\":6046:6059  string memory */\n      0x60\n        /* \"ptrn_eco_system_dev_contracts/contracts_ready_for_prod/Copy_PtrnEcoSystemParticipation.sol\":6073:6080  uint256 */\n      0x00\n        /* \"ptrn_eco_system_dev_contracts/contracts_ready_for_prod/Copy_PtrnEcoSystemParticipation.sol\":6549:6557  11111111 */\n      0xa98ac7\n        /* \"ptrn_eco_system_dev_contracts/contracts_ready_for_prod/Copy_PtrnEcoSystemParticipation.sol\":6559:6560  8 */\n      0x08\n        /* \"ptrn_eco_system_dev_contracts/contracts_ready_for_prod/Copy_PtrnEcoSystemParticipation.sol\":6584:6594  1700135082 */\n      0x655600aa\n        /* \"ptrn_eco_system_dev_contracts/contracts_ready_for_prod/Copy_PtrnEcoSystemParticipation.sol\":6541:6595  return (11111111, 8, \"fakeUSDT/DummyPTRN\", 1700135082) */\n      mload(0x40)\n      dup1\n      0x40\n      add\n      0x40\n      mstore\n      dup1\n      0x12\n      dup2\n      mstore\n      0x20\n      add\n      0x66616b65555344542f44756d6d795054524e0000000000000000000000000000\n      dup2\n      mstore\n      pop\n      swap1\n      swap4\n      pop\n      swap4\n      pop\n      swap4\n      pop\n      swap4\n      pop\n        /* \"ptrn_eco_system_dev_contracts/contracts_ready_for_prod/Copy_PtrnEcoSystemParticipation.sol\":5926:6602  function getRate()... */\n      swap1\n      swap2\n      swap3\n      swap4\n      jump\t// out\n        /* \"ptrn_eco_system_dev_contracts/contracts_ready_for_prod/Copy_PtrnEcoSystemParticipation.sol\":10101:10311  function burnIncomingTokens(uint256 amount) private returns (bool) {... */\n    tag_337:\n        /* \"ptrn_eco_system_dev_contracts/contracts_ready_for_prod/Copy_PtrnEcoSystemParticipation.sol\":10162:10166  bool */\n      0x00\n        /* \"ptrn_eco_system_dev_contracts/contracts_ready_for_prod/Copy_PtrnEcoSystemParticipation.sol\":10195:10196  0 */\n      dup1\n        /* \"ptrn_eco_system_dev_contracts/contracts_ready_for_prod/Copy_PtrnEcoSystemParticipation.sol\":10186:10192  amount */\n      dup3\n        /* \"ptrn_eco_system_dev_contracts/contracts_ready_for_prod/Copy_PtrnEcoSystemParticipation.sol\":10186:10196  amount > 0 */\n      gt\n        /* \"ptrn_eco_system_dev_contracts/contracts_ready_for_prod/Copy_PtrnEcoSystemParticipation.sol\":10178:10224  require(amount > 0, \"No tokens to be burned!\") */\n      tag_390\n      jumpi\n      mload(0x40)\n      0x08c379a000000000000000000000000000000000000000000000000000000000\n      dup2\n      mstore\n      0x04\n      add\n      tag_391\n      swap1\n      tag_392\n      jump\t// in\n    tag_391:\n      mload(0x40)\n      dup1\n      swap2\n      sub\n      swap1\n      revert\n    tag_390:\n        /* \"ptrn_eco_system_dev_contracts/contracts_ready_for_prod/Copy_PtrnEcoSystemParticipation.sol\":10234:10239  TOKEN */\n      immutable(\"0x553650eae2a4d3756ef7157643f92ca8faebf3dd225aa14028a1a71d94f45eea\")\n        /* \"ptrn_eco_system_dev_contracts/contracts_ready_for_prod/Copy_PtrnEcoSystemParticipation.sol\":10234:10244  TOKEN.burn */\n      0xffffffffffffffffffffffffffffffffffffffff\n      and\n      0x42966c68\n        /* \"ptrn_eco_system_dev_contracts/contracts_ready_for_prod/Copy_PtrnEcoSystemParticipation.sol\":10245:10251  amount */\n      dup4\n        /* \"ptrn_eco_system_dev_contracts/contracts_ready_for_prod/Copy_PtrnEcoSystemParticipation.sol\":10234:10252  TOKEN.burn(amount) */\n      mload(0x40)\n      dup3\n      0xffffffff\n      and\n      0xe0\n      shl\n      dup2\n      mstore\n      0x04\n      add\n      tag_393\n      swap2\n      swap1\n      tag_53\n      jump\t// in\n    tag_393:\n      0x00\n      mload(0x40)\n      dup1\n      dup4\n      sub\n      dup2\n      0x00\n      dup8\n      dup1\n      extcodesize\n      iszero\n      dup1\n      iszero\n      tag_394\n      jumpi\n      0x00\n      dup1\n      revert\n    tag_394:\n      pop\n      gas\n      call\n      iszero\n      dup1\n      iszero\n      tag_396\n      jumpi\n      returndatasize\n      0x00\n      dup1\n      returndatacopy\n      revert(0x00, returndatasize)\n    tag_396:\n      pop\n      pop\n      pop\n      pop\n        /* \"ptrn_eco_system_dev_contracts/contracts_ready_for_prod/Copy_PtrnEcoSystemParticipation.sol\":10277:10283  amount */\n      dup2\n        /* \"ptrn_eco_system_dev_contracts/contracts_ready_for_prod/Copy_PtrnEcoSystemParticipation.sol\":10262:10273  totalBurned */\n      0x04\n      0x00\n        /* \"ptrn_eco_system_dev_contracts/contracts_ready_for_prod/Copy_PtrnEcoSystemParticipation.sol\":10262:10283  totalBurned += amount */\n      dup3\n      dup3\n      sload\n      tag_397\n      swap2\n      swap1\n      tag_189\n      jump\t// in\n    tag_397:\n      swap3\n      pop\n      pop\n      dup2\n      swap1\n      sstore\n      pop\n        /* \"ptrn_eco_system_dev_contracts/contracts_ready_for_prod/Copy_PtrnEcoSystemParticipation.sol\":10300:10304  true */\n      0x01\n        /* \"ptrn_eco_system_dev_contracts/contracts_ready_for_prod/Copy_PtrnEcoSystemParticipation.sol\":10293:10304  return true */\n      swap1\n      pop\n        /* \"ptrn_eco_system_dev_contracts/contracts_ready_for_prod/Copy_PtrnEcoSystemParticipation.sol\":10101:10311  function burnIncomingTokens(uint256 amount) private returns (bool) {... */\n      swap2\n      swap1\n      pop\n      jump\t// out\n        /* \"ptrn_eco_system_dev_contracts/contracts_ready_for_prod/Copy_PtrnEcoSystemParticipation.sol\":6639:6882  function calculatePoints(... */\n    tag_339:\n        /* \"ptrn_eco_system_dev_contracts/contracts_ready_for_prod/Copy_PtrnEcoSystemParticipation.sol\":6764:6771  uint256 */\n      0x00\n        /* \"ptrn_eco_system_dev_contracts/contracts_ready_for_prod/Copy_PtrnEcoSystemParticipation.sol\":6783:6809  uint256 resultIn26Decimals */\n      dup1\n        /* \"ptrn_eco_system_dev_contracts/contracts_ready_for_prod/Copy_PtrnEcoSystemParticipation.sol\":6821:6825  rate */\n      dup4\n        /* \"ptrn_eco_system_dev_contracts/contracts_ready_for_prod/Copy_PtrnEcoSystemParticipation.sol\":6812:6818  amount */\n      dup6\n        /* \"ptrn_eco_system_dev_contracts/contracts_ready_for_prod/Copy_PtrnEcoSystemParticipation.sol\":6812:6825  amount * rate */\n      tag_399\n      swap2\n      swap1\n      tag_252\n      jump\t// in\n    tag_399:\n        /* \"ptrn_eco_system_dev_contracts/contracts_ready_for_prod/Copy_PtrnEcoSystemParticipation.sol\":6783:6825  uint256 resultIn26Decimals = amount * rate */\n      swap1\n      pop\n        /* \"ptrn_eco_system_dev_contracts/contracts_ready_for_prod/Copy_PtrnEcoSystemParticipation.sol\":6867:6875  decimals */\n      dup3\n        /* \"ptrn_eco_system_dev_contracts/contracts_ready_for_prod/Copy_PtrnEcoSystemParticipation.sol\":6863:6865  10 */\n      0x0a\n        /* \"ptrn_eco_system_dev_contracts/contracts_ready_for_prod/Copy_PtrnEcoSystemParticipation.sol\":6863:6875  10**decimals */\n      tag_400\n      swap2\n      swap1\n      tag_250\n      jump\t// in\n    tag_400:\n        /* \"ptrn_eco_system_dev_contracts/contracts_ready_for_prod/Copy_PtrnEcoSystemParticipation.sol\":6842:6860  resultIn26Decimals */\n      dup2\n        /* \"ptrn_eco_system_dev_contracts/contracts_ready_for_prod/Copy_PtrnEcoSystemParticipation.sol\":6842:6875  resultIn26Decimals / 10**decimals */\n      tag_401\n      swap2\n      swap1\n      tag_254\n      jump\t// in\n    tag_401:\n        /* \"ptrn_eco_system_dev_contracts/contracts_ready_for_prod/Copy_PtrnEcoSystemParticipation.sol\":6835:6875  return resultIn26Decimals / 10**decimals */\n      swap2\n      pop\n      pop\n        /* \"ptrn_eco_system_dev_contracts/contracts_ready_for_prod/Copy_PtrnEcoSystemParticipation.sol\":6639:6882  function calculatePoints(... */\n      swap4\n      swap3\n      pop\n      pop\n      pop\n      jump\t// out\n        /* \"@openzeppelin/contracts/utils/Context.sol\":640:736  function _msgSender() internal view virtual returns (address) {... */\n    tag_367:\n        /* \"@openzeppelin/contracts/utils/Context.sol\":693:700  address */\n      0x00\n        /* \"@openzeppelin/contracts/utils/Context.sol\":719:729  msg.sender */\n      caller\n        /* \"@openzeppelin/contracts/utils/Context.sol\":712:729  return msg.sender */\n      swap1\n      pop\n        /* \"@openzeppelin/contracts/utils/Context.sol\":640:736  function _msgSender() internal view virtual returns (address) {... */\n      swap1\n      jump\t// out\n        /* \"#utility.yul\":7:133   */\n    tag_403:\n        /* \"#utility.yul\":44:51   */\n      0x00\n        /* \"#utility.yul\":84:126   */\n      0xffffffffffffffffffffffffffffffffffffffff\n        /* \"#utility.yul\":77:82   */\n      dup3\n        /* \"#utility.yul\":73:127   */\n      and\n        /* \"#utility.yul\":62:127   */\n      swap1\n      pop\n        /* \"#utility.yul\":7:133   */\n      swap2\n      swap1\n      pop\n      jump\t// out\n        /* \"#utility.yul\":139:235   */\n    tag_404:\n        /* \"#utility.yul\":176:183   */\n      0x00\n        /* \"#utility.yul\":205:229   */\n      tag_474\n        /* \"#utility.yul\":223:228   */\n      dup3\n        /* \"#utility.yul\":205:229   */\n      tag_403\n      jump\t// in\n    tag_474:\n        /* \"#utility.yul\":194:229   */\n      swap1\n      pop\n        /* \"#utility.yul\":139:235   */\n      swap2\n      swap1\n      pop\n      jump\t// out\n        /* \"#utility.yul\":241:359   */\n    tag_405:\n        /* \"#utility.yul\":328:352   */\n      tag_476\n        /* \"#utility.yul\":346:351   */\n      dup2\n        /* \"#utility.yul\":328:352   */\n      tag_404\n      jump\t// in\n    tag_476:\n        /* \"#utility.yul\":323:326   */\n      dup3\n        /* \"#utility.yul\":316:353   */\n      mstore\n        /* \"#utility.yul\":241:359   */\n      pop\n      pop\n      jump\t// out\n        /* \"#utility.yul\":365:587   */\n    tag_43:\n        /* \"#utility.yul\":458:462   */\n      0x00\n        /* \"#utility.yul\":496:498   */\n      0x20\n        /* \"#utility.yul\":485:494   */\n      dup3\n        /* \"#utility.yul\":481:499   */\n      add\n        /* \"#utility.yul\":473:499   */\n      swap1\n      pop\n        /* \"#utility.yul\":509:580   */\n      tag_478\n        /* \"#utility.yul\":577:578   */\n      0x00\n        /* \"#utility.yul\":566:575   */\n      dup4\n        /* \"#utility.yul\":562:579   */\n      add\n        /* \"#utility.yul\":553:559   */\n      dup5\n        /* \"#utility.yul\":509:580   */\n      tag_405\n      jump\t// in\n    tag_478:\n        /* \"#utility.yul\":365:587   */\n      swap3\n      swap2\n      pop\n      pop\n      jump\t// out\n        /* \"#utility.yul\":674:791   */\n    tag_407:\n        /* \"#utility.yul\":783:784   */\n      0x00\n        /* \"#utility.yul\":780:781   */\n      dup1\n        /* \"#utility.yul\":773:785   */\n      revert\n        /* \"#utility.yul\":920:1042   */\n    tag_409:\n        /* \"#utility.yul\":993:1017   */\n      tag_483\n        /* \"#utility.yul\":1011:1016   */\n      dup2\n        /* \"#utility.yul\":993:1017   */\n      tag_404\n      jump\t// in\n    tag_483:\n        /* \"#utility.yul\":986:991   */\n      dup2\n        /* \"#utility.yul\":983:1018   */\n      eq\n        /* \"#utility.yul\":973:1036   */\n      tag_484\n      jumpi\n        /* \"#utility.yul\":1032:1033   */\n      0x00\n        /* \"#utility.yul\":1029:1030   */\n      dup1\n        /* \"#utility.yul\":1022:1034   */\n      revert\n        /* \"#utility.yul\":973:1036   */\n    tag_484:\n        /* \"#utility.yul\":920:1042   */\n      pop\n      jump\t// out\n        /* \"#utility.yul\":1048:1187   */\n    tag_410:\n        /* \"#utility.yul\":1094:1099   */\n      0x00\n        /* \"#utility.yul\":1132:1138   */\n      dup2\n        /* \"#utility.yul\":1119:1139   */\n      calldataload\n        /* \"#utility.yul\":1110:1139   */\n      swap1\n      pop\n        /* \"#utility.yul\":1148:1181   */\n      tag_486\n        /* \"#utility.yul\":1175:1180   */\n      dup2\n        /* \"#utility.yul\":1148:1181   */\n      tag_409\n      jump\t// in\n    tag_486:\n        /* \"#utility.yul\":1048:1187   */\n      swap3\n      swap2\n      pop\n      pop\n      jump\t// out\n        /* \"#utility.yul\":1193:1522   */\n    tag_46:\n        /* \"#utility.yul\":1252:1258   */\n      0x00\n        /* \"#utility.yul\":1301:1303   */\n      0x20\n        /* \"#utility.yul\":1289:1298   */\n      dup3\n        /* \"#utility.yul\":1280:1287   */\n      dup5\n        /* \"#utility.yul\":1276:1299   */\n      sub\n        /* \"#utility.yul\":1272:1304   */\n      slt\n        /* \"#utility.yul\":1269:1388   */\n      iszero\n      tag_488\n      jumpi\n        /* \"#utility.yul\":1307:1386   */\n      tag_489\n      tag_407\n      jump\t// in\n    tag_489:\n        /* \"#utility.yul\":1269:1388   */\n    tag_488:\n        /* \"#utility.yul\":1427:1428   */\n      0x00\n        /* \"#utility.yul\":1452:1505   */\n      tag_490\n        /* \"#utility.yul\":1497:1504   */\n      dup5\n        /* \"#utility.yul\":1488:1494   */\n      dup3\n        /* \"#utility.yul\":1477:1486   */\n      dup6\n        /* \"#utility.yul\":1473:1495   */\n      add\n        /* \"#utility.yul\":1452:1505   */\n      tag_410\n      jump\t// in\n    tag_490:\n        /* \"#utility.yul\":1442:1505   */\n      swap2\n      pop\n        /* \"#utility.yul\":1398:1515   */\n      pop\n        /* \"#utility.yul\":1193:1522   */\n      swap3\n      swap2\n      pop\n      pop\n      jump\t// out\n        /* \"#utility.yul\":1528:1605   */\n    tag_411:\n        /* \"#utility.yul\":1565:1572   */\n      0x00\n        /* \"#utility.yul\":1594:1599   */\n      dup2\n        /* \"#utility.yul\":1583:1599   */\n      swap1\n      pop\n        /* \"#utility.yul\":1528:1605   */\n      swap2\n      swap1\n      pop\n      jump\t// out\n        /* \"#utility.yul\":1611:1729   */\n    tag_412:\n        /* \"#utility.yul\":1698:1722   */\n      tag_493\n        /* \"#utility.yul\":1716:1721   */\n      dup2\n        /* \"#utility.yul\":1698:1722   */\n      tag_411\n      jump\t// in\n    tag_493:\n        /* \"#utility.yul\":1693:1696   */\n      dup3\n        /* \"#utility.yul\":1686:1723   */\n      mstore\n        /* \"#utility.yul\":1611:1729   */\n      pop\n      pop\n      jump\t// out\n        /* \"#utility.yul\":1735:1957   */\n    tag_53:\n        /* \"#utility.yul\":1828:1832   */\n      0x00\n        /* \"#utility.yul\":1866:1868   */\n      0x20\n        /* \"#utility.yul\":1855:1864   */\n      dup3\n        /* \"#utility.yul\":1851:1869   */\n      add\n        /* \"#utility.yul\":1843:1869   */\n      swap1\n      pop\n        /* \"#utility.yul\":1879:1950   */\n      tag_495\n        /* \"#utility.yul\":1947:1948   */\n      0x00\n        /* \"#utility.yul\":1936:1945   */\n      dup4\n        /* \"#utility.yul\":1932:1949   */\n      add\n        /* \"#utility.yul\":1923:1929   */\n      dup5\n        /* \"#utility.yul\":1879:1950   */\n      tag_412\n      jump\t// in\n    tag_495:\n        /* \"#utility.yul\":1735:1957   */\n      swap3\n      swap2\n      pop\n      pop\n      jump\t// out\n        /* \"#utility.yul\":1963:2085   */\n    tag_413:\n        /* \"#utility.yul\":2036:2060   */\n      tag_497\n        /* \"#utility.yul\":2054:2059   */\n      dup2\n        /* \"#utility.yul\":2036:2060   */\n      tag_411\n      jump\t// in\n    tag_497:\n        /* \"#utility.yul\":2029:2034   */\n      dup2\n        /* \"#utility.yul\":2026:2061   */\n      eq\n        /* \"#utility.yul\":2016:2079   */\n      tag_498\n      jumpi\n        /* \"#utility.yul\":2075:2076   */\n      0x00\n        /* \"#utility.yul\":2072:2073   */\n      dup1\n        /* \"#utility.yul\":2065:2077   */\n      revert\n        /* \"#utility.yul\":2016:2079   */\n    tag_498:\n        /* \"#utility.yul\":1963:2085   */\n      pop\n      jump\t// out\n        /* \"#utility.yul\":2091:2230   */\n    tag_414:\n        /* \"#utility.yul\":2137:2142   */\n      0x00\n        /* \"#utility.yul\":2175:2181   */\n      dup2\n        /* \"#utility.yul\":2162:2182   */\n      calldataload\n        /* \"#utility.yul\":2153:2182   */\n      swap1\n      pop\n        /* \"#utility.yul\":2191:2224   */\n      tag_500\n        /* \"#utility.yul\":2218:2223   */\n      dup2\n        /* \"#utility.yul\":2191:2224   */\n      tag_413\n      jump\t// in\n    tag_500:\n        /* \"#utility.yul\":2091:2230   */\n      swap3\n      swap2\n      pop\n      pop\n      jump\t// out\n        /* \"#utility.yul\":2236:2565   */\n    tag_56:\n        /* \"#utility.yul\":2295:2301   */\n      0x00\n        /* \"#utility.yul\":2344:2346   */\n      0x20\n        /* \"#utility.yul\":2332:2341   */\n      dup3\n        /* \"#utility.yul\":2323:2330   */\n      dup5\n        /* \"#utility.yul\":2319:2342   */\n      sub\n        /* \"#utility.yul\":2315:2347   */\n      slt\n        /* \"#utility.yul\":2312:2431   */\n      iszero\n      tag_502\n      jumpi\n        /* \"#utility.yul\":2350:2429   */\n      tag_503\n      tag_407\n      jump\t// in\n    tag_503:\n        /* \"#utility.yul\":2312:2431   */\n    tag_502:\n        /* \"#utility.yul\":2470:2471   */\n      0x00\n        /* \"#utility.yul\":2495:2548   */\n      tag_504\n        /* \"#utility.yul\":2540:2547   */\n      dup5\n        /* \"#utility.yul\":2531:2537   */\n      dup3\n        /* \"#utility.yul\":2520:2529   */\n      dup6\n        /* \"#utility.yul\":2516:2538   */\n      add\n        /* \"#utility.yul\":2495:2548   */\n      tag_414\n      jump\t// in\n    tag_504:\n        /* \"#utility.yul\":2485:2548   */\n      swap2\n      pop\n        /* \"#utility.yul\":2441:2558   */\n      pop\n        /* \"#utility.yul\":2236:2565   */\n      swap3\n      swap2\n      pop\n      pop\n      jump\t// out\n        /* \"#utility.yul\":2571:2661   */\n    tag_415:\n        /* \"#utility.yul\":2605:2612   */\n      0x00\n        /* \"#utility.yul\":2648:2653   */\n      dup2\n        /* \"#utility.yul\":2641:2654   */\n      iszero\n        /* \"#utility.yul\":2634:2655   */\n      iszero\n        /* \"#utility.yul\":2623:2655   */\n      swap1\n      pop\n        /* \"#utility.yul\":2571:2661   */\n      swap2\n      swap1\n      pop\n      jump\t// out\n        /* \"#utility.yul\":2667:2776   */\n    tag_416:\n        /* \"#utility.yul\":2748:2769   */\n      tag_507\n        /* \"#utility.yul\":2763:2768   */\n      dup2\n        /* \"#utility.yul\":2748:2769   */\n      tag_415\n      jump\t// in\n    tag_507:\n        /* \"#utility.yul\":2743:2746   */\n      dup3\n        /* \"#utility.yul\":2736:2770   */\n      mstore\n        /* \"#utility.yul\":2667:2776   */\n      pop\n      pop\n      jump\t// out\n        /* \"#utility.yul\":2782:2992   */\n    tag_65:\n        /* \"#utility.yul\":2869:2873   */\n      0x00\n        /* \"#utility.yul\":2907:2909   */\n      0x20\n        /* \"#utility.yul\":2896:2905   */\n      dup3\n        /* \"#utility.yul\":2892:2910   */\n      add\n        /* \"#utility.yul\":2884:2910   */\n      swap1\n      pop\n        /* \"#utility.yul\":2920:2985   */\n      tag_509\n        /* \"#utility.yul\":2982:2983   */\n      0x00\n        /* \"#utility.yul\":2971:2980   */\n      dup4\n        /* \"#utility.yul\":2967:2984   */\n      add\n        /* \"#utility.yul\":2958:2964   */\n      dup5\n        /* \"#utility.yul\":2920:2985   */\n      tag_416\n      jump\t// in\n    tag_509:\n        /* \"#utility.yul\":2782:2992   */\n      swap3\n      swap2\n      pop\n      pop\n      jump\t// out\n        /* \"#utility.yul\":2998:3617   */\n    tag_68:\n        /* \"#utility.yul\":3075:3081   */\n      0x00\n        /* \"#utility.yul\":3083:3089   */\n      dup1\n        /* \"#utility.yul\":3091:3097   */\n      0x00\n        /* \"#utility.yul\":3140:3142   */\n      0x60\n        /* \"#utility.yul\":3128:3137   */\n      dup5\n        /* \"#utility.yul\":3119:3126   */\n      dup7\n        /* \"#utility.yul\":3115:3138   */\n      sub\n        /* \"#utility.yul\":3111:3143   */\n      slt\n        /* \"#utility.yul\":3108:3227   */\n      iszero\n      tag_511\n      jumpi\n        /* \"#utility.yul\":3146:3225   */\n      tag_512\n      tag_407\n      jump\t// in\n    tag_512:\n        /* \"#utility.yul\":3108:3227   */\n    tag_511:\n        /* \"#utility.yul\":3266:3267   */\n      0x00\n        /* \"#utility.yul\":3291:3344   */\n      tag_513\n        /* \"#utility.yul\":3336:3343   */\n      dup7\n        /* \"#utility.yul\":3327:3333   */\n      dup3\n        /* \"#utility.yul\":3316:3325   */\n      dup8\n        /* \"#utility.yul\":3312:3334   */\n      add\n        /* \"#utility.yul\":3291:3344   */\n      tag_410\n      jump\t// in\n    tag_513:\n        /* \"#utility.yul\":3281:3344   */\n      swap4\n      pop\n        /* \"#utility.yul\":3237:3354   */\n      pop\n        /* \"#utility.yul\":3393:3395   */\n      0x20\n        /* \"#utility.yul\":3419:3472   */\n      tag_514\n        /* \"#utility.yul\":3464:3471   */\n      dup7\n        /* \"#utility.yul\":3455:3461   */\n      dup3\n        /* \"#utility.yul\":3444:3453   */\n      dup8\n        /* \"#utility.yul\":3440:3462   */\n      add\n        /* \"#utility.yul\":3419:3472   */\n      tag_410\n      jump\t// in\n    tag_514:\n        /* \"#utility.yul\":3409:3472   */\n      swap3\n      pop\n        /* \"#utility.yul\":3364:3482   */\n      pop\n        /* \"#utility.yul\":3521:3523   */\n      0x40\n        /* \"#utility.yul\":3547:3600   */\n      tag_515\n        /* \"#utility.yul\":3592:3599   */\n      dup7\n        /* \"#utility.yul\":3583:3589   */\n      dup3\n        /* \"#utility.yul\":3572:3581   */\n      dup8\n        /* \"#utility.yul\":3568:3590   */\n      add\n        /* \"#utility.yul\":3547:3600   */\n      tag_414\n      jump\t// in\n    tag_515:\n        /* \"#utility.yul\":3537:3600   */\n      swap2\n      pop\n        /* \"#utility.yul\":3492:3610   */\n      pop\n        /* \"#utility.yul\":2998:3617   */\n      swap3\n      pop\n      swap3\n      pop\n      swap3\n      jump\t// out\n        /* \"#utility.yul\":3623:4242   */\n    tag_78:\n        /* \"#utility.yul\":3700:3706   */\n      0x00\n        /* \"#utility.yul\":3708:3714   */\n      dup1\n        /* \"#utility.yul\":3716:3722   */\n      0x00\n        /* \"#utility.yul\":3765:3767   */\n      0x60\n        /* \"#utility.yul\":3753:3762   */\n      dup5\n        /* \"#utility.yul\":3744:3751   */\n      dup7\n        /* \"#utility.yul\":3740:3763   */\n      sub\n        /* \"#utility.yul\":3736:3768   */\n      slt\n        /* \"#utility.yul\":3733:3852   */\n      iszero\n      tag_517\n      jumpi\n        /* \"#utility.yul\":3771:3850   */\n      tag_518\n      tag_407\n      jump\t// in\n    tag_518:\n        /* \"#utility.yul\":3733:3852   */\n    tag_517:\n        /* \"#utility.yul\":3891:3892   */\n      0x00\n        /* \"#utility.yul\":3916:3969   */\n      tag_519\n        /* \"#utility.yul\":3961:3968   */\n      dup7\n        /* \"#utility.yul\":3952:3958   */\n      dup3\n        /* \"#utility.yul\":3941:3950   */\n      dup8\n        /* \"#utility.yul\":3937:3959   */\n      add\n        /* \"#utility.yul\":3916:3969   */\n      tag_414\n      jump\t// in\n    tag_519:\n        /* \"#utility.yul\":3906:3969   */\n      swap4\n      pop\n        /* \"#utility.yul\":3862:3979   */\n      pop\n        /* \"#utility.yul\":4018:4020   */\n      0x20\n        /* \"#utility.yul\":4044:4097   */\n      tag_520\n        /* \"#utility.yul\":4089:4096   */\n      dup7\n        /* \"#utility.yul\":4080:4086   */\n      dup3\n        /* \"#utility.yul\":4069:4078   */\n      dup8\n        /* \"#utility.yul\":4065:4087   */\n      add\n        /* \"#utility.yul\":4044:4097   */\n      tag_414\n      jump\t// in\n    tag_520:\n        /* \"#utility.yul\":4034:4097   */\n      swap3\n      pop\n        /* \"#utility.yul\":3989:4107   */\n      pop\n        /* \"#utility.yul\":4146:4148   */\n      0x40\n        /* \"#utility.yul\":4172:4225   */\n      tag_521\n        /* \"#utility.yul\":4217:4224   */\n      dup7\n        /* \"#utility.yul\":4208:4214   */\n      dup3\n        /* \"#utility.yul\":4197:4206   */\n      dup8\n        /* \"#utility.yul\":4193:4215   */\n      add\n        /* \"#utility.yul\":4172:4225   */\n      tag_414\n      jump\t// in\n    tag_521:\n        /* \"#utility.yul\":4162:4225   */\n      swap2\n      pop\n        /* \"#utility.yul\":4117:4235   */\n      pop\n        /* \"#utility.yul\":3623:4242   */\n      swap3\n      pop\n      swap3\n      pop\n      swap3\n      jump\t// out\n        /* \"#utility.yul\":4248:4347   */\n    tag_417:\n        /* \"#utility.yul\":4300:4306   */\n      0x00\n        /* \"#utility.yul\":4334:4339   */\n      dup2\n        /* \"#utility.yul\":4328:4340   */\n      mload\n        /* \"#utility.yul\":4318:4340   */\n      swap1\n      pop\n        /* \"#utility.yul\":4248:4347   */\n      swap2\n      swap1\n      pop\n      jump\t// out\n        /* \"#utility.yul\":4353:4522   */\n    tag_418:\n        /* \"#utility.yul\":4437:4448   */\n      0x00\n        /* \"#utility.yul\":4471:4477   */\n      dup3\n        /* \"#utility.yul\":4466:4469   */\n      dup3\n        /* \"#utility.yul\":4459:4478   */\n      mstore\n        /* \"#utility.yul\":4511:4515   */\n      0x20\n        /* \"#utility.yul\":4506:4509   */\n      dup3\n        /* \"#utility.yul\":4502:4516   */\n      add\n        /* \"#utility.yul\":4487:4516   */\n      swap1\n      pop\n        /* \"#utility.yul\":4353:4522   */\n      swap3\n      swap2\n      pop\n      pop\n      jump\t// out\n        /* \"#utility.yul\":4528:4774   */\n    tag_419:\n        /* \"#utility.yul\":4609:4610   */\n      0x00\n        /* \"#utility.yul\":4619:4732   */\n    tag_525:\n        /* \"#utility.yul\":4633:4639   */\n      dup4\n        /* \"#utility.yul\":4630:4631   */\n      dup2\n        /* \"#utility.yul\":4627:4640   */\n      lt\n        /* \"#utility.yul\":4619:4732   */\n      iszero\n      tag_527\n      jumpi\n        /* \"#utility.yul\":4718:4719   */\n      dup1\n        /* \"#utility.yul\":4713:4716   */\n      dup3\n        /* \"#utility.yul\":4709:4720   */\n      add\n        /* \"#utility.yul\":4703:4721   */\n      mload\n        /* \"#utility.yul\":4699:4700   */\n      dup2\n        /* \"#utility.yul\":4694:4697   */\n      dup5\n        /* \"#utility.yul\":4690:4701   */\n      add\n        /* \"#utility.yul\":4683:4722   */\n      mstore\n        /* \"#utility.yul\":4655:4657   */\n      0x20\n        /* \"#utility.yul\":4652:4653   */\n      dup2\n        /* \"#utility.yul\":4648:4658   */\n      add\n        /* \"#utility.yul\":4643:4658   */\n      swap1\n      pop\n        /* \"#utility.yul\":4619:4732   */\n      jump(tag_525)\n    tag_527:\n        /* \"#utility.yul\":4766:4767   */\n      0x00\n        /* \"#utility.yul\":4757:4763   */\n      dup5\n        /* \"#utility.yul\":4752:4755   */\n      dup5\n        /* \"#utility.yul\":4748:4764   */\n      add\n        /* \"#utility.yul\":4741:4768   */\n      mstore\n        /* \"#utility.yul\":4590:4774   */\n      pop\n        /* \"#utility.yul\":4528:4774   */\n      pop\n      pop\n      pop\n      jump\t// out\n        /* \"#utility.yul\":4780:4882   */\n    tag_420:\n        /* \"#utility.yul\":4821:4827   */\n      0x00\n        /* \"#utility.yul\":4872:4874   */\n      0x1f\n        /* \"#utility.yul\":4868:4875   */\n      not\n        /* \"#utility.yul\":4863:4865   */\n      0x1f\n        /* \"#utility.yul\":4856:4861   */\n      dup4\n        /* \"#utility.yul\":4852:4866   */\n      add\n        /* \"#utility.yul\":4848:4876   */\n      and\n        /* \"#utility.yul\":4838:4876   */\n      swap1\n      pop\n        /* \"#utility.yul\":4780:4882   */\n      swap2\n      swap1\n      pop\n      jump\t// out\n        /* \"#utility.yul\":4888:5265   */\n    tag_421:\n        /* \"#utility.yul\":4976:4979   */\n      0x00\n        /* \"#utility.yul\":5004:5043   */\n      tag_530\n        /* \"#utility.yul\":5037:5042   */\n      dup3\n        /* \"#utility.yul\":5004:5043   */\n      tag_417\n      jump\t// in\n    tag_530:\n        /* \"#utility.yul\":5059:5130   */\n      tag_531\n        /* \"#utility.yul\":5123:5129   */\n      dup2\n        /* \"#utility.yul\":5118:5121   */\n      dup6\n        /* \"#utility.yul\":5059:5130   */\n      tag_418\n      jump\t// in\n    tag_531:\n        /* \"#utility.yul\":5052:5130   */\n      swap4\n      pop\n        /* \"#utility.yul\":5139:5204   */\n      tag_532\n        /* \"#utility.yul\":5197:5203   */\n      dup2\n        /* \"#utility.yul\":5192:5195   */\n      dup6\n        /* \"#utility.yul\":5185:5189   */\n      0x20\n        /* \"#utility.yul\":5178:5183   */\n      dup7\n        /* \"#utility.yul\":5174:5190   */\n      add\n        /* \"#utility.yul\":5139:5204   */\n      tag_419\n      jump\t// in\n    tag_532:\n        /* \"#utility.yul\":5229:5258   */\n      tag_533\n        /* \"#utility.yul\":5251:5257   */\n      dup2\n        /* \"#utility.yul\":5229:5258   */\n      tag_420\n      jump\t// in\n    tag_533:\n        /* \"#utility.yul\":5224:5227   */\n      dup5\n        /* \"#utility.yul\":5220:5259   */\n      add\n        /* \"#utility.yul\":5213:5259   */\n      swap2\n      pop\n        /* \"#utility.yul\":4980:5265   */\n      pop\n        /* \"#utility.yul\":4888:5265   */\n      swap3\n      swap2\n      pop\n      pop\n      jump\t// out\n        /* \"#utility.yul\":5271:5694   */\n    tag_93:\n        /* \"#utility.yul\":5412:5416   */\n      0x00\n        /* \"#utility.yul\":5450:5452   */\n      0x40\n        /* \"#utility.yul\":5439:5448   */\n      dup3\n        /* \"#utility.yul\":5435:5453   */\n      add\n        /* \"#utility.yul\":5427:5453   */\n      swap1\n      pop\n        /* \"#utility.yul\":5463:5534   */\n      tag_535\n        /* \"#utility.yul\":5531:5532   */\n      0x00\n        /* \"#utility.yul\":5520:5529   */\n      dup4\n        /* \"#utility.yul\":5516:5533   */\n      add\n        /* \"#utility.yul\":5507:5513   */\n      dup6\n        /* \"#utility.yul\":5463:5534   */\n      tag_405\n      jump\t// in\n    tag_535:\n        /* \"#utility.yul\":5581:5590   */\n      dup2\n        /* \"#utility.yul\":5575:5579   */\n      dup2\n        /* \"#utility.yul\":5571:5591   */\n      sub\n        /* \"#utility.yul\":5566:5568   */\n      0x20\n        /* \"#utility.yul\":5555:5564   */\n      dup4\n        /* \"#utility.yul\":5551:5569   */\n      add\n        /* \"#utility.yul\":5544:5592   */\n      mstore\n        /* \"#utility.yul\":5609:5687   */\n      tag_536\n        /* \"#utility.yul\":5682:5686   */\n      dup2\n        /* \"#utility.yul\":5673:5679   */\n      dup5\n        /* \"#utility.yul\":5609:5687   */\n      tag_421\n      jump\t// in\n    tag_536:\n        /* \"#utility.yul\":5601:5687   */\n      swap1\n      pop\n        /* \"#utility.yul\":5271:5694   */\n      swap4\n      swap3\n      pop\n      pop\n      pop\n      jump\t// out\n        /* \"#utility.yul\":5700:6013   */\n    tag_110:\n        /* \"#utility.yul\":5813:5817   */\n      0x00\n        /* \"#utility.yul\":5851:5853   */\n      0x20\n        /* \"#utility.yul\":5840:5849   */\n      dup3\n        /* \"#utility.yul\":5836:5854   */\n      add\n        /* \"#utility.yul\":5828:5854   */\n      swap1\n      pop\n        /* \"#utility.yul\":5900:5909   */\n      dup2\n        /* \"#utility.yul\":5894:5898   */\n      dup2\n        /* \"#utility.yul\":5890:5910   */\n      sub\n        /* \"#utility.yul\":5886:5887   */\n      0x00\n        /* \"#utility.yul\":5875:5884   */\n      dup4\n        /* \"#utility.yul\":5871:5888   */\n      add\n        /* \"#utility.yul\":5864:5911   */\n      mstore\n        /* \"#utility.yul\":5928:6006   */\n      tag_538\n        /* \"#utility.yul\":6001:6005   */\n      dup2\n        /* \"#utility.yul\":5992:5998   */\n      dup5\n        /* \"#utility.yul\":5928:6006   */\n      tag_421\n      jump\t// in\n    tag_538:\n        /* \"#utility.yul\":5920:6006   */\n      swap1\n      pop\n        /* \"#utility.yul\":5700:6013   */\n      swap3\n      swap2\n      pop\n      pop\n      jump\t// out\n        /* \"#utility.yul\":6019:6183   */\n    tag_422:\n        /* \"#utility.yul\":6159:6175   */\n      0x4e6f74206163746976617465642e000000000000000000000000000000000000\n        /* \"#utility.yul\":6155:6156   */\n      0x00\n        /* \"#utility.yul\":6147:6153   */\n      dup3\n        /* \"#utility.yul\":6143:6157   */\n      add\n        /* \"#utility.yul\":6136:6176   */\n      mstore\n        /* \"#utility.yul\":6019:6183   */\n      pop\n      jump\t// out\n        /* \"#utility.yul\":6189:6555   */\n    tag_423:\n        /* \"#utility.yul\":6331:6334   */\n      0x00\n        /* \"#utility.yul\":6352:6419   */\n      tag_541\n        /* \"#utility.yul\":6416:6418   */\n      0x0e\n        /* \"#utility.yul\":6411:6414   */\n      dup4\n        /* \"#utility.yul\":6352:6419   */\n      tag_418\n      jump\t// in\n    tag_541:\n        /* \"#utility.yul\":6345:6419   */\n      swap2\n      pop\n        /* \"#utility.yul\":6428:6521   */\n      tag_542\n        /* \"#utility.yul\":6517:6520   */\n      dup3\n        /* \"#utility.yul\":6428:6521   */\n      tag_422\n      jump\t// in\n    tag_542:\n        /* \"#utility.yul\":6546:6548   */\n      0x20\n        /* \"#utility.yul\":6541:6544   */\n      dup3\n        /* \"#utility.yul\":6537:6549   */\n      add\n        /* \"#utility.yul\":6530:6549   */\n      swap1\n      pop\n        /* \"#utility.yul\":6189:6555   */\n      swap2\n      swap1\n      pop\n      jump\t// out\n        /* \"#utility.yul\":6561:6980   */\n    tag_143:\n        /* \"#utility.yul\":6727:6731   */\n      0x00\n        /* \"#utility.yul\":6765:6767   */\n      0x20\n        /* \"#utility.yul\":6754:6763   */\n      dup3\n        /* \"#utility.yul\":6750:6768   */\n      add\n        /* \"#utility.yul\":6742:6768   */\n      swap1\n      pop\n        /* \"#utility.yul\":6814:6823   */\n      dup2\n        /* \"#utility.yul\":6808:6812   */\n      dup2\n        /* \"#utility.yul\":6804:6824   */\n      sub\n        /* \"#utility.yul\":6800:6801   */\n      0x00\n        /* \"#utility.yul\":6789:6798   */\n      dup4\n        /* \"#utility.yul\":6785:6802   */\n      add\n        /* \"#utility.yul\":6778:6825   */\n      mstore\n        /* \"#utility.yul\":6842:6973   */\n      tag_544\n        /* \"#utility.yul\":6968:6972   */\n      dup2\n        /* \"#utility.yul\":6842:6973   */\n      tag_423\n      jump\t// in\n    tag_544:\n        /* \"#utility.yul\":6834:6973   */\n      swap1\n      pop\n        /* \"#utility.yul\":6561:6980   */\n      swap2\n      swap1\n      pop\n      jump\t// out\n        /* \"#utility.yul\":6986:7151   */\n    tag_424:\n        /* \"#utility.yul\":7126:7143   */\n      0x4e6f7420417574686f72697a6564210000000000000000000000000000000000\n        /* \"#utility.yul\":7122:7123   */\n      0x00\n        /* \"#utility.yul\":7114:7120   */\n      dup3\n        /* \"#utility.yul\":7110:7124   */\n      add\n        /* \"#utility.yul\":7103:7144   */\n      mstore\n        /* \"#utility.yul\":6986:7151   */\n      pop\n      jump\t// out\n        /* \"#utility.yul\":7157:7523   */\n    tag_425:\n        /* \"#utility.yul\":7299:7302   */\n      0x00\n        /* \"#utility.yul\":7320:7387   */\n      tag_547\n        /* \"#utility.yul\":7384:7386   */\n      0x0f\n        /* \"#utility.yul\":7379:7382   */\n      dup4\n        /* \"#utility.yul\":7320:7387   */\n      tag_418\n      jump\t// in\n    tag_547:\n        /* \"#utility.yul\":7313:7387   */\n      swap2\n      pop\n        /* \"#utility.yul\":7396:7489   */\n      tag_548\n        /* \"#utility.yul\":7485:7488   */\n      dup3\n        /* \"#utility.yul\":7396:7489   */\n      tag_424\n      jump\t// in\n    tag_548:\n        /* \"#utility.yul\":7514:7516   */\n      0x20\n        /* \"#utility.yul\":7509:7512   */\n      dup3\n        /* \"#utility.yul\":7505:7517   */\n      add\n        /* \"#utility.yul\":7498:7517   */\n      swap1\n      pop\n        /* \"#utility.yul\":7157:7523   */\n      swap2\n      swap1\n      pop\n      jump\t// out\n        /* \"#utility.yul\":7529:7948   */\n    tag_151:\n        /* \"#utility.yul\":7695:7699   */\n      0x00\n        /* \"#utility.yul\":7733:7735   */\n      0x20\n        /* \"#utility.yul\":7722:7731   */\n      dup3\n        /* \"#utility.yul\":7718:7736   */\n      add\n        /* \"#utility.yul\":7710:7736   */\n      swap1\n      pop\n        /* \"#utility.yul\":7782:7791   */\n      dup2\n        /* \"#utility.yul\":7776:7780   */\n      dup2\n        /* \"#utility.yul\":7772:7792   */\n      sub\n        /* \"#utility.yul\":7768:7769   */\n      0x00\n        /* \"#utility.yul\":7757:7766   */\n      dup4\n        /* \"#utility.yul\":7753:7770   */\n      add\n        /* \"#utility.yul\":7746:7793   */\n      mstore\n        /* \"#utility.yul\":7810:7941   */\n      tag_550\n        /* \"#utility.yul\":7936:7940   */\n      dup2\n        /* \"#utility.yul\":7810:7941   */\n      tag_425\n      jump\t// in\n    tag_550:\n        /* \"#utility.yul\":7802:7941   */\n      swap1\n      pop\n        /* \"#utility.yul\":7529:7948   */\n      swap2\n      swap1\n      pop\n      jump\t// out\n        /* \"#utility.yul\":7954:8174   */\n    tag_426:\n        /* \"#utility.yul\":8094:8128   */\n      0x43616e2774206163746976617465207769746820746869732061646472657373\n        /* \"#utility.yul\":8090:8091   */\n      0x00\n        /* \"#utility.yul\":8082:8088   */\n      dup3\n        /* \"#utility.yul\":8078:8092   */\n      add\n        /* \"#utility.yul\":8071:8129   */\n      mstore\n        /* \"#utility.yul\":8163:8166   */\n      0x2100000000000000000000000000000000000000000000000000000000000000\n        /* \"#utility.yul\":8158:8160   */\n      0x20\n        /* \"#utility.yul\":8150:8156   */\n      dup3\n        /* \"#utility.yul\":8146:8161   */\n      add\n        /* \"#utility.yul\":8139:8167   */\n      mstore\n        /* \"#utility.yul\":7954:8174   */\n      pop\n      jump\t// out\n        /* \"#utility.yul\":8180:8546   */\n    tag_427:\n        /* \"#utility.yul\":8322:8325   */\n      0x00\n        /* \"#utility.yul\":8343:8410   */\n      tag_553\n        /* \"#utility.yul\":8407:8409   */\n      0x21\n        /* \"#utility.yul\":8402:8405   */\n      dup4\n        /* \"#utility.yul\":8343:8410   */\n      tag_418\n      jump\t// in\n    tag_553:\n        /* \"#utility.yul\":8336:8410   */\n      swap2\n      pop\n        /* \"#utility.yul\":8419:8512   */\n      tag_554\n        /* \"#utility.yul\":8508:8511   */\n      dup3\n        /* \"#utility.yul\":8419:8512   */\n      tag_426\n      jump\t// in\n    tag_554:\n        /* \"#utility.yul\":8537:8539   */\n      0x40\n        /* \"#utility.yul\":8532:8535   */\n      dup3\n        /* \"#utility.yul\":8528:8540   */\n      add\n        /* \"#utility.yul\":8521:8540   */\n      swap1\n      pop\n        /* \"#utility.yul\":8180:8546   */\n      swap2\n      swap1\n      pop\n      jump\t// out\n        /* \"#utility.yul\":8552:8971   */\n    tag_162:\n        /* \"#utility.yul\":8718:8722   */\n      0x00\n        /* \"#utility.yul\":8756:8758   */\n      0x20\n        /* \"#utility.yul\":8745:8754   */\n      dup3\n        /* \"#utility.yul\":8741:8759   */\n      add\n        /* \"#utility.yul\":8733:8759   */\n      swap1\n      pop\n        /* \"#utility.yul\":8805:8814   */\n      dup2\n        /* \"#utility.yul\":8799:8803   */\n      dup2\n        /* \"#utility.yul\":8795:8815   */\n      sub\n        /* \"#utility.yul\":8791:8792   */\n      0x00\n        /* \"#utility.yul\":8780:8789   */\n      dup4\n        /* \"#utility.yul\":8776:8793   */\n      add\n        /* \"#utility.yul\":8769:8816   */\n      mstore\n        /* \"#utility.yul\":8833:8964   */\n      tag_556\n        /* \"#utility.yul\":8959:8963   */\n      dup2\n        /* \"#utility.yul\":8833:8964   */\n      tag_427\n      jump\t// in\n    tag_556:\n        /* \"#utility.yul\":8825:8964   */\n      swap1\n      pop\n        /* \"#utility.yul\":8552:8971   */\n      swap2\n      swap1\n      pop\n      jump\t// out\n        /* \"#utility.yul\":8977:9145   */\n    tag_428:\n        /* \"#utility.yul\":9117:9137   */\n      0x416c7265616479206163746976617465642e0000000000000000000000000000\n        /* \"#utility.yul\":9113:9114   */\n      0x00\n        /* \"#utility.yul\":9105:9111   */\n      dup3\n        /* \"#utility.yul\":9101:9115   */\n      add\n        /* \"#utility.yul\":9094:9138   */\n      mstore\n        /* \"#utility.yul\":8977:9145   */\n      pop\n      jump\t// out\n        /* \"#utility.yul\":9151:9517   */\n    tag_429:\n        /* \"#utility.yul\":9293:9296   */\n      0x00\n        /* \"#utility.yul\":9314:9381   */\n      tag_559\n        /* \"#utility.yul\":9378:9380   */\n      0x12\n        /* \"#utility.yul\":9373:9376   */\n      dup4\n        /* \"#utility.yul\":9314:9381   */\n      tag_418\n      jump\t// in\n    tag_559:\n        /* \"#utility.yul\":9307:9381   */\n      swap2\n      pop\n        /* \"#utility.yul\":9390:9483   */\n      tag_560\n        /* \"#utility.yul\":9479:9482   */\n      dup3\n        /* \"#utility.yul\":9390:9483   */\n      tag_428\n      jump\t// in\n    tag_560:\n        /* \"#utility.yul\":9508:9510   */\n      0x20\n        /* \"#utility.yul\":9503:9506   */\n      dup3\n        /* \"#utility.yul\":9499:9511   */\n      add\n        /* \"#utility.yul\":9492:9511   */\n      swap1\n      pop\n        /* \"#utility.yul\":9151:9517   */\n      swap2\n      swap1\n      pop\n      jump\t// out\n        /* \"#utility.yul\":9523:9942   */\n    tag_165:\n        /* \"#utility.yul\":9689:9693   */\n      0x00\n        /* \"#utility.yul\":9727:9729   */\n      0x20\n        /* \"#utility.yul\":9716:9725   */\n      dup3\n        /* \"#utility.yul\":9712:9730   */\n      add\n        /* \"#utility.yul\":9704:9730   */\n      swap1\n      pop\n        /* \"#utility.yul\":9776:9785   */\n      dup2\n        /* \"#utility.yul\":9770:9774   */\n      dup2\n        /* \"#utility.yul\":9766:9786   */\n      sub\n        /* \"#utility.yul\":9762:9763   */\n      0x00\n        /* \"#utility.yul\":9751:9760   */\n      dup4\n        /* \"#utility.yul\":9747:9764   */\n      add\n        /* \"#utility.yul\":9740:9787   */\n      mstore\n        /* \"#utility.yul\":9804:9935   */\n      tag_562\n        /* \"#utility.yul\":9930:9934   */\n      dup2\n        /* \"#utility.yul\":9804:9935   */\n      tag_429\n      jump\t// in\n    tag_562:\n        /* \"#utility.yul\":9796:9935   */\n      swap1\n      pop\n        /* \"#utility.yul\":9523:9942   */\n      swap2\n      swap1\n      pop\n      jump\t// out\n        /* \"#utility.yul\":9948:10173   */\n    tag_430:\n        /* \"#utility.yul\":10088:10122   */\n      0x4f6e6c79204f776e6572206f7220417574686f72697a65642070617274696369\n        /* \"#utility.yul\":10084:10085   */\n      0x00\n        /* \"#utility.yul\":10076:10082   */\n      dup3\n        /* \"#utility.yul\":10072:10086   */\n      add\n        /* \"#utility.yul\":10065:10123   */\n      mstore\n        /* \"#utility.yul\":10157:10165   */\n      0x7061746f72210000000000000000000000000000000000000000000000000000\n        /* \"#utility.yul\":10152:10154   */\n      0x20\n        /* \"#utility.yul\":10144:10150   */\n      dup3\n        /* \"#utility.yul\":10140:10155   */\n      add\n        /* \"#utility.yul\":10133:10166   */\n      mstore\n        /* \"#utility.yul\":9948:10173   */\n      pop\n      jump\t// out\n        /* \"#utility.yul\":10179:10545   */\n    tag_431:\n        /* \"#utility.yul\":10321:10324   */\n      0x00\n        /* \"#utility.yul\":10342:10409   */\n      tag_565\n        /* \"#utility.yul\":10406:10408   */\n      0x26\n        /* \"#utility.yul\":10401:10404   */\n      dup4\n        /* \"#utility.yul\":10342:10409   */\n      tag_418\n      jump\t// in\n    tag_565:\n        /* \"#utility.yul\":10335:10409   */\n      swap2\n      pop\n        /* \"#utility.yul\":10418:10511   */\n      tag_566\n        /* \"#utility.yul\":10507:10510   */\n      dup3\n        /* \"#utility.yul\":10418:10511   */\n      tag_430\n      jump\t// in\n    tag_566:\n        /* \"#utility.yul\":10536:10538   */\n      0x40\n        /* \"#utility.yul\":10531:10534   */\n      dup3\n        /* \"#utility.yul\":10527:10539   */\n      add\n        /* \"#utility.yul\":10520:10539   */\n      swap1\n      pop\n        /* \"#utility.yul\":10179:10545   */\n      swap2\n      swap1\n      pop\n      jump\t// out\n        /* \"#utility.yul\":10551:10970   */\n    tag_174:\n        /* \"#utility.yul\":10717:10721   */\n      0x00\n        /* \"#utility.yul\":10755:10757   */\n      0x20\n        /* \"#utility.yul\":10744:10753   */\n      dup3\n        /* \"#utility.yul\":10740:10758   */\n      add\n        /* \"#utility.yul\":10732:10758   */\n      swap1\n      pop\n        /* \"#utility.yul\":10804:10813   */\n      dup2\n        /* \"#utility.yul\":10798:10802   */\n      dup2\n        /* \"#utility.yul\":10794:10814   */\n      sub\n        /* \"#utility.yul\":10790:10791   */\n      0x00\n        /* \"#utility.yul\":10779:10788   */\n      dup4\n        /* \"#utility.yul\":10775:10792   */\n      add\n        /* \"#utility.yul\":10768:10815   */\n      mstore\n        /* \"#utility.yul\":10832:10963   */\n      tag_568\n        /* \"#utility.yul\":10958:10962   */\n      dup2\n        /* \"#utility.yul\":10832:10963   */\n      tag_431\n      jump\t// in\n    tag_568:\n        /* \"#utility.yul\":10824:10963   */\n      swap1\n      pop\n        /* \"#utility.yul\":10551:10970   */\n      swap2\n      swap1\n      pop\n      jump\t// out\n        /* \"#utility.yul\":10976:11156   */\n    tag_432:\n        /* \"#utility.yul\":11024:11101   */\n      0x4e487b7100000000000000000000000000000000000000000000000000000000\n        /* \"#utility.yul\":11021:11022   */\n      0x00\n        /* \"#utility.yul\":11014:11102   */\n      mstore\n        /* \"#utility.yul\":11121:11125   */\n      0x11\n        /* \"#utility.yul\":11118:11119   */\n      0x04\n        /* \"#utility.yul\":11111:11126   */\n      mstore\n        /* \"#utility.yul\":11145:11149   */\n      0x24\n        /* \"#utility.yul\":11142:11143   */\n      0x00\n        /* \"#utility.yul\":11135:11150   */\n      revert\n        /* \"#utility.yul\":11162:11356   */\n    tag_180:\n        /* \"#utility.yul\":11202:11206   */\n      0x00\n        /* \"#utility.yul\":11222:11242   */\n      tag_571\n        /* \"#utility.yul\":11240:11241   */\n      dup3\n        /* \"#utility.yul\":11222:11242   */\n      tag_411\n      jump\t// in\n    tag_571:\n        /* \"#utility.yul\":11217:11242   */\n      swap2\n      pop\n        /* \"#utility.yul\":11256:11276   */\n      tag_572\n        /* \"#utility.yul\":11274:11275   */\n      dup4\n        /* \"#utility.yul\":11256:11276   */\n      tag_411\n      jump\t// in\n    tag_572:\n        /* \"#utility.yul\":11251:11276   */\n      swap3\n      pop\n        /* \"#utility.yul\":11300:11301   */\n      dup3\n        /* \"#utility.yul\":11297:11298   */\n      dup3\n        /* \"#utility.yul\":11293:11302   */\n      sub\n        /* \"#utility.yul\":11285:11302   */\n      swap1\n      pop\n        /* \"#utility.yul\":11324:11325   */\n      dup2\n        /* \"#utility.yul\":11318:11322   */\n      dup2\n        /* \"#utility.yul\":11315:11326   */\n      gt\n        /* \"#utility.yul\":11312:11349   */\n      iszero\n      tag_573\n      jumpi\n        /* \"#utility.yul\":11329:11347   */\n      tag_574\n      tag_432\n      jump\t// in\n    tag_574:\n        /* \"#utility.yul\":11312:11349   */\n    tag_573:\n        /* \"#utility.yul\":11162:11356   */\n      swap3\n      swap2\n      pop\n      pop\n      jump\t// out\n        /* \"#utility.yul\":11362:11510   */\n    tag_433:\n        /* \"#utility.yul\":11464:11475   */\n      0x00\n        /* \"#utility.yul\":11501:11504   */\n      dup2\n        /* \"#utility.yul\":11486:11504   */\n      swap1\n      pop\n        /* \"#utility.yul\":11362:11510   */\n      swap3\n      swap2\n      pop\n      pop\n      jump\t// out\n        /* \"#utility.yul\":11516:11761   */\n    tag_434:\n        /* \"#utility.yul\":11656:11690   */\n      0x4e6f7420656e6f75676820706f696e74732e2054686520636f6e747261637420\n        /* \"#utility.yul\":11652:11653   */\n      0x00\n        /* \"#utility.yul\":11644:11650   */\n      dup3\n        /* \"#utility.yul\":11640:11654   */\n      add\n        /* \"#utility.yul\":11633:11691   */\n      mstore\n        /* \"#utility.yul\":11725:11753   */\n      0x6d75737420626520636861726765642077697468206d6f726520000000000000\n        /* \"#utility.yul\":11720:11722   */\n      0x20\n        /* \"#utility.yul\":11712:11718   */\n      dup3\n        /* \"#utility.yul\":11708:11723   */\n      add\n        /* \"#utility.yul\":11701:11754   */\n      mstore\n        /* \"#utility.yul\":11516:11761   */\n      pop\n      jump\t// out\n        /* \"#utility.yul\":11767:12169   */\n    tag_435:\n        /* \"#utility.yul\":11927:11930   */\n      0x00\n        /* \"#utility.yul\":11948:12033   */\n      tag_578\n        /* \"#utility.yul\":12030:12032   */\n      0x3a\n        /* \"#utility.yul\":12025:12028   */\n      dup4\n        /* \"#utility.yul\":11948:12033   */\n      tag_433\n      jump\t// in\n    tag_578:\n        /* \"#utility.yul\":11941:12033   */\n      swap2\n      pop\n        /* \"#utility.yul\":12042:12135   */\n      tag_579\n        /* \"#utility.yul\":12131:12134   */\n      dup3\n        /* \"#utility.yul\":12042:12135   */\n      tag_434\n      jump\t// in\n    tag_579:\n        /* \"#utility.yul\":12160:12162   */\n      0x3a\n        /* \"#utility.yul\":12155:12158   */\n      dup3\n        /* \"#utility.yul\":12151:12163   */\n      add\n        /* \"#utility.yul\":12144:12163   */\n      swap1\n      pop\n        /* \"#utility.yul\":11767:12169   */\n      swap2\n      swap1\n      pop\n      jump\t// out\n        /* \"#utility.yul\":12175:12355   */\n    tag_436:\n        /* \"#utility.yul\":12223:12300   */\n      0x4e487b7100000000000000000000000000000000000000000000000000000000\n        /* \"#utility.yul\":12220:12221   */\n      0x00\n        /* \"#utility.yul\":12213:12301   */\n      mstore\n        /* \"#utility.yul\":12320:12324   */\n      0x22\n        /* \"#utility.yul\":12317:12318   */\n      0x04\n        /* \"#utility.yul\":12310:12325   */\n      mstore\n        /* \"#utility.yul\":12344:12348   */\n      0x24\n        /* \"#utility.yul\":12341:12342   */\n      0x00\n        /* \"#utility.yul\":12334:12349   */\n      revert\n        /* \"#utility.yul\":12361:12681   */\n    tag_281:\n        /* \"#utility.yul\":12405:12411   */\n      0x00\n        /* \"#utility.yul\":12442:12443   */\n      0x02\n        /* \"#utility.yul\":12436:12440   */\n      dup3\n        /* \"#utility.yul\":12432:12444   */\n      div\n        /* \"#utility.yul\":12422:12444   */\n      swap1\n      pop\n        /* \"#utility.yul\":12489:12490   */\n      0x01\n        /* \"#utility.yul\":12483:12487   */\n      dup3\n        /* \"#utility.yul\":12479:12491   */\n      and\n        /* \"#utility.yul\":12510:12528   */\n      dup1\n        /* \"#utility.yul\":12500:12581   */\n      tag_582\n      jumpi\n        /* \"#utility.yul\":12566:12570   */\n      0x7f\n        /* \"#utility.yul\":12558:12564   */\n      dup3\n        /* \"#utility.yul\":12554:12571   */\n      and\n        /* \"#utility.yul\":12544:12571   */\n      swap2\n      pop\n        /* \"#utility.yul\":12500:12581   */\n    tag_582:\n        /* \"#utility.yul\":12628:12630   */\n      0x20\n        /* \"#utility.yul\":12620:12626   */\n      dup3\n        /* \"#utility.yul\":12617:12631   */\n      lt\n        /* \"#utility.yul\":12597:12615   */\n      dup2\n        /* \"#utility.yul\":12594:12632   */\n      sub\n        /* \"#utility.yul\":12591:12675   */\n      tag_583\n      jumpi\n        /* \"#utility.yul\":12647:12665   */\n      tag_584\n      tag_436\n      jump\t// in\n    tag_584:\n        /* \"#utility.yul\":12591:12675   */\n    tag_583:\n        /* \"#utility.yul\":12412:12681   */\n      pop\n        /* \"#utility.yul\":12361:12681   */\n      swap2\n      swap1\n      pop\n      jump\t// out\n        /* \"#utility.yul\":12687:12828   */\n    tag_437:\n        /* \"#utility.yul\":12736:12740   */\n      0x00\n        /* \"#utility.yul\":12759:12762   */\n      dup2\n        /* \"#utility.yul\":12751:12762   */\n      swap1\n      pop\n        /* \"#utility.yul\":12782:12785   */\n      dup2\n        /* \"#utility.yul\":12779:12780   */\n      0x00\n        /* \"#utility.yul\":12772:12786   */\n      mstore\n        /* \"#utility.yul\":12816:12820   */\n      0x20\n        /* \"#utility.yul\":12813:12814   */\n      0x00\n        /* \"#utility.yul\":12803:12821   */\n      keccak256\n        /* \"#utility.yul\":12795:12821   */\n      swap1\n      pop\n        /* \"#utility.yul\":12687:12828   */\n      swap2\n      swap1\n      pop\n      jump\t// out\n        /* \"#utility.yul\":12858:13732   */\n    tag_438:\n        /* \"#utility.yul\":12961:12964   */\n      0x00\n        /* \"#utility.yul\":12998:13003   */\n      dup2\n        /* \"#utility.yul\":12992:13004   */\n      sload\n        /* \"#utility.yul\":13027:13063   */\n      tag_587\n        /* \"#utility.yul\":13053:13062   */\n      dup2\n        /* \"#utility.yul\":13027:13063   */\n      tag_281\n      jump\t// in\n    tag_587:\n        /* \"#utility.yul\":13079:13168   */\n      tag_588\n        /* \"#utility.yul\":13161:13167   */\n      dup2\n        /* \"#utility.yul\":13156:13159   */\n      dup7\n        /* \"#utility.yul\":13079:13168   */\n      tag_433\n      jump\t// in\n    tag_588:\n        /* \"#utility.yul\":13072:13168   */\n      swap5\n      pop\n        /* \"#utility.yul\":13199:13200   */\n      0x01\n        /* \"#utility.yul\":13188:13197   */\n      dup3\n        /* \"#utility.yul\":13184:13201   */\n      and\n        /* \"#utility.yul\":13215:13216   */\n      0x00\n        /* \"#utility.yul\":13210:13376   */\n      dup2\n      eq\n      tag_590\n      jumpi\n        /* \"#utility.yul\":13390:13391   */\n      0x01\n        /* \"#utility.yul\":13385:13726   */\n      dup2\n      eq\n      tag_591\n      jumpi\n        /* \"#utility.yul\":13177:13726   */\n      jump(tag_589)\n        /* \"#utility.yul\":13210:13376   */\n    tag_590:\n        /* \"#utility.yul\":13294:13298   */\n      0xff\n        /* \"#utility.yul\":13290:13299   */\n      not\n        /* \"#utility.yul\":13279:13288   */\n      dup4\n        /* \"#utility.yul\":13275:13300   */\n      and\n        /* \"#utility.yul\":13270:13273   */\n      dup7\n        /* \"#utility.yul\":13263:13301   */\n      mstore\n        /* \"#utility.yul\":13356:13362   */\n      dup2\n        /* \"#utility.yul\":13349:13363   */\n      iszero\n        /* \"#utility.yul\":13342:13364   */\n      iszero\n        /* \"#utility.yul\":13334:13340   */\n      dup3\n        /* \"#utility.yul\":13330:13365   */\n      mul\n        /* \"#utility.yul\":13325:13328   */\n      dup7\n        /* \"#utility.yul\":13321:13366   */\n      add\n        /* \"#utility.yul\":13314:13366   */\n      swap4\n      pop\n        /* \"#utility.yul\":13210:13376   */\n      jump(tag_589)\n        /* \"#utility.yul\":13385:13726   */\n    tag_591:\n        /* \"#utility.yul\":13452:13490   */\n      tag_592\n        /* \"#utility.yul\":13484:13489   */\n      dup6\n        /* \"#utility.yul\":13452:13490   */\n      tag_437\n      jump\t// in\n    tag_592:\n        /* \"#utility.yul\":13512:13513   */\n      0x00\n        /* \"#utility.yul\":13526:13680   */\n    tag_593:\n        /* \"#utility.yul\":13540:13546   */\n      dup4\n        /* \"#utility.yul\":13537:13538   */\n      dup2\n        /* \"#utility.yul\":13534:13547   */\n      lt\n        /* \"#utility.yul\":13526:13680   */\n      iszero\n      tag_595\n      jumpi\n        /* \"#utility.yul\":13614:13621   */\n      dup2\n        /* \"#utility.yul\":13608:13622   */\n      sload\n        /* \"#utility.yul\":13604:13605   */\n      dup2\n        /* \"#utility.yul\":13599:13602   */\n      dup10\n        /* \"#utility.yul\":13595:13606   */\n      add\n        /* \"#utility.yul\":13588:13623   */\n      mstore\n        /* \"#utility.yul\":13664:13665   */\n      0x01\n        /* \"#utility.yul\":13655:13662   */\n      dup3\n        /* \"#utility.yul\":13651:13666   */\n      add\n        /* \"#utility.yul\":13640:13666   */\n      swap2\n      pop\n        /* \"#utility.yul\":13562:13566   */\n      0x20\n        /* \"#utility.yul\":13559:13560   */\n      dup2\n        /* \"#utility.yul\":13555:13567   */\n      add\n        /* \"#utility.yul\":13550:13567   */\n      swap1\n      pop\n        /* \"#utility.yul\":13526:13680   */\n      jump(tag_593)\n    tag_595:\n        /* \"#utility.yul\":13709:13715   */\n      dup4\n        /* \"#utility.yul\":13704:13707   */\n      dup9\n        /* \"#utility.yul\":13700:13716   */\n      add\n        /* \"#utility.yul\":13693:13716   */\n      swap6\n      pop\n        /* \"#utility.yul\":13392:13726   */\n      pop\n      pop\n        /* \"#utility.yul\":13177:13726   */\n    tag_589:\n      pop\n        /* \"#utility.yul\":12965:13732   */\n      pop\n      pop\n        /* \"#utility.yul\":12858:13732   */\n      swap3\n      swap2\n      pop\n      pop\n      jump\t// out\n        /* \"#utility.yul\":13738:14273   */\n    tag_182:\n        /* \"#utility.yul\":13968:13971   */\n      0x00\n        /* \"#utility.yul\":13990:14138   */\n      tag_597\n        /* \"#utility.yul\":14134:14137   */\n      dup3\n        /* \"#utility.yul\":13990:14138   */\n      tag_435\n      jump\t// in\n    tag_597:\n        /* \"#utility.yul\":13983:14138   */\n      swap2\n      pop\n        /* \"#utility.yul\":14155:14247   */\n      tag_598\n        /* \"#utility.yul\":14243:14246   */\n      dup3\n        /* \"#utility.yul\":14234:14240   */\n      dup5\n        /* \"#utility.yul\":14155:14247   */\n      tag_438\n      jump\t// in\n    tag_598:\n        /* \"#utility.yul\":14148:14247   */\n      swap2\n      pop\n        /* \"#utility.yul\":14264:14267   */\n      dup2\n        /* \"#utility.yul\":14257:14267   */\n      swap1\n      pop\n        /* \"#utility.yul\":13738:14273   */\n      swap3\n      swap2\n      pop\n      pop\n      jump\t// out\n        /* \"#utility.yul\":14279:14503   */\n    tag_439:\n        /* \"#utility.yul\":14419:14453   */\n      0x57697468647261772076616c7565206d75737420626520677265617465722074\n        /* \"#utility.yul\":14415:14416   */\n      0x00\n        /* \"#utility.yul\":14407:14413   */\n      dup3\n        /* \"#utility.yul\":14403:14417   */\n      add\n        /* \"#utility.yul\":14396:14454   */\n      mstore\n        /* \"#utility.yul\":14488:14495   */\n      0x68616e2030000000000000000000000000000000000000000000000000000000\n        /* \"#utility.yul\":14483:14485   */\n      0x20\n        /* \"#utility.yul\":14475:14481   */\n      dup3\n        /* \"#utility.yul\":14471:14486   */\n      add\n        /* \"#utility.yul\":14464:14496   */\n      mstore\n        /* \"#utility.yul\":14279:14503   */\n      pop\n      jump\t// out\n        /* \"#utility.yul\":14509:14875   */\n    tag_440:\n        /* \"#utility.yul\":14651:14654   */\n      0x00\n        /* \"#utility.yul\":14672:14739   */\n      tag_601\n        /* \"#utility.yul\":14736:14738   */\n      0x25\n        /* \"#utility.yul\":14731:14734   */\n      dup4\n        /* \"#utility.yul\":14672:14739   */\n      tag_418\n      jump\t// in\n    tag_601:\n        /* \"#utility.yul\":14665:14739   */\n      swap2\n      pop\n        /* \"#utility.yul\":14748:14841   */\n      tag_602\n        /* \"#utility.yul\":14837:14840   */\n      dup3\n        /* \"#utility.yul\":14748:14841   */\n      tag_439\n      jump\t// in\n    tag_602:\n        /* \"#utility.yul\":14866:14868   */\n      0x40\n        /* \"#utility.yul\":14861:14864   */\n      dup3\n        /* \"#utility.yul\":14857:14869   */\n      add\n        /* \"#utility.yul\":14850:14869   */\n      swap1\n      pop\n        /* \"#utility.yul\":14509:14875   */\n      swap2\n      swap1\n      pop\n      jump\t// out\n        /* \"#utility.yul\":14881:15300   */\n    tag_187:\n        /* \"#utility.yul\":15047:15051   */\n      0x00\n        /* \"#utility.yul\":15085:15087   */\n      0x20\n        /* \"#utility.yul\":15074:15083   */\n      dup3\n        /* \"#utility.yul\":15070:15088   */\n      add\n        /* \"#utility.yul\":15062:15088   */\n      swap1\n      pop\n        /* \"#utility.yul\":15134:15143   */\n      dup2\n        /* \"#utility.yul\":15128:15132   */\n      dup2\n        /* \"#utility.yul\":15124:15144   */\n      sub\n        /* \"#utility.yul\":15120:15121   */\n      0x00\n        /* \"#utility.yul\":15109:15118   */\n      dup4\n        /* \"#utility.yul\":15105:15122   */\n      add\n        /* \"#utility.yul\":15098:15145   */\n      mstore\n        /* \"#utility.yul\":15162:15293   */\n      tag_604\n        /* \"#utility.yul\":15288:15292   */\n      dup2\n        /* \"#utility.yul\":15162:15293   */\n      tag_440\n      jump\t// in\n    tag_604:\n        /* \"#utility.yul\":15154:15293   */\n      swap1\n      pop\n        /* \"#utility.yul\":14881:15300   */\n      swap2\n      swap1\n      pop\n      jump\t// out\n        /* \"#utility.yul\":15306:15497   */\n    tag_189:\n        /* \"#utility.yul\":15346:15349   */\n      0x00\n        /* \"#utility.yul\":15365:15385   */\n      tag_606\n        /* \"#utility.yul\":15383:15384   */\n      dup3\n        /* \"#utility.yul\":15365:15385   */\n      tag_411\n      jump\t// in\n    tag_606:\n        /* \"#utility.yul\":15360:15385   */\n      swap2\n      pop\n        /* \"#utility.yul\":15399:15419   */\n      tag_607\n        /* \"#utility.yul\":15417:15418   */\n      dup4\n        /* \"#utility.yul\":15399:15419   */\n      tag_411\n      jump\t// in\n    tag_607:\n        /* \"#utility.yul\":15394:15419   */\n      swap3\n      pop\n        /* \"#utility.yul\":15442:15443   */\n      dup3\n        /* \"#utility.yul\":15439:15440   */\n      dup3\n        /* \"#utility.yul\":15435:15444   */\n      add\n        /* \"#utility.yul\":15428:15444   */\n      swap1\n      pop\n        /* \"#utility.yul\":15463:15466   */\n      dup1\n        /* \"#utility.yul\":15460:15461   */\n      dup3\n        /* \"#utility.yul\":15457:15467   */\n      gt\n        /* \"#utility.yul\":15454:15490   */\n      iszero\n      tag_608\n      jumpi\n        /* \"#utility.yul\":15470:15488   */\n      tag_609\n      tag_432\n      jump\t// in\n    tag_609:\n        /* \"#utility.yul\":15454:15490   */\n    tag_608:\n        /* \"#utility.yul\":15306:15497   */\n      swap3\n      swap2\n      pop\n      pop\n      jump\t// out\n        /* \"#utility.yul\":15503:15673   */\n    tag_441:\n        /* \"#utility.yul\":15643:15665   */\n      0x4e6f7468696e6720746f2077697468647261772e000000000000000000000000\n        /* \"#utility.yul\":15639:15640   */\n      0x00\n        /* \"#utility.yul\":15631:15637   */\n      dup3\n        /* \"#utility.yul\":15627:15641   */\n      add\n        /* \"#utility.yul\":15620:15666   */\n      mstore\n        /* \"#utility.yul\":15503:15673   */\n      pop\n      jump\t// out\n        /* \"#utility.yul\":15679:16045   */\n    tag_442:\n        /* \"#utility.yul\":15821:15824   */\n      0x00\n        /* \"#utility.yul\":15842:15909   */\n      tag_612\n        /* \"#utility.yul\":15906:15908   */\n      0x14\n        /* \"#utility.yul\":15901:15904   */\n      dup4\n        /* \"#utility.yul\":15842:15909   */\n      tag_418\n      jump\t// in\n    tag_612:\n        /* \"#utility.yul\":15835:15909   */\n      swap2\n      pop\n        /* \"#utility.yul\":15918:16011   */\n      tag_613\n        /* \"#utility.yul\":16007:16010   */\n      dup3\n        /* \"#utility.yul\":15918:16011   */\n      tag_441\n      jump\t// in\n    tag_613:\n        /* \"#utility.yul\":16036:16038   */\n      0x20\n        /* \"#utility.yul\":16031:16034   */\n      dup3\n        /* \"#utility.yul\":16027:16039   */\n      add\n        /* \"#utility.yul\":16020:16039   */\n      swap1\n      pop\n        /* \"#utility.yul\":15679:16045   */\n      swap2\n      swap1\n      pop\n      jump\t// out\n        /* \"#utility.yul\":16051:16470   */\n    tag_195:\n        /* \"#utility.yul\":16217:16221   */\n      0x00\n        /* \"#utility.yul\":16255:16257   */\n      0x20\n        /* \"#utility.yul\":16244:16253   */\n      dup3\n        /* \"#utility.yul\":16240:16258   */\n      add\n        /* \"#utility.yul\":16232:16258   */\n      swap1\n      pop\n        /* \"#utility.yul\":16304:16313   */\n      dup2\n        /* \"#utility.yul\":16298:16302   */\n      dup2\n        /* \"#utility.yul\":16294:16314   */\n      sub\n        /* \"#utility.yul\":16290:16291   */\n      0x00\n        /* \"#utility.yul\":16279:16288   */\n      dup4\n        /* \"#utility.yul\":16275:16292   */\n      add\n        /* \"#utility.yul\":16268:16315   */\n      mstore\n        /* \"#utility.yul\":16332:16463   */\n      tag_615\n        /* \"#utility.yul\":16458:16462   */\n      dup2\n        /* \"#utility.yul\":16332:16463   */\n      tag_442\n      jump\t// in\n    tag_615:\n        /* \"#utility.yul\":16324:16463   */\n      swap1\n      pop\n        /* \"#utility.yul\":16051:16470   */\n      swap2\n      swap1\n      pop\n      jump\t// out\n        /* \"#utility.yul\":16476:16657   */\n    tag_443:\n        /* \"#utility.yul\":16616:16649   */\n      0x4e6f7420656e7567682062616c616e636520666f722077697468647261772100\n        /* \"#utility.yul\":16612:16613   */\n      0x00\n        /* \"#utility.yul\":16604:16610   */\n      dup3\n        /* \"#utility.yul\":16600:16614   */\n      add\n        /* \"#utility.yul\":16593:16650   */\n      mstore\n        /* \"#utility.yul\":16476:16657   */\n      pop\n      jump\t// out\n        /* \"#utility.yul\":16663:17029   */\n    tag_444:\n        /* \"#utility.yul\":16805:16808   */\n      0x00\n        /* \"#utility.yul\":16826:16893   */\n      tag_618\n        /* \"#utility.yul\":16890:16892   */\n      0x1f\n        /* \"#utility.yul\":16885:16888   */\n      dup4\n        /* \"#utility.yul\":16826:16893   */\n      tag_418\n      jump\t// in\n    tag_618:\n        /* \"#utility.yul\":16819:16893   */\n      swap2\n      pop\n        /* \"#utility.yul\":16902:16995   */\n      tag_619\n        /* \"#utility.yul\":16991:16994   */\n      dup3\n        /* \"#utility.yul\":16902:16995   */\n      tag_443\n      jump\t// in\n    tag_619:\n        /* \"#utility.yul\":17020:17022   */\n      0x20\n        /* \"#utility.yul\":17015:17018   */\n      dup3\n        /* \"#utility.yul\":17011:17023   */\n      add\n        /* \"#utility.yul\":17004:17023   */\n      swap1\n      pop\n        /* \"#utility.yul\":16663:17029   */\n      swap2\n      swap1\n      pop\n      jump\t// out\n        /* \"#utility.yul\":17035:17454   */\n    tag_199:\n        /* \"#utility.yul\":17201:17205   */\n      0x00\n        /* \"#utility.yul\":17239:17241   */\n      0x20\n        /* \"#utility.yul\":17228:17237   */\n      dup3\n        /* \"#utility.yul\":17224:17242   */\n      add\n        /* \"#utility.yul\":17216:17242   */\n      swap1\n      pop\n        /* \"#utility.yul\":17288:17297   */\n      dup2\n        /* \"#utility.yul\":17282:17286   */\n      dup2\n        /* \"#utility.yul\":17278:17298   */\n      sub\n        /* \"#utility.yul\":17274:17275   */\n      0x00\n        /* \"#utility.yul\":17263:17272   */\n      dup4\n        /* \"#utility.yul\":17259:17276   */\n      add\n        /* \"#utility.yul\":17252:17299   */\n      mstore\n        /* \"#utility.yul\":17316:17447   */\n      tag_621\n        /* \"#utility.yul\":17442:17446   */\n      dup2\n        /* \"#utility.yul\":17316:17447   */\n      tag_444\n      jump\t// in\n    tag_621:\n        /* \"#utility.yul\":17308:17447   */\n      swap1\n      pop\n        /* \"#utility.yul\":17035:17454   */\n      swap2\n      swap1\n      pop\n      jump\t// out\n        /* \"#utility.yul\":17460:17629   */\n    tag_445:\n        /* \"#utility.yul\":17600:17621   */\n      0x4e6f7420656e6f7567682062616c616e63652100000000000000000000000000\n        /* \"#utility.yul\":17596:17597   */\n      0x00\n        /* \"#utility.yul\":17588:17594   */\n      dup3\n        /* \"#utility.yul\":17584:17598   */\n      add\n        /* \"#utility.yul\":17577:17622   */\n      mstore\n        /* \"#utility.yul\":17460:17629   */\n      pop\n      jump\t// out\n        /* \"#utility.yul\":17635:18001   */\n    tag_446:\n        /* \"#utility.yul\":17777:17780   */\n      0x00\n        /* \"#utility.yul\":17798:17865   */\n      tag_624\n        /* \"#utility.yul\":17862:17864   */\n      0x13\n        /* \"#utility.yul\":17857:17860   */\n      dup4\n        /* \"#utility.yul\":17798:17865   */\n      tag_418\n      jump\t// in\n    tag_624:\n        /* \"#utility.yul\":17791:17865   */\n      swap2\n      pop\n        /* \"#utility.yul\":17874:17967   */\n      tag_625\n        /* \"#utility.yul\":17963:17966   */\n      dup3\n        /* \"#utility.yul\":17874:17967   */\n      tag_445\n      jump\t// in\n    tag_625:\n        /* \"#utility.yul\":17992:17994   */\n      0x20\n        /* \"#utility.yul\":17987:17990   */\n      dup3\n        /* \"#utility.yul\":17983:17995   */\n      add\n        /* \"#utility.yul\":17976:17995   */\n      swap1\n      pop\n        /* \"#utility.yul\":17635:18001   */\n      swap2\n      swap1\n      pop\n      jump\t// out\n        /* \"#utility.yul\":18007:18426   */\n    tag_217:\n        /* \"#utility.yul\":18173:18177   */\n      0x00\n        /* \"#utility.yul\":18211:18213   */\n      0x20\n        /* \"#utility.yul\":18200:18209   */\n      dup3\n        /* \"#utility.yul\":18196:18214   */\n      add\n        /* \"#utility.yul\":18188:18214   */\n      swap1\n      pop\n        /* \"#utility.yul\":18260:18269   */\n      dup2\n        /* \"#utility.yul\":18254:18258   */\n      dup2\n        /* \"#utility.yul\":18250:18270   */\n      sub\n        /* \"#utility.yul\":18246:18247   */\n      0x00\n        /* \"#utility.yul\":18235:18244   */\n      dup4\n        /* \"#utility.yul\":18231:18248   */\n      add\n        /* \"#utility.yul\":18224:18271   */\n      mstore\n        /* \"#utility.yul\":18288:18419   */\n      tag_627\n        /* \"#utility.yul\":18414:18418   */\n      dup2\n        /* \"#utility.yul\":18288:18419   */\n      tag_446\n      jump\t// in\n    tag_627:\n        /* \"#utility.yul\":18280:18419   */\n      swap1\n      pop\n        /* \"#utility.yul\":18007:18426   */\n      swap2\n      swap1\n      pop\n      jump\t// out\n        /* \"#utility.yul\":18432:18764   */\n    tag_219:\n        /* \"#utility.yul\":18553:18557   */\n      0x00\n        /* \"#utility.yul\":18591:18593   */\n      0x40\n        /* \"#utility.yul\":18580:18589   */\n      dup3\n        /* \"#utility.yul\":18576:18594   */\n      add\n        /* \"#utility.yul\":18568:18594   */\n      swap1\n      pop\n        /* \"#utility.yul\":18604:18675   */\n      tag_629\n        /* \"#utility.yul\":18672:18673   */\n      0x00\n        /* \"#utility.yul\":18661:18670   */\n      dup4\n        /* \"#utility.yul\":18657:18674   */\n      add\n        /* \"#utility.yul\":18648:18654   */\n      dup6\n        /* \"#utility.yul\":18604:18675   */\n      tag_405\n      jump\t// in\n    tag_629:\n        /* \"#utility.yul\":18685:18757   */\n      tag_630\n        /* \"#utility.yul\":18753:18755   */\n      0x20\n        /* \"#utility.yul\":18742:18751   */\n      dup4\n        /* \"#utility.yul\":18738:18756   */\n      add\n        /* \"#utility.yul\":18729:18735   */\n      dup5\n        /* \"#utility.yul\":18685:18757   */\n      tag_412\n      jump\t// in\n    tag_630:\n        /* \"#utility.yul\":18432:18764   */\n      swap4\n      swap3\n      pop\n      pop\n      pop\n      jump\t// out\n        /* \"#utility.yul\":18770:18886   */\n    tag_447:\n        /* \"#utility.yul\":18840:18861   */\n      tag_632\n        /* \"#utility.yul\":18855:18860   */\n      dup2\n        /* \"#utility.yul\":18840:18861   */\n      tag_415\n      jump\t// in\n    tag_632:\n        /* \"#utility.yul\":18833:18838   */\n      dup2\n        /* \"#utility.yul\":18830:18862   */\n      eq\n        /* \"#utility.yul\":18820:18880   */\n      tag_633\n      jumpi\n        /* \"#utility.yul\":18876:18877   */\n      0x00\n        /* \"#utility.yul\":18873:18874   */\n      dup1\n        /* \"#utility.yul\":18866:18878   */\n      revert\n        /* \"#utility.yul\":18820:18880   */\n    tag_633:\n        /* \"#utility.yul\":18770:18886   */\n      pop\n      jump\t// out\n        /* \"#utility.yul\":18892:19029   */\n    tag_448:\n        /* \"#utility.yul\":18946:18951   */\n      0x00\n        /* \"#utility.yul\":18977:18983   */\n      dup2\n        /* \"#utility.yul\":18971:18984   */\n      mload\n        /* \"#utility.yul\":18962:18984   */\n      swap1\n      pop\n        /* \"#utility.yul\":18993:19023   */\n      tag_635\n        /* \"#utility.yul\":19017:19022   */\n      dup2\n        /* \"#utility.yul\":18993:19023   */\n      tag_447\n      jump\t// in\n    tag_635:\n        /* \"#utility.yul\":18892:19029   */\n      swap3\n      swap2\n      pop\n      pop\n      jump\t// out\n        /* \"#utility.yul\":19035:19380   */\n    tag_223:\n        /* \"#utility.yul\":19102:19108   */\n      0x00\n        /* \"#utility.yul\":19151:19153   */\n      0x20\n        /* \"#utility.yul\":19139:19148   */\n      dup3\n        /* \"#utility.yul\":19130:19137   */\n      dup5\n        /* \"#utility.yul\":19126:19149   */\n      sub\n        /* \"#utility.yul\":19122:19154   */\n      slt\n        /* \"#utility.yul\":19119:19238   */\n      iszero\n      tag_637\n      jumpi\n        /* \"#utility.yul\":19157:19236   */\n      tag_638\n      tag_407\n      jump\t// in\n    tag_638:\n        /* \"#utility.yul\":19119:19238   */\n    tag_637:\n        /* \"#utility.yul\":19277:19278   */\n      0x00\n        /* \"#utility.yul\":19302:19363   */\n      tag_639\n        /* \"#utility.yul\":19355:19362   */\n      dup5\n        /* \"#utility.yul\":19346:19352   */\n      dup3\n        /* \"#utility.yul\":19335:19344   */\n      dup6\n        /* \"#utility.yul\":19331:19353   */\n      add\n        /* \"#utility.yul\":19302:19363   */\n      tag_448\n      jump\t// in\n    tag_639:\n        /* \"#utility.yul\":19292:19363   */\n      swap2\n      pop\n        /* \"#utility.yul\":19248:19373   */\n      pop\n        /* \"#utility.yul\":19035:19380   */\n      swap3\n      swap2\n      pop\n      pop\n      jump\t// out\n        /* \"#utility.yul\":19386:19529   */\n    tag_449:\n        /* \"#utility.yul\":19443:19448   */\n      0x00\n        /* \"#utility.yul\":19474:19480   */\n      dup2\n        /* \"#utility.yul\":19468:19481   */\n      mload\n        /* \"#utility.yul\":19459:19481   */\n      swap1\n      pop\n        /* \"#utility.yul\":19490:19523   */\n      tag_641\n        /* \"#utility.yul\":19517:19522   */\n      dup2\n        /* \"#utility.yul\":19490:19523   */\n      tag_413\n      jump\t// in\n    tag_641:\n        /* \"#utility.yul\":19386:19529   */\n      swap3\n      swap2\n      pop\n      pop\n      jump\t// out\n        /* \"#utility.yul\":19535:19886   */\n    tag_236:\n        /* \"#utility.yul\":19605:19611   */\n      0x00\n        /* \"#utility.yul\":19654:19656   */\n      0x20\n        /* \"#utility.yul\":19642:19651   */\n      dup3\n        /* \"#utility.yul\":19633:19640   */\n      dup5\n        /* \"#utility.yul\":19629:19652   */\n      sub\n        /* \"#utility.yul\":19625:19657   */\n      slt\n        /* \"#utility.yul\":19622:19741   */\n      iszero\n      tag_643\n      jumpi\n        /* \"#utility.yul\":19660:19739   */\n      tag_644\n      tag_407\n      jump\t// in\n    tag_644:\n        /* \"#utility.yul\":19622:19741   */\n    tag_643:\n        /* \"#utility.yul\":19780:19781   */\n      0x00\n        /* \"#utility.yul\":19805:19869   */\n      tag_645\n        /* \"#utility.yul\":19861:19868   */\n      dup5\n        /* \"#utility.yul\":19852:19858   */\n      dup3\n        /* \"#utility.yul\":19841:19850   */\n      dup6\n        /* \"#utility.yul\":19837:19859   */\n      add\n        /* \"#utility.yul\":19805:19869   */\n      tag_449\n      jump\t// in\n    tag_645:\n        /* \"#utility.yul\":19795:19869   */\n      swap2\n      pop\n        /* \"#utility.yul\":19751:19879   */\n      pop\n        /* \"#utility.yul\":19535:19886   */\n      swap3\n      swap2\n      pop\n      pop\n      jump\t// out\n        /* \"#utility.yul\":19892:20072   */\n    tag_450:\n        /* \"#utility.yul\":20032:20064   */\n      0x52617465206d7573742062652067726561746572207468616e207a65726f0000\n        /* \"#utility.yul\":20028:20029   */\n      0x00\n        /* \"#utility.yul\":20020:20026   */\n      dup3\n        /* \"#utility.yul\":20016:20030   */\n      add\n        /* \"#utility.yul\":20009:20065   */\n      mstore\n        /* \"#utility.yul\":19892:20072   */\n      pop\n      jump\t// out\n        /* \"#utility.yul\":20078:20444   */\n    tag_451:\n        /* \"#utility.yul\":20220:20223   */\n      0x00\n        /* \"#utility.yul\":20241:20308   */\n      tag_648\n        /* \"#utility.yul\":20305:20307   */\n      0x1e\n        /* \"#utility.yul\":20300:20303   */\n      dup4\n        /* \"#utility.yul\":20241:20308   */\n      tag_418\n      jump\t// in\n    tag_648:\n        /* \"#utility.yul\":20234:20308   */\n      swap2\n      pop\n        /* \"#utility.yul\":20317:20410   */\n      tag_649\n        /* \"#utility.yul\":20406:20409   */\n      dup3\n        /* \"#utility.yul\":20317:20410   */\n      tag_450\n      jump\t// in\n    tag_649:\n        /* \"#utility.yul\":20435:20437   */\n      0x20\n        /* \"#utility.yul\":20430:20433   */\n      dup3\n        /* \"#utility.yul\":20426:20438   */\n      add\n        /* \"#utility.yul\":20419:20438   */\n      swap1\n      pop\n        /* \"#utility.yul\":20078:20444   */\n      swap2\n      swap1\n      pop\n      jump\t// out\n        /* \"#utility.yul\":20450:20869   */\n    tag_248:\n        /* \"#utility.yul\":20616:20620   */\n      0x00\n        /* \"#utility.yul\":20654:20656   */\n      0x20\n        /* \"#utility.yul\":20643:20652   */\n      dup3\n        /* \"#utility.yul\":20639:20657   */\n      add\n        /* \"#utility.yul\":20631:20657   */\n      swap1\n      pop\n        /* \"#utility.yul\":20703:20712   */\n      dup2\n        /* \"#utility.yul\":20697:20701   */\n      dup2\n        /* \"#utility.yul\":20693:20713   */\n      sub\n        /* \"#utility.yul\":20689:20690   */\n      0x00\n        /* \"#utility.yul\":20678:20687   */\n      dup4\n        /* \"#utility.yul\":20674:20691   */\n      add\n        /* \"#utility.yul\":20667:20714   */\n      mstore\n        /* \"#utility.yul\":20731:20862   */\n      tag_651\n        /* \"#utility.yul\":20857:20861   */\n      dup2\n        /* \"#utility.yul\":20731:20862   */\n      tag_451\n      jump\t// in\n    tag_651:\n        /* \"#utility.yul\":20723:20862   */\n      swap1\n      pop\n        /* \"#utility.yul\":20450:20869   */\n      swap2\n      swap1\n      pop\n      jump\t// out\n        /* \"#utility.yul\":20875:20977   */\n    tag_452:\n        /* \"#utility.yul\":20917:20925   */\n      0x00\n        /* \"#utility.yul\":20964:20969   */\n      dup2\n        /* \"#utility.yul\":20961:20962   */\n      0x01\n        /* \"#utility.yul\":20957:20970   */\n      shr\n        /* \"#utility.yul\":20936:20970   */\n      swap1\n      pop\n        /* \"#utility.yul\":20875:20977   */\n      swap2\n      swap1\n      pop\n      jump\t// out\n        /* \"#utility.yul\":20983:21831   */\n    tag_453:\n        /* \"#utility.yul\":21044:21049   */\n      0x00\n        /* \"#utility.yul\":21051:21055   */\n      dup1\n        /* \"#utility.yul\":21075:21081   */\n      dup3\n        /* \"#utility.yul\":21066:21081   */\n      swap2\n      pop\n        /* \"#utility.yul\":21099:21104   */\n      dup4\n        /* \"#utility.yul\":21090:21104   */\n      swap1\n      pop\n        /* \"#utility.yul\":21113:21825   */\n    tag_654:\n        /* \"#utility.yul\":21134:21135   */\n      0x01\n        /* \"#utility.yul\":21124:21132   */\n      dup6\n        /* \"#utility.yul\":21121:21136   */\n      gt\n        /* \"#utility.yul\":21113:21825   */\n      iszero\n      tag_656\n      jumpi\n        /* \"#utility.yul\":21229:21233   */\n      dup1\n        /* \"#utility.yul\":21224:21227   */\n      dup7\n        /* \"#utility.yul\":21220:21234   */\n      div\n        /* \"#utility.yul\":21214:21218   */\n      dup2\n        /* \"#utility.yul\":21211:21235   */\n      gt\n        /* \"#utility.yul\":21208:21258   */\n      iszero\n      tag_657\n      jumpi\n        /* \"#utility.yul\":21238:21256   */\n      tag_658\n      tag_432\n      jump\t// in\n    tag_658:\n        /* \"#utility.yul\":21208:21258   */\n    tag_657:\n        /* \"#utility.yul\":21288:21289   */\n      0x01\n        /* \"#utility.yul\":21278:21286   */\n      dup6\n        /* \"#utility.yul\":21274:21290   */\n      and\n        /* \"#utility.yul\":21271:21722   */\n      iszero\n      tag_659\n      jumpi\n        /* \"#utility.yul\":21703:21707   */\n      dup1\n        /* \"#utility.yul\":21696:21701   */\n      dup3\n        /* \"#utility.yul\":21692:21708   */\n      mul\n        /* \"#utility.yul\":21683:21708   */\n      swap2\n      pop\n        /* \"#utility.yul\":21271:21722   */\n    tag_659:\n        /* \"#utility.yul\":21753:21757   */\n      dup1\n        /* \"#utility.yul\":21747:21751   */\n      dup2\n        /* \"#utility.yul\":21743:21758   */\n      mul\n        /* \"#utility.yul\":21735:21758   */\n      swap1\n      pop\n        /* \"#utility.yul\":21783:21815   */\n      tag_660\n        /* \"#utility.yul\":21806:21814   */\n      dup6\n        /* \"#utility.yul\":21783:21815   */\n      tag_452\n      jump\t// in\n    tag_660:\n        /* \"#utility.yul\":21771:21815   */\n      swap5\n      pop\n        /* \"#utility.yul\":21113:21825   */\n      jump(tag_654)\n    tag_656:\n        /* \"#utility.yul\":20983:21831   */\n      swap5\n      pop\n      swap5\n      swap3\n      pop\n      pop\n      pop\n      jump\t// out\n        /* \"#utility.yul\":21837:22910   */\n    tag_454:\n        /* \"#utility.yul\":21891:21896   */\n      0x00\n        /* \"#utility.yul\":22082:22090   */\n      dup3\n        /* \"#utility.yul\":22072:22112   */\n      tag_662\n      jumpi\n        /* \"#utility.yul\":22103:22104   */\n      0x01\n        /* \"#utility.yul\":22094:22104   */\n      swap1\n      pop\n        /* \"#utility.yul\":22105:22110   */\n      jump(tag_661)\n        /* \"#utility.yul\":22072:22112   */\n    tag_662:\n        /* \"#utility.yul\":22131:22135   */\n      dup2\n        /* \"#utility.yul\":22121:22157   */\n      tag_663\n      jumpi\n        /* \"#utility.yul\":22148:22149   */\n      0x00\n        /* \"#utility.yul\":22139:22149   */\n      swap1\n      pop\n        /* \"#utility.yul\":22150:22155   */\n      jump(tag_661)\n        /* \"#utility.yul\":22121:22157   */\n    tag_663:\n        /* \"#utility.yul\":22217:22221   */\n      dup2\n        /* \"#utility.yul\":22265:22266   */\n      0x01\n        /* \"#utility.yul\":22260:22287   */\n      dup2\n      eq\n      tag_665\n      jumpi\n        /* \"#utility.yul\":22301:22302   */\n      0x02\n        /* \"#utility.yul\":22296:22487   */\n      dup2\n      eq\n      tag_666\n      jumpi\n        /* \"#utility.yul\":22210:22487   */\n      jump(tag_664)\n        /* \"#utility.yul\":22260:22287   */\n    tag_665:\n        /* \"#utility.yul\":22278:22279   */\n      0x01\n        /* \"#utility.yul\":22269:22279   */\n      swap2\n      pop\n        /* \"#utility.yul\":22280:22285   */\n      pop\n      jump(tag_661)\n        /* \"#utility.yul\":22296:22487   */\n    tag_666:\n        /* \"#utility.yul\":22341:22344   */\n      0xff\n        /* \"#utility.yul\":22331:22339   */\n      dup5\n        /* \"#utility.yul\":22328:22345   */\n      gt\n        /* \"#utility.yul\":22325:22368   */\n      iszero\n      tag_667\n      jumpi\n        /* \"#utility.yul\":22348:22366   */\n      tag_668\n      tag_432\n      jump\t// in\n    tag_668:\n        /* \"#utility.yul\":22325:22368   */\n    tag_667:\n        /* \"#utility.yul\":22397:22405   */\n      dup4\n        /* \"#utility.yul\":22394:22395   */\n      0x02\n        /* \"#utility.yul\":22390:22406   */\n      exp\n        /* \"#utility.yul\":22381:22406   */\n      swap2\n      pop\n        /* \"#utility.yul\":22432:22435   */\n      dup5\n        /* \"#utility.yul\":22425:22430   */\n      dup3\n        /* \"#utility.yul\":22422:22436   */\n      gt\n        /* \"#utility.yul\":22419:22459   */\n      iszero\n      tag_669\n      jumpi\n        /* \"#utility.yul\":22439:22457   */\n      tag_670\n      tag_432\n      jump\t// in\n    tag_670:\n        /* \"#utility.yul\":22419:22459   */\n    tag_669:\n        /* \"#utility.yul\":22472:22477   */\n      pop\n      jump(tag_661)\n        /* \"#utility.yul\":22210:22487   */\n    tag_664:\n      pop\n        /* \"#utility.yul\":22596:22598   */\n      0x20\n        /* \"#utility.yul\":22586:22594   */\n      dup4\n        /* \"#utility.yul\":22583:22599   */\n      lt\n        /* \"#utility.yul\":22577:22580   */\n      0x0133\n        /* \"#utility.yul\":22571:22575   */\n      dup4\n        /* \"#utility.yul\":22568:22581   */\n      lt\n        /* \"#utility.yul\":22564:22600   */\n      and\n        /* \"#utility.yul\":22546:22548   */\n      0x4e\n        /* \"#utility.yul\":22536:22544   */\n      dup5\n        /* \"#utility.yul\":22533:22549   */\n      lt\n        /* \"#utility.yul\":22528:22530   */\n      0x0b\n        /* \"#utility.yul\":22522:22526   */\n      dup5\n        /* \"#utility.yul\":22519:22531   */\n      lt\n        /* \"#utility.yul\":22515:22550   */\n      and\n        /* \"#utility.yul\":22499:22610   */\n      or\n        /* \"#utility.yul\":22496:22742   */\n      iszero\n      tag_671\n      jumpi\n        /* \"#utility.yul\":22652:22660   */\n      dup3\n        /* \"#utility.yul\":22646:22650   */\n      dup3\n        /* \"#utility.yul\":22642:22661   */\n      exp\n        /* \"#utility.yul\":22633:22661   */\n      swap1\n      pop\n        /* \"#utility.yul\":22687:22690   */\n      dup4\n        /* \"#utility.yul\":22680:22685   */\n      dup2\n        /* \"#utility.yul\":22677:22691   */\n      gt\n        /* \"#utility.yul\":22674:22714   */\n      iszero\n      tag_672\n      jumpi\n        /* \"#utility.yul\":22694:22712   */\n      tag_673\n      tag_432\n      jump\t// in\n    tag_673:\n        /* \"#utility.yul\":22674:22714   */\n    tag_672:\n        /* \"#utility.yul\":22727:22732   */\n      jump(tag_661)\n        /* \"#utility.yul\":22496:22742   */\n    tag_671:\n        /* \"#utility.yul\":22767:22809   */\n      tag_674\n        /* \"#utility.yul\":22805:22808   */\n      dup5\n        /* \"#utility.yul\":22795:22803   */\n      dup5\n        /* \"#utility.yul\":22789:22793   */\n      dup5\n        /* \"#utility.yul\":22786:22787   */\n      0x01\n        /* \"#utility.yul\":22767:22809   */\n      tag_453\n      jump\t// in\n    tag_674:\n        /* \"#utility.yul\":22752:22809   */\n      swap3\n      pop\n      swap1\n      pop\n        /* \"#utility.yul\":22841:22845   */\n      dup2\n        /* \"#utility.yul\":22836:22839   */\n      dup5\n        /* \"#utility.yul\":22832:22846   */\n      div\n        /* \"#utility.yul\":22825:22830   */\n      dup2\n        /* \"#utility.yul\":22822:22847   */\n      gt\n        /* \"#utility.yul\":22819:22870   */\n      iszero\n      tag_675\n      jumpi\n        /* \"#utility.yul\":22850:22868   */\n      tag_676\n      tag_432\n      jump\t// in\n    tag_676:\n        /* \"#utility.yul\":22819:22870   */\n    tag_675:\n        /* \"#utility.yul\":22899:22903   */\n      dup2\n        /* \"#utility.yul\":22892:22897   */\n      dup2\n        /* \"#utility.yul\":22888:22904   */\n      mul\n        /* \"#utility.yul\":22879:22904   */\n      swap1\n      pop\n        /* \"#utility.yul\":21837:22910   */\n    tag_661:\n      swap4\n      swap3\n      pop\n      pop\n      pop\n      jump\t// out\n        /* \"#utility.yul\":22916:23201   */\n    tag_250:\n        /* \"#utility.yul\":22976:22981   */\n      0x00\n        /* \"#utility.yul\":23000:23023   */\n      tag_678\n        /* \"#utility.yul\":23018:23022   */\n      dup3\n        /* \"#utility.yul\":23000:23023   */\n      tag_411\n      jump\t// in\n    tag_678:\n        /* \"#utility.yul\":22992:23023   */\n      swap2\n      pop\n        /* \"#utility.yul\":23044:23071   */\n      tag_679\n        /* \"#utility.yul\":23062:23070   */\n      dup4\n        /* \"#utility.yul\":23044:23071   */\n      tag_411\n      jump\t// in\n    tag_679:\n        /* \"#utility.yul\":23032:23071   */\n      swap3\n      pop\n        /* \"#utility.yul\":23090:23194   */\n      tag_680\n        /* \"#utility.yul\":23127:23193   */\n      0xffffffffffffffffffffffffffffffffffffffffffffffffffffffffffffffff\n        /* \"#utility.yul\":23117:23125   */\n      dup5\n        /* \"#utility.yul\":23111:23115   */\n      dup5\n        /* \"#utility.yul\":23090:23194   */\n      tag_454\n      jump\t// in\n    tag_680:\n        /* \"#utility.yul\":23081:23194   */\n      swap1\n      pop\n        /* \"#utility.yul\":22916:23201   */\n      swap3\n      swap2\n      pop\n      pop\n      jump\t// out\n        /* \"#utility.yul\":23207:23617   */\n    tag_252:\n        /* \"#utility.yul\":23247:23254   */\n      0x00\n        /* \"#utility.yul\":23270:23290   */\n      tag_682\n        /* \"#utility.yul\":23288:23289   */\n      dup3\n        /* \"#utility.yul\":23270:23290   */\n      tag_411\n      jump\t// in\n    tag_682:\n        /* \"#utility.yul\":23265:23290   */\n      swap2\n      pop\n        /* \"#utility.yul\":23304:23324   */\n      tag_683\n        /* \"#utility.yul\":23322:23323   */\n      dup4\n        /* \"#utility.yul\":23304:23324   */\n      tag_411\n      jump\t// in\n    tag_683:\n        /* \"#utility.yul\":23299:23324   */\n      swap3\n      pop\n        /* \"#utility.yul\":23359:23360   */\n      dup3\n        /* \"#utility.yul\":23356:23357   */\n      dup3\n        /* \"#utility.yul\":23352:23361   */\n      mul\n        /* \"#utility.yul\":23381:23411   */\n      tag_684\n        /* \"#utility.yul\":23399:23410   */\n      dup2\n        /* \"#utility.yul\":23381:23411   */\n      tag_411\n      jump\t// in\n    tag_684:\n        /* \"#utility.yul\":23370:23411   */\n      swap2\n      pop\n        /* \"#utility.yul\":23560:23561   */\n      dup3\n        /* \"#utility.yul\":23551:23558   */\n      dup3\n        /* \"#utility.yul\":23547:23562   */\n      div\n        /* \"#utility.yul\":23544:23545   */\n      dup5\n        /* \"#utility.yul\":23541:23563   */\n      eq\n        /* \"#utility.yul\":23521:23522   */\n      dup4\n        /* \"#utility.yul\":23514:23523   */\n      iszero\n        /* \"#utility.yul\":23494:23577   */\n      or\n        /* \"#utility.yul\":23471:23610   */\n      tag_685\n      jumpi\n        /* \"#utility.yul\":23590:23608   */\n      tag_686\n      tag_432\n      jump\t// in\n    tag_686:\n        /* \"#utility.yul\":23471:23610   */\n    tag_685:\n        /* \"#utility.yul\":23255:23617   */\n      pop\n        /* \"#utility.yul\":23207:23617   */\n      swap3\n      swap2\n      pop\n      pop\n      jump\t// out\n        /* \"#utility.yul\":23623:23803   */\n    tag_455:\n        /* \"#utility.yul\":23671:23748   */\n      0x4e487b7100000000000000000000000000000000000000000000000000000000\n        /* \"#utility.yul\":23668:23669   */\n      0x00\n        /* \"#utility.yul\":23661:23749   */\n      mstore\n        /* \"#utility.yul\":23768:23772   */\n      0x12\n        /* \"#utility.yul\":23765:23766   */\n      0x04\n        /* \"#utility.yul\":23758:23773   */\n      mstore\n        /* \"#utility.yul\":23792:23796   */\n      0x24\n        /* \"#utility.yul\":23789:23790   */\n      0x00\n        /* \"#utility.yul\":23782:23797   */\n      revert\n        /* \"#utility.yul\":23809:23994   */\n    tag_254:\n        /* \"#utility.yul\":23849:23850   */\n      0x00\n        /* \"#utility.yul\":23866:23886   */\n      tag_689\n        /* \"#utility.yul\":23884:23885   */\n      dup3\n        /* \"#utility.yul\":23866:23886   */\n      tag_411\n      jump\t// in\n    tag_689:\n        /* \"#utility.yul\":23861:23886   */\n      swap2\n      pop\n        /* \"#utility.yul\":23900:23920   */\n      tag_690\n        /* \"#utility.yul\":23918:23919   */\n      dup4\n        /* \"#utility.yul\":23900:23920   */\n      tag_411\n      jump\t// in\n    tag_690:\n        /* \"#utility.yul\":23895:23920   */\n      swap3\n      pop\n        /* \"#utility.yul\":23939:23940   */\n      dup3\n        /* \"#utility.yul\":23929:23964   */\n      tag_691\n      jumpi\n        /* \"#utility.yul\":23944:23962   */\n      tag_692\n      tag_455\n      jump\t// in\n    tag_692:\n        /* \"#utility.yul\":23929:23964   */\n    tag_691:\n        /* \"#utility.yul\":23986:23987   */\n      dup3\n        /* \"#utility.yul\":23983:23984   */\n      dup3\n        /* \"#utility.yul\":23979:23988   */\n      div\n        /* \"#utility.yul\":23974:23988   */\n      swap1\n      pop\n        /* \"#utility.yul\":23809:23994   */\n      swap3\n      swap2\n      pop\n      pop\n      jump\t// out\n        /* \"#utility.yul\":24000:24168   */\n    tag_456:\n        /* \"#utility.yul\":24140:24160   */\n      0x4e6f2063686172676520616d6d6f756e74210000000000000000000000000000\n        /* \"#utility.yul\":24136:24137   */\n      0x00\n        /* \"#utility.yul\":24128:24134   */\n      dup3\n        /* \"#utility.yul\":24124:24138   */\n      add\n        /* \"#utility.yul\":24117:24161   */\n      mstore\n        /* \"#utility.yul\":24000:24168   */\n      pop\n      jump\t// out\n        /* \"#utility.yul\":24174:24540   */\n    tag_457:\n        /* \"#utility.yul\":24316:24319   */\n      0x00\n        /* \"#utility.yul\":24337:24404   */\n      tag_695\n        /* \"#utility.yul\":24401:24403   */\n      0x12\n        /* \"#utility.yul\":24396:24399   */\n      dup4\n        /* \"#utility.yul\":24337:24404   */\n      tag_418\n      jump\t// in\n    tag_695:\n        /* \"#utility.yul\":24330:24404   */\n      swap2\n      pop\n        /* \"#utility.yul\":24413:24506   */\n      tag_696\n        /* \"#utility.yul\":24502:24505   */\n      dup3\n        /* \"#utility.yul\":24413:24506   */\n      tag_456\n      jump\t// in\n    tag_696:\n        /* \"#utility.yul\":24531:24533   */\n      0x20\n        /* \"#utility.yul\":24526:24529   */\n      dup3\n        /* \"#utility.yul\":24522:24534   */\n      add\n        /* \"#utility.yul\":24515:24534   */\n      swap1\n      pop\n        /* \"#utility.yul\":24174:24540   */\n      swap2\n      swap1\n      pop\n      jump\t// out\n        /* \"#utility.yul\":24546:24965   */\n    tag_319:\n        /* \"#utility.yul\":24712:24716   */\n      0x00\n        /* \"#utility.yul\":24750:24752   */\n      0x20\n        /* \"#utility.yul\":24739:24748   */\n      dup3\n        /* \"#utility.yul\":24735:24753   */\n      add\n        /* \"#utility.yul\":24727:24753   */\n      swap1\n      pop\n        /* \"#utility.yul\":24799:24808   */\n      dup2\n        /* \"#utility.yul\":24793:24797   */\n      dup2\n        /* \"#utility.yul\":24789:24809   */\n      sub\n        /* \"#utility.yul\":24785:24786   */\n      0x00\n        /* \"#utility.yul\":24774:24783   */\n      dup4\n        /* \"#utility.yul\":24770:24787   */\n      add\n        /* \"#utility.yul\":24763:24810   */\n      mstore\n        /* \"#utility.yul\":24827:24958   */\n      tag_698\n        /* \"#utility.yul\":24953:24957   */\n      dup2\n        /* \"#utility.yul\":24827:24958   */\n      tag_457\n      jump\t// in\n    tag_698:\n        /* \"#utility.yul\":24819:24958   */\n      swap1\n      pop\n        /* \"#utility.yul\":24546:24965   */\n      swap2\n      swap1\n      pop\n      jump\t// out\n        /* \"#utility.yul\":24971:25303   */\n    tag_321:\n        /* \"#utility.yul\":25092:25096   */\n      0x00\n        /* \"#utility.yul\":25130:25132   */\n      0x40\n        /* \"#utility.yul\":25119:25128   */\n      dup3\n        /* \"#utility.yul\":25115:25133   */\n      add\n        /* \"#utility.yul\":25107:25133   */\n      swap1\n      pop\n        /* \"#utility.yul\":25143:25214   */\n      tag_700\n        /* \"#utility.yul\":25211:25212   */\n      0x00\n        /* \"#utility.yul\":25200:25209   */\n      dup4\n        /* \"#utility.yul\":25196:25213   */\n      add\n        /* \"#utility.yul\":25187:25193   */\n      dup6\n        /* \"#utility.yul\":25143:25214   */\n      tag_405\n      jump\t// in\n    tag_700:\n        /* \"#utility.yul\":25224:25296   */\n      tag_701\n        /* \"#utility.yul\":25292:25294   */\n      0x20\n        /* \"#utility.yul\":25281:25290   */\n      dup4\n        /* \"#utility.yul\":25277:25295   */\n      add\n        /* \"#utility.yul\":25268:25274   */\n      dup5\n        /* \"#utility.yul\":25224:25296   */\n      tag_405\n      jump\t// in\n    tag_701:\n        /* \"#utility.yul\":24971:25303   */\n      swap4\n      swap3\n      pop\n      pop\n      pop\n      jump\t// out\n        /* \"#utility.yul\":25309:25497   */\n    tag_458:\n        /* \"#utility.yul\":25478:25490   */\n      0x436865636b207468652000000000000000000000000000000000000000000000\n        /* \"#utility.yul\":25473:25476   */\n      dup2\n        /* \"#utility.yul\":25466:25491   */\n      mstore\n        /* \"#utility.yul\":25309:25497   */\n      pop\n      jump\t// out\n        /* \"#utility.yul\":25503:25687   */\n    tag_459:\n        /* \"#utility.yul\":25671:25680   */\n      0x20746f6b656e2000000000000000000000000000000000000000000000000000\n        /* \"#utility.yul\":25666:25669   */\n      dup2\n        /* \"#utility.yul\":25659:25681   */\n      mstore\n        /* \"#utility.yul\":25503:25687   */\n      pop\n      jump\t// out\n        /* \"#utility.yul\":25693:25881   */\n    tag_460:\n        /* \"#utility.yul\":25862:25874   */\n      0x616c6c6f77616e63652e00000000000000000000000000000000000000000000\n        /* \"#utility.yul\":25857:25860   */\n      dup2\n        /* \"#utility.yul\":25850:25875   */\n      mstore\n        /* \"#utility.yul\":25693:25881   */\n      pop\n      jump\t// out\n        /* \"#utility.yul\":25887:26954   */\n    tag_326:\n        /* \"#utility.yul\":26288:26291   */\n      0x00\n        /* \"#utility.yul\":26303:26441   */\n      tag_706\n        /* \"#utility.yul\":26437:26440   */\n      dup3\n        /* \"#utility.yul\":26303:26441   */\n      tag_458\n      jump\t// in\n    tag_706:\n        /* \"#utility.yul\":26466:26468   */\n      0x0a\n        /* \"#utility.yul\":26461:26464   */\n      dup3\n        /* \"#utility.yul\":26457:26469   */\n      add\n        /* \"#utility.yul\":26450:26469   */\n      swap2\n      pop\n        /* \"#utility.yul\":26486:26578   */\n      tag_707\n        /* \"#utility.yul\":26574:26577   */\n      dup3\n        /* \"#utility.yul\":26565:26571   */\n      dup5\n        /* \"#utility.yul\":26486:26578   */\n      tag_438\n      jump\t// in\n    tag_707:\n        /* \"#utility.yul\":26479:26578   */\n      swap2\n      pop\n        /* \"#utility.yul\":26588:26725   */\n      tag_708\n        /* \"#utility.yul\":26721:26724   */\n      dup3\n        /* \"#utility.yul\":26588:26725   */\n      tag_459\n      jump\t// in\n    tag_708:\n        /* \"#utility.yul\":26750:26751   */\n      0x07\n        /* \"#utility.yul\":26745:26748   */\n      dup3\n        /* \"#utility.yul\":26741:26752   */\n      add\n        /* \"#utility.yul\":26734:26752   */\n      swap2\n      pop\n        /* \"#utility.yul\":26762:26900   */\n      tag_709\n        /* \"#utility.yul\":26896:26899   */\n      dup3\n        /* \"#utility.yul\":26762:26900   */\n      tag_460\n      jump\t// in\n    tag_709:\n        /* \"#utility.yul\":26925:26927   */\n      0x0a\n        /* \"#utility.yul\":26920:26923   */\n      dup3\n        /* \"#utility.yul\":26916:26928   */\n      add\n        /* \"#utility.yul\":26909:26928   */\n      swap2\n      pop\n        /* \"#utility.yul\":26945:26948   */\n      dup2\n        /* \"#utility.yul\":26938:26948   */\n      swap1\n      pop\n        /* \"#utility.yul\":25887:26954   */\n      swap3\n      swap2\n      pop\n      pop\n      jump\t// out\n        /* \"#utility.yul\":26960:27402   */\n    tag_330:\n        /* \"#utility.yul\":27109:27113   */\n      0x00\n        /* \"#utility.yul\":27147:27149   */\n      0x60\n        /* \"#utility.yul\":27136:27145   */\n      dup3\n        /* \"#utility.yul\":27132:27150   */\n      add\n        /* \"#utility.yul\":27124:27150   */\n      swap1\n      pop\n        /* \"#utility.yul\":27160:27231   */\n      tag_711\n        /* \"#utility.yul\":27228:27229   */\n      0x00\n        /* \"#utility.yul\":27217:27226   */\n      dup4\n        /* \"#utility.yul\":27213:27230   */\n      add\n        /* \"#utility.yul\":27204:27210   */\n      dup7\n        /* \"#utility.yul\":27160:27231   */\n      tag_405\n      jump\t// in\n    tag_711:\n        /* \"#utility.yul\":27241:27313   */\n      tag_712\n        /* \"#utility.yul\":27309:27311   */\n      0x20\n        /* \"#utility.yul\":27298:27307   */\n      dup4\n        /* \"#utility.yul\":27294:27312   */\n      add\n        /* \"#utility.yul\":27285:27291   */\n      dup6\n        /* \"#utility.yul\":27241:27313   */\n      tag_405\n      jump\t// in\n    tag_712:\n        /* \"#utility.yul\":27323:27395   */\n      tag_713\n        /* \"#utility.yul\":27391:27393   */\n      0x40\n        /* \"#utility.yul\":27380:27389   */\n      dup4\n        /* \"#utility.yul\":27376:27394   */\n      add\n        /* \"#utility.yul\":27367:27373   */\n      dup5\n        /* \"#utility.yul\":27323:27395   */\n      tag_412\n      jump\t// in\n    tag_713:\n        /* \"#utility.yul\":26960:27402   */\n      swap5\n      swap4\n      pop\n      pop\n      pop\n      pop\n      jump\t// out\n        /* \"#utility.yul\":27408:28052   */\n    tag_343:\n        /* \"#utility.yul\":27605:27609   */\n      0x00\n        /* \"#utility.yul\":27643:27646   */\n      0x80\n        /* \"#utility.yul\":27632:27641   */\n      dup3\n        /* \"#utility.yul\":27628:27647   */\n      add\n        /* \"#utility.yul\":27620:27647   */\n      swap1\n      pop\n        /* \"#utility.yul\":27657:27728   */\n      tag_715\n        /* \"#utility.yul\":27725:27726   */\n      0x00\n        /* \"#utility.yul\":27714:27723   */\n      dup4\n        /* \"#utility.yul\":27710:27727   */\n      add\n        /* \"#utility.yul\":27701:27707   */\n      dup8\n        /* \"#utility.yul\":27657:27728   */\n      tag_412\n      jump\t// in\n    tag_715:\n        /* \"#utility.yul\":27738:27810   */\n      tag_716\n        /* \"#utility.yul\":27806:27808   */\n      0x20\n        /* \"#utility.yul\":27795:27804   */\n      dup4\n        /* \"#utility.yul\":27791:27809   */\n      add\n        /* \"#utility.yul\":27782:27788   */\n      dup7\n        /* \"#utility.yul\":27738:27810   */\n      tag_412\n      jump\t// in\n    tag_716:\n        /* \"#utility.yul\":27820:27892   */\n      tag_717\n        /* \"#utility.yul\":27888:27890   */\n      0x40\n        /* \"#utility.yul\":27877:27886   */\n      dup4\n        /* \"#utility.yul\":27873:27891   */\n      add\n        /* \"#utility.yul\":27864:27870   */\n      dup6\n        /* \"#utility.yul\":27820:27892   */\n      tag_412\n      jump\t// in\n    tag_717:\n        /* \"#utility.yul\":27939:27948   */\n      dup2\n        /* \"#utility.yul\":27933:27937   */\n      dup2\n        /* \"#utility.yul\":27929:27949   */\n      sub\n        /* \"#utility.yul\":27924:27926   */\n      0x60\n        /* \"#utility.yul\":27913:27922   */\n      dup4\n        /* \"#utility.yul\":27909:27927   */\n      add\n        /* \"#utility.yul\":27902:27950   */\n      mstore\n        /* \"#utility.yul\":27967:28045   */\n      tag_718\n        /* \"#utility.yul\":28040:28044   */\n      dup2\n        /* \"#utility.yul\":28031:28037   */\n      dup5\n        /* \"#utility.yul\":27967:28045   */\n      tag_421\n      jump\t// in\n    tag_718:\n        /* \"#utility.yul\":27959:28045   */\n      swap1\n      pop\n        /* \"#utility.yul\":27408:28052   */\n      swap6\n      swap5\n      pop\n      pop\n      pop\n      pop\n      pop\n      jump\t// out\n        /* \"#utility.yul\":28058:28283   */\n    tag_461:\n        /* \"#utility.yul\":28198:28232   */\n      0x4f776e61626c653a206e6577206f776e657220697320746865207a65726f2061\n        /* \"#utility.yul\":28194:28195   */\n      0x00\n        /* \"#utility.yul\":28186:28192   */\n      dup3\n        /* \"#utility.yul\":28182:28196   */\n      add\n        /* \"#utility.yul\":28175:28233   */\n      mstore\n        /* \"#utility.yul\":28267:28275   */\n      0x6464726573730000000000000000000000000000000000000000000000000000\n        /* \"#utility.yul\":28262:28264   */\n      0x20\n        /* \"#utility.yul\":28254:28260   */\n      dup3\n        /* \"#utility.yul\":28250:28265   */\n      add\n        /* \"#utility.yul\":28243:28276   */\n      mstore\n        /* \"#utility.yul\":28058:28283   */\n      pop\n      jump\t// out\n        /* \"#utility.yul\":28289:28655   */\n    tag_462:\n        /* \"#utility.yul\":28431:28434   */\n      0x00\n        /* \"#utility.yul\":28452:28519   */\n      tag_721\n        /* \"#utility.yul\":28516:28518   */\n      0x26\n        /* \"#utility.yul\":28511:28514   */\n      dup4\n        /* \"#utility.yul\":28452:28519   */\n      tag_418\n      jump\t// in\n    tag_721:\n        /* \"#utility.yul\":28445:28519   */\n      swap2\n      pop\n        /* \"#utility.yul\":28528:28621   */\n      tag_722\n        /* \"#utility.yul\":28617:28620   */\n      dup3\n        /* \"#utility.yul\":28528:28621   */\n      tag_461\n      jump\t// in\n    tag_722:\n        /* \"#utility.yul\":28646:28648   */\n      0x40\n        /* \"#utility.yul\":28641:28644   */\n      dup3\n        /* \"#utility.yul\":28637:28649   */\n      add\n        /* \"#utility.yul\":28630:28649   */\n      swap1\n      pop\n        /* \"#utility.yul\":28289:28655   */\n      swap2\n      swap1\n      pop\n      jump\t// out\n        /* \"#utility.yul\":28661:29080   */\n    tag_349:\n        /* \"#utility.yul\":28827:28831   */\n      0x00\n        /* \"#utility.yul\":28865:28867   */\n      0x20\n        /* \"#utility.yul\":28854:28863   */\n      dup3\n        /* \"#utility.yul\":28850:28868   */\n      add\n        /* \"#utility.yul\":28842:28868   */\n      swap1\n      pop\n        /* \"#utility.yul\":28914:28923   */\n      dup2\n        /* \"#utility.yul\":28908:28912   */\n      dup2\n        /* \"#utility.yul\":28904:28924   */\n      sub\n        /* \"#utility.yul\":28900:28901   */\n      0x00\n        /* \"#utility.yul\":28889:28898   */\n      dup4\n        /* \"#utility.yul\":28885:28902   */\n      add\n        /* \"#utility.yul\":28878:28925   */\n      mstore\n        /* \"#utility.yul\":28942:29073   */\n      tag_724\n        /* \"#utility.yul\":29068:29072   */\n      dup2\n        /* \"#utility.yul\":28942:29073   */\n      tag_462\n      jump\t// in\n    tag_724:\n        /* \"#utility.yul\":28934:29073   */\n      swap1\n      pop\n        /* \"#utility.yul\":28661:29080   */\n      swap2\n      swap1\n      pop\n      jump\t// out\n        /* \"#utility.yul\":29086:29256   */\n    tag_463:\n        /* \"#utility.yul\":29226:29248   */\n      0x5061757361626c653a206e6f7420706175736564000000000000000000000000\n        /* \"#utility.yul\":29222:29223   */\n      0x00\n        /* \"#utility.yul\":29214:29220   */\n      dup3\n        /* \"#utility.yul\":29210:29224   */\n      add\n        /* \"#utility.yul\":29203:29249   */\n      mstore\n        /* \"#utility.yul\":29086:29256   */\n      pop\n      jump\t// out\n        /* \"#utility.yul\":29262:29628   */\n    tag_464:\n        /* \"#utility.yul\":29404:29407   */\n      0x00\n        /* \"#utility.yul\":29425:29492   */\n      tag_727\n        /* \"#utility.yul\":29489:29491   */\n      0x14\n        /* \"#utility.yul\":29484:29487   */\n      dup4\n        /* \"#utility.yul\":29425:29492   */\n      tag_418\n      jump\t// in\n    tag_727:\n        /* \"#utility.yul\":29418:29492   */\n      swap2\n      pop\n        /* \"#utility.yul\":29501:29594   */\n      tag_728\n        /* \"#utility.yul\":29590:29593   */\n      dup3\n        /* \"#utility.yul\":29501:29594   */\n      tag_463\n      jump\t// in\n    tag_728:\n        /* \"#utility.yul\":29619:29621   */\n      0x20\n        /* \"#utility.yul\":29614:29617   */\n      dup3\n        /* \"#utility.yul\":29610:29622   */\n      add\n        /* \"#utility.yul\":29603:29622   */\n      swap1\n      pop\n        /* \"#utility.yul\":29262:29628   */\n      swap2\n      swap1\n      pop\n      jump\t// out\n        /* \"#utility.yul\":29634:30053   */\n    tag_364:\n        /* \"#utility.yul\":29800:29804   */\n      0x00\n        /* \"#utility.yul\":29838:29840   */\n      0x20\n        /* \"#utility.yul\":29827:29836   */\n      dup3\n        /* \"#utility.yul\":29823:29841   */\n      add\n        /* \"#utility.yul\":29815:29841   */\n      swap1\n      pop\n        /* \"#utility.yul\":29887:29896   */\n      dup2\n        /* \"#utility.yul\":29881:29885   */\n      dup2\n        /* \"#utility.yul\":29877:29897   */\n      sub\n        /* \"#utility.yul\":29873:29874   */\n      0x00\n        /* \"#utility.yul\":29862:29871   */\n      dup4\n        /* \"#utility.yul\":29858:29875   */\n      add\n        /* \"#utility.yul\":29851:29898   */\n      mstore\n        /* \"#utility.yul\":29915:30046   */\n      tag_730\n        /* \"#utility.yul\":30041:30045   */\n      dup2\n        /* \"#utility.yul\":29915:30046   */\n      tag_464\n      jump\t// in\n    tag_730:\n        /* \"#utility.yul\":29907:30046   */\n      swap1\n      pop\n        /* \"#utility.yul\":29634:30053   */\n      swap2\n      swap1\n      pop\n      jump\t// out\n        /* \"#utility.yul\":30059:30241   */\n    tag_465:\n        /* \"#utility.yul\":30199:30233   */\n      0x4f776e61626c653a2063616c6c6572206973206e6f7420746865206f776e6572\n        /* \"#utility.yul\":30195:30196   */\n      0x00\n        /* \"#utility.yul\":30187:30193   */\n      dup3\n        /* \"#utility.yul\":30183:30197   */\n      add\n        /* \"#utility.yul\":30176:30234   */\n      mstore\n        /* \"#utility.yul\":30059:30241   */\n      pop\n      jump\t// out\n        /* \"#utility.yul\":30247:30613   */\n    tag_466:\n        /* \"#utility.yul\":30389:30392   */\n      0x00\n        /* \"#utility.yul\":30410:30477   */\n      tag_733\n        /* \"#utility.yul\":30474:30476   */\n      0x20\n        /* \"#utility.yul\":30469:30472   */\n      dup4\n        /* \"#utility.yul\":30410:30477   */\n      tag_418\n      jump\t// in\n    tag_733:\n        /* \"#utility.yul\":30403:30477   */\n      swap2\n      pop\n        /* \"#utility.yul\":30486:30579   */\n      tag_734\n        /* \"#utility.yul\":30575:30578   */\n      dup3\n        /* \"#utility.yul\":30486:30579   */\n      tag_465\n      jump\t// in\n    tag_734:\n        /* \"#utility.yul\":30604:30606   */\n      0x20\n        /* \"#utility.yul\":30599:30602   */\n      dup3\n        /* \"#utility.yul\":30595:30607   */\n      add\n        /* \"#utility.yul\":30588:30607   */\n      swap1\n      pop\n        /* \"#utility.yul\":30247:30613   */\n      swap2\n      swap1\n      pop\n      jump\t// out\n        /* \"#utility.yul\":30619:31038   */\n    tag_371:\n        /* \"#utility.yul\":30785:30789   */\n      0x00\n        /* \"#utility.yul\":30823:30825   */\n      0x20\n        /* \"#utility.yul\":30812:30821   */\n      dup3\n        /* \"#utility.yul\":30808:30826   */\n      add\n        /* \"#utility.yul\":30800:30826   */\n      swap1\n      pop\n        /* \"#utility.yul\":30872:30881   */\n      dup2\n        /* \"#utility.yul\":30866:30870   */\n      dup2\n        /* \"#utility.yul\":30862:30882   */\n      sub\n        /* \"#utility.yul\":30858:30859   */\n      0x00\n        /* \"#utility.yul\":30847:30856   */\n      dup4\n        /* \"#utility.yul\":30843:30860   */\n      add\n        /* \"#utility.yul\":30836:30883   */\n      mstore\n        /* \"#utility.yul\":30900:31031   */\n      tag_736\n        /* \"#utility.yul\":31026:31030   */\n      dup2\n        /* \"#utility.yul\":30900:31031   */\n      tag_466\n      jump\t// in\n    tag_736:\n        /* \"#utility.yul\":30892:31031   */\n      swap1\n      pop\n        /* \"#utility.yul\":30619:31038   */\n      swap2\n      swap1\n      pop\n      jump\t// out\n        /* \"#utility.yul\":31044:31210   */\n    tag_467:\n        /* \"#utility.yul\":31184:31202   */\n      0x5061757361626c653a2070617573656400000000000000000000000000000000\n        /* \"#utility.yul\":31180:31181   */\n      0x00\n        /* \"#utility.yul\":31172:31178   */\n      dup3\n        /* \"#utility.yul\":31168:31182   */\n      add\n        /* \"#utility.yul\":31161:31203   */\n      mstore\n        /* \"#utility.yul\":31044:31210   */\n      pop\n      jump\t// out\n        /* \"#utility.yul\":31216:31582   */\n    tag_468:\n        /* \"#utility.yul\":31358:31361   */\n      0x00\n        /* \"#utility.yul\":31379:31446   */\n      tag_739\n        /* \"#utility.yul\":31443:31445   */\n      0x10\n        /* \"#utility.yul\":31438:31441   */\n      dup4\n        /* \"#utility.yul\":31379:31446   */\n      tag_418\n      jump\t// in\n    tag_739:\n        /* \"#utility.yul\":31372:31446   */\n      swap2\n      pop\n        /* \"#utility.yul\":31455:31548   */\n      tag_740\n        /* \"#utility.yul\":31544:31547   */\n      dup3\n        /* \"#utility.yul\":31455:31548   */\n      tag_467\n      jump\t// in\n    tag_740:\n        /* \"#utility.yul\":31573:31575   */\n      0x20\n        /* \"#utility.yul\":31568:31571   */\n      dup3\n        /* \"#utility.yul\":31564:31576   */\n      add\n        /* \"#utility.yul\":31557:31576   */\n      swap1\n      pop\n        /* \"#utility.yul\":31216:31582   */\n      swap2\n      swap1\n      pop\n      jump\t// out\n        /* \"#utility.yul\":31588:32007   */\n    tag_381:\n        /* \"#utility.yul\":31754:31758   */\n      0x00\n        /* \"#utility.yul\":31792:31794   */\n      0x20\n        /* \"#utility.yul\":31781:31790   */\n      dup3\n        /* \"#utility.yul\":31777:31795   */\n      add\n        /* \"#utility.yul\":31769:31795   */\n      swap1\n      pop\n        /* \"#utility.yul\":31841:31850   */\n      dup2\n        /* \"#utility.yul\":31835:31839   */\n      dup2\n        /* \"#utility.yul\":31831:31851   */\n      sub\n        /* \"#utility.yul\":31827:31828   */\n      0x00\n        /* \"#utility.yul\":31816:31825   */\n      dup4\n        /* \"#utility.yul\":31812:31829   */\n      add\n        /* \"#utility.yul\":31805:31852   */\n      mstore\n        /* \"#utility.yul\":31869:32000   */\n      tag_742\n        /* \"#utility.yul\":31995:31999   */\n      dup2\n        /* \"#utility.yul\":31869:32000   */\n      tag_468\n      jump\t// in\n    tag_742:\n        /* \"#utility.yul\":31861:32000   */\n      swap1\n      pop\n        /* \"#utility.yul\":31588:32007   */\n      swap2\n      swap1\n      pop\n      jump\t// out\n        /* \"#utility.yul\":32013:32186   */\n    tag_469:\n        /* \"#utility.yul\":32153:32178   */\n      0x4e6f20746f6b656e7320746f206265206275726e656421000000000000000000\n        /* \"#utility.yul\":32149:32150   */\n      0x00\n        /* \"#utility.yul\":32141:32147   */\n      dup3\n        /* \"#utility.yul\":32137:32151   */\n      add\n        /* \"#utility.yul\":32130:32179   */\n      mstore\n        /* \"#utility.yul\":32013:32186   */\n      pop\n      jump\t// out\n        /* \"#utility.yul\":32192:32558   */\n    tag_470:\n        /* \"#utility.yul\":32334:32337   */\n      0x00\n        /* \"#utility.yul\":32355:32422   */\n      tag_745\n        /* \"#utility.yul\":32419:32421   */\n      0x17\n        /* \"#utility.yul\":32414:32417   */\n      dup4\n        /* \"#utility.yul\":32355:32422   */\n      tag_418\n      jump\t// in\n    tag_745:\n        /* \"#utility.yul\":32348:32422   */\n      swap2\n      pop\n        /* \"#utility.yul\":32431:32524   */\n      tag_746\n        /* \"#utility.yul\":32520:32523   */\n      dup3\n        /* \"#utility.yul\":32431:32524   */\n      tag_469\n      jump\t// in\n    tag_746:\n        /* \"#utility.yul\":32549:32551   */\n      0x20\n        /* \"#utility.yul\":32544:32547   */\n      dup3\n        /* \"#utility.yul\":32540:32552   */\n      add\n        /* \"#utility.yul\":32533:32552   */\n      swap1\n      pop\n        /* \"#utility.yul\":32192:32558   */\n      swap2\n      swap1\n      pop\n      jump\t// out\n        /* \"#utility.yul\":32564:32983   */\n    tag_392:\n        /* \"#utility.yul\":32730:32734   */\n      0x00\n        /* \"#utility.yul\":32768:32770   */\n      0x20\n        /* \"#utility.yul\":32757:32766   */\n      dup3\n        /* \"#utility.yul\":32753:32771   */\n      add\n        /* \"#utility.yul\":32745:32771   */\n      swap1\n      pop\n        /* \"#utility.yul\":32817:32826   */\n      dup2\n        /* \"#utility.yul\":32811:32815   */\n      dup2\n        /* \"#utility.yul\":32807:32827   */\n      sub\n        /* \"#utility.yul\":32803:32804   */\n      0x00\n        /* \"#utility.yul\":32792:32801   */\n      dup4\n        /* \"#utility.yul\":32788:32805   */\n      add\n        /* \"#utility.yul\":32781:32828   */\n      mstore\n        /* \"#utility.yul\":32845:32976   */\n      tag_748\n        /* \"#utility.yul\":32971:32975   */\n      dup2\n        /* \"#utility.yul\":32845:32976   */\n      tag_470\n      jump\t// in\n    tag_748:\n        /* \"#utility.yul\":32837:32976   */\n      swap1\n      pop\n        /* \"#utility.yul\":32564:32983   */\n      swap2\n      swap1\n      pop\n      jump\t// out\n\n    auxdata: 0xa26469706673582212205eaeab5482842ee65de8ec927ea0cedafba08bbbd85dfd6887eaf3cc5aeb800164736f6c63430008170033\n}\n",
				"bytecode": {
					"linkReferences": {},
					"object": "60c060405260018060146101000a81548160ff02191690831515021790555060006004556000600555600060065560006007553480156200003f57600080fd5b5060405162003af538038062003af58339818101604052810190620000659190620002e1565b60008060006101000a81548160ff0219169083151502179055506200009f620000936200019b60201b60201c565b620001a360201b60201c565b8073ffffffffffffffffffffffffffffffffffffffff1660808173ffffffffffffffffffffffffffffffffffffffff16815250508173ffffffffffffffffffffffffffffffffffffffff1660a08173ffffffffffffffffffffffffffffffffffffffff168152505060a05173ffffffffffffffffffffffffffffffffffffffff166395d89b416040518163ffffffff1660e01b81526004016000604051808303816000875af115801562000157573d6000803e3d6000fd5b505050506040513d6000823e3d601f19601f82011682018060405250810190620001829190620004a7565b6008908162000192919062000743565b5050506200082a565b600033905090565b60008060019054906101000a900473ffffffffffffffffffffffffffffffffffffffff16905081600060016101000a81548173ffffffffffffffffffffffffffffffffffffffff021916908373ffffffffffffffffffffffffffffffffffffffff1602179055508173ffffffffffffffffffffffffffffffffffffffff168173ffffffffffffffffffffffffffffffffffffffff167f8be0079c531659141344cd1fd0a4f28419497f9722a3daafe3b4186f6b6457e060405160405180910390a35050565b6000604051905090565b600080fd5b600080fd5b600073ffffffffffffffffffffffffffffffffffffffff82169050919050565b6000620002a9826200027c565b9050919050565b620002bb816200029c565b8114620002c757600080fd5b50565b600081519050620002db81620002b0565b92915050565b60008060408385031215620002fb57620002fa62000272565b5b60006200030b85828601620002ca565b92505060206200031e85828601620002ca565b9150509250929050565b600080fd5b600080fd5b6000601f19601f8301169050919050565b7f4e487b7100000000000000000000000000000000000000000000000000000000600052604160045260246000fd5b6200037d8262000332565b810181811067ffffffffffffffff821117156200039f576200039e62000343565b5b80604052505050565b6000620003b462000268565b9050620003c2828262000372565b919050565b600067ffffffffffffffff821115620003e557620003e462000343565b5b620003f08262000332565b9050602081019050919050565b60005b838110156200041d57808201518184015260208101905062000400565b60008484015250505050565b6000620004406200043a84620003c7565b620003a8565b9050828152602081018484840111156200045f576200045e6200032d565b5b6200046c848285620003fd565b509392505050565b600082601f8301126200048c576200048b62000328565b5b81516200049e84826020860162000429565b91505092915050565b600060208284031215620004c057620004bf62000272565b5b600082015167ffffffffffffffff811115620004e157620004e062000277565b5b620004ef8482850162000474565b91505092915050565b600081519050919050565b7f4e487b7100000000000000000000000000000000000000000000000000000000600052602260045260246000fd5b600060028204905060018216806200054b57607f821691505b60208210810362000561576200056062000503565b5b50919050565b60008190508160005260206000209050919050565b60006020601f8301049050919050565b600082821b905092915050565b600060088302620005cb7fffffffffffffffffffffffffffffffffffffffffffffffffffffffffffffffff826200058c565b620005d786836200058c565b95508019841693508086168417925050509392505050565b6000819050919050565b6000819050919050565b6000620006246200061e6200061884620005ef565b620005f9565b620005ef565b9050919050565b6000819050919050565b620006408362000603565b620006586200064f826200062b565b84845462000599565b825550505050565b600090565b6200066f62000660565b6200067c81848462000635565b505050565b5b81811015620006a4576200069860008262000665565b60018101905062000682565b5050565b601f821115620006f357620006bd8162000567565b620006c8846200057c565b81016020851015620006d8578190505b620006f0620006e7856200057c565b83018262000681565b50505b505050565b600082821c905092915050565b60006200071860001984600802620006f8565b1980831691505092915050565b600062000733838362000705565b9150826002028217905092915050565b6200074e82620004f8565b67ffffffffffffffff8111156200076a576200076962000343565b5b62000776825462000532565b62000783828285620006a8565b600060209050601f831160018114620007bb5760008415620007a6578287015190505b620007b2858262000725565b86555062000822565b601f198416620007cb8662000567565b60005b82811015620007f557848901518255600182019150602085019450602081019050620007ce565b8683101562000815578489015162000811601f89168262000705565b8355505b6001600288020188555050505b505050505050565b60805160a0516132826200087360003960008181610e99015281816114d40152818161191a01528181611a1f01526120950152600081816107c901526116b001526132826000f3fe608060405234801561001057600080fd5b50600436106101a95760003560e01c80637754723e116100f9578063b99152d011610097578063e808876611610071578063e808876614610417578063ed969c8414610421578063f2fde38b14610451578063f98509071461046d576101a9565b8063b99152d0146103ab578063ba007e75146103db578063e6367ebe146103f9576101a9565b8063a684ab5c116100d3578063a684ab5c14610336578063abb1dc4414610354578063aefbdfae14610373578063b0b5e39e1461038f576101a9565b80637754723e146102ca5780638da5cb5b146102fa578063a24723e814610318576101a9565b80632e1a7d4d116101665780635c975abb116101405780635c975abb146102545780636a9d43dd14610272578063715018a6146102a2578063722713f7146102ac576101a9565b80632e1a7d4d14610224578063390885f71461024057806351b42b001461024a576101a9565b8063046f7da2146101ae57806307da68f5146101b857806308fadcb0146101c25780630ba2f1d8146101e05780630f15f4c0146101fc5780632af0e25114610206575b600080fd5b6101b661048b565b005b6101c06104a5565b005b6101ca6104bf565b6040516101d791906121bc565b60405180910390f35b6101fa60048036038101906101f59190612208565b610579565b005b6102046107a8565b005b61020e610912565b60405161021b919061224e565b60405180910390f35b61023e60048036038101906102399190612295565b610a79565b005b610248610b56565b005b610252610c1a565b005b61025c610d87565b60405161026991906122dd565b60405180910390f35b61028c600480360381019061028791906122f8565b610d9d565b60405161029991906122dd565b60405180910390f35b6102aa610e79565b005b6102b4610e8d565b6040516102c1919061224e565b60405180910390f35b6102e460048036038101906102df919061234b565b610f36565b6040516102f1919061224e565b60405180910390f35b61030261110a565b60405161030f91906121bc565b60405180910390f35b610320611133565b60405161032d919061224e565b60405180910390f35b61033e61129a565b60405161034b919061224e565b60405180910390f35b61035c611401565b60405161036a92919061242e565b60405180910390f35b61038d60048036038101906103889190612208565b611589565b005b6103a960048036038101906103a49190612208565b6115d5565b005b6103c560048036038101906103c09190612208565b611621565b6040516103d2919061224e565b60405180910390f35b6103e36116ac565b6040516103f091906121bc565b60405180910390f35b6104016116d4565b60405161040e919061245e565b60405180910390f35b61041f611774565b005b61043b60048036038101906104369190612295565b6117a8565b60405161044891906122dd565b60405180910390f35b61046b60048036038101906104669190612208565b611b74565b005b610475611bf7565b604051610482919061224e565b60405180910390f35b610493611d5e565b61049b611da7565b6104a3611e25565b565b6104ad611e87565b6104b5611da7565b6104bd611ed1565b565b60008073ffffffffffffffffffffffffffffffffffffffff16600160009054906101000a900473ffffffffffffffffffffffffffffffffffffffff1673ffffffffffffffffffffffffffffffffffffffff1603610551576040517f08c379a0000000000000000000000000000000000000000000000000000000008152600401610548906124cc565b60405180910390fd5b600160009054906101000a900473ffffffffffffffffffffffffffffffffffffffff16905090565b600073ffffffffffffffffffffffffffffffffffffffff16600160009054906101000a900473ffffffffffffffffffffffffffffffffffffffff1673ffffffffffffffffffffffffffffffffffffffff160361060a576040517f08c379a0000000000000000000000000000000000000000000000000000000008152600401610601906124cc565b60405180910390fd5b600160009054906101000a900473ffffffffffffffffffffffffffffffffffffffff1673ffffffffffffffffffffffffffffffffffffffff163373ffffffffffffffffffffffffffffffffffffffff161461069a576040517f08c379a000000000000000000000000000000000000000000000000000000000815260040161069190612538565b60405180910390fd5b600073ffffffffffffffffffffffffffffffffffffffff16600160009054906101000a900473ffffffffffffffffffffffffffffffffffffffff1673ffffffffffffffffffffffffffffffffffffffff160361072b576040517f08c379a0000000000000000000000000000000000000000000000000000000008152600401610722906124cc565b60405180910390fd5b600073ffffffffffffffffffffffffffffffffffffffff168173ffffffffffffffffffffffffffffffffffffffff160361076457600080fd5b80600160006101000a81548173ffffffffffffffffffffffffffffffffffffffff021916908373ffffffffffffffffffffffffffffffffffffffff16021790555050565b6107b0611e87565b3373ffffffffffffffffffffffffffffffffffffffff167f000000000000000000000000000000000000000000000000000000000000000073ffffffffffffffffffffffffffffffffffffffff161461083e576040517f08c379a0000000000000000000000000000000000000000000000000000000008152600401610835906125ca565b60405180910390fd5b600073ffffffffffffffffffffffffffffffffffffffff16600160009054906101000a900473ffffffffffffffffffffffffffffffffffffffff1673ffffffffffffffffffffffffffffffffffffffff16146108cf576040517f08c379a00000000000000000000000000000000000000000000000000000000081526004016108c690612636565b60405180910390fd5b33600160006101000a81548173ffffffffffffffffffffffffffffffffffffffff021916908373ffffffffffffffffffffffffffffffffffffffff160217905550565b60008073ffffffffffffffffffffffffffffffffffffffff16600160009054906101000a900473ffffffffffffffffffffffffffffffffffffffff1673ffffffffffffffffffffffffffffffffffffffff16036109a4576040517f08c379a000000000000000000000000000000000000000000000000000000000815260040161099b906124cc565b60405180910390fd5b600160009054906101000a900473ffffffffffffffffffffffffffffffffffffffff1673ffffffffffffffffffffffffffffffffffffffff163373ffffffffffffffffffffffffffffffffffffffff161480610a325750610a0361110a565b73ffffffffffffffffffffffffffffffffffffffff163373ffffffffffffffffffffffffffffffffffffffff16145b610a71576040517f08c379a0000000000000000000000000000000000000000000000000000000008152600401610a68906126c8565b60405180910390fd5b600454905090565b610a81611da7565b600754600654610a919190612717565b8111156008604051602001610aa691906128c0565b60405160208183030381529060405290610af6576040517f08c379a0000000000000000000000000000000000000000000000000000000008152600401610aed919061245e565b60405180910390fd5b5060008111610b3a576040517f08c379a0000000000000000000000000000000000000000000000000000000008152600401610b3190612954565b60405180910390fd5b8060076000828254610b4c9190612974565b9250508190555050565b610b5e611da7565b600060075411610ba3576040517f08c379a0000000000000000000000000000000000000000000000000000000008152600401610b9a906129f4565b60405180910390fd5b6000600754600654610bb59190612717565b11610bf5576040517f08c379a0000000000000000000000000000000000000000000000000000000008152600401610bec90612a60565b60405180910390fd5b60075460066000828254610c099190612717565b925050819055506000600781905550565b600073ffffffffffffffffffffffffffffffffffffffff16600160009054906101000a900473ffffffffffffffffffffffffffffffffffffffff1673ffffffffffffffffffffffffffffffffffffffff1603610cab576040517f08c379a0000000000000000000000000000000000000000000000000000000008152600401610ca2906124cc565b60405180910390fd5b600160009054906101000a900473ffffffffffffffffffffffffffffffffffffffff1673ffffffffffffffffffffffffffffffffffffffff163373ffffffffffffffffffffffffffffffffffffffff1614610d3b576040517f08c379a0000000000000000000000000000000000000000000000000000000008152600401610d3290612538565b60405180910390fd5b610d43611e87565b6000600160006101000a81548173ffffffffffffffffffffffffffffffffffffffff021916908373ffffffffffffffffffffffffffffffffffffffff160217905550565b60008060009054906101000a900460ff16905090565b6000610da7611da7565b81610db185611621565b1015610df2576040517f08c379a0000000000000000000000000000000000000000000000000000000008152600401610de990612acc565b60405180910390fd5b8373ffffffffffffffffffffffffffffffffffffffff1663a9059cbb84846040518363ffffffff1660e01b8152600401610e2d929190612aec565b6020604051808303816000875af1158015610e4c573d6000803e3d6000fd5b505050506040513d601f19601f82011682018060405250810190610e709190612b41565b90509392505050565b610e81611da7565b610e8b6000611f33565b565b6000610e97611da7565b7f000000000000000000000000000000000000000000000000000000000000000073ffffffffffffffffffffffffffffffffffffffff166370a08231306040518263ffffffff1660e01b8152600401610ef091906121bc565b602060405180830381865afa158015610f0d573d6000803e3d6000fd5b505050506040513d601f19601f82011682018060405250810190610f319190612b83565b905090565b60008073ffffffffffffffffffffffffffffffffffffffff16600160009054906101000a900473ffffffffffffffffffffffffffffffffffffffff1673ffffffffffffffffffffffffffffffffffffffff1603610fc8576040517f08c379a0000000000000000000000000000000000000000000000000000000008152600401610fbf906124cc565b60405180910390fd5b600160009054906101000a900473ffffffffffffffffffffffffffffffffffffffff1673ffffffffffffffffffffffffffffffffffffffff163373ffffffffffffffffffffffffffffffffffffffff161480611056575061102761110a565b73ffffffffffffffffffffffffffffffffffffffff163373ffffffffffffffffffffffffffffffffffffffff16145b611095576040517f08c379a000000000000000000000000000000000000000000000000000000000815260040161108c906126c8565b60405180910390fd5b600083116110d8576040517f08c379a00000000000000000000000000000000000000000000000000000000081526004016110cf90612bfc565b60405180910390fd5b600082600a6110e79190612d4f565b856110f29190612d9a565b905083816111009190612e0b565b9150509392505050565b60008060019054906101000a900473ffffffffffffffffffffffffffffffffffffffff16905090565b60008073ffffffffffffffffffffffffffffffffffffffff16600160009054906101000a900473ffffffffffffffffffffffffffffffffffffffff1673ffffffffffffffffffffffffffffffffffffffff16036111c5576040517f08c379a00000000000000000000000000000000000000000000000000000000081526004016111bc906124cc565b60405180910390fd5b600160009054906101000a900473ffffffffffffffffffffffffffffffffffffffff1673ffffffffffffffffffffffffffffffffffffffff163373ffffffffffffffffffffffffffffffffffffffff161480611253575061122461110a565b73ffffffffffffffffffffffffffffffffffffffff163373ffffffffffffffffffffffffffffffffffffffff16145b611292576040517f08c379a0000000000000000000000000000000000000000000000000000000008152600401611289906126c8565b60405180910390fd5b600754905090565b60008073ffffffffffffffffffffffffffffffffffffffff16600160009054906101000a900473ffffffffffffffffffffffffffffffffffffffff1673ffffffffffffffffffffffffffffffffffffffff160361132c576040517f08c379a0000000000000000000000000000000000000000000000000000000008152600401611323906124cc565b60405180910390fd5b600160009054906101000a900473ffffffffffffffffffffffffffffffffffffffff1673ffffffffffffffffffffffffffffffffffffffff163373ffffffffffffffffffffffffffffffffffffffff1614806113ba575061138b61110a565b73ffffffffffffffffffffffffffffffffffffffff163373ffffffffffffffffffffffffffffffffffffffff16145b6113f9576040517f08c379a00000000000000000000000000000000000000000000000000000000081526004016113f0906126c8565b60405180910390fd5b600554905090565b60006060600160009054906101000a900473ffffffffffffffffffffffffffffffffffffffff1673ffffffffffffffffffffffffffffffffffffffff163373ffffffffffffffffffffffffffffffffffffffff161480611493575061146461110a565b73ffffffffffffffffffffffffffffffffffffffff163373ffffffffffffffffffffffffffffffffffffffff16145b6114d2576040517f08c379a00000000000000000000000000000000000000000000000000000000081526004016114c9906126c8565b60405180910390fd5b7f00000000000000000000000000000000000000000000000000000000000000006008808054611501906127f7565b80601f016020809104026020016040519081016040528092919081815260200182805461152d906127f7565b801561157a5780601f1061154f5761010080835404028352916020019161157a565b820191906000526020600020905b81548152906001019060200180831161155d57829003601f168201915b50505050509050915091509091565b611591611da7565b80600260006101000a81548173ffffffffffffffffffffffffffffffffffffffff021916908373ffffffffffffffffffffffffffffffffffffffff16021790555050565b6115dd611da7565b80600360006101000a81548173ffffffffffffffffffffffffffffffffffffffff021916908373ffffffffffffffffffffffffffffffffffffffff16021790555050565b600061162b611da7565b8173ffffffffffffffffffffffffffffffffffffffff166370a08231306040518263ffffffff1660e01b815260040161166491906121bc565b602060405180830381865afa158015611681573d6000803e3d6000fd5b505050506040513d601f19601f820116820180604052508101906116a59190612b83565b9050919050565b60007f0000000000000000000000000000000000000000000000000000000000000000905090565b60606116de611da7565b6060600160149054906101000a900460ff16611732576040518060400160405280600c81526020017f41676772656761746f725633000000000000000000000000000000000000000081525090508061176c565b6040518060400160405280600481526020017f506f6f6c000000000000000000000000000000000000000000000000000000008152509050805b508091505090565b61177c611da7565b600160149054906101000a900460ff1615600160146101000a81548160ff021916908315150217905550565b60006117b2611e87565b600073ffffffffffffffffffffffffffffffffffffffff16600160009054906101000a900473ffffffffffffffffffffffffffffffffffffffff1673ffffffffffffffffffffffffffffffffffffffff1603611843576040517f08c379a000000000000000000000000000000000000000000000000000000000815260040161183a906124cc565b60405180910390fd5b600160009054906101000a900473ffffffffffffffffffffffffffffffffffffffff1673ffffffffffffffffffffffffffffffffffffffff163373ffffffffffffffffffffffffffffffffffffffff16146118d3576040517f08c379a00000000000000000000000000000000000000000000000000000000081526004016118ca90612538565b60405180910390fd5b60008211611916576040517f08c379a000000000000000000000000000000000000000000000000000000000815260040161190d90612e88565b60405180910390fd5b60007f000000000000000000000000000000000000000000000000000000000000000073ffffffffffffffffffffffffffffffffffffffff1663dd62ed3e33306040518363ffffffff1660e01b8152600401611973929190612ea8565b602060405180830381865afa158015611990573d6000803e3d6000fd5b505050506040513d601f19601f820116820180604052508101906119b49190612b83565b90508281101560086040516020016119cc9190612f43565b60405160208183030381529060405290611a1c576040517f08c379a0000000000000000000000000000000000000000000000000000000008152600401611a13919061245e565b60405180910390fd5b507f000000000000000000000000000000000000000000000000000000000000000073ffffffffffffffffffffffffffffffffffffffff166323b872dd3330866040518463ffffffff1660e01b8152600401611a7a93929190612f87565b6020604051808303816000875af1158015611a99573d6000803e3d6000fd5b505050506040513d601f19601f82011682018060405250810190611abd9190612b41565b50600080600080611acc611ff8565b9350935093509350611add8761204f565b506000611aeb888686612140565b90508060066000828254611aff9190612974565b925050819055508060056000828254611b189190612974565b9250508190555060004290508089837fb5aeb7b225999adc33232be2121afb1a366c15108c1da745d17fd76108172fe48989888a604051611b5c9493929190612fbe565b60405180910390a46001975050505050505050919050565b611b7c611da7565b600073ffffffffffffffffffffffffffffffffffffffff168173ffffffffffffffffffffffffffffffffffffffff1603611beb576040517f08c379a0000000000000000000000000000000000000000000000000000000008152600401611be29061307c565b60405180910390fd5b611bf481611f33565b50565b60008073ffffffffffffffffffffffffffffffffffffffff16600160009054906101000a900473ffffffffffffffffffffffffffffffffffffffff1673ffffffffffffffffffffffffffffffffffffffff1603611c89576040517f08c379a0000000000000000000000000000000000000000000000000000000008152600401611c80906124cc565b60405180910390fd5b600160009054906101000a900473ffffffffffffffffffffffffffffffffffffffff1673ffffffffffffffffffffffffffffffffffffffff163373ffffffffffffffffffffffffffffffffffffffff161480611d175750611ce861110a565b73ffffffffffffffffffffffffffffffffffffffff163373ffffffffffffffffffffffffffffffffffffffff16145b611d56576040517f08c379a0000000000000000000000000000000000000000000000000000000008152600401611d4d906126c8565b60405180910390fd5b600654905090565b611d66610d87565b611da5576040517f08c379a0000000000000000000000000000000000000000000000000000000008152600401611d9c906130e8565b60405180910390fd5b565b611daf612173565b73ffffffffffffffffffffffffffffffffffffffff16611dcd61110a565b73ffffffffffffffffffffffffffffffffffffffff1614611e23576040517f08c379a0000000000000000000000000000000000000000000000000000000008152600401611e1a90613154565b60405180910390fd5b565b611e2d611d5e565b60008060006101000a81548160ff0219169083151502179055507f5db9ee0a495bf2e6ff9c91a7834c1ba4fdd244a5e8aa4e537bd38aeae4b073aa611e70612173565b604051611e7d91906121bc565b60405180910390a1565b611e8f610d87565b15611ecf576040517f08c379a0000000000000000000000000000000000000000000000000000000008152600401611ec6906131c0565b60405180910390fd5b565b611ed9611e87565b60016000806101000a81548160ff0219169083151502179055507f62e78cea01bee320cd4e420270b5ea74000d11b0c9f74754ebdbfc544b05a258611f1c612173565b604051611f2991906121bc565b60405180910390a1565b60008060019054906101000a900473ffffffffffffffffffffffffffffffffffffffff16905081600060016101000a81548173ffffffffffffffffffffffffffffffffffffffff021916908373ffffffffffffffffffffffffffffffffffffffff1602179055508173ffffffffffffffffffffffffffffffffffffffff168173ffffffffffffffffffffffffffffffffffffffff167f8be0079c531659141344cd1fd0a4f28419497f9722a3daafe3b4186f6b6457e060405160405180910390a35050565b6000806060600062a98ac7600863655600aa6040518060400160405280601281526020017f66616b65555344542f44756d6d795054524e000000000000000000000000000081525090935093509350935090919293565b6000808211612093576040517f08c379a000000000000000000000000000000000000000000000000000000000815260040161208a9061322c565b60405180910390fd5b7f000000000000000000000000000000000000000000000000000000000000000073ffffffffffffffffffffffffffffffffffffffff166342966c68836040518263ffffffff1660e01b81526004016120ec919061224e565b600060405180830381600087803b15801561210657600080fd5b505af115801561211a573d6000803e3d6000fd5b5050505081600460008282546121309190612974565b9250508190555060019050919050565b600080838561214f9190612d9a565b905082600a61215e9190612d4f565b816121699190612e0b565b9150509392505050565b600033905090565b600073ffffffffffffffffffffffffffffffffffffffff82169050919050565b60006121a68261217b565b9050919050565b6121b68161219b565b82525050565b60006020820190506121d160008301846121ad565b92915050565b600080fd5b6121e58161219b565b81146121f057600080fd5b50565b600081359050612202816121dc565b92915050565b60006020828403121561221e5761221d6121d7565b5b600061222c848285016121f3565b91505092915050565b6000819050919050565b61224881612235565b82525050565b6000602082019050612263600083018461223f565b92915050565b61227281612235565b811461227d57600080fd5b50565b60008135905061228f81612269565b92915050565b6000602082840312156122ab576122aa6121d7565b5b60006122b984828501612280565b91505092915050565b60008115159050919050565b6122d7816122c2565b82525050565b60006020820190506122f260008301846122ce565b92915050565b600080600060608486031215612311576123106121d7565b5b600061231f868287016121f3565b9350506020612330868287016121f3565b925050604061234186828701612280565b9150509250925092565b600080600060608486031215612364576123636121d7565b5b600061237286828701612280565b935050602061238386828701612280565b925050604061239486828701612280565b9150509250925092565b600081519050919050565b600082825260208201905092915050565b60005b838110156123d85780820151818401526020810190506123bd565b60008484015250505050565b6000601f19601f8301169050919050565b60006124008261239e565b61240a81856123a9565b935061241a8185602086016123ba565b612423816123e4565b840191505092915050565b600060408201905061244360008301856121ad565b818103602083015261245581846123f5565b90509392505050565b6000602082019050818103600083015261247881846123f5565b905092915050565b7f4e6f74206163746976617465642e000000000000000000000000000000000000600082015250565b60006124b6600e836123a9565b91506124c182612480565b602082019050919050565b600060208201905081810360008301526124e5816124a9565b9050919050565b7f4e6f7420417574686f72697a6564210000000000000000000000000000000000600082015250565b6000612522600f836123a9565b915061252d826124ec565b602082019050919050565b6000602082019050818103600083015261255181612515565b9050919050565b7f43616e277420616374697661746520776974682074686973206164647265737360008201527f2100000000000000000000000000000000000000000000000000000000000000602082015250565b60006125b46021836123a9565b91506125bf82612558565b604082019050919050565b600060208201905081810360008301526125e3816125a7565b9050919050565b7f416c7265616479206163746976617465642e0000000000000000000000000000600082015250565b60006126206012836123a9565b915061262b826125ea565b602082019050919050565b6000602082019050818103600083015261264f81612613565b9050919050565b7f4f6e6c79204f776e6572206f7220417574686f72697a6564207061727469636960008201527f7061746f72210000000000000000000000000000000000000000000000000000602082015250565b60006126b26026836123a9565b91506126bd82612656565b604082019050919050565b600060208201905081810360008301526126e1816126a5565b9050919050565b7f4e487b7100000000000000000000000000000000000000000000000000000000600052601160045260246000fd5b600061272282612235565b915061272d83612235565b9250828203905081811115612745576127446126e8565b5b92915050565b600081905092915050565b7f4e6f7420656e6f75676820706f696e74732e2054686520636f6e74726163742060008201527f6d75737420626520636861726765642077697468206d6f726520000000000000602082015250565b60006127b2603a8361274b565b91506127bd82612756565b603a82019050919050565b7f4e487b7100000000000000000000000000000000000000000000000000000000600052602260045260246000fd5b6000600282049050600182168061280f57607f821691505b602082108103612822576128216127c8565b5b50919050565b60008190508160005260206000209050919050565b6000815461284a816127f7565b612854818661274b565b9450600182166000811461286f5760018114612884576128b7565b60ff19831686528115158202860193506128b7565b61288d85612828565b60005b838110156128af57815481890152600182019150602081019050612890565b838801955050505b50505092915050565b60006128cb826127a5565b91506128d7828461283d565b915081905092915050565b7f57697468647261772076616c7565206d7573742062652067726561746572207460008201527f68616e2030000000000000000000000000000000000000000000000000000000602082015250565b600061293e6025836123a9565b9150612949826128e2565b604082019050919050565b6000602082019050818103600083015261296d81612931565b9050919050565b600061297f82612235565b915061298a83612235565b92508282019050808211156129a2576129a16126e8565b5b92915050565b7f4e6f7468696e6720746f2077697468647261772e000000000000000000000000600082015250565b60006129de6014836123a9565b91506129e9826129a8565b602082019050919050565b60006020820190508181036000830152612a0d816129d1565b9050919050565b7f4e6f7420656e7567682062616c616e636520666f722077697468647261772100600082015250565b6000612a4a601f836123a9565b9150612a5582612a14565b602082019050919050565b60006020820190508181036000830152612a7981612a3d565b9050919050565b7f4e6f7420656e6f7567682062616c616e63652100000000000000000000000000600082015250565b6000612ab66013836123a9565b9150612ac182612a80565b602082019050919050565b60006020820190508181036000830152612ae581612aa9565b9050919050565b6000604082019050612b0160008301856121ad565b612b0e602083018461223f565b9392505050565b612b1e816122c2565b8114612b2957600080fd5b50565b600081519050612b3b81612b15565b92915050565b600060208284031215612b5757612b566121d7565b5b6000612b6584828501612b2c565b91505092915050565b600081519050612b7d81612269565b92915050565b600060208284031215612b9957612b986121d7565b5b6000612ba784828501612b6e565b91505092915050565b7f52617465206d7573742062652067726561746572207468616e207a65726f0000600082015250565b6000612be6601e836123a9565b9150612bf182612bb0565b602082019050919050565b60006020820190508181036000830152612c1581612bd9565b9050919050565b60008160011c9050919050565b6000808291508390505b6001851115612c7357808604811115612c4f57612c4e6126e8565b5b6001851615612c5e5780820291505b8081029050612c6c85612c1c565b9450612c33565b94509492505050565b600082612c8c5760019050612d48565b81612c9a5760009050612d48565b8160018114612cb05760028114612cba57612ce9565b6001915050612d48565b60ff841115612ccc57612ccb6126e8565b5b8360020a915084821115612ce357612ce26126e8565b5b50612d48565b5060208310610133831016604e8410600b8410161715612d1e5782820a905083811115612d1957612d186126e8565b5b612d48565b612d2b8484846001612c29565b92509050818404811115612d4257612d416126e8565b5b81810290505b9392505050565b6000612d5a82612235565b9150612d6583612235565b9250612d927fffffffffffffffffffffffffffffffffffffffffffffffffffffffffffffffff8484612c7c565b905092915050565b6000612da582612235565b9150612db083612235565b9250828202612dbe81612235565b91508282048414831517612dd557612dd46126e8565b5b5092915050565b7f4e487b7100000000000000000000000000000000000000000000000000000000600052601260045260246000fd5b6000612e1682612235565b9150612e2183612235565b925082612e3157612e30612ddc565b5b828204905092915050565b7f4e6f2063686172676520616d6d6f756e74210000000000000000000000000000600082015250565b6000612e726012836123a9565b9150612e7d82612e3c565b602082019050919050565b60006020820190508181036000830152612ea181612e65565b9050919050565b6000604082019050612ebd60008301856121ad565b612eca60208301846121ad565b9392505050565b7f436865636b207468652000000000000000000000000000000000000000000000815250565b7f20746f6b656e2000000000000000000000000000000000000000000000000000815250565b7f616c6c6f77616e63652e00000000000000000000000000000000000000000000815250565b6000612f4e82612ed1565b600a82019150612f5e828461283d565b9150612f6982612ef7565b600782019150612f7882612f1d565b600a8201915081905092915050565b6000606082019050612f9c60008301866121ad565b612fa960208301856121ad565b612fb6604083018461223f565b949350505050565b6000608082019050612fd3600083018761223f565b612fe0602083018661223f565b612fed604083018561223f565b8181036060830152612fff81846123f5565b905095945050505050565b7f4f776e61626c653a206e6577206f776e657220697320746865207a65726f206160008201527f6464726573730000000000000000000000000000000000000000000000000000602082015250565b60006130666026836123a9565b91506130718261300a565b604082019050919050565b6000602082019050818103600083015261309581613059565b9050919050565b7f5061757361626c653a206e6f7420706175736564000000000000000000000000600082015250565b60006130d26014836123a9565b91506130dd8261309c565b602082019050919050565b60006020820190508181036000830152613101816130c5565b9050919050565b7f4f776e61626c653a2063616c6c6572206973206e6f7420746865206f776e6572600082015250565b600061313e6020836123a9565b915061314982613108565b602082019050919050565b6000602082019050818103600083015261316d81613131565b9050919050565b7f5061757361626c653a2070617573656400000000000000000000000000000000600082015250565b60006131aa6010836123a9565b91506131b582613174565b602082019050919050565b600060208201905081810360008301526131d98161319d565b9050919050565b7f4e6f20746f6b656e7320746f206265206275726e656421000000000000000000600082015250565b60006132166017836123a9565b9150613221826131e0565b602082019050919050565b6000602082019050818103600083015261324581613209565b905091905056fea26469706673582212205eaeab5482842ee65de8ec927ea0cedafba08bbbd85dfd6887eaf3cc5aeb800164736f6c63430008170033",
					"opcodes": "PUSH1 0xC0 PUSH1 0x40 MSTORE PUSH1 0x1 DUP1 PUSH1 0x14 PUSH2 0x100 EXP DUP2 SLOAD DUP2 PUSH1 0xFF MUL NOT AND SWAP1 DUP4 ISZERO ISZERO MUL OR SWAP1 SSTORE POP PUSH1 0x0 PUSH1 0x4 SSTORE PUSH1 0x0 PUSH1 0x5 SSTORE PUSH1 0x0 PUSH1 0x6 SSTORE PUSH1 0x0 PUSH1 0x7 SSTORE CALLVALUE DUP1 ISZERO PUSH3 0x3F JUMPI PUSH1 0x0 DUP1 REVERT JUMPDEST POP PUSH1 0x40 MLOAD PUSH3 0x3AF5 CODESIZE SUB DUP1 PUSH3 0x3AF5 DUP4 CODECOPY DUP2 DUP2 ADD PUSH1 0x40 MSTORE DUP2 ADD SWAP1 PUSH3 0x65 SWAP2 SWAP1 PUSH3 0x2E1 JUMP JUMPDEST PUSH1 0x0 DUP1 PUSH1 0x0 PUSH2 0x100 EXP DUP2 SLOAD DUP2 PUSH1 0xFF MUL NOT AND SWAP1 DUP4 ISZERO ISZERO MUL OR SWAP1 SSTORE POP PUSH3 0x9F PUSH3 0x93 PUSH3 0x19B PUSH1 0x20 SHL PUSH1 0x20 SHR JUMP JUMPDEST PUSH3 0x1A3 PUSH1 0x20 SHL PUSH1 0x20 SHR JUMP JUMPDEST DUP1 PUSH20 0xFFFFFFFFFFFFFFFFFFFFFFFFFFFFFFFFFFFFFFFF AND PUSH1 0x80 DUP2 PUSH20 0xFFFFFFFFFFFFFFFFFFFFFFFFFFFFFFFFFFFFFFFF AND DUP2 MSTORE POP POP DUP2 PUSH20 0xFFFFFFFFFFFFFFFFFFFFFFFFFFFFFFFFFFFFFFFF AND PUSH1 0xA0 DUP2 PUSH20 0xFFFFFFFFFFFFFFFFFFFFFFFFFFFFFFFFFFFFFFFF AND DUP2 MSTORE POP POP PUSH1 0xA0 MLOAD PUSH20 0xFFFFFFFFFFFFFFFFFFFFFFFFFFFFFFFFFFFFFFFF AND PUSH4 0x95D89B41 PUSH1 0x40 MLOAD DUP2 PUSH4 0xFFFFFFFF AND PUSH1 0xE0 SHL DUP2 MSTORE PUSH1 0x4 ADD PUSH1 0x0 PUSH1 0x40 MLOAD DUP1 DUP4 SUB DUP2 PUSH1 0x0 DUP8 GAS CALL ISZERO DUP1 ISZERO PUSH3 0x157 JUMPI RETURNDATASIZE PUSH1 0x0 DUP1 RETURNDATACOPY RETURNDATASIZE PUSH1 0x0 REVERT JUMPDEST POP POP POP POP PUSH1 0x40 MLOAD RETURNDATASIZE PUSH1 0x0 DUP3 RETURNDATACOPY RETURNDATASIZE PUSH1 0x1F NOT PUSH1 0x1F DUP3 ADD AND DUP3 ADD DUP1 PUSH1 0x40 MSTORE POP DUP2 ADD SWAP1 PUSH3 0x182 SWAP2 SWAP1 PUSH3 0x4A7 JUMP JUMPDEST PUSH1 0x8 SWAP1 DUP2 PUSH3 0x192 SWAP2 SWAP1 PUSH3 0x743 JUMP JUMPDEST POP POP POP PUSH3 0x82A JUMP JUMPDEST PUSH1 0x0 CALLER SWAP1 POP SWAP1 JUMP JUMPDEST PUSH1 0x0 DUP1 PUSH1 0x1 SWAP1 SLOAD SWAP1 PUSH2 0x100 EXP SWAP1 DIV PUSH20 0xFFFFFFFFFFFFFFFFFFFFFFFFFFFFFFFFFFFFFFFF AND SWAP1 POP DUP2 PUSH1 0x0 PUSH1 0x1 PUSH2 0x100 EXP DUP2 SLOAD DUP2 PUSH20 0xFFFFFFFFFFFFFFFFFFFFFFFFFFFFFFFFFFFFFFFF MUL NOT AND SWAP1 DUP4 PUSH20 0xFFFFFFFFFFFFFFFFFFFFFFFFFFFFFFFFFFFFFFFF AND MUL OR SWAP1 SSTORE POP DUP2 PUSH20 0xFFFFFFFFFFFFFFFFFFFFFFFFFFFFFFFFFFFFFFFF AND DUP2 PUSH20 0xFFFFFFFFFFFFFFFFFFFFFFFFFFFFFFFFFFFFFFFF AND PUSH32 0x8BE0079C531659141344CD1FD0A4F28419497F9722A3DAAFE3B4186F6B6457E0 PUSH1 0x40 MLOAD PUSH1 0x40 MLOAD DUP1 SWAP2 SUB SWAP1 LOG3 POP POP JUMP JUMPDEST PUSH1 0x0 PUSH1 0x40 MLOAD SWAP1 POP SWAP1 JUMP JUMPDEST PUSH1 0x0 DUP1 REVERT JUMPDEST PUSH1 0x0 DUP1 REVERT JUMPDEST PUSH1 0x0 PUSH20 0xFFFFFFFFFFFFFFFFFFFFFFFFFFFFFFFFFFFFFFFF DUP3 AND SWAP1 POP SWAP2 SWAP1 POP JUMP JUMPDEST PUSH1 0x0 PUSH3 0x2A9 DUP3 PUSH3 0x27C JUMP JUMPDEST SWAP1 POP SWAP2 SWAP1 POP JUMP JUMPDEST PUSH3 0x2BB DUP2 PUSH3 0x29C JUMP JUMPDEST DUP2 EQ PUSH3 0x2C7 JUMPI PUSH1 0x0 DUP1 REVERT JUMPDEST POP JUMP JUMPDEST PUSH1 0x0 DUP2 MLOAD SWAP1 POP PUSH3 0x2DB DUP2 PUSH3 0x2B0 JUMP JUMPDEST SWAP3 SWAP2 POP POP JUMP JUMPDEST PUSH1 0x0 DUP1 PUSH1 0x40 DUP4 DUP6 SUB SLT ISZERO PUSH3 0x2FB JUMPI PUSH3 0x2FA PUSH3 0x272 JUMP JUMPDEST JUMPDEST PUSH1 0x0 PUSH3 0x30B DUP6 DUP3 DUP7 ADD PUSH3 0x2CA JUMP JUMPDEST SWAP3 POP POP PUSH1 0x20 PUSH3 0x31E DUP6 DUP3 DUP7 ADD PUSH3 0x2CA JUMP JUMPDEST SWAP2 POP POP SWAP3 POP SWAP3 SWAP1 POP JUMP JUMPDEST PUSH1 0x0 DUP1 REVERT JUMPDEST PUSH1 0x0 DUP1 REVERT JUMPDEST PUSH1 0x0 PUSH1 0x1F NOT PUSH1 0x1F DUP4 ADD AND SWAP1 POP SWAP2 SWAP1 POP JUMP JUMPDEST PUSH32 0x4E487B7100000000000000000000000000000000000000000000000000000000 PUSH1 0x0 MSTORE PUSH1 0x41 PUSH1 0x4 MSTORE PUSH1 0x24 PUSH1 0x0 REVERT JUMPDEST PUSH3 0x37D DUP3 PUSH3 0x332 JUMP JUMPDEST DUP2 ADD DUP2 DUP2 LT PUSH8 0xFFFFFFFFFFFFFFFF DUP3 GT OR ISZERO PUSH3 0x39F JUMPI PUSH3 0x39E PUSH3 0x343 JUMP JUMPDEST JUMPDEST DUP1 PUSH1 0x40 MSTORE POP POP POP JUMP JUMPDEST PUSH1 0x0 PUSH3 0x3B4 PUSH3 0x268 JUMP JUMPDEST SWAP1 POP PUSH3 0x3C2 DUP3 DUP3 PUSH3 0x372 JUMP JUMPDEST SWAP2 SWAP1 POP JUMP JUMPDEST PUSH1 0x0 PUSH8 0xFFFFFFFFFFFFFFFF DUP3 GT ISZERO PUSH3 0x3E5 JUMPI PUSH3 0x3E4 PUSH3 0x343 JUMP JUMPDEST JUMPDEST PUSH3 0x3F0 DUP3 PUSH3 0x332 JUMP JUMPDEST SWAP1 POP PUSH1 0x20 DUP2 ADD SWAP1 POP SWAP2 SWAP1 POP JUMP JUMPDEST PUSH1 0x0 JUMPDEST DUP4 DUP2 LT ISZERO PUSH3 0x41D JUMPI DUP1 DUP3 ADD MLOAD DUP2 DUP5 ADD MSTORE PUSH1 0x20 DUP2 ADD SWAP1 POP PUSH3 0x400 JUMP JUMPDEST PUSH1 0x0 DUP5 DUP5 ADD MSTORE POP POP POP POP JUMP JUMPDEST PUSH1 0x0 PUSH3 0x440 PUSH3 0x43A DUP5 PUSH3 0x3C7 JUMP JUMPDEST PUSH3 0x3A8 JUMP JUMPDEST SWAP1 POP DUP3 DUP2 MSTORE PUSH1 0x20 DUP2 ADD DUP5 DUP5 DUP5 ADD GT ISZERO PUSH3 0x45F JUMPI PUSH3 0x45E PUSH3 0x32D JUMP JUMPDEST JUMPDEST PUSH3 0x46C DUP5 DUP3 DUP6 PUSH3 0x3FD JUMP JUMPDEST POP SWAP4 SWAP3 POP POP POP JUMP JUMPDEST PUSH1 0x0 DUP3 PUSH1 0x1F DUP4 ADD SLT PUSH3 0x48C JUMPI PUSH3 0x48B PUSH3 0x328 JUMP JUMPDEST JUMPDEST DUP2 MLOAD PUSH3 0x49E DUP5 DUP3 PUSH1 0x20 DUP7 ADD PUSH3 0x429 JUMP JUMPDEST SWAP2 POP POP SWAP3 SWAP2 POP POP JUMP JUMPDEST PUSH1 0x0 PUSH1 0x20 DUP3 DUP5 SUB SLT ISZERO PUSH3 0x4C0 JUMPI PUSH3 0x4BF PUSH3 0x272 JUMP JUMPDEST JUMPDEST PUSH1 0x0 DUP3 ADD MLOAD PUSH8 0xFFFFFFFFFFFFFFFF DUP2 GT ISZERO PUSH3 0x4E1 JUMPI PUSH3 0x4E0 PUSH3 0x277 JUMP JUMPDEST JUMPDEST PUSH3 0x4EF DUP5 DUP3 DUP6 ADD PUSH3 0x474 JUMP JUMPDEST SWAP2 POP POP SWAP3 SWAP2 POP POP JUMP JUMPDEST PUSH1 0x0 DUP2 MLOAD SWAP1 POP SWAP2 SWAP1 POP JUMP JUMPDEST PUSH32 0x4E487B7100000000000000000000000000000000000000000000000000000000 PUSH1 0x0 MSTORE PUSH1 0x22 PUSH1 0x4 MSTORE PUSH1 0x24 PUSH1 0x0 REVERT JUMPDEST PUSH1 0x0 PUSH1 0x2 DUP3 DIV SWAP1 POP PUSH1 0x1 DUP3 AND DUP1 PUSH3 0x54B JUMPI PUSH1 0x7F DUP3 AND SWAP2 POP JUMPDEST PUSH1 0x20 DUP3 LT DUP2 SUB PUSH3 0x561 JUMPI PUSH3 0x560 PUSH3 0x503 JUMP JUMPDEST JUMPDEST POP SWAP2 SWAP1 POP JUMP JUMPDEST PUSH1 0x0 DUP2 SWAP1 POP DUP2 PUSH1 0x0 MSTORE PUSH1 0x20 PUSH1 0x0 KECCAK256 SWAP1 POP SWAP2 SWAP1 POP JUMP JUMPDEST PUSH1 0x0 PUSH1 0x20 PUSH1 0x1F DUP4 ADD DIV SWAP1 POP SWAP2 SWAP1 POP JUMP JUMPDEST PUSH1 0x0 DUP3 DUP3 SHL SWAP1 POP SWAP3 SWAP2 POP POP JUMP JUMPDEST PUSH1 0x0 PUSH1 0x8 DUP4 MUL PUSH3 0x5CB PUSH32 0xFFFFFFFFFFFFFFFFFFFFFFFFFFFFFFFFFFFFFFFFFFFFFFFFFFFFFFFFFFFFFFFF DUP3 PUSH3 0x58C JUMP JUMPDEST PUSH3 0x5D7 DUP7 DUP4 PUSH3 0x58C JUMP JUMPDEST SWAP6 POP DUP1 NOT DUP5 AND SWAP4 POP DUP1 DUP7 AND DUP5 OR SWAP3 POP POP POP SWAP4 SWAP3 POP POP POP JUMP JUMPDEST PUSH1 0x0 DUP2 SWAP1 POP SWAP2 SWAP1 POP JUMP JUMPDEST PUSH1 0x0 DUP2 SWAP1 POP SWAP2 SWAP1 POP JUMP JUMPDEST PUSH1 0x0 PUSH3 0x624 PUSH3 0x61E PUSH3 0x618 DUP5 PUSH3 0x5EF JUMP JUMPDEST PUSH3 0x5F9 JUMP JUMPDEST PUSH3 0x5EF JUMP JUMPDEST SWAP1 POP SWAP2 SWAP1 POP JUMP JUMPDEST PUSH1 0x0 DUP2 SWAP1 POP SWAP2 SWAP1 POP JUMP JUMPDEST PUSH3 0x640 DUP4 PUSH3 0x603 JUMP JUMPDEST PUSH3 0x658 PUSH3 0x64F DUP3 PUSH3 0x62B JUMP JUMPDEST DUP5 DUP5 SLOAD PUSH3 0x599 JUMP JUMPDEST DUP3 SSTORE POP POP POP POP JUMP JUMPDEST PUSH1 0x0 SWAP1 JUMP JUMPDEST PUSH3 0x66F PUSH3 0x660 JUMP JUMPDEST PUSH3 0x67C DUP2 DUP5 DUP5 PUSH3 0x635 JUMP JUMPDEST POP POP POP JUMP JUMPDEST JUMPDEST DUP2 DUP2 LT ISZERO PUSH3 0x6A4 JUMPI PUSH3 0x698 PUSH1 0x0 DUP3 PUSH3 0x665 JUMP JUMPDEST PUSH1 0x1 DUP2 ADD SWAP1 POP PUSH3 0x682 JUMP JUMPDEST POP POP JUMP JUMPDEST PUSH1 0x1F DUP3 GT ISZERO PUSH3 0x6F3 JUMPI PUSH3 0x6BD DUP2 PUSH3 0x567 JUMP JUMPDEST PUSH3 0x6C8 DUP5 PUSH3 0x57C JUMP JUMPDEST DUP2 ADD PUSH1 0x20 DUP6 LT ISZERO PUSH3 0x6D8 JUMPI DUP2 SWAP1 POP JUMPDEST PUSH3 0x6F0 PUSH3 0x6E7 DUP6 PUSH3 0x57C JUMP JUMPDEST DUP4 ADD DUP3 PUSH3 0x681 JUMP JUMPDEST POP POP JUMPDEST POP POP POP JUMP JUMPDEST PUSH1 0x0 DUP3 DUP3 SHR SWAP1 POP SWAP3 SWAP2 POP POP JUMP JUMPDEST PUSH1 0x0 PUSH3 0x718 PUSH1 0x0 NOT DUP5 PUSH1 0x8 MUL PUSH3 0x6F8 JUMP JUMPDEST NOT DUP1 DUP4 AND SWAP2 POP POP SWAP3 SWAP2 POP POP JUMP JUMPDEST PUSH1 0x0 PUSH3 0x733 DUP4 DUP4 PUSH3 0x705 JUMP JUMPDEST SWAP2 POP DUP3 PUSH1 0x2 MUL DUP3 OR SWAP1 POP SWAP3 SWAP2 POP POP JUMP JUMPDEST PUSH3 0x74E DUP3 PUSH3 0x4F8 JUMP JUMPDEST PUSH8 0xFFFFFFFFFFFFFFFF DUP2 GT ISZERO PUSH3 0x76A JUMPI PUSH3 0x769 PUSH3 0x343 JUMP JUMPDEST JUMPDEST PUSH3 0x776 DUP3 SLOAD PUSH3 0x532 JUMP JUMPDEST PUSH3 0x783 DUP3 DUP3 DUP6 PUSH3 0x6A8 JUMP JUMPDEST PUSH1 0x0 PUSH1 0x20 SWAP1 POP PUSH1 0x1F DUP4 GT PUSH1 0x1 DUP2 EQ PUSH3 0x7BB JUMPI PUSH1 0x0 DUP5 ISZERO PUSH3 0x7A6 JUMPI DUP3 DUP8 ADD MLOAD SWAP1 POP JUMPDEST PUSH3 0x7B2 DUP6 DUP3 PUSH3 0x725 JUMP JUMPDEST DUP7 SSTORE POP PUSH3 0x822 JUMP JUMPDEST PUSH1 0x1F NOT DUP5 AND PUSH3 0x7CB DUP7 PUSH3 0x567 JUMP JUMPDEST PUSH1 0x0 JUMPDEST DUP3 DUP2 LT ISZERO PUSH3 0x7F5 JUMPI DUP5 DUP10 ADD MLOAD DUP3 SSTORE PUSH1 0x1 DUP3 ADD SWAP2 POP PUSH1 0x20 DUP6 ADD SWAP5 POP PUSH1 0x20 DUP2 ADD SWAP1 POP PUSH3 0x7CE JUMP JUMPDEST DUP7 DUP4 LT ISZERO PUSH3 0x815 JUMPI DUP5 DUP10 ADD MLOAD PUSH3 0x811 PUSH1 0x1F DUP10 AND DUP3 PUSH3 0x705 JUMP JUMPDEST DUP4 SSTORE POP JUMPDEST PUSH1 0x1 PUSH1 0x2 DUP9 MUL ADD DUP9 SSTORE POP POP POP JUMPDEST POP POP POP POP POP POP JUMP JUMPDEST PUSH1 0x80 MLOAD PUSH1 0xA0 MLOAD PUSH2 0x3282 PUSH3 0x873 PUSH1 0x0 CODECOPY PUSH1 0x0 DUP2 DUP2 PUSH2 0xE99 ADD MSTORE DUP2 DUP2 PUSH2 0x14D4 ADD MSTORE DUP2 DUP2 PUSH2 0x191A ADD MSTORE DUP2 DUP2 PUSH2 0x1A1F ADD MSTORE PUSH2 0x2095 ADD MSTORE PUSH1 0x0 DUP2 DUP2 PUSH2 0x7C9 ADD MSTORE PUSH2 0x16B0 ADD MSTORE PUSH2 0x3282 PUSH1 0x0 RETURN INVALID PUSH1 0x80 PUSH1 0x40 MSTORE CALLVALUE DUP1 ISZERO PUSH2 0x10 JUMPI PUSH1 0x0 DUP1 REVERT JUMPDEST POP PUSH1 0x4 CALLDATASIZE LT PUSH2 0x1A9 JUMPI PUSH1 0x0 CALLDATALOAD PUSH1 0xE0 SHR DUP1 PUSH4 0x7754723E GT PUSH2 0xF9 JUMPI DUP1 PUSH4 0xB99152D0 GT PUSH2 0x97 JUMPI DUP1 PUSH4 0xE8088766 GT PUSH2 0x71 JUMPI DUP1 PUSH4 0xE8088766 EQ PUSH2 0x417 JUMPI DUP1 PUSH4 0xED969C84 EQ PUSH2 0x421 JUMPI DUP1 PUSH4 0xF2FDE38B EQ PUSH2 0x451 JUMPI DUP1 PUSH4 0xF9850907 EQ PUSH2 0x46D JUMPI PUSH2 0x1A9 JUMP JUMPDEST DUP1 PUSH4 0xB99152D0 EQ PUSH2 0x3AB JUMPI DUP1 PUSH4 0xBA007E75 EQ PUSH2 0x3DB JUMPI DUP1 PUSH4 0xE6367EBE EQ PUSH2 0x3F9 JUMPI PUSH2 0x1A9 JUMP JUMPDEST DUP1 PUSH4 0xA684AB5C GT PUSH2 0xD3 JUMPI DUP1 PUSH4 0xA684AB5C EQ PUSH2 0x336 JUMPI DUP1 PUSH4 0xABB1DC44 EQ PUSH2 0x354 JUMPI DUP1 PUSH4 0xAEFBDFAE EQ PUSH2 0x373 JUMPI DUP1 PUSH4 0xB0B5E39E EQ PUSH2 0x38F JUMPI PUSH2 0x1A9 JUMP JUMPDEST DUP1 PUSH4 0x7754723E EQ PUSH2 0x2CA JUMPI DUP1 PUSH4 0x8DA5CB5B EQ PUSH2 0x2FA JUMPI DUP1 PUSH4 0xA24723E8 EQ PUSH2 0x318 JUMPI PUSH2 0x1A9 JUMP JUMPDEST DUP1 PUSH4 0x2E1A7D4D GT PUSH2 0x166 JUMPI DUP1 PUSH4 0x5C975ABB GT PUSH2 0x140 JUMPI DUP1 PUSH4 0x5C975ABB EQ PUSH2 0x254 JUMPI DUP1 PUSH4 0x6A9D43DD EQ PUSH2 0x272 JUMPI DUP1 PUSH4 0x715018A6 EQ PUSH2 0x2A2 JUMPI DUP1 PUSH4 0x722713F7 EQ PUSH2 0x2AC JUMPI PUSH2 0x1A9 JUMP JUMPDEST DUP1 PUSH4 0x2E1A7D4D EQ PUSH2 0x224 JUMPI DUP1 PUSH4 0x390885F7 EQ PUSH2 0x240 JUMPI DUP1 PUSH4 0x51B42B00 EQ PUSH2 0x24A JUMPI PUSH2 0x1A9 JUMP JUMPDEST DUP1 PUSH4 0x46F7DA2 EQ PUSH2 0x1AE JUMPI DUP1 PUSH4 0x7DA68F5 EQ PUSH2 0x1B8 JUMPI DUP1 PUSH4 0x8FADCB0 EQ PUSH2 0x1C2 JUMPI DUP1 PUSH4 0xBA2F1D8 EQ PUSH2 0x1E0 JUMPI DUP1 PUSH4 0xF15F4C0 EQ PUSH2 0x1FC JUMPI DUP1 PUSH4 0x2AF0E251 EQ PUSH2 0x206 JUMPI JUMPDEST PUSH1 0x0 DUP1 REVERT JUMPDEST PUSH2 0x1B6 PUSH2 0x48B JUMP JUMPDEST STOP JUMPDEST PUSH2 0x1C0 PUSH2 0x4A5 JUMP JUMPDEST STOP JUMPDEST PUSH2 0x1CA PUSH2 0x4BF JUMP JUMPDEST PUSH1 0x40 MLOAD PUSH2 0x1D7 SWAP2 SWAP1 PUSH2 0x21BC JUMP JUMPDEST PUSH1 0x40 MLOAD DUP1 SWAP2 SUB SWAP1 RETURN JUMPDEST PUSH2 0x1FA PUSH1 0x4 DUP1 CALLDATASIZE SUB DUP2 ADD SWAP1 PUSH2 0x1F5 SWAP2 SWAP1 PUSH2 0x2208 JUMP JUMPDEST PUSH2 0x579 JUMP JUMPDEST STOP JUMPDEST PUSH2 0x204 PUSH2 0x7A8 JUMP JUMPDEST STOP JUMPDEST PUSH2 0x20E PUSH2 0x912 JUMP JUMPDEST PUSH1 0x40 MLOAD PUSH2 0x21B SWAP2 SWAP1 PUSH2 0x224E JUMP JUMPDEST PUSH1 0x40 MLOAD DUP1 SWAP2 SUB SWAP1 RETURN JUMPDEST PUSH2 0x23E PUSH1 0x4 DUP1 CALLDATASIZE SUB DUP2 ADD SWAP1 PUSH2 0x239 SWAP2 SWAP1 PUSH2 0x2295 JUMP JUMPDEST PUSH2 0xA79 JUMP JUMPDEST STOP JUMPDEST PUSH2 0x248 PUSH2 0xB56 JUMP JUMPDEST STOP JUMPDEST PUSH2 0x252 PUSH2 0xC1A JUMP JUMPDEST STOP JUMPDEST PUSH2 0x25C PUSH2 0xD87 JUMP JUMPDEST PUSH1 0x40 MLOAD PUSH2 0x269 SWAP2 SWAP1 PUSH2 0x22DD JUMP JUMPDEST PUSH1 0x40 MLOAD DUP1 SWAP2 SUB SWAP1 RETURN JUMPDEST PUSH2 0x28C PUSH1 0x4 DUP1 CALLDATASIZE SUB DUP2 ADD SWAP1 PUSH2 0x287 SWAP2 SWAP1 PUSH2 0x22F8 JUMP JUMPDEST PUSH2 0xD9D JUMP JUMPDEST PUSH1 0x40 MLOAD PUSH2 0x299 SWAP2 SWAP1 PUSH2 0x22DD JUMP JUMPDEST PUSH1 0x40 MLOAD DUP1 SWAP2 SUB SWAP1 RETURN JUMPDEST PUSH2 0x2AA PUSH2 0xE79 JUMP JUMPDEST STOP JUMPDEST PUSH2 0x2B4 PUSH2 0xE8D JUMP JUMPDEST PUSH1 0x40 MLOAD PUSH2 0x2C1 SWAP2 SWAP1 PUSH2 0x224E JUMP JUMPDEST PUSH1 0x40 MLOAD DUP1 SWAP2 SUB SWAP1 RETURN JUMPDEST PUSH2 0x2E4 PUSH1 0x4 DUP1 CALLDATASIZE SUB DUP2 ADD SWAP1 PUSH2 0x2DF SWAP2 SWAP1 PUSH2 0x234B JUMP JUMPDEST PUSH2 0xF36 JUMP JUMPDEST PUSH1 0x40 MLOAD PUSH2 0x2F1 SWAP2 SWAP1 PUSH2 0x224E JUMP JUMPDEST PUSH1 0x40 MLOAD DUP1 SWAP2 SUB SWAP1 RETURN JUMPDEST PUSH2 0x302 PUSH2 0x110A JUMP JUMPDEST PUSH1 0x40 MLOAD PUSH2 0x30F SWAP2 SWAP1 PUSH2 0x21BC JUMP JUMPDEST PUSH1 0x40 MLOAD DUP1 SWAP2 SUB SWAP1 RETURN JUMPDEST PUSH2 0x320 PUSH2 0x1133 JUMP JUMPDEST PUSH1 0x40 MLOAD PUSH2 0x32D SWAP2 SWAP1 PUSH2 0x224E JUMP JUMPDEST PUSH1 0x40 MLOAD DUP1 SWAP2 SUB SWAP1 RETURN JUMPDEST PUSH2 0x33E PUSH2 0x129A JUMP JUMPDEST PUSH1 0x40 MLOAD PUSH2 0x34B SWAP2 SWAP1 PUSH2 0x224E JUMP JUMPDEST PUSH1 0x40 MLOAD DUP1 SWAP2 SUB SWAP1 RETURN JUMPDEST PUSH2 0x35C PUSH2 0x1401 JUMP JUMPDEST PUSH1 0x40 MLOAD PUSH2 0x36A SWAP3 SWAP2 SWAP1 PUSH2 0x242E JUMP JUMPDEST PUSH1 0x40 MLOAD DUP1 SWAP2 SUB SWAP1 RETURN JUMPDEST PUSH2 0x38D PUSH1 0x4 DUP1 CALLDATASIZE SUB DUP2 ADD SWAP1 PUSH2 0x388 SWAP2 SWAP1 PUSH2 0x2208 JUMP JUMPDEST PUSH2 0x1589 JUMP JUMPDEST STOP JUMPDEST PUSH2 0x3A9 PUSH1 0x4 DUP1 CALLDATASIZE SUB DUP2 ADD SWAP1 PUSH2 0x3A4 SWAP2 SWAP1 PUSH2 0x2208 JUMP JUMPDEST PUSH2 0x15D5 JUMP JUMPDEST STOP JUMPDEST PUSH2 0x3C5 PUSH1 0x4 DUP1 CALLDATASIZE SUB DUP2 ADD SWAP1 PUSH2 0x3C0 SWAP2 SWAP1 PUSH2 0x2208 JUMP JUMPDEST PUSH2 0x1621 JUMP JUMPDEST PUSH1 0x40 MLOAD PUSH2 0x3D2 SWAP2 SWAP1 PUSH2 0x224E JUMP JUMPDEST PUSH1 0x40 MLOAD DUP1 SWAP2 SUB SWAP1 RETURN JUMPDEST PUSH2 0x3E3 PUSH2 0x16AC JUMP JUMPDEST PUSH1 0x40 MLOAD PUSH2 0x3F0 SWAP2 SWAP1 PUSH2 0x21BC JUMP JUMPDEST PUSH1 0x40 MLOAD DUP1 SWAP2 SUB SWAP1 RETURN JUMPDEST PUSH2 0x401 PUSH2 0x16D4 JUMP JUMPDEST PUSH1 0x40 MLOAD PUSH2 0x40E SWAP2 SWAP1 PUSH2 0x245E JUMP JUMPDEST PUSH1 0x40 MLOAD DUP1 SWAP2 SUB SWAP1 RETURN JUMPDEST PUSH2 0x41F PUSH2 0x1774 JUMP JUMPDEST STOP JUMPDEST PUSH2 0x43B PUSH1 0x4 DUP1 CALLDATASIZE SUB DUP2 ADD SWAP1 PUSH2 0x436 SWAP2 SWAP1 PUSH2 0x2295 JUMP JUMPDEST PUSH2 0x17A8 JUMP JUMPDEST PUSH1 0x40 MLOAD PUSH2 0x448 SWAP2 SWAP1 PUSH2 0x22DD JUMP JUMPDEST PUSH1 0x40 MLOAD DUP1 SWAP2 SUB SWAP1 RETURN JUMPDEST PUSH2 0x46B PUSH1 0x4 DUP1 CALLDATASIZE SUB DUP2 ADD SWAP1 PUSH2 0x466 SWAP2 SWAP1 PUSH2 0x2208 JUMP JUMPDEST PUSH2 0x1B74 JUMP JUMPDEST STOP JUMPDEST PUSH2 0x475 PUSH2 0x1BF7 JUMP JUMPDEST PUSH1 0x40 MLOAD PUSH2 0x482 SWAP2 SWAP1 PUSH2 0x224E JUMP JUMPDEST PUSH1 0x40 MLOAD DUP1 SWAP2 SUB SWAP1 RETURN JUMPDEST PUSH2 0x493 PUSH2 0x1D5E JUMP JUMPDEST PUSH2 0x49B PUSH2 0x1DA7 JUMP JUMPDEST PUSH2 0x4A3 PUSH2 0x1E25 JUMP JUMPDEST JUMP JUMPDEST PUSH2 0x4AD PUSH2 0x1E87 JUMP JUMPDEST PUSH2 0x4B5 PUSH2 0x1DA7 JUMP JUMPDEST PUSH2 0x4BD PUSH2 0x1ED1 JUMP JUMPDEST JUMP JUMPDEST PUSH1 0x0 DUP1 PUSH20 0xFFFFFFFFFFFFFFFFFFFFFFFFFFFFFFFFFFFFFFFF AND PUSH1 0x1 PUSH1 0x0 SWAP1 SLOAD SWAP1 PUSH2 0x100 EXP SWAP1 DIV PUSH20 0xFFFFFFFFFFFFFFFFFFFFFFFFFFFFFFFFFFFFFFFF AND PUSH20 0xFFFFFFFFFFFFFFFFFFFFFFFFFFFFFFFFFFFFFFFF AND SUB PUSH2 0x551 JUMPI PUSH1 0x40 MLOAD PUSH32 0x8C379A000000000000000000000000000000000000000000000000000000000 DUP2 MSTORE PUSH1 0x4 ADD PUSH2 0x548 SWAP1 PUSH2 0x24CC JUMP JUMPDEST PUSH1 0x40 MLOAD DUP1 SWAP2 SUB SWAP1 REVERT JUMPDEST PUSH1 0x1 PUSH1 0x0 SWAP1 SLOAD SWAP1 PUSH2 0x100 EXP SWAP1 DIV PUSH20 0xFFFFFFFFFFFFFFFFFFFFFFFFFFFFFFFFFFFFFFFF AND SWAP1 POP SWAP1 JUMP JUMPDEST PUSH1 0x0 PUSH20 0xFFFFFFFFFFFFFFFFFFFFFFFFFFFFFFFFFFFFFFFF AND PUSH1 0x1 PUSH1 0x0 SWAP1 SLOAD SWAP1 PUSH2 0x100 EXP SWAP1 DIV PUSH20 0xFFFFFFFFFFFFFFFFFFFFFFFFFFFFFFFFFFFFFFFF AND PUSH20 0xFFFFFFFFFFFFFFFFFFFFFFFFFFFFFFFFFFFFFFFF AND SUB PUSH2 0x60A JUMPI PUSH1 0x40 MLOAD PUSH32 0x8C379A000000000000000000000000000000000000000000000000000000000 DUP2 MSTORE PUSH1 0x4 ADD PUSH2 0x601 SWAP1 PUSH2 0x24CC JUMP JUMPDEST PUSH1 0x40 MLOAD DUP1 SWAP2 SUB SWAP1 REVERT JUMPDEST PUSH1 0x1 PUSH1 0x0 SWAP1 SLOAD SWAP1 PUSH2 0x100 EXP SWAP1 DIV PUSH20 0xFFFFFFFFFFFFFFFFFFFFFFFFFFFFFFFFFFFFFFFF AND PUSH20 0xFFFFFFFFFFFFFFFFFFFFFFFFFFFFFFFFFFFFFFFF AND CALLER PUSH20 0xFFFFFFFFFFFFFFFFFFFFFFFFFFFFFFFFFFFFFFFF AND EQ PUSH2 0x69A JUMPI PUSH1 0x40 MLOAD PUSH32 0x8C379A000000000000000000000000000000000000000000000000000000000 DUP2 MSTORE PUSH1 0x4 ADD PUSH2 0x691 SWAP1 PUSH2 0x2538 JUMP JUMPDEST PUSH1 0x40 MLOAD DUP1 SWAP2 SUB SWAP1 REVERT JUMPDEST PUSH1 0x0 PUSH20 0xFFFFFFFFFFFFFFFFFFFFFFFFFFFFFFFFFFFFFFFF AND PUSH1 0x1 PUSH1 0x0 SWAP1 SLOAD SWAP1 PUSH2 0x100 EXP SWAP1 DIV PUSH20 0xFFFFFFFFFFFFFFFFFFFFFFFFFFFFFFFFFFFFFFFF AND PUSH20 0xFFFFFFFFFFFFFFFFFFFFFFFFFFFFFFFFFFFFFFFF AND SUB PUSH2 0x72B JUMPI PUSH1 0x40 MLOAD PUSH32 0x8C379A000000000000000000000000000000000000000000000000000000000 DUP2 MSTORE PUSH1 0x4 ADD PUSH2 0x722 SWAP1 PUSH2 0x24CC JUMP JUMPDEST PUSH1 0x40 MLOAD DUP1 SWAP2 SUB SWAP1 REVERT JUMPDEST PUSH1 0x0 PUSH20 0xFFFFFFFFFFFFFFFFFFFFFFFFFFFFFFFFFFFFFFFF AND DUP2 PUSH20 0xFFFFFFFFFFFFFFFFFFFFFFFFFFFFFFFFFFFFFFFF AND SUB PUSH2 0x764 JUMPI PUSH1 0x0 DUP1 REVERT JUMPDEST DUP1 PUSH1 0x1 PUSH1 0x0 PUSH2 0x100 EXP DUP2 SLOAD DUP2 PUSH20 0xFFFFFFFFFFFFFFFFFFFFFFFFFFFFFFFFFFFFFFFF MUL NOT AND SWAP1 DUP4 PUSH20 0xFFFFFFFFFFFFFFFFFFFFFFFFFFFFFFFFFFFFFFFF AND MUL OR SWAP1 SSTORE POP POP JUMP JUMPDEST PUSH2 0x7B0 PUSH2 0x1E87 JUMP JUMPDEST CALLER PUSH20 0xFFFFFFFFFFFFFFFFFFFFFFFFFFFFFFFFFFFFFFFF AND PUSH32 0x0 PUSH20 0xFFFFFFFFFFFFFFFFFFFFFFFFFFFFFFFFFFFFFFFF AND EQ PUSH2 0x83E JUMPI PUSH1 0x40 MLOAD PUSH32 0x8C379A000000000000000000000000000000000000000000000000000000000 DUP2 MSTORE PUSH1 0x4 ADD PUSH2 0x835 SWAP1 PUSH2 0x25CA JUMP JUMPDEST PUSH1 0x40 MLOAD DUP1 SWAP2 SUB SWAP1 REVERT JUMPDEST PUSH1 0x0 PUSH20 0xFFFFFFFFFFFFFFFFFFFFFFFFFFFFFFFFFFFFFFFF AND PUSH1 0x1 PUSH1 0x0 SWAP1 SLOAD SWAP1 PUSH2 0x100 EXP SWAP1 DIV PUSH20 0xFFFFFFFFFFFFFFFFFFFFFFFFFFFFFFFFFFFFFFFF AND PUSH20 0xFFFFFFFFFFFFFFFFFFFFFFFFFFFFFFFFFFFFFFFF AND EQ PUSH2 0x8CF JUMPI PUSH1 0x40 MLOAD PUSH32 0x8C379A000000000000000000000000000000000000000000000000000000000 DUP2 MSTORE PUSH1 0x4 ADD PUSH2 0x8C6 SWAP1 PUSH2 0x2636 JUMP JUMPDEST PUSH1 0x40 MLOAD DUP1 SWAP2 SUB SWAP1 REVERT JUMPDEST CALLER PUSH1 0x1 PUSH1 0x0 PUSH2 0x100 EXP DUP2 SLOAD DUP2 PUSH20 0xFFFFFFFFFFFFFFFFFFFFFFFFFFFFFFFFFFFFFFFF MUL NOT AND SWAP1 DUP4 PUSH20 0xFFFFFFFFFFFFFFFFFFFFFFFFFFFFFFFFFFFFFFFF AND MUL OR SWAP1 SSTORE POP JUMP JUMPDEST PUSH1 0x0 DUP1 PUSH20 0xFFFFFFFFFFFFFFFFFFFFFFFFFFFFFFFFFFFFFFFF AND PUSH1 0x1 PUSH1 0x0 SWAP1 SLOAD SWAP1 PUSH2 0x100 EXP SWAP1 DIV PUSH20 0xFFFFFFFFFFFFFFFFFFFFFFFFFFFFFFFFFFFFFFFF AND PUSH20 0xFFFFFFFFFFFFFFFFFFFFFFFFFFFFFFFFFFFFFFFF AND SUB PUSH2 0x9A4 JUMPI PUSH1 0x40 MLOAD PUSH32 0x8C379A000000000000000000000000000000000000000000000000000000000 DUP2 MSTORE PUSH1 0x4 ADD PUSH2 0x99B SWAP1 PUSH2 0x24CC JUMP JUMPDEST PUSH1 0x40 MLOAD DUP1 SWAP2 SUB SWAP1 REVERT JUMPDEST PUSH1 0x1 PUSH1 0x0 SWAP1 SLOAD SWAP1 PUSH2 0x100 EXP SWAP1 DIV PUSH20 0xFFFFFFFFFFFFFFFFFFFFFFFFFFFFFFFFFFFFFFFF AND PUSH20 0xFFFFFFFFFFFFFFFFFFFFFFFFFFFFFFFFFFFFFFFF AND CALLER PUSH20 0xFFFFFFFFFFFFFFFFFFFFFFFFFFFFFFFFFFFFFFFF AND EQ DUP1 PUSH2 0xA32 JUMPI POP PUSH2 0xA03 PUSH2 0x110A JUMP JUMPDEST PUSH20 0xFFFFFFFFFFFFFFFFFFFFFFFFFFFFFFFFFFFFFFFF AND CALLER PUSH20 0xFFFFFFFFFFFFFFFFFFFFFFFFFFFFFFFFFFFFFFFF AND EQ JUMPDEST PUSH2 0xA71 JUMPI PUSH1 0x40 MLOAD PUSH32 0x8C379A000000000000000000000000000000000000000000000000000000000 DUP2 MSTORE PUSH1 0x4 ADD PUSH2 0xA68 SWAP1 PUSH2 0x26C8 JUMP JUMPDEST PUSH1 0x40 MLOAD DUP1 SWAP2 SUB SWAP1 REVERT JUMPDEST PUSH1 0x4 SLOAD SWAP1 POP SWAP1 JUMP JUMPDEST PUSH2 0xA81 PUSH2 0x1DA7 JUMP JUMPDEST PUSH1 0x7 SLOAD PUSH1 0x6 SLOAD PUSH2 0xA91 SWAP2 SWAP1 PUSH2 0x2717 JUMP JUMPDEST DUP2 GT ISZERO PUSH1 0x8 PUSH1 0x40 MLOAD PUSH1 0x20 ADD PUSH2 0xAA6 SWAP2 SWAP1 PUSH2 0x28C0 JUMP JUMPDEST PUSH1 0x40 MLOAD PUSH1 0x20 DUP2 DUP4 SUB SUB DUP2 MSTORE SWAP1 PUSH1 0x40 MSTORE SWAP1 PUSH2 0xAF6 JUMPI PUSH1 0x40 MLOAD PUSH32 0x8C379A000000000000000000000000000000000000000000000000000000000 DUP2 MSTORE PUSH1 0x4 ADD PUSH2 0xAED SWAP2 SWAP1 PUSH2 0x245E JUMP JUMPDEST PUSH1 0x40 MLOAD DUP1 SWAP2 SUB SWAP1 REVERT JUMPDEST POP PUSH1 0x0 DUP2 GT PUSH2 0xB3A JUMPI PUSH1 0x40 MLOAD PUSH32 0x8C379A000000000000000000000000000000000000000000000000000000000 DUP2 MSTORE PUSH1 0x4 ADD PUSH2 0xB31 SWAP1 PUSH2 0x2954 JUMP JUMPDEST PUSH1 0x40 MLOAD DUP1 SWAP2 SUB SWAP1 REVERT JUMPDEST DUP1 PUSH1 0x7 PUSH1 0x0 DUP3 DUP3 SLOAD PUSH2 0xB4C SWAP2 SWAP1 PUSH2 0x2974 JUMP JUMPDEST SWAP3 POP POP DUP2 SWAP1 SSTORE POP POP JUMP JUMPDEST PUSH2 0xB5E PUSH2 0x1DA7 JUMP JUMPDEST PUSH1 0x0 PUSH1 0x7 SLOAD GT PUSH2 0xBA3 JUMPI PUSH1 0x40 MLOAD PUSH32 0x8C379A000000000000000000000000000000000000000000000000000000000 DUP2 MSTORE PUSH1 0x4 ADD PUSH2 0xB9A SWAP1 PUSH2 0x29F4 JUMP JUMPDEST PUSH1 0x40 MLOAD DUP1 SWAP2 SUB SWAP1 REVERT JUMPDEST PUSH1 0x0 PUSH1 0x7 SLOAD PUSH1 0x6 SLOAD PUSH2 0xBB5 SWAP2 SWAP1 PUSH2 0x2717 JUMP JUMPDEST GT PUSH2 0xBF5 JUMPI PUSH1 0x40 MLOAD PUSH32 0x8C379A000000000000000000000000000000000000000000000000000000000 DUP2 MSTORE PUSH1 0x4 ADD PUSH2 0xBEC SWAP1 PUSH2 0x2A60 JUMP JUMPDEST PUSH1 0x40 MLOAD DUP1 SWAP2 SUB SWAP1 REVERT JUMPDEST PUSH1 0x7 SLOAD PUSH1 0x6 PUSH1 0x0 DUP3 DUP3 SLOAD PUSH2 0xC09 SWAP2 SWAP1 PUSH2 0x2717 JUMP JUMPDEST SWAP3 POP POP DUP2 SWAP1 SSTORE POP PUSH1 0x0 PUSH1 0x7 DUP2 SWAP1 SSTORE POP JUMP JUMPDEST PUSH1 0x0 PUSH20 0xFFFFFFFFFFFFFFFFFFFFFFFFFFFFFFFFFFFFFFFF AND PUSH1 0x1 PUSH1 0x0 SWAP1 SLOAD SWAP1 PUSH2 0x100 EXP SWAP1 DIV PUSH20 0xFFFFFFFFFFFFFFFFFFFFFFFFFFFFFFFFFFFFFFFF AND PUSH20 0xFFFFFFFFFFFFFFFFFFFFFFFFFFFFFFFFFFFFFFFF AND SUB PUSH2 0xCAB JUMPI PUSH1 0x40 MLOAD PUSH32 0x8C379A000000000000000000000000000000000000000000000000000000000 DUP2 MSTORE PUSH1 0x4 ADD PUSH2 0xCA2 SWAP1 PUSH2 0x24CC JUMP JUMPDEST PUSH1 0x40 MLOAD DUP1 SWAP2 SUB SWAP1 REVERT JUMPDEST PUSH1 0x1 PUSH1 0x0 SWAP1 SLOAD SWAP1 PUSH2 0x100 EXP SWAP1 DIV PUSH20 0xFFFFFFFFFFFFFFFFFFFFFFFFFFFFFFFFFFFFFFFF AND PUSH20 0xFFFFFFFFFFFFFFFFFFFFFFFFFFFFFFFFFFFFFFFF AND CALLER PUSH20 0xFFFFFFFFFFFFFFFFFFFFFFFFFFFFFFFFFFFFFFFF AND EQ PUSH2 0xD3B JUMPI PUSH1 0x40 MLOAD PUSH32 0x8C379A000000000000000000000000000000000000000000000000000000000 DUP2 MSTORE PUSH1 0x4 ADD PUSH2 0xD32 SWAP1 PUSH2 0x2538 JUMP JUMPDEST PUSH1 0x40 MLOAD DUP1 SWAP2 SUB SWAP1 REVERT JUMPDEST PUSH2 0xD43 PUSH2 0x1E87 JUMP JUMPDEST PUSH1 0x0 PUSH1 0x1 PUSH1 0x0 PUSH2 0x100 EXP DUP2 SLOAD DUP2 PUSH20 0xFFFFFFFFFFFFFFFFFFFFFFFFFFFFFFFFFFFFFFFF MUL NOT AND SWAP1 DUP4 PUSH20 0xFFFFFFFFFFFFFFFFFFFFFFFFFFFFFFFFFFFFFFFF AND MUL OR SWAP1 SSTORE POP JUMP JUMPDEST PUSH1 0x0 DUP1 PUSH1 0x0 SWAP1 SLOAD SWAP1 PUSH2 0x100 EXP SWAP1 DIV PUSH1 0xFF AND SWAP1 POP SWAP1 JUMP JUMPDEST PUSH1 0x0 PUSH2 0xDA7 PUSH2 0x1DA7 JUMP JUMPDEST DUP2 PUSH2 0xDB1 DUP6 PUSH2 0x1621 JUMP JUMPDEST LT ISZERO PUSH2 0xDF2 JUMPI PUSH1 0x40 MLOAD PUSH32 0x8C379A000000000000000000000000000000000000000000000000000000000 DUP2 MSTORE PUSH1 0x4 ADD PUSH2 0xDE9 SWAP1 PUSH2 0x2ACC JUMP JUMPDEST PUSH1 0x40 MLOAD DUP1 SWAP2 SUB SWAP1 REVERT JUMPDEST DUP4 PUSH20 0xFFFFFFFFFFFFFFFFFFFFFFFFFFFFFFFFFFFFFFFF AND PUSH4 0xA9059CBB DUP5 DUP5 PUSH1 0x40 MLOAD DUP4 PUSH4 0xFFFFFFFF AND PUSH1 0xE0 SHL DUP2 MSTORE PUSH1 0x4 ADD PUSH2 0xE2D SWAP3 SWAP2 SWAP1 PUSH2 0x2AEC JUMP JUMPDEST PUSH1 0x20 PUSH1 0x40 MLOAD DUP1 DUP4 SUB DUP2 PUSH1 0x0 DUP8 GAS CALL ISZERO DUP1 ISZERO PUSH2 0xE4C JUMPI RETURNDATASIZE PUSH1 0x0 DUP1 RETURNDATACOPY RETURNDATASIZE PUSH1 0x0 REVERT JUMPDEST POP POP POP POP PUSH1 0x40 MLOAD RETURNDATASIZE PUSH1 0x1F NOT PUSH1 0x1F DUP3 ADD AND DUP3 ADD DUP1 PUSH1 0x40 MSTORE POP DUP2 ADD SWAP1 PUSH2 0xE70 SWAP2 SWAP1 PUSH2 0x2B41 JUMP JUMPDEST SWAP1 POP SWAP4 SWAP3 POP POP POP JUMP JUMPDEST PUSH2 0xE81 PUSH2 0x1DA7 JUMP JUMPDEST PUSH2 0xE8B PUSH1 0x0 PUSH2 0x1F33 JUMP JUMPDEST JUMP JUMPDEST PUSH1 0x0 PUSH2 0xE97 PUSH2 0x1DA7 JUMP JUMPDEST PUSH32 0x0 PUSH20 0xFFFFFFFFFFFFFFFFFFFFFFFFFFFFFFFFFFFFFFFF AND PUSH4 0x70A08231 ADDRESS PUSH1 0x40 MLOAD DUP3 PUSH4 0xFFFFFFFF AND PUSH1 0xE0 SHL DUP2 MSTORE PUSH1 0x4 ADD PUSH2 0xEF0 SWAP2 SWAP1 PUSH2 0x21BC JUMP JUMPDEST PUSH1 0x20 PUSH1 0x40 MLOAD DUP1 DUP4 SUB DUP2 DUP7 GAS STATICCALL ISZERO DUP1 ISZERO PUSH2 0xF0D JUMPI RETURNDATASIZE PUSH1 0x0 DUP1 RETURNDATACOPY RETURNDATASIZE PUSH1 0x0 REVERT JUMPDEST POP POP POP POP PUSH1 0x40 MLOAD RETURNDATASIZE PUSH1 0x1F NOT PUSH1 0x1F DUP3 ADD AND DUP3 ADD DUP1 PUSH1 0x40 MSTORE POP DUP2 ADD SWAP1 PUSH2 0xF31 SWAP2 SWAP1 PUSH2 0x2B83 JUMP JUMPDEST SWAP1 POP SWAP1 JUMP JUMPDEST PUSH1 0x0 DUP1 PUSH20 0xFFFFFFFFFFFFFFFFFFFFFFFFFFFFFFFFFFFFFFFF AND PUSH1 0x1 PUSH1 0x0 SWAP1 SLOAD SWAP1 PUSH2 0x100 EXP SWAP1 DIV PUSH20 0xFFFFFFFFFFFFFFFFFFFFFFFFFFFFFFFFFFFFFFFF AND PUSH20 0xFFFFFFFFFFFFFFFFFFFFFFFFFFFFFFFFFFFFFFFF AND SUB PUSH2 0xFC8 JUMPI PUSH1 0x40 MLOAD PUSH32 0x8C379A000000000000000000000000000000000000000000000000000000000 DUP2 MSTORE PUSH1 0x4 ADD PUSH2 0xFBF SWAP1 PUSH2 0x24CC JUMP JUMPDEST PUSH1 0x40 MLOAD DUP1 SWAP2 SUB SWAP1 REVERT JUMPDEST PUSH1 0x1 PUSH1 0x0 SWAP1 SLOAD SWAP1 PUSH2 0x100 EXP SWAP1 DIV PUSH20 0xFFFFFFFFFFFFFFFFFFFFFFFFFFFFFFFFFFFFFFFF AND PUSH20 0xFFFFFFFFFFFFFFFFFFFFFFFFFFFFFFFFFFFFFFFF AND CALLER PUSH20 0xFFFFFFFFFFFFFFFFFFFFFFFFFFFFFFFFFFFFFFFF AND EQ DUP1 PUSH2 0x1056 JUMPI POP PUSH2 0x1027 PUSH2 0x110A JUMP JUMPDEST PUSH20 0xFFFFFFFFFFFFFFFFFFFFFFFFFFFFFFFFFFFFFFFF AND CALLER PUSH20 0xFFFFFFFFFFFFFFFFFFFFFFFFFFFFFFFFFFFFFFFF AND EQ JUMPDEST PUSH2 0x1095 JUMPI PUSH1 0x40 MLOAD PUSH32 0x8C379A000000000000000000000000000000000000000000000000000000000 DUP2 MSTORE PUSH1 0x4 ADD PUSH2 0x108C SWAP1 PUSH2 0x26C8 JUMP JUMPDEST PUSH1 0x40 MLOAD DUP1 SWAP2 SUB SWAP1 REVERT JUMPDEST PUSH1 0x0 DUP4 GT PUSH2 0x10D8 JUMPI PUSH1 0x40 MLOAD PUSH32 0x8C379A000000000000000000000000000000000000000000000000000000000 DUP2 MSTORE PUSH1 0x4 ADD PUSH2 0x10CF SWAP1 PUSH2 0x2BFC JUMP JUMPDEST PUSH1 0x40 MLOAD DUP1 SWAP2 SUB SWAP1 REVERT JUMPDEST PUSH1 0x0 DUP3 PUSH1 0xA PUSH2 0x10E7 SWAP2 SWAP1 PUSH2 0x2D4F JUMP JUMPDEST DUP6 PUSH2 0x10F2 SWAP2 SWAP1 PUSH2 0x2D9A JUMP JUMPDEST SWAP1 POP DUP4 DUP2 PUSH2 0x1100 SWAP2 SWAP1 PUSH2 0x2E0B JUMP JUMPDEST SWAP2 POP POP SWAP4 SWAP3 POP POP POP JUMP JUMPDEST PUSH1 0x0 DUP1 PUSH1 0x1 SWAP1 SLOAD SWAP1 PUSH2 0x100 EXP SWAP1 DIV PUSH20 0xFFFFFFFFFFFFFFFFFFFFFFFFFFFFFFFFFFFFFFFF AND SWAP1 POP SWAP1 JUMP JUMPDEST PUSH1 0x0 DUP1 PUSH20 0xFFFFFFFFFFFFFFFFFFFFFFFFFFFFFFFFFFFFFFFF AND PUSH1 0x1 PUSH1 0x0 SWAP1 SLOAD SWAP1 PUSH2 0x100 EXP SWAP1 DIV PUSH20 0xFFFFFFFFFFFFFFFFFFFFFFFFFFFFFFFFFFFFFFFF AND PUSH20 0xFFFFFFFFFFFFFFFFFFFFFFFFFFFFFFFFFFFFFFFF AND SUB PUSH2 0x11C5 JUMPI PUSH1 0x40 MLOAD PUSH32 0x8C379A000000000000000000000000000000000000000000000000000000000 DUP2 MSTORE PUSH1 0x4 ADD PUSH2 0x11BC SWAP1 PUSH2 0x24CC JUMP JUMPDEST PUSH1 0x40 MLOAD DUP1 SWAP2 SUB SWAP1 REVERT JUMPDEST PUSH1 0x1 PUSH1 0x0 SWAP1 SLOAD SWAP1 PUSH2 0x100 EXP SWAP1 DIV PUSH20 0xFFFFFFFFFFFFFFFFFFFFFFFFFFFFFFFFFFFFFFFF AND PUSH20 0xFFFFFFFFFFFFFFFFFFFFFFFFFFFFFFFFFFFFFFFF AND CALLER PUSH20 0xFFFFFFFFFFFFFFFFFFFFFFFFFFFFFFFFFFFFFFFF AND EQ DUP1 PUSH2 0x1253 JUMPI POP PUSH2 0x1224 PUSH2 0x110A JUMP JUMPDEST PUSH20 0xFFFFFFFFFFFFFFFFFFFFFFFFFFFFFFFFFFFFFFFF AND CALLER PUSH20 0xFFFFFFFFFFFFFFFFFFFFFFFFFFFFFFFFFFFFFFFF AND EQ JUMPDEST PUSH2 0x1292 JUMPI PUSH1 0x40 MLOAD PUSH32 0x8C379A000000000000000000000000000000000000000000000000000000000 DUP2 MSTORE PUSH1 0x4 ADD PUSH2 0x1289 SWAP1 PUSH2 0x26C8 JUMP JUMPDEST PUSH1 0x40 MLOAD DUP1 SWAP2 SUB SWAP1 REVERT JUMPDEST PUSH1 0x7 SLOAD SWAP1 POP SWAP1 JUMP JUMPDEST PUSH1 0x0 DUP1 PUSH20 0xFFFFFFFFFFFFFFFFFFFFFFFFFFFFFFFFFFFFFFFF AND PUSH1 0x1 PUSH1 0x0 SWAP1 SLOAD SWAP1 PUSH2 0x100 EXP SWAP1 DIV PUSH20 0xFFFFFFFFFFFFFFFFFFFFFFFFFFFFFFFFFFFFFFFF AND PUSH20 0xFFFFFFFFFFFFFFFFFFFFFFFFFFFFFFFFFFFFFFFF AND SUB PUSH2 0x132C JUMPI PUSH1 0x40 MLOAD PUSH32 0x8C379A000000000000000000000000000000000000000000000000000000000 DUP2 MSTORE PUSH1 0x4 ADD PUSH2 0x1323 SWAP1 PUSH2 0x24CC JUMP JUMPDEST PUSH1 0x40 MLOAD DUP1 SWAP2 SUB SWAP1 REVERT JUMPDEST PUSH1 0x1 PUSH1 0x0 SWAP1 SLOAD SWAP1 PUSH2 0x100 EXP SWAP1 DIV PUSH20 0xFFFFFFFFFFFFFFFFFFFFFFFFFFFFFFFFFFFFFFFF AND PUSH20 0xFFFFFFFFFFFFFFFFFFFFFFFFFFFFFFFFFFFFFFFF AND CALLER PUSH20 0xFFFFFFFFFFFFFFFFFFFFFFFFFFFFFFFFFFFFFFFF AND EQ DUP1 PUSH2 0x13BA JUMPI POP PUSH2 0x138B PUSH2 0x110A JUMP JUMPDEST PUSH20 0xFFFFFFFFFFFFFFFFFFFFFFFFFFFFFFFFFFFFFFFF AND CALLER PUSH20 0xFFFFFFFFFFFFFFFFFFFFFFFFFFFFFFFFFFFFFFFF AND EQ JUMPDEST PUSH2 0x13F9 JUMPI PUSH1 0x40 MLOAD PUSH32 0x8C379A000000000000000000000000000000000000000000000000000000000 DUP2 MSTORE PUSH1 0x4 ADD PUSH2 0x13F0 SWAP1 PUSH2 0x26C8 JUMP JUMPDEST PUSH1 0x40 MLOAD DUP1 SWAP2 SUB SWAP1 REVERT JUMPDEST PUSH1 0x5 SLOAD SWAP1 POP SWAP1 JUMP JUMPDEST PUSH1 0x0 PUSH1 0x60 PUSH1 0x1 PUSH1 0x0 SWAP1 SLOAD SWAP1 PUSH2 0x100 EXP SWAP1 DIV PUSH20 0xFFFFFFFFFFFFFFFFFFFFFFFFFFFFFFFFFFFFFFFF AND PUSH20 0xFFFFFFFFFFFFFFFFFFFFFFFFFFFFFFFFFFFFFFFF AND CALLER PUSH20 0xFFFFFFFFFFFFFFFFFFFFFFFFFFFFFFFFFFFFFFFF AND EQ DUP1 PUSH2 0x1493 JUMPI POP PUSH2 0x1464 PUSH2 0x110A JUMP JUMPDEST PUSH20 0xFFFFFFFFFFFFFFFFFFFFFFFFFFFFFFFFFFFFFFFF AND CALLER PUSH20 0xFFFFFFFFFFFFFFFFFFFFFFFFFFFFFFFFFFFFFFFF AND EQ JUMPDEST PUSH2 0x14D2 JUMPI PUSH1 0x40 MLOAD PUSH32 0x8C379A000000000000000000000000000000000000000000000000000000000 DUP2 MSTORE PUSH1 0x4 ADD PUSH2 0x14C9 SWAP1 PUSH2 0x26C8 JUMP JUMPDEST PUSH1 0x40 MLOAD DUP1 SWAP2 SUB SWAP1 REVERT JUMPDEST PUSH32 0x0 PUSH1 0x8 DUP1 DUP1 SLOAD PUSH2 0x1501 SWAP1 PUSH2 0x27F7 JUMP JUMPDEST DUP1 PUSH1 0x1F ADD PUSH1 0x20 DUP1 SWAP2 DIV MUL PUSH1 0x20 ADD PUSH1 0x40 MLOAD SWAP1 DUP2 ADD PUSH1 0x40 MSTORE DUP1 SWAP3 SWAP2 SWAP1 DUP2 DUP2 MSTORE PUSH1 0x20 ADD DUP3 DUP1 SLOAD PUSH2 0x152D SWAP1 PUSH2 0x27F7 JUMP JUMPDEST DUP1 ISZERO PUSH2 0x157A JUMPI DUP1 PUSH1 0x1F LT PUSH2 0x154F JUMPI PUSH2 0x100 DUP1 DUP4 SLOAD DIV MUL DUP4 MSTORE SWAP2 PUSH1 0x20 ADD SWAP2 PUSH2 0x157A JUMP JUMPDEST DUP3 ADD SWAP2 SWAP1 PUSH1 0x0 MSTORE PUSH1 0x20 PUSH1 0x0 KECCAK256 SWAP1 JUMPDEST DUP2 SLOAD DUP2 MSTORE SWAP1 PUSH1 0x1 ADD SWAP1 PUSH1 0x20 ADD DUP1 DUP4 GT PUSH2 0x155D JUMPI DUP3 SWAP1 SUB PUSH1 0x1F AND DUP3 ADD SWAP2 JUMPDEST POP POP POP POP POP SWAP1 POP SWAP2 POP SWAP2 POP SWAP1 SWAP2 JUMP JUMPDEST PUSH2 0x1591 PUSH2 0x1DA7 JUMP JUMPDEST DUP1 PUSH1 0x2 PUSH1 0x0 PUSH2 0x100 EXP DUP2 SLOAD DUP2 PUSH20 0xFFFFFFFFFFFFFFFFFFFFFFFFFFFFFFFFFFFFFFFF MUL NOT AND SWAP1 DUP4 PUSH20 0xFFFFFFFFFFFFFFFFFFFFFFFFFFFFFFFFFFFFFFFF AND MUL OR SWAP1 SSTORE POP POP JUMP JUMPDEST PUSH2 0x15DD PUSH2 0x1DA7 JUMP JUMPDEST DUP1 PUSH1 0x3 PUSH1 0x0 PUSH2 0x100 EXP DUP2 SLOAD DUP2 PUSH20 0xFFFFFFFFFFFFFFFFFFFFFFFFFFFFFFFFFFFFFFFF MUL NOT AND SWAP1 DUP4 PUSH20 0xFFFFFFFFFFFFFFFFFFFFFFFFFFFFFFFFFFFFFFFF AND MUL OR SWAP1 SSTORE POP POP JUMP JUMPDEST PUSH1 0x0 PUSH2 0x162B PUSH2 0x1DA7 JUMP JUMPDEST DUP2 PUSH20 0xFFFFFFFFFFFFFFFFFFFFFFFFFFFFFFFFFFFFFFFF AND PUSH4 0x70A08231 ADDRESS PUSH1 0x40 MLOAD DUP3 PUSH4 0xFFFFFFFF AND PUSH1 0xE0 SHL DUP2 MSTORE PUSH1 0x4 ADD PUSH2 0x1664 SWAP2 SWAP1 PUSH2 0x21BC JUMP JUMPDEST PUSH1 0x20 PUSH1 0x40 MLOAD DUP1 DUP4 SUB DUP2 DUP7 GAS STATICCALL ISZERO DUP1 ISZERO PUSH2 0x1681 JUMPI RETURNDATASIZE PUSH1 0x0 DUP1 RETURNDATACOPY RETURNDATASIZE PUSH1 0x0 REVERT JUMPDEST POP POP POP POP PUSH1 0x40 MLOAD RETURNDATASIZE PUSH1 0x1F NOT PUSH1 0x1F DUP3 ADD AND DUP3 ADD DUP1 PUSH1 0x40 MSTORE POP DUP2 ADD SWAP1 PUSH2 0x16A5 SWAP2 SWAP1 PUSH2 0x2B83 JUMP JUMPDEST SWAP1 POP SWAP2 SWAP1 POP JUMP JUMPDEST PUSH1 0x0 PUSH32 0x0 SWAP1 POP SWAP1 JUMP JUMPDEST PUSH1 0x60 PUSH2 0x16DE PUSH2 0x1DA7 JUMP JUMPDEST PUSH1 0x60 PUSH1 0x1 PUSH1 0x14 SWAP1 SLOAD SWAP1 PUSH2 0x100 EXP SWAP1 DIV PUSH1 0xFF AND PUSH2 0x1732 JUMPI PUSH1 0x40 MLOAD DUP1 PUSH1 0x40 ADD PUSH1 0x40 MSTORE DUP1 PUSH1 0xC DUP2 MSTORE PUSH1 0x20 ADD PUSH32 0x41676772656761746F7256330000000000000000000000000000000000000000 DUP2 MSTORE POP SWAP1 POP DUP1 PUSH2 0x176C JUMP JUMPDEST PUSH1 0x40 MLOAD DUP1 PUSH1 0x40 ADD PUSH1 0x40 MSTORE DUP1 PUSH1 0x4 DUP2 MSTORE PUSH1 0x20 ADD PUSH32 0x506F6F6C00000000000000000000000000000000000000000000000000000000 DUP2 MSTORE POP SWAP1 POP DUP1 JUMPDEST POP DUP1 SWAP2 POP POP SWAP1 JUMP JUMPDEST PUSH2 0x177C PUSH2 0x1DA7 JUMP JUMPDEST PUSH1 0x1 PUSH1 0x14 SWAP1 SLOAD SWAP1 PUSH2 0x100 EXP SWAP1 DIV PUSH1 0xFF AND ISZERO PUSH1 0x1 PUSH1 0x14 PUSH2 0x100 EXP DUP2 SLOAD DUP2 PUSH1 0xFF MUL NOT AND SWAP1 DUP4 ISZERO ISZERO MUL OR SWAP1 SSTORE POP JUMP JUMPDEST PUSH1 0x0 PUSH2 0x17B2 PUSH2 0x1E87 JUMP JUMPDEST PUSH1 0x0 PUSH20 0xFFFFFFFFFFFFFFFFFFFFFFFFFFFFFFFFFFFFFFFF AND PUSH1 0x1 PUSH1 0x0 SWAP1 SLOAD SWAP1 PUSH2 0x100 EXP SWAP1 DIV PUSH20 0xFFFFFFFFFFFFFFFFFFFFFFFFFFFFFFFFFFFFFFFF AND PUSH20 0xFFFFFFFFFFFFFFFFFFFFFFFFFFFFFFFFFFFFFFFF AND SUB PUSH2 0x1843 JUMPI PUSH1 0x40 MLOAD PUSH32 0x8C379A000000000000000000000000000000000000000000000000000000000 DUP2 MSTORE PUSH1 0x4 ADD PUSH2 0x183A SWAP1 PUSH2 0x24CC JUMP JUMPDEST PUSH1 0x40 MLOAD DUP1 SWAP2 SUB SWAP1 REVERT JUMPDEST PUSH1 0x1 PUSH1 0x0 SWAP1 SLOAD SWAP1 PUSH2 0x100 EXP SWAP1 DIV PUSH20 0xFFFFFFFFFFFFFFFFFFFFFFFFFFFFFFFFFFFFFFFF AND PUSH20 0xFFFFFFFFFFFFFFFFFFFFFFFFFFFFFFFFFFFFFFFF AND CALLER PUSH20 0xFFFFFFFFFFFFFFFFFFFFFFFFFFFFFFFFFFFFFFFF AND EQ PUSH2 0x18D3 JUMPI PUSH1 0x40 MLOAD PUSH32 0x8C379A000000000000000000000000000000000000000000000000000000000 DUP2 MSTORE PUSH1 0x4 ADD PUSH2 0x18CA SWAP1 PUSH2 0x2538 JUMP JUMPDEST PUSH1 0x40 MLOAD DUP1 SWAP2 SUB SWAP1 REVERT JUMPDEST PUSH1 0x0 DUP3 GT PUSH2 0x1916 JUMPI PUSH1 0x40 MLOAD PUSH32 0x8C379A000000000000000000000000000000000000000000000000000000000 DUP2 MSTORE PUSH1 0x4 ADD PUSH2 0x190D SWAP1 PUSH2 0x2E88 JUMP JUMPDEST PUSH1 0x40 MLOAD DUP1 SWAP2 SUB SWAP1 REVERT JUMPDEST PUSH1 0x0 PUSH32 0x0 PUSH20 0xFFFFFFFFFFFFFFFFFFFFFFFFFFFFFFFFFFFFFFFF AND PUSH4 0xDD62ED3E CALLER ADDRESS PUSH1 0x40 MLOAD DUP4 PUSH4 0xFFFFFFFF AND PUSH1 0xE0 SHL DUP2 MSTORE PUSH1 0x4 ADD PUSH2 0x1973 SWAP3 SWAP2 SWAP1 PUSH2 0x2EA8 JUMP JUMPDEST PUSH1 0x20 PUSH1 0x40 MLOAD DUP1 DUP4 SUB DUP2 DUP7 GAS STATICCALL ISZERO DUP1 ISZERO PUSH2 0x1990 JUMPI RETURNDATASIZE PUSH1 0x0 DUP1 RETURNDATACOPY RETURNDATASIZE PUSH1 0x0 REVERT JUMPDEST POP POP POP POP PUSH1 0x40 MLOAD RETURNDATASIZE PUSH1 0x1F NOT PUSH1 0x1F DUP3 ADD AND DUP3 ADD DUP1 PUSH1 0x40 MSTORE POP DUP2 ADD SWAP1 PUSH2 0x19B4 SWAP2 SWAP1 PUSH2 0x2B83 JUMP JUMPDEST SWAP1 POP DUP3 DUP2 LT ISZERO PUSH1 0x8 PUSH1 0x40 MLOAD PUSH1 0x20 ADD PUSH2 0x19CC SWAP2 SWAP1 PUSH2 0x2F43 JUMP JUMPDEST PUSH1 0x40 MLOAD PUSH1 0x20 DUP2 DUP4 SUB SUB DUP2 MSTORE SWAP1 PUSH1 0x40 MSTORE SWAP1 PUSH2 0x1A1C JUMPI PUSH1 0x40 MLOAD PUSH32 0x8C379A000000000000000000000000000000000000000000000000000000000 DUP2 MSTORE PUSH1 0x4 ADD PUSH2 0x1A13 SWAP2 SWAP1 PUSH2 0x245E JUMP JUMPDEST PUSH1 0x40 MLOAD DUP1 SWAP2 SUB SWAP1 REVERT JUMPDEST POP PUSH32 0x0 PUSH20 0xFFFFFFFFFFFFFFFFFFFFFFFFFFFFFFFFFFFFFFFF AND PUSH4 0x23B872DD CALLER ADDRESS DUP7 PUSH1 0x40 MLOAD DUP5 PUSH4 0xFFFFFFFF AND PUSH1 0xE0 SHL DUP2 MSTORE PUSH1 0x4 ADD PUSH2 0x1A7A SWAP4 SWAP3 SWAP2 SWAP1 PUSH2 0x2F87 JUMP JUMPDEST PUSH1 0x20 PUSH1 0x40 MLOAD DUP1 DUP4 SUB DUP2 PUSH1 0x0 DUP8 GAS CALL ISZERO DUP1 ISZERO PUSH2 0x1A99 JUMPI RETURNDATASIZE PUSH1 0x0 DUP1 RETURNDATACOPY RETURNDATASIZE PUSH1 0x0 REVERT JUMPDEST POP POP POP POP PUSH1 0x40 MLOAD RETURNDATASIZE PUSH1 0x1F NOT PUSH1 0x1F DUP3 ADD AND DUP3 ADD DUP1 PUSH1 0x40 MSTORE POP DUP2 ADD SWAP1 PUSH2 0x1ABD SWAP2 SWAP1 PUSH2 0x2B41 JUMP JUMPDEST POP PUSH1 0x0 DUP1 PUSH1 0x0 DUP1 PUSH2 0x1ACC PUSH2 0x1FF8 JUMP JUMPDEST SWAP4 POP SWAP4 POP SWAP4 POP SWAP4 POP PUSH2 0x1ADD DUP8 PUSH2 0x204F JUMP JUMPDEST POP PUSH1 0x0 PUSH2 0x1AEB DUP9 DUP7 DUP7 PUSH2 0x2140 JUMP JUMPDEST SWAP1 POP DUP1 PUSH1 0x6 PUSH1 0x0 DUP3 DUP3 SLOAD PUSH2 0x1AFF SWAP2 SWAP1 PUSH2 0x2974 JUMP JUMPDEST SWAP3 POP POP DUP2 SWAP1 SSTORE POP DUP1 PUSH1 0x5 PUSH1 0x0 DUP3 DUP3 SLOAD PUSH2 0x1B18 SWAP2 SWAP1 PUSH2 0x2974 JUMP JUMPDEST SWAP3 POP POP DUP2 SWAP1 SSTORE POP PUSH1 0x0 TIMESTAMP SWAP1 POP DUP1 DUP10 DUP4 PUSH32 0xB5AEB7B225999ADC33232BE2121AFB1A366C15108C1DA745D17FD76108172FE4 DUP10 DUP10 DUP9 DUP11 PUSH1 0x40 MLOAD PUSH2 0x1B5C SWAP5 SWAP4 SWAP3 SWAP2 SWAP1 PUSH2 0x2FBE JUMP JUMPDEST PUSH1 0x40 MLOAD DUP1 SWAP2 SUB SWAP1 LOG4 PUSH1 0x1 SWAP8 POP POP POP POP POP POP POP POP SWAP2 SWAP1 POP JUMP JUMPDEST PUSH2 0x1B7C PUSH2 0x1DA7 JUMP JUMPDEST PUSH1 0x0 PUSH20 0xFFFFFFFFFFFFFFFFFFFFFFFFFFFFFFFFFFFFFFFF AND DUP2 PUSH20 0xFFFFFFFFFFFFFFFFFFFFFFFFFFFFFFFFFFFFFFFF AND SUB PUSH2 0x1BEB JUMPI PUSH1 0x40 MLOAD PUSH32 0x8C379A000000000000000000000000000000000000000000000000000000000 DUP2 MSTORE PUSH1 0x4 ADD PUSH2 0x1BE2 SWAP1 PUSH2 0x307C JUMP JUMPDEST PUSH1 0x40 MLOAD DUP1 SWAP2 SUB SWAP1 REVERT JUMPDEST PUSH2 0x1BF4 DUP2 PUSH2 0x1F33 JUMP JUMPDEST POP JUMP JUMPDEST PUSH1 0x0 DUP1 PUSH20 0xFFFFFFFFFFFFFFFFFFFFFFFFFFFFFFFFFFFFFFFF AND PUSH1 0x1 PUSH1 0x0 SWAP1 SLOAD SWAP1 PUSH2 0x100 EXP SWAP1 DIV PUSH20 0xFFFFFFFFFFFFFFFFFFFFFFFFFFFFFFFFFFFFFFFF AND PUSH20 0xFFFFFFFFFFFFFFFFFFFFFFFFFFFFFFFFFFFFFFFF AND SUB PUSH2 0x1C89 JUMPI PUSH1 0x40 MLOAD PUSH32 0x8C379A000000000000000000000000000000000000000000000000000000000 DUP2 MSTORE PUSH1 0x4 ADD PUSH2 0x1C80 SWAP1 PUSH2 0x24CC JUMP JUMPDEST PUSH1 0x40 MLOAD DUP1 SWAP2 SUB SWAP1 REVERT JUMPDEST PUSH1 0x1 PUSH1 0x0 SWAP1 SLOAD SWAP1 PUSH2 0x100 EXP SWAP1 DIV PUSH20 0xFFFFFFFFFFFFFFFFFFFFFFFFFFFFFFFFFFFFFFFF AND PUSH20 0xFFFFFFFFFFFFFFFFFFFFFFFFFFFFFFFFFFFFFFFF AND CALLER PUSH20 0xFFFFFFFFFFFFFFFFFFFFFFFFFFFFFFFFFFFFFFFF AND EQ DUP1 PUSH2 0x1D17 JUMPI POP PUSH2 0x1CE8 PUSH2 0x110A JUMP JUMPDEST PUSH20 0xFFFFFFFFFFFFFFFFFFFFFFFFFFFFFFFFFFFFFFFF AND CALLER PUSH20 0xFFFFFFFFFFFFFFFFFFFFFFFFFFFFFFFFFFFFFFFF AND EQ JUMPDEST PUSH2 0x1D56 JUMPI PUSH1 0x40 MLOAD PUSH32 0x8C379A000000000000000000000000000000000000000000000000000000000 DUP2 MSTORE PUSH1 0x4 ADD PUSH2 0x1D4D SWAP1 PUSH2 0x26C8 JUMP JUMPDEST PUSH1 0x40 MLOAD DUP1 SWAP2 SUB SWAP1 REVERT JUMPDEST PUSH1 0x6 SLOAD SWAP1 POP SWAP1 JUMP JUMPDEST PUSH2 0x1D66 PUSH2 0xD87 JUMP JUMPDEST PUSH2 0x1DA5 JUMPI PUSH1 0x40 MLOAD PUSH32 0x8C379A000000000000000000000000000000000000000000000000000000000 DUP2 MSTORE PUSH1 0x4 ADD PUSH2 0x1D9C SWAP1 PUSH2 0x30E8 JUMP JUMPDEST PUSH1 0x40 MLOAD DUP1 SWAP2 SUB SWAP1 REVERT JUMPDEST JUMP JUMPDEST PUSH2 0x1DAF PUSH2 0x2173 JUMP JUMPDEST PUSH20 0xFFFFFFFFFFFFFFFFFFFFFFFFFFFFFFFFFFFFFFFF AND PUSH2 0x1DCD PUSH2 0x110A JUMP JUMPDEST PUSH20 0xFFFFFFFFFFFFFFFFFFFFFFFFFFFFFFFFFFFFFFFF AND EQ PUSH2 0x1E23 JUMPI PUSH1 0x40 MLOAD PUSH32 0x8C379A000000000000000000000000000000000000000000000000000000000 DUP2 MSTORE PUSH1 0x4 ADD PUSH2 0x1E1A SWAP1 PUSH2 0x3154 JUMP JUMPDEST PUSH1 0x40 MLOAD DUP1 SWAP2 SUB SWAP1 REVERT JUMPDEST JUMP JUMPDEST PUSH2 0x1E2D PUSH2 0x1D5E JUMP JUMPDEST PUSH1 0x0 DUP1 PUSH1 0x0 PUSH2 0x100 EXP DUP2 SLOAD DUP2 PUSH1 0xFF MUL NOT AND SWAP1 DUP4 ISZERO ISZERO MUL OR SWAP1 SSTORE POP PUSH32 0x5DB9EE0A495BF2E6FF9C91A7834C1BA4FDD244A5E8AA4E537BD38AEAE4B073AA PUSH2 0x1E70 PUSH2 0x2173 JUMP JUMPDEST PUSH1 0x40 MLOAD PUSH2 0x1E7D SWAP2 SWAP1 PUSH2 0x21BC JUMP JUMPDEST PUSH1 0x40 MLOAD DUP1 SWAP2 SUB SWAP1 LOG1 JUMP JUMPDEST PUSH2 0x1E8F PUSH2 0xD87 JUMP JUMPDEST ISZERO PUSH2 0x1ECF JUMPI PUSH1 0x40 MLOAD PUSH32 0x8C379A000000000000000000000000000000000000000000000000000000000 DUP2 MSTORE PUSH1 0x4 ADD PUSH2 0x1EC6 SWAP1 PUSH2 0x31C0 JUMP JUMPDEST PUSH1 0x40 MLOAD DUP1 SWAP2 SUB SWAP1 REVERT JUMPDEST JUMP JUMPDEST PUSH2 0x1ED9 PUSH2 0x1E87 JUMP JUMPDEST PUSH1 0x1 PUSH1 0x0 DUP1 PUSH2 0x100 EXP DUP2 SLOAD DUP2 PUSH1 0xFF MUL NOT AND SWAP1 DUP4 ISZERO ISZERO MUL OR SWAP1 SSTORE POP PUSH32 0x62E78CEA01BEE320CD4E420270B5EA74000D11B0C9F74754EBDBFC544B05A258 PUSH2 0x1F1C PUSH2 0x2173 JUMP JUMPDEST PUSH1 0x40 MLOAD PUSH2 0x1F29 SWAP2 SWAP1 PUSH2 0x21BC JUMP JUMPDEST PUSH1 0x40 MLOAD DUP1 SWAP2 SUB SWAP1 LOG1 JUMP JUMPDEST PUSH1 0x0 DUP1 PUSH1 0x1 SWAP1 SLOAD SWAP1 PUSH2 0x100 EXP SWAP1 DIV PUSH20 0xFFFFFFFFFFFFFFFFFFFFFFFFFFFFFFFFFFFFFFFF AND SWAP1 POP DUP2 PUSH1 0x0 PUSH1 0x1 PUSH2 0x100 EXP DUP2 SLOAD DUP2 PUSH20 0xFFFFFFFFFFFFFFFFFFFFFFFFFFFFFFFFFFFFFFFF MUL NOT AND SWAP1 DUP4 PUSH20 0xFFFFFFFFFFFFFFFFFFFFFFFFFFFFFFFFFFFFFFFF AND MUL OR SWAP1 SSTORE POP DUP2 PUSH20 0xFFFFFFFFFFFFFFFFFFFFFFFFFFFFFFFFFFFFFFFF AND DUP2 PUSH20 0xFFFFFFFFFFFFFFFFFFFFFFFFFFFFFFFFFFFFFFFF AND PUSH32 0x8BE0079C531659141344CD1FD0A4F28419497F9722A3DAAFE3B4186F6B6457E0 PUSH1 0x40 MLOAD PUSH1 0x40 MLOAD DUP1 SWAP2 SUB SWAP1 LOG3 POP POP JUMP JUMPDEST PUSH1 0x0 DUP1 PUSH1 0x60 PUSH1 0x0 PUSH3 0xA98AC7 PUSH1 0x8 PUSH4 0x655600AA PUSH1 0x40 MLOAD DUP1 PUSH1 0x40 ADD PUSH1 0x40 MSTORE DUP1 PUSH1 0x12 DUP2 MSTORE PUSH1 0x20 ADD PUSH32 0x66616B65555344542F44756D6D795054524E0000000000000000000000000000 DUP2 MSTORE POP SWAP1 SWAP4 POP SWAP4 POP SWAP4 POP SWAP4 POP SWAP1 SWAP2 SWAP3 SWAP4 JUMP JUMPDEST PUSH1 0x0 DUP1 DUP3 GT PUSH2 0x2093 JUMPI PUSH1 0x40 MLOAD PUSH32 0x8C379A000000000000000000000000000000000000000000000000000000000 DUP2 MSTORE PUSH1 0x4 ADD PUSH2 0x208A SWAP1 PUSH2 0x322C JUMP JUMPDEST PUSH1 0x40 MLOAD DUP1 SWAP2 SUB SWAP1 REVERT JUMPDEST PUSH32 0x0 PUSH20 0xFFFFFFFFFFFFFFFFFFFFFFFFFFFFFFFFFFFFFFFF AND PUSH4 0x42966C68 DUP4 PUSH1 0x40 MLOAD DUP3 PUSH4 0xFFFFFFFF AND PUSH1 0xE0 SHL DUP2 MSTORE PUSH1 0x4 ADD PUSH2 0x20EC SWAP2 SWAP1 PUSH2 0x224E JUMP JUMPDEST PUSH1 0x0 PUSH1 0x40 MLOAD DUP1 DUP4 SUB DUP2 PUSH1 0x0 DUP8 DUP1 EXTCODESIZE ISZERO DUP1 ISZERO PUSH2 0x2106 JUMPI PUSH1 0x0 DUP1 REVERT JUMPDEST POP GAS CALL ISZERO DUP1 ISZERO PUSH2 0x211A JUMPI RETURNDATASIZE PUSH1 0x0 DUP1 RETURNDATACOPY RETURNDATASIZE PUSH1 0x0 REVERT JUMPDEST POP POP POP POP DUP2 PUSH1 0x4 PUSH1 0x0 DUP3 DUP3 SLOAD PUSH2 0x2130 SWAP2 SWAP1 PUSH2 0x2974 JUMP JUMPDEST SWAP3 POP POP DUP2 SWAP1 SSTORE POP PUSH1 0x1 SWAP1 POP SWAP2 SWAP1 POP JUMP JUMPDEST PUSH1 0x0 DUP1 DUP4 DUP6 PUSH2 0x214F SWAP2 SWAP1 PUSH2 0x2D9A JUMP JUMPDEST SWAP1 POP DUP3 PUSH1 0xA PUSH2 0x215E SWAP2 SWAP1 PUSH2 0x2D4F JUMP JUMPDEST DUP2 PUSH2 0x2169 SWAP2 SWAP1 PUSH2 0x2E0B JUMP JUMPDEST SWAP2 POP POP SWAP4 SWAP3 POP POP POP JUMP JUMPDEST PUSH1 0x0 CALLER SWAP1 POP SWAP1 JUMP JUMPDEST PUSH1 0x0 PUSH20 0xFFFFFFFFFFFFFFFFFFFFFFFFFFFFFFFFFFFFFFFF DUP3 AND SWAP1 POP SWAP2 SWAP1 POP JUMP JUMPDEST PUSH1 0x0 PUSH2 0x21A6 DUP3 PUSH2 0x217B JUMP JUMPDEST SWAP1 POP SWAP2 SWAP1 POP JUMP JUMPDEST PUSH2 0x21B6 DUP2 PUSH2 0x219B JUMP JUMPDEST DUP3 MSTORE POP POP JUMP JUMPDEST PUSH1 0x0 PUSH1 0x20 DUP3 ADD SWAP1 POP PUSH2 0x21D1 PUSH1 0x0 DUP4 ADD DUP5 PUSH2 0x21AD JUMP JUMPDEST SWAP3 SWAP2 POP POP JUMP JUMPDEST PUSH1 0x0 DUP1 REVERT JUMPDEST PUSH2 0x21E5 DUP2 PUSH2 0x219B JUMP JUMPDEST DUP2 EQ PUSH2 0x21F0 JUMPI PUSH1 0x0 DUP1 REVERT JUMPDEST POP JUMP JUMPDEST PUSH1 0x0 DUP2 CALLDATALOAD SWAP1 POP PUSH2 0x2202 DUP2 PUSH2 0x21DC JUMP JUMPDEST SWAP3 SWAP2 POP POP JUMP JUMPDEST PUSH1 0x0 PUSH1 0x20 DUP3 DUP5 SUB SLT ISZERO PUSH2 0x221E JUMPI PUSH2 0x221D PUSH2 0x21D7 JUMP JUMPDEST JUMPDEST PUSH1 0x0 PUSH2 0x222C DUP5 DUP3 DUP6 ADD PUSH2 0x21F3 JUMP JUMPDEST SWAP2 POP POP SWAP3 SWAP2 POP POP JUMP JUMPDEST PUSH1 0x0 DUP2 SWAP1 POP SWAP2 SWAP1 POP JUMP JUMPDEST PUSH2 0x2248 DUP2 PUSH2 0x2235 JUMP JUMPDEST DUP3 MSTORE POP POP JUMP JUMPDEST PUSH1 0x0 PUSH1 0x20 DUP3 ADD SWAP1 POP PUSH2 0x2263 PUSH1 0x0 DUP4 ADD DUP5 PUSH2 0x223F JUMP JUMPDEST SWAP3 SWAP2 POP POP JUMP JUMPDEST PUSH2 0x2272 DUP2 PUSH2 0x2235 JUMP JUMPDEST DUP2 EQ PUSH2 0x227D JUMPI PUSH1 0x0 DUP1 REVERT JUMPDEST POP JUMP JUMPDEST PUSH1 0x0 DUP2 CALLDATALOAD SWAP1 POP PUSH2 0x228F DUP2 PUSH2 0x2269 JUMP JUMPDEST SWAP3 SWAP2 POP POP JUMP JUMPDEST PUSH1 0x0 PUSH1 0x20 DUP3 DUP5 SUB SLT ISZERO PUSH2 0x22AB JUMPI PUSH2 0x22AA PUSH2 0x21D7 JUMP JUMPDEST JUMPDEST PUSH1 0x0 PUSH2 0x22B9 DUP5 DUP3 DUP6 ADD PUSH2 0x2280 JUMP JUMPDEST SWAP2 POP POP SWAP3 SWAP2 POP POP JUMP JUMPDEST PUSH1 0x0 DUP2 ISZERO ISZERO SWAP1 POP SWAP2 SWAP1 POP JUMP JUMPDEST PUSH2 0x22D7 DUP2 PUSH2 0x22C2 JUMP JUMPDEST DUP3 MSTORE POP POP JUMP JUMPDEST PUSH1 0x0 PUSH1 0x20 DUP3 ADD SWAP1 POP PUSH2 0x22F2 PUSH1 0x0 DUP4 ADD DUP5 PUSH2 0x22CE JUMP JUMPDEST SWAP3 SWAP2 POP POP JUMP JUMPDEST PUSH1 0x0 DUP1 PUSH1 0x0 PUSH1 0x60 DUP5 DUP7 SUB SLT ISZERO PUSH2 0x2311 JUMPI PUSH2 0x2310 PUSH2 0x21D7 JUMP JUMPDEST JUMPDEST PUSH1 0x0 PUSH2 0x231F DUP7 DUP3 DUP8 ADD PUSH2 0x21F3 JUMP JUMPDEST SWAP4 POP POP PUSH1 0x20 PUSH2 0x2330 DUP7 DUP3 DUP8 ADD PUSH2 0x21F3 JUMP JUMPDEST SWAP3 POP POP PUSH1 0x40 PUSH2 0x2341 DUP7 DUP3 DUP8 ADD PUSH2 0x2280 JUMP JUMPDEST SWAP2 POP POP SWAP3 POP SWAP3 POP SWAP3 JUMP JUMPDEST PUSH1 0x0 DUP1 PUSH1 0x0 PUSH1 0x60 DUP5 DUP7 SUB SLT ISZERO PUSH2 0x2364 JUMPI PUSH2 0x2363 PUSH2 0x21D7 JUMP JUMPDEST JUMPDEST PUSH1 0x0 PUSH2 0x2372 DUP7 DUP3 DUP8 ADD PUSH2 0x2280 JUMP JUMPDEST SWAP4 POP POP PUSH1 0x20 PUSH2 0x2383 DUP7 DUP3 DUP8 ADD PUSH2 0x2280 JUMP JUMPDEST SWAP3 POP POP PUSH1 0x40 PUSH2 0x2394 DUP7 DUP3 DUP8 ADD PUSH2 0x2280 JUMP JUMPDEST SWAP2 POP POP SWAP3 POP SWAP3 POP SWAP3 JUMP JUMPDEST PUSH1 0x0 DUP2 MLOAD SWAP1 POP SWAP2 SWAP1 POP JUMP JUMPDEST PUSH1 0x0 DUP3 DUP3 MSTORE PUSH1 0x20 DUP3 ADD SWAP1 POP SWAP3 SWAP2 POP POP JUMP JUMPDEST PUSH1 0x0 JUMPDEST DUP4 DUP2 LT ISZERO PUSH2 0x23D8 JUMPI DUP1 DUP3 ADD MLOAD DUP2 DUP5 ADD MSTORE PUSH1 0x20 DUP2 ADD SWAP1 POP PUSH2 0x23BD JUMP JUMPDEST PUSH1 0x0 DUP5 DUP5 ADD MSTORE POP POP POP POP JUMP JUMPDEST PUSH1 0x0 PUSH1 0x1F NOT PUSH1 0x1F DUP4 ADD AND SWAP1 POP SWAP2 SWAP1 POP JUMP JUMPDEST PUSH1 0x0 PUSH2 0x2400 DUP3 PUSH2 0x239E JUMP JUMPDEST PUSH2 0x240A DUP2 DUP6 PUSH2 0x23A9 JUMP JUMPDEST SWAP4 POP PUSH2 0x241A DUP2 DUP6 PUSH1 0x20 DUP7 ADD PUSH2 0x23BA JUMP JUMPDEST PUSH2 0x2423 DUP2 PUSH2 0x23E4 JUMP JUMPDEST DUP5 ADD SWAP2 POP POP SWAP3 SWAP2 POP POP JUMP JUMPDEST PUSH1 0x0 PUSH1 0x40 DUP3 ADD SWAP1 POP PUSH2 0x2443 PUSH1 0x0 DUP4 ADD DUP6 PUSH2 0x21AD JUMP JUMPDEST DUP2 DUP2 SUB PUSH1 0x20 DUP4 ADD MSTORE PUSH2 0x2455 DUP2 DUP5 PUSH2 0x23F5 JUMP JUMPDEST SWAP1 POP SWAP4 SWAP3 POP POP POP JUMP JUMPDEST PUSH1 0x0 PUSH1 0x20 DUP3 ADD SWAP1 POP DUP2 DUP2 SUB PUSH1 0x0 DUP4 ADD MSTORE PUSH2 0x2478 DUP2 DUP5 PUSH2 0x23F5 JUMP JUMPDEST SWAP1 POP SWAP3 SWAP2 POP POP JUMP JUMPDEST PUSH32 0x4E6F74206163746976617465642E000000000000000000000000000000000000 PUSH1 0x0 DUP3 ADD MSTORE POP JUMP JUMPDEST PUSH1 0x0 PUSH2 0x24B6 PUSH1 0xE DUP4 PUSH2 0x23A9 JUMP JUMPDEST SWAP2 POP PUSH2 0x24C1 DUP3 PUSH2 0x2480 JUMP JUMPDEST PUSH1 0x20 DUP3 ADD SWAP1 POP SWAP2 SWAP1 POP JUMP JUMPDEST PUSH1 0x0 PUSH1 0x20 DUP3 ADD SWAP1 POP DUP2 DUP2 SUB PUSH1 0x0 DUP4 ADD MSTORE PUSH2 0x24E5 DUP2 PUSH2 0x24A9 JUMP JUMPDEST SWAP1 POP SWAP2 SWAP1 POP JUMP JUMPDEST PUSH32 0x4E6F7420417574686F72697A6564210000000000000000000000000000000000 PUSH1 0x0 DUP3 ADD MSTORE POP JUMP JUMPDEST PUSH1 0x0 PUSH2 0x2522 PUSH1 0xF DUP4 PUSH2 0x23A9 JUMP JUMPDEST SWAP2 POP PUSH2 0x252D DUP3 PUSH2 0x24EC JUMP JUMPDEST PUSH1 0x20 DUP3 ADD SWAP1 POP SWAP2 SWAP1 POP JUMP JUMPDEST PUSH1 0x0 PUSH1 0x20 DUP3 ADD SWAP1 POP DUP2 DUP2 SUB PUSH1 0x0 DUP4 ADD MSTORE PUSH2 0x2551 DUP2 PUSH2 0x2515 JUMP JUMPDEST SWAP1 POP SWAP2 SWAP1 POP JUMP JUMPDEST PUSH32 0x43616E2774206163746976617465207769746820746869732061646472657373 PUSH1 0x0 DUP3 ADD MSTORE PUSH32 0x2100000000000000000000000000000000000000000000000000000000000000 PUSH1 0x20 DUP3 ADD MSTORE POP JUMP JUMPDEST PUSH1 0x0 PUSH2 0x25B4 PUSH1 0x21 DUP4 PUSH2 0x23A9 JUMP JUMPDEST SWAP2 POP PUSH2 0x25BF DUP3 PUSH2 0x2558 JUMP JUMPDEST PUSH1 0x40 DUP3 ADD SWAP1 POP SWAP2 SWAP1 POP JUMP JUMPDEST PUSH1 0x0 PUSH1 0x20 DUP3 ADD SWAP1 POP DUP2 DUP2 SUB PUSH1 0x0 DUP4 ADD MSTORE PUSH2 0x25E3 DUP2 PUSH2 0x25A7 JUMP JUMPDEST SWAP1 POP SWAP2 SWAP1 POP JUMP JUMPDEST PUSH32 0x416C7265616479206163746976617465642E0000000000000000000000000000 PUSH1 0x0 DUP3 ADD MSTORE POP JUMP JUMPDEST PUSH1 0x0 PUSH2 0x2620 PUSH1 0x12 DUP4 PUSH2 0x23A9 JUMP JUMPDEST SWAP2 POP PUSH2 0x262B DUP3 PUSH2 0x25EA JUMP JUMPDEST PUSH1 0x20 DUP3 ADD SWAP1 POP SWAP2 SWAP1 POP JUMP JUMPDEST PUSH1 0x0 PUSH1 0x20 DUP3 ADD SWAP1 POP DUP2 DUP2 SUB PUSH1 0x0 DUP4 ADD MSTORE PUSH2 0x264F DUP2 PUSH2 0x2613 JUMP JUMPDEST SWAP1 POP SWAP2 SWAP1 POP JUMP JUMPDEST PUSH32 0x4F6E6C79204F776E6572206F7220417574686F72697A65642070617274696369 PUSH1 0x0 DUP3 ADD MSTORE PUSH32 0x7061746F72210000000000000000000000000000000000000000000000000000 PUSH1 0x20 DUP3 ADD MSTORE POP JUMP JUMPDEST PUSH1 0x0 PUSH2 0x26B2 PUSH1 0x26 DUP4 PUSH2 0x23A9 JUMP JUMPDEST SWAP2 POP PUSH2 0x26BD DUP3 PUSH2 0x2656 JUMP JUMPDEST PUSH1 0x40 DUP3 ADD SWAP1 POP SWAP2 SWAP1 POP JUMP JUMPDEST PUSH1 0x0 PUSH1 0x20 DUP3 ADD SWAP1 POP DUP2 DUP2 SUB PUSH1 0x0 DUP4 ADD MSTORE PUSH2 0x26E1 DUP2 PUSH2 0x26A5 JUMP JUMPDEST SWAP1 POP SWAP2 SWAP1 POP JUMP JUMPDEST PUSH32 0x4E487B7100000000000000000000000000000000000000000000000000000000 PUSH1 0x0 MSTORE PUSH1 0x11 PUSH1 0x4 MSTORE PUSH1 0x24 PUSH1 0x0 REVERT JUMPDEST PUSH1 0x0 PUSH2 0x2722 DUP3 PUSH2 0x2235 JUMP JUMPDEST SWAP2 POP PUSH2 0x272D DUP4 PUSH2 0x2235 JUMP JUMPDEST SWAP3 POP DUP3 DUP3 SUB SWAP1 POP DUP2 DUP2 GT ISZERO PUSH2 0x2745 JUMPI PUSH2 0x2744 PUSH2 0x26E8 JUMP JUMPDEST JUMPDEST SWAP3 SWAP2 POP POP JUMP JUMPDEST PUSH1 0x0 DUP2 SWAP1 POP SWAP3 SWAP2 POP POP JUMP JUMPDEST PUSH32 0x4E6F7420656E6F75676820706F696E74732E2054686520636F6E747261637420 PUSH1 0x0 DUP3 ADD MSTORE PUSH32 0x6D75737420626520636861726765642077697468206D6F726520000000000000 PUSH1 0x20 DUP3 ADD MSTORE POP JUMP JUMPDEST PUSH1 0x0 PUSH2 0x27B2 PUSH1 0x3A DUP4 PUSH2 0x274B JUMP JUMPDEST SWAP2 POP PUSH2 0x27BD DUP3 PUSH2 0x2756 JUMP JUMPDEST PUSH1 0x3A DUP3 ADD SWAP1 POP SWAP2 SWAP1 POP JUMP JUMPDEST PUSH32 0x4E487B7100000000000000000000000000000000000000000000000000000000 PUSH1 0x0 MSTORE PUSH1 0x22 PUSH1 0x4 MSTORE PUSH1 0x24 PUSH1 0x0 REVERT JUMPDEST PUSH1 0x0 PUSH1 0x2 DUP3 DIV SWAP1 POP PUSH1 0x1 DUP3 AND DUP1 PUSH2 0x280F JUMPI PUSH1 0x7F DUP3 AND SWAP2 POP JUMPDEST PUSH1 0x20 DUP3 LT DUP2 SUB PUSH2 0x2822 JUMPI PUSH2 0x2821 PUSH2 0x27C8 JUMP JUMPDEST JUMPDEST POP SWAP2 SWAP1 POP JUMP JUMPDEST PUSH1 0x0 DUP2 SWAP1 POP DUP2 PUSH1 0x0 MSTORE PUSH1 0x20 PUSH1 0x0 KECCAK256 SWAP1 POP SWAP2 SWAP1 POP JUMP JUMPDEST PUSH1 0x0 DUP2 SLOAD PUSH2 0x284A DUP2 PUSH2 0x27F7 JUMP JUMPDEST PUSH2 0x2854 DUP2 DUP7 PUSH2 0x274B JUMP JUMPDEST SWAP5 POP PUSH1 0x1 DUP3 AND PUSH1 0x0 DUP2 EQ PUSH2 0x286F JUMPI PUSH1 0x1 DUP2 EQ PUSH2 0x2884 JUMPI PUSH2 0x28B7 JUMP JUMPDEST PUSH1 0xFF NOT DUP4 AND DUP7 MSTORE DUP2 ISZERO ISZERO DUP3 MUL DUP7 ADD SWAP4 POP PUSH2 0x28B7 JUMP JUMPDEST PUSH2 0x288D DUP6 PUSH2 0x2828 JUMP JUMPDEST PUSH1 0x0 JUMPDEST DUP4 DUP2 LT ISZERO PUSH2 0x28AF JUMPI DUP2 SLOAD DUP2 DUP10 ADD MSTORE PUSH1 0x1 DUP3 ADD SWAP2 POP PUSH1 0x20 DUP2 ADD SWAP1 POP PUSH2 0x2890 JUMP JUMPDEST DUP4 DUP9 ADD SWAP6 POP POP POP JUMPDEST POP POP POP SWAP3 SWAP2 POP POP JUMP JUMPDEST PUSH1 0x0 PUSH2 0x28CB DUP3 PUSH2 0x27A5 JUMP JUMPDEST SWAP2 POP PUSH2 0x28D7 DUP3 DUP5 PUSH2 0x283D JUMP JUMPDEST SWAP2 POP DUP2 SWAP1 POP SWAP3 SWAP2 POP POP JUMP JUMPDEST PUSH32 0x57697468647261772076616C7565206D75737420626520677265617465722074 PUSH1 0x0 DUP3 ADD MSTORE PUSH32 0x68616E2030000000000000000000000000000000000000000000000000000000 PUSH1 0x20 DUP3 ADD MSTORE POP JUMP JUMPDEST PUSH1 0x0 PUSH2 0x293E PUSH1 0x25 DUP4 PUSH2 0x23A9 JUMP JUMPDEST SWAP2 POP PUSH2 0x2949 DUP3 PUSH2 0x28E2 JUMP JUMPDEST PUSH1 0x40 DUP3 ADD SWAP1 POP SWAP2 SWAP1 POP JUMP JUMPDEST PUSH1 0x0 PUSH1 0x20 DUP3 ADD SWAP1 POP DUP2 DUP2 SUB PUSH1 0x0 DUP4 ADD MSTORE PUSH2 0x296D DUP2 PUSH2 0x2931 JUMP JUMPDEST SWAP1 POP SWAP2 SWAP1 POP JUMP JUMPDEST PUSH1 0x0 PUSH2 0x297F DUP3 PUSH2 0x2235 JUMP JUMPDEST SWAP2 POP PUSH2 0x298A DUP4 PUSH2 0x2235 JUMP JUMPDEST SWAP3 POP DUP3 DUP3 ADD SWAP1 POP DUP1 DUP3 GT ISZERO PUSH2 0x29A2 JUMPI PUSH2 0x29A1 PUSH2 0x26E8 JUMP JUMPDEST JUMPDEST SWAP3 SWAP2 POP POP JUMP JUMPDEST PUSH32 0x4E6F7468696E6720746F2077697468647261772E000000000000000000000000 PUSH1 0x0 DUP3 ADD MSTORE POP JUMP JUMPDEST PUSH1 0x0 PUSH2 0x29DE PUSH1 0x14 DUP4 PUSH2 0x23A9 JUMP JUMPDEST SWAP2 POP PUSH2 0x29E9 DUP3 PUSH2 0x29A8 JUMP JUMPDEST PUSH1 0x20 DUP3 ADD SWAP1 POP SWAP2 SWAP1 POP JUMP JUMPDEST PUSH1 0x0 PUSH1 0x20 DUP3 ADD SWAP1 POP DUP2 DUP2 SUB PUSH1 0x0 DUP4 ADD MSTORE PUSH2 0x2A0D DUP2 PUSH2 0x29D1 JUMP JUMPDEST SWAP1 POP SWAP2 SWAP1 POP JUMP JUMPDEST PUSH32 0x4E6F7420656E7567682062616C616E636520666F722077697468647261772100 PUSH1 0x0 DUP3 ADD MSTORE POP JUMP JUMPDEST PUSH1 0x0 PUSH2 0x2A4A PUSH1 0x1F DUP4 PUSH2 0x23A9 JUMP JUMPDEST SWAP2 POP PUSH2 0x2A55 DUP3 PUSH2 0x2A14 JUMP JUMPDEST PUSH1 0x20 DUP3 ADD SWAP1 POP SWAP2 SWAP1 POP JUMP JUMPDEST PUSH1 0x0 PUSH1 0x20 DUP3 ADD SWAP1 POP DUP2 DUP2 SUB PUSH1 0x0 DUP4 ADD MSTORE PUSH2 0x2A79 DUP2 PUSH2 0x2A3D JUMP JUMPDEST SWAP1 POP SWAP2 SWAP1 POP JUMP JUMPDEST PUSH32 0x4E6F7420656E6F7567682062616C616E63652100000000000000000000000000 PUSH1 0x0 DUP3 ADD MSTORE POP JUMP JUMPDEST PUSH1 0x0 PUSH2 0x2AB6 PUSH1 0x13 DUP4 PUSH2 0x23A9 JUMP JUMPDEST SWAP2 POP PUSH2 0x2AC1 DUP3 PUSH2 0x2A80 JUMP JUMPDEST PUSH1 0x20 DUP3 ADD SWAP1 POP SWAP2 SWAP1 POP JUMP JUMPDEST PUSH1 0x0 PUSH1 0x20 DUP3 ADD SWAP1 POP DUP2 DUP2 SUB PUSH1 0x0 DUP4 ADD MSTORE PUSH2 0x2AE5 DUP2 PUSH2 0x2AA9 JUMP JUMPDEST SWAP1 POP SWAP2 SWAP1 POP JUMP JUMPDEST PUSH1 0x0 PUSH1 0x40 DUP3 ADD SWAP1 POP PUSH2 0x2B01 PUSH1 0x0 DUP4 ADD DUP6 PUSH2 0x21AD JUMP JUMPDEST PUSH2 0x2B0E PUSH1 0x20 DUP4 ADD DUP5 PUSH2 0x223F JUMP JUMPDEST SWAP4 SWAP3 POP POP POP JUMP JUMPDEST PUSH2 0x2B1E DUP2 PUSH2 0x22C2 JUMP JUMPDEST DUP2 EQ PUSH2 0x2B29 JUMPI PUSH1 0x0 DUP1 REVERT JUMPDEST POP JUMP JUMPDEST PUSH1 0x0 DUP2 MLOAD SWAP1 POP PUSH2 0x2B3B DUP2 PUSH2 0x2B15 JUMP JUMPDEST SWAP3 SWAP2 POP POP JUMP JUMPDEST PUSH1 0x0 PUSH1 0x20 DUP3 DUP5 SUB SLT ISZERO PUSH2 0x2B57 JUMPI PUSH2 0x2B56 PUSH2 0x21D7 JUMP JUMPDEST JUMPDEST PUSH1 0x0 PUSH2 0x2B65 DUP5 DUP3 DUP6 ADD PUSH2 0x2B2C JUMP JUMPDEST SWAP2 POP POP SWAP3 SWAP2 POP POP JUMP JUMPDEST PUSH1 0x0 DUP2 MLOAD SWAP1 POP PUSH2 0x2B7D DUP2 PUSH2 0x2269 JUMP JUMPDEST SWAP3 SWAP2 POP POP JUMP JUMPDEST PUSH1 0x0 PUSH1 0x20 DUP3 DUP5 SUB SLT ISZERO PUSH2 0x2B99 JUMPI PUSH2 0x2B98 PUSH2 0x21D7 JUMP JUMPDEST JUMPDEST PUSH1 0x0 PUSH2 0x2BA7 DUP5 DUP3 DUP6 ADD PUSH2 0x2B6E JUMP JUMPDEST SWAP2 POP POP SWAP3 SWAP2 POP POP JUMP JUMPDEST PUSH32 0x52617465206D7573742062652067726561746572207468616E207A65726F0000 PUSH1 0x0 DUP3 ADD MSTORE POP JUMP JUMPDEST PUSH1 0x0 PUSH2 0x2BE6 PUSH1 0x1E DUP4 PUSH2 0x23A9 JUMP JUMPDEST SWAP2 POP PUSH2 0x2BF1 DUP3 PUSH2 0x2BB0 JUMP JUMPDEST PUSH1 0x20 DUP3 ADD SWAP1 POP SWAP2 SWAP1 POP JUMP JUMPDEST PUSH1 0x0 PUSH1 0x20 DUP3 ADD SWAP1 POP DUP2 DUP2 SUB PUSH1 0x0 DUP4 ADD MSTORE PUSH2 0x2C15 DUP2 PUSH2 0x2BD9 JUMP JUMPDEST SWAP1 POP SWAP2 SWAP1 POP JUMP JUMPDEST PUSH1 0x0 DUP2 PUSH1 0x1 SHR SWAP1 POP SWAP2 SWAP1 POP JUMP JUMPDEST PUSH1 0x0 DUP1 DUP3 SWAP2 POP DUP4 SWAP1 POP JUMPDEST PUSH1 0x1 DUP6 GT ISZERO PUSH2 0x2C73 JUMPI DUP1 DUP7 DIV DUP2 GT ISZERO PUSH2 0x2C4F JUMPI PUSH2 0x2C4E PUSH2 0x26E8 JUMP JUMPDEST JUMPDEST PUSH1 0x1 DUP6 AND ISZERO PUSH2 0x2C5E JUMPI DUP1 DUP3 MUL SWAP2 POP JUMPDEST DUP1 DUP2 MUL SWAP1 POP PUSH2 0x2C6C DUP6 PUSH2 0x2C1C JUMP JUMPDEST SWAP5 POP PUSH2 0x2C33 JUMP JUMPDEST SWAP5 POP SWAP5 SWAP3 POP POP POP JUMP JUMPDEST PUSH1 0x0 DUP3 PUSH2 0x2C8C JUMPI PUSH1 0x1 SWAP1 POP PUSH2 0x2D48 JUMP JUMPDEST DUP2 PUSH2 0x2C9A JUMPI PUSH1 0x0 SWAP1 POP PUSH2 0x2D48 JUMP JUMPDEST DUP2 PUSH1 0x1 DUP2 EQ PUSH2 0x2CB0 JUMPI PUSH1 0x2 DUP2 EQ PUSH2 0x2CBA JUMPI PUSH2 0x2CE9 JUMP JUMPDEST PUSH1 0x1 SWAP2 POP POP PUSH2 0x2D48 JUMP JUMPDEST PUSH1 0xFF DUP5 GT ISZERO PUSH2 0x2CCC JUMPI PUSH2 0x2CCB PUSH2 0x26E8 JUMP JUMPDEST JUMPDEST DUP4 PUSH1 0x2 EXP SWAP2 POP DUP5 DUP3 GT ISZERO PUSH2 0x2CE3 JUMPI PUSH2 0x2CE2 PUSH2 0x26E8 JUMP JUMPDEST JUMPDEST POP PUSH2 0x2D48 JUMP JUMPDEST POP PUSH1 0x20 DUP4 LT PUSH2 0x133 DUP4 LT AND PUSH1 0x4E DUP5 LT PUSH1 0xB DUP5 LT AND OR ISZERO PUSH2 0x2D1E JUMPI DUP3 DUP3 EXP SWAP1 POP DUP4 DUP2 GT ISZERO PUSH2 0x2D19 JUMPI PUSH2 0x2D18 PUSH2 0x26E8 JUMP JUMPDEST JUMPDEST PUSH2 0x2D48 JUMP JUMPDEST PUSH2 0x2D2B DUP5 DUP5 DUP5 PUSH1 0x1 PUSH2 0x2C29 JUMP JUMPDEST SWAP3 POP SWAP1 POP DUP2 DUP5 DIV DUP2 GT ISZERO PUSH2 0x2D42 JUMPI PUSH2 0x2D41 PUSH2 0x26E8 JUMP JUMPDEST JUMPDEST DUP2 DUP2 MUL SWAP1 POP JUMPDEST SWAP4 SWAP3 POP POP POP JUMP JUMPDEST PUSH1 0x0 PUSH2 0x2D5A DUP3 PUSH2 0x2235 JUMP JUMPDEST SWAP2 POP PUSH2 0x2D65 DUP4 PUSH2 0x2235 JUMP JUMPDEST SWAP3 POP PUSH2 0x2D92 PUSH32 0xFFFFFFFFFFFFFFFFFFFFFFFFFFFFFFFFFFFFFFFFFFFFFFFFFFFFFFFFFFFFFFFF DUP5 DUP5 PUSH2 0x2C7C JUMP JUMPDEST SWAP1 POP SWAP3 SWAP2 POP POP JUMP JUMPDEST PUSH1 0x0 PUSH2 0x2DA5 DUP3 PUSH2 0x2235 JUMP JUMPDEST SWAP2 POP PUSH2 0x2DB0 DUP4 PUSH2 0x2235 JUMP JUMPDEST SWAP3 POP DUP3 DUP3 MUL PUSH2 0x2DBE DUP2 PUSH2 0x2235 JUMP JUMPDEST SWAP2 POP DUP3 DUP3 DIV DUP5 EQ DUP4 ISZERO OR PUSH2 0x2DD5 JUMPI PUSH2 0x2DD4 PUSH2 0x26E8 JUMP JUMPDEST JUMPDEST POP SWAP3 SWAP2 POP POP JUMP JUMPDEST PUSH32 0x4E487B7100000000000000000000000000000000000000000000000000000000 PUSH1 0x0 MSTORE PUSH1 0x12 PUSH1 0x4 MSTORE PUSH1 0x24 PUSH1 0x0 REVERT JUMPDEST PUSH1 0x0 PUSH2 0x2E16 DUP3 PUSH2 0x2235 JUMP JUMPDEST SWAP2 POP PUSH2 0x2E21 DUP4 PUSH2 0x2235 JUMP JUMPDEST SWAP3 POP DUP3 PUSH2 0x2E31 JUMPI PUSH2 0x2E30 PUSH2 0x2DDC JUMP JUMPDEST JUMPDEST DUP3 DUP3 DIV SWAP1 POP SWAP3 SWAP2 POP POP JUMP JUMPDEST PUSH32 0x4E6F2063686172676520616D6D6F756E74210000000000000000000000000000 PUSH1 0x0 DUP3 ADD MSTORE POP JUMP JUMPDEST PUSH1 0x0 PUSH2 0x2E72 PUSH1 0x12 DUP4 PUSH2 0x23A9 JUMP JUMPDEST SWAP2 POP PUSH2 0x2E7D DUP3 PUSH2 0x2E3C JUMP JUMPDEST PUSH1 0x20 DUP3 ADD SWAP1 POP SWAP2 SWAP1 POP JUMP JUMPDEST PUSH1 0x0 PUSH1 0x20 DUP3 ADD SWAP1 POP DUP2 DUP2 SUB PUSH1 0x0 DUP4 ADD MSTORE PUSH2 0x2EA1 DUP2 PUSH2 0x2E65 JUMP JUMPDEST SWAP1 POP SWAP2 SWAP1 POP JUMP JUMPDEST PUSH1 0x0 PUSH1 0x40 DUP3 ADD SWAP1 POP PUSH2 0x2EBD PUSH1 0x0 DUP4 ADD DUP6 PUSH2 0x21AD JUMP JUMPDEST PUSH2 0x2ECA PUSH1 0x20 DUP4 ADD DUP5 PUSH2 0x21AD JUMP JUMPDEST SWAP4 SWAP3 POP POP POP JUMP JUMPDEST PUSH32 0x436865636B207468652000000000000000000000000000000000000000000000 DUP2 MSTORE POP JUMP JUMPDEST PUSH32 0x20746F6B656E2000000000000000000000000000000000000000000000000000 DUP2 MSTORE POP JUMP JUMPDEST PUSH32 0x616C6C6F77616E63652E00000000000000000000000000000000000000000000 DUP2 MSTORE POP JUMP JUMPDEST PUSH1 0x0 PUSH2 0x2F4E DUP3 PUSH2 0x2ED1 JUMP JUMPDEST PUSH1 0xA DUP3 ADD SWAP2 POP PUSH2 0x2F5E DUP3 DUP5 PUSH2 0x283D JUMP JUMPDEST SWAP2 POP PUSH2 0x2F69 DUP3 PUSH2 0x2EF7 JUMP JUMPDEST PUSH1 0x7 DUP3 ADD SWAP2 POP PUSH2 0x2F78 DUP3 PUSH2 0x2F1D JUMP JUMPDEST PUSH1 0xA DUP3 ADD SWAP2 POP DUP2 SWAP1 POP SWAP3 SWAP2 POP POP JUMP JUMPDEST PUSH1 0x0 PUSH1 0x60 DUP3 ADD SWAP1 POP PUSH2 0x2F9C PUSH1 0x0 DUP4 ADD DUP7 PUSH2 0x21AD JUMP JUMPDEST PUSH2 0x2FA9 PUSH1 0x20 DUP4 ADD DUP6 PUSH2 0x21AD JUMP JUMPDEST PUSH2 0x2FB6 PUSH1 0x40 DUP4 ADD DUP5 PUSH2 0x223F JUMP JUMPDEST SWAP5 SWAP4 POP POP POP POP JUMP JUMPDEST PUSH1 0x0 PUSH1 0x80 DUP3 ADD SWAP1 POP PUSH2 0x2FD3 PUSH1 0x0 DUP4 ADD DUP8 PUSH2 0x223F JUMP JUMPDEST PUSH2 0x2FE0 PUSH1 0x20 DUP4 ADD DUP7 PUSH2 0x223F JUMP JUMPDEST PUSH2 0x2FED PUSH1 0x40 DUP4 ADD DUP6 PUSH2 0x223F JUMP JUMPDEST DUP2 DUP2 SUB PUSH1 0x60 DUP4 ADD MSTORE PUSH2 0x2FFF DUP2 DUP5 PUSH2 0x23F5 JUMP JUMPDEST SWAP1 POP SWAP6 SWAP5 POP POP POP POP POP JUMP JUMPDEST PUSH32 0x4F776E61626C653A206E6577206F776E657220697320746865207A65726F2061 PUSH1 0x0 DUP3 ADD MSTORE PUSH32 0x6464726573730000000000000000000000000000000000000000000000000000 PUSH1 0x20 DUP3 ADD MSTORE POP JUMP JUMPDEST PUSH1 0x0 PUSH2 0x3066 PUSH1 0x26 DUP4 PUSH2 0x23A9 JUMP JUMPDEST SWAP2 POP PUSH2 0x3071 DUP3 PUSH2 0x300A JUMP JUMPDEST PUSH1 0x40 DUP3 ADD SWAP1 POP SWAP2 SWAP1 POP JUMP JUMPDEST PUSH1 0x0 PUSH1 0x20 DUP3 ADD SWAP1 POP DUP2 DUP2 SUB PUSH1 0x0 DUP4 ADD MSTORE PUSH2 0x3095 DUP2 PUSH2 0x3059 JUMP JUMPDEST SWAP1 POP SWAP2 SWAP1 POP JUMP JUMPDEST PUSH32 0x5061757361626C653A206E6F7420706175736564000000000000000000000000 PUSH1 0x0 DUP3 ADD MSTORE POP JUMP JUMPDEST PUSH1 0x0 PUSH2 0x30D2 PUSH1 0x14 DUP4 PUSH2 0x23A9 JUMP JUMPDEST SWAP2 POP PUSH2 0x30DD DUP3 PUSH2 0x309C JUMP JUMPDEST PUSH1 0x20 DUP3 ADD SWAP1 POP SWAP2 SWAP1 POP JUMP JUMPDEST PUSH1 0x0 PUSH1 0x20 DUP3 ADD SWAP1 POP DUP2 DUP2 SUB PUSH1 0x0 DUP4 ADD MSTORE PUSH2 0x3101 DUP2 PUSH2 0x30C5 JUMP JUMPDEST SWAP1 POP SWAP2 SWAP1 POP JUMP JUMPDEST PUSH32 0x4F776E61626C653A2063616C6C6572206973206E6F7420746865206F776E6572 PUSH1 0x0 DUP3 ADD MSTORE POP JUMP JUMPDEST PUSH1 0x0 PUSH2 0x313E PUSH1 0x20 DUP4 PUSH2 0x23A9 JUMP JUMPDEST SWAP2 POP PUSH2 0x3149 DUP3 PUSH2 0x3108 JUMP JUMPDEST PUSH1 0x20 DUP3 ADD SWAP1 POP SWAP2 SWAP1 POP JUMP JUMPDEST PUSH1 0x0 PUSH1 0x20 DUP3 ADD SWAP1 POP DUP2 DUP2 SUB PUSH1 0x0 DUP4 ADD MSTORE PUSH2 0x316D DUP2 PUSH2 0x3131 JUMP JUMPDEST SWAP1 POP SWAP2 SWAP1 POP JUMP JUMPDEST PUSH32 0x5061757361626C653A2070617573656400000000000000000000000000000000 PUSH1 0x0 DUP3 ADD MSTORE POP JUMP JUMPDEST PUSH1 0x0 PUSH2 0x31AA PUSH1 0x10 DUP4 PUSH2 0x23A9 JUMP JUMPDEST SWAP2 POP PUSH2 0x31B5 DUP3 PUSH2 0x3174 JUMP JUMPDEST PUSH1 0x20 DUP3 ADD SWAP1 POP SWAP2 SWAP1 POP JUMP JUMPDEST PUSH1 0x0 PUSH1 0x20 DUP3 ADD SWAP1 POP DUP2 DUP2 SUB PUSH1 0x0 DUP4 ADD MSTORE PUSH2 0x31D9 DUP2 PUSH2 0x319D JUMP JUMPDEST SWAP1 POP SWAP2 SWAP1 POP JUMP JUMPDEST PUSH32 0x4E6F20746F6B656E7320746F206265206275726E656421000000000000000000 PUSH1 0x0 DUP3 ADD MSTORE POP JUMP JUMPDEST PUSH1 0x0 PUSH2 0x3216 PUSH1 0x17 DUP4 PUSH2 0x23A9 JUMP JUMPDEST SWAP2 POP PUSH2 0x3221 DUP3 PUSH2 0x31E0 JUMP JUMPDEST PUSH1 0x20 DUP3 ADD SWAP1 POP SWAP2 SWAP1 POP JUMP JUMPDEST PUSH1 0x0 PUSH1 0x20 DUP3 ADD SWAP1 POP DUP2 DUP2 SUB PUSH1 0x0 DUP4 ADD MSTORE PUSH2 0x3245 DUP2 PUSH2 0x3209 JUMP JUMPDEST SWAP1 POP SWAP2 SWAP1 POP JUMP INVALID LOG2 PUSH5 0x6970667358 0x22 SLT KECCAK256 0x5E 0xAE 0xAB SLOAD DUP3 DUP5 0x2E 0xE6 0x5D 0xE8 0xEC SWAP3 PUSH31 0xA0CEDAFBA08BBBD85DFD6887EAF3CC5AEB800164736F6C6343000817003300 "
				},
				"gasEstimates": {
					"creation": {
						"codeDepositCost": "2586000",
						"executionCost": "infinite",
						"totalCost": "infinite"
					},
					"external": {
						"activate()": "infinite",
						"addNewAgregatorPriceFeed(address)": "27125",
						"addNewPoolRateFeed(address)": "27147",
						"balanceOf()": "infinite",
						"balanceOfToken(address)": "infinite",
						"calculateAmount(uint256,uint256,uint256)": "infinite",
						"changeAcceptedSenderAddress(address)": "31359",
						"changeRateFeed()": "29008",
						"chargeContract(uint256)": "infinite",
						"currentRateFeed()": "infinite",
						"deactivate()": "31057",
						"getAcceptedSenderAddress()": "4761",
						"getCurrentPointsBalance()": "9148",
						"getDailyWithdraw()": "9128",
						"getInitialActivationAddress()": "infinite",
						"getTokenInfo()": "infinite",
						"getTotalBurnedTokens()": "9172",
						"getTotalPointsGenerated()": "9083",
						"initiateBulkMint()": "infinite",
						"owner()": "2640",
						"paused()": "2524",
						"renounceOwnership()": "30637",
						"resume()": "infinite",
						"stop()": "infinite",
						"transferOfToken(address,address,uint256)": "infinite",
						"transferOwnership(address)": "30982",
						"withdraw(uint256)": "infinite"
					},
					"internal": {
						"burnIncomingTokens(uint256)": "infinite",
						"calculatePoints(uint256,uint256,uint256)": "infinite",
						"getRate()": "infinite"
					}
				},
				"methodIdentifiers": {
					"activate()": "0f15f4c0",
					"addNewAgregatorPriceFeed(address)": "aefbdfae",
					"addNewPoolRateFeed(address)": "b0b5e39e",
					"balanceOf()": "722713f7",
					"balanceOfToken(address)": "b99152d0",
					"calculateAmount(uint256,uint256,uint256)": "7754723e",
					"changeAcceptedSenderAddress(address)": "0ba2f1d8",
					"changeRateFeed()": "e8088766",
					"chargeContract(uint256)": "ed969c84",
					"currentRateFeed()": "e6367ebe",
					"deactivate()": "51b42b00",
					"getAcceptedSenderAddress()": "08fadcb0",
					"getCurrentPointsBalance()": "f9850907",
					"getDailyWithdraw()": "a24723e8",
					"getInitialActivationAddress()": "ba007e75",
					"getTokenInfo()": "abb1dc44",
					"getTotalBurnedTokens()": "2af0e251",
					"getTotalPointsGenerated()": "a684ab5c",
					"initiateBulkMint()": "390885f7",
					"owner()": "8da5cb5b",
					"paused()": "5c975abb",
					"renounceOwnership()": "715018a6",
					"resume()": "046f7da2",
					"stop()": "07da68f5",
					"transferOfToken(address,address,uint256)": "6a9d43dd",
					"transferOwnership(address)": "f2fde38b",
					"withdraw(uint256)": "2e1a7d4d"
				}
			},
			"storageLayout": {
				"storage": [
					{
						"astId": 130,
						"contract": "ptrn_eco_system_dev_contracts/contracts_ready_for_prod/Copy_PtrnEcoSystemParticipation.sol:PtrnEcoSystemParticipation",
						"label": "_paused",
						"offset": 0,
						"slot": "0",
						"type": "t_bool"
					},
					{
						"astId": 7,
						"contract": "ptrn_eco_system_dev_contracts/contracts_ready_for_prod/Copy_PtrnEcoSystemParticipation.sol:PtrnEcoSystemParticipation",
						"label": "_owner",
						"offset": 1,
						"slot": "0",
						"type": "t_address"
					},
					{
						"astId": 368,
						"contract": "ptrn_eco_system_dev_contracts/contracts_ready_for_prod/Copy_PtrnEcoSystemParticipation.sol:PtrnEcoSystemParticipation",
						"label": "acceptedSenderAddress",
						"offset": 0,
						"slot": "1",
						"type": "t_address"
					},
					{
						"astId": 373,
						"contract": "ptrn_eco_system_dev_contracts/contracts_ready_for_prod/Copy_PtrnEcoSystemParticipation.sol:PtrnEcoSystemParticipation",
						"label": "poolRateFeed",
						"offset": 20,
						"slot": "1",
						"type": "t_bool"
					},
					{
						"astId": 376,
						"contract": "ptrn_eco_system_dev_contracts/contracts_ready_for_prod/Copy_PtrnEcoSystemParticipation.sol:PtrnEcoSystemParticipation",
						"label": "agregatorConsumer",
						"offset": 0,
						"slot": "2",
						"type": "t_contract(AgregatorConsumerInterface)337"
					},
					{
						"astId": 379,
						"contract": "ptrn_eco_system_dev_contracts/contracts_ready_for_prod/Copy_PtrnEcoSystemParticipation.sol:PtrnEcoSystemParticipation",
						"label": "poolConsumer",
						"offset": 0,
						"slot": "3",
						"type": "t_contract(PoolConsumerInterface)349"
					},
					{
						"astId": 382,
						"contract": "ptrn_eco_system_dev_contracts/contracts_ready_for_prod/Copy_PtrnEcoSystemParticipation.sol:PtrnEcoSystemParticipation",
						"label": "totalBurned",
						"offset": 0,
						"slot": "4",
						"type": "t_uint256"
					},
					{
						"astId": 385,
						"contract": "ptrn_eco_system_dev_contracts/contracts_ready_for_prod/Copy_PtrnEcoSystemParticipation.sol:PtrnEcoSystemParticipation",
						"label": "totalConverted",
						"offset": 0,
						"slot": "5",
						"type": "t_uint256"
					},
					{
						"astId": 388,
						"contract": "ptrn_eco_system_dev_contracts/contracts_ready_for_prod/Copy_PtrnEcoSystemParticipation.sol:PtrnEcoSystemParticipation",
						"label": "availableToWithdraw",
						"offset": 0,
						"slot": "6",
						"type": "t_uint256"
					},
					{
						"astId": 391,
						"contract": "ptrn_eco_system_dev_contracts/contracts_ready_for_prod/Copy_PtrnEcoSystemParticipation.sol:PtrnEcoSystemParticipation",
						"label": "dailyWithdraw",
						"offset": 0,
						"slot": "7",
						"type": "t_uint256"
					},
					{
						"astId": 396,
						"contract": "ptrn_eco_system_dev_contracts/contracts_ready_for_prod/Copy_PtrnEcoSystemParticipation.sol:PtrnEcoSystemParticipation",
						"label": "tokenSymbol",
						"offset": 0,
						"slot": "8",
						"type": "t_string_storage"
					}
				],
				"types": {
					"t_address": {
						"encoding": "inplace",
						"label": "address",
						"numberOfBytes": "20"
					},
					"t_bool": {
						"encoding": "inplace",
						"label": "bool",
						"numberOfBytes": "1"
					},
					"t_contract(AgregatorConsumerInterface)337": {
						"encoding": "inplace",
						"label": "contract AgregatorConsumerInterface",
						"numberOfBytes": "20"
					},
					"t_contract(PoolConsumerInterface)349": {
						"encoding": "inplace",
						"label": "contract PoolConsumerInterface",
						"numberOfBytes": "20"
					},
					"t_string_storage": {
						"encoding": "bytes",
						"label": "string",
						"numberOfBytes": "32"
					},
					"t_uint256": {
						"encoding": "inplace",
						"label": "uint256",
						"numberOfBytes": "32"
					}
				}
			},
			"userdoc": {
				"kind": "user",
				"methods": {},
				"version": 1
			}
		}
	}
}