{
	"token_eco_system_dev_contracts/contracts_ready_for_prod/PoolRateFeed.sol": {
		"RateFromPool": {
			"abi": [
				{
					"inputs": [
						{
							"internalType": "address",
							"name": "poolConsumerInterfaceAddress",
							"type": "address"
						}
					],
					"stateMutability": "nonpayable",
					"type": "constructor"
				},
				{
					"inputs": [],
					"name": "activate",
					"outputs": [],
					"stateMutability": "nonpayable",
					"type": "function"
				},
				{
					"inputs": [
						{
							"internalType": "address",
							"name": "poolConsumerInterfaceAddress",
							"type": "address"
						}
					],
					"name": "addNewPoolFeed",
					"outputs": [],
					"stateMutability": "nonpayable",
					"type": "function"
				},
				{
					"inputs": [],
					"name": "admin",
					"outputs": [
						{
							"internalType": "address",
							"name": "",
							"type": "address"
						}
					],
					"stateMutability": "view",
					"type": "function"
				},
				{
					"inputs": [],
					"name": "deactivate",
					"outputs": [],
					"stateMutability": "nonpayable",
					"type": "function"
				},
				{
					"inputs": [],
					"name": "poolRate",
					"outputs": [
						{
							"internalType": "uint256",
							"name": "",
							"type": "uint256"
						},
						{
							"internalType": "uint256",
							"name": "",
							"type": "uint256"
						},
						{
							"internalType": "string",
							"name": "",
							"type": "string"
						},
						{
							"internalType": "uint256",
							"name": "",
							"type": "uint256"
						}
					],
					"stateMutability": "nonpayable",
					"type": "function"
				}
			],
			"devdoc": {
				"kind": "dev",
				"methods": {},
				"version": 1
			},
			"evm": {
				"assembly": "    /* \"token_eco_system_dev_contracts/contracts_ready_for_prod/PoolRateFeed.sol\":513:3449  contract RateFromPool {... */\n  mstore(0x40, 0xa0)\n    /* \"token_eco_system_dev_contracts/contracts_ready_for_prod/PoolRateFeed.sol\":718:722  true */\n  0x01\n    /* \"token_eco_system_dev_contracts/contracts_ready_for_prod/PoolRateFeed.sol\":696:722  bool private active = true */\n  0x02\n  exp(0x0100, 0x14)\n  dup2\n  sload\n  dup2\n  0xff\n  mul\n  not\n  and\n  swap1\n  dup4\n  iszero\n  iszero\n  mul\n  or\n  swap1\n  sstore\n  pop\n    /* \"token_eco_system_dev_contracts/contracts_ready_for_prod/PoolRateFeed.sol\":831:1076  constructor (address poolConsumerInterfaceAddress){... */\n  callvalue\n  dup1\n  iszero\n  tag_1\n  jumpi\n  0x00\n  dup1\n  revert\ntag_1:\n  pop\n  mload(0x40)\n  sub(codesize, bytecodeSize)\n  dup1\n  bytecodeSize\n  dup4\n  codecopy\n  dup2\n  dup2\n  add\n  0x40\n  mstore\n  dup2\n  add\n  swap1\n  tag_2\n  swap2\n  swap1\n  tag_3\n  jump\t// in\ntag_2:\n    /* \"token_eco_system_dev_contracts/contracts_ready_for_prod/PoolRateFeed.sol\":939:940  0 */\n  0x00\n    /* \"token_eco_system_dev_contracts/contracts_ready_for_prod/PoolRateFeed.sol\":899:941  poolConsumerInterfaceAddress != address(0) */\n  0xffffffffffffffffffffffffffffffffffffffff\n  and\n    /* \"token_eco_system_dev_contracts/contracts_ready_for_prod/PoolRateFeed.sol\":899:927  poolConsumerInterfaceAddress */\n  dup2\n    /* \"token_eco_system_dev_contracts/contracts_ready_for_prod/PoolRateFeed.sol\":899:941  poolConsumerInterfaceAddress != address(0) */\n  0xffffffffffffffffffffffffffffffffffffffff\n  and\n  sub\n    /* \"token_eco_system_dev_contracts/contracts_ready_for_prod/PoolRateFeed.sol\":891:942  require(poolConsumerInterfaceAddress != address(0)) */\n  tag_6\n  jumpi\n  0x00\n  dup1\n  revert\ntag_6:\n    /* \"token_eco_system_dev_contracts/contracts_ready_for_prod/PoolRateFeed.sol\":960:970  msg.sender */\n  caller\n    /* \"token_eco_system_dev_contracts/contracts_ready_for_prod/PoolRateFeed.sol\":952:970  admin = msg.sender */\n  0xffffffffffffffffffffffffffffffffffffffff\n  and\n  0x80\n  dup2\n  0xffffffffffffffffffffffffffffffffffffffff\n  and\n  dup2\n  mstore\n  pop\n  pop\n    /* \"token_eco_system_dev_contracts/contracts_ready_for_prod/PoolRateFeed.sol\":1022:1050  poolConsumerInterfaceAddress */\n  dup1\n    /* \"token_eco_system_dev_contracts/contracts_ready_for_prod/PoolRateFeed.sol\":980:992  poolConsumer */\n  0x00\n  dup1\n    /* \"token_eco_system_dev_contracts/contracts_ready_for_prod/PoolRateFeed.sol\":980:1060  poolConsumer = PoolInterface(... */\n  0x0100\n  exp\n  dup2\n  sload\n  dup2\n  0xffffffffffffffffffffffffffffffffffffffff\n  mul\n  not\n  and\n  swap1\n  dup4\n  0xffffffffffffffffffffffffffffffffffffffff\n  and\n  mul\n  or\n  swap1\n  sstore\n  pop\n    /* \"token_eco_system_dev_contracts/contracts_ready_for_prod/PoolRateFeed.sol\":831:1076  constructor (address poolConsumerInterfaceAddress){... */\n  pop\n    /* \"token_eco_system_dev_contracts/contracts_ready_for_prod/PoolRateFeed.sol\":513:3449  contract RateFromPool {... */\n  jump(tag_7)\n    /* \"#utility.yul\":88:205   */\ntag_9:\n    /* \"#utility.yul\":197:198   */\n  0x00\n    /* \"#utility.yul\":194:195   */\n  dup1\n    /* \"#utility.yul\":187:199   */\n  revert\n    /* \"#utility.yul\":334:460   */\ntag_11:\n    /* \"#utility.yul\":371:378   */\n  0x00\n    /* \"#utility.yul\":411:453   */\n  0xffffffffffffffffffffffffffffffffffffffff\n    /* \"#utility.yul\":404:409   */\n  dup3\n    /* \"#utility.yul\":400:454   */\n  and\n    /* \"#utility.yul\":389:454   */\n  swap1\n  pop\n    /* \"#utility.yul\":334:460   */\n  swap2\n  swap1\n  pop\n  jump\t// out\n    /* \"#utility.yul\":466:562   */\ntag_12:\n    /* \"#utility.yul\":503:510   */\n  0x00\n    /* \"#utility.yul\":532:556   */\n  tag_21\n    /* \"#utility.yul\":550:555   */\n  dup3\n    /* \"#utility.yul\":532:556   */\n  tag_11\n  jump\t// in\ntag_21:\n    /* \"#utility.yul\":521:556   */\n  swap1\n  pop\n    /* \"#utility.yul\":466:562   */\n  swap2\n  swap1\n  pop\n  jump\t// out\n    /* \"#utility.yul\":568:690   */\ntag_13:\n    /* \"#utility.yul\":641:665   */\n  tag_23\n    /* \"#utility.yul\":659:664   */\n  dup2\n    /* \"#utility.yul\":641:665   */\n  tag_12\n  jump\t// in\ntag_23:\n    /* \"#utility.yul\":634:639   */\n  dup2\n    /* \"#utility.yul\":631:666   */\n  eq\n    /* \"#utility.yul\":621:684   */\n  tag_24\n  jumpi\n    /* \"#utility.yul\":680:681   */\n  0x00\n    /* \"#utility.yul\":677:678   */\n  dup1\n    /* \"#utility.yul\":670:682   */\n  revert\n    /* \"#utility.yul\":621:684   */\ntag_24:\n    /* \"#utility.yul\":568:690   */\n  pop\n  jump\t// out\n    /* \"#utility.yul\":696:839   */\ntag_14:\n    /* \"#utility.yul\":753:758   */\n  0x00\n    /* \"#utility.yul\":784:790   */\n  dup2\n    /* \"#utility.yul\":778:791   */\n  mload\n    /* \"#utility.yul\":769:791   */\n  swap1\n  pop\n    /* \"#utility.yul\":800:833   */\n  tag_26\n    /* \"#utility.yul\":827:832   */\n  dup2\n    /* \"#utility.yul\":800:833   */\n  tag_13\n  jump\t// in\ntag_26:\n    /* \"#utility.yul\":696:839   */\n  swap3\n  swap2\n  pop\n  pop\n  jump\t// out\n    /* \"#utility.yul\":845:1196   */\ntag_3:\n    /* \"#utility.yul\":915:921   */\n  0x00\n    /* \"#utility.yul\":964:966   */\n  0x20\n    /* \"#utility.yul\":952:961   */\n  dup3\n    /* \"#utility.yul\":943:950   */\n  dup5\n    /* \"#utility.yul\":939:962   */\n  sub\n    /* \"#utility.yul\":935:967   */\n  slt\n    /* \"#utility.yul\":932:1051   */\n  iszero\n  tag_28\n  jumpi\n    /* \"#utility.yul\":970:1049   */\n  tag_29\n  tag_9\n  jump\t// in\ntag_29:\n    /* \"#utility.yul\":932:1051   */\ntag_28:\n    /* \"#utility.yul\":1090:1091   */\n  0x00\n    /* \"#utility.yul\":1115:1179   */\n  tag_30\n    /* \"#utility.yul\":1171:1178   */\n  dup5\n    /* \"#utility.yul\":1162:1168   */\n  dup3\n    /* \"#utility.yul\":1151:1160   */\n  dup6\n    /* \"#utility.yul\":1147:1169   */\n  add\n    /* \"#utility.yul\":1115:1179   */\n  tag_14\n  jump\t// in\ntag_30:\n    /* \"#utility.yul\":1105:1179   */\n  swap2\n  pop\n    /* \"#utility.yul\":1061:1189   */\n  pop\n    /* \"#utility.yul\":845:1196   */\n  swap3\n  swap2\n  pop\n  pop\n  jump\t// out\n    /* \"token_eco_system_dev_contracts/contracts_ready_for_prod/PoolRateFeed.sol\":513:3449  contract RateFromPool {... */\ntag_7:\n  mload(0x80)\n  codecopy(0x00, dataOffset(sub_0), dataSize(sub_0))\n  0x00\n  assignImmutable(\"0x4dfb3440902001bce9b7ebf7be7d95fe9e2056bd5ce309ceb83b32f4e00e21ed\")\n  return(0x00, dataSize(sub_0))\nstop\n\nsub_0: assembly {\n        /* \"token_eco_system_dev_contracts/contracts_ready_for_prod/PoolRateFeed.sol\":513:3449  contract RateFromPool {... */\n      mstore(0x40, 0x80)\n      callvalue\n      dup1\n      iszero\n      tag_1\n      jumpi\n      0x00\n      dup1\n      revert\n    tag_1:\n      pop\n      jumpi(tag_2, lt(calldatasize, 0x04))\n      shr(0xe0, calldataload(0x00))\n      dup1\n      0x0f15f4c0\n      eq\n      tag_3\n      jumpi\n      dup1\n      0x24f16f20\n      eq\n      tag_4\n      jumpi\n      dup1\n      0x51b42b00\n      eq\n      tag_5\n      jumpi\n      dup1\n      0x85096edc\n      eq\n      tag_6\n      jumpi\n      dup1\n      0xf851a440\n      eq\n      tag_7\n      jumpi\n    tag_2:\n      0x00\n      dup1\n      revert\n        /* \"token_eco_system_dev_contracts/contracts_ready_for_prod/PoolRateFeed.sol\":1082:1197  function activate() public onlyAdmin{... */\n    tag_3:\n      tag_8\n      tag_9\n      jump\t// in\n    tag_8:\n      stop\n        /* \"token_eco_system_dev_contracts/contracts_ready_for_prod/PoolRateFeed.sol\":1326:1500  function addNewPoolFeed(address poolConsumerInterfaceAddress)public onlyAdmin{... */\n    tag_4:\n      tag_10\n      0x04\n      dup1\n      calldatasize\n      sub\n      dup2\n      add\n      swap1\n      tag_11\n      swap2\n      swap1\n      tag_12\n      jump\t// in\n    tag_11:\n      tag_13\n      jump\t// in\n    tag_10:\n      stop\n        /* \"token_eco_system_dev_contracts/contracts_ready_for_prod/PoolRateFeed.sol\":1203:1320  function deactivate() public onlyAdmin{... */\n    tag_5:\n      tag_14\n      tag_15\n      jump\t// in\n    tag_14:\n      stop\n        /* \"token_eco_system_dev_contracts/contracts_ready_for_prod/PoolRateFeed.sol\":1506:2442  function poolRate() public returns(uint256, uint256, string memory, uint256) {... */\n    tag_6:\n      tag_16\n      tag_17\n      jump\t// in\n    tag_16:\n      mload(0x40)\n      tag_18\n      swap5\n      swap4\n      swap3\n      swap2\n      swap1\n      tag_19\n      jump\t// in\n    tag_18:\n      mload(0x40)\n      dup1\n      swap2\n      sub\n      swap1\n      return\n        /* \"token_eco_system_dev_contracts/contracts_ready_for_prod/PoolRateFeed.sol\":660:690  address public immutable admin */\n    tag_7:\n      tag_20\n      tag_21\n      jump\t// in\n    tag_20:\n      mload(0x40)\n      tag_22\n      swap2\n      swap1\n      tag_23\n      jump\t// in\n    tag_22:\n      mload(0x40)\n      dup1\n      swap2\n      sub\n      swap1\n      return\n        /* \"token_eco_system_dev_contracts/contracts_ready_for_prod/PoolRateFeed.sol\":1082:1197  function activate() public onlyAdmin{... */\n    tag_9:\n        /* \"token_eco_system_dev_contracts/contracts_ready_for_prod/PoolRateFeed.sol\":782:787  admin */\n      immutable(\"0x4dfb3440902001bce9b7ebf7be7d95fe9e2056bd5ce309ceb83b32f4e00e21ed\")\n        /* \"token_eco_system_dev_contracts/contracts_ready_for_prod/PoolRateFeed.sol\":768:787  msg.sender == admin */\n      0xffffffffffffffffffffffffffffffffffffffff\n      and\n        /* \"token_eco_system_dev_contracts/contracts_ready_for_prod/PoolRateFeed.sol\":768:778  msg.sender */\n      caller\n        /* \"token_eco_system_dev_contracts/contracts_ready_for_prod/PoolRateFeed.sol\":768:787  msg.sender == admin */\n      0xffffffffffffffffffffffffffffffffffffffff\n      and\n      eq\n        /* \"token_eco_system_dev_contracts/contracts_ready_for_prod/PoolRateFeed.sol\":760:807  require(msg.sender == admin, \"Not Authorized!\") */\n      tag_25\n      jumpi\n      mload(0x40)\n      0x08c379a000000000000000000000000000000000000000000000000000000000\n      dup2\n      mstore\n      0x04\n      add\n      tag_26\n      swap1\n      tag_27\n      jump\t// in\n    tag_26:\n      mload(0x40)\n      dup1\n      swap2\n      sub\n      swap1\n      revert\n    tag_25:\n        /* \"token_eco_system_dev_contracts/contracts_ready_for_prod/PoolRateFeed.sol\":1137:1143  active */\n      0x02\n      0x14\n      swap1\n      sload\n      swap1\n      0x0100\n      exp\n      swap1\n      div\n      0xff\n      and\n        /* \"token_eco_system_dev_contracts/contracts_ready_for_prod/PoolRateFeed.sol\":1136:1143  !active */\n      iszero\n        /* \"token_eco_system_dev_contracts/contracts_ready_for_prod/PoolRateFeed.sol\":1128:1166  require(!active, \"Already activated!\") */\n      tag_29\n      jumpi\n      mload(0x40)\n      0x08c379a000000000000000000000000000000000000000000000000000000000\n      dup2\n      mstore\n      0x04\n      add\n      tag_30\n      swap1\n      tag_31\n      jump\t// in\n    tag_30:\n      mload(0x40)\n      dup1\n      swap2\n      sub\n      swap1\n      revert\n    tag_29:\n        /* \"token_eco_system_dev_contracts/contracts_ready_for_prod/PoolRateFeed.sol\":1185:1190  false */\n      0x00\n        /* \"token_eco_system_dev_contracts/contracts_ready_for_prod/PoolRateFeed.sol\":1176:1182  active */\n      0x02\n      0x14\n        /* \"token_eco_system_dev_contracts/contracts_ready_for_prod/PoolRateFeed.sol\":1176:1190  active = false */\n      0x0100\n      exp\n      dup2\n      sload\n      dup2\n      0xff\n      mul\n      not\n      and\n      swap1\n      dup4\n      iszero\n      iszero\n      mul\n      or\n      swap1\n      sstore\n      pop\n        /* \"token_eco_system_dev_contracts/contracts_ready_for_prod/PoolRateFeed.sol\":1082:1197  function activate() public onlyAdmin{... */\n      jump\t// out\n        /* \"token_eco_system_dev_contracts/contracts_ready_for_prod/PoolRateFeed.sol\":1326:1500  function addNewPoolFeed(address poolConsumerInterfaceAddress)public onlyAdmin{... */\n    tag_13:\n        /* \"token_eco_system_dev_contracts/contracts_ready_for_prod/PoolRateFeed.sol\":782:787  admin */\n      immutable(\"0x4dfb3440902001bce9b7ebf7be7d95fe9e2056bd5ce309ceb83b32f4e00e21ed\")\n        /* \"token_eco_system_dev_contracts/contracts_ready_for_prod/PoolRateFeed.sol\":768:787  msg.sender == admin */\n      0xffffffffffffffffffffffffffffffffffffffff\n      and\n        /* \"token_eco_system_dev_contracts/contracts_ready_for_prod/PoolRateFeed.sol\":768:778  msg.sender */\n      caller\n        /* \"token_eco_system_dev_contracts/contracts_ready_for_prod/PoolRateFeed.sol\":768:787  msg.sender == admin */\n      0xffffffffffffffffffffffffffffffffffffffff\n      and\n      eq\n        /* \"token_eco_system_dev_contracts/contracts_ready_for_prod/PoolRateFeed.sol\":760:807  require(msg.sender == admin, \"Not Authorized!\") */\n      tag_33\n      jumpi\n      mload(0x40)\n      0x08c379a000000000000000000000000000000000000000000000000000000000\n      dup2\n      mstore\n      0x04\n      add\n      tag_34\n      swap1\n      tag_27\n      jump\t// in\n    tag_34:\n      mload(0x40)\n      dup1\n      swap2\n      sub\n      swap1\n      revert\n    tag_33:\n        /* \"token_eco_system_dev_contracts/contracts_ready_for_prod/PoolRateFeed.sol\":1455:1483  poolConsumerInterfaceAddress */\n      dup1\n        /* \"token_eco_system_dev_contracts/contracts_ready_for_prod/PoolRateFeed.sol\":1413:1425  poolConsumer */\n      0x00\n      dup1\n        /* \"token_eco_system_dev_contracts/contracts_ready_for_prod/PoolRateFeed.sol\":1413:1493  poolConsumer = PoolInterface(... */\n      0x0100\n      exp\n      dup2\n      sload\n      dup2\n      0xffffffffffffffffffffffffffffffffffffffff\n      mul\n      not\n      and\n      swap1\n      dup4\n      0xffffffffffffffffffffffffffffffffffffffff\n      and\n      mul\n      or\n      swap1\n      sstore\n      pop\n        /* \"token_eco_system_dev_contracts/contracts_ready_for_prod/PoolRateFeed.sol\":1326:1500  function addNewPoolFeed(address poolConsumerInterfaceAddress)public onlyAdmin{... */\n      pop\n      jump\t// out\n        /* \"token_eco_system_dev_contracts/contracts_ready_for_prod/PoolRateFeed.sol\":1203:1320  function deactivate() public onlyAdmin{... */\n    tag_15:\n        /* \"token_eco_system_dev_contracts/contracts_ready_for_prod/PoolRateFeed.sol\":782:787  admin */\n      immutable(\"0x4dfb3440902001bce9b7ebf7be7d95fe9e2056bd5ce309ceb83b32f4e00e21ed\")\n        /* \"token_eco_system_dev_contracts/contracts_ready_for_prod/PoolRateFeed.sol\":768:787  msg.sender == admin */\n      0xffffffffffffffffffffffffffffffffffffffff\n      and\n        /* \"token_eco_system_dev_contracts/contracts_ready_for_prod/PoolRateFeed.sol\":768:778  msg.sender */\n      caller\n        /* \"token_eco_system_dev_contracts/contracts_ready_for_prod/PoolRateFeed.sol\":768:787  msg.sender == admin */\n      0xffffffffffffffffffffffffffffffffffffffff\n      and\n      eq\n        /* \"token_eco_system_dev_contracts/contracts_ready_for_prod/PoolRateFeed.sol\":760:807  require(msg.sender == admin, \"Not Authorized!\") */\n      tag_37\n      jumpi\n      mload(0x40)\n      0x08c379a000000000000000000000000000000000000000000000000000000000\n      dup2\n      mstore\n      0x04\n      add\n      tag_38\n      swap1\n      tag_27\n      jump\t// in\n    tag_38:\n      mload(0x40)\n      dup1\n      swap2\n      sub\n      swap1\n      revert\n    tag_37:\n        /* \"token_eco_system_dev_contracts/contracts_ready_for_prod/PoolRateFeed.sol\":1259:1265  active */\n      0x02\n      0x14\n      swap1\n      sload\n      swap1\n      0x0100\n      exp\n      swap1\n      div\n      0xff\n      and\n        /* \"token_eco_system_dev_contracts/contracts_ready_for_prod/PoolRateFeed.sol\":1251:1290  require(active, \"Already deactivated!\") */\n      tag_40\n      jumpi\n      mload(0x40)\n      0x08c379a000000000000000000000000000000000000000000000000000000000\n      dup2\n      mstore\n      0x04\n      add\n      tag_41\n      swap1\n      tag_42\n      jump\t// in\n    tag_41:\n      mload(0x40)\n      dup1\n      swap2\n      sub\n      swap1\n      revert\n    tag_40:\n        /* \"token_eco_system_dev_contracts/contracts_ready_for_prod/PoolRateFeed.sol\":1309:1313  true */\n      0x01\n        /* \"token_eco_system_dev_contracts/contracts_ready_for_prod/PoolRateFeed.sol\":1300:1306  active */\n      0x02\n      0x14\n        /* \"token_eco_system_dev_contracts/contracts_ready_for_prod/PoolRateFeed.sol\":1300:1313  active = true */\n      0x0100\n      exp\n      dup2\n      sload\n      dup2\n      0xff\n      mul\n      not\n      and\n      swap1\n      dup4\n      iszero\n      iszero\n      mul\n      or\n      swap1\n      sstore\n      pop\n        /* \"token_eco_system_dev_contracts/contracts_ready_for_prod/PoolRateFeed.sol\":1203:1320  function deactivate() public onlyAdmin{... */\n      jump\t// out\n        /* \"token_eco_system_dev_contracts/contracts_ready_for_prod/PoolRateFeed.sol\":1506:2442  function poolRate() public returns(uint256, uint256, string memory, uint256) {... */\n    tag_17:\n        /* \"token_eco_system_dev_contracts/contracts_ready_for_prod/PoolRateFeed.sol\":1541:1548  uint256 */\n      0x00\n        /* \"token_eco_system_dev_contracts/contracts_ready_for_prod/PoolRateFeed.sol\":1550:1557  uint256 */\n      dup1\n        /* \"token_eco_system_dev_contracts/contracts_ready_for_prod/PoolRateFeed.sol\":1559:1572  string memory */\n      0x60\n        /* \"token_eco_system_dev_contracts/contracts_ready_for_prod/PoolRateFeed.sol\":1574:1581  uint256 */\n      0x00\n        /* \"token_eco_system_dev_contracts/contracts_ready_for_prod/PoolRateFeed.sol\":1598:1604  active */\n      0x02\n      0x14\n      swap1\n      sload\n      swap1\n      0x0100\n      exp\n      swap1\n      div\n      0xff\n      and\n        /* \"token_eco_system_dev_contracts/contracts_ready_for_prod/PoolRateFeed.sol\":1593:1657  if (!active){... */\n      tag_44\n      jumpi\n        /* \"token_eco_system_dev_contracts/contracts_ready_for_prod/PoolRateFeed.sol\":1626:1627  0 */\n      0x00\n        /* \"token_eco_system_dev_contracts/contracts_ready_for_prod/PoolRateFeed.sol\":1628:1629  0 */\n      dup1\n        /* \"token_eco_system_dev_contracts/contracts_ready_for_prod/PoolRateFeed.sol\":1644:1645  0 */\n      0x00\n        /* \"token_eco_system_dev_contracts/contracts_ready_for_prod/PoolRateFeed.sol\":1619:1646  return(0,0,\"Not active!\",0) */\n      mload(0x40)\n      dup1\n      0x40\n      add\n      0x40\n      mstore\n      dup1\n      0x0b\n      dup2\n      mstore\n      0x20\n      add\n      0x4e6f742061637469766521000000000000000000000000000000000000000000\n      dup2\n      mstore\n      pop\n      swap1\n      swap4\n      pop\n      swap4\n      pop\n      swap4\n      pop\n      swap4\n      pop\n      jump(tag_43)\n        /* \"token_eco_system_dev_contracts/contracts_ready_for_prod/PoolRateFeed.sol\":1593:1657  if (!active){... */\n    tag_44:\n        /* \"token_eco_system_dev_contracts/contracts_ready_for_prod/PoolRateFeed.sol\":1666:1689  address tokenOneAddress */\n      0x00\n        /* \"token_eco_system_dev_contracts/contracts_ready_for_prod/PoolRateFeed.sol\":1692:1704  poolConsumer */\n      dup1\n      0x00\n      swap1\n      sload\n      swap1\n      0x0100\n      exp\n      swap1\n      div\n      0xffffffffffffffffffffffffffffffffffffffff\n      and\n        /* \"token_eco_system_dev_contracts/contracts_ready_for_prod/PoolRateFeed.sol\":1692:1711  poolConsumer.token0 */\n      0xffffffffffffffffffffffffffffffffffffffff\n      and\n      0x0dfe1681\n        /* \"token_eco_system_dev_contracts/contracts_ready_for_prod/PoolRateFeed.sol\":1692:1713  poolConsumer.token0() */\n      mload(0x40)\n      dup2\n      0xffffffff\n      and\n      0xe0\n      shl\n      dup2\n      mstore\n      0x04\n      add\n      0x20\n      mload(0x40)\n      dup1\n      dup4\n      sub\n      dup2\n      0x00\n      dup8\n      gas\n      call\n      iszero\n      dup1\n      iszero\n      tag_46\n      jumpi\n      returndatasize\n      0x00\n      dup1\n      returndatacopy\n      revert(0x00, returndatasize)\n    tag_46:\n      pop\n      pop\n      pop\n      pop\n      mload(0x40)\n      returndatasize\n      not(0x1f)\n      0x1f\n      dup3\n      add\n      and\n      dup3\n      add\n      dup1\n      0x40\n      mstore\n      pop\n      dup2\n      add\n      swap1\n      tag_47\n      swap2\n      swap1\n      tag_48\n      jump\t// in\n    tag_47:\n        /* \"token_eco_system_dev_contracts/contracts_ready_for_prod/PoolRateFeed.sol\":1666:1713  address tokenOneAddress = poolConsumer.token0() */\n      swap1\n      pop\n        /* \"token_eco_system_dev_contracts/contracts_ready_for_prod/PoolRateFeed.sol\":1723:1746  address tokenTwoAddress */\n      0x00\n        /* \"token_eco_system_dev_contracts/contracts_ready_for_prod/PoolRateFeed.sol\":1749:1761  poolConsumer */\n      dup1\n      0x00\n      swap1\n      sload\n      swap1\n      0x0100\n      exp\n      swap1\n      div\n      0xffffffffffffffffffffffffffffffffffffffff\n      and\n        /* \"token_eco_system_dev_contracts/contracts_ready_for_prod/PoolRateFeed.sol\":1749:1768  poolConsumer.token1 */\n      0xffffffffffffffffffffffffffffffffffffffff\n      and\n      0xd21220a7\n        /* \"token_eco_system_dev_contracts/contracts_ready_for_prod/PoolRateFeed.sol\":1749:1770  poolConsumer.token1() */\n      mload(0x40)\n      dup2\n      0xffffffff\n      and\n      0xe0\n      shl\n      dup2\n      mstore\n      0x04\n      add\n      0x20\n      mload(0x40)\n      dup1\n      dup4\n      sub\n      dup2\n      0x00\n      dup8\n      gas\n      call\n      iszero\n      dup1\n      iszero\n      tag_50\n      jumpi\n      returndatasize\n      0x00\n      dup1\n      returndatacopy\n      revert(0x00, returndatasize)\n    tag_50:\n      pop\n      pop\n      pop\n      pop\n      mload(0x40)\n      returndatasize\n      not(0x1f)\n      0x1f\n      dup3\n      add\n      and\n      dup3\n      add\n      dup1\n      0x40\n      mstore\n      pop\n      dup2\n      add\n      swap1\n      tag_51\n      swap2\n      swap1\n      tag_48\n      jump\t// in\n    tag_51:\n        /* \"token_eco_system_dev_contracts/contracts_ready_for_prod/PoolRateFeed.sol\":1723:1770  address tokenTwoAddress = poolConsumer.token1() */\n      swap1\n      pop\n        /* \"token_eco_system_dev_contracts/contracts_ready_for_prod/PoolRateFeed.sol\":1820:1835  tokenOneAddress */\n      dup2\n        /* \"token_eco_system_dev_contracts/contracts_ready_for_prod/PoolRateFeed.sol\":1780:1799  decimalsConsumerOne */\n      0x01\n      0x00\n        /* \"token_eco_system_dev_contracts/contracts_ready_for_prod/PoolRateFeed.sol\":1780:1836  decimalsConsumerOne = DecimalsInterface(tokenOneAddress) */\n      0x0100\n      exp\n      dup2\n      sload\n      dup2\n      0xffffffffffffffffffffffffffffffffffffffff\n      mul\n      not\n      and\n      swap1\n      dup4\n      0xffffffffffffffffffffffffffffffffffffffff\n      and\n      mul\n      or\n      swap1\n      sstore\n      pop\n        /* \"token_eco_system_dev_contracts/contracts_ready_for_prod/PoolRateFeed.sol\":1886:1901  tokenTwoAddress */\n      dup1\n        /* \"token_eco_system_dev_contracts/contracts_ready_for_prod/PoolRateFeed.sol\":1846:1865  decimalsConsumerTwo */\n      0x02\n      0x00\n        /* \"token_eco_system_dev_contracts/contracts_ready_for_prod/PoolRateFeed.sol\":1846:1902  decimalsConsumerTwo = DecimalsInterface(tokenTwoAddress) */\n      0x0100\n      exp\n      dup2\n      sload\n      dup2\n      0xffffffffffffffffffffffffffffffffffffffff\n      mul\n      not\n      and\n      swap1\n      dup4\n      0xffffffffffffffffffffffffffffffffffffffff\n      and\n      mul\n      or\n      swap1\n      sstore\n      pop\n        /* \"token_eco_system_dev_contracts/contracts_ready_for_prod/PoolRateFeed.sol\":1912:1931  uint256 decimalsOne */\n      0x00\n        /* \"token_eco_system_dev_contracts/contracts_ready_for_prod/PoolRateFeed.sol\":1934:1953  decimalsConsumerOne */\n      0x01\n      0x00\n      swap1\n      sload\n      swap1\n      0x0100\n      exp\n      swap1\n      div\n      0xffffffffffffffffffffffffffffffffffffffff\n      and\n        /* \"token_eco_system_dev_contracts/contracts_ready_for_prod/PoolRateFeed.sol\":1934:1962  decimalsConsumerOne.decimals */\n      0xffffffffffffffffffffffffffffffffffffffff\n      and\n      0x313ce567\n        /* \"token_eco_system_dev_contracts/contracts_ready_for_prod/PoolRateFeed.sol\":1934:1964  decimalsConsumerOne.decimals() */\n      mload(0x40)\n      dup2\n      0xffffffff\n      and\n      0xe0\n      shl\n      dup2\n      mstore\n      0x04\n      add\n      0x20\n      mload(0x40)\n      dup1\n      dup4\n      sub\n      dup2\n      0x00\n      dup8\n      gas\n      call\n      iszero\n      dup1\n      iszero\n      tag_53\n      jumpi\n      returndatasize\n      0x00\n      dup1\n      returndatacopy\n      revert(0x00, returndatasize)\n    tag_53:\n      pop\n      pop\n      pop\n      pop\n      mload(0x40)\n      returndatasize\n      not(0x1f)\n      0x1f\n      dup3\n      add\n      and\n      dup3\n      add\n      dup1\n      0x40\n      mstore\n      pop\n      dup2\n      add\n      swap1\n      tag_54\n      swap2\n      swap1\n      tag_55\n      jump\t// in\n    tag_54:\n        /* \"token_eco_system_dev_contracts/contracts_ready_for_prod/PoolRateFeed.sol\":1912:1964  uint256 decimalsOne = decimalsConsumerOne.decimals() */\n      0xff\n      and\n      swap1\n      pop\n        /* \"token_eco_system_dev_contracts/contracts_ready_for_prod/PoolRateFeed.sol\":1974:1993  uint256 decimalsTwo */\n      0x00\n        /* \"token_eco_system_dev_contracts/contracts_ready_for_prod/PoolRateFeed.sol\":1996:2015  decimalsConsumerTwo */\n      0x02\n      0x00\n      swap1\n      sload\n      swap1\n      0x0100\n      exp\n      swap1\n      div\n      0xffffffffffffffffffffffffffffffffffffffff\n      and\n        /* \"token_eco_system_dev_contracts/contracts_ready_for_prod/PoolRateFeed.sol\":1996:2024  decimalsConsumerTwo.decimals */\n      0xffffffffffffffffffffffffffffffffffffffff\n      and\n      0x313ce567\n        /* \"token_eco_system_dev_contracts/contracts_ready_for_prod/PoolRateFeed.sol\":1996:2026  decimalsConsumerTwo.decimals() */\n      mload(0x40)\n      dup2\n      0xffffffff\n      and\n      0xe0\n      shl\n      dup2\n      mstore\n      0x04\n      add\n      0x20\n      mload(0x40)\n      dup1\n      dup4\n      sub\n      dup2\n      0x00\n      dup8\n      gas\n      call\n      iszero\n      dup1\n      iszero\n      tag_57\n      jumpi\n      returndatasize\n      0x00\n      dup1\n      returndatacopy\n      revert(0x00, returndatasize)\n    tag_57:\n      pop\n      pop\n      pop\n      pop\n      mload(0x40)\n      returndatasize\n      not(0x1f)\n      0x1f\n      dup3\n      add\n      and\n      dup3\n      add\n      dup1\n      0x40\n      mstore\n      pop\n      dup2\n      add\n      swap1\n      tag_58\n      swap2\n      swap1\n      tag_55\n      jump\t// in\n    tag_58:\n        /* \"token_eco_system_dev_contracts/contracts_ready_for_prod/PoolRateFeed.sol\":1974:2026  uint256 decimalsTwo = decimalsConsumerTwo.decimals() */\n      0xff\n      and\n      swap1\n      pop\n        /* \"token_eco_system_dev_contracts/contracts_ready_for_prod/PoolRateFeed.sol\":2036:2057  string memory nameOne */\n      0x00\n        /* \"token_eco_system_dev_contracts/contracts_ready_for_prod/PoolRateFeed.sol\":2060:2079  decimalsConsumerOne */\n      0x01\n      0x00\n      swap1\n      sload\n      swap1\n      0x0100\n      exp\n      swap1\n      div\n      0xffffffffffffffffffffffffffffffffffffffff\n      and\n        /* \"token_eco_system_dev_contracts/contracts_ready_for_prod/PoolRateFeed.sol\":2060:2084  decimalsConsumerOne.name */\n      0xffffffffffffffffffffffffffffffffffffffff\n      and\n      0x06fdde03\n        /* \"token_eco_system_dev_contracts/contracts_ready_for_prod/PoolRateFeed.sol\":2060:2086  decimalsConsumerOne.name() */\n      mload(0x40)\n      dup2\n      0xffffffff\n      and\n      0xe0\n      shl\n      dup2\n      mstore\n      0x04\n      add\n      0x00\n      mload(0x40)\n      dup1\n      dup4\n      sub\n      dup2\n      0x00\n      dup8\n      gas\n      call\n      iszero\n      dup1\n      iszero\n      tag_60\n      jumpi\n      returndatasize\n      0x00\n      dup1\n      returndatacopy\n      revert(0x00, returndatasize)\n    tag_60:\n      pop\n      pop\n      pop\n      pop\n      mload(0x40)\n      returndatasize\n      0x00\n      dup3\n      returndatacopy\n      returndatasize\n      not(0x1f)\n      0x1f\n      dup3\n      add\n      and\n      dup3\n      add\n      dup1\n      0x40\n      mstore\n      pop\n      dup2\n      add\n      swap1\n      tag_61\n      swap2\n      swap1\n      tag_62\n      jump\t// in\n    tag_61:\n        /* \"token_eco_system_dev_contracts/contracts_ready_for_prod/PoolRateFeed.sol\":2036:2086  string memory nameOne = decimalsConsumerOne.name() */\n      swap1\n      pop\n        /* \"token_eco_system_dev_contracts/contracts_ready_for_prod/PoolRateFeed.sol\":2096:2117  string memory nameTwo */\n      0x00\n        /* \"token_eco_system_dev_contracts/contracts_ready_for_prod/PoolRateFeed.sol\":2120:2139  decimalsConsumerTwo */\n      0x02\n      0x00\n      swap1\n      sload\n      swap1\n      0x0100\n      exp\n      swap1\n      div\n      0xffffffffffffffffffffffffffffffffffffffff\n      and\n        /* \"token_eco_system_dev_contracts/contracts_ready_for_prod/PoolRateFeed.sol\":2120:2144  decimalsConsumerTwo.name */\n      0xffffffffffffffffffffffffffffffffffffffff\n      and\n      0x06fdde03\n        /* \"token_eco_system_dev_contracts/contracts_ready_for_prod/PoolRateFeed.sol\":2120:2146  decimalsConsumerTwo.name() */\n      mload(0x40)\n      dup2\n      0xffffffff\n      and\n      0xe0\n      shl\n      dup2\n      mstore\n      0x04\n      add\n      0x00\n      mload(0x40)\n      dup1\n      dup4\n      sub\n      dup2\n      0x00\n      dup8\n      gas\n      call\n      iszero\n      dup1\n      iszero\n      tag_64\n      jumpi\n      returndatasize\n      0x00\n      dup1\n      returndatacopy\n      revert(0x00, returndatasize)\n    tag_64:\n      pop\n      pop\n      pop\n      pop\n      mload(0x40)\n      returndatasize\n      0x00\n      dup3\n      returndatacopy\n      returndatasize\n      not(0x1f)\n      0x1f\n      dup3\n      add\n      and\n      dup3\n      add\n      dup1\n      0x40\n      mstore\n      pop\n      dup2\n      add\n      swap1\n      tag_65\n      swap2\n      swap1\n      tag_62\n      jump\t// in\n    tag_65:\n        /* \"token_eco_system_dev_contracts/contracts_ready_for_prod/PoolRateFeed.sol\":2096:2146  string memory nameTwo = decimalsConsumerTwo.name() */\n      swap1\n      pop\n        /* \"token_eco_system_dev_contracts/contracts_ready_for_prod/PoolRateFeed.sol\":2157:2173  uint256 tokenOne */\n      0x00\n        /* \"token_eco_system_dev_contracts/contracts_ready_for_prod/PoolRateFeed.sol\":2175:2191  uint256 tokenTwo */\n      dup1\n        /* \"token_eco_system_dev_contracts/contracts_ready_for_prod/PoolRateFeed.sol\":2193:2204  uint32 date */\n      0x00\n        /* \"token_eco_system_dev_contracts/contracts_ready_for_prod/PoolRateFeed.sol\":2208:2220  poolConsumer */\n      dup1\n      0x00\n      swap1\n      sload\n      swap1\n      0x0100\n      exp\n      swap1\n      div\n      0xffffffffffffffffffffffffffffffffffffffff\n      and\n        /* \"token_eco_system_dev_contracts/contracts_ready_for_prod/PoolRateFeed.sol\":2208:2232  poolConsumer.getReserves */\n      0xffffffffffffffffffffffffffffffffffffffff\n      and\n      0x0902f1ac\n        /* \"token_eco_system_dev_contracts/contracts_ready_for_prod/PoolRateFeed.sol\":2208:2234  poolConsumer.getReserves() */\n      mload(0x40)\n      dup2\n      0xffffffff\n      and\n      0xe0\n      shl\n      dup2\n      mstore\n      0x04\n      add\n      0x60\n      mload(0x40)\n      dup1\n      dup4\n      sub\n      dup2\n      0x00\n      dup8\n      gas\n      call\n      iszero\n      dup1\n      iszero\n      tag_67\n      jumpi\n      returndatasize\n      0x00\n      dup1\n      returndatacopy\n      revert(0x00, returndatasize)\n    tag_67:\n      pop\n      pop\n      pop\n      pop\n      mload(0x40)\n      returndatasize\n      not(0x1f)\n      0x1f\n      dup3\n      add\n      and\n      dup3\n      add\n      dup1\n      0x40\n      mstore\n      pop\n      dup2\n      add\n      swap1\n      tag_68\n      swap2\n      swap1\n      tag_69\n      jump\t// in\n    tag_68:\n        /* \"token_eco_system_dev_contracts/contracts_ready_for_prod/PoolRateFeed.sol\":2156:2234  (uint256 tokenOne, uint256 tokenTwo, uint32 date) = poolConsumer.getReserves() */\n      swap3\n      pop\n      0xffffffffffffffffffffffffffff\n      and\n      swap3\n      pop\n      0xffffffffffffffffffffffffffff\n      and\n      swap3\n      pop\n        /* \"token_eco_system_dev_contracts/contracts_ready_for_prod/PoolRateFeed.sol\":2253:2434  calculatePoolRate(... */\n      tag_70\n        /* \"token_eco_system_dev_contracts/contracts_ready_for_prod/PoolRateFeed.sol\":2284:2292  tokenOne */\n      dup4\n        /* \"token_eco_system_dev_contracts/contracts_ready_for_prod/PoolRateFeed.sol\":2306:2317  decimalsOne */\n      dup9\n        /* \"token_eco_system_dev_contracts/contracts_ready_for_prod/PoolRateFeed.sol\":2331:2338  nameOne */\n      dup8\n        /* \"token_eco_system_dev_contracts/contracts_ready_for_prod/PoolRateFeed.sol\":2352:2360  tokenTwo */\n      dup6\n        /* \"token_eco_system_dev_contracts/contracts_ready_for_prod/PoolRateFeed.sol\":2374:2385  decimalsTwo */\n      dup11\n        /* \"token_eco_system_dev_contracts/contracts_ready_for_prod/PoolRateFeed.sol\":2399:2406  nameTwo */\n      dup10\n        /* \"token_eco_system_dev_contracts/contracts_ready_for_prod/PoolRateFeed.sol\":2420:2424  date */\n      dup8\n        /* \"token_eco_system_dev_contracts/contracts_ready_for_prod/PoolRateFeed.sol\":2253:2270  calculatePoolRate */\n      tag_71\n        /* \"token_eco_system_dev_contracts/contracts_ready_for_prod/PoolRateFeed.sol\":2253:2434  calculatePoolRate(... */\n      jump\t// in\n    tag_70:\n        /* \"token_eco_system_dev_contracts/contracts_ready_for_prod/PoolRateFeed.sol\":2246:2434  return calculatePoolRate(... */\n      swap13\n      pop\n      swap13\n      pop\n      swap13\n      pop\n      swap13\n      pop\n      pop\n      pop\n      pop\n      pop\n      pop\n      pop\n      pop\n      pop\n      pop\n        /* \"token_eco_system_dev_contracts/contracts_ready_for_prod/PoolRateFeed.sol\":1506:2442  function poolRate() public returns(uint256, uint256, string memory, uint256) {... */\n    tag_43:\n      swap1\n      swap2\n      swap3\n      swap4\n      jump\t// out\n        /* \"token_eco_system_dev_contracts/contracts_ready_for_prod/PoolRateFeed.sol\":660:690  address public immutable admin */\n    tag_21:\n      immutable(\"0x4dfb3440902001bce9b7ebf7be7d95fe9e2056bd5ce309ceb83b32f4e00e21ed\")\n      dup2\n      jump\t// out\n        /* \"token_eco_system_dev_contracts/contracts_ready_for_prod/PoolRateFeed.sol\":2448:3447  function calculatePoolRate(... */\n    tag_71:\n        /* \"token_eco_system_dev_contracts/contracts_ready_for_prod/PoolRateFeed.sol\":2706:2713  uint256 */\n      0x00\n        /* \"token_eco_system_dev_contracts/contracts_ready_for_prod/PoolRateFeed.sol\":2715:2722  uint256 */\n      dup1\n        /* \"token_eco_system_dev_contracts/contracts_ready_for_prod/PoolRateFeed.sol\":2724:2737  string memory */\n      0x60\n        /* \"token_eco_system_dev_contracts/contracts_ready_for_prod/PoolRateFeed.sol\":2739:2746  uint256 */\n      0x00\n        /* \"token_eco_system_dev_contracts/contracts_ready_for_prod/PoolRateFeed.sol\":2795:2796  0 */\n      dup1\n        /* \"token_eco_system_dev_contracts/contracts_ready_for_prod/PoolRateFeed.sol\":2772:2784  tokenOneName */\n      dup10\n        /* \"token_eco_system_dev_contracts/contracts_ready_for_prod/PoolRateFeed.sol\":2766:2792  bytes(tokenOneName).length */\n      mload\n        /* \"token_eco_system_dev_contracts/contracts_ready_for_prod/PoolRateFeed.sol\":2766:2796  bytes(tokenOneName).length > 0 */\n      gt\n        /* \"token_eco_system_dev_contracts/contracts_ready_for_prod/PoolRateFeed.sol\":2766:2830  bytes(tokenOneName).length > 0 && bytes(tokenTwoName).length > 0 */\n      dup1\n      iszero\n      tag_73\n      jumpi\n      pop\n        /* \"token_eco_system_dev_contracts/contracts_ready_for_prod/PoolRateFeed.sol\":2829:2830  0 */\n      0x00\n        /* \"token_eco_system_dev_contracts/contracts_ready_for_prod/PoolRateFeed.sol\":2806:2818  tokenTwoName */\n      dup7\n        /* \"token_eco_system_dev_contracts/contracts_ready_for_prod/PoolRateFeed.sol\":2800:2826  bytes(tokenTwoName).length */\n      mload\n        /* \"token_eco_system_dev_contracts/contracts_ready_for_prod/PoolRateFeed.sol\":2800:2830  bytes(tokenTwoName).length > 0 */\n      gt\n        /* \"token_eco_system_dev_contracts/contracts_ready_for_prod/PoolRateFeed.sol\":2766:2830  bytes(tokenOneName).length > 0 && bytes(tokenTwoName).length > 0 */\n    tag_73:\n        /* \"token_eco_system_dev_contracts/contracts_ready_for_prod/PoolRateFeed.sol\":2758:2864  require(bytes(tokenOneName).length > 0 && bytes(tokenTwoName).length > 0, \"Missing input for token name!\") */\n      tag_74\n      jumpi\n      mload(0x40)\n      0x08c379a000000000000000000000000000000000000000000000000000000000\n      dup2\n      mstore\n      0x04\n      add\n      tag_75\n      swap1\n      tag_76\n      jump\t// in\n    tag_75:\n      mload(0x40)\n      dup1\n      swap2\n      sub\n      swap1\n      revert\n    tag_74:\n        /* \"token_eco_system_dev_contracts/contracts_ready_for_prod/PoolRateFeed.sol\":2896:2898  18 */\n      0x12\n        /* \"token_eco_system_dev_contracts/contracts_ready_for_prod/PoolRateFeed.sol\":2882:2892  decimalOne */\n      dup11\n        /* \"token_eco_system_dev_contracts/contracts_ready_for_prod/PoolRateFeed.sol\":2882:2898  decimalOne <= 18 */\n      gt\n      iszero\n        /* \"token_eco_system_dev_contracts/contracts_ready_for_prod/PoolRateFeed.sol\":2882:2918  decimalOne <= 18 && decimalTwo <= 18 */\n      dup1\n      iszero\n      tag_77\n      jumpi\n      pop\n        /* \"token_eco_system_dev_contracts/contracts_ready_for_prod/PoolRateFeed.sol\":2916:2918  18 */\n      0x12\n        /* \"token_eco_system_dev_contracts/contracts_ready_for_prod/PoolRateFeed.sol\":2902:2912  decimalTwo */\n      dup8\n        /* \"token_eco_system_dev_contracts/contracts_ready_for_prod/PoolRateFeed.sol\":2902:2918  decimalTwo <= 18 */\n      gt\n      iszero\n        /* \"token_eco_system_dev_contracts/contracts_ready_for_prod/PoolRateFeed.sol\":2882:2918  decimalOne <= 18 && decimalTwo <= 18 */\n    tag_77:\n        /* \"token_eco_system_dev_contracts/contracts_ready_for_prod/PoolRateFeed.sol\":2874:2966  require(decimalOne <= 18 && decimalTwo <= 18, \"Decimals should be less than or equal to 18\") */\n      tag_78\n      jumpi\n      mload(0x40)\n      0x08c379a000000000000000000000000000000000000000000000000000000000\n      dup2\n      mstore\n      0x04\n      add\n      tag_79\n      swap1\n      tag_80\n      jump\t// in\n    tag_79:\n      mload(0x40)\n      dup1\n      swap2\n      sub\n      swap1\n      revert\n    tag_78:\n        /* \"token_eco_system_dev_contracts/contracts_ready_for_prod/PoolRateFeed.sol\":2997:2998  0 */\n      0x00\n        /* \"token_eco_system_dev_contracts/contracts_ready_for_prod/PoolRateFeed.sol\":2984:2994  decimalOne */\n      dup11\n        /* \"token_eco_system_dev_contracts/contracts_ready_for_prod/PoolRateFeed.sol\":2984:2998  decimalOne > 0 */\n      gt\n        /* \"token_eco_system_dev_contracts/contracts_ready_for_prod/PoolRateFeed.sol\":2984:3016  decimalOne > 0 && decimalTwo > 0 */\n      dup1\n      iszero\n      tag_81\n      jumpi\n      pop\n        /* \"token_eco_system_dev_contracts/contracts_ready_for_prod/PoolRateFeed.sol\":3015:3016  0 */\n      0x00\n        /* \"token_eco_system_dev_contracts/contracts_ready_for_prod/PoolRateFeed.sol\":3002:3012  decimalTwo */\n      dup8\n        /* \"token_eco_system_dev_contracts/contracts_ready_for_prod/PoolRateFeed.sol\":3002:3016  decimalTwo > 0 */\n      gt\n        /* \"token_eco_system_dev_contracts/contracts_ready_for_prod/PoolRateFeed.sol\":2984:3016  decimalOne > 0 && decimalTwo > 0 */\n    tag_81:\n        /* \"token_eco_system_dev_contracts/contracts_ready_for_prod/PoolRateFeed.sol\":2976:3054  require(decimalOne > 0 && decimalTwo > 0, \"Decimals should be greater than 0\") */\n      tag_82\n      jumpi\n      mload(0x40)\n      0x08c379a000000000000000000000000000000000000000000000000000000000\n      dup2\n      mstore\n      0x04\n      add\n      tag_83\n      swap1\n      tag_84\n      jump\t// in\n    tag_83:\n      mload(0x40)\n      dup1\n      swap2\n      sub\n      swap1\n      revert\n    tag_82:\n        /* \"token_eco_system_dev_contracts/contracts_ready_for_prod/PoolRateFeed.sol\":3083:3084  0 */\n      0x00\n        /* \"token_eco_system_dev_contracts/contracts_ready_for_prod/PoolRateFeed.sol\":3072:3080  tokenOne */\n      dup12\n        /* \"token_eco_system_dev_contracts/contracts_ready_for_prod/PoolRateFeed.sol\":3072:3084  tokenOne > 0 */\n      gt\n        /* \"token_eco_system_dev_contracts/contracts_ready_for_prod/PoolRateFeed.sol\":3072:3100  tokenOne > 0 && tokenTwo > 0 */\n      dup1\n      iszero\n      tag_85\n      jumpi\n      pop\n        /* \"token_eco_system_dev_contracts/contracts_ready_for_prod/PoolRateFeed.sol\":3099:3100  0 */\n      0x00\n        /* \"token_eco_system_dev_contracts/contracts_ready_for_prod/PoolRateFeed.sol\":3088:3096  tokenTwo */\n      dup9\n        /* \"token_eco_system_dev_contracts/contracts_ready_for_prod/PoolRateFeed.sol\":3088:3100  tokenTwo > 0 */\n      gt\n        /* \"token_eco_system_dev_contracts/contracts_ready_for_prod/PoolRateFeed.sol\":3072:3100  tokenOne > 0 && tokenTwo > 0 */\n    tag_85:\n        /* \"token_eco_system_dev_contracts/contracts_ready_for_prod/PoolRateFeed.sol\":3064:3142  require(tokenOne > 0 && tokenTwo > 0, \"Token values should be greater than 0\") */\n      tag_86\n      jumpi\n      mload(0x40)\n      0x08c379a000000000000000000000000000000000000000000000000000000000\n      dup2\n      mstore\n      0x04\n      add\n      tag_87\n      swap1\n      tag_88\n      jump\t// in\n    tag_87:\n      mload(0x40)\n      dup1\n      swap2\n      sub\n      swap1\n      revert\n    tag_86:\n        /* \"token_eco_system_dev_contracts/contracts_ready_for_prod/PoolRateFeed.sol\":3170:3180  decimalTwo */\n      dup7\n        /* \"token_eco_system_dev_contracts/contracts_ready_for_prod/PoolRateFeed.sol\":3157:3167  decimalOne */\n      dup11\n        /* \"token_eco_system_dev_contracts/contracts_ready_for_prod/PoolRateFeed.sol\":3157:3180  decimalOne > decimalTwo */\n      gt\n        /* \"token_eco_system_dev_contracts/contracts_ready_for_prod/PoolRateFeed.sol\":3153:3340  if (decimalOne > decimalTwo) {... */\n      iszero\n      tag_89\n      jumpi\n        /* \"token_eco_system_dev_contracts/contracts_ready_for_prod/PoolRateFeed.sol\":3236:3246  decimalTwo */\n      dup7\n        /* \"token_eco_system_dev_contracts/contracts_ready_for_prod/PoolRateFeed.sol\":3223:3233  decimalOne */\n      dup11\n        /* \"token_eco_system_dev_contracts/contracts_ready_for_prod/PoolRateFeed.sol\":3223:3246  decimalOne - decimalTwo */\n      tag_90\n      swap2\n      swap1\n      tag_91\n      jump\t// in\n    tag_90:\n        /* \"token_eco_system_dev_contracts/contracts_ready_for_prod/PoolRateFeed.sol\":3218:3220  10 */\n      0x0a\n        /* \"token_eco_system_dev_contracts/contracts_ready_for_prod/PoolRateFeed.sol\":3218:3247  10**(decimalOne - decimalTwo) */\n      tag_92\n      swap2\n      swap1\n      tag_93\n      jump\t// in\n    tag_92:\n        /* \"token_eco_system_dev_contracts/contracts_ready_for_prod/PoolRateFeed.sol\":3207:3215  tokenTwo */\n      dup9\n        /* \"token_eco_system_dev_contracts/contracts_ready_for_prod/PoolRateFeed.sol\":3207:3247  tokenTwo * 10**(decimalOne - decimalTwo) */\n      tag_94\n      swap2\n      swap1\n      tag_95\n      jump\t// in\n    tag_94:\n        /* \"token_eco_system_dev_contracts/contracts_ready_for_prod/PoolRateFeed.sol\":3196:3247  tokenTwo = tokenTwo * 10**(decimalOne - decimalTwo) */\n      swap8\n      pop\n        /* \"token_eco_system_dev_contracts/contracts_ready_for_prod/PoolRateFeed.sol\":3153:3340  if (decimalOne > decimalTwo) {... */\n      jump(tag_96)\n    tag_89:\n        /* \"token_eco_system_dev_contracts/contracts_ready_for_prod/PoolRateFeed.sol\":3318:3328  decimalOne */\n      dup10\n        /* \"token_eco_system_dev_contracts/contracts_ready_for_prod/PoolRateFeed.sol\":3305:3315  decimalTwo */\n      dup8\n        /* \"token_eco_system_dev_contracts/contracts_ready_for_prod/PoolRateFeed.sol\":3305:3328  decimalTwo - decimalOne */\n      tag_97\n      swap2\n      swap1\n      tag_91\n      jump\t// in\n    tag_97:\n        /* \"token_eco_system_dev_contracts/contracts_ready_for_prod/PoolRateFeed.sol\":3300:3302  10 */\n      0x0a\n        /* \"token_eco_system_dev_contracts/contracts_ready_for_prod/PoolRateFeed.sol\":3300:3329  10**(decimalTwo - decimalOne) */\n      tag_98\n      swap2\n      swap1\n      tag_93\n      jump\t// in\n    tag_98:\n        /* \"token_eco_system_dev_contracts/contracts_ready_for_prod/PoolRateFeed.sol\":3289:3297  tokenOne */\n      dup12\n        /* \"token_eco_system_dev_contracts/contracts_ready_for_prod/PoolRateFeed.sol\":3289:3329  tokenOne * 10**(decimalTwo - decimalOne) */\n      tag_99\n      swap2\n      swap1\n      tag_95\n      jump\t// in\n    tag_99:\n        /* \"token_eco_system_dev_contracts/contracts_ready_for_prod/PoolRateFeed.sol\":3278:3329  tokenOne = tokenOne * 10**(decimalTwo - decimalOne) */\n      swap11\n      pop\n        /* \"token_eco_system_dev_contracts/contracts_ready_for_prod/PoolRateFeed.sol\":3153:3340  if (decimalOne > decimalTwo) {... */\n    tag_96:\n        /* \"token_eco_system_dev_contracts/contracts_ready_for_prod/PoolRateFeed.sol\":3374:3382  tokenOne */\n      dup11\n        /* \"token_eco_system_dev_contracts/contracts_ready_for_prod/PoolRateFeed.sol\":3366:3371  10**8 */\n      0x05f5e100\n        /* \"token_eco_system_dev_contracts/contracts_ready_for_prod/PoolRateFeed.sol\":3357:3365  tokenTwo */\n      dup10\n        /* \"token_eco_system_dev_contracts/contracts_ready_for_prod/PoolRateFeed.sol\":3357:3371  tokenTwo*10**8 */\n      tag_100\n      swap2\n      swap1\n      tag_95\n      jump\t// in\n    tag_100:\n        /* \"token_eco_system_dev_contracts/contracts_ready_for_prod/PoolRateFeed.sol\":3357:3382  tokenTwo*10**8 / tokenOne */\n      tag_101\n      swap2\n      swap1\n      tag_102\n      jump\t// in\n    tag_101:\n        /* \"token_eco_system_dev_contracts/contracts_ready_for_prod/PoolRateFeed.sol\":3384:3385  8 */\n      0x08\n        /* \"token_eco_system_dev_contracts/contracts_ready_for_prod/PoolRateFeed.sol\":3401:3413  tokenTwoName */\n      dup8\n        /* \"token_eco_system_dev_contracts/contracts_ready_for_prod/PoolRateFeed.sol\":3420:3432  tokenOneName */\n      dup12\n        /* \"token_eco_system_dev_contracts/contracts_ready_for_prod/PoolRateFeed.sol\":3387:3433  string.concat(tokenTwoName, \"/\", tokenOneName) */\n      add(0x20, mload(0x40))\n      tag_103\n      swap3\n      swap2\n      swap1\n      tag_104\n      jump\t// in\n    tag_103:\n      mload(0x40)\n      0x20\n      dup2\n      dup4\n      sub\n      sub\n      dup2\n      mstore\n      swap1\n      0x40\n      mstore\n        /* \"token_eco_system_dev_contracts/contracts_ready_for_prod/PoolRateFeed.sol\":3435:3439  date */\n      dup8\n        /* \"token_eco_system_dev_contracts/contracts_ready_for_prod/PoolRateFeed.sol\":3349:3440  return (tokenTwo*10**8 / tokenOne, 8, string.concat(tokenTwoName, \"/\", tokenOneName), date) */\n      dup1\n      0xffffffff\n      and\n      swap1\n      pop\n      swap4\n      pop\n      swap4\n      pop\n      swap4\n      pop\n      swap4\n      pop\n        /* \"token_eco_system_dev_contracts/contracts_ready_for_prod/PoolRateFeed.sol\":2448:3447  function calculatePoolRate(... */\n      swap8\n      pop\n      swap8\n      pop\n      swap8\n      pop\n      swap8\n      swap4\n      pop\n      pop\n      pop\n      pop\n      jump\t// out\n        /* \"#utility.yul\":7:82   */\n    tag_105:\n        /* \"#utility.yul\":40:46   */\n      0x00\n        /* \"#utility.yul\":73:75   */\n      0x40\n        /* \"#utility.yul\":67:76   */\n      mload\n        /* \"#utility.yul\":57:76   */\n      swap1\n      pop\n        /* \"#utility.yul\":7:82   */\n      swap1\n      jump\t// out\n        /* \"#utility.yul\":88:205   */\n    tag_106:\n        /* \"#utility.yul\":197:198   */\n      0x00\n        /* \"#utility.yul\":194:195   */\n      dup1\n        /* \"#utility.yul\":187:199   */\n      revert\n        /* \"#utility.yul\":211:328   */\n    tag_107:\n        /* \"#utility.yul\":320:321   */\n      0x00\n        /* \"#utility.yul\":317:318   */\n      dup1\n        /* \"#utility.yul\":310:322   */\n      revert\n        /* \"#utility.yul\":334:460   */\n    tag_108:\n        /* \"#utility.yul\":371:378   */\n      0x00\n        /* \"#utility.yul\":411:453   */\n      0xffffffffffffffffffffffffffffffffffffffff\n        /* \"#utility.yul\":404:409   */\n      dup3\n        /* \"#utility.yul\":400:454   */\n      and\n        /* \"#utility.yul\":389:454   */\n      swap1\n      pop\n        /* \"#utility.yul\":334:460   */\n      swap2\n      swap1\n      pop\n      jump\t// out\n        /* \"#utility.yul\":466:562   */\n    tag_109:\n        /* \"#utility.yul\":503:510   */\n      0x00\n        /* \"#utility.yul\":532:556   */\n      tag_166\n        /* \"#utility.yul\":550:555   */\n      dup3\n        /* \"#utility.yul\":532:556   */\n      tag_108\n      jump\t// in\n    tag_166:\n        /* \"#utility.yul\":521:556   */\n      swap1\n      pop\n        /* \"#utility.yul\":466:562   */\n      swap2\n      swap1\n      pop\n      jump\t// out\n        /* \"#utility.yul\":568:690   */\n    tag_110:\n        /* \"#utility.yul\":641:665   */\n      tag_168\n        /* \"#utility.yul\":659:664   */\n      dup2\n        /* \"#utility.yul\":641:665   */\n      tag_109\n      jump\t// in\n    tag_168:\n        /* \"#utility.yul\":634:639   */\n      dup2\n        /* \"#utility.yul\":631:666   */\n      eq\n        /* \"#utility.yul\":621:684   */\n      tag_169\n      jumpi\n        /* \"#utility.yul\":680:681   */\n      0x00\n        /* \"#utility.yul\":677:678   */\n      dup1\n        /* \"#utility.yul\":670:682   */\n      revert\n        /* \"#utility.yul\":621:684   */\n    tag_169:\n        /* \"#utility.yul\":568:690   */\n      pop\n      jump\t// out\n        /* \"#utility.yul\":696:835   */\n    tag_111:\n        /* \"#utility.yul\":742:747   */\n      0x00\n        /* \"#utility.yul\":780:786   */\n      dup2\n        /* \"#utility.yul\":767:787   */\n      calldataload\n        /* \"#utility.yul\":758:787   */\n      swap1\n      pop\n        /* \"#utility.yul\":796:829   */\n      tag_171\n        /* \"#utility.yul\":823:828   */\n      dup2\n        /* \"#utility.yul\":796:829   */\n      tag_110\n      jump\t// in\n    tag_171:\n        /* \"#utility.yul\":696:835   */\n      swap3\n      swap2\n      pop\n      pop\n      jump\t// out\n        /* \"#utility.yul\":841:1170   */\n    tag_12:\n        /* \"#utility.yul\":900:906   */\n      0x00\n        /* \"#utility.yul\":949:951   */\n      0x20\n        /* \"#utility.yul\":937:946   */\n      dup3\n        /* \"#utility.yul\":928:935   */\n      dup5\n        /* \"#utility.yul\":924:947   */\n      sub\n        /* \"#utility.yul\":920:952   */\n      slt\n        /* \"#utility.yul\":917:1036   */\n      iszero\n      tag_173\n      jumpi\n        /* \"#utility.yul\":955:1034   */\n      tag_174\n      tag_106\n      jump\t// in\n    tag_174:\n        /* \"#utility.yul\":917:1036   */\n    tag_173:\n        /* \"#utility.yul\":1075:1076   */\n      0x00\n        /* \"#utility.yul\":1100:1153   */\n      tag_175\n        /* \"#utility.yul\":1145:1152   */\n      dup5\n        /* \"#utility.yul\":1136:1142   */\n      dup3\n        /* \"#utility.yul\":1125:1134   */\n      dup6\n        /* \"#utility.yul\":1121:1143   */\n      add\n        /* \"#utility.yul\":1100:1153   */\n      tag_111\n      jump\t// in\n    tag_175:\n        /* \"#utility.yul\":1090:1153   */\n      swap2\n      pop\n        /* \"#utility.yul\":1046:1163   */\n      pop\n        /* \"#utility.yul\":841:1170   */\n      swap3\n      swap2\n      pop\n      pop\n      jump\t// out\n        /* \"#utility.yul\":1176:1253   */\n    tag_112:\n        /* \"#utility.yul\":1213:1220   */\n      0x00\n        /* \"#utility.yul\":1242:1247   */\n      dup2\n        /* \"#utility.yul\":1231:1247   */\n      swap1\n      pop\n        /* \"#utility.yul\":1176:1253   */\n      swap2\n      swap1\n      pop\n      jump\t// out\n        /* \"#utility.yul\":1259:1377   */\n    tag_113:\n        /* \"#utility.yul\":1346:1370   */\n      tag_178\n        /* \"#utility.yul\":1364:1369   */\n      dup2\n        /* \"#utility.yul\":1346:1370   */\n      tag_112\n      jump\t// in\n    tag_178:\n        /* \"#utility.yul\":1341:1344   */\n      dup3\n        /* \"#utility.yul\":1334:1371   */\n      mstore\n        /* \"#utility.yul\":1259:1377   */\n      pop\n      pop\n      jump\t// out\n        /* \"#utility.yul\":1383:1482   */\n    tag_114:\n        /* \"#utility.yul\":1435:1441   */\n      0x00\n        /* \"#utility.yul\":1469:1474   */\n      dup2\n        /* \"#utility.yul\":1463:1475   */\n      mload\n        /* \"#utility.yul\":1453:1475   */\n      swap1\n      pop\n        /* \"#utility.yul\":1383:1482   */\n      swap2\n      swap1\n      pop\n      jump\t// out\n        /* \"#utility.yul\":1488:1657   */\n    tag_115:\n        /* \"#utility.yul\":1572:1583   */\n      0x00\n        /* \"#utility.yul\":1606:1612   */\n      dup3\n        /* \"#utility.yul\":1601:1604   */\n      dup3\n        /* \"#utility.yul\":1594:1613   */\n      mstore\n        /* \"#utility.yul\":1646:1650   */\n      0x20\n        /* \"#utility.yul\":1641:1644   */\n      dup3\n        /* \"#utility.yul\":1637:1651   */\n      add\n        /* \"#utility.yul\":1622:1651   */\n      swap1\n      pop\n        /* \"#utility.yul\":1488:1657   */\n      swap3\n      swap2\n      pop\n      pop\n      jump\t// out\n        /* \"#utility.yul\":1663:1802   */\n    tag_116:\n        /* \"#utility.yul\":1752:1758   */\n      dup3\n        /* \"#utility.yul\":1747:1750   */\n      dup2\n        /* \"#utility.yul\":1742:1745   */\n      dup4\n        /* \"#utility.yul\":1736:1759   */\n      mcopy\n        /* \"#utility.yul\":1793:1794   */\n      0x00\n        /* \"#utility.yul\":1784:1790   */\n      dup4\n        /* \"#utility.yul\":1779:1782   */\n      dup4\n        /* \"#utility.yul\":1775:1791   */\n      add\n        /* \"#utility.yul\":1768:1795   */\n      mstore\n        /* \"#utility.yul\":1663:1802   */\n      pop\n      pop\n      pop\n      jump\t// out\n        /* \"#utility.yul\":1808:1910   */\n    tag_117:\n        /* \"#utility.yul\":1849:1855   */\n      0x00\n        /* \"#utility.yul\":1900:1902   */\n      0x1f\n        /* \"#utility.yul\":1896:1903   */\n      not\n        /* \"#utility.yul\":1891:1893   */\n      0x1f\n        /* \"#utility.yul\":1884:1889   */\n      dup4\n        /* \"#utility.yul\":1880:1894   */\n      add\n        /* \"#utility.yul\":1876:1904   */\n      and\n        /* \"#utility.yul\":1866:1904   */\n      swap1\n      pop\n        /* \"#utility.yul\":1808:1910   */\n      swap2\n      swap1\n      pop\n      jump\t// out\n        /* \"#utility.yul\":1916:2293   */\n    tag_118:\n        /* \"#utility.yul\":2004:2007   */\n      0x00\n        /* \"#utility.yul\":2032:2071   */\n      tag_184\n        /* \"#utility.yul\":2065:2070   */\n      dup3\n        /* \"#utility.yul\":2032:2071   */\n      tag_114\n      jump\t// in\n    tag_184:\n        /* \"#utility.yul\":2087:2158   */\n      tag_185\n        /* \"#utility.yul\":2151:2157   */\n      dup2\n        /* \"#utility.yul\":2146:2149   */\n      dup6\n        /* \"#utility.yul\":2087:2158   */\n      tag_115\n      jump\t// in\n    tag_185:\n        /* \"#utility.yul\":2080:2158   */\n      swap4\n      pop\n        /* \"#utility.yul\":2167:2232   */\n      tag_186\n        /* \"#utility.yul\":2225:2231   */\n      dup2\n        /* \"#utility.yul\":2220:2223   */\n      dup6\n        /* \"#utility.yul\":2213:2217   */\n      0x20\n        /* \"#utility.yul\":2206:2211   */\n      dup7\n        /* \"#utility.yul\":2202:2218   */\n      add\n        /* \"#utility.yul\":2167:2232   */\n      tag_116\n      jump\t// in\n    tag_186:\n        /* \"#utility.yul\":2257:2286   */\n      tag_187\n        /* \"#utility.yul\":2279:2285   */\n      dup2\n        /* \"#utility.yul\":2257:2286   */\n      tag_117\n      jump\t// in\n    tag_187:\n        /* \"#utility.yul\":2252:2255   */\n      dup5\n        /* \"#utility.yul\":2248:2287   */\n      add\n        /* \"#utility.yul\":2241:2287   */\n      swap2\n      pop\n        /* \"#utility.yul\":2008:2293   */\n      pop\n        /* \"#utility.yul\":1916:2293   */\n      swap3\n      swap2\n      pop\n      pop\n      jump\t// out\n        /* \"#utility.yul\":2299:2943   */\n    tag_19:\n        /* \"#utility.yul\":2496:2500   */\n      0x00\n        /* \"#utility.yul\":2534:2537   */\n      0x80\n        /* \"#utility.yul\":2523:2532   */\n      dup3\n        /* \"#utility.yul\":2519:2538   */\n      add\n        /* \"#utility.yul\":2511:2538   */\n      swap1\n      pop\n        /* \"#utility.yul\":2548:2619   */\n      tag_189\n        /* \"#utility.yul\":2616:2617   */\n      0x00\n        /* \"#utility.yul\":2605:2614   */\n      dup4\n        /* \"#utility.yul\":2601:2618   */\n      add\n        /* \"#utility.yul\":2592:2598   */\n      dup8\n        /* \"#utility.yul\":2548:2619   */\n      tag_113\n      jump\t// in\n    tag_189:\n        /* \"#utility.yul\":2629:2701   */\n      tag_190\n        /* \"#utility.yul\":2697:2699   */\n      0x20\n        /* \"#utility.yul\":2686:2695   */\n      dup4\n        /* \"#utility.yul\":2682:2700   */\n      add\n        /* \"#utility.yul\":2673:2679   */\n      dup7\n        /* \"#utility.yul\":2629:2701   */\n      tag_113\n      jump\t// in\n    tag_190:\n        /* \"#utility.yul\":2748:2757   */\n      dup2\n        /* \"#utility.yul\":2742:2746   */\n      dup2\n        /* \"#utility.yul\":2738:2758   */\n      sub\n        /* \"#utility.yul\":2733:2735   */\n      0x40\n        /* \"#utility.yul\":2722:2731   */\n      dup4\n        /* \"#utility.yul\":2718:2736   */\n      add\n        /* \"#utility.yul\":2711:2759   */\n      mstore\n        /* \"#utility.yul\":2776:2854   */\n      tag_191\n        /* \"#utility.yul\":2849:2853   */\n      dup2\n        /* \"#utility.yul\":2840:2846   */\n      dup6\n        /* \"#utility.yul\":2776:2854   */\n      tag_118\n      jump\t// in\n    tag_191:\n        /* \"#utility.yul\":2768:2854   */\n      swap1\n      pop\n        /* \"#utility.yul\":2864:2936   */\n      tag_192\n        /* \"#utility.yul\":2932:2934   */\n      0x60\n        /* \"#utility.yul\":2921:2930   */\n      dup4\n        /* \"#utility.yul\":2917:2935   */\n      add\n        /* \"#utility.yul\":2908:2914   */\n      dup5\n        /* \"#utility.yul\":2864:2936   */\n      tag_113\n      jump\t// in\n    tag_192:\n        /* \"#utility.yul\":2299:2943   */\n      swap6\n      swap5\n      pop\n      pop\n      pop\n      pop\n      pop\n      jump\t// out\n        /* \"#utility.yul\":2949:3067   */\n    tag_119:\n        /* \"#utility.yul\":3036:3060   */\n      tag_194\n        /* \"#utility.yul\":3054:3059   */\n      dup2\n        /* \"#utility.yul\":3036:3060   */\n      tag_109\n      jump\t// in\n    tag_194:\n        /* \"#utility.yul\":3031:3034   */\n      dup3\n        /* \"#utility.yul\":3024:3061   */\n      mstore\n        /* \"#utility.yul\":2949:3067   */\n      pop\n      pop\n      jump\t// out\n        /* \"#utility.yul\":3073:3295   */\n    tag_23:\n        /* \"#utility.yul\":3166:3170   */\n      0x00\n        /* \"#utility.yul\":3204:3206   */\n      0x20\n        /* \"#utility.yul\":3193:3202   */\n      dup3\n        /* \"#utility.yul\":3189:3207   */\n      add\n        /* \"#utility.yul\":3181:3207   */\n      swap1\n      pop\n        /* \"#utility.yul\":3217:3288   */\n      tag_196\n        /* \"#utility.yul\":3285:3286   */\n      0x00\n        /* \"#utility.yul\":3274:3283   */\n      dup4\n        /* \"#utility.yul\":3270:3287   */\n      add\n        /* \"#utility.yul\":3261:3267   */\n      dup5\n        /* \"#utility.yul\":3217:3288   */\n      tag_119\n      jump\t// in\n    tag_196:\n        /* \"#utility.yul\":3073:3295   */\n      swap3\n      swap2\n      pop\n      pop\n      jump\t// out\n        /* \"#utility.yul\":3301:3466   */\n    tag_120:\n        /* \"#utility.yul\":3441:3458   */\n      0x4e6f7420417574686f72697a6564210000000000000000000000000000000000\n        /* \"#utility.yul\":3437:3438   */\n      0x00\n        /* \"#utility.yul\":3429:3435   */\n      dup3\n        /* \"#utility.yul\":3425:3439   */\n      add\n        /* \"#utility.yul\":3418:3459   */\n      mstore\n        /* \"#utility.yul\":3301:3466   */\n      pop\n      jump\t// out\n        /* \"#utility.yul\":3472:3838   */\n    tag_121:\n        /* \"#utility.yul\":3614:3617   */\n      0x00\n        /* \"#utility.yul\":3635:3702   */\n      tag_199\n        /* \"#utility.yul\":3699:3701   */\n      0x0f\n        /* \"#utility.yul\":3694:3697   */\n      dup4\n        /* \"#utility.yul\":3635:3702   */\n      tag_115\n      jump\t// in\n    tag_199:\n        /* \"#utility.yul\":3628:3702   */\n      swap2\n      pop\n        /* \"#utility.yul\":3711:3804   */\n      tag_200\n        /* \"#utility.yul\":3800:3803   */\n      dup3\n        /* \"#utility.yul\":3711:3804   */\n      tag_120\n      jump\t// in\n    tag_200:\n        /* \"#utility.yul\":3829:3831   */\n      0x20\n        /* \"#utility.yul\":3824:3827   */\n      dup3\n        /* \"#utility.yul\":3820:3832   */\n      add\n        /* \"#utility.yul\":3813:3832   */\n      swap1\n      pop\n        /* \"#utility.yul\":3472:3838   */\n      swap2\n      swap1\n      pop\n      jump\t// out\n        /* \"#utility.yul\":3844:4263   */\n    tag_27:\n        /* \"#utility.yul\":4010:4014   */\n      0x00\n        /* \"#utility.yul\":4048:4050   */\n      0x20\n        /* \"#utility.yul\":4037:4046   */\n      dup3\n        /* \"#utility.yul\":4033:4051   */\n      add\n        /* \"#utility.yul\":4025:4051   */\n      swap1\n      pop\n        /* \"#utility.yul\":4097:4106   */\n      dup2\n        /* \"#utility.yul\":4091:4095   */\n      dup2\n        /* \"#utility.yul\":4087:4107   */\n      sub\n        /* \"#utility.yul\":4083:4084   */\n      0x00\n        /* \"#utility.yul\":4072:4081   */\n      dup4\n        /* \"#utility.yul\":4068:4085   */\n      add\n        /* \"#utility.yul\":4061:4108   */\n      mstore\n        /* \"#utility.yul\":4125:4256   */\n      tag_202\n        /* \"#utility.yul\":4251:4255   */\n      dup2\n        /* \"#utility.yul\":4125:4256   */\n      tag_121\n      jump\t// in\n    tag_202:\n        /* \"#utility.yul\":4117:4256   */\n      swap1\n      pop\n        /* \"#utility.yul\":3844:4263   */\n      swap2\n      swap1\n      pop\n      jump\t// out\n        /* \"#utility.yul\":4269:4437   */\n    tag_122:\n        /* \"#utility.yul\":4409:4429   */\n      0x416c726561647920616374697661746564210000000000000000000000000000\n        /* \"#utility.yul\":4405:4406   */\n      0x00\n        /* \"#utility.yul\":4397:4403   */\n      dup3\n        /* \"#utility.yul\":4393:4407   */\n      add\n        /* \"#utility.yul\":4386:4430   */\n      mstore\n        /* \"#utility.yul\":4269:4437   */\n      pop\n      jump\t// out\n        /* \"#utility.yul\":4443:4809   */\n    tag_123:\n        /* \"#utility.yul\":4585:4588   */\n      0x00\n        /* \"#utility.yul\":4606:4673   */\n      tag_205\n        /* \"#utility.yul\":4670:4672   */\n      0x12\n        /* \"#utility.yul\":4665:4668   */\n      dup4\n        /* \"#utility.yul\":4606:4673   */\n      tag_115\n      jump\t// in\n    tag_205:\n        /* \"#utility.yul\":4599:4673   */\n      swap2\n      pop\n        /* \"#utility.yul\":4682:4775   */\n      tag_206\n        /* \"#utility.yul\":4771:4774   */\n      dup3\n        /* \"#utility.yul\":4682:4775   */\n      tag_122\n      jump\t// in\n    tag_206:\n        /* \"#utility.yul\":4800:4802   */\n      0x20\n        /* \"#utility.yul\":4795:4798   */\n      dup3\n        /* \"#utility.yul\":4791:4803   */\n      add\n        /* \"#utility.yul\":4784:4803   */\n      swap1\n      pop\n        /* \"#utility.yul\":4443:4809   */\n      swap2\n      swap1\n      pop\n      jump\t// out\n        /* \"#utility.yul\":4815:5234   */\n    tag_31:\n        /* \"#utility.yul\":4981:4985   */\n      0x00\n        /* \"#utility.yul\":5019:5021   */\n      0x20\n        /* \"#utility.yul\":5008:5017   */\n      dup3\n        /* \"#utility.yul\":5004:5022   */\n      add\n        /* \"#utility.yul\":4996:5022   */\n      swap1\n      pop\n        /* \"#utility.yul\":5068:5077   */\n      dup2\n        /* \"#utility.yul\":5062:5066   */\n      dup2\n        /* \"#utility.yul\":5058:5078   */\n      sub\n        /* \"#utility.yul\":5054:5055   */\n      0x00\n        /* \"#utility.yul\":5043:5052   */\n      dup4\n        /* \"#utility.yul\":5039:5056   */\n      add\n        /* \"#utility.yul\":5032:5079   */\n      mstore\n        /* \"#utility.yul\":5096:5227   */\n      tag_208\n        /* \"#utility.yul\":5222:5226   */\n      dup2\n        /* \"#utility.yul\":5096:5227   */\n      tag_123\n      jump\t// in\n    tag_208:\n        /* \"#utility.yul\":5088:5227   */\n      swap1\n      pop\n        /* \"#utility.yul\":4815:5234   */\n      swap2\n      swap1\n      pop\n      jump\t// out\n        /* \"#utility.yul\":5240:5410   */\n    tag_124:\n        /* \"#utility.yul\":5380:5402   */\n      0x416c726561647920646561637469766174656421000000000000000000000000\n        /* \"#utility.yul\":5376:5377   */\n      0x00\n        /* \"#utility.yul\":5368:5374   */\n      dup3\n        /* \"#utility.yul\":5364:5378   */\n      add\n        /* \"#utility.yul\":5357:5403   */\n      mstore\n        /* \"#utility.yul\":5240:5410   */\n      pop\n      jump\t// out\n        /* \"#utility.yul\":5416:5782   */\n    tag_125:\n        /* \"#utility.yul\":5558:5561   */\n      0x00\n        /* \"#utility.yul\":5579:5646   */\n      tag_211\n        /* \"#utility.yul\":5643:5645   */\n      0x14\n        /* \"#utility.yul\":5638:5641   */\n      dup4\n        /* \"#utility.yul\":5579:5646   */\n      tag_115\n      jump\t// in\n    tag_211:\n        /* \"#utility.yul\":5572:5646   */\n      swap2\n      pop\n        /* \"#utility.yul\":5655:5748   */\n      tag_212\n        /* \"#utility.yul\":5744:5747   */\n      dup3\n        /* \"#utility.yul\":5655:5748   */\n      tag_124\n      jump\t// in\n    tag_212:\n        /* \"#utility.yul\":5773:5775   */\n      0x20\n        /* \"#utility.yul\":5768:5771   */\n      dup3\n        /* \"#utility.yul\":5764:5776   */\n      add\n        /* \"#utility.yul\":5757:5776   */\n      swap1\n      pop\n        /* \"#utility.yul\":5416:5782   */\n      swap2\n      swap1\n      pop\n      jump\t// out\n        /* \"#utility.yul\":5788:6207   */\n    tag_42:\n        /* \"#utility.yul\":5954:5958   */\n      0x00\n        /* \"#utility.yul\":5992:5994   */\n      0x20\n        /* \"#utility.yul\":5981:5990   */\n      dup3\n        /* \"#utility.yul\":5977:5995   */\n      add\n        /* \"#utility.yul\":5969:5995   */\n      swap1\n      pop\n        /* \"#utility.yul\":6041:6050   */\n      dup2\n        /* \"#utility.yul\":6035:6039   */\n      dup2\n        /* \"#utility.yul\":6031:6051   */\n      sub\n        /* \"#utility.yul\":6027:6028   */\n      0x00\n        /* \"#utility.yul\":6016:6025   */\n      dup4\n        /* \"#utility.yul\":6012:6029   */\n      add\n        /* \"#utility.yul\":6005:6052   */\n      mstore\n        /* \"#utility.yul\":6069:6200   */\n      tag_214\n        /* \"#utility.yul\":6195:6199   */\n      dup2\n        /* \"#utility.yul\":6069:6200   */\n      tag_125\n      jump\t// in\n    tag_214:\n        /* \"#utility.yul\":6061:6200   */\n      swap1\n      pop\n        /* \"#utility.yul\":5788:6207   */\n      swap2\n      swap1\n      pop\n      jump\t// out\n        /* \"#utility.yul\":6213:6356   */\n    tag_126:\n        /* \"#utility.yul\":6270:6275   */\n      0x00\n        /* \"#utility.yul\":6301:6307   */\n      dup2\n        /* \"#utility.yul\":6295:6308   */\n      mload\n        /* \"#utility.yul\":6286:6308   */\n      swap1\n      pop\n        /* \"#utility.yul\":6317:6350   */\n      tag_216\n        /* \"#utility.yul\":6344:6349   */\n      dup2\n        /* \"#utility.yul\":6317:6350   */\n      tag_110\n      jump\t// in\n    tag_216:\n        /* \"#utility.yul\":6213:6356   */\n      swap3\n      swap2\n      pop\n      pop\n      jump\t// out\n        /* \"#utility.yul\":6362:6713   */\n    tag_48:\n        /* \"#utility.yul\":6432:6438   */\n      0x00\n        /* \"#utility.yul\":6481:6483   */\n      0x20\n        /* \"#utility.yul\":6469:6478   */\n      dup3\n        /* \"#utility.yul\":6460:6467   */\n      dup5\n        /* \"#utility.yul\":6456:6479   */\n      sub\n        /* \"#utility.yul\":6452:6484   */\n      slt\n        /* \"#utility.yul\":6449:6568   */\n      iszero\n      tag_218\n      jumpi\n        /* \"#utility.yul\":6487:6566   */\n      tag_219\n      tag_106\n      jump\t// in\n    tag_219:\n        /* \"#utility.yul\":6449:6568   */\n    tag_218:\n        /* \"#utility.yul\":6607:6608   */\n      0x00\n        /* \"#utility.yul\":6632:6696   */\n      tag_220\n        /* \"#utility.yul\":6688:6695   */\n      dup5\n        /* \"#utility.yul\":6679:6685   */\n      dup3\n        /* \"#utility.yul\":6668:6677   */\n      dup6\n        /* \"#utility.yul\":6664:6686   */\n      add\n        /* \"#utility.yul\":6632:6696   */\n      tag_126\n      jump\t// in\n    tag_220:\n        /* \"#utility.yul\":6622:6696   */\n      swap2\n      pop\n        /* \"#utility.yul\":6578:6706   */\n      pop\n        /* \"#utility.yul\":6362:6713   */\n      swap3\n      swap2\n      pop\n      pop\n      jump\t// out\n        /* \"#utility.yul\":6719:6805   */\n    tag_127:\n        /* \"#utility.yul\":6754:6761   */\n      0x00\n        /* \"#utility.yul\":6794:6798   */\n      0xff\n        /* \"#utility.yul\":6787:6792   */\n      dup3\n        /* \"#utility.yul\":6783:6799   */\n      and\n        /* \"#utility.yul\":6772:6799   */\n      swap1\n      pop\n        /* \"#utility.yul\":6719:6805   */\n      swap2\n      swap1\n      pop\n      jump\t// out\n        /* \"#utility.yul\":6811:6929   */\n    tag_128:\n        /* \"#utility.yul\":6882:6904   */\n      tag_223\n        /* \"#utility.yul\":6898:6903   */\n      dup2\n        /* \"#utility.yul\":6882:6904   */\n      tag_127\n      jump\t// in\n    tag_223:\n        /* \"#utility.yul\":6875:6880   */\n      dup2\n        /* \"#utility.yul\":6872:6905   */\n      eq\n        /* \"#utility.yul\":6862:6923   */\n      tag_224\n      jumpi\n        /* \"#utility.yul\":6919:6920   */\n      0x00\n        /* \"#utility.yul\":6916:6917   */\n      dup1\n        /* \"#utility.yul\":6909:6921   */\n      revert\n        /* \"#utility.yul\":6862:6923   */\n    tag_224:\n        /* \"#utility.yul\":6811:6929   */\n      pop\n      jump\t// out\n        /* \"#utility.yul\":6935:7074   */\n    tag_129:\n        /* \"#utility.yul\":6990:6995   */\n      0x00\n        /* \"#utility.yul\":7021:7027   */\n      dup2\n        /* \"#utility.yul\":7015:7028   */\n      mload\n        /* \"#utility.yul\":7006:7028   */\n      swap1\n      pop\n        /* \"#utility.yul\":7037:7068   */\n      tag_226\n        /* \"#utility.yul\":7062:7067   */\n      dup2\n        /* \"#utility.yul\":7037:7068   */\n      tag_128\n      jump\t// in\n    tag_226:\n        /* \"#utility.yul\":6935:7074   */\n      swap3\n      swap2\n      pop\n      pop\n      jump\t// out\n        /* \"#utility.yul\":7080:7427   */\n    tag_55:\n        /* \"#utility.yul\":7148:7154   */\n      0x00\n        /* \"#utility.yul\":7197:7199   */\n      0x20\n        /* \"#utility.yul\":7185:7194   */\n      dup3\n        /* \"#utility.yul\":7176:7183   */\n      dup5\n        /* \"#utility.yul\":7172:7195   */\n      sub\n        /* \"#utility.yul\":7168:7200   */\n      slt\n        /* \"#utility.yul\":7165:7284   */\n      iszero\n      tag_228\n      jumpi\n        /* \"#utility.yul\":7203:7282   */\n      tag_229\n      tag_106\n      jump\t// in\n    tag_229:\n        /* \"#utility.yul\":7165:7284   */\n    tag_228:\n        /* \"#utility.yul\":7323:7324   */\n      0x00\n        /* \"#utility.yul\":7348:7410   */\n      tag_230\n        /* \"#utility.yul\":7402:7409   */\n      dup5\n        /* \"#utility.yul\":7393:7399   */\n      dup3\n        /* \"#utility.yul\":7382:7391   */\n      dup6\n        /* \"#utility.yul\":7378:7400   */\n      add\n        /* \"#utility.yul\":7348:7410   */\n      tag_129\n      jump\t// in\n    tag_230:\n        /* \"#utility.yul\":7338:7410   */\n      swap2\n      pop\n        /* \"#utility.yul\":7294:7420   */\n      pop\n        /* \"#utility.yul\":7080:7427   */\n      swap3\n      swap2\n      pop\n      pop\n      jump\t// out\n        /* \"#utility.yul\":7433:7550   */\n    tag_130:\n        /* \"#utility.yul\":7542:7543   */\n      0x00\n        /* \"#utility.yul\":7539:7540   */\n      dup1\n        /* \"#utility.yul\":7532:7544   */\n      revert\n        /* \"#utility.yul\":7556:7673   */\n    tag_131:\n        /* \"#utility.yul\":7665:7666   */\n      0x00\n        /* \"#utility.yul\":7662:7663   */\n      dup1\n        /* \"#utility.yul\":7655:7667   */\n      revert\n        /* \"#utility.yul\":7679:7859   */\n    tag_132:\n        /* \"#utility.yul\":7727:7804   */\n      0x4e487b7100000000000000000000000000000000000000000000000000000000\n        /* \"#utility.yul\":7724:7725   */\n      0x00\n        /* \"#utility.yul\":7717:7805   */\n      mstore\n        /* \"#utility.yul\":7824:7828   */\n      0x41\n        /* \"#utility.yul\":7821:7822   */\n      0x04\n        /* \"#utility.yul\":7814:7829   */\n      mstore\n        /* \"#utility.yul\":7848:7852   */\n      0x24\n        /* \"#utility.yul\":7845:7846   */\n      0x00\n        /* \"#utility.yul\":7838:7853   */\n      revert\n        /* \"#utility.yul\":7865:8146   */\n    tag_133:\n        /* \"#utility.yul\":7948:7975   */\n      tag_235\n        /* \"#utility.yul\":7970:7974   */\n      dup3\n        /* \"#utility.yul\":7948:7975   */\n      tag_117\n      jump\t// in\n    tag_235:\n        /* \"#utility.yul\":7940:7946   */\n      dup2\n        /* \"#utility.yul\":7936:7976   */\n      add\n        /* \"#utility.yul\":8078:8084   */\n      dup2\n        /* \"#utility.yul\":8066:8076   */\n      dup2\n        /* \"#utility.yul\":8063:8085   */\n      lt\n        /* \"#utility.yul\":8042:8060   */\n      0xffffffffffffffff\n        /* \"#utility.yul\":8030:8040   */\n      dup3\n        /* \"#utility.yul\":8027:8061   */\n      gt\n        /* \"#utility.yul\":8024:8086   */\n      or\n        /* \"#utility.yul\":8021:8109   */\n      iszero\n      tag_236\n      jumpi\n        /* \"#utility.yul\":8089:8107   */\n      tag_237\n      tag_132\n      jump\t// in\n    tag_237:\n        /* \"#utility.yul\":8021:8109   */\n    tag_236:\n        /* \"#utility.yul\":8129:8139   */\n      dup1\n        /* \"#utility.yul\":8125:8127   */\n      0x40\n        /* \"#utility.yul\":8118:8140   */\n      mstore\n        /* \"#utility.yul\":7908:8146   */\n      pop\n        /* \"#utility.yul\":7865:8146   */\n      pop\n      pop\n      jump\t// out\n        /* \"#utility.yul\":8152:8281   */\n    tag_134:\n        /* \"#utility.yul\":8186:8192   */\n      0x00\n        /* \"#utility.yul\":8213:8233   */\n      tag_239\n      tag_105\n      jump\t// in\n    tag_239:\n        /* \"#utility.yul\":8203:8233   */\n      swap1\n      pop\n        /* \"#utility.yul\":8242:8275   */\n      tag_240\n        /* \"#utility.yul\":8270:8274   */\n      dup3\n        /* \"#utility.yul\":8262:8268   */\n      dup3\n        /* \"#utility.yul\":8242:8275   */\n      tag_133\n      jump\t// in\n    tag_240:\n        /* \"#utility.yul\":8152:8281   */\n      swap2\n      swap1\n      pop\n      jump\t// out\n        /* \"#utility.yul\":8287:8595   */\n    tag_135:\n        /* \"#utility.yul\":8349:8353   */\n      0x00\n        /* \"#utility.yul\":8439:8457   */\n      0xffffffffffffffff\n        /* \"#utility.yul\":8431:8437   */\n      dup3\n        /* \"#utility.yul\":8428:8458   */\n      gt\n        /* \"#utility.yul\":8425:8481   */\n      iszero\n      tag_242\n      jumpi\n        /* \"#utility.yul\":8461:8479   */\n      tag_243\n      tag_132\n      jump\t// in\n    tag_243:\n        /* \"#utility.yul\":8425:8481   */\n    tag_242:\n        /* \"#utility.yul\":8499:8528   */\n      tag_244\n        /* \"#utility.yul\":8521:8527   */\n      dup3\n        /* \"#utility.yul\":8499:8528   */\n      tag_117\n      jump\t// in\n    tag_244:\n        /* \"#utility.yul\":8491:8528   */\n      swap1\n      pop\n        /* \"#utility.yul\":8583:8587   */\n      0x20\n        /* \"#utility.yul\":8577:8581   */\n      dup2\n        /* \"#utility.yul\":8573:8588   */\n      add\n        /* \"#utility.yul\":8565:8588   */\n      swap1\n      pop\n        /* \"#utility.yul\":8287:8595   */\n      swap2\n      swap1\n      pop\n      jump\t// out\n        /* \"#utility.yul\":8601:9035   */\n    tag_136:\n        /* \"#utility.yul\":8690:8695   */\n      0x00\n        /* \"#utility.yul\":8715:8781   */\n      tag_246\n        /* \"#utility.yul\":8731:8780   */\n      tag_247\n        /* \"#utility.yul\":8773:8779   */\n      dup5\n        /* \"#utility.yul\":8731:8780   */\n      tag_135\n      jump\t// in\n    tag_247:\n        /* \"#utility.yul\":8715:8781   */\n      tag_134\n      jump\t// in\n    tag_246:\n        /* \"#utility.yul\":8706:8781   */\n      swap1\n      pop\n        /* \"#utility.yul\":8804:8810   */\n      dup3\n        /* \"#utility.yul\":8797:8802   */\n      dup2\n        /* \"#utility.yul\":8790:8811   */\n      mstore\n        /* \"#utility.yul\":8842:8846   */\n      0x20\n        /* \"#utility.yul\":8835:8840   */\n      dup2\n        /* \"#utility.yul\":8831:8847   */\n      add\n        /* \"#utility.yul\":8880:8883   */\n      dup5\n        /* \"#utility.yul\":8871:8877   */\n      dup5\n        /* \"#utility.yul\":8866:8869   */\n      dup5\n        /* \"#utility.yul\":8862:8878   */\n      add\n        /* \"#utility.yul\":8859:8884   */\n      gt\n        /* \"#utility.yul\":8856:8968   */\n      iszero\n      tag_248\n      jumpi\n        /* \"#utility.yul\":8887:8966   */\n      tag_249\n      tag_131\n      jump\t// in\n    tag_249:\n        /* \"#utility.yul\":8856:8968   */\n    tag_248:\n        /* \"#utility.yul\":8977:9029   */\n      tag_250\n        /* \"#utility.yul\":9022:9028   */\n      dup5\n        /* \"#utility.yul\":9017:9020   */\n      dup3\n        /* \"#utility.yul\":9012:9015   */\n      dup6\n        /* \"#utility.yul\":8977:9029   */\n      tag_116\n      jump\t// in\n    tag_250:\n        /* \"#utility.yul\":8696:9035   */\n      pop\n        /* \"#utility.yul\":8601:9035   */\n      swap4\n      swap3\n      pop\n      pop\n      pop\n      jump\t// out\n        /* \"#utility.yul\":9055:9410   */\n    tag_137:\n        /* \"#utility.yul\":9122:9127   */\n      0x00\n        /* \"#utility.yul\":9171:9174   */\n      dup3\n        /* \"#utility.yul\":9164:9168   */\n      0x1f\n        /* \"#utility.yul\":9156:9162   */\n      dup4\n        /* \"#utility.yul\":9152:9169   */\n      add\n        /* \"#utility.yul\":9148:9175   */\n      slt\n        /* \"#utility.yul\":9138:9260   */\n      tag_252\n      jumpi\n        /* \"#utility.yul\":9179:9258   */\n      tag_253\n      tag_130\n      jump\t// in\n    tag_253:\n        /* \"#utility.yul\":9138:9260   */\n    tag_252:\n        /* \"#utility.yul\":9289:9295   */\n      dup2\n        /* \"#utility.yul\":9283:9296   */\n      mload\n        /* \"#utility.yul\":9314:9404   */\n      tag_254\n        /* \"#utility.yul\":9400:9403   */\n      dup5\n        /* \"#utility.yul\":9392:9398   */\n      dup3\n        /* \"#utility.yul\":9385:9389   */\n      0x20\n        /* \"#utility.yul\":9377:9383   */\n      dup7\n        /* \"#utility.yul\":9373:9390   */\n      add\n        /* \"#utility.yul\":9314:9404   */\n      tag_136\n      jump\t// in\n    tag_254:\n        /* \"#utility.yul\":9305:9404   */\n      swap2\n      pop\n        /* \"#utility.yul\":9128:9410   */\n      pop\n        /* \"#utility.yul\":9055:9410   */\n      swap3\n      swap2\n      pop\n      pop\n      jump\t// out\n        /* \"#utility.yul\":9416:9940   */\n    tag_62:\n        /* \"#utility.yul\":9496:9502   */\n      0x00\n        /* \"#utility.yul\":9545:9547   */\n      0x20\n        /* \"#utility.yul\":9533:9542   */\n      dup3\n        /* \"#utility.yul\":9524:9531   */\n      dup5\n        /* \"#utility.yul\":9520:9543   */\n      sub\n        /* \"#utility.yul\":9516:9548   */\n      slt\n        /* \"#utility.yul\":9513:9632   */\n      iszero\n      tag_256\n      jumpi\n        /* \"#utility.yul\":9551:9630   */\n      tag_257\n      tag_106\n      jump\t// in\n    tag_257:\n        /* \"#utility.yul\":9513:9632   */\n    tag_256:\n        /* \"#utility.yul\":9692:9693   */\n      0x00\n        /* \"#utility.yul\":9681:9690   */\n      dup3\n        /* \"#utility.yul\":9677:9694   */\n      add\n        /* \"#utility.yul\":9671:9695   */\n      mload\n        /* \"#utility.yul\":9722:9740   */\n      0xffffffffffffffff\n        /* \"#utility.yul\":9714:9720   */\n      dup2\n        /* \"#utility.yul\":9711:9741   */\n      gt\n        /* \"#utility.yul\":9708:9825   */\n      iszero\n      tag_258\n      jumpi\n        /* \"#utility.yul\":9744:9823   */\n      tag_259\n      tag_107\n      jump\t// in\n    tag_259:\n        /* \"#utility.yul\":9708:9825   */\n    tag_258:\n        /* \"#utility.yul\":9849:9923   */\n      tag_260\n        /* \"#utility.yul\":9915:9922   */\n      dup5\n        /* \"#utility.yul\":9906:9912   */\n      dup3\n        /* \"#utility.yul\":9895:9904   */\n      dup6\n        /* \"#utility.yul\":9891:9913   */\n      add\n        /* \"#utility.yul\":9849:9923   */\n      tag_137\n      jump\t// in\n    tag_260:\n        /* \"#utility.yul\":9839:9923   */\n      swap2\n      pop\n        /* \"#utility.yul\":9642:9933   */\n      pop\n        /* \"#utility.yul\":9416:9940   */\n      swap3\n      swap2\n      pop\n      pop\n      jump\t// out\n        /* \"#utility.yul\":9946:10060   */\n    tag_138:\n        /* \"#utility.yul\":9983:9990   */\n      0x00\n        /* \"#utility.yul\":10023:10053   */\n      0xffffffffffffffffffffffffffff\n        /* \"#utility.yul\":10016:10021   */\n      dup3\n        /* \"#utility.yul\":10012:10054   */\n      and\n        /* \"#utility.yul\":10001:10054   */\n      swap1\n      pop\n        /* \"#utility.yul\":9946:10060   */\n      swap2\n      swap1\n      pop\n      jump\t// out\n        /* \"#utility.yul\":10066:10188   */\n    tag_139:\n        /* \"#utility.yul\":10139:10163   */\n      tag_263\n        /* \"#utility.yul\":10157:10162   */\n      dup2\n        /* \"#utility.yul\":10139:10163   */\n      tag_138\n      jump\t// in\n    tag_263:\n        /* \"#utility.yul\":10132:10137   */\n      dup2\n        /* \"#utility.yul\":10129:10164   */\n      eq\n        /* \"#utility.yul\":10119:10182   */\n      tag_264\n      jumpi\n        /* \"#utility.yul\":10178:10179   */\n      0x00\n        /* \"#utility.yul\":10175:10176   */\n      dup1\n        /* \"#utility.yul\":10168:10180   */\n      revert\n        /* \"#utility.yul\":10119:10182   */\n    tag_264:\n        /* \"#utility.yul\":10066:10188   */\n      pop\n      jump\t// out\n        /* \"#utility.yul\":10194:10337   */\n    tag_140:\n        /* \"#utility.yul\":10251:10256   */\n      0x00\n        /* \"#utility.yul\":10282:10288   */\n      dup2\n        /* \"#utility.yul\":10276:10289   */\n      mload\n        /* \"#utility.yul\":10267:10289   */\n      swap1\n      pop\n        /* \"#utility.yul\":10298:10331   */\n      tag_266\n        /* \"#utility.yul\":10325:10330   */\n      dup2\n        /* \"#utility.yul\":10298:10331   */\n      tag_139\n      jump\t// in\n    tag_266:\n        /* \"#utility.yul\":10194:10337   */\n      swap3\n      swap2\n      pop\n      pop\n      jump\t// out\n        /* \"#utility.yul\":10343:10436   */\n    tag_141:\n        /* \"#utility.yul\":10379:10386   */\n      0x00\n        /* \"#utility.yul\":10419:10429   */\n      0xffffffff\n        /* \"#utility.yul\":10412:10417   */\n      dup3\n        /* \"#utility.yul\":10408:10430   */\n      and\n        /* \"#utility.yul\":10397:10430   */\n      swap1\n      pop\n        /* \"#utility.yul\":10343:10436   */\n      swap2\n      swap1\n      pop\n      jump\t// out\n        /* \"#utility.yul\":10442:10562   */\n    tag_142:\n        /* \"#utility.yul\":10514:10537   */\n      tag_269\n        /* \"#utility.yul\":10531:10536   */\n      dup2\n        /* \"#utility.yul\":10514:10537   */\n      tag_141\n      jump\t// in\n    tag_269:\n        /* \"#utility.yul\":10507:10512   */\n      dup2\n        /* \"#utility.yul\":10504:10538   */\n      eq\n        /* \"#utility.yul\":10494:10556   */\n      tag_270\n      jumpi\n        /* \"#utility.yul\":10552:10553   */\n      0x00\n        /* \"#utility.yul\":10549:10550   */\n      dup1\n        /* \"#utility.yul\":10542:10554   */\n      revert\n        /* \"#utility.yul\":10494:10556   */\n    tag_270:\n        /* \"#utility.yul\":10442:10562   */\n      pop\n      jump\t// out\n        /* \"#utility.yul\":10568:10709   */\n    tag_143:\n        /* \"#utility.yul\":10624:10629   */\n      0x00\n        /* \"#utility.yul\":10655:10661   */\n      dup2\n        /* \"#utility.yul\":10649:10662   */\n      mload\n        /* \"#utility.yul\":10640:10662   */\n      swap1\n      pop\n        /* \"#utility.yul\":10671:10703   */\n      tag_272\n        /* \"#utility.yul\":10697:10702   */\n      dup2\n        /* \"#utility.yul\":10671:10703   */\n      tag_142\n      jump\t// in\n    tag_272:\n        /* \"#utility.yul\":10568:10709   */\n      swap3\n      swap2\n      pop\n      pop\n      jump\t// out\n        /* \"#utility.yul\":10715:11376   */\n    tag_69:\n        /* \"#utility.yul\":10802:10808   */\n      0x00\n        /* \"#utility.yul\":10810:10816   */\n      dup1\n        /* \"#utility.yul\":10818:10824   */\n      0x00\n        /* \"#utility.yul\":10867:10869   */\n      0x60\n        /* \"#utility.yul\":10855:10864   */\n      dup5\n        /* \"#utility.yul\":10846:10853   */\n      dup7\n        /* \"#utility.yul\":10842:10865   */\n      sub\n        /* \"#utility.yul\":10838:10870   */\n      slt\n        /* \"#utility.yul\":10835:10954   */\n      iszero\n      tag_274\n      jumpi\n        /* \"#utility.yul\":10873:10952   */\n      tag_275\n      tag_106\n      jump\t// in\n    tag_275:\n        /* \"#utility.yul\":10835:10954   */\n    tag_274:\n        /* \"#utility.yul\":10993:10994   */\n      0x00\n        /* \"#utility.yul\":11018:11082   */\n      tag_276\n        /* \"#utility.yul\":11074:11081   */\n      dup7\n        /* \"#utility.yul\":11065:11071   */\n      dup3\n        /* \"#utility.yul\":11054:11063   */\n      dup8\n        /* \"#utility.yul\":11050:11072   */\n      add\n        /* \"#utility.yul\":11018:11082   */\n      tag_140\n      jump\t// in\n    tag_276:\n        /* \"#utility.yul\":11008:11082   */\n      swap4\n      pop\n        /* \"#utility.yul\":10964:11092   */\n      pop\n        /* \"#utility.yul\":11131:11133   */\n      0x20\n        /* \"#utility.yul\":11157:11221   */\n      tag_277\n        /* \"#utility.yul\":11213:11220   */\n      dup7\n        /* \"#utility.yul\":11204:11210   */\n      dup3\n        /* \"#utility.yul\":11193:11202   */\n      dup8\n        /* \"#utility.yul\":11189:11211   */\n      add\n        /* \"#utility.yul\":11157:11221   */\n      tag_140\n      jump\t// in\n    tag_277:\n        /* \"#utility.yul\":11147:11221   */\n      swap3\n      pop\n        /* \"#utility.yul\":11102:11231   */\n      pop\n        /* \"#utility.yul\":11270:11272   */\n      0x40\n        /* \"#utility.yul\":11296:11359   */\n      tag_278\n        /* \"#utility.yul\":11351:11358   */\n      dup7\n        /* \"#utility.yul\":11342:11348   */\n      dup3\n        /* \"#utility.yul\":11331:11340   */\n      dup8\n        /* \"#utility.yul\":11327:11349   */\n      add\n        /* \"#utility.yul\":11296:11359   */\n      tag_143\n      jump\t// in\n    tag_278:\n        /* \"#utility.yul\":11286:11359   */\n      swap2\n      pop\n        /* \"#utility.yul\":11241:11369   */\n      pop\n        /* \"#utility.yul\":10715:11376   */\n      swap3\n      pop\n      swap3\n      pop\n      swap3\n      jump\t// out\n        /* \"#utility.yul\":11382:11561   */\n    tag_144:\n        /* \"#utility.yul\":11522:11553   */\n      0x4d697373696e6720696e70757420666f7220746f6b656e206e616d6521000000\n        /* \"#utility.yul\":11518:11519   */\n      0x00\n        /* \"#utility.yul\":11510:11516   */\n      dup3\n        /* \"#utility.yul\":11506:11520   */\n      add\n        /* \"#utility.yul\":11499:11554   */\n      mstore\n        /* \"#utility.yul\":11382:11561   */\n      pop\n      jump\t// out\n        /* \"#utility.yul\":11567:11933   */\n    tag_145:\n        /* \"#utility.yul\":11709:11712   */\n      0x00\n        /* \"#utility.yul\":11730:11797   */\n      tag_281\n        /* \"#utility.yul\":11794:11796   */\n      0x1d\n        /* \"#utility.yul\":11789:11792   */\n      dup4\n        /* \"#utility.yul\":11730:11797   */\n      tag_115\n      jump\t// in\n    tag_281:\n        /* \"#utility.yul\":11723:11797   */\n      swap2\n      pop\n        /* \"#utility.yul\":11806:11899   */\n      tag_282\n        /* \"#utility.yul\":11895:11898   */\n      dup3\n        /* \"#utility.yul\":11806:11899   */\n      tag_144\n      jump\t// in\n    tag_282:\n        /* \"#utility.yul\":11924:11926   */\n      0x20\n        /* \"#utility.yul\":11919:11922   */\n      dup3\n        /* \"#utility.yul\":11915:11927   */\n      add\n        /* \"#utility.yul\":11908:11927   */\n      swap1\n      pop\n        /* \"#utility.yul\":11567:11933   */\n      swap2\n      swap1\n      pop\n      jump\t// out\n        /* \"#utility.yul\":11939:12358   */\n    tag_76:\n        /* \"#utility.yul\":12105:12109   */\n      0x00\n        /* \"#utility.yul\":12143:12145   */\n      0x20\n        /* \"#utility.yul\":12132:12141   */\n      dup3\n        /* \"#utility.yul\":12128:12146   */\n      add\n        /* \"#utility.yul\":12120:12146   */\n      swap1\n      pop\n        /* \"#utility.yul\":12192:12201   */\n      dup2\n        /* \"#utility.yul\":12186:12190   */\n      dup2\n        /* \"#utility.yul\":12182:12202   */\n      sub\n        /* \"#utility.yul\":12178:12179   */\n      0x00\n        /* \"#utility.yul\":12167:12176   */\n      dup4\n        /* \"#utility.yul\":12163:12180   */\n      add\n        /* \"#utility.yul\":12156:12203   */\n      mstore\n        /* \"#utility.yul\":12220:12351   */\n      tag_284\n        /* \"#utility.yul\":12346:12350   */\n      dup2\n        /* \"#utility.yul\":12220:12351   */\n      tag_145\n      jump\t// in\n    tag_284:\n        /* \"#utility.yul\":12212:12351   */\n      swap1\n      pop\n        /* \"#utility.yul\":11939:12358   */\n      swap2\n      swap1\n      pop\n      jump\t// out\n        /* \"#utility.yul\":12364:12594   */\n    tag_146:\n        /* \"#utility.yul\":12504:12538   */\n      0x446563696d616c732073686f756c64206265206c657373207468616e206f7220\n        /* \"#utility.yul\":12500:12501   */\n      0x00\n        /* \"#utility.yul\":12492:12498   */\n      dup3\n        /* \"#utility.yul\":12488:12502   */\n      add\n        /* \"#utility.yul\":12481:12539   */\n      mstore\n        /* \"#utility.yul\":12573:12586   */\n      0x657175616c20746f203138000000000000000000000000000000000000000000\n        /* \"#utility.yul\":12568:12570   */\n      0x20\n        /* \"#utility.yul\":12560:12566   */\n      dup3\n        /* \"#utility.yul\":12556:12571   */\n      add\n        /* \"#utility.yul\":12549:12587   */\n      mstore\n        /* \"#utility.yul\":12364:12594   */\n      pop\n      jump\t// out\n        /* \"#utility.yul\":12600:12966   */\n    tag_147:\n        /* \"#utility.yul\":12742:12745   */\n      0x00\n        /* \"#utility.yul\":12763:12830   */\n      tag_287\n        /* \"#utility.yul\":12827:12829   */\n      0x2b\n        /* \"#utility.yul\":12822:12825   */\n      dup4\n        /* \"#utility.yul\":12763:12830   */\n      tag_115\n      jump\t// in\n    tag_287:\n        /* \"#utility.yul\":12756:12830   */\n      swap2\n      pop\n        /* \"#utility.yul\":12839:12932   */\n      tag_288\n        /* \"#utility.yul\":12928:12931   */\n      dup3\n        /* \"#utility.yul\":12839:12932   */\n      tag_146\n      jump\t// in\n    tag_288:\n        /* \"#utility.yul\":12957:12959   */\n      0x40\n        /* \"#utility.yul\":12952:12955   */\n      dup3\n        /* \"#utility.yul\":12948:12960   */\n      add\n        /* \"#utility.yul\":12941:12960   */\n      swap1\n      pop\n        /* \"#utility.yul\":12600:12966   */\n      swap2\n      swap1\n      pop\n      jump\t// out\n        /* \"#utility.yul\":12972:13391   */\n    tag_80:\n        /* \"#utility.yul\":13138:13142   */\n      0x00\n        /* \"#utility.yul\":13176:13178   */\n      0x20\n        /* \"#utility.yul\":13165:13174   */\n      dup3\n        /* \"#utility.yul\":13161:13179   */\n      add\n        /* \"#utility.yul\":13153:13179   */\n      swap1\n      pop\n        /* \"#utility.yul\":13225:13234   */\n      dup2\n        /* \"#utility.yul\":13219:13223   */\n      dup2\n        /* \"#utility.yul\":13215:13235   */\n      sub\n        /* \"#utility.yul\":13211:13212   */\n      0x00\n        /* \"#utility.yul\":13200:13209   */\n      dup4\n        /* \"#utility.yul\":13196:13213   */\n      add\n        /* \"#utility.yul\":13189:13236   */\n      mstore\n        /* \"#utility.yul\":13253:13384   */\n      tag_290\n        /* \"#utility.yul\":13379:13383   */\n      dup2\n        /* \"#utility.yul\":13253:13384   */\n      tag_147\n      jump\t// in\n    tag_290:\n        /* \"#utility.yul\":13245:13384   */\n      swap1\n      pop\n        /* \"#utility.yul\":12972:13391   */\n      swap2\n      swap1\n      pop\n      jump\t// out\n        /* \"#utility.yul\":13397:13617   */\n    tag_148:\n        /* \"#utility.yul\":13537:13571   */\n      0x446563696d616c732073686f756c642062652067726561746572207468616e20\n        /* \"#utility.yul\":13533:13534   */\n      0x00\n        /* \"#utility.yul\":13525:13531   */\n      dup3\n        /* \"#utility.yul\":13521:13535   */\n      add\n        /* \"#utility.yul\":13514:13572   */\n      mstore\n        /* \"#utility.yul\":13606:13609   */\n      0x3000000000000000000000000000000000000000000000000000000000000000\n        /* \"#utility.yul\":13601:13603   */\n      0x20\n        /* \"#utility.yul\":13593:13599   */\n      dup3\n        /* \"#utility.yul\":13589:13604   */\n      add\n        /* \"#utility.yul\":13582:13610   */\n      mstore\n        /* \"#utility.yul\":13397:13617   */\n      pop\n      jump\t// out\n        /* \"#utility.yul\":13623:13989   */\n    tag_149:\n        /* \"#utility.yul\":13765:13768   */\n      0x00\n        /* \"#utility.yul\":13786:13853   */\n      tag_293\n        /* \"#utility.yul\":13850:13852   */\n      0x21\n        /* \"#utility.yul\":13845:13848   */\n      dup4\n        /* \"#utility.yul\":13786:13853   */\n      tag_115\n      jump\t// in\n    tag_293:\n        /* \"#utility.yul\":13779:13853   */\n      swap2\n      pop\n        /* \"#utility.yul\":13862:13955   */\n      tag_294\n        /* \"#utility.yul\":13951:13954   */\n      dup3\n        /* \"#utility.yul\":13862:13955   */\n      tag_148\n      jump\t// in\n    tag_294:\n        /* \"#utility.yul\":13980:13982   */\n      0x40\n        /* \"#utility.yul\":13975:13978   */\n      dup3\n        /* \"#utility.yul\":13971:13983   */\n      add\n        /* \"#utility.yul\":13964:13983   */\n      swap1\n      pop\n        /* \"#utility.yul\":13623:13989   */\n      swap2\n      swap1\n      pop\n      jump\t// out\n        /* \"#utility.yul\":13995:14414   */\n    tag_84:\n        /* \"#utility.yul\":14161:14165   */\n      0x00\n        /* \"#utility.yul\":14199:14201   */\n      0x20\n        /* \"#utility.yul\":14188:14197   */\n      dup3\n        /* \"#utility.yul\":14184:14202   */\n      add\n        /* \"#utility.yul\":14176:14202   */\n      swap1\n      pop\n        /* \"#utility.yul\":14248:14257   */\n      dup2\n        /* \"#utility.yul\":14242:14246   */\n      dup2\n        /* \"#utility.yul\":14238:14258   */\n      sub\n        /* \"#utility.yul\":14234:14235   */\n      0x00\n        /* \"#utility.yul\":14223:14232   */\n      dup4\n        /* \"#utility.yul\":14219:14236   */\n      add\n        /* \"#utility.yul\":14212:14259   */\n      mstore\n        /* \"#utility.yul\":14276:14407   */\n      tag_296\n        /* \"#utility.yul\":14402:14406   */\n      dup2\n        /* \"#utility.yul\":14276:14407   */\n      tag_149\n      jump\t// in\n    tag_296:\n        /* \"#utility.yul\":14268:14407   */\n      swap1\n      pop\n        /* \"#utility.yul\":13995:14414   */\n      swap2\n      swap1\n      pop\n      jump\t// out\n        /* \"#utility.yul\":14420:14644   */\n    tag_150:\n        /* \"#utility.yul\":14560:14594   */\n      0x546f6b656e2076616c7565732073686f756c6420626520677265617465722074\n        /* \"#utility.yul\":14556:14557   */\n      0x00\n        /* \"#utility.yul\":14548:14554   */\n      dup3\n        /* \"#utility.yul\":14544:14558   */\n      add\n        /* \"#utility.yul\":14537:14595   */\n      mstore\n        /* \"#utility.yul\":14629:14636   */\n      0x68616e2030000000000000000000000000000000000000000000000000000000\n        /* \"#utility.yul\":14624:14626   */\n      0x20\n        /* \"#utility.yul\":14616:14622   */\n      dup3\n        /* \"#utility.yul\":14612:14627   */\n      add\n        /* \"#utility.yul\":14605:14637   */\n      mstore\n        /* \"#utility.yul\":14420:14644   */\n      pop\n      jump\t// out\n        /* \"#utility.yul\":14650:15016   */\n    tag_151:\n        /* \"#utility.yul\":14792:14795   */\n      0x00\n        /* \"#utility.yul\":14813:14880   */\n      tag_299\n        /* \"#utility.yul\":14877:14879   */\n      0x25\n        /* \"#utility.yul\":14872:14875   */\n      dup4\n        /* \"#utility.yul\":14813:14880   */\n      tag_115\n      jump\t// in\n    tag_299:\n        /* \"#utility.yul\":14806:14880   */\n      swap2\n      pop\n        /* \"#utility.yul\":14889:14982   */\n      tag_300\n        /* \"#utility.yul\":14978:14981   */\n      dup3\n        /* \"#utility.yul\":14889:14982   */\n      tag_150\n      jump\t// in\n    tag_300:\n        /* \"#utility.yul\":15007:15009   */\n      0x40\n        /* \"#utility.yul\":15002:15005   */\n      dup3\n        /* \"#utility.yul\":14998:15010   */\n      add\n        /* \"#utility.yul\":14991:15010   */\n      swap1\n      pop\n        /* \"#utility.yul\":14650:15016   */\n      swap2\n      swap1\n      pop\n      jump\t// out\n        /* \"#utility.yul\":15022:15441   */\n    tag_88:\n        /* \"#utility.yul\":15188:15192   */\n      0x00\n        /* \"#utility.yul\":15226:15228   */\n      0x20\n        /* \"#utility.yul\":15215:15224   */\n      dup3\n        /* \"#utility.yul\":15211:15229   */\n      add\n        /* \"#utility.yul\":15203:15229   */\n      swap1\n      pop\n        /* \"#utility.yul\":15275:15284   */\n      dup2\n        /* \"#utility.yul\":15269:15273   */\n      dup2\n        /* \"#utility.yul\":15265:15285   */\n      sub\n        /* \"#utility.yul\":15261:15262   */\n      0x00\n        /* \"#utility.yul\":15250:15259   */\n      dup4\n        /* \"#utility.yul\":15246:15263   */\n      add\n        /* \"#utility.yul\":15239:15286   */\n      mstore\n        /* \"#utility.yul\":15303:15434   */\n      tag_302\n        /* \"#utility.yul\":15429:15433   */\n      dup2\n        /* \"#utility.yul\":15303:15434   */\n      tag_151\n      jump\t// in\n    tag_302:\n        /* \"#utility.yul\":15295:15434   */\n      swap1\n      pop\n        /* \"#utility.yul\":15022:15441   */\n      swap2\n      swap1\n      pop\n      jump\t// out\n        /* \"#utility.yul\":15447:15627   */\n    tag_152:\n        /* \"#utility.yul\":15495:15572   */\n      0x4e487b7100000000000000000000000000000000000000000000000000000000\n        /* \"#utility.yul\":15492:15493   */\n      0x00\n        /* \"#utility.yul\":15485:15573   */\n      mstore\n        /* \"#utility.yul\":15592:15596   */\n      0x11\n        /* \"#utility.yul\":15589:15590   */\n      0x04\n        /* \"#utility.yul\":15582:15597   */\n      mstore\n        /* \"#utility.yul\":15616:15620   */\n      0x24\n        /* \"#utility.yul\":15613:15614   */\n      0x00\n        /* \"#utility.yul\":15606:15621   */\n      revert\n        /* \"#utility.yul\":15633:15827   */\n    tag_91:\n        /* \"#utility.yul\":15673:15677   */\n      0x00\n        /* \"#utility.yul\":15693:15713   */\n      tag_305\n        /* \"#utility.yul\":15711:15712   */\n      dup3\n        /* \"#utility.yul\":15693:15713   */\n      tag_112\n      jump\t// in\n    tag_305:\n        /* \"#utility.yul\":15688:15713   */\n      swap2\n      pop\n        /* \"#utility.yul\":15727:15747   */\n      tag_306\n        /* \"#utility.yul\":15745:15746   */\n      dup4\n        /* \"#utility.yul\":15727:15747   */\n      tag_112\n      jump\t// in\n    tag_306:\n        /* \"#utility.yul\":15722:15747   */\n      swap3\n      pop\n        /* \"#utility.yul\":15771:15772   */\n      dup3\n        /* \"#utility.yul\":15768:15769   */\n      dup3\n        /* \"#utility.yul\":15764:15773   */\n      sub\n        /* \"#utility.yul\":15756:15773   */\n      swap1\n      pop\n        /* \"#utility.yul\":15795:15796   */\n      dup2\n        /* \"#utility.yul\":15789:15793   */\n      dup2\n        /* \"#utility.yul\":15786:15797   */\n      gt\n        /* \"#utility.yul\":15783:15820   */\n      iszero\n      tag_307\n      jumpi\n        /* \"#utility.yul\":15800:15818   */\n      tag_308\n      tag_152\n      jump\t// in\n    tag_308:\n        /* \"#utility.yul\":15783:15820   */\n    tag_307:\n        /* \"#utility.yul\":15633:15827   */\n      swap3\n      swap2\n      pop\n      pop\n      jump\t// out\n        /* \"#utility.yul\":15833:15935   */\n    tag_153:\n        /* \"#utility.yul\":15875:15883   */\n      0x00\n        /* \"#utility.yul\":15922:15927   */\n      dup2\n        /* \"#utility.yul\":15919:15920   */\n      0x01\n        /* \"#utility.yul\":15915:15928   */\n      shr\n        /* \"#utility.yul\":15894:15928   */\n      swap1\n      pop\n        /* \"#utility.yul\":15833:15935   */\n      swap2\n      swap1\n      pop\n      jump\t// out\n        /* \"#utility.yul\":15941:16789   */\n    tag_154:\n        /* \"#utility.yul\":16002:16007   */\n      0x00\n        /* \"#utility.yul\":16009:16013   */\n      dup1\n        /* \"#utility.yul\":16033:16039   */\n      dup3\n        /* \"#utility.yul\":16024:16039   */\n      swap2\n      pop\n        /* \"#utility.yul\":16057:16062   */\n      dup4\n        /* \"#utility.yul\":16048:16062   */\n      swap1\n      pop\n        /* \"#utility.yul\":16071:16783   */\n    tag_311:\n        /* \"#utility.yul\":16092:16093   */\n      0x01\n        /* \"#utility.yul\":16082:16090   */\n      dup6\n        /* \"#utility.yul\":16079:16094   */\n      gt\n        /* \"#utility.yul\":16071:16783   */\n      iszero\n      tag_313\n      jumpi\n        /* \"#utility.yul\":16187:16191   */\n      dup1\n        /* \"#utility.yul\":16182:16185   */\n      dup7\n        /* \"#utility.yul\":16178:16192   */\n      div\n        /* \"#utility.yul\":16172:16176   */\n      dup2\n        /* \"#utility.yul\":16169:16193   */\n      gt\n        /* \"#utility.yul\":16166:16216   */\n      iszero\n      tag_314\n      jumpi\n        /* \"#utility.yul\":16196:16214   */\n      tag_315\n      tag_152\n      jump\t// in\n    tag_315:\n        /* \"#utility.yul\":16166:16216   */\n    tag_314:\n        /* \"#utility.yul\":16246:16247   */\n      0x01\n        /* \"#utility.yul\":16236:16244   */\n      dup6\n        /* \"#utility.yul\":16232:16248   */\n      and\n        /* \"#utility.yul\":16229:16680   */\n      iszero\n      tag_316\n      jumpi\n        /* \"#utility.yul\":16661:16665   */\n      dup1\n        /* \"#utility.yul\":16654:16659   */\n      dup3\n        /* \"#utility.yul\":16650:16666   */\n      mul\n        /* \"#utility.yul\":16641:16666   */\n      swap2\n      pop\n        /* \"#utility.yul\":16229:16680   */\n    tag_316:\n        /* \"#utility.yul\":16711:16715   */\n      dup1\n        /* \"#utility.yul\":16705:16709   */\n      dup2\n        /* \"#utility.yul\":16701:16716   */\n      mul\n        /* \"#utility.yul\":16693:16716   */\n      swap1\n      pop\n        /* \"#utility.yul\":16741:16773   */\n      tag_317\n        /* \"#utility.yul\":16764:16772   */\n      dup6\n        /* \"#utility.yul\":16741:16773   */\n      tag_153\n      jump\t// in\n    tag_317:\n        /* \"#utility.yul\":16729:16773   */\n      swap5\n      pop\n        /* \"#utility.yul\":16071:16783   */\n      jump(tag_311)\n    tag_313:\n        /* \"#utility.yul\":15941:16789   */\n      swap5\n      pop\n      swap5\n      swap3\n      pop\n      pop\n      pop\n      jump\t// out\n        /* \"#utility.yul\":16795:17868   */\n    tag_155:\n        /* \"#utility.yul\":16849:16854   */\n      0x00\n        /* \"#utility.yul\":17040:17048   */\n      dup3\n        /* \"#utility.yul\":17030:17070   */\n      tag_319\n      jumpi\n        /* \"#utility.yul\":17061:17062   */\n      0x01\n        /* \"#utility.yul\":17052:17062   */\n      swap1\n      pop\n        /* \"#utility.yul\":17063:17068   */\n      jump(tag_318)\n        /* \"#utility.yul\":17030:17070   */\n    tag_319:\n        /* \"#utility.yul\":17089:17093   */\n      dup2\n        /* \"#utility.yul\":17079:17115   */\n      tag_320\n      jumpi\n        /* \"#utility.yul\":17106:17107   */\n      0x00\n        /* \"#utility.yul\":17097:17107   */\n      swap1\n      pop\n        /* \"#utility.yul\":17108:17113   */\n      jump(tag_318)\n        /* \"#utility.yul\":17079:17115   */\n    tag_320:\n        /* \"#utility.yul\":17175:17179   */\n      dup2\n        /* \"#utility.yul\":17223:17224   */\n      0x01\n        /* \"#utility.yul\":17218:17245   */\n      dup2\n      eq\n      tag_322\n      jumpi\n        /* \"#utility.yul\":17259:17260   */\n      0x02\n        /* \"#utility.yul\":17254:17445   */\n      dup2\n      eq\n      tag_323\n      jumpi\n        /* \"#utility.yul\":17168:17445   */\n      jump(tag_321)\n        /* \"#utility.yul\":17218:17245   */\n    tag_322:\n        /* \"#utility.yul\":17236:17237   */\n      0x01\n        /* \"#utility.yul\":17227:17237   */\n      swap2\n      pop\n        /* \"#utility.yul\":17238:17243   */\n      pop\n      jump(tag_318)\n        /* \"#utility.yul\":17254:17445   */\n    tag_323:\n        /* \"#utility.yul\":17299:17302   */\n      0xff\n        /* \"#utility.yul\":17289:17297   */\n      dup5\n        /* \"#utility.yul\":17286:17303   */\n      gt\n        /* \"#utility.yul\":17283:17326   */\n      iszero\n      tag_324\n      jumpi\n        /* \"#utility.yul\":17306:17324   */\n      tag_325\n      tag_152\n      jump\t// in\n    tag_325:\n        /* \"#utility.yul\":17283:17326   */\n    tag_324:\n        /* \"#utility.yul\":17355:17363   */\n      dup4\n        /* \"#utility.yul\":17352:17353   */\n      0x02\n        /* \"#utility.yul\":17348:17364   */\n      exp\n        /* \"#utility.yul\":17339:17364   */\n      swap2\n      pop\n        /* \"#utility.yul\":17390:17393   */\n      dup5\n        /* \"#utility.yul\":17383:17388   */\n      dup3\n        /* \"#utility.yul\":17380:17394   */\n      gt\n        /* \"#utility.yul\":17377:17417   */\n      iszero\n      tag_326\n      jumpi\n        /* \"#utility.yul\":17397:17415   */\n      tag_327\n      tag_152\n      jump\t// in\n    tag_327:\n        /* \"#utility.yul\":17377:17417   */\n    tag_326:\n        /* \"#utility.yul\":17430:17435   */\n      pop\n      jump(tag_318)\n        /* \"#utility.yul\":17168:17445   */\n    tag_321:\n      pop\n        /* \"#utility.yul\":17554:17556   */\n      0x20\n        /* \"#utility.yul\":17544:17552   */\n      dup4\n        /* \"#utility.yul\":17541:17557   */\n      lt\n        /* \"#utility.yul\":17535:17538   */\n      0x0133\n        /* \"#utility.yul\":17529:17533   */\n      dup4\n        /* \"#utility.yul\":17526:17539   */\n      lt\n        /* \"#utility.yul\":17522:17558   */\n      and\n        /* \"#utility.yul\":17504:17506   */\n      0x4e\n        /* \"#utility.yul\":17494:17502   */\n      dup5\n        /* \"#utility.yul\":17491:17507   */\n      lt\n        /* \"#utility.yul\":17486:17488   */\n      0x0b\n        /* \"#utility.yul\":17480:17484   */\n      dup5\n        /* \"#utility.yul\":17477:17489   */\n      lt\n        /* \"#utility.yul\":17473:17508   */\n      and\n        /* \"#utility.yul\":17457:17568   */\n      or\n        /* \"#utility.yul\":17454:17700   */\n      iszero\n      tag_328\n      jumpi\n        /* \"#utility.yul\":17610:17618   */\n      dup3\n        /* \"#utility.yul\":17604:17608   */\n      dup3\n        /* \"#utility.yul\":17600:17619   */\n      exp\n        /* \"#utility.yul\":17591:17619   */\n      swap1\n      pop\n        /* \"#utility.yul\":17645:17648   */\n      dup4\n        /* \"#utility.yul\":17638:17643   */\n      dup2\n        /* \"#utility.yul\":17635:17649   */\n      gt\n        /* \"#utility.yul\":17632:17672   */\n      iszero\n      tag_329\n      jumpi\n        /* \"#utility.yul\":17652:17670   */\n      tag_330\n      tag_152\n      jump\t// in\n    tag_330:\n        /* \"#utility.yul\":17632:17672   */\n    tag_329:\n        /* \"#utility.yul\":17685:17690   */\n      jump(tag_318)\n        /* \"#utility.yul\":17454:17700   */\n    tag_328:\n        /* \"#utility.yul\":17725:17767   */\n      tag_331\n        /* \"#utility.yul\":17763:17766   */\n      dup5\n        /* \"#utility.yul\":17753:17761   */\n      dup5\n        /* \"#utility.yul\":17747:17751   */\n      dup5\n        /* \"#utility.yul\":17744:17745   */\n      0x01\n        /* \"#utility.yul\":17725:17767   */\n      tag_154\n      jump\t// in\n    tag_331:\n        /* \"#utility.yul\":17710:17767   */\n      swap3\n      pop\n      swap1\n      pop\n        /* \"#utility.yul\":17799:17803   */\n      dup2\n        /* \"#utility.yul\":17794:17797   */\n      dup5\n        /* \"#utility.yul\":17790:17804   */\n      div\n        /* \"#utility.yul\":17783:17788   */\n      dup2\n        /* \"#utility.yul\":17780:17805   */\n      gt\n        /* \"#utility.yul\":17777:17828   */\n      iszero\n      tag_332\n      jumpi\n        /* \"#utility.yul\":17808:17826   */\n      tag_333\n      tag_152\n      jump\t// in\n    tag_333:\n        /* \"#utility.yul\":17777:17828   */\n    tag_332:\n        /* \"#utility.yul\":17857:17861   */\n      dup2\n        /* \"#utility.yul\":17850:17855   */\n      dup2\n        /* \"#utility.yul\":17846:17862   */\n      mul\n        /* \"#utility.yul\":17837:17862   */\n      swap1\n      pop\n        /* \"#utility.yul\":16795:17868   */\n    tag_318:\n      swap4\n      swap3\n      pop\n      pop\n      pop\n      jump\t// out\n        /* \"#utility.yul\":17874:18159   */\n    tag_93:\n        /* \"#utility.yul\":17934:17939   */\n      0x00\n        /* \"#utility.yul\":17958:17981   */\n      tag_335\n        /* \"#utility.yul\":17976:17980   */\n      dup3\n        /* \"#utility.yul\":17958:17981   */\n      tag_112\n      jump\t// in\n    tag_335:\n        /* \"#utility.yul\":17950:17981   */\n      swap2\n      pop\n        /* \"#utility.yul\":18002:18029   */\n      tag_336\n        /* \"#utility.yul\":18020:18028   */\n      dup4\n        /* \"#utility.yul\":18002:18029   */\n      tag_112\n      jump\t// in\n    tag_336:\n        /* \"#utility.yul\":17990:18029   */\n      swap3\n      pop\n        /* \"#utility.yul\":18048:18152   */\n      tag_337\n        /* \"#utility.yul\":18085:18151   */\n      0xffffffffffffffffffffffffffffffffffffffffffffffffffffffffffffffff\n        /* \"#utility.yul\":18075:18083   */\n      dup5\n        /* \"#utility.yul\":18069:18073   */\n      dup5\n        /* \"#utility.yul\":18048:18152   */\n      tag_155\n      jump\t// in\n    tag_337:\n        /* \"#utility.yul\":18039:18152   */\n      swap1\n      pop\n        /* \"#utility.yul\":17874:18159   */\n      swap3\n      swap2\n      pop\n      pop\n      jump\t// out\n        /* \"#utility.yul\":18165:18575   */\n    tag_95:\n        /* \"#utility.yul\":18205:18212   */\n      0x00\n        /* \"#utility.yul\":18228:18248   */\n      tag_339\n        /* \"#utility.yul\":18246:18247   */\n      dup3\n        /* \"#utility.yul\":18228:18248   */\n      tag_112\n      jump\t// in\n    tag_339:\n        /* \"#utility.yul\":18223:18248   */\n      swap2\n      pop\n        /* \"#utility.yul\":18262:18282   */\n      tag_340\n        /* \"#utility.yul\":18280:18281   */\n      dup4\n        /* \"#utility.yul\":18262:18282   */\n      tag_112\n      jump\t// in\n    tag_340:\n        /* \"#utility.yul\":18257:18282   */\n      swap3\n      pop\n        /* \"#utility.yul\":18317:18318   */\n      dup3\n        /* \"#utility.yul\":18314:18315   */\n      dup3\n        /* \"#utility.yul\":18310:18319   */\n      mul\n        /* \"#utility.yul\":18339:18369   */\n      tag_341\n        /* \"#utility.yul\":18357:18368   */\n      dup2\n        /* \"#utility.yul\":18339:18369   */\n      tag_112\n      jump\t// in\n    tag_341:\n        /* \"#utility.yul\":18328:18369   */\n      swap2\n      pop\n        /* \"#utility.yul\":18518:18519   */\n      dup3\n        /* \"#utility.yul\":18509:18516   */\n      dup3\n        /* \"#utility.yul\":18505:18520   */\n      div\n        /* \"#utility.yul\":18502:18503   */\n      dup5\n        /* \"#utility.yul\":18499:18521   */\n      eq\n        /* \"#utility.yul\":18479:18480   */\n      dup4\n        /* \"#utility.yul\":18472:18481   */\n      iszero\n        /* \"#utility.yul\":18452:18535   */\n      or\n        /* \"#utility.yul\":18429:18568   */\n      tag_342\n      jumpi\n        /* \"#utility.yul\":18548:18566   */\n      tag_343\n      tag_152\n      jump\t// in\n    tag_343:\n        /* \"#utility.yul\":18429:18568   */\n    tag_342:\n        /* \"#utility.yul\":18213:18575   */\n      pop\n        /* \"#utility.yul\":18165:18575   */\n      swap3\n      swap2\n      pop\n      pop\n      jump\t// out\n        /* \"#utility.yul\":18581:18761   */\n    tag_156:\n        /* \"#utility.yul\":18629:18706   */\n      0x4e487b7100000000000000000000000000000000000000000000000000000000\n        /* \"#utility.yul\":18626:18627   */\n      0x00\n        /* \"#utility.yul\":18619:18707   */\n      mstore\n        /* \"#utility.yul\":18726:18730   */\n      0x12\n        /* \"#utility.yul\":18723:18724   */\n      0x04\n        /* \"#utility.yul\":18716:18731   */\n      mstore\n        /* \"#utility.yul\":18750:18754   */\n      0x24\n        /* \"#utility.yul\":18747:18748   */\n      0x00\n        /* \"#utility.yul\":18740:18755   */\n      revert\n        /* \"#utility.yul\":18767:18952   */\n    tag_102:\n        /* \"#utility.yul\":18807:18808   */\n      0x00\n        /* \"#utility.yul\":18824:18844   */\n      tag_346\n        /* \"#utility.yul\":18842:18843   */\n      dup3\n        /* \"#utility.yul\":18824:18844   */\n      tag_112\n      jump\t// in\n    tag_346:\n        /* \"#utility.yul\":18819:18844   */\n      swap2\n      pop\n        /* \"#utility.yul\":18858:18878   */\n      tag_347\n        /* \"#utility.yul\":18876:18877   */\n      dup4\n        /* \"#utility.yul\":18858:18878   */\n      tag_112\n      jump\t// in\n    tag_347:\n        /* \"#utility.yul\":18853:18878   */\n      swap3\n      pop\n        /* \"#utility.yul\":18897:18898   */\n      dup3\n        /* \"#utility.yul\":18887:18922   */\n      tag_348\n      jumpi\n        /* \"#utility.yul\":18902:18920   */\n      tag_349\n      tag_156\n      jump\t// in\n    tag_349:\n        /* \"#utility.yul\":18887:18922   */\n    tag_348:\n        /* \"#utility.yul\":18944:18945   */\n      dup3\n        /* \"#utility.yul\":18941:18942   */\n      dup3\n        /* \"#utility.yul\":18937:18946   */\n      div\n        /* \"#utility.yul\":18932:18946   */\n      swap1\n      pop\n        /* \"#utility.yul\":18767:18952   */\n      swap3\n      swap2\n      pop\n      pop\n      jump\t// out\n        /* \"#utility.yul\":18958:19106   */\n    tag_157:\n        /* \"#utility.yul\":19060:19071   */\n      0x00\n        /* \"#utility.yul\":19097:19100   */\n      dup2\n        /* \"#utility.yul\":19082:19100   */\n      swap1\n      pop\n        /* \"#utility.yul\":18958:19106   */\n      swap3\n      swap2\n      pop\n      pop\n      jump\t// out\n        /* \"#utility.yul\":19112:19502   */\n    tag_158:\n        /* \"#utility.yul\":19218:19221   */\n      0x00\n        /* \"#utility.yul\":19246:19285   */\n      tag_352\n        /* \"#utility.yul\":19279:19284   */\n      dup3\n        /* \"#utility.yul\":19246:19285   */\n      tag_114\n      jump\t// in\n    tag_352:\n        /* \"#utility.yul\":19301:19390   */\n      tag_353\n        /* \"#utility.yul\":19383:19389   */\n      dup2\n        /* \"#utility.yul\":19378:19381   */\n      dup6\n        /* \"#utility.yul\":19301:19390   */\n      tag_157\n      jump\t// in\n    tag_353:\n        /* \"#utility.yul\":19294:19390   */\n      swap4\n      pop\n        /* \"#utility.yul\":19399:19464   */\n      tag_354\n        /* \"#utility.yul\":19457:19463   */\n      dup2\n        /* \"#utility.yul\":19452:19455   */\n      dup6\n        /* \"#utility.yul\":19445:19449   */\n      0x20\n        /* \"#utility.yul\":19438:19443   */\n      dup7\n        /* \"#utility.yul\":19434:19450   */\n      add\n        /* \"#utility.yul\":19399:19464   */\n      tag_116\n      jump\t// in\n    tag_354:\n        /* \"#utility.yul\":19489:19495   */\n      dup1\n        /* \"#utility.yul\":19484:19487   */\n      dup5\n        /* \"#utility.yul\":19480:19496   */\n      add\n        /* \"#utility.yul\":19473:19496   */\n      swap2\n      pop\n        /* \"#utility.yul\":19222:19502   */\n      pop\n        /* \"#utility.yul\":19112:19502   */\n      swap3\n      swap2\n      pop\n      pop\n      jump\t// out\n        /* \"#utility.yul\":19508:19686   */\n    tag_159:\n        /* \"#utility.yul\":19676:19679   */\n      0x2f00000000000000000000000000000000000000000000000000000000000000\n        /* \"#utility.yul\":19671:19674   */\n      dup2\n        /* \"#utility.yul\":19664:19680   */\n      mstore\n        /* \"#utility.yul\":19508:19686   */\n      pop\n      jump\t// out\n        /* \"#utility.yul\":19692:20391   */\n    tag_104:\n        /* \"#utility.yul\":19962:19965   */\n      0x00\n        /* \"#utility.yul\":19984:20079   */\n      tag_357\n        /* \"#utility.yul\":20075:20078   */\n      dup3\n        /* \"#utility.yul\":20066:20072   */\n      dup6\n        /* \"#utility.yul\":19984:20079   */\n      tag_158\n      jump\t// in\n    tag_357:\n        /* \"#utility.yul\":19977:20079   */\n      swap2\n      pop\n        /* \"#utility.yul\":20089:20226   */\n      tag_358\n        /* \"#utility.yul\":20222:20225   */\n      dup3\n        /* \"#utility.yul\":20089:20226   */\n      tag_159\n      jump\t// in\n    tag_358:\n        /* \"#utility.yul\":20251:20252   */\n      0x01\n        /* \"#utility.yul\":20246:20249   */\n      dup3\n        /* \"#utility.yul\":20242:20253   */\n      add\n        /* \"#utility.yul\":20235:20253   */\n      swap2\n      pop\n        /* \"#utility.yul\":20270:20365   */\n      tag_359\n        /* \"#utility.yul\":20361:20364   */\n      dup3\n        /* \"#utility.yul\":20352:20358   */\n      dup5\n        /* \"#utility.yul\":20270:20365   */\n      tag_158\n      jump\t// in\n    tag_359:\n        /* \"#utility.yul\":20263:20365   */\n      swap2\n      pop\n        /* \"#utility.yul\":20382:20385   */\n      dup2\n        /* \"#utility.yul\":20375:20385   */\n      swap1\n      pop\n        /* \"#utility.yul\":19692:20391   */\n      swap4\n      swap3\n      pop\n      pop\n      pop\n      jump\t// out\n\n    auxdata: 0xa2646970667358221220a51560b9b3a507acf5a6e23f283f487e406361f00cca0b304213943d7914151e64736f6c634300081a0033\n}\n",
				"bytecode": {
					"linkReferences": {},
					"object": "60a06040526001600260146101000a81548160ff02191690831515021790555034801561002a575f80fd5b50604051611775380380611775833981810160405281019061004c919061015a565b5f73ffffffffffffffffffffffffffffffffffffffff168173ffffffffffffffffffffffffffffffffffffffff1603610083575f80fd5b3373ffffffffffffffffffffffffffffffffffffffff1660808173ffffffffffffffffffffffffffffffffffffffff1681525050805f806101000a81548173ffffffffffffffffffffffffffffffffffffffff021916908373ffffffffffffffffffffffffffffffffffffffff16021790555050610185565b5f80fd5b5f73ffffffffffffffffffffffffffffffffffffffff82169050919050565b5f61012982610100565b9050919050565b6101398161011f565b8114610143575f80fd5b50565b5f8151905061015481610130565b92915050565b5f6020828403121561016f5761016e6100fc565b5b5f61017c84828501610146565b91505092915050565b6080516115c46101b15f395f818160ca015281816101c40152818161029401526108c201526115c45ff3fe608060405234801561000f575f80fd5b5060043610610055575f3560e01c80630f15f4c01461005957806324f16f201461006357806351b42b001461007f57806385096edc14610089578063f851a440146100aa575b5f80fd5b6100616100c8565b005b61007d60048036038101906100789190610b45565b6101c2565b005b610087610292565b005b61009161038c565b6040516100a19493929190610bf8565b60405180910390f35b6100b26108c0565b6040516100bf9190610c51565b60405180910390f35b7f000000000000000000000000000000000000000000000000000000000000000073ffffffffffffffffffffffffffffffffffffffff163373ffffffffffffffffffffffffffffffffffffffff1614610156576040517f08c379a000000000000000000000000000000000000000000000000000000000815260040161014d90610cb4565b60405180910390fd5b600260149054906101000a900460ff16156101a6576040517f08c379a000000000000000000000000000000000000000000000000000000000815260040161019d90610d1c565b60405180910390fd5b5f600260146101000a81548160ff021916908315150217905550565b7f000000000000000000000000000000000000000000000000000000000000000073ffffffffffffffffffffffffffffffffffffffff163373ffffffffffffffffffffffffffffffffffffffff1614610250576040517f08c379a000000000000000000000000000000000000000000000000000000000815260040161024790610cb4565b60405180910390fd5b805f806101000a81548173ffffffffffffffffffffffffffffffffffffffff021916908373ffffffffffffffffffffffffffffffffffffffff16021790555050565b7f000000000000000000000000000000000000000000000000000000000000000073ffffffffffffffffffffffffffffffffffffffff163373ffffffffffffffffffffffffffffffffffffffff1614610320576040517f08c379a000000000000000000000000000000000000000000000000000000000815260040161031790610cb4565b60405180910390fd5b600260149054906101000a900460ff1661036f576040517f08c379a000000000000000000000000000000000000000000000000000000000815260040161036690610d84565b60405180910390fd5b6001600260146101000a81548160ff021916908315150217905550565b5f8060605f600260149054906101000a900460ff166103ec575f805f6040518060400160405280600b81526020017f4e6f7420616374697665210000000000000000000000000000000000000000008152509093509350935093506108ba565b5f805f9054906101000a900473ffffffffffffffffffffffffffffffffffffffff1673ffffffffffffffffffffffffffffffffffffffff16630dfe16816040518163ffffffff1660e01b81526004016020604051808303815f875af1158015610457573d5f803e3d5ffd5b505050506040513d601f19601f8201168201806040525081019061047b9190610db6565b90505f805f9054906101000a900473ffffffffffffffffffffffffffffffffffffffff1673ffffffffffffffffffffffffffffffffffffffff1663d21220a76040518163ffffffff1660e01b81526004016020604051808303815f875af11580156104e8573d5f803e3d5ffd5b505050506040513d601f19601f8201168201806040525081019061050c9190610db6565b90508160015f6101000a81548173ffffffffffffffffffffffffffffffffffffffff021916908373ffffffffffffffffffffffffffffffffffffffff1602179055508060025f6101000a81548173ffffffffffffffffffffffffffffffffffffffff021916908373ffffffffffffffffffffffffffffffffffffffff1602179055505f60015f9054906101000a900473ffffffffffffffffffffffffffffffffffffffff1673ffffffffffffffffffffffffffffffffffffffff1663313ce5676040518163ffffffff1660e01b81526004016020604051808303815f875af11580156105fa573d5f803e3d5ffd5b505050506040513d601f19601f8201168201806040525081019061061e9190610e17565b60ff1690505f60025f9054906101000a900473ffffffffffffffffffffffffffffffffffffffff1673ffffffffffffffffffffffffffffffffffffffff1663313ce5676040518163ffffffff1660e01b81526004016020604051808303815f875af115801561068f573d5f803e3d5ffd5b505050506040513d601f19601f820116820180604052508101906106b39190610e17565b60ff1690505f60015f9054906101000a900473ffffffffffffffffffffffffffffffffffffffff1673ffffffffffffffffffffffffffffffffffffffff166306fdde036040518163ffffffff1660e01b81526004015f604051808303815f875af1158015610723573d5f803e3d5ffd5b505050506040513d5f823e3d601f19601f8201168201806040525081019061074b9190610f60565b90505f60025f9054906101000a900473ffffffffffffffffffffffffffffffffffffffff1673ffffffffffffffffffffffffffffffffffffffff166306fdde036040518163ffffffff1660e01b81526004015f604051808303815f875af11580156107b8573d5f803e3d5ffd5b505050506040513d5f823e3d601f19601f820116820180604052508101906107e09190610f60565b90505f805f805f9054906101000a900473ffffffffffffffffffffffffffffffffffffffff1673ffffffffffffffffffffffffffffffffffffffff16630902f1ac6040518163ffffffff1660e01b81526004016060604051808303815f875af115801561084f573d5f803e3d5ffd5b505050506040513d601f19601f820116820180604052508101906108739190611023565b92506dffffffffffffffffffffffffffff1692506dffffffffffffffffffffffffffff1692506108a8838887858a89876108e4565b9c509c509c509c505050505050505050505b90919293565b7f000000000000000000000000000000000000000000000000000000000000000081565b5f8060605f8089511180156108f957505f8651115b610938576040517f08c379a000000000000000000000000000000000000000000000000000000000815260040161092f906110bd565b60405180910390fd5b60128a1115801561094a575060128711155b610989576040517f08c379a00000000000000000000000000000000000000000000000000000000081526004016109809061114b565b60405180910390fd5b5f8a11801561099757505f87115b6109d6576040517f08c379a00000000000000000000000000000000000000000000000000000000081526004016109cd906111d9565b60405180910390fd5b5f8b1180156109e457505f88115b610a23576040517f08c379a0000000000000000000000000000000000000000000000000000000008152600401610a1a90611267565b60405180910390fd5b868a1115610a5557868a610a3791906112b2565b600a610a439190611414565b88610a4e919061145e565b9750610a7b565b8987610a6191906112b2565b600a610a6d9190611414565b8b610a78919061145e565b9a505b8a6305f5e10089610a8c919061145e565b610a9691906114cc565b6008878b604051602001610aab92919061155c565b604051602081830303815290604052878063ffffffff1690509350935093509350975097509750979350505050565b5f604051905090565b5f80fd5b5f80fd5b5f73ffffffffffffffffffffffffffffffffffffffff82169050919050565b5f610b1482610aeb565b9050919050565b610b2481610b0a565b8114610b2e575f80fd5b50565b5f81359050610b3f81610b1b565b92915050565b5f60208284031215610b5a57610b59610ae3565b5b5f610b6784828501610b31565b91505092915050565b5f819050919050565b610b8281610b70565b82525050565b5f81519050919050565b5f82825260208201905092915050565b8281835e5f83830152505050565b5f601f19601f8301169050919050565b5f610bca82610b88565b610bd48185610b92565b9350610be4818560208601610ba2565b610bed81610bb0565b840191505092915050565b5f608082019050610c0b5f830187610b79565b610c186020830186610b79565b8181036040830152610c2a8185610bc0565b9050610c396060830184610b79565b95945050505050565b610c4b81610b0a565b82525050565b5f602082019050610c645f830184610c42565b92915050565b7f4e6f7420417574686f72697a65642100000000000000000000000000000000005f82015250565b5f610c9e600f83610b92565b9150610ca982610c6a565b602082019050919050565b5f6020820190508181035f830152610ccb81610c92565b9050919050565b7f416c7265616479206163746976617465642100000000000000000000000000005f82015250565b5f610d06601283610b92565b9150610d1182610cd2565b602082019050919050565b5f6020820190508181035f830152610d3381610cfa565b9050919050565b7f416c7265616479206465616374697661746564210000000000000000000000005f82015250565b5f610d6e601483610b92565b9150610d7982610d3a565b602082019050919050565b5f6020820190508181035f830152610d9b81610d62565b9050919050565b5f81519050610db081610b1b565b92915050565b5f60208284031215610dcb57610dca610ae3565b5b5f610dd884828501610da2565b91505092915050565b5f60ff82169050919050565b610df681610de1565b8114610e00575f80fd5b50565b5f81519050610e1181610ded565b92915050565b5f60208284031215610e2c57610e2b610ae3565b5b5f610e3984828501610e03565b91505092915050565b5f80fd5b5f80fd5b7f4e487b71000000000000000000000000000000000000000000000000000000005f52604160045260245ffd5b610e8082610bb0565b810181811067ffffffffffffffff82111715610e9f57610e9e610e4a565b5b80604052505050565b5f610eb1610ada565b9050610ebd8282610e77565b919050565b5f67ffffffffffffffff821115610edc57610edb610e4a565b5b610ee582610bb0565b9050602081019050919050565b5f610f04610eff84610ec2565b610ea8565b905082815260208101848484011115610f2057610f1f610e46565b5b610f2b848285610ba2565b509392505050565b5f82601f830112610f4757610f46610e42565b5b8151610f57848260208601610ef2565b91505092915050565b5f60208284031215610f7557610f74610ae3565b5b5f82015167ffffffffffffffff811115610f9257610f91610ae7565b5b610f9e84828501610f33565b91505092915050565b5f6dffffffffffffffffffffffffffff82169050919050565b610fc981610fa7565b8114610fd3575f80fd5b50565b5f81519050610fe481610fc0565b92915050565b5f63ffffffff82169050919050565b61100281610fea565b811461100c575f80fd5b50565b5f8151905061101d81610ff9565b92915050565b5f805f6060848603121561103a57611039610ae3565b5b5f61104786828701610fd6565b935050602061105886828701610fd6565b92505060406110698682870161100f565b9150509250925092565b7f4d697373696e6720696e70757420666f7220746f6b656e206e616d65210000005f82015250565b5f6110a7601d83610b92565b91506110b282611073565b602082019050919050565b5f6020820190508181035f8301526110d48161109b565b9050919050565b7f446563696d616c732073686f756c64206265206c657373207468616e206f72205f8201527f657175616c20746f203138000000000000000000000000000000000000000000602082015250565b5f611135602b83610b92565b9150611140826110db565b604082019050919050565b5f6020820190508181035f83015261116281611129565b9050919050565b7f446563696d616c732073686f756c642062652067726561746572207468616e205f8201527f3000000000000000000000000000000000000000000000000000000000000000602082015250565b5f6111c3602183610b92565b91506111ce82611169565b604082019050919050565b5f6020820190508181035f8301526111f0816111b7565b9050919050565b7f546f6b656e2076616c7565732073686f756c64206265206772656174657220745f8201527f68616e2030000000000000000000000000000000000000000000000000000000602082015250565b5f611251602583610b92565b915061125c826111f7565b604082019050919050565b5f6020820190508181035f83015261127e81611245565b9050919050565b7f4e487b71000000000000000000000000000000000000000000000000000000005f52601160045260245ffd5b5f6112bc82610b70565b91506112c783610b70565b92508282039050818111156112df576112de611285565b5b92915050565b5f8160011c9050919050565b5f808291508390505b600185111561133a5780860481111561131657611315611285565b5b60018516156113255780820291505b8081029050611333856112e5565b94506112fa565b94509492505050565b5f82611352576001905061140d565b8161135f575f905061140d565b8160018114611375576002811461137f576113ae565b600191505061140d565b60ff84111561139157611390611285565b5b8360020a9150848211156113a8576113a7611285565b5b5061140d565b5060208310610133831016604e8410600b84101617156113e35782820a9050838111156113de576113dd611285565b5b61140d565b6113f084848460016112f1565b9250905081840481111561140757611406611285565b5b81810290505b9392505050565b5f61141e82610b70565b915061142983610b70565b92506114567fffffffffffffffffffffffffffffffffffffffffffffffffffffffffffffffff8484611343565b905092915050565b5f61146882610b70565b915061147383610b70565b925082820261148181610b70565b9150828204841483151761149857611497611285565b5b5092915050565b7f4e487b71000000000000000000000000000000000000000000000000000000005f52601260045260245ffd5b5f6114d682610b70565b91506114e183610b70565b9250826114f1576114f061149f565b5b828204905092915050565b5f81905092915050565b5f61151082610b88565b61151a81856114fc565b935061152a818560208601610ba2565b80840191505092915050565b7f2f00000000000000000000000000000000000000000000000000000000000000815250565b5f6115678285611506565b915061157282611536565b6001820191506115828284611506565b9150819050939250505056fea2646970667358221220a51560b9b3a507acf5a6e23f283f487e406361f00cca0b304213943d7914151e64736f6c634300081a0033",
					"opcodes": "PUSH1 0xA0 PUSH1 0x40 MSTORE PUSH1 0x1 PUSH1 0x2 PUSH1 0x14 PUSH2 0x100 EXP DUP2 SLOAD DUP2 PUSH1 0xFF MUL NOT AND SWAP1 DUP4 ISZERO ISZERO MUL OR SWAP1 SSTORE POP CALLVALUE DUP1 ISZERO PUSH2 0x2A JUMPI PUSH0 DUP1 REVERT JUMPDEST POP PUSH1 0x40 MLOAD PUSH2 0x1775 CODESIZE SUB DUP1 PUSH2 0x1775 DUP4 CODECOPY DUP2 DUP2 ADD PUSH1 0x40 MSTORE DUP2 ADD SWAP1 PUSH2 0x4C SWAP2 SWAP1 PUSH2 0x15A JUMP JUMPDEST PUSH0 PUSH20 0xFFFFFFFFFFFFFFFFFFFFFFFFFFFFFFFFFFFFFFFF AND DUP2 PUSH20 0xFFFFFFFFFFFFFFFFFFFFFFFFFFFFFFFFFFFFFFFF AND SUB PUSH2 0x83 JUMPI PUSH0 DUP1 REVERT JUMPDEST CALLER PUSH20 0xFFFFFFFFFFFFFFFFFFFFFFFFFFFFFFFFFFFFFFFF AND PUSH1 0x80 DUP2 PUSH20 0xFFFFFFFFFFFFFFFFFFFFFFFFFFFFFFFFFFFFFFFF AND DUP2 MSTORE POP POP DUP1 PUSH0 DUP1 PUSH2 0x100 EXP DUP2 SLOAD DUP2 PUSH20 0xFFFFFFFFFFFFFFFFFFFFFFFFFFFFFFFFFFFFFFFF MUL NOT AND SWAP1 DUP4 PUSH20 0xFFFFFFFFFFFFFFFFFFFFFFFFFFFFFFFFFFFFFFFF AND MUL OR SWAP1 SSTORE POP POP PUSH2 0x185 JUMP JUMPDEST PUSH0 DUP1 REVERT JUMPDEST PUSH0 PUSH20 0xFFFFFFFFFFFFFFFFFFFFFFFFFFFFFFFFFFFFFFFF DUP3 AND SWAP1 POP SWAP2 SWAP1 POP JUMP JUMPDEST PUSH0 PUSH2 0x129 DUP3 PUSH2 0x100 JUMP JUMPDEST SWAP1 POP SWAP2 SWAP1 POP JUMP JUMPDEST PUSH2 0x139 DUP2 PUSH2 0x11F JUMP JUMPDEST DUP2 EQ PUSH2 0x143 JUMPI PUSH0 DUP1 REVERT JUMPDEST POP JUMP JUMPDEST PUSH0 DUP2 MLOAD SWAP1 POP PUSH2 0x154 DUP2 PUSH2 0x130 JUMP JUMPDEST SWAP3 SWAP2 POP POP JUMP JUMPDEST PUSH0 PUSH1 0x20 DUP3 DUP5 SUB SLT ISZERO PUSH2 0x16F JUMPI PUSH2 0x16E PUSH2 0xFC JUMP JUMPDEST JUMPDEST PUSH0 PUSH2 0x17C DUP5 DUP3 DUP6 ADD PUSH2 0x146 JUMP JUMPDEST SWAP2 POP POP SWAP3 SWAP2 POP POP JUMP JUMPDEST PUSH1 0x80 MLOAD PUSH2 0x15C4 PUSH2 0x1B1 PUSH0 CODECOPY PUSH0 DUP2 DUP2 PUSH1 0xCA ADD MSTORE DUP2 DUP2 PUSH2 0x1C4 ADD MSTORE DUP2 DUP2 PUSH2 0x294 ADD MSTORE PUSH2 0x8C2 ADD MSTORE PUSH2 0x15C4 PUSH0 RETURN INVALID PUSH1 0x80 PUSH1 0x40 MSTORE CALLVALUE DUP1 ISZERO PUSH2 0xF JUMPI PUSH0 DUP1 REVERT JUMPDEST POP PUSH1 0x4 CALLDATASIZE LT PUSH2 0x55 JUMPI PUSH0 CALLDATALOAD PUSH1 0xE0 SHR DUP1 PUSH4 0xF15F4C0 EQ PUSH2 0x59 JUMPI DUP1 PUSH4 0x24F16F20 EQ PUSH2 0x63 JUMPI DUP1 PUSH4 0x51B42B00 EQ PUSH2 0x7F JUMPI DUP1 PUSH4 0x85096EDC EQ PUSH2 0x89 JUMPI DUP1 PUSH4 0xF851A440 EQ PUSH2 0xAA JUMPI JUMPDEST PUSH0 DUP1 REVERT JUMPDEST PUSH2 0x61 PUSH2 0xC8 JUMP JUMPDEST STOP JUMPDEST PUSH2 0x7D PUSH1 0x4 DUP1 CALLDATASIZE SUB DUP2 ADD SWAP1 PUSH2 0x78 SWAP2 SWAP1 PUSH2 0xB45 JUMP JUMPDEST PUSH2 0x1C2 JUMP JUMPDEST STOP JUMPDEST PUSH2 0x87 PUSH2 0x292 JUMP JUMPDEST STOP JUMPDEST PUSH2 0x91 PUSH2 0x38C JUMP JUMPDEST PUSH1 0x40 MLOAD PUSH2 0xA1 SWAP5 SWAP4 SWAP3 SWAP2 SWAP1 PUSH2 0xBF8 JUMP JUMPDEST PUSH1 0x40 MLOAD DUP1 SWAP2 SUB SWAP1 RETURN JUMPDEST PUSH2 0xB2 PUSH2 0x8C0 JUMP JUMPDEST PUSH1 0x40 MLOAD PUSH2 0xBF SWAP2 SWAP1 PUSH2 0xC51 JUMP JUMPDEST PUSH1 0x40 MLOAD DUP1 SWAP2 SUB SWAP1 RETURN JUMPDEST PUSH32 0x0 PUSH20 0xFFFFFFFFFFFFFFFFFFFFFFFFFFFFFFFFFFFFFFFF AND CALLER PUSH20 0xFFFFFFFFFFFFFFFFFFFFFFFFFFFFFFFFFFFFFFFF AND EQ PUSH2 0x156 JUMPI PUSH1 0x40 MLOAD PUSH32 0x8C379A000000000000000000000000000000000000000000000000000000000 DUP2 MSTORE PUSH1 0x4 ADD PUSH2 0x14D SWAP1 PUSH2 0xCB4 JUMP JUMPDEST PUSH1 0x40 MLOAD DUP1 SWAP2 SUB SWAP1 REVERT JUMPDEST PUSH1 0x2 PUSH1 0x14 SWAP1 SLOAD SWAP1 PUSH2 0x100 EXP SWAP1 DIV PUSH1 0xFF AND ISZERO PUSH2 0x1A6 JUMPI PUSH1 0x40 MLOAD PUSH32 0x8C379A000000000000000000000000000000000000000000000000000000000 DUP2 MSTORE PUSH1 0x4 ADD PUSH2 0x19D SWAP1 PUSH2 0xD1C JUMP JUMPDEST PUSH1 0x40 MLOAD DUP1 SWAP2 SUB SWAP1 REVERT JUMPDEST PUSH0 PUSH1 0x2 PUSH1 0x14 PUSH2 0x100 EXP DUP2 SLOAD DUP2 PUSH1 0xFF MUL NOT AND SWAP1 DUP4 ISZERO ISZERO MUL OR SWAP1 SSTORE POP JUMP JUMPDEST PUSH32 0x0 PUSH20 0xFFFFFFFFFFFFFFFFFFFFFFFFFFFFFFFFFFFFFFFF AND CALLER PUSH20 0xFFFFFFFFFFFFFFFFFFFFFFFFFFFFFFFFFFFFFFFF AND EQ PUSH2 0x250 JUMPI PUSH1 0x40 MLOAD PUSH32 0x8C379A000000000000000000000000000000000000000000000000000000000 DUP2 MSTORE PUSH1 0x4 ADD PUSH2 0x247 SWAP1 PUSH2 0xCB4 JUMP JUMPDEST PUSH1 0x40 MLOAD DUP1 SWAP2 SUB SWAP1 REVERT JUMPDEST DUP1 PUSH0 DUP1 PUSH2 0x100 EXP DUP2 SLOAD DUP2 PUSH20 0xFFFFFFFFFFFFFFFFFFFFFFFFFFFFFFFFFFFFFFFF MUL NOT AND SWAP1 DUP4 PUSH20 0xFFFFFFFFFFFFFFFFFFFFFFFFFFFFFFFFFFFFFFFF AND MUL OR SWAP1 SSTORE POP POP JUMP JUMPDEST PUSH32 0x0 PUSH20 0xFFFFFFFFFFFFFFFFFFFFFFFFFFFFFFFFFFFFFFFF AND CALLER PUSH20 0xFFFFFFFFFFFFFFFFFFFFFFFFFFFFFFFFFFFFFFFF AND EQ PUSH2 0x320 JUMPI PUSH1 0x40 MLOAD PUSH32 0x8C379A000000000000000000000000000000000000000000000000000000000 DUP2 MSTORE PUSH1 0x4 ADD PUSH2 0x317 SWAP1 PUSH2 0xCB4 JUMP JUMPDEST PUSH1 0x40 MLOAD DUP1 SWAP2 SUB SWAP1 REVERT JUMPDEST PUSH1 0x2 PUSH1 0x14 SWAP1 SLOAD SWAP1 PUSH2 0x100 EXP SWAP1 DIV PUSH1 0xFF AND PUSH2 0x36F JUMPI PUSH1 0x40 MLOAD PUSH32 0x8C379A000000000000000000000000000000000000000000000000000000000 DUP2 MSTORE PUSH1 0x4 ADD PUSH2 0x366 SWAP1 PUSH2 0xD84 JUMP JUMPDEST PUSH1 0x40 MLOAD DUP1 SWAP2 SUB SWAP1 REVERT JUMPDEST PUSH1 0x1 PUSH1 0x2 PUSH1 0x14 PUSH2 0x100 EXP DUP2 SLOAD DUP2 PUSH1 0xFF MUL NOT AND SWAP1 DUP4 ISZERO ISZERO MUL OR SWAP1 SSTORE POP JUMP JUMPDEST PUSH0 DUP1 PUSH1 0x60 PUSH0 PUSH1 0x2 PUSH1 0x14 SWAP1 SLOAD SWAP1 PUSH2 0x100 EXP SWAP1 DIV PUSH1 0xFF AND PUSH2 0x3EC JUMPI PUSH0 DUP1 PUSH0 PUSH1 0x40 MLOAD DUP1 PUSH1 0x40 ADD PUSH1 0x40 MSTORE DUP1 PUSH1 0xB DUP2 MSTORE PUSH1 0x20 ADD PUSH32 0x4E6F742061637469766521000000000000000000000000000000000000000000 DUP2 MSTORE POP SWAP1 SWAP4 POP SWAP4 POP SWAP4 POP SWAP4 POP PUSH2 0x8BA JUMP JUMPDEST PUSH0 DUP1 PUSH0 SWAP1 SLOAD SWAP1 PUSH2 0x100 EXP SWAP1 DIV PUSH20 0xFFFFFFFFFFFFFFFFFFFFFFFFFFFFFFFFFFFFFFFF AND PUSH20 0xFFFFFFFFFFFFFFFFFFFFFFFFFFFFFFFFFFFFFFFF AND PUSH4 0xDFE1681 PUSH1 0x40 MLOAD DUP2 PUSH4 0xFFFFFFFF AND PUSH1 0xE0 SHL DUP2 MSTORE PUSH1 0x4 ADD PUSH1 0x20 PUSH1 0x40 MLOAD DUP1 DUP4 SUB DUP2 PUSH0 DUP8 GAS CALL ISZERO DUP1 ISZERO PUSH2 0x457 JUMPI RETURNDATASIZE PUSH0 DUP1 RETURNDATACOPY RETURNDATASIZE PUSH0 REVERT JUMPDEST POP POP POP POP PUSH1 0x40 MLOAD RETURNDATASIZE PUSH1 0x1F NOT PUSH1 0x1F DUP3 ADD AND DUP3 ADD DUP1 PUSH1 0x40 MSTORE POP DUP2 ADD SWAP1 PUSH2 0x47B SWAP2 SWAP1 PUSH2 0xDB6 JUMP JUMPDEST SWAP1 POP PUSH0 DUP1 PUSH0 SWAP1 SLOAD SWAP1 PUSH2 0x100 EXP SWAP1 DIV PUSH20 0xFFFFFFFFFFFFFFFFFFFFFFFFFFFFFFFFFFFFFFFF AND PUSH20 0xFFFFFFFFFFFFFFFFFFFFFFFFFFFFFFFFFFFFFFFF AND PUSH4 0xD21220A7 PUSH1 0x40 MLOAD DUP2 PUSH4 0xFFFFFFFF AND PUSH1 0xE0 SHL DUP2 MSTORE PUSH1 0x4 ADD PUSH1 0x20 PUSH1 0x40 MLOAD DUP1 DUP4 SUB DUP2 PUSH0 DUP8 GAS CALL ISZERO DUP1 ISZERO PUSH2 0x4E8 JUMPI RETURNDATASIZE PUSH0 DUP1 RETURNDATACOPY RETURNDATASIZE PUSH0 REVERT JUMPDEST POP POP POP POP PUSH1 0x40 MLOAD RETURNDATASIZE PUSH1 0x1F NOT PUSH1 0x1F DUP3 ADD AND DUP3 ADD DUP1 PUSH1 0x40 MSTORE POP DUP2 ADD SWAP1 PUSH2 0x50C SWAP2 SWAP1 PUSH2 0xDB6 JUMP JUMPDEST SWAP1 POP DUP2 PUSH1 0x1 PUSH0 PUSH2 0x100 EXP DUP2 SLOAD DUP2 PUSH20 0xFFFFFFFFFFFFFFFFFFFFFFFFFFFFFFFFFFFFFFFF MUL NOT AND SWAP1 DUP4 PUSH20 0xFFFFFFFFFFFFFFFFFFFFFFFFFFFFFFFFFFFFFFFF AND MUL OR SWAP1 SSTORE POP DUP1 PUSH1 0x2 PUSH0 PUSH2 0x100 EXP DUP2 SLOAD DUP2 PUSH20 0xFFFFFFFFFFFFFFFFFFFFFFFFFFFFFFFFFFFFFFFF MUL NOT AND SWAP1 DUP4 PUSH20 0xFFFFFFFFFFFFFFFFFFFFFFFFFFFFFFFFFFFFFFFF AND MUL OR SWAP1 SSTORE POP PUSH0 PUSH1 0x1 PUSH0 SWAP1 SLOAD SWAP1 PUSH2 0x100 EXP SWAP1 DIV PUSH20 0xFFFFFFFFFFFFFFFFFFFFFFFFFFFFFFFFFFFFFFFF AND PUSH20 0xFFFFFFFFFFFFFFFFFFFFFFFFFFFFFFFFFFFFFFFF AND PUSH4 0x313CE567 PUSH1 0x40 MLOAD DUP2 PUSH4 0xFFFFFFFF AND PUSH1 0xE0 SHL DUP2 MSTORE PUSH1 0x4 ADD PUSH1 0x20 PUSH1 0x40 MLOAD DUP1 DUP4 SUB DUP2 PUSH0 DUP8 GAS CALL ISZERO DUP1 ISZERO PUSH2 0x5FA JUMPI RETURNDATASIZE PUSH0 DUP1 RETURNDATACOPY RETURNDATASIZE PUSH0 REVERT JUMPDEST POP POP POP POP PUSH1 0x40 MLOAD RETURNDATASIZE PUSH1 0x1F NOT PUSH1 0x1F DUP3 ADD AND DUP3 ADD DUP1 PUSH1 0x40 MSTORE POP DUP2 ADD SWAP1 PUSH2 0x61E SWAP2 SWAP1 PUSH2 0xE17 JUMP JUMPDEST PUSH1 0xFF AND SWAP1 POP PUSH0 PUSH1 0x2 PUSH0 SWAP1 SLOAD SWAP1 PUSH2 0x100 EXP SWAP1 DIV PUSH20 0xFFFFFFFFFFFFFFFFFFFFFFFFFFFFFFFFFFFFFFFF AND PUSH20 0xFFFFFFFFFFFFFFFFFFFFFFFFFFFFFFFFFFFFFFFF AND PUSH4 0x313CE567 PUSH1 0x40 MLOAD DUP2 PUSH4 0xFFFFFFFF AND PUSH1 0xE0 SHL DUP2 MSTORE PUSH1 0x4 ADD PUSH1 0x20 PUSH1 0x40 MLOAD DUP1 DUP4 SUB DUP2 PUSH0 DUP8 GAS CALL ISZERO DUP1 ISZERO PUSH2 0x68F JUMPI RETURNDATASIZE PUSH0 DUP1 RETURNDATACOPY RETURNDATASIZE PUSH0 REVERT JUMPDEST POP POP POP POP PUSH1 0x40 MLOAD RETURNDATASIZE PUSH1 0x1F NOT PUSH1 0x1F DUP3 ADD AND DUP3 ADD DUP1 PUSH1 0x40 MSTORE POP DUP2 ADD SWAP1 PUSH2 0x6B3 SWAP2 SWAP1 PUSH2 0xE17 JUMP JUMPDEST PUSH1 0xFF AND SWAP1 POP PUSH0 PUSH1 0x1 PUSH0 SWAP1 SLOAD SWAP1 PUSH2 0x100 EXP SWAP1 DIV PUSH20 0xFFFFFFFFFFFFFFFFFFFFFFFFFFFFFFFFFFFFFFFF AND PUSH20 0xFFFFFFFFFFFFFFFFFFFFFFFFFFFFFFFFFFFFFFFF AND PUSH4 0x6FDDE03 PUSH1 0x40 MLOAD DUP2 PUSH4 0xFFFFFFFF AND PUSH1 0xE0 SHL DUP2 MSTORE PUSH1 0x4 ADD PUSH0 PUSH1 0x40 MLOAD DUP1 DUP4 SUB DUP2 PUSH0 DUP8 GAS CALL ISZERO DUP1 ISZERO PUSH2 0x723 JUMPI RETURNDATASIZE PUSH0 DUP1 RETURNDATACOPY RETURNDATASIZE PUSH0 REVERT JUMPDEST POP POP POP POP PUSH1 0x40 MLOAD RETURNDATASIZE PUSH0 DUP3 RETURNDATACOPY RETURNDATASIZE PUSH1 0x1F NOT PUSH1 0x1F DUP3 ADD AND DUP3 ADD DUP1 PUSH1 0x40 MSTORE POP DUP2 ADD SWAP1 PUSH2 0x74B SWAP2 SWAP1 PUSH2 0xF60 JUMP JUMPDEST SWAP1 POP PUSH0 PUSH1 0x2 PUSH0 SWAP1 SLOAD SWAP1 PUSH2 0x100 EXP SWAP1 DIV PUSH20 0xFFFFFFFFFFFFFFFFFFFFFFFFFFFFFFFFFFFFFFFF AND PUSH20 0xFFFFFFFFFFFFFFFFFFFFFFFFFFFFFFFFFFFFFFFF AND PUSH4 0x6FDDE03 PUSH1 0x40 MLOAD DUP2 PUSH4 0xFFFFFFFF AND PUSH1 0xE0 SHL DUP2 MSTORE PUSH1 0x4 ADD PUSH0 PUSH1 0x40 MLOAD DUP1 DUP4 SUB DUP2 PUSH0 DUP8 GAS CALL ISZERO DUP1 ISZERO PUSH2 0x7B8 JUMPI RETURNDATASIZE PUSH0 DUP1 RETURNDATACOPY RETURNDATASIZE PUSH0 REVERT JUMPDEST POP POP POP POP PUSH1 0x40 MLOAD RETURNDATASIZE PUSH0 DUP3 RETURNDATACOPY RETURNDATASIZE PUSH1 0x1F NOT PUSH1 0x1F DUP3 ADD AND DUP3 ADD DUP1 PUSH1 0x40 MSTORE POP DUP2 ADD SWAP1 PUSH2 0x7E0 SWAP2 SWAP1 PUSH2 0xF60 JUMP JUMPDEST SWAP1 POP PUSH0 DUP1 PUSH0 DUP1 PUSH0 SWAP1 SLOAD SWAP1 PUSH2 0x100 EXP SWAP1 DIV PUSH20 0xFFFFFFFFFFFFFFFFFFFFFFFFFFFFFFFFFFFFFFFF AND PUSH20 0xFFFFFFFFFFFFFFFFFFFFFFFFFFFFFFFFFFFFFFFF AND PUSH4 0x902F1AC PUSH1 0x40 MLOAD DUP2 PUSH4 0xFFFFFFFF AND PUSH1 0xE0 SHL DUP2 MSTORE PUSH1 0x4 ADD PUSH1 0x60 PUSH1 0x40 MLOAD DUP1 DUP4 SUB DUP2 PUSH0 DUP8 GAS CALL ISZERO DUP1 ISZERO PUSH2 0x84F JUMPI RETURNDATASIZE PUSH0 DUP1 RETURNDATACOPY RETURNDATASIZE PUSH0 REVERT JUMPDEST POP POP POP POP PUSH1 0x40 MLOAD RETURNDATASIZE PUSH1 0x1F NOT PUSH1 0x1F DUP3 ADD AND DUP3 ADD DUP1 PUSH1 0x40 MSTORE POP DUP2 ADD SWAP1 PUSH2 0x873 SWAP2 SWAP1 PUSH2 0x1023 JUMP JUMPDEST SWAP3 POP PUSH14 0xFFFFFFFFFFFFFFFFFFFFFFFFFFFF AND SWAP3 POP PUSH14 0xFFFFFFFFFFFFFFFFFFFFFFFFFFFF AND SWAP3 POP PUSH2 0x8A8 DUP4 DUP9 DUP8 DUP6 DUP11 DUP10 DUP8 PUSH2 0x8E4 JUMP JUMPDEST SWAP13 POP SWAP13 POP SWAP13 POP SWAP13 POP POP POP POP POP POP POP POP POP POP JUMPDEST SWAP1 SWAP2 SWAP3 SWAP4 JUMP JUMPDEST PUSH32 0x0 DUP2 JUMP JUMPDEST PUSH0 DUP1 PUSH1 0x60 PUSH0 DUP1 DUP10 MLOAD GT DUP1 ISZERO PUSH2 0x8F9 JUMPI POP PUSH0 DUP7 MLOAD GT JUMPDEST PUSH2 0x938 JUMPI PUSH1 0x40 MLOAD PUSH32 0x8C379A000000000000000000000000000000000000000000000000000000000 DUP2 MSTORE PUSH1 0x4 ADD PUSH2 0x92F SWAP1 PUSH2 0x10BD JUMP JUMPDEST PUSH1 0x40 MLOAD DUP1 SWAP2 SUB SWAP1 REVERT JUMPDEST PUSH1 0x12 DUP11 GT ISZERO DUP1 ISZERO PUSH2 0x94A JUMPI POP PUSH1 0x12 DUP8 GT ISZERO JUMPDEST PUSH2 0x989 JUMPI PUSH1 0x40 MLOAD PUSH32 0x8C379A000000000000000000000000000000000000000000000000000000000 DUP2 MSTORE PUSH1 0x4 ADD PUSH2 0x980 SWAP1 PUSH2 0x114B JUMP JUMPDEST PUSH1 0x40 MLOAD DUP1 SWAP2 SUB SWAP1 REVERT JUMPDEST PUSH0 DUP11 GT DUP1 ISZERO PUSH2 0x997 JUMPI POP PUSH0 DUP8 GT JUMPDEST PUSH2 0x9D6 JUMPI PUSH1 0x40 MLOAD PUSH32 0x8C379A000000000000000000000000000000000000000000000000000000000 DUP2 MSTORE PUSH1 0x4 ADD PUSH2 0x9CD SWAP1 PUSH2 0x11D9 JUMP JUMPDEST PUSH1 0x40 MLOAD DUP1 SWAP2 SUB SWAP1 REVERT JUMPDEST PUSH0 DUP12 GT DUP1 ISZERO PUSH2 0x9E4 JUMPI POP PUSH0 DUP9 GT JUMPDEST PUSH2 0xA23 JUMPI PUSH1 0x40 MLOAD PUSH32 0x8C379A000000000000000000000000000000000000000000000000000000000 DUP2 MSTORE PUSH1 0x4 ADD PUSH2 0xA1A SWAP1 PUSH2 0x1267 JUMP JUMPDEST PUSH1 0x40 MLOAD DUP1 SWAP2 SUB SWAP1 REVERT JUMPDEST DUP7 DUP11 GT ISZERO PUSH2 0xA55 JUMPI DUP7 DUP11 PUSH2 0xA37 SWAP2 SWAP1 PUSH2 0x12B2 JUMP JUMPDEST PUSH1 0xA PUSH2 0xA43 SWAP2 SWAP1 PUSH2 0x1414 JUMP JUMPDEST DUP9 PUSH2 0xA4E SWAP2 SWAP1 PUSH2 0x145E JUMP JUMPDEST SWAP8 POP PUSH2 0xA7B JUMP JUMPDEST DUP10 DUP8 PUSH2 0xA61 SWAP2 SWAP1 PUSH2 0x12B2 JUMP JUMPDEST PUSH1 0xA PUSH2 0xA6D SWAP2 SWAP1 PUSH2 0x1414 JUMP JUMPDEST DUP12 PUSH2 0xA78 SWAP2 SWAP1 PUSH2 0x145E JUMP JUMPDEST SWAP11 POP JUMPDEST DUP11 PUSH4 0x5F5E100 DUP10 PUSH2 0xA8C SWAP2 SWAP1 PUSH2 0x145E JUMP JUMPDEST PUSH2 0xA96 SWAP2 SWAP1 PUSH2 0x14CC JUMP JUMPDEST PUSH1 0x8 DUP8 DUP12 PUSH1 0x40 MLOAD PUSH1 0x20 ADD PUSH2 0xAAB SWAP3 SWAP2 SWAP1 PUSH2 0x155C JUMP JUMPDEST PUSH1 0x40 MLOAD PUSH1 0x20 DUP2 DUP4 SUB SUB DUP2 MSTORE SWAP1 PUSH1 0x40 MSTORE DUP8 DUP1 PUSH4 0xFFFFFFFF AND SWAP1 POP SWAP4 POP SWAP4 POP SWAP4 POP SWAP4 POP SWAP8 POP SWAP8 POP SWAP8 POP SWAP8 SWAP4 POP POP POP POP JUMP JUMPDEST PUSH0 PUSH1 0x40 MLOAD SWAP1 POP SWAP1 JUMP JUMPDEST PUSH0 DUP1 REVERT JUMPDEST PUSH0 DUP1 REVERT JUMPDEST PUSH0 PUSH20 0xFFFFFFFFFFFFFFFFFFFFFFFFFFFFFFFFFFFFFFFF DUP3 AND SWAP1 POP SWAP2 SWAP1 POP JUMP JUMPDEST PUSH0 PUSH2 0xB14 DUP3 PUSH2 0xAEB JUMP JUMPDEST SWAP1 POP SWAP2 SWAP1 POP JUMP JUMPDEST PUSH2 0xB24 DUP2 PUSH2 0xB0A JUMP JUMPDEST DUP2 EQ PUSH2 0xB2E JUMPI PUSH0 DUP1 REVERT JUMPDEST POP JUMP JUMPDEST PUSH0 DUP2 CALLDATALOAD SWAP1 POP PUSH2 0xB3F DUP2 PUSH2 0xB1B JUMP JUMPDEST SWAP3 SWAP2 POP POP JUMP JUMPDEST PUSH0 PUSH1 0x20 DUP3 DUP5 SUB SLT ISZERO PUSH2 0xB5A JUMPI PUSH2 0xB59 PUSH2 0xAE3 JUMP JUMPDEST JUMPDEST PUSH0 PUSH2 0xB67 DUP5 DUP3 DUP6 ADD PUSH2 0xB31 JUMP JUMPDEST SWAP2 POP POP SWAP3 SWAP2 POP POP JUMP JUMPDEST PUSH0 DUP2 SWAP1 POP SWAP2 SWAP1 POP JUMP JUMPDEST PUSH2 0xB82 DUP2 PUSH2 0xB70 JUMP JUMPDEST DUP3 MSTORE POP POP JUMP JUMPDEST PUSH0 DUP2 MLOAD SWAP1 POP SWAP2 SWAP1 POP JUMP JUMPDEST PUSH0 DUP3 DUP3 MSTORE PUSH1 0x20 DUP3 ADD SWAP1 POP SWAP3 SWAP2 POP POP JUMP JUMPDEST DUP3 DUP2 DUP4 MCOPY PUSH0 DUP4 DUP4 ADD MSTORE POP POP POP JUMP JUMPDEST PUSH0 PUSH1 0x1F NOT PUSH1 0x1F DUP4 ADD AND SWAP1 POP SWAP2 SWAP1 POP JUMP JUMPDEST PUSH0 PUSH2 0xBCA DUP3 PUSH2 0xB88 JUMP JUMPDEST PUSH2 0xBD4 DUP2 DUP6 PUSH2 0xB92 JUMP JUMPDEST SWAP4 POP PUSH2 0xBE4 DUP2 DUP6 PUSH1 0x20 DUP7 ADD PUSH2 0xBA2 JUMP JUMPDEST PUSH2 0xBED DUP2 PUSH2 0xBB0 JUMP JUMPDEST DUP5 ADD SWAP2 POP POP SWAP3 SWAP2 POP POP JUMP JUMPDEST PUSH0 PUSH1 0x80 DUP3 ADD SWAP1 POP PUSH2 0xC0B PUSH0 DUP4 ADD DUP8 PUSH2 0xB79 JUMP JUMPDEST PUSH2 0xC18 PUSH1 0x20 DUP4 ADD DUP7 PUSH2 0xB79 JUMP JUMPDEST DUP2 DUP2 SUB PUSH1 0x40 DUP4 ADD MSTORE PUSH2 0xC2A DUP2 DUP6 PUSH2 0xBC0 JUMP JUMPDEST SWAP1 POP PUSH2 0xC39 PUSH1 0x60 DUP4 ADD DUP5 PUSH2 0xB79 JUMP JUMPDEST SWAP6 SWAP5 POP POP POP POP POP JUMP JUMPDEST PUSH2 0xC4B DUP2 PUSH2 0xB0A JUMP JUMPDEST DUP3 MSTORE POP POP JUMP JUMPDEST PUSH0 PUSH1 0x20 DUP3 ADD SWAP1 POP PUSH2 0xC64 PUSH0 DUP4 ADD DUP5 PUSH2 0xC42 JUMP JUMPDEST SWAP3 SWAP2 POP POP JUMP JUMPDEST PUSH32 0x4E6F7420417574686F72697A6564210000000000000000000000000000000000 PUSH0 DUP3 ADD MSTORE POP JUMP JUMPDEST PUSH0 PUSH2 0xC9E PUSH1 0xF DUP4 PUSH2 0xB92 JUMP JUMPDEST SWAP2 POP PUSH2 0xCA9 DUP3 PUSH2 0xC6A JUMP JUMPDEST PUSH1 0x20 DUP3 ADD SWAP1 POP SWAP2 SWAP1 POP JUMP JUMPDEST PUSH0 PUSH1 0x20 DUP3 ADD SWAP1 POP DUP2 DUP2 SUB PUSH0 DUP4 ADD MSTORE PUSH2 0xCCB DUP2 PUSH2 0xC92 JUMP JUMPDEST SWAP1 POP SWAP2 SWAP1 POP JUMP JUMPDEST PUSH32 0x416C726561647920616374697661746564210000000000000000000000000000 PUSH0 DUP3 ADD MSTORE POP JUMP JUMPDEST PUSH0 PUSH2 0xD06 PUSH1 0x12 DUP4 PUSH2 0xB92 JUMP JUMPDEST SWAP2 POP PUSH2 0xD11 DUP3 PUSH2 0xCD2 JUMP JUMPDEST PUSH1 0x20 DUP3 ADD SWAP1 POP SWAP2 SWAP1 POP JUMP JUMPDEST PUSH0 PUSH1 0x20 DUP3 ADD SWAP1 POP DUP2 DUP2 SUB PUSH0 DUP4 ADD MSTORE PUSH2 0xD33 DUP2 PUSH2 0xCFA JUMP JUMPDEST SWAP1 POP SWAP2 SWAP1 POP JUMP JUMPDEST PUSH32 0x416C726561647920646561637469766174656421000000000000000000000000 PUSH0 DUP3 ADD MSTORE POP JUMP JUMPDEST PUSH0 PUSH2 0xD6E PUSH1 0x14 DUP4 PUSH2 0xB92 JUMP JUMPDEST SWAP2 POP PUSH2 0xD79 DUP3 PUSH2 0xD3A JUMP JUMPDEST PUSH1 0x20 DUP3 ADD SWAP1 POP SWAP2 SWAP1 POP JUMP JUMPDEST PUSH0 PUSH1 0x20 DUP3 ADD SWAP1 POP DUP2 DUP2 SUB PUSH0 DUP4 ADD MSTORE PUSH2 0xD9B DUP2 PUSH2 0xD62 JUMP JUMPDEST SWAP1 POP SWAP2 SWAP1 POP JUMP JUMPDEST PUSH0 DUP2 MLOAD SWAP1 POP PUSH2 0xDB0 DUP2 PUSH2 0xB1B JUMP JUMPDEST SWAP3 SWAP2 POP POP JUMP JUMPDEST PUSH0 PUSH1 0x20 DUP3 DUP5 SUB SLT ISZERO PUSH2 0xDCB JUMPI PUSH2 0xDCA PUSH2 0xAE3 JUMP JUMPDEST JUMPDEST PUSH0 PUSH2 0xDD8 DUP5 DUP3 DUP6 ADD PUSH2 0xDA2 JUMP JUMPDEST SWAP2 POP POP SWAP3 SWAP2 POP POP JUMP JUMPDEST PUSH0 PUSH1 0xFF DUP3 AND SWAP1 POP SWAP2 SWAP1 POP JUMP JUMPDEST PUSH2 0xDF6 DUP2 PUSH2 0xDE1 JUMP JUMPDEST DUP2 EQ PUSH2 0xE00 JUMPI PUSH0 DUP1 REVERT JUMPDEST POP JUMP JUMPDEST PUSH0 DUP2 MLOAD SWAP1 POP PUSH2 0xE11 DUP2 PUSH2 0xDED JUMP JUMPDEST SWAP3 SWAP2 POP POP JUMP JUMPDEST PUSH0 PUSH1 0x20 DUP3 DUP5 SUB SLT ISZERO PUSH2 0xE2C JUMPI PUSH2 0xE2B PUSH2 0xAE3 JUMP JUMPDEST JUMPDEST PUSH0 PUSH2 0xE39 DUP5 DUP3 DUP6 ADD PUSH2 0xE03 JUMP JUMPDEST SWAP2 POP POP SWAP3 SWAP2 POP POP JUMP JUMPDEST PUSH0 DUP1 REVERT JUMPDEST PUSH0 DUP1 REVERT JUMPDEST PUSH32 0x4E487B7100000000000000000000000000000000000000000000000000000000 PUSH0 MSTORE PUSH1 0x41 PUSH1 0x4 MSTORE PUSH1 0x24 PUSH0 REVERT JUMPDEST PUSH2 0xE80 DUP3 PUSH2 0xBB0 JUMP JUMPDEST DUP2 ADD DUP2 DUP2 LT PUSH8 0xFFFFFFFFFFFFFFFF DUP3 GT OR ISZERO PUSH2 0xE9F JUMPI PUSH2 0xE9E PUSH2 0xE4A JUMP JUMPDEST JUMPDEST DUP1 PUSH1 0x40 MSTORE POP POP POP JUMP JUMPDEST PUSH0 PUSH2 0xEB1 PUSH2 0xADA JUMP JUMPDEST SWAP1 POP PUSH2 0xEBD DUP3 DUP3 PUSH2 0xE77 JUMP JUMPDEST SWAP2 SWAP1 POP JUMP JUMPDEST PUSH0 PUSH8 0xFFFFFFFFFFFFFFFF DUP3 GT ISZERO PUSH2 0xEDC JUMPI PUSH2 0xEDB PUSH2 0xE4A JUMP JUMPDEST JUMPDEST PUSH2 0xEE5 DUP3 PUSH2 0xBB0 JUMP JUMPDEST SWAP1 POP PUSH1 0x20 DUP2 ADD SWAP1 POP SWAP2 SWAP1 POP JUMP JUMPDEST PUSH0 PUSH2 0xF04 PUSH2 0xEFF DUP5 PUSH2 0xEC2 JUMP JUMPDEST PUSH2 0xEA8 JUMP JUMPDEST SWAP1 POP DUP3 DUP2 MSTORE PUSH1 0x20 DUP2 ADD DUP5 DUP5 DUP5 ADD GT ISZERO PUSH2 0xF20 JUMPI PUSH2 0xF1F PUSH2 0xE46 JUMP JUMPDEST JUMPDEST PUSH2 0xF2B DUP5 DUP3 DUP6 PUSH2 0xBA2 JUMP JUMPDEST POP SWAP4 SWAP3 POP POP POP JUMP JUMPDEST PUSH0 DUP3 PUSH1 0x1F DUP4 ADD SLT PUSH2 0xF47 JUMPI PUSH2 0xF46 PUSH2 0xE42 JUMP JUMPDEST JUMPDEST DUP2 MLOAD PUSH2 0xF57 DUP5 DUP3 PUSH1 0x20 DUP7 ADD PUSH2 0xEF2 JUMP JUMPDEST SWAP2 POP POP SWAP3 SWAP2 POP POP JUMP JUMPDEST PUSH0 PUSH1 0x20 DUP3 DUP5 SUB SLT ISZERO PUSH2 0xF75 JUMPI PUSH2 0xF74 PUSH2 0xAE3 JUMP JUMPDEST JUMPDEST PUSH0 DUP3 ADD MLOAD PUSH8 0xFFFFFFFFFFFFFFFF DUP2 GT ISZERO PUSH2 0xF92 JUMPI PUSH2 0xF91 PUSH2 0xAE7 JUMP JUMPDEST JUMPDEST PUSH2 0xF9E DUP5 DUP3 DUP6 ADD PUSH2 0xF33 JUMP JUMPDEST SWAP2 POP POP SWAP3 SWAP2 POP POP JUMP JUMPDEST PUSH0 PUSH14 0xFFFFFFFFFFFFFFFFFFFFFFFFFFFF DUP3 AND SWAP1 POP SWAP2 SWAP1 POP JUMP JUMPDEST PUSH2 0xFC9 DUP2 PUSH2 0xFA7 JUMP JUMPDEST DUP2 EQ PUSH2 0xFD3 JUMPI PUSH0 DUP1 REVERT JUMPDEST POP JUMP JUMPDEST PUSH0 DUP2 MLOAD SWAP1 POP PUSH2 0xFE4 DUP2 PUSH2 0xFC0 JUMP JUMPDEST SWAP3 SWAP2 POP POP JUMP JUMPDEST PUSH0 PUSH4 0xFFFFFFFF DUP3 AND SWAP1 POP SWAP2 SWAP1 POP JUMP JUMPDEST PUSH2 0x1002 DUP2 PUSH2 0xFEA JUMP JUMPDEST DUP2 EQ PUSH2 0x100C JUMPI PUSH0 DUP1 REVERT JUMPDEST POP JUMP JUMPDEST PUSH0 DUP2 MLOAD SWAP1 POP PUSH2 0x101D DUP2 PUSH2 0xFF9 JUMP JUMPDEST SWAP3 SWAP2 POP POP JUMP JUMPDEST PUSH0 DUP1 PUSH0 PUSH1 0x60 DUP5 DUP7 SUB SLT ISZERO PUSH2 0x103A JUMPI PUSH2 0x1039 PUSH2 0xAE3 JUMP JUMPDEST JUMPDEST PUSH0 PUSH2 0x1047 DUP7 DUP3 DUP8 ADD PUSH2 0xFD6 JUMP JUMPDEST SWAP4 POP POP PUSH1 0x20 PUSH2 0x1058 DUP7 DUP3 DUP8 ADD PUSH2 0xFD6 JUMP JUMPDEST SWAP3 POP POP PUSH1 0x40 PUSH2 0x1069 DUP7 DUP3 DUP8 ADD PUSH2 0x100F JUMP JUMPDEST SWAP2 POP POP SWAP3 POP SWAP3 POP SWAP3 JUMP JUMPDEST PUSH32 0x4D697373696E6720696E70757420666F7220746F6B656E206E616D6521000000 PUSH0 DUP3 ADD MSTORE POP JUMP JUMPDEST PUSH0 PUSH2 0x10A7 PUSH1 0x1D DUP4 PUSH2 0xB92 JUMP JUMPDEST SWAP2 POP PUSH2 0x10B2 DUP3 PUSH2 0x1073 JUMP JUMPDEST PUSH1 0x20 DUP3 ADD SWAP1 POP SWAP2 SWAP1 POP JUMP JUMPDEST PUSH0 PUSH1 0x20 DUP3 ADD SWAP1 POP DUP2 DUP2 SUB PUSH0 DUP4 ADD MSTORE PUSH2 0x10D4 DUP2 PUSH2 0x109B JUMP JUMPDEST SWAP1 POP SWAP2 SWAP1 POP JUMP JUMPDEST PUSH32 0x446563696D616C732073686F756C64206265206C657373207468616E206F7220 PUSH0 DUP3 ADD MSTORE PUSH32 0x657175616C20746F203138000000000000000000000000000000000000000000 PUSH1 0x20 DUP3 ADD MSTORE POP JUMP JUMPDEST PUSH0 PUSH2 0x1135 PUSH1 0x2B DUP4 PUSH2 0xB92 JUMP JUMPDEST SWAP2 POP PUSH2 0x1140 DUP3 PUSH2 0x10DB JUMP JUMPDEST PUSH1 0x40 DUP3 ADD SWAP1 POP SWAP2 SWAP1 POP JUMP JUMPDEST PUSH0 PUSH1 0x20 DUP3 ADD SWAP1 POP DUP2 DUP2 SUB PUSH0 DUP4 ADD MSTORE PUSH2 0x1162 DUP2 PUSH2 0x1129 JUMP JUMPDEST SWAP1 POP SWAP2 SWAP1 POP JUMP JUMPDEST PUSH32 0x446563696D616C732073686F756C642062652067726561746572207468616E20 PUSH0 DUP3 ADD MSTORE PUSH32 0x3000000000000000000000000000000000000000000000000000000000000000 PUSH1 0x20 DUP3 ADD MSTORE POP JUMP JUMPDEST PUSH0 PUSH2 0x11C3 PUSH1 0x21 DUP4 PUSH2 0xB92 JUMP JUMPDEST SWAP2 POP PUSH2 0x11CE DUP3 PUSH2 0x1169 JUMP JUMPDEST PUSH1 0x40 DUP3 ADD SWAP1 POP SWAP2 SWAP1 POP JUMP JUMPDEST PUSH0 PUSH1 0x20 DUP3 ADD SWAP1 POP DUP2 DUP2 SUB PUSH0 DUP4 ADD MSTORE PUSH2 0x11F0 DUP2 PUSH2 0x11B7 JUMP JUMPDEST SWAP1 POP SWAP2 SWAP1 POP JUMP JUMPDEST PUSH32 0x546F6B656E2076616C7565732073686F756C6420626520677265617465722074 PUSH0 DUP3 ADD MSTORE PUSH32 0x68616E2030000000000000000000000000000000000000000000000000000000 PUSH1 0x20 DUP3 ADD MSTORE POP JUMP JUMPDEST PUSH0 PUSH2 0x1251 PUSH1 0x25 DUP4 PUSH2 0xB92 JUMP JUMPDEST SWAP2 POP PUSH2 0x125C DUP3 PUSH2 0x11F7 JUMP JUMPDEST PUSH1 0x40 DUP3 ADD SWAP1 POP SWAP2 SWAP1 POP JUMP JUMPDEST PUSH0 PUSH1 0x20 DUP3 ADD SWAP1 POP DUP2 DUP2 SUB PUSH0 DUP4 ADD MSTORE PUSH2 0x127E DUP2 PUSH2 0x1245 JUMP JUMPDEST SWAP1 POP SWAP2 SWAP1 POP JUMP JUMPDEST PUSH32 0x4E487B7100000000000000000000000000000000000000000000000000000000 PUSH0 MSTORE PUSH1 0x11 PUSH1 0x4 MSTORE PUSH1 0x24 PUSH0 REVERT JUMPDEST PUSH0 PUSH2 0x12BC DUP3 PUSH2 0xB70 JUMP JUMPDEST SWAP2 POP PUSH2 0x12C7 DUP4 PUSH2 0xB70 JUMP JUMPDEST SWAP3 POP DUP3 DUP3 SUB SWAP1 POP DUP2 DUP2 GT ISZERO PUSH2 0x12DF JUMPI PUSH2 0x12DE PUSH2 0x1285 JUMP JUMPDEST JUMPDEST SWAP3 SWAP2 POP POP JUMP JUMPDEST PUSH0 DUP2 PUSH1 0x1 SHR SWAP1 POP SWAP2 SWAP1 POP JUMP JUMPDEST PUSH0 DUP1 DUP3 SWAP2 POP DUP4 SWAP1 POP JUMPDEST PUSH1 0x1 DUP6 GT ISZERO PUSH2 0x133A JUMPI DUP1 DUP7 DIV DUP2 GT ISZERO PUSH2 0x1316 JUMPI PUSH2 0x1315 PUSH2 0x1285 JUMP JUMPDEST JUMPDEST PUSH1 0x1 DUP6 AND ISZERO PUSH2 0x1325 JUMPI DUP1 DUP3 MUL SWAP2 POP JUMPDEST DUP1 DUP2 MUL SWAP1 POP PUSH2 0x1333 DUP6 PUSH2 0x12E5 JUMP JUMPDEST SWAP5 POP PUSH2 0x12FA JUMP JUMPDEST SWAP5 POP SWAP5 SWAP3 POP POP POP JUMP JUMPDEST PUSH0 DUP3 PUSH2 0x1352 JUMPI PUSH1 0x1 SWAP1 POP PUSH2 0x140D JUMP JUMPDEST DUP2 PUSH2 0x135F JUMPI PUSH0 SWAP1 POP PUSH2 0x140D JUMP JUMPDEST DUP2 PUSH1 0x1 DUP2 EQ PUSH2 0x1375 JUMPI PUSH1 0x2 DUP2 EQ PUSH2 0x137F JUMPI PUSH2 0x13AE JUMP JUMPDEST PUSH1 0x1 SWAP2 POP POP PUSH2 0x140D JUMP JUMPDEST PUSH1 0xFF DUP5 GT ISZERO PUSH2 0x1391 JUMPI PUSH2 0x1390 PUSH2 0x1285 JUMP JUMPDEST JUMPDEST DUP4 PUSH1 0x2 EXP SWAP2 POP DUP5 DUP3 GT ISZERO PUSH2 0x13A8 JUMPI PUSH2 0x13A7 PUSH2 0x1285 JUMP JUMPDEST JUMPDEST POP PUSH2 0x140D JUMP JUMPDEST POP PUSH1 0x20 DUP4 LT PUSH2 0x133 DUP4 LT AND PUSH1 0x4E DUP5 LT PUSH1 0xB DUP5 LT AND OR ISZERO PUSH2 0x13E3 JUMPI DUP3 DUP3 EXP SWAP1 POP DUP4 DUP2 GT ISZERO PUSH2 0x13DE JUMPI PUSH2 0x13DD PUSH2 0x1285 JUMP JUMPDEST JUMPDEST PUSH2 0x140D JUMP JUMPDEST PUSH2 0x13F0 DUP5 DUP5 DUP5 PUSH1 0x1 PUSH2 0x12F1 JUMP JUMPDEST SWAP3 POP SWAP1 POP DUP2 DUP5 DIV DUP2 GT ISZERO PUSH2 0x1407 JUMPI PUSH2 0x1406 PUSH2 0x1285 JUMP JUMPDEST JUMPDEST DUP2 DUP2 MUL SWAP1 POP JUMPDEST SWAP4 SWAP3 POP POP POP JUMP JUMPDEST PUSH0 PUSH2 0x141E DUP3 PUSH2 0xB70 JUMP JUMPDEST SWAP2 POP PUSH2 0x1429 DUP4 PUSH2 0xB70 JUMP JUMPDEST SWAP3 POP PUSH2 0x1456 PUSH32 0xFFFFFFFFFFFFFFFFFFFFFFFFFFFFFFFFFFFFFFFFFFFFFFFFFFFFFFFFFFFFFFFF DUP5 DUP5 PUSH2 0x1343 JUMP JUMPDEST SWAP1 POP SWAP3 SWAP2 POP POP JUMP JUMPDEST PUSH0 PUSH2 0x1468 DUP3 PUSH2 0xB70 JUMP JUMPDEST SWAP2 POP PUSH2 0x1473 DUP4 PUSH2 0xB70 JUMP JUMPDEST SWAP3 POP DUP3 DUP3 MUL PUSH2 0x1481 DUP2 PUSH2 0xB70 JUMP JUMPDEST SWAP2 POP DUP3 DUP3 DIV DUP5 EQ DUP4 ISZERO OR PUSH2 0x1498 JUMPI PUSH2 0x1497 PUSH2 0x1285 JUMP JUMPDEST JUMPDEST POP SWAP3 SWAP2 POP POP JUMP JUMPDEST PUSH32 0x4E487B7100000000000000000000000000000000000000000000000000000000 PUSH0 MSTORE PUSH1 0x12 PUSH1 0x4 MSTORE PUSH1 0x24 PUSH0 REVERT JUMPDEST PUSH0 PUSH2 0x14D6 DUP3 PUSH2 0xB70 JUMP JUMPDEST SWAP2 POP PUSH2 0x14E1 DUP4 PUSH2 0xB70 JUMP JUMPDEST SWAP3 POP DUP3 PUSH2 0x14F1 JUMPI PUSH2 0x14F0 PUSH2 0x149F JUMP JUMPDEST JUMPDEST DUP3 DUP3 DIV SWAP1 POP SWAP3 SWAP2 POP POP JUMP JUMPDEST PUSH0 DUP2 SWAP1 POP SWAP3 SWAP2 POP POP JUMP JUMPDEST PUSH0 PUSH2 0x1510 DUP3 PUSH2 0xB88 JUMP JUMPDEST PUSH2 0x151A DUP2 DUP6 PUSH2 0x14FC JUMP JUMPDEST SWAP4 POP PUSH2 0x152A DUP2 DUP6 PUSH1 0x20 DUP7 ADD PUSH2 0xBA2 JUMP JUMPDEST DUP1 DUP5 ADD SWAP2 POP POP SWAP3 SWAP2 POP POP JUMP JUMPDEST PUSH32 0x2F00000000000000000000000000000000000000000000000000000000000000 DUP2 MSTORE POP JUMP JUMPDEST PUSH0 PUSH2 0x1567 DUP3 DUP6 PUSH2 0x1506 JUMP JUMPDEST SWAP2 POP PUSH2 0x1572 DUP3 PUSH2 0x1536 JUMP JUMPDEST PUSH1 0x1 DUP3 ADD SWAP2 POP PUSH2 0x1582 DUP3 DUP5 PUSH2 0x1506 JUMP JUMPDEST SWAP2 POP DUP2 SWAP1 POP SWAP4 SWAP3 POP POP POP JUMP INVALID LOG2 PUSH5 0x6970667358 0x22 SLT KECCAK256 0xA5 ISZERO PUSH1 0xB9 0xB3 0xA5 SMOD 0xAC CREATE2 0xA6 0xE2 EXTCODEHASH 0x28 EXTCODEHASH BASEFEE PUSH31 0x406361F00CCA0B304213943D7914151E64736F6C634300081A003300000000 "
				},
				"gasEstimates": {
					"creation": {
						"codeDepositCost": "1114400",
						"executionCost": "infinite",
						"totalCost": "infinite"
					},
					"external": {
						"activate()": "infinite",
						"addNewPoolFeed(address)": "infinite",
						"admin()": "infinite",
						"deactivate()": "infinite",
						"poolRate()": "infinite"
					},
					"internal": {
						"calculatePoolRate(uint256,uint256,string memory,uint256,uint256,string memory,uint32)": "infinite"
					}
				},
				"methodIdentifiers": {
					"activate()": "0f15f4c0",
					"addNewPoolFeed(address)": "24f16f20",
					"admin()": "f851a440",
					"deactivate()": "51b42b00",
					"poolRate()": "85096edc"
				}
			},
			"storageLayout": {
				"storage": [
					{
						"astId": 35,
						"contract": "token_eco_system_dev_contracts/contracts_ready_for_prod/PoolRateFeed.sol:RateFromPool",
						"label": "poolConsumer",
						"offset": 0,
						"slot": "0",
						"type": "t_contract(PoolInterface)21"
					},
					{
						"astId": 38,
						"contract": "token_eco_system_dev_contracts/contracts_ready_for_prod/PoolRateFeed.sol:RateFromPool",
						"label": "decimalsConsumerOne",
						"offset": 0,
						"slot": "1",
						"type": "t_contract(DecimalsInterface)32"
					},
					{
						"astId": 41,
						"contract": "token_eco_system_dev_contracts/contracts_ready_for_prod/PoolRateFeed.sol:RateFromPool",
						"label": "decimalsConsumerTwo",
						"offset": 0,
						"slot": "2",
						"type": "t_contract(DecimalsInterface)32"
					},
					{
						"astId": 46,
						"contract": "token_eco_system_dev_contracts/contracts_ready_for_prod/PoolRateFeed.sol:RateFromPool",
						"label": "active",
						"offset": 20,
						"slot": "2",
						"type": "t_bool"
					}
				],
				"types": {
					"t_bool": {
						"encoding": "inplace",
						"label": "bool",
						"numberOfBytes": "1"
					},
					"t_contract(DecimalsInterface)32": {
						"encoding": "inplace",
						"label": "contract DecimalsInterface",
						"numberOfBytes": "20"
					},
					"t_contract(PoolInterface)21": {
						"encoding": "inplace",
						"label": "contract PoolInterface",
						"numberOfBytes": "20"
					}
				}
			},
			"userdoc": {
				"kind": "user",
				"methods": {},
				"version": 1
			}
		}
	}
}