{
	"token_eco_system_dev_contracts/contracts_ready_for_prod/Copy_TokenEcoSystemParticipationV1_3_draft.sol": {
		"TokenEcoSystemParticipation": {
			"abi": [
				{
					"inputs": [
						{
							"internalType": "address",
							"name": "_acceptedTokens",
							"type": "address"
						},
						{
							"internalType": "address",
							"name": "_activator",
							"type": "address"
						}
					],
					"stateMutability": "nonpayable",
					"type": "constructor"
				},
				{
					"anonymous": false,
					"inputs": [
						{
							"indexed": true,
							"internalType": "address",
							"name": "activator",
							"type": "address"
						},
						{
							"indexed": false,
							"internalType": "uint256",
							"name": "timestamp",
							"type": "uint256"
						}
					],
					"name": "Activate",
					"type": "event"
				},
				{
					"anonymous": false,
					"inputs": [
						{
							"indexed": false,
							"internalType": "uint256",
							"name": "chargeRate",
							"type": "uint256"
						},
						{
							"indexed": false,
							"internalType": "uint256",
							"name": "chargeRatedecimals",
							"type": "uint256"
						},
						{
							"indexed": false,
							"internalType": "uint256",
							"name": "chargeRateDate",
							"type": "uint256"
						},
						{
							"indexed": false,
							"internalType": "string",
							"name": "chargeRateString",
							"type": "string"
						},
						{
							"indexed": true,
							"internalType": "uint256",
							"name": "chargedPoints",
							"type": "uint256"
						},
						{
							"indexed": true,
							"internalType": "uint256",
							"name": "burnedTokens",
							"type": "uint256"
						},
						{
							"indexed": true,
							"internalType": "uint256",
							"name": "chargeDate",
							"type": "uint256"
						}
					],
					"name": "ChargeContract",
					"type": "event"
				},
				{
					"anonymous": false,
					"inputs": [
						{
							"indexed": true,
							"internalType": "address",
							"name": "deactivator",
							"type": "address"
						},
						{
							"indexed": false,
							"internalType": "uint256",
							"name": "timestamp",
							"type": "uint256"
						}
					],
					"name": "Deactivate",
					"type": "event"
				},
				{
					"anonymous": false,
					"inputs": [
						{
							"indexed": false,
							"internalType": "uint256",
							"name": "rate",
							"type": "uint256"
						},
						{
							"indexed": false,
							"internalType": "uint256",
							"name": "decimals",
							"type": "uint256"
						},
						{
							"indexed": false,
							"internalType": "string",
							"name": "rateString",
							"type": "string"
						},
						{
							"indexed": false,
							"internalType": "uint256",
							"name": "date",
							"type": "uint256"
						},
						{
							"indexed": false,
							"internalType": "string",
							"name": "feed",
							"type": "string"
						}
					],
					"name": "GetRate",
					"type": "event"
				},
				{
					"anonymous": false,
					"inputs": [
						{
							"indexed": false,
							"internalType": "uint256",
							"name": "newValue",
							"type": "uint256"
						}
					],
					"name": "ModulatorChanged",
					"type": "event"
				},
				{
					"anonymous": false,
					"inputs": [
						{
							"indexed": true,
							"internalType": "address",
							"name": "newAcceptedSender",
							"type": "address"
						}
					],
					"name": "NewAcceptedSender",
					"type": "event"
				},
				{
					"anonymous": false,
					"inputs": [
						{
							"indexed": true,
							"internalType": "address",
							"name": "previousOwner",
							"type": "address"
						},
						{
							"indexed": true,
							"internalType": "address",
							"name": "newOwner",
							"type": "address"
						}
					],
					"name": "OwnershipTransferred",
					"type": "event"
				},
				{
					"anonymous": false,
					"inputs": [
						{
							"indexed": false,
							"internalType": "address",
							"name": "account",
							"type": "address"
						}
					],
					"name": "Paused",
					"type": "event"
				},
				{
					"anonymous": false,
					"inputs": [
						{
							"indexed": true,
							"internalType": "uint256",
							"name": "timestamp",
							"type": "uint256"
						},
						{
							"indexed": false,
							"internalType": "uint256",
							"name": "value",
							"type": "uint256"
						}
					],
					"name": "TotalDailyWithdraws",
					"type": "event"
				},
				{
					"anonymous": false,
					"inputs": [
						{
							"indexed": false,
							"internalType": "address",
							"name": "account",
							"type": "address"
						}
					],
					"name": "Unpaused",
					"type": "event"
				},
				{
					"anonymous": false,
					"inputs": [
						{
							"indexed": true,
							"internalType": "uint256",
							"name": "timestamp",
							"type": "uint256"
						},
						{
							"indexed": true,
							"internalType": "address",
							"name": "participant",
							"type": "address"
						},
						{
							"indexed": false,
							"internalType": "uint256",
							"name": "value",
							"type": "uint256"
						},
						{
							"indexed": false,
							"internalType": "bytes32",
							"name": "txHash",
							"type": "bytes32"
						}
					],
					"name": "Withdraw",
					"type": "event"
				},
				{
					"inputs": [],
					"name": "activate",
					"outputs": [],
					"stateMutability": "nonpayable",
					"type": "function"
				},
				{
					"inputs": [
						{
							"internalType": "address",
							"name": "consumerInterfaceAddress",
							"type": "address"
						}
					],
					"name": "addNewAggregatorPriceFeed",
					"outputs": [],
					"stateMutability": "nonpayable",
					"type": "function"
				},
				{
					"inputs": [
						{
							"internalType": "address",
							"name": "consumerInterfaceAddress",
							"type": "address"
						}
					],
					"name": "addNewPoolRateFeed",
					"outputs": [],
					"stateMutability": "nonpayable",
					"type": "function"
				},
				{
					"inputs": [],
					"name": "balanceOf",
					"outputs": [
						{
							"internalType": "uint256",
							"name": "",
							"type": "uint256"
						}
					],
					"stateMutability": "view",
					"type": "function"
				},
				{
					"inputs": [
						{
							"internalType": "address",
							"name": "tokenAddress",
							"type": "address"
						}
					],
					"name": "balanceOfToken",
					"outputs": [
						{
							"internalType": "uint256",
							"name": "",
							"type": "uint256"
						}
					],
					"stateMutability": "view",
					"type": "function"
				},
				{
					"inputs": [
						{
							"internalType": "uint256",
							"name": "points",
							"type": "uint256"
						},
						{
							"internalType": "uint256",
							"name": "rate",
							"type": "uint256"
						},
						{
							"internalType": "uint256",
							"name": "decimals",
							"type": "uint256"
						}
					],
					"name": "calculateAmount",
					"outputs": [
						{
							"internalType": "uint256",
							"name": "",
							"type": "uint256"
						}
					],
					"stateMutability": "view",
					"type": "function"
				},
				{
					"inputs": [
						{
							"internalType": "address",
							"name": "newAcceptedSender",
							"type": "address"
						}
					],
					"name": "changeAcceptedSenderAddress",
					"outputs": [],
					"stateMutability": "nonpayable",
					"type": "function"
				},
				{
					"inputs": [],
					"name": "changeRateFeed",
					"outputs": [],
					"stateMutability": "nonpayable",
					"type": "function"
				},
				{
					"inputs": [
						{
							"internalType": "uint256",
							"name": "amount",
							"type": "uint256"
						}
					],
					"name": "chargeContract",
					"outputs": [
						{
							"internalType": "bool",
							"name": "",
							"type": "bool"
						}
					],
					"stateMutability": "nonpayable",
					"type": "function"
				},
				{
					"inputs": [],
					"name": "checkAllowance",
					"outputs": [
						{
							"internalType": "uint256",
							"name": "",
							"type": "uint256"
						}
					],
					"stateMutability": "view",
					"type": "function"
				},
				{
					"inputs": [],
					"name": "currentRateFeed",
					"outputs": [
						{
							"internalType": "string",
							"name": "",
							"type": "string"
						},
						{
							"internalType": "address",
							"name": "",
							"type": "address"
						}
					],
					"stateMutability": "view",
					"type": "function"
				},
				{
					"inputs": [],
					"name": "deactivate",
					"outputs": [],
					"stateMutability": "nonpayable",
					"type": "function"
				},
				{
					"inputs": [],
					"name": "getActivatorAndAcceptedSenderAddress",
					"outputs": [
						{
							"internalType": "address",
							"name": "",
							"type": "address"
						},
						{
							"internalType": "address",
							"name": "",
							"type": "address"
						}
					],
					"stateMutability": "view",
					"type": "function"
				},
				{
					"inputs": [],
					"name": "getPointsBalance",
					"outputs": [
						{
							"internalType": "uint256",
							"name": "",
							"type": "uint256"
						}
					],
					"stateMutability": "view",
					"type": "function"
				},
				{
					"inputs": [],
					"name": "getTokenInfo",
					"outputs": [
						{
							"internalType": "address",
							"name": "",
							"type": "address"
						},
						{
							"internalType": "string",
							"name": "",
							"type": "string"
						}
					],
					"stateMutability": "view",
					"type": "function"
				},
				{
					"inputs": [],
					"name": "getTotalBurnedTokens",
					"outputs": [
						{
							"internalType": "uint256",
							"name": "",
							"type": "uint256"
						}
					],
					"stateMutability": "view",
					"type": "function"
				},
				{
					"inputs": [],
					"name": "getTotalPointsGenerated",
					"outputs": [
						{
							"internalType": "uint256",
							"name": "",
							"type": "uint256"
						}
					],
					"stateMutability": "view",
					"type": "function"
				},
				{
					"inputs": [],
					"name": "owner",
					"outputs": [
						{
							"internalType": "address",
							"name": "",
							"type": "address"
						}
					],
					"stateMutability": "view",
					"type": "function"
				},
				{
					"inputs": [],
					"name": "paused",
					"outputs": [
						{
							"internalType": "bool",
							"name": "",
							"type": "bool"
						}
					],
					"stateMutability": "view",
					"type": "function"
				},
				{
					"inputs": [],
					"name": "renounceOwnership",
					"outputs": [],
					"stateMutability": "nonpayable",
					"type": "function"
				},
				{
					"inputs": [],
					"name": "resume",
					"outputs": [],
					"stateMutability": "nonpayable",
					"type": "function"
				},
				{
					"inputs": [
						{
							"internalType": "uint256",
							"name": "value",
							"type": "uint256"
						}
					],
					"name": "setModulator",
					"outputs": [],
					"stateMutability": "nonpayable",
					"type": "function"
				},
				{
					"inputs": [],
					"name": "stop",
					"outputs": [],
					"stateMutability": "nonpayable",
					"type": "function"
				},
				{
					"inputs": [
						{
							"internalType": "address",
							"name": "tokenAddress",
							"type": "address"
						},
						{
							"internalType": "address",
							"name": "receiver",
							"type": "address"
						},
						{
							"internalType": "uint256",
							"name": "amount",
							"type": "uint256"
						}
					],
					"name": "transferOfToken",
					"outputs": [
						{
							"internalType": "bool",
							"name": "",
							"type": "bool"
						}
					],
					"stateMutability": "nonpayable",
					"type": "function"
				},
				{
					"inputs": [
						{
							"internalType": "address",
							"name": "newOwner",
							"type": "address"
						}
					],
					"name": "transferOwnership",
					"outputs": [],
					"stateMutability": "nonpayable",
					"type": "function"
				},
				{
					"inputs": [],
					"name": "viewModulator",
					"outputs": [
						{
							"internalType": "uint256",
							"name": "",
							"type": "uint256"
						}
					],
					"stateMutability": "view",
					"type": "function"
				},
				{
					"inputs": [
						{
							"internalType": "uint256",
							"name": "value",
							"type": "uint256"
						},
						{
							"internalType": "bytes32",
							"name": "txHash",
							"type": "bytes32"
						}
					],
					"name": "withdraw",
					"outputs": [],
					"stateMutability": "nonpayable",
					"type": "function"
				}
			],
			"devdoc": {
				"events": {
					"Paused(address)": {
						"details": "Emitted when the pause is triggered by `account`."
					},
					"Unpaused(address)": {
						"details": "Emitted when the pause is lifted by `account`."
					}
				},
				"kind": "dev",
				"methods": {
					"owner()": {
						"details": "Returns the address of the current owner."
					},
					"paused()": {
						"details": "Returns true if the contract is paused, and false otherwise."
					},
					"renounceOwnership()": {
						"details": "Leaves the contract without owner. It will not be possible to call `onlyOwner` functions anymore. Can only be called by the current owner. NOTE: Renouncing ownership will leave the contract without an owner, thereby removing any functionality that is only available to the owner."
					},
					"transferOwnership(address)": {
						"details": "Transfers ownership of the contract to a new account (`newOwner`). Can only be called by the current owner."
					}
				},
				"version": 1
			},
			"evm": {
				"assembly": "    /* \"token_eco_system_dev_contracts/contracts_ready_for_prod/Copy_TokenEcoSystemParticipationV1_3_draft.sol\":1656:13944  contract TokenEcoSystemParticipation is Pausable, Ownable {... */\n  mstore(0x40, 0xc0)\n    /* \"token_eco_system_dev_contracts/contracts_ready_for_prod/Copy_TokenEcoSystemParticipationV1_3_draft.sol\":1974:1978  true */\n  0x01\n    /* \"token_eco_system_dev_contracts/contracts_ready_for_prod/Copy_TokenEcoSystemParticipationV1_3_draft.sol\":1946:1978  bool private poolRateFeed = true */\n  dup1\n  exp(0x0100, 0x14)\n  dup2\n  sload\n  dup2\n  0xff\n  mul\n  not\n  and\n  swap1\n  dup4\n  iszero\n  iszero\n  mul\n  or\n  swap1\n  sstore\n  pop\n    /* \"token_eco_system_dev_contracts/contracts_ready_for_prod/Copy_TokenEcoSystemParticipationV1_3_draft.sol\":2014:2015  0 */\n  0x00\n    /* \"token_eco_system_dev_contracts/contracts_ready_for_prod/Copy_TokenEcoSystemParticipationV1_3_draft.sol\":1984:2015  uint256 private totalBurned = 0 */\n  0x02\n  sstore\n    /* \"token_eco_system_dev_contracts/contracts_ready_for_prod/Copy_TokenEcoSystemParticipationV1_3_draft.sol\":2054:2055  0 */\n  0x00\n    /* \"token_eco_system_dev_contracts/contracts_ready_for_prod/Copy_TokenEcoSystemParticipationV1_3_draft.sol\":2021:2055  uint256 private totalConverted = 0 */\n  0x03\n  sstore\n    /* \"token_eco_system_dev_contracts/contracts_ready_for_prod/Copy_TokenEcoSystemParticipationV1_3_draft.sol\":2093:2094  0 */\n  0x00\n    /* \"token_eco_system_dev_contracts/contracts_ready_for_prod/Copy_TokenEcoSystemParticipationV1_3_draft.sol\":2061:2094  uint256 private pointsBalance = 0 */\n  0x04\n  sstore\n    /* \"token_eco_system_dev_contracts/contracts_ready_for_prod/Copy_TokenEcoSystemParticipationV1_3_draft.sol\":2128:2129  2 */\n  0x02\n    /* \"token_eco_system_dev_contracts/contracts_ready_for_prod/Copy_TokenEcoSystemParticipationV1_3_draft.sol\":2100:2129  uint256 private modulator = 2 */\n  0x05\n  sstore\n    /* \"token_eco_system_dev_contracts/contracts_ready_for_prod/Copy_TokenEcoSystemParticipationV1_3_draft.sol\":3909:4105  constructor(address _acceptedTokens, address _activator) {... */\n  callvalue\n  dup1\n  iszero\n  tag_1\n  jumpi\n  0x00\n  dup1\n  revert\ntag_1:\n  pop\n  mload(0x40)\n  sub(codesize, bytecodeSize)\n  dup1\n  bytecodeSize\n  dup4\n  codecopy\n  dup2\n  dup2\n  add\n  0x40\n  mstore\n  dup2\n  add\n  swap1\n  tag_2\n  swap2\n  swap1\n  tag_3\n  jump\t// in\ntag_2:\n    /* \"@openzeppelin/contracts/security/Pausable.sol\":1006:1011  false */\n  0x00\n    /* \"@openzeppelin/contracts/security/Pausable.sol\":996:1003  _paused */\n  dup1\n  0x00\n    /* \"@openzeppelin/contracts/security/Pausable.sol\":996:1011  _paused = false */\n  0x0100\n  exp\n  dup2\n  sload\n  dup2\n  0xff\n  mul\n  not\n  and\n  swap1\n  dup4\n  iszero\n  iszero\n  mul\n  or\n  swap1\n  sstore\n  pop\n    /* \"@openzeppelin/contracts/access/Ownable.sol\":936:968  _transferOwnership(_msgSender()) */\n  tag_9\n    /* \"@openzeppelin/contracts/access/Ownable.sol\":955:967  _msgSender() */\n  tag_10\n    /* \"@openzeppelin/contracts/access/Ownable.sol\":955:965  _msgSender */\n  shl(0x20, tag_11)\n    /* \"@openzeppelin/contracts/access/Ownable.sol\":955:967  _msgSender() */\n  0x20\n  shr\n  jump\t// in\ntag_10:\n    /* \"@openzeppelin/contracts/access/Ownable.sol\":936:954  _transferOwnership */\n  shl(0x20, tag_12)\n    /* \"@openzeppelin/contracts/access/Ownable.sol\":936:968  _transferOwnership(_msgSender()) */\n  0x20\n  shr\n  jump\t// in\ntag_9:\n    /* \"token_eco_system_dev_contracts/contracts_ready_for_prod/Copy_TokenEcoSystemParticipationV1_3_draft.sol\":4006:4007  0 */\n  0x00\n    /* \"token_eco_system_dev_contracts/contracts_ready_for_prod/Copy_TokenEcoSystemParticipationV1_3_draft.sol\":3984:4008  _activator != address(0) */\n  0xffffffffffffffffffffffffffffffffffffffff\n  and\n    /* \"token_eco_system_dev_contracts/contracts_ready_for_prod/Copy_TokenEcoSystemParticipationV1_3_draft.sol\":3984:3994  _activator */\n  dup2\n    /* \"token_eco_system_dev_contracts/contracts_ready_for_prod/Copy_TokenEcoSystemParticipationV1_3_draft.sol\":3984:4008  _activator != address(0) */\n  0xffffffffffffffffffffffffffffffffffffffff\n  and\n  sub\n    /* \"token_eco_system_dev_contracts/contracts_ready_for_prod/Copy_TokenEcoSystemParticipationV1_3_draft.sol\":3976:4009  require(_activator != address(0)) */\n  tag_14\n  jumpi\n  0x00\n  dup1\n  revert\ntag_14:\n    /* \"token_eco_system_dev_contracts/contracts_ready_for_prod/Copy_TokenEcoSystemParticipationV1_3_draft.sol\":4031:4041  _activator */\n  dup1\n    /* \"token_eco_system_dev_contracts/contracts_ready_for_prod/Copy_TokenEcoSystemParticipationV1_3_draft.sol\":4019:4041  activator = _activator */\n  0xffffffffffffffffffffffffffffffffffffffff\n  and\n  0x80\n  dup2\n  0xffffffffffffffffffffffffffffffffffffffff\n  and\n  dup2\n  mstore\n  pop\n  pop\n    /* \"token_eco_system_dev_contracts/contracts_ready_for_prod/Copy_TokenEcoSystemParticipationV1_3_draft.sol\":4082:4097  _acceptedTokens */\n  dup2\n    /* \"token_eco_system_dev_contracts/contracts_ready_for_prod/Copy_TokenEcoSystemParticipationV1_3_draft.sol\":4051:4098  token = ERC20BurnableInterface(_acceptedTokens) */\n  0xffffffffffffffffffffffffffffffffffffffff\n  and\n  0xa0\n  dup2\n  0xffffffffffffffffffffffffffffffffffffffff\n  and\n  dup2\n  mstore\n  pop\n  pop\n    /* \"token_eco_system_dev_contracts/contracts_ready_for_prod/Copy_TokenEcoSystemParticipationV1_3_draft.sol\":3909:4105  constructor(address _acceptedTokens, address _activator) {... */\n  pop\n  pop\n    /* \"token_eco_system_dev_contracts/contracts_ready_for_prod/Copy_TokenEcoSystemParticipationV1_3_draft.sol\":1656:13944  contract TokenEcoSystemParticipation is Pausable, Ownable {... */\n  jump(tag_15)\n    /* \"@openzeppelin/contracts/utils/Context.sol\":640:736  function _msgSender() internal view virtual returns (address) {... */\ntag_11:\n    /* \"@openzeppelin/contracts/utils/Context.sol\":693:700  address */\n  0x00\n    /* \"@openzeppelin/contracts/utils/Context.sol\":719:729  msg.sender */\n  caller\n    /* \"@openzeppelin/contracts/utils/Context.sol\":712:729  return msg.sender */\n  swap1\n  pop\n    /* \"@openzeppelin/contracts/utils/Context.sol\":640:736  function _msgSender() internal view virtual returns (address) {... */\n  swap1\n  jump\t// out\n    /* \"@openzeppelin/contracts/access/Ownable.sol\":2433:2620  function _transferOwnership(address newOwner) internal virtual {... */\ntag_12:\n    /* \"@openzeppelin/contracts/access/Ownable.sol\":2506:2522  address oldOwner */\n  0x00\n    /* \"@openzeppelin/contracts/access/Ownable.sol\":2525:2531  _owner */\n  dup1\n  0x01\n  swap1\n  sload\n  swap1\n  0x0100\n  exp\n  swap1\n  div\n  0xffffffffffffffffffffffffffffffffffffffff\n  and\n    /* \"@openzeppelin/contracts/access/Ownable.sol\":2506:2531  address oldOwner = _owner */\n  swap1\n  pop\n    /* \"@openzeppelin/contracts/access/Ownable.sol\":2550:2558  newOwner */\n  dup2\n    /* \"@openzeppelin/contracts/access/Ownable.sol\":2541:2547  _owner */\n  0x00\n  0x01\n    /* \"@openzeppelin/contracts/access/Ownable.sol\":2541:2558  _owner = newOwner */\n  0x0100\n  exp\n  dup2\n  sload\n  dup2\n  0xffffffffffffffffffffffffffffffffffffffff\n  mul\n  not\n  and\n  swap1\n  dup4\n  0xffffffffffffffffffffffffffffffffffffffff\n  and\n  mul\n  or\n  swap1\n  sstore\n  pop\n    /* \"@openzeppelin/contracts/access/Ownable.sol\":2604:2612  newOwner */\n  dup2\n    /* \"@openzeppelin/contracts/access/Ownable.sol\":2573:2613  OwnershipTransferred(oldOwner, newOwner) */\n  0xffffffffffffffffffffffffffffffffffffffff\n  and\n    /* \"@openzeppelin/contracts/access/Ownable.sol\":2594:2602  oldOwner */\n  dup2\n    /* \"@openzeppelin/contracts/access/Ownable.sol\":2573:2613  OwnershipTransferred(oldOwner, newOwner) */\n  0xffffffffffffffffffffffffffffffffffffffff\n  and\n  0x8be0079c531659141344cd1fd0a4f28419497f9722a3daafe3b4186f6b6457e0\n  mload(0x40)\n  mload(0x40)\n  dup1\n  swap2\n  sub\n  swap1\n  log3\n    /* \"@openzeppelin/contracts/access/Ownable.sol\":2496:2620  {... */\n  pop\n    /* \"@openzeppelin/contracts/access/Ownable.sol\":2433:2620  function _transferOwnership(address newOwner) internal virtual {... */\n  pop\n  jump\t// out\n    /* \"#utility.yul\":88:205   */\ntag_19:\n    /* \"#utility.yul\":197:198   */\n  0x00\n    /* \"#utility.yul\":194:195   */\n  dup1\n    /* \"#utility.yul\":187:199   */\n  revert\n    /* \"#utility.yul\":334:460   */\ntag_21:\n    /* \"#utility.yul\":371:378   */\n  0x00\n    /* \"#utility.yul\":411:453   */\n  0xffffffffffffffffffffffffffffffffffffffff\n    /* \"#utility.yul\":404:409   */\n  dup3\n    /* \"#utility.yul\":400:454   */\n  and\n    /* \"#utility.yul\":389:454   */\n  swap1\n  pop\n    /* \"#utility.yul\":334:460   */\n  swap2\n  swap1\n  pop\n  jump\t// out\n    /* \"#utility.yul\":466:562   */\ntag_22:\n    /* \"#utility.yul\":503:510   */\n  0x00\n    /* \"#utility.yul\":532:556   */\n  tag_31\n    /* \"#utility.yul\":550:555   */\n  dup3\n    /* \"#utility.yul\":532:556   */\n  tag_21\n  jump\t// in\ntag_31:\n    /* \"#utility.yul\":521:556   */\n  swap1\n  pop\n    /* \"#utility.yul\":466:562   */\n  swap2\n  swap1\n  pop\n  jump\t// out\n    /* \"#utility.yul\":568:690   */\ntag_23:\n    /* \"#utility.yul\":641:665   */\n  tag_33\n    /* \"#utility.yul\":659:664   */\n  dup2\n    /* \"#utility.yul\":641:665   */\n  tag_22\n  jump\t// in\ntag_33:\n    /* \"#utility.yul\":634:639   */\n  dup2\n    /* \"#utility.yul\":631:666   */\n  eq\n    /* \"#utility.yul\":621:684   */\n  tag_34\n  jumpi\n    /* \"#utility.yul\":680:681   */\n  0x00\n    /* \"#utility.yul\":677:678   */\n  dup1\n    /* \"#utility.yul\":670:682   */\n  revert\n    /* \"#utility.yul\":621:684   */\ntag_34:\n    /* \"#utility.yul\":568:690   */\n  pop\n  jump\t// out\n    /* \"#utility.yul\":696:839   */\ntag_24:\n    /* \"#utility.yul\":753:758   */\n  0x00\n    /* \"#utility.yul\":784:790   */\n  dup2\n    /* \"#utility.yul\":778:791   */\n  mload\n    /* \"#utility.yul\":769:791   */\n  swap1\n  pop\n    /* \"#utility.yul\":800:833   */\n  tag_36\n    /* \"#utility.yul\":827:832   */\n  dup2\n    /* \"#utility.yul\":800:833   */\n  tag_23\n  jump\t// in\ntag_36:\n    /* \"#utility.yul\":696:839   */\n  swap3\n  swap2\n  pop\n  pop\n  jump\t// out\n    /* \"#utility.yul\":845:1352   */\ntag_3:\n    /* \"#utility.yul\":924:930   */\n  0x00\n    /* \"#utility.yul\":932:938   */\n  dup1\n    /* \"#utility.yul\":981:983   */\n  0x40\n    /* \"#utility.yul\":969:978   */\n  dup4\n    /* \"#utility.yul\":960:967   */\n  dup6\n    /* \"#utility.yul\":956:979   */\n  sub\n    /* \"#utility.yul\":952:984   */\n  slt\n    /* \"#utility.yul\":949:1068   */\n  iszero\n  tag_38\n  jumpi\n    /* \"#utility.yul\":987:1066   */\n  tag_39\n  tag_19\n  jump\t// in\ntag_39:\n    /* \"#utility.yul\":949:1068   */\ntag_38:\n    /* \"#utility.yul\":1107:1108   */\n  0x00\n    /* \"#utility.yul\":1132:1196   */\n  tag_40\n    /* \"#utility.yul\":1188:1195   */\n  dup6\n    /* \"#utility.yul\":1179:1185   */\n  dup3\n    /* \"#utility.yul\":1168:1177   */\n  dup7\n    /* \"#utility.yul\":1164:1186   */\n  add\n    /* \"#utility.yul\":1132:1196   */\n  tag_24\n  jump\t// in\ntag_40:\n    /* \"#utility.yul\":1122:1196   */\n  swap3\n  pop\n    /* \"#utility.yul\":1078:1206   */\n  pop\n    /* \"#utility.yul\":1245:1247   */\n  0x20\n    /* \"#utility.yul\":1271:1335   */\n  tag_41\n    /* \"#utility.yul\":1327:1334   */\n  dup6\n    /* \"#utility.yul\":1318:1324   */\n  dup3\n    /* \"#utility.yul\":1307:1316   */\n  dup7\n    /* \"#utility.yul\":1303:1325   */\n  add\n    /* \"#utility.yul\":1271:1335   */\n  tag_24\n  jump\t// in\ntag_41:\n    /* \"#utility.yul\":1261:1335   */\n  swap2\n  pop\n    /* \"#utility.yul\":1216:1345   */\n  pop\n    /* \"#utility.yul\":845:1352   */\n  swap3\n  pop\n  swap3\n  swap1\n  pop\n  jump\t// out\n    /* \"token_eco_system_dev_contracts/contracts_ready_for_prod/Copy_TokenEcoSystemParticipationV1_3_draft.sol\":1656:13944  contract TokenEcoSystemParticipation is Pausable, Ownable {... */\ntag_15:\n  mload(0x80)\n  mload(0xa0)\n  codecopy(0x00, dataOffset(sub_0), dataSize(sub_0))\n  0x00\n  assignImmutable(\"0x448072f8ce0e9d09a2030ee35ba0d03fccbd0c61c3623f421061fbafdf5a67a9\")\n  0x00\n  assignImmutable(\"0xd2f63731675c6a71dc2bd3699360fd070b4ef61c2e40215aaeeee79f9e81574f\")\n  return(0x00, dataSize(sub_0))\nstop\n\nsub_0: assembly {\n        /* \"token_eco_system_dev_contracts/contracts_ready_for_prod/Copy_TokenEcoSystemParticipationV1_3_draft.sol\":1656:13944  contract TokenEcoSystemParticipation is Pausable, Ownable {... */\n      mstore(0x40, 0x80)\n      callvalue\n      dup1\n      iszero\n      tag_1\n      jumpi\n      0x00\n      dup1\n      revert\n    tag_1:\n      pop\n      jumpi(tag_2, lt(calldatasize, 0x04))\n      shr(0xe0, calldataload(0x00))\n      dup1\n      0x8da5cb5b\n      gt\n      tag_30\n      jumpi\n      dup1\n      0xabb1dc44\n      gt\n      tag_31\n      jumpi\n      dup1\n      0xe6367ebe\n      gt\n      tag_32\n      jumpi\n      dup1\n      0xe6367ebe\n      eq\n      tag_26\n      jumpi\n      dup1\n      0xe8088766\n      eq\n      tag_27\n      jumpi\n      dup1\n      0xed969c84\n      eq\n      tag_28\n      jumpi\n      dup1\n      0xf2fde38b\n      eq\n      tag_29\n      jumpi\n      jump(tag_2)\n    tag_32:\n      dup1\n      0xabb1dc44\n      eq\n      tag_23\n      jumpi\n      dup1\n      0xb0b5e39e\n      eq\n      tag_24\n      jumpi\n      dup1\n      0xb99152d0\n      eq\n      tag_25\n      jumpi\n      jump(tag_2)\n    tag_31:\n      dup1\n      0x9405de64\n      gt\n      tag_33\n      jumpi\n      dup1\n      0x9405de64\n      eq\n      tag_19\n      jumpi\n      dup1\n      0x96eebff0\n      eq\n      tag_20\n      jumpi\n      dup1\n      0xa684ab5c\n      eq\n      tag_21\n      jumpi\n      dup1\n      0xa8d2021a\n      eq\n      tag_22\n      jumpi\n      jump(tag_2)\n    tag_33:\n      dup1\n      0x8da5cb5b\n      eq\n      tag_16\n      jumpi\n      dup1\n      0x8dd25b07\n      eq\n      tag_17\n      jumpi\n      dup1\n      0x8eb89a61\n      eq\n      tag_18\n      jumpi\n      jump(tag_2)\n    tag_30:\n      dup1\n      0x2af0e251\n      gt\n      tag_34\n      jumpi\n      dup1\n      0x6a9d43dd\n      gt\n      tag_35\n      jumpi\n      dup1\n      0x6a9d43dd\n      eq\n      tag_12\n      jumpi\n      dup1\n      0x715018a6\n      eq\n      tag_13\n      jumpi\n      dup1\n      0x722713f7\n      eq\n      tag_14\n      jumpi\n      dup1\n      0x7754723e\n      eq\n      tag_15\n      jumpi\n      jump(tag_2)\n    tag_35:\n      dup1\n      0x2af0e251\n      eq\n      tag_9\n      jumpi\n      dup1\n      0x51b42b00\n      eq\n      tag_10\n      jumpi\n      dup1\n      0x5c975abb\n      eq\n      tag_11\n      jumpi\n      jump(tag_2)\n    tag_34:\n      dup1\n      0x046f7da2\n      eq\n      tag_3\n      jumpi\n      dup1\n      0x07da68f5\n      eq\n      tag_4\n      jumpi\n      dup1\n      0x0a6cb062\n      eq\n      tag_5\n      jumpi\n      dup1\n      0x0ba2f1d8\n      eq\n      tag_6\n      jumpi\n      dup1\n      0x0f0ccf61\n      eq\n      tag_7\n      jumpi\n      dup1\n      0x0f15f4c0\n      eq\n      tag_8\n      jumpi\n    tag_2:\n      0x00\n      dup1\n      revert\n        /* \"token_eco_system_dev_contracts/contracts_ready_for_prod/Copy_TokenEcoSystemParticipationV1_3_draft.sol\":5121:5194  function resume() public whenPaused onlyOwner {... */\n    tag_3:\n      tag_36\n      tag_37\n      jump\t// in\n    tag_36:\n      stop\n        /* \"token_eco_system_dev_contracts/contracts_ready_for_prod/Copy_TokenEcoSystemParticipationV1_3_draft.sol\":5043:5115  function stop() public whenNotPaused onlyOwner {... */\n    tag_4:\n      tag_38\n      tag_39\n      jump\t// in\n    tag_38:\n      stop\n        /* \"token_eco_system_dev_contracts/contracts_ready_for_prod/Copy_TokenEcoSystemParticipationV1_3_draft.sol\":5699:5967  function addNewAggregatorPriceFeed(address consumerInterfaceAddress)... */\n    tag_5:\n      tag_40\n      0x04\n      dup1\n      calldatasize\n      sub\n      dup2\n      add\n      swap1\n      tag_41\n      swap2\n      swap1\n      tag_42\n      jump\t// in\n    tag_41:\n      tag_43\n      jump\t// in\n    tag_40:\n      stop\n        /* \"token_eco_system_dev_contracts/contracts_ready_for_prod/Copy_TokenEcoSystemParticipationV1_3_draft.sol\":4766:5037  function changeAcceptedSenderAddress(address newAcceptedSender)... */\n    tag_6:\n      tag_44\n      0x04\n      dup1\n      calldatasize\n      sub\n      dup2\n      add\n      swap1\n      tag_45\n      swap2\n      swap1\n      tag_42\n      jump\t// in\n    tag_45:\n      tag_46\n      jump\t// in\n    tag_44:\n      stop\n        /* \"token_eco_system_dev_contracts/contracts_ready_for_prod/Copy_TokenEcoSystemParticipationV1_3_draft.sol\":11695:11870  function getActivatorAndAcceptedSenderAddress()... */\n    tag_7:\n      tag_47\n      tag_48\n      jump\t// in\n    tag_47:\n      mload(0x40)\n      tag_49\n      swap3\n      swap2\n      swap1\n      tag_50\n      jump\t// in\n    tag_49:\n      mload(0x40)\n      dup1\n      swap2\n      sub\n      swap1\n      return\n        /* \"token_eco_system_dev_contracts/contracts_ready_for_prod/Copy_TokenEcoSystemParticipationV1_3_draft.sol\":4181:4481  function activate() public whenNotPaused {... */\n    tag_8:\n      tag_51\n      tag_52\n      jump\t// in\n    tag_51:\n      stop\n        /* \"token_eco_system_dev_contracts/contracts_ready_for_prod/Copy_TokenEcoSystemParticipationV1_3_draft.sol\":10965:11118  function getTotalBurnedTokens()... */\n    tag_9:\n      tag_53\n      tag_54\n      jump\t// in\n    tag_53:\n      mload(0x40)\n      tag_55\n      swap2\n      swap1\n      tag_56\n      jump\t// in\n    tag_55:\n      mload(0x40)\n      dup1\n      swap2\n      sub\n      swap1\n      return\n        /* \"token_eco_system_dev_contracts/contracts_ready_for_prod/Copy_TokenEcoSystemParticipationV1_3_draft.sol\":4535:4708  function deactivate() public activated onlyAuthorized whenNotPaused {... */\n    tag_10:\n      tag_57\n      tag_58\n      jump\t// in\n    tag_57:\n      stop\n        /* \"@openzeppelin/contracts/security/Pausable.sol\":1615:1699  function paused() public view virtual returns (bool) {... */\n    tag_11:\n      tag_59\n      tag_60\n      jump\t// in\n    tag_59:\n      mload(0x40)\n      tag_61\n      swap2\n      swap1\n      tag_62\n      jump\t// in\n    tag_61:\n      mload(0x40)\n      dup1\n      swap2\n      sub\n      swap1\n      return\n        /* \"token_eco_system_dev_contracts/contracts_ready_for_prod/Copy_TokenEcoSystemParticipationV1_3_draft.sol\":9649:9943  function transferOfToken(... */\n    tag_12:\n      tag_63\n      0x04\n      dup1\n      calldatasize\n      sub\n      dup2\n      add\n      swap1\n      tag_64\n      swap2\n      swap1\n      tag_65\n      jump\t// in\n    tag_64:\n      tag_66\n      jump\t// in\n    tag_63:\n      mload(0x40)\n      tag_67\n      swap2\n      swap1\n      tag_62\n      jump\t// in\n    tag_67:\n      mload(0x40)\n      dup1\n      swap2\n      sub\n      swap1\n      return\n        /* \"@openzeppelin/contracts/access/Ownable.sol\":1831:1932  function renounceOwnership() public virtual onlyOwner {... */\n    tag_13:\n      tag_68\n      tag_69\n      jump\t// in\n    tag_68:\n      stop\n        /* \"token_eco_system_dev_contracts/contracts_ready_for_prod/Copy_TokenEcoSystemParticipationV1_3_draft.sol\":9134:9239  function balanceOf() public view returns (uint256) {... */\n    tag_14:\n      tag_70\n      tag_71\n      jump\t// in\n    tag_70:\n      mload(0x40)\n      tag_72\n      swap2\n      swap1\n      tag_56\n      jump\t// in\n    tag_72:\n      mload(0x40)\n      dup1\n      swap2\n      sub\n      swap1\n      return\n        /* \"token_eco_system_dev_contracts/contracts_ready_for_prod/Copy_TokenEcoSystemParticipationV1_3_draft.sol\":7250:7611  function calculateAmount(... */\n    tag_15:\n      tag_73\n      0x04\n      dup1\n      calldatasize\n      sub\n      dup2\n      add\n      swap1\n      tag_74\n      swap2\n      swap1\n      tag_75\n      jump\t// in\n    tag_74:\n      tag_76\n      jump\t// in\n    tag_73:\n      mload(0x40)\n      tag_77\n      swap2\n      swap1\n      tag_56\n      jump\t// in\n    tag_77:\n      mload(0x40)\n      dup1\n      swap2\n      sub\n      swap1\n      return\n        /* \"@openzeppelin/contracts/access/Ownable.sol\":1201:1286  function owner() public view virtual returns (address) {... */\n    tag_16:\n      tag_78\n      tag_79\n      jump\t// in\n    tag_78:\n      mload(0x40)\n      tag_80\n      swap2\n      swap1\n      tag_81\n      jump\t// in\n    tag_80:\n      mload(0x40)\n      dup1\n      swap2\n      sub\n      swap1\n      return\n        /* \"token_eco_system_dev_contracts/contracts_ready_for_prod/Copy_TokenEcoSystemParticipationV1_3_draft.sol\":5200:5550  function setModulator(uint256 value) public whenNotPaused onlyOwner {... */\n    tag_17:\n      tag_82\n      0x04\n      dup1\n      calldatasize\n      sub\n      dup2\n      add\n      swap1\n      tag_83\n      swap2\n      swap1\n      tag_84\n      jump\t// in\n    tag_83:\n      tag_85\n      jump\t// in\n    tag_82:\n      stop\n        /* \"token_eco_system_dev_contracts/contracts_ready_for_prod/Copy_TokenEcoSystemParticipationV1_3_draft.sol\":11418:11569  function getPointsBalance()... */\n    tag_18:\n      tag_86\n      tag_87\n      jump\t// in\n    tag_86:\n      mload(0x40)\n      tag_88\n      swap2\n      swap1\n      tag_56\n      jump\t// in\n    tag_88:\n      mload(0x40)\n      dup1\n      swap2\n      sub\n      swap1\n      return\n        /* \"token_eco_system_dev_contracts/contracts_ready_for_prod/Copy_TokenEcoSystemParticipationV1_3_draft.sol\":7617:7760  function checkAllowance() public onlyOwnerOrAuthorized view returns (uint256){... */\n    tag_19:\n      tag_89\n      tag_90\n      jump\t// in\n    tag_89:\n      mload(0x40)\n      tag_91\n      swap2\n      swap1\n      tag_56\n      jump\t// in\n    tag_91:\n      mload(0x40)\n      dup1\n      swap2\n      sub\n      swap1\n      return\n        /* \"token_eco_system_dev_contracts/contracts_ready_for_prod/Copy_TokenEcoSystemParticipationV1_3_draft.sol\":5556:5643  function viewModulator() public view returns (uint256){... */\n    tag_20:\n      tag_92\n      tag_93\n      jump\t// in\n    tag_92:\n      mload(0x40)\n      tag_94\n      swap2\n      swap1\n      tag_56\n      jump\t// in\n    tag_94:\n      mload(0x40)\n      dup1\n      swap2\n      sub\n      swap1\n      return\n        /* \"token_eco_system_dev_contracts/contracts_ready_for_prod/Copy_TokenEcoSystemParticipationV1_3_draft.sol\":11217:11376  function getTotalPointsGenerated()... */\n    tag_21:\n      tag_95\n      tag_96\n      jump\t// in\n    tag_95:\n      mload(0x40)\n      tag_97\n      swap2\n      swap1\n      tag_56\n      jump\t// in\n    tag_97:\n      mload(0x40)\n      dup1\n      swap2\n      sub\n      swap1\n      return\n        /* \"token_eco_system_dev_contracts/contracts_ready_for_prod/Copy_TokenEcoSystemParticipationV1_3_draft.sol\":10009:10403  function withdraw(uint256 value, bytes32 txHash) public onlyOwner activated {... */\n    tag_22:\n      tag_98\n      0x04\n      dup1\n      calldatasize\n      sub\n      dup2\n      add\n      swap1\n      tag_99\n      swap2\n      swap1\n      tag_100\n      jump\t// in\n    tag_99:\n      tag_101\n      jump\t// in\n    tag_98:\n      stop\n        /* \"token_eco_system_dev_contracts/contracts_ready_for_prod/Copy_TokenEcoSystemParticipationV1_3_draft.sol\":11935:12116  function getTokenInfo()... */\n    tag_23:\n      tag_102\n      tag_103\n      jump\t// in\n    tag_102:\n      mload(0x40)\n      tag_104\n      swap3\n      swap2\n      swap1\n      tag_105\n      jump\t// in\n    tag_104:\n      mload(0x40)\n      dup1\n      swap2\n      sub\n      swap1\n      return\n        /* \"token_eco_system_dev_contracts/contracts_ready_for_prod/Copy_TokenEcoSystemParticipationV1_3_draft.sol\":6044:6271  function addNewPoolRateFeed(address consumerInterfaceAddress)... */\n    tag_24:\n      tag_106\n      0x04\n      dup1\n      calldatasize\n      sub\n      dup2\n      add\n      swap1\n      tag_107\n      swap2\n      swap1\n      tag_42\n      jump\t// in\n    tag_107:\n      tag_108\n      jump\t// in\n    tag_106:\n      stop\n        /* \"token_eco_system_dev_contracts/contracts_ready_for_prod/Copy_TokenEcoSystemParticipationV1_3_draft.sol\":9367:9542  function balanceOfToken(address tokenAddress)... */\n    tag_25:\n      tag_109\n      0x04\n      dup1\n      calldatasize\n      sub\n      dup2\n      add\n      swap1\n      tag_110\n      swap2\n      swap1\n      tag_42\n      jump\t// in\n    tag_110:\n      tag_111\n      jump\t// in\n    tag_109:\n      mload(0x40)\n      tag_112\n      swap2\n      swap1\n      tag_56\n      jump\t// in\n    tag_112:\n      mload(0x40)\n      dup1\n      swap2\n      sub\n      swap1\n      return\n        /* \"token_eco_system_dev_contracts/contracts_ready_for_prod/Copy_TokenEcoSystemParticipationV1_3_draft.sol\":6865:7149  function currentRateFeed() public view returns (string memory, address) {... */\n    tag_26:\n      tag_113\n      tag_114\n      jump\t// in\n    tag_113:\n      mload(0x40)\n      tag_115\n      swap3\n      swap2\n      swap1\n      tag_116\n      jump\t// in\n    tag_115:\n      mload(0x40)\n      dup1\n      swap2\n      sub\n      swap1\n      return\n        /* \"token_eco_system_dev_contracts/contracts_ready_for_prod/Copy_TokenEcoSystemParticipationV1_3_draft.sol\":6346:6818  function changeRateFeed() public onlyOwner {... */\n    tag_27:\n      tag_117\n      tag_118\n      jump\t// in\n    tag_117:\n      stop\n        /* \"token_eco_system_dev_contracts/contracts_ready_for_prod/Copy_TokenEcoSystemParticipationV1_3_draft.sol\":7891:9013  function chargeContract(uint256 amount)... */\n    tag_28:\n      tag_119\n      0x04\n      dup1\n      calldatasize\n      sub\n      dup2\n      add\n      swap1\n      tag_120\n      swap2\n      swap1\n      tag_84\n      jump\t// in\n    tag_120:\n      tag_121\n      jump\t// in\n    tag_119:\n      mload(0x40)\n      tag_122\n      swap2\n      swap1\n      tag_62\n      jump\t// in\n    tag_122:\n      mload(0x40)\n      dup1\n      swap2\n      sub\n      swap1\n      return\n        /* \"@openzeppelin/contracts/access/Ownable.sol\":2081:2279  function transferOwnership(address newOwner) public virtual onlyOwner {... */\n    tag_29:\n      tag_123\n      0x04\n      dup1\n      calldatasize\n      sub\n      dup2\n      add\n      swap1\n      tag_124\n      swap2\n      swap1\n      tag_42\n      jump\t// in\n    tag_124:\n      tag_125\n      jump\t// in\n    tag_123:\n      stop\n        /* \"token_eco_system_dev_contracts/contracts_ready_for_prod/Copy_TokenEcoSystemParticipationV1_3_draft.sol\":5121:5194  function resume() public whenPaused onlyOwner {... */\n    tag_37:\n        /* \"@openzeppelin/contracts/security/Pausable.sol\":1486:1502  _requirePaused() */\n      tag_127\n        /* \"@openzeppelin/contracts/security/Pausable.sol\":1486:1500  _requirePaused */\n      tag_128\n        /* \"@openzeppelin/contracts/security/Pausable.sol\":1486:1502  _requirePaused() */\n      jump\t// in\n    tag_127:\n        /* \"@openzeppelin/contracts/access/Ownable.sol\":1094:1107  _checkOwner() */\n      tag_130\n        /* \"@openzeppelin/contracts/access/Ownable.sol\":1094:1105  _checkOwner */\n      tag_131\n        /* \"@openzeppelin/contracts/access/Ownable.sol\":1094:1107  _checkOwner() */\n      jump\t// in\n    tag_130:\n        /* \"token_eco_system_dev_contracts/contracts_ready_for_prod/Copy_TokenEcoSystemParticipationV1_3_draft.sol\":5177:5187  _unpause() */\n      tag_133\n        /* \"token_eco_system_dev_contracts/contracts_ready_for_prod/Copy_TokenEcoSystemParticipationV1_3_draft.sol\":5177:5185  _unpause */\n      tag_134\n        /* \"token_eco_system_dev_contracts/contracts_ready_for_prod/Copy_TokenEcoSystemParticipationV1_3_draft.sol\":5177:5187  _unpause() */\n      jump\t// in\n    tag_133:\n        /* \"token_eco_system_dev_contracts/contracts_ready_for_prod/Copy_TokenEcoSystemParticipationV1_3_draft.sol\":5121:5194  function resume() public whenPaused onlyOwner {... */\n      jump\t// out\n        /* \"token_eco_system_dev_contracts/contracts_ready_for_prod/Copy_TokenEcoSystemParticipationV1_3_draft.sol\":5043:5115  function stop() public whenNotPaused onlyOwner {... */\n    tag_39:\n        /* \"@openzeppelin/contracts/security/Pausable.sol\":1239:1258  _requireNotPaused() */\n      tag_136\n        /* \"@openzeppelin/contracts/security/Pausable.sol\":1239:1256  _requireNotPaused */\n      tag_137\n        /* \"@openzeppelin/contracts/security/Pausable.sol\":1239:1258  _requireNotPaused() */\n      jump\t// in\n    tag_136:\n        /* \"@openzeppelin/contracts/access/Ownable.sol\":1094:1107  _checkOwner() */\n      tag_139\n        /* \"@openzeppelin/contracts/access/Ownable.sol\":1094:1105  _checkOwner */\n      tag_131\n        /* \"@openzeppelin/contracts/access/Ownable.sol\":1094:1107  _checkOwner() */\n      jump\t// in\n    tag_139:\n        /* \"token_eco_system_dev_contracts/contracts_ready_for_prod/Copy_TokenEcoSystemParticipationV1_3_draft.sol\":5100:5108  _pause() */\n      tag_141\n        /* \"token_eco_system_dev_contracts/contracts_ready_for_prod/Copy_TokenEcoSystemParticipationV1_3_draft.sol\":5100:5106  _pause */\n      tag_142\n        /* \"token_eco_system_dev_contracts/contracts_ready_for_prod/Copy_TokenEcoSystemParticipationV1_3_draft.sol\":5100:5108  _pause() */\n      jump\t// in\n    tag_141:\n        /* \"token_eco_system_dev_contracts/contracts_ready_for_prod/Copy_TokenEcoSystemParticipationV1_3_draft.sol\":5043:5115  function stop() public whenNotPaused onlyOwner {... */\n      jump\t// out\n        /* \"token_eco_system_dev_contracts/contracts_ready_for_prod/Copy_TokenEcoSystemParticipationV1_3_draft.sol\":5699:5967  function addNewAggregatorPriceFeed(address consumerInterfaceAddress)... */\n    tag_43:\n        /* \"@openzeppelin/contracts/access/Ownable.sol\":1094:1107  _checkOwner() */\n      tag_144\n        /* \"@openzeppelin/contracts/access/Ownable.sol\":1094:1105  _checkOwner */\n      tag_131\n        /* \"@openzeppelin/contracts/access/Ownable.sol\":1094:1107  _checkOwner() */\n      jump\t// in\n    tag_144:\n        /* \"token_eco_system_dev_contracts/contracts_ready_for_prod/Copy_TokenEcoSystemParticipationV1_3_draft.sol\":5851:5852  0 */\n      0x00\n        /* \"token_eco_system_dev_contracts/contracts_ready_for_prod/Copy_TokenEcoSystemParticipationV1_3_draft.sol\":5815:5853  consumerInterfaceAddress != address(0) */\n      0xffffffffffffffffffffffffffffffffffffffff\n      and\n        /* \"token_eco_system_dev_contracts/contracts_ready_for_prod/Copy_TokenEcoSystemParticipationV1_3_draft.sol\":5815:5839  consumerInterfaceAddress */\n      dup2\n        /* \"token_eco_system_dev_contracts/contracts_ready_for_prod/Copy_TokenEcoSystemParticipationV1_3_draft.sol\":5815:5853  consumerInterfaceAddress != address(0) */\n      0xffffffffffffffffffffffffffffffffffffffff\n      and\n      sub\n        /* \"token_eco_system_dev_contracts/contracts_ready_for_prod/Copy_TokenEcoSystemParticipationV1_3_draft.sol\":5807:5854  require(consumerInterfaceAddress != address(0)) */\n      tag_146\n      jumpi\n      0x00\n      dup1\n      revert\n    tag_146:\n        /* \"token_eco_system_dev_contracts/contracts_ready_for_prod/Copy_TokenEcoSystemParticipationV1_3_draft.sol\":5926:5950  consumerInterfaceAddress */\n      dup1\n        /* \"token_eco_system_dev_contracts/contracts_ready_for_prod/Copy_TokenEcoSystemParticipationV1_3_draft.sol\":5864:5882  aggregatorConsumer */\n      0x06\n      0x00\n        /* \"token_eco_system_dev_contracts/contracts_ready_for_prod/Copy_TokenEcoSystemParticipationV1_3_draft.sol\":5864:5960  aggregatorConsumer = AggregatorConsumerInterface(... */\n      0x0100\n      exp\n      dup2\n      sload\n      dup2\n      0xffffffffffffffffffffffffffffffffffffffff\n      mul\n      not\n      and\n      swap1\n      dup4\n      0xffffffffffffffffffffffffffffffffffffffff\n      and\n      mul\n      or\n      swap1\n      sstore\n      pop\n        /* \"token_eco_system_dev_contracts/contracts_ready_for_prod/Copy_TokenEcoSystemParticipationV1_3_draft.sol\":5699:5967  function addNewAggregatorPriceFeed(address consumerInterfaceAddress)... */\n      pop\n      jump\t// out\n        /* \"token_eco_system_dev_contracts/contracts_ready_for_prod/Copy_TokenEcoSystemParticipationV1_3_draft.sol\":4766:5037  function changeAcceptedSenderAddress(address newAcceptedSender)... */\n    tag_46:\n        /* \"token_eco_system_dev_contracts/contracts_ready_for_prod/Copy_TokenEcoSystemParticipationV1_3_draft.sol\":3562:3563  0 */\n      0x00\n        /* \"token_eco_system_dev_contracts/contracts_ready_for_prod/Copy_TokenEcoSystemParticipationV1_3_draft.sol\":3529:3564  acceptedSenderAddress != address(0) */\n      0xffffffffffffffffffffffffffffffffffffffff\n      and\n        /* \"token_eco_system_dev_contracts/contracts_ready_for_prod/Copy_TokenEcoSystemParticipationV1_3_draft.sol\":3529:3550  acceptedSenderAddress */\n      0x01\n      0x00\n      swap1\n      sload\n      swap1\n      0x0100\n      exp\n      swap1\n      div\n      0xffffffffffffffffffffffffffffffffffffffff\n      and\n        /* \"token_eco_system_dev_contracts/contracts_ready_for_prod/Copy_TokenEcoSystemParticipationV1_3_draft.sol\":3529:3564  acceptedSenderAddress != address(0) */\n      0xffffffffffffffffffffffffffffffffffffffff\n      and\n      sub\n        /* \"token_eco_system_dev_contracts/contracts_ready_for_prod/Copy_TokenEcoSystemParticipationV1_3_draft.sol\":3521:3583  require(acceptedSenderAddress != address(0), \"Not activated!\") */\n      tag_148\n      jumpi\n      mload(0x40)\n      0x08c379a000000000000000000000000000000000000000000000000000000000\n      dup2\n      mstore\n      0x04\n      add\n      tag_149\n      swap1\n      tag_150\n      jump\t// in\n    tag_149:\n      mload(0x40)\n      dup1\n      swap2\n      sub\n      swap1\n      revert\n    tag_148:\n        /* \"token_eco_system_dev_contracts/contracts_ready_for_prod/Copy_TokenEcoSystemParticipationV1_3_draft.sol\":3425:3446  acceptedSenderAddress */\n      0x01\n      0x00\n      swap1\n      sload\n      swap1\n      0x0100\n      exp\n      swap1\n      div\n      0xffffffffffffffffffffffffffffffffffffffff\n      and\n        /* \"token_eco_system_dev_contracts/contracts_ready_for_prod/Copy_TokenEcoSystemParticipationV1_3_draft.sol\":3411:3446  msg.sender == acceptedSenderAddress */\n      0xffffffffffffffffffffffffffffffffffffffff\n      and\n        /* \"token_eco_system_dev_contracts/contracts_ready_for_prod/Copy_TokenEcoSystemParticipationV1_3_draft.sol\":3411:3421  msg.sender */\n      caller\n        /* \"token_eco_system_dev_contracts/contracts_ready_for_prod/Copy_TokenEcoSystemParticipationV1_3_draft.sol\":3411:3446  msg.sender == acceptedSenderAddress */\n      0xffffffffffffffffffffffffffffffffffffffff\n      and\n      eq\n        /* \"token_eco_system_dev_contracts/contracts_ready_for_prod/Copy_TokenEcoSystemParticipationV1_3_draft.sol\":3403:3466  require(msg.sender == acceptedSenderAddress, \"Not Authorized!\") */\n      tag_152\n      jumpi\n      mload(0x40)\n      0x08c379a000000000000000000000000000000000000000000000000000000000\n      dup2\n      mstore\n      0x04\n      add\n      tag_153\n      swap1\n      tag_154\n      jump\t// in\n    tag_153:\n      mload(0x40)\n      dup1\n      swap2\n      sub\n      swap1\n      revert\n    tag_152:\n        /* \"token_eco_system_dev_contracts/contracts_ready_for_prod/Copy_TokenEcoSystemParticipationV1_3_draft.sol\":4925:4926  0 */\n      0x00\n        /* \"token_eco_system_dev_contracts/contracts_ready_for_prod/Copy_TokenEcoSystemParticipationV1_3_draft.sol\":4896:4927  newAcceptedSender != address(0) */\n      0xffffffffffffffffffffffffffffffffffffffff\n      and\n        /* \"token_eco_system_dev_contracts/contracts_ready_for_prod/Copy_TokenEcoSystemParticipationV1_3_draft.sol\":4896:4913  newAcceptedSender */\n      dup2\n        /* \"token_eco_system_dev_contracts/contracts_ready_for_prod/Copy_TokenEcoSystemParticipationV1_3_draft.sol\":4896:4927  newAcceptedSender != address(0) */\n      0xffffffffffffffffffffffffffffffffffffffff\n      and\n      sub\n        /* \"token_eco_system_dev_contracts/contracts_ready_for_prod/Copy_TokenEcoSystemParticipationV1_3_draft.sol\":4888:4928  require(newAcceptedSender != address(0)) */\n      tag_156\n      jumpi\n      0x00\n      dup1\n      revert\n    tag_156:\n        /* \"token_eco_system_dev_contracts/contracts_ready_for_prod/Copy_TokenEcoSystemParticipationV1_3_draft.sol\":4962:4979  newAcceptedSender */\n      dup1\n        /* \"token_eco_system_dev_contracts/contracts_ready_for_prod/Copy_TokenEcoSystemParticipationV1_3_draft.sol\":4938:4959  acceptedSenderAddress */\n      0x01\n      0x00\n        /* \"token_eco_system_dev_contracts/contracts_ready_for_prod/Copy_TokenEcoSystemParticipationV1_3_draft.sol\":4938:4979  acceptedSenderAddress = newAcceptedSender */\n      0x0100\n      exp\n      dup2\n      sload\n      dup2\n      0xffffffffffffffffffffffffffffffffffffffff\n      mul\n      not\n      and\n      swap1\n      dup4\n      0xffffffffffffffffffffffffffffffffffffffff\n      and\n      mul\n      or\n      swap1\n      sstore\n      pop\n        /* \"token_eco_system_dev_contracts/contracts_ready_for_prod/Copy_TokenEcoSystemParticipationV1_3_draft.sol\":5012:5029  newAcceptedSender */\n      dup1\n        /* \"token_eco_system_dev_contracts/contracts_ready_for_prod/Copy_TokenEcoSystemParticipationV1_3_draft.sol\":4994:5030  NewAcceptedSender(newAcceptedSender) */\n      0xffffffffffffffffffffffffffffffffffffffff\n      and\n      0x8bbfeb6e784147166691d407a592a09379bbbd56888a96c54793bce54bb57523\n      mload(0x40)\n      mload(0x40)\n      dup1\n      swap2\n      sub\n      swap1\n      log2\n        /* \"token_eco_system_dev_contracts/contracts_ready_for_prod/Copy_TokenEcoSystemParticipationV1_3_draft.sol\":4766:5037  function changeAcceptedSenderAddress(address newAcceptedSender)... */\n      pop\n      jump\t// out\n        /* \"token_eco_system_dev_contracts/contracts_ready_for_prod/Copy_TokenEcoSystemParticipationV1_3_draft.sol\":11695:11870  function getActivatorAndAcceptedSenderAddress()... */\n    tag_48:\n        /* \"token_eco_system_dev_contracts/contracts_ready_for_prod/Copy_TokenEcoSystemParticipationV1_3_draft.sol\":11790:11797  address */\n      0x00\n        /* \"token_eco_system_dev_contracts/contracts_ready_for_prod/Copy_TokenEcoSystemParticipationV1_3_draft.sol\":11799:11806  address */\n      dup1\n        /* \"token_eco_system_dev_contracts/contracts_ready_for_prod/Copy_TokenEcoSystemParticipationV1_3_draft.sol\":3562:3563  0 */\n      0x00\n        /* \"token_eco_system_dev_contracts/contracts_ready_for_prod/Copy_TokenEcoSystemParticipationV1_3_draft.sol\":3529:3564  acceptedSenderAddress != address(0) */\n      0xffffffffffffffffffffffffffffffffffffffff\n      and\n        /* \"token_eco_system_dev_contracts/contracts_ready_for_prod/Copy_TokenEcoSystemParticipationV1_3_draft.sol\":3529:3550  acceptedSenderAddress */\n      0x01\n      0x00\n      swap1\n      sload\n      swap1\n      0x0100\n      exp\n      swap1\n      div\n      0xffffffffffffffffffffffffffffffffffffffff\n      and\n        /* \"token_eco_system_dev_contracts/contracts_ready_for_prod/Copy_TokenEcoSystemParticipationV1_3_draft.sol\":3529:3564  acceptedSenderAddress != address(0) */\n      0xffffffffffffffffffffffffffffffffffffffff\n      and\n      sub\n        /* \"token_eco_system_dev_contracts/contracts_ready_for_prod/Copy_TokenEcoSystemParticipationV1_3_draft.sol\":3521:3583  require(acceptedSenderAddress != address(0), \"Not activated!\") */\n      tag_158\n      jumpi\n      mload(0x40)\n      0x08c379a000000000000000000000000000000000000000000000000000000000\n      dup2\n      mstore\n      0x04\n      add\n      tag_159\n      swap1\n      tag_150\n      jump\t// in\n    tag_159:\n      mload(0x40)\n      dup1\n      swap2\n      sub\n      swap1\n      revert\n    tag_158:\n        /* \"token_eco_system_dev_contracts/contracts_ready_for_prod/Copy_TokenEcoSystemParticipationV1_3_draft.sol\":11830:11839  activator */\n      immutable(\"0xd2f63731675c6a71dc2bd3699360fd070b4ef61c2e40215aaeeee79f9e81574f\")\n        /* \"token_eco_system_dev_contracts/contracts_ready_for_prod/Copy_TokenEcoSystemParticipationV1_3_draft.sol\":11841:11862  acceptedSenderAddress */\n      0x01\n      0x00\n      swap1\n      sload\n      swap1\n      0x0100\n      exp\n      swap1\n      div\n      0xffffffffffffffffffffffffffffffffffffffff\n      and\n        /* \"token_eco_system_dev_contracts/contracts_ready_for_prod/Copy_TokenEcoSystemParticipationV1_3_draft.sol\":11822:11863  return (activator, acceptedSenderAddress) */\n      swap2\n      pop\n      swap2\n      pop\n        /* \"token_eco_system_dev_contracts/contracts_ready_for_prod/Copy_TokenEcoSystemParticipationV1_3_draft.sol\":11695:11870  function getActivatorAndAcceptedSenderAddress()... */\n      swap1\n      swap2\n      jump\t// out\n        /* \"token_eco_system_dev_contracts/contracts_ready_for_prod/Copy_TokenEcoSystemParticipationV1_3_draft.sol\":4181:4481  function activate() public whenNotPaused {... */\n    tag_52:\n        /* \"@openzeppelin/contracts/security/Pausable.sol\":1239:1258  _requireNotPaused() */\n      tag_162\n        /* \"@openzeppelin/contracts/security/Pausable.sol\":1239:1256  _requireNotPaused */\n      tag_137\n        /* \"@openzeppelin/contracts/security/Pausable.sol\":1239:1258  _requireNotPaused() */\n      jump\t// in\n    tag_162:\n        /* \"token_eco_system_dev_contracts/contracts_ready_for_prod/Copy_TokenEcoSystemParticipationV1_3_draft.sol\":4253:4263  msg.sender */\n      caller\n        /* \"token_eco_system_dev_contracts/contracts_ready_for_prod/Copy_TokenEcoSystemParticipationV1_3_draft.sol\":4240:4263  activator == msg.sender */\n      0xffffffffffffffffffffffffffffffffffffffff\n      and\n        /* \"token_eco_system_dev_contracts/contracts_ready_for_prod/Copy_TokenEcoSystemParticipationV1_3_draft.sol\":4240:4249  activator */\n      immutable(\"0xd2f63731675c6a71dc2bd3699360fd070b4ef61c2e40215aaeeee79f9e81574f\")\n        /* \"token_eco_system_dev_contracts/contracts_ready_for_prod/Copy_TokenEcoSystemParticipationV1_3_draft.sol\":4240:4263  activator == msg.sender */\n      0xffffffffffffffffffffffffffffffffffffffff\n      and\n      eq\n        /* \"token_eco_system_dev_contracts/contracts_ready_for_prod/Copy_TokenEcoSystemParticipationV1_3_draft.sol\":4232:4291  require(activator == msg.sender, \"Activation not allowed!\") */\n      tag_164\n      jumpi\n      mload(0x40)\n      0x08c379a000000000000000000000000000000000000000000000000000000000\n      dup2\n      mstore\n      0x04\n      add\n      tag_165\n      swap1\n      tag_166\n      jump\t// in\n    tag_165:\n      mload(0x40)\n      dup1\n      swap2\n      sub\n      swap1\n      revert\n    tag_164:\n        /* \"token_eco_system_dev_contracts/contracts_ready_for_prod/Copy_TokenEcoSystemParticipationV1_3_draft.sol\":4342:4343  0 */\n      0x00\n        /* \"token_eco_system_dev_contracts/contracts_ready_for_prod/Copy_TokenEcoSystemParticipationV1_3_draft.sol\":4309:4344  acceptedSenderAddress == address(0) */\n      0xffffffffffffffffffffffffffffffffffffffff\n      and\n        /* \"token_eco_system_dev_contracts/contracts_ready_for_prod/Copy_TokenEcoSystemParticipationV1_3_draft.sol\":4309:4330  acceptedSenderAddress */\n      0x01\n      0x00\n      swap1\n      sload\n      swap1\n      0x0100\n      exp\n      swap1\n      div\n      0xffffffffffffffffffffffffffffffffffffffff\n      and\n        /* \"token_eco_system_dev_contracts/contracts_ready_for_prod/Copy_TokenEcoSystemParticipationV1_3_draft.sol\":4309:4344  acceptedSenderAddress == address(0) */\n      0xffffffffffffffffffffffffffffffffffffffff\n      and\n      eq\n        /* \"token_eco_system_dev_contracts/contracts_ready_for_prod/Copy_TokenEcoSystemParticipationV1_3_draft.sol\":4301:4367  require(acceptedSenderAddress == address(0), \"Already activated.\") */\n      tag_167\n      jumpi\n      mload(0x40)\n      0x08c379a000000000000000000000000000000000000000000000000000000000\n      dup2\n      mstore\n      0x04\n      add\n      tag_168\n      swap1\n      tag_169\n      jump\t// in\n    tag_168:\n      mload(0x40)\n      dup1\n      swap2\n      sub\n      swap1\n      revert\n    tag_167:\n        /* \"token_eco_system_dev_contracts/contracts_ready_for_prod/Copy_TokenEcoSystemParticipationV1_3_draft.sol\":4401:4411  msg.sender */\n      caller\n        /* \"token_eco_system_dev_contracts/contracts_ready_for_prod/Copy_TokenEcoSystemParticipationV1_3_draft.sol\":4377:4398  acceptedSenderAddress */\n      0x01\n      0x00\n        /* \"token_eco_system_dev_contracts/contracts_ready_for_prod/Copy_TokenEcoSystemParticipationV1_3_draft.sol\":4377:4411  acceptedSenderAddress = msg.sender */\n      0x0100\n      exp\n      dup2\n      sload\n      dup2\n      0xffffffffffffffffffffffffffffffffffffffff\n      mul\n      not\n      and\n      swap1\n      dup4\n      0xffffffffffffffffffffffffffffffffffffffff\n      and\n      mul\n      or\n      swap1\n      sstore\n      pop\n        /* \"token_eco_system_dev_contracts/contracts_ready_for_prod/Copy_TokenEcoSystemParticipationV1_3_draft.sol\":4435:4456  acceptedSenderAddress */\n      0x01\n      0x00\n      swap1\n      sload\n      swap1\n      0x0100\n      exp\n      swap1\n      div\n      0xffffffffffffffffffffffffffffffffffffffff\n      and\n        /* \"token_eco_system_dev_contracts/contracts_ready_for_prod/Copy_TokenEcoSystemParticipationV1_3_draft.sol\":4426:4474  Activate(acceptedSenderAddress, block.timestamp) */\n      0xffffffffffffffffffffffffffffffffffffffff\n      and\n      0xfbd0a3f6e9a0dd5f834515748047e83de8064477489a0a0d6b59c64bbecc992a\n        /* \"token_eco_system_dev_contracts/contracts_ready_for_prod/Copy_TokenEcoSystemParticipationV1_3_draft.sol\":4458:4473  block.timestamp */\n      timestamp\n        /* \"token_eco_system_dev_contracts/contracts_ready_for_prod/Copy_TokenEcoSystemParticipationV1_3_draft.sol\":4426:4474  Activate(acceptedSenderAddress, block.timestamp) */\n      mload(0x40)\n      tag_170\n      swap2\n      swap1\n      tag_56\n      jump\t// in\n    tag_170:\n      mload(0x40)\n      dup1\n      swap2\n      sub\n      swap1\n      log2\n        /* \"token_eco_system_dev_contracts/contracts_ready_for_prod/Copy_TokenEcoSystemParticipationV1_3_draft.sol\":4181:4481  function activate() public whenNotPaused {... */\n      jump\t// out\n        /* \"token_eco_system_dev_contracts/contracts_ready_for_prod/Copy_TokenEcoSystemParticipationV1_3_draft.sol\":10965:11118  function getTotalBurnedTokens()... */\n    tag_54:\n        /* \"token_eco_system_dev_contracts/contracts_ready_for_prod/Copy_TokenEcoSystemParticipationV1_3_draft.sol\":11070:11077  uint256 */\n      0x00\n        /* \"token_eco_system_dev_contracts/contracts_ready_for_prod/Copy_TokenEcoSystemParticipationV1_3_draft.sol\":3562:3563  0 */\n      dup1\n        /* \"token_eco_system_dev_contracts/contracts_ready_for_prod/Copy_TokenEcoSystemParticipationV1_3_draft.sol\":3529:3564  acceptedSenderAddress != address(0) */\n      0xffffffffffffffffffffffffffffffffffffffff\n      and\n        /* \"token_eco_system_dev_contracts/contracts_ready_for_prod/Copy_TokenEcoSystemParticipationV1_3_draft.sol\":3529:3550  acceptedSenderAddress */\n      0x01\n      0x00\n      swap1\n      sload\n      swap1\n      0x0100\n      exp\n      swap1\n      div\n      0xffffffffffffffffffffffffffffffffffffffff\n      and\n        /* \"token_eco_system_dev_contracts/contracts_ready_for_prod/Copy_TokenEcoSystemParticipationV1_3_draft.sol\":3529:3564  acceptedSenderAddress != address(0) */\n      0xffffffffffffffffffffffffffffffffffffffff\n      and\n      sub\n        /* \"token_eco_system_dev_contracts/contracts_ready_for_prod/Copy_TokenEcoSystemParticipationV1_3_draft.sol\":3521:3583  require(acceptedSenderAddress != address(0), \"Not activated!\") */\n      tag_172\n      jumpi\n      mload(0x40)\n      0x08c379a000000000000000000000000000000000000000000000000000000000\n      dup2\n      mstore\n      0x04\n      add\n      tag_173\n      swap1\n      tag_150\n      jump\t// in\n    tag_173:\n      mload(0x40)\n      dup1\n      swap2\n      sub\n      swap1\n      revert\n    tag_172:\n        /* \"token_eco_system_dev_contracts/contracts_ready_for_prod/Copy_TokenEcoSystemParticipationV1_3_draft.sol\":3680:3681  0 */\n      0x00\n        /* \"token_eco_system_dev_contracts/contracts_ready_for_prod/Copy_TokenEcoSystemParticipationV1_3_draft.sol\":3658:3682  msg.sender != address(0) */\n      0xffffffffffffffffffffffffffffffffffffffff\n      and\n        /* \"token_eco_system_dev_contracts/contracts_ready_for_prod/Copy_TokenEcoSystemParticipationV1_3_draft.sol\":3658:3668  msg.sender */\n      caller\n        /* \"token_eco_system_dev_contracts/contracts_ready_for_prod/Copy_TokenEcoSystemParticipationV1_3_draft.sol\":3658:3682  msg.sender != address(0) */\n      0xffffffffffffffffffffffffffffffffffffffff\n      and\n      sub\n        /* \"token_eco_system_dev_contracts/contracts_ready_for_prod/Copy_TokenEcoSystemParticipationV1_3_draft.sol\":3650:3683  require(msg.sender != address(0)) */\n      tag_175\n      jumpi\n      0x00\n      dup1\n      revert\n    tag_175:\n        /* \"token_eco_system_dev_contracts/contracts_ready_for_prod/Copy_TokenEcoSystemParticipationV1_3_draft.sol\":3729:3750  acceptedSenderAddress */\n      0x01\n      0x00\n      swap1\n      sload\n      swap1\n      0x0100\n      exp\n      swap1\n      div\n      0xffffffffffffffffffffffffffffffffffffffff\n      and\n        /* \"token_eco_system_dev_contracts/contracts_ready_for_prod/Copy_TokenEcoSystemParticipationV1_3_draft.sol\":3715:3750  msg.sender == acceptedSenderAddress */\n      0xffffffffffffffffffffffffffffffffffffffff\n      and\n        /* \"token_eco_system_dev_contracts/contracts_ready_for_prod/Copy_TokenEcoSystemParticipationV1_3_draft.sol\":3715:3725  msg.sender */\n      caller\n        /* \"token_eco_system_dev_contracts/contracts_ready_for_prod/Copy_TokenEcoSystemParticipationV1_3_draft.sol\":3715:3750  msg.sender == acceptedSenderAddress */\n      0xffffffffffffffffffffffffffffffffffffffff\n      and\n      eq\n        /* \"token_eco_system_dev_contracts/contracts_ready_for_prod/Copy_TokenEcoSystemParticipationV1_3_draft.sol\":3715:3775  msg.sender == acceptedSenderAddress || msg.sender == owner() */\n      dup1\n      tag_176\n      jumpi\n      pop\n        /* \"token_eco_system_dev_contracts/contracts_ready_for_prod/Copy_TokenEcoSystemParticipationV1_3_draft.sol\":3768:3775  owner() */\n      tag_177\n        /* \"token_eco_system_dev_contracts/contracts_ready_for_prod/Copy_TokenEcoSystemParticipationV1_3_draft.sol\":3768:3773  owner */\n      tag_79\n        /* \"token_eco_system_dev_contracts/contracts_ready_for_prod/Copy_TokenEcoSystemParticipationV1_3_draft.sol\":3768:3775  owner() */\n      jump\t// in\n    tag_177:\n        /* \"token_eco_system_dev_contracts/contracts_ready_for_prod/Copy_TokenEcoSystemParticipationV1_3_draft.sol\":3754:3775  msg.sender == owner() */\n      0xffffffffffffffffffffffffffffffffffffffff\n      and\n        /* \"token_eco_system_dev_contracts/contracts_ready_for_prod/Copy_TokenEcoSystemParticipationV1_3_draft.sol\":3754:3764  msg.sender */\n      caller\n        /* \"token_eco_system_dev_contracts/contracts_ready_for_prod/Copy_TokenEcoSystemParticipationV1_3_draft.sol\":3754:3775  msg.sender == owner() */\n      0xffffffffffffffffffffffffffffffffffffffff\n      and\n      eq\n        /* \"token_eco_system_dev_contracts/contracts_ready_for_prod/Copy_TokenEcoSystemParticipationV1_3_draft.sol\":3715:3775  msg.sender == acceptedSenderAddress || msg.sender == owner() */\n    tag_176:\n        /* \"token_eco_system_dev_contracts/contracts_ready_for_prod/Copy_TokenEcoSystemParticipationV1_3_draft.sol\":3693:3866  require(... */\n      tag_178\n      jumpi\n      mload(0x40)\n      0x08c379a000000000000000000000000000000000000000000000000000000000\n      dup2\n      mstore\n      0x04\n      add\n      tag_179\n      swap1\n      tag_180\n      jump\t// in\n    tag_179:\n      mload(0x40)\n      dup1\n      swap2\n      sub\n      swap1\n      revert\n    tag_178:\n        /* \"token_eco_system_dev_contracts/contracts_ready_for_prod/Copy_TokenEcoSystemParticipationV1_3_draft.sol\":11100:11111  totalBurned */\n      sload(0x02)\n        /* \"token_eco_system_dev_contracts/contracts_ready_for_prod/Copy_TokenEcoSystemParticipationV1_3_draft.sol\":11093:11111  return totalBurned */\n      swap1\n      pop\n        /* \"token_eco_system_dev_contracts/contracts_ready_for_prod/Copy_TokenEcoSystemParticipationV1_3_draft.sol\":10965:11118  function getTotalBurnedTokens()... */\n      swap1\n      jump\t// out\n        /* \"token_eco_system_dev_contracts/contracts_ready_for_prod/Copy_TokenEcoSystemParticipationV1_3_draft.sol\":4535:4708  function deactivate() public activated onlyAuthorized whenNotPaused {... */\n    tag_58:\n        /* \"token_eco_system_dev_contracts/contracts_ready_for_prod/Copy_TokenEcoSystemParticipationV1_3_draft.sol\":3562:3563  0 */\n      0x00\n        /* \"token_eco_system_dev_contracts/contracts_ready_for_prod/Copy_TokenEcoSystemParticipationV1_3_draft.sol\":3529:3564  acceptedSenderAddress != address(0) */\n      0xffffffffffffffffffffffffffffffffffffffff\n      and\n        /* \"token_eco_system_dev_contracts/contracts_ready_for_prod/Copy_TokenEcoSystemParticipationV1_3_draft.sol\":3529:3550  acceptedSenderAddress */\n      0x01\n      0x00\n      swap1\n      sload\n      swap1\n      0x0100\n      exp\n      swap1\n      div\n      0xffffffffffffffffffffffffffffffffffffffff\n      and\n        /* \"token_eco_system_dev_contracts/contracts_ready_for_prod/Copy_TokenEcoSystemParticipationV1_3_draft.sol\":3529:3564  acceptedSenderAddress != address(0) */\n      0xffffffffffffffffffffffffffffffffffffffff\n      and\n      sub\n        /* \"token_eco_system_dev_contracts/contracts_ready_for_prod/Copy_TokenEcoSystemParticipationV1_3_draft.sol\":3521:3583  require(acceptedSenderAddress != address(0), \"Not activated!\") */\n      tag_183\n      jumpi\n      mload(0x40)\n      0x08c379a000000000000000000000000000000000000000000000000000000000\n      dup2\n      mstore\n      0x04\n      add\n      tag_184\n      swap1\n      tag_150\n      jump\t// in\n    tag_184:\n      mload(0x40)\n      dup1\n      swap2\n      sub\n      swap1\n      revert\n    tag_183:\n        /* \"token_eco_system_dev_contracts/contracts_ready_for_prod/Copy_TokenEcoSystemParticipationV1_3_draft.sol\":3425:3446  acceptedSenderAddress */\n      0x01\n      0x00\n      swap1\n      sload\n      swap1\n      0x0100\n      exp\n      swap1\n      div\n      0xffffffffffffffffffffffffffffffffffffffff\n      and\n        /* \"token_eco_system_dev_contracts/contracts_ready_for_prod/Copy_TokenEcoSystemParticipationV1_3_draft.sol\":3411:3446  msg.sender == acceptedSenderAddress */\n      0xffffffffffffffffffffffffffffffffffffffff\n      and\n        /* \"token_eco_system_dev_contracts/contracts_ready_for_prod/Copy_TokenEcoSystemParticipationV1_3_draft.sol\":3411:3421  msg.sender */\n      caller\n        /* \"token_eco_system_dev_contracts/contracts_ready_for_prod/Copy_TokenEcoSystemParticipationV1_3_draft.sol\":3411:3446  msg.sender == acceptedSenderAddress */\n      0xffffffffffffffffffffffffffffffffffffffff\n      and\n      eq\n        /* \"token_eco_system_dev_contracts/contracts_ready_for_prod/Copy_TokenEcoSystemParticipationV1_3_draft.sol\":3403:3466  require(msg.sender == acceptedSenderAddress, \"Not Authorized!\") */\n      tag_186\n      jumpi\n      mload(0x40)\n      0x08c379a000000000000000000000000000000000000000000000000000000000\n      dup2\n      mstore\n      0x04\n      add\n      tag_187\n      swap1\n      tag_154\n      jump\t// in\n    tag_187:\n      mload(0x40)\n      dup1\n      swap2\n      sub\n      swap1\n      revert\n    tag_186:\n        /* \"@openzeppelin/contracts/security/Pausable.sol\":1239:1258  _requireNotPaused() */\n      tag_189\n        /* \"@openzeppelin/contracts/security/Pausable.sol\":1239:1256  _requireNotPaused */\n      tag_137\n        /* \"@openzeppelin/contracts/security/Pausable.sol\":1239:1258  _requireNotPaused() */\n      jump\t// in\n    tag_189:\n        /* \"token_eco_system_dev_contracts/contracts_ready_for_prod/Copy_TokenEcoSystemParticipationV1_3_draft.sol\":4645:4646  0 */\n      0x00\n        /* \"token_eco_system_dev_contracts/contracts_ready_for_prod/Copy_TokenEcoSystemParticipationV1_3_draft.sol\":4613:4634  acceptedSenderAddress */\n      0x01\n      0x00\n        /* \"token_eco_system_dev_contracts/contracts_ready_for_prod/Copy_TokenEcoSystemParticipationV1_3_draft.sol\":4613:4647  acceptedSenderAddress = address(0) */\n      0x0100\n      exp\n      dup2\n      sload\n      dup2\n      0xffffffffffffffffffffffffffffffffffffffff\n      mul\n      not\n      and\n      swap1\n      dup4\n      0xffffffffffffffffffffffffffffffffffffffff\n      and\n      mul\n      or\n      swap1\n      sstore\n      pop\n        /* \"token_eco_system_dev_contracts/contracts_ready_for_prod/Copy_TokenEcoSystemParticipationV1_3_draft.sol\":4673:4683  msg.sender */\n      caller\n        /* \"token_eco_system_dev_contracts/contracts_ready_for_prod/Copy_TokenEcoSystemParticipationV1_3_draft.sol\":4662:4701  Deactivate(msg.sender, block.timestamp) */\n      0xffffffffffffffffffffffffffffffffffffffff\n      and\n      0x13b865880a841dc469b629159fa1e730fee99568b0decc6737fd688b36246381\n        /* \"token_eco_system_dev_contracts/contracts_ready_for_prod/Copy_TokenEcoSystemParticipationV1_3_draft.sol\":4685:4700  block.timestamp */\n      timestamp\n        /* \"token_eco_system_dev_contracts/contracts_ready_for_prod/Copy_TokenEcoSystemParticipationV1_3_draft.sol\":4662:4701  Deactivate(msg.sender, block.timestamp) */\n      mload(0x40)\n      tag_191\n      swap2\n      swap1\n      tag_56\n      jump\t// in\n    tag_191:\n      mload(0x40)\n      dup1\n      swap2\n      sub\n      swap1\n      log2\n        /* \"token_eco_system_dev_contracts/contracts_ready_for_prod/Copy_TokenEcoSystemParticipationV1_3_draft.sol\":4535:4708  function deactivate() public activated onlyAuthorized whenNotPaused {... */\n      jump\t// out\n        /* \"@openzeppelin/contracts/security/Pausable.sol\":1615:1699  function paused() public view virtual returns (bool) {... */\n    tag_60:\n        /* \"@openzeppelin/contracts/security/Pausable.sol\":1662:1666  bool */\n      0x00\n        /* \"@openzeppelin/contracts/security/Pausable.sol\":1685:1692  _paused */\n      dup1\n      0x00\n      swap1\n      sload\n      swap1\n      0x0100\n      exp\n      swap1\n      div\n      0xff\n      and\n        /* \"@openzeppelin/contracts/security/Pausable.sol\":1678:1692  return _paused */\n      swap1\n      pop\n        /* \"@openzeppelin/contracts/security/Pausable.sol\":1615:1699  function paused() public view virtual returns (bool) {... */\n      swap1\n      jump\t// out\n        /* \"token_eco_system_dev_contracts/contracts_ready_for_prod/Copy_TokenEcoSystemParticipationV1_3_draft.sol\":9649:9943  function transferOfToken(... */\n    tag_66:\n        /* \"token_eco_system_dev_contracts/contracts_ready_for_prod/Copy_TokenEcoSystemParticipationV1_3_draft.sol\":9786:9790  bool */\n      0x00\n        /* \"@openzeppelin/contracts/access/Ownable.sol\":1094:1107  _checkOwner() */\n      tag_194\n        /* \"@openzeppelin/contracts/access/Ownable.sol\":1094:1105  _checkOwner */\n      tag_131\n        /* \"@openzeppelin/contracts/access/Ownable.sol\":1094:1107  _checkOwner() */\n      jump\t// in\n    tag_194:\n        /* \"token_eco_system_dev_contracts/contracts_ready_for_prod/Copy_TokenEcoSystemParticipationV1_3_draft.sol\":9842:9848  amount */\n      dup2\n        /* \"token_eco_system_dev_contracts/contracts_ready_for_prod/Copy_TokenEcoSystemParticipationV1_3_draft.sol\":9810:9838  balanceOfToken(tokenAddress) */\n      tag_196\n        /* \"token_eco_system_dev_contracts/contracts_ready_for_prod/Copy_TokenEcoSystemParticipationV1_3_draft.sol\":9825:9837  tokenAddress */\n      dup6\n        /* \"token_eco_system_dev_contracts/contracts_ready_for_prod/Copy_TokenEcoSystemParticipationV1_3_draft.sol\":9810:9824  balanceOfToken */\n      tag_111\n        /* \"token_eco_system_dev_contracts/contracts_ready_for_prod/Copy_TokenEcoSystemParticipationV1_3_draft.sol\":9810:9838  balanceOfToken(tokenAddress) */\n      jump\t// in\n    tag_196:\n        /* \"token_eco_system_dev_contracts/contracts_ready_for_prod/Copy_TokenEcoSystemParticipationV1_3_draft.sol\":9810:9848  balanceOfToken(tokenAddress) >= amount */\n      lt\n      iszero\n        /* \"token_eco_system_dev_contracts/contracts_ready_for_prod/Copy_TokenEcoSystemParticipationV1_3_draft.sol\":9802:9872  require(balanceOfToken(tokenAddress) >= amount, \"Not enough balance!\") */\n      tag_197\n      jumpi\n      mload(0x40)\n      0x08c379a000000000000000000000000000000000000000000000000000000000\n      dup2\n      mstore\n      0x04\n      add\n      tag_198\n      swap1\n      tag_199\n      jump\t// in\n    tag_198:\n      mload(0x40)\n      dup1\n      swap2\n      sub\n      swap1\n      revert\n    tag_197:\n        /* \"token_eco_system_dev_contracts/contracts_ready_for_prod/Copy_TokenEcoSystemParticipationV1_3_draft.sol\":9896:9908  tokenAddress */\n      dup4\n        /* \"token_eco_system_dev_contracts/contracts_ready_for_prod/Copy_TokenEcoSystemParticipationV1_3_draft.sol\":9889:9918  IERC20(tokenAddress).transfer */\n      0xffffffffffffffffffffffffffffffffffffffff\n      and\n      0xa9059cbb\n        /* \"token_eco_system_dev_contracts/contracts_ready_for_prod/Copy_TokenEcoSystemParticipationV1_3_draft.sol\":9919:9927  receiver */\n      dup5\n        /* \"token_eco_system_dev_contracts/contracts_ready_for_prod/Copy_TokenEcoSystemParticipationV1_3_draft.sol\":9929:9935  amount */\n      dup5\n        /* \"token_eco_system_dev_contracts/contracts_ready_for_prod/Copy_TokenEcoSystemParticipationV1_3_draft.sol\":9889:9936  IERC20(tokenAddress).transfer(receiver, amount) */\n      mload(0x40)\n      dup4\n      0xffffffff\n      and\n      0xe0\n      shl\n      dup2\n      mstore\n      0x04\n      add\n      tag_200\n      swap3\n      swap2\n      swap1\n      tag_201\n      jump\t// in\n    tag_200:\n      0x20\n      mload(0x40)\n      dup1\n      dup4\n      sub\n      dup2\n      0x00\n      dup8\n      gas\n      call\n      iszero\n      dup1\n      iszero\n      tag_203\n      jumpi\n      returndatasize\n      0x00\n      dup1\n      returndatacopy\n      revert(0x00, returndatasize)\n    tag_203:\n      pop\n      pop\n      pop\n      pop\n      mload(0x40)\n      returndatasize\n      not(0x1f)\n      0x1f\n      dup3\n      add\n      and\n      dup3\n      add\n      dup1\n      0x40\n      mstore\n      pop\n      dup2\n      add\n      swap1\n      tag_204\n      swap2\n      swap1\n      tag_205\n      jump\t// in\n    tag_204:\n        /* \"token_eco_system_dev_contracts/contracts_ready_for_prod/Copy_TokenEcoSystemParticipationV1_3_draft.sol\":9882:9936  return IERC20(tokenAddress).transfer(receiver, amount) */\n      swap1\n      pop\n        /* \"token_eco_system_dev_contracts/contracts_ready_for_prod/Copy_TokenEcoSystemParticipationV1_3_draft.sol\":9649:9943  function transferOfToken(... */\n      swap4\n      swap3\n      pop\n      pop\n      pop\n      jump\t// out\n        /* \"@openzeppelin/contracts/access/Ownable.sol\":1831:1932  function renounceOwnership() public virtual onlyOwner {... */\n    tag_69:\n        /* \"@openzeppelin/contracts/access/Ownable.sol\":1094:1107  _checkOwner() */\n      tag_207\n        /* \"@openzeppelin/contracts/access/Ownable.sol\":1094:1105  _checkOwner */\n      tag_131\n        /* \"@openzeppelin/contracts/access/Ownable.sol\":1094:1107  _checkOwner() */\n      jump\t// in\n    tag_207:\n        /* \"@openzeppelin/contracts/access/Ownable.sol\":1895:1925  _transferOwnership(address(0)) */\n      tag_209\n        /* \"@openzeppelin/contracts/access/Ownable.sol\":1922:1923  0 */\n      0x00\n        /* \"@openzeppelin/contracts/access/Ownable.sol\":1895:1913  _transferOwnership */\n      tag_210\n        /* \"@openzeppelin/contracts/access/Ownable.sol\":1895:1925  _transferOwnership(address(0)) */\n      jump\t// in\n    tag_209:\n        /* \"@openzeppelin/contracts/access/Ownable.sol\":1831:1932  function renounceOwnership() public virtual onlyOwner {... */\n      jump\t// out\n        /* \"token_eco_system_dev_contracts/contracts_ready_for_prod/Copy_TokenEcoSystemParticipationV1_3_draft.sol\":9134:9239  function balanceOf() public view returns (uint256) {... */\n    tag_71:\n        /* \"token_eco_system_dev_contracts/contracts_ready_for_prod/Copy_TokenEcoSystemParticipationV1_3_draft.sol\":9176:9183  uint256 */\n      0x00\n        /* \"token_eco_system_dev_contracts/contracts_ready_for_prod/Copy_TokenEcoSystemParticipationV1_3_draft.sol\":9202:9207  token */\n      immutable(\"0x448072f8ce0e9d09a2030ee35ba0d03fccbd0c61c3623f421061fbafdf5a67a9\")\n        /* \"token_eco_system_dev_contracts/contracts_ready_for_prod/Copy_TokenEcoSystemParticipationV1_3_draft.sol\":9202:9217  token.balanceOf */\n      0xffffffffffffffffffffffffffffffffffffffff\n      and\n      0x70a08231\n        /* \"token_eco_system_dev_contracts/contracts_ready_for_prod/Copy_TokenEcoSystemParticipationV1_3_draft.sol\":9226:9230  this */\n      address\n        /* \"token_eco_system_dev_contracts/contracts_ready_for_prod/Copy_TokenEcoSystemParticipationV1_3_draft.sol\":9202:9232  token.balanceOf(address(this)) */\n      mload(0x40)\n      dup3\n      0xffffffff\n      and\n      0xe0\n      shl\n      dup2\n      mstore\n      0x04\n      add\n      tag_212\n      swap2\n      swap1\n      tag_81\n      jump\t// in\n    tag_212:\n      0x20\n      mload(0x40)\n      dup1\n      dup4\n      sub\n      dup2\n      dup7\n      gas\n      staticcall\n      iszero\n      dup1\n      iszero\n      tag_214\n      jumpi\n      returndatasize\n      0x00\n      dup1\n      returndatacopy\n      revert(0x00, returndatasize)\n    tag_214:\n      pop\n      pop\n      pop\n      pop\n      mload(0x40)\n      returndatasize\n      not(0x1f)\n      0x1f\n      dup3\n      add\n      and\n      dup3\n      add\n      dup1\n      0x40\n      mstore\n      pop\n      dup2\n      add\n      swap1\n      tag_215\n      swap2\n      swap1\n      tag_216\n      jump\t// in\n    tag_215:\n        /* \"token_eco_system_dev_contracts/contracts_ready_for_prod/Copy_TokenEcoSystemParticipationV1_3_draft.sol\":9195:9232  return token.balanceOf(address(this)) */\n      swap1\n      pop\n        /* \"token_eco_system_dev_contracts/contracts_ready_for_prod/Copy_TokenEcoSystemParticipationV1_3_draft.sol\":9134:9239  function balanceOf() public view returns (uint256) {... */\n      swap1\n      jump\t// out\n        /* \"token_eco_system_dev_contracts/contracts_ready_for_prod/Copy_TokenEcoSystemParticipationV1_3_draft.sol\":7250:7611  function calculateAmount(... */\n    tag_76:\n        /* \"token_eco_system_dev_contracts/contracts_ready_for_prod/Copy_TokenEcoSystemParticipationV1_3_draft.sol\":7384:7391  uint256 */\n      0x00\n        /* \"@openzeppelin/contracts/access/Ownable.sol\":1094:1107  _checkOwner() */\n      tag_218\n        /* \"@openzeppelin/contracts/access/Ownable.sol\":1094:1105  _checkOwner */\n      tag_131\n        /* \"@openzeppelin/contracts/access/Ownable.sol\":1094:1107  _checkOwner() */\n      jump\t// in\n    tag_218:\n        /* \"token_eco_system_dev_contracts/contracts_ready_for_prod/Copy_TokenEcoSystemParticipationV1_3_draft.sol\":7431:7432  0 */\n      0x00\n        /* \"token_eco_system_dev_contracts/contracts_ready_for_prod/Copy_TokenEcoSystemParticipationV1_3_draft.sol\":7424:7428  rate */\n      dup4\n        /* \"token_eco_system_dev_contracts/contracts_ready_for_prod/Copy_TokenEcoSystemParticipationV1_3_draft.sol\":7424:7432  rate > 0 */\n      gt\n        /* \"token_eco_system_dev_contracts/contracts_ready_for_prod/Copy_TokenEcoSystemParticipationV1_3_draft.sol\":7424:7446  rate > 0 && points > 0 */\n      dup1\n      iszero\n      tag_220\n      jumpi\n      pop\n        /* \"token_eco_system_dev_contracts/contracts_ready_for_prod/Copy_TokenEcoSystemParticipationV1_3_draft.sol\":7445:7446  0 */\n      0x00\n        /* \"token_eco_system_dev_contracts/contracts_ready_for_prod/Copy_TokenEcoSystemParticipationV1_3_draft.sol\":7436:7442  points */\n      dup5\n        /* \"token_eco_system_dev_contracts/contracts_ready_for_prod/Copy_TokenEcoSystemParticipationV1_3_draft.sol\":7436:7446  points > 0 */\n      gt\n        /* \"token_eco_system_dev_contracts/contracts_ready_for_prod/Copy_TokenEcoSystemParticipationV1_3_draft.sol\":7424:7446  rate > 0 && points > 0 */\n    tag_220:\n        /* \"token_eco_system_dev_contracts/contracts_ready_for_prod/Copy_TokenEcoSystemParticipationV1_3_draft.sol\":7424:7462  rate > 0 && points > 0 && decimals > 0 */\n      dup1\n      iszero\n      tag_221\n      jumpi\n      pop\n        /* \"token_eco_system_dev_contracts/contracts_ready_for_prod/Copy_TokenEcoSystemParticipationV1_3_draft.sol\":7461:7462  0 */\n      0x00\n        /* \"token_eco_system_dev_contracts/contracts_ready_for_prod/Copy_TokenEcoSystemParticipationV1_3_draft.sol\":7450:7458  decimals */\n      dup3\n        /* \"token_eco_system_dev_contracts/contracts_ready_for_prod/Copy_TokenEcoSystemParticipationV1_3_draft.sol\":7450:7462  decimals > 0 */\n      gt\n        /* \"token_eco_system_dev_contracts/contracts_ready_for_prod/Copy_TokenEcoSystemParticipationV1_3_draft.sol\":7424:7462  rate > 0 && points > 0 && decimals > 0 */\n    tag_221:\n        /* \"token_eco_system_dev_contracts/contracts_ready_for_prod/Copy_TokenEcoSystemParticipationV1_3_draft.sol\":7403:7540  require(... */\n      tag_222\n      jumpi\n      mload(0x40)\n      0x08c379a000000000000000000000000000000000000000000000000000000000\n      dup2\n      mstore\n      0x04\n      add\n      tag_223\n      swap1\n      tag_224\n      jump\t// in\n    tag_223:\n      mload(0x40)\n      dup1\n      swap2\n      sub\n      swap1\n      revert\n    tag_222:\n        /* \"token_eco_system_dev_contracts/contracts_ready_for_prod/Copy_TokenEcoSystemParticipationV1_3_draft.sol\":7595:7604  modulator */\n      sload(0x05)\n        /* \"token_eco_system_dev_contracts/contracts_ready_for_prod/Copy_TokenEcoSystemParticipationV1_3_draft.sol\":7586:7590  rate */\n      dup4\n        /* \"token_eco_system_dev_contracts/contracts_ready_for_prod/Copy_TokenEcoSystemParticipationV1_3_draft.sol\":7574:7582  decimals */\n      dup4\n        /* \"token_eco_system_dev_contracts/contracts_ready_for_prod/Copy_TokenEcoSystemParticipationV1_3_draft.sol\":7568:7570  10 */\n      0x0a\n        /* \"token_eco_system_dev_contracts/contracts_ready_for_prod/Copy_TokenEcoSystemParticipationV1_3_draft.sol\":7568:7582  10 ** decimals */\n      tag_225\n      swap2\n      swap1\n      tag_226\n      jump\t// in\n    tag_225:\n        /* \"token_eco_system_dev_contracts/contracts_ready_for_prod/Copy_TokenEcoSystemParticipationV1_3_draft.sol\":7559:7565  points */\n      dup7\n        /* \"token_eco_system_dev_contracts/contracts_ready_for_prod/Copy_TokenEcoSystemParticipationV1_3_draft.sol\":7559:7582  points * 10 ** decimals */\n      tag_227\n      swap2\n      swap1\n      tag_228\n      jump\t// in\n    tag_227:\n        /* \"token_eco_system_dev_contracts/contracts_ready_for_prod/Copy_TokenEcoSystemParticipationV1_3_draft.sol\":7558:7590  (points * 10 ** decimals) / rate */\n      tag_229\n      swap2\n      swap1\n      tag_230\n      jump\t// in\n    tag_229:\n        /* \"token_eco_system_dev_contracts/contracts_ready_for_prod/Copy_TokenEcoSystemParticipationV1_3_draft.sol\":7557:7604  ((points * 10 ** decimals) / rate ) * modulator */\n      tag_231\n      swap2\n      swap1\n      tag_228\n      jump\t// in\n    tag_231:\n        /* \"token_eco_system_dev_contracts/contracts_ready_for_prod/Copy_TokenEcoSystemParticipationV1_3_draft.sol\":7550:7604  return ((points * 10 ** decimals) / rate ) * modulator */\n      swap1\n      pop\n        /* \"token_eco_system_dev_contracts/contracts_ready_for_prod/Copy_TokenEcoSystemParticipationV1_3_draft.sol\":7250:7611  function calculateAmount(... */\n      swap4\n      swap3\n      pop\n      pop\n      pop\n      jump\t// out\n        /* \"@openzeppelin/contracts/access/Ownable.sol\":1201:1286  function owner() public view virtual returns (address) {... */\n    tag_79:\n        /* \"@openzeppelin/contracts/access/Ownable.sol\":1247:1254  address */\n      0x00\n        /* \"@openzeppelin/contracts/access/Ownable.sol\":1273:1279  _owner */\n      dup1\n      0x01\n      swap1\n      sload\n      swap1\n      0x0100\n      exp\n      swap1\n      div\n      0xffffffffffffffffffffffffffffffffffffffff\n      and\n        /* \"@openzeppelin/contracts/access/Ownable.sol\":1266:1279  return _owner */\n      swap1\n      pop\n        /* \"@openzeppelin/contracts/access/Ownable.sol\":1201:1286  function owner() public view virtual returns (address) {... */\n      swap1\n      jump\t// out\n        /* \"token_eco_system_dev_contracts/contracts_ready_for_prod/Copy_TokenEcoSystemParticipationV1_3_draft.sol\":5200:5550  function setModulator(uint256 value) public whenNotPaused onlyOwner {... */\n    tag_85:\n        /* \"@openzeppelin/contracts/security/Pausable.sol\":1239:1258  _requireNotPaused() */\n      tag_234\n        /* \"@openzeppelin/contracts/security/Pausable.sol\":1239:1256  _requireNotPaused */\n      tag_137\n        /* \"@openzeppelin/contracts/security/Pausable.sol\":1239:1258  _requireNotPaused() */\n      jump\t// in\n    tag_234:\n        /* \"@openzeppelin/contracts/access/Ownable.sol\":1094:1107  _checkOwner() */\n      tag_236\n        /* \"@openzeppelin/contracts/access/Ownable.sol\":1094:1105  _checkOwner */\n      tag_131\n        /* \"@openzeppelin/contracts/access/Ownable.sol\":1094:1107  _checkOwner() */\n      jump\t// in\n    tag_236:\n        /* \"token_eco_system_dev_contracts/contracts_ready_for_prod/Copy_TokenEcoSystemParticipationV1_3_draft.sol\":5294:5295  0 */\n      0x00\n        /* \"token_eco_system_dev_contracts/contracts_ready_for_prod/Copy_TokenEcoSystemParticipationV1_3_draft.sol\":5286:5291  value */\n      dup2\n        /* \"token_eco_system_dev_contracts/contracts_ready_for_prod/Copy_TokenEcoSystemParticipationV1_3_draft.sol\":5286:5295  value > 0 */\n      gt\n        /* \"token_eco_system_dev_contracts/contracts_ready_for_prod/Copy_TokenEcoSystemParticipationV1_3_draft.sol\":5278:5332  require(value > 0, \"Input must be greater than zero!\") */\n      tag_238\n      jumpi\n      mload(0x40)\n      0x08c379a000000000000000000000000000000000000000000000000000000000\n      dup2\n      mstore\n      0x04\n      add\n      tag_239\n      swap1\n      tag_240\n      jump\t// in\n    tag_239:\n      mload(0x40)\n      dup1\n      swap2\n      sub\n      swap1\n      revert\n    tag_238:\n        /* \"token_eco_system_dev_contracts/contracts_ready_for_prod/Copy_TokenEcoSystemParticipationV1_3_draft.sol\":5358:5360  10 */\n      0x0a\n        /* \"token_eco_system_dev_contracts/contracts_ready_for_prod/Copy_TokenEcoSystemParticipationV1_3_draft.sol\":5350:5355  value */\n      dup2\n        /* \"token_eco_system_dev_contracts/contracts_ready_for_prod/Copy_TokenEcoSystemParticipationV1_3_draft.sol\":5350:5360  value < 10 */\n      lt\n        /* \"token_eco_system_dev_contracts/contracts_ready_for_prod/Copy_TokenEcoSystemParticipationV1_3_draft.sol\":5342:5399  require(value < 10, \"Input must be a single digit (0-9)\") */\n      tag_241\n      jumpi\n      mload(0x40)\n      0x08c379a000000000000000000000000000000000000000000000000000000000\n      dup2\n      mstore\n      0x04\n      add\n      tag_242\n      swap1\n      tag_243\n      jump\t// in\n    tag_242:\n      mload(0x40)\n      dup1\n      swap2\n      sub\n      swap1\n      revert\n    tag_241:\n        /* \"token_eco_system_dev_contracts/contracts_ready_for_prod/Copy_TokenEcoSystemParticipationV1_3_draft.sol\":5426:5435  modulator */\n      sload(0x05)\n        /* \"token_eco_system_dev_contracts/contracts_ready_for_prod/Copy_TokenEcoSystemParticipationV1_3_draft.sol\":5417:5422  value */\n      dup2\n        /* \"token_eco_system_dev_contracts/contracts_ready_for_prod/Copy_TokenEcoSystemParticipationV1_3_draft.sol\":5417:5435  value != modulator */\n      sub\n        /* \"token_eco_system_dev_contracts/contracts_ready_for_prod/Copy_TokenEcoSystemParticipationV1_3_draft.sol\":5409:5478  require(value != modulator, \"Input value is the same like existing!\") */\n      tag_244\n      jumpi\n      mload(0x40)\n      0x08c379a000000000000000000000000000000000000000000000000000000000\n      dup2\n      mstore\n      0x04\n      add\n      tag_245\n      swap1\n      tag_246\n      jump\t// in\n    tag_245:\n      mload(0x40)\n      dup1\n      swap2\n      sub\n      swap1\n      revert\n    tag_244:\n        /* \"token_eco_system_dev_contracts/contracts_ready_for_prod/Copy_TokenEcoSystemParticipationV1_3_draft.sol\":5493:5516  ModulatorChanged(value) */\n      0x915dfccc9e27d5f39c81040570f4d4bcc015bc6a0b61a08ce416ebe4a91fc1c5\n        /* \"token_eco_system_dev_contracts/contracts_ready_for_prod/Copy_TokenEcoSystemParticipationV1_3_draft.sol\":5510:5515  value */\n      dup2\n        /* \"token_eco_system_dev_contracts/contracts_ready_for_prod/Copy_TokenEcoSystemParticipationV1_3_draft.sol\":5493:5516  ModulatorChanged(value) */\n      mload(0x40)\n      tag_247\n      swap2\n      swap1\n      tag_56\n      jump\t// in\n    tag_247:\n      mload(0x40)\n      dup1\n      swap2\n      sub\n      swap1\n      log1\n        /* \"token_eco_system_dev_contracts/contracts_ready_for_prod/Copy_TokenEcoSystemParticipationV1_3_draft.sol\":5538:5543  value */\n      dup1\n        /* \"token_eco_system_dev_contracts/contracts_ready_for_prod/Copy_TokenEcoSystemParticipationV1_3_draft.sol\":5526:5535  modulator */\n      0x05\n        /* \"token_eco_system_dev_contracts/contracts_ready_for_prod/Copy_TokenEcoSystemParticipationV1_3_draft.sol\":5526:5543  modulator = value */\n      dup2\n      swap1\n      sstore\n      pop\n        /* \"token_eco_system_dev_contracts/contracts_ready_for_prod/Copy_TokenEcoSystemParticipationV1_3_draft.sol\":5200:5550  function setModulator(uint256 value) public whenNotPaused onlyOwner {... */\n      pop\n      jump\t// out\n        /* \"token_eco_system_dev_contracts/contracts_ready_for_prod/Copy_TokenEcoSystemParticipationV1_3_draft.sol\":11418:11569  function getPointsBalance()... */\n    tag_87:\n        /* \"token_eco_system_dev_contracts/contracts_ready_for_prod/Copy_TokenEcoSystemParticipationV1_3_draft.sol\":11519:11526  uint256 */\n      0x00\n        /* \"token_eco_system_dev_contracts/contracts_ready_for_prod/Copy_TokenEcoSystemParticipationV1_3_draft.sol\":3562:3563  0 */\n      dup1\n        /* \"token_eco_system_dev_contracts/contracts_ready_for_prod/Copy_TokenEcoSystemParticipationV1_3_draft.sol\":3529:3564  acceptedSenderAddress != address(0) */\n      0xffffffffffffffffffffffffffffffffffffffff\n      and\n        /* \"token_eco_system_dev_contracts/contracts_ready_for_prod/Copy_TokenEcoSystemParticipationV1_3_draft.sol\":3529:3550  acceptedSenderAddress */\n      0x01\n      0x00\n      swap1\n      sload\n      swap1\n      0x0100\n      exp\n      swap1\n      div\n      0xffffffffffffffffffffffffffffffffffffffff\n      and\n        /* \"token_eco_system_dev_contracts/contracts_ready_for_prod/Copy_TokenEcoSystemParticipationV1_3_draft.sol\":3529:3564  acceptedSenderAddress != address(0) */\n      0xffffffffffffffffffffffffffffffffffffffff\n      and\n      sub\n        /* \"token_eco_system_dev_contracts/contracts_ready_for_prod/Copy_TokenEcoSystemParticipationV1_3_draft.sol\":3521:3583  require(acceptedSenderAddress != address(0), \"Not activated!\") */\n      tag_249\n      jumpi\n      mload(0x40)\n      0x08c379a000000000000000000000000000000000000000000000000000000000\n      dup2\n      mstore\n      0x04\n      add\n      tag_250\n      swap1\n      tag_150\n      jump\t// in\n    tag_250:\n      mload(0x40)\n      dup1\n      swap2\n      sub\n      swap1\n      revert\n    tag_249:\n        /* \"token_eco_system_dev_contracts/contracts_ready_for_prod/Copy_TokenEcoSystemParticipationV1_3_draft.sol\":3680:3681  0 */\n      0x00\n        /* \"token_eco_system_dev_contracts/contracts_ready_for_prod/Copy_TokenEcoSystemParticipationV1_3_draft.sol\":3658:3682  msg.sender != address(0) */\n      0xffffffffffffffffffffffffffffffffffffffff\n      and\n        /* \"token_eco_system_dev_contracts/contracts_ready_for_prod/Copy_TokenEcoSystemParticipationV1_3_draft.sol\":3658:3668  msg.sender */\n      caller\n        /* \"token_eco_system_dev_contracts/contracts_ready_for_prod/Copy_TokenEcoSystemParticipationV1_3_draft.sol\":3658:3682  msg.sender != address(0) */\n      0xffffffffffffffffffffffffffffffffffffffff\n      and\n      sub\n        /* \"token_eco_system_dev_contracts/contracts_ready_for_prod/Copy_TokenEcoSystemParticipationV1_3_draft.sol\":3650:3683  require(msg.sender != address(0)) */\n      tag_252\n      jumpi\n      0x00\n      dup1\n      revert\n    tag_252:\n        /* \"token_eco_system_dev_contracts/contracts_ready_for_prod/Copy_TokenEcoSystemParticipationV1_3_draft.sol\":3729:3750  acceptedSenderAddress */\n      0x01\n      0x00\n      swap1\n      sload\n      swap1\n      0x0100\n      exp\n      swap1\n      div\n      0xffffffffffffffffffffffffffffffffffffffff\n      and\n        /* \"token_eco_system_dev_contracts/contracts_ready_for_prod/Copy_TokenEcoSystemParticipationV1_3_draft.sol\":3715:3750  msg.sender == acceptedSenderAddress */\n      0xffffffffffffffffffffffffffffffffffffffff\n      and\n        /* \"token_eco_system_dev_contracts/contracts_ready_for_prod/Copy_TokenEcoSystemParticipationV1_3_draft.sol\":3715:3725  msg.sender */\n      caller\n        /* \"token_eco_system_dev_contracts/contracts_ready_for_prod/Copy_TokenEcoSystemParticipationV1_3_draft.sol\":3715:3750  msg.sender == acceptedSenderAddress */\n      0xffffffffffffffffffffffffffffffffffffffff\n      and\n      eq\n        /* \"token_eco_system_dev_contracts/contracts_ready_for_prod/Copy_TokenEcoSystemParticipationV1_3_draft.sol\":3715:3775  msg.sender == acceptedSenderAddress || msg.sender == owner() */\n      dup1\n      tag_253\n      jumpi\n      pop\n        /* \"token_eco_system_dev_contracts/contracts_ready_for_prod/Copy_TokenEcoSystemParticipationV1_3_draft.sol\":3768:3775  owner() */\n      tag_254\n        /* \"token_eco_system_dev_contracts/contracts_ready_for_prod/Copy_TokenEcoSystemParticipationV1_3_draft.sol\":3768:3773  owner */\n      tag_79\n        /* \"token_eco_system_dev_contracts/contracts_ready_for_prod/Copy_TokenEcoSystemParticipationV1_3_draft.sol\":3768:3775  owner() */\n      jump\t// in\n    tag_254:\n        /* \"token_eco_system_dev_contracts/contracts_ready_for_prod/Copy_TokenEcoSystemParticipationV1_3_draft.sol\":3754:3775  msg.sender == owner() */\n      0xffffffffffffffffffffffffffffffffffffffff\n      and\n        /* \"token_eco_system_dev_contracts/contracts_ready_for_prod/Copy_TokenEcoSystemParticipationV1_3_draft.sol\":3754:3764  msg.sender */\n      caller\n        /* \"token_eco_system_dev_contracts/contracts_ready_for_prod/Copy_TokenEcoSystemParticipationV1_3_draft.sol\":3754:3775  msg.sender == owner() */\n      0xffffffffffffffffffffffffffffffffffffffff\n      and\n      eq\n        /* \"token_eco_system_dev_contracts/contracts_ready_for_prod/Copy_TokenEcoSystemParticipationV1_3_draft.sol\":3715:3775  msg.sender == acceptedSenderAddress || msg.sender == owner() */\n    tag_253:\n        /* \"token_eco_system_dev_contracts/contracts_ready_for_prod/Copy_TokenEcoSystemParticipationV1_3_draft.sol\":3693:3866  require(... */\n      tag_255\n      jumpi\n      mload(0x40)\n      0x08c379a000000000000000000000000000000000000000000000000000000000\n      dup2\n      mstore\n      0x04\n      add\n      tag_256\n      swap1\n      tag_180\n      jump\t// in\n    tag_256:\n      mload(0x40)\n      dup1\n      swap2\n      sub\n      swap1\n      revert\n    tag_255:\n        /* \"token_eco_system_dev_contracts/contracts_ready_for_prod/Copy_TokenEcoSystemParticipationV1_3_draft.sol\":11549:11562  pointsBalance */\n      sload(0x04)\n        /* \"token_eco_system_dev_contracts/contracts_ready_for_prod/Copy_TokenEcoSystemParticipationV1_3_draft.sol\":11542:11562  return pointsBalance */\n      swap1\n      pop\n        /* \"token_eco_system_dev_contracts/contracts_ready_for_prod/Copy_TokenEcoSystemParticipationV1_3_draft.sol\":11418:11569  function getPointsBalance()... */\n      swap1\n      jump\t// out\n        /* \"token_eco_system_dev_contracts/contracts_ready_for_prod/Copy_TokenEcoSystemParticipationV1_3_draft.sol\":7617:7760  function checkAllowance() public onlyOwnerOrAuthorized view returns (uint256){... */\n    tag_90:\n        /* \"token_eco_system_dev_contracts/contracts_ready_for_prod/Copy_TokenEcoSystemParticipationV1_3_draft.sol\":7686:7693  uint256 */\n      0x00\n        /* \"token_eco_system_dev_contracts/contracts_ready_for_prod/Copy_TokenEcoSystemParticipationV1_3_draft.sol\":3680:3681  0 */\n      dup1\n        /* \"token_eco_system_dev_contracts/contracts_ready_for_prod/Copy_TokenEcoSystemParticipationV1_3_draft.sol\":3658:3682  msg.sender != address(0) */\n      0xffffffffffffffffffffffffffffffffffffffff\n      and\n        /* \"token_eco_system_dev_contracts/contracts_ready_for_prod/Copy_TokenEcoSystemParticipationV1_3_draft.sol\":3658:3668  msg.sender */\n      caller\n        /* \"token_eco_system_dev_contracts/contracts_ready_for_prod/Copy_TokenEcoSystemParticipationV1_3_draft.sol\":3658:3682  msg.sender != address(0) */\n      0xffffffffffffffffffffffffffffffffffffffff\n      and\n      sub\n        /* \"token_eco_system_dev_contracts/contracts_ready_for_prod/Copy_TokenEcoSystemParticipationV1_3_draft.sol\":3650:3683  require(msg.sender != address(0)) */\n      tag_259\n      jumpi\n      0x00\n      dup1\n      revert\n    tag_259:\n        /* \"token_eco_system_dev_contracts/contracts_ready_for_prod/Copy_TokenEcoSystemParticipationV1_3_draft.sol\":3729:3750  acceptedSenderAddress */\n      0x01\n      0x00\n      swap1\n      sload\n      swap1\n      0x0100\n      exp\n      swap1\n      div\n      0xffffffffffffffffffffffffffffffffffffffff\n      and\n        /* \"token_eco_system_dev_contracts/contracts_ready_for_prod/Copy_TokenEcoSystemParticipationV1_3_draft.sol\":3715:3750  msg.sender == acceptedSenderAddress */\n      0xffffffffffffffffffffffffffffffffffffffff\n      and\n        /* \"token_eco_system_dev_contracts/contracts_ready_for_prod/Copy_TokenEcoSystemParticipationV1_3_draft.sol\":3715:3725  msg.sender */\n      caller\n        /* \"token_eco_system_dev_contracts/contracts_ready_for_prod/Copy_TokenEcoSystemParticipationV1_3_draft.sol\":3715:3750  msg.sender == acceptedSenderAddress */\n      0xffffffffffffffffffffffffffffffffffffffff\n      and\n      eq\n        /* \"token_eco_system_dev_contracts/contracts_ready_for_prod/Copy_TokenEcoSystemParticipationV1_3_draft.sol\":3715:3775  msg.sender == acceptedSenderAddress || msg.sender == owner() */\n      dup1\n      tag_260\n      jumpi\n      pop\n        /* \"token_eco_system_dev_contracts/contracts_ready_for_prod/Copy_TokenEcoSystemParticipationV1_3_draft.sol\":3768:3775  owner() */\n      tag_261\n        /* \"token_eco_system_dev_contracts/contracts_ready_for_prod/Copy_TokenEcoSystemParticipationV1_3_draft.sol\":3768:3773  owner */\n      tag_79\n        /* \"token_eco_system_dev_contracts/contracts_ready_for_prod/Copy_TokenEcoSystemParticipationV1_3_draft.sol\":3768:3775  owner() */\n      jump\t// in\n    tag_261:\n        /* \"token_eco_system_dev_contracts/contracts_ready_for_prod/Copy_TokenEcoSystemParticipationV1_3_draft.sol\":3754:3775  msg.sender == owner() */\n      0xffffffffffffffffffffffffffffffffffffffff\n      and\n        /* \"token_eco_system_dev_contracts/contracts_ready_for_prod/Copy_TokenEcoSystemParticipationV1_3_draft.sol\":3754:3764  msg.sender */\n      caller\n        /* \"token_eco_system_dev_contracts/contracts_ready_for_prod/Copy_TokenEcoSystemParticipationV1_3_draft.sol\":3754:3775  msg.sender == owner() */\n      0xffffffffffffffffffffffffffffffffffffffff\n      and\n      eq\n        /* \"token_eco_system_dev_contracts/contracts_ready_for_prod/Copy_TokenEcoSystemParticipationV1_3_draft.sol\":3715:3775  msg.sender == acceptedSenderAddress || msg.sender == owner() */\n    tag_260:\n        /* \"token_eco_system_dev_contracts/contracts_ready_for_prod/Copy_TokenEcoSystemParticipationV1_3_draft.sol\":3693:3866  require(... */\n      tag_262\n      jumpi\n      mload(0x40)\n      0x08c379a000000000000000000000000000000000000000000000000000000000\n      dup2\n      mstore\n      0x04\n      add\n      tag_263\n      swap1\n      tag_180\n      jump\t// in\n    tag_263:\n      mload(0x40)\n      dup1\n      swap2\n      sub\n      swap1\n      revert\n    tag_262:\n        /* \"token_eco_system_dev_contracts/contracts_ready_for_prod/Copy_TokenEcoSystemParticipationV1_3_draft.sol\":7711:7716  token */\n      immutable(\"0x448072f8ce0e9d09a2030ee35ba0d03fccbd0c61c3623f421061fbafdf5a67a9\")\n        /* \"token_eco_system_dev_contracts/contracts_ready_for_prod/Copy_TokenEcoSystemParticipationV1_3_draft.sol\":7711:7726  token.allowance */\n      0xffffffffffffffffffffffffffffffffffffffff\n      and\n      0xdd62ed3e\n        /* \"token_eco_system_dev_contracts/contracts_ready_for_prod/Copy_TokenEcoSystemParticipationV1_3_draft.sol\":7727:7737  msg.sender */\n      caller\n        /* \"token_eco_system_dev_contracts/contracts_ready_for_prod/Copy_TokenEcoSystemParticipationV1_3_draft.sol\":7747:7751  this */\n      address\n        /* \"token_eco_system_dev_contracts/contracts_ready_for_prod/Copy_TokenEcoSystemParticipationV1_3_draft.sol\":7711:7753  token.allowance(msg.sender, address(this)) */\n      mload(0x40)\n      dup4\n      0xffffffff\n      and\n      0xe0\n      shl\n      dup2\n      mstore\n      0x04\n      add\n      tag_265\n      swap3\n      swap2\n      swap1\n      tag_50\n      jump\t// in\n    tag_265:\n      0x20\n      mload(0x40)\n      dup1\n      dup4\n      sub\n      dup2\n      dup7\n      gas\n      staticcall\n      iszero\n      dup1\n      iszero\n      tag_267\n      jumpi\n      returndatasize\n      0x00\n      dup1\n      returndatacopy\n      revert(0x00, returndatasize)\n    tag_267:\n      pop\n      pop\n      pop\n      pop\n      mload(0x40)\n      returndatasize\n      not(0x1f)\n      0x1f\n      dup3\n      add\n      and\n      dup3\n      add\n      dup1\n      0x40\n      mstore\n      pop\n      dup2\n      add\n      swap1\n      tag_268\n      swap2\n      swap1\n      tag_216\n      jump\t// in\n    tag_268:\n        /* \"token_eco_system_dev_contracts/contracts_ready_for_prod/Copy_TokenEcoSystemParticipationV1_3_draft.sol\":7704:7753  return token.allowance(msg.sender, address(this)) */\n      swap1\n      pop\n        /* \"token_eco_system_dev_contracts/contracts_ready_for_prod/Copy_TokenEcoSystemParticipationV1_3_draft.sol\":7617:7760  function checkAllowance() public onlyOwnerOrAuthorized view returns (uint256){... */\n      swap1\n      jump\t// out\n        /* \"token_eco_system_dev_contracts/contracts_ready_for_prod/Copy_TokenEcoSystemParticipationV1_3_draft.sol\":5556:5643  function viewModulator() public view returns (uint256){... */\n    tag_93:\n        /* \"token_eco_system_dev_contracts/contracts_ready_for_prod/Copy_TokenEcoSystemParticipationV1_3_draft.sol\":5602:5609  uint256 */\n      0x00\n        /* \"token_eco_system_dev_contracts/contracts_ready_for_prod/Copy_TokenEcoSystemParticipationV1_3_draft.sol\":5627:5636  modulator */\n      sload(0x05)\n        /* \"token_eco_system_dev_contracts/contracts_ready_for_prod/Copy_TokenEcoSystemParticipationV1_3_draft.sol\":5620:5636  return modulator */\n      swap1\n      pop\n        /* \"token_eco_system_dev_contracts/contracts_ready_for_prod/Copy_TokenEcoSystemParticipationV1_3_draft.sol\":5556:5643  function viewModulator() public view returns (uint256){... */\n      swap1\n      jump\t// out\n        /* \"token_eco_system_dev_contracts/contracts_ready_for_prod/Copy_TokenEcoSystemParticipationV1_3_draft.sol\":11217:11376  function getTotalPointsGenerated()... */\n    tag_96:\n        /* \"token_eco_system_dev_contracts/contracts_ready_for_prod/Copy_TokenEcoSystemParticipationV1_3_draft.sol\":11325:11332  uint256 */\n      0x00\n        /* \"token_eco_system_dev_contracts/contracts_ready_for_prod/Copy_TokenEcoSystemParticipationV1_3_draft.sol\":3562:3563  0 */\n      dup1\n        /* \"token_eco_system_dev_contracts/contracts_ready_for_prod/Copy_TokenEcoSystemParticipationV1_3_draft.sol\":3529:3564  acceptedSenderAddress != address(0) */\n      0xffffffffffffffffffffffffffffffffffffffff\n      and\n        /* \"token_eco_system_dev_contracts/contracts_ready_for_prod/Copy_TokenEcoSystemParticipationV1_3_draft.sol\":3529:3550  acceptedSenderAddress */\n      0x01\n      0x00\n      swap1\n      sload\n      swap1\n      0x0100\n      exp\n      swap1\n      div\n      0xffffffffffffffffffffffffffffffffffffffff\n      and\n        /* \"token_eco_system_dev_contracts/contracts_ready_for_prod/Copy_TokenEcoSystemParticipationV1_3_draft.sol\":3529:3564  acceptedSenderAddress != address(0) */\n      0xffffffffffffffffffffffffffffffffffffffff\n      and\n      sub\n        /* \"token_eco_system_dev_contracts/contracts_ready_for_prod/Copy_TokenEcoSystemParticipationV1_3_draft.sol\":3521:3583  require(acceptedSenderAddress != address(0), \"Not activated!\") */\n      tag_271\n      jumpi\n      mload(0x40)\n      0x08c379a000000000000000000000000000000000000000000000000000000000\n      dup2\n      mstore\n      0x04\n      add\n      tag_272\n      swap1\n      tag_150\n      jump\t// in\n    tag_272:\n      mload(0x40)\n      dup1\n      swap2\n      sub\n      swap1\n      revert\n    tag_271:\n        /* \"token_eco_system_dev_contracts/contracts_ready_for_prod/Copy_TokenEcoSystemParticipationV1_3_draft.sol\":3680:3681  0 */\n      0x00\n        /* \"token_eco_system_dev_contracts/contracts_ready_for_prod/Copy_TokenEcoSystemParticipationV1_3_draft.sol\":3658:3682  msg.sender != address(0) */\n      0xffffffffffffffffffffffffffffffffffffffff\n      and\n        /* \"token_eco_system_dev_contracts/contracts_ready_for_prod/Copy_TokenEcoSystemParticipationV1_3_draft.sol\":3658:3668  msg.sender */\n      caller\n        /* \"token_eco_system_dev_contracts/contracts_ready_for_prod/Copy_TokenEcoSystemParticipationV1_3_draft.sol\":3658:3682  msg.sender != address(0) */\n      0xffffffffffffffffffffffffffffffffffffffff\n      and\n      sub\n        /* \"token_eco_system_dev_contracts/contracts_ready_for_prod/Copy_TokenEcoSystemParticipationV1_3_draft.sol\":3650:3683  require(msg.sender != address(0)) */\n      tag_274\n      jumpi\n      0x00\n      dup1\n      revert\n    tag_274:\n        /* \"token_eco_system_dev_contracts/contracts_ready_for_prod/Copy_TokenEcoSystemParticipationV1_3_draft.sol\":3729:3750  acceptedSenderAddress */\n      0x01\n      0x00\n      swap1\n      sload\n      swap1\n      0x0100\n      exp\n      swap1\n      div\n      0xffffffffffffffffffffffffffffffffffffffff\n      and\n        /* \"token_eco_system_dev_contracts/contracts_ready_for_prod/Copy_TokenEcoSystemParticipationV1_3_draft.sol\":3715:3750  msg.sender == acceptedSenderAddress */\n      0xffffffffffffffffffffffffffffffffffffffff\n      and\n        /* \"token_eco_system_dev_contracts/contracts_ready_for_prod/Copy_TokenEcoSystemParticipationV1_3_draft.sol\":3715:3725  msg.sender */\n      caller\n        /* \"token_eco_system_dev_contracts/contracts_ready_for_prod/Copy_TokenEcoSystemParticipationV1_3_draft.sol\":3715:3750  msg.sender == acceptedSenderAddress */\n      0xffffffffffffffffffffffffffffffffffffffff\n      and\n      eq\n        /* \"token_eco_system_dev_contracts/contracts_ready_for_prod/Copy_TokenEcoSystemParticipationV1_3_draft.sol\":3715:3775  msg.sender == acceptedSenderAddress || msg.sender == owner() */\n      dup1\n      tag_275\n      jumpi\n      pop\n        /* \"token_eco_system_dev_contracts/contracts_ready_for_prod/Copy_TokenEcoSystemParticipationV1_3_draft.sol\":3768:3775  owner() */\n      tag_276\n        /* \"token_eco_system_dev_contracts/contracts_ready_for_prod/Copy_TokenEcoSystemParticipationV1_3_draft.sol\":3768:3773  owner */\n      tag_79\n        /* \"token_eco_system_dev_contracts/contracts_ready_for_prod/Copy_TokenEcoSystemParticipationV1_3_draft.sol\":3768:3775  owner() */\n      jump\t// in\n    tag_276:\n        /* \"token_eco_system_dev_contracts/contracts_ready_for_prod/Copy_TokenEcoSystemParticipationV1_3_draft.sol\":3754:3775  msg.sender == owner() */\n      0xffffffffffffffffffffffffffffffffffffffff\n      and\n        /* \"token_eco_system_dev_contracts/contracts_ready_for_prod/Copy_TokenEcoSystemParticipationV1_3_draft.sol\":3754:3764  msg.sender */\n      caller\n        /* \"token_eco_system_dev_contracts/contracts_ready_for_prod/Copy_TokenEcoSystemParticipationV1_3_draft.sol\":3754:3775  msg.sender == owner() */\n      0xffffffffffffffffffffffffffffffffffffffff\n      and\n      eq\n        /* \"token_eco_system_dev_contracts/contracts_ready_for_prod/Copy_TokenEcoSystemParticipationV1_3_draft.sol\":3715:3775  msg.sender == acceptedSenderAddress || msg.sender == owner() */\n    tag_275:\n        /* \"token_eco_system_dev_contracts/contracts_ready_for_prod/Copy_TokenEcoSystemParticipationV1_3_draft.sol\":3693:3866  require(... */\n      tag_277\n      jumpi\n      mload(0x40)\n      0x08c379a000000000000000000000000000000000000000000000000000000000\n      dup2\n      mstore\n      0x04\n      add\n      tag_278\n      swap1\n      tag_180\n      jump\t// in\n    tag_278:\n      mload(0x40)\n      dup1\n      swap2\n      sub\n      swap1\n      revert\n    tag_277:\n        /* \"token_eco_system_dev_contracts/contracts_ready_for_prod/Copy_TokenEcoSystemParticipationV1_3_draft.sol\":11355:11369  totalConverted */\n      sload(0x03)\n        /* \"token_eco_system_dev_contracts/contracts_ready_for_prod/Copy_TokenEcoSystemParticipationV1_3_draft.sol\":11348:11369  return totalConverted */\n      swap1\n      pop\n        /* \"token_eco_system_dev_contracts/contracts_ready_for_prod/Copy_TokenEcoSystemParticipationV1_3_draft.sol\":11217:11376  function getTotalPointsGenerated()... */\n      swap1\n      jump\t// out\n        /* \"token_eco_system_dev_contracts/contracts_ready_for_prod/Copy_TokenEcoSystemParticipationV1_3_draft.sol\":10009:10403  function withdraw(uint256 value, bytes32 txHash) public onlyOwner activated {... */\n    tag_101:\n        /* \"@openzeppelin/contracts/access/Ownable.sol\":1094:1107  _checkOwner() */\n      tag_281\n        /* \"@openzeppelin/contracts/access/Ownable.sol\":1094:1105  _checkOwner */\n      tag_131\n        /* \"@openzeppelin/contracts/access/Ownable.sol\":1094:1107  _checkOwner() */\n      jump\t// in\n    tag_281:\n        /* \"token_eco_system_dev_contracts/contracts_ready_for_prod/Copy_TokenEcoSystemParticipationV1_3_draft.sol\":3562:3563  0 */\n      0x00\n        /* \"token_eco_system_dev_contracts/contracts_ready_for_prod/Copy_TokenEcoSystemParticipationV1_3_draft.sol\":3529:3564  acceptedSenderAddress != address(0) */\n      0xffffffffffffffffffffffffffffffffffffffff\n      and\n        /* \"token_eco_system_dev_contracts/contracts_ready_for_prod/Copy_TokenEcoSystemParticipationV1_3_draft.sol\":3529:3550  acceptedSenderAddress */\n      0x01\n      0x00\n      swap1\n      sload\n      swap1\n      0x0100\n      exp\n      swap1\n      div\n      0xffffffffffffffffffffffffffffffffffffffff\n      and\n        /* \"token_eco_system_dev_contracts/contracts_ready_for_prod/Copy_TokenEcoSystemParticipationV1_3_draft.sol\":3529:3564  acceptedSenderAddress != address(0) */\n      0xffffffffffffffffffffffffffffffffffffffff\n      and\n      sub\n        /* \"token_eco_system_dev_contracts/contracts_ready_for_prod/Copy_TokenEcoSystemParticipationV1_3_draft.sol\":3521:3583  require(acceptedSenderAddress != address(0), \"Not activated!\") */\n      tag_283\n      jumpi\n      mload(0x40)\n      0x08c379a000000000000000000000000000000000000000000000000000000000\n      dup2\n      mstore\n      0x04\n      add\n      tag_284\n      swap1\n      tag_150\n      jump\t// in\n    tag_284:\n      mload(0x40)\n      dup1\n      swap2\n      sub\n      swap1\n      revert\n    tag_283:\n        /* \"token_eco_system_dev_contracts/contracts_ready_for_prod/Copy_TokenEcoSystemParticipationV1_3_draft.sol\":10125:10138  pointsBalance */\n      sload(0x04)\n        /* \"token_eco_system_dev_contracts/contracts_ready_for_prod/Copy_TokenEcoSystemParticipationV1_3_draft.sol\":10116:10121  value */\n      dup3\n        /* \"token_eco_system_dev_contracts/contracts_ready_for_prod/Copy_TokenEcoSystemParticipationV1_3_draft.sol\":10116:10138  value <= pointsBalance */\n      gt\n      iszero\n        /* \"token_eco_system_dev_contracts/contracts_ready_for_prod/Copy_TokenEcoSystemParticipationV1_3_draft.sol\":10095:10216  require(... */\n      tag_286\n      jumpi\n      mload(0x40)\n      0x08c379a000000000000000000000000000000000000000000000000000000000\n      dup2\n      mstore\n      0x04\n      add\n      tag_287\n      swap1\n      tag_288\n      jump\t// in\n    tag_287:\n      mload(0x40)\n      dup1\n      swap2\n      sub\n      swap1\n      revert\n    tag_286:\n        /* \"token_eco_system_dev_contracts/contracts_ready_for_prod/Copy_TokenEcoSystemParticipationV1_3_draft.sol\":10242:10243  0 */\n      0x00\n        /* \"token_eco_system_dev_contracts/contracts_ready_for_prod/Copy_TokenEcoSystemParticipationV1_3_draft.sol\":10234:10239  value */\n      dup3\n        /* \"token_eco_system_dev_contracts/contracts_ready_for_prod/Copy_TokenEcoSystemParticipationV1_3_draft.sol\":10234:10243  value > 0 */\n      gt\n        /* \"token_eco_system_dev_contracts/contracts_ready_for_prod/Copy_TokenEcoSystemParticipationV1_3_draft.sol\":10226:10286  require(value > 0, \"Withdraw value must be greater than 0!\") */\n      tag_289\n      jumpi\n      mload(0x40)\n      0x08c379a000000000000000000000000000000000000000000000000000000000\n      dup2\n      mstore\n      0x04\n      add\n      tag_290\n      swap1\n      tag_291\n      jump\t// in\n    tag_290:\n      mload(0x40)\n      dup1\n      swap2\n      sub\n      swap1\n      revert\n    tag_289:\n        /* \"token_eco_system_dev_contracts/contracts_ready_for_prod/Copy_TokenEcoSystemParticipationV1_3_draft.sol\":10327:10348  acceptedSenderAddress */\n      0x01\n      0x00\n      swap1\n      sload\n      swap1\n      0x0100\n      exp\n      swap1\n      div\n      0xffffffffffffffffffffffffffffffffffffffff\n      and\n        /* \"token_eco_system_dev_contracts/contracts_ready_for_prod/Copy_TokenEcoSystemParticipationV1_3_draft.sol\":10301:10364  Withdraw(block.timestamp, acceptedSenderAddress, value, txHash) */\n      0xffffffffffffffffffffffffffffffffffffffff\n      and\n        /* \"token_eco_system_dev_contracts/contracts_ready_for_prod/Copy_TokenEcoSystemParticipationV1_3_draft.sol\":10310:10325  block.timestamp */\n      timestamp\n        /* \"token_eco_system_dev_contracts/contracts_ready_for_prod/Copy_TokenEcoSystemParticipationV1_3_draft.sol\":10301:10364  Withdraw(block.timestamp, acceptedSenderAddress, value, txHash) */\n      0xcb8359f21ffcf3b9c3c2acc9440e249150347b5ae18d588514823b72a98936c9\n        /* \"token_eco_system_dev_contracts/contracts_ready_for_prod/Copy_TokenEcoSystemParticipationV1_3_draft.sol\":10350:10355  value */\n      dup5\n        /* \"token_eco_system_dev_contracts/contracts_ready_for_prod/Copy_TokenEcoSystemParticipationV1_3_draft.sol\":10357:10363  txHash */\n      dup5\n        /* \"token_eco_system_dev_contracts/contracts_ready_for_prod/Copy_TokenEcoSystemParticipationV1_3_draft.sol\":10301:10364  Withdraw(block.timestamp, acceptedSenderAddress, value, txHash) */\n      mload(0x40)\n      tag_292\n      swap3\n      swap2\n      swap1\n      tag_293\n      jump\t// in\n    tag_292:\n      mload(0x40)\n      dup1\n      swap2\n      sub\n      swap1\n      log3\n        /* \"token_eco_system_dev_contracts/contracts_ready_for_prod/Copy_TokenEcoSystemParticipationV1_3_draft.sol\":10391:10396  value */\n      dup2\n        /* \"token_eco_system_dev_contracts/contracts_ready_for_prod/Copy_TokenEcoSystemParticipationV1_3_draft.sol\":10374:10387  pointsBalance */\n      0x04\n      0x00\n        /* \"token_eco_system_dev_contracts/contracts_ready_for_prod/Copy_TokenEcoSystemParticipationV1_3_draft.sol\":10374:10396  pointsBalance -= value */\n      dup3\n      dup3\n      sload\n      tag_294\n      swap2\n      swap1\n      tag_295\n      jump\t// in\n    tag_294:\n      swap3\n      pop\n      pop\n      dup2\n      swap1\n      sstore\n      pop\n        /* \"token_eco_system_dev_contracts/contracts_ready_for_prod/Copy_TokenEcoSystemParticipationV1_3_draft.sol\":10009:10403  function withdraw(uint256 value, bytes32 txHash) public onlyOwner activated {... */\n      pop\n      pop\n      jump\t// out\n        /* \"token_eco_system_dev_contracts/contracts_ready_for_prod/Copy_TokenEcoSystemParticipationV1_3_draft.sol\":11935:12116  function getTokenInfo()... */\n    tag_103:\n        /* \"token_eco_system_dev_contracts/contracts_ready_for_prod/Copy_TokenEcoSystemParticipationV1_3_draft.sol\":12032:12039  address */\n      0x00\n        /* \"token_eco_system_dev_contracts/contracts_ready_for_prod/Copy_TokenEcoSystemParticipationV1_3_draft.sol\":12041:12054  string memory */\n      0x60\n        /* \"token_eco_system_dev_contracts/contracts_ready_for_prod/Copy_TokenEcoSystemParticipationV1_3_draft.sol\":3562:3563  0 */\n      0x00\n        /* \"token_eco_system_dev_contracts/contracts_ready_for_prod/Copy_TokenEcoSystemParticipationV1_3_draft.sol\":3529:3564  acceptedSenderAddress != address(0) */\n      0xffffffffffffffffffffffffffffffffffffffff\n      and\n        /* \"token_eco_system_dev_contracts/contracts_ready_for_prod/Copy_TokenEcoSystemParticipationV1_3_draft.sol\":3529:3550  acceptedSenderAddress */\n      0x01\n      0x00\n      swap1\n      sload\n      swap1\n      0x0100\n      exp\n      swap1\n      div\n      0xffffffffffffffffffffffffffffffffffffffff\n      and\n        /* \"token_eco_system_dev_contracts/contracts_ready_for_prod/Copy_TokenEcoSystemParticipationV1_3_draft.sol\":3529:3564  acceptedSenderAddress != address(0) */\n      0xffffffffffffffffffffffffffffffffffffffff\n      and\n      sub\n        /* \"token_eco_system_dev_contracts/contracts_ready_for_prod/Copy_TokenEcoSystemParticipationV1_3_draft.sol\":3521:3583  require(acceptedSenderAddress != address(0), \"Not activated!\") */\n      tag_297\n      jumpi\n      mload(0x40)\n      0x08c379a000000000000000000000000000000000000000000000000000000000\n      dup2\n      mstore\n      0x04\n      add\n      tag_298\n      swap1\n      tag_150\n      jump\t// in\n    tag_298:\n      mload(0x40)\n      dup1\n      swap2\n      sub\n      swap1\n      revert\n    tag_297:\n        /* \"token_eco_system_dev_contracts/contracts_ready_for_prod/Copy_TokenEcoSystemParticipationV1_3_draft.sol\":3680:3681  0 */\n      0x00\n        /* \"token_eco_system_dev_contracts/contracts_ready_for_prod/Copy_TokenEcoSystemParticipationV1_3_draft.sol\":3658:3682  msg.sender != address(0) */\n      0xffffffffffffffffffffffffffffffffffffffff\n      and\n        /* \"token_eco_system_dev_contracts/contracts_ready_for_prod/Copy_TokenEcoSystemParticipationV1_3_draft.sol\":3658:3668  msg.sender */\n      caller\n        /* \"token_eco_system_dev_contracts/contracts_ready_for_prod/Copy_TokenEcoSystemParticipationV1_3_draft.sol\":3658:3682  msg.sender != address(0) */\n      0xffffffffffffffffffffffffffffffffffffffff\n      and\n      sub\n        /* \"token_eco_system_dev_contracts/contracts_ready_for_prod/Copy_TokenEcoSystemParticipationV1_3_draft.sol\":3650:3683  require(msg.sender != address(0)) */\n      tag_300\n      jumpi\n      0x00\n      dup1\n      revert\n    tag_300:\n        /* \"token_eco_system_dev_contracts/contracts_ready_for_prod/Copy_TokenEcoSystemParticipationV1_3_draft.sol\":3729:3750  acceptedSenderAddress */\n      0x01\n      0x00\n      swap1\n      sload\n      swap1\n      0x0100\n      exp\n      swap1\n      div\n      0xffffffffffffffffffffffffffffffffffffffff\n      and\n        /* \"token_eco_system_dev_contracts/contracts_ready_for_prod/Copy_TokenEcoSystemParticipationV1_3_draft.sol\":3715:3750  msg.sender == acceptedSenderAddress */\n      0xffffffffffffffffffffffffffffffffffffffff\n      and\n        /* \"token_eco_system_dev_contracts/contracts_ready_for_prod/Copy_TokenEcoSystemParticipationV1_3_draft.sol\":3715:3725  msg.sender */\n      caller\n        /* \"token_eco_system_dev_contracts/contracts_ready_for_prod/Copy_TokenEcoSystemParticipationV1_3_draft.sol\":3715:3750  msg.sender == acceptedSenderAddress */\n      0xffffffffffffffffffffffffffffffffffffffff\n      and\n      eq\n        /* \"token_eco_system_dev_contracts/contracts_ready_for_prod/Copy_TokenEcoSystemParticipationV1_3_draft.sol\":3715:3775  msg.sender == acceptedSenderAddress || msg.sender == owner() */\n      dup1\n      tag_301\n      jumpi\n      pop\n        /* \"token_eco_system_dev_contracts/contracts_ready_for_prod/Copy_TokenEcoSystemParticipationV1_3_draft.sol\":3768:3775  owner() */\n      tag_302\n        /* \"token_eco_system_dev_contracts/contracts_ready_for_prod/Copy_TokenEcoSystemParticipationV1_3_draft.sol\":3768:3773  owner */\n      tag_79\n        /* \"token_eco_system_dev_contracts/contracts_ready_for_prod/Copy_TokenEcoSystemParticipationV1_3_draft.sol\":3768:3775  owner() */\n      jump\t// in\n    tag_302:\n        /* \"token_eco_system_dev_contracts/contracts_ready_for_prod/Copy_TokenEcoSystemParticipationV1_3_draft.sol\":3754:3775  msg.sender == owner() */\n      0xffffffffffffffffffffffffffffffffffffffff\n      and\n        /* \"token_eco_system_dev_contracts/contracts_ready_for_prod/Copy_TokenEcoSystemParticipationV1_3_draft.sol\":3754:3764  msg.sender */\n      caller\n        /* \"token_eco_system_dev_contracts/contracts_ready_for_prod/Copy_TokenEcoSystemParticipationV1_3_draft.sol\":3754:3775  msg.sender == owner() */\n      0xffffffffffffffffffffffffffffffffffffffff\n      and\n      eq\n        /* \"token_eco_system_dev_contracts/contracts_ready_for_prod/Copy_TokenEcoSystemParticipationV1_3_draft.sol\":3715:3775  msg.sender == acceptedSenderAddress || msg.sender == owner() */\n    tag_301:\n        /* \"token_eco_system_dev_contracts/contracts_ready_for_prod/Copy_TokenEcoSystemParticipationV1_3_draft.sol\":3693:3866  require(... */\n      tag_303\n      jumpi\n      mload(0x40)\n      0x08c379a000000000000000000000000000000000000000000000000000000000\n      dup2\n      mstore\n      0x04\n      add\n      tag_304\n      swap1\n      tag_180\n      jump\t// in\n    tag_304:\n      mload(0x40)\n      dup1\n      swap2\n      sub\n      swap1\n      revert\n    tag_303:\n        /* \"token_eco_system_dev_contracts/contracts_ready_for_prod/Copy_TokenEcoSystemParticipationV1_3_draft.sol\":12086:12091  token */\n      immutable(\"0x448072f8ce0e9d09a2030ee35ba0d03fccbd0c61c3623f421061fbafdf5a67a9\")\n        /* \"token_eco_system_dev_contracts/contracts_ready_for_prod/Copy_TokenEcoSystemParticipationV1_3_draft.sol\":12094:12099  token */\n      immutable(\"0x448072f8ce0e9d09a2030ee35ba0d03fccbd0c61c3623f421061fbafdf5a67a9\")\n        /* \"token_eco_system_dev_contracts/contracts_ready_for_prod/Copy_TokenEcoSystemParticipationV1_3_draft.sol\":12094:12106  token.symbol */\n      0xffffffffffffffffffffffffffffffffffffffff\n      and\n      0x95d89b41\n        /* \"token_eco_system_dev_contracts/contracts_ready_for_prod/Copy_TokenEcoSystemParticipationV1_3_draft.sol\":12094:12108  token.symbol() */\n      mload(0x40)\n      dup2\n      0xffffffff\n      and\n      0xe0\n      shl\n      dup2\n      mstore\n      0x04\n      add\n      0x00\n      mload(0x40)\n      dup1\n      dup4\n      sub\n      dup2\n      dup7\n      gas\n      staticcall\n      iszero\n      dup1\n      iszero\n      tag_307\n      jumpi\n      returndatasize\n      0x00\n      dup1\n      returndatacopy\n      revert(0x00, returndatasize)\n    tag_307:\n      pop\n      pop\n      pop\n      pop\n      mload(0x40)\n      returndatasize\n      0x00\n      dup3\n      returndatacopy\n      returndatasize\n      not(0x1f)\n      0x1f\n      dup3\n      add\n      and\n      dup3\n      add\n      dup1\n      0x40\n      mstore\n      pop\n      dup2\n      add\n      swap1\n      tag_308\n      swap2\n      swap1\n      tag_309\n      jump\t// in\n    tag_308:\n        /* \"token_eco_system_dev_contracts/contracts_ready_for_prod/Copy_TokenEcoSystemParticipationV1_3_draft.sol\":12070:12109  return (address(token), token.symbol()) */\n      swap2\n      pop\n      swap2\n      pop\n        /* \"token_eco_system_dev_contracts/contracts_ready_for_prod/Copy_TokenEcoSystemParticipationV1_3_draft.sol\":11935:12116  function getTokenInfo()... */\n      swap1\n      swap2\n      jump\t// out\n        /* \"token_eco_system_dev_contracts/contracts_ready_for_prod/Copy_TokenEcoSystemParticipationV1_3_draft.sol\":6044:6271  function addNewPoolRateFeed(address consumerInterfaceAddress)... */\n    tag_108:\n        /* \"@openzeppelin/contracts/access/Ownable.sol\":1094:1107  _checkOwner() */\n      tag_311\n        /* \"@openzeppelin/contracts/access/Ownable.sol\":1094:1105  _checkOwner */\n      tag_131\n        /* \"@openzeppelin/contracts/access/Ownable.sol\":1094:1107  _checkOwner() */\n      jump\t// in\n    tag_311:\n        /* \"token_eco_system_dev_contracts/contracts_ready_for_prod/Copy_TokenEcoSystemParticipationV1_3_draft.sol\":6189:6190  0 */\n      0x00\n        /* \"token_eco_system_dev_contracts/contracts_ready_for_prod/Copy_TokenEcoSystemParticipationV1_3_draft.sol\":6153:6191  consumerInterfaceAddress != address(0) */\n      0xffffffffffffffffffffffffffffffffffffffff\n      and\n        /* \"token_eco_system_dev_contracts/contracts_ready_for_prod/Copy_TokenEcoSystemParticipationV1_3_draft.sol\":6153:6177  consumerInterfaceAddress */\n      dup2\n        /* \"token_eco_system_dev_contracts/contracts_ready_for_prod/Copy_TokenEcoSystemParticipationV1_3_draft.sol\":6153:6191  consumerInterfaceAddress != address(0) */\n      0xffffffffffffffffffffffffffffffffffffffff\n      and\n      sub\n        /* \"token_eco_system_dev_contracts/contracts_ready_for_prod/Copy_TokenEcoSystemParticipationV1_3_draft.sol\":6145:6192  require(consumerInterfaceAddress != address(0)) */\n      tag_313\n      jumpi\n      0x00\n      dup1\n      revert\n    tag_313:\n        /* \"token_eco_system_dev_contracts/contracts_ready_for_prod/Copy_TokenEcoSystemParticipationV1_3_draft.sol\":6239:6263  consumerInterfaceAddress */\n      dup1\n        /* \"token_eco_system_dev_contracts/contracts_ready_for_prod/Copy_TokenEcoSystemParticipationV1_3_draft.sol\":6202:6214  poolConsumer */\n      0x07\n      0x00\n        /* \"token_eco_system_dev_contracts/contracts_ready_for_prod/Copy_TokenEcoSystemParticipationV1_3_draft.sol\":6202:6264  poolConsumer = PoolConsumerInterface(consumerInterfaceAddress) */\n      0x0100\n      exp\n      dup2\n      sload\n      dup2\n      0xffffffffffffffffffffffffffffffffffffffff\n      mul\n      not\n      and\n      swap1\n      dup4\n      0xffffffffffffffffffffffffffffffffffffffff\n      and\n      mul\n      or\n      swap1\n      sstore\n      pop\n        /* \"token_eco_system_dev_contracts/contracts_ready_for_prod/Copy_TokenEcoSystemParticipationV1_3_draft.sol\":6044:6271  function addNewPoolRateFeed(address consumerInterfaceAddress)... */\n      pop\n      jump\t// out\n        /* \"token_eco_system_dev_contracts/contracts_ready_for_prod/Copy_TokenEcoSystemParticipationV1_3_draft.sol\":9367:9542  function balanceOfToken(address tokenAddress)... */\n    tag_111:\n        /* \"token_eco_system_dev_contracts/contracts_ready_for_prod/Copy_TokenEcoSystemParticipationV1_3_draft.sol\":9460:9467  uint256 */\n      0x00\n        /* \"@openzeppelin/contracts/access/Ownable.sol\":1094:1107  _checkOwner() */\n      tag_315\n        /* \"@openzeppelin/contracts/access/Ownable.sol\":1094:1105  _checkOwner */\n      tag_131\n        /* \"@openzeppelin/contracts/access/Ownable.sol\":1094:1107  _checkOwner() */\n      jump\t// in\n    tag_315:\n        /* \"token_eco_system_dev_contracts/contracts_ready_for_prod/Copy_TokenEcoSystemParticipationV1_3_draft.sol\":9497:9509  tokenAddress */\n      dup2\n        /* \"token_eco_system_dev_contracts/contracts_ready_for_prod/Copy_TokenEcoSystemParticipationV1_3_draft.sol\":9490:9520  IERC20(tokenAddress).balanceOf */\n      0xffffffffffffffffffffffffffffffffffffffff\n      and\n      0x70a08231\n        /* \"token_eco_system_dev_contracts/contracts_ready_for_prod/Copy_TokenEcoSystemParticipationV1_3_draft.sol\":9529:9533  this */\n      address\n        /* \"token_eco_system_dev_contracts/contracts_ready_for_prod/Copy_TokenEcoSystemParticipationV1_3_draft.sol\":9490:9535  IERC20(tokenAddress).balanceOf(address(this)) */\n      mload(0x40)\n      dup3\n      0xffffffff\n      and\n      0xe0\n      shl\n      dup2\n      mstore\n      0x04\n      add\n      tag_317\n      swap2\n      swap1\n      tag_81\n      jump\t// in\n    tag_317:\n      0x20\n      mload(0x40)\n      dup1\n      dup4\n      sub\n      dup2\n      dup7\n      gas\n      staticcall\n      iszero\n      dup1\n      iszero\n      tag_319\n      jumpi\n      returndatasize\n      0x00\n      dup1\n      returndatacopy\n      revert(0x00, returndatasize)\n    tag_319:\n      pop\n      pop\n      pop\n      pop\n      mload(0x40)\n      returndatasize\n      not(0x1f)\n      0x1f\n      dup3\n      add\n      and\n      dup3\n      add\n      dup1\n      0x40\n      mstore\n      pop\n      dup2\n      add\n      swap1\n      tag_320\n      swap2\n      swap1\n      tag_216\n      jump\t// in\n    tag_320:\n        /* \"token_eco_system_dev_contracts/contracts_ready_for_prod/Copy_TokenEcoSystemParticipationV1_3_draft.sol\":9483:9535  return IERC20(tokenAddress).balanceOf(address(this)) */\n      swap1\n      pop\n        /* \"token_eco_system_dev_contracts/contracts_ready_for_prod/Copy_TokenEcoSystemParticipationV1_3_draft.sol\":9367:9542  function balanceOfToken(address tokenAddress)... */\n      swap2\n      swap1\n      pop\n      jump\t// out\n        /* \"token_eco_system_dev_contracts/contracts_ready_for_prod/Copy_TokenEcoSystemParticipationV1_3_draft.sol\":6865:7149  function currentRateFeed() public view returns (string memory, address) {... */\n    tag_114:\n        /* \"token_eco_system_dev_contracts/contracts_ready_for_prod/Copy_TokenEcoSystemParticipationV1_3_draft.sol\":6913:6926  string memory */\n      0x60\n        /* \"token_eco_system_dev_contracts/contracts_ready_for_prod/Copy_TokenEcoSystemParticipationV1_3_draft.sol\":6928:6935  address */\n      0x00\n        /* \"token_eco_system_dev_contracts/contracts_ready_for_prod/Copy_TokenEcoSystemParticipationV1_3_draft.sol\":6947:6965  string memory feed */\n      dup1\n        /* \"token_eco_system_dev_contracts/contracts_ready_for_prod/Copy_TokenEcoSystemParticipationV1_3_draft.sol\":6968:6981  currentFeed() */\n      tag_322\n        /* \"token_eco_system_dev_contracts/contracts_ready_for_prod/Copy_TokenEcoSystemParticipationV1_3_draft.sol\":6968:6979  currentFeed */\n      tag_323\n        /* \"token_eco_system_dev_contracts/contracts_ready_for_prod/Copy_TokenEcoSystemParticipationV1_3_draft.sol\":6968:6981  currentFeed() */\n      jump\t// in\n    tag_322:\n        /* \"token_eco_system_dev_contracts/contracts_ready_for_prod/Copy_TokenEcoSystemParticipationV1_3_draft.sol\":6947:6981  string memory feed = currentFeed() */\n      swap1\n      pop\n        /* \"token_eco_system_dev_contracts/contracts_ready_for_prod/Copy_TokenEcoSystemParticipationV1_3_draft.sol\":6995:7007  poolRateFeed */\n      0x01\n      0x14\n      swap1\n      sload\n      swap1\n      0x0100\n      exp\n      swap1\n      div\n      0xff\n      and\n        /* \"token_eco_system_dev_contracts/contracts_ready_for_prod/Copy_TokenEcoSystemParticipationV1_3_draft.sol\":6991:7143  if (poolRateFeed) {... */\n      iszero\n      tag_324\n      jumpi\n        /* \"token_eco_system_dev_contracts/contracts_ready_for_prod/Copy_TokenEcoSystemParticipationV1_3_draft.sol\":7031:7035  feed */\n      dup1\n        /* \"token_eco_system_dev_contracts/contracts_ready_for_prod/Copy_TokenEcoSystemParticipationV1_3_draft.sol\":7045:7057  poolConsumer */\n      0x07\n      0x00\n      swap1\n      sload\n      swap1\n      0x0100\n      exp\n      swap1\n      div\n      0xffffffffffffffffffffffffffffffffffffffff\n      and\n        /* \"token_eco_system_dev_contracts/contracts_ready_for_prod/Copy_TokenEcoSystemParticipationV1_3_draft.sol\":7023:7059  return (feed, address(poolConsumer)) */\n      swap3\n      pop\n      swap3\n      pop\n      pop\n      jump(tag_321)\n        /* \"token_eco_system_dev_contracts/contracts_ready_for_prod/Copy_TokenEcoSystemParticipationV1_3_draft.sol\":6991:7143  if (poolRateFeed) {... */\n    tag_324:\n        /* \"token_eco_system_dev_contracts/contracts_ready_for_prod/Copy_TokenEcoSystemParticipationV1_3_draft.sol\":7098:7102  feed */\n      dup1\n        /* \"token_eco_system_dev_contracts/contracts_ready_for_prod/Copy_TokenEcoSystemParticipationV1_3_draft.sol\":7112:7130  aggregatorConsumer */\n      0x06\n      0x00\n      swap1\n      sload\n      swap1\n      0x0100\n      exp\n      swap1\n      div\n      0xffffffffffffffffffffffffffffffffffffffff\n      and\n        /* \"token_eco_system_dev_contracts/contracts_ready_for_prod/Copy_TokenEcoSystemParticipationV1_3_draft.sol\":7090:7132  return (feed, address(aggregatorConsumer)) */\n      swap3\n      pop\n      swap3\n      pop\n      pop\n        /* \"token_eco_system_dev_contracts/contracts_ready_for_prod/Copy_TokenEcoSystemParticipationV1_3_draft.sol\":6865:7149  function currentRateFeed() public view returns (string memory, address) {... */\n    tag_321:\n      swap1\n      swap2\n      jump\t// out\n        /* \"token_eco_system_dev_contracts/contracts_ready_for_prod/Copy_TokenEcoSystemParticipationV1_3_draft.sol\":6346:6818  function changeRateFeed() public onlyOwner {... */\n    tag_118:\n        /* \"@openzeppelin/contracts/access/Ownable.sol\":1094:1107  _checkOwner() */\n      tag_327\n        /* \"@openzeppelin/contracts/access/Ownable.sol\":1094:1105  _checkOwner */\n      tag_131\n        /* \"@openzeppelin/contracts/access/Ownable.sol\":1094:1107  _checkOwner() */\n      jump\t// in\n    tag_327:\n        /* \"token_eco_system_dev_contracts/contracts_ready_for_prod/Copy_TokenEcoSystemParticipationV1_3_draft.sol\":6403:6415  poolRateFeed */\n      0x01\n      0x14\n      swap1\n      sload\n      swap1\n      0x0100\n      exp\n      swap1\n      div\n      0xff\n      and\n        /* \"token_eco_system_dev_contracts/contracts_ready_for_prod/Copy_TokenEcoSystemParticipationV1_3_draft.sol\":6399:6774  if (poolRateFeed) {... */\n      iszero\n      tag_329\n      jumpi\n        /* \"token_eco_system_dev_contracts/contracts_ready_for_prod/Copy_TokenEcoSystemParticipationV1_3_draft.sol\":6456:6468  poolRateFeed */\n      0x01\n      0x14\n      swap1\n      sload\n      swap1\n      0x0100\n      exp\n      swap1\n      div\n      0xff\n      and\n        /* \"token_eco_system_dev_contracts/contracts_ready_for_prod/Copy_TokenEcoSystemParticipationV1_3_draft.sol\":6456:6515  poolRateFeed && (address(aggregatorConsumer) != address(0)) */\n      dup1\n      iszero\n      tag_330\n      jumpi\n      pop\n        /* \"token_eco_system_dev_contracts/contracts_ready_for_prod/Copy_TokenEcoSystemParticipationV1_3_draft.sol\":6512:6513  0 */\n      0x00\n        /* \"token_eco_system_dev_contracts/contracts_ready_for_prod/Copy_TokenEcoSystemParticipationV1_3_draft.sol\":6473:6514  address(aggregatorConsumer) != address(0) */\n      0xffffffffffffffffffffffffffffffffffffffff\n      and\n        /* \"token_eco_system_dev_contracts/contracts_ready_for_prod/Copy_TokenEcoSystemParticipationV1_3_draft.sol\":6481:6499  aggregatorConsumer */\n      0x06\n      0x00\n      swap1\n      sload\n      swap1\n      0x0100\n      exp\n      swap1\n      div\n      0xffffffffffffffffffffffffffffffffffffffff\n      and\n        /* \"token_eco_system_dev_contracts/contracts_ready_for_prod/Copy_TokenEcoSystemParticipationV1_3_draft.sol\":6473:6514  address(aggregatorConsumer) != address(0) */\n      0xffffffffffffffffffffffffffffffffffffffff\n      and\n      eq\n      iszero\n        /* \"token_eco_system_dev_contracts/contracts_ready_for_prod/Copy_TokenEcoSystemParticipationV1_3_draft.sol\":6456:6515  poolRateFeed && (address(aggregatorConsumer) != address(0)) */\n    tag_330:\n        /* \"token_eco_system_dev_contracts/contracts_ready_for_prod/Copy_TokenEcoSystemParticipationV1_3_draft.sol\":6431:6587  require(... */\n      tag_331\n      jumpi\n      mload(0x40)\n      0x08c379a000000000000000000000000000000000000000000000000000000000\n      dup2\n      mstore\n      0x04\n      add\n      tag_332\n      swap1\n      tag_333\n      jump\t// in\n    tag_332:\n      mload(0x40)\n      dup1\n      swap2\n      sub\n      swap1\n      revert\n    tag_331:\n        /* \"token_eco_system_dev_contracts/contracts_ready_for_prod/Copy_TokenEcoSystemParticipationV1_3_draft.sol\":6399:6774  if (poolRateFeed) {... */\n      jump(tag_334)\n    tag_329:\n        /* \"token_eco_system_dev_contracts/contracts_ready_for_prod/Copy_TokenEcoSystemParticipationV1_3_draft.sol\":6644:6656  poolRateFeed */\n      0x01\n      0x14\n      swap1\n      sload\n      swap1\n      0x0100\n      exp\n      swap1\n      div\n      0xff\n      and\n        /* \"token_eco_system_dev_contracts/contracts_ready_for_prod/Copy_TokenEcoSystemParticipationV1_3_draft.sol\":6643:6656  !poolRateFeed */\n      iszero\n        /* \"token_eco_system_dev_contracts/contracts_ready_for_prod/Copy_TokenEcoSystemParticipationV1_3_draft.sol\":6643:6697  !poolRateFeed && (address(poolConsumer) != address(0)) */\n      dup1\n      iszero\n      tag_335\n      jumpi\n      pop\n        /* \"token_eco_system_dev_contracts/contracts_ready_for_prod/Copy_TokenEcoSystemParticipationV1_3_draft.sol\":6694:6695  0 */\n      0x00\n        /* \"token_eco_system_dev_contracts/contracts_ready_for_prod/Copy_TokenEcoSystemParticipationV1_3_draft.sol\":6661:6696  address(poolConsumer) != address(0) */\n      0xffffffffffffffffffffffffffffffffffffffff\n      and\n        /* \"token_eco_system_dev_contracts/contracts_ready_for_prod/Copy_TokenEcoSystemParticipationV1_3_draft.sol\":6669:6681  poolConsumer */\n      0x07\n      0x00\n      swap1\n      sload\n      swap1\n      0x0100\n      exp\n      swap1\n      div\n      0xffffffffffffffffffffffffffffffffffffffff\n      and\n        /* \"token_eco_system_dev_contracts/contracts_ready_for_prod/Copy_TokenEcoSystemParticipationV1_3_draft.sol\":6661:6696  address(poolConsumer) != address(0) */\n      0xffffffffffffffffffffffffffffffffffffffff\n      and\n      eq\n      iszero\n        /* \"token_eco_system_dev_contracts/contracts_ready_for_prod/Copy_TokenEcoSystemParticipationV1_3_draft.sol\":6643:6697  !poolRateFeed && (address(poolConsumer) != address(0)) */\n    tag_335:\n        /* \"token_eco_system_dev_contracts/contracts_ready_for_prod/Copy_TokenEcoSystemParticipationV1_3_draft.sol\":6618:6763  require(... */\n      tag_336\n      jumpi\n      mload(0x40)\n      0x08c379a000000000000000000000000000000000000000000000000000000000\n      dup2\n      mstore\n      0x04\n      add\n      tag_337\n      swap1\n      tag_338\n      jump\t// in\n    tag_337:\n      mload(0x40)\n      dup1\n      swap2\n      sub\n      swap1\n      revert\n    tag_336:\n        /* \"token_eco_system_dev_contracts/contracts_ready_for_prod/Copy_TokenEcoSystemParticipationV1_3_draft.sol\":6399:6774  if (poolRateFeed) {... */\n    tag_334:\n        /* \"token_eco_system_dev_contracts/contracts_ready_for_prod/Copy_TokenEcoSystemParticipationV1_3_draft.sol\":6799:6811  poolRateFeed */\n      0x01\n      0x14\n      swap1\n      sload\n      swap1\n      0x0100\n      exp\n      swap1\n      div\n      0xff\n      and\n        /* \"token_eco_system_dev_contracts/contracts_ready_for_prod/Copy_TokenEcoSystemParticipationV1_3_draft.sol\":6798:6811  !poolRateFeed */\n      iszero\n        /* \"token_eco_system_dev_contracts/contracts_ready_for_prod/Copy_TokenEcoSystemParticipationV1_3_draft.sol\":6783:6795  poolRateFeed */\n      0x01\n      0x14\n        /* \"token_eco_system_dev_contracts/contracts_ready_for_prod/Copy_TokenEcoSystemParticipationV1_3_draft.sol\":6783:6811  poolRateFeed = !poolRateFeed */\n      0x0100\n      exp\n      dup2\n      sload\n      dup2\n      0xff\n      mul\n      not\n      and\n      swap1\n      dup4\n      iszero\n      iszero\n      mul\n      or\n      swap1\n      sstore\n      pop\n        /* \"token_eco_system_dev_contracts/contracts_ready_for_prod/Copy_TokenEcoSystemParticipationV1_3_draft.sol\":6346:6818  function changeRateFeed() public onlyOwner {... */\n      jump\t// out\n        /* \"token_eco_system_dev_contracts/contracts_ready_for_prod/Copy_TokenEcoSystemParticipationV1_3_draft.sol\":7891:9013  function chargeContract(uint256 amount)... */\n    tag_121:\n        /* \"token_eco_system_dev_contracts/contracts_ready_for_prod/Copy_TokenEcoSystemParticipationV1_3_draft.sol\":8013:8017  bool */\n      0x00\n        /* \"@openzeppelin/contracts/security/Pausable.sol\":1239:1258  _requireNotPaused() */\n      tag_340\n        /* \"@openzeppelin/contracts/security/Pausable.sol\":1239:1256  _requireNotPaused */\n      tag_137\n        /* \"@openzeppelin/contracts/security/Pausable.sol\":1239:1258  _requireNotPaused() */\n      jump\t// in\n    tag_340:\n        /* \"token_eco_system_dev_contracts/contracts_ready_for_prod/Copy_TokenEcoSystemParticipationV1_3_draft.sol\":3562:3563  0 */\n      0x00\n        /* \"token_eco_system_dev_contracts/contracts_ready_for_prod/Copy_TokenEcoSystemParticipationV1_3_draft.sol\":3529:3564  acceptedSenderAddress != address(0) */\n      0xffffffffffffffffffffffffffffffffffffffff\n      and\n        /* \"token_eco_system_dev_contracts/contracts_ready_for_prod/Copy_TokenEcoSystemParticipationV1_3_draft.sol\":3529:3550  acceptedSenderAddress */\n      0x01\n      0x00\n      swap1\n      sload\n      swap1\n      0x0100\n      exp\n      swap1\n      div\n      0xffffffffffffffffffffffffffffffffffffffff\n      and\n        /* \"token_eco_system_dev_contracts/contracts_ready_for_prod/Copy_TokenEcoSystemParticipationV1_3_draft.sol\":3529:3564  acceptedSenderAddress != address(0) */\n      0xffffffffffffffffffffffffffffffffffffffff\n      and\n      sub\n        /* \"token_eco_system_dev_contracts/contracts_ready_for_prod/Copy_TokenEcoSystemParticipationV1_3_draft.sol\":3521:3583  require(acceptedSenderAddress != address(0), \"Not activated!\") */\n      tag_342\n      jumpi\n      mload(0x40)\n      0x08c379a000000000000000000000000000000000000000000000000000000000\n      dup2\n      mstore\n      0x04\n      add\n      tag_343\n      swap1\n      tag_150\n      jump\t// in\n    tag_343:\n      mload(0x40)\n      dup1\n      swap2\n      sub\n      swap1\n      revert\n    tag_342:\n        /* \"token_eco_system_dev_contracts/contracts_ready_for_prod/Copy_TokenEcoSystemParticipationV1_3_draft.sol\":3680:3681  0 */\n      0x00\n        /* \"token_eco_system_dev_contracts/contracts_ready_for_prod/Copy_TokenEcoSystemParticipationV1_3_draft.sol\":3658:3682  msg.sender != address(0) */\n      0xffffffffffffffffffffffffffffffffffffffff\n      and\n        /* \"token_eco_system_dev_contracts/contracts_ready_for_prod/Copy_TokenEcoSystemParticipationV1_3_draft.sol\":3658:3668  msg.sender */\n      caller\n        /* \"token_eco_system_dev_contracts/contracts_ready_for_prod/Copy_TokenEcoSystemParticipationV1_3_draft.sol\":3658:3682  msg.sender != address(0) */\n      0xffffffffffffffffffffffffffffffffffffffff\n      and\n      sub\n        /* \"token_eco_system_dev_contracts/contracts_ready_for_prod/Copy_TokenEcoSystemParticipationV1_3_draft.sol\":3650:3683  require(msg.sender != address(0)) */\n      tag_345\n      jumpi\n      0x00\n      dup1\n      revert\n    tag_345:\n        /* \"token_eco_system_dev_contracts/contracts_ready_for_prod/Copy_TokenEcoSystemParticipationV1_3_draft.sol\":3729:3750  acceptedSenderAddress */\n      0x01\n      0x00\n      swap1\n      sload\n      swap1\n      0x0100\n      exp\n      swap1\n      div\n      0xffffffffffffffffffffffffffffffffffffffff\n      and\n        /* \"token_eco_system_dev_contracts/contracts_ready_for_prod/Copy_TokenEcoSystemParticipationV1_3_draft.sol\":3715:3750  msg.sender == acceptedSenderAddress */\n      0xffffffffffffffffffffffffffffffffffffffff\n      and\n        /* \"token_eco_system_dev_contracts/contracts_ready_for_prod/Copy_TokenEcoSystemParticipationV1_3_draft.sol\":3715:3725  msg.sender */\n      caller\n        /* \"token_eco_system_dev_contracts/contracts_ready_for_prod/Copy_TokenEcoSystemParticipationV1_3_draft.sol\":3715:3750  msg.sender == acceptedSenderAddress */\n      0xffffffffffffffffffffffffffffffffffffffff\n      and\n      eq\n        /* \"token_eco_system_dev_contracts/contracts_ready_for_prod/Copy_TokenEcoSystemParticipationV1_3_draft.sol\":3715:3775  msg.sender == acceptedSenderAddress || msg.sender == owner() */\n      dup1\n      tag_346\n      jumpi\n      pop\n        /* \"token_eco_system_dev_contracts/contracts_ready_for_prod/Copy_TokenEcoSystemParticipationV1_3_draft.sol\":3768:3775  owner() */\n      tag_347\n        /* \"token_eco_system_dev_contracts/contracts_ready_for_prod/Copy_TokenEcoSystemParticipationV1_3_draft.sol\":3768:3773  owner */\n      tag_79\n        /* \"token_eco_system_dev_contracts/contracts_ready_for_prod/Copy_TokenEcoSystemParticipationV1_3_draft.sol\":3768:3775  owner() */\n      jump\t// in\n    tag_347:\n        /* \"token_eco_system_dev_contracts/contracts_ready_for_prod/Copy_TokenEcoSystemParticipationV1_3_draft.sol\":3754:3775  msg.sender == owner() */\n      0xffffffffffffffffffffffffffffffffffffffff\n      and\n        /* \"token_eco_system_dev_contracts/contracts_ready_for_prod/Copy_TokenEcoSystemParticipationV1_3_draft.sol\":3754:3764  msg.sender */\n      caller\n        /* \"token_eco_system_dev_contracts/contracts_ready_for_prod/Copy_TokenEcoSystemParticipationV1_3_draft.sol\":3754:3775  msg.sender == owner() */\n      0xffffffffffffffffffffffffffffffffffffffff\n      and\n      eq\n        /* \"token_eco_system_dev_contracts/contracts_ready_for_prod/Copy_TokenEcoSystemParticipationV1_3_draft.sol\":3715:3775  msg.sender == acceptedSenderAddress || msg.sender == owner() */\n    tag_346:\n        /* \"token_eco_system_dev_contracts/contracts_ready_for_prod/Copy_TokenEcoSystemParticipationV1_3_draft.sol\":3693:3866  require(... */\n      tag_348\n      jumpi\n      mload(0x40)\n      0x08c379a000000000000000000000000000000000000000000000000000000000\n      dup2\n      mstore\n      0x04\n      add\n      tag_349\n      swap1\n      tag_180\n      jump\t// in\n    tag_349:\n      mload(0x40)\n      dup1\n      swap2\n      sub\n      swap1\n      revert\n    tag_348:\n        /* \"token_eco_system_dev_contracts/contracts_ready_for_prod/Copy_TokenEcoSystemParticipationV1_3_draft.sol\":8050:8051  0 */\n      0x00\n        /* \"token_eco_system_dev_contracts/contracts_ready_for_prod/Copy_TokenEcoSystemParticipationV1_3_draft.sol\":8041:8047  amount */\n      dup3\n        /* \"token_eco_system_dev_contracts/contracts_ready_for_prod/Copy_TokenEcoSystemParticipationV1_3_draft.sol\":8041:8051  amount > 0 */\n      gt\n        /* \"token_eco_system_dev_contracts/contracts_ready_for_prod/Copy_TokenEcoSystemParticipationV1_3_draft.sol\":8033:8073  require(amount > 0, \"No charge amount!\") */\n      tag_351\n      jumpi\n      mload(0x40)\n      0x08c379a000000000000000000000000000000000000000000000000000000000\n      dup2\n      mstore\n      0x04\n      add\n      tag_352\n      swap1\n      tag_353\n      jump\t// in\n    tag_352:\n      mload(0x40)\n      dup1\n      swap2\n      sub\n      swap1\n      revert\n    tag_351:\n        /* \"token_eco_system_dev_contracts/contracts_ready_for_prod/Copy_TokenEcoSystemParticipationV1_3_draft.sol\":8124:8130  amount */\n      dup2\n        /* \"token_eco_system_dev_contracts/contracts_ready_for_prod/Copy_TokenEcoSystemParticipationV1_3_draft.sol\":8104:8120  checkAllowance() */\n      tag_354\n        /* \"token_eco_system_dev_contracts/contracts_ready_for_prod/Copy_TokenEcoSystemParticipationV1_3_draft.sol\":8104:8118  checkAllowance */\n      tag_90\n        /* \"token_eco_system_dev_contracts/contracts_ready_for_prod/Copy_TokenEcoSystemParticipationV1_3_draft.sol\":8104:8120  checkAllowance() */\n      jump\t// in\n    tag_354:\n        /* \"token_eco_system_dev_contracts/contracts_ready_for_prod/Copy_TokenEcoSystemParticipationV1_3_draft.sol\":8104:8130  checkAllowance() >= amount */\n      lt\n      iszero\n        /* \"token_eco_system_dev_contracts/contracts_ready_for_prod/Copy_TokenEcoSystemParticipationV1_3_draft.sol\":8172:8177  token */\n      immutable(\"0x448072f8ce0e9d09a2030ee35ba0d03fccbd0c61c3623f421061fbafdf5a67a9\")\n        /* \"token_eco_system_dev_contracts/contracts_ready_for_prod/Copy_TokenEcoSystemParticipationV1_3_draft.sol\":8172:8184  token.symbol */\n      0xffffffffffffffffffffffffffffffffffffffff\n      and\n      0x95d89b41\n        /* \"token_eco_system_dev_contracts/contracts_ready_for_prod/Copy_TokenEcoSystemParticipationV1_3_draft.sol\":8172:8186  token.symbol() */\n      mload(0x40)\n      dup2\n      0xffffffff\n      and\n      0xe0\n      shl\n      dup2\n      mstore\n      0x04\n      add\n      0x00\n      mload(0x40)\n      dup1\n      dup4\n      sub\n      dup2\n      dup7\n      gas\n      staticcall\n      iszero\n      dup1\n      iszero\n      tag_356\n      jumpi\n      returndatasize\n      0x00\n      dup1\n      returndatacopy\n      revert(0x00, returndatasize)\n    tag_356:\n      pop\n      pop\n      pop\n      pop\n      mload(0x40)\n      returndatasize\n      0x00\n      dup3\n      returndatacopy\n      returndatasize\n      not(0x1f)\n      0x1f\n      dup3\n      add\n      and\n      dup3\n      add\n      dup1\n      0x40\n      mstore\n      pop\n      dup2\n      add\n      swap1\n      tag_357\n      swap2\n      swap1\n      tag_309\n      jump\t// in\n    tag_357:\n        /* \"token_eco_system_dev_contracts/contracts_ready_for_prod/Copy_TokenEcoSystemParticipationV1_3_draft.sol\":8144:8212  string.concat(\"Check the \", token.symbol(), \" token \", \"allowance!\") */\n      add(0x20, mload(0x40))\n      tag_358\n      swap2\n      swap1\n      tag_359\n      jump\t// in\n    tag_358:\n      mload(0x40)\n      0x20\n      dup2\n      dup4\n      sub\n      sub\n      dup2\n      mstore\n      swap1\n      0x40\n      mstore\n        /* \"token_eco_system_dev_contracts/contracts_ready_for_prod/Copy_TokenEcoSystemParticipationV1_3_draft.sol\":8083:8222  require(... */\n      swap1\n      tag_360\n      jumpi\n      mload(0x40)\n      0x08c379a000000000000000000000000000000000000000000000000000000000\n      dup2\n      mstore\n      0x04\n      add\n      tag_361\n      swap2\n      swap1\n      tag_362\n      jump\t// in\n    tag_361:\n      mload(0x40)\n      dup1\n      swap2\n      sub\n      swap1\n      revert\n    tag_360:\n      pop\n        /* \"token_eco_system_dev_contracts/contracts_ready_for_prod/Copy_TokenEcoSystemParticipationV1_3_draft.sol\":8247:8259  uint256 rate */\n      0x00\n        /* \"token_eco_system_dev_contracts/contracts_ready_for_prod/Copy_TokenEcoSystemParticipationV1_3_draft.sol\":8273:8289  uint256 decimals */\n      dup1\n        /* \"token_eco_system_dev_contracts/contracts_ready_for_prod/Copy_TokenEcoSystemParticipationV1_3_draft.sol\":8303:8333  string memory chargeRateString */\n      0x00\n        /* \"token_eco_system_dev_contracts/contracts_ready_for_prod/Copy_TokenEcoSystemParticipationV1_3_draft.sol\":8347:8369  uint256 chargeRateDate */\n      dup1\n        /* \"token_eco_system_dev_contracts/contracts_ready_for_prod/Copy_TokenEcoSystemParticipationV1_3_draft.sol\":8382:8391  getRate() */\n      tag_363\n        /* \"token_eco_system_dev_contracts/contracts_ready_for_prod/Copy_TokenEcoSystemParticipationV1_3_draft.sol\":8382:8389  getRate */\n      tag_364\n        /* \"token_eco_system_dev_contracts/contracts_ready_for_prod/Copy_TokenEcoSystemParticipationV1_3_draft.sol\":8382:8391  getRate() */\n      jump\t// in\n    tag_363:\n        /* \"token_eco_system_dev_contracts/contracts_ready_for_prod/Copy_TokenEcoSystemParticipationV1_3_draft.sol\":8233:8391  (... */\n      swap4\n      pop\n      swap4\n      pop\n      swap4\n      pop\n      swap4\n      pop\n        /* \"token_eco_system_dev_contracts/contracts_ready_for_prod/Copy_TokenEcoSystemParticipationV1_3_draft.sol\":8416:8417  0 */\n      0x00\n        /* \"token_eco_system_dev_contracts/contracts_ready_for_prod/Copy_TokenEcoSystemParticipationV1_3_draft.sol\":8409:8413  rate */\n      dup5\n        /* \"token_eco_system_dev_contracts/contracts_ready_for_prod/Copy_TokenEcoSystemParticipationV1_3_draft.sol\":8409:8417  rate > 0 */\n      gt\n        /* \"token_eco_system_dev_contracts/contracts_ready_for_prod/Copy_TokenEcoSystemParticipationV1_3_draft.sol\":8409:8433  rate > 0 && decimals > 0 */\n      dup1\n      iszero\n      tag_365\n      jumpi\n      pop\n        /* \"token_eco_system_dev_contracts/contracts_ready_for_prod/Copy_TokenEcoSystemParticipationV1_3_draft.sol\":8432:8433  0 */\n      0x00\n        /* \"token_eco_system_dev_contracts/contracts_ready_for_prod/Copy_TokenEcoSystemParticipationV1_3_draft.sol\":8421:8429  decimals */\n      dup4\n        /* \"token_eco_system_dev_contracts/contracts_ready_for_prod/Copy_TokenEcoSystemParticipationV1_3_draft.sol\":8421:8433  decimals > 0 */\n      gt\n        /* \"token_eco_system_dev_contracts/contracts_ready_for_prod/Copy_TokenEcoSystemParticipationV1_3_draft.sol\":8409:8433  rate > 0 && decimals > 0 */\n    tag_365:\n        /* \"token_eco_system_dev_contracts/contracts_ready_for_prod/Copy_TokenEcoSystemParticipationV1_3_draft.sol\":8409:8455  rate > 0 && decimals > 0 && chargeRateDate > 0 */\n      dup1\n      iszero\n      tag_366\n      jumpi\n      pop\n        /* \"token_eco_system_dev_contracts/contracts_ready_for_prod/Copy_TokenEcoSystemParticipationV1_3_draft.sol\":8454:8455  0 */\n      0x00\n        /* \"token_eco_system_dev_contracts/contracts_ready_for_prod/Copy_TokenEcoSystemParticipationV1_3_draft.sol\":8437:8451  chargeRateDate */\n      dup2\n        /* \"token_eco_system_dev_contracts/contracts_ready_for_prod/Copy_TokenEcoSystemParticipationV1_3_draft.sol\":8437:8455  chargeRateDate > 0 */\n      gt\n        /* \"token_eco_system_dev_contracts/contracts_ready_for_prod/Copy_TokenEcoSystemParticipationV1_3_draft.sol\":8409:8455  rate > 0 && decimals > 0 && chargeRateDate > 0 */\n    tag_366:\n        /* \"token_eco_system_dev_contracts/contracts_ready_for_prod/Copy_TokenEcoSystemParticipationV1_3_draft.sol\":8401:8471  require(rate > 0 && decimals > 0 && chargeRateDate > 0, \"rate error!\") */\n      tag_367\n      jumpi\n      mload(0x40)\n      0x08c379a000000000000000000000000000000000000000000000000000000000\n      dup2\n      mstore\n      0x04\n      add\n      tag_368\n      swap1\n      tag_369\n      jump\t// in\n    tag_368:\n      mload(0x40)\n      dup1\n      swap2\n      sub\n      swap1\n      revert\n    tag_367:\n        /* \"token_eco_system_dev_contracts/contracts_ready_for_prod/Copy_TokenEcoSystemParticipationV1_3_draft.sol\":8481:8495  uint256 points */\n      0x00\n        /* \"token_eco_system_dev_contracts/contracts_ready_for_prod/Copy_TokenEcoSystemParticipationV1_3_draft.sol\":8498:8537  calculatePoints(amount, rate, decimals) */\n      tag_370\n        /* \"token_eco_system_dev_contracts/contracts_ready_for_prod/Copy_TokenEcoSystemParticipationV1_3_draft.sol\":8514:8520  amount */\n      dup8\n        /* \"token_eco_system_dev_contracts/contracts_ready_for_prod/Copy_TokenEcoSystemParticipationV1_3_draft.sol\":8522:8526  rate */\n      dup7\n        /* \"token_eco_system_dev_contracts/contracts_ready_for_prod/Copy_TokenEcoSystemParticipationV1_3_draft.sol\":8528:8536  decimals */\n      dup7\n        /* \"token_eco_system_dev_contracts/contracts_ready_for_prod/Copy_TokenEcoSystemParticipationV1_3_draft.sol\":8498:8513  calculatePoints */\n      tag_371\n        /* \"token_eco_system_dev_contracts/contracts_ready_for_prod/Copy_TokenEcoSystemParticipationV1_3_draft.sol\":8498:8537  calculatePoints(amount, rate, decimals) */\n      jump\t// in\n    tag_370:\n        /* \"token_eco_system_dev_contracts/contracts_ready_for_prod/Copy_TokenEcoSystemParticipationV1_3_draft.sol\":8481:8537  uint256 points = calculatePoints(amount, rate, decimals) */\n      swap1\n      pop\n        /* \"token_eco_system_dev_contracts/contracts_ready_for_prod/Copy_TokenEcoSystemParticipationV1_3_draft.sol\":8564:8570  points */\n      dup1\n        /* \"token_eco_system_dev_contracts/contracts_ready_for_prod/Copy_TokenEcoSystemParticipationV1_3_draft.sol\":8547:8560  pointsBalance */\n      0x04\n      0x00\n        /* \"token_eco_system_dev_contracts/contracts_ready_for_prod/Copy_TokenEcoSystemParticipationV1_3_draft.sol\":8547:8570  pointsBalance += points */\n      dup3\n      dup3\n      sload\n      tag_372\n      swap2\n      swap1\n      tag_373\n      jump\t// in\n    tag_372:\n      swap3\n      pop\n      pop\n      dup2\n      swap1\n      sstore\n      pop\n        /* \"token_eco_system_dev_contracts/contracts_ready_for_prod/Copy_TokenEcoSystemParticipationV1_3_draft.sol\":8598:8604  points */\n      dup1\n        /* \"token_eco_system_dev_contracts/contracts_ready_for_prod/Copy_TokenEcoSystemParticipationV1_3_draft.sol\":8580:8594  totalConverted */\n      0x03\n      0x00\n        /* \"token_eco_system_dev_contracts/contracts_ready_for_prod/Copy_TokenEcoSystemParticipationV1_3_draft.sol\":8580:8604  totalConverted += points */\n      dup3\n      dup3\n      sload\n      tag_374\n      swap2\n      swap1\n      tag_373\n      jump\t// in\n    tag_374:\n      swap3\n      pop\n      pop\n      dup2\n      swap1\n      sstore\n      pop\n        /* \"token_eco_system_dev_contracts/contracts_ready_for_prod/Copy_TokenEcoSystemParticipationV1_3_draft.sol\":8629:8635  amount */\n      dup7\n        /* \"token_eco_system_dev_contracts/contracts_ready_for_prod/Copy_TokenEcoSystemParticipationV1_3_draft.sol\":8614:8625  totalBurned */\n      0x02\n      0x00\n        /* \"token_eco_system_dev_contracts/contracts_ready_for_prod/Copy_TokenEcoSystemParticipationV1_3_draft.sol\":8614:8635  totalBurned += amount */\n      dup3\n      dup3\n      sload\n      tag_375\n      swap2\n      swap1\n      tag_373\n      jump\t// in\n    tag_375:\n      swap3\n      pop\n      pop\n      dup2\n      swap1\n      sstore\n      pop\n        /* \"token_eco_system_dev_contracts/contracts_ready_for_prod/Copy_TokenEcoSystemParticipationV1_3_draft.sol\":8645:8663  uint256 chargeTime */\n      0x00\n        /* \"token_eco_system_dev_contracts/contracts_ready_for_prod/Copy_TokenEcoSystemParticipationV1_3_draft.sol\":8666:8681  block.timestamp */\n      timestamp\n        /* \"token_eco_system_dev_contracts/contracts_ready_for_prod/Copy_TokenEcoSystemParticipationV1_3_draft.sol\":8645:8681  uint256 chargeTime = block.timestamp */\n      swap1\n      pop\n        /* \"token_eco_system_dev_contracts/contracts_ready_for_prod/Copy_TokenEcoSystemParticipationV1_3_draft.sol\":8862:8872  chargeTime */\n      dup1\n        /* \"token_eco_system_dev_contracts/contracts_ready_for_prod/Copy_TokenEcoSystemParticipationV1_3_draft.sol\":8842:8848  amount */\n      dup9\n        /* \"token_eco_system_dev_contracts/contracts_ready_for_prod/Copy_TokenEcoSystemParticipationV1_3_draft.sol\":8822:8828  points */\n      dup4\n        /* \"token_eco_system_dev_contracts/contracts_ready_for_prod/Copy_TokenEcoSystemParticipationV1_3_draft.sol\":8696:8882  ChargeContract(... */\n      0xb5aeb7b225999adc33232be2121afb1a366c15108c1da745d17fd76108172fe4\n        /* \"token_eco_system_dev_contracts/contracts_ready_for_prod/Copy_TokenEcoSystemParticipationV1_3_draft.sol\":8724:8728  rate */\n      dup10\n        /* \"token_eco_system_dev_contracts/contracts_ready_for_prod/Copy_TokenEcoSystemParticipationV1_3_draft.sol\":8742:8750  decimals */\n      dup10\n        /* \"token_eco_system_dev_contracts/contracts_ready_for_prod/Copy_TokenEcoSystemParticipationV1_3_draft.sol\":8764:8778  chargeRateDate */\n      dup9\n        /* \"token_eco_system_dev_contracts/contracts_ready_for_prod/Copy_TokenEcoSystemParticipationV1_3_draft.sol\":8792:8808  chargeRateString */\n      dup11\n        /* \"token_eco_system_dev_contracts/contracts_ready_for_prod/Copy_TokenEcoSystemParticipationV1_3_draft.sol\":8696:8882  ChargeContract(... */\n      mload(0x40)\n      tag_376\n      swap5\n      swap4\n      swap3\n      swap2\n      swap1\n      tag_377\n      jump\t// in\n    tag_376:\n      mload(0x40)\n      dup1\n      swap2\n      sub\n      swap1\n      log4\n        /* \"token_eco_system_dev_contracts/contracts_ready_for_prod/Copy_TokenEcoSystemParticipationV1_3_draft.sol\":8892:8949  token.safeTransferFrom(msg.sender, address(this), amount) */\n      tag_378\n        /* \"token_eco_system_dev_contracts/contracts_ready_for_prod/Copy_TokenEcoSystemParticipationV1_3_draft.sol\":8915:8925  msg.sender */\n      caller\n        /* \"token_eco_system_dev_contracts/contracts_ready_for_prod/Copy_TokenEcoSystemParticipationV1_3_draft.sol\":8935:8939  this */\n      address\n        /* \"token_eco_system_dev_contracts/contracts_ready_for_prod/Copy_TokenEcoSystemParticipationV1_3_draft.sol\":8942:8948  amount */\n      dup11\n        /* \"token_eco_system_dev_contracts/contracts_ready_for_prod/Copy_TokenEcoSystemParticipationV1_3_draft.sol\":8892:8897  token */\n      immutable(\"0x448072f8ce0e9d09a2030ee35ba0d03fccbd0c61c3623f421061fbafdf5a67a9\")\n        /* \"token_eco_system_dev_contracts/contracts_ready_for_prod/Copy_TokenEcoSystemParticipationV1_3_draft.sol\":8892:8914  token.safeTransferFrom */\n      0xffffffffffffffffffffffffffffffffffffffff\n      and\n      tag_379\n      swap1\n        /* \"token_eco_system_dev_contracts/contracts_ready_for_prod/Copy_TokenEcoSystemParticipationV1_3_draft.sol\":8892:8949  token.safeTransferFrom(msg.sender, address(this), amount) */\n      swap4\n      swap3\n      swap2\n      swap1\n      0xffffffff\n      and\n      jump\t// in\n    tag_378:\n        /* \"token_eco_system_dev_contracts/contracts_ready_for_prod/Copy_TokenEcoSystemParticipationV1_3_draft.sol\":8959:8985  burnIncomingTokens(amount) */\n      tag_380\n        /* \"token_eco_system_dev_contracts/contracts_ready_for_prod/Copy_TokenEcoSystemParticipationV1_3_draft.sol\":8978:8984  amount */\n      dup9\n        /* \"token_eco_system_dev_contracts/contracts_ready_for_prod/Copy_TokenEcoSystemParticipationV1_3_draft.sol\":8959:8977  burnIncomingTokens */\n      tag_381\n        /* \"token_eco_system_dev_contracts/contracts_ready_for_prod/Copy_TokenEcoSystemParticipationV1_3_draft.sol\":8959:8985  burnIncomingTokens(amount) */\n      jump\t// in\n    tag_380:\n      pop\n        /* \"token_eco_system_dev_contracts/contracts_ready_for_prod/Copy_TokenEcoSystemParticipationV1_3_draft.sol\":9002:9006  true */\n      0x01\n        /* \"token_eco_system_dev_contracts/contracts_ready_for_prod/Copy_TokenEcoSystemParticipationV1_3_draft.sol\":8995:9006  return true */\n      swap7\n      pop\n      pop\n      pop\n      pop\n      pop\n      pop\n      pop\n        /* \"token_eco_system_dev_contracts/contracts_ready_for_prod/Copy_TokenEcoSystemParticipationV1_3_draft.sol\":7891:9013  function chargeContract(uint256 amount)... */\n      swap2\n      swap1\n      pop\n      jump\t// out\n        /* \"@openzeppelin/contracts/access/Ownable.sol\":2081:2279  function transferOwnership(address newOwner) public virtual onlyOwner {... */\n    tag_125:\n        /* \"@openzeppelin/contracts/access/Ownable.sol\":1094:1107  _checkOwner() */\n      tag_383\n        /* \"@openzeppelin/contracts/access/Ownable.sol\":1094:1105  _checkOwner */\n      tag_131\n        /* \"@openzeppelin/contracts/access/Ownable.sol\":1094:1107  _checkOwner() */\n      jump\t// in\n    tag_383:\n        /* \"@openzeppelin/contracts/access/Ownable.sol\":2189:2190  0 */\n      0x00\n        /* \"@openzeppelin/contracts/access/Ownable.sol\":2169:2191  newOwner != address(0) */\n      0xffffffffffffffffffffffffffffffffffffffff\n      and\n        /* \"@openzeppelin/contracts/access/Ownable.sol\":2169:2177  newOwner */\n      dup2\n        /* \"@openzeppelin/contracts/access/Ownable.sol\":2169:2191  newOwner != address(0) */\n      0xffffffffffffffffffffffffffffffffffffffff\n      and\n      sub\n        /* \"@openzeppelin/contracts/access/Ownable.sol\":2161:2234  require(newOwner != address(0), \"Ownable: new owner is the zero address\") */\n      tag_385\n      jumpi\n      mload(0x40)\n      0x08c379a000000000000000000000000000000000000000000000000000000000\n      dup2\n      mstore\n      0x04\n      add\n      tag_386\n      swap1\n      tag_387\n      jump\t// in\n    tag_386:\n      mload(0x40)\n      dup1\n      swap2\n      sub\n      swap1\n      revert\n    tag_385:\n        /* \"@openzeppelin/contracts/access/Ownable.sol\":2244:2272  _transferOwnership(newOwner) */\n      tag_388\n        /* \"@openzeppelin/contracts/access/Ownable.sol\":2263:2271  newOwner */\n      dup2\n        /* \"@openzeppelin/contracts/access/Ownable.sol\":2244:2262  _transferOwnership */\n      tag_210\n        /* \"@openzeppelin/contracts/access/Ownable.sol\":2244:2272  _transferOwnership(newOwner) */\n      jump\t// in\n    tag_388:\n        /* \"@openzeppelin/contracts/access/Ownable.sol\":2081:2279  function transferOwnership(address newOwner) public virtual onlyOwner {... */\n      pop\n      jump\t// out\n        /* \"@openzeppelin/contracts/security/Pausable.sol\":1945:2051  function _requirePaused() internal view virtual {... */\n    tag_128:\n        /* \"@openzeppelin/contracts/security/Pausable.sol\":2011:2019  paused() */\n      tag_390\n        /* \"@openzeppelin/contracts/security/Pausable.sol\":2011:2017  paused */\n      tag_60\n        /* \"@openzeppelin/contracts/security/Pausable.sol\":2011:2019  paused() */\n      jump\t// in\n    tag_390:\n        /* \"@openzeppelin/contracts/security/Pausable.sol\":2003:2044  require(paused(), \"Pausable: not paused\") */\n      tag_391\n      jumpi\n      mload(0x40)\n      0x08c379a000000000000000000000000000000000000000000000000000000000\n      dup2\n      mstore\n      0x04\n      add\n      tag_392\n      swap1\n      tag_393\n      jump\t// in\n    tag_392:\n      mload(0x40)\n      dup1\n      swap2\n      sub\n      swap1\n      revert\n    tag_391:\n        /* \"@openzeppelin/contracts/security/Pausable.sol\":1945:2051  function _requirePaused() internal view virtual {... */\n      jump\t// out\n        /* \"@openzeppelin/contracts/access/Ownable.sol\":1359:1489  function _checkOwner() internal view virtual {... */\n    tag_131:\n        /* \"@openzeppelin/contracts/access/Ownable.sol\":1433:1445  _msgSender() */\n      tag_395\n        /* \"@openzeppelin/contracts/access/Ownable.sol\":1433:1443  _msgSender */\n      tag_396\n        /* \"@openzeppelin/contracts/access/Ownable.sol\":1433:1445  _msgSender() */\n      jump\t// in\n    tag_395:\n        /* \"@openzeppelin/contracts/access/Ownable.sol\":1422:1445  owner() == _msgSender() */\n      0xffffffffffffffffffffffffffffffffffffffff\n      and\n        /* \"@openzeppelin/contracts/access/Ownable.sol\":1422:1429  owner() */\n      tag_397\n        /* \"@openzeppelin/contracts/access/Ownable.sol\":1422:1427  owner */\n      tag_79\n        /* \"@openzeppelin/contracts/access/Ownable.sol\":1422:1429  owner() */\n      jump\t// in\n    tag_397:\n        /* \"@openzeppelin/contracts/access/Ownable.sol\":1422:1445  owner() == _msgSender() */\n      0xffffffffffffffffffffffffffffffffffffffff\n      and\n      eq\n        /* \"@openzeppelin/contracts/access/Ownable.sol\":1414:1482  require(owner() == _msgSender(), \"Ownable: caller is not the owner\") */\n      tag_398\n      jumpi\n      mload(0x40)\n      0x08c379a000000000000000000000000000000000000000000000000000000000\n      dup2\n      mstore\n      0x04\n      add\n      tag_399\n      swap1\n      tag_400\n      jump\t// in\n    tag_399:\n      mload(0x40)\n      dup1\n      swap2\n      sub\n      swap1\n      revert\n    tag_398:\n        /* \"@openzeppelin/contracts/access/Ownable.sol\":1359:1489  function _checkOwner() internal view virtual {... */\n      jump\t// out\n        /* \"@openzeppelin/contracts/security/Pausable.sol\":2433:2550  function _unpause() internal virtual whenPaused {... */\n    tag_134:\n        /* \"@openzeppelin/contracts/security/Pausable.sol\":1486:1502  _requirePaused() */\n      tag_402\n        /* \"@openzeppelin/contracts/security/Pausable.sol\":1486:1500  _requirePaused */\n      tag_128\n        /* \"@openzeppelin/contracts/security/Pausable.sol\":1486:1502  _requirePaused() */\n      jump\t// in\n    tag_402:\n        /* \"@openzeppelin/contracts/security/Pausable.sol\":2501:2506  false */\n      0x00\n        /* \"@openzeppelin/contracts/security/Pausable.sol\":2491:2498  _paused */\n      dup1\n      0x00\n        /* \"@openzeppelin/contracts/security/Pausable.sol\":2491:2506  _paused = false */\n      0x0100\n      exp\n      dup2\n      sload\n      dup2\n      0xff\n      mul\n      not\n      and\n      swap1\n      dup4\n      iszero\n      iszero\n      mul\n      or\n      swap1\n      sstore\n      pop\n        /* \"@openzeppelin/contracts/security/Pausable.sol\":2521:2543  Unpaused(_msgSender()) */\n      0x5db9ee0a495bf2e6ff9c91a7834c1ba4fdd244a5e8aa4e537bd38aeae4b073aa\n        /* \"@openzeppelin/contracts/security/Pausable.sol\":2530:2542  _msgSender() */\n      tag_404\n        /* \"@openzeppelin/contracts/security/Pausable.sol\":2530:2540  _msgSender */\n      tag_396\n        /* \"@openzeppelin/contracts/security/Pausable.sol\":2530:2542  _msgSender() */\n      jump\t// in\n    tag_404:\n        /* \"@openzeppelin/contracts/security/Pausable.sol\":2521:2543  Unpaused(_msgSender()) */\n      mload(0x40)\n      tag_405\n      swap2\n      swap1\n      tag_81\n      jump\t// in\n    tag_405:\n      mload(0x40)\n      dup1\n      swap2\n      sub\n      swap1\n      log1\n        /* \"@openzeppelin/contracts/security/Pausable.sol\":2433:2550  function _unpause() internal virtual whenPaused {... */\n      jump\t// out\n        /* \"@openzeppelin/contracts/security/Pausable.sol\":1767:1873  function _requireNotPaused() internal view virtual {... */\n    tag_137:\n        /* \"@openzeppelin/contracts/security/Pausable.sol\":1837:1845  paused() */\n      tag_407\n        /* \"@openzeppelin/contracts/security/Pausable.sol\":1837:1843  paused */\n      tag_60\n        /* \"@openzeppelin/contracts/security/Pausable.sol\":1837:1845  paused() */\n      jump\t// in\n    tag_407:\n        /* \"@openzeppelin/contracts/security/Pausable.sol\":1836:1845  !paused() */\n      iszero\n        /* \"@openzeppelin/contracts/security/Pausable.sol\":1828:1866  require(!paused(), \"Pausable: paused\") */\n      tag_408\n      jumpi\n      mload(0x40)\n      0x08c379a000000000000000000000000000000000000000000000000000000000\n      dup2\n      mstore\n      0x04\n      add\n      tag_409\n      swap1\n      tag_410\n      jump\t// in\n    tag_409:\n      mload(0x40)\n      dup1\n      swap2\n      sub\n      swap1\n      revert\n    tag_408:\n        /* \"@openzeppelin/contracts/security/Pausable.sol\":1767:1873  function _requireNotPaused() internal view virtual {... */\n      jump\t// out\n        /* \"@openzeppelin/contracts/security/Pausable.sol\":2186:2301  function _pause() internal virtual whenNotPaused {... */\n    tag_142:\n        /* \"@openzeppelin/contracts/security/Pausable.sol\":1239:1258  _requireNotPaused() */\n      tag_412\n        /* \"@openzeppelin/contracts/security/Pausable.sol\":1239:1256  _requireNotPaused */\n      tag_137\n        /* \"@openzeppelin/contracts/security/Pausable.sol\":1239:1258  _requireNotPaused() */\n      jump\t// in\n    tag_412:\n        /* \"@openzeppelin/contracts/security/Pausable.sol\":2255:2259  true */\n      0x01\n        /* \"@openzeppelin/contracts/security/Pausable.sol\":2245:2252  _paused */\n      0x00\n      dup1\n        /* \"@openzeppelin/contracts/security/Pausable.sol\":2245:2259  _paused = true */\n      0x0100\n      exp\n      dup2\n      sload\n      dup2\n      0xff\n      mul\n      not\n      and\n      swap1\n      dup4\n      iszero\n      iszero\n      mul\n      or\n      swap1\n      sstore\n      pop\n        /* \"@openzeppelin/contracts/security/Pausable.sol\":2274:2294  Paused(_msgSender()) */\n      0x62e78cea01bee320cd4e420270b5ea74000d11b0c9f74754ebdbfc544b05a258\n        /* \"@openzeppelin/contracts/security/Pausable.sol\":2281:2293  _msgSender() */\n      tag_414\n        /* \"@openzeppelin/contracts/security/Pausable.sol\":2281:2291  _msgSender */\n      tag_396\n        /* \"@openzeppelin/contracts/security/Pausable.sol\":2281:2293  _msgSender() */\n      jump\t// in\n    tag_414:\n        /* \"@openzeppelin/contracts/security/Pausable.sol\":2274:2294  Paused(_msgSender()) */\n      mload(0x40)\n      tag_415\n      swap2\n      swap1\n      tag_81\n      jump\t// in\n    tag_415:\n      mload(0x40)\n      dup1\n      swap2\n      sub\n      swap1\n      log1\n        /* \"@openzeppelin/contracts/security/Pausable.sol\":2186:2301  function _pause() internal virtual whenNotPaused {... */\n      jump\t// out\n        /* \"@openzeppelin/contracts/access/Ownable.sol\":2433:2620  function _transferOwnership(address newOwner) internal virtual {... */\n    tag_210:\n        /* \"@openzeppelin/contracts/access/Ownable.sol\":2506:2522  address oldOwner */\n      0x00\n        /* \"@openzeppelin/contracts/access/Ownable.sol\":2525:2531  _owner */\n      dup1\n      0x01\n      swap1\n      sload\n      swap1\n      0x0100\n      exp\n      swap1\n      div\n      0xffffffffffffffffffffffffffffffffffffffff\n      and\n        /* \"@openzeppelin/contracts/access/Ownable.sol\":2506:2531  address oldOwner = _owner */\n      swap1\n      pop\n        /* \"@openzeppelin/contracts/access/Ownable.sol\":2550:2558  newOwner */\n      dup2\n        /* \"@openzeppelin/contracts/access/Ownable.sol\":2541:2547  _owner */\n      0x00\n      0x01\n        /* \"@openzeppelin/contracts/access/Ownable.sol\":2541:2558  _owner = newOwner */\n      0x0100\n      exp\n      dup2\n      sload\n      dup2\n      0xffffffffffffffffffffffffffffffffffffffff\n      mul\n      not\n      and\n      swap1\n      dup4\n      0xffffffffffffffffffffffffffffffffffffffff\n      and\n      mul\n      or\n      swap1\n      sstore\n      pop\n        /* \"@openzeppelin/contracts/access/Ownable.sol\":2604:2612  newOwner */\n      dup2\n        /* \"@openzeppelin/contracts/access/Ownable.sol\":2573:2613  OwnershipTransferred(oldOwner, newOwner) */\n      0xffffffffffffffffffffffffffffffffffffffff\n      and\n        /* \"@openzeppelin/contracts/access/Ownable.sol\":2594:2602  oldOwner */\n      dup2\n        /* \"@openzeppelin/contracts/access/Ownable.sol\":2573:2613  OwnershipTransferred(oldOwner, newOwner) */\n      0xffffffffffffffffffffffffffffffffffffffff\n      and\n      0x8be0079c531659141344cd1fd0a4f28419497f9722a3daafe3b4186f6b6457e0\n      mload(0x40)\n      mload(0x40)\n      dup1\n      swap2\n      sub\n      swap1\n      log3\n        /* \"@openzeppelin/contracts/access/Ownable.sol\":2496:2620  {... */\n      pop\n        /* \"@openzeppelin/contracts/access/Ownable.sol\":2433:2620  function _transferOwnership(address newOwner) internal virtual {... */\n      pop\n      jump\t// out\n        /* \"token_eco_system_dev_contracts/contracts_ready_for_prod/Copy_TokenEcoSystemParticipationV1_3_draft.sol\":13389:13574  function currentFeed() private view returns (string memory){... */\n    tag_323:\n        /* \"token_eco_system_dev_contracts/contracts_ready_for_prod/Copy_TokenEcoSystemParticipationV1_3_draft.sol\":13434:13447  string memory */\n      0x60\n        /* \"token_eco_system_dev_contracts/contracts_ready_for_prod/Copy_TokenEcoSystemParticipationV1_3_draft.sol\":13458:13478  string memory result */\n      dup1\n        /* \"token_eco_system_dev_contracts/contracts_ready_for_prod/Copy_TokenEcoSystemParticipationV1_3_draft.sol\":13488:13500  poolRateFeed */\n      0x01\n      0x14\n      swap1\n      sload\n      swap1\n      0x0100\n      exp\n      swap1\n      div\n      0xff\n      and\n        /* \"token_eco_system_dev_contracts/contracts_ready_for_prod/Copy_TokenEcoSystemParticipationV1_3_draft.sol\":13488:13544  poolRateFeed ? result = \"Pool\" : result = \"AggregatorV3\" */\n      tag_418\n      jumpi\n        /* \"token_eco_system_dev_contracts/contracts_ready_for_prod/Copy_TokenEcoSystemParticipationV1_3_draft.sol\":13521:13544  result = \"AggregatorV3\" */\n      mload(0x40)\n      dup1\n      0x40\n      add\n      0x40\n      mstore\n      dup1\n      0x0c\n      dup2\n      mstore\n      0x20\n      add\n      0x41676772656761746f7256330000000000000000000000000000000000000000\n      dup2\n      mstore\n      pop\n      swap1\n      pop\n      dup1\n        /* \"token_eco_system_dev_contracts/contracts_ready_for_prod/Copy_TokenEcoSystemParticipationV1_3_draft.sol\":13488:13544  poolRateFeed ? result = \"Pool\" : result = \"AggregatorV3\" */\n      jump(tag_419)\n    tag_418:\n        /* \"token_eco_system_dev_contracts/contracts_ready_for_prod/Copy_TokenEcoSystemParticipationV1_3_draft.sol\":13503:13518  result = \"Pool\" */\n      mload(0x40)\n      dup1\n      0x40\n      add\n      0x40\n      mstore\n      dup1\n      0x04\n      dup2\n      mstore\n      0x20\n      add\n      0x506f6f6c00000000000000000000000000000000000000000000000000000000\n      dup2\n      mstore\n      pop\n      swap1\n      pop\n      dup1\n        /* \"token_eco_system_dev_contracts/contracts_ready_for_prod/Copy_TokenEcoSystemParticipationV1_3_draft.sol\":13488:13544  poolRateFeed ? result = \"Pool\" : result = \"AggregatorV3\" */\n    tag_419:\n      pop\n        /* \"token_eco_system_dev_contracts/contracts_ready_for_prod/Copy_TokenEcoSystemParticipationV1_3_draft.sol\":13561:13567  result */\n      dup1\n        /* \"token_eco_system_dev_contracts/contracts_ready_for_prod/Copy_TokenEcoSystemParticipationV1_3_draft.sol\":13554:13567  return result */\n      swap2\n      pop\n      pop\n        /* \"token_eco_system_dev_contracts/contracts_ready_for_prod/Copy_TokenEcoSystemParticipationV1_3_draft.sol\":13389:13574  function currentFeed() private view returns (string memory){... */\n      swap1\n      jump\t// out\n        /* \"token_eco_system_dev_contracts/contracts_ready_for_prod/Copy_TokenEcoSystemParticipationV1_3_draft.sol\":12225:13110  function getRate()... */\n    tag_364:\n        /* \"token_eco_system_dev_contracts/contracts_ready_for_prod/Copy_TokenEcoSystemParticipationV1_3_draft.sol\":12278:12285  uint256 */\n      0x00\n        /* \"token_eco_system_dev_contracts/contracts_ready_for_prod/Copy_TokenEcoSystemParticipationV1_3_draft.sol\":12295:12302  uint256 */\n      dup1\n        /* \"token_eco_system_dev_contracts/contracts_ready_for_prod/Copy_TokenEcoSystemParticipationV1_3_draft.sol\":12312:12325  string memory */\n      0x60\n        /* \"token_eco_system_dev_contracts/contracts_ready_for_prod/Copy_TokenEcoSystemParticipationV1_3_draft.sol\":12335:12342  uint256 */\n      0x00\n        /* \"token_eco_system_dev_contracts/contracts_ready_for_prod/Copy_TokenEcoSystemParticipationV1_3_draft.sol\":12367:12379  poolRateFeed */\n      0x01\n      0x14\n      swap1\n      sload\n      swap1\n      0x0100\n      exp\n      swap1\n      div\n      0xff\n      and\n        /* \"token_eco_system_dev_contracts/contracts_ready_for_prod/Copy_TokenEcoSystemParticipationV1_3_draft.sol\":12363:12738  if (poolRateFeed) {... */\n      iszero\n      tag_421\n      jumpi\n        /* \"token_eco_system_dev_contracts/contracts_ready_for_prod/Copy_TokenEcoSystemParticipationV1_3_draft.sol\":12420:12432  poolRateFeed */\n      0x01\n      0x14\n      swap1\n      sload\n      swap1\n      0x0100\n      exp\n      swap1\n      div\n      0xff\n      and\n        /* \"token_eco_system_dev_contracts/contracts_ready_for_prod/Copy_TokenEcoSystemParticipationV1_3_draft.sol\":12420:12473  poolRateFeed && (address(poolConsumer) != address(0)) */\n      dup1\n      iszero\n      tag_422\n      jumpi\n      pop\n        /* \"token_eco_system_dev_contracts/contracts_ready_for_prod/Copy_TokenEcoSystemParticipationV1_3_draft.sol\":12470:12471  0 */\n      0x00\n        /* \"token_eco_system_dev_contracts/contracts_ready_for_prod/Copy_TokenEcoSystemParticipationV1_3_draft.sol\":12437:12472  address(poolConsumer) != address(0) */\n      0xffffffffffffffffffffffffffffffffffffffff\n      and\n        /* \"token_eco_system_dev_contracts/contracts_ready_for_prod/Copy_TokenEcoSystemParticipationV1_3_draft.sol\":12445:12457  poolConsumer */\n      0x07\n      0x00\n      swap1\n      sload\n      swap1\n      0x0100\n      exp\n      swap1\n      div\n      0xffffffffffffffffffffffffffffffffffffffff\n      and\n        /* \"token_eco_system_dev_contracts/contracts_ready_for_prod/Copy_TokenEcoSystemParticipationV1_3_draft.sol\":12437:12472  address(poolConsumer) != address(0) */\n      0xffffffffffffffffffffffffffffffffffffffff\n      and\n      eq\n      iszero\n        /* \"token_eco_system_dev_contracts/contracts_ready_for_prod/Copy_TokenEcoSystemParticipationV1_3_draft.sol\":12420:12473  poolRateFeed && (address(poolConsumer) != address(0)) */\n    tag_422:\n        /* \"token_eco_system_dev_contracts/contracts_ready_for_prod/Copy_TokenEcoSystemParticipationV1_3_draft.sol\":12395:12539  require(... */\n      tag_423\n      jumpi\n      mload(0x40)\n      0x08c379a000000000000000000000000000000000000000000000000000000000\n      dup2\n      mstore\n      0x04\n      add\n      tag_424\n      swap1\n      tag_338\n      jump\t// in\n    tag_424:\n      mload(0x40)\n      dup1\n      swap2\n      sub\n      swap1\n      revert\n    tag_423:\n        /* \"token_eco_system_dev_contracts/contracts_ready_for_prod/Copy_TokenEcoSystemParticipationV1_3_draft.sol\":12363:12738  if (poolRateFeed) {... */\n      jump(tag_425)\n    tag_421:\n        /* \"token_eco_system_dev_contracts/contracts_ready_for_prod/Copy_TokenEcoSystemParticipationV1_3_draft.sol\":12596:12608  poolRateFeed */\n      0x01\n      0x14\n      swap1\n      sload\n      swap1\n      0x0100\n      exp\n      swap1\n      div\n      0xff\n      and\n        /* \"token_eco_system_dev_contracts/contracts_ready_for_prod/Copy_TokenEcoSystemParticipationV1_3_draft.sol\":12595:12608  !poolRateFeed */\n      iszero\n        /* \"token_eco_system_dev_contracts/contracts_ready_for_prod/Copy_TokenEcoSystemParticipationV1_3_draft.sol\":12595:12655  !poolRateFeed && (address(aggregatorConsumer) != address(0)) */\n      dup1\n      iszero\n      tag_426\n      jumpi\n      pop\n        /* \"token_eco_system_dev_contracts/contracts_ready_for_prod/Copy_TokenEcoSystemParticipationV1_3_draft.sol\":12652:12653  0 */\n      0x00\n        /* \"token_eco_system_dev_contracts/contracts_ready_for_prod/Copy_TokenEcoSystemParticipationV1_3_draft.sol\":12613:12654  address(aggregatorConsumer) != address(0) */\n      0xffffffffffffffffffffffffffffffffffffffff\n      and\n        /* \"token_eco_system_dev_contracts/contracts_ready_for_prod/Copy_TokenEcoSystemParticipationV1_3_draft.sol\":12621:12639  aggregatorConsumer */\n      0x06\n      0x00\n      swap1\n      sload\n      swap1\n      0x0100\n      exp\n      swap1\n      div\n      0xffffffffffffffffffffffffffffffffffffffff\n      and\n        /* \"token_eco_system_dev_contracts/contracts_ready_for_prod/Copy_TokenEcoSystemParticipationV1_3_draft.sol\":12613:12654  address(aggregatorConsumer) != address(0) */\n      0xffffffffffffffffffffffffffffffffffffffff\n      and\n      eq\n      iszero\n        /* \"token_eco_system_dev_contracts/contracts_ready_for_prod/Copy_TokenEcoSystemParticipationV1_3_draft.sol\":12595:12655  !poolRateFeed && (address(aggregatorConsumer) != address(0)) */\n    tag_426:\n        /* \"token_eco_system_dev_contracts/contracts_ready_for_prod/Copy_TokenEcoSystemParticipationV1_3_draft.sol\":12570:12727  require(... */\n      tag_427\n      jumpi\n      mload(0x40)\n      0x08c379a000000000000000000000000000000000000000000000000000000000\n      dup2\n      mstore\n      0x04\n      add\n      tag_428\n      swap1\n      tag_333\n      jump\t// in\n    tag_428:\n      mload(0x40)\n      dup1\n      swap2\n      sub\n      swap1\n      revert\n    tag_427:\n        /* \"token_eco_system_dev_contracts/contracts_ready_for_prod/Copy_TokenEcoSystemParticipationV1_3_draft.sol\":12363:12738  if (poolRateFeed) {... */\n    tag_425:\n        /* \"token_eco_system_dev_contracts/contracts_ready_for_prod/Copy_TokenEcoSystemParticipationV1_3_draft.sol\":12762:12774  uint256 rate */\n      0x00\n        /* \"token_eco_system_dev_contracts/contracts_ready_for_prod/Copy_TokenEcoSystemParticipationV1_3_draft.sol\":12788:12804  uint256 decimals */\n      dup1\n        /* \"token_eco_system_dev_contracts/contracts_ready_for_prod/Copy_TokenEcoSystemParticipationV1_3_draft.sol\":12818:12842  string memory rateString */\n      0x00\n        /* \"token_eco_system_dev_contracts/contracts_ready_for_prod/Copy_TokenEcoSystemParticipationV1_3_draft.sol\":12856:12868  uint256 date */\n      dup1\n        /* \"token_eco_system_dev_contracts/contracts_ready_for_prod/Copy_TokenEcoSystemParticipationV1_3_draft.sol\":12882:12894  poolRateFeed */\n      0x01\n      0x14\n      swap1\n      sload\n      swap1\n      0x0100\n      exp\n      swap1\n      div\n      0xff\n      and\n        /* \"token_eco_system_dev_contracts/contracts_ready_for_prod/Copy_TokenEcoSystemParticipationV1_3_draft.sol\":12881:12894  !poolRateFeed */\n      iszero\n        /* \"token_eco_system_dev_contracts/contracts_ready_for_prod/Copy_TokenEcoSystemParticipationV1_3_draft.sol\":12881:12981  !poolRateFeed... */\n      tag_429\n      jumpi\n        /* \"token_eco_system_dev_contracts/contracts_ready_for_prod/Copy_TokenEcoSystemParticipationV1_3_draft.sol\":12958:12970  poolConsumer */\n      0x07\n      0x00\n      swap1\n      sload\n      swap1\n      0x0100\n      exp\n      swap1\n      div\n      0xffffffffffffffffffffffffffffffffffffffff\n      and\n        /* \"token_eco_system_dev_contracts/contracts_ready_for_prod/Copy_TokenEcoSystemParticipationV1_3_draft.sol\":12958:12979  poolConsumer.poolRate */\n      0xffffffffffffffffffffffffffffffffffffffff\n      and\n      0x85096edc\n        /* \"token_eco_system_dev_contracts/contracts_ready_for_prod/Copy_TokenEcoSystemParticipationV1_3_draft.sol\":12958:12981  poolConsumer.poolRate() */\n      mload(0x40)\n      dup2\n      0xffffffff\n      and\n      0xe0\n      shl\n      dup2\n      mstore\n      0x04\n      add\n      0x00\n      mload(0x40)\n      dup1\n      dup4\n      sub\n      dup2\n      0x00\n      dup8\n      gas\n      call\n      iszero\n      dup1\n      iszero\n      tag_431\n      jumpi\n      returndatasize\n      0x00\n      dup1\n      returndatacopy\n      revert(0x00, returndatasize)\n    tag_431:\n      pop\n      pop\n      pop\n      pop\n      mload(0x40)\n      returndatasize\n      0x00\n      dup3\n      returndatacopy\n      returndatasize\n      not(0x1f)\n      0x1f\n      dup3\n      add\n      and\n      dup3\n      add\n      dup1\n      0x40\n      mstore\n      pop\n      dup2\n      add\n      swap1\n      tag_432\n      swap2\n      swap1\n      tag_433\n      jump\t// in\n    tag_432:\n        /* \"token_eco_system_dev_contracts/contracts_ready_for_prod/Copy_TokenEcoSystemParticipationV1_3_draft.sol\":12881:12981  !poolRateFeed... */\n      jump(tag_434)\n    tag_429:\n        /* \"token_eco_system_dev_contracts/contracts_ready_for_prod/Copy_TokenEcoSystemParticipationV1_3_draft.sol\":12909:12927  aggregatorConsumer */\n      0x06\n      0x00\n      swap1\n      sload\n      swap1\n      0x0100\n      exp\n      swap1\n      div\n      0xffffffffffffffffffffffffffffffffffffffff\n      and\n        /* \"token_eco_system_dev_contracts/contracts_ready_for_prod/Copy_TokenEcoSystemParticipationV1_3_draft.sol\":12909:12941  aggregatorConsumer.getLatestRate */\n      0xffffffffffffffffffffffffffffffffffffffff\n      and\n      0xe1e7ff77\n        /* \"token_eco_system_dev_contracts/contracts_ready_for_prod/Copy_TokenEcoSystemParticipationV1_3_draft.sol\":12909:12943  aggregatorConsumer.getLatestRate() */\n      mload(0x40)\n      dup2\n      0xffffffff\n      and\n      0xe0\n      shl\n      dup2\n      mstore\n      0x04\n      add\n      0x00\n      mload(0x40)\n      dup1\n      dup4\n      sub\n      dup2\n      0x00\n      dup8\n      gas\n      call\n      iszero\n      dup1\n      iszero\n      tag_436\n      jumpi\n      returndatasize\n      0x00\n      dup1\n      returndatacopy\n      revert(0x00, returndatasize)\n    tag_436:\n      pop\n      pop\n      pop\n      pop\n      mload(0x40)\n      returndatasize\n      0x00\n      dup3\n      returndatacopy\n      returndatasize\n      not(0x1f)\n      0x1f\n      dup3\n      add\n      and\n      dup3\n      add\n      dup1\n      0x40\n      mstore\n      pop\n      dup2\n      add\n      swap1\n      tag_437\n      swap2\n      swap1\n      tag_433\n      jump\t// in\n    tag_437:\n        /* \"token_eco_system_dev_contracts/contracts_ready_for_prod/Copy_TokenEcoSystemParticipationV1_3_draft.sol\":12881:12981  !poolRateFeed... */\n    tag_434:\n        /* \"token_eco_system_dev_contracts/contracts_ready_for_prod/Copy_TokenEcoSystemParticipationV1_3_draft.sol\":12748:12981  (... */\n      swap4\n      pop\n      swap4\n      pop\n      swap4\n      pop\n      swap4\n      pop\n        /* \"token_eco_system_dev_contracts/contracts_ready_for_prod/Copy_TokenEcoSystemParticipationV1_3_draft.sol\":12996:13052  GetRate(rate, decimals, rateString, date, currentFeed()) */\n      0xf533c7ebcab9ca95557310f62aa7ad41d3a6b17aebec7762b994ef1a14863865\n        /* \"token_eco_system_dev_contracts/contracts_ready_for_prod/Copy_TokenEcoSystemParticipationV1_3_draft.sol\":13004:13008  rate */\n      dup5\n        /* \"token_eco_system_dev_contracts/contracts_ready_for_prod/Copy_TokenEcoSystemParticipationV1_3_draft.sol\":13010:13018  decimals */\n      dup5\n        /* \"token_eco_system_dev_contracts/contracts_ready_for_prod/Copy_TokenEcoSystemParticipationV1_3_draft.sol\":13020:13030  rateString */\n      dup5\n        /* \"token_eco_system_dev_contracts/contracts_ready_for_prod/Copy_TokenEcoSystemParticipationV1_3_draft.sol\":13032:13036  date */\n      dup5\n        /* \"token_eco_system_dev_contracts/contracts_ready_for_prod/Copy_TokenEcoSystemParticipationV1_3_draft.sol\":13038:13051  currentFeed() */\n      tag_438\n        /* \"token_eco_system_dev_contracts/contracts_ready_for_prod/Copy_TokenEcoSystemParticipationV1_3_draft.sol\":13038:13049  currentFeed */\n      tag_323\n        /* \"token_eco_system_dev_contracts/contracts_ready_for_prod/Copy_TokenEcoSystemParticipationV1_3_draft.sol\":13038:13051  currentFeed() */\n      jump\t// in\n    tag_438:\n        /* \"token_eco_system_dev_contracts/contracts_ready_for_prod/Copy_TokenEcoSystemParticipationV1_3_draft.sol\":12996:13052  GetRate(rate, decimals, rateString, date, currentFeed()) */\n      mload(0x40)\n      tag_439\n      swap6\n      swap5\n      swap4\n      swap3\n      swap2\n      swap1\n      tag_440\n      jump\t// in\n    tag_439:\n      mload(0x40)\n      dup1\n      swap2\n      sub\n      swap1\n      log1\n        /* \"token_eco_system_dev_contracts/contracts_ready_for_prod/Copy_TokenEcoSystemParticipationV1_3_draft.sol\":13070:13074  rate */\n      dup4\n        /* \"token_eco_system_dev_contracts/contracts_ready_for_prod/Copy_TokenEcoSystemParticipationV1_3_draft.sol\":13076:13084  decimals */\n      dup4\n        /* \"token_eco_system_dev_contracts/contracts_ready_for_prod/Copy_TokenEcoSystemParticipationV1_3_draft.sol\":13086:13096  rateString */\n      dup4\n        /* \"token_eco_system_dev_contracts/contracts_ready_for_prod/Copy_TokenEcoSystemParticipationV1_3_draft.sol\":13098:13102  date */\n      dup4\n        /* \"token_eco_system_dev_contracts/contracts_ready_for_prod/Copy_TokenEcoSystemParticipationV1_3_draft.sol\":13062:13103  return (rate, decimals, rateString, date) */\n      swap8\n      pop\n      swap8\n      pop\n      swap8\n      pop\n      swap8\n      pop\n      pop\n      pop\n      pop\n      pop\n        /* \"token_eco_system_dev_contracts/contracts_ready_for_prod/Copy_TokenEcoSystemParticipationV1_3_draft.sol\":12225:13110  function getRate()... */\n      swap1\n      swap2\n      swap3\n      swap4\n      jump\t// out\n        /* \"token_eco_system_dev_contracts/contracts_ready_for_prod/Copy_TokenEcoSystemParticipationV1_3_draft.sol\":13179:13383  function calculatePoints(... */\n    tag_371:\n        /* \"token_eco_system_dev_contracts/contracts_ready_for_prod/Copy_TokenEcoSystemParticipationV1_3_draft.sol\":13304:13311  uint256 */\n      0x00\n        /* \"token_eco_system_dev_contracts/contracts_ready_for_prod/Copy_TokenEcoSystemParticipationV1_3_draft.sol\":13368:13376  decimals */\n      dup2\n        /* \"token_eco_system_dev_contracts/contracts_ready_for_prod/Copy_TokenEcoSystemParticipationV1_3_draft.sol\":13362:13364  10 */\n      0x0a\n        /* \"token_eco_system_dev_contracts/contracts_ready_for_prod/Copy_TokenEcoSystemParticipationV1_3_draft.sol\":13362:13376  10 ** decimals */\n      tag_442\n      swap2\n      swap1\n      tag_226\n      jump\t// in\n    tag_442:\n        /* \"token_eco_system_dev_contracts/contracts_ready_for_prod/Copy_TokenEcoSystemParticipationV1_3_draft.sol\":13354:13358  rate */\n      dup4\n        /* \"token_eco_system_dev_contracts/contracts_ready_for_prod/Copy_TokenEcoSystemParticipationV1_3_draft.sol\":13341:13350  modulator */\n      sload(0x05)\n        /* \"token_eco_system_dev_contracts/contracts_ready_for_prod/Copy_TokenEcoSystemParticipationV1_3_draft.sol\":13332:13338  amount */\n      dup7\n        /* \"token_eco_system_dev_contracts/contracts_ready_for_prod/Copy_TokenEcoSystemParticipationV1_3_draft.sol\":13332:13350  amount / modulator */\n      tag_443\n      swap2\n      swap1\n      tag_230\n      jump\t// in\n    tag_443:\n        /* \"token_eco_system_dev_contracts/contracts_ready_for_prod/Copy_TokenEcoSystemParticipationV1_3_draft.sol\":13331:13358  (amount / modulator) * rate */\n      tag_444\n      swap2\n      swap1\n      tag_228\n      jump\t// in\n    tag_444:\n        /* \"token_eco_system_dev_contracts/contracts_ready_for_prod/Copy_TokenEcoSystemParticipationV1_3_draft.sol\":13330:13376  ((amount / modulator) * rate) / 10 ** decimals */\n      tag_445\n      swap2\n      swap1\n      tag_230\n      jump\t// in\n    tag_445:\n        /* \"token_eco_system_dev_contracts/contracts_ready_for_prod/Copy_TokenEcoSystemParticipationV1_3_draft.sol\":13323:13376  return ((amount / modulator) * rate) / 10 ** decimals */\n      swap1\n      pop\n        /* \"token_eco_system_dev_contracts/contracts_ready_for_prod/Copy_TokenEcoSystemParticipationV1_3_draft.sol\":13179:13383  function calculatePoints(... */\n      swap4\n      swap3\n      pop\n      pop\n      pop\n      jump\t// out\n        /* \"@openzeppelin/contracts/token/ERC20/utils/SafeERC20.sol\":974:1215  function safeTransferFrom(... */\n    tag_379:\n        /* \"@openzeppelin/contracts/token/ERC20/utils/SafeERC20.sol\":1112:1208  _callOptionalReturn(token, abi.encodeWithSelector(token.transferFrom.selector, from, to, value)) */\n      tag_447\n        /* \"@openzeppelin/contracts/token/ERC20/utils/SafeERC20.sol\":1132:1137  token */\n      dup5\n        /* \"@openzeppelin/contracts/token/ERC20/utils/SafeERC20.sol\":1162:1189  token.transferFrom.selector */\n      shl(0xe0, 0x23b872dd)\n        /* \"@openzeppelin/contracts/token/ERC20/utils/SafeERC20.sol\":1191:1195  from */\n      dup6\n        /* \"@openzeppelin/contracts/token/ERC20/utils/SafeERC20.sol\":1197:1199  to */\n      dup6\n        /* \"@openzeppelin/contracts/token/ERC20/utils/SafeERC20.sol\":1201:1206  value */\n      dup6\n        /* \"@openzeppelin/contracts/token/ERC20/utils/SafeERC20.sol\":1139:1207  abi.encodeWithSelector(token.transferFrom.selector, from, to, value) */\n      add(0x24, mload(0x40))\n      tag_448\n      swap4\n      swap3\n      swap2\n      swap1\n      tag_449\n      jump\t// in\n    tag_448:\n      mload(0x40)\n      0x20\n      dup2\n      dup4\n      sub\n      sub\n      dup2\n      mstore\n      swap1\n      0x40\n      mstore\n      swap1\n      not(0xffffffffffffffffffffffffffffffffffffffffffffffffffffffff)\n      and\n      0x20\n      dup3\n      add\n      dup1\n      mload\n      0xffffffffffffffffffffffffffffffffffffffffffffffffffffffff\n      dup4\n      dup2\n      dup4\n      and\n      or\n      dup4\n      mstore\n      pop\n      pop\n      pop\n      pop\n        /* \"@openzeppelin/contracts/token/ERC20/utils/SafeERC20.sol\":1112:1131  _callOptionalReturn */\n      tag_450\n        /* \"@openzeppelin/contracts/token/ERC20/utils/SafeERC20.sol\":1112:1208  _callOptionalReturn(token, abi.encodeWithSelector(token.transferFrom.selector, from, to, value)) */\n      jump\t// in\n    tag_447:\n        /* \"@openzeppelin/contracts/token/ERC20/utils/SafeERC20.sol\":974:1215  function safeTransferFrom(... */\n      pop\n      pop\n      pop\n      pop\n      jump\t// out\n        /* \"token_eco_system_dev_contracts/contracts_ready_for_prod/Copy_TokenEcoSystemParticipationV1_3_draft.sol\":13631:13942  function burnIncomingTokens(uint256 amount) private returns (bool) {... */\n    tag_381:\n        /* \"token_eco_system_dev_contracts/contracts_ready_for_prod/Copy_TokenEcoSystemParticipationV1_3_draft.sol\":13692:13696  bool */\n      0x00\n        /* \"token_eco_system_dev_contracts/contracts_ready_for_prod/Copy_TokenEcoSystemParticipationV1_3_draft.sol\":13725:13726  0 */\n      dup1\n        /* \"token_eco_system_dev_contracts/contracts_ready_for_prod/Copy_TokenEcoSystemParticipationV1_3_draft.sol\":13716:13722  amount */\n      dup3\n        /* \"token_eco_system_dev_contracts/contracts_ready_for_prod/Copy_TokenEcoSystemParticipationV1_3_draft.sol\":13716:13726  amount > 0 */\n      gt\n        /* \"token_eco_system_dev_contracts/contracts_ready_for_prod/Copy_TokenEcoSystemParticipationV1_3_draft.sol\":13708:13754  require(amount > 0, \"No tokens to be burned!\") */\n      tag_452\n      jumpi\n      mload(0x40)\n      0x08c379a000000000000000000000000000000000000000000000000000000000\n      dup2\n      mstore\n      0x04\n      add\n      tag_453\n      swap1\n      tag_454\n      jump\t// in\n    tag_453:\n      mload(0x40)\n      dup1\n      swap2\n      sub\n      swap1\n      revert\n    tag_452:\n        /* \"token_eco_system_dev_contracts/contracts_ready_for_prod/Copy_TokenEcoSystemParticipationV1_3_draft.sol\":13764:13779  uint256 balance */\n      0x00\n        /* \"token_eco_system_dev_contracts/contracts_ready_for_prod/Copy_TokenEcoSystemParticipationV1_3_draft.sol\":13782:13793  balanceOf() */\n      tag_455\n        /* \"token_eco_system_dev_contracts/contracts_ready_for_prod/Copy_TokenEcoSystemParticipationV1_3_draft.sol\":13782:13791  balanceOf */\n      tag_71\n        /* \"token_eco_system_dev_contracts/contracts_ready_for_prod/Copy_TokenEcoSystemParticipationV1_3_draft.sol\":13782:13793  balanceOf() */\n      jump\t// in\n    tag_455:\n        /* \"token_eco_system_dev_contracts/contracts_ready_for_prod/Copy_TokenEcoSystemParticipationV1_3_draft.sol\":13764:13793  uint256 balance = balanceOf() */\n      swap1\n      pop\n        /* \"token_eco_system_dev_contracts/contracts_ready_for_prod/Copy_TokenEcoSystemParticipationV1_3_draft.sol\":13803:13808  token */\n      immutable(\"0x448072f8ce0e9d09a2030ee35ba0d03fccbd0c61c3623f421061fbafdf5a67a9\")\n        /* \"token_eco_system_dev_contracts/contracts_ready_for_prod/Copy_TokenEcoSystemParticipationV1_3_draft.sol\":13803:13813  token.burn */\n      0xffffffffffffffffffffffffffffffffffffffff\n      and\n      0x42966c68\n        /* \"token_eco_system_dev_contracts/contracts_ready_for_prod/Copy_TokenEcoSystemParticipationV1_3_draft.sol\":13814:13820  amount */\n      dup5\n        /* \"token_eco_system_dev_contracts/contracts_ready_for_prod/Copy_TokenEcoSystemParticipationV1_3_draft.sol\":13803:13821  token.burn(amount) */\n      mload(0x40)\n      dup3\n      0xffffffff\n      and\n      0xe0\n      shl\n      dup2\n      mstore\n      0x04\n      add\n      tag_456\n      swap2\n      swap1\n      tag_56\n      jump\t// in\n    tag_456:\n      0x00\n      mload(0x40)\n      dup1\n      dup4\n      sub\n      dup2\n      0x00\n      dup8\n      dup1\n      extcodesize\n      iszero\n      dup1\n      iszero\n      tag_457\n      jumpi\n      0x00\n      dup1\n      revert\n    tag_457:\n      pop\n      gas\n      call\n      iszero\n      dup1\n      iszero\n      tag_459\n      jumpi\n      returndatasize\n      0x00\n      dup1\n      returndatacopy\n      revert(0x00, returndatasize)\n    tag_459:\n      pop\n      pop\n      pop\n      pop\n        /* \"token_eco_system_dev_contracts/contracts_ready_for_prod/Copy_TokenEcoSystemParticipationV1_3_draft.sol\":13864:13870  amount */\n      dup3\n        /* \"token_eco_system_dev_contracts/contracts_ready_for_prod/Copy_TokenEcoSystemParticipationV1_3_draft.sol\":13854:13861  balance */\n      dup2\n        /* \"token_eco_system_dev_contracts/contracts_ready_for_prod/Copy_TokenEcoSystemParticipationV1_3_draft.sol\":13854:13870  balance - amount */\n      tag_460\n      swap2\n      swap1\n      tag_295\n      jump\t// in\n    tag_460:\n        /* \"token_eco_system_dev_contracts/contracts_ready_for_prod/Copy_TokenEcoSystemParticipationV1_3_draft.sol\":13839:13850  balanceOf() */\n      tag_461\n        /* \"token_eco_system_dev_contracts/contracts_ready_for_prod/Copy_TokenEcoSystemParticipationV1_3_draft.sol\":13839:13848  balanceOf */\n      tag_71\n        /* \"token_eco_system_dev_contracts/contracts_ready_for_prod/Copy_TokenEcoSystemParticipationV1_3_draft.sol\":13839:13850  balanceOf() */\n      jump\t// in\n    tag_461:\n        /* \"token_eco_system_dev_contracts/contracts_ready_for_prod/Copy_TokenEcoSystemParticipationV1_3_draft.sol\":13839:13870  balanceOf() == balance - amount */\n      eq\n        /* \"token_eco_system_dev_contracts/contracts_ready_for_prod/Copy_TokenEcoSystemParticipationV1_3_draft.sol\":13831:13914  require(balanceOf() == balance - amount, \"transaction reverted burn unsuccesfull!\") */\n      tag_462\n      jumpi\n      mload(0x40)\n      0x08c379a000000000000000000000000000000000000000000000000000000000\n      dup2\n      mstore\n      0x04\n      add\n      tag_463\n      swap1\n      tag_464\n      jump\t// in\n    tag_463:\n      mload(0x40)\n      dup1\n      swap2\n      sub\n      swap1\n      revert\n    tag_462:\n        /* \"token_eco_system_dev_contracts/contracts_ready_for_prod/Copy_TokenEcoSystemParticipationV1_3_draft.sol\":13931:13935  true */\n      0x01\n        /* \"token_eco_system_dev_contracts/contracts_ready_for_prod/Copy_TokenEcoSystemParticipationV1_3_draft.sol\":13924:13935  return true */\n      swap2\n      pop\n      pop\n        /* \"token_eco_system_dev_contracts/contracts_ready_for_prod/Copy_TokenEcoSystemParticipationV1_3_draft.sol\":13631:13942  function burnIncomingTokens(uint256 amount) private returns (bool) {... */\n      swap2\n      swap1\n      pop\n      jump\t// out\n        /* \"@openzeppelin/contracts/utils/Context.sol\":640:736  function _msgSender() internal view virtual returns (address) {... */\n    tag_396:\n        /* \"@openzeppelin/contracts/utils/Context.sol\":693:700  address */\n      0x00\n        /* \"@openzeppelin/contracts/utils/Context.sol\":719:729  msg.sender */\n      caller\n        /* \"@openzeppelin/contracts/utils/Context.sol\":712:729  return msg.sender */\n      swap1\n      pop\n        /* \"@openzeppelin/contracts/utils/Context.sol\":640:736  function _msgSender() internal view virtual returns (address) {... */\n      swap1\n      jump\t// out\n        /* \"@openzeppelin/contracts/token/ERC20/utils/SafeERC20.sol\":3747:4453  function _callOptionalReturn(IERC20 token, bytes memory data) private {... */\n    tag_450:\n        /* \"@openzeppelin/contracts/token/ERC20/utils/SafeERC20.sol\":4166:4189  bytes memory returndata */\n      0x00\n        /* \"@openzeppelin/contracts/token/ERC20/utils/SafeERC20.sol\":4192:4261  address(token).functionCall(data, \"SafeERC20: low-level call failed\") */\n      tag_467\n        /* \"@openzeppelin/contracts/token/ERC20/utils/SafeERC20.sol\":4220:4224  data */\n      dup3\n        /* \"@openzeppelin/contracts/token/ERC20/utils/SafeERC20.sol\":4192:4261  address(token).functionCall(data, \"SafeERC20: low-level call failed\") */\n      mload(0x40)\n      dup1\n      0x40\n      add\n      0x40\n      mstore\n      dup1\n      0x20\n      dup2\n      mstore\n      0x20\n      add\n      0x5361666545524332303a206c6f772d6c6576656c2063616c6c206661696c6564\n      dup2\n      mstore\n      pop\n        /* \"@openzeppelin/contracts/token/ERC20/utils/SafeERC20.sol\":4200:4205  token */\n      dup6\n        /* \"@openzeppelin/contracts/token/ERC20/utils/SafeERC20.sol\":4192:4219  address(token).functionCall */\n      0xffffffffffffffffffffffffffffffffffffffff\n      and\n      tag_468\n      swap1\n        /* \"@openzeppelin/contracts/token/ERC20/utils/SafeERC20.sol\":4192:4261  address(token).functionCall(data, \"SafeERC20: low-level call failed\") */\n      swap3\n      swap2\n      swap1\n      0xffffffff\n      and\n      jump\t// in\n    tag_467:\n        /* \"@openzeppelin/contracts/token/ERC20/utils/SafeERC20.sol\":4166:4261  bytes memory returndata = address(token).functionCall(data, \"SafeERC20: low-level call failed\") */\n      swap1\n      pop\n        /* \"@openzeppelin/contracts/token/ERC20/utils/SafeERC20.sol\":4295:4296  0 */\n      0x00\n        /* \"@openzeppelin/contracts/token/ERC20/utils/SafeERC20.sol\":4275:4285  returndata */\n      dup2\n        /* \"@openzeppelin/contracts/token/ERC20/utils/SafeERC20.sol\":4275:4292  returndata.length */\n      mload\n        /* \"@openzeppelin/contracts/token/ERC20/utils/SafeERC20.sol\":4275:4296  returndata.length > 0 */\n      gt\n        /* \"@openzeppelin/contracts/token/ERC20/utils/SafeERC20.sol\":4271:4447  if (returndata.length > 0) {... */\n      iszero\n      tag_469\n      jumpi\n        /* \"@openzeppelin/contracts/token/ERC20/utils/SafeERC20.sol\":4370:4380  returndata */\n      dup1\n        /* \"@openzeppelin/contracts/token/ERC20/utils/SafeERC20.sol\":4359:4389  abi.decode(returndata, (bool)) */\n      dup1\n      0x20\n      add\n      swap1\n      mload\n      dup2\n      add\n      swap1\n      tag_470\n      swap2\n      swap1\n      tag_205\n      jump\t// in\n    tag_470:\n        /* \"@openzeppelin/contracts/token/ERC20/utils/SafeERC20.sol\":4351:4436  require(abi.decode(returndata, (bool)), \"SafeERC20: ERC20 operation did not succeed\") */\n      tag_471\n      jumpi\n      mload(0x40)\n      0x08c379a000000000000000000000000000000000000000000000000000000000\n      dup2\n      mstore\n      0x04\n      add\n      tag_472\n      swap1\n      tag_473\n      jump\t// in\n    tag_472:\n      mload(0x40)\n      dup1\n      swap2\n      sub\n      swap1\n      revert\n    tag_471:\n        /* \"@openzeppelin/contracts/token/ERC20/utils/SafeERC20.sol\":4271:4447  if (returndata.length > 0) {... */\n    tag_469:\n        /* \"@openzeppelin/contracts/token/ERC20/utils/SafeERC20.sol\":3817:4453  {... */\n      pop\n        /* \"@openzeppelin/contracts/token/ERC20/utils/SafeERC20.sol\":3747:4453  function _callOptionalReturn(IERC20 token, bytes memory data) private {... */\n      pop\n      pop\n      jump\t// out\n        /* \"@openzeppelin/contracts/utils/Address.sol\":3861:4084  function functionCall(... */\n    tag_468:\n        /* \"@openzeppelin/contracts/utils/Address.sol\":3994:4006  bytes memory */\n      0x60\n        /* \"@openzeppelin/contracts/utils/Address.sol\":4025:4077  functionCallWithValue(target, data, 0, errorMessage) */\n      tag_475\n        /* \"@openzeppelin/contracts/utils/Address.sol\":4047:4053  target */\n      dup5\n        /* \"@openzeppelin/contracts/utils/Address.sol\":4055:4059  data */\n      dup5\n        /* \"@openzeppelin/contracts/utils/Address.sol\":4061:4062  0 */\n      0x00\n        /* \"@openzeppelin/contracts/utils/Address.sol\":4064:4076  errorMessage */\n      dup6\n        /* \"@openzeppelin/contracts/utils/Address.sol\":4025:4046  functionCallWithValue */\n      tag_476\n        /* \"@openzeppelin/contracts/utils/Address.sol\":4025:4077  functionCallWithValue(target, data, 0, errorMessage) */\n      jump\t// in\n    tag_475:\n        /* \"@openzeppelin/contracts/utils/Address.sol\":4018:4077  return functionCallWithValue(target, data, 0, errorMessage) */\n      swap1\n      pop\n        /* \"@openzeppelin/contracts/utils/Address.sol\":3861:4084  function functionCall(... */\n      swap4\n      swap3\n      pop\n      pop\n      pop\n      jump\t// out\n        /* \"@openzeppelin/contracts/utils/Address.sol\":4948:5447  function functionCallWithValue(... */\n    tag_476:\n        /* \"@openzeppelin/contracts/utils/Address.sol\":5113:5125  bytes memory */\n      0x60\n        /* \"@openzeppelin/contracts/utils/Address.sol\":5170:5175  value */\n      dup3\n        /* \"@openzeppelin/contracts/utils/Address.sol\":5145:5166  address(this).balance */\n      selfbalance\n        /* \"@openzeppelin/contracts/utils/Address.sol\":5145:5175  address(this).balance >= value */\n      lt\n      iszero\n        /* \"@openzeppelin/contracts/utils/Address.sol\":5137:5218  require(address(this).balance >= value, \"Address: insufficient balance for call\") */\n      tag_478\n      jumpi\n      mload(0x40)\n      0x08c379a000000000000000000000000000000000000000000000000000000000\n      dup2\n      mstore\n      0x04\n      add\n      tag_479\n      swap1\n      tag_480\n      jump\t// in\n    tag_479:\n      mload(0x40)\n      dup1\n      swap2\n      sub\n      swap1\n      revert\n    tag_478:\n        /* \"@openzeppelin/contracts/utils/Address.sol\":5236:5254  isContract(target) */\n      tag_481\n        /* \"@openzeppelin/contracts/utils/Address.sol\":5247:5253  target */\n      dup6\n        /* \"@openzeppelin/contracts/utils/Address.sol\":5236:5246  isContract */\n      tag_482\n        /* \"@openzeppelin/contracts/utils/Address.sol\":5236:5254  isContract(target) */\n      jump\t// in\n    tag_481:\n        /* \"@openzeppelin/contracts/utils/Address.sol\":5228:5288  require(isContract(target), \"Address: call to non-contract\") */\n      tag_483\n      jumpi\n      mload(0x40)\n      0x08c379a000000000000000000000000000000000000000000000000000000000\n      dup2\n      mstore\n      0x04\n      add\n      tag_484\n      swap1\n      tag_485\n      jump\t// in\n    tag_484:\n      mload(0x40)\n      dup1\n      swap2\n      sub\n      swap1\n      revert\n    tag_483:\n        /* \"@openzeppelin/contracts/utils/Address.sol\":5300:5312  bool success */\n      0x00\n        /* \"@openzeppelin/contracts/utils/Address.sol\":5314:5337  bytes memory returndata */\n      dup1\n        /* \"@openzeppelin/contracts/utils/Address.sol\":5341:5347  target */\n      dup7\n        /* \"@openzeppelin/contracts/utils/Address.sol\":5341:5352  target.call */\n      0xffffffffffffffffffffffffffffffffffffffff\n      and\n        /* \"@openzeppelin/contracts/utils/Address.sol\":5360:5365  value */\n      dup6\n        /* \"@openzeppelin/contracts/utils/Address.sol\":5367:5371  data */\n      dup8\n        /* \"@openzeppelin/contracts/utils/Address.sol\":5341:5372  target.call{value: value}(data) */\n      mload(0x40)\n      tag_486\n      swap2\n      swap1\n      tag_487\n      jump\t// in\n    tag_486:\n      0x00\n      mload(0x40)\n      dup1\n      dup4\n      sub\n      dup2\n      dup6\n      dup8\n      gas\n      call\n      swap3\n      pop\n      pop\n      pop\n      returndatasize\n      dup1\n      0x00\n      dup2\n      eq\n      tag_490\n      jumpi\n      mload(0x40)\n      swap2\n      pop\n      and(add(returndatasize, 0x3f), not(0x1f))\n      dup3\n      add\n      0x40\n      mstore\n      returndatasize\n      dup3\n      mstore\n      returndatasize\n      0x00\n      0x20\n      dup5\n      add\n      returndatacopy\n      jump(tag_489)\n    tag_490:\n      0x60\n      swap2\n      pop\n    tag_489:\n      pop\n        /* \"@openzeppelin/contracts/utils/Address.sol\":5299:5372  (bool success, bytes memory returndata) = target.call{value: value}(data) */\n      swap2\n      pop\n      swap2\n      pop\n        /* \"@openzeppelin/contracts/utils/Address.sol\":5389:5440  verifyCallResult(success, returndata, errorMessage) */\n      tag_491\n        /* \"@openzeppelin/contracts/utils/Address.sol\":5406:5413  success */\n      dup3\n        /* \"@openzeppelin/contracts/utils/Address.sol\":5415:5425  returndata */\n      dup3\n        /* \"@openzeppelin/contracts/utils/Address.sol\":5427:5439  errorMessage */\n      dup7\n        /* \"@openzeppelin/contracts/utils/Address.sol\":5389:5405  verifyCallResult */\n      tag_492\n        /* \"@openzeppelin/contracts/utils/Address.sol\":5389:5440  verifyCallResult(success, returndata, errorMessage) */\n      jump\t// in\n    tag_491:\n        /* \"@openzeppelin/contracts/utils/Address.sol\":5382:5440  return verifyCallResult(success, returndata, errorMessage) */\n      swap3\n      pop\n      pop\n      pop\n        /* \"@openzeppelin/contracts/utils/Address.sol\":4948:5447  function functionCallWithValue(... */\n      swap5\n      swap4\n      pop\n      pop\n      pop\n      pop\n      jump\t// out\n        /* \"@openzeppelin/contracts/utils/Address.sol\":1175:1495  function isContract(address account) internal view returns (bool) {... */\n    tag_482:\n        /* \"@openzeppelin/contracts/utils/Address.sol\":1235:1239  bool */\n      0x00\n        /* \"@openzeppelin/contracts/utils/Address.sol\":1487:1488  0 */\n      dup1\n        /* \"@openzeppelin/contracts/utils/Address.sol\":1465:1472  account */\n      dup3\n        /* \"@openzeppelin/contracts/utils/Address.sol\":1465:1484  account.code.length */\n      0xffffffffffffffffffffffffffffffffffffffff\n      and\n      extcodesize\n        /* \"@openzeppelin/contracts/utils/Address.sol\":1465:1488  account.code.length > 0 */\n      gt\n        /* \"@openzeppelin/contracts/utils/Address.sol\":1458:1488  return account.code.length > 0 */\n      swap1\n      pop\n        /* \"@openzeppelin/contracts/utils/Address.sol\":1175:1495  function isContract(address account) internal view returns (bool) {... */\n      swap2\n      swap1\n      pop\n      jump\t// out\n        /* \"@openzeppelin/contracts/utils/Address.sol\":7561:8303  function verifyCallResult(... */\n    tag_492:\n        /* \"@openzeppelin/contracts/utils/Address.sol\":7707:7719  bytes memory */\n      0x60\n        /* \"@openzeppelin/contracts/utils/Address.sol\":7735:7742  success */\n      dup4\n        /* \"@openzeppelin/contracts/utils/Address.sol\":7731:8297  if (success) {... */\n      iszero\n      tag_495\n      jumpi\n        /* \"@openzeppelin/contracts/utils/Address.sol\":7765:7775  returndata */\n      dup3\n        /* \"@openzeppelin/contracts/utils/Address.sol\":7758:7775  return returndata */\n      swap1\n      pop\n      jump(tag_494)\n        /* \"@openzeppelin/contracts/utils/Address.sol\":7731:8297  if (success) {... */\n    tag_495:\n        /* \"@openzeppelin/contracts/utils/Address.sol\":7896:7897  0 */\n      0x00\n        /* \"@openzeppelin/contracts/utils/Address.sol\":7876:7886  returndata */\n      dup4\n        /* \"@openzeppelin/contracts/utils/Address.sol\":7876:7893  returndata.length */\n      mload\n        /* \"@openzeppelin/contracts/utils/Address.sol\":7876:7897  returndata.length > 0 */\n      gt\n        /* \"@openzeppelin/contracts/utils/Address.sol\":7872:8287  if (returndata.length > 0) {... */\n      iszero\n      tag_497\n      jumpi\n        /* \"@openzeppelin/contracts/utils/Address.sol\":8120:8130  returndata */\n      dup3\n        /* \"@openzeppelin/contracts/utils/Address.sol\":8114:8131  mload(returndata) */\n      mload\n        /* \"@openzeppelin/contracts/utils/Address.sol\":8180:8195  returndata_size */\n      dup1\n        /* \"@openzeppelin/contracts/utils/Address.sol\":8167:8177  returndata */\n      dup5\n        /* \"@openzeppelin/contracts/utils/Address.sol\":8163:8165  32 */\n      0x20\n        /* \"@openzeppelin/contracts/utils/Address.sol\":8159:8178  add(32, returndata) */\n      add\n        /* \"@openzeppelin/contracts/utils/Address.sol\":8152:8196  revert(add(32, returndata), returndata_size) */\n      revert\n        /* \"@openzeppelin/contracts/utils/Address.sol\":7872:8287  if (returndata.length > 0) {... */\n    tag_497:\n        /* \"@openzeppelin/contracts/utils/Address.sol\":8259:8271  errorMessage */\n      dup2\n        /* \"@openzeppelin/contracts/utils/Address.sol\":8252:8272  revert(errorMessage) */\n      mload(0x40)\n      0x08c379a000000000000000000000000000000000000000000000000000000000\n      dup2\n      mstore\n      0x04\n      add\n      tag_499\n      swap2\n      swap1\n      tag_362\n      jump\t// in\n    tag_499:\n      mload(0x40)\n      dup1\n      swap2\n      sub\n      swap1\n      revert\n        /* \"@openzeppelin/contracts/utils/Address.sol\":7561:8303  function verifyCallResult(... */\n    tag_494:\n      swap4\n      swap3\n      pop\n      pop\n      pop\n      jump\t// out\n        /* \"#utility.yul\":7:82   */\n    tag_500:\n        /* \"#utility.yul\":40:46   */\n      0x00\n        /* \"#utility.yul\":73:75   */\n      0x40\n        /* \"#utility.yul\":67:76   */\n      mload\n        /* \"#utility.yul\":57:76   */\n      swap1\n      pop\n        /* \"#utility.yul\":7:82   */\n      swap1\n      jump\t// out\n        /* \"#utility.yul\":88:205   */\n    tag_501:\n        /* \"#utility.yul\":197:198   */\n      0x00\n        /* \"#utility.yul\":194:195   */\n      dup1\n        /* \"#utility.yul\":187:199   */\n      revert\n        /* \"#utility.yul\":211:328   */\n    tag_502:\n        /* \"#utility.yul\":320:321   */\n      0x00\n        /* \"#utility.yul\":317:318   */\n      dup1\n        /* \"#utility.yul\":310:322   */\n      revert\n        /* \"#utility.yul\":334:460   */\n    tag_503:\n        /* \"#utility.yul\":371:378   */\n      0x00\n        /* \"#utility.yul\":411:453   */\n      0xffffffffffffffffffffffffffffffffffffffff\n        /* \"#utility.yul\":404:409   */\n      dup3\n        /* \"#utility.yul\":400:454   */\n      and\n        /* \"#utility.yul\":389:454   */\n      swap1\n      pop\n        /* \"#utility.yul\":334:460   */\n      swap2\n      swap1\n      pop\n      jump\t// out\n        /* \"#utility.yul\":466:562   */\n    tag_504:\n        /* \"#utility.yul\":503:510   */\n      0x00\n        /* \"#utility.yul\":532:556   */\n      tag_603\n        /* \"#utility.yul\":550:555   */\n      dup3\n        /* \"#utility.yul\":532:556   */\n      tag_503\n      jump\t// in\n    tag_603:\n        /* \"#utility.yul\":521:556   */\n      swap1\n      pop\n        /* \"#utility.yul\":466:562   */\n      swap2\n      swap1\n      pop\n      jump\t// out\n        /* \"#utility.yul\":568:690   */\n    tag_505:\n        /* \"#utility.yul\":641:665   */\n      tag_605\n        /* \"#utility.yul\":659:664   */\n      dup2\n        /* \"#utility.yul\":641:665   */\n      tag_504\n      jump\t// in\n    tag_605:\n        /* \"#utility.yul\":634:639   */\n      dup2\n        /* \"#utility.yul\":631:666   */\n      eq\n        /* \"#utility.yul\":621:684   */\n      tag_606\n      jumpi\n        /* \"#utility.yul\":680:681   */\n      0x00\n        /* \"#utility.yul\":677:678   */\n      dup1\n        /* \"#utility.yul\":670:682   */\n      revert\n        /* \"#utility.yul\":621:684   */\n    tag_606:\n        /* \"#utility.yul\":568:690   */\n      pop\n      jump\t// out\n        /* \"#utility.yul\":696:835   */\n    tag_506:\n        /* \"#utility.yul\":742:747   */\n      0x00\n        /* \"#utility.yul\":780:786   */\n      dup2\n        /* \"#utility.yul\":767:787   */\n      calldataload\n        /* \"#utility.yul\":758:787   */\n      swap1\n      pop\n        /* \"#utility.yul\":796:829   */\n      tag_608\n        /* \"#utility.yul\":823:828   */\n      dup2\n        /* \"#utility.yul\":796:829   */\n      tag_505\n      jump\t// in\n    tag_608:\n        /* \"#utility.yul\":696:835   */\n      swap3\n      swap2\n      pop\n      pop\n      jump\t// out\n        /* \"#utility.yul\":841:1170   */\n    tag_42:\n        /* \"#utility.yul\":900:906   */\n      0x00\n        /* \"#utility.yul\":949:951   */\n      0x20\n        /* \"#utility.yul\":937:946   */\n      dup3\n        /* \"#utility.yul\":928:935   */\n      dup5\n        /* \"#utility.yul\":924:947   */\n      sub\n        /* \"#utility.yul\":920:952   */\n      slt\n        /* \"#utility.yul\":917:1036   */\n      iszero\n      tag_610\n      jumpi\n        /* \"#utility.yul\":955:1034   */\n      tag_611\n      tag_501\n      jump\t// in\n    tag_611:\n        /* \"#utility.yul\":917:1036   */\n    tag_610:\n        /* \"#utility.yul\":1075:1076   */\n      0x00\n        /* \"#utility.yul\":1100:1153   */\n      tag_612\n        /* \"#utility.yul\":1145:1152   */\n      dup5\n        /* \"#utility.yul\":1136:1142   */\n      dup3\n        /* \"#utility.yul\":1125:1134   */\n      dup6\n        /* \"#utility.yul\":1121:1143   */\n      add\n        /* \"#utility.yul\":1100:1153   */\n      tag_506\n      jump\t// in\n    tag_612:\n        /* \"#utility.yul\":1090:1153   */\n      swap2\n      pop\n        /* \"#utility.yul\":1046:1163   */\n      pop\n        /* \"#utility.yul\":841:1170   */\n      swap3\n      swap2\n      pop\n      pop\n      jump\t// out\n        /* \"#utility.yul\":1176:1294   */\n    tag_507:\n        /* \"#utility.yul\":1263:1287   */\n      tag_614\n        /* \"#utility.yul\":1281:1286   */\n      dup2\n        /* \"#utility.yul\":1263:1287   */\n      tag_504\n      jump\t// in\n    tag_614:\n        /* \"#utility.yul\":1258:1261   */\n      dup3\n        /* \"#utility.yul\":1251:1288   */\n      mstore\n        /* \"#utility.yul\":1176:1294   */\n      pop\n      pop\n      jump\t// out\n        /* \"#utility.yul\":1300:1632   */\n    tag_50:\n        /* \"#utility.yul\":1421:1425   */\n      0x00\n        /* \"#utility.yul\":1459:1461   */\n      0x40\n        /* \"#utility.yul\":1448:1457   */\n      dup3\n        /* \"#utility.yul\":1444:1462   */\n      add\n        /* \"#utility.yul\":1436:1462   */\n      swap1\n      pop\n        /* \"#utility.yul\":1472:1543   */\n      tag_616\n        /* \"#utility.yul\":1540:1541   */\n      0x00\n        /* \"#utility.yul\":1529:1538   */\n      dup4\n        /* \"#utility.yul\":1525:1542   */\n      add\n        /* \"#utility.yul\":1516:1522   */\n      dup6\n        /* \"#utility.yul\":1472:1543   */\n      tag_507\n      jump\t// in\n    tag_616:\n        /* \"#utility.yul\":1553:1625   */\n      tag_617\n        /* \"#utility.yul\":1621:1623   */\n      0x20\n        /* \"#utility.yul\":1610:1619   */\n      dup4\n        /* \"#utility.yul\":1606:1624   */\n      add\n        /* \"#utility.yul\":1597:1603   */\n      dup5\n        /* \"#utility.yul\":1553:1625   */\n      tag_507\n      jump\t// in\n    tag_617:\n        /* \"#utility.yul\":1300:1632   */\n      swap4\n      swap3\n      pop\n      pop\n      pop\n      jump\t// out\n        /* \"#utility.yul\":1638:1715   */\n    tag_508:\n        /* \"#utility.yul\":1675:1682   */\n      0x00\n        /* \"#utility.yul\":1704:1709   */\n      dup2\n        /* \"#utility.yul\":1693:1709   */\n      swap1\n      pop\n        /* \"#utility.yul\":1638:1715   */\n      swap2\n      swap1\n      pop\n      jump\t// out\n        /* \"#utility.yul\":1721:1839   */\n    tag_509:\n        /* \"#utility.yul\":1808:1832   */\n      tag_620\n        /* \"#utility.yul\":1826:1831   */\n      dup2\n        /* \"#utility.yul\":1808:1832   */\n      tag_508\n      jump\t// in\n    tag_620:\n        /* \"#utility.yul\":1803:1806   */\n      dup3\n        /* \"#utility.yul\":1796:1833   */\n      mstore\n        /* \"#utility.yul\":1721:1839   */\n      pop\n      pop\n      jump\t// out\n        /* \"#utility.yul\":1845:2067   */\n    tag_56:\n        /* \"#utility.yul\":1938:1942   */\n      0x00\n        /* \"#utility.yul\":1976:1978   */\n      0x20\n        /* \"#utility.yul\":1965:1974   */\n      dup3\n        /* \"#utility.yul\":1961:1979   */\n      add\n        /* \"#utility.yul\":1953:1979   */\n      swap1\n      pop\n        /* \"#utility.yul\":1989:2060   */\n      tag_622\n        /* \"#utility.yul\":2057:2058   */\n      0x00\n        /* \"#utility.yul\":2046:2055   */\n      dup4\n        /* \"#utility.yul\":2042:2059   */\n      add\n        /* \"#utility.yul\":2033:2039   */\n      dup5\n        /* \"#utility.yul\":1989:2060   */\n      tag_509\n      jump\t// in\n    tag_622:\n        /* \"#utility.yul\":1845:2067   */\n      swap3\n      swap2\n      pop\n      pop\n      jump\t// out\n        /* \"#utility.yul\":2073:2163   */\n    tag_510:\n        /* \"#utility.yul\":2107:2114   */\n      0x00\n        /* \"#utility.yul\":2150:2155   */\n      dup2\n        /* \"#utility.yul\":2143:2156   */\n      iszero\n        /* \"#utility.yul\":2136:2157   */\n      iszero\n        /* \"#utility.yul\":2125:2157   */\n      swap1\n      pop\n        /* \"#utility.yul\":2073:2163   */\n      swap2\n      swap1\n      pop\n      jump\t// out\n        /* \"#utility.yul\":2169:2278   */\n    tag_511:\n        /* \"#utility.yul\":2250:2271   */\n      tag_625\n        /* \"#utility.yul\":2265:2270   */\n      dup2\n        /* \"#utility.yul\":2250:2271   */\n      tag_510\n      jump\t// in\n    tag_625:\n        /* \"#utility.yul\":2245:2248   */\n      dup3\n        /* \"#utility.yul\":2238:2272   */\n      mstore\n        /* \"#utility.yul\":2169:2278   */\n      pop\n      pop\n      jump\t// out\n        /* \"#utility.yul\":2284:2494   */\n    tag_62:\n        /* \"#utility.yul\":2371:2375   */\n      0x00\n        /* \"#utility.yul\":2409:2411   */\n      0x20\n        /* \"#utility.yul\":2398:2407   */\n      dup3\n        /* \"#utility.yul\":2394:2412   */\n      add\n        /* \"#utility.yul\":2386:2412   */\n      swap1\n      pop\n        /* \"#utility.yul\":2422:2487   */\n      tag_627\n        /* \"#utility.yul\":2484:2485   */\n      0x00\n        /* \"#utility.yul\":2473:2482   */\n      dup4\n        /* \"#utility.yul\":2469:2486   */\n      add\n        /* \"#utility.yul\":2460:2466   */\n      dup5\n        /* \"#utility.yul\":2422:2487   */\n      tag_511\n      jump\t// in\n    tag_627:\n        /* \"#utility.yul\":2284:2494   */\n      swap3\n      swap2\n      pop\n      pop\n      jump\t// out\n        /* \"#utility.yul\":2500:2622   */\n    tag_512:\n        /* \"#utility.yul\":2573:2597   */\n      tag_629\n        /* \"#utility.yul\":2591:2596   */\n      dup2\n        /* \"#utility.yul\":2573:2597   */\n      tag_508\n      jump\t// in\n    tag_629:\n        /* \"#utility.yul\":2566:2571   */\n      dup2\n        /* \"#utility.yul\":2563:2598   */\n      eq\n        /* \"#utility.yul\":2553:2616   */\n      tag_630\n      jumpi\n        /* \"#utility.yul\":2612:2613   */\n      0x00\n        /* \"#utility.yul\":2609:2610   */\n      dup1\n        /* \"#utility.yul\":2602:2614   */\n      revert\n        /* \"#utility.yul\":2553:2616   */\n    tag_630:\n        /* \"#utility.yul\":2500:2622   */\n      pop\n      jump\t// out\n        /* \"#utility.yul\":2628:2767   */\n    tag_513:\n        /* \"#utility.yul\":2674:2679   */\n      0x00\n        /* \"#utility.yul\":2712:2718   */\n      dup2\n        /* \"#utility.yul\":2699:2719   */\n      calldataload\n        /* \"#utility.yul\":2690:2719   */\n      swap1\n      pop\n        /* \"#utility.yul\":2728:2761   */\n      tag_632\n        /* \"#utility.yul\":2755:2760   */\n      dup2\n        /* \"#utility.yul\":2728:2761   */\n      tag_512\n      jump\t// in\n    tag_632:\n        /* \"#utility.yul\":2628:2767   */\n      swap3\n      swap2\n      pop\n      pop\n      jump\t// out\n        /* \"#utility.yul\":2773:3392   */\n    tag_65:\n        /* \"#utility.yul\":2850:2856   */\n      0x00\n        /* \"#utility.yul\":2858:2864   */\n      dup1\n        /* \"#utility.yul\":2866:2872   */\n      0x00\n        /* \"#utility.yul\":2915:2917   */\n      0x60\n        /* \"#utility.yul\":2903:2912   */\n      dup5\n        /* \"#utility.yul\":2894:2901   */\n      dup7\n        /* \"#utility.yul\":2890:2913   */\n      sub\n        /* \"#utility.yul\":2886:2918   */\n      slt\n        /* \"#utility.yul\":2883:3002   */\n      iszero\n      tag_634\n      jumpi\n        /* \"#utility.yul\":2921:3000   */\n      tag_635\n      tag_501\n      jump\t// in\n    tag_635:\n        /* \"#utility.yul\":2883:3002   */\n    tag_634:\n        /* \"#utility.yul\":3041:3042   */\n      0x00\n        /* \"#utility.yul\":3066:3119   */\n      tag_636\n        /* \"#utility.yul\":3111:3118   */\n      dup7\n        /* \"#utility.yul\":3102:3108   */\n      dup3\n        /* \"#utility.yul\":3091:3100   */\n      dup8\n        /* \"#utility.yul\":3087:3109   */\n      add\n        /* \"#utility.yul\":3066:3119   */\n      tag_506\n      jump\t// in\n    tag_636:\n        /* \"#utility.yul\":3056:3119   */\n      swap4\n      pop\n        /* \"#utility.yul\":3012:3129   */\n      pop\n        /* \"#utility.yul\":3168:3170   */\n      0x20\n        /* \"#utility.yul\":3194:3247   */\n      tag_637\n        /* \"#utility.yul\":3239:3246   */\n      dup7\n        /* \"#utility.yul\":3230:3236   */\n      dup3\n        /* \"#utility.yul\":3219:3228   */\n      dup8\n        /* \"#utility.yul\":3215:3237   */\n      add\n        /* \"#utility.yul\":3194:3247   */\n      tag_506\n      jump\t// in\n    tag_637:\n        /* \"#utility.yul\":3184:3247   */\n      swap3\n      pop\n        /* \"#utility.yul\":3139:3257   */\n      pop\n        /* \"#utility.yul\":3296:3298   */\n      0x40\n        /* \"#utility.yul\":3322:3375   */\n      tag_638\n        /* \"#utility.yul\":3367:3374   */\n      dup7\n        /* \"#utility.yul\":3358:3364   */\n      dup3\n        /* \"#utility.yul\":3347:3356   */\n      dup8\n        /* \"#utility.yul\":3343:3365   */\n      add\n        /* \"#utility.yul\":3322:3375   */\n      tag_513\n      jump\t// in\n    tag_638:\n        /* \"#utility.yul\":3312:3375   */\n      swap2\n      pop\n        /* \"#utility.yul\":3267:3385   */\n      pop\n        /* \"#utility.yul\":2773:3392   */\n      swap3\n      pop\n      swap3\n      pop\n      swap3\n      jump\t// out\n        /* \"#utility.yul\":3398:4017   */\n    tag_75:\n        /* \"#utility.yul\":3475:3481   */\n      0x00\n        /* \"#utility.yul\":3483:3489   */\n      dup1\n        /* \"#utility.yul\":3491:3497   */\n      0x00\n        /* \"#utility.yul\":3540:3542   */\n      0x60\n        /* \"#utility.yul\":3528:3537   */\n      dup5\n        /* \"#utility.yul\":3519:3526   */\n      dup7\n        /* \"#utility.yul\":3515:3538   */\n      sub\n        /* \"#utility.yul\":3511:3543   */\n      slt\n        /* \"#utility.yul\":3508:3627   */\n      iszero\n      tag_640\n      jumpi\n        /* \"#utility.yul\":3546:3625   */\n      tag_641\n      tag_501\n      jump\t// in\n    tag_641:\n        /* \"#utility.yul\":3508:3627   */\n    tag_640:\n        /* \"#utility.yul\":3666:3667   */\n      0x00\n        /* \"#utility.yul\":3691:3744   */\n      tag_642\n        /* \"#utility.yul\":3736:3743   */\n      dup7\n        /* \"#utility.yul\":3727:3733   */\n      dup3\n        /* \"#utility.yul\":3716:3725   */\n      dup8\n        /* \"#utility.yul\":3712:3734   */\n      add\n        /* \"#utility.yul\":3691:3744   */\n      tag_513\n      jump\t// in\n    tag_642:\n        /* \"#utility.yul\":3681:3744   */\n      swap4\n      pop\n        /* \"#utility.yul\":3637:3754   */\n      pop\n        /* \"#utility.yul\":3793:3795   */\n      0x20\n        /* \"#utility.yul\":3819:3872   */\n      tag_643\n        /* \"#utility.yul\":3864:3871   */\n      dup7\n        /* \"#utility.yul\":3855:3861   */\n      dup3\n        /* \"#utility.yul\":3844:3853   */\n      dup8\n        /* \"#utility.yul\":3840:3862   */\n      add\n        /* \"#utility.yul\":3819:3872   */\n      tag_513\n      jump\t// in\n    tag_643:\n        /* \"#utility.yul\":3809:3872   */\n      swap3\n      pop\n        /* \"#utility.yul\":3764:3882   */\n      pop\n        /* \"#utility.yul\":3921:3923   */\n      0x40\n        /* \"#utility.yul\":3947:4000   */\n      tag_644\n        /* \"#utility.yul\":3992:3999   */\n      dup7\n        /* \"#utility.yul\":3983:3989   */\n      dup3\n        /* \"#utility.yul\":3972:3981   */\n      dup8\n        /* \"#utility.yul\":3968:3990   */\n      add\n        /* \"#utility.yul\":3947:4000   */\n      tag_513\n      jump\t// in\n    tag_644:\n        /* \"#utility.yul\":3937:4000   */\n      swap2\n      pop\n        /* \"#utility.yul\":3892:4010   */\n      pop\n        /* \"#utility.yul\":3398:4017   */\n      swap3\n      pop\n      swap3\n      pop\n      swap3\n      jump\t// out\n        /* \"#utility.yul\":4023:4245   */\n    tag_81:\n        /* \"#utility.yul\":4116:4120   */\n      0x00\n        /* \"#utility.yul\":4154:4156   */\n      0x20\n        /* \"#utility.yul\":4143:4152   */\n      dup3\n        /* \"#utility.yul\":4139:4157   */\n      add\n        /* \"#utility.yul\":4131:4157   */\n      swap1\n      pop\n        /* \"#utility.yul\":4167:4238   */\n      tag_646\n        /* \"#utility.yul\":4235:4236   */\n      0x00\n        /* \"#utility.yul\":4224:4233   */\n      dup4\n        /* \"#utility.yul\":4220:4237   */\n      add\n        /* \"#utility.yul\":4211:4217   */\n      dup5\n        /* \"#utility.yul\":4167:4238   */\n      tag_507\n      jump\t// in\n    tag_646:\n        /* \"#utility.yul\":4023:4245   */\n      swap3\n      swap2\n      pop\n      pop\n      jump\t// out\n        /* \"#utility.yul\":4251:4580   */\n    tag_84:\n        /* \"#utility.yul\":4310:4316   */\n      0x00\n        /* \"#utility.yul\":4359:4361   */\n      0x20\n        /* \"#utility.yul\":4347:4356   */\n      dup3\n        /* \"#utility.yul\":4338:4345   */\n      dup5\n        /* \"#utility.yul\":4334:4357   */\n      sub\n        /* \"#utility.yul\":4330:4362   */\n      slt\n        /* \"#utility.yul\":4327:4446   */\n      iszero\n      tag_648\n      jumpi\n        /* \"#utility.yul\":4365:4444   */\n      tag_649\n      tag_501\n      jump\t// in\n    tag_649:\n        /* \"#utility.yul\":4327:4446   */\n    tag_648:\n        /* \"#utility.yul\":4485:4486   */\n      0x00\n        /* \"#utility.yul\":4510:4563   */\n      tag_650\n        /* \"#utility.yul\":4555:4562   */\n      dup5\n        /* \"#utility.yul\":4546:4552   */\n      dup3\n        /* \"#utility.yul\":4535:4544   */\n      dup6\n        /* \"#utility.yul\":4531:4553   */\n      add\n        /* \"#utility.yul\":4510:4563   */\n      tag_513\n      jump\t// in\n    tag_650:\n        /* \"#utility.yul\":4500:4563   */\n      swap2\n      pop\n        /* \"#utility.yul\":4456:4573   */\n      pop\n        /* \"#utility.yul\":4251:4580   */\n      swap3\n      swap2\n      pop\n      pop\n      jump\t// out\n        /* \"#utility.yul\":4586:4663   */\n    tag_514:\n        /* \"#utility.yul\":4623:4630   */\n      0x00\n        /* \"#utility.yul\":4652:4657   */\n      dup2\n        /* \"#utility.yul\":4641:4657   */\n      swap1\n      pop\n        /* \"#utility.yul\":4586:4663   */\n      swap2\n      swap1\n      pop\n      jump\t// out\n        /* \"#utility.yul\":4669:4791   */\n    tag_515:\n        /* \"#utility.yul\":4742:4766   */\n      tag_653\n        /* \"#utility.yul\":4760:4765   */\n      dup2\n        /* \"#utility.yul\":4742:4766   */\n      tag_514\n      jump\t// in\n    tag_653:\n        /* \"#utility.yul\":4735:4740   */\n      dup2\n        /* \"#utility.yul\":4732:4767   */\n      eq\n        /* \"#utility.yul\":4722:4785   */\n      tag_654\n      jumpi\n        /* \"#utility.yul\":4781:4782   */\n      0x00\n        /* \"#utility.yul\":4778:4779   */\n      dup1\n        /* \"#utility.yul\":4771:4783   */\n      revert\n        /* \"#utility.yul\":4722:4785   */\n    tag_654:\n        /* \"#utility.yul\":4669:4791   */\n      pop\n      jump\t// out\n        /* \"#utility.yul\":4797:4936   */\n    tag_516:\n        /* \"#utility.yul\":4843:4848   */\n      0x00\n        /* \"#utility.yul\":4881:4887   */\n      dup2\n        /* \"#utility.yul\":4868:4888   */\n      calldataload\n        /* \"#utility.yul\":4859:4888   */\n      swap1\n      pop\n        /* \"#utility.yul\":4897:4930   */\n      tag_656\n        /* \"#utility.yul\":4924:4929   */\n      dup2\n        /* \"#utility.yul\":4897:4930   */\n      tag_515\n      jump\t// in\n    tag_656:\n        /* \"#utility.yul\":4797:4936   */\n      swap3\n      swap2\n      pop\n      pop\n      jump\t// out\n        /* \"#utility.yul\":4942:5416   */\n    tag_100:\n        /* \"#utility.yul\":5010:5016   */\n      0x00\n        /* \"#utility.yul\":5018:5024   */\n      dup1\n        /* \"#utility.yul\":5067:5069   */\n      0x40\n        /* \"#utility.yul\":5055:5064   */\n      dup4\n        /* \"#utility.yul\":5046:5053   */\n      dup6\n        /* \"#utility.yul\":5042:5065   */\n      sub\n        /* \"#utility.yul\":5038:5070   */\n      slt\n        /* \"#utility.yul\":5035:5154   */\n      iszero\n      tag_658\n      jumpi\n        /* \"#utility.yul\":5073:5152   */\n      tag_659\n      tag_501\n      jump\t// in\n    tag_659:\n        /* \"#utility.yul\":5035:5154   */\n    tag_658:\n        /* \"#utility.yul\":5193:5194   */\n      0x00\n        /* \"#utility.yul\":5218:5271   */\n      tag_660\n        /* \"#utility.yul\":5263:5270   */\n      dup6\n        /* \"#utility.yul\":5254:5260   */\n      dup3\n        /* \"#utility.yul\":5243:5252   */\n      dup7\n        /* \"#utility.yul\":5239:5261   */\n      add\n        /* \"#utility.yul\":5218:5271   */\n      tag_513\n      jump\t// in\n    tag_660:\n        /* \"#utility.yul\":5208:5271   */\n      swap3\n      pop\n        /* \"#utility.yul\":5164:5281   */\n      pop\n        /* \"#utility.yul\":5320:5322   */\n      0x20\n        /* \"#utility.yul\":5346:5399   */\n      tag_661\n        /* \"#utility.yul\":5391:5398   */\n      dup6\n        /* \"#utility.yul\":5382:5388   */\n      dup3\n        /* \"#utility.yul\":5371:5380   */\n      dup7\n        /* \"#utility.yul\":5367:5389   */\n      add\n        /* \"#utility.yul\":5346:5399   */\n      tag_516\n      jump\t// in\n    tag_661:\n        /* \"#utility.yul\":5336:5399   */\n      swap2\n      pop\n        /* \"#utility.yul\":5291:5409   */\n      pop\n        /* \"#utility.yul\":4942:5416   */\n      swap3\n      pop\n      swap3\n      swap1\n      pop\n      jump\t// out\n        /* \"#utility.yul\":5422:5521   */\n    tag_517:\n        /* \"#utility.yul\":5474:5480   */\n      0x00\n        /* \"#utility.yul\":5508:5513   */\n      dup2\n        /* \"#utility.yul\":5502:5514   */\n      mload\n        /* \"#utility.yul\":5492:5514   */\n      swap1\n      pop\n        /* \"#utility.yul\":5422:5521   */\n      swap2\n      swap1\n      pop\n      jump\t// out\n        /* \"#utility.yul\":5527:5696   */\n    tag_518:\n        /* \"#utility.yul\":5611:5622   */\n      0x00\n        /* \"#utility.yul\":5645:5651   */\n      dup3\n        /* \"#utility.yul\":5640:5643   */\n      dup3\n        /* \"#utility.yul\":5633:5652   */\n      mstore\n        /* \"#utility.yul\":5685:5689   */\n      0x20\n        /* \"#utility.yul\":5680:5683   */\n      dup3\n        /* \"#utility.yul\":5676:5690   */\n      add\n        /* \"#utility.yul\":5661:5690   */\n      swap1\n      pop\n        /* \"#utility.yul\":5527:5696   */\n      swap3\n      swap2\n      pop\n      pop\n      jump\t// out\n        /* \"#utility.yul\":5702:5948   */\n    tag_519:\n        /* \"#utility.yul\":5783:5784   */\n      0x00\n        /* \"#utility.yul\":5793:5906   */\n    tag_665:\n        /* \"#utility.yul\":5807:5813   */\n      dup4\n        /* \"#utility.yul\":5804:5805   */\n      dup2\n        /* \"#utility.yul\":5801:5814   */\n      lt\n        /* \"#utility.yul\":5793:5906   */\n      iszero\n      tag_667\n      jumpi\n        /* \"#utility.yul\":5892:5893   */\n      dup1\n        /* \"#utility.yul\":5887:5890   */\n      dup3\n        /* \"#utility.yul\":5883:5894   */\n      add\n        /* \"#utility.yul\":5877:5895   */\n      mload\n        /* \"#utility.yul\":5873:5874   */\n      dup2\n        /* \"#utility.yul\":5868:5871   */\n      dup5\n        /* \"#utility.yul\":5864:5875   */\n      add\n        /* \"#utility.yul\":5857:5896   */\n      mstore\n        /* \"#utility.yul\":5829:5831   */\n      0x20\n        /* \"#utility.yul\":5826:5827   */\n      dup2\n        /* \"#utility.yul\":5822:5832   */\n      add\n        /* \"#utility.yul\":5817:5832   */\n      swap1\n      pop\n        /* \"#utility.yul\":5793:5906   */\n      jump(tag_665)\n    tag_667:\n        /* \"#utility.yul\":5940:5941   */\n      0x00\n        /* \"#utility.yul\":5931:5937   */\n      dup5\n        /* \"#utility.yul\":5926:5929   */\n      dup5\n        /* \"#utility.yul\":5922:5938   */\n      add\n        /* \"#utility.yul\":5915:5942   */\n      mstore\n        /* \"#utility.yul\":5764:5948   */\n      pop\n        /* \"#utility.yul\":5702:5948   */\n      pop\n      pop\n      pop\n      jump\t// out\n        /* \"#utility.yul\":5954:6056   */\n    tag_520:\n        /* \"#utility.yul\":5995:6001   */\n      0x00\n        /* \"#utility.yul\":6046:6048   */\n      0x1f\n        /* \"#utility.yul\":6042:6049   */\n      not\n        /* \"#utility.yul\":6037:6039   */\n      0x1f\n        /* \"#utility.yul\":6030:6035   */\n      dup4\n        /* \"#utility.yul\":6026:6040   */\n      add\n        /* \"#utility.yul\":6022:6050   */\n      and\n        /* \"#utility.yul\":6012:6050   */\n      swap1\n      pop\n        /* \"#utility.yul\":5954:6056   */\n      swap2\n      swap1\n      pop\n      jump\t// out\n        /* \"#utility.yul\":6062:6439   */\n    tag_521:\n        /* \"#utility.yul\":6150:6153   */\n      0x00\n        /* \"#utility.yul\":6178:6217   */\n      tag_670\n        /* \"#utility.yul\":6211:6216   */\n      dup3\n        /* \"#utility.yul\":6178:6217   */\n      tag_517\n      jump\t// in\n    tag_670:\n        /* \"#utility.yul\":6233:6304   */\n      tag_671\n        /* \"#utility.yul\":6297:6303   */\n      dup2\n        /* \"#utility.yul\":6292:6295   */\n      dup6\n        /* \"#utility.yul\":6233:6304   */\n      tag_518\n      jump\t// in\n    tag_671:\n        /* \"#utility.yul\":6226:6304   */\n      swap4\n      pop\n        /* \"#utility.yul\":6313:6378   */\n      tag_672\n        /* \"#utility.yul\":6371:6377   */\n      dup2\n        /* \"#utility.yul\":6366:6369   */\n      dup6\n        /* \"#utility.yul\":6359:6363   */\n      0x20\n        /* \"#utility.yul\":6352:6357   */\n      dup7\n        /* \"#utility.yul\":6348:6364   */\n      add\n        /* \"#utility.yul\":6313:6378   */\n      tag_519\n      jump\t// in\n    tag_672:\n        /* \"#utility.yul\":6403:6432   */\n      tag_673\n        /* \"#utility.yul\":6425:6431   */\n      dup2\n        /* \"#utility.yul\":6403:6432   */\n      tag_520\n      jump\t// in\n    tag_673:\n        /* \"#utility.yul\":6398:6401   */\n      dup5\n        /* \"#utility.yul\":6394:6433   */\n      add\n        /* \"#utility.yul\":6387:6433   */\n      swap2\n      pop\n        /* \"#utility.yul\":6154:6439   */\n      pop\n        /* \"#utility.yul\":6062:6439   */\n      swap3\n      swap2\n      pop\n      pop\n      jump\t// out\n        /* \"#utility.yul\":6445:6868   */\n    tag_105:\n        /* \"#utility.yul\":6586:6590   */\n      0x00\n        /* \"#utility.yul\":6624:6626   */\n      0x40\n        /* \"#utility.yul\":6613:6622   */\n      dup3\n        /* \"#utility.yul\":6609:6627   */\n      add\n        /* \"#utility.yul\":6601:6627   */\n      swap1\n      pop\n        /* \"#utility.yul\":6637:6708   */\n      tag_675\n        /* \"#utility.yul\":6705:6706   */\n      0x00\n        /* \"#utility.yul\":6694:6703   */\n      dup4\n        /* \"#utility.yul\":6690:6707   */\n      add\n        /* \"#utility.yul\":6681:6687   */\n      dup6\n        /* \"#utility.yul\":6637:6708   */\n      tag_507\n      jump\t// in\n    tag_675:\n        /* \"#utility.yul\":6755:6764   */\n      dup2\n        /* \"#utility.yul\":6749:6753   */\n      dup2\n        /* \"#utility.yul\":6745:6765   */\n      sub\n        /* \"#utility.yul\":6740:6742   */\n      0x20\n        /* \"#utility.yul\":6729:6738   */\n      dup4\n        /* \"#utility.yul\":6725:6743   */\n      add\n        /* \"#utility.yul\":6718:6766   */\n      mstore\n        /* \"#utility.yul\":6783:6861   */\n      tag_676\n        /* \"#utility.yul\":6856:6860   */\n      dup2\n        /* \"#utility.yul\":6847:6853   */\n      dup5\n        /* \"#utility.yul\":6783:6861   */\n      tag_521\n      jump\t// in\n    tag_676:\n        /* \"#utility.yul\":6775:6861   */\n      swap1\n      pop\n        /* \"#utility.yul\":6445:6868   */\n      swap4\n      swap3\n      pop\n      pop\n      pop\n      jump\t// out\n        /* \"#utility.yul\":6874:7297   */\n    tag_116:\n        /* \"#utility.yul\":7015:7019   */\n      0x00\n        /* \"#utility.yul\":7053:7055   */\n      0x40\n        /* \"#utility.yul\":7042:7051   */\n      dup3\n        /* \"#utility.yul\":7038:7056   */\n      add\n        /* \"#utility.yul\":7030:7056   */\n      swap1\n      pop\n        /* \"#utility.yul\":7102:7111   */\n      dup2\n        /* \"#utility.yul\":7096:7100   */\n      dup2\n        /* \"#utility.yul\":7092:7112   */\n      sub\n        /* \"#utility.yul\":7088:7089   */\n      0x00\n        /* \"#utility.yul\":7077:7086   */\n      dup4\n        /* \"#utility.yul\":7073:7090   */\n      add\n        /* \"#utility.yul\":7066:7113   */\n      mstore\n        /* \"#utility.yul\":7130:7208   */\n      tag_678\n        /* \"#utility.yul\":7203:7207   */\n      dup2\n        /* \"#utility.yul\":7194:7200   */\n      dup6\n        /* \"#utility.yul\":7130:7208   */\n      tag_521\n      jump\t// in\n    tag_678:\n        /* \"#utility.yul\":7122:7208   */\n      swap1\n      pop\n        /* \"#utility.yul\":7218:7290   */\n      tag_679\n        /* \"#utility.yul\":7286:7288   */\n      0x20\n        /* \"#utility.yul\":7275:7284   */\n      dup4\n        /* \"#utility.yul\":7271:7289   */\n      add\n        /* \"#utility.yul\":7262:7268   */\n      dup5\n        /* \"#utility.yul\":7218:7290   */\n      tag_507\n      jump\t// in\n    tag_679:\n        /* \"#utility.yul\":6874:7297   */\n      swap4\n      swap3\n      pop\n      pop\n      pop\n      jump\t// out\n        /* \"#utility.yul\":7303:7467   */\n    tag_522:\n        /* \"#utility.yul\":7443:7459   */\n      0x4e6f742061637469766174656421000000000000000000000000000000000000\n        /* \"#utility.yul\":7439:7440   */\n      0x00\n        /* \"#utility.yul\":7431:7437   */\n      dup3\n        /* \"#utility.yul\":7427:7441   */\n      add\n        /* \"#utility.yul\":7420:7460   */\n      mstore\n        /* \"#utility.yul\":7303:7467   */\n      pop\n      jump\t// out\n        /* \"#utility.yul\":7473:7839   */\n    tag_523:\n        /* \"#utility.yul\":7615:7618   */\n      0x00\n        /* \"#utility.yul\":7636:7703   */\n      tag_682\n        /* \"#utility.yul\":7700:7702   */\n      0x0e\n        /* \"#utility.yul\":7695:7698   */\n      dup4\n        /* \"#utility.yul\":7636:7703   */\n      tag_518\n      jump\t// in\n    tag_682:\n        /* \"#utility.yul\":7629:7703   */\n      swap2\n      pop\n        /* \"#utility.yul\":7712:7805   */\n      tag_683\n        /* \"#utility.yul\":7801:7804   */\n      dup3\n        /* \"#utility.yul\":7712:7805   */\n      tag_522\n      jump\t// in\n    tag_683:\n        /* \"#utility.yul\":7830:7832   */\n      0x20\n        /* \"#utility.yul\":7825:7828   */\n      dup3\n        /* \"#utility.yul\":7821:7833   */\n      add\n        /* \"#utility.yul\":7814:7833   */\n      swap1\n      pop\n        /* \"#utility.yul\":7473:7839   */\n      swap2\n      swap1\n      pop\n      jump\t// out\n        /* \"#utility.yul\":7845:8264   */\n    tag_150:\n        /* \"#utility.yul\":8011:8015   */\n      0x00\n        /* \"#utility.yul\":8049:8051   */\n      0x20\n        /* \"#utility.yul\":8038:8047   */\n      dup3\n        /* \"#utility.yul\":8034:8052   */\n      add\n        /* \"#utility.yul\":8026:8052   */\n      swap1\n      pop\n        /* \"#utility.yul\":8098:8107   */\n      dup2\n        /* \"#utility.yul\":8092:8096   */\n      dup2\n        /* \"#utility.yul\":8088:8108   */\n      sub\n        /* \"#utility.yul\":8084:8085   */\n      0x00\n        /* \"#utility.yul\":8073:8082   */\n      dup4\n        /* \"#utility.yul\":8069:8086   */\n      add\n        /* \"#utility.yul\":8062:8109   */\n      mstore\n        /* \"#utility.yul\":8126:8257   */\n      tag_685\n        /* \"#utility.yul\":8252:8256   */\n      dup2\n        /* \"#utility.yul\":8126:8257   */\n      tag_523\n      jump\t// in\n    tag_685:\n        /* \"#utility.yul\":8118:8257   */\n      swap1\n      pop\n        /* \"#utility.yul\":7845:8264   */\n      swap2\n      swap1\n      pop\n      jump\t// out\n        /* \"#utility.yul\":8270:8435   */\n    tag_524:\n        /* \"#utility.yul\":8410:8427   */\n      0x4e6f7420417574686f72697a6564210000000000000000000000000000000000\n        /* \"#utility.yul\":8406:8407   */\n      0x00\n        /* \"#utility.yul\":8398:8404   */\n      dup3\n        /* \"#utility.yul\":8394:8408   */\n      add\n        /* \"#utility.yul\":8387:8428   */\n      mstore\n        /* \"#utility.yul\":8270:8435   */\n      pop\n      jump\t// out\n        /* \"#utility.yul\":8441:8807   */\n    tag_525:\n        /* \"#utility.yul\":8583:8586   */\n      0x00\n        /* \"#utility.yul\":8604:8671   */\n      tag_688\n        /* \"#utility.yul\":8668:8670   */\n      0x0f\n        /* \"#utility.yul\":8663:8666   */\n      dup4\n        /* \"#utility.yul\":8604:8671   */\n      tag_518\n      jump\t// in\n    tag_688:\n        /* \"#utility.yul\":8597:8671   */\n      swap2\n      pop\n        /* \"#utility.yul\":8680:8773   */\n      tag_689\n        /* \"#utility.yul\":8769:8772   */\n      dup3\n        /* \"#utility.yul\":8680:8773   */\n      tag_524\n      jump\t// in\n    tag_689:\n        /* \"#utility.yul\":8798:8800   */\n      0x20\n        /* \"#utility.yul\":8793:8796   */\n      dup3\n        /* \"#utility.yul\":8789:8801   */\n      add\n        /* \"#utility.yul\":8782:8801   */\n      swap1\n      pop\n        /* \"#utility.yul\":8441:8807   */\n      swap2\n      swap1\n      pop\n      jump\t// out\n        /* \"#utility.yul\":8813:9232   */\n    tag_154:\n        /* \"#utility.yul\":8979:8983   */\n      0x00\n        /* \"#utility.yul\":9017:9019   */\n      0x20\n        /* \"#utility.yul\":9006:9015   */\n      dup3\n        /* \"#utility.yul\":9002:9020   */\n      add\n        /* \"#utility.yul\":8994:9020   */\n      swap1\n      pop\n        /* \"#utility.yul\":9066:9075   */\n      dup2\n        /* \"#utility.yul\":9060:9064   */\n      dup2\n        /* \"#utility.yul\":9056:9076   */\n      sub\n        /* \"#utility.yul\":9052:9053   */\n      0x00\n        /* \"#utility.yul\":9041:9050   */\n      dup4\n        /* \"#utility.yul\":9037:9054   */\n      add\n        /* \"#utility.yul\":9030:9077   */\n      mstore\n        /* \"#utility.yul\":9094:9225   */\n      tag_691\n        /* \"#utility.yul\":9220:9224   */\n      dup2\n        /* \"#utility.yul\":9094:9225   */\n      tag_525\n      jump\t// in\n    tag_691:\n        /* \"#utility.yul\":9086:9225   */\n      swap1\n      pop\n        /* \"#utility.yul\":8813:9232   */\n      swap2\n      swap1\n      pop\n      jump\t// out\n        /* \"#utility.yul\":9238:9411   */\n    tag_526:\n        /* \"#utility.yul\":9378:9403   */\n      0x41637469766174696f6e206e6f7420616c6c6f77656421000000000000000000\n        /* \"#utility.yul\":9374:9375   */\n      0x00\n        /* \"#utility.yul\":9366:9372   */\n      dup3\n        /* \"#utility.yul\":9362:9376   */\n      add\n        /* \"#utility.yul\":9355:9404   */\n      mstore\n        /* \"#utility.yul\":9238:9411   */\n      pop\n      jump\t// out\n        /* \"#utility.yul\":9417:9783   */\n    tag_527:\n        /* \"#utility.yul\":9559:9562   */\n      0x00\n        /* \"#utility.yul\":9580:9647   */\n      tag_694\n        /* \"#utility.yul\":9644:9646   */\n      0x17\n        /* \"#utility.yul\":9639:9642   */\n      dup4\n        /* \"#utility.yul\":9580:9647   */\n      tag_518\n      jump\t// in\n    tag_694:\n        /* \"#utility.yul\":9573:9647   */\n      swap2\n      pop\n        /* \"#utility.yul\":9656:9749   */\n      tag_695\n        /* \"#utility.yul\":9745:9748   */\n      dup3\n        /* \"#utility.yul\":9656:9749   */\n      tag_526\n      jump\t// in\n    tag_695:\n        /* \"#utility.yul\":9774:9776   */\n      0x20\n        /* \"#utility.yul\":9769:9772   */\n      dup3\n        /* \"#utility.yul\":9765:9777   */\n      add\n        /* \"#utility.yul\":9758:9777   */\n      swap1\n      pop\n        /* \"#utility.yul\":9417:9783   */\n      swap2\n      swap1\n      pop\n      jump\t// out\n        /* \"#utility.yul\":9789:10208   */\n    tag_166:\n        /* \"#utility.yul\":9955:9959   */\n      0x00\n        /* \"#utility.yul\":9993:9995   */\n      0x20\n        /* \"#utility.yul\":9982:9991   */\n      dup3\n        /* \"#utility.yul\":9978:9996   */\n      add\n        /* \"#utility.yul\":9970:9996   */\n      swap1\n      pop\n        /* \"#utility.yul\":10042:10051   */\n      dup2\n        /* \"#utility.yul\":10036:10040   */\n      dup2\n        /* \"#utility.yul\":10032:10052   */\n      sub\n        /* \"#utility.yul\":10028:10029   */\n      0x00\n        /* \"#utility.yul\":10017:10026   */\n      dup4\n        /* \"#utility.yul\":10013:10030   */\n      add\n        /* \"#utility.yul\":10006:10053   */\n      mstore\n        /* \"#utility.yul\":10070:10201   */\n      tag_697\n        /* \"#utility.yul\":10196:10200   */\n      dup2\n        /* \"#utility.yul\":10070:10201   */\n      tag_527\n      jump\t// in\n    tag_697:\n        /* \"#utility.yul\":10062:10201   */\n      swap1\n      pop\n        /* \"#utility.yul\":9789:10208   */\n      swap2\n      swap1\n      pop\n      jump\t// out\n        /* \"#utility.yul\":10214:10382   */\n    tag_528:\n        /* \"#utility.yul\":10354:10374   */\n      0x416c7265616479206163746976617465642e0000000000000000000000000000\n        /* \"#utility.yul\":10350:10351   */\n      0x00\n        /* \"#utility.yul\":10342:10348   */\n      dup3\n        /* \"#utility.yul\":10338:10352   */\n      add\n        /* \"#utility.yul\":10331:10375   */\n      mstore\n        /* \"#utility.yul\":10214:10382   */\n      pop\n      jump\t// out\n        /* \"#utility.yul\":10388:10754   */\n    tag_529:\n        /* \"#utility.yul\":10530:10533   */\n      0x00\n        /* \"#utility.yul\":10551:10618   */\n      tag_700\n        /* \"#utility.yul\":10615:10617   */\n      0x12\n        /* \"#utility.yul\":10610:10613   */\n      dup4\n        /* \"#utility.yul\":10551:10618   */\n      tag_518\n      jump\t// in\n    tag_700:\n        /* \"#utility.yul\":10544:10618   */\n      swap2\n      pop\n        /* \"#utility.yul\":10627:10720   */\n      tag_701\n        /* \"#utility.yul\":10716:10719   */\n      dup3\n        /* \"#utility.yul\":10627:10720   */\n      tag_528\n      jump\t// in\n    tag_701:\n        /* \"#utility.yul\":10745:10747   */\n      0x20\n        /* \"#utility.yul\":10740:10743   */\n      dup3\n        /* \"#utility.yul\":10736:10748   */\n      add\n        /* \"#utility.yul\":10729:10748   */\n      swap1\n      pop\n        /* \"#utility.yul\":10388:10754   */\n      swap2\n      swap1\n      pop\n      jump\t// out\n        /* \"#utility.yul\":10760:11179   */\n    tag_169:\n        /* \"#utility.yul\":10926:10930   */\n      0x00\n        /* \"#utility.yul\":10964:10966   */\n      0x20\n        /* \"#utility.yul\":10953:10962   */\n      dup3\n        /* \"#utility.yul\":10949:10967   */\n      add\n        /* \"#utility.yul\":10941:10967   */\n      swap1\n      pop\n        /* \"#utility.yul\":11013:11022   */\n      dup2\n        /* \"#utility.yul\":11007:11011   */\n      dup2\n        /* \"#utility.yul\":11003:11023   */\n      sub\n        /* \"#utility.yul\":10999:11000   */\n      0x00\n        /* \"#utility.yul\":10988:10997   */\n      dup4\n        /* \"#utility.yul\":10984:11001   */\n      add\n        /* \"#utility.yul\":10977:11024   */\n      mstore\n        /* \"#utility.yul\":11041:11172   */\n      tag_703\n        /* \"#utility.yul\":11167:11171   */\n      dup2\n        /* \"#utility.yul\":11041:11172   */\n      tag_529\n      jump\t// in\n    tag_703:\n        /* \"#utility.yul\":11033:11172   */\n      swap1\n      pop\n        /* \"#utility.yul\":10760:11179   */\n      swap2\n      swap1\n      pop\n      jump\t// out\n        /* \"#utility.yul\":11185:11436   */\n    tag_530:\n        /* \"#utility.yul\":11325:11359   */\n      0x4f6e6c79204f776e6572206f7220417574686f72697a65642070617274696369\n        /* \"#utility.yul\":11321:11322   */\n      0x00\n        /* \"#utility.yul\":11313:11319   */\n      dup3\n        /* \"#utility.yul\":11309:11323   */\n      add\n        /* \"#utility.yul\":11302:11360   */\n      mstore\n        /* \"#utility.yul\":11394:11428   */\n      0x7061746f722063616e206163636573732074686973206f7065726174696f6e21\n        /* \"#utility.yul\":11389:11391   */\n      0x20\n        /* \"#utility.yul\":11381:11387   */\n      dup3\n        /* \"#utility.yul\":11377:11392   */\n      add\n        /* \"#utility.yul\":11370:11429   */\n      mstore\n        /* \"#utility.yul\":11185:11436   */\n      pop\n      jump\t// out\n        /* \"#utility.yul\":11442:11808   */\n    tag_531:\n        /* \"#utility.yul\":11584:11587   */\n      0x00\n        /* \"#utility.yul\":11605:11672   */\n      tag_706\n        /* \"#utility.yul\":11669:11671   */\n      0x40\n        /* \"#utility.yul\":11664:11667   */\n      dup4\n        /* \"#utility.yul\":11605:11672   */\n      tag_518\n      jump\t// in\n    tag_706:\n        /* \"#utility.yul\":11598:11672   */\n      swap2\n      pop\n        /* \"#utility.yul\":11681:11774   */\n      tag_707\n        /* \"#utility.yul\":11770:11773   */\n      dup3\n        /* \"#utility.yul\":11681:11774   */\n      tag_530\n      jump\t// in\n    tag_707:\n        /* \"#utility.yul\":11799:11801   */\n      0x40\n        /* \"#utility.yul\":11794:11797   */\n      dup3\n        /* \"#utility.yul\":11790:11802   */\n      add\n        /* \"#utility.yul\":11783:11802   */\n      swap1\n      pop\n        /* \"#utility.yul\":11442:11808   */\n      swap2\n      swap1\n      pop\n      jump\t// out\n        /* \"#utility.yul\":11814:12233   */\n    tag_180:\n        /* \"#utility.yul\":11980:11984   */\n      0x00\n        /* \"#utility.yul\":12018:12020   */\n      0x20\n        /* \"#utility.yul\":12007:12016   */\n      dup3\n        /* \"#utility.yul\":12003:12021   */\n      add\n        /* \"#utility.yul\":11995:12021   */\n      swap1\n      pop\n        /* \"#utility.yul\":12067:12076   */\n      dup2\n        /* \"#utility.yul\":12061:12065   */\n      dup2\n        /* \"#utility.yul\":12057:12077   */\n      sub\n        /* \"#utility.yul\":12053:12054   */\n      0x00\n        /* \"#utility.yul\":12042:12051   */\n      dup4\n        /* \"#utility.yul\":12038:12055   */\n      add\n        /* \"#utility.yul\":12031:12078   */\n      mstore\n        /* \"#utility.yul\":12095:12226   */\n      tag_709\n        /* \"#utility.yul\":12221:12225   */\n      dup2\n        /* \"#utility.yul\":12095:12226   */\n      tag_531\n      jump\t// in\n    tag_709:\n        /* \"#utility.yul\":12087:12226   */\n      swap1\n      pop\n        /* \"#utility.yul\":11814:12233   */\n      swap2\n      swap1\n      pop\n      jump\t// out\n        /* \"#utility.yul\":12239:12408   */\n    tag_532:\n        /* \"#utility.yul\":12379:12400   */\n      0x4e6f7420656e6f7567682062616c616e63652100000000000000000000000000\n        /* \"#utility.yul\":12375:12376   */\n      0x00\n        /* \"#utility.yul\":12367:12373   */\n      dup3\n        /* \"#utility.yul\":12363:12377   */\n      add\n        /* \"#utility.yul\":12356:12401   */\n      mstore\n        /* \"#utility.yul\":12239:12408   */\n      pop\n      jump\t// out\n        /* \"#utility.yul\":12414:12780   */\n    tag_533:\n        /* \"#utility.yul\":12556:12559   */\n      0x00\n        /* \"#utility.yul\":12577:12644   */\n      tag_712\n        /* \"#utility.yul\":12641:12643   */\n      0x13\n        /* \"#utility.yul\":12636:12639   */\n      dup4\n        /* \"#utility.yul\":12577:12644   */\n      tag_518\n      jump\t// in\n    tag_712:\n        /* \"#utility.yul\":12570:12644   */\n      swap2\n      pop\n        /* \"#utility.yul\":12653:12746   */\n      tag_713\n        /* \"#utility.yul\":12742:12745   */\n      dup3\n        /* \"#utility.yul\":12653:12746   */\n      tag_532\n      jump\t// in\n    tag_713:\n        /* \"#utility.yul\":12771:12773   */\n      0x20\n        /* \"#utility.yul\":12766:12769   */\n      dup3\n        /* \"#utility.yul\":12762:12774   */\n      add\n        /* \"#utility.yul\":12755:12774   */\n      swap1\n      pop\n        /* \"#utility.yul\":12414:12780   */\n      swap2\n      swap1\n      pop\n      jump\t// out\n        /* \"#utility.yul\":12786:13205   */\n    tag_199:\n        /* \"#utility.yul\":12952:12956   */\n      0x00\n        /* \"#utility.yul\":12990:12992   */\n      0x20\n        /* \"#utility.yul\":12979:12988   */\n      dup3\n        /* \"#utility.yul\":12975:12993   */\n      add\n        /* \"#utility.yul\":12967:12993   */\n      swap1\n      pop\n        /* \"#utility.yul\":13039:13048   */\n      dup2\n        /* \"#utility.yul\":13033:13037   */\n      dup2\n        /* \"#utility.yul\":13029:13049   */\n      sub\n        /* \"#utility.yul\":13025:13026   */\n      0x00\n        /* \"#utility.yul\":13014:13023   */\n      dup4\n        /* \"#utility.yul\":13010:13027   */\n      add\n        /* \"#utility.yul\":13003:13050   */\n      mstore\n        /* \"#utility.yul\":13067:13198   */\n      tag_715\n        /* \"#utility.yul\":13193:13197   */\n      dup2\n        /* \"#utility.yul\":13067:13198   */\n      tag_533\n      jump\t// in\n    tag_715:\n        /* \"#utility.yul\":13059:13198   */\n      swap1\n      pop\n        /* \"#utility.yul\":12786:13205   */\n      swap2\n      swap1\n      pop\n      jump\t// out\n        /* \"#utility.yul\":13211:13543   */\n    tag_201:\n        /* \"#utility.yul\":13332:13336   */\n      0x00\n        /* \"#utility.yul\":13370:13372   */\n      0x40\n        /* \"#utility.yul\":13359:13368   */\n      dup3\n        /* \"#utility.yul\":13355:13373   */\n      add\n        /* \"#utility.yul\":13347:13373   */\n      swap1\n      pop\n        /* \"#utility.yul\":13383:13454   */\n      tag_717\n        /* \"#utility.yul\":13451:13452   */\n      0x00\n        /* \"#utility.yul\":13440:13449   */\n      dup4\n        /* \"#utility.yul\":13436:13453   */\n      add\n        /* \"#utility.yul\":13427:13433   */\n      dup6\n        /* \"#utility.yul\":13383:13454   */\n      tag_507\n      jump\t// in\n    tag_717:\n        /* \"#utility.yul\":13464:13536   */\n      tag_718\n        /* \"#utility.yul\":13532:13534   */\n      0x20\n        /* \"#utility.yul\":13521:13530   */\n      dup4\n        /* \"#utility.yul\":13517:13535   */\n      add\n        /* \"#utility.yul\":13508:13514   */\n      dup5\n        /* \"#utility.yul\":13464:13536   */\n      tag_509\n      jump\t// in\n    tag_718:\n        /* \"#utility.yul\":13211:13543   */\n      swap4\n      swap3\n      pop\n      pop\n      pop\n      jump\t// out\n        /* \"#utility.yul\":13549:13665   */\n    tag_534:\n        /* \"#utility.yul\":13619:13640   */\n      tag_720\n        /* \"#utility.yul\":13634:13639   */\n      dup2\n        /* \"#utility.yul\":13619:13640   */\n      tag_510\n      jump\t// in\n    tag_720:\n        /* \"#utility.yul\":13612:13617   */\n      dup2\n        /* \"#utility.yul\":13609:13641   */\n      eq\n        /* \"#utility.yul\":13599:13659   */\n      tag_721\n      jumpi\n        /* \"#utility.yul\":13655:13656   */\n      0x00\n        /* \"#utility.yul\":13652:13653   */\n      dup1\n        /* \"#utility.yul\":13645:13657   */\n      revert\n        /* \"#utility.yul\":13599:13659   */\n    tag_721:\n        /* \"#utility.yul\":13549:13665   */\n      pop\n      jump\t// out\n        /* \"#utility.yul\":13671:13808   */\n    tag_535:\n        /* \"#utility.yul\":13725:13730   */\n      0x00\n        /* \"#utility.yul\":13756:13762   */\n      dup2\n        /* \"#utility.yul\":13750:13763   */\n      mload\n        /* \"#utility.yul\":13741:13763   */\n      swap1\n      pop\n        /* \"#utility.yul\":13772:13802   */\n      tag_723\n        /* \"#utility.yul\":13796:13801   */\n      dup2\n        /* \"#utility.yul\":13772:13802   */\n      tag_534\n      jump\t// in\n    tag_723:\n        /* \"#utility.yul\":13671:13808   */\n      swap3\n      swap2\n      pop\n      pop\n      jump\t// out\n        /* \"#utility.yul\":13814:14159   */\n    tag_205:\n        /* \"#utility.yul\":13881:13887   */\n      0x00\n        /* \"#utility.yul\":13930:13932   */\n      0x20\n        /* \"#utility.yul\":13918:13927   */\n      dup3\n        /* \"#utility.yul\":13909:13916   */\n      dup5\n        /* \"#utility.yul\":13905:13928   */\n      sub\n        /* \"#utility.yul\":13901:13933   */\n      slt\n        /* \"#utility.yul\":13898:14017   */\n      iszero\n      tag_725\n      jumpi\n        /* \"#utility.yul\":13936:14015   */\n      tag_726\n      tag_501\n      jump\t// in\n    tag_726:\n        /* \"#utility.yul\":13898:14017   */\n    tag_725:\n        /* \"#utility.yul\":14056:14057   */\n      0x00\n        /* \"#utility.yul\":14081:14142   */\n      tag_727\n        /* \"#utility.yul\":14134:14141   */\n      dup5\n        /* \"#utility.yul\":14125:14131   */\n      dup3\n        /* \"#utility.yul\":14114:14123   */\n      dup6\n        /* \"#utility.yul\":14110:14132   */\n      add\n        /* \"#utility.yul\":14081:14142   */\n      tag_535\n      jump\t// in\n    tag_727:\n        /* \"#utility.yul\":14071:14142   */\n      swap2\n      pop\n        /* \"#utility.yul\":14027:14152   */\n      pop\n        /* \"#utility.yul\":13814:14159   */\n      swap3\n      swap2\n      pop\n      pop\n      jump\t// out\n        /* \"#utility.yul\":14165:14308   */\n    tag_536:\n        /* \"#utility.yul\":14222:14227   */\n      0x00\n        /* \"#utility.yul\":14253:14259   */\n      dup2\n        /* \"#utility.yul\":14247:14260   */\n      mload\n        /* \"#utility.yul\":14238:14260   */\n      swap1\n      pop\n        /* \"#utility.yul\":14269:14302   */\n      tag_729\n        /* \"#utility.yul\":14296:14301   */\n      dup2\n        /* \"#utility.yul\":14269:14302   */\n      tag_512\n      jump\t// in\n    tag_729:\n        /* \"#utility.yul\":14165:14308   */\n      swap3\n      swap2\n      pop\n      pop\n      jump\t// out\n        /* \"#utility.yul\":14314:14665   */\n    tag_216:\n        /* \"#utility.yul\":14384:14390   */\n      0x00\n        /* \"#utility.yul\":14433:14435   */\n      0x20\n        /* \"#utility.yul\":14421:14430   */\n      dup3\n        /* \"#utility.yul\":14412:14419   */\n      dup5\n        /* \"#utility.yul\":14408:14431   */\n      sub\n        /* \"#utility.yul\":14404:14436   */\n      slt\n        /* \"#utility.yul\":14401:14520   */\n      iszero\n      tag_731\n      jumpi\n        /* \"#utility.yul\":14439:14518   */\n      tag_732\n      tag_501\n      jump\t// in\n    tag_732:\n        /* \"#utility.yul\":14401:14520   */\n    tag_731:\n        /* \"#utility.yul\":14559:14560   */\n      0x00\n        /* \"#utility.yul\":14584:14648   */\n      tag_733\n        /* \"#utility.yul\":14640:14647   */\n      dup5\n        /* \"#utility.yul\":14631:14637   */\n      dup3\n        /* \"#utility.yul\":14620:14629   */\n      dup6\n        /* \"#utility.yul\":14616:14638   */\n      add\n        /* \"#utility.yul\":14584:14648   */\n      tag_536\n      jump\t// in\n    tag_733:\n        /* \"#utility.yul\":14574:14648   */\n      swap2\n      pop\n        /* \"#utility.yul\":14530:14658   */\n      pop\n        /* \"#utility.yul\":14314:14665   */\n      swap3\n      swap2\n      pop\n      pop\n      jump\t// out\n        /* \"#utility.yul\":14671:14910   */\n    tag_537:\n        /* \"#utility.yul\":14811:14845   */\n      0x526174652c20706f696e747320616e6420646563696d616c73206d7573742062\n        /* \"#utility.yul\":14807:14808   */\n      0x00\n        /* \"#utility.yul\":14799:14805   */\n      dup3\n        /* \"#utility.yul\":14795:14809   */\n      add\n        /* \"#utility.yul\":14788:14846   */\n      mstore\n        /* \"#utility.yul\":14880:14902   */\n      0x652067726561746572207468616e207a65726f21000000000000000000000000\n        /* \"#utility.yul\":14875:14877   */\n      0x20\n        /* \"#utility.yul\":14867:14873   */\n      dup3\n        /* \"#utility.yul\":14863:14878   */\n      add\n        /* \"#utility.yul\":14856:14903   */\n      mstore\n        /* \"#utility.yul\":14671:14910   */\n      pop\n      jump\t// out\n        /* \"#utility.yul\":14916:15282   */\n    tag_538:\n        /* \"#utility.yul\":15058:15061   */\n      0x00\n        /* \"#utility.yul\":15079:15146   */\n      tag_736\n        /* \"#utility.yul\":15143:15145   */\n      0x34\n        /* \"#utility.yul\":15138:15141   */\n      dup4\n        /* \"#utility.yul\":15079:15146   */\n      tag_518\n      jump\t// in\n    tag_736:\n        /* \"#utility.yul\":15072:15146   */\n      swap2\n      pop\n        /* \"#utility.yul\":15155:15248   */\n      tag_737\n        /* \"#utility.yul\":15244:15247   */\n      dup3\n        /* \"#utility.yul\":15155:15248   */\n      tag_537\n      jump\t// in\n    tag_737:\n        /* \"#utility.yul\":15273:15275   */\n      0x40\n        /* \"#utility.yul\":15268:15271   */\n      dup3\n        /* \"#utility.yul\":15264:15276   */\n      add\n        /* \"#utility.yul\":15257:15276   */\n      swap1\n      pop\n        /* \"#utility.yul\":14916:15282   */\n      swap2\n      swap1\n      pop\n      jump\t// out\n        /* \"#utility.yul\":15288:15707   */\n    tag_224:\n        /* \"#utility.yul\":15454:15458   */\n      0x00\n        /* \"#utility.yul\":15492:15494   */\n      0x20\n        /* \"#utility.yul\":15481:15490   */\n      dup3\n        /* \"#utility.yul\":15477:15495   */\n      add\n        /* \"#utility.yul\":15469:15495   */\n      swap1\n      pop\n        /* \"#utility.yul\":15541:15550   */\n      dup2\n        /* \"#utility.yul\":15535:15539   */\n      dup2\n        /* \"#utility.yul\":15531:15551   */\n      sub\n        /* \"#utility.yul\":15527:15528   */\n      0x00\n        /* \"#utility.yul\":15516:15525   */\n      dup4\n        /* \"#utility.yul\":15512:15529   */\n      add\n        /* \"#utility.yul\":15505:15552   */\n      mstore\n        /* \"#utility.yul\":15569:15700   */\n      tag_739\n        /* \"#utility.yul\":15695:15699   */\n      dup2\n        /* \"#utility.yul\":15569:15700   */\n      tag_538\n      jump\t// in\n    tag_739:\n        /* \"#utility.yul\":15561:15700   */\n      swap1\n      pop\n        /* \"#utility.yul\":15288:15707   */\n      swap2\n      swap1\n      pop\n      jump\t// out\n        /* \"#utility.yul\":15713:15893   */\n    tag_539:\n        /* \"#utility.yul\":15761:15838   */\n      0x4e487b7100000000000000000000000000000000000000000000000000000000\n        /* \"#utility.yul\":15758:15759   */\n      0x00\n        /* \"#utility.yul\":15751:15839   */\n      mstore\n        /* \"#utility.yul\":15858:15862   */\n      0x11\n        /* \"#utility.yul\":15855:15856   */\n      0x04\n        /* \"#utility.yul\":15848:15863   */\n      mstore\n        /* \"#utility.yul\":15882:15886   */\n      0x24\n        /* \"#utility.yul\":15879:15880   */\n      0x00\n        /* \"#utility.yul\":15872:15887   */\n      revert\n        /* \"#utility.yul\":15899:16001   */\n    tag_540:\n        /* \"#utility.yul\":15941:15949   */\n      0x00\n        /* \"#utility.yul\":15988:15993   */\n      dup2\n        /* \"#utility.yul\":15985:15986   */\n      0x01\n        /* \"#utility.yul\":15981:15994   */\n      shr\n        /* \"#utility.yul\":15960:15994   */\n      swap1\n      pop\n        /* \"#utility.yul\":15899:16001   */\n      swap2\n      swap1\n      pop\n      jump\t// out\n        /* \"#utility.yul\":16007:16855   */\n    tag_541:\n        /* \"#utility.yul\":16068:16073   */\n      0x00\n        /* \"#utility.yul\":16075:16079   */\n      dup1\n        /* \"#utility.yul\":16099:16105   */\n      dup3\n        /* \"#utility.yul\":16090:16105   */\n      swap2\n      pop\n        /* \"#utility.yul\":16123:16128   */\n      dup4\n        /* \"#utility.yul\":16114:16128   */\n      swap1\n      pop\n        /* \"#utility.yul\":16137:16849   */\n    tag_743:\n        /* \"#utility.yul\":16158:16159   */\n      0x01\n        /* \"#utility.yul\":16148:16156   */\n      dup6\n        /* \"#utility.yul\":16145:16160   */\n      gt\n        /* \"#utility.yul\":16137:16849   */\n      iszero\n      tag_745\n      jumpi\n        /* \"#utility.yul\":16253:16257   */\n      dup1\n        /* \"#utility.yul\":16248:16251   */\n      dup7\n        /* \"#utility.yul\":16244:16258   */\n      div\n        /* \"#utility.yul\":16238:16242   */\n      dup2\n        /* \"#utility.yul\":16235:16259   */\n      gt\n        /* \"#utility.yul\":16232:16282   */\n      iszero\n      tag_746\n      jumpi\n        /* \"#utility.yul\":16262:16280   */\n      tag_747\n      tag_539\n      jump\t// in\n    tag_747:\n        /* \"#utility.yul\":16232:16282   */\n    tag_746:\n        /* \"#utility.yul\":16312:16313   */\n      0x01\n        /* \"#utility.yul\":16302:16310   */\n      dup6\n        /* \"#utility.yul\":16298:16314   */\n      and\n        /* \"#utility.yul\":16295:16746   */\n      iszero\n      tag_748\n      jumpi\n        /* \"#utility.yul\":16727:16731   */\n      dup1\n        /* \"#utility.yul\":16720:16725   */\n      dup3\n        /* \"#utility.yul\":16716:16732   */\n      mul\n        /* \"#utility.yul\":16707:16732   */\n      swap2\n      pop\n        /* \"#utility.yul\":16295:16746   */\n    tag_748:\n        /* \"#utility.yul\":16777:16781   */\n      dup1\n        /* \"#utility.yul\":16771:16775   */\n      dup2\n        /* \"#utility.yul\":16767:16782   */\n      mul\n        /* \"#utility.yul\":16759:16782   */\n      swap1\n      pop\n        /* \"#utility.yul\":16807:16839   */\n      tag_749\n        /* \"#utility.yul\":16830:16838   */\n      dup6\n        /* \"#utility.yul\":16807:16839   */\n      tag_540\n      jump\t// in\n    tag_749:\n        /* \"#utility.yul\":16795:16839   */\n      swap5\n      pop\n        /* \"#utility.yul\":16137:16849   */\n      jump(tag_743)\n    tag_745:\n        /* \"#utility.yul\":16007:16855   */\n      swap5\n      pop\n      swap5\n      swap3\n      pop\n      pop\n      pop\n      jump\t// out\n        /* \"#utility.yul\":16861:17934   */\n    tag_542:\n        /* \"#utility.yul\":16915:16920   */\n      0x00\n        /* \"#utility.yul\":17106:17114   */\n      dup3\n        /* \"#utility.yul\":17096:17136   */\n      tag_751\n      jumpi\n        /* \"#utility.yul\":17127:17128   */\n      0x01\n        /* \"#utility.yul\":17118:17128   */\n      swap1\n      pop\n        /* \"#utility.yul\":17129:17134   */\n      jump(tag_750)\n        /* \"#utility.yul\":17096:17136   */\n    tag_751:\n        /* \"#utility.yul\":17155:17159   */\n      dup2\n        /* \"#utility.yul\":17145:17181   */\n      tag_752\n      jumpi\n        /* \"#utility.yul\":17172:17173   */\n      0x00\n        /* \"#utility.yul\":17163:17173   */\n      swap1\n      pop\n        /* \"#utility.yul\":17174:17179   */\n      jump(tag_750)\n        /* \"#utility.yul\":17145:17181   */\n    tag_752:\n        /* \"#utility.yul\":17241:17245   */\n      dup2\n        /* \"#utility.yul\":17289:17290   */\n      0x01\n        /* \"#utility.yul\":17284:17311   */\n      dup2\n      eq\n      tag_754\n      jumpi\n        /* \"#utility.yul\":17325:17326   */\n      0x02\n        /* \"#utility.yul\":17320:17511   */\n      dup2\n      eq\n      tag_755\n      jumpi\n        /* \"#utility.yul\":17234:17511   */\n      jump(tag_753)\n        /* \"#utility.yul\":17284:17311   */\n    tag_754:\n        /* \"#utility.yul\":17302:17303   */\n      0x01\n        /* \"#utility.yul\":17293:17303   */\n      swap2\n      pop\n        /* \"#utility.yul\":17304:17309   */\n      pop\n      jump(tag_750)\n        /* \"#utility.yul\":17320:17511   */\n    tag_755:\n        /* \"#utility.yul\":17365:17368   */\n      0xff\n        /* \"#utility.yul\":17355:17363   */\n      dup5\n        /* \"#utility.yul\":17352:17369   */\n      gt\n        /* \"#utility.yul\":17349:17392   */\n      iszero\n      tag_756\n      jumpi\n        /* \"#utility.yul\":17372:17390   */\n      tag_757\n      tag_539\n      jump\t// in\n    tag_757:\n        /* \"#utility.yul\":17349:17392   */\n    tag_756:\n        /* \"#utility.yul\":17421:17429   */\n      dup4\n        /* \"#utility.yul\":17418:17419   */\n      0x02\n        /* \"#utility.yul\":17414:17430   */\n      exp\n        /* \"#utility.yul\":17405:17430   */\n      swap2\n      pop\n        /* \"#utility.yul\":17456:17459   */\n      dup5\n        /* \"#utility.yul\":17449:17454   */\n      dup3\n        /* \"#utility.yul\":17446:17460   */\n      gt\n        /* \"#utility.yul\":17443:17483   */\n      iszero\n      tag_758\n      jumpi\n        /* \"#utility.yul\":17463:17481   */\n      tag_759\n      tag_539\n      jump\t// in\n    tag_759:\n        /* \"#utility.yul\":17443:17483   */\n    tag_758:\n        /* \"#utility.yul\":17496:17501   */\n      pop\n      jump(tag_750)\n        /* \"#utility.yul\":17234:17511   */\n    tag_753:\n      pop\n        /* \"#utility.yul\":17620:17622   */\n      0x20\n        /* \"#utility.yul\":17610:17618   */\n      dup4\n        /* \"#utility.yul\":17607:17623   */\n      lt\n        /* \"#utility.yul\":17601:17604   */\n      0x0133\n        /* \"#utility.yul\":17595:17599   */\n      dup4\n        /* \"#utility.yul\":17592:17605   */\n      lt\n        /* \"#utility.yul\":17588:17624   */\n      and\n        /* \"#utility.yul\":17570:17572   */\n      0x4e\n        /* \"#utility.yul\":17560:17568   */\n      dup5\n        /* \"#utility.yul\":17557:17573   */\n      lt\n        /* \"#utility.yul\":17552:17554   */\n      0x0b\n        /* \"#utility.yul\":17546:17550   */\n      dup5\n        /* \"#utility.yul\":17543:17555   */\n      lt\n        /* \"#utility.yul\":17539:17574   */\n      and\n        /* \"#utility.yul\":17523:17634   */\n      or\n        /* \"#utility.yul\":17520:17766   */\n      iszero\n      tag_760\n      jumpi\n        /* \"#utility.yul\":17676:17684   */\n      dup3\n        /* \"#utility.yul\":17670:17674   */\n      dup3\n        /* \"#utility.yul\":17666:17685   */\n      exp\n        /* \"#utility.yul\":17657:17685   */\n      swap1\n      pop\n        /* \"#utility.yul\":17711:17714   */\n      dup4\n        /* \"#utility.yul\":17704:17709   */\n      dup2\n        /* \"#utility.yul\":17701:17715   */\n      gt\n        /* \"#utility.yul\":17698:17738   */\n      iszero\n      tag_761\n      jumpi\n        /* \"#utility.yul\":17718:17736   */\n      tag_762\n      tag_539\n      jump\t// in\n    tag_762:\n        /* \"#utility.yul\":17698:17738   */\n    tag_761:\n        /* \"#utility.yul\":17751:17756   */\n      jump(tag_750)\n        /* \"#utility.yul\":17520:17766   */\n    tag_760:\n        /* \"#utility.yul\":17791:17833   */\n      tag_763\n        /* \"#utility.yul\":17829:17832   */\n      dup5\n        /* \"#utility.yul\":17819:17827   */\n      dup5\n        /* \"#utility.yul\":17813:17817   */\n      dup5\n        /* \"#utility.yul\":17810:17811   */\n      0x01\n        /* \"#utility.yul\":17791:17833   */\n      tag_541\n      jump\t// in\n    tag_763:\n        /* \"#utility.yul\":17776:17833   */\n      swap3\n      pop\n      swap1\n      pop\n        /* \"#utility.yul\":17865:17869   */\n      dup2\n        /* \"#utility.yul\":17860:17863   */\n      dup5\n        /* \"#utility.yul\":17856:17870   */\n      div\n        /* \"#utility.yul\":17849:17854   */\n      dup2\n        /* \"#utility.yul\":17846:17871   */\n      gt\n        /* \"#utility.yul\":17843:17894   */\n      iszero\n      tag_764\n      jumpi\n        /* \"#utility.yul\":17874:17892   */\n      tag_765\n      tag_539\n      jump\t// in\n    tag_765:\n        /* \"#utility.yul\":17843:17894   */\n    tag_764:\n        /* \"#utility.yul\":17923:17927   */\n      dup2\n        /* \"#utility.yul\":17916:17921   */\n      dup2\n        /* \"#utility.yul\":17912:17928   */\n      mul\n        /* \"#utility.yul\":17903:17928   */\n      swap1\n      pop\n        /* \"#utility.yul\":16861:17934   */\n    tag_750:\n      swap4\n      swap3\n      pop\n      pop\n      pop\n      jump\t// out\n        /* \"#utility.yul\":17940:18225   */\n    tag_226:\n        /* \"#utility.yul\":18000:18005   */\n      0x00\n        /* \"#utility.yul\":18024:18047   */\n      tag_767\n        /* \"#utility.yul\":18042:18046   */\n      dup3\n        /* \"#utility.yul\":18024:18047   */\n      tag_508\n      jump\t// in\n    tag_767:\n        /* \"#utility.yul\":18016:18047   */\n      swap2\n      pop\n        /* \"#utility.yul\":18068:18095   */\n      tag_768\n        /* \"#utility.yul\":18086:18094   */\n      dup4\n        /* \"#utility.yul\":18068:18095   */\n      tag_508\n      jump\t// in\n    tag_768:\n        /* \"#utility.yul\":18056:18095   */\n      swap3\n      pop\n        /* \"#utility.yul\":18114:18218   */\n      tag_769\n        /* \"#utility.yul\":18151:18217   */\n      0xffffffffffffffffffffffffffffffffffffffffffffffffffffffffffffffff\n        /* \"#utility.yul\":18141:18149   */\n      dup5\n        /* \"#utility.yul\":18135:18139   */\n      dup5\n        /* \"#utility.yul\":18114:18218   */\n      tag_542\n      jump\t// in\n    tag_769:\n        /* \"#utility.yul\":18105:18218   */\n      swap1\n      pop\n        /* \"#utility.yul\":17940:18225   */\n      swap3\n      swap2\n      pop\n      pop\n      jump\t// out\n        /* \"#utility.yul\":18231:18641   */\n    tag_228:\n        /* \"#utility.yul\":18271:18278   */\n      0x00\n        /* \"#utility.yul\":18294:18314   */\n      tag_771\n        /* \"#utility.yul\":18312:18313   */\n      dup3\n        /* \"#utility.yul\":18294:18314   */\n      tag_508\n      jump\t// in\n    tag_771:\n        /* \"#utility.yul\":18289:18314   */\n      swap2\n      pop\n        /* \"#utility.yul\":18328:18348   */\n      tag_772\n        /* \"#utility.yul\":18346:18347   */\n      dup4\n        /* \"#utility.yul\":18328:18348   */\n      tag_508\n      jump\t// in\n    tag_772:\n        /* \"#utility.yul\":18323:18348   */\n      swap3\n      pop\n        /* \"#utility.yul\":18383:18384   */\n      dup3\n        /* \"#utility.yul\":18380:18381   */\n      dup3\n        /* \"#utility.yul\":18376:18385   */\n      mul\n        /* \"#utility.yul\":18405:18435   */\n      tag_773\n        /* \"#utility.yul\":18423:18434   */\n      dup2\n        /* \"#utility.yul\":18405:18435   */\n      tag_508\n      jump\t// in\n    tag_773:\n        /* \"#utility.yul\":18394:18435   */\n      swap2\n      pop\n        /* \"#utility.yul\":18584:18585   */\n      dup3\n        /* \"#utility.yul\":18575:18582   */\n      dup3\n        /* \"#utility.yul\":18571:18586   */\n      div\n        /* \"#utility.yul\":18568:18569   */\n      dup5\n        /* \"#utility.yul\":18565:18587   */\n      eq\n        /* \"#utility.yul\":18545:18546   */\n      dup4\n        /* \"#utility.yul\":18538:18547   */\n      iszero\n        /* \"#utility.yul\":18518:18601   */\n      or\n        /* \"#utility.yul\":18495:18634   */\n      tag_774\n      jumpi\n        /* \"#utility.yul\":18614:18632   */\n      tag_775\n      tag_539\n      jump\t// in\n    tag_775:\n        /* \"#utility.yul\":18495:18634   */\n    tag_774:\n        /* \"#utility.yul\":18279:18641   */\n      pop\n        /* \"#utility.yul\":18231:18641   */\n      swap3\n      swap2\n      pop\n      pop\n      jump\t// out\n        /* \"#utility.yul\":18647:18827   */\n    tag_543:\n        /* \"#utility.yul\":18695:18772   */\n      0x4e487b7100000000000000000000000000000000000000000000000000000000\n        /* \"#utility.yul\":18692:18693   */\n      0x00\n        /* \"#utility.yul\":18685:18773   */\n      mstore\n        /* \"#utility.yul\":18792:18796   */\n      0x12\n        /* \"#utility.yul\":18789:18790   */\n      0x04\n        /* \"#utility.yul\":18782:18797   */\n      mstore\n        /* \"#utility.yul\":18816:18820   */\n      0x24\n        /* \"#utility.yul\":18813:18814   */\n      0x00\n        /* \"#utility.yul\":18806:18821   */\n      revert\n        /* \"#utility.yul\":18833:19018   */\n    tag_230:\n        /* \"#utility.yul\":18873:18874   */\n      0x00\n        /* \"#utility.yul\":18890:18910   */\n      tag_778\n        /* \"#utility.yul\":18908:18909   */\n      dup3\n        /* \"#utility.yul\":18890:18910   */\n      tag_508\n      jump\t// in\n    tag_778:\n        /* \"#utility.yul\":18885:18910   */\n      swap2\n      pop\n        /* \"#utility.yul\":18924:18944   */\n      tag_779\n        /* \"#utility.yul\":18942:18943   */\n      dup4\n        /* \"#utility.yul\":18924:18944   */\n      tag_508\n      jump\t// in\n    tag_779:\n        /* \"#utility.yul\":18919:18944   */\n      swap3\n      pop\n        /* \"#utility.yul\":18963:18964   */\n      dup3\n        /* \"#utility.yul\":18953:18988   */\n      tag_780\n      jumpi\n        /* \"#utility.yul\":18968:18986   */\n      tag_781\n      tag_543\n      jump\t// in\n    tag_781:\n        /* \"#utility.yul\":18953:18988   */\n    tag_780:\n        /* \"#utility.yul\":19010:19011   */\n      dup3\n        /* \"#utility.yul\":19007:19008   */\n      dup3\n        /* \"#utility.yul\":19003:19012   */\n      div\n        /* \"#utility.yul\":18998:19012   */\n      swap1\n      pop\n        /* \"#utility.yul\":18833:19018   */\n      swap3\n      swap2\n      pop\n      pop\n      jump\t// out\n        /* \"#utility.yul\":19024:19206   */\n    tag_544:\n        /* \"#utility.yul\":19164:19198   */\n      0x496e707574206d7573742062652067726561746572207468616e207a65726f21\n        /* \"#utility.yul\":19160:19161   */\n      0x00\n        /* \"#utility.yul\":19152:19158   */\n      dup3\n        /* \"#utility.yul\":19148:19162   */\n      add\n        /* \"#utility.yul\":19141:19199   */\n      mstore\n        /* \"#utility.yul\":19024:19206   */\n      pop\n      jump\t// out\n        /* \"#utility.yul\":19212:19578   */\n    tag_545:\n        /* \"#utility.yul\":19354:19357   */\n      0x00\n        /* \"#utility.yul\":19375:19442   */\n      tag_784\n        /* \"#utility.yul\":19439:19441   */\n      0x20\n        /* \"#utility.yul\":19434:19437   */\n      dup4\n        /* \"#utility.yul\":19375:19442   */\n      tag_518\n      jump\t// in\n    tag_784:\n        /* \"#utility.yul\":19368:19442   */\n      swap2\n      pop\n        /* \"#utility.yul\":19451:19544   */\n      tag_785\n        /* \"#utility.yul\":19540:19543   */\n      dup3\n        /* \"#utility.yul\":19451:19544   */\n      tag_544\n      jump\t// in\n    tag_785:\n        /* \"#utility.yul\":19569:19571   */\n      0x20\n        /* \"#utility.yul\":19564:19567   */\n      dup3\n        /* \"#utility.yul\":19560:19572   */\n      add\n        /* \"#utility.yul\":19553:19572   */\n      swap1\n      pop\n        /* \"#utility.yul\":19212:19578   */\n      swap2\n      swap1\n      pop\n      jump\t// out\n        /* \"#utility.yul\":19584:20003   */\n    tag_240:\n        /* \"#utility.yul\":19750:19754   */\n      0x00\n        /* \"#utility.yul\":19788:19790   */\n      0x20\n        /* \"#utility.yul\":19777:19786   */\n      dup3\n        /* \"#utility.yul\":19773:19791   */\n      add\n        /* \"#utility.yul\":19765:19791   */\n      swap1\n      pop\n        /* \"#utility.yul\":19837:19846   */\n      dup2\n        /* \"#utility.yul\":19831:19835   */\n      dup2\n        /* \"#utility.yul\":19827:19847   */\n      sub\n        /* \"#utility.yul\":19823:19824   */\n      0x00\n        /* \"#utility.yul\":19812:19821   */\n      dup4\n        /* \"#utility.yul\":19808:19825   */\n      add\n        /* \"#utility.yul\":19801:19848   */\n      mstore\n        /* \"#utility.yul\":19865:19996   */\n      tag_787\n        /* \"#utility.yul\":19991:19995   */\n      dup2\n        /* \"#utility.yul\":19865:19996   */\n      tag_545\n      jump\t// in\n    tag_787:\n        /* \"#utility.yul\":19857:19996   */\n      swap1\n      pop\n        /* \"#utility.yul\":19584:20003   */\n      swap2\n      swap1\n      pop\n      jump\t// out\n        /* \"#utility.yul\":20009:20230   */\n    tag_546:\n        /* \"#utility.yul\":20149:20183   */\n      0x496e707574206d75737420626520612073696e676c652064696769742028302d\n        /* \"#utility.yul\":20145:20146   */\n      0x00\n        /* \"#utility.yul\":20137:20143   */\n      dup3\n        /* \"#utility.yul\":20133:20147   */\n      add\n        /* \"#utility.yul\":20126:20184   */\n      mstore\n        /* \"#utility.yul\":20218:20222   */\n      0x3929000000000000000000000000000000000000000000000000000000000000\n        /* \"#utility.yul\":20213:20215   */\n      0x20\n        /* \"#utility.yul\":20205:20211   */\n      dup3\n        /* \"#utility.yul\":20201:20216   */\n      add\n        /* \"#utility.yul\":20194:20223   */\n      mstore\n        /* \"#utility.yul\":20009:20230   */\n      pop\n      jump\t// out\n        /* \"#utility.yul\":20236:20602   */\n    tag_547:\n        /* \"#utility.yul\":20378:20381   */\n      0x00\n        /* \"#utility.yul\":20399:20466   */\n      tag_790\n        /* \"#utility.yul\":20463:20465   */\n      0x22\n        /* \"#utility.yul\":20458:20461   */\n      dup4\n        /* \"#utility.yul\":20399:20466   */\n      tag_518\n      jump\t// in\n    tag_790:\n        /* \"#utility.yul\":20392:20466   */\n      swap2\n      pop\n        /* \"#utility.yul\":20475:20568   */\n      tag_791\n        /* \"#utility.yul\":20564:20567   */\n      dup3\n        /* \"#utility.yul\":20475:20568   */\n      tag_546\n      jump\t// in\n    tag_791:\n        /* \"#utility.yul\":20593:20595   */\n      0x40\n        /* \"#utility.yul\":20588:20591   */\n      dup3\n        /* \"#utility.yul\":20584:20596   */\n      add\n        /* \"#utility.yul\":20577:20596   */\n      swap1\n      pop\n        /* \"#utility.yul\":20236:20602   */\n      swap2\n      swap1\n      pop\n      jump\t// out\n        /* \"#utility.yul\":20608:21027   */\n    tag_243:\n        /* \"#utility.yul\":20774:20778   */\n      0x00\n        /* \"#utility.yul\":20812:20814   */\n      0x20\n        /* \"#utility.yul\":20801:20810   */\n      dup3\n        /* \"#utility.yul\":20797:20815   */\n      add\n        /* \"#utility.yul\":20789:20815   */\n      swap1\n      pop\n        /* \"#utility.yul\":20861:20870   */\n      dup2\n        /* \"#utility.yul\":20855:20859   */\n      dup2\n        /* \"#utility.yul\":20851:20871   */\n      sub\n        /* \"#utility.yul\":20847:20848   */\n      0x00\n        /* \"#utility.yul\":20836:20845   */\n      dup4\n        /* \"#utility.yul\":20832:20849   */\n      add\n        /* \"#utility.yul\":20825:20872   */\n      mstore\n        /* \"#utility.yul\":20889:21020   */\n      tag_793\n        /* \"#utility.yul\":21015:21019   */\n      dup2\n        /* \"#utility.yul\":20889:21020   */\n      tag_547\n      jump\t// in\n    tag_793:\n        /* \"#utility.yul\":20881:21020   */\n      swap1\n      pop\n        /* \"#utility.yul\":20608:21027   */\n      swap2\n      swap1\n      pop\n      jump\t// out\n        /* \"#utility.yul\":21033:21258   */\n    tag_548:\n        /* \"#utility.yul\":21173:21207   */\n      0x496e7075742076616c7565206973207468652073616d65206c696b6520657869\n        /* \"#utility.yul\":21169:21170   */\n      0x00\n        /* \"#utility.yul\":21161:21167   */\n      dup3\n        /* \"#utility.yul\":21157:21171   */\n      add\n        /* \"#utility.yul\":21150:21208   */\n      mstore\n        /* \"#utility.yul\":21242:21250   */\n      0x7374696e67210000000000000000000000000000000000000000000000000000\n        /* \"#utility.yul\":21237:21239   */\n      0x20\n        /* \"#utility.yul\":21229:21235   */\n      dup3\n        /* \"#utility.yul\":21225:21240   */\n      add\n        /* \"#utility.yul\":21218:21251   */\n      mstore\n        /* \"#utility.yul\":21033:21258   */\n      pop\n      jump\t// out\n        /* \"#utility.yul\":21264:21630   */\n    tag_549:\n        /* \"#utility.yul\":21406:21409   */\n      0x00\n        /* \"#utility.yul\":21427:21494   */\n      tag_796\n        /* \"#utility.yul\":21491:21493   */\n      0x26\n        /* \"#utility.yul\":21486:21489   */\n      dup4\n        /* \"#utility.yul\":21427:21494   */\n      tag_518\n      jump\t// in\n    tag_796:\n        /* \"#utility.yul\":21420:21494   */\n      swap2\n      pop\n        /* \"#utility.yul\":21503:21596   */\n      tag_797\n        /* \"#utility.yul\":21592:21595   */\n      dup3\n        /* \"#utility.yul\":21503:21596   */\n      tag_548\n      jump\t// in\n    tag_797:\n        /* \"#utility.yul\":21621:21623   */\n      0x40\n        /* \"#utility.yul\":21616:21619   */\n      dup3\n        /* \"#utility.yul\":21612:21624   */\n      add\n        /* \"#utility.yul\":21605:21624   */\n      swap1\n      pop\n        /* \"#utility.yul\":21264:21630   */\n      swap2\n      swap1\n      pop\n      jump\t// out\n        /* \"#utility.yul\":21636:22055   */\n    tag_246:\n        /* \"#utility.yul\":21802:21806   */\n      0x00\n        /* \"#utility.yul\":21840:21842   */\n      0x20\n        /* \"#utility.yul\":21829:21838   */\n      dup3\n        /* \"#utility.yul\":21825:21843   */\n      add\n        /* \"#utility.yul\":21817:21843   */\n      swap1\n      pop\n        /* \"#utility.yul\":21889:21898   */\n      dup2\n        /* \"#utility.yul\":21883:21887   */\n      dup2\n        /* \"#utility.yul\":21879:21899   */\n      sub\n        /* \"#utility.yul\":21875:21876   */\n      0x00\n        /* \"#utility.yul\":21864:21873   */\n      dup4\n        /* \"#utility.yul\":21860:21877   */\n      add\n        /* \"#utility.yul\":21853:21900   */\n      mstore\n        /* \"#utility.yul\":21917:22048   */\n      tag_799\n        /* \"#utility.yul\":22043:22047   */\n      dup2\n        /* \"#utility.yul\":21917:22048   */\n      tag_549\n      jump\t// in\n    tag_799:\n        /* \"#utility.yul\":21909:22048   */\n      swap1\n      pop\n        /* \"#utility.yul\":21636:22055   */\n      swap2\n      swap1\n      pop\n      jump\t// out\n        /* \"#utility.yul\":22061:22312   */\n    tag_550:\n        /* \"#utility.yul\":22201:22235   */\n      0x4e6f7420656e6f75676820706f696e74732e2054686520636f6e747261637420\n        /* \"#utility.yul\":22197:22198   */\n      0x00\n        /* \"#utility.yul\":22189:22195   */\n      dup3\n        /* \"#utility.yul\":22185:22199   */\n      add\n        /* \"#utility.yul\":22178:22236   */\n      mstore\n        /* \"#utility.yul\":22270:22304   */\n      0x6d75737420626520636861726765642077697468206d6f726520746f6b656e73\n        /* \"#utility.yul\":22265:22267   */\n      0x20\n        /* \"#utility.yul\":22257:22263   */\n      dup3\n        /* \"#utility.yul\":22253:22268   */\n      add\n        /* \"#utility.yul\":22246:22305   */\n      mstore\n        /* \"#utility.yul\":22061:22312   */\n      pop\n      jump\t// out\n        /* \"#utility.yul\":22318:22684   */\n    tag_551:\n        /* \"#utility.yul\":22460:22463   */\n      0x00\n        /* \"#utility.yul\":22481:22548   */\n      tag_802\n        /* \"#utility.yul\":22545:22547   */\n      0x40\n        /* \"#utility.yul\":22540:22543   */\n      dup4\n        /* \"#utility.yul\":22481:22548   */\n      tag_518\n      jump\t// in\n    tag_802:\n        /* \"#utility.yul\":22474:22548   */\n      swap2\n      pop\n        /* \"#utility.yul\":22557:22650   */\n      tag_803\n        /* \"#utility.yul\":22646:22649   */\n      dup3\n        /* \"#utility.yul\":22557:22650   */\n      tag_550\n      jump\t// in\n    tag_803:\n        /* \"#utility.yul\":22675:22677   */\n      0x40\n        /* \"#utility.yul\":22670:22673   */\n      dup3\n        /* \"#utility.yul\":22666:22678   */\n      add\n        /* \"#utility.yul\":22659:22678   */\n      swap1\n      pop\n        /* \"#utility.yul\":22318:22684   */\n      swap2\n      swap1\n      pop\n      jump\t// out\n        /* \"#utility.yul\":22690:23109   */\n    tag_288:\n        /* \"#utility.yul\":22856:22860   */\n      0x00\n        /* \"#utility.yul\":22894:22896   */\n      0x20\n        /* \"#utility.yul\":22883:22892   */\n      dup3\n        /* \"#utility.yul\":22879:22897   */\n      add\n        /* \"#utility.yul\":22871:22897   */\n      swap1\n      pop\n        /* \"#utility.yul\":22943:22952   */\n      dup2\n        /* \"#utility.yul\":22937:22941   */\n      dup2\n        /* \"#utility.yul\":22933:22953   */\n      sub\n        /* \"#utility.yul\":22929:22930   */\n      0x00\n        /* \"#utility.yul\":22918:22927   */\n      dup4\n        /* \"#utility.yul\":22914:22931   */\n      add\n        /* \"#utility.yul\":22907:22954   */\n      mstore\n        /* \"#utility.yul\":22971:23102   */\n      tag_805\n        /* \"#utility.yul\":23097:23101   */\n      dup2\n        /* \"#utility.yul\":22971:23102   */\n      tag_551\n      jump\t// in\n    tag_805:\n        /* \"#utility.yul\":22963:23102   */\n      swap1\n      pop\n        /* \"#utility.yul\":22690:23109   */\n      swap2\n      swap1\n      pop\n      jump\t// out\n        /* \"#utility.yul\":23115:23340   */\n    tag_552:\n        /* \"#utility.yul\":23255:23289   */\n      0x57697468647261772076616c7565206d75737420626520677265617465722074\n        /* \"#utility.yul\":23251:23252   */\n      0x00\n        /* \"#utility.yul\":23243:23249   */\n      dup3\n        /* \"#utility.yul\":23239:23253   */\n      add\n        /* \"#utility.yul\":23232:23290   */\n      mstore\n        /* \"#utility.yul\":23324:23332   */\n      0x68616e2030210000000000000000000000000000000000000000000000000000\n        /* \"#utility.yul\":23319:23321   */\n      0x20\n        /* \"#utility.yul\":23311:23317   */\n      dup3\n        /* \"#utility.yul\":23307:23322   */\n      add\n        /* \"#utility.yul\":23300:23333   */\n      mstore\n        /* \"#utility.yul\":23115:23340   */\n      pop\n      jump\t// out\n        /* \"#utility.yul\":23346:23712   */\n    tag_553:\n        /* \"#utility.yul\":23488:23491   */\n      0x00\n        /* \"#utility.yul\":23509:23576   */\n      tag_808\n        /* \"#utility.yul\":23573:23575   */\n      0x26\n        /* \"#utility.yul\":23568:23571   */\n      dup4\n        /* \"#utility.yul\":23509:23576   */\n      tag_518\n      jump\t// in\n    tag_808:\n        /* \"#utility.yul\":23502:23576   */\n      swap2\n      pop\n        /* \"#utility.yul\":23585:23678   */\n      tag_809\n        /* \"#utility.yul\":23674:23677   */\n      dup3\n        /* \"#utility.yul\":23585:23678   */\n      tag_552\n      jump\t// in\n    tag_809:\n        /* \"#utility.yul\":23703:23705   */\n      0x40\n        /* \"#utility.yul\":23698:23701   */\n      dup3\n        /* \"#utility.yul\":23694:23706   */\n      add\n        /* \"#utility.yul\":23687:23706   */\n      swap1\n      pop\n        /* \"#utility.yul\":23346:23712   */\n      swap2\n      swap1\n      pop\n      jump\t// out\n        /* \"#utility.yul\":23718:24137   */\n    tag_291:\n        /* \"#utility.yul\":23884:23888   */\n      0x00\n        /* \"#utility.yul\":23922:23924   */\n      0x20\n        /* \"#utility.yul\":23911:23920   */\n      dup3\n        /* \"#utility.yul\":23907:23925   */\n      add\n        /* \"#utility.yul\":23899:23925   */\n      swap1\n      pop\n        /* \"#utility.yul\":23971:23980   */\n      dup2\n        /* \"#utility.yul\":23965:23969   */\n      dup2\n        /* \"#utility.yul\":23961:23981   */\n      sub\n        /* \"#utility.yul\":23957:23958   */\n      0x00\n        /* \"#utility.yul\":23946:23955   */\n      dup4\n        /* \"#utility.yul\":23942:23959   */\n      add\n        /* \"#utility.yul\":23935:23982   */\n      mstore\n        /* \"#utility.yul\":23999:24130   */\n      tag_811\n        /* \"#utility.yul\":24125:24129   */\n      dup2\n        /* \"#utility.yul\":23999:24130   */\n      tag_553\n      jump\t// in\n    tag_811:\n        /* \"#utility.yul\":23991:24130   */\n      swap1\n      pop\n        /* \"#utility.yul\":23718:24137   */\n      swap2\n      swap1\n      pop\n      jump\t// out\n        /* \"#utility.yul\":24143:24261   */\n    tag_554:\n        /* \"#utility.yul\":24230:24254   */\n      tag_813\n        /* \"#utility.yul\":24248:24253   */\n      dup2\n        /* \"#utility.yul\":24230:24254   */\n      tag_514\n      jump\t// in\n    tag_813:\n        /* \"#utility.yul\":24225:24228   */\n      dup3\n        /* \"#utility.yul\":24218:24255   */\n      mstore\n        /* \"#utility.yul\":24143:24261   */\n      pop\n      pop\n      jump\t// out\n        /* \"#utility.yul\":24267:24599   */\n    tag_293:\n        /* \"#utility.yul\":24388:24392   */\n      0x00\n        /* \"#utility.yul\":24426:24428   */\n      0x40\n        /* \"#utility.yul\":24415:24424   */\n      dup3\n        /* \"#utility.yul\":24411:24429   */\n      add\n        /* \"#utility.yul\":24403:24429   */\n      swap1\n      pop\n        /* \"#utility.yul\":24439:24510   */\n      tag_815\n        /* \"#utility.yul\":24507:24508   */\n      0x00\n        /* \"#utility.yul\":24496:24505   */\n      dup4\n        /* \"#utility.yul\":24492:24509   */\n      add\n        /* \"#utility.yul\":24483:24489   */\n      dup6\n        /* \"#utility.yul\":24439:24510   */\n      tag_509\n      jump\t// in\n    tag_815:\n        /* \"#utility.yul\":24520:24592   */\n      tag_816\n        /* \"#utility.yul\":24588:24590   */\n      0x20\n        /* \"#utility.yul\":24577:24586   */\n      dup4\n        /* \"#utility.yul\":24573:24591   */\n      add\n        /* \"#utility.yul\":24564:24570   */\n      dup5\n        /* \"#utility.yul\":24520:24592   */\n      tag_554\n      jump\t// in\n    tag_816:\n        /* \"#utility.yul\":24267:24599   */\n      swap4\n      swap3\n      pop\n      pop\n      pop\n      jump\t// out\n        /* \"#utility.yul\":24605:24799   */\n    tag_295:\n        /* \"#utility.yul\":24645:24649   */\n      0x00\n        /* \"#utility.yul\":24665:24685   */\n      tag_818\n        /* \"#utility.yul\":24683:24684   */\n      dup3\n        /* \"#utility.yul\":24665:24685   */\n      tag_508\n      jump\t// in\n    tag_818:\n        /* \"#utility.yul\":24660:24685   */\n      swap2\n      pop\n        /* \"#utility.yul\":24699:24719   */\n      tag_819\n        /* \"#utility.yul\":24717:24718   */\n      dup4\n        /* \"#utility.yul\":24699:24719   */\n      tag_508\n      jump\t// in\n    tag_819:\n        /* \"#utility.yul\":24694:24719   */\n      swap3\n      pop\n        /* \"#utility.yul\":24743:24744   */\n      dup3\n        /* \"#utility.yul\":24740:24741   */\n      dup3\n        /* \"#utility.yul\":24736:24745   */\n      sub\n        /* \"#utility.yul\":24728:24745   */\n      swap1\n      pop\n        /* \"#utility.yul\":24767:24768   */\n      dup2\n        /* \"#utility.yul\":24761:24765   */\n      dup2\n        /* \"#utility.yul\":24758:24769   */\n      gt\n        /* \"#utility.yul\":24755:24792   */\n      iszero\n      tag_820\n      jumpi\n        /* \"#utility.yul\":24772:24790   */\n      tag_821\n      tag_539\n      jump\t// in\n    tag_821:\n        /* \"#utility.yul\":24755:24792   */\n    tag_820:\n        /* \"#utility.yul\":24605:24799   */\n      swap3\n      swap2\n      pop\n      pop\n      jump\t// out\n        /* \"#utility.yul\":24805:24922   */\n    tag_555:\n        /* \"#utility.yul\":24914:24915   */\n      0x00\n        /* \"#utility.yul\":24911:24912   */\n      dup1\n        /* \"#utility.yul\":24904:24916   */\n      revert\n        /* \"#utility.yul\":24928:25045   */\n    tag_556:\n        /* \"#utility.yul\":25037:25038   */\n      0x00\n        /* \"#utility.yul\":25034:25035   */\n      dup1\n        /* \"#utility.yul\":25027:25039   */\n      revert\n        /* \"#utility.yul\":25051:25231   */\n    tag_557:\n        /* \"#utility.yul\":25099:25176   */\n      0x4e487b7100000000000000000000000000000000000000000000000000000000\n        /* \"#utility.yul\":25096:25097   */\n      0x00\n        /* \"#utility.yul\":25089:25177   */\n      mstore\n        /* \"#utility.yul\":25196:25200   */\n      0x41\n        /* \"#utility.yul\":25193:25194   */\n      0x04\n        /* \"#utility.yul\":25186:25201   */\n      mstore\n        /* \"#utility.yul\":25220:25224   */\n      0x24\n        /* \"#utility.yul\":25217:25218   */\n      0x00\n        /* \"#utility.yul\":25210:25225   */\n      revert\n        /* \"#utility.yul\":25237:25518   */\n    tag_558:\n        /* \"#utility.yul\":25320:25347   */\n      tag_826\n        /* \"#utility.yul\":25342:25346   */\n      dup3\n        /* \"#utility.yul\":25320:25347   */\n      tag_520\n      jump\t// in\n    tag_826:\n        /* \"#utility.yul\":25312:25318   */\n      dup2\n        /* \"#utility.yul\":25308:25348   */\n      add\n        /* \"#utility.yul\":25450:25456   */\n      dup2\n        /* \"#utility.yul\":25438:25448   */\n      dup2\n        /* \"#utility.yul\":25435:25457   */\n      lt\n        /* \"#utility.yul\":25414:25432   */\n      0xffffffffffffffff\n        /* \"#utility.yul\":25402:25412   */\n      dup3\n        /* \"#utility.yul\":25399:25433   */\n      gt\n        /* \"#utility.yul\":25396:25458   */\n      or\n        /* \"#utility.yul\":25393:25481   */\n      iszero\n      tag_827\n      jumpi\n        /* \"#utility.yul\":25461:25479   */\n      tag_828\n      tag_557\n      jump\t// in\n    tag_828:\n        /* \"#utility.yul\":25393:25481   */\n    tag_827:\n        /* \"#utility.yul\":25501:25511   */\n      dup1\n        /* \"#utility.yul\":25497:25499   */\n      0x40\n        /* \"#utility.yul\":25490:25512   */\n      mstore\n        /* \"#utility.yul\":25280:25518   */\n      pop\n        /* \"#utility.yul\":25237:25518   */\n      pop\n      pop\n      jump\t// out\n        /* \"#utility.yul\":25524:25653   */\n    tag_559:\n        /* \"#utility.yul\":25558:25564   */\n      0x00\n        /* \"#utility.yul\":25585:25605   */\n      tag_830\n      tag_500\n      jump\t// in\n    tag_830:\n        /* \"#utility.yul\":25575:25605   */\n      swap1\n      pop\n        /* \"#utility.yul\":25614:25647   */\n      tag_831\n        /* \"#utility.yul\":25642:25646   */\n      dup3\n        /* \"#utility.yul\":25634:25640   */\n      dup3\n        /* \"#utility.yul\":25614:25647   */\n      tag_558\n      jump\t// in\n    tag_831:\n        /* \"#utility.yul\":25524:25653   */\n      swap2\n      swap1\n      pop\n      jump\t// out\n        /* \"#utility.yul\":25659:25967   */\n    tag_560:\n        /* \"#utility.yul\":25721:25725   */\n      0x00\n        /* \"#utility.yul\":25811:25829   */\n      0xffffffffffffffff\n        /* \"#utility.yul\":25803:25809   */\n      dup3\n        /* \"#utility.yul\":25800:25830   */\n      gt\n        /* \"#utility.yul\":25797:25853   */\n      iszero\n      tag_833\n      jumpi\n        /* \"#utility.yul\":25833:25851   */\n      tag_834\n      tag_557\n      jump\t// in\n    tag_834:\n        /* \"#utility.yul\":25797:25853   */\n    tag_833:\n        /* \"#utility.yul\":25871:25900   */\n      tag_835\n        /* \"#utility.yul\":25893:25899   */\n      dup3\n        /* \"#utility.yul\":25871:25900   */\n      tag_520\n      jump\t// in\n    tag_835:\n        /* \"#utility.yul\":25863:25900   */\n      swap1\n      pop\n        /* \"#utility.yul\":25955:25959   */\n      0x20\n        /* \"#utility.yul\":25949:25953   */\n      dup2\n        /* \"#utility.yul\":25945:25960   */\n      add\n        /* \"#utility.yul\":25937:25960   */\n      swap1\n      pop\n        /* \"#utility.yul\":25659:25967   */\n      swap2\n      swap1\n      pop\n      jump\t// out\n        /* \"#utility.yul\":25973:26407   */\n    tag_561:\n        /* \"#utility.yul\":26062:26067   */\n      0x00\n        /* \"#utility.yul\":26087:26153   */\n      tag_837\n        /* \"#utility.yul\":26103:26152   */\n      tag_838\n        /* \"#utility.yul\":26145:26151   */\n      dup5\n        /* \"#utility.yul\":26103:26152   */\n      tag_560\n      jump\t// in\n    tag_838:\n        /* \"#utility.yul\":26087:26153   */\n      tag_559\n      jump\t// in\n    tag_837:\n        /* \"#utility.yul\":26078:26153   */\n      swap1\n      pop\n        /* \"#utility.yul\":26176:26182   */\n      dup3\n        /* \"#utility.yul\":26169:26174   */\n      dup2\n        /* \"#utility.yul\":26162:26183   */\n      mstore\n        /* \"#utility.yul\":26214:26218   */\n      0x20\n        /* \"#utility.yul\":26207:26212   */\n      dup2\n        /* \"#utility.yul\":26203:26219   */\n      add\n        /* \"#utility.yul\":26252:26255   */\n      dup5\n        /* \"#utility.yul\":26243:26249   */\n      dup5\n        /* \"#utility.yul\":26238:26241   */\n      dup5\n        /* \"#utility.yul\":26234:26250   */\n      add\n        /* \"#utility.yul\":26231:26256   */\n      gt\n        /* \"#utility.yul\":26228:26340   */\n      iszero\n      tag_839\n      jumpi\n        /* \"#utility.yul\":26259:26338   */\n      tag_840\n      tag_556\n      jump\t// in\n    tag_840:\n        /* \"#utility.yul\":26228:26340   */\n    tag_839:\n        /* \"#utility.yul\":26349:26401   */\n      tag_841\n        /* \"#utility.yul\":26394:26400   */\n      dup5\n        /* \"#utility.yul\":26389:26392   */\n      dup3\n        /* \"#utility.yul\":26384:26387   */\n      dup6\n        /* \"#utility.yul\":26349:26401   */\n      tag_519\n      jump\t// in\n    tag_841:\n        /* \"#utility.yul\":26068:26407   */\n      pop\n        /* \"#utility.yul\":25973:26407   */\n      swap4\n      swap3\n      pop\n      pop\n      pop\n      jump\t// out\n        /* \"#utility.yul\":26427:26782   */\n    tag_562:\n        /* \"#utility.yul\":26494:26499   */\n      0x00\n        /* \"#utility.yul\":26543:26546   */\n      dup3\n        /* \"#utility.yul\":26536:26540   */\n      0x1f\n        /* \"#utility.yul\":26528:26534   */\n      dup4\n        /* \"#utility.yul\":26524:26541   */\n      add\n        /* \"#utility.yul\":26520:26547   */\n      slt\n        /* \"#utility.yul\":26510:26632   */\n      tag_843\n      jumpi\n        /* \"#utility.yul\":26551:26630   */\n      tag_844\n      tag_555\n      jump\t// in\n    tag_844:\n        /* \"#utility.yul\":26510:26632   */\n    tag_843:\n        /* \"#utility.yul\":26661:26667   */\n      dup2\n        /* \"#utility.yul\":26655:26668   */\n      mload\n        /* \"#utility.yul\":26686:26776   */\n      tag_845\n        /* \"#utility.yul\":26772:26775   */\n      dup5\n        /* \"#utility.yul\":26764:26770   */\n      dup3\n        /* \"#utility.yul\":26757:26761   */\n      0x20\n        /* \"#utility.yul\":26749:26755   */\n      dup7\n        /* \"#utility.yul\":26745:26762   */\n      add\n        /* \"#utility.yul\":26686:26776   */\n      tag_561\n      jump\t// in\n    tag_845:\n        /* \"#utility.yul\":26677:26776   */\n      swap2\n      pop\n        /* \"#utility.yul\":26500:26782   */\n      pop\n        /* \"#utility.yul\":26427:26782   */\n      swap3\n      swap2\n      pop\n      pop\n      jump\t// out\n        /* \"#utility.yul\":26788:27312   */\n    tag_309:\n        /* \"#utility.yul\":26868:26874   */\n      0x00\n        /* \"#utility.yul\":26917:26919   */\n      0x20\n        /* \"#utility.yul\":26905:26914   */\n      dup3\n        /* \"#utility.yul\":26896:26903   */\n      dup5\n        /* \"#utility.yul\":26892:26915   */\n      sub\n        /* \"#utility.yul\":26888:26920   */\n      slt\n        /* \"#utility.yul\":26885:27004   */\n      iszero\n      tag_847\n      jumpi\n        /* \"#utility.yul\":26923:27002   */\n      tag_848\n      tag_501\n      jump\t// in\n    tag_848:\n        /* \"#utility.yul\":26885:27004   */\n    tag_847:\n        /* \"#utility.yul\":27064:27065   */\n      0x00\n        /* \"#utility.yul\":27053:27062   */\n      dup3\n        /* \"#utility.yul\":27049:27066   */\n      add\n        /* \"#utility.yul\":27043:27067   */\n      mload\n        /* \"#utility.yul\":27094:27112   */\n      0xffffffffffffffff\n        /* \"#utility.yul\":27086:27092   */\n      dup2\n        /* \"#utility.yul\":27083:27113   */\n      gt\n        /* \"#utility.yul\":27080:27197   */\n      iszero\n      tag_849\n      jumpi\n        /* \"#utility.yul\":27116:27195   */\n      tag_850\n      tag_502\n      jump\t// in\n    tag_850:\n        /* \"#utility.yul\":27080:27197   */\n    tag_849:\n        /* \"#utility.yul\":27221:27295   */\n      tag_851\n        /* \"#utility.yul\":27287:27294   */\n      dup5\n        /* \"#utility.yul\":27278:27284   */\n      dup3\n        /* \"#utility.yul\":27267:27276   */\n      dup6\n        /* \"#utility.yul\":27263:27285   */\n      add\n        /* \"#utility.yul\":27221:27295   */\n      tag_562\n      jump\t// in\n    tag_851:\n        /* \"#utility.yul\":27211:27295   */\n      swap2\n      pop\n        /* \"#utility.yul\":27014:27305   */\n      pop\n        /* \"#utility.yul\":26788:27312   */\n      swap3\n      swap2\n      pop\n      pop\n      jump\t// out\n        /* \"#utility.yul\":27318:27543   */\n    tag_563:\n        /* \"#utility.yul\":27458:27492   */\n      0x41676772656761746f72436f6e73756d6572206973206e6f7420696e69746961\n        /* \"#utility.yul\":27454:27455   */\n      0x00\n        /* \"#utility.yul\":27446:27452   */\n      dup3\n        /* \"#utility.yul\":27442:27456   */\n      add\n        /* \"#utility.yul\":27435:27493   */\n      mstore\n        /* \"#utility.yul\":27527:27535   */\n      0x6c697a6564210000000000000000000000000000000000000000000000000000\n        /* \"#utility.yul\":27522:27524   */\n      0x20\n        /* \"#utility.yul\":27514:27520   */\n      dup3\n        /* \"#utility.yul\":27510:27525   */\n      add\n        /* \"#utility.yul\":27503:27536   */\n      mstore\n        /* \"#utility.yul\":27318:27543   */\n      pop\n      jump\t// out\n        /* \"#utility.yul\":27549:27915   */\n    tag_564:\n        /* \"#utility.yul\":27691:27694   */\n      0x00\n        /* \"#utility.yul\":27712:27779   */\n      tag_854\n        /* \"#utility.yul\":27776:27778   */\n      0x26\n        /* \"#utility.yul\":27771:27774   */\n      dup4\n        /* \"#utility.yul\":27712:27779   */\n      tag_518\n      jump\t// in\n    tag_854:\n        /* \"#utility.yul\":27705:27779   */\n      swap2\n      pop\n        /* \"#utility.yul\":27788:27881   */\n      tag_855\n        /* \"#utility.yul\":27877:27880   */\n      dup3\n        /* \"#utility.yul\":27788:27881   */\n      tag_563\n      jump\t// in\n    tag_855:\n        /* \"#utility.yul\":27906:27908   */\n      0x40\n        /* \"#utility.yul\":27901:27904   */\n      dup3\n        /* \"#utility.yul\":27897:27909   */\n      add\n        /* \"#utility.yul\":27890:27909   */\n      swap1\n      pop\n        /* \"#utility.yul\":27549:27915   */\n      swap2\n      swap1\n      pop\n      jump\t// out\n        /* \"#utility.yul\":27921:28340   */\n    tag_333:\n        /* \"#utility.yul\":28087:28091   */\n      0x00\n        /* \"#utility.yul\":28125:28127   */\n      0x20\n        /* \"#utility.yul\":28114:28123   */\n      dup3\n        /* \"#utility.yul\":28110:28128   */\n      add\n        /* \"#utility.yul\":28102:28128   */\n      swap1\n      pop\n        /* \"#utility.yul\":28174:28183   */\n      dup2\n        /* \"#utility.yul\":28168:28172   */\n      dup2\n        /* \"#utility.yul\":28164:28184   */\n      sub\n        /* \"#utility.yul\":28160:28161   */\n      0x00\n        /* \"#utility.yul\":28149:28158   */\n      dup4\n        /* \"#utility.yul\":28145:28162   */\n      add\n        /* \"#utility.yul\":28138:28185   */\n      mstore\n        /* \"#utility.yul\":28202:28333   */\n      tag_857\n        /* \"#utility.yul\":28328:28332   */\n      dup2\n        /* \"#utility.yul\":28202:28333   */\n      tag_564\n      jump\t// in\n    tag_857:\n        /* \"#utility.yul\":28194:28333   */\n      swap1\n      pop\n        /* \"#utility.yul\":27921:28340   */\n      swap2\n      swap1\n      pop\n      jump\t// out\n        /* \"#utility.yul\":28346:28528   */\n    tag_565:\n        /* \"#utility.yul\":28486:28520   */\n      0x506f6f6c436f6e73756d6572206973206e6f7420696e697469616c697a656421\n        /* \"#utility.yul\":28482:28483   */\n      0x00\n        /* \"#utility.yul\":28474:28480   */\n      dup3\n        /* \"#utility.yul\":28470:28484   */\n      add\n        /* \"#utility.yul\":28463:28521   */\n      mstore\n        /* \"#utility.yul\":28346:28528   */\n      pop\n      jump\t// out\n        /* \"#utility.yul\":28534:28900   */\n    tag_566:\n        /* \"#utility.yul\":28676:28679   */\n      0x00\n        /* \"#utility.yul\":28697:28764   */\n      tag_860\n        /* \"#utility.yul\":28761:28763   */\n      0x20\n        /* \"#utility.yul\":28756:28759   */\n      dup4\n        /* \"#utility.yul\":28697:28764   */\n      tag_518\n      jump\t// in\n    tag_860:\n        /* \"#utility.yul\":28690:28764   */\n      swap2\n      pop\n        /* \"#utility.yul\":28773:28866   */\n      tag_861\n        /* \"#utility.yul\":28862:28865   */\n      dup3\n        /* \"#utility.yul\":28773:28866   */\n      tag_565\n      jump\t// in\n    tag_861:\n        /* \"#utility.yul\":28891:28893   */\n      0x20\n        /* \"#utility.yul\":28886:28889   */\n      dup3\n        /* \"#utility.yul\":28882:28894   */\n      add\n        /* \"#utility.yul\":28875:28894   */\n      swap1\n      pop\n        /* \"#utility.yul\":28534:28900   */\n      swap2\n      swap1\n      pop\n      jump\t// out\n        /* \"#utility.yul\":28906:29325   */\n    tag_338:\n        /* \"#utility.yul\":29072:29076   */\n      0x00\n        /* \"#utility.yul\":29110:29112   */\n      0x20\n        /* \"#utility.yul\":29099:29108   */\n      dup3\n        /* \"#utility.yul\":29095:29113   */\n      add\n        /* \"#utility.yul\":29087:29113   */\n      swap1\n      pop\n        /* \"#utility.yul\":29159:29168   */\n      dup2\n        /* \"#utility.yul\":29153:29157   */\n      dup2\n        /* \"#utility.yul\":29149:29169   */\n      sub\n        /* \"#utility.yul\":29145:29146   */\n      0x00\n        /* \"#utility.yul\":29134:29143   */\n      dup4\n        /* \"#utility.yul\":29130:29147   */\n      add\n        /* \"#utility.yul\":29123:29170   */\n      mstore\n        /* \"#utility.yul\":29187:29318   */\n      tag_863\n        /* \"#utility.yul\":29313:29317   */\n      dup2\n        /* \"#utility.yul\":29187:29318   */\n      tag_566\n      jump\t// in\n    tag_863:\n        /* \"#utility.yul\":29179:29318   */\n      swap1\n      pop\n        /* \"#utility.yul\":28906:29325   */\n      swap2\n      swap1\n      pop\n      jump\t// out\n        /* \"#utility.yul\":29331:29498   */\n    tag_567:\n        /* \"#utility.yul\":29471:29490   */\n      0x4e6f2063686172676520616d6f756e7421000000000000000000000000000000\n        /* \"#utility.yul\":29467:29468   */\n      0x00\n        /* \"#utility.yul\":29459:29465   */\n      dup3\n        /* \"#utility.yul\":29455:29469   */\n      add\n        /* \"#utility.yul\":29448:29491   */\n      mstore\n        /* \"#utility.yul\":29331:29498   */\n      pop\n      jump\t// out\n        /* \"#utility.yul\":29504:29870   */\n    tag_568:\n        /* \"#utility.yul\":29646:29649   */\n      0x00\n        /* \"#utility.yul\":29667:29734   */\n      tag_866\n        /* \"#utility.yul\":29731:29733   */\n      0x11\n        /* \"#utility.yul\":29726:29729   */\n      dup4\n        /* \"#utility.yul\":29667:29734   */\n      tag_518\n      jump\t// in\n    tag_866:\n        /* \"#utility.yul\":29660:29734   */\n      swap2\n      pop\n        /* \"#utility.yul\":29743:29836   */\n      tag_867\n        /* \"#utility.yul\":29832:29835   */\n      dup3\n        /* \"#utility.yul\":29743:29836   */\n      tag_567\n      jump\t// in\n    tag_867:\n        /* \"#utility.yul\":29861:29863   */\n      0x20\n        /* \"#utility.yul\":29856:29859   */\n      dup3\n        /* \"#utility.yul\":29852:29864   */\n      add\n        /* \"#utility.yul\":29845:29864   */\n      swap1\n      pop\n        /* \"#utility.yul\":29504:29870   */\n      swap2\n      swap1\n      pop\n      jump\t// out\n        /* \"#utility.yul\":29876:30295   */\n    tag_353:\n        /* \"#utility.yul\":30042:30046   */\n      0x00\n        /* \"#utility.yul\":30080:30082   */\n      0x20\n        /* \"#utility.yul\":30069:30078   */\n      dup3\n        /* \"#utility.yul\":30065:30083   */\n      add\n        /* \"#utility.yul\":30057:30083   */\n      swap1\n      pop\n        /* \"#utility.yul\":30129:30138   */\n      dup2\n        /* \"#utility.yul\":30123:30127   */\n      dup2\n        /* \"#utility.yul\":30119:30139   */\n      sub\n        /* \"#utility.yul\":30115:30116   */\n      0x00\n        /* \"#utility.yul\":30104:30113   */\n      dup4\n        /* \"#utility.yul\":30100:30117   */\n      add\n        /* \"#utility.yul\":30093:30140   */\n      mstore\n        /* \"#utility.yul\":30157:30288   */\n      tag_869\n        /* \"#utility.yul\":30283:30287   */\n      dup2\n        /* \"#utility.yul\":30157:30288   */\n      tag_568\n      jump\t// in\n    tag_869:\n        /* \"#utility.yul\":30149:30288   */\n      swap1\n      pop\n        /* \"#utility.yul\":29876:30295   */\n      swap2\n      swap1\n      pop\n      jump\t// out\n        /* \"#utility.yul\":30301:30489   */\n    tag_569:\n        /* \"#utility.yul\":30470:30482   */\n      0x436865636b207468652000000000000000000000000000000000000000000000\n        /* \"#utility.yul\":30465:30468   */\n      dup2\n        /* \"#utility.yul\":30458:30483   */\n      mstore\n        /* \"#utility.yul\":30301:30489   */\n      pop\n      jump\t// out\n        /* \"#utility.yul\":30495:30643   */\n    tag_570:\n        /* \"#utility.yul\":30597:30608   */\n      0x00\n        /* \"#utility.yul\":30634:30637   */\n      dup2\n        /* \"#utility.yul\":30619:30637   */\n      swap1\n      pop\n        /* \"#utility.yul\":30495:30643   */\n      swap3\n      swap2\n      pop\n      pop\n      jump\t// out\n        /* \"#utility.yul\":30649:31039   */\n    tag_571:\n        /* \"#utility.yul\":30755:30758   */\n      0x00\n        /* \"#utility.yul\":30783:30822   */\n      tag_873\n        /* \"#utility.yul\":30816:30821   */\n      dup3\n        /* \"#utility.yul\":30783:30822   */\n      tag_517\n      jump\t// in\n    tag_873:\n        /* \"#utility.yul\":30838:30927   */\n      tag_874\n        /* \"#utility.yul\":30920:30926   */\n      dup2\n        /* \"#utility.yul\":30915:30918   */\n      dup6\n        /* \"#utility.yul\":30838:30927   */\n      tag_570\n      jump\t// in\n    tag_874:\n        /* \"#utility.yul\":30831:30927   */\n      swap4\n      pop\n        /* \"#utility.yul\":30936:31001   */\n      tag_875\n        /* \"#utility.yul\":30994:31000   */\n      dup2\n        /* \"#utility.yul\":30989:30992   */\n      dup6\n        /* \"#utility.yul\":30982:30986   */\n      0x20\n        /* \"#utility.yul\":30975:30980   */\n      dup7\n        /* \"#utility.yul\":30971:30987   */\n      add\n        /* \"#utility.yul\":30936:31001   */\n      tag_519\n      jump\t// in\n    tag_875:\n        /* \"#utility.yul\":31026:31032   */\n      dup1\n        /* \"#utility.yul\":31021:31024   */\n      dup5\n        /* \"#utility.yul\":31017:31033   */\n      add\n        /* \"#utility.yul\":31010:31033   */\n      swap2\n      pop\n        /* \"#utility.yul\":30759:31039   */\n      pop\n        /* \"#utility.yul\":30649:31039   */\n      swap3\n      swap2\n      pop\n      pop\n      jump\t// out\n        /* \"#utility.yul\":31045:31229   */\n    tag_572:\n        /* \"#utility.yul\":31213:31222   */\n      0x20746f6b656e2000000000000000000000000000000000000000000000000000\n        /* \"#utility.yul\":31208:31211   */\n      dup2\n        /* \"#utility.yul\":31201:31223   */\n      mstore\n        /* \"#utility.yul\":31045:31229   */\n      pop\n      jump\t// out\n        /* \"#utility.yul\":31235:31423   */\n    tag_573:\n        /* \"#utility.yul\":31404:31416   */\n      0x616c6c6f77616e63652100000000000000000000000000000000000000000000\n        /* \"#utility.yul\":31399:31402   */\n      dup2\n        /* \"#utility.yul\":31392:31417   */\n      mstore\n        /* \"#utility.yul\":31235:31423   */\n      pop\n      jump\t// out\n        /* \"#utility.yul\":31429:32502   */\n    tag_359:\n        /* \"#utility.yul\":31833:31836   */\n      0x00\n        /* \"#utility.yul\":31848:31986   */\n      tag_879\n        /* \"#utility.yul\":31982:31985   */\n      dup3\n        /* \"#utility.yul\":31848:31986   */\n      tag_569\n      jump\t// in\n    tag_879:\n        /* \"#utility.yul\":32011:32013   */\n      0x0a\n        /* \"#utility.yul\":32006:32009   */\n      dup3\n        /* \"#utility.yul\":32002:32014   */\n      add\n        /* \"#utility.yul\":31995:32014   */\n      swap2\n      pop\n        /* \"#utility.yul\":32031:32126   */\n      tag_880\n        /* \"#utility.yul\":32122:32125   */\n      dup3\n        /* \"#utility.yul\":32113:32119   */\n      dup5\n        /* \"#utility.yul\":32031:32126   */\n      tag_571\n      jump\t// in\n    tag_880:\n        /* \"#utility.yul\":32024:32126   */\n      swap2\n      pop\n        /* \"#utility.yul\":32136:32273   */\n      tag_881\n        /* \"#utility.yul\":32269:32272   */\n      dup3\n        /* \"#utility.yul\":32136:32273   */\n      tag_572\n      jump\t// in\n    tag_881:\n        /* \"#utility.yul\":32298:32299   */\n      0x07\n        /* \"#utility.yul\":32293:32296   */\n      dup3\n        /* \"#utility.yul\":32289:32300   */\n      add\n        /* \"#utility.yul\":32282:32300   */\n      swap2\n      pop\n        /* \"#utility.yul\":32310:32448   */\n      tag_882\n        /* \"#utility.yul\":32444:32447   */\n      dup3\n        /* \"#utility.yul\":32310:32448   */\n      tag_573\n      jump\t// in\n    tag_882:\n        /* \"#utility.yul\":32473:32475   */\n      0x0a\n        /* \"#utility.yul\":32468:32471   */\n      dup3\n        /* \"#utility.yul\":32464:32476   */\n      add\n        /* \"#utility.yul\":32457:32476   */\n      swap2\n      pop\n        /* \"#utility.yul\":32493:32496   */\n      dup2\n        /* \"#utility.yul\":32486:32496   */\n      swap1\n      pop\n        /* \"#utility.yul\":31429:32502   */\n      swap3\n      swap2\n      pop\n      pop\n      jump\t// out\n        /* \"#utility.yul\":32508:32821   */\n    tag_362:\n        /* \"#utility.yul\":32621:32625   */\n      0x00\n        /* \"#utility.yul\":32659:32661   */\n      0x20\n        /* \"#utility.yul\":32648:32657   */\n      dup3\n        /* \"#utility.yul\":32644:32662   */\n      add\n        /* \"#utility.yul\":32636:32662   */\n      swap1\n      pop\n        /* \"#utility.yul\":32708:32717   */\n      dup2\n        /* \"#utility.yul\":32702:32706   */\n      dup2\n        /* \"#utility.yul\":32698:32718   */\n      sub\n        /* \"#utility.yul\":32694:32695   */\n      0x00\n        /* \"#utility.yul\":32683:32692   */\n      dup4\n        /* \"#utility.yul\":32679:32696   */\n      add\n        /* \"#utility.yul\":32672:32719   */\n      mstore\n        /* \"#utility.yul\":32736:32814   */\n      tag_884\n        /* \"#utility.yul\":32809:32813   */\n      dup2\n        /* \"#utility.yul\":32800:32806   */\n      dup5\n        /* \"#utility.yul\":32736:32814   */\n      tag_521\n      jump\t// in\n    tag_884:\n        /* \"#utility.yul\":32728:32814   */\n      swap1\n      pop\n        /* \"#utility.yul\":32508:32821   */\n      swap3\n      swap2\n      pop\n      pop\n      jump\t// out\n        /* \"#utility.yul\":32827:32988   */\n    tag_574:\n        /* \"#utility.yul\":32967:32980   */\n      0x72617465206572726f7221000000000000000000000000000000000000000000\n        /* \"#utility.yul\":32963:32964   */\n      0x00\n        /* \"#utility.yul\":32955:32961   */\n      dup3\n        /* \"#utility.yul\":32951:32965   */\n      add\n        /* \"#utility.yul\":32944:32981   */\n      mstore\n        /* \"#utility.yul\":32827:32988   */\n      pop\n      jump\t// out\n        /* \"#utility.yul\":32994:33360   */\n    tag_575:\n        /* \"#utility.yul\":33136:33139   */\n      0x00\n        /* \"#utility.yul\":33157:33224   */\n      tag_887\n        /* \"#utility.yul\":33221:33223   */\n      0x0b\n        /* \"#utility.yul\":33216:33219   */\n      dup4\n        /* \"#utility.yul\":33157:33224   */\n      tag_518\n      jump\t// in\n    tag_887:\n        /* \"#utility.yul\":33150:33224   */\n      swap2\n      pop\n        /* \"#utility.yul\":33233:33326   */\n      tag_888\n        /* \"#utility.yul\":33322:33325   */\n      dup3\n        /* \"#utility.yul\":33233:33326   */\n      tag_574\n      jump\t// in\n    tag_888:\n        /* \"#utility.yul\":33351:33353   */\n      0x20\n        /* \"#utility.yul\":33346:33349   */\n      dup3\n        /* \"#utility.yul\":33342:33354   */\n      add\n        /* \"#utility.yul\":33335:33354   */\n      swap1\n      pop\n        /* \"#utility.yul\":32994:33360   */\n      swap2\n      swap1\n      pop\n      jump\t// out\n        /* \"#utility.yul\":33366:33785   */\n    tag_369:\n        /* \"#utility.yul\":33532:33536   */\n      0x00\n        /* \"#utility.yul\":33570:33572   */\n      0x20\n        /* \"#utility.yul\":33559:33568   */\n      dup3\n        /* \"#utility.yul\":33555:33573   */\n      add\n        /* \"#utility.yul\":33547:33573   */\n      swap1\n      pop\n        /* \"#utility.yul\":33619:33628   */\n      dup2\n        /* \"#utility.yul\":33613:33617   */\n      dup2\n        /* \"#utility.yul\":33609:33629   */\n      sub\n        /* \"#utility.yul\":33605:33606   */\n      0x00\n        /* \"#utility.yul\":33594:33603   */\n      dup4\n        /* \"#utility.yul\":33590:33607   */\n      add\n        /* \"#utility.yul\":33583:33630   */\n      mstore\n        /* \"#utility.yul\":33647:33778   */\n      tag_890\n        /* \"#utility.yul\":33773:33777   */\n      dup2\n        /* \"#utility.yul\":33647:33778   */\n      tag_575\n      jump\t// in\n    tag_890:\n        /* \"#utility.yul\":33639:33778   */\n      swap1\n      pop\n        /* \"#utility.yul\":33366:33785   */\n      swap2\n      swap1\n      pop\n      jump\t// out\n        /* \"#utility.yul\":33791:33982   */\n    tag_373:\n        /* \"#utility.yul\":33831:33834   */\n      0x00\n        /* \"#utility.yul\":33850:33870   */\n      tag_892\n        /* \"#utility.yul\":33868:33869   */\n      dup3\n        /* \"#utility.yul\":33850:33870   */\n      tag_508\n      jump\t// in\n    tag_892:\n        /* \"#utility.yul\":33845:33870   */\n      swap2\n      pop\n        /* \"#utility.yul\":33884:33904   */\n      tag_893\n        /* \"#utility.yul\":33902:33903   */\n      dup4\n        /* \"#utility.yul\":33884:33904   */\n      tag_508\n      jump\t// in\n    tag_893:\n        /* \"#utility.yul\":33879:33904   */\n      swap3\n      pop\n        /* \"#utility.yul\":33927:33928   */\n      dup3\n        /* \"#utility.yul\":33924:33925   */\n      dup3\n        /* \"#utility.yul\":33920:33929   */\n      add\n        /* \"#utility.yul\":33913:33929   */\n      swap1\n      pop\n        /* \"#utility.yul\":33948:33951   */\n      dup1\n        /* \"#utility.yul\":33945:33946   */\n      dup3\n        /* \"#utility.yul\":33942:33952   */\n      gt\n        /* \"#utility.yul\":33939:33975   */\n      iszero\n      tag_894\n      jumpi\n        /* \"#utility.yul\":33955:33973   */\n      tag_895\n      tag_539\n      jump\t// in\n    tag_895:\n        /* \"#utility.yul\":33939:33975   */\n    tag_894:\n        /* \"#utility.yul\":33791:33982   */\n      swap3\n      swap2\n      pop\n      pop\n      jump\t// out\n        /* \"#utility.yul\":33988:34632   */\n    tag_377:\n        /* \"#utility.yul\":34185:34189   */\n      0x00\n        /* \"#utility.yul\":34223:34226   */\n      0x80\n        /* \"#utility.yul\":34212:34221   */\n      dup3\n        /* \"#utility.yul\":34208:34227   */\n      add\n        /* \"#utility.yul\":34200:34227   */\n      swap1\n      pop\n        /* \"#utility.yul\":34237:34308   */\n      tag_897\n        /* \"#utility.yul\":34305:34306   */\n      0x00\n        /* \"#utility.yul\":34294:34303   */\n      dup4\n        /* \"#utility.yul\":34290:34307   */\n      add\n        /* \"#utility.yul\":34281:34287   */\n      dup8\n        /* \"#utility.yul\":34237:34308   */\n      tag_509\n      jump\t// in\n    tag_897:\n        /* \"#utility.yul\":34318:34390   */\n      tag_898\n        /* \"#utility.yul\":34386:34388   */\n      0x20\n        /* \"#utility.yul\":34375:34384   */\n      dup4\n        /* \"#utility.yul\":34371:34389   */\n      add\n        /* \"#utility.yul\":34362:34368   */\n      dup7\n        /* \"#utility.yul\":34318:34390   */\n      tag_509\n      jump\t// in\n    tag_898:\n        /* \"#utility.yul\":34400:34472   */\n      tag_899\n        /* \"#utility.yul\":34468:34470   */\n      0x40\n        /* \"#utility.yul\":34457:34466   */\n      dup4\n        /* \"#utility.yul\":34453:34471   */\n      add\n        /* \"#utility.yul\":34444:34450   */\n      dup6\n        /* \"#utility.yul\":34400:34472   */\n      tag_509\n      jump\t// in\n    tag_899:\n        /* \"#utility.yul\":34519:34528   */\n      dup2\n        /* \"#utility.yul\":34513:34517   */\n      dup2\n        /* \"#utility.yul\":34509:34529   */\n      sub\n        /* \"#utility.yul\":34504:34506   */\n      0x60\n        /* \"#utility.yul\":34493:34502   */\n      dup4\n        /* \"#utility.yul\":34489:34507   */\n      add\n        /* \"#utility.yul\":34482:34530   */\n      mstore\n        /* \"#utility.yul\":34547:34625   */\n      tag_900\n        /* \"#utility.yul\":34620:34624   */\n      dup2\n        /* \"#utility.yul\":34611:34617   */\n      dup5\n        /* \"#utility.yul\":34547:34625   */\n      tag_521\n      jump\t// in\n    tag_900:\n        /* \"#utility.yul\":34539:34625   */\n      swap1\n      pop\n        /* \"#utility.yul\":33988:34632   */\n      swap6\n      swap5\n      pop\n      pop\n      pop\n      pop\n      pop\n      jump\t// out\n        /* \"#utility.yul\":34638:34863   */\n    tag_576:\n        /* \"#utility.yul\":34778:34812   */\n      0x4f776e61626c653a206e6577206f776e657220697320746865207a65726f2061\n        /* \"#utility.yul\":34774:34775   */\n      0x00\n        /* \"#utility.yul\":34766:34772   */\n      dup3\n        /* \"#utility.yul\":34762:34776   */\n      add\n        /* \"#utility.yul\":34755:34813   */\n      mstore\n        /* \"#utility.yul\":34847:34855   */\n      0x6464726573730000000000000000000000000000000000000000000000000000\n        /* \"#utility.yul\":34842:34844   */\n      0x20\n        /* \"#utility.yul\":34834:34840   */\n      dup3\n        /* \"#utility.yul\":34830:34845   */\n      add\n        /* \"#utility.yul\":34823:34856   */\n      mstore\n        /* \"#utility.yul\":34638:34863   */\n      pop\n      jump\t// out\n        /* \"#utility.yul\":34869:35235   */\n    tag_577:\n        /* \"#utility.yul\":35011:35014   */\n      0x00\n        /* \"#utility.yul\":35032:35099   */\n      tag_903\n        /* \"#utility.yul\":35096:35098   */\n      0x26\n        /* \"#utility.yul\":35091:35094   */\n      dup4\n        /* \"#utility.yul\":35032:35099   */\n      tag_518\n      jump\t// in\n    tag_903:\n        /* \"#utility.yul\":35025:35099   */\n      swap2\n      pop\n        /* \"#utility.yul\":35108:35201   */\n      tag_904\n        /* \"#utility.yul\":35197:35200   */\n      dup3\n        /* \"#utility.yul\":35108:35201   */\n      tag_576\n      jump\t// in\n    tag_904:\n        /* \"#utility.yul\":35226:35228   */\n      0x40\n        /* \"#utility.yul\":35221:35224   */\n      dup3\n        /* \"#utility.yul\":35217:35229   */\n      add\n        /* \"#utility.yul\":35210:35229   */\n      swap1\n      pop\n        /* \"#utility.yul\":34869:35235   */\n      swap2\n      swap1\n      pop\n      jump\t// out\n        /* \"#utility.yul\":35241:35660   */\n    tag_387:\n        /* \"#utility.yul\":35407:35411   */\n      0x00\n        /* \"#utility.yul\":35445:35447   */\n      0x20\n        /* \"#utility.yul\":35434:35443   */\n      dup3\n        /* \"#utility.yul\":35430:35448   */\n      add\n        /* \"#utility.yul\":35422:35448   */\n      swap1\n      pop\n        /* \"#utility.yul\":35494:35503   */\n      dup2\n        /* \"#utility.yul\":35488:35492   */\n      dup2\n        /* \"#utility.yul\":35484:35504   */\n      sub\n        /* \"#utility.yul\":35480:35481   */\n      0x00\n        /* \"#utility.yul\":35469:35478   */\n      dup4\n        /* \"#utility.yul\":35465:35482   */\n      add\n        /* \"#utility.yul\":35458:35505   */\n      mstore\n        /* \"#utility.yul\":35522:35653   */\n      tag_906\n        /* \"#utility.yul\":35648:35652   */\n      dup2\n        /* \"#utility.yul\":35522:35653   */\n      tag_577\n      jump\t// in\n    tag_906:\n        /* \"#utility.yul\":35514:35653   */\n      swap1\n      pop\n        /* \"#utility.yul\":35241:35660   */\n      swap2\n      swap1\n      pop\n      jump\t// out\n        /* \"#utility.yul\":35666:35836   */\n    tag_578:\n        /* \"#utility.yul\":35806:35828   */\n      0x5061757361626c653a206e6f7420706175736564000000000000000000000000\n        /* \"#utility.yul\":35802:35803   */\n      0x00\n        /* \"#utility.yul\":35794:35800   */\n      dup3\n        /* \"#utility.yul\":35790:35804   */\n      add\n        /* \"#utility.yul\":35783:35829   */\n      mstore\n        /* \"#utility.yul\":35666:35836   */\n      pop\n      jump\t// out\n        /* \"#utility.yul\":35842:36208   */\n    tag_579:\n        /* \"#utility.yul\":35984:35987   */\n      0x00\n        /* \"#utility.yul\":36005:36072   */\n      tag_909\n        /* \"#utility.yul\":36069:36071   */\n      0x14\n        /* \"#utility.yul\":36064:36067   */\n      dup4\n        /* \"#utility.yul\":36005:36072   */\n      tag_518\n      jump\t// in\n    tag_909:\n        /* \"#utility.yul\":35998:36072   */\n      swap2\n      pop\n        /* \"#utility.yul\":36081:36174   */\n      tag_910\n        /* \"#utility.yul\":36170:36173   */\n      dup3\n        /* \"#utility.yul\":36081:36174   */\n      tag_578\n      jump\t// in\n    tag_910:\n        /* \"#utility.yul\":36199:36201   */\n      0x20\n        /* \"#utility.yul\":36194:36197   */\n      dup3\n        /* \"#utility.yul\":36190:36202   */\n      add\n        /* \"#utility.yul\":36183:36202   */\n      swap1\n      pop\n        /* \"#utility.yul\":35842:36208   */\n      swap2\n      swap1\n      pop\n      jump\t// out\n        /* \"#utility.yul\":36214:36633   */\n    tag_393:\n        /* \"#utility.yul\":36380:36384   */\n      0x00\n        /* \"#utility.yul\":36418:36420   */\n      0x20\n        /* \"#utility.yul\":36407:36416   */\n      dup3\n        /* \"#utility.yul\":36403:36421   */\n      add\n        /* \"#utility.yul\":36395:36421   */\n      swap1\n      pop\n        /* \"#utility.yul\":36467:36476   */\n      dup2\n        /* \"#utility.yul\":36461:36465   */\n      dup2\n        /* \"#utility.yul\":36457:36477   */\n      sub\n        /* \"#utility.yul\":36453:36454   */\n      0x00\n        /* \"#utility.yul\":36442:36451   */\n      dup4\n        /* \"#utility.yul\":36438:36455   */\n      add\n        /* \"#utility.yul\":36431:36478   */\n      mstore\n        /* \"#utility.yul\":36495:36626   */\n      tag_912\n        /* \"#utility.yul\":36621:36625   */\n      dup2\n        /* \"#utility.yul\":36495:36626   */\n      tag_579\n      jump\t// in\n    tag_912:\n        /* \"#utility.yul\":36487:36626   */\n      swap1\n      pop\n        /* \"#utility.yul\":36214:36633   */\n      swap2\n      swap1\n      pop\n      jump\t// out\n        /* \"#utility.yul\":36639:36821   */\n    tag_580:\n        /* \"#utility.yul\":36779:36813   */\n      0x4f776e61626c653a2063616c6c6572206973206e6f7420746865206f776e6572\n        /* \"#utility.yul\":36775:36776   */\n      0x00\n        /* \"#utility.yul\":36767:36773   */\n      dup3\n        /* \"#utility.yul\":36763:36777   */\n      add\n        /* \"#utility.yul\":36756:36814   */\n      mstore\n        /* \"#utility.yul\":36639:36821   */\n      pop\n      jump\t// out\n        /* \"#utility.yul\":36827:37193   */\n    tag_581:\n        /* \"#utility.yul\":36969:36972   */\n      0x00\n        /* \"#utility.yul\":36990:37057   */\n      tag_915\n        /* \"#utility.yul\":37054:37056   */\n      0x20\n        /* \"#utility.yul\":37049:37052   */\n      dup4\n        /* \"#utility.yul\":36990:37057   */\n      tag_518\n      jump\t// in\n    tag_915:\n        /* \"#utility.yul\":36983:37057   */\n      swap2\n      pop\n        /* \"#utility.yul\":37066:37159   */\n      tag_916\n        /* \"#utility.yul\":37155:37158   */\n      dup3\n        /* \"#utility.yul\":37066:37159   */\n      tag_580\n      jump\t// in\n    tag_916:\n        /* \"#utility.yul\":37184:37186   */\n      0x20\n        /* \"#utility.yul\":37179:37182   */\n      dup3\n        /* \"#utility.yul\":37175:37187   */\n      add\n        /* \"#utility.yul\":37168:37187   */\n      swap1\n      pop\n        /* \"#utility.yul\":36827:37193   */\n      swap2\n      swap1\n      pop\n      jump\t// out\n        /* \"#utility.yul\":37199:37618   */\n    tag_400:\n        /* \"#utility.yul\":37365:37369   */\n      0x00\n        /* \"#utility.yul\":37403:37405   */\n      0x20\n        /* \"#utility.yul\":37392:37401   */\n      dup3\n        /* \"#utility.yul\":37388:37406   */\n      add\n        /* \"#utility.yul\":37380:37406   */\n      swap1\n      pop\n        /* \"#utility.yul\":37452:37461   */\n      dup2\n        /* \"#utility.yul\":37446:37450   */\n      dup2\n        /* \"#utility.yul\":37442:37462   */\n      sub\n        /* \"#utility.yul\":37438:37439   */\n      0x00\n        /* \"#utility.yul\":37427:37436   */\n      dup4\n        /* \"#utility.yul\":37423:37440   */\n      add\n        /* \"#utility.yul\":37416:37463   */\n      mstore\n        /* \"#utility.yul\":37480:37611   */\n      tag_918\n        /* \"#utility.yul\":37606:37610   */\n      dup2\n        /* \"#utility.yul\":37480:37611   */\n      tag_581\n      jump\t// in\n    tag_918:\n        /* \"#utility.yul\":37472:37611   */\n      swap1\n      pop\n        /* \"#utility.yul\":37199:37618   */\n      swap2\n      swap1\n      pop\n      jump\t// out\n        /* \"#utility.yul\":37624:37790   */\n    tag_582:\n        /* \"#utility.yul\":37764:37782   */\n      0x5061757361626c653a2070617573656400000000000000000000000000000000\n        /* \"#utility.yul\":37760:37761   */\n      0x00\n        /* \"#utility.yul\":37752:37758   */\n      dup3\n        /* \"#utility.yul\":37748:37762   */\n      add\n        /* \"#utility.yul\":37741:37783   */\n      mstore\n        /* \"#utility.yul\":37624:37790   */\n      pop\n      jump\t// out\n        /* \"#utility.yul\":37796:38162   */\n    tag_583:\n        /* \"#utility.yul\":37938:37941   */\n      0x00\n        /* \"#utility.yul\":37959:38026   */\n      tag_921\n        /* \"#utility.yul\":38023:38025   */\n      0x10\n        /* \"#utility.yul\":38018:38021   */\n      dup4\n        /* \"#utility.yul\":37959:38026   */\n      tag_518\n      jump\t// in\n    tag_921:\n        /* \"#utility.yul\":37952:38026   */\n      swap2\n      pop\n        /* \"#utility.yul\":38035:38128   */\n      tag_922\n        /* \"#utility.yul\":38124:38127   */\n      dup3\n        /* \"#utility.yul\":38035:38128   */\n      tag_582\n      jump\t// in\n    tag_922:\n        /* \"#utility.yul\":38153:38155   */\n      0x20\n        /* \"#utility.yul\":38148:38151   */\n      dup3\n        /* \"#utility.yul\":38144:38156   */\n      add\n        /* \"#utility.yul\":38137:38156   */\n      swap1\n      pop\n        /* \"#utility.yul\":37796:38162   */\n      swap2\n      swap1\n      pop\n      jump\t// out\n        /* \"#utility.yul\":38168:38587   */\n    tag_410:\n        /* \"#utility.yul\":38334:38338   */\n      0x00\n        /* \"#utility.yul\":38372:38374   */\n      0x20\n        /* \"#utility.yul\":38361:38370   */\n      dup3\n        /* \"#utility.yul\":38357:38375   */\n      add\n        /* \"#utility.yul\":38349:38375   */\n      swap1\n      pop\n        /* \"#utility.yul\":38421:38430   */\n      dup2\n        /* \"#utility.yul\":38415:38419   */\n      dup2\n        /* \"#utility.yul\":38411:38431   */\n      sub\n        /* \"#utility.yul\":38407:38408   */\n      0x00\n        /* \"#utility.yul\":38396:38405   */\n      dup4\n        /* \"#utility.yul\":38392:38409   */\n      add\n        /* \"#utility.yul\":38385:38432   */\n      mstore\n        /* \"#utility.yul\":38449:38580   */\n      tag_924\n        /* \"#utility.yul\":38575:38579   */\n      dup2\n        /* \"#utility.yul\":38449:38580   */\n      tag_583\n      jump\t// in\n    tag_924:\n        /* \"#utility.yul\":38441:38580   */\n      swap1\n      pop\n        /* \"#utility.yul\":38168:38587   */\n      swap2\n      swap1\n      pop\n      jump\t// out\n        /* \"#utility.yul\":38593:39586   */\n    tag_433:\n        /* \"#utility.yul\":38700:38706   */\n      0x00\n        /* \"#utility.yul\":38708:38714   */\n      dup1\n        /* \"#utility.yul\":38716:38722   */\n      0x00\n        /* \"#utility.yul\":38724:38730   */\n      dup1\n        /* \"#utility.yul\":38773:38776   */\n      0x80\n        /* \"#utility.yul\":38761:38770   */\n      dup6\n        /* \"#utility.yul\":38752:38759   */\n      dup8\n        /* \"#utility.yul\":38748:38771   */\n      sub\n        /* \"#utility.yul\":38744:38777   */\n      slt\n        /* \"#utility.yul\":38741:38861   */\n      iszero\n      tag_926\n      jumpi\n        /* \"#utility.yul\":38780:38859   */\n      tag_927\n      tag_501\n      jump\t// in\n    tag_927:\n        /* \"#utility.yul\":38741:38861   */\n    tag_926:\n        /* \"#utility.yul\":38900:38901   */\n      0x00\n        /* \"#utility.yul\":38925:38989   */\n      tag_928\n        /* \"#utility.yul\":38981:38988   */\n      dup8\n        /* \"#utility.yul\":38972:38978   */\n      dup3\n        /* \"#utility.yul\":38961:38970   */\n      dup9\n        /* \"#utility.yul\":38957:38979   */\n      add\n        /* \"#utility.yul\":38925:38989   */\n      tag_536\n      jump\t// in\n    tag_928:\n        /* \"#utility.yul\":38915:38989   */\n      swap5\n      pop\n        /* \"#utility.yul\":38871:38999   */\n      pop\n        /* \"#utility.yul\":39038:39040   */\n      0x20\n        /* \"#utility.yul\":39064:39128   */\n      tag_929\n        /* \"#utility.yul\":39120:39127   */\n      dup8\n        /* \"#utility.yul\":39111:39117   */\n      dup3\n        /* \"#utility.yul\":39100:39109   */\n      dup9\n        /* \"#utility.yul\":39096:39118   */\n      add\n        /* \"#utility.yul\":39064:39128   */\n      tag_536\n      jump\t// in\n    tag_929:\n        /* \"#utility.yul\":39054:39128   */\n      swap4\n      pop\n        /* \"#utility.yul\":39009:39138   */\n      pop\n        /* \"#utility.yul\":39198:39200   */\n      0x40\n        /* \"#utility.yul\":39187:39196   */\n      dup6\n        /* \"#utility.yul\":39183:39201   */\n      add\n        /* \"#utility.yul\":39177:39202   */\n      mload\n        /* \"#utility.yul\":39229:39247   */\n      0xffffffffffffffff\n        /* \"#utility.yul\":39221:39227   */\n      dup2\n        /* \"#utility.yul\":39218:39248   */\n      gt\n        /* \"#utility.yul\":39215:39332   */\n      iszero\n      tag_930\n      jumpi\n        /* \"#utility.yul\":39251:39330   */\n      tag_931\n      tag_502\n      jump\t// in\n    tag_931:\n        /* \"#utility.yul\":39215:39332   */\n    tag_930:\n        /* \"#utility.yul\":39356:39430   */\n      tag_932\n        /* \"#utility.yul\":39422:39429   */\n      dup8\n        /* \"#utility.yul\":39413:39419   */\n      dup3\n        /* \"#utility.yul\":39402:39411   */\n      dup9\n        /* \"#utility.yul\":39398:39420   */\n      add\n        /* \"#utility.yul\":39356:39430   */\n      tag_562\n      jump\t// in\n    tag_932:\n        /* \"#utility.yul\":39346:39430   */\n      swap3\n      pop\n        /* \"#utility.yul\":39148:39440   */\n      pop\n        /* \"#utility.yul\":39479:39481   */\n      0x60\n        /* \"#utility.yul\":39505:39569   */\n      tag_933\n        /* \"#utility.yul\":39561:39568   */\n      dup8\n        /* \"#utility.yul\":39552:39558   */\n      dup3\n        /* \"#utility.yul\":39541:39550   */\n      dup9\n        /* \"#utility.yul\":39537:39559   */\n      add\n        /* \"#utility.yul\":39505:39569   */\n      tag_536\n      jump\t// in\n    tag_933:\n        /* \"#utility.yul\":39495:39569   */\n      swap2\n      pop\n        /* \"#utility.yul\":39450:39579   */\n      pop\n        /* \"#utility.yul\":38593:39586   */\n      swap3\n      swap6\n      swap2\n      swap5\n      pop\n      swap3\n      pop\n      jump\t// out\n        /* \"#utility.yul\":39592:40438   */\n    tag_440:\n        /* \"#utility.yul\":39837:39841   */\n      0x00\n        /* \"#utility.yul\":39875:39878   */\n      0xa0\n        /* \"#utility.yul\":39864:39873   */\n      dup3\n        /* \"#utility.yul\":39860:39879   */\n      add\n        /* \"#utility.yul\":39852:39879   */\n      swap1\n      pop\n        /* \"#utility.yul\":39889:39960   */\n      tag_935\n        /* \"#utility.yul\":39957:39958   */\n      0x00\n        /* \"#utility.yul\":39946:39955   */\n      dup4\n        /* \"#utility.yul\":39942:39959   */\n      add\n        /* \"#utility.yul\":39933:39939   */\n      dup9\n        /* \"#utility.yul\":39889:39960   */\n      tag_509\n      jump\t// in\n    tag_935:\n        /* \"#utility.yul\":39970:40042   */\n      tag_936\n        /* \"#utility.yul\":40038:40040   */\n      0x20\n        /* \"#utility.yul\":40027:40036   */\n      dup4\n        /* \"#utility.yul\":40023:40041   */\n      add\n        /* \"#utility.yul\":40014:40020   */\n      dup8\n        /* \"#utility.yul\":39970:40042   */\n      tag_509\n      jump\t// in\n    tag_936:\n        /* \"#utility.yul\":40089:40098   */\n      dup2\n        /* \"#utility.yul\":40083:40087   */\n      dup2\n        /* \"#utility.yul\":40079:40099   */\n      sub\n        /* \"#utility.yul\":40074:40076   */\n      0x40\n        /* \"#utility.yul\":40063:40072   */\n      dup4\n        /* \"#utility.yul\":40059:40077   */\n      add\n        /* \"#utility.yul\":40052:40100   */\n      mstore\n        /* \"#utility.yul\":40117:40195   */\n      tag_937\n        /* \"#utility.yul\":40190:40194   */\n      dup2\n        /* \"#utility.yul\":40181:40187   */\n      dup7\n        /* \"#utility.yul\":40117:40195   */\n      tag_521\n      jump\t// in\n    tag_937:\n        /* \"#utility.yul\":40109:40195   */\n      swap1\n      pop\n        /* \"#utility.yul\":40205:40277   */\n      tag_938\n        /* \"#utility.yul\":40273:40275   */\n      0x60\n        /* \"#utility.yul\":40262:40271   */\n      dup4\n        /* \"#utility.yul\":40258:40276   */\n      add\n        /* \"#utility.yul\":40249:40255   */\n      dup6\n        /* \"#utility.yul\":40205:40277   */\n      tag_509\n      jump\t// in\n    tag_938:\n        /* \"#utility.yul\":40325:40334   */\n      dup2\n        /* \"#utility.yul\":40319:40323   */\n      dup2\n        /* \"#utility.yul\":40315:40335   */\n      sub\n        /* \"#utility.yul\":40309:40312   */\n      0x80\n        /* \"#utility.yul\":40298:40307   */\n      dup4\n        /* \"#utility.yul\":40294:40313   */\n      add\n        /* \"#utility.yul\":40287:40336   */\n      mstore\n        /* \"#utility.yul\":40353:40431   */\n      tag_939\n        /* \"#utility.yul\":40426:40430   */\n      dup2\n        /* \"#utility.yul\":40417:40423   */\n      dup5\n        /* \"#utility.yul\":40353:40431   */\n      tag_521\n      jump\t// in\n    tag_939:\n        /* \"#utility.yul\":40345:40431   */\n      swap1\n      pop\n        /* \"#utility.yul\":39592:40438   */\n      swap7\n      swap6\n      pop\n      pop\n      pop\n      pop\n      pop\n      pop\n      jump\t// out\n        /* \"#utility.yul\":40444:40886   */\n    tag_449:\n        /* \"#utility.yul\":40593:40597   */\n      0x00\n        /* \"#utility.yul\":40631:40633   */\n      0x60\n        /* \"#utility.yul\":40620:40629   */\n      dup3\n        /* \"#utility.yul\":40616:40634   */\n      add\n        /* \"#utility.yul\":40608:40634   */\n      swap1\n      pop\n        /* \"#utility.yul\":40644:40715   */\n      tag_941\n        /* \"#utility.yul\":40712:40713   */\n      0x00\n        /* \"#utility.yul\":40701:40710   */\n      dup4\n        /* \"#utility.yul\":40697:40714   */\n      add\n        /* \"#utility.yul\":40688:40694   */\n      dup7\n        /* \"#utility.yul\":40644:40715   */\n      tag_507\n      jump\t// in\n    tag_941:\n        /* \"#utility.yul\":40725:40797   */\n      tag_942\n        /* \"#utility.yul\":40793:40795   */\n      0x20\n        /* \"#utility.yul\":40782:40791   */\n      dup4\n        /* \"#utility.yul\":40778:40796   */\n      add\n        /* \"#utility.yul\":40769:40775   */\n      dup6\n        /* \"#utility.yul\":40725:40797   */\n      tag_507\n      jump\t// in\n    tag_942:\n        /* \"#utility.yul\":40807:40879   */\n      tag_943\n        /* \"#utility.yul\":40875:40877   */\n      0x40\n        /* \"#utility.yul\":40864:40873   */\n      dup4\n        /* \"#utility.yul\":40860:40878   */\n      add\n        /* \"#utility.yul\":40851:40857   */\n      dup5\n        /* \"#utility.yul\":40807:40879   */\n      tag_509\n      jump\t// in\n    tag_943:\n        /* \"#utility.yul\":40444:40886   */\n      swap5\n      swap4\n      pop\n      pop\n      pop\n      pop\n      jump\t// out\n        /* \"#utility.yul\":40892:41065   */\n    tag_584:\n        /* \"#utility.yul\":41032:41057   */\n      0x4e6f20746f6b656e7320746f206265206275726e656421000000000000000000\n        /* \"#utility.yul\":41028:41029   */\n      0x00\n        /* \"#utility.yul\":41020:41026   */\n      dup3\n        /* \"#utility.yul\":41016:41030   */\n      add\n        /* \"#utility.yul\":41009:41058   */\n      mstore\n        /* \"#utility.yul\":40892:41065   */\n      pop\n      jump\t// out\n        /* \"#utility.yul\":41071:41437   */\n    tag_585:\n        /* \"#utility.yul\":41213:41216   */\n      0x00\n        /* \"#utility.yul\":41234:41301   */\n      tag_946\n        /* \"#utility.yul\":41298:41300   */\n      0x17\n        /* \"#utility.yul\":41293:41296   */\n      dup4\n        /* \"#utility.yul\":41234:41301   */\n      tag_518\n      jump\t// in\n    tag_946:\n        /* \"#utility.yul\":41227:41301   */\n      swap2\n      pop\n        /* \"#utility.yul\":41310:41403   */\n      tag_947\n        /* \"#utility.yul\":41399:41402   */\n      dup3\n        /* \"#utility.yul\":41310:41403   */\n      tag_584\n      jump\t// in\n    tag_947:\n        /* \"#utility.yul\":41428:41430   */\n      0x20\n        /* \"#utility.yul\":41423:41426   */\n      dup3\n        /* \"#utility.yul\":41419:41431   */\n      add\n        /* \"#utility.yul\":41412:41431   */\n      swap1\n      pop\n        /* \"#utility.yul\":41071:41437   */\n      swap2\n      swap1\n      pop\n      jump\t// out\n        /* \"#utility.yul\":41443:41862   */\n    tag_454:\n        /* \"#utility.yul\":41609:41613   */\n      0x00\n        /* \"#utility.yul\":41647:41649   */\n      0x20\n        /* \"#utility.yul\":41636:41645   */\n      dup3\n        /* \"#utility.yul\":41632:41650   */\n      add\n        /* \"#utility.yul\":41624:41650   */\n      swap1\n      pop\n        /* \"#utility.yul\":41696:41705   */\n      dup2\n        /* \"#utility.yul\":41690:41694   */\n      dup2\n        /* \"#utility.yul\":41686:41706   */\n      sub\n        /* \"#utility.yul\":41682:41683   */\n      0x00\n        /* \"#utility.yul\":41671:41680   */\n      dup4\n        /* \"#utility.yul\":41667:41684   */\n      add\n        /* \"#utility.yul\":41660:41707   */\n      mstore\n        /* \"#utility.yul\":41724:41855   */\n      tag_949\n        /* \"#utility.yul\":41850:41854   */\n      dup2\n        /* \"#utility.yul\":41724:41855   */\n      tag_585\n      jump\t// in\n    tag_949:\n        /* \"#utility.yul\":41716:41855   */\n      swap1\n      pop\n        /* \"#utility.yul\":41443:41862   */\n      swap2\n      swap1\n      pop\n      jump\t// out\n        /* \"#utility.yul\":41868:42094   */\n    tag_586:\n        /* \"#utility.yul\":42008:42042   */\n      0x7472616e73616374696f6e207265766572746564206275726e20756e73756363\n        /* \"#utility.yul\":42004:42005   */\n      0x00\n        /* \"#utility.yul\":41996:42002   */\n      dup3\n        /* \"#utility.yul\":41992:42006   */\n      add\n        /* \"#utility.yul\":41985:42043   */\n      mstore\n        /* \"#utility.yul\":42077:42086   */\n      0x657366756c6c2100000000000000000000000000000000000000000000000000\n        /* \"#utility.yul\":42072:42074   */\n      0x20\n        /* \"#utility.yul\":42064:42070   */\n      dup3\n        /* \"#utility.yul\":42060:42075   */\n      add\n        /* \"#utility.yul\":42053:42087   */\n      mstore\n        /* \"#utility.yul\":41868:42094   */\n      pop\n      jump\t// out\n        /* \"#utility.yul\":42100:42466   */\n    tag_587:\n        /* \"#utility.yul\":42242:42245   */\n      0x00\n        /* \"#utility.yul\":42263:42330   */\n      tag_952\n        /* \"#utility.yul\":42327:42329   */\n      0x27\n        /* \"#utility.yul\":42322:42325   */\n      dup4\n        /* \"#utility.yul\":42263:42330   */\n      tag_518\n      jump\t// in\n    tag_952:\n        /* \"#utility.yul\":42256:42330   */\n      swap2\n      pop\n        /* \"#utility.yul\":42339:42432   */\n      tag_953\n        /* \"#utility.yul\":42428:42431   */\n      dup3\n        /* \"#utility.yul\":42339:42432   */\n      tag_586\n      jump\t// in\n    tag_953:\n        /* \"#utility.yul\":42457:42459   */\n      0x40\n        /* \"#utility.yul\":42452:42455   */\n      dup3\n        /* \"#utility.yul\":42448:42460   */\n      add\n        /* \"#utility.yul\":42441:42460   */\n      swap1\n      pop\n        /* \"#utility.yul\":42100:42466   */\n      swap2\n      swap1\n      pop\n      jump\t// out\n        /* \"#utility.yul\":42472:42891   */\n    tag_464:\n        /* \"#utility.yul\":42638:42642   */\n      0x00\n        /* \"#utility.yul\":42676:42678   */\n      0x20\n        /* \"#utility.yul\":42665:42674   */\n      dup3\n        /* \"#utility.yul\":42661:42679   */\n      add\n        /* \"#utility.yul\":42653:42679   */\n      swap1\n      pop\n        /* \"#utility.yul\":42725:42734   */\n      dup2\n        /* \"#utility.yul\":42719:42723   */\n      dup2\n        /* \"#utility.yul\":42715:42735   */\n      sub\n        /* \"#utility.yul\":42711:42712   */\n      0x00\n        /* \"#utility.yul\":42700:42709   */\n      dup4\n        /* \"#utility.yul\":42696:42713   */\n      add\n        /* \"#utility.yul\":42689:42736   */\n      mstore\n        /* \"#utility.yul\":42753:42884   */\n      tag_955\n        /* \"#utility.yul\":42879:42883   */\n      dup2\n        /* \"#utility.yul\":42753:42884   */\n      tag_587\n      jump\t// in\n    tag_955:\n        /* \"#utility.yul\":42745:42884   */\n      swap1\n      pop\n        /* \"#utility.yul\":42472:42891   */\n      swap2\n      swap1\n      pop\n      jump\t// out\n        /* \"#utility.yul\":42897:43126   */\n    tag_588:\n        /* \"#utility.yul\":43037:43071   */\n      0x5361666545524332303a204552433230206f7065726174696f6e20646964206e\n        /* \"#utility.yul\":43033:43034   */\n      0x00\n        /* \"#utility.yul\":43025:43031   */\n      dup3\n        /* \"#utility.yul\":43021:43035   */\n      add\n        /* \"#utility.yul\":43014:43072   */\n      mstore\n        /* \"#utility.yul\":43106:43118   */\n      0x6f74207375636365656400000000000000000000000000000000000000000000\n        /* \"#utility.yul\":43101:43103   */\n      0x20\n        /* \"#utility.yul\":43093:43099   */\n      dup3\n        /* \"#utility.yul\":43089:43104   */\n      add\n        /* \"#utility.yul\":43082:43119   */\n      mstore\n        /* \"#utility.yul\":42897:43126   */\n      pop\n      jump\t// out\n        /* \"#utility.yul\":43132:43498   */\n    tag_589:\n        /* \"#utility.yul\":43274:43277   */\n      0x00\n        /* \"#utility.yul\":43295:43362   */\n      tag_958\n        /* \"#utility.yul\":43359:43361   */\n      0x2a\n        /* \"#utility.yul\":43354:43357   */\n      dup4\n        /* \"#utility.yul\":43295:43362   */\n      tag_518\n      jump\t// in\n    tag_958:\n        /* \"#utility.yul\":43288:43362   */\n      swap2\n      pop\n        /* \"#utility.yul\":43371:43464   */\n      tag_959\n        /* \"#utility.yul\":43460:43463   */\n      dup3\n        /* \"#utility.yul\":43371:43464   */\n      tag_588\n      jump\t// in\n    tag_959:\n        /* \"#utility.yul\":43489:43491   */\n      0x40\n        /* \"#utility.yul\":43484:43487   */\n      dup3\n        /* \"#utility.yul\":43480:43492   */\n      add\n        /* \"#utility.yul\":43473:43492   */\n      swap1\n      pop\n        /* \"#utility.yul\":43132:43498   */\n      swap2\n      swap1\n      pop\n      jump\t// out\n        /* \"#utility.yul\":43504:43923   */\n    tag_473:\n        /* \"#utility.yul\":43670:43674   */\n      0x00\n        /* \"#utility.yul\":43708:43710   */\n      0x20\n        /* \"#utility.yul\":43697:43706   */\n      dup3\n        /* \"#utility.yul\":43693:43711   */\n      add\n        /* \"#utility.yul\":43685:43711   */\n      swap1\n      pop\n        /* \"#utility.yul\":43757:43766   */\n      dup2\n        /* \"#utility.yul\":43751:43755   */\n      dup2\n        /* \"#utility.yul\":43747:43767   */\n      sub\n        /* \"#utility.yul\":43743:43744   */\n      0x00\n        /* \"#utility.yul\":43732:43741   */\n      dup4\n        /* \"#utility.yul\":43728:43745   */\n      add\n        /* \"#utility.yul\":43721:43768   */\n      mstore\n        /* \"#utility.yul\":43785:43916   */\n      tag_961\n        /* \"#utility.yul\":43911:43915   */\n      dup2\n        /* \"#utility.yul\":43785:43916   */\n      tag_589\n      jump\t// in\n    tag_961:\n        /* \"#utility.yul\":43777:43916   */\n      swap1\n      pop\n        /* \"#utility.yul\":43504:43923   */\n      swap2\n      swap1\n      pop\n      jump\t// out\n        /* \"#utility.yul\":43929:44154   */\n    tag_590:\n        /* \"#utility.yul\":44069:44103   */\n      0x416464726573733a20696e73756666696369656e742062616c616e636520666f\n        /* \"#utility.yul\":44065:44066   */\n      0x00\n        /* \"#utility.yul\":44057:44063   */\n      dup3\n        /* \"#utility.yul\":44053:44067   */\n      add\n        /* \"#utility.yul\":44046:44104   */\n      mstore\n        /* \"#utility.yul\":44138:44146   */\n      0x722063616c6c0000000000000000000000000000000000000000000000000000\n        /* \"#utility.yul\":44133:44135   */\n      0x20\n        /* \"#utility.yul\":44125:44131   */\n      dup3\n        /* \"#utility.yul\":44121:44136   */\n      add\n        /* \"#utility.yul\":44114:44147   */\n      mstore\n        /* \"#utility.yul\":43929:44154   */\n      pop\n      jump\t// out\n        /* \"#utility.yul\":44160:44526   */\n    tag_591:\n        /* \"#utility.yul\":44302:44305   */\n      0x00\n        /* \"#utility.yul\":44323:44390   */\n      tag_964\n        /* \"#utility.yul\":44387:44389   */\n      0x26\n        /* \"#utility.yul\":44382:44385   */\n      dup4\n        /* \"#utility.yul\":44323:44390   */\n      tag_518\n      jump\t// in\n    tag_964:\n        /* \"#utility.yul\":44316:44390   */\n      swap2\n      pop\n        /* \"#utility.yul\":44399:44492   */\n      tag_965\n        /* \"#utility.yul\":44488:44491   */\n      dup3\n        /* \"#utility.yul\":44399:44492   */\n      tag_590\n      jump\t// in\n    tag_965:\n        /* \"#utility.yul\":44517:44519   */\n      0x40\n        /* \"#utility.yul\":44512:44515   */\n      dup3\n        /* \"#utility.yul\":44508:44520   */\n      add\n        /* \"#utility.yul\":44501:44520   */\n      swap1\n      pop\n        /* \"#utility.yul\":44160:44526   */\n      swap2\n      swap1\n      pop\n      jump\t// out\n        /* \"#utility.yul\":44532:44951   */\n    tag_480:\n        /* \"#utility.yul\":44698:44702   */\n      0x00\n        /* \"#utility.yul\":44736:44738   */\n      0x20\n        /* \"#utility.yul\":44725:44734   */\n      dup3\n        /* \"#utility.yul\":44721:44739   */\n      add\n        /* \"#utility.yul\":44713:44739   */\n      swap1\n      pop\n        /* \"#utility.yul\":44785:44794   */\n      dup2\n        /* \"#utility.yul\":44779:44783   */\n      dup2\n        /* \"#utility.yul\":44775:44795   */\n      sub\n        /* \"#utility.yul\":44771:44772   */\n      0x00\n        /* \"#utility.yul\":44760:44769   */\n      dup4\n        /* \"#utility.yul\":44756:44773   */\n      add\n        /* \"#utility.yul\":44749:44796   */\n      mstore\n        /* \"#utility.yul\":44813:44944   */\n      tag_967\n        /* \"#utility.yul\":44939:44943   */\n      dup2\n        /* \"#utility.yul\":44813:44944   */\n      tag_591\n      jump\t// in\n    tag_967:\n        /* \"#utility.yul\":44805:44944   */\n      swap1\n      pop\n        /* \"#utility.yul\":44532:44951   */\n      swap2\n      swap1\n      pop\n      jump\t// out\n        /* \"#utility.yul\":44957:45136   */\n    tag_592:\n        /* \"#utility.yul\":45097:45128   */\n      0x416464726573733a2063616c6c20746f206e6f6e2d636f6e7472616374000000\n        /* \"#utility.yul\":45093:45094   */\n      0x00\n        /* \"#utility.yul\":45085:45091   */\n      dup3\n        /* \"#utility.yul\":45081:45095   */\n      add\n        /* \"#utility.yul\":45074:45129   */\n      mstore\n        /* \"#utility.yul\":44957:45136   */\n      pop\n      jump\t// out\n        /* \"#utility.yul\":45142:45508   */\n    tag_593:\n        /* \"#utility.yul\":45284:45287   */\n      0x00\n        /* \"#utility.yul\":45305:45372   */\n      tag_970\n        /* \"#utility.yul\":45369:45371   */\n      0x1d\n        /* \"#utility.yul\":45364:45367   */\n      dup4\n        /* \"#utility.yul\":45305:45372   */\n      tag_518\n      jump\t// in\n    tag_970:\n        /* \"#utility.yul\":45298:45372   */\n      swap2\n      pop\n        /* \"#utility.yul\":45381:45474   */\n      tag_971\n        /* \"#utility.yul\":45470:45473   */\n      dup3\n        /* \"#utility.yul\":45381:45474   */\n      tag_592\n      jump\t// in\n    tag_971:\n        /* \"#utility.yul\":45499:45501   */\n      0x20\n        /* \"#utility.yul\":45494:45497   */\n      dup3\n        /* \"#utility.yul\":45490:45502   */\n      add\n        /* \"#utility.yul\":45483:45502   */\n      swap1\n      pop\n        /* \"#utility.yul\":45142:45508   */\n      swap2\n      swap1\n      pop\n      jump\t// out\n        /* \"#utility.yul\":45514:45933   */\n    tag_485:\n        /* \"#utility.yul\":45680:45684   */\n      0x00\n        /* \"#utility.yul\":45718:45720   */\n      0x20\n        /* \"#utility.yul\":45707:45716   */\n      dup3\n        /* \"#utility.yul\":45703:45721   */\n      add\n        /* \"#utility.yul\":45695:45721   */\n      swap1\n      pop\n        /* \"#utility.yul\":45767:45776   */\n      dup2\n        /* \"#utility.yul\":45761:45765   */\n      dup2\n        /* \"#utility.yul\":45757:45777   */\n      sub\n        /* \"#utility.yul\":45753:45754   */\n      0x00\n        /* \"#utility.yul\":45742:45751   */\n      dup4\n        /* \"#utility.yul\":45738:45755   */\n      add\n        /* \"#utility.yul\":45731:45778   */\n      mstore\n        /* \"#utility.yul\":45795:45926   */\n      tag_973\n        /* \"#utility.yul\":45921:45925   */\n      dup2\n        /* \"#utility.yul\":45795:45926   */\n      tag_593\n      jump\t// in\n    tag_973:\n        /* \"#utility.yul\":45787:45926   */\n      swap1\n      pop\n        /* \"#utility.yul\":45514:45933   */\n      swap2\n      swap1\n      pop\n      jump\t// out\n        /* \"#utility.yul\":45939:46037   */\n    tag_594:\n        /* \"#utility.yul\":45990:45996   */\n      0x00\n        /* \"#utility.yul\":46024:46029   */\n      dup2\n        /* \"#utility.yul\":46018:46030   */\n      mload\n        /* \"#utility.yul\":46008:46030   */\n      swap1\n      pop\n        /* \"#utility.yul\":45939:46037   */\n      swap2\n      swap1\n      pop\n      jump\t// out\n        /* \"#utility.yul\":46043:46190   */\n    tag_595:\n        /* \"#utility.yul\":46144:46155   */\n      0x00\n        /* \"#utility.yul\":46181:46184   */\n      dup2\n        /* \"#utility.yul\":46166:46184   */\n      swap1\n      pop\n        /* \"#utility.yul\":46043:46190   */\n      swap3\n      swap2\n      pop\n      pop\n      jump\t// out\n        /* \"#utility.yul\":46196:46582   */\n    tag_596:\n        /* \"#utility.yul\":46300:46303   */\n      0x00\n        /* \"#utility.yul\":46328:46366   */\n      tag_977\n        /* \"#utility.yul\":46360:46365   */\n      dup3\n        /* \"#utility.yul\":46328:46366   */\n      tag_594\n      jump\t// in\n    tag_977:\n        /* \"#utility.yul\":46382:46470   */\n      tag_978\n        /* \"#utility.yul\":46463:46469   */\n      dup2\n        /* \"#utility.yul\":46458:46461   */\n      dup6\n        /* \"#utility.yul\":46382:46470   */\n      tag_595\n      jump\t// in\n    tag_978:\n        /* \"#utility.yul\":46375:46470   */\n      swap4\n      pop\n        /* \"#utility.yul\":46479:46544   */\n      tag_979\n        /* \"#utility.yul\":46537:46543   */\n      dup2\n        /* \"#utility.yul\":46532:46535   */\n      dup6\n        /* \"#utility.yul\":46525:46529   */\n      0x20\n        /* \"#utility.yul\":46518:46523   */\n      dup7\n        /* \"#utility.yul\":46514:46530   */\n      add\n        /* \"#utility.yul\":46479:46544   */\n      tag_519\n      jump\t// in\n    tag_979:\n        /* \"#utility.yul\":46569:46575   */\n      dup1\n        /* \"#utility.yul\":46564:46567   */\n      dup5\n        /* \"#utility.yul\":46560:46576   */\n      add\n        /* \"#utility.yul\":46553:46576   */\n      swap2\n      pop\n        /* \"#utility.yul\":46304:46582   */\n      pop\n        /* \"#utility.yul\":46196:46582   */\n      swap3\n      swap2\n      pop\n      pop\n      jump\t// out\n        /* \"#utility.yul\":46588:46859   */\n    tag_487:\n        /* \"#utility.yul\":46718:46721   */\n      0x00\n        /* \"#utility.yul\":46740:46833   */\n      tag_981\n        /* \"#utility.yul\":46829:46832   */\n      dup3\n        /* \"#utility.yul\":46820:46826   */\n      dup5\n        /* \"#utility.yul\":46740:46833   */\n      tag_596\n      jump\t// in\n    tag_981:\n        /* \"#utility.yul\":46733:46833   */\n      swap2\n      pop\n        /* \"#utility.yul\":46850:46853   */\n      dup2\n        /* \"#utility.yul\":46843:46853   */\n      swap1\n      pop\n        /* \"#utility.yul\":46588:46859   */\n      swap3\n      swap2\n      pop\n      pop\n      jump\t// out\n\n    auxdata: 0xa264697066735822122042778ba96fa6f78d633b278b17474efd564cc2a7fabdd5f4df2fefb4de789b2764736f6c63430008170033\n}\n",
				"bytecode": {
					"linkReferences": {},
					"object": "60c060405260018060146101000a81548160ff02191690831515021790555060006002556000600355600060045560026005553480156200003f57600080fd5b506040516200480038038062004800833981810160405281019062000065919062000280565b60008060006101000a81548160ff0219169083151502179055506200009f620000936200014960201b60201c565b6200015160201b60201c565b600073ffffffffffffffffffffffffffffffffffffffff168173ffffffffffffffffffffffffffffffffffffffff1603620000d957600080fd5b8073ffffffffffffffffffffffffffffffffffffffff1660808173ffffffffffffffffffffffffffffffffffffffff16815250508173ffffffffffffffffffffffffffffffffffffffff1660a08173ffffffffffffffffffffffffffffffffffffffff16815250505050620002c7565b600033905090565b60008060019054906101000a900473ffffffffffffffffffffffffffffffffffffffff16905081600060016101000a81548173ffffffffffffffffffffffffffffffffffffffff021916908373ffffffffffffffffffffffffffffffffffffffff1602179055508173ffffffffffffffffffffffffffffffffffffffff168173ffffffffffffffffffffffffffffffffffffffff167f8be0079c531659141344cd1fd0a4f28419497f9722a3daafe3b4186f6b6457e060405160405180910390a35050565b600080fd5b600073ffffffffffffffffffffffffffffffffffffffff82169050919050565b600062000248826200021b565b9050919050565b6200025a816200023b565b81146200026657600080fd5b50565b6000815190506200027a816200024f565b92915050565b600080604083850312156200029a576200029962000216565b5b6000620002aa8582860162000269565b9250506020620002bd8582860162000269565b9150509250929050565b60805160a0516144e26200031e60003960008181610e5801528181611380015281816119170152818161193801528181611ef70152818161210201526129560152600081816107cf015261083a01526144e26000f3fe608060405234801561001057600080fd5b50600436106101a95760003560e01c80638da5cb5b116100f9578063abb1dc4411610097578063e6367ebe11610071578063e6367ebe1461042a578063e808876614610449578063ed969c8414610453578063f2fde38b14610483576101a9565b8063abb1dc44146103bf578063b0b5e39e146103de578063b99152d0146103fa576101a9565b80639405de64116100d35780639405de641461034957806396eebff014610367578063a684ab5c14610385578063a8d2021a146103a3576101a9565b80638da5cb5b146102f15780638dd25b071461030f5780638eb89a611461032b576101a9565b80632af0e251116101665780636a9d43dd116101405780636a9d43dd14610269578063715018a614610299578063722713f7146102a35780637754723e146102c1576101a9565b80632af0e2511461022357806351b42b00146102415780635c975abb1461024b576101a9565b8063046f7da2146101ae57806307da68f5146101b85780630a6cb062146101c25780630ba2f1d8146101de5780630f0ccf61146101fa5780630f15f4c014610219575b600080fd5b6101b661049f565b005b6101c06104b9565b005b6101dc60048036038101906101d79190612d34565b6104d3565b005b6101f860048036038101906101f39190612d34565b610558565b005b610202610739565b604051610210929190612d70565b60405180910390f35b610221610819565b005b61022b6109f3565b6040516102389190612db2565b60405180910390f35b610249610b93565b005b610253610d4e565b6040516102609190612de8565b60405180910390f35b610283600480360381019061027e9190612e2f565b610d64565b6040516102909190612de8565b60405180910390f35b6102a1610e40565b005b6102ab610e54565b6040516102b89190612db2565b60405180910390f35b6102db60048036038101906102d69190612e82565b610ef5565b6040516102e89190612db2565b60405180910390f35b6102f9610f93565b6040516103069190612ed5565b60405180910390f35b61032960048036038101906103249190612ef0565b610fbc565b005b6103336110d7565b6040516103409190612db2565b60405180910390f35b610351611277565b60405161035e9190612db2565b60405180910390f35b61036f61141f565b60405161037c9190612db2565b60405180910390f35b61038d611429565b60405161039a9190612db2565b60405180910390f35b6103bd60048036038101906103b89190612f53565b6115c9565b005b6103c761177a565b6040516103d5929190613023565b60405180910390f35b6103f860048036038101906103f39190612d34565b6119d2565b005b610414600480360381019061040f9190612d34565b611a57565b6040516104219190612db2565b60405180910390f35b610432611ae2565b604051610440929190613053565b60405180910390f35b610451611b62565b005b61046d60048036038101906104689190612ef0565b611d06565b60405161047a9190612de8565b60405180910390f35b61049d60048036038101906104989190612d34565b612160565b005b6104a76121e3565b6104af61222c565b6104b76122aa565b565b6104c161230c565b6104c961222c565b6104d1612356565b565b6104db61222c565b600073ffffffffffffffffffffffffffffffffffffffff168173ffffffffffffffffffffffffffffffffffffffff160361051457600080fd5b80600660006101000a81548173ffffffffffffffffffffffffffffffffffffffff021916908373ffffffffffffffffffffffffffffffffffffffff16021790555050565b600073ffffffffffffffffffffffffffffffffffffffff16600160009054906101000a900473ffffffffffffffffffffffffffffffffffffffff1673ffffffffffffffffffffffffffffffffffffffff16036105e9576040517f08c379a00000000000000000000000000000000000000000000000000000000081526004016105e0906130cf565b60405180910390fd5b600160009054906101000a900473ffffffffffffffffffffffffffffffffffffffff1673ffffffffffffffffffffffffffffffffffffffff163373ffffffffffffffffffffffffffffffffffffffff1614610679576040517f08c379a00000000000000000000000000000000000000000000000000000000081526004016106709061313b565b60405180910390fd5b600073ffffffffffffffffffffffffffffffffffffffff168173ffffffffffffffffffffffffffffffffffffffff16036106b257600080fd5b80600160006101000a81548173ffffffffffffffffffffffffffffffffffffffff021916908373ffffffffffffffffffffffffffffffffffffffff1602179055508073ffffffffffffffffffffffffffffffffffffffff167f8bbfeb6e784147166691d407a592a09379bbbd56888a96c54793bce54bb5752360405160405180910390a250565b600080600073ffffffffffffffffffffffffffffffffffffffff16600160009054906101000a900473ffffffffffffffffffffffffffffffffffffffff1673ffffffffffffffffffffffffffffffffffffffff16036107cd576040517f08c379a00000000000000000000000000000000000000000000000000000000081526004016107c4906130cf565b60405180910390fd5b7f0000000000000000000000000000000000000000000000000000000000000000600160009054906101000a900473ffffffffffffffffffffffffffffffffffffffff16915091509091565b61082161230c565b3373ffffffffffffffffffffffffffffffffffffffff167f000000000000000000000000000000000000000000000000000000000000000073ffffffffffffffffffffffffffffffffffffffff16146108af576040517f08c379a00000000000000000000000000000000000000000000000000000000081526004016108a6906131a7565b60405180910390fd5b600073ffffffffffffffffffffffffffffffffffffffff16600160009054906101000a900473ffffffffffffffffffffffffffffffffffffffff1673ffffffffffffffffffffffffffffffffffffffff1614610940576040517f08c379a000000000000000000000000000000000000000000000000000000000815260040161093790613213565b60405180910390fd5b33600160006101000a81548173ffffffffffffffffffffffffffffffffffffffff021916908373ffffffffffffffffffffffffffffffffffffffff160217905550600160009054906101000a900473ffffffffffffffffffffffffffffffffffffffff1673ffffffffffffffffffffffffffffffffffffffff167ffbd0a3f6e9a0dd5f834515748047e83de8064477489a0a0d6b59c64bbecc992a426040516109e99190612db2565b60405180910390a2565b60008073ffffffffffffffffffffffffffffffffffffffff16600160009054906101000a900473ffffffffffffffffffffffffffffffffffffffff1673ffffffffffffffffffffffffffffffffffffffff1603610a85576040517f08c379a0000000000000000000000000000000000000000000000000000000008152600401610a7c906130cf565b60405180910390fd5b600073ffffffffffffffffffffffffffffffffffffffff163373ffffffffffffffffffffffffffffffffffffffff1603610abe57600080fd5b600160009054906101000a900473ffffffffffffffffffffffffffffffffffffffff1673ffffffffffffffffffffffffffffffffffffffff163373ffffffffffffffffffffffffffffffffffffffff161480610b4c5750610b1d610f93565b73ffffffffffffffffffffffffffffffffffffffff163373ffffffffffffffffffffffffffffffffffffffff16145b610b8b576040517f08c379a0000000000000000000000000000000000000000000000000000000008152600401610b82906132a5565b60405180910390fd5b600254905090565b600073ffffffffffffffffffffffffffffffffffffffff16600160009054906101000a900473ffffffffffffffffffffffffffffffffffffffff1673ffffffffffffffffffffffffffffffffffffffff1603610c24576040517f08c379a0000000000000000000000000000000000000000000000000000000008152600401610c1b906130cf565b60405180910390fd5b600160009054906101000a900473ffffffffffffffffffffffffffffffffffffffff1673ffffffffffffffffffffffffffffffffffffffff163373ffffffffffffffffffffffffffffffffffffffff1614610cb4576040517f08c379a0000000000000000000000000000000000000000000000000000000008152600401610cab9061313b565b60405180910390fd5b610cbc61230c565b6000600160006101000a81548173ffffffffffffffffffffffffffffffffffffffff021916908373ffffffffffffffffffffffffffffffffffffffff1602179055503373ffffffffffffffffffffffffffffffffffffffff167f13b865880a841dc469b629159fa1e730fee99568b0decc6737fd688b3624638142604051610d449190612db2565b60405180910390a2565b60008060009054906101000a900460ff16905090565b6000610d6e61222c565b81610d7885611a57565b1015610db9576040517f08c379a0000000000000000000000000000000000000000000000000000000008152600401610db090613311565b60405180910390fd5b8373ffffffffffffffffffffffffffffffffffffffff1663a9059cbb84846040518363ffffffff1660e01b8152600401610df4929190613331565b6020604051808303816000875af1158015610e13573d6000803e3d6000fd5b505050506040513d601f19601f82011682018060405250810190610e379190613386565b90509392505050565b610e4861222c565b610e5260006123b8565b565b60007f000000000000000000000000000000000000000000000000000000000000000073ffffffffffffffffffffffffffffffffffffffff166370a08231306040518263ffffffff1660e01b8152600401610eaf9190612ed5565b602060405180830381865afa158015610ecc573d6000803e3d6000fd5b505050506040513d601f19601f82011682018060405250810190610ef091906133c8565b905090565b6000610eff61222c565b600083118015610f0f5750600084115b8015610f1b5750600082115b610f5a576040517f08c379a0000000000000000000000000000000000000000000000000000000008152600401610f5190613467565b60405180910390fd5b6005548383600a610f6b91906135e9565b86610f769190613634565b610f8091906136a5565b610f8a9190613634565b90509392505050565b60008060019054906101000a900473ffffffffffffffffffffffffffffffffffffffff16905090565b610fc461230c565b610fcc61222c565b6000811161100f576040517f08c379a000000000000000000000000000000000000000000000000000000000815260040161100690613722565b60405180910390fd5b600a8110611052576040517f08c379a0000000000000000000000000000000000000000000000000000000008152600401611049906137b4565b60405180910390fd5b6005548103611096576040517f08c379a000000000000000000000000000000000000000000000000000000000815260040161108d90613846565b60405180910390fd5b7f915dfccc9e27d5f39c81040570f4d4bcc015bc6a0b61a08ce416ebe4a91fc1c5816040516110c59190612db2565b60405180910390a18060058190555050565b60008073ffffffffffffffffffffffffffffffffffffffff16600160009054906101000a900473ffffffffffffffffffffffffffffffffffffffff1673ffffffffffffffffffffffffffffffffffffffff1603611169576040517f08c379a0000000000000000000000000000000000000000000000000000000008152600401611160906130cf565b60405180910390fd5b600073ffffffffffffffffffffffffffffffffffffffff163373ffffffffffffffffffffffffffffffffffffffff16036111a257600080fd5b600160009054906101000a900473ffffffffffffffffffffffffffffffffffffffff1673ffffffffffffffffffffffffffffffffffffffff163373ffffffffffffffffffffffffffffffffffffffff1614806112305750611201610f93565b73ffffffffffffffffffffffffffffffffffffffff163373ffffffffffffffffffffffffffffffffffffffff16145b61126f576040517f08c379a0000000000000000000000000000000000000000000000000000000008152600401611266906132a5565b60405180910390fd5b600454905090565b60008073ffffffffffffffffffffffffffffffffffffffff163373ffffffffffffffffffffffffffffffffffffffff16036112b157600080fd5b600160009054906101000a900473ffffffffffffffffffffffffffffffffffffffff1673ffffffffffffffffffffffffffffffffffffffff163373ffffffffffffffffffffffffffffffffffffffff16148061133f5750611310610f93565b73ffffffffffffffffffffffffffffffffffffffff163373ffffffffffffffffffffffffffffffffffffffff16145b61137e576040517f08c379a0000000000000000000000000000000000000000000000000000000008152600401611375906132a5565b60405180910390fd5b7f000000000000000000000000000000000000000000000000000000000000000073ffffffffffffffffffffffffffffffffffffffff1663dd62ed3e33306040518363ffffffff1660e01b81526004016113d9929190612d70565b602060405180830381865afa1580156113f6573d6000803e3d6000fd5b505050506040513d601f19601f8201168201806040525081019061141a91906133c8565b905090565b6000600554905090565b60008073ffffffffffffffffffffffffffffffffffffffff16600160009054906101000a900473ffffffffffffffffffffffffffffffffffffffff1673ffffffffffffffffffffffffffffffffffffffff16036114bb576040517f08c379a00000000000000000000000000000000000000000000000000000000081526004016114b2906130cf565b60405180910390fd5b600073ffffffffffffffffffffffffffffffffffffffff163373ffffffffffffffffffffffffffffffffffffffff16036114f457600080fd5b600160009054906101000a900473ffffffffffffffffffffffffffffffffffffffff1673ffffffffffffffffffffffffffffffffffffffff163373ffffffffffffffffffffffffffffffffffffffff1614806115825750611553610f93565b73ffffffffffffffffffffffffffffffffffffffff163373ffffffffffffffffffffffffffffffffffffffff16145b6115c1576040517f08c379a00000000000000000000000000000000000000000000000000000000081526004016115b8906132a5565b60405180910390fd5b600354905090565b6115d161222c565b600073ffffffffffffffffffffffffffffffffffffffff16600160009054906101000a900473ffffffffffffffffffffffffffffffffffffffff1673ffffffffffffffffffffffffffffffffffffffff1603611662576040517f08c379a0000000000000000000000000000000000000000000000000000000008152600401611659906130cf565b60405180910390fd5b6004548211156116a7576040517f08c379a000000000000000000000000000000000000000000000000000000000815260040161169e906138d8565b60405180910390fd5b600082116116ea576040517f08c379a00000000000000000000000000000000000000000000000000000000081526004016116e19061396a565b60405180910390fd5b600160009054906101000a900473ffffffffffffffffffffffffffffffffffffffff1673ffffffffffffffffffffffffffffffffffffffff16427fcb8359f21ffcf3b9c3c2acc9440e249150347b5ae18d588514823b72a98936c98484604051611755929190613999565b60405180910390a3816004600082825461176f91906139c2565b925050819055505050565b60006060600073ffffffffffffffffffffffffffffffffffffffff16600160009054906101000a900473ffffffffffffffffffffffffffffffffffffffff1673ffffffffffffffffffffffffffffffffffffffff160361180f576040517f08c379a0000000000000000000000000000000000000000000000000000000008152600401611806906130cf565b60405180910390fd5b600073ffffffffffffffffffffffffffffffffffffffff163373ffffffffffffffffffffffffffffffffffffffff160361184857600080fd5b600160009054906101000a900473ffffffffffffffffffffffffffffffffffffffff1673ffffffffffffffffffffffffffffffffffffffff163373ffffffffffffffffffffffffffffffffffffffff1614806118d657506118a7610f93565b73ffffffffffffffffffffffffffffffffffffffff163373ffffffffffffffffffffffffffffffffffffffff16145b611915576040517f08c379a000000000000000000000000000000000000000000000000000000000815260040161190c906132a5565b60405180910390fd5b7f00000000000000000000000000000000000000000000000000000000000000007f000000000000000000000000000000000000000000000000000000000000000073ffffffffffffffffffffffffffffffffffffffff166395d89b416040518163ffffffff1660e01b8152600401600060405180830381865afa1580156119a1573d6000803e3d6000fd5b505050506040513d6000823e3d601f19601f820116820180604052508101906119ca9190613b1c565b915091509091565b6119da61222c565b600073ffffffffffffffffffffffffffffffffffffffff168173ffffffffffffffffffffffffffffffffffffffff1603611a1357600080fd5b80600760006101000a81548173ffffffffffffffffffffffffffffffffffffffff021916908373ffffffffffffffffffffffffffffffffffffffff16021790555050565b6000611a6161222c565b8173ffffffffffffffffffffffffffffffffffffffff166370a08231306040518263ffffffff1660e01b8152600401611a9a9190612ed5565b602060405180830381865afa158015611ab7573d6000803e3d6000fd5b505050506040513d601f19601f82011682018060405250810190611adb91906133c8565b9050919050565b6060600080611aef61247d565b9050600160149054906101000a900460ff1615611b345780600760009054906101000a900473ffffffffffffffffffffffffffffffffffffffff169250925050611b5e565b80600660009054906101000a900473ffffffffffffffffffffffffffffffffffffffff1692509250505b9091565b611b6a61222c565b600160149054906101000a900460ff1615611c2e57600160149054906101000a900460ff168015611bea5750600073ffffffffffffffffffffffffffffffffffffffff16600660009054906101000a900473ffffffffffffffffffffffffffffffffffffffff1673ffffffffffffffffffffffffffffffffffffffff1614155b611c29576040517f08c379a0000000000000000000000000000000000000000000000000000000008152600401611c2090613bd7565b60405180910390fd5b611cda565b600160149054906101000a900460ff16158015611c9a5750600073ffffffffffffffffffffffffffffffffffffffff16600760009054906101000a900473ffffffffffffffffffffffffffffffffffffffff1673ffffffffffffffffffffffffffffffffffffffff1614155b611cd9576040517f08c379a0000000000000000000000000000000000000000000000000000000008152600401611cd090613c43565b60405180910390fd5b5b600160149054906101000a900460ff1615600160146101000a81548160ff021916908315150217905550565b6000611d1061230c565b600073ffffffffffffffffffffffffffffffffffffffff16600160009054906101000a900473ffffffffffffffffffffffffffffffffffffffff1673ffffffffffffffffffffffffffffffffffffffff1603611da1576040517f08c379a0000000000000000000000000000000000000000000000000000000008152600401611d98906130cf565b60405180910390fd5b600073ffffffffffffffffffffffffffffffffffffffff163373ffffffffffffffffffffffffffffffffffffffff1603611dda57600080fd5b600160009054906101000a900473ffffffffffffffffffffffffffffffffffffffff1673ffffffffffffffffffffffffffffffffffffffff163373ffffffffffffffffffffffffffffffffffffffff161480611e685750611e39610f93565b73ffffffffffffffffffffffffffffffffffffffff163373ffffffffffffffffffffffffffffffffffffffff16145b611ea7576040517f08c379a0000000000000000000000000000000000000000000000000000000008152600401611e9e906132a5565b60405180910390fd5b60008211611eea576040517f08c379a0000000000000000000000000000000000000000000000000000000008152600401611ee190613caf565b60405180910390fd5b81611ef3611277565b10157f000000000000000000000000000000000000000000000000000000000000000073ffffffffffffffffffffffffffffffffffffffff166395d89b416040518163ffffffff1660e01b8152600401600060405180830381865afa158015611f60573d6000803e3d6000fd5b505050506040513d6000823e3d601f19601f82011682018060405250810190611f899190613b1c565b604051602001611f999190613d7d565b60405160208183030381529060405290611fe9576040517f08c379a0000000000000000000000000000000000000000000000000000000008152600401611fe09190613dc1565b60405180910390fd5b50600080600080611ff8612514565b93509350935093506000841180156120105750600083115b801561201c5750600081115b61205b576040517f08c379a000000000000000000000000000000000000000000000000000000000815260040161205290613e2f565b60405180910390fd5b6000612068878686612840565b9050806004600082825461207c9190613e4f565b9250508190555080600360008282546120959190613e4f565b9250508190555086600260008282546120ae9190613e4f565b9250508190555060004290508088837fb5aeb7b225999adc33232be2121afb1a366c15108c1da745d17fd76108172fe48989888a6040516120f29493929190613e83565b60405180910390a461214733308a7f000000000000000000000000000000000000000000000000000000000000000073ffffffffffffffffffffffffffffffffffffffff1661287b909392919063ffffffff16565b61215088612904565b5060019650505050505050919050565b61216861222c565b600073ffffffffffffffffffffffffffffffffffffffff168173ffffffffffffffffffffffffffffffffffffffff16036121d7576040517f08c379a00000000000000000000000000000000000000000000000000000000081526004016121ce90613f41565b60405180910390fd5b6121e0816123b8565b50565b6121eb610d4e565b61222a576040517f08c379a000000000000000000000000000000000000000000000000000000000815260040161222190613fad565b60405180910390fd5b565b612234612a3d565b73ffffffffffffffffffffffffffffffffffffffff16612252610f93565b73ffffffffffffffffffffffffffffffffffffffff16146122a8576040517f08c379a000000000000000000000000000000000000000000000000000000000815260040161229f90614019565b60405180910390fd5b565b6122b26121e3565b60008060006101000a81548160ff0219169083151502179055507f5db9ee0a495bf2e6ff9c91a7834c1ba4fdd244a5e8aa4e537bd38aeae4b073aa6122f5612a3d565b6040516123029190612ed5565b60405180910390a1565b612314610d4e565b15612354576040517f08c379a000000000000000000000000000000000000000000000000000000000815260040161234b90614085565b60405180910390fd5b565b61235e61230c565b60016000806101000a81548160ff0219169083151502179055507f62e78cea01bee320cd4e420270b5ea74000d11b0c9f74754ebdbfc544b05a2586123a1612a3d565b6040516123ae9190612ed5565b60405180910390a1565b60008060019054906101000a900473ffffffffffffffffffffffffffffffffffffffff16905081600060016101000a81548173ffffffffffffffffffffffffffffffffffffffff021916908373ffffffffffffffffffffffffffffffffffffffff1602179055508173ffffffffffffffffffffffffffffffffffffffff168173ffffffffffffffffffffffffffffffffffffffff167f8be0079c531659141344cd1fd0a4f28419497f9722a3daafe3b4186f6b6457e060405160405180910390a35050565b606080600160149054906101000a900460ff166124d2576040518060400160405280600c81526020017f41676772656761746f725633000000000000000000000000000000000000000081525090508061250c565b6040518060400160405280600481526020017f506f6f6c000000000000000000000000000000000000000000000000000000008152509050805b508091505090565b60008060606000600160149054906101000a900460ff16156125df57600160149054906101000a900460ff16801561259b5750600073ffffffffffffffffffffffffffffffffffffffff16600760009054906101000a900473ffffffffffffffffffffffffffffffffffffffff1673ffffffffffffffffffffffffffffffffffffffff1614155b6125da576040517f08c379a00000000000000000000000000000000000000000000000000000000081526004016125d190613c43565b60405180910390fd5b61268b565b600160149054906101000a900460ff1615801561264b5750600073ffffffffffffffffffffffffffffffffffffffff16600660009054906101000a900473ffffffffffffffffffffffffffffffffffffffff1673ffffffffffffffffffffffffffffffffffffffff1614155b61268a576040517f08c379a000000000000000000000000000000000000000000000000000000000815260040161268190613bd7565b60405180910390fd5b5b600080600080600160149054906101000a900460ff161561274357600760009054906101000a900473ffffffffffffffffffffffffffffffffffffffff1673ffffffffffffffffffffffffffffffffffffffff166385096edc6040518163ffffffff1660e01b81526004016000604051808303816000875af1158015612715573d6000803e3d6000fd5b505050506040513d6000823e3d601f19601f8201168201806040525081019061273e91906140a5565b6127dc565b600660009054906101000a900473ffffffffffffffffffffffffffffffffffffffff1673ffffffffffffffffffffffffffffffffffffffff1663e1e7ff776040518163ffffffff1660e01b81526004016000604051808303816000875af11580156127b2573d6000803e3d6000fd5b505050506040513d6000823e3d601f19601f820116820180604052508101906127db91906140a5565b5b93509350935093507ff533c7ebcab9ca95557310f62aa7ad41d3a6b17aebec7762b994ef1a148638658484848461281161247d565b604051612822959493929190614128565b60405180910390a18383838397509750975097505050505090919293565b600081600a61284f91906135e9565b836005548661285e91906136a5565b6128689190613634565b61287291906136a5565b90509392505050565b6128fe846323b872dd60e01b85858560405160240161289c93929190614189565b604051602081830303815290604052907bffffffffffffffffffffffffffffffffffffffffffffffffffffffff19166020820180517bffffffffffffffffffffffffffffffffffffffffffffffffffffffff8381831617835250505050612a45565b50505050565b6000808211612948576040517f08c379a000000000000000000000000000000000000000000000000000000000815260040161293f9061420c565b60405180910390fd5b6000612952610e54565b90507f000000000000000000000000000000000000000000000000000000000000000073ffffffffffffffffffffffffffffffffffffffff166342966c68846040518263ffffffff1660e01b81526004016129ad9190612db2565b600060405180830381600087803b1580156129c757600080fd5b505af11580156129db573d6000803e3d6000fd5b5050505082816129eb91906139c2565b6129f3610e54565b14612a33576040517f08c379a0000000000000000000000000000000000000000000000000000000008152600401612a2a9061429e565b60405180910390fd5b6001915050919050565b600033905090565b6000612aa7826040518060400160405280602081526020017f5361666545524332303a206c6f772d6c6576656c2063616c6c206661696c65648152508573ffffffffffffffffffffffffffffffffffffffff16612b0c9092919063ffffffff16565b9050600081511115612b075780806020019051810190612ac79190613386565b612b06576040517f08c379a0000000000000000000000000000000000000000000000000000000008152600401612afd90614330565b60405180910390fd5b5b505050565b6060612b1b8484600085612b24565b90509392505050565b606082471015612b69576040517f08c379a0000000000000000000000000000000000000000000000000000000008152600401612b60906143c2565b60405180910390fd5b612b7285612c38565b612bb1576040517f08c379a0000000000000000000000000000000000000000000000000000000008152600401612ba89061442e565b60405180910390fd5b6000808673ffffffffffffffffffffffffffffffffffffffff168587604051612bda9190614495565b60006040518083038185875af1925050503d8060008114612c17576040519150601f19603f3d011682016040523d82523d6000602084013e612c1c565b606091505b5091509150612c2c828286612c5b565b92505050949350505050565b6000808273ffffffffffffffffffffffffffffffffffffffff163b119050919050565b60608315612c6b57829050612cbb565b600083511115612c7e5782518084602001fd5b816040517f08c379a0000000000000000000000000000000000000000000000000000000008152600401612cb29190613dc1565b60405180910390fd5b9392505050565b6000604051905090565b600080fd5b600080fd5b600073ffffffffffffffffffffffffffffffffffffffff82169050919050565b6000612d0182612cd6565b9050919050565b612d1181612cf6565b8114612d1c57600080fd5b50565b600081359050612d2e81612d08565b92915050565b600060208284031215612d4a57612d49612ccc565b5b6000612d5884828501612d1f565b91505092915050565b612d6a81612cf6565b82525050565b6000604082019050612d856000830185612d61565b612d926020830184612d61565b9392505050565b6000819050919050565b612dac81612d99565b82525050565b6000602082019050612dc76000830184612da3565b92915050565b60008115159050919050565b612de281612dcd565b82525050565b6000602082019050612dfd6000830184612dd9565b92915050565b612e0c81612d99565b8114612e1757600080fd5b50565b600081359050612e2981612e03565b92915050565b600080600060608486031215612e4857612e47612ccc565b5b6000612e5686828701612d1f565b9350506020612e6786828701612d1f565b9250506040612e7886828701612e1a565b9150509250925092565b600080600060608486031215612e9b57612e9a612ccc565b5b6000612ea986828701612e1a565b9350506020612eba86828701612e1a565b9250506040612ecb86828701612e1a565b9150509250925092565b6000602082019050612eea6000830184612d61565b92915050565b600060208284031215612f0657612f05612ccc565b5b6000612f1484828501612e1a565b91505092915050565b6000819050919050565b612f3081612f1d565b8114612f3b57600080fd5b50565b600081359050612f4d81612f27565b92915050565b60008060408385031215612f6a57612f69612ccc565b5b6000612f7885828601612e1a565b9250506020612f8985828601612f3e565b9150509250929050565b600081519050919050565b600082825260208201905092915050565b60005b83811015612fcd578082015181840152602081019050612fb2565b60008484015250505050565b6000601f19601f8301169050919050565b6000612ff582612f93565b612fff8185612f9e565b935061300f818560208601612faf565b61301881612fd9565b840191505092915050565b60006040820190506130386000830185612d61565b818103602083015261304a8184612fea565b90509392505050565b6000604082019050818103600083015261306d8185612fea565b905061307c6020830184612d61565b9392505050565b7f4e6f742061637469766174656421000000000000000000000000000000000000600082015250565b60006130b9600e83612f9e565b91506130c482613083565b602082019050919050565b600060208201905081810360008301526130e8816130ac565b9050919050565b7f4e6f7420417574686f72697a6564210000000000000000000000000000000000600082015250565b6000613125600f83612f9e565b9150613130826130ef565b602082019050919050565b6000602082019050818103600083015261315481613118565b9050919050565b7f41637469766174696f6e206e6f7420616c6c6f77656421000000000000000000600082015250565b6000613191601783612f9e565b915061319c8261315b565b602082019050919050565b600060208201905081810360008301526131c081613184565b9050919050565b7f416c7265616479206163746976617465642e0000000000000000000000000000600082015250565b60006131fd601283612f9e565b9150613208826131c7565b602082019050919050565b6000602082019050818103600083015261322c816131f0565b9050919050565b7f4f6e6c79204f776e6572206f7220417574686f72697a6564207061727469636960008201527f7061746f722063616e206163636573732074686973206f7065726174696f6e21602082015250565b600061328f604083612f9e565b915061329a82613233565b604082019050919050565b600060208201905081810360008301526132be81613282565b9050919050565b7f4e6f7420656e6f7567682062616c616e63652100000000000000000000000000600082015250565b60006132fb601383612f9e565b9150613306826132c5565b602082019050919050565b6000602082019050818103600083015261332a816132ee565b9050919050565b60006040820190506133466000830185612d61565b6133536020830184612da3565b9392505050565b61336381612dcd565b811461336e57600080fd5b50565b6000815190506133808161335a565b92915050565b60006020828403121561339c5761339b612ccc565b5b60006133aa84828501613371565b91505092915050565b6000815190506133c281612e03565b92915050565b6000602082840312156133de576133dd612ccc565b5b60006133ec848285016133b3565b91505092915050565b7f526174652c20706f696e747320616e6420646563696d616c73206d757374206260008201527f652067726561746572207468616e207a65726f21000000000000000000000000602082015250565b6000613451603483612f9e565b915061345c826133f5565b604082019050919050565b6000602082019050818103600083015261348081613444565b9050919050565b7f4e487b7100000000000000000000000000000000000000000000000000000000600052601160045260246000fd5b60008160011c9050919050565b6000808291508390505b600185111561350d578086048111156134e9576134e8613487565b5b60018516156134f85780820291505b8081029050613506856134b6565b94506134cd565b94509492505050565b60008261352657600190506135e2565b8161353457600090506135e2565b816001811461354a576002811461355457613583565b60019150506135e2565b60ff84111561356657613565613487565b5b8360020a91508482111561357d5761357c613487565b5b506135e2565b5060208310610133831016604e8410600b84101617156135b85782820a9050838111156135b3576135b2613487565b5b6135e2565b6135c584848460016134c3565b925090508184048111156135dc576135db613487565b5b81810290505b9392505050565b60006135f482612d99565b91506135ff83612d99565b925061362c7fffffffffffffffffffffffffffffffffffffffffffffffffffffffffffffffff8484613516565b905092915050565b600061363f82612d99565b915061364a83612d99565b925082820261365881612d99565b9150828204841483151761366f5761366e613487565b5b5092915050565b7f4e487b7100000000000000000000000000000000000000000000000000000000600052601260045260246000fd5b60006136b082612d99565b91506136bb83612d99565b9250826136cb576136ca613676565b5b828204905092915050565b7f496e707574206d7573742062652067726561746572207468616e207a65726f21600082015250565b600061370c602083612f9e565b9150613717826136d6565b602082019050919050565b6000602082019050818103600083015261373b816136ff565b9050919050565b7f496e707574206d75737420626520612073696e676c652064696769742028302d60008201527f3929000000000000000000000000000000000000000000000000000000000000602082015250565b600061379e602283612f9e565b91506137a982613742565b604082019050919050565b600060208201905081810360008301526137cd81613791565b9050919050565b7f496e7075742076616c7565206973207468652073616d65206c696b652065786960008201527f7374696e67210000000000000000000000000000000000000000000000000000602082015250565b6000613830602683612f9e565b915061383b826137d4565b604082019050919050565b6000602082019050818103600083015261385f81613823565b9050919050565b7f4e6f7420656e6f75676820706f696e74732e2054686520636f6e74726163742060008201527f6d75737420626520636861726765642077697468206d6f726520746f6b656e73602082015250565b60006138c2604083612f9e565b91506138cd82613866565b604082019050919050565b600060208201905081810360008301526138f1816138b5565b9050919050565b7f57697468647261772076616c7565206d7573742062652067726561746572207460008201527f68616e2030210000000000000000000000000000000000000000000000000000602082015250565b6000613954602683612f9e565b915061395f826138f8565b604082019050919050565b6000602082019050818103600083015261398381613947565b9050919050565b61399381612f1d565b82525050565b60006040820190506139ae6000830185612da3565b6139bb602083018461398a565b9392505050565b60006139cd82612d99565b91506139d883612d99565b92508282039050818111156139f0576139ef613487565b5b92915050565b600080fd5b600080fd5b7f4e487b7100000000000000000000000000000000000000000000000000000000600052604160045260246000fd5b613a3882612fd9565b810181811067ffffffffffffffff82111715613a5757613a56613a00565b5b80604052505050565b6000613a6a612cc2565b9050613a768282613a2f565b919050565b600067ffffffffffffffff821115613a9657613a95613a00565b5b613a9f82612fd9565b9050602081019050919050565b6000613abf613aba84613a7b565b613a60565b905082815260208101848484011115613adb57613ada6139fb565b5b613ae6848285612faf565b509392505050565b600082601f830112613b0357613b026139f6565b5b8151613b13848260208601613aac565b91505092915050565b600060208284031215613b3257613b31612ccc565b5b600082015167ffffffffffffffff811115613b5057613b4f612cd1565b5b613b5c84828501613aee565b91505092915050565b7f41676772656761746f72436f6e73756d6572206973206e6f7420696e6974696160008201527f6c697a6564210000000000000000000000000000000000000000000000000000602082015250565b6000613bc1602683612f9e565b9150613bcc82613b65565b604082019050919050565b60006020820190508181036000830152613bf081613bb4565b9050919050565b7f506f6f6c436f6e73756d6572206973206e6f7420696e697469616c697a656421600082015250565b6000613c2d602083612f9e565b9150613c3882613bf7565b602082019050919050565b60006020820190508181036000830152613c5c81613c20565b9050919050565b7f4e6f2063686172676520616d6f756e7421000000000000000000000000000000600082015250565b6000613c99601183612f9e565b9150613ca482613c63565b602082019050919050565b60006020820190508181036000830152613cc881613c8c565b9050919050565b7f436865636b207468652000000000000000000000000000000000000000000000815250565b600081905092915050565b6000613d0b82612f93565b613d158185613cf5565b9350613d25818560208601612faf565b80840191505092915050565b7f20746f6b656e2000000000000000000000000000000000000000000000000000815250565b7f616c6c6f77616e63652100000000000000000000000000000000000000000000815250565b6000613d8882613ccf565b600a82019150613d988284613d00565b9150613da382613d31565b600782019150613db282613d57565b600a8201915081905092915050565b60006020820190508181036000830152613ddb8184612fea565b905092915050565b7f72617465206572726f7221000000000000000000000000000000000000000000600082015250565b6000613e19600b83612f9e565b9150613e2482613de3565b602082019050919050565b60006020820190508181036000830152613e4881613e0c565b9050919050565b6000613e5a82612d99565b9150613e6583612d99565b9250828201905080821115613e7d57613e7c613487565b5b92915050565b6000608082019050613e986000830187612da3565b613ea56020830186612da3565b613eb26040830185612da3565b8181036060830152613ec48184612fea565b905095945050505050565b7f4f776e61626c653a206e6577206f776e657220697320746865207a65726f206160008201527f6464726573730000000000000000000000000000000000000000000000000000602082015250565b6000613f2b602683612f9e565b9150613f3682613ecf565b604082019050919050565b60006020820190508181036000830152613f5a81613f1e565b9050919050565b7f5061757361626c653a206e6f7420706175736564000000000000000000000000600082015250565b6000613f97601483612f9e565b9150613fa282613f61565b602082019050919050565b60006020820190508181036000830152613fc681613f8a565b9050919050565b7f4f776e61626c653a2063616c6c6572206973206e6f7420746865206f776e6572600082015250565b6000614003602083612f9e565b915061400e82613fcd565b602082019050919050565b6000602082019050818103600083015261403281613ff6565b9050919050565b7f5061757361626c653a2070617573656400000000000000000000000000000000600082015250565b600061406f601083612f9e565b915061407a82614039565b602082019050919050565b6000602082019050818103600083015261409e81614062565b9050919050565b600080600080608085870312156140bf576140be612ccc565b5b60006140cd878288016133b3565b94505060206140de878288016133b3565b935050604085015167ffffffffffffffff8111156140ff576140fe612cd1565b5b61410b87828801613aee565b925050606061411c878288016133b3565b91505092959194509250565b600060a08201905061413d6000830188612da3565b61414a6020830187612da3565b818103604083015261415c8186612fea565b905061416b6060830185612da3565b818103608083015261417d8184612fea565b90509695505050505050565b600060608201905061419e6000830186612d61565b6141ab6020830185612d61565b6141b86040830184612da3565b949350505050565b7f4e6f20746f6b656e7320746f206265206275726e656421000000000000000000600082015250565b60006141f6601783612f9e565b9150614201826141c0565b602082019050919050565b60006020820190508181036000830152614225816141e9565b9050919050565b7f7472616e73616374696f6e207265766572746564206275726e20756e7375636360008201527f657366756c6c2100000000000000000000000000000000000000000000000000602082015250565b6000614288602783612f9e565b91506142938261422c565b604082019050919050565b600060208201905081810360008301526142b78161427b565b9050919050565b7f5361666545524332303a204552433230206f7065726174696f6e20646964206e60008201527f6f74207375636365656400000000000000000000000000000000000000000000602082015250565b600061431a602a83612f9e565b9150614325826142be565b604082019050919050565b600060208201905081810360008301526143498161430d565b9050919050565b7f416464726573733a20696e73756666696369656e742062616c616e636520666f60008201527f722063616c6c0000000000000000000000000000000000000000000000000000602082015250565b60006143ac602683612f9e565b91506143b782614350565b604082019050919050565b600060208201905081810360008301526143db8161439f565b9050919050565b7f416464726573733a2063616c6c20746f206e6f6e2d636f6e7472616374000000600082015250565b6000614418601d83612f9e565b9150614423826143e2565b602082019050919050565b600060208201905081810360008301526144478161440b565b9050919050565b600081519050919050565b600081905092915050565b600061446f8261444e565b6144798185614459565b9350614489818560208601612faf565b80840191505092915050565b60006144a18284614464565b91508190509291505056fea264697066735822122042778ba96fa6f78d633b278b17474efd564cc2a7fabdd5f4df2fefb4de789b2764736f6c63430008170033",
					"opcodes": "PUSH1 0xC0 PUSH1 0x40 MSTORE PUSH1 0x1 DUP1 PUSH1 0x14 PUSH2 0x100 EXP DUP2 SLOAD DUP2 PUSH1 0xFF MUL NOT AND SWAP1 DUP4 ISZERO ISZERO MUL OR SWAP1 SSTORE POP PUSH1 0x0 PUSH1 0x2 SSTORE PUSH1 0x0 PUSH1 0x3 SSTORE PUSH1 0x0 PUSH1 0x4 SSTORE PUSH1 0x2 PUSH1 0x5 SSTORE CALLVALUE DUP1 ISZERO PUSH3 0x3F JUMPI PUSH1 0x0 DUP1 REVERT JUMPDEST POP PUSH1 0x40 MLOAD PUSH3 0x4800 CODESIZE SUB DUP1 PUSH3 0x4800 DUP4 CODECOPY DUP2 DUP2 ADD PUSH1 0x40 MSTORE DUP2 ADD SWAP1 PUSH3 0x65 SWAP2 SWAP1 PUSH3 0x280 JUMP JUMPDEST PUSH1 0x0 DUP1 PUSH1 0x0 PUSH2 0x100 EXP DUP2 SLOAD DUP2 PUSH1 0xFF MUL NOT AND SWAP1 DUP4 ISZERO ISZERO MUL OR SWAP1 SSTORE POP PUSH3 0x9F PUSH3 0x93 PUSH3 0x149 PUSH1 0x20 SHL PUSH1 0x20 SHR JUMP JUMPDEST PUSH3 0x151 PUSH1 0x20 SHL PUSH1 0x20 SHR JUMP JUMPDEST PUSH1 0x0 PUSH20 0xFFFFFFFFFFFFFFFFFFFFFFFFFFFFFFFFFFFFFFFF AND DUP2 PUSH20 0xFFFFFFFFFFFFFFFFFFFFFFFFFFFFFFFFFFFFFFFF AND SUB PUSH3 0xD9 JUMPI PUSH1 0x0 DUP1 REVERT JUMPDEST DUP1 PUSH20 0xFFFFFFFFFFFFFFFFFFFFFFFFFFFFFFFFFFFFFFFF AND PUSH1 0x80 DUP2 PUSH20 0xFFFFFFFFFFFFFFFFFFFFFFFFFFFFFFFFFFFFFFFF AND DUP2 MSTORE POP POP DUP2 PUSH20 0xFFFFFFFFFFFFFFFFFFFFFFFFFFFFFFFFFFFFFFFF AND PUSH1 0xA0 DUP2 PUSH20 0xFFFFFFFFFFFFFFFFFFFFFFFFFFFFFFFFFFFFFFFF AND DUP2 MSTORE POP POP POP POP PUSH3 0x2C7 JUMP JUMPDEST PUSH1 0x0 CALLER SWAP1 POP SWAP1 JUMP JUMPDEST PUSH1 0x0 DUP1 PUSH1 0x1 SWAP1 SLOAD SWAP1 PUSH2 0x100 EXP SWAP1 DIV PUSH20 0xFFFFFFFFFFFFFFFFFFFFFFFFFFFFFFFFFFFFFFFF AND SWAP1 POP DUP2 PUSH1 0x0 PUSH1 0x1 PUSH2 0x100 EXP DUP2 SLOAD DUP2 PUSH20 0xFFFFFFFFFFFFFFFFFFFFFFFFFFFFFFFFFFFFFFFF MUL NOT AND SWAP1 DUP4 PUSH20 0xFFFFFFFFFFFFFFFFFFFFFFFFFFFFFFFFFFFFFFFF AND MUL OR SWAP1 SSTORE POP DUP2 PUSH20 0xFFFFFFFFFFFFFFFFFFFFFFFFFFFFFFFFFFFFFFFF AND DUP2 PUSH20 0xFFFFFFFFFFFFFFFFFFFFFFFFFFFFFFFFFFFFFFFF AND PUSH32 0x8BE0079C531659141344CD1FD0A4F28419497F9722A3DAAFE3B4186F6B6457E0 PUSH1 0x40 MLOAD PUSH1 0x40 MLOAD DUP1 SWAP2 SUB SWAP1 LOG3 POP POP JUMP JUMPDEST PUSH1 0x0 DUP1 REVERT JUMPDEST PUSH1 0x0 PUSH20 0xFFFFFFFFFFFFFFFFFFFFFFFFFFFFFFFFFFFFFFFF DUP3 AND SWAP1 POP SWAP2 SWAP1 POP JUMP JUMPDEST PUSH1 0x0 PUSH3 0x248 DUP3 PUSH3 0x21B JUMP JUMPDEST SWAP1 POP SWAP2 SWAP1 POP JUMP JUMPDEST PUSH3 0x25A DUP2 PUSH3 0x23B JUMP JUMPDEST DUP2 EQ PUSH3 0x266 JUMPI PUSH1 0x0 DUP1 REVERT JUMPDEST POP JUMP JUMPDEST PUSH1 0x0 DUP2 MLOAD SWAP1 POP PUSH3 0x27A DUP2 PUSH3 0x24F JUMP JUMPDEST SWAP3 SWAP2 POP POP JUMP JUMPDEST PUSH1 0x0 DUP1 PUSH1 0x40 DUP4 DUP6 SUB SLT ISZERO PUSH3 0x29A JUMPI PUSH3 0x299 PUSH3 0x216 JUMP JUMPDEST JUMPDEST PUSH1 0x0 PUSH3 0x2AA DUP6 DUP3 DUP7 ADD PUSH3 0x269 JUMP JUMPDEST SWAP3 POP POP PUSH1 0x20 PUSH3 0x2BD DUP6 DUP3 DUP7 ADD PUSH3 0x269 JUMP JUMPDEST SWAP2 POP POP SWAP3 POP SWAP3 SWAP1 POP JUMP JUMPDEST PUSH1 0x80 MLOAD PUSH1 0xA0 MLOAD PUSH2 0x44E2 PUSH3 0x31E PUSH1 0x0 CODECOPY PUSH1 0x0 DUP2 DUP2 PUSH2 0xE58 ADD MSTORE DUP2 DUP2 PUSH2 0x1380 ADD MSTORE DUP2 DUP2 PUSH2 0x1917 ADD MSTORE DUP2 DUP2 PUSH2 0x1938 ADD MSTORE DUP2 DUP2 PUSH2 0x1EF7 ADD MSTORE DUP2 DUP2 PUSH2 0x2102 ADD MSTORE PUSH2 0x2956 ADD MSTORE PUSH1 0x0 DUP2 DUP2 PUSH2 0x7CF ADD MSTORE PUSH2 0x83A ADD MSTORE PUSH2 0x44E2 PUSH1 0x0 RETURN INVALID PUSH1 0x80 PUSH1 0x40 MSTORE CALLVALUE DUP1 ISZERO PUSH2 0x10 JUMPI PUSH1 0x0 DUP1 REVERT JUMPDEST POP PUSH1 0x4 CALLDATASIZE LT PUSH2 0x1A9 JUMPI PUSH1 0x0 CALLDATALOAD PUSH1 0xE0 SHR DUP1 PUSH4 0x8DA5CB5B GT PUSH2 0xF9 JUMPI DUP1 PUSH4 0xABB1DC44 GT PUSH2 0x97 JUMPI DUP1 PUSH4 0xE6367EBE GT PUSH2 0x71 JUMPI DUP1 PUSH4 0xE6367EBE EQ PUSH2 0x42A JUMPI DUP1 PUSH4 0xE8088766 EQ PUSH2 0x449 JUMPI DUP1 PUSH4 0xED969C84 EQ PUSH2 0x453 JUMPI DUP1 PUSH4 0xF2FDE38B EQ PUSH2 0x483 JUMPI PUSH2 0x1A9 JUMP JUMPDEST DUP1 PUSH4 0xABB1DC44 EQ PUSH2 0x3BF JUMPI DUP1 PUSH4 0xB0B5E39E EQ PUSH2 0x3DE JUMPI DUP1 PUSH4 0xB99152D0 EQ PUSH2 0x3FA JUMPI PUSH2 0x1A9 JUMP JUMPDEST DUP1 PUSH4 0x9405DE64 GT PUSH2 0xD3 JUMPI DUP1 PUSH4 0x9405DE64 EQ PUSH2 0x349 JUMPI DUP1 PUSH4 0x96EEBFF0 EQ PUSH2 0x367 JUMPI DUP1 PUSH4 0xA684AB5C EQ PUSH2 0x385 JUMPI DUP1 PUSH4 0xA8D2021A EQ PUSH2 0x3A3 JUMPI PUSH2 0x1A9 JUMP JUMPDEST DUP1 PUSH4 0x8DA5CB5B EQ PUSH2 0x2F1 JUMPI DUP1 PUSH4 0x8DD25B07 EQ PUSH2 0x30F JUMPI DUP1 PUSH4 0x8EB89A61 EQ PUSH2 0x32B JUMPI PUSH2 0x1A9 JUMP JUMPDEST DUP1 PUSH4 0x2AF0E251 GT PUSH2 0x166 JUMPI DUP1 PUSH4 0x6A9D43DD GT PUSH2 0x140 JUMPI DUP1 PUSH4 0x6A9D43DD EQ PUSH2 0x269 JUMPI DUP1 PUSH4 0x715018A6 EQ PUSH2 0x299 JUMPI DUP1 PUSH4 0x722713F7 EQ PUSH2 0x2A3 JUMPI DUP1 PUSH4 0x7754723E EQ PUSH2 0x2C1 JUMPI PUSH2 0x1A9 JUMP JUMPDEST DUP1 PUSH4 0x2AF0E251 EQ PUSH2 0x223 JUMPI DUP1 PUSH4 0x51B42B00 EQ PUSH2 0x241 JUMPI DUP1 PUSH4 0x5C975ABB EQ PUSH2 0x24B JUMPI PUSH2 0x1A9 JUMP JUMPDEST DUP1 PUSH4 0x46F7DA2 EQ PUSH2 0x1AE JUMPI DUP1 PUSH4 0x7DA68F5 EQ PUSH2 0x1B8 JUMPI DUP1 PUSH4 0xA6CB062 EQ PUSH2 0x1C2 JUMPI DUP1 PUSH4 0xBA2F1D8 EQ PUSH2 0x1DE JUMPI DUP1 PUSH4 0xF0CCF61 EQ PUSH2 0x1FA JUMPI DUP1 PUSH4 0xF15F4C0 EQ PUSH2 0x219 JUMPI JUMPDEST PUSH1 0x0 DUP1 REVERT JUMPDEST PUSH2 0x1B6 PUSH2 0x49F JUMP JUMPDEST STOP JUMPDEST PUSH2 0x1C0 PUSH2 0x4B9 JUMP JUMPDEST STOP JUMPDEST PUSH2 0x1DC PUSH1 0x4 DUP1 CALLDATASIZE SUB DUP2 ADD SWAP1 PUSH2 0x1D7 SWAP2 SWAP1 PUSH2 0x2D34 JUMP JUMPDEST PUSH2 0x4D3 JUMP JUMPDEST STOP JUMPDEST PUSH2 0x1F8 PUSH1 0x4 DUP1 CALLDATASIZE SUB DUP2 ADD SWAP1 PUSH2 0x1F3 SWAP2 SWAP1 PUSH2 0x2D34 JUMP JUMPDEST PUSH2 0x558 JUMP JUMPDEST STOP JUMPDEST PUSH2 0x202 PUSH2 0x739 JUMP JUMPDEST PUSH1 0x40 MLOAD PUSH2 0x210 SWAP3 SWAP2 SWAP1 PUSH2 0x2D70 JUMP JUMPDEST PUSH1 0x40 MLOAD DUP1 SWAP2 SUB SWAP1 RETURN JUMPDEST PUSH2 0x221 PUSH2 0x819 JUMP JUMPDEST STOP JUMPDEST PUSH2 0x22B PUSH2 0x9F3 JUMP JUMPDEST PUSH1 0x40 MLOAD PUSH2 0x238 SWAP2 SWAP1 PUSH2 0x2DB2 JUMP JUMPDEST PUSH1 0x40 MLOAD DUP1 SWAP2 SUB SWAP1 RETURN JUMPDEST PUSH2 0x249 PUSH2 0xB93 JUMP JUMPDEST STOP JUMPDEST PUSH2 0x253 PUSH2 0xD4E JUMP JUMPDEST PUSH1 0x40 MLOAD PUSH2 0x260 SWAP2 SWAP1 PUSH2 0x2DE8 JUMP JUMPDEST PUSH1 0x40 MLOAD DUP1 SWAP2 SUB SWAP1 RETURN JUMPDEST PUSH2 0x283 PUSH1 0x4 DUP1 CALLDATASIZE SUB DUP2 ADD SWAP1 PUSH2 0x27E SWAP2 SWAP1 PUSH2 0x2E2F JUMP JUMPDEST PUSH2 0xD64 JUMP JUMPDEST PUSH1 0x40 MLOAD PUSH2 0x290 SWAP2 SWAP1 PUSH2 0x2DE8 JUMP JUMPDEST PUSH1 0x40 MLOAD DUP1 SWAP2 SUB SWAP1 RETURN JUMPDEST PUSH2 0x2A1 PUSH2 0xE40 JUMP JUMPDEST STOP JUMPDEST PUSH2 0x2AB PUSH2 0xE54 JUMP JUMPDEST PUSH1 0x40 MLOAD PUSH2 0x2B8 SWAP2 SWAP1 PUSH2 0x2DB2 JUMP JUMPDEST PUSH1 0x40 MLOAD DUP1 SWAP2 SUB SWAP1 RETURN JUMPDEST PUSH2 0x2DB PUSH1 0x4 DUP1 CALLDATASIZE SUB DUP2 ADD SWAP1 PUSH2 0x2D6 SWAP2 SWAP1 PUSH2 0x2E82 JUMP JUMPDEST PUSH2 0xEF5 JUMP JUMPDEST PUSH1 0x40 MLOAD PUSH2 0x2E8 SWAP2 SWAP1 PUSH2 0x2DB2 JUMP JUMPDEST PUSH1 0x40 MLOAD DUP1 SWAP2 SUB SWAP1 RETURN JUMPDEST PUSH2 0x2F9 PUSH2 0xF93 JUMP JUMPDEST PUSH1 0x40 MLOAD PUSH2 0x306 SWAP2 SWAP1 PUSH2 0x2ED5 JUMP JUMPDEST PUSH1 0x40 MLOAD DUP1 SWAP2 SUB SWAP1 RETURN JUMPDEST PUSH2 0x329 PUSH1 0x4 DUP1 CALLDATASIZE SUB DUP2 ADD SWAP1 PUSH2 0x324 SWAP2 SWAP1 PUSH2 0x2EF0 JUMP JUMPDEST PUSH2 0xFBC JUMP JUMPDEST STOP JUMPDEST PUSH2 0x333 PUSH2 0x10D7 JUMP JUMPDEST PUSH1 0x40 MLOAD PUSH2 0x340 SWAP2 SWAP1 PUSH2 0x2DB2 JUMP JUMPDEST PUSH1 0x40 MLOAD DUP1 SWAP2 SUB SWAP1 RETURN JUMPDEST PUSH2 0x351 PUSH2 0x1277 JUMP JUMPDEST PUSH1 0x40 MLOAD PUSH2 0x35E SWAP2 SWAP1 PUSH2 0x2DB2 JUMP JUMPDEST PUSH1 0x40 MLOAD DUP1 SWAP2 SUB SWAP1 RETURN JUMPDEST PUSH2 0x36F PUSH2 0x141F JUMP JUMPDEST PUSH1 0x40 MLOAD PUSH2 0x37C SWAP2 SWAP1 PUSH2 0x2DB2 JUMP JUMPDEST PUSH1 0x40 MLOAD DUP1 SWAP2 SUB SWAP1 RETURN JUMPDEST PUSH2 0x38D PUSH2 0x1429 JUMP JUMPDEST PUSH1 0x40 MLOAD PUSH2 0x39A SWAP2 SWAP1 PUSH2 0x2DB2 JUMP JUMPDEST PUSH1 0x40 MLOAD DUP1 SWAP2 SUB SWAP1 RETURN JUMPDEST PUSH2 0x3BD PUSH1 0x4 DUP1 CALLDATASIZE SUB DUP2 ADD SWAP1 PUSH2 0x3B8 SWAP2 SWAP1 PUSH2 0x2F53 JUMP JUMPDEST PUSH2 0x15C9 JUMP JUMPDEST STOP JUMPDEST PUSH2 0x3C7 PUSH2 0x177A JUMP JUMPDEST PUSH1 0x40 MLOAD PUSH2 0x3D5 SWAP3 SWAP2 SWAP1 PUSH2 0x3023 JUMP JUMPDEST PUSH1 0x40 MLOAD DUP1 SWAP2 SUB SWAP1 RETURN JUMPDEST PUSH2 0x3F8 PUSH1 0x4 DUP1 CALLDATASIZE SUB DUP2 ADD SWAP1 PUSH2 0x3F3 SWAP2 SWAP1 PUSH2 0x2D34 JUMP JUMPDEST PUSH2 0x19D2 JUMP JUMPDEST STOP JUMPDEST PUSH2 0x414 PUSH1 0x4 DUP1 CALLDATASIZE SUB DUP2 ADD SWAP1 PUSH2 0x40F SWAP2 SWAP1 PUSH2 0x2D34 JUMP JUMPDEST PUSH2 0x1A57 JUMP JUMPDEST PUSH1 0x40 MLOAD PUSH2 0x421 SWAP2 SWAP1 PUSH2 0x2DB2 JUMP JUMPDEST PUSH1 0x40 MLOAD DUP1 SWAP2 SUB SWAP1 RETURN JUMPDEST PUSH2 0x432 PUSH2 0x1AE2 JUMP JUMPDEST PUSH1 0x40 MLOAD PUSH2 0x440 SWAP3 SWAP2 SWAP1 PUSH2 0x3053 JUMP JUMPDEST PUSH1 0x40 MLOAD DUP1 SWAP2 SUB SWAP1 RETURN JUMPDEST PUSH2 0x451 PUSH2 0x1B62 JUMP JUMPDEST STOP JUMPDEST PUSH2 0x46D PUSH1 0x4 DUP1 CALLDATASIZE SUB DUP2 ADD SWAP1 PUSH2 0x468 SWAP2 SWAP1 PUSH2 0x2EF0 JUMP JUMPDEST PUSH2 0x1D06 JUMP JUMPDEST PUSH1 0x40 MLOAD PUSH2 0x47A SWAP2 SWAP1 PUSH2 0x2DE8 JUMP JUMPDEST PUSH1 0x40 MLOAD DUP1 SWAP2 SUB SWAP1 RETURN JUMPDEST PUSH2 0x49D PUSH1 0x4 DUP1 CALLDATASIZE SUB DUP2 ADD SWAP1 PUSH2 0x498 SWAP2 SWAP1 PUSH2 0x2D34 JUMP JUMPDEST PUSH2 0x2160 JUMP JUMPDEST STOP JUMPDEST PUSH2 0x4A7 PUSH2 0x21E3 JUMP JUMPDEST PUSH2 0x4AF PUSH2 0x222C JUMP JUMPDEST PUSH2 0x4B7 PUSH2 0x22AA JUMP JUMPDEST JUMP JUMPDEST PUSH2 0x4C1 PUSH2 0x230C JUMP JUMPDEST PUSH2 0x4C9 PUSH2 0x222C JUMP JUMPDEST PUSH2 0x4D1 PUSH2 0x2356 JUMP JUMPDEST JUMP JUMPDEST PUSH2 0x4DB PUSH2 0x222C JUMP JUMPDEST PUSH1 0x0 PUSH20 0xFFFFFFFFFFFFFFFFFFFFFFFFFFFFFFFFFFFFFFFF AND DUP2 PUSH20 0xFFFFFFFFFFFFFFFFFFFFFFFFFFFFFFFFFFFFFFFF AND SUB PUSH2 0x514 JUMPI PUSH1 0x0 DUP1 REVERT JUMPDEST DUP1 PUSH1 0x6 PUSH1 0x0 PUSH2 0x100 EXP DUP2 SLOAD DUP2 PUSH20 0xFFFFFFFFFFFFFFFFFFFFFFFFFFFFFFFFFFFFFFFF MUL NOT AND SWAP1 DUP4 PUSH20 0xFFFFFFFFFFFFFFFFFFFFFFFFFFFFFFFFFFFFFFFF AND MUL OR SWAP1 SSTORE POP POP JUMP JUMPDEST PUSH1 0x0 PUSH20 0xFFFFFFFFFFFFFFFFFFFFFFFFFFFFFFFFFFFFFFFF AND PUSH1 0x1 PUSH1 0x0 SWAP1 SLOAD SWAP1 PUSH2 0x100 EXP SWAP1 DIV PUSH20 0xFFFFFFFFFFFFFFFFFFFFFFFFFFFFFFFFFFFFFFFF AND PUSH20 0xFFFFFFFFFFFFFFFFFFFFFFFFFFFFFFFFFFFFFFFF AND SUB PUSH2 0x5E9 JUMPI PUSH1 0x40 MLOAD PUSH32 0x8C379A000000000000000000000000000000000000000000000000000000000 DUP2 MSTORE PUSH1 0x4 ADD PUSH2 0x5E0 SWAP1 PUSH2 0x30CF JUMP JUMPDEST PUSH1 0x40 MLOAD DUP1 SWAP2 SUB SWAP1 REVERT JUMPDEST PUSH1 0x1 PUSH1 0x0 SWAP1 SLOAD SWAP1 PUSH2 0x100 EXP SWAP1 DIV PUSH20 0xFFFFFFFFFFFFFFFFFFFFFFFFFFFFFFFFFFFFFFFF AND PUSH20 0xFFFFFFFFFFFFFFFFFFFFFFFFFFFFFFFFFFFFFFFF AND CALLER PUSH20 0xFFFFFFFFFFFFFFFFFFFFFFFFFFFFFFFFFFFFFFFF AND EQ PUSH2 0x679 JUMPI PUSH1 0x40 MLOAD PUSH32 0x8C379A000000000000000000000000000000000000000000000000000000000 DUP2 MSTORE PUSH1 0x4 ADD PUSH2 0x670 SWAP1 PUSH2 0x313B JUMP JUMPDEST PUSH1 0x40 MLOAD DUP1 SWAP2 SUB SWAP1 REVERT JUMPDEST PUSH1 0x0 PUSH20 0xFFFFFFFFFFFFFFFFFFFFFFFFFFFFFFFFFFFFFFFF AND DUP2 PUSH20 0xFFFFFFFFFFFFFFFFFFFFFFFFFFFFFFFFFFFFFFFF AND SUB PUSH2 0x6B2 JUMPI PUSH1 0x0 DUP1 REVERT JUMPDEST DUP1 PUSH1 0x1 PUSH1 0x0 PUSH2 0x100 EXP DUP2 SLOAD DUP2 PUSH20 0xFFFFFFFFFFFFFFFFFFFFFFFFFFFFFFFFFFFFFFFF MUL NOT AND SWAP1 DUP4 PUSH20 0xFFFFFFFFFFFFFFFFFFFFFFFFFFFFFFFFFFFFFFFF AND MUL OR SWAP1 SSTORE POP DUP1 PUSH20 0xFFFFFFFFFFFFFFFFFFFFFFFFFFFFFFFFFFFFFFFF AND PUSH32 0x8BBFEB6E784147166691D407A592A09379BBBD56888A96C54793BCE54BB57523 PUSH1 0x40 MLOAD PUSH1 0x40 MLOAD DUP1 SWAP2 SUB SWAP1 LOG2 POP JUMP JUMPDEST PUSH1 0x0 DUP1 PUSH1 0x0 PUSH20 0xFFFFFFFFFFFFFFFFFFFFFFFFFFFFFFFFFFFFFFFF AND PUSH1 0x1 PUSH1 0x0 SWAP1 SLOAD SWAP1 PUSH2 0x100 EXP SWAP1 DIV PUSH20 0xFFFFFFFFFFFFFFFFFFFFFFFFFFFFFFFFFFFFFFFF AND PUSH20 0xFFFFFFFFFFFFFFFFFFFFFFFFFFFFFFFFFFFFFFFF AND SUB PUSH2 0x7CD JUMPI PUSH1 0x40 MLOAD PUSH32 0x8C379A000000000000000000000000000000000000000000000000000000000 DUP2 MSTORE PUSH1 0x4 ADD PUSH2 0x7C4 SWAP1 PUSH2 0x30CF JUMP JUMPDEST PUSH1 0x40 MLOAD DUP1 SWAP2 SUB SWAP1 REVERT JUMPDEST PUSH32 0x0 PUSH1 0x1 PUSH1 0x0 SWAP1 SLOAD SWAP1 PUSH2 0x100 EXP SWAP1 DIV PUSH20 0xFFFFFFFFFFFFFFFFFFFFFFFFFFFFFFFFFFFFFFFF AND SWAP2 POP SWAP2 POP SWAP1 SWAP2 JUMP JUMPDEST PUSH2 0x821 PUSH2 0x230C JUMP JUMPDEST CALLER PUSH20 0xFFFFFFFFFFFFFFFFFFFFFFFFFFFFFFFFFFFFFFFF AND PUSH32 0x0 PUSH20 0xFFFFFFFFFFFFFFFFFFFFFFFFFFFFFFFFFFFFFFFF AND EQ PUSH2 0x8AF JUMPI PUSH1 0x40 MLOAD PUSH32 0x8C379A000000000000000000000000000000000000000000000000000000000 DUP2 MSTORE PUSH1 0x4 ADD PUSH2 0x8A6 SWAP1 PUSH2 0x31A7 JUMP JUMPDEST PUSH1 0x40 MLOAD DUP1 SWAP2 SUB SWAP1 REVERT JUMPDEST PUSH1 0x0 PUSH20 0xFFFFFFFFFFFFFFFFFFFFFFFFFFFFFFFFFFFFFFFF AND PUSH1 0x1 PUSH1 0x0 SWAP1 SLOAD SWAP1 PUSH2 0x100 EXP SWAP1 DIV PUSH20 0xFFFFFFFFFFFFFFFFFFFFFFFFFFFFFFFFFFFFFFFF AND PUSH20 0xFFFFFFFFFFFFFFFFFFFFFFFFFFFFFFFFFFFFFFFF AND EQ PUSH2 0x940 JUMPI PUSH1 0x40 MLOAD PUSH32 0x8C379A000000000000000000000000000000000000000000000000000000000 DUP2 MSTORE PUSH1 0x4 ADD PUSH2 0x937 SWAP1 PUSH2 0x3213 JUMP JUMPDEST PUSH1 0x40 MLOAD DUP1 SWAP2 SUB SWAP1 REVERT JUMPDEST CALLER PUSH1 0x1 PUSH1 0x0 PUSH2 0x100 EXP DUP2 SLOAD DUP2 PUSH20 0xFFFFFFFFFFFFFFFFFFFFFFFFFFFFFFFFFFFFFFFF MUL NOT AND SWAP1 DUP4 PUSH20 0xFFFFFFFFFFFFFFFFFFFFFFFFFFFFFFFFFFFFFFFF AND MUL OR SWAP1 SSTORE POP PUSH1 0x1 PUSH1 0x0 SWAP1 SLOAD SWAP1 PUSH2 0x100 EXP SWAP1 DIV PUSH20 0xFFFFFFFFFFFFFFFFFFFFFFFFFFFFFFFFFFFFFFFF AND PUSH20 0xFFFFFFFFFFFFFFFFFFFFFFFFFFFFFFFFFFFFFFFF AND PUSH32 0xFBD0A3F6E9A0DD5F834515748047E83DE8064477489A0A0D6B59C64BBECC992A TIMESTAMP PUSH1 0x40 MLOAD PUSH2 0x9E9 SWAP2 SWAP1 PUSH2 0x2DB2 JUMP JUMPDEST PUSH1 0x40 MLOAD DUP1 SWAP2 SUB SWAP1 LOG2 JUMP JUMPDEST PUSH1 0x0 DUP1 PUSH20 0xFFFFFFFFFFFFFFFFFFFFFFFFFFFFFFFFFFFFFFFF AND PUSH1 0x1 PUSH1 0x0 SWAP1 SLOAD SWAP1 PUSH2 0x100 EXP SWAP1 DIV PUSH20 0xFFFFFFFFFFFFFFFFFFFFFFFFFFFFFFFFFFFFFFFF AND PUSH20 0xFFFFFFFFFFFFFFFFFFFFFFFFFFFFFFFFFFFFFFFF AND SUB PUSH2 0xA85 JUMPI PUSH1 0x40 MLOAD PUSH32 0x8C379A000000000000000000000000000000000000000000000000000000000 DUP2 MSTORE PUSH1 0x4 ADD PUSH2 0xA7C SWAP1 PUSH2 0x30CF JUMP JUMPDEST PUSH1 0x40 MLOAD DUP1 SWAP2 SUB SWAP1 REVERT JUMPDEST PUSH1 0x0 PUSH20 0xFFFFFFFFFFFFFFFFFFFFFFFFFFFFFFFFFFFFFFFF AND CALLER PUSH20 0xFFFFFFFFFFFFFFFFFFFFFFFFFFFFFFFFFFFFFFFF AND SUB PUSH2 0xABE JUMPI PUSH1 0x0 DUP1 REVERT JUMPDEST PUSH1 0x1 PUSH1 0x0 SWAP1 SLOAD SWAP1 PUSH2 0x100 EXP SWAP1 DIV PUSH20 0xFFFFFFFFFFFFFFFFFFFFFFFFFFFFFFFFFFFFFFFF AND PUSH20 0xFFFFFFFFFFFFFFFFFFFFFFFFFFFFFFFFFFFFFFFF AND CALLER PUSH20 0xFFFFFFFFFFFFFFFFFFFFFFFFFFFFFFFFFFFFFFFF AND EQ DUP1 PUSH2 0xB4C JUMPI POP PUSH2 0xB1D PUSH2 0xF93 JUMP JUMPDEST PUSH20 0xFFFFFFFFFFFFFFFFFFFFFFFFFFFFFFFFFFFFFFFF AND CALLER PUSH20 0xFFFFFFFFFFFFFFFFFFFFFFFFFFFFFFFFFFFFFFFF AND EQ JUMPDEST PUSH2 0xB8B JUMPI PUSH1 0x40 MLOAD PUSH32 0x8C379A000000000000000000000000000000000000000000000000000000000 DUP2 MSTORE PUSH1 0x4 ADD PUSH2 0xB82 SWAP1 PUSH2 0x32A5 JUMP JUMPDEST PUSH1 0x40 MLOAD DUP1 SWAP2 SUB SWAP1 REVERT JUMPDEST PUSH1 0x2 SLOAD SWAP1 POP SWAP1 JUMP JUMPDEST PUSH1 0x0 PUSH20 0xFFFFFFFFFFFFFFFFFFFFFFFFFFFFFFFFFFFFFFFF AND PUSH1 0x1 PUSH1 0x0 SWAP1 SLOAD SWAP1 PUSH2 0x100 EXP SWAP1 DIV PUSH20 0xFFFFFFFFFFFFFFFFFFFFFFFFFFFFFFFFFFFFFFFF AND PUSH20 0xFFFFFFFFFFFFFFFFFFFFFFFFFFFFFFFFFFFFFFFF AND SUB PUSH2 0xC24 JUMPI PUSH1 0x40 MLOAD PUSH32 0x8C379A000000000000000000000000000000000000000000000000000000000 DUP2 MSTORE PUSH1 0x4 ADD PUSH2 0xC1B SWAP1 PUSH2 0x30CF JUMP JUMPDEST PUSH1 0x40 MLOAD DUP1 SWAP2 SUB SWAP1 REVERT JUMPDEST PUSH1 0x1 PUSH1 0x0 SWAP1 SLOAD SWAP1 PUSH2 0x100 EXP SWAP1 DIV PUSH20 0xFFFFFFFFFFFFFFFFFFFFFFFFFFFFFFFFFFFFFFFF AND PUSH20 0xFFFFFFFFFFFFFFFFFFFFFFFFFFFFFFFFFFFFFFFF AND CALLER PUSH20 0xFFFFFFFFFFFFFFFFFFFFFFFFFFFFFFFFFFFFFFFF AND EQ PUSH2 0xCB4 JUMPI PUSH1 0x40 MLOAD PUSH32 0x8C379A000000000000000000000000000000000000000000000000000000000 DUP2 MSTORE PUSH1 0x4 ADD PUSH2 0xCAB SWAP1 PUSH2 0x313B JUMP JUMPDEST PUSH1 0x40 MLOAD DUP1 SWAP2 SUB SWAP1 REVERT JUMPDEST PUSH2 0xCBC PUSH2 0x230C JUMP JUMPDEST PUSH1 0x0 PUSH1 0x1 PUSH1 0x0 PUSH2 0x100 EXP DUP2 SLOAD DUP2 PUSH20 0xFFFFFFFFFFFFFFFFFFFFFFFFFFFFFFFFFFFFFFFF MUL NOT AND SWAP1 DUP4 PUSH20 0xFFFFFFFFFFFFFFFFFFFFFFFFFFFFFFFFFFFFFFFF AND MUL OR SWAP1 SSTORE POP CALLER PUSH20 0xFFFFFFFFFFFFFFFFFFFFFFFFFFFFFFFFFFFFFFFF AND PUSH32 0x13B865880A841DC469B629159FA1E730FEE99568B0DECC6737FD688B36246381 TIMESTAMP PUSH1 0x40 MLOAD PUSH2 0xD44 SWAP2 SWAP1 PUSH2 0x2DB2 JUMP JUMPDEST PUSH1 0x40 MLOAD DUP1 SWAP2 SUB SWAP1 LOG2 JUMP JUMPDEST PUSH1 0x0 DUP1 PUSH1 0x0 SWAP1 SLOAD SWAP1 PUSH2 0x100 EXP SWAP1 DIV PUSH1 0xFF AND SWAP1 POP SWAP1 JUMP JUMPDEST PUSH1 0x0 PUSH2 0xD6E PUSH2 0x222C JUMP JUMPDEST DUP2 PUSH2 0xD78 DUP6 PUSH2 0x1A57 JUMP JUMPDEST LT ISZERO PUSH2 0xDB9 JUMPI PUSH1 0x40 MLOAD PUSH32 0x8C379A000000000000000000000000000000000000000000000000000000000 DUP2 MSTORE PUSH1 0x4 ADD PUSH2 0xDB0 SWAP1 PUSH2 0x3311 JUMP JUMPDEST PUSH1 0x40 MLOAD DUP1 SWAP2 SUB SWAP1 REVERT JUMPDEST DUP4 PUSH20 0xFFFFFFFFFFFFFFFFFFFFFFFFFFFFFFFFFFFFFFFF AND PUSH4 0xA9059CBB DUP5 DUP5 PUSH1 0x40 MLOAD DUP4 PUSH4 0xFFFFFFFF AND PUSH1 0xE0 SHL DUP2 MSTORE PUSH1 0x4 ADD PUSH2 0xDF4 SWAP3 SWAP2 SWAP1 PUSH2 0x3331 JUMP JUMPDEST PUSH1 0x20 PUSH1 0x40 MLOAD DUP1 DUP4 SUB DUP2 PUSH1 0x0 DUP8 GAS CALL ISZERO DUP1 ISZERO PUSH2 0xE13 JUMPI RETURNDATASIZE PUSH1 0x0 DUP1 RETURNDATACOPY RETURNDATASIZE PUSH1 0x0 REVERT JUMPDEST POP POP POP POP PUSH1 0x40 MLOAD RETURNDATASIZE PUSH1 0x1F NOT PUSH1 0x1F DUP3 ADD AND DUP3 ADD DUP1 PUSH1 0x40 MSTORE POP DUP2 ADD SWAP1 PUSH2 0xE37 SWAP2 SWAP1 PUSH2 0x3386 JUMP JUMPDEST SWAP1 POP SWAP4 SWAP3 POP POP POP JUMP JUMPDEST PUSH2 0xE48 PUSH2 0x222C JUMP JUMPDEST PUSH2 0xE52 PUSH1 0x0 PUSH2 0x23B8 JUMP JUMPDEST JUMP JUMPDEST PUSH1 0x0 PUSH32 0x0 PUSH20 0xFFFFFFFFFFFFFFFFFFFFFFFFFFFFFFFFFFFFFFFF AND PUSH4 0x70A08231 ADDRESS PUSH1 0x40 MLOAD DUP3 PUSH4 0xFFFFFFFF AND PUSH1 0xE0 SHL DUP2 MSTORE PUSH1 0x4 ADD PUSH2 0xEAF SWAP2 SWAP1 PUSH2 0x2ED5 JUMP JUMPDEST PUSH1 0x20 PUSH1 0x40 MLOAD DUP1 DUP4 SUB DUP2 DUP7 GAS STATICCALL ISZERO DUP1 ISZERO PUSH2 0xECC JUMPI RETURNDATASIZE PUSH1 0x0 DUP1 RETURNDATACOPY RETURNDATASIZE PUSH1 0x0 REVERT JUMPDEST POP POP POP POP PUSH1 0x40 MLOAD RETURNDATASIZE PUSH1 0x1F NOT PUSH1 0x1F DUP3 ADD AND DUP3 ADD DUP1 PUSH1 0x40 MSTORE POP DUP2 ADD SWAP1 PUSH2 0xEF0 SWAP2 SWAP1 PUSH2 0x33C8 JUMP JUMPDEST SWAP1 POP SWAP1 JUMP JUMPDEST PUSH1 0x0 PUSH2 0xEFF PUSH2 0x222C JUMP JUMPDEST PUSH1 0x0 DUP4 GT DUP1 ISZERO PUSH2 0xF0F JUMPI POP PUSH1 0x0 DUP5 GT JUMPDEST DUP1 ISZERO PUSH2 0xF1B JUMPI POP PUSH1 0x0 DUP3 GT JUMPDEST PUSH2 0xF5A JUMPI PUSH1 0x40 MLOAD PUSH32 0x8C379A000000000000000000000000000000000000000000000000000000000 DUP2 MSTORE PUSH1 0x4 ADD PUSH2 0xF51 SWAP1 PUSH2 0x3467 JUMP JUMPDEST PUSH1 0x40 MLOAD DUP1 SWAP2 SUB SWAP1 REVERT JUMPDEST PUSH1 0x5 SLOAD DUP4 DUP4 PUSH1 0xA PUSH2 0xF6B SWAP2 SWAP1 PUSH2 0x35E9 JUMP JUMPDEST DUP7 PUSH2 0xF76 SWAP2 SWAP1 PUSH2 0x3634 JUMP JUMPDEST PUSH2 0xF80 SWAP2 SWAP1 PUSH2 0x36A5 JUMP JUMPDEST PUSH2 0xF8A SWAP2 SWAP1 PUSH2 0x3634 JUMP JUMPDEST SWAP1 POP SWAP4 SWAP3 POP POP POP JUMP JUMPDEST PUSH1 0x0 DUP1 PUSH1 0x1 SWAP1 SLOAD SWAP1 PUSH2 0x100 EXP SWAP1 DIV PUSH20 0xFFFFFFFFFFFFFFFFFFFFFFFFFFFFFFFFFFFFFFFF AND SWAP1 POP SWAP1 JUMP JUMPDEST PUSH2 0xFC4 PUSH2 0x230C JUMP JUMPDEST PUSH2 0xFCC PUSH2 0x222C JUMP JUMPDEST PUSH1 0x0 DUP2 GT PUSH2 0x100F JUMPI PUSH1 0x40 MLOAD PUSH32 0x8C379A000000000000000000000000000000000000000000000000000000000 DUP2 MSTORE PUSH1 0x4 ADD PUSH2 0x1006 SWAP1 PUSH2 0x3722 JUMP JUMPDEST PUSH1 0x40 MLOAD DUP1 SWAP2 SUB SWAP1 REVERT JUMPDEST PUSH1 0xA DUP2 LT PUSH2 0x1052 JUMPI PUSH1 0x40 MLOAD PUSH32 0x8C379A000000000000000000000000000000000000000000000000000000000 DUP2 MSTORE PUSH1 0x4 ADD PUSH2 0x1049 SWAP1 PUSH2 0x37B4 JUMP JUMPDEST PUSH1 0x40 MLOAD DUP1 SWAP2 SUB SWAP1 REVERT JUMPDEST PUSH1 0x5 SLOAD DUP2 SUB PUSH2 0x1096 JUMPI PUSH1 0x40 MLOAD PUSH32 0x8C379A000000000000000000000000000000000000000000000000000000000 DUP2 MSTORE PUSH1 0x4 ADD PUSH2 0x108D SWAP1 PUSH2 0x3846 JUMP JUMPDEST PUSH1 0x40 MLOAD DUP1 SWAP2 SUB SWAP1 REVERT JUMPDEST PUSH32 0x915DFCCC9E27D5F39C81040570F4D4BCC015BC6A0B61A08CE416EBE4A91FC1C5 DUP2 PUSH1 0x40 MLOAD PUSH2 0x10C5 SWAP2 SWAP1 PUSH2 0x2DB2 JUMP JUMPDEST PUSH1 0x40 MLOAD DUP1 SWAP2 SUB SWAP1 LOG1 DUP1 PUSH1 0x5 DUP2 SWAP1 SSTORE POP POP JUMP JUMPDEST PUSH1 0x0 DUP1 PUSH20 0xFFFFFFFFFFFFFFFFFFFFFFFFFFFFFFFFFFFFFFFF AND PUSH1 0x1 PUSH1 0x0 SWAP1 SLOAD SWAP1 PUSH2 0x100 EXP SWAP1 DIV PUSH20 0xFFFFFFFFFFFFFFFFFFFFFFFFFFFFFFFFFFFFFFFF AND PUSH20 0xFFFFFFFFFFFFFFFFFFFFFFFFFFFFFFFFFFFFFFFF AND SUB PUSH2 0x1169 JUMPI PUSH1 0x40 MLOAD PUSH32 0x8C379A000000000000000000000000000000000000000000000000000000000 DUP2 MSTORE PUSH1 0x4 ADD PUSH2 0x1160 SWAP1 PUSH2 0x30CF JUMP JUMPDEST PUSH1 0x40 MLOAD DUP1 SWAP2 SUB SWAP1 REVERT JUMPDEST PUSH1 0x0 PUSH20 0xFFFFFFFFFFFFFFFFFFFFFFFFFFFFFFFFFFFFFFFF AND CALLER PUSH20 0xFFFFFFFFFFFFFFFFFFFFFFFFFFFFFFFFFFFFFFFF AND SUB PUSH2 0x11A2 JUMPI PUSH1 0x0 DUP1 REVERT JUMPDEST PUSH1 0x1 PUSH1 0x0 SWAP1 SLOAD SWAP1 PUSH2 0x100 EXP SWAP1 DIV PUSH20 0xFFFFFFFFFFFFFFFFFFFFFFFFFFFFFFFFFFFFFFFF AND PUSH20 0xFFFFFFFFFFFFFFFFFFFFFFFFFFFFFFFFFFFFFFFF AND CALLER PUSH20 0xFFFFFFFFFFFFFFFFFFFFFFFFFFFFFFFFFFFFFFFF AND EQ DUP1 PUSH2 0x1230 JUMPI POP PUSH2 0x1201 PUSH2 0xF93 JUMP JUMPDEST PUSH20 0xFFFFFFFFFFFFFFFFFFFFFFFFFFFFFFFFFFFFFFFF AND CALLER PUSH20 0xFFFFFFFFFFFFFFFFFFFFFFFFFFFFFFFFFFFFFFFF AND EQ JUMPDEST PUSH2 0x126F JUMPI PUSH1 0x40 MLOAD PUSH32 0x8C379A000000000000000000000000000000000000000000000000000000000 DUP2 MSTORE PUSH1 0x4 ADD PUSH2 0x1266 SWAP1 PUSH2 0x32A5 JUMP JUMPDEST PUSH1 0x40 MLOAD DUP1 SWAP2 SUB SWAP1 REVERT JUMPDEST PUSH1 0x4 SLOAD SWAP1 POP SWAP1 JUMP JUMPDEST PUSH1 0x0 DUP1 PUSH20 0xFFFFFFFFFFFFFFFFFFFFFFFFFFFFFFFFFFFFFFFF AND CALLER PUSH20 0xFFFFFFFFFFFFFFFFFFFFFFFFFFFFFFFFFFFFFFFF AND SUB PUSH2 0x12B1 JUMPI PUSH1 0x0 DUP1 REVERT JUMPDEST PUSH1 0x1 PUSH1 0x0 SWAP1 SLOAD SWAP1 PUSH2 0x100 EXP SWAP1 DIV PUSH20 0xFFFFFFFFFFFFFFFFFFFFFFFFFFFFFFFFFFFFFFFF AND PUSH20 0xFFFFFFFFFFFFFFFFFFFFFFFFFFFFFFFFFFFFFFFF AND CALLER PUSH20 0xFFFFFFFFFFFFFFFFFFFFFFFFFFFFFFFFFFFFFFFF AND EQ DUP1 PUSH2 0x133F JUMPI POP PUSH2 0x1310 PUSH2 0xF93 JUMP JUMPDEST PUSH20 0xFFFFFFFFFFFFFFFFFFFFFFFFFFFFFFFFFFFFFFFF AND CALLER PUSH20 0xFFFFFFFFFFFFFFFFFFFFFFFFFFFFFFFFFFFFFFFF AND EQ JUMPDEST PUSH2 0x137E JUMPI PUSH1 0x40 MLOAD PUSH32 0x8C379A000000000000000000000000000000000000000000000000000000000 DUP2 MSTORE PUSH1 0x4 ADD PUSH2 0x1375 SWAP1 PUSH2 0x32A5 JUMP JUMPDEST PUSH1 0x40 MLOAD DUP1 SWAP2 SUB SWAP1 REVERT JUMPDEST PUSH32 0x0 PUSH20 0xFFFFFFFFFFFFFFFFFFFFFFFFFFFFFFFFFFFFFFFF AND PUSH4 0xDD62ED3E CALLER ADDRESS PUSH1 0x40 MLOAD DUP4 PUSH4 0xFFFFFFFF AND PUSH1 0xE0 SHL DUP2 MSTORE PUSH1 0x4 ADD PUSH2 0x13D9 SWAP3 SWAP2 SWAP1 PUSH2 0x2D70 JUMP JUMPDEST PUSH1 0x20 PUSH1 0x40 MLOAD DUP1 DUP4 SUB DUP2 DUP7 GAS STATICCALL ISZERO DUP1 ISZERO PUSH2 0x13F6 JUMPI RETURNDATASIZE PUSH1 0x0 DUP1 RETURNDATACOPY RETURNDATASIZE PUSH1 0x0 REVERT JUMPDEST POP POP POP POP PUSH1 0x40 MLOAD RETURNDATASIZE PUSH1 0x1F NOT PUSH1 0x1F DUP3 ADD AND DUP3 ADD DUP1 PUSH1 0x40 MSTORE POP DUP2 ADD SWAP1 PUSH2 0x141A SWAP2 SWAP1 PUSH2 0x33C8 JUMP JUMPDEST SWAP1 POP SWAP1 JUMP JUMPDEST PUSH1 0x0 PUSH1 0x5 SLOAD SWAP1 POP SWAP1 JUMP JUMPDEST PUSH1 0x0 DUP1 PUSH20 0xFFFFFFFFFFFFFFFFFFFFFFFFFFFFFFFFFFFFFFFF AND PUSH1 0x1 PUSH1 0x0 SWAP1 SLOAD SWAP1 PUSH2 0x100 EXP SWAP1 DIV PUSH20 0xFFFFFFFFFFFFFFFFFFFFFFFFFFFFFFFFFFFFFFFF AND PUSH20 0xFFFFFFFFFFFFFFFFFFFFFFFFFFFFFFFFFFFFFFFF AND SUB PUSH2 0x14BB JUMPI PUSH1 0x40 MLOAD PUSH32 0x8C379A000000000000000000000000000000000000000000000000000000000 DUP2 MSTORE PUSH1 0x4 ADD PUSH2 0x14B2 SWAP1 PUSH2 0x30CF JUMP JUMPDEST PUSH1 0x40 MLOAD DUP1 SWAP2 SUB SWAP1 REVERT JUMPDEST PUSH1 0x0 PUSH20 0xFFFFFFFFFFFFFFFFFFFFFFFFFFFFFFFFFFFFFFFF AND CALLER PUSH20 0xFFFFFFFFFFFFFFFFFFFFFFFFFFFFFFFFFFFFFFFF AND SUB PUSH2 0x14F4 JUMPI PUSH1 0x0 DUP1 REVERT JUMPDEST PUSH1 0x1 PUSH1 0x0 SWAP1 SLOAD SWAP1 PUSH2 0x100 EXP SWAP1 DIV PUSH20 0xFFFFFFFFFFFFFFFFFFFFFFFFFFFFFFFFFFFFFFFF AND PUSH20 0xFFFFFFFFFFFFFFFFFFFFFFFFFFFFFFFFFFFFFFFF AND CALLER PUSH20 0xFFFFFFFFFFFFFFFFFFFFFFFFFFFFFFFFFFFFFFFF AND EQ DUP1 PUSH2 0x1582 JUMPI POP PUSH2 0x1553 PUSH2 0xF93 JUMP JUMPDEST PUSH20 0xFFFFFFFFFFFFFFFFFFFFFFFFFFFFFFFFFFFFFFFF AND CALLER PUSH20 0xFFFFFFFFFFFFFFFFFFFFFFFFFFFFFFFFFFFFFFFF AND EQ JUMPDEST PUSH2 0x15C1 JUMPI PUSH1 0x40 MLOAD PUSH32 0x8C379A000000000000000000000000000000000000000000000000000000000 DUP2 MSTORE PUSH1 0x4 ADD PUSH2 0x15B8 SWAP1 PUSH2 0x32A5 JUMP JUMPDEST PUSH1 0x40 MLOAD DUP1 SWAP2 SUB SWAP1 REVERT JUMPDEST PUSH1 0x3 SLOAD SWAP1 POP SWAP1 JUMP JUMPDEST PUSH2 0x15D1 PUSH2 0x222C JUMP JUMPDEST PUSH1 0x0 PUSH20 0xFFFFFFFFFFFFFFFFFFFFFFFFFFFFFFFFFFFFFFFF AND PUSH1 0x1 PUSH1 0x0 SWAP1 SLOAD SWAP1 PUSH2 0x100 EXP SWAP1 DIV PUSH20 0xFFFFFFFFFFFFFFFFFFFFFFFFFFFFFFFFFFFFFFFF AND PUSH20 0xFFFFFFFFFFFFFFFFFFFFFFFFFFFFFFFFFFFFFFFF AND SUB PUSH2 0x1662 JUMPI PUSH1 0x40 MLOAD PUSH32 0x8C379A000000000000000000000000000000000000000000000000000000000 DUP2 MSTORE PUSH1 0x4 ADD PUSH2 0x1659 SWAP1 PUSH2 0x30CF JUMP JUMPDEST PUSH1 0x40 MLOAD DUP1 SWAP2 SUB SWAP1 REVERT JUMPDEST PUSH1 0x4 SLOAD DUP3 GT ISZERO PUSH2 0x16A7 JUMPI PUSH1 0x40 MLOAD PUSH32 0x8C379A000000000000000000000000000000000000000000000000000000000 DUP2 MSTORE PUSH1 0x4 ADD PUSH2 0x169E SWAP1 PUSH2 0x38D8 JUMP JUMPDEST PUSH1 0x40 MLOAD DUP1 SWAP2 SUB SWAP1 REVERT JUMPDEST PUSH1 0x0 DUP3 GT PUSH2 0x16EA JUMPI PUSH1 0x40 MLOAD PUSH32 0x8C379A000000000000000000000000000000000000000000000000000000000 DUP2 MSTORE PUSH1 0x4 ADD PUSH2 0x16E1 SWAP1 PUSH2 0x396A JUMP JUMPDEST PUSH1 0x40 MLOAD DUP1 SWAP2 SUB SWAP1 REVERT JUMPDEST PUSH1 0x1 PUSH1 0x0 SWAP1 SLOAD SWAP1 PUSH2 0x100 EXP SWAP1 DIV PUSH20 0xFFFFFFFFFFFFFFFFFFFFFFFFFFFFFFFFFFFFFFFF AND PUSH20 0xFFFFFFFFFFFFFFFFFFFFFFFFFFFFFFFFFFFFFFFF AND TIMESTAMP PUSH32 0xCB8359F21FFCF3B9C3C2ACC9440E249150347B5AE18D588514823B72A98936C9 DUP5 DUP5 PUSH1 0x40 MLOAD PUSH2 0x1755 SWAP3 SWAP2 SWAP1 PUSH2 0x3999 JUMP JUMPDEST PUSH1 0x40 MLOAD DUP1 SWAP2 SUB SWAP1 LOG3 DUP2 PUSH1 0x4 PUSH1 0x0 DUP3 DUP3 SLOAD PUSH2 0x176F SWAP2 SWAP1 PUSH2 0x39C2 JUMP JUMPDEST SWAP3 POP POP DUP2 SWAP1 SSTORE POP POP POP JUMP JUMPDEST PUSH1 0x0 PUSH1 0x60 PUSH1 0x0 PUSH20 0xFFFFFFFFFFFFFFFFFFFFFFFFFFFFFFFFFFFFFFFF AND PUSH1 0x1 PUSH1 0x0 SWAP1 SLOAD SWAP1 PUSH2 0x100 EXP SWAP1 DIV PUSH20 0xFFFFFFFFFFFFFFFFFFFFFFFFFFFFFFFFFFFFFFFF AND PUSH20 0xFFFFFFFFFFFFFFFFFFFFFFFFFFFFFFFFFFFFFFFF AND SUB PUSH2 0x180F JUMPI PUSH1 0x40 MLOAD PUSH32 0x8C379A000000000000000000000000000000000000000000000000000000000 DUP2 MSTORE PUSH1 0x4 ADD PUSH2 0x1806 SWAP1 PUSH2 0x30CF JUMP JUMPDEST PUSH1 0x40 MLOAD DUP1 SWAP2 SUB SWAP1 REVERT JUMPDEST PUSH1 0x0 PUSH20 0xFFFFFFFFFFFFFFFFFFFFFFFFFFFFFFFFFFFFFFFF AND CALLER PUSH20 0xFFFFFFFFFFFFFFFFFFFFFFFFFFFFFFFFFFFFFFFF AND SUB PUSH2 0x1848 JUMPI PUSH1 0x0 DUP1 REVERT JUMPDEST PUSH1 0x1 PUSH1 0x0 SWAP1 SLOAD SWAP1 PUSH2 0x100 EXP SWAP1 DIV PUSH20 0xFFFFFFFFFFFFFFFFFFFFFFFFFFFFFFFFFFFFFFFF AND PUSH20 0xFFFFFFFFFFFFFFFFFFFFFFFFFFFFFFFFFFFFFFFF AND CALLER PUSH20 0xFFFFFFFFFFFFFFFFFFFFFFFFFFFFFFFFFFFFFFFF AND EQ DUP1 PUSH2 0x18D6 JUMPI POP PUSH2 0x18A7 PUSH2 0xF93 JUMP JUMPDEST PUSH20 0xFFFFFFFFFFFFFFFFFFFFFFFFFFFFFFFFFFFFFFFF AND CALLER PUSH20 0xFFFFFFFFFFFFFFFFFFFFFFFFFFFFFFFFFFFFFFFF AND EQ JUMPDEST PUSH2 0x1915 JUMPI PUSH1 0x40 MLOAD PUSH32 0x8C379A000000000000000000000000000000000000000000000000000000000 DUP2 MSTORE PUSH1 0x4 ADD PUSH2 0x190C SWAP1 PUSH2 0x32A5 JUMP JUMPDEST PUSH1 0x40 MLOAD DUP1 SWAP2 SUB SWAP1 REVERT JUMPDEST PUSH32 0x0 PUSH32 0x0 PUSH20 0xFFFFFFFFFFFFFFFFFFFFFFFFFFFFFFFFFFFFFFFF AND PUSH4 0x95D89B41 PUSH1 0x40 MLOAD DUP2 PUSH4 0xFFFFFFFF AND PUSH1 0xE0 SHL DUP2 MSTORE PUSH1 0x4 ADD PUSH1 0x0 PUSH1 0x40 MLOAD DUP1 DUP4 SUB DUP2 DUP7 GAS STATICCALL ISZERO DUP1 ISZERO PUSH2 0x19A1 JUMPI RETURNDATASIZE PUSH1 0x0 DUP1 RETURNDATACOPY RETURNDATASIZE PUSH1 0x0 REVERT JUMPDEST POP POP POP POP PUSH1 0x40 MLOAD RETURNDATASIZE PUSH1 0x0 DUP3 RETURNDATACOPY RETURNDATASIZE PUSH1 0x1F NOT PUSH1 0x1F DUP3 ADD AND DUP3 ADD DUP1 PUSH1 0x40 MSTORE POP DUP2 ADD SWAP1 PUSH2 0x19CA SWAP2 SWAP1 PUSH2 0x3B1C JUMP JUMPDEST SWAP2 POP SWAP2 POP SWAP1 SWAP2 JUMP JUMPDEST PUSH2 0x19DA PUSH2 0x222C JUMP JUMPDEST PUSH1 0x0 PUSH20 0xFFFFFFFFFFFFFFFFFFFFFFFFFFFFFFFFFFFFFFFF AND DUP2 PUSH20 0xFFFFFFFFFFFFFFFFFFFFFFFFFFFFFFFFFFFFFFFF AND SUB PUSH2 0x1A13 JUMPI PUSH1 0x0 DUP1 REVERT JUMPDEST DUP1 PUSH1 0x7 PUSH1 0x0 PUSH2 0x100 EXP DUP2 SLOAD DUP2 PUSH20 0xFFFFFFFFFFFFFFFFFFFFFFFFFFFFFFFFFFFFFFFF MUL NOT AND SWAP1 DUP4 PUSH20 0xFFFFFFFFFFFFFFFFFFFFFFFFFFFFFFFFFFFFFFFF AND MUL OR SWAP1 SSTORE POP POP JUMP JUMPDEST PUSH1 0x0 PUSH2 0x1A61 PUSH2 0x222C JUMP JUMPDEST DUP2 PUSH20 0xFFFFFFFFFFFFFFFFFFFFFFFFFFFFFFFFFFFFFFFF AND PUSH4 0x70A08231 ADDRESS PUSH1 0x40 MLOAD DUP3 PUSH4 0xFFFFFFFF AND PUSH1 0xE0 SHL DUP2 MSTORE PUSH1 0x4 ADD PUSH2 0x1A9A SWAP2 SWAP1 PUSH2 0x2ED5 JUMP JUMPDEST PUSH1 0x20 PUSH1 0x40 MLOAD DUP1 DUP4 SUB DUP2 DUP7 GAS STATICCALL ISZERO DUP1 ISZERO PUSH2 0x1AB7 JUMPI RETURNDATASIZE PUSH1 0x0 DUP1 RETURNDATACOPY RETURNDATASIZE PUSH1 0x0 REVERT JUMPDEST POP POP POP POP PUSH1 0x40 MLOAD RETURNDATASIZE PUSH1 0x1F NOT PUSH1 0x1F DUP3 ADD AND DUP3 ADD DUP1 PUSH1 0x40 MSTORE POP DUP2 ADD SWAP1 PUSH2 0x1ADB SWAP2 SWAP1 PUSH2 0x33C8 JUMP JUMPDEST SWAP1 POP SWAP2 SWAP1 POP JUMP JUMPDEST PUSH1 0x60 PUSH1 0x0 DUP1 PUSH2 0x1AEF PUSH2 0x247D JUMP JUMPDEST SWAP1 POP PUSH1 0x1 PUSH1 0x14 SWAP1 SLOAD SWAP1 PUSH2 0x100 EXP SWAP1 DIV PUSH1 0xFF AND ISZERO PUSH2 0x1B34 JUMPI DUP1 PUSH1 0x7 PUSH1 0x0 SWAP1 SLOAD SWAP1 PUSH2 0x100 EXP SWAP1 DIV PUSH20 0xFFFFFFFFFFFFFFFFFFFFFFFFFFFFFFFFFFFFFFFF AND SWAP3 POP SWAP3 POP POP PUSH2 0x1B5E JUMP JUMPDEST DUP1 PUSH1 0x6 PUSH1 0x0 SWAP1 SLOAD SWAP1 PUSH2 0x100 EXP SWAP1 DIV PUSH20 0xFFFFFFFFFFFFFFFFFFFFFFFFFFFFFFFFFFFFFFFF AND SWAP3 POP SWAP3 POP POP JUMPDEST SWAP1 SWAP2 JUMP JUMPDEST PUSH2 0x1B6A PUSH2 0x222C JUMP JUMPDEST PUSH1 0x1 PUSH1 0x14 SWAP1 SLOAD SWAP1 PUSH2 0x100 EXP SWAP1 DIV PUSH1 0xFF AND ISZERO PUSH2 0x1C2E JUMPI PUSH1 0x1 PUSH1 0x14 SWAP1 SLOAD SWAP1 PUSH2 0x100 EXP SWAP1 DIV PUSH1 0xFF AND DUP1 ISZERO PUSH2 0x1BEA JUMPI POP PUSH1 0x0 PUSH20 0xFFFFFFFFFFFFFFFFFFFFFFFFFFFFFFFFFFFFFFFF AND PUSH1 0x6 PUSH1 0x0 SWAP1 SLOAD SWAP1 PUSH2 0x100 EXP SWAP1 DIV PUSH20 0xFFFFFFFFFFFFFFFFFFFFFFFFFFFFFFFFFFFFFFFF AND PUSH20 0xFFFFFFFFFFFFFFFFFFFFFFFFFFFFFFFFFFFFFFFF AND EQ ISZERO JUMPDEST PUSH2 0x1C29 JUMPI PUSH1 0x40 MLOAD PUSH32 0x8C379A000000000000000000000000000000000000000000000000000000000 DUP2 MSTORE PUSH1 0x4 ADD PUSH2 0x1C20 SWAP1 PUSH2 0x3BD7 JUMP JUMPDEST PUSH1 0x40 MLOAD DUP1 SWAP2 SUB SWAP1 REVERT JUMPDEST PUSH2 0x1CDA JUMP JUMPDEST PUSH1 0x1 PUSH1 0x14 SWAP1 SLOAD SWAP1 PUSH2 0x100 EXP SWAP1 DIV PUSH1 0xFF AND ISZERO DUP1 ISZERO PUSH2 0x1C9A JUMPI POP PUSH1 0x0 PUSH20 0xFFFFFFFFFFFFFFFFFFFFFFFFFFFFFFFFFFFFFFFF AND PUSH1 0x7 PUSH1 0x0 SWAP1 SLOAD SWAP1 PUSH2 0x100 EXP SWAP1 DIV PUSH20 0xFFFFFFFFFFFFFFFFFFFFFFFFFFFFFFFFFFFFFFFF AND PUSH20 0xFFFFFFFFFFFFFFFFFFFFFFFFFFFFFFFFFFFFFFFF AND EQ ISZERO JUMPDEST PUSH2 0x1CD9 JUMPI PUSH1 0x40 MLOAD PUSH32 0x8C379A000000000000000000000000000000000000000000000000000000000 DUP2 MSTORE PUSH1 0x4 ADD PUSH2 0x1CD0 SWAP1 PUSH2 0x3C43 JUMP JUMPDEST PUSH1 0x40 MLOAD DUP1 SWAP2 SUB SWAP1 REVERT JUMPDEST JUMPDEST PUSH1 0x1 PUSH1 0x14 SWAP1 SLOAD SWAP1 PUSH2 0x100 EXP SWAP1 DIV PUSH1 0xFF AND ISZERO PUSH1 0x1 PUSH1 0x14 PUSH2 0x100 EXP DUP2 SLOAD DUP2 PUSH1 0xFF MUL NOT AND SWAP1 DUP4 ISZERO ISZERO MUL OR SWAP1 SSTORE POP JUMP JUMPDEST PUSH1 0x0 PUSH2 0x1D10 PUSH2 0x230C JUMP JUMPDEST PUSH1 0x0 PUSH20 0xFFFFFFFFFFFFFFFFFFFFFFFFFFFFFFFFFFFFFFFF AND PUSH1 0x1 PUSH1 0x0 SWAP1 SLOAD SWAP1 PUSH2 0x100 EXP SWAP1 DIV PUSH20 0xFFFFFFFFFFFFFFFFFFFFFFFFFFFFFFFFFFFFFFFF AND PUSH20 0xFFFFFFFFFFFFFFFFFFFFFFFFFFFFFFFFFFFFFFFF AND SUB PUSH2 0x1DA1 JUMPI PUSH1 0x40 MLOAD PUSH32 0x8C379A000000000000000000000000000000000000000000000000000000000 DUP2 MSTORE PUSH1 0x4 ADD PUSH2 0x1D98 SWAP1 PUSH2 0x30CF JUMP JUMPDEST PUSH1 0x40 MLOAD DUP1 SWAP2 SUB SWAP1 REVERT JUMPDEST PUSH1 0x0 PUSH20 0xFFFFFFFFFFFFFFFFFFFFFFFFFFFFFFFFFFFFFFFF AND CALLER PUSH20 0xFFFFFFFFFFFFFFFFFFFFFFFFFFFFFFFFFFFFFFFF AND SUB PUSH2 0x1DDA JUMPI PUSH1 0x0 DUP1 REVERT JUMPDEST PUSH1 0x1 PUSH1 0x0 SWAP1 SLOAD SWAP1 PUSH2 0x100 EXP SWAP1 DIV PUSH20 0xFFFFFFFFFFFFFFFFFFFFFFFFFFFFFFFFFFFFFFFF AND PUSH20 0xFFFFFFFFFFFFFFFFFFFFFFFFFFFFFFFFFFFFFFFF AND CALLER PUSH20 0xFFFFFFFFFFFFFFFFFFFFFFFFFFFFFFFFFFFFFFFF AND EQ DUP1 PUSH2 0x1E68 JUMPI POP PUSH2 0x1E39 PUSH2 0xF93 JUMP JUMPDEST PUSH20 0xFFFFFFFFFFFFFFFFFFFFFFFFFFFFFFFFFFFFFFFF AND CALLER PUSH20 0xFFFFFFFFFFFFFFFFFFFFFFFFFFFFFFFFFFFFFFFF AND EQ JUMPDEST PUSH2 0x1EA7 JUMPI PUSH1 0x40 MLOAD PUSH32 0x8C379A000000000000000000000000000000000000000000000000000000000 DUP2 MSTORE PUSH1 0x4 ADD PUSH2 0x1E9E SWAP1 PUSH2 0x32A5 JUMP JUMPDEST PUSH1 0x40 MLOAD DUP1 SWAP2 SUB SWAP1 REVERT JUMPDEST PUSH1 0x0 DUP3 GT PUSH2 0x1EEA JUMPI PUSH1 0x40 MLOAD PUSH32 0x8C379A000000000000000000000000000000000000000000000000000000000 DUP2 MSTORE PUSH1 0x4 ADD PUSH2 0x1EE1 SWAP1 PUSH2 0x3CAF JUMP JUMPDEST PUSH1 0x40 MLOAD DUP1 SWAP2 SUB SWAP1 REVERT JUMPDEST DUP2 PUSH2 0x1EF3 PUSH2 0x1277 JUMP JUMPDEST LT ISZERO PUSH32 0x0 PUSH20 0xFFFFFFFFFFFFFFFFFFFFFFFFFFFFFFFFFFFFFFFF AND PUSH4 0x95D89B41 PUSH1 0x40 MLOAD DUP2 PUSH4 0xFFFFFFFF AND PUSH1 0xE0 SHL DUP2 MSTORE PUSH1 0x4 ADD PUSH1 0x0 PUSH1 0x40 MLOAD DUP1 DUP4 SUB DUP2 DUP7 GAS STATICCALL ISZERO DUP1 ISZERO PUSH2 0x1F60 JUMPI RETURNDATASIZE PUSH1 0x0 DUP1 RETURNDATACOPY RETURNDATASIZE PUSH1 0x0 REVERT JUMPDEST POP POP POP POP PUSH1 0x40 MLOAD RETURNDATASIZE PUSH1 0x0 DUP3 RETURNDATACOPY RETURNDATASIZE PUSH1 0x1F NOT PUSH1 0x1F DUP3 ADD AND DUP3 ADD DUP1 PUSH1 0x40 MSTORE POP DUP2 ADD SWAP1 PUSH2 0x1F89 SWAP2 SWAP1 PUSH2 0x3B1C JUMP JUMPDEST PUSH1 0x40 MLOAD PUSH1 0x20 ADD PUSH2 0x1F99 SWAP2 SWAP1 PUSH2 0x3D7D JUMP JUMPDEST PUSH1 0x40 MLOAD PUSH1 0x20 DUP2 DUP4 SUB SUB DUP2 MSTORE SWAP1 PUSH1 0x40 MSTORE SWAP1 PUSH2 0x1FE9 JUMPI PUSH1 0x40 MLOAD PUSH32 0x8C379A000000000000000000000000000000000000000000000000000000000 DUP2 MSTORE PUSH1 0x4 ADD PUSH2 0x1FE0 SWAP2 SWAP1 PUSH2 0x3DC1 JUMP JUMPDEST PUSH1 0x40 MLOAD DUP1 SWAP2 SUB SWAP1 REVERT JUMPDEST POP PUSH1 0x0 DUP1 PUSH1 0x0 DUP1 PUSH2 0x1FF8 PUSH2 0x2514 JUMP JUMPDEST SWAP4 POP SWAP4 POP SWAP4 POP SWAP4 POP PUSH1 0x0 DUP5 GT DUP1 ISZERO PUSH2 0x2010 JUMPI POP PUSH1 0x0 DUP4 GT JUMPDEST DUP1 ISZERO PUSH2 0x201C JUMPI POP PUSH1 0x0 DUP2 GT JUMPDEST PUSH2 0x205B JUMPI PUSH1 0x40 MLOAD PUSH32 0x8C379A000000000000000000000000000000000000000000000000000000000 DUP2 MSTORE PUSH1 0x4 ADD PUSH2 0x2052 SWAP1 PUSH2 0x3E2F JUMP JUMPDEST PUSH1 0x40 MLOAD DUP1 SWAP2 SUB SWAP1 REVERT JUMPDEST PUSH1 0x0 PUSH2 0x2068 DUP8 DUP7 DUP7 PUSH2 0x2840 JUMP JUMPDEST SWAP1 POP DUP1 PUSH1 0x4 PUSH1 0x0 DUP3 DUP3 SLOAD PUSH2 0x207C SWAP2 SWAP1 PUSH2 0x3E4F JUMP JUMPDEST SWAP3 POP POP DUP2 SWAP1 SSTORE POP DUP1 PUSH1 0x3 PUSH1 0x0 DUP3 DUP3 SLOAD PUSH2 0x2095 SWAP2 SWAP1 PUSH2 0x3E4F JUMP JUMPDEST SWAP3 POP POP DUP2 SWAP1 SSTORE POP DUP7 PUSH1 0x2 PUSH1 0x0 DUP3 DUP3 SLOAD PUSH2 0x20AE SWAP2 SWAP1 PUSH2 0x3E4F JUMP JUMPDEST SWAP3 POP POP DUP2 SWAP1 SSTORE POP PUSH1 0x0 TIMESTAMP SWAP1 POP DUP1 DUP9 DUP4 PUSH32 0xB5AEB7B225999ADC33232BE2121AFB1A366C15108C1DA745D17FD76108172FE4 DUP10 DUP10 DUP9 DUP11 PUSH1 0x40 MLOAD PUSH2 0x20F2 SWAP5 SWAP4 SWAP3 SWAP2 SWAP1 PUSH2 0x3E83 JUMP JUMPDEST PUSH1 0x40 MLOAD DUP1 SWAP2 SUB SWAP1 LOG4 PUSH2 0x2147 CALLER ADDRESS DUP11 PUSH32 0x0 PUSH20 0xFFFFFFFFFFFFFFFFFFFFFFFFFFFFFFFFFFFFFFFF AND PUSH2 0x287B SWAP1 SWAP4 SWAP3 SWAP2 SWAP1 PUSH4 0xFFFFFFFF AND JUMP JUMPDEST PUSH2 0x2150 DUP9 PUSH2 0x2904 JUMP JUMPDEST POP PUSH1 0x1 SWAP7 POP POP POP POP POP POP POP SWAP2 SWAP1 POP JUMP JUMPDEST PUSH2 0x2168 PUSH2 0x222C JUMP JUMPDEST PUSH1 0x0 PUSH20 0xFFFFFFFFFFFFFFFFFFFFFFFFFFFFFFFFFFFFFFFF AND DUP2 PUSH20 0xFFFFFFFFFFFFFFFFFFFFFFFFFFFFFFFFFFFFFFFF AND SUB PUSH2 0x21D7 JUMPI PUSH1 0x40 MLOAD PUSH32 0x8C379A000000000000000000000000000000000000000000000000000000000 DUP2 MSTORE PUSH1 0x4 ADD PUSH2 0x21CE SWAP1 PUSH2 0x3F41 JUMP JUMPDEST PUSH1 0x40 MLOAD DUP1 SWAP2 SUB SWAP1 REVERT JUMPDEST PUSH2 0x21E0 DUP2 PUSH2 0x23B8 JUMP JUMPDEST POP JUMP JUMPDEST PUSH2 0x21EB PUSH2 0xD4E JUMP JUMPDEST PUSH2 0x222A JUMPI PUSH1 0x40 MLOAD PUSH32 0x8C379A000000000000000000000000000000000000000000000000000000000 DUP2 MSTORE PUSH1 0x4 ADD PUSH2 0x2221 SWAP1 PUSH2 0x3FAD JUMP JUMPDEST PUSH1 0x40 MLOAD DUP1 SWAP2 SUB SWAP1 REVERT JUMPDEST JUMP JUMPDEST PUSH2 0x2234 PUSH2 0x2A3D JUMP JUMPDEST PUSH20 0xFFFFFFFFFFFFFFFFFFFFFFFFFFFFFFFFFFFFFFFF AND PUSH2 0x2252 PUSH2 0xF93 JUMP JUMPDEST PUSH20 0xFFFFFFFFFFFFFFFFFFFFFFFFFFFFFFFFFFFFFFFF AND EQ PUSH2 0x22A8 JUMPI PUSH1 0x40 MLOAD PUSH32 0x8C379A000000000000000000000000000000000000000000000000000000000 DUP2 MSTORE PUSH1 0x4 ADD PUSH2 0x229F SWAP1 PUSH2 0x4019 JUMP JUMPDEST PUSH1 0x40 MLOAD DUP1 SWAP2 SUB SWAP1 REVERT JUMPDEST JUMP JUMPDEST PUSH2 0x22B2 PUSH2 0x21E3 JUMP JUMPDEST PUSH1 0x0 DUP1 PUSH1 0x0 PUSH2 0x100 EXP DUP2 SLOAD DUP2 PUSH1 0xFF MUL NOT AND SWAP1 DUP4 ISZERO ISZERO MUL OR SWAP1 SSTORE POP PUSH32 0x5DB9EE0A495BF2E6FF9C91A7834C1BA4FDD244A5E8AA4E537BD38AEAE4B073AA PUSH2 0x22F5 PUSH2 0x2A3D JUMP JUMPDEST PUSH1 0x40 MLOAD PUSH2 0x2302 SWAP2 SWAP1 PUSH2 0x2ED5 JUMP JUMPDEST PUSH1 0x40 MLOAD DUP1 SWAP2 SUB SWAP1 LOG1 JUMP JUMPDEST PUSH2 0x2314 PUSH2 0xD4E JUMP JUMPDEST ISZERO PUSH2 0x2354 JUMPI PUSH1 0x40 MLOAD PUSH32 0x8C379A000000000000000000000000000000000000000000000000000000000 DUP2 MSTORE PUSH1 0x4 ADD PUSH2 0x234B SWAP1 PUSH2 0x4085 JUMP JUMPDEST PUSH1 0x40 MLOAD DUP1 SWAP2 SUB SWAP1 REVERT JUMPDEST JUMP JUMPDEST PUSH2 0x235E PUSH2 0x230C JUMP JUMPDEST PUSH1 0x1 PUSH1 0x0 DUP1 PUSH2 0x100 EXP DUP2 SLOAD DUP2 PUSH1 0xFF MUL NOT AND SWAP1 DUP4 ISZERO ISZERO MUL OR SWAP1 SSTORE POP PUSH32 0x62E78CEA01BEE320CD4E420270B5EA74000D11B0C9F74754EBDBFC544B05A258 PUSH2 0x23A1 PUSH2 0x2A3D JUMP JUMPDEST PUSH1 0x40 MLOAD PUSH2 0x23AE SWAP2 SWAP1 PUSH2 0x2ED5 JUMP JUMPDEST PUSH1 0x40 MLOAD DUP1 SWAP2 SUB SWAP1 LOG1 JUMP JUMPDEST PUSH1 0x0 DUP1 PUSH1 0x1 SWAP1 SLOAD SWAP1 PUSH2 0x100 EXP SWAP1 DIV PUSH20 0xFFFFFFFFFFFFFFFFFFFFFFFFFFFFFFFFFFFFFFFF AND SWAP1 POP DUP2 PUSH1 0x0 PUSH1 0x1 PUSH2 0x100 EXP DUP2 SLOAD DUP2 PUSH20 0xFFFFFFFFFFFFFFFFFFFFFFFFFFFFFFFFFFFFFFFF MUL NOT AND SWAP1 DUP4 PUSH20 0xFFFFFFFFFFFFFFFFFFFFFFFFFFFFFFFFFFFFFFFF AND MUL OR SWAP1 SSTORE POP DUP2 PUSH20 0xFFFFFFFFFFFFFFFFFFFFFFFFFFFFFFFFFFFFFFFF AND DUP2 PUSH20 0xFFFFFFFFFFFFFFFFFFFFFFFFFFFFFFFFFFFFFFFF AND PUSH32 0x8BE0079C531659141344CD1FD0A4F28419497F9722A3DAAFE3B4186F6B6457E0 PUSH1 0x40 MLOAD PUSH1 0x40 MLOAD DUP1 SWAP2 SUB SWAP1 LOG3 POP POP JUMP JUMPDEST PUSH1 0x60 DUP1 PUSH1 0x1 PUSH1 0x14 SWAP1 SLOAD SWAP1 PUSH2 0x100 EXP SWAP1 DIV PUSH1 0xFF AND PUSH2 0x24D2 JUMPI PUSH1 0x40 MLOAD DUP1 PUSH1 0x40 ADD PUSH1 0x40 MSTORE DUP1 PUSH1 0xC DUP2 MSTORE PUSH1 0x20 ADD PUSH32 0x41676772656761746F7256330000000000000000000000000000000000000000 DUP2 MSTORE POP SWAP1 POP DUP1 PUSH2 0x250C JUMP JUMPDEST PUSH1 0x40 MLOAD DUP1 PUSH1 0x40 ADD PUSH1 0x40 MSTORE DUP1 PUSH1 0x4 DUP2 MSTORE PUSH1 0x20 ADD PUSH32 0x506F6F6C00000000000000000000000000000000000000000000000000000000 DUP2 MSTORE POP SWAP1 POP DUP1 JUMPDEST POP DUP1 SWAP2 POP POP SWAP1 JUMP JUMPDEST PUSH1 0x0 DUP1 PUSH1 0x60 PUSH1 0x0 PUSH1 0x1 PUSH1 0x14 SWAP1 SLOAD SWAP1 PUSH2 0x100 EXP SWAP1 DIV PUSH1 0xFF AND ISZERO PUSH2 0x25DF JUMPI PUSH1 0x1 PUSH1 0x14 SWAP1 SLOAD SWAP1 PUSH2 0x100 EXP SWAP1 DIV PUSH1 0xFF AND DUP1 ISZERO PUSH2 0x259B JUMPI POP PUSH1 0x0 PUSH20 0xFFFFFFFFFFFFFFFFFFFFFFFFFFFFFFFFFFFFFFFF AND PUSH1 0x7 PUSH1 0x0 SWAP1 SLOAD SWAP1 PUSH2 0x100 EXP SWAP1 DIV PUSH20 0xFFFFFFFFFFFFFFFFFFFFFFFFFFFFFFFFFFFFFFFF AND PUSH20 0xFFFFFFFFFFFFFFFFFFFFFFFFFFFFFFFFFFFFFFFF AND EQ ISZERO JUMPDEST PUSH2 0x25DA JUMPI PUSH1 0x40 MLOAD PUSH32 0x8C379A000000000000000000000000000000000000000000000000000000000 DUP2 MSTORE PUSH1 0x4 ADD PUSH2 0x25D1 SWAP1 PUSH2 0x3C43 JUMP JUMPDEST PUSH1 0x40 MLOAD DUP1 SWAP2 SUB SWAP1 REVERT JUMPDEST PUSH2 0x268B JUMP JUMPDEST PUSH1 0x1 PUSH1 0x14 SWAP1 SLOAD SWAP1 PUSH2 0x100 EXP SWAP1 DIV PUSH1 0xFF AND ISZERO DUP1 ISZERO PUSH2 0x264B JUMPI POP PUSH1 0x0 PUSH20 0xFFFFFFFFFFFFFFFFFFFFFFFFFFFFFFFFFFFFFFFF AND PUSH1 0x6 PUSH1 0x0 SWAP1 SLOAD SWAP1 PUSH2 0x100 EXP SWAP1 DIV PUSH20 0xFFFFFFFFFFFFFFFFFFFFFFFFFFFFFFFFFFFFFFFF AND PUSH20 0xFFFFFFFFFFFFFFFFFFFFFFFFFFFFFFFFFFFFFFFF AND EQ ISZERO JUMPDEST PUSH2 0x268A JUMPI PUSH1 0x40 MLOAD PUSH32 0x8C379A000000000000000000000000000000000000000000000000000000000 DUP2 MSTORE PUSH1 0x4 ADD PUSH2 0x2681 SWAP1 PUSH2 0x3BD7 JUMP JUMPDEST PUSH1 0x40 MLOAD DUP1 SWAP2 SUB SWAP1 REVERT JUMPDEST JUMPDEST PUSH1 0x0 DUP1 PUSH1 0x0 DUP1 PUSH1 0x1 PUSH1 0x14 SWAP1 SLOAD SWAP1 PUSH2 0x100 EXP SWAP1 DIV PUSH1 0xFF AND ISZERO PUSH2 0x2743 JUMPI PUSH1 0x7 PUSH1 0x0 SWAP1 SLOAD SWAP1 PUSH2 0x100 EXP SWAP1 DIV PUSH20 0xFFFFFFFFFFFFFFFFFFFFFFFFFFFFFFFFFFFFFFFF AND PUSH20 0xFFFFFFFFFFFFFFFFFFFFFFFFFFFFFFFFFFFFFFFF AND PUSH4 0x85096EDC PUSH1 0x40 MLOAD DUP2 PUSH4 0xFFFFFFFF AND PUSH1 0xE0 SHL DUP2 MSTORE PUSH1 0x4 ADD PUSH1 0x0 PUSH1 0x40 MLOAD DUP1 DUP4 SUB DUP2 PUSH1 0x0 DUP8 GAS CALL ISZERO DUP1 ISZERO PUSH2 0x2715 JUMPI RETURNDATASIZE PUSH1 0x0 DUP1 RETURNDATACOPY RETURNDATASIZE PUSH1 0x0 REVERT JUMPDEST POP POP POP POP PUSH1 0x40 MLOAD RETURNDATASIZE PUSH1 0x0 DUP3 RETURNDATACOPY RETURNDATASIZE PUSH1 0x1F NOT PUSH1 0x1F DUP3 ADD AND DUP3 ADD DUP1 PUSH1 0x40 MSTORE POP DUP2 ADD SWAP1 PUSH2 0x273E SWAP2 SWAP1 PUSH2 0x40A5 JUMP JUMPDEST PUSH2 0x27DC JUMP JUMPDEST PUSH1 0x6 PUSH1 0x0 SWAP1 SLOAD SWAP1 PUSH2 0x100 EXP SWAP1 DIV PUSH20 0xFFFFFFFFFFFFFFFFFFFFFFFFFFFFFFFFFFFFFFFF AND PUSH20 0xFFFFFFFFFFFFFFFFFFFFFFFFFFFFFFFFFFFFFFFF AND PUSH4 0xE1E7FF77 PUSH1 0x40 MLOAD DUP2 PUSH4 0xFFFFFFFF AND PUSH1 0xE0 SHL DUP2 MSTORE PUSH1 0x4 ADD PUSH1 0x0 PUSH1 0x40 MLOAD DUP1 DUP4 SUB DUP2 PUSH1 0x0 DUP8 GAS CALL ISZERO DUP1 ISZERO PUSH2 0x27B2 JUMPI RETURNDATASIZE PUSH1 0x0 DUP1 RETURNDATACOPY RETURNDATASIZE PUSH1 0x0 REVERT JUMPDEST POP POP POP POP PUSH1 0x40 MLOAD RETURNDATASIZE PUSH1 0x0 DUP3 RETURNDATACOPY RETURNDATASIZE PUSH1 0x1F NOT PUSH1 0x1F DUP3 ADD AND DUP3 ADD DUP1 PUSH1 0x40 MSTORE POP DUP2 ADD SWAP1 PUSH2 0x27DB SWAP2 SWAP1 PUSH2 0x40A5 JUMP JUMPDEST JUMPDEST SWAP4 POP SWAP4 POP SWAP4 POP SWAP4 POP PUSH32 0xF533C7EBCAB9CA95557310F62AA7AD41D3A6B17AEBEC7762B994EF1A14863865 DUP5 DUP5 DUP5 DUP5 PUSH2 0x2811 PUSH2 0x247D JUMP JUMPDEST PUSH1 0x40 MLOAD PUSH2 0x2822 SWAP6 SWAP5 SWAP4 SWAP3 SWAP2 SWAP1 PUSH2 0x4128 JUMP JUMPDEST PUSH1 0x40 MLOAD DUP1 SWAP2 SUB SWAP1 LOG1 DUP4 DUP4 DUP4 DUP4 SWAP8 POP SWAP8 POP SWAP8 POP SWAP8 POP POP POP POP POP SWAP1 SWAP2 SWAP3 SWAP4 JUMP JUMPDEST PUSH1 0x0 DUP2 PUSH1 0xA PUSH2 0x284F SWAP2 SWAP1 PUSH2 0x35E9 JUMP JUMPDEST DUP4 PUSH1 0x5 SLOAD DUP7 PUSH2 0x285E SWAP2 SWAP1 PUSH2 0x36A5 JUMP JUMPDEST PUSH2 0x2868 SWAP2 SWAP1 PUSH2 0x3634 JUMP JUMPDEST PUSH2 0x2872 SWAP2 SWAP1 PUSH2 0x36A5 JUMP JUMPDEST SWAP1 POP SWAP4 SWAP3 POP POP POP JUMP JUMPDEST PUSH2 0x28FE DUP5 PUSH4 0x23B872DD PUSH1 0xE0 SHL DUP6 DUP6 DUP6 PUSH1 0x40 MLOAD PUSH1 0x24 ADD PUSH2 0x289C SWAP4 SWAP3 SWAP2 SWAP1 PUSH2 0x4189 JUMP JUMPDEST PUSH1 0x40 MLOAD PUSH1 0x20 DUP2 DUP4 SUB SUB DUP2 MSTORE SWAP1 PUSH1 0x40 MSTORE SWAP1 PUSH28 0xFFFFFFFFFFFFFFFFFFFFFFFFFFFFFFFFFFFFFFFFFFFFFFFFFFFFFFFF NOT AND PUSH1 0x20 DUP3 ADD DUP1 MLOAD PUSH28 0xFFFFFFFFFFFFFFFFFFFFFFFFFFFFFFFFFFFFFFFFFFFFFFFFFFFFFFFF DUP4 DUP2 DUP4 AND OR DUP4 MSTORE POP POP POP POP PUSH2 0x2A45 JUMP JUMPDEST POP POP POP POP JUMP JUMPDEST PUSH1 0x0 DUP1 DUP3 GT PUSH2 0x2948 JUMPI PUSH1 0x40 MLOAD PUSH32 0x8C379A000000000000000000000000000000000000000000000000000000000 DUP2 MSTORE PUSH1 0x4 ADD PUSH2 0x293F SWAP1 PUSH2 0x420C JUMP JUMPDEST PUSH1 0x40 MLOAD DUP1 SWAP2 SUB SWAP1 REVERT JUMPDEST PUSH1 0x0 PUSH2 0x2952 PUSH2 0xE54 JUMP JUMPDEST SWAP1 POP PUSH32 0x0 PUSH20 0xFFFFFFFFFFFFFFFFFFFFFFFFFFFFFFFFFFFFFFFF AND PUSH4 0x42966C68 DUP5 PUSH1 0x40 MLOAD DUP3 PUSH4 0xFFFFFFFF AND PUSH1 0xE0 SHL DUP2 MSTORE PUSH1 0x4 ADD PUSH2 0x29AD SWAP2 SWAP1 PUSH2 0x2DB2 JUMP JUMPDEST PUSH1 0x0 PUSH1 0x40 MLOAD DUP1 DUP4 SUB DUP2 PUSH1 0x0 DUP8 DUP1 EXTCODESIZE ISZERO DUP1 ISZERO PUSH2 0x29C7 JUMPI PUSH1 0x0 DUP1 REVERT JUMPDEST POP GAS CALL ISZERO DUP1 ISZERO PUSH2 0x29DB JUMPI RETURNDATASIZE PUSH1 0x0 DUP1 RETURNDATACOPY RETURNDATASIZE PUSH1 0x0 REVERT JUMPDEST POP POP POP POP DUP3 DUP2 PUSH2 0x29EB SWAP2 SWAP1 PUSH2 0x39C2 JUMP JUMPDEST PUSH2 0x29F3 PUSH2 0xE54 JUMP JUMPDEST EQ PUSH2 0x2A33 JUMPI PUSH1 0x40 MLOAD PUSH32 0x8C379A000000000000000000000000000000000000000000000000000000000 DUP2 MSTORE PUSH1 0x4 ADD PUSH2 0x2A2A SWAP1 PUSH2 0x429E JUMP JUMPDEST PUSH1 0x40 MLOAD DUP1 SWAP2 SUB SWAP1 REVERT JUMPDEST PUSH1 0x1 SWAP2 POP POP SWAP2 SWAP1 POP JUMP JUMPDEST PUSH1 0x0 CALLER SWAP1 POP SWAP1 JUMP JUMPDEST PUSH1 0x0 PUSH2 0x2AA7 DUP3 PUSH1 0x40 MLOAD DUP1 PUSH1 0x40 ADD PUSH1 0x40 MSTORE DUP1 PUSH1 0x20 DUP2 MSTORE PUSH1 0x20 ADD PUSH32 0x5361666545524332303A206C6F772D6C6576656C2063616C6C206661696C6564 DUP2 MSTORE POP DUP6 PUSH20 0xFFFFFFFFFFFFFFFFFFFFFFFFFFFFFFFFFFFFFFFF AND PUSH2 0x2B0C SWAP1 SWAP3 SWAP2 SWAP1 PUSH4 0xFFFFFFFF AND JUMP JUMPDEST SWAP1 POP PUSH1 0x0 DUP2 MLOAD GT ISZERO PUSH2 0x2B07 JUMPI DUP1 DUP1 PUSH1 0x20 ADD SWAP1 MLOAD DUP2 ADD SWAP1 PUSH2 0x2AC7 SWAP2 SWAP1 PUSH2 0x3386 JUMP JUMPDEST PUSH2 0x2B06 JUMPI PUSH1 0x40 MLOAD PUSH32 0x8C379A000000000000000000000000000000000000000000000000000000000 DUP2 MSTORE PUSH1 0x4 ADD PUSH2 0x2AFD SWAP1 PUSH2 0x4330 JUMP JUMPDEST PUSH1 0x40 MLOAD DUP1 SWAP2 SUB SWAP1 REVERT JUMPDEST JUMPDEST POP POP POP JUMP JUMPDEST PUSH1 0x60 PUSH2 0x2B1B DUP5 DUP5 PUSH1 0x0 DUP6 PUSH2 0x2B24 JUMP JUMPDEST SWAP1 POP SWAP4 SWAP3 POP POP POP JUMP JUMPDEST PUSH1 0x60 DUP3 SELFBALANCE LT ISZERO PUSH2 0x2B69 JUMPI PUSH1 0x40 MLOAD PUSH32 0x8C379A000000000000000000000000000000000000000000000000000000000 DUP2 MSTORE PUSH1 0x4 ADD PUSH2 0x2B60 SWAP1 PUSH2 0x43C2 JUMP JUMPDEST PUSH1 0x40 MLOAD DUP1 SWAP2 SUB SWAP1 REVERT JUMPDEST PUSH2 0x2B72 DUP6 PUSH2 0x2C38 JUMP JUMPDEST PUSH2 0x2BB1 JUMPI PUSH1 0x40 MLOAD PUSH32 0x8C379A000000000000000000000000000000000000000000000000000000000 DUP2 MSTORE PUSH1 0x4 ADD PUSH2 0x2BA8 SWAP1 PUSH2 0x442E JUMP JUMPDEST PUSH1 0x40 MLOAD DUP1 SWAP2 SUB SWAP1 REVERT JUMPDEST PUSH1 0x0 DUP1 DUP7 PUSH20 0xFFFFFFFFFFFFFFFFFFFFFFFFFFFFFFFFFFFFFFFF AND DUP6 DUP8 PUSH1 0x40 MLOAD PUSH2 0x2BDA SWAP2 SWAP1 PUSH2 0x4495 JUMP JUMPDEST PUSH1 0x0 PUSH1 0x40 MLOAD DUP1 DUP4 SUB DUP2 DUP6 DUP8 GAS CALL SWAP3 POP POP POP RETURNDATASIZE DUP1 PUSH1 0x0 DUP2 EQ PUSH2 0x2C17 JUMPI PUSH1 0x40 MLOAD SWAP2 POP PUSH1 0x1F NOT PUSH1 0x3F RETURNDATASIZE ADD AND DUP3 ADD PUSH1 0x40 MSTORE RETURNDATASIZE DUP3 MSTORE RETURNDATASIZE PUSH1 0x0 PUSH1 0x20 DUP5 ADD RETURNDATACOPY PUSH2 0x2C1C JUMP JUMPDEST PUSH1 0x60 SWAP2 POP JUMPDEST POP SWAP2 POP SWAP2 POP PUSH2 0x2C2C DUP3 DUP3 DUP7 PUSH2 0x2C5B JUMP JUMPDEST SWAP3 POP POP POP SWAP5 SWAP4 POP POP POP POP JUMP JUMPDEST PUSH1 0x0 DUP1 DUP3 PUSH20 0xFFFFFFFFFFFFFFFFFFFFFFFFFFFFFFFFFFFFFFFF AND EXTCODESIZE GT SWAP1 POP SWAP2 SWAP1 POP JUMP JUMPDEST PUSH1 0x60 DUP4 ISZERO PUSH2 0x2C6B JUMPI DUP3 SWAP1 POP PUSH2 0x2CBB JUMP JUMPDEST PUSH1 0x0 DUP4 MLOAD GT ISZERO PUSH2 0x2C7E JUMPI DUP3 MLOAD DUP1 DUP5 PUSH1 0x20 ADD REVERT JUMPDEST DUP2 PUSH1 0x40 MLOAD PUSH32 0x8C379A000000000000000000000000000000000000000000000000000000000 DUP2 MSTORE PUSH1 0x4 ADD PUSH2 0x2CB2 SWAP2 SWAP1 PUSH2 0x3DC1 JUMP JUMPDEST PUSH1 0x40 MLOAD DUP1 SWAP2 SUB SWAP1 REVERT JUMPDEST SWAP4 SWAP3 POP POP POP JUMP JUMPDEST PUSH1 0x0 PUSH1 0x40 MLOAD SWAP1 POP SWAP1 JUMP JUMPDEST PUSH1 0x0 DUP1 REVERT JUMPDEST PUSH1 0x0 DUP1 REVERT JUMPDEST PUSH1 0x0 PUSH20 0xFFFFFFFFFFFFFFFFFFFFFFFFFFFFFFFFFFFFFFFF DUP3 AND SWAP1 POP SWAP2 SWAP1 POP JUMP JUMPDEST PUSH1 0x0 PUSH2 0x2D01 DUP3 PUSH2 0x2CD6 JUMP JUMPDEST SWAP1 POP SWAP2 SWAP1 POP JUMP JUMPDEST PUSH2 0x2D11 DUP2 PUSH2 0x2CF6 JUMP JUMPDEST DUP2 EQ PUSH2 0x2D1C JUMPI PUSH1 0x0 DUP1 REVERT JUMPDEST POP JUMP JUMPDEST PUSH1 0x0 DUP2 CALLDATALOAD SWAP1 POP PUSH2 0x2D2E DUP2 PUSH2 0x2D08 JUMP JUMPDEST SWAP3 SWAP2 POP POP JUMP JUMPDEST PUSH1 0x0 PUSH1 0x20 DUP3 DUP5 SUB SLT ISZERO PUSH2 0x2D4A JUMPI PUSH2 0x2D49 PUSH2 0x2CCC JUMP JUMPDEST JUMPDEST PUSH1 0x0 PUSH2 0x2D58 DUP5 DUP3 DUP6 ADD PUSH2 0x2D1F JUMP JUMPDEST SWAP2 POP POP SWAP3 SWAP2 POP POP JUMP JUMPDEST PUSH2 0x2D6A DUP2 PUSH2 0x2CF6 JUMP JUMPDEST DUP3 MSTORE POP POP JUMP JUMPDEST PUSH1 0x0 PUSH1 0x40 DUP3 ADD SWAP1 POP PUSH2 0x2D85 PUSH1 0x0 DUP4 ADD DUP6 PUSH2 0x2D61 JUMP JUMPDEST PUSH2 0x2D92 PUSH1 0x20 DUP4 ADD DUP5 PUSH2 0x2D61 JUMP JUMPDEST SWAP4 SWAP3 POP POP POP JUMP JUMPDEST PUSH1 0x0 DUP2 SWAP1 POP SWAP2 SWAP1 POP JUMP JUMPDEST PUSH2 0x2DAC DUP2 PUSH2 0x2D99 JUMP JUMPDEST DUP3 MSTORE POP POP JUMP JUMPDEST PUSH1 0x0 PUSH1 0x20 DUP3 ADD SWAP1 POP PUSH2 0x2DC7 PUSH1 0x0 DUP4 ADD DUP5 PUSH2 0x2DA3 JUMP JUMPDEST SWAP3 SWAP2 POP POP JUMP JUMPDEST PUSH1 0x0 DUP2 ISZERO ISZERO SWAP1 POP SWAP2 SWAP1 POP JUMP JUMPDEST PUSH2 0x2DE2 DUP2 PUSH2 0x2DCD JUMP JUMPDEST DUP3 MSTORE POP POP JUMP JUMPDEST PUSH1 0x0 PUSH1 0x20 DUP3 ADD SWAP1 POP PUSH2 0x2DFD PUSH1 0x0 DUP4 ADD DUP5 PUSH2 0x2DD9 JUMP JUMPDEST SWAP3 SWAP2 POP POP JUMP JUMPDEST PUSH2 0x2E0C DUP2 PUSH2 0x2D99 JUMP JUMPDEST DUP2 EQ PUSH2 0x2E17 JUMPI PUSH1 0x0 DUP1 REVERT JUMPDEST POP JUMP JUMPDEST PUSH1 0x0 DUP2 CALLDATALOAD SWAP1 POP PUSH2 0x2E29 DUP2 PUSH2 0x2E03 JUMP JUMPDEST SWAP3 SWAP2 POP POP JUMP JUMPDEST PUSH1 0x0 DUP1 PUSH1 0x0 PUSH1 0x60 DUP5 DUP7 SUB SLT ISZERO PUSH2 0x2E48 JUMPI PUSH2 0x2E47 PUSH2 0x2CCC JUMP JUMPDEST JUMPDEST PUSH1 0x0 PUSH2 0x2E56 DUP7 DUP3 DUP8 ADD PUSH2 0x2D1F JUMP JUMPDEST SWAP4 POP POP PUSH1 0x20 PUSH2 0x2E67 DUP7 DUP3 DUP8 ADD PUSH2 0x2D1F JUMP JUMPDEST SWAP3 POP POP PUSH1 0x40 PUSH2 0x2E78 DUP7 DUP3 DUP8 ADD PUSH2 0x2E1A JUMP JUMPDEST SWAP2 POP POP SWAP3 POP SWAP3 POP SWAP3 JUMP JUMPDEST PUSH1 0x0 DUP1 PUSH1 0x0 PUSH1 0x60 DUP5 DUP7 SUB SLT ISZERO PUSH2 0x2E9B JUMPI PUSH2 0x2E9A PUSH2 0x2CCC JUMP JUMPDEST JUMPDEST PUSH1 0x0 PUSH2 0x2EA9 DUP7 DUP3 DUP8 ADD PUSH2 0x2E1A JUMP JUMPDEST SWAP4 POP POP PUSH1 0x20 PUSH2 0x2EBA DUP7 DUP3 DUP8 ADD PUSH2 0x2E1A JUMP JUMPDEST SWAP3 POP POP PUSH1 0x40 PUSH2 0x2ECB DUP7 DUP3 DUP8 ADD PUSH2 0x2E1A JUMP JUMPDEST SWAP2 POP POP SWAP3 POP SWAP3 POP SWAP3 JUMP JUMPDEST PUSH1 0x0 PUSH1 0x20 DUP3 ADD SWAP1 POP PUSH2 0x2EEA PUSH1 0x0 DUP4 ADD DUP5 PUSH2 0x2D61 JUMP JUMPDEST SWAP3 SWAP2 POP POP JUMP JUMPDEST PUSH1 0x0 PUSH1 0x20 DUP3 DUP5 SUB SLT ISZERO PUSH2 0x2F06 JUMPI PUSH2 0x2F05 PUSH2 0x2CCC JUMP JUMPDEST JUMPDEST PUSH1 0x0 PUSH2 0x2F14 DUP5 DUP3 DUP6 ADD PUSH2 0x2E1A JUMP JUMPDEST SWAP2 POP POP SWAP3 SWAP2 POP POP JUMP JUMPDEST PUSH1 0x0 DUP2 SWAP1 POP SWAP2 SWAP1 POP JUMP JUMPDEST PUSH2 0x2F30 DUP2 PUSH2 0x2F1D JUMP JUMPDEST DUP2 EQ PUSH2 0x2F3B JUMPI PUSH1 0x0 DUP1 REVERT JUMPDEST POP JUMP JUMPDEST PUSH1 0x0 DUP2 CALLDATALOAD SWAP1 POP PUSH2 0x2F4D DUP2 PUSH2 0x2F27 JUMP JUMPDEST SWAP3 SWAP2 POP POP JUMP JUMPDEST PUSH1 0x0 DUP1 PUSH1 0x40 DUP4 DUP6 SUB SLT ISZERO PUSH2 0x2F6A JUMPI PUSH2 0x2F69 PUSH2 0x2CCC JUMP JUMPDEST JUMPDEST PUSH1 0x0 PUSH2 0x2F78 DUP6 DUP3 DUP7 ADD PUSH2 0x2E1A JUMP JUMPDEST SWAP3 POP POP PUSH1 0x20 PUSH2 0x2F89 DUP6 DUP3 DUP7 ADD PUSH2 0x2F3E JUMP JUMPDEST SWAP2 POP POP SWAP3 POP SWAP3 SWAP1 POP JUMP JUMPDEST PUSH1 0x0 DUP2 MLOAD SWAP1 POP SWAP2 SWAP1 POP JUMP JUMPDEST PUSH1 0x0 DUP3 DUP3 MSTORE PUSH1 0x20 DUP3 ADD SWAP1 POP SWAP3 SWAP2 POP POP JUMP JUMPDEST PUSH1 0x0 JUMPDEST DUP4 DUP2 LT ISZERO PUSH2 0x2FCD JUMPI DUP1 DUP3 ADD MLOAD DUP2 DUP5 ADD MSTORE PUSH1 0x20 DUP2 ADD SWAP1 POP PUSH2 0x2FB2 JUMP JUMPDEST PUSH1 0x0 DUP5 DUP5 ADD MSTORE POP POP POP POP JUMP JUMPDEST PUSH1 0x0 PUSH1 0x1F NOT PUSH1 0x1F DUP4 ADD AND SWAP1 POP SWAP2 SWAP1 POP JUMP JUMPDEST PUSH1 0x0 PUSH2 0x2FF5 DUP3 PUSH2 0x2F93 JUMP JUMPDEST PUSH2 0x2FFF DUP2 DUP6 PUSH2 0x2F9E JUMP JUMPDEST SWAP4 POP PUSH2 0x300F DUP2 DUP6 PUSH1 0x20 DUP7 ADD PUSH2 0x2FAF JUMP JUMPDEST PUSH2 0x3018 DUP2 PUSH2 0x2FD9 JUMP JUMPDEST DUP5 ADD SWAP2 POP POP SWAP3 SWAP2 POP POP JUMP JUMPDEST PUSH1 0x0 PUSH1 0x40 DUP3 ADD SWAP1 POP PUSH2 0x3038 PUSH1 0x0 DUP4 ADD DUP6 PUSH2 0x2D61 JUMP JUMPDEST DUP2 DUP2 SUB PUSH1 0x20 DUP4 ADD MSTORE PUSH2 0x304A DUP2 DUP5 PUSH2 0x2FEA JUMP JUMPDEST SWAP1 POP SWAP4 SWAP3 POP POP POP JUMP JUMPDEST PUSH1 0x0 PUSH1 0x40 DUP3 ADD SWAP1 POP DUP2 DUP2 SUB PUSH1 0x0 DUP4 ADD MSTORE PUSH2 0x306D DUP2 DUP6 PUSH2 0x2FEA JUMP JUMPDEST SWAP1 POP PUSH2 0x307C PUSH1 0x20 DUP4 ADD DUP5 PUSH2 0x2D61 JUMP JUMPDEST SWAP4 SWAP3 POP POP POP JUMP JUMPDEST PUSH32 0x4E6F742061637469766174656421000000000000000000000000000000000000 PUSH1 0x0 DUP3 ADD MSTORE POP JUMP JUMPDEST PUSH1 0x0 PUSH2 0x30B9 PUSH1 0xE DUP4 PUSH2 0x2F9E JUMP JUMPDEST SWAP2 POP PUSH2 0x30C4 DUP3 PUSH2 0x3083 JUMP JUMPDEST PUSH1 0x20 DUP3 ADD SWAP1 POP SWAP2 SWAP1 POP JUMP JUMPDEST PUSH1 0x0 PUSH1 0x20 DUP3 ADD SWAP1 POP DUP2 DUP2 SUB PUSH1 0x0 DUP4 ADD MSTORE PUSH2 0x30E8 DUP2 PUSH2 0x30AC JUMP JUMPDEST SWAP1 POP SWAP2 SWAP1 POP JUMP JUMPDEST PUSH32 0x4E6F7420417574686F72697A6564210000000000000000000000000000000000 PUSH1 0x0 DUP3 ADD MSTORE POP JUMP JUMPDEST PUSH1 0x0 PUSH2 0x3125 PUSH1 0xF DUP4 PUSH2 0x2F9E JUMP JUMPDEST SWAP2 POP PUSH2 0x3130 DUP3 PUSH2 0x30EF JUMP JUMPDEST PUSH1 0x20 DUP3 ADD SWAP1 POP SWAP2 SWAP1 POP JUMP JUMPDEST PUSH1 0x0 PUSH1 0x20 DUP3 ADD SWAP1 POP DUP2 DUP2 SUB PUSH1 0x0 DUP4 ADD MSTORE PUSH2 0x3154 DUP2 PUSH2 0x3118 JUMP JUMPDEST SWAP1 POP SWAP2 SWAP1 POP JUMP JUMPDEST PUSH32 0x41637469766174696F6E206E6F7420616C6C6F77656421000000000000000000 PUSH1 0x0 DUP3 ADD MSTORE POP JUMP JUMPDEST PUSH1 0x0 PUSH2 0x3191 PUSH1 0x17 DUP4 PUSH2 0x2F9E JUMP JUMPDEST SWAP2 POP PUSH2 0x319C DUP3 PUSH2 0x315B JUMP JUMPDEST PUSH1 0x20 DUP3 ADD SWAP1 POP SWAP2 SWAP1 POP JUMP JUMPDEST PUSH1 0x0 PUSH1 0x20 DUP3 ADD SWAP1 POP DUP2 DUP2 SUB PUSH1 0x0 DUP4 ADD MSTORE PUSH2 0x31C0 DUP2 PUSH2 0x3184 JUMP JUMPDEST SWAP1 POP SWAP2 SWAP1 POP JUMP JUMPDEST PUSH32 0x416C7265616479206163746976617465642E0000000000000000000000000000 PUSH1 0x0 DUP3 ADD MSTORE POP JUMP JUMPDEST PUSH1 0x0 PUSH2 0x31FD PUSH1 0x12 DUP4 PUSH2 0x2F9E JUMP JUMPDEST SWAP2 POP PUSH2 0x3208 DUP3 PUSH2 0x31C7 JUMP JUMPDEST PUSH1 0x20 DUP3 ADD SWAP1 POP SWAP2 SWAP1 POP JUMP JUMPDEST PUSH1 0x0 PUSH1 0x20 DUP3 ADD SWAP1 POP DUP2 DUP2 SUB PUSH1 0x0 DUP4 ADD MSTORE PUSH2 0x322C DUP2 PUSH2 0x31F0 JUMP JUMPDEST SWAP1 POP SWAP2 SWAP1 POP JUMP JUMPDEST PUSH32 0x4F6E6C79204F776E6572206F7220417574686F72697A65642070617274696369 PUSH1 0x0 DUP3 ADD MSTORE PUSH32 0x7061746F722063616E206163636573732074686973206F7065726174696F6E21 PUSH1 0x20 DUP3 ADD MSTORE POP JUMP JUMPDEST PUSH1 0x0 PUSH2 0x328F PUSH1 0x40 DUP4 PUSH2 0x2F9E JUMP JUMPDEST SWAP2 POP PUSH2 0x329A DUP3 PUSH2 0x3233 JUMP JUMPDEST PUSH1 0x40 DUP3 ADD SWAP1 POP SWAP2 SWAP1 POP JUMP JUMPDEST PUSH1 0x0 PUSH1 0x20 DUP3 ADD SWAP1 POP DUP2 DUP2 SUB PUSH1 0x0 DUP4 ADD MSTORE PUSH2 0x32BE DUP2 PUSH2 0x3282 JUMP JUMPDEST SWAP1 POP SWAP2 SWAP1 POP JUMP JUMPDEST PUSH32 0x4E6F7420656E6F7567682062616C616E63652100000000000000000000000000 PUSH1 0x0 DUP3 ADD MSTORE POP JUMP JUMPDEST PUSH1 0x0 PUSH2 0x32FB PUSH1 0x13 DUP4 PUSH2 0x2F9E JUMP JUMPDEST SWAP2 POP PUSH2 0x3306 DUP3 PUSH2 0x32C5 JUMP JUMPDEST PUSH1 0x20 DUP3 ADD SWAP1 POP SWAP2 SWAP1 POP JUMP JUMPDEST PUSH1 0x0 PUSH1 0x20 DUP3 ADD SWAP1 POP DUP2 DUP2 SUB PUSH1 0x0 DUP4 ADD MSTORE PUSH2 0x332A DUP2 PUSH2 0x32EE JUMP JUMPDEST SWAP1 POP SWAP2 SWAP1 POP JUMP JUMPDEST PUSH1 0x0 PUSH1 0x40 DUP3 ADD SWAP1 POP PUSH2 0x3346 PUSH1 0x0 DUP4 ADD DUP6 PUSH2 0x2D61 JUMP JUMPDEST PUSH2 0x3353 PUSH1 0x20 DUP4 ADD DUP5 PUSH2 0x2DA3 JUMP JUMPDEST SWAP4 SWAP3 POP POP POP JUMP JUMPDEST PUSH2 0x3363 DUP2 PUSH2 0x2DCD JUMP JUMPDEST DUP2 EQ PUSH2 0x336E JUMPI PUSH1 0x0 DUP1 REVERT JUMPDEST POP JUMP JUMPDEST PUSH1 0x0 DUP2 MLOAD SWAP1 POP PUSH2 0x3380 DUP2 PUSH2 0x335A JUMP JUMPDEST SWAP3 SWAP2 POP POP JUMP JUMPDEST PUSH1 0x0 PUSH1 0x20 DUP3 DUP5 SUB SLT ISZERO PUSH2 0x339C JUMPI PUSH2 0x339B PUSH2 0x2CCC JUMP JUMPDEST JUMPDEST PUSH1 0x0 PUSH2 0x33AA DUP5 DUP3 DUP6 ADD PUSH2 0x3371 JUMP JUMPDEST SWAP2 POP POP SWAP3 SWAP2 POP POP JUMP JUMPDEST PUSH1 0x0 DUP2 MLOAD SWAP1 POP PUSH2 0x33C2 DUP2 PUSH2 0x2E03 JUMP JUMPDEST SWAP3 SWAP2 POP POP JUMP JUMPDEST PUSH1 0x0 PUSH1 0x20 DUP3 DUP5 SUB SLT ISZERO PUSH2 0x33DE JUMPI PUSH2 0x33DD PUSH2 0x2CCC JUMP JUMPDEST JUMPDEST PUSH1 0x0 PUSH2 0x33EC DUP5 DUP3 DUP6 ADD PUSH2 0x33B3 JUMP JUMPDEST SWAP2 POP POP SWAP3 SWAP2 POP POP JUMP JUMPDEST PUSH32 0x526174652C20706F696E747320616E6420646563696D616C73206D7573742062 PUSH1 0x0 DUP3 ADD MSTORE PUSH32 0x652067726561746572207468616E207A65726F21000000000000000000000000 PUSH1 0x20 DUP3 ADD MSTORE POP JUMP JUMPDEST PUSH1 0x0 PUSH2 0x3451 PUSH1 0x34 DUP4 PUSH2 0x2F9E JUMP JUMPDEST SWAP2 POP PUSH2 0x345C DUP3 PUSH2 0x33F5 JUMP JUMPDEST PUSH1 0x40 DUP3 ADD SWAP1 POP SWAP2 SWAP1 POP JUMP JUMPDEST PUSH1 0x0 PUSH1 0x20 DUP3 ADD SWAP1 POP DUP2 DUP2 SUB PUSH1 0x0 DUP4 ADD MSTORE PUSH2 0x3480 DUP2 PUSH2 0x3444 JUMP JUMPDEST SWAP1 POP SWAP2 SWAP1 POP JUMP JUMPDEST PUSH32 0x4E487B7100000000000000000000000000000000000000000000000000000000 PUSH1 0x0 MSTORE PUSH1 0x11 PUSH1 0x4 MSTORE PUSH1 0x24 PUSH1 0x0 REVERT JUMPDEST PUSH1 0x0 DUP2 PUSH1 0x1 SHR SWAP1 POP SWAP2 SWAP1 POP JUMP JUMPDEST PUSH1 0x0 DUP1 DUP3 SWAP2 POP DUP4 SWAP1 POP JUMPDEST PUSH1 0x1 DUP6 GT ISZERO PUSH2 0x350D JUMPI DUP1 DUP7 DIV DUP2 GT ISZERO PUSH2 0x34E9 JUMPI PUSH2 0x34E8 PUSH2 0x3487 JUMP JUMPDEST JUMPDEST PUSH1 0x1 DUP6 AND ISZERO PUSH2 0x34F8 JUMPI DUP1 DUP3 MUL SWAP2 POP JUMPDEST DUP1 DUP2 MUL SWAP1 POP PUSH2 0x3506 DUP6 PUSH2 0x34B6 JUMP JUMPDEST SWAP5 POP PUSH2 0x34CD JUMP JUMPDEST SWAP5 POP SWAP5 SWAP3 POP POP POP JUMP JUMPDEST PUSH1 0x0 DUP3 PUSH2 0x3526 JUMPI PUSH1 0x1 SWAP1 POP PUSH2 0x35E2 JUMP JUMPDEST DUP2 PUSH2 0x3534 JUMPI PUSH1 0x0 SWAP1 POP PUSH2 0x35E2 JUMP JUMPDEST DUP2 PUSH1 0x1 DUP2 EQ PUSH2 0x354A JUMPI PUSH1 0x2 DUP2 EQ PUSH2 0x3554 JUMPI PUSH2 0x3583 JUMP JUMPDEST PUSH1 0x1 SWAP2 POP POP PUSH2 0x35E2 JUMP JUMPDEST PUSH1 0xFF DUP5 GT ISZERO PUSH2 0x3566 JUMPI PUSH2 0x3565 PUSH2 0x3487 JUMP JUMPDEST JUMPDEST DUP4 PUSH1 0x2 EXP SWAP2 POP DUP5 DUP3 GT ISZERO PUSH2 0x357D JUMPI PUSH2 0x357C PUSH2 0x3487 JUMP JUMPDEST JUMPDEST POP PUSH2 0x35E2 JUMP JUMPDEST POP PUSH1 0x20 DUP4 LT PUSH2 0x133 DUP4 LT AND PUSH1 0x4E DUP5 LT PUSH1 0xB DUP5 LT AND OR ISZERO PUSH2 0x35B8 JUMPI DUP3 DUP3 EXP SWAP1 POP DUP4 DUP2 GT ISZERO PUSH2 0x35B3 JUMPI PUSH2 0x35B2 PUSH2 0x3487 JUMP JUMPDEST JUMPDEST PUSH2 0x35E2 JUMP JUMPDEST PUSH2 0x35C5 DUP5 DUP5 DUP5 PUSH1 0x1 PUSH2 0x34C3 JUMP JUMPDEST SWAP3 POP SWAP1 POP DUP2 DUP5 DIV DUP2 GT ISZERO PUSH2 0x35DC JUMPI PUSH2 0x35DB PUSH2 0x3487 JUMP JUMPDEST JUMPDEST DUP2 DUP2 MUL SWAP1 POP JUMPDEST SWAP4 SWAP3 POP POP POP JUMP JUMPDEST PUSH1 0x0 PUSH2 0x35F4 DUP3 PUSH2 0x2D99 JUMP JUMPDEST SWAP2 POP PUSH2 0x35FF DUP4 PUSH2 0x2D99 JUMP JUMPDEST SWAP3 POP PUSH2 0x362C PUSH32 0xFFFFFFFFFFFFFFFFFFFFFFFFFFFFFFFFFFFFFFFFFFFFFFFFFFFFFFFFFFFFFFFF DUP5 DUP5 PUSH2 0x3516 JUMP JUMPDEST SWAP1 POP SWAP3 SWAP2 POP POP JUMP JUMPDEST PUSH1 0x0 PUSH2 0x363F DUP3 PUSH2 0x2D99 JUMP JUMPDEST SWAP2 POP PUSH2 0x364A DUP4 PUSH2 0x2D99 JUMP JUMPDEST SWAP3 POP DUP3 DUP3 MUL PUSH2 0x3658 DUP2 PUSH2 0x2D99 JUMP JUMPDEST SWAP2 POP DUP3 DUP3 DIV DUP5 EQ DUP4 ISZERO OR PUSH2 0x366F JUMPI PUSH2 0x366E PUSH2 0x3487 JUMP JUMPDEST JUMPDEST POP SWAP3 SWAP2 POP POP JUMP JUMPDEST PUSH32 0x4E487B7100000000000000000000000000000000000000000000000000000000 PUSH1 0x0 MSTORE PUSH1 0x12 PUSH1 0x4 MSTORE PUSH1 0x24 PUSH1 0x0 REVERT JUMPDEST PUSH1 0x0 PUSH2 0x36B0 DUP3 PUSH2 0x2D99 JUMP JUMPDEST SWAP2 POP PUSH2 0x36BB DUP4 PUSH2 0x2D99 JUMP JUMPDEST SWAP3 POP DUP3 PUSH2 0x36CB JUMPI PUSH2 0x36CA PUSH2 0x3676 JUMP JUMPDEST JUMPDEST DUP3 DUP3 DIV SWAP1 POP SWAP3 SWAP2 POP POP JUMP JUMPDEST PUSH32 0x496E707574206D7573742062652067726561746572207468616E207A65726F21 PUSH1 0x0 DUP3 ADD MSTORE POP JUMP JUMPDEST PUSH1 0x0 PUSH2 0x370C PUSH1 0x20 DUP4 PUSH2 0x2F9E JUMP JUMPDEST SWAP2 POP PUSH2 0x3717 DUP3 PUSH2 0x36D6 JUMP JUMPDEST PUSH1 0x20 DUP3 ADD SWAP1 POP SWAP2 SWAP1 POP JUMP JUMPDEST PUSH1 0x0 PUSH1 0x20 DUP3 ADD SWAP1 POP DUP2 DUP2 SUB PUSH1 0x0 DUP4 ADD MSTORE PUSH2 0x373B DUP2 PUSH2 0x36FF JUMP JUMPDEST SWAP1 POP SWAP2 SWAP1 POP JUMP JUMPDEST PUSH32 0x496E707574206D75737420626520612073696E676C652064696769742028302D PUSH1 0x0 DUP3 ADD MSTORE PUSH32 0x3929000000000000000000000000000000000000000000000000000000000000 PUSH1 0x20 DUP3 ADD MSTORE POP JUMP JUMPDEST PUSH1 0x0 PUSH2 0x379E PUSH1 0x22 DUP4 PUSH2 0x2F9E JUMP JUMPDEST SWAP2 POP PUSH2 0x37A9 DUP3 PUSH2 0x3742 JUMP JUMPDEST PUSH1 0x40 DUP3 ADD SWAP1 POP SWAP2 SWAP1 POP JUMP JUMPDEST PUSH1 0x0 PUSH1 0x20 DUP3 ADD SWAP1 POP DUP2 DUP2 SUB PUSH1 0x0 DUP4 ADD MSTORE PUSH2 0x37CD DUP2 PUSH2 0x3791 JUMP JUMPDEST SWAP1 POP SWAP2 SWAP1 POP JUMP JUMPDEST PUSH32 0x496E7075742076616C7565206973207468652073616D65206C696B6520657869 PUSH1 0x0 DUP3 ADD MSTORE PUSH32 0x7374696E67210000000000000000000000000000000000000000000000000000 PUSH1 0x20 DUP3 ADD MSTORE POP JUMP JUMPDEST PUSH1 0x0 PUSH2 0x3830 PUSH1 0x26 DUP4 PUSH2 0x2F9E JUMP JUMPDEST SWAP2 POP PUSH2 0x383B DUP3 PUSH2 0x37D4 JUMP JUMPDEST PUSH1 0x40 DUP3 ADD SWAP1 POP SWAP2 SWAP1 POP JUMP JUMPDEST PUSH1 0x0 PUSH1 0x20 DUP3 ADD SWAP1 POP DUP2 DUP2 SUB PUSH1 0x0 DUP4 ADD MSTORE PUSH2 0x385F DUP2 PUSH2 0x3823 JUMP JUMPDEST SWAP1 POP SWAP2 SWAP1 POP JUMP JUMPDEST PUSH32 0x4E6F7420656E6F75676820706F696E74732E2054686520636F6E747261637420 PUSH1 0x0 DUP3 ADD MSTORE PUSH32 0x6D75737420626520636861726765642077697468206D6F726520746F6B656E73 PUSH1 0x20 DUP3 ADD MSTORE POP JUMP JUMPDEST PUSH1 0x0 PUSH2 0x38C2 PUSH1 0x40 DUP4 PUSH2 0x2F9E JUMP JUMPDEST SWAP2 POP PUSH2 0x38CD DUP3 PUSH2 0x3866 JUMP JUMPDEST PUSH1 0x40 DUP3 ADD SWAP1 POP SWAP2 SWAP1 POP JUMP JUMPDEST PUSH1 0x0 PUSH1 0x20 DUP3 ADD SWAP1 POP DUP2 DUP2 SUB PUSH1 0x0 DUP4 ADD MSTORE PUSH2 0x38F1 DUP2 PUSH2 0x38B5 JUMP JUMPDEST SWAP1 POP SWAP2 SWAP1 POP JUMP JUMPDEST PUSH32 0x57697468647261772076616C7565206D75737420626520677265617465722074 PUSH1 0x0 DUP3 ADD MSTORE PUSH32 0x68616E2030210000000000000000000000000000000000000000000000000000 PUSH1 0x20 DUP3 ADD MSTORE POP JUMP JUMPDEST PUSH1 0x0 PUSH2 0x3954 PUSH1 0x26 DUP4 PUSH2 0x2F9E JUMP JUMPDEST SWAP2 POP PUSH2 0x395F DUP3 PUSH2 0x38F8 JUMP JUMPDEST PUSH1 0x40 DUP3 ADD SWAP1 POP SWAP2 SWAP1 POP JUMP JUMPDEST PUSH1 0x0 PUSH1 0x20 DUP3 ADD SWAP1 POP DUP2 DUP2 SUB PUSH1 0x0 DUP4 ADD MSTORE PUSH2 0x3983 DUP2 PUSH2 0x3947 JUMP JUMPDEST SWAP1 POP SWAP2 SWAP1 POP JUMP JUMPDEST PUSH2 0x3993 DUP2 PUSH2 0x2F1D JUMP JUMPDEST DUP3 MSTORE POP POP JUMP JUMPDEST PUSH1 0x0 PUSH1 0x40 DUP3 ADD SWAP1 POP PUSH2 0x39AE PUSH1 0x0 DUP4 ADD DUP6 PUSH2 0x2DA3 JUMP JUMPDEST PUSH2 0x39BB PUSH1 0x20 DUP4 ADD DUP5 PUSH2 0x398A JUMP JUMPDEST SWAP4 SWAP3 POP POP POP JUMP JUMPDEST PUSH1 0x0 PUSH2 0x39CD DUP3 PUSH2 0x2D99 JUMP JUMPDEST SWAP2 POP PUSH2 0x39D8 DUP4 PUSH2 0x2D99 JUMP JUMPDEST SWAP3 POP DUP3 DUP3 SUB SWAP1 POP DUP2 DUP2 GT ISZERO PUSH2 0x39F0 JUMPI PUSH2 0x39EF PUSH2 0x3487 JUMP JUMPDEST JUMPDEST SWAP3 SWAP2 POP POP JUMP JUMPDEST PUSH1 0x0 DUP1 REVERT JUMPDEST PUSH1 0x0 DUP1 REVERT JUMPDEST PUSH32 0x4E487B7100000000000000000000000000000000000000000000000000000000 PUSH1 0x0 MSTORE PUSH1 0x41 PUSH1 0x4 MSTORE PUSH1 0x24 PUSH1 0x0 REVERT JUMPDEST PUSH2 0x3A38 DUP3 PUSH2 0x2FD9 JUMP JUMPDEST DUP2 ADD DUP2 DUP2 LT PUSH8 0xFFFFFFFFFFFFFFFF DUP3 GT OR ISZERO PUSH2 0x3A57 JUMPI PUSH2 0x3A56 PUSH2 0x3A00 JUMP JUMPDEST JUMPDEST DUP1 PUSH1 0x40 MSTORE POP POP POP JUMP JUMPDEST PUSH1 0x0 PUSH2 0x3A6A PUSH2 0x2CC2 JUMP JUMPDEST SWAP1 POP PUSH2 0x3A76 DUP3 DUP3 PUSH2 0x3A2F JUMP JUMPDEST SWAP2 SWAP1 POP JUMP JUMPDEST PUSH1 0x0 PUSH8 0xFFFFFFFFFFFFFFFF DUP3 GT ISZERO PUSH2 0x3A96 JUMPI PUSH2 0x3A95 PUSH2 0x3A00 JUMP JUMPDEST JUMPDEST PUSH2 0x3A9F DUP3 PUSH2 0x2FD9 JUMP JUMPDEST SWAP1 POP PUSH1 0x20 DUP2 ADD SWAP1 POP SWAP2 SWAP1 POP JUMP JUMPDEST PUSH1 0x0 PUSH2 0x3ABF PUSH2 0x3ABA DUP5 PUSH2 0x3A7B JUMP JUMPDEST PUSH2 0x3A60 JUMP JUMPDEST SWAP1 POP DUP3 DUP2 MSTORE PUSH1 0x20 DUP2 ADD DUP5 DUP5 DUP5 ADD GT ISZERO PUSH2 0x3ADB JUMPI PUSH2 0x3ADA PUSH2 0x39FB JUMP JUMPDEST JUMPDEST PUSH2 0x3AE6 DUP5 DUP3 DUP6 PUSH2 0x2FAF JUMP JUMPDEST POP SWAP4 SWAP3 POP POP POP JUMP JUMPDEST PUSH1 0x0 DUP3 PUSH1 0x1F DUP4 ADD SLT PUSH2 0x3B03 JUMPI PUSH2 0x3B02 PUSH2 0x39F6 JUMP JUMPDEST JUMPDEST DUP2 MLOAD PUSH2 0x3B13 DUP5 DUP3 PUSH1 0x20 DUP7 ADD PUSH2 0x3AAC JUMP JUMPDEST SWAP2 POP POP SWAP3 SWAP2 POP POP JUMP JUMPDEST PUSH1 0x0 PUSH1 0x20 DUP3 DUP5 SUB SLT ISZERO PUSH2 0x3B32 JUMPI PUSH2 0x3B31 PUSH2 0x2CCC JUMP JUMPDEST JUMPDEST PUSH1 0x0 DUP3 ADD MLOAD PUSH8 0xFFFFFFFFFFFFFFFF DUP2 GT ISZERO PUSH2 0x3B50 JUMPI PUSH2 0x3B4F PUSH2 0x2CD1 JUMP JUMPDEST JUMPDEST PUSH2 0x3B5C DUP5 DUP3 DUP6 ADD PUSH2 0x3AEE JUMP JUMPDEST SWAP2 POP POP SWAP3 SWAP2 POP POP JUMP JUMPDEST PUSH32 0x41676772656761746F72436F6E73756D6572206973206E6F7420696E69746961 PUSH1 0x0 DUP3 ADD MSTORE PUSH32 0x6C697A6564210000000000000000000000000000000000000000000000000000 PUSH1 0x20 DUP3 ADD MSTORE POP JUMP JUMPDEST PUSH1 0x0 PUSH2 0x3BC1 PUSH1 0x26 DUP4 PUSH2 0x2F9E JUMP JUMPDEST SWAP2 POP PUSH2 0x3BCC DUP3 PUSH2 0x3B65 JUMP JUMPDEST PUSH1 0x40 DUP3 ADD SWAP1 POP SWAP2 SWAP1 POP JUMP JUMPDEST PUSH1 0x0 PUSH1 0x20 DUP3 ADD SWAP1 POP DUP2 DUP2 SUB PUSH1 0x0 DUP4 ADD MSTORE PUSH2 0x3BF0 DUP2 PUSH2 0x3BB4 JUMP JUMPDEST SWAP1 POP SWAP2 SWAP1 POP JUMP JUMPDEST PUSH32 0x506F6F6C436F6E73756D6572206973206E6F7420696E697469616C697A656421 PUSH1 0x0 DUP3 ADD MSTORE POP JUMP JUMPDEST PUSH1 0x0 PUSH2 0x3C2D PUSH1 0x20 DUP4 PUSH2 0x2F9E JUMP JUMPDEST SWAP2 POP PUSH2 0x3C38 DUP3 PUSH2 0x3BF7 JUMP JUMPDEST PUSH1 0x20 DUP3 ADD SWAP1 POP SWAP2 SWAP1 POP JUMP JUMPDEST PUSH1 0x0 PUSH1 0x20 DUP3 ADD SWAP1 POP DUP2 DUP2 SUB PUSH1 0x0 DUP4 ADD MSTORE PUSH2 0x3C5C DUP2 PUSH2 0x3C20 JUMP JUMPDEST SWAP1 POP SWAP2 SWAP1 POP JUMP JUMPDEST PUSH32 0x4E6F2063686172676520616D6F756E7421000000000000000000000000000000 PUSH1 0x0 DUP3 ADD MSTORE POP JUMP JUMPDEST PUSH1 0x0 PUSH2 0x3C99 PUSH1 0x11 DUP4 PUSH2 0x2F9E JUMP JUMPDEST SWAP2 POP PUSH2 0x3CA4 DUP3 PUSH2 0x3C63 JUMP JUMPDEST PUSH1 0x20 DUP3 ADD SWAP1 POP SWAP2 SWAP1 POP JUMP JUMPDEST PUSH1 0x0 PUSH1 0x20 DUP3 ADD SWAP1 POP DUP2 DUP2 SUB PUSH1 0x0 DUP4 ADD MSTORE PUSH2 0x3CC8 DUP2 PUSH2 0x3C8C JUMP JUMPDEST SWAP1 POP SWAP2 SWAP1 POP JUMP JUMPDEST PUSH32 0x436865636B207468652000000000000000000000000000000000000000000000 DUP2 MSTORE POP JUMP JUMPDEST PUSH1 0x0 DUP2 SWAP1 POP SWAP3 SWAP2 POP POP JUMP JUMPDEST PUSH1 0x0 PUSH2 0x3D0B DUP3 PUSH2 0x2F93 JUMP JUMPDEST PUSH2 0x3D15 DUP2 DUP6 PUSH2 0x3CF5 JUMP JUMPDEST SWAP4 POP PUSH2 0x3D25 DUP2 DUP6 PUSH1 0x20 DUP7 ADD PUSH2 0x2FAF JUMP JUMPDEST DUP1 DUP5 ADD SWAP2 POP POP SWAP3 SWAP2 POP POP JUMP JUMPDEST PUSH32 0x20746F6B656E2000000000000000000000000000000000000000000000000000 DUP2 MSTORE POP JUMP JUMPDEST PUSH32 0x616C6C6F77616E63652100000000000000000000000000000000000000000000 DUP2 MSTORE POP JUMP JUMPDEST PUSH1 0x0 PUSH2 0x3D88 DUP3 PUSH2 0x3CCF JUMP JUMPDEST PUSH1 0xA DUP3 ADD SWAP2 POP PUSH2 0x3D98 DUP3 DUP5 PUSH2 0x3D00 JUMP JUMPDEST SWAP2 POP PUSH2 0x3DA3 DUP3 PUSH2 0x3D31 JUMP JUMPDEST PUSH1 0x7 DUP3 ADD SWAP2 POP PUSH2 0x3DB2 DUP3 PUSH2 0x3D57 JUMP JUMPDEST PUSH1 0xA DUP3 ADD SWAP2 POP DUP2 SWAP1 POP SWAP3 SWAP2 POP POP JUMP JUMPDEST PUSH1 0x0 PUSH1 0x20 DUP3 ADD SWAP1 POP DUP2 DUP2 SUB PUSH1 0x0 DUP4 ADD MSTORE PUSH2 0x3DDB DUP2 DUP5 PUSH2 0x2FEA JUMP JUMPDEST SWAP1 POP SWAP3 SWAP2 POP POP JUMP JUMPDEST PUSH32 0x72617465206572726F7221000000000000000000000000000000000000000000 PUSH1 0x0 DUP3 ADD MSTORE POP JUMP JUMPDEST PUSH1 0x0 PUSH2 0x3E19 PUSH1 0xB DUP4 PUSH2 0x2F9E JUMP JUMPDEST SWAP2 POP PUSH2 0x3E24 DUP3 PUSH2 0x3DE3 JUMP JUMPDEST PUSH1 0x20 DUP3 ADD SWAP1 POP SWAP2 SWAP1 POP JUMP JUMPDEST PUSH1 0x0 PUSH1 0x20 DUP3 ADD SWAP1 POP DUP2 DUP2 SUB PUSH1 0x0 DUP4 ADD MSTORE PUSH2 0x3E48 DUP2 PUSH2 0x3E0C JUMP JUMPDEST SWAP1 POP SWAP2 SWAP1 POP JUMP JUMPDEST PUSH1 0x0 PUSH2 0x3E5A DUP3 PUSH2 0x2D99 JUMP JUMPDEST SWAP2 POP PUSH2 0x3E65 DUP4 PUSH2 0x2D99 JUMP JUMPDEST SWAP3 POP DUP3 DUP3 ADD SWAP1 POP DUP1 DUP3 GT ISZERO PUSH2 0x3E7D JUMPI PUSH2 0x3E7C PUSH2 0x3487 JUMP JUMPDEST JUMPDEST SWAP3 SWAP2 POP POP JUMP JUMPDEST PUSH1 0x0 PUSH1 0x80 DUP3 ADD SWAP1 POP PUSH2 0x3E98 PUSH1 0x0 DUP4 ADD DUP8 PUSH2 0x2DA3 JUMP JUMPDEST PUSH2 0x3EA5 PUSH1 0x20 DUP4 ADD DUP7 PUSH2 0x2DA3 JUMP JUMPDEST PUSH2 0x3EB2 PUSH1 0x40 DUP4 ADD DUP6 PUSH2 0x2DA3 JUMP JUMPDEST DUP2 DUP2 SUB PUSH1 0x60 DUP4 ADD MSTORE PUSH2 0x3EC4 DUP2 DUP5 PUSH2 0x2FEA JUMP JUMPDEST SWAP1 POP SWAP6 SWAP5 POP POP POP POP POP JUMP JUMPDEST PUSH32 0x4F776E61626C653A206E6577206F776E657220697320746865207A65726F2061 PUSH1 0x0 DUP3 ADD MSTORE PUSH32 0x6464726573730000000000000000000000000000000000000000000000000000 PUSH1 0x20 DUP3 ADD MSTORE POP JUMP JUMPDEST PUSH1 0x0 PUSH2 0x3F2B PUSH1 0x26 DUP4 PUSH2 0x2F9E JUMP JUMPDEST SWAP2 POP PUSH2 0x3F36 DUP3 PUSH2 0x3ECF JUMP JUMPDEST PUSH1 0x40 DUP3 ADD SWAP1 POP SWAP2 SWAP1 POP JUMP JUMPDEST PUSH1 0x0 PUSH1 0x20 DUP3 ADD SWAP1 POP DUP2 DUP2 SUB PUSH1 0x0 DUP4 ADD MSTORE PUSH2 0x3F5A DUP2 PUSH2 0x3F1E JUMP JUMPDEST SWAP1 POP SWAP2 SWAP1 POP JUMP JUMPDEST PUSH32 0x5061757361626C653A206E6F7420706175736564000000000000000000000000 PUSH1 0x0 DUP3 ADD MSTORE POP JUMP JUMPDEST PUSH1 0x0 PUSH2 0x3F97 PUSH1 0x14 DUP4 PUSH2 0x2F9E JUMP JUMPDEST SWAP2 POP PUSH2 0x3FA2 DUP3 PUSH2 0x3F61 JUMP JUMPDEST PUSH1 0x20 DUP3 ADD SWAP1 POP SWAP2 SWAP1 POP JUMP JUMPDEST PUSH1 0x0 PUSH1 0x20 DUP3 ADD SWAP1 POP DUP2 DUP2 SUB PUSH1 0x0 DUP4 ADD MSTORE PUSH2 0x3FC6 DUP2 PUSH2 0x3F8A JUMP JUMPDEST SWAP1 POP SWAP2 SWAP1 POP JUMP JUMPDEST PUSH32 0x4F776E61626C653A2063616C6C6572206973206E6F7420746865206F776E6572 PUSH1 0x0 DUP3 ADD MSTORE POP JUMP JUMPDEST PUSH1 0x0 PUSH2 0x4003 PUSH1 0x20 DUP4 PUSH2 0x2F9E JUMP JUMPDEST SWAP2 POP PUSH2 0x400E DUP3 PUSH2 0x3FCD JUMP JUMPDEST PUSH1 0x20 DUP3 ADD SWAP1 POP SWAP2 SWAP1 POP JUMP JUMPDEST PUSH1 0x0 PUSH1 0x20 DUP3 ADD SWAP1 POP DUP2 DUP2 SUB PUSH1 0x0 DUP4 ADD MSTORE PUSH2 0x4032 DUP2 PUSH2 0x3FF6 JUMP JUMPDEST SWAP1 POP SWAP2 SWAP1 POP JUMP JUMPDEST PUSH32 0x5061757361626C653A2070617573656400000000000000000000000000000000 PUSH1 0x0 DUP3 ADD MSTORE POP JUMP JUMPDEST PUSH1 0x0 PUSH2 0x406F PUSH1 0x10 DUP4 PUSH2 0x2F9E JUMP JUMPDEST SWAP2 POP PUSH2 0x407A DUP3 PUSH2 0x4039 JUMP JUMPDEST PUSH1 0x20 DUP3 ADD SWAP1 POP SWAP2 SWAP1 POP JUMP JUMPDEST PUSH1 0x0 PUSH1 0x20 DUP3 ADD SWAP1 POP DUP2 DUP2 SUB PUSH1 0x0 DUP4 ADD MSTORE PUSH2 0x409E DUP2 PUSH2 0x4062 JUMP JUMPDEST SWAP1 POP SWAP2 SWAP1 POP JUMP JUMPDEST PUSH1 0x0 DUP1 PUSH1 0x0 DUP1 PUSH1 0x80 DUP6 DUP8 SUB SLT ISZERO PUSH2 0x40BF JUMPI PUSH2 0x40BE PUSH2 0x2CCC JUMP JUMPDEST JUMPDEST PUSH1 0x0 PUSH2 0x40CD DUP8 DUP3 DUP9 ADD PUSH2 0x33B3 JUMP JUMPDEST SWAP5 POP POP PUSH1 0x20 PUSH2 0x40DE DUP8 DUP3 DUP9 ADD PUSH2 0x33B3 JUMP JUMPDEST SWAP4 POP POP PUSH1 0x40 DUP6 ADD MLOAD PUSH8 0xFFFFFFFFFFFFFFFF DUP2 GT ISZERO PUSH2 0x40FF JUMPI PUSH2 0x40FE PUSH2 0x2CD1 JUMP JUMPDEST JUMPDEST PUSH2 0x410B DUP8 DUP3 DUP9 ADD PUSH2 0x3AEE JUMP JUMPDEST SWAP3 POP POP PUSH1 0x60 PUSH2 0x411C DUP8 DUP3 DUP9 ADD PUSH2 0x33B3 JUMP JUMPDEST SWAP2 POP POP SWAP3 SWAP6 SWAP2 SWAP5 POP SWAP3 POP JUMP JUMPDEST PUSH1 0x0 PUSH1 0xA0 DUP3 ADD SWAP1 POP PUSH2 0x413D PUSH1 0x0 DUP4 ADD DUP9 PUSH2 0x2DA3 JUMP JUMPDEST PUSH2 0x414A PUSH1 0x20 DUP4 ADD DUP8 PUSH2 0x2DA3 JUMP JUMPDEST DUP2 DUP2 SUB PUSH1 0x40 DUP4 ADD MSTORE PUSH2 0x415C DUP2 DUP7 PUSH2 0x2FEA JUMP JUMPDEST SWAP1 POP PUSH2 0x416B PUSH1 0x60 DUP4 ADD DUP6 PUSH2 0x2DA3 JUMP JUMPDEST DUP2 DUP2 SUB PUSH1 0x80 DUP4 ADD MSTORE PUSH2 0x417D DUP2 DUP5 PUSH2 0x2FEA JUMP JUMPDEST SWAP1 POP SWAP7 SWAP6 POP POP POP POP POP POP JUMP JUMPDEST PUSH1 0x0 PUSH1 0x60 DUP3 ADD SWAP1 POP PUSH2 0x419E PUSH1 0x0 DUP4 ADD DUP7 PUSH2 0x2D61 JUMP JUMPDEST PUSH2 0x41AB PUSH1 0x20 DUP4 ADD DUP6 PUSH2 0x2D61 JUMP JUMPDEST PUSH2 0x41B8 PUSH1 0x40 DUP4 ADD DUP5 PUSH2 0x2DA3 JUMP JUMPDEST SWAP5 SWAP4 POP POP POP POP JUMP JUMPDEST PUSH32 0x4E6F20746F6B656E7320746F206265206275726E656421000000000000000000 PUSH1 0x0 DUP3 ADD MSTORE POP JUMP JUMPDEST PUSH1 0x0 PUSH2 0x41F6 PUSH1 0x17 DUP4 PUSH2 0x2F9E JUMP JUMPDEST SWAP2 POP PUSH2 0x4201 DUP3 PUSH2 0x41C0 JUMP JUMPDEST PUSH1 0x20 DUP3 ADD SWAP1 POP SWAP2 SWAP1 POP JUMP JUMPDEST PUSH1 0x0 PUSH1 0x20 DUP3 ADD SWAP1 POP DUP2 DUP2 SUB PUSH1 0x0 DUP4 ADD MSTORE PUSH2 0x4225 DUP2 PUSH2 0x41E9 JUMP JUMPDEST SWAP1 POP SWAP2 SWAP1 POP JUMP JUMPDEST PUSH32 0x7472616E73616374696F6E207265766572746564206275726E20756E73756363 PUSH1 0x0 DUP3 ADD MSTORE PUSH32 0x657366756C6C2100000000000000000000000000000000000000000000000000 PUSH1 0x20 DUP3 ADD MSTORE POP JUMP JUMPDEST PUSH1 0x0 PUSH2 0x4288 PUSH1 0x27 DUP4 PUSH2 0x2F9E JUMP JUMPDEST SWAP2 POP PUSH2 0x4293 DUP3 PUSH2 0x422C JUMP JUMPDEST PUSH1 0x40 DUP3 ADD SWAP1 POP SWAP2 SWAP1 POP JUMP JUMPDEST PUSH1 0x0 PUSH1 0x20 DUP3 ADD SWAP1 POP DUP2 DUP2 SUB PUSH1 0x0 DUP4 ADD MSTORE PUSH2 0x42B7 DUP2 PUSH2 0x427B JUMP JUMPDEST SWAP1 POP SWAP2 SWAP1 POP JUMP JUMPDEST PUSH32 0x5361666545524332303A204552433230206F7065726174696F6E20646964206E PUSH1 0x0 DUP3 ADD MSTORE PUSH32 0x6F74207375636365656400000000000000000000000000000000000000000000 PUSH1 0x20 DUP3 ADD MSTORE POP JUMP JUMPDEST PUSH1 0x0 PUSH2 0x431A PUSH1 0x2A DUP4 PUSH2 0x2F9E JUMP JUMPDEST SWAP2 POP PUSH2 0x4325 DUP3 PUSH2 0x42BE JUMP JUMPDEST PUSH1 0x40 DUP3 ADD SWAP1 POP SWAP2 SWAP1 POP JUMP JUMPDEST PUSH1 0x0 PUSH1 0x20 DUP3 ADD SWAP1 POP DUP2 DUP2 SUB PUSH1 0x0 DUP4 ADD MSTORE PUSH2 0x4349 DUP2 PUSH2 0x430D JUMP JUMPDEST SWAP1 POP SWAP2 SWAP1 POP JUMP JUMPDEST PUSH32 0x416464726573733A20696E73756666696369656E742062616C616E636520666F PUSH1 0x0 DUP3 ADD MSTORE PUSH32 0x722063616C6C0000000000000000000000000000000000000000000000000000 PUSH1 0x20 DUP3 ADD MSTORE POP JUMP JUMPDEST PUSH1 0x0 PUSH2 0x43AC PUSH1 0x26 DUP4 PUSH2 0x2F9E JUMP JUMPDEST SWAP2 POP PUSH2 0x43B7 DUP3 PUSH2 0x4350 JUMP JUMPDEST PUSH1 0x40 DUP3 ADD SWAP1 POP SWAP2 SWAP1 POP JUMP JUMPDEST PUSH1 0x0 PUSH1 0x20 DUP3 ADD SWAP1 POP DUP2 DUP2 SUB PUSH1 0x0 DUP4 ADD MSTORE PUSH2 0x43DB DUP2 PUSH2 0x439F JUMP JUMPDEST SWAP1 POP SWAP2 SWAP1 POP JUMP JUMPDEST PUSH32 0x416464726573733A2063616C6C20746F206E6F6E2D636F6E7472616374000000 PUSH1 0x0 DUP3 ADD MSTORE POP JUMP JUMPDEST PUSH1 0x0 PUSH2 0x4418 PUSH1 0x1D DUP4 PUSH2 0x2F9E JUMP JUMPDEST SWAP2 POP PUSH2 0x4423 DUP3 PUSH2 0x43E2 JUMP JUMPDEST PUSH1 0x20 DUP3 ADD SWAP1 POP SWAP2 SWAP1 POP JUMP JUMPDEST PUSH1 0x0 PUSH1 0x20 DUP3 ADD SWAP1 POP DUP2 DUP2 SUB PUSH1 0x0 DUP4 ADD MSTORE PUSH2 0x4447 DUP2 PUSH2 0x440B JUMP JUMPDEST SWAP1 POP SWAP2 SWAP1 POP JUMP JUMPDEST PUSH1 0x0 DUP2 MLOAD SWAP1 POP SWAP2 SWAP1 POP JUMP JUMPDEST PUSH1 0x0 DUP2 SWAP1 POP SWAP3 SWAP2 POP POP JUMP JUMPDEST PUSH1 0x0 PUSH2 0x446F DUP3 PUSH2 0x444E JUMP JUMPDEST PUSH2 0x4479 DUP2 DUP6 PUSH2 0x4459 JUMP JUMPDEST SWAP4 POP PUSH2 0x4489 DUP2 DUP6 PUSH1 0x20 DUP7 ADD PUSH2 0x2FAF JUMP JUMPDEST DUP1 DUP5 ADD SWAP2 POP POP SWAP3 SWAP2 POP POP JUMP JUMPDEST PUSH1 0x0 PUSH2 0x44A1 DUP3 DUP5 PUSH2 0x4464 JUMP JUMPDEST SWAP2 POP DUP2 SWAP1 POP SWAP3 SWAP2 POP POP JUMP INVALID LOG2 PUSH5 0x6970667358 0x22 SLT KECCAK256 TIMESTAMP PUSH24 0x8BA96FA6F78D633B278B17474EFD564CC2A7FABDD5F4DF2F 0xEF 0xB4 0xDE PUSH25 0x9B2764736F6C63430008170033000000000000000000000000 "
				},
				"gasEstimates": {
					"creation": {
						"codeDepositCost": "3526800",
						"executionCost": "infinite",
						"totalCost": "infinite"
					},
					"external": {
						"activate()": "infinite",
						"addNewAggregatorPriceFeed(address)": "27139",
						"addNewPoolRateFeed(address)": "27138",
						"balanceOf()": "infinite",
						"balanceOfToken(address)": "infinite",
						"calculateAmount(uint256,uint256,uint256)": "infinite",
						"changeAcceptedSenderAddress(address)": "30349",
						"changeRateFeed()": "35632",
						"chargeContract(uint256)": "infinite",
						"checkAllowance()": "infinite",
						"currentRateFeed()": "infinite",
						"deactivate()": "32608",
						"getActivatorAndAcceptedSenderAddress()": "infinite",
						"getPointsBalance()": "9162",
						"getTokenInfo()": "infinite",
						"getTotalBurnedTokens()": "9118",
						"getTotalPointsGenerated()": "9161",
						"owner()": "2618",
						"paused()": "2569",
						"renounceOwnership()": "30615",
						"resume()": "infinite",
						"setModulator(uint256)": "infinite",
						"stop()": "infinite",
						"transferOfToken(address,address,uint256)": "infinite",
						"transferOwnership(address)": "31004",
						"viewModulator()": "2504",
						"withdraw(uint256,bytes32)": "infinite"
					},
					"internal": {
						"burnIncomingTokens(uint256)": "infinite",
						"calculatePoints(uint256,uint256,uint256)": "infinite",
						"currentFeed()": "infinite",
						"getRate()": "infinite"
					}
				},
				"methodIdentifiers": {
					"activate()": "0f15f4c0",
					"addNewAggregatorPriceFeed(address)": "0a6cb062",
					"addNewPoolRateFeed(address)": "b0b5e39e",
					"balanceOf()": "722713f7",
					"balanceOfToken(address)": "b99152d0",
					"calculateAmount(uint256,uint256,uint256)": "7754723e",
					"changeAcceptedSenderAddress(address)": "0ba2f1d8",
					"changeRateFeed()": "e8088766",
					"chargeContract(uint256)": "ed969c84",
					"checkAllowance()": "9405de64",
					"currentRateFeed()": "e6367ebe",
					"deactivate()": "51b42b00",
					"getActivatorAndAcceptedSenderAddress()": "0f0ccf61",
					"getPointsBalance()": "8eb89a61",
					"getTokenInfo()": "abb1dc44",
					"getTotalBurnedTokens()": "2af0e251",
					"getTotalPointsGenerated()": "a684ab5c",
					"owner()": "8da5cb5b",
					"paused()": "5c975abb",
					"renounceOwnership()": "715018a6",
					"resume()": "046f7da2",
					"setModulator(uint256)": "8dd25b07",
					"stop()": "07da68f5",
					"transferOfToken(address,address,uint256)": "6a9d43dd",
					"transferOwnership(address)": "f2fde38b",
					"viewModulator()": "96eebff0",
					"withdraw(uint256,bytes32)": "a8d2021a"
				}
			},
			"storageLayout": {
				"storage": [
					{
						"astId": 130,
						"contract": "token_eco_system_dev_contracts/contracts_ready_for_prod/Copy_TokenEcoSystemParticipationV1_3_draft.sol:TokenEcoSystemParticipation",
						"label": "_paused",
						"offset": 0,
						"slot": "0",
						"type": "t_bool"
					},
					{
						"astId": 7,
						"contract": "token_eco_system_dev_contracts/contracts_ready_for_prod/Copy_TokenEcoSystemParticipationV1_3_draft.sol:TokenEcoSystemParticipation",
						"label": "_owner",
						"offset": 1,
						"slot": "0",
						"type": "t_address"
					},
					{
						"astId": 1013,
						"contract": "token_eco_system_dev_contracts/contracts_ready_for_prod/Copy_TokenEcoSystemParticipationV1_3_draft.sol:TokenEcoSystemParticipation",
						"label": "acceptedSenderAddress",
						"offset": 0,
						"slot": "1",
						"type": "t_address"
					},
					{
						"astId": 1016,
						"contract": "token_eco_system_dev_contracts/contracts_ready_for_prod/Copy_TokenEcoSystemParticipationV1_3_draft.sol:TokenEcoSystemParticipation",
						"label": "poolRateFeed",
						"offset": 20,
						"slot": "1",
						"type": "t_bool"
					},
					{
						"astId": 1019,
						"contract": "token_eco_system_dev_contracts/contracts_ready_for_prod/Copy_TokenEcoSystemParticipationV1_3_draft.sol:TokenEcoSystemParticipation",
						"label": "totalBurned",
						"offset": 0,
						"slot": "2",
						"type": "t_uint256"
					},
					{
						"astId": 1022,
						"contract": "token_eco_system_dev_contracts/contracts_ready_for_prod/Copy_TokenEcoSystemParticipationV1_3_draft.sol:TokenEcoSystemParticipation",
						"label": "totalConverted",
						"offset": 0,
						"slot": "3",
						"type": "t_uint256"
					},
					{
						"astId": 1025,
						"contract": "token_eco_system_dev_contracts/contracts_ready_for_prod/Copy_TokenEcoSystemParticipationV1_3_draft.sol:TokenEcoSystemParticipation",
						"label": "pointsBalance",
						"offset": 0,
						"slot": "4",
						"type": "t_uint256"
					},
					{
						"astId": 1028,
						"contract": "token_eco_system_dev_contracts/contracts_ready_for_prod/Copy_TokenEcoSystemParticipationV1_3_draft.sol:TokenEcoSystemParticipation",
						"label": "modulator",
						"offset": 0,
						"slot": "5",
						"type": "t_uint256"
					},
					{
						"astId": 1031,
						"contract": "token_eco_system_dev_contracts/contracts_ready_for_prod/Copy_TokenEcoSystemParticipationV1_3_draft.sol:TokenEcoSystemParticipation",
						"label": "aggregatorConsumer",
						"offset": 0,
						"slot": "6",
						"type": "t_contract(AggregatorConsumerInterface)976"
					},
					{
						"astId": 1034,
						"contract": "token_eco_system_dev_contracts/contracts_ready_for_prod/Copy_TokenEcoSystemParticipationV1_3_draft.sol:TokenEcoSystemParticipation",
						"label": "poolConsumer",
						"offset": 0,
						"slot": "7",
						"type": "t_contract(PoolConsumerInterface)988"
					}
				],
				"types": {
					"t_address": {
						"encoding": "inplace",
						"label": "address",
						"numberOfBytes": "20"
					},
					"t_bool": {
						"encoding": "inplace",
						"label": "bool",
						"numberOfBytes": "1"
					},
					"t_contract(AggregatorConsumerInterface)976": {
						"encoding": "inplace",
						"label": "contract AggregatorConsumerInterface",
						"numberOfBytes": "20"
					},
					"t_contract(PoolConsumerInterface)988": {
						"encoding": "inplace",
						"label": "contract PoolConsumerInterface",
						"numberOfBytes": "20"
					},
					"t_uint256": {
						"encoding": "inplace",
						"label": "uint256",
						"numberOfBytes": "32"
					}
				}
			},
			"userdoc": {
				"kind": "user",
				"methods": {},
				"version": 1
			}
		}
	}
}