{
	"token_eco_system_dev_contracts/contracts_ready_for_prod/AggregatorRate.sol": {
		"AggregatorRate": {
			"abi": [
				{
					"inputs": [
						{
							"internalType": "string",
							"name": "assetOne",
							"type": "string"
						},
						{
							"internalType": "string",
							"name": "assetTwo",
							"type": "string"
						},
						{
							"internalType": "address",
							"name": "aggregatorAddress",
							"type": "address"
						}
					],
					"stateMutability": "nonpayable",
					"type": "constructor"
				},
				{
					"inputs": [],
					"name": "activate",
					"outputs": [],
					"stateMutability": "nonpayable",
					"type": "function"
				},
				{
					"inputs": [],
					"name": "admin",
					"outputs": [
						{
							"internalType": "address",
							"name": "",
							"type": "address"
						}
					],
					"stateMutability": "view",
					"type": "function"
				},
				{
					"inputs": [
						{
							"internalType": "string",
							"name": "assetOne",
							"type": "string"
						},
						{
							"internalType": "string",
							"name": "assetTwo",
							"type": "string"
						},
						{
							"internalType": "address",
							"name": "aggregatorAddress",
							"type": "address"
						}
					],
					"name": "changeAggregatorAddress",
					"outputs": [],
					"stateMutability": "nonpayable",
					"type": "function"
				},
				{
					"inputs": [],
					"name": "deactivate",
					"outputs": [],
					"stateMutability": "nonpayable",
					"type": "function"
				},
				{
					"inputs": [],
					"name": "getLatestRate",
					"outputs": [
						{
							"internalType": "int256",
							"name": "",
							"type": "int256"
						},
						{
							"internalType": "uint256",
							"name": "",
							"type": "uint256"
						},
						{
							"internalType": "string",
							"name": "",
							"type": "string"
						},
						{
							"internalType": "uint256",
							"name": "",
							"type": "uint256"
						}
					],
					"stateMutability": "view",
					"type": "function"
				}
			],
			"devdoc": {
				"kind": "dev",
				"methods": {},
				"version": 1
			},
			"evm": {
				"assembly": "    /* \"token_eco_system_dev_contracts/contracts_ready_for_prod/AggregatorRate.sol\":291:1826  contract AggregatorRate{... */\n  mstore(0x40, 0xa0)\n    /* \"token_eco_system_dev_contracts/contracts_ready_for_prod/AggregatorRate.sol\":452:456  true */\n  0x01\n    /* \"token_eco_system_dev_contracts/contracts_ready_for_prod/AggregatorRate.sol\":430:456  bool private active = true */\n  0x02\n  exp(0x0100, 0x00)\n  dup2\n  sload\n  dup2\n  0xff\n  mul\n  not\n  and\n  swap1\n  dup4\n  iszero\n  iszero\n  mul\n  or\n  swap1\n  sstore\n  pop\n    /* \"token_eco_system_dev_contracts/contracts_ready_for_prod/AggregatorRate.sol\":569:885  constructor(string memory assetOne, string memory assetTwo, address aggregatorAddress) {... */\n  callvalue\n  dup1\n  iszero\n  tag_1\n  jumpi\n  0x00\n  dup1\n  revert\ntag_1:\n  pop\n  mload(0x40)\n  sub(codesize, bytecodeSize)\n  dup1\n  bytecodeSize\n  dup4\n  codecopy\n  dup2\n  dup2\n  add\n  0x40\n  mstore\n  dup2\n  add\n  swap1\n  tag_2\n  swap2\n  swap1\n  tag_3\n  jump\t// in\ntag_2:\n    /* \"token_eco_system_dev_contracts/contracts_ready_for_prod/AggregatorRate.sol\":703:704  0 */\n  0x00\n    /* \"token_eco_system_dev_contracts/contracts_ready_for_prod/AggregatorRate.sol\":674:705  aggregatorAddress != address(0) */\n  0xffffffffffffffffffffffffffffffffffffffff\n  and\n    /* \"token_eco_system_dev_contracts/contracts_ready_for_prod/AggregatorRate.sol\":674:691  aggregatorAddress */\n  dup2\n    /* \"token_eco_system_dev_contracts/contracts_ready_for_prod/AggregatorRate.sol\":674:705  aggregatorAddress != address(0) */\n  0xffffffffffffffffffffffffffffffffffffffff\n  and\n  sub\n    /* \"token_eco_system_dev_contracts/contracts_ready_for_prod/AggregatorRate.sol\":666:706  require(aggregatorAddress != address(0)) */\n  tag_6\n  jumpi\n  0x00\n  dup1\n  revert\ntag_6:\n    /* \"token_eco_system_dev_contracts/contracts_ready_for_prod/AggregatorRate.sol\":763:780  aggregatorAddress */\n  dup1\n    /* \"token_eco_system_dev_contracts/contracts_ready_for_prod/AggregatorRate.sol\":716:725  priceFeed */\n  0x00\n  dup1\n    /* \"token_eco_system_dev_contracts/contracts_ready_for_prod/AggregatorRate.sol\":716:790  priceFeed = AggregatorV3Interface(... */\n  0x0100\n  exp\n  dup2\n  sload\n  dup2\n  0xffffffffffffffffffffffffffffffffffffffff\n  mul\n  not\n  and\n  swap1\n  dup4\n  0xffffffffffffffffffffffffffffffffffffffff\n  and\n  mul\n  or\n  swap1\n  sstore\n  pop\n    /* \"token_eco_system_dev_contracts/contracts_ready_for_prod/AggregatorRate.sol\":827:835  assetOne */\n  dup3\n    /* \"token_eco_system_dev_contracts/contracts_ready_for_prod/AggregatorRate.sol\":840:848  assetTwo */\n  dup3\n    /* \"token_eco_system_dev_contracts/contracts_ready_for_prod/AggregatorRate.sol\":813:849  string.concat(assetOne,\"/\",assetTwo) */\n  add(0x20, mload(0x40))\n  tag_7\n  swap3\n  swap2\n  swap1\n  tag_8\n  jump\t// in\ntag_7:\n  mload(0x40)\n  0x20\n  dup2\n  dup4\n  sub\n  sub\n  dup2\n  mstore\n  swap1\n  0x40\n  mstore\n    /* \"token_eco_system_dev_contracts/contracts_ready_for_prod/AggregatorRate.sol\":800:810  rateString */\n  0x01\n    /* \"token_eco_system_dev_contracts/contracts_ready_for_prod/AggregatorRate.sol\":800:849  rateString = string.concat(assetOne,\"/\",assetTwo) */\n  swap1\n  dup2\n  tag_9\n  swap2\n  swap1\n  tag_10\n  jump\t// in\ntag_9:\n  pop\n    /* \"token_eco_system_dev_contracts/contracts_ready_for_prod/AggregatorRate.sol\":868:878  msg.sender */\n  caller\n    /* \"token_eco_system_dev_contracts/contracts_ready_for_prod/AggregatorRate.sol\":860:878  admin = msg.sender */\n  0xffffffffffffffffffffffffffffffffffffffff\n  and\n  0x80\n  dup2\n  0xffffffffffffffffffffffffffffffffffffffff\n  and\n  dup2\n  mstore\n  pop\n  pop\n    /* \"token_eco_system_dev_contracts/contracts_ready_for_prod/AggregatorRate.sol\":569:885  constructor(string memory assetOne, string memory assetTwo, address aggregatorAddress) {... */\n  pop\n  pop\n  pop\n    /* \"token_eco_system_dev_contracts/contracts_ready_for_prod/AggregatorRate.sol\":291:1826  contract AggregatorRate{... */\n  jump(tag_11)\n    /* \"#utility.yul\":7:82   */\ntag_12:\n    /* \"#utility.yul\":40:46   */\n  0x00\n    /* \"#utility.yul\":73:75   */\n  0x40\n    /* \"#utility.yul\":67:76   */\n  mload\n    /* \"#utility.yul\":57:76   */\n  swap1\n  pop\n    /* \"#utility.yul\":7:82   */\n  swap1\n  jump\t// out\n    /* \"#utility.yul\":88:205   */\ntag_13:\n    /* \"#utility.yul\":197:198   */\n  0x00\n    /* \"#utility.yul\":194:195   */\n  dup1\n    /* \"#utility.yul\":187:199   */\n  revert\n    /* \"#utility.yul\":211:328   */\ntag_14:\n    /* \"#utility.yul\":320:321   */\n  0x00\n    /* \"#utility.yul\":317:318   */\n  dup1\n    /* \"#utility.yul\":310:322   */\n  revert\n    /* \"#utility.yul\":334:451   */\ntag_15:\n    /* \"#utility.yul\":443:444   */\n  0x00\n    /* \"#utility.yul\":440:441   */\n  dup1\n    /* \"#utility.yul\":433:445   */\n  revert\n    /* \"#utility.yul\":457:574   */\ntag_16:\n    /* \"#utility.yul\":566:567   */\n  0x00\n    /* \"#utility.yul\":563:564   */\n  dup1\n    /* \"#utility.yul\":556:568   */\n  revert\n    /* \"#utility.yul\":580:682   */\ntag_17:\n    /* \"#utility.yul\":621:627   */\n  0x00\n    /* \"#utility.yul\":672:674   */\n  0x1f\n    /* \"#utility.yul\":668:675   */\n  not\n    /* \"#utility.yul\":663:665   */\n  0x1f\n    /* \"#utility.yul\":656:661   */\n  dup4\n    /* \"#utility.yul\":652:666   */\n  add\n    /* \"#utility.yul\":648:676   */\n  and\n    /* \"#utility.yul\":638:676   */\n  swap1\n  pop\n    /* \"#utility.yul\":580:682   */\n  swap2\n  swap1\n  pop\n  jump\t// out\n    /* \"#utility.yul\":688:868   */\ntag_18:\n    /* \"#utility.yul\":736:813   */\n  0x4e487b7100000000000000000000000000000000000000000000000000000000\n    /* \"#utility.yul\":733:734   */\n  0x00\n    /* \"#utility.yul\":726:814   */\n  mstore\n    /* \"#utility.yul\":833:837   */\n  0x41\n    /* \"#utility.yul\":830:831   */\n  0x04\n    /* \"#utility.yul\":823:838   */\n  mstore\n    /* \"#utility.yul\":857:861   */\n  0x24\n    /* \"#utility.yul\":854:855   */\n  0x00\n    /* \"#utility.yul\":847:862   */\n  revert\n    /* \"#utility.yul\":874:1155   */\ntag_19:\n    /* \"#utility.yul\":957:984   */\n  tag_60\n    /* \"#utility.yul\":979:983   */\n  dup3\n    /* \"#utility.yul\":957:984   */\n  tag_17\n  jump\t// in\ntag_60:\n    /* \"#utility.yul\":949:955   */\n  dup2\n    /* \"#utility.yul\":945:985   */\n  add\n    /* \"#utility.yul\":1087:1093   */\n  dup2\n    /* \"#utility.yul\":1075:1085   */\n  dup2\n    /* \"#utility.yul\":1072:1094   */\n  lt\n    /* \"#utility.yul\":1051:1069   */\n  0xffffffffffffffff\n    /* \"#utility.yul\":1039:1049   */\n  dup3\n    /* \"#utility.yul\":1036:1070   */\n  gt\n    /* \"#utility.yul\":1033:1095   */\n  or\n    /* \"#utility.yul\":1030:1118   */\n  iszero\n  tag_61\n  jumpi\n    /* \"#utility.yul\":1098:1116   */\n  tag_62\n  tag_18\n  jump\t// in\ntag_62:\n    /* \"#utility.yul\":1030:1118   */\ntag_61:\n    /* \"#utility.yul\":1138:1148   */\n  dup1\n    /* \"#utility.yul\":1134:1136   */\n  0x40\n    /* \"#utility.yul\":1127:1149   */\n  mstore\n    /* \"#utility.yul\":917:1155   */\n  pop\n    /* \"#utility.yul\":874:1155   */\n  pop\n  pop\n  jump\t// out\n    /* \"#utility.yul\":1161:1290   */\ntag_20:\n    /* \"#utility.yul\":1195:1201   */\n  0x00\n    /* \"#utility.yul\":1222:1242   */\n  tag_64\n  tag_12\n  jump\t// in\ntag_64:\n    /* \"#utility.yul\":1212:1242   */\n  swap1\n  pop\n    /* \"#utility.yul\":1251:1284   */\n  tag_65\n    /* \"#utility.yul\":1279:1283   */\n  dup3\n    /* \"#utility.yul\":1271:1277   */\n  dup3\n    /* \"#utility.yul\":1251:1284   */\n  tag_19\n  jump\t// in\ntag_65:\n    /* \"#utility.yul\":1161:1290   */\n  swap2\n  swap1\n  pop\n  jump\t// out\n    /* \"#utility.yul\":1296:1604   */\ntag_21:\n    /* \"#utility.yul\":1358:1362   */\n  0x00\n    /* \"#utility.yul\":1448:1466   */\n  0xffffffffffffffff\n    /* \"#utility.yul\":1440:1446   */\n  dup3\n    /* \"#utility.yul\":1437:1467   */\n  gt\n    /* \"#utility.yul\":1434:1490   */\n  iszero\n  tag_67\n  jumpi\n    /* \"#utility.yul\":1470:1488   */\n  tag_68\n  tag_18\n  jump\t// in\ntag_68:\n    /* \"#utility.yul\":1434:1490   */\ntag_67:\n    /* \"#utility.yul\":1508:1537   */\n  tag_69\n    /* \"#utility.yul\":1530:1536   */\n  dup3\n    /* \"#utility.yul\":1508:1537   */\n  tag_17\n  jump\t// in\ntag_69:\n    /* \"#utility.yul\":1500:1537   */\n  swap1\n  pop\n    /* \"#utility.yul\":1592:1596   */\n  0x20\n    /* \"#utility.yul\":1586:1590   */\n  dup2\n    /* \"#utility.yul\":1582:1597   */\n  add\n    /* \"#utility.yul\":1574:1597   */\n  swap1\n  pop\n    /* \"#utility.yul\":1296:1604   */\n  swap2\n  swap1\n  pop\n  jump\t// out\n    /* \"#utility.yul\":1610:1856   */\ntag_22:\n    /* \"#utility.yul\":1691:1692   */\n  0x00\n    /* \"#utility.yul\":1701:1814   */\ntag_71:\n    /* \"#utility.yul\":1715:1721   */\n  dup4\n    /* \"#utility.yul\":1712:1713   */\n  dup2\n    /* \"#utility.yul\":1709:1722   */\n  lt\n    /* \"#utility.yul\":1701:1814   */\n  iszero\n  tag_73\n  jumpi\n    /* \"#utility.yul\":1800:1801   */\n  dup1\n    /* \"#utility.yul\":1795:1798   */\n  dup3\n    /* \"#utility.yul\":1791:1802   */\n  add\n    /* \"#utility.yul\":1785:1803   */\n  mload\n    /* \"#utility.yul\":1781:1782   */\n  dup2\n    /* \"#utility.yul\":1776:1779   */\n  dup5\n    /* \"#utility.yul\":1772:1783   */\n  add\n    /* \"#utility.yul\":1765:1804   */\n  mstore\n    /* \"#utility.yul\":1737:1739   */\n  0x20\n    /* \"#utility.yul\":1734:1735   */\n  dup2\n    /* \"#utility.yul\":1730:1740   */\n  add\n    /* \"#utility.yul\":1725:1740   */\n  swap1\n  pop\n    /* \"#utility.yul\":1701:1814   */\n  jump(tag_71)\ntag_73:\n    /* \"#utility.yul\":1848:1849   */\n  0x00\n    /* \"#utility.yul\":1839:1845   */\n  dup5\n    /* \"#utility.yul\":1834:1837   */\n  dup5\n    /* \"#utility.yul\":1830:1846   */\n  add\n    /* \"#utility.yul\":1823:1850   */\n  mstore\n    /* \"#utility.yul\":1672:1856   */\n  pop\n    /* \"#utility.yul\":1610:1856   */\n  pop\n  pop\n  pop\n  jump\t// out\n    /* \"#utility.yul\":1862:2296   */\ntag_23:\n    /* \"#utility.yul\":1951:1956   */\n  0x00\n    /* \"#utility.yul\":1976:2042   */\n  tag_75\n    /* \"#utility.yul\":1992:2041   */\n  tag_76\n    /* \"#utility.yul\":2034:2040   */\n  dup5\n    /* \"#utility.yul\":1992:2041   */\n  tag_21\n  jump\t// in\ntag_76:\n    /* \"#utility.yul\":1976:2042   */\n  tag_20\n  jump\t// in\ntag_75:\n    /* \"#utility.yul\":1967:2042   */\n  swap1\n  pop\n    /* \"#utility.yul\":2065:2071   */\n  dup3\n    /* \"#utility.yul\":2058:2063   */\n  dup2\n    /* \"#utility.yul\":2051:2072   */\n  mstore\n    /* \"#utility.yul\":2103:2107   */\n  0x20\n    /* \"#utility.yul\":2096:2101   */\n  dup2\n    /* \"#utility.yul\":2092:2108   */\n  add\n    /* \"#utility.yul\":2141:2144   */\n  dup5\n    /* \"#utility.yul\":2132:2138   */\n  dup5\n    /* \"#utility.yul\":2127:2130   */\n  dup5\n    /* \"#utility.yul\":2123:2139   */\n  add\n    /* \"#utility.yul\":2120:2145   */\n  gt\n    /* \"#utility.yul\":2117:2229   */\n  iszero\n  tag_77\n  jumpi\n    /* \"#utility.yul\":2148:2227   */\n  tag_78\n  tag_16\n  jump\t// in\ntag_78:\n    /* \"#utility.yul\":2117:2229   */\ntag_77:\n    /* \"#utility.yul\":2238:2290   */\n  tag_79\n    /* \"#utility.yul\":2283:2289   */\n  dup5\n    /* \"#utility.yul\":2278:2281   */\n  dup3\n    /* \"#utility.yul\":2273:2276   */\n  dup6\n    /* \"#utility.yul\":2238:2290   */\n  tag_22\n  jump\t// in\ntag_79:\n    /* \"#utility.yul\":1957:2296   */\n  pop\n    /* \"#utility.yul\":1862:2296   */\n  swap4\n  swap3\n  pop\n  pop\n  pop\n  jump\t// out\n    /* \"#utility.yul\":2316:2671   */\ntag_24:\n    /* \"#utility.yul\":2383:2388   */\n  0x00\n    /* \"#utility.yul\":2432:2435   */\n  dup3\n    /* \"#utility.yul\":2425:2429   */\n  0x1f\n    /* \"#utility.yul\":2417:2423   */\n  dup4\n    /* \"#utility.yul\":2413:2430   */\n  add\n    /* \"#utility.yul\":2409:2436   */\n  slt\n    /* \"#utility.yul\":2399:2521   */\n  tag_81\n  jumpi\n    /* \"#utility.yul\":2440:2519   */\n  tag_82\n  tag_15\n  jump\t// in\ntag_82:\n    /* \"#utility.yul\":2399:2521   */\ntag_81:\n    /* \"#utility.yul\":2550:2556   */\n  dup2\n    /* \"#utility.yul\":2544:2557   */\n  mload\n    /* \"#utility.yul\":2575:2665   */\n  tag_83\n    /* \"#utility.yul\":2661:2664   */\n  dup5\n    /* \"#utility.yul\":2653:2659   */\n  dup3\n    /* \"#utility.yul\":2646:2650   */\n  0x20\n    /* \"#utility.yul\":2638:2644   */\n  dup7\n    /* \"#utility.yul\":2634:2651   */\n  add\n    /* \"#utility.yul\":2575:2665   */\n  tag_23\n  jump\t// in\ntag_83:\n    /* \"#utility.yul\":2566:2665   */\n  swap2\n  pop\n    /* \"#utility.yul\":2389:2671   */\n  pop\n    /* \"#utility.yul\":2316:2671   */\n  swap3\n  swap2\n  pop\n  pop\n  jump\t// out\n    /* \"#utility.yul\":2677:2803   */\ntag_25:\n    /* \"#utility.yul\":2714:2721   */\n  0x00\n    /* \"#utility.yul\":2754:2796   */\n  0xffffffffffffffffffffffffffffffffffffffff\n    /* \"#utility.yul\":2747:2752   */\n  dup3\n    /* \"#utility.yul\":2743:2797   */\n  and\n    /* \"#utility.yul\":2732:2797   */\n  swap1\n  pop\n    /* \"#utility.yul\":2677:2803   */\n  swap2\n  swap1\n  pop\n  jump\t// out\n    /* \"#utility.yul\":2809:2905   */\ntag_26:\n    /* \"#utility.yul\":2846:2853   */\n  0x00\n    /* \"#utility.yul\":2875:2899   */\n  tag_86\n    /* \"#utility.yul\":2893:2898   */\n  dup3\n    /* \"#utility.yul\":2875:2899   */\n  tag_25\n  jump\t// in\ntag_86:\n    /* \"#utility.yul\":2864:2899   */\n  swap1\n  pop\n    /* \"#utility.yul\":2809:2905   */\n  swap2\n  swap1\n  pop\n  jump\t// out\n    /* \"#utility.yul\":2911:3033   */\ntag_27:\n    /* \"#utility.yul\":2984:3008   */\n  tag_88\n    /* \"#utility.yul\":3002:3007   */\n  dup2\n    /* \"#utility.yul\":2984:3008   */\n  tag_26\n  jump\t// in\ntag_88:\n    /* \"#utility.yul\":2977:2982   */\n  dup2\n    /* \"#utility.yul\":2974:3009   */\n  eq\n    /* \"#utility.yul\":2964:3027   */\n  tag_89\n  jumpi\n    /* \"#utility.yul\":3023:3024   */\n  0x00\n    /* \"#utility.yul\":3020:3021   */\n  dup1\n    /* \"#utility.yul\":3013:3025   */\n  revert\n    /* \"#utility.yul\":2964:3027   */\ntag_89:\n    /* \"#utility.yul\":2911:3033   */\n  pop\n  jump\t// out\n    /* \"#utility.yul\":3039:3182   */\ntag_28:\n    /* \"#utility.yul\":3096:3101   */\n  0x00\n    /* \"#utility.yul\":3127:3133   */\n  dup2\n    /* \"#utility.yul\":3121:3134   */\n  mload\n    /* \"#utility.yul\":3112:3134   */\n  swap1\n  pop\n    /* \"#utility.yul\":3143:3176   */\n  tag_91\n    /* \"#utility.yul\":3170:3175   */\n  dup2\n    /* \"#utility.yul\":3143:3176   */\n  tag_27\n  jump\t// in\ntag_91:\n    /* \"#utility.yul\":3039:3182   */\n  swap3\n  swap2\n  pop\n  pop\n  jump\t// out\n    /* \"#utility.yul\":3188:4197   */\ntag_3:\n    /* \"#utility.yul\":3296:3302   */\n  0x00\n    /* \"#utility.yul\":3304:3310   */\n  dup1\n    /* \"#utility.yul\":3312:3318   */\n  0x00\n    /* \"#utility.yul\":3361:3363   */\n  0x60\n    /* \"#utility.yul\":3349:3358   */\n  dup5\n    /* \"#utility.yul\":3340:3347   */\n  dup7\n    /* \"#utility.yul\":3336:3359   */\n  sub\n    /* \"#utility.yul\":3332:3364   */\n  slt\n    /* \"#utility.yul\":3329:3448   */\n  iszero\n  tag_93\n  jumpi\n    /* \"#utility.yul\":3367:3446   */\n  tag_94\n  tag_13\n  jump\t// in\ntag_94:\n    /* \"#utility.yul\":3329:3448   */\ntag_93:\n    /* \"#utility.yul\":3508:3509   */\n  0x00\n    /* \"#utility.yul\":3497:3506   */\n  dup5\n    /* \"#utility.yul\":3493:3510   */\n  add\n    /* \"#utility.yul\":3487:3511   */\n  mload\n    /* \"#utility.yul\":3538:3556   */\n  0xffffffffffffffff\n    /* \"#utility.yul\":3530:3536   */\n  dup2\n    /* \"#utility.yul\":3527:3557   */\n  gt\n    /* \"#utility.yul\":3524:3641   */\n  iszero\n  tag_95\n  jumpi\n    /* \"#utility.yul\":3560:3639   */\n  tag_96\n  tag_14\n  jump\t// in\ntag_96:\n    /* \"#utility.yul\":3524:3641   */\ntag_95:\n    /* \"#utility.yul\":3665:3739   */\n  tag_97\n    /* \"#utility.yul\":3731:3738   */\n  dup7\n    /* \"#utility.yul\":3722:3728   */\n  dup3\n    /* \"#utility.yul\":3711:3720   */\n  dup8\n    /* \"#utility.yul\":3707:3729   */\n  add\n    /* \"#utility.yul\":3665:3739   */\n  tag_24\n  jump\t// in\ntag_97:\n    /* \"#utility.yul\":3655:3739   */\n  swap4\n  pop\n    /* \"#utility.yul\":3458:3749   */\n  pop\n    /* \"#utility.yul\":3809:3811   */\n  0x20\n    /* \"#utility.yul\":3798:3807   */\n  dup5\n    /* \"#utility.yul\":3794:3812   */\n  add\n    /* \"#utility.yul\":3788:3813   */\n  mload\n    /* \"#utility.yul\":3840:3858   */\n  0xffffffffffffffff\n    /* \"#utility.yul\":3832:3838   */\n  dup2\n    /* \"#utility.yul\":3829:3859   */\n  gt\n    /* \"#utility.yul\":3826:3943   */\n  iszero\n  tag_98\n  jumpi\n    /* \"#utility.yul\":3862:3941   */\n  tag_99\n  tag_14\n  jump\t// in\ntag_99:\n    /* \"#utility.yul\":3826:3943   */\ntag_98:\n    /* \"#utility.yul\":3967:4041   */\n  tag_100\n    /* \"#utility.yul\":4033:4040   */\n  dup7\n    /* \"#utility.yul\":4024:4030   */\n  dup3\n    /* \"#utility.yul\":4013:4022   */\n  dup8\n    /* \"#utility.yul\":4009:4031   */\n  add\n    /* \"#utility.yul\":3967:4041   */\n  tag_24\n  jump\t// in\ntag_100:\n    /* \"#utility.yul\":3957:4041   */\n  swap3\n  pop\n    /* \"#utility.yul\":3759:4051   */\n  pop\n    /* \"#utility.yul\":4090:4092   */\n  0x40\n    /* \"#utility.yul\":4116:4180   */\n  tag_101\n    /* \"#utility.yul\":4172:4179   */\n  dup7\n    /* \"#utility.yul\":4163:4169   */\n  dup3\n    /* \"#utility.yul\":4152:4161   */\n  dup8\n    /* \"#utility.yul\":4148:4170   */\n  add\n    /* \"#utility.yul\":4116:4180   */\n  tag_28\n  jump\t// in\ntag_101:\n    /* \"#utility.yul\":4106:4180   */\n  swap2\n  pop\n    /* \"#utility.yul\":4061:4190   */\n  pop\n    /* \"#utility.yul\":3188:4197   */\n  swap3\n  pop\n  swap3\n  pop\n  swap3\n  jump\t// out\n    /* \"#utility.yul\":4203:4302   */\ntag_29:\n    /* \"#utility.yul\":4255:4261   */\n  0x00\n    /* \"#utility.yul\":4289:4294   */\n  dup2\n    /* \"#utility.yul\":4283:4295   */\n  mload\n    /* \"#utility.yul\":4273:4295   */\n  swap1\n  pop\n    /* \"#utility.yul\":4203:4302   */\n  swap2\n  swap1\n  pop\n  jump\t// out\n    /* \"#utility.yul\":4308:4456   */\ntag_30:\n    /* \"#utility.yul\":4410:4421   */\n  0x00\n    /* \"#utility.yul\":4447:4450   */\n  dup2\n    /* \"#utility.yul\":4432:4450   */\n  swap1\n  pop\n    /* \"#utility.yul\":4308:4456   */\n  swap3\n  swap2\n  pop\n  pop\n  jump\t// out\n    /* \"#utility.yul\":4462:4852   */\ntag_31:\n    /* \"#utility.yul\":4568:4571   */\n  0x00\n    /* \"#utility.yul\":4596:4635   */\n  tag_105\n    /* \"#utility.yul\":4629:4634   */\n  dup3\n    /* \"#utility.yul\":4596:4635   */\n  tag_29\n  jump\t// in\ntag_105:\n    /* \"#utility.yul\":4651:4740   */\n  tag_106\n    /* \"#utility.yul\":4733:4739   */\n  dup2\n    /* \"#utility.yul\":4728:4731   */\n  dup6\n    /* \"#utility.yul\":4651:4740   */\n  tag_30\n  jump\t// in\ntag_106:\n    /* \"#utility.yul\":4644:4740   */\n  swap4\n  pop\n    /* \"#utility.yul\":4749:4814   */\n  tag_107\n    /* \"#utility.yul\":4807:4813   */\n  dup2\n    /* \"#utility.yul\":4802:4805   */\n  dup6\n    /* \"#utility.yul\":4795:4799   */\n  0x20\n    /* \"#utility.yul\":4788:4793   */\n  dup7\n    /* \"#utility.yul\":4784:4800   */\n  add\n    /* \"#utility.yul\":4749:4814   */\n  tag_22\n  jump\t// in\ntag_107:\n    /* \"#utility.yul\":4839:4845   */\n  dup1\n    /* \"#utility.yul\":4834:4837   */\n  dup5\n    /* \"#utility.yul\":4830:4846   */\n  add\n    /* \"#utility.yul\":4823:4846   */\n  swap2\n  pop\n    /* \"#utility.yul\":4572:4852   */\n  pop\n    /* \"#utility.yul\":4462:4852   */\n  swap3\n  swap2\n  pop\n  pop\n  jump\t// out\n    /* \"#utility.yul\":4858:5036   */\ntag_32:\n    /* \"#utility.yul\":5026:5029   */\n  0x2f00000000000000000000000000000000000000000000000000000000000000\n    /* \"#utility.yul\":5021:5024   */\n  dup2\n    /* \"#utility.yul\":5014:5030   */\n  mstore\n    /* \"#utility.yul\":4858:5036   */\n  pop\n  jump\t// out\n    /* \"#utility.yul\":5042:5741   */\ntag_8:\n    /* \"#utility.yul\":5312:5315   */\n  0x00\n    /* \"#utility.yul\":5334:5429   */\n  tag_110\n    /* \"#utility.yul\":5425:5428   */\n  dup3\n    /* \"#utility.yul\":5416:5422   */\n  dup6\n    /* \"#utility.yul\":5334:5429   */\n  tag_31\n  jump\t// in\ntag_110:\n    /* \"#utility.yul\":5327:5429   */\n  swap2\n  pop\n    /* \"#utility.yul\":5439:5576   */\n  tag_111\n    /* \"#utility.yul\":5572:5575   */\n  dup3\n    /* \"#utility.yul\":5439:5576   */\n  tag_32\n  jump\t// in\ntag_111:\n    /* \"#utility.yul\":5601:5602   */\n  0x01\n    /* \"#utility.yul\":5596:5599   */\n  dup3\n    /* \"#utility.yul\":5592:5603   */\n  add\n    /* \"#utility.yul\":5585:5603   */\n  swap2\n  pop\n    /* \"#utility.yul\":5620:5715   */\n  tag_112\n    /* \"#utility.yul\":5711:5714   */\n  dup3\n    /* \"#utility.yul\":5702:5708   */\n  dup5\n    /* \"#utility.yul\":5620:5715   */\n  tag_31\n  jump\t// in\ntag_112:\n    /* \"#utility.yul\":5613:5715   */\n  swap2\n  pop\n    /* \"#utility.yul\":5732:5735   */\n  dup2\n    /* \"#utility.yul\":5725:5735   */\n  swap1\n  pop\n    /* \"#utility.yul\":5042:5741   */\n  swap4\n  swap3\n  pop\n  pop\n  pop\n  jump\t// out\n    /* \"#utility.yul\":5747:5927   */\ntag_33:\n    /* \"#utility.yul\":5795:5872   */\n  0x4e487b7100000000000000000000000000000000000000000000000000000000\n    /* \"#utility.yul\":5792:5793   */\n  0x00\n    /* \"#utility.yul\":5785:5873   */\n  mstore\n    /* \"#utility.yul\":5892:5896   */\n  0x22\n    /* \"#utility.yul\":5889:5890   */\n  0x04\n    /* \"#utility.yul\":5882:5897   */\n  mstore\n    /* \"#utility.yul\":5916:5920   */\n  0x24\n    /* \"#utility.yul\":5913:5914   */\n  0x00\n    /* \"#utility.yul\":5906:5921   */\n  revert\n    /* \"#utility.yul\":5933:6253   */\ntag_34:\n    /* \"#utility.yul\":5977:5983   */\n  0x00\n    /* \"#utility.yul\":6014:6015   */\n  0x02\n    /* \"#utility.yul\":6008:6012   */\n  dup3\n    /* \"#utility.yul\":6004:6016   */\n  div\n    /* \"#utility.yul\":5994:6016   */\n  swap1\n  pop\n    /* \"#utility.yul\":6061:6062   */\n  0x01\n    /* \"#utility.yul\":6055:6059   */\n  dup3\n    /* \"#utility.yul\":6051:6063   */\n  and\n    /* \"#utility.yul\":6082:6100   */\n  dup1\n    /* \"#utility.yul\":6072:6153   */\n  tag_115\n  jumpi\n    /* \"#utility.yul\":6138:6142   */\n  0x7f\n    /* \"#utility.yul\":6130:6136   */\n  dup3\n    /* \"#utility.yul\":6126:6143   */\n  and\n    /* \"#utility.yul\":6116:6143   */\n  swap2\n  pop\n    /* \"#utility.yul\":6072:6153   */\ntag_115:\n    /* \"#utility.yul\":6200:6202   */\n  0x20\n    /* \"#utility.yul\":6192:6198   */\n  dup3\n    /* \"#utility.yul\":6189:6203   */\n  lt\n    /* \"#utility.yul\":6169:6187   */\n  dup2\n    /* \"#utility.yul\":6166:6204   */\n  sub\n    /* \"#utility.yul\":6163:6247   */\n  tag_116\n  jumpi\n    /* \"#utility.yul\":6219:6237   */\n  tag_117\n  tag_33\n  jump\t// in\ntag_117:\n    /* \"#utility.yul\":6163:6247   */\ntag_116:\n    /* \"#utility.yul\":5984:6253   */\n  pop\n    /* \"#utility.yul\":5933:6253   */\n  swap2\n  swap1\n  pop\n  jump\t// out\n    /* \"#utility.yul\":6259:6400   */\ntag_35:\n    /* \"#utility.yul\":6308:6312   */\n  0x00\n    /* \"#utility.yul\":6331:6334   */\n  dup2\n    /* \"#utility.yul\":6323:6334   */\n  swap1\n  pop\n    /* \"#utility.yul\":6354:6357   */\n  dup2\n    /* \"#utility.yul\":6351:6352   */\n  0x00\n    /* \"#utility.yul\":6344:6358   */\n  mstore\n    /* \"#utility.yul\":6388:6392   */\n  0x20\n    /* \"#utility.yul\":6385:6386   */\n  0x00\n    /* \"#utility.yul\":6375:6393   */\n  keccak256\n    /* \"#utility.yul\":6367:6393   */\n  swap1\n  pop\n    /* \"#utility.yul\":6259:6400   */\n  swap2\n  swap1\n  pop\n  jump\t// out\n    /* \"#utility.yul\":6406:6499   */\ntag_36:\n    /* \"#utility.yul\":6443:6449   */\n  0x00\n    /* \"#utility.yul\":6490:6492   */\n  0x20\n    /* \"#utility.yul\":6485:6487   */\n  0x1f\n    /* \"#utility.yul\":6478:6483   */\n  dup4\n    /* \"#utility.yul\":6474:6488   */\n  add\n    /* \"#utility.yul\":6470:6493   */\n  div\n    /* \"#utility.yul\":6460:6493   */\n  swap1\n  pop\n    /* \"#utility.yul\":6406:6499   */\n  swap2\n  swap1\n  pop\n  jump\t// out\n    /* \"#utility.yul\":6505:6612   */\ntag_37:\n    /* \"#utility.yul\":6549:6557   */\n  0x00\n    /* \"#utility.yul\":6599:6604   */\n  dup3\n    /* \"#utility.yul\":6593:6597   */\n  dup3\n    /* \"#utility.yul\":6589:6605   */\n  shl\n    /* \"#utility.yul\":6568:6605   */\n  swap1\n  pop\n    /* \"#utility.yul\":6505:6612   */\n  swap3\n  swap2\n  pop\n  pop\n  jump\t// out\n    /* \"#utility.yul\":6618:7011   */\ntag_38:\n    /* \"#utility.yul\":6687:6693   */\n  0x00\n    /* \"#utility.yul\":6737:6738   */\n  0x08\n    /* \"#utility.yul\":6725:6735   */\n  dup4\n    /* \"#utility.yul\":6721:6739   */\n  mul\n    /* \"#utility.yul\":6760:6857   */\n  tag_122\n    /* \"#utility.yul\":6790:6856   */\n  0xffffffffffffffffffffffffffffffffffffffffffffffffffffffffffffffff\n    /* \"#utility.yul\":6779:6788   */\n  dup3\n    /* \"#utility.yul\":6760:6857   */\n  tag_37\n  jump\t// in\ntag_122:\n    /* \"#utility.yul\":6878:6917   */\n  tag_123\n    /* \"#utility.yul\":6908:6916   */\n  dup7\n    /* \"#utility.yul\":6897:6906   */\n  dup4\n    /* \"#utility.yul\":6878:6917   */\n  tag_37\n  jump\t// in\ntag_123:\n    /* \"#utility.yul\":6866:6917   */\n  swap6\n  pop\n    /* \"#utility.yul\":6950:6954   */\n  dup1\n    /* \"#utility.yul\":6946:6955   */\n  not\n    /* \"#utility.yul\":6939:6944   */\n  dup5\n    /* \"#utility.yul\":6935:6956   */\n  and\n    /* \"#utility.yul\":6926:6956   */\n  swap4\n  pop\n    /* \"#utility.yul\":6999:7003   */\n  dup1\n    /* \"#utility.yul\":6989:6997   */\n  dup7\n    /* \"#utility.yul\":6985:7004   */\n  and\n    /* \"#utility.yul\":6978:6983   */\n  dup5\n    /* \"#utility.yul\":6975:7005   */\n  or\n    /* \"#utility.yul\":6965:7005   */\n  swap3\n  pop\n    /* \"#utility.yul\":6694:7011   */\n  pop\n  pop\n    /* \"#utility.yul\":6618:7011   */\n  swap4\n  swap3\n  pop\n  pop\n  pop\n  jump\t// out\n    /* \"#utility.yul\":7017:7094   */\ntag_39:\n    /* \"#utility.yul\":7054:7061   */\n  0x00\n    /* \"#utility.yul\":7083:7088   */\n  dup2\n    /* \"#utility.yul\":7072:7088   */\n  swap1\n  pop\n    /* \"#utility.yul\":7017:7094   */\n  swap2\n  swap1\n  pop\n  jump\t// out\n    /* \"#utility.yul\":7100:7160   */\ntag_40:\n    /* \"#utility.yul\":7128:7131   */\n  0x00\n    /* \"#utility.yul\":7149:7154   */\n  dup2\n    /* \"#utility.yul\":7142:7154   */\n  swap1\n  pop\n    /* \"#utility.yul\":7100:7160   */\n  swap2\n  swap1\n  pop\n  jump\t// out\n    /* \"#utility.yul\":7166:7308   */\ntag_41:\n    /* \"#utility.yul\":7216:7225   */\n  0x00\n    /* \"#utility.yul\":7249:7302   */\n  tag_127\n    /* \"#utility.yul\":7267:7301   */\n  tag_128\n    /* \"#utility.yul\":7276:7300   */\n  tag_129\n    /* \"#utility.yul\":7294:7299   */\n  dup5\n    /* \"#utility.yul\":7276:7300   */\n  tag_39\n  jump\t// in\ntag_129:\n    /* \"#utility.yul\":7267:7301   */\n  tag_40\n  jump\t// in\ntag_128:\n    /* \"#utility.yul\":7249:7302   */\n  tag_39\n  jump\t// in\ntag_127:\n    /* \"#utility.yul\":7236:7302   */\n  swap1\n  pop\n    /* \"#utility.yul\":7166:7308   */\n  swap2\n  swap1\n  pop\n  jump\t// out\n    /* \"#utility.yul\":7314:7389   */\ntag_42:\n    /* \"#utility.yul\":7357:7360   */\n  0x00\n    /* \"#utility.yul\":7378:7383   */\n  dup2\n    /* \"#utility.yul\":7371:7383   */\n  swap1\n  pop\n    /* \"#utility.yul\":7314:7389   */\n  swap2\n  swap1\n  pop\n  jump\t// out\n    /* \"#utility.yul\":7395:7664   */\ntag_43:\n    /* \"#utility.yul\":7505:7544   */\n  tag_132\n    /* \"#utility.yul\":7536:7543   */\n  dup4\n    /* \"#utility.yul\":7505:7544   */\n  tag_41\n  jump\t// in\ntag_132:\n    /* \"#utility.yul\":7566:7657   */\n  tag_133\n    /* \"#utility.yul\":7615:7656   */\n  tag_134\n    /* \"#utility.yul\":7639:7655   */\n  dup3\n    /* \"#utility.yul\":7615:7656   */\n  tag_42\n  jump\t// in\ntag_134:\n    /* \"#utility.yul\":7607:7613   */\n  dup5\n    /* \"#utility.yul\":7600:7604   */\n  dup5\n    /* \"#utility.yul\":7594:7605   */\n  sload\n    /* \"#utility.yul\":7566:7657   */\n  tag_38\n  jump\t// in\ntag_133:\n    /* \"#utility.yul\":7560:7564   */\n  dup3\n    /* \"#utility.yul\":7553:7658   */\n  sstore\n    /* \"#utility.yul\":7471:7664   */\n  pop\n    /* \"#utility.yul\":7395:7664   */\n  pop\n  pop\n  pop\n  jump\t// out\n    /* \"#utility.yul\":7670:7743   */\ntag_44:\n    /* \"#utility.yul\":7715:7718   */\n  0x00\n    /* \"#utility.yul\":7670:7743   */\n  swap1\n  jump\t// out\n    /* \"#utility.yul\":7749:7938   */\ntag_45:\n    /* \"#utility.yul\":7826:7858   */\n  tag_137\n  tag_44\n  jump\t// in\ntag_137:\n    /* \"#utility.yul\":7867:7932   */\n  tag_138\n    /* \"#utility.yul\":7925:7931   */\n  dup2\n    /* \"#utility.yul\":7917:7923   */\n  dup5\n    /* \"#utility.yul\":7911:7915   */\n  dup5\n    /* \"#utility.yul\":7867:7932   */\n  tag_43\n  jump\t// in\ntag_138:\n    /* \"#utility.yul\":7802:7938   */\n  pop\n    /* \"#utility.yul\":7749:7938   */\n  pop\n  pop\n  jump\t// out\n    /* \"#utility.yul\":7944:8130   */\ntag_46:\n    /* \"#utility.yul\":8004:8124   */\ntag_140:\n    /* \"#utility.yul\":8021:8024   */\n  dup2\n    /* \"#utility.yul\":8014:8019   */\n  dup2\n    /* \"#utility.yul\":8011:8025   */\n  lt\n    /* \"#utility.yul\":8004:8124   */\n  iszero\n  tag_142\n  jumpi\n    /* \"#utility.yul\":8075:8114   */\n  tag_143\n    /* \"#utility.yul\":8112:8113   */\n  0x00\n    /* \"#utility.yul\":8105:8110   */\n  dup3\n    /* \"#utility.yul\":8075:8114   */\n  tag_45\n  jump\t// in\ntag_143:\n    /* \"#utility.yul\":8048:8049   */\n  0x01\n    /* \"#utility.yul\":8041:8046   */\n  dup2\n    /* \"#utility.yul\":8037:8050   */\n  add\n    /* \"#utility.yul\":8028:8050   */\n  swap1\n  pop\n    /* \"#utility.yul\":8004:8124   */\n  jump(tag_140)\ntag_142:\n    /* \"#utility.yul\":7944:8130   */\n  pop\n  pop\n  jump\t// out\n    /* \"#utility.yul\":8136:8679   */\ntag_47:\n    /* \"#utility.yul\":8237:8239   */\n  0x1f\n    /* \"#utility.yul\":8232:8235   */\n  dup3\n    /* \"#utility.yul\":8229:8240   */\n  gt\n    /* \"#utility.yul\":8226:8672   */\n  iszero\n  tag_145\n  jumpi\n    /* \"#utility.yul\":8271:8309   */\n  tag_146\n    /* \"#utility.yul\":8303:8308   */\n  dup2\n    /* \"#utility.yul\":8271:8309   */\n  tag_35\n  jump\t// in\ntag_146:\n    /* \"#utility.yul\":8355:8384   */\n  tag_147\n    /* \"#utility.yul\":8373:8383   */\n  dup5\n    /* \"#utility.yul\":8355:8384   */\n  tag_36\n  jump\t// in\ntag_147:\n    /* \"#utility.yul\":8345:8353   */\n  dup2\n    /* \"#utility.yul\":8341:8385   */\n  add\n    /* \"#utility.yul\":8538:8540   */\n  0x20\n    /* \"#utility.yul\":8526:8536   */\n  dup6\n    /* \"#utility.yul\":8523:8541   */\n  lt\n    /* \"#utility.yul\":8520:8569   */\n  iszero\n  tag_148\n  jumpi\n    /* \"#utility.yul\":8559:8567   */\n  dup2\n    /* \"#utility.yul\":8544:8567   */\n  swap1\n  pop\n    /* \"#utility.yul\":8520:8569   */\ntag_148:\n    /* \"#utility.yul\":8582:8662   */\n  tag_149\n    /* \"#utility.yul\":8638:8660   */\n  tag_150\n    /* \"#utility.yul\":8656:8659   */\n  dup6\n    /* \"#utility.yul\":8638:8660   */\n  tag_36\n  jump\t// in\ntag_150:\n    /* \"#utility.yul\":8628:8636   */\n  dup4\n    /* \"#utility.yul\":8624:8661   */\n  add\n    /* \"#utility.yul\":8611:8622   */\n  dup3\n    /* \"#utility.yul\":8582:8662   */\n  tag_46\n  jump\t// in\ntag_149:\n    /* \"#utility.yul\":8241:8672   */\n  pop\n  pop\n    /* \"#utility.yul\":8226:8672   */\ntag_145:\n    /* \"#utility.yul\":8136:8679   */\n  pop\n  pop\n  pop\n  jump\t// out\n    /* \"#utility.yul\":8685:8802   */\ntag_48:\n    /* \"#utility.yul\":8739:8747   */\n  0x00\n    /* \"#utility.yul\":8789:8794   */\n  dup3\n    /* \"#utility.yul\":8783:8787   */\n  dup3\n    /* \"#utility.yul\":8779:8795   */\n  shr\n    /* \"#utility.yul\":8758:8795   */\n  swap1\n  pop\n    /* \"#utility.yul\":8685:8802   */\n  swap3\n  swap2\n  pop\n  pop\n  jump\t// out\n    /* \"#utility.yul\":8808:8977   */\ntag_49:\n    /* \"#utility.yul\":8852:8858   */\n  0x00\n    /* \"#utility.yul\":8885:8936   */\n  tag_153\n    /* \"#utility.yul\":8933:8934   */\n  0x00\n    /* \"#utility.yul\":8929:8935   */\n  not\n    /* \"#utility.yul\":8921:8926   */\n  dup5\n    /* \"#utility.yul\":8918:8919   */\n  0x08\n    /* \"#utility.yul\":8914:8927   */\n  mul\n    /* \"#utility.yul\":8885:8936   */\n  tag_48\n  jump\t// in\ntag_153:\n    /* \"#utility.yul\":8881:8937   */\n  not\n    /* \"#utility.yul\":8966:8970   */\n  dup1\n    /* \"#utility.yul\":8960:8964   */\n  dup4\n    /* \"#utility.yul\":8956:8971   */\n  and\n    /* \"#utility.yul\":8946:8971   */\n  swap2\n  pop\n    /* \"#utility.yul\":8859:8977   */\n  pop\n    /* \"#utility.yul\":8808:8977   */\n  swap3\n  swap2\n  pop\n  pop\n  jump\t// out\n    /* \"#utility.yul\":8982:9277   */\ntag_50:\n    /* \"#utility.yul\":9058:9062   */\n  0x00\n    /* \"#utility.yul\":9204:9233   */\n  tag_155\n    /* \"#utility.yul\":9229:9232   */\n  dup4\n    /* \"#utility.yul\":9223:9227   */\n  dup4\n    /* \"#utility.yul\":9204:9233   */\n  tag_49\n  jump\t// in\ntag_155:\n    /* \"#utility.yul\":9196:9233   */\n  swap2\n  pop\n    /* \"#utility.yul\":9266:9269   */\n  dup3\n    /* \"#utility.yul\":9263:9264   */\n  0x02\n    /* \"#utility.yul\":9259:9270   */\n  mul\n    /* \"#utility.yul\":9253:9257   */\n  dup3\n    /* \"#utility.yul\":9250:9271   */\n  or\n    /* \"#utility.yul\":9242:9271   */\n  swap1\n  pop\n    /* \"#utility.yul\":8982:9277   */\n  swap3\n  swap2\n  pop\n  pop\n  jump\t// out\n    /* \"#utility.yul\":9282:10677   */\ntag_10:\n    /* \"#utility.yul\":9399:9436   */\n  tag_157\n    /* \"#utility.yul\":9432:9435   */\n  dup3\n    /* \"#utility.yul\":9399:9436   */\n  tag_29\n  jump\t// in\ntag_157:\n    /* \"#utility.yul\":9501:9519   */\n  0xffffffffffffffff\n    /* \"#utility.yul\":9493:9499   */\n  dup2\n    /* \"#utility.yul\":9490:9520   */\n  gt\n    /* \"#utility.yul\":9487:9543   */\n  iszero\n  tag_158\n  jumpi\n    /* \"#utility.yul\":9523:9541   */\n  tag_159\n  tag_18\n  jump\t// in\ntag_159:\n    /* \"#utility.yul\":9487:9543   */\ntag_158:\n    /* \"#utility.yul\":9567:9605   */\n  tag_160\n    /* \"#utility.yul\":9599:9603   */\n  dup3\n    /* \"#utility.yul\":9593:9604   */\n  sload\n    /* \"#utility.yul\":9567:9605   */\n  tag_34\n  jump\t// in\ntag_160:\n    /* \"#utility.yul\":9652:9719   */\n  tag_161\n    /* \"#utility.yul\":9712:9718   */\n  dup3\n    /* \"#utility.yul\":9704:9710   */\n  dup3\n    /* \"#utility.yul\":9698:9702   */\n  dup6\n    /* \"#utility.yul\":9652:9719   */\n  tag_47\n  jump\t// in\ntag_161:\n    /* \"#utility.yul\":9746:9747   */\n  0x00\n    /* \"#utility.yul\":9770:9774   */\n  0x20\n    /* \"#utility.yul\":9757:9774   */\n  swap1\n  pop\n    /* \"#utility.yul\":9802:9804   */\n  0x1f\n    /* \"#utility.yul\":9794:9800   */\n  dup4\n    /* \"#utility.yul\":9791:9805   */\n  gt\n    /* \"#utility.yul\":9819:9820   */\n  0x01\n    /* \"#utility.yul\":9814:10432   */\n  dup2\n  eq\n  tag_163\n  jumpi\n    /* \"#utility.yul\":10476:10477   */\n  0x00\n    /* \"#utility.yul\":10493:10499   */\n  dup5\n    /* \"#utility.yul\":10490:10567   */\n  iszero\n  tag_164\n  jumpi\n    /* \"#utility.yul\":10542:10551   */\n  dup3\n    /* \"#utility.yul\":10537:10540   */\n  dup8\n    /* \"#utility.yul\":10533:10552   */\n  add\n    /* \"#utility.yul\":10527:10553   */\n  mload\n    /* \"#utility.yul\":10518:10553   */\n  swap1\n  pop\n    /* \"#utility.yul\":10490:10567   */\ntag_164:\n    /* \"#utility.yul\":10593:10660   */\n  tag_165\n    /* \"#utility.yul\":10653:10659   */\n  dup6\n    /* \"#utility.yul\":10646:10651   */\n  dup3\n    /* \"#utility.yul\":10593:10660   */\n  tag_50\n  jump\t// in\ntag_165:\n    /* \"#utility.yul\":10587:10591   */\n  dup7\n    /* \"#utility.yul\":10580:10661   */\n  sstore\n    /* \"#utility.yul\":10449:10671   */\n  pop\n    /* \"#utility.yul\":9784:10671   */\n  jump(tag_162)\n    /* \"#utility.yul\":9814:10432   */\ntag_163:\n    /* \"#utility.yul\":9866:9870   */\n  0x1f\n    /* \"#utility.yul\":9862:9871   */\n  not\n    /* \"#utility.yul\":9854:9860   */\n  dup5\n    /* \"#utility.yul\":9850:9872   */\n  and\n    /* \"#utility.yul\":9900:9937   */\n  tag_166\n    /* \"#utility.yul\":9932:9936   */\n  dup7\n    /* \"#utility.yul\":9900:9937   */\n  tag_35\n  jump\t// in\ntag_166:\n    /* \"#utility.yul\":9959:9960   */\n  0x00\n    /* \"#utility.yul\":9973:10181   */\ntag_167:\n    /* \"#utility.yul\":9987:9994   */\n  dup3\n    /* \"#utility.yul\":9984:9985   */\n  dup2\n    /* \"#utility.yul\":9981:9995   */\n  lt\n    /* \"#utility.yul\":9973:10181   */\n  iszero\n  tag_169\n  jumpi\n    /* \"#utility.yul\":10066:10075   */\n  dup5\n    /* \"#utility.yul\":10061:10064   */\n  dup10\n    /* \"#utility.yul\":10057:10076   */\n  add\n    /* \"#utility.yul\":10051:10077   */\n  mload\n    /* \"#utility.yul\":10043:10049   */\n  dup3\n    /* \"#utility.yul\":10036:10078   */\n  sstore\n    /* \"#utility.yul\":10117:10118   */\n  0x01\n    /* \"#utility.yul\":10109:10115   */\n  dup3\n    /* \"#utility.yul\":10105:10119   */\n  add\n    /* \"#utility.yul\":10095:10119   */\n  swap2\n  pop\n    /* \"#utility.yul\":10164:10166   */\n  0x20\n    /* \"#utility.yul\":10153:10162   */\n  dup6\n    /* \"#utility.yul\":10149:10167   */\n  add\n    /* \"#utility.yul\":10136:10167   */\n  swap5\n  pop\n    /* \"#utility.yul\":10010:10014   */\n  0x20\n    /* \"#utility.yul\":10007:10008   */\n  dup2\n    /* \"#utility.yul\":10003:10015   */\n  add\n    /* \"#utility.yul\":9998:10015   */\n  swap1\n  pop\n    /* \"#utility.yul\":9973:10181   */\n  jump(tag_167)\ntag_169:\n    /* \"#utility.yul\":10209:10215   */\n  dup7\n    /* \"#utility.yul\":10200:10207   */\n  dup4\n    /* \"#utility.yul\":10197:10216   */\n  lt\n    /* \"#utility.yul\":10194:10373   */\n  iszero\n  tag_170\n  jumpi\n    /* \"#utility.yul\":10267:10276   */\n  dup5\n    /* \"#utility.yul\":10262:10265   */\n  dup10\n    /* \"#utility.yul\":10258:10277   */\n  add\n    /* \"#utility.yul\":10252:10278   */\n  mload\n    /* \"#utility.yul\":10310:10358   */\n  tag_171\n    /* \"#utility.yul\":10352:10356   */\n  0x1f\n    /* \"#utility.yul\":10344:10350   */\n  dup10\n    /* \"#utility.yul\":10340:10357   */\n  and\n    /* \"#utility.yul\":10329:10338   */\n  dup3\n    /* \"#utility.yul\":10310:10358   */\n  tag_49\n  jump\t// in\ntag_171:\n    /* \"#utility.yul\":10302:10308   */\n  dup4\n    /* \"#utility.yul\":10295:10359   */\n  sstore\n    /* \"#utility.yul\":10217:10373   */\n  pop\n    /* \"#utility.yul\":10194:10373   */\ntag_170:\n    /* \"#utility.yul\":10419:10420   */\n  0x01\n    /* \"#utility.yul\":10415:10416   */\n  0x02\n    /* \"#utility.yul\":10407:10413   */\n  dup9\n    /* \"#utility.yul\":10403:10417   */\n  mul\n    /* \"#utility.yul\":10399:10421   */\n  add\n    /* \"#utility.yul\":10393:10397   */\n  dup9\n    /* \"#utility.yul\":10386:10422   */\n  sstore\n    /* \"#utility.yul\":9821:10432   */\n  pop\n  pop\n  pop\n    /* \"#utility.yul\":9784:10671   */\ntag_162:\n  pop\n    /* \"#utility.yul\":9374:10677   */\n  pop\n  pop\n  pop\n    /* \"#utility.yul\":9282:10677   */\n  pop\n  pop\n  jump\t// out\n    /* \"token_eco_system_dev_contracts/contracts_ready_for_prod/AggregatorRate.sol\":291:1826  contract AggregatorRate{... */\ntag_11:\n  mload(0x80)\n  codecopy(0x00, dataOffset(sub_0), dataSize(sub_0))\n  0x00\n  assignImmutable(\"0x6590fa52fa76f967656340b874bc9ca09733c2fddea9886210ebcbbceee04b35\")\n  return(0x00, dataSize(sub_0))\nstop\n\nsub_0: assembly {\n        /* \"token_eco_system_dev_contracts/contracts_ready_for_prod/AggregatorRate.sol\":291:1826  contract AggregatorRate{... */\n      mstore(0x40, 0x80)\n      callvalue\n      dup1\n      iszero\n      tag_1\n      jumpi\n      0x00\n      dup1\n      revert\n    tag_1:\n      pop\n      jumpi(tag_2, lt(calldatasize, 0x04))\n      shr(0xe0, calldataload(0x00))\n      dup1\n      0x082c4484\n      eq\n      tag_3\n      jumpi\n      dup1\n      0x0f15f4c0\n      eq\n      tag_4\n      jumpi\n      dup1\n      0x51b42b00\n      eq\n      tag_5\n      jumpi\n      dup1\n      0xe1e7ff77\n      eq\n      tag_6\n      jumpi\n      dup1\n      0xf851a440\n      eq\n      tag_7\n      jumpi\n    tag_2:\n      0x00\n      dup1\n      revert\n        /* \"token_eco_system_dev_contracts/contracts_ready_for_prod/AggregatorRate.sol\":1135:1480  function changeAggregatorAddress(string memory assetOne, string memory assetTwo, address aggregatorAddress) public onlyAdmin{... */\n    tag_3:\n      tag_8\n      0x04\n      dup1\n      calldatasize\n      sub\n      dup2\n      add\n      swap1\n      tag_9\n      swap2\n      swap1\n      tag_10\n      jump\t// in\n    tag_9:\n      tag_11\n      jump\t// in\n    tag_8:\n      stop\n        /* \"token_eco_system_dev_contracts/contracts_ready_for_prod/AggregatorRate.sol\":891:1006  function activate() public onlyAdmin{... */\n    tag_4:\n      tag_12\n      tag_13\n      jump\t// in\n    tag_12:\n      stop\n        /* \"token_eco_system_dev_contracts/contracts_ready_for_prod/AggregatorRate.sol\":1012:1129  function deactivate() public onlyAdmin{... */\n    tag_5:\n      tag_14\n      tag_15\n      jump\t// in\n    tag_14:\n      stop\n        /* \"token_eco_system_dev_contracts/contracts_ready_for_prod/AggregatorRate.sol\":1486:1824  function getLatestRate() public view returns (int256, uint256, string memory, uint256) {... */\n    tag_6:\n      tag_16\n      tag_17\n      jump\t// in\n    tag_16:\n      mload(0x40)\n      tag_18\n      swap5\n      swap4\n      swap3\n      swap2\n      swap1\n      tag_19\n      jump\t// in\n    tag_18:\n      mload(0x40)\n      dup1\n      swap2\n      sub\n      swap1\n      return\n        /* \"token_eco_system_dev_contracts/contracts_ready_for_prod/AggregatorRate.sol\":394:424  address public immutable admin */\n    tag_7:\n      tag_20\n      tag_21\n      jump\t// in\n    tag_20:\n      mload(0x40)\n      tag_22\n      swap2\n      swap1\n      tag_23\n      jump\t// in\n    tag_22:\n      mload(0x40)\n      dup1\n      swap2\n      sub\n      swap1\n      return\n        /* \"token_eco_system_dev_contracts/contracts_ready_for_prod/AggregatorRate.sol\":1135:1480  function changeAggregatorAddress(string memory assetOne, string memory assetTwo, address aggregatorAddress) public onlyAdmin{... */\n    tag_11:\n        /* \"token_eco_system_dev_contracts/contracts_ready_for_prod/AggregatorRate.sol\":516:521  admin */\n      immutable(\"0x6590fa52fa76f967656340b874bc9ca09733c2fddea9886210ebcbbceee04b35\")\n        /* \"token_eco_system_dev_contracts/contracts_ready_for_prod/AggregatorRate.sol\":502:521  msg.sender == admin */\n      0xffffffffffffffffffffffffffffffffffffffff\n      and\n        /* \"token_eco_system_dev_contracts/contracts_ready_for_prod/AggregatorRate.sol\":502:512  msg.sender */\n      caller\n        /* \"token_eco_system_dev_contracts/contracts_ready_for_prod/AggregatorRate.sol\":502:521  msg.sender == admin */\n      0xffffffffffffffffffffffffffffffffffffffff\n      and\n      eq\n        /* \"token_eco_system_dev_contracts/contracts_ready_for_prod/AggregatorRate.sol\":494:541  require(msg.sender == admin, \"Not Authorized!\") */\n      tag_25\n      jumpi\n      mload(0x40)\n      0x08c379a000000000000000000000000000000000000000000000000000000000\n      dup2\n      mstore\n      0x04\n      add\n      tag_26\n      swap1\n      tag_27\n      jump\t// in\n    tag_26:\n      mload(0x40)\n      dup1\n      swap2\n      sub\n      swap1\n      revert\n    tag_25:\n        /* \"token_eco_system_dev_contracts/contracts_ready_for_prod/AggregatorRate.sol\":1306:1307  0 */\n      0x00\n        /* \"token_eco_system_dev_contracts/contracts_ready_for_prod/AggregatorRate.sol\":1277:1308  aggregatorAddress != address(0) */\n      0xffffffffffffffffffffffffffffffffffffffff\n      and\n        /* \"token_eco_system_dev_contracts/contracts_ready_for_prod/AggregatorRate.sol\":1277:1294  aggregatorAddress */\n      dup2\n        /* \"token_eco_system_dev_contracts/contracts_ready_for_prod/AggregatorRate.sol\":1277:1308  aggregatorAddress != address(0) */\n      0xffffffffffffffffffffffffffffffffffffffff\n      and\n      sub\n        /* \"token_eco_system_dev_contracts/contracts_ready_for_prod/AggregatorRate.sol\":1269:1309  require(aggregatorAddress != address(0)) */\n      tag_29\n      jumpi\n      0x00\n      dup1\n      revert\n    tag_29:\n        /* \"token_eco_system_dev_contracts/contracts_ready_for_prod/AggregatorRate.sol\":1366:1383  aggregatorAddress */\n      dup1\n        /* \"token_eco_system_dev_contracts/contracts_ready_for_prod/AggregatorRate.sol\":1319:1328  priceFeed */\n      0x00\n      dup1\n        /* \"token_eco_system_dev_contracts/contracts_ready_for_prod/AggregatorRate.sol\":1319:1394  priceFeed = AggregatorV3Interface(... */\n      0x0100\n      exp\n      dup2\n      sload\n      dup2\n      0xffffffffffffffffffffffffffffffffffffffff\n      mul\n      not\n      and\n      swap1\n      dup4\n      0xffffffffffffffffffffffffffffffffffffffff\n      and\n      mul\n      or\n      swap1\n      sstore\n      pop\n        /* \"token_eco_system_dev_contracts/contracts_ready_for_prod/AggregatorRate.sol\":1451:1459  assetOne */\n      dup3\n        /* \"token_eco_system_dev_contracts/contracts_ready_for_prod/AggregatorRate.sol\":1464:1472  assetTwo */\n      dup3\n        /* \"token_eco_system_dev_contracts/contracts_ready_for_prod/AggregatorRate.sol\":1437:1473  string.concat(assetOne,\"/\",assetTwo) */\n      add(0x20, mload(0x40))\n      tag_30\n      swap3\n      swap2\n      swap1\n      tag_31\n      jump\t// in\n    tag_30:\n      mload(0x40)\n      0x20\n      dup2\n      dup4\n      sub\n      sub\n      dup2\n      mstore\n      swap1\n      0x40\n      mstore\n        /* \"token_eco_system_dev_contracts/contracts_ready_for_prod/AggregatorRate.sol\":1424:1434  rateString */\n      0x01\n        /* \"token_eco_system_dev_contracts/contracts_ready_for_prod/AggregatorRate.sol\":1424:1473  rateString = string.concat(assetOne,\"/\",assetTwo) */\n      swap1\n      dup2\n      tag_32\n      swap2\n      swap1\n      tag_33\n      jump\t// in\n    tag_32:\n      pop\n        /* \"token_eco_system_dev_contracts/contracts_ready_for_prod/AggregatorRate.sol\":1135:1480  function changeAggregatorAddress(string memory assetOne, string memory assetTwo, address aggregatorAddress) public onlyAdmin{... */\n      pop\n      pop\n      pop\n      jump\t// out\n        /* \"token_eco_system_dev_contracts/contracts_ready_for_prod/AggregatorRate.sol\":891:1006  function activate() public onlyAdmin{... */\n    tag_13:\n        /* \"token_eco_system_dev_contracts/contracts_ready_for_prod/AggregatorRate.sol\":516:521  admin */\n      immutable(\"0x6590fa52fa76f967656340b874bc9ca09733c2fddea9886210ebcbbceee04b35\")\n        /* \"token_eco_system_dev_contracts/contracts_ready_for_prod/AggregatorRate.sol\":502:521  msg.sender == admin */\n      0xffffffffffffffffffffffffffffffffffffffff\n      and\n        /* \"token_eco_system_dev_contracts/contracts_ready_for_prod/AggregatorRate.sol\":502:512  msg.sender */\n      caller\n        /* \"token_eco_system_dev_contracts/contracts_ready_for_prod/AggregatorRate.sol\":502:521  msg.sender == admin */\n      0xffffffffffffffffffffffffffffffffffffffff\n      and\n      eq\n        /* \"token_eco_system_dev_contracts/contracts_ready_for_prod/AggregatorRate.sol\":494:541  require(msg.sender == admin, \"Not Authorized!\") */\n      tag_35\n      jumpi\n      mload(0x40)\n      0x08c379a000000000000000000000000000000000000000000000000000000000\n      dup2\n      mstore\n      0x04\n      add\n      tag_36\n      swap1\n      tag_27\n      jump\t// in\n    tag_36:\n      mload(0x40)\n      dup1\n      swap2\n      sub\n      swap1\n      revert\n    tag_35:\n        /* \"token_eco_system_dev_contracts/contracts_ready_for_prod/AggregatorRate.sol\":946:952  active */\n      0x02\n      0x00\n      swap1\n      sload\n      swap1\n      0x0100\n      exp\n      swap1\n      div\n      0xff\n      and\n        /* \"token_eco_system_dev_contracts/contracts_ready_for_prod/AggregatorRate.sol\":945:952  !active */\n      iszero\n        /* \"token_eco_system_dev_contracts/contracts_ready_for_prod/AggregatorRate.sol\":937:975  require(!active, \"Already activated!\") */\n      tag_38\n      jumpi\n      mload(0x40)\n      0x08c379a000000000000000000000000000000000000000000000000000000000\n      dup2\n      mstore\n      0x04\n      add\n      tag_39\n      swap1\n      tag_40\n      jump\t// in\n    tag_39:\n      mload(0x40)\n      dup1\n      swap2\n      sub\n      swap1\n      revert\n    tag_38:\n        /* \"token_eco_system_dev_contracts/contracts_ready_for_prod/AggregatorRate.sol\":994:999  false */\n      0x00\n        /* \"token_eco_system_dev_contracts/contracts_ready_for_prod/AggregatorRate.sol\":985:991  active */\n      0x02\n      0x00\n        /* \"token_eco_system_dev_contracts/contracts_ready_for_prod/AggregatorRate.sol\":985:999  active = false */\n      0x0100\n      exp\n      dup2\n      sload\n      dup2\n      0xff\n      mul\n      not\n      and\n      swap1\n      dup4\n      iszero\n      iszero\n      mul\n      or\n      swap1\n      sstore\n      pop\n        /* \"token_eco_system_dev_contracts/contracts_ready_for_prod/AggregatorRate.sol\":891:1006  function activate() public onlyAdmin{... */\n      jump\t// out\n        /* \"token_eco_system_dev_contracts/contracts_ready_for_prod/AggregatorRate.sol\":1012:1129  function deactivate() public onlyAdmin{... */\n    tag_15:\n        /* \"token_eco_system_dev_contracts/contracts_ready_for_prod/AggregatorRate.sol\":516:521  admin */\n      immutable(\"0x6590fa52fa76f967656340b874bc9ca09733c2fddea9886210ebcbbceee04b35\")\n        /* \"token_eco_system_dev_contracts/contracts_ready_for_prod/AggregatorRate.sol\":502:521  msg.sender == admin */\n      0xffffffffffffffffffffffffffffffffffffffff\n      and\n        /* \"token_eco_system_dev_contracts/contracts_ready_for_prod/AggregatorRate.sol\":502:512  msg.sender */\n      caller\n        /* \"token_eco_system_dev_contracts/contracts_ready_for_prod/AggregatorRate.sol\":502:521  msg.sender == admin */\n      0xffffffffffffffffffffffffffffffffffffffff\n      and\n      eq\n        /* \"token_eco_system_dev_contracts/contracts_ready_for_prod/AggregatorRate.sol\":494:541  require(msg.sender == admin, \"Not Authorized!\") */\n      tag_42\n      jumpi\n      mload(0x40)\n      0x08c379a000000000000000000000000000000000000000000000000000000000\n      dup2\n      mstore\n      0x04\n      add\n      tag_43\n      swap1\n      tag_27\n      jump\t// in\n    tag_43:\n      mload(0x40)\n      dup1\n      swap2\n      sub\n      swap1\n      revert\n    tag_42:\n        /* \"token_eco_system_dev_contracts/contracts_ready_for_prod/AggregatorRate.sol\":1068:1074  active */\n      0x02\n      0x00\n      swap1\n      sload\n      swap1\n      0x0100\n      exp\n      swap1\n      div\n      0xff\n      and\n        /* \"token_eco_system_dev_contracts/contracts_ready_for_prod/AggregatorRate.sol\":1060:1099  require(active, \"Already deactivated!\") */\n      tag_45\n      jumpi\n      mload(0x40)\n      0x08c379a000000000000000000000000000000000000000000000000000000000\n      dup2\n      mstore\n      0x04\n      add\n      tag_46\n      swap1\n      tag_47\n      jump\t// in\n    tag_46:\n      mload(0x40)\n      dup1\n      swap2\n      sub\n      swap1\n      revert\n    tag_45:\n        /* \"token_eco_system_dev_contracts/contracts_ready_for_prod/AggregatorRate.sol\":1118:1122  true */\n      0x01\n        /* \"token_eco_system_dev_contracts/contracts_ready_for_prod/AggregatorRate.sol\":1109:1115  active */\n      0x02\n      0x00\n        /* \"token_eco_system_dev_contracts/contracts_ready_for_prod/AggregatorRate.sol\":1109:1122  active = true */\n      0x0100\n      exp\n      dup2\n      sload\n      dup2\n      0xff\n      mul\n      not\n      and\n      swap1\n      dup4\n      iszero\n      iszero\n      mul\n      or\n      swap1\n      sstore\n      pop\n        /* \"token_eco_system_dev_contracts/contracts_ready_for_prod/AggregatorRate.sol\":1012:1129  function deactivate() public onlyAdmin{... */\n      jump\t// out\n        /* \"token_eco_system_dev_contracts/contracts_ready_for_prod/AggregatorRate.sol\":1486:1824  function getLatestRate() public view returns (int256, uint256, string memory, uint256) {... */\n    tag_17:\n        /* \"token_eco_system_dev_contracts/contracts_ready_for_prod/AggregatorRate.sol\":1532:1538  int256 */\n      0x00\n        /* \"token_eco_system_dev_contracts/contracts_ready_for_prod/AggregatorRate.sol\":1540:1547  uint256 */\n      dup1\n        /* \"token_eco_system_dev_contracts/contracts_ready_for_prod/AggregatorRate.sol\":1549:1562  string memory */\n      0x60\n        /* \"token_eco_system_dev_contracts/contracts_ready_for_prod/AggregatorRate.sol\":1564:1571  uint256 */\n      0x00\n        /* \"token_eco_system_dev_contracts/contracts_ready_for_prod/AggregatorRate.sol\":1588:1594  active */\n      0x02\n      0x00\n      swap1\n      sload\n      swap1\n      0x0100\n      exp\n      swap1\n      div\n      0xff\n      and\n        /* \"token_eco_system_dev_contracts/contracts_ready_for_prod/AggregatorRate.sol\":1583:1647  if (!active){... */\n      tag_49\n      jumpi\n        /* \"token_eco_system_dev_contracts/contracts_ready_for_prod/AggregatorRate.sol\":1616:1617  0 */\n      0x00\n        /* \"token_eco_system_dev_contracts/contracts_ready_for_prod/AggregatorRate.sol\":1618:1619  0 */\n      dup1\n        /* \"token_eco_system_dev_contracts/contracts_ready_for_prod/AggregatorRate.sol\":1634:1635  0 */\n      0x00\n        /* \"token_eco_system_dev_contracts/contracts_ready_for_prod/AggregatorRate.sol\":1609:1636  return(0,0,\"Not active!\",0) */\n      mload(0x40)\n      dup1\n      0x40\n      add\n      0x40\n      mstore\n      dup1\n      0x0b\n      dup2\n      mstore\n      0x20\n      add\n      0x4e6f742061637469766521000000000000000000000000000000000000000000\n      dup2\n      mstore\n      pop\n      swap1\n      swap4\n      pop\n      swap4\n      pop\n      swap4\n      pop\n      swap4\n      pop\n      jump(tag_48)\n        /* \"token_eco_system_dev_contracts/contracts_ready_for_prod/AggregatorRate.sol\":1583:1647  if (!active){... */\n    tag_49:\n        /* \"token_eco_system_dev_contracts/contracts_ready_for_prod/AggregatorRate.sol\":1658:1670  int256 price */\n      0x00\n        /* \"token_eco_system_dev_contracts/contracts_ready_for_prod/AggregatorRate.sol\":1672:1684  uint256 date */\n      dup1\n        /* \"token_eco_system_dev_contracts/contracts_ready_for_prod/AggregatorRate.sol\":1689:1698  priceFeed */\n      0x00\n      dup1\n      sload\n      swap1\n      0x0100\n      exp\n      swap1\n      div\n      0xffffffffffffffffffffffffffffffffffffffff\n      and\n        /* \"token_eco_system_dev_contracts/contracts_ready_for_prod/AggregatorRate.sol\":1689:1714  priceFeed.latestRoundData */\n      0xffffffffffffffffffffffffffffffffffffffff\n      and\n      0xfeaf968c\n        /* \"token_eco_system_dev_contracts/contracts_ready_for_prod/AggregatorRate.sol\":1689:1716  priceFeed.latestRoundData() */\n      mload(0x40)\n      dup2\n      0xffffffff\n      and\n      0xe0\n      shl\n      dup2\n      mstore\n      0x04\n      add\n      0xa0\n      mload(0x40)\n      dup1\n      dup4\n      sub\n      dup2\n      dup7\n      gas\n      staticcall\n      iszero\n      dup1\n      iszero\n      tag_51\n      jumpi\n      returndatasize\n      0x00\n      dup1\n      returndatacopy\n      revert(0x00, returndatasize)\n    tag_51:\n      pop\n      pop\n      pop\n      pop\n      mload(0x40)\n      returndatasize\n      not(0x1f)\n      0x1f\n      dup3\n      add\n      and\n      dup3\n      add\n      dup1\n      0x40\n      mstore\n      pop\n      dup2\n      add\n      swap1\n      tag_52\n      swap2\n      swap1\n      tag_53\n      jump\t// in\n    tag_52:\n        /* \"token_eco_system_dev_contracts/contracts_ready_for_prod/AggregatorRate.sol\":1656:1716  (,int256 price,,uint256 date,) = priceFeed.latestRoundData() */\n      pop\n      swap4\n      pop\n      pop\n      swap3\n      pop\n      pop\n        /* \"token_eco_system_dev_contracts/contracts_ready_for_prod/AggregatorRate.sol\":1726:1742  uint256 decimals */\n      0x00\n        /* \"token_eco_system_dev_contracts/contracts_ready_for_prod/AggregatorRate.sol\":1745:1754  priceFeed */\n      dup1\n      0x00\n      swap1\n      sload\n      swap1\n      0x0100\n      exp\n      swap1\n      div\n      0xffffffffffffffffffffffffffffffffffffffff\n      and\n        /* \"token_eco_system_dev_contracts/contracts_ready_for_prod/AggregatorRate.sol\":1745:1763  priceFeed.decimals */\n      0xffffffffffffffffffffffffffffffffffffffff\n      and\n      0x313ce567\n        /* \"token_eco_system_dev_contracts/contracts_ready_for_prod/AggregatorRate.sol\":1745:1765  priceFeed.decimals() */\n      mload(0x40)\n      dup2\n      0xffffffff\n      and\n      0xe0\n      shl\n      dup2\n      mstore\n      0x04\n      add\n      0x20\n      mload(0x40)\n      dup1\n      dup4\n      sub\n      dup2\n      dup7\n      gas\n      staticcall\n      iszero\n      dup1\n      iszero\n      tag_55\n      jumpi\n      returndatasize\n      0x00\n      dup1\n      returndatacopy\n      revert(0x00, returndatasize)\n    tag_55:\n      pop\n      pop\n      pop\n      pop\n      mload(0x40)\n      returndatasize\n      not(0x1f)\n      0x1f\n      dup3\n      add\n      and\n      dup3\n      add\n      dup1\n      0x40\n      mstore\n      pop\n      dup2\n      add\n      swap1\n      tag_56\n      swap2\n      swap1\n      tag_57\n      jump\t// in\n    tag_56:\n        /* \"token_eco_system_dev_contracts/contracts_ready_for_prod/AggregatorRate.sol\":1726:1765  uint256 decimals = priceFeed.decimals() */\n      0xff\n      and\n      swap1\n      pop\n        /* \"token_eco_system_dev_contracts/contracts_ready_for_prod/AggregatorRate.sol\":1783:1788  price */\n      dup3\n        /* \"token_eco_system_dev_contracts/contracts_ready_for_prod/AggregatorRate.sol\":1790:1798  decimals */\n      dup2\n        /* \"token_eco_system_dev_contracts/contracts_ready_for_prod/AggregatorRate.sol\":1800:1810  rateString */\n      0x01\n        /* \"token_eco_system_dev_contracts/contracts_ready_for_prod/AggregatorRate.sol\":1812:1816  date */\n      dup5\n        /* \"token_eco_system_dev_contracts/contracts_ready_for_prod/AggregatorRate.sol\":1775:1817  return (price, decimals, rateString, date) */\n      dup2\n      dup1\n      sload\n      tag_58\n      swap1\n      tag_59\n      jump\t// in\n    tag_58:\n      dup1\n      0x1f\n      add\n      0x20\n      dup1\n      swap2\n      div\n      mul\n      0x20\n      add\n      mload(0x40)\n      swap1\n      dup2\n      add\n      0x40\n      mstore\n      dup1\n      swap3\n      swap2\n      swap1\n      dup2\n      dup2\n      mstore\n      0x20\n      add\n      dup3\n      dup1\n      sload\n      tag_60\n      swap1\n      tag_59\n      jump\t// in\n    tag_60:\n      dup1\n      iszero\n      tag_61\n      jumpi\n      dup1\n      0x1f\n      lt\n      tag_62\n      jumpi\n      0x0100\n      dup1\n      dup4\n      sload\n      div\n      mul\n      dup4\n      mstore\n      swap2\n      0x20\n      add\n      swap2\n      jump(tag_61)\n    tag_62:\n      dup3\n      add\n      swap2\n      swap1\n      0x00\n      mstore\n      keccak256(0x00, 0x20)\n      swap1\n    tag_63:\n      dup2\n      sload\n      dup2\n      mstore\n      swap1\n      0x01\n      add\n      swap1\n      0x20\n      add\n      dup1\n      dup4\n      gt\n      tag_63\n      jumpi\n      dup3\n      swap1\n      sub\n      0x1f\n      and\n      dup3\n      add\n      swap2\n    tag_61:\n      pop\n      pop\n      pop\n      pop\n      pop\n      swap2\n      pop\n      swap7\n      pop\n      swap7\n      pop\n      swap7\n      pop\n      swap7\n      pop\n      pop\n      pop\n      pop\n        /* \"token_eco_system_dev_contracts/contracts_ready_for_prod/AggregatorRate.sol\":1486:1824  function getLatestRate() public view returns (int256, uint256, string memory, uint256) {... */\n    tag_48:\n      swap1\n      swap2\n      swap3\n      swap4\n      jump\t// out\n        /* \"token_eco_system_dev_contracts/contracts_ready_for_prod/AggregatorRate.sol\":394:424  address public immutable admin */\n    tag_21:\n      immutable(\"0x6590fa52fa76f967656340b874bc9ca09733c2fddea9886210ebcbbceee04b35\")\n      dup2\n      jump\t// out\n        /* \"#utility.yul\":7:82   */\n    tag_64:\n        /* \"#utility.yul\":40:46   */\n      0x00\n        /* \"#utility.yul\":73:75   */\n      0x40\n        /* \"#utility.yul\":67:76   */\n      mload\n        /* \"#utility.yul\":57:76   */\n      swap1\n      pop\n        /* \"#utility.yul\":7:82   */\n      swap1\n      jump\t// out\n        /* \"#utility.yul\":88:205   */\n    tag_65:\n        /* \"#utility.yul\":197:198   */\n      0x00\n        /* \"#utility.yul\":194:195   */\n      dup1\n        /* \"#utility.yul\":187:199   */\n      revert\n        /* \"#utility.yul\":211:328   */\n    tag_66:\n        /* \"#utility.yul\":320:321   */\n      0x00\n        /* \"#utility.yul\":317:318   */\n      dup1\n        /* \"#utility.yul\":310:322   */\n      revert\n        /* \"#utility.yul\":334:451   */\n    tag_67:\n        /* \"#utility.yul\":443:444   */\n      0x00\n        /* \"#utility.yul\":440:441   */\n      dup1\n        /* \"#utility.yul\":433:445   */\n      revert\n        /* \"#utility.yul\":457:574   */\n    tag_68:\n        /* \"#utility.yul\":566:567   */\n      0x00\n        /* \"#utility.yul\":563:564   */\n      dup1\n        /* \"#utility.yul\":556:568   */\n      revert\n        /* \"#utility.yul\":580:682   */\n    tag_69:\n        /* \"#utility.yul\":621:627   */\n      0x00\n        /* \"#utility.yul\":672:674   */\n      0x1f\n        /* \"#utility.yul\":668:675   */\n      not\n        /* \"#utility.yul\":663:665   */\n      0x1f\n        /* \"#utility.yul\":656:661   */\n      dup4\n        /* \"#utility.yul\":652:666   */\n      add\n        /* \"#utility.yul\":648:676   */\n      and\n        /* \"#utility.yul\":638:676   */\n      swap1\n      pop\n        /* \"#utility.yul\":580:682   */\n      swap2\n      swap1\n      pop\n      jump\t// out\n        /* \"#utility.yul\":688:868   */\n    tag_70:\n        /* \"#utility.yul\":736:813   */\n      0x4e487b7100000000000000000000000000000000000000000000000000000000\n        /* \"#utility.yul\":733:734   */\n      0x00\n        /* \"#utility.yul\":726:814   */\n      mstore\n        /* \"#utility.yul\":833:837   */\n      0x41\n        /* \"#utility.yul\":830:831   */\n      0x04\n        /* \"#utility.yul\":823:838   */\n      mstore\n        /* \"#utility.yul\":857:861   */\n      0x24\n        /* \"#utility.yul\":854:855   */\n      0x00\n        /* \"#utility.yul\":847:862   */\n      revert\n        /* \"#utility.yul\":874:1155   */\n    tag_71:\n        /* \"#utility.yul\":957:984   */\n      tag_134\n        /* \"#utility.yul\":979:983   */\n      dup3\n        /* \"#utility.yul\":957:984   */\n      tag_69\n      jump\t// in\n    tag_134:\n        /* \"#utility.yul\":949:955   */\n      dup2\n        /* \"#utility.yul\":945:985   */\n      add\n        /* \"#utility.yul\":1087:1093   */\n      dup2\n        /* \"#utility.yul\":1075:1085   */\n      dup2\n        /* \"#utility.yul\":1072:1094   */\n      lt\n        /* \"#utility.yul\":1051:1069   */\n      0xffffffffffffffff\n        /* \"#utility.yul\":1039:1049   */\n      dup3\n        /* \"#utility.yul\":1036:1070   */\n      gt\n        /* \"#utility.yul\":1033:1095   */\n      or\n        /* \"#utility.yul\":1030:1118   */\n      iszero\n      tag_135\n      jumpi\n        /* \"#utility.yul\":1098:1116   */\n      tag_136\n      tag_70\n      jump\t// in\n    tag_136:\n        /* \"#utility.yul\":1030:1118   */\n    tag_135:\n        /* \"#utility.yul\":1138:1148   */\n      dup1\n        /* \"#utility.yul\":1134:1136   */\n      0x40\n        /* \"#utility.yul\":1127:1149   */\n      mstore\n        /* \"#utility.yul\":917:1155   */\n      pop\n        /* \"#utility.yul\":874:1155   */\n      pop\n      pop\n      jump\t// out\n        /* \"#utility.yul\":1161:1290   */\n    tag_72:\n        /* \"#utility.yul\":1195:1201   */\n      0x00\n        /* \"#utility.yul\":1222:1242   */\n      tag_138\n      tag_64\n      jump\t// in\n    tag_138:\n        /* \"#utility.yul\":1212:1242   */\n      swap1\n      pop\n        /* \"#utility.yul\":1251:1284   */\n      tag_139\n        /* \"#utility.yul\":1279:1283   */\n      dup3\n        /* \"#utility.yul\":1271:1277   */\n      dup3\n        /* \"#utility.yul\":1251:1284   */\n      tag_71\n      jump\t// in\n    tag_139:\n        /* \"#utility.yul\":1161:1290   */\n      swap2\n      swap1\n      pop\n      jump\t// out\n        /* \"#utility.yul\":1296:1604   */\n    tag_73:\n        /* \"#utility.yul\":1358:1362   */\n      0x00\n        /* \"#utility.yul\":1448:1466   */\n      0xffffffffffffffff\n        /* \"#utility.yul\":1440:1446   */\n      dup3\n        /* \"#utility.yul\":1437:1467   */\n      gt\n        /* \"#utility.yul\":1434:1490   */\n      iszero\n      tag_141\n      jumpi\n        /* \"#utility.yul\":1470:1488   */\n      tag_142\n      tag_70\n      jump\t// in\n    tag_142:\n        /* \"#utility.yul\":1434:1490   */\n    tag_141:\n        /* \"#utility.yul\":1508:1537   */\n      tag_143\n        /* \"#utility.yul\":1530:1536   */\n      dup3\n        /* \"#utility.yul\":1508:1537   */\n      tag_69\n      jump\t// in\n    tag_143:\n        /* \"#utility.yul\":1500:1537   */\n      swap1\n      pop\n        /* \"#utility.yul\":1592:1596   */\n      0x20\n        /* \"#utility.yul\":1586:1590   */\n      dup2\n        /* \"#utility.yul\":1582:1597   */\n      add\n        /* \"#utility.yul\":1574:1597   */\n      swap1\n      pop\n        /* \"#utility.yul\":1296:1604   */\n      swap2\n      swap1\n      pop\n      jump\t// out\n        /* \"#utility.yul\":1610:1756   */\n    tag_74:\n        /* \"#utility.yul\":1707:1713   */\n      dup3\n        /* \"#utility.yul\":1702:1705   */\n      dup2\n        /* \"#utility.yul\":1697:1700   */\n      dup4\n        /* \"#utility.yul\":1684:1714   */\n      calldatacopy\n        /* \"#utility.yul\":1748:1749   */\n      0x00\n        /* \"#utility.yul\":1739:1745   */\n      dup4\n        /* \"#utility.yul\":1734:1737   */\n      dup4\n        /* \"#utility.yul\":1730:1746   */\n      add\n        /* \"#utility.yul\":1723:1750   */\n      mstore\n        /* \"#utility.yul\":1610:1756   */\n      pop\n      pop\n      pop\n      jump\t// out\n        /* \"#utility.yul\":1762:2187   */\n    tag_75:\n        /* \"#utility.yul\":1840:1845   */\n      0x00\n        /* \"#utility.yul\":1865:1931   */\n      tag_146\n        /* \"#utility.yul\":1881:1930   */\n      tag_147\n        /* \"#utility.yul\":1923:1929   */\n      dup5\n        /* \"#utility.yul\":1881:1930   */\n      tag_73\n      jump\t// in\n    tag_147:\n        /* \"#utility.yul\":1865:1931   */\n      tag_72\n      jump\t// in\n    tag_146:\n        /* \"#utility.yul\":1856:1931   */\n      swap1\n      pop\n        /* \"#utility.yul\":1954:1960   */\n      dup3\n        /* \"#utility.yul\":1947:1952   */\n      dup2\n        /* \"#utility.yul\":1940:1961   */\n      mstore\n        /* \"#utility.yul\":1992:1996   */\n      0x20\n        /* \"#utility.yul\":1985:1990   */\n      dup2\n        /* \"#utility.yul\":1981:1997   */\n      add\n        /* \"#utility.yul\":2030:2033   */\n      dup5\n        /* \"#utility.yul\":2021:2027   */\n      dup5\n        /* \"#utility.yul\":2016:2019   */\n      dup5\n        /* \"#utility.yul\":2012:2028   */\n      add\n        /* \"#utility.yul\":2009:2034   */\n      gt\n        /* \"#utility.yul\":2006:2118   */\n      iszero\n      tag_148\n      jumpi\n        /* \"#utility.yul\":2037:2116   */\n      tag_149\n      tag_68\n      jump\t// in\n    tag_149:\n        /* \"#utility.yul\":2006:2118   */\n    tag_148:\n        /* \"#utility.yul\":2127:2181   */\n      tag_150\n        /* \"#utility.yul\":2174:2180   */\n      dup5\n        /* \"#utility.yul\":2169:2172   */\n      dup3\n        /* \"#utility.yul\":2164:2167   */\n      dup6\n        /* \"#utility.yul\":2127:2181   */\n      tag_74\n      jump\t// in\n    tag_150:\n        /* \"#utility.yul\":1846:2187   */\n      pop\n        /* \"#utility.yul\":1762:2187   */\n      swap4\n      swap3\n      pop\n      pop\n      pop\n      jump\t// out\n        /* \"#utility.yul\":2207:2547   */\n    tag_76:\n        /* \"#utility.yul\":2263:2268   */\n      0x00\n        /* \"#utility.yul\":2312:2315   */\n      dup3\n        /* \"#utility.yul\":2305:2309   */\n      0x1f\n        /* \"#utility.yul\":2297:2303   */\n      dup4\n        /* \"#utility.yul\":2293:2310   */\n      add\n        /* \"#utility.yul\":2289:2316   */\n      slt\n        /* \"#utility.yul\":2279:2401   */\n      tag_152\n      jumpi\n        /* \"#utility.yul\":2320:2399   */\n      tag_153\n      tag_67\n      jump\t// in\n    tag_153:\n        /* \"#utility.yul\":2279:2401   */\n    tag_152:\n        /* \"#utility.yul\":2437:2443   */\n      dup2\n        /* \"#utility.yul\":2424:2444   */\n      calldataload\n        /* \"#utility.yul\":2462:2541   */\n      tag_154\n        /* \"#utility.yul\":2537:2540   */\n      dup5\n        /* \"#utility.yul\":2529:2535   */\n      dup3\n        /* \"#utility.yul\":2522:2526   */\n      0x20\n        /* \"#utility.yul\":2514:2520   */\n      dup7\n        /* \"#utility.yul\":2510:2527   */\n      add\n        /* \"#utility.yul\":2462:2541   */\n      tag_75\n      jump\t// in\n    tag_154:\n        /* \"#utility.yul\":2453:2541   */\n      swap2\n      pop\n        /* \"#utility.yul\":2269:2547   */\n      pop\n        /* \"#utility.yul\":2207:2547   */\n      swap3\n      swap2\n      pop\n      pop\n      jump\t// out\n        /* \"#utility.yul\":2553:2679   */\n    tag_77:\n        /* \"#utility.yul\":2590:2597   */\n      0x00\n        /* \"#utility.yul\":2630:2672   */\n      0xffffffffffffffffffffffffffffffffffffffff\n        /* \"#utility.yul\":2623:2628   */\n      dup3\n        /* \"#utility.yul\":2619:2673   */\n      and\n        /* \"#utility.yul\":2608:2673   */\n      swap1\n      pop\n        /* \"#utility.yul\":2553:2679   */\n      swap2\n      swap1\n      pop\n      jump\t// out\n        /* \"#utility.yul\":2685:2781   */\n    tag_78:\n        /* \"#utility.yul\":2722:2729   */\n      0x00\n        /* \"#utility.yul\":2751:2775   */\n      tag_157\n        /* \"#utility.yul\":2769:2774   */\n      dup3\n        /* \"#utility.yul\":2751:2775   */\n      tag_77\n      jump\t// in\n    tag_157:\n        /* \"#utility.yul\":2740:2775   */\n      swap1\n      pop\n        /* \"#utility.yul\":2685:2781   */\n      swap2\n      swap1\n      pop\n      jump\t// out\n        /* \"#utility.yul\":2787:2909   */\n    tag_79:\n        /* \"#utility.yul\":2860:2884   */\n      tag_159\n        /* \"#utility.yul\":2878:2883   */\n      dup2\n        /* \"#utility.yul\":2860:2884   */\n      tag_78\n      jump\t// in\n    tag_159:\n        /* \"#utility.yul\":2853:2858   */\n      dup2\n        /* \"#utility.yul\":2850:2885   */\n      eq\n        /* \"#utility.yul\":2840:2903   */\n      tag_160\n      jumpi\n        /* \"#utility.yul\":2899:2900   */\n      0x00\n        /* \"#utility.yul\":2896:2897   */\n      dup1\n        /* \"#utility.yul\":2889:2901   */\n      revert\n        /* \"#utility.yul\":2840:2903   */\n    tag_160:\n        /* \"#utility.yul\":2787:2909   */\n      pop\n      jump\t// out\n        /* \"#utility.yul\":2915:3054   */\n    tag_80:\n        /* \"#utility.yul\":2961:2966   */\n      0x00\n        /* \"#utility.yul\":2999:3005   */\n      dup2\n        /* \"#utility.yul\":2986:3006   */\n      calldataload\n        /* \"#utility.yul\":2977:3006   */\n      swap1\n      pop\n        /* \"#utility.yul\":3015:3048   */\n      tag_162\n        /* \"#utility.yul\":3042:3047   */\n      dup2\n        /* \"#utility.yul\":3015:3048   */\n      tag_79\n      jump\t// in\n    tag_162:\n        /* \"#utility.yul\":2915:3054   */\n      swap3\n      swap2\n      pop\n      pop\n      jump\t// out\n        /* \"#utility.yul\":3060:4039   */\n    tag_10:\n        /* \"#utility.yul\":3157:3163   */\n      0x00\n        /* \"#utility.yul\":3165:3171   */\n      dup1\n        /* \"#utility.yul\":3173:3179   */\n      0x00\n        /* \"#utility.yul\":3222:3224   */\n      0x60\n        /* \"#utility.yul\":3210:3219   */\n      dup5\n        /* \"#utility.yul\":3201:3208   */\n      dup7\n        /* \"#utility.yul\":3197:3220   */\n      sub\n        /* \"#utility.yul\":3193:3225   */\n      slt\n        /* \"#utility.yul\":3190:3309   */\n      iszero\n      tag_164\n      jumpi\n        /* \"#utility.yul\":3228:3307   */\n      tag_165\n      tag_65\n      jump\t// in\n    tag_165:\n        /* \"#utility.yul\":3190:3309   */\n    tag_164:\n        /* \"#utility.yul\":3376:3377   */\n      0x00\n        /* \"#utility.yul\":3365:3374   */\n      dup5\n        /* \"#utility.yul\":3361:3378   */\n      add\n        /* \"#utility.yul\":3348:3379   */\n      calldataload\n        /* \"#utility.yul\":3406:3424   */\n      0xffffffffffffffff\n        /* \"#utility.yul\":3398:3404   */\n      dup2\n        /* \"#utility.yul\":3395:3425   */\n      gt\n        /* \"#utility.yul\":3392:3509   */\n      iszero\n      tag_166\n      jumpi\n        /* \"#utility.yul\":3428:3507   */\n      tag_167\n      tag_66\n      jump\t// in\n    tag_167:\n        /* \"#utility.yul\":3392:3509   */\n    tag_166:\n        /* \"#utility.yul\":3533:3596   */\n      tag_168\n        /* \"#utility.yul\":3588:3595   */\n      dup7\n        /* \"#utility.yul\":3579:3585   */\n      dup3\n        /* \"#utility.yul\":3568:3577   */\n      dup8\n        /* \"#utility.yul\":3564:3586   */\n      add\n        /* \"#utility.yul\":3533:3596   */\n      tag_76\n      jump\t// in\n    tag_168:\n        /* \"#utility.yul\":3523:3596   */\n      swap4\n      pop\n        /* \"#utility.yul\":3319:3606   */\n      pop\n        /* \"#utility.yul\":3673:3675   */\n      0x20\n        /* \"#utility.yul\":3662:3671   */\n      dup5\n        /* \"#utility.yul\":3658:3676   */\n      add\n        /* \"#utility.yul\":3645:3677   */\n      calldataload\n        /* \"#utility.yul\":3704:3722   */\n      0xffffffffffffffff\n        /* \"#utility.yul\":3696:3702   */\n      dup2\n        /* \"#utility.yul\":3693:3723   */\n      gt\n        /* \"#utility.yul\":3690:3807   */\n      iszero\n      tag_169\n      jumpi\n        /* \"#utility.yul\":3726:3805   */\n      tag_170\n      tag_66\n      jump\t// in\n    tag_170:\n        /* \"#utility.yul\":3690:3807   */\n    tag_169:\n        /* \"#utility.yul\":3831:3894   */\n      tag_171\n        /* \"#utility.yul\":3886:3893   */\n      dup7\n        /* \"#utility.yul\":3877:3883   */\n      dup3\n        /* \"#utility.yul\":3866:3875   */\n      dup8\n        /* \"#utility.yul\":3862:3884   */\n      add\n        /* \"#utility.yul\":3831:3894   */\n      tag_76\n      jump\t// in\n    tag_171:\n        /* \"#utility.yul\":3821:3894   */\n      swap3\n      pop\n        /* \"#utility.yul\":3616:3904   */\n      pop\n        /* \"#utility.yul\":3943:3945   */\n      0x40\n        /* \"#utility.yul\":3969:4022   */\n      tag_172\n        /* \"#utility.yul\":4014:4021   */\n      dup7\n        /* \"#utility.yul\":4005:4011   */\n      dup3\n        /* \"#utility.yul\":3994:4003   */\n      dup8\n        /* \"#utility.yul\":3990:4012   */\n      add\n        /* \"#utility.yul\":3969:4022   */\n      tag_80\n      jump\t// in\n    tag_172:\n        /* \"#utility.yul\":3959:4022   */\n      swap2\n      pop\n        /* \"#utility.yul\":3914:4032   */\n      pop\n        /* \"#utility.yul\":3060:4039   */\n      swap3\n      pop\n      swap3\n      pop\n      swap3\n      jump\t// out\n        /* \"#utility.yul\":4045:4121   */\n    tag_81:\n        /* \"#utility.yul\":4081:4088   */\n      0x00\n        /* \"#utility.yul\":4110:4115   */\n      dup2\n        /* \"#utility.yul\":4099:4115   */\n      swap1\n      pop\n        /* \"#utility.yul\":4045:4121   */\n      swap2\n      swap1\n      pop\n      jump\t// out\n        /* \"#utility.yul\":4127:4242   */\n    tag_82:\n        /* \"#utility.yul\":4212:4235   */\n      tag_175\n        /* \"#utility.yul\":4229:4234   */\n      dup2\n        /* \"#utility.yul\":4212:4235   */\n      tag_81\n      jump\t// in\n    tag_175:\n        /* \"#utility.yul\":4207:4210   */\n      dup3\n        /* \"#utility.yul\":4200:4236   */\n      mstore\n        /* \"#utility.yul\":4127:4242   */\n      pop\n      pop\n      jump\t// out\n        /* \"#utility.yul\":4248:4325   */\n    tag_83:\n        /* \"#utility.yul\":4285:4292   */\n      0x00\n        /* \"#utility.yul\":4314:4319   */\n      dup2\n        /* \"#utility.yul\":4303:4319   */\n      swap1\n      pop\n        /* \"#utility.yul\":4248:4325   */\n      swap2\n      swap1\n      pop\n      jump\t// out\n        /* \"#utility.yul\":4331:4449   */\n    tag_84:\n        /* \"#utility.yul\":4418:4442   */\n      tag_178\n        /* \"#utility.yul\":4436:4441   */\n      dup2\n        /* \"#utility.yul\":4418:4442   */\n      tag_83\n      jump\t// in\n    tag_178:\n        /* \"#utility.yul\":4413:4416   */\n      dup3\n        /* \"#utility.yul\":4406:4443   */\n      mstore\n        /* \"#utility.yul\":4331:4449   */\n      pop\n      pop\n      jump\t// out\n        /* \"#utility.yul\":4455:4554   */\n    tag_85:\n        /* \"#utility.yul\":4507:4513   */\n      0x00\n        /* \"#utility.yul\":4541:4546   */\n      dup2\n        /* \"#utility.yul\":4535:4547   */\n      mload\n        /* \"#utility.yul\":4525:4547   */\n      swap1\n      pop\n        /* \"#utility.yul\":4455:4554   */\n      swap2\n      swap1\n      pop\n      jump\t// out\n        /* \"#utility.yul\":4560:4729   */\n    tag_86:\n        /* \"#utility.yul\":4644:4655   */\n      0x00\n        /* \"#utility.yul\":4678:4684   */\n      dup3\n        /* \"#utility.yul\":4673:4676   */\n      dup3\n        /* \"#utility.yul\":4666:4685   */\n      mstore\n        /* \"#utility.yul\":4718:4722   */\n      0x20\n        /* \"#utility.yul\":4713:4716   */\n      dup3\n        /* \"#utility.yul\":4709:4723   */\n      add\n        /* \"#utility.yul\":4694:4723   */\n      swap1\n      pop\n        /* \"#utility.yul\":4560:4729   */\n      swap3\n      swap2\n      pop\n      pop\n      jump\t// out\n        /* \"#utility.yul\":4735:4981   */\n    tag_87:\n        /* \"#utility.yul\":4816:4817   */\n      0x00\n        /* \"#utility.yul\":4826:4939   */\n    tag_182:\n        /* \"#utility.yul\":4840:4846   */\n      dup4\n        /* \"#utility.yul\":4837:4838   */\n      dup2\n        /* \"#utility.yul\":4834:4847   */\n      lt\n        /* \"#utility.yul\":4826:4939   */\n      iszero\n      tag_184\n      jumpi\n        /* \"#utility.yul\":4925:4926   */\n      dup1\n        /* \"#utility.yul\":4920:4923   */\n      dup3\n        /* \"#utility.yul\":4916:4927   */\n      add\n        /* \"#utility.yul\":4910:4928   */\n      mload\n        /* \"#utility.yul\":4906:4907   */\n      dup2\n        /* \"#utility.yul\":4901:4904   */\n      dup5\n        /* \"#utility.yul\":4897:4908   */\n      add\n        /* \"#utility.yul\":4890:4929   */\n      mstore\n        /* \"#utility.yul\":4862:4864   */\n      0x20\n        /* \"#utility.yul\":4859:4860   */\n      dup2\n        /* \"#utility.yul\":4855:4865   */\n      add\n        /* \"#utility.yul\":4850:4865   */\n      swap1\n      pop\n        /* \"#utility.yul\":4826:4939   */\n      jump(tag_182)\n    tag_184:\n        /* \"#utility.yul\":4973:4974   */\n      0x00\n        /* \"#utility.yul\":4964:4970   */\n      dup5\n        /* \"#utility.yul\":4959:4962   */\n      dup5\n        /* \"#utility.yul\":4955:4971   */\n      add\n        /* \"#utility.yul\":4948:4975   */\n      mstore\n        /* \"#utility.yul\":4797:4981   */\n      pop\n        /* \"#utility.yul\":4735:4981   */\n      pop\n      pop\n      pop\n      jump\t// out\n        /* \"#utility.yul\":4987:5364   */\n    tag_88:\n        /* \"#utility.yul\":5075:5078   */\n      0x00\n        /* \"#utility.yul\":5103:5142   */\n      tag_186\n        /* \"#utility.yul\":5136:5141   */\n      dup3\n        /* \"#utility.yul\":5103:5142   */\n      tag_85\n      jump\t// in\n    tag_186:\n        /* \"#utility.yul\":5158:5229   */\n      tag_187\n        /* \"#utility.yul\":5222:5228   */\n      dup2\n        /* \"#utility.yul\":5217:5220   */\n      dup6\n        /* \"#utility.yul\":5158:5229   */\n      tag_86\n      jump\t// in\n    tag_187:\n        /* \"#utility.yul\":5151:5229   */\n      swap4\n      pop\n        /* \"#utility.yul\":5238:5303   */\n      tag_188\n        /* \"#utility.yul\":5296:5302   */\n      dup2\n        /* \"#utility.yul\":5291:5294   */\n      dup6\n        /* \"#utility.yul\":5284:5288   */\n      0x20\n        /* \"#utility.yul\":5277:5282   */\n      dup7\n        /* \"#utility.yul\":5273:5289   */\n      add\n        /* \"#utility.yul\":5238:5303   */\n      tag_87\n      jump\t// in\n    tag_188:\n        /* \"#utility.yul\":5328:5357   */\n      tag_189\n        /* \"#utility.yul\":5350:5356   */\n      dup2\n        /* \"#utility.yul\":5328:5357   */\n      tag_69\n      jump\t// in\n    tag_189:\n        /* \"#utility.yul\":5323:5326   */\n      dup5\n        /* \"#utility.yul\":5319:5358   */\n      add\n        /* \"#utility.yul\":5312:5358   */\n      swap2\n      pop\n        /* \"#utility.yul\":5079:5364   */\n      pop\n        /* \"#utility.yul\":4987:5364   */\n      swap3\n      swap2\n      pop\n      pop\n      jump\t// out\n        /* \"#utility.yul\":5370:6010   */\n    tag_19:\n        /* \"#utility.yul\":5565:5569   */\n      0x00\n        /* \"#utility.yul\":5603:5606   */\n      0x80\n        /* \"#utility.yul\":5592:5601   */\n      dup3\n        /* \"#utility.yul\":5588:5607   */\n      add\n        /* \"#utility.yul\":5580:5607   */\n      swap1\n      pop\n        /* \"#utility.yul\":5617:5686   */\n      tag_191\n        /* \"#utility.yul\":5683:5684   */\n      0x00\n        /* \"#utility.yul\":5672:5681   */\n      dup4\n        /* \"#utility.yul\":5668:5685   */\n      add\n        /* \"#utility.yul\":5659:5665   */\n      dup8\n        /* \"#utility.yul\":5617:5686   */\n      tag_82\n      jump\t// in\n    tag_191:\n        /* \"#utility.yul\":5696:5768   */\n      tag_192\n        /* \"#utility.yul\":5764:5766   */\n      0x20\n        /* \"#utility.yul\":5753:5762   */\n      dup4\n        /* \"#utility.yul\":5749:5767   */\n      add\n        /* \"#utility.yul\":5740:5746   */\n      dup7\n        /* \"#utility.yul\":5696:5768   */\n      tag_84\n      jump\t// in\n    tag_192:\n        /* \"#utility.yul\":5815:5824   */\n      dup2\n        /* \"#utility.yul\":5809:5813   */\n      dup2\n        /* \"#utility.yul\":5805:5825   */\n      sub\n        /* \"#utility.yul\":5800:5802   */\n      0x40\n        /* \"#utility.yul\":5789:5798   */\n      dup4\n        /* \"#utility.yul\":5785:5803   */\n      add\n        /* \"#utility.yul\":5778:5826   */\n      mstore\n        /* \"#utility.yul\":5843:5921   */\n      tag_193\n        /* \"#utility.yul\":5916:5920   */\n      dup2\n        /* \"#utility.yul\":5907:5913   */\n      dup6\n        /* \"#utility.yul\":5843:5921   */\n      tag_88\n      jump\t// in\n    tag_193:\n        /* \"#utility.yul\":5835:5921   */\n      swap1\n      pop\n        /* \"#utility.yul\":5931:6003   */\n      tag_194\n        /* \"#utility.yul\":5999:6001   */\n      0x60\n        /* \"#utility.yul\":5988:5997   */\n      dup4\n        /* \"#utility.yul\":5984:6002   */\n      add\n        /* \"#utility.yul\":5975:5981   */\n      dup5\n        /* \"#utility.yul\":5931:6003   */\n      tag_84\n      jump\t// in\n    tag_194:\n        /* \"#utility.yul\":5370:6010   */\n      swap6\n      swap5\n      pop\n      pop\n      pop\n      pop\n      pop\n      jump\t// out\n        /* \"#utility.yul\":6016:6134   */\n    tag_89:\n        /* \"#utility.yul\":6103:6127   */\n      tag_196\n        /* \"#utility.yul\":6121:6126   */\n      dup2\n        /* \"#utility.yul\":6103:6127   */\n      tag_78\n      jump\t// in\n    tag_196:\n        /* \"#utility.yul\":6098:6101   */\n      dup3\n        /* \"#utility.yul\":6091:6128   */\n      mstore\n        /* \"#utility.yul\":6016:6134   */\n      pop\n      pop\n      jump\t// out\n        /* \"#utility.yul\":6140:6362   */\n    tag_23:\n        /* \"#utility.yul\":6233:6237   */\n      0x00\n        /* \"#utility.yul\":6271:6273   */\n      0x20\n        /* \"#utility.yul\":6260:6269   */\n      dup3\n        /* \"#utility.yul\":6256:6274   */\n      add\n        /* \"#utility.yul\":6248:6274   */\n      swap1\n      pop\n        /* \"#utility.yul\":6284:6355   */\n      tag_198\n        /* \"#utility.yul\":6352:6353   */\n      0x00\n        /* \"#utility.yul\":6341:6350   */\n      dup4\n        /* \"#utility.yul\":6337:6354   */\n      add\n        /* \"#utility.yul\":6328:6334   */\n      dup5\n        /* \"#utility.yul\":6284:6355   */\n      tag_89\n      jump\t// in\n    tag_198:\n        /* \"#utility.yul\":6140:6362   */\n      swap3\n      swap2\n      pop\n      pop\n      jump\t// out\n        /* \"#utility.yul\":6368:6533   */\n    tag_90:\n        /* \"#utility.yul\":6508:6525   */\n      0x4e6f7420417574686f72697a6564210000000000000000000000000000000000\n        /* \"#utility.yul\":6504:6505   */\n      0x00\n        /* \"#utility.yul\":6496:6502   */\n      dup3\n        /* \"#utility.yul\":6492:6506   */\n      add\n        /* \"#utility.yul\":6485:6526   */\n      mstore\n        /* \"#utility.yul\":6368:6533   */\n      pop\n      jump\t// out\n        /* \"#utility.yul\":6539:6905   */\n    tag_91:\n        /* \"#utility.yul\":6681:6684   */\n      0x00\n        /* \"#utility.yul\":6702:6769   */\n      tag_201\n        /* \"#utility.yul\":6766:6768   */\n      0x0f\n        /* \"#utility.yul\":6761:6764   */\n      dup4\n        /* \"#utility.yul\":6702:6769   */\n      tag_86\n      jump\t// in\n    tag_201:\n        /* \"#utility.yul\":6695:6769   */\n      swap2\n      pop\n        /* \"#utility.yul\":6778:6871   */\n      tag_202\n        /* \"#utility.yul\":6867:6870   */\n      dup3\n        /* \"#utility.yul\":6778:6871   */\n      tag_90\n      jump\t// in\n    tag_202:\n        /* \"#utility.yul\":6896:6898   */\n      0x20\n        /* \"#utility.yul\":6891:6894   */\n      dup3\n        /* \"#utility.yul\":6887:6899   */\n      add\n        /* \"#utility.yul\":6880:6899   */\n      swap1\n      pop\n        /* \"#utility.yul\":6539:6905   */\n      swap2\n      swap1\n      pop\n      jump\t// out\n        /* \"#utility.yul\":6911:7330   */\n    tag_27:\n        /* \"#utility.yul\":7077:7081   */\n      0x00\n        /* \"#utility.yul\":7115:7117   */\n      0x20\n        /* \"#utility.yul\":7104:7113   */\n      dup3\n        /* \"#utility.yul\":7100:7118   */\n      add\n        /* \"#utility.yul\":7092:7118   */\n      swap1\n      pop\n        /* \"#utility.yul\":7164:7173   */\n      dup2\n        /* \"#utility.yul\":7158:7162   */\n      dup2\n        /* \"#utility.yul\":7154:7174   */\n      sub\n        /* \"#utility.yul\":7150:7151   */\n      0x00\n        /* \"#utility.yul\":7139:7148   */\n      dup4\n        /* \"#utility.yul\":7135:7152   */\n      add\n        /* \"#utility.yul\":7128:7175   */\n      mstore\n        /* \"#utility.yul\":7192:7323   */\n      tag_204\n        /* \"#utility.yul\":7318:7322   */\n      dup2\n        /* \"#utility.yul\":7192:7323   */\n      tag_91\n      jump\t// in\n    tag_204:\n        /* \"#utility.yul\":7184:7323   */\n      swap1\n      pop\n        /* \"#utility.yul\":6911:7330   */\n      swap2\n      swap1\n      pop\n      jump\t// out\n        /* \"#utility.yul\":7336:7484   */\n    tag_92:\n        /* \"#utility.yul\":7438:7449   */\n      0x00\n        /* \"#utility.yul\":7475:7478   */\n      dup2\n        /* \"#utility.yul\":7460:7478   */\n      swap1\n      pop\n        /* \"#utility.yul\":7336:7484   */\n      swap3\n      swap2\n      pop\n      pop\n      jump\t// out\n        /* \"#utility.yul\":7490:7880   */\n    tag_93:\n        /* \"#utility.yul\":7596:7599   */\n      0x00\n        /* \"#utility.yul\":7624:7663   */\n      tag_207\n        /* \"#utility.yul\":7657:7662   */\n      dup3\n        /* \"#utility.yul\":7624:7663   */\n      tag_85\n      jump\t// in\n    tag_207:\n        /* \"#utility.yul\":7679:7768   */\n      tag_208\n        /* \"#utility.yul\":7761:7767   */\n      dup2\n        /* \"#utility.yul\":7756:7759   */\n      dup6\n        /* \"#utility.yul\":7679:7768   */\n      tag_92\n      jump\t// in\n    tag_208:\n        /* \"#utility.yul\":7672:7768   */\n      swap4\n      pop\n        /* \"#utility.yul\":7777:7842   */\n      tag_209\n        /* \"#utility.yul\":7835:7841   */\n      dup2\n        /* \"#utility.yul\":7830:7833   */\n      dup6\n        /* \"#utility.yul\":7823:7827   */\n      0x20\n        /* \"#utility.yul\":7816:7821   */\n      dup7\n        /* \"#utility.yul\":7812:7828   */\n      add\n        /* \"#utility.yul\":7777:7842   */\n      tag_87\n      jump\t// in\n    tag_209:\n        /* \"#utility.yul\":7867:7873   */\n      dup1\n        /* \"#utility.yul\":7862:7865   */\n      dup5\n        /* \"#utility.yul\":7858:7874   */\n      add\n        /* \"#utility.yul\":7851:7874   */\n      swap2\n      pop\n        /* \"#utility.yul\":7600:7880   */\n      pop\n        /* \"#utility.yul\":7490:7880   */\n      swap3\n      swap2\n      pop\n      pop\n      jump\t// out\n        /* \"#utility.yul\":7886:8064   */\n    tag_94:\n        /* \"#utility.yul\":8054:8057   */\n      0x2f00000000000000000000000000000000000000000000000000000000000000\n        /* \"#utility.yul\":8049:8052   */\n      dup2\n        /* \"#utility.yul\":8042:8058   */\n      mstore\n        /* \"#utility.yul\":7886:8064   */\n      pop\n      jump\t// out\n        /* \"#utility.yul\":8070:8769   */\n    tag_31:\n        /* \"#utility.yul\":8340:8343   */\n      0x00\n        /* \"#utility.yul\":8362:8457   */\n      tag_212\n        /* \"#utility.yul\":8453:8456   */\n      dup3\n        /* \"#utility.yul\":8444:8450   */\n      dup6\n        /* \"#utility.yul\":8362:8457   */\n      tag_93\n      jump\t// in\n    tag_212:\n        /* \"#utility.yul\":8355:8457   */\n      swap2\n      pop\n        /* \"#utility.yul\":8467:8604   */\n      tag_213\n        /* \"#utility.yul\":8600:8603   */\n      dup3\n        /* \"#utility.yul\":8467:8604   */\n      tag_94\n      jump\t// in\n    tag_213:\n        /* \"#utility.yul\":8629:8630   */\n      0x01\n        /* \"#utility.yul\":8624:8627   */\n      dup3\n        /* \"#utility.yul\":8620:8631   */\n      add\n        /* \"#utility.yul\":8613:8631   */\n      swap2\n      pop\n        /* \"#utility.yul\":8648:8743   */\n      tag_214\n        /* \"#utility.yul\":8739:8742   */\n      dup3\n        /* \"#utility.yul\":8730:8736   */\n      dup5\n        /* \"#utility.yul\":8648:8743   */\n      tag_93\n      jump\t// in\n    tag_214:\n        /* \"#utility.yul\":8641:8743   */\n      swap2\n      pop\n        /* \"#utility.yul\":8760:8763   */\n      dup2\n        /* \"#utility.yul\":8753:8763   */\n      swap1\n      pop\n        /* \"#utility.yul\":8070:8769   */\n      swap4\n      swap3\n      pop\n      pop\n      pop\n      jump\t// out\n        /* \"#utility.yul\":8775:8955   */\n    tag_95:\n        /* \"#utility.yul\":8823:8900   */\n      0x4e487b7100000000000000000000000000000000000000000000000000000000\n        /* \"#utility.yul\":8820:8821   */\n      0x00\n        /* \"#utility.yul\":8813:8901   */\n      mstore\n        /* \"#utility.yul\":8920:8924   */\n      0x22\n        /* \"#utility.yul\":8917:8918   */\n      0x04\n        /* \"#utility.yul\":8910:8925   */\n      mstore\n        /* \"#utility.yul\":8944:8948   */\n      0x24\n        /* \"#utility.yul\":8941:8942   */\n      0x00\n        /* \"#utility.yul\":8934:8949   */\n      revert\n        /* \"#utility.yul\":8961:9281   */\n    tag_59:\n        /* \"#utility.yul\":9005:9011   */\n      0x00\n        /* \"#utility.yul\":9042:9043   */\n      0x02\n        /* \"#utility.yul\":9036:9040   */\n      dup3\n        /* \"#utility.yul\":9032:9044   */\n      div\n        /* \"#utility.yul\":9022:9044   */\n      swap1\n      pop\n        /* \"#utility.yul\":9089:9090   */\n      0x01\n        /* \"#utility.yul\":9083:9087   */\n      dup3\n        /* \"#utility.yul\":9079:9091   */\n      and\n        /* \"#utility.yul\":9110:9128   */\n      dup1\n        /* \"#utility.yul\":9100:9181   */\n      tag_217\n      jumpi\n        /* \"#utility.yul\":9166:9170   */\n      0x7f\n        /* \"#utility.yul\":9158:9164   */\n      dup3\n        /* \"#utility.yul\":9154:9171   */\n      and\n        /* \"#utility.yul\":9144:9171   */\n      swap2\n      pop\n        /* \"#utility.yul\":9100:9181   */\n    tag_217:\n        /* \"#utility.yul\":9228:9230   */\n      0x20\n        /* \"#utility.yul\":9220:9226   */\n      dup3\n        /* \"#utility.yul\":9217:9231   */\n      lt\n        /* \"#utility.yul\":9197:9215   */\n      dup2\n        /* \"#utility.yul\":9194:9232   */\n      sub\n        /* \"#utility.yul\":9191:9275   */\n      tag_218\n      jumpi\n        /* \"#utility.yul\":9247:9265   */\n      tag_219\n      tag_95\n      jump\t// in\n    tag_219:\n        /* \"#utility.yul\":9191:9275   */\n    tag_218:\n        /* \"#utility.yul\":9012:9281   */\n      pop\n        /* \"#utility.yul\":8961:9281   */\n      swap2\n      swap1\n      pop\n      jump\t// out\n        /* \"#utility.yul\":9287:9428   */\n    tag_96:\n        /* \"#utility.yul\":9336:9340   */\n      0x00\n        /* \"#utility.yul\":9359:9362   */\n      dup2\n        /* \"#utility.yul\":9351:9362   */\n      swap1\n      pop\n        /* \"#utility.yul\":9382:9385   */\n      dup2\n        /* \"#utility.yul\":9379:9380   */\n      0x00\n        /* \"#utility.yul\":9372:9386   */\n      mstore\n        /* \"#utility.yul\":9416:9420   */\n      0x20\n        /* \"#utility.yul\":9413:9414   */\n      0x00\n        /* \"#utility.yul\":9403:9421   */\n      keccak256\n        /* \"#utility.yul\":9395:9421   */\n      swap1\n      pop\n        /* \"#utility.yul\":9287:9428   */\n      swap2\n      swap1\n      pop\n      jump\t// out\n        /* \"#utility.yul\":9434:9527   */\n    tag_97:\n        /* \"#utility.yul\":9471:9477   */\n      0x00\n        /* \"#utility.yul\":9518:9520   */\n      0x20\n        /* \"#utility.yul\":9513:9515   */\n      0x1f\n        /* \"#utility.yul\":9506:9511   */\n      dup4\n        /* \"#utility.yul\":9502:9516   */\n      add\n        /* \"#utility.yul\":9498:9521   */\n      div\n        /* \"#utility.yul\":9488:9521   */\n      swap1\n      pop\n        /* \"#utility.yul\":9434:9527   */\n      swap2\n      swap1\n      pop\n      jump\t// out\n        /* \"#utility.yul\":9533:9640   */\n    tag_98:\n        /* \"#utility.yul\":9577:9585   */\n      0x00\n        /* \"#utility.yul\":9627:9632   */\n      dup3\n        /* \"#utility.yul\":9621:9625   */\n      dup3\n        /* \"#utility.yul\":9617:9633   */\n      shl\n        /* \"#utility.yul\":9596:9633   */\n      swap1\n      pop\n        /* \"#utility.yul\":9533:9640   */\n      swap3\n      swap2\n      pop\n      pop\n      jump\t// out\n        /* \"#utility.yul\":9646:10039   */\n    tag_99:\n        /* \"#utility.yul\":9715:9721   */\n      0x00\n        /* \"#utility.yul\":9765:9766   */\n      0x08\n        /* \"#utility.yul\":9753:9763   */\n      dup4\n        /* \"#utility.yul\":9749:9767   */\n      mul\n        /* \"#utility.yul\":9788:9885   */\n      tag_224\n        /* \"#utility.yul\":9818:9884   */\n      0xffffffffffffffffffffffffffffffffffffffffffffffffffffffffffffffff\n        /* \"#utility.yul\":9807:9816   */\n      dup3\n        /* \"#utility.yul\":9788:9885   */\n      tag_98\n      jump\t// in\n    tag_224:\n        /* \"#utility.yul\":9906:9945   */\n      tag_225\n        /* \"#utility.yul\":9936:9944   */\n      dup7\n        /* \"#utility.yul\":9925:9934   */\n      dup4\n        /* \"#utility.yul\":9906:9945   */\n      tag_98\n      jump\t// in\n    tag_225:\n        /* \"#utility.yul\":9894:9945   */\n      swap6\n      pop\n        /* \"#utility.yul\":9978:9982   */\n      dup1\n        /* \"#utility.yul\":9974:9983   */\n      not\n        /* \"#utility.yul\":9967:9972   */\n      dup5\n        /* \"#utility.yul\":9963:9984   */\n      and\n        /* \"#utility.yul\":9954:9984   */\n      swap4\n      pop\n        /* \"#utility.yul\":10027:10031   */\n      dup1\n        /* \"#utility.yul\":10017:10025   */\n      dup7\n        /* \"#utility.yul\":10013:10032   */\n      and\n        /* \"#utility.yul\":10006:10011   */\n      dup5\n        /* \"#utility.yul\":10003:10033   */\n      or\n        /* \"#utility.yul\":9993:10033   */\n      swap3\n      pop\n        /* \"#utility.yul\":9722:10039   */\n      pop\n      pop\n        /* \"#utility.yul\":9646:10039   */\n      swap4\n      swap3\n      pop\n      pop\n      pop\n      jump\t// out\n        /* \"#utility.yul\":10045:10105   */\n    tag_100:\n        /* \"#utility.yul\":10073:10076   */\n      0x00\n        /* \"#utility.yul\":10094:10099   */\n      dup2\n        /* \"#utility.yul\":10087:10099   */\n      swap1\n      pop\n        /* \"#utility.yul\":10045:10105   */\n      swap2\n      swap1\n      pop\n      jump\t// out\n        /* \"#utility.yul\":10111:10253   */\n    tag_101:\n        /* \"#utility.yul\":10161:10170   */\n      0x00\n        /* \"#utility.yul\":10194:10247   */\n      tag_228\n        /* \"#utility.yul\":10212:10246   */\n      tag_229\n        /* \"#utility.yul\":10221:10245   */\n      tag_230\n        /* \"#utility.yul\":10239:10244   */\n      dup5\n        /* \"#utility.yul\":10221:10245   */\n      tag_83\n      jump\t// in\n    tag_230:\n        /* \"#utility.yul\":10212:10246   */\n      tag_100\n      jump\t// in\n    tag_229:\n        /* \"#utility.yul\":10194:10247   */\n      tag_83\n      jump\t// in\n    tag_228:\n        /* \"#utility.yul\":10181:10247   */\n      swap1\n      pop\n        /* \"#utility.yul\":10111:10253   */\n      swap2\n      swap1\n      pop\n      jump\t// out\n        /* \"#utility.yul\":10259:10334   */\n    tag_102:\n        /* \"#utility.yul\":10302:10305   */\n      0x00\n        /* \"#utility.yul\":10323:10328   */\n      dup2\n        /* \"#utility.yul\":10316:10328   */\n      swap1\n      pop\n        /* \"#utility.yul\":10259:10334   */\n      swap2\n      swap1\n      pop\n      jump\t// out\n        /* \"#utility.yul\":10340:10609   */\n    tag_103:\n        /* \"#utility.yul\":10450:10489   */\n      tag_233\n        /* \"#utility.yul\":10481:10488   */\n      dup4\n        /* \"#utility.yul\":10450:10489   */\n      tag_101\n      jump\t// in\n    tag_233:\n        /* \"#utility.yul\":10511:10602   */\n      tag_234\n        /* \"#utility.yul\":10560:10601   */\n      tag_235\n        /* \"#utility.yul\":10584:10600   */\n      dup3\n        /* \"#utility.yul\":10560:10601   */\n      tag_102\n      jump\t// in\n    tag_235:\n        /* \"#utility.yul\":10552:10558   */\n      dup5\n        /* \"#utility.yul\":10545:10549   */\n      dup5\n        /* \"#utility.yul\":10539:10550   */\n      sload\n        /* \"#utility.yul\":10511:10602   */\n      tag_99\n      jump\t// in\n    tag_234:\n        /* \"#utility.yul\":10505:10509   */\n      dup3\n        /* \"#utility.yul\":10498:10603   */\n      sstore\n        /* \"#utility.yul\":10416:10609   */\n      pop\n        /* \"#utility.yul\":10340:10609   */\n      pop\n      pop\n      pop\n      jump\t// out\n        /* \"#utility.yul\":10615:10688   */\n    tag_104:\n        /* \"#utility.yul\":10660:10663   */\n      0x00\n        /* \"#utility.yul\":10615:10688   */\n      swap1\n      jump\t// out\n        /* \"#utility.yul\":10694:10883   */\n    tag_105:\n        /* \"#utility.yul\":10771:10803   */\n      tag_238\n      tag_104\n      jump\t// in\n    tag_238:\n        /* \"#utility.yul\":10812:10877   */\n      tag_239\n        /* \"#utility.yul\":10870:10876   */\n      dup2\n        /* \"#utility.yul\":10862:10868   */\n      dup5\n        /* \"#utility.yul\":10856:10860   */\n      dup5\n        /* \"#utility.yul\":10812:10877   */\n      tag_103\n      jump\t// in\n    tag_239:\n        /* \"#utility.yul\":10747:10883   */\n      pop\n        /* \"#utility.yul\":10694:10883   */\n      pop\n      pop\n      jump\t// out\n        /* \"#utility.yul\":10889:11075   */\n    tag_106:\n        /* \"#utility.yul\":10949:11069   */\n    tag_241:\n        /* \"#utility.yul\":10966:10969   */\n      dup2\n        /* \"#utility.yul\":10959:10964   */\n      dup2\n        /* \"#utility.yul\":10956:10970   */\n      lt\n        /* \"#utility.yul\":10949:11069   */\n      iszero\n      tag_243\n      jumpi\n        /* \"#utility.yul\":11020:11059   */\n      tag_244\n        /* \"#utility.yul\":11057:11058   */\n      0x00\n        /* \"#utility.yul\":11050:11055   */\n      dup3\n        /* \"#utility.yul\":11020:11059   */\n      tag_105\n      jump\t// in\n    tag_244:\n        /* \"#utility.yul\":10993:10994   */\n      0x01\n        /* \"#utility.yul\":10986:10991   */\n      dup2\n        /* \"#utility.yul\":10982:10995   */\n      add\n        /* \"#utility.yul\":10973:10995   */\n      swap1\n      pop\n        /* \"#utility.yul\":10949:11069   */\n      jump(tag_241)\n    tag_243:\n        /* \"#utility.yul\":10889:11075   */\n      pop\n      pop\n      jump\t// out\n        /* \"#utility.yul\":11081:11624   */\n    tag_107:\n        /* \"#utility.yul\":11182:11184   */\n      0x1f\n        /* \"#utility.yul\":11177:11180   */\n      dup3\n        /* \"#utility.yul\":11174:11185   */\n      gt\n        /* \"#utility.yul\":11171:11617   */\n      iszero\n      tag_246\n      jumpi\n        /* \"#utility.yul\":11216:11254   */\n      tag_247\n        /* \"#utility.yul\":11248:11253   */\n      dup2\n        /* \"#utility.yul\":11216:11254   */\n      tag_96\n      jump\t// in\n    tag_247:\n        /* \"#utility.yul\":11300:11329   */\n      tag_248\n        /* \"#utility.yul\":11318:11328   */\n      dup5\n        /* \"#utility.yul\":11300:11329   */\n      tag_97\n      jump\t// in\n    tag_248:\n        /* \"#utility.yul\":11290:11298   */\n      dup2\n        /* \"#utility.yul\":11286:11330   */\n      add\n        /* \"#utility.yul\":11483:11485   */\n      0x20\n        /* \"#utility.yul\":11471:11481   */\n      dup6\n        /* \"#utility.yul\":11468:11486   */\n      lt\n        /* \"#utility.yul\":11465:11514   */\n      iszero\n      tag_249\n      jumpi\n        /* \"#utility.yul\":11504:11512   */\n      dup2\n        /* \"#utility.yul\":11489:11512   */\n      swap1\n      pop\n        /* \"#utility.yul\":11465:11514   */\n    tag_249:\n        /* \"#utility.yul\":11527:11607   */\n      tag_250\n        /* \"#utility.yul\":11583:11605   */\n      tag_251\n        /* \"#utility.yul\":11601:11604   */\n      dup6\n        /* \"#utility.yul\":11583:11605   */\n      tag_97\n      jump\t// in\n    tag_251:\n        /* \"#utility.yul\":11573:11581   */\n      dup4\n        /* \"#utility.yul\":11569:11606   */\n      add\n        /* \"#utility.yul\":11556:11567   */\n      dup3\n        /* \"#utility.yul\":11527:11607   */\n      tag_106\n      jump\t// in\n    tag_250:\n        /* \"#utility.yul\":11186:11617   */\n      pop\n      pop\n        /* \"#utility.yul\":11171:11617   */\n    tag_246:\n        /* \"#utility.yul\":11081:11624   */\n      pop\n      pop\n      pop\n      jump\t// out\n        /* \"#utility.yul\":11630:11747   */\n    tag_108:\n        /* \"#utility.yul\":11684:11692   */\n      0x00\n        /* \"#utility.yul\":11734:11739   */\n      dup3\n        /* \"#utility.yul\":11728:11732   */\n      dup3\n        /* \"#utility.yul\":11724:11740   */\n      shr\n        /* \"#utility.yul\":11703:11740   */\n      swap1\n      pop\n        /* \"#utility.yul\":11630:11747   */\n      swap3\n      swap2\n      pop\n      pop\n      jump\t// out\n        /* \"#utility.yul\":11753:11922   */\n    tag_109:\n        /* \"#utility.yul\":11797:11803   */\n      0x00\n        /* \"#utility.yul\":11830:11881   */\n      tag_254\n        /* \"#utility.yul\":11878:11879   */\n      0x00\n        /* \"#utility.yul\":11874:11880   */\n      not\n        /* \"#utility.yul\":11866:11871   */\n      dup5\n        /* \"#utility.yul\":11863:11864   */\n      0x08\n        /* \"#utility.yul\":11859:11872   */\n      mul\n        /* \"#utility.yul\":11830:11881   */\n      tag_108\n      jump\t// in\n    tag_254:\n        /* \"#utility.yul\":11826:11882   */\n      not\n        /* \"#utility.yul\":11911:11915   */\n      dup1\n        /* \"#utility.yul\":11905:11909   */\n      dup4\n        /* \"#utility.yul\":11901:11916   */\n      and\n        /* \"#utility.yul\":11891:11916   */\n      swap2\n      pop\n        /* \"#utility.yul\":11804:11922   */\n      pop\n        /* \"#utility.yul\":11753:11922   */\n      swap3\n      swap2\n      pop\n      pop\n      jump\t// out\n        /* \"#utility.yul\":11927:12222   */\n    tag_110:\n        /* \"#utility.yul\":12003:12007   */\n      0x00\n        /* \"#utility.yul\":12149:12178   */\n      tag_256\n        /* \"#utility.yul\":12174:12177   */\n      dup4\n        /* \"#utility.yul\":12168:12172   */\n      dup4\n        /* \"#utility.yul\":12149:12178   */\n      tag_109\n      jump\t// in\n    tag_256:\n        /* \"#utility.yul\":12141:12178   */\n      swap2\n      pop\n        /* \"#utility.yul\":12211:12214   */\n      dup3\n        /* \"#utility.yul\":12208:12209   */\n      0x02\n        /* \"#utility.yul\":12204:12215   */\n      mul\n        /* \"#utility.yul\":12198:12202   */\n      dup3\n        /* \"#utility.yul\":12195:12216   */\n      or\n        /* \"#utility.yul\":12187:12216   */\n      swap1\n      pop\n        /* \"#utility.yul\":11927:12222   */\n      swap3\n      swap2\n      pop\n      pop\n      jump\t// out\n        /* \"#utility.yul\":12227:13622   */\n    tag_33:\n        /* \"#utility.yul\":12344:12381   */\n      tag_258\n        /* \"#utility.yul\":12377:12380   */\n      dup3\n        /* \"#utility.yul\":12344:12381   */\n      tag_85\n      jump\t// in\n    tag_258:\n        /* \"#utility.yul\":12446:12464   */\n      0xffffffffffffffff\n        /* \"#utility.yul\":12438:12444   */\n      dup2\n        /* \"#utility.yul\":12435:12465   */\n      gt\n        /* \"#utility.yul\":12432:12488   */\n      iszero\n      tag_259\n      jumpi\n        /* \"#utility.yul\":12468:12486   */\n      tag_260\n      tag_70\n      jump\t// in\n    tag_260:\n        /* \"#utility.yul\":12432:12488   */\n    tag_259:\n        /* \"#utility.yul\":12512:12550   */\n      tag_261\n        /* \"#utility.yul\":12544:12548   */\n      dup3\n        /* \"#utility.yul\":12538:12549   */\n      sload\n        /* \"#utility.yul\":12512:12550   */\n      tag_59\n      jump\t// in\n    tag_261:\n        /* \"#utility.yul\":12597:12664   */\n      tag_262\n        /* \"#utility.yul\":12657:12663   */\n      dup3\n        /* \"#utility.yul\":12649:12655   */\n      dup3\n        /* \"#utility.yul\":12643:12647   */\n      dup6\n        /* \"#utility.yul\":12597:12664   */\n      tag_107\n      jump\t// in\n    tag_262:\n        /* \"#utility.yul\":12691:12692   */\n      0x00\n        /* \"#utility.yul\":12715:12719   */\n      0x20\n        /* \"#utility.yul\":12702:12719   */\n      swap1\n      pop\n        /* \"#utility.yul\":12747:12749   */\n      0x1f\n        /* \"#utility.yul\":12739:12745   */\n      dup4\n        /* \"#utility.yul\":12736:12750   */\n      gt\n        /* \"#utility.yul\":12764:12765   */\n      0x01\n        /* \"#utility.yul\":12759:13377   */\n      dup2\n      eq\n      tag_264\n      jumpi\n        /* \"#utility.yul\":13421:13422   */\n      0x00\n        /* \"#utility.yul\":13438:13444   */\n      dup5\n        /* \"#utility.yul\":13435:13512   */\n      iszero\n      tag_265\n      jumpi\n        /* \"#utility.yul\":13487:13496   */\n      dup3\n        /* \"#utility.yul\":13482:13485   */\n      dup8\n        /* \"#utility.yul\":13478:13497   */\n      add\n        /* \"#utility.yul\":13472:13498   */\n      mload\n        /* \"#utility.yul\":13463:13498   */\n      swap1\n      pop\n        /* \"#utility.yul\":13435:13512   */\n    tag_265:\n        /* \"#utility.yul\":13538:13605   */\n      tag_266\n        /* \"#utility.yul\":13598:13604   */\n      dup6\n        /* \"#utility.yul\":13591:13596   */\n      dup3\n        /* \"#utility.yul\":13538:13605   */\n      tag_110\n      jump\t// in\n    tag_266:\n        /* \"#utility.yul\":13532:13536   */\n      dup7\n        /* \"#utility.yul\":13525:13606   */\n      sstore\n        /* \"#utility.yul\":13394:13616   */\n      pop\n        /* \"#utility.yul\":12729:13616   */\n      jump(tag_263)\n        /* \"#utility.yul\":12759:13377   */\n    tag_264:\n        /* \"#utility.yul\":12811:12815   */\n      0x1f\n        /* \"#utility.yul\":12807:12816   */\n      not\n        /* \"#utility.yul\":12799:12805   */\n      dup5\n        /* \"#utility.yul\":12795:12817   */\n      and\n        /* \"#utility.yul\":12845:12882   */\n      tag_267\n        /* \"#utility.yul\":12877:12881   */\n      dup7\n        /* \"#utility.yul\":12845:12882   */\n      tag_96\n      jump\t// in\n    tag_267:\n        /* \"#utility.yul\":12904:12905   */\n      0x00\n        /* \"#utility.yul\":12918:13126   */\n    tag_268:\n        /* \"#utility.yul\":12932:12939   */\n      dup3\n        /* \"#utility.yul\":12929:12930   */\n      dup2\n        /* \"#utility.yul\":12926:12940   */\n      lt\n        /* \"#utility.yul\":12918:13126   */\n      iszero\n      tag_270\n      jumpi\n        /* \"#utility.yul\":13011:13020   */\n      dup5\n        /* \"#utility.yul\":13006:13009   */\n      dup10\n        /* \"#utility.yul\":13002:13021   */\n      add\n        /* \"#utility.yul\":12996:13022   */\n      mload\n        /* \"#utility.yul\":12988:12994   */\n      dup3\n        /* \"#utility.yul\":12981:13023   */\n      sstore\n        /* \"#utility.yul\":13062:13063   */\n      0x01\n        /* \"#utility.yul\":13054:13060   */\n      dup3\n        /* \"#utility.yul\":13050:13064   */\n      add\n        /* \"#utility.yul\":13040:13064   */\n      swap2\n      pop\n        /* \"#utility.yul\":13109:13111   */\n      0x20\n        /* \"#utility.yul\":13098:13107   */\n      dup6\n        /* \"#utility.yul\":13094:13112   */\n      add\n        /* \"#utility.yul\":13081:13112   */\n      swap5\n      pop\n        /* \"#utility.yul\":12955:12959   */\n      0x20\n        /* \"#utility.yul\":12952:12953   */\n      dup2\n        /* \"#utility.yul\":12948:12960   */\n      add\n        /* \"#utility.yul\":12943:12960   */\n      swap1\n      pop\n        /* \"#utility.yul\":12918:13126   */\n      jump(tag_268)\n    tag_270:\n        /* \"#utility.yul\":13154:13160   */\n      dup7\n        /* \"#utility.yul\":13145:13152   */\n      dup4\n        /* \"#utility.yul\":13142:13161   */\n      lt\n        /* \"#utility.yul\":13139:13318   */\n      iszero\n      tag_271\n      jumpi\n        /* \"#utility.yul\":13212:13221   */\n      dup5\n        /* \"#utility.yul\":13207:13210   */\n      dup10\n        /* \"#utility.yul\":13203:13222   */\n      add\n        /* \"#utility.yul\":13197:13223   */\n      mload\n        /* \"#utility.yul\":13255:13303   */\n      tag_272\n        /* \"#utility.yul\":13297:13301   */\n      0x1f\n        /* \"#utility.yul\":13289:13295   */\n      dup10\n        /* \"#utility.yul\":13285:13302   */\n      and\n        /* \"#utility.yul\":13274:13283   */\n      dup3\n        /* \"#utility.yul\":13255:13303   */\n      tag_109\n      jump\t// in\n    tag_272:\n        /* \"#utility.yul\":13247:13253   */\n      dup4\n        /* \"#utility.yul\":13240:13304   */\n      sstore\n        /* \"#utility.yul\":13162:13318   */\n      pop\n        /* \"#utility.yul\":13139:13318   */\n    tag_271:\n        /* \"#utility.yul\":13364:13365   */\n      0x01\n        /* \"#utility.yul\":13360:13361   */\n      0x02\n        /* \"#utility.yul\":13352:13358   */\n      dup9\n        /* \"#utility.yul\":13348:13362   */\n      mul\n        /* \"#utility.yul\":13344:13366   */\n      add\n        /* \"#utility.yul\":13338:13342   */\n      dup9\n        /* \"#utility.yul\":13331:13367   */\n      sstore\n        /* \"#utility.yul\":12766:13377   */\n      pop\n      pop\n      pop\n        /* \"#utility.yul\":12729:13616   */\n    tag_263:\n      pop\n        /* \"#utility.yul\":12319:13622   */\n      pop\n      pop\n      pop\n        /* \"#utility.yul\":12227:13622   */\n      pop\n      pop\n      jump\t// out\n        /* \"#utility.yul\":13628:13796   */\n    tag_111:\n        /* \"#utility.yul\":13768:13788   */\n      0x416c726561647920616374697661746564210000000000000000000000000000\n        /* \"#utility.yul\":13764:13765   */\n      0x00\n        /* \"#utility.yul\":13756:13762   */\n      dup3\n        /* \"#utility.yul\":13752:13766   */\n      add\n        /* \"#utility.yul\":13745:13789   */\n      mstore\n        /* \"#utility.yul\":13628:13796   */\n      pop\n      jump\t// out\n        /* \"#utility.yul\":13802:14168   */\n    tag_112:\n        /* \"#utility.yul\":13944:13947   */\n      0x00\n        /* \"#utility.yul\":13965:14032   */\n      tag_275\n        /* \"#utility.yul\":14029:14031   */\n      0x12\n        /* \"#utility.yul\":14024:14027   */\n      dup4\n        /* \"#utility.yul\":13965:14032   */\n      tag_86\n      jump\t// in\n    tag_275:\n        /* \"#utility.yul\":13958:14032   */\n      swap2\n      pop\n        /* \"#utility.yul\":14041:14134   */\n      tag_276\n        /* \"#utility.yul\":14130:14133   */\n      dup3\n        /* \"#utility.yul\":14041:14134   */\n      tag_111\n      jump\t// in\n    tag_276:\n        /* \"#utility.yul\":14159:14161   */\n      0x20\n        /* \"#utility.yul\":14154:14157   */\n      dup3\n        /* \"#utility.yul\":14150:14162   */\n      add\n        /* \"#utility.yul\":14143:14162   */\n      swap1\n      pop\n        /* \"#utility.yul\":13802:14168   */\n      swap2\n      swap1\n      pop\n      jump\t// out\n        /* \"#utility.yul\":14174:14593   */\n    tag_40:\n        /* \"#utility.yul\":14340:14344   */\n      0x00\n        /* \"#utility.yul\":14378:14380   */\n      0x20\n        /* \"#utility.yul\":14367:14376   */\n      dup3\n        /* \"#utility.yul\":14363:14381   */\n      add\n        /* \"#utility.yul\":14355:14381   */\n      swap1\n      pop\n        /* \"#utility.yul\":14427:14436   */\n      dup2\n        /* \"#utility.yul\":14421:14425   */\n      dup2\n        /* \"#utility.yul\":14417:14437   */\n      sub\n        /* \"#utility.yul\":14413:14414   */\n      0x00\n        /* \"#utility.yul\":14402:14411   */\n      dup4\n        /* \"#utility.yul\":14398:14415   */\n      add\n        /* \"#utility.yul\":14391:14438   */\n      mstore\n        /* \"#utility.yul\":14455:14586   */\n      tag_278\n        /* \"#utility.yul\":14581:14585   */\n      dup2\n        /* \"#utility.yul\":14455:14586   */\n      tag_112\n      jump\t// in\n    tag_278:\n        /* \"#utility.yul\":14447:14586   */\n      swap1\n      pop\n        /* \"#utility.yul\":14174:14593   */\n      swap2\n      swap1\n      pop\n      jump\t// out\n        /* \"#utility.yul\":14599:14769   */\n    tag_113:\n        /* \"#utility.yul\":14739:14761   */\n      0x416c726561647920646561637469766174656421000000000000000000000000\n        /* \"#utility.yul\":14735:14736   */\n      0x00\n        /* \"#utility.yul\":14727:14733   */\n      dup3\n        /* \"#utility.yul\":14723:14737   */\n      add\n        /* \"#utility.yul\":14716:14762   */\n      mstore\n        /* \"#utility.yul\":14599:14769   */\n      pop\n      jump\t// out\n        /* \"#utility.yul\":14775:15141   */\n    tag_114:\n        /* \"#utility.yul\":14917:14920   */\n      0x00\n        /* \"#utility.yul\":14938:15005   */\n      tag_281\n        /* \"#utility.yul\":15002:15004   */\n      0x14\n        /* \"#utility.yul\":14997:15000   */\n      dup4\n        /* \"#utility.yul\":14938:15005   */\n      tag_86\n      jump\t// in\n    tag_281:\n        /* \"#utility.yul\":14931:15005   */\n      swap2\n      pop\n        /* \"#utility.yul\":15014:15107   */\n      tag_282\n        /* \"#utility.yul\":15103:15106   */\n      dup3\n        /* \"#utility.yul\":15014:15107   */\n      tag_113\n      jump\t// in\n    tag_282:\n        /* \"#utility.yul\":15132:15134   */\n      0x20\n        /* \"#utility.yul\":15127:15130   */\n      dup3\n        /* \"#utility.yul\":15123:15135   */\n      add\n        /* \"#utility.yul\":15116:15135   */\n      swap1\n      pop\n        /* \"#utility.yul\":14775:15141   */\n      swap2\n      swap1\n      pop\n      jump\t// out\n        /* \"#utility.yul\":15147:15566   */\n    tag_47:\n        /* \"#utility.yul\":15313:15317   */\n      0x00\n        /* \"#utility.yul\":15351:15353   */\n      0x20\n        /* \"#utility.yul\":15340:15349   */\n      dup3\n        /* \"#utility.yul\":15336:15354   */\n      add\n        /* \"#utility.yul\":15328:15354   */\n      swap1\n      pop\n        /* \"#utility.yul\":15400:15409   */\n      dup2\n        /* \"#utility.yul\":15394:15398   */\n      dup2\n        /* \"#utility.yul\":15390:15410   */\n      sub\n        /* \"#utility.yul\":15386:15387   */\n      0x00\n        /* \"#utility.yul\":15375:15384   */\n      dup4\n        /* \"#utility.yul\":15371:15388   */\n      add\n        /* \"#utility.yul\":15364:15411   */\n      mstore\n        /* \"#utility.yul\":15428:15559   */\n      tag_284\n        /* \"#utility.yul\":15554:15558   */\n      dup2\n        /* \"#utility.yul\":15428:15559   */\n      tag_114\n      jump\t// in\n    tag_284:\n        /* \"#utility.yul\":15420:15559   */\n      swap1\n      pop\n        /* \"#utility.yul\":15147:15566   */\n      swap2\n      swap1\n      pop\n      jump\t// out\n        /* \"#utility.yul\":15572:15677   */\n    tag_115:\n        /* \"#utility.yul\":15608:15615   */\n      0x00\n        /* \"#utility.yul\":15648:15670   */\n      0xffffffffffffffffffff\n        /* \"#utility.yul\":15641:15646   */\n      dup3\n        /* \"#utility.yul\":15637:15671   */\n      and\n        /* \"#utility.yul\":15626:15671   */\n      swap1\n      pop\n        /* \"#utility.yul\":15572:15677   */\n      swap2\n      swap1\n      pop\n      jump\t// out\n        /* \"#utility.yul\":15683:15803   */\n    tag_116:\n        /* \"#utility.yul\":15755:15778   */\n      tag_287\n        /* \"#utility.yul\":15772:15777   */\n      dup2\n        /* \"#utility.yul\":15755:15778   */\n      tag_115\n      jump\t// in\n    tag_287:\n        /* \"#utility.yul\":15748:15753   */\n      dup2\n        /* \"#utility.yul\":15745:15779   */\n      eq\n        /* \"#utility.yul\":15735:15797   */\n      tag_288\n      jumpi\n        /* \"#utility.yul\":15793:15794   */\n      0x00\n        /* \"#utility.yul\":15790:15791   */\n      dup1\n        /* \"#utility.yul\":15783:15795   */\n      revert\n        /* \"#utility.yul\":15735:15797   */\n    tag_288:\n        /* \"#utility.yul\":15683:15803   */\n      pop\n      jump\t// out\n        /* \"#utility.yul\":15809:15950   */\n    tag_117:\n        /* \"#utility.yul\":15865:15870   */\n      0x00\n        /* \"#utility.yul\":15896:15902   */\n      dup2\n        /* \"#utility.yul\":15890:15903   */\n      mload\n        /* \"#utility.yul\":15881:15903   */\n      swap1\n      pop\n        /* \"#utility.yul\":15912:15944   */\n      tag_290\n        /* \"#utility.yul\":15938:15943   */\n      dup2\n        /* \"#utility.yul\":15912:15944   */\n      tag_116\n      jump\t// in\n    tag_290:\n        /* \"#utility.yul\":15809:15950   */\n      swap3\n      swap2\n      pop\n      pop\n      jump\t// out\n        /* \"#utility.yul\":15956:16076   */\n    tag_118:\n        /* \"#utility.yul\":16028:16051   */\n      tag_292\n        /* \"#utility.yul\":16045:16050   */\n      dup2\n        /* \"#utility.yul\":16028:16051   */\n      tag_81\n      jump\t// in\n    tag_292:\n        /* \"#utility.yul\":16021:16026   */\n      dup2\n        /* \"#utility.yul\":16018:16052   */\n      eq\n        /* \"#utility.yul\":16008:16070   */\n      tag_293\n      jumpi\n        /* \"#utility.yul\":16066:16067   */\n      0x00\n        /* \"#utility.yul\":16063:16064   */\n      dup1\n        /* \"#utility.yul\":16056:16068   */\n      revert\n        /* \"#utility.yul\":16008:16070   */\n    tag_293:\n        /* \"#utility.yul\":15956:16076   */\n      pop\n      jump\t// out\n        /* \"#utility.yul\":16082:16223   */\n    tag_119:\n        /* \"#utility.yul\":16138:16143   */\n      0x00\n        /* \"#utility.yul\":16169:16175   */\n      dup2\n        /* \"#utility.yul\":16163:16176   */\n      mload\n        /* \"#utility.yul\":16154:16176   */\n      swap1\n      pop\n        /* \"#utility.yul\":16185:16217   */\n      tag_295\n        /* \"#utility.yul\":16211:16216   */\n      dup2\n        /* \"#utility.yul\":16185:16217   */\n      tag_118\n      jump\t// in\n    tag_295:\n        /* \"#utility.yul\":16082:16223   */\n      swap3\n      swap2\n      pop\n      pop\n      jump\t// out\n        /* \"#utility.yul\":16229:16351   */\n    tag_120:\n        /* \"#utility.yul\":16302:16326   */\n      tag_297\n        /* \"#utility.yul\":16320:16325   */\n      dup2\n        /* \"#utility.yul\":16302:16326   */\n      tag_83\n      jump\t// in\n    tag_297:\n        /* \"#utility.yul\":16295:16300   */\n      dup2\n        /* \"#utility.yul\":16292:16327   */\n      eq\n        /* \"#utility.yul\":16282:16345   */\n      tag_298\n      jumpi\n        /* \"#utility.yul\":16341:16342   */\n      0x00\n        /* \"#utility.yul\":16338:16339   */\n      dup1\n        /* \"#utility.yul\":16331:16343   */\n      revert\n        /* \"#utility.yul\":16282:16345   */\n    tag_298:\n        /* \"#utility.yul\":16229:16351   */\n      pop\n      jump\t// out\n        /* \"#utility.yul\":16357:16500   */\n    tag_121:\n        /* \"#utility.yul\":16414:16419   */\n      0x00\n        /* \"#utility.yul\":16445:16451   */\n      dup2\n        /* \"#utility.yul\":16439:16452   */\n      mload\n        /* \"#utility.yul\":16430:16452   */\n      swap1\n      pop\n        /* \"#utility.yul\":16461:16494   */\n      tag_300\n        /* \"#utility.yul\":16488:16493   */\n      dup2\n        /* \"#utility.yul\":16461:16494   */\n      tag_120\n      jump\t// in\n    tag_300:\n        /* \"#utility.yul\":16357:16500   */\n      swap3\n      swap2\n      pop\n      pop\n      jump\t// out\n        /* \"#utility.yul\":16506:17477   */\n    tag_53:\n        /* \"#utility.yul\":16609:16615   */\n      0x00\n        /* \"#utility.yul\":16617:16623   */\n      dup1\n        /* \"#utility.yul\":16625:16631   */\n      0x00\n        /* \"#utility.yul\":16633:16639   */\n      dup1\n        /* \"#utility.yul\":16641:16647   */\n      0x00\n        /* \"#utility.yul\":16690:16693   */\n      0xa0\n        /* \"#utility.yul\":16678:16687   */\n      dup7\n        /* \"#utility.yul\":16669:16676   */\n      dup9\n        /* \"#utility.yul\":16665:16688   */\n      sub\n        /* \"#utility.yul\":16661:16694   */\n      slt\n        /* \"#utility.yul\":16658:16778   */\n      iszero\n      tag_302\n      jumpi\n        /* \"#utility.yul\":16697:16776   */\n      tag_303\n      tag_65\n      jump\t// in\n    tag_303:\n        /* \"#utility.yul\":16658:16778   */\n    tag_302:\n        /* \"#utility.yul\":16817:16818   */\n      0x00\n        /* \"#utility.yul\":16842:16905   */\n      tag_304\n        /* \"#utility.yul\":16897:16904   */\n      dup9\n        /* \"#utility.yul\":16888:16894   */\n      dup3\n        /* \"#utility.yul\":16877:16886   */\n      dup10\n        /* \"#utility.yul\":16873:16895   */\n      add\n        /* \"#utility.yul\":16842:16905   */\n      tag_117\n      jump\t// in\n    tag_304:\n        /* \"#utility.yul\":16832:16905   */\n      swap6\n      pop\n        /* \"#utility.yul\":16788:16915   */\n      pop\n        /* \"#utility.yul\":16954:16956   */\n      0x20\n        /* \"#utility.yul\":16980:17043   */\n      tag_305\n        /* \"#utility.yul\":17035:17042   */\n      dup9\n        /* \"#utility.yul\":17026:17032   */\n      dup3\n        /* \"#utility.yul\":17015:17024   */\n      dup10\n        /* \"#utility.yul\":17011:17033   */\n      add\n        /* \"#utility.yul\":16980:17043   */\n      tag_119\n      jump\t// in\n    tag_305:\n        /* \"#utility.yul\":16970:17043   */\n      swap5\n      pop\n        /* \"#utility.yul\":16925:17053   */\n      pop\n        /* \"#utility.yul\":17092:17094   */\n      0x40\n        /* \"#utility.yul\":17118:17182   */\n      tag_306\n        /* \"#utility.yul\":17174:17181   */\n      dup9\n        /* \"#utility.yul\":17165:17171   */\n      dup3\n        /* \"#utility.yul\":17154:17163   */\n      dup10\n        /* \"#utility.yul\":17150:17172   */\n      add\n        /* \"#utility.yul\":17118:17182   */\n      tag_121\n      jump\t// in\n    tag_306:\n        /* \"#utility.yul\":17108:17182   */\n      swap4\n      pop\n        /* \"#utility.yul\":17063:17192   */\n      pop\n        /* \"#utility.yul\":17231:17233   */\n      0x60\n        /* \"#utility.yul\":17257:17321   */\n      tag_307\n        /* \"#utility.yul\":17313:17320   */\n      dup9\n        /* \"#utility.yul\":17304:17310   */\n      dup3\n        /* \"#utility.yul\":17293:17302   */\n      dup10\n        /* \"#utility.yul\":17289:17311   */\n      add\n        /* \"#utility.yul\":17257:17321   */\n      tag_121\n      jump\t// in\n    tag_307:\n        /* \"#utility.yul\":17247:17321   */\n      swap3\n      pop\n        /* \"#utility.yul\":17202:17331   */\n      pop\n        /* \"#utility.yul\":17370:17373   */\n      0x80\n        /* \"#utility.yul\":17397:17460   */\n      tag_308\n        /* \"#utility.yul\":17452:17459   */\n      dup9\n        /* \"#utility.yul\":17443:17449   */\n      dup3\n        /* \"#utility.yul\":17432:17441   */\n      dup10\n        /* \"#utility.yul\":17428:17450   */\n      add\n        /* \"#utility.yul\":17397:17460   */\n      tag_117\n      jump\t// in\n    tag_308:\n        /* \"#utility.yul\":17387:17460   */\n      swap2\n      pop\n        /* \"#utility.yul\":17341:17470   */\n      pop\n        /* \"#utility.yul\":16506:17477   */\n      swap3\n      swap6\n      pop\n      swap3\n      swap6\n      swap1\n      swap4\n      pop\n      jump\t// out\n        /* \"#utility.yul\":17483:17569   */\n    tag_122:\n        /* \"#utility.yul\":17518:17525   */\n      0x00\n        /* \"#utility.yul\":17558:17562   */\n      0xff\n        /* \"#utility.yul\":17551:17556   */\n      dup3\n        /* \"#utility.yul\":17547:17563   */\n      and\n        /* \"#utility.yul\":17536:17563   */\n      swap1\n      pop\n        /* \"#utility.yul\":17483:17569   */\n      swap2\n      swap1\n      pop\n      jump\t// out\n        /* \"#utility.yul\":17575:17693   */\n    tag_123:\n        /* \"#utility.yul\":17646:17668   */\n      tag_311\n        /* \"#utility.yul\":17662:17667   */\n      dup2\n        /* \"#utility.yul\":17646:17668   */\n      tag_122\n      jump\t// in\n    tag_311:\n        /* \"#utility.yul\":17639:17644   */\n      dup2\n        /* \"#utility.yul\":17636:17669   */\n      eq\n        /* \"#utility.yul\":17626:17687   */\n      tag_312\n      jumpi\n        /* \"#utility.yul\":17683:17684   */\n      0x00\n        /* \"#utility.yul\":17680:17681   */\n      dup1\n        /* \"#utility.yul\":17673:17685   */\n      revert\n        /* \"#utility.yul\":17626:17687   */\n    tag_312:\n        /* \"#utility.yul\":17575:17693   */\n      pop\n      jump\t// out\n        /* \"#utility.yul\":17699:17838   */\n    tag_124:\n        /* \"#utility.yul\":17754:17759   */\n      0x00\n        /* \"#utility.yul\":17785:17791   */\n      dup2\n        /* \"#utility.yul\":17779:17792   */\n      mload\n        /* \"#utility.yul\":17770:17792   */\n      swap1\n      pop\n        /* \"#utility.yul\":17801:17832   */\n      tag_314\n        /* \"#utility.yul\":17826:17831   */\n      dup2\n        /* \"#utility.yul\":17801:17832   */\n      tag_123\n      jump\t// in\n    tag_314:\n        /* \"#utility.yul\":17699:17838   */\n      swap3\n      swap2\n      pop\n      pop\n      jump\t// out\n        /* \"#utility.yul\":17844:18191   */\n    tag_57:\n        /* \"#utility.yul\":17912:17918   */\n      0x00\n        /* \"#utility.yul\":17961:17963   */\n      0x20\n        /* \"#utility.yul\":17949:17958   */\n      dup3\n        /* \"#utility.yul\":17940:17947   */\n      dup5\n        /* \"#utility.yul\":17936:17959   */\n      sub\n        /* \"#utility.yul\":17932:17964   */\n      slt\n        /* \"#utility.yul\":17929:18048   */\n      iszero\n      tag_316\n      jumpi\n        /* \"#utility.yul\":17967:18046   */\n      tag_317\n      tag_65\n      jump\t// in\n    tag_317:\n        /* \"#utility.yul\":17929:18048   */\n    tag_316:\n        /* \"#utility.yul\":18087:18088   */\n      0x00\n        /* \"#utility.yul\":18112:18174   */\n      tag_318\n        /* \"#utility.yul\":18166:18173   */\n      dup5\n        /* \"#utility.yul\":18157:18163   */\n      dup3\n        /* \"#utility.yul\":18146:18155   */\n      dup6\n        /* \"#utility.yul\":18142:18164   */\n      add\n        /* \"#utility.yul\":18112:18174   */\n      tag_124\n      jump\t// in\n    tag_318:\n        /* \"#utility.yul\":18102:18174   */\n      swap2\n      pop\n        /* \"#utility.yul\":18058:18184   */\n      pop\n        /* \"#utility.yul\":17844:18191   */\n      swap3\n      swap2\n      pop\n      pop\n      jump\t// out\n\n    auxdata: 0xa2646970667358221220a019d32525961e19302788b81332624722f93f4ad30bfb0375ff7bae8f74e45364736f6c63430008170033\n}\n",
				"bytecode": {
					"linkReferences": {},
					"object": "60a06040526001600260006101000a81548160ff0219169083151502179055503480156200002c57600080fd5b50604051620017fd380380620017fd833981810160405281019062000052919062000336565b600073ffffffffffffffffffffffffffffffffffffffff168173ffffffffffffffffffffffffffffffffffffffff16036200008c57600080fd5b806000806101000a81548173ffffffffffffffffffffffffffffffffffffffff021916908373ffffffffffffffffffffffffffffffffffffffff1602179055508282604051602001620000e192919062000443565b60405160208183030381529060405260019081620001009190620006bc565b503373ffffffffffffffffffffffffffffffffffffffff1660808173ffffffffffffffffffffffffffffffffffffffff1681525050505050620007a3565b6000604051905090565b600080fd5b600080fd5b600080fd5b600080fd5b6000601f19601f8301169050919050565b7f4e487b7100000000000000000000000000000000000000000000000000000000600052604160045260246000fd5b620001a7826200015c565b810181811067ffffffffffffffff82111715620001c957620001c86200016d565b5b80604052505050565b6000620001de6200013e565b9050620001ec82826200019c565b919050565b600067ffffffffffffffff8211156200020f576200020e6200016d565b5b6200021a826200015c565b9050602081019050919050565b60005b83811015620002475780820151818401526020810190506200022a565b60008484015250505050565b60006200026a6200026484620001f1565b620001d2565b90508281526020810184848401111562000289576200028862000157565b5b6200029684828562000227565b509392505050565b600082601f830112620002b657620002b562000152565b5b8151620002c884826020860162000253565b91505092915050565b600073ffffffffffffffffffffffffffffffffffffffff82169050919050565b6000620002fe82620002d1565b9050919050565b6200031081620002f1565b81146200031c57600080fd5b50565b600081519050620003308162000305565b92915050565b60008060006060848603121562000352576200035162000148565b5b600084015167ffffffffffffffff8111156200037357620003726200014d565b5b62000381868287016200029e565b935050602084015167ffffffffffffffff811115620003a557620003a46200014d565b5b620003b3868287016200029e565b9250506040620003c6868287016200031f565b9150509250925092565b600081519050919050565b600081905092915050565b6000620003f382620003d0565b620003ff8185620003db565b93506200041181856020860162000227565b80840191505092915050565b7f2f00000000000000000000000000000000000000000000000000000000000000815250565b6000620004518285620003e6565b91506200045e826200041d565b600182019150620004708284620003e6565b91508190509392505050565b7f4e487b7100000000000000000000000000000000000000000000000000000000600052602260045260246000fd5b60006002820490506001821680620004c457607f821691505b602082108103620004da57620004d96200047c565b5b50919050565b60008190508160005260206000209050919050565b60006020601f8301049050919050565b600082821b905092915050565b600060088302620005447fffffffffffffffffffffffffffffffffffffffffffffffffffffffffffffffff8262000505565b62000550868362000505565b95508019841693508086168417925050509392505050565b6000819050919050565b6000819050919050565b60006200059d62000597620005918462000568565b62000572565b62000568565b9050919050565b6000819050919050565b620005b9836200057c565b620005d1620005c882620005a4565b84845462000512565b825550505050565b600090565b620005e8620005d9565b620005f5818484620005ae565b505050565b5b818110156200061d5762000611600082620005de565b600181019050620005fb565b5050565b601f8211156200066c576200063681620004e0565b6200064184620004f5565b8101602085101562000651578190505b620006696200066085620004f5565b830182620005fa565b50505b505050565b600082821c905092915050565b6000620006916000198460080262000671565b1980831691505092915050565b6000620006ac83836200067e565b9150826002028217905092915050565b620006c782620003d0565b67ffffffffffffffff811115620006e357620006e26200016d565b5b620006ef8254620004ab565b620006fc82828562000621565b600060209050601f8311600181146200073457600084156200071f578287015190505b6200072b85826200069e565b8655506200079b565b601f1984166200074486620004e0565b60005b828110156200076e5784890151825560018201915060208501945060208101905062000747565b868310156200078e57848901516200078a601f8916826200067e565b8355505b6001600288020188555050505b505050505050565b60805161102a620007d36000396000818160cd0152818161020a015281816103050152610636015261102a6000f3fe608060405234801561001057600080fd5b50600436106100575760003560e01c8063082c44841461005c5780630f15f4c01461007857806351b42b0014610082578063e1e7ff771461008c578063f851a440146100ad575b600080fd5b61007660048036038101906100719190610810565b6100cb565b005b610080610208565b005b61008a610303565b005b6100946103fd565b6040516100a4949392919061094c565b60405180910390f35b6100b5610634565b6040516100c291906109a7565b60405180910390f35b7f000000000000000000000000000000000000000000000000000000000000000073ffffffffffffffffffffffffffffffffffffffff163373ffffffffffffffffffffffffffffffffffffffff1614610159576040517f08c379a000000000000000000000000000000000000000000000000000000000815260040161015090610a0e565b60405180910390fd5b600073ffffffffffffffffffffffffffffffffffffffff168173ffffffffffffffffffffffffffffffffffffffff160361019257600080fd5b806000806101000a81548173ffffffffffffffffffffffffffffffffffffffff021916908373ffffffffffffffffffffffffffffffffffffffff16021790555082826040516020016101e5929190610a90565b604051602081830303815290604052600190816102029190610ccf565b50505050565b7f000000000000000000000000000000000000000000000000000000000000000073ffffffffffffffffffffffffffffffffffffffff163373ffffffffffffffffffffffffffffffffffffffff1614610296576040517f08c379a000000000000000000000000000000000000000000000000000000000815260040161028d90610a0e565b60405180910390fd5b600260009054906101000a900460ff16156102e6576040517f08c379a00000000000000000000000000000000000000000000000000000000081526004016102dd90610ded565b60405180910390fd5b6000600260006101000a81548160ff021916908315150217905550565b7f000000000000000000000000000000000000000000000000000000000000000073ffffffffffffffffffffffffffffffffffffffff163373ffffffffffffffffffffffffffffffffffffffff1614610391576040517f08c379a000000000000000000000000000000000000000000000000000000000815260040161038890610a0e565b60405180910390fd5b600260009054906101000a900460ff166103e0576040517f08c379a00000000000000000000000000000000000000000000000000000000081526004016103d790610e59565b60405180910390fd5b6001600260006101000a81548160ff021916908315150217905550565b60008060606000600260009054906101000a900460ff166104615760008060006040518060400160405280600b81526020017f4e6f74206163746976652100000000000000000000000000000000000000000081525090935093509350935061062e565b60008060008054906101000a900473ffffffffffffffffffffffffffffffffffffffff1673ffffffffffffffffffffffffffffffffffffffff1663feaf968c6040518163ffffffff1660e01b815260040160a060405180830381865afa1580156104cf573d6000803e3d6000fd5b505050506040513d601f19601f820116820180604052508101906104f39190610f13565b5093505092505060008060009054906101000a900473ffffffffffffffffffffffffffffffffffffffff1673ffffffffffffffffffffffffffffffffffffffff1663313ce5676040518163ffffffff1660e01b8152600401602060405180830381865afa158015610568573d6000803e3d6000fd5b505050506040513d601f19601f8201168201806040525081019061058c9190610fc7565b60ff16905082816001848180546105a290610af2565b80601f01602080910402602001604051908101604052809291908181526020018280546105ce90610af2565b801561061b5780601f106105f05761010080835404028352916020019161061b565b820191906000526020600020905b8154815290600101906020018083116105fe57829003601f168201915b5050505050915096509650965096505050505b90919293565b7f000000000000000000000000000000000000000000000000000000000000000081565b6000604051905090565b600080fd5b600080fd5b600080fd5b600080fd5b6000601f19601f8301169050919050565b7f4e487b7100000000000000000000000000000000000000000000000000000000600052604160045260246000fd5b6106bf82610676565b810181811067ffffffffffffffff821117156106de576106dd610687565b5b80604052505050565b60006106f1610658565b90506106fd82826106b6565b919050565b600067ffffffffffffffff82111561071d5761071c610687565b5b61072682610676565b9050602081019050919050565b82818337600083830152505050565b600061075561075084610702565b6106e7565b90508281526020810184848401111561077157610770610671565b5b61077c848285610733565b509392505050565b600082601f8301126107995761079861066c565b5b81356107a9848260208601610742565b91505092915050565b600073ffffffffffffffffffffffffffffffffffffffff82169050919050565b60006107dd826107b2565b9050919050565b6107ed816107d2565b81146107f857600080fd5b50565b60008135905061080a816107e4565b92915050565b60008060006060848603121561082957610828610662565b5b600084013567ffffffffffffffff81111561084757610846610667565b5b61085386828701610784565b935050602084013567ffffffffffffffff81111561087457610873610667565b5b61088086828701610784565b9250506040610891868287016107fb565b9150509250925092565b6000819050919050565b6108ae8161089b565b82525050565b6000819050919050565b6108c7816108b4565b82525050565b600081519050919050565b600082825260208201905092915050565b60005b838110156109075780820151818401526020810190506108ec565b60008484015250505050565b600061091e826108cd565b61092881856108d8565b93506109388185602086016108e9565b61094181610676565b840191505092915050565b600060808201905061096160008301876108a5565b61096e60208301866108be565b81810360408301526109808185610913565b905061098f60608301846108be565b95945050505050565b6109a1816107d2565b82525050565b60006020820190506109bc6000830184610998565b92915050565b7f4e6f7420417574686f72697a6564210000000000000000000000000000000000600082015250565b60006109f8600f836108d8565b9150610a03826109c2565b602082019050919050565b60006020820190508181036000830152610a27816109eb565b9050919050565b600081905092915050565b6000610a44826108cd565b610a4e8185610a2e565b9350610a5e8185602086016108e9565b80840191505092915050565b7f2f00000000000000000000000000000000000000000000000000000000000000815250565b6000610a9c8285610a39565b9150610aa782610a6a565b600182019150610ab78284610a39565b91508190509392505050565b7f4e487b7100000000000000000000000000000000000000000000000000000000600052602260045260246000fd5b60006002820490506001821680610b0a57607f821691505b602082108103610b1d57610b1c610ac3565b5b50919050565b60008190508160005260206000209050919050565b60006020601f8301049050919050565b600082821b905092915050565b600060088302610b857fffffffffffffffffffffffffffffffffffffffffffffffffffffffffffffffff82610b48565b610b8f8683610b48565b95508019841693508086168417925050509392505050565b6000819050919050565b6000610bcc610bc7610bc2846108b4565b610ba7565b6108b4565b9050919050565b6000819050919050565b610be683610bb1565b610bfa610bf282610bd3565b848454610b55565b825550505050565b600090565b610c0f610c02565b610c1a818484610bdd565b505050565b5b81811015610c3e57610c33600082610c07565b600181019050610c20565b5050565b601f821115610c8357610c5481610b23565b610c5d84610b38565b81016020851015610c6c578190505b610c80610c7885610b38565b830182610c1f565b50505b505050565b600082821c905092915050565b6000610ca660001984600802610c88565b1980831691505092915050565b6000610cbf8383610c95565b9150826002028217905092915050565b610cd8826108cd565b67ffffffffffffffff811115610cf157610cf0610687565b5b610cfb8254610af2565b610d06828285610c42565b600060209050601f831160018114610d395760008415610d27578287015190505b610d318582610cb3565b865550610d99565b601f198416610d4786610b23565b60005b82811015610d6f57848901518255600182019150602085019450602081019050610d4a565b86831015610d8c5784890151610d88601f891682610c95565b8355505b6001600288020188555050505b505050505050565b7f416c726561647920616374697661746564210000000000000000000000000000600082015250565b6000610dd76012836108d8565b9150610de282610da1565b602082019050919050565b60006020820190508181036000830152610e0681610dca565b9050919050565b7f416c726561647920646561637469766174656421000000000000000000000000600082015250565b6000610e436014836108d8565b9150610e4e82610e0d565b602082019050919050565b60006020820190508181036000830152610e7281610e36565b9050919050565b600069ffffffffffffffffffff82169050919050565b610e9881610e79565b8114610ea357600080fd5b50565b600081519050610eb581610e8f565b92915050565b610ec48161089b565b8114610ecf57600080fd5b50565b600081519050610ee181610ebb565b92915050565b610ef0816108b4565b8114610efb57600080fd5b50565b600081519050610f0d81610ee7565b92915050565b600080600080600060a08688031215610f2f57610f2e610662565b5b6000610f3d88828901610ea6565b9550506020610f4e88828901610ed2565b9450506040610f5f88828901610efe565b9350506060610f7088828901610efe565b9250506080610f8188828901610ea6565b9150509295509295909350565b600060ff82169050919050565b610fa481610f8e565b8114610faf57600080fd5b50565b600081519050610fc181610f9b565b92915050565b600060208284031215610fdd57610fdc610662565b5b6000610feb84828501610fb2565b9150509291505056fea2646970667358221220a019d32525961e19302788b81332624722f93f4ad30bfb0375ff7bae8f74e45364736f6c63430008170033",
					"opcodes": "PUSH1 0xA0 PUSH1 0x40 MSTORE PUSH1 0x1 PUSH1 0x2 PUSH1 0x0 PUSH2 0x100 EXP DUP2 SLOAD DUP2 PUSH1 0xFF MUL NOT AND SWAP1 DUP4 ISZERO ISZERO MUL OR SWAP1 SSTORE POP CALLVALUE DUP1 ISZERO PUSH3 0x2C JUMPI PUSH1 0x0 DUP1 REVERT JUMPDEST POP PUSH1 0x40 MLOAD PUSH3 0x17FD CODESIZE SUB DUP1 PUSH3 0x17FD DUP4 CODECOPY DUP2 DUP2 ADD PUSH1 0x40 MSTORE DUP2 ADD SWAP1 PUSH3 0x52 SWAP2 SWAP1 PUSH3 0x336 JUMP JUMPDEST PUSH1 0x0 PUSH20 0xFFFFFFFFFFFFFFFFFFFFFFFFFFFFFFFFFFFFFFFF AND DUP2 PUSH20 0xFFFFFFFFFFFFFFFFFFFFFFFFFFFFFFFFFFFFFFFF AND SUB PUSH3 0x8C JUMPI PUSH1 0x0 DUP1 REVERT JUMPDEST DUP1 PUSH1 0x0 DUP1 PUSH2 0x100 EXP DUP2 SLOAD DUP2 PUSH20 0xFFFFFFFFFFFFFFFFFFFFFFFFFFFFFFFFFFFFFFFF MUL NOT AND SWAP1 DUP4 PUSH20 0xFFFFFFFFFFFFFFFFFFFFFFFFFFFFFFFFFFFFFFFF AND MUL OR SWAP1 SSTORE POP DUP3 DUP3 PUSH1 0x40 MLOAD PUSH1 0x20 ADD PUSH3 0xE1 SWAP3 SWAP2 SWAP1 PUSH3 0x443 JUMP JUMPDEST PUSH1 0x40 MLOAD PUSH1 0x20 DUP2 DUP4 SUB SUB DUP2 MSTORE SWAP1 PUSH1 0x40 MSTORE PUSH1 0x1 SWAP1 DUP2 PUSH3 0x100 SWAP2 SWAP1 PUSH3 0x6BC JUMP JUMPDEST POP CALLER PUSH20 0xFFFFFFFFFFFFFFFFFFFFFFFFFFFFFFFFFFFFFFFF AND PUSH1 0x80 DUP2 PUSH20 0xFFFFFFFFFFFFFFFFFFFFFFFFFFFFFFFFFFFFFFFF AND DUP2 MSTORE POP POP POP POP POP PUSH3 0x7A3 JUMP JUMPDEST PUSH1 0x0 PUSH1 0x40 MLOAD SWAP1 POP SWAP1 JUMP JUMPDEST PUSH1 0x0 DUP1 REVERT JUMPDEST PUSH1 0x0 DUP1 REVERT JUMPDEST PUSH1 0x0 DUP1 REVERT JUMPDEST PUSH1 0x0 DUP1 REVERT JUMPDEST PUSH1 0x0 PUSH1 0x1F NOT PUSH1 0x1F DUP4 ADD AND SWAP1 POP SWAP2 SWAP1 POP JUMP JUMPDEST PUSH32 0x4E487B7100000000000000000000000000000000000000000000000000000000 PUSH1 0x0 MSTORE PUSH1 0x41 PUSH1 0x4 MSTORE PUSH1 0x24 PUSH1 0x0 REVERT JUMPDEST PUSH3 0x1A7 DUP3 PUSH3 0x15C JUMP JUMPDEST DUP2 ADD DUP2 DUP2 LT PUSH8 0xFFFFFFFFFFFFFFFF DUP3 GT OR ISZERO PUSH3 0x1C9 JUMPI PUSH3 0x1C8 PUSH3 0x16D JUMP JUMPDEST JUMPDEST DUP1 PUSH1 0x40 MSTORE POP POP POP JUMP JUMPDEST PUSH1 0x0 PUSH3 0x1DE PUSH3 0x13E JUMP JUMPDEST SWAP1 POP PUSH3 0x1EC DUP3 DUP3 PUSH3 0x19C JUMP JUMPDEST SWAP2 SWAP1 POP JUMP JUMPDEST PUSH1 0x0 PUSH8 0xFFFFFFFFFFFFFFFF DUP3 GT ISZERO PUSH3 0x20F JUMPI PUSH3 0x20E PUSH3 0x16D JUMP JUMPDEST JUMPDEST PUSH3 0x21A DUP3 PUSH3 0x15C JUMP JUMPDEST SWAP1 POP PUSH1 0x20 DUP2 ADD SWAP1 POP SWAP2 SWAP1 POP JUMP JUMPDEST PUSH1 0x0 JUMPDEST DUP4 DUP2 LT ISZERO PUSH3 0x247 JUMPI DUP1 DUP3 ADD MLOAD DUP2 DUP5 ADD MSTORE PUSH1 0x20 DUP2 ADD SWAP1 POP PUSH3 0x22A JUMP JUMPDEST PUSH1 0x0 DUP5 DUP5 ADD MSTORE POP POP POP POP JUMP JUMPDEST PUSH1 0x0 PUSH3 0x26A PUSH3 0x264 DUP5 PUSH3 0x1F1 JUMP JUMPDEST PUSH3 0x1D2 JUMP JUMPDEST SWAP1 POP DUP3 DUP2 MSTORE PUSH1 0x20 DUP2 ADD DUP5 DUP5 DUP5 ADD GT ISZERO PUSH3 0x289 JUMPI PUSH3 0x288 PUSH3 0x157 JUMP JUMPDEST JUMPDEST PUSH3 0x296 DUP5 DUP3 DUP6 PUSH3 0x227 JUMP JUMPDEST POP SWAP4 SWAP3 POP POP POP JUMP JUMPDEST PUSH1 0x0 DUP3 PUSH1 0x1F DUP4 ADD SLT PUSH3 0x2B6 JUMPI PUSH3 0x2B5 PUSH3 0x152 JUMP JUMPDEST JUMPDEST DUP2 MLOAD PUSH3 0x2C8 DUP5 DUP3 PUSH1 0x20 DUP7 ADD PUSH3 0x253 JUMP JUMPDEST SWAP2 POP POP SWAP3 SWAP2 POP POP JUMP JUMPDEST PUSH1 0x0 PUSH20 0xFFFFFFFFFFFFFFFFFFFFFFFFFFFFFFFFFFFFFFFF DUP3 AND SWAP1 POP SWAP2 SWAP1 POP JUMP JUMPDEST PUSH1 0x0 PUSH3 0x2FE DUP3 PUSH3 0x2D1 JUMP JUMPDEST SWAP1 POP SWAP2 SWAP1 POP JUMP JUMPDEST PUSH3 0x310 DUP2 PUSH3 0x2F1 JUMP JUMPDEST DUP2 EQ PUSH3 0x31C JUMPI PUSH1 0x0 DUP1 REVERT JUMPDEST POP JUMP JUMPDEST PUSH1 0x0 DUP2 MLOAD SWAP1 POP PUSH3 0x330 DUP2 PUSH3 0x305 JUMP JUMPDEST SWAP3 SWAP2 POP POP JUMP JUMPDEST PUSH1 0x0 DUP1 PUSH1 0x0 PUSH1 0x60 DUP5 DUP7 SUB SLT ISZERO PUSH3 0x352 JUMPI PUSH3 0x351 PUSH3 0x148 JUMP JUMPDEST JUMPDEST PUSH1 0x0 DUP5 ADD MLOAD PUSH8 0xFFFFFFFFFFFFFFFF DUP2 GT ISZERO PUSH3 0x373 JUMPI PUSH3 0x372 PUSH3 0x14D JUMP JUMPDEST JUMPDEST PUSH3 0x381 DUP7 DUP3 DUP8 ADD PUSH3 0x29E JUMP JUMPDEST SWAP4 POP POP PUSH1 0x20 DUP5 ADD MLOAD PUSH8 0xFFFFFFFFFFFFFFFF DUP2 GT ISZERO PUSH3 0x3A5 JUMPI PUSH3 0x3A4 PUSH3 0x14D JUMP JUMPDEST JUMPDEST PUSH3 0x3B3 DUP7 DUP3 DUP8 ADD PUSH3 0x29E JUMP JUMPDEST SWAP3 POP POP PUSH1 0x40 PUSH3 0x3C6 DUP7 DUP3 DUP8 ADD PUSH3 0x31F JUMP JUMPDEST SWAP2 POP POP SWAP3 POP SWAP3 POP SWAP3 JUMP JUMPDEST PUSH1 0x0 DUP2 MLOAD SWAP1 POP SWAP2 SWAP1 POP JUMP JUMPDEST PUSH1 0x0 DUP2 SWAP1 POP SWAP3 SWAP2 POP POP JUMP JUMPDEST PUSH1 0x0 PUSH3 0x3F3 DUP3 PUSH3 0x3D0 JUMP JUMPDEST PUSH3 0x3FF DUP2 DUP6 PUSH3 0x3DB JUMP JUMPDEST SWAP4 POP PUSH3 0x411 DUP2 DUP6 PUSH1 0x20 DUP7 ADD PUSH3 0x227 JUMP JUMPDEST DUP1 DUP5 ADD SWAP2 POP POP SWAP3 SWAP2 POP POP JUMP JUMPDEST PUSH32 0x2F00000000000000000000000000000000000000000000000000000000000000 DUP2 MSTORE POP JUMP JUMPDEST PUSH1 0x0 PUSH3 0x451 DUP3 DUP6 PUSH3 0x3E6 JUMP JUMPDEST SWAP2 POP PUSH3 0x45E DUP3 PUSH3 0x41D JUMP JUMPDEST PUSH1 0x1 DUP3 ADD SWAP2 POP PUSH3 0x470 DUP3 DUP5 PUSH3 0x3E6 JUMP JUMPDEST SWAP2 POP DUP2 SWAP1 POP SWAP4 SWAP3 POP POP POP JUMP JUMPDEST PUSH32 0x4E487B7100000000000000000000000000000000000000000000000000000000 PUSH1 0x0 MSTORE PUSH1 0x22 PUSH1 0x4 MSTORE PUSH1 0x24 PUSH1 0x0 REVERT JUMPDEST PUSH1 0x0 PUSH1 0x2 DUP3 DIV SWAP1 POP PUSH1 0x1 DUP3 AND DUP1 PUSH3 0x4C4 JUMPI PUSH1 0x7F DUP3 AND SWAP2 POP JUMPDEST PUSH1 0x20 DUP3 LT DUP2 SUB PUSH3 0x4DA JUMPI PUSH3 0x4D9 PUSH3 0x47C JUMP JUMPDEST JUMPDEST POP SWAP2 SWAP1 POP JUMP JUMPDEST PUSH1 0x0 DUP2 SWAP1 POP DUP2 PUSH1 0x0 MSTORE PUSH1 0x20 PUSH1 0x0 KECCAK256 SWAP1 POP SWAP2 SWAP1 POP JUMP JUMPDEST PUSH1 0x0 PUSH1 0x20 PUSH1 0x1F DUP4 ADD DIV SWAP1 POP SWAP2 SWAP1 POP JUMP JUMPDEST PUSH1 0x0 DUP3 DUP3 SHL SWAP1 POP SWAP3 SWAP2 POP POP JUMP JUMPDEST PUSH1 0x0 PUSH1 0x8 DUP4 MUL PUSH3 0x544 PUSH32 0xFFFFFFFFFFFFFFFFFFFFFFFFFFFFFFFFFFFFFFFFFFFFFFFFFFFFFFFFFFFFFFFF DUP3 PUSH3 0x505 JUMP JUMPDEST PUSH3 0x550 DUP7 DUP4 PUSH3 0x505 JUMP JUMPDEST SWAP6 POP DUP1 NOT DUP5 AND SWAP4 POP DUP1 DUP7 AND DUP5 OR SWAP3 POP POP POP SWAP4 SWAP3 POP POP POP JUMP JUMPDEST PUSH1 0x0 DUP2 SWAP1 POP SWAP2 SWAP1 POP JUMP JUMPDEST PUSH1 0x0 DUP2 SWAP1 POP SWAP2 SWAP1 POP JUMP JUMPDEST PUSH1 0x0 PUSH3 0x59D PUSH3 0x597 PUSH3 0x591 DUP5 PUSH3 0x568 JUMP JUMPDEST PUSH3 0x572 JUMP JUMPDEST PUSH3 0x568 JUMP JUMPDEST SWAP1 POP SWAP2 SWAP1 POP JUMP JUMPDEST PUSH1 0x0 DUP2 SWAP1 POP SWAP2 SWAP1 POP JUMP JUMPDEST PUSH3 0x5B9 DUP4 PUSH3 0x57C JUMP JUMPDEST PUSH3 0x5D1 PUSH3 0x5C8 DUP3 PUSH3 0x5A4 JUMP JUMPDEST DUP5 DUP5 SLOAD PUSH3 0x512 JUMP JUMPDEST DUP3 SSTORE POP POP POP POP JUMP JUMPDEST PUSH1 0x0 SWAP1 JUMP JUMPDEST PUSH3 0x5E8 PUSH3 0x5D9 JUMP JUMPDEST PUSH3 0x5F5 DUP2 DUP5 DUP5 PUSH3 0x5AE JUMP JUMPDEST POP POP POP JUMP JUMPDEST JUMPDEST DUP2 DUP2 LT ISZERO PUSH3 0x61D JUMPI PUSH3 0x611 PUSH1 0x0 DUP3 PUSH3 0x5DE JUMP JUMPDEST PUSH1 0x1 DUP2 ADD SWAP1 POP PUSH3 0x5FB JUMP JUMPDEST POP POP JUMP JUMPDEST PUSH1 0x1F DUP3 GT ISZERO PUSH3 0x66C JUMPI PUSH3 0x636 DUP2 PUSH3 0x4E0 JUMP JUMPDEST PUSH3 0x641 DUP5 PUSH3 0x4F5 JUMP JUMPDEST DUP2 ADD PUSH1 0x20 DUP6 LT ISZERO PUSH3 0x651 JUMPI DUP2 SWAP1 POP JUMPDEST PUSH3 0x669 PUSH3 0x660 DUP6 PUSH3 0x4F5 JUMP JUMPDEST DUP4 ADD DUP3 PUSH3 0x5FA JUMP JUMPDEST POP POP JUMPDEST POP POP POP JUMP JUMPDEST PUSH1 0x0 DUP3 DUP3 SHR SWAP1 POP SWAP3 SWAP2 POP POP JUMP JUMPDEST PUSH1 0x0 PUSH3 0x691 PUSH1 0x0 NOT DUP5 PUSH1 0x8 MUL PUSH3 0x671 JUMP JUMPDEST NOT DUP1 DUP4 AND SWAP2 POP POP SWAP3 SWAP2 POP POP JUMP JUMPDEST PUSH1 0x0 PUSH3 0x6AC DUP4 DUP4 PUSH3 0x67E JUMP JUMPDEST SWAP2 POP DUP3 PUSH1 0x2 MUL DUP3 OR SWAP1 POP SWAP3 SWAP2 POP POP JUMP JUMPDEST PUSH3 0x6C7 DUP3 PUSH3 0x3D0 JUMP JUMPDEST PUSH8 0xFFFFFFFFFFFFFFFF DUP2 GT ISZERO PUSH3 0x6E3 JUMPI PUSH3 0x6E2 PUSH3 0x16D JUMP JUMPDEST JUMPDEST PUSH3 0x6EF DUP3 SLOAD PUSH3 0x4AB JUMP JUMPDEST PUSH3 0x6FC DUP3 DUP3 DUP6 PUSH3 0x621 JUMP JUMPDEST PUSH1 0x0 PUSH1 0x20 SWAP1 POP PUSH1 0x1F DUP4 GT PUSH1 0x1 DUP2 EQ PUSH3 0x734 JUMPI PUSH1 0x0 DUP5 ISZERO PUSH3 0x71F JUMPI DUP3 DUP8 ADD MLOAD SWAP1 POP JUMPDEST PUSH3 0x72B DUP6 DUP3 PUSH3 0x69E JUMP JUMPDEST DUP7 SSTORE POP PUSH3 0x79B JUMP JUMPDEST PUSH1 0x1F NOT DUP5 AND PUSH3 0x744 DUP7 PUSH3 0x4E0 JUMP JUMPDEST PUSH1 0x0 JUMPDEST DUP3 DUP2 LT ISZERO PUSH3 0x76E JUMPI DUP5 DUP10 ADD MLOAD DUP3 SSTORE PUSH1 0x1 DUP3 ADD SWAP2 POP PUSH1 0x20 DUP6 ADD SWAP5 POP PUSH1 0x20 DUP2 ADD SWAP1 POP PUSH3 0x747 JUMP JUMPDEST DUP7 DUP4 LT ISZERO PUSH3 0x78E JUMPI DUP5 DUP10 ADD MLOAD PUSH3 0x78A PUSH1 0x1F DUP10 AND DUP3 PUSH3 0x67E JUMP JUMPDEST DUP4 SSTORE POP JUMPDEST PUSH1 0x1 PUSH1 0x2 DUP9 MUL ADD DUP9 SSTORE POP POP POP JUMPDEST POP POP POP POP POP POP JUMP JUMPDEST PUSH1 0x80 MLOAD PUSH2 0x102A PUSH3 0x7D3 PUSH1 0x0 CODECOPY PUSH1 0x0 DUP2 DUP2 PUSH1 0xCD ADD MSTORE DUP2 DUP2 PUSH2 0x20A ADD MSTORE DUP2 DUP2 PUSH2 0x305 ADD MSTORE PUSH2 0x636 ADD MSTORE PUSH2 0x102A PUSH1 0x0 RETURN INVALID PUSH1 0x80 PUSH1 0x40 MSTORE CALLVALUE DUP1 ISZERO PUSH2 0x10 JUMPI PUSH1 0x0 DUP1 REVERT JUMPDEST POP PUSH1 0x4 CALLDATASIZE LT PUSH2 0x57 JUMPI PUSH1 0x0 CALLDATALOAD PUSH1 0xE0 SHR DUP1 PUSH4 0x82C4484 EQ PUSH2 0x5C JUMPI DUP1 PUSH4 0xF15F4C0 EQ PUSH2 0x78 JUMPI DUP1 PUSH4 0x51B42B00 EQ PUSH2 0x82 JUMPI DUP1 PUSH4 0xE1E7FF77 EQ PUSH2 0x8C JUMPI DUP1 PUSH4 0xF851A440 EQ PUSH2 0xAD JUMPI JUMPDEST PUSH1 0x0 DUP1 REVERT JUMPDEST PUSH2 0x76 PUSH1 0x4 DUP1 CALLDATASIZE SUB DUP2 ADD SWAP1 PUSH2 0x71 SWAP2 SWAP1 PUSH2 0x810 JUMP JUMPDEST PUSH2 0xCB JUMP JUMPDEST STOP JUMPDEST PUSH2 0x80 PUSH2 0x208 JUMP JUMPDEST STOP JUMPDEST PUSH2 0x8A PUSH2 0x303 JUMP JUMPDEST STOP JUMPDEST PUSH2 0x94 PUSH2 0x3FD JUMP JUMPDEST PUSH1 0x40 MLOAD PUSH2 0xA4 SWAP5 SWAP4 SWAP3 SWAP2 SWAP1 PUSH2 0x94C JUMP JUMPDEST PUSH1 0x40 MLOAD DUP1 SWAP2 SUB SWAP1 RETURN JUMPDEST PUSH2 0xB5 PUSH2 0x634 JUMP JUMPDEST PUSH1 0x40 MLOAD PUSH2 0xC2 SWAP2 SWAP1 PUSH2 0x9A7 JUMP JUMPDEST PUSH1 0x40 MLOAD DUP1 SWAP2 SUB SWAP1 RETURN JUMPDEST PUSH32 0x0 PUSH20 0xFFFFFFFFFFFFFFFFFFFFFFFFFFFFFFFFFFFFFFFF AND CALLER PUSH20 0xFFFFFFFFFFFFFFFFFFFFFFFFFFFFFFFFFFFFFFFF AND EQ PUSH2 0x159 JUMPI PUSH1 0x40 MLOAD PUSH32 0x8C379A000000000000000000000000000000000000000000000000000000000 DUP2 MSTORE PUSH1 0x4 ADD PUSH2 0x150 SWAP1 PUSH2 0xA0E JUMP JUMPDEST PUSH1 0x40 MLOAD DUP1 SWAP2 SUB SWAP1 REVERT JUMPDEST PUSH1 0x0 PUSH20 0xFFFFFFFFFFFFFFFFFFFFFFFFFFFFFFFFFFFFFFFF AND DUP2 PUSH20 0xFFFFFFFFFFFFFFFFFFFFFFFFFFFFFFFFFFFFFFFF AND SUB PUSH2 0x192 JUMPI PUSH1 0x0 DUP1 REVERT JUMPDEST DUP1 PUSH1 0x0 DUP1 PUSH2 0x100 EXP DUP2 SLOAD DUP2 PUSH20 0xFFFFFFFFFFFFFFFFFFFFFFFFFFFFFFFFFFFFFFFF MUL NOT AND SWAP1 DUP4 PUSH20 0xFFFFFFFFFFFFFFFFFFFFFFFFFFFFFFFFFFFFFFFF AND MUL OR SWAP1 SSTORE POP DUP3 DUP3 PUSH1 0x40 MLOAD PUSH1 0x20 ADD PUSH2 0x1E5 SWAP3 SWAP2 SWAP1 PUSH2 0xA90 JUMP JUMPDEST PUSH1 0x40 MLOAD PUSH1 0x20 DUP2 DUP4 SUB SUB DUP2 MSTORE SWAP1 PUSH1 0x40 MSTORE PUSH1 0x1 SWAP1 DUP2 PUSH2 0x202 SWAP2 SWAP1 PUSH2 0xCCF JUMP JUMPDEST POP POP POP POP JUMP JUMPDEST PUSH32 0x0 PUSH20 0xFFFFFFFFFFFFFFFFFFFFFFFFFFFFFFFFFFFFFFFF AND CALLER PUSH20 0xFFFFFFFFFFFFFFFFFFFFFFFFFFFFFFFFFFFFFFFF AND EQ PUSH2 0x296 JUMPI PUSH1 0x40 MLOAD PUSH32 0x8C379A000000000000000000000000000000000000000000000000000000000 DUP2 MSTORE PUSH1 0x4 ADD PUSH2 0x28D SWAP1 PUSH2 0xA0E JUMP JUMPDEST PUSH1 0x40 MLOAD DUP1 SWAP2 SUB SWAP1 REVERT JUMPDEST PUSH1 0x2 PUSH1 0x0 SWAP1 SLOAD SWAP1 PUSH2 0x100 EXP SWAP1 DIV PUSH1 0xFF AND ISZERO PUSH2 0x2E6 JUMPI PUSH1 0x40 MLOAD PUSH32 0x8C379A000000000000000000000000000000000000000000000000000000000 DUP2 MSTORE PUSH1 0x4 ADD PUSH2 0x2DD SWAP1 PUSH2 0xDED JUMP JUMPDEST PUSH1 0x40 MLOAD DUP1 SWAP2 SUB SWAP1 REVERT JUMPDEST PUSH1 0x0 PUSH1 0x2 PUSH1 0x0 PUSH2 0x100 EXP DUP2 SLOAD DUP2 PUSH1 0xFF MUL NOT AND SWAP1 DUP4 ISZERO ISZERO MUL OR SWAP1 SSTORE POP JUMP JUMPDEST PUSH32 0x0 PUSH20 0xFFFFFFFFFFFFFFFFFFFFFFFFFFFFFFFFFFFFFFFF AND CALLER PUSH20 0xFFFFFFFFFFFFFFFFFFFFFFFFFFFFFFFFFFFFFFFF AND EQ PUSH2 0x391 JUMPI PUSH1 0x40 MLOAD PUSH32 0x8C379A000000000000000000000000000000000000000000000000000000000 DUP2 MSTORE PUSH1 0x4 ADD PUSH2 0x388 SWAP1 PUSH2 0xA0E JUMP JUMPDEST PUSH1 0x40 MLOAD DUP1 SWAP2 SUB SWAP1 REVERT JUMPDEST PUSH1 0x2 PUSH1 0x0 SWAP1 SLOAD SWAP1 PUSH2 0x100 EXP SWAP1 DIV PUSH1 0xFF AND PUSH2 0x3E0 JUMPI PUSH1 0x40 MLOAD PUSH32 0x8C379A000000000000000000000000000000000000000000000000000000000 DUP2 MSTORE PUSH1 0x4 ADD PUSH2 0x3D7 SWAP1 PUSH2 0xE59 JUMP JUMPDEST PUSH1 0x40 MLOAD DUP1 SWAP2 SUB SWAP1 REVERT JUMPDEST PUSH1 0x1 PUSH1 0x2 PUSH1 0x0 PUSH2 0x100 EXP DUP2 SLOAD DUP2 PUSH1 0xFF MUL NOT AND SWAP1 DUP4 ISZERO ISZERO MUL OR SWAP1 SSTORE POP JUMP JUMPDEST PUSH1 0x0 DUP1 PUSH1 0x60 PUSH1 0x0 PUSH1 0x2 PUSH1 0x0 SWAP1 SLOAD SWAP1 PUSH2 0x100 EXP SWAP1 DIV PUSH1 0xFF AND PUSH2 0x461 JUMPI PUSH1 0x0 DUP1 PUSH1 0x0 PUSH1 0x40 MLOAD DUP1 PUSH1 0x40 ADD PUSH1 0x40 MSTORE DUP1 PUSH1 0xB DUP2 MSTORE PUSH1 0x20 ADD PUSH32 0x4E6F742061637469766521000000000000000000000000000000000000000000 DUP2 MSTORE POP SWAP1 SWAP4 POP SWAP4 POP SWAP4 POP SWAP4 POP PUSH2 0x62E JUMP JUMPDEST PUSH1 0x0 DUP1 PUSH1 0x0 DUP1 SLOAD SWAP1 PUSH2 0x100 EXP SWAP1 DIV PUSH20 0xFFFFFFFFFFFFFFFFFFFFFFFFFFFFFFFFFFFFFFFF AND PUSH20 0xFFFFFFFFFFFFFFFFFFFFFFFFFFFFFFFFFFFFFFFF AND PUSH4 0xFEAF968C PUSH1 0x40 MLOAD DUP2 PUSH4 0xFFFFFFFF AND PUSH1 0xE0 SHL DUP2 MSTORE PUSH1 0x4 ADD PUSH1 0xA0 PUSH1 0x40 MLOAD DUP1 DUP4 SUB DUP2 DUP7 GAS STATICCALL ISZERO DUP1 ISZERO PUSH2 0x4CF JUMPI RETURNDATASIZE PUSH1 0x0 DUP1 RETURNDATACOPY RETURNDATASIZE PUSH1 0x0 REVERT JUMPDEST POP POP POP POP PUSH1 0x40 MLOAD RETURNDATASIZE PUSH1 0x1F NOT PUSH1 0x1F DUP3 ADD AND DUP3 ADD DUP1 PUSH1 0x40 MSTORE POP DUP2 ADD SWAP1 PUSH2 0x4F3 SWAP2 SWAP1 PUSH2 0xF13 JUMP JUMPDEST POP SWAP4 POP POP SWAP3 POP POP PUSH1 0x0 DUP1 PUSH1 0x0 SWAP1 SLOAD SWAP1 PUSH2 0x100 EXP SWAP1 DIV PUSH20 0xFFFFFFFFFFFFFFFFFFFFFFFFFFFFFFFFFFFFFFFF AND PUSH20 0xFFFFFFFFFFFFFFFFFFFFFFFFFFFFFFFFFFFFFFFF AND PUSH4 0x313CE567 PUSH1 0x40 MLOAD DUP2 PUSH4 0xFFFFFFFF AND PUSH1 0xE0 SHL DUP2 MSTORE PUSH1 0x4 ADD PUSH1 0x20 PUSH1 0x40 MLOAD DUP1 DUP4 SUB DUP2 DUP7 GAS STATICCALL ISZERO DUP1 ISZERO PUSH2 0x568 JUMPI RETURNDATASIZE PUSH1 0x0 DUP1 RETURNDATACOPY RETURNDATASIZE PUSH1 0x0 REVERT JUMPDEST POP POP POP POP PUSH1 0x40 MLOAD RETURNDATASIZE PUSH1 0x1F NOT PUSH1 0x1F DUP3 ADD AND DUP3 ADD DUP1 PUSH1 0x40 MSTORE POP DUP2 ADD SWAP1 PUSH2 0x58C SWAP2 SWAP1 PUSH2 0xFC7 JUMP JUMPDEST PUSH1 0xFF AND SWAP1 POP DUP3 DUP2 PUSH1 0x1 DUP5 DUP2 DUP1 SLOAD PUSH2 0x5A2 SWAP1 PUSH2 0xAF2 JUMP JUMPDEST DUP1 PUSH1 0x1F ADD PUSH1 0x20 DUP1 SWAP2 DIV MUL PUSH1 0x20 ADD PUSH1 0x40 MLOAD SWAP1 DUP2 ADD PUSH1 0x40 MSTORE DUP1 SWAP3 SWAP2 SWAP1 DUP2 DUP2 MSTORE PUSH1 0x20 ADD DUP3 DUP1 SLOAD PUSH2 0x5CE SWAP1 PUSH2 0xAF2 JUMP JUMPDEST DUP1 ISZERO PUSH2 0x61B JUMPI DUP1 PUSH1 0x1F LT PUSH2 0x5F0 JUMPI PUSH2 0x100 DUP1 DUP4 SLOAD DIV MUL DUP4 MSTORE SWAP2 PUSH1 0x20 ADD SWAP2 PUSH2 0x61B JUMP JUMPDEST DUP3 ADD SWAP2 SWAP1 PUSH1 0x0 MSTORE PUSH1 0x20 PUSH1 0x0 KECCAK256 SWAP1 JUMPDEST DUP2 SLOAD DUP2 MSTORE SWAP1 PUSH1 0x1 ADD SWAP1 PUSH1 0x20 ADD DUP1 DUP4 GT PUSH2 0x5FE JUMPI DUP3 SWAP1 SUB PUSH1 0x1F AND DUP3 ADD SWAP2 JUMPDEST POP POP POP POP POP SWAP2 POP SWAP7 POP SWAP7 POP SWAP7 POP SWAP7 POP POP POP POP JUMPDEST SWAP1 SWAP2 SWAP3 SWAP4 JUMP JUMPDEST PUSH32 0x0 DUP2 JUMP JUMPDEST PUSH1 0x0 PUSH1 0x40 MLOAD SWAP1 POP SWAP1 JUMP JUMPDEST PUSH1 0x0 DUP1 REVERT JUMPDEST PUSH1 0x0 DUP1 REVERT JUMPDEST PUSH1 0x0 DUP1 REVERT JUMPDEST PUSH1 0x0 DUP1 REVERT JUMPDEST PUSH1 0x0 PUSH1 0x1F NOT PUSH1 0x1F DUP4 ADD AND SWAP1 POP SWAP2 SWAP1 POP JUMP JUMPDEST PUSH32 0x4E487B7100000000000000000000000000000000000000000000000000000000 PUSH1 0x0 MSTORE PUSH1 0x41 PUSH1 0x4 MSTORE PUSH1 0x24 PUSH1 0x0 REVERT JUMPDEST PUSH2 0x6BF DUP3 PUSH2 0x676 JUMP JUMPDEST DUP2 ADD DUP2 DUP2 LT PUSH8 0xFFFFFFFFFFFFFFFF DUP3 GT OR ISZERO PUSH2 0x6DE JUMPI PUSH2 0x6DD PUSH2 0x687 JUMP JUMPDEST JUMPDEST DUP1 PUSH1 0x40 MSTORE POP POP POP JUMP JUMPDEST PUSH1 0x0 PUSH2 0x6F1 PUSH2 0x658 JUMP JUMPDEST SWAP1 POP PUSH2 0x6FD DUP3 DUP3 PUSH2 0x6B6 JUMP JUMPDEST SWAP2 SWAP1 POP JUMP JUMPDEST PUSH1 0x0 PUSH8 0xFFFFFFFFFFFFFFFF DUP3 GT ISZERO PUSH2 0x71D JUMPI PUSH2 0x71C PUSH2 0x687 JUMP JUMPDEST JUMPDEST PUSH2 0x726 DUP3 PUSH2 0x676 JUMP JUMPDEST SWAP1 POP PUSH1 0x20 DUP2 ADD SWAP1 POP SWAP2 SWAP1 POP JUMP JUMPDEST DUP3 DUP2 DUP4 CALLDATACOPY PUSH1 0x0 DUP4 DUP4 ADD MSTORE POP POP POP JUMP JUMPDEST PUSH1 0x0 PUSH2 0x755 PUSH2 0x750 DUP5 PUSH2 0x702 JUMP JUMPDEST PUSH2 0x6E7 JUMP JUMPDEST SWAP1 POP DUP3 DUP2 MSTORE PUSH1 0x20 DUP2 ADD DUP5 DUP5 DUP5 ADD GT ISZERO PUSH2 0x771 JUMPI PUSH2 0x770 PUSH2 0x671 JUMP JUMPDEST JUMPDEST PUSH2 0x77C DUP5 DUP3 DUP6 PUSH2 0x733 JUMP JUMPDEST POP SWAP4 SWAP3 POP POP POP JUMP JUMPDEST PUSH1 0x0 DUP3 PUSH1 0x1F DUP4 ADD SLT PUSH2 0x799 JUMPI PUSH2 0x798 PUSH2 0x66C JUMP JUMPDEST JUMPDEST DUP2 CALLDATALOAD PUSH2 0x7A9 DUP5 DUP3 PUSH1 0x20 DUP7 ADD PUSH2 0x742 JUMP JUMPDEST SWAP2 POP POP SWAP3 SWAP2 POP POP JUMP JUMPDEST PUSH1 0x0 PUSH20 0xFFFFFFFFFFFFFFFFFFFFFFFFFFFFFFFFFFFFFFFF DUP3 AND SWAP1 POP SWAP2 SWAP1 POP JUMP JUMPDEST PUSH1 0x0 PUSH2 0x7DD DUP3 PUSH2 0x7B2 JUMP JUMPDEST SWAP1 POP SWAP2 SWAP1 POP JUMP JUMPDEST PUSH2 0x7ED DUP2 PUSH2 0x7D2 JUMP JUMPDEST DUP2 EQ PUSH2 0x7F8 JUMPI PUSH1 0x0 DUP1 REVERT JUMPDEST POP JUMP JUMPDEST PUSH1 0x0 DUP2 CALLDATALOAD SWAP1 POP PUSH2 0x80A DUP2 PUSH2 0x7E4 JUMP JUMPDEST SWAP3 SWAP2 POP POP JUMP JUMPDEST PUSH1 0x0 DUP1 PUSH1 0x0 PUSH1 0x60 DUP5 DUP7 SUB SLT ISZERO PUSH2 0x829 JUMPI PUSH2 0x828 PUSH2 0x662 JUMP JUMPDEST JUMPDEST PUSH1 0x0 DUP5 ADD CALLDATALOAD PUSH8 0xFFFFFFFFFFFFFFFF DUP2 GT ISZERO PUSH2 0x847 JUMPI PUSH2 0x846 PUSH2 0x667 JUMP JUMPDEST JUMPDEST PUSH2 0x853 DUP7 DUP3 DUP8 ADD PUSH2 0x784 JUMP JUMPDEST SWAP4 POP POP PUSH1 0x20 DUP5 ADD CALLDATALOAD PUSH8 0xFFFFFFFFFFFFFFFF DUP2 GT ISZERO PUSH2 0x874 JUMPI PUSH2 0x873 PUSH2 0x667 JUMP JUMPDEST JUMPDEST PUSH2 0x880 DUP7 DUP3 DUP8 ADD PUSH2 0x784 JUMP JUMPDEST SWAP3 POP POP PUSH1 0x40 PUSH2 0x891 DUP7 DUP3 DUP8 ADD PUSH2 0x7FB JUMP JUMPDEST SWAP2 POP POP SWAP3 POP SWAP3 POP SWAP3 JUMP JUMPDEST PUSH1 0x0 DUP2 SWAP1 POP SWAP2 SWAP1 POP JUMP JUMPDEST PUSH2 0x8AE DUP2 PUSH2 0x89B JUMP JUMPDEST DUP3 MSTORE POP POP JUMP JUMPDEST PUSH1 0x0 DUP2 SWAP1 POP SWAP2 SWAP1 POP JUMP JUMPDEST PUSH2 0x8C7 DUP2 PUSH2 0x8B4 JUMP JUMPDEST DUP3 MSTORE POP POP JUMP JUMPDEST PUSH1 0x0 DUP2 MLOAD SWAP1 POP SWAP2 SWAP1 POP JUMP JUMPDEST PUSH1 0x0 DUP3 DUP3 MSTORE PUSH1 0x20 DUP3 ADD SWAP1 POP SWAP3 SWAP2 POP POP JUMP JUMPDEST PUSH1 0x0 JUMPDEST DUP4 DUP2 LT ISZERO PUSH2 0x907 JUMPI DUP1 DUP3 ADD MLOAD DUP2 DUP5 ADD MSTORE PUSH1 0x20 DUP2 ADD SWAP1 POP PUSH2 0x8EC JUMP JUMPDEST PUSH1 0x0 DUP5 DUP5 ADD MSTORE POP POP POP POP JUMP JUMPDEST PUSH1 0x0 PUSH2 0x91E DUP3 PUSH2 0x8CD JUMP JUMPDEST PUSH2 0x928 DUP2 DUP6 PUSH2 0x8D8 JUMP JUMPDEST SWAP4 POP PUSH2 0x938 DUP2 DUP6 PUSH1 0x20 DUP7 ADD PUSH2 0x8E9 JUMP JUMPDEST PUSH2 0x941 DUP2 PUSH2 0x676 JUMP JUMPDEST DUP5 ADD SWAP2 POP POP SWAP3 SWAP2 POP POP JUMP JUMPDEST PUSH1 0x0 PUSH1 0x80 DUP3 ADD SWAP1 POP PUSH2 0x961 PUSH1 0x0 DUP4 ADD DUP8 PUSH2 0x8A5 JUMP JUMPDEST PUSH2 0x96E PUSH1 0x20 DUP4 ADD DUP7 PUSH2 0x8BE JUMP JUMPDEST DUP2 DUP2 SUB PUSH1 0x40 DUP4 ADD MSTORE PUSH2 0x980 DUP2 DUP6 PUSH2 0x913 JUMP JUMPDEST SWAP1 POP PUSH2 0x98F PUSH1 0x60 DUP4 ADD DUP5 PUSH2 0x8BE JUMP JUMPDEST SWAP6 SWAP5 POP POP POP POP POP JUMP JUMPDEST PUSH2 0x9A1 DUP2 PUSH2 0x7D2 JUMP JUMPDEST DUP3 MSTORE POP POP JUMP JUMPDEST PUSH1 0x0 PUSH1 0x20 DUP3 ADD SWAP1 POP PUSH2 0x9BC PUSH1 0x0 DUP4 ADD DUP5 PUSH2 0x998 JUMP JUMPDEST SWAP3 SWAP2 POP POP JUMP JUMPDEST PUSH32 0x4E6F7420417574686F72697A6564210000000000000000000000000000000000 PUSH1 0x0 DUP3 ADD MSTORE POP JUMP JUMPDEST PUSH1 0x0 PUSH2 0x9F8 PUSH1 0xF DUP4 PUSH2 0x8D8 JUMP JUMPDEST SWAP2 POP PUSH2 0xA03 DUP3 PUSH2 0x9C2 JUMP JUMPDEST PUSH1 0x20 DUP3 ADD SWAP1 POP SWAP2 SWAP1 POP JUMP JUMPDEST PUSH1 0x0 PUSH1 0x20 DUP3 ADD SWAP1 POP DUP2 DUP2 SUB PUSH1 0x0 DUP4 ADD MSTORE PUSH2 0xA27 DUP2 PUSH2 0x9EB JUMP JUMPDEST SWAP1 POP SWAP2 SWAP1 POP JUMP JUMPDEST PUSH1 0x0 DUP2 SWAP1 POP SWAP3 SWAP2 POP POP JUMP JUMPDEST PUSH1 0x0 PUSH2 0xA44 DUP3 PUSH2 0x8CD JUMP JUMPDEST PUSH2 0xA4E DUP2 DUP6 PUSH2 0xA2E JUMP JUMPDEST SWAP4 POP PUSH2 0xA5E DUP2 DUP6 PUSH1 0x20 DUP7 ADD PUSH2 0x8E9 JUMP JUMPDEST DUP1 DUP5 ADD SWAP2 POP POP SWAP3 SWAP2 POP POP JUMP JUMPDEST PUSH32 0x2F00000000000000000000000000000000000000000000000000000000000000 DUP2 MSTORE POP JUMP JUMPDEST PUSH1 0x0 PUSH2 0xA9C DUP3 DUP6 PUSH2 0xA39 JUMP JUMPDEST SWAP2 POP PUSH2 0xAA7 DUP3 PUSH2 0xA6A JUMP JUMPDEST PUSH1 0x1 DUP3 ADD SWAP2 POP PUSH2 0xAB7 DUP3 DUP5 PUSH2 0xA39 JUMP JUMPDEST SWAP2 POP DUP2 SWAP1 POP SWAP4 SWAP3 POP POP POP JUMP JUMPDEST PUSH32 0x4E487B7100000000000000000000000000000000000000000000000000000000 PUSH1 0x0 MSTORE PUSH1 0x22 PUSH1 0x4 MSTORE PUSH1 0x24 PUSH1 0x0 REVERT JUMPDEST PUSH1 0x0 PUSH1 0x2 DUP3 DIV SWAP1 POP PUSH1 0x1 DUP3 AND DUP1 PUSH2 0xB0A JUMPI PUSH1 0x7F DUP3 AND SWAP2 POP JUMPDEST PUSH1 0x20 DUP3 LT DUP2 SUB PUSH2 0xB1D JUMPI PUSH2 0xB1C PUSH2 0xAC3 JUMP JUMPDEST JUMPDEST POP SWAP2 SWAP1 POP JUMP JUMPDEST PUSH1 0x0 DUP2 SWAP1 POP DUP2 PUSH1 0x0 MSTORE PUSH1 0x20 PUSH1 0x0 KECCAK256 SWAP1 POP SWAP2 SWAP1 POP JUMP JUMPDEST PUSH1 0x0 PUSH1 0x20 PUSH1 0x1F DUP4 ADD DIV SWAP1 POP SWAP2 SWAP1 POP JUMP JUMPDEST PUSH1 0x0 DUP3 DUP3 SHL SWAP1 POP SWAP3 SWAP2 POP POP JUMP JUMPDEST PUSH1 0x0 PUSH1 0x8 DUP4 MUL PUSH2 0xB85 PUSH32 0xFFFFFFFFFFFFFFFFFFFFFFFFFFFFFFFFFFFFFFFFFFFFFFFFFFFFFFFFFFFFFFFF DUP3 PUSH2 0xB48 JUMP JUMPDEST PUSH2 0xB8F DUP7 DUP4 PUSH2 0xB48 JUMP JUMPDEST SWAP6 POP DUP1 NOT DUP5 AND SWAP4 POP DUP1 DUP7 AND DUP5 OR SWAP3 POP POP POP SWAP4 SWAP3 POP POP POP JUMP JUMPDEST PUSH1 0x0 DUP2 SWAP1 POP SWAP2 SWAP1 POP JUMP JUMPDEST PUSH1 0x0 PUSH2 0xBCC PUSH2 0xBC7 PUSH2 0xBC2 DUP5 PUSH2 0x8B4 JUMP JUMPDEST PUSH2 0xBA7 JUMP JUMPDEST PUSH2 0x8B4 JUMP JUMPDEST SWAP1 POP SWAP2 SWAP1 POP JUMP JUMPDEST PUSH1 0x0 DUP2 SWAP1 POP SWAP2 SWAP1 POP JUMP JUMPDEST PUSH2 0xBE6 DUP4 PUSH2 0xBB1 JUMP JUMPDEST PUSH2 0xBFA PUSH2 0xBF2 DUP3 PUSH2 0xBD3 JUMP JUMPDEST DUP5 DUP5 SLOAD PUSH2 0xB55 JUMP JUMPDEST DUP3 SSTORE POP POP POP POP JUMP JUMPDEST PUSH1 0x0 SWAP1 JUMP JUMPDEST PUSH2 0xC0F PUSH2 0xC02 JUMP JUMPDEST PUSH2 0xC1A DUP2 DUP5 DUP5 PUSH2 0xBDD JUMP JUMPDEST POP POP POP JUMP JUMPDEST JUMPDEST DUP2 DUP2 LT ISZERO PUSH2 0xC3E JUMPI PUSH2 0xC33 PUSH1 0x0 DUP3 PUSH2 0xC07 JUMP JUMPDEST PUSH1 0x1 DUP2 ADD SWAP1 POP PUSH2 0xC20 JUMP JUMPDEST POP POP JUMP JUMPDEST PUSH1 0x1F DUP3 GT ISZERO PUSH2 0xC83 JUMPI PUSH2 0xC54 DUP2 PUSH2 0xB23 JUMP JUMPDEST PUSH2 0xC5D DUP5 PUSH2 0xB38 JUMP JUMPDEST DUP2 ADD PUSH1 0x20 DUP6 LT ISZERO PUSH2 0xC6C JUMPI DUP2 SWAP1 POP JUMPDEST PUSH2 0xC80 PUSH2 0xC78 DUP6 PUSH2 0xB38 JUMP JUMPDEST DUP4 ADD DUP3 PUSH2 0xC1F JUMP JUMPDEST POP POP JUMPDEST POP POP POP JUMP JUMPDEST PUSH1 0x0 DUP3 DUP3 SHR SWAP1 POP SWAP3 SWAP2 POP POP JUMP JUMPDEST PUSH1 0x0 PUSH2 0xCA6 PUSH1 0x0 NOT DUP5 PUSH1 0x8 MUL PUSH2 0xC88 JUMP JUMPDEST NOT DUP1 DUP4 AND SWAP2 POP POP SWAP3 SWAP2 POP POP JUMP JUMPDEST PUSH1 0x0 PUSH2 0xCBF DUP4 DUP4 PUSH2 0xC95 JUMP JUMPDEST SWAP2 POP DUP3 PUSH1 0x2 MUL DUP3 OR SWAP1 POP SWAP3 SWAP2 POP POP JUMP JUMPDEST PUSH2 0xCD8 DUP3 PUSH2 0x8CD JUMP JUMPDEST PUSH8 0xFFFFFFFFFFFFFFFF DUP2 GT ISZERO PUSH2 0xCF1 JUMPI PUSH2 0xCF0 PUSH2 0x687 JUMP JUMPDEST JUMPDEST PUSH2 0xCFB DUP3 SLOAD PUSH2 0xAF2 JUMP JUMPDEST PUSH2 0xD06 DUP3 DUP3 DUP6 PUSH2 0xC42 JUMP JUMPDEST PUSH1 0x0 PUSH1 0x20 SWAP1 POP PUSH1 0x1F DUP4 GT PUSH1 0x1 DUP2 EQ PUSH2 0xD39 JUMPI PUSH1 0x0 DUP5 ISZERO PUSH2 0xD27 JUMPI DUP3 DUP8 ADD MLOAD SWAP1 POP JUMPDEST PUSH2 0xD31 DUP6 DUP3 PUSH2 0xCB3 JUMP JUMPDEST DUP7 SSTORE POP PUSH2 0xD99 JUMP JUMPDEST PUSH1 0x1F NOT DUP5 AND PUSH2 0xD47 DUP7 PUSH2 0xB23 JUMP JUMPDEST PUSH1 0x0 JUMPDEST DUP3 DUP2 LT ISZERO PUSH2 0xD6F JUMPI DUP5 DUP10 ADD MLOAD DUP3 SSTORE PUSH1 0x1 DUP3 ADD SWAP2 POP PUSH1 0x20 DUP6 ADD SWAP5 POP PUSH1 0x20 DUP2 ADD SWAP1 POP PUSH2 0xD4A JUMP JUMPDEST DUP7 DUP4 LT ISZERO PUSH2 0xD8C JUMPI DUP5 DUP10 ADD MLOAD PUSH2 0xD88 PUSH1 0x1F DUP10 AND DUP3 PUSH2 0xC95 JUMP JUMPDEST DUP4 SSTORE POP JUMPDEST PUSH1 0x1 PUSH1 0x2 DUP9 MUL ADD DUP9 SSTORE POP POP POP JUMPDEST POP POP POP POP POP POP JUMP JUMPDEST PUSH32 0x416C726561647920616374697661746564210000000000000000000000000000 PUSH1 0x0 DUP3 ADD MSTORE POP JUMP JUMPDEST PUSH1 0x0 PUSH2 0xDD7 PUSH1 0x12 DUP4 PUSH2 0x8D8 JUMP JUMPDEST SWAP2 POP PUSH2 0xDE2 DUP3 PUSH2 0xDA1 JUMP JUMPDEST PUSH1 0x20 DUP3 ADD SWAP1 POP SWAP2 SWAP1 POP JUMP JUMPDEST PUSH1 0x0 PUSH1 0x20 DUP3 ADD SWAP1 POP DUP2 DUP2 SUB PUSH1 0x0 DUP4 ADD MSTORE PUSH2 0xE06 DUP2 PUSH2 0xDCA JUMP JUMPDEST SWAP1 POP SWAP2 SWAP1 POP JUMP JUMPDEST PUSH32 0x416C726561647920646561637469766174656421000000000000000000000000 PUSH1 0x0 DUP3 ADD MSTORE POP JUMP JUMPDEST PUSH1 0x0 PUSH2 0xE43 PUSH1 0x14 DUP4 PUSH2 0x8D8 JUMP JUMPDEST SWAP2 POP PUSH2 0xE4E DUP3 PUSH2 0xE0D JUMP JUMPDEST PUSH1 0x20 DUP3 ADD SWAP1 POP SWAP2 SWAP1 POP JUMP JUMPDEST PUSH1 0x0 PUSH1 0x20 DUP3 ADD SWAP1 POP DUP2 DUP2 SUB PUSH1 0x0 DUP4 ADD MSTORE PUSH2 0xE72 DUP2 PUSH2 0xE36 JUMP JUMPDEST SWAP1 POP SWAP2 SWAP1 POP JUMP JUMPDEST PUSH1 0x0 PUSH10 0xFFFFFFFFFFFFFFFFFFFF DUP3 AND SWAP1 POP SWAP2 SWAP1 POP JUMP JUMPDEST PUSH2 0xE98 DUP2 PUSH2 0xE79 JUMP JUMPDEST DUP2 EQ PUSH2 0xEA3 JUMPI PUSH1 0x0 DUP1 REVERT JUMPDEST POP JUMP JUMPDEST PUSH1 0x0 DUP2 MLOAD SWAP1 POP PUSH2 0xEB5 DUP2 PUSH2 0xE8F JUMP JUMPDEST SWAP3 SWAP2 POP POP JUMP JUMPDEST PUSH2 0xEC4 DUP2 PUSH2 0x89B JUMP JUMPDEST DUP2 EQ PUSH2 0xECF JUMPI PUSH1 0x0 DUP1 REVERT JUMPDEST POP JUMP JUMPDEST PUSH1 0x0 DUP2 MLOAD SWAP1 POP PUSH2 0xEE1 DUP2 PUSH2 0xEBB JUMP JUMPDEST SWAP3 SWAP2 POP POP JUMP JUMPDEST PUSH2 0xEF0 DUP2 PUSH2 0x8B4 JUMP JUMPDEST DUP2 EQ PUSH2 0xEFB JUMPI PUSH1 0x0 DUP1 REVERT JUMPDEST POP JUMP JUMPDEST PUSH1 0x0 DUP2 MLOAD SWAP1 POP PUSH2 0xF0D DUP2 PUSH2 0xEE7 JUMP JUMPDEST SWAP3 SWAP2 POP POP JUMP JUMPDEST PUSH1 0x0 DUP1 PUSH1 0x0 DUP1 PUSH1 0x0 PUSH1 0xA0 DUP7 DUP9 SUB SLT ISZERO PUSH2 0xF2F JUMPI PUSH2 0xF2E PUSH2 0x662 JUMP JUMPDEST JUMPDEST PUSH1 0x0 PUSH2 0xF3D DUP9 DUP3 DUP10 ADD PUSH2 0xEA6 JUMP JUMPDEST SWAP6 POP POP PUSH1 0x20 PUSH2 0xF4E DUP9 DUP3 DUP10 ADD PUSH2 0xED2 JUMP JUMPDEST SWAP5 POP POP PUSH1 0x40 PUSH2 0xF5F DUP9 DUP3 DUP10 ADD PUSH2 0xEFE JUMP JUMPDEST SWAP4 POP POP PUSH1 0x60 PUSH2 0xF70 DUP9 DUP3 DUP10 ADD PUSH2 0xEFE JUMP JUMPDEST SWAP3 POP POP PUSH1 0x80 PUSH2 0xF81 DUP9 DUP3 DUP10 ADD PUSH2 0xEA6 JUMP JUMPDEST SWAP2 POP POP SWAP3 SWAP6 POP SWAP3 SWAP6 SWAP1 SWAP4 POP JUMP JUMPDEST PUSH1 0x0 PUSH1 0xFF DUP3 AND SWAP1 POP SWAP2 SWAP1 POP JUMP JUMPDEST PUSH2 0xFA4 DUP2 PUSH2 0xF8E JUMP JUMPDEST DUP2 EQ PUSH2 0xFAF JUMPI PUSH1 0x0 DUP1 REVERT JUMPDEST POP JUMP JUMPDEST PUSH1 0x0 DUP2 MLOAD SWAP1 POP PUSH2 0xFC1 DUP2 PUSH2 0xF9B JUMP JUMPDEST SWAP3 SWAP2 POP POP JUMP JUMPDEST PUSH1 0x0 PUSH1 0x20 DUP3 DUP5 SUB SLT ISZERO PUSH2 0xFDD JUMPI PUSH2 0xFDC PUSH2 0x662 JUMP JUMPDEST JUMPDEST PUSH1 0x0 PUSH2 0xFEB DUP5 DUP3 DUP6 ADD PUSH2 0xFB2 JUMP JUMPDEST SWAP2 POP POP SWAP3 SWAP2 POP POP JUMP INVALID LOG2 PUSH5 0x6970667358 0x22 SLT KECCAK256 LOG0 NOT 0xD3 0x25 0x25 SWAP7 0x1E NOT ADDRESS 0x27 DUP9 0xB8 SGT ORIGIN PUSH3 0x4722F9 EXTCODEHASH 0x4A 0xD3 SIGNEXTEND 0xFB SUB PUSH22 0xFF7BAE8F74E45364736F6C6343000817003300000000 "
				},
				"gasEstimates": {
					"creation": {
						"codeDepositCost": "827600",
						"executionCost": "infinite",
						"totalCost": "infinite"
					},
					"external": {
						"activate()": "infinite",
						"admin()": "infinite",
						"changeAggregatorAddress(string,string,address)": "infinite",
						"deactivate()": "infinite",
						"getLatestRate()": "infinite"
					}
				},
				"methodIdentifiers": {
					"activate()": "0f15f4c0",
					"admin()": "f851a440",
					"changeAggregatorAddress(string,string,address)": "082c4484",
					"deactivate()": "51b42b00",
					"getLatestRate()": "e1e7ff77"
				}
			},
			"storageLayout": {
				"storage": [
					{
						"astId": 51,
						"contract": "token_eco_system_dev_contracts/contracts_ready_for_prod/AggregatorRate.sol:AggregatorRate",
						"label": "priceFeed",
						"offset": 0,
						"slot": "0",
						"type": "t_contract(AggregatorV3Interface)45"
					},
					{
						"astId": 53,
						"contract": "token_eco_system_dev_contracts/contracts_ready_for_prod/AggregatorRate.sol:AggregatorRate",
						"label": "rateString",
						"offset": 0,
						"slot": "1",
						"type": "t_string_storage"
					},
					{
						"astId": 58,
						"contract": "token_eco_system_dev_contracts/contracts_ready_for_prod/AggregatorRate.sol:AggregatorRate",
						"label": "active",
						"offset": 0,
						"slot": "2",
						"type": "t_bool"
					}
				],
				"types": {
					"t_bool": {
						"encoding": "inplace",
						"label": "bool",
						"numberOfBytes": "1"
					},
					"t_contract(AggregatorV3Interface)45": {
						"encoding": "inplace",
						"label": "contract AggregatorV3Interface",
						"numberOfBytes": "20"
					},
					"t_string_storage": {
						"encoding": "bytes",
						"label": "string",
						"numberOfBytes": "32"
					}
				}
			},
			"userdoc": {
				"kind": "user",
				"methods": {},
				"version": 1
			}
		}
	}
}