{
	"ptrn_eco_system_dev_contracts/contracts_ready_for_prod/PtrnEcosystemParticipationV1_0.sol": {
		"TokenEcoSystemParticipation": {
			"abi": [
				{
					"inputs": [
						{
							"internalType": "address",
							"name": "_acceptedTokens",
							"type": "address"
						},
						{
							"internalType": "address",
							"name": "_activator",
							"type": "address"
						}
					],
					"stateMutability": "nonpayable",
					"type": "constructor"
				},
				{
					"anonymous": false,
					"inputs": [
						{
							"indexed": true,
							"internalType": "address",
							"name": "activator",
							"type": "address"
						},
						{
							"indexed": false,
							"internalType": "uint256",
							"name": "timestamp",
							"type": "uint256"
						}
					],
					"name": "Activate",
					"type": "event"
				},
				{
					"anonymous": false,
					"inputs": [
						{
							"indexed": false,
							"internalType": "uint256",
							"name": "chargeRate",
							"type": "uint256"
						},
						{
							"indexed": false,
							"internalType": "uint256",
							"name": "chargeRatedecimals",
							"type": "uint256"
						},
						{
							"indexed": false,
							"internalType": "uint256",
							"name": "chargeRateDate",
							"type": "uint256"
						},
						{
							"indexed": false,
							"internalType": "string",
							"name": "chargeRateString",
							"type": "string"
						},
						{
							"indexed": true,
							"internalType": "uint256",
							"name": "chargedPoints",
							"type": "uint256"
						},
						{
							"indexed": true,
							"internalType": "uint256",
							"name": "burnedTokens",
							"type": "uint256"
						},
						{
							"indexed": true,
							"internalType": "uint256",
							"name": "chargeDate",
							"type": "uint256"
						}
					],
					"name": "ChargeContract",
					"type": "event"
				},
				{
					"anonymous": false,
					"inputs": [
						{
							"indexed": true,
							"internalType": "address",
							"name": "deactivator",
							"type": "address"
						},
						{
							"indexed": false,
							"internalType": "uint256",
							"name": "timestamp",
							"type": "uint256"
						}
					],
					"name": "Deactivate",
					"type": "event"
				},
				{
					"anonymous": false,
					"inputs": [
						{
							"indexed": true,
							"internalType": "address",
							"name": "previousOwner",
							"type": "address"
						},
						{
							"indexed": true,
							"internalType": "address",
							"name": "newOwner",
							"type": "address"
						}
					],
					"name": "OwnershipTransferred",
					"type": "event"
				},
				{
					"anonymous": false,
					"inputs": [
						{
							"indexed": false,
							"internalType": "address",
							"name": "account",
							"type": "address"
						}
					],
					"name": "Paused",
					"type": "event"
				},
				{
					"anonymous": false,
					"inputs": [
						{
							"indexed": true,
							"internalType": "uint256",
							"name": "timestamp",
							"type": "uint256"
						},
						{
							"indexed": false,
							"internalType": "uint256",
							"name": "value",
							"type": "uint256"
						}
					],
					"name": "TotalDailyWithdraws",
					"type": "event"
				},
				{
					"anonymous": false,
					"inputs": [
						{
							"indexed": false,
							"internalType": "address",
							"name": "account",
							"type": "address"
						}
					],
					"name": "Unpaused",
					"type": "event"
				},
				{
					"anonymous": false,
					"inputs": [
						{
							"indexed": true,
							"internalType": "uint256",
							"name": "timestamp",
							"type": "uint256"
						},
						{
							"indexed": false,
							"internalType": "uint256",
							"name": "value",
							"type": "uint256"
						},
						{
							"indexed": true,
							"internalType": "address",
							"name": "wallet",
							"type": "address"
						}
					],
					"name": "Withdraw",
					"type": "event"
				},
				{
					"inputs": [],
					"name": "activate",
					"outputs": [],
					"stateMutability": "nonpayable",
					"type": "function"
				},
				{
					"inputs": [
						{
							"internalType": "address",
							"name": "_ConsumerInterfaceAddress",
							"type": "address"
						}
					],
					"name": "addNewAggregatorPriceFeed",
					"outputs": [],
					"stateMutability": "nonpayable",
					"type": "function"
				},
				{
					"inputs": [
						{
							"internalType": "address",
							"name": "_ConsumerInterfaceAddress",
							"type": "address"
						}
					],
					"name": "addNewPoolRateFeed",
					"outputs": [],
					"stateMutability": "nonpayable",
					"type": "function"
				},
				{
					"inputs": [],
					"name": "balanceOf",
					"outputs": [
						{
							"internalType": "uint256",
							"name": "",
							"type": "uint256"
						}
					],
					"stateMutability": "view",
					"type": "function"
				},
				{
					"inputs": [
						{
							"internalType": "address",
							"name": "tokenAddress",
							"type": "address"
						}
					],
					"name": "balanceOfToken",
					"outputs": [
						{
							"internalType": "uint256",
							"name": "",
							"type": "uint256"
						}
					],
					"stateMutability": "view",
					"type": "function"
				},
				{
					"inputs": [
						{
							"internalType": "uint256",
							"name": "points",
							"type": "uint256"
						},
						{
							"internalType": "uint256",
							"name": "rate",
							"type": "uint256"
						},
						{
							"internalType": "uint256",
							"name": "_decimals",
							"type": "uint256"
						}
					],
					"name": "calculateAmount",
					"outputs": [
						{
							"internalType": "uint256",
							"name": "",
							"type": "uint256"
						}
					],
					"stateMutability": "view",
					"type": "function"
				},
				{
					"inputs": [
						{
							"internalType": "address",
							"name": "newAcceptedSender",
							"type": "address"
						}
					],
					"name": "changeAcceptedSenderAddress",
					"outputs": [],
					"stateMutability": "nonpayable",
					"type": "function"
				},
				{
					"inputs": [],
					"name": "changeRateFeed",
					"outputs": [],
					"stateMutability": "nonpayable",
					"type": "function"
				},
				{
					"inputs": [
						{
							"internalType": "uint256",
							"name": "amount",
							"type": "uint256"
						}
					],
					"name": "chargeContract",
					"outputs": [
						{
							"internalType": "bool",
							"name": "",
							"type": "bool"
						}
					],
					"stateMutability": "nonpayable",
					"type": "function"
				},
				{
					"inputs": [],
					"name": "currentRateFeed",
					"outputs": [
						{
							"internalType": "string",
							"name": "",
							"type": "string"
						}
					],
					"stateMutability": "view",
					"type": "function"
				},
				{
					"inputs": [],
					"name": "deactivate",
					"outputs": [],
					"stateMutability": "nonpayable",
					"type": "function"
				},
				{
					"inputs": [],
					"name": "getAcceptedSenderAddress",
					"outputs": [
						{
							"internalType": "address",
							"name": "",
							"type": "address"
						}
					],
					"stateMutability": "view",
					"type": "function"
				},
				{
					"inputs": [],
					"name": "getCurrentPointsBalance",
					"outputs": [
						{
							"internalType": "uint256",
							"name": "",
							"type": "uint256"
						}
					],
					"stateMutability": "view",
					"type": "function"
				},
				{
					"inputs": [],
					"name": "getDailyWithdraw",
					"outputs": [
						{
							"internalType": "uint256",
							"name": "",
							"type": "uint256"
						}
					],
					"stateMutability": "view",
					"type": "function"
				},
				{
					"inputs": [],
					"name": "getInitialActivationAddress",
					"outputs": [
						{
							"internalType": "address",
							"name": "",
							"type": "address"
						}
					],
					"stateMutability": "view",
					"type": "function"
				},
				{
					"inputs": [],
					"name": "getTokenInfo",
					"outputs": [
						{
							"internalType": "address",
							"name": "",
							"type": "address"
						},
						{
							"internalType": "string",
							"name": "",
							"type": "string"
						}
					],
					"stateMutability": "view",
					"type": "function"
				},
				{
					"inputs": [],
					"name": "getTotalBurnedTokens",
					"outputs": [
						{
							"internalType": "uint256",
							"name": "",
							"type": "uint256"
						}
					],
					"stateMutability": "view",
					"type": "function"
				},
				{
					"inputs": [],
					"name": "getTotalPointsGenerated",
					"outputs": [
						{
							"internalType": "uint256",
							"name": "",
							"type": "uint256"
						}
					],
					"stateMutability": "view",
					"type": "function"
				},
				{
					"inputs": [],
					"name": "initiateBulkMint",
					"outputs": [],
					"stateMutability": "nonpayable",
					"type": "function"
				},
				{
					"inputs": [],
					"name": "owner",
					"outputs": [
						{
							"internalType": "address",
							"name": "",
							"type": "address"
						}
					],
					"stateMutability": "view",
					"type": "function"
				},
				{
					"inputs": [],
					"name": "paused",
					"outputs": [
						{
							"internalType": "bool",
							"name": "",
							"type": "bool"
						}
					],
					"stateMutability": "view",
					"type": "function"
				},
				{
					"inputs": [],
					"name": "renounceOwnership",
					"outputs": [],
					"stateMutability": "nonpayable",
					"type": "function"
				},
				{
					"inputs": [],
					"name": "resume",
					"outputs": [],
					"stateMutability": "nonpayable",
					"type": "function"
				},
				{
					"inputs": [],
					"name": "stop",
					"outputs": [],
					"stateMutability": "nonpayable",
					"type": "function"
				},
				{
					"inputs": [
						{
							"internalType": "address",
							"name": "tokenAddress",
							"type": "address"
						},
						{
							"internalType": "address",
							"name": "receiver",
							"type": "address"
						},
						{
							"internalType": "uint256",
							"name": "amount",
							"type": "uint256"
						}
					],
					"name": "transferOfToken",
					"outputs": [
						{
							"internalType": "bool",
							"name": "",
							"type": "bool"
						}
					],
					"stateMutability": "nonpayable",
					"type": "function"
				},
				{
					"inputs": [
						{
							"internalType": "address",
							"name": "newOwner",
							"type": "address"
						}
					],
					"name": "transferOwnership",
					"outputs": [],
					"stateMutability": "nonpayable",
					"type": "function"
				},
				{
					"inputs": [
						{
							"internalType": "uint256",
							"name": "value",
							"type": "uint256"
						},
						{
							"internalType": "address",
							"name": "wallet",
							"type": "address"
						}
					],
					"name": "withdraw",
					"outputs": [],
					"stateMutability": "nonpayable",
					"type": "function"
				}
			],
			"devdoc": {
				"events": {
					"Paused(address)": {
						"details": "Emitted when the pause is triggered by `account`."
					},
					"Unpaused(address)": {
						"details": "Emitted when the pause is lifted by `account`."
					}
				},
				"kind": "dev",
				"methods": {
					"owner()": {
						"details": "Returns the address of the current owner."
					},
					"paused()": {
						"details": "Returns true if the contract is paused, and false otherwise."
					},
					"renounceOwnership()": {
						"details": "Leaves the contract without owner. It will not be possible to call `onlyOwner` functions anymore. Can only be called by the current owner. NOTE: Renouncing ownership will leave the contract without an owner, thereby removing any functionality that is only available to the owner."
					},
					"transferOwnership(address)": {
						"details": "Transfers ownership of the contract to a new account (`newOwner`). Can only be called by the current owner."
					}
				},
				"version": 1
			},
			"evm": {
				"assembly": "    /* \"ptrn_eco_system_dev_contracts/contracts_ready_for_prod/PtrnEcosystemParticipationV1_0.sol\":778:12059  contract TokenEcoSystemParticipation is Pausable, Ownable {... */\n  mstore(0x40, 0xc0)\n    /* \"ptrn_eco_system_dev_contracts/contracts_ready_for_prod/PtrnEcosystemParticipationV1_0.sol\":1056:1060  true */\n  0x01\n    /* \"ptrn_eco_system_dev_contracts/contracts_ready_for_prod/PtrnEcosystemParticipationV1_0.sol\":1036:1060  bool poolRateFeed = true */\n  0x02\n  exp(0x0100, 0x14)\n  dup2\n  sload\n  dup2\n  0xff\n  mul\n  not\n  and\n  swap1\n  dup4\n  iszero\n  iszero\n  mul\n  or\n  swap1\n  sstore\n  pop\n    /* \"ptrn_eco_system_dev_contracts/contracts_ready_for_prod/PtrnEcosystemParticipationV1_0.sol\":1096:1097  0 */\n  0x00\n    /* \"ptrn_eco_system_dev_contracts/contracts_ready_for_prod/PtrnEcosystemParticipationV1_0.sol\":1066:1097  uint256 private totalBurned = 0 */\n  0x03\n  sstore\n    /* \"ptrn_eco_system_dev_contracts/contracts_ready_for_prod/PtrnEcosystemParticipationV1_0.sol\":1136:1137  0 */\n  0x00\n    /* \"ptrn_eco_system_dev_contracts/contracts_ready_for_prod/PtrnEcosystemParticipationV1_0.sol\":1103:1137  uint256 private totalConverted = 0 */\n  0x04\n  sstore\n    /* \"ptrn_eco_system_dev_contracts/contracts_ready_for_prod/PtrnEcosystemParticipationV1_0.sol\":1181:1182  0 */\n  0x00\n    /* \"ptrn_eco_system_dev_contracts/contracts_ready_for_prod/PtrnEcosystemParticipationV1_0.sol\":1143:1182  uint256 private availableToWithdraw = 0 */\n  0x05\n  sstore\n    /* \"ptrn_eco_system_dev_contracts/contracts_ready_for_prod/PtrnEcosystemParticipationV1_0.sol\":1220:1221  0 */\n  0x00\n    /* \"ptrn_eco_system_dev_contracts/contracts_ready_for_prod/PtrnEcosystemParticipationV1_0.sol\":1188:1221  uint256 private dailyWithdraw = 0 */\n  0x06\n  sstore\n    /* \"ptrn_eco_system_dev_contracts/contracts_ready_for_prod/PtrnEcosystemParticipationV1_0.sol\":2455:2639  constructor(address _acceptedTokens, address _activator) {... */\n  callvalue\n  dup1\n  iszero\n  tag_1\n  jumpi\n  0x00\n  dup1\n  revert\ntag_1:\n  pop\n  mload(0x40)\n  sub(codesize, bytecodeSize)\n  dup1\n  bytecodeSize\n  dup4\n  codecopy\n  dup2\n  dup2\n  add\n  0x40\n  mstore\n  dup2\n  add\n  swap1\n  tag_2\n  swap2\n  swap1\n  tag_3\n  jump\t// in\ntag_2:\n    /* \"@openzeppelin/contracts/security/Pausable.sol\":1006:1011  false */\n  0x00\n    /* \"@openzeppelin/contracts/security/Pausable.sol\":996:1003  _paused */\n  dup1\n  0x00\n    /* \"@openzeppelin/contracts/security/Pausable.sol\":996:1011  _paused = false */\n  0x0100\n  exp\n  dup2\n  sload\n  dup2\n  0xff\n  mul\n  not\n  and\n  swap1\n  dup4\n  iszero\n  iszero\n  mul\n  or\n  swap1\n  sstore\n  pop\n    /* \"@openzeppelin/contracts/access/Ownable.sol\":936:968  _transferOwnership(_msgSender()) */\n  tag_9\n    /* \"@openzeppelin/contracts/access/Ownable.sol\":955:967  _msgSender() */\n  tag_10\n    /* \"@openzeppelin/contracts/access/Ownable.sol\":955:965  _msgSender */\n  shl(0x20, tag_11)\n    /* \"@openzeppelin/contracts/access/Ownable.sol\":955:967  _msgSender() */\n  0x20\n  shr\n  jump\t// in\ntag_10:\n    /* \"@openzeppelin/contracts/access/Ownable.sol\":936:954  _transferOwnership */\n  shl(0x20, tag_12)\n    /* \"@openzeppelin/contracts/access/Ownable.sol\":936:968  _transferOwnership(_msgSender()) */\n  0x20\n  shr\n  jump\t// in\ntag_9:\n    /* \"ptrn_eco_system_dev_contracts/contracts_ready_for_prod/PtrnEcosystemParticipationV1_0.sol\":2534:2544  _activator */\n  dup1\n    /* \"ptrn_eco_system_dev_contracts/contracts_ready_for_prod/PtrnEcosystemParticipationV1_0.sol\":2522:2544  ACTIVATOR = _activator */\n  0xffffffffffffffffffffffffffffffffffffffff\n  and\n  0x80\n  dup2\n  0xffffffffffffffffffffffffffffffffffffffff\n  and\n  dup2\n  mstore\n  pop\n  pop\n    /* \"ptrn_eco_system_dev_contracts/contracts_ready_for_prod/PtrnEcosystemParticipationV1_0.sol\":2577:2592  _acceptedTokens */\n  dup2\n    /* \"ptrn_eco_system_dev_contracts/contracts_ready_for_prod/PtrnEcosystemParticipationV1_0.sol\":2554:2593  TOKEN = IERC20Burnable(_acceptedTokens) */\n  0xffffffffffffffffffffffffffffffffffffffff\n  and\n  0xa0\n  dup2\n  0xffffffffffffffffffffffffffffffffffffffff\n  and\n  dup2\n  mstore\n  pop\n  pop\n    /* \"ptrn_eco_system_dev_contracts/contracts_ready_for_prod/PtrnEcosystemParticipationV1_0.sol\":2618:2623  TOKEN */\n  mload(0xa0)\n    /* \"ptrn_eco_system_dev_contracts/contracts_ready_for_prod/PtrnEcosystemParticipationV1_0.sol\":2618:2630  TOKEN.symbol */\n  0xffffffffffffffffffffffffffffffffffffffff\n  and\n  0x95d89b41\n    /* \"ptrn_eco_system_dev_contracts/contracts_ready_for_prod/PtrnEcosystemParticipationV1_0.sol\":2618:2632  TOKEN.symbol() */\n  mload(0x40)\n  dup2\n  0xffffffff\n  and\n  0xe0\n  shl\n  dup2\n  mstore\n  0x04\n  add\n  0x00\n  mload(0x40)\n  dup1\n  dup4\n  sub\n  dup2\n  0x00\n  dup8\n  gas\n  call\n  iszero\n  dup1\n  iszero\n  tag_15\n  jumpi\n  returndatasize\n  0x00\n  dup1\n  returndatacopy\n  revert(0x00, returndatasize)\ntag_15:\n  pop\n  pop\n  pop\n  pop\n  mload(0x40)\n  returndatasize\n  0x00\n  dup3\n  returndatacopy\n  returndatasize\n  not(0x1f)\n  0x1f\n  dup3\n  add\n  and\n  dup3\n  add\n  dup1\n  0x40\n  mstore\n  pop\n  dup2\n  add\n  swap1\n  tag_16\n  swap2\n  swap1\n  tag_17\n  jump\t// in\ntag_16:\n    /* \"ptrn_eco_system_dev_contracts/contracts_ready_for_prod/PtrnEcosystemParticipationV1_0.sol\":2603:2615  TOKEN_SYMBOL */\n  0x01\n    /* \"ptrn_eco_system_dev_contracts/contracts_ready_for_prod/PtrnEcosystemParticipationV1_0.sol\":2603:2632  TOKEN_SYMBOL = TOKEN.symbol() */\n  swap1\n  dup2\n  tag_18\n  swap2\n  swap1\n  tag_19\n  jump\t// in\ntag_18:\n  pop\n    /* \"ptrn_eco_system_dev_contracts/contracts_ready_for_prod/PtrnEcosystemParticipationV1_0.sol\":2455:2639  constructor(address _acceptedTokens, address _activator) {... */\n  pop\n  pop\n    /* \"ptrn_eco_system_dev_contracts/contracts_ready_for_prod/PtrnEcosystemParticipationV1_0.sol\":778:12059  contract TokenEcoSystemParticipation is Pausable, Ownable {... */\n  jump(tag_20)\n    /* \"@openzeppelin/contracts/utils/Context.sol\":640:736  function _msgSender() internal view virtual returns (address) {... */\ntag_11:\n    /* \"@openzeppelin/contracts/utils/Context.sol\":693:700  address */\n  0x00\n    /* \"@openzeppelin/contracts/utils/Context.sol\":719:729  msg.sender */\n  caller\n    /* \"@openzeppelin/contracts/utils/Context.sol\":712:729  return msg.sender */\n  swap1\n  pop\n    /* \"@openzeppelin/contracts/utils/Context.sol\":640:736  function _msgSender() internal view virtual returns (address) {... */\n  swap1\n  jump\t// out\n    /* \"@openzeppelin/contracts/access/Ownable.sol\":2433:2620  function _transferOwnership(address newOwner) internal virtual {... */\ntag_12:\n    /* \"@openzeppelin/contracts/access/Ownable.sol\":2506:2522  address oldOwner */\n  0x00\n    /* \"@openzeppelin/contracts/access/Ownable.sol\":2525:2531  _owner */\n  dup1\n  0x01\n  swap1\n  sload\n  swap1\n  0x0100\n  exp\n  swap1\n  div\n  0xffffffffffffffffffffffffffffffffffffffff\n  and\n    /* \"@openzeppelin/contracts/access/Ownable.sol\":2506:2531  address oldOwner = _owner */\n  swap1\n  pop\n    /* \"@openzeppelin/contracts/access/Ownable.sol\":2550:2558  newOwner */\n  dup2\n    /* \"@openzeppelin/contracts/access/Ownable.sol\":2541:2547  _owner */\n  0x00\n  0x01\n    /* \"@openzeppelin/contracts/access/Ownable.sol\":2541:2558  _owner = newOwner */\n  0x0100\n  exp\n  dup2\n  sload\n  dup2\n  0xffffffffffffffffffffffffffffffffffffffff\n  mul\n  not\n  and\n  swap1\n  dup4\n  0xffffffffffffffffffffffffffffffffffffffff\n  and\n  mul\n  or\n  swap1\n  sstore\n  pop\n    /* \"@openzeppelin/contracts/access/Ownable.sol\":2604:2612  newOwner */\n  dup2\n    /* \"@openzeppelin/contracts/access/Ownable.sol\":2573:2613  OwnershipTransferred(oldOwner, newOwner) */\n  0xffffffffffffffffffffffffffffffffffffffff\n  and\n    /* \"@openzeppelin/contracts/access/Ownable.sol\":2594:2602  oldOwner */\n  dup2\n    /* \"@openzeppelin/contracts/access/Ownable.sol\":2573:2613  OwnershipTransferred(oldOwner, newOwner) */\n  0xffffffffffffffffffffffffffffffffffffffff\n  and\n  0x8be0079c531659141344cd1fd0a4f28419497f9722a3daafe3b4186f6b6457e0\n  mload(0x40)\n  mload(0x40)\n  dup1\n  swap2\n  sub\n  swap1\n  log3\n    /* \"@openzeppelin/contracts/access/Ownable.sol\":2496:2620  {... */\n  pop\n    /* \"@openzeppelin/contracts/access/Ownable.sol\":2433:2620  function _transferOwnership(address newOwner) internal virtual {... */\n  pop\n  jump\t// out\n    /* \"#utility.yul\":7:82   */\ntag_23:\n    /* \"#utility.yul\":40:46   */\n  0x00\n    /* \"#utility.yul\":73:75   */\n  0x40\n    /* \"#utility.yul\":67:76   */\n  mload\n    /* \"#utility.yul\":57:76   */\n  swap1\n  pop\n    /* \"#utility.yul\":7:82   */\n  swap1\n  jump\t// out\n    /* \"#utility.yul\":88:205   */\ntag_24:\n    /* \"#utility.yul\":197:198   */\n  0x00\n    /* \"#utility.yul\":194:195   */\n  dup1\n    /* \"#utility.yul\":187:199   */\n  revert\n    /* \"#utility.yul\":211:328   */\ntag_25:\n    /* \"#utility.yul\":320:321   */\n  0x00\n    /* \"#utility.yul\":317:318   */\n  dup1\n    /* \"#utility.yul\":310:322   */\n  revert\n    /* \"#utility.yul\":334:460   */\ntag_26:\n    /* \"#utility.yul\":371:378   */\n  0x00\n    /* \"#utility.yul\":411:453   */\n  0xffffffffffffffffffffffffffffffffffffffff\n    /* \"#utility.yul\":404:409   */\n  dup3\n    /* \"#utility.yul\":400:454   */\n  and\n    /* \"#utility.yul\":389:454   */\n  swap1\n  pop\n    /* \"#utility.yul\":334:460   */\n  swap2\n  swap1\n  pop\n  jump\t// out\n    /* \"#utility.yul\":466:562   */\ntag_27:\n    /* \"#utility.yul\":503:510   */\n  0x00\n    /* \"#utility.yul\":532:556   */\n  tag_65\n    /* \"#utility.yul\":550:555   */\n  dup3\n    /* \"#utility.yul\":532:556   */\n  tag_26\n  jump\t// in\ntag_65:\n    /* \"#utility.yul\":521:556   */\n  swap1\n  pop\n    /* \"#utility.yul\":466:562   */\n  swap2\n  swap1\n  pop\n  jump\t// out\n    /* \"#utility.yul\":568:690   */\ntag_28:\n    /* \"#utility.yul\":641:665   */\n  tag_67\n    /* \"#utility.yul\":659:664   */\n  dup2\n    /* \"#utility.yul\":641:665   */\n  tag_27\n  jump\t// in\ntag_67:\n    /* \"#utility.yul\":634:639   */\n  dup2\n    /* \"#utility.yul\":631:666   */\n  eq\n    /* \"#utility.yul\":621:684   */\n  tag_68\n  jumpi\n    /* \"#utility.yul\":680:681   */\n  0x00\n    /* \"#utility.yul\":677:678   */\n  dup1\n    /* \"#utility.yul\":670:682   */\n  revert\n    /* \"#utility.yul\":621:684   */\ntag_68:\n    /* \"#utility.yul\":568:690   */\n  pop\n  jump\t// out\n    /* \"#utility.yul\":696:839   */\ntag_29:\n    /* \"#utility.yul\":753:758   */\n  0x00\n    /* \"#utility.yul\":784:790   */\n  dup2\n    /* \"#utility.yul\":778:791   */\n  mload\n    /* \"#utility.yul\":769:791   */\n  swap1\n  pop\n    /* \"#utility.yul\":800:833   */\n  tag_70\n    /* \"#utility.yul\":827:832   */\n  dup2\n    /* \"#utility.yul\":800:833   */\n  tag_28\n  jump\t// in\ntag_70:\n    /* \"#utility.yul\":696:839   */\n  swap3\n  swap2\n  pop\n  pop\n  jump\t// out\n    /* \"#utility.yul\":845:1352   */\ntag_3:\n    /* \"#utility.yul\":924:930   */\n  0x00\n    /* \"#utility.yul\":932:938   */\n  dup1\n    /* \"#utility.yul\":981:983   */\n  0x40\n    /* \"#utility.yul\":969:978   */\n  dup4\n    /* \"#utility.yul\":960:967   */\n  dup6\n    /* \"#utility.yul\":956:979   */\n  sub\n    /* \"#utility.yul\":952:984   */\n  slt\n    /* \"#utility.yul\":949:1068   */\n  iszero\n  tag_72\n  jumpi\n    /* \"#utility.yul\":987:1066   */\n  tag_73\n  tag_24\n  jump\t// in\ntag_73:\n    /* \"#utility.yul\":949:1068   */\ntag_72:\n    /* \"#utility.yul\":1107:1108   */\n  0x00\n    /* \"#utility.yul\":1132:1196   */\n  tag_74\n    /* \"#utility.yul\":1188:1195   */\n  dup6\n    /* \"#utility.yul\":1179:1185   */\n  dup3\n    /* \"#utility.yul\":1168:1177   */\n  dup7\n    /* \"#utility.yul\":1164:1186   */\n  add\n    /* \"#utility.yul\":1132:1196   */\n  tag_29\n  jump\t// in\ntag_74:\n    /* \"#utility.yul\":1122:1196   */\n  swap3\n  pop\n    /* \"#utility.yul\":1078:1206   */\n  pop\n    /* \"#utility.yul\":1245:1247   */\n  0x20\n    /* \"#utility.yul\":1271:1335   */\n  tag_75\n    /* \"#utility.yul\":1327:1334   */\n  dup6\n    /* \"#utility.yul\":1318:1324   */\n  dup3\n    /* \"#utility.yul\":1307:1316   */\n  dup7\n    /* \"#utility.yul\":1303:1325   */\n  add\n    /* \"#utility.yul\":1271:1335   */\n  tag_29\n  jump\t// in\ntag_75:\n    /* \"#utility.yul\":1261:1335   */\n  swap2\n  pop\n    /* \"#utility.yul\":1216:1345   */\n  pop\n    /* \"#utility.yul\":845:1352   */\n  swap3\n  pop\n  swap3\n  swap1\n  pop\n  jump\t// out\n    /* \"#utility.yul\":1358:1475   */\ntag_30:\n    /* \"#utility.yul\":1467:1468   */\n  0x00\n    /* \"#utility.yul\":1464:1465   */\n  dup1\n    /* \"#utility.yul\":1457:1469   */\n  revert\n    /* \"#utility.yul\":1481:1598   */\ntag_31:\n    /* \"#utility.yul\":1590:1591   */\n  0x00\n    /* \"#utility.yul\":1587:1588   */\n  dup1\n    /* \"#utility.yul\":1580:1592   */\n  revert\n    /* \"#utility.yul\":1604:1706   */\ntag_32:\n    /* \"#utility.yul\":1645:1651   */\n  0x00\n    /* \"#utility.yul\":1696:1698   */\n  0x1f\n    /* \"#utility.yul\":1692:1699   */\n  not\n    /* \"#utility.yul\":1687:1689   */\n  0x1f\n    /* \"#utility.yul\":1680:1685   */\n  dup4\n    /* \"#utility.yul\":1676:1690   */\n  add\n    /* \"#utility.yul\":1672:1700   */\n  and\n    /* \"#utility.yul\":1662:1700   */\n  swap1\n  pop\n    /* \"#utility.yul\":1604:1706   */\n  swap2\n  swap1\n  pop\n  jump\t// out\n    /* \"#utility.yul\":1712:1892   */\ntag_33:\n    /* \"#utility.yul\":1760:1837   */\n  0x4e487b7100000000000000000000000000000000000000000000000000000000\n    /* \"#utility.yul\":1757:1758   */\n  0x00\n    /* \"#utility.yul\":1750:1838   */\n  mstore\n    /* \"#utility.yul\":1857:1861   */\n  0x41\n    /* \"#utility.yul\":1854:1855   */\n  0x04\n    /* \"#utility.yul\":1847:1862   */\n  mstore\n    /* \"#utility.yul\":1881:1885   */\n  0x24\n    /* \"#utility.yul\":1878:1879   */\n  0x00\n    /* \"#utility.yul\":1871:1886   */\n  revert\n    /* \"#utility.yul\":1898:2179   */\ntag_34:\n    /* \"#utility.yul\":1981:2008   */\n  tag_81\n    /* \"#utility.yul\":2003:2007   */\n  dup3\n    /* \"#utility.yul\":1981:2008   */\n  tag_32\n  jump\t// in\ntag_81:\n    /* \"#utility.yul\":1973:1979   */\n  dup2\n    /* \"#utility.yul\":1969:2009   */\n  add\n    /* \"#utility.yul\":2111:2117   */\n  dup2\n    /* \"#utility.yul\":2099:2109   */\n  dup2\n    /* \"#utility.yul\":2096:2118   */\n  lt\n    /* \"#utility.yul\":2075:2093   */\n  0xffffffffffffffff\n    /* \"#utility.yul\":2063:2073   */\n  dup3\n    /* \"#utility.yul\":2060:2094   */\n  gt\n    /* \"#utility.yul\":2057:2119   */\n  or\n    /* \"#utility.yul\":2054:2142   */\n  iszero\n  tag_82\n  jumpi\n    /* \"#utility.yul\":2122:2140   */\n  tag_83\n  tag_33\n  jump\t// in\ntag_83:\n    /* \"#utility.yul\":2054:2142   */\ntag_82:\n    /* \"#utility.yul\":2162:2172   */\n  dup1\n    /* \"#utility.yul\":2158:2160   */\n  0x40\n    /* \"#utility.yul\":2151:2173   */\n  mstore\n    /* \"#utility.yul\":1941:2179   */\n  pop\n    /* \"#utility.yul\":1898:2179   */\n  pop\n  pop\n  jump\t// out\n    /* \"#utility.yul\":2185:2314   */\ntag_35:\n    /* \"#utility.yul\":2219:2225   */\n  0x00\n    /* \"#utility.yul\":2246:2266   */\n  tag_85\n  tag_23\n  jump\t// in\ntag_85:\n    /* \"#utility.yul\":2236:2266   */\n  swap1\n  pop\n    /* \"#utility.yul\":2275:2308   */\n  tag_86\n    /* \"#utility.yul\":2303:2307   */\n  dup3\n    /* \"#utility.yul\":2295:2301   */\n  dup3\n    /* \"#utility.yul\":2275:2308   */\n  tag_34\n  jump\t// in\ntag_86:\n    /* \"#utility.yul\":2185:2314   */\n  swap2\n  swap1\n  pop\n  jump\t// out\n    /* \"#utility.yul\":2320:2628   */\ntag_36:\n    /* \"#utility.yul\":2382:2386   */\n  0x00\n    /* \"#utility.yul\":2472:2490   */\n  0xffffffffffffffff\n    /* \"#utility.yul\":2464:2470   */\n  dup3\n    /* \"#utility.yul\":2461:2491   */\n  gt\n    /* \"#utility.yul\":2458:2514   */\n  iszero\n  tag_88\n  jumpi\n    /* \"#utility.yul\":2494:2512   */\n  tag_89\n  tag_33\n  jump\t// in\ntag_89:\n    /* \"#utility.yul\":2458:2514   */\ntag_88:\n    /* \"#utility.yul\":2532:2561   */\n  tag_90\n    /* \"#utility.yul\":2554:2560   */\n  dup3\n    /* \"#utility.yul\":2532:2561   */\n  tag_32\n  jump\t// in\ntag_90:\n    /* \"#utility.yul\":2524:2561   */\n  swap1\n  pop\n    /* \"#utility.yul\":2616:2620   */\n  0x20\n    /* \"#utility.yul\":2610:2614   */\n  dup2\n    /* \"#utility.yul\":2606:2621   */\n  add\n    /* \"#utility.yul\":2598:2621   */\n  swap1\n  pop\n    /* \"#utility.yul\":2320:2628   */\n  swap2\n  swap1\n  pop\n  jump\t// out\n    /* \"#utility.yul\":2634:2880   */\ntag_37:\n    /* \"#utility.yul\":2715:2716   */\n  0x00\n    /* \"#utility.yul\":2725:2838   */\ntag_92:\n    /* \"#utility.yul\":2739:2745   */\n  dup4\n    /* \"#utility.yul\":2736:2737   */\n  dup2\n    /* \"#utility.yul\":2733:2746   */\n  lt\n    /* \"#utility.yul\":2725:2838   */\n  iszero\n  tag_94\n  jumpi\n    /* \"#utility.yul\":2824:2825   */\n  dup1\n    /* \"#utility.yul\":2819:2822   */\n  dup3\n    /* \"#utility.yul\":2815:2826   */\n  add\n    /* \"#utility.yul\":2809:2827   */\n  mload\n    /* \"#utility.yul\":2805:2806   */\n  dup2\n    /* \"#utility.yul\":2800:2803   */\n  dup5\n    /* \"#utility.yul\":2796:2807   */\n  add\n    /* \"#utility.yul\":2789:2828   */\n  mstore\n    /* \"#utility.yul\":2761:2763   */\n  0x20\n    /* \"#utility.yul\":2758:2759   */\n  dup2\n    /* \"#utility.yul\":2754:2764   */\n  add\n    /* \"#utility.yul\":2749:2764   */\n  swap1\n  pop\n    /* \"#utility.yul\":2725:2838   */\n  jump(tag_92)\ntag_94:\n    /* \"#utility.yul\":2872:2873   */\n  0x00\n    /* \"#utility.yul\":2863:2869   */\n  dup5\n    /* \"#utility.yul\":2858:2861   */\n  dup5\n    /* \"#utility.yul\":2854:2870   */\n  add\n    /* \"#utility.yul\":2847:2874   */\n  mstore\n    /* \"#utility.yul\":2696:2880   */\n  pop\n    /* \"#utility.yul\":2634:2880   */\n  pop\n  pop\n  pop\n  jump\t// out\n    /* \"#utility.yul\":2886:3320   */\ntag_38:\n    /* \"#utility.yul\":2975:2980   */\n  0x00\n    /* \"#utility.yul\":3000:3066   */\n  tag_96\n    /* \"#utility.yul\":3016:3065   */\n  tag_97\n    /* \"#utility.yul\":3058:3064   */\n  dup5\n    /* \"#utility.yul\":3016:3065   */\n  tag_36\n  jump\t// in\ntag_97:\n    /* \"#utility.yul\":3000:3066   */\n  tag_35\n  jump\t// in\ntag_96:\n    /* \"#utility.yul\":2991:3066   */\n  swap1\n  pop\n    /* \"#utility.yul\":3089:3095   */\n  dup3\n    /* \"#utility.yul\":3082:3087   */\n  dup2\n    /* \"#utility.yul\":3075:3096   */\n  mstore\n    /* \"#utility.yul\":3127:3131   */\n  0x20\n    /* \"#utility.yul\":3120:3125   */\n  dup2\n    /* \"#utility.yul\":3116:3132   */\n  add\n    /* \"#utility.yul\":3165:3168   */\n  dup5\n    /* \"#utility.yul\":3156:3162   */\n  dup5\n    /* \"#utility.yul\":3151:3154   */\n  dup5\n    /* \"#utility.yul\":3147:3163   */\n  add\n    /* \"#utility.yul\":3144:3169   */\n  gt\n    /* \"#utility.yul\":3141:3253   */\n  iszero\n  tag_98\n  jumpi\n    /* \"#utility.yul\":3172:3251   */\n  tag_99\n  tag_31\n  jump\t// in\ntag_99:\n    /* \"#utility.yul\":3141:3253   */\ntag_98:\n    /* \"#utility.yul\":3262:3314   */\n  tag_100\n    /* \"#utility.yul\":3307:3313   */\n  dup5\n    /* \"#utility.yul\":3302:3305   */\n  dup3\n    /* \"#utility.yul\":3297:3300   */\n  dup6\n    /* \"#utility.yul\":3262:3314   */\n  tag_37\n  jump\t// in\ntag_100:\n    /* \"#utility.yul\":2981:3320   */\n  pop\n    /* \"#utility.yul\":2886:3320   */\n  swap4\n  swap3\n  pop\n  pop\n  pop\n  jump\t// out\n    /* \"#utility.yul\":3340:3695   */\ntag_39:\n    /* \"#utility.yul\":3407:3412   */\n  0x00\n    /* \"#utility.yul\":3456:3459   */\n  dup3\n    /* \"#utility.yul\":3449:3453   */\n  0x1f\n    /* \"#utility.yul\":3441:3447   */\n  dup4\n    /* \"#utility.yul\":3437:3454   */\n  add\n    /* \"#utility.yul\":3433:3460   */\n  slt\n    /* \"#utility.yul\":3423:3545   */\n  tag_102\n  jumpi\n    /* \"#utility.yul\":3464:3543   */\n  tag_103\n  tag_30\n  jump\t// in\ntag_103:\n    /* \"#utility.yul\":3423:3545   */\ntag_102:\n    /* \"#utility.yul\":3574:3580   */\n  dup2\n    /* \"#utility.yul\":3568:3581   */\n  mload\n    /* \"#utility.yul\":3599:3689   */\n  tag_104\n    /* \"#utility.yul\":3685:3688   */\n  dup5\n    /* \"#utility.yul\":3677:3683   */\n  dup3\n    /* \"#utility.yul\":3670:3674   */\n  0x20\n    /* \"#utility.yul\":3662:3668   */\n  dup7\n    /* \"#utility.yul\":3658:3675   */\n  add\n    /* \"#utility.yul\":3599:3689   */\n  tag_38\n  jump\t// in\ntag_104:\n    /* \"#utility.yul\":3590:3689   */\n  swap2\n  pop\n    /* \"#utility.yul\":3413:3695   */\n  pop\n    /* \"#utility.yul\":3340:3695   */\n  swap3\n  swap2\n  pop\n  pop\n  jump\t// out\n    /* \"#utility.yul\":3701:4225   */\ntag_17:\n    /* \"#utility.yul\":3781:3787   */\n  0x00\n    /* \"#utility.yul\":3830:3832   */\n  0x20\n    /* \"#utility.yul\":3818:3827   */\n  dup3\n    /* \"#utility.yul\":3809:3816   */\n  dup5\n    /* \"#utility.yul\":3805:3828   */\n  sub\n    /* \"#utility.yul\":3801:3833   */\n  slt\n    /* \"#utility.yul\":3798:3917   */\n  iszero\n  tag_106\n  jumpi\n    /* \"#utility.yul\":3836:3915   */\n  tag_107\n  tag_24\n  jump\t// in\ntag_107:\n    /* \"#utility.yul\":3798:3917   */\ntag_106:\n    /* \"#utility.yul\":3977:3978   */\n  0x00\n    /* \"#utility.yul\":3966:3975   */\n  dup3\n    /* \"#utility.yul\":3962:3979   */\n  add\n    /* \"#utility.yul\":3956:3980   */\n  mload\n    /* \"#utility.yul\":4007:4025   */\n  0xffffffffffffffff\n    /* \"#utility.yul\":3999:4005   */\n  dup2\n    /* \"#utility.yul\":3996:4026   */\n  gt\n    /* \"#utility.yul\":3993:4110   */\n  iszero\n  tag_108\n  jumpi\n    /* \"#utility.yul\":4029:4108   */\n  tag_109\n  tag_25\n  jump\t// in\ntag_109:\n    /* \"#utility.yul\":3993:4110   */\ntag_108:\n    /* \"#utility.yul\":4134:4208   */\n  tag_110\n    /* \"#utility.yul\":4200:4207   */\n  dup5\n    /* \"#utility.yul\":4191:4197   */\n  dup3\n    /* \"#utility.yul\":4180:4189   */\n  dup6\n    /* \"#utility.yul\":4176:4198   */\n  add\n    /* \"#utility.yul\":4134:4208   */\n  tag_39\n  jump\t// in\ntag_110:\n    /* \"#utility.yul\":4124:4208   */\n  swap2\n  pop\n    /* \"#utility.yul\":3927:4218   */\n  pop\n    /* \"#utility.yul\":3701:4225   */\n  swap3\n  swap2\n  pop\n  pop\n  jump\t// out\n    /* \"#utility.yul\":4231:4330   */\ntag_40:\n    /* \"#utility.yul\":4283:4289   */\n  0x00\n    /* \"#utility.yul\":4317:4322   */\n  dup2\n    /* \"#utility.yul\":4311:4323   */\n  mload\n    /* \"#utility.yul\":4301:4323   */\n  swap1\n  pop\n    /* \"#utility.yul\":4231:4330   */\n  swap2\n  swap1\n  pop\n  jump\t// out\n    /* \"#utility.yul\":4336:4516   */\ntag_41:\n    /* \"#utility.yul\":4384:4461   */\n  0x4e487b7100000000000000000000000000000000000000000000000000000000\n    /* \"#utility.yul\":4381:4382   */\n  0x00\n    /* \"#utility.yul\":4374:4462   */\n  mstore\n    /* \"#utility.yul\":4481:4485   */\n  0x22\n    /* \"#utility.yul\":4478:4479   */\n  0x04\n    /* \"#utility.yul\":4471:4486   */\n  mstore\n    /* \"#utility.yul\":4505:4509   */\n  0x24\n    /* \"#utility.yul\":4502:4503   */\n  0x00\n    /* \"#utility.yul\":4495:4510   */\n  revert\n    /* \"#utility.yul\":4522:4842   */\ntag_42:\n    /* \"#utility.yul\":4566:4572   */\n  0x00\n    /* \"#utility.yul\":4603:4604   */\n  0x02\n    /* \"#utility.yul\":4597:4601   */\n  dup3\n    /* \"#utility.yul\":4593:4605   */\n  div\n    /* \"#utility.yul\":4583:4605   */\n  swap1\n  pop\n    /* \"#utility.yul\":4650:4651   */\n  0x01\n    /* \"#utility.yul\":4644:4648   */\n  dup3\n    /* \"#utility.yul\":4640:4652   */\n  and\n    /* \"#utility.yul\":4671:4689   */\n  dup1\n    /* \"#utility.yul\":4661:4742   */\n  tag_114\n  jumpi\n    /* \"#utility.yul\":4727:4731   */\n  0x7f\n    /* \"#utility.yul\":4719:4725   */\n  dup3\n    /* \"#utility.yul\":4715:4732   */\n  and\n    /* \"#utility.yul\":4705:4732   */\n  swap2\n  pop\n    /* \"#utility.yul\":4661:4742   */\ntag_114:\n    /* \"#utility.yul\":4789:4791   */\n  0x20\n    /* \"#utility.yul\":4781:4787   */\n  dup3\n    /* \"#utility.yul\":4778:4792   */\n  lt\n    /* \"#utility.yul\":4758:4776   */\n  dup2\n    /* \"#utility.yul\":4755:4793   */\n  sub\n    /* \"#utility.yul\":4752:4836   */\n  tag_115\n  jumpi\n    /* \"#utility.yul\":4808:4826   */\n  tag_116\n  tag_41\n  jump\t// in\ntag_116:\n    /* \"#utility.yul\":4752:4836   */\ntag_115:\n    /* \"#utility.yul\":4573:4842   */\n  pop\n    /* \"#utility.yul\":4522:4842   */\n  swap2\n  swap1\n  pop\n  jump\t// out\n    /* \"#utility.yul\":4848:4989   */\ntag_43:\n    /* \"#utility.yul\":4897:4901   */\n  0x00\n    /* \"#utility.yul\":4920:4923   */\n  dup2\n    /* \"#utility.yul\":4912:4923   */\n  swap1\n  pop\n    /* \"#utility.yul\":4943:4946   */\n  dup2\n    /* \"#utility.yul\":4940:4941   */\n  0x00\n    /* \"#utility.yul\":4933:4947   */\n  mstore\n    /* \"#utility.yul\":4977:4981   */\n  0x20\n    /* \"#utility.yul\":4974:4975   */\n  0x00\n    /* \"#utility.yul\":4964:4982   */\n  keccak256\n    /* \"#utility.yul\":4956:4982   */\n  swap1\n  pop\n    /* \"#utility.yul\":4848:4989   */\n  swap2\n  swap1\n  pop\n  jump\t// out\n    /* \"#utility.yul\":4995:5088   */\ntag_44:\n    /* \"#utility.yul\":5032:5038   */\n  0x00\n    /* \"#utility.yul\":5079:5081   */\n  0x20\n    /* \"#utility.yul\":5074:5076   */\n  0x1f\n    /* \"#utility.yul\":5067:5072   */\n  dup4\n    /* \"#utility.yul\":5063:5077   */\n  add\n    /* \"#utility.yul\":5059:5082   */\n  div\n    /* \"#utility.yul\":5049:5082   */\n  swap1\n  pop\n    /* \"#utility.yul\":4995:5088   */\n  swap2\n  swap1\n  pop\n  jump\t// out\n    /* \"#utility.yul\":5094:5201   */\ntag_45:\n    /* \"#utility.yul\":5138:5146   */\n  0x00\n    /* \"#utility.yul\":5188:5193   */\n  dup3\n    /* \"#utility.yul\":5182:5186   */\n  dup3\n    /* \"#utility.yul\":5178:5194   */\n  shl\n    /* \"#utility.yul\":5157:5194   */\n  swap1\n  pop\n    /* \"#utility.yul\":5094:5201   */\n  swap3\n  swap2\n  pop\n  pop\n  jump\t// out\n    /* \"#utility.yul\":5207:5600   */\ntag_46:\n    /* \"#utility.yul\":5276:5282   */\n  0x00\n    /* \"#utility.yul\":5326:5327   */\n  0x08\n    /* \"#utility.yul\":5314:5324   */\n  dup4\n    /* \"#utility.yul\":5310:5328   */\n  mul\n    /* \"#utility.yul\":5349:5446   */\n  tag_121\n    /* \"#utility.yul\":5379:5445   */\n  0xffffffffffffffffffffffffffffffffffffffffffffffffffffffffffffffff\n    /* \"#utility.yul\":5368:5377   */\n  dup3\n    /* \"#utility.yul\":5349:5446   */\n  tag_45\n  jump\t// in\ntag_121:\n    /* \"#utility.yul\":5467:5506   */\n  tag_122\n    /* \"#utility.yul\":5497:5505   */\n  dup7\n    /* \"#utility.yul\":5486:5495   */\n  dup4\n    /* \"#utility.yul\":5467:5506   */\n  tag_45\n  jump\t// in\ntag_122:\n    /* \"#utility.yul\":5455:5506   */\n  swap6\n  pop\n    /* \"#utility.yul\":5539:5543   */\n  dup1\n    /* \"#utility.yul\":5535:5544   */\n  not\n    /* \"#utility.yul\":5528:5533   */\n  dup5\n    /* \"#utility.yul\":5524:5545   */\n  and\n    /* \"#utility.yul\":5515:5545   */\n  swap4\n  pop\n    /* \"#utility.yul\":5588:5592   */\n  dup1\n    /* \"#utility.yul\":5578:5586   */\n  dup7\n    /* \"#utility.yul\":5574:5593   */\n  and\n    /* \"#utility.yul\":5567:5572   */\n  dup5\n    /* \"#utility.yul\":5564:5594   */\n  or\n    /* \"#utility.yul\":5554:5594   */\n  swap3\n  pop\n    /* \"#utility.yul\":5283:5600   */\n  pop\n  pop\n    /* \"#utility.yul\":5207:5600   */\n  swap4\n  swap3\n  pop\n  pop\n  pop\n  jump\t// out\n    /* \"#utility.yul\":5606:5683   */\ntag_47:\n    /* \"#utility.yul\":5643:5650   */\n  0x00\n    /* \"#utility.yul\":5672:5677   */\n  dup2\n    /* \"#utility.yul\":5661:5677   */\n  swap1\n  pop\n    /* \"#utility.yul\":5606:5683   */\n  swap2\n  swap1\n  pop\n  jump\t// out\n    /* \"#utility.yul\":5689:5749   */\ntag_48:\n    /* \"#utility.yul\":5717:5720   */\n  0x00\n    /* \"#utility.yul\":5738:5743   */\n  dup2\n    /* \"#utility.yul\":5731:5743   */\n  swap1\n  pop\n    /* \"#utility.yul\":5689:5749   */\n  swap2\n  swap1\n  pop\n  jump\t// out\n    /* \"#utility.yul\":5755:5897   */\ntag_49:\n    /* \"#utility.yul\":5805:5814   */\n  0x00\n    /* \"#utility.yul\":5838:5891   */\n  tag_126\n    /* \"#utility.yul\":5856:5890   */\n  tag_127\n    /* \"#utility.yul\":5865:5889   */\n  tag_128\n    /* \"#utility.yul\":5883:5888   */\n  dup5\n    /* \"#utility.yul\":5865:5889   */\n  tag_47\n  jump\t// in\ntag_128:\n    /* \"#utility.yul\":5856:5890   */\n  tag_48\n  jump\t// in\ntag_127:\n    /* \"#utility.yul\":5838:5891   */\n  tag_47\n  jump\t// in\ntag_126:\n    /* \"#utility.yul\":5825:5891   */\n  swap1\n  pop\n    /* \"#utility.yul\":5755:5897   */\n  swap2\n  swap1\n  pop\n  jump\t// out\n    /* \"#utility.yul\":5903:5978   */\ntag_50:\n    /* \"#utility.yul\":5946:5949   */\n  0x00\n    /* \"#utility.yul\":5967:5972   */\n  dup2\n    /* \"#utility.yul\":5960:5972   */\n  swap1\n  pop\n    /* \"#utility.yul\":5903:5978   */\n  swap2\n  swap1\n  pop\n  jump\t// out\n    /* \"#utility.yul\":5984:6253   */\ntag_51:\n    /* \"#utility.yul\":6094:6133   */\n  tag_131\n    /* \"#utility.yul\":6125:6132   */\n  dup4\n    /* \"#utility.yul\":6094:6133   */\n  tag_49\n  jump\t// in\ntag_131:\n    /* \"#utility.yul\":6155:6246   */\n  tag_132\n    /* \"#utility.yul\":6204:6245   */\n  tag_133\n    /* \"#utility.yul\":6228:6244   */\n  dup3\n    /* \"#utility.yul\":6204:6245   */\n  tag_50\n  jump\t// in\ntag_133:\n    /* \"#utility.yul\":6196:6202   */\n  dup5\n    /* \"#utility.yul\":6189:6193   */\n  dup5\n    /* \"#utility.yul\":6183:6194   */\n  sload\n    /* \"#utility.yul\":6155:6246   */\n  tag_46\n  jump\t// in\ntag_132:\n    /* \"#utility.yul\":6149:6153   */\n  dup3\n    /* \"#utility.yul\":6142:6247   */\n  sstore\n    /* \"#utility.yul\":6060:6253   */\n  pop\n    /* \"#utility.yul\":5984:6253   */\n  pop\n  pop\n  pop\n  jump\t// out\n    /* \"#utility.yul\":6259:6332   */\ntag_52:\n    /* \"#utility.yul\":6304:6307   */\n  0x00\n    /* \"#utility.yul\":6259:6332   */\n  swap1\n  jump\t// out\n    /* \"#utility.yul\":6338:6527   */\ntag_53:\n    /* \"#utility.yul\":6415:6447   */\n  tag_136\n  tag_52\n  jump\t// in\ntag_136:\n    /* \"#utility.yul\":6456:6521   */\n  tag_137\n    /* \"#utility.yul\":6514:6520   */\n  dup2\n    /* \"#utility.yul\":6506:6512   */\n  dup5\n    /* \"#utility.yul\":6500:6504   */\n  dup5\n    /* \"#utility.yul\":6456:6521   */\n  tag_51\n  jump\t// in\ntag_137:\n    /* \"#utility.yul\":6391:6527   */\n  pop\n    /* \"#utility.yul\":6338:6527   */\n  pop\n  pop\n  jump\t// out\n    /* \"#utility.yul\":6533:6719   */\ntag_54:\n    /* \"#utility.yul\":6593:6713   */\ntag_139:\n    /* \"#utility.yul\":6610:6613   */\n  dup2\n    /* \"#utility.yul\":6603:6608   */\n  dup2\n    /* \"#utility.yul\":6600:6614   */\n  lt\n    /* \"#utility.yul\":6593:6713   */\n  iszero\n  tag_141\n  jumpi\n    /* \"#utility.yul\":6664:6703   */\n  tag_142\n    /* \"#utility.yul\":6701:6702   */\n  0x00\n    /* \"#utility.yul\":6694:6699   */\n  dup3\n    /* \"#utility.yul\":6664:6703   */\n  tag_53\n  jump\t// in\ntag_142:\n    /* \"#utility.yul\":6637:6638   */\n  0x01\n    /* \"#utility.yul\":6630:6635   */\n  dup2\n    /* \"#utility.yul\":6626:6639   */\n  add\n    /* \"#utility.yul\":6617:6639   */\n  swap1\n  pop\n    /* \"#utility.yul\":6593:6713   */\n  jump(tag_139)\ntag_141:\n    /* \"#utility.yul\":6533:6719   */\n  pop\n  pop\n  jump\t// out\n    /* \"#utility.yul\":6725:7268   */\ntag_55:\n    /* \"#utility.yul\":6826:6828   */\n  0x1f\n    /* \"#utility.yul\":6821:6824   */\n  dup3\n    /* \"#utility.yul\":6818:6829   */\n  gt\n    /* \"#utility.yul\":6815:7261   */\n  iszero\n  tag_144\n  jumpi\n    /* \"#utility.yul\":6860:6898   */\n  tag_145\n    /* \"#utility.yul\":6892:6897   */\n  dup2\n    /* \"#utility.yul\":6860:6898   */\n  tag_43\n  jump\t// in\ntag_145:\n    /* \"#utility.yul\":6944:6973   */\n  tag_146\n    /* \"#utility.yul\":6962:6972   */\n  dup5\n    /* \"#utility.yul\":6944:6973   */\n  tag_44\n  jump\t// in\ntag_146:\n    /* \"#utility.yul\":6934:6942   */\n  dup2\n    /* \"#utility.yul\":6930:6974   */\n  add\n    /* \"#utility.yul\":7127:7129   */\n  0x20\n    /* \"#utility.yul\":7115:7125   */\n  dup6\n    /* \"#utility.yul\":7112:7130   */\n  lt\n    /* \"#utility.yul\":7109:7158   */\n  iszero\n  tag_147\n  jumpi\n    /* \"#utility.yul\":7148:7156   */\n  dup2\n    /* \"#utility.yul\":7133:7156   */\n  swap1\n  pop\n    /* \"#utility.yul\":7109:7158   */\ntag_147:\n    /* \"#utility.yul\":7171:7251   */\n  tag_148\n    /* \"#utility.yul\":7227:7249   */\n  tag_149\n    /* \"#utility.yul\":7245:7248   */\n  dup6\n    /* \"#utility.yul\":7227:7249   */\n  tag_44\n  jump\t// in\ntag_149:\n    /* \"#utility.yul\":7217:7225   */\n  dup4\n    /* \"#utility.yul\":7213:7250   */\n  add\n    /* \"#utility.yul\":7200:7211   */\n  dup3\n    /* \"#utility.yul\":7171:7251   */\n  tag_54\n  jump\t// in\ntag_148:\n    /* \"#utility.yul\":6830:7261   */\n  pop\n  pop\n    /* \"#utility.yul\":6815:7261   */\ntag_144:\n    /* \"#utility.yul\":6725:7268   */\n  pop\n  pop\n  pop\n  jump\t// out\n    /* \"#utility.yul\":7274:7391   */\ntag_56:\n    /* \"#utility.yul\":7328:7336   */\n  0x00\n    /* \"#utility.yul\":7378:7383   */\n  dup3\n    /* \"#utility.yul\":7372:7376   */\n  dup3\n    /* \"#utility.yul\":7368:7384   */\n  shr\n    /* \"#utility.yul\":7347:7384   */\n  swap1\n  pop\n    /* \"#utility.yul\":7274:7391   */\n  swap3\n  swap2\n  pop\n  pop\n  jump\t// out\n    /* \"#utility.yul\":7397:7566   */\ntag_57:\n    /* \"#utility.yul\":7441:7447   */\n  0x00\n    /* \"#utility.yul\":7474:7525   */\n  tag_152\n    /* \"#utility.yul\":7522:7523   */\n  0x00\n    /* \"#utility.yul\":7518:7524   */\n  not\n    /* \"#utility.yul\":7510:7515   */\n  dup5\n    /* \"#utility.yul\":7507:7508   */\n  0x08\n    /* \"#utility.yul\":7503:7516   */\n  mul\n    /* \"#utility.yul\":7474:7525   */\n  tag_56\n  jump\t// in\ntag_152:\n    /* \"#utility.yul\":7470:7526   */\n  not\n    /* \"#utility.yul\":7555:7559   */\n  dup1\n    /* \"#utility.yul\":7549:7553   */\n  dup4\n    /* \"#utility.yul\":7545:7560   */\n  and\n    /* \"#utility.yul\":7535:7560   */\n  swap2\n  pop\n    /* \"#utility.yul\":7448:7566   */\n  pop\n    /* \"#utility.yul\":7397:7566   */\n  swap3\n  swap2\n  pop\n  pop\n  jump\t// out\n    /* \"#utility.yul\":7571:7866   */\ntag_58:\n    /* \"#utility.yul\":7647:7651   */\n  0x00\n    /* \"#utility.yul\":7793:7822   */\n  tag_154\n    /* \"#utility.yul\":7818:7821   */\n  dup4\n    /* \"#utility.yul\":7812:7816   */\n  dup4\n    /* \"#utility.yul\":7793:7822   */\n  tag_57\n  jump\t// in\ntag_154:\n    /* \"#utility.yul\":7785:7822   */\n  swap2\n  pop\n    /* \"#utility.yul\":7855:7858   */\n  dup3\n    /* \"#utility.yul\":7852:7853   */\n  0x02\n    /* \"#utility.yul\":7848:7859   */\n  mul\n    /* \"#utility.yul\":7842:7846   */\n  dup3\n    /* \"#utility.yul\":7839:7860   */\n  or\n    /* \"#utility.yul\":7831:7860   */\n  swap1\n  pop\n    /* \"#utility.yul\":7571:7866   */\n  swap3\n  swap2\n  pop\n  pop\n  jump\t// out\n    /* \"#utility.yul\":7871:9266   */\ntag_19:\n    /* \"#utility.yul\":7988:8025   */\n  tag_156\n    /* \"#utility.yul\":8021:8024   */\n  dup3\n    /* \"#utility.yul\":7988:8025   */\n  tag_40\n  jump\t// in\ntag_156:\n    /* \"#utility.yul\":8090:8108   */\n  0xffffffffffffffff\n    /* \"#utility.yul\":8082:8088   */\n  dup2\n    /* \"#utility.yul\":8079:8109   */\n  gt\n    /* \"#utility.yul\":8076:8132   */\n  iszero\n  tag_157\n  jumpi\n    /* \"#utility.yul\":8112:8130   */\n  tag_158\n  tag_33\n  jump\t// in\ntag_158:\n    /* \"#utility.yul\":8076:8132   */\ntag_157:\n    /* \"#utility.yul\":8156:8194   */\n  tag_159\n    /* \"#utility.yul\":8188:8192   */\n  dup3\n    /* \"#utility.yul\":8182:8193   */\n  sload\n    /* \"#utility.yul\":8156:8194   */\n  tag_42\n  jump\t// in\ntag_159:\n    /* \"#utility.yul\":8241:8308   */\n  tag_160\n    /* \"#utility.yul\":8301:8307   */\n  dup3\n    /* \"#utility.yul\":8293:8299   */\n  dup3\n    /* \"#utility.yul\":8287:8291   */\n  dup6\n    /* \"#utility.yul\":8241:8308   */\n  tag_55\n  jump\t// in\ntag_160:\n    /* \"#utility.yul\":8335:8336   */\n  0x00\n    /* \"#utility.yul\":8359:8363   */\n  0x20\n    /* \"#utility.yul\":8346:8363   */\n  swap1\n  pop\n    /* \"#utility.yul\":8391:8393   */\n  0x1f\n    /* \"#utility.yul\":8383:8389   */\n  dup4\n    /* \"#utility.yul\":8380:8394   */\n  gt\n    /* \"#utility.yul\":8408:8409   */\n  0x01\n    /* \"#utility.yul\":8403:9021   */\n  dup2\n  eq\n  tag_162\n  jumpi\n    /* \"#utility.yul\":9065:9066   */\n  0x00\n    /* \"#utility.yul\":9082:9088   */\n  dup5\n    /* \"#utility.yul\":9079:9156   */\n  iszero\n  tag_163\n  jumpi\n    /* \"#utility.yul\":9131:9140   */\n  dup3\n    /* \"#utility.yul\":9126:9129   */\n  dup8\n    /* \"#utility.yul\":9122:9141   */\n  add\n    /* \"#utility.yul\":9116:9142   */\n  mload\n    /* \"#utility.yul\":9107:9142   */\n  swap1\n  pop\n    /* \"#utility.yul\":9079:9156   */\ntag_163:\n    /* \"#utility.yul\":9182:9249   */\n  tag_164\n    /* \"#utility.yul\":9242:9248   */\n  dup6\n    /* \"#utility.yul\":9235:9240   */\n  dup3\n    /* \"#utility.yul\":9182:9249   */\n  tag_58\n  jump\t// in\ntag_164:\n    /* \"#utility.yul\":9176:9180   */\n  dup7\n    /* \"#utility.yul\":9169:9250   */\n  sstore\n    /* \"#utility.yul\":9038:9260   */\n  pop\n    /* \"#utility.yul\":8373:9260   */\n  jump(tag_161)\n    /* \"#utility.yul\":8403:9021   */\ntag_162:\n    /* \"#utility.yul\":8455:8459   */\n  0x1f\n    /* \"#utility.yul\":8451:8460   */\n  not\n    /* \"#utility.yul\":8443:8449   */\n  dup5\n    /* \"#utility.yul\":8439:8461   */\n  and\n    /* \"#utility.yul\":8489:8526   */\n  tag_165\n    /* \"#utility.yul\":8521:8525   */\n  dup7\n    /* \"#utility.yul\":8489:8526   */\n  tag_43\n  jump\t// in\ntag_165:\n    /* \"#utility.yul\":8548:8549   */\n  0x00\n    /* \"#utility.yul\":8562:8770   */\ntag_166:\n    /* \"#utility.yul\":8576:8583   */\n  dup3\n    /* \"#utility.yul\":8573:8574   */\n  dup2\n    /* \"#utility.yul\":8570:8584   */\n  lt\n    /* \"#utility.yul\":8562:8770   */\n  iszero\n  tag_168\n  jumpi\n    /* \"#utility.yul\":8655:8664   */\n  dup5\n    /* \"#utility.yul\":8650:8653   */\n  dup10\n    /* \"#utility.yul\":8646:8665   */\n  add\n    /* \"#utility.yul\":8640:8666   */\n  mload\n    /* \"#utility.yul\":8632:8638   */\n  dup3\n    /* \"#utility.yul\":8625:8667   */\n  sstore\n    /* \"#utility.yul\":8706:8707   */\n  0x01\n    /* \"#utility.yul\":8698:8704   */\n  dup3\n    /* \"#utility.yul\":8694:8708   */\n  add\n    /* \"#utility.yul\":8684:8708   */\n  swap2\n  pop\n    /* \"#utility.yul\":8753:8755   */\n  0x20\n    /* \"#utility.yul\":8742:8751   */\n  dup6\n    /* \"#utility.yul\":8738:8756   */\n  add\n    /* \"#utility.yul\":8725:8756   */\n  swap5\n  pop\n    /* \"#utility.yul\":8599:8603   */\n  0x20\n    /* \"#utility.yul\":8596:8597   */\n  dup2\n    /* \"#utility.yul\":8592:8604   */\n  add\n    /* \"#utility.yul\":8587:8604   */\n  swap1\n  pop\n    /* \"#utility.yul\":8562:8770   */\n  jump(tag_166)\ntag_168:\n    /* \"#utility.yul\":8798:8804   */\n  dup7\n    /* \"#utility.yul\":8789:8796   */\n  dup4\n    /* \"#utility.yul\":8786:8805   */\n  lt\n    /* \"#utility.yul\":8783:8962   */\n  iszero\n  tag_169\n  jumpi\n    /* \"#utility.yul\":8856:8865   */\n  dup5\n    /* \"#utility.yul\":8851:8854   */\n  dup10\n    /* \"#utility.yul\":8847:8866   */\n  add\n    /* \"#utility.yul\":8841:8867   */\n  mload\n    /* \"#utility.yul\":8899:8947   */\n  tag_170\n    /* \"#utility.yul\":8941:8945   */\n  0x1f\n    /* \"#utility.yul\":8933:8939   */\n  dup10\n    /* \"#utility.yul\":8929:8946   */\n  and\n    /* \"#utility.yul\":8918:8927   */\n  dup3\n    /* \"#utility.yul\":8899:8947   */\n  tag_57\n  jump\t// in\ntag_170:\n    /* \"#utility.yul\":8891:8897   */\n  dup4\n    /* \"#utility.yul\":8884:8948   */\n  sstore\n    /* \"#utility.yul\":8806:8962   */\n  pop\n    /* \"#utility.yul\":8783:8962   */\ntag_169:\n    /* \"#utility.yul\":9008:9009   */\n  0x01\n    /* \"#utility.yul\":9004:9005   */\n  0x02\n    /* \"#utility.yul\":8996:9002   */\n  dup9\n    /* \"#utility.yul\":8992:9006   */\n  mul\n    /* \"#utility.yul\":8988:9010   */\n  add\n    /* \"#utility.yul\":8982:8986   */\n  dup9\n    /* \"#utility.yul\":8975:9011   */\n  sstore\n    /* \"#utility.yul\":8410:9021   */\n  pop\n  pop\n  pop\n    /* \"#utility.yul\":8373:9260   */\ntag_161:\n  pop\n    /* \"#utility.yul\":7963:9266   */\n  pop\n  pop\n  pop\n    /* \"#utility.yul\":7871:9266   */\n  pop\n  pop\n  jump\t// out\n    /* \"ptrn_eco_system_dev_contracts/contracts_ready_for_prod/PtrnEcosystemParticipationV1_0.sol\":778:12059  contract TokenEcoSystemParticipation is Pausable, Ownable {... */\ntag_20:\n  mload(0x80)\n  mload(0xa0)\n  codecopy(0x00, dataOffset(sub_0), dataSize(sub_0))\n  0x00\n  assignImmutable(\"0xb5f9271c1f94b43badbaa8ac2cd5837eef4d124f89532d652ed47c9751211dfb\")\n  0x00\n  assignImmutable(\"0x0e3aca62610a5b0e63dde37200dde7058c17f1af9615a3280f1e4361486f8ebc\")\n  return(0x00, dataSize(sub_0))\nstop\n\nsub_0: assembly {\n        /* \"ptrn_eco_system_dev_contracts/contracts_ready_for_prod/PtrnEcosystemParticipationV1_0.sol\":778:12059  contract TokenEcoSystemParticipation is Pausable, Ownable {... */\n      mstore(0x40, 0x80)\n      callvalue\n      dup1\n      iszero\n      tag_1\n      jumpi\n      0x00\n      dup1\n      revert\n    tag_1:\n      pop\n      jumpi(tag_2, lt(calldatasize, 0x04))\n      shr(0xe0, calldataload(0x00))\n      dup1\n      0x722713f7\n      gt\n      tag_30\n      jumpi\n      dup1\n      0xb99152d0\n      gt\n      tag_31\n      jumpi\n      dup1\n      0xe8088766\n      gt\n      tag_32\n      jumpi\n      dup1\n      0xe8088766\n      eq\n      tag_26\n      jumpi\n      dup1\n      0xed969c84\n      eq\n      tag_27\n      jumpi\n      dup1\n      0xf2fde38b\n      eq\n      tag_28\n      jumpi\n      dup1\n      0xf9850907\n      eq\n      tag_29\n      jumpi\n      jump(tag_2)\n    tag_32:\n      dup1\n      0xb99152d0\n      eq\n      tag_23\n      jumpi\n      dup1\n      0xba007e75\n      eq\n      tag_24\n      jumpi\n      dup1\n      0xe6367ebe\n      eq\n      tag_25\n      jumpi\n      jump(tag_2)\n    tag_31:\n      dup1\n      0xa24723e8\n      gt\n      tag_33\n      jumpi\n      dup1\n      0xa24723e8\n      eq\n      tag_19\n      jumpi\n      dup1\n      0xa684ab5c\n      eq\n      tag_20\n      jumpi\n      dup1\n      0xabb1dc44\n      eq\n      tag_21\n      jumpi\n      dup1\n      0xb0b5e39e\n      eq\n      tag_22\n      jumpi\n      jump(tag_2)\n    tag_33:\n      dup1\n      0x722713f7\n      eq\n      tag_16\n      jumpi\n      dup1\n      0x7754723e\n      eq\n      tag_17\n      jumpi\n      dup1\n      0x8da5cb5b\n      eq\n      tag_18\n      jumpi\n      jump(tag_2)\n    tag_30:\n      dup1\n      0x0f15f4c0\n      gt\n      tag_34\n      jumpi\n      dup1\n      0x51b42b00\n      gt\n      tag_35\n      jumpi\n      dup1\n      0x51b42b00\n      eq\n      tag_12\n      jumpi\n      dup1\n      0x5c975abb\n      eq\n      tag_13\n      jumpi\n      dup1\n      0x6a9d43dd\n      eq\n      tag_14\n      jumpi\n      dup1\n      0x715018a6\n      eq\n      tag_15\n      jumpi\n      jump(tag_2)\n    tag_35:\n      dup1\n      0x0f15f4c0\n      eq\n      tag_9\n      jumpi\n      dup1\n      0x2af0e251\n      eq\n      tag_10\n      jumpi\n      dup1\n      0x390885f7\n      eq\n      tag_11\n      jumpi\n      jump(tag_2)\n    tag_34:\n      dup1\n      0xf714ce\n      eq\n      tag_3\n      jumpi\n      dup1\n      0x046f7da2\n      eq\n      tag_4\n      jumpi\n      dup1\n      0x07da68f5\n      eq\n      tag_5\n      jumpi\n      dup1\n      0x08fadcb0\n      eq\n      tag_6\n      jumpi\n      dup1\n      0x0a6cb062\n      eq\n      tag_7\n      jumpi\n      dup1\n      0x0ba2f1d8\n      eq\n      tag_8\n      jumpi\n    tag_2:\n      0x00\n      dup1\n      revert\n        /* \"ptrn_eco_system_dev_contracts/contracts_ready_for_prod/PtrnEcosystemParticipationV1_0.sol\":8008:8493  function withdraw(uint256 value, address wallet) public onlyOwner {... */\n    tag_3:\n      tag_36\n      0x04\n      dup1\n      calldatasize\n      sub\n      dup2\n      add\n      swap1\n      tag_37\n      swap2\n      swap1\n      tag_38\n      jump\t// in\n    tag_37:\n      tag_39\n      jump\t// in\n    tag_36:\n      stop\n        /* \"ptrn_eco_system_dev_contracts/contracts_ready_for_prod/PtrnEcosystemParticipationV1_0.sol\":3644:3717  function resume() public whenPaused onlyOwner {... */\n    tag_4:\n      tag_40\n      tag_41\n      jump\t// in\n    tag_40:\n      stop\n        /* \"ptrn_eco_system_dev_contracts/contracts_ready_for_prod/PtrnEcosystemParticipationV1_0.sol\":3566:3638  function stop() public whenNotPaused onlyOwner {... */\n    tag_5:\n      tag_42\n      tag_43\n      jump\t// in\n    tag_42:\n      stop\n        /* \"ptrn_eco_system_dev_contracts/contracts_ready_for_prod/PtrnEcosystemParticipationV1_0.sol\":9975:10132  function getAcceptedSenderAddress()... */\n    tag_6:\n      tag_44\n      tag_45\n      jump\t// in\n    tag_44:\n      mload(0x40)\n      tag_46\n      swap2\n      swap1\n      tag_47\n      jump\t// in\n    tag_46:\n      mload(0x40)\n      dup1\n      swap2\n      sub\n      swap1\n      return\n        /* \"ptrn_eco_system_dev_contracts/contracts_ready_for_prod/PtrnEcosystemParticipationV1_0.sol\":3773:4052  function addNewAggregatorPriceFeed(address _ConsumerInterfaceAddress)... */\n    tag_7:\n      tag_48\n      0x04\n      dup1\n      calldatasize\n      sub\n      dup2\n      add\n      swap1\n      tag_49\n      swap2\n      swap1\n      tag_50\n      jump\t// in\n    tag_49:\n      tag_51\n      jump\t// in\n    tag_48:\n      stop\n        /* \"ptrn_eco_system_dev_contracts/contracts_ready_for_prod/PtrnEcosystemParticipationV1_0.sol\":3310:3560  function changeAcceptedSenderAddress(address newAcceptedSender)... */\n    tag_8:\n      tag_52\n      0x04\n      dup1\n      calldatasize\n      sub\n      dup2\n      add\n      swap1\n      tag_53\n      swap2\n      swap1\n      tag_50\n      jump\t// in\n    tag_53:\n      tag_54\n      jump\t// in\n    tag_52:\n      stop\n        /* \"ptrn_eco_system_dev_contracts/contracts_ready_for_prod/PtrnEcosystemParticipationV1_0.sol\":2715:3025  function activate() public whenNotPaused {... */\n    tag_9:\n      tag_55\n      tag_56\n      jump\t// in\n    tag_55:\n      stop\n        /* \"ptrn_eco_system_dev_contracts/contracts_ready_for_prod/PtrnEcosystemParticipationV1_0.sol\":9016:9189  function getTotalBurnedTokens()... */\n    tag_10:\n      tag_57\n      tag_58\n      jump\t// in\n    tag_57:\n      mload(0x40)\n      tag_59\n      swap2\n      swap1\n      tag_60\n      jump\t// in\n    tag_59:\n      mload(0x40)\n      dup1\n      swap2\n      sub\n      swap1\n      return\n        /* \"ptrn_eco_system_dev_contracts/contracts_ready_for_prod/PtrnEcosystemParticipationV1_0.sol\":8560:8939  function initiateBulkMint() public onlyOwner {... */\n    tag_11:\n      tag_61\n      tag_62\n      jump\t// in\n    tag_61:\n      stop\n        /* \"ptrn_eco_system_dev_contracts/contracts_ready_for_prod/PtrnEcosystemParticipationV1_0.sol\":3079:3252  function deactivate() public activated onlyAuthorized whenNotPaused {... */\n    tag_12:\n      tag_63\n      tag_64\n      jump\t// in\n    tag_63:\n      stop\n        /* \"@openzeppelin/contracts/security/Pausable.sol\":1615:1699  function paused() public view virtual returns (bool) {... */\n    tag_13:\n      tag_65\n      tag_66\n      jump\t// in\n    tag_65:\n      mload(0x40)\n      tag_67\n      swap2\n      swap1\n      tag_68\n      jump\t// in\n    tag_67:\n      mload(0x40)\n      dup1\n      swap2\n      sub\n      swap1\n      return\n        /* \"ptrn_eco_system_dev_contracts/contracts_ready_for_prod/PtrnEcosystemParticipationV1_0.sol\":7648:7942  function transferOfToken(... */\n    tag_14:\n      tag_69\n      0x04\n      dup1\n      calldatasize\n      sub\n      dup2\n      add\n      swap1\n      tag_70\n      swap2\n      swap1\n      tag_71\n      jump\t// in\n    tag_70:\n      tag_72\n      jump\t// in\n    tag_69:\n      mload(0x40)\n      tag_73\n      swap2\n      swap1\n      tag_68\n      jump\t// in\n    tag_73:\n      mload(0x40)\n      dup1\n      swap2\n      sub\n      swap1\n      return\n        /* \"@openzeppelin/contracts/access/Ownable.sol\":1831:1932  function renounceOwnership() public virtual onlyOwner {... */\n    tag_15:\n      tag_74\n      tag_75\n      jump\t// in\n    tag_74:\n      stop\n        /* \"ptrn_eco_system_dev_contracts/contracts_ready_for_prod/PtrnEcosystemParticipationV1_0.sol\":7107:7222  function balanceOf() public view onlyOwner returns (uint256) {... */\n    tag_16:\n      tag_76\n      tag_77\n      jump\t// in\n    tag_76:\n      mload(0x40)\n      tag_78\n      swap2\n      swap1\n      tag_60\n      jump\t// in\n    tag_78:\n      mload(0x40)\n      dup1\n      swap2\n      sub\n      swap1\n      return\n        /* \"ptrn_eco_system_dev_contracts/contracts_ready_for_prod/PtrnEcosystemParticipationV1_0.sol\":5259:5628  function calculateAmount(... */\n    tag_17:\n      tag_79\n      0x04\n      dup1\n      calldatasize\n      sub\n      dup2\n      add\n      swap1\n      tag_80\n      swap2\n      swap1\n      tag_81\n      jump\t// in\n    tag_80:\n      tag_82\n      jump\t// in\n    tag_79:\n      mload(0x40)\n      tag_83\n      swap2\n      swap1\n      tag_60\n      jump\t// in\n    tag_83:\n      mload(0x40)\n      dup1\n      swap2\n      sub\n      swap1\n      return\n        /* \"@openzeppelin/contracts/access/Ownable.sol\":1201:1286  function owner() public view virtual returns (address) {... */\n    tag_18:\n      tag_84\n      tag_85\n      jump\t// in\n    tag_84:\n      mload(0x40)\n      tag_86\n      swap2\n      swap1\n      tag_47\n      jump\t// in\n    tag_86:\n      mload(0x40)\n      dup1\n      swap2\n      sub\n      swap1\n      return\n        /* \"ptrn_eco_system_dev_contracts/contracts_ready_for_prod/PtrnEcosystemParticipationV1_0.sol\":9762:9933  function getDailyWithdraw()... */\n    tag_19:\n      tag_87\n      tag_88\n      jump\t// in\n    tag_87:\n      mload(0x40)\n      tag_89\n      swap2\n      swap1\n      tag_60\n      jump\t// in\n    tag_89:\n      mload(0x40)\n      dup1\n      swap2\n      sub\n      swap1\n      return\n        /* \"ptrn_eco_system_dev_contracts/contracts_ready_for_prod/PtrnEcosystemParticipationV1_0.sol\":9288:9467  function getTotalPointsGenerated()... */\n    tag_20:\n      tag_90\n      tag_91\n      jump\t// in\n    tag_90:\n      mload(0x40)\n      tag_92\n      swap2\n      swap1\n      tag_60\n      jump\t// in\n    tag_92:\n      mload(0x40)\n      dup1\n      swap2\n      sub\n      swap1\n      return\n        /* \"ptrn_eco_system_dev_contracts/contracts_ready_for_prod/PtrnEcosystemParticipationV1_0.sol\":10392:10573  function getTokenInfo()... */\n    tag_21:\n      tag_93\n      tag_94\n      jump\t// in\n    tag_93:\n      mload(0x40)\n      tag_95\n      swap3\n      swap2\n      swap1\n      tag_96\n      jump\t// in\n    tag_95:\n      mload(0x40)\n      dup1\n      swap2\n      sub\n      swap1\n      return\n        /* \"ptrn_eco_system_dev_contracts/contracts_ready_for_prod/PtrnEcosystemParticipationV1_0.sol\":4129:4367  function addNewPoolRateFeed(address _ConsumerInterfaceAddress)... */\n    tag_22:\n      tag_97\n      0x04\n      dup1\n      calldatasize\n      sub\n      dup2\n      add\n      swap1\n      tag_98\n      swap2\n      swap1\n      tag_50\n      jump\t// in\n    tag_98:\n      tag_99\n      jump\t// in\n    tag_97:\n      stop\n        /* \"ptrn_eco_system_dev_contracts/contracts_ready_for_prod/PtrnEcosystemParticipationV1_0.sol\":7350:7541  function balanceOfToken(address tokenAddress)... */\n    tag_23:\n      tag_100\n      0x04\n      dup1\n      calldatasize\n      sub\n      dup2\n      add\n      swap1\n      tag_101\n      swap2\n      swap1\n      tag_50\n      jump\t// in\n    tag_101:\n      tag_102\n      jump\t// in\n    tag_100:\n      mload(0x40)\n      tag_103\n      swap2\n      swap1\n      tag_60\n      jump\t// in\n    tag_103:\n      mload(0x40)\n      dup1\n      swap2\n      sub\n      swap1\n      return\n        /* \"ptrn_eco_system_dev_contracts/contracts_ready_for_prod/PtrnEcosystemParticipationV1_0.sol\":10225:10327  function getInitialActivationAddress() public view returns (address) {... */\n    tag_24:\n      tag_104\n      tag_105\n      jump\t// in\n    tag_104:\n      mload(0x40)\n      tag_106\n      swap2\n      swap1\n      tag_47\n      jump\t// in\n    tag_106:\n      mload(0x40)\n      dup1\n      swap2\n      sub\n      swap1\n      return\n        /* \"ptrn_eco_system_dev_contracts/contracts_ready_for_prod/PtrnEcosystemParticipationV1_0.sol\":4959:5158  function currentRateFeed() public view onlyOwner returns (string memory) {... */\n    tag_25:\n      tag_107\n      tag_108\n      jump\t// in\n    tag_107:\n      mload(0x40)\n      tag_109\n      swap2\n      swap1\n      tag_110\n      jump\t// in\n    tag_109:\n      mload(0x40)\n      dup1\n      swap2\n      sub\n      swap1\n      return\n        /* \"ptrn_eco_system_dev_contracts/contracts_ready_for_prod/PtrnEcosystemParticipationV1_0.sol\":4441:4912  function changeRateFeed() public onlyOwner {... */\n    tag_26:\n      tag_111\n      tag_112\n      jump\t// in\n    tag_111:\n      stop\n        /* \"ptrn_eco_system_dev_contracts/contracts_ready_for_prod/PtrnEcosystemParticipationV1_0.sol\":5759:6986  function chargeContract(uint256 amount)... */\n    tag_27:\n      tag_113\n      0x04\n      dup1\n      calldatasize\n      sub\n      dup2\n      add\n      swap1\n      tag_114\n      swap2\n      swap1\n      tag_115\n      jump\t// in\n    tag_114:\n      tag_116\n      jump\t// in\n    tag_113:\n      mload(0x40)\n      tag_117\n      swap2\n      swap1\n      tag_68\n      jump\t// in\n    tag_117:\n      mload(0x40)\n      dup1\n      swap2\n      sub\n      swap1\n      return\n        /* \"@openzeppelin/contracts/access/Ownable.sol\":2081:2279  function transferOwnership(address newOwner) public virtual onlyOwner {... */\n    tag_28:\n      tag_118\n      0x04\n      dup1\n      calldatasize\n      sub\n      dup2\n      add\n      swap1\n      tag_119\n      swap2\n      swap1\n      tag_50\n      jump\t// in\n    tag_119:\n      tag_120\n      jump\t// in\n    tag_118:\n      stop\n        /* \"ptrn_eco_system_dev_contracts/contracts_ready_for_prod/PtrnEcosystemParticipationV1_0.sol\":9509:9693  function getCurrentPointsBalance()... */\n    tag_29:\n      tag_121\n      tag_122\n      jump\t// in\n    tag_121:\n      mload(0x40)\n      tag_123\n      swap2\n      swap1\n      tag_60\n      jump\t// in\n    tag_123:\n      mload(0x40)\n      dup1\n      swap2\n      sub\n      swap1\n      return\n        /* \"ptrn_eco_system_dev_contracts/contracts_ready_for_prod/PtrnEcosystemParticipationV1_0.sol\":8008:8493  function withdraw(uint256 value, address wallet) public onlyOwner {... */\n    tag_39:\n        /* \"@openzeppelin/contracts/access/Ownable.sol\":1094:1107  _checkOwner() */\n      tag_125\n        /* \"@openzeppelin/contracts/access/Ownable.sol\":1094:1105  _checkOwner */\n      tag_126\n        /* \"@openzeppelin/contracts/access/Ownable.sol\":1094:1107  _checkOwner() */\n      jump\t// in\n    tag_125:\n        /* \"ptrn_eco_system_dev_contracts/contracts_ready_for_prod/PtrnEcosystemParticipationV1_0.sol\":8136:8149  dailyWithdraw */\n      sload(0x06)\n        /* \"ptrn_eco_system_dev_contracts/contracts_ready_for_prod/PtrnEcosystemParticipationV1_0.sol\":8114:8133  availableToWithdraw */\n      sload(0x05)\n        /* \"ptrn_eco_system_dev_contracts/contracts_ready_for_prod/PtrnEcosystemParticipationV1_0.sol\":8114:8149  availableToWithdraw - dailyWithdraw */\n      tag_128\n      swap2\n      swap1\n      tag_129\n      jump\t// in\n    tag_128:\n        /* \"ptrn_eco_system_dev_contracts/contracts_ready_for_prod/PtrnEcosystemParticipationV1_0.sol\":8105:8110  value */\n      dup3\n        /* \"ptrn_eco_system_dev_contracts/contracts_ready_for_prod/PtrnEcosystemParticipationV1_0.sol\":8105:8149  value <= availableToWithdraw - dailyWithdraw */\n      gt\n      iszero\n        /* \"ptrn_eco_system_dev_contracts/contracts_ready_for_prod/PtrnEcosystemParticipationV1_0.sol\":8272:8284  TOKEN_SYMBOL */\n      0x01\n        /* \"ptrn_eco_system_dev_contracts/contracts_ready_for_prod/PtrnEcosystemParticipationV1_0.sol\":8163:8319  string.concat(... */\n      add(0x20, mload(0x40))\n      tag_130\n      swap2\n      swap1\n      tag_131\n      jump\t// in\n    tag_130:\n      mload(0x40)\n      0x20\n      dup2\n      dup4\n      sub\n      sub\n      dup2\n      mstore\n      swap1\n      0x40\n      mstore\n        /* \"ptrn_eco_system_dev_contracts/contracts_ready_for_prod/PtrnEcosystemParticipationV1_0.sol\":8084:8329  require(... */\n      swap1\n      tag_132\n      jumpi\n      mload(0x40)\n      0x08c379a000000000000000000000000000000000000000000000000000000000\n      dup2\n      mstore\n      0x04\n      add\n      tag_133\n      swap2\n      swap1\n      tag_110\n      jump\t// in\n    tag_133:\n      mload(0x40)\n      dup1\n      swap2\n      sub\n      swap1\n      revert\n    tag_132:\n      pop\n        /* \"ptrn_eco_system_dev_contracts/contracts_ready_for_prod/PtrnEcosystemParticipationV1_0.sol\":8355:8356  0 */\n      0x00\n        /* \"ptrn_eco_system_dev_contracts/contracts_ready_for_prod/PtrnEcosystemParticipationV1_0.sol\":8347:8352  value */\n      dup3\n        /* \"ptrn_eco_system_dev_contracts/contracts_ready_for_prod/PtrnEcosystemParticipationV1_0.sol\":8347:8356  value > 0 */\n      gt\n        /* \"ptrn_eco_system_dev_contracts/contracts_ready_for_prod/PtrnEcosystemParticipationV1_0.sol\":8339:8399  require(value > 0, \"Withdraw value must be greater than 0!\") */\n      tag_134\n      jumpi\n      mload(0x40)\n      0x08c379a000000000000000000000000000000000000000000000000000000000\n      dup2\n      mstore\n      0x04\n      add\n      tag_135\n      swap1\n      tag_136\n      jump\t// in\n    tag_135:\n      mload(0x40)\n      dup1\n      swap2\n      sub\n      swap1\n      revert\n    tag_134:\n        /* \"ptrn_eco_system_dev_contracts/contracts_ready_for_prod/PtrnEcosystemParticipationV1_0.sol\":8426:8431  value */\n      dup2\n        /* \"ptrn_eco_system_dev_contracts/contracts_ready_for_prod/PtrnEcosystemParticipationV1_0.sol\":8409:8422  dailyWithdraw */\n      0x06\n      0x00\n        /* \"ptrn_eco_system_dev_contracts/contracts_ready_for_prod/PtrnEcosystemParticipationV1_0.sol\":8409:8431  dailyWithdraw += value */\n      dup3\n      dup3\n      sload\n      tag_137\n      swap2\n      swap1\n      tag_138\n      jump\t// in\n    tag_137:\n      swap3\n      pop\n      pop\n      dup2\n      swap1\n      sstore\n      pop\n        /* \"ptrn_eco_system_dev_contracts/contracts_ready_for_prod/PtrnEcosystemParticipationV1_0.sol\":8479:8485  wallet */\n      dup1\n        /* \"ptrn_eco_system_dev_contracts/contracts_ready_for_prod/PtrnEcosystemParticipationV1_0.sol\":8446:8486  Withdraw(block.timestamp, value, wallet) */\n      0xffffffffffffffffffffffffffffffffffffffff\n      and\n        /* \"ptrn_eco_system_dev_contracts/contracts_ready_for_prod/PtrnEcosystemParticipationV1_0.sol\":8455:8470  block.timestamp */\n      timestamp\n        /* \"ptrn_eco_system_dev_contracts/contracts_ready_for_prod/PtrnEcosystemParticipationV1_0.sol\":8446:8486  Withdraw(block.timestamp, value, wallet) */\n      0x71ef96c43343734b1d843bb85d52ef329f5e9143e4d35827771e3b0dd90c5f84\n        /* \"ptrn_eco_system_dev_contracts/contracts_ready_for_prod/PtrnEcosystemParticipationV1_0.sol\":8472:8477  value */\n      dup5\n        /* \"ptrn_eco_system_dev_contracts/contracts_ready_for_prod/PtrnEcosystemParticipationV1_0.sol\":8446:8486  Withdraw(block.timestamp, value, wallet) */\n      mload(0x40)\n      tag_139\n      swap2\n      swap1\n      tag_60\n      jump\t// in\n    tag_139:\n      mload(0x40)\n      dup1\n      swap2\n      sub\n      swap1\n      log3\n        /* \"ptrn_eco_system_dev_contracts/contracts_ready_for_prod/PtrnEcosystemParticipationV1_0.sol\":8008:8493  function withdraw(uint256 value, address wallet) public onlyOwner {... */\n      pop\n      pop\n      jump\t// out\n        /* \"ptrn_eco_system_dev_contracts/contracts_ready_for_prod/PtrnEcosystemParticipationV1_0.sol\":3644:3717  function resume() public whenPaused onlyOwner {... */\n    tag_41:\n        /* \"@openzeppelin/contracts/security/Pausable.sol\":1486:1502  _requirePaused() */\n      tag_141\n        /* \"@openzeppelin/contracts/security/Pausable.sol\":1486:1500  _requirePaused */\n      tag_142\n        /* \"@openzeppelin/contracts/security/Pausable.sol\":1486:1502  _requirePaused() */\n      jump\t// in\n    tag_141:\n        /* \"@openzeppelin/contracts/access/Ownable.sol\":1094:1107  _checkOwner() */\n      tag_144\n        /* \"@openzeppelin/contracts/access/Ownable.sol\":1094:1105  _checkOwner */\n      tag_126\n        /* \"@openzeppelin/contracts/access/Ownable.sol\":1094:1107  _checkOwner() */\n      jump\t// in\n    tag_144:\n        /* \"ptrn_eco_system_dev_contracts/contracts_ready_for_prod/PtrnEcosystemParticipationV1_0.sol\":3700:3710  _unpause() */\n      tag_146\n        /* \"ptrn_eco_system_dev_contracts/contracts_ready_for_prod/PtrnEcosystemParticipationV1_0.sol\":3700:3708  _unpause */\n      tag_147\n        /* \"ptrn_eco_system_dev_contracts/contracts_ready_for_prod/PtrnEcosystemParticipationV1_0.sol\":3700:3710  _unpause() */\n      jump\t// in\n    tag_146:\n        /* \"ptrn_eco_system_dev_contracts/contracts_ready_for_prod/PtrnEcosystemParticipationV1_0.sol\":3644:3717  function resume() public whenPaused onlyOwner {... */\n      jump\t// out\n        /* \"ptrn_eco_system_dev_contracts/contracts_ready_for_prod/PtrnEcosystemParticipationV1_0.sol\":3566:3638  function stop() public whenNotPaused onlyOwner {... */\n    tag_43:\n        /* \"@openzeppelin/contracts/security/Pausable.sol\":1239:1258  _requireNotPaused() */\n      tag_149\n        /* \"@openzeppelin/contracts/security/Pausable.sol\":1239:1256  _requireNotPaused */\n      tag_150\n        /* \"@openzeppelin/contracts/security/Pausable.sol\":1239:1258  _requireNotPaused() */\n      jump\t// in\n    tag_149:\n        /* \"@openzeppelin/contracts/access/Ownable.sol\":1094:1107  _checkOwner() */\n      tag_152\n        /* \"@openzeppelin/contracts/access/Ownable.sol\":1094:1105  _checkOwner */\n      tag_126\n        /* \"@openzeppelin/contracts/access/Ownable.sol\":1094:1107  _checkOwner() */\n      jump\t// in\n    tag_152:\n        /* \"ptrn_eco_system_dev_contracts/contracts_ready_for_prod/PtrnEcosystemParticipationV1_0.sol\":3623:3631  _pause() */\n      tag_154\n        /* \"ptrn_eco_system_dev_contracts/contracts_ready_for_prod/PtrnEcosystemParticipationV1_0.sol\":3623:3629  _pause */\n      tag_155\n        /* \"ptrn_eco_system_dev_contracts/contracts_ready_for_prod/PtrnEcosystemParticipationV1_0.sol\":3623:3631  _pause() */\n      jump\t// in\n    tag_154:\n        /* \"ptrn_eco_system_dev_contracts/contracts_ready_for_prod/PtrnEcosystemParticipationV1_0.sol\":3566:3638  function stop() public whenNotPaused onlyOwner {... */\n      jump\t// out\n        /* \"ptrn_eco_system_dev_contracts/contracts_ready_for_prod/PtrnEcosystemParticipationV1_0.sol\":9975:10132  function getAcceptedSenderAddress()... */\n    tag_45:\n        /* \"ptrn_eco_system_dev_contracts/contracts_ready_for_prod/PtrnEcosystemParticipationV1_0.sol\":10074:10081  address */\n      0x00\n        /* \"ptrn_eco_system_dev_contracts/contracts_ready_for_prod/PtrnEcosystemParticipationV1_0.sol\":2151:2152  0 */\n      dup1\n        /* \"ptrn_eco_system_dev_contracts/contracts_ready_for_prod/PtrnEcosystemParticipationV1_0.sol\":2118:2153  acceptedSenderAddress != address(0) */\n      0xffffffffffffffffffffffffffffffffffffffff\n      and\n        /* \"ptrn_eco_system_dev_contracts/contracts_ready_for_prod/PtrnEcosystemParticipationV1_0.sol\":2118:2139  acceptedSenderAddress */\n      0x02\n      0x00\n      swap1\n      sload\n      swap1\n      0x0100\n      exp\n      swap1\n      div\n      0xffffffffffffffffffffffffffffffffffffffff\n      and\n        /* \"ptrn_eco_system_dev_contracts/contracts_ready_for_prod/PtrnEcosystemParticipationV1_0.sol\":2118:2153  acceptedSenderAddress != address(0) */\n      0xffffffffffffffffffffffffffffffffffffffff\n      and\n      sub\n        /* \"ptrn_eco_system_dev_contracts/contracts_ready_for_prod/PtrnEcosystemParticipationV1_0.sol\":2110:2172  require(acceptedSenderAddress != address(0), \"Not activated!\") */\n      tag_157\n      jumpi\n      mload(0x40)\n      0x08c379a000000000000000000000000000000000000000000000000000000000\n      dup2\n      mstore\n      0x04\n      add\n      tag_158\n      swap1\n      tag_159\n      jump\t// in\n    tag_158:\n      mload(0x40)\n      dup1\n      swap2\n      sub\n      swap1\n      revert\n    tag_157:\n        /* \"ptrn_eco_system_dev_contracts/contracts_ready_for_prod/PtrnEcosystemParticipationV1_0.sol\":10104:10125  acceptedSenderAddress */\n      0x02\n      0x00\n      swap1\n      sload\n      swap1\n      0x0100\n      exp\n      swap1\n      div\n      0xffffffffffffffffffffffffffffffffffffffff\n      and\n        /* \"ptrn_eco_system_dev_contracts/contracts_ready_for_prod/PtrnEcosystemParticipationV1_0.sol\":10097:10125  return acceptedSenderAddress */\n      swap1\n      pop\n        /* \"ptrn_eco_system_dev_contracts/contracts_ready_for_prod/PtrnEcosystemParticipationV1_0.sol\":9975:10132  function getAcceptedSenderAddress()... */\n      swap1\n      jump\t// out\n        /* \"ptrn_eco_system_dev_contracts/contracts_ready_for_prod/PtrnEcosystemParticipationV1_0.sol\":3773:4052  function addNewAggregatorPriceFeed(address _ConsumerInterfaceAddress)... */\n    tag_51:\n        /* \"@openzeppelin/contracts/access/Ownable.sol\":1094:1107  _checkOwner() */\n      tag_162\n        /* \"@openzeppelin/contracts/access/Ownable.sol\":1094:1105  _checkOwner */\n      tag_126\n        /* \"@openzeppelin/contracts/access/Ownable.sol\":1094:1107  _checkOwner() */\n      jump\t// in\n    tag_162:\n        /* \"ptrn_eco_system_dev_contracts/contracts_ready_for_prod/PtrnEcosystemParticipationV1_0.sol\":3935:3936  0 */\n      0x00\n        /* \"ptrn_eco_system_dev_contracts/contracts_ready_for_prod/PtrnEcosystemParticipationV1_0.sol\":3898:3937  _ConsumerInterfaceAddress != address(0) */\n      0xffffffffffffffffffffffffffffffffffffffff\n      and\n        /* \"ptrn_eco_system_dev_contracts/contracts_ready_for_prod/PtrnEcosystemParticipationV1_0.sol\":3898:3923  _ConsumerInterfaceAddress */\n      dup2\n        /* \"ptrn_eco_system_dev_contracts/contracts_ready_for_prod/PtrnEcosystemParticipationV1_0.sol\":3898:3937  _ConsumerInterfaceAddress != address(0) */\n      0xffffffffffffffffffffffffffffffffffffffff\n      and\n      sub\n        /* \"ptrn_eco_system_dev_contracts/contracts_ready_for_prod/PtrnEcosystemParticipationV1_0.sol\":3890:3938  require(_ConsumerInterfaceAddress != address(0)) */\n      tag_164\n      jumpi\n      0x00\n      dup1\n      revert\n    tag_164:\n        /* \"ptrn_eco_system_dev_contracts/contracts_ready_for_prod/PtrnEcosystemParticipationV1_0.sol\":4010:4035  _ConsumerInterfaceAddress */\n      dup1\n        /* \"ptrn_eco_system_dev_contracts/contracts_ready_for_prod/PtrnEcosystemParticipationV1_0.sol\":3948:3966  aggregatorConsumer */\n      0x07\n      0x00\n        /* \"ptrn_eco_system_dev_contracts/contracts_ready_for_prod/PtrnEcosystemParticipationV1_0.sol\":3948:4045  aggregatorConsumer = AggregatorConsumerInterface(... */\n      0x0100\n      exp\n      dup2\n      sload\n      dup2\n      0xffffffffffffffffffffffffffffffffffffffff\n      mul\n      not\n      and\n      swap1\n      dup4\n      0xffffffffffffffffffffffffffffffffffffffff\n      and\n      mul\n      or\n      swap1\n      sstore\n      pop\n        /* \"ptrn_eco_system_dev_contracts/contracts_ready_for_prod/PtrnEcosystemParticipationV1_0.sol\":3773:4052  function addNewAggregatorPriceFeed(address _ConsumerInterfaceAddress)... */\n      pop\n      jump\t// out\n        /* \"ptrn_eco_system_dev_contracts/contracts_ready_for_prod/PtrnEcosystemParticipationV1_0.sol\":3310:3560  function changeAcceptedSenderAddress(address newAcceptedSender)... */\n    tag_54:\n        /* \"ptrn_eco_system_dev_contracts/contracts_ready_for_prod/PtrnEcosystemParticipationV1_0.sol\":2151:2152  0 */\n      0x00\n        /* \"ptrn_eco_system_dev_contracts/contracts_ready_for_prod/PtrnEcosystemParticipationV1_0.sol\":2118:2153  acceptedSenderAddress != address(0) */\n      0xffffffffffffffffffffffffffffffffffffffff\n      and\n        /* \"ptrn_eco_system_dev_contracts/contracts_ready_for_prod/PtrnEcosystemParticipationV1_0.sol\":2118:2139  acceptedSenderAddress */\n      0x02\n      0x00\n      swap1\n      sload\n      swap1\n      0x0100\n      exp\n      swap1\n      div\n      0xffffffffffffffffffffffffffffffffffffffff\n      and\n        /* \"ptrn_eco_system_dev_contracts/contracts_ready_for_prod/PtrnEcosystemParticipationV1_0.sol\":2118:2153  acceptedSenderAddress != address(0) */\n      0xffffffffffffffffffffffffffffffffffffffff\n      and\n      sub\n        /* \"ptrn_eco_system_dev_contracts/contracts_ready_for_prod/PtrnEcosystemParticipationV1_0.sol\":2110:2172  require(acceptedSenderAddress != address(0), \"Not activated!\") */\n      tag_166\n      jumpi\n      mload(0x40)\n      0x08c379a000000000000000000000000000000000000000000000000000000000\n      dup2\n      mstore\n      0x04\n      add\n      tag_167\n      swap1\n      tag_159\n      jump\t// in\n    tag_167:\n      mload(0x40)\n      dup1\n      swap2\n      sub\n      swap1\n      revert\n    tag_166:\n        /* \"ptrn_eco_system_dev_contracts/contracts_ready_for_prod/PtrnEcosystemParticipationV1_0.sol\":2014:2035  acceptedSenderAddress */\n      0x02\n      0x00\n      swap1\n      sload\n      swap1\n      0x0100\n      exp\n      swap1\n      div\n      0xffffffffffffffffffffffffffffffffffffffff\n      and\n        /* \"ptrn_eco_system_dev_contracts/contracts_ready_for_prod/PtrnEcosystemParticipationV1_0.sol\":2000:2035  msg.sender == acceptedSenderAddress */\n      0xffffffffffffffffffffffffffffffffffffffff\n      and\n        /* \"ptrn_eco_system_dev_contracts/contracts_ready_for_prod/PtrnEcosystemParticipationV1_0.sol\":2000:2010  msg.sender */\n      caller\n        /* \"ptrn_eco_system_dev_contracts/contracts_ready_for_prod/PtrnEcosystemParticipationV1_0.sol\":2000:2035  msg.sender == acceptedSenderAddress */\n      0xffffffffffffffffffffffffffffffffffffffff\n      and\n      eq\n        /* \"ptrn_eco_system_dev_contracts/contracts_ready_for_prod/PtrnEcosystemParticipationV1_0.sol\":1992:2055  require(msg.sender == acceptedSenderAddress, \"Not Authorized!\") */\n      tag_169\n      jumpi\n      mload(0x40)\n      0x08c379a000000000000000000000000000000000000000000000000000000000\n      dup2\n      mstore\n      0x04\n      add\n      tag_170\n      swap1\n      tag_171\n      jump\t// in\n    tag_170:\n      mload(0x40)\n      dup1\n      swap2\n      sub\n      swap1\n      revert\n    tag_169:\n        /* \"ptrn_eco_system_dev_contracts/contracts_ready_for_prod/PtrnEcosystemParticipationV1_0.sol\":2151:2152  0 */\n      0x00\n        /* \"ptrn_eco_system_dev_contracts/contracts_ready_for_prod/PtrnEcosystemParticipationV1_0.sol\":2118:2153  acceptedSenderAddress != address(0) */\n      0xffffffffffffffffffffffffffffffffffffffff\n      and\n        /* \"ptrn_eco_system_dev_contracts/contracts_ready_for_prod/PtrnEcosystemParticipationV1_0.sol\":2118:2139  acceptedSenderAddress */\n      0x02\n      0x00\n      swap1\n      sload\n      swap1\n      0x0100\n      exp\n      swap1\n      div\n      0xffffffffffffffffffffffffffffffffffffffff\n      and\n        /* \"ptrn_eco_system_dev_contracts/contracts_ready_for_prod/PtrnEcosystemParticipationV1_0.sol\":2118:2153  acceptedSenderAddress != address(0) */\n      0xffffffffffffffffffffffffffffffffffffffff\n      and\n      sub\n        /* \"ptrn_eco_system_dev_contracts/contracts_ready_for_prod/PtrnEcosystemParticipationV1_0.sol\":2110:2172  require(acceptedSenderAddress != address(0), \"Not activated!\") */\n      tag_173\n      jumpi\n      mload(0x40)\n      0x08c379a000000000000000000000000000000000000000000000000000000000\n      dup2\n      mstore\n      0x04\n      add\n      tag_174\n      swap1\n      tag_159\n      jump\t// in\n    tag_174:\n      mload(0x40)\n      dup1\n      swap2\n      sub\n      swap1\n      revert\n    tag_173:\n        /* \"ptrn_eco_system_dev_contracts/contracts_ready_for_prod/PtrnEcosystemParticipationV1_0.sol\":3499:3500  0 */\n      0x00\n        /* \"ptrn_eco_system_dev_contracts/contracts_ready_for_prod/PtrnEcosystemParticipationV1_0.sol\":3470:3501  newAcceptedSender != address(0) */\n      0xffffffffffffffffffffffffffffffffffffffff\n      and\n        /* \"ptrn_eco_system_dev_contracts/contracts_ready_for_prod/PtrnEcosystemParticipationV1_0.sol\":3470:3487  newAcceptedSender */\n      dup2\n        /* \"ptrn_eco_system_dev_contracts/contracts_ready_for_prod/PtrnEcosystemParticipationV1_0.sol\":3470:3501  newAcceptedSender != address(0) */\n      0xffffffffffffffffffffffffffffffffffffffff\n      and\n      sub\n        /* \"ptrn_eco_system_dev_contracts/contracts_ready_for_prod/PtrnEcosystemParticipationV1_0.sol\":3462:3502  require(newAcceptedSender != address(0)) */\n      tag_176\n      jumpi\n      0x00\n      dup1\n      revert\n    tag_176:\n        /* \"ptrn_eco_system_dev_contracts/contracts_ready_for_prod/PtrnEcosystemParticipationV1_0.sol\":3536:3553  newAcceptedSender */\n      dup1\n        /* \"ptrn_eco_system_dev_contracts/contracts_ready_for_prod/PtrnEcosystemParticipationV1_0.sol\":3512:3533  acceptedSenderAddress */\n      0x02\n      0x00\n        /* \"ptrn_eco_system_dev_contracts/contracts_ready_for_prod/PtrnEcosystemParticipationV1_0.sol\":3512:3553  acceptedSenderAddress = newAcceptedSender */\n      0x0100\n      exp\n      dup2\n      sload\n      dup2\n      0xffffffffffffffffffffffffffffffffffffffff\n      mul\n      not\n      and\n      swap1\n      dup4\n      0xffffffffffffffffffffffffffffffffffffffff\n      and\n      mul\n      or\n      swap1\n      sstore\n      pop\n        /* \"ptrn_eco_system_dev_contracts/contracts_ready_for_prod/PtrnEcosystemParticipationV1_0.sol\":3310:3560  function changeAcceptedSenderAddress(address newAcceptedSender)... */\n      pop\n      jump\t// out\n        /* \"ptrn_eco_system_dev_contracts/contracts_ready_for_prod/PtrnEcosystemParticipationV1_0.sol\":2715:3025  function activate() public whenNotPaused {... */\n    tag_56:\n        /* \"@openzeppelin/contracts/security/Pausable.sol\":1239:1258  _requireNotPaused() */\n      tag_178\n        /* \"@openzeppelin/contracts/security/Pausable.sol\":1239:1256  _requireNotPaused */\n      tag_150\n        /* \"@openzeppelin/contracts/security/Pausable.sol\":1239:1258  _requireNotPaused() */\n      jump\t// in\n    tag_178:\n        /* \"ptrn_eco_system_dev_contracts/contracts_ready_for_prod/PtrnEcosystemParticipationV1_0.sol\":2787:2797  msg.sender */\n      caller\n        /* \"ptrn_eco_system_dev_contracts/contracts_ready_for_prod/PtrnEcosystemParticipationV1_0.sol\":2774:2797  ACTIVATOR == msg.sender */\n      0xffffffffffffffffffffffffffffffffffffffff\n      and\n        /* \"ptrn_eco_system_dev_contracts/contracts_ready_for_prod/PtrnEcosystemParticipationV1_0.sol\":2774:2783  ACTIVATOR */\n      immutable(\"0x0e3aca62610a5b0e63dde37200dde7058c17f1af9615a3280f1e4361486f8ebc\")\n        /* \"ptrn_eco_system_dev_contracts/contracts_ready_for_prod/PtrnEcosystemParticipationV1_0.sol\":2774:2797  ACTIVATOR == msg.sender */\n      0xffffffffffffffffffffffffffffffffffffffff\n      and\n      eq\n        /* \"ptrn_eco_system_dev_contracts/contracts_ready_for_prod/PtrnEcosystemParticipationV1_0.sol\":2766:2835  require(ACTIVATOR == msg.sender, \"Can't activate with this address!\") */\n      tag_180\n      jumpi\n      mload(0x40)\n      0x08c379a000000000000000000000000000000000000000000000000000000000\n      dup2\n      mstore\n      0x04\n      add\n      tag_181\n      swap1\n      tag_182\n      jump\t// in\n    tag_181:\n      mload(0x40)\n      dup1\n      swap2\n      sub\n      swap1\n      revert\n    tag_180:\n        /* \"ptrn_eco_system_dev_contracts/contracts_ready_for_prod/PtrnEcosystemParticipationV1_0.sol\":2886:2887  0 */\n      0x00\n        /* \"ptrn_eco_system_dev_contracts/contracts_ready_for_prod/PtrnEcosystemParticipationV1_0.sol\":2853:2888  acceptedSenderAddress == address(0) */\n      0xffffffffffffffffffffffffffffffffffffffff\n      and\n        /* \"ptrn_eco_system_dev_contracts/contracts_ready_for_prod/PtrnEcosystemParticipationV1_0.sol\":2853:2874  acceptedSenderAddress */\n      0x02\n      0x00\n      swap1\n      sload\n      swap1\n      0x0100\n      exp\n      swap1\n      div\n      0xffffffffffffffffffffffffffffffffffffffff\n      and\n        /* \"ptrn_eco_system_dev_contracts/contracts_ready_for_prod/PtrnEcosystemParticipationV1_0.sol\":2853:2888  acceptedSenderAddress == address(0) */\n      0xffffffffffffffffffffffffffffffffffffffff\n      and\n      eq\n        /* \"ptrn_eco_system_dev_contracts/contracts_ready_for_prod/PtrnEcosystemParticipationV1_0.sol\":2845:2911  require(acceptedSenderAddress == address(0), \"Already activated.\") */\n      tag_183\n      jumpi\n      mload(0x40)\n      0x08c379a000000000000000000000000000000000000000000000000000000000\n      dup2\n      mstore\n      0x04\n      add\n      tag_184\n      swap1\n      tag_185\n      jump\t// in\n    tag_184:\n      mload(0x40)\n      dup1\n      swap2\n      sub\n      swap1\n      revert\n    tag_183:\n        /* \"ptrn_eco_system_dev_contracts/contracts_ready_for_prod/PtrnEcosystemParticipationV1_0.sol\":2945:2955  msg.sender */\n      caller\n        /* \"ptrn_eco_system_dev_contracts/contracts_ready_for_prod/PtrnEcosystemParticipationV1_0.sol\":2921:2942  acceptedSenderAddress */\n      0x02\n      0x00\n        /* \"ptrn_eco_system_dev_contracts/contracts_ready_for_prod/PtrnEcosystemParticipationV1_0.sol\":2921:2955  acceptedSenderAddress = msg.sender */\n      0x0100\n      exp\n      dup2\n      sload\n      dup2\n      0xffffffffffffffffffffffffffffffffffffffff\n      mul\n      not\n      and\n      swap1\n      dup4\n      0xffffffffffffffffffffffffffffffffffffffff\n      and\n      mul\n      or\n      swap1\n      sstore\n      pop\n        /* \"ptrn_eco_system_dev_contracts/contracts_ready_for_prod/PtrnEcosystemParticipationV1_0.sol\":2979:3000  acceptedSenderAddress */\n      0x02\n      0x00\n      swap1\n      sload\n      swap1\n      0x0100\n      exp\n      swap1\n      div\n      0xffffffffffffffffffffffffffffffffffffffff\n      and\n        /* \"ptrn_eco_system_dev_contracts/contracts_ready_for_prod/PtrnEcosystemParticipationV1_0.sol\":2970:3018  Activate(acceptedSenderAddress, block.timestamp) */\n      0xffffffffffffffffffffffffffffffffffffffff\n      and\n      0xfbd0a3f6e9a0dd5f834515748047e83de8064477489a0a0d6b59c64bbecc992a\n        /* \"ptrn_eco_system_dev_contracts/contracts_ready_for_prod/PtrnEcosystemParticipationV1_0.sol\":3002:3017  block.timestamp */\n      timestamp\n        /* \"ptrn_eco_system_dev_contracts/contracts_ready_for_prod/PtrnEcosystemParticipationV1_0.sol\":2970:3018  Activate(acceptedSenderAddress, block.timestamp) */\n      mload(0x40)\n      tag_186\n      swap2\n      swap1\n      tag_60\n      jump\t// in\n    tag_186:\n      mload(0x40)\n      dup1\n      swap2\n      sub\n      swap1\n      log2\n        /* \"ptrn_eco_system_dev_contracts/contracts_ready_for_prod/PtrnEcosystemParticipationV1_0.sol\":2715:3025  function activate() public whenNotPaused {... */\n      jump\t// out\n        /* \"ptrn_eco_system_dev_contracts/contracts_ready_for_prod/PtrnEcosystemParticipationV1_0.sol\":9016:9189  function getTotalBurnedTokens()... */\n    tag_58:\n        /* \"ptrn_eco_system_dev_contracts/contracts_ready_for_prod/PtrnEcosystemParticipationV1_0.sol\":9141:9148  uint256 */\n      0x00\n        /* \"ptrn_eco_system_dev_contracts/contracts_ready_for_prod/PtrnEcosystemParticipationV1_0.sol\":2151:2152  0 */\n      dup1\n        /* \"ptrn_eco_system_dev_contracts/contracts_ready_for_prod/PtrnEcosystemParticipationV1_0.sol\":2118:2153  acceptedSenderAddress != address(0) */\n      0xffffffffffffffffffffffffffffffffffffffff\n      and\n        /* \"ptrn_eco_system_dev_contracts/contracts_ready_for_prod/PtrnEcosystemParticipationV1_0.sol\":2118:2139  acceptedSenderAddress */\n      0x02\n      0x00\n      swap1\n      sload\n      swap1\n      0x0100\n      exp\n      swap1\n      div\n      0xffffffffffffffffffffffffffffffffffffffff\n      and\n        /* \"ptrn_eco_system_dev_contracts/contracts_ready_for_prod/PtrnEcosystemParticipationV1_0.sol\":2118:2153  acceptedSenderAddress != address(0) */\n      0xffffffffffffffffffffffffffffffffffffffff\n      and\n      sub\n        /* \"ptrn_eco_system_dev_contracts/contracts_ready_for_prod/PtrnEcosystemParticipationV1_0.sol\":2110:2172  require(acceptedSenderAddress != address(0), \"Not activated!\") */\n      tag_188\n      jumpi\n      mload(0x40)\n      0x08c379a000000000000000000000000000000000000000000000000000000000\n      dup2\n      mstore\n      0x04\n      add\n      tag_189\n      swap1\n      tag_159\n      jump\t// in\n    tag_189:\n      mload(0x40)\n      dup1\n      swap2\n      sub\n      swap1\n      revert\n    tag_188:\n        /* \"ptrn_eco_system_dev_contracts/contracts_ready_for_prod/PtrnEcosystemParticipationV1_0.sol\":2275:2296  acceptedSenderAddress */\n      0x02\n      0x00\n      swap1\n      sload\n      swap1\n      0x0100\n      exp\n      swap1\n      div\n      0xffffffffffffffffffffffffffffffffffffffff\n      and\n        /* \"ptrn_eco_system_dev_contracts/contracts_ready_for_prod/PtrnEcosystemParticipationV1_0.sol\":2261:2296  msg.sender == acceptedSenderAddress */\n      0xffffffffffffffffffffffffffffffffffffffff\n      and\n        /* \"ptrn_eco_system_dev_contracts/contracts_ready_for_prod/PtrnEcosystemParticipationV1_0.sol\":2261:2271  msg.sender */\n      caller\n        /* \"ptrn_eco_system_dev_contracts/contracts_ready_for_prod/PtrnEcosystemParticipationV1_0.sol\":2261:2296  msg.sender == acceptedSenderAddress */\n      0xffffffffffffffffffffffffffffffffffffffff\n      and\n      eq\n        /* \"ptrn_eco_system_dev_contracts/contracts_ready_for_prod/PtrnEcosystemParticipationV1_0.sol\":2261:2321  msg.sender == acceptedSenderAddress || msg.sender == owner() */\n      dup1\n      tag_191\n      jumpi\n      pop\n        /* \"ptrn_eco_system_dev_contracts/contracts_ready_for_prod/PtrnEcosystemParticipationV1_0.sol\":2314:2321  owner() */\n      tag_192\n        /* \"ptrn_eco_system_dev_contracts/contracts_ready_for_prod/PtrnEcosystemParticipationV1_0.sol\":2314:2319  owner */\n      tag_85\n        /* \"ptrn_eco_system_dev_contracts/contracts_ready_for_prod/PtrnEcosystemParticipationV1_0.sol\":2314:2321  owner() */\n      jump\t// in\n    tag_192:\n        /* \"ptrn_eco_system_dev_contracts/contracts_ready_for_prod/PtrnEcosystemParticipationV1_0.sol\":2300:2321  msg.sender == owner() */\n      0xffffffffffffffffffffffffffffffffffffffff\n      and\n        /* \"ptrn_eco_system_dev_contracts/contracts_ready_for_prod/PtrnEcosystemParticipationV1_0.sol\":2300:2310  msg.sender */\n      caller\n        /* \"ptrn_eco_system_dev_contracts/contracts_ready_for_prod/PtrnEcosystemParticipationV1_0.sol\":2300:2321  msg.sender == owner() */\n      0xffffffffffffffffffffffffffffffffffffffff\n      and\n      eq\n        /* \"ptrn_eco_system_dev_contracts/contracts_ready_for_prod/PtrnEcosystemParticipationV1_0.sol\":2261:2321  msg.sender == acceptedSenderAddress || msg.sender == owner() */\n    tag_191:\n        /* \"ptrn_eco_system_dev_contracts/contracts_ready_for_prod/PtrnEcosystemParticipationV1_0.sol\":2239:2412  require(... */\n      tag_193\n      jumpi\n      mload(0x40)\n      0x08c379a000000000000000000000000000000000000000000000000000000000\n      dup2\n      mstore\n      0x04\n      add\n      tag_194\n      swap1\n      tag_195\n      jump\t// in\n    tag_194:\n      mload(0x40)\n      dup1\n      swap2\n      sub\n      swap1\n      revert\n    tag_193:\n        /* \"ptrn_eco_system_dev_contracts/contracts_ready_for_prod/PtrnEcosystemParticipationV1_0.sol\":9171:9182  totalBurned */\n      sload(0x03)\n        /* \"ptrn_eco_system_dev_contracts/contracts_ready_for_prod/PtrnEcosystemParticipationV1_0.sol\":9164:9182  return totalBurned */\n      swap1\n      pop\n        /* \"ptrn_eco_system_dev_contracts/contracts_ready_for_prod/PtrnEcosystemParticipationV1_0.sol\":9016:9189  function getTotalBurnedTokens()... */\n      swap1\n      jump\t// out\n        /* \"ptrn_eco_system_dev_contracts/contracts_ready_for_prod/PtrnEcosystemParticipationV1_0.sol\":8560:8939  function initiateBulkMint() public onlyOwner {... */\n    tag_62:\n        /* \"@openzeppelin/contracts/access/Ownable.sol\":1094:1107  _checkOwner() */\n      tag_198\n        /* \"@openzeppelin/contracts/access/Ownable.sol\":1094:1105  _checkOwner */\n      tag_126\n        /* \"@openzeppelin/contracts/access/Ownable.sol\":1094:1107  _checkOwner() */\n      jump\t// in\n    tag_198:\n        /* \"ptrn_eco_system_dev_contracts/contracts_ready_for_prod/PtrnEcosystemParticipationV1_0.sol\":8639:8640  0 */\n      0x00\n        /* \"ptrn_eco_system_dev_contracts/contracts_ready_for_prod/PtrnEcosystemParticipationV1_0.sol\":8623:8636  dailyWithdraw */\n      sload(0x06)\n        /* \"ptrn_eco_system_dev_contracts/contracts_ready_for_prod/PtrnEcosystemParticipationV1_0.sol\":8623:8640  dailyWithdraw > 0 */\n      gt\n        /* \"ptrn_eco_system_dev_contracts/contracts_ready_for_prod/PtrnEcosystemParticipationV1_0.sol\":8615:8665  require(dailyWithdraw > 0, \"Nothing to withdraw.\") */\n      tag_200\n      jumpi\n      mload(0x40)\n      0x08c379a000000000000000000000000000000000000000000000000000000000\n      dup2\n      mstore\n      0x04\n      add\n      tag_201\n      swap1\n      tag_202\n      jump\t// in\n    tag_201:\n      mload(0x40)\n      dup1\n      swap2\n      sub\n      swap1\n      revert\n    tag_200:\n        /* \"ptrn_eco_system_dev_contracts/contracts_ready_for_prod/PtrnEcosystemParticipationV1_0.sol\":8734:8735  0 */\n      0x00\n        /* \"ptrn_eco_system_dev_contracts/contracts_ready_for_prod/PtrnEcosystemParticipationV1_0.sol\":8718:8731  dailyWithdraw */\n      sload(0x06)\n        /* \"ptrn_eco_system_dev_contracts/contracts_ready_for_prod/PtrnEcosystemParticipationV1_0.sol\":8696:8715  availableToWithdraw */\n      sload(0x05)\n        /* \"ptrn_eco_system_dev_contracts/contracts_ready_for_prod/PtrnEcosystemParticipationV1_0.sol\":8696:8731  availableToWithdraw - dailyWithdraw */\n      tag_203\n      swap2\n      swap1\n      tag_129\n      jump\t// in\n    tag_203:\n        /* \"ptrn_eco_system_dev_contracts/contracts_ready_for_prod/PtrnEcosystemParticipationV1_0.sol\":8696:8735  availableToWithdraw - dailyWithdraw > 0 */\n      gt\n        /* \"ptrn_eco_system_dev_contracts/contracts_ready_for_prod/PtrnEcosystemParticipationV1_0.sol\":8675:8793  require(... */\n      tag_204\n      jumpi\n      mload(0x40)\n      0x08c379a000000000000000000000000000000000000000000000000000000000\n      dup2\n      mstore\n      0x04\n      add\n      tag_205\n      swap1\n      tag_206\n      jump\t// in\n    tag_205:\n      mload(0x40)\n      dup1\n      swap2\n      sub\n      swap1\n      revert\n    tag_204:\n        /* \"ptrn_eco_system_dev_contracts/contracts_ready_for_prod/PtrnEcosystemParticipationV1_0.sol\":8826:8839  dailyWithdraw */\n      sload(0x06)\n        /* \"ptrn_eco_system_dev_contracts/contracts_ready_for_prod/PtrnEcosystemParticipationV1_0.sol\":8803:8822  availableToWithdraw */\n      0x05\n      0x00\n        /* \"ptrn_eco_system_dev_contracts/contracts_ready_for_prod/PtrnEcosystemParticipationV1_0.sol\":8803:8839  availableToWithdraw -= dailyWithdraw */\n      dup3\n      dup3\n      sload\n      tag_207\n      swap2\n      swap1\n      tag_129\n      jump\t// in\n    tag_207:\n      swap3\n      pop\n      pop\n      dup2\n      swap1\n      sstore\n      pop\n        /* \"ptrn_eco_system_dev_contracts/contracts_ready_for_prod/PtrnEcosystemParticipationV1_0.sol\":8865:8866  0 */\n      0x00\n        /* \"ptrn_eco_system_dev_contracts/contracts_ready_for_prod/PtrnEcosystemParticipationV1_0.sol\":8849:8862  dailyWithdraw */\n      0x06\n        /* \"ptrn_eco_system_dev_contracts/contracts_ready_for_prod/PtrnEcosystemParticipationV1_0.sol\":8849:8866  dailyWithdraw = 0 */\n      dup2\n      swap1\n      sstore\n      pop\n        /* \"ptrn_eco_system_dev_contracts/contracts_ready_for_prod/PtrnEcosystemParticipationV1_0.sol\":8901:8916  block.timestamp */\n      timestamp\n        /* \"ptrn_eco_system_dev_contracts/contracts_ready_for_prod/PtrnEcosystemParticipationV1_0.sol\":8881:8932  TotalDailyWithdraws(block.timestamp, dailyWithdraw) */\n      0x0e727ee3674546d683a39c7087ab966177f70026adb7d4fdefaef2bf0bb29a46\n        /* \"ptrn_eco_system_dev_contracts/contracts_ready_for_prod/PtrnEcosystemParticipationV1_0.sol\":8918:8931  dailyWithdraw */\n      sload(0x06)\n        /* \"ptrn_eco_system_dev_contracts/contracts_ready_for_prod/PtrnEcosystemParticipationV1_0.sol\":8881:8932  TotalDailyWithdraws(block.timestamp, dailyWithdraw) */\n      mload(0x40)\n      tag_208\n      swap2\n      swap1\n      tag_60\n      jump\t// in\n    tag_208:\n      mload(0x40)\n      dup1\n      swap2\n      sub\n      swap1\n      log2\n        /* \"ptrn_eco_system_dev_contracts/contracts_ready_for_prod/PtrnEcosystemParticipationV1_0.sol\":8560:8939  function initiateBulkMint() public onlyOwner {... */\n      jump\t// out\n        /* \"ptrn_eco_system_dev_contracts/contracts_ready_for_prod/PtrnEcosystemParticipationV1_0.sol\":3079:3252  function deactivate() public activated onlyAuthorized whenNotPaused {... */\n    tag_64:\n        /* \"ptrn_eco_system_dev_contracts/contracts_ready_for_prod/PtrnEcosystemParticipationV1_0.sol\":2151:2152  0 */\n      0x00\n        /* \"ptrn_eco_system_dev_contracts/contracts_ready_for_prod/PtrnEcosystemParticipationV1_0.sol\":2118:2153  acceptedSenderAddress != address(0) */\n      0xffffffffffffffffffffffffffffffffffffffff\n      and\n        /* \"ptrn_eco_system_dev_contracts/contracts_ready_for_prod/PtrnEcosystemParticipationV1_0.sol\":2118:2139  acceptedSenderAddress */\n      0x02\n      0x00\n      swap1\n      sload\n      swap1\n      0x0100\n      exp\n      swap1\n      div\n      0xffffffffffffffffffffffffffffffffffffffff\n      and\n        /* \"ptrn_eco_system_dev_contracts/contracts_ready_for_prod/PtrnEcosystemParticipationV1_0.sol\":2118:2153  acceptedSenderAddress != address(0) */\n      0xffffffffffffffffffffffffffffffffffffffff\n      and\n      sub\n        /* \"ptrn_eco_system_dev_contracts/contracts_ready_for_prod/PtrnEcosystemParticipationV1_0.sol\":2110:2172  require(acceptedSenderAddress != address(0), \"Not activated!\") */\n      tag_210\n      jumpi\n      mload(0x40)\n      0x08c379a000000000000000000000000000000000000000000000000000000000\n      dup2\n      mstore\n      0x04\n      add\n      tag_211\n      swap1\n      tag_159\n      jump\t// in\n    tag_211:\n      mload(0x40)\n      dup1\n      swap2\n      sub\n      swap1\n      revert\n    tag_210:\n        /* \"ptrn_eco_system_dev_contracts/contracts_ready_for_prod/PtrnEcosystemParticipationV1_0.sol\":2014:2035  acceptedSenderAddress */\n      0x02\n      0x00\n      swap1\n      sload\n      swap1\n      0x0100\n      exp\n      swap1\n      div\n      0xffffffffffffffffffffffffffffffffffffffff\n      and\n        /* \"ptrn_eco_system_dev_contracts/contracts_ready_for_prod/PtrnEcosystemParticipationV1_0.sol\":2000:2035  msg.sender == acceptedSenderAddress */\n      0xffffffffffffffffffffffffffffffffffffffff\n      and\n        /* \"ptrn_eco_system_dev_contracts/contracts_ready_for_prod/PtrnEcosystemParticipationV1_0.sol\":2000:2010  msg.sender */\n      caller\n        /* \"ptrn_eco_system_dev_contracts/contracts_ready_for_prod/PtrnEcosystemParticipationV1_0.sol\":2000:2035  msg.sender == acceptedSenderAddress */\n      0xffffffffffffffffffffffffffffffffffffffff\n      and\n      eq\n        /* \"ptrn_eco_system_dev_contracts/contracts_ready_for_prod/PtrnEcosystemParticipationV1_0.sol\":1992:2055  require(msg.sender == acceptedSenderAddress, \"Not Authorized!\") */\n      tag_213\n      jumpi\n      mload(0x40)\n      0x08c379a000000000000000000000000000000000000000000000000000000000\n      dup2\n      mstore\n      0x04\n      add\n      tag_214\n      swap1\n      tag_171\n      jump\t// in\n    tag_214:\n      mload(0x40)\n      dup1\n      swap2\n      sub\n      swap1\n      revert\n    tag_213:\n        /* \"@openzeppelin/contracts/security/Pausable.sol\":1239:1258  _requireNotPaused() */\n      tag_216\n        /* \"@openzeppelin/contracts/security/Pausable.sol\":1239:1256  _requireNotPaused */\n      tag_150\n        /* \"@openzeppelin/contracts/security/Pausable.sol\":1239:1258  _requireNotPaused() */\n      jump\t// in\n    tag_216:\n        /* \"ptrn_eco_system_dev_contracts/contracts_ready_for_prod/PtrnEcosystemParticipationV1_0.sol\":3189:3190  0 */\n      0x00\n        /* \"ptrn_eco_system_dev_contracts/contracts_ready_for_prod/PtrnEcosystemParticipationV1_0.sol\":3157:3178  acceptedSenderAddress */\n      0x02\n      0x00\n        /* \"ptrn_eco_system_dev_contracts/contracts_ready_for_prod/PtrnEcosystemParticipationV1_0.sol\":3157:3191  acceptedSenderAddress = address(0) */\n      0x0100\n      exp\n      dup2\n      sload\n      dup2\n      0xffffffffffffffffffffffffffffffffffffffff\n      mul\n      not\n      and\n      swap1\n      dup4\n      0xffffffffffffffffffffffffffffffffffffffff\n      and\n      mul\n      or\n      swap1\n      sstore\n      pop\n        /* \"ptrn_eco_system_dev_contracts/contracts_ready_for_prod/PtrnEcosystemParticipationV1_0.sol\":3217:3227  msg.sender */\n      caller\n        /* \"ptrn_eco_system_dev_contracts/contracts_ready_for_prod/PtrnEcosystemParticipationV1_0.sol\":3206:3245  Deactivate(msg.sender, block.timestamp) */\n      0xffffffffffffffffffffffffffffffffffffffff\n      and\n      0x13b865880a841dc469b629159fa1e730fee99568b0decc6737fd688b36246381\n        /* \"ptrn_eco_system_dev_contracts/contracts_ready_for_prod/PtrnEcosystemParticipationV1_0.sol\":3229:3244  block.timestamp */\n      timestamp\n        /* \"ptrn_eco_system_dev_contracts/contracts_ready_for_prod/PtrnEcosystemParticipationV1_0.sol\":3206:3245  Deactivate(msg.sender, block.timestamp) */\n      mload(0x40)\n      tag_218\n      swap2\n      swap1\n      tag_60\n      jump\t// in\n    tag_218:\n      mload(0x40)\n      dup1\n      swap2\n      sub\n      swap1\n      log2\n        /* \"ptrn_eco_system_dev_contracts/contracts_ready_for_prod/PtrnEcosystemParticipationV1_0.sol\":3079:3252  function deactivate() public activated onlyAuthorized whenNotPaused {... */\n      jump\t// out\n        /* \"@openzeppelin/contracts/security/Pausable.sol\":1615:1699  function paused() public view virtual returns (bool) {... */\n    tag_66:\n        /* \"@openzeppelin/contracts/security/Pausable.sol\":1662:1666  bool */\n      0x00\n        /* \"@openzeppelin/contracts/security/Pausable.sol\":1685:1692  _paused */\n      dup1\n      0x00\n      swap1\n      sload\n      swap1\n      0x0100\n      exp\n      swap1\n      div\n      0xff\n      and\n        /* \"@openzeppelin/contracts/security/Pausable.sol\":1678:1692  return _paused */\n      swap1\n      pop\n        /* \"@openzeppelin/contracts/security/Pausable.sol\":1615:1699  function paused() public view virtual returns (bool) {... */\n      swap1\n      jump\t// out\n        /* \"ptrn_eco_system_dev_contracts/contracts_ready_for_prod/PtrnEcosystemParticipationV1_0.sol\":7648:7942  function transferOfToken(... */\n    tag_72:\n        /* \"ptrn_eco_system_dev_contracts/contracts_ready_for_prod/PtrnEcosystemParticipationV1_0.sol\":7785:7789  bool */\n      0x00\n        /* \"@openzeppelin/contracts/access/Ownable.sol\":1094:1107  _checkOwner() */\n      tag_221\n        /* \"@openzeppelin/contracts/access/Ownable.sol\":1094:1105  _checkOwner */\n      tag_126\n        /* \"@openzeppelin/contracts/access/Ownable.sol\":1094:1107  _checkOwner() */\n      jump\t// in\n    tag_221:\n        /* \"ptrn_eco_system_dev_contracts/contracts_ready_for_prod/PtrnEcosystemParticipationV1_0.sol\":7841:7847  amount */\n      dup2\n        /* \"ptrn_eco_system_dev_contracts/contracts_ready_for_prod/PtrnEcosystemParticipationV1_0.sol\":7809:7837  balanceOfToken(tokenAddress) */\n      tag_223\n        /* \"ptrn_eco_system_dev_contracts/contracts_ready_for_prod/PtrnEcosystemParticipationV1_0.sol\":7824:7836  tokenAddress */\n      dup6\n        /* \"ptrn_eco_system_dev_contracts/contracts_ready_for_prod/PtrnEcosystemParticipationV1_0.sol\":7809:7823  balanceOfToken */\n      tag_102\n        /* \"ptrn_eco_system_dev_contracts/contracts_ready_for_prod/PtrnEcosystemParticipationV1_0.sol\":7809:7837  balanceOfToken(tokenAddress) */\n      jump\t// in\n    tag_223:\n        /* \"ptrn_eco_system_dev_contracts/contracts_ready_for_prod/PtrnEcosystemParticipationV1_0.sol\":7809:7847  balanceOfToken(tokenAddress) >= amount */\n      lt\n      iszero\n        /* \"ptrn_eco_system_dev_contracts/contracts_ready_for_prod/PtrnEcosystemParticipationV1_0.sol\":7801:7871  require(balanceOfToken(tokenAddress) >= amount, \"Not enough balance!\") */\n      tag_224\n      jumpi\n      mload(0x40)\n      0x08c379a000000000000000000000000000000000000000000000000000000000\n      dup2\n      mstore\n      0x04\n      add\n      tag_225\n      swap1\n      tag_226\n      jump\t// in\n    tag_225:\n      mload(0x40)\n      dup1\n      swap2\n      sub\n      swap1\n      revert\n    tag_224:\n        /* \"ptrn_eco_system_dev_contracts/contracts_ready_for_prod/PtrnEcosystemParticipationV1_0.sol\":7895:7907  tokenAddress */\n      dup4\n        /* \"ptrn_eco_system_dev_contracts/contracts_ready_for_prod/PtrnEcosystemParticipationV1_0.sol\":7888:7917  IERC20(tokenAddress).transfer */\n      0xffffffffffffffffffffffffffffffffffffffff\n      and\n      0xa9059cbb\n        /* \"ptrn_eco_system_dev_contracts/contracts_ready_for_prod/PtrnEcosystemParticipationV1_0.sol\":7918:7926  receiver */\n      dup5\n        /* \"ptrn_eco_system_dev_contracts/contracts_ready_for_prod/PtrnEcosystemParticipationV1_0.sol\":7928:7934  amount */\n      dup5\n        /* \"ptrn_eco_system_dev_contracts/contracts_ready_for_prod/PtrnEcosystemParticipationV1_0.sol\":7888:7935  IERC20(tokenAddress).transfer(receiver, amount) */\n      mload(0x40)\n      dup4\n      0xffffffff\n      and\n      0xe0\n      shl\n      dup2\n      mstore\n      0x04\n      add\n      tag_227\n      swap3\n      swap2\n      swap1\n      tag_228\n      jump\t// in\n    tag_227:\n      0x20\n      mload(0x40)\n      dup1\n      dup4\n      sub\n      dup2\n      0x00\n      dup8\n      gas\n      call\n      iszero\n      dup1\n      iszero\n      tag_230\n      jumpi\n      returndatasize\n      0x00\n      dup1\n      returndatacopy\n      revert(0x00, returndatasize)\n    tag_230:\n      pop\n      pop\n      pop\n      pop\n      mload(0x40)\n      returndatasize\n      not(0x1f)\n      0x1f\n      dup3\n      add\n      and\n      dup3\n      add\n      dup1\n      0x40\n      mstore\n      pop\n      dup2\n      add\n      swap1\n      tag_231\n      swap2\n      swap1\n      tag_232\n      jump\t// in\n    tag_231:\n        /* \"ptrn_eco_system_dev_contracts/contracts_ready_for_prod/PtrnEcosystemParticipationV1_0.sol\":7881:7935  return IERC20(tokenAddress).transfer(receiver, amount) */\n      swap1\n      pop\n        /* \"ptrn_eco_system_dev_contracts/contracts_ready_for_prod/PtrnEcosystemParticipationV1_0.sol\":7648:7942  function transferOfToken(... */\n      swap4\n      swap3\n      pop\n      pop\n      pop\n      jump\t// out\n        /* \"@openzeppelin/contracts/access/Ownable.sol\":1831:1932  function renounceOwnership() public virtual onlyOwner {... */\n    tag_75:\n        /* \"@openzeppelin/contracts/access/Ownable.sol\":1094:1107  _checkOwner() */\n      tag_234\n        /* \"@openzeppelin/contracts/access/Ownable.sol\":1094:1105  _checkOwner */\n      tag_126\n        /* \"@openzeppelin/contracts/access/Ownable.sol\":1094:1107  _checkOwner() */\n      jump\t// in\n    tag_234:\n        /* \"@openzeppelin/contracts/access/Ownable.sol\":1895:1925  _transferOwnership(address(0)) */\n      tag_236\n        /* \"@openzeppelin/contracts/access/Ownable.sol\":1922:1923  0 */\n      0x00\n        /* \"@openzeppelin/contracts/access/Ownable.sol\":1895:1913  _transferOwnership */\n      tag_237\n        /* \"@openzeppelin/contracts/access/Ownable.sol\":1895:1925  _transferOwnership(address(0)) */\n      jump\t// in\n    tag_236:\n        /* \"@openzeppelin/contracts/access/Ownable.sol\":1831:1932  function renounceOwnership() public virtual onlyOwner {... */\n      jump\t// out\n        /* \"ptrn_eco_system_dev_contracts/contracts_ready_for_prod/PtrnEcosystemParticipationV1_0.sol\":7107:7222  function balanceOf() public view onlyOwner returns (uint256) {... */\n    tag_77:\n        /* \"ptrn_eco_system_dev_contracts/contracts_ready_for_prod/PtrnEcosystemParticipationV1_0.sol\":7159:7166  uint256 */\n      0x00\n        /* \"@openzeppelin/contracts/access/Ownable.sol\":1094:1107  _checkOwner() */\n      tag_239\n        /* \"@openzeppelin/contracts/access/Ownable.sol\":1094:1105  _checkOwner */\n      tag_126\n        /* \"@openzeppelin/contracts/access/Ownable.sol\":1094:1107  _checkOwner() */\n      jump\t// in\n    tag_239:\n        /* \"ptrn_eco_system_dev_contracts/contracts_ready_for_prod/PtrnEcosystemParticipationV1_0.sol\":7185:7190  TOKEN */\n      immutable(\"0xb5f9271c1f94b43badbaa8ac2cd5837eef4d124f89532d652ed47c9751211dfb\")\n        /* \"ptrn_eco_system_dev_contracts/contracts_ready_for_prod/PtrnEcosystemParticipationV1_0.sol\":7185:7200  TOKEN.balanceOf */\n      0xffffffffffffffffffffffffffffffffffffffff\n      and\n      0x70a08231\n        /* \"ptrn_eco_system_dev_contracts/contracts_ready_for_prod/PtrnEcosystemParticipationV1_0.sol\":7209:7213  this */\n      address\n        /* \"ptrn_eco_system_dev_contracts/contracts_ready_for_prod/PtrnEcosystemParticipationV1_0.sol\":7185:7215  TOKEN.balanceOf(address(this)) */\n      mload(0x40)\n      dup3\n      0xffffffff\n      and\n      0xe0\n      shl\n      dup2\n      mstore\n      0x04\n      add\n      tag_241\n      swap2\n      swap1\n      tag_47\n      jump\t// in\n    tag_241:\n      0x20\n      mload(0x40)\n      dup1\n      dup4\n      sub\n      dup2\n      dup7\n      gas\n      staticcall\n      iszero\n      dup1\n      iszero\n      tag_243\n      jumpi\n      returndatasize\n      0x00\n      dup1\n      returndatacopy\n      revert(0x00, returndatasize)\n    tag_243:\n      pop\n      pop\n      pop\n      pop\n      mload(0x40)\n      returndatasize\n      not(0x1f)\n      0x1f\n      dup3\n      add\n      and\n      dup3\n      add\n      dup1\n      0x40\n      mstore\n      pop\n      dup2\n      add\n      swap1\n      tag_244\n      swap2\n      swap1\n      tag_245\n      jump\t// in\n    tag_244:\n        /* \"ptrn_eco_system_dev_contracts/contracts_ready_for_prod/PtrnEcosystemParticipationV1_0.sol\":7178:7215  return TOKEN.balanceOf(address(this)) */\n      swap1\n      pop\n        /* \"ptrn_eco_system_dev_contracts/contracts_ready_for_prod/PtrnEcosystemParticipationV1_0.sol\":7107:7222  function balanceOf() public view onlyOwner returns (uint256) {... */\n      swap1\n      jump\t// out\n        /* \"ptrn_eco_system_dev_contracts/contracts_ready_for_prod/PtrnEcosystemParticipationV1_0.sol\":5259:5628  function calculateAmount(... */\n    tag_82:\n        /* \"ptrn_eco_system_dev_contracts/contracts_ready_for_prod/PtrnEcosystemParticipationV1_0.sol\":5416:5423  uint256 */\n      0x00\n        /* \"ptrn_eco_system_dev_contracts/contracts_ready_for_prod/PtrnEcosystemParticipationV1_0.sol\":2151:2152  0 */\n      dup1\n        /* \"ptrn_eco_system_dev_contracts/contracts_ready_for_prod/PtrnEcosystemParticipationV1_0.sol\":2118:2153  acceptedSenderAddress != address(0) */\n      0xffffffffffffffffffffffffffffffffffffffff\n      and\n        /* \"ptrn_eco_system_dev_contracts/contracts_ready_for_prod/PtrnEcosystemParticipationV1_0.sol\":2118:2139  acceptedSenderAddress */\n      0x02\n      0x00\n      swap1\n      sload\n      swap1\n      0x0100\n      exp\n      swap1\n      div\n      0xffffffffffffffffffffffffffffffffffffffff\n      and\n        /* \"ptrn_eco_system_dev_contracts/contracts_ready_for_prod/PtrnEcosystemParticipationV1_0.sol\":2118:2153  acceptedSenderAddress != address(0) */\n      0xffffffffffffffffffffffffffffffffffffffff\n      and\n      sub\n        /* \"ptrn_eco_system_dev_contracts/contracts_ready_for_prod/PtrnEcosystemParticipationV1_0.sol\":2110:2172  require(acceptedSenderAddress != address(0), \"Not activated!\") */\n      tag_247\n      jumpi\n      mload(0x40)\n      0x08c379a000000000000000000000000000000000000000000000000000000000\n      dup2\n      mstore\n      0x04\n      add\n      tag_248\n      swap1\n      tag_159\n      jump\t// in\n    tag_248:\n      mload(0x40)\n      dup1\n      swap2\n      sub\n      swap1\n      revert\n    tag_247:\n        /* \"ptrn_eco_system_dev_contracts/contracts_ready_for_prod/PtrnEcosystemParticipationV1_0.sol\":2275:2296  acceptedSenderAddress */\n      0x02\n      0x00\n      swap1\n      sload\n      swap1\n      0x0100\n      exp\n      swap1\n      div\n      0xffffffffffffffffffffffffffffffffffffffff\n      and\n        /* \"ptrn_eco_system_dev_contracts/contracts_ready_for_prod/PtrnEcosystemParticipationV1_0.sol\":2261:2296  msg.sender == acceptedSenderAddress */\n      0xffffffffffffffffffffffffffffffffffffffff\n      and\n        /* \"ptrn_eco_system_dev_contracts/contracts_ready_for_prod/PtrnEcosystemParticipationV1_0.sol\":2261:2271  msg.sender */\n      caller\n        /* \"ptrn_eco_system_dev_contracts/contracts_ready_for_prod/PtrnEcosystemParticipationV1_0.sol\":2261:2296  msg.sender == acceptedSenderAddress */\n      0xffffffffffffffffffffffffffffffffffffffff\n      and\n      eq\n        /* \"ptrn_eco_system_dev_contracts/contracts_ready_for_prod/PtrnEcosystemParticipationV1_0.sol\":2261:2321  msg.sender == acceptedSenderAddress || msg.sender == owner() */\n      dup1\n      tag_250\n      jumpi\n      pop\n        /* \"ptrn_eco_system_dev_contracts/contracts_ready_for_prod/PtrnEcosystemParticipationV1_0.sol\":2314:2321  owner() */\n      tag_251\n        /* \"ptrn_eco_system_dev_contracts/contracts_ready_for_prod/PtrnEcosystemParticipationV1_0.sol\":2314:2319  owner */\n      tag_85\n        /* \"ptrn_eco_system_dev_contracts/contracts_ready_for_prod/PtrnEcosystemParticipationV1_0.sol\":2314:2321  owner() */\n      jump\t// in\n    tag_251:\n        /* \"ptrn_eco_system_dev_contracts/contracts_ready_for_prod/PtrnEcosystemParticipationV1_0.sol\":2300:2321  msg.sender == owner() */\n      0xffffffffffffffffffffffffffffffffffffffff\n      and\n        /* \"ptrn_eco_system_dev_contracts/contracts_ready_for_prod/PtrnEcosystemParticipationV1_0.sol\":2300:2310  msg.sender */\n      caller\n        /* \"ptrn_eco_system_dev_contracts/contracts_ready_for_prod/PtrnEcosystemParticipationV1_0.sol\":2300:2321  msg.sender == owner() */\n      0xffffffffffffffffffffffffffffffffffffffff\n      and\n      eq\n        /* \"ptrn_eco_system_dev_contracts/contracts_ready_for_prod/PtrnEcosystemParticipationV1_0.sol\":2261:2321  msg.sender == acceptedSenderAddress || msg.sender == owner() */\n    tag_250:\n        /* \"ptrn_eco_system_dev_contracts/contracts_ready_for_prod/PtrnEcosystemParticipationV1_0.sol\":2239:2412  require(... */\n      tag_252\n      jumpi\n      mload(0x40)\n      0x08c379a000000000000000000000000000000000000000000000000000000000\n      dup2\n      mstore\n      0x04\n      add\n      tag_253\n      swap1\n      tag_195\n      jump\t// in\n    tag_253:\n      mload(0x40)\n      dup1\n      swap2\n      sub\n      swap1\n      revert\n    tag_252:\n        /* \"ptrn_eco_system_dev_contracts/contracts_ready_for_prod/PtrnEcosystemParticipationV1_0.sol\":5463:5464  0 */\n      0x00\n        /* \"ptrn_eco_system_dev_contracts/contracts_ready_for_prod/PtrnEcosystemParticipationV1_0.sol\":5456:5460  rate */\n      dup4\n        /* \"ptrn_eco_system_dev_contracts/contracts_ready_for_prod/PtrnEcosystemParticipationV1_0.sol\":5456:5464  rate > 0 */\n      gt\n        /* \"ptrn_eco_system_dev_contracts/contracts_ready_for_prod/PtrnEcosystemParticipationV1_0.sol\":5456:5478  rate > 0 && points > 0 */\n      dup1\n      iszero\n      tag_255\n      jumpi\n      pop\n        /* \"ptrn_eco_system_dev_contracts/contracts_ready_for_prod/PtrnEcosystemParticipationV1_0.sol\":5477:5478  0 */\n      0x00\n        /* \"ptrn_eco_system_dev_contracts/contracts_ready_for_prod/PtrnEcosystemParticipationV1_0.sol\":5468:5474  points */\n      dup5\n        /* \"ptrn_eco_system_dev_contracts/contracts_ready_for_prod/PtrnEcosystemParticipationV1_0.sol\":5468:5478  points > 0 */\n      gt\n        /* \"ptrn_eco_system_dev_contracts/contracts_ready_for_prod/PtrnEcosystemParticipationV1_0.sol\":5456:5478  rate > 0 && points > 0 */\n    tag_255:\n        /* \"ptrn_eco_system_dev_contracts/contracts_ready_for_prod/PtrnEcosystemParticipationV1_0.sol\":5456:5495  rate > 0 && points > 0 && _decimals > 0 */\n      dup1\n      iszero\n      tag_256\n      jumpi\n      pop\n        /* \"ptrn_eco_system_dev_contracts/contracts_ready_for_prod/PtrnEcosystemParticipationV1_0.sol\":5494:5495  0 */\n      0x00\n        /* \"ptrn_eco_system_dev_contracts/contracts_ready_for_prod/PtrnEcosystemParticipationV1_0.sol\":5482:5491  _decimals */\n      dup3\n        /* \"ptrn_eco_system_dev_contracts/contracts_ready_for_prod/PtrnEcosystemParticipationV1_0.sol\":5482:5495  _decimals > 0 */\n      gt\n        /* \"ptrn_eco_system_dev_contracts/contracts_ready_for_prod/PtrnEcosystemParticipationV1_0.sol\":5456:5495  rate > 0 && points > 0 && _decimals > 0 */\n    tag_256:\n        /* \"ptrn_eco_system_dev_contracts/contracts_ready_for_prod/PtrnEcosystemParticipationV1_0.sol\":5435:5573  require(... */\n      tag_257\n      jumpi\n      mload(0x40)\n      0x08c379a000000000000000000000000000000000000000000000000000000000\n      dup2\n      mstore\n      0x04\n      add\n      tag_258\n      swap1\n      tag_259\n      jump\t// in\n    tag_258:\n      mload(0x40)\n      dup1\n      swap2\n      sub\n      swap1\n      revert\n    tag_257:\n        /* \"ptrn_eco_system_dev_contracts/contracts_ready_for_prod/PtrnEcosystemParticipationV1_0.sol\":5617:5621  rate */\n      dup3\n        /* \"ptrn_eco_system_dev_contracts/contracts_ready_for_prod/PtrnEcosystemParticipationV1_0.sol\":5604:5613  _decimals */\n      dup3\n        /* \"ptrn_eco_system_dev_contracts/contracts_ready_for_prod/PtrnEcosystemParticipationV1_0.sol\":5600:5602  10 */\n      0x0a\n        /* \"ptrn_eco_system_dev_contracts/contracts_ready_for_prod/PtrnEcosystemParticipationV1_0.sol\":5600:5613  10**_decimals */\n      tag_260\n      swap2\n      swap1\n      tag_261\n      jump\t// in\n    tag_260:\n        /* \"ptrn_eco_system_dev_contracts/contracts_ready_for_prod/PtrnEcosystemParticipationV1_0.sol\":5591:5597  points */\n      dup6\n        /* \"ptrn_eco_system_dev_contracts/contracts_ready_for_prod/PtrnEcosystemParticipationV1_0.sol\":5591:5613  points * 10**_decimals */\n      tag_262\n      swap2\n      swap1\n      tag_263\n      jump\t// in\n    tag_262:\n        /* \"ptrn_eco_system_dev_contracts/contracts_ready_for_prod/PtrnEcosystemParticipationV1_0.sol\":5590:5621  (points * 10**_decimals) / rate */\n      tag_264\n      swap2\n      swap1\n      tag_265\n      jump\t// in\n    tag_264:\n        /* \"ptrn_eco_system_dev_contracts/contracts_ready_for_prod/PtrnEcosystemParticipationV1_0.sol\":5583:5621  return (points * 10**_decimals) / rate */\n      swap1\n      pop\n        /* \"ptrn_eco_system_dev_contracts/contracts_ready_for_prod/PtrnEcosystemParticipationV1_0.sol\":5259:5628  function calculateAmount(... */\n      swap4\n      swap3\n      pop\n      pop\n      pop\n      jump\t// out\n        /* \"@openzeppelin/contracts/access/Ownable.sol\":1201:1286  function owner() public view virtual returns (address) {... */\n    tag_85:\n        /* \"@openzeppelin/contracts/access/Ownable.sol\":1247:1254  address */\n      0x00\n        /* \"@openzeppelin/contracts/access/Ownable.sol\":1273:1279  _owner */\n      dup1\n      0x01\n      swap1\n      sload\n      swap1\n      0x0100\n      exp\n      swap1\n      div\n      0xffffffffffffffffffffffffffffffffffffffff\n      and\n        /* \"@openzeppelin/contracts/access/Ownable.sol\":1266:1279  return _owner */\n      swap1\n      pop\n        /* \"@openzeppelin/contracts/access/Ownable.sol\":1201:1286  function owner() public view virtual returns (address) {... */\n      swap1\n      jump\t// out\n        /* \"ptrn_eco_system_dev_contracts/contracts_ready_for_prod/PtrnEcosystemParticipationV1_0.sol\":9762:9933  function getDailyWithdraw()... */\n    tag_88:\n        /* \"ptrn_eco_system_dev_contracts/contracts_ready_for_prod/PtrnEcosystemParticipationV1_0.sol\":9883:9890  uint256 */\n      0x00\n        /* \"ptrn_eco_system_dev_contracts/contracts_ready_for_prod/PtrnEcosystemParticipationV1_0.sol\":2151:2152  0 */\n      dup1\n        /* \"ptrn_eco_system_dev_contracts/contracts_ready_for_prod/PtrnEcosystemParticipationV1_0.sol\":2118:2153  acceptedSenderAddress != address(0) */\n      0xffffffffffffffffffffffffffffffffffffffff\n      and\n        /* \"ptrn_eco_system_dev_contracts/contracts_ready_for_prod/PtrnEcosystemParticipationV1_0.sol\":2118:2139  acceptedSenderAddress */\n      0x02\n      0x00\n      swap1\n      sload\n      swap1\n      0x0100\n      exp\n      swap1\n      div\n      0xffffffffffffffffffffffffffffffffffffffff\n      and\n        /* \"ptrn_eco_system_dev_contracts/contracts_ready_for_prod/PtrnEcosystemParticipationV1_0.sol\":2118:2153  acceptedSenderAddress != address(0) */\n      0xffffffffffffffffffffffffffffffffffffffff\n      and\n      sub\n        /* \"ptrn_eco_system_dev_contracts/contracts_ready_for_prod/PtrnEcosystemParticipationV1_0.sol\":2110:2172  require(acceptedSenderAddress != address(0), \"Not activated!\") */\n      tag_268\n      jumpi\n      mload(0x40)\n      0x08c379a000000000000000000000000000000000000000000000000000000000\n      dup2\n      mstore\n      0x04\n      add\n      tag_269\n      swap1\n      tag_159\n      jump\t// in\n    tag_269:\n      mload(0x40)\n      dup1\n      swap2\n      sub\n      swap1\n      revert\n    tag_268:\n        /* \"ptrn_eco_system_dev_contracts/contracts_ready_for_prod/PtrnEcosystemParticipationV1_0.sol\":2275:2296  acceptedSenderAddress */\n      0x02\n      0x00\n      swap1\n      sload\n      swap1\n      0x0100\n      exp\n      swap1\n      div\n      0xffffffffffffffffffffffffffffffffffffffff\n      and\n        /* \"ptrn_eco_system_dev_contracts/contracts_ready_for_prod/PtrnEcosystemParticipationV1_0.sol\":2261:2296  msg.sender == acceptedSenderAddress */\n      0xffffffffffffffffffffffffffffffffffffffff\n      and\n        /* \"ptrn_eco_system_dev_contracts/contracts_ready_for_prod/PtrnEcosystemParticipationV1_0.sol\":2261:2271  msg.sender */\n      caller\n        /* \"ptrn_eco_system_dev_contracts/contracts_ready_for_prod/PtrnEcosystemParticipationV1_0.sol\":2261:2296  msg.sender == acceptedSenderAddress */\n      0xffffffffffffffffffffffffffffffffffffffff\n      and\n      eq\n        /* \"ptrn_eco_system_dev_contracts/contracts_ready_for_prod/PtrnEcosystemParticipationV1_0.sol\":2261:2321  msg.sender == acceptedSenderAddress || msg.sender == owner() */\n      dup1\n      tag_271\n      jumpi\n      pop\n        /* \"ptrn_eco_system_dev_contracts/contracts_ready_for_prod/PtrnEcosystemParticipationV1_0.sol\":2314:2321  owner() */\n      tag_272\n        /* \"ptrn_eco_system_dev_contracts/contracts_ready_for_prod/PtrnEcosystemParticipationV1_0.sol\":2314:2319  owner */\n      tag_85\n        /* \"ptrn_eco_system_dev_contracts/contracts_ready_for_prod/PtrnEcosystemParticipationV1_0.sol\":2314:2321  owner() */\n      jump\t// in\n    tag_272:\n        /* \"ptrn_eco_system_dev_contracts/contracts_ready_for_prod/PtrnEcosystemParticipationV1_0.sol\":2300:2321  msg.sender == owner() */\n      0xffffffffffffffffffffffffffffffffffffffff\n      and\n        /* \"ptrn_eco_system_dev_contracts/contracts_ready_for_prod/PtrnEcosystemParticipationV1_0.sol\":2300:2310  msg.sender */\n      caller\n        /* \"ptrn_eco_system_dev_contracts/contracts_ready_for_prod/PtrnEcosystemParticipationV1_0.sol\":2300:2321  msg.sender == owner() */\n      0xffffffffffffffffffffffffffffffffffffffff\n      and\n      eq\n        /* \"ptrn_eco_system_dev_contracts/contracts_ready_for_prod/PtrnEcosystemParticipationV1_0.sol\":2261:2321  msg.sender == acceptedSenderAddress || msg.sender == owner() */\n    tag_271:\n        /* \"ptrn_eco_system_dev_contracts/contracts_ready_for_prod/PtrnEcosystemParticipationV1_0.sol\":2239:2412  require(... */\n      tag_273\n      jumpi\n      mload(0x40)\n      0x08c379a000000000000000000000000000000000000000000000000000000000\n      dup2\n      mstore\n      0x04\n      add\n      tag_274\n      swap1\n      tag_195\n      jump\t// in\n    tag_274:\n      mload(0x40)\n      dup1\n      swap2\n      sub\n      swap1\n      revert\n    tag_273:\n        /* \"ptrn_eco_system_dev_contracts/contracts_ready_for_prod/PtrnEcosystemParticipationV1_0.sol\":9913:9926  dailyWithdraw */\n      sload(0x06)\n        /* \"ptrn_eco_system_dev_contracts/contracts_ready_for_prod/PtrnEcosystemParticipationV1_0.sol\":9906:9926  return dailyWithdraw */\n      swap1\n      pop\n        /* \"ptrn_eco_system_dev_contracts/contracts_ready_for_prod/PtrnEcosystemParticipationV1_0.sol\":9762:9933  function getDailyWithdraw()... */\n      swap1\n      jump\t// out\n        /* \"ptrn_eco_system_dev_contracts/contracts_ready_for_prod/PtrnEcosystemParticipationV1_0.sol\":9288:9467  function getTotalPointsGenerated()... */\n    tag_91:\n        /* \"ptrn_eco_system_dev_contracts/contracts_ready_for_prod/PtrnEcosystemParticipationV1_0.sol\":9416:9423  uint256 */\n      0x00\n        /* \"ptrn_eco_system_dev_contracts/contracts_ready_for_prod/PtrnEcosystemParticipationV1_0.sol\":2151:2152  0 */\n      dup1\n        /* \"ptrn_eco_system_dev_contracts/contracts_ready_for_prod/PtrnEcosystemParticipationV1_0.sol\":2118:2153  acceptedSenderAddress != address(0) */\n      0xffffffffffffffffffffffffffffffffffffffff\n      and\n        /* \"ptrn_eco_system_dev_contracts/contracts_ready_for_prod/PtrnEcosystemParticipationV1_0.sol\":2118:2139  acceptedSenderAddress */\n      0x02\n      0x00\n      swap1\n      sload\n      swap1\n      0x0100\n      exp\n      swap1\n      div\n      0xffffffffffffffffffffffffffffffffffffffff\n      and\n        /* \"ptrn_eco_system_dev_contracts/contracts_ready_for_prod/PtrnEcosystemParticipationV1_0.sol\":2118:2153  acceptedSenderAddress != address(0) */\n      0xffffffffffffffffffffffffffffffffffffffff\n      and\n      sub\n        /* \"ptrn_eco_system_dev_contracts/contracts_ready_for_prod/PtrnEcosystemParticipationV1_0.sol\":2110:2172  require(acceptedSenderAddress != address(0), \"Not activated!\") */\n      tag_277\n      jumpi\n      mload(0x40)\n      0x08c379a000000000000000000000000000000000000000000000000000000000\n      dup2\n      mstore\n      0x04\n      add\n      tag_278\n      swap1\n      tag_159\n      jump\t// in\n    tag_278:\n      mload(0x40)\n      dup1\n      swap2\n      sub\n      swap1\n      revert\n    tag_277:\n        /* \"ptrn_eco_system_dev_contracts/contracts_ready_for_prod/PtrnEcosystemParticipationV1_0.sol\":2275:2296  acceptedSenderAddress */\n      0x02\n      0x00\n      swap1\n      sload\n      swap1\n      0x0100\n      exp\n      swap1\n      div\n      0xffffffffffffffffffffffffffffffffffffffff\n      and\n        /* \"ptrn_eco_system_dev_contracts/contracts_ready_for_prod/PtrnEcosystemParticipationV1_0.sol\":2261:2296  msg.sender == acceptedSenderAddress */\n      0xffffffffffffffffffffffffffffffffffffffff\n      and\n        /* \"ptrn_eco_system_dev_contracts/contracts_ready_for_prod/PtrnEcosystemParticipationV1_0.sol\":2261:2271  msg.sender */\n      caller\n        /* \"ptrn_eco_system_dev_contracts/contracts_ready_for_prod/PtrnEcosystemParticipationV1_0.sol\":2261:2296  msg.sender == acceptedSenderAddress */\n      0xffffffffffffffffffffffffffffffffffffffff\n      and\n      eq\n        /* \"ptrn_eco_system_dev_contracts/contracts_ready_for_prod/PtrnEcosystemParticipationV1_0.sol\":2261:2321  msg.sender == acceptedSenderAddress || msg.sender == owner() */\n      dup1\n      tag_280\n      jumpi\n      pop\n        /* \"ptrn_eco_system_dev_contracts/contracts_ready_for_prod/PtrnEcosystemParticipationV1_0.sol\":2314:2321  owner() */\n      tag_281\n        /* \"ptrn_eco_system_dev_contracts/contracts_ready_for_prod/PtrnEcosystemParticipationV1_0.sol\":2314:2319  owner */\n      tag_85\n        /* \"ptrn_eco_system_dev_contracts/contracts_ready_for_prod/PtrnEcosystemParticipationV1_0.sol\":2314:2321  owner() */\n      jump\t// in\n    tag_281:\n        /* \"ptrn_eco_system_dev_contracts/contracts_ready_for_prod/PtrnEcosystemParticipationV1_0.sol\":2300:2321  msg.sender == owner() */\n      0xffffffffffffffffffffffffffffffffffffffff\n      and\n        /* \"ptrn_eco_system_dev_contracts/contracts_ready_for_prod/PtrnEcosystemParticipationV1_0.sol\":2300:2310  msg.sender */\n      caller\n        /* \"ptrn_eco_system_dev_contracts/contracts_ready_for_prod/PtrnEcosystemParticipationV1_0.sol\":2300:2321  msg.sender == owner() */\n      0xffffffffffffffffffffffffffffffffffffffff\n      and\n      eq\n        /* \"ptrn_eco_system_dev_contracts/contracts_ready_for_prod/PtrnEcosystemParticipationV1_0.sol\":2261:2321  msg.sender == acceptedSenderAddress || msg.sender == owner() */\n    tag_280:\n        /* \"ptrn_eco_system_dev_contracts/contracts_ready_for_prod/PtrnEcosystemParticipationV1_0.sol\":2239:2412  require(... */\n      tag_282\n      jumpi\n      mload(0x40)\n      0x08c379a000000000000000000000000000000000000000000000000000000000\n      dup2\n      mstore\n      0x04\n      add\n      tag_283\n      swap1\n      tag_195\n      jump\t// in\n    tag_283:\n      mload(0x40)\n      dup1\n      swap2\n      sub\n      swap1\n      revert\n    tag_282:\n        /* \"ptrn_eco_system_dev_contracts/contracts_ready_for_prod/PtrnEcosystemParticipationV1_0.sol\":9446:9460  totalConverted */\n      sload(0x04)\n        /* \"ptrn_eco_system_dev_contracts/contracts_ready_for_prod/PtrnEcosystemParticipationV1_0.sol\":9439:9460  return totalConverted */\n      swap1\n      pop\n        /* \"ptrn_eco_system_dev_contracts/contracts_ready_for_prod/PtrnEcosystemParticipationV1_0.sol\":9288:9467  function getTotalPointsGenerated()... */\n      swap1\n      jump\t// out\n        /* \"ptrn_eco_system_dev_contracts/contracts_ready_for_prod/PtrnEcosystemParticipationV1_0.sol\":10392:10573  function getTokenInfo()... */\n    tag_94:\n        /* \"ptrn_eco_system_dev_contracts/contracts_ready_for_prod/PtrnEcosystemParticipationV1_0.sol\":10491:10498  address */\n      0x00\n        /* \"ptrn_eco_system_dev_contracts/contracts_ready_for_prod/PtrnEcosystemParticipationV1_0.sol\":10500:10513  string memory */\n      0x60\n        /* \"ptrn_eco_system_dev_contracts/contracts_ready_for_prod/PtrnEcosystemParticipationV1_0.sol\":2275:2296  acceptedSenderAddress */\n      0x02\n      0x00\n      swap1\n      sload\n      swap1\n      0x0100\n      exp\n      swap1\n      div\n      0xffffffffffffffffffffffffffffffffffffffff\n      and\n        /* \"ptrn_eco_system_dev_contracts/contracts_ready_for_prod/PtrnEcosystemParticipationV1_0.sol\":2261:2296  msg.sender == acceptedSenderAddress */\n      0xffffffffffffffffffffffffffffffffffffffff\n      and\n        /* \"ptrn_eco_system_dev_contracts/contracts_ready_for_prod/PtrnEcosystemParticipationV1_0.sol\":2261:2271  msg.sender */\n      caller\n        /* \"ptrn_eco_system_dev_contracts/contracts_ready_for_prod/PtrnEcosystemParticipationV1_0.sol\":2261:2296  msg.sender == acceptedSenderAddress */\n      0xffffffffffffffffffffffffffffffffffffffff\n      and\n      eq\n        /* \"ptrn_eco_system_dev_contracts/contracts_ready_for_prod/PtrnEcosystemParticipationV1_0.sol\":2261:2321  msg.sender == acceptedSenderAddress || msg.sender == owner() */\n      dup1\n      tag_286\n      jumpi\n      pop\n        /* \"ptrn_eco_system_dev_contracts/contracts_ready_for_prod/PtrnEcosystemParticipationV1_0.sol\":2314:2321  owner() */\n      tag_287\n        /* \"ptrn_eco_system_dev_contracts/contracts_ready_for_prod/PtrnEcosystemParticipationV1_0.sol\":2314:2319  owner */\n      tag_85\n        /* \"ptrn_eco_system_dev_contracts/contracts_ready_for_prod/PtrnEcosystemParticipationV1_0.sol\":2314:2321  owner() */\n      jump\t// in\n    tag_287:\n        /* \"ptrn_eco_system_dev_contracts/contracts_ready_for_prod/PtrnEcosystemParticipationV1_0.sol\":2300:2321  msg.sender == owner() */\n      0xffffffffffffffffffffffffffffffffffffffff\n      and\n        /* \"ptrn_eco_system_dev_contracts/contracts_ready_for_prod/PtrnEcosystemParticipationV1_0.sol\":2300:2310  msg.sender */\n      caller\n        /* \"ptrn_eco_system_dev_contracts/contracts_ready_for_prod/PtrnEcosystemParticipationV1_0.sol\":2300:2321  msg.sender == owner() */\n      0xffffffffffffffffffffffffffffffffffffffff\n      and\n      eq\n        /* \"ptrn_eco_system_dev_contracts/contracts_ready_for_prod/PtrnEcosystemParticipationV1_0.sol\":2261:2321  msg.sender == acceptedSenderAddress || msg.sender == owner() */\n    tag_286:\n        /* \"ptrn_eco_system_dev_contracts/contracts_ready_for_prod/PtrnEcosystemParticipationV1_0.sol\":2239:2412  require(... */\n      tag_288\n      jumpi\n      mload(0x40)\n      0x08c379a000000000000000000000000000000000000000000000000000000000\n      dup2\n      mstore\n      0x04\n      add\n      tag_289\n      swap1\n      tag_195\n      jump\t// in\n    tag_289:\n      mload(0x40)\n      dup1\n      swap2\n      sub\n      swap1\n      revert\n    tag_288:\n        /* \"ptrn_eco_system_dev_contracts/contracts_ready_for_prod/PtrnEcosystemParticipationV1_0.sol\":10545:10550  TOKEN */\n      immutable(\"0xb5f9271c1f94b43badbaa8ac2cd5837eef4d124f89532d652ed47c9751211dfb\")\n        /* \"ptrn_eco_system_dev_contracts/contracts_ready_for_prod/PtrnEcosystemParticipationV1_0.sol\":10553:10565  TOKEN_SYMBOL */\n      0x01\n        /* \"ptrn_eco_system_dev_contracts/contracts_ready_for_prod/PtrnEcosystemParticipationV1_0.sol\":10529:10566  return (address(TOKEN), TOKEN_SYMBOL) */\n      dup1\n      dup1\n      sload\n      tag_291\n      swap1\n      tag_292\n      jump\t// in\n    tag_291:\n      dup1\n      0x1f\n      add\n      0x20\n      dup1\n      swap2\n      div\n      mul\n      0x20\n      add\n      mload(0x40)\n      swap1\n      dup2\n      add\n      0x40\n      mstore\n      dup1\n      swap3\n      swap2\n      swap1\n      dup2\n      dup2\n      mstore\n      0x20\n      add\n      dup3\n      dup1\n      sload\n      tag_293\n      swap1\n      tag_292\n      jump\t// in\n    tag_293:\n      dup1\n      iszero\n      tag_294\n      jumpi\n      dup1\n      0x1f\n      lt\n      tag_295\n      jumpi\n      0x0100\n      dup1\n      dup4\n      sload\n      div\n      mul\n      dup4\n      mstore\n      swap2\n      0x20\n      add\n      swap2\n      jump(tag_294)\n    tag_295:\n      dup3\n      add\n      swap2\n      swap1\n      0x00\n      mstore\n      keccak256(0x00, 0x20)\n      swap1\n    tag_296:\n      dup2\n      sload\n      dup2\n      mstore\n      swap1\n      0x01\n      add\n      swap1\n      0x20\n      add\n      dup1\n      dup4\n      gt\n      tag_296\n      jumpi\n      dup3\n      swap1\n      sub\n      0x1f\n      and\n      dup3\n      add\n      swap2\n    tag_294:\n      pop\n      pop\n      pop\n      pop\n      pop\n      swap1\n      pop\n      swap2\n      pop\n      swap2\n      pop\n        /* \"ptrn_eco_system_dev_contracts/contracts_ready_for_prod/PtrnEcosystemParticipationV1_0.sol\":10392:10573  function getTokenInfo()... */\n      swap1\n      swap2\n      jump\t// out\n        /* \"ptrn_eco_system_dev_contracts/contracts_ready_for_prod/PtrnEcosystemParticipationV1_0.sol\":4129:4367  function addNewPoolRateFeed(address _ConsumerInterfaceAddress)... */\n    tag_99:\n        /* \"@openzeppelin/contracts/access/Ownable.sol\":1094:1107  _checkOwner() */\n      tag_298\n        /* \"@openzeppelin/contracts/access/Ownable.sol\":1094:1105  _checkOwner */\n      tag_126\n        /* \"@openzeppelin/contracts/access/Ownable.sol\":1094:1107  _checkOwner() */\n      jump\t// in\n    tag_298:\n        /* \"ptrn_eco_system_dev_contracts/contracts_ready_for_prod/PtrnEcosystemParticipationV1_0.sol\":4284:4285  0 */\n      0x00\n        /* \"ptrn_eco_system_dev_contracts/contracts_ready_for_prod/PtrnEcosystemParticipationV1_0.sol\":4247:4286  _ConsumerInterfaceAddress != address(0) */\n      0xffffffffffffffffffffffffffffffffffffffff\n      and\n        /* \"ptrn_eco_system_dev_contracts/contracts_ready_for_prod/PtrnEcosystemParticipationV1_0.sol\":4247:4272  _ConsumerInterfaceAddress */\n      dup2\n        /* \"ptrn_eco_system_dev_contracts/contracts_ready_for_prod/PtrnEcosystemParticipationV1_0.sol\":4247:4286  _ConsumerInterfaceAddress != address(0) */\n      0xffffffffffffffffffffffffffffffffffffffff\n      and\n      sub\n        /* \"ptrn_eco_system_dev_contracts/contracts_ready_for_prod/PtrnEcosystemParticipationV1_0.sol\":4239:4287  require(_ConsumerInterfaceAddress != address(0)) */\n      tag_300\n      jumpi\n      0x00\n      dup1\n      revert\n    tag_300:\n        /* \"ptrn_eco_system_dev_contracts/contracts_ready_for_prod/PtrnEcosystemParticipationV1_0.sol\":4334:4359  _ConsumerInterfaceAddress */\n      dup1\n        /* \"ptrn_eco_system_dev_contracts/contracts_ready_for_prod/PtrnEcosystemParticipationV1_0.sol\":4297:4309  poolConsumer */\n      0x08\n      0x00\n        /* \"ptrn_eco_system_dev_contracts/contracts_ready_for_prod/PtrnEcosystemParticipationV1_0.sol\":4297:4360  poolConsumer = PoolConsumerInterface(_ConsumerInterfaceAddress) */\n      0x0100\n      exp\n      dup2\n      sload\n      dup2\n      0xffffffffffffffffffffffffffffffffffffffff\n      mul\n      not\n      and\n      swap1\n      dup4\n      0xffffffffffffffffffffffffffffffffffffffff\n      and\n      mul\n      or\n      swap1\n      sstore\n      pop\n        /* \"ptrn_eco_system_dev_contracts/contracts_ready_for_prod/PtrnEcosystemParticipationV1_0.sol\":4129:4367  function addNewPoolRateFeed(address _ConsumerInterfaceAddress)... */\n      pop\n      jump\t// out\n        /* \"ptrn_eco_system_dev_contracts/contracts_ready_for_prod/PtrnEcosystemParticipationV1_0.sol\":7350:7541  function balanceOfToken(address tokenAddress)... */\n    tag_102:\n        /* \"ptrn_eco_system_dev_contracts/contracts_ready_for_prod/PtrnEcosystemParticipationV1_0.sol\":7459:7466  uint256 */\n      0x00\n        /* \"@openzeppelin/contracts/access/Ownable.sol\":1094:1107  _checkOwner() */\n      tag_302\n        /* \"@openzeppelin/contracts/access/Ownable.sol\":1094:1105  _checkOwner */\n      tag_126\n        /* \"@openzeppelin/contracts/access/Ownable.sol\":1094:1107  _checkOwner() */\n      jump\t// in\n    tag_302:\n        /* \"ptrn_eco_system_dev_contracts/contracts_ready_for_prod/PtrnEcosystemParticipationV1_0.sol\":7496:7508  tokenAddress */\n      dup2\n        /* \"ptrn_eco_system_dev_contracts/contracts_ready_for_prod/PtrnEcosystemParticipationV1_0.sol\":7489:7519  IERC20(tokenAddress).balanceOf */\n      0xffffffffffffffffffffffffffffffffffffffff\n      and\n      0x70a08231\n        /* \"ptrn_eco_system_dev_contracts/contracts_ready_for_prod/PtrnEcosystemParticipationV1_0.sol\":7528:7532  this */\n      address\n        /* \"ptrn_eco_system_dev_contracts/contracts_ready_for_prod/PtrnEcosystemParticipationV1_0.sol\":7489:7534  IERC20(tokenAddress).balanceOf(address(this)) */\n      mload(0x40)\n      dup3\n      0xffffffff\n      and\n      0xe0\n      shl\n      dup2\n      mstore\n      0x04\n      add\n      tag_304\n      swap2\n      swap1\n      tag_47\n      jump\t// in\n    tag_304:\n      0x20\n      mload(0x40)\n      dup1\n      dup4\n      sub\n      dup2\n      dup7\n      gas\n      staticcall\n      iszero\n      dup1\n      iszero\n      tag_306\n      jumpi\n      returndatasize\n      0x00\n      dup1\n      returndatacopy\n      revert(0x00, returndatasize)\n    tag_306:\n      pop\n      pop\n      pop\n      pop\n      mload(0x40)\n      returndatasize\n      not(0x1f)\n      0x1f\n      dup3\n      add\n      and\n      dup3\n      add\n      dup1\n      0x40\n      mstore\n      pop\n      dup2\n      add\n      swap1\n      tag_307\n      swap2\n      swap1\n      tag_245\n      jump\t// in\n    tag_307:\n        /* \"ptrn_eco_system_dev_contracts/contracts_ready_for_prod/PtrnEcosystemParticipationV1_0.sol\":7482:7534  return IERC20(tokenAddress).balanceOf(address(this)) */\n      swap1\n      pop\n        /* \"ptrn_eco_system_dev_contracts/contracts_ready_for_prod/PtrnEcosystemParticipationV1_0.sol\":7350:7541  function balanceOfToken(address tokenAddress)... */\n      swap2\n      swap1\n      pop\n      jump\t// out\n        /* \"ptrn_eco_system_dev_contracts/contracts_ready_for_prod/PtrnEcosystemParticipationV1_0.sol\":10225:10327  function getInitialActivationAddress() public view returns (address) {... */\n    tag_105:\n        /* \"ptrn_eco_system_dev_contracts/contracts_ready_for_prod/PtrnEcosystemParticipationV1_0.sol\":10285:10292  address */\n      0x00\n        /* \"ptrn_eco_system_dev_contracts/contracts_ready_for_prod/PtrnEcosystemParticipationV1_0.sol\":10311:10320  ACTIVATOR */\n      immutable(\"0x0e3aca62610a5b0e63dde37200dde7058c17f1af9615a3280f1e4361486f8ebc\")\n        /* \"ptrn_eco_system_dev_contracts/contracts_ready_for_prod/PtrnEcosystemParticipationV1_0.sol\":10304:10320  return ACTIVATOR */\n      swap1\n      pop\n        /* \"ptrn_eco_system_dev_contracts/contracts_ready_for_prod/PtrnEcosystemParticipationV1_0.sol\":10225:10327  function getInitialActivationAddress() public view returns (address) {... */\n      swap1\n      jump\t// out\n        /* \"ptrn_eco_system_dev_contracts/contracts_ready_for_prod/PtrnEcosystemParticipationV1_0.sol\":4959:5158  function currentRateFeed() public view onlyOwner returns (string memory) {... */\n    tag_108:\n        /* \"ptrn_eco_system_dev_contracts/contracts_ready_for_prod/PtrnEcosystemParticipationV1_0.sol\":5017:5030  string memory */\n      0x60\n        /* \"@openzeppelin/contracts/access/Ownable.sol\":1094:1107  _checkOwner() */\n      tag_310\n        /* \"@openzeppelin/contracts/access/Ownable.sol\":1094:1105  _checkOwner */\n      tag_126\n        /* \"@openzeppelin/contracts/access/Ownable.sol\":1094:1107  _checkOwner() */\n      jump\t// in\n    tag_310:\n        /* \"ptrn_eco_system_dev_contracts/contracts_ready_for_prod/PtrnEcosystemParticipationV1_0.sol\":5042:5062  string memory result */\n      0x60\n        /* \"ptrn_eco_system_dev_contracts/contracts_ready_for_prod/PtrnEcosystemParticipationV1_0.sol\":5072:5084  poolRateFeed */\n      0x02\n      0x14\n      swap1\n      sload\n      swap1\n      0x0100\n      exp\n      swap1\n      div\n      0xff\n      and\n        /* \"ptrn_eco_system_dev_contracts/contracts_ready_for_prod/PtrnEcosystemParticipationV1_0.sol\":5072:5128  poolRateFeed ? result = \"Pool\" : result = \"AggregatorV3\" */\n      tag_312\n      jumpi\n        /* \"ptrn_eco_system_dev_contracts/contracts_ready_for_prod/PtrnEcosystemParticipationV1_0.sol\":5105:5128  result = \"AggregatorV3\" */\n      mload(0x40)\n      dup1\n      0x40\n      add\n      0x40\n      mstore\n      dup1\n      0x0c\n      dup2\n      mstore\n      0x20\n      add\n      0x41676772656761746f7256330000000000000000000000000000000000000000\n      dup2\n      mstore\n      pop\n      swap1\n      pop\n      dup1\n        /* \"ptrn_eco_system_dev_contracts/contracts_ready_for_prod/PtrnEcosystemParticipationV1_0.sol\":5072:5128  poolRateFeed ? result = \"Pool\" : result = \"AggregatorV3\" */\n      jump(tag_313)\n    tag_312:\n        /* \"ptrn_eco_system_dev_contracts/contracts_ready_for_prod/PtrnEcosystemParticipationV1_0.sol\":5087:5102  result = \"Pool\" */\n      mload(0x40)\n      dup1\n      0x40\n      add\n      0x40\n      mstore\n      dup1\n      0x04\n      dup2\n      mstore\n      0x20\n      add\n      0x506f6f6c00000000000000000000000000000000000000000000000000000000\n      dup2\n      mstore\n      pop\n      swap1\n      pop\n      dup1\n        /* \"ptrn_eco_system_dev_contracts/contracts_ready_for_prod/PtrnEcosystemParticipationV1_0.sol\":5072:5128  poolRateFeed ? result = \"Pool\" : result = \"AggregatorV3\" */\n    tag_313:\n      pop\n        /* \"ptrn_eco_system_dev_contracts/contracts_ready_for_prod/PtrnEcosystemParticipationV1_0.sol\":5145:5151  result */\n      dup1\n        /* \"ptrn_eco_system_dev_contracts/contracts_ready_for_prod/PtrnEcosystemParticipationV1_0.sol\":5138:5151  return result */\n      swap2\n      pop\n      pop\n        /* \"ptrn_eco_system_dev_contracts/contracts_ready_for_prod/PtrnEcosystemParticipationV1_0.sol\":4959:5158  function currentRateFeed() public view onlyOwner returns (string memory) {... */\n      swap1\n      jump\t// out\n        /* \"ptrn_eco_system_dev_contracts/contracts_ready_for_prod/PtrnEcosystemParticipationV1_0.sol\":4441:4912  function changeRateFeed() public onlyOwner {... */\n    tag_112:\n        /* \"@openzeppelin/contracts/access/Ownable.sol\":1094:1107  _checkOwner() */\n      tag_315\n        /* \"@openzeppelin/contracts/access/Ownable.sol\":1094:1105  _checkOwner */\n      tag_126\n        /* \"@openzeppelin/contracts/access/Ownable.sol\":1094:1107  _checkOwner() */\n      jump\t// in\n    tag_315:\n        /* \"ptrn_eco_system_dev_contracts/contracts_ready_for_prod/PtrnEcosystemParticipationV1_0.sol\":4498:4510  poolRateFeed */\n      0x02\n      0x14\n      swap1\n      sload\n      swap1\n      0x0100\n      exp\n      swap1\n      div\n      0xff\n      and\n        /* \"ptrn_eco_system_dev_contracts/contracts_ready_for_prod/PtrnEcosystemParticipationV1_0.sol\":4494:4868  if (poolRateFeed) {... */\n      iszero\n      tag_317\n      jumpi\n        /* \"ptrn_eco_system_dev_contracts/contracts_ready_for_prod/PtrnEcosystemParticipationV1_0.sol\":4551:4563  poolRateFeed */\n      0x02\n      0x14\n      swap1\n      sload\n      swap1\n      0x0100\n      exp\n      swap1\n      div\n      0xff\n      and\n        /* \"ptrn_eco_system_dev_contracts/contracts_ready_for_prod/PtrnEcosystemParticipationV1_0.sol\":4551:4610  poolRateFeed && (address(aggregatorConsumer) != address(0)) */\n      dup1\n      iszero\n      tag_318\n      jumpi\n      pop\n        /* \"ptrn_eco_system_dev_contracts/contracts_ready_for_prod/PtrnEcosystemParticipationV1_0.sol\":4607:4608  0 */\n      0x00\n        /* \"ptrn_eco_system_dev_contracts/contracts_ready_for_prod/PtrnEcosystemParticipationV1_0.sol\":4568:4609  address(aggregatorConsumer) != address(0) */\n      0xffffffffffffffffffffffffffffffffffffffff\n      and\n        /* \"ptrn_eco_system_dev_contracts/contracts_ready_for_prod/PtrnEcosystemParticipationV1_0.sol\":4576:4594  aggregatorConsumer */\n      0x07\n      0x00\n      swap1\n      sload\n      swap1\n      0x0100\n      exp\n      swap1\n      div\n      0xffffffffffffffffffffffffffffffffffffffff\n      and\n        /* \"ptrn_eco_system_dev_contracts/contracts_ready_for_prod/PtrnEcosystemParticipationV1_0.sol\":4568:4609  address(aggregatorConsumer) != address(0) */\n      0xffffffffffffffffffffffffffffffffffffffff\n      and\n      eq\n      iszero\n        /* \"ptrn_eco_system_dev_contracts/contracts_ready_for_prod/PtrnEcosystemParticipationV1_0.sol\":4551:4610  poolRateFeed && (address(aggregatorConsumer) != address(0)) */\n    tag_318:\n        /* \"ptrn_eco_system_dev_contracts/contracts_ready_for_prod/PtrnEcosystemParticipationV1_0.sol\":4526:4682  require(... */\n      tag_319\n      jumpi\n      mload(0x40)\n      0x08c379a000000000000000000000000000000000000000000000000000000000\n      dup2\n      mstore\n      0x04\n      add\n      tag_320\n      swap1\n      tag_321\n      jump\t// in\n    tag_320:\n      mload(0x40)\n      dup1\n      swap2\n      sub\n      swap1\n      revert\n    tag_319:\n        /* \"ptrn_eco_system_dev_contracts/contracts_ready_for_prod/PtrnEcosystemParticipationV1_0.sol\":4494:4868  if (poolRateFeed) {... */\n      jump(tag_322)\n    tag_317:\n        /* \"ptrn_eco_system_dev_contracts/contracts_ready_for_prod/PtrnEcosystemParticipationV1_0.sol\":4738:4750  poolRateFeed */\n      0x02\n      0x14\n      swap1\n      sload\n      swap1\n      0x0100\n      exp\n      swap1\n      div\n      0xff\n      and\n        /* \"ptrn_eco_system_dev_contracts/contracts_ready_for_prod/PtrnEcosystemParticipationV1_0.sol\":4738:4791  poolRateFeed && (address(poolConsumer) != address(0)) */\n      dup1\n      iszero\n      tag_323\n      jumpi\n      pop\n        /* \"ptrn_eco_system_dev_contracts/contracts_ready_for_prod/PtrnEcosystemParticipationV1_0.sol\":4788:4789  0 */\n      0x00\n        /* \"ptrn_eco_system_dev_contracts/contracts_ready_for_prod/PtrnEcosystemParticipationV1_0.sol\":4755:4790  address(poolConsumer) != address(0) */\n      0xffffffffffffffffffffffffffffffffffffffff\n      and\n        /* \"ptrn_eco_system_dev_contracts/contracts_ready_for_prod/PtrnEcosystemParticipationV1_0.sol\":4763:4775  poolConsumer */\n      0x08\n      0x00\n      swap1\n      sload\n      swap1\n      0x0100\n      exp\n      swap1\n      div\n      0xffffffffffffffffffffffffffffffffffffffff\n      and\n        /* \"ptrn_eco_system_dev_contracts/contracts_ready_for_prod/PtrnEcosystemParticipationV1_0.sol\":4755:4790  address(poolConsumer) != address(0) */\n      0xffffffffffffffffffffffffffffffffffffffff\n      and\n      eq\n      iszero\n        /* \"ptrn_eco_system_dev_contracts/contracts_ready_for_prod/PtrnEcosystemParticipationV1_0.sol\":4738:4791  poolRateFeed && (address(poolConsumer) != address(0)) */\n    tag_323:\n        /* \"ptrn_eco_system_dev_contracts/contracts_ready_for_prod/PtrnEcosystemParticipationV1_0.sol\":4713:4857  require(... */\n      tag_324\n      jumpi\n      mload(0x40)\n      0x08c379a000000000000000000000000000000000000000000000000000000000\n      dup2\n      mstore\n      0x04\n      add\n      tag_325\n      swap1\n      tag_326\n      jump\t// in\n    tag_325:\n      mload(0x40)\n      dup1\n      swap2\n      sub\n      swap1\n      revert\n    tag_324:\n        /* \"ptrn_eco_system_dev_contracts/contracts_ready_for_prod/PtrnEcosystemParticipationV1_0.sol\":4494:4868  if (poolRateFeed) {... */\n    tag_322:\n        /* \"ptrn_eco_system_dev_contracts/contracts_ready_for_prod/PtrnEcosystemParticipationV1_0.sol\":4893:4905  poolRateFeed */\n      0x02\n      0x14\n      swap1\n      sload\n      swap1\n      0x0100\n      exp\n      swap1\n      div\n      0xff\n      and\n        /* \"ptrn_eco_system_dev_contracts/contracts_ready_for_prod/PtrnEcosystemParticipationV1_0.sol\":4892:4905  !poolRateFeed */\n      iszero\n        /* \"ptrn_eco_system_dev_contracts/contracts_ready_for_prod/PtrnEcosystemParticipationV1_0.sol\":4877:4889  poolRateFeed */\n      0x02\n      0x14\n        /* \"ptrn_eco_system_dev_contracts/contracts_ready_for_prod/PtrnEcosystemParticipationV1_0.sol\":4877:4905  poolRateFeed = !poolRateFeed */\n      0x0100\n      exp\n      dup2\n      sload\n      dup2\n      0xff\n      mul\n      not\n      and\n      swap1\n      dup4\n      iszero\n      iszero\n      mul\n      or\n      swap1\n      sstore\n      pop\n        /* \"ptrn_eco_system_dev_contracts/contracts_ready_for_prod/PtrnEcosystemParticipationV1_0.sol\":4441:4912  function changeRateFeed() public onlyOwner {... */\n      jump\t// out\n        /* \"ptrn_eco_system_dev_contracts/contracts_ready_for_prod/PtrnEcosystemParticipationV1_0.sol\":5759:6986  function chargeContract(uint256 amount)... */\n    tag_116:\n        /* \"ptrn_eco_system_dev_contracts/contracts_ready_for_prod/PtrnEcosystemParticipationV1_0.sol\":5951:5955  bool */\n      0x00\n        /* \"@openzeppelin/contracts/security/Pausable.sol\":1239:1258  _requireNotPaused() */\n      tag_328\n        /* \"@openzeppelin/contracts/security/Pausable.sol\":1239:1256  _requireNotPaused */\n      tag_150\n        /* \"@openzeppelin/contracts/security/Pausable.sol\":1239:1258  _requireNotPaused() */\n      jump\t// in\n    tag_328:\n        /* \"ptrn_eco_system_dev_contracts/contracts_ready_for_prod/PtrnEcosystemParticipationV1_0.sol\":2151:2152  0 */\n      0x00\n        /* \"ptrn_eco_system_dev_contracts/contracts_ready_for_prod/PtrnEcosystemParticipationV1_0.sol\":2118:2153  acceptedSenderAddress != address(0) */\n      0xffffffffffffffffffffffffffffffffffffffff\n      and\n        /* \"ptrn_eco_system_dev_contracts/contracts_ready_for_prod/PtrnEcosystemParticipationV1_0.sol\":2118:2139  acceptedSenderAddress */\n      0x02\n      0x00\n      swap1\n      sload\n      swap1\n      0x0100\n      exp\n      swap1\n      div\n      0xffffffffffffffffffffffffffffffffffffffff\n      and\n        /* \"ptrn_eco_system_dev_contracts/contracts_ready_for_prod/PtrnEcosystemParticipationV1_0.sol\":2118:2153  acceptedSenderAddress != address(0) */\n      0xffffffffffffffffffffffffffffffffffffffff\n      and\n      sub\n        /* \"ptrn_eco_system_dev_contracts/contracts_ready_for_prod/PtrnEcosystemParticipationV1_0.sol\":2110:2172  require(acceptedSenderAddress != address(0), \"Not activated!\") */\n      tag_330\n      jumpi\n      mload(0x40)\n      0x08c379a000000000000000000000000000000000000000000000000000000000\n      dup2\n      mstore\n      0x04\n      add\n      tag_331\n      swap1\n      tag_159\n      jump\t// in\n    tag_331:\n      mload(0x40)\n      dup1\n      swap2\n      sub\n      swap1\n      revert\n    tag_330:\n        /* \"ptrn_eco_system_dev_contracts/contracts_ready_for_prod/PtrnEcosystemParticipationV1_0.sol\":2014:2035  acceptedSenderAddress */\n      0x02\n      0x00\n      swap1\n      sload\n      swap1\n      0x0100\n      exp\n      swap1\n      div\n      0xffffffffffffffffffffffffffffffffffffffff\n      and\n        /* \"ptrn_eco_system_dev_contracts/contracts_ready_for_prod/PtrnEcosystemParticipationV1_0.sol\":2000:2035  msg.sender == acceptedSenderAddress */\n      0xffffffffffffffffffffffffffffffffffffffff\n      and\n        /* \"ptrn_eco_system_dev_contracts/contracts_ready_for_prod/PtrnEcosystemParticipationV1_0.sol\":2000:2010  msg.sender */\n      caller\n        /* \"ptrn_eco_system_dev_contracts/contracts_ready_for_prod/PtrnEcosystemParticipationV1_0.sol\":2000:2035  msg.sender == acceptedSenderAddress */\n      0xffffffffffffffffffffffffffffffffffffffff\n      and\n      eq\n        /* \"ptrn_eco_system_dev_contracts/contracts_ready_for_prod/PtrnEcosystemParticipationV1_0.sol\":1992:2055  require(msg.sender == acceptedSenderAddress, \"Not Authorized!\") */\n      tag_333\n      jumpi\n      mload(0x40)\n      0x08c379a000000000000000000000000000000000000000000000000000000000\n      dup2\n      mstore\n      0x04\n      add\n      tag_334\n      swap1\n      tag_171\n      jump\t// in\n    tag_334:\n      mload(0x40)\n      dup1\n      swap2\n      sub\n      swap1\n      revert\n    tag_333:\n        /* \"ptrn_eco_system_dev_contracts/contracts_ready_for_prod/PtrnEcosystemParticipationV1_0.sol\":5988:5989  0 */\n      0x00\n        /* \"ptrn_eco_system_dev_contracts/contracts_ready_for_prod/PtrnEcosystemParticipationV1_0.sol\":5979:5985  amount */\n      dup3\n        /* \"ptrn_eco_system_dev_contracts/contracts_ready_for_prod/PtrnEcosystemParticipationV1_0.sol\":5979:5989  amount > 0 */\n      gt\n        /* \"ptrn_eco_system_dev_contracts/contracts_ready_for_prod/PtrnEcosystemParticipationV1_0.sol\":5971:6011  require(amount > 0, \"No charge amount!\") */\n      tag_336\n      jumpi\n      mload(0x40)\n      0x08c379a000000000000000000000000000000000000000000000000000000000\n      dup2\n      mstore\n      0x04\n      add\n      tag_337\n      swap1\n      tag_338\n      jump\t// in\n    tag_337:\n      mload(0x40)\n      dup1\n      swap2\n      sub\n      swap1\n      revert\n    tag_336:\n        /* \"ptrn_eco_system_dev_contracts/contracts_ready_for_prod/PtrnEcosystemParticipationV1_0.sol\":6021:6038  uint256 allowance */\n      0x00\n        /* \"ptrn_eco_system_dev_contracts/contracts_ready_for_prod/PtrnEcosystemParticipationV1_0.sol\":6041:6046  TOKEN */\n      immutable(\"0xb5f9271c1f94b43badbaa8ac2cd5837eef4d124f89532d652ed47c9751211dfb\")\n        /* \"ptrn_eco_system_dev_contracts/contracts_ready_for_prod/PtrnEcosystemParticipationV1_0.sol\":6041:6056  TOKEN.allowance */\n      0xffffffffffffffffffffffffffffffffffffffff\n      and\n      0xdd62ed3e\n        /* \"ptrn_eco_system_dev_contracts/contracts_ready_for_prod/PtrnEcosystemParticipationV1_0.sol\":6057:6067  msg.sender */\n      caller\n        /* \"ptrn_eco_system_dev_contracts/contracts_ready_for_prod/PtrnEcosystemParticipationV1_0.sol\":6077:6081  this */\n      address\n        /* \"ptrn_eco_system_dev_contracts/contracts_ready_for_prod/PtrnEcosystemParticipationV1_0.sol\":6041:6083  TOKEN.allowance(msg.sender, address(this)) */\n      mload(0x40)\n      dup4\n      0xffffffff\n      and\n      0xe0\n      shl\n      dup2\n      mstore\n      0x04\n      add\n      tag_339\n      swap3\n      swap2\n      swap1\n      tag_340\n      jump\t// in\n    tag_339:\n      0x20\n      mload(0x40)\n      dup1\n      dup4\n      sub\n      dup2\n      dup7\n      gas\n      staticcall\n      iszero\n      dup1\n      iszero\n      tag_342\n      jumpi\n      returndatasize\n      0x00\n      dup1\n      returndatacopy\n      revert(0x00, returndatasize)\n    tag_342:\n      pop\n      pop\n      pop\n      pop\n      mload(0x40)\n      returndatasize\n      not(0x1f)\n      0x1f\n      dup3\n      add\n      and\n      dup3\n      add\n      dup1\n      0x40\n      mstore\n      pop\n      dup2\n      add\n      swap1\n      tag_343\n      swap2\n      swap1\n      tag_245\n      jump\t// in\n    tag_343:\n        /* \"ptrn_eco_system_dev_contracts/contracts_ready_for_prod/PtrnEcosystemParticipationV1_0.sol\":6021:6083  uint256 allowance = TOKEN.allowance(msg.sender, address(this)) */\n      swap1\n      pop\n        /* \"ptrn_eco_system_dev_contracts/contracts_ready_for_prod/PtrnEcosystemParticipationV1_0.sol\":6127:6133  amount */\n      dup3\n        /* \"ptrn_eco_system_dev_contracts/contracts_ready_for_prod/PtrnEcosystemParticipationV1_0.sol\":6114:6123  allowance */\n      dup2\n        /* \"ptrn_eco_system_dev_contracts/contracts_ready_for_prod/PtrnEcosystemParticipationV1_0.sol\":6114:6133  allowance >= amount */\n      lt\n      iszero\n        /* \"ptrn_eco_system_dev_contracts/contracts_ready_for_prod/PtrnEcosystemParticipationV1_0.sol\":6175:6187  TOKEN_SYMBOL */\n      0x01\n        /* \"ptrn_eco_system_dev_contracts/contracts_ready_for_prod/PtrnEcosystemParticipationV1_0.sol\":6147:6213  string.concat(\"Check the \", TOKEN_SYMBOL, \" token \", \"allowance!\") */\n      add(0x20, mload(0x40))\n      tag_344\n      swap2\n      swap1\n      tag_345\n      jump\t// in\n    tag_344:\n      mload(0x40)\n      0x20\n      dup2\n      dup4\n      sub\n      sub\n      dup2\n      mstore\n      swap1\n      0x40\n      mstore\n        /* \"ptrn_eco_system_dev_contracts/contracts_ready_for_prod/PtrnEcosystemParticipationV1_0.sol\":6093:6223  require(... */\n      swap1\n      tag_346\n      jumpi\n      mload(0x40)\n      0x08c379a000000000000000000000000000000000000000000000000000000000\n      dup2\n      mstore\n      0x04\n      add\n      tag_347\n      swap2\n      swap1\n      tag_110\n      jump\t// in\n    tag_347:\n      mload(0x40)\n      dup1\n      swap2\n      sub\n      swap1\n      revert\n    tag_346:\n      pop\n        /* \"ptrn_eco_system_dev_contracts/contracts_ready_for_prod/PtrnEcosystemParticipationV1_0.sol\":6233:6238  TOKEN */\n      immutable(\"0xb5f9271c1f94b43badbaa8ac2cd5837eef4d124f89532d652ed47c9751211dfb\")\n        /* \"ptrn_eco_system_dev_contracts/contracts_ready_for_prod/PtrnEcosystemParticipationV1_0.sol\":6233:6251  TOKEN.transferFrom */\n      0xffffffffffffffffffffffffffffffffffffffff\n      and\n      0x23b872dd\n        /* \"ptrn_eco_system_dev_contracts/contracts_ready_for_prod/PtrnEcosystemParticipationV1_0.sol\":6252:6262  msg.sender */\n      caller\n        /* \"ptrn_eco_system_dev_contracts/contracts_ready_for_prod/PtrnEcosystemParticipationV1_0.sol\":6272:6276  this */\n      address\n        /* \"ptrn_eco_system_dev_contracts/contracts_ready_for_prod/PtrnEcosystemParticipationV1_0.sol\":6279:6285  amount */\n      dup7\n        /* \"ptrn_eco_system_dev_contracts/contracts_ready_for_prod/PtrnEcosystemParticipationV1_0.sol\":6233:6286  TOKEN.transferFrom(msg.sender, address(this), amount) */\n      mload(0x40)\n      dup5\n      0xffffffff\n      and\n      0xe0\n      shl\n      dup2\n      mstore\n      0x04\n      add\n      tag_348\n      swap4\n      swap3\n      swap2\n      swap1\n      tag_349\n      jump\t// in\n    tag_348:\n      0x20\n      mload(0x40)\n      dup1\n      dup4\n      sub\n      dup2\n      0x00\n      dup8\n      gas\n      call\n      iszero\n      dup1\n      iszero\n      tag_351\n      jumpi\n      returndatasize\n      0x00\n      dup1\n      returndatacopy\n      revert(0x00, returndatasize)\n    tag_351:\n      pop\n      pop\n      pop\n      pop\n      mload(0x40)\n      returndatasize\n      not(0x1f)\n      0x1f\n      dup3\n      add\n      and\n      dup3\n      add\n      dup1\n      0x40\n      mstore\n      pop\n      dup2\n      add\n      swap1\n      tag_352\n      swap2\n      swap1\n      tag_232\n      jump\t// in\n    tag_352:\n      pop\n        /* \"ptrn_eco_system_dev_contracts/contracts_ready_for_prod/PtrnEcosystemParticipationV1_0.sol\":6310:6322  uint256 rate */\n      0x00\n        /* \"ptrn_eco_system_dev_contracts/contracts_ready_for_prod/PtrnEcosystemParticipationV1_0.sol\":6336:6352  uint256 decimals */\n      dup1\n        /* \"ptrn_eco_system_dev_contracts/contracts_ready_for_prod/PtrnEcosystemParticipationV1_0.sol\":6366:6396  string memory chargeRateString */\n      0x00\n        /* \"ptrn_eco_system_dev_contracts/contracts_ready_for_prod/PtrnEcosystemParticipationV1_0.sol\":6410:6432  uint256 chargeRateDate */\n      dup1\n        /* \"ptrn_eco_system_dev_contracts/contracts_ready_for_prod/PtrnEcosystemParticipationV1_0.sol\":6445:6454  getRate() */\n      tag_353\n        /* \"ptrn_eco_system_dev_contracts/contracts_ready_for_prod/PtrnEcosystemParticipationV1_0.sol\":6445:6452  getRate */\n      tag_354\n        /* \"ptrn_eco_system_dev_contracts/contracts_ready_for_prod/PtrnEcosystemParticipationV1_0.sol\":6445:6454  getRate() */\n      jump\t// in\n    tag_353:\n        /* \"ptrn_eco_system_dev_contracts/contracts_ready_for_prod/PtrnEcosystemParticipationV1_0.sol\":6296:6454  (... */\n      swap4\n      pop\n      swap4\n      pop\n      swap4\n      pop\n      swap4\n      pop\n        /* \"ptrn_eco_system_dev_contracts/contracts_ready_for_prod/PtrnEcosystemParticipationV1_0.sol\":6479:6480  0 */\n      0x00\n        /* \"ptrn_eco_system_dev_contracts/contracts_ready_for_prod/PtrnEcosystemParticipationV1_0.sol\":6472:6476  rate */\n      dup5\n        /* \"ptrn_eco_system_dev_contracts/contracts_ready_for_prod/PtrnEcosystemParticipationV1_0.sol\":6472:6480  rate > 0 */\n      gt\n        /* \"ptrn_eco_system_dev_contracts/contracts_ready_for_prod/PtrnEcosystemParticipationV1_0.sol\":6472:6496  rate > 0 && decimals > 0 */\n      dup1\n      iszero\n      tag_355\n      jumpi\n      pop\n        /* \"ptrn_eco_system_dev_contracts/contracts_ready_for_prod/PtrnEcosystemParticipationV1_0.sol\":6495:6496  0 */\n      0x00\n        /* \"ptrn_eco_system_dev_contracts/contracts_ready_for_prod/PtrnEcosystemParticipationV1_0.sol\":6484:6492  decimals */\n      dup4\n        /* \"ptrn_eco_system_dev_contracts/contracts_ready_for_prod/PtrnEcosystemParticipationV1_0.sol\":6484:6496  decimals > 0 */\n      gt\n        /* \"ptrn_eco_system_dev_contracts/contracts_ready_for_prod/PtrnEcosystemParticipationV1_0.sol\":6472:6496  rate > 0 && decimals > 0 */\n    tag_355:\n        /* \"ptrn_eco_system_dev_contracts/contracts_ready_for_prod/PtrnEcosystemParticipationV1_0.sol\":6472:6518  rate > 0 && decimals > 0 && chargeRateDate > 0 */\n      dup1\n      iszero\n      tag_356\n      jumpi\n      pop\n        /* \"ptrn_eco_system_dev_contracts/contracts_ready_for_prod/PtrnEcosystemParticipationV1_0.sol\":6517:6518  0 */\n      0x00\n        /* \"ptrn_eco_system_dev_contracts/contracts_ready_for_prod/PtrnEcosystemParticipationV1_0.sol\":6500:6514  chargeRateDate */\n      dup2\n        /* \"ptrn_eco_system_dev_contracts/contracts_ready_for_prod/PtrnEcosystemParticipationV1_0.sol\":6500:6518  chargeRateDate > 0 */\n      gt\n        /* \"ptrn_eco_system_dev_contracts/contracts_ready_for_prod/PtrnEcosystemParticipationV1_0.sol\":6472:6518  rate > 0 && decimals > 0 && chargeRateDate > 0 */\n    tag_356:\n        /* \"ptrn_eco_system_dev_contracts/contracts_ready_for_prod/PtrnEcosystemParticipationV1_0.sol\":6464:6534  require(rate > 0 && decimals > 0 && chargeRateDate > 0, \"rate error!\") */\n      tag_357\n      jumpi\n      mload(0x40)\n      0x08c379a000000000000000000000000000000000000000000000000000000000\n      dup2\n      mstore\n      0x04\n      add\n      tag_358\n      swap1\n      tag_359\n      jump\t// in\n    tag_358:\n      mload(0x40)\n      dup1\n      swap2\n      sub\n      swap1\n      revert\n    tag_357:\n        /* \"ptrn_eco_system_dev_contracts/contracts_ready_for_prod/PtrnEcosystemParticipationV1_0.sol\":6544:6570  burnIncomingTokens(amount) */\n      tag_360\n        /* \"ptrn_eco_system_dev_contracts/contracts_ready_for_prod/PtrnEcosystemParticipationV1_0.sol\":6563:6569  amount */\n      dup8\n        /* \"ptrn_eco_system_dev_contracts/contracts_ready_for_prod/PtrnEcosystemParticipationV1_0.sol\":6544:6562  burnIncomingTokens */\n      tag_361\n        /* \"ptrn_eco_system_dev_contracts/contracts_ready_for_prod/PtrnEcosystemParticipationV1_0.sol\":6544:6570  burnIncomingTokens(amount) */\n      jump\t// in\n    tag_360:\n      pop\n        /* \"ptrn_eco_system_dev_contracts/contracts_ready_for_prod/PtrnEcosystemParticipationV1_0.sol\":6580:6594  uint256 points */\n      0x00\n        /* \"ptrn_eco_system_dev_contracts/contracts_ready_for_prod/PtrnEcosystemParticipationV1_0.sol\":6597:6636  calculatePoints(amount, rate, decimals) */\n      tag_362\n        /* \"ptrn_eco_system_dev_contracts/contracts_ready_for_prod/PtrnEcosystemParticipationV1_0.sol\":6613:6619  amount */\n      dup9\n        /* \"ptrn_eco_system_dev_contracts/contracts_ready_for_prod/PtrnEcosystemParticipationV1_0.sol\":6621:6625  rate */\n      dup7\n        /* \"ptrn_eco_system_dev_contracts/contracts_ready_for_prod/PtrnEcosystemParticipationV1_0.sol\":6627:6635  decimals */\n      dup7\n        /* \"ptrn_eco_system_dev_contracts/contracts_ready_for_prod/PtrnEcosystemParticipationV1_0.sol\":6597:6612  calculatePoints */\n      tag_363\n        /* \"ptrn_eco_system_dev_contracts/contracts_ready_for_prod/PtrnEcosystemParticipationV1_0.sol\":6597:6636  calculatePoints(amount, rate, decimals) */\n      jump\t// in\n    tag_362:\n        /* \"ptrn_eco_system_dev_contracts/contracts_ready_for_prod/PtrnEcosystemParticipationV1_0.sol\":6580:6636  uint256 points = calculatePoints(amount, rate, decimals) */\n      swap1\n      pop\n        /* \"ptrn_eco_system_dev_contracts/contracts_ready_for_prod/PtrnEcosystemParticipationV1_0.sol\":6669:6675  points */\n      dup1\n        /* \"ptrn_eco_system_dev_contracts/contracts_ready_for_prod/PtrnEcosystemParticipationV1_0.sol\":6646:6665  availableToWithdraw */\n      0x05\n      0x00\n        /* \"ptrn_eco_system_dev_contracts/contracts_ready_for_prod/PtrnEcosystemParticipationV1_0.sol\":6646:6675  availableToWithdraw += points */\n      dup3\n      dup3\n      sload\n      tag_364\n      swap2\n      swap1\n      tag_138\n      jump\t// in\n    tag_364:\n      swap3\n      pop\n      pop\n      dup2\n      swap1\n      sstore\n      pop\n        /* \"ptrn_eco_system_dev_contracts/contracts_ready_for_prod/PtrnEcosystemParticipationV1_0.sol\":6703:6709  points */\n      dup1\n        /* \"ptrn_eco_system_dev_contracts/contracts_ready_for_prod/PtrnEcosystemParticipationV1_0.sol\":6685:6699  totalConverted */\n      0x04\n      0x00\n        /* \"ptrn_eco_system_dev_contracts/contracts_ready_for_prod/PtrnEcosystemParticipationV1_0.sol\":6685:6709  totalConverted += points */\n      dup3\n      dup3\n      sload\n      tag_365\n      swap2\n      swap1\n      tag_138\n      jump\t// in\n    tag_365:\n      swap3\n      pop\n      pop\n      dup2\n      swap1\n      sstore\n      pop\n        /* \"ptrn_eco_system_dev_contracts/contracts_ready_for_prod/PtrnEcosystemParticipationV1_0.sol\":6719:6737  uint256 chargeTime */\n      0x00\n        /* \"ptrn_eco_system_dev_contracts/contracts_ready_for_prod/PtrnEcosystemParticipationV1_0.sol\":6740:6755  block.timestamp */\n      timestamp\n        /* \"ptrn_eco_system_dev_contracts/contracts_ready_for_prod/PtrnEcosystemParticipationV1_0.sol\":6719:6755  uint256 chargeTime = block.timestamp */\n      swap1\n      pop\n        /* \"ptrn_eco_system_dev_contracts/contracts_ready_for_prod/PtrnEcosystemParticipationV1_0.sol\":6936:6946  chargeTime */\n      dup1\n        /* \"ptrn_eco_system_dev_contracts/contracts_ready_for_prod/PtrnEcosystemParticipationV1_0.sol\":6916:6922  amount */\n      dup10\n        /* \"ptrn_eco_system_dev_contracts/contracts_ready_for_prod/PtrnEcosystemParticipationV1_0.sol\":6896:6902  points */\n      dup4\n        /* \"ptrn_eco_system_dev_contracts/contracts_ready_for_prod/PtrnEcosystemParticipationV1_0.sol\":6770:6956  ChargeContract(... */\n      0xb5aeb7b225999adc33232be2121afb1a366c15108c1da745d17fd76108172fe4\n        /* \"ptrn_eco_system_dev_contracts/contracts_ready_for_prod/PtrnEcosystemParticipationV1_0.sol\":6798:6802  rate */\n      dup10\n        /* \"ptrn_eco_system_dev_contracts/contracts_ready_for_prod/PtrnEcosystemParticipationV1_0.sol\":6816:6824  decimals */\n      dup10\n        /* \"ptrn_eco_system_dev_contracts/contracts_ready_for_prod/PtrnEcosystemParticipationV1_0.sol\":6838:6852  chargeRateDate */\n      dup9\n        /* \"ptrn_eco_system_dev_contracts/contracts_ready_for_prod/PtrnEcosystemParticipationV1_0.sol\":6866:6882  chargeRateString */\n      dup11\n        /* \"ptrn_eco_system_dev_contracts/contracts_ready_for_prod/PtrnEcosystemParticipationV1_0.sol\":6770:6956  ChargeContract(... */\n      mload(0x40)\n      tag_366\n      swap5\n      swap4\n      swap3\n      swap2\n      swap1\n      tag_367\n      jump\t// in\n    tag_366:\n      mload(0x40)\n      dup1\n      swap2\n      sub\n      swap1\n      log4\n        /* \"ptrn_eco_system_dev_contracts/contracts_ready_for_prod/PtrnEcosystemParticipationV1_0.sol\":6974:6978  true */\n      0x01\n        /* \"ptrn_eco_system_dev_contracts/contracts_ready_for_prod/PtrnEcosystemParticipationV1_0.sol\":6966:6979  return (true) */\n      swap8\n      pop\n      pop\n      pop\n      pop\n      pop\n      pop\n      pop\n      pop\n        /* \"ptrn_eco_system_dev_contracts/contracts_ready_for_prod/PtrnEcosystemParticipationV1_0.sol\":5759:6986  function chargeContract(uint256 amount)... */\n      swap2\n      swap1\n      pop\n      jump\t// out\n        /* \"@openzeppelin/contracts/access/Ownable.sol\":2081:2279  function transferOwnership(address newOwner) public virtual onlyOwner {... */\n    tag_120:\n        /* \"@openzeppelin/contracts/access/Ownable.sol\":1094:1107  _checkOwner() */\n      tag_369\n        /* \"@openzeppelin/contracts/access/Ownable.sol\":1094:1105  _checkOwner */\n      tag_126\n        /* \"@openzeppelin/contracts/access/Ownable.sol\":1094:1107  _checkOwner() */\n      jump\t// in\n    tag_369:\n        /* \"@openzeppelin/contracts/access/Ownable.sol\":2189:2190  0 */\n      0x00\n        /* \"@openzeppelin/contracts/access/Ownable.sol\":2169:2191  newOwner != address(0) */\n      0xffffffffffffffffffffffffffffffffffffffff\n      and\n        /* \"@openzeppelin/contracts/access/Ownable.sol\":2169:2177  newOwner */\n      dup2\n        /* \"@openzeppelin/contracts/access/Ownable.sol\":2169:2191  newOwner != address(0) */\n      0xffffffffffffffffffffffffffffffffffffffff\n      and\n      sub\n        /* \"@openzeppelin/contracts/access/Ownable.sol\":2161:2234  require(newOwner != address(0), \"Ownable: new owner is the zero address\") */\n      tag_371\n      jumpi\n      mload(0x40)\n      0x08c379a000000000000000000000000000000000000000000000000000000000\n      dup2\n      mstore\n      0x04\n      add\n      tag_372\n      swap1\n      tag_373\n      jump\t// in\n    tag_372:\n      mload(0x40)\n      dup1\n      swap2\n      sub\n      swap1\n      revert\n    tag_371:\n        /* \"@openzeppelin/contracts/access/Ownable.sol\":2244:2272  _transferOwnership(newOwner) */\n      tag_374\n        /* \"@openzeppelin/contracts/access/Ownable.sol\":2263:2271  newOwner */\n      dup2\n        /* \"@openzeppelin/contracts/access/Ownable.sol\":2244:2262  _transferOwnership */\n      tag_237\n        /* \"@openzeppelin/contracts/access/Ownable.sol\":2244:2272  _transferOwnership(newOwner) */\n      jump\t// in\n    tag_374:\n        /* \"@openzeppelin/contracts/access/Ownable.sol\":2081:2279  function transferOwnership(address newOwner) public virtual onlyOwner {... */\n      pop\n      jump\t// out\n        /* \"ptrn_eco_system_dev_contracts/contracts_ready_for_prod/PtrnEcosystemParticipationV1_0.sol\":9509:9693  function getCurrentPointsBalance()... */\n    tag_122:\n        /* \"ptrn_eco_system_dev_contracts/contracts_ready_for_prod/PtrnEcosystemParticipationV1_0.sol\":9637:9644  uint256 */\n      0x00\n        /* \"ptrn_eco_system_dev_contracts/contracts_ready_for_prod/PtrnEcosystemParticipationV1_0.sol\":2151:2152  0 */\n      dup1\n        /* \"ptrn_eco_system_dev_contracts/contracts_ready_for_prod/PtrnEcosystemParticipationV1_0.sol\":2118:2153  acceptedSenderAddress != address(0) */\n      0xffffffffffffffffffffffffffffffffffffffff\n      and\n        /* \"ptrn_eco_system_dev_contracts/contracts_ready_for_prod/PtrnEcosystemParticipationV1_0.sol\":2118:2139  acceptedSenderAddress */\n      0x02\n      0x00\n      swap1\n      sload\n      swap1\n      0x0100\n      exp\n      swap1\n      div\n      0xffffffffffffffffffffffffffffffffffffffff\n      and\n        /* \"ptrn_eco_system_dev_contracts/contracts_ready_for_prod/PtrnEcosystemParticipationV1_0.sol\":2118:2153  acceptedSenderAddress != address(0) */\n      0xffffffffffffffffffffffffffffffffffffffff\n      and\n      sub\n        /* \"ptrn_eco_system_dev_contracts/contracts_ready_for_prod/PtrnEcosystemParticipationV1_0.sol\":2110:2172  require(acceptedSenderAddress != address(0), \"Not activated!\") */\n      tag_376\n      jumpi\n      mload(0x40)\n      0x08c379a000000000000000000000000000000000000000000000000000000000\n      dup2\n      mstore\n      0x04\n      add\n      tag_377\n      swap1\n      tag_159\n      jump\t// in\n    tag_377:\n      mload(0x40)\n      dup1\n      swap2\n      sub\n      swap1\n      revert\n    tag_376:\n        /* \"ptrn_eco_system_dev_contracts/contracts_ready_for_prod/PtrnEcosystemParticipationV1_0.sol\":2275:2296  acceptedSenderAddress */\n      0x02\n      0x00\n      swap1\n      sload\n      swap1\n      0x0100\n      exp\n      swap1\n      div\n      0xffffffffffffffffffffffffffffffffffffffff\n      and\n        /* \"ptrn_eco_system_dev_contracts/contracts_ready_for_prod/PtrnEcosystemParticipationV1_0.sol\":2261:2296  msg.sender == acceptedSenderAddress */\n      0xffffffffffffffffffffffffffffffffffffffff\n      and\n        /* \"ptrn_eco_system_dev_contracts/contracts_ready_for_prod/PtrnEcosystemParticipationV1_0.sol\":2261:2271  msg.sender */\n      caller\n        /* \"ptrn_eco_system_dev_contracts/contracts_ready_for_prod/PtrnEcosystemParticipationV1_0.sol\":2261:2296  msg.sender == acceptedSenderAddress */\n      0xffffffffffffffffffffffffffffffffffffffff\n      and\n      eq\n        /* \"ptrn_eco_system_dev_contracts/contracts_ready_for_prod/PtrnEcosystemParticipationV1_0.sol\":2261:2321  msg.sender == acceptedSenderAddress || msg.sender == owner() */\n      dup1\n      tag_379\n      jumpi\n      pop\n        /* \"ptrn_eco_system_dev_contracts/contracts_ready_for_prod/PtrnEcosystemParticipationV1_0.sol\":2314:2321  owner() */\n      tag_380\n        /* \"ptrn_eco_system_dev_contracts/contracts_ready_for_prod/PtrnEcosystemParticipationV1_0.sol\":2314:2319  owner */\n      tag_85\n        /* \"ptrn_eco_system_dev_contracts/contracts_ready_for_prod/PtrnEcosystemParticipationV1_0.sol\":2314:2321  owner() */\n      jump\t// in\n    tag_380:\n        /* \"ptrn_eco_system_dev_contracts/contracts_ready_for_prod/PtrnEcosystemParticipationV1_0.sol\":2300:2321  msg.sender == owner() */\n      0xffffffffffffffffffffffffffffffffffffffff\n      and\n        /* \"ptrn_eco_system_dev_contracts/contracts_ready_for_prod/PtrnEcosystemParticipationV1_0.sol\":2300:2310  msg.sender */\n      caller\n        /* \"ptrn_eco_system_dev_contracts/contracts_ready_for_prod/PtrnEcosystemParticipationV1_0.sol\":2300:2321  msg.sender == owner() */\n      0xffffffffffffffffffffffffffffffffffffffff\n      and\n      eq\n        /* \"ptrn_eco_system_dev_contracts/contracts_ready_for_prod/PtrnEcosystemParticipationV1_0.sol\":2261:2321  msg.sender == acceptedSenderAddress || msg.sender == owner() */\n    tag_379:\n        /* \"ptrn_eco_system_dev_contracts/contracts_ready_for_prod/PtrnEcosystemParticipationV1_0.sol\":2239:2412  require(... */\n      tag_381\n      jumpi\n      mload(0x40)\n      0x08c379a000000000000000000000000000000000000000000000000000000000\n      dup2\n      mstore\n      0x04\n      add\n      tag_382\n      swap1\n      tag_195\n      jump\t// in\n    tag_382:\n      mload(0x40)\n      dup1\n      swap2\n      sub\n      swap1\n      revert\n    tag_381:\n        /* \"ptrn_eco_system_dev_contracts/contracts_ready_for_prod/PtrnEcosystemParticipationV1_0.sol\":9667:9686  availableToWithdraw */\n      sload(0x05)\n        /* \"ptrn_eco_system_dev_contracts/contracts_ready_for_prod/PtrnEcosystemParticipationV1_0.sol\":9660:9686  return availableToWithdraw */\n      swap1\n      pop\n        /* \"ptrn_eco_system_dev_contracts/contracts_ready_for_prod/PtrnEcosystemParticipationV1_0.sol\":9509:9693  function getCurrentPointsBalance()... */\n      swap1\n      jump\t// out\n        /* \"@openzeppelin/contracts/access/Ownable.sol\":1359:1489  function _checkOwner() internal view virtual {... */\n    tag_126:\n        /* \"@openzeppelin/contracts/access/Ownable.sol\":1433:1445  _msgSender() */\n      tag_385\n        /* \"@openzeppelin/contracts/access/Ownable.sol\":1433:1443  _msgSender */\n      tag_386\n        /* \"@openzeppelin/contracts/access/Ownable.sol\":1433:1445  _msgSender() */\n      jump\t// in\n    tag_385:\n        /* \"@openzeppelin/contracts/access/Ownable.sol\":1422:1445  owner() == _msgSender() */\n      0xffffffffffffffffffffffffffffffffffffffff\n      and\n        /* \"@openzeppelin/contracts/access/Ownable.sol\":1422:1429  owner() */\n      tag_387\n        /* \"@openzeppelin/contracts/access/Ownable.sol\":1422:1427  owner */\n      tag_85\n        /* \"@openzeppelin/contracts/access/Ownable.sol\":1422:1429  owner() */\n      jump\t// in\n    tag_387:\n        /* \"@openzeppelin/contracts/access/Ownable.sol\":1422:1445  owner() == _msgSender() */\n      0xffffffffffffffffffffffffffffffffffffffff\n      and\n      eq\n        /* \"@openzeppelin/contracts/access/Ownable.sol\":1414:1482  require(owner() == _msgSender(), \"Ownable: caller is not the owner\") */\n      tag_388\n      jumpi\n      mload(0x40)\n      0x08c379a000000000000000000000000000000000000000000000000000000000\n      dup2\n      mstore\n      0x04\n      add\n      tag_389\n      swap1\n      tag_390\n      jump\t// in\n    tag_389:\n      mload(0x40)\n      dup1\n      swap2\n      sub\n      swap1\n      revert\n    tag_388:\n        /* \"@openzeppelin/contracts/access/Ownable.sol\":1359:1489  function _checkOwner() internal view virtual {... */\n      jump\t// out\n        /* \"@openzeppelin/contracts/security/Pausable.sol\":1945:2051  function _requirePaused() internal view virtual {... */\n    tag_142:\n        /* \"@openzeppelin/contracts/security/Pausable.sol\":2011:2019  paused() */\n      tag_392\n        /* \"@openzeppelin/contracts/security/Pausable.sol\":2011:2017  paused */\n      tag_66\n        /* \"@openzeppelin/contracts/security/Pausable.sol\":2011:2019  paused() */\n      jump\t// in\n    tag_392:\n        /* \"@openzeppelin/contracts/security/Pausable.sol\":2003:2044  require(paused(), \"Pausable: not paused\") */\n      tag_393\n      jumpi\n      mload(0x40)\n      0x08c379a000000000000000000000000000000000000000000000000000000000\n      dup2\n      mstore\n      0x04\n      add\n      tag_394\n      swap1\n      tag_395\n      jump\t// in\n    tag_394:\n      mload(0x40)\n      dup1\n      swap2\n      sub\n      swap1\n      revert\n    tag_393:\n        /* \"@openzeppelin/contracts/security/Pausable.sol\":1945:2051  function _requirePaused() internal view virtual {... */\n      jump\t// out\n        /* \"@openzeppelin/contracts/security/Pausable.sol\":2433:2550  function _unpause() internal virtual whenPaused {... */\n    tag_147:\n        /* \"@openzeppelin/contracts/security/Pausable.sol\":1486:1502  _requirePaused() */\n      tag_397\n        /* \"@openzeppelin/contracts/security/Pausable.sol\":1486:1500  _requirePaused */\n      tag_142\n        /* \"@openzeppelin/contracts/security/Pausable.sol\":1486:1502  _requirePaused() */\n      jump\t// in\n    tag_397:\n        /* \"@openzeppelin/contracts/security/Pausable.sol\":2501:2506  false */\n      0x00\n        /* \"@openzeppelin/contracts/security/Pausable.sol\":2491:2498  _paused */\n      dup1\n      0x00\n        /* \"@openzeppelin/contracts/security/Pausable.sol\":2491:2506  _paused = false */\n      0x0100\n      exp\n      dup2\n      sload\n      dup2\n      0xff\n      mul\n      not\n      and\n      swap1\n      dup4\n      iszero\n      iszero\n      mul\n      or\n      swap1\n      sstore\n      pop\n        /* \"@openzeppelin/contracts/security/Pausable.sol\":2521:2543  Unpaused(_msgSender()) */\n      0x5db9ee0a495bf2e6ff9c91a7834c1ba4fdd244a5e8aa4e537bd38aeae4b073aa\n        /* \"@openzeppelin/contracts/security/Pausable.sol\":2530:2542  _msgSender() */\n      tag_399\n        /* \"@openzeppelin/contracts/security/Pausable.sol\":2530:2540  _msgSender */\n      tag_386\n        /* \"@openzeppelin/contracts/security/Pausable.sol\":2530:2542  _msgSender() */\n      jump\t// in\n    tag_399:\n        /* \"@openzeppelin/contracts/security/Pausable.sol\":2521:2543  Unpaused(_msgSender()) */\n      mload(0x40)\n      tag_400\n      swap2\n      swap1\n      tag_47\n      jump\t// in\n    tag_400:\n      mload(0x40)\n      dup1\n      swap2\n      sub\n      swap1\n      log1\n        /* \"@openzeppelin/contracts/security/Pausable.sol\":2433:2550  function _unpause() internal virtual whenPaused {... */\n      jump\t// out\n        /* \"@openzeppelin/contracts/security/Pausable.sol\":1767:1873  function _requireNotPaused() internal view virtual {... */\n    tag_150:\n        /* \"@openzeppelin/contracts/security/Pausable.sol\":1837:1845  paused() */\n      tag_402\n        /* \"@openzeppelin/contracts/security/Pausable.sol\":1837:1843  paused */\n      tag_66\n        /* \"@openzeppelin/contracts/security/Pausable.sol\":1837:1845  paused() */\n      jump\t// in\n    tag_402:\n        /* \"@openzeppelin/contracts/security/Pausable.sol\":1836:1845  !paused() */\n      iszero\n        /* \"@openzeppelin/contracts/security/Pausable.sol\":1828:1866  require(!paused(), \"Pausable: paused\") */\n      tag_403\n      jumpi\n      mload(0x40)\n      0x08c379a000000000000000000000000000000000000000000000000000000000\n      dup2\n      mstore\n      0x04\n      add\n      tag_404\n      swap1\n      tag_405\n      jump\t// in\n    tag_404:\n      mload(0x40)\n      dup1\n      swap2\n      sub\n      swap1\n      revert\n    tag_403:\n        /* \"@openzeppelin/contracts/security/Pausable.sol\":1767:1873  function _requireNotPaused() internal view virtual {... */\n      jump\t// out\n        /* \"@openzeppelin/contracts/security/Pausable.sol\":2186:2301  function _pause() internal virtual whenNotPaused {... */\n    tag_155:\n        /* \"@openzeppelin/contracts/security/Pausable.sol\":1239:1258  _requireNotPaused() */\n      tag_407\n        /* \"@openzeppelin/contracts/security/Pausable.sol\":1239:1256  _requireNotPaused */\n      tag_150\n        /* \"@openzeppelin/contracts/security/Pausable.sol\":1239:1258  _requireNotPaused() */\n      jump\t// in\n    tag_407:\n        /* \"@openzeppelin/contracts/security/Pausable.sol\":2255:2259  true */\n      0x01\n        /* \"@openzeppelin/contracts/security/Pausable.sol\":2245:2252  _paused */\n      0x00\n      dup1\n        /* \"@openzeppelin/contracts/security/Pausable.sol\":2245:2259  _paused = true */\n      0x0100\n      exp\n      dup2\n      sload\n      dup2\n      0xff\n      mul\n      not\n      and\n      swap1\n      dup4\n      iszero\n      iszero\n      mul\n      or\n      swap1\n      sstore\n      pop\n        /* \"@openzeppelin/contracts/security/Pausable.sol\":2274:2294  Paused(_msgSender()) */\n      0x62e78cea01bee320cd4e420270b5ea74000d11b0c9f74754ebdbfc544b05a258\n        /* \"@openzeppelin/contracts/security/Pausable.sol\":2281:2293  _msgSender() */\n      tag_409\n        /* \"@openzeppelin/contracts/security/Pausable.sol\":2281:2291  _msgSender */\n      tag_386\n        /* \"@openzeppelin/contracts/security/Pausable.sol\":2281:2293  _msgSender() */\n      jump\t// in\n    tag_409:\n        /* \"@openzeppelin/contracts/security/Pausable.sol\":2274:2294  Paused(_msgSender()) */\n      mload(0x40)\n      tag_410\n      swap2\n      swap1\n      tag_47\n      jump\t// in\n    tag_410:\n      mload(0x40)\n      dup1\n      swap2\n      sub\n      swap1\n      log1\n        /* \"@openzeppelin/contracts/security/Pausable.sol\":2186:2301  function _pause() internal virtual whenNotPaused {... */\n      jump\t// out\n        /* \"@openzeppelin/contracts/access/Ownable.sol\":2433:2620  function _transferOwnership(address newOwner) internal virtual {... */\n    tag_237:\n        /* \"@openzeppelin/contracts/access/Ownable.sol\":2506:2522  address oldOwner */\n      0x00\n        /* \"@openzeppelin/contracts/access/Ownable.sol\":2525:2531  _owner */\n      dup1\n      0x01\n      swap1\n      sload\n      swap1\n      0x0100\n      exp\n      swap1\n      div\n      0xffffffffffffffffffffffffffffffffffffffff\n      and\n        /* \"@openzeppelin/contracts/access/Ownable.sol\":2506:2531  address oldOwner = _owner */\n      swap1\n      pop\n        /* \"@openzeppelin/contracts/access/Ownable.sol\":2550:2558  newOwner */\n      dup2\n        /* \"@openzeppelin/contracts/access/Ownable.sol\":2541:2547  _owner */\n      0x00\n      0x01\n        /* \"@openzeppelin/contracts/access/Ownable.sol\":2541:2558  _owner = newOwner */\n      0x0100\n      exp\n      dup2\n      sload\n      dup2\n      0xffffffffffffffffffffffffffffffffffffffff\n      mul\n      not\n      and\n      swap1\n      dup4\n      0xffffffffffffffffffffffffffffffffffffffff\n      and\n      mul\n      or\n      swap1\n      sstore\n      pop\n        /* \"@openzeppelin/contracts/access/Ownable.sol\":2604:2612  newOwner */\n      dup2\n        /* \"@openzeppelin/contracts/access/Ownable.sol\":2573:2613  OwnershipTransferred(oldOwner, newOwner) */\n      0xffffffffffffffffffffffffffffffffffffffff\n      and\n        /* \"@openzeppelin/contracts/access/Ownable.sol\":2594:2602  oldOwner */\n      dup2\n        /* \"@openzeppelin/contracts/access/Ownable.sol\":2573:2613  OwnershipTransferred(oldOwner, newOwner) */\n      0xffffffffffffffffffffffffffffffffffffffff\n      and\n      0x8be0079c531659141344cd1fd0a4f28419497f9722a3daafe3b4186f6b6457e0\n      mload(0x40)\n      mload(0x40)\n      dup1\n      swap2\n      sub\n      swap1\n      log3\n        /* \"@openzeppelin/contracts/access/Ownable.sol\":2496:2620  {... */\n      pop\n        /* \"@openzeppelin/contracts/access/Ownable.sol\":2433:2620  function _transferOwnership(address newOwner) internal virtual {... */\n      pop\n      jump\t// out\n        /* \"ptrn_eco_system_dev_contracts/contracts_ready_for_prod/PtrnEcosystemParticipationV1_0.sol\":10682:11532  function getRate()... */\n    tag_354:\n        /* \"ptrn_eco_system_dev_contracts/contracts_ready_for_prod/PtrnEcosystemParticipationV1_0.sol\":10747:10754  uint256 */\n      0x00\n        /* \"ptrn_eco_system_dev_contracts/contracts_ready_for_prod/PtrnEcosystemParticipationV1_0.sol\":10768:10775  uint256 */\n      dup1\n        /* \"ptrn_eco_system_dev_contracts/contracts_ready_for_prod/PtrnEcosystemParticipationV1_0.sol\":10789:10802  string memory */\n      0x60\n        /* \"ptrn_eco_system_dev_contracts/contracts_ready_for_prod/PtrnEcosystemParticipationV1_0.sol\":10816:10823  uint256 */\n      0x00\n        /* \"ptrn_eco_system_dev_contracts/contracts_ready_for_prod/PtrnEcosystemParticipationV1_0.sol\":10852:10864  poolRateFeed */\n      0x02\n      0x14\n      swap1\n      sload\n      swap1\n      0x0100\n      exp\n      swap1\n      div\n      0xff\n      and\n        /* \"ptrn_eco_system_dev_contracts/contracts_ready_for_prod/PtrnEcosystemParticipationV1_0.sol\":10848:11222  if (poolRateFeed) {... */\n      iszero\n      tag_413\n      jumpi\n        /* \"ptrn_eco_system_dev_contracts/contracts_ready_for_prod/PtrnEcosystemParticipationV1_0.sol\":10905:10917  poolRateFeed */\n      0x02\n      0x14\n      swap1\n      sload\n      swap1\n      0x0100\n      exp\n      swap1\n      div\n      0xff\n      and\n        /* \"ptrn_eco_system_dev_contracts/contracts_ready_for_prod/PtrnEcosystemParticipationV1_0.sol\":10905:10958  poolRateFeed && (address(poolConsumer) != address(0)) */\n      dup1\n      iszero\n      tag_414\n      jumpi\n      pop\n        /* \"ptrn_eco_system_dev_contracts/contracts_ready_for_prod/PtrnEcosystemParticipationV1_0.sol\":10955:10956  0 */\n      0x00\n        /* \"ptrn_eco_system_dev_contracts/contracts_ready_for_prod/PtrnEcosystemParticipationV1_0.sol\":10922:10957  address(poolConsumer) != address(0) */\n      0xffffffffffffffffffffffffffffffffffffffff\n      and\n        /* \"ptrn_eco_system_dev_contracts/contracts_ready_for_prod/PtrnEcosystemParticipationV1_0.sol\":10930:10942  poolConsumer */\n      0x08\n      0x00\n      swap1\n      sload\n      swap1\n      0x0100\n      exp\n      swap1\n      div\n      0xffffffffffffffffffffffffffffffffffffffff\n      and\n        /* \"ptrn_eco_system_dev_contracts/contracts_ready_for_prod/PtrnEcosystemParticipationV1_0.sol\":10922:10957  address(poolConsumer) != address(0) */\n      0xffffffffffffffffffffffffffffffffffffffff\n      and\n      eq\n      iszero\n        /* \"ptrn_eco_system_dev_contracts/contracts_ready_for_prod/PtrnEcosystemParticipationV1_0.sol\":10905:10958  poolRateFeed && (address(poolConsumer) != address(0)) */\n    tag_414:\n        /* \"ptrn_eco_system_dev_contracts/contracts_ready_for_prod/PtrnEcosystemParticipationV1_0.sol\":10880:11024  require(... */\n      tag_415\n      jumpi\n      mload(0x40)\n      0x08c379a000000000000000000000000000000000000000000000000000000000\n      dup2\n      mstore\n      0x04\n      add\n      tag_416\n      swap1\n      tag_326\n      jump\t// in\n    tag_416:\n      mload(0x40)\n      dup1\n      swap2\n      sub\n      swap1\n      revert\n    tag_415:\n        /* \"ptrn_eco_system_dev_contracts/contracts_ready_for_prod/PtrnEcosystemParticipationV1_0.sol\":10848:11222  if (poolRateFeed) {... */\n      jump(tag_417)\n    tag_413:\n        /* \"ptrn_eco_system_dev_contracts/contracts_ready_for_prod/PtrnEcosystemParticipationV1_0.sol\":11080:11092  poolRateFeed */\n      0x02\n      0x14\n      swap1\n      sload\n      swap1\n      0x0100\n      exp\n      swap1\n      div\n      0xff\n      and\n        /* \"ptrn_eco_system_dev_contracts/contracts_ready_for_prod/PtrnEcosystemParticipationV1_0.sol\":11080:11139  poolRateFeed && (address(aggregatorConsumer) != address(0)) */\n      dup1\n      iszero\n      tag_418\n      jumpi\n      pop\n        /* \"ptrn_eco_system_dev_contracts/contracts_ready_for_prod/PtrnEcosystemParticipationV1_0.sol\":11136:11137  0 */\n      0x00\n        /* \"ptrn_eco_system_dev_contracts/contracts_ready_for_prod/PtrnEcosystemParticipationV1_0.sol\":11097:11138  address(aggregatorConsumer) != address(0) */\n      0xffffffffffffffffffffffffffffffffffffffff\n      and\n        /* \"ptrn_eco_system_dev_contracts/contracts_ready_for_prod/PtrnEcosystemParticipationV1_0.sol\":11105:11123  aggregatorConsumer */\n      0x07\n      0x00\n      swap1\n      sload\n      swap1\n      0x0100\n      exp\n      swap1\n      div\n      0xffffffffffffffffffffffffffffffffffffffff\n      and\n        /* \"ptrn_eco_system_dev_contracts/contracts_ready_for_prod/PtrnEcosystemParticipationV1_0.sol\":11097:11138  address(aggregatorConsumer) != address(0) */\n      0xffffffffffffffffffffffffffffffffffffffff\n      and\n      eq\n      iszero\n        /* \"ptrn_eco_system_dev_contracts/contracts_ready_for_prod/PtrnEcosystemParticipationV1_0.sol\":11080:11139  poolRateFeed && (address(aggregatorConsumer) != address(0)) */\n    tag_418:\n        /* \"ptrn_eco_system_dev_contracts/contracts_ready_for_prod/PtrnEcosystemParticipationV1_0.sol\":11055:11211  require(... */\n      tag_419\n      jumpi\n      mload(0x40)\n      0x08c379a000000000000000000000000000000000000000000000000000000000\n      dup2\n      mstore\n      0x04\n      add\n      tag_420\n      swap1\n      tag_321\n      jump\t// in\n    tag_420:\n      mload(0x40)\n      dup1\n      swap2\n      sub\n      swap1\n      revert\n    tag_419:\n        /* \"ptrn_eco_system_dev_contracts/contracts_ready_for_prod/PtrnEcosystemParticipationV1_0.sol\":10848:11222  if (poolRateFeed) {... */\n    tag_417:\n        /* \"ptrn_eco_system_dev_contracts/contracts_ready_for_prod/PtrnEcosystemParticipationV1_0.sol\":11246:11258  uint256 rate */\n      0x00\n        /* \"ptrn_eco_system_dev_contracts/contracts_ready_for_prod/PtrnEcosystemParticipationV1_0.sol\":11272:11288  uint256 decimals */\n      dup1\n        /* \"ptrn_eco_system_dev_contracts/contracts_ready_for_prod/PtrnEcosystemParticipationV1_0.sol\":11302:11326  string memory rateString */\n      0x00\n        /* \"ptrn_eco_system_dev_contracts/contracts_ready_for_prod/PtrnEcosystemParticipationV1_0.sol\":11340:11352  uint256 date */\n      dup1\n        /* \"ptrn_eco_system_dev_contracts/contracts_ready_for_prod/PtrnEcosystemParticipationV1_0.sol\":11366:11378  poolRateFeed */\n      0x02\n      0x14\n      swap1\n      sload\n      swap1\n      0x0100\n      exp\n      swap1\n      div\n      0xff\n      and\n        /* \"ptrn_eco_system_dev_contracts/contracts_ready_for_prod/PtrnEcosystemParticipationV1_0.sol\":11365:11378  !poolRateFeed */\n      iszero\n        /* \"ptrn_eco_system_dev_contracts/contracts_ready_for_prod/PtrnEcosystemParticipationV1_0.sol\":11365:11473  !poolRateFeed... */\n      tag_421\n      jumpi\n        /* \"ptrn_eco_system_dev_contracts/contracts_ready_for_prod/PtrnEcosystemParticipationV1_0.sol\":11450:11462  poolConsumer */\n      0x08\n      0x00\n      swap1\n      sload\n      swap1\n      0x0100\n      exp\n      swap1\n      div\n      0xffffffffffffffffffffffffffffffffffffffff\n      and\n        /* \"ptrn_eco_system_dev_contracts/contracts_ready_for_prod/PtrnEcosystemParticipationV1_0.sol\":11450:11471  poolConsumer.PoolRate */\n      0xffffffffffffffffffffffffffffffffffffffff\n      and\n      0x454d1256\n        /* \"ptrn_eco_system_dev_contracts/contracts_ready_for_prod/PtrnEcosystemParticipationV1_0.sol\":11450:11473  poolConsumer.PoolRate() */\n      mload(0x40)\n      dup2\n      0xffffffff\n      and\n      0xe0\n      shl\n      dup2\n      mstore\n      0x04\n      add\n      0x00\n      mload(0x40)\n      dup1\n      dup4\n      sub\n      dup2\n      0x00\n      dup8\n      gas\n      call\n      iszero\n      dup1\n      iszero\n      tag_423\n      jumpi\n      returndatasize\n      0x00\n      dup1\n      returndatacopy\n      revert(0x00, returndatasize)\n    tag_423:\n      pop\n      pop\n      pop\n      pop\n      mload(0x40)\n      returndatasize\n      0x00\n      dup3\n      returndatacopy\n      returndatasize\n      not(0x1f)\n      0x1f\n      dup3\n      add\n      and\n      dup3\n      add\n      dup1\n      0x40\n      mstore\n      pop\n      dup2\n      add\n      swap1\n      tag_424\n      swap2\n      swap1\n      tag_425\n      jump\t// in\n    tag_424:\n        /* \"ptrn_eco_system_dev_contracts/contracts_ready_for_prod/PtrnEcosystemParticipationV1_0.sol\":11365:11473  !poolRateFeed... */\n      jump(tag_426)\n    tag_421:\n        /* \"ptrn_eco_system_dev_contracts/contracts_ready_for_prod/PtrnEcosystemParticipationV1_0.sol\":11397:11415  aggregatorConsumer */\n      0x07\n      0x00\n      swap1\n      sload\n      swap1\n      0x0100\n      exp\n      swap1\n      div\n      0xffffffffffffffffffffffffffffffffffffffff\n      and\n        /* \"ptrn_eco_system_dev_contracts/contracts_ready_for_prod/PtrnEcosystemParticipationV1_0.sol\":11397:11429  aggregatorConsumer.getLatestRate */\n      0xffffffffffffffffffffffffffffffffffffffff\n      and\n      0xe1e7ff77\n        /* \"ptrn_eco_system_dev_contracts/contracts_ready_for_prod/PtrnEcosystemParticipationV1_0.sol\":11397:11431  aggregatorConsumer.getLatestRate() */\n      mload(0x40)\n      dup2\n      0xffffffff\n      and\n      0xe0\n      shl\n      dup2\n      mstore\n      0x04\n      add\n      0x00\n      mload(0x40)\n      dup1\n      dup4\n      sub\n      dup2\n      0x00\n      dup8\n      gas\n      call\n      iszero\n      dup1\n      iszero\n      tag_428\n      jumpi\n      returndatasize\n      0x00\n      dup1\n      returndatacopy\n      revert(0x00, returndatasize)\n    tag_428:\n      pop\n      pop\n      pop\n      pop\n      mload(0x40)\n      returndatasize\n      0x00\n      dup3\n      returndatacopy\n      returndatasize\n      not(0x1f)\n      0x1f\n      dup3\n      add\n      and\n      dup3\n      add\n      dup1\n      0x40\n      mstore\n      pop\n      dup2\n      add\n      swap1\n      tag_429\n      swap2\n      swap1\n      tag_425\n      jump\t// in\n    tag_429:\n        /* \"ptrn_eco_system_dev_contracts/contracts_ready_for_prod/PtrnEcosystemParticipationV1_0.sol\":11365:11473  !poolRateFeed... */\n    tag_426:\n        /* \"ptrn_eco_system_dev_contracts/contracts_ready_for_prod/PtrnEcosystemParticipationV1_0.sol\":11232:11473  (... */\n      swap4\n      pop\n      swap4\n      pop\n      swap4\n      pop\n      swap4\n      pop\n        /* \"ptrn_eco_system_dev_contracts/contracts_ready_for_prod/PtrnEcosystemParticipationV1_0.sol\":11492:11496  rate */\n      dup4\n        /* \"ptrn_eco_system_dev_contracts/contracts_ready_for_prod/PtrnEcosystemParticipationV1_0.sol\":11498:11506  decimals */\n      dup4\n        /* \"ptrn_eco_system_dev_contracts/contracts_ready_for_prod/PtrnEcosystemParticipationV1_0.sol\":11508:11518  rateString */\n      dup4\n        /* \"ptrn_eco_system_dev_contracts/contracts_ready_for_prod/PtrnEcosystemParticipationV1_0.sol\":11520:11524  date */\n      dup4\n        /* \"ptrn_eco_system_dev_contracts/contracts_ready_for_prod/PtrnEcosystemParticipationV1_0.sol\":11484:11525  return (rate, decimals, rateString, date) */\n      swap8\n      pop\n      swap8\n      pop\n      swap8\n      pop\n      swap8\n      pop\n      pop\n      pop\n      pop\n      pop\n        /* \"ptrn_eco_system_dev_contracts/contracts_ready_for_prod/PtrnEcosystemParticipationV1_0.sol\":10682:11532  function getRate()... */\n      swap1\n      swap2\n      swap3\n      swap4\n      jump\t// out\n        /* \"ptrn_eco_system_dev_contracts/contracts_ready_for_prod/PtrnEcosystemParticipationV1_0.sol\":11847:12057  function burnIncomingTokens(uint256 amount) private returns (bool) {... */\n    tag_361:\n        /* \"ptrn_eco_system_dev_contracts/contracts_ready_for_prod/PtrnEcosystemParticipationV1_0.sol\":11908:11912  bool */\n      0x00\n        /* \"ptrn_eco_system_dev_contracts/contracts_ready_for_prod/PtrnEcosystemParticipationV1_0.sol\":11941:11942  0 */\n      dup1\n        /* \"ptrn_eco_system_dev_contracts/contracts_ready_for_prod/PtrnEcosystemParticipationV1_0.sol\":11932:11938  amount */\n      dup3\n        /* \"ptrn_eco_system_dev_contracts/contracts_ready_for_prod/PtrnEcosystemParticipationV1_0.sol\":11932:11942  amount > 0 */\n      gt\n        /* \"ptrn_eco_system_dev_contracts/contracts_ready_for_prod/PtrnEcosystemParticipationV1_0.sol\":11924:11970  require(amount > 0, \"No tokens to be burned!\") */\n      tag_431\n      jumpi\n      mload(0x40)\n      0x08c379a000000000000000000000000000000000000000000000000000000000\n      dup2\n      mstore\n      0x04\n      add\n      tag_432\n      swap1\n      tag_433\n      jump\t// in\n    tag_432:\n      mload(0x40)\n      dup1\n      swap2\n      sub\n      swap1\n      revert\n    tag_431:\n        /* \"ptrn_eco_system_dev_contracts/contracts_ready_for_prod/PtrnEcosystemParticipationV1_0.sol\":11980:11985  TOKEN */\n      immutable(\"0xb5f9271c1f94b43badbaa8ac2cd5837eef4d124f89532d652ed47c9751211dfb\")\n        /* \"ptrn_eco_system_dev_contracts/contracts_ready_for_prod/PtrnEcosystemParticipationV1_0.sol\":11980:11990  TOKEN.burn */\n      0xffffffffffffffffffffffffffffffffffffffff\n      and\n      0x42966c68\n        /* \"ptrn_eco_system_dev_contracts/contracts_ready_for_prod/PtrnEcosystemParticipationV1_0.sol\":11991:11997  amount */\n      dup4\n        /* \"ptrn_eco_system_dev_contracts/contracts_ready_for_prod/PtrnEcosystemParticipationV1_0.sol\":11980:11998  TOKEN.burn(amount) */\n      mload(0x40)\n      dup3\n      0xffffffff\n      and\n      0xe0\n      shl\n      dup2\n      mstore\n      0x04\n      add\n      tag_434\n      swap2\n      swap1\n      tag_60\n      jump\t// in\n    tag_434:\n      0x00\n      mload(0x40)\n      dup1\n      dup4\n      sub\n      dup2\n      0x00\n      dup8\n      dup1\n      extcodesize\n      iszero\n      dup1\n      iszero\n      tag_435\n      jumpi\n      0x00\n      dup1\n      revert\n    tag_435:\n      pop\n      gas\n      call\n      iszero\n      dup1\n      iszero\n      tag_437\n      jumpi\n      returndatasize\n      0x00\n      dup1\n      returndatacopy\n      revert(0x00, returndatasize)\n    tag_437:\n      pop\n      pop\n      pop\n      pop\n        /* \"ptrn_eco_system_dev_contracts/contracts_ready_for_prod/PtrnEcosystemParticipationV1_0.sol\":12023:12029  amount */\n      dup2\n        /* \"ptrn_eco_system_dev_contracts/contracts_ready_for_prod/PtrnEcosystemParticipationV1_0.sol\":12008:12019  totalBurned */\n      0x03\n      0x00\n        /* \"ptrn_eco_system_dev_contracts/contracts_ready_for_prod/PtrnEcosystemParticipationV1_0.sol\":12008:12029  totalBurned += amount */\n      dup3\n      dup3\n      sload\n      tag_438\n      swap2\n      swap1\n      tag_138\n      jump\t// in\n    tag_438:\n      swap3\n      pop\n      pop\n      dup2\n      swap1\n      sstore\n      pop\n        /* \"ptrn_eco_system_dev_contracts/contracts_ready_for_prod/PtrnEcosystemParticipationV1_0.sol\":12046:12050  true */\n      0x01\n        /* \"ptrn_eco_system_dev_contracts/contracts_ready_for_prod/PtrnEcosystemParticipationV1_0.sol\":12039:12050  return true */\n      swap1\n      pop\n        /* \"ptrn_eco_system_dev_contracts/contracts_ready_for_prod/PtrnEcosystemParticipationV1_0.sol\":11847:12057  function burnIncomingTokens(uint256 amount) private returns (bool) {... */\n      swap2\n      swap1\n      pop\n      jump\t// out\n        /* \"ptrn_eco_system_dev_contracts/contracts_ready_for_prod/PtrnEcosystemParticipationV1_0.sol\":11601:11789  function calculatePoints(... */\n    tag_363:\n        /* \"ptrn_eco_system_dev_contracts/contracts_ready_for_prod/PtrnEcosystemParticipationV1_0.sol\":11726:11733  uint256 */\n      0x00\n        /* \"ptrn_eco_system_dev_contracts/contracts_ready_for_prod/PtrnEcosystemParticipationV1_0.sol\":11774:11782  decimals */\n      dup2\n        /* \"ptrn_eco_system_dev_contracts/contracts_ready_for_prod/PtrnEcosystemParticipationV1_0.sol\":11770:11772  10 */\n      0x0a\n        /* \"ptrn_eco_system_dev_contracts/contracts_ready_for_prod/PtrnEcosystemParticipationV1_0.sol\":11770:11782  10**decimals */\n      tag_440\n      swap2\n      swap1\n      tag_261\n      jump\t// in\n    tag_440:\n        /* \"ptrn_eco_system_dev_contracts/contracts_ready_for_prod/PtrnEcosystemParticipationV1_0.sol\":11762:11766  rate */\n      dup4\n        /* \"ptrn_eco_system_dev_contracts/contracts_ready_for_prod/PtrnEcosystemParticipationV1_0.sol\":11753:11759  amount */\n      dup6\n        /* \"ptrn_eco_system_dev_contracts/contracts_ready_for_prod/PtrnEcosystemParticipationV1_0.sol\":11753:11766  amount * rate */\n      tag_441\n      swap2\n      swap1\n      tag_263\n      jump\t// in\n    tag_441:\n        /* \"ptrn_eco_system_dev_contracts/contracts_ready_for_prod/PtrnEcosystemParticipationV1_0.sol\":11752:11782  (amount * rate) / 10**decimals */\n      tag_442\n      swap2\n      swap1\n      tag_265\n      jump\t// in\n    tag_442:\n        /* \"ptrn_eco_system_dev_contracts/contracts_ready_for_prod/PtrnEcosystemParticipationV1_0.sol\":11745:11782  return (amount * rate) / 10**decimals */\n      swap1\n      pop\n        /* \"ptrn_eco_system_dev_contracts/contracts_ready_for_prod/PtrnEcosystemParticipationV1_0.sol\":11601:11789  function calculatePoints(... */\n      swap4\n      swap3\n      pop\n      pop\n      pop\n      jump\t// out\n        /* \"@openzeppelin/contracts/utils/Context.sol\":640:736  function _msgSender() internal view virtual returns (address) {... */\n    tag_386:\n        /* \"@openzeppelin/contracts/utils/Context.sol\":693:700  address */\n      0x00\n        /* \"@openzeppelin/contracts/utils/Context.sol\":719:729  msg.sender */\n      caller\n        /* \"@openzeppelin/contracts/utils/Context.sol\":712:729  return msg.sender */\n      swap1\n      pop\n        /* \"@openzeppelin/contracts/utils/Context.sol\":640:736  function _msgSender() internal view virtual returns (address) {... */\n      swap1\n      jump\t// out\n        /* \"#utility.yul\":7:82   */\n    tag_444:\n        /* \"#utility.yul\":40:46   */\n      0x00\n        /* \"#utility.yul\":73:75   */\n      0x40\n        /* \"#utility.yul\":67:76   */\n      mload\n        /* \"#utility.yul\":57:76   */\n      swap1\n      pop\n        /* \"#utility.yul\":7:82   */\n      swap1\n      jump\t// out\n        /* \"#utility.yul\":88:205   */\n    tag_445:\n        /* \"#utility.yul\":197:198   */\n      0x00\n        /* \"#utility.yul\":194:195   */\n      dup1\n        /* \"#utility.yul\":187:199   */\n      revert\n        /* \"#utility.yul\":211:328   */\n    tag_446:\n        /* \"#utility.yul\":320:321   */\n      0x00\n        /* \"#utility.yul\":317:318   */\n      dup1\n        /* \"#utility.yul\":310:322   */\n      revert\n        /* \"#utility.yul\":334:411   */\n    tag_447:\n        /* \"#utility.yul\":371:378   */\n      0x00\n        /* \"#utility.yul\":400:405   */\n      dup2\n        /* \"#utility.yul\":389:405   */\n      swap1\n      pop\n        /* \"#utility.yul\":334:411   */\n      swap2\n      swap1\n      pop\n      jump\t// out\n        /* \"#utility.yul\":417:539   */\n    tag_448:\n        /* \"#utility.yul\":490:514   */\n      tag_533\n        /* \"#utility.yul\":508:513   */\n      dup2\n        /* \"#utility.yul\":490:514   */\n      tag_447\n      jump\t// in\n    tag_533:\n        /* \"#utility.yul\":483:488   */\n      dup2\n        /* \"#utility.yul\":480:515   */\n      eq\n        /* \"#utility.yul\":470:533   */\n      tag_534\n      jumpi\n        /* \"#utility.yul\":529:530   */\n      0x00\n        /* \"#utility.yul\":526:527   */\n      dup1\n        /* \"#utility.yul\":519:531   */\n      revert\n        /* \"#utility.yul\":470:533   */\n    tag_534:\n        /* \"#utility.yul\":417:539   */\n      pop\n      jump\t// out\n        /* \"#utility.yul\":545:684   */\n    tag_449:\n        /* \"#utility.yul\":591:596   */\n      0x00\n        /* \"#utility.yul\":629:635   */\n      dup2\n        /* \"#utility.yul\":616:636   */\n      calldataload\n        /* \"#utility.yul\":607:636   */\n      swap1\n      pop\n        /* \"#utility.yul\":645:678   */\n      tag_536\n        /* \"#utility.yul\":672:677   */\n      dup2\n        /* \"#utility.yul\":645:678   */\n      tag_448\n      jump\t// in\n    tag_536:\n        /* \"#utility.yul\":545:684   */\n      swap3\n      swap2\n      pop\n      pop\n      jump\t// out\n        /* \"#utility.yul\":690:816   */\n    tag_450:\n        /* \"#utility.yul\":727:734   */\n      0x00\n        /* \"#utility.yul\":767:809   */\n      0xffffffffffffffffffffffffffffffffffffffff\n        /* \"#utility.yul\":760:765   */\n      dup3\n        /* \"#utility.yul\":756:810   */\n      and\n        /* \"#utility.yul\":745:810   */\n      swap1\n      pop\n        /* \"#utility.yul\":690:816   */\n      swap2\n      swap1\n      pop\n      jump\t// out\n        /* \"#utility.yul\":822:918   */\n    tag_451:\n        /* \"#utility.yul\":859:866   */\n      0x00\n        /* \"#utility.yul\":888:912   */\n      tag_539\n        /* \"#utility.yul\":906:911   */\n      dup3\n        /* \"#utility.yul\":888:912   */\n      tag_450\n      jump\t// in\n    tag_539:\n        /* \"#utility.yul\":877:912   */\n      swap1\n      pop\n        /* \"#utility.yul\":822:918   */\n      swap2\n      swap1\n      pop\n      jump\t// out\n        /* \"#utility.yul\":924:1046   */\n    tag_452:\n        /* \"#utility.yul\":997:1021   */\n      tag_541\n        /* \"#utility.yul\":1015:1020   */\n      dup2\n        /* \"#utility.yul\":997:1021   */\n      tag_451\n      jump\t// in\n    tag_541:\n        /* \"#utility.yul\":990:995   */\n      dup2\n        /* \"#utility.yul\":987:1022   */\n      eq\n        /* \"#utility.yul\":977:1040   */\n      tag_542\n      jumpi\n        /* \"#utility.yul\":1036:1037   */\n      0x00\n        /* \"#utility.yul\":1033:1034   */\n      dup1\n        /* \"#utility.yul\":1026:1038   */\n      revert\n        /* \"#utility.yul\":977:1040   */\n    tag_542:\n        /* \"#utility.yul\":924:1046   */\n      pop\n      jump\t// out\n        /* \"#utility.yul\":1052:1191   */\n    tag_453:\n        /* \"#utility.yul\":1098:1103   */\n      0x00\n        /* \"#utility.yul\":1136:1142   */\n      dup2\n        /* \"#utility.yul\":1123:1143   */\n      calldataload\n        /* \"#utility.yul\":1114:1143   */\n      swap1\n      pop\n        /* \"#utility.yul\":1152:1185   */\n      tag_544\n        /* \"#utility.yul\":1179:1184   */\n      dup2\n        /* \"#utility.yul\":1152:1185   */\n      tag_452\n      jump\t// in\n    tag_544:\n        /* \"#utility.yul\":1052:1191   */\n      swap3\n      swap2\n      pop\n      pop\n      jump\t// out\n        /* \"#utility.yul\":1197:1671   */\n    tag_38:\n        /* \"#utility.yul\":1265:1271   */\n      0x00\n        /* \"#utility.yul\":1273:1279   */\n      dup1\n        /* \"#utility.yul\":1322:1324   */\n      0x40\n        /* \"#utility.yul\":1310:1319   */\n      dup4\n        /* \"#utility.yul\":1301:1308   */\n      dup6\n        /* \"#utility.yul\":1297:1320   */\n      sub\n        /* \"#utility.yul\":1293:1325   */\n      slt\n        /* \"#utility.yul\":1290:1409   */\n      iszero\n      tag_546\n      jumpi\n        /* \"#utility.yul\":1328:1407   */\n      tag_547\n      tag_445\n      jump\t// in\n    tag_547:\n        /* \"#utility.yul\":1290:1409   */\n    tag_546:\n        /* \"#utility.yul\":1448:1449   */\n      0x00\n        /* \"#utility.yul\":1473:1526   */\n      tag_548\n        /* \"#utility.yul\":1518:1525   */\n      dup6\n        /* \"#utility.yul\":1509:1515   */\n      dup3\n        /* \"#utility.yul\":1498:1507   */\n      dup7\n        /* \"#utility.yul\":1494:1516   */\n      add\n        /* \"#utility.yul\":1473:1526   */\n      tag_449\n      jump\t// in\n    tag_548:\n        /* \"#utility.yul\":1463:1526   */\n      swap3\n      pop\n        /* \"#utility.yul\":1419:1536   */\n      pop\n        /* \"#utility.yul\":1575:1577   */\n      0x20\n        /* \"#utility.yul\":1601:1654   */\n      tag_549\n        /* \"#utility.yul\":1646:1653   */\n      dup6\n        /* \"#utility.yul\":1637:1643   */\n      dup3\n        /* \"#utility.yul\":1626:1635   */\n      dup7\n        /* \"#utility.yul\":1622:1644   */\n      add\n        /* \"#utility.yul\":1601:1654   */\n      tag_453\n      jump\t// in\n    tag_549:\n        /* \"#utility.yul\":1591:1654   */\n      swap2\n      pop\n        /* \"#utility.yul\":1546:1664   */\n      pop\n        /* \"#utility.yul\":1197:1671   */\n      swap3\n      pop\n      swap3\n      swap1\n      pop\n      jump\t// out\n        /* \"#utility.yul\":1677:1795   */\n    tag_454:\n        /* \"#utility.yul\":1764:1788   */\n      tag_551\n        /* \"#utility.yul\":1782:1787   */\n      dup2\n        /* \"#utility.yul\":1764:1788   */\n      tag_451\n      jump\t// in\n    tag_551:\n        /* \"#utility.yul\":1759:1762   */\n      dup3\n        /* \"#utility.yul\":1752:1789   */\n      mstore\n        /* \"#utility.yul\":1677:1795   */\n      pop\n      pop\n      jump\t// out\n        /* \"#utility.yul\":1801:2023   */\n    tag_47:\n        /* \"#utility.yul\":1894:1898   */\n      0x00\n        /* \"#utility.yul\":1932:1934   */\n      0x20\n        /* \"#utility.yul\":1921:1930   */\n      dup3\n        /* \"#utility.yul\":1917:1935   */\n      add\n        /* \"#utility.yul\":1909:1935   */\n      swap1\n      pop\n        /* \"#utility.yul\":1945:2016   */\n      tag_553\n        /* \"#utility.yul\":2013:2014   */\n      0x00\n        /* \"#utility.yul\":2002:2011   */\n      dup4\n        /* \"#utility.yul\":1998:2015   */\n      add\n        /* \"#utility.yul\":1989:1995   */\n      dup5\n        /* \"#utility.yul\":1945:2016   */\n      tag_454\n      jump\t// in\n    tag_553:\n        /* \"#utility.yul\":1801:2023   */\n      swap3\n      swap2\n      pop\n      pop\n      jump\t// out\n        /* \"#utility.yul\":2029:2358   */\n    tag_50:\n        /* \"#utility.yul\":2088:2094   */\n      0x00\n        /* \"#utility.yul\":2137:2139   */\n      0x20\n        /* \"#utility.yul\":2125:2134   */\n      dup3\n        /* \"#utility.yul\":2116:2123   */\n      dup5\n        /* \"#utility.yul\":2112:2135   */\n      sub\n        /* \"#utility.yul\":2108:2140   */\n      slt\n        /* \"#utility.yul\":2105:2224   */\n      iszero\n      tag_555\n      jumpi\n        /* \"#utility.yul\":2143:2222   */\n      tag_556\n      tag_445\n      jump\t// in\n    tag_556:\n        /* \"#utility.yul\":2105:2224   */\n    tag_555:\n        /* \"#utility.yul\":2263:2264   */\n      0x00\n        /* \"#utility.yul\":2288:2341   */\n      tag_557\n        /* \"#utility.yul\":2333:2340   */\n      dup5\n        /* \"#utility.yul\":2324:2330   */\n      dup3\n        /* \"#utility.yul\":2313:2322   */\n      dup6\n        /* \"#utility.yul\":2309:2331   */\n      add\n        /* \"#utility.yul\":2288:2341   */\n      tag_453\n      jump\t// in\n    tag_557:\n        /* \"#utility.yul\":2278:2341   */\n      swap2\n      pop\n        /* \"#utility.yul\":2234:2351   */\n      pop\n        /* \"#utility.yul\":2029:2358   */\n      swap3\n      swap2\n      pop\n      pop\n      jump\t// out\n        /* \"#utility.yul\":2364:2482   */\n    tag_455:\n        /* \"#utility.yul\":2451:2475   */\n      tag_559\n        /* \"#utility.yul\":2469:2474   */\n      dup2\n        /* \"#utility.yul\":2451:2475   */\n      tag_447\n      jump\t// in\n    tag_559:\n        /* \"#utility.yul\":2446:2449   */\n      dup3\n        /* \"#utility.yul\":2439:2476   */\n      mstore\n        /* \"#utility.yul\":2364:2482   */\n      pop\n      pop\n      jump\t// out\n        /* \"#utility.yul\":2488:2710   */\n    tag_60:\n        /* \"#utility.yul\":2581:2585   */\n      0x00\n        /* \"#utility.yul\":2619:2621   */\n      0x20\n        /* \"#utility.yul\":2608:2617   */\n      dup3\n        /* \"#utility.yul\":2604:2622   */\n      add\n        /* \"#utility.yul\":2596:2622   */\n      swap1\n      pop\n        /* \"#utility.yul\":2632:2703   */\n      tag_561\n        /* \"#utility.yul\":2700:2701   */\n      0x00\n        /* \"#utility.yul\":2689:2698   */\n      dup4\n        /* \"#utility.yul\":2685:2702   */\n      add\n        /* \"#utility.yul\":2676:2682   */\n      dup5\n        /* \"#utility.yul\":2632:2703   */\n      tag_455\n      jump\t// in\n    tag_561:\n        /* \"#utility.yul\":2488:2710   */\n      swap3\n      swap2\n      pop\n      pop\n      jump\t// out\n        /* \"#utility.yul\":2716:2806   */\n    tag_456:\n        /* \"#utility.yul\":2750:2757   */\n      0x00\n        /* \"#utility.yul\":2793:2798   */\n      dup2\n        /* \"#utility.yul\":2786:2799   */\n      iszero\n        /* \"#utility.yul\":2779:2800   */\n      iszero\n        /* \"#utility.yul\":2768:2800   */\n      swap1\n      pop\n        /* \"#utility.yul\":2716:2806   */\n      swap2\n      swap1\n      pop\n      jump\t// out\n        /* \"#utility.yul\":2812:2921   */\n    tag_457:\n        /* \"#utility.yul\":2893:2914   */\n      tag_564\n        /* \"#utility.yul\":2908:2913   */\n      dup2\n        /* \"#utility.yul\":2893:2914   */\n      tag_456\n      jump\t// in\n    tag_564:\n        /* \"#utility.yul\":2888:2891   */\n      dup3\n        /* \"#utility.yul\":2881:2915   */\n      mstore\n        /* \"#utility.yul\":2812:2921   */\n      pop\n      pop\n      jump\t// out\n        /* \"#utility.yul\":2927:3137   */\n    tag_68:\n        /* \"#utility.yul\":3014:3018   */\n      0x00\n        /* \"#utility.yul\":3052:3054   */\n      0x20\n        /* \"#utility.yul\":3041:3050   */\n      dup3\n        /* \"#utility.yul\":3037:3055   */\n      add\n        /* \"#utility.yul\":3029:3055   */\n      swap1\n      pop\n        /* \"#utility.yul\":3065:3130   */\n      tag_566\n        /* \"#utility.yul\":3127:3128   */\n      0x00\n        /* \"#utility.yul\":3116:3125   */\n      dup4\n        /* \"#utility.yul\":3112:3129   */\n      add\n        /* \"#utility.yul\":3103:3109   */\n      dup5\n        /* \"#utility.yul\":3065:3130   */\n      tag_457\n      jump\t// in\n    tag_566:\n        /* \"#utility.yul\":2927:3137   */\n      swap3\n      swap2\n      pop\n      pop\n      jump\t// out\n        /* \"#utility.yul\":3143:3762   */\n    tag_71:\n        /* \"#utility.yul\":3220:3226   */\n      0x00\n        /* \"#utility.yul\":3228:3234   */\n      dup1\n        /* \"#utility.yul\":3236:3242   */\n      0x00\n        /* \"#utility.yul\":3285:3287   */\n      0x60\n        /* \"#utility.yul\":3273:3282   */\n      dup5\n        /* \"#utility.yul\":3264:3271   */\n      dup7\n        /* \"#utility.yul\":3260:3283   */\n      sub\n        /* \"#utility.yul\":3256:3288   */\n      slt\n        /* \"#utility.yul\":3253:3372   */\n      iszero\n      tag_568\n      jumpi\n        /* \"#utility.yul\":3291:3370   */\n      tag_569\n      tag_445\n      jump\t// in\n    tag_569:\n        /* \"#utility.yul\":3253:3372   */\n    tag_568:\n        /* \"#utility.yul\":3411:3412   */\n      0x00\n        /* \"#utility.yul\":3436:3489   */\n      tag_570\n        /* \"#utility.yul\":3481:3488   */\n      dup7\n        /* \"#utility.yul\":3472:3478   */\n      dup3\n        /* \"#utility.yul\":3461:3470   */\n      dup8\n        /* \"#utility.yul\":3457:3479   */\n      add\n        /* \"#utility.yul\":3436:3489   */\n      tag_453\n      jump\t// in\n    tag_570:\n        /* \"#utility.yul\":3426:3489   */\n      swap4\n      pop\n        /* \"#utility.yul\":3382:3499   */\n      pop\n        /* \"#utility.yul\":3538:3540   */\n      0x20\n        /* \"#utility.yul\":3564:3617   */\n      tag_571\n        /* \"#utility.yul\":3609:3616   */\n      dup7\n        /* \"#utility.yul\":3600:3606   */\n      dup3\n        /* \"#utility.yul\":3589:3598   */\n      dup8\n        /* \"#utility.yul\":3585:3607   */\n      add\n        /* \"#utility.yul\":3564:3617   */\n      tag_453\n      jump\t// in\n    tag_571:\n        /* \"#utility.yul\":3554:3617   */\n      swap3\n      pop\n        /* \"#utility.yul\":3509:3627   */\n      pop\n        /* \"#utility.yul\":3666:3668   */\n      0x40\n        /* \"#utility.yul\":3692:3745   */\n      tag_572\n        /* \"#utility.yul\":3737:3744   */\n      dup7\n        /* \"#utility.yul\":3728:3734   */\n      dup3\n        /* \"#utility.yul\":3717:3726   */\n      dup8\n        /* \"#utility.yul\":3713:3735   */\n      add\n        /* \"#utility.yul\":3692:3745   */\n      tag_449\n      jump\t// in\n    tag_572:\n        /* \"#utility.yul\":3682:3745   */\n      swap2\n      pop\n        /* \"#utility.yul\":3637:3755   */\n      pop\n        /* \"#utility.yul\":3143:3762   */\n      swap3\n      pop\n      swap3\n      pop\n      swap3\n      jump\t// out\n        /* \"#utility.yul\":3768:4387   */\n    tag_81:\n        /* \"#utility.yul\":3845:3851   */\n      0x00\n        /* \"#utility.yul\":3853:3859   */\n      dup1\n        /* \"#utility.yul\":3861:3867   */\n      0x00\n        /* \"#utility.yul\":3910:3912   */\n      0x60\n        /* \"#utility.yul\":3898:3907   */\n      dup5\n        /* \"#utility.yul\":3889:3896   */\n      dup7\n        /* \"#utility.yul\":3885:3908   */\n      sub\n        /* \"#utility.yul\":3881:3913   */\n      slt\n        /* \"#utility.yul\":3878:3997   */\n      iszero\n      tag_574\n      jumpi\n        /* \"#utility.yul\":3916:3995   */\n      tag_575\n      tag_445\n      jump\t// in\n    tag_575:\n        /* \"#utility.yul\":3878:3997   */\n    tag_574:\n        /* \"#utility.yul\":4036:4037   */\n      0x00\n        /* \"#utility.yul\":4061:4114   */\n      tag_576\n        /* \"#utility.yul\":4106:4113   */\n      dup7\n        /* \"#utility.yul\":4097:4103   */\n      dup3\n        /* \"#utility.yul\":4086:4095   */\n      dup8\n        /* \"#utility.yul\":4082:4104   */\n      add\n        /* \"#utility.yul\":4061:4114   */\n      tag_449\n      jump\t// in\n    tag_576:\n        /* \"#utility.yul\":4051:4114   */\n      swap4\n      pop\n        /* \"#utility.yul\":4007:4124   */\n      pop\n        /* \"#utility.yul\":4163:4165   */\n      0x20\n        /* \"#utility.yul\":4189:4242   */\n      tag_577\n        /* \"#utility.yul\":4234:4241   */\n      dup7\n        /* \"#utility.yul\":4225:4231   */\n      dup3\n        /* \"#utility.yul\":4214:4223   */\n      dup8\n        /* \"#utility.yul\":4210:4232   */\n      add\n        /* \"#utility.yul\":4189:4242   */\n      tag_449\n      jump\t// in\n    tag_577:\n        /* \"#utility.yul\":4179:4242   */\n      swap3\n      pop\n        /* \"#utility.yul\":4134:4252   */\n      pop\n        /* \"#utility.yul\":4291:4293   */\n      0x40\n        /* \"#utility.yul\":4317:4370   */\n      tag_578\n        /* \"#utility.yul\":4362:4369   */\n      dup7\n        /* \"#utility.yul\":4353:4359   */\n      dup3\n        /* \"#utility.yul\":4342:4351   */\n      dup8\n        /* \"#utility.yul\":4338:4360   */\n      add\n        /* \"#utility.yul\":4317:4370   */\n      tag_449\n      jump\t// in\n    tag_578:\n        /* \"#utility.yul\":4307:4370   */\n      swap2\n      pop\n        /* \"#utility.yul\":4262:4380   */\n      pop\n        /* \"#utility.yul\":3768:4387   */\n      swap3\n      pop\n      swap3\n      pop\n      swap3\n      jump\t// out\n        /* \"#utility.yul\":4393:4492   */\n    tag_458:\n        /* \"#utility.yul\":4445:4451   */\n      0x00\n        /* \"#utility.yul\":4479:4484   */\n      dup2\n        /* \"#utility.yul\":4473:4485   */\n      mload\n        /* \"#utility.yul\":4463:4485   */\n      swap1\n      pop\n        /* \"#utility.yul\":4393:4492   */\n      swap2\n      swap1\n      pop\n      jump\t// out\n        /* \"#utility.yul\":4498:4667   */\n    tag_459:\n        /* \"#utility.yul\":4582:4593   */\n      0x00\n        /* \"#utility.yul\":4616:4622   */\n      dup3\n        /* \"#utility.yul\":4611:4614   */\n      dup3\n        /* \"#utility.yul\":4604:4623   */\n      mstore\n        /* \"#utility.yul\":4656:4660   */\n      0x20\n        /* \"#utility.yul\":4651:4654   */\n      dup3\n        /* \"#utility.yul\":4647:4661   */\n      add\n        /* \"#utility.yul\":4632:4661   */\n      swap1\n      pop\n        /* \"#utility.yul\":4498:4667   */\n      swap3\n      swap2\n      pop\n      pop\n      jump\t// out\n        /* \"#utility.yul\":4673:4919   */\n    tag_460:\n        /* \"#utility.yul\":4754:4755   */\n      0x00\n        /* \"#utility.yul\":4764:4877   */\n    tag_582:\n        /* \"#utility.yul\":4778:4784   */\n      dup4\n        /* \"#utility.yul\":4775:4776   */\n      dup2\n        /* \"#utility.yul\":4772:4785   */\n      lt\n        /* \"#utility.yul\":4764:4877   */\n      iszero\n      tag_584\n      jumpi\n        /* \"#utility.yul\":4863:4864   */\n      dup1\n        /* \"#utility.yul\":4858:4861   */\n      dup3\n        /* \"#utility.yul\":4854:4865   */\n      add\n        /* \"#utility.yul\":4848:4866   */\n      mload\n        /* \"#utility.yul\":4844:4845   */\n      dup2\n        /* \"#utility.yul\":4839:4842   */\n      dup5\n        /* \"#utility.yul\":4835:4846   */\n      add\n        /* \"#utility.yul\":4828:4867   */\n      mstore\n        /* \"#utility.yul\":4800:4802   */\n      0x20\n        /* \"#utility.yul\":4797:4798   */\n      dup2\n        /* \"#utility.yul\":4793:4803   */\n      add\n        /* \"#utility.yul\":4788:4803   */\n      swap1\n      pop\n        /* \"#utility.yul\":4764:4877   */\n      jump(tag_582)\n    tag_584:\n        /* \"#utility.yul\":4911:4912   */\n      0x00\n        /* \"#utility.yul\":4902:4908   */\n      dup5\n        /* \"#utility.yul\":4897:4900   */\n      dup5\n        /* \"#utility.yul\":4893:4909   */\n      add\n        /* \"#utility.yul\":4886:4913   */\n      mstore\n        /* \"#utility.yul\":4735:4919   */\n      pop\n        /* \"#utility.yul\":4673:4919   */\n      pop\n      pop\n      pop\n      jump\t// out\n        /* \"#utility.yul\":4925:5027   */\n    tag_461:\n        /* \"#utility.yul\":4966:4972   */\n      0x00\n        /* \"#utility.yul\":5017:5019   */\n      0x1f\n        /* \"#utility.yul\":5013:5020   */\n      not\n        /* \"#utility.yul\":5008:5010   */\n      0x1f\n        /* \"#utility.yul\":5001:5006   */\n      dup4\n        /* \"#utility.yul\":4997:5011   */\n      add\n        /* \"#utility.yul\":4993:5021   */\n      and\n        /* \"#utility.yul\":4983:5021   */\n      swap1\n      pop\n        /* \"#utility.yul\":4925:5027   */\n      swap2\n      swap1\n      pop\n      jump\t// out\n        /* \"#utility.yul\":5033:5410   */\n    tag_462:\n        /* \"#utility.yul\":5121:5124   */\n      0x00\n        /* \"#utility.yul\":5149:5188   */\n      tag_587\n        /* \"#utility.yul\":5182:5187   */\n      dup3\n        /* \"#utility.yul\":5149:5188   */\n      tag_458\n      jump\t// in\n    tag_587:\n        /* \"#utility.yul\":5204:5275   */\n      tag_588\n        /* \"#utility.yul\":5268:5274   */\n      dup2\n        /* \"#utility.yul\":5263:5266   */\n      dup6\n        /* \"#utility.yul\":5204:5275   */\n      tag_459\n      jump\t// in\n    tag_588:\n        /* \"#utility.yul\":5197:5275   */\n      swap4\n      pop\n        /* \"#utility.yul\":5284:5349   */\n      tag_589\n        /* \"#utility.yul\":5342:5348   */\n      dup2\n        /* \"#utility.yul\":5337:5340   */\n      dup6\n        /* \"#utility.yul\":5330:5334   */\n      0x20\n        /* \"#utility.yul\":5323:5328   */\n      dup7\n        /* \"#utility.yul\":5319:5335   */\n      add\n        /* \"#utility.yul\":5284:5349   */\n      tag_460\n      jump\t// in\n    tag_589:\n        /* \"#utility.yul\":5374:5403   */\n      tag_590\n        /* \"#utility.yul\":5396:5402   */\n      dup2\n        /* \"#utility.yul\":5374:5403   */\n      tag_461\n      jump\t// in\n    tag_590:\n        /* \"#utility.yul\":5369:5372   */\n      dup5\n        /* \"#utility.yul\":5365:5404   */\n      add\n        /* \"#utility.yul\":5358:5404   */\n      swap2\n      pop\n        /* \"#utility.yul\":5125:5410   */\n      pop\n        /* \"#utility.yul\":5033:5410   */\n      swap3\n      swap2\n      pop\n      pop\n      jump\t// out\n        /* \"#utility.yul\":5416:5839   */\n    tag_96:\n        /* \"#utility.yul\":5557:5561   */\n      0x00\n        /* \"#utility.yul\":5595:5597   */\n      0x40\n        /* \"#utility.yul\":5584:5593   */\n      dup3\n        /* \"#utility.yul\":5580:5598   */\n      add\n        /* \"#utility.yul\":5572:5598   */\n      swap1\n      pop\n        /* \"#utility.yul\":5608:5679   */\n      tag_592\n        /* \"#utility.yul\":5676:5677   */\n      0x00\n        /* \"#utility.yul\":5665:5674   */\n      dup4\n        /* \"#utility.yul\":5661:5678   */\n      add\n        /* \"#utility.yul\":5652:5658   */\n      dup6\n        /* \"#utility.yul\":5608:5679   */\n      tag_454\n      jump\t// in\n    tag_592:\n        /* \"#utility.yul\":5726:5735   */\n      dup2\n        /* \"#utility.yul\":5720:5724   */\n      dup2\n        /* \"#utility.yul\":5716:5736   */\n      sub\n        /* \"#utility.yul\":5711:5713   */\n      0x20\n        /* \"#utility.yul\":5700:5709   */\n      dup4\n        /* \"#utility.yul\":5696:5714   */\n      add\n        /* \"#utility.yul\":5689:5737   */\n      mstore\n        /* \"#utility.yul\":5754:5832   */\n      tag_593\n        /* \"#utility.yul\":5827:5831   */\n      dup2\n        /* \"#utility.yul\":5818:5824   */\n      dup5\n        /* \"#utility.yul\":5754:5832   */\n      tag_462\n      jump\t// in\n    tag_593:\n        /* \"#utility.yul\":5746:5832   */\n      swap1\n      pop\n        /* \"#utility.yul\":5416:5839   */\n      swap4\n      swap3\n      pop\n      pop\n      pop\n      jump\t// out\n        /* \"#utility.yul\":5845:6158   */\n    tag_110:\n        /* \"#utility.yul\":5958:5962   */\n      0x00\n        /* \"#utility.yul\":5996:5998   */\n      0x20\n        /* \"#utility.yul\":5985:5994   */\n      dup3\n        /* \"#utility.yul\":5981:5999   */\n      add\n        /* \"#utility.yul\":5973:5999   */\n      swap1\n      pop\n        /* \"#utility.yul\":6045:6054   */\n      dup2\n        /* \"#utility.yul\":6039:6043   */\n      dup2\n        /* \"#utility.yul\":6035:6055   */\n      sub\n        /* \"#utility.yul\":6031:6032   */\n      0x00\n        /* \"#utility.yul\":6020:6029   */\n      dup4\n        /* \"#utility.yul\":6016:6033   */\n      add\n        /* \"#utility.yul\":6009:6056   */\n      mstore\n        /* \"#utility.yul\":6073:6151   */\n      tag_595\n        /* \"#utility.yul\":6146:6150   */\n      dup2\n        /* \"#utility.yul\":6137:6143   */\n      dup5\n        /* \"#utility.yul\":6073:6151   */\n      tag_462\n      jump\t// in\n    tag_595:\n        /* \"#utility.yul\":6065:6151   */\n      swap1\n      pop\n        /* \"#utility.yul\":5845:6158   */\n      swap3\n      swap2\n      pop\n      pop\n      jump\t// out\n        /* \"#utility.yul\":6164:6493   */\n    tag_115:\n        /* \"#utility.yul\":6223:6229   */\n      0x00\n        /* \"#utility.yul\":6272:6274   */\n      0x20\n        /* \"#utility.yul\":6260:6269   */\n      dup3\n        /* \"#utility.yul\":6251:6258   */\n      dup5\n        /* \"#utility.yul\":6247:6270   */\n      sub\n        /* \"#utility.yul\":6243:6275   */\n      slt\n        /* \"#utility.yul\":6240:6359   */\n      iszero\n      tag_597\n      jumpi\n        /* \"#utility.yul\":6278:6357   */\n      tag_598\n      tag_445\n      jump\t// in\n    tag_598:\n        /* \"#utility.yul\":6240:6359   */\n    tag_597:\n        /* \"#utility.yul\":6398:6399   */\n      0x00\n        /* \"#utility.yul\":6423:6476   */\n      tag_599\n        /* \"#utility.yul\":6468:6475   */\n      dup5\n        /* \"#utility.yul\":6459:6465   */\n      dup3\n        /* \"#utility.yul\":6448:6457   */\n      dup6\n        /* \"#utility.yul\":6444:6466   */\n      add\n        /* \"#utility.yul\":6423:6476   */\n      tag_449\n      jump\t// in\n    tag_599:\n        /* \"#utility.yul\":6413:6476   */\n      swap2\n      pop\n        /* \"#utility.yul\":6369:6486   */\n      pop\n        /* \"#utility.yul\":6164:6493   */\n      swap3\n      swap2\n      pop\n      pop\n      jump\t// out\n        /* \"#utility.yul\":6499:6679   */\n    tag_463:\n        /* \"#utility.yul\":6547:6624   */\n      0x4e487b7100000000000000000000000000000000000000000000000000000000\n        /* \"#utility.yul\":6544:6545   */\n      0x00\n        /* \"#utility.yul\":6537:6625   */\n      mstore\n        /* \"#utility.yul\":6644:6648   */\n      0x11\n        /* \"#utility.yul\":6641:6642   */\n      0x04\n        /* \"#utility.yul\":6634:6649   */\n      mstore\n        /* \"#utility.yul\":6668:6672   */\n      0x24\n        /* \"#utility.yul\":6665:6666   */\n      0x00\n        /* \"#utility.yul\":6658:6673   */\n      revert\n        /* \"#utility.yul\":6685:6879   */\n    tag_129:\n        /* \"#utility.yul\":6725:6729   */\n      0x00\n        /* \"#utility.yul\":6745:6765   */\n      tag_602\n        /* \"#utility.yul\":6763:6764   */\n      dup3\n        /* \"#utility.yul\":6745:6765   */\n      tag_447\n      jump\t// in\n    tag_602:\n        /* \"#utility.yul\":6740:6765   */\n      swap2\n      pop\n        /* \"#utility.yul\":6779:6799   */\n      tag_603\n        /* \"#utility.yul\":6797:6798   */\n      dup4\n        /* \"#utility.yul\":6779:6799   */\n      tag_447\n      jump\t// in\n    tag_603:\n        /* \"#utility.yul\":6774:6799   */\n      swap3\n      pop\n        /* \"#utility.yul\":6823:6824   */\n      dup3\n        /* \"#utility.yul\":6820:6821   */\n      dup3\n        /* \"#utility.yul\":6816:6825   */\n      sub\n        /* \"#utility.yul\":6808:6825   */\n      swap1\n      pop\n        /* \"#utility.yul\":6847:6848   */\n      dup2\n        /* \"#utility.yul\":6841:6845   */\n      dup2\n        /* \"#utility.yul\":6838:6849   */\n      gt\n        /* \"#utility.yul\":6835:6872   */\n      iszero\n      tag_604\n      jumpi\n        /* \"#utility.yul\":6852:6870   */\n      tag_605\n      tag_463\n      jump\t// in\n    tag_605:\n        /* \"#utility.yul\":6835:6872   */\n    tag_604:\n        /* \"#utility.yul\":6685:6879   */\n      swap3\n      swap2\n      pop\n      pop\n      jump\t// out\n        /* \"#utility.yul\":6885:7033   */\n    tag_464:\n        /* \"#utility.yul\":6987:6998   */\n      0x00\n        /* \"#utility.yul\":7024:7027   */\n      dup2\n        /* \"#utility.yul\":7009:7027   */\n      swap1\n      pop\n        /* \"#utility.yul\":6885:7033   */\n      swap3\n      swap2\n      pop\n      pop\n      jump\t// out\n        /* \"#utility.yul\":7039:7284   */\n    tag_465:\n        /* \"#utility.yul\":7179:7213   */\n      0x4e6f7420656e6f75676820706f696e74732e2054686520636f6e747261637420\n        /* \"#utility.yul\":7175:7176   */\n      0x00\n        /* \"#utility.yul\":7167:7173   */\n      dup3\n        /* \"#utility.yul\":7163:7177   */\n      add\n        /* \"#utility.yul\":7156:7214   */\n      mstore\n        /* \"#utility.yul\":7248:7276   */\n      0x6d75737420626520636861726765642077697468206d6f726520000000000000\n        /* \"#utility.yul\":7243:7245   */\n      0x20\n        /* \"#utility.yul\":7235:7241   */\n      dup3\n        /* \"#utility.yul\":7231:7246   */\n      add\n        /* \"#utility.yul\":7224:7277   */\n      mstore\n        /* \"#utility.yul\":7039:7284   */\n      pop\n      jump\t// out\n        /* \"#utility.yul\":7290:7692   */\n    tag_466:\n        /* \"#utility.yul\":7450:7453   */\n      0x00\n        /* \"#utility.yul\":7471:7556   */\n      tag_609\n        /* \"#utility.yul\":7553:7555   */\n      0x3a\n        /* \"#utility.yul\":7548:7551   */\n      dup4\n        /* \"#utility.yul\":7471:7556   */\n      tag_464\n      jump\t// in\n    tag_609:\n        /* \"#utility.yul\":7464:7556   */\n      swap2\n      pop\n        /* \"#utility.yul\":7565:7658   */\n      tag_610\n        /* \"#utility.yul\":7654:7657   */\n      dup3\n        /* \"#utility.yul\":7565:7658   */\n      tag_465\n      jump\t// in\n    tag_610:\n        /* \"#utility.yul\":7683:7685   */\n      0x3a\n        /* \"#utility.yul\":7678:7681   */\n      dup3\n        /* \"#utility.yul\":7674:7686   */\n      add\n        /* \"#utility.yul\":7667:7686   */\n      swap1\n      pop\n        /* \"#utility.yul\":7290:7692   */\n      swap2\n      swap1\n      pop\n      jump\t// out\n        /* \"#utility.yul\":7698:7878   */\n    tag_467:\n        /* \"#utility.yul\":7746:7823   */\n      0x4e487b7100000000000000000000000000000000000000000000000000000000\n        /* \"#utility.yul\":7743:7744   */\n      0x00\n        /* \"#utility.yul\":7736:7824   */\n      mstore\n        /* \"#utility.yul\":7843:7847   */\n      0x22\n        /* \"#utility.yul\":7840:7841   */\n      0x04\n        /* \"#utility.yul\":7833:7848   */\n      mstore\n        /* \"#utility.yul\":7867:7871   */\n      0x24\n        /* \"#utility.yul\":7864:7865   */\n      0x00\n        /* \"#utility.yul\":7857:7872   */\n      revert\n        /* \"#utility.yul\":7884:8204   */\n    tag_292:\n        /* \"#utility.yul\":7928:7934   */\n      0x00\n        /* \"#utility.yul\":7965:7966   */\n      0x02\n        /* \"#utility.yul\":7959:7963   */\n      dup3\n        /* \"#utility.yul\":7955:7967   */\n      div\n        /* \"#utility.yul\":7945:7967   */\n      swap1\n      pop\n        /* \"#utility.yul\":8012:8013   */\n      0x01\n        /* \"#utility.yul\":8006:8010   */\n      dup3\n        /* \"#utility.yul\":8002:8014   */\n      and\n        /* \"#utility.yul\":8033:8051   */\n      dup1\n        /* \"#utility.yul\":8023:8104   */\n      tag_613\n      jumpi\n        /* \"#utility.yul\":8089:8093   */\n      0x7f\n        /* \"#utility.yul\":8081:8087   */\n      dup3\n        /* \"#utility.yul\":8077:8094   */\n      and\n        /* \"#utility.yul\":8067:8094   */\n      swap2\n      pop\n        /* \"#utility.yul\":8023:8104   */\n    tag_613:\n        /* \"#utility.yul\":8151:8153   */\n      0x20\n        /* \"#utility.yul\":8143:8149   */\n      dup3\n        /* \"#utility.yul\":8140:8154   */\n      lt\n        /* \"#utility.yul\":8120:8138   */\n      dup2\n        /* \"#utility.yul\":8117:8155   */\n      sub\n        /* \"#utility.yul\":8114:8198   */\n      tag_614\n      jumpi\n        /* \"#utility.yul\":8170:8188   */\n      tag_615\n      tag_467\n      jump\t// in\n    tag_615:\n        /* \"#utility.yul\":8114:8198   */\n    tag_614:\n        /* \"#utility.yul\":7935:8204   */\n      pop\n        /* \"#utility.yul\":7884:8204   */\n      swap2\n      swap1\n      pop\n      jump\t// out\n        /* \"#utility.yul\":8210:8351   */\n    tag_468:\n        /* \"#utility.yul\":8259:8263   */\n      0x00\n        /* \"#utility.yul\":8282:8285   */\n      dup2\n        /* \"#utility.yul\":8274:8285   */\n      swap1\n      pop\n        /* \"#utility.yul\":8305:8308   */\n      dup2\n        /* \"#utility.yul\":8302:8303   */\n      0x00\n        /* \"#utility.yul\":8295:8309   */\n      mstore\n        /* \"#utility.yul\":8339:8343   */\n      0x20\n        /* \"#utility.yul\":8336:8337   */\n      0x00\n        /* \"#utility.yul\":8326:8344   */\n      keccak256\n        /* \"#utility.yul\":8318:8344   */\n      swap1\n      pop\n        /* \"#utility.yul\":8210:8351   */\n      swap2\n      swap1\n      pop\n      jump\t// out\n        /* \"#utility.yul\":8381:9255   */\n    tag_469:\n        /* \"#utility.yul\":8484:8487   */\n      0x00\n        /* \"#utility.yul\":8521:8526   */\n      dup2\n        /* \"#utility.yul\":8515:8527   */\n      sload\n        /* \"#utility.yul\":8550:8586   */\n      tag_618\n        /* \"#utility.yul\":8576:8585   */\n      dup2\n        /* \"#utility.yul\":8550:8586   */\n      tag_292\n      jump\t// in\n    tag_618:\n        /* \"#utility.yul\":8602:8691   */\n      tag_619\n        /* \"#utility.yul\":8684:8690   */\n      dup2\n        /* \"#utility.yul\":8679:8682   */\n      dup7\n        /* \"#utility.yul\":8602:8691   */\n      tag_464\n      jump\t// in\n    tag_619:\n        /* \"#utility.yul\":8595:8691   */\n      swap5\n      pop\n        /* \"#utility.yul\":8722:8723   */\n      0x01\n        /* \"#utility.yul\":8711:8720   */\n      dup3\n        /* \"#utility.yul\":8707:8724   */\n      and\n        /* \"#utility.yul\":8738:8739   */\n      0x00\n        /* \"#utility.yul\":8733:8899   */\n      dup2\n      eq\n      tag_621\n      jumpi\n        /* \"#utility.yul\":8913:8914   */\n      0x01\n        /* \"#utility.yul\":8908:9249   */\n      dup2\n      eq\n      tag_622\n      jumpi\n        /* \"#utility.yul\":8700:9249   */\n      jump(tag_620)\n        /* \"#utility.yul\":8733:8899   */\n    tag_621:\n        /* \"#utility.yul\":8817:8821   */\n      0xff\n        /* \"#utility.yul\":8813:8822   */\n      not\n        /* \"#utility.yul\":8802:8811   */\n      dup4\n        /* \"#utility.yul\":8798:8823   */\n      and\n        /* \"#utility.yul\":8793:8796   */\n      dup7\n        /* \"#utility.yul\":8786:8824   */\n      mstore\n        /* \"#utility.yul\":8879:8885   */\n      dup2\n        /* \"#utility.yul\":8872:8886   */\n      iszero\n        /* \"#utility.yul\":8865:8887   */\n      iszero\n        /* \"#utility.yul\":8857:8863   */\n      dup3\n        /* \"#utility.yul\":8853:8888   */\n      mul\n        /* \"#utility.yul\":8848:8851   */\n      dup7\n        /* \"#utility.yul\":8844:8889   */\n      add\n        /* \"#utility.yul\":8837:8889   */\n      swap4\n      pop\n        /* \"#utility.yul\":8733:8899   */\n      jump(tag_620)\n        /* \"#utility.yul\":8908:9249   */\n    tag_622:\n        /* \"#utility.yul\":8975:9013   */\n      tag_623\n        /* \"#utility.yul\":9007:9012   */\n      dup6\n        /* \"#utility.yul\":8975:9013   */\n      tag_468\n      jump\t// in\n    tag_623:\n        /* \"#utility.yul\":9035:9036   */\n      0x00\n        /* \"#utility.yul\":9049:9203   */\n    tag_624:\n        /* \"#utility.yul\":9063:9069   */\n      dup4\n        /* \"#utility.yul\":9060:9061   */\n      dup2\n        /* \"#utility.yul\":9057:9070   */\n      lt\n        /* \"#utility.yul\":9049:9203   */\n      iszero\n      tag_626\n      jumpi\n        /* \"#utility.yul\":9137:9144   */\n      dup2\n        /* \"#utility.yul\":9131:9145   */\n      sload\n        /* \"#utility.yul\":9127:9128   */\n      dup2\n        /* \"#utility.yul\":9122:9125   */\n      dup10\n        /* \"#utility.yul\":9118:9129   */\n      add\n        /* \"#utility.yul\":9111:9146   */\n      mstore\n        /* \"#utility.yul\":9187:9188   */\n      0x01\n        /* \"#utility.yul\":9178:9185   */\n      dup3\n        /* \"#utility.yul\":9174:9189   */\n      add\n        /* \"#utility.yul\":9163:9189   */\n      swap2\n      pop\n        /* \"#utility.yul\":9085:9089   */\n      0x20\n        /* \"#utility.yul\":9082:9083   */\n      dup2\n        /* \"#utility.yul\":9078:9090   */\n      add\n        /* \"#utility.yul\":9073:9090   */\n      swap1\n      pop\n        /* \"#utility.yul\":9049:9203   */\n      jump(tag_624)\n    tag_626:\n        /* \"#utility.yul\":9232:9238   */\n      dup4\n        /* \"#utility.yul\":9227:9230   */\n      dup9\n        /* \"#utility.yul\":9223:9239   */\n      add\n        /* \"#utility.yul\":9216:9239   */\n      swap6\n      pop\n        /* \"#utility.yul\":8915:9249   */\n      pop\n      pop\n        /* \"#utility.yul\":8700:9249   */\n    tag_620:\n      pop\n        /* \"#utility.yul\":8488:9255   */\n      pop\n      pop\n        /* \"#utility.yul\":8381:9255   */\n      swap3\n      swap2\n      pop\n      pop\n      jump\t// out\n        /* \"#utility.yul\":9261:9439   */\n    tag_470:\n        /* \"#utility.yul\":9429:9432   */\n      0x2100000000000000000000000000000000000000000000000000000000000000\n        /* \"#utility.yul\":9424:9427   */\n      dup2\n        /* \"#utility.yul\":9417:9433   */\n      mstore\n        /* \"#utility.yul\":9261:9439   */\n      pop\n      jump\t// out\n        /* \"#utility.yul\":9445:10244   */\n    tag_131:\n        /* \"#utility.yul\":9765:9768   */\n      0x00\n        /* \"#utility.yul\":9787:9935   */\n      tag_629\n        /* \"#utility.yul\":9931:9934   */\n      dup3\n        /* \"#utility.yul\":9787:9935   */\n      tag_466\n      jump\t// in\n    tag_629:\n        /* \"#utility.yul\":9780:9935   */\n      swap2\n      pop\n        /* \"#utility.yul\":9952:10044   */\n      tag_630\n        /* \"#utility.yul\":10040:10043   */\n      dup3\n        /* \"#utility.yul\":10031:10037   */\n      dup5\n        /* \"#utility.yul\":9952:10044   */\n      tag_469\n      jump\t// in\n    tag_630:\n        /* \"#utility.yul\":9945:10044   */\n      swap2\n      pop\n        /* \"#utility.yul\":10054:10191   */\n      tag_631\n        /* \"#utility.yul\":10187:10190   */\n      dup3\n        /* \"#utility.yul\":10054:10191   */\n      tag_470\n      jump\t// in\n    tag_631:\n        /* \"#utility.yul\":10216:10217   */\n      0x01\n        /* \"#utility.yul\":10211:10214   */\n      dup3\n        /* \"#utility.yul\":10207:10218   */\n      add\n        /* \"#utility.yul\":10200:10218   */\n      swap2\n      pop\n        /* \"#utility.yul\":10235:10238   */\n      dup2\n        /* \"#utility.yul\":10228:10238   */\n      swap1\n      pop\n        /* \"#utility.yul\":9445:10244   */\n      swap3\n      swap2\n      pop\n      pop\n      jump\t// out\n        /* \"#utility.yul\":10250:10475   */\n    tag_471:\n        /* \"#utility.yul\":10390:10424   */\n      0x57697468647261772076616c7565206d75737420626520677265617465722074\n        /* \"#utility.yul\":10386:10387   */\n      0x00\n        /* \"#utility.yul\":10378:10384   */\n      dup3\n        /* \"#utility.yul\":10374:10388   */\n      add\n        /* \"#utility.yul\":10367:10425   */\n      mstore\n        /* \"#utility.yul\":10459:10467   */\n      0x68616e2030210000000000000000000000000000000000000000000000000000\n        /* \"#utility.yul\":10454:10456   */\n      0x20\n        /* \"#utility.yul\":10446:10452   */\n      dup3\n        /* \"#utility.yul\":10442:10457   */\n      add\n        /* \"#utility.yul\":10435:10468   */\n      mstore\n        /* \"#utility.yul\":10250:10475   */\n      pop\n      jump\t// out\n        /* \"#utility.yul\":10481:10847   */\n    tag_472:\n        /* \"#utility.yul\":10623:10626   */\n      0x00\n        /* \"#utility.yul\":10644:10711   */\n      tag_634\n        /* \"#utility.yul\":10708:10710   */\n      0x26\n        /* \"#utility.yul\":10703:10706   */\n      dup4\n        /* \"#utility.yul\":10644:10711   */\n      tag_459\n      jump\t// in\n    tag_634:\n        /* \"#utility.yul\":10637:10711   */\n      swap2\n      pop\n        /* \"#utility.yul\":10720:10813   */\n      tag_635\n        /* \"#utility.yul\":10809:10812   */\n      dup3\n        /* \"#utility.yul\":10720:10813   */\n      tag_471\n      jump\t// in\n    tag_635:\n        /* \"#utility.yul\":10838:10840   */\n      0x40\n        /* \"#utility.yul\":10833:10836   */\n      dup3\n        /* \"#utility.yul\":10829:10841   */\n      add\n        /* \"#utility.yul\":10822:10841   */\n      swap1\n      pop\n        /* \"#utility.yul\":10481:10847   */\n      swap2\n      swap1\n      pop\n      jump\t// out\n        /* \"#utility.yul\":10853:11272   */\n    tag_136:\n        /* \"#utility.yul\":11019:11023   */\n      0x00\n        /* \"#utility.yul\":11057:11059   */\n      0x20\n        /* \"#utility.yul\":11046:11055   */\n      dup3\n        /* \"#utility.yul\":11042:11060   */\n      add\n        /* \"#utility.yul\":11034:11060   */\n      swap1\n      pop\n        /* \"#utility.yul\":11106:11115   */\n      dup2\n        /* \"#utility.yul\":11100:11104   */\n      dup2\n        /* \"#utility.yul\":11096:11116   */\n      sub\n        /* \"#utility.yul\":11092:11093   */\n      0x00\n        /* \"#utility.yul\":11081:11090   */\n      dup4\n        /* \"#utility.yul\":11077:11094   */\n      add\n        /* \"#utility.yul\":11070:11117   */\n      mstore\n        /* \"#utility.yul\":11134:11265   */\n      tag_637\n        /* \"#utility.yul\":11260:11264   */\n      dup2\n        /* \"#utility.yul\":11134:11265   */\n      tag_472\n      jump\t// in\n    tag_637:\n        /* \"#utility.yul\":11126:11265   */\n      swap1\n      pop\n        /* \"#utility.yul\":10853:11272   */\n      swap2\n      swap1\n      pop\n      jump\t// out\n        /* \"#utility.yul\":11278:11469   */\n    tag_138:\n        /* \"#utility.yul\":11318:11321   */\n      0x00\n        /* \"#utility.yul\":11337:11357   */\n      tag_639\n        /* \"#utility.yul\":11355:11356   */\n      dup3\n        /* \"#utility.yul\":11337:11357   */\n      tag_447\n      jump\t// in\n    tag_639:\n        /* \"#utility.yul\":11332:11357   */\n      swap2\n      pop\n        /* \"#utility.yul\":11371:11391   */\n      tag_640\n        /* \"#utility.yul\":11389:11390   */\n      dup4\n        /* \"#utility.yul\":11371:11391   */\n      tag_447\n      jump\t// in\n    tag_640:\n        /* \"#utility.yul\":11366:11391   */\n      swap3\n      pop\n        /* \"#utility.yul\":11414:11415   */\n      dup3\n        /* \"#utility.yul\":11411:11412   */\n      dup3\n        /* \"#utility.yul\":11407:11416   */\n      add\n        /* \"#utility.yul\":11400:11416   */\n      swap1\n      pop\n        /* \"#utility.yul\":11435:11438   */\n      dup1\n        /* \"#utility.yul\":11432:11433   */\n      dup3\n        /* \"#utility.yul\":11429:11439   */\n      gt\n        /* \"#utility.yul\":11426:11462   */\n      iszero\n      tag_641\n      jumpi\n        /* \"#utility.yul\":11442:11460   */\n      tag_642\n      tag_463\n      jump\t// in\n    tag_642:\n        /* \"#utility.yul\":11426:11462   */\n    tag_641:\n        /* \"#utility.yul\":11278:11469   */\n      swap3\n      swap2\n      pop\n      pop\n      jump\t// out\n        /* \"#utility.yul\":11475:11639   */\n    tag_473:\n        /* \"#utility.yul\":11615:11631   */\n      0x4e6f742061637469766174656421000000000000000000000000000000000000\n        /* \"#utility.yul\":11611:11612   */\n      0x00\n        /* \"#utility.yul\":11603:11609   */\n      dup3\n        /* \"#utility.yul\":11599:11613   */\n      add\n        /* \"#utility.yul\":11592:11632   */\n      mstore\n        /* \"#utility.yul\":11475:11639   */\n      pop\n      jump\t// out\n        /* \"#utility.yul\":11645:12011   */\n    tag_474:\n        /* \"#utility.yul\":11787:11790   */\n      0x00\n        /* \"#utility.yul\":11808:11875   */\n      tag_645\n        /* \"#utility.yul\":11872:11874   */\n      0x0e\n        /* \"#utility.yul\":11867:11870   */\n      dup4\n        /* \"#utility.yul\":11808:11875   */\n      tag_459\n      jump\t// in\n    tag_645:\n        /* \"#utility.yul\":11801:11875   */\n      swap2\n      pop\n        /* \"#utility.yul\":11884:11977   */\n      tag_646\n        /* \"#utility.yul\":11973:11976   */\n      dup3\n        /* \"#utility.yul\":11884:11977   */\n      tag_473\n      jump\t// in\n    tag_646:\n        /* \"#utility.yul\":12002:12004   */\n      0x20\n        /* \"#utility.yul\":11997:12000   */\n      dup3\n        /* \"#utility.yul\":11993:12005   */\n      add\n        /* \"#utility.yul\":11986:12005   */\n      swap1\n      pop\n        /* \"#utility.yul\":11645:12011   */\n      swap2\n      swap1\n      pop\n      jump\t// out\n        /* \"#utility.yul\":12017:12436   */\n    tag_159:\n        /* \"#utility.yul\":12183:12187   */\n      0x00\n        /* \"#utility.yul\":12221:12223   */\n      0x20\n        /* \"#utility.yul\":12210:12219   */\n      dup3\n        /* \"#utility.yul\":12206:12224   */\n      add\n        /* \"#utility.yul\":12198:12224   */\n      swap1\n      pop\n        /* \"#utility.yul\":12270:12279   */\n      dup2\n        /* \"#utility.yul\":12264:12268   */\n      dup2\n        /* \"#utility.yul\":12260:12280   */\n      sub\n        /* \"#utility.yul\":12256:12257   */\n      0x00\n        /* \"#utility.yul\":12245:12254   */\n      dup4\n        /* \"#utility.yul\":12241:12258   */\n      add\n        /* \"#utility.yul\":12234:12281   */\n      mstore\n        /* \"#utility.yul\":12298:12429   */\n      tag_648\n        /* \"#utility.yul\":12424:12428   */\n      dup2\n        /* \"#utility.yul\":12298:12429   */\n      tag_474\n      jump\t// in\n    tag_648:\n        /* \"#utility.yul\":12290:12429   */\n      swap1\n      pop\n        /* \"#utility.yul\":12017:12436   */\n      swap2\n      swap1\n      pop\n      jump\t// out\n        /* \"#utility.yul\":12442:12607   */\n    tag_475:\n        /* \"#utility.yul\":12582:12599   */\n      0x4e6f7420417574686f72697a6564210000000000000000000000000000000000\n        /* \"#utility.yul\":12578:12579   */\n      0x00\n        /* \"#utility.yul\":12570:12576   */\n      dup3\n        /* \"#utility.yul\":12566:12580   */\n      add\n        /* \"#utility.yul\":12559:12600   */\n      mstore\n        /* \"#utility.yul\":12442:12607   */\n      pop\n      jump\t// out\n        /* \"#utility.yul\":12613:12979   */\n    tag_476:\n        /* \"#utility.yul\":12755:12758   */\n      0x00\n        /* \"#utility.yul\":12776:12843   */\n      tag_651\n        /* \"#utility.yul\":12840:12842   */\n      0x0f\n        /* \"#utility.yul\":12835:12838   */\n      dup4\n        /* \"#utility.yul\":12776:12843   */\n      tag_459\n      jump\t// in\n    tag_651:\n        /* \"#utility.yul\":12769:12843   */\n      swap2\n      pop\n        /* \"#utility.yul\":12852:12945   */\n      tag_652\n        /* \"#utility.yul\":12941:12944   */\n      dup3\n        /* \"#utility.yul\":12852:12945   */\n      tag_475\n      jump\t// in\n    tag_652:\n        /* \"#utility.yul\":12970:12972   */\n      0x20\n        /* \"#utility.yul\":12965:12968   */\n      dup3\n        /* \"#utility.yul\":12961:12973   */\n      add\n        /* \"#utility.yul\":12954:12973   */\n      swap1\n      pop\n        /* \"#utility.yul\":12613:12979   */\n      swap2\n      swap1\n      pop\n      jump\t// out\n        /* \"#utility.yul\":12985:13404   */\n    tag_171:\n        /* \"#utility.yul\":13151:13155   */\n      0x00\n        /* \"#utility.yul\":13189:13191   */\n      0x20\n        /* \"#utility.yul\":13178:13187   */\n      dup3\n        /* \"#utility.yul\":13174:13192   */\n      add\n        /* \"#utility.yul\":13166:13192   */\n      swap1\n      pop\n        /* \"#utility.yul\":13238:13247   */\n      dup2\n        /* \"#utility.yul\":13232:13236   */\n      dup2\n        /* \"#utility.yul\":13228:13248   */\n      sub\n        /* \"#utility.yul\":13224:13225   */\n      0x00\n        /* \"#utility.yul\":13213:13222   */\n      dup4\n        /* \"#utility.yul\":13209:13226   */\n      add\n        /* \"#utility.yul\":13202:13249   */\n      mstore\n        /* \"#utility.yul\":13266:13397   */\n      tag_654\n        /* \"#utility.yul\":13392:13396   */\n      dup2\n        /* \"#utility.yul\":13266:13397   */\n      tag_476\n      jump\t// in\n    tag_654:\n        /* \"#utility.yul\":13258:13397   */\n      swap1\n      pop\n        /* \"#utility.yul\":12985:13404   */\n      swap2\n      swap1\n      pop\n      jump\t// out\n        /* \"#utility.yul\":13410:13630   */\n    tag_477:\n        /* \"#utility.yul\":13550:13584   */\n      0x43616e2774206163746976617465207769746820746869732061646472657373\n        /* \"#utility.yul\":13546:13547   */\n      0x00\n        /* \"#utility.yul\":13538:13544   */\n      dup3\n        /* \"#utility.yul\":13534:13548   */\n      add\n        /* \"#utility.yul\":13527:13585   */\n      mstore\n        /* \"#utility.yul\":13619:13622   */\n      0x2100000000000000000000000000000000000000000000000000000000000000\n        /* \"#utility.yul\":13614:13616   */\n      0x20\n        /* \"#utility.yul\":13606:13612   */\n      dup3\n        /* \"#utility.yul\":13602:13617   */\n      add\n        /* \"#utility.yul\":13595:13623   */\n      mstore\n        /* \"#utility.yul\":13410:13630   */\n      pop\n      jump\t// out\n        /* \"#utility.yul\":13636:14002   */\n    tag_478:\n        /* \"#utility.yul\":13778:13781   */\n      0x00\n        /* \"#utility.yul\":13799:13866   */\n      tag_657\n        /* \"#utility.yul\":13863:13865   */\n      0x21\n        /* \"#utility.yul\":13858:13861   */\n      dup4\n        /* \"#utility.yul\":13799:13866   */\n      tag_459\n      jump\t// in\n    tag_657:\n        /* \"#utility.yul\":13792:13866   */\n      swap2\n      pop\n        /* \"#utility.yul\":13875:13968   */\n      tag_658\n        /* \"#utility.yul\":13964:13967   */\n      dup3\n        /* \"#utility.yul\":13875:13968   */\n      tag_477\n      jump\t// in\n    tag_658:\n        /* \"#utility.yul\":13993:13995   */\n      0x40\n        /* \"#utility.yul\":13988:13991   */\n      dup3\n        /* \"#utility.yul\":13984:13996   */\n      add\n        /* \"#utility.yul\":13977:13996   */\n      swap1\n      pop\n        /* \"#utility.yul\":13636:14002   */\n      swap2\n      swap1\n      pop\n      jump\t// out\n        /* \"#utility.yul\":14008:14427   */\n    tag_182:\n        /* \"#utility.yul\":14174:14178   */\n      0x00\n        /* \"#utility.yul\":14212:14214   */\n      0x20\n        /* \"#utility.yul\":14201:14210   */\n      dup3\n        /* \"#utility.yul\":14197:14215   */\n      add\n        /* \"#utility.yul\":14189:14215   */\n      swap1\n      pop\n        /* \"#utility.yul\":14261:14270   */\n      dup2\n        /* \"#utility.yul\":14255:14259   */\n      dup2\n        /* \"#utility.yul\":14251:14271   */\n      sub\n        /* \"#utility.yul\":14247:14248   */\n      0x00\n        /* \"#utility.yul\":14236:14245   */\n      dup4\n        /* \"#utility.yul\":14232:14249   */\n      add\n        /* \"#utility.yul\":14225:14272   */\n      mstore\n        /* \"#utility.yul\":14289:14420   */\n      tag_660\n        /* \"#utility.yul\":14415:14419   */\n      dup2\n        /* \"#utility.yul\":14289:14420   */\n      tag_478\n      jump\t// in\n    tag_660:\n        /* \"#utility.yul\":14281:14420   */\n      swap1\n      pop\n        /* \"#utility.yul\":14008:14427   */\n      swap2\n      swap1\n      pop\n      jump\t// out\n        /* \"#utility.yul\":14433:14601   */\n    tag_479:\n        /* \"#utility.yul\":14573:14593   */\n      0x416c7265616479206163746976617465642e0000000000000000000000000000\n        /* \"#utility.yul\":14569:14570   */\n      0x00\n        /* \"#utility.yul\":14561:14567   */\n      dup3\n        /* \"#utility.yul\":14557:14571   */\n      add\n        /* \"#utility.yul\":14550:14594   */\n      mstore\n        /* \"#utility.yul\":14433:14601   */\n      pop\n      jump\t// out\n        /* \"#utility.yul\":14607:14973   */\n    tag_480:\n        /* \"#utility.yul\":14749:14752   */\n      0x00\n        /* \"#utility.yul\":14770:14837   */\n      tag_663\n        /* \"#utility.yul\":14834:14836   */\n      0x12\n        /* \"#utility.yul\":14829:14832   */\n      dup4\n        /* \"#utility.yul\":14770:14837   */\n      tag_459\n      jump\t// in\n    tag_663:\n        /* \"#utility.yul\":14763:14837   */\n      swap2\n      pop\n        /* \"#utility.yul\":14846:14939   */\n      tag_664\n        /* \"#utility.yul\":14935:14938   */\n      dup3\n        /* \"#utility.yul\":14846:14939   */\n      tag_479\n      jump\t// in\n    tag_664:\n        /* \"#utility.yul\":14964:14966   */\n      0x20\n        /* \"#utility.yul\":14959:14962   */\n      dup3\n        /* \"#utility.yul\":14955:14967   */\n      add\n        /* \"#utility.yul\":14948:14967   */\n      swap1\n      pop\n        /* \"#utility.yul\":14607:14973   */\n      swap2\n      swap1\n      pop\n      jump\t// out\n        /* \"#utility.yul\":14979:15398   */\n    tag_185:\n        /* \"#utility.yul\":15145:15149   */\n      0x00\n        /* \"#utility.yul\":15183:15185   */\n      0x20\n        /* \"#utility.yul\":15172:15181   */\n      dup3\n        /* \"#utility.yul\":15168:15186   */\n      add\n        /* \"#utility.yul\":15160:15186   */\n      swap1\n      pop\n        /* \"#utility.yul\":15232:15241   */\n      dup2\n        /* \"#utility.yul\":15226:15230   */\n      dup2\n        /* \"#utility.yul\":15222:15242   */\n      sub\n        /* \"#utility.yul\":15218:15219   */\n      0x00\n        /* \"#utility.yul\":15207:15216   */\n      dup4\n        /* \"#utility.yul\":15203:15220   */\n      add\n        /* \"#utility.yul\":15196:15243   */\n      mstore\n        /* \"#utility.yul\":15260:15391   */\n      tag_666\n        /* \"#utility.yul\":15386:15390   */\n      dup2\n        /* \"#utility.yul\":15260:15391   */\n      tag_480\n      jump\t// in\n    tag_666:\n        /* \"#utility.yul\":15252:15391   */\n      swap1\n      pop\n        /* \"#utility.yul\":14979:15398   */\n      swap2\n      swap1\n      pop\n      jump\t// out\n        /* \"#utility.yul\":15404:15655   */\n    tag_481:\n        /* \"#utility.yul\":15544:15578   */\n      0x4f6e6c79204f776e6572206f7220417574686f72697a65642070617274696369\n        /* \"#utility.yul\":15540:15541   */\n      0x00\n        /* \"#utility.yul\":15532:15538   */\n      dup3\n        /* \"#utility.yul\":15528:15542   */\n      add\n        /* \"#utility.yul\":15521:15579   */\n      mstore\n        /* \"#utility.yul\":15613:15647   */\n      0x7061746f722063616e206163636573732074686973206f7065726174696f6e21\n        /* \"#utility.yul\":15608:15610   */\n      0x20\n        /* \"#utility.yul\":15600:15606   */\n      dup3\n        /* \"#utility.yul\":15596:15611   */\n      add\n        /* \"#utility.yul\":15589:15648   */\n      mstore\n        /* \"#utility.yul\":15404:15655   */\n      pop\n      jump\t// out\n        /* \"#utility.yul\":15661:16027   */\n    tag_482:\n        /* \"#utility.yul\":15803:15806   */\n      0x00\n        /* \"#utility.yul\":15824:15891   */\n      tag_669\n        /* \"#utility.yul\":15888:15890   */\n      0x40\n        /* \"#utility.yul\":15883:15886   */\n      dup4\n        /* \"#utility.yul\":15824:15891   */\n      tag_459\n      jump\t// in\n    tag_669:\n        /* \"#utility.yul\":15817:15891   */\n      swap2\n      pop\n        /* \"#utility.yul\":15900:15993   */\n      tag_670\n        /* \"#utility.yul\":15989:15992   */\n      dup3\n        /* \"#utility.yul\":15900:15993   */\n      tag_481\n      jump\t// in\n    tag_670:\n        /* \"#utility.yul\":16018:16020   */\n      0x40\n        /* \"#utility.yul\":16013:16016   */\n      dup3\n        /* \"#utility.yul\":16009:16021   */\n      add\n        /* \"#utility.yul\":16002:16021   */\n      swap1\n      pop\n        /* \"#utility.yul\":15661:16027   */\n      swap2\n      swap1\n      pop\n      jump\t// out\n        /* \"#utility.yul\":16033:16452   */\n    tag_195:\n        /* \"#utility.yul\":16199:16203   */\n      0x00\n        /* \"#utility.yul\":16237:16239   */\n      0x20\n        /* \"#utility.yul\":16226:16235   */\n      dup3\n        /* \"#utility.yul\":16222:16240   */\n      add\n        /* \"#utility.yul\":16214:16240   */\n      swap1\n      pop\n        /* \"#utility.yul\":16286:16295   */\n      dup2\n        /* \"#utility.yul\":16280:16284   */\n      dup2\n        /* \"#utility.yul\":16276:16296   */\n      sub\n        /* \"#utility.yul\":16272:16273   */\n      0x00\n        /* \"#utility.yul\":16261:16270   */\n      dup4\n        /* \"#utility.yul\":16257:16274   */\n      add\n        /* \"#utility.yul\":16250:16297   */\n      mstore\n        /* \"#utility.yul\":16314:16445   */\n      tag_672\n        /* \"#utility.yul\":16440:16444   */\n      dup2\n        /* \"#utility.yul\":16314:16445   */\n      tag_482\n      jump\t// in\n    tag_672:\n        /* \"#utility.yul\":16306:16445   */\n      swap1\n      pop\n        /* \"#utility.yul\":16033:16452   */\n      swap2\n      swap1\n      pop\n      jump\t// out\n        /* \"#utility.yul\":16458:16628   */\n    tag_483:\n        /* \"#utility.yul\":16598:16620   */\n      0x4e6f7468696e6720746f2077697468647261772e000000000000000000000000\n        /* \"#utility.yul\":16594:16595   */\n      0x00\n        /* \"#utility.yul\":16586:16592   */\n      dup3\n        /* \"#utility.yul\":16582:16596   */\n      add\n        /* \"#utility.yul\":16575:16621   */\n      mstore\n        /* \"#utility.yul\":16458:16628   */\n      pop\n      jump\t// out\n        /* \"#utility.yul\":16634:17000   */\n    tag_484:\n        /* \"#utility.yul\":16776:16779   */\n      0x00\n        /* \"#utility.yul\":16797:16864   */\n      tag_675\n        /* \"#utility.yul\":16861:16863   */\n      0x14\n        /* \"#utility.yul\":16856:16859   */\n      dup4\n        /* \"#utility.yul\":16797:16864   */\n      tag_459\n      jump\t// in\n    tag_675:\n        /* \"#utility.yul\":16790:16864   */\n      swap2\n      pop\n        /* \"#utility.yul\":16873:16966   */\n      tag_676\n        /* \"#utility.yul\":16962:16965   */\n      dup3\n        /* \"#utility.yul\":16873:16966   */\n      tag_483\n      jump\t// in\n    tag_676:\n        /* \"#utility.yul\":16991:16993   */\n      0x20\n        /* \"#utility.yul\":16986:16989   */\n      dup3\n        /* \"#utility.yul\":16982:16994   */\n      add\n        /* \"#utility.yul\":16975:16994   */\n      swap1\n      pop\n        /* \"#utility.yul\":16634:17000   */\n      swap2\n      swap1\n      pop\n      jump\t// out\n        /* \"#utility.yul\":17006:17425   */\n    tag_202:\n        /* \"#utility.yul\":17172:17176   */\n      0x00\n        /* \"#utility.yul\":17210:17212   */\n      0x20\n        /* \"#utility.yul\":17199:17208   */\n      dup3\n        /* \"#utility.yul\":17195:17213   */\n      add\n        /* \"#utility.yul\":17187:17213   */\n      swap1\n      pop\n        /* \"#utility.yul\":17259:17268   */\n      dup2\n        /* \"#utility.yul\":17253:17257   */\n      dup2\n        /* \"#utility.yul\":17249:17269   */\n      sub\n        /* \"#utility.yul\":17245:17246   */\n      0x00\n        /* \"#utility.yul\":17234:17243   */\n      dup4\n        /* \"#utility.yul\":17230:17247   */\n      add\n        /* \"#utility.yul\":17223:17270   */\n      mstore\n        /* \"#utility.yul\":17287:17418   */\n      tag_678\n        /* \"#utility.yul\":17413:17417   */\n      dup2\n        /* \"#utility.yul\":17287:17418   */\n      tag_484\n      jump\t// in\n    tag_678:\n        /* \"#utility.yul\":17279:17418   */\n      swap1\n      pop\n        /* \"#utility.yul\":17006:17425   */\n      swap2\n      swap1\n      pop\n      jump\t// out\n        /* \"#utility.yul\":17431:17613   */\n    tag_485:\n        /* \"#utility.yul\":17571:17605   */\n      0x4e6f7420656e6f7567682062616c616e636520666f7220776974686472617721\n        /* \"#utility.yul\":17567:17568   */\n      0x00\n        /* \"#utility.yul\":17559:17565   */\n      dup3\n        /* \"#utility.yul\":17555:17569   */\n      add\n        /* \"#utility.yul\":17548:17606   */\n      mstore\n        /* \"#utility.yul\":17431:17613   */\n      pop\n      jump\t// out\n        /* \"#utility.yul\":17619:17985   */\n    tag_486:\n        /* \"#utility.yul\":17761:17764   */\n      0x00\n        /* \"#utility.yul\":17782:17849   */\n      tag_681\n        /* \"#utility.yul\":17846:17848   */\n      0x20\n        /* \"#utility.yul\":17841:17844   */\n      dup4\n        /* \"#utility.yul\":17782:17849   */\n      tag_459\n      jump\t// in\n    tag_681:\n        /* \"#utility.yul\":17775:17849   */\n      swap2\n      pop\n        /* \"#utility.yul\":17858:17951   */\n      tag_682\n        /* \"#utility.yul\":17947:17950   */\n      dup3\n        /* \"#utility.yul\":17858:17951   */\n      tag_485\n      jump\t// in\n    tag_682:\n        /* \"#utility.yul\":17976:17978   */\n      0x20\n        /* \"#utility.yul\":17971:17974   */\n      dup3\n        /* \"#utility.yul\":17967:17979   */\n      add\n        /* \"#utility.yul\":17960:17979   */\n      swap1\n      pop\n        /* \"#utility.yul\":17619:17985   */\n      swap2\n      swap1\n      pop\n      jump\t// out\n        /* \"#utility.yul\":17991:18410   */\n    tag_206:\n        /* \"#utility.yul\":18157:18161   */\n      0x00\n        /* \"#utility.yul\":18195:18197   */\n      0x20\n        /* \"#utility.yul\":18184:18193   */\n      dup3\n        /* \"#utility.yul\":18180:18198   */\n      add\n        /* \"#utility.yul\":18172:18198   */\n      swap1\n      pop\n        /* \"#utility.yul\":18244:18253   */\n      dup2\n        /* \"#utility.yul\":18238:18242   */\n      dup2\n        /* \"#utility.yul\":18234:18254   */\n      sub\n        /* \"#utility.yul\":18230:18231   */\n      0x00\n        /* \"#utility.yul\":18219:18228   */\n      dup4\n        /* \"#utility.yul\":18215:18232   */\n      add\n        /* \"#utility.yul\":18208:18255   */\n      mstore\n        /* \"#utility.yul\":18272:18403   */\n      tag_684\n        /* \"#utility.yul\":18398:18402   */\n      dup2\n        /* \"#utility.yul\":18272:18403   */\n      tag_486\n      jump\t// in\n    tag_684:\n        /* \"#utility.yul\":18264:18403   */\n      swap1\n      pop\n        /* \"#utility.yul\":17991:18410   */\n      swap2\n      swap1\n      pop\n      jump\t// out\n        /* \"#utility.yul\":18416:18585   */\n    tag_487:\n        /* \"#utility.yul\":18556:18577   */\n      0x4e6f7420656e6f7567682062616c616e63652100000000000000000000000000\n        /* \"#utility.yul\":18552:18553   */\n      0x00\n        /* \"#utility.yul\":18544:18550   */\n      dup3\n        /* \"#utility.yul\":18540:18554   */\n      add\n        /* \"#utility.yul\":18533:18578   */\n      mstore\n        /* \"#utility.yul\":18416:18585   */\n      pop\n      jump\t// out\n        /* \"#utility.yul\":18591:18957   */\n    tag_488:\n        /* \"#utility.yul\":18733:18736   */\n      0x00\n        /* \"#utility.yul\":18754:18821   */\n      tag_687\n        /* \"#utility.yul\":18818:18820   */\n      0x13\n        /* \"#utility.yul\":18813:18816   */\n      dup4\n        /* \"#utility.yul\":18754:18821   */\n      tag_459\n      jump\t// in\n    tag_687:\n        /* \"#utility.yul\":18747:18821   */\n      swap2\n      pop\n        /* \"#utility.yul\":18830:18923   */\n      tag_688\n        /* \"#utility.yul\":18919:18922   */\n      dup3\n        /* \"#utility.yul\":18830:18923   */\n      tag_487\n      jump\t// in\n    tag_688:\n        /* \"#utility.yul\":18948:18950   */\n      0x20\n        /* \"#utility.yul\":18943:18946   */\n      dup3\n        /* \"#utility.yul\":18939:18951   */\n      add\n        /* \"#utility.yul\":18932:18951   */\n      swap1\n      pop\n        /* \"#utility.yul\":18591:18957   */\n      swap2\n      swap1\n      pop\n      jump\t// out\n        /* \"#utility.yul\":18963:19382   */\n    tag_226:\n        /* \"#utility.yul\":19129:19133   */\n      0x00\n        /* \"#utility.yul\":19167:19169   */\n      0x20\n        /* \"#utility.yul\":19156:19165   */\n      dup3\n        /* \"#utility.yul\":19152:19170   */\n      add\n        /* \"#utility.yul\":19144:19170   */\n      swap1\n      pop\n        /* \"#utility.yul\":19216:19225   */\n      dup2\n        /* \"#utility.yul\":19210:19214   */\n      dup2\n        /* \"#utility.yul\":19206:19226   */\n      sub\n        /* \"#utility.yul\":19202:19203   */\n      0x00\n        /* \"#utility.yul\":19191:19200   */\n      dup4\n        /* \"#utility.yul\":19187:19204   */\n      add\n        /* \"#utility.yul\":19180:19227   */\n      mstore\n        /* \"#utility.yul\":19244:19375   */\n      tag_690\n        /* \"#utility.yul\":19370:19374   */\n      dup2\n        /* \"#utility.yul\":19244:19375   */\n      tag_488\n      jump\t// in\n    tag_690:\n        /* \"#utility.yul\":19236:19375   */\n      swap1\n      pop\n        /* \"#utility.yul\":18963:19382   */\n      swap2\n      swap1\n      pop\n      jump\t// out\n        /* \"#utility.yul\":19388:19720   */\n    tag_228:\n        /* \"#utility.yul\":19509:19513   */\n      0x00\n        /* \"#utility.yul\":19547:19549   */\n      0x40\n        /* \"#utility.yul\":19536:19545   */\n      dup3\n        /* \"#utility.yul\":19532:19550   */\n      add\n        /* \"#utility.yul\":19524:19550   */\n      swap1\n      pop\n        /* \"#utility.yul\":19560:19631   */\n      tag_692\n        /* \"#utility.yul\":19628:19629   */\n      0x00\n        /* \"#utility.yul\":19617:19626   */\n      dup4\n        /* \"#utility.yul\":19613:19630   */\n      add\n        /* \"#utility.yul\":19604:19610   */\n      dup6\n        /* \"#utility.yul\":19560:19631   */\n      tag_454\n      jump\t// in\n    tag_692:\n        /* \"#utility.yul\":19641:19713   */\n      tag_693\n        /* \"#utility.yul\":19709:19711   */\n      0x20\n        /* \"#utility.yul\":19698:19707   */\n      dup4\n        /* \"#utility.yul\":19694:19712   */\n      add\n        /* \"#utility.yul\":19685:19691   */\n      dup5\n        /* \"#utility.yul\":19641:19713   */\n      tag_455\n      jump\t// in\n    tag_693:\n        /* \"#utility.yul\":19388:19720   */\n      swap4\n      swap3\n      pop\n      pop\n      pop\n      jump\t// out\n        /* \"#utility.yul\":19726:19842   */\n    tag_489:\n        /* \"#utility.yul\":19796:19817   */\n      tag_695\n        /* \"#utility.yul\":19811:19816   */\n      dup2\n        /* \"#utility.yul\":19796:19817   */\n      tag_456\n      jump\t// in\n    tag_695:\n        /* \"#utility.yul\":19789:19794   */\n      dup2\n        /* \"#utility.yul\":19786:19818   */\n      eq\n        /* \"#utility.yul\":19776:19836   */\n      tag_696\n      jumpi\n        /* \"#utility.yul\":19832:19833   */\n      0x00\n        /* \"#utility.yul\":19829:19830   */\n      dup1\n        /* \"#utility.yul\":19822:19834   */\n      revert\n        /* \"#utility.yul\":19776:19836   */\n    tag_696:\n        /* \"#utility.yul\":19726:19842   */\n      pop\n      jump\t// out\n        /* \"#utility.yul\":19848:19985   */\n    tag_490:\n        /* \"#utility.yul\":19902:19907   */\n      0x00\n        /* \"#utility.yul\":19933:19939   */\n      dup2\n        /* \"#utility.yul\":19927:19940   */\n      mload\n        /* \"#utility.yul\":19918:19940   */\n      swap1\n      pop\n        /* \"#utility.yul\":19949:19979   */\n      tag_698\n        /* \"#utility.yul\":19973:19978   */\n      dup2\n        /* \"#utility.yul\":19949:19979   */\n      tag_489\n      jump\t// in\n    tag_698:\n        /* \"#utility.yul\":19848:19985   */\n      swap3\n      swap2\n      pop\n      pop\n      jump\t// out\n        /* \"#utility.yul\":19991:20336   */\n    tag_232:\n        /* \"#utility.yul\":20058:20064   */\n      0x00\n        /* \"#utility.yul\":20107:20109   */\n      0x20\n        /* \"#utility.yul\":20095:20104   */\n      dup3\n        /* \"#utility.yul\":20086:20093   */\n      dup5\n        /* \"#utility.yul\":20082:20105   */\n      sub\n        /* \"#utility.yul\":20078:20110   */\n      slt\n        /* \"#utility.yul\":20075:20194   */\n      iszero\n      tag_700\n      jumpi\n        /* \"#utility.yul\":20113:20192   */\n      tag_701\n      tag_445\n      jump\t// in\n    tag_701:\n        /* \"#utility.yul\":20075:20194   */\n    tag_700:\n        /* \"#utility.yul\":20233:20234   */\n      0x00\n        /* \"#utility.yul\":20258:20319   */\n      tag_702\n        /* \"#utility.yul\":20311:20318   */\n      dup5\n        /* \"#utility.yul\":20302:20308   */\n      dup3\n        /* \"#utility.yul\":20291:20300   */\n      dup6\n        /* \"#utility.yul\":20287:20309   */\n      add\n        /* \"#utility.yul\":20258:20319   */\n      tag_490\n      jump\t// in\n    tag_702:\n        /* \"#utility.yul\":20248:20319   */\n      swap2\n      pop\n        /* \"#utility.yul\":20204:20329   */\n      pop\n        /* \"#utility.yul\":19991:20336   */\n      swap3\n      swap2\n      pop\n      pop\n      jump\t// out\n        /* \"#utility.yul\":20342:20485   */\n    tag_491:\n        /* \"#utility.yul\":20399:20404   */\n      0x00\n        /* \"#utility.yul\":20430:20436   */\n      dup2\n        /* \"#utility.yul\":20424:20437   */\n      mload\n        /* \"#utility.yul\":20415:20437   */\n      swap1\n      pop\n        /* \"#utility.yul\":20446:20479   */\n      tag_704\n        /* \"#utility.yul\":20473:20478   */\n      dup2\n        /* \"#utility.yul\":20446:20479   */\n      tag_448\n      jump\t// in\n    tag_704:\n        /* \"#utility.yul\":20342:20485   */\n      swap3\n      swap2\n      pop\n      pop\n      jump\t// out\n        /* \"#utility.yul\":20491:20842   */\n    tag_245:\n        /* \"#utility.yul\":20561:20567   */\n      0x00\n        /* \"#utility.yul\":20610:20612   */\n      0x20\n        /* \"#utility.yul\":20598:20607   */\n      dup3\n        /* \"#utility.yul\":20589:20596   */\n      dup5\n        /* \"#utility.yul\":20585:20608   */\n      sub\n        /* \"#utility.yul\":20581:20613   */\n      slt\n        /* \"#utility.yul\":20578:20697   */\n      iszero\n      tag_706\n      jumpi\n        /* \"#utility.yul\":20616:20695   */\n      tag_707\n      tag_445\n      jump\t// in\n    tag_707:\n        /* \"#utility.yul\":20578:20697   */\n    tag_706:\n        /* \"#utility.yul\":20736:20737   */\n      0x00\n        /* \"#utility.yul\":20761:20825   */\n      tag_708\n        /* \"#utility.yul\":20817:20824   */\n      dup5\n        /* \"#utility.yul\":20808:20814   */\n      dup3\n        /* \"#utility.yul\":20797:20806   */\n      dup6\n        /* \"#utility.yul\":20793:20815   */\n      add\n        /* \"#utility.yul\":20761:20825   */\n      tag_491\n      jump\t// in\n    tag_708:\n        /* \"#utility.yul\":20751:20825   */\n      swap2\n      pop\n        /* \"#utility.yul\":20707:20835   */\n      pop\n        /* \"#utility.yul\":20491:20842   */\n      swap3\n      swap2\n      pop\n      pop\n      jump\t// out\n        /* \"#utility.yul\":20848:21087   */\n    tag_492:\n        /* \"#utility.yul\":20988:21022   */\n      0x526174652c20706f696e747320616e6420646563696d616c73206d7573742062\n        /* \"#utility.yul\":20984:20985   */\n      0x00\n        /* \"#utility.yul\":20976:20982   */\n      dup3\n        /* \"#utility.yul\":20972:20986   */\n      add\n        /* \"#utility.yul\":20965:21023   */\n      mstore\n        /* \"#utility.yul\":21057:21079   */\n      0x652067726561746572207468616e207a65726f21000000000000000000000000\n        /* \"#utility.yul\":21052:21054   */\n      0x20\n        /* \"#utility.yul\":21044:21050   */\n      dup3\n        /* \"#utility.yul\":21040:21055   */\n      add\n        /* \"#utility.yul\":21033:21080   */\n      mstore\n        /* \"#utility.yul\":20848:21087   */\n      pop\n      jump\t// out\n        /* \"#utility.yul\":21093:21459   */\n    tag_493:\n        /* \"#utility.yul\":21235:21238   */\n      0x00\n        /* \"#utility.yul\":21256:21323   */\n      tag_711\n        /* \"#utility.yul\":21320:21322   */\n      0x34\n        /* \"#utility.yul\":21315:21318   */\n      dup4\n        /* \"#utility.yul\":21256:21323   */\n      tag_459\n      jump\t// in\n    tag_711:\n        /* \"#utility.yul\":21249:21323   */\n      swap2\n      pop\n        /* \"#utility.yul\":21332:21425   */\n      tag_712\n        /* \"#utility.yul\":21421:21424   */\n      dup3\n        /* \"#utility.yul\":21332:21425   */\n      tag_492\n      jump\t// in\n    tag_712:\n        /* \"#utility.yul\":21450:21452   */\n      0x40\n        /* \"#utility.yul\":21445:21448   */\n      dup3\n        /* \"#utility.yul\":21441:21453   */\n      add\n        /* \"#utility.yul\":21434:21453   */\n      swap1\n      pop\n        /* \"#utility.yul\":21093:21459   */\n      swap2\n      swap1\n      pop\n      jump\t// out\n        /* \"#utility.yul\":21465:21884   */\n    tag_259:\n        /* \"#utility.yul\":21631:21635   */\n      0x00\n        /* \"#utility.yul\":21669:21671   */\n      0x20\n        /* \"#utility.yul\":21658:21667   */\n      dup3\n        /* \"#utility.yul\":21654:21672   */\n      add\n        /* \"#utility.yul\":21646:21672   */\n      swap1\n      pop\n        /* \"#utility.yul\":21718:21727   */\n      dup2\n        /* \"#utility.yul\":21712:21716   */\n      dup2\n        /* \"#utility.yul\":21708:21728   */\n      sub\n        /* \"#utility.yul\":21704:21705   */\n      0x00\n        /* \"#utility.yul\":21693:21702   */\n      dup4\n        /* \"#utility.yul\":21689:21706   */\n      add\n        /* \"#utility.yul\":21682:21729   */\n      mstore\n        /* \"#utility.yul\":21746:21877   */\n      tag_714\n        /* \"#utility.yul\":21872:21876   */\n      dup2\n        /* \"#utility.yul\":21746:21877   */\n      tag_493\n      jump\t// in\n    tag_714:\n        /* \"#utility.yul\":21738:21877   */\n      swap1\n      pop\n        /* \"#utility.yul\":21465:21884   */\n      swap2\n      swap1\n      pop\n      jump\t// out\n        /* \"#utility.yul\":21890:21992   */\n    tag_494:\n        /* \"#utility.yul\":21932:21940   */\n      0x00\n        /* \"#utility.yul\":21979:21984   */\n      dup2\n        /* \"#utility.yul\":21976:21977   */\n      0x01\n        /* \"#utility.yul\":21972:21985   */\n      shr\n        /* \"#utility.yul\":21951:21985   */\n      swap1\n      pop\n        /* \"#utility.yul\":21890:21992   */\n      swap2\n      swap1\n      pop\n      jump\t// out\n        /* \"#utility.yul\":21998:22846   */\n    tag_495:\n        /* \"#utility.yul\":22059:22064   */\n      0x00\n        /* \"#utility.yul\":22066:22070   */\n      dup1\n        /* \"#utility.yul\":22090:22096   */\n      dup3\n        /* \"#utility.yul\":22081:22096   */\n      swap2\n      pop\n        /* \"#utility.yul\":22114:22119   */\n      dup4\n        /* \"#utility.yul\":22105:22119   */\n      swap1\n      pop\n        /* \"#utility.yul\":22128:22840   */\n    tag_717:\n        /* \"#utility.yul\":22149:22150   */\n      0x01\n        /* \"#utility.yul\":22139:22147   */\n      dup6\n        /* \"#utility.yul\":22136:22151   */\n      gt\n        /* \"#utility.yul\":22128:22840   */\n      iszero\n      tag_719\n      jumpi\n        /* \"#utility.yul\":22244:22248   */\n      dup1\n        /* \"#utility.yul\":22239:22242   */\n      dup7\n        /* \"#utility.yul\":22235:22249   */\n      div\n        /* \"#utility.yul\":22229:22233   */\n      dup2\n        /* \"#utility.yul\":22226:22250   */\n      gt\n        /* \"#utility.yul\":22223:22273   */\n      iszero\n      tag_720\n      jumpi\n        /* \"#utility.yul\":22253:22271   */\n      tag_721\n      tag_463\n      jump\t// in\n    tag_721:\n        /* \"#utility.yul\":22223:22273   */\n    tag_720:\n        /* \"#utility.yul\":22303:22304   */\n      0x01\n        /* \"#utility.yul\":22293:22301   */\n      dup6\n        /* \"#utility.yul\":22289:22305   */\n      and\n        /* \"#utility.yul\":22286:22737   */\n      iszero\n      tag_722\n      jumpi\n        /* \"#utility.yul\":22718:22722   */\n      dup1\n        /* \"#utility.yul\":22711:22716   */\n      dup3\n        /* \"#utility.yul\":22707:22723   */\n      mul\n        /* \"#utility.yul\":22698:22723   */\n      swap2\n      pop\n        /* \"#utility.yul\":22286:22737   */\n    tag_722:\n        /* \"#utility.yul\":22768:22772   */\n      dup1\n        /* \"#utility.yul\":22762:22766   */\n      dup2\n        /* \"#utility.yul\":22758:22773   */\n      mul\n        /* \"#utility.yul\":22750:22773   */\n      swap1\n      pop\n        /* \"#utility.yul\":22798:22830   */\n      tag_723\n        /* \"#utility.yul\":22821:22829   */\n      dup6\n        /* \"#utility.yul\":22798:22830   */\n      tag_494\n      jump\t// in\n    tag_723:\n        /* \"#utility.yul\":22786:22830   */\n      swap5\n      pop\n        /* \"#utility.yul\":22128:22840   */\n      jump(tag_717)\n    tag_719:\n        /* \"#utility.yul\":21998:22846   */\n      swap5\n      pop\n      swap5\n      swap3\n      pop\n      pop\n      pop\n      jump\t// out\n        /* \"#utility.yul\":22852:23925   */\n    tag_496:\n        /* \"#utility.yul\":22906:22911   */\n      0x00\n        /* \"#utility.yul\":23097:23105   */\n      dup3\n        /* \"#utility.yul\":23087:23127   */\n      tag_725\n      jumpi\n        /* \"#utility.yul\":23118:23119   */\n      0x01\n        /* \"#utility.yul\":23109:23119   */\n      swap1\n      pop\n        /* \"#utility.yul\":23120:23125   */\n      jump(tag_724)\n        /* \"#utility.yul\":23087:23127   */\n    tag_725:\n        /* \"#utility.yul\":23146:23150   */\n      dup2\n        /* \"#utility.yul\":23136:23172   */\n      tag_726\n      jumpi\n        /* \"#utility.yul\":23163:23164   */\n      0x00\n        /* \"#utility.yul\":23154:23164   */\n      swap1\n      pop\n        /* \"#utility.yul\":23165:23170   */\n      jump(tag_724)\n        /* \"#utility.yul\":23136:23172   */\n    tag_726:\n        /* \"#utility.yul\":23232:23236   */\n      dup2\n        /* \"#utility.yul\":23280:23281   */\n      0x01\n        /* \"#utility.yul\":23275:23302   */\n      dup2\n      eq\n      tag_728\n      jumpi\n        /* \"#utility.yul\":23316:23317   */\n      0x02\n        /* \"#utility.yul\":23311:23502   */\n      dup2\n      eq\n      tag_729\n      jumpi\n        /* \"#utility.yul\":23225:23502   */\n      jump(tag_727)\n        /* \"#utility.yul\":23275:23302   */\n    tag_728:\n        /* \"#utility.yul\":23293:23294   */\n      0x01\n        /* \"#utility.yul\":23284:23294   */\n      swap2\n      pop\n        /* \"#utility.yul\":23295:23300   */\n      pop\n      jump(tag_724)\n        /* \"#utility.yul\":23311:23502   */\n    tag_729:\n        /* \"#utility.yul\":23356:23359   */\n      0xff\n        /* \"#utility.yul\":23346:23354   */\n      dup5\n        /* \"#utility.yul\":23343:23360   */\n      gt\n        /* \"#utility.yul\":23340:23383   */\n      iszero\n      tag_730\n      jumpi\n        /* \"#utility.yul\":23363:23381   */\n      tag_731\n      tag_463\n      jump\t// in\n    tag_731:\n        /* \"#utility.yul\":23340:23383   */\n    tag_730:\n        /* \"#utility.yul\":23412:23420   */\n      dup4\n        /* \"#utility.yul\":23409:23410   */\n      0x02\n        /* \"#utility.yul\":23405:23421   */\n      exp\n        /* \"#utility.yul\":23396:23421   */\n      swap2\n      pop\n        /* \"#utility.yul\":23447:23450   */\n      dup5\n        /* \"#utility.yul\":23440:23445   */\n      dup3\n        /* \"#utility.yul\":23437:23451   */\n      gt\n        /* \"#utility.yul\":23434:23474   */\n      iszero\n      tag_732\n      jumpi\n        /* \"#utility.yul\":23454:23472   */\n      tag_733\n      tag_463\n      jump\t// in\n    tag_733:\n        /* \"#utility.yul\":23434:23474   */\n    tag_732:\n        /* \"#utility.yul\":23487:23492   */\n      pop\n      jump(tag_724)\n        /* \"#utility.yul\":23225:23502   */\n    tag_727:\n      pop\n        /* \"#utility.yul\":23611:23613   */\n      0x20\n        /* \"#utility.yul\":23601:23609   */\n      dup4\n        /* \"#utility.yul\":23598:23614   */\n      lt\n        /* \"#utility.yul\":23592:23595   */\n      0x0133\n        /* \"#utility.yul\":23586:23590   */\n      dup4\n        /* \"#utility.yul\":23583:23596   */\n      lt\n        /* \"#utility.yul\":23579:23615   */\n      and\n        /* \"#utility.yul\":23561:23563   */\n      0x4e\n        /* \"#utility.yul\":23551:23559   */\n      dup5\n        /* \"#utility.yul\":23548:23564   */\n      lt\n        /* \"#utility.yul\":23543:23545   */\n      0x0b\n        /* \"#utility.yul\":23537:23541   */\n      dup5\n        /* \"#utility.yul\":23534:23546   */\n      lt\n        /* \"#utility.yul\":23530:23565   */\n      and\n        /* \"#utility.yul\":23514:23625   */\n      or\n        /* \"#utility.yul\":23511:23757   */\n      iszero\n      tag_734\n      jumpi\n        /* \"#utility.yul\":23667:23675   */\n      dup3\n        /* \"#utility.yul\":23661:23665   */\n      dup3\n        /* \"#utility.yul\":23657:23676   */\n      exp\n        /* \"#utility.yul\":23648:23676   */\n      swap1\n      pop\n        /* \"#utility.yul\":23702:23705   */\n      dup4\n        /* \"#utility.yul\":23695:23700   */\n      dup2\n        /* \"#utility.yul\":23692:23706   */\n      gt\n        /* \"#utility.yul\":23689:23729   */\n      iszero\n      tag_735\n      jumpi\n        /* \"#utility.yul\":23709:23727   */\n      tag_736\n      tag_463\n      jump\t// in\n    tag_736:\n        /* \"#utility.yul\":23689:23729   */\n    tag_735:\n        /* \"#utility.yul\":23742:23747   */\n      jump(tag_724)\n        /* \"#utility.yul\":23511:23757   */\n    tag_734:\n        /* \"#utility.yul\":23782:23824   */\n      tag_737\n        /* \"#utility.yul\":23820:23823   */\n      dup5\n        /* \"#utility.yul\":23810:23818   */\n      dup5\n        /* \"#utility.yul\":23804:23808   */\n      dup5\n        /* \"#utility.yul\":23801:23802   */\n      0x01\n        /* \"#utility.yul\":23782:23824   */\n      tag_495\n      jump\t// in\n    tag_737:\n        /* \"#utility.yul\":23767:23824   */\n      swap3\n      pop\n      swap1\n      pop\n        /* \"#utility.yul\":23856:23860   */\n      dup2\n        /* \"#utility.yul\":23851:23854   */\n      dup5\n        /* \"#utility.yul\":23847:23861   */\n      div\n        /* \"#utility.yul\":23840:23845   */\n      dup2\n        /* \"#utility.yul\":23837:23862   */\n      gt\n        /* \"#utility.yul\":23834:23885   */\n      iszero\n      tag_738\n      jumpi\n        /* \"#utility.yul\":23865:23883   */\n      tag_739\n      tag_463\n      jump\t// in\n    tag_739:\n        /* \"#utility.yul\":23834:23885   */\n    tag_738:\n        /* \"#utility.yul\":23914:23918   */\n      dup2\n        /* \"#utility.yul\":23907:23912   */\n      dup2\n        /* \"#utility.yul\":23903:23919   */\n      mul\n        /* \"#utility.yul\":23894:23919   */\n      swap1\n      pop\n        /* \"#utility.yul\":22852:23925   */\n    tag_724:\n      swap4\n      swap3\n      pop\n      pop\n      pop\n      jump\t// out\n        /* \"#utility.yul\":23931:24216   */\n    tag_261:\n        /* \"#utility.yul\":23991:23996   */\n      0x00\n        /* \"#utility.yul\":24015:24038   */\n      tag_741\n        /* \"#utility.yul\":24033:24037   */\n      dup3\n        /* \"#utility.yul\":24015:24038   */\n      tag_447\n      jump\t// in\n    tag_741:\n        /* \"#utility.yul\":24007:24038   */\n      swap2\n      pop\n        /* \"#utility.yul\":24059:24086   */\n      tag_742\n        /* \"#utility.yul\":24077:24085   */\n      dup4\n        /* \"#utility.yul\":24059:24086   */\n      tag_447\n      jump\t// in\n    tag_742:\n        /* \"#utility.yul\":24047:24086   */\n      swap3\n      pop\n        /* \"#utility.yul\":24105:24209   */\n      tag_743\n        /* \"#utility.yul\":24142:24208   */\n      0xffffffffffffffffffffffffffffffffffffffffffffffffffffffffffffffff\n        /* \"#utility.yul\":24132:24140   */\n      dup5\n        /* \"#utility.yul\":24126:24130   */\n      dup5\n        /* \"#utility.yul\":24105:24209   */\n      tag_496\n      jump\t// in\n    tag_743:\n        /* \"#utility.yul\":24096:24209   */\n      swap1\n      pop\n        /* \"#utility.yul\":23931:24216   */\n      swap3\n      swap2\n      pop\n      pop\n      jump\t// out\n        /* \"#utility.yul\":24222:24632   */\n    tag_263:\n        /* \"#utility.yul\":24262:24269   */\n      0x00\n        /* \"#utility.yul\":24285:24305   */\n      tag_745\n        /* \"#utility.yul\":24303:24304   */\n      dup3\n        /* \"#utility.yul\":24285:24305   */\n      tag_447\n      jump\t// in\n    tag_745:\n        /* \"#utility.yul\":24280:24305   */\n      swap2\n      pop\n        /* \"#utility.yul\":24319:24339   */\n      tag_746\n        /* \"#utility.yul\":24337:24338   */\n      dup4\n        /* \"#utility.yul\":24319:24339   */\n      tag_447\n      jump\t// in\n    tag_746:\n        /* \"#utility.yul\":24314:24339   */\n      swap3\n      pop\n        /* \"#utility.yul\":24374:24375   */\n      dup3\n        /* \"#utility.yul\":24371:24372   */\n      dup3\n        /* \"#utility.yul\":24367:24376   */\n      mul\n        /* \"#utility.yul\":24396:24426   */\n      tag_747\n        /* \"#utility.yul\":24414:24425   */\n      dup2\n        /* \"#utility.yul\":24396:24426   */\n      tag_447\n      jump\t// in\n    tag_747:\n        /* \"#utility.yul\":24385:24426   */\n      swap2\n      pop\n        /* \"#utility.yul\":24575:24576   */\n      dup3\n        /* \"#utility.yul\":24566:24573   */\n      dup3\n        /* \"#utility.yul\":24562:24577   */\n      div\n        /* \"#utility.yul\":24559:24560   */\n      dup5\n        /* \"#utility.yul\":24556:24578   */\n      eq\n        /* \"#utility.yul\":24536:24537   */\n      dup4\n        /* \"#utility.yul\":24529:24538   */\n      iszero\n        /* \"#utility.yul\":24509:24592   */\n      or\n        /* \"#utility.yul\":24486:24625   */\n      tag_748\n      jumpi\n        /* \"#utility.yul\":24605:24623   */\n      tag_749\n      tag_463\n      jump\t// in\n    tag_749:\n        /* \"#utility.yul\":24486:24625   */\n    tag_748:\n        /* \"#utility.yul\":24270:24632   */\n      pop\n        /* \"#utility.yul\":24222:24632   */\n      swap3\n      swap2\n      pop\n      pop\n      jump\t// out\n        /* \"#utility.yul\":24638:24818   */\n    tag_497:\n        /* \"#utility.yul\":24686:24763   */\n      0x4e487b7100000000000000000000000000000000000000000000000000000000\n        /* \"#utility.yul\":24683:24684   */\n      0x00\n        /* \"#utility.yul\":24676:24764   */\n      mstore\n        /* \"#utility.yul\":24783:24787   */\n      0x12\n        /* \"#utility.yul\":24780:24781   */\n      0x04\n        /* \"#utility.yul\":24773:24788   */\n      mstore\n        /* \"#utility.yul\":24807:24811   */\n      0x24\n        /* \"#utility.yul\":24804:24805   */\n      0x00\n        /* \"#utility.yul\":24797:24812   */\n      revert\n        /* \"#utility.yul\":24824:25009   */\n    tag_265:\n        /* \"#utility.yul\":24864:24865   */\n      0x00\n        /* \"#utility.yul\":24881:24901   */\n      tag_752\n        /* \"#utility.yul\":24899:24900   */\n      dup3\n        /* \"#utility.yul\":24881:24901   */\n      tag_447\n      jump\t// in\n    tag_752:\n        /* \"#utility.yul\":24876:24901   */\n      swap2\n      pop\n        /* \"#utility.yul\":24915:24935   */\n      tag_753\n        /* \"#utility.yul\":24933:24934   */\n      dup4\n        /* \"#utility.yul\":24915:24935   */\n      tag_447\n      jump\t// in\n    tag_753:\n        /* \"#utility.yul\":24910:24935   */\n      swap3\n      pop\n        /* \"#utility.yul\":24954:24955   */\n      dup3\n        /* \"#utility.yul\":24944:24979   */\n      tag_754\n      jumpi\n        /* \"#utility.yul\":24959:24977   */\n      tag_755\n      tag_497\n      jump\t// in\n    tag_755:\n        /* \"#utility.yul\":24944:24979   */\n    tag_754:\n        /* \"#utility.yul\":25001:25002   */\n      dup3\n        /* \"#utility.yul\":24998:24999   */\n      dup3\n        /* \"#utility.yul\":24994:25003   */\n      div\n        /* \"#utility.yul\":24989:25003   */\n      swap1\n      pop\n        /* \"#utility.yul\":24824:25009   */\n      swap3\n      swap2\n      pop\n      pop\n      jump\t// out\n        /* \"#utility.yul\":25015:25240   */\n    tag_498:\n        /* \"#utility.yul\":25155:25189   */\n      0x41676772656761746f72436f6e73756d6572206973206e6f7420696e69746961\n        /* \"#utility.yul\":25151:25152   */\n      0x00\n        /* \"#utility.yul\":25143:25149   */\n      dup3\n        /* \"#utility.yul\":25139:25153   */\n      add\n        /* \"#utility.yul\":25132:25190   */\n      mstore\n        /* \"#utility.yul\":25224:25232   */\n      0x6c697a6564210000000000000000000000000000000000000000000000000000\n        /* \"#utility.yul\":25219:25221   */\n      0x20\n        /* \"#utility.yul\":25211:25217   */\n      dup3\n        /* \"#utility.yul\":25207:25222   */\n      add\n        /* \"#utility.yul\":25200:25233   */\n      mstore\n        /* \"#utility.yul\":25015:25240   */\n      pop\n      jump\t// out\n        /* \"#utility.yul\":25246:25612   */\n    tag_499:\n        /* \"#utility.yul\":25388:25391   */\n      0x00\n        /* \"#utility.yul\":25409:25476   */\n      tag_758\n        /* \"#utility.yul\":25473:25475   */\n      0x26\n        /* \"#utility.yul\":25468:25471   */\n      dup4\n        /* \"#utility.yul\":25409:25476   */\n      tag_459\n      jump\t// in\n    tag_758:\n        /* \"#utility.yul\":25402:25476   */\n      swap2\n      pop\n        /* \"#utility.yul\":25485:25578   */\n      tag_759\n        /* \"#utility.yul\":25574:25577   */\n      dup3\n        /* \"#utility.yul\":25485:25578   */\n      tag_498\n      jump\t// in\n    tag_759:\n        /* \"#utility.yul\":25603:25605   */\n      0x40\n        /* \"#utility.yul\":25598:25601   */\n      dup3\n        /* \"#utility.yul\":25594:25606   */\n      add\n        /* \"#utility.yul\":25587:25606   */\n      swap1\n      pop\n        /* \"#utility.yul\":25246:25612   */\n      swap2\n      swap1\n      pop\n      jump\t// out\n        /* \"#utility.yul\":25618:26037   */\n    tag_321:\n        /* \"#utility.yul\":25784:25788   */\n      0x00\n        /* \"#utility.yul\":25822:25824   */\n      0x20\n        /* \"#utility.yul\":25811:25820   */\n      dup3\n        /* \"#utility.yul\":25807:25825   */\n      add\n        /* \"#utility.yul\":25799:25825   */\n      swap1\n      pop\n        /* \"#utility.yul\":25871:25880   */\n      dup2\n        /* \"#utility.yul\":25865:25869   */\n      dup2\n        /* \"#utility.yul\":25861:25881   */\n      sub\n        /* \"#utility.yul\":25857:25858   */\n      0x00\n        /* \"#utility.yul\":25846:25855   */\n      dup4\n        /* \"#utility.yul\":25842:25859   */\n      add\n        /* \"#utility.yul\":25835:25882   */\n      mstore\n        /* \"#utility.yul\":25899:26030   */\n      tag_761\n        /* \"#utility.yul\":26025:26029   */\n      dup2\n        /* \"#utility.yul\":25899:26030   */\n      tag_499\n      jump\t// in\n    tag_761:\n        /* \"#utility.yul\":25891:26030   */\n      swap1\n      pop\n        /* \"#utility.yul\":25618:26037   */\n      swap2\n      swap1\n      pop\n      jump\t// out\n        /* \"#utility.yul\":26043:26225   */\n    tag_500:\n        /* \"#utility.yul\":26183:26217   */\n      0x506f6f6c436f6e73756d6572206973206e6f7420696e697469616c697a656421\n        /* \"#utility.yul\":26179:26180   */\n      0x00\n        /* \"#utility.yul\":26171:26177   */\n      dup3\n        /* \"#utility.yul\":26167:26181   */\n      add\n        /* \"#utility.yul\":26160:26218   */\n      mstore\n        /* \"#utility.yul\":26043:26225   */\n      pop\n      jump\t// out\n        /* \"#utility.yul\":26231:26597   */\n    tag_501:\n        /* \"#utility.yul\":26373:26376   */\n      0x00\n        /* \"#utility.yul\":26394:26461   */\n      tag_764\n        /* \"#utility.yul\":26458:26460   */\n      0x20\n        /* \"#utility.yul\":26453:26456   */\n      dup4\n        /* \"#utility.yul\":26394:26461   */\n      tag_459\n      jump\t// in\n    tag_764:\n        /* \"#utility.yul\":26387:26461   */\n      swap2\n      pop\n        /* \"#utility.yul\":26470:26563   */\n      tag_765\n        /* \"#utility.yul\":26559:26562   */\n      dup3\n        /* \"#utility.yul\":26470:26563   */\n      tag_500\n      jump\t// in\n    tag_765:\n        /* \"#utility.yul\":26588:26590   */\n      0x20\n        /* \"#utility.yul\":26583:26586   */\n      dup3\n        /* \"#utility.yul\":26579:26591   */\n      add\n        /* \"#utility.yul\":26572:26591   */\n      swap1\n      pop\n        /* \"#utility.yul\":26231:26597   */\n      swap2\n      swap1\n      pop\n      jump\t// out\n        /* \"#utility.yul\":26603:27022   */\n    tag_326:\n        /* \"#utility.yul\":26769:26773   */\n      0x00\n        /* \"#utility.yul\":26807:26809   */\n      0x20\n        /* \"#utility.yul\":26796:26805   */\n      dup3\n        /* \"#utility.yul\":26792:26810   */\n      add\n        /* \"#utility.yul\":26784:26810   */\n      swap1\n      pop\n        /* \"#utility.yul\":26856:26865   */\n      dup2\n        /* \"#utility.yul\":26850:26854   */\n      dup2\n        /* \"#utility.yul\":26846:26866   */\n      sub\n        /* \"#utility.yul\":26842:26843   */\n      0x00\n        /* \"#utility.yul\":26831:26840   */\n      dup4\n        /* \"#utility.yul\":26827:26844   */\n      add\n        /* \"#utility.yul\":26820:26867   */\n      mstore\n        /* \"#utility.yul\":26884:27015   */\n      tag_767\n        /* \"#utility.yul\":27010:27014   */\n      dup2\n        /* \"#utility.yul\":26884:27015   */\n      tag_501\n      jump\t// in\n    tag_767:\n        /* \"#utility.yul\":26876:27015   */\n      swap1\n      pop\n        /* \"#utility.yul\":26603:27022   */\n      swap2\n      swap1\n      pop\n      jump\t// out\n        /* \"#utility.yul\":27028:27195   */\n    tag_502:\n        /* \"#utility.yul\":27168:27187   */\n      0x4e6f2063686172676520616d6f756e7421000000000000000000000000000000\n        /* \"#utility.yul\":27164:27165   */\n      0x00\n        /* \"#utility.yul\":27156:27162   */\n      dup3\n        /* \"#utility.yul\":27152:27166   */\n      add\n        /* \"#utility.yul\":27145:27188   */\n      mstore\n        /* \"#utility.yul\":27028:27195   */\n      pop\n      jump\t// out\n        /* \"#utility.yul\":27201:27567   */\n    tag_503:\n        /* \"#utility.yul\":27343:27346   */\n      0x00\n        /* \"#utility.yul\":27364:27431   */\n      tag_770\n        /* \"#utility.yul\":27428:27430   */\n      0x11\n        /* \"#utility.yul\":27423:27426   */\n      dup4\n        /* \"#utility.yul\":27364:27431   */\n      tag_459\n      jump\t// in\n    tag_770:\n        /* \"#utility.yul\":27357:27431   */\n      swap2\n      pop\n        /* \"#utility.yul\":27440:27533   */\n      tag_771\n        /* \"#utility.yul\":27529:27532   */\n      dup3\n        /* \"#utility.yul\":27440:27533   */\n      tag_502\n      jump\t// in\n    tag_771:\n        /* \"#utility.yul\":27558:27560   */\n      0x20\n        /* \"#utility.yul\":27553:27556   */\n      dup3\n        /* \"#utility.yul\":27549:27561   */\n      add\n        /* \"#utility.yul\":27542:27561   */\n      swap1\n      pop\n        /* \"#utility.yul\":27201:27567   */\n      swap2\n      swap1\n      pop\n      jump\t// out\n        /* \"#utility.yul\":27573:27992   */\n    tag_338:\n        /* \"#utility.yul\":27739:27743   */\n      0x00\n        /* \"#utility.yul\":27777:27779   */\n      0x20\n        /* \"#utility.yul\":27766:27775   */\n      dup3\n        /* \"#utility.yul\":27762:27780   */\n      add\n        /* \"#utility.yul\":27754:27780   */\n      swap1\n      pop\n        /* \"#utility.yul\":27826:27835   */\n      dup2\n        /* \"#utility.yul\":27820:27824   */\n      dup2\n        /* \"#utility.yul\":27816:27836   */\n      sub\n        /* \"#utility.yul\":27812:27813   */\n      0x00\n        /* \"#utility.yul\":27801:27810   */\n      dup4\n        /* \"#utility.yul\":27797:27814   */\n      add\n        /* \"#utility.yul\":27790:27837   */\n      mstore\n        /* \"#utility.yul\":27854:27985   */\n      tag_773\n        /* \"#utility.yul\":27980:27984   */\n      dup2\n        /* \"#utility.yul\":27854:27985   */\n      tag_503\n      jump\t// in\n    tag_773:\n        /* \"#utility.yul\":27846:27985   */\n      swap1\n      pop\n        /* \"#utility.yul\":27573:27992   */\n      swap2\n      swap1\n      pop\n      jump\t// out\n        /* \"#utility.yul\":27998:28330   */\n    tag_340:\n        /* \"#utility.yul\":28119:28123   */\n      0x00\n        /* \"#utility.yul\":28157:28159   */\n      0x40\n        /* \"#utility.yul\":28146:28155   */\n      dup3\n        /* \"#utility.yul\":28142:28160   */\n      add\n        /* \"#utility.yul\":28134:28160   */\n      swap1\n      pop\n        /* \"#utility.yul\":28170:28241   */\n      tag_775\n        /* \"#utility.yul\":28238:28239   */\n      0x00\n        /* \"#utility.yul\":28227:28236   */\n      dup4\n        /* \"#utility.yul\":28223:28240   */\n      add\n        /* \"#utility.yul\":28214:28220   */\n      dup6\n        /* \"#utility.yul\":28170:28241   */\n      tag_454\n      jump\t// in\n    tag_775:\n        /* \"#utility.yul\":28251:28323   */\n      tag_776\n        /* \"#utility.yul\":28319:28321   */\n      0x20\n        /* \"#utility.yul\":28308:28317   */\n      dup4\n        /* \"#utility.yul\":28304:28322   */\n      add\n        /* \"#utility.yul\":28295:28301   */\n      dup5\n        /* \"#utility.yul\":28251:28323   */\n      tag_454\n      jump\t// in\n    tag_776:\n        /* \"#utility.yul\":27998:28330   */\n      swap4\n      swap3\n      pop\n      pop\n      pop\n      jump\t// out\n        /* \"#utility.yul\":28336:28524   */\n    tag_504:\n        /* \"#utility.yul\":28505:28517   */\n      0x436865636b207468652000000000000000000000000000000000000000000000\n        /* \"#utility.yul\":28500:28503   */\n      dup2\n        /* \"#utility.yul\":28493:28518   */\n      mstore\n        /* \"#utility.yul\":28336:28524   */\n      pop\n      jump\t// out\n        /* \"#utility.yul\":28530:28714   */\n    tag_505:\n        /* \"#utility.yul\":28698:28707   */\n      0x20746f6b656e2000000000000000000000000000000000000000000000000000\n        /* \"#utility.yul\":28693:28696   */\n      dup2\n        /* \"#utility.yul\":28686:28708   */\n      mstore\n        /* \"#utility.yul\":28530:28714   */\n      pop\n      jump\t// out\n        /* \"#utility.yul\":28720:28908   */\n    tag_506:\n        /* \"#utility.yul\":28889:28901   */\n      0x616c6c6f77616e63652100000000000000000000000000000000000000000000\n        /* \"#utility.yul\":28884:28887   */\n      dup2\n        /* \"#utility.yul\":28877:28902   */\n      mstore\n        /* \"#utility.yul\":28720:28908   */\n      pop\n      jump\t// out\n        /* \"#utility.yul\":28914:29981   */\n    tag_345:\n        /* \"#utility.yul\":29315:29318   */\n      0x00\n        /* \"#utility.yul\":29330:29468   */\n      tag_781\n        /* \"#utility.yul\":29464:29467   */\n      dup3\n        /* \"#utility.yul\":29330:29468   */\n      tag_504\n      jump\t// in\n    tag_781:\n        /* \"#utility.yul\":29493:29495   */\n      0x0a\n        /* \"#utility.yul\":29488:29491   */\n      dup3\n        /* \"#utility.yul\":29484:29496   */\n      add\n        /* \"#utility.yul\":29477:29496   */\n      swap2\n      pop\n        /* \"#utility.yul\":29513:29605   */\n      tag_782\n        /* \"#utility.yul\":29601:29604   */\n      dup3\n        /* \"#utility.yul\":29592:29598   */\n      dup5\n        /* \"#utility.yul\":29513:29605   */\n      tag_469\n      jump\t// in\n    tag_782:\n        /* \"#utility.yul\":29506:29605   */\n      swap2\n      pop\n        /* \"#utility.yul\":29615:29752   */\n      tag_783\n        /* \"#utility.yul\":29748:29751   */\n      dup3\n        /* \"#utility.yul\":29615:29752   */\n      tag_505\n      jump\t// in\n    tag_783:\n        /* \"#utility.yul\":29777:29778   */\n      0x07\n        /* \"#utility.yul\":29772:29775   */\n      dup3\n        /* \"#utility.yul\":29768:29779   */\n      add\n        /* \"#utility.yul\":29761:29779   */\n      swap2\n      pop\n        /* \"#utility.yul\":29789:29927   */\n      tag_784\n        /* \"#utility.yul\":29923:29926   */\n      dup3\n        /* \"#utility.yul\":29789:29927   */\n      tag_506\n      jump\t// in\n    tag_784:\n        /* \"#utility.yul\":29952:29954   */\n      0x0a\n        /* \"#utility.yul\":29947:29950   */\n      dup3\n        /* \"#utility.yul\":29943:29955   */\n      add\n        /* \"#utility.yul\":29936:29955   */\n      swap2\n      pop\n        /* \"#utility.yul\":29972:29975   */\n      dup2\n        /* \"#utility.yul\":29965:29975   */\n      swap1\n      pop\n        /* \"#utility.yul\":28914:29981   */\n      swap3\n      swap2\n      pop\n      pop\n      jump\t// out\n        /* \"#utility.yul\":29987:30429   */\n    tag_349:\n        /* \"#utility.yul\":30136:30140   */\n      0x00\n        /* \"#utility.yul\":30174:30176   */\n      0x60\n        /* \"#utility.yul\":30163:30172   */\n      dup3\n        /* \"#utility.yul\":30159:30177   */\n      add\n        /* \"#utility.yul\":30151:30177   */\n      swap1\n      pop\n        /* \"#utility.yul\":30187:30258   */\n      tag_786\n        /* \"#utility.yul\":30255:30256   */\n      0x00\n        /* \"#utility.yul\":30244:30253   */\n      dup4\n        /* \"#utility.yul\":30240:30257   */\n      add\n        /* \"#utility.yul\":30231:30237   */\n      dup7\n        /* \"#utility.yul\":30187:30258   */\n      tag_454\n      jump\t// in\n    tag_786:\n        /* \"#utility.yul\":30268:30340   */\n      tag_787\n        /* \"#utility.yul\":30336:30338   */\n      0x20\n        /* \"#utility.yul\":30325:30334   */\n      dup4\n        /* \"#utility.yul\":30321:30339   */\n      add\n        /* \"#utility.yul\":30312:30318   */\n      dup6\n        /* \"#utility.yul\":30268:30340   */\n      tag_454\n      jump\t// in\n    tag_787:\n        /* \"#utility.yul\":30350:30422   */\n      tag_788\n        /* \"#utility.yul\":30418:30420   */\n      0x40\n        /* \"#utility.yul\":30407:30416   */\n      dup4\n        /* \"#utility.yul\":30403:30421   */\n      add\n        /* \"#utility.yul\":30394:30400   */\n      dup5\n        /* \"#utility.yul\":30350:30422   */\n      tag_455\n      jump\t// in\n    tag_788:\n        /* \"#utility.yul\":29987:30429   */\n      swap5\n      swap4\n      pop\n      pop\n      pop\n      pop\n      jump\t// out\n        /* \"#utility.yul\":30435:30596   */\n    tag_507:\n        /* \"#utility.yul\":30575:30588   */\n      0x72617465206572726f7221000000000000000000000000000000000000000000\n        /* \"#utility.yul\":30571:30572   */\n      0x00\n        /* \"#utility.yul\":30563:30569   */\n      dup3\n        /* \"#utility.yul\":30559:30573   */\n      add\n        /* \"#utility.yul\":30552:30589   */\n      mstore\n        /* \"#utility.yul\":30435:30596   */\n      pop\n      jump\t// out\n        /* \"#utility.yul\":30602:30968   */\n    tag_508:\n        /* \"#utility.yul\":30744:30747   */\n      0x00\n        /* \"#utility.yul\":30765:30832   */\n      tag_791\n        /* \"#utility.yul\":30829:30831   */\n      0x0b\n        /* \"#utility.yul\":30824:30827   */\n      dup4\n        /* \"#utility.yul\":30765:30832   */\n      tag_459\n      jump\t// in\n    tag_791:\n        /* \"#utility.yul\":30758:30832   */\n      swap2\n      pop\n        /* \"#utility.yul\":30841:30934   */\n      tag_792\n        /* \"#utility.yul\":30930:30933   */\n      dup3\n        /* \"#utility.yul\":30841:30934   */\n      tag_507\n      jump\t// in\n    tag_792:\n        /* \"#utility.yul\":30959:30961   */\n      0x20\n        /* \"#utility.yul\":30954:30957   */\n      dup3\n        /* \"#utility.yul\":30950:30962   */\n      add\n        /* \"#utility.yul\":30943:30962   */\n      swap1\n      pop\n        /* \"#utility.yul\":30602:30968   */\n      swap2\n      swap1\n      pop\n      jump\t// out\n        /* \"#utility.yul\":30974:31393   */\n    tag_359:\n        /* \"#utility.yul\":31140:31144   */\n      0x00\n        /* \"#utility.yul\":31178:31180   */\n      0x20\n        /* \"#utility.yul\":31167:31176   */\n      dup3\n        /* \"#utility.yul\":31163:31181   */\n      add\n        /* \"#utility.yul\":31155:31181   */\n      swap1\n      pop\n        /* \"#utility.yul\":31227:31236   */\n      dup2\n        /* \"#utility.yul\":31221:31225   */\n      dup2\n        /* \"#utility.yul\":31217:31237   */\n      sub\n        /* \"#utility.yul\":31213:31214   */\n      0x00\n        /* \"#utility.yul\":31202:31211   */\n      dup4\n        /* \"#utility.yul\":31198:31215   */\n      add\n        /* \"#utility.yul\":31191:31238   */\n      mstore\n        /* \"#utility.yul\":31255:31386   */\n      tag_794\n        /* \"#utility.yul\":31381:31385   */\n      dup2\n        /* \"#utility.yul\":31255:31386   */\n      tag_508\n      jump\t// in\n    tag_794:\n        /* \"#utility.yul\":31247:31386   */\n      swap1\n      pop\n        /* \"#utility.yul\":30974:31393   */\n      swap2\n      swap1\n      pop\n      jump\t// out\n        /* \"#utility.yul\":31399:32043   */\n    tag_367:\n        /* \"#utility.yul\":31596:31600   */\n      0x00\n        /* \"#utility.yul\":31634:31637   */\n      0x80\n        /* \"#utility.yul\":31623:31632   */\n      dup3\n        /* \"#utility.yul\":31619:31638   */\n      add\n        /* \"#utility.yul\":31611:31638   */\n      swap1\n      pop\n        /* \"#utility.yul\":31648:31719   */\n      tag_796\n        /* \"#utility.yul\":31716:31717   */\n      0x00\n        /* \"#utility.yul\":31705:31714   */\n      dup4\n        /* \"#utility.yul\":31701:31718   */\n      add\n        /* \"#utility.yul\":31692:31698   */\n      dup8\n        /* \"#utility.yul\":31648:31719   */\n      tag_455\n      jump\t// in\n    tag_796:\n        /* \"#utility.yul\":31729:31801   */\n      tag_797\n        /* \"#utility.yul\":31797:31799   */\n      0x20\n        /* \"#utility.yul\":31786:31795   */\n      dup4\n        /* \"#utility.yul\":31782:31800   */\n      add\n        /* \"#utility.yul\":31773:31779   */\n      dup7\n        /* \"#utility.yul\":31729:31801   */\n      tag_455\n      jump\t// in\n    tag_797:\n        /* \"#utility.yul\":31811:31883   */\n      tag_798\n        /* \"#utility.yul\":31879:31881   */\n      0x40\n        /* \"#utility.yul\":31868:31877   */\n      dup4\n        /* \"#utility.yul\":31864:31882   */\n      add\n        /* \"#utility.yul\":31855:31861   */\n      dup6\n        /* \"#utility.yul\":31811:31883   */\n      tag_455\n      jump\t// in\n    tag_798:\n        /* \"#utility.yul\":31930:31939   */\n      dup2\n        /* \"#utility.yul\":31924:31928   */\n      dup2\n        /* \"#utility.yul\":31920:31940   */\n      sub\n        /* \"#utility.yul\":31915:31917   */\n      0x60\n        /* \"#utility.yul\":31904:31913   */\n      dup4\n        /* \"#utility.yul\":31900:31918   */\n      add\n        /* \"#utility.yul\":31893:31941   */\n      mstore\n        /* \"#utility.yul\":31958:32036   */\n      tag_799\n        /* \"#utility.yul\":32031:32035   */\n      dup2\n        /* \"#utility.yul\":32022:32028   */\n      dup5\n        /* \"#utility.yul\":31958:32036   */\n      tag_462\n      jump\t// in\n    tag_799:\n        /* \"#utility.yul\":31950:32036   */\n      swap1\n      pop\n        /* \"#utility.yul\":31399:32043   */\n      swap6\n      swap5\n      pop\n      pop\n      pop\n      pop\n      pop\n      jump\t// out\n        /* \"#utility.yul\":32049:32274   */\n    tag_509:\n        /* \"#utility.yul\":32189:32223   */\n      0x4f776e61626c653a206e6577206f776e657220697320746865207a65726f2061\n        /* \"#utility.yul\":32185:32186   */\n      0x00\n        /* \"#utility.yul\":32177:32183   */\n      dup3\n        /* \"#utility.yul\":32173:32187   */\n      add\n        /* \"#utility.yul\":32166:32224   */\n      mstore\n        /* \"#utility.yul\":32258:32266   */\n      0x6464726573730000000000000000000000000000000000000000000000000000\n        /* \"#utility.yul\":32253:32255   */\n      0x20\n        /* \"#utility.yul\":32245:32251   */\n      dup3\n        /* \"#utility.yul\":32241:32256   */\n      add\n        /* \"#utility.yul\":32234:32267   */\n      mstore\n        /* \"#utility.yul\":32049:32274   */\n      pop\n      jump\t// out\n        /* \"#utility.yul\":32280:32646   */\n    tag_510:\n        /* \"#utility.yul\":32422:32425   */\n      0x00\n        /* \"#utility.yul\":32443:32510   */\n      tag_802\n        /* \"#utility.yul\":32507:32509   */\n      0x26\n        /* \"#utility.yul\":32502:32505   */\n      dup4\n        /* \"#utility.yul\":32443:32510   */\n      tag_459\n      jump\t// in\n    tag_802:\n        /* \"#utility.yul\":32436:32510   */\n      swap2\n      pop\n        /* \"#utility.yul\":32519:32612   */\n      tag_803\n        /* \"#utility.yul\":32608:32611   */\n      dup3\n        /* \"#utility.yul\":32519:32612   */\n      tag_509\n      jump\t// in\n    tag_803:\n        /* \"#utility.yul\":32637:32639   */\n      0x40\n        /* \"#utility.yul\":32632:32635   */\n      dup3\n        /* \"#utility.yul\":32628:32640   */\n      add\n        /* \"#utility.yul\":32621:32640   */\n      swap1\n      pop\n        /* \"#utility.yul\":32280:32646   */\n      swap2\n      swap1\n      pop\n      jump\t// out\n        /* \"#utility.yul\":32652:33071   */\n    tag_373:\n        /* \"#utility.yul\":32818:32822   */\n      0x00\n        /* \"#utility.yul\":32856:32858   */\n      0x20\n        /* \"#utility.yul\":32845:32854   */\n      dup3\n        /* \"#utility.yul\":32841:32859   */\n      add\n        /* \"#utility.yul\":32833:32859   */\n      swap1\n      pop\n        /* \"#utility.yul\":32905:32914   */\n      dup2\n        /* \"#utility.yul\":32899:32903   */\n      dup2\n        /* \"#utility.yul\":32895:32915   */\n      sub\n        /* \"#utility.yul\":32891:32892   */\n      0x00\n        /* \"#utility.yul\":32880:32889   */\n      dup4\n        /* \"#utility.yul\":32876:32893   */\n      add\n        /* \"#utility.yul\":32869:32916   */\n      mstore\n        /* \"#utility.yul\":32933:33064   */\n      tag_805\n        /* \"#utility.yul\":33059:33063   */\n      dup2\n        /* \"#utility.yul\":32933:33064   */\n      tag_510\n      jump\t// in\n    tag_805:\n        /* \"#utility.yul\":32925:33064   */\n      swap1\n      pop\n        /* \"#utility.yul\":32652:33071   */\n      swap2\n      swap1\n      pop\n      jump\t// out\n        /* \"#utility.yul\":33077:33259   */\n    tag_511:\n        /* \"#utility.yul\":33217:33251   */\n      0x4f776e61626c653a2063616c6c6572206973206e6f7420746865206f776e6572\n        /* \"#utility.yul\":33213:33214   */\n      0x00\n        /* \"#utility.yul\":33205:33211   */\n      dup3\n        /* \"#utility.yul\":33201:33215   */\n      add\n        /* \"#utility.yul\":33194:33252   */\n      mstore\n        /* \"#utility.yul\":33077:33259   */\n      pop\n      jump\t// out\n        /* \"#utility.yul\":33265:33631   */\n    tag_512:\n        /* \"#utility.yul\":33407:33410   */\n      0x00\n        /* \"#utility.yul\":33428:33495   */\n      tag_808\n        /* \"#utility.yul\":33492:33494   */\n      0x20\n        /* \"#utility.yul\":33487:33490   */\n      dup4\n        /* \"#utility.yul\":33428:33495   */\n      tag_459\n      jump\t// in\n    tag_808:\n        /* \"#utility.yul\":33421:33495   */\n      swap2\n      pop\n        /* \"#utility.yul\":33504:33597   */\n      tag_809\n        /* \"#utility.yul\":33593:33596   */\n      dup3\n        /* \"#utility.yul\":33504:33597   */\n      tag_511\n      jump\t// in\n    tag_809:\n        /* \"#utility.yul\":33622:33624   */\n      0x20\n        /* \"#utility.yul\":33617:33620   */\n      dup3\n        /* \"#utility.yul\":33613:33625   */\n      add\n        /* \"#utility.yul\":33606:33625   */\n      swap1\n      pop\n        /* \"#utility.yul\":33265:33631   */\n      swap2\n      swap1\n      pop\n      jump\t// out\n        /* \"#utility.yul\":33637:34056   */\n    tag_390:\n        /* \"#utility.yul\":33803:33807   */\n      0x00\n        /* \"#utility.yul\":33841:33843   */\n      0x20\n        /* \"#utility.yul\":33830:33839   */\n      dup3\n        /* \"#utility.yul\":33826:33844   */\n      add\n        /* \"#utility.yul\":33818:33844   */\n      swap1\n      pop\n        /* \"#utility.yul\":33890:33899   */\n      dup2\n        /* \"#utility.yul\":33884:33888   */\n      dup2\n        /* \"#utility.yul\":33880:33900   */\n      sub\n        /* \"#utility.yul\":33876:33877   */\n      0x00\n        /* \"#utility.yul\":33865:33874   */\n      dup4\n        /* \"#utility.yul\":33861:33878   */\n      add\n        /* \"#utility.yul\":33854:33901   */\n      mstore\n        /* \"#utility.yul\":33918:34049   */\n      tag_811\n        /* \"#utility.yul\":34044:34048   */\n      dup2\n        /* \"#utility.yul\":33918:34049   */\n      tag_512\n      jump\t// in\n    tag_811:\n        /* \"#utility.yul\":33910:34049   */\n      swap1\n      pop\n        /* \"#utility.yul\":33637:34056   */\n      swap2\n      swap1\n      pop\n      jump\t// out\n        /* \"#utility.yul\":34062:34232   */\n    tag_513:\n        /* \"#utility.yul\":34202:34224   */\n      0x5061757361626c653a206e6f7420706175736564000000000000000000000000\n        /* \"#utility.yul\":34198:34199   */\n      0x00\n        /* \"#utility.yul\":34190:34196   */\n      dup3\n        /* \"#utility.yul\":34186:34200   */\n      add\n        /* \"#utility.yul\":34179:34225   */\n      mstore\n        /* \"#utility.yul\":34062:34232   */\n      pop\n      jump\t// out\n        /* \"#utility.yul\":34238:34604   */\n    tag_514:\n        /* \"#utility.yul\":34380:34383   */\n      0x00\n        /* \"#utility.yul\":34401:34468   */\n      tag_814\n        /* \"#utility.yul\":34465:34467   */\n      0x14\n        /* \"#utility.yul\":34460:34463   */\n      dup4\n        /* \"#utility.yul\":34401:34468   */\n      tag_459\n      jump\t// in\n    tag_814:\n        /* \"#utility.yul\":34394:34468   */\n      swap2\n      pop\n        /* \"#utility.yul\":34477:34570   */\n      tag_815\n        /* \"#utility.yul\":34566:34569   */\n      dup3\n        /* \"#utility.yul\":34477:34570   */\n      tag_513\n      jump\t// in\n    tag_815:\n        /* \"#utility.yul\":34595:34597   */\n      0x20\n        /* \"#utility.yul\":34590:34593   */\n      dup3\n        /* \"#utility.yul\":34586:34598   */\n      add\n        /* \"#utility.yul\":34579:34598   */\n      swap1\n      pop\n        /* \"#utility.yul\":34238:34604   */\n      swap2\n      swap1\n      pop\n      jump\t// out\n        /* \"#utility.yul\":34610:35029   */\n    tag_395:\n        /* \"#utility.yul\":34776:34780   */\n      0x00\n        /* \"#utility.yul\":34814:34816   */\n      0x20\n        /* \"#utility.yul\":34803:34812   */\n      dup3\n        /* \"#utility.yul\":34799:34817   */\n      add\n        /* \"#utility.yul\":34791:34817   */\n      swap1\n      pop\n        /* \"#utility.yul\":34863:34872   */\n      dup2\n        /* \"#utility.yul\":34857:34861   */\n      dup2\n        /* \"#utility.yul\":34853:34873   */\n      sub\n        /* \"#utility.yul\":34849:34850   */\n      0x00\n        /* \"#utility.yul\":34838:34847   */\n      dup4\n        /* \"#utility.yul\":34834:34851   */\n      add\n        /* \"#utility.yul\":34827:34874   */\n      mstore\n        /* \"#utility.yul\":34891:35022   */\n      tag_817\n        /* \"#utility.yul\":35017:35021   */\n      dup2\n        /* \"#utility.yul\":34891:35022   */\n      tag_514\n      jump\t// in\n    tag_817:\n        /* \"#utility.yul\":34883:35022   */\n      swap1\n      pop\n        /* \"#utility.yul\":34610:35029   */\n      swap2\n      swap1\n      pop\n      jump\t// out\n        /* \"#utility.yul\":35035:35201   */\n    tag_515:\n        /* \"#utility.yul\":35175:35193   */\n      0x5061757361626c653a2070617573656400000000000000000000000000000000\n        /* \"#utility.yul\":35171:35172   */\n      0x00\n        /* \"#utility.yul\":35163:35169   */\n      dup3\n        /* \"#utility.yul\":35159:35173   */\n      add\n        /* \"#utility.yul\":35152:35194   */\n      mstore\n        /* \"#utility.yul\":35035:35201   */\n      pop\n      jump\t// out\n        /* \"#utility.yul\":35207:35573   */\n    tag_516:\n        /* \"#utility.yul\":35349:35352   */\n      0x00\n        /* \"#utility.yul\":35370:35437   */\n      tag_820\n        /* \"#utility.yul\":35434:35436   */\n      0x10\n        /* \"#utility.yul\":35429:35432   */\n      dup4\n        /* \"#utility.yul\":35370:35437   */\n      tag_459\n      jump\t// in\n    tag_820:\n        /* \"#utility.yul\":35363:35437   */\n      swap2\n      pop\n        /* \"#utility.yul\":35446:35539   */\n      tag_821\n        /* \"#utility.yul\":35535:35538   */\n      dup3\n        /* \"#utility.yul\":35446:35539   */\n      tag_515\n      jump\t// in\n    tag_821:\n        /* \"#utility.yul\":35564:35566   */\n      0x20\n        /* \"#utility.yul\":35559:35562   */\n      dup3\n        /* \"#utility.yul\":35555:35567   */\n      add\n        /* \"#utility.yul\":35548:35567   */\n      swap1\n      pop\n        /* \"#utility.yul\":35207:35573   */\n      swap2\n      swap1\n      pop\n      jump\t// out\n        /* \"#utility.yul\":35579:35998   */\n    tag_405:\n        /* \"#utility.yul\":35745:35749   */\n      0x00\n        /* \"#utility.yul\":35783:35785   */\n      0x20\n        /* \"#utility.yul\":35772:35781   */\n      dup3\n        /* \"#utility.yul\":35768:35786   */\n      add\n        /* \"#utility.yul\":35760:35786   */\n      swap1\n      pop\n        /* \"#utility.yul\":35832:35841   */\n      dup2\n        /* \"#utility.yul\":35826:35830   */\n      dup2\n        /* \"#utility.yul\":35822:35842   */\n      sub\n        /* \"#utility.yul\":35818:35819   */\n      0x00\n        /* \"#utility.yul\":35807:35816   */\n      dup4\n        /* \"#utility.yul\":35803:35820   */\n      add\n        /* \"#utility.yul\":35796:35843   */\n      mstore\n        /* \"#utility.yul\":35860:35991   */\n      tag_823\n        /* \"#utility.yul\":35986:35990   */\n      dup2\n        /* \"#utility.yul\":35860:35991   */\n      tag_516\n      jump\t// in\n    tag_823:\n        /* \"#utility.yul\":35852:35991   */\n      swap1\n      pop\n        /* \"#utility.yul\":35579:35998   */\n      swap2\n      swap1\n      pop\n      jump\t// out\n        /* \"#utility.yul\":36004:36121   */\n    tag_517:\n        /* \"#utility.yul\":36113:36114   */\n      0x00\n        /* \"#utility.yul\":36110:36111   */\n      dup1\n        /* \"#utility.yul\":36103:36115   */\n      revert\n        /* \"#utility.yul\":36127:36244   */\n    tag_518:\n        /* \"#utility.yul\":36236:36237   */\n      0x00\n        /* \"#utility.yul\":36233:36234   */\n      dup1\n        /* \"#utility.yul\":36226:36238   */\n      revert\n        /* \"#utility.yul\":36250:36430   */\n    tag_519:\n        /* \"#utility.yul\":36298:36375   */\n      0x4e487b7100000000000000000000000000000000000000000000000000000000\n        /* \"#utility.yul\":36295:36296   */\n      0x00\n        /* \"#utility.yul\":36288:36376   */\n      mstore\n        /* \"#utility.yul\":36395:36399   */\n      0x41\n        /* \"#utility.yul\":36392:36393   */\n      0x04\n        /* \"#utility.yul\":36385:36400   */\n      mstore\n        /* \"#utility.yul\":36419:36423   */\n      0x24\n        /* \"#utility.yul\":36416:36417   */\n      0x00\n        /* \"#utility.yul\":36409:36424   */\n      revert\n        /* \"#utility.yul\":36436:36717   */\n    tag_520:\n        /* \"#utility.yul\":36519:36546   */\n      tag_828\n        /* \"#utility.yul\":36541:36545   */\n      dup3\n        /* \"#utility.yul\":36519:36546   */\n      tag_461\n      jump\t// in\n    tag_828:\n        /* \"#utility.yul\":36511:36517   */\n      dup2\n        /* \"#utility.yul\":36507:36547   */\n      add\n        /* \"#utility.yul\":36649:36655   */\n      dup2\n        /* \"#utility.yul\":36637:36647   */\n      dup2\n        /* \"#utility.yul\":36634:36656   */\n      lt\n        /* \"#utility.yul\":36613:36631   */\n      0xffffffffffffffff\n        /* \"#utility.yul\":36601:36611   */\n      dup3\n        /* \"#utility.yul\":36598:36632   */\n      gt\n        /* \"#utility.yul\":36595:36657   */\n      or\n        /* \"#utility.yul\":36592:36680   */\n      iszero\n      tag_829\n      jumpi\n        /* \"#utility.yul\":36660:36678   */\n      tag_830\n      tag_519\n      jump\t// in\n    tag_830:\n        /* \"#utility.yul\":36592:36680   */\n    tag_829:\n        /* \"#utility.yul\":36700:36710   */\n      dup1\n        /* \"#utility.yul\":36696:36698   */\n      0x40\n        /* \"#utility.yul\":36689:36711   */\n      mstore\n        /* \"#utility.yul\":36479:36717   */\n      pop\n        /* \"#utility.yul\":36436:36717   */\n      pop\n      pop\n      jump\t// out\n        /* \"#utility.yul\":36723:36852   */\n    tag_521:\n        /* \"#utility.yul\":36757:36763   */\n      0x00\n        /* \"#utility.yul\":36784:36804   */\n      tag_832\n      tag_444\n      jump\t// in\n    tag_832:\n        /* \"#utility.yul\":36774:36804   */\n      swap1\n      pop\n        /* \"#utility.yul\":36813:36846   */\n      tag_833\n        /* \"#utility.yul\":36841:36845   */\n      dup3\n        /* \"#utility.yul\":36833:36839   */\n      dup3\n        /* \"#utility.yul\":36813:36846   */\n      tag_520\n      jump\t// in\n    tag_833:\n        /* \"#utility.yul\":36723:36852   */\n      swap2\n      swap1\n      pop\n      jump\t// out\n        /* \"#utility.yul\":36858:37166   */\n    tag_522:\n        /* \"#utility.yul\":36920:36924   */\n      0x00\n        /* \"#utility.yul\":37010:37028   */\n      0xffffffffffffffff\n        /* \"#utility.yul\":37002:37008   */\n      dup3\n        /* \"#utility.yul\":36999:37029   */\n      gt\n        /* \"#utility.yul\":36996:37052   */\n      iszero\n      tag_835\n      jumpi\n        /* \"#utility.yul\":37032:37050   */\n      tag_836\n      tag_519\n      jump\t// in\n    tag_836:\n        /* \"#utility.yul\":36996:37052   */\n    tag_835:\n        /* \"#utility.yul\":37070:37099   */\n      tag_837\n        /* \"#utility.yul\":37092:37098   */\n      dup3\n        /* \"#utility.yul\":37070:37099   */\n      tag_461\n      jump\t// in\n    tag_837:\n        /* \"#utility.yul\":37062:37099   */\n      swap1\n      pop\n        /* \"#utility.yul\":37154:37158   */\n      0x20\n        /* \"#utility.yul\":37148:37152   */\n      dup2\n        /* \"#utility.yul\":37144:37159   */\n      add\n        /* \"#utility.yul\":37136:37159   */\n      swap1\n      pop\n        /* \"#utility.yul\":36858:37166   */\n      swap2\n      swap1\n      pop\n      jump\t// out\n        /* \"#utility.yul\":37172:37606   */\n    tag_523:\n        /* \"#utility.yul\":37261:37266   */\n      0x00\n        /* \"#utility.yul\":37286:37352   */\n      tag_839\n        /* \"#utility.yul\":37302:37351   */\n      tag_840\n        /* \"#utility.yul\":37344:37350   */\n      dup5\n        /* \"#utility.yul\":37302:37351   */\n      tag_522\n      jump\t// in\n    tag_840:\n        /* \"#utility.yul\":37286:37352   */\n      tag_521\n      jump\t// in\n    tag_839:\n        /* \"#utility.yul\":37277:37352   */\n      swap1\n      pop\n        /* \"#utility.yul\":37375:37381   */\n      dup3\n        /* \"#utility.yul\":37368:37373   */\n      dup2\n        /* \"#utility.yul\":37361:37382   */\n      mstore\n        /* \"#utility.yul\":37413:37417   */\n      0x20\n        /* \"#utility.yul\":37406:37411   */\n      dup2\n        /* \"#utility.yul\":37402:37418   */\n      add\n        /* \"#utility.yul\":37451:37454   */\n      dup5\n        /* \"#utility.yul\":37442:37448   */\n      dup5\n        /* \"#utility.yul\":37437:37440   */\n      dup5\n        /* \"#utility.yul\":37433:37449   */\n      add\n        /* \"#utility.yul\":37430:37455   */\n      gt\n        /* \"#utility.yul\":37427:37539   */\n      iszero\n      tag_841\n      jumpi\n        /* \"#utility.yul\":37458:37537   */\n      tag_842\n      tag_518\n      jump\t// in\n    tag_842:\n        /* \"#utility.yul\":37427:37539   */\n    tag_841:\n        /* \"#utility.yul\":37548:37600   */\n      tag_843\n        /* \"#utility.yul\":37593:37599   */\n      dup5\n        /* \"#utility.yul\":37588:37591   */\n      dup3\n        /* \"#utility.yul\":37583:37586   */\n      dup6\n        /* \"#utility.yul\":37548:37600   */\n      tag_460\n      jump\t// in\n    tag_843:\n        /* \"#utility.yul\":37267:37606   */\n      pop\n        /* \"#utility.yul\":37172:37606   */\n      swap4\n      swap3\n      pop\n      pop\n      pop\n      jump\t// out\n        /* \"#utility.yul\":37626:37981   */\n    tag_524:\n        /* \"#utility.yul\":37693:37698   */\n      0x00\n        /* \"#utility.yul\":37742:37745   */\n      dup3\n        /* \"#utility.yul\":37735:37739   */\n      0x1f\n        /* \"#utility.yul\":37727:37733   */\n      dup4\n        /* \"#utility.yul\":37723:37740   */\n      add\n        /* \"#utility.yul\":37719:37746   */\n      slt\n        /* \"#utility.yul\":37709:37831   */\n      tag_845\n      jumpi\n        /* \"#utility.yul\":37750:37829   */\n      tag_846\n      tag_517\n      jump\t// in\n    tag_846:\n        /* \"#utility.yul\":37709:37831   */\n    tag_845:\n        /* \"#utility.yul\":37860:37866   */\n      dup2\n        /* \"#utility.yul\":37854:37867   */\n      mload\n        /* \"#utility.yul\":37885:37975   */\n      tag_847\n        /* \"#utility.yul\":37971:37974   */\n      dup5\n        /* \"#utility.yul\":37963:37969   */\n      dup3\n        /* \"#utility.yul\":37956:37960   */\n      0x20\n        /* \"#utility.yul\":37948:37954   */\n      dup7\n        /* \"#utility.yul\":37944:37961   */\n      add\n        /* \"#utility.yul\":37885:37975   */\n      tag_523\n      jump\t// in\n    tag_847:\n        /* \"#utility.yul\":37876:37975   */\n      swap2\n      pop\n        /* \"#utility.yul\":37699:37981   */\n      pop\n        /* \"#utility.yul\":37626:37981   */\n      swap3\n      swap2\n      pop\n      pop\n      jump\t// out\n        /* \"#utility.yul\":37987:38980   */\n    tag_425:\n        /* \"#utility.yul\":38094:38100   */\n      0x00\n        /* \"#utility.yul\":38102:38108   */\n      dup1\n        /* \"#utility.yul\":38110:38116   */\n      0x00\n        /* \"#utility.yul\":38118:38124   */\n      dup1\n        /* \"#utility.yul\":38167:38170   */\n      0x80\n        /* \"#utility.yul\":38155:38164   */\n      dup6\n        /* \"#utility.yul\":38146:38153   */\n      dup8\n        /* \"#utility.yul\":38142:38165   */\n      sub\n        /* \"#utility.yul\":38138:38171   */\n      slt\n        /* \"#utility.yul\":38135:38255   */\n      iszero\n      tag_849\n      jumpi\n        /* \"#utility.yul\":38174:38253   */\n      tag_850\n      tag_445\n      jump\t// in\n    tag_850:\n        /* \"#utility.yul\":38135:38255   */\n    tag_849:\n        /* \"#utility.yul\":38294:38295   */\n      0x00\n        /* \"#utility.yul\":38319:38383   */\n      tag_851\n        /* \"#utility.yul\":38375:38382   */\n      dup8\n        /* \"#utility.yul\":38366:38372   */\n      dup3\n        /* \"#utility.yul\":38355:38364   */\n      dup9\n        /* \"#utility.yul\":38351:38373   */\n      add\n        /* \"#utility.yul\":38319:38383   */\n      tag_491\n      jump\t// in\n    tag_851:\n        /* \"#utility.yul\":38309:38383   */\n      swap5\n      pop\n        /* \"#utility.yul\":38265:38393   */\n      pop\n        /* \"#utility.yul\":38432:38434   */\n      0x20\n        /* \"#utility.yul\":38458:38522   */\n      tag_852\n        /* \"#utility.yul\":38514:38521   */\n      dup8\n        /* \"#utility.yul\":38505:38511   */\n      dup3\n        /* \"#utility.yul\":38494:38503   */\n      dup9\n        /* \"#utility.yul\":38490:38512   */\n      add\n        /* \"#utility.yul\":38458:38522   */\n      tag_491\n      jump\t// in\n    tag_852:\n        /* \"#utility.yul\":38448:38522   */\n      swap4\n      pop\n        /* \"#utility.yul\":38403:38532   */\n      pop\n        /* \"#utility.yul\":38592:38594   */\n      0x40\n        /* \"#utility.yul\":38581:38590   */\n      dup6\n        /* \"#utility.yul\":38577:38595   */\n      add\n        /* \"#utility.yul\":38571:38596   */\n      mload\n        /* \"#utility.yul\":38623:38641   */\n      0xffffffffffffffff\n        /* \"#utility.yul\":38615:38621   */\n      dup2\n        /* \"#utility.yul\":38612:38642   */\n      gt\n        /* \"#utility.yul\":38609:38726   */\n      iszero\n      tag_853\n      jumpi\n        /* \"#utility.yul\":38645:38724   */\n      tag_854\n      tag_446\n      jump\t// in\n    tag_854:\n        /* \"#utility.yul\":38609:38726   */\n    tag_853:\n        /* \"#utility.yul\":38750:38824   */\n      tag_855\n        /* \"#utility.yul\":38816:38823   */\n      dup8\n        /* \"#utility.yul\":38807:38813   */\n      dup3\n        /* \"#utility.yul\":38796:38805   */\n      dup9\n        /* \"#utility.yul\":38792:38814   */\n      add\n        /* \"#utility.yul\":38750:38824   */\n      tag_524\n      jump\t// in\n    tag_855:\n        /* \"#utility.yul\":38740:38824   */\n      swap3\n      pop\n        /* \"#utility.yul\":38542:38834   */\n      pop\n        /* \"#utility.yul\":38873:38875   */\n      0x60\n        /* \"#utility.yul\":38899:38963   */\n      tag_856\n        /* \"#utility.yul\":38955:38962   */\n      dup8\n        /* \"#utility.yul\":38946:38952   */\n      dup3\n        /* \"#utility.yul\":38935:38944   */\n      dup9\n        /* \"#utility.yul\":38931:38953   */\n      add\n        /* \"#utility.yul\":38899:38963   */\n      tag_491\n      jump\t// in\n    tag_856:\n        /* \"#utility.yul\":38889:38963   */\n      swap2\n      pop\n        /* \"#utility.yul\":38844:38973   */\n      pop\n        /* \"#utility.yul\":37987:38980   */\n      swap3\n      swap6\n      swap2\n      swap5\n      pop\n      swap3\n      pop\n      jump\t// out\n        /* \"#utility.yul\":38986:39159   */\n    tag_525:\n        /* \"#utility.yul\":39126:39151   */\n      0x4e6f20746f6b656e7320746f206265206275726e656421000000000000000000\n        /* \"#utility.yul\":39122:39123   */\n      0x00\n        /* \"#utility.yul\":39114:39120   */\n      dup3\n        /* \"#utility.yul\":39110:39124   */\n      add\n        /* \"#utility.yul\":39103:39152   */\n      mstore\n        /* \"#utility.yul\":38986:39159   */\n      pop\n      jump\t// out\n        /* \"#utility.yul\":39165:39531   */\n    tag_526:\n        /* \"#utility.yul\":39307:39310   */\n      0x00\n        /* \"#utility.yul\":39328:39395   */\n      tag_859\n        /* \"#utility.yul\":39392:39394   */\n      0x17\n        /* \"#utility.yul\":39387:39390   */\n      dup4\n        /* \"#utility.yul\":39328:39395   */\n      tag_459\n      jump\t// in\n    tag_859:\n        /* \"#utility.yul\":39321:39395   */\n      swap2\n      pop\n        /* \"#utility.yul\":39404:39497   */\n      tag_860\n        /* \"#utility.yul\":39493:39496   */\n      dup3\n        /* \"#utility.yul\":39404:39497   */\n      tag_525\n      jump\t// in\n    tag_860:\n        /* \"#utility.yul\":39522:39524   */\n      0x20\n        /* \"#utility.yul\":39517:39520   */\n      dup3\n        /* \"#utility.yul\":39513:39525   */\n      add\n        /* \"#utility.yul\":39506:39525   */\n      swap1\n      pop\n        /* \"#utility.yul\":39165:39531   */\n      swap2\n      swap1\n      pop\n      jump\t// out\n        /* \"#utility.yul\":39537:39956   */\n    tag_433:\n        /* \"#utility.yul\":39703:39707   */\n      0x00\n        /* \"#utility.yul\":39741:39743   */\n      0x20\n        /* \"#utility.yul\":39730:39739   */\n      dup3\n        /* \"#utility.yul\":39726:39744   */\n      add\n        /* \"#utility.yul\":39718:39744   */\n      swap1\n      pop\n        /* \"#utility.yul\":39790:39799   */\n      dup2\n        /* \"#utility.yul\":39784:39788   */\n      dup2\n        /* \"#utility.yul\":39780:39800   */\n      sub\n        /* \"#utility.yul\":39776:39777   */\n      0x00\n        /* \"#utility.yul\":39765:39774   */\n      dup4\n        /* \"#utility.yul\":39761:39778   */\n      add\n        /* \"#utility.yul\":39754:39801   */\n      mstore\n        /* \"#utility.yul\":39818:39949   */\n      tag_862\n        /* \"#utility.yul\":39944:39948   */\n      dup2\n        /* \"#utility.yul\":39818:39949   */\n      tag_526\n      jump\t// in\n    tag_862:\n        /* \"#utility.yul\":39810:39949   */\n      swap1\n      pop\n        /* \"#utility.yul\":39537:39956   */\n      swap2\n      swap1\n      pop\n      jump\t// out\n\n    auxdata: 0xa2646970667358221220416998fcf9c5e4f48c65b2c514e5acbd305594e42bd627c2c3baf41ac450ad1164736f6c63430008170033\n}\n",
				"bytecode": {
					"linkReferences": {},
					"object": "60c06040526001600260146101000a81548160ff02191690831515021790555060006003556000600455600060055560006006553480156200004057600080fd5b50604051620044d1380380620044d18339818101604052810190620000669190620002e2565b60008060006101000a81548160ff021916908315150217905550620000a0620000946200019c60201b60201c565b620001a460201b60201c565b8073ffffffffffffffffffffffffffffffffffffffff1660808173ffffffffffffffffffffffffffffffffffffffff16815250508173ffffffffffffffffffffffffffffffffffffffff1660a08173ffffffffffffffffffffffffffffffffffffffff168152505060a05173ffffffffffffffffffffffffffffffffffffffff166395d89b416040518163ffffffff1660e01b81526004016000604051808303816000875af115801562000158573d6000803e3d6000fd5b505050506040513d6000823e3d601f19601f82011682018060405250810190620001839190620004a8565b6001908162000193919062000744565b5050506200082b565b600033905090565b60008060019054906101000a900473ffffffffffffffffffffffffffffffffffffffff16905081600060016101000a81548173ffffffffffffffffffffffffffffffffffffffff021916908373ffffffffffffffffffffffffffffffffffffffff1602179055508173ffffffffffffffffffffffffffffffffffffffff168173ffffffffffffffffffffffffffffffffffffffff167f8be0079c531659141344cd1fd0a4f28419497f9722a3daafe3b4186f6b6457e060405160405180910390a35050565b6000604051905090565b600080fd5b600080fd5b600073ffffffffffffffffffffffffffffffffffffffff82169050919050565b6000620002aa826200027d565b9050919050565b620002bc816200029d565b8114620002c857600080fd5b50565b600081519050620002dc81620002b1565b92915050565b60008060408385031215620002fc57620002fb62000273565b5b60006200030c85828601620002cb565b92505060206200031f85828601620002cb565b9150509250929050565b600080fd5b600080fd5b6000601f19601f8301169050919050565b7f4e487b7100000000000000000000000000000000000000000000000000000000600052604160045260246000fd5b6200037e8262000333565b810181811067ffffffffffffffff82111715620003a0576200039f62000344565b5b80604052505050565b6000620003b562000269565b9050620003c3828262000373565b919050565b600067ffffffffffffffff821115620003e657620003e562000344565b5b620003f18262000333565b9050602081019050919050565b60005b838110156200041e57808201518184015260208101905062000401565b60008484015250505050565b6000620004416200043b84620003c8565b620003a9565b90508281526020810184848401111562000460576200045f6200032e565b5b6200046d848285620003fe565b509392505050565b600082601f8301126200048d576200048c62000329565b5b81516200049f8482602086016200042a565b91505092915050565b600060208284031215620004c157620004c062000273565b5b600082015167ffffffffffffffff811115620004e257620004e162000278565b5b620004f08482850162000475565b91505092915050565b600081519050919050565b7f4e487b7100000000000000000000000000000000000000000000000000000000600052602260045260246000fd5b600060028204905060018216806200054c57607f821691505b60208210810362000562576200056162000504565b5b50919050565b60008190508160005260206000209050919050565b60006020601f8301049050919050565b600082821b905092915050565b600060088302620005cc7fffffffffffffffffffffffffffffffffffffffffffffffffffffffffffffffff826200058d565b620005d886836200058d565b95508019841693508086168417925050509392505050565b6000819050919050565b6000819050919050565b6000620006256200061f6200061984620005f0565b620005fa565b620005f0565b9050919050565b6000819050919050565b620006418362000604565b6200065962000650826200062c565b8484546200059a565b825550505050565b600090565b6200067062000661565b6200067d81848462000636565b505050565b5b81811015620006a5576200069960008262000666565b60018101905062000683565b5050565b601f821115620006f457620006be8162000568565b620006c9846200057d565b81016020851015620006d9578190505b620006f1620006e8856200057d565b83018262000682565b50505b505050565b600082821c905092915050565b60006200071960001984600802620006f9565b1980831691505092915050565b600062000734838362000706565b9150826002028217905092915050565b6200074f82620004f9565b67ffffffffffffffff8111156200076b576200076a62000344565b5b62000777825462000533565b62000784828285620006a9565b600060209050601f831160018114620007bc5760008415620007a7578287015190505b620007b3858262000726565b86555062000823565b601f198416620007cc8662000568565b60005b82811015620007f657848901518255600182019150602085019450602081019050620007cf565b8683101562000816578489015162000812601f89168262000706565b8355505b6001600288020188555050505b505050505050565b60805160a051613c5d6200087460003960008181611065015281816116b201528181611c5401528181611d5901526126b801526000818161097a015261187b0152613c5d6000f3fe608060405234801561001057600080fd5b50600436106101a85760003560e01c8063722713f7116100f9578063b99152d011610097578063e808876611610071578063e808876614610416578063ed969c8414610420578063f2fde38b14610450578063f98509071461046c576101a8565b8063b99152d0146103aa578063ba007e75146103da578063e6367ebe146103f8576101a8565b8063a24723e8116100d3578063a24723e814610333578063a684ab5c14610351578063abb1dc441461036f578063b0b5e39e1461038e576101a8565b8063722713f7146102c75780637754723e146102e55780638da5cb5b14610315576101a8565b80630f15f4c01161016657806351b42b001161014057806351b42b00146102655780635c975abb1461026f5780636a9d43dd1461028d578063715018a6146102bd576101a8565b80630f15f4c0146102335780632af0e2511461023d578063390885f71461025b576101a8565b8062f714ce146101ad578063046f7da2146101c957806307da68f5146101d357806308fadcb0146101dd5780630a6cb062146101fb5780630ba2f1d814610217575b600080fd5b6101c760048036038101906101c29190612841565b61048a565b005b6101d16105b7565b005b6101db6105d1565b005b6101e56105eb565b6040516101f29190612890565b60405180910390f35b610215600480360381019061021091906128ab565b6106a5565b005b610231600480360381019061022c91906128ab565b61072a565b005b61023b610959565b005b610245610b33565b60405161025291906128e7565b60405180910390f35b610263610c9a565b005b61026d610d98565b005b610277610f53565b604051610284919061291d565b60405180910390f35b6102a760048036038101906102a29190612938565b610f69565b6040516102b4919061291d565b60405180910390f35b6102c5611045565b005b6102cf611059565b6040516102dc91906128e7565b60405180910390f35b6102ff60048036038101906102fa919061298b565b611102565b60405161030c91906128e7565b60405180910390f35b61031d6112e8565b60405161032a9190612890565b60405180910390f35b61033b611311565b60405161034891906128e7565b60405180910390f35b610359611478565b60405161036691906128e7565b60405180910390f35b6103776115df565b604051610385929190612a6e565b60405180910390f35b6103a860048036038101906103a391906128ab565b611767565b005b6103c460048036038101906103bf91906128ab565b6117ec565b6040516103d191906128e7565b60405180910390f35b6103e2611877565b6040516103ef9190612890565b60405180910390f35b61040061189f565b60405161040d9190612a9e565b60405180910390f35b61041e61193f565b005b61043a60048036038101906104359190612ac0565b611ae2565b604051610447919061291d565b60405180910390f35b61046a600480360381019061046591906128ab565b611f09565b005b610474611f8c565b60405161048191906128e7565b60405180910390f35b6104926120f3565b6006546005546104a29190612b1c565b82111560016040516020016104b79190612ceb565b60405160208183030381529060405290610507576040517f08c379a00000000000000000000000000000000000000000000000000000000081526004016104fe9190612a9e565b60405180910390fd5b506000821161054b576040517f08c379a000000000000000000000000000000000000000000000000000000000815260040161054290612d8e565b60405180910390fd5b816006600082825461055d9190612dae565b925050819055508073ffffffffffffffffffffffffffffffffffffffff16427f71ef96c43343734b1d843bb85d52ef329f5e9143e4d35827771e3b0dd90c5f84846040516105ab91906128e7565b60405180910390a35050565b6105bf612171565b6105c76120f3565b6105cf6121ba565b565b6105d961221c565b6105e16120f3565b6105e9612266565b565b60008073ffffffffffffffffffffffffffffffffffffffff16600260009054906101000a900473ffffffffffffffffffffffffffffffffffffffff1673ffffffffffffffffffffffffffffffffffffffff160361067d576040517f08c379a000000000000000000000000000000000000000000000000000000000815260040161067490612e2e565b60405180910390fd5b600260009054906101000a900473ffffffffffffffffffffffffffffffffffffffff16905090565b6106ad6120f3565b600073ffffffffffffffffffffffffffffffffffffffff168173ffffffffffffffffffffffffffffffffffffffff16036106e657600080fd5b80600760006101000a81548173ffffffffffffffffffffffffffffffffffffffff021916908373ffffffffffffffffffffffffffffffffffffffff16021790555050565b600073ffffffffffffffffffffffffffffffffffffffff16600260009054906101000a900473ffffffffffffffffffffffffffffffffffffffff1673ffffffffffffffffffffffffffffffffffffffff16036107bb576040517f08c379a00000000000000000000000000000000000000000000000000000000081526004016107b290612e2e565b60405180910390fd5b600260009054906101000a900473ffffffffffffffffffffffffffffffffffffffff1673ffffffffffffffffffffffffffffffffffffffff163373ffffffffffffffffffffffffffffffffffffffff161461084b576040517f08c379a000000000000000000000000000000000000000000000000000000000815260040161084290612e9a565b60405180910390fd5b600073ffffffffffffffffffffffffffffffffffffffff16600260009054906101000a900473ffffffffffffffffffffffffffffffffffffffff1673ffffffffffffffffffffffffffffffffffffffff16036108dc576040517f08c379a00000000000000000000000000000000000000000000000000000000081526004016108d390612e2e565b60405180910390fd5b600073ffffffffffffffffffffffffffffffffffffffff168173ffffffffffffffffffffffffffffffffffffffff160361091557600080fd5b80600260006101000a81548173ffffffffffffffffffffffffffffffffffffffff021916908373ffffffffffffffffffffffffffffffffffffffff16021790555050565b61096161221c565b3373ffffffffffffffffffffffffffffffffffffffff167f000000000000000000000000000000000000000000000000000000000000000073ffffffffffffffffffffffffffffffffffffffff16146109ef576040517f08c379a00000000000000000000000000000000000000000000000000000000081526004016109e690612f2c565b60405180910390fd5b600073ffffffffffffffffffffffffffffffffffffffff16600260009054906101000a900473ffffffffffffffffffffffffffffffffffffffff1673ffffffffffffffffffffffffffffffffffffffff1614610a80576040517f08c379a0000000000000000000000000000000000000000000000000000000008152600401610a7790612f98565b60405180910390fd5b33600260006101000a81548173ffffffffffffffffffffffffffffffffffffffff021916908373ffffffffffffffffffffffffffffffffffffffff160217905550600260009054906101000a900473ffffffffffffffffffffffffffffffffffffffff1673ffffffffffffffffffffffffffffffffffffffff167ffbd0a3f6e9a0dd5f834515748047e83de8064477489a0a0d6b59c64bbecc992a42604051610b2991906128e7565b60405180910390a2565b60008073ffffffffffffffffffffffffffffffffffffffff16600260009054906101000a900473ffffffffffffffffffffffffffffffffffffffff1673ffffffffffffffffffffffffffffffffffffffff1603610bc5576040517f08c379a0000000000000000000000000000000000000000000000000000000008152600401610bbc90612e2e565b60405180910390fd5b600260009054906101000a900473ffffffffffffffffffffffffffffffffffffffff1673ffffffffffffffffffffffffffffffffffffffff163373ffffffffffffffffffffffffffffffffffffffff161480610c535750610c246112e8565b73ffffffffffffffffffffffffffffffffffffffff163373ffffffffffffffffffffffffffffffffffffffff16145b610c92576040517f08c379a0000000000000000000000000000000000000000000000000000000008152600401610c899061302a565b60405180910390fd5b600354905090565b610ca26120f3565b600060065411610ce7576040517f08c379a0000000000000000000000000000000000000000000000000000000008152600401610cde90613096565b60405180910390fd5b6000600654600554610cf99190612b1c565b11610d39576040517f08c379a0000000000000000000000000000000000000000000000000000000008152600401610d3090613102565b60405180910390fd5b60065460056000828254610d4d9190612b1c565b925050819055506000600681905550427f0e727ee3674546d683a39c7087ab966177f70026adb7d4fdefaef2bf0bb29a46600654604051610d8e91906128e7565b60405180910390a2565b600073ffffffffffffffffffffffffffffffffffffffff16600260009054906101000a900473ffffffffffffffffffffffffffffffffffffffff1673ffffffffffffffffffffffffffffffffffffffff1603610e29576040517f08c379a0000000000000000000000000000000000000000000000000000000008152600401610e2090612e2e565b60405180910390fd5b600260009054906101000a900473ffffffffffffffffffffffffffffffffffffffff1673ffffffffffffffffffffffffffffffffffffffff163373ffffffffffffffffffffffffffffffffffffffff1614610eb9576040517f08c379a0000000000000000000000000000000000000000000000000000000008152600401610eb090612e9a565b60405180910390fd5b610ec161221c565b6000600260006101000a81548173ffffffffffffffffffffffffffffffffffffffff021916908373ffffffffffffffffffffffffffffffffffffffff1602179055503373ffffffffffffffffffffffffffffffffffffffff167f13b865880a841dc469b629159fa1e730fee99568b0decc6737fd688b3624638142604051610f4991906128e7565b60405180910390a2565b60008060009054906101000a900460ff16905090565b6000610f736120f3565b81610f7d856117ec565b1015610fbe576040517f08c379a0000000000000000000000000000000000000000000000000000000008152600401610fb59061316e565b60405180910390fd5b8373ffffffffffffffffffffffffffffffffffffffff1663a9059cbb84846040518363ffffffff1660e01b8152600401610ff992919061318e565b6020604051808303816000875af1158015611018573d6000803e3d6000fd5b505050506040513d601f19601f8201168201806040525081019061103c91906131e3565b90509392505050565b61104d6120f3565b61105760006122c8565b565b60006110636120f3565b7f000000000000000000000000000000000000000000000000000000000000000073ffffffffffffffffffffffffffffffffffffffff166370a08231306040518263ffffffff1660e01b81526004016110bc9190612890565b602060405180830381865afa1580156110d9573d6000803e3d6000fd5b505050506040513d601f19601f820116820180604052508101906110fd9190613225565b905090565b60008073ffffffffffffffffffffffffffffffffffffffff16600260009054906101000a900473ffffffffffffffffffffffffffffffffffffffff1673ffffffffffffffffffffffffffffffffffffffff1603611194576040517f08c379a000000000000000000000000000000000000000000000000000000000815260040161118b90612e2e565b60405180910390fd5b600260009054906101000a900473ffffffffffffffffffffffffffffffffffffffff1673ffffffffffffffffffffffffffffffffffffffff163373ffffffffffffffffffffffffffffffffffffffff16148061122257506111f36112e8565b73ffffffffffffffffffffffffffffffffffffffff163373ffffffffffffffffffffffffffffffffffffffff16145b611261576040517f08c379a00000000000000000000000000000000000000000000000000000000081526004016112589061302a565b60405180910390fd5b6000831180156112715750600084115b801561127d5750600082115b6112bc576040517f08c379a00000000000000000000000000000000000000000000000000000000081526004016112b3906132c4565b60405180910390fd5b8282600a6112ca9190613417565b856112d59190613462565b6112df91906134d3565b90509392505050565b60008060019054906101000a900473ffffffffffffffffffffffffffffffffffffffff16905090565b60008073ffffffffffffffffffffffffffffffffffffffff16600260009054906101000a900473ffffffffffffffffffffffffffffffffffffffff1673ffffffffffffffffffffffffffffffffffffffff16036113a3576040517f08c379a000000000000000000000000000000000000000000000000000000000815260040161139a90612e2e565b60405180910390fd5b600260009054906101000a900473ffffffffffffffffffffffffffffffffffffffff1673ffffffffffffffffffffffffffffffffffffffff163373ffffffffffffffffffffffffffffffffffffffff16148061143157506114026112e8565b73ffffffffffffffffffffffffffffffffffffffff163373ffffffffffffffffffffffffffffffffffffffff16145b611470576040517f08c379a00000000000000000000000000000000000000000000000000000000081526004016114679061302a565b60405180910390fd5b600654905090565b60008073ffffffffffffffffffffffffffffffffffffffff16600260009054906101000a900473ffffffffffffffffffffffffffffffffffffffff1673ffffffffffffffffffffffffffffffffffffffff160361150a576040517f08c379a000000000000000000000000000000000000000000000000000000000815260040161150190612e2e565b60405180910390fd5b600260009054906101000a900473ffffffffffffffffffffffffffffffffffffffff1673ffffffffffffffffffffffffffffffffffffffff163373ffffffffffffffffffffffffffffffffffffffff16148061159857506115696112e8565b73ffffffffffffffffffffffffffffffffffffffff163373ffffffffffffffffffffffffffffffffffffffff16145b6115d7576040517f08c379a00000000000000000000000000000000000000000000000000000000081526004016115ce9061302a565b60405180910390fd5b600454905090565b60006060600260009054906101000a900473ffffffffffffffffffffffffffffffffffffffff1673ffffffffffffffffffffffffffffffffffffffff163373ffffffffffffffffffffffffffffffffffffffff16148061167157506116426112e8565b73ffffffffffffffffffffffffffffffffffffffff163373ffffffffffffffffffffffffffffffffffffffff16145b6116b0576040517f08c379a00000000000000000000000000000000000000000000000000000000081526004016116a79061302a565b60405180910390fd5b7f000000000000000000000000000000000000000000000000000000000000000060018080546116df90612bfc565b80601f016020809104026020016040519081016040528092919081815260200182805461170b90612bfc565b80156117585780601f1061172d57610100808354040283529160200191611758565b820191906000526020600020905b81548152906001019060200180831161173b57829003601f168201915b50505050509050915091509091565b61176f6120f3565b600073ffffffffffffffffffffffffffffffffffffffff168173ffffffffffffffffffffffffffffffffffffffff16036117a857600080fd5b80600860006101000a81548173ffffffffffffffffffffffffffffffffffffffff021916908373ffffffffffffffffffffffffffffffffffffffff16021790555050565b60006117f66120f3565b8173ffffffffffffffffffffffffffffffffffffffff166370a08231306040518263ffffffff1660e01b815260040161182f9190612890565b602060405180830381865afa15801561184c573d6000803e3d6000fd5b505050506040513d601f19601f820116820180604052508101906118709190613225565b9050919050565b60007f0000000000000000000000000000000000000000000000000000000000000000905090565b60606118a96120f3565b6060600260149054906101000a900460ff166118fd576040518060400160405280600c81526020017f41676772656761746f7256330000000000000000000000000000000000000000815250905080611937565b6040518060400160405280600481526020017f506f6f6c000000000000000000000000000000000000000000000000000000008152509050805b508091505090565b6119476120f3565b600260149054906101000a900460ff1615611a0b57600260149054906101000a900460ff1680156119c75750600073ffffffffffffffffffffffffffffffffffffffff16600760009054906101000a900473ffffffffffffffffffffffffffffffffffffffff1673ffffffffffffffffffffffffffffffffffffffff1614155b611a06576040517f08c379a00000000000000000000000000000000000000000000000000000000081526004016119fd90613576565b60405180910390fd5b611ab6565b600260149054906101000a900460ff168015611a765750600073ffffffffffffffffffffffffffffffffffffffff16600860009054906101000a900473ffffffffffffffffffffffffffffffffffffffff1673ffffffffffffffffffffffffffffffffffffffff1614155b611ab5576040517f08c379a0000000000000000000000000000000000000000000000000000000008152600401611aac906135e2565b60405180910390fd5b5b600260149054906101000a900460ff1615600260146101000a81548160ff021916908315150217905550565b6000611aec61221c565b600073ffffffffffffffffffffffffffffffffffffffff16600260009054906101000a900473ffffffffffffffffffffffffffffffffffffffff1673ffffffffffffffffffffffffffffffffffffffff1603611b7d576040517f08c379a0000000000000000000000000000000000000000000000000000000008152600401611b7490612e2e565b60405180910390fd5b600260009054906101000a900473ffffffffffffffffffffffffffffffffffffffff1673ffffffffffffffffffffffffffffffffffffffff163373ffffffffffffffffffffffffffffffffffffffff1614611c0d576040517f08c379a0000000000000000000000000000000000000000000000000000000008152600401611c0490612e9a565b60405180910390fd5b60008211611c50576040517f08c379a0000000000000000000000000000000000000000000000000000000008152600401611c479061364e565b60405180910390fd5b60007f000000000000000000000000000000000000000000000000000000000000000073ffffffffffffffffffffffffffffffffffffffff1663dd62ed3e33306040518363ffffffff1660e01b8152600401611cad92919061366e565b602060405180830381865afa158015611cca573d6000803e3d6000fd5b505050506040513d601f19601f82011682018060405250810190611cee9190613225565b9050828110156001604051602001611d069190613709565b60405160208183030381529060405290611d56576040517f08c379a0000000000000000000000000000000000000000000000000000000008152600401611d4d9190612a9e565b60405180910390fd5b507f000000000000000000000000000000000000000000000000000000000000000073ffffffffffffffffffffffffffffffffffffffff166323b872dd3330866040518463ffffffff1660e01b8152600401611db49392919061374d565b6020604051808303816000875af1158015611dd3573d6000803e3d6000fd5b505050506040513d601f19601f82011682018060405250810190611df791906131e3565b50600080600080611e0661238d565b9350935093509350600084118015611e1e5750600083115b8015611e2a5750600081115b611e69576040517f08c379a0000000000000000000000000000000000000000000000000000000008152600401611e60906137d0565b60405180910390fd5b611e7287612672565b506000611e80888686612763565b90508060056000828254611e949190612dae565b925050819055508060046000828254611ead9190612dae565b9250508190555060004290508089837fb5aeb7b225999adc33232be2121afb1a366c15108c1da745d17fd76108172fe48989888a604051611ef194939291906137f0565b60405180910390a46001975050505050505050919050565b611f116120f3565b600073ffffffffffffffffffffffffffffffffffffffff168173ffffffffffffffffffffffffffffffffffffffff1603611f80576040517f08c379a0000000000000000000000000000000000000000000000000000000008152600401611f77906138ae565b60405180910390fd5b611f89816122c8565b50565b60008073ffffffffffffffffffffffffffffffffffffffff16600260009054906101000a900473ffffffffffffffffffffffffffffffffffffffff1673ffffffffffffffffffffffffffffffffffffffff160361201e576040517f08c379a000000000000000000000000000000000000000000000000000000000815260040161201590612e2e565b60405180910390fd5b600260009054906101000a900473ffffffffffffffffffffffffffffffffffffffff1673ffffffffffffffffffffffffffffffffffffffff163373ffffffffffffffffffffffffffffffffffffffff1614806120ac575061207d6112e8565b73ffffffffffffffffffffffffffffffffffffffff163373ffffffffffffffffffffffffffffffffffffffff16145b6120eb576040517f08c379a00000000000000000000000000000000000000000000000000000000081526004016120e29061302a565b60405180910390fd5b600554905090565b6120fb612791565b73ffffffffffffffffffffffffffffffffffffffff166121196112e8565b73ffffffffffffffffffffffffffffffffffffffff161461216f576040517f08c379a00000000000000000000000000000000000000000000000000000000081526004016121669061391a565b60405180910390fd5b565b612179610f53565b6121b8576040517f08c379a00000000000000000000000000000000000000000000000000000000081526004016121af90613986565b60405180910390fd5b565b6121c2612171565b60008060006101000a81548160ff0219169083151502179055507f5db9ee0a495bf2e6ff9c91a7834c1ba4fdd244a5e8aa4e537bd38aeae4b073aa612205612791565b6040516122129190612890565b60405180910390a1565b612224610f53565b15612264576040517f08c379a000000000000000000000000000000000000000000000000000000000815260040161225b906139f2565b60405180910390fd5b565b61226e61221c565b60016000806101000a81548160ff0219169083151502179055507f62e78cea01bee320cd4e420270b5ea74000d11b0c9f74754ebdbfc544b05a2586122b1612791565b6040516122be9190612890565b60405180910390a1565b60008060019054906101000a900473ffffffffffffffffffffffffffffffffffffffff16905081600060016101000a81548173ffffffffffffffffffffffffffffffffffffffff021916908373ffffffffffffffffffffffffffffffffffffffff1602179055508173ffffffffffffffffffffffffffffffffffffffff168173ffffffffffffffffffffffffffffffffffffffff167f8be0079c531659141344cd1fd0a4f28419497f9722a3daafe3b4186f6b6457e060405160405180910390a35050565b60008060606000600260149054906101000a900460ff161561245857600260149054906101000a900460ff1680156124145750600073ffffffffffffffffffffffffffffffffffffffff16600860009054906101000a900473ffffffffffffffffffffffffffffffffffffffff1673ffffffffffffffffffffffffffffffffffffffff1614155b612453576040517f08c379a000000000000000000000000000000000000000000000000000000000815260040161244a906135e2565b60405180910390fd5b612503565b600260149054906101000a900460ff1680156124c35750600073ffffffffffffffffffffffffffffffffffffffff16600760009054906101000a900473ffffffffffffffffffffffffffffffffffffffff1673ffffffffffffffffffffffffffffffffffffffff1614155b612502576040517f08c379a00000000000000000000000000000000000000000000000000000000081526004016124f990613576565b60405180910390fd5b5b600080600080600260149054906101000a900460ff16156125bb57600860009054906101000a900473ffffffffffffffffffffffffffffffffffffffff1673ffffffffffffffffffffffffffffffffffffffff1663454d12566040518163ffffffff1660e01b81526004016000604051808303816000875af115801561258d573d6000803e3d6000fd5b505050506040513d6000823e3d601f19601f820116820180604052508101906125b69190613b38565b612654565b600760009054906101000a900473ffffffffffffffffffffffffffffffffffffffff1673ffffffffffffffffffffffffffffffffffffffff1663e1e7ff776040518163ffffffff1660e01b81526004016000604051808303816000875af115801561262a573d6000803e3d6000fd5b505050506040513d6000823e3d601f19601f820116820180604052508101906126539190613b38565b5b93509350935093508383838397509750975097505050505090919293565b60008082116126b6576040517f08c379a00000000000000000000000000000000000000000000000000000000081526004016126ad90613c07565b60405180910390fd5b7f000000000000000000000000000000000000000000000000000000000000000073ffffffffffffffffffffffffffffffffffffffff166342966c68836040518263ffffffff1660e01b815260040161270f91906128e7565b600060405180830381600087803b15801561272957600080fd5b505af115801561273d573d6000803e3d6000fd5b5050505081600360008282546127539190612dae565b9250508190555060019050919050565b600081600a6127729190613417565b838561277e9190613462565b61278891906134d3565b90509392505050565b600033905090565b6000604051905090565b600080fd5b600080fd5b6000819050919050565b6127c0816127ad565b81146127cb57600080fd5b50565b6000813590506127dd816127b7565b92915050565b600073ffffffffffffffffffffffffffffffffffffffff82169050919050565b600061280e826127e3565b9050919050565b61281e81612803565b811461282957600080fd5b50565b60008135905061283b81612815565b92915050565b60008060408385031215612858576128576127a3565b5b6000612866858286016127ce565b92505060206128778582860161282c565b9150509250929050565b61288a81612803565b82525050565b60006020820190506128a56000830184612881565b92915050565b6000602082840312156128c1576128c06127a3565b5b60006128cf8482850161282c565b91505092915050565b6128e1816127ad565b82525050565b60006020820190506128fc60008301846128d8565b92915050565b60008115159050919050565b61291781612902565b82525050565b6000602082019050612932600083018461290e565b92915050565b600080600060608486031215612951576129506127a3565b5b600061295f8682870161282c565b93505060206129708682870161282c565b9250506040612981868287016127ce565b9150509250925092565b6000806000606084860312156129a4576129a36127a3565b5b60006129b2868287016127ce565b93505060206129c3868287016127ce565b92505060406129d4868287016127ce565b9150509250925092565b600081519050919050565b600082825260208201905092915050565b60005b83811015612a185780820151818401526020810190506129fd565b60008484015250505050565b6000601f19601f8301169050919050565b6000612a40826129de565b612a4a81856129e9565b9350612a5a8185602086016129fa565b612a6381612a24565b840191505092915050565b6000604082019050612a836000830185612881565b8181036020830152612a958184612a35565b90509392505050565b60006020820190508181036000830152612ab88184612a35565b905092915050565b600060208284031215612ad657612ad56127a3565b5b6000612ae4848285016127ce565b91505092915050565b7f4e487b7100000000000000000000000000000000000000000000000000000000600052601160045260246000fd5b6000612b27826127ad565b9150612b32836127ad565b9250828203905081811115612b4a57612b49612aed565b5b92915050565b600081905092915050565b7f4e6f7420656e6f75676820706f696e74732e2054686520636f6e74726163742060008201527f6d75737420626520636861726765642077697468206d6f726520000000000000602082015250565b6000612bb7603a83612b50565b9150612bc282612b5b565b603a82019050919050565b7f4e487b7100000000000000000000000000000000000000000000000000000000600052602260045260246000fd5b60006002820490506001821680612c1457607f821691505b602082108103612c2757612c26612bcd565b5b50919050565b60008190508160005260206000209050919050565b60008154612c4f81612bfc565b612c598186612b50565b94506001821660008114612c745760018114612c8957612cbc565b60ff1983168652811515820286019350612cbc565b612c9285612c2d565b60005b83811015612cb457815481890152600182019150602081019050612c95565b838801955050505b50505092915050565b7f2100000000000000000000000000000000000000000000000000000000000000815250565b6000612cf682612baa565b9150612d028284612c42565b9150612d0d82612cc5565b60018201915081905092915050565b7f57697468647261772076616c7565206d7573742062652067726561746572207460008201527f68616e2030210000000000000000000000000000000000000000000000000000602082015250565b6000612d786026836129e9565b9150612d8382612d1c565b604082019050919050565b60006020820190508181036000830152612da781612d6b565b9050919050565b6000612db9826127ad565b9150612dc4836127ad565b9250828201905080821115612ddc57612ddb612aed565b5b92915050565b7f4e6f742061637469766174656421000000000000000000000000000000000000600082015250565b6000612e18600e836129e9565b9150612e2382612de2565b602082019050919050565b60006020820190508181036000830152612e4781612e0b565b9050919050565b7f4e6f7420417574686f72697a6564210000000000000000000000000000000000600082015250565b6000612e84600f836129e9565b9150612e8f82612e4e565b602082019050919050565b60006020820190508181036000830152612eb381612e77565b9050919050565b7f43616e277420616374697661746520776974682074686973206164647265737360008201527f2100000000000000000000000000000000000000000000000000000000000000602082015250565b6000612f166021836129e9565b9150612f2182612eba565b604082019050919050565b60006020820190508181036000830152612f4581612f09565b9050919050565b7f416c7265616479206163746976617465642e0000000000000000000000000000600082015250565b6000612f826012836129e9565b9150612f8d82612f4c565b602082019050919050565b60006020820190508181036000830152612fb181612f75565b9050919050565b7f4f6e6c79204f776e6572206f7220417574686f72697a6564207061727469636960008201527f7061746f722063616e206163636573732074686973206f7065726174696f6e21602082015250565b60006130146040836129e9565b915061301f82612fb8565b604082019050919050565b6000602082019050818103600083015261304381613007565b9050919050565b7f4e6f7468696e6720746f2077697468647261772e000000000000000000000000600082015250565b60006130806014836129e9565b915061308b8261304a565b602082019050919050565b600060208201905081810360008301526130af81613073565b9050919050565b7f4e6f7420656e6f7567682062616c616e636520666f7220776974686472617721600082015250565b60006130ec6020836129e9565b91506130f7826130b6565b602082019050919050565b6000602082019050818103600083015261311b816130df565b9050919050565b7f4e6f7420656e6f7567682062616c616e63652100000000000000000000000000600082015250565b60006131586013836129e9565b915061316382613122565b602082019050919050565b600060208201905081810360008301526131878161314b565b9050919050565b60006040820190506131a36000830185612881565b6131b060208301846128d8565b9392505050565b6131c081612902565b81146131cb57600080fd5b50565b6000815190506131dd816131b7565b92915050565b6000602082840312156131f9576131f86127a3565b5b6000613207848285016131ce565b91505092915050565b60008151905061321f816127b7565b92915050565b60006020828403121561323b5761323a6127a3565b5b600061324984828501613210565b91505092915050565b7f526174652c20706f696e747320616e6420646563696d616c73206d757374206260008201527f652067726561746572207468616e207a65726f21000000000000000000000000602082015250565b60006132ae6034836129e9565b91506132b982613252565b604082019050919050565b600060208201905081810360008301526132dd816132a1565b9050919050565b60008160011c9050919050565b6000808291508390505b600185111561333b5780860481111561331757613316612aed565b5b60018516156133265780820291505b8081029050613334856132e4565b94506132fb565b94509492505050565b6000826133545760019050613410565b816133625760009050613410565b81600181146133785760028114613382576133b1565b6001915050613410565b60ff84111561339457613393612aed565b5b8360020a9150848211156133ab576133aa612aed565b5b50613410565b5060208310610133831016604e8410600b84101617156133e65782820a9050838111156133e1576133e0612aed565b5b613410565b6133f384848460016132f1565b9250905081840481111561340a57613409612aed565b5b81810290505b9392505050565b6000613422826127ad565b915061342d836127ad565b925061345a7fffffffffffffffffffffffffffffffffffffffffffffffffffffffffffffffff8484613344565b905092915050565b600061346d826127ad565b9150613478836127ad565b9250828202613486816127ad565b9150828204841483151761349d5761349c612aed565b5b5092915050565b7f4e487b7100000000000000000000000000000000000000000000000000000000600052601260045260246000fd5b60006134de826127ad565b91506134e9836127ad565b9250826134f9576134f86134a4565b5b828204905092915050565b7f41676772656761746f72436f6e73756d6572206973206e6f7420696e6974696160008201527f6c697a6564210000000000000000000000000000000000000000000000000000602082015250565b60006135606026836129e9565b915061356b82613504565b604082019050919050565b6000602082019050818103600083015261358f81613553565b9050919050565b7f506f6f6c436f6e73756d6572206973206e6f7420696e697469616c697a656421600082015250565b60006135cc6020836129e9565b91506135d782613596565b602082019050919050565b600060208201905081810360008301526135fb816135bf565b9050919050565b7f4e6f2063686172676520616d6f756e7421000000000000000000000000000000600082015250565b60006136386011836129e9565b915061364382613602565b602082019050919050565b600060208201905081810360008301526136678161362b565b9050919050565b60006040820190506136836000830185612881565b6136906020830184612881565b9392505050565b7f436865636b207468652000000000000000000000000000000000000000000000815250565b7f20746f6b656e2000000000000000000000000000000000000000000000000000815250565b7f616c6c6f77616e63652100000000000000000000000000000000000000000000815250565b600061371482613697565b600a820191506137248284612c42565b915061372f826136bd565b60078201915061373e826136e3565b600a8201915081905092915050565b60006060820190506137626000830186612881565b61376f6020830185612881565b61377c60408301846128d8565b949350505050565b7f72617465206572726f7221000000000000000000000000000000000000000000600082015250565b60006137ba600b836129e9565b91506137c582613784565b602082019050919050565b600060208201905081810360008301526137e9816137ad565b9050919050565b600060808201905061380560008301876128d8565b61381260208301866128d8565b61381f60408301856128d8565b81810360608301526138318184612a35565b905095945050505050565b7f4f776e61626c653a206e6577206f776e657220697320746865207a65726f206160008201527f6464726573730000000000000000000000000000000000000000000000000000602082015250565b60006138986026836129e9565b91506138a38261383c565b604082019050919050565b600060208201905081810360008301526138c78161388b565b9050919050565b7f4f776e61626c653a2063616c6c6572206973206e6f7420746865206f776e6572600082015250565b60006139046020836129e9565b915061390f826138ce565b602082019050919050565b60006020820190508181036000830152613933816138f7565b9050919050565b7f5061757361626c653a206e6f7420706175736564000000000000000000000000600082015250565b60006139706014836129e9565b915061397b8261393a565b602082019050919050565b6000602082019050818103600083015261399f81613963565b9050919050565b7f5061757361626c653a2070617573656400000000000000000000000000000000600082015250565b60006139dc6010836129e9565b91506139e7826139a6565b602082019050919050565b60006020820190508181036000830152613a0b816139cf565b9050919050565b600080fd5b600080fd5b7f4e487b7100000000000000000000000000000000000000000000000000000000600052604160045260246000fd5b613a5482612a24565b810181811067ffffffffffffffff82111715613a7357613a72613a1c565b5b80604052505050565b6000613a86612799565b9050613a928282613a4b565b919050565b600067ffffffffffffffff821115613ab257613ab1613a1c565b5b613abb82612a24565b9050602081019050919050565b6000613adb613ad684613a97565b613a7c565b905082815260208101848484011115613af757613af6613a17565b5b613b028482856129fa565b509392505050565b600082601f830112613b1f57613b1e613a12565b5b8151613b2f848260208601613ac8565b91505092915050565b60008060008060808587031215613b5257613b516127a3565b5b6000613b6087828801613210565b9450506020613b7187828801613210565b935050604085015167ffffffffffffffff811115613b9257613b916127a8565b5b613b9e87828801613b0a565b9250506060613baf87828801613210565b91505092959194509250565b7f4e6f20746f6b656e7320746f206265206275726e656421000000000000000000600082015250565b6000613bf16017836129e9565b9150613bfc82613bbb565b602082019050919050565b60006020820190508181036000830152613c2081613be4565b905091905056fea2646970667358221220416998fcf9c5e4f48c65b2c514e5acbd305594e42bd627c2c3baf41ac450ad1164736f6c63430008170033",
					"opcodes": "PUSH1 0xC0 PUSH1 0x40 MSTORE PUSH1 0x1 PUSH1 0x2 PUSH1 0x14 PUSH2 0x100 EXP DUP2 SLOAD DUP2 PUSH1 0xFF MUL NOT AND SWAP1 DUP4 ISZERO ISZERO MUL OR SWAP1 SSTORE POP PUSH1 0x0 PUSH1 0x3 SSTORE PUSH1 0x0 PUSH1 0x4 SSTORE PUSH1 0x0 PUSH1 0x5 SSTORE PUSH1 0x0 PUSH1 0x6 SSTORE CALLVALUE DUP1 ISZERO PUSH3 0x40 JUMPI PUSH1 0x0 DUP1 REVERT JUMPDEST POP PUSH1 0x40 MLOAD PUSH3 0x44D1 CODESIZE SUB DUP1 PUSH3 0x44D1 DUP4 CODECOPY DUP2 DUP2 ADD PUSH1 0x40 MSTORE DUP2 ADD SWAP1 PUSH3 0x66 SWAP2 SWAP1 PUSH3 0x2E2 JUMP JUMPDEST PUSH1 0x0 DUP1 PUSH1 0x0 PUSH2 0x100 EXP DUP2 SLOAD DUP2 PUSH1 0xFF MUL NOT AND SWAP1 DUP4 ISZERO ISZERO MUL OR SWAP1 SSTORE POP PUSH3 0xA0 PUSH3 0x94 PUSH3 0x19C PUSH1 0x20 SHL PUSH1 0x20 SHR JUMP JUMPDEST PUSH3 0x1A4 PUSH1 0x20 SHL PUSH1 0x20 SHR JUMP JUMPDEST DUP1 PUSH20 0xFFFFFFFFFFFFFFFFFFFFFFFFFFFFFFFFFFFFFFFF AND PUSH1 0x80 DUP2 PUSH20 0xFFFFFFFFFFFFFFFFFFFFFFFFFFFFFFFFFFFFFFFF AND DUP2 MSTORE POP POP DUP2 PUSH20 0xFFFFFFFFFFFFFFFFFFFFFFFFFFFFFFFFFFFFFFFF AND PUSH1 0xA0 DUP2 PUSH20 0xFFFFFFFFFFFFFFFFFFFFFFFFFFFFFFFFFFFFFFFF AND DUP2 MSTORE POP POP PUSH1 0xA0 MLOAD PUSH20 0xFFFFFFFFFFFFFFFFFFFFFFFFFFFFFFFFFFFFFFFF AND PUSH4 0x95D89B41 PUSH1 0x40 MLOAD DUP2 PUSH4 0xFFFFFFFF AND PUSH1 0xE0 SHL DUP2 MSTORE PUSH1 0x4 ADD PUSH1 0x0 PUSH1 0x40 MLOAD DUP1 DUP4 SUB DUP2 PUSH1 0x0 DUP8 GAS CALL ISZERO DUP1 ISZERO PUSH3 0x158 JUMPI RETURNDATASIZE PUSH1 0x0 DUP1 RETURNDATACOPY RETURNDATASIZE PUSH1 0x0 REVERT JUMPDEST POP POP POP POP PUSH1 0x40 MLOAD RETURNDATASIZE PUSH1 0x0 DUP3 RETURNDATACOPY RETURNDATASIZE PUSH1 0x1F NOT PUSH1 0x1F DUP3 ADD AND DUP3 ADD DUP1 PUSH1 0x40 MSTORE POP DUP2 ADD SWAP1 PUSH3 0x183 SWAP2 SWAP1 PUSH3 0x4A8 JUMP JUMPDEST PUSH1 0x1 SWAP1 DUP2 PUSH3 0x193 SWAP2 SWAP1 PUSH3 0x744 JUMP JUMPDEST POP POP POP PUSH3 0x82B JUMP JUMPDEST PUSH1 0x0 CALLER SWAP1 POP SWAP1 JUMP JUMPDEST PUSH1 0x0 DUP1 PUSH1 0x1 SWAP1 SLOAD SWAP1 PUSH2 0x100 EXP SWAP1 DIV PUSH20 0xFFFFFFFFFFFFFFFFFFFFFFFFFFFFFFFFFFFFFFFF AND SWAP1 POP DUP2 PUSH1 0x0 PUSH1 0x1 PUSH2 0x100 EXP DUP2 SLOAD DUP2 PUSH20 0xFFFFFFFFFFFFFFFFFFFFFFFFFFFFFFFFFFFFFFFF MUL NOT AND SWAP1 DUP4 PUSH20 0xFFFFFFFFFFFFFFFFFFFFFFFFFFFFFFFFFFFFFFFF AND MUL OR SWAP1 SSTORE POP DUP2 PUSH20 0xFFFFFFFFFFFFFFFFFFFFFFFFFFFFFFFFFFFFFFFF AND DUP2 PUSH20 0xFFFFFFFFFFFFFFFFFFFFFFFFFFFFFFFFFFFFFFFF AND PUSH32 0x8BE0079C531659141344CD1FD0A4F28419497F9722A3DAAFE3B4186F6B6457E0 PUSH1 0x40 MLOAD PUSH1 0x40 MLOAD DUP1 SWAP2 SUB SWAP1 LOG3 POP POP JUMP JUMPDEST PUSH1 0x0 PUSH1 0x40 MLOAD SWAP1 POP SWAP1 JUMP JUMPDEST PUSH1 0x0 DUP1 REVERT JUMPDEST PUSH1 0x0 DUP1 REVERT JUMPDEST PUSH1 0x0 PUSH20 0xFFFFFFFFFFFFFFFFFFFFFFFFFFFFFFFFFFFFFFFF DUP3 AND SWAP1 POP SWAP2 SWAP1 POP JUMP JUMPDEST PUSH1 0x0 PUSH3 0x2AA DUP3 PUSH3 0x27D JUMP JUMPDEST SWAP1 POP SWAP2 SWAP1 POP JUMP JUMPDEST PUSH3 0x2BC DUP2 PUSH3 0x29D JUMP JUMPDEST DUP2 EQ PUSH3 0x2C8 JUMPI PUSH1 0x0 DUP1 REVERT JUMPDEST POP JUMP JUMPDEST PUSH1 0x0 DUP2 MLOAD SWAP1 POP PUSH3 0x2DC DUP2 PUSH3 0x2B1 JUMP JUMPDEST SWAP3 SWAP2 POP POP JUMP JUMPDEST PUSH1 0x0 DUP1 PUSH1 0x40 DUP4 DUP6 SUB SLT ISZERO PUSH3 0x2FC JUMPI PUSH3 0x2FB PUSH3 0x273 JUMP JUMPDEST JUMPDEST PUSH1 0x0 PUSH3 0x30C DUP6 DUP3 DUP7 ADD PUSH3 0x2CB JUMP JUMPDEST SWAP3 POP POP PUSH1 0x20 PUSH3 0x31F DUP6 DUP3 DUP7 ADD PUSH3 0x2CB JUMP JUMPDEST SWAP2 POP POP SWAP3 POP SWAP3 SWAP1 POP JUMP JUMPDEST PUSH1 0x0 DUP1 REVERT JUMPDEST PUSH1 0x0 DUP1 REVERT JUMPDEST PUSH1 0x0 PUSH1 0x1F NOT PUSH1 0x1F DUP4 ADD AND SWAP1 POP SWAP2 SWAP1 POP JUMP JUMPDEST PUSH32 0x4E487B7100000000000000000000000000000000000000000000000000000000 PUSH1 0x0 MSTORE PUSH1 0x41 PUSH1 0x4 MSTORE PUSH1 0x24 PUSH1 0x0 REVERT JUMPDEST PUSH3 0x37E DUP3 PUSH3 0x333 JUMP JUMPDEST DUP2 ADD DUP2 DUP2 LT PUSH8 0xFFFFFFFFFFFFFFFF DUP3 GT OR ISZERO PUSH3 0x3A0 JUMPI PUSH3 0x39F PUSH3 0x344 JUMP JUMPDEST JUMPDEST DUP1 PUSH1 0x40 MSTORE POP POP POP JUMP JUMPDEST PUSH1 0x0 PUSH3 0x3B5 PUSH3 0x269 JUMP JUMPDEST SWAP1 POP PUSH3 0x3C3 DUP3 DUP3 PUSH3 0x373 JUMP JUMPDEST SWAP2 SWAP1 POP JUMP JUMPDEST PUSH1 0x0 PUSH8 0xFFFFFFFFFFFFFFFF DUP3 GT ISZERO PUSH3 0x3E6 JUMPI PUSH3 0x3E5 PUSH3 0x344 JUMP JUMPDEST JUMPDEST PUSH3 0x3F1 DUP3 PUSH3 0x333 JUMP JUMPDEST SWAP1 POP PUSH1 0x20 DUP2 ADD SWAP1 POP SWAP2 SWAP1 POP JUMP JUMPDEST PUSH1 0x0 JUMPDEST DUP4 DUP2 LT ISZERO PUSH3 0x41E JUMPI DUP1 DUP3 ADD MLOAD DUP2 DUP5 ADD MSTORE PUSH1 0x20 DUP2 ADD SWAP1 POP PUSH3 0x401 JUMP JUMPDEST PUSH1 0x0 DUP5 DUP5 ADD MSTORE POP POP POP POP JUMP JUMPDEST PUSH1 0x0 PUSH3 0x441 PUSH3 0x43B DUP5 PUSH3 0x3C8 JUMP JUMPDEST PUSH3 0x3A9 JUMP JUMPDEST SWAP1 POP DUP3 DUP2 MSTORE PUSH1 0x20 DUP2 ADD DUP5 DUP5 DUP5 ADD GT ISZERO PUSH3 0x460 JUMPI PUSH3 0x45F PUSH3 0x32E JUMP JUMPDEST JUMPDEST PUSH3 0x46D DUP5 DUP3 DUP6 PUSH3 0x3FE JUMP JUMPDEST POP SWAP4 SWAP3 POP POP POP JUMP JUMPDEST PUSH1 0x0 DUP3 PUSH1 0x1F DUP4 ADD SLT PUSH3 0x48D JUMPI PUSH3 0x48C PUSH3 0x329 JUMP JUMPDEST JUMPDEST DUP2 MLOAD PUSH3 0x49F DUP5 DUP3 PUSH1 0x20 DUP7 ADD PUSH3 0x42A JUMP JUMPDEST SWAP2 POP POP SWAP3 SWAP2 POP POP JUMP JUMPDEST PUSH1 0x0 PUSH1 0x20 DUP3 DUP5 SUB SLT ISZERO PUSH3 0x4C1 JUMPI PUSH3 0x4C0 PUSH3 0x273 JUMP JUMPDEST JUMPDEST PUSH1 0x0 DUP3 ADD MLOAD PUSH8 0xFFFFFFFFFFFFFFFF DUP2 GT ISZERO PUSH3 0x4E2 JUMPI PUSH3 0x4E1 PUSH3 0x278 JUMP JUMPDEST JUMPDEST PUSH3 0x4F0 DUP5 DUP3 DUP6 ADD PUSH3 0x475 JUMP JUMPDEST SWAP2 POP POP SWAP3 SWAP2 POP POP JUMP JUMPDEST PUSH1 0x0 DUP2 MLOAD SWAP1 POP SWAP2 SWAP1 POP JUMP JUMPDEST PUSH32 0x4E487B7100000000000000000000000000000000000000000000000000000000 PUSH1 0x0 MSTORE PUSH1 0x22 PUSH1 0x4 MSTORE PUSH1 0x24 PUSH1 0x0 REVERT JUMPDEST PUSH1 0x0 PUSH1 0x2 DUP3 DIV SWAP1 POP PUSH1 0x1 DUP3 AND DUP1 PUSH3 0x54C JUMPI PUSH1 0x7F DUP3 AND SWAP2 POP JUMPDEST PUSH1 0x20 DUP3 LT DUP2 SUB PUSH3 0x562 JUMPI PUSH3 0x561 PUSH3 0x504 JUMP JUMPDEST JUMPDEST POP SWAP2 SWAP1 POP JUMP JUMPDEST PUSH1 0x0 DUP2 SWAP1 POP DUP2 PUSH1 0x0 MSTORE PUSH1 0x20 PUSH1 0x0 KECCAK256 SWAP1 POP SWAP2 SWAP1 POP JUMP JUMPDEST PUSH1 0x0 PUSH1 0x20 PUSH1 0x1F DUP4 ADD DIV SWAP1 POP SWAP2 SWAP1 POP JUMP JUMPDEST PUSH1 0x0 DUP3 DUP3 SHL SWAP1 POP SWAP3 SWAP2 POP POP JUMP JUMPDEST PUSH1 0x0 PUSH1 0x8 DUP4 MUL PUSH3 0x5CC PUSH32 0xFFFFFFFFFFFFFFFFFFFFFFFFFFFFFFFFFFFFFFFFFFFFFFFFFFFFFFFFFFFFFFFF DUP3 PUSH3 0x58D JUMP JUMPDEST PUSH3 0x5D8 DUP7 DUP4 PUSH3 0x58D JUMP JUMPDEST SWAP6 POP DUP1 NOT DUP5 AND SWAP4 POP DUP1 DUP7 AND DUP5 OR SWAP3 POP POP POP SWAP4 SWAP3 POP POP POP JUMP JUMPDEST PUSH1 0x0 DUP2 SWAP1 POP SWAP2 SWAP1 POP JUMP JUMPDEST PUSH1 0x0 DUP2 SWAP1 POP SWAP2 SWAP1 POP JUMP JUMPDEST PUSH1 0x0 PUSH3 0x625 PUSH3 0x61F PUSH3 0x619 DUP5 PUSH3 0x5F0 JUMP JUMPDEST PUSH3 0x5FA JUMP JUMPDEST PUSH3 0x5F0 JUMP JUMPDEST SWAP1 POP SWAP2 SWAP1 POP JUMP JUMPDEST PUSH1 0x0 DUP2 SWAP1 POP SWAP2 SWAP1 POP JUMP JUMPDEST PUSH3 0x641 DUP4 PUSH3 0x604 JUMP JUMPDEST PUSH3 0x659 PUSH3 0x650 DUP3 PUSH3 0x62C JUMP JUMPDEST DUP5 DUP5 SLOAD PUSH3 0x59A JUMP JUMPDEST DUP3 SSTORE POP POP POP POP JUMP JUMPDEST PUSH1 0x0 SWAP1 JUMP JUMPDEST PUSH3 0x670 PUSH3 0x661 JUMP JUMPDEST PUSH3 0x67D DUP2 DUP5 DUP5 PUSH3 0x636 JUMP JUMPDEST POP POP POP JUMP JUMPDEST JUMPDEST DUP2 DUP2 LT ISZERO PUSH3 0x6A5 JUMPI PUSH3 0x699 PUSH1 0x0 DUP3 PUSH3 0x666 JUMP JUMPDEST PUSH1 0x1 DUP2 ADD SWAP1 POP PUSH3 0x683 JUMP JUMPDEST POP POP JUMP JUMPDEST PUSH1 0x1F DUP3 GT ISZERO PUSH3 0x6F4 JUMPI PUSH3 0x6BE DUP2 PUSH3 0x568 JUMP JUMPDEST PUSH3 0x6C9 DUP5 PUSH3 0x57D JUMP JUMPDEST DUP2 ADD PUSH1 0x20 DUP6 LT ISZERO PUSH3 0x6D9 JUMPI DUP2 SWAP1 POP JUMPDEST PUSH3 0x6F1 PUSH3 0x6E8 DUP6 PUSH3 0x57D JUMP JUMPDEST DUP4 ADD DUP3 PUSH3 0x682 JUMP JUMPDEST POP POP JUMPDEST POP POP POP JUMP JUMPDEST PUSH1 0x0 DUP3 DUP3 SHR SWAP1 POP SWAP3 SWAP2 POP POP JUMP JUMPDEST PUSH1 0x0 PUSH3 0x719 PUSH1 0x0 NOT DUP5 PUSH1 0x8 MUL PUSH3 0x6F9 JUMP JUMPDEST NOT DUP1 DUP4 AND SWAP2 POP POP SWAP3 SWAP2 POP POP JUMP JUMPDEST PUSH1 0x0 PUSH3 0x734 DUP4 DUP4 PUSH3 0x706 JUMP JUMPDEST SWAP2 POP DUP3 PUSH1 0x2 MUL DUP3 OR SWAP1 POP SWAP3 SWAP2 POP POP JUMP JUMPDEST PUSH3 0x74F DUP3 PUSH3 0x4F9 JUMP JUMPDEST PUSH8 0xFFFFFFFFFFFFFFFF DUP2 GT ISZERO PUSH3 0x76B JUMPI PUSH3 0x76A PUSH3 0x344 JUMP JUMPDEST JUMPDEST PUSH3 0x777 DUP3 SLOAD PUSH3 0x533 JUMP JUMPDEST PUSH3 0x784 DUP3 DUP3 DUP6 PUSH3 0x6A9 JUMP JUMPDEST PUSH1 0x0 PUSH1 0x20 SWAP1 POP PUSH1 0x1F DUP4 GT PUSH1 0x1 DUP2 EQ PUSH3 0x7BC JUMPI PUSH1 0x0 DUP5 ISZERO PUSH3 0x7A7 JUMPI DUP3 DUP8 ADD MLOAD SWAP1 POP JUMPDEST PUSH3 0x7B3 DUP6 DUP3 PUSH3 0x726 JUMP JUMPDEST DUP7 SSTORE POP PUSH3 0x823 JUMP JUMPDEST PUSH1 0x1F NOT DUP5 AND PUSH3 0x7CC DUP7 PUSH3 0x568 JUMP JUMPDEST PUSH1 0x0 JUMPDEST DUP3 DUP2 LT ISZERO PUSH3 0x7F6 JUMPI DUP5 DUP10 ADD MLOAD DUP3 SSTORE PUSH1 0x1 DUP3 ADD SWAP2 POP PUSH1 0x20 DUP6 ADD SWAP5 POP PUSH1 0x20 DUP2 ADD SWAP1 POP PUSH3 0x7CF JUMP JUMPDEST DUP7 DUP4 LT ISZERO PUSH3 0x816 JUMPI DUP5 DUP10 ADD MLOAD PUSH3 0x812 PUSH1 0x1F DUP10 AND DUP3 PUSH3 0x706 JUMP JUMPDEST DUP4 SSTORE POP JUMPDEST PUSH1 0x1 PUSH1 0x2 DUP9 MUL ADD DUP9 SSTORE POP POP POP JUMPDEST POP POP POP POP POP POP JUMP JUMPDEST PUSH1 0x80 MLOAD PUSH1 0xA0 MLOAD PUSH2 0x3C5D PUSH3 0x874 PUSH1 0x0 CODECOPY PUSH1 0x0 DUP2 DUP2 PUSH2 0x1065 ADD MSTORE DUP2 DUP2 PUSH2 0x16B2 ADD MSTORE DUP2 DUP2 PUSH2 0x1C54 ADD MSTORE DUP2 DUP2 PUSH2 0x1D59 ADD MSTORE PUSH2 0x26B8 ADD MSTORE PUSH1 0x0 DUP2 DUP2 PUSH2 0x97A ADD MSTORE PUSH2 0x187B ADD MSTORE PUSH2 0x3C5D PUSH1 0x0 RETURN INVALID PUSH1 0x80 PUSH1 0x40 MSTORE CALLVALUE DUP1 ISZERO PUSH2 0x10 JUMPI PUSH1 0x0 DUP1 REVERT JUMPDEST POP PUSH1 0x4 CALLDATASIZE LT PUSH2 0x1A8 JUMPI PUSH1 0x0 CALLDATALOAD PUSH1 0xE0 SHR DUP1 PUSH4 0x722713F7 GT PUSH2 0xF9 JUMPI DUP1 PUSH4 0xB99152D0 GT PUSH2 0x97 JUMPI DUP1 PUSH4 0xE8088766 GT PUSH2 0x71 JUMPI DUP1 PUSH4 0xE8088766 EQ PUSH2 0x416 JUMPI DUP1 PUSH4 0xED969C84 EQ PUSH2 0x420 JUMPI DUP1 PUSH4 0xF2FDE38B EQ PUSH2 0x450 JUMPI DUP1 PUSH4 0xF9850907 EQ PUSH2 0x46C JUMPI PUSH2 0x1A8 JUMP JUMPDEST DUP1 PUSH4 0xB99152D0 EQ PUSH2 0x3AA JUMPI DUP1 PUSH4 0xBA007E75 EQ PUSH2 0x3DA JUMPI DUP1 PUSH4 0xE6367EBE EQ PUSH2 0x3F8 JUMPI PUSH2 0x1A8 JUMP JUMPDEST DUP1 PUSH4 0xA24723E8 GT PUSH2 0xD3 JUMPI DUP1 PUSH4 0xA24723E8 EQ PUSH2 0x333 JUMPI DUP1 PUSH4 0xA684AB5C EQ PUSH2 0x351 JUMPI DUP1 PUSH4 0xABB1DC44 EQ PUSH2 0x36F JUMPI DUP1 PUSH4 0xB0B5E39E EQ PUSH2 0x38E JUMPI PUSH2 0x1A8 JUMP JUMPDEST DUP1 PUSH4 0x722713F7 EQ PUSH2 0x2C7 JUMPI DUP1 PUSH4 0x7754723E EQ PUSH2 0x2E5 JUMPI DUP1 PUSH4 0x8DA5CB5B EQ PUSH2 0x315 JUMPI PUSH2 0x1A8 JUMP JUMPDEST DUP1 PUSH4 0xF15F4C0 GT PUSH2 0x166 JUMPI DUP1 PUSH4 0x51B42B00 GT PUSH2 0x140 JUMPI DUP1 PUSH4 0x51B42B00 EQ PUSH2 0x265 JUMPI DUP1 PUSH4 0x5C975ABB EQ PUSH2 0x26F JUMPI DUP1 PUSH4 0x6A9D43DD EQ PUSH2 0x28D JUMPI DUP1 PUSH4 0x715018A6 EQ PUSH2 0x2BD JUMPI PUSH2 0x1A8 JUMP JUMPDEST DUP1 PUSH4 0xF15F4C0 EQ PUSH2 0x233 JUMPI DUP1 PUSH4 0x2AF0E251 EQ PUSH2 0x23D JUMPI DUP1 PUSH4 0x390885F7 EQ PUSH2 0x25B JUMPI PUSH2 0x1A8 JUMP JUMPDEST DUP1 PUSH3 0xF714CE EQ PUSH2 0x1AD JUMPI DUP1 PUSH4 0x46F7DA2 EQ PUSH2 0x1C9 JUMPI DUP1 PUSH4 0x7DA68F5 EQ PUSH2 0x1D3 JUMPI DUP1 PUSH4 0x8FADCB0 EQ PUSH2 0x1DD JUMPI DUP1 PUSH4 0xA6CB062 EQ PUSH2 0x1FB JUMPI DUP1 PUSH4 0xBA2F1D8 EQ PUSH2 0x217 JUMPI JUMPDEST PUSH1 0x0 DUP1 REVERT JUMPDEST PUSH2 0x1C7 PUSH1 0x4 DUP1 CALLDATASIZE SUB DUP2 ADD SWAP1 PUSH2 0x1C2 SWAP2 SWAP1 PUSH2 0x2841 JUMP JUMPDEST PUSH2 0x48A JUMP JUMPDEST STOP JUMPDEST PUSH2 0x1D1 PUSH2 0x5B7 JUMP JUMPDEST STOP JUMPDEST PUSH2 0x1DB PUSH2 0x5D1 JUMP JUMPDEST STOP JUMPDEST PUSH2 0x1E5 PUSH2 0x5EB JUMP JUMPDEST PUSH1 0x40 MLOAD PUSH2 0x1F2 SWAP2 SWAP1 PUSH2 0x2890 JUMP JUMPDEST PUSH1 0x40 MLOAD DUP1 SWAP2 SUB SWAP1 RETURN JUMPDEST PUSH2 0x215 PUSH1 0x4 DUP1 CALLDATASIZE SUB DUP2 ADD SWAP1 PUSH2 0x210 SWAP2 SWAP1 PUSH2 0x28AB JUMP JUMPDEST PUSH2 0x6A5 JUMP JUMPDEST STOP JUMPDEST PUSH2 0x231 PUSH1 0x4 DUP1 CALLDATASIZE SUB DUP2 ADD SWAP1 PUSH2 0x22C SWAP2 SWAP1 PUSH2 0x28AB JUMP JUMPDEST PUSH2 0x72A JUMP JUMPDEST STOP JUMPDEST PUSH2 0x23B PUSH2 0x959 JUMP JUMPDEST STOP JUMPDEST PUSH2 0x245 PUSH2 0xB33 JUMP JUMPDEST PUSH1 0x40 MLOAD PUSH2 0x252 SWAP2 SWAP1 PUSH2 0x28E7 JUMP JUMPDEST PUSH1 0x40 MLOAD DUP1 SWAP2 SUB SWAP1 RETURN JUMPDEST PUSH2 0x263 PUSH2 0xC9A JUMP JUMPDEST STOP JUMPDEST PUSH2 0x26D PUSH2 0xD98 JUMP JUMPDEST STOP JUMPDEST PUSH2 0x277 PUSH2 0xF53 JUMP JUMPDEST PUSH1 0x40 MLOAD PUSH2 0x284 SWAP2 SWAP1 PUSH2 0x291D JUMP JUMPDEST PUSH1 0x40 MLOAD DUP1 SWAP2 SUB SWAP1 RETURN JUMPDEST PUSH2 0x2A7 PUSH1 0x4 DUP1 CALLDATASIZE SUB DUP2 ADD SWAP1 PUSH2 0x2A2 SWAP2 SWAP1 PUSH2 0x2938 JUMP JUMPDEST PUSH2 0xF69 JUMP JUMPDEST PUSH1 0x40 MLOAD PUSH2 0x2B4 SWAP2 SWAP1 PUSH2 0x291D JUMP JUMPDEST PUSH1 0x40 MLOAD DUP1 SWAP2 SUB SWAP1 RETURN JUMPDEST PUSH2 0x2C5 PUSH2 0x1045 JUMP JUMPDEST STOP JUMPDEST PUSH2 0x2CF PUSH2 0x1059 JUMP JUMPDEST PUSH1 0x40 MLOAD PUSH2 0x2DC SWAP2 SWAP1 PUSH2 0x28E7 JUMP JUMPDEST PUSH1 0x40 MLOAD DUP1 SWAP2 SUB SWAP1 RETURN JUMPDEST PUSH2 0x2FF PUSH1 0x4 DUP1 CALLDATASIZE SUB DUP2 ADD SWAP1 PUSH2 0x2FA SWAP2 SWAP1 PUSH2 0x298B JUMP JUMPDEST PUSH2 0x1102 JUMP JUMPDEST PUSH1 0x40 MLOAD PUSH2 0x30C SWAP2 SWAP1 PUSH2 0x28E7 JUMP JUMPDEST PUSH1 0x40 MLOAD DUP1 SWAP2 SUB SWAP1 RETURN JUMPDEST PUSH2 0x31D PUSH2 0x12E8 JUMP JUMPDEST PUSH1 0x40 MLOAD PUSH2 0x32A SWAP2 SWAP1 PUSH2 0x2890 JUMP JUMPDEST PUSH1 0x40 MLOAD DUP1 SWAP2 SUB SWAP1 RETURN JUMPDEST PUSH2 0x33B PUSH2 0x1311 JUMP JUMPDEST PUSH1 0x40 MLOAD PUSH2 0x348 SWAP2 SWAP1 PUSH2 0x28E7 JUMP JUMPDEST PUSH1 0x40 MLOAD DUP1 SWAP2 SUB SWAP1 RETURN JUMPDEST PUSH2 0x359 PUSH2 0x1478 JUMP JUMPDEST PUSH1 0x40 MLOAD PUSH2 0x366 SWAP2 SWAP1 PUSH2 0x28E7 JUMP JUMPDEST PUSH1 0x40 MLOAD DUP1 SWAP2 SUB SWAP1 RETURN JUMPDEST PUSH2 0x377 PUSH2 0x15DF JUMP JUMPDEST PUSH1 0x40 MLOAD PUSH2 0x385 SWAP3 SWAP2 SWAP1 PUSH2 0x2A6E JUMP JUMPDEST PUSH1 0x40 MLOAD DUP1 SWAP2 SUB SWAP1 RETURN JUMPDEST PUSH2 0x3A8 PUSH1 0x4 DUP1 CALLDATASIZE SUB DUP2 ADD SWAP1 PUSH2 0x3A3 SWAP2 SWAP1 PUSH2 0x28AB JUMP JUMPDEST PUSH2 0x1767 JUMP JUMPDEST STOP JUMPDEST PUSH2 0x3C4 PUSH1 0x4 DUP1 CALLDATASIZE SUB DUP2 ADD SWAP1 PUSH2 0x3BF SWAP2 SWAP1 PUSH2 0x28AB JUMP JUMPDEST PUSH2 0x17EC JUMP JUMPDEST PUSH1 0x40 MLOAD PUSH2 0x3D1 SWAP2 SWAP1 PUSH2 0x28E7 JUMP JUMPDEST PUSH1 0x40 MLOAD DUP1 SWAP2 SUB SWAP1 RETURN JUMPDEST PUSH2 0x3E2 PUSH2 0x1877 JUMP JUMPDEST PUSH1 0x40 MLOAD PUSH2 0x3EF SWAP2 SWAP1 PUSH2 0x2890 JUMP JUMPDEST PUSH1 0x40 MLOAD DUP1 SWAP2 SUB SWAP1 RETURN JUMPDEST PUSH2 0x400 PUSH2 0x189F JUMP JUMPDEST PUSH1 0x40 MLOAD PUSH2 0x40D SWAP2 SWAP1 PUSH2 0x2A9E JUMP JUMPDEST PUSH1 0x40 MLOAD DUP1 SWAP2 SUB SWAP1 RETURN JUMPDEST PUSH2 0x41E PUSH2 0x193F JUMP JUMPDEST STOP JUMPDEST PUSH2 0x43A PUSH1 0x4 DUP1 CALLDATASIZE SUB DUP2 ADD SWAP1 PUSH2 0x435 SWAP2 SWAP1 PUSH2 0x2AC0 JUMP JUMPDEST PUSH2 0x1AE2 JUMP JUMPDEST PUSH1 0x40 MLOAD PUSH2 0x447 SWAP2 SWAP1 PUSH2 0x291D JUMP JUMPDEST PUSH1 0x40 MLOAD DUP1 SWAP2 SUB SWAP1 RETURN JUMPDEST PUSH2 0x46A PUSH1 0x4 DUP1 CALLDATASIZE SUB DUP2 ADD SWAP1 PUSH2 0x465 SWAP2 SWAP1 PUSH2 0x28AB JUMP JUMPDEST PUSH2 0x1F09 JUMP JUMPDEST STOP JUMPDEST PUSH2 0x474 PUSH2 0x1F8C JUMP JUMPDEST PUSH1 0x40 MLOAD PUSH2 0x481 SWAP2 SWAP1 PUSH2 0x28E7 JUMP JUMPDEST PUSH1 0x40 MLOAD DUP1 SWAP2 SUB SWAP1 RETURN JUMPDEST PUSH2 0x492 PUSH2 0x20F3 JUMP JUMPDEST PUSH1 0x6 SLOAD PUSH1 0x5 SLOAD PUSH2 0x4A2 SWAP2 SWAP1 PUSH2 0x2B1C JUMP JUMPDEST DUP3 GT ISZERO PUSH1 0x1 PUSH1 0x40 MLOAD PUSH1 0x20 ADD PUSH2 0x4B7 SWAP2 SWAP1 PUSH2 0x2CEB JUMP JUMPDEST PUSH1 0x40 MLOAD PUSH1 0x20 DUP2 DUP4 SUB SUB DUP2 MSTORE SWAP1 PUSH1 0x40 MSTORE SWAP1 PUSH2 0x507 JUMPI PUSH1 0x40 MLOAD PUSH32 0x8C379A000000000000000000000000000000000000000000000000000000000 DUP2 MSTORE PUSH1 0x4 ADD PUSH2 0x4FE SWAP2 SWAP1 PUSH2 0x2A9E JUMP JUMPDEST PUSH1 0x40 MLOAD DUP1 SWAP2 SUB SWAP1 REVERT JUMPDEST POP PUSH1 0x0 DUP3 GT PUSH2 0x54B JUMPI PUSH1 0x40 MLOAD PUSH32 0x8C379A000000000000000000000000000000000000000000000000000000000 DUP2 MSTORE PUSH1 0x4 ADD PUSH2 0x542 SWAP1 PUSH2 0x2D8E JUMP JUMPDEST PUSH1 0x40 MLOAD DUP1 SWAP2 SUB SWAP1 REVERT JUMPDEST DUP2 PUSH1 0x6 PUSH1 0x0 DUP3 DUP3 SLOAD PUSH2 0x55D SWAP2 SWAP1 PUSH2 0x2DAE JUMP JUMPDEST SWAP3 POP POP DUP2 SWAP1 SSTORE POP DUP1 PUSH20 0xFFFFFFFFFFFFFFFFFFFFFFFFFFFFFFFFFFFFFFFF AND TIMESTAMP PUSH32 0x71EF96C43343734B1D843BB85D52EF329F5E9143E4D35827771E3B0DD90C5F84 DUP5 PUSH1 0x40 MLOAD PUSH2 0x5AB SWAP2 SWAP1 PUSH2 0x28E7 JUMP JUMPDEST PUSH1 0x40 MLOAD DUP1 SWAP2 SUB SWAP1 LOG3 POP POP JUMP JUMPDEST PUSH2 0x5BF PUSH2 0x2171 JUMP JUMPDEST PUSH2 0x5C7 PUSH2 0x20F3 JUMP JUMPDEST PUSH2 0x5CF PUSH2 0x21BA JUMP JUMPDEST JUMP JUMPDEST PUSH2 0x5D9 PUSH2 0x221C JUMP JUMPDEST PUSH2 0x5E1 PUSH2 0x20F3 JUMP JUMPDEST PUSH2 0x5E9 PUSH2 0x2266 JUMP JUMPDEST JUMP JUMPDEST PUSH1 0x0 DUP1 PUSH20 0xFFFFFFFFFFFFFFFFFFFFFFFFFFFFFFFFFFFFFFFF AND PUSH1 0x2 PUSH1 0x0 SWAP1 SLOAD SWAP1 PUSH2 0x100 EXP SWAP1 DIV PUSH20 0xFFFFFFFFFFFFFFFFFFFFFFFFFFFFFFFFFFFFFFFF AND PUSH20 0xFFFFFFFFFFFFFFFFFFFFFFFFFFFFFFFFFFFFFFFF AND SUB PUSH2 0x67D JUMPI PUSH1 0x40 MLOAD PUSH32 0x8C379A000000000000000000000000000000000000000000000000000000000 DUP2 MSTORE PUSH1 0x4 ADD PUSH2 0x674 SWAP1 PUSH2 0x2E2E JUMP JUMPDEST PUSH1 0x40 MLOAD DUP1 SWAP2 SUB SWAP1 REVERT JUMPDEST PUSH1 0x2 PUSH1 0x0 SWAP1 SLOAD SWAP1 PUSH2 0x100 EXP SWAP1 DIV PUSH20 0xFFFFFFFFFFFFFFFFFFFFFFFFFFFFFFFFFFFFFFFF AND SWAP1 POP SWAP1 JUMP JUMPDEST PUSH2 0x6AD PUSH2 0x20F3 JUMP JUMPDEST PUSH1 0x0 PUSH20 0xFFFFFFFFFFFFFFFFFFFFFFFFFFFFFFFFFFFFFFFF AND DUP2 PUSH20 0xFFFFFFFFFFFFFFFFFFFFFFFFFFFFFFFFFFFFFFFF AND SUB PUSH2 0x6E6 JUMPI PUSH1 0x0 DUP1 REVERT JUMPDEST DUP1 PUSH1 0x7 PUSH1 0x0 PUSH2 0x100 EXP DUP2 SLOAD DUP2 PUSH20 0xFFFFFFFFFFFFFFFFFFFFFFFFFFFFFFFFFFFFFFFF MUL NOT AND SWAP1 DUP4 PUSH20 0xFFFFFFFFFFFFFFFFFFFFFFFFFFFFFFFFFFFFFFFF AND MUL OR SWAP1 SSTORE POP POP JUMP JUMPDEST PUSH1 0x0 PUSH20 0xFFFFFFFFFFFFFFFFFFFFFFFFFFFFFFFFFFFFFFFF AND PUSH1 0x2 PUSH1 0x0 SWAP1 SLOAD SWAP1 PUSH2 0x100 EXP SWAP1 DIV PUSH20 0xFFFFFFFFFFFFFFFFFFFFFFFFFFFFFFFFFFFFFFFF AND PUSH20 0xFFFFFFFFFFFFFFFFFFFFFFFFFFFFFFFFFFFFFFFF AND SUB PUSH2 0x7BB JUMPI PUSH1 0x40 MLOAD PUSH32 0x8C379A000000000000000000000000000000000000000000000000000000000 DUP2 MSTORE PUSH1 0x4 ADD PUSH2 0x7B2 SWAP1 PUSH2 0x2E2E JUMP JUMPDEST PUSH1 0x40 MLOAD DUP1 SWAP2 SUB SWAP1 REVERT JUMPDEST PUSH1 0x2 PUSH1 0x0 SWAP1 SLOAD SWAP1 PUSH2 0x100 EXP SWAP1 DIV PUSH20 0xFFFFFFFFFFFFFFFFFFFFFFFFFFFFFFFFFFFFFFFF AND PUSH20 0xFFFFFFFFFFFFFFFFFFFFFFFFFFFFFFFFFFFFFFFF AND CALLER PUSH20 0xFFFFFFFFFFFFFFFFFFFFFFFFFFFFFFFFFFFFFFFF AND EQ PUSH2 0x84B JUMPI PUSH1 0x40 MLOAD PUSH32 0x8C379A000000000000000000000000000000000000000000000000000000000 DUP2 MSTORE PUSH1 0x4 ADD PUSH2 0x842 SWAP1 PUSH2 0x2E9A JUMP JUMPDEST PUSH1 0x40 MLOAD DUP1 SWAP2 SUB SWAP1 REVERT JUMPDEST PUSH1 0x0 PUSH20 0xFFFFFFFFFFFFFFFFFFFFFFFFFFFFFFFFFFFFFFFF AND PUSH1 0x2 PUSH1 0x0 SWAP1 SLOAD SWAP1 PUSH2 0x100 EXP SWAP1 DIV PUSH20 0xFFFFFFFFFFFFFFFFFFFFFFFFFFFFFFFFFFFFFFFF AND PUSH20 0xFFFFFFFFFFFFFFFFFFFFFFFFFFFFFFFFFFFFFFFF AND SUB PUSH2 0x8DC JUMPI PUSH1 0x40 MLOAD PUSH32 0x8C379A000000000000000000000000000000000000000000000000000000000 DUP2 MSTORE PUSH1 0x4 ADD PUSH2 0x8D3 SWAP1 PUSH2 0x2E2E JUMP JUMPDEST PUSH1 0x40 MLOAD DUP1 SWAP2 SUB SWAP1 REVERT JUMPDEST PUSH1 0x0 PUSH20 0xFFFFFFFFFFFFFFFFFFFFFFFFFFFFFFFFFFFFFFFF AND DUP2 PUSH20 0xFFFFFFFFFFFFFFFFFFFFFFFFFFFFFFFFFFFFFFFF AND SUB PUSH2 0x915 JUMPI PUSH1 0x0 DUP1 REVERT JUMPDEST DUP1 PUSH1 0x2 PUSH1 0x0 PUSH2 0x100 EXP DUP2 SLOAD DUP2 PUSH20 0xFFFFFFFFFFFFFFFFFFFFFFFFFFFFFFFFFFFFFFFF MUL NOT AND SWAP1 DUP4 PUSH20 0xFFFFFFFFFFFFFFFFFFFFFFFFFFFFFFFFFFFFFFFF AND MUL OR SWAP1 SSTORE POP POP JUMP JUMPDEST PUSH2 0x961 PUSH2 0x221C JUMP JUMPDEST CALLER PUSH20 0xFFFFFFFFFFFFFFFFFFFFFFFFFFFFFFFFFFFFFFFF AND PUSH32 0x0 PUSH20 0xFFFFFFFFFFFFFFFFFFFFFFFFFFFFFFFFFFFFFFFF AND EQ PUSH2 0x9EF JUMPI PUSH1 0x40 MLOAD PUSH32 0x8C379A000000000000000000000000000000000000000000000000000000000 DUP2 MSTORE PUSH1 0x4 ADD PUSH2 0x9E6 SWAP1 PUSH2 0x2F2C JUMP JUMPDEST PUSH1 0x40 MLOAD DUP1 SWAP2 SUB SWAP1 REVERT JUMPDEST PUSH1 0x0 PUSH20 0xFFFFFFFFFFFFFFFFFFFFFFFFFFFFFFFFFFFFFFFF AND PUSH1 0x2 PUSH1 0x0 SWAP1 SLOAD SWAP1 PUSH2 0x100 EXP SWAP1 DIV PUSH20 0xFFFFFFFFFFFFFFFFFFFFFFFFFFFFFFFFFFFFFFFF AND PUSH20 0xFFFFFFFFFFFFFFFFFFFFFFFFFFFFFFFFFFFFFFFF AND EQ PUSH2 0xA80 JUMPI PUSH1 0x40 MLOAD PUSH32 0x8C379A000000000000000000000000000000000000000000000000000000000 DUP2 MSTORE PUSH1 0x4 ADD PUSH2 0xA77 SWAP1 PUSH2 0x2F98 JUMP JUMPDEST PUSH1 0x40 MLOAD DUP1 SWAP2 SUB SWAP1 REVERT JUMPDEST CALLER PUSH1 0x2 PUSH1 0x0 PUSH2 0x100 EXP DUP2 SLOAD DUP2 PUSH20 0xFFFFFFFFFFFFFFFFFFFFFFFFFFFFFFFFFFFFFFFF MUL NOT AND SWAP1 DUP4 PUSH20 0xFFFFFFFFFFFFFFFFFFFFFFFFFFFFFFFFFFFFFFFF AND MUL OR SWAP1 SSTORE POP PUSH1 0x2 PUSH1 0x0 SWAP1 SLOAD SWAP1 PUSH2 0x100 EXP SWAP1 DIV PUSH20 0xFFFFFFFFFFFFFFFFFFFFFFFFFFFFFFFFFFFFFFFF AND PUSH20 0xFFFFFFFFFFFFFFFFFFFFFFFFFFFFFFFFFFFFFFFF AND PUSH32 0xFBD0A3F6E9A0DD5F834515748047E83DE8064477489A0A0D6B59C64BBECC992A TIMESTAMP PUSH1 0x40 MLOAD PUSH2 0xB29 SWAP2 SWAP1 PUSH2 0x28E7 JUMP JUMPDEST PUSH1 0x40 MLOAD DUP1 SWAP2 SUB SWAP1 LOG2 JUMP JUMPDEST PUSH1 0x0 DUP1 PUSH20 0xFFFFFFFFFFFFFFFFFFFFFFFFFFFFFFFFFFFFFFFF AND PUSH1 0x2 PUSH1 0x0 SWAP1 SLOAD SWAP1 PUSH2 0x100 EXP SWAP1 DIV PUSH20 0xFFFFFFFFFFFFFFFFFFFFFFFFFFFFFFFFFFFFFFFF AND PUSH20 0xFFFFFFFFFFFFFFFFFFFFFFFFFFFFFFFFFFFFFFFF AND SUB PUSH2 0xBC5 JUMPI PUSH1 0x40 MLOAD PUSH32 0x8C379A000000000000000000000000000000000000000000000000000000000 DUP2 MSTORE PUSH1 0x4 ADD PUSH2 0xBBC SWAP1 PUSH2 0x2E2E JUMP JUMPDEST PUSH1 0x40 MLOAD DUP1 SWAP2 SUB SWAP1 REVERT JUMPDEST PUSH1 0x2 PUSH1 0x0 SWAP1 SLOAD SWAP1 PUSH2 0x100 EXP SWAP1 DIV PUSH20 0xFFFFFFFFFFFFFFFFFFFFFFFFFFFFFFFFFFFFFFFF AND PUSH20 0xFFFFFFFFFFFFFFFFFFFFFFFFFFFFFFFFFFFFFFFF AND CALLER PUSH20 0xFFFFFFFFFFFFFFFFFFFFFFFFFFFFFFFFFFFFFFFF AND EQ DUP1 PUSH2 0xC53 JUMPI POP PUSH2 0xC24 PUSH2 0x12E8 JUMP JUMPDEST PUSH20 0xFFFFFFFFFFFFFFFFFFFFFFFFFFFFFFFFFFFFFFFF AND CALLER PUSH20 0xFFFFFFFFFFFFFFFFFFFFFFFFFFFFFFFFFFFFFFFF AND EQ JUMPDEST PUSH2 0xC92 JUMPI PUSH1 0x40 MLOAD PUSH32 0x8C379A000000000000000000000000000000000000000000000000000000000 DUP2 MSTORE PUSH1 0x4 ADD PUSH2 0xC89 SWAP1 PUSH2 0x302A JUMP JUMPDEST PUSH1 0x40 MLOAD DUP1 SWAP2 SUB SWAP1 REVERT JUMPDEST PUSH1 0x3 SLOAD SWAP1 POP SWAP1 JUMP JUMPDEST PUSH2 0xCA2 PUSH2 0x20F3 JUMP JUMPDEST PUSH1 0x0 PUSH1 0x6 SLOAD GT PUSH2 0xCE7 JUMPI PUSH1 0x40 MLOAD PUSH32 0x8C379A000000000000000000000000000000000000000000000000000000000 DUP2 MSTORE PUSH1 0x4 ADD PUSH2 0xCDE SWAP1 PUSH2 0x3096 JUMP JUMPDEST PUSH1 0x40 MLOAD DUP1 SWAP2 SUB SWAP1 REVERT JUMPDEST PUSH1 0x0 PUSH1 0x6 SLOAD PUSH1 0x5 SLOAD PUSH2 0xCF9 SWAP2 SWAP1 PUSH2 0x2B1C JUMP JUMPDEST GT PUSH2 0xD39 JUMPI PUSH1 0x40 MLOAD PUSH32 0x8C379A000000000000000000000000000000000000000000000000000000000 DUP2 MSTORE PUSH1 0x4 ADD PUSH2 0xD30 SWAP1 PUSH2 0x3102 JUMP JUMPDEST PUSH1 0x40 MLOAD DUP1 SWAP2 SUB SWAP1 REVERT JUMPDEST PUSH1 0x6 SLOAD PUSH1 0x5 PUSH1 0x0 DUP3 DUP3 SLOAD PUSH2 0xD4D SWAP2 SWAP1 PUSH2 0x2B1C JUMP JUMPDEST SWAP3 POP POP DUP2 SWAP1 SSTORE POP PUSH1 0x0 PUSH1 0x6 DUP2 SWAP1 SSTORE POP TIMESTAMP PUSH32 0xE727EE3674546D683A39C7087AB966177F70026ADB7D4FDEFAEF2BF0BB29A46 PUSH1 0x6 SLOAD PUSH1 0x40 MLOAD PUSH2 0xD8E SWAP2 SWAP1 PUSH2 0x28E7 JUMP JUMPDEST PUSH1 0x40 MLOAD DUP1 SWAP2 SUB SWAP1 LOG2 JUMP JUMPDEST PUSH1 0x0 PUSH20 0xFFFFFFFFFFFFFFFFFFFFFFFFFFFFFFFFFFFFFFFF AND PUSH1 0x2 PUSH1 0x0 SWAP1 SLOAD SWAP1 PUSH2 0x100 EXP SWAP1 DIV PUSH20 0xFFFFFFFFFFFFFFFFFFFFFFFFFFFFFFFFFFFFFFFF AND PUSH20 0xFFFFFFFFFFFFFFFFFFFFFFFFFFFFFFFFFFFFFFFF AND SUB PUSH2 0xE29 JUMPI PUSH1 0x40 MLOAD PUSH32 0x8C379A000000000000000000000000000000000000000000000000000000000 DUP2 MSTORE PUSH1 0x4 ADD PUSH2 0xE20 SWAP1 PUSH2 0x2E2E JUMP JUMPDEST PUSH1 0x40 MLOAD DUP1 SWAP2 SUB SWAP1 REVERT JUMPDEST PUSH1 0x2 PUSH1 0x0 SWAP1 SLOAD SWAP1 PUSH2 0x100 EXP SWAP1 DIV PUSH20 0xFFFFFFFFFFFFFFFFFFFFFFFFFFFFFFFFFFFFFFFF AND PUSH20 0xFFFFFFFFFFFFFFFFFFFFFFFFFFFFFFFFFFFFFFFF AND CALLER PUSH20 0xFFFFFFFFFFFFFFFFFFFFFFFFFFFFFFFFFFFFFFFF AND EQ PUSH2 0xEB9 JUMPI PUSH1 0x40 MLOAD PUSH32 0x8C379A000000000000000000000000000000000000000000000000000000000 DUP2 MSTORE PUSH1 0x4 ADD PUSH2 0xEB0 SWAP1 PUSH2 0x2E9A JUMP JUMPDEST PUSH1 0x40 MLOAD DUP1 SWAP2 SUB SWAP1 REVERT JUMPDEST PUSH2 0xEC1 PUSH2 0x221C JUMP JUMPDEST PUSH1 0x0 PUSH1 0x2 PUSH1 0x0 PUSH2 0x100 EXP DUP2 SLOAD DUP2 PUSH20 0xFFFFFFFFFFFFFFFFFFFFFFFFFFFFFFFFFFFFFFFF MUL NOT AND SWAP1 DUP4 PUSH20 0xFFFFFFFFFFFFFFFFFFFFFFFFFFFFFFFFFFFFFFFF AND MUL OR SWAP1 SSTORE POP CALLER PUSH20 0xFFFFFFFFFFFFFFFFFFFFFFFFFFFFFFFFFFFFFFFF AND PUSH32 0x13B865880A841DC469B629159FA1E730FEE99568B0DECC6737FD688B36246381 TIMESTAMP PUSH1 0x40 MLOAD PUSH2 0xF49 SWAP2 SWAP1 PUSH2 0x28E7 JUMP JUMPDEST PUSH1 0x40 MLOAD DUP1 SWAP2 SUB SWAP1 LOG2 JUMP JUMPDEST PUSH1 0x0 DUP1 PUSH1 0x0 SWAP1 SLOAD SWAP1 PUSH2 0x100 EXP SWAP1 DIV PUSH1 0xFF AND SWAP1 POP SWAP1 JUMP JUMPDEST PUSH1 0x0 PUSH2 0xF73 PUSH2 0x20F3 JUMP JUMPDEST DUP2 PUSH2 0xF7D DUP6 PUSH2 0x17EC JUMP JUMPDEST LT ISZERO PUSH2 0xFBE JUMPI PUSH1 0x40 MLOAD PUSH32 0x8C379A000000000000000000000000000000000000000000000000000000000 DUP2 MSTORE PUSH1 0x4 ADD PUSH2 0xFB5 SWAP1 PUSH2 0x316E JUMP JUMPDEST PUSH1 0x40 MLOAD DUP1 SWAP2 SUB SWAP1 REVERT JUMPDEST DUP4 PUSH20 0xFFFFFFFFFFFFFFFFFFFFFFFFFFFFFFFFFFFFFFFF AND PUSH4 0xA9059CBB DUP5 DUP5 PUSH1 0x40 MLOAD DUP4 PUSH4 0xFFFFFFFF AND PUSH1 0xE0 SHL DUP2 MSTORE PUSH1 0x4 ADD PUSH2 0xFF9 SWAP3 SWAP2 SWAP1 PUSH2 0x318E JUMP JUMPDEST PUSH1 0x20 PUSH1 0x40 MLOAD DUP1 DUP4 SUB DUP2 PUSH1 0x0 DUP8 GAS CALL ISZERO DUP1 ISZERO PUSH2 0x1018 JUMPI RETURNDATASIZE PUSH1 0x0 DUP1 RETURNDATACOPY RETURNDATASIZE PUSH1 0x0 REVERT JUMPDEST POP POP POP POP PUSH1 0x40 MLOAD RETURNDATASIZE PUSH1 0x1F NOT PUSH1 0x1F DUP3 ADD AND DUP3 ADD DUP1 PUSH1 0x40 MSTORE POP DUP2 ADD SWAP1 PUSH2 0x103C SWAP2 SWAP1 PUSH2 0x31E3 JUMP JUMPDEST SWAP1 POP SWAP4 SWAP3 POP POP POP JUMP JUMPDEST PUSH2 0x104D PUSH2 0x20F3 JUMP JUMPDEST PUSH2 0x1057 PUSH1 0x0 PUSH2 0x22C8 JUMP JUMPDEST JUMP JUMPDEST PUSH1 0x0 PUSH2 0x1063 PUSH2 0x20F3 JUMP JUMPDEST PUSH32 0x0 PUSH20 0xFFFFFFFFFFFFFFFFFFFFFFFFFFFFFFFFFFFFFFFF AND PUSH4 0x70A08231 ADDRESS PUSH1 0x40 MLOAD DUP3 PUSH4 0xFFFFFFFF AND PUSH1 0xE0 SHL DUP2 MSTORE PUSH1 0x4 ADD PUSH2 0x10BC SWAP2 SWAP1 PUSH2 0x2890 JUMP JUMPDEST PUSH1 0x20 PUSH1 0x40 MLOAD DUP1 DUP4 SUB DUP2 DUP7 GAS STATICCALL ISZERO DUP1 ISZERO PUSH2 0x10D9 JUMPI RETURNDATASIZE PUSH1 0x0 DUP1 RETURNDATACOPY RETURNDATASIZE PUSH1 0x0 REVERT JUMPDEST POP POP POP POP PUSH1 0x40 MLOAD RETURNDATASIZE PUSH1 0x1F NOT PUSH1 0x1F DUP3 ADD AND DUP3 ADD DUP1 PUSH1 0x40 MSTORE POP DUP2 ADD SWAP1 PUSH2 0x10FD SWAP2 SWAP1 PUSH2 0x3225 JUMP JUMPDEST SWAP1 POP SWAP1 JUMP JUMPDEST PUSH1 0x0 DUP1 PUSH20 0xFFFFFFFFFFFFFFFFFFFFFFFFFFFFFFFFFFFFFFFF AND PUSH1 0x2 PUSH1 0x0 SWAP1 SLOAD SWAP1 PUSH2 0x100 EXP SWAP1 DIV PUSH20 0xFFFFFFFFFFFFFFFFFFFFFFFFFFFFFFFFFFFFFFFF AND PUSH20 0xFFFFFFFFFFFFFFFFFFFFFFFFFFFFFFFFFFFFFFFF AND SUB PUSH2 0x1194 JUMPI PUSH1 0x40 MLOAD PUSH32 0x8C379A000000000000000000000000000000000000000000000000000000000 DUP2 MSTORE PUSH1 0x4 ADD PUSH2 0x118B SWAP1 PUSH2 0x2E2E JUMP JUMPDEST PUSH1 0x40 MLOAD DUP1 SWAP2 SUB SWAP1 REVERT JUMPDEST PUSH1 0x2 PUSH1 0x0 SWAP1 SLOAD SWAP1 PUSH2 0x100 EXP SWAP1 DIV PUSH20 0xFFFFFFFFFFFFFFFFFFFFFFFFFFFFFFFFFFFFFFFF AND PUSH20 0xFFFFFFFFFFFFFFFFFFFFFFFFFFFFFFFFFFFFFFFF AND CALLER PUSH20 0xFFFFFFFFFFFFFFFFFFFFFFFFFFFFFFFFFFFFFFFF AND EQ DUP1 PUSH2 0x1222 JUMPI POP PUSH2 0x11F3 PUSH2 0x12E8 JUMP JUMPDEST PUSH20 0xFFFFFFFFFFFFFFFFFFFFFFFFFFFFFFFFFFFFFFFF AND CALLER PUSH20 0xFFFFFFFFFFFFFFFFFFFFFFFFFFFFFFFFFFFFFFFF AND EQ JUMPDEST PUSH2 0x1261 JUMPI PUSH1 0x40 MLOAD PUSH32 0x8C379A000000000000000000000000000000000000000000000000000000000 DUP2 MSTORE PUSH1 0x4 ADD PUSH2 0x1258 SWAP1 PUSH2 0x302A JUMP JUMPDEST PUSH1 0x40 MLOAD DUP1 SWAP2 SUB SWAP1 REVERT JUMPDEST PUSH1 0x0 DUP4 GT DUP1 ISZERO PUSH2 0x1271 JUMPI POP PUSH1 0x0 DUP5 GT JUMPDEST DUP1 ISZERO PUSH2 0x127D JUMPI POP PUSH1 0x0 DUP3 GT JUMPDEST PUSH2 0x12BC JUMPI PUSH1 0x40 MLOAD PUSH32 0x8C379A000000000000000000000000000000000000000000000000000000000 DUP2 MSTORE PUSH1 0x4 ADD PUSH2 0x12B3 SWAP1 PUSH2 0x32C4 JUMP JUMPDEST PUSH1 0x40 MLOAD DUP1 SWAP2 SUB SWAP1 REVERT JUMPDEST DUP3 DUP3 PUSH1 0xA PUSH2 0x12CA SWAP2 SWAP1 PUSH2 0x3417 JUMP JUMPDEST DUP6 PUSH2 0x12D5 SWAP2 SWAP1 PUSH2 0x3462 JUMP JUMPDEST PUSH2 0x12DF SWAP2 SWAP1 PUSH2 0x34D3 JUMP JUMPDEST SWAP1 POP SWAP4 SWAP3 POP POP POP JUMP JUMPDEST PUSH1 0x0 DUP1 PUSH1 0x1 SWAP1 SLOAD SWAP1 PUSH2 0x100 EXP SWAP1 DIV PUSH20 0xFFFFFFFFFFFFFFFFFFFFFFFFFFFFFFFFFFFFFFFF AND SWAP1 POP SWAP1 JUMP JUMPDEST PUSH1 0x0 DUP1 PUSH20 0xFFFFFFFFFFFFFFFFFFFFFFFFFFFFFFFFFFFFFFFF AND PUSH1 0x2 PUSH1 0x0 SWAP1 SLOAD SWAP1 PUSH2 0x100 EXP SWAP1 DIV PUSH20 0xFFFFFFFFFFFFFFFFFFFFFFFFFFFFFFFFFFFFFFFF AND PUSH20 0xFFFFFFFFFFFFFFFFFFFFFFFFFFFFFFFFFFFFFFFF AND SUB PUSH2 0x13A3 JUMPI PUSH1 0x40 MLOAD PUSH32 0x8C379A000000000000000000000000000000000000000000000000000000000 DUP2 MSTORE PUSH1 0x4 ADD PUSH2 0x139A SWAP1 PUSH2 0x2E2E JUMP JUMPDEST PUSH1 0x40 MLOAD DUP1 SWAP2 SUB SWAP1 REVERT JUMPDEST PUSH1 0x2 PUSH1 0x0 SWAP1 SLOAD SWAP1 PUSH2 0x100 EXP SWAP1 DIV PUSH20 0xFFFFFFFFFFFFFFFFFFFFFFFFFFFFFFFFFFFFFFFF AND PUSH20 0xFFFFFFFFFFFFFFFFFFFFFFFFFFFFFFFFFFFFFFFF AND CALLER PUSH20 0xFFFFFFFFFFFFFFFFFFFFFFFFFFFFFFFFFFFFFFFF AND EQ DUP1 PUSH2 0x1431 JUMPI POP PUSH2 0x1402 PUSH2 0x12E8 JUMP JUMPDEST PUSH20 0xFFFFFFFFFFFFFFFFFFFFFFFFFFFFFFFFFFFFFFFF AND CALLER PUSH20 0xFFFFFFFFFFFFFFFFFFFFFFFFFFFFFFFFFFFFFFFF AND EQ JUMPDEST PUSH2 0x1470 JUMPI PUSH1 0x40 MLOAD PUSH32 0x8C379A000000000000000000000000000000000000000000000000000000000 DUP2 MSTORE PUSH1 0x4 ADD PUSH2 0x1467 SWAP1 PUSH2 0x302A JUMP JUMPDEST PUSH1 0x40 MLOAD DUP1 SWAP2 SUB SWAP1 REVERT JUMPDEST PUSH1 0x6 SLOAD SWAP1 POP SWAP1 JUMP JUMPDEST PUSH1 0x0 DUP1 PUSH20 0xFFFFFFFFFFFFFFFFFFFFFFFFFFFFFFFFFFFFFFFF AND PUSH1 0x2 PUSH1 0x0 SWAP1 SLOAD SWAP1 PUSH2 0x100 EXP SWAP1 DIV PUSH20 0xFFFFFFFFFFFFFFFFFFFFFFFFFFFFFFFFFFFFFFFF AND PUSH20 0xFFFFFFFFFFFFFFFFFFFFFFFFFFFFFFFFFFFFFFFF AND SUB PUSH2 0x150A JUMPI PUSH1 0x40 MLOAD PUSH32 0x8C379A000000000000000000000000000000000000000000000000000000000 DUP2 MSTORE PUSH1 0x4 ADD PUSH2 0x1501 SWAP1 PUSH2 0x2E2E JUMP JUMPDEST PUSH1 0x40 MLOAD DUP1 SWAP2 SUB SWAP1 REVERT JUMPDEST PUSH1 0x2 PUSH1 0x0 SWAP1 SLOAD SWAP1 PUSH2 0x100 EXP SWAP1 DIV PUSH20 0xFFFFFFFFFFFFFFFFFFFFFFFFFFFFFFFFFFFFFFFF AND PUSH20 0xFFFFFFFFFFFFFFFFFFFFFFFFFFFFFFFFFFFFFFFF AND CALLER PUSH20 0xFFFFFFFFFFFFFFFFFFFFFFFFFFFFFFFFFFFFFFFF AND EQ DUP1 PUSH2 0x1598 JUMPI POP PUSH2 0x1569 PUSH2 0x12E8 JUMP JUMPDEST PUSH20 0xFFFFFFFFFFFFFFFFFFFFFFFFFFFFFFFFFFFFFFFF AND CALLER PUSH20 0xFFFFFFFFFFFFFFFFFFFFFFFFFFFFFFFFFFFFFFFF AND EQ JUMPDEST PUSH2 0x15D7 JUMPI PUSH1 0x40 MLOAD PUSH32 0x8C379A000000000000000000000000000000000000000000000000000000000 DUP2 MSTORE PUSH1 0x4 ADD PUSH2 0x15CE SWAP1 PUSH2 0x302A JUMP JUMPDEST PUSH1 0x40 MLOAD DUP1 SWAP2 SUB SWAP1 REVERT JUMPDEST PUSH1 0x4 SLOAD SWAP1 POP SWAP1 JUMP JUMPDEST PUSH1 0x0 PUSH1 0x60 PUSH1 0x2 PUSH1 0x0 SWAP1 SLOAD SWAP1 PUSH2 0x100 EXP SWAP1 DIV PUSH20 0xFFFFFFFFFFFFFFFFFFFFFFFFFFFFFFFFFFFFFFFF AND PUSH20 0xFFFFFFFFFFFFFFFFFFFFFFFFFFFFFFFFFFFFFFFF AND CALLER PUSH20 0xFFFFFFFFFFFFFFFFFFFFFFFFFFFFFFFFFFFFFFFF AND EQ DUP1 PUSH2 0x1671 JUMPI POP PUSH2 0x1642 PUSH2 0x12E8 JUMP JUMPDEST PUSH20 0xFFFFFFFFFFFFFFFFFFFFFFFFFFFFFFFFFFFFFFFF AND CALLER PUSH20 0xFFFFFFFFFFFFFFFFFFFFFFFFFFFFFFFFFFFFFFFF AND EQ JUMPDEST PUSH2 0x16B0 JUMPI PUSH1 0x40 MLOAD PUSH32 0x8C379A000000000000000000000000000000000000000000000000000000000 DUP2 MSTORE PUSH1 0x4 ADD PUSH2 0x16A7 SWAP1 PUSH2 0x302A JUMP JUMPDEST PUSH1 0x40 MLOAD DUP1 SWAP2 SUB SWAP1 REVERT JUMPDEST PUSH32 0x0 PUSH1 0x1 DUP1 DUP1 SLOAD PUSH2 0x16DF SWAP1 PUSH2 0x2BFC JUMP JUMPDEST DUP1 PUSH1 0x1F ADD PUSH1 0x20 DUP1 SWAP2 DIV MUL PUSH1 0x20 ADD PUSH1 0x40 MLOAD SWAP1 DUP2 ADD PUSH1 0x40 MSTORE DUP1 SWAP3 SWAP2 SWAP1 DUP2 DUP2 MSTORE PUSH1 0x20 ADD DUP3 DUP1 SLOAD PUSH2 0x170B SWAP1 PUSH2 0x2BFC JUMP JUMPDEST DUP1 ISZERO PUSH2 0x1758 JUMPI DUP1 PUSH1 0x1F LT PUSH2 0x172D JUMPI PUSH2 0x100 DUP1 DUP4 SLOAD DIV MUL DUP4 MSTORE SWAP2 PUSH1 0x20 ADD SWAP2 PUSH2 0x1758 JUMP JUMPDEST DUP3 ADD SWAP2 SWAP1 PUSH1 0x0 MSTORE PUSH1 0x20 PUSH1 0x0 KECCAK256 SWAP1 JUMPDEST DUP2 SLOAD DUP2 MSTORE SWAP1 PUSH1 0x1 ADD SWAP1 PUSH1 0x20 ADD DUP1 DUP4 GT PUSH2 0x173B JUMPI DUP3 SWAP1 SUB PUSH1 0x1F AND DUP3 ADD SWAP2 JUMPDEST POP POP POP POP POP SWAP1 POP SWAP2 POP SWAP2 POP SWAP1 SWAP2 JUMP JUMPDEST PUSH2 0x176F PUSH2 0x20F3 JUMP JUMPDEST PUSH1 0x0 PUSH20 0xFFFFFFFFFFFFFFFFFFFFFFFFFFFFFFFFFFFFFFFF AND DUP2 PUSH20 0xFFFFFFFFFFFFFFFFFFFFFFFFFFFFFFFFFFFFFFFF AND SUB PUSH2 0x17A8 JUMPI PUSH1 0x0 DUP1 REVERT JUMPDEST DUP1 PUSH1 0x8 PUSH1 0x0 PUSH2 0x100 EXP DUP2 SLOAD DUP2 PUSH20 0xFFFFFFFFFFFFFFFFFFFFFFFFFFFFFFFFFFFFFFFF MUL NOT AND SWAP1 DUP4 PUSH20 0xFFFFFFFFFFFFFFFFFFFFFFFFFFFFFFFFFFFFFFFF AND MUL OR SWAP1 SSTORE POP POP JUMP JUMPDEST PUSH1 0x0 PUSH2 0x17F6 PUSH2 0x20F3 JUMP JUMPDEST DUP2 PUSH20 0xFFFFFFFFFFFFFFFFFFFFFFFFFFFFFFFFFFFFFFFF AND PUSH4 0x70A08231 ADDRESS PUSH1 0x40 MLOAD DUP3 PUSH4 0xFFFFFFFF AND PUSH1 0xE0 SHL DUP2 MSTORE PUSH1 0x4 ADD PUSH2 0x182F SWAP2 SWAP1 PUSH2 0x2890 JUMP JUMPDEST PUSH1 0x20 PUSH1 0x40 MLOAD DUP1 DUP4 SUB DUP2 DUP7 GAS STATICCALL ISZERO DUP1 ISZERO PUSH2 0x184C JUMPI RETURNDATASIZE PUSH1 0x0 DUP1 RETURNDATACOPY RETURNDATASIZE PUSH1 0x0 REVERT JUMPDEST POP POP POP POP PUSH1 0x40 MLOAD RETURNDATASIZE PUSH1 0x1F NOT PUSH1 0x1F DUP3 ADD AND DUP3 ADD DUP1 PUSH1 0x40 MSTORE POP DUP2 ADD SWAP1 PUSH2 0x1870 SWAP2 SWAP1 PUSH2 0x3225 JUMP JUMPDEST SWAP1 POP SWAP2 SWAP1 POP JUMP JUMPDEST PUSH1 0x0 PUSH32 0x0 SWAP1 POP SWAP1 JUMP JUMPDEST PUSH1 0x60 PUSH2 0x18A9 PUSH2 0x20F3 JUMP JUMPDEST PUSH1 0x60 PUSH1 0x2 PUSH1 0x14 SWAP1 SLOAD SWAP1 PUSH2 0x100 EXP SWAP1 DIV PUSH1 0xFF AND PUSH2 0x18FD JUMPI PUSH1 0x40 MLOAD DUP1 PUSH1 0x40 ADD PUSH1 0x40 MSTORE DUP1 PUSH1 0xC DUP2 MSTORE PUSH1 0x20 ADD PUSH32 0x41676772656761746F7256330000000000000000000000000000000000000000 DUP2 MSTORE POP SWAP1 POP DUP1 PUSH2 0x1937 JUMP JUMPDEST PUSH1 0x40 MLOAD DUP1 PUSH1 0x40 ADD PUSH1 0x40 MSTORE DUP1 PUSH1 0x4 DUP2 MSTORE PUSH1 0x20 ADD PUSH32 0x506F6F6C00000000000000000000000000000000000000000000000000000000 DUP2 MSTORE POP SWAP1 POP DUP1 JUMPDEST POP DUP1 SWAP2 POP POP SWAP1 JUMP JUMPDEST PUSH2 0x1947 PUSH2 0x20F3 JUMP JUMPDEST PUSH1 0x2 PUSH1 0x14 SWAP1 SLOAD SWAP1 PUSH2 0x100 EXP SWAP1 DIV PUSH1 0xFF AND ISZERO PUSH2 0x1A0B JUMPI PUSH1 0x2 PUSH1 0x14 SWAP1 SLOAD SWAP1 PUSH2 0x100 EXP SWAP1 DIV PUSH1 0xFF AND DUP1 ISZERO PUSH2 0x19C7 JUMPI POP PUSH1 0x0 PUSH20 0xFFFFFFFFFFFFFFFFFFFFFFFFFFFFFFFFFFFFFFFF AND PUSH1 0x7 PUSH1 0x0 SWAP1 SLOAD SWAP1 PUSH2 0x100 EXP SWAP1 DIV PUSH20 0xFFFFFFFFFFFFFFFFFFFFFFFFFFFFFFFFFFFFFFFF AND PUSH20 0xFFFFFFFFFFFFFFFFFFFFFFFFFFFFFFFFFFFFFFFF AND EQ ISZERO JUMPDEST PUSH2 0x1A06 JUMPI PUSH1 0x40 MLOAD PUSH32 0x8C379A000000000000000000000000000000000000000000000000000000000 DUP2 MSTORE PUSH1 0x4 ADD PUSH2 0x19FD SWAP1 PUSH2 0x3576 JUMP JUMPDEST PUSH1 0x40 MLOAD DUP1 SWAP2 SUB SWAP1 REVERT JUMPDEST PUSH2 0x1AB6 JUMP JUMPDEST PUSH1 0x2 PUSH1 0x14 SWAP1 SLOAD SWAP1 PUSH2 0x100 EXP SWAP1 DIV PUSH1 0xFF AND DUP1 ISZERO PUSH2 0x1A76 JUMPI POP PUSH1 0x0 PUSH20 0xFFFFFFFFFFFFFFFFFFFFFFFFFFFFFFFFFFFFFFFF AND PUSH1 0x8 PUSH1 0x0 SWAP1 SLOAD SWAP1 PUSH2 0x100 EXP SWAP1 DIV PUSH20 0xFFFFFFFFFFFFFFFFFFFFFFFFFFFFFFFFFFFFFFFF AND PUSH20 0xFFFFFFFFFFFFFFFFFFFFFFFFFFFFFFFFFFFFFFFF AND EQ ISZERO JUMPDEST PUSH2 0x1AB5 JUMPI PUSH1 0x40 MLOAD PUSH32 0x8C379A000000000000000000000000000000000000000000000000000000000 DUP2 MSTORE PUSH1 0x4 ADD PUSH2 0x1AAC SWAP1 PUSH2 0x35E2 JUMP JUMPDEST PUSH1 0x40 MLOAD DUP1 SWAP2 SUB SWAP1 REVERT JUMPDEST JUMPDEST PUSH1 0x2 PUSH1 0x14 SWAP1 SLOAD SWAP1 PUSH2 0x100 EXP SWAP1 DIV PUSH1 0xFF AND ISZERO PUSH1 0x2 PUSH1 0x14 PUSH2 0x100 EXP DUP2 SLOAD DUP2 PUSH1 0xFF MUL NOT AND SWAP1 DUP4 ISZERO ISZERO MUL OR SWAP1 SSTORE POP JUMP JUMPDEST PUSH1 0x0 PUSH2 0x1AEC PUSH2 0x221C JUMP JUMPDEST PUSH1 0x0 PUSH20 0xFFFFFFFFFFFFFFFFFFFFFFFFFFFFFFFFFFFFFFFF AND PUSH1 0x2 PUSH1 0x0 SWAP1 SLOAD SWAP1 PUSH2 0x100 EXP SWAP1 DIV PUSH20 0xFFFFFFFFFFFFFFFFFFFFFFFFFFFFFFFFFFFFFFFF AND PUSH20 0xFFFFFFFFFFFFFFFFFFFFFFFFFFFFFFFFFFFFFFFF AND SUB PUSH2 0x1B7D JUMPI PUSH1 0x40 MLOAD PUSH32 0x8C379A000000000000000000000000000000000000000000000000000000000 DUP2 MSTORE PUSH1 0x4 ADD PUSH2 0x1B74 SWAP1 PUSH2 0x2E2E JUMP JUMPDEST PUSH1 0x40 MLOAD DUP1 SWAP2 SUB SWAP1 REVERT JUMPDEST PUSH1 0x2 PUSH1 0x0 SWAP1 SLOAD SWAP1 PUSH2 0x100 EXP SWAP1 DIV PUSH20 0xFFFFFFFFFFFFFFFFFFFFFFFFFFFFFFFFFFFFFFFF AND PUSH20 0xFFFFFFFFFFFFFFFFFFFFFFFFFFFFFFFFFFFFFFFF AND CALLER PUSH20 0xFFFFFFFFFFFFFFFFFFFFFFFFFFFFFFFFFFFFFFFF AND EQ PUSH2 0x1C0D JUMPI PUSH1 0x40 MLOAD PUSH32 0x8C379A000000000000000000000000000000000000000000000000000000000 DUP2 MSTORE PUSH1 0x4 ADD PUSH2 0x1C04 SWAP1 PUSH2 0x2E9A JUMP JUMPDEST PUSH1 0x40 MLOAD DUP1 SWAP2 SUB SWAP1 REVERT JUMPDEST PUSH1 0x0 DUP3 GT PUSH2 0x1C50 JUMPI PUSH1 0x40 MLOAD PUSH32 0x8C379A000000000000000000000000000000000000000000000000000000000 DUP2 MSTORE PUSH1 0x4 ADD PUSH2 0x1C47 SWAP1 PUSH2 0x364E JUMP JUMPDEST PUSH1 0x40 MLOAD DUP1 SWAP2 SUB SWAP1 REVERT JUMPDEST PUSH1 0x0 PUSH32 0x0 PUSH20 0xFFFFFFFFFFFFFFFFFFFFFFFFFFFFFFFFFFFFFFFF AND PUSH4 0xDD62ED3E CALLER ADDRESS PUSH1 0x40 MLOAD DUP4 PUSH4 0xFFFFFFFF AND PUSH1 0xE0 SHL DUP2 MSTORE PUSH1 0x4 ADD PUSH2 0x1CAD SWAP3 SWAP2 SWAP1 PUSH2 0x366E JUMP JUMPDEST PUSH1 0x20 PUSH1 0x40 MLOAD DUP1 DUP4 SUB DUP2 DUP7 GAS STATICCALL ISZERO DUP1 ISZERO PUSH2 0x1CCA JUMPI RETURNDATASIZE PUSH1 0x0 DUP1 RETURNDATACOPY RETURNDATASIZE PUSH1 0x0 REVERT JUMPDEST POP POP POP POP PUSH1 0x40 MLOAD RETURNDATASIZE PUSH1 0x1F NOT PUSH1 0x1F DUP3 ADD AND DUP3 ADD DUP1 PUSH1 0x40 MSTORE POP DUP2 ADD SWAP1 PUSH2 0x1CEE SWAP2 SWAP1 PUSH2 0x3225 JUMP JUMPDEST SWAP1 POP DUP3 DUP2 LT ISZERO PUSH1 0x1 PUSH1 0x40 MLOAD PUSH1 0x20 ADD PUSH2 0x1D06 SWAP2 SWAP1 PUSH2 0x3709 JUMP JUMPDEST PUSH1 0x40 MLOAD PUSH1 0x20 DUP2 DUP4 SUB SUB DUP2 MSTORE SWAP1 PUSH1 0x40 MSTORE SWAP1 PUSH2 0x1D56 JUMPI PUSH1 0x40 MLOAD PUSH32 0x8C379A000000000000000000000000000000000000000000000000000000000 DUP2 MSTORE PUSH1 0x4 ADD PUSH2 0x1D4D SWAP2 SWAP1 PUSH2 0x2A9E JUMP JUMPDEST PUSH1 0x40 MLOAD DUP1 SWAP2 SUB SWAP1 REVERT JUMPDEST POP PUSH32 0x0 PUSH20 0xFFFFFFFFFFFFFFFFFFFFFFFFFFFFFFFFFFFFFFFF AND PUSH4 0x23B872DD CALLER ADDRESS DUP7 PUSH1 0x40 MLOAD DUP5 PUSH4 0xFFFFFFFF AND PUSH1 0xE0 SHL DUP2 MSTORE PUSH1 0x4 ADD PUSH2 0x1DB4 SWAP4 SWAP3 SWAP2 SWAP1 PUSH2 0x374D JUMP JUMPDEST PUSH1 0x20 PUSH1 0x40 MLOAD DUP1 DUP4 SUB DUP2 PUSH1 0x0 DUP8 GAS CALL ISZERO DUP1 ISZERO PUSH2 0x1DD3 JUMPI RETURNDATASIZE PUSH1 0x0 DUP1 RETURNDATACOPY RETURNDATASIZE PUSH1 0x0 REVERT JUMPDEST POP POP POP POP PUSH1 0x40 MLOAD RETURNDATASIZE PUSH1 0x1F NOT PUSH1 0x1F DUP3 ADD AND DUP3 ADD DUP1 PUSH1 0x40 MSTORE POP DUP2 ADD SWAP1 PUSH2 0x1DF7 SWAP2 SWAP1 PUSH2 0x31E3 JUMP JUMPDEST POP PUSH1 0x0 DUP1 PUSH1 0x0 DUP1 PUSH2 0x1E06 PUSH2 0x238D JUMP JUMPDEST SWAP4 POP SWAP4 POP SWAP4 POP SWAP4 POP PUSH1 0x0 DUP5 GT DUP1 ISZERO PUSH2 0x1E1E JUMPI POP PUSH1 0x0 DUP4 GT JUMPDEST DUP1 ISZERO PUSH2 0x1E2A JUMPI POP PUSH1 0x0 DUP2 GT JUMPDEST PUSH2 0x1E69 JUMPI PUSH1 0x40 MLOAD PUSH32 0x8C379A000000000000000000000000000000000000000000000000000000000 DUP2 MSTORE PUSH1 0x4 ADD PUSH2 0x1E60 SWAP1 PUSH2 0x37D0 JUMP JUMPDEST PUSH1 0x40 MLOAD DUP1 SWAP2 SUB SWAP1 REVERT JUMPDEST PUSH2 0x1E72 DUP8 PUSH2 0x2672 JUMP JUMPDEST POP PUSH1 0x0 PUSH2 0x1E80 DUP9 DUP7 DUP7 PUSH2 0x2763 JUMP JUMPDEST SWAP1 POP DUP1 PUSH1 0x5 PUSH1 0x0 DUP3 DUP3 SLOAD PUSH2 0x1E94 SWAP2 SWAP1 PUSH2 0x2DAE JUMP JUMPDEST SWAP3 POP POP DUP2 SWAP1 SSTORE POP DUP1 PUSH1 0x4 PUSH1 0x0 DUP3 DUP3 SLOAD PUSH2 0x1EAD SWAP2 SWAP1 PUSH2 0x2DAE JUMP JUMPDEST SWAP3 POP POP DUP2 SWAP1 SSTORE POP PUSH1 0x0 TIMESTAMP SWAP1 POP DUP1 DUP10 DUP4 PUSH32 0xB5AEB7B225999ADC33232BE2121AFB1A366C15108C1DA745D17FD76108172FE4 DUP10 DUP10 DUP9 DUP11 PUSH1 0x40 MLOAD PUSH2 0x1EF1 SWAP5 SWAP4 SWAP3 SWAP2 SWAP1 PUSH2 0x37F0 JUMP JUMPDEST PUSH1 0x40 MLOAD DUP1 SWAP2 SUB SWAP1 LOG4 PUSH1 0x1 SWAP8 POP POP POP POP POP POP POP POP SWAP2 SWAP1 POP JUMP JUMPDEST PUSH2 0x1F11 PUSH2 0x20F3 JUMP JUMPDEST PUSH1 0x0 PUSH20 0xFFFFFFFFFFFFFFFFFFFFFFFFFFFFFFFFFFFFFFFF AND DUP2 PUSH20 0xFFFFFFFFFFFFFFFFFFFFFFFFFFFFFFFFFFFFFFFF AND SUB PUSH2 0x1F80 JUMPI PUSH1 0x40 MLOAD PUSH32 0x8C379A000000000000000000000000000000000000000000000000000000000 DUP2 MSTORE PUSH1 0x4 ADD PUSH2 0x1F77 SWAP1 PUSH2 0x38AE JUMP JUMPDEST PUSH1 0x40 MLOAD DUP1 SWAP2 SUB SWAP1 REVERT JUMPDEST PUSH2 0x1F89 DUP2 PUSH2 0x22C8 JUMP JUMPDEST POP JUMP JUMPDEST PUSH1 0x0 DUP1 PUSH20 0xFFFFFFFFFFFFFFFFFFFFFFFFFFFFFFFFFFFFFFFF AND PUSH1 0x2 PUSH1 0x0 SWAP1 SLOAD SWAP1 PUSH2 0x100 EXP SWAP1 DIV PUSH20 0xFFFFFFFFFFFFFFFFFFFFFFFFFFFFFFFFFFFFFFFF AND PUSH20 0xFFFFFFFFFFFFFFFFFFFFFFFFFFFFFFFFFFFFFFFF AND SUB PUSH2 0x201E JUMPI PUSH1 0x40 MLOAD PUSH32 0x8C379A000000000000000000000000000000000000000000000000000000000 DUP2 MSTORE PUSH1 0x4 ADD PUSH2 0x2015 SWAP1 PUSH2 0x2E2E JUMP JUMPDEST PUSH1 0x40 MLOAD DUP1 SWAP2 SUB SWAP1 REVERT JUMPDEST PUSH1 0x2 PUSH1 0x0 SWAP1 SLOAD SWAP1 PUSH2 0x100 EXP SWAP1 DIV PUSH20 0xFFFFFFFFFFFFFFFFFFFFFFFFFFFFFFFFFFFFFFFF AND PUSH20 0xFFFFFFFFFFFFFFFFFFFFFFFFFFFFFFFFFFFFFFFF AND CALLER PUSH20 0xFFFFFFFFFFFFFFFFFFFFFFFFFFFFFFFFFFFFFFFF AND EQ DUP1 PUSH2 0x20AC JUMPI POP PUSH2 0x207D PUSH2 0x12E8 JUMP JUMPDEST PUSH20 0xFFFFFFFFFFFFFFFFFFFFFFFFFFFFFFFFFFFFFFFF AND CALLER PUSH20 0xFFFFFFFFFFFFFFFFFFFFFFFFFFFFFFFFFFFFFFFF AND EQ JUMPDEST PUSH2 0x20EB JUMPI PUSH1 0x40 MLOAD PUSH32 0x8C379A000000000000000000000000000000000000000000000000000000000 DUP2 MSTORE PUSH1 0x4 ADD PUSH2 0x20E2 SWAP1 PUSH2 0x302A JUMP JUMPDEST PUSH1 0x40 MLOAD DUP1 SWAP2 SUB SWAP1 REVERT JUMPDEST PUSH1 0x5 SLOAD SWAP1 POP SWAP1 JUMP JUMPDEST PUSH2 0x20FB PUSH2 0x2791 JUMP JUMPDEST PUSH20 0xFFFFFFFFFFFFFFFFFFFFFFFFFFFFFFFFFFFFFFFF AND PUSH2 0x2119 PUSH2 0x12E8 JUMP JUMPDEST PUSH20 0xFFFFFFFFFFFFFFFFFFFFFFFFFFFFFFFFFFFFFFFF AND EQ PUSH2 0x216F JUMPI PUSH1 0x40 MLOAD PUSH32 0x8C379A000000000000000000000000000000000000000000000000000000000 DUP2 MSTORE PUSH1 0x4 ADD PUSH2 0x2166 SWAP1 PUSH2 0x391A JUMP JUMPDEST PUSH1 0x40 MLOAD DUP1 SWAP2 SUB SWAP1 REVERT JUMPDEST JUMP JUMPDEST PUSH2 0x2179 PUSH2 0xF53 JUMP JUMPDEST PUSH2 0x21B8 JUMPI PUSH1 0x40 MLOAD PUSH32 0x8C379A000000000000000000000000000000000000000000000000000000000 DUP2 MSTORE PUSH1 0x4 ADD PUSH2 0x21AF SWAP1 PUSH2 0x3986 JUMP JUMPDEST PUSH1 0x40 MLOAD DUP1 SWAP2 SUB SWAP1 REVERT JUMPDEST JUMP JUMPDEST PUSH2 0x21C2 PUSH2 0x2171 JUMP JUMPDEST PUSH1 0x0 DUP1 PUSH1 0x0 PUSH2 0x100 EXP DUP2 SLOAD DUP2 PUSH1 0xFF MUL NOT AND SWAP1 DUP4 ISZERO ISZERO MUL OR SWAP1 SSTORE POP PUSH32 0x5DB9EE0A495BF2E6FF9C91A7834C1BA4FDD244A5E8AA4E537BD38AEAE4B073AA PUSH2 0x2205 PUSH2 0x2791 JUMP JUMPDEST PUSH1 0x40 MLOAD PUSH2 0x2212 SWAP2 SWAP1 PUSH2 0x2890 JUMP JUMPDEST PUSH1 0x40 MLOAD DUP1 SWAP2 SUB SWAP1 LOG1 JUMP JUMPDEST PUSH2 0x2224 PUSH2 0xF53 JUMP JUMPDEST ISZERO PUSH2 0x2264 JUMPI PUSH1 0x40 MLOAD PUSH32 0x8C379A000000000000000000000000000000000000000000000000000000000 DUP2 MSTORE PUSH1 0x4 ADD PUSH2 0x225B SWAP1 PUSH2 0x39F2 JUMP JUMPDEST PUSH1 0x40 MLOAD DUP1 SWAP2 SUB SWAP1 REVERT JUMPDEST JUMP JUMPDEST PUSH2 0x226E PUSH2 0x221C JUMP JUMPDEST PUSH1 0x1 PUSH1 0x0 DUP1 PUSH2 0x100 EXP DUP2 SLOAD DUP2 PUSH1 0xFF MUL NOT AND SWAP1 DUP4 ISZERO ISZERO MUL OR SWAP1 SSTORE POP PUSH32 0x62E78CEA01BEE320CD4E420270B5EA74000D11B0C9F74754EBDBFC544B05A258 PUSH2 0x22B1 PUSH2 0x2791 JUMP JUMPDEST PUSH1 0x40 MLOAD PUSH2 0x22BE SWAP2 SWAP1 PUSH2 0x2890 JUMP JUMPDEST PUSH1 0x40 MLOAD DUP1 SWAP2 SUB SWAP1 LOG1 JUMP JUMPDEST PUSH1 0x0 DUP1 PUSH1 0x1 SWAP1 SLOAD SWAP1 PUSH2 0x100 EXP SWAP1 DIV PUSH20 0xFFFFFFFFFFFFFFFFFFFFFFFFFFFFFFFFFFFFFFFF AND SWAP1 POP DUP2 PUSH1 0x0 PUSH1 0x1 PUSH2 0x100 EXP DUP2 SLOAD DUP2 PUSH20 0xFFFFFFFFFFFFFFFFFFFFFFFFFFFFFFFFFFFFFFFF MUL NOT AND SWAP1 DUP4 PUSH20 0xFFFFFFFFFFFFFFFFFFFFFFFFFFFFFFFFFFFFFFFF AND MUL OR SWAP1 SSTORE POP DUP2 PUSH20 0xFFFFFFFFFFFFFFFFFFFFFFFFFFFFFFFFFFFFFFFF AND DUP2 PUSH20 0xFFFFFFFFFFFFFFFFFFFFFFFFFFFFFFFFFFFFFFFF AND PUSH32 0x8BE0079C531659141344CD1FD0A4F28419497F9722A3DAAFE3B4186F6B6457E0 PUSH1 0x40 MLOAD PUSH1 0x40 MLOAD DUP1 SWAP2 SUB SWAP1 LOG3 POP POP JUMP JUMPDEST PUSH1 0x0 DUP1 PUSH1 0x60 PUSH1 0x0 PUSH1 0x2 PUSH1 0x14 SWAP1 SLOAD SWAP1 PUSH2 0x100 EXP SWAP1 DIV PUSH1 0xFF AND ISZERO PUSH2 0x2458 JUMPI PUSH1 0x2 PUSH1 0x14 SWAP1 SLOAD SWAP1 PUSH2 0x100 EXP SWAP1 DIV PUSH1 0xFF AND DUP1 ISZERO PUSH2 0x2414 JUMPI POP PUSH1 0x0 PUSH20 0xFFFFFFFFFFFFFFFFFFFFFFFFFFFFFFFFFFFFFFFF AND PUSH1 0x8 PUSH1 0x0 SWAP1 SLOAD SWAP1 PUSH2 0x100 EXP SWAP1 DIV PUSH20 0xFFFFFFFFFFFFFFFFFFFFFFFFFFFFFFFFFFFFFFFF AND PUSH20 0xFFFFFFFFFFFFFFFFFFFFFFFFFFFFFFFFFFFFFFFF AND EQ ISZERO JUMPDEST PUSH2 0x2453 JUMPI PUSH1 0x40 MLOAD PUSH32 0x8C379A000000000000000000000000000000000000000000000000000000000 DUP2 MSTORE PUSH1 0x4 ADD PUSH2 0x244A SWAP1 PUSH2 0x35E2 JUMP JUMPDEST PUSH1 0x40 MLOAD DUP1 SWAP2 SUB SWAP1 REVERT JUMPDEST PUSH2 0x2503 JUMP JUMPDEST PUSH1 0x2 PUSH1 0x14 SWAP1 SLOAD SWAP1 PUSH2 0x100 EXP SWAP1 DIV PUSH1 0xFF AND DUP1 ISZERO PUSH2 0x24C3 JUMPI POP PUSH1 0x0 PUSH20 0xFFFFFFFFFFFFFFFFFFFFFFFFFFFFFFFFFFFFFFFF AND PUSH1 0x7 PUSH1 0x0 SWAP1 SLOAD SWAP1 PUSH2 0x100 EXP SWAP1 DIV PUSH20 0xFFFFFFFFFFFFFFFFFFFFFFFFFFFFFFFFFFFFFFFF AND PUSH20 0xFFFFFFFFFFFFFFFFFFFFFFFFFFFFFFFFFFFFFFFF AND EQ ISZERO JUMPDEST PUSH2 0x2502 JUMPI PUSH1 0x40 MLOAD PUSH32 0x8C379A000000000000000000000000000000000000000000000000000000000 DUP2 MSTORE PUSH1 0x4 ADD PUSH2 0x24F9 SWAP1 PUSH2 0x3576 JUMP JUMPDEST PUSH1 0x40 MLOAD DUP1 SWAP2 SUB SWAP1 REVERT JUMPDEST JUMPDEST PUSH1 0x0 DUP1 PUSH1 0x0 DUP1 PUSH1 0x2 PUSH1 0x14 SWAP1 SLOAD SWAP1 PUSH2 0x100 EXP SWAP1 DIV PUSH1 0xFF AND ISZERO PUSH2 0x25BB JUMPI PUSH1 0x8 PUSH1 0x0 SWAP1 SLOAD SWAP1 PUSH2 0x100 EXP SWAP1 DIV PUSH20 0xFFFFFFFFFFFFFFFFFFFFFFFFFFFFFFFFFFFFFFFF AND PUSH20 0xFFFFFFFFFFFFFFFFFFFFFFFFFFFFFFFFFFFFFFFF AND PUSH4 0x454D1256 PUSH1 0x40 MLOAD DUP2 PUSH4 0xFFFFFFFF AND PUSH1 0xE0 SHL DUP2 MSTORE PUSH1 0x4 ADD PUSH1 0x0 PUSH1 0x40 MLOAD DUP1 DUP4 SUB DUP2 PUSH1 0x0 DUP8 GAS CALL ISZERO DUP1 ISZERO PUSH2 0x258D JUMPI RETURNDATASIZE PUSH1 0x0 DUP1 RETURNDATACOPY RETURNDATASIZE PUSH1 0x0 REVERT JUMPDEST POP POP POP POP PUSH1 0x40 MLOAD RETURNDATASIZE PUSH1 0x0 DUP3 RETURNDATACOPY RETURNDATASIZE PUSH1 0x1F NOT PUSH1 0x1F DUP3 ADD AND DUP3 ADD DUP1 PUSH1 0x40 MSTORE POP DUP2 ADD SWAP1 PUSH2 0x25B6 SWAP2 SWAP1 PUSH2 0x3B38 JUMP JUMPDEST PUSH2 0x2654 JUMP JUMPDEST PUSH1 0x7 PUSH1 0x0 SWAP1 SLOAD SWAP1 PUSH2 0x100 EXP SWAP1 DIV PUSH20 0xFFFFFFFFFFFFFFFFFFFFFFFFFFFFFFFFFFFFFFFF AND PUSH20 0xFFFFFFFFFFFFFFFFFFFFFFFFFFFFFFFFFFFFFFFF AND PUSH4 0xE1E7FF77 PUSH1 0x40 MLOAD DUP2 PUSH4 0xFFFFFFFF AND PUSH1 0xE0 SHL DUP2 MSTORE PUSH1 0x4 ADD PUSH1 0x0 PUSH1 0x40 MLOAD DUP1 DUP4 SUB DUP2 PUSH1 0x0 DUP8 GAS CALL ISZERO DUP1 ISZERO PUSH2 0x262A JUMPI RETURNDATASIZE PUSH1 0x0 DUP1 RETURNDATACOPY RETURNDATASIZE PUSH1 0x0 REVERT JUMPDEST POP POP POP POP PUSH1 0x40 MLOAD RETURNDATASIZE PUSH1 0x0 DUP3 RETURNDATACOPY RETURNDATASIZE PUSH1 0x1F NOT PUSH1 0x1F DUP3 ADD AND DUP3 ADD DUP1 PUSH1 0x40 MSTORE POP DUP2 ADD SWAP1 PUSH2 0x2653 SWAP2 SWAP1 PUSH2 0x3B38 JUMP JUMPDEST JUMPDEST SWAP4 POP SWAP4 POP SWAP4 POP SWAP4 POP DUP4 DUP4 DUP4 DUP4 SWAP8 POP SWAP8 POP SWAP8 POP SWAP8 POP POP POP POP POP SWAP1 SWAP2 SWAP3 SWAP4 JUMP JUMPDEST PUSH1 0x0 DUP1 DUP3 GT PUSH2 0x26B6 JUMPI PUSH1 0x40 MLOAD PUSH32 0x8C379A000000000000000000000000000000000000000000000000000000000 DUP2 MSTORE PUSH1 0x4 ADD PUSH2 0x26AD SWAP1 PUSH2 0x3C07 JUMP JUMPDEST PUSH1 0x40 MLOAD DUP1 SWAP2 SUB SWAP1 REVERT JUMPDEST PUSH32 0x0 PUSH20 0xFFFFFFFFFFFFFFFFFFFFFFFFFFFFFFFFFFFFFFFF AND PUSH4 0x42966C68 DUP4 PUSH1 0x40 MLOAD DUP3 PUSH4 0xFFFFFFFF AND PUSH1 0xE0 SHL DUP2 MSTORE PUSH1 0x4 ADD PUSH2 0x270F SWAP2 SWAP1 PUSH2 0x28E7 JUMP JUMPDEST PUSH1 0x0 PUSH1 0x40 MLOAD DUP1 DUP4 SUB DUP2 PUSH1 0x0 DUP8 DUP1 EXTCODESIZE ISZERO DUP1 ISZERO PUSH2 0x2729 JUMPI PUSH1 0x0 DUP1 REVERT JUMPDEST POP GAS CALL ISZERO DUP1 ISZERO PUSH2 0x273D JUMPI RETURNDATASIZE PUSH1 0x0 DUP1 RETURNDATACOPY RETURNDATASIZE PUSH1 0x0 REVERT JUMPDEST POP POP POP POP DUP2 PUSH1 0x3 PUSH1 0x0 DUP3 DUP3 SLOAD PUSH2 0x2753 SWAP2 SWAP1 PUSH2 0x2DAE JUMP JUMPDEST SWAP3 POP POP DUP2 SWAP1 SSTORE POP PUSH1 0x1 SWAP1 POP SWAP2 SWAP1 POP JUMP JUMPDEST PUSH1 0x0 DUP2 PUSH1 0xA PUSH2 0x2772 SWAP2 SWAP1 PUSH2 0x3417 JUMP JUMPDEST DUP4 DUP6 PUSH2 0x277E SWAP2 SWAP1 PUSH2 0x3462 JUMP JUMPDEST PUSH2 0x2788 SWAP2 SWAP1 PUSH2 0x34D3 JUMP JUMPDEST SWAP1 POP SWAP4 SWAP3 POP POP POP JUMP JUMPDEST PUSH1 0x0 CALLER SWAP1 POP SWAP1 JUMP JUMPDEST PUSH1 0x0 PUSH1 0x40 MLOAD SWAP1 POP SWAP1 JUMP JUMPDEST PUSH1 0x0 DUP1 REVERT JUMPDEST PUSH1 0x0 DUP1 REVERT JUMPDEST PUSH1 0x0 DUP2 SWAP1 POP SWAP2 SWAP1 POP JUMP JUMPDEST PUSH2 0x27C0 DUP2 PUSH2 0x27AD JUMP JUMPDEST DUP2 EQ PUSH2 0x27CB JUMPI PUSH1 0x0 DUP1 REVERT JUMPDEST POP JUMP JUMPDEST PUSH1 0x0 DUP2 CALLDATALOAD SWAP1 POP PUSH2 0x27DD DUP2 PUSH2 0x27B7 JUMP JUMPDEST SWAP3 SWAP2 POP POP JUMP JUMPDEST PUSH1 0x0 PUSH20 0xFFFFFFFFFFFFFFFFFFFFFFFFFFFFFFFFFFFFFFFF DUP3 AND SWAP1 POP SWAP2 SWAP1 POP JUMP JUMPDEST PUSH1 0x0 PUSH2 0x280E DUP3 PUSH2 0x27E3 JUMP JUMPDEST SWAP1 POP SWAP2 SWAP1 POP JUMP JUMPDEST PUSH2 0x281E DUP2 PUSH2 0x2803 JUMP JUMPDEST DUP2 EQ PUSH2 0x2829 JUMPI PUSH1 0x0 DUP1 REVERT JUMPDEST POP JUMP JUMPDEST PUSH1 0x0 DUP2 CALLDATALOAD SWAP1 POP PUSH2 0x283B DUP2 PUSH2 0x2815 JUMP JUMPDEST SWAP3 SWAP2 POP POP JUMP JUMPDEST PUSH1 0x0 DUP1 PUSH1 0x40 DUP4 DUP6 SUB SLT ISZERO PUSH2 0x2858 JUMPI PUSH2 0x2857 PUSH2 0x27A3 JUMP JUMPDEST JUMPDEST PUSH1 0x0 PUSH2 0x2866 DUP6 DUP3 DUP7 ADD PUSH2 0x27CE JUMP JUMPDEST SWAP3 POP POP PUSH1 0x20 PUSH2 0x2877 DUP6 DUP3 DUP7 ADD PUSH2 0x282C JUMP JUMPDEST SWAP2 POP POP SWAP3 POP SWAP3 SWAP1 POP JUMP JUMPDEST PUSH2 0x288A DUP2 PUSH2 0x2803 JUMP JUMPDEST DUP3 MSTORE POP POP JUMP JUMPDEST PUSH1 0x0 PUSH1 0x20 DUP3 ADD SWAP1 POP PUSH2 0x28A5 PUSH1 0x0 DUP4 ADD DUP5 PUSH2 0x2881 JUMP JUMPDEST SWAP3 SWAP2 POP POP JUMP JUMPDEST PUSH1 0x0 PUSH1 0x20 DUP3 DUP5 SUB SLT ISZERO PUSH2 0x28C1 JUMPI PUSH2 0x28C0 PUSH2 0x27A3 JUMP JUMPDEST JUMPDEST PUSH1 0x0 PUSH2 0x28CF DUP5 DUP3 DUP6 ADD PUSH2 0x282C JUMP JUMPDEST SWAP2 POP POP SWAP3 SWAP2 POP POP JUMP JUMPDEST PUSH2 0x28E1 DUP2 PUSH2 0x27AD JUMP JUMPDEST DUP3 MSTORE POP POP JUMP JUMPDEST PUSH1 0x0 PUSH1 0x20 DUP3 ADD SWAP1 POP PUSH2 0x28FC PUSH1 0x0 DUP4 ADD DUP5 PUSH2 0x28D8 JUMP JUMPDEST SWAP3 SWAP2 POP POP JUMP JUMPDEST PUSH1 0x0 DUP2 ISZERO ISZERO SWAP1 POP SWAP2 SWAP1 POP JUMP JUMPDEST PUSH2 0x2917 DUP2 PUSH2 0x2902 JUMP JUMPDEST DUP3 MSTORE POP POP JUMP JUMPDEST PUSH1 0x0 PUSH1 0x20 DUP3 ADD SWAP1 POP PUSH2 0x2932 PUSH1 0x0 DUP4 ADD DUP5 PUSH2 0x290E JUMP JUMPDEST SWAP3 SWAP2 POP POP JUMP JUMPDEST PUSH1 0x0 DUP1 PUSH1 0x0 PUSH1 0x60 DUP5 DUP7 SUB SLT ISZERO PUSH2 0x2951 JUMPI PUSH2 0x2950 PUSH2 0x27A3 JUMP JUMPDEST JUMPDEST PUSH1 0x0 PUSH2 0x295F DUP7 DUP3 DUP8 ADD PUSH2 0x282C JUMP JUMPDEST SWAP4 POP POP PUSH1 0x20 PUSH2 0x2970 DUP7 DUP3 DUP8 ADD PUSH2 0x282C JUMP JUMPDEST SWAP3 POP POP PUSH1 0x40 PUSH2 0x2981 DUP7 DUP3 DUP8 ADD PUSH2 0x27CE JUMP JUMPDEST SWAP2 POP POP SWAP3 POP SWAP3 POP SWAP3 JUMP JUMPDEST PUSH1 0x0 DUP1 PUSH1 0x0 PUSH1 0x60 DUP5 DUP7 SUB SLT ISZERO PUSH2 0x29A4 JUMPI PUSH2 0x29A3 PUSH2 0x27A3 JUMP JUMPDEST JUMPDEST PUSH1 0x0 PUSH2 0x29B2 DUP7 DUP3 DUP8 ADD PUSH2 0x27CE JUMP JUMPDEST SWAP4 POP POP PUSH1 0x20 PUSH2 0x29C3 DUP7 DUP3 DUP8 ADD PUSH2 0x27CE JUMP JUMPDEST SWAP3 POP POP PUSH1 0x40 PUSH2 0x29D4 DUP7 DUP3 DUP8 ADD PUSH2 0x27CE JUMP JUMPDEST SWAP2 POP POP SWAP3 POP SWAP3 POP SWAP3 JUMP JUMPDEST PUSH1 0x0 DUP2 MLOAD SWAP1 POP SWAP2 SWAP1 POP JUMP JUMPDEST PUSH1 0x0 DUP3 DUP3 MSTORE PUSH1 0x20 DUP3 ADD SWAP1 POP SWAP3 SWAP2 POP POP JUMP JUMPDEST PUSH1 0x0 JUMPDEST DUP4 DUP2 LT ISZERO PUSH2 0x2A18 JUMPI DUP1 DUP3 ADD MLOAD DUP2 DUP5 ADD MSTORE PUSH1 0x20 DUP2 ADD SWAP1 POP PUSH2 0x29FD JUMP JUMPDEST PUSH1 0x0 DUP5 DUP5 ADD MSTORE POP POP POP POP JUMP JUMPDEST PUSH1 0x0 PUSH1 0x1F NOT PUSH1 0x1F DUP4 ADD AND SWAP1 POP SWAP2 SWAP1 POP JUMP JUMPDEST PUSH1 0x0 PUSH2 0x2A40 DUP3 PUSH2 0x29DE JUMP JUMPDEST PUSH2 0x2A4A DUP2 DUP6 PUSH2 0x29E9 JUMP JUMPDEST SWAP4 POP PUSH2 0x2A5A DUP2 DUP6 PUSH1 0x20 DUP7 ADD PUSH2 0x29FA JUMP JUMPDEST PUSH2 0x2A63 DUP2 PUSH2 0x2A24 JUMP JUMPDEST DUP5 ADD SWAP2 POP POP SWAP3 SWAP2 POP POP JUMP JUMPDEST PUSH1 0x0 PUSH1 0x40 DUP3 ADD SWAP1 POP PUSH2 0x2A83 PUSH1 0x0 DUP4 ADD DUP6 PUSH2 0x2881 JUMP JUMPDEST DUP2 DUP2 SUB PUSH1 0x20 DUP4 ADD MSTORE PUSH2 0x2A95 DUP2 DUP5 PUSH2 0x2A35 JUMP JUMPDEST SWAP1 POP SWAP4 SWAP3 POP POP POP JUMP JUMPDEST PUSH1 0x0 PUSH1 0x20 DUP3 ADD SWAP1 POP DUP2 DUP2 SUB PUSH1 0x0 DUP4 ADD MSTORE PUSH2 0x2AB8 DUP2 DUP5 PUSH2 0x2A35 JUMP JUMPDEST SWAP1 POP SWAP3 SWAP2 POP POP JUMP JUMPDEST PUSH1 0x0 PUSH1 0x20 DUP3 DUP5 SUB SLT ISZERO PUSH2 0x2AD6 JUMPI PUSH2 0x2AD5 PUSH2 0x27A3 JUMP JUMPDEST JUMPDEST PUSH1 0x0 PUSH2 0x2AE4 DUP5 DUP3 DUP6 ADD PUSH2 0x27CE JUMP JUMPDEST SWAP2 POP POP SWAP3 SWAP2 POP POP JUMP JUMPDEST PUSH32 0x4E487B7100000000000000000000000000000000000000000000000000000000 PUSH1 0x0 MSTORE PUSH1 0x11 PUSH1 0x4 MSTORE PUSH1 0x24 PUSH1 0x0 REVERT JUMPDEST PUSH1 0x0 PUSH2 0x2B27 DUP3 PUSH2 0x27AD JUMP JUMPDEST SWAP2 POP PUSH2 0x2B32 DUP4 PUSH2 0x27AD JUMP JUMPDEST SWAP3 POP DUP3 DUP3 SUB SWAP1 POP DUP2 DUP2 GT ISZERO PUSH2 0x2B4A JUMPI PUSH2 0x2B49 PUSH2 0x2AED JUMP JUMPDEST JUMPDEST SWAP3 SWAP2 POP POP JUMP JUMPDEST PUSH1 0x0 DUP2 SWAP1 POP SWAP3 SWAP2 POP POP JUMP JUMPDEST PUSH32 0x4E6F7420656E6F75676820706F696E74732E2054686520636F6E747261637420 PUSH1 0x0 DUP3 ADD MSTORE PUSH32 0x6D75737420626520636861726765642077697468206D6F726520000000000000 PUSH1 0x20 DUP3 ADD MSTORE POP JUMP JUMPDEST PUSH1 0x0 PUSH2 0x2BB7 PUSH1 0x3A DUP4 PUSH2 0x2B50 JUMP JUMPDEST SWAP2 POP PUSH2 0x2BC2 DUP3 PUSH2 0x2B5B JUMP JUMPDEST PUSH1 0x3A DUP3 ADD SWAP1 POP SWAP2 SWAP1 POP JUMP JUMPDEST PUSH32 0x4E487B7100000000000000000000000000000000000000000000000000000000 PUSH1 0x0 MSTORE PUSH1 0x22 PUSH1 0x4 MSTORE PUSH1 0x24 PUSH1 0x0 REVERT JUMPDEST PUSH1 0x0 PUSH1 0x2 DUP3 DIV SWAP1 POP PUSH1 0x1 DUP3 AND DUP1 PUSH2 0x2C14 JUMPI PUSH1 0x7F DUP3 AND SWAP2 POP JUMPDEST PUSH1 0x20 DUP3 LT DUP2 SUB PUSH2 0x2C27 JUMPI PUSH2 0x2C26 PUSH2 0x2BCD JUMP JUMPDEST JUMPDEST POP SWAP2 SWAP1 POP JUMP JUMPDEST PUSH1 0x0 DUP2 SWAP1 POP DUP2 PUSH1 0x0 MSTORE PUSH1 0x20 PUSH1 0x0 KECCAK256 SWAP1 POP SWAP2 SWAP1 POP JUMP JUMPDEST PUSH1 0x0 DUP2 SLOAD PUSH2 0x2C4F DUP2 PUSH2 0x2BFC JUMP JUMPDEST PUSH2 0x2C59 DUP2 DUP7 PUSH2 0x2B50 JUMP JUMPDEST SWAP5 POP PUSH1 0x1 DUP3 AND PUSH1 0x0 DUP2 EQ PUSH2 0x2C74 JUMPI PUSH1 0x1 DUP2 EQ PUSH2 0x2C89 JUMPI PUSH2 0x2CBC JUMP JUMPDEST PUSH1 0xFF NOT DUP4 AND DUP7 MSTORE DUP2 ISZERO ISZERO DUP3 MUL DUP7 ADD SWAP4 POP PUSH2 0x2CBC JUMP JUMPDEST PUSH2 0x2C92 DUP6 PUSH2 0x2C2D JUMP JUMPDEST PUSH1 0x0 JUMPDEST DUP4 DUP2 LT ISZERO PUSH2 0x2CB4 JUMPI DUP2 SLOAD DUP2 DUP10 ADD MSTORE PUSH1 0x1 DUP3 ADD SWAP2 POP PUSH1 0x20 DUP2 ADD SWAP1 POP PUSH2 0x2C95 JUMP JUMPDEST DUP4 DUP9 ADD SWAP6 POP POP POP JUMPDEST POP POP POP SWAP3 SWAP2 POP POP JUMP JUMPDEST PUSH32 0x2100000000000000000000000000000000000000000000000000000000000000 DUP2 MSTORE POP JUMP JUMPDEST PUSH1 0x0 PUSH2 0x2CF6 DUP3 PUSH2 0x2BAA JUMP JUMPDEST SWAP2 POP PUSH2 0x2D02 DUP3 DUP5 PUSH2 0x2C42 JUMP JUMPDEST SWAP2 POP PUSH2 0x2D0D DUP3 PUSH2 0x2CC5 JUMP JUMPDEST PUSH1 0x1 DUP3 ADD SWAP2 POP DUP2 SWAP1 POP SWAP3 SWAP2 POP POP JUMP JUMPDEST PUSH32 0x57697468647261772076616C7565206D75737420626520677265617465722074 PUSH1 0x0 DUP3 ADD MSTORE PUSH32 0x68616E2030210000000000000000000000000000000000000000000000000000 PUSH1 0x20 DUP3 ADD MSTORE POP JUMP JUMPDEST PUSH1 0x0 PUSH2 0x2D78 PUSH1 0x26 DUP4 PUSH2 0x29E9 JUMP JUMPDEST SWAP2 POP PUSH2 0x2D83 DUP3 PUSH2 0x2D1C JUMP JUMPDEST PUSH1 0x40 DUP3 ADD SWAP1 POP SWAP2 SWAP1 POP JUMP JUMPDEST PUSH1 0x0 PUSH1 0x20 DUP3 ADD SWAP1 POP DUP2 DUP2 SUB PUSH1 0x0 DUP4 ADD MSTORE PUSH2 0x2DA7 DUP2 PUSH2 0x2D6B JUMP JUMPDEST SWAP1 POP SWAP2 SWAP1 POP JUMP JUMPDEST PUSH1 0x0 PUSH2 0x2DB9 DUP3 PUSH2 0x27AD JUMP JUMPDEST SWAP2 POP PUSH2 0x2DC4 DUP4 PUSH2 0x27AD JUMP JUMPDEST SWAP3 POP DUP3 DUP3 ADD SWAP1 POP DUP1 DUP3 GT ISZERO PUSH2 0x2DDC JUMPI PUSH2 0x2DDB PUSH2 0x2AED JUMP JUMPDEST JUMPDEST SWAP3 SWAP2 POP POP JUMP JUMPDEST PUSH32 0x4E6F742061637469766174656421000000000000000000000000000000000000 PUSH1 0x0 DUP3 ADD MSTORE POP JUMP JUMPDEST PUSH1 0x0 PUSH2 0x2E18 PUSH1 0xE DUP4 PUSH2 0x29E9 JUMP JUMPDEST SWAP2 POP PUSH2 0x2E23 DUP3 PUSH2 0x2DE2 JUMP JUMPDEST PUSH1 0x20 DUP3 ADD SWAP1 POP SWAP2 SWAP1 POP JUMP JUMPDEST PUSH1 0x0 PUSH1 0x20 DUP3 ADD SWAP1 POP DUP2 DUP2 SUB PUSH1 0x0 DUP4 ADD MSTORE PUSH2 0x2E47 DUP2 PUSH2 0x2E0B JUMP JUMPDEST SWAP1 POP SWAP2 SWAP1 POP JUMP JUMPDEST PUSH32 0x4E6F7420417574686F72697A6564210000000000000000000000000000000000 PUSH1 0x0 DUP3 ADD MSTORE POP JUMP JUMPDEST PUSH1 0x0 PUSH2 0x2E84 PUSH1 0xF DUP4 PUSH2 0x29E9 JUMP JUMPDEST SWAP2 POP PUSH2 0x2E8F DUP3 PUSH2 0x2E4E JUMP JUMPDEST PUSH1 0x20 DUP3 ADD SWAP1 POP SWAP2 SWAP1 POP JUMP JUMPDEST PUSH1 0x0 PUSH1 0x20 DUP3 ADD SWAP1 POP DUP2 DUP2 SUB PUSH1 0x0 DUP4 ADD MSTORE PUSH2 0x2EB3 DUP2 PUSH2 0x2E77 JUMP JUMPDEST SWAP1 POP SWAP2 SWAP1 POP JUMP JUMPDEST PUSH32 0x43616E2774206163746976617465207769746820746869732061646472657373 PUSH1 0x0 DUP3 ADD MSTORE PUSH32 0x2100000000000000000000000000000000000000000000000000000000000000 PUSH1 0x20 DUP3 ADD MSTORE POP JUMP JUMPDEST PUSH1 0x0 PUSH2 0x2F16 PUSH1 0x21 DUP4 PUSH2 0x29E9 JUMP JUMPDEST SWAP2 POP PUSH2 0x2F21 DUP3 PUSH2 0x2EBA JUMP JUMPDEST PUSH1 0x40 DUP3 ADD SWAP1 POP SWAP2 SWAP1 POP JUMP JUMPDEST PUSH1 0x0 PUSH1 0x20 DUP3 ADD SWAP1 POP DUP2 DUP2 SUB PUSH1 0x0 DUP4 ADD MSTORE PUSH2 0x2F45 DUP2 PUSH2 0x2F09 JUMP JUMPDEST SWAP1 POP SWAP2 SWAP1 POP JUMP JUMPDEST PUSH32 0x416C7265616479206163746976617465642E0000000000000000000000000000 PUSH1 0x0 DUP3 ADD MSTORE POP JUMP JUMPDEST PUSH1 0x0 PUSH2 0x2F82 PUSH1 0x12 DUP4 PUSH2 0x29E9 JUMP JUMPDEST SWAP2 POP PUSH2 0x2F8D DUP3 PUSH2 0x2F4C JUMP JUMPDEST PUSH1 0x20 DUP3 ADD SWAP1 POP SWAP2 SWAP1 POP JUMP JUMPDEST PUSH1 0x0 PUSH1 0x20 DUP3 ADD SWAP1 POP DUP2 DUP2 SUB PUSH1 0x0 DUP4 ADD MSTORE PUSH2 0x2FB1 DUP2 PUSH2 0x2F75 JUMP JUMPDEST SWAP1 POP SWAP2 SWAP1 POP JUMP JUMPDEST PUSH32 0x4F6E6C79204F776E6572206F7220417574686F72697A65642070617274696369 PUSH1 0x0 DUP3 ADD MSTORE PUSH32 0x7061746F722063616E206163636573732074686973206F7065726174696F6E21 PUSH1 0x20 DUP3 ADD MSTORE POP JUMP JUMPDEST PUSH1 0x0 PUSH2 0x3014 PUSH1 0x40 DUP4 PUSH2 0x29E9 JUMP JUMPDEST SWAP2 POP PUSH2 0x301F DUP3 PUSH2 0x2FB8 JUMP JUMPDEST PUSH1 0x40 DUP3 ADD SWAP1 POP SWAP2 SWAP1 POP JUMP JUMPDEST PUSH1 0x0 PUSH1 0x20 DUP3 ADD SWAP1 POP DUP2 DUP2 SUB PUSH1 0x0 DUP4 ADD MSTORE PUSH2 0x3043 DUP2 PUSH2 0x3007 JUMP JUMPDEST SWAP1 POP SWAP2 SWAP1 POP JUMP JUMPDEST PUSH32 0x4E6F7468696E6720746F2077697468647261772E000000000000000000000000 PUSH1 0x0 DUP3 ADD MSTORE POP JUMP JUMPDEST PUSH1 0x0 PUSH2 0x3080 PUSH1 0x14 DUP4 PUSH2 0x29E9 JUMP JUMPDEST SWAP2 POP PUSH2 0x308B DUP3 PUSH2 0x304A JUMP JUMPDEST PUSH1 0x20 DUP3 ADD SWAP1 POP SWAP2 SWAP1 POP JUMP JUMPDEST PUSH1 0x0 PUSH1 0x20 DUP3 ADD SWAP1 POP DUP2 DUP2 SUB PUSH1 0x0 DUP4 ADD MSTORE PUSH2 0x30AF DUP2 PUSH2 0x3073 JUMP JUMPDEST SWAP1 POP SWAP2 SWAP1 POP JUMP JUMPDEST PUSH32 0x4E6F7420656E6F7567682062616C616E636520666F7220776974686472617721 PUSH1 0x0 DUP3 ADD MSTORE POP JUMP JUMPDEST PUSH1 0x0 PUSH2 0x30EC PUSH1 0x20 DUP4 PUSH2 0x29E9 JUMP JUMPDEST SWAP2 POP PUSH2 0x30F7 DUP3 PUSH2 0x30B6 JUMP JUMPDEST PUSH1 0x20 DUP3 ADD SWAP1 POP SWAP2 SWAP1 POP JUMP JUMPDEST PUSH1 0x0 PUSH1 0x20 DUP3 ADD SWAP1 POP DUP2 DUP2 SUB PUSH1 0x0 DUP4 ADD MSTORE PUSH2 0x311B DUP2 PUSH2 0x30DF JUMP JUMPDEST SWAP1 POP SWAP2 SWAP1 POP JUMP JUMPDEST PUSH32 0x4E6F7420656E6F7567682062616C616E63652100000000000000000000000000 PUSH1 0x0 DUP3 ADD MSTORE POP JUMP JUMPDEST PUSH1 0x0 PUSH2 0x3158 PUSH1 0x13 DUP4 PUSH2 0x29E9 JUMP JUMPDEST SWAP2 POP PUSH2 0x3163 DUP3 PUSH2 0x3122 JUMP JUMPDEST PUSH1 0x20 DUP3 ADD SWAP1 POP SWAP2 SWAP1 POP JUMP JUMPDEST PUSH1 0x0 PUSH1 0x20 DUP3 ADD SWAP1 POP DUP2 DUP2 SUB PUSH1 0x0 DUP4 ADD MSTORE PUSH2 0x3187 DUP2 PUSH2 0x314B JUMP JUMPDEST SWAP1 POP SWAP2 SWAP1 POP JUMP JUMPDEST PUSH1 0x0 PUSH1 0x40 DUP3 ADD SWAP1 POP PUSH2 0x31A3 PUSH1 0x0 DUP4 ADD DUP6 PUSH2 0x2881 JUMP JUMPDEST PUSH2 0x31B0 PUSH1 0x20 DUP4 ADD DUP5 PUSH2 0x28D8 JUMP JUMPDEST SWAP4 SWAP3 POP POP POP JUMP JUMPDEST PUSH2 0x31C0 DUP2 PUSH2 0x2902 JUMP JUMPDEST DUP2 EQ PUSH2 0x31CB JUMPI PUSH1 0x0 DUP1 REVERT JUMPDEST POP JUMP JUMPDEST PUSH1 0x0 DUP2 MLOAD SWAP1 POP PUSH2 0x31DD DUP2 PUSH2 0x31B7 JUMP JUMPDEST SWAP3 SWAP2 POP POP JUMP JUMPDEST PUSH1 0x0 PUSH1 0x20 DUP3 DUP5 SUB SLT ISZERO PUSH2 0x31F9 JUMPI PUSH2 0x31F8 PUSH2 0x27A3 JUMP JUMPDEST JUMPDEST PUSH1 0x0 PUSH2 0x3207 DUP5 DUP3 DUP6 ADD PUSH2 0x31CE JUMP JUMPDEST SWAP2 POP POP SWAP3 SWAP2 POP POP JUMP JUMPDEST PUSH1 0x0 DUP2 MLOAD SWAP1 POP PUSH2 0x321F DUP2 PUSH2 0x27B7 JUMP JUMPDEST SWAP3 SWAP2 POP POP JUMP JUMPDEST PUSH1 0x0 PUSH1 0x20 DUP3 DUP5 SUB SLT ISZERO PUSH2 0x323B JUMPI PUSH2 0x323A PUSH2 0x27A3 JUMP JUMPDEST JUMPDEST PUSH1 0x0 PUSH2 0x3249 DUP5 DUP3 DUP6 ADD PUSH2 0x3210 JUMP JUMPDEST SWAP2 POP POP SWAP3 SWAP2 POP POP JUMP JUMPDEST PUSH32 0x526174652C20706F696E747320616E6420646563696D616C73206D7573742062 PUSH1 0x0 DUP3 ADD MSTORE PUSH32 0x652067726561746572207468616E207A65726F21000000000000000000000000 PUSH1 0x20 DUP3 ADD MSTORE POP JUMP JUMPDEST PUSH1 0x0 PUSH2 0x32AE PUSH1 0x34 DUP4 PUSH2 0x29E9 JUMP JUMPDEST SWAP2 POP PUSH2 0x32B9 DUP3 PUSH2 0x3252 JUMP JUMPDEST PUSH1 0x40 DUP3 ADD SWAP1 POP SWAP2 SWAP1 POP JUMP JUMPDEST PUSH1 0x0 PUSH1 0x20 DUP3 ADD SWAP1 POP DUP2 DUP2 SUB PUSH1 0x0 DUP4 ADD MSTORE PUSH2 0x32DD DUP2 PUSH2 0x32A1 JUMP JUMPDEST SWAP1 POP SWAP2 SWAP1 POP JUMP JUMPDEST PUSH1 0x0 DUP2 PUSH1 0x1 SHR SWAP1 POP SWAP2 SWAP1 POP JUMP JUMPDEST PUSH1 0x0 DUP1 DUP3 SWAP2 POP DUP4 SWAP1 POP JUMPDEST PUSH1 0x1 DUP6 GT ISZERO PUSH2 0x333B JUMPI DUP1 DUP7 DIV DUP2 GT ISZERO PUSH2 0x3317 JUMPI PUSH2 0x3316 PUSH2 0x2AED JUMP JUMPDEST JUMPDEST PUSH1 0x1 DUP6 AND ISZERO PUSH2 0x3326 JUMPI DUP1 DUP3 MUL SWAP2 POP JUMPDEST DUP1 DUP2 MUL SWAP1 POP PUSH2 0x3334 DUP6 PUSH2 0x32E4 JUMP JUMPDEST SWAP5 POP PUSH2 0x32FB JUMP JUMPDEST SWAP5 POP SWAP5 SWAP3 POP POP POP JUMP JUMPDEST PUSH1 0x0 DUP3 PUSH2 0x3354 JUMPI PUSH1 0x1 SWAP1 POP PUSH2 0x3410 JUMP JUMPDEST DUP2 PUSH2 0x3362 JUMPI PUSH1 0x0 SWAP1 POP PUSH2 0x3410 JUMP JUMPDEST DUP2 PUSH1 0x1 DUP2 EQ PUSH2 0x3378 JUMPI PUSH1 0x2 DUP2 EQ PUSH2 0x3382 JUMPI PUSH2 0x33B1 JUMP JUMPDEST PUSH1 0x1 SWAP2 POP POP PUSH2 0x3410 JUMP JUMPDEST PUSH1 0xFF DUP5 GT ISZERO PUSH2 0x3394 JUMPI PUSH2 0x3393 PUSH2 0x2AED JUMP JUMPDEST JUMPDEST DUP4 PUSH1 0x2 EXP SWAP2 POP DUP5 DUP3 GT ISZERO PUSH2 0x33AB JUMPI PUSH2 0x33AA PUSH2 0x2AED JUMP JUMPDEST JUMPDEST POP PUSH2 0x3410 JUMP JUMPDEST POP PUSH1 0x20 DUP4 LT PUSH2 0x133 DUP4 LT AND PUSH1 0x4E DUP5 LT PUSH1 0xB DUP5 LT AND OR ISZERO PUSH2 0x33E6 JUMPI DUP3 DUP3 EXP SWAP1 POP DUP4 DUP2 GT ISZERO PUSH2 0x33E1 JUMPI PUSH2 0x33E0 PUSH2 0x2AED JUMP JUMPDEST JUMPDEST PUSH2 0x3410 JUMP JUMPDEST PUSH2 0x33F3 DUP5 DUP5 DUP5 PUSH1 0x1 PUSH2 0x32F1 JUMP JUMPDEST SWAP3 POP SWAP1 POP DUP2 DUP5 DIV DUP2 GT ISZERO PUSH2 0x340A JUMPI PUSH2 0x3409 PUSH2 0x2AED JUMP JUMPDEST JUMPDEST DUP2 DUP2 MUL SWAP1 POP JUMPDEST SWAP4 SWAP3 POP POP POP JUMP JUMPDEST PUSH1 0x0 PUSH2 0x3422 DUP3 PUSH2 0x27AD JUMP JUMPDEST SWAP2 POP PUSH2 0x342D DUP4 PUSH2 0x27AD JUMP JUMPDEST SWAP3 POP PUSH2 0x345A PUSH32 0xFFFFFFFFFFFFFFFFFFFFFFFFFFFFFFFFFFFFFFFFFFFFFFFFFFFFFFFFFFFFFFFF DUP5 DUP5 PUSH2 0x3344 JUMP JUMPDEST SWAP1 POP SWAP3 SWAP2 POP POP JUMP JUMPDEST PUSH1 0x0 PUSH2 0x346D DUP3 PUSH2 0x27AD JUMP JUMPDEST SWAP2 POP PUSH2 0x3478 DUP4 PUSH2 0x27AD JUMP JUMPDEST SWAP3 POP DUP3 DUP3 MUL PUSH2 0x3486 DUP2 PUSH2 0x27AD JUMP JUMPDEST SWAP2 POP DUP3 DUP3 DIV DUP5 EQ DUP4 ISZERO OR PUSH2 0x349D JUMPI PUSH2 0x349C PUSH2 0x2AED JUMP JUMPDEST JUMPDEST POP SWAP3 SWAP2 POP POP JUMP JUMPDEST PUSH32 0x4E487B7100000000000000000000000000000000000000000000000000000000 PUSH1 0x0 MSTORE PUSH1 0x12 PUSH1 0x4 MSTORE PUSH1 0x24 PUSH1 0x0 REVERT JUMPDEST PUSH1 0x0 PUSH2 0x34DE DUP3 PUSH2 0x27AD JUMP JUMPDEST SWAP2 POP PUSH2 0x34E9 DUP4 PUSH2 0x27AD JUMP JUMPDEST SWAP3 POP DUP3 PUSH2 0x34F9 JUMPI PUSH2 0x34F8 PUSH2 0x34A4 JUMP JUMPDEST JUMPDEST DUP3 DUP3 DIV SWAP1 POP SWAP3 SWAP2 POP POP JUMP JUMPDEST PUSH32 0x41676772656761746F72436F6E73756D6572206973206E6F7420696E69746961 PUSH1 0x0 DUP3 ADD MSTORE PUSH32 0x6C697A6564210000000000000000000000000000000000000000000000000000 PUSH1 0x20 DUP3 ADD MSTORE POP JUMP JUMPDEST PUSH1 0x0 PUSH2 0x3560 PUSH1 0x26 DUP4 PUSH2 0x29E9 JUMP JUMPDEST SWAP2 POP PUSH2 0x356B DUP3 PUSH2 0x3504 JUMP JUMPDEST PUSH1 0x40 DUP3 ADD SWAP1 POP SWAP2 SWAP1 POP JUMP JUMPDEST PUSH1 0x0 PUSH1 0x20 DUP3 ADD SWAP1 POP DUP2 DUP2 SUB PUSH1 0x0 DUP4 ADD MSTORE PUSH2 0x358F DUP2 PUSH2 0x3553 JUMP JUMPDEST SWAP1 POP SWAP2 SWAP1 POP JUMP JUMPDEST PUSH32 0x506F6F6C436F6E73756D6572206973206E6F7420696E697469616C697A656421 PUSH1 0x0 DUP3 ADD MSTORE POP JUMP JUMPDEST PUSH1 0x0 PUSH2 0x35CC PUSH1 0x20 DUP4 PUSH2 0x29E9 JUMP JUMPDEST SWAP2 POP PUSH2 0x35D7 DUP3 PUSH2 0x3596 JUMP JUMPDEST PUSH1 0x20 DUP3 ADD SWAP1 POP SWAP2 SWAP1 POP JUMP JUMPDEST PUSH1 0x0 PUSH1 0x20 DUP3 ADD SWAP1 POP DUP2 DUP2 SUB PUSH1 0x0 DUP4 ADD MSTORE PUSH2 0x35FB DUP2 PUSH2 0x35BF JUMP JUMPDEST SWAP1 POP SWAP2 SWAP1 POP JUMP JUMPDEST PUSH32 0x4E6F2063686172676520616D6F756E7421000000000000000000000000000000 PUSH1 0x0 DUP3 ADD MSTORE POP JUMP JUMPDEST PUSH1 0x0 PUSH2 0x3638 PUSH1 0x11 DUP4 PUSH2 0x29E9 JUMP JUMPDEST SWAP2 POP PUSH2 0x3643 DUP3 PUSH2 0x3602 JUMP JUMPDEST PUSH1 0x20 DUP3 ADD SWAP1 POP SWAP2 SWAP1 POP JUMP JUMPDEST PUSH1 0x0 PUSH1 0x20 DUP3 ADD SWAP1 POP DUP2 DUP2 SUB PUSH1 0x0 DUP4 ADD MSTORE PUSH2 0x3667 DUP2 PUSH2 0x362B JUMP JUMPDEST SWAP1 POP SWAP2 SWAP1 POP JUMP JUMPDEST PUSH1 0x0 PUSH1 0x40 DUP3 ADD SWAP1 POP PUSH2 0x3683 PUSH1 0x0 DUP4 ADD DUP6 PUSH2 0x2881 JUMP JUMPDEST PUSH2 0x3690 PUSH1 0x20 DUP4 ADD DUP5 PUSH2 0x2881 JUMP JUMPDEST SWAP4 SWAP3 POP POP POP JUMP JUMPDEST PUSH32 0x436865636B207468652000000000000000000000000000000000000000000000 DUP2 MSTORE POP JUMP JUMPDEST PUSH32 0x20746F6B656E2000000000000000000000000000000000000000000000000000 DUP2 MSTORE POP JUMP JUMPDEST PUSH32 0x616C6C6F77616E63652100000000000000000000000000000000000000000000 DUP2 MSTORE POP JUMP JUMPDEST PUSH1 0x0 PUSH2 0x3714 DUP3 PUSH2 0x3697 JUMP JUMPDEST PUSH1 0xA DUP3 ADD SWAP2 POP PUSH2 0x3724 DUP3 DUP5 PUSH2 0x2C42 JUMP JUMPDEST SWAP2 POP PUSH2 0x372F DUP3 PUSH2 0x36BD JUMP JUMPDEST PUSH1 0x7 DUP3 ADD SWAP2 POP PUSH2 0x373E DUP3 PUSH2 0x36E3 JUMP JUMPDEST PUSH1 0xA DUP3 ADD SWAP2 POP DUP2 SWAP1 POP SWAP3 SWAP2 POP POP JUMP JUMPDEST PUSH1 0x0 PUSH1 0x60 DUP3 ADD SWAP1 POP PUSH2 0x3762 PUSH1 0x0 DUP4 ADD DUP7 PUSH2 0x2881 JUMP JUMPDEST PUSH2 0x376F PUSH1 0x20 DUP4 ADD DUP6 PUSH2 0x2881 JUMP JUMPDEST PUSH2 0x377C PUSH1 0x40 DUP4 ADD DUP5 PUSH2 0x28D8 JUMP JUMPDEST SWAP5 SWAP4 POP POP POP POP JUMP JUMPDEST PUSH32 0x72617465206572726F7221000000000000000000000000000000000000000000 PUSH1 0x0 DUP3 ADD MSTORE POP JUMP JUMPDEST PUSH1 0x0 PUSH2 0x37BA PUSH1 0xB DUP4 PUSH2 0x29E9 JUMP JUMPDEST SWAP2 POP PUSH2 0x37C5 DUP3 PUSH2 0x3784 JUMP JUMPDEST PUSH1 0x20 DUP3 ADD SWAP1 POP SWAP2 SWAP1 POP JUMP JUMPDEST PUSH1 0x0 PUSH1 0x20 DUP3 ADD SWAP1 POP DUP2 DUP2 SUB PUSH1 0x0 DUP4 ADD MSTORE PUSH2 0x37E9 DUP2 PUSH2 0x37AD JUMP JUMPDEST SWAP1 POP SWAP2 SWAP1 POP JUMP JUMPDEST PUSH1 0x0 PUSH1 0x80 DUP3 ADD SWAP1 POP PUSH2 0x3805 PUSH1 0x0 DUP4 ADD DUP8 PUSH2 0x28D8 JUMP JUMPDEST PUSH2 0x3812 PUSH1 0x20 DUP4 ADD DUP7 PUSH2 0x28D8 JUMP JUMPDEST PUSH2 0x381F PUSH1 0x40 DUP4 ADD DUP6 PUSH2 0x28D8 JUMP JUMPDEST DUP2 DUP2 SUB PUSH1 0x60 DUP4 ADD MSTORE PUSH2 0x3831 DUP2 DUP5 PUSH2 0x2A35 JUMP JUMPDEST SWAP1 POP SWAP6 SWAP5 POP POP POP POP POP JUMP JUMPDEST PUSH32 0x4F776E61626C653A206E6577206F776E657220697320746865207A65726F2061 PUSH1 0x0 DUP3 ADD MSTORE PUSH32 0x6464726573730000000000000000000000000000000000000000000000000000 PUSH1 0x20 DUP3 ADD MSTORE POP JUMP JUMPDEST PUSH1 0x0 PUSH2 0x3898 PUSH1 0x26 DUP4 PUSH2 0x29E9 JUMP JUMPDEST SWAP2 POP PUSH2 0x38A3 DUP3 PUSH2 0x383C JUMP JUMPDEST PUSH1 0x40 DUP3 ADD SWAP1 POP SWAP2 SWAP1 POP JUMP JUMPDEST PUSH1 0x0 PUSH1 0x20 DUP3 ADD SWAP1 POP DUP2 DUP2 SUB PUSH1 0x0 DUP4 ADD MSTORE PUSH2 0x38C7 DUP2 PUSH2 0x388B JUMP JUMPDEST SWAP1 POP SWAP2 SWAP1 POP JUMP JUMPDEST PUSH32 0x4F776E61626C653A2063616C6C6572206973206E6F7420746865206F776E6572 PUSH1 0x0 DUP3 ADD MSTORE POP JUMP JUMPDEST PUSH1 0x0 PUSH2 0x3904 PUSH1 0x20 DUP4 PUSH2 0x29E9 JUMP JUMPDEST SWAP2 POP PUSH2 0x390F DUP3 PUSH2 0x38CE JUMP JUMPDEST PUSH1 0x20 DUP3 ADD SWAP1 POP SWAP2 SWAP1 POP JUMP JUMPDEST PUSH1 0x0 PUSH1 0x20 DUP3 ADD SWAP1 POP DUP2 DUP2 SUB PUSH1 0x0 DUP4 ADD MSTORE PUSH2 0x3933 DUP2 PUSH2 0x38F7 JUMP JUMPDEST SWAP1 POP SWAP2 SWAP1 POP JUMP JUMPDEST PUSH32 0x5061757361626C653A206E6F7420706175736564000000000000000000000000 PUSH1 0x0 DUP3 ADD MSTORE POP JUMP JUMPDEST PUSH1 0x0 PUSH2 0x3970 PUSH1 0x14 DUP4 PUSH2 0x29E9 JUMP JUMPDEST SWAP2 POP PUSH2 0x397B DUP3 PUSH2 0x393A JUMP JUMPDEST PUSH1 0x20 DUP3 ADD SWAP1 POP SWAP2 SWAP1 POP JUMP JUMPDEST PUSH1 0x0 PUSH1 0x20 DUP3 ADD SWAP1 POP DUP2 DUP2 SUB PUSH1 0x0 DUP4 ADD MSTORE PUSH2 0x399F DUP2 PUSH2 0x3963 JUMP JUMPDEST SWAP1 POP SWAP2 SWAP1 POP JUMP JUMPDEST PUSH32 0x5061757361626C653A2070617573656400000000000000000000000000000000 PUSH1 0x0 DUP3 ADD MSTORE POP JUMP JUMPDEST PUSH1 0x0 PUSH2 0x39DC PUSH1 0x10 DUP4 PUSH2 0x29E9 JUMP JUMPDEST SWAP2 POP PUSH2 0x39E7 DUP3 PUSH2 0x39A6 JUMP JUMPDEST PUSH1 0x20 DUP3 ADD SWAP1 POP SWAP2 SWAP1 POP JUMP JUMPDEST PUSH1 0x0 PUSH1 0x20 DUP3 ADD SWAP1 POP DUP2 DUP2 SUB PUSH1 0x0 DUP4 ADD MSTORE PUSH2 0x3A0B DUP2 PUSH2 0x39CF JUMP JUMPDEST SWAP1 POP SWAP2 SWAP1 POP JUMP JUMPDEST PUSH1 0x0 DUP1 REVERT JUMPDEST PUSH1 0x0 DUP1 REVERT JUMPDEST PUSH32 0x4E487B7100000000000000000000000000000000000000000000000000000000 PUSH1 0x0 MSTORE PUSH1 0x41 PUSH1 0x4 MSTORE PUSH1 0x24 PUSH1 0x0 REVERT JUMPDEST PUSH2 0x3A54 DUP3 PUSH2 0x2A24 JUMP JUMPDEST DUP2 ADD DUP2 DUP2 LT PUSH8 0xFFFFFFFFFFFFFFFF DUP3 GT OR ISZERO PUSH2 0x3A73 JUMPI PUSH2 0x3A72 PUSH2 0x3A1C JUMP JUMPDEST JUMPDEST DUP1 PUSH1 0x40 MSTORE POP POP POP JUMP JUMPDEST PUSH1 0x0 PUSH2 0x3A86 PUSH2 0x2799 JUMP JUMPDEST SWAP1 POP PUSH2 0x3A92 DUP3 DUP3 PUSH2 0x3A4B JUMP JUMPDEST SWAP2 SWAP1 POP JUMP JUMPDEST PUSH1 0x0 PUSH8 0xFFFFFFFFFFFFFFFF DUP3 GT ISZERO PUSH2 0x3AB2 JUMPI PUSH2 0x3AB1 PUSH2 0x3A1C JUMP JUMPDEST JUMPDEST PUSH2 0x3ABB DUP3 PUSH2 0x2A24 JUMP JUMPDEST SWAP1 POP PUSH1 0x20 DUP2 ADD SWAP1 POP SWAP2 SWAP1 POP JUMP JUMPDEST PUSH1 0x0 PUSH2 0x3ADB PUSH2 0x3AD6 DUP5 PUSH2 0x3A97 JUMP JUMPDEST PUSH2 0x3A7C JUMP JUMPDEST SWAP1 POP DUP3 DUP2 MSTORE PUSH1 0x20 DUP2 ADD DUP5 DUP5 DUP5 ADD GT ISZERO PUSH2 0x3AF7 JUMPI PUSH2 0x3AF6 PUSH2 0x3A17 JUMP JUMPDEST JUMPDEST PUSH2 0x3B02 DUP5 DUP3 DUP6 PUSH2 0x29FA JUMP JUMPDEST POP SWAP4 SWAP3 POP POP POP JUMP JUMPDEST PUSH1 0x0 DUP3 PUSH1 0x1F DUP4 ADD SLT PUSH2 0x3B1F JUMPI PUSH2 0x3B1E PUSH2 0x3A12 JUMP JUMPDEST JUMPDEST DUP2 MLOAD PUSH2 0x3B2F DUP5 DUP3 PUSH1 0x20 DUP7 ADD PUSH2 0x3AC8 JUMP JUMPDEST SWAP2 POP POP SWAP3 SWAP2 POP POP JUMP JUMPDEST PUSH1 0x0 DUP1 PUSH1 0x0 DUP1 PUSH1 0x80 DUP6 DUP8 SUB SLT ISZERO PUSH2 0x3B52 JUMPI PUSH2 0x3B51 PUSH2 0x27A3 JUMP JUMPDEST JUMPDEST PUSH1 0x0 PUSH2 0x3B60 DUP8 DUP3 DUP9 ADD PUSH2 0x3210 JUMP JUMPDEST SWAP5 POP POP PUSH1 0x20 PUSH2 0x3B71 DUP8 DUP3 DUP9 ADD PUSH2 0x3210 JUMP JUMPDEST SWAP4 POP POP PUSH1 0x40 DUP6 ADD MLOAD PUSH8 0xFFFFFFFFFFFFFFFF DUP2 GT ISZERO PUSH2 0x3B92 JUMPI PUSH2 0x3B91 PUSH2 0x27A8 JUMP JUMPDEST JUMPDEST PUSH2 0x3B9E DUP8 DUP3 DUP9 ADD PUSH2 0x3B0A JUMP JUMPDEST SWAP3 POP POP PUSH1 0x60 PUSH2 0x3BAF DUP8 DUP3 DUP9 ADD PUSH2 0x3210 JUMP JUMPDEST SWAP2 POP POP SWAP3 SWAP6 SWAP2 SWAP5 POP SWAP3 POP JUMP JUMPDEST PUSH32 0x4E6F20746F6B656E7320746F206265206275726E656421000000000000000000 PUSH1 0x0 DUP3 ADD MSTORE POP JUMP JUMPDEST PUSH1 0x0 PUSH2 0x3BF1 PUSH1 0x17 DUP4 PUSH2 0x29E9 JUMP JUMPDEST SWAP2 POP PUSH2 0x3BFC DUP3 PUSH2 0x3BBB JUMP JUMPDEST PUSH1 0x20 DUP3 ADD SWAP1 POP SWAP2 SWAP1 POP JUMP JUMPDEST PUSH1 0x0 PUSH1 0x20 DUP3 ADD SWAP1 POP DUP2 DUP2 SUB PUSH1 0x0 DUP4 ADD MSTORE PUSH2 0x3C20 DUP2 PUSH2 0x3BE4 JUMP JUMPDEST SWAP1 POP SWAP2 SWAP1 POP JUMP INVALID LOG2 PUSH5 0x6970667358 0x22 SLT KECCAK256 COINBASE PUSH10 0x98FCF9C5E4F48C65B2C5 EQ 0xE5 0xAC 0xBD ADDRESS SSTORE SWAP5 0xE4 0x2B 0xD6 0x27 0xC2 0xC3 0xBA DELEGATECALL BYTE 0xC4 POP 0xAD GT PUSH5 0x736F6C6343 STOP ADDMOD OR STOP CALLER "
				},
				"gasEstimates": {
					"creation": {
						"codeDepositCost": "3090600",
						"executionCost": "infinite",
						"totalCost": "infinite"
					},
					"external": {
						"activate()": "infinite",
						"addNewAggregatorPriceFeed(address)": "27183",
						"addNewPoolRateFeed(address)": "27182",
						"balanceOf()": "infinite",
						"balanceOfToken(address)": "infinite",
						"calculateAmount(uint256,uint256,uint256)": "infinite",
						"changeAcceptedSenderAddress(address)": "31403",
						"changeRateFeed()": "35610",
						"chargeContract(uint256)": "infinite",
						"currentRateFeed()": "infinite",
						"deactivate()": "32585",
						"getAcceptedSenderAddress()": "4783",
						"getCurrentPointsBalance()": "9148",
						"getDailyWithdraw()": "9083",
						"getInitialActivationAddress()": "infinite",
						"getTokenInfo()": "infinite",
						"getTotalBurnedTokens()": "9106",
						"getTotalPointsGenerated()": "9105",
						"initiateBulkMint()": "infinite",
						"owner()": "2662",
						"paused()": "2546",
						"renounceOwnership()": "30659",
						"resume()": "infinite",
						"stop()": "infinite",
						"transferOfToken(address,address,uint256)": "infinite",
						"transferOwnership(address)": "30982",
						"withdraw(uint256,address)": "infinite"
					},
					"internal": {
						"burnIncomingTokens(uint256)": "infinite",
						"calculatePoints(uint256,uint256,uint256)": "infinite",
						"getRate()": "infinite"
					}
				},
				"methodIdentifiers": {
					"activate()": "0f15f4c0",
					"addNewAggregatorPriceFeed(address)": "0a6cb062",
					"addNewPoolRateFeed(address)": "b0b5e39e",
					"balanceOf()": "722713f7",
					"balanceOfToken(address)": "b99152d0",
					"calculateAmount(uint256,uint256,uint256)": "7754723e",
					"changeAcceptedSenderAddress(address)": "0ba2f1d8",
					"changeRateFeed()": "e8088766",
					"chargeContract(uint256)": "ed969c84",
					"currentRateFeed()": "e6367ebe",
					"deactivate()": "51b42b00",
					"getAcceptedSenderAddress()": "08fadcb0",
					"getCurrentPointsBalance()": "f9850907",
					"getDailyWithdraw()": "a24723e8",
					"getInitialActivationAddress()": "ba007e75",
					"getTokenInfo()": "abb1dc44",
					"getTotalBurnedTokens()": "2af0e251",
					"getTotalPointsGenerated()": "a684ab5c",
					"initiateBulkMint()": "390885f7",
					"owner()": "8da5cb5b",
					"paused()": "5c975abb",
					"renounceOwnership()": "715018a6",
					"resume()": "046f7da2",
					"stop()": "07da68f5",
					"transferOfToken(address,address,uint256)": "6a9d43dd",
					"transferOwnership(address)": "f2fde38b",
					"withdraw(uint256,address)": "00f714ce"
				}
			},
			"storageLayout": {
				"storage": [
					{
						"astId": 130,
						"contract": "ptrn_eco_system_dev_contracts/contracts_ready_for_prod/PtrnEcosystemParticipationV1_0.sol:TokenEcoSystemParticipation",
						"label": "_paused",
						"offset": 0,
						"slot": "0",
						"type": "t_bool"
					},
					{
						"astId": 7,
						"contract": "ptrn_eco_system_dev_contracts/contracts_ready_for_prod/PtrnEcosystemParticipationV1_0.sol:TokenEcoSystemParticipation",
						"label": "_owner",
						"offset": 1,
						"slot": "0",
						"type": "t_address"
					},
					{
						"astId": 370,
						"contract": "ptrn_eco_system_dev_contracts/contracts_ready_for_prod/PtrnEcosystemParticipationV1_0.sol:TokenEcoSystemParticipation",
						"label": "TOKEN_SYMBOL",
						"offset": 0,
						"slot": "1",
						"type": "t_string_storage"
					},
					{
						"astId": 375,
						"contract": "ptrn_eco_system_dev_contracts/contracts_ready_for_prod/PtrnEcosystemParticipationV1_0.sol:TokenEcoSystemParticipation",
						"label": "acceptedSenderAddress",
						"offset": 0,
						"slot": "2",
						"type": "t_address"
					},
					{
						"astId": 378,
						"contract": "ptrn_eco_system_dev_contracts/contracts_ready_for_prod/PtrnEcosystemParticipationV1_0.sol:TokenEcoSystemParticipation",
						"label": "poolRateFeed",
						"offset": 20,
						"slot": "2",
						"type": "t_bool"
					},
					{
						"astId": 381,
						"contract": "ptrn_eco_system_dev_contracts/contracts_ready_for_prod/PtrnEcosystemParticipationV1_0.sol:TokenEcoSystemParticipation",
						"label": "totalBurned",
						"offset": 0,
						"slot": "3",
						"type": "t_uint256"
					},
					{
						"astId": 384,
						"contract": "ptrn_eco_system_dev_contracts/contracts_ready_for_prod/PtrnEcosystemParticipationV1_0.sol:TokenEcoSystemParticipation",
						"label": "totalConverted",
						"offset": 0,
						"slot": "4",
						"type": "t_uint256"
					},
					{
						"astId": 387,
						"contract": "ptrn_eco_system_dev_contracts/contracts_ready_for_prod/PtrnEcosystemParticipationV1_0.sol:TokenEcoSystemParticipation",
						"label": "availableToWithdraw",
						"offset": 0,
						"slot": "5",
						"type": "t_uint256"
					},
					{
						"astId": 390,
						"contract": "ptrn_eco_system_dev_contracts/contracts_ready_for_prod/PtrnEcosystemParticipationV1_0.sol:TokenEcoSystemParticipation",
						"label": "dailyWithdraw",
						"offset": 0,
						"slot": "6",
						"type": "t_uint256"
					},
					{
						"astId": 393,
						"contract": "ptrn_eco_system_dev_contracts/contracts_ready_for_prod/PtrnEcosystemParticipationV1_0.sol:TokenEcoSystemParticipation",
						"label": "aggregatorConsumer",
						"offset": 0,
						"slot": "7",
						"type": "t_contract(AggregatorConsumerInterface)337"
					},
					{
						"astId": 396,
						"contract": "ptrn_eco_system_dev_contracts/contracts_ready_for_prod/PtrnEcosystemParticipationV1_0.sol:TokenEcoSystemParticipation",
						"label": "poolConsumer",
						"offset": 0,
						"slot": "8",
						"type": "t_contract(PoolConsumerInterface)349"
					}
				],
				"types": {
					"t_address": {
						"encoding": "inplace",
						"label": "address",
						"numberOfBytes": "20"
					},
					"t_bool": {
						"encoding": "inplace",
						"label": "bool",
						"numberOfBytes": "1"
					},
					"t_contract(AggregatorConsumerInterface)337": {
						"encoding": "inplace",
						"label": "contract AggregatorConsumerInterface",
						"numberOfBytes": "20"
					},
					"t_contract(PoolConsumerInterface)349": {
						"encoding": "inplace",
						"label": "contract PoolConsumerInterface",
						"numberOfBytes": "20"
					},
					"t_string_storage": {
						"encoding": "bytes",
						"label": "string",
						"numberOfBytes": "32"
					},
					"t_uint256": {
						"encoding": "inplace",
						"label": "uint256",
						"numberOfBytes": "32"
					}
				}
			},
			"userdoc": {
				"kind": "user",
				"methods": {},
				"version": 1
			}
		}
	}
}