{
	"ptrn_eco_system_dev_contracts/contracts_ready_for_prod/Copy_fakeAgregatorRate.sol": {
		"AgregatorRate": {
			"abi": [
				{
					"inputs": [
						{
							"internalType": "string",
							"name": "_assetOne",
							"type": "string"
						},
						{
							"internalType": "string",
							"name": "_assetTwo",
							"type": "string"
						},
						{
							"internalType": "address",
							"name": "_aggregatorAddress",
							"type": "address"
						}
					],
					"stateMutability": "nonpayable",
					"type": "constructor"
				},
				{
					"anonymous": false,
					"inputs": [
						{
							"indexed": true,
							"internalType": "address",
							"name": "previousOwner",
							"type": "address"
						},
						{
							"indexed": true,
							"internalType": "address",
							"name": "newOwner",
							"type": "address"
						}
					],
					"name": "OwnershipTransferred",
					"type": "event"
				},
				{
					"inputs": [
						{
							"internalType": "string",
							"name": "_assetOne",
							"type": "string"
						},
						{
							"internalType": "string",
							"name": "_assetTwo",
							"type": "string"
						},
						{
							"internalType": "address",
							"name": "_aggregatorAddress",
							"type": "address"
						}
					],
					"name": "changeAggregatorAddress",
					"outputs": [],
					"stateMutability": "nonpayable",
					"type": "function"
				},
				{
					"inputs": [],
					"name": "getLatestRate",
					"outputs": [
						{
							"internalType": "int256",
							"name": "",
							"type": "int256"
						},
						{
							"internalType": "uint256",
							"name": "",
							"type": "uint256"
						},
						{
							"internalType": "string",
							"name": "",
							"type": "string"
						}
					],
					"stateMutability": "view",
					"type": "function"
				},
				{
					"inputs": [],
					"name": "owner",
					"outputs": [
						{
							"internalType": "address",
							"name": "",
							"type": "address"
						}
					],
					"stateMutability": "view",
					"type": "function"
				},
				{
					"inputs": [],
					"name": "renounceOwnership",
					"outputs": [],
					"stateMutability": "nonpayable",
					"type": "function"
				},
				{
					"inputs": [
						{
							"internalType": "address",
							"name": "newOwner",
							"type": "address"
						}
					],
					"name": "transferOwnership",
					"outputs": [],
					"stateMutability": "nonpayable",
					"type": "function"
				}
			],
			"devdoc": {
				"kind": "dev",
				"methods": {
					"owner()": {
						"details": "Returns the address of the current owner."
					},
					"renounceOwnership()": {
						"details": "Leaves the contract without owner. It will not be possible to call `onlyOwner` functions anymore. Can only be called by the current owner. NOTE: Renouncing ownership will leave the contract without an owner, thereby removing any functionality that is only available to the owner."
					},
					"transferOwnership(address)": {
						"details": "Transfers ownership of the contract to a new account (`newOwner`). Can only be called by the current owner."
					}
				},
				"version": 1
			},
			"evm": {
				"assembly": "    /* \"ptrn_eco_system_dev_contracts/contracts_ready_for_prod/Copy_fakeAgregatorRate.sol\":233:1397  contract AgregatorRate is Ownable {... */\n  mstore(0x40, 0x80)\n    /* \"ptrn_eco_system_dev_contracts/contracts_ready_for_prod/Copy_fakeAgregatorRate.sol\":546:792  constructor(string memory _assetOne, string memory _assetTwo, address _aggregatorAddress) {... */\n  callvalue\n  dup1\n  iszero\n  tag_1\n  jumpi\n  0x00\n  dup1\n  revert\ntag_1:\n  pop\n  mload(0x40)\n  sub(codesize, bytecodeSize)\n  dup1\n  bytecodeSize\n  dup4\n  codecopy\n  dup2\n  dup2\n  add\n  0x40\n  mstore\n  dup2\n  add\n  swap1\n  tag_2\n  swap2\n  swap1\n  tag_3\n  jump\t// in\ntag_2:\n    /* \"@openzeppelin/contracts/access/Ownable.sol\":936:968  _transferOwnership(_msgSender()) */\n  tag_7\n    /* \"@openzeppelin/contracts/access/Ownable.sol\":955:967  _msgSender() */\n  tag_8\n    /* \"@openzeppelin/contracts/access/Ownable.sol\":955:965  _msgSender */\n  shl(0x20, tag_9)\n    /* \"@openzeppelin/contracts/access/Ownable.sol\":955:967  _msgSender() */\n  0x20\n  shr\n  jump\t// in\ntag_8:\n    /* \"@openzeppelin/contracts/access/Ownable.sol\":936:954  _transferOwnership */\n  shl(0x20, tag_10)\n    /* \"@openzeppelin/contracts/access/Ownable.sol\":936:968  _transferOwnership(_msgSender()) */\n  0x20\n  shr\n  jump\t// in\ntag_7:\n    /* \"ptrn_eco_system_dev_contracts/contracts_ready_for_prod/Copy_fakeAgregatorRate.sol\":693:711  _aggregatorAddress */\n  dup1\n    /* \"ptrn_eco_system_dev_contracts/contracts_ready_for_prod/Copy_fakeAgregatorRate.sol\":646:655  priceFeed */\n  0x01\n  0x00\n    /* \"ptrn_eco_system_dev_contracts/contracts_ready_for_prod/Copy_fakeAgregatorRate.sol\":646:722  priceFeed = AggregatorV3Interface(... */\n  0x0100\n  exp\n  dup2\n  sload\n  dup2\n  0xffffffffffffffffffffffffffffffffffffffff\n  mul\n  not\n  and\n  swap1\n  dup4\n  0xffffffffffffffffffffffffffffffffffffffff\n  and\n  mul\n  or\n  swap1\n  sstore\n  pop\n    /* \"ptrn_eco_system_dev_contracts/contracts_ready_for_prod/Copy_fakeAgregatorRate.sol\":753:762  _assetOne */\n  dup3\n    /* \"ptrn_eco_system_dev_contracts/contracts_ready_for_prod/Copy_fakeAgregatorRate.sol\":767:776  _assetTwo */\n  dup3\n    /* \"ptrn_eco_system_dev_contracts/contracts_ready_for_prod/Copy_fakeAgregatorRate.sol\":739:777  string.concat(_assetOne,\"/\",_assetTwo) */\n  add(0x20, mload(0x40))\n  tag_12\n  swap3\n  swap2\n  swap1\n  tag_13\n  jump\t// in\ntag_12:\n  mload(0x40)\n  0x20\n  dup2\n  dup4\n  sub\n  sub\n  dup2\n  mstore\n  swap1\n  0x40\n  mstore\n    /* \"ptrn_eco_system_dev_contracts/contracts_ready_for_prod/Copy_fakeAgregatorRate.sol\":732:736  rate */\n  0x02\n    /* \"ptrn_eco_system_dev_contracts/contracts_ready_for_prod/Copy_fakeAgregatorRate.sol\":732:777  rate = string.concat(_assetOne,\"/\",_assetTwo) */\n  swap1\n  dup2\n  tag_14\n  swap2\n  swap1\n  tag_15\n  jump\t// in\ntag_14:\n  pop\n    /* \"ptrn_eco_system_dev_contracts/contracts_ready_for_prod/Copy_fakeAgregatorRate.sol\":546:792  constructor(string memory _assetOne, string memory _assetTwo, address _aggregatorAddress) {... */\n  pop\n  pop\n  pop\n    /* \"ptrn_eco_system_dev_contracts/contracts_ready_for_prod/Copy_fakeAgregatorRate.sol\":233:1397  contract AgregatorRate is Ownable {... */\n  jump(tag_16)\n    /* \"@openzeppelin/contracts/utils/Context.sol\":640:736  function _msgSender() internal view virtual returns (address) {... */\ntag_9:\n    /* \"@openzeppelin/contracts/utils/Context.sol\":693:700  address */\n  0x00\n    /* \"@openzeppelin/contracts/utils/Context.sol\":719:729  msg.sender */\n  caller\n    /* \"@openzeppelin/contracts/utils/Context.sol\":712:729  return msg.sender */\n  swap1\n  pop\n    /* \"@openzeppelin/contracts/utils/Context.sol\":640:736  function _msgSender() internal view virtual returns (address) {... */\n  swap1\n  jump\t// out\n    /* \"@openzeppelin/contracts/access/Ownable.sol\":2433:2620  function _transferOwnership(address newOwner) internal virtual {... */\ntag_10:\n    /* \"@openzeppelin/contracts/access/Ownable.sol\":2506:2522  address oldOwner */\n  0x00\n    /* \"@openzeppelin/contracts/access/Ownable.sol\":2525:2531  _owner */\n  dup1\n  0x00\n  swap1\n  sload\n  swap1\n  0x0100\n  exp\n  swap1\n  div\n  0xffffffffffffffffffffffffffffffffffffffff\n  and\n    /* \"@openzeppelin/contracts/access/Ownable.sol\":2506:2531  address oldOwner = _owner */\n  swap1\n  pop\n    /* \"@openzeppelin/contracts/access/Ownable.sol\":2550:2558  newOwner */\n  dup2\n    /* \"@openzeppelin/contracts/access/Ownable.sol\":2541:2547  _owner */\n  0x00\n  dup1\n    /* \"@openzeppelin/contracts/access/Ownable.sol\":2541:2558  _owner = newOwner */\n  0x0100\n  exp\n  dup2\n  sload\n  dup2\n  0xffffffffffffffffffffffffffffffffffffffff\n  mul\n  not\n  and\n  swap1\n  dup4\n  0xffffffffffffffffffffffffffffffffffffffff\n  and\n  mul\n  or\n  swap1\n  sstore\n  pop\n    /* \"@openzeppelin/contracts/access/Ownable.sol\":2604:2612  newOwner */\n  dup2\n    /* \"@openzeppelin/contracts/access/Ownable.sol\":2573:2613  OwnershipTransferred(oldOwner, newOwner) */\n  0xffffffffffffffffffffffffffffffffffffffff\n  and\n    /* \"@openzeppelin/contracts/access/Ownable.sol\":2594:2602  oldOwner */\n  dup2\n    /* \"@openzeppelin/contracts/access/Ownable.sol\":2573:2613  OwnershipTransferred(oldOwner, newOwner) */\n  0xffffffffffffffffffffffffffffffffffffffff\n  and\n  0x8be0079c531659141344cd1fd0a4f28419497f9722a3daafe3b4186f6b6457e0\n  mload(0x40)\n  mload(0x40)\n  dup1\n  swap2\n  sub\n  swap1\n  log3\n    /* \"@openzeppelin/contracts/access/Ownable.sol\":2496:2620  {... */\n  pop\n    /* \"@openzeppelin/contracts/access/Ownable.sol\":2433:2620  function _transferOwnership(address newOwner) internal virtual {... */\n  pop\n  jump\t// out\n    /* \"#utility.yul\":7:82   */\ntag_19:\n    /* \"#utility.yul\":40:46   */\n  0x00\n    /* \"#utility.yul\":73:75   */\n  0x40\n    /* \"#utility.yul\":67:76   */\n  mload\n    /* \"#utility.yul\":57:76   */\n  swap1\n  pop\n    /* \"#utility.yul\":7:82   */\n  swap1\n  jump\t// out\n    /* \"#utility.yul\":88:205   */\ntag_20:\n    /* \"#utility.yul\":197:198   */\n  0x00\n    /* \"#utility.yul\":194:195   */\n  dup1\n    /* \"#utility.yul\":187:199   */\n  revert\n    /* \"#utility.yul\":211:328   */\ntag_21:\n    /* \"#utility.yul\":320:321   */\n  0x00\n    /* \"#utility.yul\":317:318   */\n  dup1\n    /* \"#utility.yul\":310:322   */\n  revert\n    /* \"#utility.yul\":334:451   */\ntag_22:\n    /* \"#utility.yul\":443:444   */\n  0x00\n    /* \"#utility.yul\":440:441   */\n  dup1\n    /* \"#utility.yul\":433:445   */\n  revert\n    /* \"#utility.yul\":457:574   */\ntag_23:\n    /* \"#utility.yul\":566:567   */\n  0x00\n    /* \"#utility.yul\":563:564   */\n  dup1\n    /* \"#utility.yul\":556:568   */\n  revert\n    /* \"#utility.yul\":580:682   */\ntag_24:\n    /* \"#utility.yul\":621:627   */\n  0x00\n    /* \"#utility.yul\":672:674   */\n  0x1f\n    /* \"#utility.yul\":668:675   */\n  not\n    /* \"#utility.yul\":663:665   */\n  0x1f\n    /* \"#utility.yul\":656:661   */\n  dup4\n    /* \"#utility.yul\":652:666   */\n  add\n    /* \"#utility.yul\":648:676   */\n  and\n    /* \"#utility.yul\":638:676   */\n  swap1\n  pop\n    /* \"#utility.yul\":580:682   */\n  swap2\n  swap1\n  pop\n  jump\t// out\n    /* \"#utility.yul\":688:868   */\ntag_25:\n    /* \"#utility.yul\":736:813   */\n  0x4e487b7100000000000000000000000000000000000000000000000000000000\n    /* \"#utility.yul\":733:734   */\n  0x00\n    /* \"#utility.yul\":726:814   */\n  mstore\n    /* \"#utility.yul\":833:837   */\n  0x41\n    /* \"#utility.yul\":830:831   */\n  0x04\n    /* \"#utility.yul\":823:838   */\n  mstore\n    /* \"#utility.yul\":857:861   */\n  0x24\n    /* \"#utility.yul\":854:855   */\n  0x00\n    /* \"#utility.yul\":847:862   */\n  revert\n    /* \"#utility.yul\":874:1155   */\ntag_26:\n    /* \"#utility.yul\":957:984   */\n  tag_67\n    /* \"#utility.yul\":979:983   */\n  dup3\n    /* \"#utility.yul\":957:984   */\n  tag_24\n  jump\t// in\ntag_67:\n    /* \"#utility.yul\":949:955   */\n  dup2\n    /* \"#utility.yul\":945:985   */\n  add\n    /* \"#utility.yul\":1087:1093   */\n  dup2\n    /* \"#utility.yul\":1075:1085   */\n  dup2\n    /* \"#utility.yul\":1072:1094   */\n  lt\n    /* \"#utility.yul\":1051:1069   */\n  0xffffffffffffffff\n    /* \"#utility.yul\":1039:1049   */\n  dup3\n    /* \"#utility.yul\":1036:1070   */\n  gt\n    /* \"#utility.yul\":1033:1095   */\n  or\n    /* \"#utility.yul\":1030:1118   */\n  iszero\n  tag_68\n  jumpi\n    /* \"#utility.yul\":1098:1116   */\n  tag_69\n  tag_25\n  jump\t// in\ntag_69:\n    /* \"#utility.yul\":1030:1118   */\ntag_68:\n    /* \"#utility.yul\":1138:1148   */\n  dup1\n    /* \"#utility.yul\":1134:1136   */\n  0x40\n    /* \"#utility.yul\":1127:1149   */\n  mstore\n    /* \"#utility.yul\":917:1155   */\n  pop\n    /* \"#utility.yul\":874:1155   */\n  pop\n  pop\n  jump\t// out\n    /* \"#utility.yul\":1161:1290   */\ntag_27:\n    /* \"#utility.yul\":1195:1201   */\n  0x00\n    /* \"#utility.yul\":1222:1242   */\n  tag_71\n  tag_19\n  jump\t// in\ntag_71:\n    /* \"#utility.yul\":1212:1242   */\n  swap1\n  pop\n    /* \"#utility.yul\":1251:1284   */\n  tag_72\n    /* \"#utility.yul\":1279:1283   */\n  dup3\n    /* \"#utility.yul\":1271:1277   */\n  dup3\n    /* \"#utility.yul\":1251:1284   */\n  tag_26\n  jump\t// in\ntag_72:\n    /* \"#utility.yul\":1161:1290   */\n  swap2\n  swap1\n  pop\n  jump\t// out\n    /* \"#utility.yul\":1296:1604   */\ntag_28:\n    /* \"#utility.yul\":1358:1362   */\n  0x00\n    /* \"#utility.yul\":1448:1466   */\n  0xffffffffffffffff\n    /* \"#utility.yul\":1440:1446   */\n  dup3\n    /* \"#utility.yul\":1437:1467   */\n  gt\n    /* \"#utility.yul\":1434:1490   */\n  iszero\n  tag_74\n  jumpi\n    /* \"#utility.yul\":1470:1488   */\n  tag_75\n  tag_25\n  jump\t// in\ntag_75:\n    /* \"#utility.yul\":1434:1490   */\ntag_74:\n    /* \"#utility.yul\":1508:1537   */\n  tag_76\n    /* \"#utility.yul\":1530:1536   */\n  dup3\n    /* \"#utility.yul\":1508:1537   */\n  tag_24\n  jump\t// in\ntag_76:\n    /* \"#utility.yul\":1500:1537   */\n  swap1\n  pop\n    /* \"#utility.yul\":1592:1596   */\n  0x20\n    /* \"#utility.yul\":1586:1590   */\n  dup2\n    /* \"#utility.yul\":1582:1597   */\n  add\n    /* \"#utility.yul\":1574:1597   */\n  swap1\n  pop\n    /* \"#utility.yul\":1296:1604   */\n  swap2\n  swap1\n  pop\n  jump\t// out\n    /* \"#utility.yul\":1610:1856   */\ntag_29:\n    /* \"#utility.yul\":1691:1692   */\n  0x00\n    /* \"#utility.yul\":1701:1814   */\ntag_78:\n    /* \"#utility.yul\":1715:1721   */\n  dup4\n    /* \"#utility.yul\":1712:1713   */\n  dup2\n    /* \"#utility.yul\":1709:1722   */\n  lt\n    /* \"#utility.yul\":1701:1814   */\n  iszero\n  tag_80\n  jumpi\n    /* \"#utility.yul\":1800:1801   */\n  dup1\n    /* \"#utility.yul\":1795:1798   */\n  dup3\n    /* \"#utility.yul\":1791:1802   */\n  add\n    /* \"#utility.yul\":1785:1803   */\n  mload\n    /* \"#utility.yul\":1781:1782   */\n  dup2\n    /* \"#utility.yul\":1776:1779   */\n  dup5\n    /* \"#utility.yul\":1772:1783   */\n  add\n    /* \"#utility.yul\":1765:1804   */\n  mstore\n    /* \"#utility.yul\":1737:1739   */\n  0x20\n    /* \"#utility.yul\":1734:1735   */\n  dup2\n    /* \"#utility.yul\":1730:1740   */\n  add\n    /* \"#utility.yul\":1725:1740   */\n  swap1\n  pop\n    /* \"#utility.yul\":1701:1814   */\n  jump(tag_78)\ntag_80:\n    /* \"#utility.yul\":1848:1849   */\n  0x00\n    /* \"#utility.yul\":1839:1845   */\n  dup5\n    /* \"#utility.yul\":1834:1837   */\n  dup5\n    /* \"#utility.yul\":1830:1846   */\n  add\n    /* \"#utility.yul\":1823:1850   */\n  mstore\n    /* \"#utility.yul\":1672:1856   */\n  pop\n    /* \"#utility.yul\":1610:1856   */\n  pop\n  pop\n  pop\n  jump\t// out\n    /* \"#utility.yul\":1862:2296   */\ntag_30:\n    /* \"#utility.yul\":1951:1956   */\n  0x00\n    /* \"#utility.yul\":1976:2042   */\n  tag_82\n    /* \"#utility.yul\":1992:2041   */\n  tag_83\n    /* \"#utility.yul\":2034:2040   */\n  dup5\n    /* \"#utility.yul\":1992:2041   */\n  tag_28\n  jump\t// in\ntag_83:\n    /* \"#utility.yul\":1976:2042   */\n  tag_27\n  jump\t// in\ntag_82:\n    /* \"#utility.yul\":1967:2042   */\n  swap1\n  pop\n    /* \"#utility.yul\":2065:2071   */\n  dup3\n    /* \"#utility.yul\":2058:2063   */\n  dup2\n    /* \"#utility.yul\":2051:2072   */\n  mstore\n    /* \"#utility.yul\":2103:2107   */\n  0x20\n    /* \"#utility.yul\":2096:2101   */\n  dup2\n    /* \"#utility.yul\":2092:2108   */\n  add\n    /* \"#utility.yul\":2141:2144   */\n  dup5\n    /* \"#utility.yul\":2132:2138   */\n  dup5\n    /* \"#utility.yul\":2127:2130   */\n  dup5\n    /* \"#utility.yul\":2123:2139   */\n  add\n    /* \"#utility.yul\":2120:2145   */\n  gt\n    /* \"#utility.yul\":2117:2229   */\n  iszero\n  tag_84\n  jumpi\n    /* \"#utility.yul\":2148:2227   */\n  tag_85\n  tag_23\n  jump\t// in\ntag_85:\n    /* \"#utility.yul\":2117:2229   */\ntag_84:\n    /* \"#utility.yul\":2238:2290   */\n  tag_86\n    /* \"#utility.yul\":2283:2289   */\n  dup5\n    /* \"#utility.yul\":2278:2281   */\n  dup3\n    /* \"#utility.yul\":2273:2276   */\n  dup6\n    /* \"#utility.yul\":2238:2290   */\n  tag_29\n  jump\t// in\ntag_86:\n    /* \"#utility.yul\":1957:2296   */\n  pop\n    /* \"#utility.yul\":1862:2296   */\n  swap4\n  swap3\n  pop\n  pop\n  pop\n  jump\t// out\n    /* \"#utility.yul\":2316:2671   */\ntag_31:\n    /* \"#utility.yul\":2383:2388   */\n  0x00\n    /* \"#utility.yul\":2432:2435   */\n  dup3\n    /* \"#utility.yul\":2425:2429   */\n  0x1f\n    /* \"#utility.yul\":2417:2423   */\n  dup4\n    /* \"#utility.yul\":2413:2430   */\n  add\n    /* \"#utility.yul\":2409:2436   */\n  slt\n    /* \"#utility.yul\":2399:2521   */\n  tag_88\n  jumpi\n    /* \"#utility.yul\":2440:2519   */\n  tag_89\n  tag_22\n  jump\t// in\ntag_89:\n    /* \"#utility.yul\":2399:2521   */\ntag_88:\n    /* \"#utility.yul\":2550:2556   */\n  dup2\n    /* \"#utility.yul\":2544:2557   */\n  mload\n    /* \"#utility.yul\":2575:2665   */\n  tag_90\n    /* \"#utility.yul\":2661:2664   */\n  dup5\n    /* \"#utility.yul\":2653:2659   */\n  dup3\n    /* \"#utility.yul\":2646:2650   */\n  0x20\n    /* \"#utility.yul\":2638:2644   */\n  dup7\n    /* \"#utility.yul\":2634:2651   */\n  add\n    /* \"#utility.yul\":2575:2665   */\n  tag_30\n  jump\t// in\ntag_90:\n    /* \"#utility.yul\":2566:2665   */\n  swap2\n  pop\n    /* \"#utility.yul\":2389:2671   */\n  pop\n    /* \"#utility.yul\":2316:2671   */\n  swap3\n  swap2\n  pop\n  pop\n  jump\t// out\n    /* \"#utility.yul\":2677:2803   */\ntag_32:\n    /* \"#utility.yul\":2714:2721   */\n  0x00\n    /* \"#utility.yul\":2754:2796   */\n  0xffffffffffffffffffffffffffffffffffffffff\n    /* \"#utility.yul\":2747:2752   */\n  dup3\n    /* \"#utility.yul\":2743:2797   */\n  and\n    /* \"#utility.yul\":2732:2797   */\n  swap1\n  pop\n    /* \"#utility.yul\":2677:2803   */\n  swap2\n  swap1\n  pop\n  jump\t// out\n    /* \"#utility.yul\":2809:2905   */\ntag_33:\n    /* \"#utility.yul\":2846:2853   */\n  0x00\n    /* \"#utility.yul\":2875:2899   */\n  tag_93\n    /* \"#utility.yul\":2893:2898   */\n  dup3\n    /* \"#utility.yul\":2875:2899   */\n  tag_32\n  jump\t// in\ntag_93:\n    /* \"#utility.yul\":2864:2899   */\n  swap1\n  pop\n    /* \"#utility.yul\":2809:2905   */\n  swap2\n  swap1\n  pop\n  jump\t// out\n    /* \"#utility.yul\":2911:3033   */\ntag_34:\n    /* \"#utility.yul\":2984:3008   */\n  tag_95\n    /* \"#utility.yul\":3002:3007   */\n  dup2\n    /* \"#utility.yul\":2984:3008   */\n  tag_33\n  jump\t// in\ntag_95:\n    /* \"#utility.yul\":2977:2982   */\n  dup2\n    /* \"#utility.yul\":2974:3009   */\n  eq\n    /* \"#utility.yul\":2964:3027   */\n  tag_96\n  jumpi\n    /* \"#utility.yul\":3023:3024   */\n  0x00\n    /* \"#utility.yul\":3020:3021   */\n  dup1\n    /* \"#utility.yul\":3013:3025   */\n  revert\n    /* \"#utility.yul\":2964:3027   */\ntag_96:\n    /* \"#utility.yul\":2911:3033   */\n  pop\n  jump\t// out\n    /* \"#utility.yul\":3039:3182   */\ntag_35:\n    /* \"#utility.yul\":3096:3101   */\n  0x00\n    /* \"#utility.yul\":3127:3133   */\n  dup2\n    /* \"#utility.yul\":3121:3134   */\n  mload\n    /* \"#utility.yul\":3112:3134   */\n  swap1\n  pop\n    /* \"#utility.yul\":3143:3176   */\n  tag_98\n    /* \"#utility.yul\":3170:3175   */\n  dup2\n    /* \"#utility.yul\":3143:3176   */\n  tag_34\n  jump\t// in\ntag_98:\n    /* \"#utility.yul\":3039:3182   */\n  swap3\n  swap2\n  pop\n  pop\n  jump\t// out\n    /* \"#utility.yul\":3188:4197   */\ntag_3:\n    /* \"#utility.yul\":3296:3302   */\n  0x00\n    /* \"#utility.yul\":3304:3310   */\n  dup1\n    /* \"#utility.yul\":3312:3318   */\n  0x00\n    /* \"#utility.yul\":3361:3363   */\n  0x60\n    /* \"#utility.yul\":3349:3358   */\n  dup5\n    /* \"#utility.yul\":3340:3347   */\n  dup7\n    /* \"#utility.yul\":3336:3359   */\n  sub\n    /* \"#utility.yul\":3332:3364   */\n  slt\n    /* \"#utility.yul\":3329:3448   */\n  iszero\n  tag_100\n  jumpi\n    /* \"#utility.yul\":3367:3446   */\n  tag_101\n  tag_20\n  jump\t// in\ntag_101:\n    /* \"#utility.yul\":3329:3448   */\ntag_100:\n    /* \"#utility.yul\":3508:3509   */\n  0x00\n    /* \"#utility.yul\":3497:3506   */\n  dup5\n    /* \"#utility.yul\":3493:3510   */\n  add\n    /* \"#utility.yul\":3487:3511   */\n  mload\n    /* \"#utility.yul\":3538:3556   */\n  0xffffffffffffffff\n    /* \"#utility.yul\":3530:3536   */\n  dup2\n    /* \"#utility.yul\":3527:3557   */\n  gt\n    /* \"#utility.yul\":3524:3641   */\n  iszero\n  tag_102\n  jumpi\n    /* \"#utility.yul\":3560:3639   */\n  tag_103\n  tag_21\n  jump\t// in\ntag_103:\n    /* \"#utility.yul\":3524:3641   */\ntag_102:\n    /* \"#utility.yul\":3665:3739   */\n  tag_104\n    /* \"#utility.yul\":3731:3738   */\n  dup7\n    /* \"#utility.yul\":3722:3728   */\n  dup3\n    /* \"#utility.yul\":3711:3720   */\n  dup8\n    /* \"#utility.yul\":3707:3729   */\n  add\n    /* \"#utility.yul\":3665:3739   */\n  tag_31\n  jump\t// in\ntag_104:\n    /* \"#utility.yul\":3655:3739   */\n  swap4\n  pop\n    /* \"#utility.yul\":3458:3749   */\n  pop\n    /* \"#utility.yul\":3809:3811   */\n  0x20\n    /* \"#utility.yul\":3798:3807   */\n  dup5\n    /* \"#utility.yul\":3794:3812   */\n  add\n    /* \"#utility.yul\":3788:3813   */\n  mload\n    /* \"#utility.yul\":3840:3858   */\n  0xffffffffffffffff\n    /* \"#utility.yul\":3832:3838   */\n  dup2\n    /* \"#utility.yul\":3829:3859   */\n  gt\n    /* \"#utility.yul\":3826:3943   */\n  iszero\n  tag_105\n  jumpi\n    /* \"#utility.yul\":3862:3941   */\n  tag_106\n  tag_21\n  jump\t// in\ntag_106:\n    /* \"#utility.yul\":3826:3943   */\ntag_105:\n    /* \"#utility.yul\":3967:4041   */\n  tag_107\n    /* \"#utility.yul\":4033:4040   */\n  dup7\n    /* \"#utility.yul\":4024:4030   */\n  dup3\n    /* \"#utility.yul\":4013:4022   */\n  dup8\n    /* \"#utility.yul\":4009:4031   */\n  add\n    /* \"#utility.yul\":3967:4041   */\n  tag_31\n  jump\t// in\ntag_107:\n    /* \"#utility.yul\":3957:4041   */\n  swap3\n  pop\n    /* \"#utility.yul\":3759:4051   */\n  pop\n    /* \"#utility.yul\":4090:4092   */\n  0x40\n    /* \"#utility.yul\":4116:4180   */\n  tag_108\n    /* \"#utility.yul\":4172:4179   */\n  dup7\n    /* \"#utility.yul\":4163:4169   */\n  dup3\n    /* \"#utility.yul\":4152:4161   */\n  dup8\n    /* \"#utility.yul\":4148:4170   */\n  add\n    /* \"#utility.yul\":4116:4180   */\n  tag_35\n  jump\t// in\ntag_108:\n    /* \"#utility.yul\":4106:4180   */\n  swap2\n  pop\n    /* \"#utility.yul\":4061:4190   */\n  pop\n    /* \"#utility.yul\":3188:4197   */\n  swap3\n  pop\n  swap3\n  pop\n  swap3\n  jump\t// out\n    /* \"#utility.yul\":4203:4302   */\ntag_36:\n    /* \"#utility.yul\":4255:4261   */\n  0x00\n    /* \"#utility.yul\":4289:4294   */\n  dup2\n    /* \"#utility.yul\":4283:4295   */\n  mload\n    /* \"#utility.yul\":4273:4295   */\n  swap1\n  pop\n    /* \"#utility.yul\":4203:4302   */\n  swap2\n  swap1\n  pop\n  jump\t// out\n    /* \"#utility.yul\":4308:4456   */\ntag_37:\n    /* \"#utility.yul\":4410:4421   */\n  0x00\n    /* \"#utility.yul\":4447:4450   */\n  dup2\n    /* \"#utility.yul\":4432:4450   */\n  swap1\n  pop\n    /* \"#utility.yul\":4308:4456   */\n  swap3\n  swap2\n  pop\n  pop\n  jump\t// out\n    /* \"#utility.yul\":4462:4852   */\ntag_38:\n    /* \"#utility.yul\":4568:4571   */\n  0x00\n    /* \"#utility.yul\":4596:4635   */\n  tag_112\n    /* \"#utility.yul\":4629:4634   */\n  dup3\n    /* \"#utility.yul\":4596:4635   */\n  tag_36\n  jump\t// in\ntag_112:\n    /* \"#utility.yul\":4651:4740   */\n  tag_113\n    /* \"#utility.yul\":4733:4739   */\n  dup2\n    /* \"#utility.yul\":4728:4731   */\n  dup6\n    /* \"#utility.yul\":4651:4740   */\n  tag_37\n  jump\t// in\ntag_113:\n    /* \"#utility.yul\":4644:4740   */\n  swap4\n  pop\n    /* \"#utility.yul\":4749:4814   */\n  tag_114\n    /* \"#utility.yul\":4807:4813   */\n  dup2\n    /* \"#utility.yul\":4802:4805   */\n  dup6\n    /* \"#utility.yul\":4795:4799   */\n  0x20\n    /* \"#utility.yul\":4788:4793   */\n  dup7\n    /* \"#utility.yul\":4784:4800   */\n  add\n    /* \"#utility.yul\":4749:4814   */\n  tag_29\n  jump\t// in\ntag_114:\n    /* \"#utility.yul\":4839:4845   */\n  dup1\n    /* \"#utility.yul\":4834:4837   */\n  dup5\n    /* \"#utility.yul\":4830:4846   */\n  add\n    /* \"#utility.yul\":4823:4846   */\n  swap2\n  pop\n    /* \"#utility.yul\":4572:4852   */\n  pop\n    /* \"#utility.yul\":4462:4852   */\n  swap3\n  swap2\n  pop\n  pop\n  jump\t// out\n    /* \"#utility.yul\":4858:5036   */\ntag_39:\n    /* \"#utility.yul\":5026:5029   */\n  0x2f00000000000000000000000000000000000000000000000000000000000000\n    /* \"#utility.yul\":5021:5024   */\n  dup2\n    /* \"#utility.yul\":5014:5030   */\n  mstore\n    /* \"#utility.yul\":4858:5036   */\n  pop\n  jump\t// out\n    /* \"#utility.yul\":5042:5741   */\ntag_13:\n    /* \"#utility.yul\":5312:5315   */\n  0x00\n    /* \"#utility.yul\":5334:5429   */\n  tag_117\n    /* \"#utility.yul\":5425:5428   */\n  dup3\n    /* \"#utility.yul\":5416:5422   */\n  dup6\n    /* \"#utility.yul\":5334:5429   */\n  tag_38\n  jump\t// in\ntag_117:\n    /* \"#utility.yul\":5327:5429   */\n  swap2\n  pop\n    /* \"#utility.yul\":5439:5576   */\n  tag_118\n    /* \"#utility.yul\":5572:5575   */\n  dup3\n    /* \"#utility.yul\":5439:5576   */\n  tag_39\n  jump\t// in\ntag_118:\n    /* \"#utility.yul\":5601:5602   */\n  0x01\n    /* \"#utility.yul\":5596:5599   */\n  dup3\n    /* \"#utility.yul\":5592:5603   */\n  add\n    /* \"#utility.yul\":5585:5603   */\n  swap2\n  pop\n    /* \"#utility.yul\":5620:5715   */\n  tag_119\n    /* \"#utility.yul\":5711:5714   */\n  dup3\n    /* \"#utility.yul\":5702:5708   */\n  dup5\n    /* \"#utility.yul\":5620:5715   */\n  tag_38\n  jump\t// in\ntag_119:\n    /* \"#utility.yul\":5613:5715   */\n  swap2\n  pop\n    /* \"#utility.yul\":5732:5735   */\n  dup2\n    /* \"#utility.yul\":5725:5735   */\n  swap1\n  pop\n    /* \"#utility.yul\":5042:5741   */\n  swap4\n  swap3\n  pop\n  pop\n  pop\n  jump\t// out\n    /* \"#utility.yul\":5747:5927   */\ntag_40:\n    /* \"#utility.yul\":5795:5872   */\n  0x4e487b7100000000000000000000000000000000000000000000000000000000\n    /* \"#utility.yul\":5792:5793   */\n  0x00\n    /* \"#utility.yul\":5785:5873   */\n  mstore\n    /* \"#utility.yul\":5892:5896   */\n  0x22\n    /* \"#utility.yul\":5889:5890   */\n  0x04\n    /* \"#utility.yul\":5882:5897   */\n  mstore\n    /* \"#utility.yul\":5916:5920   */\n  0x24\n    /* \"#utility.yul\":5913:5914   */\n  0x00\n    /* \"#utility.yul\":5906:5921   */\n  revert\n    /* \"#utility.yul\":5933:6253   */\ntag_41:\n    /* \"#utility.yul\":5977:5983   */\n  0x00\n    /* \"#utility.yul\":6014:6015   */\n  0x02\n    /* \"#utility.yul\":6008:6012   */\n  dup3\n    /* \"#utility.yul\":6004:6016   */\n  div\n    /* \"#utility.yul\":5994:6016   */\n  swap1\n  pop\n    /* \"#utility.yul\":6061:6062   */\n  0x01\n    /* \"#utility.yul\":6055:6059   */\n  dup3\n    /* \"#utility.yul\":6051:6063   */\n  and\n    /* \"#utility.yul\":6082:6100   */\n  dup1\n    /* \"#utility.yul\":6072:6153   */\n  tag_122\n  jumpi\n    /* \"#utility.yul\":6138:6142   */\n  0x7f\n    /* \"#utility.yul\":6130:6136   */\n  dup3\n    /* \"#utility.yul\":6126:6143   */\n  and\n    /* \"#utility.yul\":6116:6143   */\n  swap2\n  pop\n    /* \"#utility.yul\":6072:6153   */\ntag_122:\n    /* \"#utility.yul\":6200:6202   */\n  0x20\n    /* \"#utility.yul\":6192:6198   */\n  dup3\n    /* \"#utility.yul\":6189:6203   */\n  lt\n    /* \"#utility.yul\":6169:6187   */\n  dup2\n    /* \"#utility.yul\":6166:6204   */\n  sub\n    /* \"#utility.yul\":6163:6247   */\n  tag_123\n  jumpi\n    /* \"#utility.yul\":6219:6237   */\n  tag_124\n  tag_40\n  jump\t// in\ntag_124:\n    /* \"#utility.yul\":6163:6247   */\ntag_123:\n    /* \"#utility.yul\":5984:6253   */\n  pop\n    /* \"#utility.yul\":5933:6253   */\n  swap2\n  swap1\n  pop\n  jump\t// out\n    /* \"#utility.yul\":6259:6400   */\ntag_42:\n    /* \"#utility.yul\":6308:6312   */\n  0x00\n    /* \"#utility.yul\":6331:6334   */\n  dup2\n    /* \"#utility.yul\":6323:6334   */\n  swap1\n  pop\n    /* \"#utility.yul\":6354:6357   */\n  dup2\n    /* \"#utility.yul\":6351:6352   */\n  0x00\n    /* \"#utility.yul\":6344:6358   */\n  mstore\n    /* \"#utility.yul\":6388:6392   */\n  0x20\n    /* \"#utility.yul\":6385:6386   */\n  0x00\n    /* \"#utility.yul\":6375:6393   */\n  keccak256\n    /* \"#utility.yul\":6367:6393   */\n  swap1\n  pop\n    /* \"#utility.yul\":6259:6400   */\n  swap2\n  swap1\n  pop\n  jump\t// out\n    /* \"#utility.yul\":6406:6499   */\ntag_43:\n    /* \"#utility.yul\":6443:6449   */\n  0x00\n    /* \"#utility.yul\":6490:6492   */\n  0x20\n    /* \"#utility.yul\":6485:6487   */\n  0x1f\n    /* \"#utility.yul\":6478:6483   */\n  dup4\n    /* \"#utility.yul\":6474:6488   */\n  add\n    /* \"#utility.yul\":6470:6493   */\n  div\n    /* \"#utility.yul\":6460:6493   */\n  swap1\n  pop\n    /* \"#utility.yul\":6406:6499   */\n  swap2\n  swap1\n  pop\n  jump\t// out\n    /* \"#utility.yul\":6505:6612   */\ntag_44:\n    /* \"#utility.yul\":6549:6557   */\n  0x00\n    /* \"#utility.yul\":6599:6604   */\n  dup3\n    /* \"#utility.yul\":6593:6597   */\n  dup3\n    /* \"#utility.yul\":6589:6605   */\n  shl\n    /* \"#utility.yul\":6568:6605   */\n  swap1\n  pop\n    /* \"#utility.yul\":6505:6612   */\n  swap3\n  swap2\n  pop\n  pop\n  jump\t// out\n    /* \"#utility.yul\":6618:7011   */\ntag_45:\n    /* \"#utility.yul\":6687:6693   */\n  0x00\n    /* \"#utility.yul\":6737:6738   */\n  0x08\n    /* \"#utility.yul\":6725:6735   */\n  dup4\n    /* \"#utility.yul\":6721:6739   */\n  mul\n    /* \"#utility.yul\":6760:6857   */\n  tag_129\n    /* \"#utility.yul\":6790:6856   */\n  0xffffffffffffffffffffffffffffffffffffffffffffffffffffffffffffffff\n    /* \"#utility.yul\":6779:6788   */\n  dup3\n    /* \"#utility.yul\":6760:6857   */\n  tag_44\n  jump\t// in\ntag_129:\n    /* \"#utility.yul\":6878:6917   */\n  tag_130\n    /* \"#utility.yul\":6908:6916   */\n  dup7\n    /* \"#utility.yul\":6897:6906   */\n  dup4\n    /* \"#utility.yul\":6878:6917   */\n  tag_44\n  jump\t// in\ntag_130:\n    /* \"#utility.yul\":6866:6917   */\n  swap6\n  pop\n    /* \"#utility.yul\":6950:6954   */\n  dup1\n    /* \"#utility.yul\":6946:6955   */\n  not\n    /* \"#utility.yul\":6939:6944   */\n  dup5\n    /* \"#utility.yul\":6935:6956   */\n  and\n    /* \"#utility.yul\":6926:6956   */\n  swap4\n  pop\n    /* \"#utility.yul\":6999:7003   */\n  dup1\n    /* \"#utility.yul\":6989:6997   */\n  dup7\n    /* \"#utility.yul\":6985:7004   */\n  and\n    /* \"#utility.yul\":6978:6983   */\n  dup5\n    /* \"#utility.yul\":6975:7005   */\n  or\n    /* \"#utility.yul\":6965:7005   */\n  swap3\n  pop\n    /* \"#utility.yul\":6694:7011   */\n  pop\n  pop\n    /* \"#utility.yul\":6618:7011   */\n  swap4\n  swap3\n  pop\n  pop\n  pop\n  jump\t// out\n    /* \"#utility.yul\":7017:7094   */\ntag_46:\n    /* \"#utility.yul\":7054:7061   */\n  0x00\n    /* \"#utility.yul\":7083:7088   */\n  dup2\n    /* \"#utility.yul\":7072:7088   */\n  swap1\n  pop\n    /* \"#utility.yul\":7017:7094   */\n  swap2\n  swap1\n  pop\n  jump\t// out\n    /* \"#utility.yul\":7100:7160   */\ntag_47:\n    /* \"#utility.yul\":7128:7131   */\n  0x00\n    /* \"#utility.yul\":7149:7154   */\n  dup2\n    /* \"#utility.yul\":7142:7154   */\n  swap1\n  pop\n    /* \"#utility.yul\":7100:7160   */\n  swap2\n  swap1\n  pop\n  jump\t// out\n    /* \"#utility.yul\":7166:7308   */\ntag_48:\n    /* \"#utility.yul\":7216:7225   */\n  0x00\n    /* \"#utility.yul\":7249:7302   */\n  tag_134\n    /* \"#utility.yul\":7267:7301   */\n  tag_135\n    /* \"#utility.yul\":7276:7300   */\n  tag_136\n    /* \"#utility.yul\":7294:7299   */\n  dup5\n    /* \"#utility.yul\":7276:7300   */\n  tag_46\n  jump\t// in\ntag_136:\n    /* \"#utility.yul\":7267:7301   */\n  tag_47\n  jump\t// in\ntag_135:\n    /* \"#utility.yul\":7249:7302   */\n  tag_46\n  jump\t// in\ntag_134:\n    /* \"#utility.yul\":7236:7302   */\n  swap1\n  pop\n    /* \"#utility.yul\":7166:7308   */\n  swap2\n  swap1\n  pop\n  jump\t// out\n    /* \"#utility.yul\":7314:7389   */\ntag_49:\n    /* \"#utility.yul\":7357:7360   */\n  0x00\n    /* \"#utility.yul\":7378:7383   */\n  dup2\n    /* \"#utility.yul\":7371:7383   */\n  swap1\n  pop\n    /* \"#utility.yul\":7314:7389   */\n  swap2\n  swap1\n  pop\n  jump\t// out\n    /* \"#utility.yul\":7395:7664   */\ntag_50:\n    /* \"#utility.yul\":7505:7544   */\n  tag_139\n    /* \"#utility.yul\":7536:7543   */\n  dup4\n    /* \"#utility.yul\":7505:7544   */\n  tag_48\n  jump\t// in\ntag_139:\n    /* \"#utility.yul\":7566:7657   */\n  tag_140\n    /* \"#utility.yul\":7615:7656   */\n  tag_141\n    /* \"#utility.yul\":7639:7655   */\n  dup3\n    /* \"#utility.yul\":7615:7656   */\n  tag_49\n  jump\t// in\ntag_141:\n    /* \"#utility.yul\":7607:7613   */\n  dup5\n    /* \"#utility.yul\":7600:7604   */\n  dup5\n    /* \"#utility.yul\":7594:7605   */\n  sload\n    /* \"#utility.yul\":7566:7657   */\n  tag_45\n  jump\t// in\ntag_140:\n    /* \"#utility.yul\":7560:7564   */\n  dup3\n    /* \"#utility.yul\":7553:7658   */\n  sstore\n    /* \"#utility.yul\":7471:7664   */\n  pop\n    /* \"#utility.yul\":7395:7664   */\n  pop\n  pop\n  pop\n  jump\t// out\n    /* \"#utility.yul\":7670:7743   */\ntag_51:\n    /* \"#utility.yul\":7715:7718   */\n  0x00\n    /* \"#utility.yul\":7670:7743   */\n  swap1\n  jump\t// out\n    /* \"#utility.yul\":7749:7938   */\ntag_52:\n    /* \"#utility.yul\":7826:7858   */\n  tag_144\n  tag_51\n  jump\t// in\ntag_144:\n    /* \"#utility.yul\":7867:7932   */\n  tag_145\n    /* \"#utility.yul\":7925:7931   */\n  dup2\n    /* \"#utility.yul\":7917:7923   */\n  dup5\n    /* \"#utility.yul\":7911:7915   */\n  dup5\n    /* \"#utility.yul\":7867:7932   */\n  tag_50\n  jump\t// in\ntag_145:\n    /* \"#utility.yul\":7802:7938   */\n  pop\n    /* \"#utility.yul\":7749:7938   */\n  pop\n  pop\n  jump\t// out\n    /* \"#utility.yul\":7944:8130   */\ntag_53:\n    /* \"#utility.yul\":8004:8124   */\ntag_147:\n    /* \"#utility.yul\":8021:8024   */\n  dup2\n    /* \"#utility.yul\":8014:8019   */\n  dup2\n    /* \"#utility.yul\":8011:8025   */\n  lt\n    /* \"#utility.yul\":8004:8124   */\n  iszero\n  tag_149\n  jumpi\n    /* \"#utility.yul\":8075:8114   */\n  tag_150\n    /* \"#utility.yul\":8112:8113   */\n  0x00\n    /* \"#utility.yul\":8105:8110   */\n  dup3\n    /* \"#utility.yul\":8075:8114   */\n  tag_52\n  jump\t// in\ntag_150:\n    /* \"#utility.yul\":8048:8049   */\n  0x01\n    /* \"#utility.yul\":8041:8046   */\n  dup2\n    /* \"#utility.yul\":8037:8050   */\n  add\n    /* \"#utility.yul\":8028:8050   */\n  swap1\n  pop\n    /* \"#utility.yul\":8004:8124   */\n  jump(tag_147)\ntag_149:\n    /* \"#utility.yul\":7944:8130   */\n  pop\n  pop\n  jump\t// out\n    /* \"#utility.yul\":8136:8679   */\ntag_54:\n    /* \"#utility.yul\":8237:8239   */\n  0x1f\n    /* \"#utility.yul\":8232:8235   */\n  dup3\n    /* \"#utility.yul\":8229:8240   */\n  gt\n    /* \"#utility.yul\":8226:8672   */\n  iszero\n  tag_152\n  jumpi\n    /* \"#utility.yul\":8271:8309   */\n  tag_153\n    /* \"#utility.yul\":8303:8308   */\n  dup2\n    /* \"#utility.yul\":8271:8309   */\n  tag_42\n  jump\t// in\ntag_153:\n    /* \"#utility.yul\":8355:8384   */\n  tag_154\n    /* \"#utility.yul\":8373:8383   */\n  dup5\n    /* \"#utility.yul\":8355:8384   */\n  tag_43\n  jump\t// in\ntag_154:\n    /* \"#utility.yul\":8345:8353   */\n  dup2\n    /* \"#utility.yul\":8341:8385   */\n  add\n    /* \"#utility.yul\":8538:8540   */\n  0x20\n    /* \"#utility.yul\":8526:8536   */\n  dup6\n    /* \"#utility.yul\":8523:8541   */\n  lt\n    /* \"#utility.yul\":8520:8569   */\n  iszero\n  tag_155\n  jumpi\n    /* \"#utility.yul\":8559:8567   */\n  dup2\n    /* \"#utility.yul\":8544:8567   */\n  swap1\n  pop\n    /* \"#utility.yul\":8520:8569   */\ntag_155:\n    /* \"#utility.yul\":8582:8662   */\n  tag_156\n    /* \"#utility.yul\":8638:8660   */\n  tag_157\n    /* \"#utility.yul\":8656:8659   */\n  dup6\n    /* \"#utility.yul\":8638:8660   */\n  tag_43\n  jump\t// in\ntag_157:\n    /* \"#utility.yul\":8628:8636   */\n  dup4\n    /* \"#utility.yul\":8624:8661   */\n  add\n    /* \"#utility.yul\":8611:8622   */\n  dup3\n    /* \"#utility.yul\":8582:8662   */\n  tag_53\n  jump\t// in\ntag_156:\n    /* \"#utility.yul\":8241:8672   */\n  pop\n  pop\n    /* \"#utility.yul\":8226:8672   */\ntag_152:\n    /* \"#utility.yul\":8136:8679   */\n  pop\n  pop\n  pop\n  jump\t// out\n    /* \"#utility.yul\":8685:8802   */\ntag_55:\n    /* \"#utility.yul\":8739:8747   */\n  0x00\n    /* \"#utility.yul\":8789:8794   */\n  dup3\n    /* \"#utility.yul\":8783:8787   */\n  dup3\n    /* \"#utility.yul\":8779:8795   */\n  shr\n    /* \"#utility.yul\":8758:8795   */\n  swap1\n  pop\n    /* \"#utility.yul\":8685:8802   */\n  swap3\n  swap2\n  pop\n  pop\n  jump\t// out\n    /* \"#utility.yul\":8808:8977   */\ntag_56:\n    /* \"#utility.yul\":8852:8858   */\n  0x00\n    /* \"#utility.yul\":8885:8936   */\n  tag_160\n    /* \"#utility.yul\":8933:8934   */\n  0x00\n    /* \"#utility.yul\":8929:8935   */\n  not\n    /* \"#utility.yul\":8921:8926   */\n  dup5\n    /* \"#utility.yul\":8918:8919   */\n  0x08\n    /* \"#utility.yul\":8914:8927   */\n  mul\n    /* \"#utility.yul\":8885:8936   */\n  tag_55\n  jump\t// in\ntag_160:\n    /* \"#utility.yul\":8881:8937   */\n  not\n    /* \"#utility.yul\":8966:8970   */\n  dup1\n    /* \"#utility.yul\":8960:8964   */\n  dup4\n    /* \"#utility.yul\":8956:8971   */\n  and\n    /* \"#utility.yul\":8946:8971   */\n  swap2\n  pop\n    /* \"#utility.yul\":8859:8977   */\n  pop\n    /* \"#utility.yul\":8808:8977   */\n  swap3\n  swap2\n  pop\n  pop\n  jump\t// out\n    /* \"#utility.yul\":8982:9277   */\ntag_57:\n    /* \"#utility.yul\":9058:9062   */\n  0x00\n    /* \"#utility.yul\":9204:9233   */\n  tag_162\n    /* \"#utility.yul\":9229:9232   */\n  dup4\n    /* \"#utility.yul\":9223:9227   */\n  dup4\n    /* \"#utility.yul\":9204:9233   */\n  tag_56\n  jump\t// in\ntag_162:\n    /* \"#utility.yul\":9196:9233   */\n  swap2\n  pop\n    /* \"#utility.yul\":9266:9269   */\n  dup3\n    /* \"#utility.yul\":9263:9264   */\n  0x02\n    /* \"#utility.yul\":9259:9270   */\n  mul\n    /* \"#utility.yul\":9253:9257   */\n  dup3\n    /* \"#utility.yul\":9250:9271   */\n  or\n    /* \"#utility.yul\":9242:9271   */\n  swap1\n  pop\n    /* \"#utility.yul\":8982:9277   */\n  swap3\n  swap2\n  pop\n  pop\n  jump\t// out\n    /* \"#utility.yul\":9282:10677   */\ntag_15:\n    /* \"#utility.yul\":9399:9436   */\n  tag_164\n    /* \"#utility.yul\":9432:9435   */\n  dup3\n    /* \"#utility.yul\":9399:9436   */\n  tag_36\n  jump\t// in\ntag_164:\n    /* \"#utility.yul\":9501:9519   */\n  0xffffffffffffffff\n    /* \"#utility.yul\":9493:9499   */\n  dup2\n    /* \"#utility.yul\":9490:9520   */\n  gt\n    /* \"#utility.yul\":9487:9543   */\n  iszero\n  tag_165\n  jumpi\n    /* \"#utility.yul\":9523:9541   */\n  tag_166\n  tag_25\n  jump\t// in\ntag_166:\n    /* \"#utility.yul\":9487:9543   */\ntag_165:\n    /* \"#utility.yul\":9567:9605   */\n  tag_167\n    /* \"#utility.yul\":9599:9603   */\n  dup3\n    /* \"#utility.yul\":9593:9604   */\n  sload\n    /* \"#utility.yul\":9567:9605   */\n  tag_41\n  jump\t// in\ntag_167:\n    /* \"#utility.yul\":9652:9719   */\n  tag_168\n    /* \"#utility.yul\":9712:9718   */\n  dup3\n    /* \"#utility.yul\":9704:9710   */\n  dup3\n    /* \"#utility.yul\":9698:9702   */\n  dup6\n    /* \"#utility.yul\":9652:9719   */\n  tag_54\n  jump\t// in\ntag_168:\n    /* \"#utility.yul\":9746:9747   */\n  0x00\n    /* \"#utility.yul\":9770:9774   */\n  0x20\n    /* \"#utility.yul\":9757:9774   */\n  swap1\n  pop\n    /* \"#utility.yul\":9802:9804   */\n  0x1f\n    /* \"#utility.yul\":9794:9800   */\n  dup4\n    /* \"#utility.yul\":9791:9805   */\n  gt\n    /* \"#utility.yul\":9819:9820   */\n  0x01\n    /* \"#utility.yul\":9814:10432   */\n  dup2\n  eq\n  tag_170\n  jumpi\n    /* \"#utility.yul\":10476:10477   */\n  0x00\n    /* \"#utility.yul\":10493:10499   */\n  dup5\n    /* \"#utility.yul\":10490:10567   */\n  iszero\n  tag_171\n  jumpi\n    /* \"#utility.yul\":10542:10551   */\n  dup3\n    /* \"#utility.yul\":10537:10540   */\n  dup8\n    /* \"#utility.yul\":10533:10552   */\n  add\n    /* \"#utility.yul\":10527:10553   */\n  mload\n    /* \"#utility.yul\":10518:10553   */\n  swap1\n  pop\n    /* \"#utility.yul\":10490:10567   */\ntag_171:\n    /* \"#utility.yul\":10593:10660   */\n  tag_172\n    /* \"#utility.yul\":10653:10659   */\n  dup6\n    /* \"#utility.yul\":10646:10651   */\n  dup3\n    /* \"#utility.yul\":10593:10660   */\n  tag_57\n  jump\t// in\ntag_172:\n    /* \"#utility.yul\":10587:10591   */\n  dup7\n    /* \"#utility.yul\":10580:10661   */\n  sstore\n    /* \"#utility.yul\":10449:10671   */\n  pop\n    /* \"#utility.yul\":9784:10671   */\n  jump(tag_169)\n    /* \"#utility.yul\":9814:10432   */\ntag_170:\n    /* \"#utility.yul\":9866:9870   */\n  0x1f\n    /* \"#utility.yul\":9862:9871   */\n  not\n    /* \"#utility.yul\":9854:9860   */\n  dup5\n    /* \"#utility.yul\":9850:9872   */\n  and\n    /* \"#utility.yul\":9900:9937   */\n  tag_173\n    /* \"#utility.yul\":9932:9936   */\n  dup7\n    /* \"#utility.yul\":9900:9937   */\n  tag_42\n  jump\t// in\ntag_173:\n    /* \"#utility.yul\":9959:9960   */\n  0x00\n    /* \"#utility.yul\":9973:10181   */\ntag_174:\n    /* \"#utility.yul\":9987:9994   */\n  dup3\n    /* \"#utility.yul\":9984:9985   */\n  dup2\n    /* \"#utility.yul\":9981:9995   */\n  lt\n    /* \"#utility.yul\":9973:10181   */\n  iszero\n  tag_176\n  jumpi\n    /* \"#utility.yul\":10066:10075   */\n  dup5\n    /* \"#utility.yul\":10061:10064   */\n  dup10\n    /* \"#utility.yul\":10057:10076   */\n  add\n    /* \"#utility.yul\":10051:10077   */\n  mload\n    /* \"#utility.yul\":10043:10049   */\n  dup3\n    /* \"#utility.yul\":10036:10078   */\n  sstore\n    /* \"#utility.yul\":10117:10118   */\n  0x01\n    /* \"#utility.yul\":10109:10115   */\n  dup3\n    /* \"#utility.yul\":10105:10119   */\n  add\n    /* \"#utility.yul\":10095:10119   */\n  swap2\n  pop\n    /* \"#utility.yul\":10164:10166   */\n  0x20\n    /* \"#utility.yul\":10153:10162   */\n  dup6\n    /* \"#utility.yul\":10149:10167   */\n  add\n    /* \"#utility.yul\":10136:10167   */\n  swap5\n  pop\n    /* \"#utility.yul\":10010:10014   */\n  0x20\n    /* \"#utility.yul\":10007:10008   */\n  dup2\n    /* \"#utility.yul\":10003:10015   */\n  add\n    /* \"#utility.yul\":9998:10015   */\n  swap1\n  pop\n    /* \"#utility.yul\":9973:10181   */\n  jump(tag_174)\ntag_176:\n    /* \"#utility.yul\":10209:10215   */\n  dup7\n    /* \"#utility.yul\":10200:10207   */\n  dup4\n    /* \"#utility.yul\":10197:10216   */\n  lt\n    /* \"#utility.yul\":10194:10373   */\n  iszero\n  tag_177\n  jumpi\n    /* \"#utility.yul\":10267:10276   */\n  dup5\n    /* \"#utility.yul\":10262:10265   */\n  dup10\n    /* \"#utility.yul\":10258:10277   */\n  add\n    /* \"#utility.yul\":10252:10278   */\n  mload\n    /* \"#utility.yul\":10310:10358   */\n  tag_178\n    /* \"#utility.yul\":10352:10356   */\n  0x1f\n    /* \"#utility.yul\":10344:10350   */\n  dup10\n    /* \"#utility.yul\":10340:10357   */\n  and\n    /* \"#utility.yul\":10329:10338   */\n  dup3\n    /* \"#utility.yul\":10310:10358   */\n  tag_56\n  jump\t// in\ntag_178:\n    /* \"#utility.yul\":10302:10308   */\n  dup4\n    /* \"#utility.yul\":10295:10359   */\n  sstore\n    /* \"#utility.yul\":10217:10373   */\n  pop\n    /* \"#utility.yul\":10194:10373   */\ntag_177:\n    /* \"#utility.yul\":10419:10420   */\n  0x01\n    /* \"#utility.yul\":10415:10416   */\n  0x02\n    /* \"#utility.yul\":10407:10413   */\n  dup9\n    /* \"#utility.yul\":10403:10417   */\n  mul\n    /* \"#utility.yul\":10399:10421   */\n  add\n    /* \"#utility.yul\":10393:10397   */\n  dup9\n    /* \"#utility.yul\":10386:10422   */\n  sstore\n    /* \"#utility.yul\":9821:10432   */\n  pop\n  pop\n  pop\n    /* \"#utility.yul\":9784:10671   */\ntag_169:\n  pop\n    /* \"#utility.yul\":9374:10677   */\n  pop\n  pop\n  pop\n    /* \"#utility.yul\":9282:10677   */\n  pop\n  pop\n  jump\t// out\n    /* \"ptrn_eco_system_dev_contracts/contracts_ready_for_prod/Copy_fakeAgregatorRate.sol\":233:1397  contract AgregatorRate is Ownable {... */\ntag_16:\n  dataSize(sub_0)\n  dup1\n  dataOffset(sub_0)\n  0x00\n  codecopy\n  0x00\n  return\nstop\n\nsub_0: assembly {\n        /* \"ptrn_eco_system_dev_contracts/contracts_ready_for_prod/Copy_fakeAgregatorRate.sol\":233:1397  contract AgregatorRate is Ownable {... */\n      mstore(0x40, 0x80)\n      callvalue\n      dup1\n      iszero\n      tag_1\n      jumpi\n      0x00\n      dup1\n      revert\n    tag_1:\n      pop\n      jumpi(tag_2, lt(calldatasize, 0x04))\n      shr(0xe0, calldataload(0x00))\n      dup1\n      0x082c4484\n      eq\n      tag_3\n      jumpi\n      dup1\n      0x715018a6\n      eq\n      tag_4\n      jumpi\n      dup1\n      0x8da5cb5b\n      eq\n      tag_5\n      jumpi\n      dup1\n      0xe1e7ff77\n      eq\n      tag_6\n      jumpi\n      dup1\n      0xf2fde38b\n      eq\n      tag_7\n      jumpi\n    tag_2:\n      0x00\n      dup1\n      revert\n        /* \"ptrn_eco_system_dev_contracts/contracts_ready_for_prod/Copy_fakeAgregatorRate.sol\":883:1158  function changeAggregatorAddress(string memory _assetOne, string memory _assetTwo, address _aggregatorAddress) public onlyOwner{... */\n    tag_3:\n      tag_8\n      0x04\n      dup1\n      calldatasize\n      sub\n      dup2\n      add\n      swap1\n      tag_9\n      swap2\n      swap1\n      tag_10\n      jump\t// in\n    tag_9:\n      tag_11\n      jump\t// in\n    tag_8:\n      stop\n        /* \"@openzeppelin/contracts/access/Ownable.sol\":1831:1932  function renounceOwnership() public virtual onlyOwner {... */\n    tag_4:\n      tag_12\n      tag_13\n      jump\t// in\n    tag_12:\n      stop\n        /* \"@openzeppelin/contracts/access/Ownable.sol\":1201:1286  function owner() public view virtual returns (address) {... */\n    tag_5:\n      tag_14\n      tag_15\n      jump\t// in\n    tag_14:\n      mload(0x40)\n      tag_16\n      swap2\n      swap1\n      tag_17\n      jump\t// in\n    tag_16:\n      mload(0x40)\n      dup1\n      swap2\n      sub\n      swap1\n      return\n        /* \"ptrn_eco_system_dev_contracts/contracts_ready_for_prod/Copy_fakeAgregatorRate.sol\":1164:1395  function getLatestRate() public view returns (int256, uint256, string memory) {... */\n    tag_6:\n      tag_18\n      tag_19\n      jump\t// in\n    tag_18:\n      mload(0x40)\n      tag_20\n      swap4\n      swap3\n      swap2\n      swap1\n      tag_21\n      jump\t// in\n    tag_20:\n      mload(0x40)\n      dup1\n      swap2\n      sub\n      swap1\n      return\n        /* \"@openzeppelin/contracts/access/Ownable.sol\":2081:2279  function transferOwnership(address newOwner) public virtual onlyOwner {... */\n    tag_7:\n      tag_22\n      0x04\n      dup1\n      calldatasize\n      sub\n      dup2\n      add\n      swap1\n      tag_23\n      swap2\n      swap1\n      tag_24\n      jump\t// in\n    tag_23:\n      tag_25\n      jump\t// in\n    tag_22:\n      stop\n        /* \"ptrn_eco_system_dev_contracts/contracts_ready_for_prod/Copy_fakeAgregatorRate.sol\":883:1158  function changeAggregatorAddress(string memory _assetOne, string memory _assetTwo, address _aggregatorAddress) public onlyOwner{... */\n    tag_11:\n        /* \"@openzeppelin/contracts/access/Ownable.sol\":1094:1107  _checkOwner() */\n      tag_27\n        /* \"@openzeppelin/contracts/access/Ownable.sol\":1094:1105  _checkOwner */\n      tag_28\n        /* \"@openzeppelin/contracts/access/Ownable.sol\":1094:1107  _checkOwner() */\n      jump\t// in\n    tag_27:\n        /* \"ptrn_eco_system_dev_contracts/contracts_ready_for_prod/Copy_fakeAgregatorRate.sol\":1067:1085  _aggregatorAddress */\n      dup1\n        /* \"ptrn_eco_system_dev_contracts/contracts_ready_for_prod/Copy_fakeAgregatorRate.sol\":1020:1029  priceFeed */\n      0x01\n      0x00\n        /* \"ptrn_eco_system_dev_contracts/contracts_ready_for_prod/Copy_fakeAgregatorRate.sol\":1020:1096  priceFeed = AggregatorV3Interface(... */\n      0x0100\n      exp\n      dup2\n      sload\n      dup2\n      0xffffffffffffffffffffffffffffffffffffffff\n      mul\n      not\n      and\n      swap1\n      dup4\n      0xffffffffffffffffffffffffffffffffffffffff\n      and\n      mul\n      or\n      swap1\n      sstore\n      pop\n        /* \"ptrn_eco_system_dev_contracts/contracts_ready_for_prod/Copy_fakeAgregatorRate.sol\":1127:1136  _assetOne */\n      dup3\n        /* \"ptrn_eco_system_dev_contracts/contracts_ready_for_prod/Copy_fakeAgregatorRate.sol\":1141:1150  _assetTwo */\n      dup3\n        /* \"ptrn_eco_system_dev_contracts/contracts_ready_for_prod/Copy_fakeAgregatorRate.sol\":1113:1151  string.concat(_assetOne,\"/\",_assetTwo) */\n      add(0x20, mload(0x40))\n      tag_30\n      swap3\n      swap2\n      swap1\n      tag_31\n      jump\t// in\n    tag_30:\n      mload(0x40)\n      0x20\n      dup2\n      dup4\n      sub\n      sub\n      dup2\n      mstore\n      swap1\n      0x40\n      mstore\n        /* \"ptrn_eco_system_dev_contracts/contracts_ready_for_prod/Copy_fakeAgregatorRate.sol\":1106:1110  rate */\n      0x02\n        /* \"ptrn_eco_system_dev_contracts/contracts_ready_for_prod/Copy_fakeAgregatorRate.sol\":1106:1151  rate = string.concat(_assetOne,\"/\",_assetTwo) */\n      swap1\n      dup2\n      tag_32\n      swap2\n      swap1\n      tag_33\n      jump\t// in\n    tag_32:\n      pop\n        /* \"ptrn_eco_system_dev_contracts/contracts_ready_for_prod/Copy_fakeAgregatorRate.sol\":883:1158  function changeAggregatorAddress(string memory _assetOne, string memory _assetTwo, address _aggregatorAddress) public onlyOwner{... */\n      pop\n      pop\n      pop\n      jump\t// out\n        /* \"@openzeppelin/contracts/access/Ownable.sol\":1831:1932  function renounceOwnership() public virtual onlyOwner {... */\n    tag_13:\n        /* \"@openzeppelin/contracts/access/Ownable.sol\":1094:1107  _checkOwner() */\n      tag_35\n        /* \"@openzeppelin/contracts/access/Ownable.sol\":1094:1105  _checkOwner */\n      tag_28\n        /* \"@openzeppelin/contracts/access/Ownable.sol\":1094:1107  _checkOwner() */\n      jump\t// in\n    tag_35:\n        /* \"@openzeppelin/contracts/access/Ownable.sol\":1895:1925  _transferOwnership(address(0)) */\n      tag_37\n        /* \"@openzeppelin/contracts/access/Ownable.sol\":1922:1923  0 */\n      0x00\n        /* \"@openzeppelin/contracts/access/Ownable.sol\":1895:1913  _transferOwnership */\n      tag_38\n        /* \"@openzeppelin/contracts/access/Ownable.sol\":1895:1925  _transferOwnership(address(0)) */\n      jump\t// in\n    tag_37:\n        /* \"@openzeppelin/contracts/access/Ownable.sol\":1831:1932  function renounceOwnership() public virtual onlyOwner {... */\n      jump\t// out\n        /* \"@openzeppelin/contracts/access/Ownable.sol\":1201:1286  function owner() public view virtual returns (address) {... */\n    tag_15:\n        /* \"@openzeppelin/contracts/access/Ownable.sol\":1247:1254  address */\n      0x00\n        /* \"@openzeppelin/contracts/access/Ownable.sol\":1273:1279  _owner */\n      dup1\n      0x00\n      swap1\n      sload\n      swap1\n      0x0100\n      exp\n      swap1\n      div\n      0xffffffffffffffffffffffffffffffffffffffff\n      and\n        /* \"@openzeppelin/contracts/access/Ownable.sol\":1266:1279  return _owner */\n      swap1\n      pop\n        /* \"@openzeppelin/contracts/access/Ownable.sol\":1201:1286  function owner() public view virtual returns (address) {... */\n      swap1\n      jump\t// out\n        /* \"ptrn_eco_system_dev_contracts/contracts_ready_for_prod/Copy_fakeAgregatorRate.sol\":1164:1395  function getLatestRate() public view returns (int256, uint256, string memory) {... */\n    tag_19:\n        /* \"ptrn_eco_system_dev_contracts/contracts_ready_for_prod/Copy_fakeAgregatorRate.sol\":1210:1216  int256 */\n      0x00\n        /* \"ptrn_eco_system_dev_contracts/contracts_ready_for_prod/Copy_fakeAgregatorRate.sol\":1218:1225  uint256 */\n      dup1\n        /* \"ptrn_eco_system_dev_contracts/contracts_ready_for_prod/Copy_fakeAgregatorRate.sol\":1227:1240  string memory */\n      0x60\n        /* \"ptrn_eco_system_dev_contracts/contracts_ready_for_prod/Copy_fakeAgregatorRate.sol\":1254:1266  int256 price */\n      0x00\n        /* \"ptrn_eco_system_dev_contracts/contracts_ready_for_prod/Copy_fakeAgregatorRate.sol\":1273:1282  priceFeed */\n      0x01\n      0x00\n      swap1\n      sload\n      swap1\n      0x0100\n      exp\n      swap1\n      div\n      0xffffffffffffffffffffffffffffffffffffffff\n      and\n        /* \"ptrn_eco_system_dev_contracts/contracts_ready_for_prod/Copy_fakeAgregatorRate.sol\":1273:1298  priceFeed.latestRoundData */\n      0xffffffffffffffffffffffffffffffffffffffff\n      and\n      0xfeaf968c\n        /* \"ptrn_eco_system_dev_contracts/contracts_ready_for_prod/Copy_fakeAgregatorRate.sol\":1273:1300  priceFeed.latestRoundData() */\n      mload(0x40)\n      dup2\n      0xffffffff\n      and\n      0xe0\n      shl\n      dup2\n      mstore\n      0x04\n      add\n      0xa0\n      mload(0x40)\n      dup1\n      dup4\n      sub\n      dup2\n      dup7\n      gas\n      staticcall\n      iszero\n      dup1\n      iszero\n      tag_42\n      jumpi\n      returndatasize\n      0x00\n      dup1\n      returndatacopy\n      revert(0x00, returndatasize)\n    tag_42:\n      pop\n      pop\n      pop\n      pop\n      mload(0x40)\n      returndatasize\n      not(0x1f)\n      0x1f\n      dup3\n      add\n      and\n      dup3\n      add\n      dup1\n      0x40\n      mstore\n      pop\n      dup2\n      add\n      swap1\n      tag_43\n      swap2\n      swap1\n      tag_44\n      jump\t// in\n    tag_43:\n        /* \"ptrn_eco_system_dev_contracts/contracts_ready_for_prod/Copy_fakeAgregatorRate.sol\":1252:1300  (,int256 price,,,) = priceFeed.latestRoundData() */\n      pop\n      pop\n      pop\n      swap2\n      pop\n      pop\n        /* \"ptrn_eco_system_dev_contracts/contracts_ready_for_prod/Copy_fakeAgregatorRate.sol\":1310:1326  uint256 decimals */\n      0x00\n        /* \"ptrn_eco_system_dev_contracts/contracts_ready_for_prod/Copy_fakeAgregatorRate.sol\":1329:1338  priceFeed */\n      0x01\n      0x00\n      swap1\n      sload\n      swap1\n      0x0100\n      exp\n      swap1\n      div\n      0xffffffffffffffffffffffffffffffffffffffff\n      and\n        /* \"ptrn_eco_system_dev_contracts/contracts_ready_for_prod/Copy_fakeAgregatorRate.sol\":1329:1347  priceFeed.decimals */\n      0xffffffffffffffffffffffffffffffffffffffff\n      and\n      0x313ce567\n        /* \"ptrn_eco_system_dev_contracts/contracts_ready_for_prod/Copy_fakeAgregatorRate.sol\":1329:1349  priceFeed.decimals() */\n      mload(0x40)\n      dup2\n      0xffffffff\n      and\n      0xe0\n      shl\n      dup2\n      mstore\n      0x04\n      add\n      0x20\n      mload(0x40)\n      dup1\n      dup4\n      sub\n      dup2\n      dup7\n      gas\n      staticcall\n      iszero\n      dup1\n      iszero\n      tag_46\n      jumpi\n      returndatasize\n      0x00\n      dup1\n      returndatacopy\n      revert(0x00, returndatasize)\n    tag_46:\n      pop\n      pop\n      pop\n      pop\n      mload(0x40)\n      returndatasize\n      not(0x1f)\n      0x1f\n      dup3\n      add\n      and\n      dup3\n      add\n      dup1\n      0x40\n      mstore\n      pop\n      dup2\n      add\n      swap1\n      tag_47\n      swap2\n      swap1\n      tag_48\n      jump\t// in\n    tag_47:\n        /* \"ptrn_eco_system_dev_contracts/contracts_ready_for_prod/Copy_fakeAgregatorRate.sol\":1310:1349  uint256 decimals = priceFeed.decimals() */\n      0xff\n      and\n      swap1\n      pop\n        /* \"ptrn_eco_system_dev_contracts/contracts_ready_for_prod/Copy_fakeAgregatorRate.sol\":1367:1372  price */\n      dup2\n        /* \"ptrn_eco_system_dev_contracts/contracts_ready_for_prod/Copy_fakeAgregatorRate.sol\":1373:1381  decimals */\n      dup2\n        /* \"ptrn_eco_system_dev_contracts/contracts_ready_for_prod/Copy_fakeAgregatorRate.sol\":1383:1387  rate */\n      0x02\n        /* \"ptrn_eco_system_dev_contracts/contracts_ready_for_prod/Copy_fakeAgregatorRate.sol\":1359:1388  return (price,decimals, rate) */\n      dup1\n      dup1\n      sload\n      tag_49\n      swap1\n      tag_50\n      jump\t// in\n    tag_49:\n      dup1\n      0x1f\n      add\n      0x20\n      dup1\n      swap2\n      div\n      mul\n      0x20\n      add\n      mload(0x40)\n      swap1\n      dup2\n      add\n      0x40\n      mstore\n      dup1\n      swap3\n      swap2\n      swap1\n      dup2\n      dup2\n      mstore\n      0x20\n      add\n      dup3\n      dup1\n      sload\n      tag_51\n      swap1\n      tag_50\n      jump\t// in\n    tag_51:\n      dup1\n      iszero\n      tag_52\n      jumpi\n      dup1\n      0x1f\n      lt\n      tag_53\n      jumpi\n      0x0100\n      dup1\n      dup4\n      sload\n      div\n      mul\n      dup4\n      mstore\n      swap2\n      0x20\n      add\n      swap2\n      jump(tag_52)\n    tag_53:\n      dup3\n      add\n      swap2\n      swap1\n      0x00\n      mstore\n      keccak256(0x00, 0x20)\n      swap1\n    tag_54:\n      dup2\n      sload\n      dup2\n      mstore\n      swap1\n      0x01\n      add\n      swap1\n      0x20\n      add\n      dup1\n      dup4\n      gt\n      tag_54\n      jumpi\n      dup3\n      swap1\n      sub\n      0x1f\n      and\n      dup3\n      add\n      swap2\n    tag_52:\n      pop\n      pop\n      pop\n      pop\n      pop\n      swap1\n      pop\n      swap5\n      pop\n      swap5\n      pop\n      swap5\n      pop\n      pop\n      pop\n        /* \"ptrn_eco_system_dev_contracts/contracts_ready_for_prod/Copy_fakeAgregatorRate.sol\":1164:1395  function getLatestRate() public view returns (int256, uint256, string memory) {... */\n      swap1\n      swap2\n      swap3\n      jump\t// out\n        /* \"@openzeppelin/contracts/access/Ownable.sol\":2081:2279  function transferOwnership(address newOwner) public virtual onlyOwner {... */\n    tag_25:\n        /* \"@openzeppelin/contracts/access/Ownable.sol\":1094:1107  _checkOwner() */\n      tag_56\n        /* \"@openzeppelin/contracts/access/Ownable.sol\":1094:1105  _checkOwner */\n      tag_28\n        /* \"@openzeppelin/contracts/access/Ownable.sol\":1094:1107  _checkOwner() */\n      jump\t// in\n    tag_56:\n        /* \"@openzeppelin/contracts/access/Ownable.sol\":2189:2190  0 */\n      0x00\n        /* \"@openzeppelin/contracts/access/Ownable.sol\":2169:2191  newOwner != address(0) */\n      0xffffffffffffffffffffffffffffffffffffffff\n      and\n        /* \"@openzeppelin/contracts/access/Ownable.sol\":2169:2177  newOwner */\n      dup2\n        /* \"@openzeppelin/contracts/access/Ownable.sol\":2169:2191  newOwner != address(0) */\n      0xffffffffffffffffffffffffffffffffffffffff\n      and\n      sub\n        /* \"@openzeppelin/contracts/access/Ownable.sol\":2161:2234  require(newOwner != address(0), \"Ownable: new owner is the zero address\") */\n      tag_58\n      jumpi\n      mload(0x40)\n      0x08c379a000000000000000000000000000000000000000000000000000000000\n      dup2\n      mstore\n      0x04\n      add\n      tag_59\n      swap1\n      tag_60\n      jump\t// in\n    tag_59:\n      mload(0x40)\n      dup1\n      swap2\n      sub\n      swap1\n      revert\n    tag_58:\n        /* \"@openzeppelin/contracts/access/Ownable.sol\":2244:2272  _transferOwnership(newOwner) */\n      tag_61\n        /* \"@openzeppelin/contracts/access/Ownable.sol\":2263:2271  newOwner */\n      dup2\n        /* \"@openzeppelin/contracts/access/Ownable.sol\":2244:2262  _transferOwnership */\n      tag_38\n        /* \"@openzeppelin/contracts/access/Ownable.sol\":2244:2272  _transferOwnership(newOwner) */\n      jump\t// in\n    tag_61:\n        /* \"@openzeppelin/contracts/access/Ownable.sol\":2081:2279  function transferOwnership(address newOwner) public virtual onlyOwner {... */\n      pop\n      jump\t// out\n        /* \"@openzeppelin/contracts/access/Ownable.sol\":1359:1489  function _checkOwner() internal view virtual {... */\n    tag_28:\n        /* \"@openzeppelin/contracts/access/Ownable.sol\":1433:1445  _msgSender() */\n      tag_63\n        /* \"@openzeppelin/contracts/access/Ownable.sol\":1433:1443  _msgSender */\n      tag_64\n        /* \"@openzeppelin/contracts/access/Ownable.sol\":1433:1445  _msgSender() */\n      jump\t// in\n    tag_63:\n        /* \"@openzeppelin/contracts/access/Ownable.sol\":1422:1445  owner() == _msgSender() */\n      0xffffffffffffffffffffffffffffffffffffffff\n      and\n        /* \"@openzeppelin/contracts/access/Ownable.sol\":1422:1429  owner() */\n      tag_65\n        /* \"@openzeppelin/contracts/access/Ownable.sol\":1422:1427  owner */\n      tag_15\n        /* \"@openzeppelin/contracts/access/Ownable.sol\":1422:1429  owner() */\n      jump\t// in\n    tag_65:\n        /* \"@openzeppelin/contracts/access/Ownable.sol\":1422:1445  owner() == _msgSender() */\n      0xffffffffffffffffffffffffffffffffffffffff\n      and\n      eq\n        /* \"@openzeppelin/contracts/access/Ownable.sol\":1414:1482  require(owner() == _msgSender(), \"Ownable: caller is not the owner\") */\n      tag_66\n      jumpi\n      mload(0x40)\n      0x08c379a000000000000000000000000000000000000000000000000000000000\n      dup2\n      mstore\n      0x04\n      add\n      tag_67\n      swap1\n      tag_68\n      jump\t// in\n    tag_67:\n      mload(0x40)\n      dup1\n      swap2\n      sub\n      swap1\n      revert\n    tag_66:\n        /* \"@openzeppelin/contracts/access/Ownable.sol\":1359:1489  function _checkOwner() internal view virtual {... */\n      jump\t// out\n        /* \"@openzeppelin/contracts/access/Ownable.sol\":2433:2620  function _transferOwnership(address newOwner) internal virtual {... */\n    tag_38:\n        /* \"@openzeppelin/contracts/access/Ownable.sol\":2506:2522  address oldOwner */\n      0x00\n        /* \"@openzeppelin/contracts/access/Ownable.sol\":2525:2531  _owner */\n      dup1\n      0x00\n      swap1\n      sload\n      swap1\n      0x0100\n      exp\n      swap1\n      div\n      0xffffffffffffffffffffffffffffffffffffffff\n      and\n        /* \"@openzeppelin/contracts/access/Ownable.sol\":2506:2531  address oldOwner = _owner */\n      swap1\n      pop\n        /* \"@openzeppelin/contracts/access/Ownable.sol\":2550:2558  newOwner */\n      dup2\n        /* \"@openzeppelin/contracts/access/Ownable.sol\":2541:2547  _owner */\n      0x00\n      dup1\n        /* \"@openzeppelin/contracts/access/Ownable.sol\":2541:2558  _owner = newOwner */\n      0x0100\n      exp\n      dup2\n      sload\n      dup2\n      0xffffffffffffffffffffffffffffffffffffffff\n      mul\n      not\n      and\n      swap1\n      dup4\n      0xffffffffffffffffffffffffffffffffffffffff\n      and\n      mul\n      or\n      swap1\n      sstore\n      pop\n        /* \"@openzeppelin/contracts/access/Ownable.sol\":2604:2612  newOwner */\n      dup2\n        /* \"@openzeppelin/contracts/access/Ownable.sol\":2573:2613  OwnershipTransferred(oldOwner, newOwner) */\n      0xffffffffffffffffffffffffffffffffffffffff\n      and\n        /* \"@openzeppelin/contracts/access/Ownable.sol\":2594:2602  oldOwner */\n      dup2\n        /* \"@openzeppelin/contracts/access/Ownable.sol\":2573:2613  OwnershipTransferred(oldOwner, newOwner) */\n      0xffffffffffffffffffffffffffffffffffffffff\n      and\n      0x8be0079c531659141344cd1fd0a4f28419497f9722a3daafe3b4186f6b6457e0\n      mload(0x40)\n      mload(0x40)\n      dup1\n      swap2\n      sub\n      swap1\n      log3\n        /* \"@openzeppelin/contracts/access/Ownable.sol\":2496:2620  {... */\n      pop\n        /* \"@openzeppelin/contracts/access/Ownable.sol\":2433:2620  function _transferOwnership(address newOwner) internal virtual {... */\n      pop\n      jump\t// out\n        /* \"@openzeppelin/contracts/utils/Context.sol\":640:736  function _msgSender() internal view virtual returns (address) {... */\n    tag_64:\n        /* \"@openzeppelin/contracts/utils/Context.sol\":693:700  address */\n      0x00\n        /* \"@openzeppelin/contracts/utils/Context.sol\":719:729  msg.sender */\n      caller\n        /* \"@openzeppelin/contracts/utils/Context.sol\":712:729  return msg.sender */\n      swap1\n      pop\n        /* \"@openzeppelin/contracts/utils/Context.sol\":640:736  function _msgSender() internal view virtual returns (address) {... */\n      swap1\n      jump\t// out\n        /* \"#utility.yul\":7:82   */\n    tag_71:\n        /* \"#utility.yul\":40:46   */\n      0x00\n        /* \"#utility.yul\":73:75   */\n      0x40\n        /* \"#utility.yul\":67:76   */\n      mload\n        /* \"#utility.yul\":57:76   */\n      swap1\n      pop\n        /* \"#utility.yul\":7:82   */\n      swap1\n      jump\t// out\n        /* \"#utility.yul\":88:205   */\n    tag_72:\n        /* \"#utility.yul\":197:198   */\n      0x00\n        /* \"#utility.yul\":194:195   */\n      dup1\n        /* \"#utility.yul\":187:199   */\n      revert\n        /* \"#utility.yul\":211:328   */\n    tag_73:\n        /* \"#utility.yul\":320:321   */\n      0x00\n        /* \"#utility.yul\":317:318   */\n      dup1\n        /* \"#utility.yul\":310:322   */\n      revert\n        /* \"#utility.yul\":334:451   */\n    tag_74:\n        /* \"#utility.yul\":443:444   */\n      0x00\n        /* \"#utility.yul\":440:441   */\n      dup1\n        /* \"#utility.yul\":433:445   */\n      revert\n        /* \"#utility.yul\":457:574   */\n    tag_75:\n        /* \"#utility.yul\":566:567   */\n      0x00\n        /* \"#utility.yul\":563:564   */\n      dup1\n        /* \"#utility.yul\":556:568   */\n      revert\n        /* \"#utility.yul\":580:682   */\n    tag_76:\n        /* \"#utility.yul\":621:627   */\n      0x00\n        /* \"#utility.yul\":672:674   */\n      0x1f\n        /* \"#utility.yul\":668:675   */\n      not\n        /* \"#utility.yul\":663:665   */\n      0x1f\n        /* \"#utility.yul\":656:661   */\n      dup4\n        /* \"#utility.yul\":652:666   */\n      add\n        /* \"#utility.yul\":648:676   */\n      and\n        /* \"#utility.yul\":638:676   */\n      swap1\n      pop\n        /* \"#utility.yul\":580:682   */\n      swap2\n      swap1\n      pop\n      jump\t// out\n        /* \"#utility.yul\":688:868   */\n    tag_77:\n        /* \"#utility.yul\":736:813   */\n      0x4e487b7100000000000000000000000000000000000000000000000000000000\n        /* \"#utility.yul\":733:734   */\n      0x00\n        /* \"#utility.yul\":726:814   */\n      mstore\n        /* \"#utility.yul\":833:837   */\n      0x41\n        /* \"#utility.yul\":830:831   */\n      0x04\n        /* \"#utility.yul\":823:838   */\n      mstore\n        /* \"#utility.yul\":857:861   */\n      0x24\n        /* \"#utility.yul\":854:855   */\n      0x00\n        /* \"#utility.yul\":847:862   */\n      revert\n        /* \"#utility.yul\":874:1155   */\n    tag_78:\n        /* \"#utility.yul\":957:984   */\n      tag_139\n        /* \"#utility.yul\":979:983   */\n      dup3\n        /* \"#utility.yul\":957:984   */\n      tag_76\n      jump\t// in\n    tag_139:\n        /* \"#utility.yul\":949:955   */\n      dup2\n        /* \"#utility.yul\":945:985   */\n      add\n        /* \"#utility.yul\":1087:1093   */\n      dup2\n        /* \"#utility.yul\":1075:1085   */\n      dup2\n        /* \"#utility.yul\":1072:1094   */\n      lt\n        /* \"#utility.yul\":1051:1069   */\n      0xffffffffffffffff\n        /* \"#utility.yul\":1039:1049   */\n      dup3\n        /* \"#utility.yul\":1036:1070   */\n      gt\n        /* \"#utility.yul\":1033:1095   */\n      or\n        /* \"#utility.yul\":1030:1118   */\n      iszero\n      tag_140\n      jumpi\n        /* \"#utility.yul\":1098:1116   */\n      tag_141\n      tag_77\n      jump\t// in\n    tag_141:\n        /* \"#utility.yul\":1030:1118   */\n    tag_140:\n        /* \"#utility.yul\":1138:1148   */\n      dup1\n        /* \"#utility.yul\":1134:1136   */\n      0x40\n        /* \"#utility.yul\":1127:1149   */\n      mstore\n        /* \"#utility.yul\":917:1155   */\n      pop\n        /* \"#utility.yul\":874:1155   */\n      pop\n      pop\n      jump\t// out\n        /* \"#utility.yul\":1161:1290   */\n    tag_79:\n        /* \"#utility.yul\":1195:1201   */\n      0x00\n        /* \"#utility.yul\":1222:1242   */\n      tag_143\n      tag_71\n      jump\t// in\n    tag_143:\n        /* \"#utility.yul\":1212:1242   */\n      swap1\n      pop\n        /* \"#utility.yul\":1251:1284   */\n      tag_144\n        /* \"#utility.yul\":1279:1283   */\n      dup3\n        /* \"#utility.yul\":1271:1277   */\n      dup3\n        /* \"#utility.yul\":1251:1284   */\n      tag_78\n      jump\t// in\n    tag_144:\n        /* \"#utility.yul\":1161:1290   */\n      swap2\n      swap1\n      pop\n      jump\t// out\n        /* \"#utility.yul\":1296:1604   */\n    tag_80:\n        /* \"#utility.yul\":1358:1362   */\n      0x00\n        /* \"#utility.yul\":1448:1466   */\n      0xffffffffffffffff\n        /* \"#utility.yul\":1440:1446   */\n      dup3\n        /* \"#utility.yul\":1437:1467   */\n      gt\n        /* \"#utility.yul\":1434:1490   */\n      iszero\n      tag_146\n      jumpi\n        /* \"#utility.yul\":1470:1488   */\n      tag_147\n      tag_77\n      jump\t// in\n    tag_147:\n        /* \"#utility.yul\":1434:1490   */\n    tag_146:\n        /* \"#utility.yul\":1508:1537   */\n      tag_148\n        /* \"#utility.yul\":1530:1536   */\n      dup3\n        /* \"#utility.yul\":1508:1537   */\n      tag_76\n      jump\t// in\n    tag_148:\n        /* \"#utility.yul\":1500:1537   */\n      swap1\n      pop\n        /* \"#utility.yul\":1592:1596   */\n      0x20\n        /* \"#utility.yul\":1586:1590   */\n      dup2\n        /* \"#utility.yul\":1582:1597   */\n      add\n        /* \"#utility.yul\":1574:1597   */\n      swap1\n      pop\n        /* \"#utility.yul\":1296:1604   */\n      swap2\n      swap1\n      pop\n      jump\t// out\n        /* \"#utility.yul\":1610:1756   */\n    tag_81:\n        /* \"#utility.yul\":1707:1713   */\n      dup3\n        /* \"#utility.yul\":1702:1705   */\n      dup2\n        /* \"#utility.yul\":1697:1700   */\n      dup4\n        /* \"#utility.yul\":1684:1714   */\n      calldatacopy\n        /* \"#utility.yul\":1748:1749   */\n      0x00\n        /* \"#utility.yul\":1739:1745   */\n      dup4\n        /* \"#utility.yul\":1734:1737   */\n      dup4\n        /* \"#utility.yul\":1730:1746   */\n      add\n        /* \"#utility.yul\":1723:1750   */\n      mstore\n        /* \"#utility.yul\":1610:1756   */\n      pop\n      pop\n      pop\n      jump\t// out\n        /* \"#utility.yul\":1762:2187   */\n    tag_82:\n        /* \"#utility.yul\":1840:1845   */\n      0x00\n        /* \"#utility.yul\":1865:1931   */\n      tag_151\n        /* \"#utility.yul\":1881:1930   */\n      tag_152\n        /* \"#utility.yul\":1923:1929   */\n      dup5\n        /* \"#utility.yul\":1881:1930   */\n      tag_80\n      jump\t// in\n    tag_152:\n        /* \"#utility.yul\":1865:1931   */\n      tag_79\n      jump\t// in\n    tag_151:\n        /* \"#utility.yul\":1856:1931   */\n      swap1\n      pop\n        /* \"#utility.yul\":1954:1960   */\n      dup3\n        /* \"#utility.yul\":1947:1952   */\n      dup2\n        /* \"#utility.yul\":1940:1961   */\n      mstore\n        /* \"#utility.yul\":1992:1996   */\n      0x20\n        /* \"#utility.yul\":1985:1990   */\n      dup2\n        /* \"#utility.yul\":1981:1997   */\n      add\n        /* \"#utility.yul\":2030:2033   */\n      dup5\n        /* \"#utility.yul\":2021:2027   */\n      dup5\n        /* \"#utility.yul\":2016:2019   */\n      dup5\n        /* \"#utility.yul\":2012:2028   */\n      add\n        /* \"#utility.yul\":2009:2034   */\n      gt\n        /* \"#utility.yul\":2006:2118   */\n      iszero\n      tag_153\n      jumpi\n        /* \"#utility.yul\":2037:2116   */\n      tag_154\n      tag_75\n      jump\t// in\n    tag_154:\n        /* \"#utility.yul\":2006:2118   */\n    tag_153:\n        /* \"#utility.yul\":2127:2181   */\n      tag_155\n        /* \"#utility.yul\":2174:2180   */\n      dup5\n        /* \"#utility.yul\":2169:2172   */\n      dup3\n        /* \"#utility.yul\":2164:2167   */\n      dup6\n        /* \"#utility.yul\":2127:2181   */\n      tag_81\n      jump\t// in\n    tag_155:\n        /* \"#utility.yul\":1846:2187   */\n      pop\n        /* \"#utility.yul\":1762:2187   */\n      swap4\n      swap3\n      pop\n      pop\n      pop\n      jump\t// out\n        /* \"#utility.yul\":2207:2547   */\n    tag_83:\n        /* \"#utility.yul\":2263:2268   */\n      0x00\n        /* \"#utility.yul\":2312:2315   */\n      dup3\n        /* \"#utility.yul\":2305:2309   */\n      0x1f\n        /* \"#utility.yul\":2297:2303   */\n      dup4\n        /* \"#utility.yul\":2293:2310   */\n      add\n        /* \"#utility.yul\":2289:2316   */\n      slt\n        /* \"#utility.yul\":2279:2401   */\n      tag_157\n      jumpi\n        /* \"#utility.yul\":2320:2399   */\n      tag_158\n      tag_74\n      jump\t// in\n    tag_158:\n        /* \"#utility.yul\":2279:2401   */\n    tag_157:\n        /* \"#utility.yul\":2437:2443   */\n      dup2\n        /* \"#utility.yul\":2424:2444   */\n      calldataload\n        /* \"#utility.yul\":2462:2541   */\n      tag_159\n        /* \"#utility.yul\":2537:2540   */\n      dup5\n        /* \"#utility.yul\":2529:2535   */\n      dup3\n        /* \"#utility.yul\":2522:2526   */\n      0x20\n        /* \"#utility.yul\":2514:2520   */\n      dup7\n        /* \"#utility.yul\":2510:2527   */\n      add\n        /* \"#utility.yul\":2462:2541   */\n      tag_82\n      jump\t// in\n    tag_159:\n        /* \"#utility.yul\":2453:2541   */\n      swap2\n      pop\n        /* \"#utility.yul\":2269:2547   */\n      pop\n        /* \"#utility.yul\":2207:2547   */\n      swap3\n      swap2\n      pop\n      pop\n      jump\t// out\n        /* \"#utility.yul\":2553:2679   */\n    tag_84:\n        /* \"#utility.yul\":2590:2597   */\n      0x00\n        /* \"#utility.yul\":2630:2672   */\n      0xffffffffffffffffffffffffffffffffffffffff\n        /* \"#utility.yul\":2623:2628   */\n      dup3\n        /* \"#utility.yul\":2619:2673   */\n      and\n        /* \"#utility.yul\":2608:2673   */\n      swap1\n      pop\n        /* \"#utility.yul\":2553:2679   */\n      swap2\n      swap1\n      pop\n      jump\t// out\n        /* \"#utility.yul\":2685:2781   */\n    tag_85:\n        /* \"#utility.yul\":2722:2729   */\n      0x00\n        /* \"#utility.yul\":2751:2775   */\n      tag_162\n        /* \"#utility.yul\":2769:2774   */\n      dup3\n        /* \"#utility.yul\":2751:2775   */\n      tag_84\n      jump\t// in\n    tag_162:\n        /* \"#utility.yul\":2740:2775   */\n      swap1\n      pop\n        /* \"#utility.yul\":2685:2781   */\n      swap2\n      swap1\n      pop\n      jump\t// out\n        /* \"#utility.yul\":2787:2909   */\n    tag_86:\n        /* \"#utility.yul\":2860:2884   */\n      tag_164\n        /* \"#utility.yul\":2878:2883   */\n      dup2\n        /* \"#utility.yul\":2860:2884   */\n      tag_85\n      jump\t// in\n    tag_164:\n        /* \"#utility.yul\":2853:2858   */\n      dup2\n        /* \"#utility.yul\":2850:2885   */\n      eq\n        /* \"#utility.yul\":2840:2903   */\n      tag_165\n      jumpi\n        /* \"#utility.yul\":2899:2900   */\n      0x00\n        /* \"#utility.yul\":2896:2897   */\n      dup1\n        /* \"#utility.yul\":2889:2901   */\n      revert\n        /* \"#utility.yul\":2840:2903   */\n    tag_165:\n        /* \"#utility.yul\":2787:2909   */\n      pop\n      jump\t// out\n        /* \"#utility.yul\":2915:3054   */\n    tag_87:\n        /* \"#utility.yul\":2961:2966   */\n      0x00\n        /* \"#utility.yul\":2999:3005   */\n      dup2\n        /* \"#utility.yul\":2986:3006   */\n      calldataload\n        /* \"#utility.yul\":2977:3006   */\n      swap1\n      pop\n        /* \"#utility.yul\":3015:3048   */\n      tag_167\n        /* \"#utility.yul\":3042:3047   */\n      dup2\n        /* \"#utility.yul\":3015:3048   */\n      tag_86\n      jump\t// in\n    tag_167:\n        /* \"#utility.yul\":2915:3054   */\n      swap3\n      swap2\n      pop\n      pop\n      jump\t// out\n        /* \"#utility.yul\":3060:4039   */\n    tag_10:\n        /* \"#utility.yul\":3157:3163   */\n      0x00\n        /* \"#utility.yul\":3165:3171   */\n      dup1\n        /* \"#utility.yul\":3173:3179   */\n      0x00\n        /* \"#utility.yul\":3222:3224   */\n      0x60\n        /* \"#utility.yul\":3210:3219   */\n      dup5\n        /* \"#utility.yul\":3201:3208   */\n      dup7\n        /* \"#utility.yul\":3197:3220   */\n      sub\n        /* \"#utility.yul\":3193:3225   */\n      slt\n        /* \"#utility.yul\":3190:3309   */\n      iszero\n      tag_169\n      jumpi\n        /* \"#utility.yul\":3228:3307   */\n      tag_170\n      tag_72\n      jump\t// in\n    tag_170:\n        /* \"#utility.yul\":3190:3309   */\n    tag_169:\n        /* \"#utility.yul\":3376:3377   */\n      0x00\n        /* \"#utility.yul\":3365:3374   */\n      dup5\n        /* \"#utility.yul\":3361:3378   */\n      add\n        /* \"#utility.yul\":3348:3379   */\n      calldataload\n        /* \"#utility.yul\":3406:3424   */\n      0xffffffffffffffff\n        /* \"#utility.yul\":3398:3404   */\n      dup2\n        /* \"#utility.yul\":3395:3425   */\n      gt\n        /* \"#utility.yul\":3392:3509   */\n      iszero\n      tag_171\n      jumpi\n        /* \"#utility.yul\":3428:3507   */\n      tag_172\n      tag_73\n      jump\t// in\n    tag_172:\n        /* \"#utility.yul\":3392:3509   */\n    tag_171:\n        /* \"#utility.yul\":3533:3596   */\n      tag_173\n        /* \"#utility.yul\":3588:3595   */\n      dup7\n        /* \"#utility.yul\":3579:3585   */\n      dup3\n        /* \"#utility.yul\":3568:3577   */\n      dup8\n        /* \"#utility.yul\":3564:3586   */\n      add\n        /* \"#utility.yul\":3533:3596   */\n      tag_83\n      jump\t// in\n    tag_173:\n        /* \"#utility.yul\":3523:3596   */\n      swap4\n      pop\n        /* \"#utility.yul\":3319:3606   */\n      pop\n        /* \"#utility.yul\":3673:3675   */\n      0x20\n        /* \"#utility.yul\":3662:3671   */\n      dup5\n        /* \"#utility.yul\":3658:3676   */\n      add\n        /* \"#utility.yul\":3645:3677   */\n      calldataload\n        /* \"#utility.yul\":3704:3722   */\n      0xffffffffffffffff\n        /* \"#utility.yul\":3696:3702   */\n      dup2\n        /* \"#utility.yul\":3693:3723   */\n      gt\n        /* \"#utility.yul\":3690:3807   */\n      iszero\n      tag_174\n      jumpi\n        /* \"#utility.yul\":3726:3805   */\n      tag_175\n      tag_73\n      jump\t// in\n    tag_175:\n        /* \"#utility.yul\":3690:3807   */\n    tag_174:\n        /* \"#utility.yul\":3831:3894   */\n      tag_176\n        /* \"#utility.yul\":3886:3893   */\n      dup7\n        /* \"#utility.yul\":3877:3883   */\n      dup3\n        /* \"#utility.yul\":3866:3875   */\n      dup8\n        /* \"#utility.yul\":3862:3884   */\n      add\n        /* \"#utility.yul\":3831:3894   */\n      tag_83\n      jump\t// in\n    tag_176:\n        /* \"#utility.yul\":3821:3894   */\n      swap3\n      pop\n        /* \"#utility.yul\":3616:3904   */\n      pop\n        /* \"#utility.yul\":3943:3945   */\n      0x40\n        /* \"#utility.yul\":3969:4022   */\n      tag_177\n        /* \"#utility.yul\":4014:4021   */\n      dup7\n        /* \"#utility.yul\":4005:4011   */\n      dup3\n        /* \"#utility.yul\":3994:4003   */\n      dup8\n        /* \"#utility.yul\":3990:4012   */\n      add\n        /* \"#utility.yul\":3969:4022   */\n      tag_87\n      jump\t// in\n    tag_177:\n        /* \"#utility.yul\":3959:4022   */\n      swap2\n      pop\n        /* \"#utility.yul\":3914:4032   */\n      pop\n        /* \"#utility.yul\":3060:4039   */\n      swap3\n      pop\n      swap3\n      pop\n      swap3\n      jump\t// out\n        /* \"#utility.yul\":4045:4163   */\n    tag_88:\n        /* \"#utility.yul\":4132:4156   */\n      tag_179\n        /* \"#utility.yul\":4150:4155   */\n      dup2\n        /* \"#utility.yul\":4132:4156   */\n      tag_85\n      jump\t// in\n    tag_179:\n        /* \"#utility.yul\":4127:4130   */\n      dup3\n        /* \"#utility.yul\":4120:4157   */\n      mstore\n        /* \"#utility.yul\":4045:4163   */\n      pop\n      pop\n      jump\t// out\n        /* \"#utility.yul\":4169:4391   */\n    tag_17:\n        /* \"#utility.yul\":4262:4266   */\n      0x00\n        /* \"#utility.yul\":4300:4302   */\n      0x20\n        /* \"#utility.yul\":4289:4298   */\n      dup3\n        /* \"#utility.yul\":4285:4303   */\n      add\n        /* \"#utility.yul\":4277:4303   */\n      swap1\n      pop\n        /* \"#utility.yul\":4313:4384   */\n      tag_181\n        /* \"#utility.yul\":4381:4382   */\n      0x00\n        /* \"#utility.yul\":4370:4379   */\n      dup4\n        /* \"#utility.yul\":4366:4383   */\n      add\n        /* \"#utility.yul\":4357:4363   */\n      dup5\n        /* \"#utility.yul\":4313:4384   */\n      tag_88\n      jump\t// in\n    tag_181:\n        /* \"#utility.yul\":4169:4391   */\n      swap3\n      swap2\n      pop\n      pop\n      jump\t// out\n        /* \"#utility.yul\":4397:4473   */\n    tag_89:\n        /* \"#utility.yul\":4433:4440   */\n      0x00\n        /* \"#utility.yul\":4462:4467   */\n      dup2\n        /* \"#utility.yul\":4451:4467   */\n      swap1\n      pop\n        /* \"#utility.yul\":4397:4473   */\n      swap2\n      swap1\n      pop\n      jump\t// out\n        /* \"#utility.yul\":4479:4594   */\n    tag_90:\n        /* \"#utility.yul\":4564:4587   */\n      tag_184\n        /* \"#utility.yul\":4581:4586   */\n      dup2\n        /* \"#utility.yul\":4564:4587   */\n      tag_89\n      jump\t// in\n    tag_184:\n        /* \"#utility.yul\":4559:4562   */\n      dup3\n        /* \"#utility.yul\":4552:4588   */\n      mstore\n        /* \"#utility.yul\":4479:4594   */\n      pop\n      pop\n      jump\t// out\n        /* \"#utility.yul\":4600:4677   */\n    tag_91:\n        /* \"#utility.yul\":4637:4644   */\n      0x00\n        /* \"#utility.yul\":4666:4671   */\n      dup2\n        /* \"#utility.yul\":4655:4671   */\n      swap1\n      pop\n        /* \"#utility.yul\":4600:4677   */\n      swap2\n      swap1\n      pop\n      jump\t// out\n        /* \"#utility.yul\":4683:4801   */\n    tag_92:\n        /* \"#utility.yul\":4770:4794   */\n      tag_187\n        /* \"#utility.yul\":4788:4793   */\n      dup2\n        /* \"#utility.yul\":4770:4794   */\n      tag_91\n      jump\t// in\n    tag_187:\n        /* \"#utility.yul\":4765:4768   */\n      dup3\n        /* \"#utility.yul\":4758:4795   */\n      mstore\n        /* \"#utility.yul\":4683:4801   */\n      pop\n      pop\n      jump\t// out\n        /* \"#utility.yul\":4807:4906   */\n    tag_93:\n        /* \"#utility.yul\":4859:4865   */\n      0x00\n        /* \"#utility.yul\":4893:4898   */\n      dup2\n        /* \"#utility.yul\":4887:4899   */\n      mload\n        /* \"#utility.yul\":4877:4899   */\n      swap1\n      pop\n        /* \"#utility.yul\":4807:4906   */\n      swap2\n      swap1\n      pop\n      jump\t// out\n        /* \"#utility.yul\":4912:5081   */\n    tag_94:\n        /* \"#utility.yul\":4996:5007   */\n      0x00\n        /* \"#utility.yul\":5030:5036   */\n      dup3\n        /* \"#utility.yul\":5025:5028   */\n      dup3\n        /* \"#utility.yul\":5018:5037   */\n      mstore\n        /* \"#utility.yul\":5070:5074   */\n      0x20\n        /* \"#utility.yul\":5065:5068   */\n      dup3\n        /* \"#utility.yul\":5061:5075   */\n      add\n        /* \"#utility.yul\":5046:5075   */\n      swap1\n      pop\n        /* \"#utility.yul\":4912:5081   */\n      swap3\n      swap2\n      pop\n      pop\n      jump\t// out\n        /* \"#utility.yul\":5087:5333   */\n    tag_95:\n        /* \"#utility.yul\":5168:5169   */\n      0x00\n        /* \"#utility.yul\":5178:5291   */\n    tag_191:\n        /* \"#utility.yul\":5192:5198   */\n      dup4\n        /* \"#utility.yul\":5189:5190   */\n      dup2\n        /* \"#utility.yul\":5186:5199   */\n      lt\n        /* \"#utility.yul\":5178:5291   */\n      iszero\n      tag_193\n      jumpi\n        /* \"#utility.yul\":5277:5278   */\n      dup1\n        /* \"#utility.yul\":5272:5275   */\n      dup3\n        /* \"#utility.yul\":5268:5279   */\n      add\n        /* \"#utility.yul\":5262:5280   */\n      mload\n        /* \"#utility.yul\":5258:5259   */\n      dup2\n        /* \"#utility.yul\":5253:5256   */\n      dup5\n        /* \"#utility.yul\":5249:5260   */\n      add\n        /* \"#utility.yul\":5242:5281   */\n      mstore\n        /* \"#utility.yul\":5214:5216   */\n      0x20\n        /* \"#utility.yul\":5211:5212   */\n      dup2\n        /* \"#utility.yul\":5207:5217   */\n      add\n        /* \"#utility.yul\":5202:5217   */\n      swap1\n      pop\n        /* \"#utility.yul\":5178:5291   */\n      jump(tag_191)\n    tag_193:\n        /* \"#utility.yul\":5325:5326   */\n      0x00\n        /* \"#utility.yul\":5316:5322   */\n      dup5\n        /* \"#utility.yul\":5311:5314   */\n      dup5\n        /* \"#utility.yul\":5307:5323   */\n      add\n        /* \"#utility.yul\":5300:5327   */\n      mstore\n        /* \"#utility.yul\":5149:5333   */\n      pop\n        /* \"#utility.yul\":5087:5333   */\n      pop\n      pop\n      pop\n      jump\t// out\n        /* \"#utility.yul\":5339:5716   */\n    tag_96:\n        /* \"#utility.yul\":5427:5430   */\n      0x00\n        /* \"#utility.yul\":5455:5494   */\n      tag_195\n        /* \"#utility.yul\":5488:5493   */\n      dup3\n        /* \"#utility.yul\":5455:5494   */\n      tag_93\n      jump\t// in\n    tag_195:\n        /* \"#utility.yul\":5510:5581   */\n      tag_196\n        /* \"#utility.yul\":5574:5580   */\n      dup2\n        /* \"#utility.yul\":5569:5572   */\n      dup6\n        /* \"#utility.yul\":5510:5581   */\n      tag_94\n      jump\t// in\n    tag_196:\n        /* \"#utility.yul\":5503:5581   */\n      swap4\n      pop\n        /* \"#utility.yul\":5590:5655   */\n      tag_197\n        /* \"#utility.yul\":5648:5654   */\n      dup2\n        /* \"#utility.yul\":5643:5646   */\n      dup6\n        /* \"#utility.yul\":5636:5640   */\n      0x20\n        /* \"#utility.yul\":5629:5634   */\n      dup7\n        /* \"#utility.yul\":5625:5641   */\n      add\n        /* \"#utility.yul\":5590:5655   */\n      tag_95\n      jump\t// in\n    tag_197:\n        /* \"#utility.yul\":5680:5709   */\n      tag_198\n        /* \"#utility.yul\":5702:5708   */\n      dup2\n        /* \"#utility.yul\":5680:5709   */\n      tag_76\n      jump\t// in\n    tag_198:\n        /* \"#utility.yul\":5675:5678   */\n      dup5\n        /* \"#utility.yul\":5671:5710   */\n      add\n        /* \"#utility.yul\":5664:5710   */\n      swap2\n      pop\n        /* \"#utility.yul\":5431:5716   */\n      pop\n        /* \"#utility.yul\":5339:5716   */\n      swap3\n      swap2\n      pop\n      pop\n      jump\t// out\n        /* \"#utility.yul\":5722:6251   */\n    tag_21:\n        /* \"#utility.yul\":5889:5893   */\n      0x00\n        /* \"#utility.yul\":5927:5929   */\n      0x60\n        /* \"#utility.yul\":5916:5925   */\n      dup3\n        /* \"#utility.yul\":5912:5930   */\n      add\n        /* \"#utility.yul\":5904:5930   */\n      swap1\n      pop\n        /* \"#utility.yul\":5940:6009   */\n      tag_200\n        /* \"#utility.yul\":6006:6007   */\n      0x00\n        /* \"#utility.yul\":5995:6004   */\n      dup4\n        /* \"#utility.yul\":5991:6008   */\n      add\n        /* \"#utility.yul\":5982:5988   */\n      dup7\n        /* \"#utility.yul\":5940:6009   */\n      tag_90\n      jump\t// in\n    tag_200:\n        /* \"#utility.yul\":6019:6091   */\n      tag_201\n        /* \"#utility.yul\":6087:6089   */\n      0x20\n        /* \"#utility.yul\":6076:6085   */\n      dup4\n        /* \"#utility.yul\":6072:6090   */\n      add\n        /* \"#utility.yul\":6063:6069   */\n      dup6\n        /* \"#utility.yul\":6019:6091   */\n      tag_92\n      jump\t// in\n    tag_201:\n        /* \"#utility.yul\":6138:6147   */\n      dup2\n        /* \"#utility.yul\":6132:6136   */\n      dup2\n        /* \"#utility.yul\":6128:6148   */\n      sub\n        /* \"#utility.yul\":6123:6125   */\n      0x40\n        /* \"#utility.yul\":6112:6121   */\n      dup4\n        /* \"#utility.yul\":6108:6126   */\n      add\n        /* \"#utility.yul\":6101:6149   */\n      mstore\n        /* \"#utility.yul\":6166:6244   */\n      tag_202\n        /* \"#utility.yul\":6239:6243   */\n      dup2\n        /* \"#utility.yul\":6230:6236   */\n      dup5\n        /* \"#utility.yul\":6166:6244   */\n      tag_96\n      jump\t// in\n    tag_202:\n        /* \"#utility.yul\":6158:6244   */\n      swap1\n      pop\n        /* \"#utility.yul\":5722:6251   */\n      swap5\n      swap4\n      pop\n      pop\n      pop\n      pop\n      jump\t// out\n        /* \"#utility.yul\":6257:6586   */\n    tag_24:\n        /* \"#utility.yul\":6316:6322   */\n      0x00\n        /* \"#utility.yul\":6365:6367   */\n      0x20\n        /* \"#utility.yul\":6353:6362   */\n      dup3\n        /* \"#utility.yul\":6344:6351   */\n      dup5\n        /* \"#utility.yul\":6340:6363   */\n      sub\n        /* \"#utility.yul\":6336:6368   */\n      slt\n        /* \"#utility.yul\":6333:6452   */\n      iszero\n      tag_204\n      jumpi\n        /* \"#utility.yul\":6371:6450   */\n      tag_205\n      tag_72\n      jump\t// in\n    tag_205:\n        /* \"#utility.yul\":6333:6452   */\n    tag_204:\n        /* \"#utility.yul\":6491:6492   */\n      0x00\n        /* \"#utility.yul\":6516:6569   */\n      tag_206\n        /* \"#utility.yul\":6561:6568   */\n      dup5\n        /* \"#utility.yul\":6552:6558   */\n      dup3\n        /* \"#utility.yul\":6541:6550   */\n      dup6\n        /* \"#utility.yul\":6537:6559   */\n      add\n        /* \"#utility.yul\":6516:6569   */\n      tag_87\n      jump\t// in\n    tag_206:\n        /* \"#utility.yul\":6506:6569   */\n      swap2\n      pop\n        /* \"#utility.yul\":6462:6579   */\n      pop\n        /* \"#utility.yul\":6257:6586   */\n      swap3\n      swap2\n      pop\n      pop\n      jump\t// out\n        /* \"#utility.yul\":6592:6740   */\n    tag_97:\n        /* \"#utility.yul\":6694:6705   */\n      0x00\n        /* \"#utility.yul\":6731:6734   */\n      dup2\n        /* \"#utility.yul\":6716:6734   */\n      swap1\n      pop\n        /* \"#utility.yul\":6592:6740   */\n      swap3\n      swap2\n      pop\n      pop\n      jump\t// out\n        /* \"#utility.yul\":6746:7136   */\n    tag_98:\n        /* \"#utility.yul\":6852:6855   */\n      0x00\n        /* \"#utility.yul\":6880:6919   */\n      tag_209\n        /* \"#utility.yul\":6913:6918   */\n      dup3\n        /* \"#utility.yul\":6880:6919   */\n      tag_93\n      jump\t// in\n    tag_209:\n        /* \"#utility.yul\":6935:7024   */\n      tag_210\n        /* \"#utility.yul\":7017:7023   */\n      dup2\n        /* \"#utility.yul\":7012:7015   */\n      dup6\n        /* \"#utility.yul\":6935:7024   */\n      tag_97\n      jump\t// in\n    tag_210:\n        /* \"#utility.yul\":6928:7024   */\n      swap4\n      pop\n        /* \"#utility.yul\":7033:7098   */\n      tag_211\n        /* \"#utility.yul\":7091:7097   */\n      dup2\n        /* \"#utility.yul\":7086:7089   */\n      dup6\n        /* \"#utility.yul\":7079:7083   */\n      0x20\n        /* \"#utility.yul\":7072:7077   */\n      dup7\n        /* \"#utility.yul\":7068:7084   */\n      add\n        /* \"#utility.yul\":7033:7098   */\n      tag_95\n      jump\t// in\n    tag_211:\n        /* \"#utility.yul\":7123:7129   */\n      dup1\n        /* \"#utility.yul\":7118:7121   */\n      dup5\n        /* \"#utility.yul\":7114:7130   */\n      add\n        /* \"#utility.yul\":7107:7130   */\n      swap2\n      pop\n        /* \"#utility.yul\":6856:7136   */\n      pop\n        /* \"#utility.yul\":6746:7136   */\n      swap3\n      swap2\n      pop\n      pop\n      jump\t// out\n        /* \"#utility.yul\":7142:7320   */\n    tag_99:\n        /* \"#utility.yul\":7310:7313   */\n      0x2f00000000000000000000000000000000000000000000000000000000000000\n        /* \"#utility.yul\":7305:7308   */\n      dup2\n        /* \"#utility.yul\":7298:7314   */\n      mstore\n        /* \"#utility.yul\":7142:7320   */\n      pop\n      jump\t// out\n        /* \"#utility.yul\":7326:8025   */\n    tag_31:\n        /* \"#utility.yul\":7596:7599   */\n      0x00\n        /* \"#utility.yul\":7618:7713   */\n      tag_214\n        /* \"#utility.yul\":7709:7712   */\n      dup3\n        /* \"#utility.yul\":7700:7706   */\n      dup6\n        /* \"#utility.yul\":7618:7713   */\n      tag_98\n      jump\t// in\n    tag_214:\n        /* \"#utility.yul\":7611:7713   */\n      swap2\n      pop\n        /* \"#utility.yul\":7723:7860   */\n      tag_215\n        /* \"#utility.yul\":7856:7859   */\n      dup3\n        /* \"#utility.yul\":7723:7860   */\n      tag_99\n      jump\t// in\n    tag_215:\n        /* \"#utility.yul\":7885:7886   */\n      0x01\n        /* \"#utility.yul\":7880:7883   */\n      dup3\n        /* \"#utility.yul\":7876:7887   */\n      add\n        /* \"#utility.yul\":7869:7887   */\n      swap2\n      pop\n        /* \"#utility.yul\":7904:7999   */\n      tag_216\n        /* \"#utility.yul\":7995:7998   */\n      dup3\n        /* \"#utility.yul\":7986:7992   */\n      dup5\n        /* \"#utility.yul\":7904:7999   */\n      tag_98\n      jump\t// in\n    tag_216:\n        /* \"#utility.yul\":7897:7999   */\n      swap2\n      pop\n        /* \"#utility.yul\":8016:8019   */\n      dup2\n        /* \"#utility.yul\":8009:8019   */\n      swap1\n      pop\n        /* \"#utility.yul\":7326:8025   */\n      swap4\n      swap3\n      pop\n      pop\n      pop\n      jump\t// out\n        /* \"#utility.yul\":8031:8211   */\n    tag_100:\n        /* \"#utility.yul\":8079:8156   */\n      0x4e487b7100000000000000000000000000000000000000000000000000000000\n        /* \"#utility.yul\":8076:8077   */\n      0x00\n        /* \"#utility.yul\":8069:8157   */\n      mstore\n        /* \"#utility.yul\":8176:8180   */\n      0x22\n        /* \"#utility.yul\":8173:8174   */\n      0x04\n        /* \"#utility.yul\":8166:8181   */\n      mstore\n        /* \"#utility.yul\":8200:8204   */\n      0x24\n        /* \"#utility.yul\":8197:8198   */\n      0x00\n        /* \"#utility.yul\":8190:8205   */\n      revert\n        /* \"#utility.yul\":8217:8537   */\n    tag_50:\n        /* \"#utility.yul\":8261:8267   */\n      0x00\n        /* \"#utility.yul\":8298:8299   */\n      0x02\n        /* \"#utility.yul\":8292:8296   */\n      dup3\n        /* \"#utility.yul\":8288:8300   */\n      div\n        /* \"#utility.yul\":8278:8300   */\n      swap1\n      pop\n        /* \"#utility.yul\":8345:8346   */\n      0x01\n        /* \"#utility.yul\":8339:8343   */\n      dup3\n        /* \"#utility.yul\":8335:8347   */\n      and\n        /* \"#utility.yul\":8366:8384   */\n      dup1\n        /* \"#utility.yul\":8356:8437   */\n      tag_219\n      jumpi\n        /* \"#utility.yul\":8422:8426   */\n      0x7f\n        /* \"#utility.yul\":8414:8420   */\n      dup3\n        /* \"#utility.yul\":8410:8427   */\n      and\n        /* \"#utility.yul\":8400:8427   */\n      swap2\n      pop\n        /* \"#utility.yul\":8356:8437   */\n    tag_219:\n        /* \"#utility.yul\":8484:8486   */\n      0x20\n        /* \"#utility.yul\":8476:8482   */\n      dup3\n        /* \"#utility.yul\":8473:8487   */\n      lt\n        /* \"#utility.yul\":8453:8471   */\n      dup2\n        /* \"#utility.yul\":8450:8488   */\n      sub\n        /* \"#utility.yul\":8447:8531   */\n      tag_220\n      jumpi\n        /* \"#utility.yul\":8503:8521   */\n      tag_221\n      tag_100\n      jump\t// in\n    tag_221:\n        /* \"#utility.yul\":8447:8531   */\n    tag_220:\n        /* \"#utility.yul\":8268:8537   */\n      pop\n        /* \"#utility.yul\":8217:8537   */\n      swap2\n      swap1\n      pop\n      jump\t// out\n        /* \"#utility.yul\":8543:8684   */\n    tag_101:\n        /* \"#utility.yul\":8592:8596   */\n      0x00\n        /* \"#utility.yul\":8615:8618   */\n      dup2\n        /* \"#utility.yul\":8607:8618   */\n      swap1\n      pop\n        /* \"#utility.yul\":8638:8641   */\n      dup2\n        /* \"#utility.yul\":8635:8636   */\n      0x00\n        /* \"#utility.yul\":8628:8642   */\n      mstore\n        /* \"#utility.yul\":8672:8676   */\n      0x20\n        /* \"#utility.yul\":8669:8670   */\n      0x00\n        /* \"#utility.yul\":8659:8677   */\n      keccak256\n        /* \"#utility.yul\":8651:8677   */\n      swap1\n      pop\n        /* \"#utility.yul\":8543:8684   */\n      swap2\n      swap1\n      pop\n      jump\t// out\n        /* \"#utility.yul\":8690:8783   */\n    tag_102:\n        /* \"#utility.yul\":8727:8733   */\n      0x00\n        /* \"#utility.yul\":8774:8776   */\n      0x20\n        /* \"#utility.yul\":8769:8771   */\n      0x1f\n        /* \"#utility.yul\":8762:8767   */\n      dup4\n        /* \"#utility.yul\":8758:8772   */\n      add\n        /* \"#utility.yul\":8754:8777   */\n      div\n        /* \"#utility.yul\":8744:8777   */\n      swap1\n      pop\n        /* \"#utility.yul\":8690:8783   */\n      swap2\n      swap1\n      pop\n      jump\t// out\n        /* \"#utility.yul\":8789:8896   */\n    tag_103:\n        /* \"#utility.yul\":8833:8841   */\n      0x00\n        /* \"#utility.yul\":8883:8888   */\n      dup3\n        /* \"#utility.yul\":8877:8881   */\n      dup3\n        /* \"#utility.yul\":8873:8889   */\n      shl\n        /* \"#utility.yul\":8852:8889   */\n      swap1\n      pop\n        /* \"#utility.yul\":8789:8896   */\n      swap3\n      swap2\n      pop\n      pop\n      jump\t// out\n        /* \"#utility.yul\":8902:9295   */\n    tag_104:\n        /* \"#utility.yul\":8971:8977   */\n      0x00\n        /* \"#utility.yul\":9021:9022   */\n      0x08\n        /* \"#utility.yul\":9009:9019   */\n      dup4\n        /* \"#utility.yul\":9005:9023   */\n      mul\n        /* \"#utility.yul\":9044:9141   */\n      tag_226\n        /* \"#utility.yul\":9074:9140   */\n      0xffffffffffffffffffffffffffffffffffffffffffffffffffffffffffffffff\n        /* \"#utility.yul\":9063:9072   */\n      dup3\n        /* \"#utility.yul\":9044:9141   */\n      tag_103\n      jump\t// in\n    tag_226:\n        /* \"#utility.yul\":9162:9201   */\n      tag_227\n        /* \"#utility.yul\":9192:9200   */\n      dup7\n        /* \"#utility.yul\":9181:9190   */\n      dup4\n        /* \"#utility.yul\":9162:9201   */\n      tag_103\n      jump\t// in\n    tag_227:\n        /* \"#utility.yul\":9150:9201   */\n      swap6\n      pop\n        /* \"#utility.yul\":9234:9238   */\n      dup1\n        /* \"#utility.yul\":9230:9239   */\n      not\n        /* \"#utility.yul\":9223:9228   */\n      dup5\n        /* \"#utility.yul\":9219:9240   */\n      and\n        /* \"#utility.yul\":9210:9240   */\n      swap4\n      pop\n        /* \"#utility.yul\":9283:9287   */\n      dup1\n        /* \"#utility.yul\":9273:9281   */\n      dup7\n        /* \"#utility.yul\":9269:9288   */\n      and\n        /* \"#utility.yul\":9262:9267   */\n      dup5\n        /* \"#utility.yul\":9259:9289   */\n      or\n        /* \"#utility.yul\":9249:9289   */\n      swap3\n      pop\n        /* \"#utility.yul\":8978:9295   */\n      pop\n      pop\n        /* \"#utility.yul\":8902:9295   */\n      swap4\n      swap3\n      pop\n      pop\n      pop\n      jump\t// out\n        /* \"#utility.yul\":9301:9361   */\n    tag_105:\n        /* \"#utility.yul\":9329:9332   */\n      0x00\n        /* \"#utility.yul\":9350:9355   */\n      dup2\n        /* \"#utility.yul\":9343:9355   */\n      swap1\n      pop\n        /* \"#utility.yul\":9301:9361   */\n      swap2\n      swap1\n      pop\n      jump\t// out\n        /* \"#utility.yul\":9367:9509   */\n    tag_106:\n        /* \"#utility.yul\":9417:9426   */\n      0x00\n        /* \"#utility.yul\":9450:9503   */\n      tag_230\n        /* \"#utility.yul\":9468:9502   */\n      tag_231\n        /* \"#utility.yul\":9477:9501   */\n      tag_232\n        /* \"#utility.yul\":9495:9500   */\n      dup5\n        /* \"#utility.yul\":9477:9501   */\n      tag_91\n      jump\t// in\n    tag_232:\n        /* \"#utility.yul\":9468:9502   */\n      tag_105\n      jump\t// in\n    tag_231:\n        /* \"#utility.yul\":9450:9503   */\n      tag_91\n      jump\t// in\n    tag_230:\n        /* \"#utility.yul\":9437:9503   */\n      swap1\n      pop\n        /* \"#utility.yul\":9367:9509   */\n      swap2\n      swap1\n      pop\n      jump\t// out\n        /* \"#utility.yul\":9515:9590   */\n    tag_107:\n        /* \"#utility.yul\":9558:9561   */\n      0x00\n        /* \"#utility.yul\":9579:9584   */\n      dup2\n        /* \"#utility.yul\":9572:9584   */\n      swap1\n      pop\n        /* \"#utility.yul\":9515:9590   */\n      swap2\n      swap1\n      pop\n      jump\t// out\n        /* \"#utility.yul\":9596:9865   */\n    tag_108:\n        /* \"#utility.yul\":9706:9745   */\n      tag_235\n        /* \"#utility.yul\":9737:9744   */\n      dup4\n        /* \"#utility.yul\":9706:9745   */\n      tag_106\n      jump\t// in\n    tag_235:\n        /* \"#utility.yul\":9767:9858   */\n      tag_236\n        /* \"#utility.yul\":9816:9857   */\n      tag_237\n        /* \"#utility.yul\":9840:9856   */\n      dup3\n        /* \"#utility.yul\":9816:9857   */\n      tag_107\n      jump\t// in\n    tag_237:\n        /* \"#utility.yul\":9808:9814   */\n      dup5\n        /* \"#utility.yul\":9801:9805   */\n      dup5\n        /* \"#utility.yul\":9795:9806   */\n      sload\n        /* \"#utility.yul\":9767:9858   */\n      tag_104\n      jump\t// in\n    tag_236:\n        /* \"#utility.yul\":9761:9765   */\n      dup3\n        /* \"#utility.yul\":9754:9859   */\n      sstore\n        /* \"#utility.yul\":9672:9865   */\n      pop\n        /* \"#utility.yul\":9596:9865   */\n      pop\n      pop\n      pop\n      jump\t// out\n        /* \"#utility.yul\":9871:9944   */\n    tag_109:\n        /* \"#utility.yul\":9916:9919   */\n      0x00\n        /* \"#utility.yul\":9871:9944   */\n      swap1\n      jump\t// out\n        /* \"#utility.yul\":9950:10139   */\n    tag_110:\n        /* \"#utility.yul\":10027:10059   */\n      tag_240\n      tag_109\n      jump\t// in\n    tag_240:\n        /* \"#utility.yul\":10068:10133   */\n      tag_241\n        /* \"#utility.yul\":10126:10132   */\n      dup2\n        /* \"#utility.yul\":10118:10124   */\n      dup5\n        /* \"#utility.yul\":10112:10116   */\n      dup5\n        /* \"#utility.yul\":10068:10133   */\n      tag_108\n      jump\t// in\n    tag_241:\n        /* \"#utility.yul\":10003:10139   */\n      pop\n        /* \"#utility.yul\":9950:10139   */\n      pop\n      pop\n      jump\t// out\n        /* \"#utility.yul\":10145:10331   */\n    tag_111:\n        /* \"#utility.yul\":10205:10325   */\n    tag_243:\n        /* \"#utility.yul\":10222:10225   */\n      dup2\n        /* \"#utility.yul\":10215:10220   */\n      dup2\n        /* \"#utility.yul\":10212:10226   */\n      lt\n        /* \"#utility.yul\":10205:10325   */\n      iszero\n      tag_245\n      jumpi\n        /* \"#utility.yul\":10276:10315   */\n      tag_246\n        /* \"#utility.yul\":10313:10314   */\n      0x00\n        /* \"#utility.yul\":10306:10311   */\n      dup3\n        /* \"#utility.yul\":10276:10315   */\n      tag_110\n      jump\t// in\n    tag_246:\n        /* \"#utility.yul\":10249:10250   */\n      0x01\n        /* \"#utility.yul\":10242:10247   */\n      dup2\n        /* \"#utility.yul\":10238:10251   */\n      add\n        /* \"#utility.yul\":10229:10251   */\n      swap1\n      pop\n        /* \"#utility.yul\":10205:10325   */\n      jump(tag_243)\n    tag_245:\n        /* \"#utility.yul\":10145:10331   */\n      pop\n      pop\n      jump\t// out\n        /* \"#utility.yul\":10337:10880   */\n    tag_112:\n        /* \"#utility.yul\":10438:10440   */\n      0x1f\n        /* \"#utility.yul\":10433:10436   */\n      dup3\n        /* \"#utility.yul\":10430:10441   */\n      gt\n        /* \"#utility.yul\":10427:10873   */\n      iszero\n      tag_248\n      jumpi\n        /* \"#utility.yul\":10472:10510   */\n      tag_249\n        /* \"#utility.yul\":10504:10509   */\n      dup2\n        /* \"#utility.yul\":10472:10510   */\n      tag_101\n      jump\t// in\n    tag_249:\n        /* \"#utility.yul\":10556:10585   */\n      tag_250\n        /* \"#utility.yul\":10574:10584   */\n      dup5\n        /* \"#utility.yul\":10556:10585   */\n      tag_102\n      jump\t// in\n    tag_250:\n        /* \"#utility.yul\":10546:10554   */\n      dup2\n        /* \"#utility.yul\":10542:10586   */\n      add\n        /* \"#utility.yul\":10739:10741   */\n      0x20\n        /* \"#utility.yul\":10727:10737   */\n      dup6\n        /* \"#utility.yul\":10724:10742   */\n      lt\n        /* \"#utility.yul\":10721:10770   */\n      iszero\n      tag_251\n      jumpi\n        /* \"#utility.yul\":10760:10768   */\n      dup2\n        /* \"#utility.yul\":10745:10768   */\n      swap1\n      pop\n        /* \"#utility.yul\":10721:10770   */\n    tag_251:\n        /* \"#utility.yul\":10783:10863   */\n      tag_252\n        /* \"#utility.yul\":10839:10861   */\n      tag_253\n        /* \"#utility.yul\":10857:10860   */\n      dup6\n        /* \"#utility.yul\":10839:10861   */\n      tag_102\n      jump\t// in\n    tag_253:\n        /* \"#utility.yul\":10829:10837   */\n      dup4\n        /* \"#utility.yul\":10825:10862   */\n      add\n        /* \"#utility.yul\":10812:10823   */\n      dup3\n        /* \"#utility.yul\":10783:10863   */\n      tag_111\n      jump\t// in\n    tag_252:\n        /* \"#utility.yul\":10442:10873   */\n      pop\n      pop\n        /* \"#utility.yul\":10427:10873   */\n    tag_248:\n        /* \"#utility.yul\":10337:10880   */\n      pop\n      pop\n      pop\n      jump\t// out\n        /* \"#utility.yul\":10886:11003   */\n    tag_113:\n        /* \"#utility.yul\":10940:10948   */\n      0x00\n        /* \"#utility.yul\":10990:10995   */\n      dup3\n        /* \"#utility.yul\":10984:10988   */\n      dup3\n        /* \"#utility.yul\":10980:10996   */\n      shr\n        /* \"#utility.yul\":10959:10996   */\n      swap1\n      pop\n        /* \"#utility.yul\":10886:11003   */\n      swap3\n      swap2\n      pop\n      pop\n      jump\t// out\n        /* \"#utility.yul\":11009:11178   */\n    tag_114:\n        /* \"#utility.yul\":11053:11059   */\n      0x00\n        /* \"#utility.yul\":11086:11137   */\n      tag_256\n        /* \"#utility.yul\":11134:11135   */\n      0x00\n        /* \"#utility.yul\":11130:11136   */\n      not\n        /* \"#utility.yul\":11122:11127   */\n      dup5\n        /* \"#utility.yul\":11119:11120   */\n      0x08\n        /* \"#utility.yul\":11115:11128   */\n      mul\n        /* \"#utility.yul\":11086:11137   */\n      tag_113\n      jump\t// in\n    tag_256:\n        /* \"#utility.yul\":11082:11138   */\n      not\n        /* \"#utility.yul\":11167:11171   */\n      dup1\n        /* \"#utility.yul\":11161:11165   */\n      dup4\n        /* \"#utility.yul\":11157:11172   */\n      and\n        /* \"#utility.yul\":11147:11172   */\n      swap2\n      pop\n        /* \"#utility.yul\":11060:11178   */\n      pop\n        /* \"#utility.yul\":11009:11178   */\n      swap3\n      swap2\n      pop\n      pop\n      jump\t// out\n        /* \"#utility.yul\":11183:11478   */\n    tag_115:\n        /* \"#utility.yul\":11259:11263   */\n      0x00\n        /* \"#utility.yul\":11405:11434   */\n      tag_258\n        /* \"#utility.yul\":11430:11433   */\n      dup4\n        /* \"#utility.yul\":11424:11428   */\n      dup4\n        /* \"#utility.yul\":11405:11434   */\n      tag_114\n      jump\t// in\n    tag_258:\n        /* \"#utility.yul\":11397:11434   */\n      swap2\n      pop\n        /* \"#utility.yul\":11467:11470   */\n      dup3\n        /* \"#utility.yul\":11464:11465   */\n      0x02\n        /* \"#utility.yul\":11460:11471   */\n      mul\n        /* \"#utility.yul\":11454:11458   */\n      dup3\n        /* \"#utility.yul\":11451:11472   */\n      or\n        /* \"#utility.yul\":11443:11472   */\n      swap1\n      pop\n        /* \"#utility.yul\":11183:11478   */\n      swap3\n      swap2\n      pop\n      pop\n      jump\t// out\n        /* \"#utility.yul\":11483:12878   */\n    tag_33:\n        /* \"#utility.yul\":11600:11637   */\n      tag_260\n        /* \"#utility.yul\":11633:11636   */\n      dup3\n        /* \"#utility.yul\":11600:11637   */\n      tag_93\n      jump\t// in\n    tag_260:\n        /* \"#utility.yul\":11702:11720   */\n      0xffffffffffffffff\n        /* \"#utility.yul\":11694:11700   */\n      dup2\n        /* \"#utility.yul\":11691:11721   */\n      gt\n        /* \"#utility.yul\":11688:11744   */\n      iszero\n      tag_261\n      jumpi\n        /* \"#utility.yul\":11724:11742   */\n      tag_262\n      tag_77\n      jump\t// in\n    tag_262:\n        /* \"#utility.yul\":11688:11744   */\n    tag_261:\n        /* \"#utility.yul\":11768:11806   */\n      tag_263\n        /* \"#utility.yul\":11800:11804   */\n      dup3\n        /* \"#utility.yul\":11794:11805   */\n      sload\n        /* \"#utility.yul\":11768:11806   */\n      tag_50\n      jump\t// in\n    tag_263:\n        /* \"#utility.yul\":11853:11920   */\n      tag_264\n        /* \"#utility.yul\":11913:11919   */\n      dup3\n        /* \"#utility.yul\":11905:11911   */\n      dup3\n        /* \"#utility.yul\":11899:11903   */\n      dup6\n        /* \"#utility.yul\":11853:11920   */\n      tag_112\n      jump\t// in\n    tag_264:\n        /* \"#utility.yul\":11947:11948   */\n      0x00\n        /* \"#utility.yul\":11971:11975   */\n      0x20\n        /* \"#utility.yul\":11958:11975   */\n      swap1\n      pop\n        /* \"#utility.yul\":12003:12005   */\n      0x1f\n        /* \"#utility.yul\":11995:12001   */\n      dup4\n        /* \"#utility.yul\":11992:12006   */\n      gt\n        /* \"#utility.yul\":12020:12021   */\n      0x01\n        /* \"#utility.yul\":12015:12633   */\n      dup2\n      eq\n      tag_266\n      jumpi\n        /* \"#utility.yul\":12677:12678   */\n      0x00\n        /* \"#utility.yul\":12694:12700   */\n      dup5\n        /* \"#utility.yul\":12691:12768   */\n      iszero\n      tag_267\n      jumpi\n        /* \"#utility.yul\":12743:12752   */\n      dup3\n        /* \"#utility.yul\":12738:12741   */\n      dup8\n        /* \"#utility.yul\":12734:12753   */\n      add\n        /* \"#utility.yul\":12728:12754   */\n      mload\n        /* \"#utility.yul\":12719:12754   */\n      swap1\n      pop\n        /* \"#utility.yul\":12691:12768   */\n    tag_267:\n        /* \"#utility.yul\":12794:12861   */\n      tag_268\n        /* \"#utility.yul\":12854:12860   */\n      dup6\n        /* \"#utility.yul\":12847:12852   */\n      dup3\n        /* \"#utility.yul\":12794:12861   */\n      tag_115\n      jump\t// in\n    tag_268:\n        /* \"#utility.yul\":12788:12792   */\n      dup7\n        /* \"#utility.yul\":12781:12862   */\n      sstore\n        /* \"#utility.yul\":12650:12872   */\n      pop\n        /* \"#utility.yul\":11985:12872   */\n      jump(tag_265)\n        /* \"#utility.yul\":12015:12633   */\n    tag_266:\n        /* \"#utility.yul\":12067:12071   */\n      0x1f\n        /* \"#utility.yul\":12063:12072   */\n      not\n        /* \"#utility.yul\":12055:12061   */\n      dup5\n        /* \"#utility.yul\":12051:12073   */\n      and\n        /* \"#utility.yul\":12101:12138   */\n      tag_269\n        /* \"#utility.yul\":12133:12137   */\n      dup7\n        /* \"#utility.yul\":12101:12138   */\n      tag_101\n      jump\t// in\n    tag_269:\n        /* \"#utility.yul\":12160:12161   */\n      0x00\n        /* \"#utility.yul\":12174:12382   */\n    tag_270:\n        /* \"#utility.yul\":12188:12195   */\n      dup3\n        /* \"#utility.yul\":12185:12186   */\n      dup2\n        /* \"#utility.yul\":12182:12196   */\n      lt\n        /* \"#utility.yul\":12174:12382   */\n      iszero\n      tag_272\n      jumpi\n        /* \"#utility.yul\":12267:12276   */\n      dup5\n        /* \"#utility.yul\":12262:12265   */\n      dup10\n        /* \"#utility.yul\":12258:12277   */\n      add\n        /* \"#utility.yul\":12252:12278   */\n      mload\n        /* \"#utility.yul\":12244:12250   */\n      dup3\n        /* \"#utility.yul\":12237:12279   */\n      sstore\n        /* \"#utility.yul\":12318:12319   */\n      0x01\n        /* \"#utility.yul\":12310:12316   */\n      dup3\n        /* \"#utility.yul\":12306:12320   */\n      add\n        /* \"#utility.yul\":12296:12320   */\n      swap2\n      pop\n        /* \"#utility.yul\":12365:12367   */\n      0x20\n        /* \"#utility.yul\":12354:12363   */\n      dup6\n        /* \"#utility.yul\":12350:12368   */\n      add\n        /* \"#utility.yul\":12337:12368   */\n      swap5\n      pop\n        /* \"#utility.yul\":12211:12215   */\n      0x20\n        /* \"#utility.yul\":12208:12209   */\n      dup2\n        /* \"#utility.yul\":12204:12216   */\n      add\n        /* \"#utility.yul\":12199:12216   */\n      swap1\n      pop\n        /* \"#utility.yul\":12174:12382   */\n      jump(tag_270)\n    tag_272:\n        /* \"#utility.yul\":12410:12416   */\n      dup7\n        /* \"#utility.yul\":12401:12408   */\n      dup4\n        /* \"#utility.yul\":12398:12417   */\n      lt\n        /* \"#utility.yul\":12395:12574   */\n      iszero\n      tag_273\n      jumpi\n        /* \"#utility.yul\":12468:12477   */\n      dup5\n        /* \"#utility.yul\":12463:12466   */\n      dup10\n        /* \"#utility.yul\":12459:12478   */\n      add\n        /* \"#utility.yul\":12453:12479   */\n      mload\n        /* \"#utility.yul\":12511:12559   */\n      tag_274\n        /* \"#utility.yul\":12553:12557   */\n      0x1f\n        /* \"#utility.yul\":12545:12551   */\n      dup10\n        /* \"#utility.yul\":12541:12558   */\n      and\n        /* \"#utility.yul\":12530:12539   */\n      dup3\n        /* \"#utility.yul\":12511:12559   */\n      tag_114\n      jump\t// in\n    tag_274:\n        /* \"#utility.yul\":12503:12509   */\n      dup4\n        /* \"#utility.yul\":12496:12560   */\n      sstore\n        /* \"#utility.yul\":12418:12574   */\n      pop\n        /* \"#utility.yul\":12395:12574   */\n    tag_273:\n        /* \"#utility.yul\":12620:12621   */\n      0x01\n        /* \"#utility.yul\":12616:12617   */\n      0x02\n        /* \"#utility.yul\":12608:12614   */\n      dup9\n        /* \"#utility.yul\":12604:12618   */\n      mul\n        /* \"#utility.yul\":12600:12622   */\n      add\n        /* \"#utility.yul\":12594:12598   */\n      dup9\n        /* \"#utility.yul\":12587:12623   */\n      sstore\n        /* \"#utility.yul\":12022:12633   */\n      pop\n      pop\n      pop\n        /* \"#utility.yul\":11985:12872   */\n    tag_265:\n      pop\n        /* \"#utility.yul\":11575:12878   */\n      pop\n      pop\n      pop\n        /* \"#utility.yul\":11483:12878   */\n      pop\n      pop\n      jump\t// out\n        /* \"#utility.yul\":12884:12989   */\n    tag_116:\n        /* \"#utility.yul\":12920:12927   */\n      0x00\n        /* \"#utility.yul\":12960:12982   */\n      0xffffffffffffffffffff\n        /* \"#utility.yul\":12953:12958   */\n      dup3\n        /* \"#utility.yul\":12949:12983   */\n      and\n        /* \"#utility.yul\":12938:12983   */\n      swap1\n      pop\n        /* \"#utility.yul\":12884:12989   */\n      swap2\n      swap1\n      pop\n      jump\t// out\n        /* \"#utility.yul\":12995:13115   */\n    tag_117:\n        /* \"#utility.yul\":13067:13090   */\n      tag_277\n        /* \"#utility.yul\":13084:13089   */\n      dup2\n        /* \"#utility.yul\":13067:13090   */\n      tag_116\n      jump\t// in\n    tag_277:\n        /* \"#utility.yul\":13060:13065   */\n      dup2\n        /* \"#utility.yul\":13057:13091   */\n      eq\n        /* \"#utility.yul\":13047:13109   */\n      tag_278\n      jumpi\n        /* \"#utility.yul\":13105:13106   */\n      0x00\n        /* \"#utility.yul\":13102:13103   */\n      dup1\n        /* \"#utility.yul\":13095:13107   */\n      revert\n        /* \"#utility.yul\":13047:13109   */\n    tag_278:\n        /* \"#utility.yul\":12995:13115   */\n      pop\n      jump\t// out\n        /* \"#utility.yul\":13121:13262   */\n    tag_118:\n        /* \"#utility.yul\":13177:13182   */\n      0x00\n        /* \"#utility.yul\":13208:13214   */\n      dup2\n        /* \"#utility.yul\":13202:13215   */\n      mload\n        /* \"#utility.yul\":13193:13215   */\n      swap1\n      pop\n        /* \"#utility.yul\":13224:13256   */\n      tag_280\n        /* \"#utility.yul\":13250:13255   */\n      dup2\n        /* \"#utility.yul\":13224:13256   */\n      tag_117\n      jump\t// in\n    tag_280:\n        /* \"#utility.yul\":13121:13262   */\n      swap3\n      swap2\n      pop\n      pop\n      jump\t// out\n        /* \"#utility.yul\":13268:13388   */\n    tag_119:\n        /* \"#utility.yul\":13340:13363   */\n      tag_282\n        /* \"#utility.yul\":13357:13362   */\n      dup2\n        /* \"#utility.yul\":13340:13363   */\n      tag_89\n      jump\t// in\n    tag_282:\n        /* \"#utility.yul\":13333:13338   */\n      dup2\n        /* \"#utility.yul\":13330:13364   */\n      eq\n        /* \"#utility.yul\":13320:13382   */\n      tag_283\n      jumpi\n        /* \"#utility.yul\":13378:13379   */\n      0x00\n        /* \"#utility.yul\":13375:13376   */\n      dup1\n        /* \"#utility.yul\":13368:13380   */\n      revert\n        /* \"#utility.yul\":13320:13382   */\n    tag_283:\n        /* \"#utility.yul\":13268:13388   */\n      pop\n      jump\t// out\n        /* \"#utility.yul\":13394:13535   */\n    tag_120:\n        /* \"#utility.yul\":13450:13455   */\n      0x00\n        /* \"#utility.yul\":13481:13487   */\n      dup2\n        /* \"#utility.yul\":13475:13488   */\n      mload\n        /* \"#utility.yul\":13466:13488   */\n      swap1\n      pop\n        /* \"#utility.yul\":13497:13529   */\n      tag_285\n        /* \"#utility.yul\":13523:13528   */\n      dup2\n        /* \"#utility.yul\":13497:13529   */\n      tag_119\n      jump\t// in\n    tag_285:\n        /* \"#utility.yul\":13394:13535   */\n      swap3\n      swap2\n      pop\n      pop\n      jump\t// out\n        /* \"#utility.yul\":13541:13663   */\n    tag_121:\n        /* \"#utility.yul\":13614:13638   */\n      tag_287\n        /* \"#utility.yul\":13632:13637   */\n      dup2\n        /* \"#utility.yul\":13614:13638   */\n      tag_91\n      jump\t// in\n    tag_287:\n        /* \"#utility.yul\":13607:13612   */\n      dup2\n        /* \"#utility.yul\":13604:13639   */\n      eq\n        /* \"#utility.yul\":13594:13657   */\n      tag_288\n      jumpi\n        /* \"#utility.yul\":13653:13654   */\n      0x00\n        /* \"#utility.yul\":13650:13651   */\n      dup1\n        /* \"#utility.yul\":13643:13655   */\n      revert\n        /* \"#utility.yul\":13594:13657   */\n    tag_288:\n        /* \"#utility.yul\":13541:13663   */\n      pop\n      jump\t// out\n        /* \"#utility.yul\":13669:13812   */\n    tag_122:\n        /* \"#utility.yul\":13726:13731   */\n      0x00\n        /* \"#utility.yul\":13757:13763   */\n      dup2\n        /* \"#utility.yul\":13751:13764   */\n      mload\n        /* \"#utility.yul\":13742:13764   */\n      swap1\n      pop\n        /* \"#utility.yul\":13773:13806   */\n      tag_290\n        /* \"#utility.yul\":13800:13805   */\n      dup2\n        /* \"#utility.yul\":13773:13806   */\n      tag_121\n      jump\t// in\n    tag_290:\n        /* \"#utility.yul\":13669:13812   */\n      swap3\n      swap2\n      pop\n      pop\n      jump\t// out\n        /* \"#utility.yul\":13818:14789   */\n    tag_44:\n        /* \"#utility.yul\":13921:13927   */\n      0x00\n        /* \"#utility.yul\":13929:13935   */\n      dup1\n        /* \"#utility.yul\":13937:13943   */\n      0x00\n        /* \"#utility.yul\":13945:13951   */\n      dup1\n        /* \"#utility.yul\":13953:13959   */\n      0x00\n        /* \"#utility.yul\":14002:14005   */\n      0xa0\n        /* \"#utility.yul\":13990:13999   */\n      dup7\n        /* \"#utility.yul\":13981:13988   */\n      dup9\n        /* \"#utility.yul\":13977:14000   */\n      sub\n        /* \"#utility.yul\":13973:14006   */\n      slt\n        /* \"#utility.yul\":13970:14090   */\n      iszero\n      tag_292\n      jumpi\n        /* \"#utility.yul\":14009:14088   */\n      tag_293\n      tag_72\n      jump\t// in\n    tag_293:\n        /* \"#utility.yul\":13970:14090   */\n    tag_292:\n        /* \"#utility.yul\":14129:14130   */\n      0x00\n        /* \"#utility.yul\":14154:14217   */\n      tag_294\n        /* \"#utility.yul\":14209:14216   */\n      dup9\n        /* \"#utility.yul\":14200:14206   */\n      dup3\n        /* \"#utility.yul\":14189:14198   */\n      dup10\n        /* \"#utility.yul\":14185:14207   */\n      add\n        /* \"#utility.yul\":14154:14217   */\n      tag_118\n      jump\t// in\n    tag_294:\n        /* \"#utility.yul\":14144:14217   */\n      swap6\n      pop\n        /* \"#utility.yul\":14100:14227   */\n      pop\n        /* \"#utility.yul\":14266:14268   */\n      0x20\n        /* \"#utility.yul\":14292:14355   */\n      tag_295\n        /* \"#utility.yul\":14347:14354   */\n      dup9\n        /* \"#utility.yul\":14338:14344   */\n      dup3\n        /* \"#utility.yul\":14327:14336   */\n      dup10\n        /* \"#utility.yul\":14323:14345   */\n      add\n        /* \"#utility.yul\":14292:14355   */\n      tag_120\n      jump\t// in\n    tag_295:\n        /* \"#utility.yul\":14282:14355   */\n      swap5\n      pop\n        /* \"#utility.yul\":14237:14365   */\n      pop\n        /* \"#utility.yul\":14404:14406   */\n      0x40\n        /* \"#utility.yul\":14430:14494   */\n      tag_296\n        /* \"#utility.yul\":14486:14493   */\n      dup9\n        /* \"#utility.yul\":14477:14483   */\n      dup3\n        /* \"#utility.yul\":14466:14475   */\n      dup10\n        /* \"#utility.yul\":14462:14484   */\n      add\n        /* \"#utility.yul\":14430:14494   */\n      tag_122\n      jump\t// in\n    tag_296:\n        /* \"#utility.yul\":14420:14494   */\n      swap4\n      pop\n        /* \"#utility.yul\":14375:14504   */\n      pop\n        /* \"#utility.yul\":14543:14545   */\n      0x60\n        /* \"#utility.yul\":14569:14633   */\n      tag_297\n        /* \"#utility.yul\":14625:14632   */\n      dup9\n        /* \"#utility.yul\":14616:14622   */\n      dup3\n        /* \"#utility.yul\":14605:14614   */\n      dup10\n        /* \"#utility.yul\":14601:14623   */\n      add\n        /* \"#utility.yul\":14569:14633   */\n      tag_122\n      jump\t// in\n    tag_297:\n        /* \"#utility.yul\":14559:14633   */\n      swap3\n      pop\n        /* \"#utility.yul\":14514:14643   */\n      pop\n        /* \"#utility.yul\":14682:14685   */\n      0x80\n        /* \"#utility.yul\":14709:14772   */\n      tag_298\n        /* \"#utility.yul\":14764:14771   */\n      dup9\n        /* \"#utility.yul\":14755:14761   */\n      dup3\n        /* \"#utility.yul\":14744:14753   */\n      dup10\n        /* \"#utility.yul\":14740:14762   */\n      add\n        /* \"#utility.yul\":14709:14772   */\n      tag_118\n      jump\t// in\n    tag_298:\n        /* \"#utility.yul\":14699:14772   */\n      swap2\n      pop\n        /* \"#utility.yul\":14653:14782   */\n      pop\n        /* \"#utility.yul\":13818:14789   */\n      swap3\n      swap6\n      pop\n      swap3\n      swap6\n      swap1\n      swap4\n      pop\n      jump\t// out\n        /* \"#utility.yul\":14795:14881   */\n    tag_123:\n        /* \"#utility.yul\":14830:14837   */\n      0x00\n        /* \"#utility.yul\":14870:14874   */\n      0xff\n        /* \"#utility.yul\":14863:14868   */\n      dup3\n        /* \"#utility.yul\":14859:14875   */\n      and\n        /* \"#utility.yul\":14848:14875   */\n      swap1\n      pop\n        /* \"#utility.yul\":14795:14881   */\n      swap2\n      swap1\n      pop\n      jump\t// out\n        /* \"#utility.yul\":14887:15005   */\n    tag_124:\n        /* \"#utility.yul\":14958:14980   */\n      tag_301\n        /* \"#utility.yul\":14974:14979   */\n      dup2\n        /* \"#utility.yul\":14958:14980   */\n      tag_123\n      jump\t// in\n    tag_301:\n        /* \"#utility.yul\":14951:14956   */\n      dup2\n        /* \"#utility.yul\":14948:14981   */\n      eq\n        /* \"#utility.yul\":14938:14999   */\n      tag_302\n      jumpi\n        /* \"#utility.yul\":14995:14996   */\n      0x00\n        /* \"#utility.yul\":14992:14993   */\n      dup1\n        /* \"#utility.yul\":14985:14997   */\n      revert\n        /* \"#utility.yul\":14938:14999   */\n    tag_302:\n        /* \"#utility.yul\":14887:15005   */\n      pop\n      jump\t// out\n        /* \"#utility.yul\":15011:15150   */\n    tag_125:\n        /* \"#utility.yul\":15066:15071   */\n      0x00\n        /* \"#utility.yul\":15097:15103   */\n      dup2\n        /* \"#utility.yul\":15091:15104   */\n      mload\n        /* \"#utility.yul\":15082:15104   */\n      swap1\n      pop\n        /* \"#utility.yul\":15113:15144   */\n      tag_304\n        /* \"#utility.yul\":15138:15143   */\n      dup2\n        /* \"#utility.yul\":15113:15144   */\n      tag_124\n      jump\t// in\n    tag_304:\n        /* \"#utility.yul\":15011:15150   */\n      swap3\n      swap2\n      pop\n      pop\n      jump\t// out\n        /* \"#utility.yul\":15156:15503   */\n    tag_48:\n        /* \"#utility.yul\":15224:15230   */\n      0x00\n        /* \"#utility.yul\":15273:15275   */\n      0x20\n        /* \"#utility.yul\":15261:15270   */\n      dup3\n        /* \"#utility.yul\":15252:15259   */\n      dup5\n        /* \"#utility.yul\":15248:15271   */\n      sub\n        /* \"#utility.yul\":15244:15276   */\n      slt\n        /* \"#utility.yul\":15241:15360   */\n      iszero\n      tag_306\n      jumpi\n        /* \"#utility.yul\":15279:15358   */\n      tag_307\n      tag_72\n      jump\t// in\n    tag_307:\n        /* \"#utility.yul\":15241:15360   */\n    tag_306:\n        /* \"#utility.yul\":15399:15400   */\n      0x00\n        /* \"#utility.yul\":15424:15486   */\n      tag_308\n        /* \"#utility.yul\":15478:15485   */\n      dup5\n        /* \"#utility.yul\":15469:15475   */\n      dup3\n        /* \"#utility.yul\":15458:15467   */\n      dup6\n        /* \"#utility.yul\":15454:15476   */\n      add\n        /* \"#utility.yul\":15424:15486   */\n      tag_125\n      jump\t// in\n    tag_308:\n        /* \"#utility.yul\":15414:15486   */\n      swap2\n      pop\n        /* \"#utility.yul\":15370:15496   */\n      pop\n        /* \"#utility.yul\":15156:15503   */\n      swap3\n      swap2\n      pop\n      pop\n      jump\t// out\n        /* \"#utility.yul\":15509:15734   */\n    tag_126:\n        /* \"#utility.yul\":15649:15683   */\n      0x4f776e61626c653a206e6577206f776e657220697320746865207a65726f2061\n        /* \"#utility.yul\":15645:15646   */\n      0x00\n        /* \"#utility.yul\":15637:15643   */\n      dup3\n        /* \"#utility.yul\":15633:15647   */\n      add\n        /* \"#utility.yul\":15626:15684   */\n      mstore\n        /* \"#utility.yul\":15718:15726   */\n      0x6464726573730000000000000000000000000000000000000000000000000000\n        /* \"#utility.yul\":15713:15715   */\n      0x20\n        /* \"#utility.yul\":15705:15711   */\n      dup3\n        /* \"#utility.yul\":15701:15716   */\n      add\n        /* \"#utility.yul\":15694:15727   */\n      mstore\n        /* \"#utility.yul\":15509:15734   */\n      pop\n      jump\t// out\n        /* \"#utility.yul\":15740:16106   */\n    tag_127:\n        /* \"#utility.yul\":15882:15885   */\n      0x00\n        /* \"#utility.yul\":15903:15970   */\n      tag_311\n        /* \"#utility.yul\":15967:15969   */\n      0x26\n        /* \"#utility.yul\":15962:15965   */\n      dup4\n        /* \"#utility.yul\":15903:15970   */\n      tag_94\n      jump\t// in\n    tag_311:\n        /* \"#utility.yul\":15896:15970   */\n      swap2\n      pop\n        /* \"#utility.yul\":15979:16072   */\n      tag_312\n        /* \"#utility.yul\":16068:16071   */\n      dup3\n        /* \"#utility.yul\":15979:16072   */\n      tag_126\n      jump\t// in\n    tag_312:\n        /* \"#utility.yul\":16097:16099   */\n      0x40\n        /* \"#utility.yul\":16092:16095   */\n      dup3\n        /* \"#utility.yul\":16088:16100   */\n      add\n        /* \"#utility.yul\":16081:16100   */\n      swap1\n      pop\n        /* \"#utility.yul\":15740:16106   */\n      swap2\n      swap1\n      pop\n      jump\t// out\n        /* \"#utility.yul\":16112:16531   */\n    tag_60:\n        /* \"#utility.yul\":16278:16282   */\n      0x00\n        /* \"#utility.yul\":16316:16318   */\n      0x20\n        /* \"#utility.yul\":16305:16314   */\n      dup3\n        /* \"#utility.yul\":16301:16319   */\n      add\n        /* \"#utility.yul\":16293:16319   */\n      swap1\n      pop\n        /* \"#utility.yul\":16365:16374   */\n      dup2\n        /* \"#utility.yul\":16359:16363   */\n      dup2\n        /* \"#utility.yul\":16355:16375   */\n      sub\n        /* \"#utility.yul\":16351:16352   */\n      0x00\n        /* \"#utility.yul\":16340:16349   */\n      dup4\n        /* \"#utility.yul\":16336:16353   */\n      add\n        /* \"#utility.yul\":16329:16376   */\n      mstore\n        /* \"#utility.yul\":16393:16524   */\n      tag_314\n        /* \"#utility.yul\":16519:16523   */\n      dup2\n        /* \"#utility.yul\":16393:16524   */\n      tag_127\n      jump\t// in\n    tag_314:\n        /* \"#utility.yul\":16385:16524   */\n      swap1\n      pop\n        /* \"#utility.yul\":16112:16531   */\n      swap2\n      swap1\n      pop\n      jump\t// out\n        /* \"#utility.yul\":16537:16719   */\n    tag_128:\n        /* \"#utility.yul\":16677:16711   */\n      0x4f776e61626c653a2063616c6c6572206973206e6f7420746865206f776e6572\n        /* \"#utility.yul\":16673:16674   */\n      0x00\n        /* \"#utility.yul\":16665:16671   */\n      dup3\n        /* \"#utility.yul\":16661:16675   */\n      add\n        /* \"#utility.yul\":16654:16712   */\n      mstore\n        /* \"#utility.yul\":16537:16719   */\n      pop\n      jump\t// out\n        /* \"#utility.yul\":16725:17091   */\n    tag_129:\n        /* \"#utility.yul\":16867:16870   */\n      0x00\n        /* \"#utility.yul\":16888:16955   */\n      tag_317\n        /* \"#utility.yul\":16952:16954   */\n      0x20\n        /* \"#utility.yul\":16947:16950   */\n      dup4\n        /* \"#utility.yul\":16888:16955   */\n      tag_94\n      jump\t// in\n    tag_317:\n        /* \"#utility.yul\":16881:16955   */\n      swap2\n      pop\n        /* \"#utility.yul\":16964:17057   */\n      tag_318\n        /* \"#utility.yul\":17053:17056   */\n      dup3\n        /* \"#utility.yul\":16964:17057   */\n      tag_128\n      jump\t// in\n    tag_318:\n        /* \"#utility.yul\":17082:17084   */\n      0x20\n        /* \"#utility.yul\":17077:17080   */\n      dup3\n        /* \"#utility.yul\":17073:17085   */\n      add\n        /* \"#utility.yul\":17066:17085   */\n      swap1\n      pop\n        /* \"#utility.yul\":16725:17091   */\n      swap2\n      swap1\n      pop\n      jump\t// out\n        /* \"#utility.yul\":17097:17516   */\n    tag_68:\n        /* \"#utility.yul\":17263:17267   */\n      0x00\n        /* \"#utility.yul\":17301:17303   */\n      0x20\n        /* \"#utility.yul\":17290:17299   */\n      dup3\n        /* \"#utility.yul\":17286:17304   */\n      add\n        /* \"#utility.yul\":17278:17304   */\n      swap1\n      pop\n        /* \"#utility.yul\":17350:17359   */\n      dup2\n        /* \"#utility.yul\":17344:17348   */\n      dup2\n        /* \"#utility.yul\":17340:17360   */\n      sub\n        /* \"#utility.yul\":17336:17337   */\n      0x00\n        /* \"#utility.yul\":17325:17334   */\n      dup4\n        /* \"#utility.yul\":17321:17338   */\n      add\n        /* \"#utility.yul\":17314:17361   */\n      mstore\n        /* \"#utility.yul\":17378:17509   */\n      tag_320\n        /* \"#utility.yul\":17504:17508   */\n      dup2\n        /* \"#utility.yul\":17378:17509   */\n      tag_129\n      jump\t// in\n    tag_320:\n        /* \"#utility.yul\":17370:17509   */\n      swap1\n      pop\n        /* \"#utility.yul\":17097:17516   */\n      swap2\n      swap1\n      pop\n      jump\t// out\n\n    auxdata: 0xa2646970667358221220730b6004c9c9b9da7662007b40cffb91228bdfefa457b53a70ca27bfa50fff0464736f6c63430008170033\n}\n",
				"bytecode": {
					"linkReferences": {},
					"object": "60806040523480156200001157600080fd5b50604051620016fa380380620016fa83398181016040528101906200003791906200039a565b620000576200004b620000d660201b60201c565b620000de60201b60201c565b80600160006101000a81548173ffffffffffffffffffffffffffffffffffffffff021916908373ffffffffffffffffffffffffffffffffffffffff1602179055508282604051602001620000ad929190620004a7565b60405160208183030381529060405260029081620000cc919062000720565b5050505062000807565b600033905090565b60008060009054906101000a900473ffffffffffffffffffffffffffffffffffffffff169050816000806101000a81548173ffffffffffffffffffffffffffffffffffffffff021916908373ffffffffffffffffffffffffffffffffffffffff1602179055508173ffffffffffffffffffffffffffffffffffffffff168173ffffffffffffffffffffffffffffffffffffffff167f8be0079c531659141344cd1fd0a4f28419497f9722a3daafe3b4186f6b6457e060405160405180910390a35050565b6000604051905090565b600080fd5b600080fd5b600080fd5b600080fd5b6000601f19601f8301169050919050565b7f4e487b7100000000000000000000000000000000000000000000000000000000600052604160045260246000fd5b6200020b82620001c0565b810181811067ffffffffffffffff821117156200022d576200022c620001d1565b5b80604052505050565b600062000242620001a2565b905062000250828262000200565b919050565b600067ffffffffffffffff821115620002735762000272620001d1565b5b6200027e82620001c0565b9050602081019050919050565b60005b83811015620002ab5780820151818401526020810190506200028e565b60008484015250505050565b6000620002ce620002c88462000255565b62000236565b905082815260208101848484011115620002ed57620002ec620001bb565b5b620002fa8482856200028b565b509392505050565b600082601f8301126200031a5762000319620001b6565b5b81516200032c848260208601620002b7565b91505092915050565b600073ffffffffffffffffffffffffffffffffffffffff82169050919050565b6000620003628262000335565b9050919050565b620003748162000355565b81146200038057600080fd5b50565b600081519050620003948162000369565b92915050565b600080600060608486031215620003b657620003b5620001ac565b5b600084015167ffffffffffffffff811115620003d757620003d6620001b1565b5b620003e58682870162000302565b935050602084015167ffffffffffffffff811115620004095762000408620001b1565b5b620004178682870162000302565b92505060406200042a8682870162000383565b9150509250925092565b600081519050919050565b600081905092915050565b6000620004578262000434565b6200046381856200043f565b9350620004758185602086016200028b565b80840191505092915050565b7f2f00000000000000000000000000000000000000000000000000000000000000815250565b6000620004b582856200044a565b9150620004c28262000481565b600182019150620004d482846200044a565b91508190509392505050565b7f4e487b7100000000000000000000000000000000000000000000000000000000600052602260045260246000fd5b600060028204905060018216806200052857607f821691505b6020821081036200053e576200053d620004e0565b5b50919050565b60008190508160005260206000209050919050565b60006020601f8301049050919050565b600082821b905092915050565b600060088302620005a87fffffffffffffffffffffffffffffffffffffffffffffffffffffffffffffffff8262000569565b620005b4868362000569565b95508019841693508086168417925050509392505050565b6000819050919050565b6000819050919050565b600062000601620005fb620005f584620005cc565b620005d6565b620005cc565b9050919050565b6000819050919050565b6200061d83620005e0565b620006356200062c8262000608565b84845462000576565b825550505050565b600090565b6200064c6200063d565b6200065981848462000612565b505050565b5b8181101562000681576200067560008262000642565b6001810190506200065f565b5050565b601f821115620006d0576200069a8162000544565b620006a58462000559565b81016020851015620006b5578190505b620006cd620006c48562000559565b8301826200065e565b50505b505050565b600082821c905092915050565b6000620006f560001984600802620006d5565b1980831691505092915050565b6000620007108383620006e2565b9150826002028217905092915050565b6200072b8262000434565b67ffffffffffffffff811115620007475762000746620001d1565b5b6200075382546200050f565b6200076082828562000685565b600060209050601f83116001811462000798576000841562000783578287015190505b6200078f858262000702565b865550620007ff565b601f198416620007a88662000544565b60005b82811015620007d257848901518255600182019150602085019450602081019050620007ab565b86831015620007f25784890151620007ee601f891682620006e2565b8355505b6001600288020188555050505b505050505050565b610ee380620008176000396000f3fe608060405234801561001057600080fd5b50600436106100575760003560e01c8063082c44841461005c578063715018a6146100785780638da5cb5b14610082578063e1e7ff77146100a0578063f2fde38b146100c0575b600080fd5b610076600480360381019061007191906106f0565b6100dc565b005b61008061015b565b005b61008a61016f565b604051610097919061078a565b60405180910390f35b6100a8610198565b6040516100b793929190610856565b60405180910390f35b6100da60048036038101906100d59190610894565b61036b565b005b6100e46103ee565b80600160006101000a81548173ffffffffffffffffffffffffffffffffffffffff021916908373ffffffffffffffffffffffffffffffffffffffff1602179055508282604051602001610138929190610923565b604051602081830303815290604052600290816101559190610b62565b50505050565b6101636103ee565b61016d600061046c565b565b60008060009054906101000a900473ffffffffffffffffffffffffffffffffffffffff16905090565b60008060606000600160009054906101000a900473ffffffffffffffffffffffffffffffffffffffff1673ffffffffffffffffffffffffffffffffffffffff1663feaf968c6040518163ffffffff1660e01b815260040160a060405180830381865afa15801561020c573d6000803e3d6000fd5b505050506040513d601f19601f820116820180604052508101906102309190610cce565b5050509150506000600160009054906101000a900473ffffffffffffffffffffffffffffffffffffffff1673ffffffffffffffffffffffffffffffffffffffff1663313ce5676040518163ffffffff1660e01b8152600401602060405180830381865afa1580156102a5573d6000803e3d6000fd5b505050506040513d601f19601f820116820180604052508101906102c99190610d82565b60ff169050818160028080546102de90610985565b80601f016020809104026020016040519081016040528092919081815260200182805461030a90610985565b80156103575780601f1061032c57610100808354040283529160200191610357565b820191906000526020600020905b81548152906001019060200180831161033a57829003601f168201915b505050505090509450945094505050909192565b6103736103ee565b600073ffffffffffffffffffffffffffffffffffffffff168173ffffffffffffffffffffffffffffffffffffffff16036103e2576040517f08c379a00000000000000000000000000000000000000000000000000000000081526004016103d990610e21565b60405180910390fd5b6103eb8161046c565b50565b6103f6610530565b73ffffffffffffffffffffffffffffffffffffffff1661041461016f565b73ffffffffffffffffffffffffffffffffffffffff161461046a576040517f08c379a000000000000000000000000000000000000000000000000000000000815260040161046190610e8d565b60405180910390fd5b565b60008060009054906101000a900473ffffffffffffffffffffffffffffffffffffffff169050816000806101000a81548173ffffffffffffffffffffffffffffffffffffffff021916908373ffffffffffffffffffffffffffffffffffffffff1602179055508173ffffffffffffffffffffffffffffffffffffffff168173ffffffffffffffffffffffffffffffffffffffff167f8be0079c531659141344cd1fd0a4f28419497f9722a3daafe3b4186f6b6457e060405160405180910390a35050565b600033905090565b6000604051905090565b600080fd5b600080fd5b600080fd5b600080fd5b6000601f19601f8301169050919050565b7f4e487b7100000000000000000000000000000000000000000000000000000000600052604160045260246000fd5b61059f82610556565b810181811067ffffffffffffffff821117156105be576105bd610567565b5b80604052505050565b60006105d1610538565b90506105dd8282610596565b919050565b600067ffffffffffffffff8211156105fd576105fc610567565b5b61060682610556565b9050602081019050919050565b82818337600083830152505050565b6000610635610630846105e2565b6105c7565b90508281526020810184848401111561065157610650610551565b5b61065c848285610613565b509392505050565b600082601f8301126106795761067861054c565b5b8135610689848260208601610622565b91505092915050565b600073ffffffffffffffffffffffffffffffffffffffff82169050919050565b60006106bd82610692565b9050919050565b6106cd816106b2565b81146106d857600080fd5b50565b6000813590506106ea816106c4565b92915050565b60008060006060848603121561070957610708610542565b5b600084013567ffffffffffffffff81111561072757610726610547565b5b61073386828701610664565b935050602084013567ffffffffffffffff81111561075457610753610547565b5b61076086828701610664565b9250506040610771868287016106db565b9150509250925092565b610784816106b2565b82525050565b600060208201905061079f600083018461077b565b92915050565b6000819050919050565b6107b8816107a5565b82525050565b6000819050919050565b6107d1816107be565b82525050565b600081519050919050565b600082825260208201905092915050565b60005b838110156108115780820151818401526020810190506107f6565b60008484015250505050565b6000610828826107d7565b61083281856107e2565b93506108428185602086016107f3565b61084b81610556565b840191505092915050565b600060608201905061086b60008301866107af565b61087860208301856107c8565b818103604083015261088a818461081d565b9050949350505050565b6000602082840312156108aa576108a9610542565b5b60006108b8848285016106db565b91505092915050565b600081905092915050565b60006108d7826107d7565b6108e181856108c1565b93506108f18185602086016107f3565b80840191505092915050565b7f2f00000000000000000000000000000000000000000000000000000000000000815250565b600061092f82856108cc565b915061093a826108fd565b60018201915061094a82846108cc565b91508190509392505050565b7f4e487b7100000000000000000000000000000000000000000000000000000000600052602260045260246000fd5b6000600282049050600182168061099d57607f821691505b6020821081036109b0576109af610956565b5b50919050565b60008190508160005260206000209050919050565b60006020601f8301049050919050565b600082821b905092915050565b600060088302610a187fffffffffffffffffffffffffffffffffffffffffffffffffffffffffffffffff826109db565b610a2286836109db565b95508019841693508086168417925050509392505050565b6000819050919050565b6000610a5f610a5a610a55846107be565b610a3a565b6107be565b9050919050565b6000819050919050565b610a7983610a44565b610a8d610a8582610a66565b8484546109e8565b825550505050565b600090565b610aa2610a95565b610aad818484610a70565b505050565b5b81811015610ad157610ac6600082610a9a565b600181019050610ab3565b5050565b601f821115610b1657610ae7816109b6565b610af0846109cb565b81016020851015610aff578190505b610b13610b0b856109cb565b830182610ab2565b50505b505050565b600082821c905092915050565b6000610b3960001984600802610b1b565b1980831691505092915050565b6000610b528383610b28565b9150826002028217905092915050565b610b6b826107d7565b67ffffffffffffffff811115610b8457610b83610567565b5b610b8e8254610985565b610b99828285610ad5565b600060209050601f831160018114610bcc5760008415610bba578287015190505b610bc48582610b46565b865550610c2c565b601f198416610bda866109b6565b60005b82811015610c0257848901518255600182019150602085019450602081019050610bdd565b86831015610c1f5784890151610c1b601f891682610b28565b8355505b6001600288020188555050505b505050505050565b600069ffffffffffffffffffff82169050919050565b610c5381610c34565b8114610c5e57600080fd5b50565b600081519050610c7081610c4a565b92915050565b610c7f816107a5565b8114610c8a57600080fd5b50565b600081519050610c9c81610c76565b92915050565b610cab816107be565b8114610cb657600080fd5b50565b600081519050610cc881610ca2565b92915050565b600080600080600060a08688031215610cea57610ce9610542565b5b6000610cf888828901610c61565b9550506020610d0988828901610c8d565b9450506040610d1a88828901610cb9565b9350506060610d2b88828901610cb9565b9250506080610d3c88828901610c61565b9150509295509295909350565b600060ff82169050919050565b610d5f81610d49565b8114610d6a57600080fd5b50565b600081519050610d7c81610d56565b92915050565b600060208284031215610d9857610d97610542565b5b6000610da684828501610d6d565b91505092915050565b7f4f776e61626c653a206e6577206f776e657220697320746865207a65726f206160008201527f6464726573730000000000000000000000000000000000000000000000000000602082015250565b6000610e0b6026836107e2565b9150610e1682610daf565b604082019050919050565b60006020820190508181036000830152610e3a81610dfe565b9050919050565b7f4f776e61626c653a2063616c6c6572206973206e6f7420746865206f776e6572600082015250565b6000610e776020836107e2565b9150610e8282610e41565b602082019050919050565b60006020820190508181036000830152610ea681610e6a565b905091905056fea2646970667358221220730b6004c9c9b9da7662007b40cffb91228bdfefa457b53a70ca27bfa50fff0464736f6c63430008170033",
					"opcodes": "PUSH1 0x80 PUSH1 0x40 MSTORE CALLVALUE DUP1 ISZERO PUSH3 0x11 JUMPI PUSH1 0x0 DUP1 REVERT JUMPDEST POP PUSH1 0x40 MLOAD PUSH3 0x16FA CODESIZE SUB DUP1 PUSH3 0x16FA DUP4 CODECOPY DUP2 DUP2 ADD PUSH1 0x40 MSTORE DUP2 ADD SWAP1 PUSH3 0x37 SWAP2 SWAP1 PUSH3 0x39A JUMP JUMPDEST PUSH3 0x57 PUSH3 0x4B PUSH3 0xD6 PUSH1 0x20 SHL PUSH1 0x20 SHR JUMP JUMPDEST PUSH3 0xDE PUSH1 0x20 SHL PUSH1 0x20 SHR JUMP JUMPDEST DUP1 PUSH1 0x1 PUSH1 0x0 PUSH2 0x100 EXP DUP2 SLOAD DUP2 PUSH20 0xFFFFFFFFFFFFFFFFFFFFFFFFFFFFFFFFFFFFFFFF MUL NOT AND SWAP1 DUP4 PUSH20 0xFFFFFFFFFFFFFFFFFFFFFFFFFFFFFFFFFFFFFFFF AND MUL OR SWAP1 SSTORE POP DUP3 DUP3 PUSH1 0x40 MLOAD PUSH1 0x20 ADD PUSH3 0xAD SWAP3 SWAP2 SWAP1 PUSH3 0x4A7 JUMP JUMPDEST PUSH1 0x40 MLOAD PUSH1 0x20 DUP2 DUP4 SUB SUB DUP2 MSTORE SWAP1 PUSH1 0x40 MSTORE PUSH1 0x2 SWAP1 DUP2 PUSH3 0xCC SWAP2 SWAP1 PUSH3 0x720 JUMP JUMPDEST POP POP POP POP PUSH3 0x807 JUMP JUMPDEST PUSH1 0x0 CALLER SWAP1 POP SWAP1 JUMP JUMPDEST PUSH1 0x0 DUP1 PUSH1 0x0 SWAP1 SLOAD SWAP1 PUSH2 0x100 EXP SWAP1 DIV PUSH20 0xFFFFFFFFFFFFFFFFFFFFFFFFFFFFFFFFFFFFFFFF AND SWAP1 POP DUP2 PUSH1 0x0 DUP1 PUSH2 0x100 EXP DUP2 SLOAD DUP2 PUSH20 0xFFFFFFFFFFFFFFFFFFFFFFFFFFFFFFFFFFFFFFFF MUL NOT AND SWAP1 DUP4 PUSH20 0xFFFFFFFFFFFFFFFFFFFFFFFFFFFFFFFFFFFFFFFF AND MUL OR SWAP1 SSTORE POP DUP2 PUSH20 0xFFFFFFFFFFFFFFFFFFFFFFFFFFFFFFFFFFFFFFFF AND DUP2 PUSH20 0xFFFFFFFFFFFFFFFFFFFFFFFFFFFFFFFFFFFFFFFF AND PUSH32 0x8BE0079C531659141344CD1FD0A4F28419497F9722A3DAAFE3B4186F6B6457E0 PUSH1 0x40 MLOAD PUSH1 0x40 MLOAD DUP1 SWAP2 SUB SWAP1 LOG3 POP POP JUMP JUMPDEST PUSH1 0x0 PUSH1 0x40 MLOAD SWAP1 POP SWAP1 JUMP JUMPDEST PUSH1 0x0 DUP1 REVERT JUMPDEST PUSH1 0x0 DUP1 REVERT JUMPDEST PUSH1 0x0 DUP1 REVERT JUMPDEST PUSH1 0x0 DUP1 REVERT JUMPDEST PUSH1 0x0 PUSH1 0x1F NOT PUSH1 0x1F DUP4 ADD AND SWAP1 POP SWAP2 SWAP1 POP JUMP JUMPDEST PUSH32 0x4E487B7100000000000000000000000000000000000000000000000000000000 PUSH1 0x0 MSTORE PUSH1 0x41 PUSH1 0x4 MSTORE PUSH1 0x24 PUSH1 0x0 REVERT JUMPDEST PUSH3 0x20B DUP3 PUSH3 0x1C0 JUMP JUMPDEST DUP2 ADD DUP2 DUP2 LT PUSH8 0xFFFFFFFFFFFFFFFF DUP3 GT OR ISZERO PUSH3 0x22D JUMPI PUSH3 0x22C PUSH3 0x1D1 JUMP JUMPDEST JUMPDEST DUP1 PUSH1 0x40 MSTORE POP POP POP JUMP JUMPDEST PUSH1 0x0 PUSH3 0x242 PUSH3 0x1A2 JUMP JUMPDEST SWAP1 POP PUSH3 0x250 DUP3 DUP3 PUSH3 0x200 JUMP JUMPDEST SWAP2 SWAP1 POP JUMP JUMPDEST PUSH1 0x0 PUSH8 0xFFFFFFFFFFFFFFFF DUP3 GT ISZERO PUSH3 0x273 JUMPI PUSH3 0x272 PUSH3 0x1D1 JUMP JUMPDEST JUMPDEST PUSH3 0x27E DUP3 PUSH3 0x1C0 JUMP JUMPDEST SWAP1 POP PUSH1 0x20 DUP2 ADD SWAP1 POP SWAP2 SWAP1 POP JUMP JUMPDEST PUSH1 0x0 JUMPDEST DUP4 DUP2 LT ISZERO PUSH3 0x2AB JUMPI DUP1 DUP3 ADD MLOAD DUP2 DUP5 ADD MSTORE PUSH1 0x20 DUP2 ADD SWAP1 POP PUSH3 0x28E JUMP JUMPDEST PUSH1 0x0 DUP5 DUP5 ADD MSTORE POP POP POP POP JUMP JUMPDEST PUSH1 0x0 PUSH3 0x2CE PUSH3 0x2C8 DUP5 PUSH3 0x255 JUMP JUMPDEST PUSH3 0x236 JUMP JUMPDEST SWAP1 POP DUP3 DUP2 MSTORE PUSH1 0x20 DUP2 ADD DUP5 DUP5 DUP5 ADD GT ISZERO PUSH3 0x2ED JUMPI PUSH3 0x2EC PUSH3 0x1BB JUMP JUMPDEST JUMPDEST PUSH3 0x2FA DUP5 DUP3 DUP6 PUSH3 0x28B JUMP JUMPDEST POP SWAP4 SWAP3 POP POP POP JUMP JUMPDEST PUSH1 0x0 DUP3 PUSH1 0x1F DUP4 ADD SLT PUSH3 0x31A JUMPI PUSH3 0x319 PUSH3 0x1B6 JUMP JUMPDEST JUMPDEST DUP2 MLOAD PUSH3 0x32C DUP5 DUP3 PUSH1 0x20 DUP7 ADD PUSH3 0x2B7 JUMP JUMPDEST SWAP2 POP POP SWAP3 SWAP2 POP POP JUMP JUMPDEST PUSH1 0x0 PUSH20 0xFFFFFFFFFFFFFFFFFFFFFFFFFFFFFFFFFFFFFFFF DUP3 AND SWAP1 POP SWAP2 SWAP1 POP JUMP JUMPDEST PUSH1 0x0 PUSH3 0x362 DUP3 PUSH3 0x335 JUMP JUMPDEST SWAP1 POP SWAP2 SWAP1 POP JUMP JUMPDEST PUSH3 0x374 DUP2 PUSH3 0x355 JUMP JUMPDEST DUP2 EQ PUSH3 0x380 JUMPI PUSH1 0x0 DUP1 REVERT JUMPDEST POP JUMP JUMPDEST PUSH1 0x0 DUP2 MLOAD SWAP1 POP PUSH3 0x394 DUP2 PUSH3 0x369 JUMP JUMPDEST SWAP3 SWAP2 POP POP JUMP JUMPDEST PUSH1 0x0 DUP1 PUSH1 0x0 PUSH1 0x60 DUP5 DUP7 SUB SLT ISZERO PUSH3 0x3B6 JUMPI PUSH3 0x3B5 PUSH3 0x1AC JUMP JUMPDEST JUMPDEST PUSH1 0x0 DUP5 ADD MLOAD PUSH8 0xFFFFFFFFFFFFFFFF DUP2 GT ISZERO PUSH3 0x3D7 JUMPI PUSH3 0x3D6 PUSH3 0x1B1 JUMP JUMPDEST JUMPDEST PUSH3 0x3E5 DUP7 DUP3 DUP8 ADD PUSH3 0x302 JUMP JUMPDEST SWAP4 POP POP PUSH1 0x20 DUP5 ADD MLOAD PUSH8 0xFFFFFFFFFFFFFFFF DUP2 GT ISZERO PUSH3 0x409 JUMPI PUSH3 0x408 PUSH3 0x1B1 JUMP JUMPDEST JUMPDEST PUSH3 0x417 DUP7 DUP3 DUP8 ADD PUSH3 0x302 JUMP JUMPDEST SWAP3 POP POP PUSH1 0x40 PUSH3 0x42A DUP7 DUP3 DUP8 ADD PUSH3 0x383 JUMP JUMPDEST SWAP2 POP POP SWAP3 POP SWAP3 POP SWAP3 JUMP JUMPDEST PUSH1 0x0 DUP2 MLOAD SWAP1 POP SWAP2 SWAP1 POP JUMP JUMPDEST PUSH1 0x0 DUP2 SWAP1 POP SWAP3 SWAP2 POP POP JUMP JUMPDEST PUSH1 0x0 PUSH3 0x457 DUP3 PUSH3 0x434 JUMP JUMPDEST PUSH3 0x463 DUP2 DUP6 PUSH3 0x43F JUMP JUMPDEST SWAP4 POP PUSH3 0x475 DUP2 DUP6 PUSH1 0x20 DUP7 ADD PUSH3 0x28B JUMP JUMPDEST DUP1 DUP5 ADD SWAP2 POP POP SWAP3 SWAP2 POP POP JUMP JUMPDEST PUSH32 0x2F00000000000000000000000000000000000000000000000000000000000000 DUP2 MSTORE POP JUMP JUMPDEST PUSH1 0x0 PUSH3 0x4B5 DUP3 DUP6 PUSH3 0x44A JUMP JUMPDEST SWAP2 POP PUSH3 0x4C2 DUP3 PUSH3 0x481 JUMP JUMPDEST PUSH1 0x1 DUP3 ADD SWAP2 POP PUSH3 0x4D4 DUP3 DUP5 PUSH3 0x44A JUMP JUMPDEST SWAP2 POP DUP2 SWAP1 POP SWAP4 SWAP3 POP POP POP JUMP JUMPDEST PUSH32 0x4E487B7100000000000000000000000000000000000000000000000000000000 PUSH1 0x0 MSTORE PUSH1 0x22 PUSH1 0x4 MSTORE PUSH1 0x24 PUSH1 0x0 REVERT JUMPDEST PUSH1 0x0 PUSH1 0x2 DUP3 DIV SWAP1 POP PUSH1 0x1 DUP3 AND DUP1 PUSH3 0x528 JUMPI PUSH1 0x7F DUP3 AND SWAP2 POP JUMPDEST PUSH1 0x20 DUP3 LT DUP2 SUB PUSH3 0x53E JUMPI PUSH3 0x53D PUSH3 0x4E0 JUMP JUMPDEST JUMPDEST POP SWAP2 SWAP1 POP JUMP JUMPDEST PUSH1 0x0 DUP2 SWAP1 POP DUP2 PUSH1 0x0 MSTORE PUSH1 0x20 PUSH1 0x0 KECCAK256 SWAP1 POP SWAP2 SWAP1 POP JUMP JUMPDEST PUSH1 0x0 PUSH1 0x20 PUSH1 0x1F DUP4 ADD DIV SWAP1 POP SWAP2 SWAP1 POP JUMP JUMPDEST PUSH1 0x0 DUP3 DUP3 SHL SWAP1 POP SWAP3 SWAP2 POP POP JUMP JUMPDEST PUSH1 0x0 PUSH1 0x8 DUP4 MUL PUSH3 0x5A8 PUSH32 0xFFFFFFFFFFFFFFFFFFFFFFFFFFFFFFFFFFFFFFFFFFFFFFFFFFFFFFFFFFFFFFFF DUP3 PUSH3 0x569 JUMP JUMPDEST PUSH3 0x5B4 DUP7 DUP4 PUSH3 0x569 JUMP JUMPDEST SWAP6 POP DUP1 NOT DUP5 AND SWAP4 POP DUP1 DUP7 AND DUP5 OR SWAP3 POP POP POP SWAP4 SWAP3 POP POP POP JUMP JUMPDEST PUSH1 0x0 DUP2 SWAP1 POP SWAP2 SWAP1 POP JUMP JUMPDEST PUSH1 0x0 DUP2 SWAP1 POP SWAP2 SWAP1 POP JUMP JUMPDEST PUSH1 0x0 PUSH3 0x601 PUSH3 0x5FB PUSH3 0x5F5 DUP5 PUSH3 0x5CC JUMP JUMPDEST PUSH3 0x5D6 JUMP JUMPDEST PUSH3 0x5CC JUMP JUMPDEST SWAP1 POP SWAP2 SWAP1 POP JUMP JUMPDEST PUSH1 0x0 DUP2 SWAP1 POP SWAP2 SWAP1 POP JUMP JUMPDEST PUSH3 0x61D DUP4 PUSH3 0x5E0 JUMP JUMPDEST PUSH3 0x635 PUSH3 0x62C DUP3 PUSH3 0x608 JUMP JUMPDEST DUP5 DUP5 SLOAD PUSH3 0x576 JUMP JUMPDEST DUP3 SSTORE POP POP POP POP JUMP JUMPDEST PUSH1 0x0 SWAP1 JUMP JUMPDEST PUSH3 0x64C PUSH3 0x63D JUMP JUMPDEST PUSH3 0x659 DUP2 DUP5 DUP5 PUSH3 0x612 JUMP JUMPDEST POP POP POP JUMP JUMPDEST JUMPDEST DUP2 DUP2 LT ISZERO PUSH3 0x681 JUMPI PUSH3 0x675 PUSH1 0x0 DUP3 PUSH3 0x642 JUMP JUMPDEST PUSH1 0x1 DUP2 ADD SWAP1 POP PUSH3 0x65F JUMP JUMPDEST POP POP JUMP JUMPDEST PUSH1 0x1F DUP3 GT ISZERO PUSH3 0x6D0 JUMPI PUSH3 0x69A DUP2 PUSH3 0x544 JUMP JUMPDEST PUSH3 0x6A5 DUP5 PUSH3 0x559 JUMP JUMPDEST DUP2 ADD PUSH1 0x20 DUP6 LT ISZERO PUSH3 0x6B5 JUMPI DUP2 SWAP1 POP JUMPDEST PUSH3 0x6CD PUSH3 0x6C4 DUP6 PUSH3 0x559 JUMP JUMPDEST DUP4 ADD DUP3 PUSH3 0x65E JUMP JUMPDEST POP POP JUMPDEST POP POP POP JUMP JUMPDEST PUSH1 0x0 DUP3 DUP3 SHR SWAP1 POP SWAP3 SWAP2 POP POP JUMP JUMPDEST PUSH1 0x0 PUSH3 0x6F5 PUSH1 0x0 NOT DUP5 PUSH1 0x8 MUL PUSH3 0x6D5 JUMP JUMPDEST NOT DUP1 DUP4 AND SWAP2 POP POP SWAP3 SWAP2 POP POP JUMP JUMPDEST PUSH1 0x0 PUSH3 0x710 DUP4 DUP4 PUSH3 0x6E2 JUMP JUMPDEST SWAP2 POP DUP3 PUSH1 0x2 MUL DUP3 OR SWAP1 POP SWAP3 SWAP2 POP POP JUMP JUMPDEST PUSH3 0x72B DUP3 PUSH3 0x434 JUMP JUMPDEST PUSH8 0xFFFFFFFFFFFFFFFF DUP2 GT ISZERO PUSH3 0x747 JUMPI PUSH3 0x746 PUSH3 0x1D1 JUMP JUMPDEST JUMPDEST PUSH3 0x753 DUP3 SLOAD PUSH3 0x50F JUMP JUMPDEST PUSH3 0x760 DUP3 DUP3 DUP6 PUSH3 0x685 JUMP JUMPDEST PUSH1 0x0 PUSH1 0x20 SWAP1 POP PUSH1 0x1F DUP4 GT PUSH1 0x1 DUP2 EQ PUSH3 0x798 JUMPI PUSH1 0x0 DUP5 ISZERO PUSH3 0x783 JUMPI DUP3 DUP8 ADD MLOAD SWAP1 POP JUMPDEST PUSH3 0x78F DUP6 DUP3 PUSH3 0x702 JUMP JUMPDEST DUP7 SSTORE POP PUSH3 0x7FF JUMP JUMPDEST PUSH1 0x1F NOT DUP5 AND PUSH3 0x7A8 DUP7 PUSH3 0x544 JUMP JUMPDEST PUSH1 0x0 JUMPDEST DUP3 DUP2 LT ISZERO PUSH3 0x7D2 JUMPI DUP5 DUP10 ADD MLOAD DUP3 SSTORE PUSH1 0x1 DUP3 ADD SWAP2 POP PUSH1 0x20 DUP6 ADD SWAP5 POP PUSH1 0x20 DUP2 ADD SWAP1 POP PUSH3 0x7AB JUMP JUMPDEST DUP7 DUP4 LT ISZERO PUSH3 0x7F2 JUMPI DUP5 DUP10 ADD MLOAD PUSH3 0x7EE PUSH1 0x1F DUP10 AND DUP3 PUSH3 0x6E2 JUMP JUMPDEST DUP4 SSTORE POP JUMPDEST PUSH1 0x1 PUSH1 0x2 DUP9 MUL ADD DUP9 SSTORE POP POP POP JUMPDEST POP POP POP POP POP POP JUMP JUMPDEST PUSH2 0xEE3 DUP1 PUSH3 0x817 PUSH1 0x0 CODECOPY PUSH1 0x0 RETURN INVALID PUSH1 0x80 PUSH1 0x40 MSTORE CALLVALUE DUP1 ISZERO PUSH2 0x10 JUMPI PUSH1 0x0 DUP1 REVERT JUMPDEST POP PUSH1 0x4 CALLDATASIZE LT PUSH2 0x57 JUMPI PUSH1 0x0 CALLDATALOAD PUSH1 0xE0 SHR DUP1 PUSH4 0x82C4484 EQ PUSH2 0x5C JUMPI DUP1 PUSH4 0x715018A6 EQ PUSH2 0x78 JUMPI DUP1 PUSH4 0x8DA5CB5B EQ PUSH2 0x82 JUMPI DUP1 PUSH4 0xE1E7FF77 EQ PUSH2 0xA0 JUMPI DUP1 PUSH4 0xF2FDE38B EQ PUSH2 0xC0 JUMPI JUMPDEST PUSH1 0x0 DUP1 REVERT JUMPDEST PUSH2 0x76 PUSH1 0x4 DUP1 CALLDATASIZE SUB DUP2 ADD SWAP1 PUSH2 0x71 SWAP2 SWAP1 PUSH2 0x6F0 JUMP JUMPDEST PUSH2 0xDC JUMP JUMPDEST STOP JUMPDEST PUSH2 0x80 PUSH2 0x15B JUMP JUMPDEST STOP JUMPDEST PUSH2 0x8A PUSH2 0x16F JUMP JUMPDEST PUSH1 0x40 MLOAD PUSH2 0x97 SWAP2 SWAP1 PUSH2 0x78A JUMP JUMPDEST PUSH1 0x40 MLOAD DUP1 SWAP2 SUB SWAP1 RETURN JUMPDEST PUSH2 0xA8 PUSH2 0x198 JUMP JUMPDEST PUSH1 0x40 MLOAD PUSH2 0xB7 SWAP4 SWAP3 SWAP2 SWAP1 PUSH2 0x856 JUMP JUMPDEST PUSH1 0x40 MLOAD DUP1 SWAP2 SUB SWAP1 RETURN JUMPDEST PUSH2 0xDA PUSH1 0x4 DUP1 CALLDATASIZE SUB DUP2 ADD SWAP1 PUSH2 0xD5 SWAP2 SWAP1 PUSH2 0x894 JUMP JUMPDEST PUSH2 0x36B JUMP JUMPDEST STOP JUMPDEST PUSH2 0xE4 PUSH2 0x3EE JUMP JUMPDEST DUP1 PUSH1 0x1 PUSH1 0x0 PUSH2 0x100 EXP DUP2 SLOAD DUP2 PUSH20 0xFFFFFFFFFFFFFFFFFFFFFFFFFFFFFFFFFFFFFFFF MUL NOT AND SWAP1 DUP4 PUSH20 0xFFFFFFFFFFFFFFFFFFFFFFFFFFFFFFFFFFFFFFFF AND MUL OR SWAP1 SSTORE POP DUP3 DUP3 PUSH1 0x40 MLOAD PUSH1 0x20 ADD PUSH2 0x138 SWAP3 SWAP2 SWAP1 PUSH2 0x923 JUMP JUMPDEST PUSH1 0x40 MLOAD PUSH1 0x20 DUP2 DUP4 SUB SUB DUP2 MSTORE SWAP1 PUSH1 0x40 MSTORE PUSH1 0x2 SWAP1 DUP2 PUSH2 0x155 SWAP2 SWAP1 PUSH2 0xB62 JUMP JUMPDEST POP POP POP POP JUMP JUMPDEST PUSH2 0x163 PUSH2 0x3EE JUMP JUMPDEST PUSH2 0x16D PUSH1 0x0 PUSH2 0x46C JUMP JUMPDEST JUMP JUMPDEST PUSH1 0x0 DUP1 PUSH1 0x0 SWAP1 SLOAD SWAP1 PUSH2 0x100 EXP SWAP1 DIV PUSH20 0xFFFFFFFFFFFFFFFFFFFFFFFFFFFFFFFFFFFFFFFF AND SWAP1 POP SWAP1 JUMP JUMPDEST PUSH1 0x0 DUP1 PUSH1 0x60 PUSH1 0x0 PUSH1 0x1 PUSH1 0x0 SWAP1 SLOAD SWAP1 PUSH2 0x100 EXP SWAP1 DIV PUSH20 0xFFFFFFFFFFFFFFFFFFFFFFFFFFFFFFFFFFFFFFFF AND PUSH20 0xFFFFFFFFFFFFFFFFFFFFFFFFFFFFFFFFFFFFFFFF AND PUSH4 0xFEAF968C PUSH1 0x40 MLOAD DUP2 PUSH4 0xFFFFFFFF AND PUSH1 0xE0 SHL DUP2 MSTORE PUSH1 0x4 ADD PUSH1 0xA0 PUSH1 0x40 MLOAD DUP1 DUP4 SUB DUP2 DUP7 GAS STATICCALL ISZERO DUP1 ISZERO PUSH2 0x20C JUMPI RETURNDATASIZE PUSH1 0x0 DUP1 RETURNDATACOPY RETURNDATASIZE PUSH1 0x0 REVERT JUMPDEST POP POP POP POP PUSH1 0x40 MLOAD RETURNDATASIZE PUSH1 0x1F NOT PUSH1 0x1F DUP3 ADD AND DUP3 ADD DUP1 PUSH1 0x40 MSTORE POP DUP2 ADD SWAP1 PUSH2 0x230 SWAP2 SWAP1 PUSH2 0xCCE JUMP JUMPDEST POP POP POP SWAP2 POP POP PUSH1 0x0 PUSH1 0x1 PUSH1 0x0 SWAP1 SLOAD SWAP1 PUSH2 0x100 EXP SWAP1 DIV PUSH20 0xFFFFFFFFFFFFFFFFFFFFFFFFFFFFFFFFFFFFFFFF AND PUSH20 0xFFFFFFFFFFFFFFFFFFFFFFFFFFFFFFFFFFFFFFFF AND PUSH4 0x313CE567 PUSH1 0x40 MLOAD DUP2 PUSH4 0xFFFFFFFF AND PUSH1 0xE0 SHL DUP2 MSTORE PUSH1 0x4 ADD PUSH1 0x20 PUSH1 0x40 MLOAD DUP1 DUP4 SUB DUP2 DUP7 GAS STATICCALL ISZERO DUP1 ISZERO PUSH2 0x2A5 JUMPI RETURNDATASIZE PUSH1 0x0 DUP1 RETURNDATACOPY RETURNDATASIZE PUSH1 0x0 REVERT JUMPDEST POP POP POP POP PUSH1 0x40 MLOAD RETURNDATASIZE PUSH1 0x1F NOT PUSH1 0x1F DUP3 ADD AND DUP3 ADD DUP1 PUSH1 0x40 MSTORE POP DUP2 ADD SWAP1 PUSH2 0x2C9 SWAP2 SWAP1 PUSH2 0xD82 JUMP JUMPDEST PUSH1 0xFF AND SWAP1 POP DUP2 DUP2 PUSH1 0x2 DUP1 DUP1 SLOAD PUSH2 0x2DE SWAP1 PUSH2 0x985 JUMP JUMPDEST DUP1 PUSH1 0x1F ADD PUSH1 0x20 DUP1 SWAP2 DIV MUL PUSH1 0x20 ADD PUSH1 0x40 MLOAD SWAP1 DUP2 ADD PUSH1 0x40 MSTORE DUP1 SWAP3 SWAP2 SWAP1 DUP2 DUP2 MSTORE PUSH1 0x20 ADD DUP3 DUP1 SLOAD PUSH2 0x30A SWAP1 PUSH2 0x985 JUMP JUMPDEST DUP1 ISZERO PUSH2 0x357 JUMPI DUP1 PUSH1 0x1F LT PUSH2 0x32C JUMPI PUSH2 0x100 DUP1 DUP4 SLOAD DIV MUL DUP4 MSTORE SWAP2 PUSH1 0x20 ADD SWAP2 PUSH2 0x357 JUMP JUMPDEST DUP3 ADD SWAP2 SWAP1 PUSH1 0x0 MSTORE PUSH1 0x20 PUSH1 0x0 KECCAK256 SWAP1 JUMPDEST DUP2 SLOAD DUP2 MSTORE SWAP1 PUSH1 0x1 ADD SWAP1 PUSH1 0x20 ADD DUP1 DUP4 GT PUSH2 0x33A JUMPI DUP3 SWAP1 SUB PUSH1 0x1F AND DUP3 ADD SWAP2 JUMPDEST POP POP POP POP POP SWAP1 POP SWAP5 POP SWAP5 POP SWAP5 POP POP POP SWAP1 SWAP2 SWAP3 JUMP JUMPDEST PUSH2 0x373 PUSH2 0x3EE JUMP JUMPDEST PUSH1 0x0 PUSH20 0xFFFFFFFFFFFFFFFFFFFFFFFFFFFFFFFFFFFFFFFF AND DUP2 PUSH20 0xFFFFFFFFFFFFFFFFFFFFFFFFFFFFFFFFFFFFFFFF AND SUB PUSH2 0x3E2 JUMPI PUSH1 0x40 MLOAD PUSH32 0x8C379A000000000000000000000000000000000000000000000000000000000 DUP2 MSTORE PUSH1 0x4 ADD PUSH2 0x3D9 SWAP1 PUSH2 0xE21 JUMP JUMPDEST PUSH1 0x40 MLOAD DUP1 SWAP2 SUB SWAP1 REVERT JUMPDEST PUSH2 0x3EB DUP2 PUSH2 0x46C JUMP JUMPDEST POP JUMP JUMPDEST PUSH2 0x3F6 PUSH2 0x530 JUMP JUMPDEST PUSH20 0xFFFFFFFFFFFFFFFFFFFFFFFFFFFFFFFFFFFFFFFF AND PUSH2 0x414 PUSH2 0x16F JUMP JUMPDEST PUSH20 0xFFFFFFFFFFFFFFFFFFFFFFFFFFFFFFFFFFFFFFFF AND EQ PUSH2 0x46A JUMPI PUSH1 0x40 MLOAD PUSH32 0x8C379A000000000000000000000000000000000000000000000000000000000 DUP2 MSTORE PUSH1 0x4 ADD PUSH2 0x461 SWAP1 PUSH2 0xE8D JUMP JUMPDEST PUSH1 0x40 MLOAD DUP1 SWAP2 SUB SWAP1 REVERT JUMPDEST JUMP JUMPDEST PUSH1 0x0 DUP1 PUSH1 0x0 SWAP1 SLOAD SWAP1 PUSH2 0x100 EXP SWAP1 DIV PUSH20 0xFFFFFFFFFFFFFFFFFFFFFFFFFFFFFFFFFFFFFFFF AND SWAP1 POP DUP2 PUSH1 0x0 DUP1 PUSH2 0x100 EXP DUP2 SLOAD DUP2 PUSH20 0xFFFFFFFFFFFFFFFFFFFFFFFFFFFFFFFFFFFFFFFF MUL NOT AND SWAP1 DUP4 PUSH20 0xFFFFFFFFFFFFFFFFFFFFFFFFFFFFFFFFFFFFFFFF AND MUL OR SWAP1 SSTORE POP DUP2 PUSH20 0xFFFFFFFFFFFFFFFFFFFFFFFFFFFFFFFFFFFFFFFF AND DUP2 PUSH20 0xFFFFFFFFFFFFFFFFFFFFFFFFFFFFFFFFFFFFFFFF AND PUSH32 0x8BE0079C531659141344CD1FD0A4F28419497F9722A3DAAFE3B4186F6B6457E0 PUSH1 0x40 MLOAD PUSH1 0x40 MLOAD DUP1 SWAP2 SUB SWAP1 LOG3 POP POP JUMP JUMPDEST PUSH1 0x0 CALLER SWAP1 POP SWAP1 JUMP JUMPDEST PUSH1 0x0 PUSH1 0x40 MLOAD SWAP1 POP SWAP1 JUMP JUMPDEST PUSH1 0x0 DUP1 REVERT JUMPDEST PUSH1 0x0 DUP1 REVERT JUMPDEST PUSH1 0x0 DUP1 REVERT JUMPDEST PUSH1 0x0 DUP1 REVERT JUMPDEST PUSH1 0x0 PUSH1 0x1F NOT PUSH1 0x1F DUP4 ADD AND SWAP1 POP SWAP2 SWAP1 POP JUMP JUMPDEST PUSH32 0x4E487B7100000000000000000000000000000000000000000000000000000000 PUSH1 0x0 MSTORE PUSH1 0x41 PUSH1 0x4 MSTORE PUSH1 0x24 PUSH1 0x0 REVERT JUMPDEST PUSH2 0x59F DUP3 PUSH2 0x556 JUMP JUMPDEST DUP2 ADD DUP2 DUP2 LT PUSH8 0xFFFFFFFFFFFFFFFF DUP3 GT OR ISZERO PUSH2 0x5BE JUMPI PUSH2 0x5BD PUSH2 0x567 JUMP JUMPDEST JUMPDEST DUP1 PUSH1 0x40 MSTORE POP POP POP JUMP JUMPDEST PUSH1 0x0 PUSH2 0x5D1 PUSH2 0x538 JUMP JUMPDEST SWAP1 POP PUSH2 0x5DD DUP3 DUP3 PUSH2 0x596 JUMP JUMPDEST SWAP2 SWAP1 POP JUMP JUMPDEST PUSH1 0x0 PUSH8 0xFFFFFFFFFFFFFFFF DUP3 GT ISZERO PUSH2 0x5FD JUMPI PUSH2 0x5FC PUSH2 0x567 JUMP JUMPDEST JUMPDEST PUSH2 0x606 DUP3 PUSH2 0x556 JUMP JUMPDEST SWAP1 POP PUSH1 0x20 DUP2 ADD SWAP1 POP SWAP2 SWAP1 POP JUMP JUMPDEST DUP3 DUP2 DUP4 CALLDATACOPY PUSH1 0x0 DUP4 DUP4 ADD MSTORE POP POP POP JUMP JUMPDEST PUSH1 0x0 PUSH2 0x635 PUSH2 0x630 DUP5 PUSH2 0x5E2 JUMP JUMPDEST PUSH2 0x5C7 JUMP JUMPDEST SWAP1 POP DUP3 DUP2 MSTORE PUSH1 0x20 DUP2 ADD DUP5 DUP5 DUP5 ADD GT ISZERO PUSH2 0x651 JUMPI PUSH2 0x650 PUSH2 0x551 JUMP JUMPDEST JUMPDEST PUSH2 0x65C DUP5 DUP3 DUP6 PUSH2 0x613 JUMP JUMPDEST POP SWAP4 SWAP3 POP POP POP JUMP JUMPDEST PUSH1 0x0 DUP3 PUSH1 0x1F DUP4 ADD SLT PUSH2 0x679 JUMPI PUSH2 0x678 PUSH2 0x54C JUMP JUMPDEST JUMPDEST DUP2 CALLDATALOAD PUSH2 0x689 DUP5 DUP3 PUSH1 0x20 DUP7 ADD PUSH2 0x622 JUMP JUMPDEST SWAP2 POP POP SWAP3 SWAP2 POP POP JUMP JUMPDEST PUSH1 0x0 PUSH20 0xFFFFFFFFFFFFFFFFFFFFFFFFFFFFFFFFFFFFFFFF DUP3 AND SWAP1 POP SWAP2 SWAP1 POP JUMP JUMPDEST PUSH1 0x0 PUSH2 0x6BD DUP3 PUSH2 0x692 JUMP JUMPDEST SWAP1 POP SWAP2 SWAP1 POP JUMP JUMPDEST PUSH2 0x6CD DUP2 PUSH2 0x6B2 JUMP JUMPDEST DUP2 EQ PUSH2 0x6D8 JUMPI PUSH1 0x0 DUP1 REVERT JUMPDEST POP JUMP JUMPDEST PUSH1 0x0 DUP2 CALLDATALOAD SWAP1 POP PUSH2 0x6EA DUP2 PUSH2 0x6C4 JUMP JUMPDEST SWAP3 SWAP2 POP POP JUMP JUMPDEST PUSH1 0x0 DUP1 PUSH1 0x0 PUSH1 0x60 DUP5 DUP7 SUB SLT ISZERO PUSH2 0x709 JUMPI PUSH2 0x708 PUSH2 0x542 JUMP JUMPDEST JUMPDEST PUSH1 0x0 DUP5 ADD CALLDATALOAD PUSH8 0xFFFFFFFFFFFFFFFF DUP2 GT ISZERO PUSH2 0x727 JUMPI PUSH2 0x726 PUSH2 0x547 JUMP JUMPDEST JUMPDEST PUSH2 0x733 DUP7 DUP3 DUP8 ADD PUSH2 0x664 JUMP JUMPDEST SWAP4 POP POP PUSH1 0x20 DUP5 ADD CALLDATALOAD PUSH8 0xFFFFFFFFFFFFFFFF DUP2 GT ISZERO PUSH2 0x754 JUMPI PUSH2 0x753 PUSH2 0x547 JUMP JUMPDEST JUMPDEST PUSH2 0x760 DUP7 DUP3 DUP8 ADD PUSH2 0x664 JUMP JUMPDEST SWAP3 POP POP PUSH1 0x40 PUSH2 0x771 DUP7 DUP3 DUP8 ADD PUSH2 0x6DB JUMP JUMPDEST SWAP2 POP POP SWAP3 POP SWAP3 POP SWAP3 JUMP JUMPDEST PUSH2 0x784 DUP2 PUSH2 0x6B2 JUMP JUMPDEST DUP3 MSTORE POP POP JUMP JUMPDEST PUSH1 0x0 PUSH1 0x20 DUP3 ADD SWAP1 POP PUSH2 0x79F PUSH1 0x0 DUP4 ADD DUP5 PUSH2 0x77B JUMP JUMPDEST SWAP3 SWAP2 POP POP JUMP JUMPDEST PUSH1 0x0 DUP2 SWAP1 POP SWAP2 SWAP1 POP JUMP JUMPDEST PUSH2 0x7B8 DUP2 PUSH2 0x7A5 JUMP JUMPDEST DUP3 MSTORE POP POP JUMP JUMPDEST PUSH1 0x0 DUP2 SWAP1 POP SWAP2 SWAP1 POP JUMP JUMPDEST PUSH2 0x7D1 DUP2 PUSH2 0x7BE JUMP JUMPDEST DUP3 MSTORE POP POP JUMP JUMPDEST PUSH1 0x0 DUP2 MLOAD SWAP1 POP SWAP2 SWAP1 POP JUMP JUMPDEST PUSH1 0x0 DUP3 DUP3 MSTORE PUSH1 0x20 DUP3 ADD SWAP1 POP SWAP3 SWAP2 POP POP JUMP JUMPDEST PUSH1 0x0 JUMPDEST DUP4 DUP2 LT ISZERO PUSH2 0x811 JUMPI DUP1 DUP3 ADD MLOAD DUP2 DUP5 ADD MSTORE PUSH1 0x20 DUP2 ADD SWAP1 POP PUSH2 0x7F6 JUMP JUMPDEST PUSH1 0x0 DUP5 DUP5 ADD MSTORE POP POP POP POP JUMP JUMPDEST PUSH1 0x0 PUSH2 0x828 DUP3 PUSH2 0x7D7 JUMP JUMPDEST PUSH2 0x832 DUP2 DUP6 PUSH2 0x7E2 JUMP JUMPDEST SWAP4 POP PUSH2 0x842 DUP2 DUP6 PUSH1 0x20 DUP7 ADD PUSH2 0x7F3 JUMP JUMPDEST PUSH2 0x84B DUP2 PUSH2 0x556 JUMP JUMPDEST DUP5 ADD SWAP2 POP POP SWAP3 SWAP2 POP POP JUMP JUMPDEST PUSH1 0x0 PUSH1 0x60 DUP3 ADD SWAP1 POP PUSH2 0x86B PUSH1 0x0 DUP4 ADD DUP7 PUSH2 0x7AF JUMP JUMPDEST PUSH2 0x878 PUSH1 0x20 DUP4 ADD DUP6 PUSH2 0x7C8 JUMP JUMPDEST DUP2 DUP2 SUB PUSH1 0x40 DUP4 ADD MSTORE PUSH2 0x88A DUP2 DUP5 PUSH2 0x81D JUMP JUMPDEST SWAP1 POP SWAP5 SWAP4 POP POP POP POP JUMP JUMPDEST PUSH1 0x0 PUSH1 0x20 DUP3 DUP5 SUB SLT ISZERO PUSH2 0x8AA JUMPI PUSH2 0x8A9 PUSH2 0x542 JUMP JUMPDEST JUMPDEST PUSH1 0x0 PUSH2 0x8B8 DUP5 DUP3 DUP6 ADD PUSH2 0x6DB JUMP JUMPDEST SWAP2 POP POP SWAP3 SWAP2 POP POP JUMP JUMPDEST PUSH1 0x0 DUP2 SWAP1 POP SWAP3 SWAP2 POP POP JUMP JUMPDEST PUSH1 0x0 PUSH2 0x8D7 DUP3 PUSH2 0x7D7 JUMP JUMPDEST PUSH2 0x8E1 DUP2 DUP6 PUSH2 0x8C1 JUMP JUMPDEST SWAP4 POP PUSH2 0x8F1 DUP2 DUP6 PUSH1 0x20 DUP7 ADD PUSH2 0x7F3 JUMP JUMPDEST DUP1 DUP5 ADD SWAP2 POP POP SWAP3 SWAP2 POP POP JUMP JUMPDEST PUSH32 0x2F00000000000000000000000000000000000000000000000000000000000000 DUP2 MSTORE POP JUMP JUMPDEST PUSH1 0x0 PUSH2 0x92F DUP3 DUP6 PUSH2 0x8CC JUMP JUMPDEST SWAP2 POP PUSH2 0x93A DUP3 PUSH2 0x8FD JUMP JUMPDEST PUSH1 0x1 DUP3 ADD SWAP2 POP PUSH2 0x94A DUP3 DUP5 PUSH2 0x8CC JUMP JUMPDEST SWAP2 POP DUP2 SWAP1 POP SWAP4 SWAP3 POP POP POP JUMP JUMPDEST PUSH32 0x4E487B7100000000000000000000000000000000000000000000000000000000 PUSH1 0x0 MSTORE PUSH1 0x22 PUSH1 0x4 MSTORE PUSH1 0x24 PUSH1 0x0 REVERT JUMPDEST PUSH1 0x0 PUSH1 0x2 DUP3 DIV SWAP1 POP PUSH1 0x1 DUP3 AND DUP1 PUSH2 0x99D JUMPI PUSH1 0x7F DUP3 AND SWAP2 POP JUMPDEST PUSH1 0x20 DUP3 LT DUP2 SUB PUSH2 0x9B0 JUMPI PUSH2 0x9AF PUSH2 0x956 JUMP JUMPDEST JUMPDEST POP SWAP2 SWAP1 POP JUMP JUMPDEST PUSH1 0x0 DUP2 SWAP1 POP DUP2 PUSH1 0x0 MSTORE PUSH1 0x20 PUSH1 0x0 KECCAK256 SWAP1 POP SWAP2 SWAP1 POP JUMP JUMPDEST PUSH1 0x0 PUSH1 0x20 PUSH1 0x1F DUP4 ADD DIV SWAP1 POP SWAP2 SWAP1 POP JUMP JUMPDEST PUSH1 0x0 DUP3 DUP3 SHL SWAP1 POP SWAP3 SWAP2 POP POP JUMP JUMPDEST PUSH1 0x0 PUSH1 0x8 DUP4 MUL PUSH2 0xA18 PUSH32 0xFFFFFFFFFFFFFFFFFFFFFFFFFFFFFFFFFFFFFFFFFFFFFFFFFFFFFFFFFFFFFFFF DUP3 PUSH2 0x9DB JUMP JUMPDEST PUSH2 0xA22 DUP7 DUP4 PUSH2 0x9DB JUMP JUMPDEST SWAP6 POP DUP1 NOT DUP5 AND SWAP4 POP DUP1 DUP7 AND DUP5 OR SWAP3 POP POP POP SWAP4 SWAP3 POP POP POP JUMP JUMPDEST PUSH1 0x0 DUP2 SWAP1 POP SWAP2 SWAP1 POP JUMP JUMPDEST PUSH1 0x0 PUSH2 0xA5F PUSH2 0xA5A PUSH2 0xA55 DUP5 PUSH2 0x7BE JUMP JUMPDEST PUSH2 0xA3A JUMP JUMPDEST PUSH2 0x7BE JUMP JUMPDEST SWAP1 POP SWAP2 SWAP1 POP JUMP JUMPDEST PUSH1 0x0 DUP2 SWAP1 POP SWAP2 SWAP1 POP JUMP JUMPDEST PUSH2 0xA79 DUP4 PUSH2 0xA44 JUMP JUMPDEST PUSH2 0xA8D PUSH2 0xA85 DUP3 PUSH2 0xA66 JUMP JUMPDEST DUP5 DUP5 SLOAD PUSH2 0x9E8 JUMP JUMPDEST DUP3 SSTORE POP POP POP POP JUMP JUMPDEST PUSH1 0x0 SWAP1 JUMP JUMPDEST PUSH2 0xAA2 PUSH2 0xA95 JUMP JUMPDEST PUSH2 0xAAD DUP2 DUP5 DUP5 PUSH2 0xA70 JUMP JUMPDEST POP POP POP JUMP JUMPDEST JUMPDEST DUP2 DUP2 LT ISZERO PUSH2 0xAD1 JUMPI PUSH2 0xAC6 PUSH1 0x0 DUP3 PUSH2 0xA9A JUMP JUMPDEST PUSH1 0x1 DUP2 ADD SWAP1 POP PUSH2 0xAB3 JUMP JUMPDEST POP POP JUMP JUMPDEST PUSH1 0x1F DUP3 GT ISZERO PUSH2 0xB16 JUMPI PUSH2 0xAE7 DUP2 PUSH2 0x9B6 JUMP JUMPDEST PUSH2 0xAF0 DUP5 PUSH2 0x9CB JUMP JUMPDEST DUP2 ADD PUSH1 0x20 DUP6 LT ISZERO PUSH2 0xAFF JUMPI DUP2 SWAP1 POP JUMPDEST PUSH2 0xB13 PUSH2 0xB0B DUP6 PUSH2 0x9CB JUMP JUMPDEST DUP4 ADD DUP3 PUSH2 0xAB2 JUMP JUMPDEST POP POP JUMPDEST POP POP POP JUMP JUMPDEST PUSH1 0x0 DUP3 DUP3 SHR SWAP1 POP SWAP3 SWAP2 POP POP JUMP JUMPDEST PUSH1 0x0 PUSH2 0xB39 PUSH1 0x0 NOT DUP5 PUSH1 0x8 MUL PUSH2 0xB1B JUMP JUMPDEST NOT DUP1 DUP4 AND SWAP2 POP POP SWAP3 SWAP2 POP POP JUMP JUMPDEST PUSH1 0x0 PUSH2 0xB52 DUP4 DUP4 PUSH2 0xB28 JUMP JUMPDEST SWAP2 POP DUP3 PUSH1 0x2 MUL DUP3 OR SWAP1 POP SWAP3 SWAP2 POP POP JUMP JUMPDEST PUSH2 0xB6B DUP3 PUSH2 0x7D7 JUMP JUMPDEST PUSH8 0xFFFFFFFFFFFFFFFF DUP2 GT ISZERO PUSH2 0xB84 JUMPI PUSH2 0xB83 PUSH2 0x567 JUMP JUMPDEST JUMPDEST PUSH2 0xB8E DUP3 SLOAD PUSH2 0x985 JUMP JUMPDEST PUSH2 0xB99 DUP3 DUP3 DUP6 PUSH2 0xAD5 JUMP JUMPDEST PUSH1 0x0 PUSH1 0x20 SWAP1 POP PUSH1 0x1F DUP4 GT PUSH1 0x1 DUP2 EQ PUSH2 0xBCC JUMPI PUSH1 0x0 DUP5 ISZERO PUSH2 0xBBA JUMPI DUP3 DUP8 ADD MLOAD SWAP1 POP JUMPDEST PUSH2 0xBC4 DUP6 DUP3 PUSH2 0xB46 JUMP JUMPDEST DUP7 SSTORE POP PUSH2 0xC2C JUMP JUMPDEST PUSH1 0x1F NOT DUP5 AND PUSH2 0xBDA DUP7 PUSH2 0x9B6 JUMP JUMPDEST PUSH1 0x0 JUMPDEST DUP3 DUP2 LT ISZERO PUSH2 0xC02 JUMPI DUP5 DUP10 ADD MLOAD DUP3 SSTORE PUSH1 0x1 DUP3 ADD SWAP2 POP PUSH1 0x20 DUP6 ADD SWAP5 POP PUSH1 0x20 DUP2 ADD SWAP1 POP PUSH2 0xBDD JUMP JUMPDEST DUP7 DUP4 LT ISZERO PUSH2 0xC1F JUMPI DUP5 DUP10 ADD MLOAD PUSH2 0xC1B PUSH1 0x1F DUP10 AND DUP3 PUSH2 0xB28 JUMP JUMPDEST DUP4 SSTORE POP JUMPDEST PUSH1 0x1 PUSH1 0x2 DUP9 MUL ADD DUP9 SSTORE POP POP POP JUMPDEST POP POP POP POP POP POP JUMP JUMPDEST PUSH1 0x0 PUSH10 0xFFFFFFFFFFFFFFFFFFFF DUP3 AND SWAP1 POP SWAP2 SWAP1 POP JUMP JUMPDEST PUSH2 0xC53 DUP2 PUSH2 0xC34 JUMP JUMPDEST DUP2 EQ PUSH2 0xC5E JUMPI PUSH1 0x0 DUP1 REVERT JUMPDEST POP JUMP JUMPDEST PUSH1 0x0 DUP2 MLOAD SWAP1 POP PUSH2 0xC70 DUP2 PUSH2 0xC4A JUMP JUMPDEST SWAP3 SWAP2 POP POP JUMP JUMPDEST PUSH2 0xC7F DUP2 PUSH2 0x7A5 JUMP JUMPDEST DUP2 EQ PUSH2 0xC8A JUMPI PUSH1 0x0 DUP1 REVERT JUMPDEST POP JUMP JUMPDEST PUSH1 0x0 DUP2 MLOAD SWAP1 POP PUSH2 0xC9C DUP2 PUSH2 0xC76 JUMP JUMPDEST SWAP3 SWAP2 POP POP JUMP JUMPDEST PUSH2 0xCAB DUP2 PUSH2 0x7BE JUMP JUMPDEST DUP2 EQ PUSH2 0xCB6 JUMPI PUSH1 0x0 DUP1 REVERT JUMPDEST POP JUMP JUMPDEST PUSH1 0x0 DUP2 MLOAD SWAP1 POP PUSH2 0xCC8 DUP2 PUSH2 0xCA2 JUMP JUMPDEST SWAP3 SWAP2 POP POP JUMP JUMPDEST PUSH1 0x0 DUP1 PUSH1 0x0 DUP1 PUSH1 0x0 PUSH1 0xA0 DUP7 DUP9 SUB SLT ISZERO PUSH2 0xCEA JUMPI PUSH2 0xCE9 PUSH2 0x542 JUMP JUMPDEST JUMPDEST PUSH1 0x0 PUSH2 0xCF8 DUP9 DUP3 DUP10 ADD PUSH2 0xC61 JUMP JUMPDEST SWAP6 POP POP PUSH1 0x20 PUSH2 0xD09 DUP9 DUP3 DUP10 ADD PUSH2 0xC8D JUMP JUMPDEST SWAP5 POP POP PUSH1 0x40 PUSH2 0xD1A DUP9 DUP3 DUP10 ADD PUSH2 0xCB9 JUMP JUMPDEST SWAP4 POP POP PUSH1 0x60 PUSH2 0xD2B DUP9 DUP3 DUP10 ADD PUSH2 0xCB9 JUMP JUMPDEST SWAP3 POP POP PUSH1 0x80 PUSH2 0xD3C DUP9 DUP3 DUP10 ADD PUSH2 0xC61 JUMP JUMPDEST SWAP2 POP POP SWAP3 SWAP6 POP SWAP3 SWAP6 SWAP1 SWAP4 POP JUMP JUMPDEST PUSH1 0x0 PUSH1 0xFF DUP3 AND SWAP1 POP SWAP2 SWAP1 POP JUMP JUMPDEST PUSH2 0xD5F DUP2 PUSH2 0xD49 JUMP JUMPDEST DUP2 EQ PUSH2 0xD6A JUMPI PUSH1 0x0 DUP1 REVERT JUMPDEST POP JUMP JUMPDEST PUSH1 0x0 DUP2 MLOAD SWAP1 POP PUSH2 0xD7C DUP2 PUSH2 0xD56 JUMP JUMPDEST SWAP3 SWAP2 POP POP JUMP JUMPDEST PUSH1 0x0 PUSH1 0x20 DUP3 DUP5 SUB SLT ISZERO PUSH2 0xD98 JUMPI PUSH2 0xD97 PUSH2 0x542 JUMP JUMPDEST JUMPDEST PUSH1 0x0 PUSH2 0xDA6 DUP5 DUP3 DUP6 ADD PUSH2 0xD6D JUMP JUMPDEST SWAP2 POP POP SWAP3 SWAP2 POP POP JUMP JUMPDEST PUSH32 0x4F776E61626C653A206E6577206F776E657220697320746865207A65726F2061 PUSH1 0x0 DUP3 ADD MSTORE PUSH32 0x6464726573730000000000000000000000000000000000000000000000000000 PUSH1 0x20 DUP3 ADD MSTORE POP JUMP JUMPDEST PUSH1 0x0 PUSH2 0xE0B PUSH1 0x26 DUP4 PUSH2 0x7E2 JUMP JUMPDEST SWAP2 POP PUSH2 0xE16 DUP3 PUSH2 0xDAF JUMP JUMPDEST PUSH1 0x40 DUP3 ADD SWAP1 POP SWAP2 SWAP1 POP JUMP JUMPDEST PUSH1 0x0 PUSH1 0x20 DUP3 ADD SWAP1 POP DUP2 DUP2 SUB PUSH1 0x0 DUP4 ADD MSTORE PUSH2 0xE3A DUP2 PUSH2 0xDFE JUMP JUMPDEST SWAP1 POP SWAP2 SWAP1 POP JUMP JUMPDEST PUSH32 0x4F776E61626C653A2063616C6C6572206973206E6F7420746865206F776E6572 PUSH1 0x0 DUP3 ADD MSTORE POP JUMP JUMPDEST PUSH1 0x0 PUSH2 0xE77 PUSH1 0x20 DUP4 PUSH2 0x7E2 JUMP JUMPDEST SWAP2 POP PUSH2 0xE82 DUP3 PUSH2 0xE41 JUMP JUMPDEST PUSH1 0x20 DUP3 ADD SWAP1 POP SWAP2 SWAP1 POP JUMP JUMPDEST PUSH1 0x0 PUSH1 0x20 DUP3 ADD SWAP1 POP DUP2 DUP2 SUB PUSH1 0x0 DUP4 ADD MSTORE PUSH2 0xEA6 DUP2 PUSH2 0xE6A JUMP JUMPDEST SWAP1 POP SWAP2 SWAP1 POP JUMP INVALID LOG2 PUSH5 0x6970667358 0x22 SLT KECCAK256 PUSH20 0xB6004C9C9B9DA7662007B40CFFB91228BDFEFA4 JUMPI 0xB5 GASPRICE PUSH17 0xCA27BFA50FFF0464736F6C634300081700 CALLER "
				},
				"gasEstimates": {
					"creation": {
						"codeDepositCost": "762200",
						"executionCost": "infinite",
						"totalCost": "infinite"
					},
					"external": {
						"changeAggregatorAddress(string,string,address)": "infinite",
						"getLatestRate()": "infinite",
						"owner()": "2544",
						"renounceOwnership()": "30398",
						"transferOwnership(address)": "30810"
					}
				},
				"methodIdentifiers": {
					"changeAggregatorAddress(string,string,address)": "082c4484",
					"getLatestRate()": "e1e7ff77",
					"owner()": "8da5cb5b",
					"renounceOwnership()": "715018a6",
					"transferOwnership(address)": "f2fde38b"
				}
			},
			"storageLayout": {
				"storage": [
					{
						"astId": 53,
						"contract": "ptrn_eco_system_dev_contracts/contracts_ready_for_prod/Copy_fakeAgregatorRate.sol:AgregatorRate",
						"label": "_owner",
						"offset": 0,
						"slot": "0",
						"type": "t_address"
					},
					{
						"astId": 189,
						"contract": "ptrn_eco_system_dev_contracts/contracts_ready_for_prod/Copy_fakeAgregatorRate.sol:AgregatorRate",
						"label": "priceFeed",
						"offset": 0,
						"slot": "1",
						"type": "t_contract(AggregatorV3Interface)45"
					},
					{
						"astId": 192,
						"contract": "ptrn_eco_system_dev_contracts/contracts_ready_for_prod/Copy_fakeAgregatorRate.sol:AgregatorRate",
						"label": "rate",
						"offset": 0,
						"slot": "2",
						"type": "t_string_storage"
					}
				],
				"types": {
					"t_address": {
						"encoding": "inplace",
						"label": "address",
						"numberOfBytes": "20"
					},
					"t_contract(AggregatorV3Interface)45": {
						"encoding": "inplace",
						"label": "contract AggregatorV3Interface",
						"numberOfBytes": "20"
					},
					"t_string_storage": {
						"encoding": "bytes",
						"label": "string",
						"numberOfBytes": "32"
					}
				}
			},
			"userdoc": {
				"kind": "user",
				"methods": {
					"changeAggregatorAddress(string,string,address)": {
						"notice": "Returns the latest price"
					}
				},
				"version": 1
			}
		}
	}
}