{
	"token_eco_system_dev_contracts/contracts_ready_for_prod/poolRateFeed.sol": {
		"RateFromPool": {
			"abi": [
				{
					"inputs": [
						{
							"internalType": "address",
							"name": "_poolConsumerInterfaceAddress",
							"type": "address"
						}
					],
					"stateMutability": "nonpayable",
					"type": "constructor"
				},
				{
					"inputs": [
						{
							"internalType": "address",
							"name": "_poolConsumerInterfaceAddress",
							"type": "address"
						}
					],
					"name": "addNewPoolFeed",
					"outputs": [],
					"stateMutability": "nonpayable",
					"type": "function"
				},
				{
					"inputs": [],
					"name": "poolRate",
					"outputs": [
						{
							"internalType": "uint256",
							"name": "",
							"type": "uint256"
						},
						{
							"internalType": "uint256",
							"name": "",
							"type": "uint256"
						},
						{
							"internalType": "string",
							"name": "",
							"type": "string"
						},
						{
							"internalType": "uint256",
							"name": "",
							"type": "uint256"
						}
					],
					"stateMutability": "nonpayable",
					"type": "function"
				}
			],
			"devdoc": {
				"kind": "dev",
				"methods": {},
				"version": 1
			},
			"evm": {
				"assembly": "    /* \"token_eco_system_dev_contracts/contracts_ready_for_prod/poolRateFeed.sol\":589:3020  contract RateFromPool {... */\n  mstore(0x40, 0x80)\n    /* \"token_eco_system_dev_contracts/contracts_ready_for_prod/poolRateFeed.sol\":738:887  constructor (address _poolConsumerInterfaceAddress){... */\n  callvalue\n  dup1\n  iszero\n  tag_1\n  jumpi\n  0x00\n  dup1\n  revert\ntag_1:\n  pop\n  mload(0x40)\n  sub(codesize, bytecodeSize)\n  dup1\n  bytecodeSize\n  dup4\n  codecopy\n  dup2\n  dup2\n  add\n  0x40\n  mstore\n  dup2\n  add\n  swap1\n  tag_2\n  swap2\n  swap1\n  tag_3\n  jump\t// in\ntag_2:\n    /* \"token_eco_system_dev_contracts/contracts_ready_for_prod/poolRateFeed.sol\":841:870  _poolConsumerInterfaceAddress */\n  dup1\n    /* \"token_eco_system_dev_contracts/contracts_ready_for_prod/poolRateFeed.sol\":799:811  poolConsumer */\n  0x00\n  dup1\n    /* \"token_eco_system_dev_contracts/contracts_ready_for_prod/poolRateFeed.sol\":799:880  poolConsumer = PoolInterface(... */\n  0x0100\n  exp\n  dup2\n  sload\n  dup2\n  0xffffffffffffffffffffffffffffffffffffffff\n  mul\n  not\n  and\n  swap1\n  dup4\n  0xffffffffffffffffffffffffffffffffffffffff\n  and\n  mul\n  or\n  swap1\n  sstore\n  pop\n    /* \"token_eco_system_dev_contracts/contracts_ready_for_prod/poolRateFeed.sol\":738:887  constructor (address _poolConsumerInterfaceAddress){... */\n  pop\n    /* \"token_eco_system_dev_contracts/contracts_ready_for_prod/poolRateFeed.sol\":589:3020  contract RateFromPool {... */\n  jump(tag_6)\n    /* \"#utility.yul\":88:205   */\ntag_8:\n    /* \"#utility.yul\":197:198   */\n  0x00\n    /* \"#utility.yul\":194:195   */\n  dup1\n    /* \"#utility.yul\":187:199   */\n  revert\n    /* \"#utility.yul\":334:460   */\ntag_10:\n    /* \"#utility.yul\":371:378   */\n  0x00\n    /* \"#utility.yul\":411:453   */\n  0xffffffffffffffffffffffffffffffffffffffff\n    /* \"#utility.yul\":404:409   */\n  dup3\n    /* \"#utility.yul\":400:454   */\n  and\n    /* \"#utility.yul\":389:454   */\n  swap1\n  pop\n    /* \"#utility.yul\":334:460   */\n  swap2\n  swap1\n  pop\n  jump\t// out\n    /* \"#utility.yul\":466:562   */\ntag_11:\n    /* \"#utility.yul\":503:510   */\n  0x00\n    /* \"#utility.yul\":532:556   */\n  tag_20\n    /* \"#utility.yul\":550:555   */\n  dup3\n    /* \"#utility.yul\":532:556   */\n  tag_10\n  jump\t// in\ntag_20:\n    /* \"#utility.yul\":521:556   */\n  swap1\n  pop\n    /* \"#utility.yul\":466:562   */\n  swap2\n  swap1\n  pop\n  jump\t// out\n    /* \"#utility.yul\":568:690   */\ntag_12:\n    /* \"#utility.yul\":641:665   */\n  tag_22\n    /* \"#utility.yul\":659:664   */\n  dup2\n    /* \"#utility.yul\":641:665   */\n  tag_11\n  jump\t// in\ntag_22:\n    /* \"#utility.yul\":634:639   */\n  dup2\n    /* \"#utility.yul\":631:666   */\n  eq\n    /* \"#utility.yul\":621:684   */\n  tag_23\n  jumpi\n    /* \"#utility.yul\":680:681   */\n  0x00\n    /* \"#utility.yul\":677:678   */\n  dup1\n    /* \"#utility.yul\":670:682   */\n  revert\n    /* \"#utility.yul\":621:684   */\ntag_23:\n    /* \"#utility.yul\":568:690   */\n  pop\n  jump\t// out\n    /* \"#utility.yul\":696:839   */\ntag_13:\n    /* \"#utility.yul\":753:758   */\n  0x00\n    /* \"#utility.yul\":784:790   */\n  dup2\n    /* \"#utility.yul\":778:791   */\n  mload\n    /* \"#utility.yul\":769:791   */\n  swap1\n  pop\n    /* \"#utility.yul\":800:833   */\n  tag_25\n    /* \"#utility.yul\":827:832   */\n  dup2\n    /* \"#utility.yul\":800:833   */\n  tag_12\n  jump\t// in\ntag_25:\n    /* \"#utility.yul\":696:839   */\n  swap3\n  swap2\n  pop\n  pop\n  jump\t// out\n    /* \"#utility.yul\":845:1196   */\ntag_3:\n    /* \"#utility.yul\":915:921   */\n  0x00\n    /* \"#utility.yul\":964:966   */\n  0x20\n    /* \"#utility.yul\":952:961   */\n  dup3\n    /* \"#utility.yul\":943:950   */\n  dup5\n    /* \"#utility.yul\":939:962   */\n  sub\n    /* \"#utility.yul\":935:967   */\n  slt\n    /* \"#utility.yul\":932:1051   */\n  iszero\n  tag_27\n  jumpi\n    /* \"#utility.yul\":970:1049   */\n  tag_28\n  tag_8\n  jump\t// in\ntag_28:\n    /* \"#utility.yul\":932:1051   */\ntag_27:\n    /* \"#utility.yul\":1090:1091   */\n  0x00\n    /* \"#utility.yul\":1115:1179   */\n  tag_29\n    /* \"#utility.yul\":1171:1178   */\n  dup5\n    /* \"#utility.yul\":1162:1168   */\n  dup3\n    /* \"#utility.yul\":1151:1160   */\n  dup6\n    /* \"#utility.yul\":1147:1169   */\n  add\n    /* \"#utility.yul\":1115:1179   */\n  tag_13\n  jump\t// in\ntag_29:\n    /* \"#utility.yul\":1105:1179   */\n  swap2\n  pop\n    /* \"#utility.yul\":1061:1189   */\n  pop\n    /* \"#utility.yul\":845:1196   */\n  swap3\n  swap2\n  pop\n  pop\n  jump\t// out\n    /* \"token_eco_system_dev_contracts/contracts_ready_for_prod/poolRateFeed.sol\":589:3020  contract RateFromPool {... */\ntag_6:\n  dataSize(sub_0)\n  dup1\n  dataOffset(sub_0)\n  0x00\n  codecopy\n  0x00\n  return\nstop\n\nsub_0: assembly {\n        /* \"token_eco_system_dev_contracts/contracts_ready_for_prod/poolRateFeed.sol\":589:3020  contract RateFromPool {... */\n      mstore(0x40, 0x80)\n      callvalue\n      dup1\n      iszero\n      tag_1\n      jumpi\n      0x00\n      dup1\n      revert\n    tag_1:\n      pop\n      jumpi(tag_2, lt(calldatasize, 0x04))\n      shr(0xe0, calldataload(0x00))\n      dup1\n      0x24f16f20\n      eq\n      tag_3\n      jumpi\n      dup1\n      0x85096edc\n      eq\n      tag_4\n      jumpi\n    tag_2:\n      0x00\n      dup1\n      revert\n        /* \"token_eco_system_dev_contracts/contracts_ready_for_prod/poolRateFeed.sol\":893:1069  function addNewPoolFeed(address _poolConsumerInterfaceAddress)... */\n    tag_3:\n      tag_5\n      0x04\n      dup1\n      calldatasize\n      sub\n      dup2\n      add\n      swap1\n      tag_6\n      swap2\n      swap1\n      tag_7\n      jump\t// in\n    tag_6:\n      tag_8\n      jump\t// in\n    tag_5:\n      stop\n        /* \"token_eco_system_dev_contracts/contracts_ready_for_prod/poolRateFeed.sol\":1076:1992  function poolRate() public returns (uint256, uint256, string memory, uint256) {... */\n    tag_4:\n      tag_9\n      tag_10\n      jump\t// in\n    tag_9:\n      mload(0x40)\n      tag_11\n      swap5\n      swap4\n      swap3\n      swap2\n      swap1\n      tag_12\n      jump\t// in\n    tag_11:\n      mload(0x40)\n      dup1\n      swap2\n      sub\n      swap1\n      return\n        /* \"token_eco_system_dev_contracts/contracts_ready_for_prod/poolRateFeed.sol\":893:1069  function addNewPoolFeed(address _poolConsumerInterfaceAddress)... */\n    tag_8:\n        /* \"token_eco_system_dev_contracts/contracts_ready_for_prod/poolRateFeed.sol\":1023:1052  _poolConsumerInterfaceAddress */\n      dup1\n        /* \"token_eco_system_dev_contracts/contracts_ready_for_prod/poolRateFeed.sol\":981:993  poolConsumer */\n      0x00\n      dup1\n        /* \"token_eco_system_dev_contracts/contracts_ready_for_prod/poolRateFeed.sol\":981:1062  poolConsumer = PoolInterface(... */\n      0x0100\n      exp\n      dup2\n      sload\n      dup2\n      0xffffffffffffffffffffffffffffffffffffffff\n      mul\n      not\n      and\n      swap1\n      dup4\n      0xffffffffffffffffffffffffffffffffffffffff\n      and\n      mul\n      or\n      swap1\n      sstore\n      pop\n        /* \"token_eco_system_dev_contracts/contracts_ready_for_prod/poolRateFeed.sol\":893:1069  function addNewPoolFeed(address _poolConsumerInterfaceAddress)... */\n      pop\n      jump\t// out\n        /* \"token_eco_system_dev_contracts/contracts_ready_for_prod/poolRateFeed.sol\":1076:1992  function poolRate() public returns (uint256, uint256, string memory, uint256) {... */\n    tag_10:\n        /* \"token_eco_system_dev_contracts/contracts_ready_for_prod/poolRateFeed.sol\":1112:1119  uint256 */\n      0x00\n        /* \"token_eco_system_dev_contracts/contracts_ready_for_prod/poolRateFeed.sol\":1121:1128  uint256 */\n      dup1\n        /* \"token_eco_system_dev_contracts/contracts_ready_for_prod/poolRateFeed.sol\":1130:1143  string memory */\n      0x60\n        /* \"token_eco_system_dev_contracts/contracts_ready_for_prod/poolRateFeed.sol\":1145:1152  uint256 */\n      0x00\n        /* \"token_eco_system_dev_contracts/contracts_ready_for_prod/poolRateFeed.sol\":1165:1181  uint256 tokenOne */\n      dup1\n        /* \"token_eco_system_dev_contracts/contracts_ready_for_prod/poolRateFeed.sol\":1183:1199  uint256 tokenTwo */\n      0x00\n        /* \"token_eco_system_dev_contracts/contracts_ready_for_prod/poolRateFeed.sol\":1201:1212  uint32 date */\n      dup1\n        /* \"token_eco_system_dev_contracts/contracts_ready_for_prod/poolRateFeed.sol\":1216:1228  poolConsumer */\n      0x00\n      dup1\n      sload\n      swap1\n      0x0100\n      exp\n      swap1\n      div\n      0xffffffffffffffffffffffffffffffffffffffff\n      and\n        /* \"token_eco_system_dev_contracts/contracts_ready_for_prod/poolRateFeed.sol\":1216:1240  poolConsumer.getReserves */\n      0xffffffffffffffffffffffffffffffffffffffff\n      and\n      0x0902f1ac\n        /* \"token_eco_system_dev_contracts/contracts_ready_for_prod/poolRateFeed.sol\":1216:1242  poolConsumer.getReserves() */\n      mload(0x40)\n      dup2\n      0xffffffff\n      and\n      0xe0\n      shl\n      dup2\n      mstore\n      0x04\n      add\n      0x60\n      mload(0x40)\n      dup1\n      dup4\n      sub\n      dup2\n      0x00\n      dup8\n      gas\n      call\n      iszero\n      dup1\n      iszero\n      tag_16\n      jumpi\n      returndatasize\n      0x00\n      dup1\n      returndatacopy\n      revert(0x00, returndatasize)\n    tag_16:\n      pop\n      pop\n      pop\n      pop\n      mload(0x40)\n      returndatasize\n      not(0x1f)\n      0x1f\n      dup3\n      add\n      and\n      dup3\n      add\n      dup1\n      0x40\n      mstore\n      pop\n      dup2\n      add\n      swap1\n      tag_17\n      swap2\n      swap1\n      tag_18\n      jump\t// in\n    tag_17:\n        /* \"token_eco_system_dev_contracts/contracts_ready_for_prod/poolRateFeed.sol\":1164:1242  (uint256 tokenOne, uint256 tokenTwo, uint32 date) = poolConsumer.getReserves() */\n      swap3\n      pop\n      0xffffffffffffffffffffffffffff\n      and\n      swap3\n      pop\n      0xffffffffffffffffffffffffffff\n      and\n      swap3\n      pop\n        /* \"token_eco_system_dev_contracts/contracts_ready_for_prod/poolRateFeed.sol\":1252:1275  address tokenOneAddress */\n      0x00\n        /* \"token_eco_system_dev_contracts/contracts_ready_for_prod/poolRateFeed.sol\":1278:1290  poolConsumer */\n      dup1\n      0x00\n      swap1\n      sload\n      swap1\n      0x0100\n      exp\n      swap1\n      div\n      0xffffffffffffffffffffffffffffffffffffffff\n      and\n        /* \"token_eco_system_dev_contracts/contracts_ready_for_prod/poolRateFeed.sol\":1278:1297  poolConsumer.token0 */\n      0xffffffffffffffffffffffffffffffffffffffff\n      and\n      0x0dfe1681\n        /* \"token_eco_system_dev_contracts/contracts_ready_for_prod/poolRateFeed.sol\":1278:1299  poolConsumer.token0() */\n      mload(0x40)\n      dup2\n      0xffffffff\n      and\n      0xe0\n      shl\n      dup2\n      mstore\n      0x04\n      add\n      0x20\n      mload(0x40)\n      dup1\n      dup4\n      sub\n      dup2\n      0x00\n      dup8\n      gas\n      call\n      iszero\n      dup1\n      iszero\n      tag_20\n      jumpi\n      returndatasize\n      0x00\n      dup1\n      returndatacopy\n      revert(0x00, returndatasize)\n    tag_20:\n      pop\n      pop\n      pop\n      pop\n      mload(0x40)\n      returndatasize\n      not(0x1f)\n      0x1f\n      dup3\n      add\n      and\n      dup3\n      add\n      dup1\n      0x40\n      mstore\n      pop\n      dup2\n      add\n      swap1\n      tag_21\n      swap2\n      swap1\n      tag_22\n      jump\t// in\n    tag_21:\n        /* \"token_eco_system_dev_contracts/contracts_ready_for_prod/poolRateFeed.sol\":1252:1299  address tokenOneAddress = poolConsumer.token0() */\n      swap1\n      pop\n        /* \"token_eco_system_dev_contracts/contracts_ready_for_prod/poolRateFeed.sol\":1309:1332  address tokenTwoAddress */\n      0x00\n        /* \"token_eco_system_dev_contracts/contracts_ready_for_prod/poolRateFeed.sol\":1335:1347  poolConsumer */\n      dup1\n      0x00\n      swap1\n      sload\n      swap1\n      0x0100\n      exp\n      swap1\n      div\n      0xffffffffffffffffffffffffffffffffffffffff\n      and\n        /* \"token_eco_system_dev_contracts/contracts_ready_for_prod/poolRateFeed.sol\":1335:1354  poolConsumer.token1 */\n      0xffffffffffffffffffffffffffffffffffffffff\n      and\n      0xd21220a7\n        /* \"token_eco_system_dev_contracts/contracts_ready_for_prod/poolRateFeed.sol\":1335:1356  poolConsumer.token1() */\n      mload(0x40)\n      dup2\n      0xffffffff\n      and\n      0xe0\n      shl\n      dup2\n      mstore\n      0x04\n      add\n      0x20\n      mload(0x40)\n      dup1\n      dup4\n      sub\n      dup2\n      0x00\n      dup8\n      gas\n      call\n      iszero\n      dup1\n      iszero\n      tag_24\n      jumpi\n      returndatasize\n      0x00\n      dup1\n      returndatacopy\n      revert(0x00, returndatasize)\n    tag_24:\n      pop\n      pop\n      pop\n      pop\n      mload(0x40)\n      returndatasize\n      not(0x1f)\n      0x1f\n      dup3\n      add\n      and\n      dup3\n      add\n      dup1\n      0x40\n      mstore\n      pop\n      dup2\n      add\n      swap1\n      tag_25\n      swap2\n      swap1\n      tag_22\n      jump\t// in\n    tag_25:\n        /* \"token_eco_system_dev_contracts/contracts_ready_for_prod/poolRateFeed.sol\":1309:1356  address tokenTwoAddress = poolConsumer.token1() */\n      swap1\n      pop\n        /* \"token_eco_system_dev_contracts/contracts_ready_for_prod/poolRateFeed.sol\":1457:1472  tokenOneAddress */\n      dup2\n        /* \"token_eco_system_dev_contracts/contracts_ready_for_prod/poolRateFeed.sol\":1417:1436  decimalsConsumerOne */\n      0x01\n      0x00\n        /* \"token_eco_system_dev_contracts/contracts_ready_for_prod/poolRateFeed.sol\":1417:1473  decimalsConsumerOne = DecimalsInterface(tokenOneAddress) */\n      0x0100\n      exp\n      dup2\n      sload\n      dup2\n      0xffffffffffffffffffffffffffffffffffffffff\n      mul\n      not\n      and\n      swap1\n      dup4\n      0xffffffffffffffffffffffffffffffffffffffff\n      and\n      mul\n      or\n      swap1\n      sstore\n      pop\n        /* \"token_eco_system_dev_contracts/contracts_ready_for_prod/poolRateFeed.sol\":1523:1538  tokenTwoAddress */\n      dup1\n        /* \"token_eco_system_dev_contracts/contracts_ready_for_prod/poolRateFeed.sol\":1483:1502  decimalsConsumerTwo */\n      0x02\n      0x00\n        /* \"token_eco_system_dev_contracts/contracts_ready_for_prod/poolRateFeed.sol\":1483:1539  decimalsConsumerTwo = DecimalsInterface(tokenTwoAddress) */\n      0x0100\n      exp\n      dup2\n      sload\n      dup2\n      0xffffffffffffffffffffffffffffffffffffffff\n      mul\n      not\n      and\n      swap1\n      dup4\n      0xffffffffffffffffffffffffffffffffffffffff\n      and\n      mul\n      or\n      swap1\n      sstore\n      pop\n        /* \"token_eco_system_dev_contracts/contracts_ready_for_prod/poolRateFeed.sol\":1549:1568  uint256 decimalsOne */\n      0x00\n        /* \"token_eco_system_dev_contracts/contracts_ready_for_prod/poolRateFeed.sol\":1571:1590  decimalsConsumerOne */\n      0x01\n      0x00\n      swap1\n      sload\n      swap1\n      0x0100\n      exp\n      swap1\n      div\n      0xffffffffffffffffffffffffffffffffffffffff\n      and\n        /* \"token_eco_system_dev_contracts/contracts_ready_for_prod/poolRateFeed.sol\":1571:1599  decimalsConsumerOne.decimals */\n      0xffffffffffffffffffffffffffffffffffffffff\n      and\n      0x313ce567\n        /* \"token_eco_system_dev_contracts/contracts_ready_for_prod/poolRateFeed.sol\":1571:1601  decimalsConsumerOne.decimals() */\n      mload(0x40)\n      dup2\n      0xffffffff\n      and\n      0xe0\n      shl\n      dup2\n      mstore\n      0x04\n      add\n      0x20\n      mload(0x40)\n      dup1\n      dup4\n      sub\n      dup2\n      0x00\n      dup8\n      gas\n      call\n      iszero\n      dup1\n      iszero\n      tag_27\n      jumpi\n      returndatasize\n      0x00\n      dup1\n      returndatacopy\n      revert(0x00, returndatasize)\n    tag_27:\n      pop\n      pop\n      pop\n      pop\n      mload(0x40)\n      returndatasize\n      not(0x1f)\n      0x1f\n      dup3\n      add\n      and\n      dup3\n      add\n      dup1\n      0x40\n      mstore\n      pop\n      dup2\n      add\n      swap1\n      tag_28\n      swap2\n      swap1\n      tag_29\n      jump\t// in\n    tag_28:\n        /* \"token_eco_system_dev_contracts/contracts_ready_for_prod/poolRateFeed.sol\":1549:1601  uint256 decimalsOne = decimalsConsumerOne.decimals() */\n      0xff\n      and\n      swap1\n      pop\n        /* \"token_eco_system_dev_contracts/contracts_ready_for_prod/poolRateFeed.sol\":1611:1630  uint256 decimalsTwo */\n      0x00\n        /* \"token_eco_system_dev_contracts/contracts_ready_for_prod/poolRateFeed.sol\":1633:1652  decimalsConsumerTwo */\n      0x02\n      0x00\n      swap1\n      sload\n      swap1\n      0x0100\n      exp\n      swap1\n      div\n      0xffffffffffffffffffffffffffffffffffffffff\n      and\n        /* \"token_eco_system_dev_contracts/contracts_ready_for_prod/poolRateFeed.sol\":1633:1661  decimalsConsumerTwo.decimals */\n      0xffffffffffffffffffffffffffffffffffffffff\n      and\n      0x313ce567\n        /* \"token_eco_system_dev_contracts/contracts_ready_for_prod/poolRateFeed.sol\":1633:1663  decimalsConsumerTwo.decimals() */\n      mload(0x40)\n      dup2\n      0xffffffff\n      and\n      0xe0\n      shl\n      dup2\n      mstore\n      0x04\n      add\n      0x20\n      mload(0x40)\n      dup1\n      dup4\n      sub\n      dup2\n      0x00\n      dup8\n      gas\n      call\n      iszero\n      dup1\n      iszero\n      tag_31\n      jumpi\n      returndatasize\n      0x00\n      dup1\n      returndatacopy\n      revert(0x00, returndatasize)\n    tag_31:\n      pop\n      pop\n      pop\n      pop\n      mload(0x40)\n      returndatasize\n      not(0x1f)\n      0x1f\n      dup3\n      add\n      and\n      dup3\n      add\n      dup1\n      0x40\n      mstore\n      pop\n      dup2\n      add\n      swap1\n      tag_32\n      swap2\n      swap1\n      tag_29\n      jump\t// in\n    tag_32:\n        /* \"token_eco_system_dev_contracts/contracts_ready_for_prod/poolRateFeed.sol\":1611:1663  uint256 decimalsTwo = decimalsConsumerTwo.decimals() */\n      0xff\n      and\n      swap1\n      pop\n        /* \"token_eco_system_dev_contracts/contracts_ready_for_prod/poolRateFeed.sol\":1673:1694  string memory nameOne */\n      0x00\n        /* \"token_eco_system_dev_contracts/contracts_ready_for_prod/poolRateFeed.sol\":1697:1716  decimalsConsumerOne */\n      0x01\n      0x00\n      swap1\n      sload\n      swap1\n      0x0100\n      exp\n      swap1\n      div\n      0xffffffffffffffffffffffffffffffffffffffff\n      and\n        /* \"token_eco_system_dev_contracts/contracts_ready_for_prod/poolRateFeed.sol\":1697:1721  decimalsConsumerOne.name */\n      0xffffffffffffffffffffffffffffffffffffffff\n      and\n      0x06fdde03\n        /* \"token_eco_system_dev_contracts/contracts_ready_for_prod/poolRateFeed.sol\":1697:1723  decimalsConsumerOne.name() */\n      mload(0x40)\n      dup2\n      0xffffffff\n      and\n      0xe0\n      shl\n      dup2\n      mstore\n      0x04\n      add\n      0x00\n      mload(0x40)\n      dup1\n      dup4\n      sub\n      dup2\n      0x00\n      dup8\n      gas\n      call\n      iszero\n      dup1\n      iszero\n      tag_34\n      jumpi\n      returndatasize\n      0x00\n      dup1\n      returndatacopy\n      revert(0x00, returndatasize)\n    tag_34:\n      pop\n      pop\n      pop\n      pop\n      mload(0x40)\n      returndatasize\n      0x00\n      dup3\n      returndatacopy\n      returndatasize\n      not(0x1f)\n      0x1f\n      dup3\n      add\n      and\n      dup3\n      add\n      dup1\n      0x40\n      mstore\n      pop\n      dup2\n      add\n      swap1\n      tag_35\n      swap2\n      swap1\n      tag_36\n      jump\t// in\n    tag_35:\n        /* \"token_eco_system_dev_contracts/contracts_ready_for_prod/poolRateFeed.sol\":1673:1723  string memory nameOne = decimalsConsumerOne.name() */\n      swap1\n      pop\n        /* \"token_eco_system_dev_contracts/contracts_ready_for_prod/poolRateFeed.sol\":1733:1754  string memory nameTwo */\n      0x00\n        /* \"token_eco_system_dev_contracts/contracts_ready_for_prod/poolRateFeed.sol\":1757:1776  decimalsConsumerTwo */\n      0x02\n      0x00\n      swap1\n      sload\n      swap1\n      0x0100\n      exp\n      swap1\n      div\n      0xffffffffffffffffffffffffffffffffffffffff\n      and\n        /* \"token_eco_system_dev_contracts/contracts_ready_for_prod/poolRateFeed.sol\":1757:1781  decimalsConsumerTwo.name */\n      0xffffffffffffffffffffffffffffffffffffffff\n      and\n      0x06fdde03\n        /* \"token_eco_system_dev_contracts/contracts_ready_for_prod/poolRateFeed.sol\":1757:1783  decimalsConsumerTwo.name() */\n      mload(0x40)\n      dup2\n      0xffffffff\n      and\n      0xe0\n      shl\n      dup2\n      mstore\n      0x04\n      add\n      0x00\n      mload(0x40)\n      dup1\n      dup4\n      sub\n      dup2\n      0x00\n      dup8\n      gas\n      call\n      iszero\n      dup1\n      iszero\n      tag_38\n      jumpi\n      returndatasize\n      0x00\n      dup1\n      returndatacopy\n      revert(0x00, returndatasize)\n    tag_38:\n      pop\n      pop\n      pop\n      pop\n      mload(0x40)\n      returndatasize\n      0x00\n      dup3\n      returndatacopy\n      returndatasize\n      not(0x1f)\n      0x1f\n      dup3\n      add\n      and\n      dup3\n      add\n      dup1\n      0x40\n      mstore\n      pop\n      dup2\n      add\n      swap1\n      tag_39\n      swap2\n      swap1\n      tag_36\n      jump\t// in\n    tag_39:\n        /* \"token_eco_system_dev_contracts/contracts_ready_for_prod/poolRateFeed.sol\":1733:1783  string memory nameTwo = decimalsConsumerTwo.name() */\n      swap1\n      pop\n        /* \"token_eco_system_dev_contracts/contracts_ready_for_prod/poolRateFeed.sol\":1803:1984  calculatePoolRate(... */\n      tag_40\n        /* \"token_eco_system_dev_contracts/contracts_ready_for_prod/poolRateFeed.sol\":1834:1842  tokenOne */\n      dup10\n        /* \"token_eco_system_dev_contracts/contracts_ready_for_prod/poolRateFeed.sol\":1856:1867  decimalsOne */\n      dup6\n        /* \"token_eco_system_dev_contracts/contracts_ready_for_prod/poolRateFeed.sol\":1881:1888  nameOne */\n      dup5\n        /* \"token_eco_system_dev_contracts/contracts_ready_for_prod/poolRateFeed.sol\":1902:1910  tokenTwo */\n      dup12\n        /* \"token_eco_system_dev_contracts/contracts_ready_for_prod/poolRateFeed.sol\":1924:1935  decimalsTwo */\n      dup8\n        /* \"token_eco_system_dev_contracts/contracts_ready_for_prod/poolRateFeed.sol\":1949:1956  nameTwo */\n      dup7\n        /* \"token_eco_system_dev_contracts/contracts_ready_for_prod/poolRateFeed.sol\":1970:1974  date */\n      dup14\n        /* \"token_eco_system_dev_contracts/contracts_ready_for_prod/poolRateFeed.sol\":1803:1820  calculatePoolRate */\n      tag_41\n        /* \"token_eco_system_dev_contracts/contracts_ready_for_prod/poolRateFeed.sol\":1803:1984  calculatePoolRate(... */\n      jump\t// in\n    tag_40:\n        /* \"token_eco_system_dev_contracts/contracts_ready_for_prod/poolRateFeed.sol\":1796:1984  return calculatePoolRate(... */\n      swap13\n      pop\n      swap13\n      pop\n      swap13\n      pop\n      swap13\n      pop\n      pop\n      pop\n      pop\n      pop\n      pop\n      pop\n      pop\n      pop\n      pop\n        /* \"token_eco_system_dev_contracts/contracts_ready_for_prod/poolRateFeed.sol\":1076:1992  function poolRate() public returns (uint256, uint256, string memory, uint256) {... */\n      swap1\n      swap2\n      swap3\n      swap4\n      jump\t// out\n        /* \"token_eco_system_dev_contracts/contracts_ready_for_prod/poolRateFeed.sol\":1998:3018  function calculatePoolRate(... */\n    tag_41:\n        /* \"token_eco_system_dev_contracts/contracts_ready_for_prod/poolRateFeed.sol\":2256:2263  uint256 */\n      0x00\n        /* \"token_eco_system_dev_contracts/contracts_ready_for_prod/poolRateFeed.sol\":2265:2272  uint256 */\n      dup1\n        /* \"token_eco_system_dev_contracts/contracts_ready_for_prod/poolRateFeed.sol\":2274:2287  string memory */\n      0x60\n        /* \"token_eco_system_dev_contracts/contracts_ready_for_prod/poolRateFeed.sol\":2289:2296  uint256 */\n      0x00\n        /* \"token_eco_system_dev_contracts/contracts_ready_for_prod/poolRateFeed.sol\":2345:2346  0 */\n      dup1\n        /* \"token_eco_system_dev_contracts/contracts_ready_for_prod/poolRateFeed.sol\":2322:2334  tokenOneName */\n      dup10\n        /* \"token_eco_system_dev_contracts/contracts_ready_for_prod/poolRateFeed.sol\":2316:2342  bytes(tokenOneName).length */\n      mload\n        /* \"token_eco_system_dev_contracts/contracts_ready_for_prod/poolRateFeed.sol\":2316:2346  bytes(tokenOneName).length > 0 */\n      gt\n        /* \"token_eco_system_dev_contracts/contracts_ready_for_prod/poolRateFeed.sol\":2316:2380  bytes(tokenOneName).length > 0 && bytes(tokenTwoName).length > 0 */\n      dup1\n      iszero\n      tag_43\n      jumpi\n      pop\n        /* \"token_eco_system_dev_contracts/contracts_ready_for_prod/poolRateFeed.sol\":2379:2380  0 */\n      0x00\n        /* \"token_eco_system_dev_contracts/contracts_ready_for_prod/poolRateFeed.sol\":2356:2368  tokenTwoName */\n      dup7\n        /* \"token_eco_system_dev_contracts/contracts_ready_for_prod/poolRateFeed.sol\":2350:2376  bytes(tokenTwoName).length */\n      mload\n        /* \"token_eco_system_dev_contracts/contracts_ready_for_prod/poolRateFeed.sol\":2350:2380  bytes(tokenTwoName).length > 0 */\n      gt\n        /* \"token_eco_system_dev_contracts/contracts_ready_for_prod/poolRateFeed.sol\":2316:2380  bytes(tokenOneName).length > 0 && bytes(tokenTwoName).length > 0 */\n    tag_43:\n        /* \"token_eco_system_dev_contracts/contracts_ready_for_prod/poolRateFeed.sol\":2308:2414  require(bytes(tokenOneName).length > 0 && bytes(tokenTwoName).length > 0, \"Missing input for token name!\") */\n      tag_44\n      jumpi\n      mload(0x40)\n      0x08c379a000000000000000000000000000000000000000000000000000000000\n      dup2\n      mstore\n      0x04\n      add\n      tag_45\n      swap1\n      tag_46\n      jump\t// in\n    tag_45:\n      mload(0x40)\n      dup1\n      swap2\n      sub\n      swap1\n      revert\n    tag_44:\n        /* \"token_eco_system_dev_contracts/contracts_ready_for_prod/poolRateFeed.sol\":2446:2448  18 */\n      0x12\n        /* \"token_eco_system_dev_contracts/contracts_ready_for_prod/poolRateFeed.sol\":2432:2442  decimalOne */\n      dup11\n        /* \"token_eco_system_dev_contracts/contracts_ready_for_prod/poolRateFeed.sol\":2432:2448  decimalOne <= 18 */\n      gt\n      iszero\n        /* \"token_eco_system_dev_contracts/contracts_ready_for_prod/poolRateFeed.sol\":2432:2468  decimalOne <= 18 && decimalTwo <= 18 */\n      dup1\n      iszero\n      tag_47\n      jumpi\n      pop\n        /* \"token_eco_system_dev_contracts/contracts_ready_for_prod/poolRateFeed.sol\":2466:2468  18 */\n      0x12\n        /* \"token_eco_system_dev_contracts/contracts_ready_for_prod/poolRateFeed.sol\":2452:2462  decimalTwo */\n      dup8\n        /* \"token_eco_system_dev_contracts/contracts_ready_for_prod/poolRateFeed.sol\":2452:2468  decimalTwo <= 18 */\n      gt\n      iszero\n        /* \"token_eco_system_dev_contracts/contracts_ready_for_prod/poolRateFeed.sol\":2432:2468  decimalOne <= 18 && decimalTwo <= 18 */\n    tag_47:\n        /* \"token_eco_system_dev_contracts/contracts_ready_for_prod/poolRateFeed.sol\":2424:2516  require(decimalOne <= 18 && decimalTwo <= 18, \"Decimals should be less than or equal to 18\") */\n      tag_48\n      jumpi\n      mload(0x40)\n      0x08c379a000000000000000000000000000000000000000000000000000000000\n      dup2\n      mstore\n      0x04\n      add\n      tag_49\n      swap1\n      tag_50\n      jump\t// in\n    tag_49:\n      mload(0x40)\n      dup1\n      swap2\n      sub\n      swap1\n      revert\n    tag_48:\n        /* \"token_eco_system_dev_contracts/contracts_ready_for_prod/poolRateFeed.sol\":2547:2548  0 */\n      0x00\n        /* \"token_eco_system_dev_contracts/contracts_ready_for_prod/poolRateFeed.sol\":2534:2544  decimalOne */\n      dup11\n        /* \"token_eco_system_dev_contracts/contracts_ready_for_prod/poolRateFeed.sol\":2534:2548  decimalOne > 0 */\n      gt\n        /* \"token_eco_system_dev_contracts/contracts_ready_for_prod/poolRateFeed.sol\":2534:2566  decimalOne > 0 && decimalTwo > 0 */\n      dup1\n      iszero\n      tag_51\n      jumpi\n      pop\n        /* \"token_eco_system_dev_contracts/contracts_ready_for_prod/poolRateFeed.sol\":2565:2566  0 */\n      0x00\n        /* \"token_eco_system_dev_contracts/contracts_ready_for_prod/poolRateFeed.sol\":2552:2562  decimalTwo */\n      dup8\n        /* \"token_eco_system_dev_contracts/contracts_ready_for_prod/poolRateFeed.sol\":2552:2566  decimalTwo > 0 */\n      gt\n        /* \"token_eco_system_dev_contracts/contracts_ready_for_prod/poolRateFeed.sol\":2534:2566  decimalOne > 0 && decimalTwo > 0 */\n    tag_51:\n        /* \"token_eco_system_dev_contracts/contracts_ready_for_prod/poolRateFeed.sol\":2526:2604  require(decimalOne > 0 && decimalTwo > 0, \"Decimals should be greater than 0\") */\n      tag_52\n      jumpi\n      mload(0x40)\n      0x08c379a000000000000000000000000000000000000000000000000000000000\n      dup2\n      mstore\n      0x04\n      add\n      tag_53\n      swap1\n      tag_54\n      jump\t// in\n    tag_53:\n      mload(0x40)\n      dup1\n      swap2\n      sub\n      swap1\n      revert\n    tag_52:\n        /* \"token_eco_system_dev_contracts/contracts_ready_for_prod/poolRateFeed.sol\":2633:2634  0 */\n      0x00\n        /* \"token_eco_system_dev_contracts/contracts_ready_for_prod/poolRateFeed.sol\":2622:2630  tokenOne */\n      dup12\n        /* \"token_eco_system_dev_contracts/contracts_ready_for_prod/poolRateFeed.sol\":2622:2634  tokenOne > 0 */\n      gt\n        /* \"token_eco_system_dev_contracts/contracts_ready_for_prod/poolRateFeed.sol\":2622:2650  tokenOne > 0 && tokenTwo > 0 */\n      dup1\n      iszero\n      tag_55\n      jumpi\n      pop\n        /* \"token_eco_system_dev_contracts/contracts_ready_for_prod/poolRateFeed.sol\":2649:2650  0 */\n      0x00\n        /* \"token_eco_system_dev_contracts/contracts_ready_for_prod/poolRateFeed.sol\":2638:2646  tokenTwo */\n      dup9\n        /* \"token_eco_system_dev_contracts/contracts_ready_for_prod/poolRateFeed.sol\":2638:2650  tokenTwo > 0 */\n      gt\n        /* \"token_eco_system_dev_contracts/contracts_ready_for_prod/poolRateFeed.sol\":2622:2650  tokenOne > 0 && tokenTwo > 0 */\n    tag_55:\n        /* \"token_eco_system_dev_contracts/contracts_ready_for_prod/poolRateFeed.sol\":2614:2692  require(tokenOne > 0 && tokenTwo > 0, \"Token values should be greater than 0\") */\n      tag_56\n      jumpi\n      mload(0x40)\n      0x08c379a000000000000000000000000000000000000000000000000000000000\n      dup2\n      mstore\n      0x04\n      add\n      tag_57\n      swap1\n      tag_58\n      jump\t// in\n    tag_57:\n      mload(0x40)\n      dup1\n      swap2\n      sub\n      swap1\n      revert\n    tag_56:\n        /* \"token_eco_system_dev_contracts/contracts_ready_for_prod/poolRateFeed.sol\":2727:2737  decimalTwo */\n      dup7\n        /* \"token_eco_system_dev_contracts/contracts_ready_for_prod/poolRateFeed.sol\":2714:2724  decimalOne */\n      dup11\n        /* \"token_eco_system_dev_contracts/contracts_ready_for_prod/poolRateFeed.sol\":2714:2737  decimalOne > decimalTwo */\n      gt\n        /* \"token_eco_system_dev_contracts/contracts_ready_for_prod/poolRateFeed.sol\":2710:2897  if (decimalOne > decimalTwo) {... */\n      iszero\n      tag_59\n      jumpi\n        /* \"token_eco_system_dev_contracts/contracts_ready_for_prod/poolRateFeed.sol\":2793:2803  decimalTwo */\n      dup7\n        /* \"token_eco_system_dev_contracts/contracts_ready_for_prod/poolRateFeed.sol\":2780:2790  decimalOne */\n      dup11\n        /* \"token_eco_system_dev_contracts/contracts_ready_for_prod/poolRateFeed.sol\":2780:2803  decimalOne - decimalTwo */\n      tag_60\n      swap2\n      swap1\n      tag_61\n      jump\t// in\n    tag_60:\n        /* \"token_eco_system_dev_contracts/contracts_ready_for_prod/poolRateFeed.sol\":2775:2777  10 */\n      0x0a\n        /* \"token_eco_system_dev_contracts/contracts_ready_for_prod/poolRateFeed.sol\":2775:2804  10**(decimalOne - decimalTwo) */\n      tag_62\n      swap2\n      swap1\n      tag_63\n      jump\t// in\n    tag_62:\n        /* \"token_eco_system_dev_contracts/contracts_ready_for_prod/poolRateFeed.sol\":2764:2772  tokenTwo */\n      dup9\n        /* \"token_eco_system_dev_contracts/contracts_ready_for_prod/poolRateFeed.sol\":2764:2804  tokenTwo * 10**(decimalOne - decimalTwo) */\n      tag_64\n      swap2\n      swap1\n      tag_65\n      jump\t// in\n    tag_64:\n        /* \"token_eco_system_dev_contracts/contracts_ready_for_prod/poolRateFeed.sol\":2753:2804  tokenTwo = tokenTwo * 10**(decimalOne - decimalTwo) */\n      swap8\n      pop\n        /* \"token_eco_system_dev_contracts/contracts_ready_for_prod/poolRateFeed.sol\":2710:2897  if (decimalOne > decimalTwo) {... */\n      jump(tag_66)\n    tag_59:\n        /* \"token_eco_system_dev_contracts/contracts_ready_for_prod/poolRateFeed.sol\":2875:2885  decimalOne */\n      dup10\n        /* \"token_eco_system_dev_contracts/contracts_ready_for_prod/poolRateFeed.sol\":2862:2872  decimalTwo */\n      dup8\n        /* \"token_eco_system_dev_contracts/contracts_ready_for_prod/poolRateFeed.sol\":2862:2885  decimalTwo - decimalOne */\n      tag_67\n      swap2\n      swap1\n      tag_61\n      jump\t// in\n    tag_67:\n        /* \"token_eco_system_dev_contracts/contracts_ready_for_prod/poolRateFeed.sol\":2857:2859  10 */\n      0x0a\n        /* \"token_eco_system_dev_contracts/contracts_ready_for_prod/poolRateFeed.sol\":2857:2886  10**(decimalTwo - decimalOne) */\n      tag_68\n      swap2\n      swap1\n      tag_63\n      jump\t// in\n    tag_68:\n        /* \"token_eco_system_dev_contracts/contracts_ready_for_prod/poolRateFeed.sol\":2846:2854  tokenOne */\n      dup12\n        /* \"token_eco_system_dev_contracts/contracts_ready_for_prod/poolRateFeed.sol\":2846:2886  tokenOne * 10**(decimalTwo - decimalOne) */\n      tag_69\n      swap2\n      swap1\n      tag_65\n      jump\t// in\n    tag_69:\n        /* \"token_eco_system_dev_contracts/contracts_ready_for_prod/poolRateFeed.sol\":2835:2886  tokenOne = tokenOne * 10**(decimalTwo - decimalOne) */\n      swap11\n      pop\n        /* \"token_eco_system_dev_contracts/contracts_ready_for_prod/poolRateFeed.sol\":2710:2897  if (decimalOne > decimalTwo) {... */\n    tag_66:\n        /* \"token_eco_system_dev_contracts/contracts_ready_for_prod/poolRateFeed.sol\":2948:2953  10**8 */\n      0x05f5e100\n        /* \"token_eco_system_dev_contracts/contracts_ready_for_prod/poolRateFeed.sol\":2941:2946  10**8 */\n      dup1\n        /* \"token_eco_system_dev_contracts/contracts_ready_for_prod/poolRateFeed.sol\":2932:2940  tokenOne */\n      dup13\n        /* \"token_eco_system_dev_contracts/contracts_ready_for_prod/poolRateFeed.sol\":2924:2929  10**8 */\n      0x05f5e100\n        /* \"token_eco_system_dev_contracts/contracts_ready_for_prod/poolRateFeed.sol\":2915:2923  tokenTwo */\n      dup12\n        /* \"token_eco_system_dev_contracts/contracts_ready_for_prod/poolRateFeed.sol\":2915:2929  tokenTwo*10**8 */\n      tag_70\n      swap2\n      swap1\n      tag_65\n      jump\t// in\n    tag_70:\n        /* \"token_eco_system_dev_contracts/contracts_ready_for_prod/poolRateFeed.sol\":2915:2940  tokenTwo*10**8 / tokenOne */\n      tag_71\n      swap2\n      swap1\n      tag_72\n      jump\t// in\n    tag_71:\n        /* \"token_eco_system_dev_contracts/contracts_ready_for_prod/poolRateFeed.sol\":2915:2946  tokenTwo*10**8 / tokenOne*10**8 */\n      tag_73\n      swap2\n      swap1\n      tag_65\n      jump\t// in\n    tag_73:\n        /* \"token_eco_system_dev_contracts/contracts_ready_for_prod/poolRateFeed.sol\":2914:2953  (tokenTwo*10**8 / tokenOne*10**8)/10**8 */\n      tag_74\n      swap2\n      swap1\n      tag_72\n      jump\t// in\n    tag_74:\n        /* \"token_eco_system_dev_contracts/contracts_ready_for_prod/poolRateFeed.sol\":2955:2956  8 */\n      0x08\n        /* \"token_eco_system_dev_contracts/contracts_ready_for_prod/poolRateFeed.sol\":2972:2984  tokenTwoName */\n      dup8\n        /* \"token_eco_system_dev_contracts/contracts_ready_for_prod/poolRateFeed.sol\":2991:3003  tokenOneName */\n      dup12\n        /* \"token_eco_system_dev_contracts/contracts_ready_for_prod/poolRateFeed.sol\":2958:3004  string.concat(tokenTwoName, \"/\", tokenOneName) */\n      add(0x20, mload(0x40))\n      tag_75\n      swap3\n      swap2\n      swap1\n      tag_76\n      jump\t// in\n    tag_75:\n      mload(0x40)\n      0x20\n      dup2\n      dup4\n      sub\n      sub\n      dup2\n      mstore\n      swap1\n      0x40\n      mstore\n        /* \"token_eco_system_dev_contracts/contracts_ready_for_prod/poolRateFeed.sol\":3006:3010  date */\n      dup8\n        /* \"token_eco_system_dev_contracts/contracts_ready_for_prod/poolRateFeed.sol\":2906:3011  return ((tokenTwo*10**8 / tokenOne*10**8)/10**8, 8, string.concat(tokenTwoName, \"/\", tokenOneName), date) */\n      dup1\n      0xffffffff\n      and\n      swap1\n      pop\n      swap4\n      pop\n      swap4\n      pop\n      swap4\n      pop\n      swap4\n      pop\n        /* \"token_eco_system_dev_contracts/contracts_ready_for_prod/poolRateFeed.sol\":1998:3018  function calculatePoolRate(... */\n      swap8\n      pop\n      swap8\n      pop\n      swap8\n      pop\n      swap8\n      swap4\n      pop\n      pop\n      pop\n      pop\n      jump\t// out\n        /* \"#utility.yul\":7:82   */\n    tag_77:\n        /* \"#utility.yul\":40:46   */\n      0x00\n        /* \"#utility.yul\":73:75   */\n      0x40\n        /* \"#utility.yul\":67:76   */\n      mload\n        /* \"#utility.yul\":57:76   */\n      swap1\n      pop\n        /* \"#utility.yul\":7:82   */\n      swap1\n      jump\t// out\n        /* \"#utility.yul\":88:205   */\n    tag_78:\n        /* \"#utility.yul\":197:198   */\n      0x00\n        /* \"#utility.yul\":194:195   */\n      dup1\n        /* \"#utility.yul\":187:199   */\n      revert\n        /* \"#utility.yul\":211:328   */\n    tag_79:\n        /* \"#utility.yul\":320:321   */\n      0x00\n        /* \"#utility.yul\":317:318   */\n      dup1\n        /* \"#utility.yul\":310:322   */\n      revert\n        /* \"#utility.yul\":334:460   */\n    tag_80:\n        /* \"#utility.yul\":371:378   */\n      0x00\n        /* \"#utility.yul\":411:453   */\n      0xffffffffffffffffffffffffffffffffffffffff\n        /* \"#utility.yul\":404:409   */\n      dup3\n        /* \"#utility.yul\":400:454   */\n      and\n        /* \"#utility.yul\":389:454   */\n      swap1\n      pop\n        /* \"#utility.yul\":334:460   */\n      swap2\n      swap1\n      pop\n      jump\t// out\n        /* \"#utility.yul\":466:562   */\n    tag_81:\n        /* \"#utility.yul\":503:510   */\n      0x00\n        /* \"#utility.yul\":532:556   */\n      tag_131\n        /* \"#utility.yul\":550:555   */\n      dup3\n        /* \"#utility.yul\":532:556   */\n      tag_80\n      jump\t// in\n    tag_131:\n        /* \"#utility.yul\":521:556   */\n      swap1\n      pop\n        /* \"#utility.yul\":466:562   */\n      swap2\n      swap1\n      pop\n      jump\t// out\n        /* \"#utility.yul\":568:690   */\n    tag_82:\n        /* \"#utility.yul\":641:665   */\n      tag_133\n        /* \"#utility.yul\":659:664   */\n      dup2\n        /* \"#utility.yul\":641:665   */\n      tag_81\n      jump\t// in\n    tag_133:\n        /* \"#utility.yul\":634:639   */\n      dup2\n        /* \"#utility.yul\":631:666   */\n      eq\n        /* \"#utility.yul\":621:684   */\n      tag_134\n      jumpi\n        /* \"#utility.yul\":680:681   */\n      0x00\n        /* \"#utility.yul\":677:678   */\n      dup1\n        /* \"#utility.yul\":670:682   */\n      revert\n        /* \"#utility.yul\":621:684   */\n    tag_134:\n        /* \"#utility.yul\":568:690   */\n      pop\n      jump\t// out\n        /* \"#utility.yul\":696:835   */\n    tag_83:\n        /* \"#utility.yul\":742:747   */\n      0x00\n        /* \"#utility.yul\":780:786   */\n      dup2\n        /* \"#utility.yul\":767:787   */\n      calldataload\n        /* \"#utility.yul\":758:787   */\n      swap1\n      pop\n        /* \"#utility.yul\":796:829   */\n      tag_136\n        /* \"#utility.yul\":823:828   */\n      dup2\n        /* \"#utility.yul\":796:829   */\n      tag_82\n      jump\t// in\n    tag_136:\n        /* \"#utility.yul\":696:835   */\n      swap3\n      swap2\n      pop\n      pop\n      jump\t// out\n        /* \"#utility.yul\":841:1170   */\n    tag_7:\n        /* \"#utility.yul\":900:906   */\n      0x00\n        /* \"#utility.yul\":949:951   */\n      0x20\n        /* \"#utility.yul\":937:946   */\n      dup3\n        /* \"#utility.yul\":928:935   */\n      dup5\n        /* \"#utility.yul\":924:947   */\n      sub\n        /* \"#utility.yul\":920:952   */\n      slt\n        /* \"#utility.yul\":917:1036   */\n      iszero\n      tag_138\n      jumpi\n        /* \"#utility.yul\":955:1034   */\n      tag_139\n      tag_78\n      jump\t// in\n    tag_139:\n        /* \"#utility.yul\":917:1036   */\n    tag_138:\n        /* \"#utility.yul\":1075:1076   */\n      0x00\n        /* \"#utility.yul\":1100:1153   */\n      tag_140\n        /* \"#utility.yul\":1145:1152   */\n      dup5\n        /* \"#utility.yul\":1136:1142   */\n      dup3\n        /* \"#utility.yul\":1125:1134   */\n      dup6\n        /* \"#utility.yul\":1121:1143   */\n      add\n        /* \"#utility.yul\":1100:1153   */\n      tag_83\n      jump\t// in\n    tag_140:\n        /* \"#utility.yul\":1090:1153   */\n      swap2\n      pop\n        /* \"#utility.yul\":1046:1163   */\n      pop\n        /* \"#utility.yul\":841:1170   */\n      swap3\n      swap2\n      pop\n      pop\n      jump\t// out\n        /* \"#utility.yul\":1176:1253   */\n    tag_84:\n        /* \"#utility.yul\":1213:1220   */\n      0x00\n        /* \"#utility.yul\":1242:1247   */\n      dup2\n        /* \"#utility.yul\":1231:1247   */\n      swap1\n      pop\n        /* \"#utility.yul\":1176:1253   */\n      swap2\n      swap1\n      pop\n      jump\t// out\n        /* \"#utility.yul\":1259:1377   */\n    tag_85:\n        /* \"#utility.yul\":1346:1370   */\n      tag_143\n        /* \"#utility.yul\":1364:1369   */\n      dup2\n        /* \"#utility.yul\":1346:1370   */\n      tag_84\n      jump\t// in\n    tag_143:\n        /* \"#utility.yul\":1341:1344   */\n      dup3\n        /* \"#utility.yul\":1334:1371   */\n      mstore\n        /* \"#utility.yul\":1259:1377   */\n      pop\n      pop\n      jump\t// out\n        /* \"#utility.yul\":1383:1482   */\n    tag_86:\n        /* \"#utility.yul\":1435:1441   */\n      0x00\n        /* \"#utility.yul\":1469:1474   */\n      dup2\n        /* \"#utility.yul\":1463:1475   */\n      mload\n        /* \"#utility.yul\":1453:1475   */\n      swap1\n      pop\n        /* \"#utility.yul\":1383:1482   */\n      swap2\n      swap1\n      pop\n      jump\t// out\n        /* \"#utility.yul\":1488:1657   */\n    tag_87:\n        /* \"#utility.yul\":1572:1583   */\n      0x00\n        /* \"#utility.yul\":1606:1612   */\n      dup3\n        /* \"#utility.yul\":1601:1604   */\n      dup3\n        /* \"#utility.yul\":1594:1613   */\n      mstore\n        /* \"#utility.yul\":1646:1650   */\n      0x20\n        /* \"#utility.yul\":1641:1644   */\n      dup3\n        /* \"#utility.yul\":1637:1651   */\n      add\n        /* \"#utility.yul\":1622:1651   */\n      swap1\n      pop\n        /* \"#utility.yul\":1488:1657   */\n      swap3\n      swap2\n      pop\n      pop\n      jump\t// out\n        /* \"#utility.yul\":1663:1909   */\n    tag_88:\n        /* \"#utility.yul\":1744:1745   */\n      0x00\n        /* \"#utility.yul\":1754:1867   */\n    tag_147:\n        /* \"#utility.yul\":1768:1774   */\n      dup4\n        /* \"#utility.yul\":1765:1766   */\n      dup2\n        /* \"#utility.yul\":1762:1775   */\n      lt\n        /* \"#utility.yul\":1754:1867   */\n      iszero\n      tag_149\n      jumpi\n        /* \"#utility.yul\":1853:1854   */\n      dup1\n        /* \"#utility.yul\":1848:1851   */\n      dup3\n        /* \"#utility.yul\":1844:1855   */\n      add\n        /* \"#utility.yul\":1838:1856   */\n      mload\n        /* \"#utility.yul\":1834:1835   */\n      dup2\n        /* \"#utility.yul\":1829:1832   */\n      dup5\n        /* \"#utility.yul\":1825:1836   */\n      add\n        /* \"#utility.yul\":1818:1857   */\n      mstore\n        /* \"#utility.yul\":1790:1792   */\n      0x20\n        /* \"#utility.yul\":1787:1788   */\n      dup2\n        /* \"#utility.yul\":1783:1793   */\n      add\n        /* \"#utility.yul\":1778:1793   */\n      swap1\n      pop\n        /* \"#utility.yul\":1754:1867   */\n      jump(tag_147)\n    tag_149:\n        /* \"#utility.yul\":1901:1902   */\n      0x00\n        /* \"#utility.yul\":1892:1898   */\n      dup5\n        /* \"#utility.yul\":1887:1890   */\n      dup5\n        /* \"#utility.yul\":1883:1899   */\n      add\n        /* \"#utility.yul\":1876:1903   */\n      mstore\n        /* \"#utility.yul\":1725:1909   */\n      pop\n        /* \"#utility.yul\":1663:1909   */\n      pop\n      pop\n      pop\n      jump\t// out\n        /* \"#utility.yul\":1915:2017   */\n    tag_89:\n        /* \"#utility.yul\":1956:1962   */\n      0x00\n        /* \"#utility.yul\":2007:2009   */\n      0x1f\n        /* \"#utility.yul\":2003:2010   */\n      not\n        /* \"#utility.yul\":1998:2000   */\n      0x1f\n        /* \"#utility.yul\":1991:1996   */\n      dup4\n        /* \"#utility.yul\":1987:2001   */\n      add\n        /* \"#utility.yul\":1983:2011   */\n      and\n        /* \"#utility.yul\":1973:2011   */\n      swap1\n      pop\n        /* \"#utility.yul\":1915:2017   */\n      swap2\n      swap1\n      pop\n      jump\t// out\n        /* \"#utility.yul\":2023:2400   */\n    tag_90:\n        /* \"#utility.yul\":2111:2114   */\n      0x00\n        /* \"#utility.yul\":2139:2178   */\n      tag_152\n        /* \"#utility.yul\":2172:2177   */\n      dup3\n        /* \"#utility.yul\":2139:2178   */\n      tag_86\n      jump\t// in\n    tag_152:\n        /* \"#utility.yul\":2194:2265   */\n      tag_153\n        /* \"#utility.yul\":2258:2264   */\n      dup2\n        /* \"#utility.yul\":2253:2256   */\n      dup6\n        /* \"#utility.yul\":2194:2265   */\n      tag_87\n      jump\t// in\n    tag_153:\n        /* \"#utility.yul\":2187:2265   */\n      swap4\n      pop\n        /* \"#utility.yul\":2274:2339   */\n      tag_154\n        /* \"#utility.yul\":2332:2338   */\n      dup2\n        /* \"#utility.yul\":2327:2330   */\n      dup6\n        /* \"#utility.yul\":2320:2324   */\n      0x20\n        /* \"#utility.yul\":2313:2318   */\n      dup7\n        /* \"#utility.yul\":2309:2325   */\n      add\n        /* \"#utility.yul\":2274:2339   */\n      tag_88\n      jump\t// in\n    tag_154:\n        /* \"#utility.yul\":2364:2393   */\n      tag_155\n        /* \"#utility.yul\":2386:2392   */\n      dup2\n        /* \"#utility.yul\":2364:2393   */\n      tag_89\n      jump\t// in\n    tag_155:\n        /* \"#utility.yul\":2359:2362   */\n      dup5\n        /* \"#utility.yul\":2355:2394   */\n      add\n        /* \"#utility.yul\":2348:2394   */\n      swap2\n      pop\n        /* \"#utility.yul\":2115:2400   */\n      pop\n        /* \"#utility.yul\":2023:2400   */\n      swap3\n      swap2\n      pop\n      pop\n      jump\t// out\n        /* \"#utility.yul\":2406:3050   */\n    tag_12:\n        /* \"#utility.yul\":2603:2607   */\n      0x00\n        /* \"#utility.yul\":2641:2644   */\n      0x80\n        /* \"#utility.yul\":2630:2639   */\n      dup3\n        /* \"#utility.yul\":2626:2645   */\n      add\n        /* \"#utility.yul\":2618:2645   */\n      swap1\n      pop\n        /* \"#utility.yul\":2655:2726   */\n      tag_157\n        /* \"#utility.yul\":2723:2724   */\n      0x00\n        /* \"#utility.yul\":2712:2721   */\n      dup4\n        /* \"#utility.yul\":2708:2725   */\n      add\n        /* \"#utility.yul\":2699:2705   */\n      dup8\n        /* \"#utility.yul\":2655:2726   */\n      tag_85\n      jump\t// in\n    tag_157:\n        /* \"#utility.yul\":2736:2808   */\n      tag_158\n        /* \"#utility.yul\":2804:2806   */\n      0x20\n        /* \"#utility.yul\":2793:2802   */\n      dup4\n        /* \"#utility.yul\":2789:2807   */\n      add\n        /* \"#utility.yul\":2780:2786   */\n      dup7\n        /* \"#utility.yul\":2736:2808   */\n      tag_85\n      jump\t// in\n    tag_158:\n        /* \"#utility.yul\":2855:2864   */\n      dup2\n        /* \"#utility.yul\":2849:2853   */\n      dup2\n        /* \"#utility.yul\":2845:2865   */\n      sub\n        /* \"#utility.yul\":2840:2842   */\n      0x40\n        /* \"#utility.yul\":2829:2838   */\n      dup4\n        /* \"#utility.yul\":2825:2843   */\n      add\n        /* \"#utility.yul\":2818:2866   */\n      mstore\n        /* \"#utility.yul\":2883:2961   */\n      tag_159\n        /* \"#utility.yul\":2956:2960   */\n      dup2\n        /* \"#utility.yul\":2947:2953   */\n      dup6\n        /* \"#utility.yul\":2883:2961   */\n      tag_90\n      jump\t// in\n    tag_159:\n        /* \"#utility.yul\":2875:2961   */\n      swap1\n      pop\n        /* \"#utility.yul\":2971:3043   */\n      tag_160\n        /* \"#utility.yul\":3039:3041   */\n      0x60\n        /* \"#utility.yul\":3028:3037   */\n      dup4\n        /* \"#utility.yul\":3024:3042   */\n      add\n        /* \"#utility.yul\":3015:3021   */\n      dup5\n        /* \"#utility.yul\":2971:3043   */\n      tag_85\n      jump\t// in\n    tag_160:\n        /* \"#utility.yul\":2406:3050   */\n      swap6\n      swap5\n      pop\n      pop\n      pop\n      pop\n      pop\n      jump\t// out\n        /* \"#utility.yul\":3056:3170   */\n    tag_91:\n        /* \"#utility.yul\":3093:3100   */\n      0x00\n        /* \"#utility.yul\":3133:3163   */\n      0xffffffffffffffffffffffffffff\n        /* \"#utility.yul\":3126:3131   */\n      dup3\n        /* \"#utility.yul\":3122:3164   */\n      and\n        /* \"#utility.yul\":3111:3164   */\n      swap1\n      pop\n        /* \"#utility.yul\":3056:3170   */\n      swap2\n      swap1\n      pop\n      jump\t// out\n        /* \"#utility.yul\":3176:3298   */\n    tag_92:\n        /* \"#utility.yul\":3249:3273   */\n      tag_163\n        /* \"#utility.yul\":3267:3272   */\n      dup2\n        /* \"#utility.yul\":3249:3273   */\n      tag_91\n      jump\t// in\n    tag_163:\n        /* \"#utility.yul\":3242:3247   */\n      dup2\n        /* \"#utility.yul\":3239:3274   */\n      eq\n        /* \"#utility.yul\":3229:3292   */\n      tag_164\n      jumpi\n        /* \"#utility.yul\":3288:3289   */\n      0x00\n        /* \"#utility.yul\":3285:3286   */\n      dup1\n        /* \"#utility.yul\":3278:3290   */\n      revert\n        /* \"#utility.yul\":3229:3292   */\n    tag_164:\n        /* \"#utility.yul\":3176:3298   */\n      pop\n      jump\t// out\n        /* \"#utility.yul\":3304:3447   */\n    tag_93:\n        /* \"#utility.yul\":3361:3366   */\n      0x00\n        /* \"#utility.yul\":3392:3398   */\n      dup2\n        /* \"#utility.yul\":3386:3399   */\n      mload\n        /* \"#utility.yul\":3377:3399   */\n      swap1\n      pop\n        /* \"#utility.yul\":3408:3441   */\n      tag_166\n        /* \"#utility.yul\":3435:3440   */\n      dup2\n        /* \"#utility.yul\":3408:3441   */\n      tag_92\n      jump\t// in\n    tag_166:\n        /* \"#utility.yul\":3304:3447   */\n      swap3\n      swap2\n      pop\n      pop\n      jump\t// out\n        /* \"#utility.yul\":3453:3546   */\n    tag_94:\n        /* \"#utility.yul\":3489:3496   */\n      0x00\n        /* \"#utility.yul\":3529:3539   */\n      0xffffffff\n        /* \"#utility.yul\":3522:3527   */\n      dup3\n        /* \"#utility.yul\":3518:3540   */\n      and\n        /* \"#utility.yul\":3507:3540   */\n      swap1\n      pop\n        /* \"#utility.yul\":3453:3546   */\n      swap2\n      swap1\n      pop\n      jump\t// out\n        /* \"#utility.yul\":3552:3672   */\n    tag_95:\n        /* \"#utility.yul\":3624:3647   */\n      tag_169\n        /* \"#utility.yul\":3641:3646   */\n      dup2\n        /* \"#utility.yul\":3624:3647   */\n      tag_94\n      jump\t// in\n    tag_169:\n        /* \"#utility.yul\":3617:3622   */\n      dup2\n        /* \"#utility.yul\":3614:3648   */\n      eq\n        /* \"#utility.yul\":3604:3666   */\n      tag_170\n      jumpi\n        /* \"#utility.yul\":3662:3663   */\n      0x00\n        /* \"#utility.yul\":3659:3660   */\n      dup1\n        /* \"#utility.yul\":3652:3664   */\n      revert\n        /* \"#utility.yul\":3604:3666   */\n    tag_170:\n        /* \"#utility.yul\":3552:3672   */\n      pop\n      jump\t// out\n        /* \"#utility.yul\":3678:3819   */\n    tag_96:\n        /* \"#utility.yul\":3734:3739   */\n      0x00\n        /* \"#utility.yul\":3765:3771   */\n      dup2\n        /* \"#utility.yul\":3759:3772   */\n      mload\n        /* \"#utility.yul\":3750:3772   */\n      swap1\n      pop\n        /* \"#utility.yul\":3781:3813   */\n      tag_172\n        /* \"#utility.yul\":3807:3812   */\n      dup2\n        /* \"#utility.yul\":3781:3813   */\n      tag_95\n      jump\t// in\n    tag_172:\n        /* \"#utility.yul\":3678:3819   */\n      swap3\n      swap2\n      pop\n      pop\n      jump\t// out\n        /* \"#utility.yul\":3825:4486   */\n    tag_18:\n        /* \"#utility.yul\":3912:3918   */\n      0x00\n        /* \"#utility.yul\":3920:3926   */\n      dup1\n        /* \"#utility.yul\":3928:3934   */\n      0x00\n        /* \"#utility.yul\":3977:3979   */\n      0x60\n        /* \"#utility.yul\":3965:3974   */\n      dup5\n        /* \"#utility.yul\":3956:3963   */\n      dup7\n        /* \"#utility.yul\":3952:3975   */\n      sub\n        /* \"#utility.yul\":3948:3980   */\n      slt\n        /* \"#utility.yul\":3945:4064   */\n      iszero\n      tag_174\n      jumpi\n        /* \"#utility.yul\":3983:4062   */\n      tag_175\n      tag_78\n      jump\t// in\n    tag_175:\n        /* \"#utility.yul\":3945:4064   */\n    tag_174:\n        /* \"#utility.yul\":4103:4104   */\n      0x00\n        /* \"#utility.yul\":4128:4192   */\n      tag_176\n        /* \"#utility.yul\":4184:4191   */\n      dup7\n        /* \"#utility.yul\":4175:4181   */\n      dup3\n        /* \"#utility.yul\":4164:4173   */\n      dup8\n        /* \"#utility.yul\":4160:4182   */\n      add\n        /* \"#utility.yul\":4128:4192   */\n      tag_93\n      jump\t// in\n    tag_176:\n        /* \"#utility.yul\":4118:4192   */\n      swap4\n      pop\n        /* \"#utility.yul\":4074:4202   */\n      pop\n        /* \"#utility.yul\":4241:4243   */\n      0x20\n        /* \"#utility.yul\":4267:4331   */\n      tag_177\n        /* \"#utility.yul\":4323:4330   */\n      dup7\n        /* \"#utility.yul\":4314:4320   */\n      dup3\n        /* \"#utility.yul\":4303:4312   */\n      dup8\n        /* \"#utility.yul\":4299:4321   */\n      add\n        /* \"#utility.yul\":4267:4331   */\n      tag_93\n      jump\t// in\n    tag_177:\n        /* \"#utility.yul\":4257:4331   */\n      swap3\n      pop\n        /* \"#utility.yul\":4212:4341   */\n      pop\n        /* \"#utility.yul\":4380:4382   */\n      0x40\n        /* \"#utility.yul\":4406:4469   */\n      tag_178\n        /* \"#utility.yul\":4461:4468   */\n      dup7\n        /* \"#utility.yul\":4452:4458   */\n      dup3\n        /* \"#utility.yul\":4441:4450   */\n      dup8\n        /* \"#utility.yul\":4437:4459   */\n      add\n        /* \"#utility.yul\":4406:4469   */\n      tag_96\n      jump\t// in\n    tag_178:\n        /* \"#utility.yul\":4396:4469   */\n      swap2\n      pop\n        /* \"#utility.yul\":4351:4479   */\n      pop\n        /* \"#utility.yul\":3825:4486   */\n      swap3\n      pop\n      swap3\n      pop\n      swap3\n      jump\t// out\n        /* \"#utility.yul\":4492:4635   */\n    tag_97:\n        /* \"#utility.yul\":4549:4554   */\n      0x00\n        /* \"#utility.yul\":4580:4586   */\n      dup2\n        /* \"#utility.yul\":4574:4587   */\n      mload\n        /* \"#utility.yul\":4565:4587   */\n      swap1\n      pop\n        /* \"#utility.yul\":4596:4629   */\n      tag_180\n        /* \"#utility.yul\":4623:4628   */\n      dup2\n        /* \"#utility.yul\":4596:4629   */\n      tag_82\n      jump\t// in\n    tag_180:\n        /* \"#utility.yul\":4492:4635   */\n      swap3\n      swap2\n      pop\n      pop\n      jump\t// out\n        /* \"#utility.yul\":4641:4992   */\n    tag_22:\n        /* \"#utility.yul\":4711:4717   */\n      0x00\n        /* \"#utility.yul\":4760:4762   */\n      0x20\n        /* \"#utility.yul\":4748:4757   */\n      dup3\n        /* \"#utility.yul\":4739:4746   */\n      dup5\n        /* \"#utility.yul\":4735:4758   */\n      sub\n        /* \"#utility.yul\":4731:4763   */\n      slt\n        /* \"#utility.yul\":4728:4847   */\n      iszero\n      tag_182\n      jumpi\n        /* \"#utility.yul\":4766:4845   */\n      tag_183\n      tag_78\n      jump\t// in\n    tag_183:\n        /* \"#utility.yul\":4728:4847   */\n    tag_182:\n        /* \"#utility.yul\":4886:4887   */\n      0x00\n        /* \"#utility.yul\":4911:4975   */\n      tag_184\n        /* \"#utility.yul\":4967:4974   */\n      dup5\n        /* \"#utility.yul\":4958:4964   */\n      dup3\n        /* \"#utility.yul\":4947:4956   */\n      dup6\n        /* \"#utility.yul\":4943:4965   */\n      add\n        /* \"#utility.yul\":4911:4975   */\n      tag_97\n      jump\t// in\n    tag_184:\n        /* \"#utility.yul\":4901:4975   */\n      swap2\n      pop\n        /* \"#utility.yul\":4857:4985   */\n      pop\n        /* \"#utility.yul\":4641:4992   */\n      swap3\n      swap2\n      pop\n      pop\n      jump\t// out\n        /* \"#utility.yul\":4998:5084   */\n    tag_98:\n        /* \"#utility.yul\":5033:5040   */\n      0x00\n        /* \"#utility.yul\":5073:5077   */\n      0xff\n        /* \"#utility.yul\":5066:5071   */\n      dup3\n        /* \"#utility.yul\":5062:5078   */\n      and\n        /* \"#utility.yul\":5051:5078   */\n      swap1\n      pop\n        /* \"#utility.yul\":4998:5084   */\n      swap2\n      swap1\n      pop\n      jump\t// out\n        /* \"#utility.yul\":5090:5208   */\n    tag_99:\n        /* \"#utility.yul\":5161:5183   */\n      tag_187\n        /* \"#utility.yul\":5177:5182   */\n      dup2\n        /* \"#utility.yul\":5161:5183   */\n      tag_98\n      jump\t// in\n    tag_187:\n        /* \"#utility.yul\":5154:5159   */\n      dup2\n        /* \"#utility.yul\":5151:5184   */\n      eq\n        /* \"#utility.yul\":5141:5202   */\n      tag_188\n      jumpi\n        /* \"#utility.yul\":5198:5199   */\n      0x00\n        /* \"#utility.yul\":5195:5196   */\n      dup1\n        /* \"#utility.yul\":5188:5200   */\n      revert\n        /* \"#utility.yul\":5141:5202   */\n    tag_188:\n        /* \"#utility.yul\":5090:5208   */\n      pop\n      jump\t// out\n        /* \"#utility.yul\":5214:5353   */\n    tag_100:\n        /* \"#utility.yul\":5269:5274   */\n      0x00\n        /* \"#utility.yul\":5300:5306   */\n      dup2\n        /* \"#utility.yul\":5294:5307   */\n      mload\n        /* \"#utility.yul\":5285:5307   */\n      swap1\n      pop\n        /* \"#utility.yul\":5316:5347   */\n      tag_190\n        /* \"#utility.yul\":5341:5346   */\n      dup2\n        /* \"#utility.yul\":5316:5347   */\n      tag_99\n      jump\t// in\n    tag_190:\n        /* \"#utility.yul\":5214:5353   */\n      swap3\n      swap2\n      pop\n      pop\n      jump\t// out\n        /* \"#utility.yul\":5359:5706   */\n    tag_29:\n        /* \"#utility.yul\":5427:5433   */\n      0x00\n        /* \"#utility.yul\":5476:5478   */\n      0x20\n        /* \"#utility.yul\":5464:5473   */\n      dup3\n        /* \"#utility.yul\":5455:5462   */\n      dup5\n        /* \"#utility.yul\":5451:5474   */\n      sub\n        /* \"#utility.yul\":5447:5479   */\n      slt\n        /* \"#utility.yul\":5444:5563   */\n      iszero\n      tag_192\n      jumpi\n        /* \"#utility.yul\":5482:5561   */\n      tag_193\n      tag_78\n      jump\t// in\n    tag_193:\n        /* \"#utility.yul\":5444:5563   */\n    tag_192:\n        /* \"#utility.yul\":5602:5603   */\n      0x00\n        /* \"#utility.yul\":5627:5689   */\n      tag_194\n        /* \"#utility.yul\":5681:5688   */\n      dup5\n        /* \"#utility.yul\":5672:5678   */\n      dup3\n        /* \"#utility.yul\":5661:5670   */\n      dup6\n        /* \"#utility.yul\":5657:5679   */\n      add\n        /* \"#utility.yul\":5627:5689   */\n      tag_100\n      jump\t// in\n    tag_194:\n        /* \"#utility.yul\":5617:5689   */\n      swap2\n      pop\n        /* \"#utility.yul\":5573:5699   */\n      pop\n        /* \"#utility.yul\":5359:5706   */\n      swap3\n      swap2\n      pop\n      pop\n      jump\t// out\n        /* \"#utility.yul\":5712:5829   */\n    tag_101:\n        /* \"#utility.yul\":5821:5822   */\n      0x00\n        /* \"#utility.yul\":5818:5819   */\n      dup1\n        /* \"#utility.yul\":5811:5823   */\n      revert\n        /* \"#utility.yul\":5835:5952   */\n    tag_102:\n        /* \"#utility.yul\":5944:5945   */\n      0x00\n        /* \"#utility.yul\":5941:5942   */\n      dup1\n        /* \"#utility.yul\":5934:5946   */\n      revert\n        /* \"#utility.yul\":5958:6138   */\n    tag_103:\n        /* \"#utility.yul\":6006:6083   */\n      0x4e487b7100000000000000000000000000000000000000000000000000000000\n        /* \"#utility.yul\":6003:6004   */\n      0x00\n        /* \"#utility.yul\":5996:6084   */\n      mstore\n        /* \"#utility.yul\":6103:6107   */\n      0x41\n        /* \"#utility.yul\":6100:6101   */\n      0x04\n        /* \"#utility.yul\":6093:6108   */\n      mstore\n        /* \"#utility.yul\":6127:6131   */\n      0x24\n        /* \"#utility.yul\":6124:6125   */\n      0x00\n        /* \"#utility.yul\":6117:6132   */\n      revert\n        /* \"#utility.yul\":6144:6425   */\n    tag_104:\n        /* \"#utility.yul\":6227:6254   */\n      tag_199\n        /* \"#utility.yul\":6249:6253   */\n      dup3\n        /* \"#utility.yul\":6227:6254   */\n      tag_89\n      jump\t// in\n    tag_199:\n        /* \"#utility.yul\":6219:6225   */\n      dup2\n        /* \"#utility.yul\":6215:6255   */\n      add\n        /* \"#utility.yul\":6357:6363   */\n      dup2\n        /* \"#utility.yul\":6345:6355   */\n      dup2\n        /* \"#utility.yul\":6342:6364   */\n      lt\n        /* \"#utility.yul\":6321:6339   */\n      0xffffffffffffffff\n        /* \"#utility.yul\":6309:6319   */\n      dup3\n        /* \"#utility.yul\":6306:6340   */\n      gt\n        /* \"#utility.yul\":6303:6365   */\n      or\n        /* \"#utility.yul\":6300:6388   */\n      iszero\n      tag_200\n      jumpi\n        /* \"#utility.yul\":6368:6386   */\n      tag_201\n      tag_103\n      jump\t// in\n    tag_201:\n        /* \"#utility.yul\":6300:6388   */\n    tag_200:\n        /* \"#utility.yul\":6408:6418   */\n      dup1\n        /* \"#utility.yul\":6404:6406   */\n      0x40\n        /* \"#utility.yul\":6397:6419   */\n      mstore\n        /* \"#utility.yul\":6187:6425   */\n      pop\n        /* \"#utility.yul\":6144:6425   */\n      pop\n      pop\n      jump\t// out\n        /* \"#utility.yul\":6431:6560   */\n    tag_105:\n        /* \"#utility.yul\":6465:6471   */\n      0x00\n        /* \"#utility.yul\":6492:6512   */\n      tag_203\n      tag_77\n      jump\t// in\n    tag_203:\n        /* \"#utility.yul\":6482:6512   */\n      swap1\n      pop\n        /* \"#utility.yul\":6521:6554   */\n      tag_204\n        /* \"#utility.yul\":6549:6553   */\n      dup3\n        /* \"#utility.yul\":6541:6547   */\n      dup3\n        /* \"#utility.yul\":6521:6554   */\n      tag_104\n      jump\t// in\n    tag_204:\n        /* \"#utility.yul\":6431:6560   */\n      swap2\n      swap1\n      pop\n      jump\t// out\n        /* \"#utility.yul\":6566:6874   */\n    tag_106:\n        /* \"#utility.yul\":6628:6632   */\n      0x00\n        /* \"#utility.yul\":6718:6736   */\n      0xffffffffffffffff\n        /* \"#utility.yul\":6710:6716   */\n      dup3\n        /* \"#utility.yul\":6707:6737   */\n      gt\n        /* \"#utility.yul\":6704:6760   */\n      iszero\n      tag_206\n      jumpi\n        /* \"#utility.yul\":6740:6758   */\n      tag_207\n      tag_103\n      jump\t// in\n    tag_207:\n        /* \"#utility.yul\":6704:6760   */\n    tag_206:\n        /* \"#utility.yul\":6778:6807   */\n      tag_208\n        /* \"#utility.yul\":6800:6806   */\n      dup3\n        /* \"#utility.yul\":6778:6807   */\n      tag_89\n      jump\t// in\n    tag_208:\n        /* \"#utility.yul\":6770:6807   */\n      swap1\n      pop\n        /* \"#utility.yul\":6862:6866   */\n      0x20\n        /* \"#utility.yul\":6856:6860   */\n      dup2\n        /* \"#utility.yul\":6852:6867   */\n      add\n        /* \"#utility.yul\":6844:6867   */\n      swap1\n      pop\n        /* \"#utility.yul\":6566:6874   */\n      swap2\n      swap1\n      pop\n      jump\t// out\n        /* \"#utility.yul\":6880:7314   */\n    tag_107:\n        /* \"#utility.yul\":6969:6974   */\n      0x00\n        /* \"#utility.yul\":6994:7060   */\n      tag_210\n        /* \"#utility.yul\":7010:7059   */\n      tag_211\n        /* \"#utility.yul\":7052:7058   */\n      dup5\n        /* \"#utility.yul\":7010:7059   */\n      tag_106\n      jump\t// in\n    tag_211:\n        /* \"#utility.yul\":6994:7060   */\n      tag_105\n      jump\t// in\n    tag_210:\n        /* \"#utility.yul\":6985:7060   */\n      swap1\n      pop\n        /* \"#utility.yul\":7083:7089   */\n      dup3\n        /* \"#utility.yul\":7076:7081   */\n      dup2\n        /* \"#utility.yul\":7069:7090   */\n      mstore\n        /* \"#utility.yul\":7121:7125   */\n      0x20\n        /* \"#utility.yul\":7114:7119   */\n      dup2\n        /* \"#utility.yul\":7110:7126   */\n      add\n        /* \"#utility.yul\":7159:7162   */\n      dup5\n        /* \"#utility.yul\":7150:7156   */\n      dup5\n        /* \"#utility.yul\":7145:7148   */\n      dup5\n        /* \"#utility.yul\":7141:7157   */\n      add\n        /* \"#utility.yul\":7138:7163   */\n      gt\n        /* \"#utility.yul\":7135:7247   */\n      iszero\n      tag_212\n      jumpi\n        /* \"#utility.yul\":7166:7245   */\n      tag_213\n      tag_102\n      jump\t// in\n    tag_213:\n        /* \"#utility.yul\":7135:7247   */\n    tag_212:\n        /* \"#utility.yul\":7256:7308   */\n      tag_214\n        /* \"#utility.yul\":7301:7307   */\n      dup5\n        /* \"#utility.yul\":7296:7299   */\n      dup3\n        /* \"#utility.yul\":7291:7294   */\n      dup6\n        /* \"#utility.yul\":7256:7308   */\n      tag_88\n      jump\t// in\n    tag_214:\n        /* \"#utility.yul\":6975:7314   */\n      pop\n        /* \"#utility.yul\":6880:7314   */\n      swap4\n      swap3\n      pop\n      pop\n      pop\n      jump\t// out\n        /* \"#utility.yul\":7334:7689   */\n    tag_108:\n        /* \"#utility.yul\":7401:7406   */\n      0x00\n        /* \"#utility.yul\":7450:7453   */\n      dup3\n        /* \"#utility.yul\":7443:7447   */\n      0x1f\n        /* \"#utility.yul\":7435:7441   */\n      dup4\n        /* \"#utility.yul\":7431:7448   */\n      add\n        /* \"#utility.yul\":7427:7454   */\n      slt\n        /* \"#utility.yul\":7417:7539   */\n      tag_216\n      jumpi\n        /* \"#utility.yul\":7458:7537   */\n      tag_217\n      tag_101\n      jump\t// in\n    tag_217:\n        /* \"#utility.yul\":7417:7539   */\n    tag_216:\n        /* \"#utility.yul\":7568:7574   */\n      dup2\n        /* \"#utility.yul\":7562:7575   */\n      mload\n        /* \"#utility.yul\":7593:7683   */\n      tag_218\n        /* \"#utility.yul\":7679:7682   */\n      dup5\n        /* \"#utility.yul\":7671:7677   */\n      dup3\n        /* \"#utility.yul\":7664:7668   */\n      0x20\n        /* \"#utility.yul\":7656:7662   */\n      dup7\n        /* \"#utility.yul\":7652:7669   */\n      add\n        /* \"#utility.yul\":7593:7683   */\n      tag_107\n      jump\t// in\n    tag_218:\n        /* \"#utility.yul\":7584:7683   */\n      swap2\n      pop\n        /* \"#utility.yul\":7407:7689   */\n      pop\n        /* \"#utility.yul\":7334:7689   */\n      swap3\n      swap2\n      pop\n      pop\n      jump\t// out\n        /* \"#utility.yul\":7695:8219   */\n    tag_36:\n        /* \"#utility.yul\":7775:7781   */\n      0x00\n        /* \"#utility.yul\":7824:7826   */\n      0x20\n        /* \"#utility.yul\":7812:7821   */\n      dup3\n        /* \"#utility.yul\":7803:7810   */\n      dup5\n        /* \"#utility.yul\":7799:7822   */\n      sub\n        /* \"#utility.yul\":7795:7827   */\n      slt\n        /* \"#utility.yul\":7792:7911   */\n      iszero\n      tag_220\n      jumpi\n        /* \"#utility.yul\":7830:7909   */\n      tag_221\n      tag_78\n      jump\t// in\n    tag_221:\n        /* \"#utility.yul\":7792:7911   */\n    tag_220:\n        /* \"#utility.yul\":7971:7972   */\n      0x00\n        /* \"#utility.yul\":7960:7969   */\n      dup3\n        /* \"#utility.yul\":7956:7973   */\n      add\n        /* \"#utility.yul\":7950:7974   */\n      mload\n        /* \"#utility.yul\":8001:8019   */\n      0xffffffffffffffff\n        /* \"#utility.yul\":7993:7999   */\n      dup2\n        /* \"#utility.yul\":7990:8020   */\n      gt\n        /* \"#utility.yul\":7987:8104   */\n      iszero\n      tag_222\n      jumpi\n        /* \"#utility.yul\":8023:8102   */\n      tag_223\n      tag_79\n      jump\t// in\n    tag_223:\n        /* \"#utility.yul\":7987:8104   */\n    tag_222:\n        /* \"#utility.yul\":8128:8202   */\n      tag_224\n        /* \"#utility.yul\":8194:8201   */\n      dup5\n        /* \"#utility.yul\":8185:8191   */\n      dup3\n        /* \"#utility.yul\":8174:8183   */\n      dup6\n        /* \"#utility.yul\":8170:8192   */\n      add\n        /* \"#utility.yul\":8128:8202   */\n      tag_108\n      jump\t// in\n    tag_224:\n        /* \"#utility.yul\":8118:8202   */\n      swap2\n      pop\n        /* \"#utility.yul\":7921:8212   */\n      pop\n        /* \"#utility.yul\":7695:8219   */\n      swap3\n      swap2\n      pop\n      pop\n      jump\t// out\n        /* \"#utility.yul\":8225:8404   */\n    tag_109:\n        /* \"#utility.yul\":8365:8396   */\n      0x4d697373696e6720696e70757420666f7220746f6b656e206e616d6521000000\n        /* \"#utility.yul\":8361:8362   */\n      0x00\n        /* \"#utility.yul\":8353:8359   */\n      dup3\n        /* \"#utility.yul\":8349:8363   */\n      add\n        /* \"#utility.yul\":8342:8397   */\n      mstore\n        /* \"#utility.yul\":8225:8404   */\n      pop\n      jump\t// out\n        /* \"#utility.yul\":8410:8776   */\n    tag_110:\n        /* \"#utility.yul\":8552:8555   */\n      0x00\n        /* \"#utility.yul\":8573:8640   */\n      tag_227\n        /* \"#utility.yul\":8637:8639   */\n      0x1d\n        /* \"#utility.yul\":8632:8635   */\n      dup4\n        /* \"#utility.yul\":8573:8640   */\n      tag_87\n      jump\t// in\n    tag_227:\n        /* \"#utility.yul\":8566:8640   */\n      swap2\n      pop\n        /* \"#utility.yul\":8649:8742   */\n      tag_228\n        /* \"#utility.yul\":8738:8741   */\n      dup3\n        /* \"#utility.yul\":8649:8742   */\n      tag_109\n      jump\t// in\n    tag_228:\n        /* \"#utility.yul\":8767:8769   */\n      0x20\n        /* \"#utility.yul\":8762:8765   */\n      dup3\n        /* \"#utility.yul\":8758:8770   */\n      add\n        /* \"#utility.yul\":8751:8770   */\n      swap1\n      pop\n        /* \"#utility.yul\":8410:8776   */\n      swap2\n      swap1\n      pop\n      jump\t// out\n        /* \"#utility.yul\":8782:9201   */\n    tag_46:\n        /* \"#utility.yul\":8948:8952   */\n      0x00\n        /* \"#utility.yul\":8986:8988   */\n      0x20\n        /* \"#utility.yul\":8975:8984   */\n      dup3\n        /* \"#utility.yul\":8971:8989   */\n      add\n        /* \"#utility.yul\":8963:8989   */\n      swap1\n      pop\n        /* \"#utility.yul\":9035:9044   */\n      dup2\n        /* \"#utility.yul\":9029:9033   */\n      dup2\n        /* \"#utility.yul\":9025:9045   */\n      sub\n        /* \"#utility.yul\":9021:9022   */\n      0x00\n        /* \"#utility.yul\":9010:9019   */\n      dup4\n        /* \"#utility.yul\":9006:9023   */\n      add\n        /* \"#utility.yul\":8999:9046   */\n      mstore\n        /* \"#utility.yul\":9063:9194   */\n      tag_230\n        /* \"#utility.yul\":9189:9193   */\n      dup2\n        /* \"#utility.yul\":9063:9194   */\n      tag_110\n      jump\t// in\n    tag_230:\n        /* \"#utility.yul\":9055:9194   */\n      swap1\n      pop\n        /* \"#utility.yul\":8782:9201   */\n      swap2\n      swap1\n      pop\n      jump\t// out\n        /* \"#utility.yul\":9207:9437   */\n    tag_111:\n        /* \"#utility.yul\":9347:9381   */\n      0x446563696d616c732073686f756c64206265206c657373207468616e206f7220\n        /* \"#utility.yul\":9343:9344   */\n      0x00\n        /* \"#utility.yul\":9335:9341   */\n      dup3\n        /* \"#utility.yul\":9331:9345   */\n      add\n        /* \"#utility.yul\":9324:9382   */\n      mstore\n        /* \"#utility.yul\":9416:9429   */\n      0x657175616c20746f203138000000000000000000000000000000000000000000\n        /* \"#utility.yul\":9411:9413   */\n      0x20\n        /* \"#utility.yul\":9403:9409   */\n      dup3\n        /* \"#utility.yul\":9399:9414   */\n      add\n        /* \"#utility.yul\":9392:9430   */\n      mstore\n        /* \"#utility.yul\":9207:9437   */\n      pop\n      jump\t// out\n        /* \"#utility.yul\":9443:9809   */\n    tag_112:\n        /* \"#utility.yul\":9585:9588   */\n      0x00\n        /* \"#utility.yul\":9606:9673   */\n      tag_233\n        /* \"#utility.yul\":9670:9672   */\n      0x2b\n        /* \"#utility.yul\":9665:9668   */\n      dup4\n        /* \"#utility.yul\":9606:9673   */\n      tag_87\n      jump\t// in\n    tag_233:\n        /* \"#utility.yul\":9599:9673   */\n      swap2\n      pop\n        /* \"#utility.yul\":9682:9775   */\n      tag_234\n        /* \"#utility.yul\":9771:9774   */\n      dup3\n        /* \"#utility.yul\":9682:9775   */\n      tag_111\n      jump\t// in\n    tag_234:\n        /* \"#utility.yul\":9800:9802   */\n      0x40\n        /* \"#utility.yul\":9795:9798   */\n      dup3\n        /* \"#utility.yul\":9791:9803   */\n      add\n        /* \"#utility.yul\":9784:9803   */\n      swap1\n      pop\n        /* \"#utility.yul\":9443:9809   */\n      swap2\n      swap1\n      pop\n      jump\t// out\n        /* \"#utility.yul\":9815:10234   */\n    tag_50:\n        /* \"#utility.yul\":9981:9985   */\n      0x00\n        /* \"#utility.yul\":10019:10021   */\n      0x20\n        /* \"#utility.yul\":10008:10017   */\n      dup3\n        /* \"#utility.yul\":10004:10022   */\n      add\n        /* \"#utility.yul\":9996:10022   */\n      swap1\n      pop\n        /* \"#utility.yul\":10068:10077   */\n      dup2\n        /* \"#utility.yul\":10062:10066   */\n      dup2\n        /* \"#utility.yul\":10058:10078   */\n      sub\n        /* \"#utility.yul\":10054:10055   */\n      0x00\n        /* \"#utility.yul\":10043:10052   */\n      dup4\n        /* \"#utility.yul\":10039:10056   */\n      add\n        /* \"#utility.yul\":10032:10079   */\n      mstore\n        /* \"#utility.yul\":10096:10227   */\n      tag_236\n        /* \"#utility.yul\":10222:10226   */\n      dup2\n        /* \"#utility.yul\":10096:10227   */\n      tag_112\n      jump\t// in\n    tag_236:\n        /* \"#utility.yul\":10088:10227   */\n      swap1\n      pop\n        /* \"#utility.yul\":9815:10234   */\n      swap2\n      swap1\n      pop\n      jump\t// out\n        /* \"#utility.yul\":10240:10460   */\n    tag_113:\n        /* \"#utility.yul\":10380:10414   */\n      0x446563696d616c732073686f756c642062652067726561746572207468616e20\n        /* \"#utility.yul\":10376:10377   */\n      0x00\n        /* \"#utility.yul\":10368:10374   */\n      dup3\n        /* \"#utility.yul\":10364:10378   */\n      add\n        /* \"#utility.yul\":10357:10415   */\n      mstore\n        /* \"#utility.yul\":10449:10452   */\n      0x3000000000000000000000000000000000000000000000000000000000000000\n        /* \"#utility.yul\":10444:10446   */\n      0x20\n        /* \"#utility.yul\":10436:10442   */\n      dup3\n        /* \"#utility.yul\":10432:10447   */\n      add\n        /* \"#utility.yul\":10425:10453   */\n      mstore\n        /* \"#utility.yul\":10240:10460   */\n      pop\n      jump\t// out\n        /* \"#utility.yul\":10466:10832   */\n    tag_114:\n        /* \"#utility.yul\":10608:10611   */\n      0x00\n        /* \"#utility.yul\":10629:10696   */\n      tag_239\n        /* \"#utility.yul\":10693:10695   */\n      0x21\n        /* \"#utility.yul\":10688:10691   */\n      dup4\n        /* \"#utility.yul\":10629:10696   */\n      tag_87\n      jump\t// in\n    tag_239:\n        /* \"#utility.yul\":10622:10696   */\n      swap2\n      pop\n        /* \"#utility.yul\":10705:10798   */\n      tag_240\n        /* \"#utility.yul\":10794:10797   */\n      dup3\n        /* \"#utility.yul\":10705:10798   */\n      tag_113\n      jump\t// in\n    tag_240:\n        /* \"#utility.yul\":10823:10825   */\n      0x40\n        /* \"#utility.yul\":10818:10821   */\n      dup3\n        /* \"#utility.yul\":10814:10826   */\n      add\n        /* \"#utility.yul\":10807:10826   */\n      swap1\n      pop\n        /* \"#utility.yul\":10466:10832   */\n      swap2\n      swap1\n      pop\n      jump\t// out\n        /* \"#utility.yul\":10838:11257   */\n    tag_54:\n        /* \"#utility.yul\":11004:11008   */\n      0x00\n        /* \"#utility.yul\":11042:11044   */\n      0x20\n        /* \"#utility.yul\":11031:11040   */\n      dup3\n        /* \"#utility.yul\":11027:11045   */\n      add\n        /* \"#utility.yul\":11019:11045   */\n      swap1\n      pop\n        /* \"#utility.yul\":11091:11100   */\n      dup2\n        /* \"#utility.yul\":11085:11089   */\n      dup2\n        /* \"#utility.yul\":11081:11101   */\n      sub\n        /* \"#utility.yul\":11077:11078   */\n      0x00\n        /* \"#utility.yul\":11066:11075   */\n      dup4\n        /* \"#utility.yul\":11062:11079   */\n      add\n        /* \"#utility.yul\":11055:11102   */\n      mstore\n        /* \"#utility.yul\":11119:11250   */\n      tag_242\n        /* \"#utility.yul\":11245:11249   */\n      dup2\n        /* \"#utility.yul\":11119:11250   */\n      tag_114\n      jump\t// in\n    tag_242:\n        /* \"#utility.yul\":11111:11250   */\n      swap1\n      pop\n        /* \"#utility.yul\":10838:11257   */\n      swap2\n      swap1\n      pop\n      jump\t// out\n        /* \"#utility.yul\":11263:11487   */\n    tag_115:\n        /* \"#utility.yul\":11403:11437   */\n      0x546f6b656e2076616c7565732073686f756c6420626520677265617465722074\n        /* \"#utility.yul\":11399:11400   */\n      0x00\n        /* \"#utility.yul\":11391:11397   */\n      dup3\n        /* \"#utility.yul\":11387:11401   */\n      add\n        /* \"#utility.yul\":11380:11438   */\n      mstore\n        /* \"#utility.yul\":11472:11479   */\n      0x68616e2030000000000000000000000000000000000000000000000000000000\n        /* \"#utility.yul\":11467:11469   */\n      0x20\n        /* \"#utility.yul\":11459:11465   */\n      dup3\n        /* \"#utility.yul\":11455:11470   */\n      add\n        /* \"#utility.yul\":11448:11480   */\n      mstore\n        /* \"#utility.yul\":11263:11487   */\n      pop\n      jump\t// out\n        /* \"#utility.yul\":11493:11859   */\n    tag_116:\n        /* \"#utility.yul\":11635:11638   */\n      0x00\n        /* \"#utility.yul\":11656:11723   */\n      tag_245\n        /* \"#utility.yul\":11720:11722   */\n      0x25\n        /* \"#utility.yul\":11715:11718   */\n      dup4\n        /* \"#utility.yul\":11656:11723   */\n      tag_87\n      jump\t// in\n    tag_245:\n        /* \"#utility.yul\":11649:11723   */\n      swap2\n      pop\n        /* \"#utility.yul\":11732:11825   */\n      tag_246\n        /* \"#utility.yul\":11821:11824   */\n      dup3\n        /* \"#utility.yul\":11732:11825   */\n      tag_115\n      jump\t// in\n    tag_246:\n        /* \"#utility.yul\":11850:11852   */\n      0x40\n        /* \"#utility.yul\":11845:11848   */\n      dup3\n        /* \"#utility.yul\":11841:11853   */\n      add\n        /* \"#utility.yul\":11834:11853   */\n      swap1\n      pop\n        /* \"#utility.yul\":11493:11859   */\n      swap2\n      swap1\n      pop\n      jump\t// out\n        /* \"#utility.yul\":11865:12284   */\n    tag_58:\n        /* \"#utility.yul\":12031:12035   */\n      0x00\n        /* \"#utility.yul\":12069:12071   */\n      0x20\n        /* \"#utility.yul\":12058:12067   */\n      dup3\n        /* \"#utility.yul\":12054:12072   */\n      add\n        /* \"#utility.yul\":12046:12072   */\n      swap1\n      pop\n        /* \"#utility.yul\":12118:12127   */\n      dup2\n        /* \"#utility.yul\":12112:12116   */\n      dup2\n        /* \"#utility.yul\":12108:12128   */\n      sub\n        /* \"#utility.yul\":12104:12105   */\n      0x00\n        /* \"#utility.yul\":12093:12102   */\n      dup4\n        /* \"#utility.yul\":12089:12106   */\n      add\n        /* \"#utility.yul\":12082:12129   */\n      mstore\n        /* \"#utility.yul\":12146:12277   */\n      tag_248\n        /* \"#utility.yul\":12272:12276   */\n      dup2\n        /* \"#utility.yul\":12146:12277   */\n      tag_116\n      jump\t// in\n    tag_248:\n        /* \"#utility.yul\":12138:12277   */\n      swap1\n      pop\n        /* \"#utility.yul\":11865:12284   */\n      swap2\n      swap1\n      pop\n      jump\t// out\n        /* \"#utility.yul\":12290:12470   */\n    tag_117:\n        /* \"#utility.yul\":12338:12415   */\n      0x4e487b7100000000000000000000000000000000000000000000000000000000\n        /* \"#utility.yul\":12335:12336   */\n      0x00\n        /* \"#utility.yul\":12328:12416   */\n      mstore\n        /* \"#utility.yul\":12435:12439   */\n      0x11\n        /* \"#utility.yul\":12432:12433   */\n      0x04\n        /* \"#utility.yul\":12425:12440   */\n      mstore\n        /* \"#utility.yul\":12459:12463   */\n      0x24\n        /* \"#utility.yul\":12456:12457   */\n      0x00\n        /* \"#utility.yul\":12449:12464   */\n      revert\n        /* \"#utility.yul\":12476:12670   */\n    tag_61:\n        /* \"#utility.yul\":12516:12520   */\n      0x00\n        /* \"#utility.yul\":12536:12556   */\n      tag_251\n        /* \"#utility.yul\":12554:12555   */\n      dup3\n        /* \"#utility.yul\":12536:12556   */\n      tag_84\n      jump\t// in\n    tag_251:\n        /* \"#utility.yul\":12531:12556   */\n      swap2\n      pop\n        /* \"#utility.yul\":12570:12590   */\n      tag_252\n        /* \"#utility.yul\":12588:12589   */\n      dup4\n        /* \"#utility.yul\":12570:12590   */\n      tag_84\n      jump\t// in\n    tag_252:\n        /* \"#utility.yul\":12565:12590   */\n      swap3\n      pop\n        /* \"#utility.yul\":12614:12615   */\n      dup3\n        /* \"#utility.yul\":12611:12612   */\n      dup3\n        /* \"#utility.yul\":12607:12616   */\n      sub\n        /* \"#utility.yul\":12599:12616   */\n      swap1\n      pop\n        /* \"#utility.yul\":12638:12639   */\n      dup2\n        /* \"#utility.yul\":12632:12636   */\n      dup2\n        /* \"#utility.yul\":12629:12640   */\n      gt\n        /* \"#utility.yul\":12626:12663   */\n      iszero\n      tag_253\n      jumpi\n        /* \"#utility.yul\":12643:12661   */\n      tag_254\n      tag_117\n      jump\t// in\n    tag_254:\n        /* \"#utility.yul\":12626:12663   */\n    tag_253:\n        /* \"#utility.yul\":12476:12670   */\n      swap3\n      swap2\n      pop\n      pop\n      jump\t// out\n        /* \"#utility.yul\":12676:12778   */\n    tag_118:\n        /* \"#utility.yul\":12718:12726   */\n      0x00\n        /* \"#utility.yul\":12765:12770   */\n      dup2\n        /* \"#utility.yul\":12762:12763   */\n      0x01\n        /* \"#utility.yul\":12758:12771   */\n      shr\n        /* \"#utility.yul\":12737:12771   */\n      swap1\n      pop\n        /* \"#utility.yul\":12676:12778   */\n      swap2\n      swap1\n      pop\n      jump\t// out\n        /* \"#utility.yul\":12784:13632   */\n    tag_119:\n        /* \"#utility.yul\":12845:12850   */\n      0x00\n        /* \"#utility.yul\":12852:12856   */\n      dup1\n        /* \"#utility.yul\":12876:12882   */\n      dup3\n        /* \"#utility.yul\":12867:12882   */\n      swap2\n      pop\n        /* \"#utility.yul\":12900:12905   */\n      dup4\n        /* \"#utility.yul\":12891:12905   */\n      swap1\n      pop\n        /* \"#utility.yul\":12914:13626   */\n    tag_257:\n        /* \"#utility.yul\":12935:12936   */\n      0x01\n        /* \"#utility.yul\":12925:12933   */\n      dup6\n        /* \"#utility.yul\":12922:12937   */\n      gt\n        /* \"#utility.yul\":12914:13626   */\n      iszero\n      tag_259\n      jumpi\n        /* \"#utility.yul\":13030:13034   */\n      dup1\n        /* \"#utility.yul\":13025:13028   */\n      dup7\n        /* \"#utility.yul\":13021:13035   */\n      div\n        /* \"#utility.yul\":13015:13019   */\n      dup2\n        /* \"#utility.yul\":13012:13036   */\n      gt\n        /* \"#utility.yul\":13009:13059   */\n      iszero\n      tag_260\n      jumpi\n        /* \"#utility.yul\":13039:13057   */\n      tag_261\n      tag_117\n      jump\t// in\n    tag_261:\n        /* \"#utility.yul\":13009:13059   */\n    tag_260:\n        /* \"#utility.yul\":13089:13090   */\n      0x01\n        /* \"#utility.yul\":13079:13087   */\n      dup6\n        /* \"#utility.yul\":13075:13091   */\n      and\n        /* \"#utility.yul\":13072:13523   */\n      iszero\n      tag_262\n      jumpi\n        /* \"#utility.yul\":13504:13508   */\n      dup1\n        /* \"#utility.yul\":13497:13502   */\n      dup3\n        /* \"#utility.yul\":13493:13509   */\n      mul\n        /* \"#utility.yul\":13484:13509   */\n      swap2\n      pop\n        /* \"#utility.yul\":13072:13523   */\n    tag_262:\n        /* \"#utility.yul\":13554:13558   */\n      dup1\n        /* \"#utility.yul\":13548:13552   */\n      dup2\n        /* \"#utility.yul\":13544:13559   */\n      mul\n        /* \"#utility.yul\":13536:13559   */\n      swap1\n      pop\n        /* \"#utility.yul\":13584:13616   */\n      tag_263\n        /* \"#utility.yul\":13607:13615   */\n      dup6\n        /* \"#utility.yul\":13584:13616   */\n      tag_118\n      jump\t// in\n    tag_263:\n        /* \"#utility.yul\":13572:13616   */\n      swap5\n      pop\n        /* \"#utility.yul\":12914:13626   */\n      jump(tag_257)\n    tag_259:\n        /* \"#utility.yul\":12784:13632   */\n      swap5\n      pop\n      swap5\n      swap3\n      pop\n      pop\n      pop\n      jump\t// out\n        /* \"#utility.yul\":13638:14711   */\n    tag_120:\n        /* \"#utility.yul\":13692:13697   */\n      0x00\n        /* \"#utility.yul\":13883:13891   */\n      dup3\n        /* \"#utility.yul\":13873:13913   */\n      tag_265\n      jumpi\n        /* \"#utility.yul\":13904:13905   */\n      0x01\n        /* \"#utility.yul\":13895:13905   */\n      swap1\n      pop\n        /* \"#utility.yul\":13906:13911   */\n      jump(tag_264)\n        /* \"#utility.yul\":13873:13913   */\n    tag_265:\n        /* \"#utility.yul\":13932:13936   */\n      dup2\n        /* \"#utility.yul\":13922:13958   */\n      tag_266\n      jumpi\n        /* \"#utility.yul\":13949:13950   */\n      0x00\n        /* \"#utility.yul\":13940:13950   */\n      swap1\n      pop\n        /* \"#utility.yul\":13951:13956   */\n      jump(tag_264)\n        /* \"#utility.yul\":13922:13958   */\n    tag_266:\n        /* \"#utility.yul\":14018:14022   */\n      dup2\n        /* \"#utility.yul\":14066:14067   */\n      0x01\n        /* \"#utility.yul\":14061:14088   */\n      dup2\n      eq\n      tag_268\n      jumpi\n        /* \"#utility.yul\":14102:14103   */\n      0x02\n        /* \"#utility.yul\":14097:14288   */\n      dup2\n      eq\n      tag_269\n      jumpi\n        /* \"#utility.yul\":14011:14288   */\n      jump(tag_267)\n        /* \"#utility.yul\":14061:14088   */\n    tag_268:\n        /* \"#utility.yul\":14079:14080   */\n      0x01\n        /* \"#utility.yul\":14070:14080   */\n      swap2\n      pop\n        /* \"#utility.yul\":14081:14086   */\n      pop\n      jump(tag_264)\n        /* \"#utility.yul\":14097:14288   */\n    tag_269:\n        /* \"#utility.yul\":14142:14145   */\n      0xff\n        /* \"#utility.yul\":14132:14140   */\n      dup5\n        /* \"#utility.yul\":14129:14146   */\n      gt\n        /* \"#utility.yul\":14126:14169   */\n      iszero\n      tag_270\n      jumpi\n        /* \"#utility.yul\":14149:14167   */\n      tag_271\n      tag_117\n      jump\t// in\n    tag_271:\n        /* \"#utility.yul\":14126:14169   */\n    tag_270:\n        /* \"#utility.yul\":14198:14206   */\n      dup4\n        /* \"#utility.yul\":14195:14196   */\n      0x02\n        /* \"#utility.yul\":14191:14207   */\n      exp\n        /* \"#utility.yul\":14182:14207   */\n      swap2\n      pop\n        /* \"#utility.yul\":14233:14236   */\n      dup5\n        /* \"#utility.yul\":14226:14231   */\n      dup3\n        /* \"#utility.yul\":14223:14237   */\n      gt\n        /* \"#utility.yul\":14220:14260   */\n      iszero\n      tag_272\n      jumpi\n        /* \"#utility.yul\":14240:14258   */\n      tag_273\n      tag_117\n      jump\t// in\n    tag_273:\n        /* \"#utility.yul\":14220:14260   */\n    tag_272:\n        /* \"#utility.yul\":14273:14278   */\n      pop\n      jump(tag_264)\n        /* \"#utility.yul\":14011:14288   */\n    tag_267:\n      pop\n        /* \"#utility.yul\":14397:14399   */\n      0x20\n        /* \"#utility.yul\":14387:14395   */\n      dup4\n        /* \"#utility.yul\":14384:14400   */\n      lt\n        /* \"#utility.yul\":14378:14381   */\n      0x0133\n        /* \"#utility.yul\":14372:14376   */\n      dup4\n        /* \"#utility.yul\":14369:14382   */\n      lt\n        /* \"#utility.yul\":14365:14401   */\n      and\n        /* \"#utility.yul\":14347:14349   */\n      0x4e\n        /* \"#utility.yul\":14337:14345   */\n      dup5\n        /* \"#utility.yul\":14334:14350   */\n      lt\n        /* \"#utility.yul\":14329:14331   */\n      0x0b\n        /* \"#utility.yul\":14323:14327   */\n      dup5\n        /* \"#utility.yul\":14320:14332   */\n      lt\n        /* \"#utility.yul\":14316:14351   */\n      and\n        /* \"#utility.yul\":14300:14411   */\n      or\n        /* \"#utility.yul\":14297:14543   */\n      iszero\n      tag_274\n      jumpi\n        /* \"#utility.yul\":14453:14461   */\n      dup3\n        /* \"#utility.yul\":14447:14451   */\n      dup3\n        /* \"#utility.yul\":14443:14462   */\n      exp\n        /* \"#utility.yul\":14434:14462   */\n      swap1\n      pop\n        /* \"#utility.yul\":14488:14491   */\n      dup4\n        /* \"#utility.yul\":14481:14486   */\n      dup2\n        /* \"#utility.yul\":14478:14492   */\n      gt\n        /* \"#utility.yul\":14475:14515   */\n      iszero\n      tag_275\n      jumpi\n        /* \"#utility.yul\":14495:14513   */\n      tag_276\n      tag_117\n      jump\t// in\n    tag_276:\n        /* \"#utility.yul\":14475:14515   */\n    tag_275:\n        /* \"#utility.yul\":14528:14533   */\n      jump(tag_264)\n        /* \"#utility.yul\":14297:14543   */\n    tag_274:\n        /* \"#utility.yul\":14568:14610   */\n      tag_277\n        /* \"#utility.yul\":14606:14609   */\n      dup5\n        /* \"#utility.yul\":14596:14604   */\n      dup5\n        /* \"#utility.yul\":14590:14594   */\n      dup5\n        /* \"#utility.yul\":14587:14588   */\n      0x01\n        /* \"#utility.yul\":14568:14610   */\n      tag_119\n      jump\t// in\n    tag_277:\n        /* \"#utility.yul\":14553:14610   */\n      swap3\n      pop\n      swap1\n      pop\n        /* \"#utility.yul\":14642:14646   */\n      dup2\n        /* \"#utility.yul\":14637:14640   */\n      dup5\n        /* \"#utility.yul\":14633:14647   */\n      div\n        /* \"#utility.yul\":14626:14631   */\n      dup2\n        /* \"#utility.yul\":14623:14648   */\n      gt\n        /* \"#utility.yul\":14620:14671   */\n      iszero\n      tag_278\n      jumpi\n        /* \"#utility.yul\":14651:14669   */\n      tag_279\n      tag_117\n      jump\t// in\n    tag_279:\n        /* \"#utility.yul\":14620:14671   */\n    tag_278:\n        /* \"#utility.yul\":14700:14704   */\n      dup2\n        /* \"#utility.yul\":14693:14698   */\n      dup2\n        /* \"#utility.yul\":14689:14705   */\n      mul\n        /* \"#utility.yul\":14680:14705   */\n      swap1\n      pop\n        /* \"#utility.yul\":13638:14711   */\n    tag_264:\n      swap4\n      swap3\n      pop\n      pop\n      pop\n      jump\t// out\n        /* \"#utility.yul\":14717:15002   */\n    tag_63:\n        /* \"#utility.yul\":14777:14782   */\n      0x00\n        /* \"#utility.yul\":14801:14824   */\n      tag_281\n        /* \"#utility.yul\":14819:14823   */\n      dup3\n        /* \"#utility.yul\":14801:14824   */\n      tag_84\n      jump\t// in\n    tag_281:\n        /* \"#utility.yul\":14793:14824   */\n      swap2\n      pop\n        /* \"#utility.yul\":14845:14872   */\n      tag_282\n        /* \"#utility.yul\":14863:14871   */\n      dup4\n        /* \"#utility.yul\":14845:14872   */\n      tag_84\n      jump\t// in\n    tag_282:\n        /* \"#utility.yul\":14833:14872   */\n      swap3\n      pop\n        /* \"#utility.yul\":14891:14995   */\n      tag_283\n        /* \"#utility.yul\":14928:14994   */\n      0xffffffffffffffffffffffffffffffffffffffffffffffffffffffffffffffff\n        /* \"#utility.yul\":14918:14926   */\n      dup5\n        /* \"#utility.yul\":14912:14916   */\n      dup5\n        /* \"#utility.yul\":14891:14995   */\n      tag_120\n      jump\t// in\n    tag_283:\n        /* \"#utility.yul\":14882:14995   */\n      swap1\n      pop\n        /* \"#utility.yul\":14717:15002   */\n      swap3\n      swap2\n      pop\n      pop\n      jump\t// out\n        /* \"#utility.yul\":15008:15418   */\n    tag_65:\n        /* \"#utility.yul\":15048:15055   */\n      0x00\n        /* \"#utility.yul\":15071:15091   */\n      tag_285\n        /* \"#utility.yul\":15089:15090   */\n      dup3\n        /* \"#utility.yul\":15071:15091   */\n      tag_84\n      jump\t// in\n    tag_285:\n        /* \"#utility.yul\":15066:15091   */\n      swap2\n      pop\n        /* \"#utility.yul\":15105:15125   */\n      tag_286\n        /* \"#utility.yul\":15123:15124   */\n      dup4\n        /* \"#utility.yul\":15105:15125   */\n      tag_84\n      jump\t// in\n    tag_286:\n        /* \"#utility.yul\":15100:15125   */\n      swap3\n      pop\n        /* \"#utility.yul\":15160:15161   */\n      dup3\n        /* \"#utility.yul\":15157:15158   */\n      dup3\n        /* \"#utility.yul\":15153:15162   */\n      mul\n        /* \"#utility.yul\":15182:15212   */\n      tag_287\n        /* \"#utility.yul\":15200:15211   */\n      dup2\n        /* \"#utility.yul\":15182:15212   */\n      tag_84\n      jump\t// in\n    tag_287:\n        /* \"#utility.yul\":15171:15212   */\n      swap2\n      pop\n        /* \"#utility.yul\":15361:15362   */\n      dup3\n        /* \"#utility.yul\":15352:15359   */\n      dup3\n        /* \"#utility.yul\":15348:15363   */\n      div\n        /* \"#utility.yul\":15345:15346   */\n      dup5\n        /* \"#utility.yul\":15342:15364   */\n      eq\n        /* \"#utility.yul\":15322:15323   */\n      dup4\n        /* \"#utility.yul\":15315:15324   */\n      iszero\n        /* \"#utility.yul\":15295:15378   */\n      or\n        /* \"#utility.yul\":15272:15411   */\n      tag_288\n      jumpi\n        /* \"#utility.yul\":15391:15409   */\n      tag_289\n      tag_117\n      jump\t// in\n    tag_289:\n        /* \"#utility.yul\":15272:15411   */\n    tag_288:\n        /* \"#utility.yul\":15056:15418   */\n      pop\n        /* \"#utility.yul\":15008:15418   */\n      swap3\n      swap2\n      pop\n      pop\n      jump\t// out\n        /* \"#utility.yul\":15424:15604   */\n    tag_121:\n        /* \"#utility.yul\":15472:15549   */\n      0x4e487b7100000000000000000000000000000000000000000000000000000000\n        /* \"#utility.yul\":15469:15470   */\n      0x00\n        /* \"#utility.yul\":15462:15550   */\n      mstore\n        /* \"#utility.yul\":15569:15573   */\n      0x12\n        /* \"#utility.yul\":15566:15567   */\n      0x04\n        /* \"#utility.yul\":15559:15574   */\n      mstore\n        /* \"#utility.yul\":15593:15597   */\n      0x24\n        /* \"#utility.yul\":15590:15591   */\n      0x00\n        /* \"#utility.yul\":15583:15598   */\n      revert\n        /* \"#utility.yul\":15610:15795   */\n    tag_72:\n        /* \"#utility.yul\":15650:15651   */\n      0x00\n        /* \"#utility.yul\":15667:15687   */\n      tag_292\n        /* \"#utility.yul\":15685:15686   */\n      dup3\n        /* \"#utility.yul\":15667:15687   */\n      tag_84\n      jump\t// in\n    tag_292:\n        /* \"#utility.yul\":15662:15687   */\n      swap2\n      pop\n        /* \"#utility.yul\":15701:15721   */\n      tag_293\n        /* \"#utility.yul\":15719:15720   */\n      dup4\n        /* \"#utility.yul\":15701:15721   */\n      tag_84\n      jump\t// in\n    tag_293:\n        /* \"#utility.yul\":15696:15721   */\n      swap3\n      pop\n        /* \"#utility.yul\":15740:15741   */\n      dup3\n        /* \"#utility.yul\":15730:15765   */\n      tag_294\n      jumpi\n        /* \"#utility.yul\":15745:15763   */\n      tag_295\n      tag_121\n      jump\t// in\n    tag_295:\n        /* \"#utility.yul\":15730:15765   */\n    tag_294:\n        /* \"#utility.yul\":15787:15788   */\n      dup3\n        /* \"#utility.yul\":15784:15785   */\n      dup3\n        /* \"#utility.yul\":15780:15789   */\n      div\n        /* \"#utility.yul\":15775:15789   */\n      swap1\n      pop\n        /* \"#utility.yul\":15610:15795   */\n      swap3\n      swap2\n      pop\n      pop\n      jump\t// out\n        /* \"#utility.yul\":15801:15949   */\n    tag_122:\n        /* \"#utility.yul\":15903:15914   */\n      0x00\n        /* \"#utility.yul\":15940:15943   */\n      dup2\n        /* \"#utility.yul\":15925:15943   */\n      swap1\n      pop\n        /* \"#utility.yul\":15801:15949   */\n      swap3\n      swap2\n      pop\n      pop\n      jump\t// out\n        /* \"#utility.yul\":15955:16345   */\n    tag_123:\n        /* \"#utility.yul\":16061:16064   */\n      0x00\n        /* \"#utility.yul\":16089:16128   */\n      tag_298\n        /* \"#utility.yul\":16122:16127   */\n      dup3\n        /* \"#utility.yul\":16089:16128   */\n      tag_86\n      jump\t// in\n    tag_298:\n        /* \"#utility.yul\":16144:16233   */\n      tag_299\n        /* \"#utility.yul\":16226:16232   */\n      dup2\n        /* \"#utility.yul\":16221:16224   */\n      dup6\n        /* \"#utility.yul\":16144:16233   */\n      tag_122\n      jump\t// in\n    tag_299:\n        /* \"#utility.yul\":16137:16233   */\n      swap4\n      pop\n        /* \"#utility.yul\":16242:16307   */\n      tag_300\n        /* \"#utility.yul\":16300:16306   */\n      dup2\n        /* \"#utility.yul\":16295:16298   */\n      dup6\n        /* \"#utility.yul\":16288:16292   */\n      0x20\n        /* \"#utility.yul\":16281:16286   */\n      dup7\n        /* \"#utility.yul\":16277:16293   */\n      add\n        /* \"#utility.yul\":16242:16307   */\n      tag_88\n      jump\t// in\n    tag_300:\n        /* \"#utility.yul\":16332:16338   */\n      dup1\n        /* \"#utility.yul\":16327:16330   */\n      dup5\n        /* \"#utility.yul\":16323:16339   */\n      add\n        /* \"#utility.yul\":16316:16339   */\n      swap2\n      pop\n        /* \"#utility.yul\":16065:16345   */\n      pop\n        /* \"#utility.yul\":15955:16345   */\n      swap3\n      swap2\n      pop\n      pop\n      jump\t// out\n        /* \"#utility.yul\":16351:16529   */\n    tag_124:\n        /* \"#utility.yul\":16519:16522   */\n      0x2f00000000000000000000000000000000000000000000000000000000000000\n        /* \"#utility.yul\":16514:16517   */\n      dup2\n        /* \"#utility.yul\":16507:16523   */\n      mstore\n        /* \"#utility.yul\":16351:16529   */\n      pop\n      jump\t// out\n        /* \"#utility.yul\":16535:17234   */\n    tag_76:\n        /* \"#utility.yul\":16805:16808   */\n      0x00\n        /* \"#utility.yul\":16827:16922   */\n      tag_303\n        /* \"#utility.yul\":16918:16921   */\n      dup3\n        /* \"#utility.yul\":16909:16915   */\n      dup6\n        /* \"#utility.yul\":16827:16922   */\n      tag_123\n      jump\t// in\n    tag_303:\n        /* \"#utility.yul\":16820:16922   */\n      swap2\n      pop\n        /* \"#utility.yul\":16932:17069   */\n      tag_304\n        /* \"#utility.yul\":17065:17068   */\n      dup3\n        /* \"#utility.yul\":16932:17069   */\n      tag_124\n      jump\t// in\n    tag_304:\n        /* \"#utility.yul\":17094:17095   */\n      0x01\n        /* \"#utility.yul\":17089:17092   */\n      dup3\n        /* \"#utility.yul\":17085:17096   */\n      add\n        /* \"#utility.yul\":17078:17096   */\n      swap2\n      pop\n        /* \"#utility.yul\":17113:17208   */\n      tag_305\n        /* \"#utility.yul\":17204:17207   */\n      dup3\n        /* \"#utility.yul\":17195:17201   */\n      dup5\n        /* \"#utility.yul\":17113:17208   */\n      tag_123\n      jump\t// in\n    tag_305:\n        /* \"#utility.yul\":17106:17208   */\n      swap2\n      pop\n        /* \"#utility.yul\":17225:17228   */\n      dup2\n        /* \"#utility.yul\":17218:17228   */\n      swap1\n      pop\n        /* \"#utility.yul\":16535:17234   */\n      swap4\n      swap3\n      pop\n      pop\n      pop\n      jump\t// out\n\n    auxdata: 0xa2646970667358221220f058cc59dd34a344aca20e08d7c38e74c3404e14e4590e49fbb1511fad7dd37364736f6c63430008170033\n}\n",
				"bytecode": {
					"linkReferences": {},
					"object": "60806040523480156200001157600080fd5b50604051620012ee380380620012ee8339818101604052810190620000379190620000e8565b806000806101000a81548173ffffffffffffffffffffffffffffffffffffffff021916908373ffffffffffffffffffffffffffffffffffffffff160217905550506200011a565b600080fd5b600073ffffffffffffffffffffffffffffffffffffffff82169050919050565b6000620000b08262000083565b9050919050565b620000c281620000a3565b8114620000ce57600080fd5b50565b600081519050620000e281620000b7565b92915050565b6000602082840312156200010157620001006200007e565b5b60006200011184828501620000d1565b91505092915050565b6111c4806200012a6000396000f3fe608060405234801561001057600080fd5b50600436106100365760003560e01c806324f16f201461003b57806385096edc14610057575b600080fd5b61005560048036038101906100509190610846565b610078565b005b61005f6100bb565b60405161006f949392919061091c565b60405180910390f35b806000806101000a81548173ffffffffffffffffffffffffffffffffffffffff021916908373ffffffffffffffffffffffffffffffffffffffff16021790555050565b600080606060008060008060008054906101000a900473ffffffffffffffffffffffffffffffffffffffff1673ffffffffffffffffffffffffffffffffffffffff16630902f1ac6040518163ffffffff1660e01b81526004016060604051808303816000875af1158015610133573d6000803e3d6000fd5b505050506040513d601f19601f8201168201806040525081019061015791906109ea565b92506dffffffffffffffffffffffffffff1692506dffffffffffffffffffffffffffff16925060008060009054906101000a900473ffffffffffffffffffffffffffffffffffffffff1673ffffffffffffffffffffffffffffffffffffffff16630dfe16816040518163ffffffff1660e01b81526004016020604051808303816000875af11580156101ed573d6000803e3d6000fd5b505050506040513d601f19601f820116820180604052508101906102119190610a52565b905060008060009054906101000a900473ffffffffffffffffffffffffffffffffffffffff1673ffffffffffffffffffffffffffffffffffffffff1663d21220a76040518163ffffffff1660e01b81526004016020604051808303816000875af1158015610283573d6000803e3d6000fd5b505050506040513d601f19601f820116820180604052508101906102a79190610a52565b905081600160006101000a81548173ffffffffffffffffffffffffffffffffffffffff021916908373ffffffffffffffffffffffffffffffffffffffff16021790555080600260006101000a81548173ffffffffffffffffffffffffffffffffffffffff021916908373ffffffffffffffffffffffffffffffffffffffff1602179055506000600160009054906101000a900473ffffffffffffffffffffffffffffffffffffffff1673ffffffffffffffffffffffffffffffffffffffff1663313ce5676040518163ffffffff1660e01b81526004016020604051808303816000875af115801561039c573d6000803e3d6000fd5b505050506040513d601f19601f820116820180604052508101906103c09190610ab8565b60ff1690506000600260009054906101000a900473ffffffffffffffffffffffffffffffffffffffff1673ffffffffffffffffffffffffffffffffffffffff1663313ce5676040518163ffffffff1660e01b81526004016020604051808303816000875af1158015610436573d6000803e3d6000fd5b505050506040513d601f19601f8201168201806040525081019061045a9190610ab8565b60ff1690506000600160009054906101000a900473ffffffffffffffffffffffffffffffffffffffff1673ffffffffffffffffffffffffffffffffffffffff166306fdde036040518163ffffffff1660e01b81526004016000604051808303816000875af11580156104d0573d6000803e3d6000fd5b505050506040513d6000823e3d601f19601f820116820180604052508101906104f99190610c0b565b90506000600260009054906101000a900473ffffffffffffffffffffffffffffffffffffffff1673ffffffffffffffffffffffffffffffffffffffff166306fdde036040518163ffffffff1660e01b81526004016000604051808303816000875af115801561056c573d6000803e3d6000fd5b505050506040513d6000823e3d601f19601f820116820180604052508101906105959190610c0b565b90506105a68985848b87868d6105bd565b9c509c509c509c5050505050505050505090919293565b600080606060008089511180156105d5575060008651115b610614576040517f08c379a000000000000000000000000000000000000000000000000000000000815260040161060b90610ca0565b60405180910390fd5b60128a11158015610626575060128711155b610665576040517f08c379a000000000000000000000000000000000000000000000000000000000815260040161065c90610d32565b60405180910390fd5b60008a1180156106755750600087115b6106b4576040517f08c379a00000000000000000000000000000000000000000000000000000000081526004016106ab90610dc4565b60405180910390fd5b60008b1180156106c45750600088115b610703576040517f08c379a00000000000000000000000000000000000000000000000000000000081526004016106fa90610e56565b60405180910390fd5b868a111561073557868a6107179190610ea5565b600a610723919061100c565b8861072e9190611057565b975061075b565b89876107419190610ea5565b600a61074d919061100c565b8b6107589190611057565b9a505b6305f5e100808c6305f5e1008b6107729190611057565b61077c91906110c8565b6107869190611057565b61079091906110c8565b6008878b6040516020016107a592919061115b565b604051602081830303815290604052878063ffffffff1690509350935093509350975097509750979350505050565b6000604051905090565b600080fd5b600080fd5b600073ffffffffffffffffffffffffffffffffffffffff82169050919050565b6000610813826107e8565b9050919050565b61082381610808565b811461082e57600080fd5b50565b6000813590506108408161081a565b92915050565b60006020828403121561085c5761085b6107de565b5b600061086a84828501610831565b91505092915050565b6000819050919050565b61088681610873565b82525050565b600081519050919050565b600082825260208201905092915050565b60005b838110156108c65780820151818401526020810190506108ab565b60008484015250505050565b6000601f19601f8301169050919050565b60006108ee8261088c565b6108f88185610897565b93506109088185602086016108a8565b610911816108d2565b840191505092915050565b6000608082019050610931600083018761087d565b61093e602083018661087d565b818103604083015261095081856108e3565b905061095f606083018461087d565b95945050505050565b60006dffffffffffffffffffffffffffff82169050919050565b61098b81610968565b811461099657600080fd5b50565b6000815190506109a881610982565b92915050565b600063ffffffff82169050919050565b6109c7816109ae565b81146109d257600080fd5b50565b6000815190506109e4816109be565b92915050565b600080600060608486031215610a0357610a026107de565b5b6000610a1186828701610999565b9350506020610a2286828701610999565b9250506040610a33868287016109d5565b9150509250925092565b600081519050610a4c8161081a565b92915050565b600060208284031215610a6857610a676107de565b5b6000610a7684828501610a3d565b91505092915050565b600060ff82169050919050565b610a9581610a7f565b8114610aa057600080fd5b50565b600081519050610ab281610a8c565b92915050565b600060208284031215610ace57610acd6107de565b5b6000610adc84828501610aa3565b91505092915050565b600080fd5b600080fd5b7f4e487b7100000000000000000000000000000000000000000000000000000000600052604160045260246000fd5b610b27826108d2565b810181811067ffffffffffffffff82111715610b4657610b45610aef565b5b80604052505050565b6000610b596107d4565b9050610b658282610b1e565b919050565b600067ffffffffffffffff821115610b8557610b84610aef565b5b610b8e826108d2565b9050602081019050919050565b6000610bae610ba984610b6a565b610b4f565b905082815260208101848484011115610bca57610bc9610aea565b5b610bd58482856108a8565b509392505050565b600082601f830112610bf257610bf1610ae5565b5b8151610c02848260208601610b9b565b91505092915050565b600060208284031215610c2157610c206107de565b5b600082015167ffffffffffffffff811115610c3f57610c3e6107e3565b5b610c4b84828501610bdd565b91505092915050565b7f4d697373696e6720696e70757420666f7220746f6b656e206e616d6521000000600082015250565b6000610c8a601d83610897565b9150610c9582610c54565b602082019050919050565b60006020820190508181036000830152610cb981610c7d565b9050919050565b7f446563696d616c732073686f756c64206265206c657373207468616e206f722060008201527f657175616c20746f203138000000000000000000000000000000000000000000602082015250565b6000610d1c602b83610897565b9150610d2782610cc0565b604082019050919050565b60006020820190508181036000830152610d4b81610d0f565b9050919050565b7f446563696d616c732073686f756c642062652067726561746572207468616e2060008201527f3000000000000000000000000000000000000000000000000000000000000000602082015250565b6000610dae602183610897565b9150610db982610d52565b604082019050919050565b60006020820190508181036000830152610ddd81610da1565b9050919050565b7f546f6b656e2076616c7565732073686f756c642062652067726561746572207460008201527f68616e2030000000000000000000000000000000000000000000000000000000602082015250565b6000610e40602583610897565b9150610e4b82610de4565b604082019050919050565b60006020820190508181036000830152610e6f81610e33565b9050919050565b7f4e487b7100000000000000000000000000000000000000000000000000000000600052601160045260246000fd5b6000610eb082610873565b9150610ebb83610873565b9250828203905081811115610ed357610ed2610e76565b5b92915050565b60008160011c9050919050565b6000808291508390505b6001851115610f3057808604811115610f0c57610f0b610e76565b5b6001851615610f1b5780820291505b8081029050610f2985610ed9565b9450610ef0565b94509492505050565b600082610f495760019050611005565b81610f575760009050611005565b8160018114610f6d5760028114610f7757610fa6565b6001915050611005565b60ff841115610f8957610f88610e76565b5b8360020a915084821115610fa057610f9f610e76565b5b50611005565b5060208310610133831016604e8410600b8410161715610fdb5782820a905083811115610fd657610fd5610e76565b5b611005565b610fe88484846001610ee6565b92509050818404811115610fff57610ffe610e76565b5b81810290505b9392505050565b600061101782610873565b915061102283610873565b925061104f7fffffffffffffffffffffffffffffffffffffffffffffffffffffffffffffffff8484610f39565b905092915050565b600061106282610873565b915061106d83610873565b925082820261107b81610873565b9150828204841483151761109257611091610e76565b5b5092915050565b7f4e487b7100000000000000000000000000000000000000000000000000000000600052601260045260246000fd5b60006110d382610873565b91506110de83610873565b9250826110ee576110ed611099565b5b828204905092915050565b600081905092915050565b600061110f8261088c565b61111981856110f9565b93506111298185602086016108a8565b80840191505092915050565b7f2f00000000000000000000000000000000000000000000000000000000000000815250565b60006111678285611104565b915061117282611135565b6001820191506111828284611104565b9150819050939250505056fea2646970667358221220f058cc59dd34a344aca20e08d7c38e74c3404e14e4590e49fbb1511fad7dd37364736f6c63430008170033",
					"opcodes": "PUSH1 0x80 PUSH1 0x40 MSTORE CALLVALUE DUP1 ISZERO PUSH3 0x11 JUMPI PUSH1 0x0 DUP1 REVERT JUMPDEST POP PUSH1 0x40 MLOAD PUSH3 0x12EE CODESIZE SUB DUP1 PUSH3 0x12EE DUP4 CODECOPY DUP2 DUP2 ADD PUSH1 0x40 MSTORE DUP2 ADD SWAP1 PUSH3 0x37 SWAP2 SWAP1 PUSH3 0xE8 JUMP JUMPDEST DUP1 PUSH1 0x0 DUP1 PUSH2 0x100 EXP DUP2 SLOAD DUP2 PUSH20 0xFFFFFFFFFFFFFFFFFFFFFFFFFFFFFFFFFFFFFFFF MUL NOT AND SWAP1 DUP4 PUSH20 0xFFFFFFFFFFFFFFFFFFFFFFFFFFFFFFFFFFFFFFFF AND MUL OR SWAP1 SSTORE POP POP PUSH3 0x11A JUMP JUMPDEST PUSH1 0x0 DUP1 REVERT JUMPDEST PUSH1 0x0 PUSH20 0xFFFFFFFFFFFFFFFFFFFFFFFFFFFFFFFFFFFFFFFF DUP3 AND SWAP1 POP SWAP2 SWAP1 POP JUMP JUMPDEST PUSH1 0x0 PUSH3 0xB0 DUP3 PUSH3 0x83 JUMP JUMPDEST SWAP1 POP SWAP2 SWAP1 POP JUMP JUMPDEST PUSH3 0xC2 DUP2 PUSH3 0xA3 JUMP JUMPDEST DUP2 EQ PUSH3 0xCE JUMPI PUSH1 0x0 DUP1 REVERT JUMPDEST POP JUMP JUMPDEST PUSH1 0x0 DUP2 MLOAD SWAP1 POP PUSH3 0xE2 DUP2 PUSH3 0xB7 JUMP JUMPDEST SWAP3 SWAP2 POP POP JUMP JUMPDEST PUSH1 0x0 PUSH1 0x20 DUP3 DUP5 SUB SLT ISZERO PUSH3 0x101 JUMPI PUSH3 0x100 PUSH3 0x7E JUMP JUMPDEST JUMPDEST PUSH1 0x0 PUSH3 0x111 DUP5 DUP3 DUP6 ADD PUSH3 0xD1 JUMP JUMPDEST SWAP2 POP POP SWAP3 SWAP2 POP POP JUMP JUMPDEST PUSH2 0x11C4 DUP1 PUSH3 0x12A PUSH1 0x0 CODECOPY PUSH1 0x0 RETURN INVALID PUSH1 0x80 PUSH1 0x40 MSTORE CALLVALUE DUP1 ISZERO PUSH2 0x10 JUMPI PUSH1 0x0 DUP1 REVERT JUMPDEST POP PUSH1 0x4 CALLDATASIZE LT PUSH2 0x36 JUMPI PUSH1 0x0 CALLDATALOAD PUSH1 0xE0 SHR DUP1 PUSH4 0x24F16F20 EQ PUSH2 0x3B JUMPI DUP1 PUSH4 0x85096EDC EQ PUSH2 0x57 JUMPI JUMPDEST PUSH1 0x0 DUP1 REVERT JUMPDEST PUSH2 0x55 PUSH1 0x4 DUP1 CALLDATASIZE SUB DUP2 ADD SWAP1 PUSH2 0x50 SWAP2 SWAP1 PUSH2 0x846 JUMP JUMPDEST PUSH2 0x78 JUMP JUMPDEST STOP JUMPDEST PUSH2 0x5F PUSH2 0xBB JUMP JUMPDEST PUSH1 0x40 MLOAD PUSH2 0x6F SWAP5 SWAP4 SWAP3 SWAP2 SWAP1 PUSH2 0x91C JUMP JUMPDEST PUSH1 0x40 MLOAD DUP1 SWAP2 SUB SWAP1 RETURN JUMPDEST DUP1 PUSH1 0x0 DUP1 PUSH2 0x100 EXP DUP2 SLOAD DUP2 PUSH20 0xFFFFFFFFFFFFFFFFFFFFFFFFFFFFFFFFFFFFFFFF MUL NOT AND SWAP1 DUP4 PUSH20 0xFFFFFFFFFFFFFFFFFFFFFFFFFFFFFFFFFFFFFFFF AND MUL OR SWAP1 SSTORE POP POP JUMP JUMPDEST PUSH1 0x0 DUP1 PUSH1 0x60 PUSH1 0x0 DUP1 PUSH1 0x0 DUP1 PUSH1 0x0 DUP1 SLOAD SWAP1 PUSH2 0x100 EXP SWAP1 DIV PUSH20 0xFFFFFFFFFFFFFFFFFFFFFFFFFFFFFFFFFFFFFFFF AND PUSH20 0xFFFFFFFFFFFFFFFFFFFFFFFFFFFFFFFFFFFFFFFF AND PUSH4 0x902F1AC PUSH1 0x40 MLOAD DUP2 PUSH4 0xFFFFFFFF AND PUSH1 0xE0 SHL DUP2 MSTORE PUSH1 0x4 ADD PUSH1 0x60 PUSH1 0x40 MLOAD DUP1 DUP4 SUB DUP2 PUSH1 0x0 DUP8 GAS CALL ISZERO DUP1 ISZERO PUSH2 0x133 JUMPI RETURNDATASIZE PUSH1 0x0 DUP1 RETURNDATACOPY RETURNDATASIZE PUSH1 0x0 REVERT JUMPDEST POP POP POP POP PUSH1 0x40 MLOAD RETURNDATASIZE PUSH1 0x1F NOT PUSH1 0x1F DUP3 ADD AND DUP3 ADD DUP1 PUSH1 0x40 MSTORE POP DUP2 ADD SWAP1 PUSH2 0x157 SWAP2 SWAP1 PUSH2 0x9EA JUMP JUMPDEST SWAP3 POP PUSH14 0xFFFFFFFFFFFFFFFFFFFFFFFFFFFF AND SWAP3 POP PUSH14 0xFFFFFFFFFFFFFFFFFFFFFFFFFFFF AND SWAP3 POP PUSH1 0x0 DUP1 PUSH1 0x0 SWAP1 SLOAD SWAP1 PUSH2 0x100 EXP SWAP1 DIV PUSH20 0xFFFFFFFFFFFFFFFFFFFFFFFFFFFFFFFFFFFFFFFF AND PUSH20 0xFFFFFFFFFFFFFFFFFFFFFFFFFFFFFFFFFFFFFFFF AND PUSH4 0xDFE1681 PUSH1 0x40 MLOAD DUP2 PUSH4 0xFFFFFFFF AND PUSH1 0xE0 SHL DUP2 MSTORE PUSH1 0x4 ADD PUSH1 0x20 PUSH1 0x40 MLOAD DUP1 DUP4 SUB DUP2 PUSH1 0x0 DUP8 GAS CALL ISZERO DUP1 ISZERO PUSH2 0x1ED JUMPI RETURNDATASIZE PUSH1 0x0 DUP1 RETURNDATACOPY RETURNDATASIZE PUSH1 0x0 REVERT JUMPDEST POP POP POP POP PUSH1 0x40 MLOAD RETURNDATASIZE PUSH1 0x1F NOT PUSH1 0x1F DUP3 ADD AND DUP3 ADD DUP1 PUSH1 0x40 MSTORE POP DUP2 ADD SWAP1 PUSH2 0x211 SWAP2 SWAP1 PUSH2 0xA52 JUMP JUMPDEST SWAP1 POP PUSH1 0x0 DUP1 PUSH1 0x0 SWAP1 SLOAD SWAP1 PUSH2 0x100 EXP SWAP1 DIV PUSH20 0xFFFFFFFFFFFFFFFFFFFFFFFFFFFFFFFFFFFFFFFF AND PUSH20 0xFFFFFFFFFFFFFFFFFFFFFFFFFFFFFFFFFFFFFFFF AND PUSH4 0xD21220A7 PUSH1 0x40 MLOAD DUP2 PUSH4 0xFFFFFFFF AND PUSH1 0xE0 SHL DUP2 MSTORE PUSH1 0x4 ADD PUSH1 0x20 PUSH1 0x40 MLOAD DUP1 DUP4 SUB DUP2 PUSH1 0x0 DUP8 GAS CALL ISZERO DUP1 ISZERO PUSH2 0x283 JUMPI RETURNDATASIZE PUSH1 0x0 DUP1 RETURNDATACOPY RETURNDATASIZE PUSH1 0x0 REVERT JUMPDEST POP POP POP POP PUSH1 0x40 MLOAD RETURNDATASIZE PUSH1 0x1F NOT PUSH1 0x1F DUP3 ADD AND DUP3 ADD DUP1 PUSH1 0x40 MSTORE POP DUP2 ADD SWAP1 PUSH2 0x2A7 SWAP2 SWAP1 PUSH2 0xA52 JUMP JUMPDEST SWAP1 POP DUP2 PUSH1 0x1 PUSH1 0x0 PUSH2 0x100 EXP DUP2 SLOAD DUP2 PUSH20 0xFFFFFFFFFFFFFFFFFFFFFFFFFFFFFFFFFFFFFFFF MUL NOT AND SWAP1 DUP4 PUSH20 0xFFFFFFFFFFFFFFFFFFFFFFFFFFFFFFFFFFFFFFFF AND MUL OR SWAP1 SSTORE POP DUP1 PUSH1 0x2 PUSH1 0x0 PUSH2 0x100 EXP DUP2 SLOAD DUP2 PUSH20 0xFFFFFFFFFFFFFFFFFFFFFFFFFFFFFFFFFFFFFFFF MUL NOT AND SWAP1 DUP4 PUSH20 0xFFFFFFFFFFFFFFFFFFFFFFFFFFFFFFFFFFFFFFFF AND MUL OR SWAP1 SSTORE POP PUSH1 0x0 PUSH1 0x1 PUSH1 0x0 SWAP1 SLOAD SWAP1 PUSH2 0x100 EXP SWAP1 DIV PUSH20 0xFFFFFFFFFFFFFFFFFFFFFFFFFFFFFFFFFFFFFFFF AND PUSH20 0xFFFFFFFFFFFFFFFFFFFFFFFFFFFFFFFFFFFFFFFF AND PUSH4 0x313CE567 PUSH1 0x40 MLOAD DUP2 PUSH4 0xFFFFFFFF AND PUSH1 0xE0 SHL DUP2 MSTORE PUSH1 0x4 ADD PUSH1 0x20 PUSH1 0x40 MLOAD DUP1 DUP4 SUB DUP2 PUSH1 0x0 DUP8 GAS CALL ISZERO DUP1 ISZERO PUSH2 0x39C JUMPI RETURNDATASIZE PUSH1 0x0 DUP1 RETURNDATACOPY RETURNDATASIZE PUSH1 0x0 REVERT JUMPDEST POP POP POP POP PUSH1 0x40 MLOAD RETURNDATASIZE PUSH1 0x1F NOT PUSH1 0x1F DUP3 ADD AND DUP3 ADD DUP1 PUSH1 0x40 MSTORE POP DUP2 ADD SWAP1 PUSH2 0x3C0 SWAP2 SWAP1 PUSH2 0xAB8 JUMP JUMPDEST PUSH1 0xFF AND SWAP1 POP PUSH1 0x0 PUSH1 0x2 PUSH1 0x0 SWAP1 SLOAD SWAP1 PUSH2 0x100 EXP SWAP1 DIV PUSH20 0xFFFFFFFFFFFFFFFFFFFFFFFFFFFFFFFFFFFFFFFF AND PUSH20 0xFFFFFFFFFFFFFFFFFFFFFFFFFFFFFFFFFFFFFFFF AND PUSH4 0x313CE567 PUSH1 0x40 MLOAD DUP2 PUSH4 0xFFFFFFFF AND PUSH1 0xE0 SHL DUP2 MSTORE PUSH1 0x4 ADD PUSH1 0x20 PUSH1 0x40 MLOAD DUP1 DUP4 SUB DUP2 PUSH1 0x0 DUP8 GAS CALL ISZERO DUP1 ISZERO PUSH2 0x436 JUMPI RETURNDATASIZE PUSH1 0x0 DUP1 RETURNDATACOPY RETURNDATASIZE PUSH1 0x0 REVERT JUMPDEST POP POP POP POP PUSH1 0x40 MLOAD RETURNDATASIZE PUSH1 0x1F NOT PUSH1 0x1F DUP3 ADD AND DUP3 ADD DUP1 PUSH1 0x40 MSTORE POP DUP2 ADD SWAP1 PUSH2 0x45A SWAP2 SWAP1 PUSH2 0xAB8 JUMP JUMPDEST PUSH1 0xFF AND SWAP1 POP PUSH1 0x0 PUSH1 0x1 PUSH1 0x0 SWAP1 SLOAD SWAP1 PUSH2 0x100 EXP SWAP1 DIV PUSH20 0xFFFFFFFFFFFFFFFFFFFFFFFFFFFFFFFFFFFFFFFF AND PUSH20 0xFFFFFFFFFFFFFFFFFFFFFFFFFFFFFFFFFFFFFFFF AND PUSH4 0x6FDDE03 PUSH1 0x40 MLOAD DUP2 PUSH4 0xFFFFFFFF AND PUSH1 0xE0 SHL DUP2 MSTORE PUSH1 0x4 ADD PUSH1 0x0 PUSH1 0x40 MLOAD DUP1 DUP4 SUB DUP2 PUSH1 0x0 DUP8 GAS CALL ISZERO DUP1 ISZERO PUSH2 0x4D0 JUMPI RETURNDATASIZE PUSH1 0x0 DUP1 RETURNDATACOPY RETURNDATASIZE PUSH1 0x0 REVERT JUMPDEST POP POP POP POP PUSH1 0x40 MLOAD RETURNDATASIZE PUSH1 0x0 DUP3 RETURNDATACOPY RETURNDATASIZE PUSH1 0x1F NOT PUSH1 0x1F DUP3 ADD AND DUP3 ADD DUP1 PUSH1 0x40 MSTORE POP DUP2 ADD SWAP1 PUSH2 0x4F9 SWAP2 SWAP1 PUSH2 0xC0B JUMP JUMPDEST SWAP1 POP PUSH1 0x0 PUSH1 0x2 PUSH1 0x0 SWAP1 SLOAD SWAP1 PUSH2 0x100 EXP SWAP1 DIV PUSH20 0xFFFFFFFFFFFFFFFFFFFFFFFFFFFFFFFFFFFFFFFF AND PUSH20 0xFFFFFFFFFFFFFFFFFFFFFFFFFFFFFFFFFFFFFFFF AND PUSH4 0x6FDDE03 PUSH1 0x40 MLOAD DUP2 PUSH4 0xFFFFFFFF AND PUSH1 0xE0 SHL DUP2 MSTORE PUSH1 0x4 ADD PUSH1 0x0 PUSH1 0x40 MLOAD DUP1 DUP4 SUB DUP2 PUSH1 0x0 DUP8 GAS CALL ISZERO DUP1 ISZERO PUSH2 0x56C JUMPI RETURNDATASIZE PUSH1 0x0 DUP1 RETURNDATACOPY RETURNDATASIZE PUSH1 0x0 REVERT JUMPDEST POP POP POP POP PUSH1 0x40 MLOAD RETURNDATASIZE PUSH1 0x0 DUP3 RETURNDATACOPY RETURNDATASIZE PUSH1 0x1F NOT PUSH1 0x1F DUP3 ADD AND DUP3 ADD DUP1 PUSH1 0x40 MSTORE POP DUP2 ADD SWAP1 PUSH2 0x595 SWAP2 SWAP1 PUSH2 0xC0B JUMP JUMPDEST SWAP1 POP PUSH2 0x5A6 DUP10 DUP6 DUP5 DUP12 DUP8 DUP7 DUP14 PUSH2 0x5BD JUMP JUMPDEST SWAP13 POP SWAP13 POP SWAP13 POP SWAP13 POP POP POP POP POP POP POP POP POP POP SWAP1 SWAP2 SWAP3 SWAP4 JUMP JUMPDEST PUSH1 0x0 DUP1 PUSH1 0x60 PUSH1 0x0 DUP1 DUP10 MLOAD GT DUP1 ISZERO PUSH2 0x5D5 JUMPI POP PUSH1 0x0 DUP7 MLOAD GT JUMPDEST PUSH2 0x614 JUMPI PUSH1 0x40 MLOAD PUSH32 0x8C379A000000000000000000000000000000000000000000000000000000000 DUP2 MSTORE PUSH1 0x4 ADD PUSH2 0x60B SWAP1 PUSH2 0xCA0 JUMP JUMPDEST PUSH1 0x40 MLOAD DUP1 SWAP2 SUB SWAP1 REVERT JUMPDEST PUSH1 0x12 DUP11 GT ISZERO DUP1 ISZERO PUSH2 0x626 JUMPI POP PUSH1 0x12 DUP8 GT ISZERO JUMPDEST PUSH2 0x665 JUMPI PUSH1 0x40 MLOAD PUSH32 0x8C379A000000000000000000000000000000000000000000000000000000000 DUP2 MSTORE PUSH1 0x4 ADD PUSH2 0x65C SWAP1 PUSH2 0xD32 JUMP JUMPDEST PUSH1 0x40 MLOAD DUP1 SWAP2 SUB SWAP1 REVERT JUMPDEST PUSH1 0x0 DUP11 GT DUP1 ISZERO PUSH2 0x675 JUMPI POP PUSH1 0x0 DUP8 GT JUMPDEST PUSH2 0x6B4 JUMPI PUSH1 0x40 MLOAD PUSH32 0x8C379A000000000000000000000000000000000000000000000000000000000 DUP2 MSTORE PUSH1 0x4 ADD PUSH2 0x6AB SWAP1 PUSH2 0xDC4 JUMP JUMPDEST PUSH1 0x40 MLOAD DUP1 SWAP2 SUB SWAP1 REVERT JUMPDEST PUSH1 0x0 DUP12 GT DUP1 ISZERO PUSH2 0x6C4 JUMPI POP PUSH1 0x0 DUP9 GT JUMPDEST PUSH2 0x703 JUMPI PUSH1 0x40 MLOAD PUSH32 0x8C379A000000000000000000000000000000000000000000000000000000000 DUP2 MSTORE PUSH1 0x4 ADD PUSH2 0x6FA SWAP1 PUSH2 0xE56 JUMP JUMPDEST PUSH1 0x40 MLOAD DUP1 SWAP2 SUB SWAP1 REVERT JUMPDEST DUP7 DUP11 GT ISZERO PUSH2 0x735 JUMPI DUP7 DUP11 PUSH2 0x717 SWAP2 SWAP1 PUSH2 0xEA5 JUMP JUMPDEST PUSH1 0xA PUSH2 0x723 SWAP2 SWAP1 PUSH2 0x100C JUMP JUMPDEST DUP9 PUSH2 0x72E SWAP2 SWAP1 PUSH2 0x1057 JUMP JUMPDEST SWAP8 POP PUSH2 0x75B JUMP JUMPDEST DUP10 DUP8 PUSH2 0x741 SWAP2 SWAP1 PUSH2 0xEA5 JUMP JUMPDEST PUSH1 0xA PUSH2 0x74D SWAP2 SWAP1 PUSH2 0x100C JUMP JUMPDEST DUP12 PUSH2 0x758 SWAP2 SWAP1 PUSH2 0x1057 JUMP JUMPDEST SWAP11 POP JUMPDEST PUSH4 0x5F5E100 DUP1 DUP13 PUSH4 0x5F5E100 DUP12 PUSH2 0x772 SWAP2 SWAP1 PUSH2 0x1057 JUMP JUMPDEST PUSH2 0x77C SWAP2 SWAP1 PUSH2 0x10C8 JUMP JUMPDEST PUSH2 0x786 SWAP2 SWAP1 PUSH2 0x1057 JUMP JUMPDEST PUSH2 0x790 SWAP2 SWAP1 PUSH2 0x10C8 JUMP JUMPDEST PUSH1 0x8 DUP8 DUP12 PUSH1 0x40 MLOAD PUSH1 0x20 ADD PUSH2 0x7A5 SWAP3 SWAP2 SWAP1 PUSH2 0x115B JUMP JUMPDEST PUSH1 0x40 MLOAD PUSH1 0x20 DUP2 DUP4 SUB SUB DUP2 MSTORE SWAP1 PUSH1 0x40 MSTORE DUP8 DUP1 PUSH4 0xFFFFFFFF AND SWAP1 POP SWAP4 POP SWAP4 POP SWAP4 POP SWAP4 POP SWAP8 POP SWAP8 POP SWAP8 POP SWAP8 SWAP4 POP POP POP POP JUMP JUMPDEST PUSH1 0x0 PUSH1 0x40 MLOAD SWAP1 POP SWAP1 JUMP JUMPDEST PUSH1 0x0 DUP1 REVERT JUMPDEST PUSH1 0x0 DUP1 REVERT JUMPDEST PUSH1 0x0 PUSH20 0xFFFFFFFFFFFFFFFFFFFFFFFFFFFFFFFFFFFFFFFF DUP3 AND SWAP1 POP SWAP2 SWAP1 POP JUMP JUMPDEST PUSH1 0x0 PUSH2 0x813 DUP3 PUSH2 0x7E8 JUMP JUMPDEST SWAP1 POP SWAP2 SWAP1 POP JUMP JUMPDEST PUSH2 0x823 DUP2 PUSH2 0x808 JUMP JUMPDEST DUP2 EQ PUSH2 0x82E JUMPI PUSH1 0x0 DUP1 REVERT JUMPDEST POP JUMP JUMPDEST PUSH1 0x0 DUP2 CALLDATALOAD SWAP1 POP PUSH2 0x840 DUP2 PUSH2 0x81A JUMP JUMPDEST SWAP3 SWAP2 POP POP JUMP JUMPDEST PUSH1 0x0 PUSH1 0x20 DUP3 DUP5 SUB SLT ISZERO PUSH2 0x85C JUMPI PUSH2 0x85B PUSH2 0x7DE JUMP JUMPDEST JUMPDEST PUSH1 0x0 PUSH2 0x86A DUP5 DUP3 DUP6 ADD PUSH2 0x831 JUMP JUMPDEST SWAP2 POP POP SWAP3 SWAP2 POP POP JUMP JUMPDEST PUSH1 0x0 DUP2 SWAP1 POP SWAP2 SWAP1 POP JUMP JUMPDEST PUSH2 0x886 DUP2 PUSH2 0x873 JUMP JUMPDEST DUP3 MSTORE POP POP JUMP JUMPDEST PUSH1 0x0 DUP2 MLOAD SWAP1 POP SWAP2 SWAP1 POP JUMP JUMPDEST PUSH1 0x0 DUP3 DUP3 MSTORE PUSH1 0x20 DUP3 ADD SWAP1 POP SWAP3 SWAP2 POP POP JUMP JUMPDEST PUSH1 0x0 JUMPDEST DUP4 DUP2 LT ISZERO PUSH2 0x8C6 JUMPI DUP1 DUP3 ADD MLOAD DUP2 DUP5 ADD MSTORE PUSH1 0x20 DUP2 ADD SWAP1 POP PUSH2 0x8AB JUMP JUMPDEST PUSH1 0x0 DUP5 DUP5 ADD MSTORE POP POP POP POP JUMP JUMPDEST PUSH1 0x0 PUSH1 0x1F NOT PUSH1 0x1F DUP4 ADD AND SWAP1 POP SWAP2 SWAP1 POP JUMP JUMPDEST PUSH1 0x0 PUSH2 0x8EE DUP3 PUSH2 0x88C JUMP JUMPDEST PUSH2 0x8F8 DUP2 DUP6 PUSH2 0x897 JUMP JUMPDEST SWAP4 POP PUSH2 0x908 DUP2 DUP6 PUSH1 0x20 DUP7 ADD PUSH2 0x8A8 JUMP JUMPDEST PUSH2 0x911 DUP2 PUSH2 0x8D2 JUMP JUMPDEST DUP5 ADD SWAP2 POP POP SWAP3 SWAP2 POP POP JUMP JUMPDEST PUSH1 0x0 PUSH1 0x80 DUP3 ADD SWAP1 POP PUSH2 0x931 PUSH1 0x0 DUP4 ADD DUP8 PUSH2 0x87D JUMP JUMPDEST PUSH2 0x93E PUSH1 0x20 DUP4 ADD DUP7 PUSH2 0x87D JUMP JUMPDEST DUP2 DUP2 SUB PUSH1 0x40 DUP4 ADD MSTORE PUSH2 0x950 DUP2 DUP6 PUSH2 0x8E3 JUMP JUMPDEST SWAP1 POP PUSH2 0x95F PUSH1 0x60 DUP4 ADD DUP5 PUSH2 0x87D JUMP JUMPDEST SWAP6 SWAP5 POP POP POP POP POP JUMP JUMPDEST PUSH1 0x0 PUSH14 0xFFFFFFFFFFFFFFFFFFFFFFFFFFFF DUP3 AND SWAP1 POP SWAP2 SWAP1 POP JUMP JUMPDEST PUSH2 0x98B DUP2 PUSH2 0x968 JUMP JUMPDEST DUP2 EQ PUSH2 0x996 JUMPI PUSH1 0x0 DUP1 REVERT JUMPDEST POP JUMP JUMPDEST PUSH1 0x0 DUP2 MLOAD SWAP1 POP PUSH2 0x9A8 DUP2 PUSH2 0x982 JUMP JUMPDEST SWAP3 SWAP2 POP POP JUMP JUMPDEST PUSH1 0x0 PUSH4 0xFFFFFFFF DUP3 AND SWAP1 POP SWAP2 SWAP1 POP JUMP JUMPDEST PUSH2 0x9C7 DUP2 PUSH2 0x9AE JUMP JUMPDEST DUP2 EQ PUSH2 0x9D2 JUMPI PUSH1 0x0 DUP1 REVERT JUMPDEST POP JUMP JUMPDEST PUSH1 0x0 DUP2 MLOAD SWAP1 POP PUSH2 0x9E4 DUP2 PUSH2 0x9BE JUMP JUMPDEST SWAP3 SWAP2 POP POP JUMP JUMPDEST PUSH1 0x0 DUP1 PUSH1 0x0 PUSH1 0x60 DUP5 DUP7 SUB SLT ISZERO PUSH2 0xA03 JUMPI PUSH2 0xA02 PUSH2 0x7DE JUMP JUMPDEST JUMPDEST PUSH1 0x0 PUSH2 0xA11 DUP7 DUP3 DUP8 ADD PUSH2 0x999 JUMP JUMPDEST SWAP4 POP POP PUSH1 0x20 PUSH2 0xA22 DUP7 DUP3 DUP8 ADD PUSH2 0x999 JUMP JUMPDEST SWAP3 POP POP PUSH1 0x40 PUSH2 0xA33 DUP7 DUP3 DUP8 ADD PUSH2 0x9D5 JUMP JUMPDEST SWAP2 POP POP SWAP3 POP SWAP3 POP SWAP3 JUMP JUMPDEST PUSH1 0x0 DUP2 MLOAD SWAP1 POP PUSH2 0xA4C DUP2 PUSH2 0x81A JUMP JUMPDEST SWAP3 SWAP2 POP POP JUMP JUMPDEST PUSH1 0x0 PUSH1 0x20 DUP3 DUP5 SUB SLT ISZERO PUSH2 0xA68 JUMPI PUSH2 0xA67 PUSH2 0x7DE JUMP JUMPDEST JUMPDEST PUSH1 0x0 PUSH2 0xA76 DUP5 DUP3 DUP6 ADD PUSH2 0xA3D JUMP JUMPDEST SWAP2 POP POP SWAP3 SWAP2 POP POP JUMP JUMPDEST PUSH1 0x0 PUSH1 0xFF DUP3 AND SWAP1 POP SWAP2 SWAP1 POP JUMP JUMPDEST PUSH2 0xA95 DUP2 PUSH2 0xA7F JUMP JUMPDEST DUP2 EQ PUSH2 0xAA0 JUMPI PUSH1 0x0 DUP1 REVERT JUMPDEST POP JUMP JUMPDEST PUSH1 0x0 DUP2 MLOAD SWAP1 POP PUSH2 0xAB2 DUP2 PUSH2 0xA8C JUMP JUMPDEST SWAP3 SWAP2 POP POP JUMP JUMPDEST PUSH1 0x0 PUSH1 0x20 DUP3 DUP5 SUB SLT ISZERO PUSH2 0xACE JUMPI PUSH2 0xACD PUSH2 0x7DE JUMP JUMPDEST JUMPDEST PUSH1 0x0 PUSH2 0xADC DUP5 DUP3 DUP6 ADD PUSH2 0xAA3 JUMP JUMPDEST SWAP2 POP POP SWAP3 SWAP2 POP POP JUMP JUMPDEST PUSH1 0x0 DUP1 REVERT JUMPDEST PUSH1 0x0 DUP1 REVERT JUMPDEST PUSH32 0x4E487B7100000000000000000000000000000000000000000000000000000000 PUSH1 0x0 MSTORE PUSH1 0x41 PUSH1 0x4 MSTORE PUSH1 0x24 PUSH1 0x0 REVERT JUMPDEST PUSH2 0xB27 DUP3 PUSH2 0x8D2 JUMP JUMPDEST DUP2 ADD DUP2 DUP2 LT PUSH8 0xFFFFFFFFFFFFFFFF DUP3 GT OR ISZERO PUSH2 0xB46 JUMPI PUSH2 0xB45 PUSH2 0xAEF JUMP JUMPDEST JUMPDEST DUP1 PUSH1 0x40 MSTORE POP POP POP JUMP JUMPDEST PUSH1 0x0 PUSH2 0xB59 PUSH2 0x7D4 JUMP JUMPDEST SWAP1 POP PUSH2 0xB65 DUP3 DUP3 PUSH2 0xB1E JUMP JUMPDEST SWAP2 SWAP1 POP JUMP JUMPDEST PUSH1 0x0 PUSH8 0xFFFFFFFFFFFFFFFF DUP3 GT ISZERO PUSH2 0xB85 JUMPI PUSH2 0xB84 PUSH2 0xAEF JUMP JUMPDEST JUMPDEST PUSH2 0xB8E DUP3 PUSH2 0x8D2 JUMP JUMPDEST SWAP1 POP PUSH1 0x20 DUP2 ADD SWAP1 POP SWAP2 SWAP1 POP JUMP JUMPDEST PUSH1 0x0 PUSH2 0xBAE PUSH2 0xBA9 DUP5 PUSH2 0xB6A JUMP JUMPDEST PUSH2 0xB4F JUMP JUMPDEST SWAP1 POP DUP3 DUP2 MSTORE PUSH1 0x20 DUP2 ADD DUP5 DUP5 DUP5 ADD GT ISZERO PUSH2 0xBCA JUMPI PUSH2 0xBC9 PUSH2 0xAEA JUMP JUMPDEST JUMPDEST PUSH2 0xBD5 DUP5 DUP3 DUP6 PUSH2 0x8A8 JUMP JUMPDEST POP SWAP4 SWAP3 POP POP POP JUMP JUMPDEST PUSH1 0x0 DUP3 PUSH1 0x1F DUP4 ADD SLT PUSH2 0xBF2 JUMPI PUSH2 0xBF1 PUSH2 0xAE5 JUMP JUMPDEST JUMPDEST DUP2 MLOAD PUSH2 0xC02 DUP5 DUP3 PUSH1 0x20 DUP7 ADD PUSH2 0xB9B JUMP JUMPDEST SWAP2 POP POP SWAP3 SWAP2 POP POP JUMP JUMPDEST PUSH1 0x0 PUSH1 0x20 DUP3 DUP5 SUB SLT ISZERO PUSH2 0xC21 JUMPI PUSH2 0xC20 PUSH2 0x7DE JUMP JUMPDEST JUMPDEST PUSH1 0x0 DUP3 ADD MLOAD PUSH8 0xFFFFFFFFFFFFFFFF DUP2 GT ISZERO PUSH2 0xC3F JUMPI PUSH2 0xC3E PUSH2 0x7E3 JUMP JUMPDEST JUMPDEST PUSH2 0xC4B DUP5 DUP3 DUP6 ADD PUSH2 0xBDD JUMP JUMPDEST SWAP2 POP POP SWAP3 SWAP2 POP POP JUMP JUMPDEST PUSH32 0x4D697373696E6720696E70757420666F7220746F6B656E206E616D6521000000 PUSH1 0x0 DUP3 ADD MSTORE POP JUMP JUMPDEST PUSH1 0x0 PUSH2 0xC8A PUSH1 0x1D DUP4 PUSH2 0x897 JUMP JUMPDEST SWAP2 POP PUSH2 0xC95 DUP3 PUSH2 0xC54 JUMP JUMPDEST PUSH1 0x20 DUP3 ADD SWAP1 POP SWAP2 SWAP1 POP JUMP JUMPDEST PUSH1 0x0 PUSH1 0x20 DUP3 ADD SWAP1 POP DUP2 DUP2 SUB PUSH1 0x0 DUP4 ADD MSTORE PUSH2 0xCB9 DUP2 PUSH2 0xC7D JUMP JUMPDEST SWAP1 POP SWAP2 SWAP1 POP JUMP JUMPDEST PUSH32 0x446563696D616C732073686F756C64206265206C657373207468616E206F7220 PUSH1 0x0 DUP3 ADD MSTORE PUSH32 0x657175616C20746F203138000000000000000000000000000000000000000000 PUSH1 0x20 DUP3 ADD MSTORE POP JUMP JUMPDEST PUSH1 0x0 PUSH2 0xD1C PUSH1 0x2B DUP4 PUSH2 0x897 JUMP JUMPDEST SWAP2 POP PUSH2 0xD27 DUP3 PUSH2 0xCC0 JUMP JUMPDEST PUSH1 0x40 DUP3 ADD SWAP1 POP SWAP2 SWAP1 POP JUMP JUMPDEST PUSH1 0x0 PUSH1 0x20 DUP3 ADD SWAP1 POP DUP2 DUP2 SUB PUSH1 0x0 DUP4 ADD MSTORE PUSH2 0xD4B DUP2 PUSH2 0xD0F JUMP JUMPDEST SWAP1 POP SWAP2 SWAP1 POP JUMP JUMPDEST PUSH32 0x446563696D616C732073686F756C642062652067726561746572207468616E20 PUSH1 0x0 DUP3 ADD MSTORE PUSH32 0x3000000000000000000000000000000000000000000000000000000000000000 PUSH1 0x20 DUP3 ADD MSTORE POP JUMP JUMPDEST PUSH1 0x0 PUSH2 0xDAE PUSH1 0x21 DUP4 PUSH2 0x897 JUMP JUMPDEST SWAP2 POP PUSH2 0xDB9 DUP3 PUSH2 0xD52 JUMP JUMPDEST PUSH1 0x40 DUP3 ADD SWAP1 POP SWAP2 SWAP1 POP JUMP JUMPDEST PUSH1 0x0 PUSH1 0x20 DUP3 ADD SWAP1 POP DUP2 DUP2 SUB PUSH1 0x0 DUP4 ADD MSTORE PUSH2 0xDDD DUP2 PUSH2 0xDA1 JUMP JUMPDEST SWAP1 POP SWAP2 SWAP1 POP JUMP JUMPDEST PUSH32 0x546F6B656E2076616C7565732073686F756C6420626520677265617465722074 PUSH1 0x0 DUP3 ADD MSTORE PUSH32 0x68616E2030000000000000000000000000000000000000000000000000000000 PUSH1 0x20 DUP3 ADD MSTORE POP JUMP JUMPDEST PUSH1 0x0 PUSH2 0xE40 PUSH1 0x25 DUP4 PUSH2 0x897 JUMP JUMPDEST SWAP2 POP PUSH2 0xE4B DUP3 PUSH2 0xDE4 JUMP JUMPDEST PUSH1 0x40 DUP3 ADD SWAP1 POP SWAP2 SWAP1 POP JUMP JUMPDEST PUSH1 0x0 PUSH1 0x20 DUP3 ADD SWAP1 POP DUP2 DUP2 SUB PUSH1 0x0 DUP4 ADD MSTORE PUSH2 0xE6F DUP2 PUSH2 0xE33 JUMP JUMPDEST SWAP1 POP SWAP2 SWAP1 POP JUMP JUMPDEST PUSH32 0x4E487B7100000000000000000000000000000000000000000000000000000000 PUSH1 0x0 MSTORE PUSH1 0x11 PUSH1 0x4 MSTORE PUSH1 0x24 PUSH1 0x0 REVERT JUMPDEST PUSH1 0x0 PUSH2 0xEB0 DUP3 PUSH2 0x873 JUMP JUMPDEST SWAP2 POP PUSH2 0xEBB DUP4 PUSH2 0x873 JUMP JUMPDEST SWAP3 POP DUP3 DUP3 SUB SWAP1 POP DUP2 DUP2 GT ISZERO PUSH2 0xED3 JUMPI PUSH2 0xED2 PUSH2 0xE76 JUMP JUMPDEST JUMPDEST SWAP3 SWAP2 POP POP JUMP JUMPDEST PUSH1 0x0 DUP2 PUSH1 0x1 SHR SWAP1 POP SWAP2 SWAP1 POP JUMP JUMPDEST PUSH1 0x0 DUP1 DUP3 SWAP2 POP DUP4 SWAP1 POP JUMPDEST PUSH1 0x1 DUP6 GT ISZERO PUSH2 0xF30 JUMPI DUP1 DUP7 DIV DUP2 GT ISZERO PUSH2 0xF0C JUMPI PUSH2 0xF0B PUSH2 0xE76 JUMP JUMPDEST JUMPDEST PUSH1 0x1 DUP6 AND ISZERO PUSH2 0xF1B JUMPI DUP1 DUP3 MUL SWAP2 POP JUMPDEST DUP1 DUP2 MUL SWAP1 POP PUSH2 0xF29 DUP6 PUSH2 0xED9 JUMP JUMPDEST SWAP5 POP PUSH2 0xEF0 JUMP JUMPDEST SWAP5 POP SWAP5 SWAP3 POP POP POP JUMP JUMPDEST PUSH1 0x0 DUP3 PUSH2 0xF49 JUMPI PUSH1 0x1 SWAP1 POP PUSH2 0x1005 JUMP JUMPDEST DUP2 PUSH2 0xF57 JUMPI PUSH1 0x0 SWAP1 POP PUSH2 0x1005 JUMP JUMPDEST DUP2 PUSH1 0x1 DUP2 EQ PUSH2 0xF6D JUMPI PUSH1 0x2 DUP2 EQ PUSH2 0xF77 JUMPI PUSH2 0xFA6 JUMP JUMPDEST PUSH1 0x1 SWAP2 POP POP PUSH2 0x1005 JUMP JUMPDEST PUSH1 0xFF DUP5 GT ISZERO PUSH2 0xF89 JUMPI PUSH2 0xF88 PUSH2 0xE76 JUMP JUMPDEST JUMPDEST DUP4 PUSH1 0x2 EXP SWAP2 POP DUP5 DUP3 GT ISZERO PUSH2 0xFA0 JUMPI PUSH2 0xF9F PUSH2 0xE76 JUMP JUMPDEST JUMPDEST POP PUSH2 0x1005 JUMP JUMPDEST POP PUSH1 0x20 DUP4 LT PUSH2 0x133 DUP4 LT AND PUSH1 0x4E DUP5 LT PUSH1 0xB DUP5 LT AND OR ISZERO PUSH2 0xFDB JUMPI DUP3 DUP3 EXP SWAP1 POP DUP4 DUP2 GT ISZERO PUSH2 0xFD6 JUMPI PUSH2 0xFD5 PUSH2 0xE76 JUMP JUMPDEST JUMPDEST PUSH2 0x1005 JUMP JUMPDEST PUSH2 0xFE8 DUP5 DUP5 DUP5 PUSH1 0x1 PUSH2 0xEE6 JUMP JUMPDEST SWAP3 POP SWAP1 POP DUP2 DUP5 DIV DUP2 GT ISZERO PUSH2 0xFFF JUMPI PUSH2 0xFFE PUSH2 0xE76 JUMP JUMPDEST JUMPDEST DUP2 DUP2 MUL SWAP1 POP JUMPDEST SWAP4 SWAP3 POP POP POP JUMP JUMPDEST PUSH1 0x0 PUSH2 0x1017 DUP3 PUSH2 0x873 JUMP JUMPDEST SWAP2 POP PUSH2 0x1022 DUP4 PUSH2 0x873 JUMP JUMPDEST SWAP3 POP PUSH2 0x104F PUSH32 0xFFFFFFFFFFFFFFFFFFFFFFFFFFFFFFFFFFFFFFFFFFFFFFFFFFFFFFFFFFFFFFFF DUP5 DUP5 PUSH2 0xF39 JUMP JUMPDEST SWAP1 POP SWAP3 SWAP2 POP POP JUMP JUMPDEST PUSH1 0x0 PUSH2 0x1062 DUP3 PUSH2 0x873 JUMP JUMPDEST SWAP2 POP PUSH2 0x106D DUP4 PUSH2 0x873 JUMP JUMPDEST SWAP3 POP DUP3 DUP3 MUL PUSH2 0x107B DUP2 PUSH2 0x873 JUMP JUMPDEST SWAP2 POP DUP3 DUP3 DIV DUP5 EQ DUP4 ISZERO OR PUSH2 0x1092 JUMPI PUSH2 0x1091 PUSH2 0xE76 JUMP JUMPDEST JUMPDEST POP SWAP3 SWAP2 POP POP JUMP JUMPDEST PUSH32 0x4E487B7100000000000000000000000000000000000000000000000000000000 PUSH1 0x0 MSTORE PUSH1 0x12 PUSH1 0x4 MSTORE PUSH1 0x24 PUSH1 0x0 REVERT JUMPDEST PUSH1 0x0 PUSH2 0x10D3 DUP3 PUSH2 0x873 JUMP JUMPDEST SWAP2 POP PUSH2 0x10DE DUP4 PUSH2 0x873 JUMP JUMPDEST SWAP3 POP DUP3 PUSH2 0x10EE JUMPI PUSH2 0x10ED PUSH2 0x1099 JUMP JUMPDEST JUMPDEST DUP3 DUP3 DIV SWAP1 POP SWAP3 SWAP2 POP POP JUMP JUMPDEST PUSH1 0x0 DUP2 SWAP1 POP SWAP3 SWAP2 POP POP JUMP JUMPDEST PUSH1 0x0 PUSH2 0x110F DUP3 PUSH2 0x88C JUMP JUMPDEST PUSH2 0x1119 DUP2 DUP6 PUSH2 0x10F9 JUMP JUMPDEST SWAP4 POP PUSH2 0x1129 DUP2 DUP6 PUSH1 0x20 DUP7 ADD PUSH2 0x8A8 JUMP JUMPDEST DUP1 DUP5 ADD SWAP2 POP POP SWAP3 SWAP2 POP POP JUMP JUMPDEST PUSH32 0x2F00000000000000000000000000000000000000000000000000000000000000 DUP2 MSTORE POP JUMP JUMPDEST PUSH1 0x0 PUSH2 0x1167 DUP3 DUP6 PUSH2 0x1104 JUMP JUMPDEST SWAP2 POP PUSH2 0x1172 DUP3 PUSH2 0x1135 JUMP JUMPDEST PUSH1 0x1 DUP3 ADD SWAP2 POP PUSH2 0x1182 DUP3 DUP5 PUSH2 0x1104 JUMP JUMPDEST SWAP2 POP DUP2 SWAP1 POP SWAP4 SWAP3 POP POP POP JUMP INVALID LOG2 PUSH5 0x6970667358 0x22 SLT KECCAK256 CREATE PC 0xCC MSIZE 0xDD CALLVALUE LOG3 PREVRANDAO 0xAC LOG2 0xE ADDMOD 0xD7 0xC3 DUP15 PUSH21 0xC3404E14E4590E49FBB1511FAD7DD37364736F6C63 NUMBER STOP ADDMOD OR STOP CALLER "
				},
				"gasEstimates": {
					"creation": {
						"codeDepositCost": "909600",
						"executionCost": "infinite",
						"totalCost": "infinite"
					},
					"external": {
						"addNewPoolFeed(address)": "24700",
						"poolRate()": "infinite"
					},
					"internal": {
						"calculatePoolRate(uint256,uint256,string memory,uint256,uint256,string memory,uint32)": "infinite"
					}
				},
				"methodIdentifiers": {
					"addNewPoolFeed(address)": "24f16f20",
					"poolRate()": "85096edc"
				}
			},
			"storageLayout": {
				"storage": [
					{
						"astId": 35,
						"contract": "token_eco_system_dev_contracts/contracts_ready_for_prod/poolRateFeed.sol:RateFromPool",
						"label": "poolConsumer",
						"offset": 0,
						"slot": "0",
						"type": "t_contract(PoolInterface)21"
					},
					{
						"astId": 38,
						"contract": "token_eco_system_dev_contracts/contracts_ready_for_prod/poolRateFeed.sol:RateFromPool",
						"label": "decimalsConsumerOne",
						"offset": 0,
						"slot": "1",
						"type": "t_contract(DecimalsInterface)32"
					},
					{
						"astId": 41,
						"contract": "token_eco_system_dev_contracts/contracts_ready_for_prod/poolRateFeed.sol:RateFromPool",
						"label": "decimalsConsumerTwo",
						"offset": 0,
						"slot": "2",
						"type": "t_contract(DecimalsInterface)32"
					}
				],
				"types": {
					"t_contract(DecimalsInterface)32": {
						"encoding": "inplace",
						"label": "contract DecimalsInterface",
						"numberOfBytes": "20"
					},
					"t_contract(PoolInterface)21": {
						"encoding": "inplace",
						"label": "contract PoolInterface",
						"numberOfBytes": "20"
					}
				}
			},
			"userdoc": {
				"kind": "user",
				"methods": {},
				"version": 1
			}
		}
	}
}