{
	"token_eco_system_dev_contracts/contracts_ready_for_prod/TokenEcoSystemParticipationV1_0_flattened.sol": {
		"TokenEcoSystemParticipation": {
			"abi": [
				{
					"inputs": [
						{
							"internalType": "address",
							"name": "_acceptedTokens",
							"type": "address"
						},
						{
							"internalType": "address",
							"name": "_activator",
							"type": "address"
						}
					],
					"stateMutability": "nonpayable",
					"type": "constructor"
				},
				{
					"anonymous": false,
					"inputs": [
						{
							"indexed": true,
							"internalType": "address",
							"name": "activator",
							"type": "address"
						},
						{
							"indexed": false,
							"internalType": "uint256",
							"name": "timestamp",
							"type": "uint256"
						}
					],
					"name": "Activate",
					"type": "event"
				},
				{
					"anonymous": false,
					"inputs": [
						{
							"indexed": false,
							"internalType": "uint256",
							"name": "chargeRate",
							"type": "uint256"
						},
						{
							"indexed": false,
							"internalType": "uint256",
							"name": "chargeRatedecimals",
							"type": "uint256"
						},
						{
							"indexed": false,
							"internalType": "uint256",
							"name": "chargeRateDate",
							"type": "uint256"
						},
						{
							"indexed": false,
							"internalType": "string",
							"name": "chargeRateString",
							"type": "string"
						},
						{
							"indexed": true,
							"internalType": "uint256",
							"name": "chargedPoints",
							"type": "uint256"
						},
						{
							"indexed": true,
							"internalType": "uint256",
							"name": "burnedTokens",
							"type": "uint256"
						},
						{
							"indexed": true,
							"internalType": "uint256",
							"name": "chargeDate",
							"type": "uint256"
						}
					],
					"name": "ChargeContract",
					"type": "event"
				},
				{
					"anonymous": false,
					"inputs": [
						{
							"indexed": true,
							"internalType": "address",
							"name": "deactivator",
							"type": "address"
						},
						{
							"indexed": false,
							"internalType": "uint256",
							"name": "timestamp",
							"type": "uint256"
						}
					],
					"name": "Deactivate",
					"type": "event"
				},
				{
					"anonymous": false,
					"inputs": [
						{
							"indexed": false,
							"internalType": "uint256",
							"name": "rate",
							"type": "uint256"
						},
						{
							"indexed": false,
							"internalType": "uint256",
							"name": "decimals",
							"type": "uint256"
						},
						{
							"indexed": false,
							"internalType": "string",
							"name": "rateString",
							"type": "string"
						},
						{
							"indexed": false,
							"internalType": "uint256",
							"name": "date",
							"type": "uint256"
						},
						{
							"indexed": false,
							"internalType": "string",
							"name": "feed",
							"type": "string"
						}
					],
					"name": "GetRate",
					"type": "event"
				},
				{
					"anonymous": false,
					"inputs": [
						{
							"indexed": true,
							"internalType": "address",
							"name": "newAcceptedSender",
							"type": "address"
						}
					],
					"name": "NewAcceptedSender",
					"type": "event"
				},
				{
					"anonymous": false,
					"inputs": [
						{
							"indexed": true,
							"internalType": "address",
							"name": "previousOwner",
							"type": "address"
						},
						{
							"indexed": true,
							"internalType": "address",
							"name": "newOwner",
							"type": "address"
						}
					],
					"name": "OwnershipTransferred",
					"type": "event"
				},
				{
					"anonymous": false,
					"inputs": [
						{
							"indexed": false,
							"internalType": "address",
							"name": "account",
							"type": "address"
						}
					],
					"name": "Paused",
					"type": "event"
				},
				{
					"anonymous": false,
					"inputs": [
						{
							"indexed": true,
							"internalType": "uint256",
							"name": "timestamp",
							"type": "uint256"
						},
						{
							"indexed": false,
							"internalType": "uint256",
							"name": "value",
							"type": "uint256"
						}
					],
					"name": "TotalDailyWithdraws",
					"type": "event"
				},
				{
					"anonymous": false,
					"inputs": [
						{
							"indexed": false,
							"internalType": "address",
							"name": "account",
							"type": "address"
						}
					],
					"name": "Unpaused",
					"type": "event"
				},
				{
					"anonymous": false,
					"inputs": [
						{
							"indexed": true,
							"internalType": "uint256",
							"name": "timestamp",
							"type": "uint256"
						},
						{
							"indexed": false,
							"internalType": "uint256",
							"name": "value",
							"type": "uint256"
						},
						{
							"indexed": true,
							"internalType": "address",
							"name": "wallet",
							"type": "address"
						}
					],
					"name": "Withdraw",
					"type": "event"
				},
				{
					"inputs": [],
					"name": "activate",
					"outputs": [],
					"stateMutability": "nonpayable",
					"type": "function"
				},
				{
					"inputs": [
						{
							"internalType": "address",
							"name": "consumerInterfaceAddress",
							"type": "address"
						}
					],
					"name": "addNewAggregatorPriceFeed",
					"outputs": [],
					"stateMutability": "nonpayable",
					"type": "function"
				},
				{
					"inputs": [
						{
							"internalType": "address",
							"name": "consumerInterfaceAddress",
							"type": "address"
						}
					],
					"name": "addNewPoolRateFeed",
					"outputs": [],
					"stateMutability": "nonpayable",
					"type": "function"
				},
				{
					"inputs": [],
					"name": "balanceOf",
					"outputs": [
						{
							"internalType": "uint256",
							"name": "",
							"type": "uint256"
						}
					],
					"stateMutability": "view",
					"type": "function"
				},
				{
					"inputs": [
						{
							"internalType": "address",
							"name": "tokenAddress",
							"type": "address"
						}
					],
					"name": "balanceOfToken",
					"outputs": [
						{
							"internalType": "uint256",
							"name": "",
							"type": "uint256"
						}
					],
					"stateMutability": "view",
					"type": "function"
				},
				{
					"inputs": [
						{
							"internalType": "uint256",
							"name": "points",
							"type": "uint256"
						},
						{
							"internalType": "uint256",
							"name": "rate",
							"type": "uint256"
						},
						{
							"internalType": "uint256",
							"name": "decimals",
							"type": "uint256"
						}
					],
					"name": "calculateAmount",
					"outputs": [
						{
							"internalType": "uint256",
							"name": "",
							"type": "uint256"
						}
					],
					"stateMutability": "view",
					"type": "function"
				},
				{
					"inputs": [
						{
							"internalType": "address",
							"name": "newAcceptedSender",
							"type": "address"
						}
					],
					"name": "changeAcceptedSenderAddress",
					"outputs": [],
					"stateMutability": "nonpayable",
					"type": "function"
				},
				{
					"inputs": [],
					"name": "changeRateFeed",
					"outputs": [],
					"stateMutability": "nonpayable",
					"type": "function"
				},
				{
					"inputs": [
						{
							"internalType": "uint256",
							"name": "amount",
							"type": "uint256"
						}
					],
					"name": "chargeContract",
					"outputs": [
						{
							"internalType": "bool",
							"name": "",
							"type": "bool"
						}
					],
					"stateMutability": "nonpayable",
					"type": "function"
				},
				{
					"inputs": [],
					"name": "checkAllowance",
					"outputs": [
						{
							"internalType": "uint256",
							"name": "",
							"type": "uint256"
						}
					],
					"stateMutability": "view",
					"type": "function"
				},
				{
					"inputs": [],
					"name": "currentRateFeed",
					"outputs": [
						{
							"internalType": "string",
							"name": "",
							"type": "string"
						}
					],
					"stateMutability": "view",
					"type": "function"
				},
				{
					"inputs": [],
					"name": "currentRateFeedAddress",
					"outputs": [
						{
							"internalType": "address",
							"name": "",
							"type": "address"
						}
					],
					"stateMutability": "view",
					"type": "function"
				},
				{
					"inputs": [],
					"name": "deactivate",
					"outputs": [],
					"stateMutability": "nonpayable",
					"type": "function"
				},
				{
					"inputs": [],
					"name": "getAcceptedSenderAddress",
					"outputs": [
						{
							"internalType": "address",
							"name": "",
							"type": "address"
						}
					],
					"stateMutability": "view",
					"type": "function"
				},
				{
					"inputs": [],
					"name": "getCurrentPointsBalance",
					"outputs": [
						{
							"internalType": "uint256",
							"name": "",
							"type": "uint256"
						}
					],
					"stateMutability": "view",
					"type": "function"
				},
				{
					"inputs": [],
					"name": "getDailyWithdraw",
					"outputs": [
						{
							"internalType": "uint256",
							"name": "",
							"type": "uint256"
						}
					],
					"stateMutability": "view",
					"type": "function"
				},
				{
					"inputs": [],
					"name": "getInitialActivationAddress",
					"outputs": [
						{
							"internalType": "address",
							"name": "",
							"type": "address"
						}
					],
					"stateMutability": "view",
					"type": "function"
				},
				{
					"inputs": [],
					"name": "getTokenInfo",
					"outputs": [
						{
							"internalType": "address",
							"name": "",
							"type": "address"
						},
						{
							"internalType": "string",
							"name": "",
							"type": "string"
						}
					],
					"stateMutability": "view",
					"type": "function"
				},
				{
					"inputs": [],
					"name": "getTotalBurnedTokens",
					"outputs": [
						{
							"internalType": "uint256",
							"name": "",
							"type": "uint256"
						}
					],
					"stateMutability": "view",
					"type": "function"
				},
				{
					"inputs": [],
					"name": "getTotalPointsGenerated",
					"outputs": [
						{
							"internalType": "uint256",
							"name": "",
							"type": "uint256"
						}
					],
					"stateMutability": "view",
					"type": "function"
				},
				{
					"inputs": [],
					"name": "initiateBulkMint",
					"outputs": [],
					"stateMutability": "nonpayable",
					"type": "function"
				},
				{
					"inputs": [],
					"name": "owner",
					"outputs": [
						{
							"internalType": "address",
							"name": "",
							"type": "address"
						}
					],
					"stateMutability": "view",
					"type": "function"
				},
				{
					"inputs": [],
					"name": "paused",
					"outputs": [
						{
							"internalType": "bool",
							"name": "",
							"type": "bool"
						}
					],
					"stateMutability": "view",
					"type": "function"
				},
				{
					"inputs": [],
					"name": "renounceOwnership",
					"outputs": [],
					"stateMutability": "nonpayable",
					"type": "function"
				},
				{
					"inputs": [],
					"name": "resume",
					"outputs": [],
					"stateMutability": "nonpayable",
					"type": "function"
				},
				{
					"inputs": [],
					"name": "stop",
					"outputs": [],
					"stateMutability": "nonpayable",
					"type": "function"
				},
				{
					"inputs": [
						{
							"internalType": "address",
							"name": "tokenAddress",
							"type": "address"
						},
						{
							"internalType": "address",
							"name": "receiver",
							"type": "address"
						},
						{
							"internalType": "uint256",
							"name": "amount",
							"type": "uint256"
						}
					],
					"name": "transferOfToken",
					"outputs": [
						{
							"internalType": "bool",
							"name": "",
							"type": "bool"
						}
					],
					"stateMutability": "nonpayable",
					"type": "function"
				},
				{
					"inputs": [
						{
							"internalType": "address",
							"name": "newOwner",
							"type": "address"
						}
					],
					"name": "transferOwnership",
					"outputs": [],
					"stateMutability": "nonpayable",
					"type": "function"
				},
				{
					"inputs": [
						{
							"internalType": "uint256",
							"name": "value",
							"type": "uint256"
						},
						{
							"internalType": "address",
							"name": "wallet",
							"type": "address"
						}
					],
					"name": "withdraw",
					"outputs": [],
					"stateMutability": "nonpayable",
					"type": "function"
				}
			],
			"devdoc": {
				"events": {
					"Paused(address)": {
						"details": "Emitted when the pause is triggered by `account`."
					},
					"Unpaused(address)": {
						"details": "Emitted when the pause is lifted by `account`."
					}
				},
				"kind": "dev",
				"methods": {
					"owner()": {
						"details": "Returns the address of the current owner."
					},
					"paused()": {
						"details": "Returns true if the contract is paused, and false otherwise."
					},
					"renounceOwnership()": {
						"details": "Leaves the contract without owner. It will not be possible to call `onlyOwner` functions anymore. Can only be called by the current owner. NOTE: Renouncing ownership will leave the contract without an owner, thereby removing any functionality that is only available to the owner."
					},
					"transferOwnership(address)": {
						"details": "Transfers ownership of the contract to a new account (`newOwner`). Can only be called by the current owner."
					}
				},
				"version": 1
			},
			"evm": {
				"assembly": "    /* \"token_eco_system_dev_contracts/contracts_ready_for_prod/TokenEcoSystemParticipationV1_0_flattened.sol\":25807:37888  contract TokenEcoSystemParticipation is Pausable, Ownable {... */\n  mstore(0x40, 0xc0)\n    /* \"token_eco_system_dev_contracts/contracts_ready_for_prod/TokenEcoSystemParticipationV1_0_flattened.sol\":26117:26121  true */\n  0x01\n    /* \"token_eco_system_dev_contracts/contracts_ready_for_prod/TokenEcoSystemParticipationV1_0_flattened.sol\":26097:26121  bool poolRateFeed = true */\n  dup1\n  exp(0x0100, 0x14)\n  dup2\n  sload\n  dup2\n  0xff\n  mul\n  not\n  and\n  swap1\n  dup4\n  iszero\n  iszero\n  mul\n  or\n  swap1\n  sstore\n  pop\n    /* \"token_eco_system_dev_contracts/contracts_ready_for_prod/TokenEcoSystemParticipationV1_0_flattened.sol\":26157:26158  0 */\n  0x00\n    /* \"token_eco_system_dev_contracts/contracts_ready_for_prod/TokenEcoSystemParticipationV1_0_flattened.sol\":26127:26158  uint256 private totalBurned = 0 */\n  0x02\n  sstore\n    /* \"token_eco_system_dev_contracts/contracts_ready_for_prod/TokenEcoSystemParticipationV1_0_flattened.sol\":26197:26198  0 */\n  0x00\n    /* \"token_eco_system_dev_contracts/contracts_ready_for_prod/TokenEcoSystemParticipationV1_0_flattened.sol\":26164:26198  uint256 private totalConverted = 0 */\n  0x03\n  sstore\n    /* \"token_eco_system_dev_contracts/contracts_ready_for_prod/TokenEcoSystemParticipationV1_0_flattened.sol\":26242:26243  0 */\n  0x00\n    /* \"token_eco_system_dev_contracts/contracts_ready_for_prod/TokenEcoSystemParticipationV1_0_flattened.sol\":26204:26243  uint256 private availableToWithdraw = 0 */\n  0x04\n  sstore\n    /* \"token_eco_system_dev_contracts/contracts_ready_for_prod/TokenEcoSystemParticipationV1_0_flattened.sol\":26281:26282  0 */\n  0x00\n    /* \"token_eco_system_dev_contracts/contracts_ready_for_prod/TokenEcoSystemParticipationV1_0_flattened.sol\":26249:26282  uint256 private dailyWithdraw = 0 */\n  0x05\n  sstore\n    /* \"token_eco_system_dev_contracts/contracts_ready_for_prod/TokenEcoSystemParticipationV1_0_flattened.sol\":27683:27879  constructor(address _acceptedTokens, address _activator) {... */\n  callvalue\n  dup1\n  iszero\n  tag_1\n  jumpi\n  0x00\n  dup1\n  revert\ntag_1:\n  pop\n  mload(0x40)\n  sub(codesize, bytecodeSize)\n  dup1\n  bytecodeSize\n  dup4\n  codecopy\n  dup2\n  dup2\n  add\n  0x40\n  mstore\n  dup2\n  add\n  swap1\n  tag_2\n  swap2\n  swap1\n  tag_3\n  jump\t// in\ntag_2:\n    /* \"token_eco_system_dev_contracts/contracts_ready_for_prod/TokenEcoSystemParticipationV1_0_flattened.sol\":4513:4518  false */\n  0x00\n    /* \"token_eco_system_dev_contracts/contracts_ready_for_prod/TokenEcoSystemParticipationV1_0_flattened.sol\":4503:4510  _paused */\n  dup1\n  0x00\n    /* \"token_eco_system_dev_contracts/contracts_ready_for_prod/TokenEcoSystemParticipationV1_0_flattened.sol\":4503:4518  _paused = false */\n  0x0100\n  exp\n  dup2\n  sload\n  dup2\n  0xff\n  mul\n  not\n  and\n  swap1\n  dup4\n  iszero\n  iszero\n  mul\n  or\n  swap1\n  sstore\n  pop\n    /* \"token_eco_system_dev_contracts/contracts_ready_for_prod/TokenEcoSystemParticipationV1_0_flattened.sol\":1825:1857  _transferOwnership(_msgSender()) */\n  tag_9\n    /* \"token_eco_system_dev_contracts/contracts_ready_for_prod/TokenEcoSystemParticipationV1_0_flattened.sol\":1844:1856  _msgSender() */\n  tag_10\n    /* \"token_eco_system_dev_contracts/contracts_ready_for_prod/TokenEcoSystemParticipationV1_0_flattened.sol\":1844:1854  _msgSender */\n  shl(0x20, tag_11)\n    /* \"token_eco_system_dev_contracts/contracts_ready_for_prod/TokenEcoSystemParticipationV1_0_flattened.sol\":1844:1856  _msgSender() */\n  0x20\n  shr\n  jump\t// in\ntag_10:\n    /* \"token_eco_system_dev_contracts/contracts_ready_for_prod/TokenEcoSystemParticipationV1_0_flattened.sol\":1825:1843  _transferOwnership */\n  shl(0x20, tag_12)\n    /* \"token_eco_system_dev_contracts/contracts_ready_for_prod/TokenEcoSystemParticipationV1_0_flattened.sol\":1825:1857  _transferOwnership(_msgSender()) */\n  0x20\n  shr\n  jump\t// in\ntag_9:\n    /* \"token_eco_system_dev_contracts/contracts_ready_for_prod/TokenEcoSystemParticipationV1_0_flattened.sol\":27780:27781  0 */\n  0x00\n    /* \"token_eco_system_dev_contracts/contracts_ready_for_prod/TokenEcoSystemParticipationV1_0_flattened.sol\":27758:27782  _activator != address(0) */\n  0xffffffffffffffffffffffffffffffffffffffff\n  and\n    /* \"token_eco_system_dev_contracts/contracts_ready_for_prod/TokenEcoSystemParticipationV1_0_flattened.sol\":27758:27768  _activator */\n  dup2\n    /* \"token_eco_system_dev_contracts/contracts_ready_for_prod/TokenEcoSystemParticipationV1_0_flattened.sol\":27758:27782  _activator != address(0) */\n  0xffffffffffffffffffffffffffffffffffffffff\n  and\n  sub\n    /* \"token_eco_system_dev_contracts/contracts_ready_for_prod/TokenEcoSystemParticipationV1_0_flattened.sol\":27750:27783  require(_activator != address(0)) */\n  tag_14\n  jumpi\n  0x00\n  dup1\n  revert\ntag_14:\n    /* \"token_eco_system_dev_contracts/contracts_ready_for_prod/TokenEcoSystemParticipationV1_0_flattened.sol\":27805:27815  _activator */\n  dup1\n    /* \"token_eco_system_dev_contracts/contracts_ready_for_prod/TokenEcoSystemParticipationV1_0_flattened.sol\":27793:27815  activator = _activator */\n  0xffffffffffffffffffffffffffffffffffffffff\n  and\n  0x80\n  dup2\n  0xffffffffffffffffffffffffffffffffffffffff\n  and\n  dup2\n  mstore\n  pop\n  pop\n    /* \"token_eco_system_dev_contracts/contracts_ready_for_prod/TokenEcoSystemParticipationV1_0_flattened.sol\":27856:27871  _acceptedTokens */\n  dup2\n    /* \"token_eco_system_dev_contracts/contracts_ready_for_prod/TokenEcoSystemParticipationV1_0_flattened.sol\":27825:27872  token = ERC20BurnableInterface(_acceptedTokens) */\n  0xffffffffffffffffffffffffffffffffffffffff\n  and\n  0xa0\n  dup2\n  0xffffffffffffffffffffffffffffffffffffffff\n  and\n  dup2\n  mstore\n  pop\n  pop\n    /* \"token_eco_system_dev_contracts/contracts_ready_for_prod/TokenEcoSystemParticipationV1_0_flattened.sol\":27683:27879  constructor(address _acceptedTokens, address _activator) {... */\n  pop\n  pop\n    /* \"token_eco_system_dev_contracts/contracts_ready_for_prod/TokenEcoSystemParticipationV1_0_flattened.sol\":25807:37888  contract TokenEcoSystemParticipation is Pausable, Ownable {... */\n  jump(tag_15)\n    /* \"token_eco_system_dev_contracts/contracts_ready_for_prod/TokenEcoSystemParticipationV1_0_flattened.sol\":693:789  function _msgSender() internal view virtual returns (address) {... */\ntag_11:\n    /* \"token_eco_system_dev_contracts/contracts_ready_for_prod/TokenEcoSystemParticipationV1_0_flattened.sol\":746:753  address */\n  0x00\n    /* \"token_eco_system_dev_contracts/contracts_ready_for_prod/TokenEcoSystemParticipationV1_0_flattened.sol\":772:782  msg.sender */\n  caller\n    /* \"token_eco_system_dev_contracts/contracts_ready_for_prod/TokenEcoSystemParticipationV1_0_flattened.sol\":765:782  return msg.sender */\n  swap1\n  pop\n    /* \"token_eco_system_dev_contracts/contracts_ready_for_prod/TokenEcoSystemParticipationV1_0_flattened.sol\":693:789  function _msgSender() internal view virtual returns (address) {... */\n  swap1\n  jump\t// out\n    /* \"token_eco_system_dev_contracts/contracts_ready_for_prod/TokenEcoSystemParticipationV1_0_flattened.sol\":3322:3509  function _transferOwnership(address newOwner) internal virtual {... */\ntag_12:\n    /* \"token_eco_system_dev_contracts/contracts_ready_for_prod/TokenEcoSystemParticipationV1_0_flattened.sol\":3395:3411  address oldOwner */\n  0x00\n    /* \"token_eco_system_dev_contracts/contracts_ready_for_prod/TokenEcoSystemParticipationV1_0_flattened.sol\":3414:3420  _owner */\n  dup1\n  0x01\n  swap1\n  sload\n  swap1\n  0x0100\n  exp\n  swap1\n  div\n  0xffffffffffffffffffffffffffffffffffffffff\n  and\n    /* \"token_eco_system_dev_contracts/contracts_ready_for_prod/TokenEcoSystemParticipationV1_0_flattened.sol\":3395:3420  address oldOwner = _owner */\n  swap1\n  pop\n    /* \"token_eco_system_dev_contracts/contracts_ready_for_prod/TokenEcoSystemParticipationV1_0_flattened.sol\":3439:3447  newOwner */\n  dup2\n    /* \"token_eco_system_dev_contracts/contracts_ready_for_prod/TokenEcoSystemParticipationV1_0_flattened.sol\":3430:3436  _owner */\n  0x00\n  0x01\n    /* \"token_eco_system_dev_contracts/contracts_ready_for_prod/TokenEcoSystemParticipationV1_0_flattened.sol\":3430:3447  _owner = newOwner */\n  0x0100\n  exp\n  dup2\n  sload\n  dup2\n  0xffffffffffffffffffffffffffffffffffffffff\n  mul\n  not\n  and\n  swap1\n  dup4\n  0xffffffffffffffffffffffffffffffffffffffff\n  and\n  mul\n  or\n  swap1\n  sstore\n  pop\n    /* \"token_eco_system_dev_contracts/contracts_ready_for_prod/TokenEcoSystemParticipationV1_0_flattened.sol\":3493:3501  newOwner */\n  dup2\n    /* \"token_eco_system_dev_contracts/contracts_ready_for_prod/TokenEcoSystemParticipationV1_0_flattened.sol\":3462:3502  OwnershipTransferred(oldOwner, newOwner) */\n  0xffffffffffffffffffffffffffffffffffffffff\n  and\n    /* \"token_eco_system_dev_contracts/contracts_ready_for_prod/TokenEcoSystemParticipationV1_0_flattened.sol\":3483:3491  oldOwner */\n  dup2\n    /* \"token_eco_system_dev_contracts/contracts_ready_for_prod/TokenEcoSystemParticipationV1_0_flattened.sol\":3462:3502  OwnershipTransferred(oldOwner, newOwner) */\n  0xffffffffffffffffffffffffffffffffffffffff\n  and\n  0x8be0079c531659141344cd1fd0a4f28419497f9722a3daafe3b4186f6b6457e0\n  mload(0x40)\n  mload(0x40)\n  dup1\n  swap2\n  sub\n  swap1\n  log3\n    /* \"token_eco_system_dev_contracts/contracts_ready_for_prod/TokenEcoSystemParticipationV1_0_flattened.sol\":3385:3509  {... */\n  pop\n    /* \"token_eco_system_dev_contracts/contracts_ready_for_prod/TokenEcoSystemParticipationV1_0_flattened.sol\":3322:3509  function _transferOwnership(address newOwner) internal virtual {... */\n  pop\n  jump\t// out\n    /* \"#utility.yul\":88:205   */\ntag_19:\n    /* \"#utility.yul\":197:198   */\n  0x00\n    /* \"#utility.yul\":194:195   */\n  dup1\n    /* \"#utility.yul\":187:199   */\n  revert\n    /* \"#utility.yul\":334:460   */\ntag_21:\n    /* \"#utility.yul\":371:378   */\n  0x00\n    /* \"#utility.yul\":411:453   */\n  0xffffffffffffffffffffffffffffffffffffffff\n    /* \"#utility.yul\":404:409   */\n  dup3\n    /* \"#utility.yul\":400:454   */\n  and\n    /* \"#utility.yul\":389:454   */\n  swap1\n  pop\n    /* \"#utility.yul\":334:460   */\n  swap2\n  swap1\n  pop\n  jump\t// out\n    /* \"#utility.yul\":466:562   */\ntag_22:\n    /* \"#utility.yul\":503:510   */\n  0x00\n    /* \"#utility.yul\":532:556   */\n  tag_31\n    /* \"#utility.yul\":550:555   */\n  dup3\n    /* \"#utility.yul\":532:556   */\n  tag_21\n  jump\t// in\ntag_31:\n    /* \"#utility.yul\":521:556   */\n  swap1\n  pop\n    /* \"#utility.yul\":466:562   */\n  swap2\n  swap1\n  pop\n  jump\t// out\n    /* \"#utility.yul\":568:690   */\ntag_23:\n    /* \"#utility.yul\":641:665   */\n  tag_33\n    /* \"#utility.yul\":659:664   */\n  dup2\n    /* \"#utility.yul\":641:665   */\n  tag_22\n  jump\t// in\ntag_33:\n    /* \"#utility.yul\":634:639   */\n  dup2\n    /* \"#utility.yul\":631:666   */\n  eq\n    /* \"#utility.yul\":621:684   */\n  tag_34\n  jumpi\n    /* \"#utility.yul\":680:681   */\n  0x00\n    /* \"#utility.yul\":677:678   */\n  dup1\n    /* \"#utility.yul\":670:682   */\n  revert\n    /* \"#utility.yul\":621:684   */\ntag_34:\n    /* \"#utility.yul\":568:690   */\n  pop\n  jump\t// out\n    /* \"#utility.yul\":696:839   */\ntag_24:\n    /* \"#utility.yul\":753:758   */\n  0x00\n    /* \"#utility.yul\":784:790   */\n  dup2\n    /* \"#utility.yul\":778:791   */\n  mload\n    /* \"#utility.yul\":769:791   */\n  swap1\n  pop\n    /* \"#utility.yul\":800:833   */\n  tag_36\n    /* \"#utility.yul\":827:832   */\n  dup2\n    /* \"#utility.yul\":800:833   */\n  tag_23\n  jump\t// in\ntag_36:\n    /* \"#utility.yul\":696:839   */\n  swap3\n  swap2\n  pop\n  pop\n  jump\t// out\n    /* \"#utility.yul\":845:1352   */\ntag_3:\n    /* \"#utility.yul\":924:930   */\n  0x00\n    /* \"#utility.yul\":932:938   */\n  dup1\n    /* \"#utility.yul\":981:983   */\n  0x40\n    /* \"#utility.yul\":969:978   */\n  dup4\n    /* \"#utility.yul\":960:967   */\n  dup6\n    /* \"#utility.yul\":956:979   */\n  sub\n    /* \"#utility.yul\":952:984   */\n  slt\n    /* \"#utility.yul\":949:1068   */\n  iszero\n  tag_38\n  jumpi\n    /* \"#utility.yul\":987:1066   */\n  tag_39\n  tag_19\n  jump\t// in\ntag_39:\n    /* \"#utility.yul\":949:1068   */\ntag_38:\n    /* \"#utility.yul\":1107:1108   */\n  0x00\n    /* \"#utility.yul\":1132:1196   */\n  tag_40\n    /* \"#utility.yul\":1188:1195   */\n  dup6\n    /* \"#utility.yul\":1179:1185   */\n  dup3\n    /* \"#utility.yul\":1168:1177   */\n  dup7\n    /* \"#utility.yul\":1164:1186   */\n  add\n    /* \"#utility.yul\":1132:1196   */\n  tag_24\n  jump\t// in\ntag_40:\n    /* \"#utility.yul\":1122:1196   */\n  swap3\n  pop\n    /* \"#utility.yul\":1078:1206   */\n  pop\n    /* \"#utility.yul\":1245:1247   */\n  0x20\n    /* \"#utility.yul\":1271:1335   */\n  tag_41\n    /* \"#utility.yul\":1327:1334   */\n  dup6\n    /* \"#utility.yul\":1318:1324   */\n  dup3\n    /* \"#utility.yul\":1307:1316   */\n  dup7\n    /* \"#utility.yul\":1303:1325   */\n  add\n    /* \"#utility.yul\":1271:1335   */\n  tag_24\n  jump\t// in\ntag_41:\n    /* \"#utility.yul\":1261:1335   */\n  swap2\n  pop\n    /* \"#utility.yul\":1216:1345   */\n  pop\n    /* \"#utility.yul\":845:1352   */\n  swap3\n  pop\n  swap3\n  swap1\n  pop\n  jump\t// out\n    /* \"token_eco_system_dev_contracts/contracts_ready_for_prod/TokenEcoSystemParticipationV1_0_flattened.sol\":25807:37888  contract TokenEcoSystemParticipation is Pausable, Ownable {... */\ntag_15:\n  mload(0x80)\n  mload(0xa0)\n  codecopy(0x00, dataOffset(sub_0), dataSize(sub_0))\n  0x00\n  assignImmutable(\"0x474e8cbbfd90dba9df5fc054f99b290c4296483a721448990672feaba0c59d72\")\n  0x00\n  assignImmutable(\"0xc0bf3ddb79e7c5faf09af1eaa09640fae848e430edf7a04658ec05be9ade7aab\")\n  return(0x00, dataSize(sub_0))\nstop\n\nsub_0: assembly {\n        /* \"token_eco_system_dev_contracts/contracts_ready_for_prod/TokenEcoSystemParticipationV1_0_flattened.sol\":25807:37888  contract TokenEcoSystemParticipation is Pausable, Ownable {... */\n      mstore(0x40, 0x80)\n      callvalue\n      dup1\n      iszero\n      tag_1\n      jumpi\n      0x00\n      dup1\n      revert\n    tag_1:\n      pop\n      jumpi(tag_2, lt(calldatasize, 0x04))\n      shr(0xe0, calldataload(0x00))\n      dup1\n      0x7754723e\n      gt\n      tag_32\n      jumpi\n      dup1\n      0xb0b5e39e\n      gt\n      tag_33\n      jumpi\n      dup1\n      0xe8088766\n      gt\n      tag_34\n      jumpi\n      dup1\n      0xe8088766\n      eq\n      tag_28\n      jumpi\n      dup1\n      0xed969c84\n      eq\n      tag_29\n      jumpi\n      dup1\n      0xf2fde38b\n      eq\n      tag_30\n      jumpi\n      dup1\n      0xf9850907\n      eq\n      tag_31\n      jumpi\n      jump(tag_2)\n    tag_34:\n      dup1\n      0xb0b5e39e\n      eq\n      tag_24\n      jumpi\n      dup1\n      0xb99152d0\n      eq\n      tag_25\n      jumpi\n      dup1\n      0xba007e75\n      eq\n      tag_26\n      jumpi\n      dup1\n      0xe6367ebe\n      eq\n      tag_27\n      jumpi\n      jump(tag_2)\n    tag_33:\n      dup1\n      0x9934415e\n      gt\n      tag_35\n      jumpi\n      dup1\n      0x9934415e\n      eq\n      tag_20\n      jumpi\n      dup1\n      0xa24723e8\n      eq\n      tag_21\n      jumpi\n      dup1\n      0xa684ab5c\n      eq\n      tag_22\n      jumpi\n      dup1\n      0xabb1dc44\n      eq\n      tag_23\n      jumpi\n      jump(tag_2)\n    tag_35:\n      dup1\n      0x7754723e\n      eq\n      tag_17\n      jumpi\n      dup1\n      0x8da5cb5b\n      eq\n      tag_18\n      jumpi\n      dup1\n      0x9405de64\n      eq\n      tag_19\n      jumpi\n      jump(tag_2)\n    tag_32:\n      dup1\n      0x2af0e251\n      gt\n      tag_36\n      jumpi\n      dup1\n      0x5c975abb\n      gt\n      tag_37\n      jumpi\n      dup1\n      0x5c975abb\n      eq\n      tag_13\n      jumpi\n      dup1\n      0x6a9d43dd\n      eq\n      tag_14\n      jumpi\n      dup1\n      0x715018a6\n      eq\n      tag_15\n      jumpi\n      dup1\n      0x722713f7\n      eq\n      tag_16\n      jumpi\n      jump(tag_2)\n    tag_37:\n      dup1\n      0x2af0e251\n      eq\n      tag_10\n      jumpi\n      dup1\n      0x390885f7\n      eq\n      tag_11\n      jumpi\n      dup1\n      0x51b42b00\n      eq\n      tag_12\n      jumpi\n      jump(tag_2)\n    tag_36:\n      dup1\n      0x08fadcb0\n      gt\n      tag_38\n      jumpi\n      dup1\n      0x08fadcb0\n      eq\n      tag_6\n      jumpi\n      dup1\n      0x0a6cb062\n      eq\n      tag_7\n      jumpi\n      dup1\n      0x0ba2f1d8\n      eq\n      tag_8\n      jumpi\n      dup1\n      0x0f15f4c0\n      eq\n      tag_9\n      jumpi\n      jump(tag_2)\n    tag_38:\n      dup1\n      0xf714ce\n      eq\n      tag_3\n      jumpi\n      dup1\n      0x046f7da2\n      eq\n      tag_4\n      jumpi\n      dup1\n      0x07da68f5\n      eq\n      tag_5\n      jumpi\n    tag_2:\n      0x00\n      dup1\n      revert\n        /* \"token_eco_system_dev_contracts/contracts_ready_for_prod/TokenEcoSystemParticipationV1_0_flattened.sol\":33657:34144  function withdraw(uint256 value, address wallet) public onlyOwner {... */\n    tag_3:\n      tag_39\n      0x04\n      dup1\n      calldatasize\n      sub\n      dup2\n      add\n      swap1\n      tag_40\n      swap2\n      swap1\n      tag_41\n      jump\t// in\n    tag_40:\n      tag_42\n      jump\t// in\n    tag_39:\n      stop\n        /* \"token_eco_system_dev_contracts/contracts_ready_for_prod/TokenEcoSystemParticipationV1_0_flattened.sol\":28925:28998  function resume() public whenPaused onlyOwner {... */\n    tag_4:\n      tag_43\n      tag_44\n      jump\t// in\n    tag_43:\n      stop\n        /* \"token_eco_system_dev_contracts/contracts_ready_for_prod/TokenEcoSystemParticipationV1_0_flattened.sol\":28847:28919  function stop() public whenNotPaused onlyOwner {... */\n    tag_5:\n      tag_45\n      tag_46\n      jump\t// in\n    tag_45:\n      stop\n        /* \"token_eco_system_dev_contracts/contracts_ready_for_prod/TokenEcoSystemParticipationV1_0_flattened.sol\":35610:35767  function getAcceptedSenderAddress()... */\n    tag_6:\n      tag_47\n      tag_48\n      jump\t// in\n    tag_47:\n      mload(0x40)\n      tag_49\n      swap2\n      swap1\n      tag_50\n      jump\t// in\n    tag_49:\n      mload(0x40)\n      dup1\n      swap2\n      sub\n      swap1\n      return\n        /* \"token_eco_system_dev_contracts/contracts_ready_for_prod/TokenEcoSystemParticipationV1_0_flattened.sol\":29054:29330  function addNewAggregatorPriceFeed(address consumerInterfaceAddress)... */\n    tag_7:\n      tag_51\n      0x04\n      dup1\n      calldatasize\n      sub\n      dup2\n      add\n      swap1\n      tag_52\n      swap2\n      swap1\n      tag_53\n      jump\t// in\n    tag_52:\n      tag_54\n      jump\t// in\n    tag_51:\n      stop\n        /* \"token_eco_system_dev_contracts/contracts_ready_for_prod/TokenEcoSystemParticipationV1_0_flattened.sol\":28540:28841  function changeAcceptedSenderAddress(address newAcceptedSender)... */\n    tag_8:\n      tag_55\n      0x04\n      dup1\n      calldatasize\n      sub\n      dup2\n      add\n      swap1\n      tag_56\n      swap2\n      swap1\n      tag_53\n      jump\t// in\n    tag_56:\n      tag_57\n      jump\t// in\n    tag_55:\n      stop\n        /* \"token_eco_system_dev_contracts/contracts_ready_for_prod/TokenEcoSystemParticipationV1_0_flattened.sol\":27955:28255  function activate() public whenNotPaused {... */\n    tag_9:\n      tag_58\n      tag_59\n      jump\t// in\n    tag_58:\n      stop\n        /* \"token_eco_system_dev_contracts/contracts_ready_for_prod/TokenEcoSystemParticipationV1_0_flattened.sol\":34669:34842  function getTotalBurnedTokens()... */\n    tag_10:\n      tag_60\n      tag_61\n      jump\t// in\n    tag_60:\n      mload(0x40)\n      tag_62\n      swap2\n      swap1\n      tag_63\n      jump\t// in\n    tag_62:\n      mload(0x40)\n      dup1\n      swap2\n      sub\n      swap1\n      return\n        /* \"token_eco_system_dev_contracts/contracts_ready_for_prod/TokenEcoSystemParticipationV1_0_flattened.sol\":34211:34592  function initiateBulkMint() public onlyOwner {... */\n    tag_11:\n      tag_64\n      tag_65\n      jump\t// in\n    tag_64:\n      stop\n        /* \"token_eco_system_dev_contracts/contracts_ready_for_prod/TokenEcoSystemParticipationV1_0_flattened.sol\":28309:28482  function deactivate() public activated onlyAuthorized whenNotPaused {... */\n    tag_12:\n      tag_66\n      tag_67\n      jump\t// in\n    tag_66:\n      stop\n        /* \"token_eco_system_dev_contracts/contracts_ready_for_prod/TokenEcoSystemParticipationV1_0_flattened.sol\":5122:5206  function paused() public view virtual returns (bool) {... */\n    tag_13:\n      tag_68\n      tag_69\n      jump\t// in\n    tag_68:\n      mload(0x40)\n      tag_70\n      swap2\n      swap1\n      tag_71\n      jump\t// in\n    tag_70:\n      mload(0x40)\n      dup1\n      swap2\n      sub\n      swap1\n      return\n        /* \"token_eco_system_dev_contracts/contracts_ready_for_prod/TokenEcoSystemParticipationV1_0_flattened.sol\":33297:33591  function transferOfToken(... */\n    tag_14:\n      tag_72\n      0x04\n      dup1\n      calldatasize\n      sub\n      dup2\n      add\n      swap1\n      tag_73\n      swap2\n      swap1\n      tag_74\n      jump\t// in\n    tag_73:\n      tag_75\n      jump\t// in\n    tag_72:\n      mload(0x40)\n      tag_76\n      swap2\n      swap1\n      tag_71\n      jump\t// in\n    tag_76:\n      mload(0x40)\n      dup1\n      swap2\n      sub\n      swap1\n      return\n        /* \"token_eco_system_dev_contracts/contracts_ready_for_prod/TokenEcoSystemParticipationV1_0_flattened.sol\":2720:2821  function renounceOwnership() public virtual onlyOwner {... */\n    tag_15:\n      tag_77\n      tag_78\n      jump\t// in\n    tag_77:\n      stop\n        /* \"token_eco_system_dev_contracts/contracts_ready_for_prod/TokenEcoSystemParticipationV1_0_flattened.sol\":32756:32871  function balanceOf() public view onlyOwner returns (uint256) {... */\n    tag_16:\n      tag_79\n      tag_80\n      jump\t// in\n    tag_79:\n      mload(0x40)\n      tag_81\n      swap2\n      swap1\n      tag_63\n      jump\t// in\n    tag_81:\n      mload(0x40)\n      dup1\n      swap2\n      sub\n      swap1\n      return\n        /* \"token_eco_system_dev_contracts/contracts_ready_for_prod/TokenEcoSystemParticipationV1_0_flattened.sol\":30764:31118  function calculateAmount(... */\n    tag_17:\n      tag_82\n      0x04\n      dup1\n      calldatasize\n      sub\n      dup2\n      add\n      swap1\n      tag_83\n      swap2\n      swap1\n      tag_84\n      jump\t// in\n    tag_83:\n      tag_85\n      jump\t// in\n    tag_82:\n      mload(0x40)\n      tag_86\n      swap2\n      swap1\n      tag_63\n      jump\t// in\n    tag_86:\n      mload(0x40)\n      dup1\n      swap2\n      sub\n      swap1\n      return\n        /* \"token_eco_system_dev_contracts/contracts_ready_for_prod/TokenEcoSystemParticipationV1_0_flattened.sol\":2090:2175  function owner() public view virtual returns (address) {... */\n    tag_18:\n      tag_87\n      tag_88\n      jump\t// in\n    tag_87:\n      mload(0x40)\n      tag_89\n      swap2\n      swap1\n      tag_50\n      jump\t// in\n    tag_89:\n      mload(0x40)\n      dup1\n      swap2\n      sub\n      swap1\n      return\n        /* \"token_eco_system_dev_contracts/contracts_ready_for_prod/TokenEcoSystemParticipationV1_0_flattened.sol\":31124:31267  function checkAllowance() public onlyOwnerOrAuthorized view returns (uint256){... */\n    tag_19:\n      tag_90\n      tag_91\n      jump\t// in\n    tag_90:\n      mload(0x40)\n      tag_92\n      swap2\n      swap1\n      tag_63\n      jump\t// in\n    tag_92:\n      mload(0x40)\n      dup1\n      swap2\n      sub\n      swap1\n      return\n        /* \"token_eco_system_dev_contracts/contracts_ready_for_prod/TokenEcoSystemParticipationV1_0_flattened.sol\":30440:30663  function currentRateFeedAddress() public view onlyOwner returns (address) {... */\n    tag_20:\n      tag_93\n      tag_94\n      jump\t// in\n    tag_93:\n      mload(0x40)\n      tag_95\n      swap2\n      swap1\n      tag_50\n      jump\t// in\n    tag_95:\n      mload(0x40)\n      dup1\n      swap2\n      sub\n      swap1\n      return\n        /* \"token_eco_system_dev_contracts/contracts_ready_for_prod/TokenEcoSystemParticipationV1_0_flattened.sol\":35415:35568  function getDailyWithdraw()... */\n    tag_21:\n      tag_96\n      tag_97\n      jump\t// in\n    tag_96:\n      mload(0x40)\n      tag_98\n      swap2\n      swap1\n      tag_63\n      jump\t// in\n    tag_98:\n      mload(0x40)\n      dup1\n      swap2\n      sub\n      swap1\n      return\n        /* \"token_eco_system_dev_contracts/contracts_ready_for_prod/TokenEcoSystemParticipationV1_0_flattened.sol\":34941:35120  function getTotalPointsGenerated()... */\n    tag_22:\n      tag_99\n      tag_100\n      jump\t// in\n    tag_99:\n      mload(0x40)\n      tag_101\n      swap2\n      swap1\n      tag_63\n      jump\t// in\n    tag_101:\n      mload(0x40)\n      dup1\n      swap2\n      sub\n      swap1\n      return\n        /* \"token_eco_system_dev_contracts/contracts_ready_for_prod/TokenEcoSystemParticipationV1_0_flattened.sol\":36027:36228  function getTokenInfo()... */\n    tag_23:\n      tag_102\n      tag_103\n      jump\t// in\n    tag_102:\n      mload(0x40)\n      tag_104\n      swap3\n      swap2\n      swap1\n      tag_105\n      jump\t// in\n    tag_104:\n      mload(0x40)\n      dup1\n      swap2\n      sub\n      swap1\n      return\n        /* \"token_eco_system_dev_contracts/contracts_ready_for_prod/TokenEcoSystemParticipationV1_0_flattened.sol\":29407:29642  function addNewPoolRateFeed(address consumerInterfaceAddress)... */\n    tag_24:\n      tag_106\n      0x04\n      dup1\n      calldatasize\n      sub\n      dup2\n      add\n      swap1\n      tag_107\n      swap2\n      swap1\n      tag_53\n      jump\t// in\n    tag_107:\n      tag_108\n      jump\t// in\n    tag_106:\n      stop\n        /* \"token_eco_system_dev_contracts/contracts_ready_for_prod/TokenEcoSystemParticipationV1_0_flattened.sol\":32999:33190  function balanceOfToken(address tokenAddress)... */\n    tag_25:\n      tag_109\n      0x04\n      dup1\n      calldatasize\n      sub\n      dup2\n      add\n      swap1\n      tag_110\n      swap2\n      swap1\n      tag_53\n      jump\t// in\n    tag_110:\n      tag_111\n      jump\t// in\n    tag_109:\n      mload(0x40)\n      tag_112\n      swap2\n      swap1\n      tag_63\n      jump\t// in\n    tag_112:\n      mload(0x40)\n      dup1\n      swap2\n      sub\n      swap1\n      return\n        /* \"token_eco_system_dev_contracts/contracts_ready_for_prod/TokenEcoSystemParticipationV1_0_flattened.sol\":35860:35962  function getInitialActivationAddress() public view returns (address) {... */\n    tag_26:\n      tag_113\n      tag_114\n      jump\t// in\n    tag_113:\n      mload(0x40)\n      tag_115\n      swap2\n      swap1\n      tag_50\n      jump\t// in\n    tag_115:\n      mload(0x40)\n      dup1\n      swap2\n      sub\n      swap1\n      return\n        /* \"token_eco_system_dev_contracts/contracts_ready_for_prod/TokenEcoSystemParticipationV1_0_flattened.sol\":30235:30434  function currentRateFeed() public view onlyOwner returns (string memory) {... */\n    tag_27:\n      tag_116\n      tag_117\n      jump\t// in\n    tag_116:\n      mload(0x40)\n      tag_118\n      swap2\n      swap1\n      tag_119\n      jump\t// in\n    tag_118:\n      mload(0x40)\n      dup1\n      swap2\n      sub\n      swap1\n      return\n        /* \"token_eco_system_dev_contracts/contracts_ready_for_prod/TokenEcoSystemParticipationV1_0_flattened.sol\":29716:30188  function changeRateFeed() public onlyOwner {... */\n    tag_28:\n      tag_120\n      tag_121\n      jump\t// in\n    tag_120:\n      stop\n        /* \"token_eco_system_dev_contracts/contracts_ready_for_prod/TokenEcoSystemParticipationV1_0_flattened.sol\":31398:32635  function chargeContract(uint256 amount)... */\n    tag_29:\n      tag_122\n      0x04\n      dup1\n      calldatasize\n      sub\n      dup2\n      add\n      swap1\n      tag_123\n      swap2\n      swap1\n      tag_124\n      jump\t// in\n    tag_123:\n      tag_125\n      jump\t// in\n    tag_122:\n      mload(0x40)\n      tag_126\n      swap2\n      swap1\n      tag_71\n      jump\t// in\n    tag_126:\n      mload(0x40)\n      dup1\n      swap2\n      sub\n      swap1\n      return\n        /* \"token_eco_system_dev_contracts/contracts_ready_for_prod/TokenEcoSystemParticipationV1_0_flattened.sol\":2970:3168  function transferOwnership(address newOwner) public virtual onlyOwner {... */\n    tag_30:\n      tag_127\n      0x04\n      dup1\n      calldatasize\n      sub\n      dup2\n      add\n      swap1\n      tag_128\n      swap2\n      swap1\n      tag_53\n      jump\t// in\n    tag_128:\n      tag_129\n      jump\t// in\n    tag_127:\n      stop\n        /* \"token_eco_system_dev_contracts/contracts_ready_for_prod/TokenEcoSystemParticipationV1_0_flattened.sol\":35162:35346  function getCurrentPointsBalance()... */\n    tag_31:\n      tag_130\n      tag_131\n      jump\t// in\n    tag_130:\n      mload(0x40)\n      tag_132\n      swap2\n      swap1\n      tag_63\n      jump\t// in\n    tag_132:\n      mload(0x40)\n      dup1\n      swap2\n      sub\n      swap1\n      return\n        /* \"token_eco_system_dev_contracts/contracts_ready_for_prod/TokenEcoSystemParticipationV1_0_flattened.sol\":33657:34144  function withdraw(uint256 value, address wallet) public onlyOwner {... */\n    tag_42:\n        /* \"token_eco_system_dev_contracts/contracts_ready_for_prod/TokenEcoSystemParticipationV1_0_flattened.sol\":1983:1996  _checkOwner() */\n      tag_134\n        /* \"token_eco_system_dev_contracts/contracts_ready_for_prod/TokenEcoSystemParticipationV1_0_flattened.sol\":1983:1994  _checkOwner */\n      tag_135\n        /* \"token_eco_system_dev_contracts/contracts_ready_for_prod/TokenEcoSystemParticipationV1_0_flattened.sol\":1983:1996  _checkOwner() */\n      jump\t// in\n    tag_134:\n        /* \"token_eco_system_dev_contracts/contracts_ready_for_prod/TokenEcoSystemParticipationV1_0_flattened.sol\":33785:33798  dailyWithdraw */\n      sload(0x05)\n        /* \"token_eco_system_dev_contracts/contracts_ready_for_prod/TokenEcoSystemParticipationV1_0_flattened.sol\":33763:33782  availableToWithdraw */\n      sload(0x04)\n        /* \"token_eco_system_dev_contracts/contracts_ready_for_prod/TokenEcoSystemParticipationV1_0_flattened.sol\":33763:33798  availableToWithdraw - dailyWithdraw */\n      tag_137\n      swap2\n      swap1\n      tag_138\n      jump\t// in\n    tag_137:\n        /* \"token_eco_system_dev_contracts/contracts_ready_for_prod/TokenEcoSystemParticipationV1_0_flattened.sol\":33754:33759  value */\n      dup3\n        /* \"token_eco_system_dev_contracts/contracts_ready_for_prod/TokenEcoSystemParticipationV1_0_flattened.sol\":33754:33798  value <= availableToWithdraw - dailyWithdraw */\n      gt\n      iszero\n        /* \"token_eco_system_dev_contracts/contracts_ready_for_prod/TokenEcoSystemParticipationV1_0_flattened.sol\":33921:33926  token */\n      immutable(\"0x474e8cbbfd90dba9df5fc054f99b290c4296483a721448990672feaba0c59d72\")\n        /* \"token_eco_system_dev_contracts/contracts_ready_for_prod/TokenEcoSystemParticipationV1_0_flattened.sol\":33921:33933  token.symbol */\n      0xffffffffffffffffffffffffffffffffffffffff\n      and\n      0x95d89b41\n        /* \"token_eco_system_dev_contracts/contracts_ready_for_prod/TokenEcoSystemParticipationV1_0_flattened.sol\":33921:33935  token.symbol() */\n      mload(0x40)\n      dup2\n      0xffffffff\n      and\n      0xe0\n      shl\n      dup2\n      mstore\n      0x04\n      add\n      0x00\n      mload(0x40)\n      dup1\n      dup4\n      sub\n      dup2\n      dup7\n      gas\n      staticcall\n      iszero\n      dup1\n      iszero\n      tag_140\n      jumpi\n      returndatasize\n      0x00\n      dup1\n      returndatacopy\n      revert(0x00, returndatasize)\n    tag_140:\n      pop\n      pop\n      pop\n      pop\n      mload(0x40)\n      returndatasize\n      0x00\n      dup3\n      returndatacopy\n      returndatasize\n      not(0x1f)\n      0x1f\n      dup3\n      add\n      and\n      dup3\n      add\n      dup1\n      0x40\n      mstore\n      pop\n      dup2\n      add\n      swap1\n      tag_141\n      swap2\n      swap1\n      tag_142\n      jump\t// in\n    tag_141:\n        /* \"token_eco_system_dev_contracts/contracts_ready_for_prod/TokenEcoSystemParticipationV1_0_flattened.sol\":33812:33970  string.concat(... */\n      add(0x20, mload(0x40))\n      tag_143\n      swap2\n      swap1\n      tag_144\n      jump\t// in\n    tag_143:\n      mload(0x40)\n      0x20\n      dup2\n      dup4\n      sub\n      sub\n      dup2\n      mstore\n      swap1\n      0x40\n      mstore\n        /* \"token_eco_system_dev_contracts/contracts_ready_for_prod/TokenEcoSystemParticipationV1_0_flattened.sol\":33733:33980  require(... */\n      swap1\n      tag_145\n      jumpi\n      mload(0x40)\n      0x08c379a000000000000000000000000000000000000000000000000000000000\n      dup2\n      mstore\n      0x04\n      add\n      tag_146\n      swap2\n      swap1\n      tag_119\n      jump\t// in\n    tag_146:\n      mload(0x40)\n      dup1\n      swap2\n      sub\n      swap1\n      revert\n    tag_145:\n      pop\n        /* \"token_eco_system_dev_contracts/contracts_ready_for_prod/TokenEcoSystemParticipationV1_0_flattened.sol\":34006:34007  0 */\n      0x00\n        /* \"token_eco_system_dev_contracts/contracts_ready_for_prod/TokenEcoSystemParticipationV1_0_flattened.sol\":33998:34003  value */\n      dup3\n        /* \"token_eco_system_dev_contracts/contracts_ready_for_prod/TokenEcoSystemParticipationV1_0_flattened.sol\":33998:34007  value > 0 */\n      gt\n        /* \"token_eco_system_dev_contracts/contracts_ready_for_prod/TokenEcoSystemParticipationV1_0_flattened.sol\":33990:34050  require(value > 0, \"Withdraw value must be greater than 0!\") */\n      tag_147\n      jumpi\n      mload(0x40)\n      0x08c379a000000000000000000000000000000000000000000000000000000000\n      dup2\n      mstore\n      0x04\n      add\n      tag_148\n      swap1\n      tag_149\n      jump\t// in\n    tag_148:\n      mload(0x40)\n      dup1\n      swap2\n      sub\n      swap1\n      revert\n    tag_147:\n        /* \"token_eco_system_dev_contracts/contracts_ready_for_prod/TokenEcoSystemParticipationV1_0_flattened.sol\":34077:34082  value */\n      dup2\n        /* \"token_eco_system_dev_contracts/contracts_ready_for_prod/TokenEcoSystemParticipationV1_0_flattened.sol\":34060:34073  dailyWithdraw */\n      0x05\n      0x00\n        /* \"token_eco_system_dev_contracts/contracts_ready_for_prod/TokenEcoSystemParticipationV1_0_flattened.sol\":34060:34082  dailyWithdraw += value */\n      dup3\n      dup3\n      sload\n      tag_150\n      swap2\n      swap1\n      tag_151\n      jump\t// in\n    tag_150:\n      swap3\n      pop\n      pop\n      dup2\n      swap1\n      sstore\n      pop\n        /* \"token_eco_system_dev_contracts/contracts_ready_for_prod/TokenEcoSystemParticipationV1_0_flattened.sol\":34130:34136  wallet */\n      dup1\n        /* \"token_eco_system_dev_contracts/contracts_ready_for_prod/TokenEcoSystemParticipationV1_0_flattened.sol\":34097:34137  Withdraw(block.timestamp, value, wallet) */\n      0xffffffffffffffffffffffffffffffffffffffff\n      and\n        /* \"token_eco_system_dev_contracts/contracts_ready_for_prod/TokenEcoSystemParticipationV1_0_flattened.sol\":34106:34121  block.timestamp */\n      timestamp\n        /* \"token_eco_system_dev_contracts/contracts_ready_for_prod/TokenEcoSystemParticipationV1_0_flattened.sol\":34097:34137  Withdraw(block.timestamp, value, wallet) */\n      0x71ef96c43343734b1d843bb85d52ef329f5e9143e4d35827771e3b0dd90c5f84\n        /* \"token_eco_system_dev_contracts/contracts_ready_for_prod/TokenEcoSystemParticipationV1_0_flattened.sol\":34123:34128  value */\n      dup5\n        /* \"token_eco_system_dev_contracts/contracts_ready_for_prod/TokenEcoSystemParticipationV1_0_flattened.sol\":34097:34137  Withdraw(block.timestamp, value, wallet) */\n      mload(0x40)\n      tag_152\n      swap2\n      swap1\n      tag_63\n      jump\t// in\n    tag_152:\n      mload(0x40)\n      dup1\n      swap2\n      sub\n      swap1\n      log3\n        /* \"token_eco_system_dev_contracts/contracts_ready_for_prod/TokenEcoSystemParticipationV1_0_flattened.sol\":33657:34144  function withdraw(uint256 value, address wallet) public onlyOwner {... */\n      pop\n      pop\n      jump\t// out\n        /* \"token_eco_system_dev_contracts/contracts_ready_for_prod/TokenEcoSystemParticipationV1_0_flattened.sol\":28925:28998  function resume() public whenPaused onlyOwner {... */\n    tag_44:\n        /* \"token_eco_system_dev_contracts/contracts_ready_for_prod/TokenEcoSystemParticipationV1_0_flattened.sol\":4993:5009  _requirePaused() */\n      tag_154\n        /* \"token_eco_system_dev_contracts/contracts_ready_for_prod/TokenEcoSystemParticipationV1_0_flattened.sol\":4993:5007  _requirePaused */\n      tag_155\n        /* \"token_eco_system_dev_contracts/contracts_ready_for_prod/TokenEcoSystemParticipationV1_0_flattened.sol\":4993:5009  _requirePaused() */\n      jump\t// in\n    tag_154:\n        /* \"token_eco_system_dev_contracts/contracts_ready_for_prod/TokenEcoSystemParticipationV1_0_flattened.sol\":1983:1996  _checkOwner() */\n      tag_157\n        /* \"token_eco_system_dev_contracts/contracts_ready_for_prod/TokenEcoSystemParticipationV1_0_flattened.sol\":1983:1994  _checkOwner */\n      tag_135\n        /* \"token_eco_system_dev_contracts/contracts_ready_for_prod/TokenEcoSystemParticipationV1_0_flattened.sol\":1983:1996  _checkOwner() */\n      jump\t// in\n    tag_157:\n        /* \"token_eco_system_dev_contracts/contracts_ready_for_prod/TokenEcoSystemParticipationV1_0_flattened.sol\":28981:28991  _unpause() */\n      tag_159\n        /* \"token_eco_system_dev_contracts/contracts_ready_for_prod/TokenEcoSystemParticipationV1_0_flattened.sol\":28981:28989  _unpause */\n      tag_160\n        /* \"token_eco_system_dev_contracts/contracts_ready_for_prod/TokenEcoSystemParticipationV1_0_flattened.sol\":28981:28991  _unpause() */\n      jump\t// in\n    tag_159:\n        /* \"token_eco_system_dev_contracts/contracts_ready_for_prod/TokenEcoSystemParticipationV1_0_flattened.sol\":28925:28998  function resume() public whenPaused onlyOwner {... */\n      jump\t// out\n        /* \"token_eco_system_dev_contracts/contracts_ready_for_prod/TokenEcoSystemParticipationV1_0_flattened.sol\":28847:28919  function stop() public whenNotPaused onlyOwner {... */\n    tag_46:\n        /* \"token_eco_system_dev_contracts/contracts_ready_for_prod/TokenEcoSystemParticipationV1_0_flattened.sol\":4746:4765  _requireNotPaused() */\n      tag_162\n        /* \"token_eco_system_dev_contracts/contracts_ready_for_prod/TokenEcoSystemParticipationV1_0_flattened.sol\":4746:4763  _requireNotPaused */\n      tag_163\n        /* \"token_eco_system_dev_contracts/contracts_ready_for_prod/TokenEcoSystemParticipationV1_0_flattened.sol\":4746:4765  _requireNotPaused() */\n      jump\t// in\n    tag_162:\n        /* \"token_eco_system_dev_contracts/contracts_ready_for_prod/TokenEcoSystemParticipationV1_0_flattened.sol\":1983:1996  _checkOwner() */\n      tag_165\n        /* \"token_eco_system_dev_contracts/contracts_ready_for_prod/TokenEcoSystemParticipationV1_0_flattened.sol\":1983:1994  _checkOwner */\n      tag_135\n        /* \"token_eco_system_dev_contracts/contracts_ready_for_prod/TokenEcoSystemParticipationV1_0_flattened.sol\":1983:1996  _checkOwner() */\n      jump\t// in\n    tag_165:\n        /* \"token_eco_system_dev_contracts/contracts_ready_for_prod/TokenEcoSystemParticipationV1_0_flattened.sol\":28904:28912  _pause() */\n      tag_167\n        /* \"token_eco_system_dev_contracts/contracts_ready_for_prod/TokenEcoSystemParticipationV1_0_flattened.sol\":28904:28910  _pause */\n      tag_168\n        /* \"token_eco_system_dev_contracts/contracts_ready_for_prod/TokenEcoSystemParticipationV1_0_flattened.sol\":28904:28912  _pause() */\n      jump\t// in\n    tag_167:\n        /* \"token_eco_system_dev_contracts/contracts_ready_for_prod/TokenEcoSystemParticipationV1_0_flattened.sol\":28847:28919  function stop() public whenNotPaused onlyOwner {... */\n      jump\t// out\n        /* \"token_eco_system_dev_contracts/contracts_ready_for_prod/TokenEcoSystemParticipationV1_0_flattened.sol\":35610:35767  function getAcceptedSenderAddress()... */\n    tag_48:\n        /* \"token_eco_system_dev_contracts/contracts_ready_for_prod/TokenEcoSystemParticipationV1_0_flattened.sol\":35709:35716  address */\n      0x00\n        /* \"token_eco_system_dev_contracts/contracts_ready_for_prod/TokenEcoSystemParticipationV1_0_flattened.sol\":27379:27380  0 */\n      dup1\n        /* \"token_eco_system_dev_contracts/contracts_ready_for_prod/TokenEcoSystemParticipationV1_0_flattened.sol\":27346:27381  acceptedSenderAddress != address(0) */\n      0xffffffffffffffffffffffffffffffffffffffff\n      and\n        /* \"token_eco_system_dev_contracts/contracts_ready_for_prod/TokenEcoSystemParticipationV1_0_flattened.sol\":27346:27367  acceptedSenderAddress */\n      0x01\n      0x00\n      swap1\n      sload\n      swap1\n      0x0100\n      exp\n      swap1\n      div\n      0xffffffffffffffffffffffffffffffffffffffff\n      and\n        /* \"token_eco_system_dev_contracts/contracts_ready_for_prod/TokenEcoSystemParticipationV1_0_flattened.sol\":27346:27381  acceptedSenderAddress != address(0) */\n      0xffffffffffffffffffffffffffffffffffffffff\n      and\n      sub\n        /* \"token_eco_system_dev_contracts/contracts_ready_for_prod/TokenEcoSystemParticipationV1_0_flattened.sol\":27338:27400  require(acceptedSenderAddress != address(0), \"Not activated!\") */\n      tag_170\n      jumpi\n      mload(0x40)\n      0x08c379a000000000000000000000000000000000000000000000000000000000\n      dup2\n      mstore\n      0x04\n      add\n      tag_171\n      swap1\n      tag_172\n      jump\t// in\n    tag_171:\n      mload(0x40)\n      dup1\n      swap2\n      sub\n      swap1\n      revert\n    tag_170:\n        /* \"token_eco_system_dev_contracts/contracts_ready_for_prod/TokenEcoSystemParticipationV1_0_flattened.sol\":35739:35760  acceptedSenderAddress */\n      0x01\n      0x00\n      swap1\n      sload\n      swap1\n      0x0100\n      exp\n      swap1\n      div\n      0xffffffffffffffffffffffffffffffffffffffff\n      and\n        /* \"token_eco_system_dev_contracts/contracts_ready_for_prod/TokenEcoSystemParticipationV1_0_flattened.sol\":35732:35760  return acceptedSenderAddress */\n      swap1\n      pop\n        /* \"token_eco_system_dev_contracts/contracts_ready_for_prod/TokenEcoSystemParticipationV1_0_flattened.sol\":35610:35767  function getAcceptedSenderAddress()... */\n      swap1\n      jump\t// out\n        /* \"token_eco_system_dev_contracts/contracts_ready_for_prod/TokenEcoSystemParticipationV1_0_flattened.sol\":29054:29330  function addNewAggregatorPriceFeed(address consumerInterfaceAddress)... */\n    tag_54:\n        /* \"token_eco_system_dev_contracts/contracts_ready_for_prod/TokenEcoSystemParticipationV1_0_flattened.sol\":1983:1996  _checkOwner() */\n      tag_175\n        /* \"token_eco_system_dev_contracts/contracts_ready_for_prod/TokenEcoSystemParticipationV1_0_flattened.sol\":1983:1994  _checkOwner */\n      tag_135\n        /* \"token_eco_system_dev_contracts/contracts_ready_for_prod/TokenEcoSystemParticipationV1_0_flattened.sol\":1983:1996  _checkOwner() */\n      jump\t// in\n    tag_175:\n        /* \"token_eco_system_dev_contracts/contracts_ready_for_prod/TokenEcoSystemParticipationV1_0_flattened.sol\":29214:29215  0 */\n      0x00\n        /* \"token_eco_system_dev_contracts/contracts_ready_for_prod/TokenEcoSystemParticipationV1_0_flattened.sol\":29178:29216  consumerInterfaceAddress != address(0) */\n      0xffffffffffffffffffffffffffffffffffffffff\n      and\n        /* \"token_eco_system_dev_contracts/contracts_ready_for_prod/TokenEcoSystemParticipationV1_0_flattened.sol\":29178:29202  consumerInterfaceAddress */\n      dup2\n        /* \"token_eco_system_dev_contracts/contracts_ready_for_prod/TokenEcoSystemParticipationV1_0_flattened.sol\":29178:29216  consumerInterfaceAddress != address(0) */\n      0xffffffffffffffffffffffffffffffffffffffff\n      and\n      sub\n        /* \"token_eco_system_dev_contracts/contracts_ready_for_prod/TokenEcoSystemParticipationV1_0_flattened.sol\":29170:29217  require(consumerInterfaceAddress != address(0)) */\n      tag_177\n      jumpi\n      0x00\n      dup1\n      revert\n    tag_177:\n        /* \"token_eco_system_dev_contracts/contracts_ready_for_prod/TokenEcoSystemParticipationV1_0_flattened.sol\":29289:29313  consumerInterfaceAddress */\n      dup1\n        /* \"token_eco_system_dev_contracts/contracts_ready_for_prod/TokenEcoSystemParticipationV1_0_flattened.sol\":29227:29245  aggregatorConsumer */\n      0x06\n      0x00\n        /* \"token_eco_system_dev_contracts/contracts_ready_for_prod/TokenEcoSystemParticipationV1_0_flattened.sol\":29227:29323  aggregatorConsumer = AggregatorConsumerInterface(... */\n      0x0100\n      exp\n      dup2\n      sload\n      dup2\n      0xffffffffffffffffffffffffffffffffffffffff\n      mul\n      not\n      and\n      swap1\n      dup4\n      0xffffffffffffffffffffffffffffffffffffffff\n      and\n      mul\n      or\n      swap1\n      sstore\n      pop\n        /* \"token_eco_system_dev_contracts/contracts_ready_for_prod/TokenEcoSystemParticipationV1_0_flattened.sol\":29054:29330  function addNewAggregatorPriceFeed(address consumerInterfaceAddress)... */\n      pop\n      jump\t// out\n        /* \"token_eco_system_dev_contracts/contracts_ready_for_prod/TokenEcoSystemParticipationV1_0_flattened.sol\":28540:28841  function changeAcceptedSenderAddress(address newAcceptedSender)... */\n    tag_57:\n        /* \"token_eco_system_dev_contracts/contracts_ready_for_prod/TokenEcoSystemParticipationV1_0_flattened.sol\":27379:27380  0 */\n      0x00\n        /* \"token_eco_system_dev_contracts/contracts_ready_for_prod/TokenEcoSystemParticipationV1_0_flattened.sol\":27346:27381  acceptedSenderAddress != address(0) */\n      0xffffffffffffffffffffffffffffffffffffffff\n      and\n        /* \"token_eco_system_dev_contracts/contracts_ready_for_prod/TokenEcoSystemParticipationV1_0_flattened.sol\":27346:27367  acceptedSenderAddress */\n      0x01\n      0x00\n      swap1\n      sload\n      swap1\n      0x0100\n      exp\n      swap1\n      div\n      0xffffffffffffffffffffffffffffffffffffffff\n      and\n        /* \"token_eco_system_dev_contracts/contracts_ready_for_prod/TokenEcoSystemParticipationV1_0_flattened.sol\":27346:27381  acceptedSenderAddress != address(0) */\n      0xffffffffffffffffffffffffffffffffffffffff\n      and\n      sub\n        /* \"token_eco_system_dev_contracts/contracts_ready_for_prod/TokenEcoSystemParticipationV1_0_flattened.sol\":27338:27400  require(acceptedSenderAddress != address(0), \"Not activated!\") */\n      tag_179\n      jumpi\n      mload(0x40)\n      0x08c379a000000000000000000000000000000000000000000000000000000000\n      dup2\n      mstore\n      0x04\n      add\n      tag_180\n      swap1\n      tag_172\n      jump\t// in\n    tag_180:\n      mload(0x40)\n      dup1\n      swap2\n      sub\n      swap1\n      revert\n    tag_179:\n        /* \"token_eco_system_dev_contracts/contracts_ready_for_prod/TokenEcoSystemParticipationV1_0_flattened.sol\":27242:27263  acceptedSenderAddress */\n      0x01\n      0x00\n      swap1\n      sload\n      swap1\n      0x0100\n      exp\n      swap1\n      div\n      0xffffffffffffffffffffffffffffffffffffffff\n      and\n        /* \"token_eco_system_dev_contracts/contracts_ready_for_prod/TokenEcoSystemParticipationV1_0_flattened.sol\":27228:27263  msg.sender == acceptedSenderAddress */\n      0xffffffffffffffffffffffffffffffffffffffff\n      and\n        /* \"token_eco_system_dev_contracts/contracts_ready_for_prod/TokenEcoSystemParticipationV1_0_flattened.sol\":27228:27238  msg.sender */\n      caller\n        /* \"token_eco_system_dev_contracts/contracts_ready_for_prod/TokenEcoSystemParticipationV1_0_flattened.sol\":27228:27263  msg.sender == acceptedSenderAddress */\n      0xffffffffffffffffffffffffffffffffffffffff\n      and\n      eq\n        /* \"token_eco_system_dev_contracts/contracts_ready_for_prod/TokenEcoSystemParticipationV1_0_flattened.sol\":27220:27283  require(msg.sender == acceptedSenderAddress, \"Not Authorized!\") */\n      tag_182\n      jumpi\n      mload(0x40)\n      0x08c379a000000000000000000000000000000000000000000000000000000000\n      dup2\n      mstore\n      0x04\n      add\n      tag_183\n      swap1\n      tag_184\n      jump\t// in\n    tag_183:\n      mload(0x40)\n      dup1\n      swap2\n      sub\n      swap1\n      revert\n    tag_182:\n        /* \"token_eco_system_dev_contracts/contracts_ready_for_prod/TokenEcoSystemParticipationV1_0_flattened.sol\":27379:27380  0 */\n      0x00\n        /* \"token_eco_system_dev_contracts/contracts_ready_for_prod/TokenEcoSystemParticipationV1_0_flattened.sol\":27346:27381  acceptedSenderAddress != address(0) */\n      0xffffffffffffffffffffffffffffffffffffffff\n      and\n        /* \"token_eco_system_dev_contracts/contracts_ready_for_prod/TokenEcoSystemParticipationV1_0_flattened.sol\":27346:27367  acceptedSenderAddress */\n      0x01\n      0x00\n      swap1\n      sload\n      swap1\n      0x0100\n      exp\n      swap1\n      div\n      0xffffffffffffffffffffffffffffffffffffffff\n      and\n        /* \"token_eco_system_dev_contracts/contracts_ready_for_prod/TokenEcoSystemParticipationV1_0_flattened.sol\":27346:27381  acceptedSenderAddress != address(0) */\n      0xffffffffffffffffffffffffffffffffffffffff\n      and\n      sub\n        /* \"token_eco_system_dev_contracts/contracts_ready_for_prod/TokenEcoSystemParticipationV1_0_flattened.sol\":27338:27400  require(acceptedSenderAddress != address(0), \"Not activated!\") */\n      tag_186\n      jumpi\n      mload(0x40)\n      0x08c379a000000000000000000000000000000000000000000000000000000000\n      dup2\n      mstore\n      0x04\n      add\n      tag_187\n      swap1\n      tag_172\n      jump\t// in\n    tag_187:\n      mload(0x40)\n      dup1\n      swap2\n      sub\n      swap1\n      revert\n    tag_186:\n        /* \"token_eco_system_dev_contracts/contracts_ready_for_prod/TokenEcoSystemParticipationV1_0_flattened.sol\":28729:28730  0 */\n      0x00\n        /* \"token_eco_system_dev_contracts/contracts_ready_for_prod/TokenEcoSystemParticipationV1_0_flattened.sol\":28700:28731  newAcceptedSender != address(0) */\n      0xffffffffffffffffffffffffffffffffffffffff\n      and\n        /* \"token_eco_system_dev_contracts/contracts_ready_for_prod/TokenEcoSystemParticipationV1_0_flattened.sol\":28700:28717  newAcceptedSender */\n      dup2\n        /* \"token_eco_system_dev_contracts/contracts_ready_for_prod/TokenEcoSystemParticipationV1_0_flattened.sol\":28700:28731  newAcceptedSender != address(0) */\n      0xffffffffffffffffffffffffffffffffffffffff\n      and\n      sub\n        /* \"token_eco_system_dev_contracts/contracts_ready_for_prod/TokenEcoSystemParticipationV1_0_flattened.sol\":28692:28732  require(newAcceptedSender != address(0)) */\n      tag_189\n      jumpi\n      0x00\n      dup1\n      revert\n    tag_189:\n        /* \"token_eco_system_dev_contracts/contracts_ready_for_prod/TokenEcoSystemParticipationV1_0_flattened.sol\":28766:28783  newAcceptedSender */\n      dup1\n        /* \"token_eco_system_dev_contracts/contracts_ready_for_prod/TokenEcoSystemParticipationV1_0_flattened.sol\":28742:28763  acceptedSenderAddress */\n      0x01\n      0x00\n        /* \"token_eco_system_dev_contracts/contracts_ready_for_prod/TokenEcoSystemParticipationV1_0_flattened.sol\":28742:28783  acceptedSenderAddress = newAcceptedSender */\n      0x0100\n      exp\n      dup2\n      sload\n      dup2\n      0xffffffffffffffffffffffffffffffffffffffff\n      mul\n      not\n      and\n      swap1\n      dup4\n      0xffffffffffffffffffffffffffffffffffffffff\n      and\n      mul\n      or\n      swap1\n      sstore\n      pop\n        /* \"token_eco_system_dev_contracts/contracts_ready_for_prod/TokenEcoSystemParticipationV1_0_flattened.sol\":28816:28833  newAcceptedSender */\n      dup1\n        /* \"token_eco_system_dev_contracts/contracts_ready_for_prod/TokenEcoSystemParticipationV1_0_flattened.sol\":28798:28834  NewAcceptedSender(newAcceptedSender) */\n      0xffffffffffffffffffffffffffffffffffffffff\n      and\n      0x8bbfeb6e784147166691d407a592a09379bbbd56888a96c54793bce54bb57523\n      mload(0x40)\n      mload(0x40)\n      dup1\n      swap2\n      sub\n      swap1\n      log2\n        /* \"token_eco_system_dev_contracts/contracts_ready_for_prod/TokenEcoSystemParticipationV1_0_flattened.sol\":28540:28841  function changeAcceptedSenderAddress(address newAcceptedSender)... */\n      pop\n      jump\t// out\n        /* \"token_eco_system_dev_contracts/contracts_ready_for_prod/TokenEcoSystemParticipationV1_0_flattened.sol\":27955:28255  function activate() public whenNotPaused {... */\n    tag_59:\n        /* \"token_eco_system_dev_contracts/contracts_ready_for_prod/TokenEcoSystemParticipationV1_0_flattened.sol\":4746:4765  _requireNotPaused() */\n      tag_191\n        /* \"token_eco_system_dev_contracts/contracts_ready_for_prod/TokenEcoSystemParticipationV1_0_flattened.sol\":4746:4763  _requireNotPaused */\n      tag_163\n        /* \"token_eco_system_dev_contracts/contracts_ready_for_prod/TokenEcoSystemParticipationV1_0_flattened.sol\":4746:4765  _requireNotPaused() */\n      jump\t// in\n    tag_191:\n        /* \"token_eco_system_dev_contracts/contracts_ready_for_prod/TokenEcoSystemParticipationV1_0_flattened.sol\":28027:28037  msg.sender */\n      caller\n        /* \"token_eco_system_dev_contracts/contracts_ready_for_prod/TokenEcoSystemParticipationV1_0_flattened.sol\":28014:28037  activator == msg.sender */\n      0xffffffffffffffffffffffffffffffffffffffff\n      and\n        /* \"token_eco_system_dev_contracts/contracts_ready_for_prod/TokenEcoSystemParticipationV1_0_flattened.sol\":28014:28023  activator */\n      immutable(\"0xc0bf3ddb79e7c5faf09af1eaa09640fae848e430edf7a04658ec05be9ade7aab\")\n        /* \"token_eco_system_dev_contracts/contracts_ready_for_prod/TokenEcoSystemParticipationV1_0_flattened.sol\":28014:28037  activator == msg.sender */\n      0xffffffffffffffffffffffffffffffffffffffff\n      and\n      eq\n        /* \"token_eco_system_dev_contracts/contracts_ready_for_prod/TokenEcoSystemParticipationV1_0_flattened.sol\":28006:28065  require(activator == msg.sender, \"Activation not allowed!\") */\n      tag_193\n      jumpi\n      mload(0x40)\n      0x08c379a000000000000000000000000000000000000000000000000000000000\n      dup2\n      mstore\n      0x04\n      add\n      tag_194\n      swap1\n      tag_195\n      jump\t// in\n    tag_194:\n      mload(0x40)\n      dup1\n      swap2\n      sub\n      swap1\n      revert\n    tag_193:\n        /* \"token_eco_system_dev_contracts/contracts_ready_for_prod/TokenEcoSystemParticipationV1_0_flattened.sol\":28116:28117  0 */\n      0x00\n        /* \"token_eco_system_dev_contracts/contracts_ready_for_prod/TokenEcoSystemParticipationV1_0_flattened.sol\":28083:28118  acceptedSenderAddress == address(0) */\n      0xffffffffffffffffffffffffffffffffffffffff\n      and\n        /* \"token_eco_system_dev_contracts/contracts_ready_for_prod/TokenEcoSystemParticipationV1_0_flattened.sol\":28083:28104  acceptedSenderAddress */\n      0x01\n      0x00\n      swap1\n      sload\n      swap1\n      0x0100\n      exp\n      swap1\n      div\n      0xffffffffffffffffffffffffffffffffffffffff\n      and\n        /* \"token_eco_system_dev_contracts/contracts_ready_for_prod/TokenEcoSystemParticipationV1_0_flattened.sol\":28083:28118  acceptedSenderAddress == address(0) */\n      0xffffffffffffffffffffffffffffffffffffffff\n      and\n      eq\n        /* \"token_eco_system_dev_contracts/contracts_ready_for_prod/TokenEcoSystemParticipationV1_0_flattened.sol\":28075:28141  require(acceptedSenderAddress == address(0), \"Already activated.\") */\n      tag_196\n      jumpi\n      mload(0x40)\n      0x08c379a000000000000000000000000000000000000000000000000000000000\n      dup2\n      mstore\n      0x04\n      add\n      tag_197\n      swap1\n      tag_198\n      jump\t// in\n    tag_197:\n      mload(0x40)\n      dup1\n      swap2\n      sub\n      swap1\n      revert\n    tag_196:\n        /* \"token_eco_system_dev_contracts/contracts_ready_for_prod/TokenEcoSystemParticipationV1_0_flattened.sol\":28175:28185  msg.sender */\n      caller\n        /* \"token_eco_system_dev_contracts/contracts_ready_for_prod/TokenEcoSystemParticipationV1_0_flattened.sol\":28151:28172  acceptedSenderAddress */\n      0x01\n      0x00\n        /* \"token_eco_system_dev_contracts/contracts_ready_for_prod/TokenEcoSystemParticipationV1_0_flattened.sol\":28151:28185  acceptedSenderAddress = msg.sender */\n      0x0100\n      exp\n      dup2\n      sload\n      dup2\n      0xffffffffffffffffffffffffffffffffffffffff\n      mul\n      not\n      and\n      swap1\n      dup4\n      0xffffffffffffffffffffffffffffffffffffffff\n      and\n      mul\n      or\n      swap1\n      sstore\n      pop\n        /* \"token_eco_system_dev_contracts/contracts_ready_for_prod/TokenEcoSystemParticipationV1_0_flattened.sol\":28209:28230  acceptedSenderAddress */\n      0x01\n      0x00\n      swap1\n      sload\n      swap1\n      0x0100\n      exp\n      swap1\n      div\n      0xffffffffffffffffffffffffffffffffffffffff\n      and\n        /* \"token_eco_system_dev_contracts/contracts_ready_for_prod/TokenEcoSystemParticipationV1_0_flattened.sol\":28200:28248  Activate(acceptedSenderAddress, block.timestamp) */\n      0xffffffffffffffffffffffffffffffffffffffff\n      and\n      0xfbd0a3f6e9a0dd5f834515748047e83de8064477489a0a0d6b59c64bbecc992a\n        /* \"token_eco_system_dev_contracts/contracts_ready_for_prod/TokenEcoSystemParticipationV1_0_flattened.sol\":28232:28247  block.timestamp */\n      timestamp\n        /* \"token_eco_system_dev_contracts/contracts_ready_for_prod/TokenEcoSystemParticipationV1_0_flattened.sol\":28200:28248  Activate(acceptedSenderAddress, block.timestamp) */\n      mload(0x40)\n      tag_199\n      swap2\n      swap1\n      tag_63\n      jump\t// in\n    tag_199:\n      mload(0x40)\n      dup1\n      swap2\n      sub\n      swap1\n      log2\n        /* \"token_eco_system_dev_contracts/contracts_ready_for_prod/TokenEcoSystemParticipationV1_0_flattened.sol\":27955:28255  function activate() public whenNotPaused {... */\n      jump\t// out\n        /* \"token_eco_system_dev_contracts/contracts_ready_for_prod/TokenEcoSystemParticipationV1_0_flattened.sol\":34669:34842  function getTotalBurnedTokens()... */\n    tag_61:\n        /* \"token_eco_system_dev_contracts/contracts_ready_for_prod/TokenEcoSystemParticipationV1_0_flattened.sol\":34794:34801  uint256 */\n      0x00\n        /* \"token_eco_system_dev_contracts/contracts_ready_for_prod/TokenEcoSystemParticipationV1_0_flattened.sol\":27379:27380  0 */\n      dup1\n        /* \"token_eco_system_dev_contracts/contracts_ready_for_prod/TokenEcoSystemParticipationV1_0_flattened.sol\":27346:27381  acceptedSenderAddress != address(0) */\n      0xffffffffffffffffffffffffffffffffffffffff\n      and\n        /* \"token_eco_system_dev_contracts/contracts_ready_for_prod/TokenEcoSystemParticipationV1_0_flattened.sol\":27346:27367  acceptedSenderAddress */\n      0x01\n      0x00\n      swap1\n      sload\n      swap1\n      0x0100\n      exp\n      swap1\n      div\n      0xffffffffffffffffffffffffffffffffffffffff\n      and\n        /* \"token_eco_system_dev_contracts/contracts_ready_for_prod/TokenEcoSystemParticipationV1_0_flattened.sol\":27346:27381  acceptedSenderAddress != address(0) */\n      0xffffffffffffffffffffffffffffffffffffffff\n      and\n      sub\n        /* \"token_eco_system_dev_contracts/contracts_ready_for_prod/TokenEcoSystemParticipationV1_0_flattened.sol\":27338:27400  require(acceptedSenderAddress != address(0), \"Not activated!\") */\n      tag_201\n      jumpi\n      mload(0x40)\n      0x08c379a000000000000000000000000000000000000000000000000000000000\n      dup2\n      mstore\n      0x04\n      add\n      tag_202\n      swap1\n      tag_172\n      jump\t// in\n    tag_202:\n      mload(0x40)\n      dup1\n      swap2\n      sub\n      swap1\n      revert\n    tag_201:\n        /* \"token_eco_system_dev_contracts/contracts_ready_for_prod/TokenEcoSystemParticipationV1_0_flattened.sol\":27503:27524  acceptedSenderAddress */\n      0x01\n      0x00\n      swap1\n      sload\n      swap1\n      0x0100\n      exp\n      swap1\n      div\n      0xffffffffffffffffffffffffffffffffffffffff\n      and\n        /* \"token_eco_system_dev_contracts/contracts_ready_for_prod/TokenEcoSystemParticipationV1_0_flattened.sol\":27489:27524  msg.sender == acceptedSenderAddress */\n      0xffffffffffffffffffffffffffffffffffffffff\n      and\n        /* \"token_eco_system_dev_contracts/contracts_ready_for_prod/TokenEcoSystemParticipationV1_0_flattened.sol\":27489:27499  msg.sender */\n      caller\n        /* \"token_eco_system_dev_contracts/contracts_ready_for_prod/TokenEcoSystemParticipationV1_0_flattened.sol\":27489:27524  msg.sender == acceptedSenderAddress */\n      0xffffffffffffffffffffffffffffffffffffffff\n      and\n      eq\n        /* \"token_eco_system_dev_contracts/contracts_ready_for_prod/TokenEcoSystemParticipationV1_0_flattened.sol\":27489:27549  msg.sender == acceptedSenderAddress || msg.sender == owner() */\n      dup1\n      tag_204\n      jumpi\n      pop\n        /* \"token_eco_system_dev_contracts/contracts_ready_for_prod/TokenEcoSystemParticipationV1_0_flattened.sol\":27542:27549  owner() */\n      tag_205\n        /* \"token_eco_system_dev_contracts/contracts_ready_for_prod/TokenEcoSystemParticipationV1_0_flattened.sol\":27542:27547  owner */\n      tag_88\n        /* \"token_eco_system_dev_contracts/contracts_ready_for_prod/TokenEcoSystemParticipationV1_0_flattened.sol\":27542:27549  owner() */\n      jump\t// in\n    tag_205:\n        /* \"token_eco_system_dev_contracts/contracts_ready_for_prod/TokenEcoSystemParticipationV1_0_flattened.sol\":27528:27549  msg.sender == owner() */\n      0xffffffffffffffffffffffffffffffffffffffff\n      and\n        /* \"token_eco_system_dev_contracts/contracts_ready_for_prod/TokenEcoSystemParticipationV1_0_flattened.sol\":27528:27538  msg.sender */\n      caller\n        /* \"token_eco_system_dev_contracts/contracts_ready_for_prod/TokenEcoSystemParticipationV1_0_flattened.sol\":27528:27549  msg.sender == owner() */\n      0xffffffffffffffffffffffffffffffffffffffff\n      and\n      eq\n        /* \"token_eco_system_dev_contracts/contracts_ready_for_prod/TokenEcoSystemParticipationV1_0_flattened.sol\":27489:27549  msg.sender == acceptedSenderAddress || msg.sender == owner() */\n    tag_204:\n        /* \"token_eco_system_dev_contracts/contracts_ready_for_prod/TokenEcoSystemParticipationV1_0_flattened.sol\":27467:27640  require(... */\n      tag_206\n      jumpi\n      mload(0x40)\n      0x08c379a000000000000000000000000000000000000000000000000000000000\n      dup2\n      mstore\n      0x04\n      add\n      tag_207\n      swap1\n      tag_208\n      jump\t// in\n    tag_207:\n      mload(0x40)\n      dup1\n      swap2\n      sub\n      swap1\n      revert\n    tag_206:\n        /* \"token_eco_system_dev_contracts/contracts_ready_for_prod/TokenEcoSystemParticipationV1_0_flattened.sol\":34824:34835  totalBurned */\n      sload(0x02)\n        /* \"token_eco_system_dev_contracts/contracts_ready_for_prod/TokenEcoSystemParticipationV1_0_flattened.sol\":34817:34835  return totalBurned */\n      swap1\n      pop\n        /* \"token_eco_system_dev_contracts/contracts_ready_for_prod/TokenEcoSystemParticipationV1_0_flattened.sol\":34669:34842  function getTotalBurnedTokens()... */\n      swap1\n      jump\t// out\n        /* \"token_eco_system_dev_contracts/contracts_ready_for_prod/TokenEcoSystemParticipationV1_0_flattened.sol\":34211:34592  function initiateBulkMint() public onlyOwner {... */\n    tag_65:\n        /* \"token_eco_system_dev_contracts/contracts_ready_for_prod/TokenEcoSystemParticipationV1_0_flattened.sol\":1983:1996  _checkOwner() */\n      tag_211\n        /* \"token_eco_system_dev_contracts/contracts_ready_for_prod/TokenEcoSystemParticipationV1_0_flattened.sol\":1983:1994  _checkOwner */\n      tag_135\n        /* \"token_eco_system_dev_contracts/contracts_ready_for_prod/TokenEcoSystemParticipationV1_0_flattened.sol\":1983:1996  _checkOwner() */\n      jump\t// in\n    tag_211:\n        /* \"token_eco_system_dev_contracts/contracts_ready_for_prod/TokenEcoSystemParticipationV1_0_flattened.sol\":34290:34291  0 */\n      0x00\n        /* \"token_eco_system_dev_contracts/contracts_ready_for_prod/TokenEcoSystemParticipationV1_0_flattened.sol\":34274:34287  dailyWithdraw */\n      sload(0x05)\n        /* \"token_eco_system_dev_contracts/contracts_ready_for_prod/TokenEcoSystemParticipationV1_0_flattened.sol\":34274:34291  dailyWithdraw > 0 */\n      gt\n        /* \"token_eco_system_dev_contracts/contracts_ready_for_prod/TokenEcoSystemParticipationV1_0_flattened.sol\":34266:34316  require(dailyWithdraw > 0, \"Nothing to withdraw.\") */\n      tag_213\n      jumpi\n      mload(0x40)\n      0x08c379a000000000000000000000000000000000000000000000000000000000\n      dup2\n      mstore\n      0x04\n      add\n      tag_214\n      swap1\n      tag_215\n      jump\t// in\n    tag_214:\n      mload(0x40)\n      dup1\n      swap2\n      sub\n      swap1\n      revert\n    tag_213:\n        /* \"token_eco_system_dev_contracts/contracts_ready_for_prod/TokenEcoSystemParticipationV1_0_flattened.sol\":34385:34386  0 */\n      0x00\n        /* \"token_eco_system_dev_contracts/contracts_ready_for_prod/TokenEcoSystemParticipationV1_0_flattened.sol\":34369:34382  dailyWithdraw */\n      sload(0x05)\n        /* \"token_eco_system_dev_contracts/contracts_ready_for_prod/TokenEcoSystemParticipationV1_0_flattened.sol\":34347:34366  availableToWithdraw */\n      sload(0x04)\n        /* \"token_eco_system_dev_contracts/contracts_ready_for_prod/TokenEcoSystemParticipationV1_0_flattened.sol\":34347:34382  availableToWithdraw - dailyWithdraw */\n      tag_216\n      swap2\n      swap1\n      tag_138\n      jump\t// in\n    tag_216:\n        /* \"token_eco_system_dev_contracts/contracts_ready_for_prod/TokenEcoSystemParticipationV1_0_flattened.sol\":34347:34386  availableToWithdraw - dailyWithdraw > 0 */\n      gt\n        /* \"token_eco_system_dev_contracts/contracts_ready_for_prod/TokenEcoSystemParticipationV1_0_flattened.sol\":34326:34444  require(... */\n      tag_217\n      jumpi\n      mload(0x40)\n      0x08c379a000000000000000000000000000000000000000000000000000000000\n      dup2\n      mstore\n      0x04\n      add\n      tag_218\n      swap1\n      tag_219\n      jump\t// in\n    tag_218:\n      mload(0x40)\n      dup1\n      swap2\n      sub\n      swap1\n      revert\n    tag_217:\n        /* \"token_eco_system_dev_contracts/contracts_ready_for_prod/TokenEcoSystemParticipationV1_0_flattened.sol\":34477:34490  dailyWithdraw */\n      sload(0x05)\n        /* \"token_eco_system_dev_contracts/contracts_ready_for_prod/TokenEcoSystemParticipationV1_0_flattened.sol\":34454:34473  availableToWithdraw */\n      0x04\n      0x00\n        /* \"token_eco_system_dev_contracts/contracts_ready_for_prod/TokenEcoSystemParticipationV1_0_flattened.sol\":34454:34490  availableToWithdraw -= dailyWithdraw */\n      dup3\n      dup3\n      sload\n      tag_220\n      swap2\n      swap1\n      tag_138\n      jump\t// in\n    tag_220:\n      swap3\n      pop\n      pop\n      dup2\n      swap1\n      sstore\n      pop\n        /* \"token_eco_system_dev_contracts/contracts_ready_for_prod/TokenEcoSystemParticipationV1_0_flattened.sol\":34527:34542  block.timestamp */\n      timestamp\n        /* \"token_eco_system_dev_contracts/contracts_ready_for_prod/TokenEcoSystemParticipationV1_0_flattened.sol\":34507:34558  TotalDailyWithdraws(block.timestamp, dailyWithdraw) */\n      0x0e727ee3674546d683a39c7087ab966177f70026adb7d4fdefaef2bf0bb29a46\n        /* \"token_eco_system_dev_contracts/contracts_ready_for_prod/TokenEcoSystemParticipationV1_0_flattened.sol\":34544:34557  dailyWithdraw */\n      sload(0x05)\n        /* \"token_eco_system_dev_contracts/contracts_ready_for_prod/TokenEcoSystemParticipationV1_0_flattened.sol\":34507:34558  TotalDailyWithdraws(block.timestamp, dailyWithdraw) */\n      mload(0x40)\n      tag_221\n      swap2\n      swap1\n      tag_63\n      jump\t// in\n    tag_221:\n      mload(0x40)\n      dup1\n      swap2\n      sub\n      swap1\n      log2\n        /* \"token_eco_system_dev_contracts/contracts_ready_for_prod/TokenEcoSystemParticipationV1_0_flattened.sol\":34584:34585  0 */\n      0x00\n        /* \"token_eco_system_dev_contracts/contracts_ready_for_prod/TokenEcoSystemParticipationV1_0_flattened.sol\":34568:34581  dailyWithdraw */\n      0x05\n        /* \"token_eco_system_dev_contracts/contracts_ready_for_prod/TokenEcoSystemParticipationV1_0_flattened.sol\":34568:34585  dailyWithdraw = 0 */\n      dup2\n      swap1\n      sstore\n      pop\n        /* \"token_eco_system_dev_contracts/contracts_ready_for_prod/TokenEcoSystemParticipationV1_0_flattened.sol\":34211:34592  function initiateBulkMint() public onlyOwner {... */\n      jump\t// out\n        /* \"token_eco_system_dev_contracts/contracts_ready_for_prod/TokenEcoSystemParticipationV1_0_flattened.sol\":28309:28482  function deactivate() public activated onlyAuthorized whenNotPaused {... */\n    tag_67:\n        /* \"token_eco_system_dev_contracts/contracts_ready_for_prod/TokenEcoSystemParticipationV1_0_flattened.sol\":27379:27380  0 */\n      0x00\n        /* \"token_eco_system_dev_contracts/contracts_ready_for_prod/TokenEcoSystemParticipationV1_0_flattened.sol\":27346:27381  acceptedSenderAddress != address(0) */\n      0xffffffffffffffffffffffffffffffffffffffff\n      and\n        /* \"token_eco_system_dev_contracts/contracts_ready_for_prod/TokenEcoSystemParticipationV1_0_flattened.sol\":27346:27367  acceptedSenderAddress */\n      0x01\n      0x00\n      swap1\n      sload\n      swap1\n      0x0100\n      exp\n      swap1\n      div\n      0xffffffffffffffffffffffffffffffffffffffff\n      and\n        /* \"token_eco_system_dev_contracts/contracts_ready_for_prod/TokenEcoSystemParticipationV1_0_flattened.sol\":27346:27381  acceptedSenderAddress != address(0) */\n      0xffffffffffffffffffffffffffffffffffffffff\n      and\n      sub\n        /* \"token_eco_system_dev_contracts/contracts_ready_for_prod/TokenEcoSystemParticipationV1_0_flattened.sol\":27338:27400  require(acceptedSenderAddress != address(0), \"Not activated!\") */\n      tag_223\n      jumpi\n      mload(0x40)\n      0x08c379a000000000000000000000000000000000000000000000000000000000\n      dup2\n      mstore\n      0x04\n      add\n      tag_224\n      swap1\n      tag_172\n      jump\t// in\n    tag_224:\n      mload(0x40)\n      dup1\n      swap2\n      sub\n      swap1\n      revert\n    tag_223:\n        /* \"token_eco_system_dev_contracts/contracts_ready_for_prod/TokenEcoSystemParticipationV1_0_flattened.sol\":27242:27263  acceptedSenderAddress */\n      0x01\n      0x00\n      swap1\n      sload\n      swap1\n      0x0100\n      exp\n      swap1\n      div\n      0xffffffffffffffffffffffffffffffffffffffff\n      and\n        /* \"token_eco_system_dev_contracts/contracts_ready_for_prod/TokenEcoSystemParticipationV1_0_flattened.sol\":27228:27263  msg.sender == acceptedSenderAddress */\n      0xffffffffffffffffffffffffffffffffffffffff\n      and\n        /* \"token_eco_system_dev_contracts/contracts_ready_for_prod/TokenEcoSystemParticipationV1_0_flattened.sol\":27228:27238  msg.sender */\n      caller\n        /* \"token_eco_system_dev_contracts/contracts_ready_for_prod/TokenEcoSystemParticipationV1_0_flattened.sol\":27228:27263  msg.sender == acceptedSenderAddress */\n      0xffffffffffffffffffffffffffffffffffffffff\n      and\n      eq\n        /* \"token_eco_system_dev_contracts/contracts_ready_for_prod/TokenEcoSystemParticipationV1_0_flattened.sol\":27220:27283  require(msg.sender == acceptedSenderAddress, \"Not Authorized!\") */\n      tag_226\n      jumpi\n      mload(0x40)\n      0x08c379a000000000000000000000000000000000000000000000000000000000\n      dup2\n      mstore\n      0x04\n      add\n      tag_227\n      swap1\n      tag_184\n      jump\t// in\n    tag_227:\n      mload(0x40)\n      dup1\n      swap2\n      sub\n      swap1\n      revert\n    tag_226:\n        /* \"token_eco_system_dev_contracts/contracts_ready_for_prod/TokenEcoSystemParticipationV1_0_flattened.sol\":4746:4765  _requireNotPaused() */\n      tag_229\n        /* \"token_eco_system_dev_contracts/contracts_ready_for_prod/TokenEcoSystemParticipationV1_0_flattened.sol\":4746:4763  _requireNotPaused */\n      tag_163\n        /* \"token_eco_system_dev_contracts/contracts_ready_for_prod/TokenEcoSystemParticipationV1_0_flattened.sol\":4746:4765  _requireNotPaused() */\n      jump\t// in\n    tag_229:\n        /* \"token_eco_system_dev_contracts/contracts_ready_for_prod/TokenEcoSystemParticipationV1_0_flattened.sol\":28419:28420  0 */\n      0x00\n        /* \"token_eco_system_dev_contracts/contracts_ready_for_prod/TokenEcoSystemParticipationV1_0_flattened.sol\":28387:28408  acceptedSenderAddress */\n      0x01\n      0x00\n        /* \"token_eco_system_dev_contracts/contracts_ready_for_prod/TokenEcoSystemParticipationV1_0_flattened.sol\":28387:28421  acceptedSenderAddress = address(0) */\n      0x0100\n      exp\n      dup2\n      sload\n      dup2\n      0xffffffffffffffffffffffffffffffffffffffff\n      mul\n      not\n      and\n      swap1\n      dup4\n      0xffffffffffffffffffffffffffffffffffffffff\n      and\n      mul\n      or\n      swap1\n      sstore\n      pop\n        /* \"token_eco_system_dev_contracts/contracts_ready_for_prod/TokenEcoSystemParticipationV1_0_flattened.sol\":28447:28457  msg.sender */\n      caller\n        /* \"token_eco_system_dev_contracts/contracts_ready_for_prod/TokenEcoSystemParticipationV1_0_flattened.sol\":28436:28475  Deactivate(msg.sender, block.timestamp) */\n      0xffffffffffffffffffffffffffffffffffffffff\n      and\n      0x13b865880a841dc469b629159fa1e730fee99568b0decc6737fd688b36246381\n        /* \"token_eco_system_dev_contracts/contracts_ready_for_prod/TokenEcoSystemParticipationV1_0_flattened.sol\":28459:28474  block.timestamp */\n      timestamp\n        /* \"token_eco_system_dev_contracts/contracts_ready_for_prod/TokenEcoSystemParticipationV1_0_flattened.sol\":28436:28475  Deactivate(msg.sender, block.timestamp) */\n      mload(0x40)\n      tag_231\n      swap2\n      swap1\n      tag_63\n      jump\t// in\n    tag_231:\n      mload(0x40)\n      dup1\n      swap2\n      sub\n      swap1\n      log2\n        /* \"token_eco_system_dev_contracts/contracts_ready_for_prod/TokenEcoSystemParticipationV1_0_flattened.sol\":28309:28482  function deactivate() public activated onlyAuthorized whenNotPaused {... */\n      jump\t// out\n        /* \"token_eco_system_dev_contracts/contracts_ready_for_prod/TokenEcoSystemParticipationV1_0_flattened.sol\":5122:5206  function paused() public view virtual returns (bool) {... */\n    tag_69:\n        /* \"token_eco_system_dev_contracts/contracts_ready_for_prod/TokenEcoSystemParticipationV1_0_flattened.sol\":5169:5173  bool */\n      0x00\n        /* \"token_eco_system_dev_contracts/contracts_ready_for_prod/TokenEcoSystemParticipationV1_0_flattened.sol\":5192:5199  _paused */\n      dup1\n      0x00\n      swap1\n      sload\n      swap1\n      0x0100\n      exp\n      swap1\n      div\n      0xff\n      and\n        /* \"token_eco_system_dev_contracts/contracts_ready_for_prod/TokenEcoSystemParticipationV1_0_flattened.sol\":5185:5199  return _paused */\n      swap1\n      pop\n        /* \"token_eco_system_dev_contracts/contracts_ready_for_prod/TokenEcoSystemParticipationV1_0_flattened.sol\":5122:5206  function paused() public view virtual returns (bool) {... */\n      swap1\n      jump\t// out\n        /* \"token_eco_system_dev_contracts/contracts_ready_for_prod/TokenEcoSystemParticipationV1_0_flattened.sol\":33297:33591  function transferOfToken(... */\n    tag_75:\n        /* \"token_eco_system_dev_contracts/contracts_ready_for_prod/TokenEcoSystemParticipationV1_0_flattened.sol\":33434:33438  bool */\n      0x00\n        /* \"token_eco_system_dev_contracts/contracts_ready_for_prod/TokenEcoSystemParticipationV1_0_flattened.sol\":1983:1996  _checkOwner() */\n      tag_234\n        /* \"token_eco_system_dev_contracts/contracts_ready_for_prod/TokenEcoSystemParticipationV1_0_flattened.sol\":1983:1994  _checkOwner */\n      tag_135\n        /* \"token_eco_system_dev_contracts/contracts_ready_for_prod/TokenEcoSystemParticipationV1_0_flattened.sol\":1983:1996  _checkOwner() */\n      jump\t// in\n    tag_234:\n        /* \"token_eco_system_dev_contracts/contracts_ready_for_prod/TokenEcoSystemParticipationV1_0_flattened.sol\":33490:33496  amount */\n      dup2\n        /* \"token_eco_system_dev_contracts/contracts_ready_for_prod/TokenEcoSystemParticipationV1_0_flattened.sol\":33458:33486  balanceOfToken(tokenAddress) */\n      tag_236\n        /* \"token_eco_system_dev_contracts/contracts_ready_for_prod/TokenEcoSystemParticipationV1_0_flattened.sol\":33473:33485  tokenAddress */\n      dup6\n        /* \"token_eco_system_dev_contracts/contracts_ready_for_prod/TokenEcoSystemParticipationV1_0_flattened.sol\":33458:33472  balanceOfToken */\n      tag_111\n        /* \"token_eco_system_dev_contracts/contracts_ready_for_prod/TokenEcoSystemParticipationV1_0_flattened.sol\":33458:33486  balanceOfToken(tokenAddress) */\n      jump\t// in\n    tag_236:\n        /* \"token_eco_system_dev_contracts/contracts_ready_for_prod/TokenEcoSystemParticipationV1_0_flattened.sol\":33458:33496  balanceOfToken(tokenAddress) >= amount */\n      lt\n      iszero\n        /* \"token_eco_system_dev_contracts/contracts_ready_for_prod/TokenEcoSystemParticipationV1_0_flattened.sol\":33450:33520  require(balanceOfToken(tokenAddress) >= amount, \"Not enough balance!\") */\n      tag_237\n      jumpi\n      mload(0x40)\n      0x08c379a000000000000000000000000000000000000000000000000000000000\n      dup2\n      mstore\n      0x04\n      add\n      tag_238\n      swap1\n      tag_239\n      jump\t// in\n    tag_238:\n      mload(0x40)\n      dup1\n      swap2\n      sub\n      swap1\n      revert\n    tag_237:\n        /* \"token_eco_system_dev_contracts/contracts_ready_for_prod/TokenEcoSystemParticipationV1_0_flattened.sol\":33544:33556  tokenAddress */\n      dup4\n        /* \"token_eco_system_dev_contracts/contracts_ready_for_prod/TokenEcoSystemParticipationV1_0_flattened.sol\":33537:33566  IERC20(tokenAddress).transfer */\n      0xffffffffffffffffffffffffffffffffffffffff\n      and\n      0xa9059cbb\n        /* \"token_eco_system_dev_contracts/contracts_ready_for_prod/TokenEcoSystemParticipationV1_0_flattened.sol\":33567:33575  receiver */\n      dup5\n        /* \"token_eco_system_dev_contracts/contracts_ready_for_prod/TokenEcoSystemParticipationV1_0_flattened.sol\":33577:33583  amount */\n      dup5\n        /* \"token_eco_system_dev_contracts/contracts_ready_for_prod/TokenEcoSystemParticipationV1_0_flattened.sol\":33537:33584  IERC20(tokenAddress).transfer(receiver, amount) */\n      mload(0x40)\n      dup4\n      0xffffffff\n      and\n      0xe0\n      shl\n      dup2\n      mstore\n      0x04\n      add\n      tag_240\n      swap3\n      swap2\n      swap1\n      tag_241\n      jump\t// in\n    tag_240:\n      0x20\n      mload(0x40)\n      dup1\n      dup4\n      sub\n      dup2\n      0x00\n      dup8\n      gas\n      call\n      iszero\n      dup1\n      iszero\n      tag_243\n      jumpi\n      returndatasize\n      0x00\n      dup1\n      returndatacopy\n      revert(0x00, returndatasize)\n    tag_243:\n      pop\n      pop\n      pop\n      pop\n      mload(0x40)\n      returndatasize\n      not(0x1f)\n      0x1f\n      dup3\n      add\n      and\n      dup3\n      add\n      dup1\n      0x40\n      mstore\n      pop\n      dup2\n      add\n      swap1\n      tag_244\n      swap2\n      swap1\n      tag_245\n      jump\t// in\n    tag_244:\n        /* \"token_eco_system_dev_contracts/contracts_ready_for_prod/TokenEcoSystemParticipationV1_0_flattened.sol\":33530:33584  return IERC20(tokenAddress).transfer(receiver, amount) */\n      swap1\n      pop\n        /* \"token_eco_system_dev_contracts/contracts_ready_for_prod/TokenEcoSystemParticipationV1_0_flattened.sol\":33297:33591  function transferOfToken(... */\n      swap4\n      swap3\n      pop\n      pop\n      pop\n      jump\t// out\n        /* \"token_eco_system_dev_contracts/contracts_ready_for_prod/TokenEcoSystemParticipationV1_0_flattened.sol\":2720:2821  function renounceOwnership() public virtual onlyOwner {... */\n    tag_78:\n        /* \"token_eco_system_dev_contracts/contracts_ready_for_prod/TokenEcoSystemParticipationV1_0_flattened.sol\":1983:1996  _checkOwner() */\n      tag_247\n        /* \"token_eco_system_dev_contracts/contracts_ready_for_prod/TokenEcoSystemParticipationV1_0_flattened.sol\":1983:1994  _checkOwner */\n      tag_135\n        /* \"token_eco_system_dev_contracts/contracts_ready_for_prod/TokenEcoSystemParticipationV1_0_flattened.sol\":1983:1996  _checkOwner() */\n      jump\t// in\n    tag_247:\n        /* \"token_eco_system_dev_contracts/contracts_ready_for_prod/TokenEcoSystemParticipationV1_0_flattened.sol\":2784:2814  _transferOwnership(address(0)) */\n      tag_249\n        /* \"token_eco_system_dev_contracts/contracts_ready_for_prod/TokenEcoSystemParticipationV1_0_flattened.sol\":2811:2812  0 */\n      0x00\n        /* \"token_eco_system_dev_contracts/contracts_ready_for_prod/TokenEcoSystemParticipationV1_0_flattened.sol\":2784:2802  _transferOwnership */\n      tag_250\n        /* \"token_eco_system_dev_contracts/contracts_ready_for_prod/TokenEcoSystemParticipationV1_0_flattened.sol\":2784:2814  _transferOwnership(address(0)) */\n      jump\t// in\n    tag_249:\n        /* \"token_eco_system_dev_contracts/contracts_ready_for_prod/TokenEcoSystemParticipationV1_0_flattened.sol\":2720:2821  function renounceOwnership() public virtual onlyOwner {... */\n      jump\t// out\n        /* \"token_eco_system_dev_contracts/contracts_ready_for_prod/TokenEcoSystemParticipationV1_0_flattened.sol\":32756:32871  function balanceOf() public view onlyOwner returns (uint256) {... */\n    tag_80:\n        /* \"token_eco_system_dev_contracts/contracts_ready_for_prod/TokenEcoSystemParticipationV1_0_flattened.sol\":32808:32815  uint256 */\n      0x00\n        /* \"token_eco_system_dev_contracts/contracts_ready_for_prod/TokenEcoSystemParticipationV1_0_flattened.sol\":1983:1996  _checkOwner() */\n      tag_252\n        /* \"token_eco_system_dev_contracts/contracts_ready_for_prod/TokenEcoSystemParticipationV1_0_flattened.sol\":1983:1994  _checkOwner */\n      tag_135\n        /* \"token_eco_system_dev_contracts/contracts_ready_for_prod/TokenEcoSystemParticipationV1_0_flattened.sol\":1983:1996  _checkOwner() */\n      jump\t// in\n    tag_252:\n        /* \"token_eco_system_dev_contracts/contracts_ready_for_prod/TokenEcoSystemParticipationV1_0_flattened.sol\":32834:32839  token */\n      immutable(\"0x474e8cbbfd90dba9df5fc054f99b290c4296483a721448990672feaba0c59d72\")\n        /* \"token_eco_system_dev_contracts/contracts_ready_for_prod/TokenEcoSystemParticipationV1_0_flattened.sol\":32834:32849  token.balanceOf */\n      0xffffffffffffffffffffffffffffffffffffffff\n      and\n      0x70a08231\n        /* \"token_eco_system_dev_contracts/contracts_ready_for_prod/TokenEcoSystemParticipationV1_0_flattened.sol\":32858:32862  this */\n      address\n        /* \"token_eco_system_dev_contracts/contracts_ready_for_prod/TokenEcoSystemParticipationV1_0_flattened.sol\":32834:32864  token.balanceOf(address(this)) */\n      mload(0x40)\n      dup3\n      0xffffffff\n      and\n      0xe0\n      shl\n      dup2\n      mstore\n      0x04\n      add\n      tag_254\n      swap2\n      swap1\n      tag_50\n      jump\t// in\n    tag_254:\n      0x20\n      mload(0x40)\n      dup1\n      dup4\n      sub\n      dup2\n      dup7\n      gas\n      staticcall\n      iszero\n      dup1\n      iszero\n      tag_256\n      jumpi\n      returndatasize\n      0x00\n      dup1\n      returndatacopy\n      revert(0x00, returndatasize)\n    tag_256:\n      pop\n      pop\n      pop\n      pop\n      mload(0x40)\n      returndatasize\n      not(0x1f)\n      0x1f\n      dup3\n      add\n      and\n      dup3\n      add\n      dup1\n      0x40\n      mstore\n      pop\n      dup2\n      add\n      swap1\n      tag_257\n      swap2\n      swap1\n      tag_258\n      jump\t// in\n    tag_257:\n        /* \"token_eco_system_dev_contracts/contracts_ready_for_prod/TokenEcoSystemParticipationV1_0_flattened.sol\":32827:32864  return token.balanceOf(address(this)) */\n      swap1\n      pop\n        /* \"token_eco_system_dev_contracts/contracts_ready_for_prod/TokenEcoSystemParticipationV1_0_flattened.sol\":32756:32871  function balanceOf() public view onlyOwner returns (uint256) {... */\n      swap1\n      jump\t// out\n        /* \"token_eco_system_dev_contracts/contracts_ready_for_prod/TokenEcoSystemParticipationV1_0_flattened.sol\":30764:31118  function calculateAmount(... */\n    tag_85:\n        /* \"token_eco_system_dev_contracts/contracts_ready_for_prod/TokenEcoSystemParticipationV1_0_flattened.sol\":30908:30915  uint256 */\n      0x00\n        /* \"token_eco_system_dev_contracts/contracts_ready_for_prod/TokenEcoSystemParticipationV1_0_flattened.sol\":27379:27380  0 */\n      dup1\n        /* \"token_eco_system_dev_contracts/contracts_ready_for_prod/TokenEcoSystemParticipationV1_0_flattened.sol\":27346:27381  acceptedSenderAddress != address(0) */\n      0xffffffffffffffffffffffffffffffffffffffff\n      and\n        /* \"token_eco_system_dev_contracts/contracts_ready_for_prod/TokenEcoSystemParticipationV1_0_flattened.sol\":27346:27367  acceptedSenderAddress */\n      0x01\n      0x00\n      swap1\n      sload\n      swap1\n      0x0100\n      exp\n      swap1\n      div\n      0xffffffffffffffffffffffffffffffffffffffff\n      and\n        /* \"token_eco_system_dev_contracts/contracts_ready_for_prod/TokenEcoSystemParticipationV1_0_flattened.sol\":27346:27381  acceptedSenderAddress != address(0) */\n      0xffffffffffffffffffffffffffffffffffffffff\n      and\n      sub\n        /* \"token_eco_system_dev_contracts/contracts_ready_for_prod/TokenEcoSystemParticipationV1_0_flattened.sol\":27338:27400  require(acceptedSenderAddress != address(0), \"Not activated!\") */\n      tag_260\n      jumpi\n      mload(0x40)\n      0x08c379a000000000000000000000000000000000000000000000000000000000\n      dup2\n      mstore\n      0x04\n      add\n      tag_261\n      swap1\n      tag_172\n      jump\t// in\n    tag_261:\n      mload(0x40)\n      dup1\n      swap2\n      sub\n      swap1\n      revert\n    tag_260:\n        /* \"token_eco_system_dev_contracts/contracts_ready_for_prod/TokenEcoSystemParticipationV1_0_flattened.sol\":1983:1996  _checkOwner() */\n      tag_263\n        /* \"token_eco_system_dev_contracts/contracts_ready_for_prod/TokenEcoSystemParticipationV1_0_flattened.sol\":1983:1994  _checkOwner */\n      tag_135\n        /* \"token_eco_system_dev_contracts/contracts_ready_for_prod/TokenEcoSystemParticipationV1_0_flattened.sol\":1983:1996  _checkOwner() */\n      jump\t// in\n    tag_263:\n        /* \"token_eco_system_dev_contracts/contracts_ready_for_prod/TokenEcoSystemParticipationV1_0_flattened.sol\":30955:30956  0 */\n      0x00\n        /* \"token_eco_system_dev_contracts/contracts_ready_for_prod/TokenEcoSystemParticipationV1_0_flattened.sol\":30948:30952  rate */\n      dup4\n        /* \"token_eco_system_dev_contracts/contracts_ready_for_prod/TokenEcoSystemParticipationV1_0_flattened.sol\":30948:30956  rate > 0 */\n      gt\n        /* \"token_eco_system_dev_contracts/contracts_ready_for_prod/TokenEcoSystemParticipationV1_0_flattened.sol\":30948:30970  rate > 0 && points > 0 */\n      dup1\n      iszero\n      tag_265\n      jumpi\n      pop\n        /* \"token_eco_system_dev_contracts/contracts_ready_for_prod/TokenEcoSystemParticipationV1_0_flattened.sol\":30969:30970  0 */\n      0x00\n        /* \"token_eco_system_dev_contracts/contracts_ready_for_prod/TokenEcoSystemParticipationV1_0_flattened.sol\":30960:30966  points */\n      dup5\n        /* \"token_eco_system_dev_contracts/contracts_ready_for_prod/TokenEcoSystemParticipationV1_0_flattened.sol\":30960:30970  points > 0 */\n      gt\n        /* \"token_eco_system_dev_contracts/contracts_ready_for_prod/TokenEcoSystemParticipationV1_0_flattened.sol\":30948:30970  rate > 0 && points > 0 */\n    tag_265:\n        /* \"token_eco_system_dev_contracts/contracts_ready_for_prod/TokenEcoSystemParticipationV1_0_flattened.sol\":30948:30986  rate > 0 && points > 0 && decimals > 0 */\n      dup1\n      iszero\n      tag_266\n      jumpi\n      pop\n        /* \"token_eco_system_dev_contracts/contracts_ready_for_prod/TokenEcoSystemParticipationV1_0_flattened.sol\":30985:30986  0 */\n      0x00\n        /* \"token_eco_system_dev_contracts/contracts_ready_for_prod/TokenEcoSystemParticipationV1_0_flattened.sol\":30974:30982  decimals */\n      dup3\n        /* \"token_eco_system_dev_contracts/contracts_ready_for_prod/TokenEcoSystemParticipationV1_0_flattened.sol\":30974:30986  decimals > 0 */\n      gt\n        /* \"token_eco_system_dev_contracts/contracts_ready_for_prod/TokenEcoSystemParticipationV1_0_flattened.sol\":30948:30986  rate > 0 && points > 0 && decimals > 0 */\n    tag_266:\n        /* \"token_eco_system_dev_contracts/contracts_ready_for_prod/TokenEcoSystemParticipationV1_0_flattened.sol\":30927:31064  require(... */\n      tag_267\n      jumpi\n      mload(0x40)\n      0x08c379a000000000000000000000000000000000000000000000000000000000\n      dup2\n      mstore\n      0x04\n      add\n      tag_268\n      swap1\n      tag_269\n      jump\t// in\n    tag_268:\n      mload(0x40)\n      dup1\n      swap2\n      sub\n      swap1\n      revert\n    tag_267:\n        /* \"token_eco_system_dev_contracts/contracts_ready_for_prod/TokenEcoSystemParticipationV1_0_flattened.sol\":31107:31111  rate */\n      dup3\n        /* \"token_eco_system_dev_contracts/contracts_ready_for_prod/TokenEcoSystemParticipationV1_0_flattened.sol\":31095:31103  decimals */\n      dup3\n        /* \"token_eco_system_dev_contracts/contracts_ready_for_prod/TokenEcoSystemParticipationV1_0_flattened.sol\":31091:31093  10 */\n      0x0a\n        /* \"token_eco_system_dev_contracts/contracts_ready_for_prod/TokenEcoSystemParticipationV1_0_flattened.sol\":31091:31103  10**decimals */\n      tag_270\n      swap2\n      swap1\n      tag_271\n      jump\t// in\n    tag_270:\n        /* \"token_eco_system_dev_contracts/contracts_ready_for_prod/TokenEcoSystemParticipationV1_0_flattened.sol\":31082:31088  points */\n      dup6\n        /* \"token_eco_system_dev_contracts/contracts_ready_for_prod/TokenEcoSystemParticipationV1_0_flattened.sol\":31082:31103  points * 10**decimals */\n      tag_272\n      swap2\n      swap1\n      tag_273\n      jump\t// in\n    tag_272:\n        /* \"token_eco_system_dev_contracts/contracts_ready_for_prod/TokenEcoSystemParticipationV1_0_flattened.sol\":31081:31111  (points * 10**decimals) / rate */\n      tag_274\n      swap2\n      swap1\n      tag_275\n      jump\t// in\n    tag_274:\n        /* \"token_eco_system_dev_contracts/contracts_ready_for_prod/TokenEcoSystemParticipationV1_0_flattened.sol\":31074:31111  return (points * 10**decimals) / rate */\n      swap1\n      pop\n        /* \"token_eco_system_dev_contracts/contracts_ready_for_prod/TokenEcoSystemParticipationV1_0_flattened.sol\":30764:31118  function calculateAmount(... */\n      swap4\n      swap3\n      pop\n      pop\n      pop\n      jump\t// out\n        /* \"token_eco_system_dev_contracts/contracts_ready_for_prod/TokenEcoSystemParticipationV1_0_flattened.sol\":2090:2175  function owner() public view virtual returns (address) {... */\n    tag_88:\n        /* \"token_eco_system_dev_contracts/contracts_ready_for_prod/TokenEcoSystemParticipationV1_0_flattened.sol\":2136:2143  address */\n      0x00\n        /* \"token_eco_system_dev_contracts/contracts_ready_for_prod/TokenEcoSystemParticipationV1_0_flattened.sol\":2162:2168  _owner */\n      dup1\n      0x01\n      swap1\n      sload\n      swap1\n      0x0100\n      exp\n      swap1\n      div\n      0xffffffffffffffffffffffffffffffffffffffff\n      and\n        /* \"token_eco_system_dev_contracts/contracts_ready_for_prod/TokenEcoSystemParticipationV1_0_flattened.sol\":2155:2168  return _owner */\n      swap1\n      pop\n        /* \"token_eco_system_dev_contracts/contracts_ready_for_prod/TokenEcoSystemParticipationV1_0_flattened.sol\":2090:2175  function owner() public view virtual returns (address) {... */\n      swap1\n      jump\t// out\n        /* \"token_eco_system_dev_contracts/contracts_ready_for_prod/TokenEcoSystemParticipationV1_0_flattened.sol\":31124:31267  function checkAllowance() public onlyOwnerOrAuthorized view returns (uint256){... */\n    tag_91:\n        /* \"token_eco_system_dev_contracts/contracts_ready_for_prod/TokenEcoSystemParticipationV1_0_flattened.sol\":31193:31200  uint256 */\n      0x00\n        /* \"token_eco_system_dev_contracts/contracts_ready_for_prod/TokenEcoSystemParticipationV1_0_flattened.sol\":27503:27524  acceptedSenderAddress */\n      0x01\n      0x00\n      swap1\n      sload\n      swap1\n      0x0100\n      exp\n      swap1\n      div\n      0xffffffffffffffffffffffffffffffffffffffff\n      and\n        /* \"token_eco_system_dev_contracts/contracts_ready_for_prod/TokenEcoSystemParticipationV1_0_flattened.sol\":27489:27524  msg.sender == acceptedSenderAddress */\n      0xffffffffffffffffffffffffffffffffffffffff\n      and\n        /* \"token_eco_system_dev_contracts/contracts_ready_for_prod/TokenEcoSystemParticipationV1_0_flattened.sol\":27489:27499  msg.sender */\n      caller\n        /* \"token_eco_system_dev_contracts/contracts_ready_for_prod/TokenEcoSystemParticipationV1_0_flattened.sol\":27489:27524  msg.sender == acceptedSenderAddress */\n      0xffffffffffffffffffffffffffffffffffffffff\n      and\n      eq\n        /* \"token_eco_system_dev_contracts/contracts_ready_for_prod/TokenEcoSystemParticipationV1_0_flattened.sol\":27489:27549  msg.sender == acceptedSenderAddress || msg.sender == owner() */\n      dup1\n      tag_278\n      jumpi\n      pop\n        /* \"token_eco_system_dev_contracts/contracts_ready_for_prod/TokenEcoSystemParticipationV1_0_flattened.sol\":27542:27549  owner() */\n      tag_279\n        /* \"token_eco_system_dev_contracts/contracts_ready_for_prod/TokenEcoSystemParticipationV1_0_flattened.sol\":27542:27547  owner */\n      tag_88\n        /* \"token_eco_system_dev_contracts/contracts_ready_for_prod/TokenEcoSystemParticipationV1_0_flattened.sol\":27542:27549  owner() */\n      jump\t// in\n    tag_279:\n        /* \"token_eco_system_dev_contracts/contracts_ready_for_prod/TokenEcoSystemParticipationV1_0_flattened.sol\":27528:27549  msg.sender == owner() */\n      0xffffffffffffffffffffffffffffffffffffffff\n      and\n        /* \"token_eco_system_dev_contracts/contracts_ready_for_prod/TokenEcoSystemParticipationV1_0_flattened.sol\":27528:27538  msg.sender */\n      caller\n        /* \"token_eco_system_dev_contracts/contracts_ready_for_prod/TokenEcoSystemParticipationV1_0_flattened.sol\":27528:27549  msg.sender == owner() */\n      0xffffffffffffffffffffffffffffffffffffffff\n      and\n      eq\n        /* \"token_eco_system_dev_contracts/contracts_ready_for_prod/TokenEcoSystemParticipationV1_0_flattened.sol\":27489:27549  msg.sender == acceptedSenderAddress || msg.sender == owner() */\n    tag_278:\n        /* \"token_eco_system_dev_contracts/contracts_ready_for_prod/TokenEcoSystemParticipationV1_0_flattened.sol\":27467:27640  require(... */\n      tag_280\n      jumpi\n      mload(0x40)\n      0x08c379a000000000000000000000000000000000000000000000000000000000\n      dup2\n      mstore\n      0x04\n      add\n      tag_281\n      swap1\n      tag_208\n      jump\t// in\n    tag_281:\n      mload(0x40)\n      dup1\n      swap2\n      sub\n      swap1\n      revert\n    tag_280:\n        /* \"token_eco_system_dev_contracts/contracts_ready_for_prod/TokenEcoSystemParticipationV1_0_flattened.sol\":31218:31223  token */\n      immutable(\"0x474e8cbbfd90dba9df5fc054f99b290c4296483a721448990672feaba0c59d72\")\n        /* \"token_eco_system_dev_contracts/contracts_ready_for_prod/TokenEcoSystemParticipationV1_0_flattened.sol\":31218:31233  token.allowance */\n      0xffffffffffffffffffffffffffffffffffffffff\n      and\n      0xdd62ed3e\n        /* \"token_eco_system_dev_contracts/contracts_ready_for_prod/TokenEcoSystemParticipationV1_0_flattened.sol\":31234:31244  msg.sender */\n      caller\n        /* \"token_eco_system_dev_contracts/contracts_ready_for_prod/TokenEcoSystemParticipationV1_0_flattened.sol\":31254:31258  this */\n      address\n        /* \"token_eco_system_dev_contracts/contracts_ready_for_prod/TokenEcoSystemParticipationV1_0_flattened.sol\":31218:31260  token.allowance(msg.sender, address(this)) */\n      mload(0x40)\n      dup4\n      0xffffffff\n      and\n      0xe0\n      shl\n      dup2\n      mstore\n      0x04\n      add\n      tag_283\n      swap3\n      swap2\n      swap1\n      tag_284\n      jump\t// in\n    tag_283:\n      0x20\n      mload(0x40)\n      dup1\n      dup4\n      sub\n      dup2\n      dup7\n      gas\n      staticcall\n      iszero\n      dup1\n      iszero\n      tag_286\n      jumpi\n      returndatasize\n      0x00\n      dup1\n      returndatacopy\n      revert(0x00, returndatasize)\n    tag_286:\n      pop\n      pop\n      pop\n      pop\n      mload(0x40)\n      returndatasize\n      not(0x1f)\n      0x1f\n      dup3\n      add\n      and\n      dup3\n      add\n      dup1\n      0x40\n      mstore\n      pop\n      dup2\n      add\n      swap1\n      tag_287\n      swap2\n      swap1\n      tag_258\n      jump\t// in\n    tag_287:\n        /* \"token_eco_system_dev_contracts/contracts_ready_for_prod/TokenEcoSystemParticipationV1_0_flattened.sol\":31211:31260  return token.allowance(msg.sender, address(this)) */\n      swap1\n      pop\n        /* \"token_eco_system_dev_contracts/contracts_ready_for_prod/TokenEcoSystemParticipationV1_0_flattened.sol\":31124:31267  function checkAllowance() public onlyOwnerOrAuthorized view returns (uint256){... */\n      swap1\n      jump\t// out\n        /* \"token_eco_system_dev_contracts/contracts_ready_for_prod/TokenEcoSystemParticipationV1_0_flattened.sol\":30440:30663  function currentRateFeedAddress() public view onlyOwner returns (address) {... */\n    tag_94:\n        /* \"token_eco_system_dev_contracts/contracts_ready_for_prod/TokenEcoSystemParticipationV1_0_flattened.sol\":30505:30512  address */\n      0x00\n        /* \"token_eco_system_dev_contracts/contracts_ready_for_prod/TokenEcoSystemParticipationV1_0_flattened.sol\":1983:1996  _checkOwner() */\n      tag_289\n        /* \"token_eco_system_dev_contracts/contracts_ready_for_prod/TokenEcoSystemParticipationV1_0_flattened.sol\":1983:1994  _checkOwner */\n      tag_135\n        /* \"token_eco_system_dev_contracts/contracts_ready_for_prod/TokenEcoSystemParticipationV1_0_flattened.sol\":1983:1996  _checkOwner() */\n      jump\t// in\n    tag_289:\n        /* \"token_eco_system_dev_contracts/contracts_ready_for_prod/TokenEcoSystemParticipationV1_0_flattened.sol\":30528:30540  poolRateFeed */\n      0x01\n      0x14\n      swap1\n      sload\n      swap1\n      0x0100\n      exp\n      swap1\n      div\n      0xff\n      and\n        /* \"token_eco_system_dev_contracts/contracts_ready_for_prod/TokenEcoSystemParticipationV1_0_flattened.sol\":30524:30657  if (poolRateFeed){... */\n      iszero\n      tag_291\n      jumpi\n        /* \"token_eco_system_dev_contracts/contracts_ready_for_prod/TokenEcoSystemParticipationV1_0_flattened.sol\":30570:30582  poolConsumer */\n      0x07\n      0x00\n      swap1\n      sload\n      swap1\n      0x0100\n      exp\n      swap1\n      div\n      0xffffffffffffffffffffffffffffffffffffffff\n      and\n        /* \"token_eco_system_dev_contracts/contracts_ready_for_prod/TokenEcoSystemParticipationV1_0_flattened.sol\":30555:30583  return address(poolConsumer) */\n      swap1\n      pop\n      jump(tag_290)\n        /* \"token_eco_system_dev_contracts/contracts_ready_for_prod/TokenEcoSystemParticipationV1_0_flattened.sol\":30524:30657  if (poolRateFeed){... */\n    tag_291:\n        /* \"token_eco_system_dev_contracts/contracts_ready_for_prod/TokenEcoSystemParticipationV1_0_flattened.sol\":30627:30645  aggregatorConsumer */\n      0x06\n      0x00\n      swap1\n      sload\n      swap1\n      0x0100\n      exp\n      swap1\n      div\n      0xffffffffffffffffffffffffffffffffffffffff\n      and\n        /* \"token_eco_system_dev_contracts/contracts_ready_for_prod/TokenEcoSystemParticipationV1_0_flattened.sol\":30612:30646  return address(aggregatorConsumer) */\n      swap1\n      pop\n        /* \"token_eco_system_dev_contracts/contracts_ready_for_prod/TokenEcoSystemParticipationV1_0_flattened.sol\":2006:2007  _ */\n    tag_290:\n        /* \"token_eco_system_dev_contracts/contracts_ready_for_prod/TokenEcoSystemParticipationV1_0_flattened.sol\":30440:30663  function currentRateFeedAddress() public view onlyOwner returns (address) {... */\n      swap1\n      jump\t// out\n        /* \"token_eco_system_dev_contracts/contracts_ready_for_prod/TokenEcoSystemParticipationV1_0_flattened.sol\":35415:35568  function getDailyWithdraw()... */\n    tag_97:\n        /* \"token_eco_system_dev_contracts/contracts_ready_for_prod/TokenEcoSystemParticipationV1_0_flattened.sol\":35518:35525  uint256 */\n      0x00\n        /* \"token_eco_system_dev_contracts/contracts_ready_for_prod/TokenEcoSystemParticipationV1_0_flattened.sol\":27503:27524  acceptedSenderAddress */\n      0x01\n      0x00\n      swap1\n      sload\n      swap1\n      0x0100\n      exp\n      swap1\n      div\n      0xffffffffffffffffffffffffffffffffffffffff\n      and\n        /* \"token_eco_system_dev_contracts/contracts_ready_for_prod/TokenEcoSystemParticipationV1_0_flattened.sol\":27489:27524  msg.sender == acceptedSenderAddress */\n      0xffffffffffffffffffffffffffffffffffffffff\n      and\n        /* \"token_eco_system_dev_contracts/contracts_ready_for_prod/TokenEcoSystemParticipationV1_0_flattened.sol\":27489:27499  msg.sender */\n      caller\n        /* \"token_eco_system_dev_contracts/contracts_ready_for_prod/TokenEcoSystemParticipationV1_0_flattened.sol\":27489:27524  msg.sender == acceptedSenderAddress */\n      0xffffffffffffffffffffffffffffffffffffffff\n      and\n      eq\n        /* \"token_eco_system_dev_contracts/contracts_ready_for_prod/TokenEcoSystemParticipationV1_0_flattened.sol\":27489:27549  msg.sender == acceptedSenderAddress || msg.sender == owner() */\n      dup1\n      tag_294\n      jumpi\n      pop\n        /* \"token_eco_system_dev_contracts/contracts_ready_for_prod/TokenEcoSystemParticipationV1_0_flattened.sol\":27542:27549  owner() */\n      tag_295\n        /* \"token_eco_system_dev_contracts/contracts_ready_for_prod/TokenEcoSystemParticipationV1_0_flattened.sol\":27542:27547  owner */\n      tag_88\n        /* \"token_eco_system_dev_contracts/contracts_ready_for_prod/TokenEcoSystemParticipationV1_0_flattened.sol\":27542:27549  owner() */\n      jump\t// in\n    tag_295:\n        /* \"token_eco_system_dev_contracts/contracts_ready_for_prod/TokenEcoSystemParticipationV1_0_flattened.sol\":27528:27549  msg.sender == owner() */\n      0xffffffffffffffffffffffffffffffffffffffff\n      and\n        /* \"token_eco_system_dev_contracts/contracts_ready_for_prod/TokenEcoSystemParticipationV1_0_flattened.sol\":27528:27538  msg.sender */\n      caller\n        /* \"token_eco_system_dev_contracts/contracts_ready_for_prod/TokenEcoSystemParticipationV1_0_flattened.sol\":27528:27549  msg.sender == owner() */\n      0xffffffffffffffffffffffffffffffffffffffff\n      and\n      eq\n        /* \"token_eco_system_dev_contracts/contracts_ready_for_prod/TokenEcoSystemParticipationV1_0_flattened.sol\":27489:27549  msg.sender == acceptedSenderAddress || msg.sender == owner() */\n    tag_294:\n        /* \"token_eco_system_dev_contracts/contracts_ready_for_prod/TokenEcoSystemParticipationV1_0_flattened.sol\":27467:27640  require(... */\n      tag_296\n      jumpi\n      mload(0x40)\n      0x08c379a000000000000000000000000000000000000000000000000000000000\n      dup2\n      mstore\n      0x04\n      add\n      tag_297\n      swap1\n      tag_208\n      jump\t// in\n    tag_297:\n      mload(0x40)\n      dup1\n      swap2\n      sub\n      swap1\n      revert\n    tag_296:\n        /* \"token_eco_system_dev_contracts/contracts_ready_for_prod/TokenEcoSystemParticipationV1_0_flattened.sol\":35548:35561  dailyWithdraw */\n      sload(0x05)\n        /* \"token_eco_system_dev_contracts/contracts_ready_for_prod/TokenEcoSystemParticipationV1_0_flattened.sol\":35541:35561  return dailyWithdraw */\n      swap1\n      pop\n        /* \"token_eco_system_dev_contracts/contracts_ready_for_prod/TokenEcoSystemParticipationV1_0_flattened.sol\":35415:35568  function getDailyWithdraw()... */\n      swap1\n      jump\t// out\n        /* \"token_eco_system_dev_contracts/contracts_ready_for_prod/TokenEcoSystemParticipationV1_0_flattened.sol\":34941:35120  function getTotalPointsGenerated()... */\n    tag_100:\n        /* \"token_eco_system_dev_contracts/contracts_ready_for_prod/TokenEcoSystemParticipationV1_0_flattened.sol\":35069:35076  uint256 */\n      0x00\n        /* \"token_eco_system_dev_contracts/contracts_ready_for_prod/TokenEcoSystemParticipationV1_0_flattened.sol\":27379:27380  0 */\n      dup1\n        /* \"token_eco_system_dev_contracts/contracts_ready_for_prod/TokenEcoSystemParticipationV1_0_flattened.sol\":27346:27381  acceptedSenderAddress != address(0) */\n      0xffffffffffffffffffffffffffffffffffffffff\n      and\n        /* \"token_eco_system_dev_contracts/contracts_ready_for_prod/TokenEcoSystemParticipationV1_0_flattened.sol\":27346:27367  acceptedSenderAddress */\n      0x01\n      0x00\n      swap1\n      sload\n      swap1\n      0x0100\n      exp\n      swap1\n      div\n      0xffffffffffffffffffffffffffffffffffffffff\n      and\n        /* \"token_eco_system_dev_contracts/contracts_ready_for_prod/TokenEcoSystemParticipationV1_0_flattened.sol\":27346:27381  acceptedSenderAddress != address(0) */\n      0xffffffffffffffffffffffffffffffffffffffff\n      and\n      sub\n        /* \"token_eco_system_dev_contracts/contracts_ready_for_prod/TokenEcoSystemParticipationV1_0_flattened.sol\":27338:27400  require(acceptedSenderAddress != address(0), \"Not activated!\") */\n      tag_300\n      jumpi\n      mload(0x40)\n      0x08c379a000000000000000000000000000000000000000000000000000000000\n      dup2\n      mstore\n      0x04\n      add\n      tag_301\n      swap1\n      tag_172\n      jump\t// in\n    tag_301:\n      mload(0x40)\n      dup1\n      swap2\n      sub\n      swap1\n      revert\n    tag_300:\n        /* \"token_eco_system_dev_contracts/contracts_ready_for_prod/TokenEcoSystemParticipationV1_0_flattened.sol\":27503:27524  acceptedSenderAddress */\n      0x01\n      0x00\n      swap1\n      sload\n      swap1\n      0x0100\n      exp\n      swap1\n      div\n      0xffffffffffffffffffffffffffffffffffffffff\n      and\n        /* \"token_eco_system_dev_contracts/contracts_ready_for_prod/TokenEcoSystemParticipationV1_0_flattened.sol\":27489:27524  msg.sender == acceptedSenderAddress */\n      0xffffffffffffffffffffffffffffffffffffffff\n      and\n        /* \"token_eco_system_dev_contracts/contracts_ready_for_prod/TokenEcoSystemParticipationV1_0_flattened.sol\":27489:27499  msg.sender */\n      caller\n        /* \"token_eco_system_dev_contracts/contracts_ready_for_prod/TokenEcoSystemParticipationV1_0_flattened.sol\":27489:27524  msg.sender == acceptedSenderAddress */\n      0xffffffffffffffffffffffffffffffffffffffff\n      and\n      eq\n        /* \"token_eco_system_dev_contracts/contracts_ready_for_prod/TokenEcoSystemParticipationV1_0_flattened.sol\":27489:27549  msg.sender == acceptedSenderAddress || msg.sender == owner() */\n      dup1\n      tag_303\n      jumpi\n      pop\n        /* \"token_eco_system_dev_contracts/contracts_ready_for_prod/TokenEcoSystemParticipationV1_0_flattened.sol\":27542:27549  owner() */\n      tag_304\n        /* \"token_eco_system_dev_contracts/contracts_ready_for_prod/TokenEcoSystemParticipationV1_0_flattened.sol\":27542:27547  owner */\n      tag_88\n        /* \"token_eco_system_dev_contracts/contracts_ready_for_prod/TokenEcoSystemParticipationV1_0_flattened.sol\":27542:27549  owner() */\n      jump\t// in\n    tag_304:\n        /* \"token_eco_system_dev_contracts/contracts_ready_for_prod/TokenEcoSystemParticipationV1_0_flattened.sol\":27528:27549  msg.sender == owner() */\n      0xffffffffffffffffffffffffffffffffffffffff\n      and\n        /* \"token_eco_system_dev_contracts/contracts_ready_for_prod/TokenEcoSystemParticipationV1_0_flattened.sol\":27528:27538  msg.sender */\n      caller\n        /* \"token_eco_system_dev_contracts/contracts_ready_for_prod/TokenEcoSystemParticipationV1_0_flattened.sol\":27528:27549  msg.sender == owner() */\n      0xffffffffffffffffffffffffffffffffffffffff\n      and\n      eq\n        /* \"token_eco_system_dev_contracts/contracts_ready_for_prod/TokenEcoSystemParticipationV1_0_flattened.sol\":27489:27549  msg.sender == acceptedSenderAddress || msg.sender == owner() */\n    tag_303:\n        /* \"token_eco_system_dev_contracts/contracts_ready_for_prod/TokenEcoSystemParticipationV1_0_flattened.sol\":27467:27640  require(... */\n      tag_305\n      jumpi\n      mload(0x40)\n      0x08c379a000000000000000000000000000000000000000000000000000000000\n      dup2\n      mstore\n      0x04\n      add\n      tag_306\n      swap1\n      tag_208\n      jump\t// in\n    tag_306:\n      mload(0x40)\n      dup1\n      swap2\n      sub\n      swap1\n      revert\n    tag_305:\n        /* \"token_eco_system_dev_contracts/contracts_ready_for_prod/TokenEcoSystemParticipationV1_0_flattened.sol\":35099:35113  totalConverted */\n      sload(0x03)\n        /* \"token_eco_system_dev_contracts/contracts_ready_for_prod/TokenEcoSystemParticipationV1_0_flattened.sol\":35092:35113  return totalConverted */\n      swap1\n      pop\n        /* \"token_eco_system_dev_contracts/contracts_ready_for_prod/TokenEcoSystemParticipationV1_0_flattened.sol\":34941:35120  function getTotalPointsGenerated()... */\n      swap1\n      jump\t// out\n        /* \"token_eco_system_dev_contracts/contracts_ready_for_prod/TokenEcoSystemParticipationV1_0_flattened.sol\":36027:36228  function getTokenInfo()... */\n    tag_103:\n        /* \"token_eco_system_dev_contracts/contracts_ready_for_prod/TokenEcoSystemParticipationV1_0_flattened.sol\":36144:36151  address */\n      0x00\n        /* \"token_eco_system_dev_contracts/contracts_ready_for_prod/TokenEcoSystemParticipationV1_0_flattened.sol\":36153:36166  string memory */\n      0x60\n        /* \"token_eco_system_dev_contracts/contracts_ready_for_prod/TokenEcoSystemParticipationV1_0_flattened.sol\":27379:27380  0 */\n      0x00\n        /* \"token_eco_system_dev_contracts/contracts_ready_for_prod/TokenEcoSystemParticipationV1_0_flattened.sol\":27346:27381  acceptedSenderAddress != address(0) */\n      0xffffffffffffffffffffffffffffffffffffffff\n      and\n        /* \"token_eco_system_dev_contracts/contracts_ready_for_prod/TokenEcoSystemParticipationV1_0_flattened.sol\":27346:27367  acceptedSenderAddress */\n      0x01\n      0x00\n      swap1\n      sload\n      swap1\n      0x0100\n      exp\n      swap1\n      div\n      0xffffffffffffffffffffffffffffffffffffffff\n      and\n        /* \"token_eco_system_dev_contracts/contracts_ready_for_prod/TokenEcoSystemParticipationV1_0_flattened.sol\":27346:27381  acceptedSenderAddress != address(0) */\n      0xffffffffffffffffffffffffffffffffffffffff\n      and\n      sub\n        /* \"token_eco_system_dev_contracts/contracts_ready_for_prod/TokenEcoSystemParticipationV1_0_flattened.sol\":27338:27400  require(acceptedSenderAddress != address(0), \"Not activated!\") */\n      tag_309\n      jumpi\n      mload(0x40)\n      0x08c379a000000000000000000000000000000000000000000000000000000000\n      dup2\n      mstore\n      0x04\n      add\n      tag_310\n      swap1\n      tag_172\n      jump\t// in\n    tag_310:\n      mload(0x40)\n      dup1\n      swap2\n      sub\n      swap1\n      revert\n    tag_309:\n        /* \"token_eco_system_dev_contracts/contracts_ready_for_prod/TokenEcoSystemParticipationV1_0_flattened.sol\":27503:27524  acceptedSenderAddress */\n      0x01\n      0x00\n      swap1\n      sload\n      swap1\n      0x0100\n      exp\n      swap1\n      div\n      0xffffffffffffffffffffffffffffffffffffffff\n      and\n        /* \"token_eco_system_dev_contracts/contracts_ready_for_prod/TokenEcoSystemParticipationV1_0_flattened.sol\":27489:27524  msg.sender == acceptedSenderAddress */\n      0xffffffffffffffffffffffffffffffffffffffff\n      and\n        /* \"token_eco_system_dev_contracts/contracts_ready_for_prod/TokenEcoSystemParticipationV1_0_flattened.sol\":27489:27499  msg.sender */\n      caller\n        /* \"token_eco_system_dev_contracts/contracts_ready_for_prod/TokenEcoSystemParticipationV1_0_flattened.sol\":27489:27524  msg.sender == acceptedSenderAddress */\n      0xffffffffffffffffffffffffffffffffffffffff\n      and\n      eq\n        /* \"token_eco_system_dev_contracts/contracts_ready_for_prod/TokenEcoSystemParticipationV1_0_flattened.sol\":27489:27549  msg.sender == acceptedSenderAddress || msg.sender == owner() */\n      dup1\n      tag_312\n      jumpi\n      pop\n        /* \"token_eco_system_dev_contracts/contracts_ready_for_prod/TokenEcoSystemParticipationV1_0_flattened.sol\":27542:27549  owner() */\n      tag_313\n        /* \"token_eco_system_dev_contracts/contracts_ready_for_prod/TokenEcoSystemParticipationV1_0_flattened.sol\":27542:27547  owner */\n      tag_88\n        /* \"token_eco_system_dev_contracts/contracts_ready_for_prod/TokenEcoSystemParticipationV1_0_flattened.sol\":27542:27549  owner() */\n      jump\t// in\n    tag_313:\n        /* \"token_eco_system_dev_contracts/contracts_ready_for_prod/TokenEcoSystemParticipationV1_0_flattened.sol\":27528:27549  msg.sender == owner() */\n      0xffffffffffffffffffffffffffffffffffffffff\n      and\n        /* \"token_eco_system_dev_contracts/contracts_ready_for_prod/TokenEcoSystemParticipationV1_0_flattened.sol\":27528:27538  msg.sender */\n      caller\n        /* \"token_eco_system_dev_contracts/contracts_ready_for_prod/TokenEcoSystemParticipationV1_0_flattened.sol\":27528:27549  msg.sender == owner() */\n      0xffffffffffffffffffffffffffffffffffffffff\n      and\n      eq\n        /* \"token_eco_system_dev_contracts/contracts_ready_for_prod/TokenEcoSystemParticipationV1_0_flattened.sol\":27489:27549  msg.sender == acceptedSenderAddress || msg.sender == owner() */\n    tag_312:\n        /* \"token_eco_system_dev_contracts/contracts_ready_for_prod/TokenEcoSystemParticipationV1_0_flattened.sol\":27467:27640  require(... */\n      tag_314\n      jumpi\n      mload(0x40)\n      0x08c379a000000000000000000000000000000000000000000000000000000000\n      dup2\n      mstore\n      0x04\n      add\n      tag_315\n      swap1\n      tag_208\n      jump\t// in\n    tag_315:\n      mload(0x40)\n      dup1\n      swap2\n      sub\n      swap1\n      revert\n    tag_314:\n        /* \"token_eco_system_dev_contracts/contracts_ready_for_prod/TokenEcoSystemParticipationV1_0_flattened.sol\":36198:36203  token */\n      immutable(\"0x474e8cbbfd90dba9df5fc054f99b290c4296483a721448990672feaba0c59d72\")\n        /* \"token_eco_system_dev_contracts/contracts_ready_for_prod/TokenEcoSystemParticipationV1_0_flattened.sol\":36206:36211  token */\n      immutable(\"0x474e8cbbfd90dba9df5fc054f99b290c4296483a721448990672feaba0c59d72\")\n        /* \"token_eco_system_dev_contracts/contracts_ready_for_prod/TokenEcoSystemParticipationV1_0_flattened.sol\":36206:36218  token.symbol */\n      0xffffffffffffffffffffffffffffffffffffffff\n      and\n      0x95d89b41\n        /* \"token_eco_system_dev_contracts/contracts_ready_for_prod/TokenEcoSystemParticipationV1_0_flattened.sol\":36206:36220  token.symbol() */\n      mload(0x40)\n      dup2\n      0xffffffff\n      and\n      0xe0\n      shl\n      dup2\n      mstore\n      0x04\n      add\n      0x00\n      mload(0x40)\n      dup1\n      dup4\n      sub\n      dup2\n      dup7\n      gas\n      staticcall\n      iszero\n      dup1\n      iszero\n      tag_318\n      jumpi\n      returndatasize\n      0x00\n      dup1\n      returndatacopy\n      revert(0x00, returndatasize)\n    tag_318:\n      pop\n      pop\n      pop\n      pop\n      mload(0x40)\n      returndatasize\n      0x00\n      dup3\n      returndatacopy\n      returndatasize\n      not(0x1f)\n      0x1f\n      dup3\n      add\n      and\n      dup3\n      add\n      dup1\n      0x40\n      mstore\n      pop\n      dup2\n      add\n      swap1\n      tag_319\n      swap2\n      swap1\n      tag_142\n      jump\t// in\n    tag_319:\n        /* \"token_eco_system_dev_contracts/contracts_ready_for_prod/TokenEcoSystemParticipationV1_0_flattened.sol\":36182:36221  return (address(token), token.symbol()) */\n      swap2\n      pop\n      swap2\n      pop\n        /* \"token_eco_system_dev_contracts/contracts_ready_for_prod/TokenEcoSystemParticipationV1_0_flattened.sol\":36027:36228  function getTokenInfo()... */\n      swap1\n      swap2\n      jump\t// out\n        /* \"token_eco_system_dev_contracts/contracts_ready_for_prod/TokenEcoSystemParticipationV1_0_flattened.sol\":29407:29642  function addNewPoolRateFeed(address consumerInterfaceAddress)... */\n    tag_108:\n        /* \"token_eco_system_dev_contracts/contracts_ready_for_prod/TokenEcoSystemParticipationV1_0_flattened.sol\":1983:1996  _checkOwner() */\n      tag_321\n        /* \"token_eco_system_dev_contracts/contracts_ready_for_prod/TokenEcoSystemParticipationV1_0_flattened.sol\":1983:1994  _checkOwner */\n      tag_135\n        /* \"token_eco_system_dev_contracts/contracts_ready_for_prod/TokenEcoSystemParticipationV1_0_flattened.sol\":1983:1996  _checkOwner() */\n      jump\t// in\n    tag_321:\n        /* \"token_eco_system_dev_contracts/contracts_ready_for_prod/TokenEcoSystemParticipationV1_0_flattened.sol\":29560:29561  0 */\n      0x00\n        /* \"token_eco_system_dev_contracts/contracts_ready_for_prod/TokenEcoSystemParticipationV1_0_flattened.sol\":29524:29562  consumerInterfaceAddress != address(0) */\n      0xffffffffffffffffffffffffffffffffffffffff\n      and\n        /* \"token_eco_system_dev_contracts/contracts_ready_for_prod/TokenEcoSystemParticipationV1_0_flattened.sol\":29524:29548  consumerInterfaceAddress */\n      dup2\n        /* \"token_eco_system_dev_contracts/contracts_ready_for_prod/TokenEcoSystemParticipationV1_0_flattened.sol\":29524:29562  consumerInterfaceAddress != address(0) */\n      0xffffffffffffffffffffffffffffffffffffffff\n      and\n      sub\n        /* \"token_eco_system_dev_contracts/contracts_ready_for_prod/TokenEcoSystemParticipationV1_0_flattened.sol\":29516:29563  require(consumerInterfaceAddress != address(0)) */\n      tag_323\n      jumpi\n      0x00\n      dup1\n      revert\n    tag_323:\n        /* \"token_eco_system_dev_contracts/contracts_ready_for_prod/TokenEcoSystemParticipationV1_0_flattened.sol\":29610:29634  consumerInterfaceAddress */\n      dup1\n        /* \"token_eco_system_dev_contracts/contracts_ready_for_prod/TokenEcoSystemParticipationV1_0_flattened.sol\":29573:29585  poolConsumer */\n      0x07\n      0x00\n        /* \"token_eco_system_dev_contracts/contracts_ready_for_prod/TokenEcoSystemParticipationV1_0_flattened.sol\":29573:29635  poolConsumer = PoolConsumerInterface(consumerInterfaceAddress) */\n      0x0100\n      exp\n      dup2\n      sload\n      dup2\n      0xffffffffffffffffffffffffffffffffffffffff\n      mul\n      not\n      and\n      swap1\n      dup4\n      0xffffffffffffffffffffffffffffffffffffffff\n      and\n      mul\n      or\n      swap1\n      sstore\n      pop\n        /* \"token_eco_system_dev_contracts/contracts_ready_for_prod/TokenEcoSystemParticipationV1_0_flattened.sol\":29407:29642  function addNewPoolRateFeed(address consumerInterfaceAddress)... */\n      pop\n      jump\t// out\n        /* \"token_eco_system_dev_contracts/contracts_ready_for_prod/TokenEcoSystemParticipationV1_0_flattened.sol\":32999:33190  function balanceOfToken(address tokenAddress)... */\n    tag_111:\n        /* \"token_eco_system_dev_contracts/contracts_ready_for_prod/TokenEcoSystemParticipationV1_0_flattened.sol\":33108:33115  uint256 */\n      0x00\n        /* \"token_eco_system_dev_contracts/contracts_ready_for_prod/TokenEcoSystemParticipationV1_0_flattened.sol\":1983:1996  _checkOwner() */\n      tag_325\n        /* \"token_eco_system_dev_contracts/contracts_ready_for_prod/TokenEcoSystemParticipationV1_0_flattened.sol\":1983:1994  _checkOwner */\n      tag_135\n        /* \"token_eco_system_dev_contracts/contracts_ready_for_prod/TokenEcoSystemParticipationV1_0_flattened.sol\":1983:1996  _checkOwner() */\n      jump\t// in\n    tag_325:\n        /* \"token_eco_system_dev_contracts/contracts_ready_for_prod/TokenEcoSystemParticipationV1_0_flattened.sol\":33145:33157  tokenAddress */\n      dup2\n        /* \"token_eco_system_dev_contracts/contracts_ready_for_prod/TokenEcoSystemParticipationV1_0_flattened.sol\":33138:33168  IERC20(tokenAddress).balanceOf */\n      0xffffffffffffffffffffffffffffffffffffffff\n      and\n      0x70a08231\n        /* \"token_eco_system_dev_contracts/contracts_ready_for_prod/TokenEcoSystemParticipationV1_0_flattened.sol\":33177:33181  this */\n      address\n        /* \"token_eco_system_dev_contracts/contracts_ready_for_prod/TokenEcoSystemParticipationV1_0_flattened.sol\":33138:33183  IERC20(tokenAddress).balanceOf(address(this)) */\n      mload(0x40)\n      dup3\n      0xffffffff\n      and\n      0xe0\n      shl\n      dup2\n      mstore\n      0x04\n      add\n      tag_327\n      swap2\n      swap1\n      tag_50\n      jump\t// in\n    tag_327:\n      0x20\n      mload(0x40)\n      dup1\n      dup4\n      sub\n      dup2\n      dup7\n      gas\n      staticcall\n      iszero\n      dup1\n      iszero\n      tag_329\n      jumpi\n      returndatasize\n      0x00\n      dup1\n      returndatacopy\n      revert(0x00, returndatasize)\n    tag_329:\n      pop\n      pop\n      pop\n      pop\n      mload(0x40)\n      returndatasize\n      not(0x1f)\n      0x1f\n      dup3\n      add\n      and\n      dup3\n      add\n      dup1\n      0x40\n      mstore\n      pop\n      dup2\n      add\n      swap1\n      tag_330\n      swap2\n      swap1\n      tag_258\n      jump\t// in\n    tag_330:\n        /* \"token_eco_system_dev_contracts/contracts_ready_for_prod/TokenEcoSystemParticipationV1_0_flattened.sol\":33131:33183  return IERC20(tokenAddress).balanceOf(address(this)) */\n      swap1\n      pop\n        /* \"token_eco_system_dev_contracts/contracts_ready_for_prod/TokenEcoSystemParticipationV1_0_flattened.sol\":32999:33190  function balanceOfToken(address tokenAddress)... */\n      swap2\n      swap1\n      pop\n      jump\t// out\n        /* \"token_eco_system_dev_contracts/contracts_ready_for_prod/TokenEcoSystemParticipationV1_0_flattened.sol\":35860:35962  function getInitialActivationAddress() public view returns (address) {... */\n    tag_114:\n        /* \"token_eco_system_dev_contracts/contracts_ready_for_prod/TokenEcoSystemParticipationV1_0_flattened.sol\":35920:35927  address */\n      0x00\n        /* \"token_eco_system_dev_contracts/contracts_ready_for_prod/TokenEcoSystemParticipationV1_0_flattened.sol\":35946:35955  activator */\n      immutable(\"0xc0bf3ddb79e7c5faf09af1eaa09640fae848e430edf7a04658ec05be9ade7aab\")\n        /* \"token_eco_system_dev_contracts/contracts_ready_for_prod/TokenEcoSystemParticipationV1_0_flattened.sol\":35939:35955  return activator */\n      swap1\n      pop\n        /* \"token_eco_system_dev_contracts/contracts_ready_for_prod/TokenEcoSystemParticipationV1_0_flattened.sol\":35860:35962  function getInitialActivationAddress() public view returns (address) {... */\n      swap1\n      jump\t// out\n        /* \"token_eco_system_dev_contracts/contracts_ready_for_prod/TokenEcoSystemParticipationV1_0_flattened.sol\":30235:30434  function currentRateFeed() public view onlyOwner returns (string memory) {... */\n    tag_117:\n        /* \"token_eco_system_dev_contracts/contracts_ready_for_prod/TokenEcoSystemParticipationV1_0_flattened.sol\":30293:30306  string memory */\n      0x60\n        /* \"token_eco_system_dev_contracts/contracts_ready_for_prod/TokenEcoSystemParticipationV1_0_flattened.sol\":1983:1996  _checkOwner() */\n      tag_333\n        /* \"token_eco_system_dev_contracts/contracts_ready_for_prod/TokenEcoSystemParticipationV1_0_flattened.sol\":1983:1994  _checkOwner */\n      tag_135\n        /* \"token_eco_system_dev_contracts/contracts_ready_for_prod/TokenEcoSystemParticipationV1_0_flattened.sol\":1983:1996  _checkOwner() */\n      jump\t// in\n    tag_333:\n        /* \"token_eco_system_dev_contracts/contracts_ready_for_prod/TokenEcoSystemParticipationV1_0_flattened.sol\":30318:30338  string memory result */\n      0x60\n        /* \"token_eco_system_dev_contracts/contracts_ready_for_prod/TokenEcoSystemParticipationV1_0_flattened.sol\":30348:30360  poolRateFeed */\n      0x01\n      0x14\n      swap1\n      sload\n      swap1\n      0x0100\n      exp\n      swap1\n      div\n      0xff\n      and\n        /* \"token_eco_system_dev_contracts/contracts_ready_for_prod/TokenEcoSystemParticipationV1_0_flattened.sol\":30348:30404  poolRateFeed ? result = \"Pool\" : result = \"AggregatorV3\" */\n      tag_335\n      jumpi\n        /* \"token_eco_system_dev_contracts/contracts_ready_for_prod/TokenEcoSystemParticipationV1_0_flattened.sol\":30381:30404  result = \"AggregatorV3\" */\n      mload(0x40)\n      dup1\n      0x40\n      add\n      0x40\n      mstore\n      dup1\n      0x0c\n      dup2\n      mstore\n      0x20\n      add\n      0x41676772656761746f7256330000000000000000000000000000000000000000\n      dup2\n      mstore\n      pop\n      swap1\n      pop\n      dup1\n        /* \"token_eco_system_dev_contracts/contracts_ready_for_prod/TokenEcoSystemParticipationV1_0_flattened.sol\":30348:30404  poolRateFeed ? result = \"Pool\" : result = \"AggregatorV3\" */\n      jump(tag_336)\n    tag_335:\n        /* \"token_eco_system_dev_contracts/contracts_ready_for_prod/TokenEcoSystemParticipationV1_0_flattened.sol\":30363:30378  result = \"Pool\" */\n      mload(0x40)\n      dup1\n      0x40\n      add\n      0x40\n      mstore\n      dup1\n      0x04\n      dup2\n      mstore\n      0x20\n      add\n      0x506f6f6c00000000000000000000000000000000000000000000000000000000\n      dup2\n      mstore\n      pop\n      swap1\n      pop\n      dup1\n        /* \"token_eco_system_dev_contracts/contracts_ready_for_prod/TokenEcoSystemParticipationV1_0_flattened.sol\":30348:30404  poolRateFeed ? result = \"Pool\" : result = \"AggregatorV3\" */\n    tag_336:\n      pop\n        /* \"token_eco_system_dev_contracts/contracts_ready_for_prod/TokenEcoSystemParticipationV1_0_flattened.sol\":30421:30427  result */\n      dup1\n        /* \"token_eco_system_dev_contracts/contracts_ready_for_prod/TokenEcoSystemParticipationV1_0_flattened.sol\":30414:30427  return result */\n      swap2\n      pop\n      pop\n        /* \"token_eco_system_dev_contracts/contracts_ready_for_prod/TokenEcoSystemParticipationV1_0_flattened.sol\":30235:30434  function currentRateFeed() public view onlyOwner returns (string memory) {... */\n      swap1\n      jump\t// out\n        /* \"token_eco_system_dev_contracts/contracts_ready_for_prod/TokenEcoSystemParticipationV1_0_flattened.sol\":29716:30188  function changeRateFeed() public onlyOwner {... */\n    tag_121:\n        /* \"token_eco_system_dev_contracts/contracts_ready_for_prod/TokenEcoSystemParticipationV1_0_flattened.sol\":1983:1996  _checkOwner() */\n      tag_338\n        /* \"token_eco_system_dev_contracts/contracts_ready_for_prod/TokenEcoSystemParticipationV1_0_flattened.sol\":1983:1994  _checkOwner */\n      tag_135\n        /* \"token_eco_system_dev_contracts/contracts_ready_for_prod/TokenEcoSystemParticipationV1_0_flattened.sol\":1983:1996  _checkOwner() */\n      jump\t// in\n    tag_338:\n        /* \"token_eco_system_dev_contracts/contracts_ready_for_prod/TokenEcoSystemParticipationV1_0_flattened.sol\":29773:29785  poolRateFeed */\n      0x01\n      0x14\n      swap1\n      sload\n      swap1\n      0x0100\n      exp\n      swap1\n      div\n      0xff\n      and\n        /* \"token_eco_system_dev_contracts/contracts_ready_for_prod/TokenEcoSystemParticipationV1_0_flattened.sol\":29769:30144  if (poolRateFeed) {... */\n      iszero\n      tag_340\n      jumpi\n        /* \"token_eco_system_dev_contracts/contracts_ready_for_prod/TokenEcoSystemParticipationV1_0_flattened.sol\":29826:29838  poolRateFeed */\n      0x01\n      0x14\n      swap1\n      sload\n      swap1\n      0x0100\n      exp\n      swap1\n      div\n      0xff\n      and\n        /* \"token_eco_system_dev_contracts/contracts_ready_for_prod/TokenEcoSystemParticipationV1_0_flattened.sol\":29826:29885  poolRateFeed && (address(aggregatorConsumer) != address(0)) */\n      dup1\n      iszero\n      tag_341\n      jumpi\n      pop\n        /* \"token_eco_system_dev_contracts/contracts_ready_for_prod/TokenEcoSystemParticipationV1_0_flattened.sol\":29882:29883  0 */\n      0x00\n        /* \"token_eco_system_dev_contracts/contracts_ready_for_prod/TokenEcoSystemParticipationV1_0_flattened.sol\":29843:29884  address(aggregatorConsumer) != address(0) */\n      0xffffffffffffffffffffffffffffffffffffffff\n      and\n        /* \"token_eco_system_dev_contracts/contracts_ready_for_prod/TokenEcoSystemParticipationV1_0_flattened.sol\":29851:29869  aggregatorConsumer */\n      0x06\n      0x00\n      swap1\n      sload\n      swap1\n      0x0100\n      exp\n      swap1\n      div\n      0xffffffffffffffffffffffffffffffffffffffff\n      and\n        /* \"token_eco_system_dev_contracts/contracts_ready_for_prod/TokenEcoSystemParticipationV1_0_flattened.sol\":29843:29884  address(aggregatorConsumer) != address(0) */\n      0xffffffffffffffffffffffffffffffffffffffff\n      and\n      eq\n      iszero\n        /* \"token_eco_system_dev_contracts/contracts_ready_for_prod/TokenEcoSystemParticipationV1_0_flattened.sol\":29826:29885  poolRateFeed && (address(aggregatorConsumer) != address(0)) */\n    tag_341:\n        /* \"token_eco_system_dev_contracts/contracts_ready_for_prod/TokenEcoSystemParticipationV1_0_flattened.sol\":29801:29957  require(... */\n      tag_342\n      jumpi\n      mload(0x40)\n      0x08c379a000000000000000000000000000000000000000000000000000000000\n      dup2\n      mstore\n      0x04\n      add\n      tag_343\n      swap1\n      tag_344\n      jump\t// in\n    tag_343:\n      mload(0x40)\n      dup1\n      swap2\n      sub\n      swap1\n      revert\n    tag_342:\n        /* \"token_eco_system_dev_contracts/contracts_ready_for_prod/TokenEcoSystemParticipationV1_0_flattened.sol\":29769:30144  if (poolRateFeed) {... */\n      jump(tag_345)\n    tag_340:\n        /* \"token_eco_system_dev_contracts/contracts_ready_for_prod/TokenEcoSystemParticipationV1_0_flattened.sol\":30014:30026  poolRateFeed */\n      0x01\n      0x14\n      swap1\n      sload\n      swap1\n      0x0100\n      exp\n      swap1\n      div\n      0xff\n      and\n        /* \"token_eco_system_dev_contracts/contracts_ready_for_prod/TokenEcoSystemParticipationV1_0_flattened.sol\":30013:30026  !poolRateFeed */\n      iszero\n        /* \"token_eco_system_dev_contracts/contracts_ready_for_prod/TokenEcoSystemParticipationV1_0_flattened.sol\":30013:30067  !poolRateFeed && (address(poolConsumer) != address(0)) */\n      dup1\n      iszero\n      tag_346\n      jumpi\n      pop\n        /* \"token_eco_system_dev_contracts/contracts_ready_for_prod/TokenEcoSystemParticipationV1_0_flattened.sol\":30064:30065  0 */\n      0x00\n        /* \"token_eco_system_dev_contracts/contracts_ready_for_prod/TokenEcoSystemParticipationV1_0_flattened.sol\":30031:30066  address(poolConsumer) != address(0) */\n      0xffffffffffffffffffffffffffffffffffffffff\n      and\n        /* \"token_eco_system_dev_contracts/contracts_ready_for_prod/TokenEcoSystemParticipationV1_0_flattened.sol\":30039:30051  poolConsumer */\n      0x07\n      0x00\n      swap1\n      sload\n      swap1\n      0x0100\n      exp\n      swap1\n      div\n      0xffffffffffffffffffffffffffffffffffffffff\n      and\n        /* \"token_eco_system_dev_contracts/contracts_ready_for_prod/TokenEcoSystemParticipationV1_0_flattened.sol\":30031:30066  address(poolConsumer) != address(0) */\n      0xffffffffffffffffffffffffffffffffffffffff\n      and\n      eq\n      iszero\n        /* \"token_eco_system_dev_contracts/contracts_ready_for_prod/TokenEcoSystemParticipationV1_0_flattened.sol\":30013:30067  !poolRateFeed && (address(poolConsumer) != address(0)) */\n    tag_346:\n        /* \"token_eco_system_dev_contracts/contracts_ready_for_prod/TokenEcoSystemParticipationV1_0_flattened.sol\":29988:30133  require(... */\n      tag_347\n      jumpi\n      mload(0x40)\n      0x08c379a000000000000000000000000000000000000000000000000000000000\n      dup2\n      mstore\n      0x04\n      add\n      tag_348\n      swap1\n      tag_349\n      jump\t// in\n    tag_348:\n      mload(0x40)\n      dup1\n      swap2\n      sub\n      swap1\n      revert\n    tag_347:\n        /* \"token_eco_system_dev_contracts/contracts_ready_for_prod/TokenEcoSystemParticipationV1_0_flattened.sol\":29769:30144  if (poolRateFeed) {... */\n    tag_345:\n        /* \"token_eco_system_dev_contracts/contracts_ready_for_prod/TokenEcoSystemParticipationV1_0_flattened.sol\":30169:30181  poolRateFeed */\n      0x01\n      0x14\n      swap1\n      sload\n      swap1\n      0x0100\n      exp\n      swap1\n      div\n      0xff\n      and\n        /* \"token_eco_system_dev_contracts/contracts_ready_for_prod/TokenEcoSystemParticipationV1_0_flattened.sol\":30168:30181  !poolRateFeed */\n      iszero\n        /* \"token_eco_system_dev_contracts/contracts_ready_for_prod/TokenEcoSystemParticipationV1_0_flattened.sol\":30153:30165  poolRateFeed */\n      0x01\n      0x14\n        /* \"token_eco_system_dev_contracts/contracts_ready_for_prod/TokenEcoSystemParticipationV1_0_flattened.sol\":30153:30181  poolRateFeed = !poolRateFeed */\n      0x0100\n      exp\n      dup2\n      sload\n      dup2\n      0xff\n      mul\n      not\n      and\n      swap1\n      dup4\n      iszero\n      iszero\n      mul\n      or\n      swap1\n      sstore\n      pop\n        /* \"token_eco_system_dev_contracts/contracts_ready_for_prod/TokenEcoSystemParticipationV1_0_flattened.sol\":29716:30188  function changeRateFeed() public onlyOwner {... */\n      jump\t// out\n        /* \"token_eco_system_dev_contracts/contracts_ready_for_prod/TokenEcoSystemParticipationV1_0_flattened.sol\":31398:32635  function chargeContract(uint256 amount)... */\n    tag_125:\n        /* \"token_eco_system_dev_contracts/contracts_ready_for_prod/TokenEcoSystemParticipationV1_0_flattened.sol\":31590:31594  bool */\n      0x00\n        /* \"token_eco_system_dev_contracts/contracts_ready_for_prod/TokenEcoSystemParticipationV1_0_flattened.sol\":4746:4765  _requireNotPaused() */\n      tag_351\n        /* \"token_eco_system_dev_contracts/contracts_ready_for_prod/TokenEcoSystemParticipationV1_0_flattened.sol\":4746:4763  _requireNotPaused */\n      tag_163\n        /* \"token_eco_system_dev_contracts/contracts_ready_for_prod/TokenEcoSystemParticipationV1_0_flattened.sol\":4746:4765  _requireNotPaused() */\n      jump\t// in\n    tag_351:\n        /* \"token_eco_system_dev_contracts/contracts_ready_for_prod/TokenEcoSystemParticipationV1_0_flattened.sol\":27379:27380  0 */\n      0x00\n        /* \"token_eco_system_dev_contracts/contracts_ready_for_prod/TokenEcoSystemParticipationV1_0_flattened.sol\":27346:27381  acceptedSenderAddress != address(0) */\n      0xffffffffffffffffffffffffffffffffffffffff\n      and\n        /* \"token_eco_system_dev_contracts/contracts_ready_for_prod/TokenEcoSystemParticipationV1_0_flattened.sol\":27346:27367  acceptedSenderAddress */\n      0x01\n      0x00\n      swap1\n      sload\n      swap1\n      0x0100\n      exp\n      swap1\n      div\n      0xffffffffffffffffffffffffffffffffffffffff\n      and\n        /* \"token_eco_system_dev_contracts/contracts_ready_for_prod/TokenEcoSystemParticipationV1_0_flattened.sol\":27346:27381  acceptedSenderAddress != address(0) */\n      0xffffffffffffffffffffffffffffffffffffffff\n      and\n      sub\n        /* \"token_eco_system_dev_contracts/contracts_ready_for_prod/TokenEcoSystemParticipationV1_0_flattened.sol\":27338:27400  require(acceptedSenderAddress != address(0), \"Not activated!\") */\n      tag_353\n      jumpi\n      mload(0x40)\n      0x08c379a000000000000000000000000000000000000000000000000000000000\n      dup2\n      mstore\n      0x04\n      add\n      tag_354\n      swap1\n      tag_172\n      jump\t// in\n    tag_354:\n      mload(0x40)\n      dup1\n      swap2\n      sub\n      swap1\n      revert\n    tag_353:\n        /* \"token_eco_system_dev_contracts/contracts_ready_for_prod/TokenEcoSystemParticipationV1_0_flattened.sol\":27242:27263  acceptedSenderAddress */\n      0x01\n      0x00\n      swap1\n      sload\n      swap1\n      0x0100\n      exp\n      swap1\n      div\n      0xffffffffffffffffffffffffffffffffffffffff\n      and\n        /* \"token_eco_system_dev_contracts/contracts_ready_for_prod/TokenEcoSystemParticipationV1_0_flattened.sol\":27228:27263  msg.sender == acceptedSenderAddress */\n      0xffffffffffffffffffffffffffffffffffffffff\n      and\n        /* \"token_eco_system_dev_contracts/contracts_ready_for_prod/TokenEcoSystemParticipationV1_0_flattened.sol\":27228:27238  msg.sender */\n      caller\n        /* \"token_eco_system_dev_contracts/contracts_ready_for_prod/TokenEcoSystemParticipationV1_0_flattened.sol\":27228:27263  msg.sender == acceptedSenderAddress */\n      0xffffffffffffffffffffffffffffffffffffffff\n      and\n      eq\n        /* \"token_eco_system_dev_contracts/contracts_ready_for_prod/TokenEcoSystemParticipationV1_0_flattened.sol\":27220:27283  require(msg.sender == acceptedSenderAddress, \"Not Authorized!\") */\n      tag_356\n      jumpi\n      mload(0x40)\n      0x08c379a000000000000000000000000000000000000000000000000000000000\n      dup2\n      mstore\n      0x04\n      add\n      tag_357\n      swap1\n      tag_184\n      jump\t// in\n    tag_357:\n      mload(0x40)\n      dup1\n      swap2\n      sub\n      swap1\n      revert\n    tag_356:\n        /* \"token_eco_system_dev_contracts/contracts_ready_for_prod/TokenEcoSystemParticipationV1_0_flattened.sol\":31627:31628  0 */\n      0x00\n        /* \"token_eco_system_dev_contracts/contracts_ready_for_prod/TokenEcoSystemParticipationV1_0_flattened.sol\":31618:31624  amount */\n      dup3\n        /* \"token_eco_system_dev_contracts/contracts_ready_for_prod/TokenEcoSystemParticipationV1_0_flattened.sol\":31618:31628  amount > 0 */\n      gt\n        /* \"token_eco_system_dev_contracts/contracts_ready_for_prod/TokenEcoSystemParticipationV1_0_flattened.sol\":31610:31650  require(amount > 0, \"No charge amount!\") */\n      tag_359\n      jumpi\n      mload(0x40)\n      0x08c379a000000000000000000000000000000000000000000000000000000000\n      dup2\n      mstore\n      0x04\n      add\n      tag_360\n      swap1\n      tag_361\n      jump\t// in\n    tag_360:\n      mload(0x40)\n      dup1\n      swap2\n      sub\n      swap1\n      revert\n    tag_359:\n        /* \"token_eco_system_dev_contracts/contracts_ready_for_prod/TokenEcoSystemParticipationV1_0_flattened.sol\":31660:31677  uint256 allowance */\n      0x00\n        /* \"token_eco_system_dev_contracts/contracts_ready_for_prod/TokenEcoSystemParticipationV1_0_flattened.sol\":31680:31696  checkAllowance() */\n      tag_362\n        /* \"token_eco_system_dev_contracts/contracts_ready_for_prod/TokenEcoSystemParticipationV1_0_flattened.sol\":31680:31694  checkAllowance */\n      tag_91\n        /* \"token_eco_system_dev_contracts/contracts_ready_for_prod/TokenEcoSystemParticipationV1_0_flattened.sol\":31680:31696  checkAllowance() */\n      jump\t// in\n    tag_362:\n        /* \"token_eco_system_dev_contracts/contracts_ready_for_prod/TokenEcoSystemParticipationV1_0_flattened.sol\":31660:31696  uint256 allowance = checkAllowance() */\n      swap1\n      pop\n        /* \"token_eco_system_dev_contracts/contracts_ready_for_prod/TokenEcoSystemParticipationV1_0_flattened.sol\":31740:31746  amount */\n      dup3\n        /* \"token_eco_system_dev_contracts/contracts_ready_for_prod/TokenEcoSystemParticipationV1_0_flattened.sol\":31727:31736  allowance */\n      dup2\n        /* \"token_eco_system_dev_contracts/contracts_ready_for_prod/TokenEcoSystemParticipationV1_0_flattened.sol\":31727:31746  allowance >= amount */\n      lt\n      iszero\n        /* \"token_eco_system_dev_contracts/contracts_ready_for_prod/TokenEcoSystemParticipationV1_0_flattened.sol\":31788:31793  token */\n      immutable(\"0x474e8cbbfd90dba9df5fc054f99b290c4296483a721448990672feaba0c59d72\")\n        /* \"token_eco_system_dev_contracts/contracts_ready_for_prod/TokenEcoSystemParticipationV1_0_flattened.sol\":31788:31800  token.symbol */\n      0xffffffffffffffffffffffffffffffffffffffff\n      and\n      0x95d89b41\n        /* \"token_eco_system_dev_contracts/contracts_ready_for_prod/TokenEcoSystemParticipationV1_0_flattened.sol\":31788:31802  token.symbol() */\n      mload(0x40)\n      dup2\n      0xffffffff\n      and\n      0xe0\n      shl\n      dup2\n      mstore\n      0x04\n      add\n      0x00\n      mload(0x40)\n      dup1\n      dup4\n      sub\n      dup2\n      dup7\n      gas\n      staticcall\n      iszero\n      dup1\n      iszero\n      tag_364\n      jumpi\n      returndatasize\n      0x00\n      dup1\n      returndatacopy\n      revert(0x00, returndatasize)\n    tag_364:\n      pop\n      pop\n      pop\n      pop\n      mload(0x40)\n      returndatasize\n      0x00\n      dup3\n      returndatacopy\n      returndatasize\n      not(0x1f)\n      0x1f\n      dup3\n      add\n      and\n      dup3\n      add\n      dup1\n      0x40\n      mstore\n      pop\n      dup2\n      add\n      swap1\n      tag_365\n      swap2\n      swap1\n      tag_142\n      jump\t// in\n    tag_365:\n        /* \"token_eco_system_dev_contracts/contracts_ready_for_prod/TokenEcoSystemParticipationV1_0_flattened.sol\":31760:31828  string.concat(\"Check the \", token.symbol(), \" token \", \"allowance!\") */\n      add(0x20, mload(0x40))\n      tag_366\n      swap2\n      swap1\n      tag_367\n      jump\t// in\n    tag_366:\n      mload(0x40)\n      0x20\n      dup2\n      dup4\n      sub\n      sub\n      dup2\n      mstore\n      swap1\n      0x40\n      mstore\n        /* \"token_eco_system_dev_contracts/contracts_ready_for_prod/TokenEcoSystemParticipationV1_0_flattened.sol\":31706:31838  require(... */\n      swap1\n      tag_368\n      jumpi\n      mload(0x40)\n      0x08c379a000000000000000000000000000000000000000000000000000000000\n      dup2\n      mstore\n      0x04\n      add\n      tag_369\n      swap2\n      swap1\n      tag_119\n      jump\t// in\n    tag_369:\n      mload(0x40)\n      dup1\n      swap2\n      sub\n      swap1\n      revert\n    tag_368:\n      pop\n        /* \"token_eco_system_dev_contracts/contracts_ready_for_prod/TokenEcoSystemParticipationV1_0_flattened.sol\":31863:31875  uint256 rate */\n      0x00\n        /* \"token_eco_system_dev_contracts/contracts_ready_for_prod/TokenEcoSystemParticipationV1_0_flattened.sol\":31889:31905  uint256 decimals */\n      dup1\n        /* \"token_eco_system_dev_contracts/contracts_ready_for_prod/TokenEcoSystemParticipationV1_0_flattened.sol\":31919:31949  string memory chargeRateString */\n      0x00\n        /* \"token_eco_system_dev_contracts/contracts_ready_for_prod/TokenEcoSystemParticipationV1_0_flattened.sol\":31963:31985  uint256 chargeRateDate */\n      dup1\n        /* \"token_eco_system_dev_contracts/contracts_ready_for_prod/TokenEcoSystemParticipationV1_0_flattened.sol\":31998:32007  getRate() */\n      tag_370\n        /* \"token_eco_system_dev_contracts/contracts_ready_for_prod/TokenEcoSystemParticipationV1_0_flattened.sol\":31998:32005  getRate */\n      tag_371\n        /* \"token_eco_system_dev_contracts/contracts_ready_for_prod/TokenEcoSystemParticipationV1_0_flattened.sol\":31998:32007  getRate() */\n      jump\t// in\n    tag_370:\n        /* \"token_eco_system_dev_contracts/contracts_ready_for_prod/TokenEcoSystemParticipationV1_0_flattened.sol\":31849:32007  (... */\n      swap4\n      pop\n      swap4\n      pop\n      swap4\n      pop\n      swap4\n      pop\n        /* \"token_eco_system_dev_contracts/contracts_ready_for_prod/TokenEcoSystemParticipationV1_0_flattened.sol\":32032:32033  0 */\n      0x00\n        /* \"token_eco_system_dev_contracts/contracts_ready_for_prod/TokenEcoSystemParticipationV1_0_flattened.sol\":32025:32029  rate */\n      dup5\n        /* \"token_eco_system_dev_contracts/contracts_ready_for_prod/TokenEcoSystemParticipationV1_0_flattened.sol\":32025:32033  rate > 0 */\n      gt\n        /* \"token_eco_system_dev_contracts/contracts_ready_for_prod/TokenEcoSystemParticipationV1_0_flattened.sol\":32025:32049  rate > 0 && decimals > 0 */\n      dup1\n      iszero\n      tag_372\n      jumpi\n      pop\n        /* \"token_eco_system_dev_contracts/contracts_ready_for_prod/TokenEcoSystemParticipationV1_0_flattened.sol\":32048:32049  0 */\n      0x00\n        /* \"token_eco_system_dev_contracts/contracts_ready_for_prod/TokenEcoSystemParticipationV1_0_flattened.sol\":32037:32045  decimals */\n      dup4\n        /* \"token_eco_system_dev_contracts/contracts_ready_for_prod/TokenEcoSystemParticipationV1_0_flattened.sol\":32037:32049  decimals > 0 */\n      gt\n        /* \"token_eco_system_dev_contracts/contracts_ready_for_prod/TokenEcoSystemParticipationV1_0_flattened.sol\":32025:32049  rate > 0 && decimals > 0 */\n    tag_372:\n        /* \"token_eco_system_dev_contracts/contracts_ready_for_prod/TokenEcoSystemParticipationV1_0_flattened.sol\":32025:32071  rate > 0 && decimals > 0 && chargeRateDate > 0 */\n      dup1\n      iszero\n      tag_373\n      jumpi\n      pop\n        /* \"token_eco_system_dev_contracts/contracts_ready_for_prod/TokenEcoSystemParticipationV1_0_flattened.sol\":32070:32071  0 */\n      0x00\n        /* \"token_eco_system_dev_contracts/contracts_ready_for_prod/TokenEcoSystemParticipationV1_0_flattened.sol\":32053:32067  chargeRateDate */\n      dup2\n        /* \"token_eco_system_dev_contracts/contracts_ready_for_prod/TokenEcoSystemParticipationV1_0_flattened.sol\":32053:32071  chargeRateDate > 0 */\n      gt\n        /* \"token_eco_system_dev_contracts/contracts_ready_for_prod/TokenEcoSystemParticipationV1_0_flattened.sol\":32025:32071  rate > 0 && decimals > 0 && chargeRateDate > 0 */\n    tag_373:\n        /* \"token_eco_system_dev_contracts/contracts_ready_for_prod/TokenEcoSystemParticipationV1_0_flattened.sol\":32017:32087  require(rate > 0 && decimals > 0 && chargeRateDate > 0, \"rate error!\") */\n      tag_374\n      jumpi\n      mload(0x40)\n      0x08c379a000000000000000000000000000000000000000000000000000000000\n      dup2\n      mstore\n      0x04\n      add\n      tag_375\n      swap1\n      tag_376\n      jump\t// in\n    tag_375:\n      mload(0x40)\n      dup1\n      swap2\n      sub\n      swap1\n      revert\n    tag_374:\n        /* \"token_eco_system_dev_contracts/contracts_ready_for_prod/TokenEcoSystemParticipationV1_0_flattened.sol\":32097:32111  uint256 points */\n      0x00\n        /* \"token_eco_system_dev_contracts/contracts_ready_for_prod/TokenEcoSystemParticipationV1_0_flattened.sol\":32114:32153  calculatePoints(amount, rate, decimals) */\n      tag_377\n        /* \"token_eco_system_dev_contracts/contracts_ready_for_prod/TokenEcoSystemParticipationV1_0_flattened.sol\":32130:32136  amount */\n      dup9\n        /* \"token_eco_system_dev_contracts/contracts_ready_for_prod/TokenEcoSystemParticipationV1_0_flattened.sol\":32138:32142  rate */\n      dup7\n        /* \"token_eco_system_dev_contracts/contracts_ready_for_prod/TokenEcoSystemParticipationV1_0_flattened.sol\":32144:32152  decimals */\n      dup7\n        /* \"token_eco_system_dev_contracts/contracts_ready_for_prod/TokenEcoSystemParticipationV1_0_flattened.sol\":32114:32129  calculatePoints */\n      tag_378\n        /* \"token_eco_system_dev_contracts/contracts_ready_for_prod/TokenEcoSystemParticipationV1_0_flattened.sol\":32114:32153  calculatePoints(amount, rate, decimals) */\n      jump\t// in\n    tag_377:\n        /* \"token_eco_system_dev_contracts/contracts_ready_for_prod/TokenEcoSystemParticipationV1_0_flattened.sol\":32097:32153  uint256 points = calculatePoints(amount, rate, decimals) */\n      swap1\n      pop\n        /* \"token_eco_system_dev_contracts/contracts_ready_for_prod/TokenEcoSystemParticipationV1_0_flattened.sol\":32186:32192  points */\n      dup1\n        /* \"token_eco_system_dev_contracts/contracts_ready_for_prod/TokenEcoSystemParticipationV1_0_flattened.sol\":32163:32182  availableToWithdraw */\n      0x04\n      0x00\n        /* \"token_eco_system_dev_contracts/contracts_ready_for_prod/TokenEcoSystemParticipationV1_0_flattened.sol\":32163:32192  availableToWithdraw += points */\n      dup3\n      dup3\n      sload\n      tag_379\n      swap2\n      swap1\n      tag_151\n      jump\t// in\n    tag_379:\n      swap3\n      pop\n      pop\n      dup2\n      swap1\n      sstore\n      pop\n        /* \"token_eco_system_dev_contracts/contracts_ready_for_prod/TokenEcoSystemParticipationV1_0_flattened.sol\":32220:32226  points */\n      dup1\n        /* \"token_eco_system_dev_contracts/contracts_ready_for_prod/TokenEcoSystemParticipationV1_0_flattened.sol\":32202:32216  totalConverted */\n      0x03\n      0x00\n        /* \"token_eco_system_dev_contracts/contracts_ready_for_prod/TokenEcoSystemParticipationV1_0_flattened.sol\":32202:32226  totalConverted += points */\n      dup3\n      dup3\n      sload\n      tag_380\n      swap2\n      swap1\n      tag_151\n      jump\t// in\n    tag_380:\n      swap3\n      pop\n      pop\n      dup2\n      swap1\n      sstore\n      pop\n        /* \"token_eco_system_dev_contracts/contracts_ready_for_prod/TokenEcoSystemParticipationV1_0_flattened.sol\":32251:32257  amount */\n      dup8\n        /* \"token_eco_system_dev_contracts/contracts_ready_for_prod/TokenEcoSystemParticipationV1_0_flattened.sol\":32236:32247  totalBurned */\n      0x02\n      0x00\n        /* \"token_eco_system_dev_contracts/contracts_ready_for_prod/TokenEcoSystemParticipationV1_0_flattened.sol\":32236:32257  totalBurned += amount */\n      dup3\n      dup3\n      sload\n      tag_381\n      swap2\n      swap1\n      tag_151\n      jump\t// in\n    tag_381:\n      swap3\n      pop\n      pop\n      dup2\n      swap1\n      sstore\n      pop\n        /* \"token_eco_system_dev_contracts/contracts_ready_for_prod/TokenEcoSystemParticipationV1_0_flattened.sol\":32267:32285  uint256 chargeTime */\n      0x00\n        /* \"token_eco_system_dev_contracts/contracts_ready_for_prod/TokenEcoSystemParticipationV1_0_flattened.sol\":32288:32303  block.timestamp */\n      timestamp\n        /* \"token_eco_system_dev_contracts/contracts_ready_for_prod/TokenEcoSystemParticipationV1_0_flattened.sol\":32267:32303  uint256 chargeTime = block.timestamp */\n      swap1\n      pop\n        /* \"token_eco_system_dev_contracts/contracts_ready_for_prod/TokenEcoSystemParticipationV1_0_flattened.sol\":32484:32494  chargeTime */\n      dup1\n        /* \"token_eco_system_dev_contracts/contracts_ready_for_prod/TokenEcoSystemParticipationV1_0_flattened.sol\":32464:32470  amount */\n      dup10\n        /* \"token_eco_system_dev_contracts/contracts_ready_for_prod/TokenEcoSystemParticipationV1_0_flattened.sol\":32444:32450  points */\n      dup4\n        /* \"token_eco_system_dev_contracts/contracts_ready_for_prod/TokenEcoSystemParticipationV1_0_flattened.sol\":32318:32504  ChargeContract(... */\n      0xb5aeb7b225999adc33232be2121afb1a366c15108c1da745d17fd76108172fe4\n        /* \"token_eco_system_dev_contracts/contracts_ready_for_prod/TokenEcoSystemParticipationV1_0_flattened.sol\":32346:32350  rate */\n      dup10\n        /* \"token_eco_system_dev_contracts/contracts_ready_for_prod/TokenEcoSystemParticipationV1_0_flattened.sol\":32364:32372  decimals */\n      dup10\n        /* \"token_eco_system_dev_contracts/contracts_ready_for_prod/TokenEcoSystemParticipationV1_0_flattened.sol\":32386:32400  chargeRateDate */\n      dup9\n        /* \"token_eco_system_dev_contracts/contracts_ready_for_prod/TokenEcoSystemParticipationV1_0_flattened.sol\":32414:32430  chargeRateString */\n      dup11\n        /* \"token_eco_system_dev_contracts/contracts_ready_for_prod/TokenEcoSystemParticipationV1_0_flattened.sol\":32318:32504  ChargeContract(... */\n      mload(0x40)\n      tag_382\n      swap5\n      swap4\n      swap3\n      swap2\n      swap1\n      tag_383\n      jump\t// in\n    tag_382:\n      mload(0x40)\n      dup1\n      swap2\n      sub\n      swap1\n      log4\n        /* \"token_eco_system_dev_contracts/contracts_ready_for_prod/TokenEcoSystemParticipationV1_0_flattened.sol\":32514:32571  token.safeTransferFrom(msg.sender, address(this), amount) */\n      tag_384\n        /* \"token_eco_system_dev_contracts/contracts_ready_for_prod/TokenEcoSystemParticipationV1_0_flattened.sol\":32537:32547  msg.sender */\n      caller\n        /* \"token_eco_system_dev_contracts/contracts_ready_for_prod/TokenEcoSystemParticipationV1_0_flattened.sol\":32557:32561  this */\n      address\n        /* \"token_eco_system_dev_contracts/contracts_ready_for_prod/TokenEcoSystemParticipationV1_0_flattened.sol\":32564:32570  amount */\n      dup12\n        /* \"token_eco_system_dev_contracts/contracts_ready_for_prod/TokenEcoSystemParticipationV1_0_flattened.sol\":32514:32519  token */\n      immutable(\"0x474e8cbbfd90dba9df5fc054f99b290c4296483a721448990672feaba0c59d72\")\n        /* \"token_eco_system_dev_contracts/contracts_ready_for_prod/TokenEcoSystemParticipationV1_0_flattened.sol\":32514:32536  token.safeTransferFrom */\n      0xffffffffffffffffffffffffffffffffffffffff\n      and\n      tag_385\n      swap1\n        /* \"token_eco_system_dev_contracts/contracts_ready_for_prod/TokenEcoSystemParticipationV1_0_flattened.sol\":32514:32571  token.safeTransferFrom(msg.sender, address(this), amount) */\n      swap4\n      swap3\n      swap2\n      swap1\n      0xffffffff\n      and\n      jump\t// in\n    tag_384:\n        /* \"token_eco_system_dev_contracts/contracts_ready_for_prod/TokenEcoSystemParticipationV1_0_flattened.sol\":32581:32607  burnIncomingTokens(amount) */\n      tag_386\n        /* \"token_eco_system_dev_contracts/contracts_ready_for_prod/TokenEcoSystemParticipationV1_0_flattened.sol\":32600:32606  amount */\n      dup10\n        /* \"token_eco_system_dev_contracts/contracts_ready_for_prod/TokenEcoSystemParticipationV1_0_flattened.sol\":32581:32599  burnIncomingTokens */\n      tag_387\n        /* \"token_eco_system_dev_contracts/contracts_ready_for_prod/TokenEcoSystemParticipationV1_0_flattened.sol\":32581:32607  burnIncomingTokens(amount) */\n      jump\t// in\n    tag_386:\n      pop\n        /* \"token_eco_system_dev_contracts/contracts_ready_for_prod/TokenEcoSystemParticipationV1_0_flattened.sol\":32624:32628  true */\n      0x01\n        /* \"token_eco_system_dev_contracts/contracts_ready_for_prod/TokenEcoSystemParticipationV1_0_flattened.sol\":32617:32628  return true */\n      swap8\n      pop\n      pop\n      pop\n      pop\n      pop\n      pop\n      pop\n      pop\n        /* \"token_eco_system_dev_contracts/contracts_ready_for_prod/TokenEcoSystemParticipationV1_0_flattened.sol\":31398:32635  function chargeContract(uint256 amount)... */\n      swap2\n      swap1\n      pop\n      jump\t// out\n        /* \"token_eco_system_dev_contracts/contracts_ready_for_prod/TokenEcoSystemParticipationV1_0_flattened.sol\":2970:3168  function transferOwnership(address newOwner) public virtual onlyOwner {... */\n    tag_129:\n        /* \"token_eco_system_dev_contracts/contracts_ready_for_prod/TokenEcoSystemParticipationV1_0_flattened.sol\":1983:1996  _checkOwner() */\n      tag_389\n        /* \"token_eco_system_dev_contracts/contracts_ready_for_prod/TokenEcoSystemParticipationV1_0_flattened.sol\":1983:1994  _checkOwner */\n      tag_135\n        /* \"token_eco_system_dev_contracts/contracts_ready_for_prod/TokenEcoSystemParticipationV1_0_flattened.sol\":1983:1996  _checkOwner() */\n      jump\t// in\n    tag_389:\n        /* \"token_eco_system_dev_contracts/contracts_ready_for_prod/TokenEcoSystemParticipationV1_0_flattened.sol\":3078:3079  0 */\n      0x00\n        /* \"token_eco_system_dev_contracts/contracts_ready_for_prod/TokenEcoSystemParticipationV1_0_flattened.sol\":3058:3080  newOwner != address(0) */\n      0xffffffffffffffffffffffffffffffffffffffff\n      and\n        /* \"token_eco_system_dev_contracts/contracts_ready_for_prod/TokenEcoSystemParticipationV1_0_flattened.sol\":3058:3066  newOwner */\n      dup2\n        /* \"token_eco_system_dev_contracts/contracts_ready_for_prod/TokenEcoSystemParticipationV1_0_flattened.sol\":3058:3080  newOwner != address(0) */\n      0xffffffffffffffffffffffffffffffffffffffff\n      and\n      sub\n        /* \"token_eco_system_dev_contracts/contracts_ready_for_prod/TokenEcoSystemParticipationV1_0_flattened.sol\":3050:3123  require(newOwner != address(0), \"Ownable: new owner is the zero address\") */\n      tag_391\n      jumpi\n      mload(0x40)\n      0x08c379a000000000000000000000000000000000000000000000000000000000\n      dup2\n      mstore\n      0x04\n      add\n      tag_392\n      swap1\n      tag_393\n      jump\t// in\n    tag_392:\n      mload(0x40)\n      dup1\n      swap2\n      sub\n      swap1\n      revert\n    tag_391:\n        /* \"token_eco_system_dev_contracts/contracts_ready_for_prod/TokenEcoSystemParticipationV1_0_flattened.sol\":3133:3161  _transferOwnership(newOwner) */\n      tag_394\n        /* \"token_eco_system_dev_contracts/contracts_ready_for_prod/TokenEcoSystemParticipationV1_0_flattened.sol\":3152:3160  newOwner */\n      dup2\n        /* \"token_eco_system_dev_contracts/contracts_ready_for_prod/TokenEcoSystemParticipationV1_0_flattened.sol\":3133:3151  _transferOwnership */\n      tag_250\n        /* \"token_eco_system_dev_contracts/contracts_ready_for_prod/TokenEcoSystemParticipationV1_0_flattened.sol\":3133:3161  _transferOwnership(newOwner) */\n      jump\t// in\n    tag_394:\n        /* \"token_eco_system_dev_contracts/contracts_ready_for_prod/TokenEcoSystemParticipationV1_0_flattened.sol\":2970:3168  function transferOwnership(address newOwner) public virtual onlyOwner {... */\n      pop\n      jump\t// out\n        /* \"token_eco_system_dev_contracts/contracts_ready_for_prod/TokenEcoSystemParticipationV1_0_flattened.sol\":35162:35346  function getCurrentPointsBalance()... */\n    tag_131:\n        /* \"token_eco_system_dev_contracts/contracts_ready_for_prod/TokenEcoSystemParticipationV1_0_flattened.sol\":35290:35297  uint256 */\n      0x00\n        /* \"token_eco_system_dev_contracts/contracts_ready_for_prod/TokenEcoSystemParticipationV1_0_flattened.sol\":27379:27380  0 */\n      dup1\n        /* \"token_eco_system_dev_contracts/contracts_ready_for_prod/TokenEcoSystemParticipationV1_0_flattened.sol\":27346:27381  acceptedSenderAddress != address(0) */\n      0xffffffffffffffffffffffffffffffffffffffff\n      and\n        /* \"token_eco_system_dev_contracts/contracts_ready_for_prod/TokenEcoSystemParticipationV1_0_flattened.sol\":27346:27367  acceptedSenderAddress */\n      0x01\n      0x00\n      swap1\n      sload\n      swap1\n      0x0100\n      exp\n      swap1\n      div\n      0xffffffffffffffffffffffffffffffffffffffff\n      and\n        /* \"token_eco_system_dev_contracts/contracts_ready_for_prod/TokenEcoSystemParticipationV1_0_flattened.sol\":27346:27381  acceptedSenderAddress != address(0) */\n      0xffffffffffffffffffffffffffffffffffffffff\n      and\n      sub\n        /* \"token_eco_system_dev_contracts/contracts_ready_for_prod/TokenEcoSystemParticipationV1_0_flattened.sol\":27338:27400  require(acceptedSenderAddress != address(0), \"Not activated!\") */\n      tag_396\n      jumpi\n      mload(0x40)\n      0x08c379a000000000000000000000000000000000000000000000000000000000\n      dup2\n      mstore\n      0x04\n      add\n      tag_397\n      swap1\n      tag_172\n      jump\t// in\n    tag_397:\n      mload(0x40)\n      dup1\n      swap2\n      sub\n      swap1\n      revert\n    tag_396:\n        /* \"token_eco_system_dev_contracts/contracts_ready_for_prod/TokenEcoSystemParticipationV1_0_flattened.sol\":27503:27524  acceptedSenderAddress */\n      0x01\n      0x00\n      swap1\n      sload\n      swap1\n      0x0100\n      exp\n      swap1\n      div\n      0xffffffffffffffffffffffffffffffffffffffff\n      and\n        /* \"token_eco_system_dev_contracts/contracts_ready_for_prod/TokenEcoSystemParticipationV1_0_flattened.sol\":27489:27524  msg.sender == acceptedSenderAddress */\n      0xffffffffffffffffffffffffffffffffffffffff\n      and\n        /* \"token_eco_system_dev_contracts/contracts_ready_for_prod/TokenEcoSystemParticipationV1_0_flattened.sol\":27489:27499  msg.sender */\n      caller\n        /* \"token_eco_system_dev_contracts/contracts_ready_for_prod/TokenEcoSystemParticipationV1_0_flattened.sol\":27489:27524  msg.sender == acceptedSenderAddress */\n      0xffffffffffffffffffffffffffffffffffffffff\n      and\n      eq\n        /* \"token_eco_system_dev_contracts/contracts_ready_for_prod/TokenEcoSystemParticipationV1_0_flattened.sol\":27489:27549  msg.sender == acceptedSenderAddress || msg.sender == owner() */\n      dup1\n      tag_399\n      jumpi\n      pop\n        /* \"token_eco_system_dev_contracts/contracts_ready_for_prod/TokenEcoSystemParticipationV1_0_flattened.sol\":27542:27549  owner() */\n      tag_400\n        /* \"token_eco_system_dev_contracts/contracts_ready_for_prod/TokenEcoSystemParticipationV1_0_flattened.sol\":27542:27547  owner */\n      tag_88\n        /* \"token_eco_system_dev_contracts/contracts_ready_for_prod/TokenEcoSystemParticipationV1_0_flattened.sol\":27542:27549  owner() */\n      jump\t// in\n    tag_400:\n        /* \"token_eco_system_dev_contracts/contracts_ready_for_prod/TokenEcoSystemParticipationV1_0_flattened.sol\":27528:27549  msg.sender == owner() */\n      0xffffffffffffffffffffffffffffffffffffffff\n      and\n        /* \"token_eco_system_dev_contracts/contracts_ready_for_prod/TokenEcoSystemParticipationV1_0_flattened.sol\":27528:27538  msg.sender */\n      caller\n        /* \"token_eco_system_dev_contracts/contracts_ready_for_prod/TokenEcoSystemParticipationV1_0_flattened.sol\":27528:27549  msg.sender == owner() */\n      0xffffffffffffffffffffffffffffffffffffffff\n      and\n      eq\n        /* \"token_eco_system_dev_contracts/contracts_ready_for_prod/TokenEcoSystemParticipationV1_0_flattened.sol\":27489:27549  msg.sender == acceptedSenderAddress || msg.sender == owner() */\n    tag_399:\n        /* \"token_eco_system_dev_contracts/contracts_ready_for_prod/TokenEcoSystemParticipationV1_0_flattened.sol\":27467:27640  require(... */\n      tag_401\n      jumpi\n      mload(0x40)\n      0x08c379a000000000000000000000000000000000000000000000000000000000\n      dup2\n      mstore\n      0x04\n      add\n      tag_402\n      swap1\n      tag_208\n      jump\t// in\n    tag_402:\n      mload(0x40)\n      dup1\n      swap2\n      sub\n      swap1\n      revert\n    tag_401:\n        /* \"token_eco_system_dev_contracts/contracts_ready_for_prod/TokenEcoSystemParticipationV1_0_flattened.sol\":35320:35339  availableToWithdraw */\n      sload(0x04)\n        /* \"token_eco_system_dev_contracts/contracts_ready_for_prod/TokenEcoSystemParticipationV1_0_flattened.sol\":35313:35339  return availableToWithdraw */\n      swap1\n      pop\n        /* \"token_eco_system_dev_contracts/contracts_ready_for_prod/TokenEcoSystemParticipationV1_0_flattened.sol\":35162:35346  function getCurrentPointsBalance()... */\n      swap1\n      jump\t// out\n        /* \"token_eco_system_dev_contracts/contracts_ready_for_prod/TokenEcoSystemParticipationV1_0_flattened.sol\":2248:2378  function _checkOwner() internal view virtual {... */\n    tag_135:\n        /* \"token_eco_system_dev_contracts/contracts_ready_for_prod/TokenEcoSystemParticipationV1_0_flattened.sol\":2322:2334  _msgSender() */\n      tag_405\n        /* \"token_eco_system_dev_contracts/contracts_ready_for_prod/TokenEcoSystemParticipationV1_0_flattened.sol\":2322:2332  _msgSender */\n      tag_406\n        /* \"token_eco_system_dev_contracts/contracts_ready_for_prod/TokenEcoSystemParticipationV1_0_flattened.sol\":2322:2334  _msgSender() */\n      jump\t// in\n    tag_405:\n        /* \"token_eco_system_dev_contracts/contracts_ready_for_prod/TokenEcoSystemParticipationV1_0_flattened.sol\":2311:2334  owner() == _msgSender() */\n      0xffffffffffffffffffffffffffffffffffffffff\n      and\n        /* \"token_eco_system_dev_contracts/contracts_ready_for_prod/TokenEcoSystemParticipationV1_0_flattened.sol\":2311:2318  owner() */\n      tag_407\n        /* \"token_eco_system_dev_contracts/contracts_ready_for_prod/TokenEcoSystemParticipationV1_0_flattened.sol\":2311:2316  owner */\n      tag_88\n        /* \"token_eco_system_dev_contracts/contracts_ready_for_prod/TokenEcoSystemParticipationV1_0_flattened.sol\":2311:2318  owner() */\n      jump\t// in\n    tag_407:\n        /* \"token_eco_system_dev_contracts/contracts_ready_for_prod/TokenEcoSystemParticipationV1_0_flattened.sol\":2311:2334  owner() == _msgSender() */\n      0xffffffffffffffffffffffffffffffffffffffff\n      and\n      eq\n        /* \"token_eco_system_dev_contracts/contracts_ready_for_prod/TokenEcoSystemParticipationV1_0_flattened.sol\":2303:2371  require(owner() == _msgSender(), \"Ownable: caller is not the owner\") */\n      tag_408\n      jumpi\n      mload(0x40)\n      0x08c379a000000000000000000000000000000000000000000000000000000000\n      dup2\n      mstore\n      0x04\n      add\n      tag_409\n      swap1\n      tag_410\n      jump\t// in\n    tag_409:\n      mload(0x40)\n      dup1\n      swap2\n      sub\n      swap1\n      revert\n    tag_408:\n        /* \"token_eco_system_dev_contracts/contracts_ready_for_prod/TokenEcoSystemParticipationV1_0_flattened.sol\":2248:2378  function _checkOwner() internal view virtual {... */\n      jump\t// out\n        /* \"token_eco_system_dev_contracts/contracts_ready_for_prod/TokenEcoSystemParticipationV1_0_flattened.sol\":5452:5558  function _requirePaused() internal view virtual {... */\n    tag_155:\n        /* \"token_eco_system_dev_contracts/contracts_ready_for_prod/TokenEcoSystemParticipationV1_0_flattened.sol\":5518:5526  paused() */\n      tag_412\n        /* \"token_eco_system_dev_contracts/contracts_ready_for_prod/TokenEcoSystemParticipationV1_0_flattened.sol\":5518:5524  paused */\n      tag_69\n        /* \"token_eco_system_dev_contracts/contracts_ready_for_prod/TokenEcoSystemParticipationV1_0_flattened.sol\":5518:5526  paused() */\n      jump\t// in\n    tag_412:\n        /* \"token_eco_system_dev_contracts/contracts_ready_for_prod/TokenEcoSystemParticipationV1_0_flattened.sol\":5510:5551  require(paused(), \"Pausable: not paused\") */\n      tag_413\n      jumpi\n      mload(0x40)\n      0x08c379a000000000000000000000000000000000000000000000000000000000\n      dup2\n      mstore\n      0x04\n      add\n      tag_414\n      swap1\n      tag_415\n      jump\t// in\n    tag_414:\n      mload(0x40)\n      dup1\n      swap2\n      sub\n      swap1\n      revert\n    tag_413:\n        /* \"token_eco_system_dev_contracts/contracts_ready_for_prod/TokenEcoSystemParticipationV1_0_flattened.sol\":5452:5558  function _requirePaused() internal view virtual {... */\n      jump\t// out\n        /* \"token_eco_system_dev_contracts/contracts_ready_for_prod/TokenEcoSystemParticipationV1_0_flattened.sol\":5940:6057  function _unpause() internal virtual whenPaused {... */\n    tag_160:\n        /* \"token_eco_system_dev_contracts/contracts_ready_for_prod/TokenEcoSystemParticipationV1_0_flattened.sol\":4993:5009  _requirePaused() */\n      tag_417\n        /* \"token_eco_system_dev_contracts/contracts_ready_for_prod/TokenEcoSystemParticipationV1_0_flattened.sol\":4993:5007  _requirePaused */\n      tag_155\n        /* \"token_eco_system_dev_contracts/contracts_ready_for_prod/TokenEcoSystemParticipationV1_0_flattened.sol\":4993:5009  _requirePaused() */\n      jump\t// in\n    tag_417:\n        /* \"token_eco_system_dev_contracts/contracts_ready_for_prod/TokenEcoSystemParticipationV1_0_flattened.sol\":6008:6013  false */\n      0x00\n        /* \"token_eco_system_dev_contracts/contracts_ready_for_prod/TokenEcoSystemParticipationV1_0_flattened.sol\":5998:6005  _paused */\n      dup1\n      0x00\n        /* \"token_eco_system_dev_contracts/contracts_ready_for_prod/TokenEcoSystemParticipationV1_0_flattened.sol\":5998:6013  _paused = false */\n      0x0100\n      exp\n      dup2\n      sload\n      dup2\n      0xff\n      mul\n      not\n      and\n      swap1\n      dup4\n      iszero\n      iszero\n      mul\n      or\n      swap1\n      sstore\n      pop\n        /* \"token_eco_system_dev_contracts/contracts_ready_for_prod/TokenEcoSystemParticipationV1_0_flattened.sol\":6028:6050  Unpaused(_msgSender()) */\n      0x5db9ee0a495bf2e6ff9c91a7834c1ba4fdd244a5e8aa4e537bd38aeae4b073aa\n        /* \"token_eco_system_dev_contracts/contracts_ready_for_prod/TokenEcoSystemParticipationV1_0_flattened.sol\":6037:6049  _msgSender() */\n      tag_419\n        /* \"token_eco_system_dev_contracts/contracts_ready_for_prod/TokenEcoSystemParticipationV1_0_flattened.sol\":6037:6047  _msgSender */\n      tag_406\n        /* \"token_eco_system_dev_contracts/contracts_ready_for_prod/TokenEcoSystemParticipationV1_0_flattened.sol\":6037:6049  _msgSender() */\n      jump\t// in\n    tag_419:\n        /* \"token_eco_system_dev_contracts/contracts_ready_for_prod/TokenEcoSystemParticipationV1_0_flattened.sol\":6028:6050  Unpaused(_msgSender()) */\n      mload(0x40)\n      tag_420\n      swap2\n      swap1\n      tag_50\n      jump\t// in\n    tag_420:\n      mload(0x40)\n      dup1\n      swap2\n      sub\n      swap1\n      log1\n        /* \"token_eco_system_dev_contracts/contracts_ready_for_prod/TokenEcoSystemParticipationV1_0_flattened.sol\":5940:6057  function _unpause() internal virtual whenPaused {... */\n      jump\t// out\n        /* \"token_eco_system_dev_contracts/contracts_ready_for_prod/TokenEcoSystemParticipationV1_0_flattened.sol\":5274:5380  function _requireNotPaused() internal view virtual {... */\n    tag_163:\n        /* \"token_eco_system_dev_contracts/contracts_ready_for_prod/TokenEcoSystemParticipationV1_0_flattened.sol\":5344:5352  paused() */\n      tag_422\n        /* \"token_eco_system_dev_contracts/contracts_ready_for_prod/TokenEcoSystemParticipationV1_0_flattened.sol\":5344:5350  paused */\n      tag_69\n        /* \"token_eco_system_dev_contracts/contracts_ready_for_prod/TokenEcoSystemParticipationV1_0_flattened.sol\":5344:5352  paused() */\n      jump\t// in\n    tag_422:\n        /* \"token_eco_system_dev_contracts/contracts_ready_for_prod/TokenEcoSystemParticipationV1_0_flattened.sol\":5343:5352  !paused() */\n      iszero\n        /* \"token_eco_system_dev_contracts/contracts_ready_for_prod/TokenEcoSystemParticipationV1_0_flattened.sol\":5335:5373  require(!paused(), \"Pausable: paused\") */\n      tag_423\n      jumpi\n      mload(0x40)\n      0x08c379a000000000000000000000000000000000000000000000000000000000\n      dup2\n      mstore\n      0x04\n      add\n      tag_424\n      swap1\n      tag_425\n      jump\t// in\n    tag_424:\n      mload(0x40)\n      dup1\n      swap2\n      sub\n      swap1\n      revert\n    tag_423:\n        /* \"token_eco_system_dev_contracts/contracts_ready_for_prod/TokenEcoSystemParticipationV1_0_flattened.sol\":5274:5380  function _requireNotPaused() internal view virtual {... */\n      jump\t// out\n        /* \"token_eco_system_dev_contracts/contracts_ready_for_prod/TokenEcoSystemParticipationV1_0_flattened.sol\":5693:5808  function _pause() internal virtual whenNotPaused {... */\n    tag_168:\n        /* \"token_eco_system_dev_contracts/contracts_ready_for_prod/TokenEcoSystemParticipationV1_0_flattened.sol\":4746:4765  _requireNotPaused() */\n      tag_427\n        /* \"token_eco_system_dev_contracts/contracts_ready_for_prod/TokenEcoSystemParticipationV1_0_flattened.sol\":4746:4763  _requireNotPaused */\n      tag_163\n        /* \"token_eco_system_dev_contracts/contracts_ready_for_prod/TokenEcoSystemParticipationV1_0_flattened.sol\":4746:4765  _requireNotPaused() */\n      jump\t// in\n    tag_427:\n        /* \"token_eco_system_dev_contracts/contracts_ready_for_prod/TokenEcoSystemParticipationV1_0_flattened.sol\":5762:5766  true */\n      0x01\n        /* \"token_eco_system_dev_contracts/contracts_ready_for_prod/TokenEcoSystemParticipationV1_0_flattened.sol\":5752:5759  _paused */\n      0x00\n      dup1\n        /* \"token_eco_system_dev_contracts/contracts_ready_for_prod/TokenEcoSystemParticipationV1_0_flattened.sol\":5752:5766  _paused = true */\n      0x0100\n      exp\n      dup2\n      sload\n      dup2\n      0xff\n      mul\n      not\n      and\n      swap1\n      dup4\n      iszero\n      iszero\n      mul\n      or\n      swap1\n      sstore\n      pop\n        /* \"token_eco_system_dev_contracts/contracts_ready_for_prod/TokenEcoSystemParticipationV1_0_flattened.sol\":5781:5801  Paused(_msgSender()) */\n      0x62e78cea01bee320cd4e420270b5ea74000d11b0c9f74754ebdbfc544b05a258\n        /* \"token_eco_system_dev_contracts/contracts_ready_for_prod/TokenEcoSystemParticipationV1_0_flattened.sol\":5788:5800  _msgSender() */\n      tag_429\n        /* \"token_eco_system_dev_contracts/contracts_ready_for_prod/TokenEcoSystemParticipationV1_0_flattened.sol\":5788:5798  _msgSender */\n      tag_406\n        /* \"token_eco_system_dev_contracts/contracts_ready_for_prod/TokenEcoSystemParticipationV1_0_flattened.sol\":5788:5800  _msgSender() */\n      jump\t// in\n    tag_429:\n        /* \"token_eco_system_dev_contracts/contracts_ready_for_prod/TokenEcoSystemParticipationV1_0_flattened.sol\":5781:5801  Paused(_msgSender()) */\n      mload(0x40)\n      tag_430\n      swap2\n      swap1\n      tag_50\n      jump\t// in\n    tag_430:\n      mload(0x40)\n      dup1\n      swap2\n      sub\n      swap1\n      log1\n        /* \"token_eco_system_dev_contracts/contracts_ready_for_prod/TokenEcoSystemParticipationV1_0_flattened.sol\":5693:5808  function _pause() internal virtual whenNotPaused {... */\n      jump\t// out\n        /* \"token_eco_system_dev_contracts/contracts_ready_for_prod/TokenEcoSystemParticipationV1_0_flattened.sol\":3322:3509  function _transferOwnership(address newOwner) internal virtual {... */\n    tag_250:\n        /* \"token_eco_system_dev_contracts/contracts_ready_for_prod/TokenEcoSystemParticipationV1_0_flattened.sol\":3395:3411  address oldOwner */\n      0x00\n        /* \"token_eco_system_dev_contracts/contracts_ready_for_prod/TokenEcoSystemParticipationV1_0_flattened.sol\":3414:3420  _owner */\n      dup1\n      0x01\n      swap1\n      sload\n      swap1\n      0x0100\n      exp\n      swap1\n      div\n      0xffffffffffffffffffffffffffffffffffffffff\n      and\n        /* \"token_eco_system_dev_contracts/contracts_ready_for_prod/TokenEcoSystemParticipationV1_0_flattened.sol\":3395:3420  address oldOwner = _owner */\n      swap1\n      pop\n        /* \"token_eco_system_dev_contracts/contracts_ready_for_prod/TokenEcoSystemParticipationV1_0_flattened.sol\":3439:3447  newOwner */\n      dup2\n        /* \"token_eco_system_dev_contracts/contracts_ready_for_prod/TokenEcoSystemParticipationV1_0_flattened.sol\":3430:3436  _owner */\n      0x00\n      0x01\n        /* \"token_eco_system_dev_contracts/contracts_ready_for_prod/TokenEcoSystemParticipationV1_0_flattened.sol\":3430:3447  _owner = newOwner */\n      0x0100\n      exp\n      dup2\n      sload\n      dup2\n      0xffffffffffffffffffffffffffffffffffffffff\n      mul\n      not\n      and\n      swap1\n      dup4\n      0xffffffffffffffffffffffffffffffffffffffff\n      and\n      mul\n      or\n      swap1\n      sstore\n      pop\n        /* \"token_eco_system_dev_contracts/contracts_ready_for_prod/TokenEcoSystemParticipationV1_0_flattened.sol\":3493:3501  newOwner */\n      dup2\n        /* \"token_eco_system_dev_contracts/contracts_ready_for_prod/TokenEcoSystemParticipationV1_0_flattened.sol\":3462:3502  OwnershipTransferred(oldOwner, newOwner) */\n      0xffffffffffffffffffffffffffffffffffffffff\n      and\n        /* \"token_eco_system_dev_contracts/contracts_ready_for_prod/TokenEcoSystemParticipationV1_0_flattened.sol\":3483:3491  oldOwner */\n      dup2\n        /* \"token_eco_system_dev_contracts/contracts_ready_for_prod/TokenEcoSystemParticipationV1_0_flattened.sol\":3462:3502  OwnershipTransferred(oldOwner, newOwner) */\n      0xffffffffffffffffffffffffffffffffffffffff\n      and\n      0x8be0079c531659141344cd1fd0a4f28419497f9722a3daafe3b4186f6b6457e0\n      mload(0x40)\n      mload(0x40)\n      dup1\n      swap2\n      sub\n      swap1\n      log3\n        /* \"token_eco_system_dev_contracts/contracts_ready_for_prod/TokenEcoSystemParticipationV1_0_flattened.sol\":3385:3509  {... */\n      pop\n        /* \"token_eco_system_dev_contracts/contracts_ready_for_prod/TokenEcoSystemParticipationV1_0_flattened.sol\":3322:3509  function _transferOwnership(address newOwner) internal virtual {... */\n      pop\n      jump\t// out\n        /* \"token_eco_system_dev_contracts/contracts_ready_for_prod/TokenEcoSystemParticipationV1_0_flattened.sol\":36337:37262  function getRate()... */\n    tag_371:\n        /* \"token_eco_system_dev_contracts/contracts_ready_for_prod/TokenEcoSystemParticipationV1_0_flattened.sol\":36402:36409  uint256 */\n      0x00\n        /* \"token_eco_system_dev_contracts/contracts_ready_for_prod/TokenEcoSystemParticipationV1_0_flattened.sol\":36423:36430  uint256 */\n      dup1\n        /* \"token_eco_system_dev_contracts/contracts_ready_for_prod/TokenEcoSystemParticipationV1_0_flattened.sol\":36444:36457  string memory */\n      0x60\n        /* \"token_eco_system_dev_contracts/contracts_ready_for_prod/TokenEcoSystemParticipationV1_0_flattened.sol\":36471:36478  uint256 */\n      0x00\n        /* \"token_eco_system_dev_contracts/contracts_ready_for_prod/TokenEcoSystemParticipationV1_0_flattened.sol\":36507:36519  poolRateFeed */\n      0x01\n      0x14\n      swap1\n      sload\n      swap1\n      0x0100\n      exp\n      swap1\n      div\n      0xff\n      and\n        /* \"token_eco_system_dev_contracts/contracts_ready_for_prod/TokenEcoSystemParticipationV1_0_flattened.sol\":36503:36878  if (poolRateFeed) {... */\n      iszero\n      tag_433\n      jumpi\n        /* \"token_eco_system_dev_contracts/contracts_ready_for_prod/TokenEcoSystemParticipationV1_0_flattened.sol\":36560:36572  poolRateFeed */\n      0x01\n      0x14\n      swap1\n      sload\n      swap1\n      0x0100\n      exp\n      swap1\n      div\n      0xff\n      and\n        /* \"token_eco_system_dev_contracts/contracts_ready_for_prod/TokenEcoSystemParticipationV1_0_flattened.sol\":36560:36613  poolRateFeed && (address(poolConsumer) != address(0)) */\n      dup1\n      iszero\n      tag_434\n      jumpi\n      pop\n        /* \"token_eco_system_dev_contracts/contracts_ready_for_prod/TokenEcoSystemParticipationV1_0_flattened.sol\":36610:36611  0 */\n      0x00\n        /* \"token_eco_system_dev_contracts/contracts_ready_for_prod/TokenEcoSystemParticipationV1_0_flattened.sol\":36577:36612  address(poolConsumer) != address(0) */\n      0xffffffffffffffffffffffffffffffffffffffff\n      and\n        /* \"token_eco_system_dev_contracts/contracts_ready_for_prod/TokenEcoSystemParticipationV1_0_flattened.sol\":36585:36597  poolConsumer */\n      0x07\n      0x00\n      swap1\n      sload\n      swap1\n      0x0100\n      exp\n      swap1\n      div\n      0xffffffffffffffffffffffffffffffffffffffff\n      and\n        /* \"token_eco_system_dev_contracts/contracts_ready_for_prod/TokenEcoSystemParticipationV1_0_flattened.sol\":36577:36612  address(poolConsumer) != address(0) */\n      0xffffffffffffffffffffffffffffffffffffffff\n      and\n      eq\n      iszero\n        /* \"token_eco_system_dev_contracts/contracts_ready_for_prod/TokenEcoSystemParticipationV1_0_flattened.sol\":36560:36613  poolRateFeed && (address(poolConsumer) != address(0)) */\n    tag_434:\n        /* \"token_eco_system_dev_contracts/contracts_ready_for_prod/TokenEcoSystemParticipationV1_0_flattened.sol\":36535:36679  require(... */\n      tag_435\n      jumpi\n      mload(0x40)\n      0x08c379a000000000000000000000000000000000000000000000000000000000\n      dup2\n      mstore\n      0x04\n      add\n      tag_436\n      swap1\n      tag_349\n      jump\t// in\n    tag_436:\n      mload(0x40)\n      dup1\n      swap2\n      sub\n      swap1\n      revert\n    tag_435:\n        /* \"token_eco_system_dev_contracts/contracts_ready_for_prod/TokenEcoSystemParticipationV1_0_flattened.sol\":36503:36878  if (poolRateFeed) {... */\n      jump(tag_437)\n    tag_433:\n        /* \"token_eco_system_dev_contracts/contracts_ready_for_prod/TokenEcoSystemParticipationV1_0_flattened.sol\":36736:36748  poolRateFeed */\n      0x01\n      0x14\n      swap1\n      sload\n      swap1\n      0x0100\n      exp\n      swap1\n      div\n      0xff\n      and\n        /* \"token_eco_system_dev_contracts/contracts_ready_for_prod/TokenEcoSystemParticipationV1_0_flattened.sol\":36735:36748  !poolRateFeed */\n      iszero\n        /* \"token_eco_system_dev_contracts/contracts_ready_for_prod/TokenEcoSystemParticipationV1_0_flattened.sol\":36735:36795  !poolRateFeed && (address(aggregatorConsumer) != address(0)) */\n      dup1\n      iszero\n      tag_438\n      jumpi\n      pop\n        /* \"token_eco_system_dev_contracts/contracts_ready_for_prod/TokenEcoSystemParticipationV1_0_flattened.sol\":36792:36793  0 */\n      0x00\n        /* \"token_eco_system_dev_contracts/contracts_ready_for_prod/TokenEcoSystemParticipationV1_0_flattened.sol\":36753:36794  address(aggregatorConsumer) != address(0) */\n      0xffffffffffffffffffffffffffffffffffffffff\n      and\n        /* \"token_eco_system_dev_contracts/contracts_ready_for_prod/TokenEcoSystemParticipationV1_0_flattened.sol\":36761:36779  aggregatorConsumer */\n      0x06\n      0x00\n      swap1\n      sload\n      swap1\n      0x0100\n      exp\n      swap1\n      div\n      0xffffffffffffffffffffffffffffffffffffffff\n      and\n        /* \"token_eco_system_dev_contracts/contracts_ready_for_prod/TokenEcoSystemParticipationV1_0_flattened.sol\":36753:36794  address(aggregatorConsumer) != address(0) */\n      0xffffffffffffffffffffffffffffffffffffffff\n      and\n      eq\n      iszero\n        /* \"token_eco_system_dev_contracts/contracts_ready_for_prod/TokenEcoSystemParticipationV1_0_flattened.sol\":36735:36795  !poolRateFeed && (address(aggregatorConsumer) != address(0)) */\n    tag_438:\n        /* \"token_eco_system_dev_contracts/contracts_ready_for_prod/TokenEcoSystemParticipationV1_0_flattened.sol\":36710:36867  require(... */\n      tag_439\n      jumpi\n      mload(0x40)\n      0x08c379a000000000000000000000000000000000000000000000000000000000\n      dup2\n      mstore\n      0x04\n      add\n      tag_440\n      swap1\n      tag_344\n      jump\t// in\n    tag_440:\n      mload(0x40)\n      dup1\n      swap2\n      sub\n      swap1\n      revert\n    tag_439:\n        /* \"token_eco_system_dev_contracts/contracts_ready_for_prod/TokenEcoSystemParticipationV1_0_flattened.sol\":36503:36878  if (poolRateFeed) {... */\n    tag_437:\n        /* \"token_eco_system_dev_contracts/contracts_ready_for_prod/TokenEcoSystemParticipationV1_0_flattened.sol\":36902:36914  uint256 rate */\n      0x00\n        /* \"token_eco_system_dev_contracts/contracts_ready_for_prod/TokenEcoSystemParticipationV1_0_flattened.sol\":36928:36944  uint256 decimals */\n      dup1\n        /* \"token_eco_system_dev_contracts/contracts_ready_for_prod/TokenEcoSystemParticipationV1_0_flattened.sol\":36958:36982  string memory rateString */\n      0x00\n        /* \"token_eco_system_dev_contracts/contracts_ready_for_prod/TokenEcoSystemParticipationV1_0_flattened.sol\":36996:37008  uint256 date */\n      dup1\n        /* \"token_eco_system_dev_contracts/contracts_ready_for_prod/TokenEcoSystemParticipationV1_0_flattened.sol\":37022:37034  poolRateFeed */\n      0x01\n      0x14\n      swap1\n      sload\n      swap1\n      0x0100\n      exp\n      swap1\n      div\n      0xff\n      and\n        /* \"token_eco_system_dev_contracts/contracts_ready_for_prod/TokenEcoSystemParticipationV1_0_flattened.sol\":37021:37034  !poolRateFeed */\n      iszero\n        /* \"token_eco_system_dev_contracts/contracts_ready_for_prod/TokenEcoSystemParticipationV1_0_flattened.sol\":37021:37129  !poolRateFeed... */\n      tag_441\n      jumpi\n        /* \"token_eco_system_dev_contracts/contracts_ready_for_prod/TokenEcoSystemParticipationV1_0_flattened.sol\":37106:37118  poolConsumer */\n      0x07\n      0x00\n      swap1\n      sload\n      swap1\n      0x0100\n      exp\n      swap1\n      div\n      0xffffffffffffffffffffffffffffffffffffffff\n      and\n        /* \"token_eco_system_dev_contracts/contracts_ready_for_prod/TokenEcoSystemParticipationV1_0_flattened.sol\":37106:37127  poolConsumer.poolRate */\n      0xffffffffffffffffffffffffffffffffffffffff\n      and\n      0x85096edc\n        /* \"token_eco_system_dev_contracts/contracts_ready_for_prod/TokenEcoSystemParticipationV1_0_flattened.sol\":37106:37129  poolConsumer.poolRate() */\n      mload(0x40)\n      dup2\n      0xffffffff\n      and\n      0xe0\n      shl\n      dup2\n      mstore\n      0x04\n      add\n      0x00\n      mload(0x40)\n      dup1\n      dup4\n      sub\n      dup2\n      0x00\n      dup8\n      gas\n      call\n      iszero\n      dup1\n      iszero\n      tag_443\n      jumpi\n      returndatasize\n      0x00\n      dup1\n      returndatacopy\n      revert(0x00, returndatasize)\n    tag_443:\n      pop\n      pop\n      pop\n      pop\n      mload(0x40)\n      returndatasize\n      0x00\n      dup3\n      returndatacopy\n      returndatasize\n      not(0x1f)\n      0x1f\n      dup3\n      add\n      and\n      dup3\n      add\n      dup1\n      0x40\n      mstore\n      pop\n      dup2\n      add\n      swap1\n      tag_444\n      swap2\n      swap1\n      tag_445\n      jump\t// in\n    tag_444:\n        /* \"token_eco_system_dev_contracts/contracts_ready_for_prod/TokenEcoSystemParticipationV1_0_flattened.sol\":37021:37129  !poolRateFeed... */\n      jump(tag_446)\n    tag_441:\n        /* \"token_eco_system_dev_contracts/contracts_ready_for_prod/TokenEcoSystemParticipationV1_0_flattened.sol\":37053:37071  aggregatorConsumer */\n      0x06\n      0x00\n      swap1\n      sload\n      swap1\n      0x0100\n      exp\n      swap1\n      div\n      0xffffffffffffffffffffffffffffffffffffffff\n      and\n        /* \"token_eco_system_dev_contracts/contracts_ready_for_prod/TokenEcoSystemParticipationV1_0_flattened.sol\":37053:37085  aggregatorConsumer.getLatestRate */\n      0xffffffffffffffffffffffffffffffffffffffff\n      and\n      0xe1e7ff77\n        /* \"token_eco_system_dev_contracts/contracts_ready_for_prod/TokenEcoSystemParticipationV1_0_flattened.sol\":37053:37087  aggregatorConsumer.getLatestRate() */\n      mload(0x40)\n      dup2\n      0xffffffff\n      and\n      0xe0\n      shl\n      dup2\n      mstore\n      0x04\n      add\n      0x00\n      mload(0x40)\n      dup1\n      dup4\n      sub\n      dup2\n      0x00\n      dup8\n      gas\n      call\n      iszero\n      dup1\n      iszero\n      tag_448\n      jumpi\n      returndatasize\n      0x00\n      dup1\n      returndatacopy\n      revert(0x00, returndatasize)\n    tag_448:\n      pop\n      pop\n      pop\n      pop\n      mload(0x40)\n      returndatasize\n      0x00\n      dup3\n      returndatacopy\n      returndatasize\n      not(0x1f)\n      0x1f\n      dup3\n      add\n      and\n      dup3\n      add\n      dup1\n      0x40\n      mstore\n      pop\n      dup2\n      add\n      swap1\n      tag_449\n      swap2\n      swap1\n      tag_445\n      jump\t// in\n    tag_449:\n        /* \"token_eco_system_dev_contracts/contracts_ready_for_prod/TokenEcoSystemParticipationV1_0_flattened.sol\":37021:37129  !poolRateFeed... */\n    tag_446:\n        /* \"token_eco_system_dev_contracts/contracts_ready_for_prod/TokenEcoSystemParticipationV1_0_flattened.sol\":36888:37129  (... */\n      swap4\n      pop\n      swap4\n      pop\n      swap4\n      pop\n      swap4\n      pop\n        /* \"token_eco_system_dev_contracts/contracts_ready_for_prod/TokenEcoSystemParticipationV1_0_flattened.sol\":37144:37204  GetRate(rate, decimals, rateString, date, currentRateFeed()) */\n      0xf533c7ebcab9ca95557310f62aa7ad41d3a6b17aebec7762b994ef1a14863865\n        /* \"token_eco_system_dev_contracts/contracts_ready_for_prod/TokenEcoSystemParticipationV1_0_flattened.sol\":37152:37156  rate */\n      dup5\n        /* \"token_eco_system_dev_contracts/contracts_ready_for_prod/TokenEcoSystemParticipationV1_0_flattened.sol\":37158:37166  decimals */\n      dup5\n        /* \"token_eco_system_dev_contracts/contracts_ready_for_prod/TokenEcoSystemParticipationV1_0_flattened.sol\":37168:37178  rateString */\n      dup5\n        /* \"token_eco_system_dev_contracts/contracts_ready_for_prod/TokenEcoSystemParticipationV1_0_flattened.sol\":37180:37184  date */\n      dup5\n        /* \"token_eco_system_dev_contracts/contracts_ready_for_prod/TokenEcoSystemParticipationV1_0_flattened.sol\":37186:37203  currentRateFeed() */\n      tag_450\n        /* \"token_eco_system_dev_contracts/contracts_ready_for_prod/TokenEcoSystemParticipationV1_0_flattened.sol\":37186:37201  currentRateFeed */\n      tag_117\n        /* \"token_eco_system_dev_contracts/contracts_ready_for_prod/TokenEcoSystemParticipationV1_0_flattened.sol\":37186:37203  currentRateFeed() */\n      jump\t// in\n    tag_450:\n        /* \"token_eco_system_dev_contracts/contracts_ready_for_prod/TokenEcoSystemParticipationV1_0_flattened.sol\":37144:37204  GetRate(rate, decimals, rateString, date, currentRateFeed()) */\n      mload(0x40)\n      tag_451\n      swap6\n      swap5\n      swap4\n      swap3\n      swap2\n      swap1\n      tag_452\n      jump\t// in\n    tag_451:\n      mload(0x40)\n      dup1\n      swap2\n      sub\n      swap1\n      log1\n        /* \"token_eco_system_dev_contracts/contracts_ready_for_prod/TokenEcoSystemParticipationV1_0_flattened.sol\":37222:37226  rate */\n      dup4\n        /* \"token_eco_system_dev_contracts/contracts_ready_for_prod/TokenEcoSystemParticipationV1_0_flattened.sol\":37228:37236  decimals */\n      dup4\n        /* \"token_eco_system_dev_contracts/contracts_ready_for_prod/TokenEcoSystemParticipationV1_0_flattened.sol\":37238:37248  rateString */\n      dup4\n        /* \"token_eco_system_dev_contracts/contracts_ready_for_prod/TokenEcoSystemParticipationV1_0_flattened.sol\":37250:37254  date */\n      dup4\n        /* \"token_eco_system_dev_contracts/contracts_ready_for_prod/TokenEcoSystemParticipationV1_0_flattened.sol\":37214:37255  return (rate, decimals, rateString, date) */\n      swap8\n      pop\n      swap8\n      pop\n      swap8\n      pop\n      swap8\n      pop\n      pop\n      pop\n      pop\n      pop\n        /* \"token_eco_system_dev_contracts/contracts_ready_for_prod/TokenEcoSystemParticipationV1_0_flattened.sol\":36337:37262  function getRate()... */\n      swap1\n      swap2\n      swap3\n      swap4\n      jump\t// out\n        /* \"token_eco_system_dev_contracts/contracts_ready_for_prod/TokenEcoSystemParticipationV1_0_flattened.sol\":37331:37519  function calculatePoints(... */\n    tag_378:\n        /* \"token_eco_system_dev_contracts/contracts_ready_for_prod/TokenEcoSystemParticipationV1_0_flattened.sol\":37456:37463  uint256 */\n      0x00\n        /* \"token_eco_system_dev_contracts/contracts_ready_for_prod/TokenEcoSystemParticipationV1_0_flattened.sol\":37504:37512  decimals */\n      dup2\n        /* \"token_eco_system_dev_contracts/contracts_ready_for_prod/TokenEcoSystemParticipationV1_0_flattened.sol\":37500:37502  10 */\n      0x0a\n        /* \"token_eco_system_dev_contracts/contracts_ready_for_prod/TokenEcoSystemParticipationV1_0_flattened.sol\":37500:37512  10**decimals */\n      tag_454\n      swap2\n      swap1\n      tag_271\n      jump\t// in\n    tag_454:\n        /* \"token_eco_system_dev_contracts/contracts_ready_for_prod/TokenEcoSystemParticipationV1_0_flattened.sol\":37492:37496  rate */\n      dup4\n        /* \"token_eco_system_dev_contracts/contracts_ready_for_prod/TokenEcoSystemParticipationV1_0_flattened.sol\":37483:37489  amount */\n      dup6\n        /* \"token_eco_system_dev_contracts/contracts_ready_for_prod/TokenEcoSystemParticipationV1_0_flattened.sol\":37483:37496  amount * rate */\n      tag_455\n      swap2\n      swap1\n      tag_273\n      jump\t// in\n    tag_455:\n        /* \"token_eco_system_dev_contracts/contracts_ready_for_prod/TokenEcoSystemParticipationV1_0_flattened.sol\":37482:37512  (amount * rate) / 10**decimals */\n      tag_456\n      swap2\n      swap1\n      tag_275\n      jump\t// in\n    tag_456:\n        /* \"token_eco_system_dev_contracts/contracts_ready_for_prod/TokenEcoSystemParticipationV1_0_flattened.sol\":37475:37512  return (amount * rate) / 10**decimals */\n      swap1\n      pop\n        /* \"token_eco_system_dev_contracts/contracts_ready_for_prod/TokenEcoSystemParticipationV1_0_flattened.sol\":37331:37519  function calculatePoints(... */\n      swap4\n      swap3\n      pop\n      pop\n      pop\n      jump\t// out\n        /* \"token_eco_system_dev_contracts/contracts_ready_for_prod/TokenEcoSystemParticipationV1_0_flattened.sol\":21093:21334  function safeTransferFrom(... */\n    tag_385:\n        /* \"token_eco_system_dev_contracts/contracts_ready_for_prod/TokenEcoSystemParticipationV1_0_flattened.sol\":21231:21327  _callOptionalReturn(token, abi.encodeWithSelector(token.transferFrom.selector, from, to, value)) */\n      tag_458\n        /* \"token_eco_system_dev_contracts/contracts_ready_for_prod/TokenEcoSystemParticipationV1_0_flattened.sol\":21251:21256  token */\n      dup5\n        /* \"token_eco_system_dev_contracts/contracts_ready_for_prod/TokenEcoSystemParticipationV1_0_flattened.sol\":21281:21308  token.transferFrom.selector */\n      shl(0xe0, 0x23b872dd)\n        /* \"token_eco_system_dev_contracts/contracts_ready_for_prod/TokenEcoSystemParticipationV1_0_flattened.sol\":21310:21314  from */\n      dup6\n        /* \"token_eco_system_dev_contracts/contracts_ready_for_prod/TokenEcoSystemParticipationV1_0_flattened.sol\":21316:21318  to */\n      dup6\n        /* \"token_eco_system_dev_contracts/contracts_ready_for_prod/TokenEcoSystemParticipationV1_0_flattened.sol\":21320:21325  value */\n      dup6\n        /* \"token_eco_system_dev_contracts/contracts_ready_for_prod/TokenEcoSystemParticipationV1_0_flattened.sol\":21258:21326  abi.encodeWithSelector(token.transferFrom.selector, from, to, value) */\n      add(0x24, mload(0x40))\n      tag_459\n      swap4\n      swap3\n      swap2\n      swap1\n      tag_460\n      jump\t// in\n    tag_459:\n      mload(0x40)\n      0x20\n      dup2\n      dup4\n      sub\n      sub\n      dup2\n      mstore\n      swap1\n      0x40\n      mstore\n      swap1\n      not(0xffffffffffffffffffffffffffffffffffffffffffffffffffffffff)\n      and\n      0x20\n      dup3\n      add\n      dup1\n      mload\n      0xffffffffffffffffffffffffffffffffffffffffffffffffffffffff\n      dup4\n      dup2\n      dup4\n      and\n      or\n      dup4\n      mstore\n      pop\n      pop\n      pop\n      pop\n        /* \"token_eco_system_dev_contracts/contracts_ready_for_prod/TokenEcoSystemParticipationV1_0_flattened.sol\":21231:21250  _callOptionalReturn */\n      tag_461\n        /* \"token_eco_system_dev_contracts/contracts_ready_for_prod/TokenEcoSystemParticipationV1_0_flattened.sol\":21231:21327  _callOptionalReturn(token, abi.encodeWithSelector(token.transferFrom.selector, from, to, value)) */\n      jump\t// in\n    tag_458:\n        /* \"token_eco_system_dev_contracts/contracts_ready_for_prod/TokenEcoSystemParticipationV1_0_flattened.sol\":21093:21334  function safeTransferFrom(... */\n      pop\n      pop\n      pop\n      pop\n      jump\t// out\n        /* \"token_eco_system_dev_contracts/contracts_ready_for_prod/TokenEcoSystemParticipationV1_0_flattened.sol\":37577:37886  function burnIncomingTokens(uint256 amount) private returns (bool) {... */\n    tag_387:\n        /* \"token_eco_system_dev_contracts/contracts_ready_for_prod/TokenEcoSystemParticipationV1_0_flattened.sol\":37638:37642  bool */\n      0x00\n        /* \"token_eco_system_dev_contracts/contracts_ready_for_prod/TokenEcoSystemParticipationV1_0_flattened.sol\":37671:37672  0 */\n      dup1\n        /* \"token_eco_system_dev_contracts/contracts_ready_for_prod/TokenEcoSystemParticipationV1_0_flattened.sol\":37662:37668  amount */\n      dup3\n        /* \"token_eco_system_dev_contracts/contracts_ready_for_prod/TokenEcoSystemParticipationV1_0_flattened.sol\":37662:37672  amount > 0 */\n      gt\n        /* \"token_eco_system_dev_contracts/contracts_ready_for_prod/TokenEcoSystemParticipationV1_0_flattened.sol\":37654:37700  require(amount > 0, \"No tokens to be burned!\") */\n      tag_463\n      jumpi\n      mload(0x40)\n      0x08c379a000000000000000000000000000000000000000000000000000000000\n      dup2\n      mstore\n      0x04\n      add\n      tag_464\n      swap1\n      tag_465\n      jump\t// in\n    tag_464:\n      mload(0x40)\n      dup1\n      swap2\n      sub\n      swap1\n      revert\n    tag_463:\n        /* \"token_eco_system_dev_contracts/contracts_ready_for_prod/TokenEcoSystemParticipationV1_0_flattened.sol\":37710:37725  uint256 balance */\n      0x00\n        /* \"token_eco_system_dev_contracts/contracts_ready_for_prod/TokenEcoSystemParticipationV1_0_flattened.sol\":37728:37739  balanceOf() */\n      tag_466\n        /* \"token_eco_system_dev_contracts/contracts_ready_for_prod/TokenEcoSystemParticipationV1_0_flattened.sol\":37728:37737  balanceOf */\n      tag_80\n        /* \"token_eco_system_dev_contracts/contracts_ready_for_prod/TokenEcoSystemParticipationV1_0_flattened.sol\":37728:37739  balanceOf() */\n      jump\t// in\n    tag_466:\n        /* \"token_eco_system_dev_contracts/contracts_ready_for_prod/TokenEcoSystemParticipationV1_0_flattened.sol\":37710:37739  uint256 balance = balanceOf() */\n      swap1\n      pop\n        /* \"token_eco_system_dev_contracts/contracts_ready_for_prod/TokenEcoSystemParticipationV1_0_flattened.sol\":37749:37754  token */\n      immutable(\"0x474e8cbbfd90dba9df5fc054f99b290c4296483a721448990672feaba0c59d72\")\n        /* \"token_eco_system_dev_contracts/contracts_ready_for_prod/TokenEcoSystemParticipationV1_0_flattened.sol\":37749:37759  token.burn */\n      0xffffffffffffffffffffffffffffffffffffffff\n      and\n      0x42966c68\n        /* \"token_eco_system_dev_contracts/contracts_ready_for_prod/TokenEcoSystemParticipationV1_0_flattened.sol\":37760:37766  amount */\n      dup5\n        /* \"token_eco_system_dev_contracts/contracts_ready_for_prod/TokenEcoSystemParticipationV1_0_flattened.sol\":37749:37767  token.burn(amount) */\n      mload(0x40)\n      dup3\n      0xffffffff\n      and\n      0xe0\n      shl\n      dup2\n      mstore\n      0x04\n      add\n      tag_467\n      swap2\n      swap1\n      tag_63\n      jump\t// in\n    tag_467:\n      0x00\n      mload(0x40)\n      dup1\n      dup4\n      sub\n      dup2\n      0x00\n      dup8\n      dup1\n      extcodesize\n      iszero\n      dup1\n      iszero\n      tag_468\n      jumpi\n      0x00\n      dup1\n      revert\n    tag_468:\n      pop\n      gas\n      call\n      iszero\n      dup1\n      iszero\n      tag_470\n      jumpi\n      returndatasize\n      0x00\n      dup1\n      returndatacopy\n      revert(0x00, returndatasize)\n    tag_470:\n      pop\n      pop\n      pop\n      pop\n        /* \"token_eco_system_dev_contracts/contracts_ready_for_prod/TokenEcoSystemParticipationV1_0_flattened.sol\":37808:37814  amount */\n      dup3\n        /* \"token_eco_system_dev_contracts/contracts_ready_for_prod/TokenEcoSystemParticipationV1_0_flattened.sol\":37800:37807  balance */\n      dup2\n        /* \"token_eco_system_dev_contracts/contracts_ready_for_prod/TokenEcoSystemParticipationV1_0_flattened.sol\":37800:37814  balance-amount */\n      tag_471\n      swap2\n      swap1\n      tag_138\n      jump\t// in\n    tag_471:\n        /* \"token_eco_system_dev_contracts/contracts_ready_for_prod/TokenEcoSystemParticipationV1_0_flattened.sol\":37785:37796  balanceOf() */\n      tag_472\n        /* \"token_eco_system_dev_contracts/contracts_ready_for_prod/TokenEcoSystemParticipationV1_0_flattened.sol\":37785:37794  balanceOf */\n      tag_80\n        /* \"token_eco_system_dev_contracts/contracts_ready_for_prod/TokenEcoSystemParticipationV1_0_flattened.sol\":37785:37796  balanceOf() */\n      jump\t// in\n    tag_472:\n        /* \"token_eco_system_dev_contracts/contracts_ready_for_prod/TokenEcoSystemParticipationV1_0_flattened.sol\":37785:37814  balanceOf() == balance-amount */\n      eq\n        /* \"token_eco_system_dev_contracts/contracts_ready_for_prod/TokenEcoSystemParticipationV1_0_flattened.sol\":37777:37858  require(balanceOf() == balance-amount, \"transaction reverted burn unsuccesfull!\") */\n      tag_473\n      jumpi\n      mload(0x40)\n      0x08c379a000000000000000000000000000000000000000000000000000000000\n      dup2\n      mstore\n      0x04\n      add\n      tag_474\n      swap1\n      tag_475\n      jump\t// in\n    tag_474:\n      mload(0x40)\n      dup1\n      swap2\n      sub\n      swap1\n      revert\n    tag_473:\n        /* \"token_eco_system_dev_contracts/contracts_ready_for_prod/TokenEcoSystemParticipationV1_0_flattened.sol\":37875:37879  true */\n      0x01\n        /* \"token_eco_system_dev_contracts/contracts_ready_for_prod/TokenEcoSystemParticipationV1_0_flattened.sol\":37868:37879  return true */\n      swap2\n      pop\n      pop\n        /* \"token_eco_system_dev_contracts/contracts_ready_for_prod/TokenEcoSystemParticipationV1_0_flattened.sol\":37577:37886  function burnIncomingTokens(uint256 amount) private returns (bool) {... */\n      swap2\n      swap1\n      pop\n      jump\t// out\n        /* \"token_eco_system_dev_contracts/contracts_ready_for_prod/TokenEcoSystemParticipationV1_0_flattened.sol\":693:789  function _msgSender() internal view virtual returns (address) {... */\n    tag_406:\n        /* \"token_eco_system_dev_contracts/contracts_ready_for_prod/TokenEcoSystemParticipationV1_0_flattened.sol\":746:753  address */\n      0x00\n        /* \"token_eco_system_dev_contracts/contracts_ready_for_prod/TokenEcoSystemParticipationV1_0_flattened.sol\":772:782  msg.sender */\n      caller\n        /* \"token_eco_system_dev_contracts/contracts_ready_for_prod/TokenEcoSystemParticipationV1_0_flattened.sol\":765:782  return msg.sender */\n      swap1\n      pop\n        /* \"token_eco_system_dev_contracts/contracts_ready_for_prod/TokenEcoSystemParticipationV1_0_flattened.sol\":693:789  function _msgSender() internal view virtual returns (address) {... */\n      swap1\n      jump\t// out\n        /* \"token_eco_system_dev_contracts/contracts_ready_for_prod/TokenEcoSystemParticipationV1_0_flattened.sol\":23866:24572  function _callOptionalReturn(IERC20 token, bytes memory data) private {... */\n    tag_461:\n        /* \"token_eco_system_dev_contracts/contracts_ready_for_prod/TokenEcoSystemParticipationV1_0_flattened.sol\":24285:24308  bytes memory returndata */\n      0x00\n        /* \"token_eco_system_dev_contracts/contracts_ready_for_prod/TokenEcoSystemParticipationV1_0_flattened.sol\":24311:24380  address(token).functionCall(data, \"SafeERC20: low-level call failed\") */\n      tag_478\n        /* \"token_eco_system_dev_contracts/contracts_ready_for_prod/TokenEcoSystemParticipationV1_0_flattened.sol\":24339:24343  data */\n      dup3\n        /* \"token_eco_system_dev_contracts/contracts_ready_for_prod/TokenEcoSystemParticipationV1_0_flattened.sol\":24311:24380  address(token).functionCall(data, \"SafeERC20: low-level call failed\") */\n      mload(0x40)\n      dup1\n      0x40\n      add\n      0x40\n      mstore\n      dup1\n      0x20\n      dup2\n      mstore\n      0x20\n      add\n      0x5361666545524332303a206c6f772d6c6576656c2063616c6c206661696c6564\n      dup2\n      mstore\n      pop\n        /* \"token_eco_system_dev_contracts/contracts_ready_for_prod/TokenEcoSystemParticipationV1_0_flattened.sol\":24319:24324  token */\n      dup6\n        /* \"token_eco_system_dev_contracts/contracts_ready_for_prod/TokenEcoSystemParticipationV1_0_flattened.sol\":24311:24338  address(token).functionCall */\n      0xffffffffffffffffffffffffffffffffffffffff\n      and\n      tag_479\n      swap1\n        /* \"token_eco_system_dev_contracts/contracts_ready_for_prod/TokenEcoSystemParticipationV1_0_flattened.sol\":24311:24380  address(token).functionCall(data, \"SafeERC20: low-level call failed\") */\n      swap3\n      swap2\n      swap1\n      0xffffffff\n      and\n      jump\t// in\n    tag_478:\n        /* \"token_eco_system_dev_contracts/contracts_ready_for_prod/TokenEcoSystemParticipationV1_0_flattened.sol\":24285:24380  bytes memory returndata = address(token).functionCall(data, \"SafeERC20: low-level call failed\") */\n      swap1\n      pop\n        /* \"token_eco_system_dev_contracts/contracts_ready_for_prod/TokenEcoSystemParticipationV1_0_flattened.sol\":24414:24415  0 */\n      0x00\n        /* \"token_eco_system_dev_contracts/contracts_ready_for_prod/TokenEcoSystemParticipationV1_0_flattened.sol\":24394:24404  returndata */\n      dup2\n        /* \"token_eco_system_dev_contracts/contracts_ready_for_prod/TokenEcoSystemParticipationV1_0_flattened.sol\":24394:24411  returndata.length */\n      mload\n        /* \"token_eco_system_dev_contracts/contracts_ready_for_prod/TokenEcoSystemParticipationV1_0_flattened.sol\":24394:24415  returndata.length > 0 */\n      gt\n        /* \"token_eco_system_dev_contracts/contracts_ready_for_prod/TokenEcoSystemParticipationV1_0_flattened.sol\":24390:24566  if (returndata.length > 0) {... */\n      iszero\n      tag_480\n      jumpi\n        /* \"token_eco_system_dev_contracts/contracts_ready_for_prod/TokenEcoSystemParticipationV1_0_flattened.sol\":24489:24499  returndata */\n      dup1\n        /* \"token_eco_system_dev_contracts/contracts_ready_for_prod/TokenEcoSystemParticipationV1_0_flattened.sol\":24478:24508  abi.decode(returndata, (bool)) */\n      dup1\n      0x20\n      add\n      swap1\n      mload\n      dup2\n      add\n      swap1\n      tag_481\n      swap2\n      swap1\n      tag_245\n      jump\t// in\n    tag_481:\n        /* \"token_eco_system_dev_contracts/contracts_ready_for_prod/TokenEcoSystemParticipationV1_0_flattened.sol\":24470:24555  require(abi.decode(returndata, (bool)), \"SafeERC20: ERC20 operation did not succeed\") */\n      tag_482\n      jumpi\n      mload(0x40)\n      0x08c379a000000000000000000000000000000000000000000000000000000000\n      dup2\n      mstore\n      0x04\n      add\n      tag_483\n      swap1\n      tag_484\n      jump\t// in\n    tag_483:\n      mload(0x40)\n      dup1\n      swap2\n      sub\n      swap1\n      revert\n    tag_482:\n        /* \"token_eco_system_dev_contracts/contracts_ready_for_prod/TokenEcoSystemParticipationV1_0_flattened.sol\":24390:24566  if (returndata.length > 0) {... */\n    tag_480:\n        /* \"token_eco_system_dev_contracts/contracts_ready_for_prod/TokenEcoSystemParticipationV1_0_flattened.sol\":23936:24572  {... */\n      pop\n        /* \"token_eco_system_dev_contracts/contracts_ready_for_prod/TokenEcoSystemParticipationV1_0_flattened.sol\":23866:24572  function _callOptionalReturn(IERC20 token, bytes memory data) private {... */\n      pop\n      pop\n      jump\t// out\n        /* \"token_eco_system_dev_contracts/contracts_ready_for_prod/TokenEcoSystemParticipationV1_0_flattened.sol\":9943:10166  function functionCall(... */\n    tag_479:\n        /* \"token_eco_system_dev_contracts/contracts_ready_for_prod/TokenEcoSystemParticipationV1_0_flattened.sol\":10076:10088  bytes memory */\n      0x60\n        /* \"token_eco_system_dev_contracts/contracts_ready_for_prod/TokenEcoSystemParticipationV1_0_flattened.sol\":10107:10159  functionCallWithValue(target, data, 0, errorMessage) */\n      tag_486\n        /* \"token_eco_system_dev_contracts/contracts_ready_for_prod/TokenEcoSystemParticipationV1_0_flattened.sol\":10129:10135  target */\n      dup5\n        /* \"token_eco_system_dev_contracts/contracts_ready_for_prod/TokenEcoSystemParticipationV1_0_flattened.sol\":10137:10141  data */\n      dup5\n        /* \"token_eco_system_dev_contracts/contracts_ready_for_prod/TokenEcoSystemParticipationV1_0_flattened.sol\":10143:10144  0 */\n      0x00\n        /* \"token_eco_system_dev_contracts/contracts_ready_for_prod/TokenEcoSystemParticipationV1_0_flattened.sol\":10146:10158  errorMessage */\n      dup6\n        /* \"token_eco_system_dev_contracts/contracts_ready_for_prod/TokenEcoSystemParticipationV1_0_flattened.sol\":10107:10128  functionCallWithValue */\n      tag_487\n        /* \"token_eco_system_dev_contracts/contracts_ready_for_prod/TokenEcoSystemParticipationV1_0_flattened.sol\":10107:10159  functionCallWithValue(target, data, 0, errorMessage) */\n      jump\t// in\n    tag_486:\n        /* \"token_eco_system_dev_contracts/contracts_ready_for_prod/TokenEcoSystemParticipationV1_0_flattened.sol\":10100:10159  return functionCallWithValue(target, data, 0, errorMessage) */\n      swap1\n      pop\n        /* \"token_eco_system_dev_contracts/contracts_ready_for_prod/TokenEcoSystemParticipationV1_0_flattened.sol\":9943:10166  function functionCall(... */\n      swap4\n      swap3\n      pop\n      pop\n      pop\n      jump\t// out\n        /* \"token_eco_system_dev_contracts/contracts_ready_for_prod/TokenEcoSystemParticipationV1_0_flattened.sol\":11030:11529  function functionCallWithValue(... */\n    tag_487:\n        /* \"token_eco_system_dev_contracts/contracts_ready_for_prod/TokenEcoSystemParticipationV1_0_flattened.sol\":11195:11207  bytes memory */\n      0x60\n        /* \"token_eco_system_dev_contracts/contracts_ready_for_prod/TokenEcoSystemParticipationV1_0_flattened.sol\":11252:11257  value */\n      dup3\n        /* \"token_eco_system_dev_contracts/contracts_ready_for_prod/TokenEcoSystemParticipationV1_0_flattened.sol\":11227:11248  address(this).balance */\n      selfbalance\n        /* \"token_eco_system_dev_contracts/contracts_ready_for_prod/TokenEcoSystemParticipationV1_0_flattened.sol\":11227:11257  address(this).balance >= value */\n      lt\n      iszero\n        /* \"token_eco_system_dev_contracts/contracts_ready_for_prod/TokenEcoSystemParticipationV1_0_flattened.sol\":11219:11300  require(address(this).balance >= value, \"Address: insufficient balance for call\") */\n      tag_489\n      jumpi\n      mload(0x40)\n      0x08c379a000000000000000000000000000000000000000000000000000000000\n      dup2\n      mstore\n      0x04\n      add\n      tag_490\n      swap1\n      tag_491\n      jump\t// in\n    tag_490:\n      mload(0x40)\n      dup1\n      swap2\n      sub\n      swap1\n      revert\n    tag_489:\n        /* \"token_eco_system_dev_contracts/contracts_ready_for_prod/TokenEcoSystemParticipationV1_0_flattened.sol\":11318:11336  isContract(target) */\n      tag_492\n        /* \"token_eco_system_dev_contracts/contracts_ready_for_prod/TokenEcoSystemParticipationV1_0_flattened.sol\":11329:11335  target */\n      dup6\n        /* \"token_eco_system_dev_contracts/contracts_ready_for_prod/TokenEcoSystemParticipationV1_0_flattened.sol\":11318:11328  isContract */\n      tag_493\n        /* \"token_eco_system_dev_contracts/contracts_ready_for_prod/TokenEcoSystemParticipationV1_0_flattened.sol\":11318:11336  isContract(target) */\n      jump\t// in\n    tag_492:\n        /* \"token_eco_system_dev_contracts/contracts_ready_for_prod/TokenEcoSystemParticipationV1_0_flattened.sol\":11310:11370  require(isContract(target), \"Address: call to non-contract\") */\n      tag_494\n      jumpi\n      mload(0x40)\n      0x08c379a000000000000000000000000000000000000000000000000000000000\n      dup2\n      mstore\n      0x04\n      add\n      tag_495\n      swap1\n      tag_496\n      jump\t// in\n    tag_495:\n      mload(0x40)\n      dup1\n      swap2\n      sub\n      swap1\n      revert\n    tag_494:\n        /* \"token_eco_system_dev_contracts/contracts_ready_for_prod/TokenEcoSystemParticipationV1_0_flattened.sol\":11382:11394  bool success */\n      0x00\n        /* \"token_eco_system_dev_contracts/contracts_ready_for_prod/TokenEcoSystemParticipationV1_0_flattened.sol\":11396:11419  bytes memory returndata */\n      dup1\n        /* \"token_eco_system_dev_contracts/contracts_ready_for_prod/TokenEcoSystemParticipationV1_0_flattened.sol\":11423:11429  target */\n      dup7\n        /* \"token_eco_system_dev_contracts/contracts_ready_for_prod/TokenEcoSystemParticipationV1_0_flattened.sol\":11423:11434  target.call */\n      0xffffffffffffffffffffffffffffffffffffffff\n      and\n        /* \"token_eco_system_dev_contracts/contracts_ready_for_prod/TokenEcoSystemParticipationV1_0_flattened.sol\":11442:11447  value */\n      dup6\n        /* \"token_eco_system_dev_contracts/contracts_ready_for_prod/TokenEcoSystemParticipationV1_0_flattened.sol\":11449:11453  data */\n      dup8\n        /* \"token_eco_system_dev_contracts/contracts_ready_for_prod/TokenEcoSystemParticipationV1_0_flattened.sol\":11423:11454  target.call{value: value}(data) */\n      mload(0x40)\n      tag_497\n      swap2\n      swap1\n      tag_498\n      jump\t// in\n    tag_497:\n      0x00\n      mload(0x40)\n      dup1\n      dup4\n      sub\n      dup2\n      dup6\n      dup8\n      gas\n      call\n      swap3\n      pop\n      pop\n      pop\n      returndatasize\n      dup1\n      0x00\n      dup2\n      eq\n      tag_501\n      jumpi\n      mload(0x40)\n      swap2\n      pop\n      and(add(returndatasize, 0x3f), not(0x1f))\n      dup3\n      add\n      0x40\n      mstore\n      returndatasize\n      dup3\n      mstore\n      returndatasize\n      0x00\n      0x20\n      dup5\n      add\n      returndatacopy\n      jump(tag_500)\n    tag_501:\n      0x60\n      swap2\n      pop\n    tag_500:\n      pop\n        /* \"token_eco_system_dev_contracts/contracts_ready_for_prod/TokenEcoSystemParticipationV1_0_flattened.sol\":11381:11454  (bool success, bytes memory returndata) = target.call{value: value}(data) */\n      swap2\n      pop\n      swap2\n      pop\n        /* \"token_eco_system_dev_contracts/contracts_ready_for_prod/TokenEcoSystemParticipationV1_0_flattened.sol\":11471:11522  verifyCallResult(success, returndata, errorMessage) */\n      tag_502\n        /* \"token_eco_system_dev_contracts/contracts_ready_for_prod/TokenEcoSystemParticipationV1_0_flattened.sol\":11488:11495  success */\n      dup3\n        /* \"token_eco_system_dev_contracts/contracts_ready_for_prod/TokenEcoSystemParticipationV1_0_flattened.sol\":11497:11507  returndata */\n      dup3\n        /* \"token_eco_system_dev_contracts/contracts_ready_for_prod/TokenEcoSystemParticipationV1_0_flattened.sol\":11509:11521  errorMessage */\n      dup7\n        /* \"token_eco_system_dev_contracts/contracts_ready_for_prod/TokenEcoSystemParticipationV1_0_flattened.sol\":11471:11487  verifyCallResult */\n      tag_503\n        /* \"token_eco_system_dev_contracts/contracts_ready_for_prod/TokenEcoSystemParticipationV1_0_flattened.sol\":11471:11522  verifyCallResult(success, returndata, errorMessage) */\n      jump\t// in\n    tag_502:\n        /* \"token_eco_system_dev_contracts/contracts_ready_for_prod/TokenEcoSystemParticipationV1_0_flattened.sol\":11464:11522  return verifyCallResult(success, returndata, errorMessage) */\n      swap3\n      pop\n      pop\n      pop\n        /* \"token_eco_system_dev_contracts/contracts_ready_for_prod/TokenEcoSystemParticipationV1_0_flattened.sol\":11030:11529  function functionCallWithValue(... */\n      swap5\n      swap4\n      pop\n      pop\n      pop\n      pop\n      jump\t// out\n        /* \"token_eco_system_dev_contracts/contracts_ready_for_prod/TokenEcoSystemParticipationV1_0_flattened.sol\":7257:7577  function isContract(address account) internal view returns (bool) {... */\n    tag_493:\n        /* \"token_eco_system_dev_contracts/contracts_ready_for_prod/TokenEcoSystemParticipationV1_0_flattened.sol\":7317:7321  bool */\n      0x00\n        /* \"token_eco_system_dev_contracts/contracts_ready_for_prod/TokenEcoSystemParticipationV1_0_flattened.sol\":7569:7570  0 */\n      dup1\n        /* \"token_eco_system_dev_contracts/contracts_ready_for_prod/TokenEcoSystemParticipationV1_0_flattened.sol\":7547:7554  account */\n      dup3\n        /* \"token_eco_system_dev_contracts/contracts_ready_for_prod/TokenEcoSystemParticipationV1_0_flattened.sol\":7547:7566  account.code.length */\n      0xffffffffffffffffffffffffffffffffffffffff\n      and\n      extcodesize\n        /* \"token_eco_system_dev_contracts/contracts_ready_for_prod/TokenEcoSystemParticipationV1_0_flattened.sol\":7547:7570  account.code.length > 0 */\n      gt\n        /* \"token_eco_system_dev_contracts/contracts_ready_for_prod/TokenEcoSystemParticipationV1_0_flattened.sol\":7540:7570  return account.code.length > 0 */\n      swap1\n      pop\n        /* \"token_eco_system_dev_contracts/contracts_ready_for_prod/TokenEcoSystemParticipationV1_0_flattened.sol\":7257:7577  function isContract(address account) internal view returns (bool) {... */\n      swap2\n      swap1\n      pop\n      jump\t// out\n        /* \"token_eco_system_dev_contracts/contracts_ready_for_prod/TokenEcoSystemParticipationV1_0_flattened.sol\":13643:14385  function verifyCallResult(... */\n    tag_503:\n        /* \"token_eco_system_dev_contracts/contracts_ready_for_prod/TokenEcoSystemParticipationV1_0_flattened.sol\":13789:13801  bytes memory */\n      0x60\n        /* \"token_eco_system_dev_contracts/contracts_ready_for_prod/TokenEcoSystemParticipationV1_0_flattened.sol\":13817:13824  success */\n      dup4\n        /* \"token_eco_system_dev_contracts/contracts_ready_for_prod/TokenEcoSystemParticipationV1_0_flattened.sol\":13813:14379  if (success) {... */\n      iszero\n      tag_506\n      jumpi\n        /* \"token_eco_system_dev_contracts/contracts_ready_for_prod/TokenEcoSystemParticipationV1_0_flattened.sol\":13847:13857  returndata */\n      dup3\n        /* \"token_eco_system_dev_contracts/contracts_ready_for_prod/TokenEcoSystemParticipationV1_0_flattened.sol\":13840:13857  return returndata */\n      swap1\n      pop\n      jump(tag_505)\n        /* \"token_eco_system_dev_contracts/contracts_ready_for_prod/TokenEcoSystemParticipationV1_0_flattened.sol\":13813:14379  if (success) {... */\n    tag_506:\n        /* \"token_eco_system_dev_contracts/contracts_ready_for_prod/TokenEcoSystemParticipationV1_0_flattened.sol\":13978:13979  0 */\n      0x00\n        /* \"token_eco_system_dev_contracts/contracts_ready_for_prod/TokenEcoSystemParticipationV1_0_flattened.sol\":13958:13968  returndata */\n      dup4\n        /* \"token_eco_system_dev_contracts/contracts_ready_for_prod/TokenEcoSystemParticipationV1_0_flattened.sol\":13958:13975  returndata.length */\n      mload\n        /* \"token_eco_system_dev_contracts/contracts_ready_for_prod/TokenEcoSystemParticipationV1_0_flattened.sol\":13958:13979  returndata.length > 0 */\n      gt\n        /* \"token_eco_system_dev_contracts/contracts_ready_for_prod/TokenEcoSystemParticipationV1_0_flattened.sol\":13954:14369  if (returndata.length > 0) {... */\n      iszero\n      tag_508\n      jumpi\n        /* \"token_eco_system_dev_contracts/contracts_ready_for_prod/TokenEcoSystemParticipationV1_0_flattened.sol\":14202:14212  returndata */\n      dup3\n        /* \"token_eco_system_dev_contracts/contracts_ready_for_prod/TokenEcoSystemParticipationV1_0_flattened.sol\":14196:14213  mload(returndata) */\n      mload\n        /* \"token_eco_system_dev_contracts/contracts_ready_for_prod/TokenEcoSystemParticipationV1_0_flattened.sol\":14262:14277  returndata_size */\n      dup1\n        /* \"token_eco_system_dev_contracts/contracts_ready_for_prod/TokenEcoSystemParticipationV1_0_flattened.sol\":14249:14259  returndata */\n      dup5\n        /* \"token_eco_system_dev_contracts/contracts_ready_for_prod/TokenEcoSystemParticipationV1_0_flattened.sol\":14245:14247  32 */\n      0x20\n        /* \"token_eco_system_dev_contracts/contracts_ready_for_prod/TokenEcoSystemParticipationV1_0_flattened.sol\":14241:14260  add(32, returndata) */\n      add\n        /* \"token_eco_system_dev_contracts/contracts_ready_for_prod/TokenEcoSystemParticipationV1_0_flattened.sol\":14234:14278  revert(add(32, returndata), returndata_size) */\n      revert\n        /* \"token_eco_system_dev_contracts/contracts_ready_for_prod/TokenEcoSystemParticipationV1_0_flattened.sol\":13954:14369  if (returndata.length > 0) {... */\n    tag_508:\n        /* \"token_eco_system_dev_contracts/contracts_ready_for_prod/TokenEcoSystemParticipationV1_0_flattened.sol\":14341:14353  errorMessage */\n      dup2\n        /* \"token_eco_system_dev_contracts/contracts_ready_for_prod/TokenEcoSystemParticipationV1_0_flattened.sol\":14334:14354  revert(errorMessage) */\n      mload(0x40)\n      0x08c379a000000000000000000000000000000000000000000000000000000000\n      dup2\n      mstore\n      0x04\n      add\n      tag_510\n      swap2\n      swap1\n      tag_119\n      jump\t// in\n    tag_510:\n      mload(0x40)\n      dup1\n      swap2\n      sub\n      swap1\n      revert\n        /* \"token_eco_system_dev_contracts/contracts_ready_for_prod/TokenEcoSystemParticipationV1_0_flattened.sol\":13643:14385  function verifyCallResult(... */\n    tag_505:\n      swap4\n      swap3\n      pop\n      pop\n      pop\n      jump\t// out\n        /* \"#utility.yul\":7:82   */\n    tag_511:\n        /* \"#utility.yul\":40:46   */\n      0x00\n        /* \"#utility.yul\":73:75   */\n      0x40\n        /* \"#utility.yul\":67:76   */\n      mload\n        /* \"#utility.yul\":57:76   */\n      swap1\n      pop\n        /* \"#utility.yul\":7:82   */\n      swap1\n      jump\t// out\n        /* \"#utility.yul\":88:205   */\n    tag_512:\n        /* \"#utility.yul\":197:198   */\n      0x00\n        /* \"#utility.yul\":194:195   */\n      dup1\n        /* \"#utility.yul\":187:199   */\n      revert\n        /* \"#utility.yul\":211:328   */\n    tag_513:\n        /* \"#utility.yul\":320:321   */\n      0x00\n        /* \"#utility.yul\":317:318   */\n      dup1\n        /* \"#utility.yul\":310:322   */\n      revert\n        /* \"#utility.yul\":334:411   */\n    tag_514:\n        /* \"#utility.yul\":371:378   */\n      0x00\n        /* \"#utility.yul\":400:405   */\n      dup2\n        /* \"#utility.yul\":389:405   */\n      swap1\n      pop\n        /* \"#utility.yul\":334:411   */\n      swap2\n      swap1\n      pop\n      jump\t// out\n        /* \"#utility.yul\":417:539   */\n    tag_515:\n        /* \"#utility.yul\":490:514   */\n      tag_609\n        /* \"#utility.yul\":508:513   */\n      dup2\n        /* \"#utility.yul\":490:514   */\n      tag_514\n      jump\t// in\n    tag_609:\n        /* \"#utility.yul\":483:488   */\n      dup2\n        /* \"#utility.yul\":480:515   */\n      eq\n        /* \"#utility.yul\":470:533   */\n      tag_610\n      jumpi\n        /* \"#utility.yul\":529:530   */\n      0x00\n        /* \"#utility.yul\":526:527   */\n      dup1\n        /* \"#utility.yul\":519:531   */\n      revert\n        /* \"#utility.yul\":470:533   */\n    tag_610:\n        /* \"#utility.yul\":417:539   */\n      pop\n      jump\t// out\n        /* \"#utility.yul\":545:684   */\n    tag_516:\n        /* \"#utility.yul\":591:596   */\n      0x00\n        /* \"#utility.yul\":629:635   */\n      dup2\n        /* \"#utility.yul\":616:636   */\n      calldataload\n        /* \"#utility.yul\":607:636   */\n      swap1\n      pop\n        /* \"#utility.yul\":645:678   */\n      tag_612\n        /* \"#utility.yul\":672:677   */\n      dup2\n        /* \"#utility.yul\":645:678   */\n      tag_515\n      jump\t// in\n    tag_612:\n        /* \"#utility.yul\":545:684   */\n      swap3\n      swap2\n      pop\n      pop\n      jump\t// out\n        /* \"#utility.yul\":690:816   */\n    tag_517:\n        /* \"#utility.yul\":727:734   */\n      0x00\n        /* \"#utility.yul\":767:809   */\n      0xffffffffffffffffffffffffffffffffffffffff\n        /* \"#utility.yul\":760:765   */\n      dup3\n        /* \"#utility.yul\":756:810   */\n      and\n        /* \"#utility.yul\":745:810   */\n      swap1\n      pop\n        /* \"#utility.yul\":690:816   */\n      swap2\n      swap1\n      pop\n      jump\t// out\n        /* \"#utility.yul\":822:918   */\n    tag_518:\n        /* \"#utility.yul\":859:866   */\n      0x00\n        /* \"#utility.yul\":888:912   */\n      tag_615\n        /* \"#utility.yul\":906:911   */\n      dup3\n        /* \"#utility.yul\":888:912   */\n      tag_517\n      jump\t// in\n    tag_615:\n        /* \"#utility.yul\":877:912   */\n      swap1\n      pop\n        /* \"#utility.yul\":822:918   */\n      swap2\n      swap1\n      pop\n      jump\t// out\n        /* \"#utility.yul\":924:1046   */\n    tag_519:\n        /* \"#utility.yul\":997:1021   */\n      tag_617\n        /* \"#utility.yul\":1015:1020   */\n      dup2\n        /* \"#utility.yul\":997:1021   */\n      tag_518\n      jump\t// in\n    tag_617:\n        /* \"#utility.yul\":990:995   */\n      dup2\n        /* \"#utility.yul\":987:1022   */\n      eq\n        /* \"#utility.yul\":977:1040   */\n      tag_618\n      jumpi\n        /* \"#utility.yul\":1036:1037   */\n      0x00\n        /* \"#utility.yul\":1033:1034   */\n      dup1\n        /* \"#utility.yul\":1026:1038   */\n      revert\n        /* \"#utility.yul\":977:1040   */\n    tag_618:\n        /* \"#utility.yul\":924:1046   */\n      pop\n      jump\t// out\n        /* \"#utility.yul\":1052:1191   */\n    tag_520:\n        /* \"#utility.yul\":1098:1103   */\n      0x00\n        /* \"#utility.yul\":1136:1142   */\n      dup2\n        /* \"#utility.yul\":1123:1143   */\n      calldataload\n        /* \"#utility.yul\":1114:1143   */\n      swap1\n      pop\n        /* \"#utility.yul\":1152:1185   */\n      tag_620\n        /* \"#utility.yul\":1179:1184   */\n      dup2\n        /* \"#utility.yul\":1152:1185   */\n      tag_519\n      jump\t// in\n    tag_620:\n        /* \"#utility.yul\":1052:1191   */\n      swap3\n      swap2\n      pop\n      pop\n      jump\t// out\n        /* \"#utility.yul\":1197:1671   */\n    tag_41:\n        /* \"#utility.yul\":1265:1271   */\n      0x00\n        /* \"#utility.yul\":1273:1279   */\n      dup1\n        /* \"#utility.yul\":1322:1324   */\n      0x40\n        /* \"#utility.yul\":1310:1319   */\n      dup4\n        /* \"#utility.yul\":1301:1308   */\n      dup6\n        /* \"#utility.yul\":1297:1320   */\n      sub\n        /* \"#utility.yul\":1293:1325   */\n      slt\n        /* \"#utility.yul\":1290:1409   */\n      iszero\n      tag_622\n      jumpi\n        /* \"#utility.yul\":1328:1407   */\n      tag_623\n      tag_512\n      jump\t// in\n    tag_623:\n        /* \"#utility.yul\":1290:1409   */\n    tag_622:\n        /* \"#utility.yul\":1448:1449   */\n      0x00\n        /* \"#utility.yul\":1473:1526   */\n      tag_624\n        /* \"#utility.yul\":1518:1525   */\n      dup6\n        /* \"#utility.yul\":1509:1515   */\n      dup3\n        /* \"#utility.yul\":1498:1507   */\n      dup7\n        /* \"#utility.yul\":1494:1516   */\n      add\n        /* \"#utility.yul\":1473:1526   */\n      tag_516\n      jump\t// in\n    tag_624:\n        /* \"#utility.yul\":1463:1526   */\n      swap3\n      pop\n        /* \"#utility.yul\":1419:1536   */\n      pop\n        /* \"#utility.yul\":1575:1577   */\n      0x20\n        /* \"#utility.yul\":1601:1654   */\n      tag_625\n        /* \"#utility.yul\":1646:1653   */\n      dup6\n        /* \"#utility.yul\":1637:1643   */\n      dup3\n        /* \"#utility.yul\":1626:1635   */\n      dup7\n        /* \"#utility.yul\":1622:1644   */\n      add\n        /* \"#utility.yul\":1601:1654   */\n      tag_520\n      jump\t// in\n    tag_625:\n        /* \"#utility.yul\":1591:1654   */\n      swap2\n      pop\n        /* \"#utility.yul\":1546:1664   */\n      pop\n        /* \"#utility.yul\":1197:1671   */\n      swap3\n      pop\n      swap3\n      swap1\n      pop\n      jump\t// out\n        /* \"#utility.yul\":1677:1795   */\n    tag_521:\n        /* \"#utility.yul\":1764:1788   */\n      tag_627\n        /* \"#utility.yul\":1782:1787   */\n      dup2\n        /* \"#utility.yul\":1764:1788   */\n      tag_518\n      jump\t// in\n    tag_627:\n        /* \"#utility.yul\":1759:1762   */\n      dup3\n        /* \"#utility.yul\":1752:1789   */\n      mstore\n        /* \"#utility.yul\":1677:1795   */\n      pop\n      pop\n      jump\t// out\n        /* \"#utility.yul\":1801:2023   */\n    tag_50:\n        /* \"#utility.yul\":1894:1898   */\n      0x00\n        /* \"#utility.yul\":1932:1934   */\n      0x20\n        /* \"#utility.yul\":1921:1930   */\n      dup3\n        /* \"#utility.yul\":1917:1935   */\n      add\n        /* \"#utility.yul\":1909:1935   */\n      swap1\n      pop\n        /* \"#utility.yul\":1945:2016   */\n      tag_629\n        /* \"#utility.yul\":2013:2014   */\n      0x00\n        /* \"#utility.yul\":2002:2011   */\n      dup4\n        /* \"#utility.yul\":1998:2015   */\n      add\n        /* \"#utility.yul\":1989:1995   */\n      dup5\n        /* \"#utility.yul\":1945:2016   */\n      tag_521\n      jump\t// in\n    tag_629:\n        /* \"#utility.yul\":1801:2023   */\n      swap3\n      swap2\n      pop\n      pop\n      jump\t// out\n        /* \"#utility.yul\":2029:2358   */\n    tag_53:\n        /* \"#utility.yul\":2088:2094   */\n      0x00\n        /* \"#utility.yul\":2137:2139   */\n      0x20\n        /* \"#utility.yul\":2125:2134   */\n      dup3\n        /* \"#utility.yul\":2116:2123   */\n      dup5\n        /* \"#utility.yul\":2112:2135   */\n      sub\n        /* \"#utility.yul\":2108:2140   */\n      slt\n        /* \"#utility.yul\":2105:2224   */\n      iszero\n      tag_631\n      jumpi\n        /* \"#utility.yul\":2143:2222   */\n      tag_632\n      tag_512\n      jump\t// in\n    tag_632:\n        /* \"#utility.yul\":2105:2224   */\n    tag_631:\n        /* \"#utility.yul\":2263:2264   */\n      0x00\n        /* \"#utility.yul\":2288:2341   */\n      tag_633\n        /* \"#utility.yul\":2333:2340   */\n      dup5\n        /* \"#utility.yul\":2324:2330   */\n      dup3\n        /* \"#utility.yul\":2313:2322   */\n      dup6\n        /* \"#utility.yul\":2309:2331   */\n      add\n        /* \"#utility.yul\":2288:2341   */\n      tag_520\n      jump\t// in\n    tag_633:\n        /* \"#utility.yul\":2278:2341   */\n      swap2\n      pop\n        /* \"#utility.yul\":2234:2351   */\n      pop\n        /* \"#utility.yul\":2029:2358   */\n      swap3\n      swap2\n      pop\n      pop\n      jump\t// out\n        /* \"#utility.yul\":2364:2482   */\n    tag_522:\n        /* \"#utility.yul\":2451:2475   */\n      tag_635\n        /* \"#utility.yul\":2469:2474   */\n      dup2\n        /* \"#utility.yul\":2451:2475   */\n      tag_514\n      jump\t// in\n    tag_635:\n        /* \"#utility.yul\":2446:2449   */\n      dup3\n        /* \"#utility.yul\":2439:2476   */\n      mstore\n        /* \"#utility.yul\":2364:2482   */\n      pop\n      pop\n      jump\t// out\n        /* \"#utility.yul\":2488:2710   */\n    tag_63:\n        /* \"#utility.yul\":2581:2585   */\n      0x00\n        /* \"#utility.yul\":2619:2621   */\n      0x20\n        /* \"#utility.yul\":2608:2617   */\n      dup3\n        /* \"#utility.yul\":2604:2622   */\n      add\n        /* \"#utility.yul\":2596:2622   */\n      swap1\n      pop\n        /* \"#utility.yul\":2632:2703   */\n      tag_637\n        /* \"#utility.yul\":2700:2701   */\n      0x00\n        /* \"#utility.yul\":2689:2698   */\n      dup4\n        /* \"#utility.yul\":2685:2702   */\n      add\n        /* \"#utility.yul\":2676:2682   */\n      dup5\n        /* \"#utility.yul\":2632:2703   */\n      tag_522\n      jump\t// in\n    tag_637:\n        /* \"#utility.yul\":2488:2710   */\n      swap3\n      swap2\n      pop\n      pop\n      jump\t// out\n        /* \"#utility.yul\":2716:2806   */\n    tag_523:\n        /* \"#utility.yul\":2750:2757   */\n      0x00\n        /* \"#utility.yul\":2793:2798   */\n      dup2\n        /* \"#utility.yul\":2786:2799   */\n      iszero\n        /* \"#utility.yul\":2779:2800   */\n      iszero\n        /* \"#utility.yul\":2768:2800   */\n      swap1\n      pop\n        /* \"#utility.yul\":2716:2806   */\n      swap2\n      swap1\n      pop\n      jump\t// out\n        /* \"#utility.yul\":2812:2921   */\n    tag_524:\n        /* \"#utility.yul\":2893:2914   */\n      tag_640\n        /* \"#utility.yul\":2908:2913   */\n      dup2\n        /* \"#utility.yul\":2893:2914   */\n      tag_523\n      jump\t// in\n    tag_640:\n        /* \"#utility.yul\":2888:2891   */\n      dup3\n        /* \"#utility.yul\":2881:2915   */\n      mstore\n        /* \"#utility.yul\":2812:2921   */\n      pop\n      pop\n      jump\t// out\n        /* \"#utility.yul\":2927:3137   */\n    tag_71:\n        /* \"#utility.yul\":3014:3018   */\n      0x00\n        /* \"#utility.yul\":3052:3054   */\n      0x20\n        /* \"#utility.yul\":3041:3050   */\n      dup3\n        /* \"#utility.yul\":3037:3055   */\n      add\n        /* \"#utility.yul\":3029:3055   */\n      swap1\n      pop\n        /* \"#utility.yul\":3065:3130   */\n      tag_642\n        /* \"#utility.yul\":3127:3128   */\n      0x00\n        /* \"#utility.yul\":3116:3125   */\n      dup4\n        /* \"#utility.yul\":3112:3129   */\n      add\n        /* \"#utility.yul\":3103:3109   */\n      dup5\n        /* \"#utility.yul\":3065:3130   */\n      tag_524\n      jump\t// in\n    tag_642:\n        /* \"#utility.yul\":2927:3137   */\n      swap3\n      swap2\n      pop\n      pop\n      jump\t// out\n        /* \"#utility.yul\":3143:3762   */\n    tag_74:\n        /* \"#utility.yul\":3220:3226   */\n      0x00\n        /* \"#utility.yul\":3228:3234   */\n      dup1\n        /* \"#utility.yul\":3236:3242   */\n      0x00\n        /* \"#utility.yul\":3285:3287   */\n      0x60\n        /* \"#utility.yul\":3273:3282   */\n      dup5\n        /* \"#utility.yul\":3264:3271   */\n      dup7\n        /* \"#utility.yul\":3260:3283   */\n      sub\n        /* \"#utility.yul\":3256:3288   */\n      slt\n        /* \"#utility.yul\":3253:3372   */\n      iszero\n      tag_644\n      jumpi\n        /* \"#utility.yul\":3291:3370   */\n      tag_645\n      tag_512\n      jump\t// in\n    tag_645:\n        /* \"#utility.yul\":3253:3372   */\n    tag_644:\n        /* \"#utility.yul\":3411:3412   */\n      0x00\n        /* \"#utility.yul\":3436:3489   */\n      tag_646\n        /* \"#utility.yul\":3481:3488   */\n      dup7\n        /* \"#utility.yul\":3472:3478   */\n      dup3\n        /* \"#utility.yul\":3461:3470   */\n      dup8\n        /* \"#utility.yul\":3457:3479   */\n      add\n        /* \"#utility.yul\":3436:3489   */\n      tag_520\n      jump\t// in\n    tag_646:\n        /* \"#utility.yul\":3426:3489   */\n      swap4\n      pop\n        /* \"#utility.yul\":3382:3499   */\n      pop\n        /* \"#utility.yul\":3538:3540   */\n      0x20\n        /* \"#utility.yul\":3564:3617   */\n      tag_647\n        /* \"#utility.yul\":3609:3616   */\n      dup7\n        /* \"#utility.yul\":3600:3606   */\n      dup3\n        /* \"#utility.yul\":3589:3598   */\n      dup8\n        /* \"#utility.yul\":3585:3607   */\n      add\n        /* \"#utility.yul\":3564:3617   */\n      tag_520\n      jump\t// in\n    tag_647:\n        /* \"#utility.yul\":3554:3617   */\n      swap3\n      pop\n        /* \"#utility.yul\":3509:3627   */\n      pop\n        /* \"#utility.yul\":3666:3668   */\n      0x40\n        /* \"#utility.yul\":3692:3745   */\n      tag_648\n        /* \"#utility.yul\":3737:3744   */\n      dup7\n        /* \"#utility.yul\":3728:3734   */\n      dup3\n        /* \"#utility.yul\":3717:3726   */\n      dup8\n        /* \"#utility.yul\":3713:3735   */\n      add\n        /* \"#utility.yul\":3692:3745   */\n      tag_516\n      jump\t// in\n    tag_648:\n        /* \"#utility.yul\":3682:3745   */\n      swap2\n      pop\n        /* \"#utility.yul\":3637:3755   */\n      pop\n        /* \"#utility.yul\":3143:3762   */\n      swap3\n      pop\n      swap3\n      pop\n      swap3\n      jump\t// out\n        /* \"#utility.yul\":3768:4387   */\n    tag_84:\n        /* \"#utility.yul\":3845:3851   */\n      0x00\n        /* \"#utility.yul\":3853:3859   */\n      dup1\n        /* \"#utility.yul\":3861:3867   */\n      0x00\n        /* \"#utility.yul\":3910:3912   */\n      0x60\n        /* \"#utility.yul\":3898:3907   */\n      dup5\n        /* \"#utility.yul\":3889:3896   */\n      dup7\n        /* \"#utility.yul\":3885:3908   */\n      sub\n        /* \"#utility.yul\":3881:3913   */\n      slt\n        /* \"#utility.yul\":3878:3997   */\n      iszero\n      tag_650\n      jumpi\n        /* \"#utility.yul\":3916:3995   */\n      tag_651\n      tag_512\n      jump\t// in\n    tag_651:\n        /* \"#utility.yul\":3878:3997   */\n    tag_650:\n        /* \"#utility.yul\":4036:4037   */\n      0x00\n        /* \"#utility.yul\":4061:4114   */\n      tag_652\n        /* \"#utility.yul\":4106:4113   */\n      dup7\n        /* \"#utility.yul\":4097:4103   */\n      dup3\n        /* \"#utility.yul\":4086:4095   */\n      dup8\n        /* \"#utility.yul\":4082:4104   */\n      add\n        /* \"#utility.yul\":4061:4114   */\n      tag_516\n      jump\t// in\n    tag_652:\n        /* \"#utility.yul\":4051:4114   */\n      swap4\n      pop\n        /* \"#utility.yul\":4007:4124   */\n      pop\n        /* \"#utility.yul\":4163:4165   */\n      0x20\n        /* \"#utility.yul\":4189:4242   */\n      tag_653\n        /* \"#utility.yul\":4234:4241   */\n      dup7\n        /* \"#utility.yul\":4225:4231   */\n      dup3\n        /* \"#utility.yul\":4214:4223   */\n      dup8\n        /* \"#utility.yul\":4210:4232   */\n      add\n        /* \"#utility.yul\":4189:4242   */\n      tag_516\n      jump\t// in\n    tag_653:\n        /* \"#utility.yul\":4179:4242   */\n      swap3\n      pop\n        /* \"#utility.yul\":4134:4252   */\n      pop\n        /* \"#utility.yul\":4291:4293   */\n      0x40\n        /* \"#utility.yul\":4317:4370   */\n      tag_654\n        /* \"#utility.yul\":4362:4369   */\n      dup7\n        /* \"#utility.yul\":4353:4359   */\n      dup3\n        /* \"#utility.yul\":4342:4351   */\n      dup8\n        /* \"#utility.yul\":4338:4360   */\n      add\n        /* \"#utility.yul\":4317:4370   */\n      tag_516\n      jump\t// in\n    tag_654:\n        /* \"#utility.yul\":4307:4370   */\n      swap2\n      pop\n        /* \"#utility.yul\":4262:4380   */\n      pop\n        /* \"#utility.yul\":3768:4387   */\n      swap3\n      pop\n      swap3\n      pop\n      swap3\n      jump\t// out\n        /* \"#utility.yul\":4393:4492   */\n    tag_525:\n        /* \"#utility.yul\":4445:4451   */\n      0x00\n        /* \"#utility.yul\":4479:4484   */\n      dup2\n        /* \"#utility.yul\":4473:4485   */\n      mload\n        /* \"#utility.yul\":4463:4485   */\n      swap1\n      pop\n        /* \"#utility.yul\":4393:4492   */\n      swap2\n      swap1\n      pop\n      jump\t// out\n        /* \"#utility.yul\":4498:4667   */\n    tag_526:\n        /* \"#utility.yul\":4582:4593   */\n      0x00\n        /* \"#utility.yul\":4616:4622   */\n      dup3\n        /* \"#utility.yul\":4611:4614   */\n      dup3\n        /* \"#utility.yul\":4604:4623   */\n      mstore\n        /* \"#utility.yul\":4656:4660   */\n      0x20\n        /* \"#utility.yul\":4651:4654   */\n      dup3\n        /* \"#utility.yul\":4647:4661   */\n      add\n        /* \"#utility.yul\":4632:4661   */\n      swap1\n      pop\n        /* \"#utility.yul\":4498:4667   */\n      swap3\n      swap2\n      pop\n      pop\n      jump\t// out\n        /* \"#utility.yul\":4673:4919   */\n    tag_527:\n        /* \"#utility.yul\":4754:4755   */\n      0x00\n        /* \"#utility.yul\":4764:4877   */\n    tag_658:\n        /* \"#utility.yul\":4778:4784   */\n      dup4\n        /* \"#utility.yul\":4775:4776   */\n      dup2\n        /* \"#utility.yul\":4772:4785   */\n      lt\n        /* \"#utility.yul\":4764:4877   */\n      iszero\n      tag_660\n      jumpi\n        /* \"#utility.yul\":4863:4864   */\n      dup1\n        /* \"#utility.yul\":4858:4861   */\n      dup3\n        /* \"#utility.yul\":4854:4865   */\n      add\n        /* \"#utility.yul\":4848:4866   */\n      mload\n        /* \"#utility.yul\":4844:4845   */\n      dup2\n        /* \"#utility.yul\":4839:4842   */\n      dup5\n        /* \"#utility.yul\":4835:4846   */\n      add\n        /* \"#utility.yul\":4828:4867   */\n      mstore\n        /* \"#utility.yul\":4800:4802   */\n      0x20\n        /* \"#utility.yul\":4797:4798   */\n      dup2\n        /* \"#utility.yul\":4793:4803   */\n      add\n        /* \"#utility.yul\":4788:4803   */\n      swap1\n      pop\n        /* \"#utility.yul\":4764:4877   */\n      jump(tag_658)\n    tag_660:\n        /* \"#utility.yul\":4911:4912   */\n      0x00\n        /* \"#utility.yul\":4902:4908   */\n      dup5\n        /* \"#utility.yul\":4897:4900   */\n      dup5\n        /* \"#utility.yul\":4893:4909   */\n      add\n        /* \"#utility.yul\":4886:4913   */\n      mstore\n        /* \"#utility.yul\":4735:4919   */\n      pop\n        /* \"#utility.yul\":4673:4919   */\n      pop\n      pop\n      pop\n      jump\t// out\n        /* \"#utility.yul\":4925:5027   */\n    tag_528:\n        /* \"#utility.yul\":4966:4972   */\n      0x00\n        /* \"#utility.yul\":5017:5019   */\n      0x1f\n        /* \"#utility.yul\":5013:5020   */\n      not\n        /* \"#utility.yul\":5008:5010   */\n      0x1f\n        /* \"#utility.yul\":5001:5006   */\n      dup4\n        /* \"#utility.yul\":4997:5011   */\n      add\n        /* \"#utility.yul\":4993:5021   */\n      and\n        /* \"#utility.yul\":4983:5021   */\n      swap1\n      pop\n        /* \"#utility.yul\":4925:5027   */\n      swap2\n      swap1\n      pop\n      jump\t// out\n        /* \"#utility.yul\":5033:5410   */\n    tag_529:\n        /* \"#utility.yul\":5121:5124   */\n      0x00\n        /* \"#utility.yul\":5149:5188   */\n      tag_663\n        /* \"#utility.yul\":5182:5187   */\n      dup3\n        /* \"#utility.yul\":5149:5188   */\n      tag_525\n      jump\t// in\n    tag_663:\n        /* \"#utility.yul\":5204:5275   */\n      tag_664\n        /* \"#utility.yul\":5268:5274   */\n      dup2\n        /* \"#utility.yul\":5263:5266   */\n      dup6\n        /* \"#utility.yul\":5204:5275   */\n      tag_526\n      jump\t// in\n    tag_664:\n        /* \"#utility.yul\":5197:5275   */\n      swap4\n      pop\n        /* \"#utility.yul\":5284:5349   */\n      tag_665\n        /* \"#utility.yul\":5342:5348   */\n      dup2\n        /* \"#utility.yul\":5337:5340   */\n      dup6\n        /* \"#utility.yul\":5330:5334   */\n      0x20\n        /* \"#utility.yul\":5323:5328   */\n      dup7\n        /* \"#utility.yul\":5319:5335   */\n      add\n        /* \"#utility.yul\":5284:5349   */\n      tag_527\n      jump\t// in\n    tag_665:\n        /* \"#utility.yul\":5374:5403   */\n      tag_666\n        /* \"#utility.yul\":5396:5402   */\n      dup2\n        /* \"#utility.yul\":5374:5403   */\n      tag_528\n      jump\t// in\n    tag_666:\n        /* \"#utility.yul\":5369:5372   */\n      dup5\n        /* \"#utility.yul\":5365:5404   */\n      add\n        /* \"#utility.yul\":5358:5404   */\n      swap2\n      pop\n        /* \"#utility.yul\":5125:5410   */\n      pop\n        /* \"#utility.yul\":5033:5410   */\n      swap3\n      swap2\n      pop\n      pop\n      jump\t// out\n        /* \"#utility.yul\":5416:5839   */\n    tag_105:\n        /* \"#utility.yul\":5557:5561   */\n      0x00\n        /* \"#utility.yul\":5595:5597   */\n      0x40\n        /* \"#utility.yul\":5584:5593   */\n      dup3\n        /* \"#utility.yul\":5580:5598   */\n      add\n        /* \"#utility.yul\":5572:5598   */\n      swap1\n      pop\n        /* \"#utility.yul\":5608:5679   */\n      tag_668\n        /* \"#utility.yul\":5676:5677   */\n      0x00\n        /* \"#utility.yul\":5665:5674   */\n      dup4\n        /* \"#utility.yul\":5661:5678   */\n      add\n        /* \"#utility.yul\":5652:5658   */\n      dup6\n        /* \"#utility.yul\":5608:5679   */\n      tag_521\n      jump\t// in\n    tag_668:\n        /* \"#utility.yul\":5726:5735   */\n      dup2\n        /* \"#utility.yul\":5720:5724   */\n      dup2\n        /* \"#utility.yul\":5716:5736   */\n      sub\n        /* \"#utility.yul\":5711:5713   */\n      0x20\n        /* \"#utility.yul\":5700:5709   */\n      dup4\n        /* \"#utility.yul\":5696:5714   */\n      add\n        /* \"#utility.yul\":5689:5737   */\n      mstore\n        /* \"#utility.yul\":5754:5832   */\n      tag_669\n        /* \"#utility.yul\":5827:5831   */\n      dup2\n        /* \"#utility.yul\":5818:5824   */\n      dup5\n        /* \"#utility.yul\":5754:5832   */\n      tag_529\n      jump\t// in\n    tag_669:\n        /* \"#utility.yul\":5746:5832   */\n      swap1\n      pop\n        /* \"#utility.yul\":5416:5839   */\n      swap4\n      swap3\n      pop\n      pop\n      pop\n      jump\t// out\n        /* \"#utility.yul\":5845:6158   */\n    tag_119:\n        /* \"#utility.yul\":5958:5962   */\n      0x00\n        /* \"#utility.yul\":5996:5998   */\n      0x20\n        /* \"#utility.yul\":5985:5994   */\n      dup3\n        /* \"#utility.yul\":5981:5999   */\n      add\n        /* \"#utility.yul\":5973:5999   */\n      swap1\n      pop\n        /* \"#utility.yul\":6045:6054   */\n      dup2\n        /* \"#utility.yul\":6039:6043   */\n      dup2\n        /* \"#utility.yul\":6035:6055   */\n      sub\n        /* \"#utility.yul\":6031:6032   */\n      0x00\n        /* \"#utility.yul\":6020:6029   */\n      dup4\n        /* \"#utility.yul\":6016:6033   */\n      add\n        /* \"#utility.yul\":6009:6056   */\n      mstore\n        /* \"#utility.yul\":6073:6151   */\n      tag_671\n        /* \"#utility.yul\":6146:6150   */\n      dup2\n        /* \"#utility.yul\":6137:6143   */\n      dup5\n        /* \"#utility.yul\":6073:6151   */\n      tag_529\n      jump\t// in\n    tag_671:\n        /* \"#utility.yul\":6065:6151   */\n      swap1\n      pop\n        /* \"#utility.yul\":5845:6158   */\n      swap3\n      swap2\n      pop\n      pop\n      jump\t// out\n        /* \"#utility.yul\":6164:6493   */\n    tag_124:\n        /* \"#utility.yul\":6223:6229   */\n      0x00\n        /* \"#utility.yul\":6272:6274   */\n      0x20\n        /* \"#utility.yul\":6260:6269   */\n      dup3\n        /* \"#utility.yul\":6251:6258   */\n      dup5\n        /* \"#utility.yul\":6247:6270   */\n      sub\n        /* \"#utility.yul\":6243:6275   */\n      slt\n        /* \"#utility.yul\":6240:6359   */\n      iszero\n      tag_673\n      jumpi\n        /* \"#utility.yul\":6278:6357   */\n      tag_674\n      tag_512\n      jump\t// in\n    tag_674:\n        /* \"#utility.yul\":6240:6359   */\n    tag_673:\n        /* \"#utility.yul\":6398:6399   */\n      0x00\n        /* \"#utility.yul\":6423:6476   */\n      tag_675\n        /* \"#utility.yul\":6468:6475   */\n      dup5\n        /* \"#utility.yul\":6459:6465   */\n      dup3\n        /* \"#utility.yul\":6448:6457   */\n      dup6\n        /* \"#utility.yul\":6444:6466   */\n      add\n        /* \"#utility.yul\":6423:6476   */\n      tag_516\n      jump\t// in\n    tag_675:\n        /* \"#utility.yul\":6413:6476   */\n      swap2\n      pop\n        /* \"#utility.yul\":6369:6486   */\n      pop\n        /* \"#utility.yul\":6164:6493   */\n      swap3\n      swap2\n      pop\n      pop\n      jump\t// out\n        /* \"#utility.yul\":6499:6679   */\n    tag_530:\n        /* \"#utility.yul\":6547:6624   */\n      0x4e487b7100000000000000000000000000000000000000000000000000000000\n        /* \"#utility.yul\":6544:6545   */\n      0x00\n        /* \"#utility.yul\":6537:6625   */\n      mstore\n        /* \"#utility.yul\":6644:6648   */\n      0x11\n        /* \"#utility.yul\":6641:6642   */\n      0x04\n        /* \"#utility.yul\":6634:6649   */\n      mstore\n        /* \"#utility.yul\":6668:6672   */\n      0x24\n        /* \"#utility.yul\":6665:6666   */\n      0x00\n        /* \"#utility.yul\":6658:6673   */\n      revert\n        /* \"#utility.yul\":6685:6879   */\n    tag_138:\n        /* \"#utility.yul\":6725:6729   */\n      0x00\n        /* \"#utility.yul\":6745:6765   */\n      tag_678\n        /* \"#utility.yul\":6763:6764   */\n      dup3\n        /* \"#utility.yul\":6745:6765   */\n      tag_514\n      jump\t// in\n    tag_678:\n        /* \"#utility.yul\":6740:6765   */\n      swap2\n      pop\n        /* \"#utility.yul\":6779:6799   */\n      tag_679\n        /* \"#utility.yul\":6797:6798   */\n      dup4\n        /* \"#utility.yul\":6779:6799   */\n      tag_514\n      jump\t// in\n    tag_679:\n        /* \"#utility.yul\":6774:6799   */\n      swap3\n      pop\n        /* \"#utility.yul\":6823:6824   */\n      dup3\n        /* \"#utility.yul\":6820:6821   */\n      dup3\n        /* \"#utility.yul\":6816:6825   */\n      sub\n        /* \"#utility.yul\":6808:6825   */\n      swap1\n      pop\n        /* \"#utility.yul\":6847:6848   */\n      dup2\n        /* \"#utility.yul\":6841:6845   */\n      dup2\n        /* \"#utility.yul\":6838:6849   */\n      gt\n        /* \"#utility.yul\":6835:6872   */\n      iszero\n      tag_680\n      jumpi\n        /* \"#utility.yul\":6852:6870   */\n      tag_681\n      tag_530\n      jump\t// in\n    tag_681:\n        /* \"#utility.yul\":6835:6872   */\n    tag_680:\n        /* \"#utility.yul\":6685:6879   */\n      swap3\n      swap2\n      pop\n      pop\n      jump\t// out\n        /* \"#utility.yul\":6885:7002   */\n    tag_531:\n        /* \"#utility.yul\":6994:6995   */\n      0x00\n        /* \"#utility.yul\":6991:6992   */\n      dup1\n        /* \"#utility.yul\":6984:6996   */\n      revert\n        /* \"#utility.yul\":7008:7125   */\n    tag_532:\n        /* \"#utility.yul\":7117:7118   */\n      0x00\n        /* \"#utility.yul\":7114:7115   */\n      dup1\n        /* \"#utility.yul\":7107:7119   */\n      revert\n        /* \"#utility.yul\":7131:7311   */\n    tag_533:\n        /* \"#utility.yul\":7179:7256   */\n      0x4e487b7100000000000000000000000000000000000000000000000000000000\n        /* \"#utility.yul\":7176:7177   */\n      0x00\n        /* \"#utility.yul\":7169:7257   */\n      mstore\n        /* \"#utility.yul\":7276:7280   */\n      0x41\n        /* \"#utility.yul\":7273:7274   */\n      0x04\n        /* \"#utility.yul\":7266:7281   */\n      mstore\n        /* \"#utility.yul\":7300:7304   */\n      0x24\n        /* \"#utility.yul\":7297:7298   */\n      0x00\n        /* \"#utility.yul\":7290:7305   */\n      revert\n        /* \"#utility.yul\":7317:7598   */\n    tag_534:\n        /* \"#utility.yul\":7400:7427   */\n      tag_686\n        /* \"#utility.yul\":7422:7426   */\n      dup3\n        /* \"#utility.yul\":7400:7427   */\n      tag_528\n      jump\t// in\n    tag_686:\n        /* \"#utility.yul\":7392:7398   */\n      dup2\n        /* \"#utility.yul\":7388:7428   */\n      add\n        /* \"#utility.yul\":7530:7536   */\n      dup2\n        /* \"#utility.yul\":7518:7528   */\n      dup2\n        /* \"#utility.yul\":7515:7537   */\n      lt\n        /* \"#utility.yul\":7494:7512   */\n      0xffffffffffffffff\n        /* \"#utility.yul\":7482:7492   */\n      dup3\n        /* \"#utility.yul\":7479:7513   */\n      gt\n        /* \"#utility.yul\":7476:7538   */\n      or\n        /* \"#utility.yul\":7473:7561   */\n      iszero\n      tag_687\n      jumpi\n        /* \"#utility.yul\":7541:7559   */\n      tag_688\n      tag_533\n      jump\t// in\n    tag_688:\n        /* \"#utility.yul\":7473:7561   */\n    tag_687:\n        /* \"#utility.yul\":7581:7591   */\n      dup1\n        /* \"#utility.yul\":7577:7579   */\n      0x40\n        /* \"#utility.yul\":7570:7592   */\n      mstore\n        /* \"#utility.yul\":7360:7598   */\n      pop\n        /* \"#utility.yul\":7317:7598   */\n      pop\n      pop\n      jump\t// out\n        /* \"#utility.yul\":7604:7733   */\n    tag_535:\n        /* \"#utility.yul\":7638:7644   */\n      0x00\n        /* \"#utility.yul\":7665:7685   */\n      tag_690\n      tag_511\n      jump\t// in\n    tag_690:\n        /* \"#utility.yul\":7655:7685   */\n      swap1\n      pop\n        /* \"#utility.yul\":7694:7727   */\n      tag_691\n        /* \"#utility.yul\":7722:7726   */\n      dup3\n        /* \"#utility.yul\":7714:7720   */\n      dup3\n        /* \"#utility.yul\":7694:7727   */\n      tag_534\n      jump\t// in\n    tag_691:\n        /* \"#utility.yul\":7604:7733   */\n      swap2\n      swap1\n      pop\n      jump\t// out\n        /* \"#utility.yul\":7739:8047   */\n    tag_536:\n        /* \"#utility.yul\":7801:7805   */\n      0x00\n        /* \"#utility.yul\":7891:7909   */\n      0xffffffffffffffff\n        /* \"#utility.yul\":7883:7889   */\n      dup3\n        /* \"#utility.yul\":7880:7910   */\n      gt\n        /* \"#utility.yul\":7877:7933   */\n      iszero\n      tag_693\n      jumpi\n        /* \"#utility.yul\":7913:7931   */\n      tag_694\n      tag_533\n      jump\t// in\n    tag_694:\n        /* \"#utility.yul\":7877:7933   */\n    tag_693:\n        /* \"#utility.yul\":7951:7980   */\n      tag_695\n        /* \"#utility.yul\":7973:7979   */\n      dup3\n        /* \"#utility.yul\":7951:7980   */\n      tag_528\n      jump\t// in\n    tag_695:\n        /* \"#utility.yul\":7943:7980   */\n      swap1\n      pop\n        /* \"#utility.yul\":8035:8039   */\n      0x20\n        /* \"#utility.yul\":8029:8033   */\n      dup2\n        /* \"#utility.yul\":8025:8040   */\n      add\n        /* \"#utility.yul\":8017:8040   */\n      swap1\n      pop\n        /* \"#utility.yul\":7739:8047   */\n      swap2\n      swap1\n      pop\n      jump\t// out\n        /* \"#utility.yul\":8053:8487   */\n    tag_537:\n        /* \"#utility.yul\":8142:8147   */\n      0x00\n        /* \"#utility.yul\":8167:8233   */\n      tag_697\n        /* \"#utility.yul\":8183:8232   */\n      tag_698\n        /* \"#utility.yul\":8225:8231   */\n      dup5\n        /* \"#utility.yul\":8183:8232   */\n      tag_536\n      jump\t// in\n    tag_698:\n        /* \"#utility.yul\":8167:8233   */\n      tag_535\n      jump\t// in\n    tag_697:\n        /* \"#utility.yul\":8158:8233   */\n      swap1\n      pop\n        /* \"#utility.yul\":8256:8262   */\n      dup3\n        /* \"#utility.yul\":8249:8254   */\n      dup2\n        /* \"#utility.yul\":8242:8263   */\n      mstore\n        /* \"#utility.yul\":8294:8298   */\n      0x20\n        /* \"#utility.yul\":8287:8292   */\n      dup2\n        /* \"#utility.yul\":8283:8299   */\n      add\n        /* \"#utility.yul\":8332:8335   */\n      dup5\n        /* \"#utility.yul\":8323:8329   */\n      dup5\n        /* \"#utility.yul\":8318:8321   */\n      dup5\n        /* \"#utility.yul\":8314:8330   */\n      add\n        /* \"#utility.yul\":8311:8336   */\n      gt\n        /* \"#utility.yul\":8308:8420   */\n      iszero\n      tag_699\n      jumpi\n        /* \"#utility.yul\":8339:8418   */\n      tag_700\n      tag_532\n      jump\t// in\n    tag_700:\n        /* \"#utility.yul\":8308:8420   */\n    tag_699:\n        /* \"#utility.yul\":8429:8481   */\n      tag_701\n        /* \"#utility.yul\":8474:8480   */\n      dup5\n        /* \"#utility.yul\":8469:8472   */\n      dup3\n        /* \"#utility.yul\":8464:8467   */\n      dup6\n        /* \"#utility.yul\":8429:8481   */\n      tag_527\n      jump\t// in\n    tag_701:\n        /* \"#utility.yul\":8148:8487   */\n      pop\n        /* \"#utility.yul\":8053:8487   */\n      swap4\n      swap3\n      pop\n      pop\n      pop\n      jump\t// out\n        /* \"#utility.yul\":8507:8862   */\n    tag_538:\n        /* \"#utility.yul\":8574:8579   */\n      0x00\n        /* \"#utility.yul\":8623:8626   */\n      dup3\n        /* \"#utility.yul\":8616:8620   */\n      0x1f\n        /* \"#utility.yul\":8608:8614   */\n      dup4\n        /* \"#utility.yul\":8604:8621   */\n      add\n        /* \"#utility.yul\":8600:8627   */\n      slt\n        /* \"#utility.yul\":8590:8712   */\n      tag_703\n      jumpi\n        /* \"#utility.yul\":8631:8710   */\n      tag_704\n      tag_531\n      jump\t// in\n    tag_704:\n        /* \"#utility.yul\":8590:8712   */\n    tag_703:\n        /* \"#utility.yul\":8741:8747   */\n      dup2\n        /* \"#utility.yul\":8735:8748   */\n      mload\n        /* \"#utility.yul\":8766:8856   */\n      tag_705\n        /* \"#utility.yul\":8852:8855   */\n      dup5\n        /* \"#utility.yul\":8844:8850   */\n      dup3\n        /* \"#utility.yul\":8837:8841   */\n      0x20\n        /* \"#utility.yul\":8829:8835   */\n      dup7\n        /* \"#utility.yul\":8825:8842   */\n      add\n        /* \"#utility.yul\":8766:8856   */\n      tag_537\n      jump\t// in\n    tag_705:\n        /* \"#utility.yul\":8757:8856   */\n      swap2\n      pop\n        /* \"#utility.yul\":8580:8862   */\n      pop\n        /* \"#utility.yul\":8507:8862   */\n      swap3\n      swap2\n      pop\n      pop\n      jump\t// out\n        /* \"#utility.yul\":8868:9392   */\n    tag_142:\n        /* \"#utility.yul\":8948:8954   */\n      0x00\n        /* \"#utility.yul\":8997:8999   */\n      0x20\n        /* \"#utility.yul\":8985:8994   */\n      dup3\n        /* \"#utility.yul\":8976:8983   */\n      dup5\n        /* \"#utility.yul\":8972:8995   */\n      sub\n        /* \"#utility.yul\":8968:9000   */\n      slt\n        /* \"#utility.yul\":8965:9084   */\n      iszero\n      tag_707\n      jumpi\n        /* \"#utility.yul\":9003:9082   */\n      tag_708\n      tag_512\n      jump\t// in\n    tag_708:\n        /* \"#utility.yul\":8965:9084   */\n    tag_707:\n        /* \"#utility.yul\":9144:9145   */\n      0x00\n        /* \"#utility.yul\":9133:9142   */\n      dup3\n        /* \"#utility.yul\":9129:9146   */\n      add\n        /* \"#utility.yul\":9123:9147   */\n      mload\n        /* \"#utility.yul\":9174:9192   */\n      0xffffffffffffffff\n        /* \"#utility.yul\":9166:9172   */\n      dup2\n        /* \"#utility.yul\":9163:9193   */\n      gt\n        /* \"#utility.yul\":9160:9277   */\n      iszero\n      tag_709\n      jumpi\n        /* \"#utility.yul\":9196:9275   */\n      tag_710\n      tag_513\n      jump\t// in\n    tag_710:\n        /* \"#utility.yul\":9160:9277   */\n    tag_709:\n        /* \"#utility.yul\":9301:9375   */\n      tag_711\n        /* \"#utility.yul\":9367:9374   */\n      dup5\n        /* \"#utility.yul\":9358:9364   */\n      dup3\n        /* \"#utility.yul\":9347:9356   */\n      dup6\n        /* \"#utility.yul\":9343:9365   */\n      add\n        /* \"#utility.yul\":9301:9375   */\n      tag_538\n      jump\t// in\n    tag_711:\n        /* \"#utility.yul\":9291:9375   */\n      swap2\n      pop\n        /* \"#utility.yul\":9094:9385   */\n      pop\n        /* \"#utility.yul\":8868:9392   */\n      swap3\n      swap2\n      pop\n      pop\n      jump\t// out\n        /* \"#utility.yul\":9398:9546   */\n    tag_539:\n        /* \"#utility.yul\":9500:9511   */\n      0x00\n        /* \"#utility.yul\":9537:9540   */\n      dup2\n        /* \"#utility.yul\":9522:9540   */\n      swap1\n      pop\n        /* \"#utility.yul\":9398:9546   */\n      swap3\n      swap2\n      pop\n      pop\n      jump\t// out\n        /* \"#utility.yul\":9552:9797   */\n    tag_540:\n        /* \"#utility.yul\":9692:9726   */\n      0x4e6f7420656e6f75676820706f696e74732e2054686520636f6e747261637420\n        /* \"#utility.yul\":9688:9689   */\n      0x00\n        /* \"#utility.yul\":9680:9686   */\n      dup3\n        /* \"#utility.yul\":9676:9690   */\n      add\n        /* \"#utility.yul\":9669:9727   */\n      mstore\n        /* \"#utility.yul\":9761:9789   */\n      0x6d75737420626520636861726765642077697468206d6f726520000000000000\n        /* \"#utility.yul\":9756:9758   */\n      0x20\n        /* \"#utility.yul\":9748:9754   */\n      dup3\n        /* \"#utility.yul\":9744:9759   */\n      add\n        /* \"#utility.yul\":9737:9790   */\n      mstore\n        /* \"#utility.yul\":9552:9797   */\n      pop\n      jump\t// out\n        /* \"#utility.yul\":9803:10205   */\n    tag_541:\n        /* \"#utility.yul\":9963:9966   */\n      0x00\n        /* \"#utility.yul\":9984:10069   */\n      tag_715\n        /* \"#utility.yul\":10066:10068   */\n      0x3a\n        /* \"#utility.yul\":10061:10064   */\n      dup4\n        /* \"#utility.yul\":9984:10069   */\n      tag_539\n      jump\t// in\n    tag_715:\n        /* \"#utility.yul\":9977:10069   */\n      swap2\n      pop\n        /* \"#utility.yul\":10078:10171   */\n      tag_716\n        /* \"#utility.yul\":10167:10170   */\n      dup3\n        /* \"#utility.yul\":10078:10171   */\n      tag_540\n      jump\t// in\n    tag_716:\n        /* \"#utility.yul\":10196:10198   */\n      0x3a\n        /* \"#utility.yul\":10191:10194   */\n      dup3\n        /* \"#utility.yul\":10187:10199   */\n      add\n        /* \"#utility.yul\":10180:10199   */\n      swap1\n      pop\n        /* \"#utility.yul\":9803:10205   */\n      swap2\n      swap1\n      pop\n      jump\t// out\n        /* \"#utility.yul\":10211:10601   */\n    tag_542:\n        /* \"#utility.yul\":10317:10320   */\n      0x00\n        /* \"#utility.yul\":10345:10384   */\n      tag_718\n        /* \"#utility.yul\":10378:10383   */\n      dup3\n        /* \"#utility.yul\":10345:10384   */\n      tag_525\n      jump\t// in\n    tag_718:\n        /* \"#utility.yul\":10400:10489   */\n      tag_719\n        /* \"#utility.yul\":10482:10488   */\n      dup2\n        /* \"#utility.yul\":10477:10480   */\n      dup6\n        /* \"#utility.yul\":10400:10489   */\n      tag_539\n      jump\t// in\n    tag_719:\n        /* \"#utility.yul\":10393:10489   */\n      swap4\n      pop\n        /* \"#utility.yul\":10498:10563   */\n      tag_720\n        /* \"#utility.yul\":10556:10562   */\n      dup2\n        /* \"#utility.yul\":10551:10554   */\n      dup6\n        /* \"#utility.yul\":10544:10548   */\n      0x20\n        /* \"#utility.yul\":10537:10542   */\n      dup7\n        /* \"#utility.yul\":10533:10549   */\n      add\n        /* \"#utility.yul\":10498:10563   */\n      tag_527\n      jump\t// in\n    tag_720:\n        /* \"#utility.yul\":10588:10594   */\n      dup1\n        /* \"#utility.yul\":10583:10586   */\n      dup5\n        /* \"#utility.yul\":10579:10595   */\n      add\n        /* \"#utility.yul\":10572:10595   */\n      swap2\n      pop\n        /* \"#utility.yul\":10321:10601   */\n      pop\n        /* \"#utility.yul\":10211:10601   */\n      swap3\n      swap2\n      pop\n      pop\n      jump\t// out\n        /* \"#utility.yul\":10607:10785   */\n    tag_543:\n        /* \"#utility.yul\":10775:10778   */\n      0x2100000000000000000000000000000000000000000000000000000000000000\n        /* \"#utility.yul\":10770:10773   */\n      dup2\n        /* \"#utility.yul\":10763:10779   */\n      mstore\n        /* \"#utility.yul\":10607:10785   */\n      pop\n      jump\t// out\n        /* \"#utility.yul\":10791:11596   */\n    tag_144:\n        /* \"#utility.yul\":11114:11117   */\n      0x00\n        /* \"#utility.yul\":11136:11284   */\n      tag_723\n        /* \"#utility.yul\":11280:11283   */\n      dup3\n        /* \"#utility.yul\":11136:11284   */\n      tag_541\n      jump\t// in\n    tag_723:\n        /* \"#utility.yul\":11129:11284   */\n      swap2\n      pop\n        /* \"#utility.yul\":11301:11396   */\n      tag_724\n        /* \"#utility.yul\":11392:11395   */\n      dup3\n        /* \"#utility.yul\":11383:11389   */\n      dup5\n        /* \"#utility.yul\":11301:11396   */\n      tag_542\n      jump\t// in\n    tag_724:\n        /* \"#utility.yul\":11294:11396   */\n      swap2\n      pop\n        /* \"#utility.yul\":11406:11543   */\n      tag_725\n        /* \"#utility.yul\":11539:11542   */\n      dup3\n        /* \"#utility.yul\":11406:11543   */\n      tag_543\n      jump\t// in\n    tag_725:\n        /* \"#utility.yul\":11568:11569   */\n      0x01\n        /* \"#utility.yul\":11563:11566   */\n      dup3\n        /* \"#utility.yul\":11559:11570   */\n      add\n        /* \"#utility.yul\":11552:11570   */\n      swap2\n      pop\n        /* \"#utility.yul\":11587:11590   */\n      dup2\n        /* \"#utility.yul\":11580:11590   */\n      swap1\n      pop\n        /* \"#utility.yul\":10791:11596   */\n      swap3\n      swap2\n      pop\n      pop\n      jump\t// out\n        /* \"#utility.yul\":11602:11827   */\n    tag_544:\n        /* \"#utility.yul\":11742:11776   */\n      0x57697468647261772076616c7565206d75737420626520677265617465722074\n        /* \"#utility.yul\":11738:11739   */\n      0x00\n        /* \"#utility.yul\":11730:11736   */\n      dup3\n        /* \"#utility.yul\":11726:11740   */\n      add\n        /* \"#utility.yul\":11719:11777   */\n      mstore\n        /* \"#utility.yul\":11811:11819   */\n      0x68616e2030210000000000000000000000000000000000000000000000000000\n        /* \"#utility.yul\":11806:11808   */\n      0x20\n        /* \"#utility.yul\":11798:11804   */\n      dup3\n        /* \"#utility.yul\":11794:11809   */\n      add\n        /* \"#utility.yul\":11787:11820   */\n      mstore\n        /* \"#utility.yul\":11602:11827   */\n      pop\n      jump\t// out\n        /* \"#utility.yul\":11833:12199   */\n    tag_545:\n        /* \"#utility.yul\":11975:11978   */\n      0x00\n        /* \"#utility.yul\":11996:12063   */\n      tag_728\n        /* \"#utility.yul\":12060:12062   */\n      0x26\n        /* \"#utility.yul\":12055:12058   */\n      dup4\n        /* \"#utility.yul\":11996:12063   */\n      tag_526\n      jump\t// in\n    tag_728:\n        /* \"#utility.yul\":11989:12063   */\n      swap2\n      pop\n        /* \"#utility.yul\":12072:12165   */\n      tag_729\n        /* \"#utility.yul\":12161:12164   */\n      dup3\n        /* \"#utility.yul\":12072:12165   */\n      tag_544\n      jump\t// in\n    tag_729:\n        /* \"#utility.yul\":12190:12192   */\n      0x40\n        /* \"#utility.yul\":12185:12188   */\n      dup3\n        /* \"#utility.yul\":12181:12193   */\n      add\n        /* \"#utility.yul\":12174:12193   */\n      swap1\n      pop\n        /* \"#utility.yul\":11833:12199   */\n      swap2\n      swap1\n      pop\n      jump\t// out\n        /* \"#utility.yul\":12205:12624   */\n    tag_149:\n        /* \"#utility.yul\":12371:12375   */\n      0x00\n        /* \"#utility.yul\":12409:12411   */\n      0x20\n        /* \"#utility.yul\":12398:12407   */\n      dup3\n        /* \"#utility.yul\":12394:12412   */\n      add\n        /* \"#utility.yul\":12386:12412   */\n      swap1\n      pop\n        /* \"#utility.yul\":12458:12467   */\n      dup2\n        /* \"#utility.yul\":12452:12456   */\n      dup2\n        /* \"#utility.yul\":12448:12468   */\n      sub\n        /* \"#utility.yul\":12444:12445   */\n      0x00\n        /* \"#utility.yul\":12433:12442   */\n      dup4\n        /* \"#utility.yul\":12429:12446   */\n      add\n        /* \"#utility.yul\":12422:12469   */\n      mstore\n        /* \"#utility.yul\":12486:12617   */\n      tag_731\n        /* \"#utility.yul\":12612:12616   */\n      dup2\n        /* \"#utility.yul\":12486:12617   */\n      tag_545\n      jump\t// in\n    tag_731:\n        /* \"#utility.yul\":12478:12617   */\n      swap1\n      pop\n        /* \"#utility.yul\":12205:12624   */\n      swap2\n      swap1\n      pop\n      jump\t// out\n        /* \"#utility.yul\":12630:12821   */\n    tag_151:\n        /* \"#utility.yul\":12670:12673   */\n      0x00\n        /* \"#utility.yul\":12689:12709   */\n      tag_733\n        /* \"#utility.yul\":12707:12708   */\n      dup3\n        /* \"#utility.yul\":12689:12709   */\n      tag_514\n      jump\t// in\n    tag_733:\n        /* \"#utility.yul\":12684:12709   */\n      swap2\n      pop\n        /* \"#utility.yul\":12723:12743   */\n      tag_734\n        /* \"#utility.yul\":12741:12742   */\n      dup4\n        /* \"#utility.yul\":12723:12743   */\n      tag_514\n      jump\t// in\n    tag_734:\n        /* \"#utility.yul\":12718:12743   */\n      swap3\n      pop\n        /* \"#utility.yul\":12766:12767   */\n      dup3\n        /* \"#utility.yul\":12763:12764   */\n      dup3\n        /* \"#utility.yul\":12759:12768   */\n      add\n        /* \"#utility.yul\":12752:12768   */\n      swap1\n      pop\n        /* \"#utility.yul\":12787:12790   */\n      dup1\n        /* \"#utility.yul\":12784:12785   */\n      dup3\n        /* \"#utility.yul\":12781:12791   */\n      gt\n        /* \"#utility.yul\":12778:12814   */\n      iszero\n      tag_735\n      jumpi\n        /* \"#utility.yul\":12794:12812   */\n      tag_736\n      tag_530\n      jump\t// in\n    tag_736:\n        /* \"#utility.yul\":12778:12814   */\n    tag_735:\n        /* \"#utility.yul\":12630:12821   */\n      swap3\n      swap2\n      pop\n      pop\n      jump\t// out\n        /* \"#utility.yul\":12827:12991   */\n    tag_546:\n        /* \"#utility.yul\":12967:12983   */\n      0x4e6f742061637469766174656421000000000000000000000000000000000000\n        /* \"#utility.yul\":12963:12964   */\n      0x00\n        /* \"#utility.yul\":12955:12961   */\n      dup3\n        /* \"#utility.yul\":12951:12965   */\n      add\n        /* \"#utility.yul\":12944:12984   */\n      mstore\n        /* \"#utility.yul\":12827:12991   */\n      pop\n      jump\t// out\n        /* \"#utility.yul\":12997:13363   */\n    tag_547:\n        /* \"#utility.yul\":13139:13142   */\n      0x00\n        /* \"#utility.yul\":13160:13227   */\n      tag_739\n        /* \"#utility.yul\":13224:13226   */\n      0x0e\n        /* \"#utility.yul\":13219:13222   */\n      dup4\n        /* \"#utility.yul\":13160:13227   */\n      tag_526\n      jump\t// in\n    tag_739:\n        /* \"#utility.yul\":13153:13227   */\n      swap2\n      pop\n        /* \"#utility.yul\":13236:13329   */\n      tag_740\n        /* \"#utility.yul\":13325:13328   */\n      dup3\n        /* \"#utility.yul\":13236:13329   */\n      tag_546\n      jump\t// in\n    tag_740:\n        /* \"#utility.yul\":13354:13356   */\n      0x20\n        /* \"#utility.yul\":13349:13352   */\n      dup3\n        /* \"#utility.yul\":13345:13357   */\n      add\n        /* \"#utility.yul\":13338:13357   */\n      swap1\n      pop\n        /* \"#utility.yul\":12997:13363   */\n      swap2\n      swap1\n      pop\n      jump\t// out\n        /* \"#utility.yul\":13369:13788   */\n    tag_172:\n        /* \"#utility.yul\":13535:13539   */\n      0x00\n        /* \"#utility.yul\":13573:13575   */\n      0x20\n        /* \"#utility.yul\":13562:13571   */\n      dup3\n        /* \"#utility.yul\":13558:13576   */\n      add\n        /* \"#utility.yul\":13550:13576   */\n      swap1\n      pop\n        /* \"#utility.yul\":13622:13631   */\n      dup2\n        /* \"#utility.yul\":13616:13620   */\n      dup2\n        /* \"#utility.yul\":13612:13632   */\n      sub\n        /* \"#utility.yul\":13608:13609   */\n      0x00\n        /* \"#utility.yul\":13597:13606   */\n      dup4\n        /* \"#utility.yul\":13593:13610   */\n      add\n        /* \"#utility.yul\":13586:13633   */\n      mstore\n        /* \"#utility.yul\":13650:13781   */\n      tag_742\n        /* \"#utility.yul\":13776:13780   */\n      dup2\n        /* \"#utility.yul\":13650:13781   */\n      tag_547\n      jump\t// in\n    tag_742:\n        /* \"#utility.yul\":13642:13781   */\n      swap1\n      pop\n        /* \"#utility.yul\":13369:13788   */\n      swap2\n      swap1\n      pop\n      jump\t// out\n        /* \"#utility.yul\":13794:13959   */\n    tag_548:\n        /* \"#utility.yul\":13934:13951   */\n      0x4e6f7420417574686f72697a6564210000000000000000000000000000000000\n        /* \"#utility.yul\":13930:13931   */\n      0x00\n        /* \"#utility.yul\":13922:13928   */\n      dup3\n        /* \"#utility.yul\":13918:13932   */\n      add\n        /* \"#utility.yul\":13911:13952   */\n      mstore\n        /* \"#utility.yul\":13794:13959   */\n      pop\n      jump\t// out\n        /* \"#utility.yul\":13965:14331   */\n    tag_549:\n        /* \"#utility.yul\":14107:14110   */\n      0x00\n        /* \"#utility.yul\":14128:14195   */\n      tag_745\n        /* \"#utility.yul\":14192:14194   */\n      0x0f\n        /* \"#utility.yul\":14187:14190   */\n      dup4\n        /* \"#utility.yul\":14128:14195   */\n      tag_526\n      jump\t// in\n    tag_745:\n        /* \"#utility.yul\":14121:14195   */\n      swap2\n      pop\n        /* \"#utility.yul\":14204:14297   */\n      tag_746\n        /* \"#utility.yul\":14293:14296   */\n      dup3\n        /* \"#utility.yul\":14204:14297   */\n      tag_548\n      jump\t// in\n    tag_746:\n        /* \"#utility.yul\":14322:14324   */\n      0x20\n        /* \"#utility.yul\":14317:14320   */\n      dup3\n        /* \"#utility.yul\":14313:14325   */\n      add\n        /* \"#utility.yul\":14306:14325   */\n      swap1\n      pop\n        /* \"#utility.yul\":13965:14331   */\n      swap2\n      swap1\n      pop\n      jump\t// out\n        /* \"#utility.yul\":14337:14756   */\n    tag_184:\n        /* \"#utility.yul\":14503:14507   */\n      0x00\n        /* \"#utility.yul\":14541:14543   */\n      0x20\n        /* \"#utility.yul\":14530:14539   */\n      dup3\n        /* \"#utility.yul\":14526:14544   */\n      add\n        /* \"#utility.yul\":14518:14544   */\n      swap1\n      pop\n        /* \"#utility.yul\":14590:14599   */\n      dup2\n        /* \"#utility.yul\":14584:14588   */\n      dup2\n        /* \"#utility.yul\":14580:14600   */\n      sub\n        /* \"#utility.yul\":14576:14577   */\n      0x00\n        /* \"#utility.yul\":14565:14574   */\n      dup4\n        /* \"#utility.yul\":14561:14578   */\n      add\n        /* \"#utility.yul\":14554:14601   */\n      mstore\n        /* \"#utility.yul\":14618:14749   */\n      tag_748\n        /* \"#utility.yul\":14744:14748   */\n      dup2\n        /* \"#utility.yul\":14618:14749   */\n      tag_549\n      jump\t// in\n    tag_748:\n        /* \"#utility.yul\":14610:14749   */\n      swap1\n      pop\n        /* \"#utility.yul\":14337:14756   */\n      swap2\n      swap1\n      pop\n      jump\t// out\n        /* \"#utility.yul\":14762:14935   */\n    tag_550:\n        /* \"#utility.yul\":14902:14927   */\n      0x41637469766174696f6e206e6f7420616c6c6f77656421000000000000000000\n        /* \"#utility.yul\":14898:14899   */\n      0x00\n        /* \"#utility.yul\":14890:14896   */\n      dup3\n        /* \"#utility.yul\":14886:14900   */\n      add\n        /* \"#utility.yul\":14879:14928   */\n      mstore\n        /* \"#utility.yul\":14762:14935   */\n      pop\n      jump\t// out\n        /* \"#utility.yul\":14941:15307   */\n    tag_551:\n        /* \"#utility.yul\":15083:15086   */\n      0x00\n        /* \"#utility.yul\":15104:15171   */\n      tag_751\n        /* \"#utility.yul\":15168:15170   */\n      0x17\n        /* \"#utility.yul\":15163:15166   */\n      dup4\n        /* \"#utility.yul\":15104:15171   */\n      tag_526\n      jump\t// in\n    tag_751:\n        /* \"#utility.yul\":15097:15171   */\n      swap2\n      pop\n        /* \"#utility.yul\":15180:15273   */\n      tag_752\n        /* \"#utility.yul\":15269:15272   */\n      dup3\n        /* \"#utility.yul\":15180:15273   */\n      tag_550\n      jump\t// in\n    tag_752:\n        /* \"#utility.yul\":15298:15300   */\n      0x20\n        /* \"#utility.yul\":15293:15296   */\n      dup3\n        /* \"#utility.yul\":15289:15301   */\n      add\n        /* \"#utility.yul\":15282:15301   */\n      swap1\n      pop\n        /* \"#utility.yul\":14941:15307   */\n      swap2\n      swap1\n      pop\n      jump\t// out\n        /* \"#utility.yul\":15313:15732   */\n    tag_195:\n        /* \"#utility.yul\":15479:15483   */\n      0x00\n        /* \"#utility.yul\":15517:15519   */\n      0x20\n        /* \"#utility.yul\":15506:15515   */\n      dup3\n        /* \"#utility.yul\":15502:15520   */\n      add\n        /* \"#utility.yul\":15494:15520   */\n      swap1\n      pop\n        /* \"#utility.yul\":15566:15575   */\n      dup2\n        /* \"#utility.yul\":15560:15564   */\n      dup2\n        /* \"#utility.yul\":15556:15576   */\n      sub\n        /* \"#utility.yul\":15552:15553   */\n      0x00\n        /* \"#utility.yul\":15541:15550   */\n      dup4\n        /* \"#utility.yul\":15537:15554   */\n      add\n        /* \"#utility.yul\":15530:15577   */\n      mstore\n        /* \"#utility.yul\":15594:15725   */\n      tag_754\n        /* \"#utility.yul\":15720:15724   */\n      dup2\n        /* \"#utility.yul\":15594:15725   */\n      tag_551\n      jump\t// in\n    tag_754:\n        /* \"#utility.yul\":15586:15725   */\n      swap1\n      pop\n        /* \"#utility.yul\":15313:15732   */\n      swap2\n      swap1\n      pop\n      jump\t// out\n        /* \"#utility.yul\":15738:15906   */\n    tag_552:\n        /* \"#utility.yul\":15878:15898   */\n      0x416c7265616479206163746976617465642e0000000000000000000000000000\n        /* \"#utility.yul\":15874:15875   */\n      0x00\n        /* \"#utility.yul\":15866:15872   */\n      dup3\n        /* \"#utility.yul\":15862:15876   */\n      add\n        /* \"#utility.yul\":15855:15899   */\n      mstore\n        /* \"#utility.yul\":15738:15906   */\n      pop\n      jump\t// out\n        /* \"#utility.yul\":15912:16278   */\n    tag_553:\n        /* \"#utility.yul\":16054:16057   */\n      0x00\n        /* \"#utility.yul\":16075:16142   */\n      tag_757\n        /* \"#utility.yul\":16139:16141   */\n      0x12\n        /* \"#utility.yul\":16134:16137   */\n      dup4\n        /* \"#utility.yul\":16075:16142   */\n      tag_526\n      jump\t// in\n    tag_757:\n        /* \"#utility.yul\":16068:16142   */\n      swap2\n      pop\n        /* \"#utility.yul\":16151:16244   */\n      tag_758\n        /* \"#utility.yul\":16240:16243   */\n      dup3\n        /* \"#utility.yul\":16151:16244   */\n      tag_552\n      jump\t// in\n    tag_758:\n        /* \"#utility.yul\":16269:16271   */\n      0x20\n        /* \"#utility.yul\":16264:16267   */\n      dup3\n        /* \"#utility.yul\":16260:16272   */\n      add\n        /* \"#utility.yul\":16253:16272   */\n      swap1\n      pop\n        /* \"#utility.yul\":15912:16278   */\n      swap2\n      swap1\n      pop\n      jump\t// out\n        /* \"#utility.yul\":16284:16703   */\n    tag_198:\n        /* \"#utility.yul\":16450:16454   */\n      0x00\n        /* \"#utility.yul\":16488:16490   */\n      0x20\n        /* \"#utility.yul\":16477:16486   */\n      dup3\n        /* \"#utility.yul\":16473:16491   */\n      add\n        /* \"#utility.yul\":16465:16491   */\n      swap1\n      pop\n        /* \"#utility.yul\":16537:16546   */\n      dup2\n        /* \"#utility.yul\":16531:16535   */\n      dup2\n        /* \"#utility.yul\":16527:16547   */\n      sub\n        /* \"#utility.yul\":16523:16524   */\n      0x00\n        /* \"#utility.yul\":16512:16521   */\n      dup4\n        /* \"#utility.yul\":16508:16525   */\n      add\n        /* \"#utility.yul\":16501:16548   */\n      mstore\n        /* \"#utility.yul\":16565:16696   */\n      tag_760\n        /* \"#utility.yul\":16691:16695   */\n      dup2\n        /* \"#utility.yul\":16565:16696   */\n      tag_553\n      jump\t// in\n    tag_760:\n        /* \"#utility.yul\":16557:16696   */\n      swap1\n      pop\n        /* \"#utility.yul\":16284:16703   */\n      swap2\n      swap1\n      pop\n      jump\t// out\n        /* \"#utility.yul\":16709:16960   */\n    tag_554:\n        /* \"#utility.yul\":16849:16883   */\n      0x4f6e6c79204f776e6572206f7220417574686f72697a65642070617274696369\n        /* \"#utility.yul\":16845:16846   */\n      0x00\n        /* \"#utility.yul\":16837:16843   */\n      dup3\n        /* \"#utility.yul\":16833:16847   */\n      add\n        /* \"#utility.yul\":16826:16884   */\n      mstore\n        /* \"#utility.yul\":16918:16952   */\n      0x7061746f722063616e206163636573732074686973206f7065726174696f6e21\n        /* \"#utility.yul\":16913:16915   */\n      0x20\n        /* \"#utility.yul\":16905:16911   */\n      dup3\n        /* \"#utility.yul\":16901:16916   */\n      add\n        /* \"#utility.yul\":16894:16953   */\n      mstore\n        /* \"#utility.yul\":16709:16960   */\n      pop\n      jump\t// out\n        /* \"#utility.yul\":16966:17332   */\n    tag_555:\n        /* \"#utility.yul\":17108:17111   */\n      0x00\n        /* \"#utility.yul\":17129:17196   */\n      tag_763\n        /* \"#utility.yul\":17193:17195   */\n      0x40\n        /* \"#utility.yul\":17188:17191   */\n      dup4\n        /* \"#utility.yul\":17129:17196   */\n      tag_526\n      jump\t// in\n    tag_763:\n        /* \"#utility.yul\":17122:17196   */\n      swap2\n      pop\n        /* \"#utility.yul\":17205:17298   */\n      tag_764\n        /* \"#utility.yul\":17294:17297   */\n      dup3\n        /* \"#utility.yul\":17205:17298   */\n      tag_554\n      jump\t// in\n    tag_764:\n        /* \"#utility.yul\":17323:17325   */\n      0x40\n        /* \"#utility.yul\":17318:17321   */\n      dup3\n        /* \"#utility.yul\":17314:17326   */\n      add\n        /* \"#utility.yul\":17307:17326   */\n      swap1\n      pop\n        /* \"#utility.yul\":16966:17332   */\n      swap2\n      swap1\n      pop\n      jump\t// out\n        /* \"#utility.yul\":17338:17757   */\n    tag_208:\n        /* \"#utility.yul\":17504:17508   */\n      0x00\n        /* \"#utility.yul\":17542:17544   */\n      0x20\n        /* \"#utility.yul\":17531:17540   */\n      dup3\n        /* \"#utility.yul\":17527:17545   */\n      add\n        /* \"#utility.yul\":17519:17545   */\n      swap1\n      pop\n        /* \"#utility.yul\":17591:17600   */\n      dup2\n        /* \"#utility.yul\":17585:17589   */\n      dup2\n        /* \"#utility.yul\":17581:17601   */\n      sub\n        /* \"#utility.yul\":17577:17578   */\n      0x00\n        /* \"#utility.yul\":17566:17575   */\n      dup4\n        /* \"#utility.yul\":17562:17579   */\n      add\n        /* \"#utility.yul\":17555:17602   */\n      mstore\n        /* \"#utility.yul\":17619:17750   */\n      tag_766\n        /* \"#utility.yul\":17745:17749   */\n      dup2\n        /* \"#utility.yul\":17619:17750   */\n      tag_555\n      jump\t// in\n    tag_766:\n        /* \"#utility.yul\":17611:17750   */\n      swap1\n      pop\n        /* \"#utility.yul\":17338:17757   */\n      swap2\n      swap1\n      pop\n      jump\t// out\n        /* \"#utility.yul\":17763:17933   */\n    tag_556:\n        /* \"#utility.yul\":17903:17925   */\n      0x4e6f7468696e6720746f2077697468647261772e000000000000000000000000\n        /* \"#utility.yul\":17899:17900   */\n      0x00\n        /* \"#utility.yul\":17891:17897   */\n      dup3\n        /* \"#utility.yul\":17887:17901   */\n      add\n        /* \"#utility.yul\":17880:17926   */\n      mstore\n        /* \"#utility.yul\":17763:17933   */\n      pop\n      jump\t// out\n        /* \"#utility.yul\":17939:18305   */\n    tag_557:\n        /* \"#utility.yul\":18081:18084   */\n      0x00\n        /* \"#utility.yul\":18102:18169   */\n      tag_769\n        /* \"#utility.yul\":18166:18168   */\n      0x14\n        /* \"#utility.yul\":18161:18164   */\n      dup4\n        /* \"#utility.yul\":18102:18169   */\n      tag_526\n      jump\t// in\n    tag_769:\n        /* \"#utility.yul\":18095:18169   */\n      swap2\n      pop\n        /* \"#utility.yul\":18178:18271   */\n      tag_770\n        /* \"#utility.yul\":18267:18270   */\n      dup3\n        /* \"#utility.yul\":18178:18271   */\n      tag_556\n      jump\t// in\n    tag_770:\n        /* \"#utility.yul\":18296:18298   */\n      0x20\n        /* \"#utility.yul\":18291:18294   */\n      dup3\n        /* \"#utility.yul\":18287:18299   */\n      add\n        /* \"#utility.yul\":18280:18299   */\n      swap1\n      pop\n        /* \"#utility.yul\":17939:18305   */\n      swap2\n      swap1\n      pop\n      jump\t// out\n        /* \"#utility.yul\":18311:18730   */\n    tag_215:\n        /* \"#utility.yul\":18477:18481   */\n      0x00\n        /* \"#utility.yul\":18515:18517   */\n      0x20\n        /* \"#utility.yul\":18504:18513   */\n      dup3\n        /* \"#utility.yul\":18500:18518   */\n      add\n        /* \"#utility.yul\":18492:18518   */\n      swap1\n      pop\n        /* \"#utility.yul\":18564:18573   */\n      dup2\n        /* \"#utility.yul\":18558:18562   */\n      dup2\n        /* \"#utility.yul\":18554:18574   */\n      sub\n        /* \"#utility.yul\":18550:18551   */\n      0x00\n        /* \"#utility.yul\":18539:18548   */\n      dup4\n        /* \"#utility.yul\":18535:18552   */\n      add\n        /* \"#utility.yul\":18528:18575   */\n      mstore\n        /* \"#utility.yul\":18592:18723   */\n      tag_772\n        /* \"#utility.yul\":18718:18722   */\n      dup2\n        /* \"#utility.yul\":18592:18723   */\n      tag_557\n      jump\t// in\n    tag_772:\n        /* \"#utility.yul\":18584:18723   */\n      swap1\n      pop\n        /* \"#utility.yul\":18311:18730   */\n      swap2\n      swap1\n      pop\n      jump\t// out\n        /* \"#utility.yul\":18736:18918   */\n    tag_558:\n        /* \"#utility.yul\":18876:18910   */\n      0x4e6f7420656e6f7567682062616c616e636520666f7220776974686472617721\n        /* \"#utility.yul\":18872:18873   */\n      0x00\n        /* \"#utility.yul\":18864:18870   */\n      dup3\n        /* \"#utility.yul\":18860:18874   */\n      add\n        /* \"#utility.yul\":18853:18911   */\n      mstore\n        /* \"#utility.yul\":18736:18918   */\n      pop\n      jump\t// out\n        /* \"#utility.yul\":18924:19290   */\n    tag_559:\n        /* \"#utility.yul\":19066:19069   */\n      0x00\n        /* \"#utility.yul\":19087:19154   */\n      tag_775\n        /* \"#utility.yul\":19151:19153   */\n      0x20\n        /* \"#utility.yul\":19146:19149   */\n      dup4\n        /* \"#utility.yul\":19087:19154   */\n      tag_526\n      jump\t// in\n    tag_775:\n        /* \"#utility.yul\":19080:19154   */\n      swap2\n      pop\n        /* \"#utility.yul\":19163:19256   */\n      tag_776\n        /* \"#utility.yul\":19252:19255   */\n      dup3\n        /* \"#utility.yul\":19163:19256   */\n      tag_558\n      jump\t// in\n    tag_776:\n        /* \"#utility.yul\":19281:19283   */\n      0x20\n        /* \"#utility.yul\":19276:19279   */\n      dup3\n        /* \"#utility.yul\":19272:19284   */\n      add\n        /* \"#utility.yul\":19265:19284   */\n      swap1\n      pop\n        /* \"#utility.yul\":18924:19290   */\n      swap2\n      swap1\n      pop\n      jump\t// out\n        /* \"#utility.yul\":19296:19715   */\n    tag_219:\n        /* \"#utility.yul\":19462:19466   */\n      0x00\n        /* \"#utility.yul\":19500:19502   */\n      0x20\n        /* \"#utility.yul\":19489:19498   */\n      dup3\n        /* \"#utility.yul\":19485:19503   */\n      add\n        /* \"#utility.yul\":19477:19503   */\n      swap1\n      pop\n        /* \"#utility.yul\":19549:19558   */\n      dup2\n        /* \"#utility.yul\":19543:19547   */\n      dup2\n        /* \"#utility.yul\":19539:19559   */\n      sub\n        /* \"#utility.yul\":19535:19536   */\n      0x00\n        /* \"#utility.yul\":19524:19533   */\n      dup4\n        /* \"#utility.yul\":19520:19537   */\n      add\n        /* \"#utility.yul\":19513:19560   */\n      mstore\n        /* \"#utility.yul\":19577:19708   */\n      tag_778\n        /* \"#utility.yul\":19703:19707   */\n      dup2\n        /* \"#utility.yul\":19577:19708   */\n      tag_559\n      jump\t// in\n    tag_778:\n        /* \"#utility.yul\":19569:19708   */\n      swap1\n      pop\n        /* \"#utility.yul\":19296:19715   */\n      swap2\n      swap1\n      pop\n      jump\t// out\n        /* \"#utility.yul\":19721:19890   */\n    tag_560:\n        /* \"#utility.yul\":19861:19882   */\n      0x4e6f7420656e6f7567682062616c616e63652100000000000000000000000000\n        /* \"#utility.yul\":19857:19858   */\n      0x00\n        /* \"#utility.yul\":19849:19855   */\n      dup3\n        /* \"#utility.yul\":19845:19859   */\n      add\n        /* \"#utility.yul\":19838:19883   */\n      mstore\n        /* \"#utility.yul\":19721:19890   */\n      pop\n      jump\t// out\n        /* \"#utility.yul\":19896:20262   */\n    tag_561:\n        /* \"#utility.yul\":20038:20041   */\n      0x00\n        /* \"#utility.yul\":20059:20126   */\n      tag_781\n        /* \"#utility.yul\":20123:20125   */\n      0x13\n        /* \"#utility.yul\":20118:20121   */\n      dup4\n        /* \"#utility.yul\":20059:20126   */\n      tag_526\n      jump\t// in\n    tag_781:\n        /* \"#utility.yul\":20052:20126   */\n      swap2\n      pop\n        /* \"#utility.yul\":20135:20228   */\n      tag_782\n        /* \"#utility.yul\":20224:20227   */\n      dup3\n        /* \"#utility.yul\":20135:20228   */\n      tag_560\n      jump\t// in\n    tag_782:\n        /* \"#utility.yul\":20253:20255   */\n      0x20\n        /* \"#utility.yul\":20248:20251   */\n      dup3\n        /* \"#utility.yul\":20244:20256   */\n      add\n        /* \"#utility.yul\":20237:20256   */\n      swap1\n      pop\n        /* \"#utility.yul\":19896:20262   */\n      swap2\n      swap1\n      pop\n      jump\t// out\n        /* \"#utility.yul\":20268:20687   */\n    tag_239:\n        /* \"#utility.yul\":20434:20438   */\n      0x00\n        /* \"#utility.yul\":20472:20474   */\n      0x20\n        /* \"#utility.yul\":20461:20470   */\n      dup3\n        /* \"#utility.yul\":20457:20475   */\n      add\n        /* \"#utility.yul\":20449:20475   */\n      swap1\n      pop\n        /* \"#utility.yul\":20521:20530   */\n      dup2\n        /* \"#utility.yul\":20515:20519   */\n      dup2\n        /* \"#utility.yul\":20511:20531   */\n      sub\n        /* \"#utility.yul\":20507:20508   */\n      0x00\n        /* \"#utility.yul\":20496:20505   */\n      dup4\n        /* \"#utility.yul\":20492:20509   */\n      add\n        /* \"#utility.yul\":20485:20532   */\n      mstore\n        /* \"#utility.yul\":20549:20680   */\n      tag_784\n        /* \"#utility.yul\":20675:20679   */\n      dup2\n        /* \"#utility.yul\":20549:20680   */\n      tag_561\n      jump\t// in\n    tag_784:\n        /* \"#utility.yul\":20541:20680   */\n      swap1\n      pop\n        /* \"#utility.yul\":20268:20687   */\n      swap2\n      swap1\n      pop\n      jump\t// out\n        /* \"#utility.yul\":20693:21025   */\n    tag_241:\n        /* \"#utility.yul\":20814:20818   */\n      0x00\n        /* \"#utility.yul\":20852:20854   */\n      0x40\n        /* \"#utility.yul\":20841:20850   */\n      dup3\n        /* \"#utility.yul\":20837:20855   */\n      add\n        /* \"#utility.yul\":20829:20855   */\n      swap1\n      pop\n        /* \"#utility.yul\":20865:20936   */\n      tag_786\n        /* \"#utility.yul\":20933:20934   */\n      0x00\n        /* \"#utility.yul\":20922:20931   */\n      dup4\n        /* \"#utility.yul\":20918:20935   */\n      add\n        /* \"#utility.yul\":20909:20915   */\n      dup6\n        /* \"#utility.yul\":20865:20936   */\n      tag_521\n      jump\t// in\n    tag_786:\n        /* \"#utility.yul\":20946:21018   */\n      tag_787\n        /* \"#utility.yul\":21014:21016   */\n      0x20\n        /* \"#utility.yul\":21003:21012   */\n      dup4\n        /* \"#utility.yul\":20999:21017   */\n      add\n        /* \"#utility.yul\":20990:20996   */\n      dup5\n        /* \"#utility.yul\":20946:21018   */\n      tag_522\n      jump\t// in\n    tag_787:\n        /* \"#utility.yul\":20693:21025   */\n      swap4\n      swap3\n      pop\n      pop\n      pop\n      jump\t// out\n        /* \"#utility.yul\":21031:21147   */\n    tag_562:\n        /* \"#utility.yul\":21101:21122   */\n      tag_789\n        /* \"#utility.yul\":21116:21121   */\n      dup2\n        /* \"#utility.yul\":21101:21122   */\n      tag_523\n      jump\t// in\n    tag_789:\n        /* \"#utility.yul\":21094:21099   */\n      dup2\n        /* \"#utility.yul\":21091:21123   */\n      eq\n        /* \"#utility.yul\":21081:21141   */\n      tag_790\n      jumpi\n        /* \"#utility.yul\":21137:21138   */\n      0x00\n        /* \"#utility.yul\":21134:21135   */\n      dup1\n        /* \"#utility.yul\":21127:21139   */\n      revert\n        /* \"#utility.yul\":21081:21141   */\n    tag_790:\n        /* \"#utility.yul\":21031:21147   */\n      pop\n      jump\t// out\n        /* \"#utility.yul\":21153:21290   */\n    tag_563:\n        /* \"#utility.yul\":21207:21212   */\n      0x00\n        /* \"#utility.yul\":21238:21244   */\n      dup2\n        /* \"#utility.yul\":21232:21245   */\n      mload\n        /* \"#utility.yul\":21223:21245   */\n      swap1\n      pop\n        /* \"#utility.yul\":21254:21284   */\n      tag_792\n        /* \"#utility.yul\":21278:21283   */\n      dup2\n        /* \"#utility.yul\":21254:21284   */\n      tag_562\n      jump\t// in\n    tag_792:\n        /* \"#utility.yul\":21153:21290   */\n      swap3\n      swap2\n      pop\n      pop\n      jump\t// out\n        /* \"#utility.yul\":21296:21641   */\n    tag_245:\n        /* \"#utility.yul\":21363:21369   */\n      0x00\n        /* \"#utility.yul\":21412:21414   */\n      0x20\n        /* \"#utility.yul\":21400:21409   */\n      dup3\n        /* \"#utility.yul\":21391:21398   */\n      dup5\n        /* \"#utility.yul\":21387:21410   */\n      sub\n        /* \"#utility.yul\":21383:21415   */\n      slt\n        /* \"#utility.yul\":21380:21499   */\n      iszero\n      tag_794\n      jumpi\n        /* \"#utility.yul\":21418:21497   */\n      tag_795\n      tag_512\n      jump\t// in\n    tag_795:\n        /* \"#utility.yul\":21380:21499   */\n    tag_794:\n        /* \"#utility.yul\":21538:21539   */\n      0x00\n        /* \"#utility.yul\":21563:21624   */\n      tag_796\n        /* \"#utility.yul\":21616:21623   */\n      dup5\n        /* \"#utility.yul\":21607:21613   */\n      dup3\n        /* \"#utility.yul\":21596:21605   */\n      dup6\n        /* \"#utility.yul\":21592:21614   */\n      add\n        /* \"#utility.yul\":21563:21624   */\n      tag_563\n      jump\t// in\n    tag_796:\n        /* \"#utility.yul\":21553:21624   */\n      swap2\n      pop\n        /* \"#utility.yul\":21509:21634   */\n      pop\n        /* \"#utility.yul\":21296:21641   */\n      swap3\n      swap2\n      pop\n      pop\n      jump\t// out\n        /* \"#utility.yul\":21647:21790   */\n    tag_564:\n        /* \"#utility.yul\":21704:21709   */\n      0x00\n        /* \"#utility.yul\":21735:21741   */\n      dup2\n        /* \"#utility.yul\":21729:21742   */\n      mload\n        /* \"#utility.yul\":21720:21742   */\n      swap1\n      pop\n        /* \"#utility.yul\":21751:21784   */\n      tag_798\n        /* \"#utility.yul\":21778:21783   */\n      dup2\n        /* \"#utility.yul\":21751:21784   */\n      tag_515\n      jump\t// in\n    tag_798:\n        /* \"#utility.yul\":21647:21790   */\n      swap3\n      swap2\n      pop\n      pop\n      jump\t// out\n        /* \"#utility.yul\":21796:22147   */\n    tag_258:\n        /* \"#utility.yul\":21866:21872   */\n      0x00\n        /* \"#utility.yul\":21915:21917   */\n      0x20\n        /* \"#utility.yul\":21903:21912   */\n      dup3\n        /* \"#utility.yul\":21894:21901   */\n      dup5\n        /* \"#utility.yul\":21890:21913   */\n      sub\n        /* \"#utility.yul\":21886:21918   */\n      slt\n        /* \"#utility.yul\":21883:22002   */\n      iszero\n      tag_800\n      jumpi\n        /* \"#utility.yul\":21921:22000   */\n      tag_801\n      tag_512\n      jump\t// in\n    tag_801:\n        /* \"#utility.yul\":21883:22002   */\n    tag_800:\n        /* \"#utility.yul\":22041:22042   */\n      0x00\n        /* \"#utility.yul\":22066:22130   */\n      tag_802\n        /* \"#utility.yul\":22122:22129   */\n      dup5\n        /* \"#utility.yul\":22113:22119   */\n      dup3\n        /* \"#utility.yul\":22102:22111   */\n      dup6\n        /* \"#utility.yul\":22098:22120   */\n      add\n        /* \"#utility.yul\":22066:22130   */\n      tag_564\n      jump\t// in\n    tag_802:\n        /* \"#utility.yul\":22056:22130   */\n      swap2\n      pop\n        /* \"#utility.yul\":22012:22140   */\n      pop\n        /* \"#utility.yul\":21796:22147   */\n      swap3\n      swap2\n      pop\n      pop\n      jump\t// out\n        /* \"#utility.yul\":22153:22392   */\n    tag_565:\n        /* \"#utility.yul\":22293:22327   */\n      0x526174652c20706f696e747320616e6420646563696d616c73206d7573742062\n        /* \"#utility.yul\":22289:22290   */\n      0x00\n        /* \"#utility.yul\":22281:22287   */\n      dup3\n        /* \"#utility.yul\":22277:22291   */\n      add\n        /* \"#utility.yul\":22270:22328   */\n      mstore\n        /* \"#utility.yul\":22362:22384   */\n      0x652067726561746572207468616e207a65726f21000000000000000000000000\n        /* \"#utility.yul\":22357:22359   */\n      0x20\n        /* \"#utility.yul\":22349:22355   */\n      dup3\n        /* \"#utility.yul\":22345:22360   */\n      add\n        /* \"#utility.yul\":22338:22385   */\n      mstore\n        /* \"#utility.yul\":22153:22392   */\n      pop\n      jump\t// out\n        /* \"#utility.yul\":22398:22764   */\n    tag_566:\n        /* \"#utility.yul\":22540:22543   */\n      0x00\n        /* \"#utility.yul\":22561:22628   */\n      tag_805\n        /* \"#utility.yul\":22625:22627   */\n      0x34\n        /* \"#utility.yul\":22620:22623   */\n      dup4\n        /* \"#utility.yul\":22561:22628   */\n      tag_526\n      jump\t// in\n    tag_805:\n        /* \"#utility.yul\":22554:22628   */\n      swap2\n      pop\n        /* \"#utility.yul\":22637:22730   */\n      tag_806\n        /* \"#utility.yul\":22726:22729   */\n      dup3\n        /* \"#utility.yul\":22637:22730   */\n      tag_565\n      jump\t// in\n    tag_806:\n        /* \"#utility.yul\":22755:22757   */\n      0x40\n        /* \"#utility.yul\":22750:22753   */\n      dup3\n        /* \"#utility.yul\":22746:22758   */\n      add\n        /* \"#utility.yul\":22739:22758   */\n      swap1\n      pop\n        /* \"#utility.yul\":22398:22764   */\n      swap2\n      swap1\n      pop\n      jump\t// out\n        /* \"#utility.yul\":22770:23189   */\n    tag_269:\n        /* \"#utility.yul\":22936:22940   */\n      0x00\n        /* \"#utility.yul\":22974:22976   */\n      0x20\n        /* \"#utility.yul\":22963:22972   */\n      dup3\n        /* \"#utility.yul\":22959:22977   */\n      add\n        /* \"#utility.yul\":22951:22977   */\n      swap1\n      pop\n        /* \"#utility.yul\":23023:23032   */\n      dup2\n        /* \"#utility.yul\":23017:23021   */\n      dup2\n        /* \"#utility.yul\":23013:23033   */\n      sub\n        /* \"#utility.yul\":23009:23010   */\n      0x00\n        /* \"#utility.yul\":22998:23007   */\n      dup4\n        /* \"#utility.yul\":22994:23011   */\n      add\n        /* \"#utility.yul\":22987:23034   */\n      mstore\n        /* \"#utility.yul\":23051:23182   */\n      tag_808\n        /* \"#utility.yul\":23177:23181   */\n      dup2\n        /* \"#utility.yul\":23051:23182   */\n      tag_566\n      jump\t// in\n    tag_808:\n        /* \"#utility.yul\":23043:23182   */\n      swap1\n      pop\n        /* \"#utility.yul\":22770:23189   */\n      swap2\n      swap1\n      pop\n      jump\t// out\n        /* \"#utility.yul\":23195:23297   */\n    tag_567:\n        /* \"#utility.yul\":23237:23245   */\n      0x00\n        /* \"#utility.yul\":23284:23289   */\n      dup2\n        /* \"#utility.yul\":23281:23282   */\n      0x01\n        /* \"#utility.yul\":23277:23290   */\n      shr\n        /* \"#utility.yul\":23256:23290   */\n      swap1\n      pop\n        /* \"#utility.yul\":23195:23297   */\n      swap2\n      swap1\n      pop\n      jump\t// out\n        /* \"#utility.yul\":23303:24151   */\n    tag_568:\n        /* \"#utility.yul\":23364:23369   */\n      0x00\n        /* \"#utility.yul\":23371:23375   */\n      dup1\n        /* \"#utility.yul\":23395:23401   */\n      dup3\n        /* \"#utility.yul\":23386:23401   */\n      swap2\n      pop\n        /* \"#utility.yul\":23419:23424   */\n      dup4\n        /* \"#utility.yul\":23410:23424   */\n      swap1\n      pop\n        /* \"#utility.yul\":23433:24145   */\n    tag_811:\n        /* \"#utility.yul\":23454:23455   */\n      0x01\n        /* \"#utility.yul\":23444:23452   */\n      dup6\n        /* \"#utility.yul\":23441:23456   */\n      gt\n        /* \"#utility.yul\":23433:24145   */\n      iszero\n      tag_813\n      jumpi\n        /* \"#utility.yul\":23549:23553   */\n      dup1\n        /* \"#utility.yul\":23544:23547   */\n      dup7\n        /* \"#utility.yul\":23540:23554   */\n      div\n        /* \"#utility.yul\":23534:23538   */\n      dup2\n        /* \"#utility.yul\":23531:23555   */\n      gt\n        /* \"#utility.yul\":23528:23578   */\n      iszero\n      tag_814\n      jumpi\n        /* \"#utility.yul\":23558:23576   */\n      tag_815\n      tag_530\n      jump\t// in\n    tag_815:\n        /* \"#utility.yul\":23528:23578   */\n    tag_814:\n        /* \"#utility.yul\":23608:23609   */\n      0x01\n        /* \"#utility.yul\":23598:23606   */\n      dup6\n        /* \"#utility.yul\":23594:23610   */\n      and\n        /* \"#utility.yul\":23591:24042   */\n      iszero\n      tag_816\n      jumpi\n        /* \"#utility.yul\":24023:24027   */\n      dup1\n        /* \"#utility.yul\":24016:24021   */\n      dup3\n        /* \"#utility.yul\":24012:24028   */\n      mul\n        /* \"#utility.yul\":24003:24028   */\n      swap2\n      pop\n        /* \"#utility.yul\":23591:24042   */\n    tag_816:\n        /* \"#utility.yul\":24073:24077   */\n      dup1\n        /* \"#utility.yul\":24067:24071   */\n      dup2\n        /* \"#utility.yul\":24063:24078   */\n      mul\n        /* \"#utility.yul\":24055:24078   */\n      swap1\n      pop\n        /* \"#utility.yul\":24103:24135   */\n      tag_817\n        /* \"#utility.yul\":24126:24134   */\n      dup6\n        /* \"#utility.yul\":24103:24135   */\n      tag_567\n      jump\t// in\n    tag_817:\n        /* \"#utility.yul\":24091:24135   */\n      swap5\n      pop\n        /* \"#utility.yul\":23433:24145   */\n      jump(tag_811)\n    tag_813:\n        /* \"#utility.yul\":23303:24151   */\n      swap5\n      pop\n      swap5\n      swap3\n      pop\n      pop\n      pop\n      jump\t// out\n        /* \"#utility.yul\":24157:25230   */\n    tag_569:\n        /* \"#utility.yul\":24211:24216   */\n      0x00\n        /* \"#utility.yul\":24402:24410   */\n      dup3\n        /* \"#utility.yul\":24392:24432   */\n      tag_819\n      jumpi\n        /* \"#utility.yul\":24423:24424   */\n      0x01\n        /* \"#utility.yul\":24414:24424   */\n      swap1\n      pop\n        /* \"#utility.yul\":24425:24430   */\n      jump(tag_818)\n        /* \"#utility.yul\":24392:24432   */\n    tag_819:\n        /* \"#utility.yul\":24451:24455   */\n      dup2\n        /* \"#utility.yul\":24441:24477   */\n      tag_820\n      jumpi\n        /* \"#utility.yul\":24468:24469   */\n      0x00\n        /* \"#utility.yul\":24459:24469   */\n      swap1\n      pop\n        /* \"#utility.yul\":24470:24475   */\n      jump(tag_818)\n        /* \"#utility.yul\":24441:24477   */\n    tag_820:\n        /* \"#utility.yul\":24537:24541   */\n      dup2\n        /* \"#utility.yul\":24585:24586   */\n      0x01\n        /* \"#utility.yul\":24580:24607   */\n      dup2\n      eq\n      tag_822\n      jumpi\n        /* \"#utility.yul\":24621:24622   */\n      0x02\n        /* \"#utility.yul\":24616:24807   */\n      dup2\n      eq\n      tag_823\n      jumpi\n        /* \"#utility.yul\":24530:24807   */\n      jump(tag_821)\n        /* \"#utility.yul\":24580:24607   */\n    tag_822:\n        /* \"#utility.yul\":24598:24599   */\n      0x01\n        /* \"#utility.yul\":24589:24599   */\n      swap2\n      pop\n        /* \"#utility.yul\":24600:24605   */\n      pop\n      jump(tag_818)\n        /* \"#utility.yul\":24616:24807   */\n    tag_823:\n        /* \"#utility.yul\":24661:24664   */\n      0xff\n        /* \"#utility.yul\":24651:24659   */\n      dup5\n        /* \"#utility.yul\":24648:24665   */\n      gt\n        /* \"#utility.yul\":24645:24688   */\n      iszero\n      tag_824\n      jumpi\n        /* \"#utility.yul\":24668:24686   */\n      tag_825\n      tag_530\n      jump\t// in\n    tag_825:\n        /* \"#utility.yul\":24645:24688   */\n    tag_824:\n        /* \"#utility.yul\":24717:24725   */\n      dup4\n        /* \"#utility.yul\":24714:24715   */\n      0x02\n        /* \"#utility.yul\":24710:24726   */\n      exp\n        /* \"#utility.yul\":24701:24726   */\n      swap2\n      pop\n        /* \"#utility.yul\":24752:24755   */\n      dup5\n        /* \"#utility.yul\":24745:24750   */\n      dup3\n        /* \"#utility.yul\":24742:24756   */\n      gt\n        /* \"#utility.yul\":24739:24779   */\n      iszero\n      tag_826\n      jumpi\n        /* \"#utility.yul\":24759:24777   */\n      tag_827\n      tag_530\n      jump\t// in\n    tag_827:\n        /* \"#utility.yul\":24739:24779   */\n    tag_826:\n        /* \"#utility.yul\":24792:24797   */\n      pop\n      jump(tag_818)\n        /* \"#utility.yul\":24530:24807   */\n    tag_821:\n      pop\n        /* \"#utility.yul\":24916:24918   */\n      0x20\n        /* \"#utility.yul\":24906:24914   */\n      dup4\n        /* \"#utility.yul\":24903:24919   */\n      lt\n        /* \"#utility.yul\":24897:24900   */\n      0x0133\n        /* \"#utility.yul\":24891:24895   */\n      dup4\n        /* \"#utility.yul\":24888:24901   */\n      lt\n        /* \"#utility.yul\":24884:24920   */\n      and\n        /* \"#utility.yul\":24866:24868   */\n      0x4e\n        /* \"#utility.yul\":24856:24864   */\n      dup5\n        /* \"#utility.yul\":24853:24869   */\n      lt\n        /* \"#utility.yul\":24848:24850   */\n      0x0b\n        /* \"#utility.yul\":24842:24846   */\n      dup5\n        /* \"#utility.yul\":24839:24851   */\n      lt\n        /* \"#utility.yul\":24835:24870   */\n      and\n        /* \"#utility.yul\":24819:24930   */\n      or\n        /* \"#utility.yul\":24816:25062   */\n      iszero\n      tag_828\n      jumpi\n        /* \"#utility.yul\":24972:24980   */\n      dup3\n        /* \"#utility.yul\":24966:24970   */\n      dup3\n        /* \"#utility.yul\":24962:24981   */\n      exp\n        /* \"#utility.yul\":24953:24981   */\n      swap1\n      pop\n        /* \"#utility.yul\":25007:25010   */\n      dup4\n        /* \"#utility.yul\":25000:25005   */\n      dup2\n        /* \"#utility.yul\":24997:25011   */\n      gt\n        /* \"#utility.yul\":24994:25034   */\n      iszero\n      tag_829\n      jumpi\n        /* \"#utility.yul\":25014:25032   */\n      tag_830\n      tag_530\n      jump\t// in\n    tag_830:\n        /* \"#utility.yul\":24994:25034   */\n    tag_829:\n        /* \"#utility.yul\":25047:25052   */\n      jump(tag_818)\n        /* \"#utility.yul\":24816:25062   */\n    tag_828:\n        /* \"#utility.yul\":25087:25129   */\n      tag_831\n        /* \"#utility.yul\":25125:25128   */\n      dup5\n        /* \"#utility.yul\":25115:25123   */\n      dup5\n        /* \"#utility.yul\":25109:25113   */\n      dup5\n        /* \"#utility.yul\":25106:25107   */\n      0x01\n        /* \"#utility.yul\":25087:25129   */\n      tag_568\n      jump\t// in\n    tag_831:\n        /* \"#utility.yul\":25072:25129   */\n      swap3\n      pop\n      swap1\n      pop\n        /* \"#utility.yul\":25161:25165   */\n      dup2\n        /* \"#utility.yul\":25156:25159   */\n      dup5\n        /* \"#utility.yul\":25152:25166   */\n      div\n        /* \"#utility.yul\":25145:25150   */\n      dup2\n        /* \"#utility.yul\":25142:25167   */\n      gt\n        /* \"#utility.yul\":25139:25190   */\n      iszero\n      tag_832\n      jumpi\n        /* \"#utility.yul\":25170:25188   */\n      tag_833\n      tag_530\n      jump\t// in\n    tag_833:\n        /* \"#utility.yul\":25139:25190   */\n    tag_832:\n        /* \"#utility.yul\":25219:25223   */\n      dup2\n        /* \"#utility.yul\":25212:25217   */\n      dup2\n        /* \"#utility.yul\":25208:25224   */\n      mul\n        /* \"#utility.yul\":25199:25224   */\n      swap1\n      pop\n        /* \"#utility.yul\":24157:25230   */\n    tag_818:\n      swap4\n      swap3\n      pop\n      pop\n      pop\n      jump\t// out\n        /* \"#utility.yul\":25236:25521   */\n    tag_271:\n        /* \"#utility.yul\":25296:25301   */\n      0x00\n        /* \"#utility.yul\":25320:25343   */\n      tag_835\n        /* \"#utility.yul\":25338:25342   */\n      dup3\n        /* \"#utility.yul\":25320:25343   */\n      tag_514\n      jump\t// in\n    tag_835:\n        /* \"#utility.yul\":25312:25343   */\n      swap2\n      pop\n        /* \"#utility.yul\":25364:25391   */\n      tag_836\n        /* \"#utility.yul\":25382:25390   */\n      dup4\n        /* \"#utility.yul\":25364:25391   */\n      tag_514\n      jump\t// in\n    tag_836:\n        /* \"#utility.yul\":25352:25391   */\n      swap3\n      pop\n        /* \"#utility.yul\":25410:25514   */\n      tag_837\n        /* \"#utility.yul\":25447:25513   */\n      0xffffffffffffffffffffffffffffffffffffffffffffffffffffffffffffffff\n        /* \"#utility.yul\":25437:25445   */\n      dup5\n        /* \"#utility.yul\":25431:25435   */\n      dup5\n        /* \"#utility.yul\":25410:25514   */\n      tag_569\n      jump\t// in\n    tag_837:\n        /* \"#utility.yul\":25401:25514   */\n      swap1\n      pop\n        /* \"#utility.yul\":25236:25521   */\n      swap3\n      swap2\n      pop\n      pop\n      jump\t// out\n        /* \"#utility.yul\":25527:25937   */\n    tag_273:\n        /* \"#utility.yul\":25567:25574   */\n      0x00\n        /* \"#utility.yul\":25590:25610   */\n      tag_839\n        /* \"#utility.yul\":25608:25609   */\n      dup3\n        /* \"#utility.yul\":25590:25610   */\n      tag_514\n      jump\t// in\n    tag_839:\n        /* \"#utility.yul\":25585:25610   */\n      swap2\n      pop\n        /* \"#utility.yul\":25624:25644   */\n      tag_840\n        /* \"#utility.yul\":25642:25643   */\n      dup4\n        /* \"#utility.yul\":25624:25644   */\n      tag_514\n      jump\t// in\n    tag_840:\n        /* \"#utility.yul\":25619:25644   */\n      swap3\n      pop\n        /* \"#utility.yul\":25679:25680   */\n      dup3\n        /* \"#utility.yul\":25676:25677   */\n      dup3\n        /* \"#utility.yul\":25672:25681   */\n      mul\n        /* \"#utility.yul\":25701:25731   */\n      tag_841\n        /* \"#utility.yul\":25719:25730   */\n      dup2\n        /* \"#utility.yul\":25701:25731   */\n      tag_514\n      jump\t// in\n    tag_841:\n        /* \"#utility.yul\":25690:25731   */\n      swap2\n      pop\n        /* \"#utility.yul\":25880:25881   */\n      dup3\n        /* \"#utility.yul\":25871:25878   */\n      dup3\n        /* \"#utility.yul\":25867:25882   */\n      div\n        /* \"#utility.yul\":25864:25865   */\n      dup5\n        /* \"#utility.yul\":25861:25883   */\n      eq\n        /* \"#utility.yul\":25841:25842   */\n      dup4\n        /* \"#utility.yul\":25834:25843   */\n      iszero\n        /* \"#utility.yul\":25814:25897   */\n      or\n        /* \"#utility.yul\":25791:25930   */\n      tag_842\n      jumpi\n        /* \"#utility.yul\":25910:25928   */\n      tag_843\n      tag_530\n      jump\t// in\n    tag_843:\n        /* \"#utility.yul\":25791:25930   */\n    tag_842:\n        /* \"#utility.yul\":25575:25937   */\n      pop\n        /* \"#utility.yul\":25527:25937   */\n      swap3\n      swap2\n      pop\n      pop\n      jump\t// out\n        /* \"#utility.yul\":25943:26123   */\n    tag_570:\n        /* \"#utility.yul\":25991:26068   */\n      0x4e487b7100000000000000000000000000000000000000000000000000000000\n        /* \"#utility.yul\":25988:25989   */\n      0x00\n        /* \"#utility.yul\":25981:26069   */\n      mstore\n        /* \"#utility.yul\":26088:26092   */\n      0x12\n        /* \"#utility.yul\":26085:26086   */\n      0x04\n        /* \"#utility.yul\":26078:26093   */\n      mstore\n        /* \"#utility.yul\":26112:26116   */\n      0x24\n        /* \"#utility.yul\":26109:26110   */\n      0x00\n        /* \"#utility.yul\":26102:26117   */\n      revert\n        /* \"#utility.yul\":26129:26314   */\n    tag_275:\n        /* \"#utility.yul\":26169:26170   */\n      0x00\n        /* \"#utility.yul\":26186:26206   */\n      tag_846\n        /* \"#utility.yul\":26204:26205   */\n      dup3\n        /* \"#utility.yul\":26186:26206   */\n      tag_514\n      jump\t// in\n    tag_846:\n        /* \"#utility.yul\":26181:26206   */\n      swap2\n      pop\n        /* \"#utility.yul\":26220:26240   */\n      tag_847\n        /* \"#utility.yul\":26238:26239   */\n      dup4\n        /* \"#utility.yul\":26220:26240   */\n      tag_514\n      jump\t// in\n    tag_847:\n        /* \"#utility.yul\":26215:26240   */\n      swap3\n      pop\n        /* \"#utility.yul\":26259:26260   */\n      dup3\n        /* \"#utility.yul\":26249:26284   */\n      tag_848\n      jumpi\n        /* \"#utility.yul\":26264:26282   */\n      tag_849\n      tag_570\n      jump\t// in\n    tag_849:\n        /* \"#utility.yul\":26249:26284   */\n    tag_848:\n        /* \"#utility.yul\":26306:26307   */\n      dup3\n        /* \"#utility.yul\":26303:26304   */\n      dup3\n        /* \"#utility.yul\":26299:26308   */\n      div\n        /* \"#utility.yul\":26294:26308   */\n      swap1\n      pop\n        /* \"#utility.yul\":26129:26314   */\n      swap3\n      swap2\n      pop\n      pop\n      jump\t// out\n        /* \"#utility.yul\":26320:26652   */\n    tag_284:\n        /* \"#utility.yul\":26441:26445   */\n      0x00\n        /* \"#utility.yul\":26479:26481   */\n      0x40\n        /* \"#utility.yul\":26468:26477   */\n      dup3\n        /* \"#utility.yul\":26464:26482   */\n      add\n        /* \"#utility.yul\":26456:26482   */\n      swap1\n      pop\n        /* \"#utility.yul\":26492:26563   */\n      tag_851\n        /* \"#utility.yul\":26560:26561   */\n      0x00\n        /* \"#utility.yul\":26549:26558   */\n      dup4\n        /* \"#utility.yul\":26545:26562   */\n      add\n        /* \"#utility.yul\":26536:26542   */\n      dup6\n        /* \"#utility.yul\":26492:26563   */\n      tag_521\n      jump\t// in\n    tag_851:\n        /* \"#utility.yul\":26573:26645   */\n      tag_852\n        /* \"#utility.yul\":26641:26643   */\n      0x20\n        /* \"#utility.yul\":26630:26639   */\n      dup4\n        /* \"#utility.yul\":26626:26644   */\n      add\n        /* \"#utility.yul\":26617:26623   */\n      dup5\n        /* \"#utility.yul\":26573:26645   */\n      tag_521\n      jump\t// in\n    tag_852:\n        /* \"#utility.yul\":26320:26652   */\n      swap4\n      swap3\n      pop\n      pop\n      pop\n      jump\t// out\n        /* \"#utility.yul\":26658:26883   */\n    tag_571:\n        /* \"#utility.yul\":26798:26832   */\n      0x41676772656761746f72436f6e73756d6572206973206e6f7420696e69746961\n        /* \"#utility.yul\":26794:26795   */\n      0x00\n        /* \"#utility.yul\":26786:26792   */\n      dup3\n        /* \"#utility.yul\":26782:26796   */\n      add\n        /* \"#utility.yul\":26775:26833   */\n      mstore\n        /* \"#utility.yul\":26867:26875   */\n      0x6c697a6564210000000000000000000000000000000000000000000000000000\n        /* \"#utility.yul\":26862:26864   */\n      0x20\n        /* \"#utility.yul\":26854:26860   */\n      dup3\n        /* \"#utility.yul\":26850:26865   */\n      add\n        /* \"#utility.yul\":26843:26876   */\n      mstore\n        /* \"#utility.yul\":26658:26883   */\n      pop\n      jump\t// out\n        /* \"#utility.yul\":26889:27255   */\n    tag_572:\n        /* \"#utility.yul\":27031:27034   */\n      0x00\n        /* \"#utility.yul\":27052:27119   */\n      tag_855\n        /* \"#utility.yul\":27116:27118   */\n      0x26\n        /* \"#utility.yul\":27111:27114   */\n      dup4\n        /* \"#utility.yul\":27052:27119   */\n      tag_526\n      jump\t// in\n    tag_855:\n        /* \"#utility.yul\":27045:27119   */\n      swap2\n      pop\n        /* \"#utility.yul\":27128:27221   */\n      tag_856\n        /* \"#utility.yul\":27217:27220   */\n      dup3\n        /* \"#utility.yul\":27128:27221   */\n      tag_571\n      jump\t// in\n    tag_856:\n        /* \"#utility.yul\":27246:27248   */\n      0x40\n        /* \"#utility.yul\":27241:27244   */\n      dup3\n        /* \"#utility.yul\":27237:27249   */\n      add\n        /* \"#utility.yul\":27230:27249   */\n      swap1\n      pop\n        /* \"#utility.yul\":26889:27255   */\n      swap2\n      swap1\n      pop\n      jump\t// out\n        /* \"#utility.yul\":27261:27680   */\n    tag_344:\n        /* \"#utility.yul\":27427:27431   */\n      0x00\n        /* \"#utility.yul\":27465:27467   */\n      0x20\n        /* \"#utility.yul\":27454:27463   */\n      dup3\n        /* \"#utility.yul\":27450:27468   */\n      add\n        /* \"#utility.yul\":27442:27468   */\n      swap1\n      pop\n        /* \"#utility.yul\":27514:27523   */\n      dup2\n        /* \"#utility.yul\":27508:27512   */\n      dup2\n        /* \"#utility.yul\":27504:27524   */\n      sub\n        /* \"#utility.yul\":27500:27501   */\n      0x00\n        /* \"#utility.yul\":27489:27498   */\n      dup4\n        /* \"#utility.yul\":27485:27502   */\n      add\n        /* \"#utility.yul\":27478:27525   */\n      mstore\n        /* \"#utility.yul\":27542:27673   */\n      tag_858\n        /* \"#utility.yul\":27668:27672   */\n      dup2\n        /* \"#utility.yul\":27542:27673   */\n      tag_572\n      jump\t// in\n    tag_858:\n        /* \"#utility.yul\":27534:27673   */\n      swap1\n      pop\n        /* \"#utility.yul\":27261:27680   */\n      swap2\n      swap1\n      pop\n      jump\t// out\n        /* \"#utility.yul\":27686:27868   */\n    tag_573:\n        /* \"#utility.yul\":27826:27860   */\n      0x506f6f6c436f6e73756d6572206973206e6f7420696e697469616c697a656421\n        /* \"#utility.yul\":27822:27823   */\n      0x00\n        /* \"#utility.yul\":27814:27820   */\n      dup3\n        /* \"#utility.yul\":27810:27824   */\n      add\n        /* \"#utility.yul\":27803:27861   */\n      mstore\n        /* \"#utility.yul\":27686:27868   */\n      pop\n      jump\t// out\n        /* \"#utility.yul\":27874:28240   */\n    tag_574:\n        /* \"#utility.yul\":28016:28019   */\n      0x00\n        /* \"#utility.yul\":28037:28104   */\n      tag_861\n        /* \"#utility.yul\":28101:28103   */\n      0x20\n        /* \"#utility.yul\":28096:28099   */\n      dup4\n        /* \"#utility.yul\":28037:28104   */\n      tag_526\n      jump\t// in\n    tag_861:\n        /* \"#utility.yul\":28030:28104   */\n      swap2\n      pop\n        /* \"#utility.yul\":28113:28206   */\n      tag_862\n        /* \"#utility.yul\":28202:28205   */\n      dup3\n        /* \"#utility.yul\":28113:28206   */\n      tag_573\n      jump\t// in\n    tag_862:\n        /* \"#utility.yul\":28231:28233   */\n      0x20\n        /* \"#utility.yul\":28226:28229   */\n      dup3\n        /* \"#utility.yul\":28222:28234   */\n      add\n        /* \"#utility.yul\":28215:28234   */\n      swap1\n      pop\n        /* \"#utility.yul\":27874:28240   */\n      swap2\n      swap1\n      pop\n      jump\t// out\n        /* \"#utility.yul\":28246:28665   */\n    tag_349:\n        /* \"#utility.yul\":28412:28416   */\n      0x00\n        /* \"#utility.yul\":28450:28452   */\n      0x20\n        /* \"#utility.yul\":28439:28448   */\n      dup3\n        /* \"#utility.yul\":28435:28453   */\n      add\n        /* \"#utility.yul\":28427:28453   */\n      swap1\n      pop\n        /* \"#utility.yul\":28499:28508   */\n      dup2\n        /* \"#utility.yul\":28493:28497   */\n      dup2\n        /* \"#utility.yul\":28489:28509   */\n      sub\n        /* \"#utility.yul\":28485:28486   */\n      0x00\n        /* \"#utility.yul\":28474:28483   */\n      dup4\n        /* \"#utility.yul\":28470:28487   */\n      add\n        /* \"#utility.yul\":28463:28510   */\n      mstore\n        /* \"#utility.yul\":28527:28658   */\n      tag_864\n        /* \"#utility.yul\":28653:28657   */\n      dup2\n        /* \"#utility.yul\":28527:28658   */\n      tag_574\n      jump\t// in\n    tag_864:\n        /* \"#utility.yul\":28519:28658   */\n      swap1\n      pop\n        /* \"#utility.yul\":28246:28665   */\n      swap2\n      swap1\n      pop\n      jump\t// out\n        /* \"#utility.yul\":28671:28838   */\n    tag_575:\n        /* \"#utility.yul\":28811:28830   */\n      0x4e6f2063686172676520616d6f756e7421000000000000000000000000000000\n        /* \"#utility.yul\":28807:28808   */\n      0x00\n        /* \"#utility.yul\":28799:28805   */\n      dup3\n        /* \"#utility.yul\":28795:28809   */\n      add\n        /* \"#utility.yul\":28788:28831   */\n      mstore\n        /* \"#utility.yul\":28671:28838   */\n      pop\n      jump\t// out\n        /* \"#utility.yul\":28844:29210   */\n    tag_576:\n        /* \"#utility.yul\":28986:28989   */\n      0x00\n        /* \"#utility.yul\":29007:29074   */\n      tag_867\n        /* \"#utility.yul\":29071:29073   */\n      0x11\n        /* \"#utility.yul\":29066:29069   */\n      dup4\n        /* \"#utility.yul\":29007:29074   */\n      tag_526\n      jump\t// in\n    tag_867:\n        /* \"#utility.yul\":29000:29074   */\n      swap2\n      pop\n        /* \"#utility.yul\":29083:29176   */\n      tag_868\n        /* \"#utility.yul\":29172:29175   */\n      dup3\n        /* \"#utility.yul\":29083:29176   */\n      tag_575\n      jump\t// in\n    tag_868:\n        /* \"#utility.yul\":29201:29203   */\n      0x20\n        /* \"#utility.yul\":29196:29199   */\n      dup3\n        /* \"#utility.yul\":29192:29204   */\n      add\n        /* \"#utility.yul\":29185:29204   */\n      swap1\n      pop\n        /* \"#utility.yul\":28844:29210   */\n      swap2\n      swap1\n      pop\n      jump\t// out\n        /* \"#utility.yul\":29216:29635   */\n    tag_361:\n        /* \"#utility.yul\":29382:29386   */\n      0x00\n        /* \"#utility.yul\":29420:29422   */\n      0x20\n        /* \"#utility.yul\":29409:29418   */\n      dup3\n        /* \"#utility.yul\":29405:29423   */\n      add\n        /* \"#utility.yul\":29397:29423   */\n      swap1\n      pop\n        /* \"#utility.yul\":29469:29478   */\n      dup2\n        /* \"#utility.yul\":29463:29467   */\n      dup2\n        /* \"#utility.yul\":29459:29479   */\n      sub\n        /* \"#utility.yul\":29455:29456   */\n      0x00\n        /* \"#utility.yul\":29444:29453   */\n      dup4\n        /* \"#utility.yul\":29440:29457   */\n      add\n        /* \"#utility.yul\":29433:29480   */\n      mstore\n        /* \"#utility.yul\":29497:29628   */\n      tag_870\n        /* \"#utility.yul\":29623:29627   */\n      dup2\n        /* \"#utility.yul\":29497:29628   */\n      tag_576\n      jump\t// in\n    tag_870:\n        /* \"#utility.yul\":29489:29628   */\n      swap1\n      pop\n        /* \"#utility.yul\":29216:29635   */\n      swap2\n      swap1\n      pop\n      jump\t// out\n        /* \"#utility.yul\":29641:29829   */\n    tag_577:\n        /* \"#utility.yul\":29810:29822   */\n      0x436865636b207468652000000000000000000000000000000000000000000000\n        /* \"#utility.yul\":29805:29808   */\n      dup2\n        /* \"#utility.yul\":29798:29823   */\n      mstore\n        /* \"#utility.yul\":29641:29829   */\n      pop\n      jump\t// out\n        /* \"#utility.yul\":29835:30019   */\n    tag_578:\n        /* \"#utility.yul\":30003:30012   */\n      0x20746f6b656e2000000000000000000000000000000000000000000000000000\n        /* \"#utility.yul\":29998:30001   */\n      dup2\n        /* \"#utility.yul\":29991:30013   */\n      mstore\n        /* \"#utility.yul\":29835:30019   */\n      pop\n      jump\t// out\n        /* \"#utility.yul\":30025:30213   */\n    tag_579:\n        /* \"#utility.yul\":30194:30206   */\n      0x616c6c6f77616e63652100000000000000000000000000000000000000000000\n        /* \"#utility.yul\":30189:30192   */\n      dup2\n        /* \"#utility.yul\":30182:30207   */\n      mstore\n        /* \"#utility.yul\":30025:30213   */\n      pop\n      jump\t// out\n        /* \"#utility.yul\":30219:31292   */\n    tag_367:\n        /* \"#utility.yul\":30623:30626   */\n      0x00\n        /* \"#utility.yul\":30638:30776   */\n      tag_875\n        /* \"#utility.yul\":30772:30775   */\n      dup3\n        /* \"#utility.yul\":30638:30776   */\n      tag_577\n      jump\t// in\n    tag_875:\n        /* \"#utility.yul\":30801:30803   */\n      0x0a\n        /* \"#utility.yul\":30796:30799   */\n      dup3\n        /* \"#utility.yul\":30792:30804   */\n      add\n        /* \"#utility.yul\":30785:30804   */\n      swap2\n      pop\n        /* \"#utility.yul\":30821:30916   */\n      tag_876\n        /* \"#utility.yul\":30912:30915   */\n      dup3\n        /* \"#utility.yul\":30903:30909   */\n      dup5\n        /* \"#utility.yul\":30821:30916   */\n      tag_542\n      jump\t// in\n    tag_876:\n        /* \"#utility.yul\":30814:30916   */\n      swap2\n      pop\n        /* \"#utility.yul\":30926:31063   */\n      tag_877\n        /* \"#utility.yul\":31059:31062   */\n      dup3\n        /* \"#utility.yul\":30926:31063   */\n      tag_578\n      jump\t// in\n    tag_877:\n        /* \"#utility.yul\":31088:31089   */\n      0x07\n        /* \"#utility.yul\":31083:31086   */\n      dup3\n        /* \"#utility.yul\":31079:31090   */\n      add\n        /* \"#utility.yul\":31072:31090   */\n      swap2\n      pop\n        /* \"#utility.yul\":31100:31238   */\n      tag_878\n        /* \"#utility.yul\":31234:31237   */\n      dup3\n        /* \"#utility.yul\":31100:31238   */\n      tag_579\n      jump\t// in\n    tag_878:\n        /* \"#utility.yul\":31263:31265   */\n      0x0a\n        /* \"#utility.yul\":31258:31261   */\n      dup3\n        /* \"#utility.yul\":31254:31266   */\n      add\n        /* \"#utility.yul\":31247:31266   */\n      swap2\n      pop\n        /* \"#utility.yul\":31283:31286   */\n      dup2\n        /* \"#utility.yul\":31276:31286   */\n      swap1\n      pop\n        /* \"#utility.yul\":30219:31292   */\n      swap3\n      swap2\n      pop\n      pop\n      jump\t// out\n        /* \"#utility.yul\":31298:31459   */\n    tag_580:\n        /* \"#utility.yul\":31438:31451   */\n      0x72617465206572726f7221000000000000000000000000000000000000000000\n        /* \"#utility.yul\":31434:31435   */\n      0x00\n        /* \"#utility.yul\":31426:31432   */\n      dup3\n        /* \"#utility.yul\":31422:31436   */\n      add\n        /* \"#utility.yul\":31415:31452   */\n      mstore\n        /* \"#utility.yul\":31298:31459   */\n      pop\n      jump\t// out\n        /* \"#utility.yul\":31465:31831   */\n    tag_581:\n        /* \"#utility.yul\":31607:31610   */\n      0x00\n        /* \"#utility.yul\":31628:31695   */\n      tag_881\n        /* \"#utility.yul\":31692:31694   */\n      0x0b\n        /* \"#utility.yul\":31687:31690   */\n      dup4\n        /* \"#utility.yul\":31628:31695   */\n      tag_526\n      jump\t// in\n    tag_881:\n        /* \"#utility.yul\":31621:31695   */\n      swap2\n      pop\n        /* \"#utility.yul\":31704:31797   */\n      tag_882\n        /* \"#utility.yul\":31793:31796   */\n      dup3\n        /* \"#utility.yul\":31704:31797   */\n      tag_580\n      jump\t// in\n    tag_882:\n        /* \"#utility.yul\":31822:31824   */\n      0x20\n        /* \"#utility.yul\":31817:31820   */\n      dup3\n        /* \"#utility.yul\":31813:31825   */\n      add\n        /* \"#utility.yul\":31806:31825   */\n      swap1\n      pop\n        /* \"#utility.yul\":31465:31831   */\n      swap2\n      swap1\n      pop\n      jump\t// out\n        /* \"#utility.yul\":31837:32256   */\n    tag_376:\n        /* \"#utility.yul\":32003:32007   */\n      0x00\n        /* \"#utility.yul\":32041:32043   */\n      0x20\n        /* \"#utility.yul\":32030:32039   */\n      dup3\n        /* \"#utility.yul\":32026:32044   */\n      add\n        /* \"#utility.yul\":32018:32044   */\n      swap1\n      pop\n        /* \"#utility.yul\":32090:32099   */\n      dup2\n        /* \"#utility.yul\":32084:32088   */\n      dup2\n        /* \"#utility.yul\":32080:32100   */\n      sub\n        /* \"#utility.yul\":32076:32077   */\n      0x00\n        /* \"#utility.yul\":32065:32074   */\n      dup4\n        /* \"#utility.yul\":32061:32078   */\n      add\n        /* \"#utility.yul\":32054:32101   */\n      mstore\n        /* \"#utility.yul\":32118:32249   */\n      tag_884\n        /* \"#utility.yul\":32244:32248   */\n      dup2\n        /* \"#utility.yul\":32118:32249   */\n      tag_581\n      jump\t// in\n    tag_884:\n        /* \"#utility.yul\":32110:32249   */\n      swap1\n      pop\n        /* \"#utility.yul\":31837:32256   */\n      swap2\n      swap1\n      pop\n      jump\t// out\n        /* \"#utility.yul\":32262:32906   */\n    tag_383:\n        /* \"#utility.yul\":32459:32463   */\n      0x00\n        /* \"#utility.yul\":32497:32500   */\n      0x80\n        /* \"#utility.yul\":32486:32495   */\n      dup3\n        /* \"#utility.yul\":32482:32501   */\n      add\n        /* \"#utility.yul\":32474:32501   */\n      swap1\n      pop\n        /* \"#utility.yul\":32511:32582   */\n      tag_886\n        /* \"#utility.yul\":32579:32580   */\n      0x00\n        /* \"#utility.yul\":32568:32577   */\n      dup4\n        /* \"#utility.yul\":32564:32581   */\n      add\n        /* \"#utility.yul\":32555:32561   */\n      dup8\n        /* \"#utility.yul\":32511:32582   */\n      tag_522\n      jump\t// in\n    tag_886:\n        /* \"#utility.yul\":32592:32664   */\n      tag_887\n        /* \"#utility.yul\":32660:32662   */\n      0x20\n        /* \"#utility.yul\":32649:32658   */\n      dup4\n        /* \"#utility.yul\":32645:32663   */\n      add\n        /* \"#utility.yul\":32636:32642   */\n      dup7\n        /* \"#utility.yul\":32592:32664   */\n      tag_522\n      jump\t// in\n    tag_887:\n        /* \"#utility.yul\":32674:32746   */\n      tag_888\n        /* \"#utility.yul\":32742:32744   */\n      0x40\n        /* \"#utility.yul\":32731:32740   */\n      dup4\n        /* \"#utility.yul\":32727:32745   */\n      add\n        /* \"#utility.yul\":32718:32724   */\n      dup6\n        /* \"#utility.yul\":32674:32746   */\n      tag_522\n      jump\t// in\n    tag_888:\n        /* \"#utility.yul\":32793:32802   */\n      dup2\n        /* \"#utility.yul\":32787:32791   */\n      dup2\n        /* \"#utility.yul\":32783:32803   */\n      sub\n        /* \"#utility.yul\":32778:32780   */\n      0x60\n        /* \"#utility.yul\":32767:32776   */\n      dup4\n        /* \"#utility.yul\":32763:32781   */\n      add\n        /* \"#utility.yul\":32756:32804   */\n      mstore\n        /* \"#utility.yul\":32821:32899   */\n      tag_889\n        /* \"#utility.yul\":32894:32898   */\n      dup2\n        /* \"#utility.yul\":32885:32891   */\n      dup5\n        /* \"#utility.yul\":32821:32899   */\n      tag_529\n      jump\t// in\n    tag_889:\n        /* \"#utility.yul\":32813:32899   */\n      swap1\n      pop\n        /* \"#utility.yul\":32262:32906   */\n      swap6\n      swap5\n      pop\n      pop\n      pop\n      pop\n      pop\n      jump\t// out\n        /* \"#utility.yul\":32912:33137   */\n    tag_582:\n        /* \"#utility.yul\":33052:33086   */\n      0x4f776e61626c653a206e6577206f776e657220697320746865207a65726f2061\n        /* \"#utility.yul\":33048:33049   */\n      0x00\n        /* \"#utility.yul\":33040:33046   */\n      dup3\n        /* \"#utility.yul\":33036:33050   */\n      add\n        /* \"#utility.yul\":33029:33087   */\n      mstore\n        /* \"#utility.yul\":33121:33129   */\n      0x6464726573730000000000000000000000000000000000000000000000000000\n        /* \"#utility.yul\":33116:33118   */\n      0x20\n        /* \"#utility.yul\":33108:33114   */\n      dup3\n        /* \"#utility.yul\":33104:33119   */\n      add\n        /* \"#utility.yul\":33097:33130   */\n      mstore\n        /* \"#utility.yul\":32912:33137   */\n      pop\n      jump\t// out\n        /* \"#utility.yul\":33143:33509   */\n    tag_583:\n        /* \"#utility.yul\":33285:33288   */\n      0x00\n        /* \"#utility.yul\":33306:33373   */\n      tag_892\n        /* \"#utility.yul\":33370:33372   */\n      0x26\n        /* \"#utility.yul\":33365:33368   */\n      dup4\n        /* \"#utility.yul\":33306:33373   */\n      tag_526\n      jump\t// in\n    tag_892:\n        /* \"#utility.yul\":33299:33373   */\n      swap2\n      pop\n        /* \"#utility.yul\":33382:33475   */\n      tag_893\n        /* \"#utility.yul\":33471:33474   */\n      dup3\n        /* \"#utility.yul\":33382:33475   */\n      tag_582\n      jump\t// in\n    tag_893:\n        /* \"#utility.yul\":33500:33502   */\n      0x40\n        /* \"#utility.yul\":33495:33498   */\n      dup3\n        /* \"#utility.yul\":33491:33503   */\n      add\n        /* \"#utility.yul\":33484:33503   */\n      swap1\n      pop\n        /* \"#utility.yul\":33143:33509   */\n      swap2\n      swap1\n      pop\n      jump\t// out\n        /* \"#utility.yul\":33515:33934   */\n    tag_393:\n        /* \"#utility.yul\":33681:33685   */\n      0x00\n        /* \"#utility.yul\":33719:33721   */\n      0x20\n        /* \"#utility.yul\":33708:33717   */\n      dup3\n        /* \"#utility.yul\":33704:33722   */\n      add\n        /* \"#utility.yul\":33696:33722   */\n      swap1\n      pop\n        /* \"#utility.yul\":33768:33777   */\n      dup2\n        /* \"#utility.yul\":33762:33766   */\n      dup2\n        /* \"#utility.yul\":33758:33778   */\n      sub\n        /* \"#utility.yul\":33754:33755   */\n      0x00\n        /* \"#utility.yul\":33743:33752   */\n      dup4\n        /* \"#utility.yul\":33739:33756   */\n      add\n        /* \"#utility.yul\":33732:33779   */\n      mstore\n        /* \"#utility.yul\":33796:33927   */\n      tag_895\n        /* \"#utility.yul\":33922:33926   */\n      dup2\n        /* \"#utility.yul\":33796:33927   */\n      tag_583\n      jump\t// in\n    tag_895:\n        /* \"#utility.yul\":33788:33927   */\n      swap1\n      pop\n        /* \"#utility.yul\":33515:33934   */\n      swap2\n      swap1\n      pop\n      jump\t// out\n        /* \"#utility.yul\":33940:34122   */\n    tag_584:\n        /* \"#utility.yul\":34080:34114   */\n      0x4f776e61626c653a2063616c6c6572206973206e6f7420746865206f776e6572\n        /* \"#utility.yul\":34076:34077   */\n      0x00\n        /* \"#utility.yul\":34068:34074   */\n      dup3\n        /* \"#utility.yul\":34064:34078   */\n      add\n        /* \"#utility.yul\":34057:34115   */\n      mstore\n        /* \"#utility.yul\":33940:34122   */\n      pop\n      jump\t// out\n        /* \"#utility.yul\":34128:34494   */\n    tag_585:\n        /* \"#utility.yul\":34270:34273   */\n      0x00\n        /* \"#utility.yul\":34291:34358   */\n      tag_898\n        /* \"#utility.yul\":34355:34357   */\n      0x20\n        /* \"#utility.yul\":34350:34353   */\n      dup4\n        /* \"#utility.yul\":34291:34358   */\n      tag_526\n      jump\t// in\n    tag_898:\n        /* \"#utility.yul\":34284:34358   */\n      swap2\n      pop\n        /* \"#utility.yul\":34367:34460   */\n      tag_899\n        /* \"#utility.yul\":34456:34459   */\n      dup3\n        /* \"#utility.yul\":34367:34460   */\n      tag_584\n      jump\t// in\n    tag_899:\n        /* \"#utility.yul\":34485:34487   */\n      0x20\n        /* \"#utility.yul\":34480:34483   */\n      dup3\n        /* \"#utility.yul\":34476:34488   */\n      add\n        /* \"#utility.yul\":34469:34488   */\n      swap1\n      pop\n        /* \"#utility.yul\":34128:34494   */\n      swap2\n      swap1\n      pop\n      jump\t// out\n        /* \"#utility.yul\":34500:34919   */\n    tag_410:\n        /* \"#utility.yul\":34666:34670   */\n      0x00\n        /* \"#utility.yul\":34704:34706   */\n      0x20\n        /* \"#utility.yul\":34693:34702   */\n      dup3\n        /* \"#utility.yul\":34689:34707   */\n      add\n        /* \"#utility.yul\":34681:34707   */\n      swap1\n      pop\n        /* \"#utility.yul\":34753:34762   */\n      dup2\n        /* \"#utility.yul\":34747:34751   */\n      dup2\n        /* \"#utility.yul\":34743:34763   */\n      sub\n        /* \"#utility.yul\":34739:34740   */\n      0x00\n        /* \"#utility.yul\":34728:34737   */\n      dup4\n        /* \"#utility.yul\":34724:34741   */\n      add\n        /* \"#utility.yul\":34717:34764   */\n      mstore\n        /* \"#utility.yul\":34781:34912   */\n      tag_901\n        /* \"#utility.yul\":34907:34911   */\n      dup2\n        /* \"#utility.yul\":34781:34912   */\n      tag_585\n      jump\t// in\n    tag_901:\n        /* \"#utility.yul\":34773:34912   */\n      swap1\n      pop\n        /* \"#utility.yul\":34500:34919   */\n      swap2\n      swap1\n      pop\n      jump\t// out\n        /* \"#utility.yul\":34925:35095   */\n    tag_586:\n        /* \"#utility.yul\":35065:35087   */\n      0x5061757361626c653a206e6f7420706175736564000000000000000000000000\n        /* \"#utility.yul\":35061:35062   */\n      0x00\n        /* \"#utility.yul\":35053:35059   */\n      dup3\n        /* \"#utility.yul\":35049:35063   */\n      add\n        /* \"#utility.yul\":35042:35088   */\n      mstore\n        /* \"#utility.yul\":34925:35095   */\n      pop\n      jump\t// out\n        /* \"#utility.yul\":35101:35467   */\n    tag_587:\n        /* \"#utility.yul\":35243:35246   */\n      0x00\n        /* \"#utility.yul\":35264:35331   */\n      tag_904\n        /* \"#utility.yul\":35328:35330   */\n      0x14\n        /* \"#utility.yul\":35323:35326   */\n      dup4\n        /* \"#utility.yul\":35264:35331   */\n      tag_526\n      jump\t// in\n    tag_904:\n        /* \"#utility.yul\":35257:35331   */\n      swap2\n      pop\n        /* \"#utility.yul\":35340:35433   */\n      tag_905\n        /* \"#utility.yul\":35429:35432   */\n      dup3\n        /* \"#utility.yul\":35340:35433   */\n      tag_586\n      jump\t// in\n    tag_905:\n        /* \"#utility.yul\":35458:35460   */\n      0x20\n        /* \"#utility.yul\":35453:35456   */\n      dup3\n        /* \"#utility.yul\":35449:35461   */\n      add\n        /* \"#utility.yul\":35442:35461   */\n      swap1\n      pop\n        /* \"#utility.yul\":35101:35467   */\n      swap2\n      swap1\n      pop\n      jump\t// out\n        /* \"#utility.yul\":35473:35892   */\n    tag_415:\n        /* \"#utility.yul\":35639:35643   */\n      0x00\n        /* \"#utility.yul\":35677:35679   */\n      0x20\n        /* \"#utility.yul\":35666:35675   */\n      dup3\n        /* \"#utility.yul\":35662:35680   */\n      add\n        /* \"#utility.yul\":35654:35680   */\n      swap1\n      pop\n        /* \"#utility.yul\":35726:35735   */\n      dup2\n        /* \"#utility.yul\":35720:35724   */\n      dup2\n        /* \"#utility.yul\":35716:35736   */\n      sub\n        /* \"#utility.yul\":35712:35713   */\n      0x00\n        /* \"#utility.yul\":35701:35710   */\n      dup4\n        /* \"#utility.yul\":35697:35714   */\n      add\n        /* \"#utility.yul\":35690:35737   */\n      mstore\n        /* \"#utility.yul\":35754:35885   */\n      tag_907\n        /* \"#utility.yul\":35880:35884   */\n      dup2\n        /* \"#utility.yul\":35754:35885   */\n      tag_587\n      jump\t// in\n    tag_907:\n        /* \"#utility.yul\":35746:35885   */\n      swap1\n      pop\n        /* \"#utility.yul\":35473:35892   */\n      swap2\n      swap1\n      pop\n      jump\t// out\n        /* \"#utility.yul\":35898:36064   */\n    tag_588:\n        /* \"#utility.yul\":36038:36056   */\n      0x5061757361626c653a2070617573656400000000000000000000000000000000\n        /* \"#utility.yul\":36034:36035   */\n      0x00\n        /* \"#utility.yul\":36026:36032   */\n      dup3\n        /* \"#utility.yul\":36022:36036   */\n      add\n        /* \"#utility.yul\":36015:36057   */\n      mstore\n        /* \"#utility.yul\":35898:36064   */\n      pop\n      jump\t// out\n        /* \"#utility.yul\":36070:36436   */\n    tag_589:\n        /* \"#utility.yul\":36212:36215   */\n      0x00\n        /* \"#utility.yul\":36233:36300   */\n      tag_910\n        /* \"#utility.yul\":36297:36299   */\n      0x10\n        /* \"#utility.yul\":36292:36295   */\n      dup4\n        /* \"#utility.yul\":36233:36300   */\n      tag_526\n      jump\t// in\n    tag_910:\n        /* \"#utility.yul\":36226:36300   */\n      swap2\n      pop\n        /* \"#utility.yul\":36309:36402   */\n      tag_911\n        /* \"#utility.yul\":36398:36401   */\n      dup3\n        /* \"#utility.yul\":36309:36402   */\n      tag_588\n      jump\t// in\n    tag_911:\n        /* \"#utility.yul\":36427:36429   */\n      0x20\n        /* \"#utility.yul\":36422:36425   */\n      dup3\n        /* \"#utility.yul\":36418:36430   */\n      add\n        /* \"#utility.yul\":36411:36430   */\n      swap1\n      pop\n        /* \"#utility.yul\":36070:36436   */\n      swap2\n      swap1\n      pop\n      jump\t// out\n        /* \"#utility.yul\":36442:36861   */\n    tag_425:\n        /* \"#utility.yul\":36608:36612   */\n      0x00\n        /* \"#utility.yul\":36646:36648   */\n      0x20\n        /* \"#utility.yul\":36635:36644   */\n      dup3\n        /* \"#utility.yul\":36631:36649   */\n      add\n        /* \"#utility.yul\":36623:36649   */\n      swap1\n      pop\n        /* \"#utility.yul\":36695:36704   */\n      dup2\n        /* \"#utility.yul\":36689:36693   */\n      dup2\n        /* \"#utility.yul\":36685:36705   */\n      sub\n        /* \"#utility.yul\":36681:36682   */\n      0x00\n        /* \"#utility.yul\":36670:36679   */\n      dup4\n        /* \"#utility.yul\":36666:36683   */\n      add\n        /* \"#utility.yul\":36659:36706   */\n      mstore\n        /* \"#utility.yul\":36723:36854   */\n      tag_913\n        /* \"#utility.yul\":36849:36853   */\n      dup2\n        /* \"#utility.yul\":36723:36854   */\n      tag_589\n      jump\t// in\n    tag_913:\n        /* \"#utility.yul\":36715:36854   */\n      swap1\n      pop\n        /* \"#utility.yul\":36442:36861   */\n      swap2\n      swap1\n      pop\n      jump\t// out\n        /* \"#utility.yul\":36867:37860   */\n    tag_445:\n        /* \"#utility.yul\":36974:36980   */\n      0x00\n        /* \"#utility.yul\":36982:36988   */\n      dup1\n        /* \"#utility.yul\":36990:36996   */\n      0x00\n        /* \"#utility.yul\":36998:37004   */\n      dup1\n        /* \"#utility.yul\":37047:37050   */\n      0x80\n        /* \"#utility.yul\":37035:37044   */\n      dup6\n        /* \"#utility.yul\":37026:37033   */\n      dup8\n        /* \"#utility.yul\":37022:37045   */\n      sub\n        /* \"#utility.yul\":37018:37051   */\n      slt\n        /* \"#utility.yul\":37015:37135   */\n      iszero\n      tag_915\n      jumpi\n        /* \"#utility.yul\":37054:37133   */\n      tag_916\n      tag_512\n      jump\t// in\n    tag_916:\n        /* \"#utility.yul\":37015:37135   */\n    tag_915:\n        /* \"#utility.yul\":37174:37175   */\n      0x00\n        /* \"#utility.yul\":37199:37263   */\n      tag_917\n        /* \"#utility.yul\":37255:37262   */\n      dup8\n        /* \"#utility.yul\":37246:37252   */\n      dup3\n        /* \"#utility.yul\":37235:37244   */\n      dup9\n        /* \"#utility.yul\":37231:37253   */\n      add\n        /* \"#utility.yul\":37199:37263   */\n      tag_564\n      jump\t// in\n    tag_917:\n        /* \"#utility.yul\":37189:37263   */\n      swap5\n      pop\n        /* \"#utility.yul\":37145:37273   */\n      pop\n        /* \"#utility.yul\":37312:37314   */\n      0x20\n        /* \"#utility.yul\":37338:37402   */\n      tag_918\n        /* \"#utility.yul\":37394:37401   */\n      dup8\n        /* \"#utility.yul\":37385:37391   */\n      dup3\n        /* \"#utility.yul\":37374:37383   */\n      dup9\n        /* \"#utility.yul\":37370:37392   */\n      add\n        /* \"#utility.yul\":37338:37402   */\n      tag_564\n      jump\t// in\n    tag_918:\n        /* \"#utility.yul\":37328:37402   */\n      swap4\n      pop\n        /* \"#utility.yul\":37283:37412   */\n      pop\n        /* \"#utility.yul\":37472:37474   */\n      0x40\n        /* \"#utility.yul\":37461:37470   */\n      dup6\n        /* \"#utility.yul\":37457:37475   */\n      add\n        /* \"#utility.yul\":37451:37476   */\n      mload\n        /* \"#utility.yul\":37503:37521   */\n      0xffffffffffffffff\n        /* \"#utility.yul\":37495:37501   */\n      dup2\n        /* \"#utility.yul\":37492:37522   */\n      gt\n        /* \"#utility.yul\":37489:37606   */\n      iszero\n      tag_919\n      jumpi\n        /* \"#utility.yul\":37525:37604   */\n      tag_920\n      tag_513\n      jump\t// in\n    tag_920:\n        /* \"#utility.yul\":37489:37606   */\n    tag_919:\n        /* \"#utility.yul\":37630:37704   */\n      tag_921\n        /* \"#utility.yul\":37696:37703   */\n      dup8\n        /* \"#utility.yul\":37687:37693   */\n      dup3\n        /* \"#utility.yul\":37676:37685   */\n      dup9\n        /* \"#utility.yul\":37672:37694   */\n      add\n        /* \"#utility.yul\":37630:37704   */\n      tag_538\n      jump\t// in\n    tag_921:\n        /* \"#utility.yul\":37620:37704   */\n      swap3\n      pop\n        /* \"#utility.yul\":37422:37714   */\n      pop\n        /* \"#utility.yul\":37753:37755   */\n      0x60\n        /* \"#utility.yul\":37779:37843   */\n      tag_922\n        /* \"#utility.yul\":37835:37842   */\n      dup8\n        /* \"#utility.yul\":37826:37832   */\n      dup3\n        /* \"#utility.yul\":37815:37824   */\n      dup9\n        /* \"#utility.yul\":37811:37833   */\n      add\n        /* \"#utility.yul\":37779:37843   */\n      tag_564\n      jump\t// in\n    tag_922:\n        /* \"#utility.yul\":37769:37843   */\n      swap2\n      pop\n        /* \"#utility.yul\":37724:37853   */\n      pop\n        /* \"#utility.yul\":36867:37860   */\n      swap3\n      swap6\n      swap2\n      swap5\n      pop\n      swap3\n      pop\n      jump\t// out\n        /* \"#utility.yul\":37866:38712   */\n    tag_452:\n        /* \"#utility.yul\":38111:38115   */\n      0x00\n        /* \"#utility.yul\":38149:38152   */\n      0xa0\n        /* \"#utility.yul\":38138:38147   */\n      dup3\n        /* \"#utility.yul\":38134:38153   */\n      add\n        /* \"#utility.yul\":38126:38153   */\n      swap1\n      pop\n        /* \"#utility.yul\":38163:38234   */\n      tag_924\n        /* \"#utility.yul\":38231:38232   */\n      0x00\n        /* \"#utility.yul\":38220:38229   */\n      dup4\n        /* \"#utility.yul\":38216:38233   */\n      add\n        /* \"#utility.yul\":38207:38213   */\n      dup9\n        /* \"#utility.yul\":38163:38234   */\n      tag_522\n      jump\t// in\n    tag_924:\n        /* \"#utility.yul\":38244:38316   */\n      tag_925\n        /* \"#utility.yul\":38312:38314   */\n      0x20\n        /* \"#utility.yul\":38301:38310   */\n      dup4\n        /* \"#utility.yul\":38297:38315   */\n      add\n        /* \"#utility.yul\":38288:38294   */\n      dup8\n        /* \"#utility.yul\":38244:38316   */\n      tag_522\n      jump\t// in\n    tag_925:\n        /* \"#utility.yul\":38363:38372   */\n      dup2\n        /* \"#utility.yul\":38357:38361   */\n      dup2\n        /* \"#utility.yul\":38353:38373   */\n      sub\n        /* \"#utility.yul\":38348:38350   */\n      0x40\n        /* \"#utility.yul\":38337:38346   */\n      dup4\n        /* \"#utility.yul\":38333:38351   */\n      add\n        /* \"#utility.yul\":38326:38374   */\n      mstore\n        /* \"#utility.yul\":38391:38469   */\n      tag_926\n        /* \"#utility.yul\":38464:38468   */\n      dup2\n        /* \"#utility.yul\":38455:38461   */\n      dup7\n        /* \"#utility.yul\":38391:38469   */\n      tag_529\n      jump\t// in\n    tag_926:\n        /* \"#utility.yul\":38383:38469   */\n      swap1\n      pop\n        /* \"#utility.yul\":38479:38551   */\n      tag_927\n        /* \"#utility.yul\":38547:38549   */\n      0x60\n        /* \"#utility.yul\":38536:38545   */\n      dup4\n        /* \"#utility.yul\":38532:38550   */\n      add\n        /* \"#utility.yul\":38523:38529   */\n      dup6\n        /* \"#utility.yul\":38479:38551   */\n      tag_522\n      jump\t// in\n    tag_927:\n        /* \"#utility.yul\":38599:38608   */\n      dup2\n        /* \"#utility.yul\":38593:38597   */\n      dup2\n        /* \"#utility.yul\":38589:38609   */\n      sub\n        /* \"#utility.yul\":38583:38586   */\n      0x80\n        /* \"#utility.yul\":38572:38581   */\n      dup4\n        /* \"#utility.yul\":38568:38587   */\n      add\n        /* \"#utility.yul\":38561:38610   */\n      mstore\n        /* \"#utility.yul\":38627:38705   */\n      tag_928\n        /* \"#utility.yul\":38700:38704   */\n      dup2\n        /* \"#utility.yul\":38691:38697   */\n      dup5\n        /* \"#utility.yul\":38627:38705   */\n      tag_529\n      jump\t// in\n    tag_928:\n        /* \"#utility.yul\":38619:38705   */\n      swap1\n      pop\n        /* \"#utility.yul\":37866:38712   */\n      swap7\n      swap6\n      pop\n      pop\n      pop\n      pop\n      pop\n      pop\n      jump\t// out\n        /* \"#utility.yul\":38718:39160   */\n    tag_460:\n        /* \"#utility.yul\":38867:38871   */\n      0x00\n        /* \"#utility.yul\":38905:38907   */\n      0x60\n        /* \"#utility.yul\":38894:38903   */\n      dup3\n        /* \"#utility.yul\":38890:38908   */\n      add\n        /* \"#utility.yul\":38882:38908   */\n      swap1\n      pop\n        /* \"#utility.yul\":38918:38989   */\n      tag_930\n        /* \"#utility.yul\":38986:38987   */\n      0x00\n        /* \"#utility.yul\":38975:38984   */\n      dup4\n        /* \"#utility.yul\":38971:38988   */\n      add\n        /* \"#utility.yul\":38962:38968   */\n      dup7\n        /* \"#utility.yul\":38918:38989   */\n      tag_521\n      jump\t// in\n    tag_930:\n        /* \"#utility.yul\":38999:39071   */\n      tag_931\n        /* \"#utility.yul\":39067:39069   */\n      0x20\n        /* \"#utility.yul\":39056:39065   */\n      dup4\n        /* \"#utility.yul\":39052:39070   */\n      add\n        /* \"#utility.yul\":39043:39049   */\n      dup6\n        /* \"#utility.yul\":38999:39071   */\n      tag_521\n      jump\t// in\n    tag_931:\n        /* \"#utility.yul\":39081:39153   */\n      tag_932\n        /* \"#utility.yul\":39149:39151   */\n      0x40\n        /* \"#utility.yul\":39138:39147   */\n      dup4\n        /* \"#utility.yul\":39134:39152   */\n      add\n        /* \"#utility.yul\":39125:39131   */\n      dup5\n        /* \"#utility.yul\":39081:39153   */\n      tag_522\n      jump\t// in\n    tag_932:\n        /* \"#utility.yul\":38718:39160   */\n      swap5\n      swap4\n      pop\n      pop\n      pop\n      pop\n      jump\t// out\n        /* \"#utility.yul\":39166:39339   */\n    tag_590:\n        /* \"#utility.yul\":39306:39331   */\n      0x4e6f20746f6b656e7320746f206265206275726e656421000000000000000000\n        /* \"#utility.yul\":39302:39303   */\n      0x00\n        /* \"#utility.yul\":39294:39300   */\n      dup3\n        /* \"#utility.yul\":39290:39304   */\n      add\n        /* \"#utility.yul\":39283:39332   */\n      mstore\n        /* \"#utility.yul\":39166:39339   */\n      pop\n      jump\t// out\n        /* \"#utility.yul\":39345:39711   */\n    tag_591:\n        /* \"#utility.yul\":39487:39490   */\n      0x00\n        /* \"#utility.yul\":39508:39575   */\n      tag_935\n        /* \"#utility.yul\":39572:39574   */\n      0x17\n        /* \"#utility.yul\":39567:39570   */\n      dup4\n        /* \"#utility.yul\":39508:39575   */\n      tag_526\n      jump\t// in\n    tag_935:\n        /* \"#utility.yul\":39501:39575   */\n      swap2\n      pop\n        /* \"#utility.yul\":39584:39677   */\n      tag_936\n        /* \"#utility.yul\":39673:39676   */\n      dup3\n        /* \"#utility.yul\":39584:39677   */\n      tag_590\n      jump\t// in\n    tag_936:\n        /* \"#utility.yul\":39702:39704   */\n      0x20\n        /* \"#utility.yul\":39697:39700   */\n      dup3\n        /* \"#utility.yul\":39693:39705   */\n      add\n        /* \"#utility.yul\":39686:39705   */\n      swap1\n      pop\n        /* \"#utility.yul\":39345:39711   */\n      swap2\n      swap1\n      pop\n      jump\t// out\n        /* \"#utility.yul\":39717:40136   */\n    tag_465:\n        /* \"#utility.yul\":39883:39887   */\n      0x00\n        /* \"#utility.yul\":39921:39923   */\n      0x20\n        /* \"#utility.yul\":39910:39919   */\n      dup3\n        /* \"#utility.yul\":39906:39924   */\n      add\n        /* \"#utility.yul\":39898:39924   */\n      swap1\n      pop\n        /* \"#utility.yul\":39970:39979   */\n      dup2\n        /* \"#utility.yul\":39964:39968   */\n      dup2\n        /* \"#utility.yul\":39960:39980   */\n      sub\n        /* \"#utility.yul\":39956:39957   */\n      0x00\n        /* \"#utility.yul\":39945:39954   */\n      dup4\n        /* \"#utility.yul\":39941:39958   */\n      add\n        /* \"#utility.yul\":39934:39981   */\n      mstore\n        /* \"#utility.yul\":39998:40129   */\n      tag_938\n        /* \"#utility.yul\":40124:40128   */\n      dup2\n        /* \"#utility.yul\":39998:40129   */\n      tag_591\n      jump\t// in\n    tag_938:\n        /* \"#utility.yul\":39990:40129   */\n      swap1\n      pop\n        /* \"#utility.yul\":39717:40136   */\n      swap2\n      swap1\n      pop\n      jump\t// out\n        /* \"#utility.yul\":40142:40368   */\n    tag_592:\n        /* \"#utility.yul\":40282:40316   */\n      0x7472616e73616374696f6e207265766572746564206275726e20756e73756363\n        /* \"#utility.yul\":40278:40279   */\n      0x00\n        /* \"#utility.yul\":40270:40276   */\n      dup3\n        /* \"#utility.yul\":40266:40280   */\n      add\n        /* \"#utility.yul\":40259:40317   */\n      mstore\n        /* \"#utility.yul\":40351:40360   */\n      0x657366756c6c2100000000000000000000000000000000000000000000000000\n        /* \"#utility.yul\":40346:40348   */\n      0x20\n        /* \"#utility.yul\":40338:40344   */\n      dup3\n        /* \"#utility.yul\":40334:40349   */\n      add\n        /* \"#utility.yul\":40327:40361   */\n      mstore\n        /* \"#utility.yul\":40142:40368   */\n      pop\n      jump\t// out\n        /* \"#utility.yul\":40374:40740   */\n    tag_593:\n        /* \"#utility.yul\":40516:40519   */\n      0x00\n        /* \"#utility.yul\":40537:40604   */\n      tag_941\n        /* \"#utility.yul\":40601:40603   */\n      0x27\n        /* \"#utility.yul\":40596:40599   */\n      dup4\n        /* \"#utility.yul\":40537:40604   */\n      tag_526\n      jump\t// in\n    tag_941:\n        /* \"#utility.yul\":40530:40604   */\n      swap2\n      pop\n        /* \"#utility.yul\":40613:40706   */\n      tag_942\n        /* \"#utility.yul\":40702:40705   */\n      dup3\n        /* \"#utility.yul\":40613:40706   */\n      tag_592\n      jump\t// in\n    tag_942:\n        /* \"#utility.yul\":40731:40733   */\n      0x40\n        /* \"#utility.yul\":40726:40729   */\n      dup3\n        /* \"#utility.yul\":40722:40734   */\n      add\n        /* \"#utility.yul\":40715:40734   */\n      swap1\n      pop\n        /* \"#utility.yul\":40374:40740   */\n      swap2\n      swap1\n      pop\n      jump\t// out\n        /* \"#utility.yul\":40746:41165   */\n    tag_475:\n        /* \"#utility.yul\":40912:40916   */\n      0x00\n        /* \"#utility.yul\":40950:40952   */\n      0x20\n        /* \"#utility.yul\":40939:40948   */\n      dup3\n        /* \"#utility.yul\":40935:40953   */\n      add\n        /* \"#utility.yul\":40927:40953   */\n      swap1\n      pop\n        /* \"#utility.yul\":40999:41008   */\n      dup2\n        /* \"#utility.yul\":40993:40997   */\n      dup2\n        /* \"#utility.yul\":40989:41009   */\n      sub\n        /* \"#utility.yul\":40985:40986   */\n      0x00\n        /* \"#utility.yul\":40974:40983   */\n      dup4\n        /* \"#utility.yul\":40970:40987   */\n      add\n        /* \"#utility.yul\":40963:41010   */\n      mstore\n        /* \"#utility.yul\":41027:41158   */\n      tag_944\n        /* \"#utility.yul\":41153:41157   */\n      dup2\n        /* \"#utility.yul\":41027:41158   */\n      tag_593\n      jump\t// in\n    tag_944:\n        /* \"#utility.yul\":41019:41158   */\n      swap1\n      pop\n        /* \"#utility.yul\":40746:41165   */\n      swap2\n      swap1\n      pop\n      jump\t// out\n        /* \"#utility.yul\":41171:41400   */\n    tag_594:\n        /* \"#utility.yul\":41311:41345   */\n      0x5361666545524332303a204552433230206f7065726174696f6e20646964206e\n        /* \"#utility.yul\":41307:41308   */\n      0x00\n        /* \"#utility.yul\":41299:41305   */\n      dup3\n        /* \"#utility.yul\":41295:41309   */\n      add\n        /* \"#utility.yul\":41288:41346   */\n      mstore\n        /* \"#utility.yul\":41380:41392   */\n      0x6f74207375636365656400000000000000000000000000000000000000000000\n        /* \"#utility.yul\":41375:41377   */\n      0x20\n        /* \"#utility.yul\":41367:41373   */\n      dup3\n        /* \"#utility.yul\":41363:41378   */\n      add\n        /* \"#utility.yul\":41356:41393   */\n      mstore\n        /* \"#utility.yul\":41171:41400   */\n      pop\n      jump\t// out\n        /* \"#utility.yul\":41406:41772   */\n    tag_595:\n        /* \"#utility.yul\":41548:41551   */\n      0x00\n        /* \"#utility.yul\":41569:41636   */\n      tag_947\n        /* \"#utility.yul\":41633:41635   */\n      0x2a\n        /* \"#utility.yul\":41628:41631   */\n      dup4\n        /* \"#utility.yul\":41569:41636   */\n      tag_526\n      jump\t// in\n    tag_947:\n        /* \"#utility.yul\":41562:41636   */\n      swap2\n      pop\n        /* \"#utility.yul\":41645:41738   */\n      tag_948\n        /* \"#utility.yul\":41734:41737   */\n      dup3\n        /* \"#utility.yul\":41645:41738   */\n      tag_594\n      jump\t// in\n    tag_948:\n        /* \"#utility.yul\":41763:41765   */\n      0x40\n        /* \"#utility.yul\":41758:41761   */\n      dup3\n        /* \"#utility.yul\":41754:41766   */\n      add\n        /* \"#utility.yul\":41747:41766   */\n      swap1\n      pop\n        /* \"#utility.yul\":41406:41772   */\n      swap2\n      swap1\n      pop\n      jump\t// out\n        /* \"#utility.yul\":41778:42197   */\n    tag_484:\n        /* \"#utility.yul\":41944:41948   */\n      0x00\n        /* \"#utility.yul\":41982:41984   */\n      0x20\n        /* \"#utility.yul\":41971:41980   */\n      dup3\n        /* \"#utility.yul\":41967:41985   */\n      add\n        /* \"#utility.yul\":41959:41985   */\n      swap1\n      pop\n        /* \"#utility.yul\":42031:42040   */\n      dup2\n        /* \"#utility.yul\":42025:42029   */\n      dup2\n        /* \"#utility.yul\":42021:42041   */\n      sub\n        /* \"#utility.yul\":42017:42018   */\n      0x00\n        /* \"#utility.yul\":42006:42015   */\n      dup4\n        /* \"#utility.yul\":42002:42019   */\n      add\n        /* \"#utility.yul\":41995:42042   */\n      mstore\n        /* \"#utility.yul\":42059:42190   */\n      tag_950\n        /* \"#utility.yul\":42185:42189   */\n      dup2\n        /* \"#utility.yul\":42059:42190   */\n      tag_595\n      jump\t// in\n    tag_950:\n        /* \"#utility.yul\":42051:42190   */\n      swap1\n      pop\n        /* \"#utility.yul\":41778:42197   */\n      swap2\n      swap1\n      pop\n      jump\t// out\n        /* \"#utility.yul\":42203:42428   */\n    tag_596:\n        /* \"#utility.yul\":42343:42377   */\n      0x416464726573733a20696e73756666696369656e742062616c616e636520666f\n        /* \"#utility.yul\":42339:42340   */\n      0x00\n        /* \"#utility.yul\":42331:42337   */\n      dup3\n        /* \"#utility.yul\":42327:42341   */\n      add\n        /* \"#utility.yul\":42320:42378   */\n      mstore\n        /* \"#utility.yul\":42412:42420   */\n      0x722063616c6c0000000000000000000000000000000000000000000000000000\n        /* \"#utility.yul\":42407:42409   */\n      0x20\n        /* \"#utility.yul\":42399:42405   */\n      dup3\n        /* \"#utility.yul\":42395:42410   */\n      add\n        /* \"#utility.yul\":42388:42421   */\n      mstore\n        /* \"#utility.yul\":42203:42428   */\n      pop\n      jump\t// out\n        /* \"#utility.yul\":42434:42800   */\n    tag_597:\n        /* \"#utility.yul\":42576:42579   */\n      0x00\n        /* \"#utility.yul\":42597:42664   */\n      tag_953\n        /* \"#utility.yul\":42661:42663   */\n      0x26\n        /* \"#utility.yul\":42656:42659   */\n      dup4\n        /* \"#utility.yul\":42597:42664   */\n      tag_526\n      jump\t// in\n    tag_953:\n        /* \"#utility.yul\":42590:42664   */\n      swap2\n      pop\n        /* \"#utility.yul\":42673:42766   */\n      tag_954\n        /* \"#utility.yul\":42762:42765   */\n      dup3\n        /* \"#utility.yul\":42673:42766   */\n      tag_596\n      jump\t// in\n    tag_954:\n        /* \"#utility.yul\":42791:42793   */\n      0x40\n        /* \"#utility.yul\":42786:42789   */\n      dup3\n        /* \"#utility.yul\":42782:42794   */\n      add\n        /* \"#utility.yul\":42775:42794   */\n      swap1\n      pop\n        /* \"#utility.yul\":42434:42800   */\n      swap2\n      swap1\n      pop\n      jump\t// out\n        /* \"#utility.yul\":42806:43225   */\n    tag_491:\n        /* \"#utility.yul\":42972:42976   */\n      0x00\n        /* \"#utility.yul\":43010:43012   */\n      0x20\n        /* \"#utility.yul\":42999:43008   */\n      dup3\n        /* \"#utility.yul\":42995:43013   */\n      add\n        /* \"#utility.yul\":42987:43013   */\n      swap1\n      pop\n        /* \"#utility.yul\":43059:43068   */\n      dup2\n        /* \"#utility.yul\":43053:43057   */\n      dup2\n        /* \"#utility.yul\":43049:43069   */\n      sub\n        /* \"#utility.yul\":43045:43046   */\n      0x00\n        /* \"#utility.yul\":43034:43043   */\n      dup4\n        /* \"#utility.yul\":43030:43047   */\n      add\n        /* \"#utility.yul\":43023:43070   */\n      mstore\n        /* \"#utility.yul\":43087:43218   */\n      tag_956\n        /* \"#utility.yul\":43213:43217   */\n      dup2\n        /* \"#utility.yul\":43087:43218   */\n      tag_597\n      jump\t// in\n    tag_956:\n        /* \"#utility.yul\":43079:43218   */\n      swap1\n      pop\n        /* \"#utility.yul\":42806:43225   */\n      swap2\n      swap1\n      pop\n      jump\t// out\n        /* \"#utility.yul\":43231:43410   */\n    tag_598:\n        /* \"#utility.yul\":43371:43402   */\n      0x416464726573733a2063616c6c20746f206e6f6e2d636f6e7472616374000000\n        /* \"#utility.yul\":43367:43368   */\n      0x00\n        /* \"#utility.yul\":43359:43365   */\n      dup3\n        /* \"#utility.yul\":43355:43369   */\n      add\n        /* \"#utility.yul\":43348:43403   */\n      mstore\n        /* \"#utility.yul\":43231:43410   */\n      pop\n      jump\t// out\n        /* \"#utility.yul\":43416:43782   */\n    tag_599:\n        /* \"#utility.yul\":43558:43561   */\n      0x00\n        /* \"#utility.yul\":43579:43646   */\n      tag_959\n        /* \"#utility.yul\":43643:43645   */\n      0x1d\n        /* \"#utility.yul\":43638:43641   */\n      dup4\n        /* \"#utility.yul\":43579:43646   */\n      tag_526\n      jump\t// in\n    tag_959:\n        /* \"#utility.yul\":43572:43646   */\n      swap2\n      pop\n        /* \"#utility.yul\":43655:43748   */\n      tag_960\n        /* \"#utility.yul\":43744:43747   */\n      dup3\n        /* \"#utility.yul\":43655:43748   */\n      tag_598\n      jump\t// in\n    tag_960:\n        /* \"#utility.yul\":43773:43775   */\n      0x20\n        /* \"#utility.yul\":43768:43771   */\n      dup3\n        /* \"#utility.yul\":43764:43776   */\n      add\n        /* \"#utility.yul\":43757:43776   */\n      swap1\n      pop\n        /* \"#utility.yul\":43416:43782   */\n      swap2\n      swap1\n      pop\n      jump\t// out\n        /* \"#utility.yul\":43788:44207   */\n    tag_496:\n        /* \"#utility.yul\":43954:43958   */\n      0x00\n        /* \"#utility.yul\":43992:43994   */\n      0x20\n        /* \"#utility.yul\":43981:43990   */\n      dup3\n        /* \"#utility.yul\":43977:43995   */\n      add\n        /* \"#utility.yul\":43969:43995   */\n      swap1\n      pop\n        /* \"#utility.yul\":44041:44050   */\n      dup2\n        /* \"#utility.yul\":44035:44039   */\n      dup2\n        /* \"#utility.yul\":44031:44051   */\n      sub\n        /* \"#utility.yul\":44027:44028   */\n      0x00\n        /* \"#utility.yul\":44016:44025   */\n      dup4\n        /* \"#utility.yul\":44012:44029   */\n      add\n        /* \"#utility.yul\":44005:44052   */\n      mstore\n        /* \"#utility.yul\":44069:44200   */\n      tag_962\n        /* \"#utility.yul\":44195:44199   */\n      dup2\n        /* \"#utility.yul\":44069:44200   */\n      tag_599\n      jump\t// in\n    tag_962:\n        /* \"#utility.yul\":44061:44200   */\n      swap1\n      pop\n        /* \"#utility.yul\":43788:44207   */\n      swap2\n      swap1\n      pop\n      jump\t// out\n        /* \"#utility.yul\":44213:44311   */\n    tag_600:\n        /* \"#utility.yul\":44264:44270   */\n      0x00\n        /* \"#utility.yul\":44298:44303   */\n      dup2\n        /* \"#utility.yul\":44292:44304   */\n      mload\n        /* \"#utility.yul\":44282:44304   */\n      swap1\n      pop\n        /* \"#utility.yul\":44213:44311   */\n      swap2\n      swap1\n      pop\n      jump\t// out\n        /* \"#utility.yul\":44317:44464   */\n    tag_601:\n        /* \"#utility.yul\":44418:44429   */\n      0x00\n        /* \"#utility.yul\":44455:44458   */\n      dup2\n        /* \"#utility.yul\":44440:44458   */\n      swap1\n      pop\n        /* \"#utility.yul\":44317:44464   */\n      swap3\n      swap2\n      pop\n      pop\n      jump\t// out\n        /* \"#utility.yul\":44470:44856   */\n    tag_602:\n        /* \"#utility.yul\":44574:44577   */\n      0x00\n        /* \"#utility.yul\":44602:44640   */\n      tag_966\n        /* \"#utility.yul\":44634:44639   */\n      dup3\n        /* \"#utility.yul\":44602:44640   */\n      tag_600\n      jump\t// in\n    tag_966:\n        /* \"#utility.yul\":44656:44744   */\n      tag_967\n        /* \"#utility.yul\":44737:44743   */\n      dup2\n        /* \"#utility.yul\":44732:44735   */\n      dup6\n        /* \"#utility.yul\":44656:44744   */\n      tag_601\n      jump\t// in\n    tag_967:\n        /* \"#utility.yul\":44649:44744   */\n      swap4\n      pop\n        /* \"#utility.yul\":44753:44818   */\n      tag_968\n        /* \"#utility.yul\":44811:44817   */\n      dup2\n        /* \"#utility.yul\":44806:44809   */\n      dup6\n        /* \"#utility.yul\":44799:44803   */\n      0x20\n        /* \"#utility.yul\":44792:44797   */\n      dup7\n        /* \"#utility.yul\":44788:44804   */\n      add\n        /* \"#utility.yul\":44753:44818   */\n      tag_527\n      jump\t// in\n    tag_968:\n        /* \"#utility.yul\":44843:44849   */\n      dup1\n        /* \"#utility.yul\":44838:44841   */\n      dup5\n        /* \"#utility.yul\":44834:44850   */\n      add\n        /* \"#utility.yul\":44827:44850   */\n      swap2\n      pop\n        /* \"#utility.yul\":44578:44856   */\n      pop\n        /* \"#utility.yul\":44470:44856   */\n      swap3\n      swap2\n      pop\n      pop\n      jump\t// out\n        /* \"#utility.yul\":44862:45133   */\n    tag_498:\n        /* \"#utility.yul\":44992:44995   */\n      0x00\n        /* \"#utility.yul\":45014:45107   */\n      tag_970\n        /* \"#utility.yul\":45103:45106   */\n      dup3\n        /* \"#utility.yul\":45094:45100   */\n      dup5\n        /* \"#utility.yul\":45014:45107   */\n      tag_602\n      jump\t// in\n    tag_970:\n        /* \"#utility.yul\":45007:45107   */\n      swap2\n      pop\n        /* \"#utility.yul\":45124:45127   */\n      dup2\n        /* \"#utility.yul\":45117:45127   */\n      swap1\n      pop\n        /* \"#utility.yul\":44862:45133   */\n      swap3\n      swap2\n      pop\n      pop\n      jump\t// out\n\n    auxdata: 0xa2646970667358221220f82c73c1f1204f84ae8ddabe0950497d161e8435aa2560c0c2a7616192437e1364736f6c63430008170033\n}\n",
				"bytecode": {
					"linkReferences": {},
					"object": "60c060405260018060146101000a81548160ff02191690831515021790555060006002556000600355600060045560006005553480156200003f57600080fd5b506040516200477338038062004773833981810160405281019062000065919062000280565b60008060006101000a81548160ff0219169083151502179055506200009f620000936200014960201b60201c565b6200015160201b60201c565b600073ffffffffffffffffffffffffffffffffffffffff168173ffffffffffffffffffffffffffffffffffffffff1603620000d957600080fd5b8073ffffffffffffffffffffffffffffffffffffffff1660808173ffffffffffffffffffffffffffffffffffffffff16815250508173ffffffffffffffffffffffffffffffffffffffff1660a08173ffffffffffffffffffffffffffffffffffffffff16815250505050620002c7565b600033905090565b60008060019054906101000a900473ffffffffffffffffffffffffffffffffffffffff16905081600060016101000a81548173ffffffffffffffffffffffffffffffffffffffff021916908373ffffffffffffffffffffffffffffffffffffffff1602179055508173ffffffffffffffffffffffffffffffffffffffff168173ffffffffffffffffffffffffffffffffffffffff167f8be0079c531659141344cd1fd0a4f28419497f9722a3daafe3b4186f6b6457e060405160405180910390a35050565b600080fd5b600073ffffffffffffffffffffffffffffffffffffffff82169050919050565b600062000248826200021b565b9050919050565b6200025a816200023b565b81146200026657600080fd5b50565b6000815190506200027a816200024f565b92915050565b600080604083850312156200029a576200029962000216565b5b6000620002aa8582860162000269565b9250506020620002bd8582860162000269565b9150509250929050565b60805160a05161444e62000325600039600081816105090152818161119c01528181611454015281816119070152818161192801528181611ebe015281816120c901526129e1015260008181610ab10152611ad6015261444e6000f3fe608060405234801561001057600080fd5b50600436106101ce5760003560e01c80637754723e11610104578063b0b5e39e116100a2578063e808876611610071578063e808876614610478578063ed969c8414610482578063f2fde38b146104b2578063f9850907146104ce576101ce565b8063b0b5e39e146103f0578063b99152d01461040c578063ba007e751461043c578063e6367ebe1461045a576101ce565b80639934415e116100de5780639934415e14610377578063a24723e814610395578063a684ab5c146103b3578063abb1dc44146103d1576101ce565b80637754723e1461030b5780638da5cb5b1461033b5780639405de6414610359576101ce565b80632af0e251116101715780635c975abb1161014b5780635c975abb146102955780636a9d43dd146102b3578063715018a6146102e3578063722713f7146102ed576101ce565b80632af0e25114610263578063390885f71461028157806351b42b001461028b576101ce565b806308fadcb0116101ad57806308fadcb0146102035780630a6cb062146102215780630ba2f1d81461023d5780630f15f4c014610259576101ce565b8062f714ce146101d3578063046f7da2146101ef57806307da68f5146101f9575b600080fd5b6101ed60048036038101906101e89190612df5565b6104ec565b005b6101f76106ab565b005b6102016106c5565b005b61020b6106df565b6040516102189190612e44565b60405180910390f35b61023b60048036038101906102369190612e5f565b610799565b005b61025760048036038101906102529190612e5f565b61081e565b005b610261610a90565b005b61026b610c6a565b6040516102789190612e9b565b60405180910390f35b610289610dd1565b005b610293610ecf565b005b61029d61108a565b6040516102aa9190612ed1565b60405180910390f35b6102cd60048036038101906102c89190612eec565b6110a0565b6040516102da9190612ed1565b60405180910390f35b6102eb61117c565b005b6102f5611190565b6040516103029190612e9b565b60405180910390f35b61032560048036038101906103209190612f3f565b611239565b6040516103329190612e9b565b60405180910390f35b61034361135a565b6040516103509190612e44565b60405180910390f35b610361611383565b60405161036e9190612e9b565b60405180910390f35b61037f6114f3565b60405161038c9190612e44565b60405180910390f35b61039d611565565b6040516103aa9190612e9b565b60405180910390f35b6103bb61163c565b6040516103c89190612e9b565b60405180910390f35b6103d96117a3565b6040516103e7929190613022565b60405180910390f35b61040a60048036038101906104059190612e5f565b6119c2565b005b61042660048036038101906104219190612e5f565b611a47565b6040516104339190612e9b565b60405180910390f35b610444611ad2565b6040516104519190612e44565b60405180910390f35b610462611afa565b60405161046f9190613052565b60405180910390f35b610480611b9a565b005b61049c60048036038101906104979190613074565b611d3e565b6040516104a99190612ed1565b60405180910390f35b6104cc60048036038101906104c79190612e5f565b612128565b005b6104d66121ab565b6040516104e39190612e9b565b60405180910390f35b6104f4612312565b60055460045461050491906130d0565b8211157f000000000000000000000000000000000000000000000000000000000000000073ffffffffffffffffffffffffffffffffffffffff166395d89b416040518163ffffffff1660e01b8152600401600060405180830381865afa158015610572573d6000803e3d6000fd5b505050506040513d6000823e3d601f19601f8201168201806040525081019061059b919061322a565b6040516020016105ab9190613347565b604051602081830303815290604052906105fb576040517f08c379a00000000000000000000000000000000000000000000000000000000081526004016105f29190613052565b60405180910390fd5b506000821161063f576040517f08c379a0000000000000000000000000000000000000000000000000000000008152600401610636906133ea565b60405180910390fd5b8160056000828254610651919061340a565b925050819055508073ffffffffffffffffffffffffffffffffffffffff16427f71ef96c43343734b1d843bb85d52ef329f5e9143e4d35827771e3b0dd90c5f848460405161069f9190612e9b565b60405180910390a35050565b6106b3612390565b6106bb612312565b6106c36123d9565b565b6106cd61243b565b6106d5612312565b6106dd612485565b565b60008073ffffffffffffffffffffffffffffffffffffffff16600160009054906101000a900473ffffffffffffffffffffffffffffffffffffffff1673ffffffffffffffffffffffffffffffffffffffff1603610771576040517f08c379a00000000000000000000000000000000000000000000000000000000081526004016107689061348a565b60405180910390fd5b600160009054906101000a900473ffffffffffffffffffffffffffffffffffffffff16905090565b6107a1612312565b600073ffffffffffffffffffffffffffffffffffffffff168173ffffffffffffffffffffffffffffffffffffffff16036107da57600080fd5b80600660006101000a81548173ffffffffffffffffffffffffffffffffffffffff021916908373ffffffffffffffffffffffffffffffffffffffff16021790555050565b600073ffffffffffffffffffffffffffffffffffffffff16600160009054906101000a900473ffffffffffffffffffffffffffffffffffffffff1673ffffffffffffffffffffffffffffffffffffffff16036108af576040517f08c379a00000000000000000000000000000000000000000000000000000000081526004016108a69061348a565b60405180910390fd5b600160009054906101000a900473ffffffffffffffffffffffffffffffffffffffff1673ffffffffffffffffffffffffffffffffffffffff163373ffffffffffffffffffffffffffffffffffffffff161461093f576040517f08c379a0000000000000000000000000000000000000000000000000000000008152600401610936906134f6565b60405180910390fd5b600073ffffffffffffffffffffffffffffffffffffffff16600160009054906101000a900473ffffffffffffffffffffffffffffffffffffffff1673ffffffffffffffffffffffffffffffffffffffff16036109d0576040517f08c379a00000000000000000000000000000000000000000000000000000000081526004016109c79061348a565b60405180910390fd5b600073ffffffffffffffffffffffffffffffffffffffff168173ffffffffffffffffffffffffffffffffffffffff1603610a0957600080fd5b80600160006101000a81548173ffffffffffffffffffffffffffffffffffffffff021916908373ffffffffffffffffffffffffffffffffffffffff1602179055508073ffffffffffffffffffffffffffffffffffffffff167f8bbfeb6e784147166691d407a592a09379bbbd56888a96c54793bce54bb5752360405160405180910390a250565b610a9861243b565b3373ffffffffffffffffffffffffffffffffffffffff167f000000000000000000000000000000000000000000000000000000000000000073ffffffffffffffffffffffffffffffffffffffff1614610b26576040517f08c379a0000000000000000000000000000000000000000000000000000000008152600401610b1d90613562565b60405180910390fd5b600073ffffffffffffffffffffffffffffffffffffffff16600160009054906101000a900473ffffffffffffffffffffffffffffffffffffffff1673ffffffffffffffffffffffffffffffffffffffff1614610bb7576040517f08c379a0000000000000000000000000000000000000000000000000000000008152600401610bae906135ce565b60405180910390fd5b33600160006101000a81548173ffffffffffffffffffffffffffffffffffffffff021916908373ffffffffffffffffffffffffffffffffffffffff160217905550600160009054906101000a900473ffffffffffffffffffffffffffffffffffffffff1673ffffffffffffffffffffffffffffffffffffffff167ffbd0a3f6e9a0dd5f834515748047e83de8064477489a0a0d6b59c64bbecc992a42604051610c609190612e9b565b60405180910390a2565b60008073ffffffffffffffffffffffffffffffffffffffff16600160009054906101000a900473ffffffffffffffffffffffffffffffffffffffff1673ffffffffffffffffffffffffffffffffffffffff1603610cfc576040517f08c379a0000000000000000000000000000000000000000000000000000000008152600401610cf39061348a565b60405180910390fd5b600160009054906101000a900473ffffffffffffffffffffffffffffffffffffffff1673ffffffffffffffffffffffffffffffffffffffff163373ffffffffffffffffffffffffffffffffffffffff161480610d8a5750610d5b61135a565b73ffffffffffffffffffffffffffffffffffffffff163373ffffffffffffffffffffffffffffffffffffffff16145b610dc9576040517f08c379a0000000000000000000000000000000000000000000000000000000008152600401610dc090613660565b60405180910390fd5b600254905090565b610dd9612312565b600060055411610e1e576040517f08c379a0000000000000000000000000000000000000000000000000000000008152600401610e15906136cc565b60405180910390fd5b6000600554600454610e3091906130d0565b11610e70576040517f08c379a0000000000000000000000000000000000000000000000000000000008152600401610e6790613738565b60405180910390fd5b60055460046000828254610e8491906130d0565b92505081905550427f0e727ee3674546d683a39c7087ab966177f70026adb7d4fdefaef2bf0bb29a46600554604051610ebd9190612e9b565b60405180910390a26000600581905550565b600073ffffffffffffffffffffffffffffffffffffffff16600160009054906101000a900473ffffffffffffffffffffffffffffffffffffffff1673ffffffffffffffffffffffffffffffffffffffff1603610f60576040517f08c379a0000000000000000000000000000000000000000000000000000000008152600401610f579061348a565b60405180910390fd5b600160009054906101000a900473ffffffffffffffffffffffffffffffffffffffff1673ffffffffffffffffffffffffffffffffffffffff163373ffffffffffffffffffffffffffffffffffffffff1614610ff0576040517f08c379a0000000000000000000000000000000000000000000000000000000008152600401610fe7906134f6565b60405180910390fd5b610ff861243b565b6000600160006101000a81548173ffffffffffffffffffffffffffffffffffffffff021916908373ffffffffffffffffffffffffffffffffffffffff1602179055503373ffffffffffffffffffffffffffffffffffffffff167f13b865880a841dc469b629159fa1e730fee99568b0decc6737fd688b36246381426040516110809190612e9b565b60405180910390a2565b60008060009054906101000a900460ff16905090565b60006110aa612312565b816110b485611a47565b10156110f5576040517f08c379a00000000000000000000000000000000000000000000000000000000081526004016110ec906137a4565b60405180910390fd5b8373ffffffffffffffffffffffffffffffffffffffff1663a9059cbb84846040518363ffffffff1660e01b81526004016111309291906137c4565b6020604051808303816000875af115801561114f573d6000803e3d6000fd5b505050506040513d601f19601f820116820180604052508101906111739190613819565b90509392505050565b611184612312565b61118e60006124e7565b565b600061119a612312565b7f000000000000000000000000000000000000000000000000000000000000000073ffffffffffffffffffffffffffffffffffffffff166370a08231306040518263ffffffff1660e01b81526004016111f39190612e44565b602060405180830381865afa158015611210573d6000803e3d6000fd5b505050506040513d601f19601f82011682018060405250810190611234919061385b565b905090565b60008073ffffffffffffffffffffffffffffffffffffffff16600160009054906101000a900473ffffffffffffffffffffffffffffffffffffffff1673ffffffffffffffffffffffffffffffffffffffff16036112cb576040517f08c379a00000000000000000000000000000000000000000000000000000000081526004016112c29061348a565b60405180910390fd5b6112d3612312565b6000831180156112e35750600084115b80156112ef5750600082115b61132e576040517f08c379a0000000000000000000000000000000000000000000000000000000008152600401611325906138fa565b60405180910390fd5b8282600a61133c9190613a4d565b856113479190613a98565b6113519190613b09565b90509392505050565b60008060019054906101000a900473ffffffffffffffffffffffffffffffffffffffff16905090565b6000600160009054906101000a900473ffffffffffffffffffffffffffffffffffffffff1673ffffffffffffffffffffffffffffffffffffffff163373ffffffffffffffffffffffffffffffffffffffff16148061141357506113e461135a565b73ffffffffffffffffffffffffffffffffffffffff163373ffffffffffffffffffffffffffffffffffffffff16145b611452576040517f08c379a000000000000000000000000000000000000000000000000000000000815260040161144990613660565b60405180910390fd5b7f000000000000000000000000000000000000000000000000000000000000000073ffffffffffffffffffffffffffffffffffffffff1663dd62ed3e33306040518363ffffffff1660e01b81526004016114ad929190613b3a565b602060405180830381865afa1580156114ca573d6000803e3d6000fd5b505050506040513d601f19601f820116820180604052508101906114ee919061385b565b905090565b60006114fd612312565b600160149054906101000a900460ff161561153c57600760009054906101000a900473ffffffffffffffffffffffffffffffffffffffff169050611562565b600660009054906101000a900473ffffffffffffffffffffffffffffffffffffffff1690505b90565b6000600160009054906101000a900473ffffffffffffffffffffffffffffffffffffffff1673ffffffffffffffffffffffffffffffffffffffff163373ffffffffffffffffffffffffffffffffffffffff1614806115f557506115c661135a565b73ffffffffffffffffffffffffffffffffffffffff163373ffffffffffffffffffffffffffffffffffffffff16145b611634576040517f08c379a000000000000000000000000000000000000000000000000000000000815260040161162b90613660565b60405180910390fd5b600554905090565b60008073ffffffffffffffffffffffffffffffffffffffff16600160009054906101000a900473ffffffffffffffffffffffffffffffffffffffff1673ffffffffffffffffffffffffffffffffffffffff16036116ce576040517f08c379a00000000000000000000000000000000000000000000000000000000081526004016116c59061348a565b60405180910390fd5b600160009054906101000a900473ffffffffffffffffffffffffffffffffffffffff1673ffffffffffffffffffffffffffffffffffffffff163373ffffffffffffffffffffffffffffffffffffffff16148061175c575061172d61135a565b73ffffffffffffffffffffffffffffffffffffffff163373ffffffffffffffffffffffffffffffffffffffff16145b61179b576040517f08c379a000000000000000000000000000000000000000000000000000000000815260040161179290613660565b60405180910390fd5b600354905090565b60006060600073ffffffffffffffffffffffffffffffffffffffff16600160009054906101000a900473ffffffffffffffffffffffffffffffffffffffff1673ffffffffffffffffffffffffffffffffffffffff1603611838576040517f08c379a000000000000000000000000000000000000000000000000000000000815260040161182f9061348a565b60405180910390fd5b600160009054906101000a900473ffffffffffffffffffffffffffffffffffffffff1673ffffffffffffffffffffffffffffffffffffffff163373ffffffffffffffffffffffffffffffffffffffff1614806118c6575061189761135a565b73ffffffffffffffffffffffffffffffffffffffff163373ffffffffffffffffffffffffffffffffffffffff16145b611905576040517f08c379a00000000000000000000000000000000000000000000000000000000081526004016118fc90613660565b60405180910390fd5b7f00000000000000000000000000000000000000000000000000000000000000007f000000000000000000000000000000000000000000000000000000000000000073ffffffffffffffffffffffffffffffffffffffff166395d89b416040518163ffffffff1660e01b8152600401600060405180830381865afa158015611991573d6000803e3d6000fd5b505050506040513d6000823e3d601f19601f820116820180604052508101906119ba919061322a565b915091509091565b6119ca612312565b600073ffffffffffffffffffffffffffffffffffffffff168173ffffffffffffffffffffffffffffffffffffffff1603611a0357600080fd5b80600760006101000a81548173ffffffffffffffffffffffffffffffffffffffff021916908373ffffffffffffffffffffffffffffffffffffffff16021790555050565b6000611a51612312565b8173ffffffffffffffffffffffffffffffffffffffff166370a08231306040518263ffffffff1660e01b8152600401611a8a9190612e44565b602060405180830381865afa158015611aa7573d6000803e3d6000fd5b505050506040513d601f19601f82011682018060405250810190611acb919061385b565b9050919050565b60007f0000000000000000000000000000000000000000000000000000000000000000905090565b6060611b04612312565b6060600160149054906101000a900460ff16611b58576040518060400160405280600c81526020017f41676772656761746f7256330000000000000000000000000000000000000000815250905080611b92565b6040518060400160405280600481526020017f506f6f6c000000000000000000000000000000000000000000000000000000008152509050805b508091505090565b611ba2612312565b600160149054906101000a900460ff1615611c6657600160149054906101000a900460ff168015611c225750600073ffffffffffffffffffffffffffffffffffffffff16600660009054906101000a900473ffffffffffffffffffffffffffffffffffffffff1673ffffffffffffffffffffffffffffffffffffffff1614155b611c61576040517f08c379a0000000000000000000000000000000000000000000000000000000008152600401611c5890613bd5565b60405180910390fd5b611d12565b600160149054906101000a900460ff16158015611cd25750600073ffffffffffffffffffffffffffffffffffffffff16600760009054906101000a900473ffffffffffffffffffffffffffffffffffffffff1673ffffffffffffffffffffffffffffffffffffffff1614155b611d11576040517f08c379a0000000000000000000000000000000000000000000000000000000008152600401611d0890613c41565b60405180910390fd5b5b600160149054906101000a900460ff1615600160146101000a81548160ff021916908315150217905550565b6000611d4861243b565b600073ffffffffffffffffffffffffffffffffffffffff16600160009054906101000a900473ffffffffffffffffffffffffffffffffffffffff1673ffffffffffffffffffffffffffffffffffffffff1603611dd9576040517f08c379a0000000000000000000000000000000000000000000000000000000008152600401611dd09061348a565b60405180910390fd5b600160009054906101000a900473ffffffffffffffffffffffffffffffffffffffff1673ffffffffffffffffffffffffffffffffffffffff163373ffffffffffffffffffffffffffffffffffffffff1614611e69576040517f08c379a0000000000000000000000000000000000000000000000000000000008152600401611e60906134f6565b60405180910390fd5b60008211611eac576040517f08c379a0000000000000000000000000000000000000000000000000000000008152600401611ea390613cad565b60405180910390fd5b6000611eb6611383565b9050828110157f000000000000000000000000000000000000000000000000000000000000000073ffffffffffffffffffffffffffffffffffffffff166395d89b416040518163ffffffff1660e01b8152600401600060405180830381865afa158015611f27573d6000803e3d6000fd5b505050506040513d6000823e3d601f19601f82011682018060405250810190611f50919061322a565b604051602001611f609190613d3f565b60405160208183030381529060405290611fb0576040517f08c379a0000000000000000000000000000000000000000000000000000000008152600401611fa79190613052565b60405180910390fd5b50600080600080611fbf6125ac565b9350935093509350600084118015611fd75750600083115b8015611fe35750600081115b612022576040517f08c379a000000000000000000000000000000000000000000000000000000000815260040161201990613dcf565b60405180910390fd5b600061202f8886866128d8565b90508060046000828254612043919061340a565b92505081905550806003600082825461205c919061340a565b925050819055508760026000828254612075919061340a565b9250508190555060004290508089837fb5aeb7b225999adc33232be2121afb1a366c15108c1da745d17fd76108172fe48989888a6040516120b99493929190613def565b60405180910390a461210e33308b7f000000000000000000000000000000000000000000000000000000000000000073ffffffffffffffffffffffffffffffffffffffff16612906909392919063ffffffff16565b6121178961298f565b506001975050505050505050919050565b612130612312565b600073ffffffffffffffffffffffffffffffffffffffff168173ffffffffffffffffffffffffffffffffffffffff160361219f576040517f08c379a000000000000000000000000000000000000000000000000000000000815260040161219690613ead565b60405180910390fd5b6121a8816124e7565b50565b60008073ffffffffffffffffffffffffffffffffffffffff16600160009054906101000a900473ffffffffffffffffffffffffffffffffffffffff1673ffffffffffffffffffffffffffffffffffffffff160361223d576040517f08c379a00000000000000000000000000000000000000000000000000000000081526004016122349061348a565b60405180910390fd5b600160009054906101000a900473ffffffffffffffffffffffffffffffffffffffff1673ffffffffffffffffffffffffffffffffffffffff163373ffffffffffffffffffffffffffffffffffffffff1614806122cb575061229c61135a565b73ffffffffffffffffffffffffffffffffffffffff163373ffffffffffffffffffffffffffffffffffffffff16145b61230a576040517f08c379a000000000000000000000000000000000000000000000000000000000815260040161230190613660565b60405180910390fd5b600454905090565b61231a612ac8565b73ffffffffffffffffffffffffffffffffffffffff1661233861135a565b73ffffffffffffffffffffffffffffffffffffffff161461238e576040517f08c379a000000000000000000000000000000000000000000000000000000000815260040161238590613f19565b60405180910390fd5b565b61239861108a565b6123d7576040517f08c379a00000000000000000000000000000000000000000000000000000000081526004016123ce90613f85565b60405180910390fd5b565b6123e1612390565b60008060006101000a81548160ff0219169083151502179055507f5db9ee0a495bf2e6ff9c91a7834c1ba4fdd244a5e8aa4e537bd38aeae4b073aa612424612ac8565b6040516124319190612e44565b60405180910390a1565b61244361108a565b15612483576040517f08c379a000000000000000000000000000000000000000000000000000000000815260040161247a90613ff1565b60405180910390fd5b565b61248d61243b565b60016000806101000a81548160ff0219169083151502179055507f62e78cea01bee320cd4e420270b5ea74000d11b0c9f74754ebdbfc544b05a2586124d0612ac8565b6040516124dd9190612e44565b60405180910390a1565b60008060019054906101000a900473ffffffffffffffffffffffffffffffffffffffff16905081600060016101000a81548173ffffffffffffffffffffffffffffffffffffffff021916908373ffffffffffffffffffffffffffffffffffffffff1602179055508173ffffffffffffffffffffffffffffffffffffffff168173ffffffffffffffffffffffffffffffffffffffff167f8be0079c531659141344cd1fd0a4f28419497f9722a3daafe3b4186f6b6457e060405160405180910390a35050565b60008060606000600160149054906101000a900460ff161561267757600160149054906101000a900460ff1680156126335750600073ffffffffffffffffffffffffffffffffffffffff16600760009054906101000a900473ffffffffffffffffffffffffffffffffffffffff1673ffffffffffffffffffffffffffffffffffffffff1614155b612672576040517f08c379a000000000000000000000000000000000000000000000000000000000815260040161266990613c41565b60405180910390fd5b612723565b600160149054906101000a900460ff161580156126e35750600073ffffffffffffffffffffffffffffffffffffffff16600660009054906101000a900473ffffffffffffffffffffffffffffffffffffffff1673ffffffffffffffffffffffffffffffffffffffff1614155b612722576040517f08c379a000000000000000000000000000000000000000000000000000000000815260040161271990613bd5565b60405180910390fd5b5b600080600080600160149054906101000a900460ff16156127db57600760009054906101000a900473ffffffffffffffffffffffffffffffffffffffff1673ffffffffffffffffffffffffffffffffffffffff166385096edc6040518163ffffffff1660e01b81526004016000604051808303816000875af11580156127ad573d6000803e3d6000fd5b505050506040513d6000823e3d601f19601f820116820180604052508101906127d69190614011565b612874565b600660009054906101000a900473ffffffffffffffffffffffffffffffffffffffff1673ffffffffffffffffffffffffffffffffffffffff1663e1e7ff776040518163ffffffff1660e01b81526004016000604051808303816000875af115801561284a573d6000803e3d6000fd5b505050506040513d6000823e3d601f19601f820116820180604052508101906128739190614011565b5b93509350935093507ff533c7ebcab9ca95557310f62aa7ad41d3a6b17aebec7762b994ef1a14863865848484846128a9611afa565b6040516128ba959493929190614094565b60405180910390a18383838397509750975097505050505090919293565b600081600a6128e79190613a4d565b83856128f39190613a98565b6128fd9190613b09565b90509392505050565b612989846323b872dd60e01b858585604051602401612927939291906140f5565b604051602081830303815290604052907bffffffffffffffffffffffffffffffffffffffffffffffffffffffff19166020820180517bffffffffffffffffffffffffffffffffffffffffffffffffffffffff8381831617835250505050612ad0565b50505050565b60008082116129d3576040517f08c379a00000000000000000000000000000000000000000000000000000000081526004016129ca90614178565b60405180910390fd5b60006129dd611190565b90507f000000000000000000000000000000000000000000000000000000000000000073ffffffffffffffffffffffffffffffffffffffff166342966c68846040518263ffffffff1660e01b8152600401612a389190612e9b565b600060405180830381600087803b158015612a5257600080fd5b505af1158015612a66573d6000803e3d6000fd5b505050508281612a7691906130d0565b612a7e611190565b14612abe576040517f08c379a0000000000000000000000000000000000000000000000000000000008152600401612ab59061420a565b60405180910390fd5b6001915050919050565b600033905090565b6000612b32826040518060400160405280602081526020017f5361666545524332303a206c6f772d6c6576656c2063616c6c206661696c65648152508573ffffffffffffffffffffffffffffffffffffffff16612b979092919063ffffffff16565b9050600081511115612b925780806020019051810190612b529190613819565b612b91576040517f08c379a0000000000000000000000000000000000000000000000000000000008152600401612b889061429c565b60405180910390fd5b5b505050565b6060612ba68484600085612baf565b90509392505050565b606082471015612bf4576040517f08c379a0000000000000000000000000000000000000000000000000000000008152600401612beb9061432e565b60405180910390fd5b612bfd85612cc3565b612c3c576040517f08c379a0000000000000000000000000000000000000000000000000000000008152600401612c339061439a565b60405180910390fd5b6000808673ffffffffffffffffffffffffffffffffffffffff168587604051612c659190614401565b60006040518083038185875af1925050503d8060008114612ca2576040519150601f19603f3d011682016040523d82523d6000602084013e612ca7565b606091505b5091509150612cb7828286612ce6565b92505050949350505050565b6000808273ffffffffffffffffffffffffffffffffffffffff163b119050919050565b60608315612cf657829050612d46565b600083511115612d095782518084602001fd5b816040517f08c379a0000000000000000000000000000000000000000000000000000000008152600401612d3d9190613052565b60405180910390fd5b9392505050565b6000604051905090565b600080fd5b600080fd5b6000819050919050565b612d7481612d61565b8114612d7f57600080fd5b50565b600081359050612d9181612d6b565b92915050565b600073ffffffffffffffffffffffffffffffffffffffff82169050919050565b6000612dc282612d97565b9050919050565b612dd281612db7565b8114612ddd57600080fd5b50565b600081359050612def81612dc9565b92915050565b60008060408385031215612e0c57612e0b612d57565b5b6000612e1a85828601612d82565b9250506020612e2b85828601612de0565b9150509250929050565b612e3e81612db7565b82525050565b6000602082019050612e596000830184612e35565b92915050565b600060208284031215612e7557612e74612d57565b5b6000612e8384828501612de0565b91505092915050565b612e9581612d61565b82525050565b6000602082019050612eb06000830184612e8c565b92915050565b60008115159050919050565b612ecb81612eb6565b82525050565b6000602082019050612ee66000830184612ec2565b92915050565b600080600060608486031215612f0557612f04612d57565b5b6000612f1386828701612de0565b9350506020612f2486828701612de0565b9250506040612f3586828701612d82565b9150509250925092565b600080600060608486031215612f5857612f57612d57565b5b6000612f6686828701612d82565b9350506020612f7786828701612d82565b9250506040612f8886828701612d82565b9150509250925092565b600081519050919050565b600082825260208201905092915050565b60005b83811015612fcc578082015181840152602081019050612fb1565b60008484015250505050565b6000601f19601f8301169050919050565b6000612ff482612f92565b612ffe8185612f9d565b935061300e818560208601612fae565b61301781612fd8565b840191505092915050565b60006040820190506130376000830185612e35565b81810360208301526130498184612fe9565b90509392505050565b6000602082019050818103600083015261306c8184612fe9565b905092915050565b60006020828403121561308a57613089612d57565b5b600061309884828501612d82565b91505092915050565b7f4e487b7100000000000000000000000000000000000000000000000000000000600052601160045260246000fd5b60006130db82612d61565b91506130e683612d61565b92508282039050818111156130fe576130fd6130a1565b5b92915050565b600080fd5b600080fd5b7f4e487b7100000000000000000000000000000000000000000000000000000000600052604160045260246000fd5b61314682612fd8565b810181811067ffffffffffffffff821117156131655761316461310e565b5b80604052505050565b6000613178612d4d565b9050613184828261313d565b919050565b600067ffffffffffffffff8211156131a4576131a361310e565b5b6131ad82612fd8565b9050602081019050919050565b60006131cd6131c884613189565b61316e565b9050828152602081018484840111156131e9576131e8613109565b5b6131f4848285612fae565b509392505050565b600082601f83011261321157613210613104565b5b81516132218482602086016131ba565b91505092915050565b6000602082840312156132405761323f612d57565b5b600082015167ffffffffffffffff81111561325e5761325d612d5c565b5b61326a848285016131fc565b91505092915050565b600081905092915050565b7f4e6f7420656e6f75676820706f696e74732e2054686520636f6e74726163742060008201527f6d75737420626520636861726765642077697468206d6f726520000000000000602082015250565b60006132da603a83613273565b91506132e58261327e565b603a82019050919050565b60006132fb82612f92565b6133058185613273565b9350613315818560208601612fae565b80840191505092915050565b7f2100000000000000000000000000000000000000000000000000000000000000815250565b6000613352826132cd565b915061335e82846132f0565b915061336982613321565b60018201915081905092915050565b7f57697468647261772076616c7565206d7573742062652067726561746572207460008201527f68616e2030210000000000000000000000000000000000000000000000000000602082015250565b60006133d4602683612f9d565b91506133df82613378565b604082019050919050565b60006020820190508181036000830152613403816133c7565b9050919050565b600061341582612d61565b915061342083612d61565b9250828201905080821115613438576134376130a1565b5b92915050565b7f4e6f742061637469766174656421000000000000000000000000000000000000600082015250565b6000613474600e83612f9d565b915061347f8261343e565b602082019050919050565b600060208201905081810360008301526134a381613467565b9050919050565b7f4e6f7420417574686f72697a6564210000000000000000000000000000000000600082015250565b60006134e0600f83612f9d565b91506134eb826134aa565b602082019050919050565b6000602082019050818103600083015261350f816134d3565b9050919050565b7f41637469766174696f6e206e6f7420616c6c6f77656421000000000000000000600082015250565b600061354c601783612f9d565b915061355782613516565b602082019050919050565b6000602082019050818103600083015261357b8161353f565b9050919050565b7f416c7265616479206163746976617465642e0000000000000000000000000000600082015250565b60006135b8601283612f9d565b91506135c382613582565b602082019050919050565b600060208201905081810360008301526135e7816135ab565b9050919050565b7f4f6e6c79204f776e6572206f7220417574686f72697a6564207061727469636960008201527f7061746f722063616e206163636573732074686973206f7065726174696f6e21602082015250565b600061364a604083612f9d565b9150613655826135ee565b604082019050919050565b600060208201905081810360008301526136798161363d565b9050919050565b7f4e6f7468696e6720746f2077697468647261772e000000000000000000000000600082015250565b60006136b6601483612f9d565b91506136c182613680565b602082019050919050565b600060208201905081810360008301526136e5816136a9565b9050919050565b7f4e6f7420656e6f7567682062616c616e636520666f7220776974686472617721600082015250565b6000613722602083612f9d565b915061372d826136ec565b602082019050919050565b6000602082019050818103600083015261375181613715565b9050919050565b7f4e6f7420656e6f7567682062616c616e63652100000000000000000000000000600082015250565b600061378e601383612f9d565b915061379982613758565b602082019050919050565b600060208201905081810360008301526137bd81613781565b9050919050565b60006040820190506137d96000830185612e35565b6137e66020830184612e8c565b9392505050565b6137f681612eb6565b811461380157600080fd5b50565b600081519050613813816137ed565b92915050565b60006020828403121561382f5761382e612d57565b5b600061383d84828501613804565b91505092915050565b60008151905061385581612d6b565b92915050565b60006020828403121561387157613870612d57565b5b600061387f84828501613846565b91505092915050565b7f526174652c20706f696e747320616e6420646563696d616c73206d757374206260008201527f652067726561746572207468616e207a65726f21000000000000000000000000602082015250565b60006138e4603483612f9d565b91506138ef82613888565b604082019050919050565b60006020820190508181036000830152613913816138d7565b9050919050565b60008160011c9050919050565b6000808291508390505b60018511156139715780860481111561394d5761394c6130a1565b5b600185161561395c5780820291505b808102905061396a8561391a565b9450613931565b94509492505050565b60008261398a5760019050613a46565b816139985760009050613a46565b81600181146139ae57600281146139b8576139e7565b6001915050613a46565b60ff8411156139ca576139c96130a1565b5b8360020a9150848211156139e1576139e06130a1565b5b50613a46565b5060208310610133831016604e8410600b8410161715613a1c5782820a905083811115613a1757613a166130a1565b5b613a46565b613a298484846001613927565b92509050818404811115613a4057613a3f6130a1565b5b81810290505b9392505050565b6000613a5882612d61565b9150613a6383612d61565b9250613a907fffffffffffffffffffffffffffffffffffffffffffffffffffffffffffffffff848461397a565b905092915050565b6000613aa382612d61565b9150613aae83612d61565b9250828202613abc81612d61565b91508282048414831517613ad357613ad26130a1565b5b5092915050565b7f4e487b7100000000000000000000000000000000000000000000000000000000600052601260045260246000fd5b6000613b1482612d61565b9150613b1f83612d61565b925082613b2f57613b2e613ada565b5b828204905092915050565b6000604082019050613b4f6000830185612e35565b613b5c6020830184612e35565b9392505050565b7f41676772656761746f72436f6e73756d6572206973206e6f7420696e6974696160008201527f6c697a6564210000000000000000000000000000000000000000000000000000602082015250565b6000613bbf602683612f9d565b9150613bca82613b63565b604082019050919050565b60006020820190508181036000830152613bee81613bb2565b9050919050565b7f506f6f6c436f6e73756d6572206973206e6f7420696e697469616c697a656421600082015250565b6000613c2b602083612f9d565b9150613c3682613bf5565b602082019050919050565b60006020820190508181036000830152613c5a81613c1e565b9050919050565b7f4e6f2063686172676520616d6f756e7421000000000000000000000000000000600082015250565b6000613c97601183612f9d565b9150613ca282613c61565b602082019050919050565b60006020820190508181036000830152613cc681613c8a565b9050919050565b7f436865636b207468652000000000000000000000000000000000000000000000815250565b7f20746f6b656e2000000000000000000000000000000000000000000000000000815250565b7f616c6c6f77616e63652100000000000000000000000000000000000000000000815250565b6000613d4a82613ccd565b600a82019150613d5a82846132f0565b9150613d6582613cf3565b600782019150613d7482613d19565b600a8201915081905092915050565b7f72617465206572726f7221000000000000000000000000000000000000000000600082015250565b6000613db9600b83612f9d565b9150613dc482613d83565b602082019050919050565b60006020820190508181036000830152613de881613dac565b9050919050565b6000608082019050613e046000830187612e8c565b613e116020830186612e8c565b613e1e6040830185612e8c565b8181036060830152613e308184612fe9565b905095945050505050565b7f4f776e61626c653a206e6577206f776e657220697320746865207a65726f206160008201527f6464726573730000000000000000000000000000000000000000000000000000602082015250565b6000613e97602683612f9d565b9150613ea282613e3b565b604082019050919050565b60006020820190508181036000830152613ec681613e8a565b9050919050565b7f4f776e61626c653a2063616c6c6572206973206e6f7420746865206f776e6572600082015250565b6000613f03602083612f9d565b9150613f0e82613ecd565b602082019050919050565b60006020820190508181036000830152613f3281613ef6565b9050919050565b7f5061757361626c653a206e6f7420706175736564000000000000000000000000600082015250565b6000613f6f601483612f9d565b9150613f7a82613f39565b602082019050919050565b60006020820190508181036000830152613f9e81613f62565b9050919050565b7f5061757361626c653a2070617573656400000000000000000000000000000000600082015250565b6000613fdb601083612f9d565b9150613fe682613fa5565b602082019050919050565b6000602082019050818103600083015261400a81613fce565b9050919050565b6000806000806080858703121561402b5761402a612d57565b5b600061403987828801613846565b945050602061404a87828801613846565b935050604085015167ffffffffffffffff81111561406b5761406a612d5c565b5b614077878288016131fc565b925050606061408887828801613846565b91505092959194509250565b600060a0820190506140a96000830188612e8c565b6140b66020830187612e8c565b81810360408301526140c88186612fe9565b90506140d76060830185612e8c565b81810360808301526140e98184612fe9565b90509695505050505050565b600060608201905061410a6000830186612e35565b6141176020830185612e35565b6141246040830184612e8c565b949350505050565b7f4e6f20746f6b656e7320746f206265206275726e656421000000000000000000600082015250565b6000614162601783612f9d565b915061416d8261412c565b602082019050919050565b6000602082019050818103600083015261419181614155565b9050919050565b7f7472616e73616374696f6e207265766572746564206275726e20756e7375636360008201527f657366756c6c2100000000000000000000000000000000000000000000000000602082015250565b60006141f4602783612f9d565b91506141ff82614198565b604082019050919050565b60006020820190508181036000830152614223816141e7565b9050919050565b7f5361666545524332303a204552433230206f7065726174696f6e20646964206e60008201527f6f74207375636365656400000000000000000000000000000000000000000000602082015250565b6000614286602a83612f9d565b91506142918261422a565b604082019050919050565b600060208201905081810360008301526142b581614279565b9050919050565b7f416464726573733a20696e73756666696369656e742062616c616e636520666f60008201527f722063616c6c0000000000000000000000000000000000000000000000000000602082015250565b6000614318602683612f9d565b9150614323826142bc565b604082019050919050565b600060208201905081810360008301526143478161430b565b9050919050565b7f416464726573733a2063616c6c20746f206e6f6e2d636f6e7472616374000000600082015250565b6000614384601d83612f9d565b915061438f8261434e565b602082019050919050565b600060208201905081810360008301526143b381614377565b9050919050565b600081519050919050565b600081905092915050565b60006143db826143ba565b6143e581856143c5565b93506143f5818560208601612fae565b80840191505092915050565b600061440d82846143d0565b91508190509291505056fea2646970667358221220f82c73c1f1204f84ae8ddabe0950497d161e8435aa2560c0c2a7616192437e1364736f6c63430008170033",
					"opcodes": "PUSH1 0xC0 PUSH1 0x40 MSTORE PUSH1 0x1 DUP1 PUSH1 0x14 PUSH2 0x100 EXP DUP2 SLOAD DUP2 PUSH1 0xFF MUL NOT AND SWAP1 DUP4 ISZERO ISZERO MUL OR SWAP1 SSTORE POP PUSH1 0x0 PUSH1 0x2 SSTORE PUSH1 0x0 PUSH1 0x3 SSTORE PUSH1 0x0 PUSH1 0x4 SSTORE PUSH1 0x0 PUSH1 0x5 SSTORE CALLVALUE DUP1 ISZERO PUSH3 0x3F JUMPI PUSH1 0x0 DUP1 REVERT JUMPDEST POP PUSH1 0x40 MLOAD PUSH3 0x4773 CODESIZE SUB DUP1 PUSH3 0x4773 DUP4 CODECOPY DUP2 DUP2 ADD PUSH1 0x40 MSTORE DUP2 ADD SWAP1 PUSH3 0x65 SWAP2 SWAP1 PUSH3 0x280 JUMP JUMPDEST PUSH1 0x0 DUP1 PUSH1 0x0 PUSH2 0x100 EXP DUP2 SLOAD DUP2 PUSH1 0xFF MUL NOT AND SWAP1 DUP4 ISZERO ISZERO MUL OR SWAP1 SSTORE POP PUSH3 0x9F PUSH3 0x93 PUSH3 0x149 PUSH1 0x20 SHL PUSH1 0x20 SHR JUMP JUMPDEST PUSH3 0x151 PUSH1 0x20 SHL PUSH1 0x20 SHR JUMP JUMPDEST PUSH1 0x0 PUSH20 0xFFFFFFFFFFFFFFFFFFFFFFFFFFFFFFFFFFFFFFFF AND DUP2 PUSH20 0xFFFFFFFFFFFFFFFFFFFFFFFFFFFFFFFFFFFFFFFF AND SUB PUSH3 0xD9 JUMPI PUSH1 0x0 DUP1 REVERT JUMPDEST DUP1 PUSH20 0xFFFFFFFFFFFFFFFFFFFFFFFFFFFFFFFFFFFFFFFF AND PUSH1 0x80 DUP2 PUSH20 0xFFFFFFFFFFFFFFFFFFFFFFFFFFFFFFFFFFFFFFFF AND DUP2 MSTORE POP POP DUP2 PUSH20 0xFFFFFFFFFFFFFFFFFFFFFFFFFFFFFFFFFFFFFFFF AND PUSH1 0xA0 DUP2 PUSH20 0xFFFFFFFFFFFFFFFFFFFFFFFFFFFFFFFFFFFFFFFF AND DUP2 MSTORE POP POP POP POP PUSH3 0x2C7 JUMP JUMPDEST PUSH1 0x0 CALLER SWAP1 POP SWAP1 JUMP JUMPDEST PUSH1 0x0 DUP1 PUSH1 0x1 SWAP1 SLOAD SWAP1 PUSH2 0x100 EXP SWAP1 DIV PUSH20 0xFFFFFFFFFFFFFFFFFFFFFFFFFFFFFFFFFFFFFFFF AND SWAP1 POP DUP2 PUSH1 0x0 PUSH1 0x1 PUSH2 0x100 EXP DUP2 SLOAD DUP2 PUSH20 0xFFFFFFFFFFFFFFFFFFFFFFFFFFFFFFFFFFFFFFFF MUL NOT AND SWAP1 DUP4 PUSH20 0xFFFFFFFFFFFFFFFFFFFFFFFFFFFFFFFFFFFFFFFF AND MUL OR SWAP1 SSTORE POP DUP2 PUSH20 0xFFFFFFFFFFFFFFFFFFFFFFFFFFFFFFFFFFFFFFFF AND DUP2 PUSH20 0xFFFFFFFFFFFFFFFFFFFFFFFFFFFFFFFFFFFFFFFF AND PUSH32 0x8BE0079C531659141344CD1FD0A4F28419497F9722A3DAAFE3B4186F6B6457E0 PUSH1 0x40 MLOAD PUSH1 0x40 MLOAD DUP1 SWAP2 SUB SWAP1 LOG3 POP POP JUMP JUMPDEST PUSH1 0x0 DUP1 REVERT JUMPDEST PUSH1 0x0 PUSH20 0xFFFFFFFFFFFFFFFFFFFFFFFFFFFFFFFFFFFFFFFF DUP3 AND SWAP1 POP SWAP2 SWAP1 POP JUMP JUMPDEST PUSH1 0x0 PUSH3 0x248 DUP3 PUSH3 0x21B JUMP JUMPDEST SWAP1 POP SWAP2 SWAP1 POP JUMP JUMPDEST PUSH3 0x25A DUP2 PUSH3 0x23B JUMP JUMPDEST DUP2 EQ PUSH3 0x266 JUMPI PUSH1 0x0 DUP1 REVERT JUMPDEST POP JUMP JUMPDEST PUSH1 0x0 DUP2 MLOAD SWAP1 POP PUSH3 0x27A DUP2 PUSH3 0x24F JUMP JUMPDEST SWAP3 SWAP2 POP POP JUMP JUMPDEST PUSH1 0x0 DUP1 PUSH1 0x40 DUP4 DUP6 SUB SLT ISZERO PUSH3 0x29A JUMPI PUSH3 0x299 PUSH3 0x216 JUMP JUMPDEST JUMPDEST PUSH1 0x0 PUSH3 0x2AA DUP6 DUP3 DUP7 ADD PUSH3 0x269 JUMP JUMPDEST SWAP3 POP POP PUSH1 0x20 PUSH3 0x2BD DUP6 DUP3 DUP7 ADD PUSH3 0x269 JUMP JUMPDEST SWAP2 POP POP SWAP3 POP SWAP3 SWAP1 POP JUMP JUMPDEST PUSH1 0x80 MLOAD PUSH1 0xA0 MLOAD PUSH2 0x444E PUSH3 0x325 PUSH1 0x0 CODECOPY PUSH1 0x0 DUP2 DUP2 PUSH2 0x509 ADD MSTORE DUP2 DUP2 PUSH2 0x119C ADD MSTORE DUP2 DUP2 PUSH2 0x1454 ADD MSTORE DUP2 DUP2 PUSH2 0x1907 ADD MSTORE DUP2 DUP2 PUSH2 0x1928 ADD MSTORE DUP2 DUP2 PUSH2 0x1EBE ADD MSTORE DUP2 DUP2 PUSH2 0x20C9 ADD MSTORE PUSH2 0x29E1 ADD MSTORE PUSH1 0x0 DUP2 DUP2 PUSH2 0xAB1 ADD MSTORE PUSH2 0x1AD6 ADD MSTORE PUSH2 0x444E PUSH1 0x0 RETURN INVALID PUSH1 0x80 PUSH1 0x40 MSTORE CALLVALUE DUP1 ISZERO PUSH2 0x10 JUMPI PUSH1 0x0 DUP1 REVERT JUMPDEST POP PUSH1 0x4 CALLDATASIZE LT PUSH2 0x1CE JUMPI PUSH1 0x0 CALLDATALOAD PUSH1 0xE0 SHR DUP1 PUSH4 0x7754723E GT PUSH2 0x104 JUMPI DUP1 PUSH4 0xB0B5E39E GT PUSH2 0xA2 JUMPI DUP1 PUSH4 0xE8088766 GT PUSH2 0x71 JUMPI DUP1 PUSH4 0xE8088766 EQ PUSH2 0x478 JUMPI DUP1 PUSH4 0xED969C84 EQ PUSH2 0x482 JUMPI DUP1 PUSH4 0xF2FDE38B EQ PUSH2 0x4B2 JUMPI DUP1 PUSH4 0xF9850907 EQ PUSH2 0x4CE JUMPI PUSH2 0x1CE JUMP JUMPDEST DUP1 PUSH4 0xB0B5E39E EQ PUSH2 0x3F0 JUMPI DUP1 PUSH4 0xB99152D0 EQ PUSH2 0x40C JUMPI DUP1 PUSH4 0xBA007E75 EQ PUSH2 0x43C JUMPI DUP1 PUSH4 0xE6367EBE EQ PUSH2 0x45A JUMPI PUSH2 0x1CE JUMP JUMPDEST DUP1 PUSH4 0x9934415E GT PUSH2 0xDE JUMPI DUP1 PUSH4 0x9934415E EQ PUSH2 0x377 JUMPI DUP1 PUSH4 0xA24723E8 EQ PUSH2 0x395 JUMPI DUP1 PUSH4 0xA684AB5C EQ PUSH2 0x3B3 JUMPI DUP1 PUSH4 0xABB1DC44 EQ PUSH2 0x3D1 JUMPI PUSH2 0x1CE JUMP JUMPDEST DUP1 PUSH4 0x7754723E EQ PUSH2 0x30B JUMPI DUP1 PUSH4 0x8DA5CB5B EQ PUSH2 0x33B JUMPI DUP1 PUSH4 0x9405DE64 EQ PUSH2 0x359 JUMPI PUSH2 0x1CE JUMP JUMPDEST DUP1 PUSH4 0x2AF0E251 GT PUSH2 0x171 JUMPI DUP1 PUSH4 0x5C975ABB GT PUSH2 0x14B JUMPI DUP1 PUSH4 0x5C975ABB EQ PUSH2 0x295 JUMPI DUP1 PUSH4 0x6A9D43DD EQ PUSH2 0x2B3 JUMPI DUP1 PUSH4 0x715018A6 EQ PUSH2 0x2E3 JUMPI DUP1 PUSH4 0x722713F7 EQ PUSH2 0x2ED JUMPI PUSH2 0x1CE JUMP JUMPDEST DUP1 PUSH4 0x2AF0E251 EQ PUSH2 0x263 JUMPI DUP1 PUSH4 0x390885F7 EQ PUSH2 0x281 JUMPI DUP1 PUSH4 0x51B42B00 EQ PUSH2 0x28B JUMPI PUSH2 0x1CE JUMP JUMPDEST DUP1 PUSH4 0x8FADCB0 GT PUSH2 0x1AD JUMPI DUP1 PUSH4 0x8FADCB0 EQ PUSH2 0x203 JUMPI DUP1 PUSH4 0xA6CB062 EQ PUSH2 0x221 JUMPI DUP1 PUSH4 0xBA2F1D8 EQ PUSH2 0x23D JUMPI DUP1 PUSH4 0xF15F4C0 EQ PUSH2 0x259 JUMPI PUSH2 0x1CE JUMP JUMPDEST DUP1 PUSH3 0xF714CE EQ PUSH2 0x1D3 JUMPI DUP1 PUSH4 0x46F7DA2 EQ PUSH2 0x1EF JUMPI DUP1 PUSH4 0x7DA68F5 EQ PUSH2 0x1F9 JUMPI JUMPDEST PUSH1 0x0 DUP1 REVERT JUMPDEST PUSH2 0x1ED PUSH1 0x4 DUP1 CALLDATASIZE SUB DUP2 ADD SWAP1 PUSH2 0x1E8 SWAP2 SWAP1 PUSH2 0x2DF5 JUMP JUMPDEST PUSH2 0x4EC JUMP JUMPDEST STOP JUMPDEST PUSH2 0x1F7 PUSH2 0x6AB JUMP JUMPDEST STOP JUMPDEST PUSH2 0x201 PUSH2 0x6C5 JUMP JUMPDEST STOP JUMPDEST PUSH2 0x20B PUSH2 0x6DF JUMP JUMPDEST PUSH1 0x40 MLOAD PUSH2 0x218 SWAP2 SWAP1 PUSH2 0x2E44 JUMP JUMPDEST PUSH1 0x40 MLOAD DUP1 SWAP2 SUB SWAP1 RETURN JUMPDEST PUSH2 0x23B PUSH1 0x4 DUP1 CALLDATASIZE SUB DUP2 ADD SWAP1 PUSH2 0x236 SWAP2 SWAP1 PUSH2 0x2E5F JUMP JUMPDEST PUSH2 0x799 JUMP JUMPDEST STOP JUMPDEST PUSH2 0x257 PUSH1 0x4 DUP1 CALLDATASIZE SUB DUP2 ADD SWAP1 PUSH2 0x252 SWAP2 SWAP1 PUSH2 0x2E5F JUMP JUMPDEST PUSH2 0x81E JUMP JUMPDEST STOP JUMPDEST PUSH2 0x261 PUSH2 0xA90 JUMP JUMPDEST STOP JUMPDEST PUSH2 0x26B PUSH2 0xC6A JUMP JUMPDEST PUSH1 0x40 MLOAD PUSH2 0x278 SWAP2 SWAP1 PUSH2 0x2E9B JUMP JUMPDEST PUSH1 0x40 MLOAD DUP1 SWAP2 SUB SWAP1 RETURN JUMPDEST PUSH2 0x289 PUSH2 0xDD1 JUMP JUMPDEST STOP JUMPDEST PUSH2 0x293 PUSH2 0xECF JUMP JUMPDEST STOP JUMPDEST PUSH2 0x29D PUSH2 0x108A JUMP JUMPDEST PUSH1 0x40 MLOAD PUSH2 0x2AA SWAP2 SWAP1 PUSH2 0x2ED1 JUMP JUMPDEST PUSH1 0x40 MLOAD DUP1 SWAP2 SUB SWAP1 RETURN JUMPDEST PUSH2 0x2CD PUSH1 0x4 DUP1 CALLDATASIZE SUB DUP2 ADD SWAP1 PUSH2 0x2C8 SWAP2 SWAP1 PUSH2 0x2EEC JUMP JUMPDEST PUSH2 0x10A0 JUMP JUMPDEST PUSH1 0x40 MLOAD PUSH2 0x2DA SWAP2 SWAP1 PUSH2 0x2ED1 JUMP JUMPDEST PUSH1 0x40 MLOAD DUP1 SWAP2 SUB SWAP1 RETURN JUMPDEST PUSH2 0x2EB PUSH2 0x117C JUMP JUMPDEST STOP JUMPDEST PUSH2 0x2F5 PUSH2 0x1190 JUMP JUMPDEST PUSH1 0x40 MLOAD PUSH2 0x302 SWAP2 SWAP1 PUSH2 0x2E9B JUMP JUMPDEST PUSH1 0x40 MLOAD DUP1 SWAP2 SUB SWAP1 RETURN JUMPDEST PUSH2 0x325 PUSH1 0x4 DUP1 CALLDATASIZE SUB DUP2 ADD SWAP1 PUSH2 0x320 SWAP2 SWAP1 PUSH2 0x2F3F JUMP JUMPDEST PUSH2 0x1239 JUMP JUMPDEST PUSH1 0x40 MLOAD PUSH2 0x332 SWAP2 SWAP1 PUSH2 0x2E9B JUMP JUMPDEST PUSH1 0x40 MLOAD DUP1 SWAP2 SUB SWAP1 RETURN JUMPDEST PUSH2 0x343 PUSH2 0x135A JUMP JUMPDEST PUSH1 0x40 MLOAD PUSH2 0x350 SWAP2 SWAP1 PUSH2 0x2E44 JUMP JUMPDEST PUSH1 0x40 MLOAD DUP1 SWAP2 SUB SWAP1 RETURN JUMPDEST PUSH2 0x361 PUSH2 0x1383 JUMP JUMPDEST PUSH1 0x40 MLOAD PUSH2 0x36E SWAP2 SWAP1 PUSH2 0x2E9B JUMP JUMPDEST PUSH1 0x40 MLOAD DUP1 SWAP2 SUB SWAP1 RETURN JUMPDEST PUSH2 0x37F PUSH2 0x14F3 JUMP JUMPDEST PUSH1 0x40 MLOAD PUSH2 0x38C SWAP2 SWAP1 PUSH2 0x2E44 JUMP JUMPDEST PUSH1 0x40 MLOAD DUP1 SWAP2 SUB SWAP1 RETURN JUMPDEST PUSH2 0x39D PUSH2 0x1565 JUMP JUMPDEST PUSH1 0x40 MLOAD PUSH2 0x3AA SWAP2 SWAP1 PUSH2 0x2E9B JUMP JUMPDEST PUSH1 0x40 MLOAD DUP1 SWAP2 SUB SWAP1 RETURN JUMPDEST PUSH2 0x3BB PUSH2 0x163C JUMP JUMPDEST PUSH1 0x40 MLOAD PUSH2 0x3C8 SWAP2 SWAP1 PUSH2 0x2E9B JUMP JUMPDEST PUSH1 0x40 MLOAD DUP1 SWAP2 SUB SWAP1 RETURN JUMPDEST PUSH2 0x3D9 PUSH2 0x17A3 JUMP JUMPDEST PUSH1 0x40 MLOAD PUSH2 0x3E7 SWAP3 SWAP2 SWAP1 PUSH2 0x3022 JUMP JUMPDEST PUSH1 0x40 MLOAD DUP1 SWAP2 SUB SWAP1 RETURN JUMPDEST PUSH2 0x40A PUSH1 0x4 DUP1 CALLDATASIZE SUB DUP2 ADD SWAP1 PUSH2 0x405 SWAP2 SWAP1 PUSH2 0x2E5F JUMP JUMPDEST PUSH2 0x19C2 JUMP JUMPDEST STOP JUMPDEST PUSH2 0x426 PUSH1 0x4 DUP1 CALLDATASIZE SUB DUP2 ADD SWAP1 PUSH2 0x421 SWAP2 SWAP1 PUSH2 0x2E5F JUMP JUMPDEST PUSH2 0x1A47 JUMP JUMPDEST PUSH1 0x40 MLOAD PUSH2 0x433 SWAP2 SWAP1 PUSH2 0x2E9B JUMP JUMPDEST PUSH1 0x40 MLOAD DUP1 SWAP2 SUB SWAP1 RETURN JUMPDEST PUSH2 0x444 PUSH2 0x1AD2 JUMP JUMPDEST PUSH1 0x40 MLOAD PUSH2 0x451 SWAP2 SWAP1 PUSH2 0x2E44 JUMP JUMPDEST PUSH1 0x40 MLOAD DUP1 SWAP2 SUB SWAP1 RETURN JUMPDEST PUSH2 0x462 PUSH2 0x1AFA JUMP JUMPDEST PUSH1 0x40 MLOAD PUSH2 0x46F SWAP2 SWAP1 PUSH2 0x3052 JUMP JUMPDEST PUSH1 0x40 MLOAD DUP1 SWAP2 SUB SWAP1 RETURN JUMPDEST PUSH2 0x480 PUSH2 0x1B9A JUMP JUMPDEST STOP JUMPDEST PUSH2 0x49C PUSH1 0x4 DUP1 CALLDATASIZE SUB DUP2 ADD SWAP1 PUSH2 0x497 SWAP2 SWAP1 PUSH2 0x3074 JUMP JUMPDEST PUSH2 0x1D3E JUMP JUMPDEST PUSH1 0x40 MLOAD PUSH2 0x4A9 SWAP2 SWAP1 PUSH2 0x2ED1 JUMP JUMPDEST PUSH1 0x40 MLOAD DUP1 SWAP2 SUB SWAP1 RETURN JUMPDEST PUSH2 0x4CC PUSH1 0x4 DUP1 CALLDATASIZE SUB DUP2 ADD SWAP1 PUSH2 0x4C7 SWAP2 SWAP1 PUSH2 0x2E5F JUMP JUMPDEST PUSH2 0x2128 JUMP JUMPDEST STOP JUMPDEST PUSH2 0x4D6 PUSH2 0x21AB JUMP JUMPDEST PUSH1 0x40 MLOAD PUSH2 0x4E3 SWAP2 SWAP1 PUSH2 0x2E9B JUMP JUMPDEST PUSH1 0x40 MLOAD DUP1 SWAP2 SUB SWAP1 RETURN JUMPDEST PUSH2 0x4F4 PUSH2 0x2312 JUMP JUMPDEST PUSH1 0x5 SLOAD PUSH1 0x4 SLOAD PUSH2 0x504 SWAP2 SWAP1 PUSH2 0x30D0 JUMP JUMPDEST DUP3 GT ISZERO PUSH32 0x0 PUSH20 0xFFFFFFFFFFFFFFFFFFFFFFFFFFFFFFFFFFFFFFFF AND PUSH4 0x95D89B41 PUSH1 0x40 MLOAD DUP2 PUSH4 0xFFFFFFFF AND PUSH1 0xE0 SHL DUP2 MSTORE PUSH1 0x4 ADD PUSH1 0x0 PUSH1 0x40 MLOAD DUP1 DUP4 SUB DUP2 DUP7 GAS STATICCALL ISZERO DUP1 ISZERO PUSH2 0x572 JUMPI RETURNDATASIZE PUSH1 0x0 DUP1 RETURNDATACOPY RETURNDATASIZE PUSH1 0x0 REVERT JUMPDEST POP POP POP POP PUSH1 0x40 MLOAD RETURNDATASIZE PUSH1 0x0 DUP3 RETURNDATACOPY RETURNDATASIZE PUSH1 0x1F NOT PUSH1 0x1F DUP3 ADD AND DUP3 ADD DUP1 PUSH1 0x40 MSTORE POP DUP2 ADD SWAP1 PUSH2 0x59B SWAP2 SWAP1 PUSH2 0x322A JUMP JUMPDEST PUSH1 0x40 MLOAD PUSH1 0x20 ADD PUSH2 0x5AB SWAP2 SWAP1 PUSH2 0x3347 JUMP JUMPDEST PUSH1 0x40 MLOAD PUSH1 0x20 DUP2 DUP4 SUB SUB DUP2 MSTORE SWAP1 PUSH1 0x40 MSTORE SWAP1 PUSH2 0x5FB JUMPI PUSH1 0x40 MLOAD PUSH32 0x8C379A000000000000000000000000000000000000000000000000000000000 DUP2 MSTORE PUSH1 0x4 ADD PUSH2 0x5F2 SWAP2 SWAP1 PUSH2 0x3052 JUMP JUMPDEST PUSH1 0x40 MLOAD DUP1 SWAP2 SUB SWAP1 REVERT JUMPDEST POP PUSH1 0x0 DUP3 GT PUSH2 0x63F JUMPI PUSH1 0x40 MLOAD PUSH32 0x8C379A000000000000000000000000000000000000000000000000000000000 DUP2 MSTORE PUSH1 0x4 ADD PUSH2 0x636 SWAP1 PUSH2 0x33EA JUMP JUMPDEST PUSH1 0x40 MLOAD DUP1 SWAP2 SUB SWAP1 REVERT JUMPDEST DUP2 PUSH1 0x5 PUSH1 0x0 DUP3 DUP3 SLOAD PUSH2 0x651 SWAP2 SWAP1 PUSH2 0x340A JUMP JUMPDEST SWAP3 POP POP DUP2 SWAP1 SSTORE POP DUP1 PUSH20 0xFFFFFFFFFFFFFFFFFFFFFFFFFFFFFFFFFFFFFFFF AND TIMESTAMP PUSH32 0x71EF96C43343734B1D843BB85D52EF329F5E9143E4D35827771E3B0DD90C5F84 DUP5 PUSH1 0x40 MLOAD PUSH2 0x69F SWAP2 SWAP1 PUSH2 0x2E9B JUMP JUMPDEST PUSH1 0x40 MLOAD DUP1 SWAP2 SUB SWAP1 LOG3 POP POP JUMP JUMPDEST PUSH2 0x6B3 PUSH2 0x2390 JUMP JUMPDEST PUSH2 0x6BB PUSH2 0x2312 JUMP JUMPDEST PUSH2 0x6C3 PUSH2 0x23D9 JUMP JUMPDEST JUMP JUMPDEST PUSH2 0x6CD PUSH2 0x243B JUMP JUMPDEST PUSH2 0x6D5 PUSH2 0x2312 JUMP JUMPDEST PUSH2 0x6DD PUSH2 0x2485 JUMP JUMPDEST JUMP JUMPDEST PUSH1 0x0 DUP1 PUSH20 0xFFFFFFFFFFFFFFFFFFFFFFFFFFFFFFFFFFFFFFFF AND PUSH1 0x1 PUSH1 0x0 SWAP1 SLOAD SWAP1 PUSH2 0x100 EXP SWAP1 DIV PUSH20 0xFFFFFFFFFFFFFFFFFFFFFFFFFFFFFFFFFFFFFFFF AND PUSH20 0xFFFFFFFFFFFFFFFFFFFFFFFFFFFFFFFFFFFFFFFF AND SUB PUSH2 0x771 JUMPI PUSH1 0x40 MLOAD PUSH32 0x8C379A000000000000000000000000000000000000000000000000000000000 DUP2 MSTORE PUSH1 0x4 ADD PUSH2 0x768 SWAP1 PUSH2 0x348A JUMP JUMPDEST PUSH1 0x40 MLOAD DUP1 SWAP2 SUB SWAP1 REVERT JUMPDEST PUSH1 0x1 PUSH1 0x0 SWAP1 SLOAD SWAP1 PUSH2 0x100 EXP SWAP1 DIV PUSH20 0xFFFFFFFFFFFFFFFFFFFFFFFFFFFFFFFFFFFFFFFF AND SWAP1 POP SWAP1 JUMP JUMPDEST PUSH2 0x7A1 PUSH2 0x2312 JUMP JUMPDEST PUSH1 0x0 PUSH20 0xFFFFFFFFFFFFFFFFFFFFFFFFFFFFFFFFFFFFFFFF AND DUP2 PUSH20 0xFFFFFFFFFFFFFFFFFFFFFFFFFFFFFFFFFFFFFFFF AND SUB PUSH2 0x7DA JUMPI PUSH1 0x0 DUP1 REVERT JUMPDEST DUP1 PUSH1 0x6 PUSH1 0x0 PUSH2 0x100 EXP DUP2 SLOAD DUP2 PUSH20 0xFFFFFFFFFFFFFFFFFFFFFFFFFFFFFFFFFFFFFFFF MUL NOT AND SWAP1 DUP4 PUSH20 0xFFFFFFFFFFFFFFFFFFFFFFFFFFFFFFFFFFFFFFFF AND MUL OR SWAP1 SSTORE POP POP JUMP JUMPDEST PUSH1 0x0 PUSH20 0xFFFFFFFFFFFFFFFFFFFFFFFFFFFFFFFFFFFFFFFF AND PUSH1 0x1 PUSH1 0x0 SWAP1 SLOAD SWAP1 PUSH2 0x100 EXP SWAP1 DIV PUSH20 0xFFFFFFFFFFFFFFFFFFFFFFFFFFFFFFFFFFFFFFFF AND PUSH20 0xFFFFFFFFFFFFFFFFFFFFFFFFFFFFFFFFFFFFFFFF AND SUB PUSH2 0x8AF JUMPI PUSH1 0x40 MLOAD PUSH32 0x8C379A000000000000000000000000000000000000000000000000000000000 DUP2 MSTORE PUSH1 0x4 ADD PUSH2 0x8A6 SWAP1 PUSH2 0x348A JUMP JUMPDEST PUSH1 0x40 MLOAD DUP1 SWAP2 SUB SWAP1 REVERT JUMPDEST PUSH1 0x1 PUSH1 0x0 SWAP1 SLOAD SWAP1 PUSH2 0x100 EXP SWAP1 DIV PUSH20 0xFFFFFFFFFFFFFFFFFFFFFFFFFFFFFFFFFFFFFFFF AND PUSH20 0xFFFFFFFFFFFFFFFFFFFFFFFFFFFFFFFFFFFFFFFF AND CALLER PUSH20 0xFFFFFFFFFFFFFFFFFFFFFFFFFFFFFFFFFFFFFFFF AND EQ PUSH2 0x93F JUMPI PUSH1 0x40 MLOAD PUSH32 0x8C379A000000000000000000000000000000000000000000000000000000000 DUP2 MSTORE PUSH1 0x4 ADD PUSH2 0x936 SWAP1 PUSH2 0x34F6 JUMP JUMPDEST PUSH1 0x40 MLOAD DUP1 SWAP2 SUB SWAP1 REVERT JUMPDEST PUSH1 0x0 PUSH20 0xFFFFFFFFFFFFFFFFFFFFFFFFFFFFFFFFFFFFFFFF AND PUSH1 0x1 PUSH1 0x0 SWAP1 SLOAD SWAP1 PUSH2 0x100 EXP SWAP1 DIV PUSH20 0xFFFFFFFFFFFFFFFFFFFFFFFFFFFFFFFFFFFFFFFF AND PUSH20 0xFFFFFFFFFFFFFFFFFFFFFFFFFFFFFFFFFFFFFFFF AND SUB PUSH2 0x9D0 JUMPI PUSH1 0x40 MLOAD PUSH32 0x8C379A000000000000000000000000000000000000000000000000000000000 DUP2 MSTORE PUSH1 0x4 ADD PUSH2 0x9C7 SWAP1 PUSH2 0x348A JUMP JUMPDEST PUSH1 0x40 MLOAD DUP1 SWAP2 SUB SWAP1 REVERT JUMPDEST PUSH1 0x0 PUSH20 0xFFFFFFFFFFFFFFFFFFFFFFFFFFFFFFFFFFFFFFFF AND DUP2 PUSH20 0xFFFFFFFFFFFFFFFFFFFFFFFFFFFFFFFFFFFFFFFF AND SUB PUSH2 0xA09 JUMPI PUSH1 0x0 DUP1 REVERT JUMPDEST DUP1 PUSH1 0x1 PUSH1 0x0 PUSH2 0x100 EXP DUP2 SLOAD DUP2 PUSH20 0xFFFFFFFFFFFFFFFFFFFFFFFFFFFFFFFFFFFFFFFF MUL NOT AND SWAP1 DUP4 PUSH20 0xFFFFFFFFFFFFFFFFFFFFFFFFFFFFFFFFFFFFFFFF AND MUL OR SWAP1 SSTORE POP DUP1 PUSH20 0xFFFFFFFFFFFFFFFFFFFFFFFFFFFFFFFFFFFFFFFF AND PUSH32 0x8BBFEB6E784147166691D407A592A09379BBBD56888A96C54793BCE54BB57523 PUSH1 0x40 MLOAD PUSH1 0x40 MLOAD DUP1 SWAP2 SUB SWAP1 LOG2 POP JUMP JUMPDEST PUSH2 0xA98 PUSH2 0x243B JUMP JUMPDEST CALLER PUSH20 0xFFFFFFFFFFFFFFFFFFFFFFFFFFFFFFFFFFFFFFFF AND PUSH32 0x0 PUSH20 0xFFFFFFFFFFFFFFFFFFFFFFFFFFFFFFFFFFFFFFFF AND EQ PUSH2 0xB26 JUMPI PUSH1 0x40 MLOAD PUSH32 0x8C379A000000000000000000000000000000000000000000000000000000000 DUP2 MSTORE PUSH1 0x4 ADD PUSH2 0xB1D SWAP1 PUSH2 0x3562 JUMP JUMPDEST PUSH1 0x40 MLOAD DUP1 SWAP2 SUB SWAP1 REVERT JUMPDEST PUSH1 0x0 PUSH20 0xFFFFFFFFFFFFFFFFFFFFFFFFFFFFFFFFFFFFFFFF AND PUSH1 0x1 PUSH1 0x0 SWAP1 SLOAD SWAP1 PUSH2 0x100 EXP SWAP1 DIV PUSH20 0xFFFFFFFFFFFFFFFFFFFFFFFFFFFFFFFFFFFFFFFF AND PUSH20 0xFFFFFFFFFFFFFFFFFFFFFFFFFFFFFFFFFFFFFFFF AND EQ PUSH2 0xBB7 JUMPI PUSH1 0x40 MLOAD PUSH32 0x8C379A000000000000000000000000000000000000000000000000000000000 DUP2 MSTORE PUSH1 0x4 ADD PUSH2 0xBAE SWAP1 PUSH2 0x35CE JUMP JUMPDEST PUSH1 0x40 MLOAD DUP1 SWAP2 SUB SWAP1 REVERT JUMPDEST CALLER PUSH1 0x1 PUSH1 0x0 PUSH2 0x100 EXP DUP2 SLOAD DUP2 PUSH20 0xFFFFFFFFFFFFFFFFFFFFFFFFFFFFFFFFFFFFFFFF MUL NOT AND SWAP1 DUP4 PUSH20 0xFFFFFFFFFFFFFFFFFFFFFFFFFFFFFFFFFFFFFFFF AND MUL OR SWAP1 SSTORE POP PUSH1 0x1 PUSH1 0x0 SWAP1 SLOAD SWAP1 PUSH2 0x100 EXP SWAP1 DIV PUSH20 0xFFFFFFFFFFFFFFFFFFFFFFFFFFFFFFFFFFFFFFFF AND PUSH20 0xFFFFFFFFFFFFFFFFFFFFFFFFFFFFFFFFFFFFFFFF AND PUSH32 0xFBD0A3F6E9A0DD5F834515748047E83DE8064477489A0A0D6B59C64BBECC992A TIMESTAMP PUSH1 0x40 MLOAD PUSH2 0xC60 SWAP2 SWAP1 PUSH2 0x2E9B JUMP JUMPDEST PUSH1 0x40 MLOAD DUP1 SWAP2 SUB SWAP1 LOG2 JUMP JUMPDEST PUSH1 0x0 DUP1 PUSH20 0xFFFFFFFFFFFFFFFFFFFFFFFFFFFFFFFFFFFFFFFF AND PUSH1 0x1 PUSH1 0x0 SWAP1 SLOAD SWAP1 PUSH2 0x100 EXP SWAP1 DIV PUSH20 0xFFFFFFFFFFFFFFFFFFFFFFFFFFFFFFFFFFFFFFFF AND PUSH20 0xFFFFFFFFFFFFFFFFFFFFFFFFFFFFFFFFFFFFFFFF AND SUB PUSH2 0xCFC JUMPI PUSH1 0x40 MLOAD PUSH32 0x8C379A000000000000000000000000000000000000000000000000000000000 DUP2 MSTORE PUSH1 0x4 ADD PUSH2 0xCF3 SWAP1 PUSH2 0x348A JUMP JUMPDEST PUSH1 0x40 MLOAD DUP1 SWAP2 SUB SWAP1 REVERT JUMPDEST PUSH1 0x1 PUSH1 0x0 SWAP1 SLOAD SWAP1 PUSH2 0x100 EXP SWAP1 DIV PUSH20 0xFFFFFFFFFFFFFFFFFFFFFFFFFFFFFFFFFFFFFFFF AND PUSH20 0xFFFFFFFFFFFFFFFFFFFFFFFFFFFFFFFFFFFFFFFF AND CALLER PUSH20 0xFFFFFFFFFFFFFFFFFFFFFFFFFFFFFFFFFFFFFFFF AND EQ DUP1 PUSH2 0xD8A JUMPI POP PUSH2 0xD5B PUSH2 0x135A JUMP JUMPDEST PUSH20 0xFFFFFFFFFFFFFFFFFFFFFFFFFFFFFFFFFFFFFFFF AND CALLER PUSH20 0xFFFFFFFFFFFFFFFFFFFFFFFFFFFFFFFFFFFFFFFF AND EQ JUMPDEST PUSH2 0xDC9 JUMPI PUSH1 0x40 MLOAD PUSH32 0x8C379A000000000000000000000000000000000000000000000000000000000 DUP2 MSTORE PUSH1 0x4 ADD PUSH2 0xDC0 SWAP1 PUSH2 0x3660 JUMP JUMPDEST PUSH1 0x40 MLOAD DUP1 SWAP2 SUB SWAP1 REVERT JUMPDEST PUSH1 0x2 SLOAD SWAP1 POP SWAP1 JUMP JUMPDEST PUSH2 0xDD9 PUSH2 0x2312 JUMP JUMPDEST PUSH1 0x0 PUSH1 0x5 SLOAD GT PUSH2 0xE1E JUMPI PUSH1 0x40 MLOAD PUSH32 0x8C379A000000000000000000000000000000000000000000000000000000000 DUP2 MSTORE PUSH1 0x4 ADD PUSH2 0xE15 SWAP1 PUSH2 0x36CC JUMP JUMPDEST PUSH1 0x40 MLOAD DUP1 SWAP2 SUB SWAP1 REVERT JUMPDEST PUSH1 0x0 PUSH1 0x5 SLOAD PUSH1 0x4 SLOAD PUSH2 0xE30 SWAP2 SWAP1 PUSH2 0x30D0 JUMP JUMPDEST GT PUSH2 0xE70 JUMPI PUSH1 0x40 MLOAD PUSH32 0x8C379A000000000000000000000000000000000000000000000000000000000 DUP2 MSTORE PUSH1 0x4 ADD PUSH2 0xE67 SWAP1 PUSH2 0x3738 JUMP JUMPDEST PUSH1 0x40 MLOAD DUP1 SWAP2 SUB SWAP1 REVERT JUMPDEST PUSH1 0x5 SLOAD PUSH1 0x4 PUSH1 0x0 DUP3 DUP3 SLOAD PUSH2 0xE84 SWAP2 SWAP1 PUSH2 0x30D0 JUMP JUMPDEST SWAP3 POP POP DUP2 SWAP1 SSTORE POP TIMESTAMP PUSH32 0xE727EE3674546D683A39C7087AB966177F70026ADB7D4FDEFAEF2BF0BB29A46 PUSH1 0x5 SLOAD PUSH1 0x40 MLOAD PUSH2 0xEBD SWAP2 SWAP1 PUSH2 0x2E9B JUMP JUMPDEST PUSH1 0x40 MLOAD DUP1 SWAP2 SUB SWAP1 LOG2 PUSH1 0x0 PUSH1 0x5 DUP2 SWAP1 SSTORE POP JUMP JUMPDEST PUSH1 0x0 PUSH20 0xFFFFFFFFFFFFFFFFFFFFFFFFFFFFFFFFFFFFFFFF AND PUSH1 0x1 PUSH1 0x0 SWAP1 SLOAD SWAP1 PUSH2 0x100 EXP SWAP1 DIV PUSH20 0xFFFFFFFFFFFFFFFFFFFFFFFFFFFFFFFFFFFFFFFF AND PUSH20 0xFFFFFFFFFFFFFFFFFFFFFFFFFFFFFFFFFFFFFFFF AND SUB PUSH2 0xF60 JUMPI PUSH1 0x40 MLOAD PUSH32 0x8C379A000000000000000000000000000000000000000000000000000000000 DUP2 MSTORE PUSH1 0x4 ADD PUSH2 0xF57 SWAP1 PUSH2 0x348A JUMP JUMPDEST PUSH1 0x40 MLOAD DUP1 SWAP2 SUB SWAP1 REVERT JUMPDEST PUSH1 0x1 PUSH1 0x0 SWAP1 SLOAD SWAP1 PUSH2 0x100 EXP SWAP1 DIV PUSH20 0xFFFFFFFFFFFFFFFFFFFFFFFFFFFFFFFFFFFFFFFF AND PUSH20 0xFFFFFFFFFFFFFFFFFFFFFFFFFFFFFFFFFFFFFFFF AND CALLER PUSH20 0xFFFFFFFFFFFFFFFFFFFFFFFFFFFFFFFFFFFFFFFF AND EQ PUSH2 0xFF0 JUMPI PUSH1 0x40 MLOAD PUSH32 0x8C379A000000000000000000000000000000000000000000000000000000000 DUP2 MSTORE PUSH1 0x4 ADD PUSH2 0xFE7 SWAP1 PUSH2 0x34F6 JUMP JUMPDEST PUSH1 0x40 MLOAD DUP1 SWAP2 SUB SWAP1 REVERT JUMPDEST PUSH2 0xFF8 PUSH2 0x243B JUMP JUMPDEST PUSH1 0x0 PUSH1 0x1 PUSH1 0x0 PUSH2 0x100 EXP DUP2 SLOAD DUP2 PUSH20 0xFFFFFFFFFFFFFFFFFFFFFFFFFFFFFFFFFFFFFFFF MUL NOT AND SWAP1 DUP4 PUSH20 0xFFFFFFFFFFFFFFFFFFFFFFFFFFFFFFFFFFFFFFFF AND MUL OR SWAP1 SSTORE POP CALLER PUSH20 0xFFFFFFFFFFFFFFFFFFFFFFFFFFFFFFFFFFFFFFFF AND PUSH32 0x13B865880A841DC469B629159FA1E730FEE99568B0DECC6737FD688B36246381 TIMESTAMP PUSH1 0x40 MLOAD PUSH2 0x1080 SWAP2 SWAP1 PUSH2 0x2E9B JUMP JUMPDEST PUSH1 0x40 MLOAD DUP1 SWAP2 SUB SWAP1 LOG2 JUMP JUMPDEST PUSH1 0x0 DUP1 PUSH1 0x0 SWAP1 SLOAD SWAP1 PUSH2 0x100 EXP SWAP1 DIV PUSH1 0xFF AND SWAP1 POP SWAP1 JUMP JUMPDEST PUSH1 0x0 PUSH2 0x10AA PUSH2 0x2312 JUMP JUMPDEST DUP2 PUSH2 0x10B4 DUP6 PUSH2 0x1A47 JUMP JUMPDEST LT ISZERO PUSH2 0x10F5 JUMPI PUSH1 0x40 MLOAD PUSH32 0x8C379A000000000000000000000000000000000000000000000000000000000 DUP2 MSTORE PUSH1 0x4 ADD PUSH2 0x10EC SWAP1 PUSH2 0x37A4 JUMP JUMPDEST PUSH1 0x40 MLOAD DUP1 SWAP2 SUB SWAP1 REVERT JUMPDEST DUP4 PUSH20 0xFFFFFFFFFFFFFFFFFFFFFFFFFFFFFFFFFFFFFFFF AND PUSH4 0xA9059CBB DUP5 DUP5 PUSH1 0x40 MLOAD DUP4 PUSH4 0xFFFFFFFF AND PUSH1 0xE0 SHL DUP2 MSTORE PUSH1 0x4 ADD PUSH2 0x1130 SWAP3 SWAP2 SWAP1 PUSH2 0x37C4 JUMP JUMPDEST PUSH1 0x20 PUSH1 0x40 MLOAD DUP1 DUP4 SUB DUP2 PUSH1 0x0 DUP8 GAS CALL ISZERO DUP1 ISZERO PUSH2 0x114F JUMPI RETURNDATASIZE PUSH1 0x0 DUP1 RETURNDATACOPY RETURNDATASIZE PUSH1 0x0 REVERT JUMPDEST POP POP POP POP PUSH1 0x40 MLOAD RETURNDATASIZE PUSH1 0x1F NOT PUSH1 0x1F DUP3 ADD AND DUP3 ADD DUP1 PUSH1 0x40 MSTORE POP DUP2 ADD SWAP1 PUSH2 0x1173 SWAP2 SWAP1 PUSH2 0x3819 JUMP JUMPDEST SWAP1 POP SWAP4 SWAP3 POP POP POP JUMP JUMPDEST PUSH2 0x1184 PUSH2 0x2312 JUMP JUMPDEST PUSH2 0x118E PUSH1 0x0 PUSH2 0x24E7 JUMP JUMPDEST JUMP JUMPDEST PUSH1 0x0 PUSH2 0x119A PUSH2 0x2312 JUMP JUMPDEST PUSH32 0x0 PUSH20 0xFFFFFFFFFFFFFFFFFFFFFFFFFFFFFFFFFFFFFFFF AND PUSH4 0x70A08231 ADDRESS PUSH1 0x40 MLOAD DUP3 PUSH4 0xFFFFFFFF AND PUSH1 0xE0 SHL DUP2 MSTORE PUSH1 0x4 ADD PUSH2 0x11F3 SWAP2 SWAP1 PUSH2 0x2E44 JUMP JUMPDEST PUSH1 0x20 PUSH1 0x40 MLOAD DUP1 DUP4 SUB DUP2 DUP7 GAS STATICCALL ISZERO DUP1 ISZERO PUSH2 0x1210 JUMPI RETURNDATASIZE PUSH1 0x0 DUP1 RETURNDATACOPY RETURNDATASIZE PUSH1 0x0 REVERT JUMPDEST POP POP POP POP PUSH1 0x40 MLOAD RETURNDATASIZE PUSH1 0x1F NOT PUSH1 0x1F DUP3 ADD AND DUP3 ADD DUP1 PUSH1 0x40 MSTORE POP DUP2 ADD SWAP1 PUSH2 0x1234 SWAP2 SWAP1 PUSH2 0x385B JUMP JUMPDEST SWAP1 POP SWAP1 JUMP JUMPDEST PUSH1 0x0 DUP1 PUSH20 0xFFFFFFFFFFFFFFFFFFFFFFFFFFFFFFFFFFFFFFFF AND PUSH1 0x1 PUSH1 0x0 SWAP1 SLOAD SWAP1 PUSH2 0x100 EXP SWAP1 DIV PUSH20 0xFFFFFFFFFFFFFFFFFFFFFFFFFFFFFFFFFFFFFFFF AND PUSH20 0xFFFFFFFFFFFFFFFFFFFFFFFFFFFFFFFFFFFFFFFF AND SUB PUSH2 0x12CB JUMPI PUSH1 0x40 MLOAD PUSH32 0x8C379A000000000000000000000000000000000000000000000000000000000 DUP2 MSTORE PUSH1 0x4 ADD PUSH2 0x12C2 SWAP1 PUSH2 0x348A JUMP JUMPDEST PUSH1 0x40 MLOAD DUP1 SWAP2 SUB SWAP1 REVERT JUMPDEST PUSH2 0x12D3 PUSH2 0x2312 JUMP JUMPDEST PUSH1 0x0 DUP4 GT DUP1 ISZERO PUSH2 0x12E3 JUMPI POP PUSH1 0x0 DUP5 GT JUMPDEST DUP1 ISZERO PUSH2 0x12EF JUMPI POP PUSH1 0x0 DUP3 GT JUMPDEST PUSH2 0x132E JUMPI PUSH1 0x40 MLOAD PUSH32 0x8C379A000000000000000000000000000000000000000000000000000000000 DUP2 MSTORE PUSH1 0x4 ADD PUSH2 0x1325 SWAP1 PUSH2 0x38FA JUMP JUMPDEST PUSH1 0x40 MLOAD DUP1 SWAP2 SUB SWAP1 REVERT JUMPDEST DUP3 DUP3 PUSH1 0xA PUSH2 0x133C SWAP2 SWAP1 PUSH2 0x3A4D JUMP JUMPDEST DUP6 PUSH2 0x1347 SWAP2 SWAP1 PUSH2 0x3A98 JUMP JUMPDEST PUSH2 0x1351 SWAP2 SWAP1 PUSH2 0x3B09 JUMP JUMPDEST SWAP1 POP SWAP4 SWAP3 POP POP POP JUMP JUMPDEST PUSH1 0x0 DUP1 PUSH1 0x1 SWAP1 SLOAD SWAP1 PUSH2 0x100 EXP SWAP1 DIV PUSH20 0xFFFFFFFFFFFFFFFFFFFFFFFFFFFFFFFFFFFFFFFF AND SWAP1 POP SWAP1 JUMP JUMPDEST PUSH1 0x0 PUSH1 0x1 PUSH1 0x0 SWAP1 SLOAD SWAP1 PUSH2 0x100 EXP SWAP1 DIV PUSH20 0xFFFFFFFFFFFFFFFFFFFFFFFFFFFFFFFFFFFFFFFF AND PUSH20 0xFFFFFFFFFFFFFFFFFFFFFFFFFFFFFFFFFFFFFFFF AND CALLER PUSH20 0xFFFFFFFFFFFFFFFFFFFFFFFFFFFFFFFFFFFFFFFF AND EQ DUP1 PUSH2 0x1413 JUMPI POP PUSH2 0x13E4 PUSH2 0x135A JUMP JUMPDEST PUSH20 0xFFFFFFFFFFFFFFFFFFFFFFFFFFFFFFFFFFFFFFFF AND CALLER PUSH20 0xFFFFFFFFFFFFFFFFFFFFFFFFFFFFFFFFFFFFFFFF AND EQ JUMPDEST PUSH2 0x1452 JUMPI PUSH1 0x40 MLOAD PUSH32 0x8C379A000000000000000000000000000000000000000000000000000000000 DUP2 MSTORE PUSH1 0x4 ADD PUSH2 0x1449 SWAP1 PUSH2 0x3660 JUMP JUMPDEST PUSH1 0x40 MLOAD DUP1 SWAP2 SUB SWAP1 REVERT JUMPDEST PUSH32 0x0 PUSH20 0xFFFFFFFFFFFFFFFFFFFFFFFFFFFFFFFFFFFFFFFF AND PUSH4 0xDD62ED3E CALLER ADDRESS PUSH1 0x40 MLOAD DUP4 PUSH4 0xFFFFFFFF AND PUSH1 0xE0 SHL DUP2 MSTORE PUSH1 0x4 ADD PUSH2 0x14AD SWAP3 SWAP2 SWAP1 PUSH2 0x3B3A JUMP JUMPDEST PUSH1 0x20 PUSH1 0x40 MLOAD DUP1 DUP4 SUB DUP2 DUP7 GAS STATICCALL ISZERO DUP1 ISZERO PUSH2 0x14CA JUMPI RETURNDATASIZE PUSH1 0x0 DUP1 RETURNDATACOPY RETURNDATASIZE PUSH1 0x0 REVERT JUMPDEST POP POP POP POP PUSH1 0x40 MLOAD RETURNDATASIZE PUSH1 0x1F NOT PUSH1 0x1F DUP3 ADD AND DUP3 ADD DUP1 PUSH1 0x40 MSTORE POP DUP2 ADD SWAP1 PUSH2 0x14EE SWAP2 SWAP1 PUSH2 0x385B JUMP JUMPDEST SWAP1 POP SWAP1 JUMP JUMPDEST PUSH1 0x0 PUSH2 0x14FD PUSH2 0x2312 JUMP JUMPDEST PUSH1 0x1 PUSH1 0x14 SWAP1 SLOAD SWAP1 PUSH2 0x100 EXP SWAP1 DIV PUSH1 0xFF AND ISZERO PUSH2 0x153C JUMPI PUSH1 0x7 PUSH1 0x0 SWAP1 SLOAD SWAP1 PUSH2 0x100 EXP SWAP1 DIV PUSH20 0xFFFFFFFFFFFFFFFFFFFFFFFFFFFFFFFFFFFFFFFF AND SWAP1 POP PUSH2 0x1562 JUMP JUMPDEST PUSH1 0x6 PUSH1 0x0 SWAP1 SLOAD SWAP1 PUSH2 0x100 EXP SWAP1 DIV PUSH20 0xFFFFFFFFFFFFFFFFFFFFFFFFFFFFFFFFFFFFFFFF AND SWAP1 POP JUMPDEST SWAP1 JUMP JUMPDEST PUSH1 0x0 PUSH1 0x1 PUSH1 0x0 SWAP1 SLOAD SWAP1 PUSH2 0x100 EXP SWAP1 DIV PUSH20 0xFFFFFFFFFFFFFFFFFFFFFFFFFFFFFFFFFFFFFFFF AND PUSH20 0xFFFFFFFFFFFFFFFFFFFFFFFFFFFFFFFFFFFFFFFF AND CALLER PUSH20 0xFFFFFFFFFFFFFFFFFFFFFFFFFFFFFFFFFFFFFFFF AND EQ DUP1 PUSH2 0x15F5 JUMPI POP PUSH2 0x15C6 PUSH2 0x135A JUMP JUMPDEST PUSH20 0xFFFFFFFFFFFFFFFFFFFFFFFFFFFFFFFFFFFFFFFF AND CALLER PUSH20 0xFFFFFFFFFFFFFFFFFFFFFFFFFFFFFFFFFFFFFFFF AND EQ JUMPDEST PUSH2 0x1634 JUMPI PUSH1 0x40 MLOAD PUSH32 0x8C379A000000000000000000000000000000000000000000000000000000000 DUP2 MSTORE PUSH1 0x4 ADD PUSH2 0x162B SWAP1 PUSH2 0x3660 JUMP JUMPDEST PUSH1 0x40 MLOAD DUP1 SWAP2 SUB SWAP1 REVERT JUMPDEST PUSH1 0x5 SLOAD SWAP1 POP SWAP1 JUMP JUMPDEST PUSH1 0x0 DUP1 PUSH20 0xFFFFFFFFFFFFFFFFFFFFFFFFFFFFFFFFFFFFFFFF AND PUSH1 0x1 PUSH1 0x0 SWAP1 SLOAD SWAP1 PUSH2 0x100 EXP SWAP1 DIV PUSH20 0xFFFFFFFFFFFFFFFFFFFFFFFFFFFFFFFFFFFFFFFF AND PUSH20 0xFFFFFFFFFFFFFFFFFFFFFFFFFFFFFFFFFFFFFFFF AND SUB PUSH2 0x16CE JUMPI PUSH1 0x40 MLOAD PUSH32 0x8C379A000000000000000000000000000000000000000000000000000000000 DUP2 MSTORE PUSH1 0x4 ADD PUSH2 0x16C5 SWAP1 PUSH2 0x348A JUMP JUMPDEST PUSH1 0x40 MLOAD DUP1 SWAP2 SUB SWAP1 REVERT JUMPDEST PUSH1 0x1 PUSH1 0x0 SWAP1 SLOAD SWAP1 PUSH2 0x100 EXP SWAP1 DIV PUSH20 0xFFFFFFFFFFFFFFFFFFFFFFFFFFFFFFFFFFFFFFFF AND PUSH20 0xFFFFFFFFFFFFFFFFFFFFFFFFFFFFFFFFFFFFFFFF AND CALLER PUSH20 0xFFFFFFFFFFFFFFFFFFFFFFFFFFFFFFFFFFFFFFFF AND EQ DUP1 PUSH2 0x175C JUMPI POP PUSH2 0x172D PUSH2 0x135A JUMP JUMPDEST PUSH20 0xFFFFFFFFFFFFFFFFFFFFFFFFFFFFFFFFFFFFFFFF AND CALLER PUSH20 0xFFFFFFFFFFFFFFFFFFFFFFFFFFFFFFFFFFFFFFFF AND EQ JUMPDEST PUSH2 0x179B JUMPI PUSH1 0x40 MLOAD PUSH32 0x8C379A000000000000000000000000000000000000000000000000000000000 DUP2 MSTORE PUSH1 0x4 ADD PUSH2 0x1792 SWAP1 PUSH2 0x3660 JUMP JUMPDEST PUSH1 0x40 MLOAD DUP1 SWAP2 SUB SWAP1 REVERT JUMPDEST PUSH1 0x3 SLOAD SWAP1 POP SWAP1 JUMP JUMPDEST PUSH1 0x0 PUSH1 0x60 PUSH1 0x0 PUSH20 0xFFFFFFFFFFFFFFFFFFFFFFFFFFFFFFFFFFFFFFFF AND PUSH1 0x1 PUSH1 0x0 SWAP1 SLOAD SWAP1 PUSH2 0x100 EXP SWAP1 DIV PUSH20 0xFFFFFFFFFFFFFFFFFFFFFFFFFFFFFFFFFFFFFFFF AND PUSH20 0xFFFFFFFFFFFFFFFFFFFFFFFFFFFFFFFFFFFFFFFF AND SUB PUSH2 0x1838 JUMPI PUSH1 0x40 MLOAD PUSH32 0x8C379A000000000000000000000000000000000000000000000000000000000 DUP2 MSTORE PUSH1 0x4 ADD PUSH2 0x182F SWAP1 PUSH2 0x348A JUMP JUMPDEST PUSH1 0x40 MLOAD DUP1 SWAP2 SUB SWAP1 REVERT JUMPDEST PUSH1 0x1 PUSH1 0x0 SWAP1 SLOAD SWAP1 PUSH2 0x100 EXP SWAP1 DIV PUSH20 0xFFFFFFFFFFFFFFFFFFFFFFFFFFFFFFFFFFFFFFFF AND PUSH20 0xFFFFFFFFFFFFFFFFFFFFFFFFFFFFFFFFFFFFFFFF AND CALLER PUSH20 0xFFFFFFFFFFFFFFFFFFFFFFFFFFFFFFFFFFFFFFFF AND EQ DUP1 PUSH2 0x18C6 JUMPI POP PUSH2 0x1897 PUSH2 0x135A JUMP JUMPDEST PUSH20 0xFFFFFFFFFFFFFFFFFFFFFFFFFFFFFFFFFFFFFFFF AND CALLER PUSH20 0xFFFFFFFFFFFFFFFFFFFFFFFFFFFFFFFFFFFFFFFF AND EQ JUMPDEST PUSH2 0x1905 JUMPI PUSH1 0x40 MLOAD PUSH32 0x8C379A000000000000000000000000000000000000000000000000000000000 DUP2 MSTORE PUSH1 0x4 ADD PUSH2 0x18FC SWAP1 PUSH2 0x3660 JUMP JUMPDEST PUSH1 0x40 MLOAD DUP1 SWAP2 SUB SWAP1 REVERT JUMPDEST PUSH32 0x0 PUSH32 0x0 PUSH20 0xFFFFFFFFFFFFFFFFFFFFFFFFFFFFFFFFFFFFFFFF AND PUSH4 0x95D89B41 PUSH1 0x40 MLOAD DUP2 PUSH4 0xFFFFFFFF AND PUSH1 0xE0 SHL DUP2 MSTORE PUSH1 0x4 ADD PUSH1 0x0 PUSH1 0x40 MLOAD DUP1 DUP4 SUB DUP2 DUP7 GAS STATICCALL ISZERO DUP1 ISZERO PUSH2 0x1991 JUMPI RETURNDATASIZE PUSH1 0x0 DUP1 RETURNDATACOPY RETURNDATASIZE PUSH1 0x0 REVERT JUMPDEST POP POP POP POP PUSH1 0x40 MLOAD RETURNDATASIZE PUSH1 0x0 DUP3 RETURNDATACOPY RETURNDATASIZE PUSH1 0x1F NOT PUSH1 0x1F DUP3 ADD AND DUP3 ADD DUP1 PUSH1 0x40 MSTORE POP DUP2 ADD SWAP1 PUSH2 0x19BA SWAP2 SWAP1 PUSH2 0x322A JUMP JUMPDEST SWAP2 POP SWAP2 POP SWAP1 SWAP2 JUMP JUMPDEST PUSH2 0x19CA PUSH2 0x2312 JUMP JUMPDEST PUSH1 0x0 PUSH20 0xFFFFFFFFFFFFFFFFFFFFFFFFFFFFFFFFFFFFFFFF AND DUP2 PUSH20 0xFFFFFFFFFFFFFFFFFFFFFFFFFFFFFFFFFFFFFFFF AND SUB PUSH2 0x1A03 JUMPI PUSH1 0x0 DUP1 REVERT JUMPDEST DUP1 PUSH1 0x7 PUSH1 0x0 PUSH2 0x100 EXP DUP2 SLOAD DUP2 PUSH20 0xFFFFFFFFFFFFFFFFFFFFFFFFFFFFFFFFFFFFFFFF MUL NOT AND SWAP1 DUP4 PUSH20 0xFFFFFFFFFFFFFFFFFFFFFFFFFFFFFFFFFFFFFFFF AND MUL OR SWAP1 SSTORE POP POP JUMP JUMPDEST PUSH1 0x0 PUSH2 0x1A51 PUSH2 0x2312 JUMP JUMPDEST DUP2 PUSH20 0xFFFFFFFFFFFFFFFFFFFFFFFFFFFFFFFFFFFFFFFF AND PUSH4 0x70A08231 ADDRESS PUSH1 0x40 MLOAD DUP3 PUSH4 0xFFFFFFFF AND PUSH1 0xE0 SHL DUP2 MSTORE PUSH1 0x4 ADD PUSH2 0x1A8A SWAP2 SWAP1 PUSH2 0x2E44 JUMP JUMPDEST PUSH1 0x20 PUSH1 0x40 MLOAD DUP1 DUP4 SUB DUP2 DUP7 GAS STATICCALL ISZERO DUP1 ISZERO PUSH2 0x1AA7 JUMPI RETURNDATASIZE PUSH1 0x0 DUP1 RETURNDATACOPY RETURNDATASIZE PUSH1 0x0 REVERT JUMPDEST POP POP POP POP PUSH1 0x40 MLOAD RETURNDATASIZE PUSH1 0x1F NOT PUSH1 0x1F DUP3 ADD AND DUP3 ADD DUP1 PUSH1 0x40 MSTORE POP DUP2 ADD SWAP1 PUSH2 0x1ACB SWAP2 SWAP1 PUSH2 0x385B JUMP JUMPDEST SWAP1 POP SWAP2 SWAP1 POP JUMP JUMPDEST PUSH1 0x0 PUSH32 0x0 SWAP1 POP SWAP1 JUMP JUMPDEST PUSH1 0x60 PUSH2 0x1B04 PUSH2 0x2312 JUMP JUMPDEST PUSH1 0x60 PUSH1 0x1 PUSH1 0x14 SWAP1 SLOAD SWAP1 PUSH2 0x100 EXP SWAP1 DIV PUSH1 0xFF AND PUSH2 0x1B58 JUMPI PUSH1 0x40 MLOAD DUP1 PUSH1 0x40 ADD PUSH1 0x40 MSTORE DUP1 PUSH1 0xC DUP2 MSTORE PUSH1 0x20 ADD PUSH32 0x41676772656761746F7256330000000000000000000000000000000000000000 DUP2 MSTORE POP SWAP1 POP DUP1 PUSH2 0x1B92 JUMP JUMPDEST PUSH1 0x40 MLOAD DUP1 PUSH1 0x40 ADD PUSH1 0x40 MSTORE DUP1 PUSH1 0x4 DUP2 MSTORE PUSH1 0x20 ADD PUSH32 0x506F6F6C00000000000000000000000000000000000000000000000000000000 DUP2 MSTORE POP SWAP1 POP DUP1 JUMPDEST POP DUP1 SWAP2 POP POP SWAP1 JUMP JUMPDEST PUSH2 0x1BA2 PUSH2 0x2312 JUMP JUMPDEST PUSH1 0x1 PUSH1 0x14 SWAP1 SLOAD SWAP1 PUSH2 0x100 EXP SWAP1 DIV PUSH1 0xFF AND ISZERO PUSH2 0x1C66 JUMPI PUSH1 0x1 PUSH1 0x14 SWAP1 SLOAD SWAP1 PUSH2 0x100 EXP SWAP1 DIV PUSH1 0xFF AND DUP1 ISZERO PUSH2 0x1C22 JUMPI POP PUSH1 0x0 PUSH20 0xFFFFFFFFFFFFFFFFFFFFFFFFFFFFFFFFFFFFFFFF AND PUSH1 0x6 PUSH1 0x0 SWAP1 SLOAD SWAP1 PUSH2 0x100 EXP SWAP1 DIV PUSH20 0xFFFFFFFFFFFFFFFFFFFFFFFFFFFFFFFFFFFFFFFF AND PUSH20 0xFFFFFFFFFFFFFFFFFFFFFFFFFFFFFFFFFFFFFFFF AND EQ ISZERO JUMPDEST PUSH2 0x1C61 JUMPI PUSH1 0x40 MLOAD PUSH32 0x8C379A000000000000000000000000000000000000000000000000000000000 DUP2 MSTORE PUSH1 0x4 ADD PUSH2 0x1C58 SWAP1 PUSH2 0x3BD5 JUMP JUMPDEST PUSH1 0x40 MLOAD DUP1 SWAP2 SUB SWAP1 REVERT JUMPDEST PUSH2 0x1D12 JUMP JUMPDEST PUSH1 0x1 PUSH1 0x14 SWAP1 SLOAD SWAP1 PUSH2 0x100 EXP SWAP1 DIV PUSH1 0xFF AND ISZERO DUP1 ISZERO PUSH2 0x1CD2 JUMPI POP PUSH1 0x0 PUSH20 0xFFFFFFFFFFFFFFFFFFFFFFFFFFFFFFFFFFFFFFFF AND PUSH1 0x7 PUSH1 0x0 SWAP1 SLOAD SWAP1 PUSH2 0x100 EXP SWAP1 DIV PUSH20 0xFFFFFFFFFFFFFFFFFFFFFFFFFFFFFFFFFFFFFFFF AND PUSH20 0xFFFFFFFFFFFFFFFFFFFFFFFFFFFFFFFFFFFFFFFF AND EQ ISZERO JUMPDEST PUSH2 0x1D11 JUMPI PUSH1 0x40 MLOAD PUSH32 0x8C379A000000000000000000000000000000000000000000000000000000000 DUP2 MSTORE PUSH1 0x4 ADD PUSH2 0x1D08 SWAP1 PUSH2 0x3C41 JUMP JUMPDEST PUSH1 0x40 MLOAD DUP1 SWAP2 SUB SWAP1 REVERT JUMPDEST JUMPDEST PUSH1 0x1 PUSH1 0x14 SWAP1 SLOAD SWAP1 PUSH2 0x100 EXP SWAP1 DIV PUSH1 0xFF AND ISZERO PUSH1 0x1 PUSH1 0x14 PUSH2 0x100 EXP DUP2 SLOAD DUP2 PUSH1 0xFF MUL NOT AND SWAP1 DUP4 ISZERO ISZERO MUL OR SWAP1 SSTORE POP JUMP JUMPDEST PUSH1 0x0 PUSH2 0x1D48 PUSH2 0x243B JUMP JUMPDEST PUSH1 0x0 PUSH20 0xFFFFFFFFFFFFFFFFFFFFFFFFFFFFFFFFFFFFFFFF AND PUSH1 0x1 PUSH1 0x0 SWAP1 SLOAD SWAP1 PUSH2 0x100 EXP SWAP1 DIV PUSH20 0xFFFFFFFFFFFFFFFFFFFFFFFFFFFFFFFFFFFFFFFF AND PUSH20 0xFFFFFFFFFFFFFFFFFFFFFFFFFFFFFFFFFFFFFFFF AND SUB PUSH2 0x1DD9 JUMPI PUSH1 0x40 MLOAD PUSH32 0x8C379A000000000000000000000000000000000000000000000000000000000 DUP2 MSTORE PUSH1 0x4 ADD PUSH2 0x1DD0 SWAP1 PUSH2 0x348A JUMP JUMPDEST PUSH1 0x40 MLOAD DUP1 SWAP2 SUB SWAP1 REVERT JUMPDEST PUSH1 0x1 PUSH1 0x0 SWAP1 SLOAD SWAP1 PUSH2 0x100 EXP SWAP1 DIV PUSH20 0xFFFFFFFFFFFFFFFFFFFFFFFFFFFFFFFFFFFFFFFF AND PUSH20 0xFFFFFFFFFFFFFFFFFFFFFFFFFFFFFFFFFFFFFFFF AND CALLER PUSH20 0xFFFFFFFFFFFFFFFFFFFFFFFFFFFFFFFFFFFFFFFF AND EQ PUSH2 0x1E69 JUMPI PUSH1 0x40 MLOAD PUSH32 0x8C379A000000000000000000000000000000000000000000000000000000000 DUP2 MSTORE PUSH1 0x4 ADD PUSH2 0x1E60 SWAP1 PUSH2 0x34F6 JUMP JUMPDEST PUSH1 0x40 MLOAD DUP1 SWAP2 SUB SWAP1 REVERT JUMPDEST PUSH1 0x0 DUP3 GT PUSH2 0x1EAC JUMPI PUSH1 0x40 MLOAD PUSH32 0x8C379A000000000000000000000000000000000000000000000000000000000 DUP2 MSTORE PUSH1 0x4 ADD PUSH2 0x1EA3 SWAP1 PUSH2 0x3CAD JUMP JUMPDEST PUSH1 0x40 MLOAD DUP1 SWAP2 SUB SWAP1 REVERT JUMPDEST PUSH1 0x0 PUSH2 0x1EB6 PUSH2 0x1383 JUMP JUMPDEST SWAP1 POP DUP3 DUP2 LT ISZERO PUSH32 0x0 PUSH20 0xFFFFFFFFFFFFFFFFFFFFFFFFFFFFFFFFFFFFFFFF AND PUSH4 0x95D89B41 PUSH1 0x40 MLOAD DUP2 PUSH4 0xFFFFFFFF AND PUSH1 0xE0 SHL DUP2 MSTORE PUSH1 0x4 ADD PUSH1 0x0 PUSH1 0x40 MLOAD DUP1 DUP4 SUB DUP2 DUP7 GAS STATICCALL ISZERO DUP1 ISZERO PUSH2 0x1F27 JUMPI RETURNDATASIZE PUSH1 0x0 DUP1 RETURNDATACOPY RETURNDATASIZE PUSH1 0x0 REVERT JUMPDEST POP POP POP POP PUSH1 0x40 MLOAD RETURNDATASIZE PUSH1 0x0 DUP3 RETURNDATACOPY RETURNDATASIZE PUSH1 0x1F NOT PUSH1 0x1F DUP3 ADD AND DUP3 ADD DUP1 PUSH1 0x40 MSTORE POP DUP2 ADD SWAP1 PUSH2 0x1F50 SWAP2 SWAP1 PUSH2 0x322A JUMP JUMPDEST PUSH1 0x40 MLOAD PUSH1 0x20 ADD PUSH2 0x1F60 SWAP2 SWAP1 PUSH2 0x3D3F JUMP JUMPDEST PUSH1 0x40 MLOAD PUSH1 0x20 DUP2 DUP4 SUB SUB DUP2 MSTORE SWAP1 PUSH1 0x40 MSTORE SWAP1 PUSH2 0x1FB0 JUMPI PUSH1 0x40 MLOAD PUSH32 0x8C379A000000000000000000000000000000000000000000000000000000000 DUP2 MSTORE PUSH1 0x4 ADD PUSH2 0x1FA7 SWAP2 SWAP1 PUSH2 0x3052 JUMP JUMPDEST PUSH1 0x40 MLOAD DUP1 SWAP2 SUB SWAP1 REVERT JUMPDEST POP PUSH1 0x0 DUP1 PUSH1 0x0 DUP1 PUSH2 0x1FBF PUSH2 0x25AC JUMP JUMPDEST SWAP4 POP SWAP4 POP SWAP4 POP SWAP4 POP PUSH1 0x0 DUP5 GT DUP1 ISZERO PUSH2 0x1FD7 JUMPI POP PUSH1 0x0 DUP4 GT JUMPDEST DUP1 ISZERO PUSH2 0x1FE3 JUMPI POP PUSH1 0x0 DUP2 GT JUMPDEST PUSH2 0x2022 JUMPI PUSH1 0x40 MLOAD PUSH32 0x8C379A000000000000000000000000000000000000000000000000000000000 DUP2 MSTORE PUSH1 0x4 ADD PUSH2 0x2019 SWAP1 PUSH2 0x3DCF JUMP JUMPDEST PUSH1 0x40 MLOAD DUP1 SWAP2 SUB SWAP1 REVERT JUMPDEST PUSH1 0x0 PUSH2 0x202F DUP9 DUP7 DUP7 PUSH2 0x28D8 JUMP JUMPDEST SWAP1 POP DUP1 PUSH1 0x4 PUSH1 0x0 DUP3 DUP3 SLOAD PUSH2 0x2043 SWAP2 SWAP1 PUSH2 0x340A JUMP JUMPDEST SWAP3 POP POP DUP2 SWAP1 SSTORE POP DUP1 PUSH1 0x3 PUSH1 0x0 DUP3 DUP3 SLOAD PUSH2 0x205C SWAP2 SWAP1 PUSH2 0x340A JUMP JUMPDEST SWAP3 POP POP DUP2 SWAP1 SSTORE POP DUP8 PUSH1 0x2 PUSH1 0x0 DUP3 DUP3 SLOAD PUSH2 0x2075 SWAP2 SWAP1 PUSH2 0x340A JUMP JUMPDEST SWAP3 POP POP DUP2 SWAP1 SSTORE POP PUSH1 0x0 TIMESTAMP SWAP1 POP DUP1 DUP10 DUP4 PUSH32 0xB5AEB7B225999ADC33232BE2121AFB1A366C15108C1DA745D17FD76108172FE4 DUP10 DUP10 DUP9 DUP11 PUSH1 0x40 MLOAD PUSH2 0x20B9 SWAP5 SWAP4 SWAP3 SWAP2 SWAP1 PUSH2 0x3DEF JUMP JUMPDEST PUSH1 0x40 MLOAD DUP1 SWAP2 SUB SWAP1 LOG4 PUSH2 0x210E CALLER ADDRESS DUP12 PUSH32 0x0 PUSH20 0xFFFFFFFFFFFFFFFFFFFFFFFFFFFFFFFFFFFFFFFF AND PUSH2 0x2906 SWAP1 SWAP4 SWAP3 SWAP2 SWAP1 PUSH4 0xFFFFFFFF AND JUMP JUMPDEST PUSH2 0x2117 DUP10 PUSH2 0x298F JUMP JUMPDEST POP PUSH1 0x1 SWAP8 POP POP POP POP POP POP POP POP SWAP2 SWAP1 POP JUMP JUMPDEST PUSH2 0x2130 PUSH2 0x2312 JUMP JUMPDEST PUSH1 0x0 PUSH20 0xFFFFFFFFFFFFFFFFFFFFFFFFFFFFFFFFFFFFFFFF AND DUP2 PUSH20 0xFFFFFFFFFFFFFFFFFFFFFFFFFFFFFFFFFFFFFFFF AND SUB PUSH2 0x219F JUMPI PUSH1 0x40 MLOAD PUSH32 0x8C379A000000000000000000000000000000000000000000000000000000000 DUP2 MSTORE PUSH1 0x4 ADD PUSH2 0x2196 SWAP1 PUSH2 0x3EAD JUMP JUMPDEST PUSH1 0x40 MLOAD DUP1 SWAP2 SUB SWAP1 REVERT JUMPDEST PUSH2 0x21A8 DUP2 PUSH2 0x24E7 JUMP JUMPDEST POP JUMP JUMPDEST PUSH1 0x0 DUP1 PUSH20 0xFFFFFFFFFFFFFFFFFFFFFFFFFFFFFFFFFFFFFFFF AND PUSH1 0x1 PUSH1 0x0 SWAP1 SLOAD SWAP1 PUSH2 0x100 EXP SWAP1 DIV PUSH20 0xFFFFFFFFFFFFFFFFFFFFFFFFFFFFFFFFFFFFFFFF AND PUSH20 0xFFFFFFFFFFFFFFFFFFFFFFFFFFFFFFFFFFFFFFFF AND SUB PUSH2 0x223D JUMPI PUSH1 0x40 MLOAD PUSH32 0x8C379A000000000000000000000000000000000000000000000000000000000 DUP2 MSTORE PUSH1 0x4 ADD PUSH2 0x2234 SWAP1 PUSH2 0x348A JUMP JUMPDEST PUSH1 0x40 MLOAD DUP1 SWAP2 SUB SWAP1 REVERT JUMPDEST PUSH1 0x1 PUSH1 0x0 SWAP1 SLOAD SWAP1 PUSH2 0x100 EXP SWAP1 DIV PUSH20 0xFFFFFFFFFFFFFFFFFFFFFFFFFFFFFFFFFFFFFFFF AND PUSH20 0xFFFFFFFFFFFFFFFFFFFFFFFFFFFFFFFFFFFFFFFF AND CALLER PUSH20 0xFFFFFFFFFFFFFFFFFFFFFFFFFFFFFFFFFFFFFFFF AND EQ DUP1 PUSH2 0x22CB JUMPI POP PUSH2 0x229C PUSH2 0x135A JUMP JUMPDEST PUSH20 0xFFFFFFFFFFFFFFFFFFFFFFFFFFFFFFFFFFFFFFFF AND CALLER PUSH20 0xFFFFFFFFFFFFFFFFFFFFFFFFFFFFFFFFFFFFFFFF AND EQ JUMPDEST PUSH2 0x230A JUMPI PUSH1 0x40 MLOAD PUSH32 0x8C379A000000000000000000000000000000000000000000000000000000000 DUP2 MSTORE PUSH1 0x4 ADD PUSH2 0x2301 SWAP1 PUSH2 0x3660 JUMP JUMPDEST PUSH1 0x40 MLOAD DUP1 SWAP2 SUB SWAP1 REVERT JUMPDEST PUSH1 0x4 SLOAD SWAP1 POP SWAP1 JUMP JUMPDEST PUSH2 0x231A PUSH2 0x2AC8 JUMP JUMPDEST PUSH20 0xFFFFFFFFFFFFFFFFFFFFFFFFFFFFFFFFFFFFFFFF AND PUSH2 0x2338 PUSH2 0x135A JUMP JUMPDEST PUSH20 0xFFFFFFFFFFFFFFFFFFFFFFFFFFFFFFFFFFFFFFFF AND EQ PUSH2 0x238E JUMPI PUSH1 0x40 MLOAD PUSH32 0x8C379A000000000000000000000000000000000000000000000000000000000 DUP2 MSTORE PUSH1 0x4 ADD PUSH2 0x2385 SWAP1 PUSH2 0x3F19 JUMP JUMPDEST PUSH1 0x40 MLOAD DUP1 SWAP2 SUB SWAP1 REVERT JUMPDEST JUMP JUMPDEST PUSH2 0x2398 PUSH2 0x108A JUMP JUMPDEST PUSH2 0x23D7 JUMPI PUSH1 0x40 MLOAD PUSH32 0x8C379A000000000000000000000000000000000000000000000000000000000 DUP2 MSTORE PUSH1 0x4 ADD PUSH2 0x23CE SWAP1 PUSH2 0x3F85 JUMP JUMPDEST PUSH1 0x40 MLOAD DUP1 SWAP2 SUB SWAP1 REVERT JUMPDEST JUMP JUMPDEST PUSH2 0x23E1 PUSH2 0x2390 JUMP JUMPDEST PUSH1 0x0 DUP1 PUSH1 0x0 PUSH2 0x100 EXP DUP2 SLOAD DUP2 PUSH1 0xFF MUL NOT AND SWAP1 DUP4 ISZERO ISZERO MUL OR SWAP1 SSTORE POP PUSH32 0x5DB9EE0A495BF2E6FF9C91A7834C1BA4FDD244A5E8AA4E537BD38AEAE4B073AA PUSH2 0x2424 PUSH2 0x2AC8 JUMP JUMPDEST PUSH1 0x40 MLOAD PUSH2 0x2431 SWAP2 SWAP1 PUSH2 0x2E44 JUMP JUMPDEST PUSH1 0x40 MLOAD DUP1 SWAP2 SUB SWAP1 LOG1 JUMP JUMPDEST PUSH2 0x2443 PUSH2 0x108A JUMP JUMPDEST ISZERO PUSH2 0x2483 JUMPI PUSH1 0x40 MLOAD PUSH32 0x8C379A000000000000000000000000000000000000000000000000000000000 DUP2 MSTORE PUSH1 0x4 ADD PUSH2 0x247A SWAP1 PUSH2 0x3FF1 JUMP JUMPDEST PUSH1 0x40 MLOAD DUP1 SWAP2 SUB SWAP1 REVERT JUMPDEST JUMP JUMPDEST PUSH2 0x248D PUSH2 0x243B JUMP JUMPDEST PUSH1 0x1 PUSH1 0x0 DUP1 PUSH2 0x100 EXP DUP2 SLOAD DUP2 PUSH1 0xFF MUL NOT AND SWAP1 DUP4 ISZERO ISZERO MUL OR SWAP1 SSTORE POP PUSH32 0x62E78CEA01BEE320CD4E420270B5EA74000D11B0C9F74754EBDBFC544B05A258 PUSH2 0x24D0 PUSH2 0x2AC8 JUMP JUMPDEST PUSH1 0x40 MLOAD PUSH2 0x24DD SWAP2 SWAP1 PUSH2 0x2E44 JUMP JUMPDEST PUSH1 0x40 MLOAD DUP1 SWAP2 SUB SWAP1 LOG1 JUMP JUMPDEST PUSH1 0x0 DUP1 PUSH1 0x1 SWAP1 SLOAD SWAP1 PUSH2 0x100 EXP SWAP1 DIV PUSH20 0xFFFFFFFFFFFFFFFFFFFFFFFFFFFFFFFFFFFFFFFF AND SWAP1 POP DUP2 PUSH1 0x0 PUSH1 0x1 PUSH2 0x100 EXP DUP2 SLOAD DUP2 PUSH20 0xFFFFFFFFFFFFFFFFFFFFFFFFFFFFFFFFFFFFFFFF MUL NOT AND SWAP1 DUP4 PUSH20 0xFFFFFFFFFFFFFFFFFFFFFFFFFFFFFFFFFFFFFFFF AND MUL OR SWAP1 SSTORE POP DUP2 PUSH20 0xFFFFFFFFFFFFFFFFFFFFFFFFFFFFFFFFFFFFFFFF AND DUP2 PUSH20 0xFFFFFFFFFFFFFFFFFFFFFFFFFFFFFFFFFFFFFFFF AND PUSH32 0x8BE0079C531659141344CD1FD0A4F28419497F9722A3DAAFE3B4186F6B6457E0 PUSH1 0x40 MLOAD PUSH1 0x40 MLOAD DUP1 SWAP2 SUB SWAP1 LOG3 POP POP JUMP JUMPDEST PUSH1 0x0 DUP1 PUSH1 0x60 PUSH1 0x0 PUSH1 0x1 PUSH1 0x14 SWAP1 SLOAD SWAP1 PUSH2 0x100 EXP SWAP1 DIV PUSH1 0xFF AND ISZERO PUSH2 0x2677 JUMPI PUSH1 0x1 PUSH1 0x14 SWAP1 SLOAD SWAP1 PUSH2 0x100 EXP SWAP1 DIV PUSH1 0xFF AND DUP1 ISZERO PUSH2 0x2633 JUMPI POP PUSH1 0x0 PUSH20 0xFFFFFFFFFFFFFFFFFFFFFFFFFFFFFFFFFFFFFFFF AND PUSH1 0x7 PUSH1 0x0 SWAP1 SLOAD SWAP1 PUSH2 0x100 EXP SWAP1 DIV PUSH20 0xFFFFFFFFFFFFFFFFFFFFFFFFFFFFFFFFFFFFFFFF AND PUSH20 0xFFFFFFFFFFFFFFFFFFFFFFFFFFFFFFFFFFFFFFFF AND EQ ISZERO JUMPDEST PUSH2 0x2672 JUMPI PUSH1 0x40 MLOAD PUSH32 0x8C379A000000000000000000000000000000000000000000000000000000000 DUP2 MSTORE PUSH1 0x4 ADD PUSH2 0x2669 SWAP1 PUSH2 0x3C41 JUMP JUMPDEST PUSH1 0x40 MLOAD DUP1 SWAP2 SUB SWAP1 REVERT JUMPDEST PUSH2 0x2723 JUMP JUMPDEST PUSH1 0x1 PUSH1 0x14 SWAP1 SLOAD SWAP1 PUSH2 0x100 EXP SWAP1 DIV PUSH1 0xFF AND ISZERO DUP1 ISZERO PUSH2 0x26E3 JUMPI POP PUSH1 0x0 PUSH20 0xFFFFFFFFFFFFFFFFFFFFFFFFFFFFFFFFFFFFFFFF AND PUSH1 0x6 PUSH1 0x0 SWAP1 SLOAD SWAP1 PUSH2 0x100 EXP SWAP1 DIV PUSH20 0xFFFFFFFFFFFFFFFFFFFFFFFFFFFFFFFFFFFFFFFF AND PUSH20 0xFFFFFFFFFFFFFFFFFFFFFFFFFFFFFFFFFFFFFFFF AND EQ ISZERO JUMPDEST PUSH2 0x2722 JUMPI PUSH1 0x40 MLOAD PUSH32 0x8C379A000000000000000000000000000000000000000000000000000000000 DUP2 MSTORE PUSH1 0x4 ADD PUSH2 0x2719 SWAP1 PUSH2 0x3BD5 JUMP JUMPDEST PUSH1 0x40 MLOAD DUP1 SWAP2 SUB SWAP1 REVERT JUMPDEST JUMPDEST PUSH1 0x0 DUP1 PUSH1 0x0 DUP1 PUSH1 0x1 PUSH1 0x14 SWAP1 SLOAD SWAP1 PUSH2 0x100 EXP SWAP1 DIV PUSH1 0xFF AND ISZERO PUSH2 0x27DB JUMPI PUSH1 0x7 PUSH1 0x0 SWAP1 SLOAD SWAP1 PUSH2 0x100 EXP SWAP1 DIV PUSH20 0xFFFFFFFFFFFFFFFFFFFFFFFFFFFFFFFFFFFFFFFF AND PUSH20 0xFFFFFFFFFFFFFFFFFFFFFFFFFFFFFFFFFFFFFFFF AND PUSH4 0x85096EDC PUSH1 0x40 MLOAD DUP2 PUSH4 0xFFFFFFFF AND PUSH1 0xE0 SHL DUP2 MSTORE PUSH1 0x4 ADD PUSH1 0x0 PUSH1 0x40 MLOAD DUP1 DUP4 SUB DUP2 PUSH1 0x0 DUP8 GAS CALL ISZERO DUP1 ISZERO PUSH2 0x27AD JUMPI RETURNDATASIZE PUSH1 0x0 DUP1 RETURNDATACOPY RETURNDATASIZE PUSH1 0x0 REVERT JUMPDEST POP POP POP POP PUSH1 0x40 MLOAD RETURNDATASIZE PUSH1 0x0 DUP3 RETURNDATACOPY RETURNDATASIZE PUSH1 0x1F NOT PUSH1 0x1F DUP3 ADD AND DUP3 ADD DUP1 PUSH1 0x40 MSTORE POP DUP2 ADD SWAP1 PUSH2 0x27D6 SWAP2 SWAP1 PUSH2 0x4011 JUMP JUMPDEST PUSH2 0x2874 JUMP JUMPDEST PUSH1 0x6 PUSH1 0x0 SWAP1 SLOAD SWAP1 PUSH2 0x100 EXP SWAP1 DIV PUSH20 0xFFFFFFFFFFFFFFFFFFFFFFFFFFFFFFFFFFFFFFFF AND PUSH20 0xFFFFFFFFFFFFFFFFFFFFFFFFFFFFFFFFFFFFFFFF AND PUSH4 0xE1E7FF77 PUSH1 0x40 MLOAD DUP2 PUSH4 0xFFFFFFFF AND PUSH1 0xE0 SHL DUP2 MSTORE PUSH1 0x4 ADD PUSH1 0x0 PUSH1 0x40 MLOAD DUP1 DUP4 SUB DUP2 PUSH1 0x0 DUP8 GAS CALL ISZERO DUP1 ISZERO PUSH2 0x284A JUMPI RETURNDATASIZE PUSH1 0x0 DUP1 RETURNDATACOPY RETURNDATASIZE PUSH1 0x0 REVERT JUMPDEST POP POP POP POP PUSH1 0x40 MLOAD RETURNDATASIZE PUSH1 0x0 DUP3 RETURNDATACOPY RETURNDATASIZE PUSH1 0x1F NOT PUSH1 0x1F DUP3 ADD AND DUP3 ADD DUP1 PUSH1 0x40 MSTORE POP DUP2 ADD SWAP1 PUSH2 0x2873 SWAP2 SWAP1 PUSH2 0x4011 JUMP JUMPDEST JUMPDEST SWAP4 POP SWAP4 POP SWAP4 POP SWAP4 POP PUSH32 0xF533C7EBCAB9CA95557310F62AA7AD41D3A6B17AEBEC7762B994EF1A14863865 DUP5 DUP5 DUP5 DUP5 PUSH2 0x28A9 PUSH2 0x1AFA JUMP JUMPDEST PUSH1 0x40 MLOAD PUSH2 0x28BA SWAP6 SWAP5 SWAP4 SWAP3 SWAP2 SWAP1 PUSH2 0x4094 JUMP JUMPDEST PUSH1 0x40 MLOAD DUP1 SWAP2 SUB SWAP1 LOG1 DUP4 DUP4 DUP4 DUP4 SWAP8 POP SWAP8 POP SWAP8 POP SWAP8 POP POP POP POP POP SWAP1 SWAP2 SWAP3 SWAP4 JUMP JUMPDEST PUSH1 0x0 DUP2 PUSH1 0xA PUSH2 0x28E7 SWAP2 SWAP1 PUSH2 0x3A4D JUMP JUMPDEST DUP4 DUP6 PUSH2 0x28F3 SWAP2 SWAP1 PUSH2 0x3A98 JUMP JUMPDEST PUSH2 0x28FD SWAP2 SWAP1 PUSH2 0x3B09 JUMP JUMPDEST SWAP1 POP SWAP4 SWAP3 POP POP POP JUMP JUMPDEST PUSH2 0x2989 DUP5 PUSH4 0x23B872DD PUSH1 0xE0 SHL DUP6 DUP6 DUP6 PUSH1 0x40 MLOAD PUSH1 0x24 ADD PUSH2 0x2927 SWAP4 SWAP3 SWAP2 SWAP1 PUSH2 0x40F5 JUMP JUMPDEST PUSH1 0x40 MLOAD PUSH1 0x20 DUP2 DUP4 SUB SUB DUP2 MSTORE SWAP1 PUSH1 0x40 MSTORE SWAP1 PUSH28 0xFFFFFFFFFFFFFFFFFFFFFFFFFFFFFFFFFFFFFFFFFFFFFFFFFFFFFFFF NOT AND PUSH1 0x20 DUP3 ADD DUP1 MLOAD PUSH28 0xFFFFFFFFFFFFFFFFFFFFFFFFFFFFFFFFFFFFFFFFFFFFFFFFFFFFFFFF DUP4 DUP2 DUP4 AND OR DUP4 MSTORE POP POP POP POP PUSH2 0x2AD0 JUMP JUMPDEST POP POP POP POP JUMP JUMPDEST PUSH1 0x0 DUP1 DUP3 GT PUSH2 0x29D3 JUMPI PUSH1 0x40 MLOAD PUSH32 0x8C379A000000000000000000000000000000000000000000000000000000000 DUP2 MSTORE PUSH1 0x4 ADD PUSH2 0x29CA SWAP1 PUSH2 0x4178 JUMP JUMPDEST PUSH1 0x40 MLOAD DUP1 SWAP2 SUB SWAP1 REVERT JUMPDEST PUSH1 0x0 PUSH2 0x29DD PUSH2 0x1190 JUMP JUMPDEST SWAP1 POP PUSH32 0x0 PUSH20 0xFFFFFFFFFFFFFFFFFFFFFFFFFFFFFFFFFFFFFFFF AND PUSH4 0x42966C68 DUP5 PUSH1 0x40 MLOAD DUP3 PUSH4 0xFFFFFFFF AND PUSH1 0xE0 SHL DUP2 MSTORE PUSH1 0x4 ADD PUSH2 0x2A38 SWAP2 SWAP1 PUSH2 0x2E9B JUMP JUMPDEST PUSH1 0x0 PUSH1 0x40 MLOAD DUP1 DUP4 SUB DUP2 PUSH1 0x0 DUP8 DUP1 EXTCODESIZE ISZERO DUP1 ISZERO PUSH2 0x2A52 JUMPI PUSH1 0x0 DUP1 REVERT JUMPDEST POP GAS CALL ISZERO DUP1 ISZERO PUSH2 0x2A66 JUMPI RETURNDATASIZE PUSH1 0x0 DUP1 RETURNDATACOPY RETURNDATASIZE PUSH1 0x0 REVERT JUMPDEST POP POP POP POP DUP3 DUP2 PUSH2 0x2A76 SWAP2 SWAP1 PUSH2 0x30D0 JUMP JUMPDEST PUSH2 0x2A7E PUSH2 0x1190 JUMP JUMPDEST EQ PUSH2 0x2ABE JUMPI PUSH1 0x40 MLOAD PUSH32 0x8C379A000000000000000000000000000000000000000000000000000000000 DUP2 MSTORE PUSH1 0x4 ADD PUSH2 0x2AB5 SWAP1 PUSH2 0x420A JUMP JUMPDEST PUSH1 0x40 MLOAD DUP1 SWAP2 SUB SWAP1 REVERT JUMPDEST PUSH1 0x1 SWAP2 POP POP SWAP2 SWAP1 POP JUMP JUMPDEST PUSH1 0x0 CALLER SWAP1 POP SWAP1 JUMP JUMPDEST PUSH1 0x0 PUSH2 0x2B32 DUP3 PUSH1 0x40 MLOAD DUP1 PUSH1 0x40 ADD PUSH1 0x40 MSTORE DUP1 PUSH1 0x20 DUP2 MSTORE PUSH1 0x20 ADD PUSH32 0x5361666545524332303A206C6F772D6C6576656C2063616C6C206661696C6564 DUP2 MSTORE POP DUP6 PUSH20 0xFFFFFFFFFFFFFFFFFFFFFFFFFFFFFFFFFFFFFFFF AND PUSH2 0x2B97 SWAP1 SWAP3 SWAP2 SWAP1 PUSH4 0xFFFFFFFF AND JUMP JUMPDEST SWAP1 POP PUSH1 0x0 DUP2 MLOAD GT ISZERO PUSH2 0x2B92 JUMPI DUP1 DUP1 PUSH1 0x20 ADD SWAP1 MLOAD DUP2 ADD SWAP1 PUSH2 0x2B52 SWAP2 SWAP1 PUSH2 0x3819 JUMP JUMPDEST PUSH2 0x2B91 JUMPI PUSH1 0x40 MLOAD PUSH32 0x8C379A000000000000000000000000000000000000000000000000000000000 DUP2 MSTORE PUSH1 0x4 ADD PUSH2 0x2B88 SWAP1 PUSH2 0x429C JUMP JUMPDEST PUSH1 0x40 MLOAD DUP1 SWAP2 SUB SWAP1 REVERT JUMPDEST JUMPDEST POP POP POP JUMP JUMPDEST PUSH1 0x60 PUSH2 0x2BA6 DUP5 DUP5 PUSH1 0x0 DUP6 PUSH2 0x2BAF JUMP JUMPDEST SWAP1 POP SWAP4 SWAP3 POP POP POP JUMP JUMPDEST PUSH1 0x60 DUP3 SELFBALANCE LT ISZERO PUSH2 0x2BF4 JUMPI PUSH1 0x40 MLOAD PUSH32 0x8C379A000000000000000000000000000000000000000000000000000000000 DUP2 MSTORE PUSH1 0x4 ADD PUSH2 0x2BEB SWAP1 PUSH2 0x432E JUMP JUMPDEST PUSH1 0x40 MLOAD DUP1 SWAP2 SUB SWAP1 REVERT JUMPDEST PUSH2 0x2BFD DUP6 PUSH2 0x2CC3 JUMP JUMPDEST PUSH2 0x2C3C JUMPI PUSH1 0x40 MLOAD PUSH32 0x8C379A000000000000000000000000000000000000000000000000000000000 DUP2 MSTORE PUSH1 0x4 ADD PUSH2 0x2C33 SWAP1 PUSH2 0x439A JUMP JUMPDEST PUSH1 0x40 MLOAD DUP1 SWAP2 SUB SWAP1 REVERT JUMPDEST PUSH1 0x0 DUP1 DUP7 PUSH20 0xFFFFFFFFFFFFFFFFFFFFFFFFFFFFFFFFFFFFFFFF AND DUP6 DUP8 PUSH1 0x40 MLOAD PUSH2 0x2C65 SWAP2 SWAP1 PUSH2 0x4401 JUMP JUMPDEST PUSH1 0x0 PUSH1 0x40 MLOAD DUP1 DUP4 SUB DUP2 DUP6 DUP8 GAS CALL SWAP3 POP POP POP RETURNDATASIZE DUP1 PUSH1 0x0 DUP2 EQ PUSH2 0x2CA2 JUMPI PUSH1 0x40 MLOAD SWAP2 POP PUSH1 0x1F NOT PUSH1 0x3F RETURNDATASIZE ADD AND DUP3 ADD PUSH1 0x40 MSTORE RETURNDATASIZE DUP3 MSTORE RETURNDATASIZE PUSH1 0x0 PUSH1 0x20 DUP5 ADD RETURNDATACOPY PUSH2 0x2CA7 JUMP JUMPDEST PUSH1 0x60 SWAP2 POP JUMPDEST POP SWAP2 POP SWAP2 POP PUSH2 0x2CB7 DUP3 DUP3 DUP7 PUSH2 0x2CE6 JUMP JUMPDEST SWAP3 POP POP POP SWAP5 SWAP4 POP POP POP POP JUMP JUMPDEST PUSH1 0x0 DUP1 DUP3 PUSH20 0xFFFFFFFFFFFFFFFFFFFFFFFFFFFFFFFFFFFFFFFF AND EXTCODESIZE GT SWAP1 POP SWAP2 SWAP1 POP JUMP JUMPDEST PUSH1 0x60 DUP4 ISZERO PUSH2 0x2CF6 JUMPI DUP3 SWAP1 POP PUSH2 0x2D46 JUMP JUMPDEST PUSH1 0x0 DUP4 MLOAD GT ISZERO PUSH2 0x2D09 JUMPI DUP3 MLOAD DUP1 DUP5 PUSH1 0x20 ADD REVERT JUMPDEST DUP2 PUSH1 0x40 MLOAD PUSH32 0x8C379A000000000000000000000000000000000000000000000000000000000 DUP2 MSTORE PUSH1 0x4 ADD PUSH2 0x2D3D SWAP2 SWAP1 PUSH2 0x3052 JUMP JUMPDEST PUSH1 0x40 MLOAD DUP1 SWAP2 SUB SWAP1 REVERT JUMPDEST SWAP4 SWAP3 POP POP POP JUMP JUMPDEST PUSH1 0x0 PUSH1 0x40 MLOAD SWAP1 POP SWAP1 JUMP JUMPDEST PUSH1 0x0 DUP1 REVERT JUMPDEST PUSH1 0x0 DUP1 REVERT JUMPDEST PUSH1 0x0 DUP2 SWAP1 POP SWAP2 SWAP1 POP JUMP JUMPDEST PUSH2 0x2D74 DUP2 PUSH2 0x2D61 JUMP JUMPDEST DUP2 EQ PUSH2 0x2D7F JUMPI PUSH1 0x0 DUP1 REVERT JUMPDEST POP JUMP JUMPDEST PUSH1 0x0 DUP2 CALLDATALOAD SWAP1 POP PUSH2 0x2D91 DUP2 PUSH2 0x2D6B JUMP JUMPDEST SWAP3 SWAP2 POP POP JUMP JUMPDEST PUSH1 0x0 PUSH20 0xFFFFFFFFFFFFFFFFFFFFFFFFFFFFFFFFFFFFFFFF DUP3 AND SWAP1 POP SWAP2 SWAP1 POP JUMP JUMPDEST PUSH1 0x0 PUSH2 0x2DC2 DUP3 PUSH2 0x2D97 JUMP JUMPDEST SWAP1 POP SWAP2 SWAP1 POP JUMP JUMPDEST PUSH2 0x2DD2 DUP2 PUSH2 0x2DB7 JUMP JUMPDEST DUP2 EQ PUSH2 0x2DDD JUMPI PUSH1 0x0 DUP1 REVERT JUMPDEST POP JUMP JUMPDEST PUSH1 0x0 DUP2 CALLDATALOAD SWAP1 POP PUSH2 0x2DEF DUP2 PUSH2 0x2DC9 JUMP JUMPDEST SWAP3 SWAP2 POP POP JUMP JUMPDEST PUSH1 0x0 DUP1 PUSH1 0x40 DUP4 DUP6 SUB SLT ISZERO PUSH2 0x2E0C JUMPI PUSH2 0x2E0B PUSH2 0x2D57 JUMP JUMPDEST JUMPDEST PUSH1 0x0 PUSH2 0x2E1A DUP6 DUP3 DUP7 ADD PUSH2 0x2D82 JUMP JUMPDEST SWAP3 POP POP PUSH1 0x20 PUSH2 0x2E2B DUP6 DUP3 DUP7 ADD PUSH2 0x2DE0 JUMP JUMPDEST SWAP2 POP POP SWAP3 POP SWAP3 SWAP1 POP JUMP JUMPDEST PUSH2 0x2E3E DUP2 PUSH2 0x2DB7 JUMP JUMPDEST DUP3 MSTORE POP POP JUMP JUMPDEST PUSH1 0x0 PUSH1 0x20 DUP3 ADD SWAP1 POP PUSH2 0x2E59 PUSH1 0x0 DUP4 ADD DUP5 PUSH2 0x2E35 JUMP JUMPDEST SWAP3 SWAP2 POP POP JUMP JUMPDEST PUSH1 0x0 PUSH1 0x20 DUP3 DUP5 SUB SLT ISZERO PUSH2 0x2E75 JUMPI PUSH2 0x2E74 PUSH2 0x2D57 JUMP JUMPDEST JUMPDEST PUSH1 0x0 PUSH2 0x2E83 DUP5 DUP3 DUP6 ADD PUSH2 0x2DE0 JUMP JUMPDEST SWAP2 POP POP SWAP3 SWAP2 POP POP JUMP JUMPDEST PUSH2 0x2E95 DUP2 PUSH2 0x2D61 JUMP JUMPDEST DUP3 MSTORE POP POP JUMP JUMPDEST PUSH1 0x0 PUSH1 0x20 DUP3 ADD SWAP1 POP PUSH2 0x2EB0 PUSH1 0x0 DUP4 ADD DUP5 PUSH2 0x2E8C JUMP JUMPDEST SWAP3 SWAP2 POP POP JUMP JUMPDEST PUSH1 0x0 DUP2 ISZERO ISZERO SWAP1 POP SWAP2 SWAP1 POP JUMP JUMPDEST PUSH2 0x2ECB DUP2 PUSH2 0x2EB6 JUMP JUMPDEST DUP3 MSTORE POP POP JUMP JUMPDEST PUSH1 0x0 PUSH1 0x20 DUP3 ADD SWAP1 POP PUSH2 0x2EE6 PUSH1 0x0 DUP4 ADD DUP5 PUSH2 0x2EC2 JUMP JUMPDEST SWAP3 SWAP2 POP POP JUMP JUMPDEST PUSH1 0x0 DUP1 PUSH1 0x0 PUSH1 0x60 DUP5 DUP7 SUB SLT ISZERO PUSH2 0x2F05 JUMPI PUSH2 0x2F04 PUSH2 0x2D57 JUMP JUMPDEST JUMPDEST PUSH1 0x0 PUSH2 0x2F13 DUP7 DUP3 DUP8 ADD PUSH2 0x2DE0 JUMP JUMPDEST SWAP4 POP POP PUSH1 0x20 PUSH2 0x2F24 DUP7 DUP3 DUP8 ADD PUSH2 0x2DE0 JUMP JUMPDEST SWAP3 POP POP PUSH1 0x40 PUSH2 0x2F35 DUP7 DUP3 DUP8 ADD PUSH2 0x2D82 JUMP JUMPDEST SWAP2 POP POP SWAP3 POP SWAP3 POP SWAP3 JUMP JUMPDEST PUSH1 0x0 DUP1 PUSH1 0x0 PUSH1 0x60 DUP5 DUP7 SUB SLT ISZERO PUSH2 0x2F58 JUMPI PUSH2 0x2F57 PUSH2 0x2D57 JUMP JUMPDEST JUMPDEST PUSH1 0x0 PUSH2 0x2F66 DUP7 DUP3 DUP8 ADD PUSH2 0x2D82 JUMP JUMPDEST SWAP4 POP POP PUSH1 0x20 PUSH2 0x2F77 DUP7 DUP3 DUP8 ADD PUSH2 0x2D82 JUMP JUMPDEST SWAP3 POP POP PUSH1 0x40 PUSH2 0x2F88 DUP7 DUP3 DUP8 ADD PUSH2 0x2D82 JUMP JUMPDEST SWAP2 POP POP SWAP3 POP SWAP3 POP SWAP3 JUMP JUMPDEST PUSH1 0x0 DUP2 MLOAD SWAP1 POP SWAP2 SWAP1 POP JUMP JUMPDEST PUSH1 0x0 DUP3 DUP3 MSTORE PUSH1 0x20 DUP3 ADD SWAP1 POP SWAP3 SWAP2 POP POP JUMP JUMPDEST PUSH1 0x0 JUMPDEST DUP4 DUP2 LT ISZERO PUSH2 0x2FCC JUMPI DUP1 DUP3 ADD MLOAD DUP2 DUP5 ADD MSTORE PUSH1 0x20 DUP2 ADD SWAP1 POP PUSH2 0x2FB1 JUMP JUMPDEST PUSH1 0x0 DUP5 DUP5 ADD MSTORE POP POP POP POP JUMP JUMPDEST PUSH1 0x0 PUSH1 0x1F NOT PUSH1 0x1F DUP4 ADD AND SWAP1 POP SWAP2 SWAP1 POP JUMP JUMPDEST PUSH1 0x0 PUSH2 0x2FF4 DUP3 PUSH2 0x2F92 JUMP JUMPDEST PUSH2 0x2FFE DUP2 DUP6 PUSH2 0x2F9D JUMP JUMPDEST SWAP4 POP PUSH2 0x300E DUP2 DUP6 PUSH1 0x20 DUP7 ADD PUSH2 0x2FAE JUMP JUMPDEST PUSH2 0x3017 DUP2 PUSH2 0x2FD8 JUMP JUMPDEST DUP5 ADD SWAP2 POP POP SWAP3 SWAP2 POP POP JUMP JUMPDEST PUSH1 0x0 PUSH1 0x40 DUP3 ADD SWAP1 POP PUSH2 0x3037 PUSH1 0x0 DUP4 ADD DUP6 PUSH2 0x2E35 JUMP JUMPDEST DUP2 DUP2 SUB PUSH1 0x20 DUP4 ADD MSTORE PUSH2 0x3049 DUP2 DUP5 PUSH2 0x2FE9 JUMP JUMPDEST SWAP1 POP SWAP4 SWAP3 POP POP POP JUMP JUMPDEST PUSH1 0x0 PUSH1 0x20 DUP3 ADD SWAP1 POP DUP2 DUP2 SUB PUSH1 0x0 DUP4 ADD MSTORE PUSH2 0x306C DUP2 DUP5 PUSH2 0x2FE9 JUMP JUMPDEST SWAP1 POP SWAP3 SWAP2 POP POP JUMP JUMPDEST PUSH1 0x0 PUSH1 0x20 DUP3 DUP5 SUB SLT ISZERO PUSH2 0x308A JUMPI PUSH2 0x3089 PUSH2 0x2D57 JUMP JUMPDEST JUMPDEST PUSH1 0x0 PUSH2 0x3098 DUP5 DUP3 DUP6 ADD PUSH2 0x2D82 JUMP JUMPDEST SWAP2 POP POP SWAP3 SWAP2 POP POP JUMP JUMPDEST PUSH32 0x4E487B7100000000000000000000000000000000000000000000000000000000 PUSH1 0x0 MSTORE PUSH1 0x11 PUSH1 0x4 MSTORE PUSH1 0x24 PUSH1 0x0 REVERT JUMPDEST PUSH1 0x0 PUSH2 0x30DB DUP3 PUSH2 0x2D61 JUMP JUMPDEST SWAP2 POP PUSH2 0x30E6 DUP4 PUSH2 0x2D61 JUMP JUMPDEST SWAP3 POP DUP3 DUP3 SUB SWAP1 POP DUP2 DUP2 GT ISZERO PUSH2 0x30FE JUMPI PUSH2 0x30FD PUSH2 0x30A1 JUMP JUMPDEST JUMPDEST SWAP3 SWAP2 POP POP JUMP JUMPDEST PUSH1 0x0 DUP1 REVERT JUMPDEST PUSH1 0x0 DUP1 REVERT JUMPDEST PUSH32 0x4E487B7100000000000000000000000000000000000000000000000000000000 PUSH1 0x0 MSTORE PUSH1 0x41 PUSH1 0x4 MSTORE PUSH1 0x24 PUSH1 0x0 REVERT JUMPDEST PUSH2 0x3146 DUP3 PUSH2 0x2FD8 JUMP JUMPDEST DUP2 ADD DUP2 DUP2 LT PUSH8 0xFFFFFFFFFFFFFFFF DUP3 GT OR ISZERO PUSH2 0x3165 JUMPI PUSH2 0x3164 PUSH2 0x310E JUMP JUMPDEST JUMPDEST DUP1 PUSH1 0x40 MSTORE POP POP POP JUMP JUMPDEST PUSH1 0x0 PUSH2 0x3178 PUSH2 0x2D4D JUMP JUMPDEST SWAP1 POP PUSH2 0x3184 DUP3 DUP3 PUSH2 0x313D JUMP JUMPDEST SWAP2 SWAP1 POP JUMP JUMPDEST PUSH1 0x0 PUSH8 0xFFFFFFFFFFFFFFFF DUP3 GT ISZERO PUSH2 0x31A4 JUMPI PUSH2 0x31A3 PUSH2 0x310E JUMP JUMPDEST JUMPDEST PUSH2 0x31AD DUP3 PUSH2 0x2FD8 JUMP JUMPDEST SWAP1 POP PUSH1 0x20 DUP2 ADD SWAP1 POP SWAP2 SWAP1 POP JUMP JUMPDEST PUSH1 0x0 PUSH2 0x31CD PUSH2 0x31C8 DUP5 PUSH2 0x3189 JUMP JUMPDEST PUSH2 0x316E JUMP JUMPDEST SWAP1 POP DUP3 DUP2 MSTORE PUSH1 0x20 DUP2 ADD DUP5 DUP5 DUP5 ADD GT ISZERO PUSH2 0x31E9 JUMPI PUSH2 0x31E8 PUSH2 0x3109 JUMP JUMPDEST JUMPDEST PUSH2 0x31F4 DUP5 DUP3 DUP6 PUSH2 0x2FAE JUMP JUMPDEST POP SWAP4 SWAP3 POP POP POP JUMP JUMPDEST PUSH1 0x0 DUP3 PUSH1 0x1F DUP4 ADD SLT PUSH2 0x3211 JUMPI PUSH2 0x3210 PUSH2 0x3104 JUMP JUMPDEST JUMPDEST DUP2 MLOAD PUSH2 0x3221 DUP5 DUP3 PUSH1 0x20 DUP7 ADD PUSH2 0x31BA JUMP JUMPDEST SWAP2 POP POP SWAP3 SWAP2 POP POP JUMP JUMPDEST PUSH1 0x0 PUSH1 0x20 DUP3 DUP5 SUB SLT ISZERO PUSH2 0x3240 JUMPI PUSH2 0x323F PUSH2 0x2D57 JUMP JUMPDEST JUMPDEST PUSH1 0x0 DUP3 ADD MLOAD PUSH8 0xFFFFFFFFFFFFFFFF DUP2 GT ISZERO PUSH2 0x325E JUMPI PUSH2 0x325D PUSH2 0x2D5C JUMP JUMPDEST JUMPDEST PUSH2 0x326A DUP5 DUP3 DUP6 ADD PUSH2 0x31FC JUMP JUMPDEST SWAP2 POP POP SWAP3 SWAP2 POP POP JUMP JUMPDEST PUSH1 0x0 DUP2 SWAP1 POP SWAP3 SWAP2 POP POP JUMP JUMPDEST PUSH32 0x4E6F7420656E6F75676820706F696E74732E2054686520636F6E747261637420 PUSH1 0x0 DUP3 ADD MSTORE PUSH32 0x6D75737420626520636861726765642077697468206D6F726520000000000000 PUSH1 0x20 DUP3 ADD MSTORE POP JUMP JUMPDEST PUSH1 0x0 PUSH2 0x32DA PUSH1 0x3A DUP4 PUSH2 0x3273 JUMP JUMPDEST SWAP2 POP PUSH2 0x32E5 DUP3 PUSH2 0x327E JUMP JUMPDEST PUSH1 0x3A DUP3 ADD SWAP1 POP SWAP2 SWAP1 POP JUMP JUMPDEST PUSH1 0x0 PUSH2 0x32FB DUP3 PUSH2 0x2F92 JUMP JUMPDEST PUSH2 0x3305 DUP2 DUP6 PUSH2 0x3273 JUMP JUMPDEST SWAP4 POP PUSH2 0x3315 DUP2 DUP6 PUSH1 0x20 DUP7 ADD PUSH2 0x2FAE JUMP JUMPDEST DUP1 DUP5 ADD SWAP2 POP POP SWAP3 SWAP2 POP POP JUMP JUMPDEST PUSH32 0x2100000000000000000000000000000000000000000000000000000000000000 DUP2 MSTORE POP JUMP JUMPDEST PUSH1 0x0 PUSH2 0x3352 DUP3 PUSH2 0x32CD JUMP JUMPDEST SWAP2 POP PUSH2 0x335E DUP3 DUP5 PUSH2 0x32F0 JUMP JUMPDEST SWAP2 POP PUSH2 0x3369 DUP3 PUSH2 0x3321 JUMP JUMPDEST PUSH1 0x1 DUP3 ADD SWAP2 POP DUP2 SWAP1 POP SWAP3 SWAP2 POP POP JUMP JUMPDEST PUSH32 0x57697468647261772076616C7565206D75737420626520677265617465722074 PUSH1 0x0 DUP3 ADD MSTORE PUSH32 0x68616E2030210000000000000000000000000000000000000000000000000000 PUSH1 0x20 DUP3 ADD MSTORE POP JUMP JUMPDEST PUSH1 0x0 PUSH2 0x33D4 PUSH1 0x26 DUP4 PUSH2 0x2F9D JUMP JUMPDEST SWAP2 POP PUSH2 0x33DF DUP3 PUSH2 0x3378 JUMP JUMPDEST PUSH1 0x40 DUP3 ADD SWAP1 POP SWAP2 SWAP1 POP JUMP JUMPDEST PUSH1 0x0 PUSH1 0x20 DUP3 ADD SWAP1 POP DUP2 DUP2 SUB PUSH1 0x0 DUP4 ADD MSTORE PUSH2 0x3403 DUP2 PUSH2 0x33C7 JUMP JUMPDEST SWAP1 POP SWAP2 SWAP1 POP JUMP JUMPDEST PUSH1 0x0 PUSH2 0x3415 DUP3 PUSH2 0x2D61 JUMP JUMPDEST SWAP2 POP PUSH2 0x3420 DUP4 PUSH2 0x2D61 JUMP JUMPDEST SWAP3 POP DUP3 DUP3 ADD SWAP1 POP DUP1 DUP3 GT ISZERO PUSH2 0x3438 JUMPI PUSH2 0x3437 PUSH2 0x30A1 JUMP JUMPDEST JUMPDEST SWAP3 SWAP2 POP POP JUMP JUMPDEST PUSH32 0x4E6F742061637469766174656421000000000000000000000000000000000000 PUSH1 0x0 DUP3 ADD MSTORE POP JUMP JUMPDEST PUSH1 0x0 PUSH2 0x3474 PUSH1 0xE DUP4 PUSH2 0x2F9D JUMP JUMPDEST SWAP2 POP PUSH2 0x347F DUP3 PUSH2 0x343E JUMP JUMPDEST PUSH1 0x20 DUP3 ADD SWAP1 POP SWAP2 SWAP1 POP JUMP JUMPDEST PUSH1 0x0 PUSH1 0x20 DUP3 ADD SWAP1 POP DUP2 DUP2 SUB PUSH1 0x0 DUP4 ADD MSTORE PUSH2 0x34A3 DUP2 PUSH2 0x3467 JUMP JUMPDEST SWAP1 POP SWAP2 SWAP1 POP JUMP JUMPDEST PUSH32 0x4E6F7420417574686F72697A6564210000000000000000000000000000000000 PUSH1 0x0 DUP3 ADD MSTORE POP JUMP JUMPDEST PUSH1 0x0 PUSH2 0x34E0 PUSH1 0xF DUP4 PUSH2 0x2F9D JUMP JUMPDEST SWAP2 POP PUSH2 0x34EB DUP3 PUSH2 0x34AA JUMP JUMPDEST PUSH1 0x20 DUP3 ADD SWAP1 POP SWAP2 SWAP1 POP JUMP JUMPDEST PUSH1 0x0 PUSH1 0x20 DUP3 ADD SWAP1 POP DUP2 DUP2 SUB PUSH1 0x0 DUP4 ADD MSTORE PUSH2 0x350F DUP2 PUSH2 0x34D3 JUMP JUMPDEST SWAP1 POP SWAP2 SWAP1 POP JUMP JUMPDEST PUSH32 0x41637469766174696F6E206E6F7420616C6C6F77656421000000000000000000 PUSH1 0x0 DUP3 ADD MSTORE POP JUMP JUMPDEST PUSH1 0x0 PUSH2 0x354C PUSH1 0x17 DUP4 PUSH2 0x2F9D JUMP JUMPDEST SWAP2 POP PUSH2 0x3557 DUP3 PUSH2 0x3516 JUMP JUMPDEST PUSH1 0x20 DUP3 ADD SWAP1 POP SWAP2 SWAP1 POP JUMP JUMPDEST PUSH1 0x0 PUSH1 0x20 DUP3 ADD SWAP1 POP DUP2 DUP2 SUB PUSH1 0x0 DUP4 ADD MSTORE PUSH2 0x357B DUP2 PUSH2 0x353F JUMP JUMPDEST SWAP1 POP SWAP2 SWAP1 POP JUMP JUMPDEST PUSH32 0x416C7265616479206163746976617465642E0000000000000000000000000000 PUSH1 0x0 DUP3 ADD MSTORE POP JUMP JUMPDEST PUSH1 0x0 PUSH2 0x35B8 PUSH1 0x12 DUP4 PUSH2 0x2F9D JUMP JUMPDEST SWAP2 POP PUSH2 0x35C3 DUP3 PUSH2 0x3582 JUMP JUMPDEST PUSH1 0x20 DUP3 ADD SWAP1 POP SWAP2 SWAP1 POP JUMP JUMPDEST PUSH1 0x0 PUSH1 0x20 DUP3 ADD SWAP1 POP DUP2 DUP2 SUB PUSH1 0x0 DUP4 ADD MSTORE PUSH2 0x35E7 DUP2 PUSH2 0x35AB JUMP JUMPDEST SWAP1 POP SWAP2 SWAP1 POP JUMP JUMPDEST PUSH32 0x4F6E6C79204F776E6572206F7220417574686F72697A65642070617274696369 PUSH1 0x0 DUP3 ADD MSTORE PUSH32 0x7061746F722063616E206163636573732074686973206F7065726174696F6E21 PUSH1 0x20 DUP3 ADD MSTORE POP JUMP JUMPDEST PUSH1 0x0 PUSH2 0x364A PUSH1 0x40 DUP4 PUSH2 0x2F9D JUMP JUMPDEST SWAP2 POP PUSH2 0x3655 DUP3 PUSH2 0x35EE JUMP JUMPDEST PUSH1 0x40 DUP3 ADD SWAP1 POP SWAP2 SWAP1 POP JUMP JUMPDEST PUSH1 0x0 PUSH1 0x20 DUP3 ADD SWAP1 POP DUP2 DUP2 SUB PUSH1 0x0 DUP4 ADD MSTORE PUSH2 0x3679 DUP2 PUSH2 0x363D JUMP JUMPDEST SWAP1 POP SWAP2 SWAP1 POP JUMP JUMPDEST PUSH32 0x4E6F7468696E6720746F2077697468647261772E000000000000000000000000 PUSH1 0x0 DUP3 ADD MSTORE POP JUMP JUMPDEST PUSH1 0x0 PUSH2 0x36B6 PUSH1 0x14 DUP4 PUSH2 0x2F9D JUMP JUMPDEST SWAP2 POP PUSH2 0x36C1 DUP3 PUSH2 0x3680 JUMP JUMPDEST PUSH1 0x20 DUP3 ADD SWAP1 POP SWAP2 SWAP1 POP JUMP JUMPDEST PUSH1 0x0 PUSH1 0x20 DUP3 ADD SWAP1 POP DUP2 DUP2 SUB PUSH1 0x0 DUP4 ADD MSTORE PUSH2 0x36E5 DUP2 PUSH2 0x36A9 JUMP JUMPDEST SWAP1 POP SWAP2 SWAP1 POP JUMP JUMPDEST PUSH32 0x4E6F7420656E6F7567682062616C616E636520666F7220776974686472617721 PUSH1 0x0 DUP3 ADD MSTORE POP JUMP JUMPDEST PUSH1 0x0 PUSH2 0x3722 PUSH1 0x20 DUP4 PUSH2 0x2F9D JUMP JUMPDEST SWAP2 POP PUSH2 0x372D DUP3 PUSH2 0x36EC JUMP JUMPDEST PUSH1 0x20 DUP3 ADD SWAP1 POP SWAP2 SWAP1 POP JUMP JUMPDEST PUSH1 0x0 PUSH1 0x20 DUP3 ADD SWAP1 POP DUP2 DUP2 SUB PUSH1 0x0 DUP4 ADD MSTORE PUSH2 0x3751 DUP2 PUSH2 0x3715 JUMP JUMPDEST SWAP1 POP SWAP2 SWAP1 POP JUMP JUMPDEST PUSH32 0x4E6F7420656E6F7567682062616C616E63652100000000000000000000000000 PUSH1 0x0 DUP3 ADD MSTORE POP JUMP JUMPDEST PUSH1 0x0 PUSH2 0x378E PUSH1 0x13 DUP4 PUSH2 0x2F9D JUMP JUMPDEST SWAP2 POP PUSH2 0x3799 DUP3 PUSH2 0x3758 JUMP JUMPDEST PUSH1 0x20 DUP3 ADD SWAP1 POP SWAP2 SWAP1 POP JUMP JUMPDEST PUSH1 0x0 PUSH1 0x20 DUP3 ADD SWAP1 POP DUP2 DUP2 SUB PUSH1 0x0 DUP4 ADD MSTORE PUSH2 0x37BD DUP2 PUSH2 0x3781 JUMP JUMPDEST SWAP1 POP SWAP2 SWAP1 POP JUMP JUMPDEST PUSH1 0x0 PUSH1 0x40 DUP3 ADD SWAP1 POP PUSH2 0x37D9 PUSH1 0x0 DUP4 ADD DUP6 PUSH2 0x2E35 JUMP JUMPDEST PUSH2 0x37E6 PUSH1 0x20 DUP4 ADD DUP5 PUSH2 0x2E8C JUMP JUMPDEST SWAP4 SWAP3 POP POP POP JUMP JUMPDEST PUSH2 0x37F6 DUP2 PUSH2 0x2EB6 JUMP JUMPDEST DUP2 EQ PUSH2 0x3801 JUMPI PUSH1 0x0 DUP1 REVERT JUMPDEST POP JUMP JUMPDEST PUSH1 0x0 DUP2 MLOAD SWAP1 POP PUSH2 0x3813 DUP2 PUSH2 0x37ED JUMP JUMPDEST SWAP3 SWAP2 POP POP JUMP JUMPDEST PUSH1 0x0 PUSH1 0x20 DUP3 DUP5 SUB SLT ISZERO PUSH2 0x382F JUMPI PUSH2 0x382E PUSH2 0x2D57 JUMP JUMPDEST JUMPDEST PUSH1 0x0 PUSH2 0x383D DUP5 DUP3 DUP6 ADD PUSH2 0x3804 JUMP JUMPDEST SWAP2 POP POP SWAP3 SWAP2 POP POP JUMP JUMPDEST PUSH1 0x0 DUP2 MLOAD SWAP1 POP PUSH2 0x3855 DUP2 PUSH2 0x2D6B JUMP JUMPDEST SWAP3 SWAP2 POP POP JUMP JUMPDEST PUSH1 0x0 PUSH1 0x20 DUP3 DUP5 SUB SLT ISZERO PUSH2 0x3871 JUMPI PUSH2 0x3870 PUSH2 0x2D57 JUMP JUMPDEST JUMPDEST PUSH1 0x0 PUSH2 0x387F DUP5 DUP3 DUP6 ADD PUSH2 0x3846 JUMP JUMPDEST SWAP2 POP POP SWAP3 SWAP2 POP POP JUMP JUMPDEST PUSH32 0x526174652C20706F696E747320616E6420646563696D616C73206D7573742062 PUSH1 0x0 DUP3 ADD MSTORE PUSH32 0x652067726561746572207468616E207A65726F21000000000000000000000000 PUSH1 0x20 DUP3 ADD MSTORE POP JUMP JUMPDEST PUSH1 0x0 PUSH2 0x38E4 PUSH1 0x34 DUP4 PUSH2 0x2F9D JUMP JUMPDEST SWAP2 POP PUSH2 0x38EF DUP3 PUSH2 0x3888 JUMP JUMPDEST PUSH1 0x40 DUP3 ADD SWAP1 POP SWAP2 SWAP1 POP JUMP JUMPDEST PUSH1 0x0 PUSH1 0x20 DUP3 ADD SWAP1 POP DUP2 DUP2 SUB PUSH1 0x0 DUP4 ADD MSTORE PUSH2 0x3913 DUP2 PUSH2 0x38D7 JUMP JUMPDEST SWAP1 POP SWAP2 SWAP1 POP JUMP JUMPDEST PUSH1 0x0 DUP2 PUSH1 0x1 SHR SWAP1 POP SWAP2 SWAP1 POP JUMP JUMPDEST PUSH1 0x0 DUP1 DUP3 SWAP2 POP DUP4 SWAP1 POP JUMPDEST PUSH1 0x1 DUP6 GT ISZERO PUSH2 0x3971 JUMPI DUP1 DUP7 DIV DUP2 GT ISZERO PUSH2 0x394D JUMPI PUSH2 0x394C PUSH2 0x30A1 JUMP JUMPDEST JUMPDEST PUSH1 0x1 DUP6 AND ISZERO PUSH2 0x395C JUMPI DUP1 DUP3 MUL SWAP2 POP JUMPDEST DUP1 DUP2 MUL SWAP1 POP PUSH2 0x396A DUP6 PUSH2 0x391A JUMP JUMPDEST SWAP5 POP PUSH2 0x3931 JUMP JUMPDEST SWAP5 POP SWAP5 SWAP3 POP POP POP JUMP JUMPDEST PUSH1 0x0 DUP3 PUSH2 0x398A JUMPI PUSH1 0x1 SWAP1 POP PUSH2 0x3A46 JUMP JUMPDEST DUP2 PUSH2 0x3998 JUMPI PUSH1 0x0 SWAP1 POP PUSH2 0x3A46 JUMP JUMPDEST DUP2 PUSH1 0x1 DUP2 EQ PUSH2 0x39AE JUMPI PUSH1 0x2 DUP2 EQ PUSH2 0x39B8 JUMPI PUSH2 0x39E7 JUMP JUMPDEST PUSH1 0x1 SWAP2 POP POP PUSH2 0x3A46 JUMP JUMPDEST PUSH1 0xFF DUP5 GT ISZERO PUSH2 0x39CA JUMPI PUSH2 0x39C9 PUSH2 0x30A1 JUMP JUMPDEST JUMPDEST DUP4 PUSH1 0x2 EXP SWAP2 POP DUP5 DUP3 GT ISZERO PUSH2 0x39E1 JUMPI PUSH2 0x39E0 PUSH2 0x30A1 JUMP JUMPDEST JUMPDEST POP PUSH2 0x3A46 JUMP JUMPDEST POP PUSH1 0x20 DUP4 LT PUSH2 0x133 DUP4 LT AND PUSH1 0x4E DUP5 LT PUSH1 0xB DUP5 LT AND OR ISZERO PUSH2 0x3A1C JUMPI DUP3 DUP3 EXP SWAP1 POP DUP4 DUP2 GT ISZERO PUSH2 0x3A17 JUMPI PUSH2 0x3A16 PUSH2 0x30A1 JUMP JUMPDEST JUMPDEST PUSH2 0x3A46 JUMP JUMPDEST PUSH2 0x3A29 DUP5 DUP5 DUP5 PUSH1 0x1 PUSH2 0x3927 JUMP JUMPDEST SWAP3 POP SWAP1 POP DUP2 DUP5 DIV DUP2 GT ISZERO PUSH2 0x3A40 JUMPI PUSH2 0x3A3F PUSH2 0x30A1 JUMP JUMPDEST JUMPDEST DUP2 DUP2 MUL SWAP1 POP JUMPDEST SWAP4 SWAP3 POP POP POP JUMP JUMPDEST PUSH1 0x0 PUSH2 0x3A58 DUP3 PUSH2 0x2D61 JUMP JUMPDEST SWAP2 POP PUSH2 0x3A63 DUP4 PUSH2 0x2D61 JUMP JUMPDEST SWAP3 POP PUSH2 0x3A90 PUSH32 0xFFFFFFFFFFFFFFFFFFFFFFFFFFFFFFFFFFFFFFFFFFFFFFFFFFFFFFFFFFFFFFFF DUP5 DUP5 PUSH2 0x397A JUMP JUMPDEST SWAP1 POP SWAP3 SWAP2 POP POP JUMP JUMPDEST PUSH1 0x0 PUSH2 0x3AA3 DUP3 PUSH2 0x2D61 JUMP JUMPDEST SWAP2 POP PUSH2 0x3AAE DUP4 PUSH2 0x2D61 JUMP JUMPDEST SWAP3 POP DUP3 DUP3 MUL PUSH2 0x3ABC DUP2 PUSH2 0x2D61 JUMP JUMPDEST SWAP2 POP DUP3 DUP3 DIV DUP5 EQ DUP4 ISZERO OR PUSH2 0x3AD3 JUMPI PUSH2 0x3AD2 PUSH2 0x30A1 JUMP JUMPDEST JUMPDEST POP SWAP3 SWAP2 POP POP JUMP JUMPDEST PUSH32 0x4E487B7100000000000000000000000000000000000000000000000000000000 PUSH1 0x0 MSTORE PUSH1 0x12 PUSH1 0x4 MSTORE PUSH1 0x24 PUSH1 0x0 REVERT JUMPDEST PUSH1 0x0 PUSH2 0x3B14 DUP3 PUSH2 0x2D61 JUMP JUMPDEST SWAP2 POP PUSH2 0x3B1F DUP4 PUSH2 0x2D61 JUMP JUMPDEST SWAP3 POP DUP3 PUSH2 0x3B2F JUMPI PUSH2 0x3B2E PUSH2 0x3ADA JUMP JUMPDEST JUMPDEST DUP3 DUP3 DIV SWAP1 POP SWAP3 SWAP2 POP POP JUMP JUMPDEST PUSH1 0x0 PUSH1 0x40 DUP3 ADD SWAP1 POP PUSH2 0x3B4F PUSH1 0x0 DUP4 ADD DUP6 PUSH2 0x2E35 JUMP JUMPDEST PUSH2 0x3B5C PUSH1 0x20 DUP4 ADD DUP5 PUSH2 0x2E35 JUMP JUMPDEST SWAP4 SWAP3 POP POP POP JUMP JUMPDEST PUSH32 0x41676772656761746F72436F6E73756D6572206973206E6F7420696E69746961 PUSH1 0x0 DUP3 ADD MSTORE PUSH32 0x6C697A6564210000000000000000000000000000000000000000000000000000 PUSH1 0x20 DUP3 ADD MSTORE POP JUMP JUMPDEST PUSH1 0x0 PUSH2 0x3BBF PUSH1 0x26 DUP4 PUSH2 0x2F9D JUMP JUMPDEST SWAP2 POP PUSH2 0x3BCA DUP3 PUSH2 0x3B63 JUMP JUMPDEST PUSH1 0x40 DUP3 ADD SWAP1 POP SWAP2 SWAP1 POP JUMP JUMPDEST PUSH1 0x0 PUSH1 0x20 DUP3 ADD SWAP1 POP DUP2 DUP2 SUB PUSH1 0x0 DUP4 ADD MSTORE PUSH2 0x3BEE DUP2 PUSH2 0x3BB2 JUMP JUMPDEST SWAP1 POP SWAP2 SWAP1 POP JUMP JUMPDEST PUSH32 0x506F6F6C436F6E73756D6572206973206E6F7420696E697469616C697A656421 PUSH1 0x0 DUP3 ADD MSTORE POP JUMP JUMPDEST PUSH1 0x0 PUSH2 0x3C2B PUSH1 0x20 DUP4 PUSH2 0x2F9D JUMP JUMPDEST SWAP2 POP PUSH2 0x3C36 DUP3 PUSH2 0x3BF5 JUMP JUMPDEST PUSH1 0x20 DUP3 ADD SWAP1 POP SWAP2 SWAP1 POP JUMP JUMPDEST PUSH1 0x0 PUSH1 0x20 DUP3 ADD SWAP1 POP DUP2 DUP2 SUB PUSH1 0x0 DUP4 ADD MSTORE PUSH2 0x3C5A DUP2 PUSH2 0x3C1E JUMP JUMPDEST SWAP1 POP SWAP2 SWAP1 POP JUMP JUMPDEST PUSH32 0x4E6F2063686172676520616D6F756E7421000000000000000000000000000000 PUSH1 0x0 DUP3 ADD MSTORE POP JUMP JUMPDEST PUSH1 0x0 PUSH2 0x3C97 PUSH1 0x11 DUP4 PUSH2 0x2F9D JUMP JUMPDEST SWAP2 POP PUSH2 0x3CA2 DUP3 PUSH2 0x3C61 JUMP JUMPDEST PUSH1 0x20 DUP3 ADD SWAP1 POP SWAP2 SWAP1 POP JUMP JUMPDEST PUSH1 0x0 PUSH1 0x20 DUP3 ADD SWAP1 POP DUP2 DUP2 SUB PUSH1 0x0 DUP4 ADD MSTORE PUSH2 0x3CC6 DUP2 PUSH2 0x3C8A JUMP JUMPDEST SWAP1 POP SWAP2 SWAP1 POP JUMP JUMPDEST PUSH32 0x436865636B207468652000000000000000000000000000000000000000000000 DUP2 MSTORE POP JUMP JUMPDEST PUSH32 0x20746F6B656E2000000000000000000000000000000000000000000000000000 DUP2 MSTORE POP JUMP JUMPDEST PUSH32 0x616C6C6F77616E63652100000000000000000000000000000000000000000000 DUP2 MSTORE POP JUMP JUMPDEST PUSH1 0x0 PUSH2 0x3D4A DUP3 PUSH2 0x3CCD JUMP JUMPDEST PUSH1 0xA DUP3 ADD SWAP2 POP PUSH2 0x3D5A DUP3 DUP5 PUSH2 0x32F0 JUMP JUMPDEST SWAP2 POP PUSH2 0x3D65 DUP3 PUSH2 0x3CF3 JUMP JUMPDEST PUSH1 0x7 DUP3 ADD SWAP2 POP PUSH2 0x3D74 DUP3 PUSH2 0x3D19 JUMP JUMPDEST PUSH1 0xA DUP3 ADD SWAP2 POP DUP2 SWAP1 POP SWAP3 SWAP2 POP POP JUMP JUMPDEST PUSH32 0x72617465206572726F7221000000000000000000000000000000000000000000 PUSH1 0x0 DUP3 ADD MSTORE POP JUMP JUMPDEST PUSH1 0x0 PUSH2 0x3DB9 PUSH1 0xB DUP4 PUSH2 0x2F9D JUMP JUMPDEST SWAP2 POP PUSH2 0x3DC4 DUP3 PUSH2 0x3D83 JUMP JUMPDEST PUSH1 0x20 DUP3 ADD SWAP1 POP SWAP2 SWAP1 POP JUMP JUMPDEST PUSH1 0x0 PUSH1 0x20 DUP3 ADD SWAP1 POP DUP2 DUP2 SUB PUSH1 0x0 DUP4 ADD MSTORE PUSH2 0x3DE8 DUP2 PUSH2 0x3DAC JUMP JUMPDEST SWAP1 POP SWAP2 SWAP1 POP JUMP JUMPDEST PUSH1 0x0 PUSH1 0x80 DUP3 ADD SWAP1 POP PUSH2 0x3E04 PUSH1 0x0 DUP4 ADD DUP8 PUSH2 0x2E8C JUMP JUMPDEST PUSH2 0x3E11 PUSH1 0x20 DUP4 ADD DUP7 PUSH2 0x2E8C JUMP JUMPDEST PUSH2 0x3E1E PUSH1 0x40 DUP4 ADD DUP6 PUSH2 0x2E8C JUMP JUMPDEST DUP2 DUP2 SUB PUSH1 0x60 DUP4 ADD MSTORE PUSH2 0x3E30 DUP2 DUP5 PUSH2 0x2FE9 JUMP JUMPDEST SWAP1 POP SWAP6 SWAP5 POP POP POP POP POP JUMP JUMPDEST PUSH32 0x4F776E61626C653A206E6577206F776E657220697320746865207A65726F2061 PUSH1 0x0 DUP3 ADD MSTORE PUSH32 0x6464726573730000000000000000000000000000000000000000000000000000 PUSH1 0x20 DUP3 ADD MSTORE POP JUMP JUMPDEST PUSH1 0x0 PUSH2 0x3E97 PUSH1 0x26 DUP4 PUSH2 0x2F9D JUMP JUMPDEST SWAP2 POP PUSH2 0x3EA2 DUP3 PUSH2 0x3E3B JUMP JUMPDEST PUSH1 0x40 DUP3 ADD SWAP1 POP SWAP2 SWAP1 POP JUMP JUMPDEST PUSH1 0x0 PUSH1 0x20 DUP3 ADD SWAP1 POP DUP2 DUP2 SUB PUSH1 0x0 DUP4 ADD MSTORE PUSH2 0x3EC6 DUP2 PUSH2 0x3E8A JUMP JUMPDEST SWAP1 POP SWAP2 SWAP1 POP JUMP JUMPDEST PUSH32 0x4F776E61626C653A2063616C6C6572206973206E6F7420746865206F776E6572 PUSH1 0x0 DUP3 ADD MSTORE POP JUMP JUMPDEST PUSH1 0x0 PUSH2 0x3F03 PUSH1 0x20 DUP4 PUSH2 0x2F9D JUMP JUMPDEST SWAP2 POP PUSH2 0x3F0E DUP3 PUSH2 0x3ECD JUMP JUMPDEST PUSH1 0x20 DUP3 ADD SWAP1 POP SWAP2 SWAP1 POP JUMP JUMPDEST PUSH1 0x0 PUSH1 0x20 DUP3 ADD SWAP1 POP DUP2 DUP2 SUB PUSH1 0x0 DUP4 ADD MSTORE PUSH2 0x3F32 DUP2 PUSH2 0x3EF6 JUMP JUMPDEST SWAP1 POP SWAP2 SWAP1 POP JUMP JUMPDEST PUSH32 0x5061757361626C653A206E6F7420706175736564000000000000000000000000 PUSH1 0x0 DUP3 ADD MSTORE POP JUMP JUMPDEST PUSH1 0x0 PUSH2 0x3F6F PUSH1 0x14 DUP4 PUSH2 0x2F9D JUMP JUMPDEST SWAP2 POP PUSH2 0x3F7A DUP3 PUSH2 0x3F39 JUMP JUMPDEST PUSH1 0x20 DUP3 ADD SWAP1 POP SWAP2 SWAP1 POP JUMP JUMPDEST PUSH1 0x0 PUSH1 0x20 DUP3 ADD SWAP1 POP DUP2 DUP2 SUB PUSH1 0x0 DUP4 ADD MSTORE PUSH2 0x3F9E DUP2 PUSH2 0x3F62 JUMP JUMPDEST SWAP1 POP SWAP2 SWAP1 POP JUMP JUMPDEST PUSH32 0x5061757361626C653A2070617573656400000000000000000000000000000000 PUSH1 0x0 DUP3 ADD MSTORE POP JUMP JUMPDEST PUSH1 0x0 PUSH2 0x3FDB PUSH1 0x10 DUP4 PUSH2 0x2F9D JUMP JUMPDEST SWAP2 POP PUSH2 0x3FE6 DUP3 PUSH2 0x3FA5 JUMP JUMPDEST PUSH1 0x20 DUP3 ADD SWAP1 POP SWAP2 SWAP1 POP JUMP JUMPDEST PUSH1 0x0 PUSH1 0x20 DUP3 ADD SWAP1 POP DUP2 DUP2 SUB PUSH1 0x0 DUP4 ADD MSTORE PUSH2 0x400A DUP2 PUSH2 0x3FCE JUMP JUMPDEST SWAP1 POP SWAP2 SWAP1 POP JUMP JUMPDEST PUSH1 0x0 DUP1 PUSH1 0x0 DUP1 PUSH1 0x80 DUP6 DUP8 SUB SLT ISZERO PUSH2 0x402B JUMPI PUSH2 0x402A PUSH2 0x2D57 JUMP JUMPDEST JUMPDEST PUSH1 0x0 PUSH2 0x4039 DUP8 DUP3 DUP9 ADD PUSH2 0x3846 JUMP JUMPDEST SWAP5 POP POP PUSH1 0x20 PUSH2 0x404A DUP8 DUP3 DUP9 ADD PUSH2 0x3846 JUMP JUMPDEST SWAP4 POP POP PUSH1 0x40 DUP6 ADD MLOAD PUSH8 0xFFFFFFFFFFFFFFFF DUP2 GT ISZERO PUSH2 0x406B JUMPI PUSH2 0x406A PUSH2 0x2D5C JUMP JUMPDEST JUMPDEST PUSH2 0x4077 DUP8 DUP3 DUP9 ADD PUSH2 0x31FC JUMP JUMPDEST SWAP3 POP POP PUSH1 0x60 PUSH2 0x4088 DUP8 DUP3 DUP9 ADD PUSH2 0x3846 JUMP JUMPDEST SWAP2 POP POP SWAP3 SWAP6 SWAP2 SWAP5 POP SWAP3 POP JUMP JUMPDEST PUSH1 0x0 PUSH1 0xA0 DUP3 ADD SWAP1 POP PUSH2 0x40A9 PUSH1 0x0 DUP4 ADD DUP9 PUSH2 0x2E8C JUMP JUMPDEST PUSH2 0x40B6 PUSH1 0x20 DUP4 ADD DUP8 PUSH2 0x2E8C JUMP JUMPDEST DUP2 DUP2 SUB PUSH1 0x40 DUP4 ADD MSTORE PUSH2 0x40C8 DUP2 DUP7 PUSH2 0x2FE9 JUMP JUMPDEST SWAP1 POP PUSH2 0x40D7 PUSH1 0x60 DUP4 ADD DUP6 PUSH2 0x2E8C JUMP JUMPDEST DUP2 DUP2 SUB PUSH1 0x80 DUP4 ADD MSTORE PUSH2 0x40E9 DUP2 DUP5 PUSH2 0x2FE9 JUMP JUMPDEST SWAP1 POP SWAP7 SWAP6 POP POP POP POP POP POP JUMP JUMPDEST PUSH1 0x0 PUSH1 0x60 DUP3 ADD SWAP1 POP PUSH2 0x410A PUSH1 0x0 DUP4 ADD DUP7 PUSH2 0x2E35 JUMP JUMPDEST PUSH2 0x4117 PUSH1 0x20 DUP4 ADD DUP6 PUSH2 0x2E35 JUMP JUMPDEST PUSH2 0x4124 PUSH1 0x40 DUP4 ADD DUP5 PUSH2 0x2E8C JUMP JUMPDEST SWAP5 SWAP4 POP POP POP POP JUMP JUMPDEST PUSH32 0x4E6F20746F6B656E7320746F206265206275726E656421000000000000000000 PUSH1 0x0 DUP3 ADD MSTORE POP JUMP JUMPDEST PUSH1 0x0 PUSH2 0x4162 PUSH1 0x17 DUP4 PUSH2 0x2F9D JUMP JUMPDEST SWAP2 POP PUSH2 0x416D DUP3 PUSH2 0x412C JUMP JUMPDEST PUSH1 0x20 DUP3 ADD SWAP1 POP SWAP2 SWAP1 POP JUMP JUMPDEST PUSH1 0x0 PUSH1 0x20 DUP3 ADD SWAP1 POP DUP2 DUP2 SUB PUSH1 0x0 DUP4 ADD MSTORE PUSH2 0x4191 DUP2 PUSH2 0x4155 JUMP JUMPDEST SWAP1 POP SWAP2 SWAP1 POP JUMP JUMPDEST PUSH32 0x7472616E73616374696F6E207265766572746564206275726E20756E73756363 PUSH1 0x0 DUP3 ADD MSTORE PUSH32 0x657366756C6C2100000000000000000000000000000000000000000000000000 PUSH1 0x20 DUP3 ADD MSTORE POP JUMP JUMPDEST PUSH1 0x0 PUSH2 0x41F4 PUSH1 0x27 DUP4 PUSH2 0x2F9D JUMP JUMPDEST SWAP2 POP PUSH2 0x41FF DUP3 PUSH2 0x4198 JUMP JUMPDEST PUSH1 0x40 DUP3 ADD SWAP1 POP SWAP2 SWAP1 POP JUMP JUMPDEST PUSH1 0x0 PUSH1 0x20 DUP3 ADD SWAP1 POP DUP2 DUP2 SUB PUSH1 0x0 DUP4 ADD MSTORE PUSH2 0x4223 DUP2 PUSH2 0x41E7 JUMP JUMPDEST SWAP1 POP SWAP2 SWAP1 POP JUMP JUMPDEST PUSH32 0x5361666545524332303A204552433230206F7065726174696F6E20646964206E PUSH1 0x0 DUP3 ADD MSTORE PUSH32 0x6F74207375636365656400000000000000000000000000000000000000000000 PUSH1 0x20 DUP3 ADD MSTORE POP JUMP JUMPDEST PUSH1 0x0 PUSH2 0x4286 PUSH1 0x2A DUP4 PUSH2 0x2F9D JUMP JUMPDEST SWAP2 POP PUSH2 0x4291 DUP3 PUSH2 0x422A JUMP JUMPDEST PUSH1 0x40 DUP3 ADD SWAP1 POP SWAP2 SWAP1 POP JUMP JUMPDEST PUSH1 0x0 PUSH1 0x20 DUP3 ADD SWAP1 POP DUP2 DUP2 SUB PUSH1 0x0 DUP4 ADD MSTORE PUSH2 0x42B5 DUP2 PUSH2 0x4279 JUMP JUMPDEST SWAP1 POP SWAP2 SWAP1 POP JUMP JUMPDEST PUSH32 0x416464726573733A20696E73756666696369656E742062616C616E636520666F PUSH1 0x0 DUP3 ADD MSTORE PUSH32 0x722063616C6C0000000000000000000000000000000000000000000000000000 PUSH1 0x20 DUP3 ADD MSTORE POP JUMP JUMPDEST PUSH1 0x0 PUSH2 0x4318 PUSH1 0x26 DUP4 PUSH2 0x2F9D JUMP JUMPDEST SWAP2 POP PUSH2 0x4323 DUP3 PUSH2 0x42BC JUMP JUMPDEST PUSH1 0x40 DUP3 ADD SWAP1 POP SWAP2 SWAP1 POP JUMP JUMPDEST PUSH1 0x0 PUSH1 0x20 DUP3 ADD SWAP1 POP DUP2 DUP2 SUB PUSH1 0x0 DUP4 ADD MSTORE PUSH2 0x4347 DUP2 PUSH2 0x430B JUMP JUMPDEST SWAP1 POP SWAP2 SWAP1 POP JUMP JUMPDEST PUSH32 0x416464726573733A2063616C6C20746F206E6F6E2D636F6E7472616374000000 PUSH1 0x0 DUP3 ADD MSTORE POP JUMP JUMPDEST PUSH1 0x0 PUSH2 0x4384 PUSH1 0x1D DUP4 PUSH2 0x2F9D JUMP JUMPDEST SWAP2 POP PUSH2 0x438F DUP3 PUSH2 0x434E JUMP JUMPDEST PUSH1 0x20 DUP3 ADD SWAP1 POP SWAP2 SWAP1 POP JUMP JUMPDEST PUSH1 0x0 PUSH1 0x20 DUP3 ADD SWAP1 POP DUP2 DUP2 SUB PUSH1 0x0 DUP4 ADD MSTORE PUSH2 0x43B3 DUP2 PUSH2 0x4377 JUMP JUMPDEST SWAP1 POP SWAP2 SWAP1 POP JUMP JUMPDEST PUSH1 0x0 DUP2 MLOAD SWAP1 POP SWAP2 SWAP1 POP JUMP JUMPDEST PUSH1 0x0 DUP2 SWAP1 POP SWAP3 SWAP2 POP POP JUMP JUMPDEST PUSH1 0x0 PUSH2 0x43DB DUP3 PUSH2 0x43BA JUMP JUMPDEST PUSH2 0x43E5 DUP2 DUP6 PUSH2 0x43C5 JUMP JUMPDEST SWAP4 POP PUSH2 0x43F5 DUP2 DUP6 PUSH1 0x20 DUP7 ADD PUSH2 0x2FAE JUMP JUMPDEST DUP1 DUP5 ADD SWAP2 POP POP SWAP3 SWAP2 POP POP JUMP JUMPDEST PUSH1 0x0 PUSH2 0x440D DUP3 DUP5 PUSH2 0x43D0 JUMP JUMPDEST SWAP2 POP DUP2 SWAP1 POP SWAP3 SWAP2 POP POP JUMP INVALID LOG2 PUSH5 0x6970667358 0x22 SLT KECCAK256 0xF8 0x2C PUSH20 0xC1F1204F84AE8DDABE0950497D161E8435AA2560 0xC0 0xC2 0xA7 PUSH2 0x6192 NUMBER PUSH31 0x1364736F6C6343000817003300000000000000000000000000000000000000 "
				},
				"gasEstimates": {
					"creation": {
						"codeDepositCost": "3497200",
						"executionCost": "infinite",
						"totalCost": "infinite"
					},
					"external": {
						"activate()": "infinite",
						"addNewAggregatorPriceFeed(address)": "27139",
						"addNewPoolRateFeed(address)": "27116",
						"balanceOf()": "infinite",
						"balanceOfToken(address)": "infinite",
						"calculateAmount(uint256,uint256,uint256)": "infinite",
						"changeAcceptedSenderAddress(address)": "32520",
						"changeRateFeed()": "35610",
						"chargeContract(uint256)": "infinite",
						"checkAllowance()": "infinite",
						"currentRateFeed()": "infinite",
						"currentRateFeedAddress()": "7098",
						"deactivate()": "32630",
						"getAcceptedSenderAddress()": "4739",
						"getCurrentPointsBalance()": "9148",
						"getDailyWithdraw()": "6934",
						"getInitialActivationAddress()": "infinite",
						"getTokenInfo()": "infinite",
						"getTotalBurnedTokens()": "9084",
						"getTotalPointsGenerated()": "9127",
						"initiateBulkMint()": "infinite",
						"owner()": "2640",
						"paused()": "2524",
						"renounceOwnership()": "30637",
						"resume()": "infinite",
						"stop()": "infinite",
						"transferOfToken(address,address,uint256)": "infinite",
						"transferOwnership(address)": "30982",
						"withdraw(uint256,address)": "infinite"
					},
					"internal": {
						"burnIncomingTokens(uint256)": "infinite",
						"calculatePoints(uint256,uint256,uint256)": "infinite",
						"getRate()": "infinite"
					}
				},
				"methodIdentifiers": {
					"activate()": "0f15f4c0",
					"addNewAggregatorPriceFeed(address)": "0a6cb062",
					"addNewPoolRateFeed(address)": "b0b5e39e",
					"balanceOf()": "722713f7",
					"balanceOfToken(address)": "b99152d0",
					"calculateAmount(uint256,uint256,uint256)": "7754723e",
					"changeAcceptedSenderAddress(address)": "0ba2f1d8",
					"changeRateFeed()": "e8088766",
					"chargeContract(uint256)": "ed969c84",
					"checkAllowance()": "9405de64",
					"currentRateFeed()": "e6367ebe",
					"currentRateFeedAddress()": "9934415e",
					"deactivate()": "51b42b00",
					"getAcceptedSenderAddress()": "08fadcb0",
					"getCurrentPointsBalance()": "f9850907",
					"getDailyWithdraw()": "a24723e8",
					"getInitialActivationAddress()": "ba007e75",
					"getTokenInfo()": "abb1dc44",
					"getTotalBurnedTokens()": "2af0e251",
					"getTotalPointsGenerated()": "a684ab5c",
					"initiateBulkMint()": "390885f7",
					"owner()": "8da5cb5b",
					"paused()": "5c975abb",
					"renounceOwnership()": "715018a6",
					"resume()": "046f7da2",
					"stop()": "07da68f5",
					"transferOfToken(address,address,uint256)": "6a9d43dd",
					"transferOwnership(address)": "f2fde38b",
					"withdraw(uint256,address)": "00f714ce"
				}
			},
			"storageLayout": {
				"storage": [
					{
						"astId": 148,
						"contract": "token_eco_system_dev_contracts/contracts_ready_for_prod/TokenEcoSystemParticipationV1_0_flattened.sol:TokenEcoSystemParticipation",
						"label": "_paused",
						"offset": 0,
						"slot": "0",
						"type": "t_bool"
					},
					{
						"astId": 27,
						"contract": "token_eco_system_dev_contracts/contracts_ready_for_prod/TokenEcoSystemParticipationV1_0_flattened.sol:TokenEcoSystemParticipation",
						"label": "_owner",
						"offset": 1,
						"slot": "0",
						"type": "t_address"
					},
					{
						"astId": 994,
						"contract": "token_eco_system_dev_contracts/contracts_ready_for_prod/TokenEcoSystemParticipationV1_0_flattened.sol:TokenEcoSystemParticipation",
						"label": "acceptedSenderAddress",
						"offset": 0,
						"slot": "1",
						"type": "t_address"
					},
					{
						"astId": 997,
						"contract": "token_eco_system_dev_contracts/contracts_ready_for_prod/TokenEcoSystemParticipationV1_0_flattened.sol:TokenEcoSystemParticipation",
						"label": "poolRateFeed",
						"offset": 20,
						"slot": "1",
						"type": "t_bool"
					},
					{
						"astId": 1000,
						"contract": "token_eco_system_dev_contracts/contracts_ready_for_prod/TokenEcoSystemParticipationV1_0_flattened.sol:TokenEcoSystemParticipation",
						"label": "totalBurned",
						"offset": 0,
						"slot": "2",
						"type": "t_uint256"
					},
					{
						"astId": 1003,
						"contract": "token_eco_system_dev_contracts/contracts_ready_for_prod/TokenEcoSystemParticipationV1_0_flattened.sol:TokenEcoSystemParticipation",
						"label": "totalConverted",
						"offset": 0,
						"slot": "3",
						"type": "t_uint256"
					},
					{
						"astId": 1006,
						"contract": "token_eco_system_dev_contracts/contracts_ready_for_prod/TokenEcoSystemParticipationV1_0_flattened.sol:TokenEcoSystemParticipation",
						"label": "availableToWithdraw",
						"offset": 0,
						"slot": "4",
						"type": "t_uint256"
					},
					{
						"astId": 1009,
						"contract": "token_eco_system_dev_contracts/contracts_ready_for_prod/TokenEcoSystemParticipationV1_0_flattened.sol:TokenEcoSystemParticipation",
						"label": "dailyWithdraw",
						"offset": 0,
						"slot": "5",
						"type": "t_uint256"
					},
					{
						"astId": 1012,
						"contract": "token_eco_system_dev_contracts/contracts_ready_for_prod/TokenEcoSystemParticipationV1_0_flattened.sol:TokenEcoSystemParticipation",
						"label": "aggregatorConsumer",
						"offset": 0,
						"slot": "6",
						"type": "t_contract(AggregatorConsumerInterface)957"
					},
					{
						"astId": 1015,
						"contract": "token_eco_system_dev_contracts/contracts_ready_for_prod/TokenEcoSystemParticipationV1_0_flattened.sol:TokenEcoSystemParticipation",
						"label": "poolConsumer",
						"offset": 0,
						"slot": "7",
						"type": "t_contract(PoolConsumerInterface)969"
					}
				],
				"types": {
					"t_address": {
						"encoding": "inplace",
						"label": "address",
						"numberOfBytes": "20"
					},
					"t_bool": {
						"encoding": "inplace",
						"label": "bool",
						"numberOfBytes": "1"
					},
					"t_contract(AggregatorConsumerInterface)957": {
						"encoding": "inplace",
						"label": "contract AggregatorConsumerInterface",
						"numberOfBytes": "20"
					},
					"t_contract(PoolConsumerInterface)969": {
						"encoding": "inplace",
						"label": "contract PoolConsumerInterface",
						"numberOfBytes": "20"
					},
					"t_uint256": {
						"encoding": "inplace",
						"label": "uint256",
						"numberOfBytes": "32"
					}
				}
			},
			"userdoc": {
				"kind": "user",
				"methods": {},
				"version": 1
			}
		}
	}
}