{
	"token_eco_system_dev_contracts/contracts_ready_for_prod/AggregatorRate_flattened.sol": {
		"AggregatorRate": {
			"abi": [
				{
					"inputs": [
						{
							"internalType": "string",
							"name": "assetOne",
							"type": "string"
						},
						{
							"internalType": "string",
							"name": "assetTwo",
							"type": "string"
						},
						{
							"internalType": "address",
							"name": "aggregatorAddress",
							"type": "address"
						},
						{
							"internalType": "address",
							"name": "_owner",
							"type": "address"
						},
						{
							"internalType": "address",
							"name": "_admin",
							"type": "address"
						}
					],
					"stateMutability": "nonpayable",
					"type": "constructor"
				},
				{
					"inputs": [],
					"name": "activate",
					"outputs": [],
					"stateMutability": "nonpayable",
					"type": "function"
				},
				{
					"inputs": [],
					"name": "admin",
					"outputs": [
						{
							"internalType": "address",
							"name": "",
							"type": "address"
						}
					],
					"stateMutability": "view",
					"type": "function"
				},
				{
					"inputs": [
						{
							"internalType": "string",
							"name": "assetOne",
							"type": "string"
						},
						{
							"internalType": "string",
							"name": "assetTwo",
							"type": "string"
						},
						{
							"internalType": "address",
							"name": "aggregatorAddress",
							"type": "address"
						}
					],
					"name": "changeAggregatorAddress",
					"outputs": [],
					"stateMutability": "nonpayable",
					"type": "function"
				},
				{
					"inputs": [],
					"name": "deactivate",
					"outputs": [],
					"stateMutability": "nonpayable",
					"type": "function"
				},
				{
					"inputs": [],
					"name": "getLatestRate",
					"outputs": [
						{
							"internalType": "int256",
							"name": "",
							"type": "int256"
						},
						{
							"internalType": "uint256",
							"name": "",
							"type": "uint256"
						},
						{
							"internalType": "string",
							"name": "",
							"type": "string"
						},
						{
							"internalType": "uint256",
							"name": "",
							"type": "uint256"
						}
					],
					"stateMutability": "view",
					"type": "function"
				},
				{
					"inputs": [],
					"name": "owner",
					"outputs": [
						{
							"internalType": "address",
							"name": "",
							"type": "address"
						}
					],
					"stateMutability": "view",
					"type": "function"
				}
			],
			"devdoc": {
				"kind": "dev",
				"methods": {},
				"version": 1
			},
			"evm": {
				"assembly": "    /* \"token_eco_system_dev_contracts/contracts_ready_for_prod/AggregatorRate_flattened.sol\":891:2684  contract AggregatorRate{... */\n  mstore(0x40, 0xc0)\n    /* \"token_eco_system_dev_contracts/contracts_ready_for_prod/AggregatorRate_flattened.sol\":1088:1092  true */\n  0x01\n    /* \"token_eco_system_dev_contracts/contracts_ready_for_prod/AggregatorRate_flattened.sol\":1066:1092  bool private active = true */\n  0x02\n  exp(0x0100, 0x00)\n  dup2\n  sload\n  dup2\n  0xff\n  mul\n  not\n  and\n  swap1\n  dup4\n  iszero\n  iszero\n  mul\n  or\n  swap1\n  sstore\n  pop\n    /* \"token_eco_system_dev_contracts/contracts_ready_for_prod/AggregatorRate_flattened.sol\":1307:1753  constructor(string memory assetOne, string memory assetTwo, address aggregatorAddress, address _owner, address _admin) {... */\n  callvalue\n  dup1\n  iszero\n  tag_1\n  jumpi\n  0x00\n  dup1\n  revert\ntag_1:\n  pop\n  mload(0x40)\n  sub(codesize, bytecodeSize)\n  dup1\n  bytecodeSize\n  dup4\n  codecopy\n  dup2\n  dup2\n  add\n  0x40\n  mstore\n  dup2\n  add\n  swap1\n  tag_2\n  swap2\n  swap1\n  tag_3\n  jump\t// in\ntag_2:\n    /* \"token_eco_system_dev_contracts/contracts_ready_for_prod/AggregatorRate_flattened.sol\":1473:1474  0 */\n  0x00\n    /* \"token_eco_system_dev_contracts/contracts_ready_for_prod/AggregatorRate_flattened.sol\":1444:1475  aggregatorAddress != address(0) */\n  0xffffffffffffffffffffffffffffffffffffffff\n  and\n    /* \"token_eco_system_dev_contracts/contracts_ready_for_prod/AggregatorRate_flattened.sol\":1444:1461  aggregatorAddress */\n  dup4\n    /* \"token_eco_system_dev_contracts/contracts_ready_for_prod/AggregatorRate_flattened.sol\":1444:1475  aggregatorAddress != address(0) */\n  0xffffffffffffffffffffffffffffffffffffffff\n  and\n  sub\n    /* \"token_eco_system_dev_contracts/contracts_ready_for_prod/AggregatorRate_flattened.sol\":1436:1476  require(aggregatorAddress != address(0)) */\n  tag_6\n  jumpi\n  0x00\n  dup1\n  revert\ntag_6:\n    /* \"token_eco_system_dev_contracts/contracts_ready_for_prod/AggregatorRate_flattened.sol\":1512:1513  0 */\n  0x00\n    /* \"token_eco_system_dev_contracts/contracts_ready_for_prod/AggregatorRate_flattened.sol\":1494:1514  _owner != address(0) */\n  0xffffffffffffffffffffffffffffffffffffffff\n  and\n    /* \"token_eco_system_dev_contracts/contracts_ready_for_prod/AggregatorRate_flattened.sol\":1494:1500  _owner */\n  dup3\n    /* \"token_eco_system_dev_contracts/contracts_ready_for_prod/AggregatorRate_flattened.sol\":1494:1514  _owner != address(0) */\n  0xffffffffffffffffffffffffffffffffffffffff\n  and\n  sub\n    /* \"token_eco_system_dev_contracts/contracts_ready_for_prod/AggregatorRate_flattened.sol\":1486:1515  require(_owner != address(0)) */\n  tag_7\n  jumpi\n  0x00\n  dup1\n  revert\ntag_7:\n    /* \"token_eco_system_dev_contracts/contracts_ready_for_prod/AggregatorRate_flattened.sol\":1551:1552  0 */\n  0x00\n    /* \"token_eco_system_dev_contracts/contracts_ready_for_prod/AggregatorRate_flattened.sol\":1533:1553  _admin != address(0) */\n  0xffffffffffffffffffffffffffffffffffffffff\n  and\n    /* \"token_eco_system_dev_contracts/contracts_ready_for_prod/AggregatorRate_flattened.sol\":1533:1539  _admin */\n  dup2\n    /* \"token_eco_system_dev_contracts/contracts_ready_for_prod/AggregatorRate_flattened.sol\":1533:1553  _admin != address(0) */\n  0xffffffffffffffffffffffffffffffffffffffff\n  and\n  sub\n    /* \"token_eco_system_dev_contracts/contracts_ready_for_prod/AggregatorRate_flattened.sol\":1525:1554  require(_admin != address(0)) */\n  tag_8\n  jumpi\n  0x00\n  dup1\n  revert\ntag_8:\n    /* \"token_eco_system_dev_contracts/contracts_ready_for_prod/AggregatorRate_flattened.sol\":1611:1628  aggregatorAddress */\n  dup3\n    /* \"token_eco_system_dev_contracts/contracts_ready_for_prod/AggregatorRate_flattened.sol\":1564:1573  priceFeed */\n  0x00\n  dup1\n    /* \"token_eco_system_dev_contracts/contracts_ready_for_prod/AggregatorRate_flattened.sol\":1564:1638  priceFeed = AggregatorV3Interface(... */\n  0x0100\n  exp\n  dup2\n  sload\n  dup2\n  0xffffffffffffffffffffffffffffffffffffffff\n  mul\n  not\n  and\n  swap1\n  dup4\n  0xffffffffffffffffffffffffffffffffffffffff\n  and\n  mul\n  or\n  swap1\n  sstore\n  pop\n    /* \"token_eco_system_dev_contracts/contracts_ready_for_prod/AggregatorRate_flattened.sol\":1675:1683  assetOne */\n  dup5\n    /* \"token_eco_system_dev_contracts/contracts_ready_for_prod/AggregatorRate_flattened.sol\":1688:1696  assetTwo */\n  dup5\n    /* \"token_eco_system_dev_contracts/contracts_ready_for_prod/AggregatorRate_flattened.sol\":1661:1697  string.concat(assetOne,\"/\",assetTwo) */\n  add(0x20, mload(0x40))\n  tag_9\n  swap3\n  swap2\n  swap1\n  tag_10\n  jump\t// in\ntag_9:\n  mload(0x40)\n  0x20\n  dup2\n  dup4\n  sub\n  sub\n  dup2\n  mstore\n  swap1\n  0x40\n  mstore\n    /* \"token_eco_system_dev_contracts/contracts_ready_for_prod/AggregatorRate_flattened.sol\":1648:1658  rateString */\n  0x01\n    /* \"token_eco_system_dev_contracts/contracts_ready_for_prod/AggregatorRate_flattened.sol\":1648:1697  rateString = string.concat(assetOne,\"/\",assetTwo) */\n  swap1\n  dup2\n  tag_11\n  swap2\n  swap1\n  tag_12\n  jump\t// in\ntag_11:\n  pop\n    /* \"token_eco_system_dev_contracts/contracts_ready_for_prod/AggregatorRate_flattened.sol\":1716:1722  _owner */\n  dup2\n    /* \"token_eco_system_dev_contracts/contracts_ready_for_prod/AggregatorRate_flattened.sol\":1708:1722  owner = _owner */\n  0xffffffffffffffffffffffffffffffffffffffff\n  and\n  0x80\n  dup2\n  0xffffffffffffffffffffffffffffffffffffffff\n  and\n  dup2\n  mstore\n  pop\n  pop\n    /* \"token_eco_system_dev_contracts/contracts_ready_for_prod/AggregatorRate_flattened.sol\":1740:1746  _admin */\n  dup1\n    /* \"token_eco_system_dev_contracts/contracts_ready_for_prod/AggregatorRate_flattened.sol\":1732:1746  admin = _admin */\n  0xffffffffffffffffffffffffffffffffffffffff\n  and\n  0xa0\n  dup2\n  0xffffffffffffffffffffffffffffffffffffffff\n  and\n  dup2\n  mstore\n  pop\n  pop\n    /* \"token_eco_system_dev_contracts/contracts_ready_for_prod/AggregatorRate_flattened.sol\":1307:1753  constructor(string memory assetOne, string memory assetTwo, address aggregatorAddress, address _owner, address _admin) {... */\n  pop\n  pop\n  pop\n  pop\n  pop\n    /* \"token_eco_system_dev_contracts/contracts_ready_for_prod/AggregatorRate_flattened.sol\":891:2684  contract AggregatorRate{... */\n  jump(tag_13)\n    /* \"#utility.yul\":7:82   */\ntag_14:\n    /* \"#utility.yul\":40:46   */\n  0x00\n    /* \"#utility.yul\":73:75   */\n  0x40\n    /* \"#utility.yul\":67:76   */\n  mload\n    /* \"#utility.yul\":57:76   */\n  swap1\n  pop\n    /* \"#utility.yul\":7:82   */\n  swap1\n  jump\t// out\n    /* \"#utility.yul\":88:205   */\ntag_15:\n    /* \"#utility.yul\":197:198   */\n  0x00\n    /* \"#utility.yul\":194:195   */\n  dup1\n    /* \"#utility.yul\":187:199   */\n  revert\n    /* \"#utility.yul\":211:328   */\ntag_16:\n    /* \"#utility.yul\":320:321   */\n  0x00\n    /* \"#utility.yul\":317:318   */\n  dup1\n    /* \"#utility.yul\":310:322   */\n  revert\n    /* \"#utility.yul\":334:451   */\ntag_17:\n    /* \"#utility.yul\":443:444   */\n  0x00\n    /* \"#utility.yul\":440:441   */\n  dup1\n    /* \"#utility.yul\":433:445   */\n  revert\n    /* \"#utility.yul\":457:574   */\ntag_18:\n    /* \"#utility.yul\":566:567   */\n  0x00\n    /* \"#utility.yul\":563:564   */\n  dup1\n    /* \"#utility.yul\":556:568   */\n  revert\n    /* \"#utility.yul\":580:682   */\ntag_19:\n    /* \"#utility.yul\":621:627   */\n  0x00\n    /* \"#utility.yul\":672:674   */\n  0x1f\n    /* \"#utility.yul\":668:675   */\n  not\n    /* \"#utility.yul\":663:665   */\n  0x1f\n    /* \"#utility.yul\":656:661   */\n  dup4\n    /* \"#utility.yul\":652:666   */\n  add\n    /* \"#utility.yul\":648:676   */\n  and\n    /* \"#utility.yul\":638:676   */\n  swap1\n  pop\n    /* \"#utility.yul\":580:682   */\n  swap2\n  swap1\n  pop\n  jump\t// out\n    /* \"#utility.yul\":688:868   */\ntag_20:\n    /* \"#utility.yul\":736:813   */\n  0x4e487b7100000000000000000000000000000000000000000000000000000000\n    /* \"#utility.yul\":733:734   */\n  0x00\n    /* \"#utility.yul\":726:814   */\n  mstore\n    /* \"#utility.yul\":833:837   */\n  0x41\n    /* \"#utility.yul\":830:831   */\n  0x04\n    /* \"#utility.yul\":823:838   */\n  mstore\n    /* \"#utility.yul\":857:861   */\n  0x24\n    /* \"#utility.yul\":854:855   */\n  0x00\n    /* \"#utility.yul\":847:862   */\n  revert\n    /* \"#utility.yul\":874:1155   */\ntag_21:\n    /* \"#utility.yul\":957:984   */\n  tag_62\n    /* \"#utility.yul\":979:983   */\n  dup3\n    /* \"#utility.yul\":957:984   */\n  tag_19\n  jump\t// in\ntag_62:\n    /* \"#utility.yul\":949:955   */\n  dup2\n    /* \"#utility.yul\":945:985   */\n  add\n    /* \"#utility.yul\":1087:1093   */\n  dup2\n    /* \"#utility.yul\":1075:1085   */\n  dup2\n    /* \"#utility.yul\":1072:1094   */\n  lt\n    /* \"#utility.yul\":1051:1069   */\n  0xffffffffffffffff\n    /* \"#utility.yul\":1039:1049   */\n  dup3\n    /* \"#utility.yul\":1036:1070   */\n  gt\n    /* \"#utility.yul\":1033:1095   */\n  or\n    /* \"#utility.yul\":1030:1118   */\n  iszero\n  tag_63\n  jumpi\n    /* \"#utility.yul\":1098:1116   */\n  tag_64\n  tag_20\n  jump\t// in\ntag_64:\n    /* \"#utility.yul\":1030:1118   */\ntag_63:\n    /* \"#utility.yul\":1138:1148   */\n  dup1\n    /* \"#utility.yul\":1134:1136   */\n  0x40\n    /* \"#utility.yul\":1127:1149   */\n  mstore\n    /* \"#utility.yul\":917:1155   */\n  pop\n    /* \"#utility.yul\":874:1155   */\n  pop\n  pop\n  jump\t// out\n    /* \"#utility.yul\":1161:1290   */\ntag_22:\n    /* \"#utility.yul\":1195:1201   */\n  0x00\n    /* \"#utility.yul\":1222:1242   */\n  tag_66\n  tag_14\n  jump\t// in\ntag_66:\n    /* \"#utility.yul\":1212:1242   */\n  swap1\n  pop\n    /* \"#utility.yul\":1251:1284   */\n  tag_67\n    /* \"#utility.yul\":1279:1283   */\n  dup3\n    /* \"#utility.yul\":1271:1277   */\n  dup3\n    /* \"#utility.yul\":1251:1284   */\n  tag_21\n  jump\t// in\ntag_67:\n    /* \"#utility.yul\":1161:1290   */\n  swap2\n  swap1\n  pop\n  jump\t// out\n    /* \"#utility.yul\":1296:1604   */\ntag_23:\n    /* \"#utility.yul\":1358:1362   */\n  0x00\n    /* \"#utility.yul\":1448:1466   */\n  0xffffffffffffffff\n    /* \"#utility.yul\":1440:1446   */\n  dup3\n    /* \"#utility.yul\":1437:1467   */\n  gt\n    /* \"#utility.yul\":1434:1490   */\n  iszero\n  tag_69\n  jumpi\n    /* \"#utility.yul\":1470:1488   */\n  tag_70\n  tag_20\n  jump\t// in\ntag_70:\n    /* \"#utility.yul\":1434:1490   */\ntag_69:\n    /* \"#utility.yul\":1508:1537   */\n  tag_71\n    /* \"#utility.yul\":1530:1536   */\n  dup3\n    /* \"#utility.yul\":1508:1537   */\n  tag_19\n  jump\t// in\ntag_71:\n    /* \"#utility.yul\":1500:1537   */\n  swap1\n  pop\n    /* \"#utility.yul\":1592:1596   */\n  0x20\n    /* \"#utility.yul\":1586:1590   */\n  dup2\n    /* \"#utility.yul\":1582:1597   */\n  add\n    /* \"#utility.yul\":1574:1597   */\n  swap1\n  pop\n    /* \"#utility.yul\":1296:1604   */\n  swap2\n  swap1\n  pop\n  jump\t// out\n    /* \"#utility.yul\":1610:1856   */\ntag_24:\n    /* \"#utility.yul\":1691:1692   */\n  0x00\n    /* \"#utility.yul\":1701:1814   */\ntag_73:\n    /* \"#utility.yul\":1715:1721   */\n  dup4\n    /* \"#utility.yul\":1712:1713   */\n  dup2\n    /* \"#utility.yul\":1709:1722   */\n  lt\n    /* \"#utility.yul\":1701:1814   */\n  iszero\n  tag_75\n  jumpi\n    /* \"#utility.yul\":1800:1801   */\n  dup1\n    /* \"#utility.yul\":1795:1798   */\n  dup3\n    /* \"#utility.yul\":1791:1802   */\n  add\n    /* \"#utility.yul\":1785:1803   */\n  mload\n    /* \"#utility.yul\":1781:1782   */\n  dup2\n    /* \"#utility.yul\":1776:1779   */\n  dup5\n    /* \"#utility.yul\":1772:1783   */\n  add\n    /* \"#utility.yul\":1765:1804   */\n  mstore\n    /* \"#utility.yul\":1737:1739   */\n  0x20\n    /* \"#utility.yul\":1734:1735   */\n  dup2\n    /* \"#utility.yul\":1730:1740   */\n  add\n    /* \"#utility.yul\":1725:1740   */\n  swap1\n  pop\n    /* \"#utility.yul\":1701:1814   */\n  jump(tag_73)\ntag_75:\n    /* \"#utility.yul\":1848:1849   */\n  0x00\n    /* \"#utility.yul\":1839:1845   */\n  dup5\n    /* \"#utility.yul\":1834:1837   */\n  dup5\n    /* \"#utility.yul\":1830:1846   */\n  add\n    /* \"#utility.yul\":1823:1850   */\n  mstore\n    /* \"#utility.yul\":1672:1856   */\n  pop\n    /* \"#utility.yul\":1610:1856   */\n  pop\n  pop\n  pop\n  jump\t// out\n    /* \"#utility.yul\":1862:2296   */\ntag_25:\n    /* \"#utility.yul\":1951:1956   */\n  0x00\n    /* \"#utility.yul\":1976:2042   */\n  tag_77\n    /* \"#utility.yul\":1992:2041   */\n  tag_78\n    /* \"#utility.yul\":2034:2040   */\n  dup5\n    /* \"#utility.yul\":1992:2041   */\n  tag_23\n  jump\t// in\ntag_78:\n    /* \"#utility.yul\":1976:2042   */\n  tag_22\n  jump\t// in\ntag_77:\n    /* \"#utility.yul\":1967:2042   */\n  swap1\n  pop\n    /* \"#utility.yul\":2065:2071   */\n  dup3\n    /* \"#utility.yul\":2058:2063   */\n  dup2\n    /* \"#utility.yul\":2051:2072   */\n  mstore\n    /* \"#utility.yul\":2103:2107   */\n  0x20\n    /* \"#utility.yul\":2096:2101   */\n  dup2\n    /* \"#utility.yul\":2092:2108   */\n  add\n    /* \"#utility.yul\":2141:2144   */\n  dup5\n    /* \"#utility.yul\":2132:2138   */\n  dup5\n    /* \"#utility.yul\":2127:2130   */\n  dup5\n    /* \"#utility.yul\":2123:2139   */\n  add\n    /* \"#utility.yul\":2120:2145   */\n  gt\n    /* \"#utility.yul\":2117:2229   */\n  iszero\n  tag_79\n  jumpi\n    /* \"#utility.yul\":2148:2227   */\n  tag_80\n  tag_18\n  jump\t// in\ntag_80:\n    /* \"#utility.yul\":2117:2229   */\ntag_79:\n    /* \"#utility.yul\":2238:2290   */\n  tag_81\n    /* \"#utility.yul\":2283:2289   */\n  dup5\n    /* \"#utility.yul\":2278:2281   */\n  dup3\n    /* \"#utility.yul\":2273:2276   */\n  dup6\n    /* \"#utility.yul\":2238:2290   */\n  tag_24\n  jump\t// in\ntag_81:\n    /* \"#utility.yul\":1957:2296   */\n  pop\n    /* \"#utility.yul\":1862:2296   */\n  swap4\n  swap3\n  pop\n  pop\n  pop\n  jump\t// out\n    /* \"#utility.yul\":2316:2671   */\ntag_26:\n    /* \"#utility.yul\":2383:2388   */\n  0x00\n    /* \"#utility.yul\":2432:2435   */\n  dup3\n    /* \"#utility.yul\":2425:2429   */\n  0x1f\n    /* \"#utility.yul\":2417:2423   */\n  dup4\n    /* \"#utility.yul\":2413:2430   */\n  add\n    /* \"#utility.yul\":2409:2436   */\n  slt\n    /* \"#utility.yul\":2399:2521   */\n  tag_83\n  jumpi\n    /* \"#utility.yul\":2440:2519   */\n  tag_84\n  tag_17\n  jump\t// in\ntag_84:\n    /* \"#utility.yul\":2399:2521   */\ntag_83:\n    /* \"#utility.yul\":2550:2556   */\n  dup2\n    /* \"#utility.yul\":2544:2557   */\n  mload\n    /* \"#utility.yul\":2575:2665   */\n  tag_85\n    /* \"#utility.yul\":2661:2664   */\n  dup5\n    /* \"#utility.yul\":2653:2659   */\n  dup3\n    /* \"#utility.yul\":2646:2650   */\n  0x20\n    /* \"#utility.yul\":2638:2644   */\n  dup7\n    /* \"#utility.yul\":2634:2651   */\n  add\n    /* \"#utility.yul\":2575:2665   */\n  tag_25\n  jump\t// in\ntag_85:\n    /* \"#utility.yul\":2566:2665   */\n  swap2\n  pop\n    /* \"#utility.yul\":2389:2671   */\n  pop\n    /* \"#utility.yul\":2316:2671   */\n  swap3\n  swap2\n  pop\n  pop\n  jump\t// out\n    /* \"#utility.yul\":2677:2803   */\ntag_27:\n    /* \"#utility.yul\":2714:2721   */\n  0x00\n    /* \"#utility.yul\":2754:2796   */\n  0xffffffffffffffffffffffffffffffffffffffff\n    /* \"#utility.yul\":2747:2752   */\n  dup3\n    /* \"#utility.yul\":2743:2797   */\n  and\n    /* \"#utility.yul\":2732:2797   */\n  swap1\n  pop\n    /* \"#utility.yul\":2677:2803   */\n  swap2\n  swap1\n  pop\n  jump\t// out\n    /* \"#utility.yul\":2809:2905   */\ntag_28:\n    /* \"#utility.yul\":2846:2853   */\n  0x00\n    /* \"#utility.yul\":2875:2899   */\n  tag_88\n    /* \"#utility.yul\":2893:2898   */\n  dup3\n    /* \"#utility.yul\":2875:2899   */\n  tag_27\n  jump\t// in\ntag_88:\n    /* \"#utility.yul\":2864:2899   */\n  swap1\n  pop\n    /* \"#utility.yul\":2809:2905   */\n  swap2\n  swap1\n  pop\n  jump\t// out\n    /* \"#utility.yul\":2911:3033   */\ntag_29:\n    /* \"#utility.yul\":2984:3008   */\n  tag_90\n    /* \"#utility.yul\":3002:3007   */\n  dup2\n    /* \"#utility.yul\":2984:3008   */\n  tag_28\n  jump\t// in\ntag_90:\n    /* \"#utility.yul\":2977:2982   */\n  dup2\n    /* \"#utility.yul\":2974:3009   */\n  eq\n    /* \"#utility.yul\":2964:3027   */\n  tag_91\n  jumpi\n    /* \"#utility.yul\":3023:3024   */\n  0x00\n    /* \"#utility.yul\":3020:3021   */\n  dup1\n    /* \"#utility.yul\":3013:3025   */\n  revert\n    /* \"#utility.yul\":2964:3027   */\ntag_91:\n    /* \"#utility.yul\":2911:3033   */\n  pop\n  jump\t// out\n    /* \"#utility.yul\":3039:3182   */\ntag_30:\n    /* \"#utility.yul\":3096:3101   */\n  0x00\n    /* \"#utility.yul\":3127:3133   */\n  dup2\n    /* \"#utility.yul\":3121:3134   */\n  mload\n    /* \"#utility.yul\":3112:3134   */\n  swap1\n  pop\n    /* \"#utility.yul\":3143:3176   */\n  tag_93\n    /* \"#utility.yul\":3170:3175   */\n  dup2\n    /* \"#utility.yul\":3143:3176   */\n  tag_29\n  jump\t// in\ntag_93:\n    /* \"#utility.yul\":3039:3182   */\n  swap3\n  swap2\n  pop\n  pop\n  jump\t// out\n    /* \"#utility.yul\":3188:4511   */\ntag_3:\n    /* \"#utility.yul\":3314:3320   */\n  0x00\n    /* \"#utility.yul\":3322:3328   */\n  dup1\n    /* \"#utility.yul\":3330:3336   */\n  0x00\n    /* \"#utility.yul\":3338:3344   */\n  dup1\n    /* \"#utility.yul\":3346:3352   */\n  0x00\n    /* \"#utility.yul\":3395:3398   */\n  0xa0\n    /* \"#utility.yul\":3383:3392   */\n  dup7\n    /* \"#utility.yul\":3374:3381   */\n  dup9\n    /* \"#utility.yul\":3370:3393   */\n  sub\n    /* \"#utility.yul\":3366:3399   */\n  slt\n    /* \"#utility.yul\":3363:3483   */\n  iszero\n  tag_95\n  jumpi\n    /* \"#utility.yul\":3402:3481   */\n  tag_96\n  tag_15\n  jump\t// in\ntag_96:\n    /* \"#utility.yul\":3363:3483   */\ntag_95:\n    /* \"#utility.yul\":3543:3544   */\n  0x00\n    /* \"#utility.yul\":3532:3541   */\n  dup7\n    /* \"#utility.yul\":3528:3545   */\n  add\n    /* \"#utility.yul\":3522:3546   */\n  mload\n    /* \"#utility.yul\":3573:3591   */\n  0xffffffffffffffff\n    /* \"#utility.yul\":3565:3571   */\n  dup2\n    /* \"#utility.yul\":3562:3592   */\n  gt\n    /* \"#utility.yul\":3559:3676   */\n  iszero\n  tag_97\n  jumpi\n    /* \"#utility.yul\":3595:3674   */\n  tag_98\n  tag_16\n  jump\t// in\ntag_98:\n    /* \"#utility.yul\":3559:3676   */\ntag_97:\n    /* \"#utility.yul\":3700:3774   */\n  tag_99\n    /* \"#utility.yul\":3766:3773   */\n  dup9\n    /* \"#utility.yul\":3757:3763   */\n  dup3\n    /* \"#utility.yul\":3746:3755   */\n  dup10\n    /* \"#utility.yul\":3742:3764   */\n  add\n    /* \"#utility.yul\":3700:3774   */\n  tag_26\n  jump\t// in\ntag_99:\n    /* \"#utility.yul\":3690:3774   */\n  swap6\n  pop\n    /* \"#utility.yul\":3493:3784   */\n  pop\n    /* \"#utility.yul\":3844:3846   */\n  0x20\n    /* \"#utility.yul\":3833:3842   */\n  dup7\n    /* \"#utility.yul\":3829:3847   */\n  add\n    /* \"#utility.yul\":3823:3848   */\n  mload\n    /* \"#utility.yul\":3875:3893   */\n  0xffffffffffffffff\n    /* \"#utility.yul\":3867:3873   */\n  dup2\n    /* \"#utility.yul\":3864:3894   */\n  gt\n    /* \"#utility.yul\":3861:3978   */\n  iszero\n  tag_100\n  jumpi\n    /* \"#utility.yul\":3897:3976   */\n  tag_101\n  tag_16\n  jump\t// in\ntag_101:\n    /* \"#utility.yul\":3861:3978   */\ntag_100:\n    /* \"#utility.yul\":4002:4076   */\n  tag_102\n    /* \"#utility.yul\":4068:4075   */\n  dup9\n    /* \"#utility.yul\":4059:4065   */\n  dup3\n    /* \"#utility.yul\":4048:4057   */\n  dup10\n    /* \"#utility.yul\":4044:4066   */\n  add\n    /* \"#utility.yul\":4002:4076   */\n  tag_26\n  jump\t// in\ntag_102:\n    /* \"#utility.yul\":3992:4076   */\n  swap5\n  pop\n    /* \"#utility.yul\":3794:4086   */\n  pop\n    /* \"#utility.yul\":4125:4127   */\n  0x40\n    /* \"#utility.yul\":4151:4215   */\n  tag_103\n    /* \"#utility.yul\":4207:4214   */\n  dup9\n    /* \"#utility.yul\":4198:4204   */\n  dup3\n    /* \"#utility.yul\":4187:4196   */\n  dup10\n    /* \"#utility.yul\":4183:4205   */\n  add\n    /* \"#utility.yul\":4151:4215   */\n  tag_30\n  jump\t// in\ntag_103:\n    /* \"#utility.yul\":4141:4215   */\n  swap4\n  pop\n    /* \"#utility.yul\":4096:4225   */\n  pop\n    /* \"#utility.yul\":4264:4266   */\n  0x60\n    /* \"#utility.yul\":4290:4354   */\n  tag_104\n    /* \"#utility.yul\":4346:4353   */\n  dup9\n    /* \"#utility.yul\":4337:4343   */\n  dup3\n    /* \"#utility.yul\":4326:4335   */\n  dup10\n    /* \"#utility.yul\":4322:4344   */\n  add\n    /* \"#utility.yul\":4290:4354   */\n  tag_30\n  jump\t// in\ntag_104:\n    /* \"#utility.yul\":4280:4354   */\n  swap3\n  pop\n    /* \"#utility.yul\":4235:4364   */\n  pop\n    /* \"#utility.yul\":4403:4406   */\n  0x80\n    /* \"#utility.yul\":4430:4494   */\n  tag_105\n    /* \"#utility.yul\":4486:4493   */\n  dup9\n    /* \"#utility.yul\":4477:4483   */\n  dup3\n    /* \"#utility.yul\":4466:4475   */\n  dup10\n    /* \"#utility.yul\":4462:4484   */\n  add\n    /* \"#utility.yul\":4430:4494   */\n  tag_30\n  jump\t// in\ntag_105:\n    /* \"#utility.yul\":4420:4494   */\n  swap2\n  pop\n    /* \"#utility.yul\":4374:4504   */\n  pop\n    /* \"#utility.yul\":3188:4511   */\n  swap3\n  swap6\n  pop\n  swap3\n  swap6\n  swap1\n  swap4\n  pop\n  jump\t// out\n    /* \"#utility.yul\":4517:4616   */\ntag_31:\n    /* \"#utility.yul\":4569:4575   */\n  0x00\n    /* \"#utility.yul\":4603:4608   */\n  dup2\n    /* \"#utility.yul\":4597:4609   */\n  mload\n    /* \"#utility.yul\":4587:4609   */\n  swap1\n  pop\n    /* \"#utility.yul\":4517:4616   */\n  swap2\n  swap1\n  pop\n  jump\t// out\n    /* \"#utility.yul\":4622:4770   */\ntag_32:\n    /* \"#utility.yul\":4724:4735   */\n  0x00\n    /* \"#utility.yul\":4761:4764   */\n  dup2\n    /* \"#utility.yul\":4746:4764   */\n  swap1\n  pop\n    /* \"#utility.yul\":4622:4770   */\n  swap3\n  swap2\n  pop\n  pop\n  jump\t// out\n    /* \"#utility.yul\":4776:5166   */\ntag_33:\n    /* \"#utility.yul\":4882:4885   */\n  0x00\n    /* \"#utility.yul\":4910:4949   */\n  tag_109\n    /* \"#utility.yul\":4943:4948   */\n  dup3\n    /* \"#utility.yul\":4910:4949   */\n  tag_31\n  jump\t// in\ntag_109:\n    /* \"#utility.yul\":4965:5054   */\n  tag_110\n    /* \"#utility.yul\":5047:5053   */\n  dup2\n    /* \"#utility.yul\":5042:5045   */\n  dup6\n    /* \"#utility.yul\":4965:5054   */\n  tag_32\n  jump\t// in\ntag_110:\n    /* \"#utility.yul\":4958:5054   */\n  swap4\n  pop\n    /* \"#utility.yul\":5063:5128   */\n  tag_111\n    /* \"#utility.yul\":5121:5127   */\n  dup2\n    /* \"#utility.yul\":5116:5119   */\n  dup6\n    /* \"#utility.yul\":5109:5113   */\n  0x20\n    /* \"#utility.yul\":5102:5107   */\n  dup7\n    /* \"#utility.yul\":5098:5114   */\n  add\n    /* \"#utility.yul\":5063:5128   */\n  tag_24\n  jump\t// in\ntag_111:\n    /* \"#utility.yul\":5153:5159   */\n  dup1\n    /* \"#utility.yul\":5148:5151   */\n  dup5\n    /* \"#utility.yul\":5144:5160   */\n  add\n    /* \"#utility.yul\":5137:5160   */\n  swap2\n  pop\n    /* \"#utility.yul\":4886:5166   */\n  pop\n    /* \"#utility.yul\":4776:5166   */\n  swap3\n  swap2\n  pop\n  pop\n  jump\t// out\n    /* \"#utility.yul\":5172:5350   */\ntag_34:\n    /* \"#utility.yul\":5340:5343   */\n  0x2f00000000000000000000000000000000000000000000000000000000000000\n    /* \"#utility.yul\":5335:5338   */\n  dup2\n    /* \"#utility.yul\":5328:5344   */\n  mstore\n    /* \"#utility.yul\":5172:5350   */\n  pop\n  jump\t// out\n    /* \"#utility.yul\":5356:6055   */\ntag_10:\n    /* \"#utility.yul\":5626:5629   */\n  0x00\n    /* \"#utility.yul\":5648:5743   */\n  tag_114\n    /* \"#utility.yul\":5739:5742   */\n  dup3\n    /* \"#utility.yul\":5730:5736   */\n  dup6\n    /* \"#utility.yul\":5648:5743   */\n  tag_33\n  jump\t// in\ntag_114:\n    /* \"#utility.yul\":5641:5743   */\n  swap2\n  pop\n    /* \"#utility.yul\":5753:5890   */\n  tag_115\n    /* \"#utility.yul\":5886:5889   */\n  dup3\n    /* \"#utility.yul\":5753:5890   */\n  tag_34\n  jump\t// in\ntag_115:\n    /* \"#utility.yul\":5915:5916   */\n  0x01\n    /* \"#utility.yul\":5910:5913   */\n  dup3\n    /* \"#utility.yul\":5906:5917   */\n  add\n    /* \"#utility.yul\":5899:5917   */\n  swap2\n  pop\n    /* \"#utility.yul\":5934:6029   */\n  tag_116\n    /* \"#utility.yul\":6025:6028   */\n  dup3\n    /* \"#utility.yul\":6016:6022   */\n  dup5\n    /* \"#utility.yul\":5934:6029   */\n  tag_33\n  jump\t// in\ntag_116:\n    /* \"#utility.yul\":5927:6029   */\n  swap2\n  pop\n    /* \"#utility.yul\":6046:6049   */\n  dup2\n    /* \"#utility.yul\":6039:6049   */\n  swap1\n  pop\n    /* \"#utility.yul\":5356:6055   */\n  swap4\n  swap3\n  pop\n  pop\n  pop\n  jump\t// out\n    /* \"#utility.yul\":6061:6241   */\ntag_35:\n    /* \"#utility.yul\":6109:6186   */\n  0x4e487b7100000000000000000000000000000000000000000000000000000000\n    /* \"#utility.yul\":6106:6107   */\n  0x00\n    /* \"#utility.yul\":6099:6187   */\n  mstore\n    /* \"#utility.yul\":6206:6210   */\n  0x22\n    /* \"#utility.yul\":6203:6204   */\n  0x04\n    /* \"#utility.yul\":6196:6211   */\n  mstore\n    /* \"#utility.yul\":6230:6234   */\n  0x24\n    /* \"#utility.yul\":6227:6228   */\n  0x00\n    /* \"#utility.yul\":6220:6235   */\n  revert\n    /* \"#utility.yul\":6247:6567   */\ntag_36:\n    /* \"#utility.yul\":6291:6297   */\n  0x00\n    /* \"#utility.yul\":6328:6329   */\n  0x02\n    /* \"#utility.yul\":6322:6326   */\n  dup3\n    /* \"#utility.yul\":6318:6330   */\n  div\n    /* \"#utility.yul\":6308:6330   */\n  swap1\n  pop\n    /* \"#utility.yul\":6375:6376   */\n  0x01\n    /* \"#utility.yul\":6369:6373   */\n  dup3\n    /* \"#utility.yul\":6365:6377   */\n  and\n    /* \"#utility.yul\":6396:6414   */\n  dup1\n    /* \"#utility.yul\":6386:6467   */\n  tag_119\n  jumpi\n    /* \"#utility.yul\":6452:6456   */\n  0x7f\n    /* \"#utility.yul\":6444:6450   */\n  dup3\n    /* \"#utility.yul\":6440:6457   */\n  and\n    /* \"#utility.yul\":6430:6457   */\n  swap2\n  pop\n    /* \"#utility.yul\":6386:6467   */\ntag_119:\n    /* \"#utility.yul\":6514:6516   */\n  0x20\n    /* \"#utility.yul\":6506:6512   */\n  dup3\n    /* \"#utility.yul\":6503:6517   */\n  lt\n    /* \"#utility.yul\":6483:6501   */\n  dup2\n    /* \"#utility.yul\":6480:6518   */\n  sub\n    /* \"#utility.yul\":6477:6561   */\n  tag_120\n  jumpi\n    /* \"#utility.yul\":6533:6551   */\n  tag_121\n  tag_35\n  jump\t// in\ntag_121:\n    /* \"#utility.yul\":6477:6561   */\ntag_120:\n    /* \"#utility.yul\":6298:6567   */\n  pop\n    /* \"#utility.yul\":6247:6567   */\n  swap2\n  swap1\n  pop\n  jump\t// out\n    /* \"#utility.yul\":6573:6714   */\ntag_37:\n    /* \"#utility.yul\":6622:6626   */\n  0x00\n    /* \"#utility.yul\":6645:6648   */\n  dup2\n    /* \"#utility.yul\":6637:6648   */\n  swap1\n  pop\n    /* \"#utility.yul\":6668:6671   */\n  dup2\n    /* \"#utility.yul\":6665:6666   */\n  0x00\n    /* \"#utility.yul\":6658:6672   */\n  mstore\n    /* \"#utility.yul\":6702:6706   */\n  0x20\n    /* \"#utility.yul\":6699:6700   */\n  0x00\n    /* \"#utility.yul\":6689:6707   */\n  keccak256\n    /* \"#utility.yul\":6681:6707   */\n  swap1\n  pop\n    /* \"#utility.yul\":6573:6714   */\n  swap2\n  swap1\n  pop\n  jump\t// out\n    /* \"#utility.yul\":6720:6813   */\ntag_38:\n    /* \"#utility.yul\":6757:6763   */\n  0x00\n    /* \"#utility.yul\":6804:6806   */\n  0x20\n    /* \"#utility.yul\":6799:6801   */\n  0x1f\n    /* \"#utility.yul\":6792:6797   */\n  dup4\n    /* \"#utility.yul\":6788:6802   */\n  add\n    /* \"#utility.yul\":6784:6807   */\n  div\n    /* \"#utility.yul\":6774:6807   */\n  swap1\n  pop\n    /* \"#utility.yul\":6720:6813   */\n  swap2\n  swap1\n  pop\n  jump\t// out\n    /* \"#utility.yul\":6819:6926   */\ntag_39:\n    /* \"#utility.yul\":6863:6871   */\n  0x00\n    /* \"#utility.yul\":6913:6918   */\n  dup3\n    /* \"#utility.yul\":6907:6911   */\n  dup3\n    /* \"#utility.yul\":6903:6919   */\n  shl\n    /* \"#utility.yul\":6882:6919   */\n  swap1\n  pop\n    /* \"#utility.yul\":6819:6926   */\n  swap3\n  swap2\n  pop\n  pop\n  jump\t// out\n    /* \"#utility.yul\":6932:7325   */\ntag_40:\n    /* \"#utility.yul\":7001:7007   */\n  0x00\n    /* \"#utility.yul\":7051:7052   */\n  0x08\n    /* \"#utility.yul\":7039:7049   */\n  dup4\n    /* \"#utility.yul\":7035:7053   */\n  mul\n    /* \"#utility.yul\":7074:7171   */\n  tag_126\n    /* \"#utility.yul\":7104:7170   */\n  0xffffffffffffffffffffffffffffffffffffffffffffffffffffffffffffffff\n    /* \"#utility.yul\":7093:7102   */\n  dup3\n    /* \"#utility.yul\":7074:7171   */\n  tag_39\n  jump\t// in\ntag_126:\n    /* \"#utility.yul\":7192:7231   */\n  tag_127\n    /* \"#utility.yul\":7222:7230   */\n  dup7\n    /* \"#utility.yul\":7211:7220   */\n  dup4\n    /* \"#utility.yul\":7192:7231   */\n  tag_39\n  jump\t// in\ntag_127:\n    /* \"#utility.yul\":7180:7231   */\n  swap6\n  pop\n    /* \"#utility.yul\":7264:7268   */\n  dup1\n    /* \"#utility.yul\":7260:7269   */\n  not\n    /* \"#utility.yul\":7253:7258   */\n  dup5\n    /* \"#utility.yul\":7249:7270   */\n  and\n    /* \"#utility.yul\":7240:7270   */\n  swap4\n  pop\n    /* \"#utility.yul\":7313:7317   */\n  dup1\n    /* \"#utility.yul\":7303:7311   */\n  dup7\n    /* \"#utility.yul\":7299:7318   */\n  and\n    /* \"#utility.yul\":7292:7297   */\n  dup5\n    /* \"#utility.yul\":7289:7319   */\n  or\n    /* \"#utility.yul\":7279:7319   */\n  swap3\n  pop\n    /* \"#utility.yul\":7008:7325   */\n  pop\n  pop\n    /* \"#utility.yul\":6932:7325   */\n  swap4\n  swap3\n  pop\n  pop\n  pop\n  jump\t// out\n    /* \"#utility.yul\":7331:7408   */\ntag_41:\n    /* \"#utility.yul\":7368:7375   */\n  0x00\n    /* \"#utility.yul\":7397:7402   */\n  dup2\n    /* \"#utility.yul\":7386:7402   */\n  swap1\n  pop\n    /* \"#utility.yul\":7331:7408   */\n  swap2\n  swap1\n  pop\n  jump\t// out\n    /* \"#utility.yul\":7414:7474   */\ntag_42:\n    /* \"#utility.yul\":7442:7445   */\n  0x00\n    /* \"#utility.yul\":7463:7468   */\n  dup2\n    /* \"#utility.yul\":7456:7468   */\n  swap1\n  pop\n    /* \"#utility.yul\":7414:7474   */\n  swap2\n  swap1\n  pop\n  jump\t// out\n    /* \"#utility.yul\":7480:7622   */\ntag_43:\n    /* \"#utility.yul\":7530:7539   */\n  0x00\n    /* \"#utility.yul\":7563:7616   */\n  tag_131\n    /* \"#utility.yul\":7581:7615   */\n  tag_132\n    /* \"#utility.yul\":7590:7614   */\n  tag_133\n    /* \"#utility.yul\":7608:7613   */\n  dup5\n    /* \"#utility.yul\":7590:7614   */\n  tag_41\n  jump\t// in\ntag_133:\n    /* \"#utility.yul\":7581:7615   */\n  tag_42\n  jump\t// in\ntag_132:\n    /* \"#utility.yul\":7563:7616   */\n  tag_41\n  jump\t// in\ntag_131:\n    /* \"#utility.yul\":7550:7616   */\n  swap1\n  pop\n    /* \"#utility.yul\":7480:7622   */\n  swap2\n  swap1\n  pop\n  jump\t// out\n    /* \"#utility.yul\":7628:7703   */\ntag_44:\n    /* \"#utility.yul\":7671:7674   */\n  0x00\n    /* \"#utility.yul\":7692:7697   */\n  dup2\n    /* \"#utility.yul\":7685:7697   */\n  swap1\n  pop\n    /* \"#utility.yul\":7628:7703   */\n  swap2\n  swap1\n  pop\n  jump\t// out\n    /* \"#utility.yul\":7709:7978   */\ntag_45:\n    /* \"#utility.yul\":7819:7858   */\n  tag_136\n    /* \"#utility.yul\":7850:7857   */\n  dup4\n    /* \"#utility.yul\":7819:7858   */\n  tag_43\n  jump\t// in\ntag_136:\n    /* \"#utility.yul\":7880:7971   */\n  tag_137\n    /* \"#utility.yul\":7929:7970   */\n  tag_138\n    /* \"#utility.yul\":7953:7969   */\n  dup3\n    /* \"#utility.yul\":7929:7970   */\n  tag_44\n  jump\t// in\ntag_138:\n    /* \"#utility.yul\":7921:7927   */\n  dup5\n    /* \"#utility.yul\":7914:7918   */\n  dup5\n    /* \"#utility.yul\":7908:7919   */\n  sload\n    /* \"#utility.yul\":7880:7971   */\n  tag_40\n  jump\t// in\ntag_137:\n    /* \"#utility.yul\":7874:7878   */\n  dup3\n    /* \"#utility.yul\":7867:7972   */\n  sstore\n    /* \"#utility.yul\":7785:7978   */\n  pop\n    /* \"#utility.yul\":7709:7978   */\n  pop\n  pop\n  pop\n  jump\t// out\n    /* \"#utility.yul\":7984:8057   */\ntag_46:\n    /* \"#utility.yul\":8029:8032   */\n  0x00\n    /* \"#utility.yul\":7984:8057   */\n  swap1\n  jump\t// out\n    /* \"#utility.yul\":8063:8252   */\ntag_47:\n    /* \"#utility.yul\":8140:8172   */\n  tag_141\n  tag_46\n  jump\t// in\ntag_141:\n    /* \"#utility.yul\":8181:8246   */\n  tag_142\n    /* \"#utility.yul\":8239:8245   */\n  dup2\n    /* \"#utility.yul\":8231:8237   */\n  dup5\n    /* \"#utility.yul\":8225:8229   */\n  dup5\n    /* \"#utility.yul\":8181:8246   */\n  tag_45\n  jump\t// in\ntag_142:\n    /* \"#utility.yul\":8116:8252   */\n  pop\n    /* \"#utility.yul\":8063:8252   */\n  pop\n  pop\n  jump\t// out\n    /* \"#utility.yul\":8258:8444   */\ntag_48:\n    /* \"#utility.yul\":8318:8438   */\ntag_144:\n    /* \"#utility.yul\":8335:8338   */\n  dup2\n    /* \"#utility.yul\":8328:8333   */\n  dup2\n    /* \"#utility.yul\":8325:8339   */\n  lt\n    /* \"#utility.yul\":8318:8438   */\n  iszero\n  tag_146\n  jumpi\n    /* \"#utility.yul\":8389:8428   */\n  tag_147\n    /* \"#utility.yul\":8426:8427   */\n  0x00\n    /* \"#utility.yul\":8419:8424   */\n  dup3\n    /* \"#utility.yul\":8389:8428   */\n  tag_47\n  jump\t// in\ntag_147:\n    /* \"#utility.yul\":8362:8363   */\n  0x01\n    /* \"#utility.yul\":8355:8360   */\n  dup2\n    /* \"#utility.yul\":8351:8364   */\n  add\n    /* \"#utility.yul\":8342:8364   */\n  swap1\n  pop\n    /* \"#utility.yul\":8318:8438   */\n  jump(tag_144)\ntag_146:\n    /* \"#utility.yul\":8258:8444   */\n  pop\n  pop\n  jump\t// out\n    /* \"#utility.yul\":8450:8993   */\ntag_49:\n    /* \"#utility.yul\":8551:8553   */\n  0x1f\n    /* \"#utility.yul\":8546:8549   */\n  dup3\n    /* \"#utility.yul\":8543:8554   */\n  gt\n    /* \"#utility.yul\":8540:8986   */\n  iszero\n  tag_149\n  jumpi\n    /* \"#utility.yul\":8585:8623   */\n  tag_150\n    /* \"#utility.yul\":8617:8622   */\n  dup2\n    /* \"#utility.yul\":8585:8623   */\n  tag_37\n  jump\t// in\ntag_150:\n    /* \"#utility.yul\":8669:8698   */\n  tag_151\n    /* \"#utility.yul\":8687:8697   */\n  dup5\n    /* \"#utility.yul\":8669:8698   */\n  tag_38\n  jump\t// in\ntag_151:\n    /* \"#utility.yul\":8659:8667   */\n  dup2\n    /* \"#utility.yul\":8655:8699   */\n  add\n    /* \"#utility.yul\":8852:8854   */\n  0x20\n    /* \"#utility.yul\":8840:8850   */\n  dup6\n    /* \"#utility.yul\":8837:8855   */\n  lt\n    /* \"#utility.yul\":8834:8883   */\n  iszero\n  tag_152\n  jumpi\n    /* \"#utility.yul\":8873:8881   */\n  dup2\n    /* \"#utility.yul\":8858:8881   */\n  swap1\n  pop\n    /* \"#utility.yul\":8834:8883   */\ntag_152:\n    /* \"#utility.yul\":8896:8976   */\n  tag_153\n    /* \"#utility.yul\":8952:8974   */\n  tag_154\n    /* \"#utility.yul\":8970:8973   */\n  dup6\n    /* \"#utility.yul\":8952:8974   */\n  tag_38\n  jump\t// in\ntag_154:\n    /* \"#utility.yul\":8942:8950   */\n  dup4\n    /* \"#utility.yul\":8938:8975   */\n  add\n    /* \"#utility.yul\":8925:8936   */\n  dup3\n    /* \"#utility.yul\":8896:8976   */\n  tag_48\n  jump\t// in\ntag_153:\n    /* \"#utility.yul\":8555:8986   */\n  pop\n  pop\n    /* \"#utility.yul\":8540:8986   */\ntag_149:\n    /* \"#utility.yul\":8450:8993   */\n  pop\n  pop\n  pop\n  jump\t// out\n    /* \"#utility.yul\":8999:9116   */\ntag_50:\n    /* \"#utility.yul\":9053:9061   */\n  0x00\n    /* \"#utility.yul\":9103:9108   */\n  dup3\n    /* \"#utility.yul\":9097:9101   */\n  dup3\n    /* \"#utility.yul\":9093:9109   */\n  shr\n    /* \"#utility.yul\":9072:9109   */\n  swap1\n  pop\n    /* \"#utility.yul\":8999:9116   */\n  swap3\n  swap2\n  pop\n  pop\n  jump\t// out\n    /* \"#utility.yul\":9122:9291   */\ntag_51:\n    /* \"#utility.yul\":9166:9172   */\n  0x00\n    /* \"#utility.yul\":9199:9250   */\n  tag_157\n    /* \"#utility.yul\":9247:9248   */\n  0x00\n    /* \"#utility.yul\":9243:9249   */\n  not\n    /* \"#utility.yul\":9235:9240   */\n  dup5\n    /* \"#utility.yul\":9232:9233   */\n  0x08\n    /* \"#utility.yul\":9228:9241   */\n  mul\n    /* \"#utility.yul\":9199:9250   */\n  tag_50\n  jump\t// in\ntag_157:\n    /* \"#utility.yul\":9195:9251   */\n  not\n    /* \"#utility.yul\":9280:9284   */\n  dup1\n    /* \"#utility.yul\":9274:9278   */\n  dup4\n    /* \"#utility.yul\":9270:9285   */\n  and\n    /* \"#utility.yul\":9260:9285   */\n  swap2\n  pop\n    /* \"#utility.yul\":9173:9291   */\n  pop\n    /* \"#utility.yul\":9122:9291   */\n  swap3\n  swap2\n  pop\n  pop\n  jump\t// out\n    /* \"#utility.yul\":9296:9591   */\ntag_52:\n    /* \"#utility.yul\":9372:9376   */\n  0x00\n    /* \"#utility.yul\":9518:9547   */\n  tag_159\n    /* \"#utility.yul\":9543:9546   */\n  dup4\n    /* \"#utility.yul\":9537:9541   */\n  dup4\n    /* \"#utility.yul\":9518:9547   */\n  tag_51\n  jump\t// in\ntag_159:\n    /* \"#utility.yul\":9510:9547   */\n  swap2\n  pop\n    /* \"#utility.yul\":9580:9583   */\n  dup3\n    /* \"#utility.yul\":9577:9578   */\n  0x02\n    /* \"#utility.yul\":9573:9584   */\n  mul\n    /* \"#utility.yul\":9567:9571   */\n  dup3\n    /* \"#utility.yul\":9564:9585   */\n  or\n    /* \"#utility.yul\":9556:9585   */\n  swap1\n  pop\n    /* \"#utility.yul\":9296:9591   */\n  swap3\n  swap2\n  pop\n  pop\n  jump\t// out\n    /* \"#utility.yul\":9596:10991   */\ntag_12:\n    /* \"#utility.yul\":9713:9750   */\n  tag_161\n    /* \"#utility.yul\":9746:9749   */\n  dup3\n    /* \"#utility.yul\":9713:9750   */\n  tag_31\n  jump\t// in\ntag_161:\n    /* \"#utility.yul\":9815:9833   */\n  0xffffffffffffffff\n    /* \"#utility.yul\":9807:9813   */\n  dup2\n    /* \"#utility.yul\":9804:9834   */\n  gt\n    /* \"#utility.yul\":9801:9857   */\n  iszero\n  tag_162\n  jumpi\n    /* \"#utility.yul\":9837:9855   */\n  tag_163\n  tag_20\n  jump\t// in\ntag_163:\n    /* \"#utility.yul\":9801:9857   */\ntag_162:\n    /* \"#utility.yul\":9881:9919   */\n  tag_164\n    /* \"#utility.yul\":9913:9917   */\n  dup3\n    /* \"#utility.yul\":9907:9918   */\n  sload\n    /* \"#utility.yul\":9881:9919   */\n  tag_36\n  jump\t// in\ntag_164:\n    /* \"#utility.yul\":9966:10033   */\n  tag_165\n    /* \"#utility.yul\":10026:10032   */\n  dup3\n    /* \"#utility.yul\":10018:10024   */\n  dup3\n    /* \"#utility.yul\":10012:10016   */\n  dup6\n    /* \"#utility.yul\":9966:10033   */\n  tag_49\n  jump\t// in\ntag_165:\n    /* \"#utility.yul\":10060:10061   */\n  0x00\n    /* \"#utility.yul\":10084:10088   */\n  0x20\n    /* \"#utility.yul\":10071:10088   */\n  swap1\n  pop\n    /* \"#utility.yul\":10116:10118   */\n  0x1f\n    /* \"#utility.yul\":10108:10114   */\n  dup4\n    /* \"#utility.yul\":10105:10119   */\n  gt\n    /* \"#utility.yul\":10133:10134   */\n  0x01\n    /* \"#utility.yul\":10128:10746   */\n  dup2\n  eq\n  tag_167\n  jumpi\n    /* \"#utility.yul\":10790:10791   */\n  0x00\n    /* \"#utility.yul\":10807:10813   */\n  dup5\n    /* \"#utility.yul\":10804:10881   */\n  iszero\n  tag_168\n  jumpi\n    /* \"#utility.yul\":10856:10865   */\n  dup3\n    /* \"#utility.yul\":10851:10854   */\n  dup8\n    /* \"#utility.yul\":10847:10866   */\n  add\n    /* \"#utility.yul\":10841:10867   */\n  mload\n    /* \"#utility.yul\":10832:10867   */\n  swap1\n  pop\n    /* \"#utility.yul\":10804:10881   */\ntag_168:\n    /* \"#utility.yul\":10907:10974   */\n  tag_169\n    /* \"#utility.yul\":10967:10973   */\n  dup6\n    /* \"#utility.yul\":10960:10965   */\n  dup3\n    /* \"#utility.yul\":10907:10974   */\n  tag_52\n  jump\t// in\ntag_169:\n    /* \"#utility.yul\":10901:10905   */\n  dup7\n    /* \"#utility.yul\":10894:10975   */\n  sstore\n    /* \"#utility.yul\":10763:10985   */\n  pop\n    /* \"#utility.yul\":10098:10985   */\n  jump(tag_166)\n    /* \"#utility.yul\":10128:10746   */\ntag_167:\n    /* \"#utility.yul\":10180:10184   */\n  0x1f\n    /* \"#utility.yul\":10176:10185   */\n  not\n    /* \"#utility.yul\":10168:10174   */\n  dup5\n    /* \"#utility.yul\":10164:10186   */\n  and\n    /* \"#utility.yul\":10214:10251   */\n  tag_170\n    /* \"#utility.yul\":10246:10250   */\n  dup7\n    /* \"#utility.yul\":10214:10251   */\n  tag_37\n  jump\t// in\ntag_170:\n    /* \"#utility.yul\":10273:10274   */\n  0x00\n    /* \"#utility.yul\":10287:10495   */\ntag_171:\n    /* \"#utility.yul\":10301:10308   */\n  dup3\n    /* \"#utility.yul\":10298:10299   */\n  dup2\n    /* \"#utility.yul\":10295:10309   */\n  lt\n    /* \"#utility.yul\":10287:10495   */\n  iszero\n  tag_173\n  jumpi\n    /* \"#utility.yul\":10380:10389   */\n  dup5\n    /* \"#utility.yul\":10375:10378   */\n  dup10\n    /* \"#utility.yul\":10371:10390   */\n  add\n    /* \"#utility.yul\":10365:10391   */\n  mload\n    /* \"#utility.yul\":10357:10363   */\n  dup3\n    /* \"#utility.yul\":10350:10392   */\n  sstore\n    /* \"#utility.yul\":10431:10432   */\n  0x01\n    /* \"#utility.yul\":10423:10429   */\n  dup3\n    /* \"#utility.yul\":10419:10433   */\n  add\n    /* \"#utility.yul\":10409:10433   */\n  swap2\n  pop\n    /* \"#utility.yul\":10478:10480   */\n  0x20\n    /* \"#utility.yul\":10467:10476   */\n  dup6\n    /* \"#utility.yul\":10463:10481   */\n  add\n    /* \"#utility.yul\":10450:10481   */\n  swap5\n  pop\n    /* \"#utility.yul\":10324:10328   */\n  0x20\n    /* \"#utility.yul\":10321:10322   */\n  dup2\n    /* \"#utility.yul\":10317:10329   */\n  add\n    /* \"#utility.yul\":10312:10329   */\n  swap1\n  pop\n    /* \"#utility.yul\":10287:10495   */\n  jump(tag_171)\ntag_173:\n    /* \"#utility.yul\":10523:10529   */\n  dup7\n    /* \"#utility.yul\":10514:10521   */\n  dup4\n    /* \"#utility.yul\":10511:10530   */\n  lt\n    /* \"#utility.yul\":10508:10687   */\n  iszero\n  tag_174\n  jumpi\n    /* \"#utility.yul\":10581:10590   */\n  dup5\n    /* \"#utility.yul\":10576:10579   */\n  dup10\n    /* \"#utility.yul\":10572:10591   */\n  add\n    /* \"#utility.yul\":10566:10592   */\n  mload\n    /* \"#utility.yul\":10624:10672   */\n  tag_175\n    /* \"#utility.yul\":10666:10670   */\n  0x1f\n    /* \"#utility.yul\":10658:10664   */\n  dup10\n    /* \"#utility.yul\":10654:10671   */\n  and\n    /* \"#utility.yul\":10643:10652   */\n  dup3\n    /* \"#utility.yul\":10624:10672   */\n  tag_51\n  jump\t// in\ntag_175:\n    /* \"#utility.yul\":10616:10622   */\n  dup4\n    /* \"#utility.yul\":10609:10673   */\n  sstore\n    /* \"#utility.yul\":10531:10687   */\n  pop\n    /* \"#utility.yul\":10508:10687   */\ntag_174:\n    /* \"#utility.yul\":10733:10734   */\n  0x01\n    /* \"#utility.yul\":10729:10730   */\n  0x02\n    /* \"#utility.yul\":10721:10727   */\n  dup9\n    /* \"#utility.yul\":10717:10731   */\n  mul\n    /* \"#utility.yul\":10713:10735   */\n  add\n    /* \"#utility.yul\":10707:10711   */\n  dup9\n    /* \"#utility.yul\":10700:10736   */\n  sstore\n    /* \"#utility.yul\":10135:10746   */\n  pop\n  pop\n  pop\n    /* \"#utility.yul\":10098:10985   */\ntag_166:\n  pop\n    /* \"#utility.yul\":9688:10991   */\n  pop\n  pop\n  pop\n    /* \"#utility.yul\":9596:10991   */\n  pop\n  pop\n  jump\t// out\n    /* \"token_eco_system_dev_contracts/contracts_ready_for_prod/AggregatorRate_flattened.sol\":891:2684  contract AggregatorRate{... */\ntag_13:\n  mload(0x80)\n  mload(0xa0)\n  codecopy(0x00, dataOffset(sub_0), dataSize(sub_0))\n  0x00\n  assignImmutable(\"0x6590fa52fa76f967656340b874bc9ca09733c2fddea9886210ebcbbceee04b35\")\n  0x00\n  assignImmutable(\"0xbbd48b257be1b8216d144ef9be5734f8d11697959c9e0f7768bec89db74a63a3\")\n  return(0x00, dataSize(sub_0))\nstop\n\nsub_0: assembly {\n        /* \"token_eco_system_dev_contracts/contracts_ready_for_prod/AggregatorRate_flattened.sol\":891:2684  contract AggregatorRate{... */\n      mstore(0x40, 0x80)\n      callvalue\n      dup1\n      iszero\n      tag_1\n      jumpi\n      0x00\n      dup1\n      revert\n    tag_1:\n      pop\n      jumpi(tag_2, lt(calldatasize, 0x04))\n      shr(0xe0, calldataload(0x00))\n      dup1\n      0x082c4484\n      eq\n      tag_3\n      jumpi\n      dup1\n      0x0f15f4c0\n      eq\n      tag_4\n      jumpi\n      dup1\n      0x51b42b00\n      eq\n      tag_5\n      jumpi\n      dup1\n      0x8da5cb5b\n      eq\n      tag_6\n      jumpi\n      dup1\n      0xe1e7ff77\n      eq\n      tag_7\n      jumpi\n      dup1\n      0xf851a440\n      eq\n      tag_8\n      jumpi\n    tag_2:\n      0x00\n      dup1\n      revert\n        /* \"token_eco_system_dev_contracts/contracts_ready_for_prod/AggregatorRate_flattened.sol\":2003:2328  function changeAggregatorAddress(string memory assetOne, string memory assetTwo, address aggregatorAddress) public onlyAdmin{... */\n    tag_3:\n      tag_9\n      0x04\n      dup1\n      calldatasize\n      sub\n      dup2\n      add\n      swap1\n      tag_10\n      swap2\n      swap1\n      tag_11\n      jump\t// in\n    tag_10:\n      tag_12\n      jump\t// in\n    tag_9:\n      stop\n        /* \"token_eco_system_dev_contracts/contracts_ready_for_prod/AggregatorRate_flattened.sol\":1759:1874  function activate() public onlyAdmin{... */\n    tag_4:\n      tag_13\n      tag_14\n      jump\t// in\n    tag_13:\n      stop\n        /* \"token_eco_system_dev_contracts/contracts_ready_for_prod/AggregatorRate_flattened.sol\":1880:1997  function deactivate() public onlyAdmin{... */\n    tag_5:\n      tag_15\n      tag_16\n      jump\t// in\n    tag_15:\n      stop\n        /* \"token_eco_system_dev_contracts/contracts_ready_for_prod/AggregatorRate_flattened.sol\":994:1024  address public immutable owner */\n    tag_6:\n      tag_17\n      tag_18\n      jump\t// in\n    tag_17:\n      mload(0x40)\n      tag_19\n      swap2\n      swap1\n      tag_20\n      jump\t// in\n    tag_19:\n      mload(0x40)\n      dup1\n      swap2\n      sub\n      swap1\n      return\n        /* \"token_eco_system_dev_contracts/contracts_ready_for_prod/AggregatorRate_flattened.sol\":2334:2682  function getLatestRate() public view onlyOwner returns (int256, uint256, string memory, uint256) {... */\n    tag_7:\n      tag_21\n      tag_22\n      jump\t// in\n    tag_21:\n      mload(0x40)\n      tag_23\n      swap5\n      swap4\n      swap3\n      swap2\n      swap1\n      tag_24\n      jump\t// in\n    tag_23:\n      mload(0x40)\n      dup1\n      swap2\n      sub\n      swap1\n      return\n        /* \"token_eco_system_dev_contracts/contracts_ready_for_prod/AggregatorRate_flattened.sol\":1030:1060  address public immutable admin */\n    tag_8:\n      tag_25\n      tag_26\n      jump\t// in\n    tag_25:\n      mload(0x40)\n      tag_27\n      swap2\n      swap1\n      tag_20\n      jump\t// in\n    tag_27:\n      mload(0x40)\n      dup1\n      swap2\n      sub\n      swap1\n      return\n        /* \"token_eco_system_dev_contracts/contracts_ready_for_prod/AggregatorRate_flattened.sol\":2003:2328  function changeAggregatorAddress(string memory assetOne, string memory assetTwo, address aggregatorAddress) public onlyAdmin{... */\n    tag_12:\n        /* \"token_eco_system_dev_contracts/contracts_ready_for_prod/AggregatorRate_flattened.sol\":1254:1259  admin */\n      immutable(\"0x6590fa52fa76f967656340b874bc9ca09733c2fddea9886210ebcbbceee04b35\")\n        /* \"token_eco_system_dev_contracts/contracts_ready_for_prod/AggregatorRate_flattened.sol\":1240:1259  msg.sender == admin */\n      0xffffffffffffffffffffffffffffffffffffffff\n      and\n        /* \"token_eco_system_dev_contracts/contracts_ready_for_prod/AggregatorRate_flattened.sol\":1240:1250  msg.sender */\n      caller\n        /* \"token_eco_system_dev_contracts/contracts_ready_for_prod/AggregatorRate_flattened.sol\":1240:1259  msg.sender == admin */\n      0xffffffffffffffffffffffffffffffffffffffff\n      and\n      eq\n        /* \"token_eco_system_dev_contracts/contracts_ready_for_prod/AggregatorRate_flattened.sol\":1232:1279  require(msg.sender == admin, \"Not Authorized!\") */\n      tag_29\n      jumpi\n      mload(0x40)\n      0x08c379a000000000000000000000000000000000000000000000000000000000\n      dup2\n      mstore\n      0x04\n      add\n      tag_30\n      swap1\n      tag_31\n      jump\t// in\n    tag_30:\n      mload(0x40)\n      dup1\n      swap2\n      sub\n      swap1\n      revert\n    tag_29:\n        /* \"token_eco_system_dev_contracts/contracts_ready_for_prod/AggregatorRate_flattened.sol\":2174:2175  0 */\n      0x00\n        /* \"token_eco_system_dev_contracts/contracts_ready_for_prod/AggregatorRate_flattened.sol\":2145:2176  aggregatorAddress != address(0) */\n      0xffffffffffffffffffffffffffffffffffffffff\n      and\n        /* \"token_eco_system_dev_contracts/contracts_ready_for_prod/AggregatorRate_flattened.sol\":2145:2162  aggregatorAddress */\n      dup2\n        /* \"token_eco_system_dev_contracts/contracts_ready_for_prod/AggregatorRate_flattened.sol\":2145:2176  aggregatorAddress != address(0) */\n      0xffffffffffffffffffffffffffffffffffffffff\n      and\n      sub\n        /* \"token_eco_system_dev_contracts/contracts_ready_for_prod/AggregatorRate_flattened.sol\":2137:2177  require(aggregatorAddress != address(0)) */\n      tag_33\n      jumpi\n      0x00\n      dup1\n      revert\n    tag_33:\n        /* \"token_eco_system_dev_contracts/contracts_ready_for_prod/AggregatorRate_flattened.sol\":2234:2251  aggregatorAddress */\n      dup1\n        /* \"token_eco_system_dev_contracts/contracts_ready_for_prod/AggregatorRate_flattened.sol\":2187:2196  priceFeed */\n      0x00\n      dup1\n        /* \"token_eco_system_dev_contracts/contracts_ready_for_prod/AggregatorRate_flattened.sol\":2187:2262  priceFeed = AggregatorV3Interface(... */\n      0x0100\n      exp\n      dup2\n      sload\n      dup2\n      0xffffffffffffffffffffffffffffffffffffffff\n      mul\n      not\n      and\n      swap1\n      dup4\n      0xffffffffffffffffffffffffffffffffffffffff\n      and\n      mul\n      or\n      swap1\n      sstore\n      pop\n        /* \"token_eco_system_dev_contracts/contracts_ready_for_prod/AggregatorRate_flattened.sol\":2299:2307  assetOne */\n      dup3\n        /* \"token_eco_system_dev_contracts/contracts_ready_for_prod/AggregatorRate_flattened.sol\":2312:2320  assetTwo */\n      dup3\n        /* \"token_eco_system_dev_contracts/contracts_ready_for_prod/AggregatorRate_flattened.sol\":2285:2321  string.concat(assetOne,\"/\",assetTwo) */\n      add(0x20, mload(0x40))\n      tag_34\n      swap3\n      swap2\n      swap1\n      tag_35\n      jump\t// in\n    tag_34:\n      mload(0x40)\n      0x20\n      dup2\n      dup4\n      sub\n      sub\n      dup2\n      mstore\n      swap1\n      0x40\n      mstore\n        /* \"token_eco_system_dev_contracts/contracts_ready_for_prod/AggregatorRate_flattened.sol\":2272:2282  rateString */\n      0x01\n        /* \"token_eco_system_dev_contracts/contracts_ready_for_prod/AggregatorRate_flattened.sol\":2272:2321  rateString = string.concat(assetOne,\"/\",assetTwo) */\n      swap1\n      dup2\n      tag_36\n      swap2\n      swap1\n      tag_37\n      jump\t// in\n    tag_36:\n      pop\n        /* \"token_eco_system_dev_contracts/contracts_ready_for_prod/AggregatorRate_flattened.sol\":2003:2328  function changeAggregatorAddress(string memory assetOne, string memory assetTwo, address aggregatorAddress) public onlyAdmin{... */\n      pop\n      pop\n      pop\n      jump\t// out\n        /* \"token_eco_system_dev_contracts/contracts_ready_for_prod/AggregatorRate_flattened.sol\":1759:1874  function activate() public onlyAdmin{... */\n    tag_14:\n        /* \"token_eco_system_dev_contracts/contracts_ready_for_prod/AggregatorRate_flattened.sol\":1254:1259  admin */\n      immutable(\"0x6590fa52fa76f967656340b874bc9ca09733c2fddea9886210ebcbbceee04b35\")\n        /* \"token_eco_system_dev_contracts/contracts_ready_for_prod/AggregatorRate_flattened.sol\":1240:1259  msg.sender == admin */\n      0xffffffffffffffffffffffffffffffffffffffff\n      and\n        /* \"token_eco_system_dev_contracts/contracts_ready_for_prod/AggregatorRate_flattened.sol\":1240:1250  msg.sender */\n      caller\n        /* \"token_eco_system_dev_contracts/contracts_ready_for_prod/AggregatorRate_flattened.sol\":1240:1259  msg.sender == admin */\n      0xffffffffffffffffffffffffffffffffffffffff\n      and\n      eq\n        /* \"token_eco_system_dev_contracts/contracts_ready_for_prod/AggregatorRate_flattened.sol\":1232:1279  require(msg.sender == admin, \"Not Authorized!\") */\n      tag_39\n      jumpi\n      mload(0x40)\n      0x08c379a000000000000000000000000000000000000000000000000000000000\n      dup2\n      mstore\n      0x04\n      add\n      tag_40\n      swap1\n      tag_31\n      jump\t// in\n    tag_40:\n      mload(0x40)\n      dup1\n      swap2\n      sub\n      swap1\n      revert\n    tag_39:\n        /* \"token_eco_system_dev_contracts/contracts_ready_for_prod/AggregatorRate_flattened.sol\":1814:1820  active */\n      0x02\n      0x00\n      swap1\n      sload\n      swap1\n      0x0100\n      exp\n      swap1\n      div\n      0xff\n      and\n        /* \"token_eco_system_dev_contracts/contracts_ready_for_prod/AggregatorRate_flattened.sol\":1813:1820  !active */\n      iszero\n        /* \"token_eco_system_dev_contracts/contracts_ready_for_prod/AggregatorRate_flattened.sol\":1805:1843  require(!active, \"Already activated!\") */\n      tag_42\n      jumpi\n      mload(0x40)\n      0x08c379a000000000000000000000000000000000000000000000000000000000\n      dup2\n      mstore\n      0x04\n      add\n      tag_43\n      swap1\n      tag_44\n      jump\t// in\n    tag_43:\n      mload(0x40)\n      dup1\n      swap2\n      sub\n      swap1\n      revert\n    tag_42:\n        /* \"token_eco_system_dev_contracts/contracts_ready_for_prod/AggregatorRate_flattened.sol\":1862:1867  false */\n      0x00\n        /* \"token_eco_system_dev_contracts/contracts_ready_for_prod/AggregatorRate_flattened.sol\":1853:1859  active */\n      0x02\n      0x00\n        /* \"token_eco_system_dev_contracts/contracts_ready_for_prod/AggregatorRate_flattened.sol\":1853:1867  active = false */\n      0x0100\n      exp\n      dup2\n      sload\n      dup2\n      0xff\n      mul\n      not\n      and\n      swap1\n      dup4\n      iszero\n      iszero\n      mul\n      or\n      swap1\n      sstore\n      pop\n        /* \"token_eco_system_dev_contracts/contracts_ready_for_prod/AggregatorRate_flattened.sol\":1759:1874  function activate() public onlyAdmin{... */\n      jump\t// out\n        /* \"token_eco_system_dev_contracts/contracts_ready_for_prod/AggregatorRate_flattened.sol\":1880:1997  function deactivate() public onlyAdmin{... */\n    tag_16:\n        /* \"token_eco_system_dev_contracts/contracts_ready_for_prod/AggregatorRate_flattened.sol\":1254:1259  admin */\n      immutable(\"0x6590fa52fa76f967656340b874bc9ca09733c2fddea9886210ebcbbceee04b35\")\n        /* \"token_eco_system_dev_contracts/contracts_ready_for_prod/AggregatorRate_flattened.sol\":1240:1259  msg.sender == admin */\n      0xffffffffffffffffffffffffffffffffffffffff\n      and\n        /* \"token_eco_system_dev_contracts/contracts_ready_for_prod/AggregatorRate_flattened.sol\":1240:1250  msg.sender */\n      caller\n        /* \"token_eco_system_dev_contracts/contracts_ready_for_prod/AggregatorRate_flattened.sol\":1240:1259  msg.sender == admin */\n      0xffffffffffffffffffffffffffffffffffffffff\n      and\n      eq\n        /* \"token_eco_system_dev_contracts/contracts_ready_for_prod/AggregatorRate_flattened.sol\":1232:1279  require(msg.sender == admin, \"Not Authorized!\") */\n      tag_46\n      jumpi\n      mload(0x40)\n      0x08c379a000000000000000000000000000000000000000000000000000000000\n      dup2\n      mstore\n      0x04\n      add\n      tag_47\n      swap1\n      tag_31\n      jump\t// in\n    tag_47:\n      mload(0x40)\n      dup1\n      swap2\n      sub\n      swap1\n      revert\n    tag_46:\n        /* \"token_eco_system_dev_contracts/contracts_ready_for_prod/AggregatorRate_flattened.sol\":1936:1942  active */\n      0x02\n      0x00\n      swap1\n      sload\n      swap1\n      0x0100\n      exp\n      swap1\n      div\n      0xff\n      and\n        /* \"token_eco_system_dev_contracts/contracts_ready_for_prod/AggregatorRate_flattened.sol\":1928:1967  require(active, \"Already deactivated!\") */\n      tag_49\n      jumpi\n      mload(0x40)\n      0x08c379a000000000000000000000000000000000000000000000000000000000\n      dup2\n      mstore\n      0x04\n      add\n      tag_50\n      swap1\n      tag_51\n      jump\t// in\n    tag_50:\n      mload(0x40)\n      dup1\n      swap2\n      sub\n      swap1\n      revert\n    tag_49:\n        /* \"token_eco_system_dev_contracts/contracts_ready_for_prod/AggregatorRate_flattened.sol\":1986:1990  true */\n      0x01\n        /* \"token_eco_system_dev_contracts/contracts_ready_for_prod/AggregatorRate_flattened.sol\":1977:1983  active */\n      0x02\n      0x00\n        /* \"token_eco_system_dev_contracts/contracts_ready_for_prod/AggregatorRate_flattened.sol\":1977:1990  active = true */\n      0x0100\n      exp\n      dup2\n      sload\n      dup2\n      0xff\n      mul\n      not\n      and\n      swap1\n      dup4\n      iszero\n      iszero\n      mul\n      or\n      swap1\n      sstore\n      pop\n        /* \"token_eco_system_dev_contracts/contracts_ready_for_prod/AggregatorRate_flattened.sol\":1880:1997  function deactivate() public onlyAdmin{... */\n      jump\t// out\n        /* \"token_eco_system_dev_contracts/contracts_ready_for_prod/AggregatorRate_flattened.sol\":994:1024  address public immutable owner */\n    tag_18:\n      immutable(\"0xbbd48b257be1b8216d144ef9be5734f8d11697959c9e0f7768bec89db74a63a3\")\n      dup2\n      jump\t// out\n        /* \"token_eco_system_dev_contracts/contracts_ready_for_prod/AggregatorRate_flattened.sol\":2334:2682  function getLatestRate() public view onlyOwner returns (int256, uint256, string memory, uint256) {... */\n    tag_22:\n        /* \"token_eco_system_dev_contracts/contracts_ready_for_prod/AggregatorRate_flattened.sol\":2390:2396  int256 */\n      0x00\n        /* \"token_eco_system_dev_contracts/contracts_ready_for_prod/AggregatorRate_flattened.sol\":2398:2405  uint256 */\n      dup1\n        /* \"token_eco_system_dev_contracts/contracts_ready_for_prod/AggregatorRate_flattened.sol\":2407:2420  string memory */\n      0x60\n        /* \"token_eco_system_dev_contracts/contracts_ready_for_prod/AggregatorRate_flattened.sol\":2422:2429  uint256 */\n      0x00\n        /* \"token_eco_system_dev_contracts/contracts_ready_for_prod/AggregatorRate_flattened.sol\":1152:1157  owner */\n      immutable(\"0xbbd48b257be1b8216d144ef9be5734f8d11697959c9e0f7768bec89db74a63a3\")\n        /* \"token_eco_system_dev_contracts/contracts_ready_for_prod/AggregatorRate_flattened.sol\":1138:1157  msg.sender == owner */\n      0xffffffffffffffffffffffffffffffffffffffff\n      and\n        /* \"token_eco_system_dev_contracts/contracts_ready_for_prod/AggregatorRate_flattened.sol\":1138:1148  msg.sender */\n      caller\n        /* \"token_eco_system_dev_contracts/contracts_ready_for_prod/AggregatorRate_flattened.sol\":1138:1157  msg.sender == owner */\n      0xffffffffffffffffffffffffffffffffffffffff\n      and\n      eq\n        /* \"token_eco_system_dev_contracts/contracts_ready_for_prod/AggregatorRate_flattened.sol\":1130:1177  require(msg.sender == owner, \"Not Authorized!\") */\n      tag_53\n      jumpi\n      mload(0x40)\n      0x08c379a000000000000000000000000000000000000000000000000000000000\n      dup2\n      mstore\n      0x04\n      add\n      tag_54\n      swap1\n      tag_31\n      jump\t// in\n    tag_54:\n      mload(0x40)\n      dup1\n      swap2\n      sub\n      swap1\n      revert\n    tag_53:\n        /* \"token_eco_system_dev_contracts/contracts_ready_for_prod/AggregatorRate_flattened.sol\":2446:2452  active */\n      0x02\n      0x00\n      swap1\n      sload\n      swap1\n      0x0100\n      exp\n      swap1\n      div\n      0xff\n      and\n        /* \"token_eco_system_dev_contracts/contracts_ready_for_prod/AggregatorRate_flattened.sol\":2441:2505  if (!active){... */\n      tag_56\n      jumpi\n        /* \"token_eco_system_dev_contracts/contracts_ready_for_prod/AggregatorRate_flattened.sol\":2474:2475  0 */\n      0x00\n        /* \"token_eco_system_dev_contracts/contracts_ready_for_prod/AggregatorRate_flattened.sol\":2476:2477  0 */\n      dup1\n        /* \"token_eco_system_dev_contracts/contracts_ready_for_prod/AggregatorRate_flattened.sol\":2492:2493  0 */\n      0x00\n        /* \"token_eco_system_dev_contracts/contracts_ready_for_prod/AggregatorRate_flattened.sol\":2467:2494  return(0,0,\"Not active!\",0) */\n      mload(0x40)\n      dup1\n      0x40\n      add\n      0x40\n      mstore\n      dup1\n      0x0b\n      dup2\n      mstore\n      0x20\n      add\n      0x4e6f742061637469766521000000000000000000000000000000000000000000\n      dup2\n      mstore\n      pop\n      swap1\n      swap4\n      pop\n      swap4\n      pop\n      swap4\n      pop\n      swap4\n      pop\n      jump(tag_55)\n        /* \"token_eco_system_dev_contracts/contracts_ready_for_prod/AggregatorRate_flattened.sol\":2441:2505  if (!active){... */\n    tag_56:\n        /* \"token_eco_system_dev_contracts/contracts_ready_for_prod/AggregatorRate_flattened.sol\":2516:2528  int256 price */\n      0x00\n        /* \"token_eco_system_dev_contracts/contracts_ready_for_prod/AggregatorRate_flattened.sol\":2530:2542  uint256 date */\n      dup1\n        /* \"token_eco_system_dev_contracts/contracts_ready_for_prod/AggregatorRate_flattened.sol\":2547:2556  priceFeed */\n      0x00\n      dup1\n      sload\n      swap1\n      0x0100\n      exp\n      swap1\n      div\n      0xffffffffffffffffffffffffffffffffffffffff\n      and\n        /* \"token_eco_system_dev_contracts/contracts_ready_for_prod/AggregatorRate_flattened.sol\":2547:2572  priceFeed.latestRoundData */\n      0xffffffffffffffffffffffffffffffffffffffff\n      and\n      0xfeaf968c\n        /* \"token_eco_system_dev_contracts/contracts_ready_for_prod/AggregatorRate_flattened.sol\":2547:2574  priceFeed.latestRoundData() */\n      mload(0x40)\n      dup2\n      0xffffffff\n      and\n      0xe0\n      shl\n      dup2\n      mstore\n      0x04\n      add\n      0xa0\n      mload(0x40)\n      dup1\n      dup4\n      sub\n      dup2\n      dup7\n      gas\n      staticcall\n      iszero\n      dup1\n      iszero\n      tag_58\n      jumpi\n      returndatasize\n      0x00\n      dup1\n      returndatacopy\n      revert(0x00, returndatasize)\n    tag_58:\n      pop\n      pop\n      pop\n      pop\n      mload(0x40)\n      returndatasize\n      not(0x1f)\n      0x1f\n      dup3\n      add\n      and\n      dup3\n      add\n      dup1\n      0x40\n      mstore\n      pop\n      dup2\n      add\n      swap1\n      tag_59\n      swap2\n      swap1\n      tag_60\n      jump\t// in\n    tag_59:\n        /* \"token_eco_system_dev_contracts/contracts_ready_for_prod/AggregatorRate_flattened.sol\":2514:2574  (,int256 price,,uint256 date,) = priceFeed.latestRoundData() */\n      pop\n      swap4\n      pop\n      pop\n      swap3\n      pop\n      pop\n        /* \"token_eco_system_dev_contracts/contracts_ready_for_prod/AggregatorRate_flattened.sol\":2584:2600  uint256 decimals */\n      0x00\n        /* \"token_eco_system_dev_contracts/contracts_ready_for_prod/AggregatorRate_flattened.sol\":2603:2612  priceFeed */\n      dup1\n      0x00\n      swap1\n      sload\n      swap1\n      0x0100\n      exp\n      swap1\n      div\n      0xffffffffffffffffffffffffffffffffffffffff\n      and\n        /* \"token_eco_system_dev_contracts/contracts_ready_for_prod/AggregatorRate_flattened.sol\":2603:2621  priceFeed.decimals */\n      0xffffffffffffffffffffffffffffffffffffffff\n      and\n      0x313ce567\n        /* \"token_eco_system_dev_contracts/contracts_ready_for_prod/AggregatorRate_flattened.sol\":2603:2623  priceFeed.decimals() */\n      mload(0x40)\n      dup2\n      0xffffffff\n      and\n      0xe0\n      shl\n      dup2\n      mstore\n      0x04\n      add\n      0x20\n      mload(0x40)\n      dup1\n      dup4\n      sub\n      dup2\n      dup7\n      gas\n      staticcall\n      iszero\n      dup1\n      iszero\n      tag_62\n      jumpi\n      returndatasize\n      0x00\n      dup1\n      returndatacopy\n      revert(0x00, returndatasize)\n    tag_62:\n      pop\n      pop\n      pop\n      pop\n      mload(0x40)\n      returndatasize\n      not(0x1f)\n      0x1f\n      dup3\n      add\n      and\n      dup3\n      add\n      dup1\n      0x40\n      mstore\n      pop\n      dup2\n      add\n      swap1\n      tag_63\n      swap2\n      swap1\n      tag_64\n      jump\t// in\n    tag_63:\n        /* \"token_eco_system_dev_contracts/contracts_ready_for_prod/AggregatorRate_flattened.sol\":2584:2623  uint256 decimals = priceFeed.decimals() */\n      0xff\n      and\n      swap1\n      pop\n        /* \"token_eco_system_dev_contracts/contracts_ready_for_prod/AggregatorRate_flattened.sol\":2641:2646  price */\n      dup3\n        /* \"token_eco_system_dev_contracts/contracts_ready_for_prod/AggregatorRate_flattened.sol\":2648:2656  decimals */\n      dup2\n        /* \"token_eco_system_dev_contracts/contracts_ready_for_prod/AggregatorRate_flattened.sol\":2658:2668  rateString */\n      0x01\n        /* \"token_eco_system_dev_contracts/contracts_ready_for_prod/AggregatorRate_flattened.sol\":2670:2674  date */\n      dup5\n        /* \"token_eco_system_dev_contracts/contracts_ready_for_prod/AggregatorRate_flattened.sol\":2633:2675  return (price, decimals, rateString, date) */\n      dup2\n      dup1\n      sload\n      tag_65\n      swap1\n      tag_66\n      jump\t// in\n    tag_65:\n      dup1\n      0x1f\n      add\n      0x20\n      dup1\n      swap2\n      div\n      mul\n      0x20\n      add\n      mload(0x40)\n      swap1\n      dup2\n      add\n      0x40\n      mstore\n      dup1\n      swap3\n      swap2\n      swap1\n      dup2\n      dup2\n      mstore\n      0x20\n      add\n      dup3\n      dup1\n      sload\n      tag_67\n      swap1\n      tag_66\n      jump\t// in\n    tag_67:\n      dup1\n      iszero\n      tag_68\n      jumpi\n      dup1\n      0x1f\n      lt\n      tag_69\n      jumpi\n      0x0100\n      dup1\n      dup4\n      sload\n      div\n      mul\n      dup4\n      mstore\n      swap2\n      0x20\n      add\n      swap2\n      jump(tag_68)\n    tag_69:\n      dup3\n      add\n      swap2\n      swap1\n      0x00\n      mstore\n      keccak256(0x00, 0x20)\n      swap1\n    tag_70:\n      dup2\n      sload\n      dup2\n      mstore\n      swap1\n      0x01\n      add\n      swap1\n      0x20\n      add\n      dup1\n      dup4\n      gt\n      tag_70\n      jumpi\n      dup3\n      swap1\n      sub\n      0x1f\n      and\n      dup3\n      add\n      swap2\n    tag_68:\n      pop\n      pop\n      pop\n      pop\n      pop\n      swap2\n      pop\n      swap7\n      pop\n      swap7\n      pop\n      swap7\n      pop\n      swap7\n      pop\n      pop\n      pop\n      pop\n        /* \"token_eco_system_dev_contracts/contracts_ready_for_prod/AggregatorRate_flattened.sol\":1187:1188  _ */\n    tag_55:\n        /* \"token_eco_system_dev_contracts/contracts_ready_for_prod/AggregatorRate_flattened.sol\":2334:2682  function getLatestRate() public view onlyOwner returns (int256, uint256, string memory, uint256) {... */\n      swap1\n      swap2\n      swap3\n      swap4\n      jump\t// out\n        /* \"token_eco_system_dev_contracts/contracts_ready_for_prod/AggregatorRate_flattened.sol\":1030:1060  address public immutable admin */\n    tag_26:\n      immutable(\"0x6590fa52fa76f967656340b874bc9ca09733c2fddea9886210ebcbbceee04b35\")\n      dup2\n      jump\t// out\n        /* \"#utility.yul\":7:82   */\n    tag_71:\n        /* \"#utility.yul\":40:46   */\n      0x00\n        /* \"#utility.yul\":73:75   */\n      0x40\n        /* \"#utility.yul\":67:76   */\n      mload\n        /* \"#utility.yul\":57:76   */\n      swap1\n      pop\n        /* \"#utility.yul\":7:82   */\n      swap1\n      jump\t// out\n        /* \"#utility.yul\":88:205   */\n    tag_72:\n        /* \"#utility.yul\":197:198   */\n      0x00\n        /* \"#utility.yul\":194:195   */\n      dup1\n        /* \"#utility.yul\":187:199   */\n      revert\n        /* \"#utility.yul\":211:328   */\n    tag_73:\n        /* \"#utility.yul\":320:321   */\n      0x00\n        /* \"#utility.yul\":317:318   */\n      dup1\n        /* \"#utility.yul\":310:322   */\n      revert\n        /* \"#utility.yul\":334:451   */\n    tag_74:\n        /* \"#utility.yul\":443:444   */\n      0x00\n        /* \"#utility.yul\":440:441   */\n      dup1\n        /* \"#utility.yul\":433:445   */\n      revert\n        /* \"#utility.yul\":457:574   */\n    tag_75:\n        /* \"#utility.yul\":566:567   */\n      0x00\n        /* \"#utility.yul\":563:564   */\n      dup1\n        /* \"#utility.yul\":556:568   */\n      revert\n        /* \"#utility.yul\":580:682   */\n    tag_76:\n        /* \"#utility.yul\":621:627   */\n      0x00\n        /* \"#utility.yul\":672:674   */\n      0x1f\n        /* \"#utility.yul\":668:675   */\n      not\n        /* \"#utility.yul\":663:665   */\n      0x1f\n        /* \"#utility.yul\":656:661   */\n      dup4\n        /* \"#utility.yul\":652:666   */\n      add\n        /* \"#utility.yul\":648:676   */\n      and\n        /* \"#utility.yul\":638:676   */\n      swap1\n      pop\n        /* \"#utility.yul\":580:682   */\n      swap2\n      swap1\n      pop\n      jump\t// out\n        /* \"#utility.yul\":688:868   */\n    tag_77:\n        /* \"#utility.yul\":736:813   */\n      0x4e487b7100000000000000000000000000000000000000000000000000000000\n        /* \"#utility.yul\":733:734   */\n      0x00\n        /* \"#utility.yul\":726:814   */\n      mstore\n        /* \"#utility.yul\":833:837   */\n      0x41\n        /* \"#utility.yul\":830:831   */\n      0x04\n        /* \"#utility.yul\":823:838   */\n      mstore\n        /* \"#utility.yul\":857:861   */\n      0x24\n        /* \"#utility.yul\":854:855   */\n      0x00\n        /* \"#utility.yul\":847:862   */\n      revert\n        /* \"#utility.yul\":874:1155   */\n    tag_78:\n        /* \"#utility.yul\":957:984   */\n      tag_141\n        /* \"#utility.yul\":979:983   */\n      dup3\n        /* \"#utility.yul\":957:984   */\n      tag_76\n      jump\t// in\n    tag_141:\n        /* \"#utility.yul\":949:955   */\n      dup2\n        /* \"#utility.yul\":945:985   */\n      add\n        /* \"#utility.yul\":1087:1093   */\n      dup2\n        /* \"#utility.yul\":1075:1085   */\n      dup2\n        /* \"#utility.yul\":1072:1094   */\n      lt\n        /* \"#utility.yul\":1051:1069   */\n      0xffffffffffffffff\n        /* \"#utility.yul\":1039:1049   */\n      dup3\n        /* \"#utility.yul\":1036:1070   */\n      gt\n        /* \"#utility.yul\":1033:1095   */\n      or\n        /* \"#utility.yul\":1030:1118   */\n      iszero\n      tag_142\n      jumpi\n        /* \"#utility.yul\":1098:1116   */\n      tag_143\n      tag_77\n      jump\t// in\n    tag_143:\n        /* \"#utility.yul\":1030:1118   */\n    tag_142:\n        /* \"#utility.yul\":1138:1148   */\n      dup1\n        /* \"#utility.yul\":1134:1136   */\n      0x40\n        /* \"#utility.yul\":1127:1149   */\n      mstore\n        /* \"#utility.yul\":917:1155   */\n      pop\n        /* \"#utility.yul\":874:1155   */\n      pop\n      pop\n      jump\t// out\n        /* \"#utility.yul\":1161:1290   */\n    tag_79:\n        /* \"#utility.yul\":1195:1201   */\n      0x00\n        /* \"#utility.yul\":1222:1242   */\n      tag_145\n      tag_71\n      jump\t// in\n    tag_145:\n        /* \"#utility.yul\":1212:1242   */\n      swap1\n      pop\n        /* \"#utility.yul\":1251:1284   */\n      tag_146\n        /* \"#utility.yul\":1279:1283   */\n      dup3\n        /* \"#utility.yul\":1271:1277   */\n      dup3\n        /* \"#utility.yul\":1251:1284   */\n      tag_78\n      jump\t// in\n    tag_146:\n        /* \"#utility.yul\":1161:1290   */\n      swap2\n      swap1\n      pop\n      jump\t// out\n        /* \"#utility.yul\":1296:1604   */\n    tag_80:\n        /* \"#utility.yul\":1358:1362   */\n      0x00\n        /* \"#utility.yul\":1448:1466   */\n      0xffffffffffffffff\n        /* \"#utility.yul\":1440:1446   */\n      dup3\n        /* \"#utility.yul\":1437:1467   */\n      gt\n        /* \"#utility.yul\":1434:1490   */\n      iszero\n      tag_148\n      jumpi\n        /* \"#utility.yul\":1470:1488   */\n      tag_149\n      tag_77\n      jump\t// in\n    tag_149:\n        /* \"#utility.yul\":1434:1490   */\n    tag_148:\n        /* \"#utility.yul\":1508:1537   */\n      tag_150\n        /* \"#utility.yul\":1530:1536   */\n      dup3\n        /* \"#utility.yul\":1508:1537   */\n      tag_76\n      jump\t// in\n    tag_150:\n        /* \"#utility.yul\":1500:1537   */\n      swap1\n      pop\n        /* \"#utility.yul\":1592:1596   */\n      0x20\n        /* \"#utility.yul\":1586:1590   */\n      dup2\n        /* \"#utility.yul\":1582:1597   */\n      add\n        /* \"#utility.yul\":1574:1597   */\n      swap1\n      pop\n        /* \"#utility.yul\":1296:1604   */\n      swap2\n      swap1\n      pop\n      jump\t// out\n        /* \"#utility.yul\":1610:1756   */\n    tag_81:\n        /* \"#utility.yul\":1707:1713   */\n      dup3\n        /* \"#utility.yul\":1702:1705   */\n      dup2\n        /* \"#utility.yul\":1697:1700   */\n      dup4\n        /* \"#utility.yul\":1684:1714   */\n      calldatacopy\n        /* \"#utility.yul\":1748:1749   */\n      0x00\n        /* \"#utility.yul\":1739:1745   */\n      dup4\n        /* \"#utility.yul\":1734:1737   */\n      dup4\n        /* \"#utility.yul\":1730:1746   */\n      add\n        /* \"#utility.yul\":1723:1750   */\n      mstore\n        /* \"#utility.yul\":1610:1756   */\n      pop\n      pop\n      pop\n      jump\t// out\n        /* \"#utility.yul\":1762:2187   */\n    tag_82:\n        /* \"#utility.yul\":1840:1845   */\n      0x00\n        /* \"#utility.yul\":1865:1931   */\n      tag_153\n        /* \"#utility.yul\":1881:1930   */\n      tag_154\n        /* \"#utility.yul\":1923:1929   */\n      dup5\n        /* \"#utility.yul\":1881:1930   */\n      tag_80\n      jump\t// in\n    tag_154:\n        /* \"#utility.yul\":1865:1931   */\n      tag_79\n      jump\t// in\n    tag_153:\n        /* \"#utility.yul\":1856:1931   */\n      swap1\n      pop\n        /* \"#utility.yul\":1954:1960   */\n      dup3\n        /* \"#utility.yul\":1947:1952   */\n      dup2\n        /* \"#utility.yul\":1940:1961   */\n      mstore\n        /* \"#utility.yul\":1992:1996   */\n      0x20\n        /* \"#utility.yul\":1985:1990   */\n      dup2\n        /* \"#utility.yul\":1981:1997   */\n      add\n        /* \"#utility.yul\":2030:2033   */\n      dup5\n        /* \"#utility.yul\":2021:2027   */\n      dup5\n        /* \"#utility.yul\":2016:2019   */\n      dup5\n        /* \"#utility.yul\":2012:2028   */\n      add\n        /* \"#utility.yul\":2009:2034   */\n      gt\n        /* \"#utility.yul\":2006:2118   */\n      iszero\n      tag_155\n      jumpi\n        /* \"#utility.yul\":2037:2116   */\n      tag_156\n      tag_75\n      jump\t// in\n    tag_156:\n        /* \"#utility.yul\":2006:2118   */\n    tag_155:\n        /* \"#utility.yul\":2127:2181   */\n      tag_157\n        /* \"#utility.yul\":2174:2180   */\n      dup5\n        /* \"#utility.yul\":2169:2172   */\n      dup3\n        /* \"#utility.yul\":2164:2167   */\n      dup6\n        /* \"#utility.yul\":2127:2181   */\n      tag_81\n      jump\t// in\n    tag_157:\n        /* \"#utility.yul\":1846:2187   */\n      pop\n        /* \"#utility.yul\":1762:2187   */\n      swap4\n      swap3\n      pop\n      pop\n      pop\n      jump\t// out\n        /* \"#utility.yul\":2207:2547   */\n    tag_83:\n        /* \"#utility.yul\":2263:2268   */\n      0x00\n        /* \"#utility.yul\":2312:2315   */\n      dup3\n        /* \"#utility.yul\":2305:2309   */\n      0x1f\n        /* \"#utility.yul\":2297:2303   */\n      dup4\n        /* \"#utility.yul\":2293:2310   */\n      add\n        /* \"#utility.yul\":2289:2316   */\n      slt\n        /* \"#utility.yul\":2279:2401   */\n      tag_159\n      jumpi\n        /* \"#utility.yul\":2320:2399   */\n      tag_160\n      tag_74\n      jump\t// in\n    tag_160:\n        /* \"#utility.yul\":2279:2401   */\n    tag_159:\n        /* \"#utility.yul\":2437:2443   */\n      dup2\n        /* \"#utility.yul\":2424:2444   */\n      calldataload\n        /* \"#utility.yul\":2462:2541   */\n      tag_161\n        /* \"#utility.yul\":2537:2540   */\n      dup5\n        /* \"#utility.yul\":2529:2535   */\n      dup3\n        /* \"#utility.yul\":2522:2526   */\n      0x20\n        /* \"#utility.yul\":2514:2520   */\n      dup7\n        /* \"#utility.yul\":2510:2527   */\n      add\n        /* \"#utility.yul\":2462:2541   */\n      tag_82\n      jump\t// in\n    tag_161:\n        /* \"#utility.yul\":2453:2541   */\n      swap2\n      pop\n        /* \"#utility.yul\":2269:2547   */\n      pop\n        /* \"#utility.yul\":2207:2547   */\n      swap3\n      swap2\n      pop\n      pop\n      jump\t// out\n        /* \"#utility.yul\":2553:2679   */\n    tag_84:\n        /* \"#utility.yul\":2590:2597   */\n      0x00\n        /* \"#utility.yul\":2630:2672   */\n      0xffffffffffffffffffffffffffffffffffffffff\n        /* \"#utility.yul\":2623:2628   */\n      dup3\n        /* \"#utility.yul\":2619:2673   */\n      and\n        /* \"#utility.yul\":2608:2673   */\n      swap1\n      pop\n        /* \"#utility.yul\":2553:2679   */\n      swap2\n      swap1\n      pop\n      jump\t// out\n        /* \"#utility.yul\":2685:2781   */\n    tag_85:\n        /* \"#utility.yul\":2722:2729   */\n      0x00\n        /* \"#utility.yul\":2751:2775   */\n      tag_164\n        /* \"#utility.yul\":2769:2774   */\n      dup3\n        /* \"#utility.yul\":2751:2775   */\n      tag_84\n      jump\t// in\n    tag_164:\n        /* \"#utility.yul\":2740:2775   */\n      swap1\n      pop\n        /* \"#utility.yul\":2685:2781   */\n      swap2\n      swap1\n      pop\n      jump\t// out\n        /* \"#utility.yul\":2787:2909   */\n    tag_86:\n        /* \"#utility.yul\":2860:2884   */\n      tag_166\n        /* \"#utility.yul\":2878:2883   */\n      dup2\n        /* \"#utility.yul\":2860:2884   */\n      tag_85\n      jump\t// in\n    tag_166:\n        /* \"#utility.yul\":2853:2858   */\n      dup2\n        /* \"#utility.yul\":2850:2885   */\n      eq\n        /* \"#utility.yul\":2840:2903   */\n      tag_167\n      jumpi\n        /* \"#utility.yul\":2899:2900   */\n      0x00\n        /* \"#utility.yul\":2896:2897   */\n      dup1\n        /* \"#utility.yul\":2889:2901   */\n      revert\n        /* \"#utility.yul\":2840:2903   */\n    tag_167:\n        /* \"#utility.yul\":2787:2909   */\n      pop\n      jump\t// out\n        /* \"#utility.yul\":2915:3054   */\n    tag_87:\n        /* \"#utility.yul\":2961:2966   */\n      0x00\n        /* \"#utility.yul\":2999:3005   */\n      dup2\n        /* \"#utility.yul\":2986:3006   */\n      calldataload\n        /* \"#utility.yul\":2977:3006   */\n      swap1\n      pop\n        /* \"#utility.yul\":3015:3048   */\n      tag_169\n        /* \"#utility.yul\":3042:3047   */\n      dup2\n        /* \"#utility.yul\":3015:3048   */\n      tag_86\n      jump\t// in\n    tag_169:\n        /* \"#utility.yul\":2915:3054   */\n      swap3\n      swap2\n      pop\n      pop\n      jump\t// out\n        /* \"#utility.yul\":3060:4039   */\n    tag_11:\n        /* \"#utility.yul\":3157:3163   */\n      0x00\n        /* \"#utility.yul\":3165:3171   */\n      dup1\n        /* \"#utility.yul\":3173:3179   */\n      0x00\n        /* \"#utility.yul\":3222:3224   */\n      0x60\n        /* \"#utility.yul\":3210:3219   */\n      dup5\n        /* \"#utility.yul\":3201:3208   */\n      dup7\n        /* \"#utility.yul\":3197:3220   */\n      sub\n        /* \"#utility.yul\":3193:3225   */\n      slt\n        /* \"#utility.yul\":3190:3309   */\n      iszero\n      tag_171\n      jumpi\n        /* \"#utility.yul\":3228:3307   */\n      tag_172\n      tag_72\n      jump\t// in\n    tag_172:\n        /* \"#utility.yul\":3190:3309   */\n    tag_171:\n        /* \"#utility.yul\":3376:3377   */\n      0x00\n        /* \"#utility.yul\":3365:3374   */\n      dup5\n        /* \"#utility.yul\":3361:3378   */\n      add\n        /* \"#utility.yul\":3348:3379   */\n      calldataload\n        /* \"#utility.yul\":3406:3424   */\n      0xffffffffffffffff\n        /* \"#utility.yul\":3398:3404   */\n      dup2\n        /* \"#utility.yul\":3395:3425   */\n      gt\n        /* \"#utility.yul\":3392:3509   */\n      iszero\n      tag_173\n      jumpi\n        /* \"#utility.yul\":3428:3507   */\n      tag_174\n      tag_73\n      jump\t// in\n    tag_174:\n        /* \"#utility.yul\":3392:3509   */\n    tag_173:\n        /* \"#utility.yul\":3533:3596   */\n      tag_175\n        /* \"#utility.yul\":3588:3595   */\n      dup7\n        /* \"#utility.yul\":3579:3585   */\n      dup3\n        /* \"#utility.yul\":3568:3577   */\n      dup8\n        /* \"#utility.yul\":3564:3586   */\n      add\n        /* \"#utility.yul\":3533:3596   */\n      tag_83\n      jump\t// in\n    tag_175:\n        /* \"#utility.yul\":3523:3596   */\n      swap4\n      pop\n        /* \"#utility.yul\":3319:3606   */\n      pop\n        /* \"#utility.yul\":3673:3675   */\n      0x20\n        /* \"#utility.yul\":3662:3671   */\n      dup5\n        /* \"#utility.yul\":3658:3676   */\n      add\n        /* \"#utility.yul\":3645:3677   */\n      calldataload\n        /* \"#utility.yul\":3704:3722   */\n      0xffffffffffffffff\n        /* \"#utility.yul\":3696:3702   */\n      dup2\n        /* \"#utility.yul\":3693:3723   */\n      gt\n        /* \"#utility.yul\":3690:3807   */\n      iszero\n      tag_176\n      jumpi\n        /* \"#utility.yul\":3726:3805   */\n      tag_177\n      tag_73\n      jump\t// in\n    tag_177:\n        /* \"#utility.yul\":3690:3807   */\n    tag_176:\n        /* \"#utility.yul\":3831:3894   */\n      tag_178\n        /* \"#utility.yul\":3886:3893   */\n      dup7\n        /* \"#utility.yul\":3877:3883   */\n      dup3\n        /* \"#utility.yul\":3866:3875   */\n      dup8\n        /* \"#utility.yul\":3862:3884   */\n      add\n        /* \"#utility.yul\":3831:3894   */\n      tag_83\n      jump\t// in\n    tag_178:\n        /* \"#utility.yul\":3821:3894   */\n      swap3\n      pop\n        /* \"#utility.yul\":3616:3904   */\n      pop\n        /* \"#utility.yul\":3943:3945   */\n      0x40\n        /* \"#utility.yul\":3969:4022   */\n      tag_179\n        /* \"#utility.yul\":4014:4021   */\n      dup7\n        /* \"#utility.yul\":4005:4011   */\n      dup3\n        /* \"#utility.yul\":3994:4003   */\n      dup8\n        /* \"#utility.yul\":3990:4012   */\n      add\n        /* \"#utility.yul\":3969:4022   */\n      tag_87\n      jump\t// in\n    tag_179:\n        /* \"#utility.yul\":3959:4022   */\n      swap2\n      pop\n        /* \"#utility.yul\":3914:4032   */\n      pop\n        /* \"#utility.yul\":3060:4039   */\n      swap3\n      pop\n      swap3\n      pop\n      swap3\n      jump\t// out\n        /* \"#utility.yul\":4045:4163   */\n    tag_88:\n        /* \"#utility.yul\":4132:4156   */\n      tag_181\n        /* \"#utility.yul\":4150:4155   */\n      dup2\n        /* \"#utility.yul\":4132:4156   */\n      tag_85\n      jump\t// in\n    tag_181:\n        /* \"#utility.yul\":4127:4130   */\n      dup3\n        /* \"#utility.yul\":4120:4157   */\n      mstore\n        /* \"#utility.yul\":4045:4163   */\n      pop\n      pop\n      jump\t// out\n        /* \"#utility.yul\":4169:4391   */\n    tag_20:\n        /* \"#utility.yul\":4262:4266   */\n      0x00\n        /* \"#utility.yul\":4300:4302   */\n      0x20\n        /* \"#utility.yul\":4289:4298   */\n      dup3\n        /* \"#utility.yul\":4285:4303   */\n      add\n        /* \"#utility.yul\":4277:4303   */\n      swap1\n      pop\n        /* \"#utility.yul\":4313:4384   */\n      tag_183\n        /* \"#utility.yul\":4381:4382   */\n      0x00\n        /* \"#utility.yul\":4370:4379   */\n      dup4\n        /* \"#utility.yul\":4366:4383   */\n      add\n        /* \"#utility.yul\":4357:4363   */\n      dup5\n        /* \"#utility.yul\":4313:4384   */\n      tag_88\n      jump\t// in\n    tag_183:\n        /* \"#utility.yul\":4169:4391   */\n      swap3\n      swap2\n      pop\n      pop\n      jump\t// out\n        /* \"#utility.yul\":4397:4473   */\n    tag_89:\n        /* \"#utility.yul\":4433:4440   */\n      0x00\n        /* \"#utility.yul\":4462:4467   */\n      dup2\n        /* \"#utility.yul\":4451:4467   */\n      swap1\n      pop\n        /* \"#utility.yul\":4397:4473   */\n      swap2\n      swap1\n      pop\n      jump\t// out\n        /* \"#utility.yul\":4479:4594   */\n    tag_90:\n        /* \"#utility.yul\":4564:4587   */\n      tag_186\n        /* \"#utility.yul\":4581:4586   */\n      dup2\n        /* \"#utility.yul\":4564:4587   */\n      tag_89\n      jump\t// in\n    tag_186:\n        /* \"#utility.yul\":4559:4562   */\n      dup3\n        /* \"#utility.yul\":4552:4588   */\n      mstore\n        /* \"#utility.yul\":4479:4594   */\n      pop\n      pop\n      jump\t// out\n        /* \"#utility.yul\":4600:4677   */\n    tag_91:\n        /* \"#utility.yul\":4637:4644   */\n      0x00\n        /* \"#utility.yul\":4666:4671   */\n      dup2\n        /* \"#utility.yul\":4655:4671   */\n      swap1\n      pop\n        /* \"#utility.yul\":4600:4677   */\n      swap2\n      swap1\n      pop\n      jump\t// out\n        /* \"#utility.yul\":4683:4801   */\n    tag_92:\n        /* \"#utility.yul\":4770:4794   */\n      tag_189\n        /* \"#utility.yul\":4788:4793   */\n      dup2\n        /* \"#utility.yul\":4770:4794   */\n      tag_91\n      jump\t// in\n    tag_189:\n        /* \"#utility.yul\":4765:4768   */\n      dup3\n        /* \"#utility.yul\":4758:4795   */\n      mstore\n        /* \"#utility.yul\":4683:4801   */\n      pop\n      pop\n      jump\t// out\n        /* \"#utility.yul\":4807:4906   */\n    tag_93:\n        /* \"#utility.yul\":4859:4865   */\n      0x00\n        /* \"#utility.yul\":4893:4898   */\n      dup2\n        /* \"#utility.yul\":4887:4899   */\n      mload\n        /* \"#utility.yul\":4877:4899   */\n      swap1\n      pop\n        /* \"#utility.yul\":4807:4906   */\n      swap2\n      swap1\n      pop\n      jump\t// out\n        /* \"#utility.yul\":4912:5081   */\n    tag_94:\n        /* \"#utility.yul\":4996:5007   */\n      0x00\n        /* \"#utility.yul\":5030:5036   */\n      dup3\n        /* \"#utility.yul\":5025:5028   */\n      dup3\n        /* \"#utility.yul\":5018:5037   */\n      mstore\n        /* \"#utility.yul\":5070:5074   */\n      0x20\n        /* \"#utility.yul\":5065:5068   */\n      dup3\n        /* \"#utility.yul\":5061:5075   */\n      add\n        /* \"#utility.yul\":5046:5075   */\n      swap1\n      pop\n        /* \"#utility.yul\":4912:5081   */\n      swap3\n      swap2\n      pop\n      pop\n      jump\t// out\n        /* \"#utility.yul\":5087:5333   */\n    tag_95:\n        /* \"#utility.yul\":5168:5169   */\n      0x00\n        /* \"#utility.yul\":5178:5291   */\n    tag_193:\n        /* \"#utility.yul\":5192:5198   */\n      dup4\n        /* \"#utility.yul\":5189:5190   */\n      dup2\n        /* \"#utility.yul\":5186:5199   */\n      lt\n        /* \"#utility.yul\":5178:5291   */\n      iszero\n      tag_195\n      jumpi\n        /* \"#utility.yul\":5277:5278   */\n      dup1\n        /* \"#utility.yul\":5272:5275   */\n      dup3\n        /* \"#utility.yul\":5268:5279   */\n      add\n        /* \"#utility.yul\":5262:5280   */\n      mload\n        /* \"#utility.yul\":5258:5259   */\n      dup2\n        /* \"#utility.yul\":5253:5256   */\n      dup5\n        /* \"#utility.yul\":5249:5260   */\n      add\n        /* \"#utility.yul\":5242:5281   */\n      mstore\n        /* \"#utility.yul\":5214:5216   */\n      0x20\n        /* \"#utility.yul\":5211:5212   */\n      dup2\n        /* \"#utility.yul\":5207:5217   */\n      add\n        /* \"#utility.yul\":5202:5217   */\n      swap1\n      pop\n        /* \"#utility.yul\":5178:5291   */\n      jump(tag_193)\n    tag_195:\n        /* \"#utility.yul\":5325:5326   */\n      0x00\n        /* \"#utility.yul\":5316:5322   */\n      dup5\n        /* \"#utility.yul\":5311:5314   */\n      dup5\n        /* \"#utility.yul\":5307:5323   */\n      add\n        /* \"#utility.yul\":5300:5327   */\n      mstore\n        /* \"#utility.yul\":5149:5333   */\n      pop\n        /* \"#utility.yul\":5087:5333   */\n      pop\n      pop\n      pop\n      jump\t// out\n        /* \"#utility.yul\":5339:5716   */\n    tag_96:\n        /* \"#utility.yul\":5427:5430   */\n      0x00\n        /* \"#utility.yul\":5455:5494   */\n      tag_197\n        /* \"#utility.yul\":5488:5493   */\n      dup3\n        /* \"#utility.yul\":5455:5494   */\n      tag_93\n      jump\t// in\n    tag_197:\n        /* \"#utility.yul\":5510:5581   */\n      tag_198\n        /* \"#utility.yul\":5574:5580   */\n      dup2\n        /* \"#utility.yul\":5569:5572   */\n      dup6\n        /* \"#utility.yul\":5510:5581   */\n      tag_94\n      jump\t// in\n    tag_198:\n        /* \"#utility.yul\":5503:5581   */\n      swap4\n      pop\n        /* \"#utility.yul\":5590:5655   */\n      tag_199\n        /* \"#utility.yul\":5648:5654   */\n      dup2\n        /* \"#utility.yul\":5643:5646   */\n      dup6\n        /* \"#utility.yul\":5636:5640   */\n      0x20\n        /* \"#utility.yul\":5629:5634   */\n      dup7\n        /* \"#utility.yul\":5625:5641   */\n      add\n        /* \"#utility.yul\":5590:5655   */\n      tag_95\n      jump\t// in\n    tag_199:\n        /* \"#utility.yul\":5680:5709   */\n      tag_200\n        /* \"#utility.yul\":5702:5708   */\n      dup2\n        /* \"#utility.yul\":5680:5709   */\n      tag_76\n      jump\t// in\n    tag_200:\n        /* \"#utility.yul\":5675:5678   */\n      dup5\n        /* \"#utility.yul\":5671:5710   */\n      add\n        /* \"#utility.yul\":5664:5710   */\n      swap2\n      pop\n        /* \"#utility.yul\":5431:5716   */\n      pop\n        /* \"#utility.yul\":5339:5716   */\n      swap3\n      swap2\n      pop\n      pop\n      jump\t// out\n        /* \"#utility.yul\":5722:6362   */\n    tag_24:\n        /* \"#utility.yul\":5917:5921   */\n      0x00\n        /* \"#utility.yul\":5955:5958   */\n      0x80\n        /* \"#utility.yul\":5944:5953   */\n      dup3\n        /* \"#utility.yul\":5940:5959   */\n      add\n        /* \"#utility.yul\":5932:5959   */\n      swap1\n      pop\n        /* \"#utility.yul\":5969:6038   */\n      tag_202\n        /* \"#utility.yul\":6035:6036   */\n      0x00\n        /* \"#utility.yul\":6024:6033   */\n      dup4\n        /* \"#utility.yul\":6020:6037   */\n      add\n        /* \"#utility.yul\":6011:6017   */\n      dup8\n        /* \"#utility.yul\":5969:6038   */\n      tag_90\n      jump\t// in\n    tag_202:\n        /* \"#utility.yul\":6048:6120   */\n      tag_203\n        /* \"#utility.yul\":6116:6118   */\n      0x20\n        /* \"#utility.yul\":6105:6114   */\n      dup4\n        /* \"#utility.yul\":6101:6119   */\n      add\n        /* \"#utility.yul\":6092:6098   */\n      dup7\n        /* \"#utility.yul\":6048:6120   */\n      tag_92\n      jump\t// in\n    tag_203:\n        /* \"#utility.yul\":6167:6176   */\n      dup2\n        /* \"#utility.yul\":6161:6165   */\n      dup2\n        /* \"#utility.yul\":6157:6177   */\n      sub\n        /* \"#utility.yul\":6152:6154   */\n      0x40\n        /* \"#utility.yul\":6141:6150   */\n      dup4\n        /* \"#utility.yul\":6137:6155   */\n      add\n        /* \"#utility.yul\":6130:6178   */\n      mstore\n        /* \"#utility.yul\":6195:6273   */\n      tag_204\n        /* \"#utility.yul\":6268:6272   */\n      dup2\n        /* \"#utility.yul\":6259:6265   */\n      dup6\n        /* \"#utility.yul\":6195:6273   */\n      tag_96\n      jump\t// in\n    tag_204:\n        /* \"#utility.yul\":6187:6273   */\n      swap1\n      pop\n        /* \"#utility.yul\":6283:6355   */\n      tag_205\n        /* \"#utility.yul\":6351:6353   */\n      0x60\n        /* \"#utility.yul\":6340:6349   */\n      dup4\n        /* \"#utility.yul\":6336:6354   */\n      add\n        /* \"#utility.yul\":6327:6333   */\n      dup5\n        /* \"#utility.yul\":6283:6355   */\n      tag_92\n      jump\t// in\n    tag_205:\n        /* \"#utility.yul\":5722:6362   */\n      swap6\n      swap5\n      pop\n      pop\n      pop\n      pop\n      pop\n      jump\t// out\n        /* \"#utility.yul\":6368:6533   */\n    tag_97:\n        /* \"#utility.yul\":6508:6525   */\n      0x4e6f7420417574686f72697a6564210000000000000000000000000000000000\n        /* \"#utility.yul\":6504:6505   */\n      0x00\n        /* \"#utility.yul\":6496:6502   */\n      dup3\n        /* \"#utility.yul\":6492:6506   */\n      add\n        /* \"#utility.yul\":6485:6526   */\n      mstore\n        /* \"#utility.yul\":6368:6533   */\n      pop\n      jump\t// out\n        /* \"#utility.yul\":6539:6905   */\n    tag_98:\n        /* \"#utility.yul\":6681:6684   */\n      0x00\n        /* \"#utility.yul\":6702:6769   */\n      tag_208\n        /* \"#utility.yul\":6766:6768   */\n      0x0f\n        /* \"#utility.yul\":6761:6764   */\n      dup4\n        /* \"#utility.yul\":6702:6769   */\n      tag_94\n      jump\t// in\n    tag_208:\n        /* \"#utility.yul\":6695:6769   */\n      swap2\n      pop\n        /* \"#utility.yul\":6778:6871   */\n      tag_209\n        /* \"#utility.yul\":6867:6870   */\n      dup3\n        /* \"#utility.yul\":6778:6871   */\n      tag_97\n      jump\t// in\n    tag_209:\n        /* \"#utility.yul\":6896:6898   */\n      0x20\n        /* \"#utility.yul\":6891:6894   */\n      dup3\n        /* \"#utility.yul\":6887:6899   */\n      add\n        /* \"#utility.yul\":6880:6899   */\n      swap1\n      pop\n        /* \"#utility.yul\":6539:6905   */\n      swap2\n      swap1\n      pop\n      jump\t// out\n        /* \"#utility.yul\":6911:7330   */\n    tag_31:\n        /* \"#utility.yul\":7077:7081   */\n      0x00\n        /* \"#utility.yul\":7115:7117   */\n      0x20\n        /* \"#utility.yul\":7104:7113   */\n      dup3\n        /* \"#utility.yul\":7100:7118   */\n      add\n        /* \"#utility.yul\":7092:7118   */\n      swap1\n      pop\n        /* \"#utility.yul\":7164:7173   */\n      dup2\n        /* \"#utility.yul\":7158:7162   */\n      dup2\n        /* \"#utility.yul\":7154:7174   */\n      sub\n        /* \"#utility.yul\":7150:7151   */\n      0x00\n        /* \"#utility.yul\":7139:7148   */\n      dup4\n        /* \"#utility.yul\":7135:7152   */\n      add\n        /* \"#utility.yul\":7128:7175   */\n      mstore\n        /* \"#utility.yul\":7192:7323   */\n      tag_211\n        /* \"#utility.yul\":7318:7322   */\n      dup2\n        /* \"#utility.yul\":7192:7323   */\n      tag_98\n      jump\t// in\n    tag_211:\n        /* \"#utility.yul\":7184:7323   */\n      swap1\n      pop\n        /* \"#utility.yul\":6911:7330   */\n      swap2\n      swap1\n      pop\n      jump\t// out\n        /* \"#utility.yul\":7336:7484   */\n    tag_99:\n        /* \"#utility.yul\":7438:7449   */\n      0x00\n        /* \"#utility.yul\":7475:7478   */\n      dup2\n        /* \"#utility.yul\":7460:7478   */\n      swap1\n      pop\n        /* \"#utility.yul\":7336:7484   */\n      swap3\n      swap2\n      pop\n      pop\n      jump\t// out\n        /* \"#utility.yul\":7490:7880   */\n    tag_100:\n        /* \"#utility.yul\":7596:7599   */\n      0x00\n        /* \"#utility.yul\":7624:7663   */\n      tag_214\n        /* \"#utility.yul\":7657:7662   */\n      dup3\n        /* \"#utility.yul\":7624:7663   */\n      tag_93\n      jump\t// in\n    tag_214:\n        /* \"#utility.yul\":7679:7768   */\n      tag_215\n        /* \"#utility.yul\":7761:7767   */\n      dup2\n        /* \"#utility.yul\":7756:7759   */\n      dup6\n        /* \"#utility.yul\":7679:7768   */\n      tag_99\n      jump\t// in\n    tag_215:\n        /* \"#utility.yul\":7672:7768   */\n      swap4\n      pop\n        /* \"#utility.yul\":7777:7842   */\n      tag_216\n        /* \"#utility.yul\":7835:7841   */\n      dup2\n        /* \"#utility.yul\":7830:7833   */\n      dup6\n        /* \"#utility.yul\":7823:7827   */\n      0x20\n        /* \"#utility.yul\":7816:7821   */\n      dup7\n        /* \"#utility.yul\":7812:7828   */\n      add\n        /* \"#utility.yul\":7777:7842   */\n      tag_95\n      jump\t// in\n    tag_216:\n        /* \"#utility.yul\":7867:7873   */\n      dup1\n        /* \"#utility.yul\":7862:7865   */\n      dup5\n        /* \"#utility.yul\":7858:7874   */\n      add\n        /* \"#utility.yul\":7851:7874   */\n      swap2\n      pop\n        /* \"#utility.yul\":7600:7880   */\n      pop\n        /* \"#utility.yul\":7490:7880   */\n      swap3\n      swap2\n      pop\n      pop\n      jump\t// out\n        /* \"#utility.yul\":7886:8064   */\n    tag_101:\n        /* \"#utility.yul\":8054:8057   */\n      0x2f00000000000000000000000000000000000000000000000000000000000000\n        /* \"#utility.yul\":8049:8052   */\n      dup2\n        /* \"#utility.yul\":8042:8058   */\n      mstore\n        /* \"#utility.yul\":7886:8064   */\n      pop\n      jump\t// out\n        /* \"#utility.yul\":8070:8769   */\n    tag_35:\n        /* \"#utility.yul\":8340:8343   */\n      0x00\n        /* \"#utility.yul\":8362:8457   */\n      tag_219\n        /* \"#utility.yul\":8453:8456   */\n      dup3\n        /* \"#utility.yul\":8444:8450   */\n      dup6\n        /* \"#utility.yul\":8362:8457   */\n      tag_100\n      jump\t// in\n    tag_219:\n        /* \"#utility.yul\":8355:8457   */\n      swap2\n      pop\n        /* \"#utility.yul\":8467:8604   */\n      tag_220\n        /* \"#utility.yul\":8600:8603   */\n      dup3\n        /* \"#utility.yul\":8467:8604   */\n      tag_101\n      jump\t// in\n    tag_220:\n        /* \"#utility.yul\":8629:8630   */\n      0x01\n        /* \"#utility.yul\":8624:8627   */\n      dup3\n        /* \"#utility.yul\":8620:8631   */\n      add\n        /* \"#utility.yul\":8613:8631   */\n      swap2\n      pop\n        /* \"#utility.yul\":8648:8743   */\n      tag_221\n        /* \"#utility.yul\":8739:8742   */\n      dup3\n        /* \"#utility.yul\":8730:8736   */\n      dup5\n        /* \"#utility.yul\":8648:8743   */\n      tag_100\n      jump\t// in\n    tag_221:\n        /* \"#utility.yul\":8641:8743   */\n      swap2\n      pop\n        /* \"#utility.yul\":8760:8763   */\n      dup2\n        /* \"#utility.yul\":8753:8763   */\n      swap1\n      pop\n        /* \"#utility.yul\":8070:8769   */\n      swap4\n      swap3\n      pop\n      pop\n      pop\n      jump\t// out\n        /* \"#utility.yul\":8775:8955   */\n    tag_102:\n        /* \"#utility.yul\":8823:8900   */\n      0x4e487b7100000000000000000000000000000000000000000000000000000000\n        /* \"#utility.yul\":8820:8821   */\n      0x00\n        /* \"#utility.yul\":8813:8901   */\n      mstore\n        /* \"#utility.yul\":8920:8924   */\n      0x22\n        /* \"#utility.yul\":8917:8918   */\n      0x04\n        /* \"#utility.yul\":8910:8925   */\n      mstore\n        /* \"#utility.yul\":8944:8948   */\n      0x24\n        /* \"#utility.yul\":8941:8942   */\n      0x00\n        /* \"#utility.yul\":8934:8949   */\n      revert\n        /* \"#utility.yul\":8961:9281   */\n    tag_66:\n        /* \"#utility.yul\":9005:9011   */\n      0x00\n        /* \"#utility.yul\":9042:9043   */\n      0x02\n        /* \"#utility.yul\":9036:9040   */\n      dup3\n        /* \"#utility.yul\":9032:9044   */\n      div\n        /* \"#utility.yul\":9022:9044   */\n      swap1\n      pop\n        /* \"#utility.yul\":9089:9090   */\n      0x01\n        /* \"#utility.yul\":9083:9087   */\n      dup3\n        /* \"#utility.yul\":9079:9091   */\n      and\n        /* \"#utility.yul\":9110:9128   */\n      dup1\n        /* \"#utility.yul\":9100:9181   */\n      tag_224\n      jumpi\n        /* \"#utility.yul\":9166:9170   */\n      0x7f\n        /* \"#utility.yul\":9158:9164   */\n      dup3\n        /* \"#utility.yul\":9154:9171   */\n      and\n        /* \"#utility.yul\":9144:9171   */\n      swap2\n      pop\n        /* \"#utility.yul\":9100:9181   */\n    tag_224:\n        /* \"#utility.yul\":9228:9230   */\n      0x20\n        /* \"#utility.yul\":9220:9226   */\n      dup3\n        /* \"#utility.yul\":9217:9231   */\n      lt\n        /* \"#utility.yul\":9197:9215   */\n      dup2\n        /* \"#utility.yul\":9194:9232   */\n      sub\n        /* \"#utility.yul\":9191:9275   */\n      tag_225\n      jumpi\n        /* \"#utility.yul\":9247:9265   */\n      tag_226\n      tag_102\n      jump\t// in\n    tag_226:\n        /* \"#utility.yul\":9191:9275   */\n    tag_225:\n        /* \"#utility.yul\":9012:9281   */\n      pop\n        /* \"#utility.yul\":8961:9281   */\n      swap2\n      swap1\n      pop\n      jump\t// out\n        /* \"#utility.yul\":9287:9428   */\n    tag_103:\n        /* \"#utility.yul\":9336:9340   */\n      0x00\n        /* \"#utility.yul\":9359:9362   */\n      dup2\n        /* \"#utility.yul\":9351:9362   */\n      swap1\n      pop\n        /* \"#utility.yul\":9382:9385   */\n      dup2\n        /* \"#utility.yul\":9379:9380   */\n      0x00\n        /* \"#utility.yul\":9372:9386   */\n      mstore\n        /* \"#utility.yul\":9416:9420   */\n      0x20\n        /* \"#utility.yul\":9413:9414   */\n      0x00\n        /* \"#utility.yul\":9403:9421   */\n      keccak256\n        /* \"#utility.yul\":9395:9421   */\n      swap1\n      pop\n        /* \"#utility.yul\":9287:9428   */\n      swap2\n      swap1\n      pop\n      jump\t// out\n        /* \"#utility.yul\":9434:9527   */\n    tag_104:\n        /* \"#utility.yul\":9471:9477   */\n      0x00\n        /* \"#utility.yul\":9518:9520   */\n      0x20\n        /* \"#utility.yul\":9513:9515   */\n      0x1f\n        /* \"#utility.yul\":9506:9511   */\n      dup4\n        /* \"#utility.yul\":9502:9516   */\n      add\n        /* \"#utility.yul\":9498:9521   */\n      div\n        /* \"#utility.yul\":9488:9521   */\n      swap1\n      pop\n        /* \"#utility.yul\":9434:9527   */\n      swap2\n      swap1\n      pop\n      jump\t// out\n        /* \"#utility.yul\":9533:9640   */\n    tag_105:\n        /* \"#utility.yul\":9577:9585   */\n      0x00\n        /* \"#utility.yul\":9627:9632   */\n      dup3\n        /* \"#utility.yul\":9621:9625   */\n      dup3\n        /* \"#utility.yul\":9617:9633   */\n      shl\n        /* \"#utility.yul\":9596:9633   */\n      swap1\n      pop\n        /* \"#utility.yul\":9533:9640   */\n      swap3\n      swap2\n      pop\n      pop\n      jump\t// out\n        /* \"#utility.yul\":9646:10039   */\n    tag_106:\n        /* \"#utility.yul\":9715:9721   */\n      0x00\n        /* \"#utility.yul\":9765:9766   */\n      0x08\n        /* \"#utility.yul\":9753:9763   */\n      dup4\n        /* \"#utility.yul\":9749:9767   */\n      mul\n        /* \"#utility.yul\":9788:9885   */\n      tag_231\n        /* \"#utility.yul\":9818:9884   */\n      0xffffffffffffffffffffffffffffffffffffffffffffffffffffffffffffffff\n        /* \"#utility.yul\":9807:9816   */\n      dup3\n        /* \"#utility.yul\":9788:9885   */\n      tag_105\n      jump\t// in\n    tag_231:\n        /* \"#utility.yul\":9906:9945   */\n      tag_232\n        /* \"#utility.yul\":9936:9944   */\n      dup7\n        /* \"#utility.yul\":9925:9934   */\n      dup4\n        /* \"#utility.yul\":9906:9945   */\n      tag_105\n      jump\t// in\n    tag_232:\n        /* \"#utility.yul\":9894:9945   */\n      swap6\n      pop\n        /* \"#utility.yul\":9978:9982   */\n      dup1\n        /* \"#utility.yul\":9974:9983   */\n      not\n        /* \"#utility.yul\":9967:9972   */\n      dup5\n        /* \"#utility.yul\":9963:9984   */\n      and\n        /* \"#utility.yul\":9954:9984   */\n      swap4\n      pop\n        /* \"#utility.yul\":10027:10031   */\n      dup1\n        /* \"#utility.yul\":10017:10025   */\n      dup7\n        /* \"#utility.yul\":10013:10032   */\n      and\n        /* \"#utility.yul\":10006:10011   */\n      dup5\n        /* \"#utility.yul\":10003:10033   */\n      or\n        /* \"#utility.yul\":9993:10033   */\n      swap3\n      pop\n        /* \"#utility.yul\":9722:10039   */\n      pop\n      pop\n        /* \"#utility.yul\":9646:10039   */\n      swap4\n      swap3\n      pop\n      pop\n      pop\n      jump\t// out\n        /* \"#utility.yul\":10045:10105   */\n    tag_107:\n        /* \"#utility.yul\":10073:10076   */\n      0x00\n        /* \"#utility.yul\":10094:10099   */\n      dup2\n        /* \"#utility.yul\":10087:10099   */\n      swap1\n      pop\n        /* \"#utility.yul\":10045:10105   */\n      swap2\n      swap1\n      pop\n      jump\t// out\n        /* \"#utility.yul\":10111:10253   */\n    tag_108:\n        /* \"#utility.yul\":10161:10170   */\n      0x00\n        /* \"#utility.yul\":10194:10247   */\n      tag_235\n        /* \"#utility.yul\":10212:10246   */\n      tag_236\n        /* \"#utility.yul\":10221:10245   */\n      tag_237\n        /* \"#utility.yul\":10239:10244   */\n      dup5\n        /* \"#utility.yul\":10221:10245   */\n      tag_91\n      jump\t// in\n    tag_237:\n        /* \"#utility.yul\":10212:10246   */\n      tag_107\n      jump\t// in\n    tag_236:\n        /* \"#utility.yul\":10194:10247   */\n      tag_91\n      jump\t// in\n    tag_235:\n        /* \"#utility.yul\":10181:10247   */\n      swap1\n      pop\n        /* \"#utility.yul\":10111:10253   */\n      swap2\n      swap1\n      pop\n      jump\t// out\n        /* \"#utility.yul\":10259:10334   */\n    tag_109:\n        /* \"#utility.yul\":10302:10305   */\n      0x00\n        /* \"#utility.yul\":10323:10328   */\n      dup2\n        /* \"#utility.yul\":10316:10328   */\n      swap1\n      pop\n        /* \"#utility.yul\":10259:10334   */\n      swap2\n      swap1\n      pop\n      jump\t// out\n        /* \"#utility.yul\":10340:10609   */\n    tag_110:\n        /* \"#utility.yul\":10450:10489   */\n      tag_240\n        /* \"#utility.yul\":10481:10488   */\n      dup4\n        /* \"#utility.yul\":10450:10489   */\n      tag_108\n      jump\t// in\n    tag_240:\n        /* \"#utility.yul\":10511:10602   */\n      tag_241\n        /* \"#utility.yul\":10560:10601   */\n      tag_242\n        /* \"#utility.yul\":10584:10600   */\n      dup3\n        /* \"#utility.yul\":10560:10601   */\n      tag_109\n      jump\t// in\n    tag_242:\n        /* \"#utility.yul\":10552:10558   */\n      dup5\n        /* \"#utility.yul\":10545:10549   */\n      dup5\n        /* \"#utility.yul\":10539:10550   */\n      sload\n        /* \"#utility.yul\":10511:10602   */\n      tag_106\n      jump\t// in\n    tag_241:\n        /* \"#utility.yul\":10505:10509   */\n      dup3\n        /* \"#utility.yul\":10498:10603   */\n      sstore\n        /* \"#utility.yul\":10416:10609   */\n      pop\n        /* \"#utility.yul\":10340:10609   */\n      pop\n      pop\n      pop\n      jump\t// out\n        /* \"#utility.yul\":10615:10688   */\n    tag_111:\n        /* \"#utility.yul\":10660:10663   */\n      0x00\n        /* \"#utility.yul\":10615:10688   */\n      swap1\n      jump\t// out\n        /* \"#utility.yul\":10694:10883   */\n    tag_112:\n        /* \"#utility.yul\":10771:10803   */\n      tag_245\n      tag_111\n      jump\t// in\n    tag_245:\n        /* \"#utility.yul\":10812:10877   */\n      tag_246\n        /* \"#utility.yul\":10870:10876   */\n      dup2\n        /* \"#utility.yul\":10862:10868   */\n      dup5\n        /* \"#utility.yul\":10856:10860   */\n      dup5\n        /* \"#utility.yul\":10812:10877   */\n      tag_110\n      jump\t// in\n    tag_246:\n        /* \"#utility.yul\":10747:10883   */\n      pop\n        /* \"#utility.yul\":10694:10883   */\n      pop\n      pop\n      jump\t// out\n        /* \"#utility.yul\":10889:11075   */\n    tag_113:\n        /* \"#utility.yul\":10949:11069   */\n    tag_248:\n        /* \"#utility.yul\":10966:10969   */\n      dup2\n        /* \"#utility.yul\":10959:10964   */\n      dup2\n        /* \"#utility.yul\":10956:10970   */\n      lt\n        /* \"#utility.yul\":10949:11069   */\n      iszero\n      tag_250\n      jumpi\n        /* \"#utility.yul\":11020:11059   */\n      tag_251\n        /* \"#utility.yul\":11057:11058   */\n      0x00\n        /* \"#utility.yul\":11050:11055   */\n      dup3\n        /* \"#utility.yul\":11020:11059   */\n      tag_112\n      jump\t// in\n    tag_251:\n        /* \"#utility.yul\":10993:10994   */\n      0x01\n        /* \"#utility.yul\":10986:10991   */\n      dup2\n        /* \"#utility.yul\":10982:10995   */\n      add\n        /* \"#utility.yul\":10973:10995   */\n      swap1\n      pop\n        /* \"#utility.yul\":10949:11069   */\n      jump(tag_248)\n    tag_250:\n        /* \"#utility.yul\":10889:11075   */\n      pop\n      pop\n      jump\t// out\n        /* \"#utility.yul\":11081:11624   */\n    tag_114:\n        /* \"#utility.yul\":11182:11184   */\n      0x1f\n        /* \"#utility.yul\":11177:11180   */\n      dup3\n        /* \"#utility.yul\":11174:11185   */\n      gt\n        /* \"#utility.yul\":11171:11617   */\n      iszero\n      tag_253\n      jumpi\n        /* \"#utility.yul\":11216:11254   */\n      tag_254\n        /* \"#utility.yul\":11248:11253   */\n      dup2\n        /* \"#utility.yul\":11216:11254   */\n      tag_103\n      jump\t// in\n    tag_254:\n        /* \"#utility.yul\":11300:11329   */\n      tag_255\n        /* \"#utility.yul\":11318:11328   */\n      dup5\n        /* \"#utility.yul\":11300:11329   */\n      tag_104\n      jump\t// in\n    tag_255:\n        /* \"#utility.yul\":11290:11298   */\n      dup2\n        /* \"#utility.yul\":11286:11330   */\n      add\n        /* \"#utility.yul\":11483:11485   */\n      0x20\n        /* \"#utility.yul\":11471:11481   */\n      dup6\n        /* \"#utility.yul\":11468:11486   */\n      lt\n        /* \"#utility.yul\":11465:11514   */\n      iszero\n      tag_256\n      jumpi\n        /* \"#utility.yul\":11504:11512   */\n      dup2\n        /* \"#utility.yul\":11489:11512   */\n      swap1\n      pop\n        /* \"#utility.yul\":11465:11514   */\n    tag_256:\n        /* \"#utility.yul\":11527:11607   */\n      tag_257\n        /* \"#utility.yul\":11583:11605   */\n      tag_258\n        /* \"#utility.yul\":11601:11604   */\n      dup6\n        /* \"#utility.yul\":11583:11605   */\n      tag_104\n      jump\t// in\n    tag_258:\n        /* \"#utility.yul\":11573:11581   */\n      dup4\n        /* \"#utility.yul\":11569:11606   */\n      add\n        /* \"#utility.yul\":11556:11567   */\n      dup3\n        /* \"#utility.yul\":11527:11607   */\n      tag_113\n      jump\t// in\n    tag_257:\n        /* \"#utility.yul\":11186:11617   */\n      pop\n      pop\n        /* \"#utility.yul\":11171:11617   */\n    tag_253:\n        /* \"#utility.yul\":11081:11624   */\n      pop\n      pop\n      pop\n      jump\t// out\n        /* \"#utility.yul\":11630:11747   */\n    tag_115:\n        /* \"#utility.yul\":11684:11692   */\n      0x00\n        /* \"#utility.yul\":11734:11739   */\n      dup3\n        /* \"#utility.yul\":11728:11732   */\n      dup3\n        /* \"#utility.yul\":11724:11740   */\n      shr\n        /* \"#utility.yul\":11703:11740   */\n      swap1\n      pop\n        /* \"#utility.yul\":11630:11747   */\n      swap3\n      swap2\n      pop\n      pop\n      jump\t// out\n        /* \"#utility.yul\":11753:11922   */\n    tag_116:\n        /* \"#utility.yul\":11797:11803   */\n      0x00\n        /* \"#utility.yul\":11830:11881   */\n      tag_261\n        /* \"#utility.yul\":11878:11879   */\n      0x00\n        /* \"#utility.yul\":11874:11880   */\n      not\n        /* \"#utility.yul\":11866:11871   */\n      dup5\n        /* \"#utility.yul\":11863:11864   */\n      0x08\n        /* \"#utility.yul\":11859:11872   */\n      mul\n        /* \"#utility.yul\":11830:11881   */\n      tag_115\n      jump\t// in\n    tag_261:\n        /* \"#utility.yul\":11826:11882   */\n      not\n        /* \"#utility.yul\":11911:11915   */\n      dup1\n        /* \"#utility.yul\":11905:11909   */\n      dup4\n        /* \"#utility.yul\":11901:11916   */\n      and\n        /* \"#utility.yul\":11891:11916   */\n      swap2\n      pop\n        /* \"#utility.yul\":11804:11922   */\n      pop\n        /* \"#utility.yul\":11753:11922   */\n      swap3\n      swap2\n      pop\n      pop\n      jump\t// out\n        /* \"#utility.yul\":11927:12222   */\n    tag_117:\n        /* \"#utility.yul\":12003:12007   */\n      0x00\n        /* \"#utility.yul\":12149:12178   */\n      tag_263\n        /* \"#utility.yul\":12174:12177   */\n      dup4\n        /* \"#utility.yul\":12168:12172   */\n      dup4\n        /* \"#utility.yul\":12149:12178   */\n      tag_116\n      jump\t// in\n    tag_263:\n        /* \"#utility.yul\":12141:12178   */\n      swap2\n      pop\n        /* \"#utility.yul\":12211:12214   */\n      dup3\n        /* \"#utility.yul\":12208:12209   */\n      0x02\n        /* \"#utility.yul\":12204:12215   */\n      mul\n        /* \"#utility.yul\":12198:12202   */\n      dup3\n        /* \"#utility.yul\":12195:12216   */\n      or\n        /* \"#utility.yul\":12187:12216   */\n      swap1\n      pop\n        /* \"#utility.yul\":11927:12222   */\n      swap3\n      swap2\n      pop\n      pop\n      jump\t// out\n        /* \"#utility.yul\":12227:13622   */\n    tag_37:\n        /* \"#utility.yul\":12344:12381   */\n      tag_265\n        /* \"#utility.yul\":12377:12380   */\n      dup3\n        /* \"#utility.yul\":12344:12381   */\n      tag_93\n      jump\t// in\n    tag_265:\n        /* \"#utility.yul\":12446:12464   */\n      0xffffffffffffffff\n        /* \"#utility.yul\":12438:12444   */\n      dup2\n        /* \"#utility.yul\":12435:12465   */\n      gt\n        /* \"#utility.yul\":12432:12488   */\n      iszero\n      tag_266\n      jumpi\n        /* \"#utility.yul\":12468:12486   */\n      tag_267\n      tag_77\n      jump\t// in\n    tag_267:\n        /* \"#utility.yul\":12432:12488   */\n    tag_266:\n        /* \"#utility.yul\":12512:12550   */\n      tag_268\n        /* \"#utility.yul\":12544:12548   */\n      dup3\n        /* \"#utility.yul\":12538:12549   */\n      sload\n        /* \"#utility.yul\":12512:12550   */\n      tag_66\n      jump\t// in\n    tag_268:\n        /* \"#utility.yul\":12597:12664   */\n      tag_269\n        /* \"#utility.yul\":12657:12663   */\n      dup3\n        /* \"#utility.yul\":12649:12655   */\n      dup3\n        /* \"#utility.yul\":12643:12647   */\n      dup6\n        /* \"#utility.yul\":12597:12664   */\n      tag_114\n      jump\t// in\n    tag_269:\n        /* \"#utility.yul\":12691:12692   */\n      0x00\n        /* \"#utility.yul\":12715:12719   */\n      0x20\n        /* \"#utility.yul\":12702:12719   */\n      swap1\n      pop\n        /* \"#utility.yul\":12747:12749   */\n      0x1f\n        /* \"#utility.yul\":12739:12745   */\n      dup4\n        /* \"#utility.yul\":12736:12750   */\n      gt\n        /* \"#utility.yul\":12764:12765   */\n      0x01\n        /* \"#utility.yul\":12759:13377   */\n      dup2\n      eq\n      tag_271\n      jumpi\n        /* \"#utility.yul\":13421:13422   */\n      0x00\n        /* \"#utility.yul\":13438:13444   */\n      dup5\n        /* \"#utility.yul\":13435:13512   */\n      iszero\n      tag_272\n      jumpi\n        /* \"#utility.yul\":13487:13496   */\n      dup3\n        /* \"#utility.yul\":13482:13485   */\n      dup8\n        /* \"#utility.yul\":13478:13497   */\n      add\n        /* \"#utility.yul\":13472:13498   */\n      mload\n        /* \"#utility.yul\":13463:13498   */\n      swap1\n      pop\n        /* \"#utility.yul\":13435:13512   */\n    tag_272:\n        /* \"#utility.yul\":13538:13605   */\n      tag_273\n        /* \"#utility.yul\":13598:13604   */\n      dup6\n        /* \"#utility.yul\":13591:13596   */\n      dup3\n        /* \"#utility.yul\":13538:13605   */\n      tag_117\n      jump\t// in\n    tag_273:\n        /* \"#utility.yul\":13532:13536   */\n      dup7\n        /* \"#utility.yul\":13525:13606   */\n      sstore\n        /* \"#utility.yul\":13394:13616   */\n      pop\n        /* \"#utility.yul\":12729:13616   */\n      jump(tag_270)\n        /* \"#utility.yul\":12759:13377   */\n    tag_271:\n        /* \"#utility.yul\":12811:12815   */\n      0x1f\n        /* \"#utility.yul\":12807:12816   */\n      not\n        /* \"#utility.yul\":12799:12805   */\n      dup5\n        /* \"#utility.yul\":12795:12817   */\n      and\n        /* \"#utility.yul\":12845:12882   */\n      tag_274\n        /* \"#utility.yul\":12877:12881   */\n      dup7\n        /* \"#utility.yul\":12845:12882   */\n      tag_103\n      jump\t// in\n    tag_274:\n        /* \"#utility.yul\":12904:12905   */\n      0x00\n        /* \"#utility.yul\":12918:13126   */\n    tag_275:\n        /* \"#utility.yul\":12932:12939   */\n      dup3\n        /* \"#utility.yul\":12929:12930   */\n      dup2\n        /* \"#utility.yul\":12926:12940   */\n      lt\n        /* \"#utility.yul\":12918:13126   */\n      iszero\n      tag_277\n      jumpi\n        /* \"#utility.yul\":13011:13020   */\n      dup5\n        /* \"#utility.yul\":13006:13009   */\n      dup10\n        /* \"#utility.yul\":13002:13021   */\n      add\n        /* \"#utility.yul\":12996:13022   */\n      mload\n        /* \"#utility.yul\":12988:12994   */\n      dup3\n        /* \"#utility.yul\":12981:13023   */\n      sstore\n        /* \"#utility.yul\":13062:13063   */\n      0x01\n        /* \"#utility.yul\":13054:13060   */\n      dup3\n        /* \"#utility.yul\":13050:13064   */\n      add\n        /* \"#utility.yul\":13040:13064   */\n      swap2\n      pop\n        /* \"#utility.yul\":13109:13111   */\n      0x20\n        /* \"#utility.yul\":13098:13107   */\n      dup6\n        /* \"#utility.yul\":13094:13112   */\n      add\n        /* \"#utility.yul\":13081:13112   */\n      swap5\n      pop\n        /* \"#utility.yul\":12955:12959   */\n      0x20\n        /* \"#utility.yul\":12952:12953   */\n      dup2\n        /* \"#utility.yul\":12948:12960   */\n      add\n        /* \"#utility.yul\":12943:12960   */\n      swap1\n      pop\n        /* \"#utility.yul\":12918:13126   */\n      jump(tag_275)\n    tag_277:\n        /* \"#utility.yul\":13154:13160   */\n      dup7\n        /* \"#utility.yul\":13145:13152   */\n      dup4\n        /* \"#utility.yul\":13142:13161   */\n      lt\n        /* \"#utility.yul\":13139:13318   */\n      iszero\n      tag_278\n      jumpi\n        /* \"#utility.yul\":13212:13221   */\n      dup5\n        /* \"#utility.yul\":13207:13210   */\n      dup10\n        /* \"#utility.yul\":13203:13222   */\n      add\n        /* \"#utility.yul\":13197:13223   */\n      mload\n        /* \"#utility.yul\":13255:13303   */\n      tag_279\n        /* \"#utility.yul\":13297:13301   */\n      0x1f\n        /* \"#utility.yul\":13289:13295   */\n      dup10\n        /* \"#utility.yul\":13285:13302   */\n      and\n        /* \"#utility.yul\":13274:13283   */\n      dup3\n        /* \"#utility.yul\":13255:13303   */\n      tag_116\n      jump\t// in\n    tag_279:\n        /* \"#utility.yul\":13247:13253   */\n      dup4\n        /* \"#utility.yul\":13240:13304   */\n      sstore\n        /* \"#utility.yul\":13162:13318   */\n      pop\n        /* \"#utility.yul\":13139:13318   */\n    tag_278:\n        /* \"#utility.yul\":13364:13365   */\n      0x01\n        /* \"#utility.yul\":13360:13361   */\n      0x02\n        /* \"#utility.yul\":13352:13358   */\n      dup9\n        /* \"#utility.yul\":13348:13362   */\n      mul\n        /* \"#utility.yul\":13344:13366   */\n      add\n        /* \"#utility.yul\":13338:13342   */\n      dup9\n        /* \"#utility.yul\":13331:13367   */\n      sstore\n        /* \"#utility.yul\":12766:13377   */\n      pop\n      pop\n      pop\n        /* \"#utility.yul\":12729:13616   */\n    tag_270:\n      pop\n        /* \"#utility.yul\":12319:13622   */\n      pop\n      pop\n      pop\n        /* \"#utility.yul\":12227:13622   */\n      pop\n      pop\n      jump\t// out\n        /* \"#utility.yul\":13628:13796   */\n    tag_118:\n        /* \"#utility.yul\":13768:13788   */\n      0x416c726561647920616374697661746564210000000000000000000000000000\n        /* \"#utility.yul\":13764:13765   */\n      0x00\n        /* \"#utility.yul\":13756:13762   */\n      dup3\n        /* \"#utility.yul\":13752:13766   */\n      add\n        /* \"#utility.yul\":13745:13789   */\n      mstore\n        /* \"#utility.yul\":13628:13796   */\n      pop\n      jump\t// out\n        /* \"#utility.yul\":13802:14168   */\n    tag_119:\n        /* \"#utility.yul\":13944:13947   */\n      0x00\n        /* \"#utility.yul\":13965:14032   */\n      tag_282\n        /* \"#utility.yul\":14029:14031   */\n      0x12\n        /* \"#utility.yul\":14024:14027   */\n      dup4\n        /* \"#utility.yul\":13965:14032   */\n      tag_94\n      jump\t// in\n    tag_282:\n        /* \"#utility.yul\":13958:14032   */\n      swap2\n      pop\n        /* \"#utility.yul\":14041:14134   */\n      tag_283\n        /* \"#utility.yul\":14130:14133   */\n      dup3\n        /* \"#utility.yul\":14041:14134   */\n      tag_118\n      jump\t// in\n    tag_283:\n        /* \"#utility.yul\":14159:14161   */\n      0x20\n        /* \"#utility.yul\":14154:14157   */\n      dup3\n        /* \"#utility.yul\":14150:14162   */\n      add\n        /* \"#utility.yul\":14143:14162   */\n      swap1\n      pop\n        /* \"#utility.yul\":13802:14168   */\n      swap2\n      swap1\n      pop\n      jump\t// out\n        /* \"#utility.yul\":14174:14593   */\n    tag_44:\n        /* \"#utility.yul\":14340:14344   */\n      0x00\n        /* \"#utility.yul\":14378:14380   */\n      0x20\n        /* \"#utility.yul\":14367:14376   */\n      dup3\n        /* \"#utility.yul\":14363:14381   */\n      add\n        /* \"#utility.yul\":14355:14381   */\n      swap1\n      pop\n        /* \"#utility.yul\":14427:14436   */\n      dup2\n        /* \"#utility.yul\":14421:14425   */\n      dup2\n        /* \"#utility.yul\":14417:14437   */\n      sub\n        /* \"#utility.yul\":14413:14414   */\n      0x00\n        /* \"#utility.yul\":14402:14411   */\n      dup4\n        /* \"#utility.yul\":14398:14415   */\n      add\n        /* \"#utility.yul\":14391:14438   */\n      mstore\n        /* \"#utility.yul\":14455:14586   */\n      tag_285\n        /* \"#utility.yul\":14581:14585   */\n      dup2\n        /* \"#utility.yul\":14455:14586   */\n      tag_119\n      jump\t// in\n    tag_285:\n        /* \"#utility.yul\":14447:14586   */\n      swap1\n      pop\n        /* \"#utility.yul\":14174:14593   */\n      swap2\n      swap1\n      pop\n      jump\t// out\n        /* \"#utility.yul\":14599:14769   */\n    tag_120:\n        /* \"#utility.yul\":14739:14761   */\n      0x416c726561647920646561637469766174656421000000000000000000000000\n        /* \"#utility.yul\":14735:14736   */\n      0x00\n        /* \"#utility.yul\":14727:14733   */\n      dup3\n        /* \"#utility.yul\":14723:14737   */\n      add\n        /* \"#utility.yul\":14716:14762   */\n      mstore\n        /* \"#utility.yul\":14599:14769   */\n      pop\n      jump\t// out\n        /* \"#utility.yul\":14775:15141   */\n    tag_121:\n        /* \"#utility.yul\":14917:14920   */\n      0x00\n        /* \"#utility.yul\":14938:15005   */\n      tag_288\n        /* \"#utility.yul\":15002:15004   */\n      0x14\n        /* \"#utility.yul\":14997:15000   */\n      dup4\n        /* \"#utility.yul\":14938:15005   */\n      tag_94\n      jump\t// in\n    tag_288:\n        /* \"#utility.yul\":14931:15005   */\n      swap2\n      pop\n        /* \"#utility.yul\":15014:15107   */\n      tag_289\n        /* \"#utility.yul\":15103:15106   */\n      dup3\n        /* \"#utility.yul\":15014:15107   */\n      tag_120\n      jump\t// in\n    tag_289:\n        /* \"#utility.yul\":15132:15134   */\n      0x20\n        /* \"#utility.yul\":15127:15130   */\n      dup3\n        /* \"#utility.yul\":15123:15135   */\n      add\n        /* \"#utility.yul\":15116:15135   */\n      swap1\n      pop\n        /* \"#utility.yul\":14775:15141   */\n      swap2\n      swap1\n      pop\n      jump\t// out\n        /* \"#utility.yul\":15147:15566   */\n    tag_51:\n        /* \"#utility.yul\":15313:15317   */\n      0x00\n        /* \"#utility.yul\":15351:15353   */\n      0x20\n        /* \"#utility.yul\":15340:15349   */\n      dup3\n        /* \"#utility.yul\":15336:15354   */\n      add\n        /* \"#utility.yul\":15328:15354   */\n      swap1\n      pop\n        /* \"#utility.yul\":15400:15409   */\n      dup2\n        /* \"#utility.yul\":15394:15398   */\n      dup2\n        /* \"#utility.yul\":15390:15410   */\n      sub\n        /* \"#utility.yul\":15386:15387   */\n      0x00\n        /* \"#utility.yul\":15375:15384   */\n      dup4\n        /* \"#utility.yul\":15371:15388   */\n      add\n        /* \"#utility.yul\":15364:15411   */\n      mstore\n        /* \"#utility.yul\":15428:15559   */\n      tag_291\n        /* \"#utility.yul\":15554:15558   */\n      dup2\n        /* \"#utility.yul\":15428:15559   */\n      tag_121\n      jump\t// in\n    tag_291:\n        /* \"#utility.yul\":15420:15559   */\n      swap1\n      pop\n        /* \"#utility.yul\":15147:15566   */\n      swap2\n      swap1\n      pop\n      jump\t// out\n        /* \"#utility.yul\":15572:15677   */\n    tag_122:\n        /* \"#utility.yul\":15608:15615   */\n      0x00\n        /* \"#utility.yul\":15648:15670   */\n      0xffffffffffffffffffff\n        /* \"#utility.yul\":15641:15646   */\n      dup3\n        /* \"#utility.yul\":15637:15671   */\n      and\n        /* \"#utility.yul\":15626:15671   */\n      swap1\n      pop\n        /* \"#utility.yul\":15572:15677   */\n      swap2\n      swap1\n      pop\n      jump\t// out\n        /* \"#utility.yul\":15683:15803   */\n    tag_123:\n        /* \"#utility.yul\":15755:15778   */\n      tag_294\n        /* \"#utility.yul\":15772:15777   */\n      dup2\n        /* \"#utility.yul\":15755:15778   */\n      tag_122\n      jump\t// in\n    tag_294:\n        /* \"#utility.yul\":15748:15753   */\n      dup2\n        /* \"#utility.yul\":15745:15779   */\n      eq\n        /* \"#utility.yul\":15735:15797   */\n      tag_295\n      jumpi\n        /* \"#utility.yul\":15793:15794   */\n      0x00\n        /* \"#utility.yul\":15790:15791   */\n      dup1\n        /* \"#utility.yul\":15783:15795   */\n      revert\n        /* \"#utility.yul\":15735:15797   */\n    tag_295:\n        /* \"#utility.yul\":15683:15803   */\n      pop\n      jump\t// out\n        /* \"#utility.yul\":15809:15950   */\n    tag_124:\n        /* \"#utility.yul\":15865:15870   */\n      0x00\n        /* \"#utility.yul\":15896:15902   */\n      dup2\n        /* \"#utility.yul\":15890:15903   */\n      mload\n        /* \"#utility.yul\":15881:15903   */\n      swap1\n      pop\n        /* \"#utility.yul\":15912:15944   */\n      tag_297\n        /* \"#utility.yul\":15938:15943   */\n      dup2\n        /* \"#utility.yul\":15912:15944   */\n      tag_123\n      jump\t// in\n    tag_297:\n        /* \"#utility.yul\":15809:15950   */\n      swap3\n      swap2\n      pop\n      pop\n      jump\t// out\n        /* \"#utility.yul\":15956:16076   */\n    tag_125:\n        /* \"#utility.yul\":16028:16051   */\n      tag_299\n        /* \"#utility.yul\":16045:16050   */\n      dup2\n        /* \"#utility.yul\":16028:16051   */\n      tag_89\n      jump\t// in\n    tag_299:\n        /* \"#utility.yul\":16021:16026   */\n      dup2\n        /* \"#utility.yul\":16018:16052   */\n      eq\n        /* \"#utility.yul\":16008:16070   */\n      tag_300\n      jumpi\n        /* \"#utility.yul\":16066:16067   */\n      0x00\n        /* \"#utility.yul\":16063:16064   */\n      dup1\n        /* \"#utility.yul\":16056:16068   */\n      revert\n        /* \"#utility.yul\":16008:16070   */\n    tag_300:\n        /* \"#utility.yul\":15956:16076   */\n      pop\n      jump\t// out\n        /* \"#utility.yul\":16082:16223   */\n    tag_126:\n        /* \"#utility.yul\":16138:16143   */\n      0x00\n        /* \"#utility.yul\":16169:16175   */\n      dup2\n        /* \"#utility.yul\":16163:16176   */\n      mload\n        /* \"#utility.yul\":16154:16176   */\n      swap1\n      pop\n        /* \"#utility.yul\":16185:16217   */\n      tag_302\n        /* \"#utility.yul\":16211:16216   */\n      dup2\n        /* \"#utility.yul\":16185:16217   */\n      tag_125\n      jump\t// in\n    tag_302:\n        /* \"#utility.yul\":16082:16223   */\n      swap3\n      swap2\n      pop\n      pop\n      jump\t// out\n        /* \"#utility.yul\":16229:16351   */\n    tag_127:\n        /* \"#utility.yul\":16302:16326   */\n      tag_304\n        /* \"#utility.yul\":16320:16325   */\n      dup2\n        /* \"#utility.yul\":16302:16326   */\n      tag_91\n      jump\t// in\n    tag_304:\n        /* \"#utility.yul\":16295:16300   */\n      dup2\n        /* \"#utility.yul\":16292:16327   */\n      eq\n        /* \"#utility.yul\":16282:16345   */\n      tag_305\n      jumpi\n        /* \"#utility.yul\":16341:16342   */\n      0x00\n        /* \"#utility.yul\":16338:16339   */\n      dup1\n        /* \"#utility.yul\":16331:16343   */\n      revert\n        /* \"#utility.yul\":16282:16345   */\n    tag_305:\n        /* \"#utility.yul\":16229:16351   */\n      pop\n      jump\t// out\n        /* \"#utility.yul\":16357:16500   */\n    tag_128:\n        /* \"#utility.yul\":16414:16419   */\n      0x00\n        /* \"#utility.yul\":16445:16451   */\n      dup2\n        /* \"#utility.yul\":16439:16452   */\n      mload\n        /* \"#utility.yul\":16430:16452   */\n      swap1\n      pop\n        /* \"#utility.yul\":16461:16494   */\n      tag_307\n        /* \"#utility.yul\":16488:16493   */\n      dup2\n        /* \"#utility.yul\":16461:16494   */\n      tag_127\n      jump\t// in\n    tag_307:\n        /* \"#utility.yul\":16357:16500   */\n      swap3\n      swap2\n      pop\n      pop\n      jump\t// out\n        /* \"#utility.yul\":16506:17477   */\n    tag_60:\n        /* \"#utility.yul\":16609:16615   */\n      0x00\n        /* \"#utility.yul\":16617:16623   */\n      dup1\n        /* \"#utility.yul\":16625:16631   */\n      0x00\n        /* \"#utility.yul\":16633:16639   */\n      dup1\n        /* \"#utility.yul\":16641:16647   */\n      0x00\n        /* \"#utility.yul\":16690:16693   */\n      0xa0\n        /* \"#utility.yul\":16678:16687   */\n      dup7\n        /* \"#utility.yul\":16669:16676   */\n      dup9\n        /* \"#utility.yul\":16665:16688   */\n      sub\n        /* \"#utility.yul\":16661:16694   */\n      slt\n        /* \"#utility.yul\":16658:16778   */\n      iszero\n      tag_309\n      jumpi\n        /* \"#utility.yul\":16697:16776   */\n      tag_310\n      tag_72\n      jump\t// in\n    tag_310:\n        /* \"#utility.yul\":16658:16778   */\n    tag_309:\n        /* \"#utility.yul\":16817:16818   */\n      0x00\n        /* \"#utility.yul\":16842:16905   */\n      tag_311\n        /* \"#utility.yul\":16897:16904   */\n      dup9\n        /* \"#utility.yul\":16888:16894   */\n      dup3\n        /* \"#utility.yul\":16877:16886   */\n      dup10\n        /* \"#utility.yul\":16873:16895   */\n      add\n        /* \"#utility.yul\":16842:16905   */\n      tag_124\n      jump\t// in\n    tag_311:\n        /* \"#utility.yul\":16832:16905   */\n      swap6\n      pop\n        /* \"#utility.yul\":16788:16915   */\n      pop\n        /* \"#utility.yul\":16954:16956   */\n      0x20\n        /* \"#utility.yul\":16980:17043   */\n      tag_312\n        /* \"#utility.yul\":17035:17042   */\n      dup9\n        /* \"#utility.yul\":17026:17032   */\n      dup3\n        /* \"#utility.yul\":17015:17024   */\n      dup10\n        /* \"#utility.yul\":17011:17033   */\n      add\n        /* \"#utility.yul\":16980:17043   */\n      tag_126\n      jump\t// in\n    tag_312:\n        /* \"#utility.yul\":16970:17043   */\n      swap5\n      pop\n        /* \"#utility.yul\":16925:17053   */\n      pop\n        /* \"#utility.yul\":17092:17094   */\n      0x40\n        /* \"#utility.yul\":17118:17182   */\n      tag_313\n        /* \"#utility.yul\":17174:17181   */\n      dup9\n        /* \"#utility.yul\":17165:17171   */\n      dup3\n        /* \"#utility.yul\":17154:17163   */\n      dup10\n        /* \"#utility.yul\":17150:17172   */\n      add\n        /* \"#utility.yul\":17118:17182   */\n      tag_128\n      jump\t// in\n    tag_313:\n        /* \"#utility.yul\":17108:17182   */\n      swap4\n      pop\n        /* \"#utility.yul\":17063:17192   */\n      pop\n        /* \"#utility.yul\":17231:17233   */\n      0x60\n        /* \"#utility.yul\":17257:17321   */\n      tag_314\n        /* \"#utility.yul\":17313:17320   */\n      dup9\n        /* \"#utility.yul\":17304:17310   */\n      dup3\n        /* \"#utility.yul\":17293:17302   */\n      dup10\n        /* \"#utility.yul\":17289:17311   */\n      add\n        /* \"#utility.yul\":17257:17321   */\n      tag_128\n      jump\t// in\n    tag_314:\n        /* \"#utility.yul\":17247:17321   */\n      swap3\n      pop\n        /* \"#utility.yul\":17202:17331   */\n      pop\n        /* \"#utility.yul\":17370:17373   */\n      0x80\n        /* \"#utility.yul\":17397:17460   */\n      tag_315\n        /* \"#utility.yul\":17452:17459   */\n      dup9\n        /* \"#utility.yul\":17443:17449   */\n      dup3\n        /* \"#utility.yul\":17432:17441   */\n      dup10\n        /* \"#utility.yul\":17428:17450   */\n      add\n        /* \"#utility.yul\":17397:17460   */\n      tag_124\n      jump\t// in\n    tag_315:\n        /* \"#utility.yul\":17387:17460   */\n      swap2\n      pop\n        /* \"#utility.yul\":17341:17470   */\n      pop\n        /* \"#utility.yul\":16506:17477   */\n      swap3\n      swap6\n      pop\n      swap3\n      swap6\n      swap1\n      swap4\n      pop\n      jump\t// out\n        /* \"#utility.yul\":17483:17569   */\n    tag_129:\n        /* \"#utility.yul\":17518:17525   */\n      0x00\n        /* \"#utility.yul\":17558:17562   */\n      0xff\n        /* \"#utility.yul\":17551:17556   */\n      dup3\n        /* \"#utility.yul\":17547:17563   */\n      and\n        /* \"#utility.yul\":17536:17563   */\n      swap1\n      pop\n        /* \"#utility.yul\":17483:17569   */\n      swap2\n      swap1\n      pop\n      jump\t// out\n        /* \"#utility.yul\":17575:17693   */\n    tag_130:\n        /* \"#utility.yul\":17646:17668   */\n      tag_318\n        /* \"#utility.yul\":17662:17667   */\n      dup2\n        /* \"#utility.yul\":17646:17668   */\n      tag_129\n      jump\t// in\n    tag_318:\n        /* \"#utility.yul\":17639:17644   */\n      dup2\n        /* \"#utility.yul\":17636:17669   */\n      eq\n        /* \"#utility.yul\":17626:17687   */\n      tag_319\n      jumpi\n        /* \"#utility.yul\":17683:17684   */\n      0x00\n        /* \"#utility.yul\":17680:17681   */\n      dup1\n        /* \"#utility.yul\":17673:17685   */\n      revert\n        /* \"#utility.yul\":17626:17687   */\n    tag_319:\n        /* \"#utility.yul\":17575:17693   */\n      pop\n      jump\t// out\n        /* \"#utility.yul\":17699:17838   */\n    tag_131:\n        /* \"#utility.yul\":17754:17759   */\n      0x00\n        /* \"#utility.yul\":17785:17791   */\n      dup2\n        /* \"#utility.yul\":17779:17792   */\n      mload\n        /* \"#utility.yul\":17770:17792   */\n      swap1\n      pop\n        /* \"#utility.yul\":17801:17832   */\n      tag_321\n        /* \"#utility.yul\":17826:17831   */\n      dup2\n        /* \"#utility.yul\":17801:17832   */\n      tag_130\n      jump\t// in\n    tag_321:\n        /* \"#utility.yul\":17699:17838   */\n      swap3\n      swap2\n      pop\n      pop\n      jump\t// out\n        /* \"#utility.yul\":17844:18191   */\n    tag_64:\n        /* \"#utility.yul\":17912:17918   */\n      0x00\n        /* \"#utility.yul\":17961:17963   */\n      0x20\n        /* \"#utility.yul\":17949:17958   */\n      dup3\n        /* \"#utility.yul\":17940:17947   */\n      dup5\n        /* \"#utility.yul\":17936:17959   */\n      sub\n        /* \"#utility.yul\":17932:17964   */\n      slt\n        /* \"#utility.yul\":17929:18048   */\n      iszero\n      tag_323\n      jumpi\n        /* \"#utility.yul\":17967:18046   */\n      tag_324\n      tag_72\n      jump\t// in\n    tag_324:\n        /* \"#utility.yul\":17929:18048   */\n    tag_323:\n        /* \"#utility.yul\":18087:18088   */\n      0x00\n        /* \"#utility.yul\":18112:18174   */\n      tag_325\n        /* \"#utility.yul\":18166:18173   */\n      dup5\n        /* \"#utility.yul\":18157:18163   */\n      dup3\n        /* \"#utility.yul\":18146:18155   */\n      dup6\n        /* \"#utility.yul\":18142:18164   */\n      add\n        /* \"#utility.yul\":18112:18174   */\n      tag_131\n      jump\t// in\n    tag_325:\n        /* \"#utility.yul\":18102:18174   */\n      swap2\n      pop\n        /* \"#utility.yul\":18058:18184   */\n      pop\n        /* \"#utility.yul\":17844:18191   */\n      swap3\n      swap2\n      pop\n      pop\n      jump\t// out\n\n    auxdata: 0xa2646970667358221220ff886f2c6947c5ef0ea4adb2536520dff74e67cad31684195a6786daa51d03b064736f6c63430008170033\n}\n",
				"bytecode": {
					"linkReferences": {},
					"object": "60c06040526001600260006101000a81548160ff0219169083151502179055503480156200002c57600080fd5b50604051620019bf380380620019bf8339818101604052810190620000529190620003e0565b600073ffffffffffffffffffffffffffffffffffffffff168373ffffffffffffffffffffffffffffffffffffffff16036200008c57600080fd5b600073ffffffffffffffffffffffffffffffffffffffff168273ffffffffffffffffffffffffffffffffffffffff1603620000c657600080fd5b600073ffffffffffffffffffffffffffffffffffffffff168173ffffffffffffffffffffffffffffffffffffffff16036200010057600080fd5b826000806101000a81548173ffffffffffffffffffffffffffffffffffffffff021916908373ffffffffffffffffffffffffffffffffffffffff16021790555084846040516020016200015592919062000519565b6040516020818303038152906040526001908162000174919062000792565b508173ffffffffffffffffffffffffffffffffffffffff1660808173ffffffffffffffffffffffffffffffffffffffff16815250508073ffffffffffffffffffffffffffffffffffffffff1660a08173ffffffffffffffffffffffffffffffffffffffff1681525050505050505062000879565b6000604051905090565b600080fd5b600080fd5b600080fd5b600080fd5b6000601f19601f8301169050919050565b7f4e487b7100000000000000000000000000000000000000000000000000000000600052604160045260246000fd5b620002518262000206565b810181811067ffffffffffffffff8211171562000273576200027262000217565b5b80604052505050565b600062000288620001e8565b905062000296828262000246565b919050565b600067ffffffffffffffff821115620002b957620002b862000217565b5b620002c48262000206565b9050602081019050919050565b60005b83811015620002f1578082015181840152602081019050620002d4565b60008484015250505050565b6000620003146200030e846200029b565b6200027c565b90508281526020810184848401111562000333576200033262000201565b5b62000340848285620002d1565b509392505050565b600082601f83011262000360576200035f620001fc565b5b815162000372848260208601620002fd565b91505092915050565b600073ffffffffffffffffffffffffffffffffffffffff82169050919050565b6000620003a8826200037b565b9050919050565b620003ba816200039b565b8114620003c657600080fd5b50565b600081519050620003da81620003af565b92915050565b600080600080600060a08688031215620003ff57620003fe620001f2565b5b600086015167ffffffffffffffff81111562000420576200041f620001f7565b5b6200042e8882890162000348565b955050602086015167ffffffffffffffff811115620004525762000451620001f7565b5b620004608882890162000348565b94505060406200047388828901620003c9565b93505060606200048688828901620003c9565b92505060806200049988828901620003c9565b9150509295509295909350565b600081519050919050565b600081905092915050565b6000620004c982620004a6565b620004d58185620004b1565b9350620004e7818560208601620002d1565b80840191505092915050565b7f2f00000000000000000000000000000000000000000000000000000000000000815250565b6000620005278285620004bc565b91506200053482620004f3565b600182019150620005468284620004bc565b91508190509392505050565b7f4e487b7100000000000000000000000000000000000000000000000000000000600052602260045260246000fd5b600060028204905060018216806200059a57607f821691505b602082108103620005b057620005af62000552565b5b50919050565b60008190508160005260206000209050919050565b60006020601f8301049050919050565b600082821b905092915050565b6000600883026200061a7fffffffffffffffffffffffffffffffffffffffffffffffffffffffffffffffff82620005db565b620006268683620005db565b95508019841693508086168417925050509392505050565b6000819050919050565b6000819050919050565b6000620006736200066d62000667846200063e565b62000648565b6200063e565b9050919050565b6000819050919050565b6200068f8362000652565b620006a76200069e826200067a565b848454620005e8565b825550505050565b600090565b620006be620006af565b620006cb81848462000684565b505050565b5b81811015620006f357620006e7600082620006b4565b600181019050620006d1565b5050565b601f82111562000742576200070c81620005b6565b6200071784620005cb565b8101602085101562000727578190505b6200073f6200073685620005cb565b830182620006d0565b50505b505050565b600082821c905092915050565b6000620007676000198460080262000747565b1980831691505092915050565b600062000782838362000754565b9150826002028217905092915050565b6200079d82620004a6565b67ffffffffffffffff811115620007b957620007b862000217565b5b620007c5825462000581565b620007d2828285620006f7565b600060209050601f8311600181146200080a5760008415620007f5578287015190505b62000801858262000774565b86555062000871565b601f1984166200081a86620005b6565b60005b8281101562000844578489015182556001820191506020850194506020810190506200081d565b8683101562000864578489015162000860601f89168262000754565b8355505b6001600288020188555050505b505050505050565b60805160a051611105620008ba6000396000818160f6015281816102330152818161032e0152610711015260008181610428015261045301526111056000f3fe608060405234801561001057600080fd5b50600436106100625760003560e01c8063082c4484146100675780630f15f4c01461008357806351b42b001461008d5780638da5cb5b14610097578063e1e7ff77146100b5578063f851a440146100d6575b600080fd5b610081600480360381019061007c91906108eb565b6100f4565b005b61008b610231565b005b61009561032c565b005b61009f610426565b6040516100ac9190610985565b60405180910390f35b6100bd61044a565b6040516100cd9493929190610a51565b60405180910390f35b6100de61070f565b6040516100eb9190610985565b60405180910390f35b7f000000000000000000000000000000000000000000000000000000000000000073ffffffffffffffffffffffffffffffffffffffff163373ffffffffffffffffffffffffffffffffffffffff1614610182576040517f08c379a000000000000000000000000000000000000000000000000000000000815260040161017990610ae9565b60405180910390fd5b600073ffffffffffffffffffffffffffffffffffffffff168173ffffffffffffffffffffffffffffffffffffffff16036101bb57600080fd5b806000806101000a81548173ffffffffffffffffffffffffffffffffffffffff021916908373ffffffffffffffffffffffffffffffffffffffff160217905550828260405160200161020e929190610b6b565b6040516020818303038152906040526001908161022b9190610daa565b50505050565b7f000000000000000000000000000000000000000000000000000000000000000073ffffffffffffffffffffffffffffffffffffffff163373ffffffffffffffffffffffffffffffffffffffff16146102bf576040517f08c379a00000000000000000000000000000000000000000000000000000000081526004016102b690610ae9565b60405180910390fd5b600260009054906101000a900460ff161561030f576040517f08c379a000000000000000000000000000000000000000000000000000000000815260040161030690610ec8565b60405180910390fd5b6000600260006101000a81548160ff021916908315150217905550565b7f000000000000000000000000000000000000000000000000000000000000000073ffffffffffffffffffffffffffffffffffffffff163373ffffffffffffffffffffffffffffffffffffffff16146103ba576040517f08c379a00000000000000000000000000000000000000000000000000000000081526004016103b190610ae9565b60405180910390fd5b600260009054906101000a900460ff16610409576040517f08c379a000000000000000000000000000000000000000000000000000000000815260040161040090610f34565b60405180910390fd5b6001600260006101000a81548160ff021916908315150217905550565b7f000000000000000000000000000000000000000000000000000000000000000081565b600080606060007f000000000000000000000000000000000000000000000000000000000000000073ffffffffffffffffffffffffffffffffffffffff163373ffffffffffffffffffffffffffffffffffffffff16146104df576040517f08c379a00000000000000000000000000000000000000000000000000000000081526004016104d690610ae9565b60405180910390fd5b600260009054906101000a900460ff1661053c5760008060006040518060400160405280600b81526020017f4e6f742061637469766521000000000000000000000000000000000000000000815250909350935093509350610709565b60008060008054906101000a900473ffffffffffffffffffffffffffffffffffffffff1673ffffffffffffffffffffffffffffffffffffffff1663feaf968c6040518163ffffffff1660e01b815260040160a060405180830381865afa1580156105aa573d6000803e3d6000fd5b505050506040513d601f19601f820116820180604052508101906105ce9190610fee565b5093505092505060008060009054906101000a900473ffffffffffffffffffffffffffffffffffffffff1673ffffffffffffffffffffffffffffffffffffffff1663313ce5676040518163ffffffff1660e01b8152600401602060405180830381865afa158015610643573d6000803e3d6000fd5b505050506040513d601f19601f8201168201806040525081019061066791906110a2565b60ff169050828160018481805461067d90610bcd565b80601f01602080910402602001604051908101604052809291908181526020018280546106a990610bcd565b80156106f65780601f106106cb576101008083540402835291602001916106f6565b820191906000526020600020905b8154815290600101906020018083116106d957829003601f168201915b5050505050915096509650965096505050505b90919293565b7f000000000000000000000000000000000000000000000000000000000000000081565b6000604051905090565b600080fd5b600080fd5b600080fd5b600080fd5b6000601f19601f8301169050919050565b7f4e487b7100000000000000000000000000000000000000000000000000000000600052604160045260246000fd5b61079a82610751565b810181811067ffffffffffffffff821117156107b9576107b8610762565b5b80604052505050565b60006107cc610733565b90506107d88282610791565b919050565b600067ffffffffffffffff8211156107f8576107f7610762565b5b61080182610751565b9050602081019050919050565b82818337600083830152505050565b600061083061082b846107dd565b6107c2565b90508281526020810184848401111561084c5761084b61074c565b5b61085784828561080e565b509392505050565b600082601f83011261087457610873610747565b5b813561088484826020860161081d565b91505092915050565b600073ffffffffffffffffffffffffffffffffffffffff82169050919050565b60006108b88261088d565b9050919050565b6108c8816108ad565b81146108d357600080fd5b50565b6000813590506108e5816108bf565b92915050565b6000806000606084860312156109045761090361073d565b5b600084013567ffffffffffffffff81111561092257610921610742565b5b61092e8682870161085f565b935050602084013567ffffffffffffffff81111561094f5761094e610742565b5b61095b8682870161085f565b925050604061096c868287016108d6565b9150509250925092565b61097f816108ad565b82525050565b600060208201905061099a6000830184610976565b92915050565b6000819050919050565b6109b3816109a0565b82525050565b6000819050919050565b6109cc816109b9565b82525050565b600081519050919050565b600082825260208201905092915050565b60005b83811015610a0c5780820151818401526020810190506109f1565b60008484015250505050565b6000610a23826109d2565b610a2d81856109dd565b9350610a3d8185602086016109ee565b610a4681610751565b840191505092915050565b6000608082019050610a6660008301876109aa565b610a7360208301866109c3565b8181036040830152610a858185610a18565b9050610a9460608301846109c3565b95945050505050565b7f4e6f7420417574686f72697a6564210000000000000000000000000000000000600082015250565b6000610ad3600f836109dd565b9150610ade82610a9d565b602082019050919050565b60006020820190508181036000830152610b0281610ac6565b9050919050565b600081905092915050565b6000610b1f826109d2565b610b298185610b09565b9350610b398185602086016109ee565b80840191505092915050565b7f2f00000000000000000000000000000000000000000000000000000000000000815250565b6000610b778285610b14565b9150610b8282610b45565b600182019150610b928284610b14565b91508190509392505050565b7f4e487b7100000000000000000000000000000000000000000000000000000000600052602260045260246000fd5b60006002820490506001821680610be557607f821691505b602082108103610bf857610bf7610b9e565b5b50919050565b60008190508160005260206000209050919050565b60006020601f8301049050919050565b600082821b905092915050565b600060088302610c607fffffffffffffffffffffffffffffffffffffffffffffffffffffffffffffffff82610c23565b610c6a8683610c23565b95508019841693508086168417925050509392505050565b6000819050919050565b6000610ca7610ca2610c9d846109b9565b610c82565b6109b9565b9050919050565b6000819050919050565b610cc183610c8c565b610cd5610ccd82610cae565b848454610c30565b825550505050565b600090565b610cea610cdd565b610cf5818484610cb8565b505050565b5b81811015610d1957610d0e600082610ce2565b600181019050610cfb565b5050565b601f821115610d5e57610d2f81610bfe565b610d3884610c13565b81016020851015610d47578190505b610d5b610d5385610c13565b830182610cfa565b50505b505050565b600082821c905092915050565b6000610d8160001984600802610d63565b1980831691505092915050565b6000610d9a8383610d70565b9150826002028217905092915050565b610db3826109d2565b67ffffffffffffffff811115610dcc57610dcb610762565b5b610dd68254610bcd565b610de1828285610d1d565b600060209050601f831160018114610e145760008415610e02578287015190505b610e0c8582610d8e565b865550610e74565b601f198416610e2286610bfe565b60005b82811015610e4a57848901518255600182019150602085019450602081019050610e25565b86831015610e675784890151610e63601f891682610d70565b8355505b6001600288020188555050505b505050505050565b7f416c726561647920616374697661746564210000000000000000000000000000600082015250565b6000610eb26012836109dd565b9150610ebd82610e7c565b602082019050919050565b60006020820190508181036000830152610ee181610ea5565b9050919050565b7f416c726561647920646561637469766174656421000000000000000000000000600082015250565b6000610f1e6014836109dd565b9150610f2982610ee8565b602082019050919050565b60006020820190508181036000830152610f4d81610f11565b9050919050565b600069ffffffffffffffffffff82169050919050565b610f7381610f54565b8114610f7e57600080fd5b50565b600081519050610f9081610f6a565b92915050565b610f9f816109a0565b8114610faa57600080fd5b50565b600081519050610fbc81610f96565b92915050565b610fcb816109b9565b8114610fd657600080fd5b50565b600081519050610fe881610fc2565b92915050565b600080600080600060a0868803121561100a5761100961073d565b5b600061101888828901610f81565b955050602061102988828901610fad565b945050604061103a88828901610fd9565b935050606061104b88828901610fd9565b925050608061105c88828901610f81565b9150509295509295909350565b600060ff82169050919050565b61107f81611069565b811461108a57600080fd5b50565b60008151905061109c81611076565b92915050565b6000602082840312156110b8576110b761073d565b5b60006110c68482850161108d565b9150509291505056fea2646970667358221220ff886f2c6947c5ef0ea4adb2536520dff74e67cad31684195a6786daa51d03b064736f6c63430008170033",
					"opcodes": "PUSH1 0xC0 PUSH1 0x40 MSTORE PUSH1 0x1 PUSH1 0x2 PUSH1 0x0 PUSH2 0x100 EXP DUP2 SLOAD DUP2 PUSH1 0xFF MUL NOT AND SWAP1 DUP4 ISZERO ISZERO MUL OR SWAP1 SSTORE POP CALLVALUE DUP1 ISZERO PUSH3 0x2C JUMPI PUSH1 0x0 DUP1 REVERT JUMPDEST POP PUSH1 0x40 MLOAD PUSH3 0x19BF CODESIZE SUB DUP1 PUSH3 0x19BF DUP4 CODECOPY DUP2 DUP2 ADD PUSH1 0x40 MSTORE DUP2 ADD SWAP1 PUSH3 0x52 SWAP2 SWAP1 PUSH3 0x3E0 JUMP JUMPDEST PUSH1 0x0 PUSH20 0xFFFFFFFFFFFFFFFFFFFFFFFFFFFFFFFFFFFFFFFF AND DUP4 PUSH20 0xFFFFFFFFFFFFFFFFFFFFFFFFFFFFFFFFFFFFFFFF AND SUB PUSH3 0x8C JUMPI PUSH1 0x0 DUP1 REVERT JUMPDEST PUSH1 0x0 PUSH20 0xFFFFFFFFFFFFFFFFFFFFFFFFFFFFFFFFFFFFFFFF AND DUP3 PUSH20 0xFFFFFFFFFFFFFFFFFFFFFFFFFFFFFFFFFFFFFFFF AND SUB PUSH3 0xC6 JUMPI PUSH1 0x0 DUP1 REVERT JUMPDEST PUSH1 0x0 PUSH20 0xFFFFFFFFFFFFFFFFFFFFFFFFFFFFFFFFFFFFFFFF AND DUP2 PUSH20 0xFFFFFFFFFFFFFFFFFFFFFFFFFFFFFFFFFFFFFFFF AND SUB PUSH3 0x100 JUMPI PUSH1 0x0 DUP1 REVERT JUMPDEST DUP3 PUSH1 0x0 DUP1 PUSH2 0x100 EXP DUP2 SLOAD DUP2 PUSH20 0xFFFFFFFFFFFFFFFFFFFFFFFFFFFFFFFFFFFFFFFF MUL NOT AND SWAP1 DUP4 PUSH20 0xFFFFFFFFFFFFFFFFFFFFFFFFFFFFFFFFFFFFFFFF AND MUL OR SWAP1 SSTORE POP DUP5 DUP5 PUSH1 0x40 MLOAD PUSH1 0x20 ADD PUSH3 0x155 SWAP3 SWAP2 SWAP1 PUSH3 0x519 JUMP JUMPDEST PUSH1 0x40 MLOAD PUSH1 0x20 DUP2 DUP4 SUB SUB DUP2 MSTORE SWAP1 PUSH1 0x40 MSTORE PUSH1 0x1 SWAP1 DUP2 PUSH3 0x174 SWAP2 SWAP1 PUSH3 0x792 JUMP JUMPDEST POP DUP2 PUSH20 0xFFFFFFFFFFFFFFFFFFFFFFFFFFFFFFFFFFFFFFFF AND PUSH1 0x80 DUP2 PUSH20 0xFFFFFFFFFFFFFFFFFFFFFFFFFFFFFFFFFFFFFFFF AND DUP2 MSTORE POP POP DUP1 PUSH20 0xFFFFFFFFFFFFFFFFFFFFFFFFFFFFFFFFFFFFFFFF AND PUSH1 0xA0 DUP2 PUSH20 0xFFFFFFFFFFFFFFFFFFFFFFFFFFFFFFFFFFFFFFFF AND DUP2 MSTORE POP POP POP POP POP POP POP PUSH3 0x879 JUMP JUMPDEST PUSH1 0x0 PUSH1 0x40 MLOAD SWAP1 POP SWAP1 JUMP JUMPDEST PUSH1 0x0 DUP1 REVERT JUMPDEST PUSH1 0x0 DUP1 REVERT JUMPDEST PUSH1 0x0 DUP1 REVERT JUMPDEST PUSH1 0x0 DUP1 REVERT JUMPDEST PUSH1 0x0 PUSH1 0x1F NOT PUSH1 0x1F DUP4 ADD AND SWAP1 POP SWAP2 SWAP1 POP JUMP JUMPDEST PUSH32 0x4E487B7100000000000000000000000000000000000000000000000000000000 PUSH1 0x0 MSTORE PUSH1 0x41 PUSH1 0x4 MSTORE PUSH1 0x24 PUSH1 0x0 REVERT JUMPDEST PUSH3 0x251 DUP3 PUSH3 0x206 JUMP JUMPDEST DUP2 ADD DUP2 DUP2 LT PUSH8 0xFFFFFFFFFFFFFFFF DUP3 GT OR ISZERO PUSH3 0x273 JUMPI PUSH3 0x272 PUSH3 0x217 JUMP JUMPDEST JUMPDEST DUP1 PUSH1 0x40 MSTORE POP POP POP JUMP JUMPDEST PUSH1 0x0 PUSH3 0x288 PUSH3 0x1E8 JUMP JUMPDEST SWAP1 POP PUSH3 0x296 DUP3 DUP3 PUSH3 0x246 JUMP JUMPDEST SWAP2 SWAP1 POP JUMP JUMPDEST PUSH1 0x0 PUSH8 0xFFFFFFFFFFFFFFFF DUP3 GT ISZERO PUSH3 0x2B9 JUMPI PUSH3 0x2B8 PUSH3 0x217 JUMP JUMPDEST JUMPDEST PUSH3 0x2C4 DUP3 PUSH3 0x206 JUMP JUMPDEST SWAP1 POP PUSH1 0x20 DUP2 ADD SWAP1 POP SWAP2 SWAP1 POP JUMP JUMPDEST PUSH1 0x0 JUMPDEST DUP4 DUP2 LT ISZERO PUSH3 0x2F1 JUMPI DUP1 DUP3 ADD MLOAD DUP2 DUP5 ADD MSTORE PUSH1 0x20 DUP2 ADD SWAP1 POP PUSH3 0x2D4 JUMP JUMPDEST PUSH1 0x0 DUP5 DUP5 ADD MSTORE POP POP POP POP JUMP JUMPDEST PUSH1 0x0 PUSH3 0x314 PUSH3 0x30E DUP5 PUSH3 0x29B JUMP JUMPDEST PUSH3 0x27C JUMP JUMPDEST SWAP1 POP DUP3 DUP2 MSTORE PUSH1 0x20 DUP2 ADD DUP5 DUP5 DUP5 ADD GT ISZERO PUSH3 0x333 JUMPI PUSH3 0x332 PUSH3 0x201 JUMP JUMPDEST JUMPDEST PUSH3 0x340 DUP5 DUP3 DUP6 PUSH3 0x2D1 JUMP JUMPDEST POP SWAP4 SWAP3 POP POP POP JUMP JUMPDEST PUSH1 0x0 DUP3 PUSH1 0x1F DUP4 ADD SLT PUSH3 0x360 JUMPI PUSH3 0x35F PUSH3 0x1FC JUMP JUMPDEST JUMPDEST DUP2 MLOAD PUSH3 0x372 DUP5 DUP3 PUSH1 0x20 DUP7 ADD PUSH3 0x2FD JUMP JUMPDEST SWAP2 POP POP SWAP3 SWAP2 POP POP JUMP JUMPDEST PUSH1 0x0 PUSH20 0xFFFFFFFFFFFFFFFFFFFFFFFFFFFFFFFFFFFFFFFF DUP3 AND SWAP1 POP SWAP2 SWAP1 POP JUMP JUMPDEST PUSH1 0x0 PUSH3 0x3A8 DUP3 PUSH3 0x37B JUMP JUMPDEST SWAP1 POP SWAP2 SWAP1 POP JUMP JUMPDEST PUSH3 0x3BA DUP2 PUSH3 0x39B JUMP JUMPDEST DUP2 EQ PUSH3 0x3C6 JUMPI PUSH1 0x0 DUP1 REVERT JUMPDEST POP JUMP JUMPDEST PUSH1 0x0 DUP2 MLOAD SWAP1 POP PUSH3 0x3DA DUP2 PUSH3 0x3AF JUMP JUMPDEST SWAP3 SWAP2 POP POP JUMP JUMPDEST PUSH1 0x0 DUP1 PUSH1 0x0 DUP1 PUSH1 0x0 PUSH1 0xA0 DUP7 DUP9 SUB SLT ISZERO PUSH3 0x3FF JUMPI PUSH3 0x3FE PUSH3 0x1F2 JUMP JUMPDEST JUMPDEST PUSH1 0x0 DUP7 ADD MLOAD PUSH8 0xFFFFFFFFFFFFFFFF DUP2 GT ISZERO PUSH3 0x420 JUMPI PUSH3 0x41F PUSH3 0x1F7 JUMP JUMPDEST JUMPDEST PUSH3 0x42E DUP9 DUP3 DUP10 ADD PUSH3 0x348 JUMP JUMPDEST SWAP6 POP POP PUSH1 0x20 DUP7 ADD MLOAD PUSH8 0xFFFFFFFFFFFFFFFF DUP2 GT ISZERO PUSH3 0x452 JUMPI PUSH3 0x451 PUSH3 0x1F7 JUMP JUMPDEST JUMPDEST PUSH3 0x460 DUP9 DUP3 DUP10 ADD PUSH3 0x348 JUMP JUMPDEST SWAP5 POP POP PUSH1 0x40 PUSH3 0x473 DUP9 DUP3 DUP10 ADD PUSH3 0x3C9 JUMP JUMPDEST SWAP4 POP POP PUSH1 0x60 PUSH3 0x486 DUP9 DUP3 DUP10 ADD PUSH3 0x3C9 JUMP JUMPDEST SWAP3 POP POP PUSH1 0x80 PUSH3 0x499 DUP9 DUP3 DUP10 ADD PUSH3 0x3C9 JUMP JUMPDEST SWAP2 POP POP SWAP3 SWAP6 POP SWAP3 SWAP6 SWAP1 SWAP4 POP JUMP JUMPDEST PUSH1 0x0 DUP2 MLOAD SWAP1 POP SWAP2 SWAP1 POP JUMP JUMPDEST PUSH1 0x0 DUP2 SWAP1 POP SWAP3 SWAP2 POP POP JUMP JUMPDEST PUSH1 0x0 PUSH3 0x4C9 DUP3 PUSH3 0x4A6 JUMP JUMPDEST PUSH3 0x4D5 DUP2 DUP6 PUSH3 0x4B1 JUMP JUMPDEST SWAP4 POP PUSH3 0x4E7 DUP2 DUP6 PUSH1 0x20 DUP7 ADD PUSH3 0x2D1 JUMP JUMPDEST DUP1 DUP5 ADD SWAP2 POP POP SWAP3 SWAP2 POP POP JUMP JUMPDEST PUSH32 0x2F00000000000000000000000000000000000000000000000000000000000000 DUP2 MSTORE POP JUMP JUMPDEST PUSH1 0x0 PUSH3 0x527 DUP3 DUP6 PUSH3 0x4BC JUMP JUMPDEST SWAP2 POP PUSH3 0x534 DUP3 PUSH3 0x4F3 JUMP JUMPDEST PUSH1 0x1 DUP3 ADD SWAP2 POP PUSH3 0x546 DUP3 DUP5 PUSH3 0x4BC JUMP JUMPDEST SWAP2 POP DUP2 SWAP1 POP SWAP4 SWAP3 POP POP POP JUMP JUMPDEST PUSH32 0x4E487B7100000000000000000000000000000000000000000000000000000000 PUSH1 0x0 MSTORE PUSH1 0x22 PUSH1 0x4 MSTORE PUSH1 0x24 PUSH1 0x0 REVERT JUMPDEST PUSH1 0x0 PUSH1 0x2 DUP3 DIV SWAP1 POP PUSH1 0x1 DUP3 AND DUP1 PUSH3 0x59A JUMPI PUSH1 0x7F DUP3 AND SWAP2 POP JUMPDEST PUSH1 0x20 DUP3 LT DUP2 SUB PUSH3 0x5B0 JUMPI PUSH3 0x5AF PUSH3 0x552 JUMP JUMPDEST JUMPDEST POP SWAP2 SWAP1 POP JUMP JUMPDEST PUSH1 0x0 DUP2 SWAP1 POP DUP2 PUSH1 0x0 MSTORE PUSH1 0x20 PUSH1 0x0 KECCAK256 SWAP1 POP SWAP2 SWAP1 POP JUMP JUMPDEST PUSH1 0x0 PUSH1 0x20 PUSH1 0x1F DUP4 ADD DIV SWAP1 POP SWAP2 SWAP1 POP JUMP JUMPDEST PUSH1 0x0 DUP3 DUP3 SHL SWAP1 POP SWAP3 SWAP2 POP POP JUMP JUMPDEST PUSH1 0x0 PUSH1 0x8 DUP4 MUL PUSH3 0x61A PUSH32 0xFFFFFFFFFFFFFFFFFFFFFFFFFFFFFFFFFFFFFFFFFFFFFFFFFFFFFFFFFFFFFFFF DUP3 PUSH3 0x5DB JUMP JUMPDEST PUSH3 0x626 DUP7 DUP4 PUSH3 0x5DB JUMP JUMPDEST SWAP6 POP DUP1 NOT DUP5 AND SWAP4 POP DUP1 DUP7 AND DUP5 OR SWAP3 POP POP POP SWAP4 SWAP3 POP POP POP JUMP JUMPDEST PUSH1 0x0 DUP2 SWAP1 POP SWAP2 SWAP1 POP JUMP JUMPDEST PUSH1 0x0 DUP2 SWAP1 POP SWAP2 SWAP1 POP JUMP JUMPDEST PUSH1 0x0 PUSH3 0x673 PUSH3 0x66D PUSH3 0x667 DUP5 PUSH3 0x63E JUMP JUMPDEST PUSH3 0x648 JUMP JUMPDEST PUSH3 0x63E JUMP JUMPDEST SWAP1 POP SWAP2 SWAP1 POP JUMP JUMPDEST PUSH1 0x0 DUP2 SWAP1 POP SWAP2 SWAP1 POP JUMP JUMPDEST PUSH3 0x68F DUP4 PUSH3 0x652 JUMP JUMPDEST PUSH3 0x6A7 PUSH3 0x69E DUP3 PUSH3 0x67A JUMP JUMPDEST DUP5 DUP5 SLOAD PUSH3 0x5E8 JUMP JUMPDEST DUP3 SSTORE POP POP POP POP JUMP JUMPDEST PUSH1 0x0 SWAP1 JUMP JUMPDEST PUSH3 0x6BE PUSH3 0x6AF JUMP JUMPDEST PUSH3 0x6CB DUP2 DUP5 DUP5 PUSH3 0x684 JUMP JUMPDEST POP POP POP JUMP JUMPDEST JUMPDEST DUP2 DUP2 LT ISZERO PUSH3 0x6F3 JUMPI PUSH3 0x6E7 PUSH1 0x0 DUP3 PUSH3 0x6B4 JUMP JUMPDEST PUSH1 0x1 DUP2 ADD SWAP1 POP PUSH3 0x6D1 JUMP JUMPDEST POP POP JUMP JUMPDEST PUSH1 0x1F DUP3 GT ISZERO PUSH3 0x742 JUMPI PUSH3 0x70C DUP2 PUSH3 0x5B6 JUMP JUMPDEST PUSH3 0x717 DUP5 PUSH3 0x5CB JUMP JUMPDEST DUP2 ADD PUSH1 0x20 DUP6 LT ISZERO PUSH3 0x727 JUMPI DUP2 SWAP1 POP JUMPDEST PUSH3 0x73F PUSH3 0x736 DUP6 PUSH3 0x5CB JUMP JUMPDEST DUP4 ADD DUP3 PUSH3 0x6D0 JUMP JUMPDEST POP POP JUMPDEST POP POP POP JUMP JUMPDEST PUSH1 0x0 DUP3 DUP3 SHR SWAP1 POP SWAP3 SWAP2 POP POP JUMP JUMPDEST PUSH1 0x0 PUSH3 0x767 PUSH1 0x0 NOT DUP5 PUSH1 0x8 MUL PUSH3 0x747 JUMP JUMPDEST NOT DUP1 DUP4 AND SWAP2 POP POP SWAP3 SWAP2 POP POP JUMP JUMPDEST PUSH1 0x0 PUSH3 0x782 DUP4 DUP4 PUSH3 0x754 JUMP JUMPDEST SWAP2 POP DUP3 PUSH1 0x2 MUL DUP3 OR SWAP1 POP SWAP3 SWAP2 POP POP JUMP JUMPDEST PUSH3 0x79D DUP3 PUSH3 0x4A6 JUMP JUMPDEST PUSH8 0xFFFFFFFFFFFFFFFF DUP2 GT ISZERO PUSH3 0x7B9 JUMPI PUSH3 0x7B8 PUSH3 0x217 JUMP JUMPDEST JUMPDEST PUSH3 0x7C5 DUP3 SLOAD PUSH3 0x581 JUMP JUMPDEST PUSH3 0x7D2 DUP3 DUP3 DUP6 PUSH3 0x6F7 JUMP JUMPDEST PUSH1 0x0 PUSH1 0x20 SWAP1 POP PUSH1 0x1F DUP4 GT PUSH1 0x1 DUP2 EQ PUSH3 0x80A JUMPI PUSH1 0x0 DUP5 ISZERO PUSH3 0x7F5 JUMPI DUP3 DUP8 ADD MLOAD SWAP1 POP JUMPDEST PUSH3 0x801 DUP6 DUP3 PUSH3 0x774 JUMP JUMPDEST DUP7 SSTORE POP PUSH3 0x871 JUMP JUMPDEST PUSH1 0x1F NOT DUP5 AND PUSH3 0x81A DUP7 PUSH3 0x5B6 JUMP JUMPDEST PUSH1 0x0 JUMPDEST DUP3 DUP2 LT ISZERO PUSH3 0x844 JUMPI DUP5 DUP10 ADD MLOAD DUP3 SSTORE PUSH1 0x1 DUP3 ADD SWAP2 POP PUSH1 0x20 DUP6 ADD SWAP5 POP PUSH1 0x20 DUP2 ADD SWAP1 POP PUSH3 0x81D JUMP JUMPDEST DUP7 DUP4 LT ISZERO PUSH3 0x864 JUMPI DUP5 DUP10 ADD MLOAD PUSH3 0x860 PUSH1 0x1F DUP10 AND DUP3 PUSH3 0x754 JUMP JUMPDEST DUP4 SSTORE POP JUMPDEST PUSH1 0x1 PUSH1 0x2 DUP9 MUL ADD DUP9 SSTORE POP POP POP JUMPDEST POP POP POP POP POP POP JUMP JUMPDEST PUSH1 0x80 MLOAD PUSH1 0xA0 MLOAD PUSH2 0x1105 PUSH3 0x8BA PUSH1 0x0 CODECOPY PUSH1 0x0 DUP2 DUP2 PUSH1 0xF6 ADD MSTORE DUP2 DUP2 PUSH2 0x233 ADD MSTORE DUP2 DUP2 PUSH2 0x32E ADD MSTORE PUSH2 0x711 ADD MSTORE PUSH1 0x0 DUP2 DUP2 PUSH2 0x428 ADD MSTORE PUSH2 0x453 ADD MSTORE PUSH2 0x1105 PUSH1 0x0 RETURN INVALID PUSH1 0x80 PUSH1 0x40 MSTORE CALLVALUE DUP1 ISZERO PUSH2 0x10 JUMPI PUSH1 0x0 DUP1 REVERT JUMPDEST POP PUSH1 0x4 CALLDATASIZE LT PUSH2 0x62 JUMPI PUSH1 0x0 CALLDATALOAD PUSH1 0xE0 SHR DUP1 PUSH4 0x82C4484 EQ PUSH2 0x67 JUMPI DUP1 PUSH4 0xF15F4C0 EQ PUSH2 0x83 JUMPI DUP1 PUSH4 0x51B42B00 EQ PUSH2 0x8D JUMPI DUP1 PUSH4 0x8DA5CB5B EQ PUSH2 0x97 JUMPI DUP1 PUSH4 0xE1E7FF77 EQ PUSH2 0xB5 JUMPI DUP1 PUSH4 0xF851A440 EQ PUSH2 0xD6 JUMPI JUMPDEST PUSH1 0x0 DUP1 REVERT JUMPDEST PUSH2 0x81 PUSH1 0x4 DUP1 CALLDATASIZE SUB DUP2 ADD SWAP1 PUSH2 0x7C SWAP2 SWAP1 PUSH2 0x8EB JUMP JUMPDEST PUSH2 0xF4 JUMP JUMPDEST STOP JUMPDEST PUSH2 0x8B PUSH2 0x231 JUMP JUMPDEST STOP JUMPDEST PUSH2 0x95 PUSH2 0x32C JUMP JUMPDEST STOP JUMPDEST PUSH2 0x9F PUSH2 0x426 JUMP JUMPDEST PUSH1 0x40 MLOAD PUSH2 0xAC SWAP2 SWAP1 PUSH2 0x985 JUMP JUMPDEST PUSH1 0x40 MLOAD DUP1 SWAP2 SUB SWAP1 RETURN JUMPDEST PUSH2 0xBD PUSH2 0x44A JUMP JUMPDEST PUSH1 0x40 MLOAD PUSH2 0xCD SWAP5 SWAP4 SWAP3 SWAP2 SWAP1 PUSH2 0xA51 JUMP JUMPDEST PUSH1 0x40 MLOAD DUP1 SWAP2 SUB SWAP1 RETURN JUMPDEST PUSH2 0xDE PUSH2 0x70F JUMP JUMPDEST PUSH1 0x40 MLOAD PUSH2 0xEB SWAP2 SWAP1 PUSH2 0x985 JUMP JUMPDEST PUSH1 0x40 MLOAD DUP1 SWAP2 SUB SWAP1 RETURN JUMPDEST PUSH32 0x0 PUSH20 0xFFFFFFFFFFFFFFFFFFFFFFFFFFFFFFFFFFFFFFFF AND CALLER PUSH20 0xFFFFFFFFFFFFFFFFFFFFFFFFFFFFFFFFFFFFFFFF AND EQ PUSH2 0x182 JUMPI PUSH1 0x40 MLOAD PUSH32 0x8C379A000000000000000000000000000000000000000000000000000000000 DUP2 MSTORE PUSH1 0x4 ADD PUSH2 0x179 SWAP1 PUSH2 0xAE9 JUMP JUMPDEST PUSH1 0x40 MLOAD DUP1 SWAP2 SUB SWAP1 REVERT JUMPDEST PUSH1 0x0 PUSH20 0xFFFFFFFFFFFFFFFFFFFFFFFFFFFFFFFFFFFFFFFF AND DUP2 PUSH20 0xFFFFFFFFFFFFFFFFFFFFFFFFFFFFFFFFFFFFFFFF AND SUB PUSH2 0x1BB JUMPI PUSH1 0x0 DUP1 REVERT JUMPDEST DUP1 PUSH1 0x0 DUP1 PUSH2 0x100 EXP DUP2 SLOAD DUP2 PUSH20 0xFFFFFFFFFFFFFFFFFFFFFFFFFFFFFFFFFFFFFFFF MUL NOT AND SWAP1 DUP4 PUSH20 0xFFFFFFFFFFFFFFFFFFFFFFFFFFFFFFFFFFFFFFFF AND MUL OR SWAP1 SSTORE POP DUP3 DUP3 PUSH1 0x40 MLOAD PUSH1 0x20 ADD PUSH2 0x20E SWAP3 SWAP2 SWAP1 PUSH2 0xB6B JUMP JUMPDEST PUSH1 0x40 MLOAD PUSH1 0x20 DUP2 DUP4 SUB SUB DUP2 MSTORE SWAP1 PUSH1 0x40 MSTORE PUSH1 0x1 SWAP1 DUP2 PUSH2 0x22B SWAP2 SWAP1 PUSH2 0xDAA JUMP JUMPDEST POP POP POP POP JUMP JUMPDEST PUSH32 0x0 PUSH20 0xFFFFFFFFFFFFFFFFFFFFFFFFFFFFFFFFFFFFFFFF AND CALLER PUSH20 0xFFFFFFFFFFFFFFFFFFFFFFFFFFFFFFFFFFFFFFFF AND EQ PUSH2 0x2BF JUMPI PUSH1 0x40 MLOAD PUSH32 0x8C379A000000000000000000000000000000000000000000000000000000000 DUP2 MSTORE PUSH1 0x4 ADD PUSH2 0x2B6 SWAP1 PUSH2 0xAE9 JUMP JUMPDEST PUSH1 0x40 MLOAD DUP1 SWAP2 SUB SWAP1 REVERT JUMPDEST PUSH1 0x2 PUSH1 0x0 SWAP1 SLOAD SWAP1 PUSH2 0x100 EXP SWAP1 DIV PUSH1 0xFF AND ISZERO PUSH2 0x30F JUMPI PUSH1 0x40 MLOAD PUSH32 0x8C379A000000000000000000000000000000000000000000000000000000000 DUP2 MSTORE PUSH1 0x4 ADD PUSH2 0x306 SWAP1 PUSH2 0xEC8 JUMP JUMPDEST PUSH1 0x40 MLOAD DUP1 SWAP2 SUB SWAP1 REVERT JUMPDEST PUSH1 0x0 PUSH1 0x2 PUSH1 0x0 PUSH2 0x100 EXP DUP2 SLOAD DUP2 PUSH1 0xFF MUL NOT AND SWAP1 DUP4 ISZERO ISZERO MUL OR SWAP1 SSTORE POP JUMP JUMPDEST PUSH32 0x0 PUSH20 0xFFFFFFFFFFFFFFFFFFFFFFFFFFFFFFFFFFFFFFFF AND CALLER PUSH20 0xFFFFFFFFFFFFFFFFFFFFFFFFFFFFFFFFFFFFFFFF AND EQ PUSH2 0x3BA JUMPI PUSH1 0x40 MLOAD PUSH32 0x8C379A000000000000000000000000000000000000000000000000000000000 DUP2 MSTORE PUSH1 0x4 ADD PUSH2 0x3B1 SWAP1 PUSH2 0xAE9 JUMP JUMPDEST PUSH1 0x40 MLOAD DUP1 SWAP2 SUB SWAP1 REVERT JUMPDEST PUSH1 0x2 PUSH1 0x0 SWAP1 SLOAD SWAP1 PUSH2 0x100 EXP SWAP1 DIV PUSH1 0xFF AND PUSH2 0x409 JUMPI PUSH1 0x40 MLOAD PUSH32 0x8C379A000000000000000000000000000000000000000000000000000000000 DUP2 MSTORE PUSH1 0x4 ADD PUSH2 0x400 SWAP1 PUSH2 0xF34 JUMP JUMPDEST PUSH1 0x40 MLOAD DUP1 SWAP2 SUB SWAP1 REVERT JUMPDEST PUSH1 0x1 PUSH1 0x2 PUSH1 0x0 PUSH2 0x100 EXP DUP2 SLOAD DUP2 PUSH1 0xFF MUL NOT AND SWAP1 DUP4 ISZERO ISZERO MUL OR SWAP1 SSTORE POP JUMP JUMPDEST PUSH32 0x0 DUP2 JUMP JUMPDEST PUSH1 0x0 DUP1 PUSH1 0x60 PUSH1 0x0 PUSH32 0x0 PUSH20 0xFFFFFFFFFFFFFFFFFFFFFFFFFFFFFFFFFFFFFFFF AND CALLER PUSH20 0xFFFFFFFFFFFFFFFFFFFFFFFFFFFFFFFFFFFFFFFF AND EQ PUSH2 0x4DF JUMPI PUSH1 0x40 MLOAD PUSH32 0x8C379A000000000000000000000000000000000000000000000000000000000 DUP2 MSTORE PUSH1 0x4 ADD PUSH2 0x4D6 SWAP1 PUSH2 0xAE9 JUMP JUMPDEST PUSH1 0x40 MLOAD DUP1 SWAP2 SUB SWAP1 REVERT JUMPDEST PUSH1 0x2 PUSH1 0x0 SWAP1 SLOAD SWAP1 PUSH2 0x100 EXP SWAP1 DIV PUSH1 0xFF AND PUSH2 0x53C JUMPI PUSH1 0x0 DUP1 PUSH1 0x0 PUSH1 0x40 MLOAD DUP1 PUSH1 0x40 ADD PUSH1 0x40 MSTORE DUP1 PUSH1 0xB DUP2 MSTORE PUSH1 0x20 ADD PUSH32 0x4E6F742061637469766521000000000000000000000000000000000000000000 DUP2 MSTORE POP SWAP1 SWAP4 POP SWAP4 POP SWAP4 POP SWAP4 POP PUSH2 0x709 JUMP JUMPDEST PUSH1 0x0 DUP1 PUSH1 0x0 DUP1 SLOAD SWAP1 PUSH2 0x100 EXP SWAP1 DIV PUSH20 0xFFFFFFFFFFFFFFFFFFFFFFFFFFFFFFFFFFFFFFFF AND PUSH20 0xFFFFFFFFFFFFFFFFFFFFFFFFFFFFFFFFFFFFFFFF AND PUSH4 0xFEAF968C PUSH1 0x40 MLOAD DUP2 PUSH4 0xFFFFFFFF AND PUSH1 0xE0 SHL DUP2 MSTORE PUSH1 0x4 ADD PUSH1 0xA0 PUSH1 0x40 MLOAD DUP1 DUP4 SUB DUP2 DUP7 GAS STATICCALL ISZERO DUP1 ISZERO PUSH2 0x5AA JUMPI RETURNDATASIZE PUSH1 0x0 DUP1 RETURNDATACOPY RETURNDATASIZE PUSH1 0x0 REVERT JUMPDEST POP POP POP POP PUSH1 0x40 MLOAD RETURNDATASIZE PUSH1 0x1F NOT PUSH1 0x1F DUP3 ADD AND DUP3 ADD DUP1 PUSH1 0x40 MSTORE POP DUP2 ADD SWAP1 PUSH2 0x5CE SWAP2 SWAP1 PUSH2 0xFEE JUMP JUMPDEST POP SWAP4 POP POP SWAP3 POP POP PUSH1 0x0 DUP1 PUSH1 0x0 SWAP1 SLOAD SWAP1 PUSH2 0x100 EXP SWAP1 DIV PUSH20 0xFFFFFFFFFFFFFFFFFFFFFFFFFFFFFFFFFFFFFFFF AND PUSH20 0xFFFFFFFFFFFFFFFFFFFFFFFFFFFFFFFFFFFFFFFF AND PUSH4 0x313CE567 PUSH1 0x40 MLOAD DUP2 PUSH4 0xFFFFFFFF AND PUSH1 0xE0 SHL DUP2 MSTORE PUSH1 0x4 ADD PUSH1 0x20 PUSH1 0x40 MLOAD DUP1 DUP4 SUB DUP2 DUP7 GAS STATICCALL ISZERO DUP1 ISZERO PUSH2 0x643 JUMPI RETURNDATASIZE PUSH1 0x0 DUP1 RETURNDATACOPY RETURNDATASIZE PUSH1 0x0 REVERT JUMPDEST POP POP POP POP PUSH1 0x40 MLOAD RETURNDATASIZE PUSH1 0x1F NOT PUSH1 0x1F DUP3 ADD AND DUP3 ADD DUP1 PUSH1 0x40 MSTORE POP DUP2 ADD SWAP1 PUSH2 0x667 SWAP2 SWAP1 PUSH2 0x10A2 JUMP JUMPDEST PUSH1 0xFF AND SWAP1 POP DUP3 DUP2 PUSH1 0x1 DUP5 DUP2 DUP1 SLOAD PUSH2 0x67D SWAP1 PUSH2 0xBCD JUMP JUMPDEST DUP1 PUSH1 0x1F ADD PUSH1 0x20 DUP1 SWAP2 DIV MUL PUSH1 0x20 ADD PUSH1 0x40 MLOAD SWAP1 DUP2 ADD PUSH1 0x40 MSTORE DUP1 SWAP3 SWAP2 SWAP1 DUP2 DUP2 MSTORE PUSH1 0x20 ADD DUP3 DUP1 SLOAD PUSH2 0x6A9 SWAP1 PUSH2 0xBCD JUMP JUMPDEST DUP1 ISZERO PUSH2 0x6F6 JUMPI DUP1 PUSH1 0x1F LT PUSH2 0x6CB JUMPI PUSH2 0x100 DUP1 DUP4 SLOAD DIV MUL DUP4 MSTORE SWAP2 PUSH1 0x20 ADD SWAP2 PUSH2 0x6F6 JUMP JUMPDEST DUP3 ADD SWAP2 SWAP1 PUSH1 0x0 MSTORE PUSH1 0x20 PUSH1 0x0 KECCAK256 SWAP1 JUMPDEST DUP2 SLOAD DUP2 MSTORE SWAP1 PUSH1 0x1 ADD SWAP1 PUSH1 0x20 ADD DUP1 DUP4 GT PUSH2 0x6D9 JUMPI DUP3 SWAP1 SUB PUSH1 0x1F AND DUP3 ADD SWAP2 JUMPDEST POP POP POP POP POP SWAP2 POP SWAP7 POP SWAP7 POP SWAP7 POP SWAP7 POP POP POP POP JUMPDEST SWAP1 SWAP2 SWAP3 SWAP4 JUMP JUMPDEST PUSH32 0x0 DUP2 JUMP JUMPDEST PUSH1 0x0 PUSH1 0x40 MLOAD SWAP1 POP SWAP1 JUMP JUMPDEST PUSH1 0x0 DUP1 REVERT JUMPDEST PUSH1 0x0 DUP1 REVERT JUMPDEST PUSH1 0x0 DUP1 REVERT JUMPDEST PUSH1 0x0 DUP1 REVERT JUMPDEST PUSH1 0x0 PUSH1 0x1F NOT PUSH1 0x1F DUP4 ADD AND SWAP1 POP SWAP2 SWAP1 POP JUMP JUMPDEST PUSH32 0x4E487B7100000000000000000000000000000000000000000000000000000000 PUSH1 0x0 MSTORE PUSH1 0x41 PUSH1 0x4 MSTORE PUSH1 0x24 PUSH1 0x0 REVERT JUMPDEST PUSH2 0x79A DUP3 PUSH2 0x751 JUMP JUMPDEST DUP2 ADD DUP2 DUP2 LT PUSH8 0xFFFFFFFFFFFFFFFF DUP3 GT OR ISZERO PUSH2 0x7B9 JUMPI PUSH2 0x7B8 PUSH2 0x762 JUMP JUMPDEST JUMPDEST DUP1 PUSH1 0x40 MSTORE POP POP POP JUMP JUMPDEST PUSH1 0x0 PUSH2 0x7CC PUSH2 0x733 JUMP JUMPDEST SWAP1 POP PUSH2 0x7D8 DUP3 DUP3 PUSH2 0x791 JUMP JUMPDEST SWAP2 SWAP1 POP JUMP JUMPDEST PUSH1 0x0 PUSH8 0xFFFFFFFFFFFFFFFF DUP3 GT ISZERO PUSH2 0x7F8 JUMPI PUSH2 0x7F7 PUSH2 0x762 JUMP JUMPDEST JUMPDEST PUSH2 0x801 DUP3 PUSH2 0x751 JUMP JUMPDEST SWAP1 POP PUSH1 0x20 DUP2 ADD SWAP1 POP SWAP2 SWAP1 POP JUMP JUMPDEST DUP3 DUP2 DUP4 CALLDATACOPY PUSH1 0x0 DUP4 DUP4 ADD MSTORE POP POP POP JUMP JUMPDEST PUSH1 0x0 PUSH2 0x830 PUSH2 0x82B DUP5 PUSH2 0x7DD JUMP JUMPDEST PUSH2 0x7C2 JUMP JUMPDEST SWAP1 POP DUP3 DUP2 MSTORE PUSH1 0x20 DUP2 ADD DUP5 DUP5 DUP5 ADD GT ISZERO PUSH2 0x84C JUMPI PUSH2 0x84B PUSH2 0x74C JUMP JUMPDEST JUMPDEST PUSH2 0x857 DUP5 DUP3 DUP6 PUSH2 0x80E JUMP JUMPDEST POP SWAP4 SWAP3 POP POP POP JUMP JUMPDEST PUSH1 0x0 DUP3 PUSH1 0x1F DUP4 ADD SLT PUSH2 0x874 JUMPI PUSH2 0x873 PUSH2 0x747 JUMP JUMPDEST JUMPDEST DUP2 CALLDATALOAD PUSH2 0x884 DUP5 DUP3 PUSH1 0x20 DUP7 ADD PUSH2 0x81D JUMP JUMPDEST SWAP2 POP POP SWAP3 SWAP2 POP POP JUMP JUMPDEST PUSH1 0x0 PUSH20 0xFFFFFFFFFFFFFFFFFFFFFFFFFFFFFFFFFFFFFFFF DUP3 AND SWAP1 POP SWAP2 SWAP1 POP JUMP JUMPDEST PUSH1 0x0 PUSH2 0x8B8 DUP3 PUSH2 0x88D JUMP JUMPDEST SWAP1 POP SWAP2 SWAP1 POP JUMP JUMPDEST PUSH2 0x8C8 DUP2 PUSH2 0x8AD JUMP JUMPDEST DUP2 EQ PUSH2 0x8D3 JUMPI PUSH1 0x0 DUP1 REVERT JUMPDEST POP JUMP JUMPDEST PUSH1 0x0 DUP2 CALLDATALOAD SWAP1 POP PUSH2 0x8E5 DUP2 PUSH2 0x8BF JUMP JUMPDEST SWAP3 SWAP2 POP POP JUMP JUMPDEST PUSH1 0x0 DUP1 PUSH1 0x0 PUSH1 0x60 DUP5 DUP7 SUB SLT ISZERO PUSH2 0x904 JUMPI PUSH2 0x903 PUSH2 0x73D JUMP JUMPDEST JUMPDEST PUSH1 0x0 DUP5 ADD CALLDATALOAD PUSH8 0xFFFFFFFFFFFFFFFF DUP2 GT ISZERO PUSH2 0x922 JUMPI PUSH2 0x921 PUSH2 0x742 JUMP JUMPDEST JUMPDEST PUSH2 0x92E DUP7 DUP3 DUP8 ADD PUSH2 0x85F JUMP JUMPDEST SWAP4 POP POP PUSH1 0x20 DUP5 ADD CALLDATALOAD PUSH8 0xFFFFFFFFFFFFFFFF DUP2 GT ISZERO PUSH2 0x94F JUMPI PUSH2 0x94E PUSH2 0x742 JUMP JUMPDEST JUMPDEST PUSH2 0x95B DUP7 DUP3 DUP8 ADD PUSH2 0x85F JUMP JUMPDEST SWAP3 POP POP PUSH1 0x40 PUSH2 0x96C DUP7 DUP3 DUP8 ADD PUSH2 0x8D6 JUMP JUMPDEST SWAP2 POP POP SWAP3 POP SWAP3 POP SWAP3 JUMP JUMPDEST PUSH2 0x97F DUP2 PUSH2 0x8AD JUMP JUMPDEST DUP3 MSTORE POP POP JUMP JUMPDEST PUSH1 0x0 PUSH1 0x20 DUP3 ADD SWAP1 POP PUSH2 0x99A PUSH1 0x0 DUP4 ADD DUP5 PUSH2 0x976 JUMP JUMPDEST SWAP3 SWAP2 POP POP JUMP JUMPDEST PUSH1 0x0 DUP2 SWAP1 POP SWAP2 SWAP1 POP JUMP JUMPDEST PUSH2 0x9B3 DUP2 PUSH2 0x9A0 JUMP JUMPDEST DUP3 MSTORE POP POP JUMP JUMPDEST PUSH1 0x0 DUP2 SWAP1 POP SWAP2 SWAP1 POP JUMP JUMPDEST PUSH2 0x9CC DUP2 PUSH2 0x9B9 JUMP JUMPDEST DUP3 MSTORE POP POP JUMP JUMPDEST PUSH1 0x0 DUP2 MLOAD SWAP1 POP SWAP2 SWAP1 POP JUMP JUMPDEST PUSH1 0x0 DUP3 DUP3 MSTORE PUSH1 0x20 DUP3 ADD SWAP1 POP SWAP3 SWAP2 POP POP JUMP JUMPDEST PUSH1 0x0 JUMPDEST DUP4 DUP2 LT ISZERO PUSH2 0xA0C JUMPI DUP1 DUP3 ADD MLOAD DUP2 DUP5 ADD MSTORE PUSH1 0x20 DUP2 ADD SWAP1 POP PUSH2 0x9F1 JUMP JUMPDEST PUSH1 0x0 DUP5 DUP5 ADD MSTORE POP POP POP POP JUMP JUMPDEST PUSH1 0x0 PUSH2 0xA23 DUP3 PUSH2 0x9D2 JUMP JUMPDEST PUSH2 0xA2D DUP2 DUP6 PUSH2 0x9DD JUMP JUMPDEST SWAP4 POP PUSH2 0xA3D DUP2 DUP6 PUSH1 0x20 DUP7 ADD PUSH2 0x9EE JUMP JUMPDEST PUSH2 0xA46 DUP2 PUSH2 0x751 JUMP JUMPDEST DUP5 ADD SWAP2 POP POP SWAP3 SWAP2 POP POP JUMP JUMPDEST PUSH1 0x0 PUSH1 0x80 DUP3 ADD SWAP1 POP PUSH2 0xA66 PUSH1 0x0 DUP4 ADD DUP8 PUSH2 0x9AA JUMP JUMPDEST PUSH2 0xA73 PUSH1 0x20 DUP4 ADD DUP7 PUSH2 0x9C3 JUMP JUMPDEST DUP2 DUP2 SUB PUSH1 0x40 DUP4 ADD MSTORE PUSH2 0xA85 DUP2 DUP6 PUSH2 0xA18 JUMP JUMPDEST SWAP1 POP PUSH2 0xA94 PUSH1 0x60 DUP4 ADD DUP5 PUSH2 0x9C3 JUMP JUMPDEST SWAP6 SWAP5 POP POP POP POP POP JUMP JUMPDEST PUSH32 0x4E6F7420417574686F72697A6564210000000000000000000000000000000000 PUSH1 0x0 DUP3 ADD MSTORE POP JUMP JUMPDEST PUSH1 0x0 PUSH2 0xAD3 PUSH1 0xF DUP4 PUSH2 0x9DD JUMP JUMPDEST SWAP2 POP PUSH2 0xADE DUP3 PUSH2 0xA9D JUMP JUMPDEST PUSH1 0x20 DUP3 ADD SWAP1 POP SWAP2 SWAP1 POP JUMP JUMPDEST PUSH1 0x0 PUSH1 0x20 DUP3 ADD SWAP1 POP DUP2 DUP2 SUB PUSH1 0x0 DUP4 ADD MSTORE PUSH2 0xB02 DUP2 PUSH2 0xAC6 JUMP JUMPDEST SWAP1 POP SWAP2 SWAP1 POP JUMP JUMPDEST PUSH1 0x0 DUP2 SWAP1 POP SWAP3 SWAP2 POP POP JUMP JUMPDEST PUSH1 0x0 PUSH2 0xB1F DUP3 PUSH2 0x9D2 JUMP JUMPDEST PUSH2 0xB29 DUP2 DUP6 PUSH2 0xB09 JUMP JUMPDEST SWAP4 POP PUSH2 0xB39 DUP2 DUP6 PUSH1 0x20 DUP7 ADD PUSH2 0x9EE JUMP JUMPDEST DUP1 DUP5 ADD SWAP2 POP POP SWAP3 SWAP2 POP POP JUMP JUMPDEST PUSH32 0x2F00000000000000000000000000000000000000000000000000000000000000 DUP2 MSTORE POP JUMP JUMPDEST PUSH1 0x0 PUSH2 0xB77 DUP3 DUP6 PUSH2 0xB14 JUMP JUMPDEST SWAP2 POP PUSH2 0xB82 DUP3 PUSH2 0xB45 JUMP JUMPDEST PUSH1 0x1 DUP3 ADD SWAP2 POP PUSH2 0xB92 DUP3 DUP5 PUSH2 0xB14 JUMP JUMPDEST SWAP2 POP DUP2 SWAP1 POP SWAP4 SWAP3 POP POP POP JUMP JUMPDEST PUSH32 0x4E487B7100000000000000000000000000000000000000000000000000000000 PUSH1 0x0 MSTORE PUSH1 0x22 PUSH1 0x4 MSTORE PUSH1 0x24 PUSH1 0x0 REVERT JUMPDEST PUSH1 0x0 PUSH1 0x2 DUP3 DIV SWAP1 POP PUSH1 0x1 DUP3 AND DUP1 PUSH2 0xBE5 JUMPI PUSH1 0x7F DUP3 AND SWAP2 POP JUMPDEST PUSH1 0x20 DUP3 LT DUP2 SUB PUSH2 0xBF8 JUMPI PUSH2 0xBF7 PUSH2 0xB9E JUMP JUMPDEST JUMPDEST POP SWAP2 SWAP1 POP JUMP JUMPDEST PUSH1 0x0 DUP2 SWAP1 POP DUP2 PUSH1 0x0 MSTORE PUSH1 0x20 PUSH1 0x0 KECCAK256 SWAP1 POP SWAP2 SWAP1 POP JUMP JUMPDEST PUSH1 0x0 PUSH1 0x20 PUSH1 0x1F DUP4 ADD DIV SWAP1 POP SWAP2 SWAP1 POP JUMP JUMPDEST PUSH1 0x0 DUP3 DUP3 SHL SWAP1 POP SWAP3 SWAP2 POP POP JUMP JUMPDEST PUSH1 0x0 PUSH1 0x8 DUP4 MUL PUSH2 0xC60 PUSH32 0xFFFFFFFFFFFFFFFFFFFFFFFFFFFFFFFFFFFFFFFFFFFFFFFFFFFFFFFFFFFFFFFF DUP3 PUSH2 0xC23 JUMP JUMPDEST PUSH2 0xC6A DUP7 DUP4 PUSH2 0xC23 JUMP JUMPDEST SWAP6 POP DUP1 NOT DUP5 AND SWAP4 POP DUP1 DUP7 AND DUP5 OR SWAP3 POP POP POP SWAP4 SWAP3 POP POP POP JUMP JUMPDEST PUSH1 0x0 DUP2 SWAP1 POP SWAP2 SWAP1 POP JUMP JUMPDEST PUSH1 0x0 PUSH2 0xCA7 PUSH2 0xCA2 PUSH2 0xC9D DUP5 PUSH2 0x9B9 JUMP JUMPDEST PUSH2 0xC82 JUMP JUMPDEST PUSH2 0x9B9 JUMP JUMPDEST SWAP1 POP SWAP2 SWAP1 POP JUMP JUMPDEST PUSH1 0x0 DUP2 SWAP1 POP SWAP2 SWAP1 POP JUMP JUMPDEST PUSH2 0xCC1 DUP4 PUSH2 0xC8C JUMP JUMPDEST PUSH2 0xCD5 PUSH2 0xCCD DUP3 PUSH2 0xCAE JUMP JUMPDEST DUP5 DUP5 SLOAD PUSH2 0xC30 JUMP JUMPDEST DUP3 SSTORE POP POP POP POP JUMP JUMPDEST PUSH1 0x0 SWAP1 JUMP JUMPDEST PUSH2 0xCEA PUSH2 0xCDD JUMP JUMPDEST PUSH2 0xCF5 DUP2 DUP5 DUP5 PUSH2 0xCB8 JUMP JUMPDEST POP POP POP JUMP JUMPDEST JUMPDEST DUP2 DUP2 LT ISZERO PUSH2 0xD19 JUMPI PUSH2 0xD0E PUSH1 0x0 DUP3 PUSH2 0xCE2 JUMP JUMPDEST PUSH1 0x1 DUP2 ADD SWAP1 POP PUSH2 0xCFB JUMP JUMPDEST POP POP JUMP JUMPDEST PUSH1 0x1F DUP3 GT ISZERO PUSH2 0xD5E JUMPI PUSH2 0xD2F DUP2 PUSH2 0xBFE JUMP JUMPDEST PUSH2 0xD38 DUP5 PUSH2 0xC13 JUMP JUMPDEST DUP2 ADD PUSH1 0x20 DUP6 LT ISZERO PUSH2 0xD47 JUMPI DUP2 SWAP1 POP JUMPDEST PUSH2 0xD5B PUSH2 0xD53 DUP6 PUSH2 0xC13 JUMP JUMPDEST DUP4 ADD DUP3 PUSH2 0xCFA JUMP JUMPDEST POP POP JUMPDEST POP POP POP JUMP JUMPDEST PUSH1 0x0 DUP3 DUP3 SHR SWAP1 POP SWAP3 SWAP2 POP POP JUMP JUMPDEST PUSH1 0x0 PUSH2 0xD81 PUSH1 0x0 NOT DUP5 PUSH1 0x8 MUL PUSH2 0xD63 JUMP JUMPDEST NOT DUP1 DUP4 AND SWAP2 POP POP SWAP3 SWAP2 POP POP JUMP JUMPDEST PUSH1 0x0 PUSH2 0xD9A DUP4 DUP4 PUSH2 0xD70 JUMP JUMPDEST SWAP2 POP DUP3 PUSH1 0x2 MUL DUP3 OR SWAP1 POP SWAP3 SWAP2 POP POP JUMP JUMPDEST PUSH2 0xDB3 DUP3 PUSH2 0x9D2 JUMP JUMPDEST PUSH8 0xFFFFFFFFFFFFFFFF DUP2 GT ISZERO PUSH2 0xDCC JUMPI PUSH2 0xDCB PUSH2 0x762 JUMP JUMPDEST JUMPDEST PUSH2 0xDD6 DUP3 SLOAD PUSH2 0xBCD JUMP JUMPDEST PUSH2 0xDE1 DUP3 DUP3 DUP6 PUSH2 0xD1D JUMP JUMPDEST PUSH1 0x0 PUSH1 0x20 SWAP1 POP PUSH1 0x1F DUP4 GT PUSH1 0x1 DUP2 EQ PUSH2 0xE14 JUMPI PUSH1 0x0 DUP5 ISZERO PUSH2 0xE02 JUMPI DUP3 DUP8 ADD MLOAD SWAP1 POP JUMPDEST PUSH2 0xE0C DUP6 DUP3 PUSH2 0xD8E JUMP JUMPDEST DUP7 SSTORE POP PUSH2 0xE74 JUMP JUMPDEST PUSH1 0x1F NOT DUP5 AND PUSH2 0xE22 DUP7 PUSH2 0xBFE JUMP JUMPDEST PUSH1 0x0 JUMPDEST DUP3 DUP2 LT ISZERO PUSH2 0xE4A JUMPI DUP5 DUP10 ADD MLOAD DUP3 SSTORE PUSH1 0x1 DUP3 ADD SWAP2 POP PUSH1 0x20 DUP6 ADD SWAP5 POP PUSH1 0x20 DUP2 ADD SWAP1 POP PUSH2 0xE25 JUMP JUMPDEST DUP7 DUP4 LT ISZERO PUSH2 0xE67 JUMPI DUP5 DUP10 ADD MLOAD PUSH2 0xE63 PUSH1 0x1F DUP10 AND DUP3 PUSH2 0xD70 JUMP JUMPDEST DUP4 SSTORE POP JUMPDEST PUSH1 0x1 PUSH1 0x2 DUP9 MUL ADD DUP9 SSTORE POP POP POP JUMPDEST POP POP POP POP POP POP JUMP JUMPDEST PUSH32 0x416C726561647920616374697661746564210000000000000000000000000000 PUSH1 0x0 DUP3 ADD MSTORE POP JUMP JUMPDEST PUSH1 0x0 PUSH2 0xEB2 PUSH1 0x12 DUP4 PUSH2 0x9DD JUMP JUMPDEST SWAP2 POP PUSH2 0xEBD DUP3 PUSH2 0xE7C JUMP JUMPDEST PUSH1 0x20 DUP3 ADD SWAP1 POP SWAP2 SWAP1 POP JUMP JUMPDEST PUSH1 0x0 PUSH1 0x20 DUP3 ADD SWAP1 POP DUP2 DUP2 SUB PUSH1 0x0 DUP4 ADD MSTORE PUSH2 0xEE1 DUP2 PUSH2 0xEA5 JUMP JUMPDEST SWAP1 POP SWAP2 SWAP1 POP JUMP JUMPDEST PUSH32 0x416C726561647920646561637469766174656421000000000000000000000000 PUSH1 0x0 DUP3 ADD MSTORE POP JUMP JUMPDEST PUSH1 0x0 PUSH2 0xF1E PUSH1 0x14 DUP4 PUSH2 0x9DD JUMP JUMPDEST SWAP2 POP PUSH2 0xF29 DUP3 PUSH2 0xEE8 JUMP JUMPDEST PUSH1 0x20 DUP3 ADD SWAP1 POP SWAP2 SWAP1 POP JUMP JUMPDEST PUSH1 0x0 PUSH1 0x20 DUP3 ADD SWAP1 POP DUP2 DUP2 SUB PUSH1 0x0 DUP4 ADD MSTORE PUSH2 0xF4D DUP2 PUSH2 0xF11 JUMP JUMPDEST SWAP1 POP SWAP2 SWAP1 POP JUMP JUMPDEST PUSH1 0x0 PUSH10 0xFFFFFFFFFFFFFFFFFFFF DUP3 AND SWAP1 POP SWAP2 SWAP1 POP JUMP JUMPDEST PUSH2 0xF73 DUP2 PUSH2 0xF54 JUMP JUMPDEST DUP2 EQ PUSH2 0xF7E JUMPI PUSH1 0x0 DUP1 REVERT JUMPDEST POP JUMP JUMPDEST PUSH1 0x0 DUP2 MLOAD SWAP1 POP PUSH2 0xF90 DUP2 PUSH2 0xF6A JUMP JUMPDEST SWAP3 SWAP2 POP POP JUMP JUMPDEST PUSH2 0xF9F DUP2 PUSH2 0x9A0 JUMP JUMPDEST DUP2 EQ PUSH2 0xFAA JUMPI PUSH1 0x0 DUP1 REVERT JUMPDEST POP JUMP JUMPDEST PUSH1 0x0 DUP2 MLOAD SWAP1 POP PUSH2 0xFBC DUP2 PUSH2 0xF96 JUMP JUMPDEST SWAP3 SWAP2 POP POP JUMP JUMPDEST PUSH2 0xFCB DUP2 PUSH2 0x9B9 JUMP JUMPDEST DUP2 EQ PUSH2 0xFD6 JUMPI PUSH1 0x0 DUP1 REVERT JUMPDEST POP JUMP JUMPDEST PUSH1 0x0 DUP2 MLOAD SWAP1 POP PUSH2 0xFE8 DUP2 PUSH2 0xFC2 JUMP JUMPDEST SWAP3 SWAP2 POP POP JUMP JUMPDEST PUSH1 0x0 DUP1 PUSH1 0x0 DUP1 PUSH1 0x0 PUSH1 0xA0 DUP7 DUP9 SUB SLT ISZERO PUSH2 0x100A JUMPI PUSH2 0x1009 PUSH2 0x73D JUMP JUMPDEST JUMPDEST PUSH1 0x0 PUSH2 0x1018 DUP9 DUP3 DUP10 ADD PUSH2 0xF81 JUMP JUMPDEST SWAP6 POP POP PUSH1 0x20 PUSH2 0x1029 DUP9 DUP3 DUP10 ADD PUSH2 0xFAD JUMP JUMPDEST SWAP5 POP POP PUSH1 0x40 PUSH2 0x103A DUP9 DUP3 DUP10 ADD PUSH2 0xFD9 JUMP JUMPDEST SWAP4 POP POP PUSH1 0x60 PUSH2 0x104B DUP9 DUP3 DUP10 ADD PUSH2 0xFD9 JUMP JUMPDEST SWAP3 POP POP PUSH1 0x80 PUSH2 0x105C DUP9 DUP3 DUP10 ADD PUSH2 0xF81 JUMP JUMPDEST SWAP2 POP POP SWAP3 SWAP6 POP SWAP3 SWAP6 SWAP1 SWAP4 POP JUMP JUMPDEST PUSH1 0x0 PUSH1 0xFF DUP3 AND SWAP1 POP SWAP2 SWAP1 POP JUMP JUMPDEST PUSH2 0x107F DUP2 PUSH2 0x1069 JUMP JUMPDEST DUP2 EQ PUSH2 0x108A JUMPI PUSH1 0x0 DUP1 REVERT JUMPDEST POP JUMP JUMPDEST PUSH1 0x0 DUP2 MLOAD SWAP1 POP PUSH2 0x109C DUP2 PUSH2 0x1076 JUMP JUMPDEST SWAP3 SWAP2 POP POP JUMP JUMPDEST PUSH1 0x0 PUSH1 0x20 DUP3 DUP5 SUB SLT ISZERO PUSH2 0x10B8 JUMPI PUSH2 0x10B7 PUSH2 0x73D JUMP JUMPDEST JUMPDEST PUSH1 0x0 PUSH2 0x10C6 DUP5 DUP3 DUP6 ADD PUSH2 0x108D JUMP JUMPDEST SWAP2 POP POP SWAP3 SWAP2 POP POP JUMP INVALID LOG2 PUSH5 0x6970667358 0x22 SLT KECCAK256 SELFDESTRUCT DUP9 PUSH16 0x2C6947C5EF0EA4ADB2536520DFF74E67 0xCA 0xD3 AND DUP5 NOT GAS PUSH8 0x86DAA51D03B06473 PUSH16 0x6C634300081700330000000000000000 "
				},
				"gasEstimates": {
					"creation": {
						"codeDepositCost": "871400",
						"executionCost": "infinite",
						"totalCost": "infinite"
					},
					"external": {
						"activate()": "infinite",
						"admin()": "infinite",
						"changeAggregatorAddress(string,string,address)": "infinite",
						"deactivate()": "infinite",
						"getLatestRate()": "infinite",
						"owner()": "infinite"
					}
				},
				"methodIdentifiers": {
					"activate()": "0f15f4c0",
					"admin()": "f851a440",
					"changeAggregatorAddress(string,string,address)": "082c4484",
					"deactivate()": "51b42b00",
					"getLatestRate()": "e1e7ff77",
					"owner()": "8da5cb5b"
				}
			},
			"storageLayout": {
				"storage": [
					{
						"astId": 49,
						"contract": "token_eco_system_dev_contracts/contracts_ready_for_prod/AggregatorRate_flattened.sol:AggregatorRate",
						"label": "priceFeed",
						"offset": 0,
						"slot": "0",
						"type": "t_contract(AggregatorV3Interface)45"
					},
					{
						"astId": 51,
						"contract": "token_eco_system_dev_contracts/contracts_ready_for_prod/AggregatorRate_flattened.sol:AggregatorRate",
						"label": "rateString",
						"offset": 0,
						"slot": "1",
						"type": "t_string_storage"
					},
					{
						"astId": 58,
						"contract": "token_eco_system_dev_contracts/contracts_ready_for_prod/AggregatorRate_flattened.sol:AggregatorRate",
						"label": "active",
						"offset": 0,
						"slot": "2",
						"type": "t_bool"
					}
				],
				"types": {
					"t_bool": {
						"encoding": "inplace",
						"label": "bool",
						"numberOfBytes": "1"
					},
					"t_contract(AggregatorV3Interface)45": {
						"encoding": "inplace",
						"label": "contract AggregatorV3Interface",
						"numberOfBytes": "20"
					},
					"t_string_storage": {
						"encoding": "bytes",
						"label": "string",
						"numberOfBytes": "32"
					}
				}
			},
			"userdoc": {
				"kind": "user",
				"methods": {},
				"version": 1
			}
		}
	}
}