{
	"token_eco_system_dev_contracts/contracts_ready_for_prod/Copy_TokenEcoSystemParticipationV1_1.sol": {
		"TokenEcoSystemParticipation": {
			"abi": [
				{
					"inputs": [
						{
							"internalType": "address",
							"name": "_acceptedTokens",
							"type": "address"
						},
						{
							"internalType": "address",
							"name": "_activator",
							"type": "address"
						}
					],
					"stateMutability": "nonpayable",
					"type": "constructor"
				},
				{
					"anonymous": false,
					"inputs": [
						{
							"indexed": true,
							"internalType": "address",
							"name": "activator",
							"type": "address"
						},
						{
							"indexed": false,
							"internalType": "uint256",
							"name": "timestamp",
							"type": "uint256"
						}
					],
					"name": "Activate",
					"type": "event"
				},
				{
					"anonymous": false,
					"inputs": [
						{
							"indexed": true,
							"internalType": "uint256",
							"name": "timestamp",
							"type": "uint256"
						},
						{
							"indexed": false,
							"internalType": "uint256",
							"name": "value",
							"type": "uint256"
						},
						{
							"indexed": false,
							"internalType": "address[]",
							"name": "wallets",
							"type": "address[]"
						},
						{
							"indexed": false,
							"internalType": "uint256[]",
							"name": "values",
							"type": "uint256[]"
						}
					],
					"name": "BulkWithdraw",
					"type": "event"
				},
				{
					"anonymous": false,
					"inputs": [
						{
							"indexed": false,
							"internalType": "uint256",
							"name": "chargeRate",
							"type": "uint256"
						},
						{
							"indexed": false,
							"internalType": "uint256",
							"name": "chargeRatedecimals",
							"type": "uint256"
						},
						{
							"indexed": false,
							"internalType": "uint256",
							"name": "chargeRateDate",
							"type": "uint256"
						},
						{
							"indexed": false,
							"internalType": "string",
							"name": "chargeRateString",
							"type": "string"
						},
						{
							"indexed": true,
							"internalType": "uint256",
							"name": "chargedPoints",
							"type": "uint256"
						},
						{
							"indexed": true,
							"internalType": "uint256",
							"name": "burnedTokens",
							"type": "uint256"
						},
						{
							"indexed": true,
							"internalType": "uint256",
							"name": "chargeDate",
							"type": "uint256"
						}
					],
					"name": "ChargeContract",
					"type": "event"
				},
				{
					"anonymous": false,
					"inputs": [
						{
							"indexed": true,
							"internalType": "address",
							"name": "deactivator",
							"type": "address"
						},
						{
							"indexed": false,
							"internalType": "uint256",
							"name": "timestamp",
							"type": "uint256"
						}
					],
					"name": "Deactivate",
					"type": "event"
				},
				{
					"anonymous": false,
					"inputs": [
						{
							"indexed": false,
							"internalType": "uint256",
							"name": "rate",
							"type": "uint256"
						},
						{
							"indexed": false,
							"internalType": "uint256",
							"name": "decimals",
							"type": "uint256"
						},
						{
							"indexed": false,
							"internalType": "string",
							"name": "rateString",
							"type": "string"
						},
						{
							"indexed": false,
							"internalType": "uint256",
							"name": "date",
							"type": "uint256"
						},
						{
							"indexed": false,
							"internalType": "string",
							"name": "feed",
							"type": "string"
						}
					],
					"name": "GetRate",
					"type": "event"
				},
				{
					"anonymous": false,
					"inputs": [
						{
							"indexed": true,
							"internalType": "address",
							"name": "newAcceptedSender",
							"type": "address"
						}
					],
					"name": "NewAcceptedSender",
					"type": "event"
				},
				{
					"anonymous": false,
					"inputs": [
						{
							"indexed": true,
							"internalType": "address",
							"name": "previousOwner",
							"type": "address"
						},
						{
							"indexed": true,
							"internalType": "address",
							"name": "newOwner",
							"type": "address"
						}
					],
					"name": "OwnershipTransferred",
					"type": "event"
				},
				{
					"anonymous": false,
					"inputs": [
						{
							"indexed": false,
							"internalType": "address",
							"name": "account",
							"type": "address"
						}
					],
					"name": "Paused",
					"type": "event"
				},
				{
					"anonymous": false,
					"inputs": [
						{
							"indexed": true,
							"internalType": "uint256",
							"name": "timestamp",
							"type": "uint256"
						},
						{
							"indexed": false,
							"internalType": "uint256",
							"name": "value",
							"type": "uint256"
						}
					],
					"name": "TotalDailyWithdraws",
					"type": "event"
				},
				{
					"anonymous": false,
					"inputs": [
						{
							"indexed": false,
							"internalType": "address",
							"name": "account",
							"type": "address"
						}
					],
					"name": "Unpaused",
					"type": "event"
				},
				{
					"anonymous": false,
					"inputs": [
						{
							"indexed": true,
							"internalType": "uint256",
							"name": "timestamp",
							"type": "uint256"
						},
						{
							"indexed": false,
							"internalType": "uint256",
							"name": "value",
							"type": "uint256"
						},
						{
							"indexed": true,
							"internalType": "address",
							"name": "wallet",
							"type": "address"
						}
					],
					"name": "Withdraw",
					"type": "event"
				},
				{
					"inputs": [],
					"name": "activate",
					"outputs": [],
					"stateMutability": "nonpayable",
					"type": "function"
				},
				{
					"inputs": [
						{
							"internalType": "address",
							"name": "consumerInterfaceAddress",
							"type": "address"
						}
					],
					"name": "addNewAggregatorPriceFeed",
					"outputs": [],
					"stateMutability": "nonpayable",
					"type": "function"
				},
				{
					"inputs": [
						{
							"internalType": "address",
							"name": "consumerInterfaceAddress",
							"type": "address"
						}
					],
					"name": "addNewPoolRateFeed",
					"outputs": [],
					"stateMutability": "nonpayable",
					"type": "function"
				},
				{
					"inputs": [],
					"name": "balanceOf",
					"outputs": [
						{
							"internalType": "uint256",
							"name": "",
							"type": "uint256"
						}
					],
					"stateMutability": "view",
					"type": "function"
				},
				{
					"inputs": [
						{
							"internalType": "address",
							"name": "tokenAddress",
							"type": "address"
						}
					],
					"name": "balanceOfToken",
					"outputs": [
						{
							"internalType": "uint256",
							"name": "",
							"type": "uint256"
						}
					],
					"stateMutability": "view",
					"type": "function"
				},
				{
					"inputs": [
						{
							"internalType": "uint256",
							"name": "value",
							"type": "uint256"
						},
						{
							"internalType": "address[]",
							"name": "wallets",
							"type": "address[]"
						},
						{
							"internalType": "uint256[]",
							"name": "values",
							"type": "uint256[]"
						}
					],
					"name": "bulkWithdraw",
					"outputs": [
						{
							"internalType": "bool",
							"name": "",
							"type": "bool"
						}
					],
					"stateMutability": "nonpayable",
					"type": "function"
				},
				{
					"inputs": [
						{
							"internalType": "uint256",
							"name": "points",
							"type": "uint256"
						},
						{
							"internalType": "uint256",
							"name": "rate",
							"type": "uint256"
						},
						{
							"internalType": "uint256",
							"name": "decimals",
							"type": "uint256"
						}
					],
					"name": "calculateAmount",
					"outputs": [
						{
							"internalType": "uint256",
							"name": "",
							"type": "uint256"
						}
					],
					"stateMutability": "view",
					"type": "function"
				},
				{
					"inputs": [
						{
							"internalType": "address",
							"name": "newAcceptedSender",
							"type": "address"
						}
					],
					"name": "changeAcceptedSenderAddress",
					"outputs": [],
					"stateMutability": "nonpayable",
					"type": "function"
				},
				{
					"inputs": [],
					"name": "changeRateFeed",
					"outputs": [],
					"stateMutability": "nonpayable",
					"type": "function"
				},
				{
					"inputs": [
						{
							"internalType": "uint256",
							"name": "amount",
							"type": "uint256"
						}
					],
					"name": "chargeContract",
					"outputs": [
						{
							"internalType": "bool",
							"name": "",
							"type": "bool"
						}
					],
					"stateMutability": "nonpayable",
					"type": "function"
				},
				{
					"inputs": [],
					"name": "checkAllowance",
					"outputs": [
						{
							"internalType": "uint256",
							"name": "",
							"type": "uint256"
						}
					],
					"stateMutability": "view",
					"type": "function"
				},
				{
					"inputs": [],
					"name": "currentRateFeed",
					"outputs": [
						{
							"internalType": "string",
							"name": "",
							"type": "string"
						},
						{
							"internalType": "address",
							"name": "",
							"type": "address"
						}
					],
					"stateMutability": "view",
					"type": "function"
				},
				{
					"inputs": [],
					"name": "deactivate",
					"outputs": [],
					"stateMutability": "nonpayable",
					"type": "function"
				},
				{
					"inputs": [],
					"name": "getActivatorAndAcceptedSenderAddress",
					"outputs": [
						{
							"internalType": "address",
							"name": "",
							"type": "address"
						},
						{
							"internalType": "address",
							"name": "",
							"type": "address"
						}
					],
					"stateMutability": "view",
					"type": "function"
				},
				{
					"inputs": [],
					"name": "getPointsBalance",
					"outputs": [
						{
							"internalType": "uint256",
							"name": "",
							"type": "uint256"
						}
					],
					"stateMutability": "view",
					"type": "function"
				},
				{
					"inputs": [],
					"name": "getTokenInfo",
					"outputs": [
						{
							"internalType": "address",
							"name": "",
							"type": "address"
						},
						{
							"internalType": "string",
							"name": "",
							"type": "string"
						}
					],
					"stateMutability": "view",
					"type": "function"
				},
				{
					"inputs": [],
					"name": "getTotalBurnedTokens",
					"outputs": [
						{
							"internalType": "uint256",
							"name": "",
							"type": "uint256"
						}
					],
					"stateMutability": "view",
					"type": "function"
				},
				{
					"inputs": [],
					"name": "getTotalPointsGenerated",
					"outputs": [
						{
							"internalType": "uint256",
							"name": "",
							"type": "uint256"
						}
					],
					"stateMutability": "view",
					"type": "function"
				},
				{
					"inputs": [],
					"name": "owner",
					"outputs": [
						{
							"internalType": "address",
							"name": "",
							"type": "address"
						}
					],
					"stateMutability": "view",
					"type": "function"
				},
				{
					"inputs": [],
					"name": "paused",
					"outputs": [
						{
							"internalType": "bool",
							"name": "",
							"type": "bool"
						}
					],
					"stateMutability": "view",
					"type": "function"
				},
				{
					"inputs": [],
					"name": "renounceOwnership",
					"outputs": [],
					"stateMutability": "nonpayable",
					"type": "function"
				},
				{
					"inputs": [],
					"name": "resume",
					"outputs": [],
					"stateMutability": "nonpayable",
					"type": "function"
				},
				{
					"inputs": [],
					"name": "stop",
					"outputs": [],
					"stateMutability": "nonpayable",
					"type": "function"
				},
				{
					"inputs": [
						{
							"internalType": "address",
							"name": "tokenAddress",
							"type": "address"
						},
						{
							"internalType": "address",
							"name": "receiver",
							"type": "address"
						},
						{
							"internalType": "uint256",
							"name": "amount",
							"type": "uint256"
						}
					],
					"name": "transferOfToken",
					"outputs": [
						{
							"internalType": "bool",
							"name": "",
							"type": "bool"
						}
					],
					"stateMutability": "nonpayable",
					"type": "function"
				},
				{
					"inputs": [
						{
							"internalType": "address",
							"name": "newOwner",
							"type": "address"
						}
					],
					"name": "transferOwnership",
					"outputs": [],
					"stateMutability": "nonpayable",
					"type": "function"
				},
				{
					"inputs": [
						{
							"internalType": "uint256",
							"name": "value",
							"type": "uint256"
						},
						{
							"internalType": "address",
							"name": "wallet",
							"type": "address"
						}
					],
					"name": "withdraw",
					"outputs": [],
					"stateMutability": "nonpayable",
					"type": "function"
				}
			],
			"devdoc": {
				"events": {
					"Paused(address)": {
						"details": "Emitted when the pause is triggered by `account`."
					},
					"Unpaused(address)": {
						"details": "Emitted when the pause is lifted by `account`."
					}
				},
				"kind": "dev",
				"methods": {
					"owner()": {
						"details": "Returns the address of the current owner."
					},
					"paused()": {
						"details": "Returns true if the contract is paused, and false otherwise."
					},
					"renounceOwnership()": {
						"details": "Leaves the contract without owner. It will not be possible to call `onlyOwner` functions anymore. Can only be called by the current owner. NOTE: Renouncing ownership will leave the contract without an owner, thereby removing any functionality that is only available to the owner."
					},
					"transferOwnership(address)": {
						"details": "Transfers ownership of the contract to a new account (`newOwner`). Can only be called by the current owner."
					}
				},
				"version": 1
			},
			"evm": {
				"assembly": "    /* \"token_eco_system_dev_contracts/contracts_ready_for_prod/Copy_TokenEcoSystemParticipationV1_1.sol\":1717:13517  contract TokenEcoSystemParticipation is Pausable, Ownable {... */\n  mstore(0x40, 0xc0)\n    /* \"token_eco_system_dev_contracts/contracts_ready_for_prod/Copy_TokenEcoSystemParticipationV1_1.sol\":2027:2031  true */\n  0x01\n    /* \"token_eco_system_dev_contracts/contracts_ready_for_prod/Copy_TokenEcoSystemParticipationV1_1.sol\":2007:2031  bool poolRateFeed = true */\n  dup1\n  exp(0x0100, 0x14)\n  dup2\n  sload\n  dup2\n  0xff\n  mul\n  not\n  and\n  swap1\n  dup4\n  iszero\n  iszero\n  mul\n  or\n  swap1\n  sstore\n  pop\n    /* \"token_eco_system_dev_contracts/contracts_ready_for_prod/Copy_TokenEcoSystemParticipationV1_1.sol\":2067:2068  0 */\n  0x00\n    /* \"token_eco_system_dev_contracts/contracts_ready_for_prod/Copy_TokenEcoSystemParticipationV1_1.sol\":2037:2068  uint256 private totalBurned = 0 */\n  0x02\n  sstore\n    /* \"token_eco_system_dev_contracts/contracts_ready_for_prod/Copy_TokenEcoSystemParticipationV1_1.sol\":2107:2108  0 */\n  0x00\n    /* \"token_eco_system_dev_contracts/contracts_ready_for_prod/Copy_TokenEcoSystemParticipationV1_1.sol\":2074:2108  uint256 private totalConverted = 0 */\n  0x03\n  sstore\n    /* \"token_eco_system_dev_contracts/contracts_ready_for_prod/Copy_TokenEcoSystemParticipationV1_1.sol\":2146:2147  0 */\n  0x00\n    /* \"token_eco_system_dev_contracts/contracts_ready_for_prod/Copy_TokenEcoSystemParticipationV1_1.sol\":2114:2147  uint256 private pointsBalance = 0 */\n  0x04\n  sstore\n    /* \"token_eco_system_dev_contracts/contracts_ready_for_prod/Copy_TokenEcoSystemParticipationV1_1.sol\":3808:4004  constructor(address _acceptedTokens, address _activator) {... */\n  callvalue\n  dup1\n  iszero\n  tag_1\n  jumpi\n  0x00\n  dup1\n  revert\ntag_1:\n  pop\n  mload(0x40)\n  sub(codesize, bytecodeSize)\n  dup1\n  bytecodeSize\n  dup4\n  codecopy\n  dup2\n  dup2\n  add\n  0x40\n  mstore\n  dup2\n  add\n  swap1\n  tag_2\n  swap2\n  swap1\n  tag_3\n  jump\t// in\ntag_2:\n    /* \"@openzeppelin/contracts/security/Pausable.sol\":1006:1011  false */\n  0x00\n    /* \"@openzeppelin/contracts/security/Pausable.sol\":996:1003  _paused */\n  dup1\n  0x00\n    /* \"@openzeppelin/contracts/security/Pausable.sol\":996:1011  _paused = false */\n  0x0100\n  exp\n  dup2\n  sload\n  dup2\n  0xff\n  mul\n  not\n  and\n  swap1\n  dup4\n  iszero\n  iszero\n  mul\n  or\n  swap1\n  sstore\n  pop\n    /* \"@openzeppelin/contracts/access/Ownable.sol\":936:968  _transferOwnership(_msgSender()) */\n  tag_9\n    /* \"@openzeppelin/contracts/access/Ownable.sol\":955:967  _msgSender() */\n  tag_10\n    /* \"@openzeppelin/contracts/access/Ownable.sol\":955:965  _msgSender */\n  shl(0x20, tag_11)\n    /* \"@openzeppelin/contracts/access/Ownable.sol\":955:967  _msgSender() */\n  0x20\n  shr\n  jump\t// in\ntag_10:\n    /* \"@openzeppelin/contracts/access/Ownable.sol\":936:954  _transferOwnership */\n  shl(0x20, tag_12)\n    /* \"@openzeppelin/contracts/access/Ownable.sol\":936:968  _transferOwnership(_msgSender()) */\n  0x20\n  shr\n  jump\t// in\ntag_9:\n    /* \"token_eco_system_dev_contracts/contracts_ready_for_prod/Copy_TokenEcoSystemParticipationV1_1.sol\":3905:3906  0 */\n  0x00\n    /* \"token_eco_system_dev_contracts/contracts_ready_for_prod/Copy_TokenEcoSystemParticipationV1_1.sol\":3883:3907  _activator != address(0) */\n  0xffffffffffffffffffffffffffffffffffffffff\n  and\n    /* \"token_eco_system_dev_contracts/contracts_ready_for_prod/Copy_TokenEcoSystemParticipationV1_1.sol\":3883:3893  _activator */\n  dup2\n    /* \"token_eco_system_dev_contracts/contracts_ready_for_prod/Copy_TokenEcoSystemParticipationV1_1.sol\":3883:3907  _activator != address(0) */\n  0xffffffffffffffffffffffffffffffffffffffff\n  and\n  sub\n    /* \"token_eco_system_dev_contracts/contracts_ready_for_prod/Copy_TokenEcoSystemParticipationV1_1.sol\":3875:3908  require(_activator != address(0)) */\n  tag_14\n  jumpi\n  0x00\n  dup1\n  revert\ntag_14:\n    /* \"token_eco_system_dev_contracts/contracts_ready_for_prod/Copy_TokenEcoSystemParticipationV1_1.sol\":3930:3940  _activator */\n  dup1\n    /* \"token_eco_system_dev_contracts/contracts_ready_for_prod/Copy_TokenEcoSystemParticipationV1_1.sol\":3918:3940  activator = _activator */\n  0xffffffffffffffffffffffffffffffffffffffff\n  and\n  0x80\n  dup2\n  0xffffffffffffffffffffffffffffffffffffffff\n  and\n  dup2\n  mstore\n  pop\n  pop\n    /* \"token_eco_system_dev_contracts/contracts_ready_for_prod/Copy_TokenEcoSystemParticipationV1_1.sol\":3981:3996  _acceptedTokens */\n  dup2\n    /* \"token_eco_system_dev_contracts/contracts_ready_for_prod/Copy_TokenEcoSystemParticipationV1_1.sol\":3950:3997  token = ERC20BurnableInterface(_acceptedTokens) */\n  0xffffffffffffffffffffffffffffffffffffffff\n  and\n  0xa0\n  dup2\n  0xffffffffffffffffffffffffffffffffffffffff\n  and\n  dup2\n  mstore\n  pop\n  pop\n    /* \"token_eco_system_dev_contracts/contracts_ready_for_prod/Copy_TokenEcoSystemParticipationV1_1.sol\":3808:4004  constructor(address _acceptedTokens, address _activator) {... */\n  pop\n  pop\n    /* \"token_eco_system_dev_contracts/contracts_ready_for_prod/Copy_TokenEcoSystemParticipationV1_1.sol\":1717:13517  contract TokenEcoSystemParticipation is Pausable, Ownable {... */\n  jump(tag_15)\n    /* \"@openzeppelin/contracts/utils/Context.sol\":640:736  function _msgSender() internal view virtual returns (address) {... */\ntag_11:\n    /* \"@openzeppelin/contracts/utils/Context.sol\":693:700  address */\n  0x00\n    /* \"@openzeppelin/contracts/utils/Context.sol\":719:729  msg.sender */\n  caller\n    /* \"@openzeppelin/contracts/utils/Context.sol\":712:729  return msg.sender */\n  swap1\n  pop\n    /* \"@openzeppelin/contracts/utils/Context.sol\":640:736  function _msgSender() internal view virtual returns (address) {... */\n  swap1\n  jump\t// out\n    /* \"@openzeppelin/contracts/access/Ownable.sol\":2433:2620  function _transferOwnership(address newOwner) internal virtual {... */\ntag_12:\n    /* \"@openzeppelin/contracts/access/Ownable.sol\":2506:2522  address oldOwner */\n  0x00\n    /* \"@openzeppelin/contracts/access/Ownable.sol\":2525:2531  _owner */\n  dup1\n  0x01\n  swap1\n  sload\n  swap1\n  0x0100\n  exp\n  swap1\n  div\n  0xffffffffffffffffffffffffffffffffffffffff\n  and\n    /* \"@openzeppelin/contracts/access/Ownable.sol\":2506:2531  address oldOwner = _owner */\n  swap1\n  pop\n    /* \"@openzeppelin/contracts/access/Ownable.sol\":2550:2558  newOwner */\n  dup2\n    /* \"@openzeppelin/contracts/access/Ownable.sol\":2541:2547  _owner */\n  0x00\n  0x01\n    /* \"@openzeppelin/contracts/access/Ownable.sol\":2541:2558  _owner = newOwner */\n  0x0100\n  exp\n  dup2\n  sload\n  dup2\n  0xffffffffffffffffffffffffffffffffffffffff\n  mul\n  not\n  and\n  swap1\n  dup4\n  0xffffffffffffffffffffffffffffffffffffffff\n  and\n  mul\n  or\n  swap1\n  sstore\n  pop\n    /* \"@openzeppelin/contracts/access/Ownable.sol\":2604:2612  newOwner */\n  dup2\n    /* \"@openzeppelin/contracts/access/Ownable.sol\":2573:2613  OwnershipTransferred(oldOwner, newOwner) */\n  0xffffffffffffffffffffffffffffffffffffffff\n  and\n    /* \"@openzeppelin/contracts/access/Ownable.sol\":2594:2602  oldOwner */\n  dup2\n    /* \"@openzeppelin/contracts/access/Ownable.sol\":2573:2613  OwnershipTransferred(oldOwner, newOwner) */\n  0xffffffffffffffffffffffffffffffffffffffff\n  and\n  0x8be0079c531659141344cd1fd0a4f28419497f9722a3daafe3b4186f6b6457e0\n  mload(0x40)\n  mload(0x40)\n  dup1\n  swap2\n  sub\n  swap1\n  log3\n    /* \"@openzeppelin/contracts/access/Ownable.sol\":2496:2620  {... */\n  pop\n    /* \"@openzeppelin/contracts/access/Ownable.sol\":2433:2620  function _transferOwnership(address newOwner) internal virtual {... */\n  pop\n  jump\t// out\n    /* \"#utility.yul\":88:205   */\ntag_19:\n    /* \"#utility.yul\":197:198   */\n  0x00\n    /* \"#utility.yul\":194:195   */\n  dup1\n    /* \"#utility.yul\":187:199   */\n  revert\n    /* \"#utility.yul\":334:460   */\ntag_21:\n    /* \"#utility.yul\":371:378   */\n  0x00\n    /* \"#utility.yul\":411:453   */\n  0xffffffffffffffffffffffffffffffffffffffff\n    /* \"#utility.yul\":404:409   */\n  dup3\n    /* \"#utility.yul\":400:454   */\n  and\n    /* \"#utility.yul\":389:454   */\n  swap1\n  pop\n    /* \"#utility.yul\":334:460   */\n  swap2\n  swap1\n  pop\n  jump\t// out\n    /* \"#utility.yul\":466:562   */\ntag_22:\n    /* \"#utility.yul\":503:510   */\n  0x00\n    /* \"#utility.yul\":532:556   */\n  tag_31\n    /* \"#utility.yul\":550:555   */\n  dup3\n    /* \"#utility.yul\":532:556   */\n  tag_21\n  jump\t// in\ntag_31:\n    /* \"#utility.yul\":521:556   */\n  swap1\n  pop\n    /* \"#utility.yul\":466:562   */\n  swap2\n  swap1\n  pop\n  jump\t// out\n    /* \"#utility.yul\":568:690   */\ntag_23:\n    /* \"#utility.yul\":641:665   */\n  tag_33\n    /* \"#utility.yul\":659:664   */\n  dup2\n    /* \"#utility.yul\":641:665   */\n  tag_22\n  jump\t// in\ntag_33:\n    /* \"#utility.yul\":634:639   */\n  dup2\n    /* \"#utility.yul\":631:666   */\n  eq\n    /* \"#utility.yul\":621:684   */\n  tag_34\n  jumpi\n    /* \"#utility.yul\":680:681   */\n  0x00\n    /* \"#utility.yul\":677:678   */\n  dup1\n    /* \"#utility.yul\":670:682   */\n  revert\n    /* \"#utility.yul\":621:684   */\ntag_34:\n    /* \"#utility.yul\":568:690   */\n  pop\n  jump\t// out\n    /* \"#utility.yul\":696:839   */\ntag_24:\n    /* \"#utility.yul\":753:758   */\n  0x00\n    /* \"#utility.yul\":784:790   */\n  dup2\n    /* \"#utility.yul\":778:791   */\n  mload\n    /* \"#utility.yul\":769:791   */\n  swap1\n  pop\n    /* \"#utility.yul\":800:833   */\n  tag_36\n    /* \"#utility.yul\":827:832   */\n  dup2\n    /* \"#utility.yul\":800:833   */\n  tag_23\n  jump\t// in\ntag_36:\n    /* \"#utility.yul\":696:839   */\n  swap3\n  swap2\n  pop\n  pop\n  jump\t// out\n    /* \"#utility.yul\":845:1352   */\ntag_3:\n    /* \"#utility.yul\":924:930   */\n  0x00\n    /* \"#utility.yul\":932:938   */\n  dup1\n    /* \"#utility.yul\":981:983   */\n  0x40\n    /* \"#utility.yul\":969:978   */\n  dup4\n    /* \"#utility.yul\":960:967   */\n  dup6\n    /* \"#utility.yul\":956:979   */\n  sub\n    /* \"#utility.yul\":952:984   */\n  slt\n    /* \"#utility.yul\":949:1068   */\n  iszero\n  tag_38\n  jumpi\n    /* \"#utility.yul\":987:1066   */\n  tag_39\n  tag_19\n  jump\t// in\ntag_39:\n    /* \"#utility.yul\":949:1068   */\ntag_38:\n    /* \"#utility.yul\":1107:1108   */\n  0x00\n    /* \"#utility.yul\":1132:1196   */\n  tag_40\n    /* \"#utility.yul\":1188:1195   */\n  dup6\n    /* \"#utility.yul\":1179:1185   */\n  dup3\n    /* \"#utility.yul\":1168:1177   */\n  dup7\n    /* \"#utility.yul\":1164:1186   */\n  add\n    /* \"#utility.yul\":1132:1196   */\n  tag_24\n  jump\t// in\ntag_40:\n    /* \"#utility.yul\":1122:1196   */\n  swap3\n  pop\n    /* \"#utility.yul\":1078:1206   */\n  pop\n    /* \"#utility.yul\":1245:1247   */\n  0x20\n    /* \"#utility.yul\":1271:1335   */\n  tag_41\n    /* \"#utility.yul\":1327:1334   */\n  dup6\n    /* \"#utility.yul\":1318:1324   */\n  dup3\n    /* \"#utility.yul\":1307:1316   */\n  dup7\n    /* \"#utility.yul\":1303:1325   */\n  add\n    /* \"#utility.yul\":1271:1335   */\n  tag_24\n  jump\t// in\ntag_41:\n    /* \"#utility.yul\":1261:1335   */\n  swap2\n  pop\n    /* \"#utility.yul\":1216:1345   */\n  pop\n    /* \"#utility.yul\":845:1352   */\n  swap3\n  pop\n  swap3\n  swap1\n  pop\n  jump\t// out\n    /* \"token_eco_system_dev_contracts/contracts_ready_for_prod/Copy_TokenEcoSystemParticipationV1_1.sol\":1717:13517  contract TokenEcoSystemParticipation is Pausable, Ownable {... */\ntag_15:\n  mload(0x80)\n  mload(0xa0)\n  codecopy(0x00, dataOffset(sub_0), dataSize(sub_0))\n  0x00\n  assignImmutable(\"0x448072f8ce0e9d09a2030ee35ba0d03fccbd0c61c3623f421061fbafdf5a67a9\")\n  0x00\n  assignImmutable(\"0xd2f63731675c6a71dc2bd3699360fd070b4ef61c2e40215aaeeee79f9e81574f\")\n  return(0x00, dataSize(sub_0))\nstop\n\nsub_0: assembly {\n        /* \"token_eco_system_dev_contracts/contracts_ready_for_prod/Copy_TokenEcoSystemParticipationV1_1.sol\":1717:13517  contract TokenEcoSystemParticipation is Pausable, Ownable {... */\n      mstore(0x40, 0x80)\n      callvalue\n      dup1\n      iszero\n      tag_1\n      jumpi\n      0x00\n      dup1\n      revert\n    tag_1:\n      pop\n      jumpi(tag_2, lt(calldatasize, 0x04))\n      shr(0xe0, calldataload(0x00))\n      dup1\n      0x722713f7\n      gt\n      tag_29\n      jumpi\n      dup1\n      0xabb1dc44\n      gt\n      tag_30\n      jumpi\n      dup1\n      0xe6367ebe\n      gt\n      tag_31\n      jumpi\n      dup1\n      0xe6367ebe\n      eq\n      tag_25\n      jumpi\n      dup1\n      0xe8088766\n      eq\n      tag_26\n      jumpi\n      dup1\n      0xed969c84\n      eq\n      tag_27\n      jumpi\n      dup1\n      0xf2fde38b\n      eq\n      tag_28\n      jumpi\n      jump(tag_2)\n    tag_31:\n      dup1\n      0xabb1dc44\n      eq\n      tag_22\n      jumpi\n      dup1\n      0xb0b5e39e\n      eq\n      tag_23\n      jumpi\n      dup1\n      0xb99152d0\n      eq\n      tag_24\n      jumpi\n      jump(tag_2)\n    tag_30:\n      dup1\n      0x722713f7\n      eq\n      tag_16\n      jumpi\n      dup1\n      0x7754723e\n      eq\n      tag_17\n      jumpi\n      dup1\n      0x8da5cb5b\n      eq\n      tag_18\n      jumpi\n      dup1\n      0x8eb89a61\n      eq\n      tag_19\n      jumpi\n      dup1\n      0x9405de64\n      eq\n      tag_20\n      jumpi\n      dup1\n      0xa684ab5c\n      eq\n      tag_21\n      jumpi\n      jump(tag_2)\n    tag_29:\n      dup1\n      0x0f15f4c0\n      gt\n      tag_32\n      jumpi\n      dup1\n      0x5c975abb\n      gt\n      tag_33\n      jumpi\n      dup1\n      0x5c975abb\n      eq\n      tag_12\n      jumpi\n      dup1\n      0x615adcb4\n      eq\n      tag_13\n      jumpi\n      dup1\n      0x6a9d43dd\n      eq\n      tag_14\n      jumpi\n      dup1\n      0x715018a6\n      eq\n      tag_15\n      jumpi\n      jump(tag_2)\n    tag_33:\n      dup1\n      0x0f15f4c0\n      eq\n      tag_9\n      jumpi\n      dup1\n      0x2af0e251\n      eq\n      tag_10\n      jumpi\n      dup1\n      0x51b42b00\n      eq\n      tag_11\n      jumpi\n      jump(tag_2)\n    tag_32:\n      dup1\n      0xf714ce\n      eq\n      tag_3\n      jumpi\n      dup1\n      0x046f7da2\n      eq\n      tag_4\n      jumpi\n      dup1\n      0x07da68f5\n      eq\n      tag_5\n      jumpi\n      dup1\n      0x0a6cb062\n      eq\n      tag_6\n      jumpi\n      dup1\n      0x0ba2f1d8\n      eq\n      tag_7\n      jumpi\n      dup1\n      0x0f0ccf61\n      eq\n      tag_8\n      jumpi\n    tag_2:\n      0x00\n      dup1\n      revert\n        /* \"token_eco_system_dev_contracts/contracts_ready_for_prod/Copy_TokenEcoSystemParticipationV1_1.sol\":9508:9884  function withdraw(uint256 value, address wallet) public onlyOwner activated {... */\n    tag_3:\n      tag_34\n      0x04\n      dup1\n      calldatasize\n      sub\n      dup2\n      add\n      swap1\n      tag_35\n      swap2\n      swap1\n      tag_36\n      jump\t// in\n    tag_35:\n      tag_37\n      jump\t// in\n    tag_34:\n      stop\n        /* \"token_eco_system_dev_contracts/contracts_ready_for_prod/Copy_TokenEcoSystemParticipationV1_1.sol\":5032:5105  function resume() public whenPaused onlyOwner {... */\n    tag_4:\n      tag_38\n      tag_39\n      jump\t// in\n    tag_38:\n      stop\n        /* \"token_eco_system_dev_contracts/contracts_ready_for_prod/Copy_TokenEcoSystemParticipationV1_1.sol\":4954:5026  function stop() public whenNotPaused onlyOwner {... */\n    tag_5:\n      tag_40\n      tag_41\n      jump\t// in\n    tag_40:\n      stop\n        /* \"token_eco_system_dev_contracts/contracts_ready_for_prod/Copy_TokenEcoSystemParticipationV1_1.sol\":5161:5437  function addNewAggregatorPriceFeed(address consumerInterfaceAddress)... */\n    tag_6:\n      tag_42\n      0x04\n      dup1\n      calldatasize\n      sub\n      dup2\n      add\n      swap1\n      tag_43\n      swap2\n      swap1\n      tag_44\n      jump\t// in\n    tag_43:\n      tag_45\n      jump\t// in\n    tag_42:\n      stop\n        /* \"token_eco_system_dev_contracts/contracts_ready_for_prod/Copy_TokenEcoSystemParticipationV1_1.sol\":4665:4948  function changeAcceptedSenderAddress(address newAcceptedSender)... */\n    tag_7:\n      tag_46\n      0x04\n      dup1\n      calldatasize\n      sub\n      dup2\n      add\n      swap1\n      tag_47\n      swap2\n      swap1\n      tag_44\n      jump\t// in\n    tag_47:\n      tag_48\n      jump\t// in\n    tag_46:\n      stop\n        /* \"token_eco_system_dev_contracts/contracts_ready_for_prod/Copy_TokenEcoSystemParticipationV1_1.sol\":11215:11406  function getActivatorAndAcceptedSenderAddress()... */\n    tag_8:\n      tag_49\n      tag_50\n      jump\t// in\n    tag_49:\n      mload(0x40)\n      tag_51\n      swap3\n      swap2\n      swap1\n      tag_52\n      jump\t// in\n    tag_51:\n      mload(0x40)\n      dup1\n      swap2\n      sub\n      swap1\n      return\n        /* \"token_eco_system_dev_contracts/contracts_ready_for_prod/Copy_TokenEcoSystemParticipationV1_1.sol\":4080:4380  function activate() public whenNotPaused {... */\n    tag_9:\n      tag_53\n      tag_54\n      jump\t// in\n    tag_53:\n      stop\n        /* \"token_eco_system_dev_contracts/contracts_ready_for_prod/Copy_TokenEcoSystemParticipationV1_1.sol\":10425:10598  function getTotalBurnedTokens()... */\n    tag_10:\n      tag_55\n      tag_56\n      jump\t// in\n    tag_55:\n      mload(0x40)\n      tag_57\n      swap2\n      swap1\n      tag_58\n      jump\t// in\n    tag_57:\n      mload(0x40)\n      dup1\n      swap2\n      sub\n      swap1\n      return\n        /* \"token_eco_system_dev_contracts/contracts_ready_for_prod/Copy_TokenEcoSystemParticipationV1_1.sol\":4434:4607  function deactivate() public activated onlyAuthorized whenNotPaused {... */\n    tag_11:\n      tag_59\n      tag_60\n      jump\t// in\n    tag_59:\n      stop\n        /* \"@openzeppelin/contracts/security/Pausable.sol\":1615:1699  function paused() public view virtual returns (bool) {... */\n    tag_12:\n      tag_61\n      tag_62\n      jump\t// in\n    tag_61:\n      mload(0x40)\n      tag_63\n      swap2\n      swap1\n      tag_64\n      jump\t// in\n    tag_63:\n      mload(0x40)\n      dup1\n      swap2\n      sub\n      swap1\n      return\n        /* \"token_eco_system_dev_contracts/contracts_ready_for_prod/Copy_TokenEcoSystemParticipationV1_1.sol\":9890:10347  function bulkWithdraw(uint256 value, address[] calldata wallets, uint256[] calldata values) public onlyOwner returns (bool){... */\n    tag_13:\n      tag_65\n      0x04\n      dup1\n      calldatasize\n      sub\n      dup2\n      add\n      swap1\n      tag_66\n      swap2\n      swap1\n      tag_67\n      jump\t// in\n    tag_66:\n      tag_68\n      jump\t// in\n    tag_65:\n      mload(0x40)\n      tag_69\n      swap2\n      swap1\n      tag_64\n      jump\t// in\n    tag_69:\n      mload(0x40)\n      dup1\n      swap2\n      sub\n      swap1\n      return\n        /* \"token_eco_system_dev_contracts/contracts_ready_for_prod/Copy_TokenEcoSystemParticipationV1_1.sol\":9148:9442  function transferOfToken(... */\n    tag_14:\n      tag_70\n      0x04\n      dup1\n      calldatasize\n      sub\n      dup2\n      add\n      swap1\n      tag_71\n      swap2\n      swap1\n      tag_72\n      jump\t// in\n    tag_71:\n      tag_73\n      jump\t// in\n    tag_70:\n      mload(0x40)\n      tag_74\n      swap2\n      swap1\n      tag_64\n      jump\t// in\n    tag_74:\n      mload(0x40)\n      dup1\n      swap2\n      sub\n      swap1\n      return\n        /* \"@openzeppelin/contracts/access/Ownable.sol\":1831:1932  function renounceOwnership() public virtual onlyOwner {... */\n    tag_15:\n      tag_75\n      tag_76\n      jump\t// in\n    tag_75:\n      stop\n        /* \"token_eco_system_dev_contracts/contracts_ready_for_prod/Copy_TokenEcoSystemParticipationV1_1.sol\":8617:8722  function balanceOf() public view returns (uint256) {... */\n    tag_16:\n      tag_77\n      tag_78\n      jump\t// in\n    tag_77:\n      mload(0x40)\n      tag_79\n      swap2\n      swap1\n      tag_58\n      jump\t// in\n    tag_79:\n      mload(0x40)\n      dup1\n      swap2\n      sub\n      swap1\n      return\n        /* \"token_eco_system_dev_contracts/contracts_ready_for_prod/Copy_TokenEcoSystemParticipationV1_1.sol\":6730:7074  function calculateAmount(... */\n    tag_17:\n      tag_80\n      0x04\n      dup1\n      calldatasize\n      sub\n      dup2\n      add\n      swap1\n      tag_81\n      swap2\n      swap1\n      tag_82\n      jump\t// in\n    tag_81:\n      tag_83\n      jump\t// in\n    tag_80:\n      mload(0x40)\n      tag_84\n      swap2\n      swap1\n      tag_58\n      jump\t// in\n    tag_84:\n      mload(0x40)\n      dup1\n      swap2\n      sub\n      swap1\n      return\n        /* \"@openzeppelin/contracts/access/Ownable.sol\":1201:1286  function owner() public view virtual returns (address) {... */\n    tag_18:\n      tag_85\n      tag_86\n      jump\t// in\n    tag_85:\n      mload(0x40)\n      tag_87\n      swap2\n      swap1\n      tag_88\n      jump\t// in\n    tag_87:\n      mload(0x40)\n      dup1\n      swap2\n      sub\n      swap1\n      return\n        /* \"token_eco_system_dev_contracts/contracts_ready_for_prod/Copy_TokenEcoSystemParticipationV1_1.sol\":10918:11089  function getPointsBalance()... */\n    tag_19:\n      tag_89\n      tag_90\n      jump\t// in\n    tag_89:\n      mload(0x40)\n      tag_91\n      swap2\n      swap1\n      tag_58\n      jump\t// in\n    tag_91:\n      mload(0x40)\n      dup1\n      swap2\n      sub\n      swap1\n      return\n        /* \"token_eco_system_dev_contracts/contracts_ready_for_prod/Copy_TokenEcoSystemParticipationV1_1.sol\":7080:7223  function checkAllowance() public onlyOwnerOrAuthorized view returns (uint256){... */\n    tag_20:\n      tag_92\n      tag_93\n      jump\t// in\n    tag_92:\n      mload(0x40)\n      tag_94\n      swap2\n      swap1\n      tag_58\n      jump\t// in\n    tag_94:\n      mload(0x40)\n      dup1\n      swap2\n      sub\n      swap1\n      return\n        /* \"token_eco_system_dev_contracts/contracts_ready_for_prod/Copy_TokenEcoSystemParticipationV1_1.sol\":10697:10876  function getTotalPointsGenerated()... */\n    tag_21:\n      tag_95\n      tag_96\n      jump\t// in\n    tag_95:\n      mload(0x40)\n      tag_97\n      swap2\n      swap1\n      tag_58\n      jump\t// in\n    tag_97:\n      mload(0x40)\n      dup1\n      swap2\n      sub\n      swap1\n      return\n        /* \"token_eco_system_dev_contracts/contracts_ready_for_prod/Copy_TokenEcoSystemParticipationV1_1.sol\":11472:11673  function getTokenInfo()... */\n    tag_22:\n      tag_98\n      tag_99\n      jump\t// in\n    tag_98:\n      mload(0x40)\n      tag_100\n      swap3\n      swap2\n      swap1\n      tag_101\n      jump\t// in\n    tag_100:\n      mload(0x40)\n      dup1\n      swap2\n      sub\n      swap1\n      return\n        /* \"token_eco_system_dev_contracts/contracts_ready_for_prod/Copy_TokenEcoSystemParticipationV1_1.sol\":5514:5749  function addNewPoolRateFeed(address consumerInterfaceAddress)... */\n    tag_23:\n      tag_102\n      0x04\n      dup1\n      calldatasize\n      sub\n      dup2\n      add\n      swap1\n      tag_103\n      swap2\n      swap1\n      tag_44\n      jump\t// in\n    tag_103:\n      tag_104\n      jump\t// in\n    tag_102:\n      stop\n        /* \"token_eco_system_dev_contracts/contracts_ready_for_prod/Copy_TokenEcoSystemParticipationV1_1.sol\":8850:9041  function balanceOfToken(address tokenAddress)... */\n    tag_24:\n      tag_105\n      0x04\n      dup1\n      calldatasize\n      sub\n      dup2\n      add\n      swap1\n      tag_106\n      swap2\n      swap1\n      tag_44\n      jump\t// in\n    tag_106:\n      tag_107\n      jump\t// in\n    tag_105:\n      mload(0x40)\n      tag_108\n      swap2\n      swap1\n      tag_58\n      jump\t// in\n    tag_108:\n      mload(0x40)\n      dup1\n      swap2\n      sub\n      swap1\n      return\n        /* \"token_eco_system_dev_contracts/contracts_ready_for_prod/Copy_TokenEcoSystemParticipationV1_1.sol\":6347:6628  function currentRateFeed() public view returns (string memory, address) {... */\n    tag_25:\n      tag_109\n      tag_110\n      jump\t// in\n    tag_109:\n      mload(0x40)\n      tag_111\n      swap3\n      swap2\n      swap1\n      tag_112\n      jump\t// in\n    tag_111:\n      mload(0x40)\n      dup1\n      swap2\n      sub\n      swap1\n      return\n        /* \"token_eco_system_dev_contracts/contracts_ready_for_prod/Copy_TokenEcoSystemParticipationV1_1.sol\":5828:6300  function changeRateFeed() public onlyOwner {... */\n    tag_26:\n      tag_113\n      tag_114\n      jump\t// in\n    tag_113:\n      stop\n        /* \"token_eco_system_dev_contracts/contracts_ready_for_prod/Copy_TokenEcoSystemParticipationV1_1.sol\":7354:8496  function chargeContract(uint256 amount)... */\n    tag_27:\n      tag_115\n      0x04\n      dup1\n      calldatasize\n      sub\n      dup2\n      add\n      swap1\n      tag_116\n      swap2\n      swap1\n      tag_117\n      jump\t// in\n    tag_116:\n      tag_118\n      jump\t// in\n    tag_115:\n      mload(0x40)\n      tag_119\n      swap2\n      swap1\n      tag_64\n      jump\t// in\n    tag_119:\n      mload(0x40)\n      dup1\n      swap2\n      sub\n      swap1\n      return\n        /* \"@openzeppelin/contracts/access/Ownable.sol\":2081:2279  function transferOwnership(address newOwner) public virtual onlyOwner {... */\n    tag_28:\n      tag_120\n      0x04\n      dup1\n      calldatasize\n      sub\n      dup2\n      add\n      swap1\n      tag_121\n      swap2\n      swap1\n      tag_44\n      jump\t// in\n    tag_121:\n      tag_122\n      jump\t// in\n    tag_120:\n      stop\n        /* \"token_eco_system_dev_contracts/contracts_ready_for_prod/Copy_TokenEcoSystemParticipationV1_1.sol\":9508:9884  function withdraw(uint256 value, address wallet) public onlyOwner activated {... */\n    tag_37:\n        /* \"@openzeppelin/contracts/access/Ownable.sol\":1094:1107  _checkOwner() */\n      tag_124\n        /* \"@openzeppelin/contracts/access/Ownable.sol\":1094:1105  _checkOwner */\n      tag_125\n        /* \"@openzeppelin/contracts/access/Ownable.sol\":1094:1107  _checkOwner() */\n      jump\t// in\n    tag_124:\n        /* \"token_eco_system_dev_contracts/contracts_ready_for_prod/Copy_TokenEcoSystemParticipationV1_1.sol\":3504:3505  0 */\n      0x00\n        /* \"token_eco_system_dev_contracts/contracts_ready_for_prod/Copy_TokenEcoSystemParticipationV1_1.sol\":3471:3506  acceptedSenderAddress != address(0) */\n      0xffffffffffffffffffffffffffffffffffffffff\n      and\n        /* \"token_eco_system_dev_contracts/contracts_ready_for_prod/Copy_TokenEcoSystemParticipationV1_1.sol\":3471:3492  acceptedSenderAddress */\n      0x01\n      0x00\n      swap1\n      sload\n      swap1\n      0x0100\n      exp\n      swap1\n      div\n      0xffffffffffffffffffffffffffffffffffffffff\n      and\n        /* \"token_eco_system_dev_contracts/contracts_ready_for_prod/Copy_TokenEcoSystemParticipationV1_1.sol\":3471:3506  acceptedSenderAddress != address(0) */\n      0xffffffffffffffffffffffffffffffffffffffff\n      and\n      sub\n        /* \"token_eco_system_dev_contracts/contracts_ready_for_prod/Copy_TokenEcoSystemParticipationV1_1.sol\":3463:3525  require(acceptedSenderAddress != address(0), \"Not activated!\") */\n      tag_127\n      jumpi\n      mload(0x40)\n      0x08c379a000000000000000000000000000000000000000000000000000000000\n      dup2\n      mstore\n      0x04\n      add\n      tag_128\n      swap1\n      tag_129\n      jump\t// in\n    tag_128:\n      mload(0x40)\n      dup1\n      swap2\n      sub\n      swap1\n      revert\n    tag_127:\n        /* \"token_eco_system_dev_contracts/contracts_ready_for_prod/Copy_TokenEcoSystemParticipationV1_1.sol\":9624:9637  pointsBalance */\n      sload(0x04)\n        /* \"token_eco_system_dev_contracts/contracts_ready_for_prod/Copy_TokenEcoSystemParticipationV1_1.sol\":9615:9620  value */\n      dup3\n        /* \"token_eco_system_dev_contracts/contracts_ready_for_prod/Copy_TokenEcoSystemParticipationV1_1.sol\":9615:9637  value <= pointsBalance */\n      gt\n      iszero\n        /* \"token_eco_system_dev_contracts/contracts_ready_for_prod/Copy_TokenEcoSystemParticipationV1_1.sol\":9594:9718  require(... */\n      tag_131\n      jumpi\n      mload(0x40)\n      0x08c379a000000000000000000000000000000000000000000000000000000000\n      dup2\n      mstore\n      0x04\n      add\n      tag_132\n      swap1\n      tag_133\n      jump\t// in\n    tag_132:\n      mload(0x40)\n      dup1\n      swap2\n      sub\n      swap1\n      revert\n    tag_131:\n        /* \"token_eco_system_dev_contracts/contracts_ready_for_prod/Copy_TokenEcoSystemParticipationV1_1.sol\":9744:9745  0 */\n      0x00\n        /* \"token_eco_system_dev_contracts/contracts_ready_for_prod/Copy_TokenEcoSystemParticipationV1_1.sol\":9736:9741  value */\n      dup3\n        /* \"token_eco_system_dev_contracts/contracts_ready_for_prod/Copy_TokenEcoSystemParticipationV1_1.sol\":9736:9745  value > 0 */\n      gt\n        /* \"token_eco_system_dev_contracts/contracts_ready_for_prod/Copy_TokenEcoSystemParticipationV1_1.sol\":9728:9788  require(value > 0, \"Withdraw value must be greater than 0!\") */\n      tag_134\n      jumpi\n      mload(0x40)\n      0x08c379a000000000000000000000000000000000000000000000000000000000\n      dup2\n      mstore\n      0x04\n      add\n      tag_135\n      swap1\n      tag_136\n      jump\t// in\n    tag_135:\n      mload(0x40)\n      dup1\n      swap2\n      sub\n      swap1\n      revert\n    tag_134:\n        /* \"token_eco_system_dev_contracts/contracts_ready_for_prod/Copy_TokenEcoSystemParticipationV1_1.sol\":9836:9842  wallet */\n      dup1\n        /* \"token_eco_system_dev_contracts/contracts_ready_for_prod/Copy_TokenEcoSystemParticipationV1_1.sol\":9803:9843  Withdraw(block.timestamp, value, wallet) */\n      0xffffffffffffffffffffffffffffffffffffffff\n      and\n        /* \"token_eco_system_dev_contracts/contracts_ready_for_prod/Copy_TokenEcoSystemParticipationV1_1.sol\":9812:9827  block.timestamp */\n      timestamp\n        /* \"token_eco_system_dev_contracts/contracts_ready_for_prod/Copy_TokenEcoSystemParticipationV1_1.sol\":9803:9843  Withdraw(block.timestamp, value, wallet) */\n      0x71ef96c43343734b1d843bb85d52ef329f5e9143e4d35827771e3b0dd90c5f84\n        /* \"token_eco_system_dev_contracts/contracts_ready_for_prod/Copy_TokenEcoSystemParticipationV1_1.sol\":9829:9834  value */\n      dup5\n        /* \"token_eco_system_dev_contracts/contracts_ready_for_prod/Copy_TokenEcoSystemParticipationV1_1.sol\":9803:9843  Withdraw(block.timestamp, value, wallet) */\n      mload(0x40)\n      tag_137\n      swap2\n      swap1\n      tag_58\n      jump\t// in\n    tag_137:\n      mload(0x40)\n      dup1\n      swap2\n      sub\n      swap1\n      log3\n        /* \"token_eco_system_dev_contracts/contracts_ready_for_prod/Copy_TokenEcoSystemParticipationV1_1.sol\":9870:9875  value */\n      dup2\n        /* \"token_eco_system_dev_contracts/contracts_ready_for_prod/Copy_TokenEcoSystemParticipationV1_1.sol\":9853:9866  pointsBalance */\n      0x04\n      0x00\n        /* \"token_eco_system_dev_contracts/contracts_ready_for_prod/Copy_TokenEcoSystemParticipationV1_1.sol\":9853:9875  pointsBalance -= value */\n      dup3\n      dup3\n      sload\n      tag_138\n      swap2\n      swap1\n      tag_139\n      jump\t// in\n    tag_138:\n      swap3\n      pop\n      pop\n      dup2\n      swap1\n      sstore\n      pop\n        /* \"token_eco_system_dev_contracts/contracts_ready_for_prod/Copy_TokenEcoSystemParticipationV1_1.sol\":9508:9884  function withdraw(uint256 value, address wallet) public onlyOwner activated {... */\n      pop\n      pop\n      jump\t// out\n        /* \"token_eco_system_dev_contracts/contracts_ready_for_prod/Copy_TokenEcoSystemParticipationV1_1.sol\":5032:5105  function resume() public whenPaused onlyOwner {... */\n    tag_39:\n        /* \"@openzeppelin/contracts/security/Pausable.sol\":1486:1502  _requirePaused() */\n      tag_141\n        /* \"@openzeppelin/contracts/security/Pausable.sol\":1486:1500  _requirePaused */\n      tag_142\n        /* \"@openzeppelin/contracts/security/Pausable.sol\":1486:1502  _requirePaused() */\n      jump\t// in\n    tag_141:\n        /* \"@openzeppelin/contracts/access/Ownable.sol\":1094:1107  _checkOwner() */\n      tag_144\n        /* \"@openzeppelin/contracts/access/Ownable.sol\":1094:1105  _checkOwner */\n      tag_125\n        /* \"@openzeppelin/contracts/access/Ownable.sol\":1094:1107  _checkOwner() */\n      jump\t// in\n    tag_144:\n        /* \"token_eco_system_dev_contracts/contracts_ready_for_prod/Copy_TokenEcoSystemParticipationV1_1.sol\":5088:5098  _unpause() */\n      tag_146\n        /* \"token_eco_system_dev_contracts/contracts_ready_for_prod/Copy_TokenEcoSystemParticipationV1_1.sol\":5088:5096  _unpause */\n      tag_147\n        /* \"token_eco_system_dev_contracts/contracts_ready_for_prod/Copy_TokenEcoSystemParticipationV1_1.sol\":5088:5098  _unpause() */\n      jump\t// in\n    tag_146:\n        /* \"token_eco_system_dev_contracts/contracts_ready_for_prod/Copy_TokenEcoSystemParticipationV1_1.sol\":5032:5105  function resume() public whenPaused onlyOwner {... */\n      jump\t// out\n        /* \"token_eco_system_dev_contracts/contracts_ready_for_prod/Copy_TokenEcoSystemParticipationV1_1.sol\":4954:5026  function stop() public whenNotPaused onlyOwner {... */\n    tag_41:\n        /* \"@openzeppelin/contracts/security/Pausable.sol\":1239:1258  _requireNotPaused() */\n      tag_149\n        /* \"@openzeppelin/contracts/security/Pausable.sol\":1239:1256  _requireNotPaused */\n      tag_150\n        /* \"@openzeppelin/contracts/security/Pausable.sol\":1239:1258  _requireNotPaused() */\n      jump\t// in\n    tag_149:\n        /* \"@openzeppelin/contracts/access/Ownable.sol\":1094:1107  _checkOwner() */\n      tag_152\n        /* \"@openzeppelin/contracts/access/Ownable.sol\":1094:1105  _checkOwner */\n      tag_125\n        /* \"@openzeppelin/contracts/access/Ownable.sol\":1094:1107  _checkOwner() */\n      jump\t// in\n    tag_152:\n        /* \"token_eco_system_dev_contracts/contracts_ready_for_prod/Copy_TokenEcoSystemParticipationV1_1.sol\":5011:5019  _pause() */\n      tag_154\n        /* \"token_eco_system_dev_contracts/contracts_ready_for_prod/Copy_TokenEcoSystemParticipationV1_1.sol\":5011:5017  _pause */\n      tag_155\n        /* \"token_eco_system_dev_contracts/contracts_ready_for_prod/Copy_TokenEcoSystemParticipationV1_1.sol\":5011:5019  _pause() */\n      jump\t// in\n    tag_154:\n        /* \"token_eco_system_dev_contracts/contracts_ready_for_prod/Copy_TokenEcoSystemParticipationV1_1.sol\":4954:5026  function stop() public whenNotPaused onlyOwner {... */\n      jump\t// out\n        /* \"token_eco_system_dev_contracts/contracts_ready_for_prod/Copy_TokenEcoSystemParticipationV1_1.sol\":5161:5437  function addNewAggregatorPriceFeed(address consumerInterfaceAddress)... */\n    tag_45:\n        /* \"@openzeppelin/contracts/access/Ownable.sol\":1094:1107  _checkOwner() */\n      tag_157\n        /* \"@openzeppelin/contracts/access/Ownable.sol\":1094:1105  _checkOwner */\n      tag_125\n        /* \"@openzeppelin/contracts/access/Ownable.sol\":1094:1107  _checkOwner() */\n      jump\t// in\n    tag_157:\n        /* \"token_eco_system_dev_contracts/contracts_ready_for_prod/Copy_TokenEcoSystemParticipationV1_1.sol\":5321:5322  0 */\n      0x00\n        /* \"token_eco_system_dev_contracts/contracts_ready_for_prod/Copy_TokenEcoSystemParticipationV1_1.sol\":5285:5323  consumerInterfaceAddress != address(0) */\n      0xffffffffffffffffffffffffffffffffffffffff\n      and\n        /* \"token_eco_system_dev_contracts/contracts_ready_for_prod/Copy_TokenEcoSystemParticipationV1_1.sol\":5285:5309  consumerInterfaceAddress */\n      dup2\n        /* \"token_eco_system_dev_contracts/contracts_ready_for_prod/Copy_TokenEcoSystemParticipationV1_1.sol\":5285:5323  consumerInterfaceAddress != address(0) */\n      0xffffffffffffffffffffffffffffffffffffffff\n      and\n      sub\n        /* \"token_eco_system_dev_contracts/contracts_ready_for_prod/Copy_TokenEcoSystemParticipationV1_1.sol\":5277:5324  require(consumerInterfaceAddress != address(0)) */\n      tag_159\n      jumpi\n      0x00\n      dup1\n      revert\n    tag_159:\n        /* \"token_eco_system_dev_contracts/contracts_ready_for_prod/Copy_TokenEcoSystemParticipationV1_1.sol\":5396:5420  consumerInterfaceAddress */\n      dup1\n        /* \"token_eco_system_dev_contracts/contracts_ready_for_prod/Copy_TokenEcoSystemParticipationV1_1.sol\":5334:5352  aggregatorConsumer */\n      0x05\n      0x00\n        /* \"token_eco_system_dev_contracts/contracts_ready_for_prod/Copy_TokenEcoSystemParticipationV1_1.sol\":5334:5430  aggregatorConsumer = AggregatorConsumerInterface(... */\n      0x0100\n      exp\n      dup2\n      sload\n      dup2\n      0xffffffffffffffffffffffffffffffffffffffff\n      mul\n      not\n      and\n      swap1\n      dup4\n      0xffffffffffffffffffffffffffffffffffffffff\n      and\n      mul\n      or\n      swap1\n      sstore\n      pop\n        /* \"token_eco_system_dev_contracts/contracts_ready_for_prod/Copy_TokenEcoSystemParticipationV1_1.sol\":5161:5437  function addNewAggregatorPriceFeed(address consumerInterfaceAddress)... */\n      pop\n      jump\t// out\n        /* \"token_eco_system_dev_contracts/contracts_ready_for_prod/Copy_TokenEcoSystemParticipationV1_1.sol\":4665:4948  function changeAcceptedSenderAddress(address newAcceptedSender)... */\n    tag_48:\n        /* \"token_eco_system_dev_contracts/contracts_ready_for_prod/Copy_TokenEcoSystemParticipationV1_1.sol\":3504:3505  0 */\n      0x00\n        /* \"token_eco_system_dev_contracts/contracts_ready_for_prod/Copy_TokenEcoSystemParticipationV1_1.sol\":3471:3506  acceptedSenderAddress != address(0) */\n      0xffffffffffffffffffffffffffffffffffffffff\n      and\n        /* \"token_eco_system_dev_contracts/contracts_ready_for_prod/Copy_TokenEcoSystemParticipationV1_1.sol\":3471:3492  acceptedSenderAddress */\n      0x01\n      0x00\n      swap1\n      sload\n      swap1\n      0x0100\n      exp\n      swap1\n      div\n      0xffffffffffffffffffffffffffffffffffffffff\n      and\n        /* \"token_eco_system_dev_contracts/contracts_ready_for_prod/Copy_TokenEcoSystemParticipationV1_1.sol\":3471:3506  acceptedSenderAddress != address(0) */\n      0xffffffffffffffffffffffffffffffffffffffff\n      and\n      sub\n        /* \"token_eco_system_dev_contracts/contracts_ready_for_prod/Copy_TokenEcoSystemParticipationV1_1.sol\":3463:3525  require(acceptedSenderAddress != address(0), \"Not activated!\") */\n      tag_161\n      jumpi\n      mload(0x40)\n      0x08c379a000000000000000000000000000000000000000000000000000000000\n      dup2\n      mstore\n      0x04\n      add\n      tag_162\n      swap1\n      tag_129\n      jump\t// in\n    tag_162:\n      mload(0x40)\n      dup1\n      swap2\n      sub\n      swap1\n      revert\n    tag_161:\n        /* \"token_eco_system_dev_contracts/contracts_ready_for_prod/Copy_TokenEcoSystemParticipationV1_1.sol\":3367:3388  acceptedSenderAddress */\n      0x01\n      0x00\n      swap1\n      sload\n      swap1\n      0x0100\n      exp\n      swap1\n      div\n      0xffffffffffffffffffffffffffffffffffffffff\n      and\n        /* \"token_eco_system_dev_contracts/contracts_ready_for_prod/Copy_TokenEcoSystemParticipationV1_1.sol\":3353:3388  msg.sender == acceptedSenderAddress */\n      0xffffffffffffffffffffffffffffffffffffffff\n      and\n        /* \"token_eco_system_dev_contracts/contracts_ready_for_prod/Copy_TokenEcoSystemParticipationV1_1.sol\":3353:3363  msg.sender */\n      caller\n        /* \"token_eco_system_dev_contracts/contracts_ready_for_prod/Copy_TokenEcoSystemParticipationV1_1.sol\":3353:3388  msg.sender == acceptedSenderAddress */\n      0xffffffffffffffffffffffffffffffffffffffff\n      and\n      eq\n        /* \"token_eco_system_dev_contracts/contracts_ready_for_prod/Copy_TokenEcoSystemParticipationV1_1.sol\":3345:3408  require(msg.sender == acceptedSenderAddress, \"Not Authorized!\") */\n      tag_164\n      jumpi\n      mload(0x40)\n      0x08c379a000000000000000000000000000000000000000000000000000000000\n      dup2\n      mstore\n      0x04\n      add\n      tag_165\n      swap1\n      tag_166\n      jump\t// in\n    tag_165:\n      mload(0x40)\n      dup1\n      swap2\n      sub\n      swap1\n      revert\n    tag_164:\n        /* \"token_eco_system_dev_contracts/contracts_ready_for_prod/Copy_TokenEcoSystemParticipationV1_1.sol\":4836:4837  0 */\n      0x00\n        /* \"token_eco_system_dev_contracts/contracts_ready_for_prod/Copy_TokenEcoSystemParticipationV1_1.sol\":4807:4838  newAcceptedSender != address(0) */\n      0xffffffffffffffffffffffffffffffffffffffff\n      and\n        /* \"token_eco_system_dev_contracts/contracts_ready_for_prod/Copy_TokenEcoSystemParticipationV1_1.sol\":4807:4824  newAcceptedSender */\n      dup2\n        /* \"token_eco_system_dev_contracts/contracts_ready_for_prod/Copy_TokenEcoSystemParticipationV1_1.sol\":4807:4838  newAcceptedSender != address(0) */\n      0xffffffffffffffffffffffffffffffffffffffff\n      and\n      sub\n        /* \"token_eco_system_dev_contracts/contracts_ready_for_prod/Copy_TokenEcoSystemParticipationV1_1.sol\":4799:4839  require(newAcceptedSender != address(0)) */\n      tag_168\n      jumpi\n      0x00\n      dup1\n      revert\n    tag_168:\n        /* \"token_eco_system_dev_contracts/contracts_ready_for_prod/Copy_TokenEcoSystemParticipationV1_1.sol\":4873:4890  newAcceptedSender */\n      dup1\n        /* \"token_eco_system_dev_contracts/contracts_ready_for_prod/Copy_TokenEcoSystemParticipationV1_1.sol\":4849:4870  acceptedSenderAddress */\n      0x01\n      0x00\n        /* \"token_eco_system_dev_contracts/contracts_ready_for_prod/Copy_TokenEcoSystemParticipationV1_1.sol\":4849:4890  acceptedSenderAddress = newAcceptedSender */\n      0x0100\n      exp\n      dup2\n      sload\n      dup2\n      0xffffffffffffffffffffffffffffffffffffffff\n      mul\n      not\n      and\n      swap1\n      dup4\n      0xffffffffffffffffffffffffffffffffffffffff\n      and\n      mul\n      or\n      swap1\n      sstore\n      pop\n        /* \"token_eco_system_dev_contracts/contracts_ready_for_prod/Copy_TokenEcoSystemParticipationV1_1.sol\":4923:4940  newAcceptedSender */\n      dup1\n        /* \"token_eco_system_dev_contracts/contracts_ready_for_prod/Copy_TokenEcoSystemParticipationV1_1.sol\":4905:4941  NewAcceptedSender(newAcceptedSender) */\n      0xffffffffffffffffffffffffffffffffffffffff\n      and\n      0x8bbfeb6e784147166691d407a592a09379bbbd56888a96c54793bce54bb57523\n      mload(0x40)\n      mload(0x40)\n      dup1\n      swap2\n      sub\n      swap1\n      log2\n        /* \"token_eco_system_dev_contracts/contracts_ready_for_prod/Copy_TokenEcoSystemParticipationV1_1.sol\":4665:4948  function changeAcceptedSenderAddress(address newAcceptedSender)... */\n      pop\n      jump\t// out\n        /* \"token_eco_system_dev_contracts/contracts_ready_for_prod/Copy_TokenEcoSystemParticipationV1_1.sol\":11215:11406  function getActivatorAndAcceptedSenderAddress()... */\n    tag_50:\n        /* \"token_eco_system_dev_contracts/contracts_ready_for_prod/Copy_TokenEcoSystemParticipationV1_1.sol\":11326:11333  address */\n      0x00\n        /* \"token_eco_system_dev_contracts/contracts_ready_for_prod/Copy_TokenEcoSystemParticipationV1_1.sol\":11335:11342  address */\n      dup1\n        /* \"token_eco_system_dev_contracts/contracts_ready_for_prod/Copy_TokenEcoSystemParticipationV1_1.sol\":3504:3505  0 */\n      0x00\n        /* \"token_eco_system_dev_contracts/contracts_ready_for_prod/Copy_TokenEcoSystemParticipationV1_1.sol\":3471:3506  acceptedSenderAddress != address(0) */\n      0xffffffffffffffffffffffffffffffffffffffff\n      and\n        /* \"token_eco_system_dev_contracts/contracts_ready_for_prod/Copy_TokenEcoSystemParticipationV1_1.sol\":3471:3492  acceptedSenderAddress */\n      0x01\n      0x00\n      swap1\n      sload\n      swap1\n      0x0100\n      exp\n      swap1\n      div\n      0xffffffffffffffffffffffffffffffffffffffff\n      and\n        /* \"token_eco_system_dev_contracts/contracts_ready_for_prod/Copy_TokenEcoSystemParticipationV1_1.sol\":3471:3506  acceptedSenderAddress != address(0) */\n      0xffffffffffffffffffffffffffffffffffffffff\n      and\n      sub\n        /* \"token_eco_system_dev_contracts/contracts_ready_for_prod/Copy_TokenEcoSystemParticipationV1_1.sol\":3463:3525  require(acceptedSenderAddress != address(0), \"Not activated!\") */\n      tag_170\n      jumpi\n      mload(0x40)\n      0x08c379a000000000000000000000000000000000000000000000000000000000\n      dup2\n      mstore\n      0x04\n      add\n      tag_171\n      swap1\n      tag_129\n      jump\t// in\n    tag_171:\n      mload(0x40)\n      dup1\n      swap2\n      sub\n      swap1\n      revert\n    tag_170:\n        /* \"token_eco_system_dev_contracts/contracts_ready_for_prod/Copy_TokenEcoSystemParticipationV1_1.sol\":11366:11375  activator */\n      immutable(\"0xd2f63731675c6a71dc2bd3699360fd070b4ef61c2e40215aaeeee79f9e81574f\")\n        /* \"token_eco_system_dev_contracts/contracts_ready_for_prod/Copy_TokenEcoSystemParticipationV1_1.sol\":11377:11398  acceptedSenderAddress */\n      0x01\n      0x00\n      swap1\n      sload\n      swap1\n      0x0100\n      exp\n      swap1\n      div\n      0xffffffffffffffffffffffffffffffffffffffff\n      and\n        /* \"token_eco_system_dev_contracts/contracts_ready_for_prod/Copy_TokenEcoSystemParticipationV1_1.sol\":11358:11399  return (activator, acceptedSenderAddress) */\n      swap2\n      pop\n      swap2\n      pop\n        /* \"token_eco_system_dev_contracts/contracts_ready_for_prod/Copy_TokenEcoSystemParticipationV1_1.sol\":11215:11406  function getActivatorAndAcceptedSenderAddress()... */\n      swap1\n      swap2\n      jump\t// out\n        /* \"token_eco_system_dev_contracts/contracts_ready_for_prod/Copy_TokenEcoSystemParticipationV1_1.sol\":4080:4380  function activate() public whenNotPaused {... */\n    tag_54:\n        /* \"@openzeppelin/contracts/security/Pausable.sol\":1239:1258  _requireNotPaused() */\n      tag_174\n        /* \"@openzeppelin/contracts/security/Pausable.sol\":1239:1256  _requireNotPaused */\n      tag_150\n        /* \"@openzeppelin/contracts/security/Pausable.sol\":1239:1258  _requireNotPaused() */\n      jump\t// in\n    tag_174:\n        /* \"token_eco_system_dev_contracts/contracts_ready_for_prod/Copy_TokenEcoSystemParticipationV1_1.sol\":4152:4162  msg.sender */\n      caller\n        /* \"token_eco_system_dev_contracts/contracts_ready_for_prod/Copy_TokenEcoSystemParticipationV1_1.sol\":4139:4162  activator == msg.sender */\n      0xffffffffffffffffffffffffffffffffffffffff\n      and\n        /* \"token_eco_system_dev_contracts/contracts_ready_for_prod/Copy_TokenEcoSystemParticipationV1_1.sol\":4139:4148  activator */\n      immutable(\"0xd2f63731675c6a71dc2bd3699360fd070b4ef61c2e40215aaeeee79f9e81574f\")\n        /* \"token_eco_system_dev_contracts/contracts_ready_for_prod/Copy_TokenEcoSystemParticipationV1_1.sol\":4139:4162  activator == msg.sender */\n      0xffffffffffffffffffffffffffffffffffffffff\n      and\n      eq\n        /* \"token_eco_system_dev_contracts/contracts_ready_for_prod/Copy_TokenEcoSystemParticipationV1_1.sol\":4131:4190  require(activator == msg.sender, \"Activation not allowed!\") */\n      tag_176\n      jumpi\n      mload(0x40)\n      0x08c379a000000000000000000000000000000000000000000000000000000000\n      dup2\n      mstore\n      0x04\n      add\n      tag_177\n      swap1\n      tag_178\n      jump\t// in\n    tag_177:\n      mload(0x40)\n      dup1\n      swap2\n      sub\n      swap1\n      revert\n    tag_176:\n        /* \"token_eco_system_dev_contracts/contracts_ready_for_prod/Copy_TokenEcoSystemParticipationV1_1.sol\":4241:4242  0 */\n      0x00\n        /* \"token_eco_system_dev_contracts/contracts_ready_for_prod/Copy_TokenEcoSystemParticipationV1_1.sol\":4208:4243  acceptedSenderAddress == address(0) */\n      0xffffffffffffffffffffffffffffffffffffffff\n      and\n        /* \"token_eco_system_dev_contracts/contracts_ready_for_prod/Copy_TokenEcoSystemParticipationV1_1.sol\":4208:4229  acceptedSenderAddress */\n      0x01\n      0x00\n      swap1\n      sload\n      swap1\n      0x0100\n      exp\n      swap1\n      div\n      0xffffffffffffffffffffffffffffffffffffffff\n      and\n        /* \"token_eco_system_dev_contracts/contracts_ready_for_prod/Copy_TokenEcoSystemParticipationV1_1.sol\":4208:4243  acceptedSenderAddress == address(0) */\n      0xffffffffffffffffffffffffffffffffffffffff\n      and\n      eq\n        /* \"token_eco_system_dev_contracts/contracts_ready_for_prod/Copy_TokenEcoSystemParticipationV1_1.sol\":4200:4266  require(acceptedSenderAddress == address(0), \"Already activated.\") */\n      tag_179\n      jumpi\n      mload(0x40)\n      0x08c379a000000000000000000000000000000000000000000000000000000000\n      dup2\n      mstore\n      0x04\n      add\n      tag_180\n      swap1\n      tag_181\n      jump\t// in\n    tag_180:\n      mload(0x40)\n      dup1\n      swap2\n      sub\n      swap1\n      revert\n    tag_179:\n        /* \"token_eco_system_dev_contracts/contracts_ready_for_prod/Copy_TokenEcoSystemParticipationV1_1.sol\":4300:4310  msg.sender */\n      caller\n        /* \"token_eco_system_dev_contracts/contracts_ready_for_prod/Copy_TokenEcoSystemParticipationV1_1.sol\":4276:4297  acceptedSenderAddress */\n      0x01\n      0x00\n        /* \"token_eco_system_dev_contracts/contracts_ready_for_prod/Copy_TokenEcoSystemParticipationV1_1.sol\":4276:4310  acceptedSenderAddress = msg.sender */\n      0x0100\n      exp\n      dup2\n      sload\n      dup2\n      0xffffffffffffffffffffffffffffffffffffffff\n      mul\n      not\n      and\n      swap1\n      dup4\n      0xffffffffffffffffffffffffffffffffffffffff\n      and\n      mul\n      or\n      swap1\n      sstore\n      pop\n        /* \"token_eco_system_dev_contracts/contracts_ready_for_prod/Copy_TokenEcoSystemParticipationV1_1.sol\":4334:4355  acceptedSenderAddress */\n      0x01\n      0x00\n      swap1\n      sload\n      swap1\n      0x0100\n      exp\n      swap1\n      div\n      0xffffffffffffffffffffffffffffffffffffffff\n      and\n        /* \"token_eco_system_dev_contracts/contracts_ready_for_prod/Copy_TokenEcoSystemParticipationV1_1.sol\":4325:4373  Activate(acceptedSenderAddress, block.timestamp) */\n      0xffffffffffffffffffffffffffffffffffffffff\n      and\n      0xfbd0a3f6e9a0dd5f834515748047e83de8064477489a0a0d6b59c64bbecc992a\n        /* \"token_eco_system_dev_contracts/contracts_ready_for_prod/Copy_TokenEcoSystemParticipationV1_1.sol\":4357:4372  block.timestamp */\n      timestamp\n        /* \"token_eco_system_dev_contracts/contracts_ready_for_prod/Copy_TokenEcoSystemParticipationV1_1.sol\":4325:4373  Activate(acceptedSenderAddress, block.timestamp) */\n      mload(0x40)\n      tag_182\n      swap2\n      swap1\n      tag_58\n      jump\t// in\n    tag_182:\n      mload(0x40)\n      dup1\n      swap2\n      sub\n      swap1\n      log2\n        /* \"token_eco_system_dev_contracts/contracts_ready_for_prod/Copy_TokenEcoSystemParticipationV1_1.sol\":4080:4380  function activate() public whenNotPaused {... */\n      jump\t// out\n        /* \"token_eco_system_dev_contracts/contracts_ready_for_prod/Copy_TokenEcoSystemParticipationV1_1.sol\":10425:10598  function getTotalBurnedTokens()... */\n    tag_56:\n        /* \"token_eco_system_dev_contracts/contracts_ready_for_prod/Copy_TokenEcoSystemParticipationV1_1.sol\":10550:10557  uint256 */\n      0x00\n        /* \"token_eco_system_dev_contracts/contracts_ready_for_prod/Copy_TokenEcoSystemParticipationV1_1.sol\":3504:3505  0 */\n      dup1\n        /* \"token_eco_system_dev_contracts/contracts_ready_for_prod/Copy_TokenEcoSystemParticipationV1_1.sol\":3471:3506  acceptedSenderAddress != address(0) */\n      0xffffffffffffffffffffffffffffffffffffffff\n      and\n        /* \"token_eco_system_dev_contracts/contracts_ready_for_prod/Copy_TokenEcoSystemParticipationV1_1.sol\":3471:3492  acceptedSenderAddress */\n      0x01\n      0x00\n      swap1\n      sload\n      swap1\n      0x0100\n      exp\n      swap1\n      div\n      0xffffffffffffffffffffffffffffffffffffffff\n      and\n        /* \"token_eco_system_dev_contracts/contracts_ready_for_prod/Copy_TokenEcoSystemParticipationV1_1.sol\":3471:3506  acceptedSenderAddress != address(0) */\n      0xffffffffffffffffffffffffffffffffffffffff\n      and\n      sub\n        /* \"token_eco_system_dev_contracts/contracts_ready_for_prod/Copy_TokenEcoSystemParticipationV1_1.sol\":3463:3525  require(acceptedSenderAddress != address(0), \"Not activated!\") */\n      tag_184\n      jumpi\n      mload(0x40)\n      0x08c379a000000000000000000000000000000000000000000000000000000000\n      dup2\n      mstore\n      0x04\n      add\n      tag_185\n      swap1\n      tag_129\n      jump\t// in\n    tag_185:\n      mload(0x40)\n      dup1\n      swap2\n      sub\n      swap1\n      revert\n    tag_184:\n        /* \"token_eco_system_dev_contracts/contracts_ready_for_prod/Copy_TokenEcoSystemParticipationV1_1.sol\":3628:3649  acceptedSenderAddress */\n      0x01\n      0x00\n      swap1\n      sload\n      swap1\n      0x0100\n      exp\n      swap1\n      div\n      0xffffffffffffffffffffffffffffffffffffffff\n      and\n        /* \"token_eco_system_dev_contracts/contracts_ready_for_prod/Copy_TokenEcoSystemParticipationV1_1.sol\":3614:3649  msg.sender == acceptedSenderAddress */\n      0xffffffffffffffffffffffffffffffffffffffff\n      and\n        /* \"token_eco_system_dev_contracts/contracts_ready_for_prod/Copy_TokenEcoSystemParticipationV1_1.sol\":3614:3624  msg.sender */\n      caller\n        /* \"token_eco_system_dev_contracts/contracts_ready_for_prod/Copy_TokenEcoSystemParticipationV1_1.sol\":3614:3649  msg.sender == acceptedSenderAddress */\n      0xffffffffffffffffffffffffffffffffffffffff\n      and\n      eq\n        /* \"token_eco_system_dev_contracts/contracts_ready_for_prod/Copy_TokenEcoSystemParticipationV1_1.sol\":3614:3674  msg.sender == acceptedSenderAddress || msg.sender == owner() */\n      dup1\n      tag_187\n      jumpi\n      pop\n        /* \"token_eco_system_dev_contracts/contracts_ready_for_prod/Copy_TokenEcoSystemParticipationV1_1.sol\":3667:3674  owner() */\n      tag_188\n        /* \"token_eco_system_dev_contracts/contracts_ready_for_prod/Copy_TokenEcoSystemParticipationV1_1.sol\":3667:3672  owner */\n      tag_86\n        /* \"token_eco_system_dev_contracts/contracts_ready_for_prod/Copy_TokenEcoSystemParticipationV1_1.sol\":3667:3674  owner() */\n      jump\t// in\n    tag_188:\n        /* \"token_eco_system_dev_contracts/contracts_ready_for_prod/Copy_TokenEcoSystemParticipationV1_1.sol\":3653:3674  msg.sender == owner() */\n      0xffffffffffffffffffffffffffffffffffffffff\n      and\n        /* \"token_eco_system_dev_contracts/contracts_ready_for_prod/Copy_TokenEcoSystemParticipationV1_1.sol\":3653:3663  msg.sender */\n      caller\n        /* \"token_eco_system_dev_contracts/contracts_ready_for_prod/Copy_TokenEcoSystemParticipationV1_1.sol\":3653:3674  msg.sender == owner() */\n      0xffffffffffffffffffffffffffffffffffffffff\n      and\n      eq\n        /* \"token_eco_system_dev_contracts/contracts_ready_for_prod/Copy_TokenEcoSystemParticipationV1_1.sol\":3614:3674  msg.sender == acceptedSenderAddress || msg.sender == owner() */\n    tag_187:\n        /* \"token_eco_system_dev_contracts/contracts_ready_for_prod/Copy_TokenEcoSystemParticipationV1_1.sol\":3592:3765  require(... */\n      tag_189\n      jumpi\n      mload(0x40)\n      0x08c379a000000000000000000000000000000000000000000000000000000000\n      dup2\n      mstore\n      0x04\n      add\n      tag_190\n      swap1\n      tag_191\n      jump\t// in\n    tag_190:\n      mload(0x40)\n      dup1\n      swap2\n      sub\n      swap1\n      revert\n    tag_189:\n        /* \"token_eco_system_dev_contracts/contracts_ready_for_prod/Copy_TokenEcoSystemParticipationV1_1.sol\":10580:10591  totalBurned */\n      sload(0x02)\n        /* \"token_eco_system_dev_contracts/contracts_ready_for_prod/Copy_TokenEcoSystemParticipationV1_1.sol\":10573:10591  return totalBurned */\n      swap1\n      pop\n        /* \"token_eco_system_dev_contracts/contracts_ready_for_prod/Copy_TokenEcoSystemParticipationV1_1.sol\":10425:10598  function getTotalBurnedTokens()... */\n      swap1\n      jump\t// out\n        /* \"token_eco_system_dev_contracts/contracts_ready_for_prod/Copy_TokenEcoSystemParticipationV1_1.sol\":4434:4607  function deactivate() public activated onlyAuthorized whenNotPaused {... */\n    tag_60:\n        /* \"token_eco_system_dev_contracts/contracts_ready_for_prod/Copy_TokenEcoSystemParticipationV1_1.sol\":3504:3505  0 */\n      0x00\n        /* \"token_eco_system_dev_contracts/contracts_ready_for_prod/Copy_TokenEcoSystemParticipationV1_1.sol\":3471:3506  acceptedSenderAddress != address(0) */\n      0xffffffffffffffffffffffffffffffffffffffff\n      and\n        /* \"token_eco_system_dev_contracts/contracts_ready_for_prod/Copy_TokenEcoSystemParticipationV1_1.sol\":3471:3492  acceptedSenderAddress */\n      0x01\n      0x00\n      swap1\n      sload\n      swap1\n      0x0100\n      exp\n      swap1\n      div\n      0xffffffffffffffffffffffffffffffffffffffff\n      and\n        /* \"token_eco_system_dev_contracts/contracts_ready_for_prod/Copy_TokenEcoSystemParticipationV1_1.sol\":3471:3506  acceptedSenderAddress != address(0) */\n      0xffffffffffffffffffffffffffffffffffffffff\n      and\n      sub\n        /* \"token_eco_system_dev_contracts/contracts_ready_for_prod/Copy_TokenEcoSystemParticipationV1_1.sol\":3463:3525  require(acceptedSenderAddress != address(0), \"Not activated!\") */\n      tag_194\n      jumpi\n      mload(0x40)\n      0x08c379a000000000000000000000000000000000000000000000000000000000\n      dup2\n      mstore\n      0x04\n      add\n      tag_195\n      swap1\n      tag_129\n      jump\t// in\n    tag_195:\n      mload(0x40)\n      dup1\n      swap2\n      sub\n      swap1\n      revert\n    tag_194:\n        /* \"token_eco_system_dev_contracts/contracts_ready_for_prod/Copy_TokenEcoSystemParticipationV1_1.sol\":3367:3388  acceptedSenderAddress */\n      0x01\n      0x00\n      swap1\n      sload\n      swap1\n      0x0100\n      exp\n      swap1\n      div\n      0xffffffffffffffffffffffffffffffffffffffff\n      and\n        /* \"token_eco_system_dev_contracts/contracts_ready_for_prod/Copy_TokenEcoSystemParticipationV1_1.sol\":3353:3388  msg.sender == acceptedSenderAddress */\n      0xffffffffffffffffffffffffffffffffffffffff\n      and\n        /* \"token_eco_system_dev_contracts/contracts_ready_for_prod/Copy_TokenEcoSystemParticipationV1_1.sol\":3353:3363  msg.sender */\n      caller\n        /* \"token_eco_system_dev_contracts/contracts_ready_for_prod/Copy_TokenEcoSystemParticipationV1_1.sol\":3353:3388  msg.sender == acceptedSenderAddress */\n      0xffffffffffffffffffffffffffffffffffffffff\n      and\n      eq\n        /* \"token_eco_system_dev_contracts/contracts_ready_for_prod/Copy_TokenEcoSystemParticipationV1_1.sol\":3345:3408  require(msg.sender == acceptedSenderAddress, \"Not Authorized!\") */\n      tag_197\n      jumpi\n      mload(0x40)\n      0x08c379a000000000000000000000000000000000000000000000000000000000\n      dup2\n      mstore\n      0x04\n      add\n      tag_198\n      swap1\n      tag_166\n      jump\t// in\n    tag_198:\n      mload(0x40)\n      dup1\n      swap2\n      sub\n      swap1\n      revert\n    tag_197:\n        /* \"@openzeppelin/contracts/security/Pausable.sol\":1239:1258  _requireNotPaused() */\n      tag_200\n        /* \"@openzeppelin/contracts/security/Pausable.sol\":1239:1256  _requireNotPaused */\n      tag_150\n        /* \"@openzeppelin/contracts/security/Pausable.sol\":1239:1258  _requireNotPaused() */\n      jump\t// in\n    tag_200:\n        /* \"token_eco_system_dev_contracts/contracts_ready_for_prod/Copy_TokenEcoSystemParticipationV1_1.sol\":4544:4545  0 */\n      0x00\n        /* \"token_eco_system_dev_contracts/contracts_ready_for_prod/Copy_TokenEcoSystemParticipationV1_1.sol\":4512:4533  acceptedSenderAddress */\n      0x01\n      0x00\n        /* \"token_eco_system_dev_contracts/contracts_ready_for_prod/Copy_TokenEcoSystemParticipationV1_1.sol\":4512:4546  acceptedSenderAddress = address(0) */\n      0x0100\n      exp\n      dup2\n      sload\n      dup2\n      0xffffffffffffffffffffffffffffffffffffffff\n      mul\n      not\n      and\n      swap1\n      dup4\n      0xffffffffffffffffffffffffffffffffffffffff\n      and\n      mul\n      or\n      swap1\n      sstore\n      pop\n        /* \"token_eco_system_dev_contracts/contracts_ready_for_prod/Copy_TokenEcoSystemParticipationV1_1.sol\":4572:4582  msg.sender */\n      caller\n        /* \"token_eco_system_dev_contracts/contracts_ready_for_prod/Copy_TokenEcoSystemParticipationV1_1.sol\":4561:4600  Deactivate(msg.sender, block.timestamp) */\n      0xffffffffffffffffffffffffffffffffffffffff\n      and\n      0x13b865880a841dc469b629159fa1e730fee99568b0decc6737fd688b36246381\n        /* \"token_eco_system_dev_contracts/contracts_ready_for_prod/Copy_TokenEcoSystemParticipationV1_1.sol\":4584:4599  block.timestamp */\n      timestamp\n        /* \"token_eco_system_dev_contracts/contracts_ready_for_prod/Copy_TokenEcoSystemParticipationV1_1.sol\":4561:4600  Deactivate(msg.sender, block.timestamp) */\n      mload(0x40)\n      tag_202\n      swap2\n      swap1\n      tag_58\n      jump\t// in\n    tag_202:\n      mload(0x40)\n      dup1\n      swap2\n      sub\n      swap1\n      log2\n        /* \"token_eco_system_dev_contracts/contracts_ready_for_prod/Copy_TokenEcoSystemParticipationV1_1.sol\":4434:4607  function deactivate() public activated onlyAuthorized whenNotPaused {... */\n      jump\t// out\n        /* \"@openzeppelin/contracts/security/Pausable.sol\":1615:1699  function paused() public view virtual returns (bool) {... */\n    tag_62:\n        /* \"@openzeppelin/contracts/security/Pausable.sol\":1662:1666  bool */\n      0x00\n        /* \"@openzeppelin/contracts/security/Pausable.sol\":1685:1692  _paused */\n      dup1\n      0x00\n      swap1\n      sload\n      swap1\n      0x0100\n      exp\n      swap1\n      div\n      0xff\n      and\n        /* \"@openzeppelin/contracts/security/Pausable.sol\":1678:1692  return _paused */\n      swap1\n      pop\n        /* \"@openzeppelin/contracts/security/Pausable.sol\":1615:1699  function paused() public view virtual returns (bool) {... */\n      swap1\n      jump\t// out\n        /* \"token_eco_system_dev_contracts/contracts_ready_for_prod/Copy_TokenEcoSystemParticipationV1_1.sol\":9890:10347  function bulkWithdraw(uint256 value, address[] calldata wallets, uint256[] calldata values) public onlyOwner returns (bool){... */\n    tag_68:\n        /* \"token_eco_system_dev_contracts/contracts_ready_for_prod/Copy_TokenEcoSystemParticipationV1_1.sol\":10008:10012  bool */\n      0x00\n        /* \"@openzeppelin/contracts/access/Ownable.sol\":1094:1107  _checkOwner() */\n      tag_205\n        /* \"@openzeppelin/contracts/access/Ownable.sol\":1094:1105  _checkOwner */\n      tag_125\n        /* \"@openzeppelin/contracts/access/Ownable.sol\":1094:1107  _checkOwner() */\n      jump\t// in\n    tag_205:\n        /* \"token_eco_system_dev_contracts/contracts_ready_for_prod/Copy_TokenEcoSystemParticipationV1_1.sol\":10053:10066  pointsBalance */\n      sload(0x04)\n        /* \"token_eco_system_dev_contracts/contracts_ready_for_prod/Copy_TokenEcoSystemParticipationV1_1.sol\":10044:10049  value */\n      dup7\n        /* \"token_eco_system_dev_contracts/contracts_ready_for_prod/Copy_TokenEcoSystemParticipationV1_1.sol\":10044:10066  value <= pointsBalance */\n      gt\n      iszero\n        /* \"token_eco_system_dev_contracts/contracts_ready_for_prod/Copy_TokenEcoSystemParticipationV1_1.sol\":10023:10147  require(... */\n      tag_207\n      jumpi\n      mload(0x40)\n      0x08c379a000000000000000000000000000000000000000000000000000000000\n      dup2\n      mstore\n      0x04\n      add\n      tag_208\n      swap1\n      tag_133\n      jump\t// in\n    tag_208:\n      mload(0x40)\n      dup1\n      swap2\n      sub\n      swap1\n      revert\n    tag_207:\n        /* \"token_eco_system_dev_contracts/contracts_ready_for_prod/Copy_TokenEcoSystemParticipationV1_1.sol\":10173:10174  0 */\n      0x00\n        /* \"token_eco_system_dev_contracts/contracts_ready_for_prod/Copy_TokenEcoSystemParticipationV1_1.sol\":10165:10170  value */\n      dup7\n        /* \"token_eco_system_dev_contracts/contracts_ready_for_prod/Copy_TokenEcoSystemParticipationV1_1.sol\":10165:10174  value > 0 */\n      gt\n        /* \"token_eco_system_dev_contracts/contracts_ready_for_prod/Copy_TokenEcoSystemParticipationV1_1.sol\":10157:10217  require(value > 0, \"Withdraw value must be greater than 0!\") */\n      tag_209\n      jumpi\n      mload(0x40)\n      0x08c379a000000000000000000000000000000000000000000000000000000000\n      dup2\n      mstore\n      0x04\n      add\n      tag_210\n      swap1\n      tag_136\n      jump\t// in\n    tag_210:\n      mload(0x40)\n      dup1\n      swap2\n      sub\n      swap1\n      revert\n    tag_209:\n        /* \"token_eco_system_dev_contracts/contracts_ready_for_prod/Copy_TokenEcoSystemParticipationV1_1.sol\":10245:10260  block.timestamp */\n      timestamp\n        /* \"token_eco_system_dev_contracts/contracts_ready_for_prod/Copy_TokenEcoSystemParticipationV1_1.sol\":10232:10285  BulkWithdraw(block.timestamp, value, wallets, values) */\n      0xa51baa456b088b2a3af4316418cb0348de6c44f3347cff948a3d5f5d91e57cd4\n        /* \"token_eco_system_dev_contracts/contracts_ready_for_prod/Copy_TokenEcoSystemParticipationV1_1.sol\":10262:10267  value */\n      dup8\n        /* \"token_eco_system_dev_contracts/contracts_ready_for_prod/Copy_TokenEcoSystemParticipationV1_1.sol\":10269:10276  wallets */\n      dup8\n      dup8\n        /* \"token_eco_system_dev_contracts/contracts_ready_for_prod/Copy_TokenEcoSystemParticipationV1_1.sol\":10278:10284  values */\n      dup8\n      dup8\n        /* \"token_eco_system_dev_contracts/contracts_ready_for_prod/Copy_TokenEcoSystemParticipationV1_1.sol\":10232:10285  BulkWithdraw(block.timestamp, value, wallets, values) */\n      mload(0x40)\n      tag_211\n      swap6\n      swap5\n      swap4\n      swap3\n      swap2\n      swap1\n      tag_212\n      jump\t// in\n    tag_211:\n      mload(0x40)\n      dup1\n      swap2\n      sub\n      swap1\n      log2\n        /* \"token_eco_system_dev_contracts/contracts_ready_for_prod/Copy_TokenEcoSystemParticipationV1_1.sol\":10312:10317  value */\n      dup6\n        /* \"token_eco_system_dev_contracts/contracts_ready_for_prod/Copy_TokenEcoSystemParticipationV1_1.sol\":10295:10308  pointsBalance */\n      0x04\n      0x00\n        /* \"token_eco_system_dev_contracts/contracts_ready_for_prod/Copy_TokenEcoSystemParticipationV1_1.sol\":10295:10317  pointsBalance -= value */\n      dup3\n      dup3\n      sload\n      tag_213\n      swap2\n      swap1\n      tag_139\n      jump\t// in\n    tag_213:\n      swap3\n      pop\n      pop\n      dup2\n      swap1\n      sstore\n      pop\n        /* \"token_eco_system_dev_contracts/contracts_ready_for_prod/Copy_TokenEcoSystemParticipationV1_1.sol\":10336:10340  true */\n      0x01\n        /* \"token_eco_system_dev_contracts/contracts_ready_for_prod/Copy_TokenEcoSystemParticipationV1_1.sol\":10329:10340  return true */\n      swap1\n      pop\n        /* \"token_eco_system_dev_contracts/contracts_ready_for_prod/Copy_TokenEcoSystemParticipationV1_1.sol\":9890:10347  function bulkWithdraw(uint256 value, address[] calldata wallets, uint256[] calldata values) public onlyOwner returns (bool){... */\n      swap6\n      swap5\n      pop\n      pop\n      pop\n      pop\n      pop\n      jump\t// out\n        /* \"token_eco_system_dev_contracts/contracts_ready_for_prod/Copy_TokenEcoSystemParticipationV1_1.sol\":9148:9442  function transferOfToken(... */\n    tag_73:\n        /* \"token_eco_system_dev_contracts/contracts_ready_for_prod/Copy_TokenEcoSystemParticipationV1_1.sol\":9285:9289  bool */\n      0x00\n        /* \"@openzeppelin/contracts/access/Ownable.sol\":1094:1107  _checkOwner() */\n      tag_215\n        /* \"@openzeppelin/contracts/access/Ownable.sol\":1094:1105  _checkOwner */\n      tag_125\n        /* \"@openzeppelin/contracts/access/Ownable.sol\":1094:1107  _checkOwner() */\n      jump\t// in\n    tag_215:\n        /* \"token_eco_system_dev_contracts/contracts_ready_for_prod/Copy_TokenEcoSystemParticipationV1_1.sol\":9341:9347  amount */\n      dup2\n        /* \"token_eco_system_dev_contracts/contracts_ready_for_prod/Copy_TokenEcoSystemParticipationV1_1.sol\":9309:9337  balanceOfToken(tokenAddress) */\n      tag_217\n        /* \"token_eco_system_dev_contracts/contracts_ready_for_prod/Copy_TokenEcoSystemParticipationV1_1.sol\":9324:9336  tokenAddress */\n      dup6\n        /* \"token_eco_system_dev_contracts/contracts_ready_for_prod/Copy_TokenEcoSystemParticipationV1_1.sol\":9309:9323  balanceOfToken */\n      tag_107\n        /* \"token_eco_system_dev_contracts/contracts_ready_for_prod/Copy_TokenEcoSystemParticipationV1_1.sol\":9309:9337  balanceOfToken(tokenAddress) */\n      jump\t// in\n    tag_217:\n        /* \"token_eco_system_dev_contracts/contracts_ready_for_prod/Copy_TokenEcoSystemParticipationV1_1.sol\":9309:9347  balanceOfToken(tokenAddress) >= amount */\n      lt\n      iszero\n        /* \"token_eco_system_dev_contracts/contracts_ready_for_prod/Copy_TokenEcoSystemParticipationV1_1.sol\":9301:9371  require(balanceOfToken(tokenAddress) >= amount, \"Not enough balance!\") */\n      tag_218\n      jumpi\n      mload(0x40)\n      0x08c379a000000000000000000000000000000000000000000000000000000000\n      dup2\n      mstore\n      0x04\n      add\n      tag_219\n      swap1\n      tag_220\n      jump\t// in\n    tag_219:\n      mload(0x40)\n      dup1\n      swap2\n      sub\n      swap1\n      revert\n    tag_218:\n        /* \"token_eco_system_dev_contracts/contracts_ready_for_prod/Copy_TokenEcoSystemParticipationV1_1.sol\":9395:9407  tokenAddress */\n      dup4\n        /* \"token_eco_system_dev_contracts/contracts_ready_for_prod/Copy_TokenEcoSystemParticipationV1_1.sol\":9388:9417  IERC20(tokenAddress).transfer */\n      0xffffffffffffffffffffffffffffffffffffffff\n      and\n      0xa9059cbb\n        /* \"token_eco_system_dev_contracts/contracts_ready_for_prod/Copy_TokenEcoSystemParticipationV1_1.sol\":9418:9426  receiver */\n      dup5\n        /* \"token_eco_system_dev_contracts/contracts_ready_for_prod/Copy_TokenEcoSystemParticipationV1_1.sol\":9428:9434  amount */\n      dup5\n        /* \"token_eco_system_dev_contracts/contracts_ready_for_prod/Copy_TokenEcoSystemParticipationV1_1.sol\":9388:9435  IERC20(tokenAddress).transfer(receiver, amount) */\n      mload(0x40)\n      dup4\n      0xffffffff\n      and\n      0xe0\n      shl\n      dup2\n      mstore\n      0x04\n      add\n      tag_221\n      swap3\n      swap2\n      swap1\n      tag_222\n      jump\t// in\n    tag_221:\n      0x20\n      mload(0x40)\n      dup1\n      dup4\n      sub\n      dup2\n      0x00\n      dup8\n      gas\n      call\n      iszero\n      dup1\n      iszero\n      tag_224\n      jumpi\n      returndatasize\n      0x00\n      dup1\n      returndatacopy\n      revert(0x00, returndatasize)\n    tag_224:\n      pop\n      pop\n      pop\n      pop\n      mload(0x40)\n      returndatasize\n      not(0x1f)\n      0x1f\n      dup3\n      add\n      and\n      dup3\n      add\n      dup1\n      0x40\n      mstore\n      pop\n      dup2\n      add\n      swap1\n      tag_225\n      swap2\n      swap1\n      tag_226\n      jump\t// in\n    tag_225:\n        /* \"token_eco_system_dev_contracts/contracts_ready_for_prod/Copy_TokenEcoSystemParticipationV1_1.sol\":9381:9435  return IERC20(tokenAddress).transfer(receiver, amount) */\n      swap1\n      pop\n        /* \"token_eco_system_dev_contracts/contracts_ready_for_prod/Copy_TokenEcoSystemParticipationV1_1.sol\":9148:9442  function transferOfToken(... */\n      swap4\n      swap3\n      pop\n      pop\n      pop\n      jump\t// out\n        /* \"@openzeppelin/contracts/access/Ownable.sol\":1831:1932  function renounceOwnership() public virtual onlyOwner {... */\n    tag_76:\n        /* \"@openzeppelin/contracts/access/Ownable.sol\":1094:1107  _checkOwner() */\n      tag_228\n        /* \"@openzeppelin/contracts/access/Ownable.sol\":1094:1105  _checkOwner */\n      tag_125\n        /* \"@openzeppelin/contracts/access/Ownable.sol\":1094:1107  _checkOwner() */\n      jump\t// in\n    tag_228:\n        /* \"@openzeppelin/contracts/access/Ownable.sol\":1895:1925  _transferOwnership(address(0)) */\n      tag_230\n        /* \"@openzeppelin/contracts/access/Ownable.sol\":1922:1923  0 */\n      0x00\n        /* \"@openzeppelin/contracts/access/Ownable.sol\":1895:1913  _transferOwnership */\n      tag_231\n        /* \"@openzeppelin/contracts/access/Ownable.sol\":1895:1925  _transferOwnership(address(0)) */\n      jump\t// in\n    tag_230:\n        /* \"@openzeppelin/contracts/access/Ownable.sol\":1831:1932  function renounceOwnership() public virtual onlyOwner {... */\n      jump\t// out\n        /* \"token_eco_system_dev_contracts/contracts_ready_for_prod/Copy_TokenEcoSystemParticipationV1_1.sol\":8617:8722  function balanceOf() public view returns (uint256) {... */\n    tag_78:\n        /* \"token_eco_system_dev_contracts/contracts_ready_for_prod/Copy_TokenEcoSystemParticipationV1_1.sol\":8659:8666  uint256 */\n      0x00\n        /* \"token_eco_system_dev_contracts/contracts_ready_for_prod/Copy_TokenEcoSystemParticipationV1_1.sol\":8685:8690  token */\n      immutable(\"0x448072f8ce0e9d09a2030ee35ba0d03fccbd0c61c3623f421061fbafdf5a67a9\")\n        /* \"token_eco_system_dev_contracts/contracts_ready_for_prod/Copy_TokenEcoSystemParticipationV1_1.sol\":8685:8700  token.balanceOf */\n      0xffffffffffffffffffffffffffffffffffffffff\n      and\n      0x70a08231\n        /* \"token_eco_system_dev_contracts/contracts_ready_for_prod/Copy_TokenEcoSystemParticipationV1_1.sol\":8709:8713  this */\n      address\n        /* \"token_eco_system_dev_contracts/contracts_ready_for_prod/Copy_TokenEcoSystemParticipationV1_1.sol\":8685:8715  token.balanceOf(address(this)) */\n      mload(0x40)\n      dup3\n      0xffffffff\n      and\n      0xe0\n      shl\n      dup2\n      mstore\n      0x04\n      add\n      tag_233\n      swap2\n      swap1\n      tag_88\n      jump\t// in\n    tag_233:\n      0x20\n      mload(0x40)\n      dup1\n      dup4\n      sub\n      dup2\n      dup7\n      gas\n      staticcall\n      iszero\n      dup1\n      iszero\n      tag_235\n      jumpi\n      returndatasize\n      0x00\n      dup1\n      returndatacopy\n      revert(0x00, returndatasize)\n    tag_235:\n      pop\n      pop\n      pop\n      pop\n      mload(0x40)\n      returndatasize\n      not(0x1f)\n      0x1f\n      dup3\n      add\n      and\n      dup3\n      add\n      dup1\n      0x40\n      mstore\n      pop\n      dup2\n      add\n      swap1\n      tag_236\n      swap2\n      swap1\n      tag_237\n      jump\t// in\n    tag_236:\n        /* \"token_eco_system_dev_contracts/contracts_ready_for_prod/Copy_TokenEcoSystemParticipationV1_1.sol\":8678:8715  return token.balanceOf(address(this)) */\n      swap1\n      pop\n        /* \"token_eco_system_dev_contracts/contracts_ready_for_prod/Copy_TokenEcoSystemParticipationV1_1.sol\":8617:8722  function balanceOf() public view returns (uint256) {... */\n      swap1\n      jump\t// out\n        /* \"token_eco_system_dev_contracts/contracts_ready_for_prod/Copy_TokenEcoSystemParticipationV1_1.sol\":6730:7074  function calculateAmount(... */\n    tag_83:\n        /* \"token_eco_system_dev_contracts/contracts_ready_for_prod/Copy_TokenEcoSystemParticipationV1_1.sol\":6864:6871  uint256 */\n      0x00\n        /* \"@openzeppelin/contracts/access/Ownable.sol\":1094:1107  _checkOwner() */\n      tag_239\n        /* \"@openzeppelin/contracts/access/Ownable.sol\":1094:1105  _checkOwner */\n      tag_125\n        /* \"@openzeppelin/contracts/access/Ownable.sol\":1094:1107  _checkOwner() */\n      jump\t// in\n    tag_239:\n        /* \"token_eco_system_dev_contracts/contracts_ready_for_prod/Copy_TokenEcoSystemParticipationV1_1.sol\":6911:6912  0 */\n      0x00\n        /* \"token_eco_system_dev_contracts/contracts_ready_for_prod/Copy_TokenEcoSystemParticipationV1_1.sol\":6904:6908  rate */\n      dup4\n        /* \"token_eco_system_dev_contracts/contracts_ready_for_prod/Copy_TokenEcoSystemParticipationV1_1.sol\":6904:6912  rate > 0 */\n      gt\n        /* \"token_eco_system_dev_contracts/contracts_ready_for_prod/Copy_TokenEcoSystemParticipationV1_1.sol\":6904:6926  rate > 0 && points > 0 */\n      dup1\n      iszero\n      tag_241\n      jumpi\n      pop\n        /* \"token_eco_system_dev_contracts/contracts_ready_for_prod/Copy_TokenEcoSystemParticipationV1_1.sol\":6925:6926  0 */\n      0x00\n        /* \"token_eco_system_dev_contracts/contracts_ready_for_prod/Copy_TokenEcoSystemParticipationV1_1.sol\":6916:6922  points */\n      dup5\n        /* \"token_eco_system_dev_contracts/contracts_ready_for_prod/Copy_TokenEcoSystemParticipationV1_1.sol\":6916:6926  points > 0 */\n      gt\n        /* \"token_eco_system_dev_contracts/contracts_ready_for_prod/Copy_TokenEcoSystemParticipationV1_1.sol\":6904:6926  rate > 0 && points > 0 */\n    tag_241:\n        /* \"token_eco_system_dev_contracts/contracts_ready_for_prod/Copy_TokenEcoSystemParticipationV1_1.sol\":6904:6942  rate > 0 && points > 0 && decimals > 0 */\n      dup1\n      iszero\n      tag_242\n      jumpi\n      pop\n        /* \"token_eco_system_dev_contracts/contracts_ready_for_prod/Copy_TokenEcoSystemParticipationV1_1.sol\":6941:6942  0 */\n      0x00\n        /* \"token_eco_system_dev_contracts/contracts_ready_for_prod/Copy_TokenEcoSystemParticipationV1_1.sol\":6930:6938  decimals */\n      dup3\n        /* \"token_eco_system_dev_contracts/contracts_ready_for_prod/Copy_TokenEcoSystemParticipationV1_1.sol\":6930:6942  decimals > 0 */\n      gt\n        /* \"token_eco_system_dev_contracts/contracts_ready_for_prod/Copy_TokenEcoSystemParticipationV1_1.sol\":6904:6942  rate > 0 && points > 0 && decimals > 0 */\n    tag_242:\n        /* \"token_eco_system_dev_contracts/contracts_ready_for_prod/Copy_TokenEcoSystemParticipationV1_1.sol\":6883:7020  require(... */\n      tag_243\n      jumpi\n      mload(0x40)\n      0x08c379a000000000000000000000000000000000000000000000000000000000\n      dup2\n      mstore\n      0x04\n      add\n      tag_244\n      swap1\n      tag_245\n      jump\t// in\n    tag_244:\n      mload(0x40)\n      dup1\n      swap2\n      sub\n      swap1\n      revert\n    tag_243:\n        /* \"token_eco_system_dev_contracts/contracts_ready_for_prod/Copy_TokenEcoSystemParticipationV1_1.sol\":7063:7067  rate */\n      dup3\n        /* \"token_eco_system_dev_contracts/contracts_ready_for_prod/Copy_TokenEcoSystemParticipationV1_1.sol\":7051:7059  decimals */\n      dup3\n        /* \"token_eco_system_dev_contracts/contracts_ready_for_prod/Copy_TokenEcoSystemParticipationV1_1.sol\":7047:7049  10 */\n      0x0a\n        /* \"token_eco_system_dev_contracts/contracts_ready_for_prod/Copy_TokenEcoSystemParticipationV1_1.sol\":7047:7059  10**decimals */\n      tag_246\n      swap2\n      swap1\n      tag_247\n      jump\t// in\n    tag_246:\n        /* \"token_eco_system_dev_contracts/contracts_ready_for_prod/Copy_TokenEcoSystemParticipationV1_1.sol\":7038:7044  points */\n      dup6\n        /* \"token_eco_system_dev_contracts/contracts_ready_for_prod/Copy_TokenEcoSystemParticipationV1_1.sol\":7038:7059  points * 10**decimals */\n      tag_248\n      swap2\n      swap1\n      tag_249\n      jump\t// in\n    tag_248:\n        /* \"token_eco_system_dev_contracts/contracts_ready_for_prod/Copy_TokenEcoSystemParticipationV1_1.sol\":7037:7067  (points * 10**decimals) / rate */\n      tag_250\n      swap2\n      swap1\n      tag_251\n      jump\t// in\n    tag_250:\n        /* \"token_eco_system_dev_contracts/contracts_ready_for_prod/Copy_TokenEcoSystemParticipationV1_1.sol\":7030:7067  return (points * 10**decimals) / rate */\n      swap1\n      pop\n        /* \"token_eco_system_dev_contracts/contracts_ready_for_prod/Copy_TokenEcoSystemParticipationV1_1.sol\":6730:7074  function calculateAmount(... */\n      swap4\n      swap3\n      pop\n      pop\n      pop\n      jump\t// out\n        /* \"@openzeppelin/contracts/access/Ownable.sol\":1201:1286  function owner() public view virtual returns (address) {... */\n    tag_86:\n        /* \"@openzeppelin/contracts/access/Ownable.sol\":1247:1254  address */\n      0x00\n        /* \"@openzeppelin/contracts/access/Ownable.sol\":1273:1279  _owner */\n      dup1\n      0x01\n      swap1\n      sload\n      swap1\n      0x0100\n      exp\n      swap1\n      div\n      0xffffffffffffffffffffffffffffffffffffffff\n      and\n        /* \"@openzeppelin/contracts/access/Ownable.sol\":1266:1279  return _owner */\n      swap1\n      pop\n        /* \"@openzeppelin/contracts/access/Ownable.sol\":1201:1286  function owner() public view virtual returns (address) {... */\n      swap1\n      jump\t// out\n        /* \"token_eco_system_dev_contracts/contracts_ready_for_prod/Copy_TokenEcoSystemParticipationV1_1.sol\":10918:11089  function getPointsBalance()... */\n    tag_90:\n        /* \"token_eco_system_dev_contracts/contracts_ready_for_prod/Copy_TokenEcoSystemParticipationV1_1.sol\":11039:11046  uint256 */\n      0x00\n        /* \"token_eco_system_dev_contracts/contracts_ready_for_prod/Copy_TokenEcoSystemParticipationV1_1.sol\":3504:3505  0 */\n      dup1\n        /* \"token_eco_system_dev_contracts/contracts_ready_for_prod/Copy_TokenEcoSystemParticipationV1_1.sol\":3471:3506  acceptedSenderAddress != address(0) */\n      0xffffffffffffffffffffffffffffffffffffffff\n      and\n        /* \"token_eco_system_dev_contracts/contracts_ready_for_prod/Copy_TokenEcoSystemParticipationV1_1.sol\":3471:3492  acceptedSenderAddress */\n      0x01\n      0x00\n      swap1\n      sload\n      swap1\n      0x0100\n      exp\n      swap1\n      div\n      0xffffffffffffffffffffffffffffffffffffffff\n      and\n        /* \"token_eco_system_dev_contracts/contracts_ready_for_prod/Copy_TokenEcoSystemParticipationV1_1.sol\":3471:3506  acceptedSenderAddress != address(0) */\n      0xffffffffffffffffffffffffffffffffffffffff\n      and\n      sub\n        /* \"token_eco_system_dev_contracts/contracts_ready_for_prod/Copy_TokenEcoSystemParticipationV1_1.sol\":3463:3525  require(acceptedSenderAddress != address(0), \"Not activated!\") */\n      tag_254\n      jumpi\n      mload(0x40)\n      0x08c379a000000000000000000000000000000000000000000000000000000000\n      dup2\n      mstore\n      0x04\n      add\n      tag_255\n      swap1\n      tag_129\n      jump\t// in\n    tag_255:\n      mload(0x40)\n      dup1\n      swap2\n      sub\n      swap1\n      revert\n    tag_254:\n        /* \"token_eco_system_dev_contracts/contracts_ready_for_prod/Copy_TokenEcoSystemParticipationV1_1.sol\":3628:3649  acceptedSenderAddress */\n      0x01\n      0x00\n      swap1\n      sload\n      swap1\n      0x0100\n      exp\n      swap1\n      div\n      0xffffffffffffffffffffffffffffffffffffffff\n      and\n        /* \"token_eco_system_dev_contracts/contracts_ready_for_prod/Copy_TokenEcoSystemParticipationV1_1.sol\":3614:3649  msg.sender == acceptedSenderAddress */\n      0xffffffffffffffffffffffffffffffffffffffff\n      and\n        /* \"token_eco_system_dev_contracts/contracts_ready_for_prod/Copy_TokenEcoSystemParticipationV1_1.sol\":3614:3624  msg.sender */\n      caller\n        /* \"token_eco_system_dev_contracts/contracts_ready_for_prod/Copy_TokenEcoSystemParticipationV1_1.sol\":3614:3649  msg.sender == acceptedSenderAddress */\n      0xffffffffffffffffffffffffffffffffffffffff\n      and\n      eq\n        /* \"token_eco_system_dev_contracts/contracts_ready_for_prod/Copy_TokenEcoSystemParticipationV1_1.sol\":3614:3674  msg.sender == acceptedSenderAddress || msg.sender == owner() */\n      dup1\n      tag_257\n      jumpi\n      pop\n        /* \"token_eco_system_dev_contracts/contracts_ready_for_prod/Copy_TokenEcoSystemParticipationV1_1.sol\":3667:3674  owner() */\n      tag_258\n        /* \"token_eco_system_dev_contracts/contracts_ready_for_prod/Copy_TokenEcoSystemParticipationV1_1.sol\":3667:3672  owner */\n      tag_86\n        /* \"token_eco_system_dev_contracts/contracts_ready_for_prod/Copy_TokenEcoSystemParticipationV1_1.sol\":3667:3674  owner() */\n      jump\t// in\n    tag_258:\n        /* \"token_eco_system_dev_contracts/contracts_ready_for_prod/Copy_TokenEcoSystemParticipationV1_1.sol\":3653:3674  msg.sender == owner() */\n      0xffffffffffffffffffffffffffffffffffffffff\n      and\n        /* \"token_eco_system_dev_contracts/contracts_ready_for_prod/Copy_TokenEcoSystemParticipationV1_1.sol\":3653:3663  msg.sender */\n      caller\n        /* \"token_eco_system_dev_contracts/contracts_ready_for_prod/Copy_TokenEcoSystemParticipationV1_1.sol\":3653:3674  msg.sender == owner() */\n      0xffffffffffffffffffffffffffffffffffffffff\n      and\n      eq\n        /* \"token_eco_system_dev_contracts/contracts_ready_for_prod/Copy_TokenEcoSystemParticipationV1_1.sol\":3614:3674  msg.sender == acceptedSenderAddress || msg.sender == owner() */\n    tag_257:\n        /* \"token_eco_system_dev_contracts/contracts_ready_for_prod/Copy_TokenEcoSystemParticipationV1_1.sol\":3592:3765  require(... */\n      tag_259\n      jumpi\n      mload(0x40)\n      0x08c379a000000000000000000000000000000000000000000000000000000000\n      dup2\n      mstore\n      0x04\n      add\n      tag_260\n      swap1\n      tag_191\n      jump\t// in\n    tag_260:\n      mload(0x40)\n      dup1\n      swap2\n      sub\n      swap1\n      revert\n    tag_259:\n        /* \"token_eco_system_dev_contracts/contracts_ready_for_prod/Copy_TokenEcoSystemParticipationV1_1.sol\":11069:11082  pointsBalance */\n      sload(0x04)\n        /* \"token_eco_system_dev_contracts/contracts_ready_for_prod/Copy_TokenEcoSystemParticipationV1_1.sol\":11062:11082  return pointsBalance */\n      swap1\n      pop\n        /* \"token_eco_system_dev_contracts/contracts_ready_for_prod/Copy_TokenEcoSystemParticipationV1_1.sol\":10918:11089  function getPointsBalance()... */\n      swap1\n      jump\t// out\n        /* \"token_eco_system_dev_contracts/contracts_ready_for_prod/Copy_TokenEcoSystemParticipationV1_1.sol\":7080:7223  function checkAllowance() public onlyOwnerOrAuthorized view returns (uint256){... */\n    tag_93:\n        /* \"token_eco_system_dev_contracts/contracts_ready_for_prod/Copy_TokenEcoSystemParticipationV1_1.sol\":7149:7156  uint256 */\n      0x00\n        /* \"token_eco_system_dev_contracts/contracts_ready_for_prod/Copy_TokenEcoSystemParticipationV1_1.sol\":3628:3649  acceptedSenderAddress */\n      0x01\n      0x00\n      swap1\n      sload\n      swap1\n      0x0100\n      exp\n      swap1\n      div\n      0xffffffffffffffffffffffffffffffffffffffff\n      and\n        /* \"token_eco_system_dev_contracts/contracts_ready_for_prod/Copy_TokenEcoSystemParticipationV1_1.sol\":3614:3649  msg.sender == acceptedSenderAddress */\n      0xffffffffffffffffffffffffffffffffffffffff\n      and\n        /* \"token_eco_system_dev_contracts/contracts_ready_for_prod/Copy_TokenEcoSystemParticipationV1_1.sol\":3614:3624  msg.sender */\n      caller\n        /* \"token_eco_system_dev_contracts/contracts_ready_for_prod/Copy_TokenEcoSystemParticipationV1_1.sol\":3614:3649  msg.sender == acceptedSenderAddress */\n      0xffffffffffffffffffffffffffffffffffffffff\n      and\n      eq\n        /* \"token_eco_system_dev_contracts/contracts_ready_for_prod/Copy_TokenEcoSystemParticipationV1_1.sol\":3614:3674  msg.sender == acceptedSenderAddress || msg.sender == owner() */\n      dup1\n      tag_263\n      jumpi\n      pop\n        /* \"token_eco_system_dev_contracts/contracts_ready_for_prod/Copy_TokenEcoSystemParticipationV1_1.sol\":3667:3674  owner() */\n      tag_264\n        /* \"token_eco_system_dev_contracts/contracts_ready_for_prod/Copy_TokenEcoSystemParticipationV1_1.sol\":3667:3672  owner */\n      tag_86\n        /* \"token_eco_system_dev_contracts/contracts_ready_for_prod/Copy_TokenEcoSystemParticipationV1_1.sol\":3667:3674  owner() */\n      jump\t// in\n    tag_264:\n        /* \"token_eco_system_dev_contracts/contracts_ready_for_prod/Copy_TokenEcoSystemParticipationV1_1.sol\":3653:3674  msg.sender == owner() */\n      0xffffffffffffffffffffffffffffffffffffffff\n      and\n        /* \"token_eco_system_dev_contracts/contracts_ready_for_prod/Copy_TokenEcoSystemParticipationV1_1.sol\":3653:3663  msg.sender */\n      caller\n        /* \"token_eco_system_dev_contracts/contracts_ready_for_prod/Copy_TokenEcoSystemParticipationV1_1.sol\":3653:3674  msg.sender == owner() */\n      0xffffffffffffffffffffffffffffffffffffffff\n      and\n      eq\n        /* \"token_eco_system_dev_contracts/contracts_ready_for_prod/Copy_TokenEcoSystemParticipationV1_1.sol\":3614:3674  msg.sender == acceptedSenderAddress || msg.sender == owner() */\n    tag_263:\n        /* \"token_eco_system_dev_contracts/contracts_ready_for_prod/Copy_TokenEcoSystemParticipationV1_1.sol\":3592:3765  require(... */\n      tag_265\n      jumpi\n      mload(0x40)\n      0x08c379a000000000000000000000000000000000000000000000000000000000\n      dup2\n      mstore\n      0x04\n      add\n      tag_266\n      swap1\n      tag_191\n      jump\t// in\n    tag_266:\n      mload(0x40)\n      dup1\n      swap2\n      sub\n      swap1\n      revert\n    tag_265:\n        /* \"token_eco_system_dev_contracts/contracts_ready_for_prod/Copy_TokenEcoSystemParticipationV1_1.sol\":7174:7179  token */\n      immutable(\"0x448072f8ce0e9d09a2030ee35ba0d03fccbd0c61c3623f421061fbafdf5a67a9\")\n        /* \"token_eco_system_dev_contracts/contracts_ready_for_prod/Copy_TokenEcoSystemParticipationV1_1.sol\":7174:7189  token.allowance */\n      0xffffffffffffffffffffffffffffffffffffffff\n      and\n      0xdd62ed3e\n        /* \"token_eco_system_dev_contracts/contracts_ready_for_prod/Copy_TokenEcoSystemParticipationV1_1.sol\":7190:7200  msg.sender */\n      caller\n        /* \"token_eco_system_dev_contracts/contracts_ready_for_prod/Copy_TokenEcoSystemParticipationV1_1.sol\":7210:7214  this */\n      address\n        /* \"token_eco_system_dev_contracts/contracts_ready_for_prod/Copy_TokenEcoSystemParticipationV1_1.sol\":7174:7216  token.allowance(msg.sender, address(this)) */\n      mload(0x40)\n      dup4\n      0xffffffff\n      and\n      0xe0\n      shl\n      dup2\n      mstore\n      0x04\n      add\n      tag_268\n      swap3\n      swap2\n      swap1\n      tag_52\n      jump\t// in\n    tag_268:\n      0x20\n      mload(0x40)\n      dup1\n      dup4\n      sub\n      dup2\n      dup7\n      gas\n      staticcall\n      iszero\n      dup1\n      iszero\n      tag_270\n      jumpi\n      returndatasize\n      0x00\n      dup1\n      returndatacopy\n      revert(0x00, returndatasize)\n    tag_270:\n      pop\n      pop\n      pop\n      pop\n      mload(0x40)\n      returndatasize\n      not(0x1f)\n      0x1f\n      dup3\n      add\n      and\n      dup3\n      add\n      dup1\n      0x40\n      mstore\n      pop\n      dup2\n      add\n      swap1\n      tag_271\n      swap2\n      swap1\n      tag_237\n      jump\t// in\n    tag_271:\n        /* \"token_eco_system_dev_contracts/contracts_ready_for_prod/Copy_TokenEcoSystemParticipationV1_1.sol\":7167:7216  return token.allowance(msg.sender, address(this)) */\n      swap1\n      pop\n        /* \"token_eco_system_dev_contracts/contracts_ready_for_prod/Copy_TokenEcoSystemParticipationV1_1.sol\":7080:7223  function checkAllowance() public onlyOwnerOrAuthorized view returns (uint256){... */\n      swap1\n      jump\t// out\n        /* \"token_eco_system_dev_contracts/contracts_ready_for_prod/Copy_TokenEcoSystemParticipationV1_1.sol\":10697:10876  function getTotalPointsGenerated()... */\n    tag_96:\n        /* \"token_eco_system_dev_contracts/contracts_ready_for_prod/Copy_TokenEcoSystemParticipationV1_1.sol\":10825:10832  uint256 */\n      0x00\n        /* \"token_eco_system_dev_contracts/contracts_ready_for_prod/Copy_TokenEcoSystemParticipationV1_1.sol\":3504:3505  0 */\n      dup1\n        /* \"token_eco_system_dev_contracts/contracts_ready_for_prod/Copy_TokenEcoSystemParticipationV1_1.sol\":3471:3506  acceptedSenderAddress != address(0) */\n      0xffffffffffffffffffffffffffffffffffffffff\n      and\n        /* \"token_eco_system_dev_contracts/contracts_ready_for_prod/Copy_TokenEcoSystemParticipationV1_1.sol\":3471:3492  acceptedSenderAddress */\n      0x01\n      0x00\n      swap1\n      sload\n      swap1\n      0x0100\n      exp\n      swap1\n      div\n      0xffffffffffffffffffffffffffffffffffffffff\n      and\n        /* \"token_eco_system_dev_contracts/contracts_ready_for_prod/Copy_TokenEcoSystemParticipationV1_1.sol\":3471:3506  acceptedSenderAddress != address(0) */\n      0xffffffffffffffffffffffffffffffffffffffff\n      and\n      sub\n        /* \"token_eco_system_dev_contracts/contracts_ready_for_prod/Copy_TokenEcoSystemParticipationV1_1.sol\":3463:3525  require(acceptedSenderAddress != address(0), \"Not activated!\") */\n      tag_273\n      jumpi\n      mload(0x40)\n      0x08c379a000000000000000000000000000000000000000000000000000000000\n      dup2\n      mstore\n      0x04\n      add\n      tag_274\n      swap1\n      tag_129\n      jump\t// in\n    tag_274:\n      mload(0x40)\n      dup1\n      swap2\n      sub\n      swap1\n      revert\n    tag_273:\n        /* \"token_eco_system_dev_contracts/contracts_ready_for_prod/Copy_TokenEcoSystemParticipationV1_1.sol\":3628:3649  acceptedSenderAddress */\n      0x01\n      0x00\n      swap1\n      sload\n      swap1\n      0x0100\n      exp\n      swap1\n      div\n      0xffffffffffffffffffffffffffffffffffffffff\n      and\n        /* \"token_eco_system_dev_contracts/contracts_ready_for_prod/Copy_TokenEcoSystemParticipationV1_1.sol\":3614:3649  msg.sender == acceptedSenderAddress */\n      0xffffffffffffffffffffffffffffffffffffffff\n      and\n        /* \"token_eco_system_dev_contracts/contracts_ready_for_prod/Copy_TokenEcoSystemParticipationV1_1.sol\":3614:3624  msg.sender */\n      caller\n        /* \"token_eco_system_dev_contracts/contracts_ready_for_prod/Copy_TokenEcoSystemParticipationV1_1.sol\":3614:3649  msg.sender == acceptedSenderAddress */\n      0xffffffffffffffffffffffffffffffffffffffff\n      and\n      eq\n        /* \"token_eco_system_dev_contracts/contracts_ready_for_prod/Copy_TokenEcoSystemParticipationV1_1.sol\":3614:3674  msg.sender == acceptedSenderAddress || msg.sender == owner() */\n      dup1\n      tag_276\n      jumpi\n      pop\n        /* \"token_eco_system_dev_contracts/contracts_ready_for_prod/Copy_TokenEcoSystemParticipationV1_1.sol\":3667:3674  owner() */\n      tag_277\n        /* \"token_eco_system_dev_contracts/contracts_ready_for_prod/Copy_TokenEcoSystemParticipationV1_1.sol\":3667:3672  owner */\n      tag_86\n        /* \"token_eco_system_dev_contracts/contracts_ready_for_prod/Copy_TokenEcoSystemParticipationV1_1.sol\":3667:3674  owner() */\n      jump\t// in\n    tag_277:\n        /* \"token_eco_system_dev_contracts/contracts_ready_for_prod/Copy_TokenEcoSystemParticipationV1_1.sol\":3653:3674  msg.sender == owner() */\n      0xffffffffffffffffffffffffffffffffffffffff\n      and\n        /* \"token_eco_system_dev_contracts/contracts_ready_for_prod/Copy_TokenEcoSystemParticipationV1_1.sol\":3653:3663  msg.sender */\n      caller\n        /* \"token_eco_system_dev_contracts/contracts_ready_for_prod/Copy_TokenEcoSystemParticipationV1_1.sol\":3653:3674  msg.sender == owner() */\n      0xffffffffffffffffffffffffffffffffffffffff\n      and\n      eq\n        /* \"token_eco_system_dev_contracts/contracts_ready_for_prod/Copy_TokenEcoSystemParticipationV1_1.sol\":3614:3674  msg.sender == acceptedSenderAddress || msg.sender == owner() */\n    tag_276:\n        /* \"token_eco_system_dev_contracts/contracts_ready_for_prod/Copy_TokenEcoSystemParticipationV1_1.sol\":3592:3765  require(... */\n      tag_278\n      jumpi\n      mload(0x40)\n      0x08c379a000000000000000000000000000000000000000000000000000000000\n      dup2\n      mstore\n      0x04\n      add\n      tag_279\n      swap1\n      tag_191\n      jump\t// in\n    tag_279:\n      mload(0x40)\n      dup1\n      swap2\n      sub\n      swap1\n      revert\n    tag_278:\n        /* \"token_eco_system_dev_contracts/contracts_ready_for_prod/Copy_TokenEcoSystemParticipationV1_1.sol\":10855:10869  totalConverted */\n      sload(0x03)\n        /* \"token_eco_system_dev_contracts/contracts_ready_for_prod/Copy_TokenEcoSystemParticipationV1_1.sol\":10848:10869  return totalConverted */\n      swap1\n      pop\n        /* \"token_eco_system_dev_contracts/contracts_ready_for_prod/Copy_TokenEcoSystemParticipationV1_1.sol\":10697:10876  function getTotalPointsGenerated()... */\n      swap1\n      jump\t// out\n        /* \"token_eco_system_dev_contracts/contracts_ready_for_prod/Copy_TokenEcoSystemParticipationV1_1.sol\":11472:11673  function getTokenInfo()... */\n    tag_99:\n        /* \"token_eco_system_dev_contracts/contracts_ready_for_prod/Copy_TokenEcoSystemParticipationV1_1.sol\":11589:11596  address */\n      0x00\n        /* \"token_eco_system_dev_contracts/contracts_ready_for_prod/Copy_TokenEcoSystemParticipationV1_1.sol\":11598:11611  string memory */\n      0x60\n        /* \"token_eco_system_dev_contracts/contracts_ready_for_prod/Copy_TokenEcoSystemParticipationV1_1.sol\":3504:3505  0 */\n      0x00\n        /* \"token_eco_system_dev_contracts/contracts_ready_for_prod/Copy_TokenEcoSystemParticipationV1_1.sol\":3471:3506  acceptedSenderAddress != address(0) */\n      0xffffffffffffffffffffffffffffffffffffffff\n      and\n        /* \"token_eco_system_dev_contracts/contracts_ready_for_prod/Copy_TokenEcoSystemParticipationV1_1.sol\":3471:3492  acceptedSenderAddress */\n      0x01\n      0x00\n      swap1\n      sload\n      swap1\n      0x0100\n      exp\n      swap1\n      div\n      0xffffffffffffffffffffffffffffffffffffffff\n      and\n        /* \"token_eco_system_dev_contracts/contracts_ready_for_prod/Copy_TokenEcoSystemParticipationV1_1.sol\":3471:3506  acceptedSenderAddress != address(0) */\n      0xffffffffffffffffffffffffffffffffffffffff\n      and\n      sub\n        /* \"token_eco_system_dev_contracts/contracts_ready_for_prod/Copy_TokenEcoSystemParticipationV1_1.sol\":3463:3525  require(acceptedSenderAddress != address(0), \"Not activated!\") */\n      tag_282\n      jumpi\n      mload(0x40)\n      0x08c379a000000000000000000000000000000000000000000000000000000000\n      dup2\n      mstore\n      0x04\n      add\n      tag_283\n      swap1\n      tag_129\n      jump\t// in\n    tag_283:\n      mload(0x40)\n      dup1\n      swap2\n      sub\n      swap1\n      revert\n    tag_282:\n        /* \"token_eco_system_dev_contracts/contracts_ready_for_prod/Copy_TokenEcoSystemParticipationV1_1.sol\":3628:3649  acceptedSenderAddress */\n      0x01\n      0x00\n      swap1\n      sload\n      swap1\n      0x0100\n      exp\n      swap1\n      div\n      0xffffffffffffffffffffffffffffffffffffffff\n      and\n        /* \"token_eco_system_dev_contracts/contracts_ready_for_prod/Copy_TokenEcoSystemParticipationV1_1.sol\":3614:3649  msg.sender == acceptedSenderAddress */\n      0xffffffffffffffffffffffffffffffffffffffff\n      and\n        /* \"token_eco_system_dev_contracts/contracts_ready_for_prod/Copy_TokenEcoSystemParticipationV1_1.sol\":3614:3624  msg.sender */\n      caller\n        /* \"token_eco_system_dev_contracts/contracts_ready_for_prod/Copy_TokenEcoSystemParticipationV1_1.sol\":3614:3649  msg.sender == acceptedSenderAddress */\n      0xffffffffffffffffffffffffffffffffffffffff\n      and\n      eq\n        /* \"token_eco_system_dev_contracts/contracts_ready_for_prod/Copy_TokenEcoSystemParticipationV1_1.sol\":3614:3674  msg.sender == acceptedSenderAddress || msg.sender == owner() */\n      dup1\n      tag_285\n      jumpi\n      pop\n        /* \"token_eco_system_dev_contracts/contracts_ready_for_prod/Copy_TokenEcoSystemParticipationV1_1.sol\":3667:3674  owner() */\n      tag_286\n        /* \"token_eco_system_dev_contracts/contracts_ready_for_prod/Copy_TokenEcoSystemParticipationV1_1.sol\":3667:3672  owner */\n      tag_86\n        /* \"token_eco_system_dev_contracts/contracts_ready_for_prod/Copy_TokenEcoSystemParticipationV1_1.sol\":3667:3674  owner() */\n      jump\t// in\n    tag_286:\n        /* \"token_eco_system_dev_contracts/contracts_ready_for_prod/Copy_TokenEcoSystemParticipationV1_1.sol\":3653:3674  msg.sender == owner() */\n      0xffffffffffffffffffffffffffffffffffffffff\n      and\n        /* \"token_eco_system_dev_contracts/contracts_ready_for_prod/Copy_TokenEcoSystemParticipationV1_1.sol\":3653:3663  msg.sender */\n      caller\n        /* \"token_eco_system_dev_contracts/contracts_ready_for_prod/Copy_TokenEcoSystemParticipationV1_1.sol\":3653:3674  msg.sender == owner() */\n      0xffffffffffffffffffffffffffffffffffffffff\n      and\n      eq\n        /* \"token_eco_system_dev_contracts/contracts_ready_for_prod/Copy_TokenEcoSystemParticipationV1_1.sol\":3614:3674  msg.sender == acceptedSenderAddress || msg.sender == owner() */\n    tag_285:\n        /* \"token_eco_system_dev_contracts/contracts_ready_for_prod/Copy_TokenEcoSystemParticipationV1_1.sol\":3592:3765  require(... */\n      tag_287\n      jumpi\n      mload(0x40)\n      0x08c379a000000000000000000000000000000000000000000000000000000000\n      dup2\n      mstore\n      0x04\n      add\n      tag_288\n      swap1\n      tag_191\n      jump\t// in\n    tag_288:\n      mload(0x40)\n      dup1\n      swap2\n      sub\n      swap1\n      revert\n    tag_287:\n        /* \"token_eco_system_dev_contracts/contracts_ready_for_prod/Copy_TokenEcoSystemParticipationV1_1.sol\":11643:11648  token */\n      immutable(\"0x448072f8ce0e9d09a2030ee35ba0d03fccbd0c61c3623f421061fbafdf5a67a9\")\n        /* \"token_eco_system_dev_contracts/contracts_ready_for_prod/Copy_TokenEcoSystemParticipationV1_1.sol\":11651:11656  token */\n      immutable(\"0x448072f8ce0e9d09a2030ee35ba0d03fccbd0c61c3623f421061fbafdf5a67a9\")\n        /* \"token_eco_system_dev_contracts/contracts_ready_for_prod/Copy_TokenEcoSystemParticipationV1_1.sol\":11651:11663  token.symbol */\n      0xffffffffffffffffffffffffffffffffffffffff\n      and\n      0x95d89b41\n        /* \"token_eco_system_dev_contracts/contracts_ready_for_prod/Copy_TokenEcoSystemParticipationV1_1.sol\":11651:11665  token.symbol() */\n      mload(0x40)\n      dup2\n      0xffffffff\n      and\n      0xe0\n      shl\n      dup2\n      mstore\n      0x04\n      add\n      0x00\n      mload(0x40)\n      dup1\n      dup4\n      sub\n      dup2\n      dup7\n      gas\n      staticcall\n      iszero\n      dup1\n      iszero\n      tag_291\n      jumpi\n      returndatasize\n      0x00\n      dup1\n      returndatacopy\n      revert(0x00, returndatasize)\n    tag_291:\n      pop\n      pop\n      pop\n      pop\n      mload(0x40)\n      returndatasize\n      0x00\n      dup3\n      returndatacopy\n      returndatasize\n      not(0x1f)\n      0x1f\n      dup3\n      add\n      and\n      dup3\n      add\n      dup1\n      0x40\n      mstore\n      pop\n      dup2\n      add\n      swap1\n      tag_292\n      swap2\n      swap1\n      tag_293\n      jump\t// in\n    tag_292:\n        /* \"token_eco_system_dev_contracts/contracts_ready_for_prod/Copy_TokenEcoSystemParticipationV1_1.sol\":11627:11666  return (address(token), token.symbol()) */\n      swap2\n      pop\n      swap2\n      pop\n        /* \"token_eco_system_dev_contracts/contracts_ready_for_prod/Copy_TokenEcoSystemParticipationV1_1.sol\":11472:11673  function getTokenInfo()... */\n      swap1\n      swap2\n      jump\t// out\n        /* \"token_eco_system_dev_contracts/contracts_ready_for_prod/Copy_TokenEcoSystemParticipationV1_1.sol\":5514:5749  function addNewPoolRateFeed(address consumerInterfaceAddress)... */\n    tag_104:\n        /* \"@openzeppelin/contracts/access/Ownable.sol\":1094:1107  _checkOwner() */\n      tag_295\n        /* \"@openzeppelin/contracts/access/Ownable.sol\":1094:1105  _checkOwner */\n      tag_125\n        /* \"@openzeppelin/contracts/access/Ownable.sol\":1094:1107  _checkOwner() */\n      jump\t// in\n    tag_295:\n        /* \"token_eco_system_dev_contracts/contracts_ready_for_prod/Copy_TokenEcoSystemParticipationV1_1.sol\":5667:5668  0 */\n      0x00\n        /* \"token_eco_system_dev_contracts/contracts_ready_for_prod/Copy_TokenEcoSystemParticipationV1_1.sol\":5631:5669  consumerInterfaceAddress != address(0) */\n      0xffffffffffffffffffffffffffffffffffffffff\n      and\n        /* \"token_eco_system_dev_contracts/contracts_ready_for_prod/Copy_TokenEcoSystemParticipationV1_1.sol\":5631:5655  consumerInterfaceAddress */\n      dup2\n        /* \"token_eco_system_dev_contracts/contracts_ready_for_prod/Copy_TokenEcoSystemParticipationV1_1.sol\":5631:5669  consumerInterfaceAddress != address(0) */\n      0xffffffffffffffffffffffffffffffffffffffff\n      and\n      sub\n        /* \"token_eco_system_dev_contracts/contracts_ready_for_prod/Copy_TokenEcoSystemParticipationV1_1.sol\":5623:5670  require(consumerInterfaceAddress != address(0)) */\n      tag_297\n      jumpi\n      0x00\n      dup1\n      revert\n    tag_297:\n        /* \"token_eco_system_dev_contracts/contracts_ready_for_prod/Copy_TokenEcoSystemParticipationV1_1.sol\":5717:5741  consumerInterfaceAddress */\n      dup1\n        /* \"token_eco_system_dev_contracts/contracts_ready_for_prod/Copy_TokenEcoSystemParticipationV1_1.sol\":5680:5692  poolConsumer */\n      0x06\n      0x00\n        /* \"token_eco_system_dev_contracts/contracts_ready_for_prod/Copy_TokenEcoSystemParticipationV1_1.sol\":5680:5742  poolConsumer = PoolConsumerInterface(consumerInterfaceAddress) */\n      0x0100\n      exp\n      dup2\n      sload\n      dup2\n      0xffffffffffffffffffffffffffffffffffffffff\n      mul\n      not\n      and\n      swap1\n      dup4\n      0xffffffffffffffffffffffffffffffffffffffff\n      and\n      mul\n      or\n      swap1\n      sstore\n      pop\n        /* \"token_eco_system_dev_contracts/contracts_ready_for_prod/Copy_TokenEcoSystemParticipationV1_1.sol\":5514:5749  function addNewPoolRateFeed(address consumerInterfaceAddress)... */\n      pop\n      jump\t// out\n        /* \"token_eco_system_dev_contracts/contracts_ready_for_prod/Copy_TokenEcoSystemParticipationV1_1.sol\":8850:9041  function balanceOfToken(address tokenAddress)... */\n    tag_107:\n        /* \"token_eco_system_dev_contracts/contracts_ready_for_prod/Copy_TokenEcoSystemParticipationV1_1.sol\":8959:8966  uint256 */\n      0x00\n        /* \"@openzeppelin/contracts/access/Ownable.sol\":1094:1107  _checkOwner() */\n      tag_299\n        /* \"@openzeppelin/contracts/access/Ownable.sol\":1094:1105  _checkOwner */\n      tag_125\n        /* \"@openzeppelin/contracts/access/Ownable.sol\":1094:1107  _checkOwner() */\n      jump\t// in\n    tag_299:\n        /* \"token_eco_system_dev_contracts/contracts_ready_for_prod/Copy_TokenEcoSystemParticipationV1_1.sol\":8996:9008  tokenAddress */\n      dup2\n        /* \"token_eco_system_dev_contracts/contracts_ready_for_prod/Copy_TokenEcoSystemParticipationV1_1.sol\":8989:9019  IERC20(tokenAddress).balanceOf */\n      0xffffffffffffffffffffffffffffffffffffffff\n      and\n      0x70a08231\n        /* \"token_eco_system_dev_contracts/contracts_ready_for_prod/Copy_TokenEcoSystemParticipationV1_1.sol\":9028:9032  this */\n      address\n        /* \"token_eco_system_dev_contracts/contracts_ready_for_prod/Copy_TokenEcoSystemParticipationV1_1.sol\":8989:9034  IERC20(tokenAddress).balanceOf(address(this)) */\n      mload(0x40)\n      dup3\n      0xffffffff\n      and\n      0xe0\n      shl\n      dup2\n      mstore\n      0x04\n      add\n      tag_301\n      swap2\n      swap1\n      tag_88\n      jump\t// in\n    tag_301:\n      0x20\n      mload(0x40)\n      dup1\n      dup4\n      sub\n      dup2\n      dup7\n      gas\n      staticcall\n      iszero\n      dup1\n      iszero\n      tag_303\n      jumpi\n      returndatasize\n      0x00\n      dup1\n      returndatacopy\n      revert(0x00, returndatasize)\n    tag_303:\n      pop\n      pop\n      pop\n      pop\n      mload(0x40)\n      returndatasize\n      not(0x1f)\n      0x1f\n      dup3\n      add\n      and\n      dup3\n      add\n      dup1\n      0x40\n      mstore\n      pop\n      dup2\n      add\n      swap1\n      tag_304\n      swap2\n      swap1\n      tag_237\n      jump\t// in\n    tag_304:\n        /* \"token_eco_system_dev_contracts/contracts_ready_for_prod/Copy_TokenEcoSystemParticipationV1_1.sol\":8982:9034  return IERC20(tokenAddress).balanceOf(address(this)) */\n      swap1\n      pop\n        /* \"token_eco_system_dev_contracts/contracts_ready_for_prod/Copy_TokenEcoSystemParticipationV1_1.sol\":8850:9041  function balanceOfToken(address tokenAddress)... */\n      swap2\n      swap1\n      pop\n      jump\t// out\n        /* \"token_eco_system_dev_contracts/contracts_ready_for_prod/Copy_TokenEcoSystemParticipationV1_1.sol\":6347:6628  function currentRateFeed() public view returns (string memory, address) {... */\n    tag_110:\n        /* \"token_eco_system_dev_contracts/contracts_ready_for_prod/Copy_TokenEcoSystemParticipationV1_1.sol\":6395:6408  string memory */\n      0x60\n        /* \"token_eco_system_dev_contracts/contracts_ready_for_prod/Copy_TokenEcoSystemParticipationV1_1.sol\":6410:6417  address */\n      0x00\n        /* \"token_eco_system_dev_contracts/contracts_ready_for_prod/Copy_TokenEcoSystemParticipationV1_1.sol\":6429:6447  string memory feed */\n      dup1\n        /* \"token_eco_system_dev_contracts/contracts_ready_for_prod/Copy_TokenEcoSystemParticipationV1_1.sol\":6450:6463  currentFeed() */\n      tag_306\n        /* \"token_eco_system_dev_contracts/contracts_ready_for_prod/Copy_TokenEcoSystemParticipationV1_1.sol\":6450:6461  currentFeed */\n      tag_307\n        /* \"token_eco_system_dev_contracts/contracts_ready_for_prod/Copy_TokenEcoSystemParticipationV1_1.sol\":6450:6463  currentFeed() */\n      jump\t// in\n    tag_306:\n        /* \"token_eco_system_dev_contracts/contracts_ready_for_prod/Copy_TokenEcoSystemParticipationV1_1.sol\":6429:6463  string memory feed = currentFeed() */\n      swap1\n      pop\n        /* \"token_eco_system_dev_contracts/contracts_ready_for_prod/Copy_TokenEcoSystemParticipationV1_1.sol\":6477:6489  poolRateFeed */\n      0x01\n      0x14\n      swap1\n      sload\n      swap1\n      0x0100\n      exp\n      swap1\n      div\n      0xff\n      and\n        /* \"token_eco_system_dev_contracts/contracts_ready_for_prod/Copy_TokenEcoSystemParticipationV1_1.sol\":6473:6622  if (poolRateFeed){... */\n      iszero\n      tag_308\n      jumpi\n        /* \"token_eco_system_dev_contracts/contracts_ready_for_prod/Copy_TokenEcoSystemParticipationV1_1.sol\":6512:6516  feed */\n      dup1\n        /* \"token_eco_system_dev_contracts/contracts_ready_for_prod/Copy_TokenEcoSystemParticipationV1_1.sol\":6526:6538  poolConsumer */\n      0x06\n      0x00\n      swap1\n      sload\n      swap1\n      0x0100\n      exp\n      swap1\n      div\n      0xffffffffffffffffffffffffffffffffffffffff\n      and\n        /* \"token_eco_system_dev_contracts/contracts_ready_for_prod/Copy_TokenEcoSystemParticipationV1_1.sol\":6504:6540  return (feed, address(poolConsumer)) */\n      swap3\n      pop\n      swap3\n      pop\n      pop\n      jump(tag_305)\n        /* \"token_eco_system_dev_contracts/contracts_ready_for_prod/Copy_TokenEcoSystemParticipationV1_1.sol\":6473:6622  if (poolRateFeed){... */\n    tag_308:\n        /* \"token_eco_system_dev_contracts/contracts_ready_for_prod/Copy_TokenEcoSystemParticipationV1_1.sol\":6577:6581  feed */\n      dup1\n        /* \"token_eco_system_dev_contracts/contracts_ready_for_prod/Copy_TokenEcoSystemParticipationV1_1.sol\":6591:6609  aggregatorConsumer */\n      0x05\n      0x00\n      swap1\n      sload\n      swap1\n      0x0100\n      exp\n      swap1\n      div\n      0xffffffffffffffffffffffffffffffffffffffff\n      and\n        /* \"token_eco_system_dev_contracts/contracts_ready_for_prod/Copy_TokenEcoSystemParticipationV1_1.sol\":6569:6611  return (feed, address(aggregatorConsumer)) */\n      swap3\n      pop\n      swap3\n      pop\n      pop\n        /* \"token_eco_system_dev_contracts/contracts_ready_for_prod/Copy_TokenEcoSystemParticipationV1_1.sol\":6347:6628  function currentRateFeed() public view returns (string memory, address) {... */\n    tag_305:\n      swap1\n      swap2\n      jump\t// out\n        /* \"token_eco_system_dev_contracts/contracts_ready_for_prod/Copy_TokenEcoSystemParticipationV1_1.sol\":5828:6300  function changeRateFeed() public onlyOwner {... */\n    tag_114:\n        /* \"@openzeppelin/contracts/access/Ownable.sol\":1094:1107  _checkOwner() */\n      tag_311\n        /* \"@openzeppelin/contracts/access/Ownable.sol\":1094:1105  _checkOwner */\n      tag_125\n        /* \"@openzeppelin/contracts/access/Ownable.sol\":1094:1107  _checkOwner() */\n      jump\t// in\n    tag_311:\n        /* \"token_eco_system_dev_contracts/contracts_ready_for_prod/Copy_TokenEcoSystemParticipationV1_1.sol\":5885:5897  poolRateFeed */\n      0x01\n      0x14\n      swap1\n      sload\n      swap1\n      0x0100\n      exp\n      swap1\n      div\n      0xff\n      and\n        /* \"token_eco_system_dev_contracts/contracts_ready_for_prod/Copy_TokenEcoSystemParticipationV1_1.sol\":5881:6256  if (poolRateFeed) {... */\n      iszero\n      tag_313\n      jumpi\n        /* \"token_eco_system_dev_contracts/contracts_ready_for_prod/Copy_TokenEcoSystemParticipationV1_1.sol\":5938:5950  poolRateFeed */\n      0x01\n      0x14\n      swap1\n      sload\n      swap1\n      0x0100\n      exp\n      swap1\n      div\n      0xff\n      and\n        /* \"token_eco_system_dev_contracts/contracts_ready_for_prod/Copy_TokenEcoSystemParticipationV1_1.sol\":5938:5997  poolRateFeed && (address(aggregatorConsumer) != address(0)) */\n      dup1\n      iszero\n      tag_314\n      jumpi\n      pop\n        /* \"token_eco_system_dev_contracts/contracts_ready_for_prod/Copy_TokenEcoSystemParticipationV1_1.sol\":5994:5995  0 */\n      0x00\n        /* \"token_eco_system_dev_contracts/contracts_ready_for_prod/Copy_TokenEcoSystemParticipationV1_1.sol\":5955:5996  address(aggregatorConsumer) != address(0) */\n      0xffffffffffffffffffffffffffffffffffffffff\n      and\n        /* \"token_eco_system_dev_contracts/contracts_ready_for_prod/Copy_TokenEcoSystemParticipationV1_1.sol\":5963:5981  aggregatorConsumer */\n      0x05\n      0x00\n      swap1\n      sload\n      swap1\n      0x0100\n      exp\n      swap1\n      div\n      0xffffffffffffffffffffffffffffffffffffffff\n      and\n        /* \"token_eco_system_dev_contracts/contracts_ready_for_prod/Copy_TokenEcoSystemParticipationV1_1.sol\":5955:5996  address(aggregatorConsumer) != address(0) */\n      0xffffffffffffffffffffffffffffffffffffffff\n      and\n      eq\n      iszero\n        /* \"token_eco_system_dev_contracts/contracts_ready_for_prod/Copy_TokenEcoSystemParticipationV1_1.sol\":5938:5997  poolRateFeed && (address(aggregatorConsumer) != address(0)) */\n    tag_314:\n        /* \"token_eco_system_dev_contracts/contracts_ready_for_prod/Copy_TokenEcoSystemParticipationV1_1.sol\":5913:6069  require(... */\n      tag_315\n      jumpi\n      mload(0x40)\n      0x08c379a000000000000000000000000000000000000000000000000000000000\n      dup2\n      mstore\n      0x04\n      add\n      tag_316\n      swap1\n      tag_317\n      jump\t// in\n    tag_316:\n      mload(0x40)\n      dup1\n      swap2\n      sub\n      swap1\n      revert\n    tag_315:\n        /* \"token_eco_system_dev_contracts/contracts_ready_for_prod/Copy_TokenEcoSystemParticipationV1_1.sol\":5881:6256  if (poolRateFeed) {... */\n      jump(tag_318)\n    tag_313:\n        /* \"token_eco_system_dev_contracts/contracts_ready_for_prod/Copy_TokenEcoSystemParticipationV1_1.sol\":6126:6138  poolRateFeed */\n      0x01\n      0x14\n      swap1\n      sload\n      swap1\n      0x0100\n      exp\n      swap1\n      div\n      0xff\n      and\n        /* \"token_eco_system_dev_contracts/contracts_ready_for_prod/Copy_TokenEcoSystemParticipationV1_1.sol\":6125:6138  !poolRateFeed */\n      iszero\n        /* \"token_eco_system_dev_contracts/contracts_ready_for_prod/Copy_TokenEcoSystemParticipationV1_1.sol\":6125:6179  !poolRateFeed && (address(poolConsumer) != address(0)) */\n      dup1\n      iszero\n      tag_319\n      jumpi\n      pop\n        /* \"token_eco_system_dev_contracts/contracts_ready_for_prod/Copy_TokenEcoSystemParticipationV1_1.sol\":6176:6177  0 */\n      0x00\n        /* \"token_eco_system_dev_contracts/contracts_ready_for_prod/Copy_TokenEcoSystemParticipationV1_1.sol\":6143:6178  address(poolConsumer) != address(0) */\n      0xffffffffffffffffffffffffffffffffffffffff\n      and\n        /* \"token_eco_system_dev_contracts/contracts_ready_for_prod/Copy_TokenEcoSystemParticipationV1_1.sol\":6151:6163  poolConsumer */\n      0x06\n      0x00\n      swap1\n      sload\n      swap1\n      0x0100\n      exp\n      swap1\n      div\n      0xffffffffffffffffffffffffffffffffffffffff\n      and\n        /* \"token_eco_system_dev_contracts/contracts_ready_for_prod/Copy_TokenEcoSystemParticipationV1_1.sol\":6143:6178  address(poolConsumer) != address(0) */\n      0xffffffffffffffffffffffffffffffffffffffff\n      and\n      eq\n      iszero\n        /* \"token_eco_system_dev_contracts/contracts_ready_for_prod/Copy_TokenEcoSystemParticipationV1_1.sol\":6125:6179  !poolRateFeed && (address(poolConsumer) != address(0)) */\n    tag_319:\n        /* \"token_eco_system_dev_contracts/contracts_ready_for_prod/Copy_TokenEcoSystemParticipationV1_1.sol\":6100:6245  require(... */\n      tag_320\n      jumpi\n      mload(0x40)\n      0x08c379a000000000000000000000000000000000000000000000000000000000\n      dup2\n      mstore\n      0x04\n      add\n      tag_321\n      swap1\n      tag_322\n      jump\t// in\n    tag_321:\n      mload(0x40)\n      dup1\n      swap2\n      sub\n      swap1\n      revert\n    tag_320:\n        /* \"token_eco_system_dev_contracts/contracts_ready_for_prod/Copy_TokenEcoSystemParticipationV1_1.sol\":5881:6256  if (poolRateFeed) {... */\n    tag_318:\n        /* \"token_eco_system_dev_contracts/contracts_ready_for_prod/Copy_TokenEcoSystemParticipationV1_1.sol\":6281:6293  poolRateFeed */\n      0x01\n      0x14\n      swap1\n      sload\n      swap1\n      0x0100\n      exp\n      swap1\n      div\n      0xff\n      and\n        /* \"token_eco_system_dev_contracts/contracts_ready_for_prod/Copy_TokenEcoSystemParticipationV1_1.sol\":6280:6293  !poolRateFeed */\n      iszero\n        /* \"token_eco_system_dev_contracts/contracts_ready_for_prod/Copy_TokenEcoSystemParticipationV1_1.sol\":6265:6277  poolRateFeed */\n      0x01\n      0x14\n        /* \"token_eco_system_dev_contracts/contracts_ready_for_prod/Copy_TokenEcoSystemParticipationV1_1.sol\":6265:6293  poolRateFeed = !poolRateFeed */\n      0x0100\n      exp\n      dup2\n      sload\n      dup2\n      0xff\n      mul\n      not\n      and\n      swap1\n      dup4\n      iszero\n      iszero\n      mul\n      or\n      swap1\n      sstore\n      pop\n        /* \"token_eco_system_dev_contracts/contracts_ready_for_prod/Copy_TokenEcoSystemParticipationV1_1.sol\":5828:6300  function changeRateFeed() public onlyOwner {... */\n      jump\t// out\n        /* \"token_eco_system_dev_contracts/contracts_ready_for_prod/Copy_TokenEcoSystemParticipationV1_1.sol\":7354:8496  function chargeContract(uint256 amount)... */\n    tag_118:\n        /* \"token_eco_system_dev_contracts/contracts_ready_for_prod/Copy_TokenEcoSystemParticipationV1_1.sol\":7496:7500  bool */\n      0x00\n        /* \"@openzeppelin/contracts/security/Pausable.sol\":1239:1258  _requireNotPaused() */\n      tag_324\n        /* \"@openzeppelin/contracts/security/Pausable.sol\":1239:1256  _requireNotPaused */\n      tag_150\n        /* \"@openzeppelin/contracts/security/Pausable.sol\":1239:1258  _requireNotPaused() */\n      jump\t// in\n    tag_324:\n        /* \"token_eco_system_dev_contracts/contracts_ready_for_prod/Copy_TokenEcoSystemParticipationV1_1.sol\":3504:3505  0 */\n      0x00\n        /* \"token_eco_system_dev_contracts/contracts_ready_for_prod/Copy_TokenEcoSystemParticipationV1_1.sol\":3471:3506  acceptedSenderAddress != address(0) */\n      0xffffffffffffffffffffffffffffffffffffffff\n      and\n        /* \"token_eco_system_dev_contracts/contracts_ready_for_prod/Copy_TokenEcoSystemParticipationV1_1.sol\":3471:3492  acceptedSenderAddress */\n      0x01\n      0x00\n      swap1\n      sload\n      swap1\n      0x0100\n      exp\n      swap1\n      div\n      0xffffffffffffffffffffffffffffffffffffffff\n      and\n        /* \"token_eco_system_dev_contracts/contracts_ready_for_prod/Copy_TokenEcoSystemParticipationV1_1.sol\":3471:3506  acceptedSenderAddress != address(0) */\n      0xffffffffffffffffffffffffffffffffffffffff\n      and\n      sub\n        /* \"token_eco_system_dev_contracts/contracts_ready_for_prod/Copy_TokenEcoSystemParticipationV1_1.sol\":3463:3525  require(acceptedSenderAddress != address(0), \"Not activated!\") */\n      tag_326\n      jumpi\n      mload(0x40)\n      0x08c379a000000000000000000000000000000000000000000000000000000000\n      dup2\n      mstore\n      0x04\n      add\n      tag_327\n      swap1\n      tag_129\n      jump\t// in\n    tag_327:\n      mload(0x40)\n      dup1\n      swap2\n      sub\n      swap1\n      revert\n    tag_326:\n        /* \"token_eco_system_dev_contracts/contracts_ready_for_prod/Copy_TokenEcoSystemParticipationV1_1.sol\":3628:3649  acceptedSenderAddress */\n      0x01\n      0x00\n      swap1\n      sload\n      swap1\n      0x0100\n      exp\n      swap1\n      div\n      0xffffffffffffffffffffffffffffffffffffffff\n      and\n        /* \"token_eco_system_dev_contracts/contracts_ready_for_prod/Copy_TokenEcoSystemParticipationV1_1.sol\":3614:3649  msg.sender == acceptedSenderAddress */\n      0xffffffffffffffffffffffffffffffffffffffff\n      and\n        /* \"token_eco_system_dev_contracts/contracts_ready_for_prod/Copy_TokenEcoSystemParticipationV1_1.sol\":3614:3624  msg.sender */\n      caller\n        /* \"token_eco_system_dev_contracts/contracts_ready_for_prod/Copy_TokenEcoSystemParticipationV1_1.sol\":3614:3649  msg.sender == acceptedSenderAddress */\n      0xffffffffffffffffffffffffffffffffffffffff\n      and\n      eq\n        /* \"token_eco_system_dev_contracts/contracts_ready_for_prod/Copy_TokenEcoSystemParticipationV1_1.sol\":3614:3674  msg.sender == acceptedSenderAddress || msg.sender == owner() */\n      dup1\n      tag_329\n      jumpi\n      pop\n        /* \"token_eco_system_dev_contracts/contracts_ready_for_prod/Copy_TokenEcoSystemParticipationV1_1.sol\":3667:3674  owner() */\n      tag_330\n        /* \"token_eco_system_dev_contracts/contracts_ready_for_prod/Copy_TokenEcoSystemParticipationV1_1.sol\":3667:3672  owner */\n      tag_86\n        /* \"token_eco_system_dev_contracts/contracts_ready_for_prod/Copy_TokenEcoSystemParticipationV1_1.sol\":3667:3674  owner() */\n      jump\t// in\n    tag_330:\n        /* \"token_eco_system_dev_contracts/contracts_ready_for_prod/Copy_TokenEcoSystemParticipationV1_1.sol\":3653:3674  msg.sender == owner() */\n      0xffffffffffffffffffffffffffffffffffffffff\n      and\n        /* \"token_eco_system_dev_contracts/contracts_ready_for_prod/Copy_TokenEcoSystemParticipationV1_1.sol\":3653:3663  msg.sender */\n      caller\n        /* \"token_eco_system_dev_contracts/contracts_ready_for_prod/Copy_TokenEcoSystemParticipationV1_1.sol\":3653:3674  msg.sender == owner() */\n      0xffffffffffffffffffffffffffffffffffffffff\n      and\n      eq\n        /* \"token_eco_system_dev_contracts/contracts_ready_for_prod/Copy_TokenEcoSystemParticipationV1_1.sol\":3614:3674  msg.sender == acceptedSenderAddress || msg.sender == owner() */\n    tag_329:\n        /* \"token_eco_system_dev_contracts/contracts_ready_for_prod/Copy_TokenEcoSystemParticipationV1_1.sol\":3592:3765  require(... */\n      tag_331\n      jumpi\n      mload(0x40)\n      0x08c379a000000000000000000000000000000000000000000000000000000000\n      dup2\n      mstore\n      0x04\n      add\n      tag_332\n      swap1\n      tag_191\n      jump\t// in\n    tag_332:\n      mload(0x40)\n      dup1\n      swap2\n      sub\n      swap1\n      revert\n    tag_331:\n        /* \"token_eco_system_dev_contracts/contracts_ready_for_prod/Copy_TokenEcoSystemParticipationV1_1.sol\":7533:7534  0 */\n      0x00\n        /* \"token_eco_system_dev_contracts/contracts_ready_for_prod/Copy_TokenEcoSystemParticipationV1_1.sol\":7524:7530  amount */\n      dup3\n        /* \"token_eco_system_dev_contracts/contracts_ready_for_prod/Copy_TokenEcoSystemParticipationV1_1.sol\":7524:7534  amount > 0 */\n      gt\n        /* \"token_eco_system_dev_contracts/contracts_ready_for_prod/Copy_TokenEcoSystemParticipationV1_1.sol\":7516:7556  require(amount > 0, \"No charge amount!\") */\n      tag_334\n      jumpi\n      mload(0x40)\n      0x08c379a000000000000000000000000000000000000000000000000000000000\n      dup2\n      mstore\n      0x04\n      add\n      tag_335\n      swap1\n      tag_336\n      jump\t// in\n    tag_335:\n      mload(0x40)\n      dup1\n      swap2\n      sub\n      swap1\n      revert\n    tag_334:\n        /* \"token_eco_system_dev_contracts/contracts_ready_for_prod/Copy_TokenEcoSystemParticipationV1_1.sol\":7607:7613  amount */\n      dup2\n        /* \"token_eco_system_dev_contracts/contracts_ready_for_prod/Copy_TokenEcoSystemParticipationV1_1.sol\":7587:7603  checkAllowance() */\n      tag_337\n        /* \"token_eco_system_dev_contracts/contracts_ready_for_prod/Copy_TokenEcoSystemParticipationV1_1.sol\":7587:7601  checkAllowance */\n      tag_93\n        /* \"token_eco_system_dev_contracts/contracts_ready_for_prod/Copy_TokenEcoSystemParticipationV1_1.sol\":7587:7603  checkAllowance() */\n      jump\t// in\n    tag_337:\n        /* \"token_eco_system_dev_contracts/contracts_ready_for_prod/Copy_TokenEcoSystemParticipationV1_1.sol\":7587:7613  checkAllowance() >= amount */\n      lt\n      iszero\n        /* \"token_eco_system_dev_contracts/contracts_ready_for_prod/Copy_TokenEcoSystemParticipationV1_1.sol\":7655:7660  token */\n      immutable(\"0x448072f8ce0e9d09a2030ee35ba0d03fccbd0c61c3623f421061fbafdf5a67a9\")\n        /* \"token_eco_system_dev_contracts/contracts_ready_for_prod/Copy_TokenEcoSystemParticipationV1_1.sol\":7655:7667  token.symbol */\n      0xffffffffffffffffffffffffffffffffffffffff\n      and\n      0x95d89b41\n        /* \"token_eco_system_dev_contracts/contracts_ready_for_prod/Copy_TokenEcoSystemParticipationV1_1.sol\":7655:7669  token.symbol() */\n      mload(0x40)\n      dup2\n      0xffffffff\n      and\n      0xe0\n      shl\n      dup2\n      mstore\n      0x04\n      add\n      0x00\n      mload(0x40)\n      dup1\n      dup4\n      sub\n      dup2\n      dup7\n      gas\n      staticcall\n      iszero\n      dup1\n      iszero\n      tag_339\n      jumpi\n      returndatasize\n      0x00\n      dup1\n      returndatacopy\n      revert(0x00, returndatasize)\n    tag_339:\n      pop\n      pop\n      pop\n      pop\n      mload(0x40)\n      returndatasize\n      0x00\n      dup3\n      returndatacopy\n      returndatasize\n      not(0x1f)\n      0x1f\n      dup3\n      add\n      and\n      dup3\n      add\n      dup1\n      0x40\n      mstore\n      pop\n      dup2\n      add\n      swap1\n      tag_340\n      swap2\n      swap1\n      tag_293\n      jump\t// in\n    tag_340:\n        /* \"token_eco_system_dev_contracts/contracts_ready_for_prod/Copy_TokenEcoSystemParticipationV1_1.sol\":7627:7695  string.concat(\"Check the \", token.symbol(), \" token \", \"allowance!\") */\n      add(0x20, mload(0x40))\n      tag_341\n      swap2\n      swap1\n      tag_342\n      jump\t// in\n    tag_341:\n      mload(0x40)\n      0x20\n      dup2\n      dup4\n      sub\n      sub\n      dup2\n      mstore\n      swap1\n      0x40\n      mstore\n        /* \"token_eco_system_dev_contracts/contracts_ready_for_prod/Copy_TokenEcoSystemParticipationV1_1.sol\":7566:7705  require(... */\n      swap1\n      tag_343\n      jumpi\n      mload(0x40)\n      0x08c379a000000000000000000000000000000000000000000000000000000000\n      dup2\n      mstore\n      0x04\n      add\n      tag_344\n      swap2\n      swap1\n      tag_345\n      jump\t// in\n    tag_344:\n      mload(0x40)\n      dup1\n      swap2\n      sub\n      swap1\n      revert\n    tag_343:\n      pop\n        /* \"token_eco_system_dev_contracts/contracts_ready_for_prod/Copy_TokenEcoSystemParticipationV1_1.sol\":7730:7742  uint256 rate */\n      0x00\n        /* \"token_eco_system_dev_contracts/contracts_ready_for_prod/Copy_TokenEcoSystemParticipationV1_1.sol\":7756:7772  uint256 decimals */\n      dup1\n        /* \"token_eco_system_dev_contracts/contracts_ready_for_prod/Copy_TokenEcoSystemParticipationV1_1.sol\":7786:7816  string memory chargeRateString */\n      0x00\n        /* \"token_eco_system_dev_contracts/contracts_ready_for_prod/Copy_TokenEcoSystemParticipationV1_1.sol\":7830:7852  uint256 chargeRateDate */\n      dup1\n        /* \"token_eco_system_dev_contracts/contracts_ready_for_prod/Copy_TokenEcoSystemParticipationV1_1.sol\":7865:7874  getRate() */\n      tag_346\n        /* \"token_eco_system_dev_contracts/contracts_ready_for_prod/Copy_TokenEcoSystemParticipationV1_1.sol\":7865:7872  getRate */\n      tag_347\n        /* \"token_eco_system_dev_contracts/contracts_ready_for_prod/Copy_TokenEcoSystemParticipationV1_1.sol\":7865:7874  getRate() */\n      jump\t// in\n    tag_346:\n        /* \"token_eco_system_dev_contracts/contracts_ready_for_prod/Copy_TokenEcoSystemParticipationV1_1.sol\":7716:7874  (... */\n      swap4\n      pop\n      swap4\n      pop\n      swap4\n      pop\n      swap4\n      pop\n        /* \"token_eco_system_dev_contracts/contracts_ready_for_prod/Copy_TokenEcoSystemParticipationV1_1.sol\":7899:7900  0 */\n      0x00\n        /* \"token_eco_system_dev_contracts/contracts_ready_for_prod/Copy_TokenEcoSystemParticipationV1_1.sol\":7892:7896  rate */\n      dup5\n        /* \"token_eco_system_dev_contracts/contracts_ready_for_prod/Copy_TokenEcoSystemParticipationV1_1.sol\":7892:7900  rate > 0 */\n      gt\n        /* \"token_eco_system_dev_contracts/contracts_ready_for_prod/Copy_TokenEcoSystemParticipationV1_1.sol\":7892:7916  rate > 0 && decimals > 0 */\n      dup1\n      iszero\n      tag_348\n      jumpi\n      pop\n        /* \"token_eco_system_dev_contracts/contracts_ready_for_prod/Copy_TokenEcoSystemParticipationV1_1.sol\":7915:7916  0 */\n      0x00\n        /* \"token_eco_system_dev_contracts/contracts_ready_for_prod/Copy_TokenEcoSystemParticipationV1_1.sol\":7904:7912  decimals */\n      dup4\n        /* \"token_eco_system_dev_contracts/contracts_ready_for_prod/Copy_TokenEcoSystemParticipationV1_1.sol\":7904:7916  decimals > 0 */\n      gt\n        /* \"token_eco_system_dev_contracts/contracts_ready_for_prod/Copy_TokenEcoSystemParticipationV1_1.sol\":7892:7916  rate > 0 && decimals > 0 */\n    tag_348:\n        /* \"token_eco_system_dev_contracts/contracts_ready_for_prod/Copy_TokenEcoSystemParticipationV1_1.sol\":7892:7938  rate > 0 && decimals > 0 && chargeRateDate > 0 */\n      dup1\n      iszero\n      tag_349\n      jumpi\n      pop\n        /* \"token_eco_system_dev_contracts/contracts_ready_for_prod/Copy_TokenEcoSystemParticipationV1_1.sol\":7937:7938  0 */\n      0x00\n        /* \"token_eco_system_dev_contracts/contracts_ready_for_prod/Copy_TokenEcoSystemParticipationV1_1.sol\":7920:7934  chargeRateDate */\n      dup2\n        /* \"token_eco_system_dev_contracts/contracts_ready_for_prod/Copy_TokenEcoSystemParticipationV1_1.sol\":7920:7938  chargeRateDate > 0 */\n      gt\n        /* \"token_eco_system_dev_contracts/contracts_ready_for_prod/Copy_TokenEcoSystemParticipationV1_1.sol\":7892:7938  rate > 0 && decimals > 0 && chargeRateDate > 0 */\n    tag_349:\n        /* \"token_eco_system_dev_contracts/contracts_ready_for_prod/Copy_TokenEcoSystemParticipationV1_1.sol\":7884:7954  require(rate > 0 && decimals > 0 && chargeRateDate > 0, \"rate error!\") */\n      tag_350\n      jumpi\n      mload(0x40)\n      0x08c379a000000000000000000000000000000000000000000000000000000000\n      dup2\n      mstore\n      0x04\n      add\n      tag_351\n      swap1\n      tag_352\n      jump\t// in\n    tag_351:\n      mload(0x40)\n      dup1\n      swap2\n      sub\n      swap1\n      revert\n    tag_350:\n        /* \"token_eco_system_dev_contracts/contracts_ready_for_prod/Copy_TokenEcoSystemParticipationV1_1.sol\":7964:7978  uint256 points */\n      0x00\n        /* \"token_eco_system_dev_contracts/contracts_ready_for_prod/Copy_TokenEcoSystemParticipationV1_1.sol\":7981:8020  calculatePoints(amount, rate, decimals) */\n      tag_353\n        /* \"token_eco_system_dev_contracts/contracts_ready_for_prod/Copy_TokenEcoSystemParticipationV1_1.sol\":7997:8003  amount */\n      dup8\n        /* \"token_eco_system_dev_contracts/contracts_ready_for_prod/Copy_TokenEcoSystemParticipationV1_1.sol\":8005:8009  rate */\n      dup7\n        /* \"token_eco_system_dev_contracts/contracts_ready_for_prod/Copy_TokenEcoSystemParticipationV1_1.sol\":8011:8019  decimals */\n      dup7\n        /* \"token_eco_system_dev_contracts/contracts_ready_for_prod/Copy_TokenEcoSystemParticipationV1_1.sol\":7981:7996  calculatePoints */\n      tag_354\n        /* \"token_eco_system_dev_contracts/contracts_ready_for_prod/Copy_TokenEcoSystemParticipationV1_1.sol\":7981:8020  calculatePoints(amount, rate, decimals) */\n      jump\t// in\n    tag_353:\n        /* \"token_eco_system_dev_contracts/contracts_ready_for_prod/Copy_TokenEcoSystemParticipationV1_1.sol\":7964:8020  uint256 points = calculatePoints(amount, rate, decimals) */\n      swap1\n      pop\n        /* \"token_eco_system_dev_contracts/contracts_ready_for_prod/Copy_TokenEcoSystemParticipationV1_1.sol\":8047:8053  points */\n      dup1\n        /* \"token_eco_system_dev_contracts/contracts_ready_for_prod/Copy_TokenEcoSystemParticipationV1_1.sol\":8030:8043  pointsBalance */\n      0x04\n      0x00\n        /* \"token_eco_system_dev_contracts/contracts_ready_for_prod/Copy_TokenEcoSystemParticipationV1_1.sol\":8030:8053  pointsBalance += points */\n      dup3\n      dup3\n      sload\n      tag_355\n      swap2\n      swap1\n      tag_356\n      jump\t// in\n    tag_355:\n      swap3\n      pop\n      pop\n      dup2\n      swap1\n      sstore\n      pop\n        /* \"token_eco_system_dev_contracts/contracts_ready_for_prod/Copy_TokenEcoSystemParticipationV1_1.sol\":8081:8087  points */\n      dup1\n        /* \"token_eco_system_dev_contracts/contracts_ready_for_prod/Copy_TokenEcoSystemParticipationV1_1.sol\":8063:8077  totalConverted */\n      0x03\n      0x00\n        /* \"token_eco_system_dev_contracts/contracts_ready_for_prod/Copy_TokenEcoSystemParticipationV1_1.sol\":8063:8087  totalConverted += points */\n      dup3\n      dup3\n      sload\n      tag_357\n      swap2\n      swap1\n      tag_356\n      jump\t// in\n    tag_357:\n      swap3\n      pop\n      pop\n      dup2\n      swap1\n      sstore\n      pop\n        /* \"token_eco_system_dev_contracts/contracts_ready_for_prod/Copy_TokenEcoSystemParticipationV1_1.sol\":8112:8118  amount */\n      dup7\n        /* \"token_eco_system_dev_contracts/contracts_ready_for_prod/Copy_TokenEcoSystemParticipationV1_1.sol\":8097:8108  totalBurned */\n      0x02\n      0x00\n        /* \"token_eco_system_dev_contracts/contracts_ready_for_prod/Copy_TokenEcoSystemParticipationV1_1.sol\":8097:8118  totalBurned += amount */\n      dup3\n      dup3\n      sload\n      tag_358\n      swap2\n      swap1\n      tag_356\n      jump\t// in\n    tag_358:\n      swap3\n      pop\n      pop\n      dup2\n      swap1\n      sstore\n      pop\n        /* \"token_eco_system_dev_contracts/contracts_ready_for_prod/Copy_TokenEcoSystemParticipationV1_1.sol\":8128:8146  uint256 chargeTime */\n      0x00\n        /* \"token_eco_system_dev_contracts/contracts_ready_for_prod/Copy_TokenEcoSystemParticipationV1_1.sol\":8149:8164  block.timestamp */\n      timestamp\n        /* \"token_eco_system_dev_contracts/contracts_ready_for_prod/Copy_TokenEcoSystemParticipationV1_1.sol\":8128:8164  uint256 chargeTime = block.timestamp */\n      swap1\n      pop\n        /* \"token_eco_system_dev_contracts/contracts_ready_for_prod/Copy_TokenEcoSystemParticipationV1_1.sol\":8345:8355  chargeTime */\n      dup1\n        /* \"token_eco_system_dev_contracts/contracts_ready_for_prod/Copy_TokenEcoSystemParticipationV1_1.sol\":8325:8331  amount */\n      dup9\n        /* \"token_eco_system_dev_contracts/contracts_ready_for_prod/Copy_TokenEcoSystemParticipationV1_1.sol\":8305:8311  points */\n      dup4\n        /* \"token_eco_system_dev_contracts/contracts_ready_for_prod/Copy_TokenEcoSystemParticipationV1_1.sol\":8179:8365  ChargeContract(... */\n      0xb5aeb7b225999adc33232be2121afb1a366c15108c1da745d17fd76108172fe4\n        /* \"token_eco_system_dev_contracts/contracts_ready_for_prod/Copy_TokenEcoSystemParticipationV1_1.sol\":8207:8211  rate */\n      dup10\n        /* \"token_eco_system_dev_contracts/contracts_ready_for_prod/Copy_TokenEcoSystemParticipationV1_1.sol\":8225:8233  decimals */\n      dup10\n        /* \"token_eco_system_dev_contracts/contracts_ready_for_prod/Copy_TokenEcoSystemParticipationV1_1.sol\":8247:8261  chargeRateDate */\n      dup9\n        /* \"token_eco_system_dev_contracts/contracts_ready_for_prod/Copy_TokenEcoSystemParticipationV1_1.sol\":8275:8291  chargeRateString */\n      dup11\n        /* \"token_eco_system_dev_contracts/contracts_ready_for_prod/Copy_TokenEcoSystemParticipationV1_1.sol\":8179:8365  ChargeContract(... */\n      mload(0x40)\n      tag_359\n      swap5\n      swap4\n      swap3\n      swap2\n      swap1\n      tag_360\n      jump\t// in\n    tag_359:\n      mload(0x40)\n      dup1\n      swap2\n      sub\n      swap1\n      log4\n        /* \"token_eco_system_dev_contracts/contracts_ready_for_prod/Copy_TokenEcoSystemParticipationV1_1.sol\":8375:8432  token.safeTransferFrom(msg.sender, address(this), amount) */\n      tag_361\n        /* \"token_eco_system_dev_contracts/contracts_ready_for_prod/Copy_TokenEcoSystemParticipationV1_1.sol\":8398:8408  msg.sender */\n      caller\n        /* \"token_eco_system_dev_contracts/contracts_ready_for_prod/Copy_TokenEcoSystemParticipationV1_1.sol\":8418:8422  this */\n      address\n        /* \"token_eco_system_dev_contracts/contracts_ready_for_prod/Copy_TokenEcoSystemParticipationV1_1.sol\":8425:8431  amount */\n      dup11\n        /* \"token_eco_system_dev_contracts/contracts_ready_for_prod/Copy_TokenEcoSystemParticipationV1_1.sol\":8375:8380  token */\n      immutable(\"0x448072f8ce0e9d09a2030ee35ba0d03fccbd0c61c3623f421061fbafdf5a67a9\")\n        /* \"token_eco_system_dev_contracts/contracts_ready_for_prod/Copy_TokenEcoSystemParticipationV1_1.sol\":8375:8397  token.safeTransferFrom */\n      0xffffffffffffffffffffffffffffffffffffffff\n      and\n      tag_362\n      swap1\n        /* \"token_eco_system_dev_contracts/contracts_ready_for_prod/Copy_TokenEcoSystemParticipationV1_1.sol\":8375:8432  token.safeTransferFrom(msg.sender, address(this), amount) */\n      swap4\n      swap3\n      swap2\n      swap1\n      0xffffffff\n      and\n      jump\t// in\n    tag_361:\n        /* \"token_eco_system_dev_contracts/contracts_ready_for_prod/Copy_TokenEcoSystemParticipationV1_1.sol\":8442:8468  burnIncomingTokens(amount) */\n      tag_363\n        /* \"token_eco_system_dev_contracts/contracts_ready_for_prod/Copy_TokenEcoSystemParticipationV1_1.sol\":8461:8467  amount */\n      dup9\n        /* \"token_eco_system_dev_contracts/contracts_ready_for_prod/Copy_TokenEcoSystemParticipationV1_1.sol\":8442:8460  burnIncomingTokens */\n      tag_364\n        /* \"token_eco_system_dev_contracts/contracts_ready_for_prod/Copy_TokenEcoSystemParticipationV1_1.sol\":8442:8468  burnIncomingTokens(amount) */\n      jump\t// in\n    tag_363:\n      pop\n        /* \"token_eco_system_dev_contracts/contracts_ready_for_prod/Copy_TokenEcoSystemParticipationV1_1.sol\":8485:8489  true */\n      0x01\n        /* \"token_eco_system_dev_contracts/contracts_ready_for_prod/Copy_TokenEcoSystemParticipationV1_1.sol\":8478:8489  return true */\n      swap7\n      pop\n      pop\n      pop\n      pop\n      pop\n      pop\n      pop\n        /* \"token_eco_system_dev_contracts/contracts_ready_for_prod/Copy_TokenEcoSystemParticipationV1_1.sol\":7354:8496  function chargeContract(uint256 amount)... */\n      swap2\n      swap1\n      pop\n      jump\t// out\n        /* \"@openzeppelin/contracts/access/Ownable.sol\":2081:2279  function transferOwnership(address newOwner) public virtual onlyOwner {... */\n    tag_122:\n        /* \"@openzeppelin/contracts/access/Ownable.sol\":1094:1107  _checkOwner() */\n      tag_366\n        /* \"@openzeppelin/contracts/access/Ownable.sol\":1094:1105  _checkOwner */\n      tag_125\n        /* \"@openzeppelin/contracts/access/Ownable.sol\":1094:1107  _checkOwner() */\n      jump\t// in\n    tag_366:\n        /* \"@openzeppelin/contracts/access/Ownable.sol\":2189:2190  0 */\n      0x00\n        /* \"@openzeppelin/contracts/access/Ownable.sol\":2169:2191  newOwner != address(0) */\n      0xffffffffffffffffffffffffffffffffffffffff\n      and\n        /* \"@openzeppelin/contracts/access/Ownable.sol\":2169:2177  newOwner */\n      dup2\n        /* \"@openzeppelin/contracts/access/Ownable.sol\":2169:2191  newOwner != address(0) */\n      0xffffffffffffffffffffffffffffffffffffffff\n      and\n      sub\n        /* \"@openzeppelin/contracts/access/Ownable.sol\":2161:2234  require(newOwner != address(0), \"Ownable: new owner is the zero address\") */\n      tag_368\n      jumpi\n      mload(0x40)\n      0x08c379a000000000000000000000000000000000000000000000000000000000\n      dup2\n      mstore\n      0x04\n      add\n      tag_369\n      swap1\n      tag_370\n      jump\t// in\n    tag_369:\n      mload(0x40)\n      dup1\n      swap2\n      sub\n      swap1\n      revert\n    tag_368:\n        /* \"@openzeppelin/contracts/access/Ownable.sol\":2244:2272  _transferOwnership(newOwner) */\n      tag_371\n        /* \"@openzeppelin/contracts/access/Ownable.sol\":2263:2271  newOwner */\n      dup2\n        /* \"@openzeppelin/contracts/access/Ownable.sol\":2244:2262  _transferOwnership */\n      tag_231\n        /* \"@openzeppelin/contracts/access/Ownable.sol\":2244:2272  _transferOwnership(newOwner) */\n      jump\t// in\n    tag_371:\n        /* \"@openzeppelin/contracts/access/Ownable.sol\":2081:2279  function transferOwnership(address newOwner) public virtual onlyOwner {... */\n      pop\n      jump\t// out\n        /* \"@openzeppelin/contracts/access/Ownable.sol\":1359:1489  function _checkOwner() internal view virtual {... */\n    tag_125:\n        /* \"@openzeppelin/contracts/access/Ownable.sol\":1433:1445  _msgSender() */\n      tag_373\n        /* \"@openzeppelin/contracts/access/Ownable.sol\":1433:1443  _msgSender */\n      tag_374\n        /* \"@openzeppelin/contracts/access/Ownable.sol\":1433:1445  _msgSender() */\n      jump\t// in\n    tag_373:\n        /* \"@openzeppelin/contracts/access/Ownable.sol\":1422:1445  owner() == _msgSender() */\n      0xffffffffffffffffffffffffffffffffffffffff\n      and\n        /* \"@openzeppelin/contracts/access/Ownable.sol\":1422:1429  owner() */\n      tag_375\n        /* \"@openzeppelin/contracts/access/Ownable.sol\":1422:1427  owner */\n      tag_86\n        /* \"@openzeppelin/contracts/access/Ownable.sol\":1422:1429  owner() */\n      jump\t// in\n    tag_375:\n        /* \"@openzeppelin/contracts/access/Ownable.sol\":1422:1445  owner() == _msgSender() */\n      0xffffffffffffffffffffffffffffffffffffffff\n      and\n      eq\n        /* \"@openzeppelin/contracts/access/Ownable.sol\":1414:1482  require(owner() == _msgSender(), \"Ownable: caller is not the owner\") */\n      tag_376\n      jumpi\n      mload(0x40)\n      0x08c379a000000000000000000000000000000000000000000000000000000000\n      dup2\n      mstore\n      0x04\n      add\n      tag_377\n      swap1\n      tag_378\n      jump\t// in\n    tag_377:\n      mload(0x40)\n      dup1\n      swap2\n      sub\n      swap1\n      revert\n    tag_376:\n        /* \"@openzeppelin/contracts/access/Ownable.sol\":1359:1489  function _checkOwner() internal view virtual {... */\n      jump\t// out\n        /* \"@openzeppelin/contracts/security/Pausable.sol\":1945:2051  function _requirePaused() internal view virtual {... */\n    tag_142:\n        /* \"@openzeppelin/contracts/security/Pausable.sol\":2011:2019  paused() */\n      tag_380\n        /* \"@openzeppelin/contracts/security/Pausable.sol\":2011:2017  paused */\n      tag_62\n        /* \"@openzeppelin/contracts/security/Pausable.sol\":2011:2019  paused() */\n      jump\t// in\n    tag_380:\n        /* \"@openzeppelin/contracts/security/Pausable.sol\":2003:2044  require(paused(), \"Pausable: not paused\") */\n      tag_381\n      jumpi\n      mload(0x40)\n      0x08c379a000000000000000000000000000000000000000000000000000000000\n      dup2\n      mstore\n      0x04\n      add\n      tag_382\n      swap1\n      tag_383\n      jump\t// in\n    tag_382:\n      mload(0x40)\n      dup1\n      swap2\n      sub\n      swap1\n      revert\n    tag_381:\n        /* \"@openzeppelin/contracts/security/Pausable.sol\":1945:2051  function _requirePaused() internal view virtual {... */\n      jump\t// out\n        /* \"@openzeppelin/contracts/security/Pausable.sol\":2433:2550  function _unpause() internal virtual whenPaused {... */\n    tag_147:\n        /* \"@openzeppelin/contracts/security/Pausable.sol\":1486:1502  _requirePaused() */\n      tag_385\n        /* \"@openzeppelin/contracts/security/Pausable.sol\":1486:1500  _requirePaused */\n      tag_142\n        /* \"@openzeppelin/contracts/security/Pausable.sol\":1486:1502  _requirePaused() */\n      jump\t// in\n    tag_385:\n        /* \"@openzeppelin/contracts/security/Pausable.sol\":2501:2506  false */\n      0x00\n        /* \"@openzeppelin/contracts/security/Pausable.sol\":2491:2498  _paused */\n      dup1\n      0x00\n        /* \"@openzeppelin/contracts/security/Pausable.sol\":2491:2506  _paused = false */\n      0x0100\n      exp\n      dup2\n      sload\n      dup2\n      0xff\n      mul\n      not\n      and\n      swap1\n      dup4\n      iszero\n      iszero\n      mul\n      or\n      swap1\n      sstore\n      pop\n        /* \"@openzeppelin/contracts/security/Pausable.sol\":2521:2543  Unpaused(_msgSender()) */\n      0x5db9ee0a495bf2e6ff9c91a7834c1ba4fdd244a5e8aa4e537bd38aeae4b073aa\n        /* \"@openzeppelin/contracts/security/Pausable.sol\":2530:2542  _msgSender() */\n      tag_387\n        /* \"@openzeppelin/contracts/security/Pausable.sol\":2530:2540  _msgSender */\n      tag_374\n        /* \"@openzeppelin/contracts/security/Pausable.sol\":2530:2542  _msgSender() */\n      jump\t// in\n    tag_387:\n        /* \"@openzeppelin/contracts/security/Pausable.sol\":2521:2543  Unpaused(_msgSender()) */\n      mload(0x40)\n      tag_388\n      swap2\n      swap1\n      tag_88\n      jump\t// in\n    tag_388:\n      mload(0x40)\n      dup1\n      swap2\n      sub\n      swap1\n      log1\n        /* \"@openzeppelin/contracts/security/Pausable.sol\":2433:2550  function _unpause() internal virtual whenPaused {... */\n      jump\t// out\n        /* \"@openzeppelin/contracts/security/Pausable.sol\":1767:1873  function _requireNotPaused() internal view virtual {... */\n    tag_150:\n        /* \"@openzeppelin/contracts/security/Pausable.sol\":1837:1845  paused() */\n      tag_390\n        /* \"@openzeppelin/contracts/security/Pausable.sol\":1837:1843  paused */\n      tag_62\n        /* \"@openzeppelin/contracts/security/Pausable.sol\":1837:1845  paused() */\n      jump\t// in\n    tag_390:\n        /* \"@openzeppelin/contracts/security/Pausable.sol\":1836:1845  !paused() */\n      iszero\n        /* \"@openzeppelin/contracts/security/Pausable.sol\":1828:1866  require(!paused(), \"Pausable: paused\") */\n      tag_391\n      jumpi\n      mload(0x40)\n      0x08c379a000000000000000000000000000000000000000000000000000000000\n      dup2\n      mstore\n      0x04\n      add\n      tag_392\n      swap1\n      tag_393\n      jump\t// in\n    tag_392:\n      mload(0x40)\n      dup1\n      swap2\n      sub\n      swap1\n      revert\n    tag_391:\n        /* \"@openzeppelin/contracts/security/Pausable.sol\":1767:1873  function _requireNotPaused() internal view virtual {... */\n      jump\t// out\n        /* \"@openzeppelin/contracts/security/Pausable.sol\":2186:2301  function _pause() internal virtual whenNotPaused {... */\n    tag_155:\n        /* \"@openzeppelin/contracts/security/Pausable.sol\":1239:1258  _requireNotPaused() */\n      tag_395\n        /* \"@openzeppelin/contracts/security/Pausable.sol\":1239:1256  _requireNotPaused */\n      tag_150\n        /* \"@openzeppelin/contracts/security/Pausable.sol\":1239:1258  _requireNotPaused() */\n      jump\t// in\n    tag_395:\n        /* \"@openzeppelin/contracts/security/Pausable.sol\":2255:2259  true */\n      0x01\n        /* \"@openzeppelin/contracts/security/Pausable.sol\":2245:2252  _paused */\n      0x00\n      dup1\n        /* \"@openzeppelin/contracts/security/Pausable.sol\":2245:2259  _paused = true */\n      0x0100\n      exp\n      dup2\n      sload\n      dup2\n      0xff\n      mul\n      not\n      and\n      swap1\n      dup4\n      iszero\n      iszero\n      mul\n      or\n      swap1\n      sstore\n      pop\n        /* \"@openzeppelin/contracts/security/Pausable.sol\":2274:2294  Paused(_msgSender()) */\n      0x62e78cea01bee320cd4e420270b5ea74000d11b0c9f74754ebdbfc544b05a258\n        /* \"@openzeppelin/contracts/security/Pausable.sol\":2281:2293  _msgSender() */\n      tag_397\n        /* \"@openzeppelin/contracts/security/Pausable.sol\":2281:2291  _msgSender */\n      tag_374\n        /* \"@openzeppelin/contracts/security/Pausable.sol\":2281:2293  _msgSender() */\n      jump\t// in\n    tag_397:\n        /* \"@openzeppelin/contracts/security/Pausable.sol\":2274:2294  Paused(_msgSender()) */\n      mload(0x40)\n      tag_398\n      swap2\n      swap1\n      tag_88\n      jump\t// in\n    tag_398:\n      mload(0x40)\n      dup1\n      swap2\n      sub\n      swap1\n      log1\n        /* \"@openzeppelin/contracts/security/Pausable.sol\":2186:2301  function _pause() internal virtual whenNotPaused {... */\n      jump\t// out\n        /* \"@openzeppelin/contracts/access/Ownable.sol\":2433:2620  function _transferOwnership(address newOwner) internal virtual {... */\n    tag_231:\n        /* \"@openzeppelin/contracts/access/Ownable.sol\":2506:2522  address oldOwner */\n      0x00\n        /* \"@openzeppelin/contracts/access/Ownable.sol\":2525:2531  _owner */\n      dup1\n      0x01\n      swap1\n      sload\n      swap1\n      0x0100\n      exp\n      swap1\n      div\n      0xffffffffffffffffffffffffffffffffffffffff\n      and\n        /* \"@openzeppelin/contracts/access/Ownable.sol\":2506:2531  address oldOwner = _owner */\n      swap1\n      pop\n        /* \"@openzeppelin/contracts/access/Ownable.sol\":2550:2558  newOwner */\n      dup2\n        /* \"@openzeppelin/contracts/access/Ownable.sol\":2541:2547  _owner */\n      0x00\n      0x01\n        /* \"@openzeppelin/contracts/access/Ownable.sol\":2541:2558  _owner = newOwner */\n      0x0100\n      exp\n      dup2\n      sload\n      dup2\n      0xffffffffffffffffffffffffffffffffffffffff\n      mul\n      not\n      and\n      swap1\n      dup4\n      0xffffffffffffffffffffffffffffffffffffffff\n      and\n      mul\n      or\n      swap1\n      sstore\n      pop\n        /* \"@openzeppelin/contracts/access/Ownable.sol\":2604:2612  newOwner */\n      dup2\n        /* \"@openzeppelin/contracts/access/Ownable.sol\":2573:2613  OwnershipTransferred(oldOwner, newOwner) */\n      0xffffffffffffffffffffffffffffffffffffffff\n      and\n        /* \"@openzeppelin/contracts/access/Ownable.sol\":2594:2602  oldOwner */\n      dup2\n        /* \"@openzeppelin/contracts/access/Ownable.sol\":2573:2613  OwnershipTransferred(oldOwner, newOwner) */\n      0xffffffffffffffffffffffffffffffffffffffff\n      and\n      0x8be0079c531659141344cd1fd0a4f28419497f9722a3daafe3b4186f6b6457e0\n      mload(0x40)\n      mload(0x40)\n      dup1\n      swap2\n      sub\n      swap1\n      log3\n        /* \"@openzeppelin/contracts/access/Ownable.sol\":2496:2620  {... */\n      pop\n        /* \"@openzeppelin/contracts/access/Ownable.sol\":2433:2620  function _transferOwnership(address newOwner) internal virtual {... */\n      pop\n      jump\t// out\n        /* \"token_eco_system_dev_contracts/contracts_ready_for_prod/Copy_TokenEcoSystemParticipationV1_1.sol\":12966:13149  function currentFeed()private view returns(string memory){... */\n    tag_307:\n        /* \"token_eco_system_dev_contracts/contracts_ready_for_prod/Copy_TokenEcoSystemParticipationV1_1.sol\":13009:13022  string memory */\n      0x60\n        /* \"token_eco_system_dev_contracts/contracts_ready_for_prod/Copy_TokenEcoSystemParticipationV1_1.sol\":13033:13053  string memory result */\n      dup1\n        /* \"token_eco_system_dev_contracts/contracts_ready_for_prod/Copy_TokenEcoSystemParticipationV1_1.sol\":13063:13075  poolRateFeed */\n      0x01\n      0x14\n      swap1\n      sload\n      swap1\n      0x0100\n      exp\n      swap1\n      div\n      0xff\n      and\n        /* \"token_eco_system_dev_contracts/contracts_ready_for_prod/Copy_TokenEcoSystemParticipationV1_1.sol\":13063:13119  poolRateFeed ? result = \"Pool\" : result = \"AggregatorV3\" */\n      tag_401\n      jumpi\n        /* \"token_eco_system_dev_contracts/contracts_ready_for_prod/Copy_TokenEcoSystemParticipationV1_1.sol\":13096:13119  result = \"AggregatorV3\" */\n      mload(0x40)\n      dup1\n      0x40\n      add\n      0x40\n      mstore\n      dup1\n      0x0c\n      dup2\n      mstore\n      0x20\n      add\n      0x41676772656761746f7256330000000000000000000000000000000000000000\n      dup2\n      mstore\n      pop\n      swap1\n      pop\n      dup1\n        /* \"token_eco_system_dev_contracts/contracts_ready_for_prod/Copy_TokenEcoSystemParticipationV1_1.sol\":13063:13119  poolRateFeed ? result = \"Pool\" : result = \"AggregatorV3\" */\n      jump(tag_402)\n    tag_401:\n        /* \"token_eco_system_dev_contracts/contracts_ready_for_prod/Copy_TokenEcoSystemParticipationV1_1.sol\":13078:13093  result = \"Pool\" */\n      mload(0x40)\n      dup1\n      0x40\n      add\n      0x40\n      mstore\n      dup1\n      0x04\n      dup2\n      mstore\n      0x20\n      add\n      0x506f6f6c00000000000000000000000000000000000000000000000000000000\n      dup2\n      mstore\n      pop\n      swap1\n      pop\n      dup1\n        /* \"token_eco_system_dev_contracts/contracts_ready_for_prod/Copy_TokenEcoSystemParticipationV1_1.sol\":13063:13119  poolRateFeed ? result = \"Pool\" : result = \"AggregatorV3\" */\n    tag_402:\n      pop\n        /* \"token_eco_system_dev_contracts/contracts_ready_for_prod/Copy_TokenEcoSystemParticipationV1_1.sol\":13136:13142  result */\n      dup1\n        /* \"token_eco_system_dev_contracts/contracts_ready_for_prod/Copy_TokenEcoSystemParticipationV1_1.sol\":13129:13142  return result */\n      swap2\n      pop\n      pop\n        /* \"token_eco_system_dev_contracts/contracts_ready_for_prod/Copy_TokenEcoSystemParticipationV1_1.sol\":12966:13149  function currentFeed()private view returns(string memory){... */\n      swap1\n      jump\t// out\n        /* \"token_eco_system_dev_contracts/contracts_ready_for_prod/Copy_TokenEcoSystemParticipationV1_1.sol\":11782:12703  function getRate()... */\n    tag_347:\n        /* \"token_eco_system_dev_contracts/contracts_ready_for_prod/Copy_TokenEcoSystemParticipationV1_1.sol\":11847:11854  uint256 */\n      0x00\n        /* \"token_eco_system_dev_contracts/contracts_ready_for_prod/Copy_TokenEcoSystemParticipationV1_1.sol\":11868:11875  uint256 */\n      dup1\n        /* \"token_eco_system_dev_contracts/contracts_ready_for_prod/Copy_TokenEcoSystemParticipationV1_1.sol\":11889:11902  string memory */\n      0x60\n        /* \"token_eco_system_dev_contracts/contracts_ready_for_prod/Copy_TokenEcoSystemParticipationV1_1.sol\":11916:11923  uint256 */\n      0x00\n        /* \"token_eco_system_dev_contracts/contracts_ready_for_prod/Copy_TokenEcoSystemParticipationV1_1.sol\":11952:11964  poolRateFeed */\n      0x01\n      0x14\n      swap1\n      sload\n      swap1\n      0x0100\n      exp\n      swap1\n      div\n      0xff\n      and\n        /* \"token_eco_system_dev_contracts/contracts_ready_for_prod/Copy_TokenEcoSystemParticipationV1_1.sol\":11948:12323  if (poolRateFeed) {... */\n      iszero\n      tag_404\n      jumpi\n        /* \"token_eco_system_dev_contracts/contracts_ready_for_prod/Copy_TokenEcoSystemParticipationV1_1.sol\":12005:12017  poolRateFeed */\n      0x01\n      0x14\n      swap1\n      sload\n      swap1\n      0x0100\n      exp\n      swap1\n      div\n      0xff\n      and\n        /* \"token_eco_system_dev_contracts/contracts_ready_for_prod/Copy_TokenEcoSystemParticipationV1_1.sol\":12005:12058  poolRateFeed && (address(poolConsumer) != address(0)) */\n      dup1\n      iszero\n      tag_405\n      jumpi\n      pop\n        /* \"token_eco_system_dev_contracts/contracts_ready_for_prod/Copy_TokenEcoSystemParticipationV1_1.sol\":12055:12056  0 */\n      0x00\n        /* \"token_eco_system_dev_contracts/contracts_ready_for_prod/Copy_TokenEcoSystemParticipationV1_1.sol\":12022:12057  address(poolConsumer) != address(0) */\n      0xffffffffffffffffffffffffffffffffffffffff\n      and\n        /* \"token_eco_system_dev_contracts/contracts_ready_for_prod/Copy_TokenEcoSystemParticipationV1_1.sol\":12030:12042  poolConsumer */\n      0x06\n      0x00\n      swap1\n      sload\n      swap1\n      0x0100\n      exp\n      swap1\n      div\n      0xffffffffffffffffffffffffffffffffffffffff\n      and\n        /* \"token_eco_system_dev_contracts/contracts_ready_for_prod/Copy_TokenEcoSystemParticipationV1_1.sol\":12022:12057  address(poolConsumer) != address(0) */\n      0xffffffffffffffffffffffffffffffffffffffff\n      and\n      eq\n      iszero\n        /* \"token_eco_system_dev_contracts/contracts_ready_for_prod/Copy_TokenEcoSystemParticipationV1_1.sol\":12005:12058  poolRateFeed && (address(poolConsumer) != address(0)) */\n    tag_405:\n        /* \"token_eco_system_dev_contracts/contracts_ready_for_prod/Copy_TokenEcoSystemParticipationV1_1.sol\":11980:12124  require(... */\n      tag_406\n      jumpi\n      mload(0x40)\n      0x08c379a000000000000000000000000000000000000000000000000000000000\n      dup2\n      mstore\n      0x04\n      add\n      tag_407\n      swap1\n      tag_322\n      jump\t// in\n    tag_407:\n      mload(0x40)\n      dup1\n      swap2\n      sub\n      swap1\n      revert\n    tag_406:\n        /* \"token_eco_system_dev_contracts/contracts_ready_for_prod/Copy_TokenEcoSystemParticipationV1_1.sol\":11948:12323  if (poolRateFeed) {... */\n      jump(tag_408)\n    tag_404:\n        /* \"token_eco_system_dev_contracts/contracts_ready_for_prod/Copy_TokenEcoSystemParticipationV1_1.sol\":12181:12193  poolRateFeed */\n      0x01\n      0x14\n      swap1\n      sload\n      swap1\n      0x0100\n      exp\n      swap1\n      div\n      0xff\n      and\n        /* \"token_eco_system_dev_contracts/contracts_ready_for_prod/Copy_TokenEcoSystemParticipationV1_1.sol\":12180:12193  !poolRateFeed */\n      iszero\n        /* \"token_eco_system_dev_contracts/contracts_ready_for_prod/Copy_TokenEcoSystemParticipationV1_1.sol\":12180:12240  !poolRateFeed && (address(aggregatorConsumer) != address(0)) */\n      dup1\n      iszero\n      tag_409\n      jumpi\n      pop\n        /* \"token_eco_system_dev_contracts/contracts_ready_for_prod/Copy_TokenEcoSystemParticipationV1_1.sol\":12237:12238  0 */\n      0x00\n        /* \"token_eco_system_dev_contracts/contracts_ready_for_prod/Copy_TokenEcoSystemParticipationV1_1.sol\":12198:12239  address(aggregatorConsumer) != address(0) */\n      0xffffffffffffffffffffffffffffffffffffffff\n      and\n        /* \"token_eco_system_dev_contracts/contracts_ready_for_prod/Copy_TokenEcoSystemParticipationV1_1.sol\":12206:12224  aggregatorConsumer */\n      0x05\n      0x00\n      swap1\n      sload\n      swap1\n      0x0100\n      exp\n      swap1\n      div\n      0xffffffffffffffffffffffffffffffffffffffff\n      and\n        /* \"token_eco_system_dev_contracts/contracts_ready_for_prod/Copy_TokenEcoSystemParticipationV1_1.sol\":12198:12239  address(aggregatorConsumer) != address(0) */\n      0xffffffffffffffffffffffffffffffffffffffff\n      and\n      eq\n      iszero\n        /* \"token_eco_system_dev_contracts/contracts_ready_for_prod/Copy_TokenEcoSystemParticipationV1_1.sol\":12180:12240  !poolRateFeed && (address(aggregatorConsumer) != address(0)) */\n    tag_409:\n        /* \"token_eco_system_dev_contracts/contracts_ready_for_prod/Copy_TokenEcoSystemParticipationV1_1.sol\":12155:12312  require(... */\n      tag_410\n      jumpi\n      mload(0x40)\n      0x08c379a000000000000000000000000000000000000000000000000000000000\n      dup2\n      mstore\n      0x04\n      add\n      tag_411\n      swap1\n      tag_317\n      jump\t// in\n    tag_411:\n      mload(0x40)\n      dup1\n      swap2\n      sub\n      swap1\n      revert\n    tag_410:\n        /* \"token_eco_system_dev_contracts/contracts_ready_for_prod/Copy_TokenEcoSystemParticipationV1_1.sol\":11948:12323  if (poolRateFeed) {... */\n    tag_408:\n        /* \"token_eco_system_dev_contracts/contracts_ready_for_prod/Copy_TokenEcoSystemParticipationV1_1.sol\":12347:12359  uint256 rate */\n      0x00\n        /* \"token_eco_system_dev_contracts/contracts_ready_for_prod/Copy_TokenEcoSystemParticipationV1_1.sol\":12373:12389  uint256 decimals */\n      dup1\n        /* \"token_eco_system_dev_contracts/contracts_ready_for_prod/Copy_TokenEcoSystemParticipationV1_1.sol\":12403:12427  string memory rateString */\n      0x00\n        /* \"token_eco_system_dev_contracts/contracts_ready_for_prod/Copy_TokenEcoSystemParticipationV1_1.sol\":12441:12453  uint256 date */\n      dup1\n        /* \"token_eco_system_dev_contracts/contracts_ready_for_prod/Copy_TokenEcoSystemParticipationV1_1.sol\":12467:12479  poolRateFeed */\n      0x01\n      0x14\n      swap1\n      sload\n      swap1\n      0x0100\n      exp\n      swap1\n      div\n      0xff\n      and\n        /* \"token_eco_system_dev_contracts/contracts_ready_for_prod/Copy_TokenEcoSystemParticipationV1_1.sol\":12466:12479  !poolRateFeed */\n      iszero\n        /* \"token_eco_system_dev_contracts/contracts_ready_for_prod/Copy_TokenEcoSystemParticipationV1_1.sol\":12466:12574  !poolRateFeed... */\n      tag_412\n      jumpi\n        /* \"token_eco_system_dev_contracts/contracts_ready_for_prod/Copy_TokenEcoSystemParticipationV1_1.sol\":12551:12563  poolConsumer */\n      0x06\n      0x00\n      swap1\n      sload\n      swap1\n      0x0100\n      exp\n      swap1\n      div\n      0xffffffffffffffffffffffffffffffffffffffff\n      and\n        /* \"token_eco_system_dev_contracts/contracts_ready_for_prod/Copy_TokenEcoSystemParticipationV1_1.sol\":12551:12572  poolConsumer.poolRate */\n      0xffffffffffffffffffffffffffffffffffffffff\n      and\n      0x85096edc\n        /* \"token_eco_system_dev_contracts/contracts_ready_for_prod/Copy_TokenEcoSystemParticipationV1_1.sol\":12551:12574  poolConsumer.poolRate() */\n      mload(0x40)\n      dup2\n      0xffffffff\n      and\n      0xe0\n      shl\n      dup2\n      mstore\n      0x04\n      add\n      0x00\n      mload(0x40)\n      dup1\n      dup4\n      sub\n      dup2\n      0x00\n      dup8\n      gas\n      call\n      iszero\n      dup1\n      iszero\n      tag_414\n      jumpi\n      returndatasize\n      0x00\n      dup1\n      returndatacopy\n      revert(0x00, returndatasize)\n    tag_414:\n      pop\n      pop\n      pop\n      pop\n      mload(0x40)\n      returndatasize\n      0x00\n      dup3\n      returndatacopy\n      returndatasize\n      not(0x1f)\n      0x1f\n      dup3\n      add\n      and\n      dup3\n      add\n      dup1\n      0x40\n      mstore\n      pop\n      dup2\n      add\n      swap1\n      tag_415\n      swap2\n      swap1\n      tag_416\n      jump\t// in\n    tag_415:\n        /* \"token_eco_system_dev_contracts/contracts_ready_for_prod/Copy_TokenEcoSystemParticipationV1_1.sol\":12466:12574  !poolRateFeed... */\n      jump(tag_417)\n    tag_412:\n        /* \"token_eco_system_dev_contracts/contracts_ready_for_prod/Copy_TokenEcoSystemParticipationV1_1.sol\":12498:12516  aggregatorConsumer */\n      0x05\n      0x00\n      swap1\n      sload\n      swap1\n      0x0100\n      exp\n      swap1\n      div\n      0xffffffffffffffffffffffffffffffffffffffff\n      and\n        /* \"token_eco_system_dev_contracts/contracts_ready_for_prod/Copy_TokenEcoSystemParticipationV1_1.sol\":12498:12530  aggregatorConsumer.getLatestRate */\n      0xffffffffffffffffffffffffffffffffffffffff\n      and\n      0xe1e7ff77\n        /* \"token_eco_system_dev_contracts/contracts_ready_for_prod/Copy_TokenEcoSystemParticipationV1_1.sol\":12498:12532  aggregatorConsumer.getLatestRate() */\n      mload(0x40)\n      dup2\n      0xffffffff\n      and\n      0xe0\n      shl\n      dup2\n      mstore\n      0x04\n      add\n      0x00\n      mload(0x40)\n      dup1\n      dup4\n      sub\n      dup2\n      0x00\n      dup8\n      gas\n      call\n      iszero\n      dup1\n      iszero\n      tag_419\n      jumpi\n      returndatasize\n      0x00\n      dup1\n      returndatacopy\n      revert(0x00, returndatasize)\n    tag_419:\n      pop\n      pop\n      pop\n      pop\n      mload(0x40)\n      returndatasize\n      0x00\n      dup3\n      returndatacopy\n      returndatasize\n      not(0x1f)\n      0x1f\n      dup3\n      add\n      and\n      dup3\n      add\n      dup1\n      0x40\n      mstore\n      pop\n      dup2\n      add\n      swap1\n      tag_420\n      swap2\n      swap1\n      tag_416\n      jump\t// in\n    tag_420:\n        /* \"token_eco_system_dev_contracts/contracts_ready_for_prod/Copy_TokenEcoSystemParticipationV1_1.sol\":12466:12574  !poolRateFeed... */\n    tag_417:\n        /* \"token_eco_system_dev_contracts/contracts_ready_for_prod/Copy_TokenEcoSystemParticipationV1_1.sol\":12333:12574  (... */\n      swap4\n      pop\n      swap4\n      pop\n      swap4\n      pop\n      swap4\n      pop\n        /* \"token_eco_system_dev_contracts/contracts_ready_for_prod/Copy_TokenEcoSystemParticipationV1_1.sol\":12589:12645  GetRate(rate, decimals, rateString, date, currentFeed()) */\n      0xf533c7ebcab9ca95557310f62aa7ad41d3a6b17aebec7762b994ef1a14863865\n        /* \"token_eco_system_dev_contracts/contracts_ready_for_prod/Copy_TokenEcoSystemParticipationV1_1.sol\":12597:12601  rate */\n      dup5\n        /* \"token_eco_system_dev_contracts/contracts_ready_for_prod/Copy_TokenEcoSystemParticipationV1_1.sol\":12603:12611  decimals */\n      dup5\n        /* \"token_eco_system_dev_contracts/contracts_ready_for_prod/Copy_TokenEcoSystemParticipationV1_1.sol\":12613:12623  rateString */\n      dup5\n        /* \"token_eco_system_dev_contracts/contracts_ready_for_prod/Copy_TokenEcoSystemParticipationV1_1.sol\":12625:12629  date */\n      dup5\n        /* \"token_eco_system_dev_contracts/contracts_ready_for_prod/Copy_TokenEcoSystemParticipationV1_1.sol\":12631:12644  currentFeed() */\n      tag_421\n        /* \"token_eco_system_dev_contracts/contracts_ready_for_prod/Copy_TokenEcoSystemParticipationV1_1.sol\":12631:12642  currentFeed */\n      tag_307\n        /* \"token_eco_system_dev_contracts/contracts_ready_for_prod/Copy_TokenEcoSystemParticipationV1_1.sol\":12631:12644  currentFeed() */\n      jump\t// in\n    tag_421:\n        /* \"token_eco_system_dev_contracts/contracts_ready_for_prod/Copy_TokenEcoSystemParticipationV1_1.sol\":12589:12645  GetRate(rate, decimals, rateString, date, currentFeed()) */\n      mload(0x40)\n      tag_422\n      swap6\n      swap5\n      swap4\n      swap3\n      swap2\n      swap1\n      tag_423\n      jump\t// in\n    tag_422:\n      mload(0x40)\n      dup1\n      swap2\n      sub\n      swap1\n      log1\n        /* \"token_eco_system_dev_contracts/contracts_ready_for_prod/Copy_TokenEcoSystemParticipationV1_1.sol\":12663:12667  rate */\n      dup4\n        /* \"token_eco_system_dev_contracts/contracts_ready_for_prod/Copy_TokenEcoSystemParticipationV1_1.sol\":12669:12677  decimals */\n      dup4\n        /* \"token_eco_system_dev_contracts/contracts_ready_for_prod/Copy_TokenEcoSystemParticipationV1_1.sol\":12679:12689  rateString */\n      dup4\n        /* \"token_eco_system_dev_contracts/contracts_ready_for_prod/Copy_TokenEcoSystemParticipationV1_1.sol\":12691:12695  date */\n      dup4\n        /* \"token_eco_system_dev_contracts/contracts_ready_for_prod/Copy_TokenEcoSystemParticipationV1_1.sol\":12655:12696  return (rate, decimals, rateString, date) */\n      swap8\n      pop\n      swap8\n      pop\n      swap8\n      pop\n      swap8\n      pop\n      pop\n      pop\n      pop\n      pop\n        /* \"token_eco_system_dev_contracts/contracts_ready_for_prod/Copy_TokenEcoSystemParticipationV1_1.sol\":11782:12703  function getRate()... */\n      swap1\n      swap2\n      swap3\n      swap4\n      jump\t// out\n        /* \"token_eco_system_dev_contracts/contracts_ready_for_prod/Copy_TokenEcoSystemParticipationV1_1.sol\":12772:12960  function calculatePoints(... */\n    tag_354:\n        /* \"token_eco_system_dev_contracts/contracts_ready_for_prod/Copy_TokenEcoSystemParticipationV1_1.sol\":12897:12904  uint256 */\n      0x00\n        /* \"token_eco_system_dev_contracts/contracts_ready_for_prod/Copy_TokenEcoSystemParticipationV1_1.sol\":12945:12953  decimals */\n      dup2\n        /* \"token_eco_system_dev_contracts/contracts_ready_for_prod/Copy_TokenEcoSystemParticipationV1_1.sol\":12941:12943  10 */\n      0x0a\n        /* \"token_eco_system_dev_contracts/contracts_ready_for_prod/Copy_TokenEcoSystemParticipationV1_1.sol\":12941:12953  10**decimals */\n      tag_425\n      swap2\n      swap1\n      tag_247\n      jump\t// in\n    tag_425:\n        /* \"token_eco_system_dev_contracts/contracts_ready_for_prod/Copy_TokenEcoSystemParticipationV1_1.sol\":12933:12937  rate */\n      dup4\n        /* \"token_eco_system_dev_contracts/contracts_ready_for_prod/Copy_TokenEcoSystemParticipationV1_1.sol\":12924:12930  amount */\n      dup6\n        /* \"token_eco_system_dev_contracts/contracts_ready_for_prod/Copy_TokenEcoSystemParticipationV1_1.sol\":12924:12937  amount * rate */\n      tag_426\n      swap2\n      swap1\n      tag_249\n      jump\t// in\n    tag_426:\n        /* \"token_eco_system_dev_contracts/contracts_ready_for_prod/Copy_TokenEcoSystemParticipationV1_1.sol\":12923:12953  (amount * rate) / 10**decimals */\n      tag_427\n      swap2\n      swap1\n      tag_251\n      jump\t// in\n    tag_427:\n        /* \"token_eco_system_dev_contracts/contracts_ready_for_prod/Copy_TokenEcoSystemParticipationV1_1.sol\":12916:12953  return (amount * rate) / 10**decimals */\n      swap1\n      pop\n        /* \"token_eco_system_dev_contracts/contracts_ready_for_prod/Copy_TokenEcoSystemParticipationV1_1.sol\":12772:12960  function calculatePoints(... */\n      swap4\n      swap3\n      pop\n      pop\n      pop\n      jump\t// out\n        /* \"@openzeppelin/contracts/token/ERC20/utils/SafeERC20.sol\":974:1215  function safeTransferFrom(... */\n    tag_362:\n        /* \"@openzeppelin/contracts/token/ERC20/utils/SafeERC20.sol\":1112:1208  _callOptionalReturn(token, abi.encodeWithSelector(token.transferFrom.selector, from, to, value)) */\n      tag_429\n        /* \"@openzeppelin/contracts/token/ERC20/utils/SafeERC20.sol\":1132:1137  token */\n      dup5\n        /* \"@openzeppelin/contracts/token/ERC20/utils/SafeERC20.sol\":1162:1189  token.transferFrom.selector */\n      shl(0xe0, 0x23b872dd)\n        /* \"@openzeppelin/contracts/token/ERC20/utils/SafeERC20.sol\":1191:1195  from */\n      dup6\n        /* \"@openzeppelin/contracts/token/ERC20/utils/SafeERC20.sol\":1197:1199  to */\n      dup6\n        /* \"@openzeppelin/contracts/token/ERC20/utils/SafeERC20.sol\":1201:1206  value */\n      dup6\n        /* \"@openzeppelin/contracts/token/ERC20/utils/SafeERC20.sol\":1139:1207  abi.encodeWithSelector(token.transferFrom.selector, from, to, value) */\n      add(0x24, mload(0x40))\n      tag_430\n      swap4\n      swap3\n      swap2\n      swap1\n      tag_431\n      jump\t// in\n    tag_430:\n      mload(0x40)\n      0x20\n      dup2\n      dup4\n      sub\n      sub\n      dup2\n      mstore\n      swap1\n      0x40\n      mstore\n      swap1\n      not(0xffffffffffffffffffffffffffffffffffffffffffffffffffffffff)\n      and\n      0x20\n      dup3\n      add\n      dup1\n      mload\n      0xffffffffffffffffffffffffffffffffffffffffffffffffffffffff\n      dup4\n      dup2\n      dup4\n      and\n      or\n      dup4\n      mstore\n      pop\n      pop\n      pop\n      pop\n        /* \"@openzeppelin/contracts/token/ERC20/utils/SafeERC20.sol\":1112:1131  _callOptionalReturn */\n      tag_432\n        /* \"@openzeppelin/contracts/token/ERC20/utils/SafeERC20.sol\":1112:1208  _callOptionalReturn(token, abi.encodeWithSelector(token.transferFrom.selector, from, to, value)) */\n      jump\t// in\n    tag_429:\n        /* \"@openzeppelin/contracts/token/ERC20/utils/SafeERC20.sol\":974:1215  function safeTransferFrom(... */\n      pop\n      pop\n      pop\n      pop\n      jump\t// out\n        /* \"token_eco_system_dev_contracts/contracts_ready_for_prod/Copy_TokenEcoSystemParticipationV1_1.sol\":13206:13515  function burnIncomingTokens(uint256 amount) private returns (bool) {... */\n    tag_364:\n        /* \"token_eco_system_dev_contracts/contracts_ready_for_prod/Copy_TokenEcoSystemParticipationV1_1.sol\":13267:13271  bool */\n      0x00\n        /* \"token_eco_system_dev_contracts/contracts_ready_for_prod/Copy_TokenEcoSystemParticipationV1_1.sol\":13300:13301  0 */\n      dup1\n        /* \"token_eco_system_dev_contracts/contracts_ready_for_prod/Copy_TokenEcoSystemParticipationV1_1.sol\":13291:13297  amount */\n      dup3\n        /* \"token_eco_system_dev_contracts/contracts_ready_for_prod/Copy_TokenEcoSystemParticipationV1_1.sol\":13291:13301  amount > 0 */\n      gt\n        /* \"token_eco_system_dev_contracts/contracts_ready_for_prod/Copy_TokenEcoSystemParticipationV1_1.sol\":13283:13329  require(amount > 0, \"No tokens to be burned!\") */\n      tag_434\n      jumpi\n      mload(0x40)\n      0x08c379a000000000000000000000000000000000000000000000000000000000\n      dup2\n      mstore\n      0x04\n      add\n      tag_435\n      swap1\n      tag_436\n      jump\t// in\n    tag_435:\n      mload(0x40)\n      dup1\n      swap2\n      sub\n      swap1\n      revert\n    tag_434:\n        /* \"token_eco_system_dev_contracts/contracts_ready_for_prod/Copy_TokenEcoSystemParticipationV1_1.sol\":13339:13354  uint256 balance */\n      0x00\n        /* \"token_eco_system_dev_contracts/contracts_ready_for_prod/Copy_TokenEcoSystemParticipationV1_1.sol\":13357:13368  balanceOf() */\n      tag_437\n        /* \"token_eco_system_dev_contracts/contracts_ready_for_prod/Copy_TokenEcoSystemParticipationV1_1.sol\":13357:13366  balanceOf */\n      tag_78\n        /* \"token_eco_system_dev_contracts/contracts_ready_for_prod/Copy_TokenEcoSystemParticipationV1_1.sol\":13357:13368  balanceOf() */\n      jump\t// in\n    tag_437:\n        /* \"token_eco_system_dev_contracts/contracts_ready_for_prod/Copy_TokenEcoSystemParticipationV1_1.sol\":13339:13368  uint256 balance = balanceOf() */\n      swap1\n      pop\n        /* \"token_eco_system_dev_contracts/contracts_ready_for_prod/Copy_TokenEcoSystemParticipationV1_1.sol\":13378:13383  token */\n      immutable(\"0x448072f8ce0e9d09a2030ee35ba0d03fccbd0c61c3623f421061fbafdf5a67a9\")\n        /* \"token_eco_system_dev_contracts/contracts_ready_for_prod/Copy_TokenEcoSystemParticipationV1_1.sol\":13378:13388  token.burn */\n      0xffffffffffffffffffffffffffffffffffffffff\n      and\n      0x42966c68\n        /* \"token_eco_system_dev_contracts/contracts_ready_for_prod/Copy_TokenEcoSystemParticipationV1_1.sol\":13389:13395  amount */\n      dup5\n        /* \"token_eco_system_dev_contracts/contracts_ready_for_prod/Copy_TokenEcoSystemParticipationV1_1.sol\":13378:13396  token.burn(amount) */\n      mload(0x40)\n      dup3\n      0xffffffff\n      and\n      0xe0\n      shl\n      dup2\n      mstore\n      0x04\n      add\n      tag_438\n      swap2\n      swap1\n      tag_58\n      jump\t// in\n    tag_438:\n      0x00\n      mload(0x40)\n      dup1\n      dup4\n      sub\n      dup2\n      0x00\n      dup8\n      dup1\n      extcodesize\n      iszero\n      dup1\n      iszero\n      tag_439\n      jumpi\n      0x00\n      dup1\n      revert\n    tag_439:\n      pop\n      gas\n      call\n      iszero\n      dup1\n      iszero\n      tag_441\n      jumpi\n      returndatasize\n      0x00\n      dup1\n      returndatacopy\n      revert(0x00, returndatasize)\n    tag_441:\n      pop\n      pop\n      pop\n      pop\n        /* \"token_eco_system_dev_contracts/contracts_ready_for_prod/Copy_TokenEcoSystemParticipationV1_1.sol\":13437:13443  amount */\n      dup3\n        /* \"token_eco_system_dev_contracts/contracts_ready_for_prod/Copy_TokenEcoSystemParticipationV1_1.sol\":13429:13436  balance */\n      dup2\n        /* \"token_eco_system_dev_contracts/contracts_ready_for_prod/Copy_TokenEcoSystemParticipationV1_1.sol\":13429:13443  balance-amount */\n      tag_442\n      swap2\n      swap1\n      tag_139\n      jump\t// in\n    tag_442:\n        /* \"token_eco_system_dev_contracts/contracts_ready_for_prod/Copy_TokenEcoSystemParticipationV1_1.sol\":13414:13425  balanceOf() */\n      tag_443\n        /* \"token_eco_system_dev_contracts/contracts_ready_for_prod/Copy_TokenEcoSystemParticipationV1_1.sol\":13414:13423  balanceOf */\n      tag_78\n        /* \"token_eco_system_dev_contracts/contracts_ready_for_prod/Copy_TokenEcoSystemParticipationV1_1.sol\":13414:13425  balanceOf() */\n      jump\t// in\n    tag_443:\n        /* \"token_eco_system_dev_contracts/contracts_ready_for_prod/Copy_TokenEcoSystemParticipationV1_1.sol\":13414:13443  balanceOf() == balance-amount */\n      eq\n        /* \"token_eco_system_dev_contracts/contracts_ready_for_prod/Copy_TokenEcoSystemParticipationV1_1.sol\":13406:13487  require(balanceOf() == balance-amount, \"transaction reverted burn unsuccesfull!\") */\n      tag_444\n      jumpi\n      mload(0x40)\n      0x08c379a000000000000000000000000000000000000000000000000000000000\n      dup2\n      mstore\n      0x04\n      add\n      tag_445\n      swap1\n      tag_446\n      jump\t// in\n    tag_445:\n      mload(0x40)\n      dup1\n      swap2\n      sub\n      swap1\n      revert\n    tag_444:\n        /* \"token_eco_system_dev_contracts/contracts_ready_for_prod/Copy_TokenEcoSystemParticipationV1_1.sol\":13504:13508  true */\n      0x01\n        /* \"token_eco_system_dev_contracts/contracts_ready_for_prod/Copy_TokenEcoSystemParticipationV1_1.sol\":13497:13508  return true */\n      swap2\n      pop\n      pop\n        /* \"token_eco_system_dev_contracts/contracts_ready_for_prod/Copy_TokenEcoSystemParticipationV1_1.sol\":13206:13515  function burnIncomingTokens(uint256 amount) private returns (bool) {... */\n      swap2\n      swap1\n      pop\n      jump\t// out\n        /* \"@openzeppelin/contracts/utils/Context.sol\":640:736  function _msgSender() internal view virtual returns (address) {... */\n    tag_374:\n        /* \"@openzeppelin/contracts/utils/Context.sol\":693:700  address */\n      0x00\n        /* \"@openzeppelin/contracts/utils/Context.sol\":719:729  msg.sender */\n      caller\n        /* \"@openzeppelin/contracts/utils/Context.sol\":712:729  return msg.sender */\n      swap1\n      pop\n        /* \"@openzeppelin/contracts/utils/Context.sol\":640:736  function _msgSender() internal view virtual returns (address) {... */\n      swap1\n      jump\t// out\n        /* \"@openzeppelin/contracts/token/ERC20/utils/SafeERC20.sol\":3747:4453  function _callOptionalReturn(IERC20 token, bytes memory data) private {... */\n    tag_432:\n        /* \"@openzeppelin/contracts/token/ERC20/utils/SafeERC20.sol\":4166:4189  bytes memory returndata */\n      0x00\n        /* \"@openzeppelin/contracts/token/ERC20/utils/SafeERC20.sol\":4192:4261  address(token).functionCall(data, \"SafeERC20: low-level call failed\") */\n      tag_449\n        /* \"@openzeppelin/contracts/token/ERC20/utils/SafeERC20.sol\":4220:4224  data */\n      dup3\n        /* \"@openzeppelin/contracts/token/ERC20/utils/SafeERC20.sol\":4192:4261  address(token).functionCall(data, \"SafeERC20: low-level call failed\") */\n      mload(0x40)\n      dup1\n      0x40\n      add\n      0x40\n      mstore\n      dup1\n      0x20\n      dup2\n      mstore\n      0x20\n      add\n      0x5361666545524332303a206c6f772d6c6576656c2063616c6c206661696c6564\n      dup2\n      mstore\n      pop\n        /* \"@openzeppelin/contracts/token/ERC20/utils/SafeERC20.sol\":4200:4205  token */\n      dup6\n        /* \"@openzeppelin/contracts/token/ERC20/utils/SafeERC20.sol\":4192:4219  address(token).functionCall */\n      0xffffffffffffffffffffffffffffffffffffffff\n      and\n      tag_450\n      swap1\n        /* \"@openzeppelin/contracts/token/ERC20/utils/SafeERC20.sol\":4192:4261  address(token).functionCall(data, \"SafeERC20: low-level call failed\") */\n      swap3\n      swap2\n      swap1\n      0xffffffff\n      and\n      jump\t// in\n    tag_449:\n        /* \"@openzeppelin/contracts/token/ERC20/utils/SafeERC20.sol\":4166:4261  bytes memory returndata = address(token).functionCall(data, \"SafeERC20: low-level call failed\") */\n      swap1\n      pop\n        /* \"@openzeppelin/contracts/token/ERC20/utils/SafeERC20.sol\":4295:4296  0 */\n      0x00\n        /* \"@openzeppelin/contracts/token/ERC20/utils/SafeERC20.sol\":4275:4285  returndata */\n      dup2\n        /* \"@openzeppelin/contracts/token/ERC20/utils/SafeERC20.sol\":4275:4292  returndata.length */\n      mload\n        /* \"@openzeppelin/contracts/token/ERC20/utils/SafeERC20.sol\":4275:4296  returndata.length > 0 */\n      gt\n        /* \"@openzeppelin/contracts/token/ERC20/utils/SafeERC20.sol\":4271:4447  if (returndata.length > 0) {... */\n      iszero\n      tag_451\n      jumpi\n        /* \"@openzeppelin/contracts/token/ERC20/utils/SafeERC20.sol\":4370:4380  returndata */\n      dup1\n        /* \"@openzeppelin/contracts/token/ERC20/utils/SafeERC20.sol\":4359:4389  abi.decode(returndata, (bool)) */\n      dup1\n      0x20\n      add\n      swap1\n      mload\n      dup2\n      add\n      swap1\n      tag_452\n      swap2\n      swap1\n      tag_226\n      jump\t// in\n    tag_452:\n        /* \"@openzeppelin/contracts/token/ERC20/utils/SafeERC20.sol\":4351:4436  require(abi.decode(returndata, (bool)), \"SafeERC20: ERC20 operation did not succeed\") */\n      tag_453\n      jumpi\n      mload(0x40)\n      0x08c379a000000000000000000000000000000000000000000000000000000000\n      dup2\n      mstore\n      0x04\n      add\n      tag_454\n      swap1\n      tag_455\n      jump\t// in\n    tag_454:\n      mload(0x40)\n      dup1\n      swap2\n      sub\n      swap1\n      revert\n    tag_453:\n        /* \"@openzeppelin/contracts/token/ERC20/utils/SafeERC20.sol\":4271:4447  if (returndata.length > 0) {... */\n    tag_451:\n        /* \"@openzeppelin/contracts/token/ERC20/utils/SafeERC20.sol\":3817:4453  {... */\n      pop\n        /* \"@openzeppelin/contracts/token/ERC20/utils/SafeERC20.sol\":3747:4453  function _callOptionalReturn(IERC20 token, bytes memory data) private {... */\n      pop\n      pop\n      jump\t// out\n        /* \"@openzeppelin/contracts/utils/Address.sol\":3861:4084  function functionCall(... */\n    tag_450:\n        /* \"@openzeppelin/contracts/utils/Address.sol\":3994:4006  bytes memory */\n      0x60\n        /* \"@openzeppelin/contracts/utils/Address.sol\":4025:4077  functionCallWithValue(target, data, 0, errorMessage) */\n      tag_457\n        /* \"@openzeppelin/contracts/utils/Address.sol\":4047:4053  target */\n      dup5\n        /* \"@openzeppelin/contracts/utils/Address.sol\":4055:4059  data */\n      dup5\n        /* \"@openzeppelin/contracts/utils/Address.sol\":4061:4062  0 */\n      0x00\n        /* \"@openzeppelin/contracts/utils/Address.sol\":4064:4076  errorMessage */\n      dup6\n        /* \"@openzeppelin/contracts/utils/Address.sol\":4025:4046  functionCallWithValue */\n      tag_458\n        /* \"@openzeppelin/contracts/utils/Address.sol\":4025:4077  functionCallWithValue(target, data, 0, errorMessage) */\n      jump\t// in\n    tag_457:\n        /* \"@openzeppelin/contracts/utils/Address.sol\":4018:4077  return functionCallWithValue(target, data, 0, errorMessage) */\n      swap1\n      pop\n        /* \"@openzeppelin/contracts/utils/Address.sol\":3861:4084  function functionCall(... */\n      swap4\n      swap3\n      pop\n      pop\n      pop\n      jump\t// out\n        /* \"@openzeppelin/contracts/utils/Address.sol\":4948:5447  function functionCallWithValue(... */\n    tag_458:\n        /* \"@openzeppelin/contracts/utils/Address.sol\":5113:5125  bytes memory */\n      0x60\n        /* \"@openzeppelin/contracts/utils/Address.sol\":5170:5175  value */\n      dup3\n        /* \"@openzeppelin/contracts/utils/Address.sol\":5145:5166  address(this).balance */\n      selfbalance\n        /* \"@openzeppelin/contracts/utils/Address.sol\":5145:5175  address(this).balance >= value */\n      lt\n      iszero\n        /* \"@openzeppelin/contracts/utils/Address.sol\":5137:5218  require(address(this).balance >= value, \"Address: insufficient balance for call\") */\n      tag_460\n      jumpi\n      mload(0x40)\n      0x08c379a000000000000000000000000000000000000000000000000000000000\n      dup2\n      mstore\n      0x04\n      add\n      tag_461\n      swap1\n      tag_462\n      jump\t// in\n    tag_461:\n      mload(0x40)\n      dup1\n      swap2\n      sub\n      swap1\n      revert\n    tag_460:\n        /* \"@openzeppelin/contracts/utils/Address.sol\":5236:5254  isContract(target) */\n      tag_463\n        /* \"@openzeppelin/contracts/utils/Address.sol\":5247:5253  target */\n      dup6\n        /* \"@openzeppelin/contracts/utils/Address.sol\":5236:5246  isContract */\n      tag_464\n        /* \"@openzeppelin/contracts/utils/Address.sol\":5236:5254  isContract(target) */\n      jump\t// in\n    tag_463:\n        /* \"@openzeppelin/contracts/utils/Address.sol\":5228:5288  require(isContract(target), \"Address: call to non-contract\") */\n      tag_465\n      jumpi\n      mload(0x40)\n      0x08c379a000000000000000000000000000000000000000000000000000000000\n      dup2\n      mstore\n      0x04\n      add\n      tag_466\n      swap1\n      tag_467\n      jump\t// in\n    tag_466:\n      mload(0x40)\n      dup1\n      swap2\n      sub\n      swap1\n      revert\n    tag_465:\n        /* \"@openzeppelin/contracts/utils/Address.sol\":5300:5312  bool success */\n      0x00\n        /* \"@openzeppelin/contracts/utils/Address.sol\":5314:5337  bytes memory returndata */\n      dup1\n        /* \"@openzeppelin/contracts/utils/Address.sol\":5341:5347  target */\n      dup7\n        /* \"@openzeppelin/contracts/utils/Address.sol\":5341:5352  target.call */\n      0xffffffffffffffffffffffffffffffffffffffff\n      and\n        /* \"@openzeppelin/contracts/utils/Address.sol\":5360:5365  value */\n      dup6\n        /* \"@openzeppelin/contracts/utils/Address.sol\":5367:5371  data */\n      dup8\n        /* \"@openzeppelin/contracts/utils/Address.sol\":5341:5372  target.call{value: value}(data) */\n      mload(0x40)\n      tag_468\n      swap2\n      swap1\n      tag_469\n      jump\t// in\n    tag_468:\n      0x00\n      mload(0x40)\n      dup1\n      dup4\n      sub\n      dup2\n      dup6\n      dup8\n      gas\n      call\n      swap3\n      pop\n      pop\n      pop\n      returndatasize\n      dup1\n      0x00\n      dup2\n      eq\n      tag_472\n      jumpi\n      mload(0x40)\n      swap2\n      pop\n      and(add(returndatasize, 0x3f), not(0x1f))\n      dup3\n      add\n      0x40\n      mstore\n      returndatasize\n      dup3\n      mstore\n      returndatasize\n      0x00\n      0x20\n      dup5\n      add\n      returndatacopy\n      jump(tag_471)\n    tag_472:\n      0x60\n      swap2\n      pop\n    tag_471:\n      pop\n        /* \"@openzeppelin/contracts/utils/Address.sol\":5299:5372  (bool success, bytes memory returndata) = target.call{value: value}(data) */\n      swap2\n      pop\n      swap2\n      pop\n        /* \"@openzeppelin/contracts/utils/Address.sol\":5389:5440  verifyCallResult(success, returndata, errorMessage) */\n      tag_473\n        /* \"@openzeppelin/contracts/utils/Address.sol\":5406:5413  success */\n      dup3\n        /* \"@openzeppelin/contracts/utils/Address.sol\":5415:5425  returndata */\n      dup3\n        /* \"@openzeppelin/contracts/utils/Address.sol\":5427:5439  errorMessage */\n      dup7\n        /* \"@openzeppelin/contracts/utils/Address.sol\":5389:5405  verifyCallResult */\n      tag_474\n        /* \"@openzeppelin/contracts/utils/Address.sol\":5389:5440  verifyCallResult(success, returndata, errorMessage) */\n      jump\t// in\n    tag_473:\n        /* \"@openzeppelin/contracts/utils/Address.sol\":5382:5440  return verifyCallResult(success, returndata, errorMessage) */\n      swap3\n      pop\n      pop\n      pop\n        /* \"@openzeppelin/contracts/utils/Address.sol\":4948:5447  function functionCallWithValue(... */\n      swap5\n      swap4\n      pop\n      pop\n      pop\n      pop\n      jump\t// out\n        /* \"@openzeppelin/contracts/utils/Address.sol\":1175:1495  function isContract(address account) internal view returns (bool) {... */\n    tag_464:\n        /* \"@openzeppelin/contracts/utils/Address.sol\":1235:1239  bool */\n      0x00\n        /* \"@openzeppelin/contracts/utils/Address.sol\":1487:1488  0 */\n      dup1\n        /* \"@openzeppelin/contracts/utils/Address.sol\":1465:1472  account */\n      dup3\n        /* \"@openzeppelin/contracts/utils/Address.sol\":1465:1484  account.code.length */\n      0xffffffffffffffffffffffffffffffffffffffff\n      and\n      extcodesize\n        /* \"@openzeppelin/contracts/utils/Address.sol\":1465:1488  account.code.length > 0 */\n      gt\n        /* \"@openzeppelin/contracts/utils/Address.sol\":1458:1488  return account.code.length > 0 */\n      swap1\n      pop\n        /* \"@openzeppelin/contracts/utils/Address.sol\":1175:1495  function isContract(address account) internal view returns (bool) {... */\n      swap2\n      swap1\n      pop\n      jump\t// out\n        /* \"@openzeppelin/contracts/utils/Address.sol\":7561:8303  function verifyCallResult(... */\n    tag_474:\n        /* \"@openzeppelin/contracts/utils/Address.sol\":7707:7719  bytes memory */\n      0x60\n        /* \"@openzeppelin/contracts/utils/Address.sol\":7735:7742  success */\n      dup4\n        /* \"@openzeppelin/contracts/utils/Address.sol\":7731:8297  if (success) {... */\n      iszero\n      tag_477\n      jumpi\n        /* \"@openzeppelin/contracts/utils/Address.sol\":7765:7775  returndata */\n      dup3\n        /* \"@openzeppelin/contracts/utils/Address.sol\":7758:7775  return returndata */\n      swap1\n      pop\n      jump(tag_476)\n        /* \"@openzeppelin/contracts/utils/Address.sol\":7731:8297  if (success) {... */\n    tag_477:\n        /* \"@openzeppelin/contracts/utils/Address.sol\":7896:7897  0 */\n      0x00\n        /* \"@openzeppelin/contracts/utils/Address.sol\":7876:7886  returndata */\n      dup4\n        /* \"@openzeppelin/contracts/utils/Address.sol\":7876:7893  returndata.length */\n      mload\n        /* \"@openzeppelin/contracts/utils/Address.sol\":7876:7897  returndata.length > 0 */\n      gt\n        /* \"@openzeppelin/contracts/utils/Address.sol\":7872:8287  if (returndata.length > 0) {... */\n      iszero\n      tag_479\n      jumpi\n        /* \"@openzeppelin/contracts/utils/Address.sol\":8120:8130  returndata */\n      dup3\n        /* \"@openzeppelin/contracts/utils/Address.sol\":8114:8131  mload(returndata) */\n      mload\n        /* \"@openzeppelin/contracts/utils/Address.sol\":8180:8195  returndata_size */\n      dup1\n        /* \"@openzeppelin/contracts/utils/Address.sol\":8167:8177  returndata */\n      dup5\n        /* \"@openzeppelin/contracts/utils/Address.sol\":8163:8165  32 */\n      0x20\n        /* \"@openzeppelin/contracts/utils/Address.sol\":8159:8178  add(32, returndata) */\n      add\n        /* \"@openzeppelin/contracts/utils/Address.sol\":8152:8196  revert(add(32, returndata), returndata_size) */\n      revert\n        /* \"@openzeppelin/contracts/utils/Address.sol\":7872:8287  if (returndata.length > 0) {... */\n    tag_479:\n        /* \"@openzeppelin/contracts/utils/Address.sol\":8259:8271  errorMessage */\n      dup2\n        /* \"@openzeppelin/contracts/utils/Address.sol\":8252:8272  revert(errorMessage) */\n      mload(0x40)\n      0x08c379a000000000000000000000000000000000000000000000000000000000\n      dup2\n      mstore\n      0x04\n      add\n      tag_481\n      swap2\n      swap1\n      tag_345\n      jump\t// in\n    tag_481:\n      mload(0x40)\n      dup1\n      swap2\n      sub\n      swap1\n      revert\n        /* \"@openzeppelin/contracts/utils/Address.sol\":7561:8303  function verifyCallResult(... */\n    tag_476:\n      swap4\n      swap3\n      pop\n      pop\n      pop\n      jump\t// out\n        /* \"#utility.yul\":7:82   */\n    tag_482:\n        /* \"#utility.yul\":40:46   */\n      0x00\n        /* \"#utility.yul\":73:75   */\n      0x40\n        /* \"#utility.yul\":67:76   */\n      mload\n        /* \"#utility.yul\":57:76   */\n      swap1\n      pop\n        /* \"#utility.yul\":7:82   */\n      swap1\n      jump\t// out\n        /* \"#utility.yul\":88:205   */\n    tag_483:\n        /* \"#utility.yul\":197:198   */\n      0x00\n        /* \"#utility.yul\":194:195   */\n      dup1\n        /* \"#utility.yul\":187:199   */\n      revert\n        /* \"#utility.yul\":211:328   */\n    tag_484:\n        /* \"#utility.yul\":320:321   */\n      0x00\n        /* \"#utility.yul\":317:318   */\n      dup1\n        /* \"#utility.yul\":310:322   */\n      revert\n        /* \"#utility.yul\":334:411   */\n    tag_485:\n        /* \"#utility.yul\":371:378   */\n      0x00\n        /* \"#utility.yul\":400:405   */\n      dup2\n        /* \"#utility.yul\":389:405   */\n      swap1\n      pop\n        /* \"#utility.yul\":334:411   */\n      swap2\n      swap1\n      pop\n      jump\t// out\n        /* \"#utility.yul\":417:539   */\n    tag_486:\n        /* \"#utility.yul\":490:514   */\n      tag_590\n        /* \"#utility.yul\":508:513   */\n      dup2\n        /* \"#utility.yul\":490:514   */\n      tag_485\n      jump\t// in\n    tag_590:\n        /* \"#utility.yul\":483:488   */\n      dup2\n        /* \"#utility.yul\":480:515   */\n      eq\n        /* \"#utility.yul\":470:533   */\n      tag_591\n      jumpi\n        /* \"#utility.yul\":529:530   */\n      0x00\n        /* \"#utility.yul\":526:527   */\n      dup1\n        /* \"#utility.yul\":519:531   */\n      revert\n        /* \"#utility.yul\":470:533   */\n    tag_591:\n        /* \"#utility.yul\":417:539   */\n      pop\n      jump\t// out\n        /* \"#utility.yul\":545:684   */\n    tag_487:\n        /* \"#utility.yul\":591:596   */\n      0x00\n        /* \"#utility.yul\":629:635   */\n      dup2\n        /* \"#utility.yul\":616:636   */\n      calldataload\n        /* \"#utility.yul\":607:636   */\n      swap1\n      pop\n        /* \"#utility.yul\":645:678   */\n      tag_593\n        /* \"#utility.yul\":672:677   */\n      dup2\n        /* \"#utility.yul\":645:678   */\n      tag_486\n      jump\t// in\n    tag_593:\n        /* \"#utility.yul\":545:684   */\n      swap3\n      swap2\n      pop\n      pop\n      jump\t// out\n        /* \"#utility.yul\":690:816   */\n    tag_488:\n        /* \"#utility.yul\":727:734   */\n      0x00\n        /* \"#utility.yul\":767:809   */\n      0xffffffffffffffffffffffffffffffffffffffff\n        /* \"#utility.yul\":760:765   */\n      dup3\n        /* \"#utility.yul\":756:810   */\n      and\n        /* \"#utility.yul\":745:810   */\n      swap1\n      pop\n        /* \"#utility.yul\":690:816   */\n      swap2\n      swap1\n      pop\n      jump\t// out\n        /* \"#utility.yul\":822:918   */\n    tag_489:\n        /* \"#utility.yul\":859:866   */\n      0x00\n        /* \"#utility.yul\":888:912   */\n      tag_596\n        /* \"#utility.yul\":906:911   */\n      dup3\n        /* \"#utility.yul\":888:912   */\n      tag_488\n      jump\t// in\n    tag_596:\n        /* \"#utility.yul\":877:912   */\n      swap1\n      pop\n        /* \"#utility.yul\":822:918   */\n      swap2\n      swap1\n      pop\n      jump\t// out\n        /* \"#utility.yul\":924:1046   */\n    tag_490:\n        /* \"#utility.yul\":997:1021   */\n      tag_598\n        /* \"#utility.yul\":1015:1020   */\n      dup2\n        /* \"#utility.yul\":997:1021   */\n      tag_489\n      jump\t// in\n    tag_598:\n        /* \"#utility.yul\":990:995   */\n      dup2\n        /* \"#utility.yul\":987:1022   */\n      eq\n        /* \"#utility.yul\":977:1040   */\n      tag_599\n      jumpi\n        /* \"#utility.yul\":1036:1037   */\n      0x00\n        /* \"#utility.yul\":1033:1034   */\n      dup1\n        /* \"#utility.yul\":1026:1038   */\n      revert\n        /* \"#utility.yul\":977:1040   */\n    tag_599:\n        /* \"#utility.yul\":924:1046   */\n      pop\n      jump\t// out\n        /* \"#utility.yul\":1052:1191   */\n    tag_491:\n        /* \"#utility.yul\":1098:1103   */\n      0x00\n        /* \"#utility.yul\":1136:1142   */\n      dup2\n        /* \"#utility.yul\":1123:1143   */\n      calldataload\n        /* \"#utility.yul\":1114:1143   */\n      swap1\n      pop\n        /* \"#utility.yul\":1152:1185   */\n      tag_601\n        /* \"#utility.yul\":1179:1184   */\n      dup2\n        /* \"#utility.yul\":1152:1185   */\n      tag_490\n      jump\t// in\n    tag_601:\n        /* \"#utility.yul\":1052:1191   */\n      swap3\n      swap2\n      pop\n      pop\n      jump\t// out\n        /* \"#utility.yul\":1197:1671   */\n    tag_36:\n        /* \"#utility.yul\":1265:1271   */\n      0x00\n        /* \"#utility.yul\":1273:1279   */\n      dup1\n        /* \"#utility.yul\":1322:1324   */\n      0x40\n        /* \"#utility.yul\":1310:1319   */\n      dup4\n        /* \"#utility.yul\":1301:1308   */\n      dup6\n        /* \"#utility.yul\":1297:1320   */\n      sub\n        /* \"#utility.yul\":1293:1325   */\n      slt\n        /* \"#utility.yul\":1290:1409   */\n      iszero\n      tag_603\n      jumpi\n        /* \"#utility.yul\":1328:1407   */\n      tag_604\n      tag_483\n      jump\t// in\n    tag_604:\n        /* \"#utility.yul\":1290:1409   */\n    tag_603:\n        /* \"#utility.yul\":1448:1449   */\n      0x00\n        /* \"#utility.yul\":1473:1526   */\n      tag_605\n        /* \"#utility.yul\":1518:1525   */\n      dup6\n        /* \"#utility.yul\":1509:1515   */\n      dup3\n        /* \"#utility.yul\":1498:1507   */\n      dup7\n        /* \"#utility.yul\":1494:1516   */\n      add\n        /* \"#utility.yul\":1473:1526   */\n      tag_487\n      jump\t// in\n    tag_605:\n        /* \"#utility.yul\":1463:1526   */\n      swap3\n      pop\n        /* \"#utility.yul\":1419:1536   */\n      pop\n        /* \"#utility.yul\":1575:1577   */\n      0x20\n        /* \"#utility.yul\":1601:1654   */\n      tag_606\n        /* \"#utility.yul\":1646:1653   */\n      dup6\n        /* \"#utility.yul\":1637:1643   */\n      dup3\n        /* \"#utility.yul\":1626:1635   */\n      dup7\n        /* \"#utility.yul\":1622:1644   */\n      add\n        /* \"#utility.yul\":1601:1654   */\n      tag_491\n      jump\t// in\n    tag_606:\n        /* \"#utility.yul\":1591:1654   */\n      swap2\n      pop\n        /* \"#utility.yul\":1546:1664   */\n      pop\n        /* \"#utility.yul\":1197:1671   */\n      swap3\n      pop\n      swap3\n      swap1\n      pop\n      jump\t// out\n        /* \"#utility.yul\":1677:2006   */\n    tag_44:\n        /* \"#utility.yul\":1736:1742   */\n      0x00\n        /* \"#utility.yul\":1785:1787   */\n      0x20\n        /* \"#utility.yul\":1773:1782   */\n      dup3\n        /* \"#utility.yul\":1764:1771   */\n      dup5\n        /* \"#utility.yul\":1760:1783   */\n      sub\n        /* \"#utility.yul\":1756:1788   */\n      slt\n        /* \"#utility.yul\":1753:1872   */\n      iszero\n      tag_608\n      jumpi\n        /* \"#utility.yul\":1791:1870   */\n      tag_609\n      tag_483\n      jump\t// in\n    tag_609:\n        /* \"#utility.yul\":1753:1872   */\n    tag_608:\n        /* \"#utility.yul\":1911:1912   */\n      0x00\n        /* \"#utility.yul\":1936:1989   */\n      tag_610\n        /* \"#utility.yul\":1981:1988   */\n      dup5\n        /* \"#utility.yul\":1972:1978   */\n      dup3\n        /* \"#utility.yul\":1961:1970   */\n      dup6\n        /* \"#utility.yul\":1957:1979   */\n      add\n        /* \"#utility.yul\":1936:1989   */\n      tag_491\n      jump\t// in\n    tag_610:\n        /* \"#utility.yul\":1926:1989   */\n      swap2\n      pop\n        /* \"#utility.yul\":1882:1999   */\n      pop\n        /* \"#utility.yul\":1677:2006   */\n      swap3\n      swap2\n      pop\n      pop\n      jump\t// out\n        /* \"#utility.yul\":2012:2130   */\n    tag_492:\n        /* \"#utility.yul\":2099:2123   */\n      tag_612\n        /* \"#utility.yul\":2117:2122   */\n      dup2\n        /* \"#utility.yul\":2099:2123   */\n      tag_489\n      jump\t// in\n    tag_612:\n        /* \"#utility.yul\":2094:2097   */\n      dup3\n        /* \"#utility.yul\":2087:2124   */\n      mstore\n        /* \"#utility.yul\":2012:2130   */\n      pop\n      pop\n      jump\t// out\n        /* \"#utility.yul\":2136:2468   */\n    tag_52:\n        /* \"#utility.yul\":2257:2261   */\n      0x00\n        /* \"#utility.yul\":2295:2297   */\n      0x40\n        /* \"#utility.yul\":2284:2293   */\n      dup3\n        /* \"#utility.yul\":2280:2298   */\n      add\n        /* \"#utility.yul\":2272:2298   */\n      swap1\n      pop\n        /* \"#utility.yul\":2308:2379   */\n      tag_614\n        /* \"#utility.yul\":2376:2377   */\n      0x00\n        /* \"#utility.yul\":2365:2374   */\n      dup4\n        /* \"#utility.yul\":2361:2378   */\n      add\n        /* \"#utility.yul\":2352:2358   */\n      dup6\n        /* \"#utility.yul\":2308:2379   */\n      tag_492\n      jump\t// in\n    tag_614:\n        /* \"#utility.yul\":2389:2461   */\n      tag_615\n        /* \"#utility.yul\":2457:2459   */\n      0x20\n        /* \"#utility.yul\":2446:2455   */\n      dup4\n        /* \"#utility.yul\":2442:2460   */\n      add\n        /* \"#utility.yul\":2433:2439   */\n      dup5\n        /* \"#utility.yul\":2389:2461   */\n      tag_492\n      jump\t// in\n    tag_615:\n        /* \"#utility.yul\":2136:2468   */\n      swap4\n      swap3\n      pop\n      pop\n      pop\n      jump\t// out\n        /* \"#utility.yul\":2474:2592   */\n    tag_493:\n        /* \"#utility.yul\":2561:2585   */\n      tag_617\n        /* \"#utility.yul\":2579:2584   */\n      dup2\n        /* \"#utility.yul\":2561:2585   */\n      tag_485\n      jump\t// in\n    tag_617:\n        /* \"#utility.yul\":2556:2559   */\n      dup3\n        /* \"#utility.yul\":2549:2586   */\n      mstore\n        /* \"#utility.yul\":2474:2592   */\n      pop\n      pop\n      jump\t// out\n        /* \"#utility.yul\":2598:2820   */\n    tag_58:\n        /* \"#utility.yul\":2691:2695   */\n      0x00\n        /* \"#utility.yul\":2729:2731   */\n      0x20\n        /* \"#utility.yul\":2718:2727   */\n      dup3\n        /* \"#utility.yul\":2714:2732   */\n      add\n        /* \"#utility.yul\":2706:2732   */\n      swap1\n      pop\n        /* \"#utility.yul\":2742:2813   */\n      tag_619\n        /* \"#utility.yul\":2810:2811   */\n      0x00\n        /* \"#utility.yul\":2799:2808   */\n      dup4\n        /* \"#utility.yul\":2795:2812   */\n      add\n        /* \"#utility.yul\":2786:2792   */\n      dup5\n        /* \"#utility.yul\":2742:2813   */\n      tag_493\n      jump\t// in\n    tag_619:\n        /* \"#utility.yul\":2598:2820   */\n      swap3\n      swap2\n      pop\n      pop\n      jump\t// out\n        /* \"#utility.yul\":2826:2916   */\n    tag_494:\n        /* \"#utility.yul\":2860:2867   */\n      0x00\n        /* \"#utility.yul\":2903:2908   */\n      dup2\n        /* \"#utility.yul\":2896:2909   */\n      iszero\n        /* \"#utility.yul\":2889:2910   */\n      iszero\n        /* \"#utility.yul\":2878:2910   */\n      swap1\n      pop\n        /* \"#utility.yul\":2826:2916   */\n      swap2\n      swap1\n      pop\n      jump\t// out\n        /* \"#utility.yul\":2922:3031   */\n    tag_495:\n        /* \"#utility.yul\":3003:3024   */\n      tag_622\n        /* \"#utility.yul\":3018:3023   */\n      dup2\n        /* \"#utility.yul\":3003:3024   */\n      tag_494\n      jump\t// in\n    tag_622:\n        /* \"#utility.yul\":2998:3001   */\n      dup3\n        /* \"#utility.yul\":2991:3025   */\n      mstore\n        /* \"#utility.yul\":2922:3031   */\n      pop\n      pop\n      jump\t// out\n        /* \"#utility.yul\":3037:3247   */\n    tag_64:\n        /* \"#utility.yul\":3124:3128   */\n      0x00\n        /* \"#utility.yul\":3162:3164   */\n      0x20\n        /* \"#utility.yul\":3151:3160   */\n      dup3\n        /* \"#utility.yul\":3147:3165   */\n      add\n        /* \"#utility.yul\":3139:3165   */\n      swap1\n      pop\n        /* \"#utility.yul\":3175:3240   */\n      tag_624\n        /* \"#utility.yul\":3237:3238   */\n      0x00\n        /* \"#utility.yul\":3226:3235   */\n      dup4\n        /* \"#utility.yul\":3222:3239   */\n      add\n        /* \"#utility.yul\":3213:3219   */\n      dup5\n        /* \"#utility.yul\":3175:3240   */\n      tag_495\n      jump\t// in\n    tag_624:\n        /* \"#utility.yul\":3037:3247   */\n      swap3\n      swap2\n      pop\n      pop\n      jump\t// out\n        /* \"#utility.yul\":3253:3370   */\n    tag_496:\n        /* \"#utility.yul\":3362:3363   */\n      0x00\n        /* \"#utility.yul\":3359:3360   */\n      dup1\n        /* \"#utility.yul\":3352:3364   */\n      revert\n        /* \"#utility.yul\":3376:3493   */\n    tag_497:\n        /* \"#utility.yul\":3485:3486   */\n      0x00\n        /* \"#utility.yul\":3482:3483   */\n      dup1\n        /* \"#utility.yul\":3475:3487   */\n      revert\n        /* \"#utility.yul\":3499:3616   */\n    tag_498:\n        /* \"#utility.yul\":3608:3609   */\n      0x00\n        /* \"#utility.yul\":3605:3606   */\n      dup1\n        /* \"#utility.yul\":3598:3610   */\n      revert\n        /* \"#utility.yul\":3639:4207   */\n    tag_499:\n        /* \"#utility.yul\":3712:3720   */\n      0x00\n        /* \"#utility.yul\":3722:3728   */\n      dup1\n        /* \"#utility.yul\":3772:3775   */\n      dup4\n        /* \"#utility.yul\":3765:3769   */\n      0x1f\n        /* \"#utility.yul\":3757:3763   */\n      dup5\n        /* \"#utility.yul\":3753:3770   */\n      add\n        /* \"#utility.yul\":3749:3776   */\n      slt\n        /* \"#utility.yul\":3739:3861   */\n      tag_629\n      jumpi\n        /* \"#utility.yul\":3780:3859   */\n      tag_630\n      tag_496\n      jump\t// in\n    tag_630:\n        /* \"#utility.yul\":3739:3861   */\n    tag_629:\n        /* \"#utility.yul\":3893:3899   */\n      dup3\n        /* \"#utility.yul\":3880:3900   */\n      calldataload\n        /* \"#utility.yul\":3870:3900   */\n      swap1\n      pop\n        /* \"#utility.yul\":3923:3941   */\n      0xffffffffffffffff\n        /* \"#utility.yul\":3915:3921   */\n      dup2\n        /* \"#utility.yul\":3912:3942   */\n      gt\n        /* \"#utility.yul\":3909:4026   */\n      iszero\n      tag_631\n      jumpi\n        /* \"#utility.yul\":3945:4024   */\n      tag_632\n      tag_497\n      jump\t// in\n    tag_632:\n        /* \"#utility.yul\":3909:4026   */\n    tag_631:\n        /* \"#utility.yul\":4059:4063   */\n      0x20\n        /* \"#utility.yul\":4051:4057   */\n      dup4\n        /* \"#utility.yul\":4047:4064   */\n      add\n        /* \"#utility.yul\":4035:4064   */\n      swap2\n      pop\n        /* \"#utility.yul\":4113:4116   */\n      dup4\n        /* \"#utility.yul\":4105:4109   */\n      0x20\n        /* \"#utility.yul\":4097:4103   */\n      dup3\n        /* \"#utility.yul\":4093:4110   */\n      mul\n        /* \"#utility.yul\":4083:4091   */\n      dup4\n        /* \"#utility.yul\":4079:4111   */\n      add\n        /* \"#utility.yul\":4076:4117   */\n      gt\n        /* \"#utility.yul\":4073:4201   */\n      iszero\n      tag_633\n      jumpi\n        /* \"#utility.yul\":4120:4199   */\n      tag_634\n      tag_498\n      jump\t// in\n    tag_634:\n        /* \"#utility.yul\":4073:4201   */\n    tag_633:\n        /* \"#utility.yul\":3639:4207   */\n      swap3\n      pop\n      swap3\n      swap1\n      pop\n      jump\t// out\n        /* \"#utility.yul\":4230:4798   */\n    tag_500:\n        /* \"#utility.yul\":4303:4311   */\n      0x00\n        /* \"#utility.yul\":4313:4319   */\n      dup1\n        /* \"#utility.yul\":4363:4366   */\n      dup4\n        /* \"#utility.yul\":4356:4360   */\n      0x1f\n        /* \"#utility.yul\":4348:4354   */\n      dup5\n        /* \"#utility.yul\":4344:4361   */\n      add\n        /* \"#utility.yul\":4340:4367   */\n      slt\n        /* \"#utility.yul\":4330:4452   */\n      tag_636\n      jumpi\n        /* \"#utility.yul\":4371:4450   */\n      tag_637\n      tag_496\n      jump\t// in\n    tag_637:\n        /* \"#utility.yul\":4330:4452   */\n    tag_636:\n        /* \"#utility.yul\":4484:4490   */\n      dup3\n        /* \"#utility.yul\":4471:4491   */\n      calldataload\n        /* \"#utility.yul\":4461:4491   */\n      swap1\n      pop\n        /* \"#utility.yul\":4514:4532   */\n      0xffffffffffffffff\n        /* \"#utility.yul\":4506:4512   */\n      dup2\n        /* \"#utility.yul\":4503:4533   */\n      gt\n        /* \"#utility.yul\":4500:4617   */\n      iszero\n      tag_638\n      jumpi\n        /* \"#utility.yul\":4536:4615   */\n      tag_639\n      tag_497\n      jump\t// in\n    tag_639:\n        /* \"#utility.yul\":4500:4617   */\n    tag_638:\n        /* \"#utility.yul\":4650:4654   */\n      0x20\n        /* \"#utility.yul\":4642:4648   */\n      dup4\n        /* \"#utility.yul\":4638:4655   */\n      add\n        /* \"#utility.yul\":4626:4655   */\n      swap2\n      pop\n        /* \"#utility.yul\":4704:4707   */\n      dup4\n        /* \"#utility.yul\":4696:4700   */\n      0x20\n        /* \"#utility.yul\":4688:4694   */\n      dup3\n        /* \"#utility.yul\":4684:4701   */\n      mul\n        /* \"#utility.yul\":4674:4682   */\n      dup4\n        /* \"#utility.yul\":4670:4702   */\n      add\n        /* \"#utility.yul\":4667:4708   */\n      gt\n        /* \"#utility.yul\":4664:4792   */\n      iszero\n      tag_640\n      jumpi\n        /* \"#utility.yul\":4711:4790   */\n      tag_641\n      tag_498\n      jump\t// in\n    tag_641:\n        /* \"#utility.yul\":4664:4792   */\n    tag_640:\n        /* \"#utility.yul\":4230:4798   */\n      swap3\n      pop\n      swap3\n      swap1\n      pop\n      jump\t// out\n        /* \"#utility.yul\":4804:5883   */\n    tag_67:\n        /* \"#utility.yul\":4935:4941   */\n      0x00\n        /* \"#utility.yul\":4943:4949   */\n      dup1\n        /* \"#utility.yul\":4951:4957   */\n      0x00\n        /* \"#utility.yul\":4959:4965   */\n      dup1\n        /* \"#utility.yul\":4967:4973   */\n      0x00\n        /* \"#utility.yul\":5016:5018   */\n      0x60\n        /* \"#utility.yul\":5004:5013   */\n      dup7\n        /* \"#utility.yul\":4995:5002   */\n      dup9\n        /* \"#utility.yul\":4991:5014   */\n      sub\n        /* \"#utility.yul\":4987:5019   */\n      slt\n        /* \"#utility.yul\":4984:5103   */\n      iszero\n      tag_643\n      jumpi\n        /* \"#utility.yul\":5022:5101   */\n      tag_644\n      tag_483\n      jump\t// in\n    tag_644:\n        /* \"#utility.yul\":4984:5103   */\n    tag_643:\n        /* \"#utility.yul\":5142:5143   */\n      0x00\n        /* \"#utility.yul\":5167:5220   */\n      tag_645\n        /* \"#utility.yul\":5212:5219   */\n      dup9\n        /* \"#utility.yul\":5203:5209   */\n      dup3\n        /* \"#utility.yul\":5192:5201   */\n      dup10\n        /* \"#utility.yul\":5188:5210   */\n      add\n        /* \"#utility.yul\":5167:5220   */\n      tag_487\n      jump\t// in\n    tag_645:\n        /* \"#utility.yul\":5157:5220   */\n      swap6\n      pop\n        /* \"#utility.yul\":5113:5230   */\n      pop\n        /* \"#utility.yul\":5297:5299   */\n      0x20\n        /* \"#utility.yul\":5286:5295   */\n      dup7\n        /* \"#utility.yul\":5282:5300   */\n      add\n        /* \"#utility.yul\":5269:5301   */\n      calldataload\n        /* \"#utility.yul\":5328:5346   */\n      0xffffffffffffffff\n        /* \"#utility.yul\":5320:5326   */\n      dup2\n        /* \"#utility.yul\":5317:5347   */\n      gt\n        /* \"#utility.yul\":5314:5431   */\n      iszero\n      tag_646\n      jumpi\n        /* \"#utility.yul\":5350:5429   */\n      tag_647\n      tag_484\n      jump\t// in\n    tag_647:\n        /* \"#utility.yul\":5314:5431   */\n    tag_646:\n        /* \"#utility.yul\":5463:5543   */\n      tag_648\n        /* \"#utility.yul\":5535:5542   */\n      dup9\n        /* \"#utility.yul\":5526:5532   */\n      dup3\n        /* \"#utility.yul\":5515:5524   */\n      dup10\n        /* \"#utility.yul\":5511:5533   */\n      add\n        /* \"#utility.yul\":5463:5543   */\n      tag_499\n      jump\t// in\n    tag_648:\n        /* \"#utility.yul\":5445:5543   */\n      swap5\n      pop\n      swap5\n      pop\n        /* \"#utility.yul\":5240:5553   */\n      pop\n        /* \"#utility.yul\":5620:5622   */\n      0x40\n        /* \"#utility.yul\":5609:5618   */\n      dup7\n        /* \"#utility.yul\":5605:5623   */\n      add\n        /* \"#utility.yul\":5592:5624   */\n      calldataload\n        /* \"#utility.yul\":5651:5669   */\n      0xffffffffffffffff\n        /* \"#utility.yul\":5643:5649   */\n      dup2\n        /* \"#utility.yul\":5640:5670   */\n      gt\n        /* \"#utility.yul\":5637:5754   */\n      iszero\n      tag_649\n      jumpi\n        /* \"#utility.yul\":5673:5752   */\n      tag_650\n      tag_484\n      jump\t// in\n    tag_650:\n        /* \"#utility.yul\":5637:5754   */\n    tag_649:\n        /* \"#utility.yul\":5786:5866   */\n      tag_651\n        /* \"#utility.yul\":5858:5865   */\n      dup9\n        /* \"#utility.yul\":5849:5855   */\n      dup3\n        /* \"#utility.yul\":5838:5847   */\n      dup10\n        /* \"#utility.yul\":5834:5856   */\n      add\n        /* \"#utility.yul\":5786:5866   */\n      tag_500\n      jump\t// in\n    tag_651:\n        /* \"#utility.yul\":5768:5866   */\n      swap3\n      pop\n      swap3\n      pop\n        /* \"#utility.yul\":5563:5876   */\n      pop\n        /* \"#utility.yul\":4804:5883   */\n      swap3\n      swap6\n      pop\n      swap3\n      swap6\n      swap1\n      swap4\n      pop\n      jump\t// out\n        /* \"#utility.yul\":5889:6508   */\n    tag_72:\n        /* \"#utility.yul\":5966:5972   */\n      0x00\n        /* \"#utility.yul\":5974:5980   */\n      dup1\n        /* \"#utility.yul\":5982:5988   */\n      0x00\n        /* \"#utility.yul\":6031:6033   */\n      0x60\n        /* \"#utility.yul\":6019:6028   */\n      dup5\n        /* \"#utility.yul\":6010:6017   */\n      dup7\n        /* \"#utility.yul\":6006:6029   */\n      sub\n        /* \"#utility.yul\":6002:6034   */\n      slt\n        /* \"#utility.yul\":5999:6118   */\n      iszero\n      tag_653\n      jumpi\n        /* \"#utility.yul\":6037:6116   */\n      tag_654\n      tag_483\n      jump\t// in\n    tag_654:\n        /* \"#utility.yul\":5999:6118   */\n    tag_653:\n        /* \"#utility.yul\":6157:6158   */\n      0x00\n        /* \"#utility.yul\":6182:6235   */\n      tag_655\n        /* \"#utility.yul\":6227:6234   */\n      dup7\n        /* \"#utility.yul\":6218:6224   */\n      dup3\n        /* \"#utility.yul\":6207:6216   */\n      dup8\n        /* \"#utility.yul\":6203:6225   */\n      add\n        /* \"#utility.yul\":6182:6235   */\n      tag_491\n      jump\t// in\n    tag_655:\n        /* \"#utility.yul\":6172:6235   */\n      swap4\n      pop\n        /* \"#utility.yul\":6128:6245   */\n      pop\n        /* \"#utility.yul\":6284:6286   */\n      0x20\n        /* \"#utility.yul\":6310:6363   */\n      tag_656\n        /* \"#utility.yul\":6355:6362   */\n      dup7\n        /* \"#utility.yul\":6346:6352   */\n      dup3\n        /* \"#utility.yul\":6335:6344   */\n      dup8\n        /* \"#utility.yul\":6331:6353   */\n      add\n        /* \"#utility.yul\":6310:6363   */\n      tag_491\n      jump\t// in\n    tag_656:\n        /* \"#utility.yul\":6300:6363   */\n      swap3\n      pop\n        /* \"#utility.yul\":6255:6373   */\n      pop\n        /* \"#utility.yul\":6412:6414   */\n      0x40\n        /* \"#utility.yul\":6438:6491   */\n      tag_657\n        /* \"#utility.yul\":6483:6490   */\n      dup7\n        /* \"#utility.yul\":6474:6480   */\n      dup3\n        /* \"#utility.yul\":6463:6472   */\n      dup8\n        /* \"#utility.yul\":6459:6481   */\n      add\n        /* \"#utility.yul\":6438:6491   */\n      tag_487\n      jump\t// in\n    tag_657:\n        /* \"#utility.yul\":6428:6491   */\n      swap2\n      pop\n        /* \"#utility.yul\":6383:6501   */\n      pop\n        /* \"#utility.yul\":5889:6508   */\n      swap3\n      pop\n      swap3\n      pop\n      swap3\n      jump\t// out\n        /* \"#utility.yul\":6514:7133   */\n    tag_82:\n        /* \"#utility.yul\":6591:6597   */\n      0x00\n        /* \"#utility.yul\":6599:6605   */\n      dup1\n        /* \"#utility.yul\":6607:6613   */\n      0x00\n        /* \"#utility.yul\":6656:6658   */\n      0x60\n        /* \"#utility.yul\":6644:6653   */\n      dup5\n        /* \"#utility.yul\":6635:6642   */\n      dup7\n        /* \"#utility.yul\":6631:6654   */\n      sub\n        /* \"#utility.yul\":6627:6659   */\n      slt\n        /* \"#utility.yul\":6624:6743   */\n      iszero\n      tag_659\n      jumpi\n        /* \"#utility.yul\":6662:6741   */\n      tag_660\n      tag_483\n      jump\t// in\n    tag_660:\n        /* \"#utility.yul\":6624:6743   */\n    tag_659:\n        /* \"#utility.yul\":6782:6783   */\n      0x00\n        /* \"#utility.yul\":6807:6860   */\n      tag_661\n        /* \"#utility.yul\":6852:6859   */\n      dup7\n        /* \"#utility.yul\":6843:6849   */\n      dup3\n        /* \"#utility.yul\":6832:6841   */\n      dup8\n        /* \"#utility.yul\":6828:6850   */\n      add\n        /* \"#utility.yul\":6807:6860   */\n      tag_487\n      jump\t// in\n    tag_661:\n        /* \"#utility.yul\":6797:6860   */\n      swap4\n      pop\n        /* \"#utility.yul\":6753:6870   */\n      pop\n        /* \"#utility.yul\":6909:6911   */\n      0x20\n        /* \"#utility.yul\":6935:6988   */\n      tag_662\n        /* \"#utility.yul\":6980:6987   */\n      dup7\n        /* \"#utility.yul\":6971:6977   */\n      dup3\n        /* \"#utility.yul\":6960:6969   */\n      dup8\n        /* \"#utility.yul\":6956:6978   */\n      add\n        /* \"#utility.yul\":6935:6988   */\n      tag_487\n      jump\t// in\n    tag_662:\n        /* \"#utility.yul\":6925:6988   */\n      swap3\n      pop\n        /* \"#utility.yul\":6880:6998   */\n      pop\n        /* \"#utility.yul\":7037:7039   */\n      0x40\n        /* \"#utility.yul\":7063:7116   */\n      tag_663\n        /* \"#utility.yul\":7108:7115   */\n      dup7\n        /* \"#utility.yul\":7099:7105   */\n      dup3\n        /* \"#utility.yul\":7088:7097   */\n      dup8\n        /* \"#utility.yul\":7084:7106   */\n      add\n        /* \"#utility.yul\":7063:7116   */\n      tag_487\n      jump\t// in\n    tag_663:\n        /* \"#utility.yul\":7053:7116   */\n      swap2\n      pop\n        /* \"#utility.yul\":7008:7126   */\n      pop\n        /* \"#utility.yul\":6514:7133   */\n      swap3\n      pop\n      swap3\n      pop\n      swap3\n      jump\t// out\n        /* \"#utility.yul\":7139:7361   */\n    tag_88:\n        /* \"#utility.yul\":7232:7236   */\n      0x00\n        /* \"#utility.yul\":7270:7272   */\n      0x20\n        /* \"#utility.yul\":7259:7268   */\n      dup3\n        /* \"#utility.yul\":7255:7273   */\n      add\n        /* \"#utility.yul\":7247:7273   */\n      swap1\n      pop\n        /* \"#utility.yul\":7283:7354   */\n      tag_665\n        /* \"#utility.yul\":7351:7352   */\n      0x00\n        /* \"#utility.yul\":7340:7349   */\n      dup4\n        /* \"#utility.yul\":7336:7353   */\n      add\n        /* \"#utility.yul\":7327:7333   */\n      dup5\n        /* \"#utility.yul\":7283:7354   */\n      tag_492\n      jump\t// in\n    tag_665:\n        /* \"#utility.yul\":7139:7361   */\n      swap3\n      swap2\n      pop\n      pop\n      jump\t// out\n        /* \"#utility.yul\":7367:7466   */\n    tag_501:\n        /* \"#utility.yul\":7419:7425   */\n      0x00\n        /* \"#utility.yul\":7453:7458   */\n      dup2\n        /* \"#utility.yul\":7447:7459   */\n      mload\n        /* \"#utility.yul\":7437:7459   */\n      swap1\n      pop\n        /* \"#utility.yul\":7367:7466   */\n      swap2\n      swap1\n      pop\n      jump\t// out\n        /* \"#utility.yul\":7472:7641   */\n    tag_502:\n        /* \"#utility.yul\":7556:7567   */\n      0x00\n        /* \"#utility.yul\":7590:7596   */\n      dup3\n        /* \"#utility.yul\":7585:7588   */\n      dup3\n        /* \"#utility.yul\":7578:7597   */\n      mstore\n        /* \"#utility.yul\":7630:7634   */\n      0x20\n        /* \"#utility.yul\":7625:7628   */\n      dup3\n        /* \"#utility.yul\":7621:7635   */\n      add\n        /* \"#utility.yul\":7606:7635   */\n      swap1\n      pop\n        /* \"#utility.yul\":7472:7641   */\n      swap3\n      swap2\n      pop\n      pop\n      jump\t// out\n        /* \"#utility.yul\":7647:7893   */\n    tag_503:\n        /* \"#utility.yul\":7728:7729   */\n      0x00\n        /* \"#utility.yul\":7738:7851   */\n    tag_669:\n        /* \"#utility.yul\":7752:7758   */\n      dup4\n        /* \"#utility.yul\":7749:7750   */\n      dup2\n        /* \"#utility.yul\":7746:7759   */\n      lt\n        /* \"#utility.yul\":7738:7851   */\n      iszero\n      tag_671\n      jumpi\n        /* \"#utility.yul\":7837:7838   */\n      dup1\n        /* \"#utility.yul\":7832:7835   */\n      dup3\n        /* \"#utility.yul\":7828:7839   */\n      add\n        /* \"#utility.yul\":7822:7840   */\n      mload\n        /* \"#utility.yul\":7818:7819   */\n      dup2\n        /* \"#utility.yul\":7813:7816   */\n      dup5\n        /* \"#utility.yul\":7809:7820   */\n      add\n        /* \"#utility.yul\":7802:7841   */\n      mstore\n        /* \"#utility.yul\":7774:7776   */\n      0x20\n        /* \"#utility.yul\":7771:7772   */\n      dup2\n        /* \"#utility.yul\":7767:7777   */\n      add\n        /* \"#utility.yul\":7762:7777   */\n      swap1\n      pop\n        /* \"#utility.yul\":7738:7851   */\n      jump(tag_669)\n    tag_671:\n        /* \"#utility.yul\":7885:7886   */\n      0x00\n        /* \"#utility.yul\":7876:7882   */\n      dup5\n        /* \"#utility.yul\":7871:7874   */\n      dup5\n        /* \"#utility.yul\":7867:7883   */\n      add\n        /* \"#utility.yul\":7860:7887   */\n      mstore\n        /* \"#utility.yul\":7709:7893   */\n      pop\n        /* \"#utility.yul\":7647:7893   */\n      pop\n      pop\n      pop\n      jump\t// out\n        /* \"#utility.yul\":7899:8001   */\n    tag_504:\n        /* \"#utility.yul\":7940:7946   */\n      0x00\n        /* \"#utility.yul\":7991:7993   */\n      0x1f\n        /* \"#utility.yul\":7987:7994   */\n      not\n        /* \"#utility.yul\":7982:7984   */\n      0x1f\n        /* \"#utility.yul\":7975:7980   */\n      dup4\n        /* \"#utility.yul\":7971:7985   */\n      add\n        /* \"#utility.yul\":7967:7995   */\n      and\n        /* \"#utility.yul\":7957:7995   */\n      swap1\n      pop\n        /* \"#utility.yul\":7899:8001   */\n      swap2\n      swap1\n      pop\n      jump\t// out\n        /* \"#utility.yul\":8007:8384   */\n    tag_505:\n        /* \"#utility.yul\":8095:8098   */\n      0x00\n        /* \"#utility.yul\":8123:8162   */\n      tag_674\n        /* \"#utility.yul\":8156:8161   */\n      dup3\n        /* \"#utility.yul\":8123:8162   */\n      tag_501\n      jump\t// in\n    tag_674:\n        /* \"#utility.yul\":8178:8249   */\n      tag_675\n        /* \"#utility.yul\":8242:8248   */\n      dup2\n        /* \"#utility.yul\":8237:8240   */\n      dup6\n        /* \"#utility.yul\":8178:8249   */\n      tag_502\n      jump\t// in\n    tag_675:\n        /* \"#utility.yul\":8171:8249   */\n      swap4\n      pop\n        /* \"#utility.yul\":8258:8323   */\n      tag_676\n        /* \"#utility.yul\":8316:8322   */\n      dup2\n        /* \"#utility.yul\":8311:8314   */\n      dup6\n        /* \"#utility.yul\":8304:8308   */\n      0x20\n        /* \"#utility.yul\":8297:8302   */\n      dup7\n        /* \"#utility.yul\":8293:8309   */\n      add\n        /* \"#utility.yul\":8258:8323   */\n      tag_503\n      jump\t// in\n    tag_676:\n        /* \"#utility.yul\":8348:8377   */\n      tag_677\n        /* \"#utility.yul\":8370:8376   */\n      dup2\n        /* \"#utility.yul\":8348:8377   */\n      tag_504\n      jump\t// in\n    tag_677:\n        /* \"#utility.yul\":8343:8346   */\n      dup5\n        /* \"#utility.yul\":8339:8378   */\n      add\n        /* \"#utility.yul\":8332:8378   */\n      swap2\n      pop\n        /* \"#utility.yul\":8099:8384   */\n      pop\n        /* \"#utility.yul\":8007:8384   */\n      swap3\n      swap2\n      pop\n      pop\n      jump\t// out\n        /* \"#utility.yul\":8390:8813   */\n    tag_101:\n        /* \"#utility.yul\":8531:8535   */\n      0x00\n        /* \"#utility.yul\":8569:8571   */\n      0x40\n        /* \"#utility.yul\":8558:8567   */\n      dup3\n        /* \"#utility.yul\":8554:8572   */\n      add\n        /* \"#utility.yul\":8546:8572   */\n      swap1\n      pop\n        /* \"#utility.yul\":8582:8653   */\n      tag_679\n        /* \"#utility.yul\":8650:8651   */\n      0x00\n        /* \"#utility.yul\":8639:8648   */\n      dup4\n        /* \"#utility.yul\":8635:8652   */\n      add\n        /* \"#utility.yul\":8626:8632   */\n      dup6\n        /* \"#utility.yul\":8582:8653   */\n      tag_492\n      jump\t// in\n    tag_679:\n        /* \"#utility.yul\":8700:8709   */\n      dup2\n        /* \"#utility.yul\":8694:8698   */\n      dup2\n        /* \"#utility.yul\":8690:8710   */\n      sub\n        /* \"#utility.yul\":8685:8687   */\n      0x20\n        /* \"#utility.yul\":8674:8683   */\n      dup4\n        /* \"#utility.yul\":8670:8688   */\n      add\n        /* \"#utility.yul\":8663:8711   */\n      mstore\n        /* \"#utility.yul\":8728:8806   */\n      tag_680\n        /* \"#utility.yul\":8801:8805   */\n      dup2\n        /* \"#utility.yul\":8792:8798   */\n      dup5\n        /* \"#utility.yul\":8728:8806   */\n      tag_505\n      jump\t// in\n    tag_680:\n        /* \"#utility.yul\":8720:8806   */\n      swap1\n      pop\n        /* \"#utility.yul\":8390:8813   */\n      swap4\n      swap3\n      pop\n      pop\n      pop\n      jump\t// out\n        /* \"#utility.yul\":8819:9242   */\n    tag_112:\n        /* \"#utility.yul\":8960:8964   */\n      0x00\n        /* \"#utility.yul\":8998:9000   */\n      0x40\n        /* \"#utility.yul\":8987:8996   */\n      dup3\n        /* \"#utility.yul\":8983:9001   */\n      add\n        /* \"#utility.yul\":8975:9001   */\n      swap1\n      pop\n        /* \"#utility.yul\":9047:9056   */\n      dup2\n        /* \"#utility.yul\":9041:9045   */\n      dup2\n        /* \"#utility.yul\":9037:9057   */\n      sub\n        /* \"#utility.yul\":9033:9034   */\n      0x00\n        /* \"#utility.yul\":9022:9031   */\n      dup4\n        /* \"#utility.yul\":9018:9035   */\n      add\n        /* \"#utility.yul\":9011:9058   */\n      mstore\n        /* \"#utility.yul\":9075:9153   */\n      tag_682\n        /* \"#utility.yul\":9148:9152   */\n      dup2\n        /* \"#utility.yul\":9139:9145   */\n      dup6\n        /* \"#utility.yul\":9075:9153   */\n      tag_505\n      jump\t// in\n    tag_682:\n        /* \"#utility.yul\":9067:9153   */\n      swap1\n      pop\n        /* \"#utility.yul\":9163:9235   */\n      tag_683\n        /* \"#utility.yul\":9231:9233   */\n      0x20\n        /* \"#utility.yul\":9220:9229   */\n      dup4\n        /* \"#utility.yul\":9216:9234   */\n      add\n        /* \"#utility.yul\":9207:9213   */\n      dup5\n        /* \"#utility.yul\":9163:9235   */\n      tag_492\n      jump\t// in\n    tag_683:\n        /* \"#utility.yul\":8819:9242   */\n      swap4\n      swap3\n      pop\n      pop\n      pop\n      jump\t// out\n        /* \"#utility.yul\":9248:9577   */\n    tag_117:\n        /* \"#utility.yul\":9307:9313   */\n      0x00\n        /* \"#utility.yul\":9356:9358   */\n      0x20\n        /* \"#utility.yul\":9344:9353   */\n      dup3\n        /* \"#utility.yul\":9335:9342   */\n      dup5\n        /* \"#utility.yul\":9331:9354   */\n      sub\n        /* \"#utility.yul\":9327:9359   */\n      slt\n        /* \"#utility.yul\":9324:9443   */\n      iszero\n      tag_685\n      jumpi\n        /* \"#utility.yul\":9362:9441   */\n      tag_686\n      tag_483\n      jump\t// in\n    tag_686:\n        /* \"#utility.yul\":9324:9443   */\n    tag_685:\n        /* \"#utility.yul\":9482:9483   */\n      0x00\n        /* \"#utility.yul\":9507:9560   */\n      tag_687\n        /* \"#utility.yul\":9552:9559   */\n      dup5\n        /* \"#utility.yul\":9543:9549   */\n      dup3\n        /* \"#utility.yul\":9532:9541   */\n      dup6\n        /* \"#utility.yul\":9528:9550   */\n      add\n        /* \"#utility.yul\":9507:9560   */\n      tag_487\n      jump\t// in\n    tag_687:\n        /* \"#utility.yul\":9497:9560   */\n      swap2\n      pop\n        /* \"#utility.yul\":9453:9570   */\n      pop\n        /* \"#utility.yul\":9248:9577   */\n      swap3\n      swap2\n      pop\n      pop\n      jump\t// out\n        /* \"#utility.yul\":9583:9747   */\n    tag_506:\n        /* \"#utility.yul\":9723:9739   */\n      0x4e6f742061637469766174656421000000000000000000000000000000000000\n        /* \"#utility.yul\":9719:9720   */\n      0x00\n        /* \"#utility.yul\":9711:9717   */\n      dup3\n        /* \"#utility.yul\":9707:9721   */\n      add\n        /* \"#utility.yul\":9700:9740   */\n      mstore\n        /* \"#utility.yul\":9583:9747   */\n      pop\n      jump\t// out\n        /* \"#utility.yul\":9753:10119   */\n    tag_507:\n        /* \"#utility.yul\":9895:9898   */\n      0x00\n        /* \"#utility.yul\":9916:9983   */\n      tag_690\n        /* \"#utility.yul\":9980:9982   */\n      0x0e\n        /* \"#utility.yul\":9975:9978   */\n      dup4\n        /* \"#utility.yul\":9916:9983   */\n      tag_502\n      jump\t// in\n    tag_690:\n        /* \"#utility.yul\":9909:9983   */\n      swap2\n      pop\n        /* \"#utility.yul\":9992:10085   */\n      tag_691\n        /* \"#utility.yul\":10081:10084   */\n      dup3\n        /* \"#utility.yul\":9992:10085   */\n      tag_506\n      jump\t// in\n    tag_691:\n        /* \"#utility.yul\":10110:10112   */\n      0x20\n        /* \"#utility.yul\":10105:10108   */\n      dup3\n        /* \"#utility.yul\":10101:10113   */\n      add\n        /* \"#utility.yul\":10094:10113   */\n      swap1\n      pop\n        /* \"#utility.yul\":9753:10119   */\n      swap2\n      swap1\n      pop\n      jump\t// out\n        /* \"#utility.yul\":10125:10544   */\n    tag_129:\n        /* \"#utility.yul\":10291:10295   */\n      0x00\n        /* \"#utility.yul\":10329:10331   */\n      0x20\n        /* \"#utility.yul\":10318:10327   */\n      dup3\n        /* \"#utility.yul\":10314:10332   */\n      add\n        /* \"#utility.yul\":10306:10332   */\n      swap1\n      pop\n        /* \"#utility.yul\":10378:10387   */\n      dup2\n        /* \"#utility.yul\":10372:10376   */\n      dup2\n        /* \"#utility.yul\":10368:10388   */\n      sub\n        /* \"#utility.yul\":10364:10365   */\n      0x00\n        /* \"#utility.yul\":10353:10362   */\n      dup4\n        /* \"#utility.yul\":10349:10366   */\n      add\n        /* \"#utility.yul\":10342:10389   */\n      mstore\n        /* \"#utility.yul\":10406:10537   */\n      tag_693\n        /* \"#utility.yul\":10532:10536   */\n      dup2\n        /* \"#utility.yul\":10406:10537   */\n      tag_507\n      jump\t// in\n    tag_693:\n        /* \"#utility.yul\":10398:10537   */\n      swap1\n      pop\n        /* \"#utility.yul\":10125:10544   */\n      swap2\n      swap1\n      pop\n      jump\t// out\n        /* \"#utility.yul\":10550:10801   */\n    tag_508:\n        /* \"#utility.yul\":10690:10724   */\n      0x4e6f7420656e6f75676820706f696e74732e2054686520636f6e747261637420\n        /* \"#utility.yul\":10686:10687   */\n      0x00\n        /* \"#utility.yul\":10678:10684   */\n      dup3\n        /* \"#utility.yul\":10674:10688   */\n      add\n        /* \"#utility.yul\":10667:10725   */\n      mstore\n        /* \"#utility.yul\":10759:10793   */\n      0x6d75737420626520636861726765642077697468206d6f726520746f6b656e73\n        /* \"#utility.yul\":10754:10756   */\n      0x20\n        /* \"#utility.yul\":10746:10752   */\n      dup3\n        /* \"#utility.yul\":10742:10757   */\n      add\n        /* \"#utility.yul\":10735:10794   */\n      mstore\n        /* \"#utility.yul\":10550:10801   */\n      pop\n      jump\t// out\n        /* \"#utility.yul\":10807:11173   */\n    tag_509:\n        /* \"#utility.yul\":10949:10952   */\n      0x00\n        /* \"#utility.yul\":10970:11037   */\n      tag_696\n        /* \"#utility.yul\":11034:11036   */\n      0x40\n        /* \"#utility.yul\":11029:11032   */\n      dup4\n        /* \"#utility.yul\":10970:11037   */\n      tag_502\n      jump\t// in\n    tag_696:\n        /* \"#utility.yul\":10963:11037   */\n      swap2\n      pop\n        /* \"#utility.yul\":11046:11139   */\n      tag_697\n        /* \"#utility.yul\":11135:11138   */\n      dup3\n        /* \"#utility.yul\":11046:11139   */\n      tag_508\n      jump\t// in\n    tag_697:\n        /* \"#utility.yul\":11164:11166   */\n      0x40\n        /* \"#utility.yul\":11159:11162   */\n      dup3\n        /* \"#utility.yul\":11155:11167   */\n      add\n        /* \"#utility.yul\":11148:11167   */\n      swap1\n      pop\n        /* \"#utility.yul\":10807:11173   */\n      swap2\n      swap1\n      pop\n      jump\t// out\n        /* \"#utility.yul\":11179:11598   */\n    tag_133:\n        /* \"#utility.yul\":11345:11349   */\n      0x00\n        /* \"#utility.yul\":11383:11385   */\n      0x20\n        /* \"#utility.yul\":11372:11381   */\n      dup3\n        /* \"#utility.yul\":11368:11386   */\n      add\n        /* \"#utility.yul\":11360:11386   */\n      swap1\n      pop\n        /* \"#utility.yul\":11432:11441   */\n      dup2\n        /* \"#utility.yul\":11426:11430   */\n      dup2\n        /* \"#utility.yul\":11422:11442   */\n      sub\n        /* \"#utility.yul\":11418:11419   */\n      0x00\n        /* \"#utility.yul\":11407:11416   */\n      dup4\n        /* \"#utility.yul\":11403:11420   */\n      add\n        /* \"#utility.yul\":11396:11443   */\n      mstore\n        /* \"#utility.yul\":11460:11591   */\n      tag_699\n        /* \"#utility.yul\":11586:11590   */\n      dup2\n        /* \"#utility.yul\":11460:11591   */\n      tag_509\n      jump\t// in\n    tag_699:\n        /* \"#utility.yul\":11452:11591   */\n      swap1\n      pop\n        /* \"#utility.yul\":11179:11598   */\n      swap2\n      swap1\n      pop\n      jump\t// out\n        /* \"#utility.yul\":11604:11829   */\n    tag_510:\n        /* \"#utility.yul\":11744:11778   */\n      0x57697468647261772076616c7565206d75737420626520677265617465722074\n        /* \"#utility.yul\":11740:11741   */\n      0x00\n        /* \"#utility.yul\":11732:11738   */\n      dup3\n        /* \"#utility.yul\":11728:11742   */\n      add\n        /* \"#utility.yul\":11721:11779   */\n      mstore\n        /* \"#utility.yul\":11813:11821   */\n      0x68616e2030210000000000000000000000000000000000000000000000000000\n        /* \"#utility.yul\":11808:11810   */\n      0x20\n        /* \"#utility.yul\":11800:11806   */\n      dup3\n        /* \"#utility.yul\":11796:11811   */\n      add\n        /* \"#utility.yul\":11789:11822   */\n      mstore\n        /* \"#utility.yul\":11604:11829   */\n      pop\n      jump\t// out\n        /* \"#utility.yul\":11835:12201   */\n    tag_511:\n        /* \"#utility.yul\":11977:11980   */\n      0x00\n        /* \"#utility.yul\":11998:12065   */\n      tag_702\n        /* \"#utility.yul\":12062:12064   */\n      0x26\n        /* \"#utility.yul\":12057:12060   */\n      dup4\n        /* \"#utility.yul\":11998:12065   */\n      tag_502\n      jump\t// in\n    tag_702:\n        /* \"#utility.yul\":11991:12065   */\n      swap2\n      pop\n        /* \"#utility.yul\":12074:12167   */\n      tag_703\n        /* \"#utility.yul\":12163:12166   */\n      dup3\n        /* \"#utility.yul\":12074:12167   */\n      tag_510\n      jump\t// in\n    tag_703:\n        /* \"#utility.yul\":12192:12194   */\n      0x40\n        /* \"#utility.yul\":12187:12190   */\n      dup3\n        /* \"#utility.yul\":12183:12195   */\n      add\n        /* \"#utility.yul\":12176:12195   */\n      swap1\n      pop\n        /* \"#utility.yul\":11835:12201   */\n      swap2\n      swap1\n      pop\n      jump\t// out\n        /* \"#utility.yul\":12207:12626   */\n    tag_136:\n        /* \"#utility.yul\":12373:12377   */\n      0x00\n        /* \"#utility.yul\":12411:12413   */\n      0x20\n        /* \"#utility.yul\":12400:12409   */\n      dup3\n        /* \"#utility.yul\":12396:12414   */\n      add\n        /* \"#utility.yul\":12388:12414   */\n      swap1\n      pop\n        /* \"#utility.yul\":12460:12469   */\n      dup2\n        /* \"#utility.yul\":12454:12458   */\n      dup2\n        /* \"#utility.yul\":12450:12470   */\n      sub\n        /* \"#utility.yul\":12446:12447   */\n      0x00\n        /* \"#utility.yul\":12435:12444   */\n      dup4\n        /* \"#utility.yul\":12431:12448   */\n      add\n        /* \"#utility.yul\":12424:12471   */\n      mstore\n        /* \"#utility.yul\":12488:12619   */\n      tag_705\n        /* \"#utility.yul\":12614:12618   */\n      dup2\n        /* \"#utility.yul\":12488:12619   */\n      tag_511\n      jump\t// in\n    tag_705:\n        /* \"#utility.yul\":12480:12619   */\n      swap1\n      pop\n        /* \"#utility.yul\":12207:12626   */\n      swap2\n      swap1\n      pop\n      jump\t// out\n        /* \"#utility.yul\":12632:12812   */\n    tag_512:\n        /* \"#utility.yul\":12680:12757   */\n      0x4e487b7100000000000000000000000000000000000000000000000000000000\n        /* \"#utility.yul\":12677:12678   */\n      0x00\n        /* \"#utility.yul\":12670:12758   */\n      mstore\n        /* \"#utility.yul\":12777:12781   */\n      0x11\n        /* \"#utility.yul\":12774:12775   */\n      0x04\n        /* \"#utility.yul\":12767:12782   */\n      mstore\n        /* \"#utility.yul\":12801:12805   */\n      0x24\n        /* \"#utility.yul\":12798:12799   */\n      0x00\n        /* \"#utility.yul\":12791:12806   */\n      revert\n        /* \"#utility.yul\":12818:13012   */\n    tag_139:\n        /* \"#utility.yul\":12858:12862   */\n      0x00\n        /* \"#utility.yul\":12878:12898   */\n      tag_708\n        /* \"#utility.yul\":12896:12897   */\n      dup3\n        /* \"#utility.yul\":12878:12898   */\n      tag_485\n      jump\t// in\n    tag_708:\n        /* \"#utility.yul\":12873:12898   */\n      swap2\n      pop\n        /* \"#utility.yul\":12912:12932   */\n      tag_709\n        /* \"#utility.yul\":12930:12931   */\n      dup4\n        /* \"#utility.yul\":12912:12932   */\n      tag_485\n      jump\t// in\n    tag_709:\n        /* \"#utility.yul\":12907:12932   */\n      swap3\n      pop\n        /* \"#utility.yul\":12956:12957   */\n      dup3\n        /* \"#utility.yul\":12953:12954   */\n      dup3\n        /* \"#utility.yul\":12949:12958   */\n      sub\n        /* \"#utility.yul\":12941:12958   */\n      swap1\n      pop\n        /* \"#utility.yul\":12980:12981   */\n      dup2\n        /* \"#utility.yul\":12974:12978   */\n      dup2\n        /* \"#utility.yul\":12971:12982   */\n      gt\n        /* \"#utility.yul\":12968:13005   */\n      iszero\n      tag_710\n      jumpi\n        /* \"#utility.yul\":12985:13003   */\n      tag_711\n      tag_512\n      jump\t// in\n    tag_711:\n        /* \"#utility.yul\":12968:13005   */\n    tag_710:\n        /* \"#utility.yul\":12818:13012   */\n      swap3\n      swap2\n      pop\n      pop\n      jump\t// out\n        /* \"#utility.yul\":13018:13183   */\n    tag_513:\n        /* \"#utility.yul\":13158:13175   */\n      0x4e6f7420417574686f72697a6564210000000000000000000000000000000000\n        /* \"#utility.yul\":13154:13155   */\n      0x00\n        /* \"#utility.yul\":13146:13152   */\n      dup3\n        /* \"#utility.yul\":13142:13156   */\n      add\n        /* \"#utility.yul\":13135:13176   */\n      mstore\n        /* \"#utility.yul\":13018:13183   */\n      pop\n      jump\t// out\n        /* \"#utility.yul\":13189:13555   */\n    tag_514:\n        /* \"#utility.yul\":13331:13334   */\n      0x00\n        /* \"#utility.yul\":13352:13419   */\n      tag_714\n        /* \"#utility.yul\":13416:13418   */\n      0x0f\n        /* \"#utility.yul\":13411:13414   */\n      dup4\n        /* \"#utility.yul\":13352:13419   */\n      tag_502\n      jump\t// in\n    tag_714:\n        /* \"#utility.yul\":13345:13419   */\n      swap2\n      pop\n        /* \"#utility.yul\":13428:13521   */\n      tag_715\n        /* \"#utility.yul\":13517:13520   */\n      dup3\n        /* \"#utility.yul\":13428:13521   */\n      tag_513\n      jump\t// in\n    tag_715:\n        /* \"#utility.yul\":13546:13548   */\n      0x20\n        /* \"#utility.yul\":13541:13544   */\n      dup3\n        /* \"#utility.yul\":13537:13549   */\n      add\n        /* \"#utility.yul\":13530:13549   */\n      swap1\n      pop\n        /* \"#utility.yul\":13189:13555   */\n      swap2\n      swap1\n      pop\n      jump\t// out\n        /* \"#utility.yul\":13561:13980   */\n    tag_166:\n        /* \"#utility.yul\":13727:13731   */\n      0x00\n        /* \"#utility.yul\":13765:13767   */\n      0x20\n        /* \"#utility.yul\":13754:13763   */\n      dup3\n        /* \"#utility.yul\":13750:13768   */\n      add\n        /* \"#utility.yul\":13742:13768   */\n      swap1\n      pop\n        /* \"#utility.yul\":13814:13823   */\n      dup2\n        /* \"#utility.yul\":13808:13812   */\n      dup2\n        /* \"#utility.yul\":13804:13824   */\n      sub\n        /* \"#utility.yul\":13800:13801   */\n      0x00\n        /* \"#utility.yul\":13789:13798   */\n      dup4\n        /* \"#utility.yul\":13785:13802   */\n      add\n        /* \"#utility.yul\":13778:13825   */\n      mstore\n        /* \"#utility.yul\":13842:13973   */\n      tag_717\n        /* \"#utility.yul\":13968:13972   */\n      dup2\n        /* \"#utility.yul\":13842:13973   */\n      tag_514\n      jump\t// in\n    tag_717:\n        /* \"#utility.yul\":13834:13973   */\n      swap1\n      pop\n        /* \"#utility.yul\":13561:13980   */\n      swap2\n      swap1\n      pop\n      jump\t// out\n        /* \"#utility.yul\":13986:14159   */\n    tag_515:\n        /* \"#utility.yul\":14126:14151   */\n      0x41637469766174696f6e206e6f7420616c6c6f77656421000000000000000000\n        /* \"#utility.yul\":14122:14123   */\n      0x00\n        /* \"#utility.yul\":14114:14120   */\n      dup3\n        /* \"#utility.yul\":14110:14124   */\n      add\n        /* \"#utility.yul\":14103:14152   */\n      mstore\n        /* \"#utility.yul\":13986:14159   */\n      pop\n      jump\t// out\n        /* \"#utility.yul\":14165:14531   */\n    tag_516:\n        /* \"#utility.yul\":14307:14310   */\n      0x00\n        /* \"#utility.yul\":14328:14395   */\n      tag_720\n        /* \"#utility.yul\":14392:14394   */\n      0x17\n        /* \"#utility.yul\":14387:14390   */\n      dup4\n        /* \"#utility.yul\":14328:14395   */\n      tag_502\n      jump\t// in\n    tag_720:\n        /* \"#utility.yul\":14321:14395   */\n      swap2\n      pop\n        /* \"#utility.yul\":14404:14497   */\n      tag_721\n        /* \"#utility.yul\":14493:14496   */\n      dup3\n        /* \"#utility.yul\":14404:14497   */\n      tag_515\n      jump\t// in\n    tag_721:\n        /* \"#utility.yul\":14522:14524   */\n      0x20\n        /* \"#utility.yul\":14517:14520   */\n      dup3\n        /* \"#utility.yul\":14513:14525   */\n      add\n        /* \"#utility.yul\":14506:14525   */\n      swap1\n      pop\n        /* \"#utility.yul\":14165:14531   */\n      swap2\n      swap1\n      pop\n      jump\t// out\n        /* \"#utility.yul\":14537:14956   */\n    tag_178:\n        /* \"#utility.yul\":14703:14707   */\n      0x00\n        /* \"#utility.yul\":14741:14743   */\n      0x20\n        /* \"#utility.yul\":14730:14739   */\n      dup3\n        /* \"#utility.yul\":14726:14744   */\n      add\n        /* \"#utility.yul\":14718:14744   */\n      swap1\n      pop\n        /* \"#utility.yul\":14790:14799   */\n      dup2\n        /* \"#utility.yul\":14784:14788   */\n      dup2\n        /* \"#utility.yul\":14780:14800   */\n      sub\n        /* \"#utility.yul\":14776:14777   */\n      0x00\n        /* \"#utility.yul\":14765:14774   */\n      dup4\n        /* \"#utility.yul\":14761:14778   */\n      add\n        /* \"#utility.yul\":14754:14801   */\n      mstore\n        /* \"#utility.yul\":14818:14949   */\n      tag_723\n        /* \"#utility.yul\":14944:14948   */\n      dup2\n        /* \"#utility.yul\":14818:14949   */\n      tag_516\n      jump\t// in\n    tag_723:\n        /* \"#utility.yul\":14810:14949   */\n      swap1\n      pop\n        /* \"#utility.yul\":14537:14956   */\n      swap2\n      swap1\n      pop\n      jump\t// out\n        /* \"#utility.yul\":14962:15130   */\n    tag_517:\n        /* \"#utility.yul\":15102:15122   */\n      0x416c7265616479206163746976617465642e0000000000000000000000000000\n        /* \"#utility.yul\":15098:15099   */\n      0x00\n        /* \"#utility.yul\":15090:15096   */\n      dup3\n        /* \"#utility.yul\":15086:15100   */\n      add\n        /* \"#utility.yul\":15079:15123   */\n      mstore\n        /* \"#utility.yul\":14962:15130   */\n      pop\n      jump\t// out\n        /* \"#utility.yul\":15136:15502   */\n    tag_518:\n        /* \"#utility.yul\":15278:15281   */\n      0x00\n        /* \"#utility.yul\":15299:15366   */\n      tag_726\n        /* \"#utility.yul\":15363:15365   */\n      0x12\n        /* \"#utility.yul\":15358:15361   */\n      dup4\n        /* \"#utility.yul\":15299:15366   */\n      tag_502\n      jump\t// in\n    tag_726:\n        /* \"#utility.yul\":15292:15366   */\n      swap2\n      pop\n        /* \"#utility.yul\":15375:15468   */\n      tag_727\n        /* \"#utility.yul\":15464:15467   */\n      dup3\n        /* \"#utility.yul\":15375:15468   */\n      tag_517\n      jump\t// in\n    tag_727:\n        /* \"#utility.yul\":15493:15495   */\n      0x20\n        /* \"#utility.yul\":15488:15491   */\n      dup3\n        /* \"#utility.yul\":15484:15496   */\n      add\n        /* \"#utility.yul\":15477:15496   */\n      swap1\n      pop\n        /* \"#utility.yul\":15136:15502   */\n      swap2\n      swap1\n      pop\n      jump\t// out\n        /* \"#utility.yul\":15508:15927   */\n    tag_181:\n        /* \"#utility.yul\":15674:15678   */\n      0x00\n        /* \"#utility.yul\":15712:15714   */\n      0x20\n        /* \"#utility.yul\":15701:15710   */\n      dup3\n        /* \"#utility.yul\":15697:15715   */\n      add\n        /* \"#utility.yul\":15689:15715   */\n      swap1\n      pop\n        /* \"#utility.yul\":15761:15770   */\n      dup2\n        /* \"#utility.yul\":15755:15759   */\n      dup2\n        /* \"#utility.yul\":15751:15771   */\n      sub\n        /* \"#utility.yul\":15747:15748   */\n      0x00\n        /* \"#utility.yul\":15736:15745   */\n      dup4\n        /* \"#utility.yul\":15732:15749   */\n      add\n        /* \"#utility.yul\":15725:15772   */\n      mstore\n        /* \"#utility.yul\":15789:15920   */\n      tag_729\n        /* \"#utility.yul\":15915:15919   */\n      dup2\n        /* \"#utility.yul\":15789:15920   */\n      tag_518\n      jump\t// in\n    tag_729:\n        /* \"#utility.yul\":15781:15920   */\n      swap1\n      pop\n        /* \"#utility.yul\":15508:15927   */\n      swap2\n      swap1\n      pop\n      jump\t// out\n        /* \"#utility.yul\":15933:16184   */\n    tag_519:\n        /* \"#utility.yul\":16073:16107   */\n      0x4f6e6c79204f776e6572206f7220417574686f72697a65642070617274696369\n        /* \"#utility.yul\":16069:16070   */\n      0x00\n        /* \"#utility.yul\":16061:16067   */\n      dup3\n        /* \"#utility.yul\":16057:16071   */\n      add\n        /* \"#utility.yul\":16050:16108   */\n      mstore\n        /* \"#utility.yul\":16142:16176   */\n      0x7061746f722063616e206163636573732074686973206f7065726174696f6e21\n        /* \"#utility.yul\":16137:16139   */\n      0x20\n        /* \"#utility.yul\":16129:16135   */\n      dup3\n        /* \"#utility.yul\":16125:16140   */\n      add\n        /* \"#utility.yul\":16118:16177   */\n      mstore\n        /* \"#utility.yul\":15933:16184   */\n      pop\n      jump\t// out\n        /* \"#utility.yul\":16190:16556   */\n    tag_520:\n        /* \"#utility.yul\":16332:16335   */\n      0x00\n        /* \"#utility.yul\":16353:16420   */\n      tag_732\n        /* \"#utility.yul\":16417:16419   */\n      0x40\n        /* \"#utility.yul\":16412:16415   */\n      dup4\n        /* \"#utility.yul\":16353:16420   */\n      tag_502\n      jump\t// in\n    tag_732:\n        /* \"#utility.yul\":16346:16420   */\n      swap2\n      pop\n        /* \"#utility.yul\":16429:16522   */\n      tag_733\n        /* \"#utility.yul\":16518:16521   */\n      dup3\n        /* \"#utility.yul\":16429:16522   */\n      tag_519\n      jump\t// in\n    tag_733:\n        /* \"#utility.yul\":16547:16549   */\n      0x40\n        /* \"#utility.yul\":16542:16545   */\n      dup3\n        /* \"#utility.yul\":16538:16550   */\n      add\n        /* \"#utility.yul\":16531:16550   */\n      swap1\n      pop\n        /* \"#utility.yul\":16190:16556   */\n      swap2\n      swap1\n      pop\n      jump\t// out\n        /* \"#utility.yul\":16562:16981   */\n    tag_191:\n        /* \"#utility.yul\":16728:16732   */\n      0x00\n        /* \"#utility.yul\":16766:16768   */\n      0x20\n        /* \"#utility.yul\":16755:16764   */\n      dup3\n        /* \"#utility.yul\":16751:16769   */\n      add\n        /* \"#utility.yul\":16743:16769   */\n      swap1\n      pop\n        /* \"#utility.yul\":16815:16824   */\n      dup2\n        /* \"#utility.yul\":16809:16813   */\n      dup2\n        /* \"#utility.yul\":16805:16825   */\n      sub\n        /* \"#utility.yul\":16801:16802   */\n      0x00\n        /* \"#utility.yul\":16790:16799   */\n      dup4\n        /* \"#utility.yul\":16786:16803   */\n      add\n        /* \"#utility.yul\":16779:16826   */\n      mstore\n        /* \"#utility.yul\":16843:16974   */\n      tag_735\n        /* \"#utility.yul\":16969:16973   */\n      dup2\n        /* \"#utility.yul\":16843:16974   */\n      tag_520\n      jump\t// in\n    tag_735:\n        /* \"#utility.yul\":16835:16974   */\n      swap1\n      pop\n        /* \"#utility.yul\":16562:16981   */\n      swap2\n      swap1\n      pop\n      jump\t// out\n        /* \"#utility.yul\":16987:17171   */\n    tag_521:\n        /* \"#utility.yul\":17086:17097   */\n      0x00\n        /* \"#utility.yul\":17120:17126   */\n      dup3\n        /* \"#utility.yul\":17115:17118   */\n      dup3\n        /* \"#utility.yul\":17108:17127   */\n      mstore\n        /* \"#utility.yul\":17160:17164   */\n      0x20\n        /* \"#utility.yul\":17155:17158   */\n      dup3\n        /* \"#utility.yul\":17151:17165   */\n      add\n        /* \"#utility.yul\":17136:17165   */\n      swap1\n      pop\n        /* \"#utility.yul\":16987:17171   */\n      swap3\n      swap2\n      pop\n      pop\n      jump\t// out\n        /* \"#utility.yul\":17177:17279   */\n    tag_522:\n        /* \"#utility.yul\":17246:17250   */\n      0x00\n        /* \"#utility.yul\":17269:17272   */\n      dup2\n        /* \"#utility.yul\":17261:17272   */\n      swap1\n      pop\n        /* \"#utility.yul\":17177:17279   */\n      swap2\n      swap1\n      pop\n      jump\t// out\n        /* \"#utility.yul\":17285:17393   */\n    tag_523:\n        /* \"#utility.yul\":17362:17386   */\n      tag_739\n        /* \"#utility.yul\":17380:17385   */\n      dup2\n        /* \"#utility.yul\":17362:17386   */\n      tag_489\n      jump\t// in\n    tag_739:\n        /* \"#utility.yul\":17357:17360   */\n      dup3\n        /* \"#utility.yul\":17350:17387   */\n      mstore\n        /* \"#utility.yul\":17285:17393   */\n      pop\n      pop\n      jump\t// out\n        /* \"#utility.yul\":17399:17578   */\n    tag_524:\n        /* \"#utility.yul\":17468:17478   */\n      0x00\n        /* \"#utility.yul\":17489:17535   */\n      tag_741\n        /* \"#utility.yul\":17531:17534   */\n      dup4\n        /* \"#utility.yul\":17523:17529   */\n      dup4\n        /* \"#utility.yul\":17489:17535   */\n      tag_523\n      jump\t// in\n    tag_741:\n        /* \"#utility.yul\":17567:17571   */\n      0x20\n        /* \"#utility.yul\":17562:17565   */\n      dup4\n        /* \"#utility.yul\":17558:17572   */\n      add\n        /* \"#utility.yul\":17544:17572   */\n      swap1\n      pop\n        /* \"#utility.yul\":17399:17578   */\n      swap3\n      swap2\n      pop\n      pop\n      jump\t// out\n        /* \"#utility.yul\":17584:17706   */\n    tag_525:\n        /* \"#utility.yul\":17636:17641   */\n      0x00\n        /* \"#utility.yul\":17661:17700   */\n      tag_743\n        /* \"#utility.yul\":17696:17698   */\n      0x20\n        /* \"#utility.yul\":17691:17694   */\n      dup5\n        /* \"#utility.yul\":17687:17699   */\n      add\n        /* \"#utility.yul\":17682:17685   */\n      dup5\n        /* \"#utility.yul\":17661:17700   */\n      tag_491\n      jump\t// in\n    tag_743:\n        /* \"#utility.yul\":17652:17700   */\n      swap1\n      pop\n        /* \"#utility.yul\":17584:17706   */\n      swap3\n      swap2\n      pop\n      pop\n      jump\t// out\n        /* \"#utility.yul\":17712:17827   */\n    tag_526:\n        /* \"#utility.yul\":17784:17788   */\n      0x00\n        /* \"#utility.yul\":17816:17820   */\n      0x20\n        /* \"#utility.yul\":17811:17814   */\n      dup3\n        /* \"#utility.yul\":17807:17821   */\n      add\n        /* \"#utility.yul\":17799:17821   */\n      swap1\n      pop\n        /* \"#utility.yul\":17712:17827   */\n      swap2\n      swap1\n      pop\n      jump\t// out\n        /* \"#utility.yul\":17863:18562   */\n    tag_527:\n        /* \"#utility.yul\":17992:17995   */\n      0x00\n        /* \"#utility.yul\":18015:18101   */\n      tag_746\n        /* \"#utility.yul\":18094:18100   */\n      dup4\n        /* \"#utility.yul\":18089:18092   */\n      dup6\n        /* \"#utility.yul\":18015:18101   */\n      tag_521\n      jump\t// in\n    tag_746:\n        /* \"#utility.yul\":18008:18101   */\n      swap4\n      pop\n        /* \"#utility.yul\":18125:18183   */\n      tag_747\n        /* \"#utility.yul\":18177:18182   */\n      dup3\n        /* \"#utility.yul\":18125:18183   */\n      tag_522\n      jump\t// in\n    tag_747:\n        /* \"#utility.yul\":18206:18213   */\n      dup1\n        /* \"#utility.yul\":18237:18238   */\n      0x00\n        /* \"#utility.yul\":18222:18537   */\n    tag_748:\n        /* \"#utility.yul\":18247:18253   */\n      dup6\n        /* \"#utility.yul\":18244:18245   */\n      dup2\n        /* \"#utility.yul\":18241:18254   */\n      lt\n        /* \"#utility.yul\":18222:18537   */\n      iszero\n      tag_750\n      jumpi\n        /* \"#utility.yul\":18317:18359   */\n      tag_751\n        /* \"#utility.yul\":18352:18358   */\n      dup3\n        /* \"#utility.yul\":18343:18350   */\n      dup5\n        /* \"#utility.yul\":18317:18359   */\n      tag_525\n      jump\t// in\n    tag_751:\n        /* \"#utility.yul\":18379:18442   */\n      tag_752\n        /* \"#utility.yul\":18438:18441   */\n      dup9\n        /* \"#utility.yul\":18423:18436   */\n      dup3\n        /* \"#utility.yul\":18379:18442   */\n      tag_524\n      jump\t// in\n    tag_752:\n        /* \"#utility.yul\":18372:18442   */\n      swap8\n      pop\n        /* \"#utility.yul\":18465:18527   */\n      tag_753\n        /* \"#utility.yul\":18520:18526   */\n      dup4\n        /* \"#utility.yul\":18465:18527   */\n      tag_526\n      jump\t// in\n    tag_753:\n        /* \"#utility.yul\":18455:18527   */\n      swap3\n      pop\n        /* \"#utility.yul\":18282:18537   */\n      pop\n        /* \"#utility.yul\":18269:18270   */\n      0x01\n        /* \"#utility.yul\":18266:18267   */\n      dup2\n        /* \"#utility.yul\":18262:18271   */\n      add\n        /* \"#utility.yul\":18257:18271   */\n      swap1\n      pop\n        /* \"#utility.yul\":18222:18537   */\n      jump(tag_748)\n    tag_750:\n        /* \"#utility.yul\":18226:18240   */\n      pop\n        /* \"#utility.yul\":18553:18556   */\n      dup6\n        /* \"#utility.yul\":18546:18556   */\n      swap3\n      pop\n        /* \"#utility.yul\":17997:18562   */\n      pop\n      pop\n        /* \"#utility.yul\":17863:18562   */\n      swap4\n      swap3\n      pop\n      pop\n      pop\n      jump\t// out\n        /* \"#utility.yul\":18568:18752   */\n    tag_528:\n        /* \"#utility.yul\":18667:18678   */\n      0x00\n        /* \"#utility.yul\":18701:18707   */\n      dup3\n        /* \"#utility.yul\":18696:18699   */\n      dup3\n        /* \"#utility.yul\":18689:18708   */\n      mstore\n        /* \"#utility.yul\":18741:18745   */\n      0x20\n        /* \"#utility.yul\":18736:18739   */\n      dup3\n        /* \"#utility.yul\":18732:18746   */\n      add\n        /* \"#utility.yul\":18717:18746   */\n      swap1\n      pop\n        /* \"#utility.yul\":18568:18752   */\n      swap3\n      swap2\n      pop\n      pop\n      jump\t// out\n        /* \"#utility.yul\":18758:18875   */\n    tag_529:\n        /* \"#utility.yul\":18867:18868   */\n      0x00\n        /* \"#utility.yul\":18864:18865   */\n      dup1\n        /* \"#utility.yul\":18857:18869   */\n      revert\n        /* \"#utility.yul\":18881:18979   */\n    tag_530:\n        /* \"#utility.yul\":18965:18971   */\n      dup3\n        /* \"#utility.yul\":18960:18963   */\n      dup2\n        /* \"#utility.yul\":18955:18958   */\n      dup4\n        /* \"#utility.yul\":18942:18972   */\n      calldatacopy\n        /* \"#utility.yul\":18881:18979   */\n      pop\n      pop\n      pop\n      jump\t// out\n        /* \"#utility.yul\":19015:19552   */\n    tag_531:\n        /* \"#utility.yul\":19143:19146   */\n      0x00\n        /* \"#utility.yul\":19164:19250   */\n      tag_758\n        /* \"#utility.yul\":19243:19249   */\n      dup4\n        /* \"#utility.yul\":19238:19241   */\n      dup6\n        /* \"#utility.yul\":19164:19250   */\n      tag_528\n      jump\t// in\n    tag_758:\n        /* \"#utility.yul\":19157:19250   */\n      swap4\n      pop\n        /* \"#utility.yul\":19274:19340   */\n      0x07ffffffffffffffffffffffffffffffffffffffffffffffffffffffffffffff\n        /* \"#utility.yul\":19266:19272   */\n      dup4\n        /* \"#utility.yul\":19263:19341   */\n      gt\n        /* \"#utility.yul\":19260:19425   */\n      iszero\n      tag_759\n      jumpi\n        /* \"#utility.yul\":19344:19423   */\n      tag_760\n      tag_529\n      jump\t// in\n    tag_760:\n        /* \"#utility.yul\":19260:19425   */\n    tag_759:\n        /* \"#utility.yul\":19456:19460   */\n      0x20\n        /* \"#utility.yul\":19448:19454   */\n      dup4\n        /* \"#utility.yul\":19444:19461   */\n      mul\n        /* \"#utility.yul\":19434:19461   */\n      swap3\n      pop\n        /* \"#utility.yul\":19471:19514   */\n      tag_761\n        /* \"#utility.yul\":19507:19513   */\n      dup4\n        /* \"#utility.yul\":19502:19505   */\n      dup6\n        /* \"#utility.yul\":19495:19500   */\n      dup5\n        /* \"#utility.yul\":19471:19514   */\n      tag_530\n      jump\t// in\n    tag_761:\n        /* \"#utility.yul\":19539:19545   */\n      dup3\n        /* \"#utility.yul\":19534:19537   */\n      dup5\n        /* \"#utility.yul\":19530:19546   */\n      add\n        /* \"#utility.yul\":19523:19546   */\n      swap1\n      pop\n        /* \"#utility.yul\":19015:19552   */\n      swap4\n      swap3\n      pop\n      pop\n      pop\n      jump\t// out\n        /* \"#utility.yul\":19558:20342   */\n    tag_212:\n        /* \"#utility.yul\":19827:19831   */\n      0x00\n        /* \"#utility.yul\":19865:19867   */\n      0x60\n        /* \"#utility.yul\":19854:19863   */\n      dup3\n        /* \"#utility.yul\":19850:19868   */\n      add\n        /* \"#utility.yul\":19842:19868   */\n      swap1\n      pop\n        /* \"#utility.yul\":19878:19949   */\n      tag_763\n        /* \"#utility.yul\":19946:19947   */\n      0x00\n        /* \"#utility.yul\":19935:19944   */\n      dup4\n        /* \"#utility.yul\":19931:19948   */\n      add\n        /* \"#utility.yul\":19922:19928   */\n      dup9\n        /* \"#utility.yul\":19878:19949   */\n      tag_493\n      jump\t// in\n    tag_763:\n        /* \"#utility.yul\":19996:20005   */\n      dup2\n        /* \"#utility.yul\":19990:19994   */\n      dup2\n        /* \"#utility.yul\":19986:20006   */\n      sub\n        /* \"#utility.yul\":19981:19983   */\n      0x20\n        /* \"#utility.yul\":19970:19979   */\n      dup4\n        /* \"#utility.yul\":19966:19984   */\n      add\n        /* \"#utility.yul\":19959:20007   */\n      mstore\n        /* \"#utility.yul\":20024:20142   */\n      tag_764\n        /* \"#utility.yul\":20137:20141   */\n      dup2\n        /* \"#utility.yul\":20128:20134   */\n      dup7\n        /* \"#utility.yul\":20120:20126   */\n      dup9\n        /* \"#utility.yul\":20024:20142   */\n      tag_527\n      jump\t// in\n    tag_764:\n        /* \"#utility.yul\":20016:20142   */\n      swap1\n      pop\n        /* \"#utility.yul\":20189:20198   */\n      dup2\n        /* \"#utility.yul\":20183:20187   */\n      dup2\n        /* \"#utility.yul\":20179:20199   */\n      sub\n        /* \"#utility.yul\":20174:20176   */\n      0x40\n        /* \"#utility.yul\":20163:20172   */\n      dup4\n        /* \"#utility.yul\":20159:20177   */\n      add\n        /* \"#utility.yul\":20152:20200   */\n      mstore\n        /* \"#utility.yul\":20217:20335   */\n      tag_765\n        /* \"#utility.yul\":20330:20334   */\n      dup2\n        /* \"#utility.yul\":20321:20327   */\n      dup5\n        /* \"#utility.yul\":20313:20319   */\n      dup7\n        /* \"#utility.yul\":20217:20335   */\n      tag_531\n      jump\t// in\n    tag_765:\n        /* \"#utility.yul\":20209:20335   */\n      swap1\n      pop\n        /* \"#utility.yul\":19558:20342   */\n      swap7\n      swap6\n      pop\n      pop\n      pop\n      pop\n      pop\n      pop\n      jump\t// out\n        /* \"#utility.yul\":20348:20517   */\n    tag_532:\n        /* \"#utility.yul\":20488:20509   */\n      0x4e6f7420656e6f7567682062616c616e63652100000000000000000000000000\n        /* \"#utility.yul\":20484:20485   */\n      0x00\n        /* \"#utility.yul\":20476:20482   */\n      dup3\n        /* \"#utility.yul\":20472:20486   */\n      add\n        /* \"#utility.yul\":20465:20510   */\n      mstore\n        /* \"#utility.yul\":20348:20517   */\n      pop\n      jump\t// out\n        /* \"#utility.yul\":20523:20889   */\n    tag_533:\n        /* \"#utility.yul\":20665:20668   */\n      0x00\n        /* \"#utility.yul\":20686:20753   */\n      tag_768\n        /* \"#utility.yul\":20750:20752   */\n      0x13\n        /* \"#utility.yul\":20745:20748   */\n      dup4\n        /* \"#utility.yul\":20686:20753   */\n      tag_502\n      jump\t// in\n    tag_768:\n        /* \"#utility.yul\":20679:20753   */\n      swap2\n      pop\n        /* \"#utility.yul\":20762:20855   */\n      tag_769\n        /* \"#utility.yul\":20851:20854   */\n      dup3\n        /* \"#utility.yul\":20762:20855   */\n      tag_532\n      jump\t// in\n    tag_769:\n        /* \"#utility.yul\":20880:20882   */\n      0x20\n        /* \"#utility.yul\":20875:20878   */\n      dup3\n        /* \"#utility.yul\":20871:20883   */\n      add\n        /* \"#utility.yul\":20864:20883   */\n      swap1\n      pop\n        /* \"#utility.yul\":20523:20889   */\n      swap2\n      swap1\n      pop\n      jump\t// out\n        /* \"#utility.yul\":20895:21314   */\n    tag_220:\n        /* \"#utility.yul\":21061:21065   */\n      0x00\n        /* \"#utility.yul\":21099:21101   */\n      0x20\n        /* \"#utility.yul\":21088:21097   */\n      dup3\n        /* \"#utility.yul\":21084:21102   */\n      add\n        /* \"#utility.yul\":21076:21102   */\n      swap1\n      pop\n        /* \"#utility.yul\":21148:21157   */\n      dup2\n        /* \"#utility.yul\":21142:21146   */\n      dup2\n        /* \"#utility.yul\":21138:21158   */\n      sub\n        /* \"#utility.yul\":21134:21135   */\n      0x00\n        /* \"#utility.yul\":21123:21132   */\n      dup4\n        /* \"#utility.yul\":21119:21136   */\n      add\n        /* \"#utility.yul\":21112:21159   */\n      mstore\n        /* \"#utility.yul\":21176:21307   */\n      tag_771\n        /* \"#utility.yul\":21302:21306   */\n      dup2\n        /* \"#utility.yul\":21176:21307   */\n      tag_533\n      jump\t// in\n    tag_771:\n        /* \"#utility.yul\":21168:21307   */\n      swap1\n      pop\n        /* \"#utility.yul\":20895:21314   */\n      swap2\n      swap1\n      pop\n      jump\t// out\n        /* \"#utility.yul\":21320:21652   */\n    tag_222:\n        /* \"#utility.yul\":21441:21445   */\n      0x00\n        /* \"#utility.yul\":21479:21481   */\n      0x40\n        /* \"#utility.yul\":21468:21477   */\n      dup3\n        /* \"#utility.yul\":21464:21482   */\n      add\n        /* \"#utility.yul\":21456:21482   */\n      swap1\n      pop\n        /* \"#utility.yul\":21492:21563   */\n      tag_773\n        /* \"#utility.yul\":21560:21561   */\n      0x00\n        /* \"#utility.yul\":21549:21558   */\n      dup4\n        /* \"#utility.yul\":21545:21562   */\n      add\n        /* \"#utility.yul\":21536:21542   */\n      dup6\n        /* \"#utility.yul\":21492:21563   */\n      tag_492\n      jump\t// in\n    tag_773:\n        /* \"#utility.yul\":21573:21645   */\n      tag_774\n        /* \"#utility.yul\":21641:21643   */\n      0x20\n        /* \"#utility.yul\":21630:21639   */\n      dup4\n        /* \"#utility.yul\":21626:21644   */\n      add\n        /* \"#utility.yul\":21617:21623   */\n      dup5\n        /* \"#utility.yul\":21573:21645   */\n      tag_493\n      jump\t// in\n    tag_774:\n        /* \"#utility.yul\":21320:21652   */\n      swap4\n      swap3\n      pop\n      pop\n      pop\n      jump\t// out\n        /* \"#utility.yul\":21658:21774   */\n    tag_534:\n        /* \"#utility.yul\":21728:21749   */\n      tag_776\n        /* \"#utility.yul\":21743:21748   */\n      dup2\n        /* \"#utility.yul\":21728:21749   */\n      tag_494\n      jump\t// in\n    tag_776:\n        /* \"#utility.yul\":21721:21726   */\n      dup2\n        /* \"#utility.yul\":21718:21750   */\n      eq\n        /* \"#utility.yul\":21708:21768   */\n      tag_777\n      jumpi\n        /* \"#utility.yul\":21764:21765   */\n      0x00\n        /* \"#utility.yul\":21761:21762   */\n      dup1\n        /* \"#utility.yul\":21754:21766   */\n      revert\n        /* \"#utility.yul\":21708:21768   */\n    tag_777:\n        /* \"#utility.yul\":21658:21774   */\n      pop\n      jump\t// out\n        /* \"#utility.yul\":21780:21917   */\n    tag_535:\n        /* \"#utility.yul\":21834:21839   */\n      0x00\n        /* \"#utility.yul\":21865:21871   */\n      dup2\n        /* \"#utility.yul\":21859:21872   */\n      mload\n        /* \"#utility.yul\":21850:21872   */\n      swap1\n      pop\n        /* \"#utility.yul\":21881:21911   */\n      tag_779\n        /* \"#utility.yul\":21905:21910   */\n      dup2\n        /* \"#utility.yul\":21881:21911   */\n      tag_534\n      jump\t// in\n    tag_779:\n        /* \"#utility.yul\":21780:21917   */\n      swap3\n      swap2\n      pop\n      pop\n      jump\t// out\n        /* \"#utility.yul\":21923:22268   */\n    tag_226:\n        /* \"#utility.yul\":21990:21996   */\n      0x00\n        /* \"#utility.yul\":22039:22041   */\n      0x20\n        /* \"#utility.yul\":22027:22036   */\n      dup3\n        /* \"#utility.yul\":22018:22025   */\n      dup5\n        /* \"#utility.yul\":22014:22037   */\n      sub\n        /* \"#utility.yul\":22010:22042   */\n      slt\n        /* \"#utility.yul\":22007:22126   */\n      iszero\n      tag_781\n      jumpi\n        /* \"#utility.yul\":22045:22124   */\n      tag_782\n      tag_483\n      jump\t// in\n    tag_782:\n        /* \"#utility.yul\":22007:22126   */\n    tag_781:\n        /* \"#utility.yul\":22165:22166   */\n      0x00\n        /* \"#utility.yul\":22190:22251   */\n      tag_783\n        /* \"#utility.yul\":22243:22250   */\n      dup5\n        /* \"#utility.yul\":22234:22240   */\n      dup3\n        /* \"#utility.yul\":22223:22232   */\n      dup6\n        /* \"#utility.yul\":22219:22241   */\n      add\n        /* \"#utility.yul\":22190:22251   */\n      tag_535\n      jump\t// in\n    tag_783:\n        /* \"#utility.yul\":22180:22251   */\n      swap2\n      pop\n        /* \"#utility.yul\":22136:22261   */\n      pop\n        /* \"#utility.yul\":21923:22268   */\n      swap3\n      swap2\n      pop\n      pop\n      jump\t// out\n        /* \"#utility.yul\":22274:22417   */\n    tag_536:\n        /* \"#utility.yul\":22331:22336   */\n      0x00\n        /* \"#utility.yul\":22362:22368   */\n      dup2\n        /* \"#utility.yul\":22356:22369   */\n      mload\n        /* \"#utility.yul\":22347:22369   */\n      swap1\n      pop\n        /* \"#utility.yul\":22378:22411   */\n      tag_785\n        /* \"#utility.yul\":22405:22410   */\n      dup2\n        /* \"#utility.yul\":22378:22411   */\n      tag_486\n      jump\t// in\n    tag_785:\n        /* \"#utility.yul\":22274:22417   */\n      swap3\n      swap2\n      pop\n      pop\n      jump\t// out\n        /* \"#utility.yul\":22423:22774   */\n    tag_237:\n        /* \"#utility.yul\":22493:22499   */\n      0x00\n        /* \"#utility.yul\":22542:22544   */\n      0x20\n        /* \"#utility.yul\":22530:22539   */\n      dup3\n        /* \"#utility.yul\":22521:22528   */\n      dup5\n        /* \"#utility.yul\":22517:22540   */\n      sub\n        /* \"#utility.yul\":22513:22545   */\n      slt\n        /* \"#utility.yul\":22510:22629   */\n      iszero\n      tag_787\n      jumpi\n        /* \"#utility.yul\":22548:22627   */\n      tag_788\n      tag_483\n      jump\t// in\n    tag_788:\n        /* \"#utility.yul\":22510:22629   */\n    tag_787:\n        /* \"#utility.yul\":22668:22669   */\n      0x00\n        /* \"#utility.yul\":22693:22757   */\n      tag_789\n        /* \"#utility.yul\":22749:22756   */\n      dup5\n        /* \"#utility.yul\":22740:22746   */\n      dup3\n        /* \"#utility.yul\":22729:22738   */\n      dup6\n        /* \"#utility.yul\":22725:22747   */\n      add\n        /* \"#utility.yul\":22693:22757   */\n      tag_536\n      jump\t// in\n    tag_789:\n        /* \"#utility.yul\":22683:22757   */\n      swap2\n      pop\n        /* \"#utility.yul\":22639:22767   */\n      pop\n        /* \"#utility.yul\":22423:22774   */\n      swap3\n      swap2\n      pop\n      pop\n      jump\t// out\n        /* \"#utility.yul\":22780:23019   */\n    tag_537:\n        /* \"#utility.yul\":22920:22954   */\n      0x526174652c20706f696e747320616e6420646563696d616c73206d7573742062\n        /* \"#utility.yul\":22916:22917   */\n      0x00\n        /* \"#utility.yul\":22908:22914   */\n      dup3\n        /* \"#utility.yul\":22904:22918   */\n      add\n        /* \"#utility.yul\":22897:22955   */\n      mstore\n        /* \"#utility.yul\":22989:23011   */\n      0x652067726561746572207468616e207a65726f21000000000000000000000000\n        /* \"#utility.yul\":22984:22986   */\n      0x20\n        /* \"#utility.yul\":22976:22982   */\n      dup3\n        /* \"#utility.yul\":22972:22987   */\n      add\n        /* \"#utility.yul\":22965:23012   */\n      mstore\n        /* \"#utility.yul\":22780:23019   */\n      pop\n      jump\t// out\n        /* \"#utility.yul\":23025:23391   */\n    tag_538:\n        /* \"#utility.yul\":23167:23170   */\n      0x00\n        /* \"#utility.yul\":23188:23255   */\n      tag_792\n        /* \"#utility.yul\":23252:23254   */\n      0x34\n        /* \"#utility.yul\":23247:23250   */\n      dup4\n        /* \"#utility.yul\":23188:23255   */\n      tag_502\n      jump\t// in\n    tag_792:\n        /* \"#utility.yul\":23181:23255   */\n      swap2\n      pop\n        /* \"#utility.yul\":23264:23357   */\n      tag_793\n        /* \"#utility.yul\":23353:23356   */\n      dup3\n        /* \"#utility.yul\":23264:23357   */\n      tag_537\n      jump\t// in\n    tag_793:\n        /* \"#utility.yul\":23382:23384   */\n      0x40\n        /* \"#utility.yul\":23377:23380   */\n      dup3\n        /* \"#utility.yul\":23373:23385   */\n      add\n        /* \"#utility.yul\":23366:23385   */\n      swap1\n      pop\n        /* \"#utility.yul\":23025:23391   */\n      swap2\n      swap1\n      pop\n      jump\t// out\n        /* \"#utility.yul\":23397:23816   */\n    tag_245:\n        /* \"#utility.yul\":23563:23567   */\n      0x00\n        /* \"#utility.yul\":23601:23603   */\n      0x20\n        /* \"#utility.yul\":23590:23599   */\n      dup3\n        /* \"#utility.yul\":23586:23604   */\n      add\n        /* \"#utility.yul\":23578:23604   */\n      swap1\n      pop\n        /* \"#utility.yul\":23650:23659   */\n      dup2\n        /* \"#utility.yul\":23644:23648   */\n      dup2\n        /* \"#utility.yul\":23640:23660   */\n      sub\n        /* \"#utility.yul\":23636:23637   */\n      0x00\n        /* \"#utility.yul\":23625:23634   */\n      dup4\n        /* \"#utility.yul\":23621:23638   */\n      add\n        /* \"#utility.yul\":23614:23661   */\n      mstore\n        /* \"#utility.yul\":23678:23809   */\n      tag_795\n        /* \"#utility.yul\":23804:23808   */\n      dup2\n        /* \"#utility.yul\":23678:23809   */\n      tag_538\n      jump\t// in\n    tag_795:\n        /* \"#utility.yul\":23670:23809   */\n      swap1\n      pop\n        /* \"#utility.yul\":23397:23816   */\n      swap2\n      swap1\n      pop\n      jump\t// out\n        /* \"#utility.yul\":23822:23924   */\n    tag_539:\n        /* \"#utility.yul\":23864:23872   */\n      0x00\n        /* \"#utility.yul\":23911:23916   */\n      dup2\n        /* \"#utility.yul\":23908:23909   */\n      0x01\n        /* \"#utility.yul\":23904:23917   */\n      shr\n        /* \"#utility.yul\":23883:23917   */\n      swap1\n      pop\n        /* \"#utility.yul\":23822:23924   */\n      swap2\n      swap1\n      pop\n      jump\t// out\n        /* \"#utility.yul\":23930:24778   */\n    tag_540:\n        /* \"#utility.yul\":23991:23996   */\n      0x00\n        /* \"#utility.yul\":23998:24002   */\n      dup1\n        /* \"#utility.yul\":24022:24028   */\n      dup3\n        /* \"#utility.yul\":24013:24028   */\n      swap2\n      pop\n        /* \"#utility.yul\":24046:24051   */\n      dup4\n        /* \"#utility.yul\":24037:24051   */\n      swap1\n      pop\n        /* \"#utility.yul\":24060:24772   */\n    tag_798:\n        /* \"#utility.yul\":24081:24082   */\n      0x01\n        /* \"#utility.yul\":24071:24079   */\n      dup6\n        /* \"#utility.yul\":24068:24083   */\n      gt\n        /* \"#utility.yul\":24060:24772   */\n      iszero\n      tag_800\n      jumpi\n        /* \"#utility.yul\":24176:24180   */\n      dup1\n        /* \"#utility.yul\":24171:24174   */\n      dup7\n        /* \"#utility.yul\":24167:24181   */\n      div\n        /* \"#utility.yul\":24161:24165   */\n      dup2\n        /* \"#utility.yul\":24158:24182   */\n      gt\n        /* \"#utility.yul\":24155:24205   */\n      iszero\n      tag_801\n      jumpi\n        /* \"#utility.yul\":24185:24203   */\n      tag_802\n      tag_512\n      jump\t// in\n    tag_802:\n        /* \"#utility.yul\":24155:24205   */\n    tag_801:\n        /* \"#utility.yul\":24235:24236   */\n      0x01\n        /* \"#utility.yul\":24225:24233   */\n      dup6\n        /* \"#utility.yul\":24221:24237   */\n      and\n        /* \"#utility.yul\":24218:24669   */\n      iszero\n      tag_803\n      jumpi\n        /* \"#utility.yul\":24650:24654   */\n      dup1\n        /* \"#utility.yul\":24643:24648   */\n      dup3\n        /* \"#utility.yul\":24639:24655   */\n      mul\n        /* \"#utility.yul\":24630:24655   */\n      swap2\n      pop\n        /* \"#utility.yul\":24218:24669   */\n    tag_803:\n        /* \"#utility.yul\":24700:24704   */\n      dup1\n        /* \"#utility.yul\":24694:24698   */\n      dup2\n        /* \"#utility.yul\":24690:24705   */\n      mul\n        /* \"#utility.yul\":24682:24705   */\n      swap1\n      pop\n        /* \"#utility.yul\":24730:24762   */\n      tag_804\n        /* \"#utility.yul\":24753:24761   */\n      dup6\n        /* \"#utility.yul\":24730:24762   */\n      tag_539\n      jump\t// in\n    tag_804:\n        /* \"#utility.yul\":24718:24762   */\n      swap5\n      pop\n        /* \"#utility.yul\":24060:24772   */\n      jump(tag_798)\n    tag_800:\n        /* \"#utility.yul\":23930:24778   */\n      swap5\n      pop\n      swap5\n      swap3\n      pop\n      pop\n      pop\n      jump\t// out\n        /* \"#utility.yul\":24784:25857   */\n    tag_541:\n        /* \"#utility.yul\":24838:24843   */\n      0x00\n        /* \"#utility.yul\":25029:25037   */\n      dup3\n        /* \"#utility.yul\":25019:25059   */\n      tag_806\n      jumpi\n        /* \"#utility.yul\":25050:25051   */\n      0x01\n        /* \"#utility.yul\":25041:25051   */\n      swap1\n      pop\n        /* \"#utility.yul\":25052:25057   */\n      jump(tag_805)\n        /* \"#utility.yul\":25019:25059   */\n    tag_806:\n        /* \"#utility.yul\":25078:25082   */\n      dup2\n        /* \"#utility.yul\":25068:25104   */\n      tag_807\n      jumpi\n        /* \"#utility.yul\":25095:25096   */\n      0x00\n        /* \"#utility.yul\":25086:25096   */\n      swap1\n      pop\n        /* \"#utility.yul\":25097:25102   */\n      jump(tag_805)\n        /* \"#utility.yul\":25068:25104   */\n    tag_807:\n        /* \"#utility.yul\":25164:25168   */\n      dup2\n        /* \"#utility.yul\":25212:25213   */\n      0x01\n        /* \"#utility.yul\":25207:25234   */\n      dup2\n      eq\n      tag_809\n      jumpi\n        /* \"#utility.yul\":25248:25249   */\n      0x02\n        /* \"#utility.yul\":25243:25434   */\n      dup2\n      eq\n      tag_810\n      jumpi\n        /* \"#utility.yul\":25157:25434   */\n      jump(tag_808)\n        /* \"#utility.yul\":25207:25234   */\n    tag_809:\n        /* \"#utility.yul\":25225:25226   */\n      0x01\n        /* \"#utility.yul\":25216:25226   */\n      swap2\n      pop\n        /* \"#utility.yul\":25227:25232   */\n      pop\n      jump(tag_805)\n        /* \"#utility.yul\":25243:25434   */\n    tag_810:\n        /* \"#utility.yul\":25288:25291   */\n      0xff\n        /* \"#utility.yul\":25278:25286   */\n      dup5\n        /* \"#utility.yul\":25275:25292   */\n      gt\n        /* \"#utility.yul\":25272:25315   */\n      iszero\n      tag_811\n      jumpi\n        /* \"#utility.yul\":25295:25313   */\n      tag_812\n      tag_512\n      jump\t// in\n    tag_812:\n        /* \"#utility.yul\":25272:25315   */\n    tag_811:\n        /* \"#utility.yul\":25344:25352   */\n      dup4\n        /* \"#utility.yul\":25341:25342   */\n      0x02\n        /* \"#utility.yul\":25337:25353   */\n      exp\n        /* \"#utility.yul\":25328:25353   */\n      swap2\n      pop\n        /* \"#utility.yul\":25379:25382   */\n      dup5\n        /* \"#utility.yul\":25372:25377   */\n      dup3\n        /* \"#utility.yul\":25369:25383   */\n      gt\n        /* \"#utility.yul\":25366:25406   */\n      iszero\n      tag_813\n      jumpi\n        /* \"#utility.yul\":25386:25404   */\n      tag_814\n      tag_512\n      jump\t// in\n    tag_814:\n        /* \"#utility.yul\":25366:25406   */\n    tag_813:\n        /* \"#utility.yul\":25419:25424   */\n      pop\n      jump(tag_805)\n        /* \"#utility.yul\":25157:25434   */\n    tag_808:\n      pop\n        /* \"#utility.yul\":25543:25545   */\n      0x20\n        /* \"#utility.yul\":25533:25541   */\n      dup4\n        /* \"#utility.yul\":25530:25546   */\n      lt\n        /* \"#utility.yul\":25524:25527   */\n      0x0133\n        /* \"#utility.yul\":25518:25522   */\n      dup4\n        /* \"#utility.yul\":25515:25528   */\n      lt\n        /* \"#utility.yul\":25511:25547   */\n      and\n        /* \"#utility.yul\":25493:25495   */\n      0x4e\n        /* \"#utility.yul\":25483:25491   */\n      dup5\n        /* \"#utility.yul\":25480:25496   */\n      lt\n        /* \"#utility.yul\":25475:25477   */\n      0x0b\n        /* \"#utility.yul\":25469:25473   */\n      dup5\n        /* \"#utility.yul\":25466:25478   */\n      lt\n        /* \"#utility.yul\":25462:25497   */\n      and\n        /* \"#utility.yul\":25446:25557   */\n      or\n        /* \"#utility.yul\":25443:25689   */\n      iszero\n      tag_815\n      jumpi\n        /* \"#utility.yul\":25599:25607   */\n      dup3\n        /* \"#utility.yul\":25593:25597   */\n      dup3\n        /* \"#utility.yul\":25589:25608   */\n      exp\n        /* \"#utility.yul\":25580:25608   */\n      swap1\n      pop\n        /* \"#utility.yul\":25634:25637   */\n      dup4\n        /* \"#utility.yul\":25627:25632   */\n      dup2\n        /* \"#utility.yul\":25624:25638   */\n      gt\n        /* \"#utility.yul\":25621:25661   */\n      iszero\n      tag_816\n      jumpi\n        /* \"#utility.yul\":25641:25659   */\n      tag_817\n      tag_512\n      jump\t// in\n    tag_817:\n        /* \"#utility.yul\":25621:25661   */\n    tag_816:\n        /* \"#utility.yul\":25674:25679   */\n      jump(tag_805)\n        /* \"#utility.yul\":25443:25689   */\n    tag_815:\n        /* \"#utility.yul\":25714:25756   */\n      tag_818\n        /* \"#utility.yul\":25752:25755   */\n      dup5\n        /* \"#utility.yul\":25742:25750   */\n      dup5\n        /* \"#utility.yul\":25736:25740   */\n      dup5\n        /* \"#utility.yul\":25733:25734   */\n      0x01\n        /* \"#utility.yul\":25714:25756   */\n      tag_540\n      jump\t// in\n    tag_818:\n        /* \"#utility.yul\":25699:25756   */\n      swap3\n      pop\n      swap1\n      pop\n        /* \"#utility.yul\":25788:25792   */\n      dup2\n        /* \"#utility.yul\":25783:25786   */\n      dup5\n        /* \"#utility.yul\":25779:25793   */\n      div\n        /* \"#utility.yul\":25772:25777   */\n      dup2\n        /* \"#utility.yul\":25769:25794   */\n      gt\n        /* \"#utility.yul\":25766:25817   */\n      iszero\n      tag_819\n      jumpi\n        /* \"#utility.yul\":25797:25815   */\n      tag_820\n      tag_512\n      jump\t// in\n    tag_820:\n        /* \"#utility.yul\":25766:25817   */\n    tag_819:\n        /* \"#utility.yul\":25846:25850   */\n      dup2\n        /* \"#utility.yul\":25839:25844   */\n      dup2\n        /* \"#utility.yul\":25835:25851   */\n      mul\n        /* \"#utility.yul\":25826:25851   */\n      swap1\n      pop\n        /* \"#utility.yul\":24784:25857   */\n    tag_805:\n      swap4\n      swap3\n      pop\n      pop\n      pop\n      jump\t// out\n        /* \"#utility.yul\":25863:26148   */\n    tag_247:\n        /* \"#utility.yul\":25923:25928   */\n      0x00\n        /* \"#utility.yul\":25947:25970   */\n      tag_822\n        /* \"#utility.yul\":25965:25969   */\n      dup3\n        /* \"#utility.yul\":25947:25970   */\n      tag_485\n      jump\t// in\n    tag_822:\n        /* \"#utility.yul\":25939:25970   */\n      swap2\n      pop\n        /* \"#utility.yul\":25991:26018   */\n      tag_823\n        /* \"#utility.yul\":26009:26017   */\n      dup4\n        /* \"#utility.yul\":25991:26018   */\n      tag_485\n      jump\t// in\n    tag_823:\n        /* \"#utility.yul\":25979:26018   */\n      swap3\n      pop\n        /* \"#utility.yul\":26037:26141   */\n      tag_824\n        /* \"#utility.yul\":26074:26140   */\n      0xffffffffffffffffffffffffffffffffffffffffffffffffffffffffffffffff\n        /* \"#utility.yul\":26064:26072   */\n      dup5\n        /* \"#utility.yul\":26058:26062   */\n      dup5\n        /* \"#utility.yul\":26037:26141   */\n      tag_541\n      jump\t// in\n    tag_824:\n        /* \"#utility.yul\":26028:26141   */\n      swap1\n      pop\n        /* \"#utility.yul\":25863:26148   */\n      swap3\n      swap2\n      pop\n      pop\n      jump\t// out\n        /* \"#utility.yul\":26154:26564   */\n    tag_249:\n        /* \"#utility.yul\":26194:26201   */\n      0x00\n        /* \"#utility.yul\":26217:26237   */\n      tag_826\n        /* \"#utility.yul\":26235:26236   */\n      dup3\n        /* \"#utility.yul\":26217:26237   */\n      tag_485\n      jump\t// in\n    tag_826:\n        /* \"#utility.yul\":26212:26237   */\n      swap2\n      pop\n        /* \"#utility.yul\":26251:26271   */\n      tag_827\n        /* \"#utility.yul\":26269:26270   */\n      dup4\n        /* \"#utility.yul\":26251:26271   */\n      tag_485\n      jump\t// in\n    tag_827:\n        /* \"#utility.yul\":26246:26271   */\n      swap3\n      pop\n        /* \"#utility.yul\":26306:26307   */\n      dup3\n        /* \"#utility.yul\":26303:26304   */\n      dup3\n        /* \"#utility.yul\":26299:26308   */\n      mul\n        /* \"#utility.yul\":26328:26358   */\n      tag_828\n        /* \"#utility.yul\":26346:26357   */\n      dup2\n        /* \"#utility.yul\":26328:26358   */\n      tag_485\n      jump\t// in\n    tag_828:\n        /* \"#utility.yul\":26317:26358   */\n      swap2\n      pop\n        /* \"#utility.yul\":26507:26508   */\n      dup3\n        /* \"#utility.yul\":26498:26505   */\n      dup3\n        /* \"#utility.yul\":26494:26509   */\n      div\n        /* \"#utility.yul\":26491:26492   */\n      dup5\n        /* \"#utility.yul\":26488:26510   */\n      eq\n        /* \"#utility.yul\":26468:26469   */\n      dup4\n        /* \"#utility.yul\":26461:26470   */\n      iszero\n        /* \"#utility.yul\":26441:26524   */\n      or\n        /* \"#utility.yul\":26418:26557   */\n      tag_829\n      jumpi\n        /* \"#utility.yul\":26537:26555   */\n      tag_830\n      tag_512\n      jump\t// in\n    tag_830:\n        /* \"#utility.yul\":26418:26557   */\n    tag_829:\n        /* \"#utility.yul\":26202:26564   */\n      pop\n        /* \"#utility.yul\":26154:26564   */\n      swap3\n      swap2\n      pop\n      pop\n      jump\t// out\n        /* \"#utility.yul\":26570:26750   */\n    tag_542:\n        /* \"#utility.yul\":26618:26695   */\n      0x4e487b7100000000000000000000000000000000000000000000000000000000\n        /* \"#utility.yul\":26615:26616   */\n      0x00\n        /* \"#utility.yul\":26608:26696   */\n      mstore\n        /* \"#utility.yul\":26715:26719   */\n      0x12\n        /* \"#utility.yul\":26712:26713   */\n      0x04\n        /* \"#utility.yul\":26705:26720   */\n      mstore\n        /* \"#utility.yul\":26739:26743   */\n      0x24\n        /* \"#utility.yul\":26736:26737   */\n      0x00\n        /* \"#utility.yul\":26729:26744   */\n      revert\n        /* \"#utility.yul\":26756:26941   */\n    tag_251:\n        /* \"#utility.yul\":26796:26797   */\n      0x00\n        /* \"#utility.yul\":26813:26833   */\n      tag_833\n        /* \"#utility.yul\":26831:26832   */\n      dup3\n        /* \"#utility.yul\":26813:26833   */\n      tag_485\n      jump\t// in\n    tag_833:\n        /* \"#utility.yul\":26808:26833   */\n      swap2\n      pop\n        /* \"#utility.yul\":26847:26867   */\n      tag_834\n        /* \"#utility.yul\":26865:26866   */\n      dup4\n        /* \"#utility.yul\":26847:26867   */\n      tag_485\n      jump\t// in\n    tag_834:\n        /* \"#utility.yul\":26842:26867   */\n      swap3\n      pop\n        /* \"#utility.yul\":26886:26887   */\n      dup3\n        /* \"#utility.yul\":26876:26911   */\n      tag_835\n      jumpi\n        /* \"#utility.yul\":26891:26909   */\n      tag_836\n      tag_542\n      jump\t// in\n    tag_836:\n        /* \"#utility.yul\":26876:26911   */\n    tag_835:\n        /* \"#utility.yul\":26933:26934   */\n      dup3\n        /* \"#utility.yul\":26930:26931   */\n      dup3\n        /* \"#utility.yul\":26926:26935   */\n      div\n        /* \"#utility.yul\":26921:26935   */\n      swap1\n      pop\n        /* \"#utility.yul\":26756:26941   */\n      swap3\n      swap2\n      pop\n      pop\n      jump\t// out\n        /* \"#utility.yul\":26947:27064   */\n    tag_543:\n        /* \"#utility.yul\":27056:27057   */\n      0x00\n        /* \"#utility.yul\":27053:27054   */\n      dup1\n        /* \"#utility.yul\":27046:27058   */\n      revert\n        /* \"#utility.yul\":27070:27250   */\n    tag_544:\n        /* \"#utility.yul\":27118:27195   */\n      0x4e487b7100000000000000000000000000000000000000000000000000000000\n        /* \"#utility.yul\":27115:27116   */\n      0x00\n        /* \"#utility.yul\":27108:27196   */\n      mstore\n        /* \"#utility.yul\":27215:27219   */\n      0x41\n        /* \"#utility.yul\":27212:27213   */\n      0x04\n        /* \"#utility.yul\":27205:27220   */\n      mstore\n        /* \"#utility.yul\":27239:27243   */\n      0x24\n        /* \"#utility.yul\":27236:27237   */\n      0x00\n        /* \"#utility.yul\":27229:27244   */\n      revert\n        /* \"#utility.yul\":27256:27537   */\n    tag_545:\n        /* \"#utility.yul\":27339:27366   */\n      tag_840\n        /* \"#utility.yul\":27361:27365   */\n      dup3\n        /* \"#utility.yul\":27339:27366   */\n      tag_504\n      jump\t// in\n    tag_840:\n        /* \"#utility.yul\":27331:27337   */\n      dup2\n        /* \"#utility.yul\":27327:27367   */\n      add\n        /* \"#utility.yul\":27469:27475   */\n      dup2\n        /* \"#utility.yul\":27457:27467   */\n      dup2\n        /* \"#utility.yul\":27454:27476   */\n      lt\n        /* \"#utility.yul\":27433:27451   */\n      0xffffffffffffffff\n        /* \"#utility.yul\":27421:27431   */\n      dup3\n        /* \"#utility.yul\":27418:27452   */\n      gt\n        /* \"#utility.yul\":27415:27477   */\n      or\n        /* \"#utility.yul\":27412:27500   */\n      iszero\n      tag_841\n      jumpi\n        /* \"#utility.yul\":27480:27498   */\n      tag_842\n      tag_544\n      jump\t// in\n    tag_842:\n        /* \"#utility.yul\":27412:27500   */\n    tag_841:\n        /* \"#utility.yul\":27520:27530   */\n      dup1\n        /* \"#utility.yul\":27516:27518   */\n      0x40\n        /* \"#utility.yul\":27509:27531   */\n      mstore\n        /* \"#utility.yul\":27299:27537   */\n      pop\n        /* \"#utility.yul\":27256:27537   */\n      pop\n      pop\n      jump\t// out\n        /* \"#utility.yul\":27543:27672   */\n    tag_546:\n        /* \"#utility.yul\":27577:27583   */\n      0x00\n        /* \"#utility.yul\":27604:27624   */\n      tag_844\n      tag_482\n      jump\t// in\n    tag_844:\n        /* \"#utility.yul\":27594:27624   */\n      swap1\n      pop\n        /* \"#utility.yul\":27633:27666   */\n      tag_845\n        /* \"#utility.yul\":27661:27665   */\n      dup3\n        /* \"#utility.yul\":27653:27659   */\n      dup3\n        /* \"#utility.yul\":27633:27666   */\n      tag_545\n      jump\t// in\n    tag_845:\n        /* \"#utility.yul\":27543:27672   */\n      swap2\n      swap1\n      pop\n      jump\t// out\n        /* \"#utility.yul\":27678:27986   */\n    tag_547:\n        /* \"#utility.yul\":27740:27744   */\n      0x00\n        /* \"#utility.yul\":27830:27848   */\n      0xffffffffffffffff\n        /* \"#utility.yul\":27822:27828   */\n      dup3\n        /* \"#utility.yul\":27819:27849   */\n      gt\n        /* \"#utility.yul\":27816:27872   */\n      iszero\n      tag_847\n      jumpi\n        /* \"#utility.yul\":27852:27870   */\n      tag_848\n      tag_544\n      jump\t// in\n    tag_848:\n        /* \"#utility.yul\":27816:27872   */\n    tag_847:\n        /* \"#utility.yul\":27890:27919   */\n      tag_849\n        /* \"#utility.yul\":27912:27918   */\n      dup3\n        /* \"#utility.yul\":27890:27919   */\n      tag_504\n      jump\t// in\n    tag_849:\n        /* \"#utility.yul\":27882:27919   */\n      swap1\n      pop\n        /* \"#utility.yul\":27974:27978   */\n      0x20\n        /* \"#utility.yul\":27968:27972   */\n      dup2\n        /* \"#utility.yul\":27964:27979   */\n      add\n        /* \"#utility.yul\":27956:27979   */\n      swap1\n      pop\n        /* \"#utility.yul\":27678:27986   */\n      swap2\n      swap1\n      pop\n      jump\t// out\n        /* \"#utility.yul\":27992:28426   */\n    tag_548:\n        /* \"#utility.yul\":28081:28086   */\n      0x00\n        /* \"#utility.yul\":28106:28172   */\n      tag_851\n        /* \"#utility.yul\":28122:28171   */\n      tag_852\n        /* \"#utility.yul\":28164:28170   */\n      dup5\n        /* \"#utility.yul\":28122:28171   */\n      tag_547\n      jump\t// in\n    tag_852:\n        /* \"#utility.yul\":28106:28172   */\n      tag_546\n      jump\t// in\n    tag_851:\n        /* \"#utility.yul\":28097:28172   */\n      swap1\n      pop\n        /* \"#utility.yul\":28195:28201   */\n      dup3\n        /* \"#utility.yul\":28188:28193   */\n      dup2\n        /* \"#utility.yul\":28181:28202   */\n      mstore\n        /* \"#utility.yul\":28233:28237   */\n      0x20\n        /* \"#utility.yul\":28226:28231   */\n      dup2\n        /* \"#utility.yul\":28222:28238   */\n      add\n        /* \"#utility.yul\":28271:28274   */\n      dup5\n        /* \"#utility.yul\":28262:28268   */\n      dup5\n        /* \"#utility.yul\":28257:28260   */\n      dup5\n        /* \"#utility.yul\":28253:28269   */\n      add\n        /* \"#utility.yul\":28250:28275   */\n      gt\n        /* \"#utility.yul\":28247:28359   */\n      iszero\n      tag_853\n      jumpi\n        /* \"#utility.yul\":28278:28357   */\n      tag_854\n      tag_543\n      jump\t// in\n    tag_854:\n        /* \"#utility.yul\":28247:28359   */\n    tag_853:\n        /* \"#utility.yul\":28368:28420   */\n      tag_855\n        /* \"#utility.yul\":28413:28419   */\n      dup5\n        /* \"#utility.yul\":28408:28411   */\n      dup3\n        /* \"#utility.yul\":28403:28406   */\n      dup6\n        /* \"#utility.yul\":28368:28420   */\n      tag_503\n      jump\t// in\n    tag_855:\n        /* \"#utility.yul\":28087:28426   */\n      pop\n        /* \"#utility.yul\":27992:28426   */\n      swap4\n      swap3\n      pop\n      pop\n      pop\n      jump\t// out\n        /* \"#utility.yul\":28446:28801   */\n    tag_549:\n        /* \"#utility.yul\":28513:28518   */\n      0x00\n        /* \"#utility.yul\":28562:28565   */\n      dup3\n        /* \"#utility.yul\":28555:28559   */\n      0x1f\n        /* \"#utility.yul\":28547:28553   */\n      dup4\n        /* \"#utility.yul\":28543:28560   */\n      add\n        /* \"#utility.yul\":28539:28566   */\n      slt\n        /* \"#utility.yul\":28529:28651   */\n      tag_857\n      jumpi\n        /* \"#utility.yul\":28570:28649   */\n      tag_858\n      tag_496\n      jump\t// in\n    tag_858:\n        /* \"#utility.yul\":28529:28651   */\n    tag_857:\n        /* \"#utility.yul\":28680:28686   */\n      dup2\n        /* \"#utility.yul\":28674:28687   */\n      mload\n        /* \"#utility.yul\":28705:28795   */\n      tag_859\n        /* \"#utility.yul\":28791:28794   */\n      dup5\n        /* \"#utility.yul\":28783:28789   */\n      dup3\n        /* \"#utility.yul\":28776:28780   */\n      0x20\n        /* \"#utility.yul\":28768:28774   */\n      dup7\n        /* \"#utility.yul\":28764:28781   */\n      add\n        /* \"#utility.yul\":28705:28795   */\n      tag_548\n      jump\t// in\n    tag_859:\n        /* \"#utility.yul\":28696:28795   */\n      swap2\n      pop\n        /* \"#utility.yul\":28519:28801   */\n      pop\n        /* \"#utility.yul\":28446:28801   */\n      swap3\n      swap2\n      pop\n      pop\n      jump\t// out\n        /* \"#utility.yul\":28807:29331   */\n    tag_293:\n        /* \"#utility.yul\":28887:28893   */\n      0x00\n        /* \"#utility.yul\":28936:28938   */\n      0x20\n        /* \"#utility.yul\":28924:28933   */\n      dup3\n        /* \"#utility.yul\":28915:28922   */\n      dup5\n        /* \"#utility.yul\":28911:28934   */\n      sub\n        /* \"#utility.yul\":28907:28939   */\n      slt\n        /* \"#utility.yul\":28904:29023   */\n      iszero\n      tag_861\n      jumpi\n        /* \"#utility.yul\":28942:29021   */\n      tag_862\n      tag_483\n      jump\t// in\n    tag_862:\n        /* \"#utility.yul\":28904:29023   */\n    tag_861:\n        /* \"#utility.yul\":29083:29084   */\n      0x00\n        /* \"#utility.yul\":29072:29081   */\n      dup3\n        /* \"#utility.yul\":29068:29085   */\n      add\n        /* \"#utility.yul\":29062:29086   */\n      mload\n        /* \"#utility.yul\":29113:29131   */\n      0xffffffffffffffff\n        /* \"#utility.yul\":29105:29111   */\n      dup2\n        /* \"#utility.yul\":29102:29132   */\n      gt\n        /* \"#utility.yul\":29099:29216   */\n      iszero\n      tag_863\n      jumpi\n        /* \"#utility.yul\":29135:29214   */\n      tag_864\n      tag_484\n      jump\t// in\n    tag_864:\n        /* \"#utility.yul\":29099:29216   */\n    tag_863:\n        /* \"#utility.yul\":29240:29314   */\n      tag_865\n        /* \"#utility.yul\":29306:29313   */\n      dup5\n        /* \"#utility.yul\":29297:29303   */\n      dup3\n        /* \"#utility.yul\":29286:29295   */\n      dup6\n        /* \"#utility.yul\":29282:29304   */\n      add\n        /* \"#utility.yul\":29240:29314   */\n      tag_549\n      jump\t// in\n    tag_865:\n        /* \"#utility.yul\":29230:29314   */\n      swap2\n      pop\n        /* \"#utility.yul\":29033:29324   */\n      pop\n        /* \"#utility.yul\":28807:29331   */\n      swap3\n      swap2\n      pop\n      pop\n      jump\t// out\n        /* \"#utility.yul\":29337:29562   */\n    tag_550:\n        /* \"#utility.yul\":29477:29511   */\n      0x41676772656761746f72436f6e73756d6572206973206e6f7420696e69746961\n        /* \"#utility.yul\":29473:29474   */\n      0x00\n        /* \"#utility.yul\":29465:29471   */\n      dup3\n        /* \"#utility.yul\":29461:29475   */\n      add\n        /* \"#utility.yul\":29454:29512   */\n      mstore\n        /* \"#utility.yul\":29546:29554   */\n      0x6c697a6564210000000000000000000000000000000000000000000000000000\n        /* \"#utility.yul\":29541:29543   */\n      0x20\n        /* \"#utility.yul\":29533:29539   */\n      dup3\n        /* \"#utility.yul\":29529:29544   */\n      add\n        /* \"#utility.yul\":29522:29555   */\n      mstore\n        /* \"#utility.yul\":29337:29562   */\n      pop\n      jump\t// out\n        /* \"#utility.yul\":29568:29934   */\n    tag_551:\n        /* \"#utility.yul\":29710:29713   */\n      0x00\n        /* \"#utility.yul\":29731:29798   */\n      tag_868\n        /* \"#utility.yul\":29795:29797   */\n      0x26\n        /* \"#utility.yul\":29790:29793   */\n      dup4\n        /* \"#utility.yul\":29731:29798   */\n      tag_502\n      jump\t// in\n    tag_868:\n        /* \"#utility.yul\":29724:29798   */\n      swap2\n      pop\n        /* \"#utility.yul\":29807:29900   */\n      tag_869\n        /* \"#utility.yul\":29896:29899   */\n      dup3\n        /* \"#utility.yul\":29807:29900   */\n      tag_550\n      jump\t// in\n    tag_869:\n        /* \"#utility.yul\":29925:29927   */\n      0x40\n        /* \"#utility.yul\":29920:29923   */\n      dup3\n        /* \"#utility.yul\":29916:29928   */\n      add\n        /* \"#utility.yul\":29909:29928   */\n      swap1\n      pop\n        /* \"#utility.yul\":29568:29934   */\n      swap2\n      swap1\n      pop\n      jump\t// out\n        /* \"#utility.yul\":29940:30359   */\n    tag_317:\n        /* \"#utility.yul\":30106:30110   */\n      0x00\n        /* \"#utility.yul\":30144:30146   */\n      0x20\n        /* \"#utility.yul\":30133:30142   */\n      dup3\n        /* \"#utility.yul\":30129:30147   */\n      add\n        /* \"#utility.yul\":30121:30147   */\n      swap1\n      pop\n        /* \"#utility.yul\":30193:30202   */\n      dup2\n        /* \"#utility.yul\":30187:30191   */\n      dup2\n        /* \"#utility.yul\":30183:30203   */\n      sub\n        /* \"#utility.yul\":30179:30180   */\n      0x00\n        /* \"#utility.yul\":30168:30177   */\n      dup4\n        /* \"#utility.yul\":30164:30181   */\n      add\n        /* \"#utility.yul\":30157:30204   */\n      mstore\n        /* \"#utility.yul\":30221:30352   */\n      tag_871\n        /* \"#utility.yul\":30347:30351   */\n      dup2\n        /* \"#utility.yul\":30221:30352   */\n      tag_551\n      jump\t// in\n    tag_871:\n        /* \"#utility.yul\":30213:30352   */\n      swap1\n      pop\n        /* \"#utility.yul\":29940:30359   */\n      swap2\n      swap1\n      pop\n      jump\t// out\n        /* \"#utility.yul\":30365:30547   */\n    tag_552:\n        /* \"#utility.yul\":30505:30539   */\n      0x506f6f6c436f6e73756d6572206973206e6f7420696e697469616c697a656421\n        /* \"#utility.yul\":30501:30502   */\n      0x00\n        /* \"#utility.yul\":30493:30499   */\n      dup3\n        /* \"#utility.yul\":30489:30503   */\n      add\n        /* \"#utility.yul\":30482:30540   */\n      mstore\n        /* \"#utility.yul\":30365:30547   */\n      pop\n      jump\t// out\n        /* \"#utility.yul\":30553:30919   */\n    tag_553:\n        /* \"#utility.yul\":30695:30698   */\n      0x00\n        /* \"#utility.yul\":30716:30783   */\n      tag_874\n        /* \"#utility.yul\":30780:30782   */\n      0x20\n        /* \"#utility.yul\":30775:30778   */\n      dup4\n        /* \"#utility.yul\":30716:30783   */\n      tag_502\n      jump\t// in\n    tag_874:\n        /* \"#utility.yul\":30709:30783   */\n      swap2\n      pop\n        /* \"#utility.yul\":30792:30885   */\n      tag_875\n        /* \"#utility.yul\":30881:30884   */\n      dup3\n        /* \"#utility.yul\":30792:30885   */\n      tag_552\n      jump\t// in\n    tag_875:\n        /* \"#utility.yul\":30910:30912   */\n      0x20\n        /* \"#utility.yul\":30905:30908   */\n      dup3\n        /* \"#utility.yul\":30901:30913   */\n      add\n        /* \"#utility.yul\":30894:30913   */\n      swap1\n      pop\n        /* \"#utility.yul\":30553:30919   */\n      swap2\n      swap1\n      pop\n      jump\t// out\n        /* \"#utility.yul\":30925:31344   */\n    tag_322:\n        /* \"#utility.yul\":31091:31095   */\n      0x00\n        /* \"#utility.yul\":31129:31131   */\n      0x20\n        /* \"#utility.yul\":31118:31127   */\n      dup3\n        /* \"#utility.yul\":31114:31132   */\n      add\n        /* \"#utility.yul\":31106:31132   */\n      swap1\n      pop\n        /* \"#utility.yul\":31178:31187   */\n      dup2\n        /* \"#utility.yul\":31172:31176   */\n      dup2\n        /* \"#utility.yul\":31168:31188   */\n      sub\n        /* \"#utility.yul\":31164:31165   */\n      0x00\n        /* \"#utility.yul\":31153:31162   */\n      dup4\n        /* \"#utility.yul\":31149:31166   */\n      add\n        /* \"#utility.yul\":31142:31189   */\n      mstore\n        /* \"#utility.yul\":31206:31337   */\n      tag_877\n        /* \"#utility.yul\":31332:31336   */\n      dup2\n        /* \"#utility.yul\":31206:31337   */\n      tag_553\n      jump\t// in\n    tag_877:\n        /* \"#utility.yul\":31198:31337   */\n      swap1\n      pop\n        /* \"#utility.yul\":30925:31344   */\n      swap2\n      swap1\n      pop\n      jump\t// out\n        /* \"#utility.yul\":31350:31517   */\n    tag_554:\n        /* \"#utility.yul\":31490:31509   */\n      0x4e6f2063686172676520616d6f756e7421000000000000000000000000000000\n        /* \"#utility.yul\":31486:31487   */\n      0x00\n        /* \"#utility.yul\":31478:31484   */\n      dup3\n        /* \"#utility.yul\":31474:31488   */\n      add\n        /* \"#utility.yul\":31467:31510   */\n      mstore\n        /* \"#utility.yul\":31350:31517   */\n      pop\n      jump\t// out\n        /* \"#utility.yul\":31523:31889   */\n    tag_555:\n        /* \"#utility.yul\":31665:31668   */\n      0x00\n        /* \"#utility.yul\":31686:31753   */\n      tag_880\n        /* \"#utility.yul\":31750:31752   */\n      0x11\n        /* \"#utility.yul\":31745:31748   */\n      dup4\n        /* \"#utility.yul\":31686:31753   */\n      tag_502\n      jump\t// in\n    tag_880:\n        /* \"#utility.yul\":31679:31753   */\n      swap2\n      pop\n        /* \"#utility.yul\":31762:31855   */\n      tag_881\n        /* \"#utility.yul\":31851:31854   */\n      dup3\n        /* \"#utility.yul\":31762:31855   */\n      tag_554\n      jump\t// in\n    tag_881:\n        /* \"#utility.yul\":31880:31882   */\n      0x20\n        /* \"#utility.yul\":31875:31878   */\n      dup3\n        /* \"#utility.yul\":31871:31883   */\n      add\n        /* \"#utility.yul\":31864:31883   */\n      swap1\n      pop\n        /* \"#utility.yul\":31523:31889   */\n      swap2\n      swap1\n      pop\n      jump\t// out\n        /* \"#utility.yul\":31895:32314   */\n    tag_336:\n        /* \"#utility.yul\":32061:32065   */\n      0x00\n        /* \"#utility.yul\":32099:32101   */\n      0x20\n        /* \"#utility.yul\":32088:32097   */\n      dup3\n        /* \"#utility.yul\":32084:32102   */\n      add\n        /* \"#utility.yul\":32076:32102   */\n      swap1\n      pop\n        /* \"#utility.yul\":32148:32157   */\n      dup2\n        /* \"#utility.yul\":32142:32146   */\n      dup2\n        /* \"#utility.yul\":32138:32158   */\n      sub\n        /* \"#utility.yul\":32134:32135   */\n      0x00\n        /* \"#utility.yul\":32123:32132   */\n      dup4\n        /* \"#utility.yul\":32119:32136   */\n      add\n        /* \"#utility.yul\":32112:32159   */\n      mstore\n        /* \"#utility.yul\":32176:32307   */\n      tag_883\n        /* \"#utility.yul\":32302:32306   */\n      dup2\n        /* \"#utility.yul\":32176:32307   */\n      tag_555\n      jump\t// in\n    tag_883:\n        /* \"#utility.yul\":32168:32307   */\n      swap1\n      pop\n        /* \"#utility.yul\":31895:32314   */\n      swap2\n      swap1\n      pop\n      jump\t// out\n        /* \"#utility.yul\":32320:32508   */\n    tag_556:\n        /* \"#utility.yul\":32489:32501   */\n      0x436865636b207468652000000000000000000000000000000000000000000000\n        /* \"#utility.yul\":32484:32487   */\n      dup2\n        /* \"#utility.yul\":32477:32502   */\n      mstore\n        /* \"#utility.yul\":32320:32508   */\n      pop\n      jump\t// out\n        /* \"#utility.yul\":32514:32662   */\n    tag_557:\n        /* \"#utility.yul\":32616:32627   */\n      0x00\n        /* \"#utility.yul\":32653:32656   */\n      dup2\n        /* \"#utility.yul\":32638:32656   */\n      swap1\n      pop\n        /* \"#utility.yul\":32514:32662   */\n      swap3\n      swap2\n      pop\n      pop\n      jump\t// out\n        /* \"#utility.yul\":32668:33058   */\n    tag_558:\n        /* \"#utility.yul\":32774:32777   */\n      0x00\n        /* \"#utility.yul\":32802:32841   */\n      tag_887\n        /* \"#utility.yul\":32835:32840   */\n      dup3\n        /* \"#utility.yul\":32802:32841   */\n      tag_501\n      jump\t// in\n    tag_887:\n        /* \"#utility.yul\":32857:32946   */\n      tag_888\n        /* \"#utility.yul\":32939:32945   */\n      dup2\n        /* \"#utility.yul\":32934:32937   */\n      dup6\n        /* \"#utility.yul\":32857:32946   */\n      tag_557\n      jump\t// in\n    tag_888:\n        /* \"#utility.yul\":32850:32946   */\n      swap4\n      pop\n        /* \"#utility.yul\":32955:33020   */\n      tag_889\n        /* \"#utility.yul\":33013:33019   */\n      dup2\n        /* \"#utility.yul\":33008:33011   */\n      dup6\n        /* \"#utility.yul\":33001:33005   */\n      0x20\n        /* \"#utility.yul\":32994:32999   */\n      dup7\n        /* \"#utility.yul\":32990:33006   */\n      add\n        /* \"#utility.yul\":32955:33020   */\n      tag_503\n      jump\t// in\n    tag_889:\n        /* \"#utility.yul\":33045:33051   */\n      dup1\n        /* \"#utility.yul\":33040:33043   */\n      dup5\n        /* \"#utility.yul\":33036:33052   */\n      add\n        /* \"#utility.yul\":33029:33052   */\n      swap2\n      pop\n        /* \"#utility.yul\":32778:33058   */\n      pop\n        /* \"#utility.yul\":32668:33058   */\n      swap3\n      swap2\n      pop\n      pop\n      jump\t// out\n        /* \"#utility.yul\":33064:33248   */\n    tag_559:\n        /* \"#utility.yul\":33232:33241   */\n      0x20746f6b656e2000000000000000000000000000000000000000000000000000\n        /* \"#utility.yul\":33227:33230   */\n      dup2\n        /* \"#utility.yul\":33220:33242   */\n      mstore\n        /* \"#utility.yul\":33064:33248   */\n      pop\n      jump\t// out\n        /* \"#utility.yul\":33254:33442   */\n    tag_560:\n        /* \"#utility.yul\":33423:33435   */\n      0x616c6c6f77616e63652100000000000000000000000000000000000000000000\n        /* \"#utility.yul\":33418:33421   */\n      dup2\n        /* \"#utility.yul\":33411:33436   */\n      mstore\n        /* \"#utility.yul\":33254:33442   */\n      pop\n      jump\t// out\n        /* \"#utility.yul\":33448:34521   */\n    tag_342:\n        /* \"#utility.yul\":33852:33855   */\n      0x00\n        /* \"#utility.yul\":33867:34005   */\n      tag_893\n        /* \"#utility.yul\":34001:34004   */\n      dup3\n        /* \"#utility.yul\":33867:34005   */\n      tag_556\n      jump\t// in\n    tag_893:\n        /* \"#utility.yul\":34030:34032   */\n      0x0a\n        /* \"#utility.yul\":34025:34028   */\n      dup3\n        /* \"#utility.yul\":34021:34033   */\n      add\n        /* \"#utility.yul\":34014:34033   */\n      swap2\n      pop\n        /* \"#utility.yul\":34050:34145   */\n      tag_894\n        /* \"#utility.yul\":34141:34144   */\n      dup3\n        /* \"#utility.yul\":34132:34138   */\n      dup5\n        /* \"#utility.yul\":34050:34145   */\n      tag_558\n      jump\t// in\n    tag_894:\n        /* \"#utility.yul\":34043:34145   */\n      swap2\n      pop\n        /* \"#utility.yul\":34155:34292   */\n      tag_895\n        /* \"#utility.yul\":34288:34291   */\n      dup3\n        /* \"#utility.yul\":34155:34292   */\n      tag_559\n      jump\t// in\n    tag_895:\n        /* \"#utility.yul\":34317:34318   */\n      0x07\n        /* \"#utility.yul\":34312:34315   */\n      dup3\n        /* \"#utility.yul\":34308:34319   */\n      add\n        /* \"#utility.yul\":34301:34319   */\n      swap2\n      pop\n        /* \"#utility.yul\":34329:34467   */\n      tag_896\n        /* \"#utility.yul\":34463:34466   */\n      dup3\n        /* \"#utility.yul\":34329:34467   */\n      tag_560\n      jump\t// in\n    tag_896:\n        /* \"#utility.yul\":34492:34494   */\n      0x0a\n        /* \"#utility.yul\":34487:34490   */\n      dup3\n        /* \"#utility.yul\":34483:34495   */\n      add\n        /* \"#utility.yul\":34476:34495   */\n      swap2\n      pop\n        /* \"#utility.yul\":34512:34515   */\n      dup2\n        /* \"#utility.yul\":34505:34515   */\n      swap1\n      pop\n        /* \"#utility.yul\":33448:34521   */\n      swap3\n      swap2\n      pop\n      pop\n      jump\t// out\n        /* \"#utility.yul\":34527:34840   */\n    tag_345:\n        /* \"#utility.yul\":34640:34644   */\n      0x00\n        /* \"#utility.yul\":34678:34680   */\n      0x20\n        /* \"#utility.yul\":34667:34676   */\n      dup3\n        /* \"#utility.yul\":34663:34681   */\n      add\n        /* \"#utility.yul\":34655:34681   */\n      swap1\n      pop\n        /* \"#utility.yul\":34727:34736   */\n      dup2\n        /* \"#utility.yul\":34721:34725   */\n      dup2\n        /* \"#utility.yul\":34717:34737   */\n      sub\n        /* \"#utility.yul\":34713:34714   */\n      0x00\n        /* \"#utility.yul\":34702:34711   */\n      dup4\n        /* \"#utility.yul\":34698:34715   */\n      add\n        /* \"#utility.yul\":34691:34738   */\n      mstore\n        /* \"#utility.yul\":34755:34833   */\n      tag_898\n        /* \"#utility.yul\":34828:34832   */\n      dup2\n        /* \"#utility.yul\":34819:34825   */\n      dup5\n        /* \"#utility.yul\":34755:34833   */\n      tag_505\n      jump\t// in\n    tag_898:\n        /* \"#utility.yul\":34747:34833   */\n      swap1\n      pop\n        /* \"#utility.yul\":34527:34840   */\n      swap3\n      swap2\n      pop\n      pop\n      jump\t// out\n        /* \"#utility.yul\":34846:35007   */\n    tag_561:\n        /* \"#utility.yul\":34986:34999   */\n      0x72617465206572726f7221000000000000000000000000000000000000000000\n        /* \"#utility.yul\":34982:34983   */\n      0x00\n        /* \"#utility.yul\":34974:34980   */\n      dup3\n        /* \"#utility.yul\":34970:34984   */\n      add\n        /* \"#utility.yul\":34963:35000   */\n      mstore\n        /* \"#utility.yul\":34846:35007   */\n      pop\n      jump\t// out\n        /* \"#utility.yul\":35013:35379   */\n    tag_562:\n        /* \"#utility.yul\":35155:35158   */\n      0x00\n        /* \"#utility.yul\":35176:35243   */\n      tag_901\n        /* \"#utility.yul\":35240:35242   */\n      0x0b\n        /* \"#utility.yul\":35235:35238   */\n      dup4\n        /* \"#utility.yul\":35176:35243   */\n      tag_502\n      jump\t// in\n    tag_901:\n        /* \"#utility.yul\":35169:35243   */\n      swap2\n      pop\n        /* \"#utility.yul\":35252:35345   */\n      tag_902\n        /* \"#utility.yul\":35341:35344   */\n      dup3\n        /* \"#utility.yul\":35252:35345   */\n      tag_561\n      jump\t// in\n    tag_902:\n        /* \"#utility.yul\":35370:35372   */\n      0x20\n        /* \"#utility.yul\":35365:35368   */\n      dup3\n        /* \"#utility.yul\":35361:35373   */\n      add\n        /* \"#utility.yul\":35354:35373   */\n      swap1\n      pop\n        /* \"#utility.yul\":35013:35379   */\n      swap2\n      swap1\n      pop\n      jump\t// out\n        /* \"#utility.yul\":35385:35804   */\n    tag_352:\n        /* \"#utility.yul\":35551:35555   */\n      0x00\n        /* \"#utility.yul\":35589:35591   */\n      0x20\n        /* \"#utility.yul\":35578:35587   */\n      dup3\n        /* \"#utility.yul\":35574:35592   */\n      add\n        /* \"#utility.yul\":35566:35592   */\n      swap1\n      pop\n        /* \"#utility.yul\":35638:35647   */\n      dup2\n        /* \"#utility.yul\":35632:35636   */\n      dup2\n        /* \"#utility.yul\":35628:35648   */\n      sub\n        /* \"#utility.yul\":35624:35625   */\n      0x00\n        /* \"#utility.yul\":35613:35622   */\n      dup4\n        /* \"#utility.yul\":35609:35626   */\n      add\n        /* \"#utility.yul\":35602:35649   */\n      mstore\n        /* \"#utility.yul\":35666:35797   */\n      tag_904\n        /* \"#utility.yul\":35792:35796   */\n      dup2\n        /* \"#utility.yul\":35666:35797   */\n      tag_562\n      jump\t// in\n    tag_904:\n        /* \"#utility.yul\":35658:35797   */\n      swap1\n      pop\n        /* \"#utility.yul\":35385:35804   */\n      swap2\n      swap1\n      pop\n      jump\t// out\n        /* \"#utility.yul\":35810:36001   */\n    tag_356:\n        /* \"#utility.yul\":35850:35853   */\n      0x00\n        /* \"#utility.yul\":35869:35889   */\n      tag_906\n        /* \"#utility.yul\":35887:35888   */\n      dup3\n        /* \"#utility.yul\":35869:35889   */\n      tag_485\n      jump\t// in\n    tag_906:\n        /* \"#utility.yul\":35864:35889   */\n      swap2\n      pop\n        /* \"#utility.yul\":35903:35923   */\n      tag_907\n        /* \"#utility.yul\":35921:35922   */\n      dup4\n        /* \"#utility.yul\":35903:35923   */\n      tag_485\n      jump\t// in\n    tag_907:\n        /* \"#utility.yul\":35898:35923   */\n      swap3\n      pop\n        /* \"#utility.yul\":35946:35947   */\n      dup3\n        /* \"#utility.yul\":35943:35944   */\n      dup3\n        /* \"#utility.yul\":35939:35948   */\n      add\n        /* \"#utility.yul\":35932:35948   */\n      swap1\n      pop\n        /* \"#utility.yul\":35967:35970   */\n      dup1\n        /* \"#utility.yul\":35964:35965   */\n      dup3\n        /* \"#utility.yul\":35961:35971   */\n      gt\n        /* \"#utility.yul\":35958:35994   */\n      iszero\n      tag_908\n      jumpi\n        /* \"#utility.yul\":35974:35992   */\n      tag_909\n      tag_512\n      jump\t// in\n    tag_909:\n        /* \"#utility.yul\":35958:35994   */\n    tag_908:\n        /* \"#utility.yul\":35810:36001   */\n      swap3\n      swap2\n      pop\n      pop\n      jump\t// out\n        /* \"#utility.yul\":36007:36651   */\n    tag_360:\n        /* \"#utility.yul\":36204:36208   */\n      0x00\n        /* \"#utility.yul\":36242:36245   */\n      0x80\n        /* \"#utility.yul\":36231:36240   */\n      dup3\n        /* \"#utility.yul\":36227:36246   */\n      add\n        /* \"#utility.yul\":36219:36246   */\n      swap1\n      pop\n        /* \"#utility.yul\":36256:36327   */\n      tag_911\n        /* \"#utility.yul\":36324:36325   */\n      0x00\n        /* \"#utility.yul\":36313:36322   */\n      dup4\n        /* \"#utility.yul\":36309:36326   */\n      add\n        /* \"#utility.yul\":36300:36306   */\n      dup8\n        /* \"#utility.yul\":36256:36327   */\n      tag_493\n      jump\t// in\n    tag_911:\n        /* \"#utility.yul\":36337:36409   */\n      tag_912\n        /* \"#utility.yul\":36405:36407   */\n      0x20\n        /* \"#utility.yul\":36394:36403   */\n      dup4\n        /* \"#utility.yul\":36390:36408   */\n      add\n        /* \"#utility.yul\":36381:36387   */\n      dup7\n        /* \"#utility.yul\":36337:36409   */\n      tag_493\n      jump\t// in\n    tag_912:\n        /* \"#utility.yul\":36419:36491   */\n      tag_913\n        /* \"#utility.yul\":36487:36489   */\n      0x40\n        /* \"#utility.yul\":36476:36485   */\n      dup4\n        /* \"#utility.yul\":36472:36490   */\n      add\n        /* \"#utility.yul\":36463:36469   */\n      dup6\n        /* \"#utility.yul\":36419:36491   */\n      tag_493\n      jump\t// in\n    tag_913:\n        /* \"#utility.yul\":36538:36547   */\n      dup2\n        /* \"#utility.yul\":36532:36536   */\n      dup2\n        /* \"#utility.yul\":36528:36548   */\n      sub\n        /* \"#utility.yul\":36523:36525   */\n      0x60\n        /* \"#utility.yul\":36512:36521   */\n      dup4\n        /* \"#utility.yul\":36508:36526   */\n      add\n        /* \"#utility.yul\":36501:36549   */\n      mstore\n        /* \"#utility.yul\":36566:36644   */\n      tag_914\n        /* \"#utility.yul\":36639:36643   */\n      dup2\n        /* \"#utility.yul\":36630:36636   */\n      dup5\n        /* \"#utility.yul\":36566:36644   */\n      tag_505\n      jump\t// in\n    tag_914:\n        /* \"#utility.yul\":36558:36644   */\n      swap1\n      pop\n        /* \"#utility.yul\":36007:36651   */\n      swap6\n      swap5\n      pop\n      pop\n      pop\n      pop\n      pop\n      jump\t// out\n        /* \"#utility.yul\":36657:36882   */\n    tag_563:\n        /* \"#utility.yul\":36797:36831   */\n      0x4f776e61626c653a206e6577206f776e657220697320746865207a65726f2061\n        /* \"#utility.yul\":36793:36794   */\n      0x00\n        /* \"#utility.yul\":36785:36791   */\n      dup3\n        /* \"#utility.yul\":36781:36795   */\n      add\n        /* \"#utility.yul\":36774:36832   */\n      mstore\n        /* \"#utility.yul\":36866:36874   */\n      0x6464726573730000000000000000000000000000000000000000000000000000\n        /* \"#utility.yul\":36861:36863   */\n      0x20\n        /* \"#utility.yul\":36853:36859   */\n      dup3\n        /* \"#utility.yul\":36849:36864   */\n      add\n        /* \"#utility.yul\":36842:36875   */\n      mstore\n        /* \"#utility.yul\":36657:36882   */\n      pop\n      jump\t// out\n        /* \"#utility.yul\":36888:37254   */\n    tag_564:\n        /* \"#utility.yul\":37030:37033   */\n      0x00\n        /* \"#utility.yul\":37051:37118   */\n      tag_917\n        /* \"#utility.yul\":37115:37117   */\n      0x26\n        /* \"#utility.yul\":37110:37113   */\n      dup4\n        /* \"#utility.yul\":37051:37118   */\n      tag_502\n      jump\t// in\n    tag_917:\n        /* \"#utility.yul\":37044:37118   */\n      swap2\n      pop\n        /* \"#utility.yul\":37127:37220   */\n      tag_918\n        /* \"#utility.yul\":37216:37219   */\n      dup3\n        /* \"#utility.yul\":37127:37220   */\n      tag_563\n      jump\t// in\n    tag_918:\n        /* \"#utility.yul\":37245:37247   */\n      0x40\n        /* \"#utility.yul\":37240:37243   */\n      dup3\n        /* \"#utility.yul\":37236:37248   */\n      add\n        /* \"#utility.yul\":37229:37248   */\n      swap1\n      pop\n        /* \"#utility.yul\":36888:37254   */\n      swap2\n      swap1\n      pop\n      jump\t// out\n        /* \"#utility.yul\":37260:37679   */\n    tag_370:\n        /* \"#utility.yul\":37426:37430   */\n      0x00\n        /* \"#utility.yul\":37464:37466   */\n      0x20\n        /* \"#utility.yul\":37453:37462   */\n      dup3\n        /* \"#utility.yul\":37449:37467   */\n      add\n        /* \"#utility.yul\":37441:37467   */\n      swap1\n      pop\n        /* \"#utility.yul\":37513:37522   */\n      dup2\n        /* \"#utility.yul\":37507:37511   */\n      dup2\n        /* \"#utility.yul\":37503:37523   */\n      sub\n        /* \"#utility.yul\":37499:37500   */\n      0x00\n        /* \"#utility.yul\":37488:37497   */\n      dup4\n        /* \"#utility.yul\":37484:37501   */\n      add\n        /* \"#utility.yul\":37477:37524   */\n      mstore\n        /* \"#utility.yul\":37541:37672   */\n      tag_920\n        /* \"#utility.yul\":37667:37671   */\n      dup2\n        /* \"#utility.yul\":37541:37672   */\n      tag_564\n      jump\t// in\n    tag_920:\n        /* \"#utility.yul\":37533:37672   */\n      swap1\n      pop\n        /* \"#utility.yul\":37260:37679   */\n      swap2\n      swap1\n      pop\n      jump\t// out\n        /* \"#utility.yul\":37685:37867   */\n    tag_565:\n        /* \"#utility.yul\":37825:37859   */\n      0x4f776e61626c653a2063616c6c6572206973206e6f7420746865206f776e6572\n        /* \"#utility.yul\":37821:37822   */\n      0x00\n        /* \"#utility.yul\":37813:37819   */\n      dup3\n        /* \"#utility.yul\":37809:37823   */\n      add\n        /* \"#utility.yul\":37802:37860   */\n      mstore\n        /* \"#utility.yul\":37685:37867   */\n      pop\n      jump\t// out\n        /* \"#utility.yul\":37873:38239   */\n    tag_566:\n        /* \"#utility.yul\":38015:38018   */\n      0x00\n        /* \"#utility.yul\":38036:38103   */\n      tag_923\n        /* \"#utility.yul\":38100:38102   */\n      0x20\n        /* \"#utility.yul\":38095:38098   */\n      dup4\n        /* \"#utility.yul\":38036:38103   */\n      tag_502\n      jump\t// in\n    tag_923:\n        /* \"#utility.yul\":38029:38103   */\n      swap2\n      pop\n        /* \"#utility.yul\":38112:38205   */\n      tag_924\n        /* \"#utility.yul\":38201:38204   */\n      dup3\n        /* \"#utility.yul\":38112:38205   */\n      tag_565\n      jump\t// in\n    tag_924:\n        /* \"#utility.yul\":38230:38232   */\n      0x20\n        /* \"#utility.yul\":38225:38228   */\n      dup3\n        /* \"#utility.yul\":38221:38233   */\n      add\n        /* \"#utility.yul\":38214:38233   */\n      swap1\n      pop\n        /* \"#utility.yul\":37873:38239   */\n      swap2\n      swap1\n      pop\n      jump\t// out\n        /* \"#utility.yul\":38245:38664   */\n    tag_378:\n        /* \"#utility.yul\":38411:38415   */\n      0x00\n        /* \"#utility.yul\":38449:38451   */\n      0x20\n        /* \"#utility.yul\":38438:38447   */\n      dup3\n        /* \"#utility.yul\":38434:38452   */\n      add\n        /* \"#utility.yul\":38426:38452   */\n      swap1\n      pop\n        /* \"#utility.yul\":38498:38507   */\n      dup2\n        /* \"#utility.yul\":38492:38496   */\n      dup2\n        /* \"#utility.yul\":38488:38508   */\n      sub\n        /* \"#utility.yul\":38484:38485   */\n      0x00\n        /* \"#utility.yul\":38473:38482   */\n      dup4\n        /* \"#utility.yul\":38469:38486   */\n      add\n        /* \"#utility.yul\":38462:38509   */\n      mstore\n        /* \"#utility.yul\":38526:38657   */\n      tag_926\n        /* \"#utility.yul\":38652:38656   */\n      dup2\n        /* \"#utility.yul\":38526:38657   */\n      tag_566\n      jump\t// in\n    tag_926:\n        /* \"#utility.yul\":38518:38657   */\n      swap1\n      pop\n        /* \"#utility.yul\":38245:38664   */\n      swap2\n      swap1\n      pop\n      jump\t// out\n        /* \"#utility.yul\":38670:38840   */\n    tag_567:\n        /* \"#utility.yul\":38810:38832   */\n      0x5061757361626c653a206e6f7420706175736564000000000000000000000000\n        /* \"#utility.yul\":38806:38807   */\n      0x00\n        /* \"#utility.yul\":38798:38804   */\n      dup3\n        /* \"#utility.yul\":38794:38808   */\n      add\n        /* \"#utility.yul\":38787:38833   */\n      mstore\n        /* \"#utility.yul\":38670:38840   */\n      pop\n      jump\t// out\n        /* \"#utility.yul\":38846:39212   */\n    tag_568:\n        /* \"#utility.yul\":38988:38991   */\n      0x00\n        /* \"#utility.yul\":39009:39076   */\n      tag_929\n        /* \"#utility.yul\":39073:39075   */\n      0x14\n        /* \"#utility.yul\":39068:39071   */\n      dup4\n        /* \"#utility.yul\":39009:39076   */\n      tag_502\n      jump\t// in\n    tag_929:\n        /* \"#utility.yul\":39002:39076   */\n      swap2\n      pop\n        /* \"#utility.yul\":39085:39178   */\n      tag_930\n        /* \"#utility.yul\":39174:39177   */\n      dup3\n        /* \"#utility.yul\":39085:39178   */\n      tag_567\n      jump\t// in\n    tag_930:\n        /* \"#utility.yul\":39203:39205   */\n      0x20\n        /* \"#utility.yul\":39198:39201   */\n      dup3\n        /* \"#utility.yul\":39194:39206   */\n      add\n        /* \"#utility.yul\":39187:39206   */\n      swap1\n      pop\n        /* \"#utility.yul\":38846:39212   */\n      swap2\n      swap1\n      pop\n      jump\t// out\n        /* \"#utility.yul\":39218:39637   */\n    tag_383:\n        /* \"#utility.yul\":39384:39388   */\n      0x00\n        /* \"#utility.yul\":39422:39424   */\n      0x20\n        /* \"#utility.yul\":39411:39420   */\n      dup3\n        /* \"#utility.yul\":39407:39425   */\n      add\n        /* \"#utility.yul\":39399:39425   */\n      swap1\n      pop\n        /* \"#utility.yul\":39471:39480   */\n      dup2\n        /* \"#utility.yul\":39465:39469   */\n      dup2\n        /* \"#utility.yul\":39461:39481   */\n      sub\n        /* \"#utility.yul\":39457:39458   */\n      0x00\n        /* \"#utility.yul\":39446:39455   */\n      dup4\n        /* \"#utility.yul\":39442:39459   */\n      add\n        /* \"#utility.yul\":39435:39482   */\n      mstore\n        /* \"#utility.yul\":39499:39630   */\n      tag_932\n        /* \"#utility.yul\":39625:39629   */\n      dup2\n        /* \"#utility.yul\":39499:39630   */\n      tag_568\n      jump\t// in\n    tag_932:\n        /* \"#utility.yul\":39491:39630   */\n      swap1\n      pop\n        /* \"#utility.yul\":39218:39637   */\n      swap2\n      swap1\n      pop\n      jump\t// out\n        /* \"#utility.yul\":39643:39809   */\n    tag_569:\n        /* \"#utility.yul\":39783:39801   */\n      0x5061757361626c653a2070617573656400000000000000000000000000000000\n        /* \"#utility.yul\":39779:39780   */\n      0x00\n        /* \"#utility.yul\":39771:39777   */\n      dup3\n        /* \"#utility.yul\":39767:39781   */\n      add\n        /* \"#utility.yul\":39760:39802   */\n      mstore\n        /* \"#utility.yul\":39643:39809   */\n      pop\n      jump\t// out\n        /* \"#utility.yul\":39815:40181   */\n    tag_570:\n        /* \"#utility.yul\":39957:39960   */\n      0x00\n        /* \"#utility.yul\":39978:40045   */\n      tag_935\n        /* \"#utility.yul\":40042:40044   */\n      0x10\n        /* \"#utility.yul\":40037:40040   */\n      dup4\n        /* \"#utility.yul\":39978:40045   */\n      tag_502\n      jump\t// in\n    tag_935:\n        /* \"#utility.yul\":39971:40045   */\n      swap2\n      pop\n        /* \"#utility.yul\":40054:40147   */\n      tag_936\n        /* \"#utility.yul\":40143:40146   */\n      dup3\n        /* \"#utility.yul\":40054:40147   */\n      tag_569\n      jump\t// in\n    tag_936:\n        /* \"#utility.yul\":40172:40174   */\n      0x20\n        /* \"#utility.yul\":40167:40170   */\n      dup3\n        /* \"#utility.yul\":40163:40175   */\n      add\n        /* \"#utility.yul\":40156:40175   */\n      swap1\n      pop\n        /* \"#utility.yul\":39815:40181   */\n      swap2\n      swap1\n      pop\n      jump\t// out\n        /* \"#utility.yul\":40187:40606   */\n    tag_393:\n        /* \"#utility.yul\":40353:40357   */\n      0x00\n        /* \"#utility.yul\":40391:40393   */\n      0x20\n        /* \"#utility.yul\":40380:40389   */\n      dup3\n        /* \"#utility.yul\":40376:40394   */\n      add\n        /* \"#utility.yul\":40368:40394   */\n      swap1\n      pop\n        /* \"#utility.yul\":40440:40449   */\n      dup2\n        /* \"#utility.yul\":40434:40438   */\n      dup2\n        /* \"#utility.yul\":40430:40450   */\n      sub\n        /* \"#utility.yul\":40426:40427   */\n      0x00\n        /* \"#utility.yul\":40415:40424   */\n      dup4\n        /* \"#utility.yul\":40411:40428   */\n      add\n        /* \"#utility.yul\":40404:40451   */\n      mstore\n        /* \"#utility.yul\":40468:40599   */\n      tag_938\n        /* \"#utility.yul\":40594:40598   */\n      dup2\n        /* \"#utility.yul\":40468:40599   */\n      tag_570\n      jump\t// in\n    tag_938:\n        /* \"#utility.yul\":40460:40599   */\n      swap1\n      pop\n        /* \"#utility.yul\":40187:40606   */\n      swap2\n      swap1\n      pop\n      jump\t// out\n        /* \"#utility.yul\":40612:41605   */\n    tag_416:\n        /* \"#utility.yul\":40719:40725   */\n      0x00\n        /* \"#utility.yul\":40727:40733   */\n      dup1\n        /* \"#utility.yul\":40735:40741   */\n      0x00\n        /* \"#utility.yul\":40743:40749   */\n      dup1\n        /* \"#utility.yul\":40792:40795   */\n      0x80\n        /* \"#utility.yul\":40780:40789   */\n      dup6\n        /* \"#utility.yul\":40771:40778   */\n      dup8\n        /* \"#utility.yul\":40767:40790   */\n      sub\n        /* \"#utility.yul\":40763:40796   */\n      slt\n        /* \"#utility.yul\":40760:40880   */\n      iszero\n      tag_940\n      jumpi\n        /* \"#utility.yul\":40799:40878   */\n      tag_941\n      tag_483\n      jump\t// in\n    tag_941:\n        /* \"#utility.yul\":40760:40880   */\n    tag_940:\n        /* \"#utility.yul\":40919:40920   */\n      0x00\n        /* \"#utility.yul\":40944:41008   */\n      tag_942\n        /* \"#utility.yul\":41000:41007   */\n      dup8\n        /* \"#utility.yul\":40991:40997   */\n      dup3\n        /* \"#utility.yul\":40980:40989   */\n      dup9\n        /* \"#utility.yul\":40976:40998   */\n      add\n        /* \"#utility.yul\":40944:41008   */\n      tag_536\n      jump\t// in\n    tag_942:\n        /* \"#utility.yul\":40934:41008   */\n      swap5\n      pop\n        /* \"#utility.yul\":40890:41018   */\n      pop\n        /* \"#utility.yul\":41057:41059   */\n      0x20\n        /* \"#utility.yul\":41083:41147   */\n      tag_943\n        /* \"#utility.yul\":41139:41146   */\n      dup8\n        /* \"#utility.yul\":41130:41136   */\n      dup3\n        /* \"#utility.yul\":41119:41128   */\n      dup9\n        /* \"#utility.yul\":41115:41137   */\n      add\n        /* \"#utility.yul\":41083:41147   */\n      tag_536\n      jump\t// in\n    tag_943:\n        /* \"#utility.yul\":41073:41147   */\n      swap4\n      pop\n        /* \"#utility.yul\":41028:41157   */\n      pop\n        /* \"#utility.yul\":41217:41219   */\n      0x40\n        /* \"#utility.yul\":41206:41215   */\n      dup6\n        /* \"#utility.yul\":41202:41220   */\n      add\n        /* \"#utility.yul\":41196:41221   */\n      mload\n        /* \"#utility.yul\":41248:41266   */\n      0xffffffffffffffff\n        /* \"#utility.yul\":41240:41246   */\n      dup2\n        /* \"#utility.yul\":41237:41267   */\n      gt\n        /* \"#utility.yul\":41234:41351   */\n      iszero\n      tag_944\n      jumpi\n        /* \"#utility.yul\":41270:41349   */\n      tag_945\n      tag_484\n      jump\t// in\n    tag_945:\n        /* \"#utility.yul\":41234:41351   */\n    tag_944:\n        /* \"#utility.yul\":41375:41449   */\n      tag_946\n        /* \"#utility.yul\":41441:41448   */\n      dup8\n        /* \"#utility.yul\":41432:41438   */\n      dup3\n        /* \"#utility.yul\":41421:41430   */\n      dup9\n        /* \"#utility.yul\":41417:41439   */\n      add\n        /* \"#utility.yul\":41375:41449   */\n      tag_549\n      jump\t// in\n    tag_946:\n        /* \"#utility.yul\":41365:41449   */\n      swap3\n      pop\n        /* \"#utility.yul\":41167:41459   */\n      pop\n        /* \"#utility.yul\":41498:41500   */\n      0x60\n        /* \"#utility.yul\":41524:41588   */\n      tag_947\n        /* \"#utility.yul\":41580:41587   */\n      dup8\n        /* \"#utility.yul\":41571:41577   */\n      dup3\n        /* \"#utility.yul\":41560:41569   */\n      dup9\n        /* \"#utility.yul\":41556:41578   */\n      add\n        /* \"#utility.yul\":41524:41588   */\n      tag_536\n      jump\t// in\n    tag_947:\n        /* \"#utility.yul\":41514:41588   */\n      swap2\n      pop\n        /* \"#utility.yul\":41469:41598   */\n      pop\n        /* \"#utility.yul\":40612:41605   */\n      swap3\n      swap6\n      swap2\n      swap5\n      pop\n      swap3\n      pop\n      jump\t// out\n        /* \"#utility.yul\":41611:42457   */\n    tag_423:\n        /* \"#utility.yul\":41856:41860   */\n      0x00\n        /* \"#utility.yul\":41894:41897   */\n      0xa0\n        /* \"#utility.yul\":41883:41892   */\n      dup3\n        /* \"#utility.yul\":41879:41898   */\n      add\n        /* \"#utility.yul\":41871:41898   */\n      swap1\n      pop\n        /* \"#utility.yul\":41908:41979   */\n      tag_949\n        /* \"#utility.yul\":41976:41977   */\n      0x00\n        /* \"#utility.yul\":41965:41974   */\n      dup4\n        /* \"#utility.yul\":41961:41978   */\n      add\n        /* \"#utility.yul\":41952:41958   */\n      dup9\n        /* \"#utility.yul\":41908:41979   */\n      tag_493\n      jump\t// in\n    tag_949:\n        /* \"#utility.yul\":41989:42061   */\n      tag_950\n        /* \"#utility.yul\":42057:42059   */\n      0x20\n        /* \"#utility.yul\":42046:42055   */\n      dup4\n        /* \"#utility.yul\":42042:42060   */\n      add\n        /* \"#utility.yul\":42033:42039   */\n      dup8\n        /* \"#utility.yul\":41989:42061   */\n      tag_493\n      jump\t// in\n    tag_950:\n        /* \"#utility.yul\":42108:42117   */\n      dup2\n        /* \"#utility.yul\":42102:42106   */\n      dup2\n        /* \"#utility.yul\":42098:42118   */\n      sub\n        /* \"#utility.yul\":42093:42095   */\n      0x40\n        /* \"#utility.yul\":42082:42091   */\n      dup4\n        /* \"#utility.yul\":42078:42096   */\n      add\n        /* \"#utility.yul\":42071:42119   */\n      mstore\n        /* \"#utility.yul\":42136:42214   */\n      tag_951\n        /* \"#utility.yul\":42209:42213   */\n      dup2\n        /* \"#utility.yul\":42200:42206   */\n      dup7\n        /* \"#utility.yul\":42136:42214   */\n      tag_505\n      jump\t// in\n    tag_951:\n        /* \"#utility.yul\":42128:42214   */\n      swap1\n      pop\n        /* \"#utility.yul\":42224:42296   */\n      tag_952\n        /* \"#utility.yul\":42292:42294   */\n      0x60\n        /* \"#utility.yul\":42281:42290   */\n      dup4\n        /* \"#utility.yul\":42277:42295   */\n      add\n        /* \"#utility.yul\":42268:42274   */\n      dup6\n        /* \"#utility.yul\":42224:42296   */\n      tag_493\n      jump\t// in\n    tag_952:\n        /* \"#utility.yul\":42344:42353   */\n      dup2\n        /* \"#utility.yul\":42338:42342   */\n      dup2\n        /* \"#utility.yul\":42334:42354   */\n      sub\n        /* \"#utility.yul\":42328:42331   */\n      0x80\n        /* \"#utility.yul\":42317:42326   */\n      dup4\n        /* \"#utility.yul\":42313:42332   */\n      add\n        /* \"#utility.yul\":42306:42355   */\n      mstore\n        /* \"#utility.yul\":42372:42450   */\n      tag_953\n        /* \"#utility.yul\":42445:42449   */\n      dup2\n        /* \"#utility.yul\":42436:42442   */\n      dup5\n        /* \"#utility.yul\":42372:42450   */\n      tag_505\n      jump\t// in\n    tag_953:\n        /* \"#utility.yul\":42364:42450   */\n      swap1\n      pop\n        /* \"#utility.yul\":41611:42457   */\n      swap7\n      swap6\n      pop\n      pop\n      pop\n      pop\n      pop\n      pop\n      jump\t// out\n        /* \"#utility.yul\":42463:42905   */\n    tag_431:\n        /* \"#utility.yul\":42612:42616   */\n      0x00\n        /* \"#utility.yul\":42650:42652   */\n      0x60\n        /* \"#utility.yul\":42639:42648   */\n      dup3\n        /* \"#utility.yul\":42635:42653   */\n      add\n        /* \"#utility.yul\":42627:42653   */\n      swap1\n      pop\n        /* \"#utility.yul\":42663:42734   */\n      tag_955\n        /* \"#utility.yul\":42731:42732   */\n      0x00\n        /* \"#utility.yul\":42720:42729   */\n      dup4\n        /* \"#utility.yul\":42716:42733   */\n      add\n        /* \"#utility.yul\":42707:42713   */\n      dup7\n        /* \"#utility.yul\":42663:42734   */\n      tag_492\n      jump\t// in\n    tag_955:\n        /* \"#utility.yul\":42744:42816   */\n      tag_956\n        /* \"#utility.yul\":42812:42814   */\n      0x20\n        /* \"#utility.yul\":42801:42810   */\n      dup4\n        /* \"#utility.yul\":42797:42815   */\n      add\n        /* \"#utility.yul\":42788:42794   */\n      dup6\n        /* \"#utility.yul\":42744:42816   */\n      tag_492\n      jump\t// in\n    tag_956:\n        /* \"#utility.yul\":42826:42898   */\n      tag_957\n        /* \"#utility.yul\":42894:42896   */\n      0x40\n        /* \"#utility.yul\":42883:42892   */\n      dup4\n        /* \"#utility.yul\":42879:42897   */\n      add\n        /* \"#utility.yul\":42870:42876   */\n      dup5\n        /* \"#utility.yul\":42826:42898   */\n      tag_493\n      jump\t// in\n    tag_957:\n        /* \"#utility.yul\":42463:42905   */\n      swap5\n      swap4\n      pop\n      pop\n      pop\n      pop\n      jump\t// out\n        /* \"#utility.yul\":42911:43084   */\n    tag_571:\n        /* \"#utility.yul\":43051:43076   */\n      0x4e6f20746f6b656e7320746f206265206275726e656421000000000000000000\n        /* \"#utility.yul\":43047:43048   */\n      0x00\n        /* \"#utility.yul\":43039:43045   */\n      dup3\n        /* \"#utility.yul\":43035:43049   */\n      add\n        /* \"#utility.yul\":43028:43077   */\n      mstore\n        /* \"#utility.yul\":42911:43084   */\n      pop\n      jump\t// out\n        /* \"#utility.yul\":43090:43456   */\n    tag_572:\n        /* \"#utility.yul\":43232:43235   */\n      0x00\n        /* \"#utility.yul\":43253:43320   */\n      tag_960\n        /* \"#utility.yul\":43317:43319   */\n      0x17\n        /* \"#utility.yul\":43312:43315   */\n      dup4\n        /* \"#utility.yul\":43253:43320   */\n      tag_502\n      jump\t// in\n    tag_960:\n        /* \"#utility.yul\":43246:43320   */\n      swap2\n      pop\n        /* \"#utility.yul\":43329:43422   */\n      tag_961\n        /* \"#utility.yul\":43418:43421   */\n      dup3\n        /* \"#utility.yul\":43329:43422   */\n      tag_571\n      jump\t// in\n    tag_961:\n        /* \"#utility.yul\":43447:43449   */\n      0x20\n        /* \"#utility.yul\":43442:43445   */\n      dup3\n        /* \"#utility.yul\":43438:43450   */\n      add\n        /* \"#utility.yul\":43431:43450   */\n      swap1\n      pop\n        /* \"#utility.yul\":43090:43456   */\n      swap2\n      swap1\n      pop\n      jump\t// out\n        /* \"#utility.yul\":43462:43881   */\n    tag_436:\n        /* \"#utility.yul\":43628:43632   */\n      0x00\n        /* \"#utility.yul\":43666:43668   */\n      0x20\n        /* \"#utility.yul\":43655:43664   */\n      dup3\n        /* \"#utility.yul\":43651:43669   */\n      add\n        /* \"#utility.yul\":43643:43669   */\n      swap1\n      pop\n        /* \"#utility.yul\":43715:43724   */\n      dup2\n        /* \"#utility.yul\":43709:43713   */\n      dup2\n        /* \"#utility.yul\":43705:43725   */\n      sub\n        /* \"#utility.yul\":43701:43702   */\n      0x00\n        /* \"#utility.yul\":43690:43699   */\n      dup4\n        /* \"#utility.yul\":43686:43703   */\n      add\n        /* \"#utility.yul\":43679:43726   */\n      mstore\n        /* \"#utility.yul\":43743:43874   */\n      tag_963\n        /* \"#utility.yul\":43869:43873   */\n      dup2\n        /* \"#utility.yul\":43743:43874   */\n      tag_572\n      jump\t// in\n    tag_963:\n        /* \"#utility.yul\":43735:43874   */\n      swap1\n      pop\n        /* \"#utility.yul\":43462:43881   */\n      swap2\n      swap1\n      pop\n      jump\t// out\n        /* \"#utility.yul\":43887:44113   */\n    tag_573:\n        /* \"#utility.yul\":44027:44061   */\n      0x7472616e73616374696f6e207265766572746564206275726e20756e73756363\n        /* \"#utility.yul\":44023:44024   */\n      0x00\n        /* \"#utility.yul\":44015:44021   */\n      dup3\n        /* \"#utility.yul\":44011:44025   */\n      add\n        /* \"#utility.yul\":44004:44062   */\n      mstore\n        /* \"#utility.yul\":44096:44105   */\n      0x657366756c6c2100000000000000000000000000000000000000000000000000\n        /* \"#utility.yul\":44091:44093   */\n      0x20\n        /* \"#utility.yul\":44083:44089   */\n      dup3\n        /* \"#utility.yul\":44079:44094   */\n      add\n        /* \"#utility.yul\":44072:44106   */\n      mstore\n        /* \"#utility.yul\":43887:44113   */\n      pop\n      jump\t// out\n        /* \"#utility.yul\":44119:44485   */\n    tag_574:\n        /* \"#utility.yul\":44261:44264   */\n      0x00\n        /* \"#utility.yul\":44282:44349   */\n      tag_966\n        /* \"#utility.yul\":44346:44348   */\n      0x27\n        /* \"#utility.yul\":44341:44344   */\n      dup4\n        /* \"#utility.yul\":44282:44349   */\n      tag_502\n      jump\t// in\n    tag_966:\n        /* \"#utility.yul\":44275:44349   */\n      swap2\n      pop\n        /* \"#utility.yul\":44358:44451   */\n      tag_967\n        /* \"#utility.yul\":44447:44450   */\n      dup3\n        /* \"#utility.yul\":44358:44451   */\n      tag_573\n      jump\t// in\n    tag_967:\n        /* \"#utility.yul\":44476:44478   */\n      0x40\n        /* \"#utility.yul\":44471:44474   */\n      dup3\n        /* \"#utility.yul\":44467:44479   */\n      add\n        /* \"#utility.yul\":44460:44479   */\n      swap1\n      pop\n        /* \"#utility.yul\":44119:44485   */\n      swap2\n      swap1\n      pop\n      jump\t// out\n        /* \"#utility.yul\":44491:44910   */\n    tag_446:\n        /* \"#utility.yul\":44657:44661   */\n      0x00\n        /* \"#utility.yul\":44695:44697   */\n      0x20\n        /* \"#utility.yul\":44684:44693   */\n      dup3\n        /* \"#utility.yul\":44680:44698   */\n      add\n        /* \"#utility.yul\":44672:44698   */\n      swap1\n      pop\n        /* \"#utility.yul\":44744:44753   */\n      dup2\n        /* \"#utility.yul\":44738:44742   */\n      dup2\n        /* \"#utility.yul\":44734:44754   */\n      sub\n        /* \"#utility.yul\":44730:44731   */\n      0x00\n        /* \"#utility.yul\":44719:44728   */\n      dup4\n        /* \"#utility.yul\":44715:44732   */\n      add\n        /* \"#utility.yul\":44708:44755   */\n      mstore\n        /* \"#utility.yul\":44772:44903   */\n      tag_969\n        /* \"#utility.yul\":44898:44902   */\n      dup2\n        /* \"#utility.yul\":44772:44903   */\n      tag_574\n      jump\t// in\n    tag_969:\n        /* \"#utility.yul\":44764:44903   */\n      swap1\n      pop\n        /* \"#utility.yul\":44491:44910   */\n      swap2\n      swap1\n      pop\n      jump\t// out\n        /* \"#utility.yul\":44916:45145   */\n    tag_575:\n        /* \"#utility.yul\":45056:45090   */\n      0x5361666545524332303a204552433230206f7065726174696f6e20646964206e\n        /* \"#utility.yul\":45052:45053   */\n      0x00\n        /* \"#utility.yul\":45044:45050   */\n      dup3\n        /* \"#utility.yul\":45040:45054   */\n      add\n        /* \"#utility.yul\":45033:45091   */\n      mstore\n        /* \"#utility.yul\":45125:45137   */\n      0x6f74207375636365656400000000000000000000000000000000000000000000\n        /* \"#utility.yul\":45120:45122   */\n      0x20\n        /* \"#utility.yul\":45112:45118   */\n      dup3\n        /* \"#utility.yul\":45108:45123   */\n      add\n        /* \"#utility.yul\":45101:45138   */\n      mstore\n        /* \"#utility.yul\":44916:45145   */\n      pop\n      jump\t// out\n        /* \"#utility.yul\":45151:45517   */\n    tag_576:\n        /* \"#utility.yul\":45293:45296   */\n      0x00\n        /* \"#utility.yul\":45314:45381   */\n      tag_972\n        /* \"#utility.yul\":45378:45380   */\n      0x2a\n        /* \"#utility.yul\":45373:45376   */\n      dup4\n        /* \"#utility.yul\":45314:45381   */\n      tag_502\n      jump\t// in\n    tag_972:\n        /* \"#utility.yul\":45307:45381   */\n      swap2\n      pop\n        /* \"#utility.yul\":45390:45483   */\n      tag_973\n        /* \"#utility.yul\":45479:45482   */\n      dup3\n        /* \"#utility.yul\":45390:45483   */\n      tag_575\n      jump\t// in\n    tag_973:\n        /* \"#utility.yul\":45508:45510   */\n      0x40\n        /* \"#utility.yul\":45503:45506   */\n      dup3\n        /* \"#utility.yul\":45499:45511   */\n      add\n        /* \"#utility.yul\":45492:45511   */\n      swap1\n      pop\n        /* \"#utility.yul\":45151:45517   */\n      swap2\n      swap1\n      pop\n      jump\t// out\n        /* \"#utility.yul\":45523:45942   */\n    tag_455:\n        /* \"#utility.yul\":45689:45693   */\n      0x00\n        /* \"#utility.yul\":45727:45729   */\n      0x20\n        /* \"#utility.yul\":45716:45725   */\n      dup3\n        /* \"#utility.yul\":45712:45730   */\n      add\n        /* \"#utility.yul\":45704:45730   */\n      swap1\n      pop\n        /* \"#utility.yul\":45776:45785   */\n      dup2\n        /* \"#utility.yul\":45770:45774   */\n      dup2\n        /* \"#utility.yul\":45766:45786   */\n      sub\n        /* \"#utility.yul\":45762:45763   */\n      0x00\n        /* \"#utility.yul\":45751:45760   */\n      dup4\n        /* \"#utility.yul\":45747:45764   */\n      add\n        /* \"#utility.yul\":45740:45787   */\n      mstore\n        /* \"#utility.yul\":45804:45935   */\n      tag_975\n        /* \"#utility.yul\":45930:45934   */\n      dup2\n        /* \"#utility.yul\":45804:45935   */\n      tag_576\n      jump\t// in\n    tag_975:\n        /* \"#utility.yul\":45796:45935   */\n      swap1\n      pop\n        /* \"#utility.yul\":45523:45942   */\n      swap2\n      swap1\n      pop\n      jump\t// out\n        /* \"#utility.yul\":45948:46173   */\n    tag_577:\n        /* \"#utility.yul\":46088:46122   */\n      0x416464726573733a20696e73756666696369656e742062616c616e636520666f\n        /* \"#utility.yul\":46084:46085   */\n      0x00\n        /* \"#utility.yul\":46076:46082   */\n      dup3\n        /* \"#utility.yul\":46072:46086   */\n      add\n        /* \"#utility.yul\":46065:46123   */\n      mstore\n        /* \"#utility.yul\":46157:46165   */\n      0x722063616c6c0000000000000000000000000000000000000000000000000000\n        /* \"#utility.yul\":46152:46154   */\n      0x20\n        /* \"#utility.yul\":46144:46150   */\n      dup3\n        /* \"#utility.yul\":46140:46155   */\n      add\n        /* \"#utility.yul\":46133:46166   */\n      mstore\n        /* \"#utility.yul\":45948:46173   */\n      pop\n      jump\t// out\n        /* \"#utility.yul\":46179:46545   */\n    tag_578:\n        /* \"#utility.yul\":46321:46324   */\n      0x00\n        /* \"#utility.yul\":46342:46409   */\n      tag_978\n        /* \"#utility.yul\":46406:46408   */\n      0x26\n        /* \"#utility.yul\":46401:46404   */\n      dup4\n        /* \"#utility.yul\":46342:46409   */\n      tag_502\n      jump\t// in\n    tag_978:\n        /* \"#utility.yul\":46335:46409   */\n      swap2\n      pop\n        /* \"#utility.yul\":46418:46511   */\n      tag_979\n        /* \"#utility.yul\":46507:46510   */\n      dup3\n        /* \"#utility.yul\":46418:46511   */\n      tag_577\n      jump\t// in\n    tag_979:\n        /* \"#utility.yul\":46536:46538   */\n      0x40\n        /* \"#utility.yul\":46531:46534   */\n      dup3\n        /* \"#utility.yul\":46527:46539   */\n      add\n        /* \"#utility.yul\":46520:46539   */\n      swap1\n      pop\n        /* \"#utility.yul\":46179:46545   */\n      swap2\n      swap1\n      pop\n      jump\t// out\n        /* \"#utility.yul\":46551:46970   */\n    tag_462:\n        /* \"#utility.yul\":46717:46721   */\n      0x00\n        /* \"#utility.yul\":46755:46757   */\n      0x20\n        /* \"#utility.yul\":46744:46753   */\n      dup3\n        /* \"#utility.yul\":46740:46758   */\n      add\n        /* \"#utility.yul\":46732:46758   */\n      swap1\n      pop\n        /* \"#utility.yul\":46804:46813   */\n      dup2\n        /* \"#utility.yul\":46798:46802   */\n      dup2\n        /* \"#utility.yul\":46794:46814   */\n      sub\n        /* \"#utility.yul\":46790:46791   */\n      0x00\n        /* \"#utility.yul\":46779:46788   */\n      dup4\n        /* \"#utility.yul\":46775:46792   */\n      add\n        /* \"#utility.yul\":46768:46815   */\n      mstore\n        /* \"#utility.yul\":46832:46963   */\n      tag_981\n        /* \"#utility.yul\":46958:46962   */\n      dup2\n        /* \"#utility.yul\":46832:46963   */\n      tag_578\n      jump\t// in\n    tag_981:\n        /* \"#utility.yul\":46824:46963   */\n      swap1\n      pop\n        /* \"#utility.yul\":46551:46970   */\n      swap2\n      swap1\n      pop\n      jump\t// out\n        /* \"#utility.yul\":46976:47155   */\n    tag_579:\n        /* \"#utility.yul\":47116:47147   */\n      0x416464726573733a2063616c6c20746f206e6f6e2d636f6e7472616374000000\n        /* \"#utility.yul\":47112:47113   */\n      0x00\n        /* \"#utility.yul\":47104:47110   */\n      dup3\n        /* \"#utility.yul\":47100:47114   */\n      add\n        /* \"#utility.yul\":47093:47148   */\n      mstore\n        /* \"#utility.yul\":46976:47155   */\n      pop\n      jump\t// out\n        /* \"#utility.yul\":47161:47527   */\n    tag_580:\n        /* \"#utility.yul\":47303:47306   */\n      0x00\n        /* \"#utility.yul\":47324:47391   */\n      tag_984\n        /* \"#utility.yul\":47388:47390   */\n      0x1d\n        /* \"#utility.yul\":47383:47386   */\n      dup4\n        /* \"#utility.yul\":47324:47391   */\n      tag_502\n      jump\t// in\n    tag_984:\n        /* \"#utility.yul\":47317:47391   */\n      swap2\n      pop\n        /* \"#utility.yul\":47400:47493   */\n      tag_985\n        /* \"#utility.yul\":47489:47492   */\n      dup3\n        /* \"#utility.yul\":47400:47493   */\n      tag_579\n      jump\t// in\n    tag_985:\n        /* \"#utility.yul\":47518:47520   */\n      0x20\n        /* \"#utility.yul\":47513:47516   */\n      dup3\n        /* \"#utility.yul\":47509:47521   */\n      add\n        /* \"#utility.yul\":47502:47521   */\n      swap1\n      pop\n        /* \"#utility.yul\":47161:47527   */\n      swap2\n      swap1\n      pop\n      jump\t// out\n        /* \"#utility.yul\":47533:47952   */\n    tag_467:\n        /* \"#utility.yul\":47699:47703   */\n      0x00\n        /* \"#utility.yul\":47737:47739   */\n      0x20\n        /* \"#utility.yul\":47726:47735   */\n      dup3\n        /* \"#utility.yul\":47722:47740   */\n      add\n        /* \"#utility.yul\":47714:47740   */\n      swap1\n      pop\n        /* \"#utility.yul\":47786:47795   */\n      dup2\n        /* \"#utility.yul\":47780:47784   */\n      dup2\n        /* \"#utility.yul\":47776:47796   */\n      sub\n        /* \"#utility.yul\":47772:47773   */\n      0x00\n        /* \"#utility.yul\":47761:47770   */\n      dup4\n        /* \"#utility.yul\":47757:47774   */\n      add\n        /* \"#utility.yul\":47750:47797   */\n      mstore\n        /* \"#utility.yul\":47814:47945   */\n      tag_987\n        /* \"#utility.yul\":47940:47944   */\n      dup2\n        /* \"#utility.yul\":47814:47945   */\n      tag_580\n      jump\t// in\n    tag_987:\n        /* \"#utility.yul\":47806:47945   */\n      swap1\n      pop\n        /* \"#utility.yul\":47533:47952   */\n      swap2\n      swap1\n      pop\n      jump\t// out\n        /* \"#utility.yul\":47958:48056   */\n    tag_581:\n        /* \"#utility.yul\":48009:48015   */\n      0x00\n        /* \"#utility.yul\":48043:48048   */\n      dup2\n        /* \"#utility.yul\":48037:48049   */\n      mload\n        /* \"#utility.yul\":48027:48049   */\n      swap1\n      pop\n        /* \"#utility.yul\":47958:48056   */\n      swap2\n      swap1\n      pop\n      jump\t// out\n        /* \"#utility.yul\":48062:48209   */\n    tag_582:\n        /* \"#utility.yul\":48163:48174   */\n      0x00\n        /* \"#utility.yul\":48200:48203   */\n      dup2\n        /* \"#utility.yul\":48185:48203   */\n      swap1\n      pop\n        /* \"#utility.yul\":48062:48209   */\n      swap3\n      swap2\n      pop\n      pop\n      jump\t// out\n        /* \"#utility.yul\":48215:48601   */\n    tag_583:\n        /* \"#utility.yul\":48319:48322   */\n      0x00\n        /* \"#utility.yul\":48347:48385   */\n      tag_991\n        /* \"#utility.yul\":48379:48384   */\n      dup3\n        /* \"#utility.yul\":48347:48385   */\n      tag_581\n      jump\t// in\n    tag_991:\n        /* \"#utility.yul\":48401:48489   */\n      tag_992\n        /* \"#utility.yul\":48482:48488   */\n      dup2\n        /* \"#utility.yul\":48477:48480   */\n      dup6\n        /* \"#utility.yul\":48401:48489   */\n      tag_582\n      jump\t// in\n    tag_992:\n        /* \"#utility.yul\":48394:48489   */\n      swap4\n      pop\n        /* \"#utility.yul\":48498:48563   */\n      tag_993\n        /* \"#utility.yul\":48556:48562   */\n      dup2\n        /* \"#utility.yul\":48551:48554   */\n      dup6\n        /* \"#utility.yul\":48544:48548   */\n      0x20\n        /* \"#utility.yul\":48537:48542   */\n      dup7\n        /* \"#utility.yul\":48533:48549   */\n      add\n        /* \"#utility.yul\":48498:48563   */\n      tag_503\n      jump\t// in\n    tag_993:\n        /* \"#utility.yul\":48588:48594   */\n      dup1\n        /* \"#utility.yul\":48583:48586   */\n      dup5\n        /* \"#utility.yul\":48579:48595   */\n      add\n        /* \"#utility.yul\":48572:48595   */\n      swap2\n      pop\n        /* \"#utility.yul\":48323:48601   */\n      pop\n        /* \"#utility.yul\":48215:48601   */\n      swap3\n      swap2\n      pop\n      pop\n      jump\t// out\n        /* \"#utility.yul\":48607:48878   */\n    tag_469:\n        /* \"#utility.yul\":48737:48740   */\n      0x00\n        /* \"#utility.yul\":48759:48852   */\n      tag_995\n        /* \"#utility.yul\":48848:48851   */\n      dup3\n        /* \"#utility.yul\":48839:48845   */\n      dup5\n        /* \"#utility.yul\":48759:48852   */\n      tag_583\n      jump\t// in\n    tag_995:\n        /* \"#utility.yul\":48752:48852   */\n      swap2\n      pop\n        /* \"#utility.yul\":48869:48872   */\n      dup2\n        /* \"#utility.yul\":48862:48872   */\n      swap1\n      pop\n        /* \"#utility.yul\":48607:48878   */\n      swap3\n      swap2\n      pop\n      pop\n      jump\t// out\n\n    auxdata: 0xa26469706673582212201a8ff797fa9cff1ece7e7bfe59a7e5f471b316a9db5eac64074a2ae36b0af4f364736f6c63430008170033\n}\n",
				"bytecode": {
					"linkReferences": {},
					"object": "60c060405260018060146101000a81548160ff0219169083151502179055505f6002555f6003555f60045534801562000036575f80fd5b506040516200457c3803806200457c83398181016040528101906200005c91906200026b565b5f805f6101000a81548160ff02191690831515021790555062000094620000886200013c60201b60201c565b6200014360201b60201c565b5f73ffffffffffffffffffffffffffffffffffffffff168173ffffffffffffffffffffffffffffffffffffffff1603620000cc575f80fd5b8073ffffffffffffffffffffffffffffffffffffffff1660808173ffffffffffffffffffffffffffffffffffffffff16815250508173ffffffffffffffffffffffffffffffffffffffff1660a08173ffffffffffffffffffffffffffffffffffffffff16815250505050620002b0565b5f33905090565b5f8060019054906101000a900473ffffffffffffffffffffffffffffffffffffffff169050815f60016101000a81548173ffffffffffffffffffffffffffffffffffffffff021916908373ffffffffffffffffffffffffffffffffffffffff1602179055508173ffffffffffffffffffffffffffffffffffffffff168173ffffffffffffffffffffffffffffffffffffffff167f8be0079c531659141344cd1fd0a4f28419497f9722a3daafe3b4186f6b6457e060405160405180910390a35050565b5f80fd5b5f73ffffffffffffffffffffffffffffffffffffffff82169050919050565b5f62000235826200020a565b9050919050565b620002478162000229565b811462000252575f80fd5b50565b5f8151905062000265816200023c565b92915050565b5f806040838503121562000284576200028362000206565b5b5f620002938582860162000255565b9250506020620002a68582860162000255565b9150509250929050565b60805160a051614279620003035f395f8181611053015281816113d6015281816117370152818161175801528181611cc801528181611ec501526126ef01525f8181610923015261098d01526142795ff3fe608060405234801561000f575f80fd5b506004361061018b575f3560e01c8063722713f7116100dc578063abb1dc4411610095578063e6367ebe1161006f578063e6367ebe14610401578063e808876614610420578063ed969c841461042a578063f2fde38b1461045a5761018b565b8063abb1dc4414610396578063b0b5e39e146103b5578063b99152d0146103d15761018b565b8063722713f7146102d05780637754723e146102ee5780638da5cb5b1461031e5780638eb89a611461033c5780639405de641461035a578063a684ab5c146103785761018b565b80630f15f4c0116101495780635c975abb116101235780635c975abb14610248578063615adcb4146102665780636a9d43dd14610296578063715018a6146102c65761018b565b80630f15f4c0146102165780632af0e2511461022057806351b42b001461023e5761018b565b8062f714ce1461018f578063046f7da2146101ab57806307da68f5146101b55780630a6cb062146101bf5780630ba2f1d8146101db5780630f0ccf61146101f7575b5f80fd5b6101a960048036038101906101a49190612aea565b610476565b005b6101b36105ff565b005b6101bd610619565b005b6101d960048036038101906101d49190612b28565b610633565b005b6101f560048036038101906101f09190612b28565b6106b5565b005b6101ff610890565b60405161020d929190612b62565b60405180910390f35b61021e61096c565b005b610228610b42565b6040516102359190612b98565b60405180910390f35b610246610ca6565b005b610250610e5c565b60405161025d9190612bcb565b60405180910390f35b610280600480360381019061027b9190612c9a565b610e70565b60405161028d9190612bcb565b60405180910390f35b6102b060048036038101906102ab9190612d2b565b610f65565b6040516102bd9190612bcb565b60405180910390f35b6102ce61103d565b005b6102d8611050565b6040516102e59190612b98565b60405180910390f35b61030860048036038101906103039190612d7b565b6110ee565b6040516103159190612b98565b60405180910390f35b61032661117b565b6040516103339190612dcb565b60405180910390f35b6103446111a3565b6040516103519190612b98565b60405180910390f35b610362611307565b60405161036f9190612b98565b60405180910390f35b610380611473565b60405161038d9190612b98565b60405180910390f35b61039e6115d7565b6040516103ac929190612e6e565b60405180910390f35b6103cf60048036038101906103ca9190612b28565b6117ee565b005b6103eb60048036038101906103e69190612b28565b611870565b6040516103f89190612b98565b60405180910390f35b6104096118f8565b604051610417929190612e9c565b60405180910390f35b610428611975565b005b610444600480360381019061043f9190612eca565b611b15565b6040516104519190612bcb565b60405180910390f35b610474600480360381019061046f9190612b28565b611f23565b005b61047e611fa5565b5f73ffffffffffffffffffffffffffffffffffffffff1660015f9054906101000a900473ffffffffffffffffffffffffffffffffffffffff1673ffffffffffffffffffffffffffffffffffffffff160361050d576040517f08c379a000000000000000000000000000000000000000000000000000000000815260040161050490612f3f565b60405180910390fd5b600454821115610552576040517f08c379a000000000000000000000000000000000000000000000000000000000815260040161054990612fcd565b60405180910390fd5b5f8211610594576040517f08c379a000000000000000000000000000000000000000000000000000000000815260040161058b9061305b565b60405180910390fd5b8073ffffffffffffffffffffffffffffffffffffffff16427f71ef96c43343734b1d843bb85d52ef329f5e9143e4d35827771e3b0dd90c5f84846040516105db9190612b98565b60405180910390a38160045f8282546105f491906130a6565b925050819055505050565b610607612023565b61060f611fa5565b61061761206c565b565b6106216120cc565b610629611fa5565b610631612116565b565b61063b611fa5565b5f73ffffffffffffffffffffffffffffffffffffffff168173ffffffffffffffffffffffffffffffffffffffff1603610672575f80fd5b8060055f6101000a81548173ffffffffffffffffffffffffffffffffffffffff021916908373ffffffffffffffffffffffffffffffffffffffff16021790555050565b5f73ffffffffffffffffffffffffffffffffffffffff1660015f9054906101000a900473ffffffffffffffffffffffffffffffffffffffff1673ffffffffffffffffffffffffffffffffffffffff1603610744576040517f08c379a000000000000000000000000000000000000000000000000000000000815260040161073b90612f3f565b60405180910390fd5b60015f9054906101000a900473ffffffffffffffffffffffffffffffffffffffff1673ffffffffffffffffffffffffffffffffffffffff163373ffffffffffffffffffffffffffffffffffffffff16146107d3576040517f08c379a00000000000000000000000000000000000000000000000000000000081526004016107ca90613123565b60405180910390fd5b5f73ffffffffffffffffffffffffffffffffffffffff168173ffffffffffffffffffffffffffffffffffffffff160361080a575f80fd5b8060015f6101000a81548173ffffffffffffffffffffffffffffffffffffffff021916908373ffffffffffffffffffffffffffffffffffffffff1602179055508073ffffffffffffffffffffffffffffffffffffffff167f8bbfeb6e784147166691d407a592a09379bbbd56888a96c54793bce54bb5752360405160405180910390a250565b5f805f73ffffffffffffffffffffffffffffffffffffffff1660015f9054906101000a900473ffffffffffffffffffffffffffffffffffffffff1673ffffffffffffffffffffffffffffffffffffffff1603610921576040517f08c379a000000000000000000000000000000000000000000000000000000000815260040161091890612f3f565b60405180910390fd5b7f000000000000000000000000000000000000000000000000000000000000000060015f9054906101000a900473ffffffffffffffffffffffffffffffffffffffff16915091509091565b6109746120cc565b3373ffffffffffffffffffffffffffffffffffffffff167f000000000000000000000000000000000000000000000000000000000000000073ffffffffffffffffffffffffffffffffffffffff1614610a02576040517f08c379a00000000000000000000000000000000000000000000000000000000081526004016109f99061318b565b60405180910390fd5b5f73ffffffffffffffffffffffffffffffffffffffff1660015f9054906101000a900473ffffffffffffffffffffffffffffffffffffffff1673ffffffffffffffffffffffffffffffffffffffff1614610a91576040517f08c379a0000000000000000000000000000000000000000000000000000000008152600401610a88906131f3565b60405180910390fd5b3360015f6101000a81548173ffffffffffffffffffffffffffffffffffffffff021916908373ffffffffffffffffffffffffffffffffffffffff16021790555060015f9054906101000a900473ffffffffffffffffffffffffffffffffffffffff1673ffffffffffffffffffffffffffffffffffffffff167ffbd0a3f6e9a0dd5f834515748047e83de8064477489a0a0d6b59c64bbecc992a42604051610b389190612b98565b60405180910390a2565b5f8073ffffffffffffffffffffffffffffffffffffffff1660015f9054906101000a900473ffffffffffffffffffffffffffffffffffffffff1673ffffffffffffffffffffffffffffffffffffffff1603610bd2576040517f08c379a0000000000000000000000000000000000000000000000000000000008152600401610bc990612f3f565b60405180910390fd5b60015f9054906101000a900473ffffffffffffffffffffffffffffffffffffffff1673ffffffffffffffffffffffffffffffffffffffff163373ffffffffffffffffffffffffffffffffffffffff161480610c5f5750610c3061117b565b73ffffffffffffffffffffffffffffffffffffffff163373ffffffffffffffffffffffffffffffffffffffff16145b610c9e576040517f08c379a0000000000000000000000000000000000000000000000000000000008152600401610c9590613281565b60405180910390fd5b600254905090565b5f73ffffffffffffffffffffffffffffffffffffffff1660015f9054906101000a900473ffffffffffffffffffffffffffffffffffffffff1673ffffffffffffffffffffffffffffffffffffffff1603610d35576040517f08c379a0000000000000000000000000000000000000000000000000000000008152600401610d2c90612f3f565b60405180910390fd5b60015f9054906101000a900473ffffffffffffffffffffffffffffffffffffffff1673ffffffffffffffffffffffffffffffffffffffff163373ffffffffffffffffffffffffffffffffffffffff1614610dc4576040517f08c379a0000000000000000000000000000000000000000000000000000000008152600401610dbb90613123565b60405180910390fd5b610dcc6120cc565b5f60015f6101000a81548173ffffffffffffffffffffffffffffffffffffffff021916908373ffffffffffffffffffffffffffffffffffffffff1602179055503373ffffffffffffffffffffffffffffffffffffffff167f13b865880a841dc469b629159fa1e730fee99568b0decc6737fd688b3624638142604051610e529190612b98565b60405180910390a2565b5f805f9054906101000a900460ff16905090565b5f610e79611fa5565b600454861115610ebe576040517f08c379a0000000000000000000000000000000000000000000000000000000008152600401610eb590612fcd565b60405180910390fd5b5f8611610f00576040517f08c379a0000000000000000000000000000000000000000000000000000000008152600401610ef79061305b565b60405180910390fd5b427fa51baa456b088b2a3af4316418cb0348de6c44f3347cff948a3d5f5d91e57cd48787878787604051610f389594939291906133d3565b60405180910390a28560045f828254610f5191906130a6565b925050819055506001905095945050505050565b5f610f6e611fa5565b81610f7885611870565b1015610fb9576040517f08c379a0000000000000000000000000000000000000000000000000000000008152600401610fb090613464565b60405180910390fd5b8373ffffffffffffffffffffffffffffffffffffffff1663a9059cbb84846040518363ffffffff1660e01b8152600401610ff4929190613482565b6020604051808303815f875af1158015611010573d5f803e3d5ffd5b505050506040513d601f19601f8201168201806040525081019061103491906134d3565b90509392505050565b611045611fa5565b61104e5f612177565b565b5f7f000000000000000000000000000000000000000000000000000000000000000073ffffffffffffffffffffffffffffffffffffffff166370a08231306040518263ffffffff1660e01b81526004016110aa9190612dcb565b602060405180830381865afa1580156110c5573d5f803e3d5ffd5b505050506040513d601f19601f820116820180604052508101906110e99190613512565b905090565b5f6110f7611fa5565b5f8311801561110557505f84115b801561111057505f82115b61114f576040517f08c379a0000000000000000000000000000000000000000000000000000000008152600401611146906135ad565b60405180910390fd5b8282600a61115d91906136fa565b856111689190613744565b61117291906137b2565b90509392505050565b5f8060019054906101000a900473ffffffffffffffffffffffffffffffffffffffff16905090565b5f8073ffffffffffffffffffffffffffffffffffffffff1660015f9054906101000a900473ffffffffffffffffffffffffffffffffffffffff1673ffffffffffffffffffffffffffffffffffffffff1603611233576040517f08c379a000000000000000000000000000000000000000000000000000000000815260040161122a90612f3f565b60405180910390fd5b60015f9054906101000a900473ffffffffffffffffffffffffffffffffffffffff1673ffffffffffffffffffffffffffffffffffffffff163373ffffffffffffffffffffffffffffffffffffffff1614806112c0575061129161117b565b73ffffffffffffffffffffffffffffffffffffffff163373ffffffffffffffffffffffffffffffffffffffff16145b6112ff576040517f08c379a00000000000000000000000000000000000000000000000000000000081526004016112f690613281565b60405180910390fd5b600454905090565b5f60015f9054906101000a900473ffffffffffffffffffffffffffffffffffffffff1673ffffffffffffffffffffffffffffffffffffffff163373ffffffffffffffffffffffffffffffffffffffff161480611395575061136661117b565b73ffffffffffffffffffffffffffffffffffffffff163373ffffffffffffffffffffffffffffffffffffffff16145b6113d4576040517f08c379a00000000000000000000000000000000000000000000000000000000081526004016113cb90613281565b60405180910390fd5b7f000000000000000000000000000000000000000000000000000000000000000073ffffffffffffffffffffffffffffffffffffffff1663dd62ed3e33306040518363ffffffff1660e01b815260040161142f929190612b62565b602060405180830381865afa15801561144a573d5f803e3d5ffd5b505050506040513d601f19601f8201168201806040525081019061146e9190613512565b905090565b5f8073ffffffffffffffffffffffffffffffffffffffff1660015f9054906101000a900473ffffffffffffffffffffffffffffffffffffffff1673ffffffffffffffffffffffffffffffffffffffff1603611503576040517f08c379a00000000000000000000000000000000000000000000000000000000081526004016114fa90612f3f565b60405180910390fd5b60015f9054906101000a900473ffffffffffffffffffffffffffffffffffffffff1673ffffffffffffffffffffffffffffffffffffffff163373ffffffffffffffffffffffffffffffffffffffff161480611590575061156161117b565b73ffffffffffffffffffffffffffffffffffffffff163373ffffffffffffffffffffffffffffffffffffffff16145b6115cf576040517f08c379a00000000000000000000000000000000000000000000000000000000081526004016115c690613281565b60405180910390fd5b600354905090565b5f60605f73ffffffffffffffffffffffffffffffffffffffff1660015f9054906101000a900473ffffffffffffffffffffffffffffffffffffffff1673ffffffffffffffffffffffffffffffffffffffff1603611669576040517f08c379a000000000000000000000000000000000000000000000000000000000815260040161166090612f3f565b60405180910390fd5b60015f9054906101000a900473ffffffffffffffffffffffffffffffffffffffff1673ffffffffffffffffffffffffffffffffffffffff163373ffffffffffffffffffffffffffffffffffffffff1614806116f657506116c761117b565b73ffffffffffffffffffffffffffffffffffffffff163373ffffffffffffffffffffffffffffffffffffffff16145b611735576040517f08c379a000000000000000000000000000000000000000000000000000000000815260040161172c90613281565b60405180910390fd5b7f00000000000000000000000000000000000000000000000000000000000000007f000000000000000000000000000000000000000000000000000000000000000073ffffffffffffffffffffffffffffffffffffffff166395d89b416040518163ffffffff1660e01b81526004015f60405180830381865afa1580156117be573d5f803e3d5ffd5b505050506040513d5f823e3d601f19601f820116820180604052508101906117e691906138fc565b915091509091565b6117f6611fa5565b5f73ffffffffffffffffffffffffffffffffffffffff168173ffffffffffffffffffffffffffffffffffffffff160361182d575f80fd5b8060065f6101000a81548173ffffffffffffffffffffffffffffffffffffffff021916908373ffffffffffffffffffffffffffffffffffffffff16021790555050565b5f611879611fa5565b8173ffffffffffffffffffffffffffffffffffffffff166370a08231306040518263ffffffff1660e01b81526004016118b29190612dcb565b602060405180830381865afa1580156118cd573d5f803e3d5ffd5b505050506040513d601f19601f820116820180604052508101906118f19190613512565b9050919050565b60605f8061190461223a565b9050600160149054906101000a900460ff1615611948578060065f9054906101000a900473ffffffffffffffffffffffffffffffffffffffff169250925050611971565b8060055f9054906101000a900473ffffffffffffffffffffffffffffffffffffffff1692509250505b9091565b61197d611fa5565b600160149054906101000a900460ff1615611a3f57600160149054906101000a900460ff1680156119fb57505f73ffffffffffffffffffffffffffffffffffffffff1660055f9054906101000a900473ffffffffffffffffffffffffffffffffffffffff1673ffffffffffffffffffffffffffffffffffffffff1614155b611a3a576040517f08c379a0000000000000000000000000000000000000000000000000000000008152600401611a31906139b3565b60405180910390fd5b611ae9565b600160149054906101000a900460ff16158015611aa957505f73ffffffffffffffffffffffffffffffffffffffff1660065f9054906101000a900473ffffffffffffffffffffffffffffffffffffffff1673ffffffffffffffffffffffffffffffffffffffff1614155b611ae8576040517f08c379a0000000000000000000000000000000000000000000000000000000008152600401611adf90613a1b565b60405180910390fd5b5b600160149054906101000a900460ff1615600160146101000a81548160ff021916908315150217905550565b5f611b1e6120cc565b5f73ffffffffffffffffffffffffffffffffffffffff1660015f9054906101000a900473ffffffffffffffffffffffffffffffffffffffff1673ffffffffffffffffffffffffffffffffffffffff1603611bad576040517f08c379a0000000000000000000000000000000000000000000000000000000008152600401611ba490612f3f565b60405180910390fd5b60015f9054906101000a900473ffffffffffffffffffffffffffffffffffffffff1673ffffffffffffffffffffffffffffffffffffffff163373ffffffffffffffffffffffffffffffffffffffff161480611c3a5750611c0b61117b565b73ffffffffffffffffffffffffffffffffffffffff163373ffffffffffffffffffffffffffffffffffffffff16145b611c79576040517f08c379a0000000000000000000000000000000000000000000000000000000008152600401611c7090613281565b60405180910390fd5b5f8211611cbb576040517f08c379a0000000000000000000000000000000000000000000000000000000008152600401611cb290613a83565b60405180910390fd5b81611cc4611307565b10157f000000000000000000000000000000000000000000000000000000000000000073ffffffffffffffffffffffffffffffffffffffff166395d89b416040518163ffffffff1660e01b81526004015f60405180830381865afa158015611d2e573d5f803e3d5ffd5b505050506040513d5f823e3d601f19601f82011682018060405250810190611d5691906138fc565b604051602001611d669190613b4d565b60405160208183030381529060405290611db6576040517f08c379a0000000000000000000000000000000000000000000000000000000008152600401611dad9190613b90565b60405180910390fd5b505f805f80611dc36122d1565b93509350935093505f84118015611dd957505f83115b8015611de457505f81115b611e23576040517f08c379a0000000000000000000000000000000000000000000000000000000008152600401611e1a90613bfa565b60405180910390fd5b5f611e2f8786866125e9565b90508060045f828254611e429190613c18565b925050819055508060035f828254611e5a9190613c18565b925050819055508660025f828254611e729190613c18565b925050819055505f4290508088837fb5aeb7b225999adc33232be2121afb1a366c15108c1da745d17fd76108172fe48989888a604051611eb59493929190613c4b565b60405180910390a4611f0a33308a7f000000000000000000000000000000000000000000000000000000000000000073ffffffffffffffffffffffffffffffffffffffff16612616909392919063ffffffff16565b611f138861269f565b5060019650505050505050919050565b611f2b611fa5565b5f73ffffffffffffffffffffffffffffffffffffffff168173ffffffffffffffffffffffffffffffffffffffff1603611f99576040517f08c379a0000000000000000000000000000000000000000000000000000000008152600401611f9090613d05565b60405180910390fd5b611fa281612177565b50565b611fad6127d1565b73ffffffffffffffffffffffffffffffffffffffff16611fcb61117b565b73ffffffffffffffffffffffffffffffffffffffff1614612021576040517f08c379a000000000000000000000000000000000000000000000000000000000815260040161201890613d6d565b60405180910390fd5b565b61202b610e5c565b61206a576040517f08c379a000000000000000000000000000000000000000000000000000000000815260040161206190613dd5565b60405180910390fd5b565b612074612023565b5f805f6101000a81548160ff0219169083151502179055507f5db9ee0a495bf2e6ff9c91a7834c1ba4fdd244a5e8aa4e537bd38aeae4b073aa6120b56127d1565b6040516120c29190612dcb565b60405180910390a1565b6120d4610e5c565b15612114576040517f08c379a000000000000000000000000000000000000000000000000000000000815260040161210b90613e3d565b60405180910390fd5b565b61211e6120cc565b60015f806101000a81548160ff0219169083151502179055507f62e78cea01bee320cd4e420270b5ea74000d11b0c9f74754ebdbfc544b05a2586121606127d1565b60405161216d9190612dcb565b60405180910390a1565b5f8060019054906101000a900473ffffffffffffffffffffffffffffffffffffffff169050815f60016101000a81548173ffffffffffffffffffffffffffffffffffffffff021916908373ffffffffffffffffffffffffffffffffffffffff1602179055508173ffffffffffffffffffffffffffffffffffffffff168173ffffffffffffffffffffffffffffffffffffffff167f8be0079c531659141344cd1fd0a4f28419497f9722a3daafe3b4186f6b6457e060405160405180910390a35050565b606080600160149054906101000a900460ff1661228f576040518060400160405280600c81526020017f41676772656761746f72563300000000000000000000000000000000000000008152509050806122c9565b6040518060400160405280600481526020017f506f6f6c000000000000000000000000000000000000000000000000000000008152509050805b508091505090565b5f8060605f600160149054906101000a900460ff161561239857600160149054906101000a900460ff16801561235457505f73ffffffffffffffffffffffffffffffffffffffff1660065f9054906101000a900473ffffffffffffffffffffffffffffffffffffffff1673ffffffffffffffffffffffffffffffffffffffff1614155b612393576040517f08c379a000000000000000000000000000000000000000000000000000000000815260040161238a90613a1b565b60405180910390fd5b612442565b600160149054906101000a900460ff1615801561240257505f73ffffffffffffffffffffffffffffffffffffffff1660055f9054906101000a900473ffffffffffffffffffffffffffffffffffffffff1673ffffffffffffffffffffffffffffffffffffffff1614155b612441576040517f08c379a0000000000000000000000000000000000000000000000000000000008152600401612438906139b3565b60405180910390fd5b5b5f805f80600160149054906101000a900460ff16156124f25760065f9054906101000a900473ffffffffffffffffffffffffffffffffffffffff1673ffffffffffffffffffffffffffffffffffffffff166385096edc6040518163ffffffff1660e01b81526004015f604051808303815f875af11580156124c5573d5f803e3d5ffd5b505050506040513d5f823e3d601f19601f820116820180604052508101906124ed9190613e5b565b612585565b60055f9054906101000a900473ffffffffffffffffffffffffffffffffffffffff1673ffffffffffffffffffffffffffffffffffffffff1663e1e7ff776040518163ffffffff1660e01b81526004015f604051808303815f875af115801561255c573d5f803e3d5ffd5b505050506040513d5f823e3d601f19601f820116820180604052508101906125849190613e5b565b5b93509350935093507ff533c7ebcab9ca95557310f62aa7ad41d3a6b17aebec7762b994ef1a14863865848484846125ba61223a565b6040516125cb959493929190613edb565b60405180910390a18383838397509750975097505050505090919293565b5f81600a6125f791906136fa565b83856126039190613744565b61260d91906137b2565b90509392505050565b612699846323b872dd60e01b85858560405160240161263793929190613f3a565b604051602081830303815290604052907bffffffffffffffffffffffffffffffffffffffffffffffffffffffff19166020820180517bffffffffffffffffffffffffffffffffffffffffffffffffffffffff83818316178352505050506127d8565b50505050565b5f8082116126e2576040517f08c379a00000000000000000000000000000000000000000000000000000000081526004016126d990613fb9565b60405180910390fd5b5f6126eb611050565b90507f000000000000000000000000000000000000000000000000000000000000000073ffffffffffffffffffffffffffffffffffffffff166342966c68846040518263ffffffff1660e01b81526004016127469190612b98565b5f604051808303815f87803b15801561275d575f80fd5b505af115801561276f573d5f803e3d5ffd5b50505050828161277f91906130a6565b612787611050565b146127c7576040517f08c379a00000000000000000000000000000000000000000000000000000000081526004016127be90614047565b60405180910390fd5b6001915050919050565b5f33905090565b5f612839826040518060400160405280602081526020017f5361666545524332303a206c6f772d6c6576656c2063616c6c206661696c65648152508573ffffffffffffffffffffffffffffffffffffffff1661289d9092919063ffffffff16565b90505f81511115612898578080602001905181019061285891906134d3565b612897576040517f08c379a000000000000000000000000000000000000000000000000000000000815260040161288e906140d5565b60405180910390fd5b5b505050565b60606128ab84845f856128b4565b90509392505050565b6060824710156128f9576040517f08c379a00000000000000000000000000000000000000000000000000000000081526004016128f090614163565b60405180910390fd5b612902856129c4565b612941576040517f08c379a0000000000000000000000000000000000000000000000000000000008152600401612938906141cb565b60405180910390fd5b5f808673ffffffffffffffffffffffffffffffffffffffff168587604051612969919061422d565b5f6040518083038185875af1925050503d805f81146129a3576040519150601f19603f3d011682016040523d82523d5f602084013e6129a8565b606091505b50915091506129b88282866129e6565b92505050949350505050565b5f808273ffffffffffffffffffffffffffffffffffffffff163b119050919050565b606083156129f657829050612a45565b5f83511115612a085782518084602001fd5b816040517f08c379a0000000000000000000000000000000000000000000000000000000008152600401612a3c9190613b90565b60405180910390fd5b9392505050565b5f604051905090565b5f80fd5b5f80fd5b5f819050919050565b612a6f81612a5d565b8114612a79575f80fd5b50565b5f81359050612a8a81612a66565b92915050565b5f73ffffffffffffffffffffffffffffffffffffffff82169050919050565b5f612ab982612a90565b9050919050565b612ac981612aaf565b8114612ad3575f80fd5b50565b5f81359050612ae481612ac0565b92915050565b5f8060408385031215612b0057612aff612a55565b5b5f612b0d85828601612a7c565b9250506020612b1e85828601612ad6565b9150509250929050565b5f60208284031215612b3d57612b3c612a55565b5b5f612b4a84828501612ad6565b91505092915050565b612b5c81612aaf565b82525050565b5f604082019050612b755f830185612b53565b612b826020830184612b53565b9392505050565b612b9281612a5d565b82525050565b5f602082019050612bab5f830184612b89565b92915050565b5f8115159050919050565b612bc581612bb1565b82525050565b5f602082019050612bde5f830184612bbc565b92915050565b5f80fd5b5f80fd5b5f80fd5b5f8083601f840112612c0557612c04612be4565b5b8235905067ffffffffffffffff811115612c2257612c21612be8565b5b602083019150836020820283011115612c3e57612c3d612bec565b5b9250929050565b5f8083601f840112612c5a57612c59612be4565b5b8235905067ffffffffffffffff811115612c7757612c76612be8565b5b602083019150836020820283011115612c9357612c92612bec565b5b9250929050565b5f805f805f60608688031215612cb357612cb2612a55565b5b5f612cc088828901612a7c565b955050602086013567ffffffffffffffff811115612ce157612ce0612a59565b5b612ced88828901612bf0565b9450945050604086013567ffffffffffffffff811115612d1057612d0f612a59565b5b612d1c88828901612c45565b92509250509295509295909350565b5f805f60608486031215612d4257612d41612a55565b5b5f612d4f86828701612ad6565b9350506020612d6086828701612ad6565b9250506040612d7186828701612a7c565b9150509250925092565b5f805f60608486031215612d9257612d91612a55565b5b5f612d9f86828701612a7c565b9350506020612db086828701612a7c565b9250506040612dc186828701612a7c565b9150509250925092565b5f602082019050612dde5f830184612b53565b92915050565b5f81519050919050565b5f82825260208201905092915050565b5f5b83811015612e1b578082015181840152602081019050612e00565b5f8484015250505050565b5f601f19601f8301169050919050565b5f612e4082612de4565b612e4a8185612dee565b9350612e5a818560208601612dfe565b612e6381612e26565b840191505092915050565b5f604082019050612e815f830185612b53565b8181036020830152612e938184612e36565b90509392505050565b5f6040820190508181035f830152612eb48185612e36565b9050612ec36020830184612b53565b9392505050565b5f60208284031215612edf57612ede612a55565b5b5f612eec84828501612a7c565b91505092915050565b7f4e6f7420616374697661746564210000000000000000000000000000000000005f82015250565b5f612f29600e83612dee565b9150612f3482612ef5565b602082019050919050565b5f6020820190508181035f830152612f5681612f1d565b9050919050565b7f4e6f7420656e6f75676820706f696e74732e2054686520636f6e7472616374205f8201527f6d75737420626520636861726765642077697468206d6f726520746f6b656e73602082015250565b5f612fb7604083612dee565b9150612fc282612f5d565b604082019050919050565b5f6020820190508181035f830152612fe481612fab565b9050919050565b7f57697468647261772076616c7565206d757374206265206772656174657220745f8201527f68616e2030210000000000000000000000000000000000000000000000000000602082015250565b5f613045602683612dee565b915061305082612feb565b604082019050919050565b5f6020820190508181035f83015261307281613039565b9050919050565b7f4e487b71000000000000000000000000000000000000000000000000000000005f52601160045260245ffd5b5f6130b082612a5d565b91506130bb83612a5d565b92508282039050818111156130d3576130d2613079565b5b92915050565b7f4e6f7420417574686f72697a65642100000000000000000000000000000000005f82015250565b5f61310d600f83612dee565b9150613118826130d9565b602082019050919050565b5f6020820190508181035f83015261313a81613101565b9050919050565b7f41637469766174696f6e206e6f7420616c6c6f776564210000000000000000005f82015250565b5f613175601783612dee565b915061318082613141565b602082019050919050565b5f6020820190508181035f8301526131a281613169565b9050919050565b7f416c7265616479206163746976617465642e00000000000000000000000000005f82015250565b5f6131dd601283612dee565b91506131e8826131a9565b602082019050919050565b5f6020820190508181035f83015261320a816131d1565b9050919050565b7f4f6e6c79204f776e6572206f7220417574686f72697a656420706172746963695f8201527f7061746f722063616e206163636573732074686973206f7065726174696f6e21602082015250565b5f61326b604083612dee565b915061327682613211565b604082019050919050565b5f6020820190508181035f8301526132988161325f565b9050919050565b5f82825260208201905092915050565b5f819050919050565b6132c181612aaf565b82525050565b5f6132d283836132b8565b60208301905092915050565b5f6132ec6020840184612ad6565b905092915050565b5f602082019050919050565b5f61330b838561329f565b9350613316826132af565b805f5b8581101561334e5761332b82846132de565b61333588826132c7565b9750613340836132f4565b925050600181019050613319565b5085925050509392505050565b5f82825260208201905092915050565b5f80fd5b82818337505050565b5f613383838561335b565b93507f07ffffffffffffffffffffffffffffffffffffffffffffffffffffffffffffff8311156133b6576133b561336b565b5b6020830292506133c783858461336f565b82840190509392505050565b5f6060820190506133e65f830188612b89565b81810360208301526133f9818688613300565b9050818103604083015261340e818486613378565b90509695505050505050565b7f4e6f7420656e6f7567682062616c616e636521000000000000000000000000005f82015250565b5f61344e601383612dee565b91506134598261341a565b602082019050919050565b5f6020820190508181035f83015261347b81613442565b9050919050565b5f6040820190506134955f830185612b53565b6134a26020830184612b89565b9392505050565b6134b281612bb1565b81146134bc575f80fd5b50565b5f815190506134cd816134a9565b92915050565b5f602082840312156134e8576134e7612a55565b5b5f6134f5848285016134bf565b91505092915050565b5f8151905061350c81612a66565b92915050565b5f6020828403121561352757613526612a55565b5b5f613534848285016134fe565b91505092915050565b7f526174652c20706f696e747320616e6420646563696d616c73206d75737420625f8201527f652067726561746572207468616e207a65726f21000000000000000000000000602082015250565b5f613597603483612dee565b91506135a28261353d565b604082019050919050565b5f6020820190508181035f8301526135c48161358b565b9050919050565b5f8160011c9050919050565b5f808291508390505b6001851115613620578086048111156135fc576135fb613079565b5b600185161561360b5780820291505b8081029050613619856135cb565b94506135e0565b94509492505050565b5f8261363857600190506136f3565b81613645575f90506136f3565b816001811461365b576002811461366557613694565b60019150506136f3565b60ff84111561367757613676613079565b5b8360020a91508482111561368e5761368d613079565b5b506136f3565b5060208310610133831016604e8410600b84101617156136c95782820a9050838111156136c4576136c3613079565b5b6136f3565b6136d684848460016135d7565b925090508184048111156136ed576136ec613079565b5b81810290505b9392505050565b5f61370482612a5d565b915061370f83612a5d565b925061373c7fffffffffffffffffffffffffffffffffffffffffffffffffffffffffffffffff8484613629565b905092915050565b5f61374e82612a5d565b915061375983612a5d565b925082820261376781612a5d565b9150828204841483151761377e5761377d613079565b5b5092915050565b7f4e487b71000000000000000000000000000000000000000000000000000000005f52601260045260245ffd5b5f6137bc82612a5d565b91506137c783612a5d565b9250826137d7576137d6613785565b5b828204905092915050565b5f80fd5b7f4e487b71000000000000000000000000000000000000000000000000000000005f52604160045260245ffd5b61381c82612e26565b810181811067ffffffffffffffff8211171561383b5761383a6137e6565b5b80604052505050565b5f61384d612a4c565b90506138598282613813565b919050565b5f67ffffffffffffffff821115613878576138776137e6565b5b61388182612e26565b9050602081019050919050565b5f6138a061389b8461385e565b613844565b9050828152602081018484840111156138bc576138bb6137e2565b5b6138c7848285612dfe565b509392505050565b5f82601f8301126138e3576138e2612be4565b5b81516138f384826020860161388e565b91505092915050565b5f6020828403121561391157613910612a55565b5b5f82015167ffffffffffffffff81111561392e5761392d612a59565b5b61393a848285016138cf565b91505092915050565b7f41676772656761746f72436f6e73756d6572206973206e6f7420696e697469615f8201527f6c697a6564210000000000000000000000000000000000000000000000000000602082015250565b5f61399d602683612dee565b91506139a882613943565b604082019050919050565b5f6020820190508181035f8301526139ca81613991565b9050919050565b7f506f6f6c436f6e73756d6572206973206e6f7420696e697469616c697a6564215f82015250565b5f613a05602083612dee565b9150613a10826139d1565b602082019050919050565b5f6020820190508181035f830152613a32816139f9565b9050919050565b7f4e6f2063686172676520616d6f756e74210000000000000000000000000000005f82015250565b5f613a6d601183612dee565b9150613a7882613a39565b602082019050919050565b5f6020820190508181035f830152613a9a81613a61565b9050919050565b7f436865636b207468652000000000000000000000000000000000000000000000815250565b5f81905092915050565b5f613adb82612de4565b613ae58185613ac7565b9350613af5818560208601612dfe565b80840191505092915050565b7f20746f6b656e2000000000000000000000000000000000000000000000000000815250565b7f616c6c6f77616e63652100000000000000000000000000000000000000000000815250565b5f613b5782613aa1565b600a82019150613b678284613ad1565b9150613b7282613b01565b600782019150613b8182613b27565b600a8201915081905092915050565b5f6020820190508181035f830152613ba88184612e36565b905092915050565b7f72617465206572726f72210000000000000000000000000000000000000000005f82015250565b5f613be4600b83612dee565b9150613bef82613bb0565b602082019050919050565b5f6020820190508181035f830152613c1181613bd8565b9050919050565b5f613c2282612a5d565b9150613c2d83612a5d565b9250828201905080821115613c4557613c44613079565b5b92915050565b5f608082019050613c5e5f830187612b89565b613c6b6020830186612b89565b613c786040830185612b89565b8181036060830152613c8a8184612e36565b905095945050505050565b7f4f776e61626c653a206e6577206f776e657220697320746865207a65726f20615f8201527f6464726573730000000000000000000000000000000000000000000000000000602082015250565b5f613cef602683612dee565b9150613cfa82613c95565b604082019050919050565b5f6020820190508181035f830152613d1c81613ce3565b9050919050565b7f4f776e61626c653a2063616c6c6572206973206e6f7420746865206f776e65725f82015250565b5f613d57602083612dee565b9150613d6282613d23565b602082019050919050565b5f6020820190508181035f830152613d8481613d4b565b9050919050565b7f5061757361626c653a206e6f74207061757365640000000000000000000000005f82015250565b5f613dbf601483612dee565b9150613dca82613d8b565b602082019050919050565b5f6020820190508181035f830152613dec81613db3565b9050919050565b7f5061757361626c653a20706175736564000000000000000000000000000000005f82015250565b5f613e27601083612dee565b9150613e3282613df3565b602082019050919050565b5f6020820190508181035f830152613e5481613e1b565b9050919050565b5f805f8060808587031215613e7357613e72612a55565b5b5f613e80878288016134fe565b9450506020613e91878288016134fe565b935050604085015167ffffffffffffffff811115613eb257613eb1612a59565b5b613ebe878288016138cf565b9250506060613ecf878288016134fe565b91505092959194509250565b5f60a082019050613eee5f830188612b89565b613efb6020830187612b89565b8181036040830152613f0d8186612e36565b9050613f1c6060830185612b89565b8181036080830152613f2e8184612e36565b90509695505050505050565b5f606082019050613f4d5f830186612b53565b613f5a6020830185612b53565b613f676040830184612b89565b949350505050565b7f4e6f20746f6b656e7320746f206265206275726e6564210000000000000000005f82015250565b5f613fa3601783612dee565b9150613fae82613f6f565b602082019050919050565b5f6020820190508181035f830152613fd081613f97565b9050919050565b7f7472616e73616374696f6e207265766572746564206275726e20756e737563635f8201527f657366756c6c2100000000000000000000000000000000000000000000000000602082015250565b5f614031602783612dee565b915061403c82613fd7565b604082019050919050565b5f6020820190508181035f83015261405e81614025565b9050919050565b7f5361666545524332303a204552433230206f7065726174696f6e20646964206e5f8201527f6f74207375636365656400000000000000000000000000000000000000000000602082015250565b5f6140bf602a83612dee565b91506140ca82614065565b604082019050919050565b5f6020820190508181035f8301526140ec816140b3565b9050919050565b7f416464726573733a20696e73756666696369656e742062616c616e636520666f5f8201527f722063616c6c0000000000000000000000000000000000000000000000000000602082015250565b5f61414d602683612dee565b9150614158826140f3565b604082019050919050565b5f6020820190508181035f83015261417a81614141565b9050919050565b7f416464726573733a2063616c6c20746f206e6f6e2d636f6e74726163740000005f82015250565b5f6141b5601d83612dee565b91506141c082614181565b602082019050919050565b5f6020820190508181035f8301526141e2816141a9565b9050919050565b5f81519050919050565b5f81905092915050565b5f614207826141e9565b61421181856141f3565b9350614221818560208601612dfe565b80840191505092915050565b5f61423882846141fd565b91508190509291505056fea26469706673582212201a8ff797fa9cff1ece7e7bfe59a7e5f471b316a9db5eac64074a2ae36b0af4f364736f6c63430008170033",
					"opcodes": "PUSH1 0xC0 PUSH1 0x40 MSTORE PUSH1 0x1 DUP1 PUSH1 0x14 PUSH2 0x100 EXP DUP2 SLOAD DUP2 PUSH1 0xFF MUL NOT AND SWAP1 DUP4 ISZERO ISZERO MUL OR SWAP1 SSTORE POP PUSH0 PUSH1 0x2 SSTORE PUSH0 PUSH1 0x3 SSTORE PUSH0 PUSH1 0x4 SSTORE CALLVALUE DUP1 ISZERO PUSH3 0x36 JUMPI PUSH0 DUP1 REVERT JUMPDEST POP PUSH1 0x40 MLOAD PUSH3 0x457C CODESIZE SUB DUP1 PUSH3 0x457C DUP4 CODECOPY DUP2 DUP2 ADD PUSH1 0x40 MSTORE DUP2 ADD SWAP1 PUSH3 0x5C SWAP2 SWAP1 PUSH3 0x26B JUMP JUMPDEST PUSH0 DUP1 PUSH0 PUSH2 0x100 EXP DUP2 SLOAD DUP2 PUSH1 0xFF MUL NOT AND SWAP1 DUP4 ISZERO ISZERO MUL OR SWAP1 SSTORE POP PUSH3 0x94 PUSH3 0x88 PUSH3 0x13C PUSH1 0x20 SHL PUSH1 0x20 SHR JUMP JUMPDEST PUSH3 0x143 PUSH1 0x20 SHL PUSH1 0x20 SHR JUMP JUMPDEST PUSH0 PUSH20 0xFFFFFFFFFFFFFFFFFFFFFFFFFFFFFFFFFFFFFFFF AND DUP2 PUSH20 0xFFFFFFFFFFFFFFFFFFFFFFFFFFFFFFFFFFFFFFFF AND SUB PUSH3 0xCC JUMPI PUSH0 DUP1 REVERT JUMPDEST DUP1 PUSH20 0xFFFFFFFFFFFFFFFFFFFFFFFFFFFFFFFFFFFFFFFF AND PUSH1 0x80 DUP2 PUSH20 0xFFFFFFFFFFFFFFFFFFFFFFFFFFFFFFFFFFFFFFFF AND DUP2 MSTORE POP POP DUP2 PUSH20 0xFFFFFFFFFFFFFFFFFFFFFFFFFFFFFFFFFFFFFFFF AND PUSH1 0xA0 DUP2 PUSH20 0xFFFFFFFFFFFFFFFFFFFFFFFFFFFFFFFFFFFFFFFF AND DUP2 MSTORE POP POP POP POP PUSH3 0x2B0 JUMP JUMPDEST PUSH0 CALLER SWAP1 POP SWAP1 JUMP JUMPDEST PUSH0 DUP1 PUSH1 0x1 SWAP1 SLOAD SWAP1 PUSH2 0x100 EXP SWAP1 DIV PUSH20 0xFFFFFFFFFFFFFFFFFFFFFFFFFFFFFFFFFFFFFFFF AND SWAP1 POP DUP2 PUSH0 PUSH1 0x1 PUSH2 0x100 EXP DUP2 SLOAD DUP2 PUSH20 0xFFFFFFFFFFFFFFFFFFFFFFFFFFFFFFFFFFFFFFFF MUL NOT AND SWAP1 DUP4 PUSH20 0xFFFFFFFFFFFFFFFFFFFFFFFFFFFFFFFFFFFFFFFF AND MUL OR SWAP1 SSTORE POP DUP2 PUSH20 0xFFFFFFFFFFFFFFFFFFFFFFFFFFFFFFFFFFFFFFFF AND DUP2 PUSH20 0xFFFFFFFFFFFFFFFFFFFFFFFFFFFFFFFFFFFFFFFF AND PUSH32 0x8BE0079C531659141344CD1FD0A4F28419497F9722A3DAAFE3B4186F6B6457E0 PUSH1 0x40 MLOAD PUSH1 0x40 MLOAD DUP1 SWAP2 SUB SWAP1 LOG3 POP POP JUMP JUMPDEST PUSH0 DUP1 REVERT JUMPDEST PUSH0 PUSH20 0xFFFFFFFFFFFFFFFFFFFFFFFFFFFFFFFFFFFFFFFF DUP3 AND SWAP1 POP SWAP2 SWAP1 POP JUMP JUMPDEST PUSH0 PUSH3 0x235 DUP3 PUSH3 0x20A JUMP JUMPDEST SWAP1 POP SWAP2 SWAP1 POP JUMP JUMPDEST PUSH3 0x247 DUP2 PUSH3 0x229 JUMP JUMPDEST DUP2 EQ PUSH3 0x252 JUMPI PUSH0 DUP1 REVERT JUMPDEST POP JUMP JUMPDEST PUSH0 DUP2 MLOAD SWAP1 POP PUSH3 0x265 DUP2 PUSH3 0x23C JUMP JUMPDEST SWAP3 SWAP2 POP POP JUMP JUMPDEST PUSH0 DUP1 PUSH1 0x40 DUP4 DUP6 SUB SLT ISZERO PUSH3 0x284 JUMPI PUSH3 0x283 PUSH3 0x206 JUMP JUMPDEST JUMPDEST PUSH0 PUSH3 0x293 DUP6 DUP3 DUP7 ADD PUSH3 0x255 JUMP JUMPDEST SWAP3 POP POP PUSH1 0x20 PUSH3 0x2A6 DUP6 DUP3 DUP7 ADD PUSH3 0x255 JUMP JUMPDEST SWAP2 POP POP SWAP3 POP SWAP3 SWAP1 POP JUMP JUMPDEST PUSH1 0x80 MLOAD PUSH1 0xA0 MLOAD PUSH2 0x4279 PUSH3 0x303 PUSH0 CODECOPY PUSH0 DUP2 DUP2 PUSH2 0x1053 ADD MSTORE DUP2 DUP2 PUSH2 0x13D6 ADD MSTORE DUP2 DUP2 PUSH2 0x1737 ADD MSTORE DUP2 DUP2 PUSH2 0x1758 ADD MSTORE DUP2 DUP2 PUSH2 0x1CC8 ADD MSTORE DUP2 DUP2 PUSH2 0x1EC5 ADD MSTORE PUSH2 0x26EF ADD MSTORE PUSH0 DUP2 DUP2 PUSH2 0x923 ADD MSTORE PUSH2 0x98D ADD MSTORE PUSH2 0x4279 PUSH0 RETURN INVALID PUSH1 0x80 PUSH1 0x40 MSTORE CALLVALUE DUP1 ISZERO PUSH2 0xF JUMPI PUSH0 DUP1 REVERT JUMPDEST POP PUSH1 0x4 CALLDATASIZE LT PUSH2 0x18B JUMPI PUSH0 CALLDATALOAD PUSH1 0xE0 SHR DUP1 PUSH4 0x722713F7 GT PUSH2 0xDC JUMPI DUP1 PUSH4 0xABB1DC44 GT PUSH2 0x95 JUMPI DUP1 PUSH4 0xE6367EBE GT PUSH2 0x6F JUMPI DUP1 PUSH4 0xE6367EBE EQ PUSH2 0x401 JUMPI DUP1 PUSH4 0xE8088766 EQ PUSH2 0x420 JUMPI DUP1 PUSH4 0xED969C84 EQ PUSH2 0x42A JUMPI DUP1 PUSH4 0xF2FDE38B EQ PUSH2 0x45A JUMPI PUSH2 0x18B JUMP JUMPDEST DUP1 PUSH4 0xABB1DC44 EQ PUSH2 0x396 JUMPI DUP1 PUSH4 0xB0B5E39E EQ PUSH2 0x3B5 JUMPI DUP1 PUSH4 0xB99152D0 EQ PUSH2 0x3D1 JUMPI PUSH2 0x18B JUMP JUMPDEST DUP1 PUSH4 0x722713F7 EQ PUSH2 0x2D0 JUMPI DUP1 PUSH4 0x7754723E EQ PUSH2 0x2EE JUMPI DUP1 PUSH4 0x8DA5CB5B EQ PUSH2 0x31E JUMPI DUP1 PUSH4 0x8EB89A61 EQ PUSH2 0x33C JUMPI DUP1 PUSH4 0x9405DE64 EQ PUSH2 0x35A JUMPI DUP1 PUSH4 0xA684AB5C EQ PUSH2 0x378 JUMPI PUSH2 0x18B JUMP JUMPDEST DUP1 PUSH4 0xF15F4C0 GT PUSH2 0x149 JUMPI DUP1 PUSH4 0x5C975ABB GT PUSH2 0x123 JUMPI DUP1 PUSH4 0x5C975ABB EQ PUSH2 0x248 JUMPI DUP1 PUSH4 0x615ADCB4 EQ PUSH2 0x266 JUMPI DUP1 PUSH4 0x6A9D43DD EQ PUSH2 0x296 JUMPI DUP1 PUSH4 0x715018A6 EQ PUSH2 0x2C6 JUMPI PUSH2 0x18B JUMP JUMPDEST DUP1 PUSH4 0xF15F4C0 EQ PUSH2 0x216 JUMPI DUP1 PUSH4 0x2AF0E251 EQ PUSH2 0x220 JUMPI DUP1 PUSH4 0x51B42B00 EQ PUSH2 0x23E JUMPI PUSH2 0x18B JUMP JUMPDEST DUP1 PUSH3 0xF714CE EQ PUSH2 0x18F JUMPI DUP1 PUSH4 0x46F7DA2 EQ PUSH2 0x1AB JUMPI DUP1 PUSH4 0x7DA68F5 EQ PUSH2 0x1B5 JUMPI DUP1 PUSH4 0xA6CB062 EQ PUSH2 0x1BF JUMPI DUP1 PUSH4 0xBA2F1D8 EQ PUSH2 0x1DB JUMPI DUP1 PUSH4 0xF0CCF61 EQ PUSH2 0x1F7 JUMPI JUMPDEST PUSH0 DUP1 REVERT JUMPDEST PUSH2 0x1A9 PUSH1 0x4 DUP1 CALLDATASIZE SUB DUP2 ADD SWAP1 PUSH2 0x1A4 SWAP2 SWAP1 PUSH2 0x2AEA JUMP JUMPDEST PUSH2 0x476 JUMP JUMPDEST STOP JUMPDEST PUSH2 0x1B3 PUSH2 0x5FF JUMP JUMPDEST STOP JUMPDEST PUSH2 0x1BD PUSH2 0x619 JUMP JUMPDEST STOP JUMPDEST PUSH2 0x1D9 PUSH1 0x4 DUP1 CALLDATASIZE SUB DUP2 ADD SWAP1 PUSH2 0x1D4 SWAP2 SWAP1 PUSH2 0x2B28 JUMP JUMPDEST PUSH2 0x633 JUMP JUMPDEST STOP JUMPDEST PUSH2 0x1F5 PUSH1 0x4 DUP1 CALLDATASIZE SUB DUP2 ADD SWAP1 PUSH2 0x1F0 SWAP2 SWAP1 PUSH2 0x2B28 JUMP JUMPDEST PUSH2 0x6B5 JUMP JUMPDEST STOP JUMPDEST PUSH2 0x1FF PUSH2 0x890 JUMP JUMPDEST PUSH1 0x40 MLOAD PUSH2 0x20D SWAP3 SWAP2 SWAP1 PUSH2 0x2B62 JUMP JUMPDEST PUSH1 0x40 MLOAD DUP1 SWAP2 SUB SWAP1 RETURN JUMPDEST PUSH2 0x21E PUSH2 0x96C JUMP JUMPDEST STOP JUMPDEST PUSH2 0x228 PUSH2 0xB42 JUMP JUMPDEST PUSH1 0x40 MLOAD PUSH2 0x235 SWAP2 SWAP1 PUSH2 0x2B98 JUMP JUMPDEST PUSH1 0x40 MLOAD DUP1 SWAP2 SUB SWAP1 RETURN JUMPDEST PUSH2 0x246 PUSH2 0xCA6 JUMP JUMPDEST STOP JUMPDEST PUSH2 0x250 PUSH2 0xE5C JUMP JUMPDEST PUSH1 0x40 MLOAD PUSH2 0x25D SWAP2 SWAP1 PUSH2 0x2BCB JUMP JUMPDEST PUSH1 0x40 MLOAD DUP1 SWAP2 SUB SWAP1 RETURN JUMPDEST PUSH2 0x280 PUSH1 0x4 DUP1 CALLDATASIZE SUB DUP2 ADD SWAP1 PUSH2 0x27B SWAP2 SWAP1 PUSH2 0x2C9A JUMP JUMPDEST PUSH2 0xE70 JUMP JUMPDEST PUSH1 0x40 MLOAD PUSH2 0x28D SWAP2 SWAP1 PUSH2 0x2BCB JUMP JUMPDEST PUSH1 0x40 MLOAD DUP1 SWAP2 SUB SWAP1 RETURN JUMPDEST PUSH2 0x2B0 PUSH1 0x4 DUP1 CALLDATASIZE SUB DUP2 ADD SWAP1 PUSH2 0x2AB SWAP2 SWAP1 PUSH2 0x2D2B JUMP JUMPDEST PUSH2 0xF65 JUMP JUMPDEST PUSH1 0x40 MLOAD PUSH2 0x2BD SWAP2 SWAP1 PUSH2 0x2BCB JUMP JUMPDEST PUSH1 0x40 MLOAD DUP1 SWAP2 SUB SWAP1 RETURN JUMPDEST PUSH2 0x2CE PUSH2 0x103D JUMP JUMPDEST STOP JUMPDEST PUSH2 0x2D8 PUSH2 0x1050 JUMP JUMPDEST PUSH1 0x40 MLOAD PUSH2 0x2E5 SWAP2 SWAP1 PUSH2 0x2B98 JUMP JUMPDEST PUSH1 0x40 MLOAD DUP1 SWAP2 SUB SWAP1 RETURN JUMPDEST PUSH2 0x308 PUSH1 0x4 DUP1 CALLDATASIZE SUB DUP2 ADD SWAP1 PUSH2 0x303 SWAP2 SWAP1 PUSH2 0x2D7B JUMP JUMPDEST PUSH2 0x10EE JUMP JUMPDEST PUSH1 0x40 MLOAD PUSH2 0x315 SWAP2 SWAP1 PUSH2 0x2B98 JUMP JUMPDEST PUSH1 0x40 MLOAD DUP1 SWAP2 SUB SWAP1 RETURN JUMPDEST PUSH2 0x326 PUSH2 0x117B JUMP JUMPDEST PUSH1 0x40 MLOAD PUSH2 0x333 SWAP2 SWAP1 PUSH2 0x2DCB JUMP JUMPDEST PUSH1 0x40 MLOAD DUP1 SWAP2 SUB SWAP1 RETURN JUMPDEST PUSH2 0x344 PUSH2 0x11A3 JUMP JUMPDEST PUSH1 0x40 MLOAD PUSH2 0x351 SWAP2 SWAP1 PUSH2 0x2B98 JUMP JUMPDEST PUSH1 0x40 MLOAD DUP1 SWAP2 SUB SWAP1 RETURN JUMPDEST PUSH2 0x362 PUSH2 0x1307 JUMP JUMPDEST PUSH1 0x40 MLOAD PUSH2 0x36F SWAP2 SWAP1 PUSH2 0x2B98 JUMP JUMPDEST PUSH1 0x40 MLOAD DUP1 SWAP2 SUB SWAP1 RETURN JUMPDEST PUSH2 0x380 PUSH2 0x1473 JUMP JUMPDEST PUSH1 0x40 MLOAD PUSH2 0x38D SWAP2 SWAP1 PUSH2 0x2B98 JUMP JUMPDEST PUSH1 0x40 MLOAD DUP1 SWAP2 SUB SWAP1 RETURN JUMPDEST PUSH2 0x39E PUSH2 0x15D7 JUMP JUMPDEST PUSH1 0x40 MLOAD PUSH2 0x3AC SWAP3 SWAP2 SWAP1 PUSH2 0x2E6E JUMP JUMPDEST PUSH1 0x40 MLOAD DUP1 SWAP2 SUB SWAP1 RETURN JUMPDEST PUSH2 0x3CF PUSH1 0x4 DUP1 CALLDATASIZE SUB DUP2 ADD SWAP1 PUSH2 0x3CA SWAP2 SWAP1 PUSH2 0x2B28 JUMP JUMPDEST PUSH2 0x17EE JUMP JUMPDEST STOP JUMPDEST PUSH2 0x3EB PUSH1 0x4 DUP1 CALLDATASIZE SUB DUP2 ADD SWAP1 PUSH2 0x3E6 SWAP2 SWAP1 PUSH2 0x2B28 JUMP JUMPDEST PUSH2 0x1870 JUMP JUMPDEST PUSH1 0x40 MLOAD PUSH2 0x3F8 SWAP2 SWAP1 PUSH2 0x2B98 JUMP JUMPDEST PUSH1 0x40 MLOAD DUP1 SWAP2 SUB SWAP1 RETURN JUMPDEST PUSH2 0x409 PUSH2 0x18F8 JUMP JUMPDEST PUSH1 0x40 MLOAD PUSH2 0x417 SWAP3 SWAP2 SWAP1 PUSH2 0x2E9C JUMP JUMPDEST PUSH1 0x40 MLOAD DUP1 SWAP2 SUB SWAP1 RETURN JUMPDEST PUSH2 0x428 PUSH2 0x1975 JUMP JUMPDEST STOP JUMPDEST PUSH2 0x444 PUSH1 0x4 DUP1 CALLDATASIZE SUB DUP2 ADD SWAP1 PUSH2 0x43F SWAP2 SWAP1 PUSH2 0x2ECA JUMP JUMPDEST PUSH2 0x1B15 JUMP JUMPDEST PUSH1 0x40 MLOAD PUSH2 0x451 SWAP2 SWAP1 PUSH2 0x2BCB JUMP JUMPDEST PUSH1 0x40 MLOAD DUP1 SWAP2 SUB SWAP1 RETURN JUMPDEST PUSH2 0x474 PUSH1 0x4 DUP1 CALLDATASIZE SUB DUP2 ADD SWAP1 PUSH2 0x46F SWAP2 SWAP1 PUSH2 0x2B28 JUMP JUMPDEST PUSH2 0x1F23 JUMP JUMPDEST STOP JUMPDEST PUSH2 0x47E PUSH2 0x1FA5 JUMP JUMPDEST PUSH0 PUSH20 0xFFFFFFFFFFFFFFFFFFFFFFFFFFFFFFFFFFFFFFFF AND PUSH1 0x1 PUSH0 SWAP1 SLOAD SWAP1 PUSH2 0x100 EXP SWAP1 DIV PUSH20 0xFFFFFFFFFFFFFFFFFFFFFFFFFFFFFFFFFFFFFFFF AND PUSH20 0xFFFFFFFFFFFFFFFFFFFFFFFFFFFFFFFFFFFFFFFF AND SUB PUSH2 0x50D JUMPI PUSH1 0x40 MLOAD PUSH32 0x8C379A000000000000000000000000000000000000000000000000000000000 DUP2 MSTORE PUSH1 0x4 ADD PUSH2 0x504 SWAP1 PUSH2 0x2F3F JUMP JUMPDEST PUSH1 0x40 MLOAD DUP1 SWAP2 SUB SWAP1 REVERT JUMPDEST PUSH1 0x4 SLOAD DUP3 GT ISZERO PUSH2 0x552 JUMPI PUSH1 0x40 MLOAD PUSH32 0x8C379A000000000000000000000000000000000000000000000000000000000 DUP2 MSTORE PUSH1 0x4 ADD PUSH2 0x549 SWAP1 PUSH2 0x2FCD JUMP JUMPDEST PUSH1 0x40 MLOAD DUP1 SWAP2 SUB SWAP1 REVERT JUMPDEST PUSH0 DUP3 GT PUSH2 0x594 JUMPI PUSH1 0x40 MLOAD PUSH32 0x8C379A000000000000000000000000000000000000000000000000000000000 DUP2 MSTORE PUSH1 0x4 ADD PUSH2 0x58B SWAP1 PUSH2 0x305B JUMP JUMPDEST PUSH1 0x40 MLOAD DUP1 SWAP2 SUB SWAP1 REVERT JUMPDEST DUP1 PUSH20 0xFFFFFFFFFFFFFFFFFFFFFFFFFFFFFFFFFFFFFFFF AND TIMESTAMP PUSH32 0x71EF96C43343734B1D843BB85D52EF329F5E9143E4D35827771E3B0DD90C5F84 DUP5 PUSH1 0x40 MLOAD PUSH2 0x5DB SWAP2 SWAP1 PUSH2 0x2B98 JUMP JUMPDEST PUSH1 0x40 MLOAD DUP1 SWAP2 SUB SWAP1 LOG3 DUP2 PUSH1 0x4 PUSH0 DUP3 DUP3 SLOAD PUSH2 0x5F4 SWAP2 SWAP1 PUSH2 0x30A6 JUMP JUMPDEST SWAP3 POP POP DUP2 SWAP1 SSTORE POP POP POP JUMP JUMPDEST PUSH2 0x607 PUSH2 0x2023 JUMP JUMPDEST PUSH2 0x60F PUSH2 0x1FA5 JUMP JUMPDEST PUSH2 0x617 PUSH2 0x206C JUMP JUMPDEST JUMP JUMPDEST PUSH2 0x621 PUSH2 0x20CC JUMP JUMPDEST PUSH2 0x629 PUSH2 0x1FA5 JUMP JUMPDEST PUSH2 0x631 PUSH2 0x2116 JUMP JUMPDEST JUMP JUMPDEST PUSH2 0x63B PUSH2 0x1FA5 JUMP JUMPDEST PUSH0 PUSH20 0xFFFFFFFFFFFFFFFFFFFFFFFFFFFFFFFFFFFFFFFF AND DUP2 PUSH20 0xFFFFFFFFFFFFFFFFFFFFFFFFFFFFFFFFFFFFFFFF AND SUB PUSH2 0x672 JUMPI PUSH0 DUP1 REVERT JUMPDEST DUP1 PUSH1 0x5 PUSH0 PUSH2 0x100 EXP DUP2 SLOAD DUP2 PUSH20 0xFFFFFFFFFFFFFFFFFFFFFFFFFFFFFFFFFFFFFFFF MUL NOT AND SWAP1 DUP4 PUSH20 0xFFFFFFFFFFFFFFFFFFFFFFFFFFFFFFFFFFFFFFFF AND MUL OR SWAP1 SSTORE POP POP JUMP JUMPDEST PUSH0 PUSH20 0xFFFFFFFFFFFFFFFFFFFFFFFFFFFFFFFFFFFFFFFF AND PUSH1 0x1 PUSH0 SWAP1 SLOAD SWAP1 PUSH2 0x100 EXP SWAP1 DIV PUSH20 0xFFFFFFFFFFFFFFFFFFFFFFFFFFFFFFFFFFFFFFFF AND PUSH20 0xFFFFFFFFFFFFFFFFFFFFFFFFFFFFFFFFFFFFFFFF AND SUB PUSH2 0x744 JUMPI PUSH1 0x40 MLOAD PUSH32 0x8C379A000000000000000000000000000000000000000000000000000000000 DUP2 MSTORE PUSH1 0x4 ADD PUSH2 0x73B SWAP1 PUSH2 0x2F3F JUMP JUMPDEST PUSH1 0x40 MLOAD DUP1 SWAP2 SUB SWAP1 REVERT JUMPDEST PUSH1 0x1 PUSH0 SWAP1 SLOAD SWAP1 PUSH2 0x100 EXP SWAP1 DIV PUSH20 0xFFFFFFFFFFFFFFFFFFFFFFFFFFFFFFFFFFFFFFFF AND PUSH20 0xFFFFFFFFFFFFFFFFFFFFFFFFFFFFFFFFFFFFFFFF AND CALLER PUSH20 0xFFFFFFFFFFFFFFFFFFFFFFFFFFFFFFFFFFFFFFFF AND EQ PUSH2 0x7D3 JUMPI PUSH1 0x40 MLOAD PUSH32 0x8C379A000000000000000000000000000000000000000000000000000000000 DUP2 MSTORE PUSH1 0x4 ADD PUSH2 0x7CA SWAP1 PUSH2 0x3123 JUMP JUMPDEST PUSH1 0x40 MLOAD DUP1 SWAP2 SUB SWAP1 REVERT JUMPDEST PUSH0 PUSH20 0xFFFFFFFFFFFFFFFFFFFFFFFFFFFFFFFFFFFFFFFF AND DUP2 PUSH20 0xFFFFFFFFFFFFFFFFFFFFFFFFFFFFFFFFFFFFFFFF AND SUB PUSH2 0x80A JUMPI PUSH0 DUP1 REVERT JUMPDEST DUP1 PUSH1 0x1 PUSH0 PUSH2 0x100 EXP DUP2 SLOAD DUP2 PUSH20 0xFFFFFFFFFFFFFFFFFFFFFFFFFFFFFFFFFFFFFFFF MUL NOT AND SWAP1 DUP4 PUSH20 0xFFFFFFFFFFFFFFFFFFFFFFFFFFFFFFFFFFFFFFFF AND MUL OR SWAP1 SSTORE POP DUP1 PUSH20 0xFFFFFFFFFFFFFFFFFFFFFFFFFFFFFFFFFFFFFFFF AND PUSH32 0x8BBFEB6E784147166691D407A592A09379BBBD56888A96C54793BCE54BB57523 PUSH1 0x40 MLOAD PUSH1 0x40 MLOAD DUP1 SWAP2 SUB SWAP1 LOG2 POP JUMP JUMPDEST PUSH0 DUP1 PUSH0 PUSH20 0xFFFFFFFFFFFFFFFFFFFFFFFFFFFFFFFFFFFFFFFF AND PUSH1 0x1 PUSH0 SWAP1 SLOAD SWAP1 PUSH2 0x100 EXP SWAP1 DIV PUSH20 0xFFFFFFFFFFFFFFFFFFFFFFFFFFFFFFFFFFFFFFFF AND PUSH20 0xFFFFFFFFFFFFFFFFFFFFFFFFFFFFFFFFFFFFFFFF AND SUB PUSH2 0x921 JUMPI PUSH1 0x40 MLOAD PUSH32 0x8C379A000000000000000000000000000000000000000000000000000000000 DUP2 MSTORE PUSH1 0x4 ADD PUSH2 0x918 SWAP1 PUSH2 0x2F3F JUMP JUMPDEST PUSH1 0x40 MLOAD DUP1 SWAP2 SUB SWAP1 REVERT JUMPDEST PUSH32 0x0 PUSH1 0x1 PUSH0 SWAP1 SLOAD SWAP1 PUSH2 0x100 EXP SWAP1 DIV PUSH20 0xFFFFFFFFFFFFFFFFFFFFFFFFFFFFFFFFFFFFFFFF AND SWAP2 POP SWAP2 POP SWAP1 SWAP2 JUMP JUMPDEST PUSH2 0x974 PUSH2 0x20CC JUMP JUMPDEST CALLER PUSH20 0xFFFFFFFFFFFFFFFFFFFFFFFFFFFFFFFFFFFFFFFF AND PUSH32 0x0 PUSH20 0xFFFFFFFFFFFFFFFFFFFFFFFFFFFFFFFFFFFFFFFF AND EQ PUSH2 0xA02 JUMPI PUSH1 0x40 MLOAD PUSH32 0x8C379A000000000000000000000000000000000000000000000000000000000 DUP2 MSTORE PUSH1 0x4 ADD PUSH2 0x9F9 SWAP1 PUSH2 0x318B JUMP JUMPDEST PUSH1 0x40 MLOAD DUP1 SWAP2 SUB SWAP1 REVERT JUMPDEST PUSH0 PUSH20 0xFFFFFFFFFFFFFFFFFFFFFFFFFFFFFFFFFFFFFFFF AND PUSH1 0x1 PUSH0 SWAP1 SLOAD SWAP1 PUSH2 0x100 EXP SWAP1 DIV PUSH20 0xFFFFFFFFFFFFFFFFFFFFFFFFFFFFFFFFFFFFFFFF AND PUSH20 0xFFFFFFFFFFFFFFFFFFFFFFFFFFFFFFFFFFFFFFFF AND EQ PUSH2 0xA91 JUMPI PUSH1 0x40 MLOAD PUSH32 0x8C379A000000000000000000000000000000000000000000000000000000000 DUP2 MSTORE PUSH1 0x4 ADD PUSH2 0xA88 SWAP1 PUSH2 0x31F3 JUMP JUMPDEST PUSH1 0x40 MLOAD DUP1 SWAP2 SUB SWAP1 REVERT JUMPDEST CALLER PUSH1 0x1 PUSH0 PUSH2 0x100 EXP DUP2 SLOAD DUP2 PUSH20 0xFFFFFFFFFFFFFFFFFFFFFFFFFFFFFFFFFFFFFFFF MUL NOT AND SWAP1 DUP4 PUSH20 0xFFFFFFFFFFFFFFFFFFFFFFFFFFFFFFFFFFFFFFFF AND MUL OR SWAP1 SSTORE POP PUSH1 0x1 PUSH0 SWAP1 SLOAD SWAP1 PUSH2 0x100 EXP SWAP1 DIV PUSH20 0xFFFFFFFFFFFFFFFFFFFFFFFFFFFFFFFFFFFFFFFF AND PUSH20 0xFFFFFFFFFFFFFFFFFFFFFFFFFFFFFFFFFFFFFFFF AND PUSH32 0xFBD0A3F6E9A0DD5F834515748047E83DE8064477489A0A0D6B59C64BBECC992A TIMESTAMP PUSH1 0x40 MLOAD PUSH2 0xB38 SWAP2 SWAP1 PUSH2 0x2B98 JUMP JUMPDEST PUSH1 0x40 MLOAD DUP1 SWAP2 SUB SWAP1 LOG2 JUMP JUMPDEST PUSH0 DUP1 PUSH20 0xFFFFFFFFFFFFFFFFFFFFFFFFFFFFFFFFFFFFFFFF AND PUSH1 0x1 PUSH0 SWAP1 SLOAD SWAP1 PUSH2 0x100 EXP SWAP1 DIV PUSH20 0xFFFFFFFFFFFFFFFFFFFFFFFFFFFFFFFFFFFFFFFF AND PUSH20 0xFFFFFFFFFFFFFFFFFFFFFFFFFFFFFFFFFFFFFFFF AND SUB PUSH2 0xBD2 JUMPI PUSH1 0x40 MLOAD PUSH32 0x8C379A000000000000000000000000000000000000000000000000000000000 DUP2 MSTORE PUSH1 0x4 ADD PUSH2 0xBC9 SWAP1 PUSH2 0x2F3F JUMP JUMPDEST PUSH1 0x40 MLOAD DUP1 SWAP2 SUB SWAP1 REVERT JUMPDEST PUSH1 0x1 PUSH0 SWAP1 SLOAD SWAP1 PUSH2 0x100 EXP SWAP1 DIV PUSH20 0xFFFFFFFFFFFFFFFFFFFFFFFFFFFFFFFFFFFFFFFF AND PUSH20 0xFFFFFFFFFFFFFFFFFFFFFFFFFFFFFFFFFFFFFFFF AND CALLER PUSH20 0xFFFFFFFFFFFFFFFFFFFFFFFFFFFFFFFFFFFFFFFF AND EQ DUP1 PUSH2 0xC5F JUMPI POP PUSH2 0xC30 PUSH2 0x117B JUMP JUMPDEST PUSH20 0xFFFFFFFFFFFFFFFFFFFFFFFFFFFFFFFFFFFFFFFF AND CALLER PUSH20 0xFFFFFFFFFFFFFFFFFFFFFFFFFFFFFFFFFFFFFFFF AND EQ JUMPDEST PUSH2 0xC9E JUMPI PUSH1 0x40 MLOAD PUSH32 0x8C379A000000000000000000000000000000000000000000000000000000000 DUP2 MSTORE PUSH1 0x4 ADD PUSH2 0xC95 SWAP1 PUSH2 0x3281 JUMP JUMPDEST PUSH1 0x40 MLOAD DUP1 SWAP2 SUB SWAP1 REVERT JUMPDEST PUSH1 0x2 SLOAD SWAP1 POP SWAP1 JUMP JUMPDEST PUSH0 PUSH20 0xFFFFFFFFFFFFFFFFFFFFFFFFFFFFFFFFFFFFFFFF AND PUSH1 0x1 PUSH0 SWAP1 SLOAD SWAP1 PUSH2 0x100 EXP SWAP1 DIV PUSH20 0xFFFFFFFFFFFFFFFFFFFFFFFFFFFFFFFFFFFFFFFF AND PUSH20 0xFFFFFFFFFFFFFFFFFFFFFFFFFFFFFFFFFFFFFFFF AND SUB PUSH2 0xD35 JUMPI PUSH1 0x40 MLOAD PUSH32 0x8C379A000000000000000000000000000000000000000000000000000000000 DUP2 MSTORE PUSH1 0x4 ADD PUSH2 0xD2C SWAP1 PUSH2 0x2F3F JUMP JUMPDEST PUSH1 0x40 MLOAD DUP1 SWAP2 SUB SWAP1 REVERT JUMPDEST PUSH1 0x1 PUSH0 SWAP1 SLOAD SWAP1 PUSH2 0x100 EXP SWAP1 DIV PUSH20 0xFFFFFFFFFFFFFFFFFFFFFFFFFFFFFFFFFFFFFFFF AND PUSH20 0xFFFFFFFFFFFFFFFFFFFFFFFFFFFFFFFFFFFFFFFF AND CALLER PUSH20 0xFFFFFFFFFFFFFFFFFFFFFFFFFFFFFFFFFFFFFFFF AND EQ PUSH2 0xDC4 JUMPI PUSH1 0x40 MLOAD PUSH32 0x8C379A000000000000000000000000000000000000000000000000000000000 DUP2 MSTORE PUSH1 0x4 ADD PUSH2 0xDBB SWAP1 PUSH2 0x3123 JUMP JUMPDEST PUSH1 0x40 MLOAD DUP1 SWAP2 SUB SWAP1 REVERT JUMPDEST PUSH2 0xDCC PUSH2 0x20CC JUMP JUMPDEST PUSH0 PUSH1 0x1 PUSH0 PUSH2 0x100 EXP DUP2 SLOAD DUP2 PUSH20 0xFFFFFFFFFFFFFFFFFFFFFFFFFFFFFFFFFFFFFFFF MUL NOT AND SWAP1 DUP4 PUSH20 0xFFFFFFFFFFFFFFFFFFFFFFFFFFFFFFFFFFFFFFFF AND MUL OR SWAP1 SSTORE POP CALLER PUSH20 0xFFFFFFFFFFFFFFFFFFFFFFFFFFFFFFFFFFFFFFFF AND PUSH32 0x13B865880A841DC469B629159FA1E730FEE99568B0DECC6737FD688B36246381 TIMESTAMP PUSH1 0x40 MLOAD PUSH2 0xE52 SWAP2 SWAP1 PUSH2 0x2B98 JUMP JUMPDEST PUSH1 0x40 MLOAD DUP1 SWAP2 SUB SWAP1 LOG2 JUMP JUMPDEST PUSH0 DUP1 PUSH0 SWAP1 SLOAD SWAP1 PUSH2 0x100 EXP SWAP1 DIV PUSH1 0xFF AND SWAP1 POP SWAP1 JUMP JUMPDEST PUSH0 PUSH2 0xE79 PUSH2 0x1FA5 JUMP JUMPDEST PUSH1 0x4 SLOAD DUP7 GT ISZERO PUSH2 0xEBE JUMPI PUSH1 0x40 MLOAD PUSH32 0x8C379A000000000000000000000000000000000000000000000000000000000 DUP2 MSTORE PUSH1 0x4 ADD PUSH2 0xEB5 SWAP1 PUSH2 0x2FCD JUMP JUMPDEST PUSH1 0x40 MLOAD DUP1 SWAP2 SUB SWAP1 REVERT JUMPDEST PUSH0 DUP7 GT PUSH2 0xF00 JUMPI PUSH1 0x40 MLOAD PUSH32 0x8C379A000000000000000000000000000000000000000000000000000000000 DUP2 MSTORE PUSH1 0x4 ADD PUSH2 0xEF7 SWAP1 PUSH2 0x305B JUMP JUMPDEST PUSH1 0x40 MLOAD DUP1 SWAP2 SUB SWAP1 REVERT JUMPDEST TIMESTAMP PUSH32 0xA51BAA456B088B2A3AF4316418CB0348DE6C44F3347CFF948A3D5F5D91E57CD4 DUP8 DUP8 DUP8 DUP8 DUP8 PUSH1 0x40 MLOAD PUSH2 0xF38 SWAP6 SWAP5 SWAP4 SWAP3 SWAP2 SWAP1 PUSH2 0x33D3 JUMP JUMPDEST PUSH1 0x40 MLOAD DUP1 SWAP2 SUB SWAP1 LOG2 DUP6 PUSH1 0x4 PUSH0 DUP3 DUP3 SLOAD PUSH2 0xF51 SWAP2 SWAP1 PUSH2 0x30A6 JUMP JUMPDEST SWAP3 POP POP DUP2 SWAP1 SSTORE POP PUSH1 0x1 SWAP1 POP SWAP6 SWAP5 POP POP POP POP POP JUMP JUMPDEST PUSH0 PUSH2 0xF6E PUSH2 0x1FA5 JUMP JUMPDEST DUP2 PUSH2 0xF78 DUP6 PUSH2 0x1870 JUMP JUMPDEST LT ISZERO PUSH2 0xFB9 JUMPI PUSH1 0x40 MLOAD PUSH32 0x8C379A000000000000000000000000000000000000000000000000000000000 DUP2 MSTORE PUSH1 0x4 ADD PUSH2 0xFB0 SWAP1 PUSH2 0x3464 JUMP JUMPDEST PUSH1 0x40 MLOAD DUP1 SWAP2 SUB SWAP1 REVERT JUMPDEST DUP4 PUSH20 0xFFFFFFFFFFFFFFFFFFFFFFFFFFFFFFFFFFFFFFFF AND PUSH4 0xA9059CBB DUP5 DUP5 PUSH1 0x40 MLOAD DUP4 PUSH4 0xFFFFFFFF AND PUSH1 0xE0 SHL DUP2 MSTORE PUSH1 0x4 ADD PUSH2 0xFF4 SWAP3 SWAP2 SWAP1 PUSH2 0x3482 JUMP JUMPDEST PUSH1 0x20 PUSH1 0x40 MLOAD DUP1 DUP4 SUB DUP2 PUSH0 DUP8 GAS CALL ISZERO DUP1 ISZERO PUSH2 0x1010 JUMPI RETURNDATASIZE PUSH0 DUP1 RETURNDATACOPY RETURNDATASIZE PUSH0 REVERT JUMPDEST POP POP POP POP PUSH1 0x40 MLOAD RETURNDATASIZE PUSH1 0x1F NOT PUSH1 0x1F DUP3 ADD AND DUP3 ADD DUP1 PUSH1 0x40 MSTORE POP DUP2 ADD SWAP1 PUSH2 0x1034 SWAP2 SWAP1 PUSH2 0x34D3 JUMP JUMPDEST SWAP1 POP SWAP4 SWAP3 POP POP POP JUMP JUMPDEST PUSH2 0x1045 PUSH2 0x1FA5 JUMP JUMPDEST PUSH2 0x104E PUSH0 PUSH2 0x2177 JUMP JUMPDEST JUMP JUMPDEST PUSH0 PUSH32 0x0 PUSH20 0xFFFFFFFFFFFFFFFFFFFFFFFFFFFFFFFFFFFFFFFF AND PUSH4 0x70A08231 ADDRESS PUSH1 0x40 MLOAD DUP3 PUSH4 0xFFFFFFFF AND PUSH1 0xE0 SHL DUP2 MSTORE PUSH1 0x4 ADD PUSH2 0x10AA SWAP2 SWAP1 PUSH2 0x2DCB JUMP JUMPDEST PUSH1 0x20 PUSH1 0x40 MLOAD DUP1 DUP4 SUB DUP2 DUP7 GAS STATICCALL ISZERO DUP1 ISZERO PUSH2 0x10C5 JUMPI RETURNDATASIZE PUSH0 DUP1 RETURNDATACOPY RETURNDATASIZE PUSH0 REVERT JUMPDEST POP POP POP POP PUSH1 0x40 MLOAD RETURNDATASIZE PUSH1 0x1F NOT PUSH1 0x1F DUP3 ADD AND DUP3 ADD DUP1 PUSH1 0x40 MSTORE POP DUP2 ADD SWAP1 PUSH2 0x10E9 SWAP2 SWAP1 PUSH2 0x3512 JUMP JUMPDEST SWAP1 POP SWAP1 JUMP JUMPDEST PUSH0 PUSH2 0x10F7 PUSH2 0x1FA5 JUMP JUMPDEST PUSH0 DUP4 GT DUP1 ISZERO PUSH2 0x1105 JUMPI POP PUSH0 DUP5 GT JUMPDEST DUP1 ISZERO PUSH2 0x1110 JUMPI POP PUSH0 DUP3 GT JUMPDEST PUSH2 0x114F JUMPI PUSH1 0x40 MLOAD PUSH32 0x8C379A000000000000000000000000000000000000000000000000000000000 DUP2 MSTORE PUSH1 0x4 ADD PUSH2 0x1146 SWAP1 PUSH2 0x35AD JUMP JUMPDEST PUSH1 0x40 MLOAD DUP1 SWAP2 SUB SWAP1 REVERT JUMPDEST DUP3 DUP3 PUSH1 0xA PUSH2 0x115D SWAP2 SWAP1 PUSH2 0x36FA JUMP JUMPDEST DUP6 PUSH2 0x1168 SWAP2 SWAP1 PUSH2 0x3744 JUMP JUMPDEST PUSH2 0x1172 SWAP2 SWAP1 PUSH2 0x37B2 JUMP JUMPDEST SWAP1 POP SWAP4 SWAP3 POP POP POP JUMP JUMPDEST PUSH0 DUP1 PUSH1 0x1 SWAP1 SLOAD SWAP1 PUSH2 0x100 EXP SWAP1 DIV PUSH20 0xFFFFFFFFFFFFFFFFFFFFFFFFFFFFFFFFFFFFFFFF AND SWAP1 POP SWAP1 JUMP JUMPDEST PUSH0 DUP1 PUSH20 0xFFFFFFFFFFFFFFFFFFFFFFFFFFFFFFFFFFFFFFFF AND PUSH1 0x1 PUSH0 SWAP1 SLOAD SWAP1 PUSH2 0x100 EXP SWAP1 DIV PUSH20 0xFFFFFFFFFFFFFFFFFFFFFFFFFFFFFFFFFFFFFFFF AND PUSH20 0xFFFFFFFFFFFFFFFFFFFFFFFFFFFFFFFFFFFFFFFF AND SUB PUSH2 0x1233 JUMPI PUSH1 0x40 MLOAD PUSH32 0x8C379A000000000000000000000000000000000000000000000000000000000 DUP2 MSTORE PUSH1 0x4 ADD PUSH2 0x122A SWAP1 PUSH2 0x2F3F JUMP JUMPDEST PUSH1 0x40 MLOAD DUP1 SWAP2 SUB SWAP1 REVERT JUMPDEST PUSH1 0x1 PUSH0 SWAP1 SLOAD SWAP1 PUSH2 0x100 EXP SWAP1 DIV PUSH20 0xFFFFFFFFFFFFFFFFFFFFFFFFFFFFFFFFFFFFFFFF AND PUSH20 0xFFFFFFFFFFFFFFFFFFFFFFFFFFFFFFFFFFFFFFFF AND CALLER PUSH20 0xFFFFFFFFFFFFFFFFFFFFFFFFFFFFFFFFFFFFFFFF AND EQ DUP1 PUSH2 0x12C0 JUMPI POP PUSH2 0x1291 PUSH2 0x117B JUMP JUMPDEST PUSH20 0xFFFFFFFFFFFFFFFFFFFFFFFFFFFFFFFFFFFFFFFF AND CALLER PUSH20 0xFFFFFFFFFFFFFFFFFFFFFFFFFFFFFFFFFFFFFFFF AND EQ JUMPDEST PUSH2 0x12FF JUMPI PUSH1 0x40 MLOAD PUSH32 0x8C379A000000000000000000000000000000000000000000000000000000000 DUP2 MSTORE PUSH1 0x4 ADD PUSH2 0x12F6 SWAP1 PUSH2 0x3281 JUMP JUMPDEST PUSH1 0x40 MLOAD DUP1 SWAP2 SUB SWAP1 REVERT JUMPDEST PUSH1 0x4 SLOAD SWAP1 POP SWAP1 JUMP JUMPDEST PUSH0 PUSH1 0x1 PUSH0 SWAP1 SLOAD SWAP1 PUSH2 0x100 EXP SWAP1 DIV PUSH20 0xFFFFFFFFFFFFFFFFFFFFFFFFFFFFFFFFFFFFFFFF AND PUSH20 0xFFFFFFFFFFFFFFFFFFFFFFFFFFFFFFFFFFFFFFFF AND CALLER PUSH20 0xFFFFFFFFFFFFFFFFFFFFFFFFFFFFFFFFFFFFFFFF AND EQ DUP1 PUSH2 0x1395 JUMPI POP PUSH2 0x1366 PUSH2 0x117B JUMP JUMPDEST PUSH20 0xFFFFFFFFFFFFFFFFFFFFFFFFFFFFFFFFFFFFFFFF AND CALLER PUSH20 0xFFFFFFFFFFFFFFFFFFFFFFFFFFFFFFFFFFFFFFFF AND EQ JUMPDEST PUSH2 0x13D4 JUMPI PUSH1 0x40 MLOAD PUSH32 0x8C379A000000000000000000000000000000000000000000000000000000000 DUP2 MSTORE PUSH1 0x4 ADD PUSH2 0x13CB SWAP1 PUSH2 0x3281 JUMP JUMPDEST PUSH1 0x40 MLOAD DUP1 SWAP2 SUB SWAP1 REVERT JUMPDEST PUSH32 0x0 PUSH20 0xFFFFFFFFFFFFFFFFFFFFFFFFFFFFFFFFFFFFFFFF AND PUSH4 0xDD62ED3E CALLER ADDRESS PUSH1 0x40 MLOAD DUP4 PUSH4 0xFFFFFFFF AND PUSH1 0xE0 SHL DUP2 MSTORE PUSH1 0x4 ADD PUSH2 0x142F SWAP3 SWAP2 SWAP1 PUSH2 0x2B62 JUMP JUMPDEST PUSH1 0x20 PUSH1 0x40 MLOAD DUP1 DUP4 SUB DUP2 DUP7 GAS STATICCALL ISZERO DUP1 ISZERO PUSH2 0x144A JUMPI RETURNDATASIZE PUSH0 DUP1 RETURNDATACOPY RETURNDATASIZE PUSH0 REVERT JUMPDEST POP POP POP POP PUSH1 0x40 MLOAD RETURNDATASIZE PUSH1 0x1F NOT PUSH1 0x1F DUP3 ADD AND DUP3 ADD DUP1 PUSH1 0x40 MSTORE POP DUP2 ADD SWAP1 PUSH2 0x146E SWAP2 SWAP1 PUSH2 0x3512 JUMP JUMPDEST SWAP1 POP SWAP1 JUMP JUMPDEST PUSH0 DUP1 PUSH20 0xFFFFFFFFFFFFFFFFFFFFFFFFFFFFFFFFFFFFFFFF AND PUSH1 0x1 PUSH0 SWAP1 SLOAD SWAP1 PUSH2 0x100 EXP SWAP1 DIV PUSH20 0xFFFFFFFFFFFFFFFFFFFFFFFFFFFFFFFFFFFFFFFF AND PUSH20 0xFFFFFFFFFFFFFFFFFFFFFFFFFFFFFFFFFFFFFFFF AND SUB PUSH2 0x1503 JUMPI PUSH1 0x40 MLOAD PUSH32 0x8C379A000000000000000000000000000000000000000000000000000000000 DUP2 MSTORE PUSH1 0x4 ADD PUSH2 0x14FA SWAP1 PUSH2 0x2F3F JUMP JUMPDEST PUSH1 0x40 MLOAD DUP1 SWAP2 SUB SWAP1 REVERT JUMPDEST PUSH1 0x1 PUSH0 SWAP1 SLOAD SWAP1 PUSH2 0x100 EXP SWAP1 DIV PUSH20 0xFFFFFFFFFFFFFFFFFFFFFFFFFFFFFFFFFFFFFFFF AND PUSH20 0xFFFFFFFFFFFFFFFFFFFFFFFFFFFFFFFFFFFFFFFF AND CALLER PUSH20 0xFFFFFFFFFFFFFFFFFFFFFFFFFFFFFFFFFFFFFFFF AND EQ DUP1 PUSH2 0x1590 JUMPI POP PUSH2 0x1561 PUSH2 0x117B JUMP JUMPDEST PUSH20 0xFFFFFFFFFFFFFFFFFFFFFFFFFFFFFFFFFFFFFFFF AND CALLER PUSH20 0xFFFFFFFFFFFFFFFFFFFFFFFFFFFFFFFFFFFFFFFF AND EQ JUMPDEST PUSH2 0x15CF JUMPI PUSH1 0x40 MLOAD PUSH32 0x8C379A000000000000000000000000000000000000000000000000000000000 DUP2 MSTORE PUSH1 0x4 ADD PUSH2 0x15C6 SWAP1 PUSH2 0x3281 JUMP JUMPDEST PUSH1 0x40 MLOAD DUP1 SWAP2 SUB SWAP1 REVERT JUMPDEST PUSH1 0x3 SLOAD SWAP1 POP SWAP1 JUMP JUMPDEST PUSH0 PUSH1 0x60 PUSH0 PUSH20 0xFFFFFFFFFFFFFFFFFFFFFFFFFFFFFFFFFFFFFFFF AND PUSH1 0x1 PUSH0 SWAP1 SLOAD SWAP1 PUSH2 0x100 EXP SWAP1 DIV PUSH20 0xFFFFFFFFFFFFFFFFFFFFFFFFFFFFFFFFFFFFFFFF AND PUSH20 0xFFFFFFFFFFFFFFFFFFFFFFFFFFFFFFFFFFFFFFFF AND SUB PUSH2 0x1669 JUMPI PUSH1 0x40 MLOAD PUSH32 0x8C379A000000000000000000000000000000000000000000000000000000000 DUP2 MSTORE PUSH1 0x4 ADD PUSH2 0x1660 SWAP1 PUSH2 0x2F3F JUMP JUMPDEST PUSH1 0x40 MLOAD DUP1 SWAP2 SUB SWAP1 REVERT JUMPDEST PUSH1 0x1 PUSH0 SWAP1 SLOAD SWAP1 PUSH2 0x100 EXP SWAP1 DIV PUSH20 0xFFFFFFFFFFFFFFFFFFFFFFFFFFFFFFFFFFFFFFFF AND PUSH20 0xFFFFFFFFFFFFFFFFFFFFFFFFFFFFFFFFFFFFFFFF AND CALLER PUSH20 0xFFFFFFFFFFFFFFFFFFFFFFFFFFFFFFFFFFFFFFFF AND EQ DUP1 PUSH2 0x16F6 JUMPI POP PUSH2 0x16C7 PUSH2 0x117B JUMP JUMPDEST PUSH20 0xFFFFFFFFFFFFFFFFFFFFFFFFFFFFFFFFFFFFFFFF AND CALLER PUSH20 0xFFFFFFFFFFFFFFFFFFFFFFFFFFFFFFFFFFFFFFFF AND EQ JUMPDEST PUSH2 0x1735 JUMPI PUSH1 0x40 MLOAD PUSH32 0x8C379A000000000000000000000000000000000000000000000000000000000 DUP2 MSTORE PUSH1 0x4 ADD PUSH2 0x172C SWAP1 PUSH2 0x3281 JUMP JUMPDEST PUSH1 0x40 MLOAD DUP1 SWAP2 SUB SWAP1 REVERT JUMPDEST PUSH32 0x0 PUSH32 0x0 PUSH20 0xFFFFFFFFFFFFFFFFFFFFFFFFFFFFFFFFFFFFFFFF AND PUSH4 0x95D89B41 PUSH1 0x40 MLOAD DUP2 PUSH4 0xFFFFFFFF AND PUSH1 0xE0 SHL DUP2 MSTORE PUSH1 0x4 ADD PUSH0 PUSH1 0x40 MLOAD DUP1 DUP4 SUB DUP2 DUP7 GAS STATICCALL ISZERO DUP1 ISZERO PUSH2 0x17BE JUMPI RETURNDATASIZE PUSH0 DUP1 RETURNDATACOPY RETURNDATASIZE PUSH0 REVERT JUMPDEST POP POP POP POP PUSH1 0x40 MLOAD RETURNDATASIZE PUSH0 DUP3 RETURNDATACOPY RETURNDATASIZE PUSH1 0x1F NOT PUSH1 0x1F DUP3 ADD AND DUP3 ADD DUP1 PUSH1 0x40 MSTORE POP DUP2 ADD SWAP1 PUSH2 0x17E6 SWAP2 SWAP1 PUSH2 0x38FC JUMP JUMPDEST SWAP2 POP SWAP2 POP SWAP1 SWAP2 JUMP JUMPDEST PUSH2 0x17F6 PUSH2 0x1FA5 JUMP JUMPDEST PUSH0 PUSH20 0xFFFFFFFFFFFFFFFFFFFFFFFFFFFFFFFFFFFFFFFF AND DUP2 PUSH20 0xFFFFFFFFFFFFFFFFFFFFFFFFFFFFFFFFFFFFFFFF AND SUB PUSH2 0x182D JUMPI PUSH0 DUP1 REVERT JUMPDEST DUP1 PUSH1 0x6 PUSH0 PUSH2 0x100 EXP DUP2 SLOAD DUP2 PUSH20 0xFFFFFFFFFFFFFFFFFFFFFFFFFFFFFFFFFFFFFFFF MUL NOT AND SWAP1 DUP4 PUSH20 0xFFFFFFFFFFFFFFFFFFFFFFFFFFFFFFFFFFFFFFFF AND MUL OR SWAP1 SSTORE POP POP JUMP JUMPDEST PUSH0 PUSH2 0x1879 PUSH2 0x1FA5 JUMP JUMPDEST DUP2 PUSH20 0xFFFFFFFFFFFFFFFFFFFFFFFFFFFFFFFFFFFFFFFF AND PUSH4 0x70A08231 ADDRESS PUSH1 0x40 MLOAD DUP3 PUSH4 0xFFFFFFFF AND PUSH1 0xE0 SHL DUP2 MSTORE PUSH1 0x4 ADD PUSH2 0x18B2 SWAP2 SWAP1 PUSH2 0x2DCB JUMP JUMPDEST PUSH1 0x20 PUSH1 0x40 MLOAD DUP1 DUP4 SUB DUP2 DUP7 GAS STATICCALL ISZERO DUP1 ISZERO PUSH2 0x18CD JUMPI RETURNDATASIZE PUSH0 DUP1 RETURNDATACOPY RETURNDATASIZE PUSH0 REVERT JUMPDEST POP POP POP POP PUSH1 0x40 MLOAD RETURNDATASIZE PUSH1 0x1F NOT PUSH1 0x1F DUP3 ADD AND DUP3 ADD DUP1 PUSH1 0x40 MSTORE POP DUP2 ADD SWAP1 PUSH2 0x18F1 SWAP2 SWAP1 PUSH2 0x3512 JUMP JUMPDEST SWAP1 POP SWAP2 SWAP1 POP JUMP JUMPDEST PUSH1 0x60 PUSH0 DUP1 PUSH2 0x1904 PUSH2 0x223A JUMP JUMPDEST SWAP1 POP PUSH1 0x1 PUSH1 0x14 SWAP1 SLOAD SWAP1 PUSH2 0x100 EXP SWAP1 DIV PUSH1 0xFF AND ISZERO PUSH2 0x1948 JUMPI DUP1 PUSH1 0x6 PUSH0 SWAP1 SLOAD SWAP1 PUSH2 0x100 EXP SWAP1 DIV PUSH20 0xFFFFFFFFFFFFFFFFFFFFFFFFFFFFFFFFFFFFFFFF AND SWAP3 POP SWAP3 POP POP PUSH2 0x1971 JUMP JUMPDEST DUP1 PUSH1 0x5 PUSH0 SWAP1 SLOAD SWAP1 PUSH2 0x100 EXP SWAP1 DIV PUSH20 0xFFFFFFFFFFFFFFFFFFFFFFFFFFFFFFFFFFFFFFFF AND SWAP3 POP SWAP3 POP POP JUMPDEST SWAP1 SWAP2 JUMP JUMPDEST PUSH2 0x197D PUSH2 0x1FA5 JUMP JUMPDEST PUSH1 0x1 PUSH1 0x14 SWAP1 SLOAD SWAP1 PUSH2 0x100 EXP SWAP1 DIV PUSH1 0xFF AND ISZERO PUSH2 0x1A3F JUMPI PUSH1 0x1 PUSH1 0x14 SWAP1 SLOAD SWAP1 PUSH2 0x100 EXP SWAP1 DIV PUSH1 0xFF AND DUP1 ISZERO PUSH2 0x19FB JUMPI POP PUSH0 PUSH20 0xFFFFFFFFFFFFFFFFFFFFFFFFFFFFFFFFFFFFFFFF AND PUSH1 0x5 PUSH0 SWAP1 SLOAD SWAP1 PUSH2 0x100 EXP SWAP1 DIV PUSH20 0xFFFFFFFFFFFFFFFFFFFFFFFFFFFFFFFFFFFFFFFF AND PUSH20 0xFFFFFFFFFFFFFFFFFFFFFFFFFFFFFFFFFFFFFFFF AND EQ ISZERO JUMPDEST PUSH2 0x1A3A JUMPI PUSH1 0x40 MLOAD PUSH32 0x8C379A000000000000000000000000000000000000000000000000000000000 DUP2 MSTORE PUSH1 0x4 ADD PUSH2 0x1A31 SWAP1 PUSH2 0x39B3 JUMP JUMPDEST PUSH1 0x40 MLOAD DUP1 SWAP2 SUB SWAP1 REVERT JUMPDEST PUSH2 0x1AE9 JUMP JUMPDEST PUSH1 0x1 PUSH1 0x14 SWAP1 SLOAD SWAP1 PUSH2 0x100 EXP SWAP1 DIV PUSH1 0xFF AND ISZERO DUP1 ISZERO PUSH2 0x1AA9 JUMPI POP PUSH0 PUSH20 0xFFFFFFFFFFFFFFFFFFFFFFFFFFFFFFFFFFFFFFFF AND PUSH1 0x6 PUSH0 SWAP1 SLOAD SWAP1 PUSH2 0x100 EXP SWAP1 DIV PUSH20 0xFFFFFFFFFFFFFFFFFFFFFFFFFFFFFFFFFFFFFFFF AND PUSH20 0xFFFFFFFFFFFFFFFFFFFFFFFFFFFFFFFFFFFFFFFF AND EQ ISZERO JUMPDEST PUSH2 0x1AE8 JUMPI PUSH1 0x40 MLOAD PUSH32 0x8C379A000000000000000000000000000000000000000000000000000000000 DUP2 MSTORE PUSH1 0x4 ADD PUSH2 0x1ADF SWAP1 PUSH2 0x3A1B JUMP JUMPDEST PUSH1 0x40 MLOAD DUP1 SWAP2 SUB SWAP1 REVERT JUMPDEST JUMPDEST PUSH1 0x1 PUSH1 0x14 SWAP1 SLOAD SWAP1 PUSH2 0x100 EXP SWAP1 DIV PUSH1 0xFF AND ISZERO PUSH1 0x1 PUSH1 0x14 PUSH2 0x100 EXP DUP2 SLOAD DUP2 PUSH1 0xFF MUL NOT AND SWAP1 DUP4 ISZERO ISZERO MUL OR SWAP1 SSTORE POP JUMP JUMPDEST PUSH0 PUSH2 0x1B1E PUSH2 0x20CC JUMP JUMPDEST PUSH0 PUSH20 0xFFFFFFFFFFFFFFFFFFFFFFFFFFFFFFFFFFFFFFFF AND PUSH1 0x1 PUSH0 SWAP1 SLOAD SWAP1 PUSH2 0x100 EXP SWAP1 DIV PUSH20 0xFFFFFFFFFFFFFFFFFFFFFFFFFFFFFFFFFFFFFFFF AND PUSH20 0xFFFFFFFFFFFFFFFFFFFFFFFFFFFFFFFFFFFFFFFF AND SUB PUSH2 0x1BAD JUMPI PUSH1 0x40 MLOAD PUSH32 0x8C379A000000000000000000000000000000000000000000000000000000000 DUP2 MSTORE PUSH1 0x4 ADD PUSH2 0x1BA4 SWAP1 PUSH2 0x2F3F JUMP JUMPDEST PUSH1 0x40 MLOAD DUP1 SWAP2 SUB SWAP1 REVERT JUMPDEST PUSH1 0x1 PUSH0 SWAP1 SLOAD SWAP1 PUSH2 0x100 EXP SWAP1 DIV PUSH20 0xFFFFFFFFFFFFFFFFFFFFFFFFFFFFFFFFFFFFFFFF AND PUSH20 0xFFFFFFFFFFFFFFFFFFFFFFFFFFFFFFFFFFFFFFFF AND CALLER PUSH20 0xFFFFFFFFFFFFFFFFFFFFFFFFFFFFFFFFFFFFFFFF AND EQ DUP1 PUSH2 0x1C3A JUMPI POP PUSH2 0x1C0B PUSH2 0x117B JUMP JUMPDEST PUSH20 0xFFFFFFFFFFFFFFFFFFFFFFFFFFFFFFFFFFFFFFFF AND CALLER PUSH20 0xFFFFFFFFFFFFFFFFFFFFFFFFFFFFFFFFFFFFFFFF AND EQ JUMPDEST PUSH2 0x1C79 JUMPI PUSH1 0x40 MLOAD PUSH32 0x8C379A000000000000000000000000000000000000000000000000000000000 DUP2 MSTORE PUSH1 0x4 ADD PUSH2 0x1C70 SWAP1 PUSH2 0x3281 JUMP JUMPDEST PUSH1 0x40 MLOAD DUP1 SWAP2 SUB SWAP1 REVERT JUMPDEST PUSH0 DUP3 GT PUSH2 0x1CBB JUMPI PUSH1 0x40 MLOAD PUSH32 0x8C379A000000000000000000000000000000000000000000000000000000000 DUP2 MSTORE PUSH1 0x4 ADD PUSH2 0x1CB2 SWAP1 PUSH2 0x3A83 JUMP JUMPDEST PUSH1 0x40 MLOAD DUP1 SWAP2 SUB SWAP1 REVERT JUMPDEST DUP2 PUSH2 0x1CC4 PUSH2 0x1307 JUMP JUMPDEST LT ISZERO PUSH32 0x0 PUSH20 0xFFFFFFFFFFFFFFFFFFFFFFFFFFFFFFFFFFFFFFFF AND PUSH4 0x95D89B41 PUSH1 0x40 MLOAD DUP2 PUSH4 0xFFFFFFFF AND PUSH1 0xE0 SHL DUP2 MSTORE PUSH1 0x4 ADD PUSH0 PUSH1 0x40 MLOAD DUP1 DUP4 SUB DUP2 DUP7 GAS STATICCALL ISZERO DUP1 ISZERO PUSH2 0x1D2E JUMPI RETURNDATASIZE PUSH0 DUP1 RETURNDATACOPY RETURNDATASIZE PUSH0 REVERT JUMPDEST POP POP POP POP PUSH1 0x40 MLOAD RETURNDATASIZE PUSH0 DUP3 RETURNDATACOPY RETURNDATASIZE PUSH1 0x1F NOT PUSH1 0x1F DUP3 ADD AND DUP3 ADD DUP1 PUSH1 0x40 MSTORE POP DUP2 ADD SWAP1 PUSH2 0x1D56 SWAP2 SWAP1 PUSH2 0x38FC JUMP JUMPDEST PUSH1 0x40 MLOAD PUSH1 0x20 ADD PUSH2 0x1D66 SWAP2 SWAP1 PUSH2 0x3B4D JUMP JUMPDEST PUSH1 0x40 MLOAD PUSH1 0x20 DUP2 DUP4 SUB SUB DUP2 MSTORE SWAP1 PUSH1 0x40 MSTORE SWAP1 PUSH2 0x1DB6 JUMPI PUSH1 0x40 MLOAD PUSH32 0x8C379A000000000000000000000000000000000000000000000000000000000 DUP2 MSTORE PUSH1 0x4 ADD PUSH2 0x1DAD SWAP2 SWAP1 PUSH2 0x3B90 JUMP JUMPDEST PUSH1 0x40 MLOAD DUP1 SWAP2 SUB SWAP1 REVERT JUMPDEST POP PUSH0 DUP1 PUSH0 DUP1 PUSH2 0x1DC3 PUSH2 0x22D1 JUMP JUMPDEST SWAP4 POP SWAP4 POP SWAP4 POP SWAP4 POP PUSH0 DUP5 GT DUP1 ISZERO PUSH2 0x1DD9 JUMPI POP PUSH0 DUP4 GT JUMPDEST DUP1 ISZERO PUSH2 0x1DE4 JUMPI POP PUSH0 DUP2 GT JUMPDEST PUSH2 0x1E23 JUMPI PUSH1 0x40 MLOAD PUSH32 0x8C379A000000000000000000000000000000000000000000000000000000000 DUP2 MSTORE PUSH1 0x4 ADD PUSH2 0x1E1A SWAP1 PUSH2 0x3BFA JUMP JUMPDEST PUSH1 0x40 MLOAD DUP1 SWAP2 SUB SWAP1 REVERT JUMPDEST PUSH0 PUSH2 0x1E2F DUP8 DUP7 DUP7 PUSH2 0x25E9 JUMP JUMPDEST SWAP1 POP DUP1 PUSH1 0x4 PUSH0 DUP3 DUP3 SLOAD PUSH2 0x1E42 SWAP2 SWAP1 PUSH2 0x3C18 JUMP JUMPDEST SWAP3 POP POP DUP2 SWAP1 SSTORE POP DUP1 PUSH1 0x3 PUSH0 DUP3 DUP3 SLOAD PUSH2 0x1E5A SWAP2 SWAP1 PUSH2 0x3C18 JUMP JUMPDEST SWAP3 POP POP DUP2 SWAP1 SSTORE POP DUP7 PUSH1 0x2 PUSH0 DUP3 DUP3 SLOAD PUSH2 0x1E72 SWAP2 SWAP1 PUSH2 0x3C18 JUMP JUMPDEST SWAP3 POP POP DUP2 SWAP1 SSTORE POP PUSH0 TIMESTAMP SWAP1 POP DUP1 DUP9 DUP4 PUSH32 0xB5AEB7B225999ADC33232BE2121AFB1A366C15108C1DA745D17FD76108172FE4 DUP10 DUP10 DUP9 DUP11 PUSH1 0x40 MLOAD PUSH2 0x1EB5 SWAP5 SWAP4 SWAP3 SWAP2 SWAP1 PUSH2 0x3C4B JUMP JUMPDEST PUSH1 0x40 MLOAD DUP1 SWAP2 SUB SWAP1 LOG4 PUSH2 0x1F0A CALLER ADDRESS DUP11 PUSH32 0x0 PUSH20 0xFFFFFFFFFFFFFFFFFFFFFFFFFFFFFFFFFFFFFFFF AND PUSH2 0x2616 SWAP1 SWAP4 SWAP3 SWAP2 SWAP1 PUSH4 0xFFFFFFFF AND JUMP JUMPDEST PUSH2 0x1F13 DUP9 PUSH2 0x269F JUMP JUMPDEST POP PUSH1 0x1 SWAP7 POP POP POP POP POP POP POP SWAP2 SWAP1 POP JUMP JUMPDEST PUSH2 0x1F2B PUSH2 0x1FA5 JUMP JUMPDEST PUSH0 PUSH20 0xFFFFFFFFFFFFFFFFFFFFFFFFFFFFFFFFFFFFFFFF AND DUP2 PUSH20 0xFFFFFFFFFFFFFFFFFFFFFFFFFFFFFFFFFFFFFFFF AND SUB PUSH2 0x1F99 JUMPI PUSH1 0x40 MLOAD PUSH32 0x8C379A000000000000000000000000000000000000000000000000000000000 DUP2 MSTORE PUSH1 0x4 ADD PUSH2 0x1F90 SWAP1 PUSH2 0x3D05 JUMP JUMPDEST PUSH1 0x40 MLOAD DUP1 SWAP2 SUB SWAP1 REVERT JUMPDEST PUSH2 0x1FA2 DUP2 PUSH2 0x2177 JUMP JUMPDEST POP JUMP JUMPDEST PUSH2 0x1FAD PUSH2 0x27D1 JUMP JUMPDEST PUSH20 0xFFFFFFFFFFFFFFFFFFFFFFFFFFFFFFFFFFFFFFFF AND PUSH2 0x1FCB PUSH2 0x117B JUMP JUMPDEST PUSH20 0xFFFFFFFFFFFFFFFFFFFFFFFFFFFFFFFFFFFFFFFF AND EQ PUSH2 0x2021 JUMPI PUSH1 0x40 MLOAD PUSH32 0x8C379A000000000000000000000000000000000000000000000000000000000 DUP2 MSTORE PUSH1 0x4 ADD PUSH2 0x2018 SWAP1 PUSH2 0x3D6D JUMP JUMPDEST PUSH1 0x40 MLOAD DUP1 SWAP2 SUB SWAP1 REVERT JUMPDEST JUMP JUMPDEST PUSH2 0x202B PUSH2 0xE5C JUMP JUMPDEST PUSH2 0x206A JUMPI PUSH1 0x40 MLOAD PUSH32 0x8C379A000000000000000000000000000000000000000000000000000000000 DUP2 MSTORE PUSH1 0x4 ADD PUSH2 0x2061 SWAP1 PUSH2 0x3DD5 JUMP JUMPDEST PUSH1 0x40 MLOAD DUP1 SWAP2 SUB SWAP1 REVERT JUMPDEST JUMP JUMPDEST PUSH2 0x2074 PUSH2 0x2023 JUMP JUMPDEST PUSH0 DUP1 PUSH0 PUSH2 0x100 EXP DUP2 SLOAD DUP2 PUSH1 0xFF MUL NOT AND SWAP1 DUP4 ISZERO ISZERO MUL OR SWAP1 SSTORE POP PUSH32 0x5DB9EE0A495BF2E6FF9C91A7834C1BA4FDD244A5E8AA4E537BD38AEAE4B073AA PUSH2 0x20B5 PUSH2 0x27D1 JUMP JUMPDEST PUSH1 0x40 MLOAD PUSH2 0x20C2 SWAP2 SWAP1 PUSH2 0x2DCB JUMP JUMPDEST PUSH1 0x40 MLOAD DUP1 SWAP2 SUB SWAP1 LOG1 JUMP JUMPDEST PUSH2 0x20D4 PUSH2 0xE5C JUMP JUMPDEST ISZERO PUSH2 0x2114 JUMPI PUSH1 0x40 MLOAD PUSH32 0x8C379A000000000000000000000000000000000000000000000000000000000 DUP2 MSTORE PUSH1 0x4 ADD PUSH2 0x210B SWAP1 PUSH2 0x3E3D JUMP JUMPDEST PUSH1 0x40 MLOAD DUP1 SWAP2 SUB SWAP1 REVERT JUMPDEST JUMP JUMPDEST PUSH2 0x211E PUSH2 0x20CC JUMP JUMPDEST PUSH1 0x1 PUSH0 DUP1 PUSH2 0x100 EXP DUP2 SLOAD DUP2 PUSH1 0xFF MUL NOT AND SWAP1 DUP4 ISZERO ISZERO MUL OR SWAP1 SSTORE POP PUSH32 0x62E78CEA01BEE320CD4E420270B5EA74000D11B0C9F74754EBDBFC544B05A258 PUSH2 0x2160 PUSH2 0x27D1 JUMP JUMPDEST PUSH1 0x40 MLOAD PUSH2 0x216D SWAP2 SWAP1 PUSH2 0x2DCB JUMP JUMPDEST PUSH1 0x40 MLOAD DUP1 SWAP2 SUB SWAP1 LOG1 JUMP JUMPDEST PUSH0 DUP1 PUSH1 0x1 SWAP1 SLOAD SWAP1 PUSH2 0x100 EXP SWAP1 DIV PUSH20 0xFFFFFFFFFFFFFFFFFFFFFFFFFFFFFFFFFFFFFFFF AND SWAP1 POP DUP2 PUSH0 PUSH1 0x1 PUSH2 0x100 EXP DUP2 SLOAD DUP2 PUSH20 0xFFFFFFFFFFFFFFFFFFFFFFFFFFFFFFFFFFFFFFFF MUL NOT AND SWAP1 DUP4 PUSH20 0xFFFFFFFFFFFFFFFFFFFFFFFFFFFFFFFFFFFFFFFF AND MUL OR SWAP1 SSTORE POP DUP2 PUSH20 0xFFFFFFFFFFFFFFFFFFFFFFFFFFFFFFFFFFFFFFFF AND DUP2 PUSH20 0xFFFFFFFFFFFFFFFFFFFFFFFFFFFFFFFFFFFFFFFF AND PUSH32 0x8BE0079C531659141344CD1FD0A4F28419497F9722A3DAAFE3B4186F6B6457E0 PUSH1 0x40 MLOAD PUSH1 0x40 MLOAD DUP1 SWAP2 SUB SWAP1 LOG3 POP POP JUMP JUMPDEST PUSH1 0x60 DUP1 PUSH1 0x1 PUSH1 0x14 SWAP1 SLOAD SWAP1 PUSH2 0x100 EXP SWAP1 DIV PUSH1 0xFF AND PUSH2 0x228F JUMPI PUSH1 0x40 MLOAD DUP1 PUSH1 0x40 ADD PUSH1 0x40 MSTORE DUP1 PUSH1 0xC DUP2 MSTORE PUSH1 0x20 ADD PUSH32 0x41676772656761746F7256330000000000000000000000000000000000000000 DUP2 MSTORE POP SWAP1 POP DUP1 PUSH2 0x22C9 JUMP JUMPDEST PUSH1 0x40 MLOAD DUP1 PUSH1 0x40 ADD PUSH1 0x40 MSTORE DUP1 PUSH1 0x4 DUP2 MSTORE PUSH1 0x20 ADD PUSH32 0x506F6F6C00000000000000000000000000000000000000000000000000000000 DUP2 MSTORE POP SWAP1 POP DUP1 JUMPDEST POP DUP1 SWAP2 POP POP SWAP1 JUMP JUMPDEST PUSH0 DUP1 PUSH1 0x60 PUSH0 PUSH1 0x1 PUSH1 0x14 SWAP1 SLOAD SWAP1 PUSH2 0x100 EXP SWAP1 DIV PUSH1 0xFF AND ISZERO PUSH2 0x2398 JUMPI PUSH1 0x1 PUSH1 0x14 SWAP1 SLOAD SWAP1 PUSH2 0x100 EXP SWAP1 DIV PUSH1 0xFF AND DUP1 ISZERO PUSH2 0x2354 JUMPI POP PUSH0 PUSH20 0xFFFFFFFFFFFFFFFFFFFFFFFFFFFFFFFFFFFFFFFF AND PUSH1 0x6 PUSH0 SWAP1 SLOAD SWAP1 PUSH2 0x100 EXP SWAP1 DIV PUSH20 0xFFFFFFFFFFFFFFFFFFFFFFFFFFFFFFFFFFFFFFFF AND PUSH20 0xFFFFFFFFFFFFFFFFFFFFFFFFFFFFFFFFFFFFFFFF AND EQ ISZERO JUMPDEST PUSH2 0x2393 JUMPI PUSH1 0x40 MLOAD PUSH32 0x8C379A000000000000000000000000000000000000000000000000000000000 DUP2 MSTORE PUSH1 0x4 ADD PUSH2 0x238A SWAP1 PUSH2 0x3A1B JUMP JUMPDEST PUSH1 0x40 MLOAD DUP1 SWAP2 SUB SWAP1 REVERT JUMPDEST PUSH2 0x2442 JUMP JUMPDEST PUSH1 0x1 PUSH1 0x14 SWAP1 SLOAD SWAP1 PUSH2 0x100 EXP SWAP1 DIV PUSH1 0xFF AND ISZERO DUP1 ISZERO PUSH2 0x2402 JUMPI POP PUSH0 PUSH20 0xFFFFFFFFFFFFFFFFFFFFFFFFFFFFFFFFFFFFFFFF AND PUSH1 0x5 PUSH0 SWAP1 SLOAD SWAP1 PUSH2 0x100 EXP SWAP1 DIV PUSH20 0xFFFFFFFFFFFFFFFFFFFFFFFFFFFFFFFFFFFFFFFF AND PUSH20 0xFFFFFFFFFFFFFFFFFFFFFFFFFFFFFFFFFFFFFFFF AND EQ ISZERO JUMPDEST PUSH2 0x2441 JUMPI PUSH1 0x40 MLOAD PUSH32 0x8C379A000000000000000000000000000000000000000000000000000000000 DUP2 MSTORE PUSH1 0x4 ADD PUSH2 0x2438 SWAP1 PUSH2 0x39B3 JUMP JUMPDEST PUSH1 0x40 MLOAD DUP1 SWAP2 SUB SWAP1 REVERT JUMPDEST JUMPDEST PUSH0 DUP1 PUSH0 DUP1 PUSH1 0x1 PUSH1 0x14 SWAP1 SLOAD SWAP1 PUSH2 0x100 EXP SWAP1 DIV PUSH1 0xFF AND ISZERO PUSH2 0x24F2 JUMPI PUSH1 0x6 PUSH0 SWAP1 SLOAD SWAP1 PUSH2 0x100 EXP SWAP1 DIV PUSH20 0xFFFFFFFFFFFFFFFFFFFFFFFFFFFFFFFFFFFFFFFF AND PUSH20 0xFFFFFFFFFFFFFFFFFFFFFFFFFFFFFFFFFFFFFFFF AND PUSH4 0x85096EDC PUSH1 0x40 MLOAD DUP2 PUSH4 0xFFFFFFFF AND PUSH1 0xE0 SHL DUP2 MSTORE PUSH1 0x4 ADD PUSH0 PUSH1 0x40 MLOAD DUP1 DUP4 SUB DUP2 PUSH0 DUP8 GAS CALL ISZERO DUP1 ISZERO PUSH2 0x24C5 JUMPI RETURNDATASIZE PUSH0 DUP1 RETURNDATACOPY RETURNDATASIZE PUSH0 REVERT JUMPDEST POP POP POP POP PUSH1 0x40 MLOAD RETURNDATASIZE PUSH0 DUP3 RETURNDATACOPY RETURNDATASIZE PUSH1 0x1F NOT PUSH1 0x1F DUP3 ADD AND DUP3 ADD DUP1 PUSH1 0x40 MSTORE POP DUP2 ADD SWAP1 PUSH2 0x24ED SWAP2 SWAP1 PUSH2 0x3E5B JUMP JUMPDEST PUSH2 0x2585 JUMP JUMPDEST PUSH1 0x5 PUSH0 SWAP1 SLOAD SWAP1 PUSH2 0x100 EXP SWAP1 DIV PUSH20 0xFFFFFFFFFFFFFFFFFFFFFFFFFFFFFFFFFFFFFFFF AND PUSH20 0xFFFFFFFFFFFFFFFFFFFFFFFFFFFFFFFFFFFFFFFF AND PUSH4 0xE1E7FF77 PUSH1 0x40 MLOAD DUP2 PUSH4 0xFFFFFFFF AND PUSH1 0xE0 SHL DUP2 MSTORE PUSH1 0x4 ADD PUSH0 PUSH1 0x40 MLOAD DUP1 DUP4 SUB DUP2 PUSH0 DUP8 GAS CALL ISZERO DUP1 ISZERO PUSH2 0x255C JUMPI RETURNDATASIZE PUSH0 DUP1 RETURNDATACOPY RETURNDATASIZE PUSH0 REVERT JUMPDEST POP POP POP POP PUSH1 0x40 MLOAD RETURNDATASIZE PUSH0 DUP3 RETURNDATACOPY RETURNDATASIZE PUSH1 0x1F NOT PUSH1 0x1F DUP3 ADD AND DUP3 ADD DUP1 PUSH1 0x40 MSTORE POP DUP2 ADD SWAP1 PUSH2 0x2584 SWAP2 SWAP1 PUSH2 0x3E5B JUMP JUMPDEST JUMPDEST SWAP4 POP SWAP4 POP SWAP4 POP SWAP4 POP PUSH32 0xF533C7EBCAB9CA95557310F62AA7AD41D3A6B17AEBEC7762B994EF1A14863865 DUP5 DUP5 DUP5 DUP5 PUSH2 0x25BA PUSH2 0x223A JUMP JUMPDEST PUSH1 0x40 MLOAD PUSH2 0x25CB SWAP6 SWAP5 SWAP4 SWAP3 SWAP2 SWAP1 PUSH2 0x3EDB JUMP JUMPDEST PUSH1 0x40 MLOAD DUP1 SWAP2 SUB SWAP1 LOG1 DUP4 DUP4 DUP4 DUP4 SWAP8 POP SWAP8 POP SWAP8 POP SWAP8 POP POP POP POP POP SWAP1 SWAP2 SWAP3 SWAP4 JUMP JUMPDEST PUSH0 DUP2 PUSH1 0xA PUSH2 0x25F7 SWAP2 SWAP1 PUSH2 0x36FA JUMP JUMPDEST DUP4 DUP6 PUSH2 0x2603 SWAP2 SWAP1 PUSH2 0x3744 JUMP JUMPDEST PUSH2 0x260D SWAP2 SWAP1 PUSH2 0x37B2 JUMP JUMPDEST SWAP1 POP SWAP4 SWAP3 POP POP POP JUMP JUMPDEST PUSH2 0x2699 DUP5 PUSH4 0x23B872DD PUSH1 0xE0 SHL DUP6 DUP6 DUP6 PUSH1 0x40 MLOAD PUSH1 0x24 ADD PUSH2 0x2637 SWAP4 SWAP3 SWAP2 SWAP1 PUSH2 0x3F3A JUMP JUMPDEST PUSH1 0x40 MLOAD PUSH1 0x20 DUP2 DUP4 SUB SUB DUP2 MSTORE SWAP1 PUSH1 0x40 MSTORE SWAP1 PUSH28 0xFFFFFFFFFFFFFFFFFFFFFFFFFFFFFFFFFFFFFFFFFFFFFFFFFFFFFFFF NOT AND PUSH1 0x20 DUP3 ADD DUP1 MLOAD PUSH28 0xFFFFFFFFFFFFFFFFFFFFFFFFFFFFFFFFFFFFFFFFFFFFFFFFFFFFFFFF DUP4 DUP2 DUP4 AND OR DUP4 MSTORE POP POP POP POP PUSH2 0x27D8 JUMP JUMPDEST POP POP POP POP JUMP JUMPDEST PUSH0 DUP1 DUP3 GT PUSH2 0x26E2 JUMPI PUSH1 0x40 MLOAD PUSH32 0x8C379A000000000000000000000000000000000000000000000000000000000 DUP2 MSTORE PUSH1 0x4 ADD PUSH2 0x26D9 SWAP1 PUSH2 0x3FB9 JUMP JUMPDEST PUSH1 0x40 MLOAD DUP1 SWAP2 SUB SWAP1 REVERT JUMPDEST PUSH0 PUSH2 0x26EB PUSH2 0x1050 JUMP JUMPDEST SWAP1 POP PUSH32 0x0 PUSH20 0xFFFFFFFFFFFFFFFFFFFFFFFFFFFFFFFFFFFFFFFF AND PUSH4 0x42966C68 DUP5 PUSH1 0x40 MLOAD DUP3 PUSH4 0xFFFFFFFF AND PUSH1 0xE0 SHL DUP2 MSTORE PUSH1 0x4 ADD PUSH2 0x2746 SWAP2 SWAP1 PUSH2 0x2B98 JUMP JUMPDEST PUSH0 PUSH1 0x40 MLOAD DUP1 DUP4 SUB DUP2 PUSH0 DUP8 DUP1 EXTCODESIZE ISZERO DUP1 ISZERO PUSH2 0x275D JUMPI PUSH0 DUP1 REVERT JUMPDEST POP GAS CALL ISZERO DUP1 ISZERO PUSH2 0x276F JUMPI RETURNDATASIZE PUSH0 DUP1 RETURNDATACOPY RETURNDATASIZE PUSH0 REVERT JUMPDEST POP POP POP POP DUP3 DUP2 PUSH2 0x277F SWAP2 SWAP1 PUSH2 0x30A6 JUMP JUMPDEST PUSH2 0x2787 PUSH2 0x1050 JUMP JUMPDEST EQ PUSH2 0x27C7 JUMPI PUSH1 0x40 MLOAD PUSH32 0x8C379A000000000000000000000000000000000000000000000000000000000 DUP2 MSTORE PUSH1 0x4 ADD PUSH2 0x27BE SWAP1 PUSH2 0x4047 JUMP JUMPDEST PUSH1 0x40 MLOAD DUP1 SWAP2 SUB SWAP1 REVERT JUMPDEST PUSH1 0x1 SWAP2 POP POP SWAP2 SWAP1 POP JUMP JUMPDEST PUSH0 CALLER SWAP1 POP SWAP1 JUMP JUMPDEST PUSH0 PUSH2 0x2839 DUP3 PUSH1 0x40 MLOAD DUP1 PUSH1 0x40 ADD PUSH1 0x40 MSTORE DUP1 PUSH1 0x20 DUP2 MSTORE PUSH1 0x20 ADD PUSH32 0x5361666545524332303A206C6F772D6C6576656C2063616C6C206661696C6564 DUP2 MSTORE POP DUP6 PUSH20 0xFFFFFFFFFFFFFFFFFFFFFFFFFFFFFFFFFFFFFFFF AND PUSH2 0x289D SWAP1 SWAP3 SWAP2 SWAP1 PUSH4 0xFFFFFFFF AND JUMP JUMPDEST SWAP1 POP PUSH0 DUP2 MLOAD GT ISZERO PUSH2 0x2898 JUMPI DUP1 DUP1 PUSH1 0x20 ADD SWAP1 MLOAD DUP2 ADD SWAP1 PUSH2 0x2858 SWAP2 SWAP1 PUSH2 0x34D3 JUMP JUMPDEST PUSH2 0x2897 JUMPI PUSH1 0x40 MLOAD PUSH32 0x8C379A000000000000000000000000000000000000000000000000000000000 DUP2 MSTORE PUSH1 0x4 ADD PUSH2 0x288E SWAP1 PUSH2 0x40D5 JUMP JUMPDEST PUSH1 0x40 MLOAD DUP1 SWAP2 SUB SWAP1 REVERT JUMPDEST JUMPDEST POP POP POP JUMP JUMPDEST PUSH1 0x60 PUSH2 0x28AB DUP5 DUP5 PUSH0 DUP6 PUSH2 0x28B4 JUMP JUMPDEST SWAP1 POP SWAP4 SWAP3 POP POP POP JUMP JUMPDEST PUSH1 0x60 DUP3 SELFBALANCE LT ISZERO PUSH2 0x28F9 JUMPI PUSH1 0x40 MLOAD PUSH32 0x8C379A000000000000000000000000000000000000000000000000000000000 DUP2 MSTORE PUSH1 0x4 ADD PUSH2 0x28F0 SWAP1 PUSH2 0x4163 JUMP JUMPDEST PUSH1 0x40 MLOAD DUP1 SWAP2 SUB SWAP1 REVERT JUMPDEST PUSH2 0x2902 DUP6 PUSH2 0x29C4 JUMP JUMPDEST PUSH2 0x2941 JUMPI PUSH1 0x40 MLOAD PUSH32 0x8C379A000000000000000000000000000000000000000000000000000000000 DUP2 MSTORE PUSH1 0x4 ADD PUSH2 0x2938 SWAP1 PUSH2 0x41CB JUMP JUMPDEST PUSH1 0x40 MLOAD DUP1 SWAP2 SUB SWAP1 REVERT JUMPDEST PUSH0 DUP1 DUP7 PUSH20 0xFFFFFFFFFFFFFFFFFFFFFFFFFFFFFFFFFFFFFFFF AND DUP6 DUP8 PUSH1 0x40 MLOAD PUSH2 0x2969 SWAP2 SWAP1 PUSH2 0x422D JUMP JUMPDEST PUSH0 PUSH1 0x40 MLOAD DUP1 DUP4 SUB DUP2 DUP6 DUP8 GAS CALL SWAP3 POP POP POP RETURNDATASIZE DUP1 PUSH0 DUP2 EQ PUSH2 0x29A3 JUMPI PUSH1 0x40 MLOAD SWAP2 POP PUSH1 0x1F NOT PUSH1 0x3F RETURNDATASIZE ADD AND DUP3 ADD PUSH1 0x40 MSTORE RETURNDATASIZE DUP3 MSTORE RETURNDATASIZE PUSH0 PUSH1 0x20 DUP5 ADD RETURNDATACOPY PUSH2 0x29A8 JUMP JUMPDEST PUSH1 0x60 SWAP2 POP JUMPDEST POP SWAP2 POP SWAP2 POP PUSH2 0x29B8 DUP3 DUP3 DUP7 PUSH2 0x29E6 JUMP JUMPDEST SWAP3 POP POP POP SWAP5 SWAP4 POP POP POP POP JUMP JUMPDEST PUSH0 DUP1 DUP3 PUSH20 0xFFFFFFFFFFFFFFFFFFFFFFFFFFFFFFFFFFFFFFFF AND EXTCODESIZE GT SWAP1 POP SWAP2 SWAP1 POP JUMP JUMPDEST PUSH1 0x60 DUP4 ISZERO PUSH2 0x29F6 JUMPI DUP3 SWAP1 POP PUSH2 0x2A45 JUMP JUMPDEST PUSH0 DUP4 MLOAD GT ISZERO PUSH2 0x2A08 JUMPI DUP3 MLOAD DUP1 DUP5 PUSH1 0x20 ADD REVERT JUMPDEST DUP2 PUSH1 0x40 MLOAD PUSH32 0x8C379A000000000000000000000000000000000000000000000000000000000 DUP2 MSTORE PUSH1 0x4 ADD PUSH2 0x2A3C SWAP2 SWAP1 PUSH2 0x3B90 JUMP JUMPDEST PUSH1 0x40 MLOAD DUP1 SWAP2 SUB SWAP1 REVERT JUMPDEST SWAP4 SWAP3 POP POP POP JUMP JUMPDEST PUSH0 PUSH1 0x40 MLOAD SWAP1 POP SWAP1 JUMP JUMPDEST PUSH0 DUP1 REVERT JUMPDEST PUSH0 DUP1 REVERT JUMPDEST PUSH0 DUP2 SWAP1 POP SWAP2 SWAP1 POP JUMP JUMPDEST PUSH2 0x2A6F DUP2 PUSH2 0x2A5D JUMP JUMPDEST DUP2 EQ PUSH2 0x2A79 JUMPI PUSH0 DUP1 REVERT JUMPDEST POP JUMP JUMPDEST PUSH0 DUP2 CALLDATALOAD SWAP1 POP PUSH2 0x2A8A DUP2 PUSH2 0x2A66 JUMP JUMPDEST SWAP3 SWAP2 POP POP JUMP JUMPDEST PUSH0 PUSH20 0xFFFFFFFFFFFFFFFFFFFFFFFFFFFFFFFFFFFFFFFF DUP3 AND SWAP1 POP SWAP2 SWAP1 POP JUMP JUMPDEST PUSH0 PUSH2 0x2AB9 DUP3 PUSH2 0x2A90 JUMP JUMPDEST SWAP1 POP SWAP2 SWAP1 POP JUMP JUMPDEST PUSH2 0x2AC9 DUP2 PUSH2 0x2AAF JUMP JUMPDEST DUP2 EQ PUSH2 0x2AD3 JUMPI PUSH0 DUP1 REVERT JUMPDEST POP JUMP JUMPDEST PUSH0 DUP2 CALLDATALOAD SWAP1 POP PUSH2 0x2AE4 DUP2 PUSH2 0x2AC0 JUMP JUMPDEST SWAP3 SWAP2 POP POP JUMP JUMPDEST PUSH0 DUP1 PUSH1 0x40 DUP4 DUP6 SUB SLT ISZERO PUSH2 0x2B00 JUMPI PUSH2 0x2AFF PUSH2 0x2A55 JUMP JUMPDEST JUMPDEST PUSH0 PUSH2 0x2B0D DUP6 DUP3 DUP7 ADD PUSH2 0x2A7C JUMP JUMPDEST SWAP3 POP POP PUSH1 0x20 PUSH2 0x2B1E DUP6 DUP3 DUP7 ADD PUSH2 0x2AD6 JUMP JUMPDEST SWAP2 POP POP SWAP3 POP SWAP3 SWAP1 POP JUMP JUMPDEST PUSH0 PUSH1 0x20 DUP3 DUP5 SUB SLT ISZERO PUSH2 0x2B3D JUMPI PUSH2 0x2B3C PUSH2 0x2A55 JUMP JUMPDEST JUMPDEST PUSH0 PUSH2 0x2B4A DUP5 DUP3 DUP6 ADD PUSH2 0x2AD6 JUMP JUMPDEST SWAP2 POP POP SWAP3 SWAP2 POP POP JUMP JUMPDEST PUSH2 0x2B5C DUP2 PUSH2 0x2AAF JUMP JUMPDEST DUP3 MSTORE POP POP JUMP JUMPDEST PUSH0 PUSH1 0x40 DUP3 ADD SWAP1 POP PUSH2 0x2B75 PUSH0 DUP4 ADD DUP6 PUSH2 0x2B53 JUMP JUMPDEST PUSH2 0x2B82 PUSH1 0x20 DUP4 ADD DUP5 PUSH2 0x2B53 JUMP JUMPDEST SWAP4 SWAP3 POP POP POP JUMP JUMPDEST PUSH2 0x2B92 DUP2 PUSH2 0x2A5D JUMP JUMPDEST DUP3 MSTORE POP POP JUMP JUMPDEST PUSH0 PUSH1 0x20 DUP3 ADD SWAP1 POP PUSH2 0x2BAB PUSH0 DUP4 ADD DUP5 PUSH2 0x2B89 JUMP JUMPDEST SWAP3 SWAP2 POP POP JUMP JUMPDEST PUSH0 DUP2 ISZERO ISZERO SWAP1 POP SWAP2 SWAP1 POP JUMP JUMPDEST PUSH2 0x2BC5 DUP2 PUSH2 0x2BB1 JUMP JUMPDEST DUP3 MSTORE POP POP JUMP JUMPDEST PUSH0 PUSH1 0x20 DUP3 ADD SWAP1 POP PUSH2 0x2BDE PUSH0 DUP4 ADD DUP5 PUSH2 0x2BBC JUMP JUMPDEST SWAP3 SWAP2 POP POP JUMP JUMPDEST PUSH0 DUP1 REVERT JUMPDEST PUSH0 DUP1 REVERT JUMPDEST PUSH0 DUP1 REVERT JUMPDEST PUSH0 DUP1 DUP4 PUSH1 0x1F DUP5 ADD SLT PUSH2 0x2C05 JUMPI PUSH2 0x2C04 PUSH2 0x2BE4 JUMP JUMPDEST JUMPDEST DUP3 CALLDATALOAD SWAP1 POP PUSH8 0xFFFFFFFFFFFFFFFF DUP2 GT ISZERO PUSH2 0x2C22 JUMPI PUSH2 0x2C21 PUSH2 0x2BE8 JUMP JUMPDEST JUMPDEST PUSH1 0x20 DUP4 ADD SWAP2 POP DUP4 PUSH1 0x20 DUP3 MUL DUP4 ADD GT ISZERO PUSH2 0x2C3E JUMPI PUSH2 0x2C3D PUSH2 0x2BEC JUMP JUMPDEST JUMPDEST SWAP3 POP SWAP3 SWAP1 POP JUMP JUMPDEST PUSH0 DUP1 DUP4 PUSH1 0x1F DUP5 ADD SLT PUSH2 0x2C5A JUMPI PUSH2 0x2C59 PUSH2 0x2BE4 JUMP JUMPDEST JUMPDEST DUP3 CALLDATALOAD SWAP1 POP PUSH8 0xFFFFFFFFFFFFFFFF DUP2 GT ISZERO PUSH2 0x2C77 JUMPI PUSH2 0x2C76 PUSH2 0x2BE8 JUMP JUMPDEST JUMPDEST PUSH1 0x20 DUP4 ADD SWAP2 POP DUP4 PUSH1 0x20 DUP3 MUL DUP4 ADD GT ISZERO PUSH2 0x2C93 JUMPI PUSH2 0x2C92 PUSH2 0x2BEC JUMP JUMPDEST JUMPDEST SWAP3 POP SWAP3 SWAP1 POP JUMP JUMPDEST PUSH0 DUP1 PUSH0 DUP1 PUSH0 PUSH1 0x60 DUP7 DUP9 SUB SLT ISZERO PUSH2 0x2CB3 JUMPI PUSH2 0x2CB2 PUSH2 0x2A55 JUMP JUMPDEST JUMPDEST PUSH0 PUSH2 0x2CC0 DUP9 DUP3 DUP10 ADD PUSH2 0x2A7C JUMP JUMPDEST SWAP6 POP POP PUSH1 0x20 DUP7 ADD CALLDATALOAD PUSH8 0xFFFFFFFFFFFFFFFF DUP2 GT ISZERO PUSH2 0x2CE1 JUMPI PUSH2 0x2CE0 PUSH2 0x2A59 JUMP JUMPDEST JUMPDEST PUSH2 0x2CED DUP9 DUP3 DUP10 ADD PUSH2 0x2BF0 JUMP JUMPDEST SWAP5 POP SWAP5 POP POP PUSH1 0x40 DUP7 ADD CALLDATALOAD PUSH8 0xFFFFFFFFFFFFFFFF DUP2 GT ISZERO PUSH2 0x2D10 JUMPI PUSH2 0x2D0F PUSH2 0x2A59 JUMP JUMPDEST JUMPDEST PUSH2 0x2D1C DUP9 DUP3 DUP10 ADD PUSH2 0x2C45 JUMP JUMPDEST SWAP3 POP SWAP3 POP POP SWAP3 SWAP6 POP SWAP3 SWAP6 SWAP1 SWAP4 POP JUMP JUMPDEST PUSH0 DUP1 PUSH0 PUSH1 0x60 DUP5 DUP7 SUB SLT ISZERO PUSH2 0x2D42 JUMPI PUSH2 0x2D41 PUSH2 0x2A55 JUMP JUMPDEST JUMPDEST PUSH0 PUSH2 0x2D4F DUP7 DUP3 DUP8 ADD PUSH2 0x2AD6 JUMP JUMPDEST SWAP4 POP POP PUSH1 0x20 PUSH2 0x2D60 DUP7 DUP3 DUP8 ADD PUSH2 0x2AD6 JUMP JUMPDEST SWAP3 POP POP PUSH1 0x40 PUSH2 0x2D71 DUP7 DUP3 DUP8 ADD PUSH2 0x2A7C JUMP JUMPDEST SWAP2 POP POP SWAP3 POP SWAP3 POP SWAP3 JUMP JUMPDEST PUSH0 DUP1 PUSH0 PUSH1 0x60 DUP5 DUP7 SUB SLT ISZERO PUSH2 0x2D92 JUMPI PUSH2 0x2D91 PUSH2 0x2A55 JUMP JUMPDEST JUMPDEST PUSH0 PUSH2 0x2D9F DUP7 DUP3 DUP8 ADD PUSH2 0x2A7C JUMP JUMPDEST SWAP4 POP POP PUSH1 0x20 PUSH2 0x2DB0 DUP7 DUP3 DUP8 ADD PUSH2 0x2A7C JUMP JUMPDEST SWAP3 POP POP PUSH1 0x40 PUSH2 0x2DC1 DUP7 DUP3 DUP8 ADD PUSH2 0x2A7C JUMP JUMPDEST SWAP2 POP POP SWAP3 POP SWAP3 POP SWAP3 JUMP JUMPDEST PUSH0 PUSH1 0x20 DUP3 ADD SWAP1 POP PUSH2 0x2DDE PUSH0 DUP4 ADD DUP5 PUSH2 0x2B53 JUMP JUMPDEST SWAP3 SWAP2 POP POP JUMP JUMPDEST PUSH0 DUP2 MLOAD SWAP1 POP SWAP2 SWAP1 POP JUMP JUMPDEST PUSH0 DUP3 DUP3 MSTORE PUSH1 0x20 DUP3 ADD SWAP1 POP SWAP3 SWAP2 POP POP JUMP JUMPDEST PUSH0 JUMPDEST DUP4 DUP2 LT ISZERO PUSH2 0x2E1B JUMPI DUP1 DUP3 ADD MLOAD DUP2 DUP5 ADD MSTORE PUSH1 0x20 DUP2 ADD SWAP1 POP PUSH2 0x2E00 JUMP JUMPDEST PUSH0 DUP5 DUP5 ADD MSTORE POP POP POP POP JUMP JUMPDEST PUSH0 PUSH1 0x1F NOT PUSH1 0x1F DUP4 ADD AND SWAP1 POP SWAP2 SWAP1 POP JUMP JUMPDEST PUSH0 PUSH2 0x2E40 DUP3 PUSH2 0x2DE4 JUMP JUMPDEST PUSH2 0x2E4A DUP2 DUP6 PUSH2 0x2DEE JUMP JUMPDEST SWAP4 POP PUSH2 0x2E5A DUP2 DUP6 PUSH1 0x20 DUP7 ADD PUSH2 0x2DFE JUMP JUMPDEST PUSH2 0x2E63 DUP2 PUSH2 0x2E26 JUMP JUMPDEST DUP5 ADD SWAP2 POP POP SWAP3 SWAP2 POP POP JUMP JUMPDEST PUSH0 PUSH1 0x40 DUP3 ADD SWAP1 POP PUSH2 0x2E81 PUSH0 DUP4 ADD DUP6 PUSH2 0x2B53 JUMP JUMPDEST DUP2 DUP2 SUB PUSH1 0x20 DUP4 ADD MSTORE PUSH2 0x2E93 DUP2 DUP5 PUSH2 0x2E36 JUMP JUMPDEST SWAP1 POP SWAP4 SWAP3 POP POP POP JUMP JUMPDEST PUSH0 PUSH1 0x40 DUP3 ADD SWAP1 POP DUP2 DUP2 SUB PUSH0 DUP4 ADD MSTORE PUSH2 0x2EB4 DUP2 DUP6 PUSH2 0x2E36 JUMP JUMPDEST SWAP1 POP PUSH2 0x2EC3 PUSH1 0x20 DUP4 ADD DUP5 PUSH2 0x2B53 JUMP JUMPDEST SWAP4 SWAP3 POP POP POP JUMP JUMPDEST PUSH0 PUSH1 0x20 DUP3 DUP5 SUB SLT ISZERO PUSH2 0x2EDF JUMPI PUSH2 0x2EDE PUSH2 0x2A55 JUMP JUMPDEST JUMPDEST PUSH0 PUSH2 0x2EEC DUP5 DUP3 DUP6 ADD PUSH2 0x2A7C JUMP JUMPDEST SWAP2 POP POP SWAP3 SWAP2 POP POP JUMP JUMPDEST PUSH32 0x4E6F742061637469766174656421000000000000000000000000000000000000 PUSH0 DUP3 ADD MSTORE POP JUMP JUMPDEST PUSH0 PUSH2 0x2F29 PUSH1 0xE DUP4 PUSH2 0x2DEE JUMP JUMPDEST SWAP2 POP PUSH2 0x2F34 DUP3 PUSH2 0x2EF5 JUMP JUMPDEST PUSH1 0x20 DUP3 ADD SWAP1 POP SWAP2 SWAP1 POP JUMP JUMPDEST PUSH0 PUSH1 0x20 DUP3 ADD SWAP1 POP DUP2 DUP2 SUB PUSH0 DUP4 ADD MSTORE PUSH2 0x2F56 DUP2 PUSH2 0x2F1D JUMP JUMPDEST SWAP1 POP SWAP2 SWAP1 POP JUMP JUMPDEST PUSH32 0x4E6F7420656E6F75676820706F696E74732E2054686520636F6E747261637420 PUSH0 DUP3 ADD MSTORE PUSH32 0x6D75737420626520636861726765642077697468206D6F726520746F6B656E73 PUSH1 0x20 DUP3 ADD MSTORE POP JUMP JUMPDEST PUSH0 PUSH2 0x2FB7 PUSH1 0x40 DUP4 PUSH2 0x2DEE JUMP JUMPDEST SWAP2 POP PUSH2 0x2FC2 DUP3 PUSH2 0x2F5D JUMP JUMPDEST PUSH1 0x40 DUP3 ADD SWAP1 POP SWAP2 SWAP1 POP JUMP JUMPDEST PUSH0 PUSH1 0x20 DUP3 ADD SWAP1 POP DUP2 DUP2 SUB PUSH0 DUP4 ADD MSTORE PUSH2 0x2FE4 DUP2 PUSH2 0x2FAB JUMP JUMPDEST SWAP1 POP SWAP2 SWAP1 POP JUMP JUMPDEST PUSH32 0x57697468647261772076616C7565206D75737420626520677265617465722074 PUSH0 DUP3 ADD MSTORE PUSH32 0x68616E2030210000000000000000000000000000000000000000000000000000 PUSH1 0x20 DUP3 ADD MSTORE POP JUMP JUMPDEST PUSH0 PUSH2 0x3045 PUSH1 0x26 DUP4 PUSH2 0x2DEE JUMP JUMPDEST SWAP2 POP PUSH2 0x3050 DUP3 PUSH2 0x2FEB JUMP JUMPDEST PUSH1 0x40 DUP3 ADD SWAP1 POP SWAP2 SWAP1 POP JUMP JUMPDEST PUSH0 PUSH1 0x20 DUP3 ADD SWAP1 POP DUP2 DUP2 SUB PUSH0 DUP4 ADD MSTORE PUSH2 0x3072 DUP2 PUSH2 0x3039 JUMP JUMPDEST SWAP1 POP SWAP2 SWAP1 POP JUMP JUMPDEST PUSH32 0x4E487B7100000000000000000000000000000000000000000000000000000000 PUSH0 MSTORE PUSH1 0x11 PUSH1 0x4 MSTORE PUSH1 0x24 PUSH0 REVERT JUMPDEST PUSH0 PUSH2 0x30B0 DUP3 PUSH2 0x2A5D JUMP JUMPDEST SWAP2 POP PUSH2 0x30BB DUP4 PUSH2 0x2A5D JUMP JUMPDEST SWAP3 POP DUP3 DUP3 SUB SWAP1 POP DUP2 DUP2 GT ISZERO PUSH2 0x30D3 JUMPI PUSH2 0x30D2 PUSH2 0x3079 JUMP JUMPDEST JUMPDEST SWAP3 SWAP2 POP POP JUMP JUMPDEST PUSH32 0x4E6F7420417574686F72697A6564210000000000000000000000000000000000 PUSH0 DUP3 ADD MSTORE POP JUMP JUMPDEST PUSH0 PUSH2 0x310D PUSH1 0xF DUP4 PUSH2 0x2DEE JUMP JUMPDEST SWAP2 POP PUSH2 0x3118 DUP3 PUSH2 0x30D9 JUMP JUMPDEST PUSH1 0x20 DUP3 ADD SWAP1 POP SWAP2 SWAP1 POP JUMP JUMPDEST PUSH0 PUSH1 0x20 DUP3 ADD SWAP1 POP DUP2 DUP2 SUB PUSH0 DUP4 ADD MSTORE PUSH2 0x313A DUP2 PUSH2 0x3101 JUMP JUMPDEST SWAP1 POP SWAP2 SWAP1 POP JUMP JUMPDEST PUSH32 0x41637469766174696F6E206E6F7420616C6C6F77656421000000000000000000 PUSH0 DUP3 ADD MSTORE POP JUMP JUMPDEST PUSH0 PUSH2 0x3175 PUSH1 0x17 DUP4 PUSH2 0x2DEE JUMP JUMPDEST SWAP2 POP PUSH2 0x3180 DUP3 PUSH2 0x3141 JUMP JUMPDEST PUSH1 0x20 DUP3 ADD SWAP1 POP SWAP2 SWAP1 POP JUMP JUMPDEST PUSH0 PUSH1 0x20 DUP3 ADD SWAP1 POP DUP2 DUP2 SUB PUSH0 DUP4 ADD MSTORE PUSH2 0x31A2 DUP2 PUSH2 0x3169 JUMP JUMPDEST SWAP1 POP SWAP2 SWAP1 POP JUMP JUMPDEST PUSH32 0x416C7265616479206163746976617465642E0000000000000000000000000000 PUSH0 DUP3 ADD MSTORE POP JUMP JUMPDEST PUSH0 PUSH2 0x31DD PUSH1 0x12 DUP4 PUSH2 0x2DEE JUMP JUMPDEST SWAP2 POP PUSH2 0x31E8 DUP3 PUSH2 0x31A9 JUMP JUMPDEST PUSH1 0x20 DUP3 ADD SWAP1 POP SWAP2 SWAP1 POP JUMP JUMPDEST PUSH0 PUSH1 0x20 DUP3 ADD SWAP1 POP DUP2 DUP2 SUB PUSH0 DUP4 ADD MSTORE PUSH2 0x320A DUP2 PUSH2 0x31D1 JUMP JUMPDEST SWAP1 POP SWAP2 SWAP1 POP JUMP JUMPDEST PUSH32 0x4F6E6C79204F776E6572206F7220417574686F72697A65642070617274696369 PUSH0 DUP3 ADD MSTORE PUSH32 0x7061746F722063616E206163636573732074686973206F7065726174696F6E21 PUSH1 0x20 DUP3 ADD MSTORE POP JUMP JUMPDEST PUSH0 PUSH2 0x326B PUSH1 0x40 DUP4 PUSH2 0x2DEE JUMP JUMPDEST SWAP2 POP PUSH2 0x3276 DUP3 PUSH2 0x3211 JUMP JUMPDEST PUSH1 0x40 DUP3 ADD SWAP1 POP SWAP2 SWAP1 POP JUMP JUMPDEST PUSH0 PUSH1 0x20 DUP3 ADD SWAP1 POP DUP2 DUP2 SUB PUSH0 DUP4 ADD MSTORE PUSH2 0x3298 DUP2 PUSH2 0x325F JUMP JUMPDEST SWAP1 POP SWAP2 SWAP1 POP JUMP JUMPDEST PUSH0 DUP3 DUP3 MSTORE PUSH1 0x20 DUP3 ADD SWAP1 POP SWAP3 SWAP2 POP POP JUMP JUMPDEST PUSH0 DUP2 SWAP1 POP SWAP2 SWAP1 POP JUMP JUMPDEST PUSH2 0x32C1 DUP2 PUSH2 0x2AAF JUMP JUMPDEST DUP3 MSTORE POP POP JUMP JUMPDEST PUSH0 PUSH2 0x32D2 DUP4 DUP4 PUSH2 0x32B8 JUMP JUMPDEST PUSH1 0x20 DUP4 ADD SWAP1 POP SWAP3 SWAP2 POP POP JUMP JUMPDEST PUSH0 PUSH2 0x32EC PUSH1 0x20 DUP5 ADD DUP5 PUSH2 0x2AD6 JUMP JUMPDEST SWAP1 POP SWAP3 SWAP2 POP POP JUMP JUMPDEST PUSH0 PUSH1 0x20 DUP3 ADD SWAP1 POP SWAP2 SWAP1 POP JUMP JUMPDEST PUSH0 PUSH2 0x330B DUP4 DUP6 PUSH2 0x329F JUMP JUMPDEST SWAP4 POP PUSH2 0x3316 DUP3 PUSH2 0x32AF JUMP JUMPDEST DUP1 PUSH0 JUMPDEST DUP6 DUP2 LT ISZERO PUSH2 0x334E JUMPI PUSH2 0x332B DUP3 DUP5 PUSH2 0x32DE JUMP JUMPDEST PUSH2 0x3335 DUP9 DUP3 PUSH2 0x32C7 JUMP JUMPDEST SWAP8 POP PUSH2 0x3340 DUP4 PUSH2 0x32F4 JUMP JUMPDEST SWAP3 POP POP PUSH1 0x1 DUP2 ADD SWAP1 POP PUSH2 0x3319 JUMP JUMPDEST POP DUP6 SWAP3 POP POP POP SWAP4 SWAP3 POP POP POP JUMP JUMPDEST PUSH0 DUP3 DUP3 MSTORE PUSH1 0x20 DUP3 ADD SWAP1 POP SWAP3 SWAP2 POP POP JUMP JUMPDEST PUSH0 DUP1 REVERT JUMPDEST DUP3 DUP2 DUP4 CALLDATACOPY POP POP POP JUMP JUMPDEST PUSH0 PUSH2 0x3383 DUP4 DUP6 PUSH2 0x335B JUMP JUMPDEST SWAP4 POP PUSH32 0x7FFFFFFFFFFFFFFFFFFFFFFFFFFFFFFFFFFFFFFFFFFFFFFFFFFFFFFFFFFFFFF DUP4 GT ISZERO PUSH2 0x33B6 JUMPI PUSH2 0x33B5 PUSH2 0x336B JUMP JUMPDEST JUMPDEST PUSH1 0x20 DUP4 MUL SWAP3 POP PUSH2 0x33C7 DUP4 DUP6 DUP5 PUSH2 0x336F JUMP JUMPDEST DUP3 DUP5 ADD SWAP1 POP SWAP4 SWAP3 POP POP POP JUMP JUMPDEST PUSH0 PUSH1 0x60 DUP3 ADD SWAP1 POP PUSH2 0x33E6 PUSH0 DUP4 ADD DUP9 PUSH2 0x2B89 JUMP JUMPDEST DUP2 DUP2 SUB PUSH1 0x20 DUP4 ADD MSTORE PUSH2 0x33F9 DUP2 DUP7 DUP9 PUSH2 0x3300 JUMP JUMPDEST SWAP1 POP DUP2 DUP2 SUB PUSH1 0x40 DUP4 ADD MSTORE PUSH2 0x340E DUP2 DUP5 DUP7 PUSH2 0x3378 JUMP JUMPDEST SWAP1 POP SWAP7 SWAP6 POP POP POP POP POP POP JUMP JUMPDEST PUSH32 0x4E6F7420656E6F7567682062616C616E63652100000000000000000000000000 PUSH0 DUP3 ADD MSTORE POP JUMP JUMPDEST PUSH0 PUSH2 0x344E PUSH1 0x13 DUP4 PUSH2 0x2DEE JUMP JUMPDEST SWAP2 POP PUSH2 0x3459 DUP3 PUSH2 0x341A JUMP JUMPDEST PUSH1 0x20 DUP3 ADD SWAP1 POP SWAP2 SWAP1 POP JUMP JUMPDEST PUSH0 PUSH1 0x20 DUP3 ADD SWAP1 POP DUP2 DUP2 SUB PUSH0 DUP4 ADD MSTORE PUSH2 0x347B DUP2 PUSH2 0x3442 JUMP JUMPDEST SWAP1 POP SWAP2 SWAP1 POP JUMP JUMPDEST PUSH0 PUSH1 0x40 DUP3 ADD SWAP1 POP PUSH2 0x3495 PUSH0 DUP4 ADD DUP6 PUSH2 0x2B53 JUMP JUMPDEST PUSH2 0x34A2 PUSH1 0x20 DUP4 ADD DUP5 PUSH2 0x2B89 JUMP JUMPDEST SWAP4 SWAP3 POP POP POP JUMP JUMPDEST PUSH2 0x34B2 DUP2 PUSH2 0x2BB1 JUMP JUMPDEST DUP2 EQ PUSH2 0x34BC JUMPI PUSH0 DUP1 REVERT JUMPDEST POP JUMP JUMPDEST PUSH0 DUP2 MLOAD SWAP1 POP PUSH2 0x34CD DUP2 PUSH2 0x34A9 JUMP JUMPDEST SWAP3 SWAP2 POP POP JUMP JUMPDEST PUSH0 PUSH1 0x20 DUP3 DUP5 SUB SLT ISZERO PUSH2 0x34E8 JUMPI PUSH2 0x34E7 PUSH2 0x2A55 JUMP JUMPDEST JUMPDEST PUSH0 PUSH2 0x34F5 DUP5 DUP3 DUP6 ADD PUSH2 0x34BF JUMP JUMPDEST SWAP2 POP POP SWAP3 SWAP2 POP POP JUMP JUMPDEST PUSH0 DUP2 MLOAD SWAP1 POP PUSH2 0x350C DUP2 PUSH2 0x2A66 JUMP JUMPDEST SWAP3 SWAP2 POP POP JUMP JUMPDEST PUSH0 PUSH1 0x20 DUP3 DUP5 SUB SLT ISZERO PUSH2 0x3527 JUMPI PUSH2 0x3526 PUSH2 0x2A55 JUMP JUMPDEST JUMPDEST PUSH0 PUSH2 0x3534 DUP5 DUP3 DUP6 ADD PUSH2 0x34FE JUMP JUMPDEST SWAP2 POP POP SWAP3 SWAP2 POP POP JUMP JUMPDEST PUSH32 0x526174652C20706F696E747320616E6420646563696D616C73206D7573742062 PUSH0 DUP3 ADD MSTORE PUSH32 0x652067726561746572207468616E207A65726F21000000000000000000000000 PUSH1 0x20 DUP3 ADD MSTORE POP JUMP JUMPDEST PUSH0 PUSH2 0x3597 PUSH1 0x34 DUP4 PUSH2 0x2DEE JUMP JUMPDEST SWAP2 POP PUSH2 0x35A2 DUP3 PUSH2 0x353D JUMP JUMPDEST PUSH1 0x40 DUP3 ADD SWAP1 POP SWAP2 SWAP1 POP JUMP JUMPDEST PUSH0 PUSH1 0x20 DUP3 ADD SWAP1 POP DUP2 DUP2 SUB PUSH0 DUP4 ADD MSTORE PUSH2 0x35C4 DUP2 PUSH2 0x358B JUMP JUMPDEST SWAP1 POP SWAP2 SWAP1 POP JUMP JUMPDEST PUSH0 DUP2 PUSH1 0x1 SHR SWAP1 POP SWAP2 SWAP1 POP JUMP JUMPDEST PUSH0 DUP1 DUP3 SWAP2 POP DUP4 SWAP1 POP JUMPDEST PUSH1 0x1 DUP6 GT ISZERO PUSH2 0x3620 JUMPI DUP1 DUP7 DIV DUP2 GT ISZERO PUSH2 0x35FC JUMPI PUSH2 0x35FB PUSH2 0x3079 JUMP JUMPDEST JUMPDEST PUSH1 0x1 DUP6 AND ISZERO PUSH2 0x360B JUMPI DUP1 DUP3 MUL SWAP2 POP JUMPDEST DUP1 DUP2 MUL SWAP1 POP PUSH2 0x3619 DUP6 PUSH2 0x35CB JUMP JUMPDEST SWAP5 POP PUSH2 0x35E0 JUMP JUMPDEST SWAP5 POP SWAP5 SWAP3 POP POP POP JUMP JUMPDEST PUSH0 DUP3 PUSH2 0x3638 JUMPI PUSH1 0x1 SWAP1 POP PUSH2 0x36F3 JUMP JUMPDEST DUP2 PUSH2 0x3645 JUMPI PUSH0 SWAP1 POP PUSH2 0x36F3 JUMP JUMPDEST DUP2 PUSH1 0x1 DUP2 EQ PUSH2 0x365B JUMPI PUSH1 0x2 DUP2 EQ PUSH2 0x3665 JUMPI PUSH2 0x3694 JUMP JUMPDEST PUSH1 0x1 SWAP2 POP POP PUSH2 0x36F3 JUMP JUMPDEST PUSH1 0xFF DUP5 GT ISZERO PUSH2 0x3677 JUMPI PUSH2 0x3676 PUSH2 0x3079 JUMP JUMPDEST JUMPDEST DUP4 PUSH1 0x2 EXP SWAP2 POP DUP5 DUP3 GT ISZERO PUSH2 0x368E JUMPI PUSH2 0x368D PUSH2 0x3079 JUMP JUMPDEST JUMPDEST POP PUSH2 0x36F3 JUMP JUMPDEST POP PUSH1 0x20 DUP4 LT PUSH2 0x133 DUP4 LT AND PUSH1 0x4E DUP5 LT PUSH1 0xB DUP5 LT AND OR ISZERO PUSH2 0x36C9 JUMPI DUP3 DUP3 EXP SWAP1 POP DUP4 DUP2 GT ISZERO PUSH2 0x36C4 JUMPI PUSH2 0x36C3 PUSH2 0x3079 JUMP JUMPDEST JUMPDEST PUSH2 0x36F3 JUMP JUMPDEST PUSH2 0x36D6 DUP5 DUP5 DUP5 PUSH1 0x1 PUSH2 0x35D7 JUMP JUMPDEST SWAP3 POP SWAP1 POP DUP2 DUP5 DIV DUP2 GT ISZERO PUSH2 0x36ED JUMPI PUSH2 0x36EC PUSH2 0x3079 JUMP JUMPDEST JUMPDEST DUP2 DUP2 MUL SWAP1 POP JUMPDEST SWAP4 SWAP3 POP POP POP JUMP JUMPDEST PUSH0 PUSH2 0x3704 DUP3 PUSH2 0x2A5D JUMP JUMPDEST SWAP2 POP PUSH2 0x370F DUP4 PUSH2 0x2A5D JUMP JUMPDEST SWAP3 POP PUSH2 0x373C PUSH32 0xFFFFFFFFFFFFFFFFFFFFFFFFFFFFFFFFFFFFFFFFFFFFFFFFFFFFFFFFFFFFFFFF DUP5 DUP5 PUSH2 0x3629 JUMP JUMPDEST SWAP1 POP SWAP3 SWAP2 POP POP JUMP JUMPDEST PUSH0 PUSH2 0x374E DUP3 PUSH2 0x2A5D JUMP JUMPDEST SWAP2 POP PUSH2 0x3759 DUP4 PUSH2 0x2A5D JUMP JUMPDEST SWAP3 POP DUP3 DUP3 MUL PUSH2 0x3767 DUP2 PUSH2 0x2A5D JUMP JUMPDEST SWAP2 POP DUP3 DUP3 DIV DUP5 EQ DUP4 ISZERO OR PUSH2 0x377E JUMPI PUSH2 0x377D PUSH2 0x3079 JUMP JUMPDEST JUMPDEST POP SWAP3 SWAP2 POP POP JUMP JUMPDEST PUSH32 0x4E487B7100000000000000000000000000000000000000000000000000000000 PUSH0 MSTORE PUSH1 0x12 PUSH1 0x4 MSTORE PUSH1 0x24 PUSH0 REVERT JUMPDEST PUSH0 PUSH2 0x37BC DUP3 PUSH2 0x2A5D JUMP JUMPDEST SWAP2 POP PUSH2 0x37C7 DUP4 PUSH2 0x2A5D JUMP JUMPDEST SWAP3 POP DUP3 PUSH2 0x37D7 JUMPI PUSH2 0x37D6 PUSH2 0x3785 JUMP JUMPDEST JUMPDEST DUP3 DUP3 DIV SWAP1 POP SWAP3 SWAP2 POP POP JUMP JUMPDEST PUSH0 DUP1 REVERT JUMPDEST PUSH32 0x4E487B7100000000000000000000000000000000000000000000000000000000 PUSH0 MSTORE PUSH1 0x41 PUSH1 0x4 MSTORE PUSH1 0x24 PUSH0 REVERT JUMPDEST PUSH2 0x381C DUP3 PUSH2 0x2E26 JUMP JUMPDEST DUP2 ADD DUP2 DUP2 LT PUSH8 0xFFFFFFFFFFFFFFFF DUP3 GT OR ISZERO PUSH2 0x383B JUMPI PUSH2 0x383A PUSH2 0x37E6 JUMP JUMPDEST JUMPDEST DUP1 PUSH1 0x40 MSTORE POP POP POP JUMP JUMPDEST PUSH0 PUSH2 0x384D PUSH2 0x2A4C JUMP JUMPDEST SWAP1 POP PUSH2 0x3859 DUP3 DUP3 PUSH2 0x3813 JUMP JUMPDEST SWAP2 SWAP1 POP JUMP JUMPDEST PUSH0 PUSH8 0xFFFFFFFFFFFFFFFF DUP3 GT ISZERO PUSH2 0x3878 JUMPI PUSH2 0x3877 PUSH2 0x37E6 JUMP JUMPDEST JUMPDEST PUSH2 0x3881 DUP3 PUSH2 0x2E26 JUMP JUMPDEST SWAP1 POP PUSH1 0x20 DUP2 ADD SWAP1 POP SWAP2 SWAP1 POP JUMP JUMPDEST PUSH0 PUSH2 0x38A0 PUSH2 0x389B DUP5 PUSH2 0x385E JUMP JUMPDEST PUSH2 0x3844 JUMP JUMPDEST SWAP1 POP DUP3 DUP2 MSTORE PUSH1 0x20 DUP2 ADD DUP5 DUP5 DUP5 ADD GT ISZERO PUSH2 0x38BC JUMPI PUSH2 0x38BB PUSH2 0x37E2 JUMP JUMPDEST JUMPDEST PUSH2 0x38C7 DUP5 DUP3 DUP6 PUSH2 0x2DFE JUMP JUMPDEST POP SWAP4 SWAP3 POP POP POP JUMP JUMPDEST PUSH0 DUP3 PUSH1 0x1F DUP4 ADD SLT PUSH2 0x38E3 JUMPI PUSH2 0x38E2 PUSH2 0x2BE4 JUMP JUMPDEST JUMPDEST DUP2 MLOAD PUSH2 0x38F3 DUP5 DUP3 PUSH1 0x20 DUP7 ADD PUSH2 0x388E JUMP JUMPDEST SWAP2 POP POP SWAP3 SWAP2 POP POP JUMP JUMPDEST PUSH0 PUSH1 0x20 DUP3 DUP5 SUB SLT ISZERO PUSH2 0x3911 JUMPI PUSH2 0x3910 PUSH2 0x2A55 JUMP JUMPDEST JUMPDEST PUSH0 DUP3 ADD MLOAD PUSH8 0xFFFFFFFFFFFFFFFF DUP2 GT ISZERO PUSH2 0x392E JUMPI PUSH2 0x392D PUSH2 0x2A59 JUMP JUMPDEST JUMPDEST PUSH2 0x393A DUP5 DUP3 DUP6 ADD PUSH2 0x38CF JUMP JUMPDEST SWAP2 POP POP SWAP3 SWAP2 POP POP JUMP JUMPDEST PUSH32 0x41676772656761746F72436F6E73756D6572206973206E6F7420696E69746961 PUSH0 DUP3 ADD MSTORE PUSH32 0x6C697A6564210000000000000000000000000000000000000000000000000000 PUSH1 0x20 DUP3 ADD MSTORE POP JUMP JUMPDEST PUSH0 PUSH2 0x399D PUSH1 0x26 DUP4 PUSH2 0x2DEE JUMP JUMPDEST SWAP2 POP PUSH2 0x39A8 DUP3 PUSH2 0x3943 JUMP JUMPDEST PUSH1 0x40 DUP3 ADD SWAP1 POP SWAP2 SWAP1 POP JUMP JUMPDEST PUSH0 PUSH1 0x20 DUP3 ADD SWAP1 POP DUP2 DUP2 SUB PUSH0 DUP4 ADD MSTORE PUSH2 0x39CA DUP2 PUSH2 0x3991 JUMP JUMPDEST SWAP1 POP SWAP2 SWAP1 POP JUMP JUMPDEST PUSH32 0x506F6F6C436F6E73756D6572206973206E6F7420696E697469616C697A656421 PUSH0 DUP3 ADD MSTORE POP JUMP JUMPDEST PUSH0 PUSH2 0x3A05 PUSH1 0x20 DUP4 PUSH2 0x2DEE JUMP JUMPDEST SWAP2 POP PUSH2 0x3A10 DUP3 PUSH2 0x39D1 JUMP JUMPDEST PUSH1 0x20 DUP3 ADD SWAP1 POP SWAP2 SWAP1 POP JUMP JUMPDEST PUSH0 PUSH1 0x20 DUP3 ADD SWAP1 POP DUP2 DUP2 SUB PUSH0 DUP4 ADD MSTORE PUSH2 0x3A32 DUP2 PUSH2 0x39F9 JUMP JUMPDEST SWAP1 POP SWAP2 SWAP1 POP JUMP JUMPDEST PUSH32 0x4E6F2063686172676520616D6F756E7421000000000000000000000000000000 PUSH0 DUP3 ADD MSTORE POP JUMP JUMPDEST PUSH0 PUSH2 0x3A6D PUSH1 0x11 DUP4 PUSH2 0x2DEE JUMP JUMPDEST SWAP2 POP PUSH2 0x3A78 DUP3 PUSH2 0x3A39 JUMP JUMPDEST PUSH1 0x20 DUP3 ADD SWAP1 POP SWAP2 SWAP1 POP JUMP JUMPDEST PUSH0 PUSH1 0x20 DUP3 ADD SWAP1 POP DUP2 DUP2 SUB PUSH0 DUP4 ADD MSTORE PUSH2 0x3A9A DUP2 PUSH2 0x3A61 JUMP JUMPDEST SWAP1 POP SWAP2 SWAP1 POP JUMP JUMPDEST PUSH32 0x436865636B207468652000000000000000000000000000000000000000000000 DUP2 MSTORE POP JUMP JUMPDEST PUSH0 DUP2 SWAP1 POP SWAP3 SWAP2 POP POP JUMP JUMPDEST PUSH0 PUSH2 0x3ADB DUP3 PUSH2 0x2DE4 JUMP JUMPDEST PUSH2 0x3AE5 DUP2 DUP6 PUSH2 0x3AC7 JUMP JUMPDEST SWAP4 POP PUSH2 0x3AF5 DUP2 DUP6 PUSH1 0x20 DUP7 ADD PUSH2 0x2DFE JUMP JUMPDEST DUP1 DUP5 ADD SWAP2 POP POP SWAP3 SWAP2 POP POP JUMP JUMPDEST PUSH32 0x20746F6B656E2000000000000000000000000000000000000000000000000000 DUP2 MSTORE POP JUMP JUMPDEST PUSH32 0x616C6C6F77616E63652100000000000000000000000000000000000000000000 DUP2 MSTORE POP JUMP JUMPDEST PUSH0 PUSH2 0x3B57 DUP3 PUSH2 0x3AA1 JUMP JUMPDEST PUSH1 0xA DUP3 ADD SWAP2 POP PUSH2 0x3B67 DUP3 DUP5 PUSH2 0x3AD1 JUMP JUMPDEST SWAP2 POP PUSH2 0x3B72 DUP3 PUSH2 0x3B01 JUMP JUMPDEST PUSH1 0x7 DUP3 ADD SWAP2 POP PUSH2 0x3B81 DUP3 PUSH2 0x3B27 JUMP JUMPDEST PUSH1 0xA DUP3 ADD SWAP2 POP DUP2 SWAP1 POP SWAP3 SWAP2 POP POP JUMP JUMPDEST PUSH0 PUSH1 0x20 DUP3 ADD SWAP1 POP DUP2 DUP2 SUB PUSH0 DUP4 ADD MSTORE PUSH2 0x3BA8 DUP2 DUP5 PUSH2 0x2E36 JUMP JUMPDEST SWAP1 POP SWAP3 SWAP2 POP POP JUMP JUMPDEST PUSH32 0x72617465206572726F7221000000000000000000000000000000000000000000 PUSH0 DUP3 ADD MSTORE POP JUMP JUMPDEST PUSH0 PUSH2 0x3BE4 PUSH1 0xB DUP4 PUSH2 0x2DEE JUMP JUMPDEST SWAP2 POP PUSH2 0x3BEF DUP3 PUSH2 0x3BB0 JUMP JUMPDEST PUSH1 0x20 DUP3 ADD SWAP1 POP SWAP2 SWAP1 POP JUMP JUMPDEST PUSH0 PUSH1 0x20 DUP3 ADD SWAP1 POP DUP2 DUP2 SUB PUSH0 DUP4 ADD MSTORE PUSH2 0x3C11 DUP2 PUSH2 0x3BD8 JUMP JUMPDEST SWAP1 POP SWAP2 SWAP1 POP JUMP JUMPDEST PUSH0 PUSH2 0x3C22 DUP3 PUSH2 0x2A5D JUMP JUMPDEST SWAP2 POP PUSH2 0x3C2D DUP4 PUSH2 0x2A5D JUMP JUMPDEST SWAP3 POP DUP3 DUP3 ADD SWAP1 POP DUP1 DUP3 GT ISZERO PUSH2 0x3C45 JUMPI PUSH2 0x3C44 PUSH2 0x3079 JUMP JUMPDEST JUMPDEST SWAP3 SWAP2 POP POP JUMP JUMPDEST PUSH0 PUSH1 0x80 DUP3 ADD SWAP1 POP PUSH2 0x3C5E PUSH0 DUP4 ADD DUP8 PUSH2 0x2B89 JUMP JUMPDEST PUSH2 0x3C6B PUSH1 0x20 DUP4 ADD DUP7 PUSH2 0x2B89 JUMP JUMPDEST PUSH2 0x3C78 PUSH1 0x40 DUP4 ADD DUP6 PUSH2 0x2B89 JUMP JUMPDEST DUP2 DUP2 SUB PUSH1 0x60 DUP4 ADD MSTORE PUSH2 0x3C8A DUP2 DUP5 PUSH2 0x2E36 JUMP JUMPDEST SWAP1 POP SWAP6 SWAP5 POP POP POP POP POP JUMP JUMPDEST PUSH32 0x4F776E61626C653A206E6577206F776E657220697320746865207A65726F2061 PUSH0 DUP3 ADD MSTORE PUSH32 0x6464726573730000000000000000000000000000000000000000000000000000 PUSH1 0x20 DUP3 ADD MSTORE POP JUMP JUMPDEST PUSH0 PUSH2 0x3CEF PUSH1 0x26 DUP4 PUSH2 0x2DEE JUMP JUMPDEST SWAP2 POP PUSH2 0x3CFA DUP3 PUSH2 0x3C95 JUMP JUMPDEST PUSH1 0x40 DUP3 ADD SWAP1 POP SWAP2 SWAP1 POP JUMP JUMPDEST PUSH0 PUSH1 0x20 DUP3 ADD SWAP1 POP DUP2 DUP2 SUB PUSH0 DUP4 ADD MSTORE PUSH2 0x3D1C DUP2 PUSH2 0x3CE3 JUMP JUMPDEST SWAP1 POP SWAP2 SWAP1 POP JUMP JUMPDEST PUSH32 0x4F776E61626C653A2063616C6C6572206973206E6F7420746865206F776E6572 PUSH0 DUP3 ADD MSTORE POP JUMP JUMPDEST PUSH0 PUSH2 0x3D57 PUSH1 0x20 DUP4 PUSH2 0x2DEE JUMP JUMPDEST SWAP2 POP PUSH2 0x3D62 DUP3 PUSH2 0x3D23 JUMP JUMPDEST PUSH1 0x20 DUP3 ADD SWAP1 POP SWAP2 SWAP1 POP JUMP JUMPDEST PUSH0 PUSH1 0x20 DUP3 ADD SWAP1 POP DUP2 DUP2 SUB PUSH0 DUP4 ADD MSTORE PUSH2 0x3D84 DUP2 PUSH2 0x3D4B JUMP JUMPDEST SWAP1 POP SWAP2 SWAP1 POP JUMP JUMPDEST PUSH32 0x5061757361626C653A206E6F7420706175736564000000000000000000000000 PUSH0 DUP3 ADD MSTORE POP JUMP JUMPDEST PUSH0 PUSH2 0x3DBF PUSH1 0x14 DUP4 PUSH2 0x2DEE JUMP JUMPDEST SWAP2 POP PUSH2 0x3DCA DUP3 PUSH2 0x3D8B JUMP JUMPDEST PUSH1 0x20 DUP3 ADD SWAP1 POP SWAP2 SWAP1 POP JUMP JUMPDEST PUSH0 PUSH1 0x20 DUP3 ADD SWAP1 POP DUP2 DUP2 SUB PUSH0 DUP4 ADD MSTORE PUSH2 0x3DEC DUP2 PUSH2 0x3DB3 JUMP JUMPDEST SWAP1 POP SWAP2 SWAP1 POP JUMP JUMPDEST PUSH32 0x5061757361626C653A2070617573656400000000000000000000000000000000 PUSH0 DUP3 ADD MSTORE POP JUMP JUMPDEST PUSH0 PUSH2 0x3E27 PUSH1 0x10 DUP4 PUSH2 0x2DEE JUMP JUMPDEST SWAP2 POP PUSH2 0x3E32 DUP3 PUSH2 0x3DF3 JUMP JUMPDEST PUSH1 0x20 DUP3 ADD SWAP1 POP SWAP2 SWAP1 POP JUMP JUMPDEST PUSH0 PUSH1 0x20 DUP3 ADD SWAP1 POP DUP2 DUP2 SUB PUSH0 DUP4 ADD MSTORE PUSH2 0x3E54 DUP2 PUSH2 0x3E1B JUMP JUMPDEST SWAP1 POP SWAP2 SWAP1 POP JUMP JUMPDEST PUSH0 DUP1 PUSH0 DUP1 PUSH1 0x80 DUP6 DUP8 SUB SLT ISZERO PUSH2 0x3E73 JUMPI PUSH2 0x3E72 PUSH2 0x2A55 JUMP JUMPDEST JUMPDEST PUSH0 PUSH2 0x3E80 DUP8 DUP3 DUP9 ADD PUSH2 0x34FE JUMP JUMPDEST SWAP5 POP POP PUSH1 0x20 PUSH2 0x3E91 DUP8 DUP3 DUP9 ADD PUSH2 0x34FE JUMP JUMPDEST SWAP4 POP POP PUSH1 0x40 DUP6 ADD MLOAD PUSH8 0xFFFFFFFFFFFFFFFF DUP2 GT ISZERO PUSH2 0x3EB2 JUMPI PUSH2 0x3EB1 PUSH2 0x2A59 JUMP JUMPDEST JUMPDEST PUSH2 0x3EBE DUP8 DUP3 DUP9 ADD PUSH2 0x38CF JUMP JUMPDEST SWAP3 POP POP PUSH1 0x60 PUSH2 0x3ECF DUP8 DUP3 DUP9 ADD PUSH2 0x34FE JUMP JUMPDEST SWAP2 POP POP SWAP3 SWAP6 SWAP2 SWAP5 POP SWAP3 POP JUMP JUMPDEST PUSH0 PUSH1 0xA0 DUP3 ADD SWAP1 POP PUSH2 0x3EEE PUSH0 DUP4 ADD DUP9 PUSH2 0x2B89 JUMP JUMPDEST PUSH2 0x3EFB PUSH1 0x20 DUP4 ADD DUP8 PUSH2 0x2B89 JUMP JUMPDEST DUP2 DUP2 SUB PUSH1 0x40 DUP4 ADD MSTORE PUSH2 0x3F0D DUP2 DUP7 PUSH2 0x2E36 JUMP JUMPDEST SWAP1 POP PUSH2 0x3F1C PUSH1 0x60 DUP4 ADD DUP6 PUSH2 0x2B89 JUMP JUMPDEST DUP2 DUP2 SUB PUSH1 0x80 DUP4 ADD MSTORE PUSH2 0x3F2E DUP2 DUP5 PUSH2 0x2E36 JUMP JUMPDEST SWAP1 POP SWAP7 SWAP6 POP POP POP POP POP POP JUMP JUMPDEST PUSH0 PUSH1 0x60 DUP3 ADD SWAP1 POP PUSH2 0x3F4D PUSH0 DUP4 ADD DUP7 PUSH2 0x2B53 JUMP JUMPDEST PUSH2 0x3F5A PUSH1 0x20 DUP4 ADD DUP6 PUSH2 0x2B53 JUMP JUMPDEST PUSH2 0x3F67 PUSH1 0x40 DUP4 ADD DUP5 PUSH2 0x2B89 JUMP JUMPDEST SWAP5 SWAP4 POP POP POP POP JUMP JUMPDEST PUSH32 0x4E6F20746F6B656E7320746F206265206275726E656421000000000000000000 PUSH0 DUP3 ADD MSTORE POP JUMP JUMPDEST PUSH0 PUSH2 0x3FA3 PUSH1 0x17 DUP4 PUSH2 0x2DEE JUMP JUMPDEST SWAP2 POP PUSH2 0x3FAE DUP3 PUSH2 0x3F6F JUMP JUMPDEST PUSH1 0x20 DUP3 ADD SWAP1 POP SWAP2 SWAP1 POP JUMP JUMPDEST PUSH0 PUSH1 0x20 DUP3 ADD SWAP1 POP DUP2 DUP2 SUB PUSH0 DUP4 ADD MSTORE PUSH2 0x3FD0 DUP2 PUSH2 0x3F97 JUMP JUMPDEST SWAP1 POP SWAP2 SWAP1 POP JUMP JUMPDEST PUSH32 0x7472616E73616374696F6E207265766572746564206275726E20756E73756363 PUSH0 DUP3 ADD MSTORE PUSH32 0x657366756C6C2100000000000000000000000000000000000000000000000000 PUSH1 0x20 DUP3 ADD MSTORE POP JUMP JUMPDEST PUSH0 PUSH2 0x4031 PUSH1 0x27 DUP4 PUSH2 0x2DEE JUMP JUMPDEST SWAP2 POP PUSH2 0x403C DUP3 PUSH2 0x3FD7 JUMP JUMPDEST PUSH1 0x40 DUP3 ADD SWAP1 POP SWAP2 SWAP1 POP JUMP JUMPDEST PUSH0 PUSH1 0x20 DUP3 ADD SWAP1 POP DUP2 DUP2 SUB PUSH0 DUP4 ADD MSTORE PUSH2 0x405E DUP2 PUSH2 0x4025 JUMP JUMPDEST SWAP1 POP SWAP2 SWAP1 POP JUMP JUMPDEST PUSH32 0x5361666545524332303A204552433230206F7065726174696F6E20646964206E PUSH0 DUP3 ADD MSTORE PUSH32 0x6F74207375636365656400000000000000000000000000000000000000000000 PUSH1 0x20 DUP3 ADD MSTORE POP JUMP JUMPDEST PUSH0 PUSH2 0x40BF PUSH1 0x2A DUP4 PUSH2 0x2DEE JUMP JUMPDEST SWAP2 POP PUSH2 0x40CA DUP3 PUSH2 0x4065 JUMP JUMPDEST PUSH1 0x40 DUP3 ADD SWAP1 POP SWAP2 SWAP1 POP JUMP JUMPDEST PUSH0 PUSH1 0x20 DUP3 ADD SWAP1 POP DUP2 DUP2 SUB PUSH0 DUP4 ADD MSTORE PUSH2 0x40EC DUP2 PUSH2 0x40B3 JUMP JUMPDEST SWAP1 POP SWAP2 SWAP1 POP JUMP JUMPDEST PUSH32 0x416464726573733A20696E73756666696369656E742062616C616E636520666F PUSH0 DUP3 ADD MSTORE PUSH32 0x722063616C6C0000000000000000000000000000000000000000000000000000 PUSH1 0x20 DUP3 ADD MSTORE POP JUMP JUMPDEST PUSH0 PUSH2 0x414D PUSH1 0x26 DUP4 PUSH2 0x2DEE JUMP JUMPDEST SWAP2 POP PUSH2 0x4158 DUP3 PUSH2 0x40F3 JUMP JUMPDEST PUSH1 0x40 DUP3 ADD SWAP1 POP SWAP2 SWAP1 POP JUMP JUMPDEST PUSH0 PUSH1 0x20 DUP3 ADD SWAP1 POP DUP2 DUP2 SUB PUSH0 DUP4 ADD MSTORE PUSH2 0x417A DUP2 PUSH2 0x4141 JUMP JUMPDEST SWAP1 POP SWAP2 SWAP1 POP JUMP JUMPDEST PUSH32 0x416464726573733A2063616C6C20746F206E6F6E2D636F6E7472616374000000 PUSH0 DUP3 ADD MSTORE POP JUMP JUMPDEST PUSH0 PUSH2 0x41B5 PUSH1 0x1D DUP4 PUSH2 0x2DEE JUMP JUMPDEST SWAP2 POP PUSH2 0x41C0 DUP3 PUSH2 0x4181 JUMP JUMPDEST PUSH1 0x20 DUP3 ADD SWAP1 POP SWAP2 SWAP1 POP JUMP JUMPDEST PUSH0 PUSH1 0x20 DUP3 ADD SWAP1 POP DUP2 DUP2 SUB PUSH0 DUP4 ADD MSTORE PUSH2 0x41E2 DUP2 PUSH2 0x41A9 JUMP JUMPDEST SWAP1 POP SWAP2 SWAP1 POP JUMP JUMPDEST PUSH0 DUP2 MLOAD SWAP1 POP SWAP2 SWAP1 POP JUMP JUMPDEST PUSH0 DUP2 SWAP1 POP SWAP3 SWAP2 POP POP JUMP JUMPDEST PUSH0 PUSH2 0x4207 DUP3 PUSH2 0x41E9 JUMP JUMPDEST PUSH2 0x4211 DUP2 DUP6 PUSH2 0x41F3 JUMP JUMPDEST SWAP4 POP PUSH2 0x4221 DUP2 DUP6 PUSH1 0x20 DUP7 ADD PUSH2 0x2DFE JUMP JUMPDEST DUP1 DUP5 ADD SWAP2 POP POP SWAP3 SWAP2 POP POP JUMP JUMPDEST PUSH0 PUSH2 0x4238 DUP3 DUP5 PUSH2 0x41FD JUMP JUMPDEST SWAP2 POP DUP2 SWAP1 POP SWAP3 SWAP2 POP POP JUMP INVALID LOG2 PUSH5 0x6970667358 0x22 SLT KECCAK256 BYTE DUP16 0xF7 SWAP8 STATICCALL SWAP13 SELFDESTRUCT 0x1E 0xCE PUSH31 0x7BFE59A7E5F471B316A9DB5EAC64074A2AE36B0AF4F364736F6C6343000817 STOP CALLER "
				},
				"gasEstimates": {
					"creation": {
						"codeDepositCost": "3403400",
						"executionCost": "infinite",
						"totalCost": "infinite"
					},
					"external": {
						"activate()": "infinite",
						"addNewAggregatorPriceFeed(address)": "27151",
						"addNewPoolRateFeed(address)": "27128",
						"balanceOf()": "infinite",
						"balanceOfToken(address)": "infinite",
						"bulkWithdraw(uint256,address[],uint256[])": "infinite",
						"calculateAmount(uint256,uint256,uint256)": "infinite",
						"changeAcceptedSenderAddress(address)": "30360",
						"changeRateFeed()": "35627",
						"chargeContract(uint256)": "infinite",
						"checkAllowance()": "infinite",
						"currentRateFeed()": "infinite",
						"deactivate()": "32619",
						"getActivatorAndAcceptedSenderAddress()": "infinite",
						"getPointsBalance()": "9119",
						"getTokenInfo()": "infinite",
						"getTotalBurnedTokens()": "9098",
						"getTotalPointsGenerated()": "9163",
						"owner()": "2633",
						"paused()": "2518",
						"renounceOwnership()": "30653",
						"resume()": "infinite",
						"stop()": "infinite",
						"transferOfToken(address,address,uint256)": "infinite",
						"transferOwnership(address)": "30993",
						"withdraw(uint256,address)": "infinite"
					},
					"internal": {
						"burnIncomingTokens(uint256)": "infinite",
						"calculatePoints(uint256,uint256,uint256)": "infinite",
						"currentFeed()": "infinite",
						"getRate()": "infinite"
					}
				},
				"methodIdentifiers": {
					"activate()": "0f15f4c0",
					"addNewAggregatorPriceFeed(address)": "0a6cb062",
					"addNewPoolRateFeed(address)": "b0b5e39e",
					"balanceOf()": "722713f7",
					"balanceOfToken(address)": "b99152d0",
					"bulkWithdraw(uint256,address[],uint256[])": "615adcb4",
					"calculateAmount(uint256,uint256,uint256)": "7754723e",
					"changeAcceptedSenderAddress(address)": "0ba2f1d8",
					"changeRateFeed()": "e8088766",
					"chargeContract(uint256)": "ed969c84",
					"checkAllowance()": "9405de64",
					"currentRateFeed()": "e6367ebe",
					"deactivate()": "51b42b00",
					"getActivatorAndAcceptedSenderAddress()": "0f0ccf61",
					"getPointsBalance()": "8eb89a61",
					"getTokenInfo()": "abb1dc44",
					"getTotalBurnedTokens()": "2af0e251",
					"getTotalPointsGenerated()": "a684ab5c",
					"owner()": "8da5cb5b",
					"paused()": "5c975abb",
					"renounceOwnership()": "715018a6",
					"resume()": "046f7da2",
					"stop()": "07da68f5",
					"transferOfToken(address,address,uint256)": "6a9d43dd",
					"transferOwnership(address)": "f2fde38b",
					"withdraw(uint256,address)": "00f714ce"
				}
			},
			"storageLayout": {
				"storage": [
					{
						"astId": 130,
						"contract": "token_eco_system_dev_contracts/contracts_ready_for_prod/Copy_TokenEcoSystemParticipationV1_1.sol:TokenEcoSystemParticipation",
						"label": "_paused",
						"offset": 0,
						"slot": "0",
						"type": "t_bool"
					},
					{
						"astId": 7,
						"contract": "token_eco_system_dev_contracts/contracts_ready_for_prod/Copy_TokenEcoSystemParticipationV1_1.sol:TokenEcoSystemParticipation",
						"label": "_owner",
						"offset": 1,
						"slot": "0",
						"type": "t_address"
					},
					{
						"astId": 1013,
						"contract": "token_eco_system_dev_contracts/contracts_ready_for_prod/Copy_TokenEcoSystemParticipationV1_1.sol:TokenEcoSystemParticipation",
						"label": "acceptedSenderAddress",
						"offset": 0,
						"slot": "1",
						"type": "t_address"
					},
					{
						"astId": 1016,
						"contract": "token_eco_system_dev_contracts/contracts_ready_for_prod/Copy_TokenEcoSystemParticipationV1_1.sol:TokenEcoSystemParticipation",
						"label": "poolRateFeed",
						"offset": 20,
						"slot": "1",
						"type": "t_bool"
					},
					{
						"astId": 1019,
						"contract": "token_eco_system_dev_contracts/contracts_ready_for_prod/Copy_TokenEcoSystemParticipationV1_1.sol:TokenEcoSystemParticipation",
						"label": "totalBurned",
						"offset": 0,
						"slot": "2",
						"type": "t_uint256"
					},
					{
						"astId": 1022,
						"contract": "token_eco_system_dev_contracts/contracts_ready_for_prod/Copy_TokenEcoSystemParticipationV1_1.sol:TokenEcoSystemParticipation",
						"label": "totalConverted",
						"offset": 0,
						"slot": "3",
						"type": "t_uint256"
					},
					{
						"astId": 1025,
						"contract": "token_eco_system_dev_contracts/contracts_ready_for_prod/Copy_TokenEcoSystemParticipationV1_1.sol:TokenEcoSystemParticipation",
						"label": "pointsBalance",
						"offset": 0,
						"slot": "4",
						"type": "t_uint256"
					},
					{
						"astId": 1028,
						"contract": "token_eco_system_dev_contracts/contracts_ready_for_prod/Copy_TokenEcoSystemParticipationV1_1.sol:TokenEcoSystemParticipation",
						"label": "aggregatorConsumer",
						"offset": 0,
						"slot": "5",
						"type": "t_contract(AggregatorConsumerInterface)976"
					},
					{
						"astId": 1031,
						"contract": "token_eco_system_dev_contracts/contracts_ready_for_prod/Copy_TokenEcoSystemParticipationV1_1.sol:TokenEcoSystemParticipation",
						"label": "poolConsumer",
						"offset": 0,
						"slot": "6",
						"type": "t_contract(PoolConsumerInterface)988"
					}
				],
				"types": {
					"t_address": {
						"encoding": "inplace",
						"label": "address",
						"numberOfBytes": "20"
					},
					"t_bool": {
						"encoding": "inplace",
						"label": "bool",
						"numberOfBytes": "1"
					},
					"t_contract(AggregatorConsumerInterface)976": {
						"encoding": "inplace",
						"label": "contract AggregatorConsumerInterface",
						"numberOfBytes": "20"
					},
					"t_contract(PoolConsumerInterface)988": {
						"encoding": "inplace",
						"label": "contract PoolConsumerInterface",
						"numberOfBytes": "20"
					},
					"t_uint256": {
						"encoding": "inplace",
						"label": "uint256",
						"numberOfBytes": "32"
					}
				}
			},
			"userdoc": {
				"kind": "user",
				"methods": {},
				"version": 1
			}
		}
	}
}