{
	"token_eco_system_dev_contracts/contracts_ready_for_prod/TokenEcoSystemParticipationV1_0.sol": {
		"TokenEcoSystemParticipation": {
			"abi": [
				{
					"inputs": [
						{
							"internalType": "address",
							"name": "_acceptedTokens",
							"type": "address"
						},
						{
							"internalType": "address",
							"name": "_activator",
							"type": "address"
						}
					],
					"stateMutability": "nonpayable",
					"type": "constructor"
				},
				{
					"anonymous": false,
					"inputs": [
						{
							"indexed": true,
							"internalType": "address",
							"name": "activator",
							"type": "address"
						},
						{
							"indexed": false,
							"internalType": "uint256",
							"name": "timestamp",
							"type": "uint256"
						}
					],
					"name": "Activate",
					"type": "event"
				},
				{
					"anonymous": false,
					"inputs": [
						{
							"indexed": false,
							"internalType": "uint256",
							"name": "chargeRate",
							"type": "uint256"
						},
						{
							"indexed": false,
							"internalType": "uint256",
							"name": "chargeRatedecimals",
							"type": "uint256"
						},
						{
							"indexed": false,
							"internalType": "uint256",
							"name": "chargeRateDate",
							"type": "uint256"
						},
						{
							"indexed": false,
							"internalType": "string",
							"name": "chargeRateString",
							"type": "string"
						},
						{
							"indexed": true,
							"internalType": "uint256",
							"name": "chargedPoints",
							"type": "uint256"
						},
						{
							"indexed": true,
							"internalType": "uint256",
							"name": "burnedTokens",
							"type": "uint256"
						},
						{
							"indexed": true,
							"internalType": "uint256",
							"name": "chargeDate",
							"type": "uint256"
						}
					],
					"name": "ChargeContract",
					"type": "event"
				},
				{
					"anonymous": false,
					"inputs": [
						{
							"indexed": true,
							"internalType": "address",
							"name": "deactivator",
							"type": "address"
						},
						{
							"indexed": false,
							"internalType": "uint256",
							"name": "timestamp",
							"type": "uint256"
						}
					],
					"name": "Deactivate",
					"type": "event"
				},
				{
					"anonymous": false,
					"inputs": [
						{
							"indexed": false,
							"internalType": "uint256",
							"name": "rate",
							"type": "uint256"
						},
						{
							"indexed": false,
							"internalType": "uint256",
							"name": "decimals",
							"type": "uint256"
						},
						{
							"indexed": false,
							"internalType": "string",
							"name": "rateString",
							"type": "string"
						},
						{
							"indexed": false,
							"internalType": "uint256",
							"name": "date",
							"type": "uint256"
						},
						{
							"indexed": false,
							"internalType": "string",
							"name": "feed",
							"type": "string"
						}
					],
					"name": "GetRate",
					"type": "event"
				},
				{
					"anonymous": false,
					"inputs": [
						{
							"indexed": true,
							"internalType": "address",
							"name": "newAcceptedSender",
							"type": "address"
						}
					],
					"name": "NewAcceptedSender",
					"type": "event"
				},
				{
					"anonymous": false,
					"inputs": [
						{
							"indexed": true,
							"internalType": "address",
							"name": "previousOwner",
							"type": "address"
						},
						{
							"indexed": true,
							"internalType": "address",
							"name": "newOwner",
							"type": "address"
						}
					],
					"name": "OwnershipTransferred",
					"type": "event"
				},
				{
					"anonymous": false,
					"inputs": [
						{
							"indexed": false,
							"internalType": "address",
							"name": "account",
							"type": "address"
						}
					],
					"name": "Paused",
					"type": "event"
				},
				{
					"anonymous": false,
					"inputs": [
						{
							"indexed": true,
							"internalType": "uint256",
							"name": "timestamp",
							"type": "uint256"
						},
						{
							"indexed": false,
							"internalType": "uint256",
							"name": "value",
							"type": "uint256"
						}
					],
					"name": "TotalDailyWithdraws",
					"type": "event"
				},
				{
					"anonymous": false,
					"inputs": [
						{
							"indexed": false,
							"internalType": "address",
							"name": "account",
							"type": "address"
						}
					],
					"name": "Unpaused",
					"type": "event"
				},
				{
					"anonymous": false,
					"inputs": [
						{
							"indexed": true,
							"internalType": "uint256",
							"name": "timestamp",
							"type": "uint256"
						},
						{
							"indexed": false,
							"internalType": "uint256",
							"name": "value",
							"type": "uint256"
						},
						{
							"indexed": true,
							"internalType": "address",
							"name": "wallet",
							"type": "address"
						}
					],
					"name": "Withdraw",
					"type": "event"
				},
				{
					"inputs": [],
					"name": "activate",
					"outputs": [],
					"stateMutability": "nonpayable",
					"type": "function"
				},
				{
					"inputs": [
						{
							"internalType": "address",
							"name": "consumerInterfaceAddress",
							"type": "address"
						}
					],
					"name": "addNewAggregatorPriceFeed",
					"outputs": [],
					"stateMutability": "nonpayable",
					"type": "function"
				},
				{
					"inputs": [
						{
							"internalType": "address",
							"name": "consumerInterfaceAddress",
							"type": "address"
						}
					],
					"name": "addNewPoolRateFeed",
					"outputs": [],
					"stateMutability": "nonpayable",
					"type": "function"
				},
				{
					"inputs": [],
					"name": "balanceOf",
					"outputs": [
						{
							"internalType": "uint256",
							"name": "",
							"type": "uint256"
						}
					],
					"stateMutability": "view",
					"type": "function"
				},
				{
					"inputs": [
						{
							"internalType": "address",
							"name": "tokenAddress",
							"type": "address"
						}
					],
					"name": "balanceOfToken",
					"outputs": [
						{
							"internalType": "uint256",
							"name": "",
							"type": "uint256"
						}
					],
					"stateMutability": "view",
					"type": "function"
				},
				{
					"inputs": [
						{
							"internalType": "uint256",
							"name": "points",
							"type": "uint256"
						},
						{
							"internalType": "uint256",
							"name": "rate",
							"type": "uint256"
						},
						{
							"internalType": "uint256",
							"name": "decimals",
							"type": "uint256"
						}
					],
					"name": "calculateAmount",
					"outputs": [
						{
							"internalType": "uint256",
							"name": "",
							"type": "uint256"
						}
					],
					"stateMutability": "view",
					"type": "function"
				},
				{
					"inputs": [
						{
							"internalType": "address",
							"name": "newAcceptedSender",
							"type": "address"
						}
					],
					"name": "changeAcceptedSenderAddress",
					"outputs": [],
					"stateMutability": "nonpayable",
					"type": "function"
				},
				{
					"inputs": [],
					"name": "changeRateFeed",
					"outputs": [],
					"stateMutability": "nonpayable",
					"type": "function"
				},
				{
					"inputs": [
						{
							"internalType": "uint256",
							"name": "amount",
							"type": "uint256"
						}
					],
					"name": "chargeContract",
					"outputs": [
						{
							"internalType": "bool",
							"name": "",
							"type": "bool"
						}
					],
					"stateMutability": "nonpayable",
					"type": "function"
				},
				{
					"inputs": [],
					"name": "checkAllowance",
					"outputs": [
						{
							"internalType": "uint256",
							"name": "",
							"type": "uint256"
						}
					],
					"stateMutability": "view",
					"type": "function"
				},
				{
					"inputs": [],
					"name": "currentRateFeed",
					"outputs": [
						{
							"internalType": "string",
							"name": "",
							"type": "string"
						}
					],
					"stateMutability": "view",
					"type": "function"
				},
				{
					"inputs": [],
					"name": "currentRateFeedAddress",
					"outputs": [
						{
							"internalType": "address",
							"name": "",
							"type": "address"
						}
					],
					"stateMutability": "view",
					"type": "function"
				},
				{
					"inputs": [],
					"name": "deactivate",
					"outputs": [],
					"stateMutability": "nonpayable",
					"type": "function"
				},
				{
					"inputs": [],
					"name": "getAcceptedSenderAddress",
					"outputs": [
						{
							"internalType": "address",
							"name": "",
							"type": "address"
						}
					],
					"stateMutability": "view",
					"type": "function"
				},
				{
					"inputs": [],
					"name": "getInitialActivationAddress",
					"outputs": [
						{
							"internalType": "address",
							"name": "",
							"type": "address"
						}
					],
					"stateMutability": "view",
					"type": "function"
				},
				{
					"inputs": [],
					"name": "getPointsBalance",
					"outputs": [
						{
							"internalType": "uint256",
							"name": "",
							"type": "uint256"
						}
					],
					"stateMutability": "view",
					"type": "function"
				},
				{
					"inputs": [],
					"name": "getTokenInfo",
					"outputs": [
						{
							"internalType": "address",
							"name": "",
							"type": "address"
						},
						{
							"internalType": "string",
							"name": "",
							"type": "string"
						}
					],
					"stateMutability": "view",
					"type": "function"
				},
				{
					"inputs": [],
					"name": "getTotalBurnedTokens",
					"outputs": [
						{
							"internalType": "uint256",
							"name": "",
							"type": "uint256"
						}
					],
					"stateMutability": "view",
					"type": "function"
				},
				{
					"inputs": [],
					"name": "getTotalPointsGenerated",
					"outputs": [
						{
							"internalType": "uint256",
							"name": "",
							"type": "uint256"
						}
					],
					"stateMutability": "view",
					"type": "function"
				},
				{
					"inputs": [],
					"name": "owner",
					"outputs": [
						{
							"internalType": "address",
							"name": "",
							"type": "address"
						}
					],
					"stateMutability": "view",
					"type": "function"
				},
				{
					"inputs": [],
					"name": "paused",
					"outputs": [
						{
							"internalType": "bool",
							"name": "",
							"type": "bool"
						}
					],
					"stateMutability": "view",
					"type": "function"
				},
				{
					"inputs": [],
					"name": "renounceOwnership",
					"outputs": [],
					"stateMutability": "nonpayable",
					"type": "function"
				},
				{
					"inputs": [],
					"name": "resume",
					"outputs": [],
					"stateMutability": "nonpayable",
					"type": "function"
				},
				{
					"inputs": [],
					"name": "stop",
					"outputs": [],
					"stateMutability": "nonpayable",
					"type": "function"
				},
				{
					"inputs": [
						{
							"internalType": "address",
							"name": "tokenAddress",
							"type": "address"
						},
						{
							"internalType": "address",
							"name": "receiver",
							"type": "address"
						},
						{
							"internalType": "uint256",
							"name": "amount",
							"type": "uint256"
						}
					],
					"name": "transferOfToken",
					"outputs": [
						{
							"internalType": "bool",
							"name": "",
							"type": "bool"
						}
					],
					"stateMutability": "nonpayable",
					"type": "function"
				},
				{
					"inputs": [
						{
							"internalType": "address",
							"name": "newOwner",
							"type": "address"
						}
					],
					"name": "transferOwnership",
					"outputs": [],
					"stateMutability": "nonpayable",
					"type": "function"
				},
				{
					"inputs": [
						{
							"internalType": "uint256",
							"name": "value",
							"type": "uint256"
						},
						{
							"internalType": "address",
							"name": "wallet",
							"type": "address"
						}
					],
					"name": "withdraw",
					"outputs": [],
					"stateMutability": "nonpayable",
					"type": "function"
				}
			],
			"devdoc": {
				"events": {
					"Paused(address)": {
						"details": "Emitted when the pause is triggered by `account`."
					},
					"Unpaused(address)": {
						"details": "Emitted when the pause is lifted by `account`."
					}
				},
				"kind": "dev",
				"methods": {
					"owner()": {
						"details": "Returns the address of the current owner."
					},
					"paused()": {
						"details": "Returns true if the contract is paused, and false otherwise."
					},
					"renounceOwnership()": {
						"details": "Leaves the contract without owner. It will not be possible to call `onlyOwner` functions anymore. Can only be called by the current owner. NOTE: Renouncing ownership will leave the contract without an owner, thereby removing any functionality that is only available to the owner."
					},
					"transferOwnership(address)": {
						"details": "Transfers ownership of the contract to a new account (`newOwner`). Can only be called by the current owner."
					}
				},
				"version": 1
			},
			"evm": {
				"assembly": "    /* \"token_eco_system_dev_contracts/contracts_ready_for_prod/TokenEcoSystemParticipationV1_0.sol\":1599:12689  contract TokenEcoSystemParticipation is Pausable, Ownable {... */\n  mstore(0x40, 0xc0)\n    /* \"token_eco_system_dev_contracts/contracts_ready_for_prod/TokenEcoSystemParticipationV1_0.sol\":1909:1913  true */\n  0x01\n    /* \"token_eco_system_dev_contracts/contracts_ready_for_prod/TokenEcoSystemParticipationV1_0.sol\":1889:1913  bool poolRateFeed = true */\n  dup1\n  exp(0x0100, 0x14)\n  dup2\n  sload\n  dup2\n  0xff\n  mul\n  not\n  and\n  swap1\n  dup4\n  iszero\n  iszero\n  mul\n  or\n  swap1\n  sstore\n  pop\n    /* \"token_eco_system_dev_contracts/contracts_ready_for_prod/TokenEcoSystemParticipationV1_0.sol\":1949:1950  0 */\n  0x00\n    /* \"token_eco_system_dev_contracts/contracts_ready_for_prod/TokenEcoSystemParticipationV1_0.sol\":1919:1950  uint256 private totalBurned = 0 */\n  0x02\n  sstore\n    /* \"token_eco_system_dev_contracts/contracts_ready_for_prod/TokenEcoSystemParticipationV1_0.sol\":1989:1990  0 */\n  0x00\n    /* \"token_eco_system_dev_contracts/contracts_ready_for_prod/TokenEcoSystemParticipationV1_0.sol\":1956:1990  uint256 private totalConverted = 0 */\n  0x03\n  sstore\n    /* \"token_eco_system_dev_contracts/contracts_ready_for_prod/TokenEcoSystemParticipationV1_0.sol\":2028:2029  0 */\n  0x00\n    /* \"token_eco_system_dev_contracts/contracts_ready_for_prod/TokenEcoSystemParticipationV1_0.sol\":1996:2029  uint256 private pointsBalance = 0 */\n  0x04\n  sstore\n    /* \"token_eco_system_dev_contracts/contracts_ready_for_prod/TokenEcoSystemParticipationV1_0.sol\":3430:3626  constructor(address _acceptedTokens, address _activator) {... */\n  callvalue\n  dup1\n  iszero\n  tag_1\n  jumpi\n  0x00\n  dup1\n  revert\ntag_1:\n  pop\n  mload(0x40)\n  sub(codesize, bytecodeSize)\n  dup1\n  bytecodeSize\n  dup4\n  codecopy\n  dup2\n  dup2\n  add\n  0x40\n  mstore\n  dup2\n  add\n  swap1\n  tag_2\n  swap2\n  swap1\n  tag_3\n  jump\t// in\ntag_2:\n    /* \"@openzeppelin/contracts/security/Pausable.sol\":1006:1011  false */\n  0x00\n    /* \"@openzeppelin/contracts/security/Pausable.sol\":996:1003  _paused */\n  dup1\n  0x00\n    /* \"@openzeppelin/contracts/security/Pausable.sol\":996:1011  _paused = false */\n  0x0100\n  exp\n  dup2\n  sload\n  dup2\n  0xff\n  mul\n  not\n  and\n  swap1\n  dup4\n  iszero\n  iszero\n  mul\n  or\n  swap1\n  sstore\n  pop\n    /* \"@openzeppelin/contracts/access/Ownable.sol\":936:968  _transferOwnership(_msgSender()) */\n  tag_9\n    /* \"@openzeppelin/contracts/access/Ownable.sol\":955:967  _msgSender() */\n  tag_10\n    /* \"@openzeppelin/contracts/access/Ownable.sol\":955:965  _msgSender */\n  shl(0x20, tag_11)\n    /* \"@openzeppelin/contracts/access/Ownable.sol\":955:967  _msgSender() */\n  0x20\n  shr\n  jump\t// in\ntag_10:\n    /* \"@openzeppelin/contracts/access/Ownable.sol\":936:954  _transferOwnership */\n  shl(0x20, tag_12)\n    /* \"@openzeppelin/contracts/access/Ownable.sol\":936:968  _transferOwnership(_msgSender()) */\n  0x20\n  shr\n  jump\t// in\ntag_9:\n    /* \"token_eco_system_dev_contracts/contracts_ready_for_prod/TokenEcoSystemParticipationV1_0.sol\":3527:3528  0 */\n  0x00\n    /* \"token_eco_system_dev_contracts/contracts_ready_for_prod/TokenEcoSystemParticipationV1_0.sol\":3505:3529  _activator != address(0) */\n  0xffffffffffffffffffffffffffffffffffffffff\n  and\n    /* \"token_eco_system_dev_contracts/contracts_ready_for_prod/TokenEcoSystemParticipationV1_0.sol\":3505:3515  _activator */\n  dup2\n    /* \"token_eco_system_dev_contracts/contracts_ready_for_prod/TokenEcoSystemParticipationV1_0.sol\":3505:3529  _activator != address(0) */\n  0xffffffffffffffffffffffffffffffffffffffff\n  and\n  sub\n    /* \"token_eco_system_dev_contracts/contracts_ready_for_prod/TokenEcoSystemParticipationV1_0.sol\":3497:3530  require(_activator != address(0)) */\n  tag_14\n  jumpi\n  0x00\n  dup1\n  revert\ntag_14:\n    /* \"token_eco_system_dev_contracts/contracts_ready_for_prod/TokenEcoSystemParticipationV1_0.sol\":3552:3562  _activator */\n  dup1\n    /* \"token_eco_system_dev_contracts/contracts_ready_for_prod/TokenEcoSystemParticipationV1_0.sol\":3540:3562  activator = _activator */\n  0xffffffffffffffffffffffffffffffffffffffff\n  and\n  0x80\n  dup2\n  0xffffffffffffffffffffffffffffffffffffffff\n  and\n  dup2\n  mstore\n  pop\n  pop\n    /* \"token_eco_system_dev_contracts/contracts_ready_for_prod/TokenEcoSystemParticipationV1_0.sol\":3603:3618  _acceptedTokens */\n  dup2\n    /* \"token_eco_system_dev_contracts/contracts_ready_for_prod/TokenEcoSystemParticipationV1_0.sol\":3572:3619  token = ERC20BurnableInterface(_acceptedTokens) */\n  0xffffffffffffffffffffffffffffffffffffffff\n  and\n  0xa0\n  dup2\n  0xffffffffffffffffffffffffffffffffffffffff\n  and\n  dup2\n  mstore\n  pop\n  pop\n    /* \"token_eco_system_dev_contracts/contracts_ready_for_prod/TokenEcoSystemParticipationV1_0.sol\":3430:3626  constructor(address _acceptedTokens, address _activator) {... */\n  pop\n  pop\n    /* \"token_eco_system_dev_contracts/contracts_ready_for_prod/TokenEcoSystemParticipationV1_0.sol\":1599:12689  contract TokenEcoSystemParticipation is Pausable, Ownable {... */\n  jump(tag_15)\n    /* \"@openzeppelin/contracts/utils/Context.sol\":640:736  function _msgSender() internal view virtual returns (address) {... */\ntag_11:\n    /* \"@openzeppelin/contracts/utils/Context.sol\":693:700  address */\n  0x00\n    /* \"@openzeppelin/contracts/utils/Context.sol\":719:729  msg.sender */\n  caller\n    /* \"@openzeppelin/contracts/utils/Context.sol\":712:729  return msg.sender */\n  swap1\n  pop\n    /* \"@openzeppelin/contracts/utils/Context.sol\":640:736  function _msgSender() internal view virtual returns (address) {... */\n  swap1\n  jump\t// out\n    /* \"@openzeppelin/contracts/access/Ownable.sol\":2433:2620  function _transferOwnership(address newOwner) internal virtual {... */\ntag_12:\n    /* \"@openzeppelin/contracts/access/Ownable.sol\":2506:2522  address oldOwner */\n  0x00\n    /* \"@openzeppelin/contracts/access/Ownable.sol\":2525:2531  _owner */\n  dup1\n  0x01\n  swap1\n  sload\n  swap1\n  0x0100\n  exp\n  swap1\n  div\n  0xffffffffffffffffffffffffffffffffffffffff\n  and\n    /* \"@openzeppelin/contracts/access/Ownable.sol\":2506:2531  address oldOwner = _owner */\n  swap1\n  pop\n    /* \"@openzeppelin/contracts/access/Ownable.sol\":2550:2558  newOwner */\n  dup2\n    /* \"@openzeppelin/contracts/access/Ownable.sol\":2541:2547  _owner */\n  0x00\n  0x01\n    /* \"@openzeppelin/contracts/access/Ownable.sol\":2541:2558  _owner = newOwner */\n  0x0100\n  exp\n  dup2\n  sload\n  dup2\n  0xffffffffffffffffffffffffffffffffffffffff\n  mul\n  not\n  and\n  swap1\n  dup4\n  0xffffffffffffffffffffffffffffffffffffffff\n  and\n  mul\n  or\n  swap1\n  sstore\n  pop\n    /* \"@openzeppelin/contracts/access/Ownable.sol\":2604:2612  newOwner */\n  dup2\n    /* \"@openzeppelin/contracts/access/Ownable.sol\":2573:2613  OwnershipTransferred(oldOwner, newOwner) */\n  0xffffffffffffffffffffffffffffffffffffffff\n  and\n    /* \"@openzeppelin/contracts/access/Ownable.sol\":2594:2602  oldOwner */\n  dup2\n    /* \"@openzeppelin/contracts/access/Ownable.sol\":2573:2613  OwnershipTransferred(oldOwner, newOwner) */\n  0xffffffffffffffffffffffffffffffffffffffff\n  and\n  0x8be0079c531659141344cd1fd0a4f28419497f9722a3daafe3b4186f6b6457e0\n  mload(0x40)\n  mload(0x40)\n  dup1\n  swap2\n  sub\n  swap1\n  log3\n    /* \"@openzeppelin/contracts/access/Ownable.sol\":2496:2620  {... */\n  pop\n    /* \"@openzeppelin/contracts/access/Ownable.sol\":2433:2620  function _transferOwnership(address newOwner) internal virtual {... */\n  pop\n  jump\t// out\n    /* \"#utility.yul\":88:205   */\ntag_19:\n    /* \"#utility.yul\":197:198   */\n  0x00\n    /* \"#utility.yul\":194:195   */\n  dup1\n    /* \"#utility.yul\":187:199   */\n  revert\n    /* \"#utility.yul\":334:460   */\ntag_21:\n    /* \"#utility.yul\":371:378   */\n  0x00\n    /* \"#utility.yul\":411:453   */\n  0xffffffffffffffffffffffffffffffffffffffff\n    /* \"#utility.yul\":404:409   */\n  dup3\n    /* \"#utility.yul\":400:454   */\n  and\n    /* \"#utility.yul\":389:454   */\n  swap1\n  pop\n    /* \"#utility.yul\":334:460   */\n  swap2\n  swap1\n  pop\n  jump\t// out\n    /* \"#utility.yul\":466:562   */\ntag_22:\n    /* \"#utility.yul\":503:510   */\n  0x00\n    /* \"#utility.yul\":532:556   */\n  tag_31\n    /* \"#utility.yul\":550:555   */\n  dup3\n    /* \"#utility.yul\":532:556   */\n  tag_21\n  jump\t// in\ntag_31:\n    /* \"#utility.yul\":521:556   */\n  swap1\n  pop\n    /* \"#utility.yul\":466:562   */\n  swap2\n  swap1\n  pop\n  jump\t// out\n    /* \"#utility.yul\":568:690   */\ntag_23:\n    /* \"#utility.yul\":641:665   */\n  tag_33\n    /* \"#utility.yul\":659:664   */\n  dup2\n    /* \"#utility.yul\":641:665   */\n  tag_22\n  jump\t// in\ntag_33:\n    /* \"#utility.yul\":634:639   */\n  dup2\n    /* \"#utility.yul\":631:666   */\n  eq\n    /* \"#utility.yul\":621:684   */\n  tag_34\n  jumpi\n    /* \"#utility.yul\":680:681   */\n  0x00\n    /* \"#utility.yul\":677:678   */\n  dup1\n    /* \"#utility.yul\":670:682   */\n  revert\n    /* \"#utility.yul\":621:684   */\ntag_34:\n    /* \"#utility.yul\":568:690   */\n  pop\n  jump\t// out\n    /* \"#utility.yul\":696:839   */\ntag_24:\n    /* \"#utility.yul\":753:758   */\n  0x00\n    /* \"#utility.yul\":784:790   */\n  dup2\n    /* \"#utility.yul\":778:791   */\n  mload\n    /* \"#utility.yul\":769:791   */\n  swap1\n  pop\n    /* \"#utility.yul\":800:833   */\n  tag_36\n    /* \"#utility.yul\":827:832   */\n  dup2\n    /* \"#utility.yul\":800:833   */\n  tag_23\n  jump\t// in\ntag_36:\n    /* \"#utility.yul\":696:839   */\n  swap3\n  swap2\n  pop\n  pop\n  jump\t// out\n    /* \"#utility.yul\":845:1352   */\ntag_3:\n    /* \"#utility.yul\":924:930   */\n  0x00\n    /* \"#utility.yul\":932:938   */\n  dup1\n    /* \"#utility.yul\":981:983   */\n  0x40\n    /* \"#utility.yul\":969:978   */\n  dup4\n    /* \"#utility.yul\":960:967   */\n  dup6\n    /* \"#utility.yul\":956:979   */\n  sub\n    /* \"#utility.yul\":952:984   */\n  slt\n    /* \"#utility.yul\":949:1068   */\n  iszero\n  tag_38\n  jumpi\n    /* \"#utility.yul\":987:1066   */\n  tag_39\n  tag_19\n  jump\t// in\ntag_39:\n    /* \"#utility.yul\":949:1068   */\ntag_38:\n    /* \"#utility.yul\":1107:1108   */\n  0x00\n    /* \"#utility.yul\":1132:1196   */\n  tag_40\n    /* \"#utility.yul\":1188:1195   */\n  dup6\n    /* \"#utility.yul\":1179:1185   */\n  dup3\n    /* \"#utility.yul\":1168:1177   */\n  dup7\n    /* \"#utility.yul\":1164:1186   */\n  add\n    /* \"#utility.yul\":1132:1196   */\n  tag_24\n  jump\t// in\ntag_40:\n    /* \"#utility.yul\":1122:1196   */\n  swap3\n  pop\n    /* \"#utility.yul\":1078:1206   */\n  pop\n    /* \"#utility.yul\":1245:1247   */\n  0x20\n    /* \"#utility.yul\":1271:1335   */\n  tag_41\n    /* \"#utility.yul\":1327:1334   */\n  dup6\n    /* \"#utility.yul\":1318:1324   */\n  dup3\n    /* \"#utility.yul\":1307:1316   */\n  dup7\n    /* \"#utility.yul\":1303:1325   */\n  add\n    /* \"#utility.yul\":1271:1335   */\n  tag_24\n  jump\t// in\ntag_41:\n    /* \"#utility.yul\":1261:1335   */\n  swap2\n  pop\n    /* \"#utility.yul\":1216:1345   */\n  pop\n    /* \"#utility.yul\":845:1352   */\n  swap3\n  pop\n  swap3\n  swap1\n  pop\n  jump\t// out\n    /* \"token_eco_system_dev_contracts/contracts_ready_for_prod/TokenEcoSystemParticipationV1_0.sol\":1599:12689  contract TokenEcoSystemParticipation is Pausable, Ownable {... */\ntag_15:\n  mload(0x80)\n  mload(0xa0)\n  codecopy(0x00, dataOffset(sub_0), dataSize(sub_0))\n  0x00\n  assignImmutable(\"0x448072f8ce0e9d09a2030ee35ba0d03fccbd0c61c3623f421061fbafdf5a67a9\")\n  0x00\n  assignImmutable(\"0xd2f63731675c6a71dc2bd3699360fd070b4ef61c2e40215aaeeee79f9e81574f\")\n  return(0x00, dataSize(sub_0))\nstop\n\nsub_0: assembly {\n        /* \"token_eco_system_dev_contracts/contracts_ready_for_prod/TokenEcoSystemParticipationV1_0.sol\":1599:12689  contract TokenEcoSystemParticipation is Pausable, Ownable {... */\n      mstore(0x40, 0x80)\n      callvalue\n      dup1\n      iszero\n      tag_1\n      jumpi\n      0x00\n      dup1\n      revert\n    tag_1:\n      pop\n      jumpi(tag_2, lt(calldatasize, 0x04))\n      shr(0xe0, calldataload(0x00))\n      dup1\n      0x7754723e\n      gt\n      tag_30\n      jumpi\n      dup1\n      0xb0b5e39e\n      gt\n      tag_31\n      jumpi\n      dup1\n      0xe6367ebe\n      gt\n      tag_32\n      jumpi\n      dup1\n      0xe6367ebe\n      eq\n      tag_26\n      jumpi\n      dup1\n      0xe8088766\n      eq\n      tag_27\n      jumpi\n      dup1\n      0xed969c84\n      eq\n      tag_28\n      jumpi\n      dup1\n      0xf2fde38b\n      eq\n      tag_29\n      jumpi\n      jump(tag_2)\n    tag_32:\n      dup1\n      0xb0b5e39e\n      eq\n      tag_23\n      jumpi\n      dup1\n      0xb99152d0\n      eq\n      tag_24\n      jumpi\n      dup1\n      0xba007e75\n      eq\n      tag_25\n      jumpi\n      jump(tag_2)\n    tag_31:\n      dup1\n      0x9405de64\n      gt\n      tag_33\n      jumpi\n      dup1\n      0x9405de64\n      eq\n      tag_19\n      jumpi\n      dup1\n      0x9934415e\n      eq\n      tag_20\n      jumpi\n      dup1\n      0xa684ab5c\n      eq\n      tag_21\n      jumpi\n      dup1\n      0xabb1dc44\n      eq\n      tag_22\n      jumpi\n      jump(tag_2)\n    tag_33:\n      dup1\n      0x7754723e\n      eq\n      tag_16\n      jumpi\n      dup1\n      0x8da5cb5b\n      eq\n      tag_17\n      jumpi\n      dup1\n      0x8eb89a61\n      eq\n      tag_18\n      jumpi\n      jump(tag_2)\n    tag_30:\n      dup1\n      0x0f15f4c0\n      gt\n      tag_34\n      jumpi\n      dup1\n      0x5c975abb\n      gt\n      tag_35\n      jumpi\n      dup1\n      0x5c975abb\n      eq\n      tag_12\n      jumpi\n      dup1\n      0x6a9d43dd\n      eq\n      tag_13\n      jumpi\n      dup1\n      0x715018a6\n      eq\n      tag_14\n      jumpi\n      dup1\n      0x722713f7\n      eq\n      tag_15\n      jumpi\n      jump(tag_2)\n    tag_35:\n      dup1\n      0x0f15f4c0\n      eq\n      tag_9\n      jumpi\n      dup1\n      0x2af0e251\n      eq\n      tag_10\n      jumpi\n      dup1\n      0x51b42b00\n      eq\n      tag_11\n      jumpi\n      jump(tag_2)\n    tag_34:\n      dup1\n      0xf714ce\n      eq\n      tag_3\n      jumpi\n      dup1\n      0x046f7da2\n      eq\n      tag_4\n      jumpi\n      dup1\n      0x07da68f5\n      eq\n      tag_5\n      jumpi\n      dup1\n      0x08fadcb0\n      eq\n      tag_6\n      jumpi\n      dup1\n      0x0a6cb062\n      eq\n      tag_7\n      jumpi\n      dup1\n      0x0ba2f1d8\n      eq\n      tag_8\n      jumpi\n    tag_2:\n      0x00\n      dup1\n      revert\n        /* \"token_eco_system_dev_contracts/contracts_ready_for_prod/TokenEcoSystemParticipationV1_0.sol\":9251:9627  function withdraw(uint256 value, address wallet) public onlyOwner activated {... */\n    tag_3:\n      tag_36\n      0x04\n      dup1\n      calldatasize\n      sub\n      dup2\n      add\n      swap1\n      tag_37\n      swap2\n      swap1\n      tag_38\n      jump\t// in\n    tag_37:\n      tag_39\n      jump\t// in\n    tag_36:\n      stop\n        /* \"token_eco_system_dev_contracts/contracts_ready_for_prod/TokenEcoSystemParticipationV1_0.sol\":4654:4727  function resume() public whenPaused onlyOwner {... */\n    tag_4:\n      tag_40\n      tag_41\n      jump\t// in\n    tag_40:\n      stop\n        /* \"token_eco_system_dev_contracts/contracts_ready_for_prod/TokenEcoSystemParticipationV1_0.sol\":4576:4648  function stop() public whenNotPaused onlyOwner {... */\n    tag_5:\n      tag_42\n      tag_43\n      jump\t// in\n    tag_42:\n      stop\n        /* \"token_eco_system_dev_contracts/contracts_ready_for_prod/TokenEcoSystemParticipationV1_0.sol\":10411:10568  function getAcceptedSenderAddress()... */\n    tag_6:\n      tag_44\n      tag_45\n      jump\t// in\n    tag_44:\n      mload(0x40)\n      tag_46\n      swap2\n      swap1\n      tag_47\n      jump\t// in\n    tag_46:\n      mload(0x40)\n      dup1\n      swap2\n      sub\n      swap1\n      return\n        /* \"token_eco_system_dev_contracts/contracts_ready_for_prod/TokenEcoSystemParticipationV1_0.sol\":4783:5059  function addNewAggregatorPriceFeed(address consumerInterfaceAddress)... */\n    tag_7:\n      tag_48\n      0x04\n      dup1\n      calldatasize\n      sub\n      dup2\n      add\n      swap1\n      tag_49\n      swap2\n      swap1\n      tag_50\n      jump\t// in\n    tag_49:\n      tag_51\n      jump\t// in\n    tag_48:\n      stop\n        /* \"token_eco_system_dev_contracts/contracts_ready_for_prod/TokenEcoSystemParticipationV1_0.sol\":4287:4570  function changeAcceptedSenderAddress(address newAcceptedSender)... */\n    tag_8:\n      tag_52\n      0x04\n      dup1\n      calldatasize\n      sub\n      dup2\n      add\n      swap1\n      tag_53\n      swap2\n      swap1\n      tag_50\n      jump\t// in\n    tag_53:\n      tag_54\n      jump\t// in\n    tag_52:\n      stop\n        /* \"token_eco_system_dev_contracts/contracts_ready_for_prod/TokenEcoSystemParticipationV1_0.sol\":3702:4002  function activate() public whenNotPaused {... */\n    tag_9:\n      tag_55\n      tag_56\n      jump\t// in\n    tag_55:\n      stop\n        /* \"token_eco_system_dev_contracts/contracts_ready_for_prod/TokenEcoSystemParticipationV1_0.sol\":9705:9878  function getTotalBurnedTokens()... */\n    tag_10:\n      tag_57\n      tag_58\n      jump\t// in\n    tag_57:\n      mload(0x40)\n      tag_59\n      swap2\n      swap1\n      tag_60\n      jump\t// in\n    tag_59:\n      mload(0x40)\n      dup1\n      swap2\n      sub\n      swap1\n      return\n        /* \"token_eco_system_dev_contracts/contracts_ready_for_prod/TokenEcoSystemParticipationV1_0.sol\":4056:4229  function deactivate() public activated onlyAuthorized whenNotPaused {... */\n    tag_11:\n      tag_61\n      tag_62\n      jump\t// in\n    tag_61:\n      stop\n        /* \"@openzeppelin/contracts/security/Pausable.sol\":1615:1699  function paused() public view virtual returns (bool) {... */\n    tag_12:\n      tag_63\n      tag_64\n      jump\t// in\n    tag_63:\n      mload(0x40)\n      tag_65\n      swap2\n      swap1\n      tag_66\n      jump\t// in\n    tag_65:\n      mload(0x40)\n      dup1\n      swap2\n      sub\n      swap1\n      return\n        /* \"token_eco_system_dev_contracts/contracts_ready_for_prod/TokenEcoSystemParticipationV1_0.sol\":8891:9185  function transferOfToken(... */\n    tag_13:\n      tag_67\n      0x04\n      dup1\n      calldatasize\n      sub\n      dup2\n      add\n      swap1\n      tag_68\n      swap2\n      swap1\n      tag_69\n      jump\t// in\n    tag_68:\n      tag_70\n      jump\t// in\n    tag_67:\n      mload(0x40)\n      tag_71\n      swap2\n      swap1\n      tag_66\n      jump\t// in\n    tag_71:\n      mload(0x40)\n      dup1\n      swap2\n      sub\n      swap1\n      return\n        /* \"@openzeppelin/contracts/access/Ownable.sol\":1831:1932  function renounceOwnership() public virtual onlyOwner {... */\n    tag_14:\n      tag_72\n      tag_73\n      jump\t// in\n    tag_72:\n      stop\n        /* \"token_eco_system_dev_contracts/contracts_ready_for_prod/TokenEcoSystemParticipationV1_0.sol\":8360:8465  function balanceOf() public view returns (uint256) {... */\n    tag_15:\n      tag_74\n      tag_75\n      jump\t// in\n    tag_74:\n      mload(0x40)\n      tag_76\n      swap2\n      swap1\n      tag_60\n      jump\t// in\n    tag_76:\n      mload(0x40)\n      dup1\n      swap2\n      sub\n      swap1\n      return\n        /* \"token_eco_system_dev_contracts/contracts_ready_for_prod/TokenEcoSystemParticipationV1_0.sol\":6473:6817  function calculateAmount(... */\n    tag_16:\n      tag_77\n      0x04\n      dup1\n      calldatasize\n      sub\n      dup2\n      add\n      swap1\n      tag_78\n      swap2\n      swap1\n      tag_79\n      jump\t// in\n    tag_78:\n      tag_80\n      jump\t// in\n    tag_77:\n      mload(0x40)\n      tag_81\n      swap2\n      swap1\n      tag_60\n      jump\t// in\n    tag_81:\n      mload(0x40)\n      dup1\n      swap2\n      sub\n      swap1\n      return\n        /* \"@openzeppelin/contracts/access/Ownable.sol\":1201:1286  function owner() public view virtual returns (address) {... */\n    tag_17:\n      tag_82\n      tag_83\n      jump\t// in\n    tag_82:\n      mload(0x40)\n      tag_84\n      swap2\n      swap1\n      tag_47\n      jump\t// in\n    tag_84:\n      mload(0x40)\n      dup1\n      swap2\n      sub\n      swap1\n      return\n        /* \"token_eco_system_dev_contracts/contracts_ready_for_prod/TokenEcoSystemParticipationV1_0.sol\":10198:10369  function getPointsBalance()... */\n    tag_18:\n      tag_85\n      tag_86\n      jump\t// in\n    tag_85:\n      mload(0x40)\n      tag_87\n      swap2\n      swap1\n      tag_60\n      jump\t// in\n    tag_87:\n      mload(0x40)\n      dup1\n      swap2\n      sub\n      swap1\n      return\n        /* \"token_eco_system_dev_contracts/contracts_ready_for_prod/TokenEcoSystemParticipationV1_0.sol\":6823:6966  function checkAllowance() public onlyOwnerOrAuthorized view returns (uint256){... */\n    tag_19:\n      tag_88\n      tag_89\n      jump\t// in\n    tag_88:\n      mload(0x40)\n      tag_90\n      swap2\n      swap1\n      tag_60\n      jump\t// in\n    tag_90:\n      mload(0x40)\n      dup1\n      swap2\n      sub\n      swap1\n      return\n        /* \"token_eco_system_dev_contracts/contracts_ready_for_prod/TokenEcoSystemParticipationV1_0.sol\":6159:6372  function currentRateFeedAddress() public view returns (address) {... */\n    tag_20:\n      tag_91\n      tag_92\n      jump\t// in\n    tag_91:\n      mload(0x40)\n      tag_93\n      swap2\n      swap1\n      tag_47\n      jump\t// in\n    tag_93:\n      mload(0x40)\n      dup1\n      swap2\n      sub\n      swap1\n      return\n        /* \"token_eco_system_dev_contracts/contracts_ready_for_prod/TokenEcoSystemParticipationV1_0.sol\":9977:10156  function getTotalPointsGenerated()... */\n    tag_21:\n      tag_94\n      tag_95\n      jump\t// in\n    tag_94:\n      mload(0x40)\n      tag_96\n      swap2\n      swap1\n      tag_60\n      jump\t// in\n    tag_96:\n      mload(0x40)\n      dup1\n      swap2\n      sub\n      swap1\n      return\n        /* \"token_eco_system_dev_contracts/contracts_ready_for_prod/TokenEcoSystemParticipationV1_0.sol\":10828:11029  function getTokenInfo()... */\n    tag_22:\n      tag_97\n      tag_98\n      jump\t// in\n    tag_97:\n      mload(0x40)\n      tag_99\n      swap3\n      swap2\n      swap1\n      tag_100\n      jump\t// in\n    tag_99:\n      mload(0x40)\n      dup1\n      swap2\n      sub\n      swap1\n      return\n        /* \"token_eco_system_dev_contracts/contracts_ready_for_prod/TokenEcoSystemParticipationV1_0.sol\":5136:5371  function addNewPoolRateFeed(address consumerInterfaceAddress)... */\n    tag_23:\n      tag_101\n      0x04\n      dup1\n      calldatasize\n      sub\n      dup2\n      add\n      swap1\n      tag_102\n      swap2\n      swap1\n      tag_50\n      jump\t// in\n    tag_102:\n      tag_103\n      jump\t// in\n    tag_101:\n      stop\n        /* \"token_eco_system_dev_contracts/contracts_ready_for_prod/TokenEcoSystemParticipationV1_0.sol\":8593:8784  function balanceOfToken(address tokenAddress)... */\n    tag_24:\n      tag_104\n      0x04\n      dup1\n      calldatasize\n      sub\n      dup2\n      add\n      swap1\n      tag_105\n      swap2\n      swap1\n      tag_50\n      jump\t// in\n    tag_105:\n      tag_106\n      jump\t// in\n    tag_104:\n      mload(0x40)\n      tag_107\n      swap2\n      swap1\n      tag_60\n      jump\t// in\n    tag_107:\n      mload(0x40)\n      dup1\n      swap2\n      sub\n      swap1\n      return\n        /* \"token_eco_system_dev_contracts/contracts_ready_for_prod/TokenEcoSystemParticipationV1_0.sol\":10661:10763  function getInitialActivationAddress() public view returns (address) {... */\n    tag_25:\n      tag_108\n      tag_109\n      jump\t// in\n    tag_108:\n      mload(0x40)\n      tag_110\n      swap2\n      swap1\n      tag_47\n      jump\t// in\n    tag_110:\n      mload(0x40)\n      dup1\n      swap2\n      sub\n      swap1\n      return\n        /* \"token_eco_system_dev_contracts/contracts_ready_for_prod/TokenEcoSystemParticipationV1_0.sol\":5964:6153  function currentRateFeed() public view returns (string memory) {... */\n    tag_26:\n      tag_111\n      tag_112\n      jump\t// in\n    tag_111:\n      mload(0x40)\n      tag_113\n      swap2\n      swap1\n      tag_114\n      jump\t// in\n    tag_113:\n      mload(0x40)\n      dup1\n      swap2\n      sub\n      swap1\n      return\n        /* \"token_eco_system_dev_contracts/contracts_ready_for_prod/TokenEcoSystemParticipationV1_0.sol\":5445:5917  function changeRateFeed() public onlyOwner {... */\n    tag_27:\n      tag_115\n      tag_116\n      jump\t// in\n    tag_115:\n      stop\n        /* \"token_eco_system_dev_contracts/contracts_ready_for_prod/TokenEcoSystemParticipationV1_0.sol\":7097:8239  function chargeContract(uint256 amount)... */\n    tag_28:\n      tag_117\n      0x04\n      dup1\n      calldatasize\n      sub\n      dup2\n      add\n      swap1\n      tag_118\n      swap2\n      swap1\n      tag_119\n      jump\t// in\n    tag_118:\n      tag_120\n      jump\t// in\n    tag_117:\n      mload(0x40)\n      tag_121\n      swap2\n      swap1\n      tag_66\n      jump\t// in\n    tag_121:\n      mload(0x40)\n      dup1\n      swap2\n      sub\n      swap1\n      return\n        /* \"@openzeppelin/contracts/access/Ownable.sol\":2081:2279  function transferOwnership(address newOwner) public virtual onlyOwner {... */\n    tag_29:\n      tag_122\n      0x04\n      dup1\n      calldatasize\n      sub\n      dup2\n      add\n      swap1\n      tag_123\n      swap2\n      swap1\n      tag_50\n      jump\t// in\n    tag_123:\n      tag_124\n      jump\t// in\n    tag_122:\n      stop\n        /* \"token_eco_system_dev_contracts/contracts_ready_for_prod/TokenEcoSystemParticipationV1_0.sol\":9251:9627  function withdraw(uint256 value, address wallet) public onlyOwner activated {... */\n    tag_39:\n        /* \"@openzeppelin/contracts/access/Ownable.sol\":1094:1107  _checkOwner() */\n      tag_126\n        /* \"@openzeppelin/contracts/access/Ownable.sol\":1094:1105  _checkOwner */\n      tag_127\n        /* \"@openzeppelin/contracts/access/Ownable.sol\":1094:1107  _checkOwner() */\n      jump\t// in\n    tag_126:\n        /* \"token_eco_system_dev_contracts/contracts_ready_for_prod/TokenEcoSystemParticipationV1_0.sol\":3126:3127  0 */\n      0x00\n        /* \"token_eco_system_dev_contracts/contracts_ready_for_prod/TokenEcoSystemParticipationV1_0.sol\":3093:3128  acceptedSenderAddress != address(0) */\n      0xffffffffffffffffffffffffffffffffffffffff\n      and\n        /* \"token_eco_system_dev_contracts/contracts_ready_for_prod/TokenEcoSystemParticipationV1_0.sol\":3093:3114  acceptedSenderAddress */\n      0x01\n      0x00\n      swap1\n      sload\n      swap1\n      0x0100\n      exp\n      swap1\n      div\n      0xffffffffffffffffffffffffffffffffffffffff\n      and\n        /* \"token_eco_system_dev_contracts/contracts_ready_for_prod/TokenEcoSystemParticipationV1_0.sol\":3093:3128  acceptedSenderAddress != address(0) */\n      0xffffffffffffffffffffffffffffffffffffffff\n      and\n      sub\n        /* \"token_eco_system_dev_contracts/contracts_ready_for_prod/TokenEcoSystemParticipationV1_0.sol\":3085:3147  require(acceptedSenderAddress != address(0), \"Not activated!\") */\n      tag_129\n      jumpi\n      mload(0x40)\n      0x08c379a000000000000000000000000000000000000000000000000000000000\n      dup2\n      mstore\n      0x04\n      add\n      tag_130\n      swap1\n      tag_131\n      jump\t// in\n    tag_130:\n      mload(0x40)\n      dup1\n      swap2\n      sub\n      swap1\n      revert\n    tag_129:\n        /* \"token_eco_system_dev_contracts/contracts_ready_for_prod/TokenEcoSystemParticipationV1_0.sol\":9367:9380  pointsBalance */\n      sload(0x04)\n        /* \"token_eco_system_dev_contracts/contracts_ready_for_prod/TokenEcoSystemParticipationV1_0.sol\":9358:9363  value */\n      dup3\n        /* \"token_eco_system_dev_contracts/contracts_ready_for_prod/TokenEcoSystemParticipationV1_0.sol\":9358:9380  value <= pointsBalance */\n      gt\n      iszero\n        /* \"token_eco_system_dev_contracts/contracts_ready_for_prod/TokenEcoSystemParticipationV1_0.sol\":9337:9461  require(... */\n      tag_133\n      jumpi\n      mload(0x40)\n      0x08c379a000000000000000000000000000000000000000000000000000000000\n      dup2\n      mstore\n      0x04\n      add\n      tag_134\n      swap1\n      tag_135\n      jump\t// in\n    tag_134:\n      mload(0x40)\n      dup1\n      swap2\n      sub\n      swap1\n      revert\n    tag_133:\n        /* \"token_eco_system_dev_contracts/contracts_ready_for_prod/TokenEcoSystemParticipationV1_0.sol\":9487:9488  0 */\n      0x00\n        /* \"token_eco_system_dev_contracts/contracts_ready_for_prod/TokenEcoSystemParticipationV1_0.sol\":9479:9484  value */\n      dup3\n        /* \"token_eco_system_dev_contracts/contracts_ready_for_prod/TokenEcoSystemParticipationV1_0.sol\":9479:9488  value > 0 */\n      gt\n        /* \"token_eco_system_dev_contracts/contracts_ready_for_prod/TokenEcoSystemParticipationV1_0.sol\":9471:9531  require(value > 0, \"Withdraw value must be greater than 0!\") */\n      tag_136\n      jumpi\n      mload(0x40)\n      0x08c379a000000000000000000000000000000000000000000000000000000000\n      dup2\n      mstore\n      0x04\n      add\n      tag_137\n      swap1\n      tag_138\n      jump\t// in\n    tag_137:\n      mload(0x40)\n      dup1\n      swap2\n      sub\n      swap1\n      revert\n    tag_136:\n        /* \"token_eco_system_dev_contracts/contracts_ready_for_prod/TokenEcoSystemParticipationV1_0.sol\":9579:9585  wallet */\n      dup1\n        /* \"token_eco_system_dev_contracts/contracts_ready_for_prod/TokenEcoSystemParticipationV1_0.sol\":9546:9586  Withdraw(block.timestamp, value, wallet) */\n      0xffffffffffffffffffffffffffffffffffffffff\n      and\n        /* \"token_eco_system_dev_contracts/contracts_ready_for_prod/TokenEcoSystemParticipationV1_0.sol\":9555:9570  block.timestamp */\n      timestamp\n        /* \"token_eco_system_dev_contracts/contracts_ready_for_prod/TokenEcoSystemParticipationV1_0.sol\":9546:9586  Withdraw(block.timestamp, value, wallet) */\n      0x71ef96c43343734b1d843bb85d52ef329f5e9143e4d35827771e3b0dd90c5f84\n        /* \"token_eco_system_dev_contracts/contracts_ready_for_prod/TokenEcoSystemParticipationV1_0.sol\":9572:9577  value */\n      dup5\n        /* \"token_eco_system_dev_contracts/contracts_ready_for_prod/TokenEcoSystemParticipationV1_0.sol\":9546:9586  Withdraw(block.timestamp, value, wallet) */\n      mload(0x40)\n      tag_139\n      swap2\n      swap1\n      tag_60\n      jump\t// in\n    tag_139:\n      mload(0x40)\n      dup1\n      swap2\n      sub\n      swap1\n      log3\n        /* \"token_eco_system_dev_contracts/contracts_ready_for_prod/TokenEcoSystemParticipationV1_0.sol\":9613:9618  value */\n      dup2\n        /* \"token_eco_system_dev_contracts/contracts_ready_for_prod/TokenEcoSystemParticipationV1_0.sol\":9596:9609  pointsBalance */\n      0x04\n      0x00\n        /* \"token_eco_system_dev_contracts/contracts_ready_for_prod/TokenEcoSystemParticipationV1_0.sol\":9596:9618  pointsBalance -= value */\n      dup3\n      dup3\n      sload\n      tag_140\n      swap2\n      swap1\n      tag_141\n      jump\t// in\n    tag_140:\n      swap3\n      pop\n      pop\n      dup2\n      swap1\n      sstore\n      pop\n        /* \"token_eco_system_dev_contracts/contracts_ready_for_prod/TokenEcoSystemParticipationV1_0.sol\":9251:9627  function withdraw(uint256 value, address wallet) public onlyOwner activated {... */\n      pop\n      pop\n      jump\t// out\n        /* \"token_eco_system_dev_contracts/contracts_ready_for_prod/TokenEcoSystemParticipationV1_0.sol\":4654:4727  function resume() public whenPaused onlyOwner {... */\n    tag_41:\n        /* \"@openzeppelin/contracts/security/Pausable.sol\":1486:1502  _requirePaused() */\n      tag_143\n        /* \"@openzeppelin/contracts/security/Pausable.sol\":1486:1500  _requirePaused */\n      tag_144\n        /* \"@openzeppelin/contracts/security/Pausable.sol\":1486:1502  _requirePaused() */\n      jump\t// in\n    tag_143:\n        /* \"@openzeppelin/contracts/access/Ownable.sol\":1094:1107  _checkOwner() */\n      tag_146\n        /* \"@openzeppelin/contracts/access/Ownable.sol\":1094:1105  _checkOwner */\n      tag_127\n        /* \"@openzeppelin/contracts/access/Ownable.sol\":1094:1107  _checkOwner() */\n      jump\t// in\n    tag_146:\n        /* \"token_eco_system_dev_contracts/contracts_ready_for_prod/TokenEcoSystemParticipationV1_0.sol\":4710:4720  _unpause() */\n      tag_148\n        /* \"token_eco_system_dev_contracts/contracts_ready_for_prod/TokenEcoSystemParticipationV1_0.sol\":4710:4718  _unpause */\n      tag_149\n        /* \"token_eco_system_dev_contracts/contracts_ready_for_prod/TokenEcoSystemParticipationV1_0.sol\":4710:4720  _unpause() */\n      jump\t// in\n    tag_148:\n        /* \"token_eco_system_dev_contracts/contracts_ready_for_prod/TokenEcoSystemParticipationV1_0.sol\":4654:4727  function resume() public whenPaused onlyOwner {... */\n      jump\t// out\n        /* \"token_eco_system_dev_contracts/contracts_ready_for_prod/TokenEcoSystemParticipationV1_0.sol\":4576:4648  function stop() public whenNotPaused onlyOwner {... */\n    tag_43:\n        /* \"@openzeppelin/contracts/security/Pausable.sol\":1239:1258  _requireNotPaused() */\n      tag_151\n        /* \"@openzeppelin/contracts/security/Pausable.sol\":1239:1256  _requireNotPaused */\n      tag_152\n        /* \"@openzeppelin/contracts/security/Pausable.sol\":1239:1258  _requireNotPaused() */\n      jump\t// in\n    tag_151:\n        /* \"@openzeppelin/contracts/access/Ownable.sol\":1094:1107  _checkOwner() */\n      tag_154\n        /* \"@openzeppelin/contracts/access/Ownable.sol\":1094:1105  _checkOwner */\n      tag_127\n        /* \"@openzeppelin/contracts/access/Ownable.sol\":1094:1107  _checkOwner() */\n      jump\t// in\n    tag_154:\n        /* \"token_eco_system_dev_contracts/contracts_ready_for_prod/TokenEcoSystemParticipationV1_0.sol\":4633:4641  _pause() */\n      tag_156\n        /* \"token_eco_system_dev_contracts/contracts_ready_for_prod/TokenEcoSystemParticipationV1_0.sol\":4633:4639  _pause */\n      tag_157\n        /* \"token_eco_system_dev_contracts/contracts_ready_for_prod/TokenEcoSystemParticipationV1_0.sol\":4633:4641  _pause() */\n      jump\t// in\n    tag_156:\n        /* \"token_eco_system_dev_contracts/contracts_ready_for_prod/TokenEcoSystemParticipationV1_0.sol\":4576:4648  function stop() public whenNotPaused onlyOwner {... */\n      jump\t// out\n        /* \"token_eco_system_dev_contracts/contracts_ready_for_prod/TokenEcoSystemParticipationV1_0.sol\":10411:10568  function getAcceptedSenderAddress()... */\n    tag_45:\n        /* \"token_eco_system_dev_contracts/contracts_ready_for_prod/TokenEcoSystemParticipationV1_0.sol\":10510:10517  address */\n      0x00\n        /* \"token_eco_system_dev_contracts/contracts_ready_for_prod/TokenEcoSystemParticipationV1_0.sol\":3126:3127  0 */\n      dup1\n        /* \"token_eco_system_dev_contracts/contracts_ready_for_prod/TokenEcoSystemParticipationV1_0.sol\":3093:3128  acceptedSenderAddress != address(0) */\n      0xffffffffffffffffffffffffffffffffffffffff\n      and\n        /* \"token_eco_system_dev_contracts/contracts_ready_for_prod/TokenEcoSystemParticipationV1_0.sol\":3093:3114  acceptedSenderAddress */\n      0x01\n      0x00\n      swap1\n      sload\n      swap1\n      0x0100\n      exp\n      swap1\n      div\n      0xffffffffffffffffffffffffffffffffffffffff\n      and\n        /* \"token_eco_system_dev_contracts/contracts_ready_for_prod/TokenEcoSystemParticipationV1_0.sol\":3093:3128  acceptedSenderAddress != address(0) */\n      0xffffffffffffffffffffffffffffffffffffffff\n      and\n      sub\n        /* \"token_eco_system_dev_contracts/contracts_ready_for_prod/TokenEcoSystemParticipationV1_0.sol\":3085:3147  require(acceptedSenderAddress != address(0), \"Not activated!\") */\n      tag_159\n      jumpi\n      mload(0x40)\n      0x08c379a000000000000000000000000000000000000000000000000000000000\n      dup2\n      mstore\n      0x04\n      add\n      tag_160\n      swap1\n      tag_131\n      jump\t// in\n    tag_160:\n      mload(0x40)\n      dup1\n      swap2\n      sub\n      swap1\n      revert\n    tag_159:\n        /* \"token_eco_system_dev_contracts/contracts_ready_for_prod/TokenEcoSystemParticipationV1_0.sol\":10540:10561  acceptedSenderAddress */\n      0x01\n      0x00\n      swap1\n      sload\n      swap1\n      0x0100\n      exp\n      swap1\n      div\n      0xffffffffffffffffffffffffffffffffffffffff\n      and\n        /* \"token_eco_system_dev_contracts/contracts_ready_for_prod/TokenEcoSystemParticipationV1_0.sol\":10533:10561  return acceptedSenderAddress */\n      swap1\n      pop\n        /* \"token_eco_system_dev_contracts/contracts_ready_for_prod/TokenEcoSystemParticipationV1_0.sol\":10411:10568  function getAcceptedSenderAddress()... */\n      swap1\n      jump\t// out\n        /* \"token_eco_system_dev_contracts/contracts_ready_for_prod/TokenEcoSystemParticipationV1_0.sol\":4783:5059  function addNewAggregatorPriceFeed(address consumerInterfaceAddress)... */\n    tag_51:\n        /* \"@openzeppelin/contracts/access/Ownable.sol\":1094:1107  _checkOwner() */\n      tag_163\n        /* \"@openzeppelin/contracts/access/Ownable.sol\":1094:1105  _checkOwner */\n      tag_127\n        /* \"@openzeppelin/contracts/access/Ownable.sol\":1094:1107  _checkOwner() */\n      jump\t// in\n    tag_163:\n        /* \"token_eco_system_dev_contracts/contracts_ready_for_prod/TokenEcoSystemParticipationV1_0.sol\":4943:4944  0 */\n      0x00\n        /* \"token_eco_system_dev_contracts/contracts_ready_for_prod/TokenEcoSystemParticipationV1_0.sol\":4907:4945  consumerInterfaceAddress != address(0) */\n      0xffffffffffffffffffffffffffffffffffffffff\n      and\n        /* \"token_eco_system_dev_contracts/contracts_ready_for_prod/TokenEcoSystemParticipationV1_0.sol\":4907:4931  consumerInterfaceAddress */\n      dup2\n        /* \"token_eco_system_dev_contracts/contracts_ready_for_prod/TokenEcoSystemParticipationV1_0.sol\":4907:4945  consumerInterfaceAddress != address(0) */\n      0xffffffffffffffffffffffffffffffffffffffff\n      and\n      sub\n        /* \"token_eco_system_dev_contracts/contracts_ready_for_prod/TokenEcoSystemParticipationV1_0.sol\":4899:4946  require(consumerInterfaceAddress != address(0)) */\n      tag_165\n      jumpi\n      0x00\n      dup1\n      revert\n    tag_165:\n        /* \"token_eco_system_dev_contracts/contracts_ready_for_prod/TokenEcoSystemParticipationV1_0.sol\":5018:5042  consumerInterfaceAddress */\n      dup1\n        /* \"token_eco_system_dev_contracts/contracts_ready_for_prod/TokenEcoSystemParticipationV1_0.sol\":4956:4974  aggregatorConsumer */\n      0x05\n      0x00\n        /* \"token_eco_system_dev_contracts/contracts_ready_for_prod/TokenEcoSystemParticipationV1_0.sol\":4956:5052  aggregatorConsumer = AggregatorConsumerInterface(... */\n      0x0100\n      exp\n      dup2\n      sload\n      dup2\n      0xffffffffffffffffffffffffffffffffffffffff\n      mul\n      not\n      and\n      swap1\n      dup4\n      0xffffffffffffffffffffffffffffffffffffffff\n      and\n      mul\n      or\n      swap1\n      sstore\n      pop\n        /* \"token_eco_system_dev_contracts/contracts_ready_for_prod/TokenEcoSystemParticipationV1_0.sol\":4783:5059  function addNewAggregatorPriceFeed(address consumerInterfaceAddress)... */\n      pop\n      jump\t// out\n        /* \"token_eco_system_dev_contracts/contracts_ready_for_prod/TokenEcoSystemParticipationV1_0.sol\":4287:4570  function changeAcceptedSenderAddress(address newAcceptedSender)... */\n    tag_54:\n        /* \"token_eco_system_dev_contracts/contracts_ready_for_prod/TokenEcoSystemParticipationV1_0.sol\":3126:3127  0 */\n      0x00\n        /* \"token_eco_system_dev_contracts/contracts_ready_for_prod/TokenEcoSystemParticipationV1_0.sol\":3093:3128  acceptedSenderAddress != address(0) */\n      0xffffffffffffffffffffffffffffffffffffffff\n      and\n        /* \"token_eco_system_dev_contracts/contracts_ready_for_prod/TokenEcoSystemParticipationV1_0.sol\":3093:3114  acceptedSenderAddress */\n      0x01\n      0x00\n      swap1\n      sload\n      swap1\n      0x0100\n      exp\n      swap1\n      div\n      0xffffffffffffffffffffffffffffffffffffffff\n      and\n        /* \"token_eco_system_dev_contracts/contracts_ready_for_prod/TokenEcoSystemParticipationV1_0.sol\":3093:3128  acceptedSenderAddress != address(0) */\n      0xffffffffffffffffffffffffffffffffffffffff\n      and\n      sub\n        /* \"token_eco_system_dev_contracts/contracts_ready_for_prod/TokenEcoSystemParticipationV1_0.sol\":3085:3147  require(acceptedSenderAddress != address(0), \"Not activated!\") */\n      tag_167\n      jumpi\n      mload(0x40)\n      0x08c379a000000000000000000000000000000000000000000000000000000000\n      dup2\n      mstore\n      0x04\n      add\n      tag_168\n      swap1\n      tag_131\n      jump\t// in\n    tag_168:\n      mload(0x40)\n      dup1\n      swap2\n      sub\n      swap1\n      revert\n    tag_167:\n        /* \"token_eco_system_dev_contracts/contracts_ready_for_prod/TokenEcoSystemParticipationV1_0.sol\":2989:3010  acceptedSenderAddress */\n      0x01\n      0x00\n      swap1\n      sload\n      swap1\n      0x0100\n      exp\n      swap1\n      div\n      0xffffffffffffffffffffffffffffffffffffffff\n      and\n        /* \"token_eco_system_dev_contracts/contracts_ready_for_prod/TokenEcoSystemParticipationV1_0.sol\":2975:3010  msg.sender == acceptedSenderAddress */\n      0xffffffffffffffffffffffffffffffffffffffff\n      and\n        /* \"token_eco_system_dev_contracts/contracts_ready_for_prod/TokenEcoSystemParticipationV1_0.sol\":2975:2985  msg.sender */\n      caller\n        /* \"token_eco_system_dev_contracts/contracts_ready_for_prod/TokenEcoSystemParticipationV1_0.sol\":2975:3010  msg.sender == acceptedSenderAddress */\n      0xffffffffffffffffffffffffffffffffffffffff\n      and\n      eq\n        /* \"token_eco_system_dev_contracts/contracts_ready_for_prod/TokenEcoSystemParticipationV1_0.sol\":2967:3030  require(msg.sender == acceptedSenderAddress, \"Not Authorized!\") */\n      tag_170\n      jumpi\n      mload(0x40)\n      0x08c379a000000000000000000000000000000000000000000000000000000000\n      dup2\n      mstore\n      0x04\n      add\n      tag_171\n      swap1\n      tag_172\n      jump\t// in\n    tag_171:\n      mload(0x40)\n      dup1\n      swap2\n      sub\n      swap1\n      revert\n    tag_170:\n        /* \"token_eco_system_dev_contracts/contracts_ready_for_prod/TokenEcoSystemParticipationV1_0.sol\":4458:4459  0 */\n      0x00\n        /* \"token_eco_system_dev_contracts/contracts_ready_for_prod/TokenEcoSystemParticipationV1_0.sol\":4429:4460  newAcceptedSender != address(0) */\n      0xffffffffffffffffffffffffffffffffffffffff\n      and\n        /* \"token_eco_system_dev_contracts/contracts_ready_for_prod/TokenEcoSystemParticipationV1_0.sol\":4429:4446  newAcceptedSender */\n      dup2\n        /* \"token_eco_system_dev_contracts/contracts_ready_for_prod/TokenEcoSystemParticipationV1_0.sol\":4429:4460  newAcceptedSender != address(0) */\n      0xffffffffffffffffffffffffffffffffffffffff\n      and\n      sub\n        /* \"token_eco_system_dev_contracts/contracts_ready_for_prod/TokenEcoSystemParticipationV1_0.sol\":4421:4461  require(newAcceptedSender != address(0)) */\n      tag_174\n      jumpi\n      0x00\n      dup1\n      revert\n    tag_174:\n        /* \"token_eco_system_dev_contracts/contracts_ready_for_prod/TokenEcoSystemParticipationV1_0.sol\":4495:4512  newAcceptedSender */\n      dup1\n        /* \"token_eco_system_dev_contracts/contracts_ready_for_prod/TokenEcoSystemParticipationV1_0.sol\":4471:4492  acceptedSenderAddress */\n      0x01\n      0x00\n        /* \"token_eco_system_dev_contracts/contracts_ready_for_prod/TokenEcoSystemParticipationV1_0.sol\":4471:4512  acceptedSenderAddress = newAcceptedSender */\n      0x0100\n      exp\n      dup2\n      sload\n      dup2\n      0xffffffffffffffffffffffffffffffffffffffff\n      mul\n      not\n      and\n      swap1\n      dup4\n      0xffffffffffffffffffffffffffffffffffffffff\n      and\n      mul\n      or\n      swap1\n      sstore\n      pop\n        /* \"token_eco_system_dev_contracts/contracts_ready_for_prod/TokenEcoSystemParticipationV1_0.sol\":4545:4562  newAcceptedSender */\n      dup1\n        /* \"token_eco_system_dev_contracts/contracts_ready_for_prod/TokenEcoSystemParticipationV1_0.sol\":4527:4563  NewAcceptedSender(newAcceptedSender) */\n      0xffffffffffffffffffffffffffffffffffffffff\n      and\n      0x8bbfeb6e784147166691d407a592a09379bbbd56888a96c54793bce54bb57523\n      mload(0x40)\n      mload(0x40)\n      dup1\n      swap2\n      sub\n      swap1\n      log2\n        /* \"token_eco_system_dev_contracts/contracts_ready_for_prod/TokenEcoSystemParticipationV1_0.sol\":4287:4570  function changeAcceptedSenderAddress(address newAcceptedSender)... */\n      pop\n      jump\t// out\n        /* \"token_eco_system_dev_contracts/contracts_ready_for_prod/TokenEcoSystemParticipationV1_0.sol\":3702:4002  function activate() public whenNotPaused {... */\n    tag_56:\n        /* \"@openzeppelin/contracts/security/Pausable.sol\":1239:1258  _requireNotPaused() */\n      tag_176\n        /* \"@openzeppelin/contracts/security/Pausable.sol\":1239:1256  _requireNotPaused */\n      tag_152\n        /* \"@openzeppelin/contracts/security/Pausable.sol\":1239:1258  _requireNotPaused() */\n      jump\t// in\n    tag_176:\n        /* \"token_eco_system_dev_contracts/contracts_ready_for_prod/TokenEcoSystemParticipationV1_0.sol\":3774:3784  msg.sender */\n      caller\n        /* \"token_eco_system_dev_contracts/contracts_ready_for_prod/TokenEcoSystemParticipationV1_0.sol\":3761:3784  activator == msg.sender */\n      0xffffffffffffffffffffffffffffffffffffffff\n      and\n        /* \"token_eco_system_dev_contracts/contracts_ready_for_prod/TokenEcoSystemParticipationV1_0.sol\":3761:3770  activator */\n      immutable(\"0xd2f63731675c6a71dc2bd3699360fd070b4ef61c2e40215aaeeee79f9e81574f\")\n        /* \"token_eco_system_dev_contracts/contracts_ready_for_prod/TokenEcoSystemParticipationV1_0.sol\":3761:3784  activator == msg.sender */\n      0xffffffffffffffffffffffffffffffffffffffff\n      and\n      eq\n        /* \"token_eco_system_dev_contracts/contracts_ready_for_prod/TokenEcoSystemParticipationV1_0.sol\":3753:3812  require(activator == msg.sender, \"Activation not allowed!\") */\n      tag_178\n      jumpi\n      mload(0x40)\n      0x08c379a000000000000000000000000000000000000000000000000000000000\n      dup2\n      mstore\n      0x04\n      add\n      tag_179\n      swap1\n      tag_180\n      jump\t// in\n    tag_179:\n      mload(0x40)\n      dup1\n      swap2\n      sub\n      swap1\n      revert\n    tag_178:\n        /* \"token_eco_system_dev_contracts/contracts_ready_for_prod/TokenEcoSystemParticipationV1_0.sol\":3863:3864  0 */\n      0x00\n        /* \"token_eco_system_dev_contracts/contracts_ready_for_prod/TokenEcoSystemParticipationV1_0.sol\":3830:3865  acceptedSenderAddress == address(0) */\n      0xffffffffffffffffffffffffffffffffffffffff\n      and\n        /* \"token_eco_system_dev_contracts/contracts_ready_for_prod/TokenEcoSystemParticipationV1_0.sol\":3830:3851  acceptedSenderAddress */\n      0x01\n      0x00\n      swap1\n      sload\n      swap1\n      0x0100\n      exp\n      swap1\n      div\n      0xffffffffffffffffffffffffffffffffffffffff\n      and\n        /* \"token_eco_system_dev_contracts/contracts_ready_for_prod/TokenEcoSystemParticipationV1_0.sol\":3830:3865  acceptedSenderAddress == address(0) */\n      0xffffffffffffffffffffffffffffffffffffffff\n      and\n      eq\n        /* \"token_eco_system_dev_contracts/contracts_ready_for_prod/TokenEcoSystemParticipationV1_0.sol\":3822:3888  require(acceptedSenderAddress == address(0), \"Already activated.\") */\n      tag_181\n      jumpi\n      mload(0x40)\n      0x08c379a000000000000000000000000000000000000000000000000000000000\n      dup2\n      mstore\n      0x04\n      add\n      tag_182\n      swap1\n      tag_183\n      jump\t// in\n    tag_182:\n      mload(0x40)\n      dup1\n      swap2\n      sub\n      swap1\n      revert\n    tag_181:\n        /* \"token_eco_system_dev_contracts/contracts_ready_for_prod/TokenEcoSystemParticipationV1_0.sol\":3922:3932  msg.sender */\n      caller\n        /* \"token_eco_system_dev_contracts/contracts_ready_for_prod/TokenEcoSystemParticipationV1_0.sol\":3898:3919  acceptedSenderAddress */\n      0x01\n      0x00\n        /* \"token_eco_system_dev_contracts/contracts_ready_for_prod/TokenEcoSystemParticipationV1_0.sol\":3898:3932  acceptedSenderAddress = msg.sender */\n      0x0100\n      exp\n      dup2\n      sload\n      dup2\n      0xffffffffffffffffffffffffffffffffffffffff\n      mul\n      not\n      and\n      swap1\n      dup4\n      0xffffffffffffffffffffffffffffffffffffffff\n      and\n      mul\n      or\n      swap1\n      sstore\n      pop\n        /* \"token_eco_system_dev_contracts/contracts_ready_for_prod/TokenEcoSystemParticipationV1_0.sol\":3956:3977  acceptedSenderAddress */\n      0x01\n      0x00\n      swap1\n      sload\n      swap1\n      0x0100\n      exp\n      swap1\n      div\n      0xffffffffffffffffffffffffffffffffffffffff\n      and\n        /* \"token_eco_system_dev_contracts/contracts_ready_for_prod/TokenEcoSystemParticipationV1_0.sol\":3947:3995  Activate(acceptedSenderAddress, block.timestamp) */\n      0xffffffffffffffffffffffffffffffffffffffff\n      and\n      0xfbd0a3f6e9a0dd5f834515748047e83de8064477489a0a0d6b59c64bbecc992a\n        /* \"token_eco_system_dev_contracts/contracts_ready_for_prod/TokenEcoSystemParticipationV1_0.sol\":3979:3994  block.timestamp */\n      timestamp\n        /* \"token_eco_system_dev_contracts/contracts_ready_for_prod/TokenEcoSystemParticipationV1_0.sol\":3947:3995  Activate(acceptedSenderAddress, block.timestamp) */\n      mload(0x40)\n      tag_184\n      swap2\n      swap1\n      tag_60\n      jump\t// in\n    tag_184:\n      mload(0x40)\n      dup1\n      swap2\n      sub\n      swap1\n      log2\n        /* \"token_eco_system_dev_contracts/contracts_ready_for_prod/TokenEcoSystemParticipationV1_0.sol\":3702:4002  function activate() public whenNotPaused {... */\n      jump\t// out\n        /* \"token_eco_system_dev_contracts/contracts_ready_for_prod/TokenEcoSystemParticipationV1_0.sol\":9705:9878  function getTotalBurnedTokens()... */\n    tag_58:\n        /* \"token_eco_system_dev_contracts/contracts_ready_for_prod/TokenEcoSystemParticipationV1_0.sol\":9830:9837  uint256 */\n      0x00\n        /* \"token_eco_system_dev_contracts/contracts_ready_for_prod/TokenEcoSystemParticipationV1_0.sol\":3126:3127  0 */\n      dup1\n        /* \"token_eco_system_dev_contracts/contracts_ready_for_prod/TokenEcoSystemParticipationV1_0.sol\":3093:3128  acceptedSenderAddress != address(0) */\n      0xffffffffffffffffffffffffffffffffffffffff\n      and\n        /* \"token_eco_system_dev_contracts/contracts_ready_for_prod/TokenEcoSystemParticipationV1_0.sol\":3093:3114  acceptedSenderAddress */\n      0x01\n      0x00\n      swap1\n      sload\n      swap1\n      0x0100\n      exp\n      swap1\n      div\n      0xffffffffffffffffffffffffffffffffffffffff\n      and\n        /* \"token_eco_system_dev_contracts/contracts_ready_for_prod/TokenEcoSystemParticipationV1_0.sol\":3093:3128  acceptedSenderAddress != address(0) */\n      0xffffffffffffffffffffffffffffffffffffffff\n      and\n      sub\n        /* \"token_eco_system_dev_contracts/contracts_ready_for_prod/TokenEcoSystemParticipationV1_0.sol\":3085:3147  require(acceptedSenderAddress != address(0), \"Not activated!\") */\n      tag_186\n      jumpi\n      mload(0x40)\n      0x08c379a000000000000000000000000000000000000000000000000000000000\n      dup2\n      mstore\n      0x04\n      add\n      tag_187\n      swap1\n      tag_131\n      jump\t// in\n    tag_187:\n      mload(0x40)\n      dup1\n      swap2\n      sub\n      swap1\n      revert\n    tag_186:\n        /* \"token_eco_system_dev_contracts/contracts_ready_for_prod/TokenEcoSystemParticipationV1_0.sol\":3250:3271  acceptedSenderAddress */\n      0x01\n      0x00\n      swap1\n      sload\n      swap1\n      0x0100\n      exp\n      swap1\n      div\n      0xffffffffffffffffffffffffffffffffffffffff\n      and\n        /* \"token_eco_system_dev_contracts/contracts_ready_for_prod/TokenEcoSystemParticipationV1_0.sol\":3236:3271  msg.sender == acceptedSenderAddress */\n      0xffffffffffffffffffffffffffffffffffffffff\n      and\n        /* \"token_eco_system_dev_contracts/contracts_ready_for_prod/TokenEcoSystemParticipationV1_0.sol\":3236:3246  msg.sender */\n      caller\n        /* \"token_eco_system_dev_contracts/contracts_ready_for_prod/TokenEcoSystemParticipationV1_0.sol\":3236:3271  msg.sender == acceptedSenderAddress */\n      0xffffffffffffffffffffffffffffffffffffffff\n      and\n      eq\n        /* \"token_eco_system_dev_contracts/contracts_ready_for_prod/TokenEcoSystemParticipationV1_0.sol\":3236:3296  msg.sender == acceptedSenderAddress || msg.sender == owner() */\n      dup1\n      tag_189\n      jumpi\n      pop\n        /* \"token_eco_system_dev_contracts/contracts_ready_for_prod/TokenEcoSystemParticipationV1_0.sol\":3289:3296  owner() */\n      tag_190\n        /* \"token_eco_system_dev_contracts/contracts_ready_for_prod/TokenEcoSystemParticipationV1_0.sol\":3289:3294  owner */\n      tag_83\n        /* \"token_eco_system_dev_contracts/contracts_ready_for_prod/TokenEcoSystemParticipationV1_0.sol\":3289:3296  owner() */\n      jump\t// in\n    tag_190:\n        /* \"token_eco_system_dev_contracts/contracts_ready_for_prod/TokenEcoSystemParticipationV1_0.sol\":3275:3296  msg.sender == owner() */\n      0xffffffffffffffffffffffffffffffffffffffff\n      and\n        /* \"token_eco_system_dev_contracts/contracts_ready_for_prod/TokenEcoSystemParticipationV1_0.sol\":3275:3285  msg.sender */\n      caller\n        /* \"token_eco_system_dev_contracts/contracts_ready_for_prod/TokenEcoSystemParticipationV1_0.sol\":3275:3296  msg.sender == owner() */\n      0xffffffffffffffffffffffffffffffffffffffff\n      and\n      eq\n        /* \"token_eco_system_dev_contracts/contracts_ready_for_prod/TokenEcoSystemParticipationV1_0.sol\":3236:3296  msg.sender == acceptedSenderAddress || msg.sender == owner() */\n    tag_189:\n        /* \"token_eco_system_dev_contracts/contracts_ready_for_prod/TokenEcoSystemParticipationV1_0.sol\":3214:3387  require(... */\n      tag_191\n      jumpi\n      mload(0x40)\n      0x08c379a000000000000000000000000000000000000000000000000000000000\n      dup2\n      mstore\n      0x04\n      add\n      tag_192\n      swap1\n      tag_193\n      jump\t// in\n    tag_192:\n      mload(0x40)\n      dup1\n      swap2\n      sub\n      swap1\n      revert\n    tag_191:\n        /* \"token_eco_system_dev_contracts/contracts_ready_for_prod/TokenEcoSystemParticipationV1_0.sol\":9860:9871  totalBurned */\n      sload(0x02)\n        /* \"token_eco_system_dev_contracts/contracts_ready_for_prod/TokenEcoSystemParticipationV1_0.sol\":9853:9871  return totalBurned */\n      swap1\n      pop\n        /* \"token_eco_system_dev_contracts/contracts_ready_for_prod/TokenEcoSystemParticipationV1_0.sol\":9705:9878  function getTotalBurnedTokens()... */\n      swap1\n      jump\t// out\n        /* \"token_eco_system_dev_contracts/contracts_ready_for_prod/TokenEcoSystemParticipationV1_0.sol\":4056:4229  function deactivate() public activated onlyAuthorized whenNotPaused {... */\n    tag_62:\n        /* \"token_eco_system_dev_contracts/contracts_ready_for_prod/TokenEcoSystemParticipationV1_0.sol\":3126:3127  0 */\n      0x00\n        /* \"token_eco_system_dev_contracts/contracts_ready_for_prod/TokenEcoSystemParticipationV1_0.sol\":3093:3128  acceptedSenderAddress != address(0) */\n      0xffffffffffffffffffffffffffffffffffffffff\n      and\n        /* \"token_eco_system_dev_contracts/contracts_ready_for_prod/TokenEcoSystemParticipationV1_0.sol\":3093:3114  acceptedSenderAddress */\n      0x01\n      0x00\n      swap1\n      sload\n      swap1\n      0x0100\n      exp\n      swap1\n      div\n      0xffffffffffffffffffffffffffffffffffffffff\n      and\n        /* \"token_eco_system_dev_contracts/contracts_ready_for_prod/TokenEcoSystemParticipationV1_0.sol\":3093:3128  acceptedSenderAddress != address(0) */\n      0xffffffffffffffffffffffffffffffffffffffff\n      and\n      sub\n        /* \"token_eco_system_dev_contracts/contracts_ready_for_prod/TokenEcoSystemParticipationV1_0.sol\":3085:3147  require(acceptedSenderAddress != address(0), \"Not activated!\") */\n      tag_196\n      jumpi\n      mload(0x40)\n      0x08c379a000000000000000000000000000000000000000000000000000000000\n      dup2\n      mstore\n      0x04\n      add\n      tag_197\n      swap1\n      tag_131\n      jump\t// in\n    tag_197:\n      mload(0x40)\n      dup1\n      swap2\n      sub\n      swap1\n      revert\n    tag_196:\n        /* \"token_eco_system_dev_contracts/contracts_ready_for_prod/TokenEcoSystemParticipationV1_0.sol\":2989:3010  acceptedSenderAddress */\n      0x01\n      0x00\n      swap1\n      sload\n      swap1\n      0x0100\n      exp\n      swap1\n      div\n      0xffffffffffffffffffffffffffffffffffffffff\n      and\n        /* \"token_eco_system_dev_contracts/contracts_ready_for_prod/TokenEcoSystemParticipationV1_0.sol\":2975:3010  msg.sender == acceptedSenderAddress */\n      0xffffffffffffffffffffffffffffffffffffffff\n      and\n        /* \"token_eco_system_dev_contracts/contracts_ready_for_prod/TokenEcoSystemParticipationV1_0.sol\":2975:2985  msg.sender */\n      caller\n        /* \"token_eco_system_dev_contracts/contracts_ready_for_prod/TokenEcoSystemParticipationV1_0.sol\":2975:3010  msg.sender == acceptedSenderAddress */\n      0xffffffffffffffffffffffffffffffffffffffff\n      and\n      eq\n        /* \"token_eco_system_dev_contracts/contracts_ready_for_prod/TokenEcoSystemParticipationV1_0.sol\":2967:3030  require(msg.sender == acceptedSenderAddress, \"Not Authorized!\") */\n      tag_199\n      jumpi\n      mload(0x40)\n      0x08c379a000000000000000000000000000000000000000000000000000000000\n      dup2\n      mstore\n      0x04\n      add\n      tag_200\n      swap1\n      tag_172\n      jump\t// in\n    tag_200:\n      mload(0x40)\n      dup1\n      swap2\n      sub\n      swap1\n      revert\n    tag_199:\n        /* \"@openzeppelin/contracts/security/Pausable.sol\":1239:1258  _requireNotPaused() */\n      tag_202\n        /* \"@openzeppelin/contracts/security/Pausable.sol\":1239:1256  _requireNotPaused */\n      tag_152\n        /* \"@openzeppelin/contracts/security/Pausable.sol\":1239:1258  _requireNotPaused() */\n      jump\t// in\n    tag_202:\n        /* \"token_eco_system_dev_contracts/contracts_ready_for_prod/TokenEcoSystemParticipationV1_0.sol\":4166:4167  0 */\n      0x00\n        /* \"token_eco_system_dev_contracts/contracts_ready_for_prod/TokenEcoSystemParticipationV1_0.sol\":4134:4155  acceptedSenderAddress */\n      0x01\n      0x00\n        /* \"token_eco_system_dev_contracts/contracts_ready_for_prod/TokenEcoSystemParticipationV1_0.sol\":4134:4168  acceptedSenderAddress = address(0) */\n      0x0100\n      exp\n      dup2\n      sload\n      dup2\n      0xffffffffffffffffffffffffffffffffffffffff\n      mul\n      not\n      and\n      swap1\n      dup4\n      0xffffffffffffffffffffffffffffffffffffffff\n      and\n      mul\n      or\n      swap1\n      sstore\n      pop\n        /* \"token_eco_system_dev_contracts/contracts_ready_for_prod/TokenEcoSystemParticipationV1_0.sol\":4194:4204  msg.sender */\n      caller\n        /* \"token_eco_system_dev_contracts/contracts_ready_for_prod/TokenEcoSystemParticipationV1_0.sol\":4183:4222  Deactivate(msg.sender, block.timestamp) */\n      0xffffffffffffffffffffffffffffffffffffffff\n      and\n      0x13b865880a841dc469b629159fa1e730fee99568b0decc6737fd688b36246381\n        /* \"token_eco_system_dev_contracts/contracts_ready_for_prod/TokenEcoSystemParticipationV1_0.sol\":4206:4221  block.timestamp */\n      timestamp\n        /* \"token_eco_system_dev_contracts/contracts_ready_for_prod/TokenEcoSystemParticipationV1_0.sol\":4183:4222  Deactivate(msg.sender, block.timestamp) */\n      mload(0x40)\n      tag_204\n      swap2\n      swap1\n      tag_60\n      jump\t// in\n    tag_204:\n      mload(0x40)\n      dup1\n      swap2\n      sub\n      swap1\n      log2\n        /* \"token_eco_system_dev_contracts/contracts_ready_for_prod/TokenEcoSystemParticipationV1_0.sol\":4056:4229  function deactivate() public activated onlyAuthorized whenNotPaused {... */\n      jump\t// out\n        /* \"@openzeppelin/contracts/security/Pausable.sol\":1615:1699  function paused() public view virtual returns (bool) {... */\n    tag_64:\n        /* \"@openzeppelin/contracts/security/Pausable.sol\":1662:1666  bool */\n      0x00\n        /* \"@openzeppelin/contracts/security/Pausable.sol\":1685:1692  _paused */\n      dup1\n      0x00\n      swap1\n      sload\n      swap1\n      0x0100\n      exp\n      swap1\n      div\n      0xff\n      and\n        /* \"@openzeppelin/contracts/security/Pausable.sol\":1678:1692  return _paused */\n      swap1\n      pop\n        /* \"@openzeppelin/contracts/security/Pausable.sol\":1615:1699  function paused() public view virtual returns (bool) {... */\n      swap1\n      jump\t// out\n        /* \"token_eco_system_dev_contracts/contracts_ready_for_prod/TokenEcoSystemParticipationV1_0.sol\":8891:9185  function transferOfToken(... */\n    tag_70:\n        /* \"token_eco_system_dev_contracts/contracts_ready_for_prod/TokenEcoSystemParticipationV1_0.sol\":9028:9032  bool */\n      0x00\n        /* \"@openzeppelin/contracts/access/Ownable.sol\":1094:1107  _checkOwner() */\n      tag_207\n        /* \"@openzeppelin/contracts/access/Ownable.sol\":1094:1105  _checkOwner */\n      tag_127\n        /* \"@openzeppelin/contracts/access/Ownable.sol\":1094:1107  _checkOwner() */\n      jump\t// in\n    tag_207:\n        /* \"token_eco_system_dev_contracts/contracts_ready_for_prod/TokenEcoSystemParticipationV1_0.sol\":9084:9090  amount */\n      dup2\n        /* \"token_eco_system_dev_contracts/contracts_ready_for_prod/TokenEcoSystemParticipationV1_0.sol\":9052:9080  balanceOfToken(tokenAddress) */\n      tag_209\n        /* \"token_eco_system_dev_contracts/contracts_ready_for_prod/TokenEcoSystemParticipationV1_0.sol\":9067:9079  tokenAddress */\n      dup6\n        /* \"token_eco_system_dev_contracts/contracts_ready_for_prod/TokenEcoSystemParticipationV1_0.sol\":9052:9066  balanceOfToken */\n      tag_106\n        /* \"token_eco_system_dev_contracts/contracts_ready_for_prod/TokenEcoSystemParticipationV1_0.sol\":9052:9080  balanceOfToken(tokenAddress) */\n      jump\t// in\n    tag_209:\n        /* \"token_eco_system_dev_contracts/contracts_ready_for_prod/TokenEcoSystemParticipationV1_0.sol\":9052:9090  balanceOfToken(tokenAddress) >= amount */\n      lt\n      iszero\n        /* \"token_eco_system_dev_contracts/contracts_ready_for_prod/TokenEcoSystemParticipationV1_0.sol\":9044:9114  require(balanceOfToken(tokenAddress) >= amount, \"Not enough balance!\") */\n      tag_210\n      jumpi\n      mload(0x40)\n      0x08c379a000000000000000000000000000000000000000000000000000000000\n      dup2\n      mstore\n      0x04\n      add\n      tag_211\n      swap1\n      tag_212\n      jump\t// in\n    tag_211:\n      mload(0x40)\n      dup1\n      swap2\n      sub\n      swap1\n      revert\n    tag_210:\n        /* \"token_eco_system_dev_contracts/contracts_ready_for_prod/TokenEcoSystemParticipationV1_0.sol\":9138:9150  tokenAddress */\n      dup4\n        /* \"token_eco_system_dev_contracts/contracts_ready_for_prod/TokenEcoSystemParticipationV1_0.sol\":9131:9160  IERC20(tokenAddress).transfer */\n      0xffffffffffffffffffffffffffffffffffffffff\n      and\n      0xa9059cbb\n        /* \"token_eco_system_dev_contracts/contracts_ready_for_prod/TokenEcoSystemParticipationV1_0.sol\":9161:9169  receiver */\n      dup5\n        /* \"token_eco_system_dev_contracts/contracts_ready_for_prod/TokenEcoSystemParticipationV1_0.sol\":9171:9177  amount */\n      dup5\n        /* \"token_eco_system_dev_contracts/contracts_ready_for_prod/TokenEcoSystemParticipationV1_0.sol\":9131:9178  IERC20(tokenAddress).transfer(receiver, amount) */\n      mload(0x40)\n      dup4\n      0xffffffff\n      and\n      0xe0\n      shl\n      dup2\n      mstore\n      0x04\n      add\n      tag_213\n      swap3\n      swap2\n      swap1\n      tag_214\n      jump\t// in\n    tag_213:\n      0x20\n      mload(0x40)\n      dup1\n      dup4\n      sub\n      dup2\n      0x00\n      dup8\n      gas\n      call\n      iszero\n      dup1\n      iszero\n      tag_216\n      jumpi\n      returndatasize\n      0x00\n      dup1\n      returndatacopy\n      revert(0x00, returndatasize)\n    tag_216:\n      pop\n      pop\n      pop\n      pop\n      mload(0x40)\n      returndatasize\n      not(0x1f)\n      0x1f\n      dup3\n      add\n      and\n      dup3\n      add\n      dup1\n      0x40\n      mstore\n      pop\n      dup2\n      add\n      swap1\n      tag_217\n      swap2\n      swap1\n      tag_218\n      jump\t// in\n    tag_217:\n        /* \"token_eco_system_dev_contracts/contracts_ready_for_prod/TokenEcoSystemParticipationV1_0.sol\":9124:9178  return IERC20(tokenAddress).transfer(receiver, amount) */\n      swap1\n      pop\n        /* \"token_eco_system_dev_contracts/contracts_ready_for_prod/TokenEcoSystemParticipationV1_0.sol\":8891:9185  function transferOfToken(... */\n      swap4\n      swap3\n      pop\n      pop\n      pop\n      jump\t// out\n        /* \"@openzeppelin/contracts/access/Ownable.sol\":1831:1932  function renounceOwnership() public virtual onlyOwner {... */\n    tag_73:\n        /* \"@openzeppelin/contracts/access/Ownable.sol\":1094:1107  _checkOwner() */\n      tag_220\n        /* \"@openzeppelin/contracts/access/Ownable.sol\":1094:1105  _checkOwner */\n      tag_127\n        /* \"@openzeppelin/contracts/access/Ownable.sol\":1094:1107  _checkOwner() */\n      jump\t// in\n    tag_220:\n        /* \"@openzeppelin/contracts/access/Ownable.sol\":1895:1925  _transferOwnership(address(0)) */\n      tag_222\n        /* \"@openzeppelin/contracts/access/Ownable.sol\":1922:1923  0 */\n      0x00\n        /* \"@openzeppelin/contracts/access/Ownable.sol\":1895:1913  _transferOwnership */\n      tag_223\n        /* \"@openzeppelin/contracts/access/Ownable.sol\":1895:1925  _transferOwnership(address(0)) */\n      jump\t// in\n    tag_222:\n        /* \"@openzeppelin/contracts/access/Ownable.sol\":1831:1932  function renounceOwnership() public virtual onlyOwner {... */\n      jump\t// out\n        /* \"token_eco_system_dev_contracts/contracts_ready_for_prod/TokenEcoSystemParticipationV1_0.sol\":8360:8465  function balanceOf() public view returns (uint256) {... */\n    tag_75:\n        /* \"token_eco_system_dev_contracts/contracts_ready_for_prod/TokenEcoSystemParticipationV1_0.sol\":8402:8409  uint256 */\n      0x00\n        /* \"token_eco_system_dev_contracts/contracts_ready_for_prod/TokenEcoSystemParticipationV1_0.sol\":8428:8433  token */\n      immutable(\"0x448072f8ce0e9d09a2030ee35ba0d03fccbd0c61c3623f421061fbafdf5a67a9\")\n        /* \"token_eco_system_dev_contracts/contracts_ready_for_prod/TokenEcoSystemParticipationV1_0.sol\":8428:8443  token.balanceOf */\n      0xffffffffffffffffffffffffffffffffffffffff\n      and\n      0x70a08231\n        /* \"token_eco_system_dev_contracts/contracts_ready_for_prod/TokenEcoSystemParticipationV1_0.sol\":8452:8456  this */\n      address\n        /* \"token_eco_system_dev_contracts/contracts_ready_for_prod/TokenEcoSystemParticipationV1_0.sol\":8428:8458  token.balanceOf(address(this)) */\n      mload(0x40)\n      dup3\n      0xffffffff\n      and\n      0xe0\n      shl\n      dup2\n      mstore\n      0x04\n      add\n      tag_225\n      swap2\n      swap1\n      tag_47\n      jump\t// in\n    tag_225:\n      0x20\n      mload(0x40)\n      dup1\n      dup4\n      sub\n      dup2\n      dup7\n      gas\n      staticcall\n      iszero\n      dup1\n      iszero\n      tag_227\n      jumpi\n      returndatasize\n      0x00\n      dup1\n      returndatacopy\n      revert(0x00, returndatasize)\n    tag_227:\n      pop\n      pop\n      pop\n      pop\n      mload(0x40)\n      returndatasize\n      not(0x1f)\n      0x1f\n      dup3\n      add\n      and\n      dup3\n      add\n      dup1\n      0x40\n      mstore\n      pop\n      dup2\n      add\n      swap1\n      tag_228\n      swap2\n      swap1\n      tag_229\n      jump\t// in\n    tag_228:\n        /* \"token_eco_system_dev_contracts/contracts_ready_for_prod/TokenEcoSystemParticipationV1_0.sol\":8421:8458  return token.balanceOf(address(this)) */\n      swap1\n      pop\n        /* \"token_eco_system_dev_contracts/contracts_ready_for_prod/TokenEcoSystemParticipationV1_0.sol\":8360:8465  function balanceOf() public view returns (uint256) {... */\n      swap1\n      jump\t// out\n        /* \"token_eco_system_dev_contracts/contracts_ready_for_prod/TokenEcoSystemParticipationV1_0.sol\":6473:6817  function calculateAmount(... */\n    tag_80:\n        /* \"token_eco_system_dev_contracts/contracts_ready_for_prod/TokenEcoSystemParticipationV1_0.sol\":6607:6614  uint256 */\n      0x00\n        /* \"@openzeppelin/contracts/access/Ownable.sol\":1094:1107  _checkOwner() */\n      tag_231\n        /* \"@openzeppelin/contracts/access/Ownable.sol\":1094:1105  _checkOwner */\n      tag_127\n        /* \"@openzeppelin/contracts/access/Ownable.sol\":1094:1107  _checkOwner() */\n      jump\t// in\n    tag_231:\n        /* \"token_eco_system_dev_contracts/contracts_ready_for_prod/TokenEcoSystemParticipationV1_0.sol\":6654:6655  0 */\n      0x00\n        /* \"token_eco_system_dev_contracts/contracts_ready_for_prod/TokenEcoSystemParticipationV1_0.sol\":6647:6651  rate */\n      dup4\n        /* \"token_eco_system_dev_contracts/contracts_ready_for_prod/TokenEcoSystemParticipationV1_0.sol\":6647:6655  rate > 0 */\n      gt\n        /* \"token_eco_system_dev_contracts/contracts_ready_for_prod/TokenEcoSystemParticipationV1_0.sol\":6647:6669  rate > 0 && points > 0 */\n      dup1\n      iszero\n      tag_233\n      jumpi\n      pop\n        /* \"token_eco_system_dev_contracts/contracts_ready_for_prod/TokenEcoSystemParticipationV1_0.sol\":6668:6669  0 */\n      0x00\n        /* \"token_eco_system_dev_contracts/contracts_ready_for_prod/TokenEcoSystemParticipationV1_0.sol\":6659:6665  points */\n      dup5\n        /* \"token_eco_system_dev_contracts/contracts_ready_for_prod/TokenEcoSystemParticipationV1_0.sol\":6659:6669  points > 0 */\n      gt\n        /* \"token_eco_system_dev_contracts/contracts_ready_for_prod/TokenEcoSystemParticipationV1_0.sol\":6647:6669  rate > 0 && points > 0 */\n    tag_233:\n        /* \"token_eco_system_dev_contracts/contracts_ready_for_prod/TokenEcoSystemParticipationV1_0.sol\":6647:6685  rate > 0 && points > 0 && decimals > 0 */\n      dup1\n      iszero\n      tag_234\n      jumpi\n      pop\n        /* \"token_eco_system_dev_contracts/contracts_ready_for_prod/TokenEcoSystemParticipationV1_0.sol\":6684:6685  0 */\n      0x00\n        /* \"token_eco_system_dev_contracts/contracts_ready_for_prod/TokenEcoSystemParticipationV1_0.sol\":6673:6681  decimals */\n      dup3\n        /* \"token_eco_system_dev_contracts/contracts_ready_for_prod/TokenEcoSystemParticipationV1_0.sol\":6673:6685  decimals > 0 */\n      gt\n        /* \"token_eco_system_dev_contracts/contracts_ready_for_prod/TokenEcoSystemParticipationV1_0.sol\":6647:6685  rate > 0 && points > 0 && decimals > 0 */\n    tag_234:\n        /* \"token_eco_system_dev_contracts/contracts_ready_for_prod/TokenEcoSystemParticipationV1_0.sol\":6626:6763  require(... */\n      tag_235\n      jumpi\n      mload(0x40)\n      0x08c379a000000000000000000000000000000000000000000000000000000000\n      dup2\n      mstore\n      0x04\n      add\n      tag_236\n      swap1\n      tag_237\n      jump\t// in\n    tag_236:\n      mload(0x40)\n      dup1\n      swap2\n      sub\n      swap1\n      revert\n    tag_235:\n        /* \"token_eco_system_dev_contracts/contracts_ready_for_prod/TokenEcoSystemParticipationV1_0.sol\":6806:6810  rate */\n      dup3\n        /* \"token_eco_system_dev_contracts/contracts_ready_for_prod/TokenEcoSystemParticipationV1_0.sol\":6794:6802  decimals */\n      dup3\n        /* \"token_eco_system_dev_contracts/contracts_ready_for_prod/TokenEcoSystemParticipationV1_0.sol\":6790:6792  10 */\n      0x0a\n        /* \"token_eco_system_dev_contracts/contracts_ready_for_prod/TokenEcoSystemParticipationV1_0.sol\":6790:6802  10**decimals */\n      tag_238\n      swap2\n      swap1\n      tag_239\n      jump\t// in\n    tag_238:\n        /* \"token_eco_system_dev_contracts/contracts_ready_for_prod/TokenEcoSystemParticipationV1_0.sol\":6781:6787  points */\n      dup6\n        /* \"token_eco_system_dev_contracts/contracts_ready_for_prod/TokenEcoSystemParticipationV1_0.sol\":6781:6802  points * 10**decimals */\n      tag_240\n      swap2\n      swap1\n      tag_241\n      jump\t// in\n    tag_240:\n        /* \"token_eco_system_dev_contracts/contracts_ready_for_prod/TokenEcoSystemParticipationV1_0.sol\":6780:6810  (points * 10**decimals) / rate */\n      tag_242\n      swap2\n      swap1\n      tag_243\n      jump\t// in\n    tag_242:\n        /* \"token_eco_system_dev_contracts/contracts_ready_for_prod/TokenEcoSystemParticipationV1_0.sol\":6773:6810  return (points * 10**decimals) / rate */\n      swap1\n      pop\n        /* \"token_eco_system_dev_contracts/contracts_ready_for_prod/TokenEcoSystemParticipationV1_0.sol\":6473:6817  function calculateAmount(... */\n      swap4\n      swap3\n      pop\n      pop\n      pop\n      jump\t// out\n        /* \"@openzeppelin/contracts/access/Ownable.sol\":1201:1286  function owner() public view virtual returns (address) {... */\n    tag_83:\n        /* \"@openzeppelin/contracts/access/Ownable.sol\":1247:1254  address */\n      0x00\n        /* \"@openzeppelin/contracts/access/Ownable.sol\":1273:1279  _owner */\n      dup1\n      0x01\n      swap1\n      sload\n      swap1\n      0x0100\n      exp\n      swap1\n      div\n      0xffffffffffffffffffffffffffffffffffffffff\n      and\n        /* \"@openzeppelin/contracts/access/Ownable.sol\":1266:1279  return _owner */\n      swap1\n      pop\n        /* \"@openzeppelin/contracts/access/Ownable.sol\":1201:1286  function owner() public view virtual returns (address) {... */\n      swap1\n      jump\t// out\n        /* \"token_eco_system_dev_contracts/contracts_ready_for_prod/TokenEcoSystemParticipationV1_0.sol\":10198:10369  function getPointsBalance()... */\n    tag_86:\n        /* \"token_eco_system_dev_contracts/contracts_ready_for_prod/TokenEcoSystemParticipationV1_0.sol\":10319:10326  uint256 */\n      0x00\n        /* \"token_eco_system_dev_contracts/contracts_ready_for_prod/TokenEcoSystemParticipationV1_0.sol\":3126:3127  0 */\n      dup1\n        /* \"token_eco_system_dev_contracts/contracts_ready_for_prod/TokenEcoSystemParticipationV1_0.sol\":3093:3128  acceptedSenderAddress != address(0) */\n      0xffffffffffffffffffffffffffffffffffffffff\n      and\n        /* \"token_eco_system_dev_contracts/contracts_ready_for_prod/TokenEcoSystemParticipationV1_0.sol\":3093:3114  acceptedSenderAddress */\n      0x01\n      0x00\n      swap1\n      sload\n      swap1\n      0x0100\n      exp\n      swap1\n      div\n      0xffffffffffffffffffffffffffffffffffffffff\n      and\n        /* \"token_eco_system_dev_contracts/contracts_ready_for_prod/TokenEcoSystemParticipationV1_0.sol\":3093:3128  acceptedSenderAddress != address(0) */\n      0xffffffffffffffffffffffffffffffffffffffff\n      and\n      sub\n        /* \"token_eco_system_dev_contracts/contracts_ready_for_prod/TokenEcoSystemParticipationV1_0.sol\":3085:3147  require(acceptedSenderAddress != address(0), \"Not activated!\") */\n      tag_246\n      jumpi\n      mload(0x40)\n      0x08c379a000000000000000000000000000000000000000000000000000000000\n      dup2\n      mstore\n      0x04\n      add\n      tag_247\n      swap1\n      tag_131\n      jump\t// in\n    tag_247:\n      mload(0x40)\n      dup1\n      swap2\n      sub\n      swap1\n      revert\n    tag_246:\n        /* \"token_eco_system_dev_contracts/contracts_ready_for_prod/TokenEcoSystemParticipationV1_0.sol\":3250:3271  acceptedSenderAddress */\n      0x01\n      0x00\n      swap1\n      sload\n      swap1\n      0x0100\n      exp\n      swap1\n      div\n      0xffffffffffffffffffffffffffffffffffffffff\n      and\n        /* \"token_eco_system_dev_contracts/contracts_ready_for_prod/TokenEcoSystemParticipationV1_0.sol\":3236:3271  msg.sender == acceptedSenderAddress */\n      0xffffffffffffffffffffffffffffffffffffffff\n      and\n        /* \"token_eco_system_dev_contracts/contracts_ready_for_prod/TokenEcoSystemParticipationV1_0.sol\":3236:3246  msg.sender */\n      caller\n        /* \"token_eco_system_dev_contracts/contracts_ready_for_prod/TokenEcoSystemParticipationV1_0.sol\":3236:3271  msg.sender == acceptedSenderAddress */\n      0xffffffffffffffffffffffffffffffffffffffff\n      and\n      eq\n        /* \"token_eco_system_dev_contracts/contracts_ready_for_prod/TokenEcoSystemParticipationV1_0.sol\":3236:3296  msg.sender == acceptedSenderAddress || msg.sender == owner() */\n      dup1\n      tag_249\n      jumpi\n      pop\n        /* \"token_eco_system_dev_contracts/contracts_ready_for_prod/TokenEcoSystemParticipationV1_0.sol\":3289:3296  owner() */\n      tag_250\n        /* \"token_eco_system_dev_contracts/contracts_ready_for_prod/TokenEcoSystemParticipationV1_0.sol\":3289:3294  owner */\n      tag_83\n        /* \"token_eco_system_dev_contracts/contracts_ready_for_prod/TokenEcoSystemParticipationV1_0.sol\":3289:3296  owner() */\n      jump\t// in\n    tag_250:\n        /* \"token_eco_system_dev_contracts/contracts_ready_for_prod/TokenEcoSystemParticipationV1_0.sol\":3275:3296  msg.sender == owner() */\n      0xffffffffffffffffffffffffffffffffffffffff\n      and\n        /* \"token_eco_system_dev_contracts/contracts_ready_for_prod/TokenEcoSystemParticipationV1_0.sol\":3275:3285  msg.sender */\n      caller\n        /* \"token_eco_system_dev_contracts/contracts_ready_for_prod/TokenEcoSystemParticipationV1_0.sol\":3275:3296  msg.sender == owner() */\n      0xffffffffffffffffffffffffffffffffffffffff\n      and\n      eq\n        /* \"token_eco_system_dev_contracts/contracts_ready_for_prod/TokenEcoSystemParticipationV1_0.sol\":3236:3296  msg.sender == acceptedSenderAddress || msg.sender == owner() */\n    tag_249:\n        /* \"token_eco_system_dev_contracts/contracts_ready_for_prod/TokenEcoSystemParticipationV1_0.sol\":3214:3387  require(... */\n      tag_251\n      jumpi\n      mload(0x40)\n      0x08c379a000000000000000000000000000000000000000000000000000000000\n      dup2\n      mstore\n      0x04\n      add\n      tag_252\n      swap1\n      tag_193\n      jump\t// in\n    tag_252:\n      mload(0x40)\n      dup1\n      swap2\n      sub\n      swap1\n      revert\n    tag_251:\n        /* \"token_eco_system_dev_contracts/contracts_ready_for_prod/TokenEcoSystemParticipationV1_0.sol\":10349:10362  pointsBalance */\n      sload(0x04)\n        /* \"token_eco_system_dev_contracts/contracts_ready_for_prod/TokenEcoSystemParticipationV1_0.sol\":10342:10362  return pointsBalance */\n      swap1\n      pop\n        /* \"token_eco_system_dev_contracts/contracts_ready_for_prod/TokenEcoSystemParticipationV1_0.sol\":10198:10369  function getPointsBalance()... */\n      swap1\n      jump\t// out\n        /* \"token_eco_system_dev_contracts/contracts_ready_for_prod/TokenEcoSystemParticipationV1_0.sol\":6823:6966  function checkAllowance() public onlyOwnerOrAuthorized view returns (uint256){... */\n    tag_89:\n        /* \"token_eco_system_dev_contracts/contracts_ready_for_prod/TokenEcoSystemParticipationV1_0.sol\":6892:6899  uint256 */\n      0x00\n        /* \"token_eco_system_dev_contracts/contracts_ready_for_prod/TokenEcoSystemParticipationV1_0.sol\":3250:3271  acceptedSenderAddress */\n      0x01\n      0x00\n      swap1\n      sload\n      swap1\n      0x0100\n      exp\n      swap1\n      div\n      0xffffffffffffffffffffffffffffffffffffffff\n      and\n        /* \"token_eco_system_dev_contracts/contracts_ready_for_prod/TokenEcoSystemParticipationV1_0.sol\":3236:3271  msg.sender == acceptedSenderAddress */\n      0xffffffffffffffffffffffffffffffffffffffff\n      and\n        /* \"token_eco_system_dev_contracts/contracts_ready_for_prod/TokenEcoSystemParticipationV1_0.sol\":3236:3246  msg.sender */\n      caller\n        /* \"token_eco_system_dev_contracts/contracts_ready_for_prod/TokenEcoSystemParticipationV1_0.sol\":3236:3271  msg.sender == acceptedSenderAddress */\n      0xffffffffffffffffffffffffffffffffffffffff\n      and\n      eq\n        /* \"token_eco_system_dev_contracts/contracts_ready_for_prod/TokenEcoSystemParticipationV1_0.sol\":3236:3296  msg.sender == acceptedSenderAddress || msg.sender == owner() */\n      dup1\n      tag_255\n      jumpi\n      pop\n        /* \"token_eco_system_dev_contracts/contracts_ready_for_prod/TokenEcoSystemParticipationV1_0.sol\":3289:3296  owner() */\n      tag_256\n        /* \"token_eco_system_dev_contracts/contracts_ready_for_prod/TokenEcoSystemParticipationV1_0.sol\":3289:3294  owner */\n      tag_83\n        /* \"token_eco_system_dev_contracts/contracts_ready_for_prod/TokenEcoSystemParticipationV1_0.sol\":3289:3296  owner() */\n      jump\t// in\n    tag_256:\n        /* \"token_eco_system_dev_contracts/contracts_ready_for_prod/TokenEcoSystemParticipationV1_0.sol\":3275:3296  msg.sender == owner() */\n      0xffffffffffffffffffffffffffffffffffffffff\n      and\n        /* \"token_eco_system_dev_contracts/contracts_ready_for_prod/TokenEcoSystemParticipationV1_0.sol\":3275:3285  msg.sender */\n      caller\n        /* \"token_eco_system_dev_contracts/contracts_ready_for_prod/TokenEcoSystemParticipationV1_0.sol\":3275:3296  msg.sender == owner() */\n      0xffffffffffffffffffffffffffffffffffffffff\n      and\n      eq\n        /* \"token_eco_system_dev_contracts/contracts_ready_for_prod/TokenEcoSystemParticipationV1_0.sol\":3236:3296  msg.sender == acceptedSenderAddress || msg.sender == owner() */\n    tag_255:\n        /* \"token_eco_system_dev_contracts/contracts_ready_for_prod/TokenEcoSystemParticipationV1_0.sol\":3214:3387  require(... */\n      tag_257\n      jumpi\n      mload(0x40)\n      0x08c379a000000000000000000000000000000000000000000000000000000000\n      dup2\n      mstore\n      0x04\n      add\n      tag_258\n      swap1\n      tag_193\n      jump\t// in\n    tag_258:\n      mload(0x40)\n      dup1\n      swap2\n      sub\n      swap1\n      revert\n    tag_257:\n        /* \"token_eco_system_dev_contracts/contracts_ready_for_prod/TokenEcoSystemParticipationV1_0.sol\":6917:6922  token */\n      immutable(\"0x448072f8ce0e9d09a2030ee35ba0d03fccbd0c61c3623f421061fbafdf5a67a9\")\n        /* \"token_eco_system_dev_contracts/contracts_ready_for_prod/TokenEcoSystemParticipationV1_0.sol\":6917:6932  token.allowance */\n      0xffffffffffffffffffffffffffffffffffffffff\n      and\n      0xdd62ed3e\n        /* \"token_eco_system_dev_contracts/contracts_ready_for_prod/TokenEcoSystemParticipationV1_0.sol\":6933:6943  msg.sender */\n      caller\n        /* \"token_eco_system_dev_contracts/contracts_ready_for_prod/TokenEcoSystemParticipationV1_0.sol\":6953:6957  this */\n      address\n        /* \"token_eco_system_dev_contracts/contracts_ready_for_prod/TokenEcoSystemParticipationV1_0.sol\":6917:6959  token.allowance(msg.sender, address(this)) */\n      mload(0x40)\n      dup4\n      0xffffffff\n      and\n      0xe0\n      shl\n      dup2\n      mstore\n      0x04\n      add\n      tag_260\n      swap3\n      swap2\n      swap1\n      tag_261\n      jump\t// in\n    tag_260:\n      0x20\n      mload(0x40)\n      dup1\n      dup4\n      sub\n      dup2\n      dup7\n      gas\n      staticcall\n      iszero\n      dup1\n      iszero\n      tag_263\n      jumpi\n      returndatasize\n      0x00\n      dup1\n      returndatacopy\n      revert(0x00, returndatasize)\n    tag_263:\n      pop\n      pop\n      pop\n      pop\n      mload(0x40)\n      returndatasize\n      not(0x1f)\n      0x1f\n      dup3\n      add\n      and\n      dup3\n      add\n      dup1\n      0x40\n      mstore\n      pop\n      dup2\n      add\n      swap1\n      tag_264\n      swap2\n      swap1\n      tag_229\n      jump\t// in\n    tag_264:\n        /* \"token_eco_system_dev_contracts/contracts_ready_for_prod/TokenEcoSystemParticipationV1_0.sol\":6910:6959  return token.allowance(msg.sender, address(this)) */\n      swap1\n      pop\n        /* \"token_eco_system_dev_contracts/contracts_ready_for_prod/TokenEcoSystemParticipationV1_0.sol\":6823:6966  function checkAllowance() public onlyOwnerOrAuthorized view returns (uint256){... */\n      swap1\n      jump\t// out\n        /* \"token_eco_system_dev_contracts/contracts_ready_for_prod/TokenEcoSystemParticipationV1_0.sol\":6159:6372  function currentRateFeedAddress() public view returns (address) {... */\n    tag_92:\n        /* \"token_eco_system_dev_contracts/contracts_ready_for_prod/TokenEcoSystemParticipationV1_0.sol\":6214:6221  address */\n      0x00\n        /* \"token_eco_system_dev_contracts/contracts_ready_for_prod/TokenEcoSystemParticipationV1_0.sol\":6237:6249  poolRateFeed */\n      0x01\n      0x14\n      swap1\n      sload\n      swap1\n      0x0100\n      exp\n      swap1\n      div\n      0xff\n      and\n        /* \"token_eco_system_dev_contracts/contracts_ready_for_prod/TokenEcoSystemParticipationV1_0.sol\":6233:6366  if (poolRateFeed){... */\n      iszero\n      tag_266\n      jumpi\n        /* \"token_eco_system_dev_contracts/contracts_ready_for_prod/TokenEcoSystemParticipationV1_0.sol\":6279:6291  poolConsumer */\n      0x06\n      0x00\n      swap1\n      sload\n      swap1\n      0x0100\n      exp\n      swap1\n      div\n      0xffffffffffffffffffffffffffffffffffffffff\n      and\n        /* \"token_eco_system_dev_contracts/contracts_ready_for_prod/TokenEcoSystemParticipationV1_0.sol\":6264:6292  return address(poolConsumer) */\n      swap1\n      pop\n      jump(tag_265)\n        /* \"token_eco_system_dev_contracts/contracts_ready_for_prod/TokenEcoSystemParticipationV1_0.sol\":6233:6366  if (poolRateFeed){... */\n    tag_266:\n        /* \"token_eco_system_dev_contracts/contracts_ready_for_prod/TokenEcoSystemParticipationV1_0.sol\":6336:6354  aggregatorConsumer */\n      0x05\n      0x00\n      swap1\n      sload\n      swap1\n      0x0100\n      exp\n      swap1\n      div\n      0xffffffffffffffffffffffffffffffffffffffff\n      and\n        /* \"token_eco_system_dev_contracts/contracts_ready_for_prod/TokenEcoSystemParticipationV1_0.sol\":6321:6355  return address(aggregatorConsumer) */\n      swap1\n      pop\n        /* \"token_eco_system_dev_contracts/contracts_ready_for_prod/TokenEcoSystemParticipationV1_0.sol\":6159:6372  function currentRateFeedAddress() public view returns (address) {... */\n    tag_265:\n      swap1\n      jump\t// out\n        /* \"token_eco_system_dev_contracts/contracts_ready_for_prod/TokenEcoSystemParticipationV1_0.sol\":9977:10156  function getTotalPointsGenerated()... */\n    tag_95:\n        /* \"token_eco_system_dev_contracts/contracts_ready_for_prod/TokenEcoSystemParticipationV1_0.sol\":10105:10112  uint256 */\n      0x00\n        /* \"token_eco_system_dev_contracts/contracts_ready_for_prod/TokenEcoSystemParticipationV1_0.sol\":3126:3127  0 */\n      dup1\n        /* \"token_eco_system_dev_contracts/contracts_ready_for_prod/TokenEcoSystemParticipationV1_0.sol\":3093:3128  acceptedSenderAddress != address(0) */\n      0xffffffffffffffffffffffffffffffffffffffff\n      and\n        /* \"token_eco_system_dev_contracts/contracts_ready_for_prod/TokenEcoSystemParticipationV1_0.sol\":3093:3114  acceptedSenderAddress */\n      0x01\n      0x00\n      swap1\n      sload\n      swap1\n      0x0100\n      exp\n      swap1\n      div\n      0xffffffffffffffffffffffffffffffffffffffff\n      and\n        /* \"token_eco_system_dev_contracts/contracts_ready_for_prod/TokenEcoSystemParticipationV1_0.sol\":3093:3128  acceptedSenderAddress != address(0) */\n      0xffffffffffffffffffffffffffffffffffffffff\n      and\n      sub\n        /* \"token_eco_system_dev_contracts/contracts_ready_for_prod/TokenEcoSystemParticipationV1_0.sol\":3085:3147  require(acceptedSenderAddress != address(0), \"Not activated!\") */\n      tag_269\n      jumpi\n      mload(0x40)\n      0x08c379a000000000000000000000000000000000000000000000000000000000\n      dup2\n      mstore\n      0x04\n      add\n      tag_270\n      swap1\n      tag_131\n      jump\t// in\n    tag_270:\n      mload(0x40)\n      dup1\n      swap2\n      sub\n      swap1\n      revert\n    tag_269:\n        /* \"token_eco_system_dev_contracts/contracts_ready_for_prod/TokenEcoSystemParticipationV1_0.sol\":3250:3271  acceptedSenderAddress */\n      0x01\n      0x00\n      swap1\n      sload\n      swap1\n      0x0100\n      exp\n      swap1\n      div\n      0xffffffffffffffffffffffffffffffffffffffff\n      and\n        /* \"token_eco_system_dev_contracts/contracts_ready_for_prod/TokenEcoSystemParticipationV1_0.sol\":3236:3271  msg.sender == acceptedSenderAddress */\n      0xffffffffffffffffffffffffffffffffffffffff\n      and\n        /* \"token_eco_system_dev_contracts/contracts_ready_for_prod/TokenEcoSystemParticipationV1_0.sol\":3236:3246  msg.sender */\n      caller\n        /* \"token_eco_system_dev_contracts/contracts_ready_for_prod/TokenEcoSystemParticipationV1_0.sol\":3236:3271  msg.sender == acceptedSenderAddress */\n      0xffffffffffffffffffffffffffffffffffffffff\n      and\n      eq\n        /* \"token_eco_system_dev_contracts/contracts_ready_for_prod/TokenEcoSystemParticipationV1_0.sol\":3236:3296  msg.sender == acceptedSenderAddress || msg.sender == owner() */\n      dup1\n      tag_272\n      jumpi\n      pop\n        /* \"token_eco_system_dev_contracts/contracts_ready_for_prod/TokenEcoSystemParticipationV1_0.sol\":3289:3296  owner() */\n      tag_273\n        /* \"token_eco_system_dev_contracts/contracts_ready_for_prod/TokenEcoSystemParticipationV1_0.sol\":3289:3294  owner */\n      tag_83\n        /* \"token_eco_system_dev_contracts/contracts_ready_for_prod/TokenEcoSystemParticipationV1_0.sol\":3289:3296  owner() */\n      jump\t// in\n    tag_273:\n        /* \"token_eco_system_dev_contracts/contracts_ready_for_prod/TokenEcoSystemParticipationV1_0.sol\":3275:3296  msg.sender == owner() */\n      0xffffffffffffffffffffffffffffffffffffffff\n      and\n        /* \"token_eco_system_dev_contracts/contracts_ready_for_prod/TokenEcoSystemParticipationV1_0.sol\":3275:3285  msg.sender */\n      caller\n        /* \"token_eco_system_dev_contracts/contracts_ready_for_prod/TokenEcoSystemParticipationV1_0.sol\":3275:3296  msg.sender == owner() */\n      0xffffffffffffffffffffffffffffffffffffffff\n      and\n      eq\n        /* \"token_eco_system_dev_contracts/contracts_ready_for_prod/TokenEcoSystemParticipationV1_0.sol\":3236:3296  msg.sender == acceptedSenderAddress || msg.sender == owner() */\n    tag_272:\n        /* \"token_eco_system_dev_contracts/contracts_ready_for_prod/TokenEcoSystemParticipationV1_0.sol\":3214:3387  require(... */\n      tag_274\n      jumpi\n      mload(0x40)\n      0x08c379a000000000000000000000000000000000000000000000000000000000\n      dup2\n      mstore\n      0x04\n      add\n      tag_275\n      swap1\n      tag_193\n      jump\t// in\n    tag_275:\n      mload(0x40)\n      dup1\n      swap2\n      sub\n      swap1\n      revert\n    tag_274:\n        /* \"token_eco_system_dev_contracts/contracts_ready_for_prod/TokenEcoSystemParticipationV1_0.sol\":10135:10149  totalConverted */\n      sload(0x03)\n        /* \"token_eco_system_dev_contracts/contracts_ready_for_prod/TokenEcoSystemParticipationV1_0.sol\":10128:10149  return totalConverted */\n      swap1\n      pop\n        /* \"token_eco_system_dev_contracts/contracts_ready_for_prod/TokenEcoSystemParticipationV1_0.sol\":9977:10156  function getTotalPointsGenerated()... */\n      swap1\n      jump\t// out\n        /* \"token_eco_system_dev_contracts/contracts_ready_for_prod/TokenEcoSystemParticipationV1_0.sol\":10828:11029  function getTokenInfo()... */\n    tag_98:\n        /* \"token_eco_system_dev_contracts/contracts_ready_for_prod/TokenEcoSystemParticipationV1_0.sol\":10945:10952  address */\n      0x00\n        /* \"token_eco_system_dev_contracts/contracts_ready_for_prod/TokenEcoSystemParticipationV1_0.sol\":10954:10967  string memory */\n      0x60\n        /* \"token_eco_system_dev_contracts/contracts_ready_for_prod/TokenEcoSystemParticipationV1_0.sol\":3126:3127  0 */\n      0x00\n        /* \"token_eco_system_dev_contracts/contracts_ready_for_prod/TokenEcoSystemParticipationV1_0.sol\":3093:3128  acceptedSenderAddress != address(0) */\n      0xffffffffffffffffffffffffffffffffffffffff\n      and\n        /* \"token_eco_system_dev_contracts/contracts_ready_for_prod/TokenEcoSystemParticipationV1_0.sol\":3093:3114  acceptedSenderAddress */\n      0x01\n      0x00\n      swap1\n      sload\n      swap1\n      0x0100\n      exp\n      swap1\n      div\n      0xffffffffffffffffffffffffffffffffffffffff\n      and\n        /* \"token_eco_system_dev_contracts/contracts_ready_for_prod/TokenEcoSystemParticipationV1_0.sol\":3093:3128  acceptedSenderAddress != address(0) */\n      0xffffffffffffffffffffffffffffffffffffffff\n      and\n      sub\n        /* \"token_eco_system_dev_contracts/contracts_ready_for_prod/TokenEcoSystemParticipationV1_0.sol\":3085:3147  require(acceptedSenderAddress != address(0), \"Not activated!\") */\n      tag_278\n      jumpi\n      mload(0x40)\n      0x08c379a000000000000000000000000000000000000000000000000000000000\n      dup2\n      mstore\n      0x04\n      add\n      tag_279\n      swap1\n      tag_131\n      jump\t// in\n    tag_279:\n      mload(0x40)\n      dup1\n      swap2\n      sub\n      swap1\n      revert\n    tag_278:\n        /* \"token_eco_system_dev_contracts/contracts_ready_for_prod/TokenEcoSystemParticipationV1_0.sol\":3250:3271  acceptedSenderAddress */\n      0x01\n      0x00\n      swap1\n      sload\n      swap1\n      0x0100\n      exp\n      swap1\n      div\n      0xffffffffffffffffffffffffffffffffffffffff\n      and\n        /* \"token_eco_system_dev_contracts/contracts_ready_for_prod/TokenEcoSystemParticipationV1_0.sol\":3236:3271  msg.sender == acceptedSenderAddress */\n      0xffffffffffffffffffffffffffffffffffffffff\n      and\n        /* \"token_eco_system_dev_contracts/contracts_ready_for_prod/TokenEcoSystemParticipationV1_0.sol\":3236:3246  msg.sender */\n      caller\n        /* \"token_eco_system_dev_contracts/contracts_ready_for_prod/TokenEcoSystemParticipationV1_0.sol\":3236:3271  msg.sender == acceptedSenderAddress */\n      0xffffffffffffffffffffffffffffffffffffffff\n      and\n      eq\n        /* \"token_eco_system_dev_contracts/contracts_ready_for_prod/TokenEcoSystemParticipationV1_0.sol\":3236:3296  msg.sender == acceptedSenderAddress || msg.sender == owner() */\n      dup1\n      tag_281\n      jumpi\n      pop\n        /* \"token_eco_system_dev_contracts/contracts_ready_for_prod/TokenEcoSystemParticipationV1_0.sol\":3289:3296  owner() */\n      tag_282\n        /* \"token_eco_system_dev_contracts/contracts_ready_for_prod/TokenEcoSystemParticipationV1_0.sol\":3289:3294  owner */\n      tag_83\n        /* \"token_eco_system_dev_contracts/contracts_ready_for_prod/TokenEcoSystemParticipationV1_0.sol\":3289:3296  owner() */\n      jump\t// in\n    tag_282:\n        /* \"token_eco_system_dev_contracts/contracts_ready_for_prod/TokenEcoSystemParticipationV1_0.sol\":3275:3296  msg.sender == owner() */\n      0xffffffffffffffffffffffffffffffffffffffff\n      and\n        /* \"token_eco_system_dev_contracts/contracts_ready_for_prod/TokenEcoSystemParticipationV1_0.sol\":3275:3285  msg.sender */\n      caller\n        /* \"token_eco_system_dev_contracts/contracts_ready_for_prod/TokenEcoSystemParticipationV1_0.sol\":3275:3296  msg.sender == owner() */\n      0xffffffffffffffffffffffffffffffffffffffff\n      and\n      eq\n        /* \"token_eco_system_dev_contracts/contracts_ready_for_prod/TokenEcoSystemParticipationV1_0.sol\":3236:3296  msg.sender == acceptedSenderAddress || msg.sender == owner() */\n    tag_281:\n        /* \"token_eco_system_dev_contracts/contracts_ready_for_prod/TokenEcoSystemParticipationV1_0.sol\":3214:3387  require(... */\n      tag_283\n      jumpi\n      mload(0x40)\n      0x08c379a000000000000000000000000000000000000000000000000000000000\n      dup2\n      mstore\n      0x04\n      add\n      tag_284\n      swap1\n      tag_193\n      jump\t// in\n    tag_284:\n      mload(0x40)\n      dup1\n      swap2\n      sub\n      swap1\n      revert\n    tag_283:\n        /* \"token_eco_system_dev_contracts/contracts_ready_for_prod/TokenEcoSystemParticipationV1_0.sol\":10999:11004  token */\n      immutable(\"0x448072f8ce0e9d09a2030ee35ba0d03fccbd0c61c3623f421061fbafdf5a67a9\")\n        /* \"token_eco_system_dev_contracts/contracts_ready_for_prod/TokenEcoSystemParticipationV1_0.sol\":11007:11012  token */\n      immutable(\"0x448072f8ce0e9d09a2030ee35ba0d03fccbd0c61c3623f421061fbafdf5a67a9\")\n        /* \"token_eco_system_dev_contracts/contracts_ready_for_prod/TokenEcoSystemParticipationV1_0.sol\":11007:11019  token.symbol */\n      0xffffffffffffffffffffffffffffffffffffffff\n      and\n      0x95d89b41\n        /* \"token_eco_system_dev_contracts/contracts_ready_for_prod/TokenEcoSystemParticipationV1_0.sol\":11007:11021  token.symbol() */\n      mload(0x40)\n      dup2\n      0xffffffff\n      and\n      0xe0\n      shl\n      dup2\n      mstore\n      0x04\n      add\n      0x00\n      mload(0x40)\n      dup1\n      dup4\n      sub\n      dup2\n      dup7\n      gas\n      staticcall\n      iszero\n      dup1\n      iszero\n      tag_287\n      jumpi\n      returndatasize\n      0x00\n      dup1\n      returndatacopy\n      revert(0x00, returndatasize)\n    tag_287:\n      pop\n      pop\n      pop\n      pop\n      mload(0x40)\n      returndatasize\n      0x00\n      dup3\n      returndatacopy\n      returndatasize\n      not(0x1f)\n      0x1f\n      dup3\n      add\n      and\n      dup3\n      add\n      dup1\n      0x40\n      mstore\n      pop\n      dup2\n      add\n      swap1\n      tag_288\n      swap2\n      swap1\n      tag_289\n      jump\t// in\n    tag_288:\n        /* \"token_eco_system_dev_contracts/contracts_ready_for_prod/TokenEcoSystemParticipationV1_0.sol\":10983:11022  return (address(token), token.symbol()) */\n      swap2\n      pop\n      swap2\n      pop\n        /* \"token_eco_system_dev_contracts/contracts_ready_for_prod/TokenEcoSystemParticipationV1_0.sol\":10828:11029  function getTokenInfo()... */\n      swap1\n      swap2\n      jump\t// out\n        /* \"token_eco_system_dev_contracts/contracts_ready_for_prod/TokenEcoSystemParticipationV1_0.sol\":5136:5371  function addNewPoolRateFeed(address consumerInterfaceAddress)... */\n    tag_103:\n        /* \"@openzeppelin/contracts/access/Ownable.sol\":1094:1107  _checkOwner() */\n      tag_291\n        /* \"@openzeppelin/contracts/access/Ownable.sol\":1094:1105  _checkOwner */\n      tag_127\n        /* \"@openzeppelin/contracts/access/Ownable.sol\":1094:1107  _checkOwner() */\n      jump\t// in\n    tag_291:\n        /* \"token_eco_system_dev_contracts/contracts_ready_for_prod/TokenEcoSystemParticipationV1_0.sol\":5289:5290  0 */\n      0x00\n        /* \"token_eco_system_dev_contracts/contracts_ready_for_prod/TokenEcoSystemParticipationV1_0.sol\":5253:5291  consumerInterfaceAddress != address(0) */\n      0xffffffffffffffffffffffffffffffffffffffff\n      and\n        /* \"token_eco_system_dev_contracts/contracts_ready_for_prod/TokenEcoSystemParticipationV1_0.sol\":5253:5277  consumerInterfaceAddress */\n      dup2\n        /* \"token_eco_system_dev_contracts/contracts_ready_for_prod/TokenEcoSystemParticipationV1_0.sol\":5253:5291  consumerInterfaceAddress != address(0) */\n      0xffffffffffffffffffffffffffffffffffffffff\n      and\n      sub\n        /* \"token_eco_system_dev_contracts/contracts_ready_for_prod/TokenEcoSystemParticipationV1_0.sol\":5245:5292  require(consumerInterfaceAddress != address(0)) */\n      tag_293\n      jumpi\n      0x00\n      dup1\n      revert\n    tag_293:\n        /* \"token_eco_system_dev_contracts/contracts_ready_for_prod/TokenEcoSystemParticipationV1_0.sol\":5339:5363  consumerInterfaceAddress */\n      dup1\n        /* \"token_eco_system_dev_contracts/contracts_ready_for_prod/TokenEcoSystemParticipationV1_0.sol\":5302:5314  poolConsumer */\n      0x06\n      0x00\n        /* \"token_eco_system_dev_contracts/contracts_ready_for_prod/TokenEcoSystemParticipationV1_0.sol\":5302:5364  poolConsumer = PoolConsumerInterface(consumerInterfaceAddress) */\n      0x0100\n      exp\n      dup2\n      sload\n      dup2\n      0xffffffffffffffffffffffffffffffffffffffff\n      mul\n      not\n      and\n      swap1\n      dup4\n      0xffffffffffffffffffffffffffffffffffffffff\n      and\n      mul\n      or\n      swap1\n      sstore\n      pop\n        /* \"token_eco_system_dev_contracts/contracts_ready_for_prod/TokenEcoSystemParticipationV1_0.sol\":5136:5371  function addNewPoolRateFeed(address consumerInterfaceAddress)... */\n      pop\n      jump\t// out\n        /* \"token_eco_system_dev_contracts/contracts_ready_for_prod/TokenEcoSystemParticipationV1_0.sol\":8593:8784  function balanceOfToken(address tokenAddress)... */\n    tag_106:\n        /* \"token_eco_system_dev_contracts/contracts_ready_for_prod/TokenEcoSystemParticipationV1_0.sol\":8702:8709  uint256 */\n      0x00\n        /* \"@openzeppelin/contracts/access/Ownable.sol\":1094:1107  _checkOwner() */\n      tag_295\n        /* \"@openzeppelin/contracts/access/Ownable.sol\":1094:1105  _checkOwner */\n      tag_127\n        /* \"@openzeppelin/contracts/access/Ownable.sol\":1094:1107  _checkOwner() */\n      jump\t// in\n    tag_295:\n        /* \"token_eco_system_dev_contracts/contracts_ready_for_prod/TokenEcoSystemParticipationV1_0.sol\":8739:8751  tokenAddress */\n      dup2\n        /* \"token_eco_system_dev_contracts/contracts_ready_for_prod/TokenEcoSystemParticipationV1_0.sol\":8732:8762  IERC20(tokenAddress).balanceOf */\n      0xffffffffffffffffffffffffffffffffffffffff\n      and\n      0x70a08231\n        /* \"token_eco_system_dev_contracts/contracts_ready_for_prod/TokenEcoSystemParticipationV1_0.sol\":8771:8775  this */\n      address\n        /* \"token_eco_system_dev_contracts/contracts_ready_for_prod/TokenEcoSystemParticipationV1_0.sol\":8732:8777  IERC20(tokenAddress).balanceOf(address(this)) */\n      mload(0x40)\n      dup3\n      0xffffffff\n      and\n      0xe0\n      shl\n      dup2\n      mstore\n      0x04\n      add\n      tag_297\n      swap2\n      swap1\n      tag_47\n      jump\t// in\n    tag_297:\n      0x20\n      mload(0x40)\n      dup1\n      dup4\n      sub\n      dup2\n      dup7\n      gas\n      staticcall\n      iszero\n      dup1\n      iszero\n      tag_299\n      jumpi\n      returndatasize\n      0x00\n      dup1\n      returndatacopy\n      revert(0x00, returndatasize)\n    tag_299:\n      pop\n      pop\n      pop\n      pop\n      mload(0x40)\n      returndatasize\n      not(0x1f)\n      0x1f\n      dup3\n      add\n      and\n      dup3\n      add\n      dup1\n      0x40\n      mstore\n      pop\n      dup2\n      add\n      swap1\n      tag_300\n      swap2\n      swap1\n      tag_229\n      jump\t// in\n    tag_300:\n        /* \"token_eco_system_dev_contracts/contracts_ready_for_prod/TokenEcoSystemParticipationV1_0.sol\":8725:8777  return IERC20(tokenAddress).balanceOf(address(this)) */\n      swap1\n      pop\n        /* \"token_eco_system_dev_contracts/contracts_ready_for_prod/TokenEcoSystemParticipationV1_0.sol\":8593:8784  function balanceOfToken(address tokenAddress)... */\n      swap2\n      swap1\n      pop\n      jump\t// out\n        /* \"token_eco_system_dev_contracts/contracts_ready_for_prod/TokenEcoSystemParticipationV1_0.sol\":10661:10763  function getInitialActivationAddress() public view returns (address) {... */\n    tag_109:\n        /* \"token_eco_system_dev_contracts/contracts_ready_for_prod/TokenEcoSystemParticipationV1_0.sol\":10721:10728  address */\n      0x00\n        /* \"token_eco_system_dev_contracts/contracts_ready_for_prod/TokenEcoSystemParticipationV1_0.sol\":10747:10756  activator */\n      immutable(\"0xd2f63731675c6a71dc2bd3699360fd070b4ef61c2e40215aaeeee79f9e81574f\")\n        /* \"token_eco_system_dev_contracts/contracts_ready_for_prod/TokenEcoSystemParticipationV1_0.sol\":10740:10756  return activator */\n      swap1\n      pop\n        /* \"token_eco_system_dev_contracts/contracts_ready_for_prod/TokenEcoSystemParticipationV1_0.sol\":10661:10763  function getInitialActivationAddress() public view returns (address) {... */\n      swap1\n      jump\t// out\n        /* \"token_eco_system_dev_contracts/contracts_ready_for_prod/TokenEcoSystemParticipationV1_0.sol\":5964:6153  function currentRateFeed() public view returns (string memory) {... */\n    tag_112:\n        /* \"token_eco_system_dev_contracts/contracts_ready_for_prod/TokenEcoSystemParticipationV1_0.sol\":6012:6025  string memory */\n      0x60\n        /* \"token_eco_system_dev_contracts/contracts_ready_for_prod/TokenEcoSystemParticipationV1_0.sol\":6037:6057  string memory result */\n      dup1\n        /* \"token_eco_system_dev_contracts/contracts_ready_for_prod/TokenEcoSystemParticipationV1_0.sol\":6067:6079  poolRateFeed */\n      0x01\n      0x14\n      swap1\n      sload\n      swap1\n      0x0100\n      exp\n      swap1\n      div\n      0xff\n      and\n        /* \"token_eco_system_dev_contracts/contracts_ready_for_prod/TokenEcoSystemParticipationV1_0.sol\":6067:6123  poolRateFeed ? result = \"Pool\" : result = \"AggregatorV3\" */\n      tag_303\n      jumpi\n        /* \"token_eco_system_dev_contracts/contracts_ready_for_prod/TokenEcoSystemParticipationV1_0.sol\":6100:6123  result = \"AggregatorV3\" */\n      mload(0x40)\n      dup1\n      0x40\n      add\n      0x40\n      mstore\n      dup1\n      0x0c\n      dup2\n      mstore\n      0x20\n      add\n      0x41676772656761746f7256330000000000000000000000000000000000000000\n      dup2\n      mstore\n      pop\n      swap1\n      pop\n      dup1\n        /* \"token_eco_system_dev_contracts/contracts_ready_for_prod/TokenEcoSystemParticipationV1_0.sol\":6067:6123  poolRateFeed ? result = \"Pool\" : result = \"AggregatorV3\" */\n      jump(tag_304)\n    tag_303:\n        /* \"token_eco_system_dev_contracts/contracts_ready_for_prod/TokenEcoSystemParticipationV1_0.sol\":6082:6097  result = \"Pool\" */\n      mload(0x40)\n      dup1\n      0x40\n      add\n      0x40\n      mstore\n      dup1\n      0x04\n      dup2\n      mstore\n      0x20\n      add\n      0x506f6f6c00000000000000000000000000000000000000000000000000000000\n      dup2\n      mstore\n      pop\n      swap1\n      pop\n      dup1\n        /* \"token_eco_system_dev_contracts/contracts_ready_for_prod/TokenEcoSystemParticipationV1_0.sol\":6067:6123  poolRateFeed ? result = \"Pool\" : result = \"AggregatorV3\" */\n    tag_304:\n      pop\n        /* \"token_eco_system_dev_contracts/contracts_ready_for_prod/TokenEcoSystemParticipationV1_0.sol\":6140:6146  result */\n      dup1\n        /* \"token_eco_system_dev_contracts/contracts_ready_for_prod/TokenEcoSystemParticipationV1_0.sol\":6133:6146  return result */\n      swap2\n      pop\n      pop\n        /* \"token_eco_system_dev_contracts/contracts_ready_for_prod/TokenEcoSystemParticipationV1_0.sol\":5964:6153  function currentRateFeed() public view returns (string memory) {... */\n      swap1\n      jump\t// out\n        /* \"token_eco_system_dev_contracts/contracts_ready_for_prod/TokenEcoSystemParticipationV1_0.sol\":5445:5917  function changeRateFeed() public onlyOwner {... */\n    tag_116:\n        /* \"@openzeppelin/contracts/access/Ownable.sol\":1094:1107  _checkOwner() */\n      tag_306\n        /* \"@openzeppelin/contracts/access/Ownable.sol\":1094:1105  _checkOwner */\n      tag_127\n        /* \"@openzeppelin/contracts/access/Ownable.sol\":1094:1107  _checkOwner() */\n      jump\t// in\n    tag_306:\n        /* \"token_eco_system_dev_contracts/contracts_ready_for_prod/TokenEcoSystemParticipationV1_0.sol\":5502:5514  poolRateFeed */\n      0x01\n      0x14\n      swap1\n      sload\n      swap1\n      0x0100\n      exp\n      swap1\n      div\n      0xff\n      and\n        /* \"token_eco_system_dev_contracts/contracts_ready_for_prod/TokenEcoSystemParticipationV1_0.sol\":5498:5873  if (poolRateFeed) {... */\n      iszero\n      tag_308\n      jumpi\n        /* \"token_eco_system_dev_contracts/contracts_ready_for_prod/TokenEcoSystemParticipationV1_0.sol\":5555:5567  poolRateFeed */\n      0x01\n      0x14\n      swap1\n      sload\n      swap1\n      0x0100\n      exp\n      swap1\n      div\n      0xff\n      and\n        /* \"token_eco_system_dev_contracts/contracts_ready_for_prod/TokenEcoSystemParticipationV1_0.sol\":5555:5614  poolRateFeed && (address(aggregatorConsumer) != address(0)) */\n      dup1\n      iszero\n      tag_309\n      jumpi\n      pop\n        /* \"token_eco_system_dev_contracts/contracts_ready_for_prod/TokenEcoSystemParticipationV1_0.sol\":5611:5612  0 */\n      0x00\n        /* \"token_eco_system_dev_contracts/contracts_ready_for_prod/TokenEcoSystemParticipationV1_0.sol\":5572:5613  address(aggregatorConsumer) != address(0) */\n      0xffffffffffffffffffffffffffffffffffffffff\n      and\n        /* \"token_eco_system_dev_contracts/contracts_ready_for_prod/TokenEcoSystemParticipationV1_0.sol\":5580:5598  aggregatorConsumer */\n      0x05\n      0x00\n      swap1\n      sload\n      swap1\n      0x0100\n      exp\n      swap1\n      div\n      0xffffffffffffffffffffffffffffffffffffffff\n      and\n        /* \"token_eco_system_dev_contracts/contracts_ready_for_prod/TokenEcoSystemParticipationV1_0.sol\":5572:5613  address(aggregatorConsumer) != address(0) */\n      0xffffffffffffffffffffffffffffffffffffffff\n      and\n      eq\n      iszero\n        /* \"token_eco_system_dev_contracts/contracts_ready_for_prod/TokenEcoSystemParticipationV1_0.sol\":5555:5614  poolRateFeed && (address(aggregatorConsumer) != address(0)) */\n    tag_309:\n        /* \"token_eco_system_dev_contracts/contracts_ready_for_prod/TokenEcoSystemParticipationV1_0.sol\":5530:5686  require(... */\n      tag_310\n      jumpi\n      mload(0x40)\n      0x08c379a000000000000000000000000000000000000000000000000000000000\n      dup2\n      mstore\n      0x04\n      add\n      tag_311\n      swap1\n      tag_312\n      jump\t// in\n    tag_311:\n      mload(0x40)\n      dup1\n      swap2\n      sub\n      swap1\n      revert\n    tag_310:\n        /* \"token_eco_system_dev_contracts/contracts_ready_for_prod/TokenEcoSystemParticipationV1_0.sol\":5498:5873  if (poolRateFeed) {... */\n      jump(tag_313)\n    tag_308:\n        /* \"token_eco_system_dev_contracts/contracts_ready_for_prod/TokenEcoSystemParticipationV1_0.sol\":5743:5755  poolRateFeed */\n      0x01\n      0x14\n      swap1\n      sload\n      swap1\n      0x0100\n      exp\n      swap1\n      div\n      0xff\n      and\n        /* \"token_eco_system_dev_contracts/contracts_ready_for_prod/TokenEcoSystemParticipationV1_0.sol\":5742:5755  !poolRateFeed */\n      iszero\n        /* \"token_eco_system_dev_contracts/contracts_ready_for_prod/TokenEcoSystemParticipationV1_0.sol\":5742:5796  !poolRateFeed && (address(poolConsumer) != address(0)) */\n      dup1\n      iszero\n      tag_314\n      jumpi\n      pop\n        /* \"token_eco_system_dev_contracts/contracts_ready_for_prod/TokenEcoSystemParticipationV1_0.sol\":5793:5794  0 */\n      0x00\n        /* \"token_eco_system_dev_contracts/contracts_ready_for_prod/TokenEcoSystemParticipationV1_0.sol\":5760:5795  address(poolConsumer) != address(0) */\n      0xffffffffffffffffffffffffffffffffffffffff\n      and\n        /* \"token_eco_system_dev_contracts/contracts_ready_for_prod/TokenEcoSystemParticipationV1_0.sol\":5768:5780  poolConsumer */\n      0x06\n      0x00\n      swap1\n      sload\n      swap1\n      0x0100\n      exp\n      swap1\n      div\n      0xffffffffffffffffffffffffffffffffffffffff\n      and\n        /* \"token_eco_system_dev_contracts/contracts_ready_for_prod/TokenEcoSystemParticipationV1_0.sol\":5760:5795  address(poolConsumer) != address(0) */\n      0xffffffffffffffffffffffffffffffffffffffff\n      and\n      eq\n      iszero\n        /* \"token_eco_system_dev_contracts/contracts_ready_for_prod/TokenEcoSystemParticipationV1_0.sol\":5742:5796  !poolRateFeed && (address(poolConsumer) != address(0)) */\n    tag_314:\n        /* \"token_eco_system_dev_contracts/contracts_ready_for_prod/TokenEcoSystemParticipationV1_0.sol\":5717:5862  require(... */\n      tag_315\n      jumpi\n      mload(0x40)\n      0x08c379a000000000000000000000000000000000000000000000000000000000\n      dup2\n      mstore\n      0x04\n      add\n      tag_316\n      swap1\n      tag_317\n      jump\t// in\n    tag_316:\n      mload(0x40)\n      dup1\n      swap2\n      sub\n      swap1\n      revert\n    tag_315:\n        /* \"token_eco_system_dev_contracts/contracts_ready_for_prod/TokenEcoSystemParticipationV1_0.sol\":5498:5873  if (poolRateFeed) {... */\n    tag_313:\n        /* \"token_eco_system_dev_contracts/contracts_ready_for_prod/TokenEcoSystemParticipationV1_0.sol\":5898:5910  poolRateFeed */\n      0x01\n      0x14\n      swap1\n      sload\n      swap1\n      0x0100\n      exp\n      swap1\n      div\n      0xff\n      and\n        /* \"token_eco_system_dev_contracts/contracts_ready_for_prod/TokenEcoSystemParticipationV1_0.sol\":5897:5910  !poolRateFeed */\n      iszero\n        /* \"token_eco_system_dev_contracts/contracts_ready_for_prod/TokenEcoSystemParticipationV1_0.sol\":5882:5894  poolRateFeed */\n      0x01\n      0x14\n        /* \"token_eco_system_dev_contracts/contracts_ready_for_prod/TokenEcoSystemParticipationV1_0.sol\":5882:5910  poolRateFeed = !poolRateFeed */\n      0x0100\n      exp\n      dup2\n      sload\n      dup2\n      0xff\n      mul\n      not\n      and\n      swap1\n      dup4\n      iszero\n      iszero\n      mul\n      or\n      swap1\n      sstore\n      pop\n        /* \"token_eco_system_dev_contracts/contracts_ready_for_prod/TokenEcoSystemParticipationV1_0.sol\":5445:5917  function changeRateFeed() public onlyOwner {... */\n      jump\t// out\n        /* \"token_eco_system_dev_contracts/contracts_ready_for_prod/TokenEcoSystemParticipationV1_0.sol\":7097:8239  function chargeContract(uint256 amount)... */\n    tag_120:\n        /* \"token_eco_system_dev_contracts/contracts_ready_for_prod/TokenEcoSystemParticipationV1_0.sol\":7239:7243  bool */\n      0x00\n        /* \"@openzeppelin/contracts/security/Pausable.sol\":1239:1258  _requireNotPaused() */\n      tag_319\n        /* \"@openzeppelin/contracts/security/Pausable.sol\":1239:1256  _requireNotPaused */\n      tag_152\n        /* \"@openzeppelin/contracts/security/Pausable.sol\":1239:1258  _requireNotPaused() */\n      jump\t// in\n    tag_319:\n        /* \"token_eco_system_dev_contracts/contracts_ready_for_prod/TokenEcoSystemParticipationV1_0.sol\":3126:3127  0 */\n      0x00\n        /* \"token_eco_system_dev_contracts/contracts_ready_for_prod/TokenEcoSystemParticipationV1_0.sol\":3093:3128  acceptedSenderAddress != address(0) */\n      0xffffffffffffffffffffffffffffffffffffffff\n      and\n        /* \"token_eco_system_dev_contracts/contracts_ready_for_prod/TokenEcoSystemParticipationV1_0.sol\":3093:3114  acceptedSenderAddress */\n      0x01\n      0x00\n      swap1\n      sload\n      swap1\n      0x0100\n      exp\n      swap1\n      div\n      0xffffffffffffffffffffffffffffffffffffffff\n      and\n        /* \"token_eco_system_dev_contracts/contracts_ready_for_prod/TokenEcoSystemParticipationV1_0.sol\":3093:3128  acceptedSenderAddress != address(0) */\n      0xffffffffffffffffffffffffffffffffffffffff\n      and\n      sub\n        /* \"token_eco_system_dev_contracts/contracts_ready_for_prod/TokenEcoSystemParticipationV1_0.sol\":3085:3147  require(acceptedSenderAddress != address(0), \"Not activated!\") */\n      tag_321\n      jumpi\n      mload(0x40)\n      0x08c379a000000000000000000000000000000000000000000000000000000000\n      dup2\n      mstore\n      0x04\n      add\n      tag_322\n      swap1\n      tag_131\n      jump\t// in\n    tag_322:\n      mload(0x40)\n      dup1\n      swap2\n      sub\n      swap1\n      revert\n    tag_321:\n        /* \"token_eco_system_dev_contracts/contracts_ready_for_prod/TokenEcoSystemParticipationV1_0.sol\":3250:3271  acceptedSenderAddress */\n      0x01\n      0x00\n      swap1\n      sload\n      swap1\n      0x0100\n      exp\n      swap1\n      div\n      0xffffffffffffffffffffffffffffffffffffffff\n      and\n        /* \"token_eco_system_dev_contracts/contracts_ready_for_prod/TokenEcoSystemParticipationV1_0.sol\":3236:3271  msg.sender == acceptedSenderAddress */\n      0xffffffffffffffffffffffffffffffffffffffff\n      and\n        /* \"token_eco_system_dev_contracts/contracts_ready_for_prod/TokenEcoSystemParticipationV1_0.sol\":3236:3246  msg.sender */\n      caller\n        /* \"token_eco_system_dev_contracts/contracts_ready_for_prod/TokenEcoSystemParticipationV1_0.sol\":3236:3271  msg.sender == acceptedSenderAddress */\n      0xffffffffffffffffffffffffffffffffffffffff\n      and\n      eq\n        /* \"token_eco_system_dev_contracts/contracts_ready_for_prod/TokenEcoSystemParticipationV1_0.sol\":3236:3296  msg.sender == acceptedSenderAddress || msg.sender == owner() */\n      dup1\n      tag_324\n      jumpi\n      pop\n        /* \"token_eco_system_dev_contracts/contracts_ready_for_prod/TokenEcoSystemParticipationV1_0.sol\":3289:3296  owner() */\n      tag_325\n        /* \"token_eco_system_dev_contracts/contracts_ready_for_prod/TokenEcoSystemParticipationV1_0.sol\":3289:3294  owner */\n      tag_83\n        /* \"token_eco_system_dev_contracts/contracts_ready_for_prod/TokenEcoSystemParticipationV1_0.sol\":3289:3296  owner() */\n      jump\t// in\n    tag_325:\n        /* \"token_eco_system_dev_contracts/contracts_ready_for_prod/TokenEcoSystemParticipationV1_0.sol\":3275:3296  msg.sender == owner() */\n      0xffffffffffffffffffffffffffffffffffffffff\n      and\n        /* \"token_eco_system_dev_contracts/contracts_ready_for_prod/TokenEcoSystemParticipationV1_0.sol\":3275:3285  msg.sender */\n      caller\n        /* \"token_eco_system_dev_contracts/contracts_ready_for_prod/TokenEcoSystemParticipationV1_0.sol\":3275:3296  msg.sender == owner() */\n      0xffffffffffffffffffffffffffffffffffffffff\n      and\n      eq\n        /* \"token_eco_system_dev_contracts/contracts_ready_for_prod/TokenEcoSystemParticipationV1_0.sol\":3236:3296  msg.sender == acceptedSenderAddress || msg.sender == owner() */\n    tag_324:\n        /* \"token_eco_system_dev_contracts/contracts_ready_for_prod/TokenEcoSystemParticipationV1_0.sol\":3214:3387  require(... */\n      tag_326\n      jumpi\n      mload(0x40)\n      0x08c379a000000000000000000000000000000000000000000000000000000000\n      dup2\n      mstore\n      0x04\n      add\n      tag_327\n      swap1\n      tag_193\n      jump\t// in\n    tag_327:\n      mload(0x40)\n      dup1\n      swap2\n      sub\n      swap1\n      revert\n    tag_326:\n        /* \"token_eco_system_dev_contracts/contracts_ready_for_prod/TokenEcoSystemParticipationV1_0.sol\":7276:7277  0 */\n      0x00\n        /* \"token_eco_system_dev_contracts/contracts_ready_for_prod/TokenEcoSystemParticipationV1_0.sol\":7267:7273  amount */\n      dup3\n        /* \"token_eco_system_dev_contracts/contracts_ready_for_prod/TokenEcoSystemParticipationV1_0.sol\":7267:7277  amount > 0 */\n      gt\n        /* \"token_eco_system_dev_contracts/contracts_ready_for_prod/TokenEcoSystemParticipationV1_0.sol\":7259:7299  require(amount > 0, \"No charge amount!\") */\n      tag_329\n      jumpi\n      mload(0x40)\n      0x08c379a000000000000000000000000000000000000000000000000000000000\n      dup2\n      mstore\n      0x04\n      add\n      tag_330\n      swap1\n      tag_331\n      jump\t// in\n    tag_330:\n      mload(0x40)\n      dup1\n      swap2\n      sub\n      swap1\n      revert\n    tag_329:\n        /* \"token_eco_system_dev_contracts/contracts_ready_for_prod/TokenEcoSystemParticipationV1_0.sol\":7350:7356  amount */\n      dup2\n        /* \"token_eco_system_dev_contracts/contracts_ready_for_prod/TokenEcoSystemParticipationV1_0.sol\":7330:7346  checkAllowance() */\n      tag_332\n        /* \"token_eco_system_dev_contracts/contracts_ready_for_prod/TokenEcoSystemParticipationV1_0.sol\":7330:7344  checkAllowance */\n      tag_89\n        /* \"token_eco_system_dev_contracts/contracts_ready_for_prod/TokenEcoSystemParticipationV1_0.sol\":7330:7346  checkAllowance() */\n      jump\t// in\n    tag_332:\n        /* \"token_eco_system_dev_contracts/contracts_ready_for_prod/TokenEcoSystemParticipationV1_0.sol\":7330:7356  checkAllowance() >= amount */\n      lt\n      iszero\n        /* \"token_eco_system_dev_contracts/contracts_ready_for_prod/TokenEcoSystemParticipationV1_0.sol\":7398:7403  token */\n      immutable(\"0x448072f8ce0e9d09a2030ee35ba0d03fccbd0c61c3623f421061fbafdf5a67a9\")\n        /* \"token_eco_system_dev_contracts/contracts_ready_for_prod/TokenEcoSystemParticipationV1_0.sol\":7398:7410  token.symbol */\n      0xffffffffffffffffffffffffffffffffffffffff\n      and\n      0x95d89b41\n        /* \"token_eco_system_dev_contracts/contracts_ready_for_prod/TokenEcoSystemParticipationV1_0.sol\":7398:7412  token.symbol() */\n      mload(0x40)\n      dup2\n      0xffffffff\n      and\n      0xe0\n      shl\n      dup2\n      mstore\n      0x04\n      add\n      0x00\n      mload(0x40)\n      dup1\n      dup4\n      sub\n      dup2\n      dup7\n      gas\n      staticcall\n      iszero\n      dup1\n      iszero\n      tag_334\n      jumpi\n      returndatasize\n      0x00\n      dup1\n      returndatacopy\n      revert(0x00, returndatasize)\n    tag_334:\n      pop\n      pop\n      pop\n      pop\n      mload(0x40)\n      returndatasize\n      0x00\n      dup3\n      returndatacopy\n      returndatasize\n      not(0x1f)\n      0x1f\n      dup3\n      add\n      and\n      dup3\n      add\n      dup1\n      0x40\n      mstore\n      pop\n      dup2\n      add\n      swap1\n      tag_335\n      swap2\n      swap1\n      tag_289\n      jump\t// in\n    tag_335:\n        /* \"token_eco_system_dev_contracts/contracts_ready_for_prod/TokenEcoSystemParticipationV1_0.sol\":7370:7438  string.concat(\"Check the \", token.symbol(), \" token \", \"allowance!\") */\n      add(0x20, mload(0x40))\n      tag_336\n      swap2\n      swap1\n      tag_337\n      jump\t// in\n    tag_336:\n      mload(0x40)\n      0x20\n      dup2\n      dup4\n      sub\n      sub\n      dup2\n      mstore\n      swap1\n      0x40\n      mstore\n        /* \"token_eco_system_dev_contracts/contracts_ready_for_prod/TokenEcoSystemParticipationV1_0.sol\":7309:7448  require(... */\n      swap1\n      tag_338\n      jumpi\n      mload(0x40)\n      0x08c379a000000000000000000000000000000000000000000000000000000000\n      dup2\n      mstore\n      0x04\n      add\n      tag_339\n      swap2\n      swap1\n      tag_114\n      jump\t// in\n    tag_339:\n      mload(0x40)\n      dup1\n      swap2\n      sub\n      swap1\n      revert\n    tag_338:\n      pop\n        /* \"token_eco_system_dev_contracts/contracts_ready_for_prod/TokenEcoSystemParticipationV1_0.sol\":7473:7485  uint256 rate */\n      0x00\n        /* \"token_eco_system_dev_contracts/contracts_ready_for_prod/TokenEcoSystemParticipationV1_0.sol\":7499:7515  uint256 decimals */\n      dup1\n        /* \"token_eco_system_dev_contracts/contracts_ready_for_prod/TokenEcoSystemParticipationV1_0.sol\":7529:7559  string memory chargeRateString */\n      0x00\n        /* \"token_eco_system_dev_contracts/contracts_ready_for_prod/TokenEcoSystemParticipationV1_0.sol\":7573:7595  uint256 chargeRateDate */\n      dup1\n        /* \"token_eco_system_dev_contracts/contracts_ready_for_prod/TokenEcoSystemParticipationV1_0.sol\":7608:7617  getRate() */\n      tag_340\n        /* \"token_eco_system_dev_contracts/contracts_ready_for_prod/TokenEcoSystemParticipationV1_0.sol\":7608:7615  getRate */\n      tag_341\n        /* \"token_eco_system_dev_contracts/contracts_ready_for_prod/TokenEcoSystemParticipationV1_0.sol\":7608:7617  getRate() */\n      jump\t// in\n    tag_340:\n        /* \"token_eco_system_dev_contracts/contracts_ready_for_prod/TokenEcoSystemParticipationV1_0.sol\":7459:7617  (... */\n      swap4\n      pop\n      swap4\n      pop\n      swap4\n      pop\n      swap4\n      pop\n        /* \"token_eco_system_dev_contracts/contracts_ready_for_prod/TokenEcoSystemParticipationV1_0.sol\":7642:7643  0 */\n      0x00\n        /* \"token_eco_system_dev_contracts/contracts_ready_for_prod/TokenEcoSystemParticipationV1_0.sol\":7635:7639  rate */\n      dup5\n        /* \"token_eco_system_dev_contracts/contracts_ready_for_prod/TokenEcoSystemParticipationV1_0.sol\":7635:7643  rate > 0 */\n      gt\n        /* \"token_eco_system_dev_contracts/contracts_ready_for_prod/TokenEcoSystemParticipationV1_0.sol\":7635:7659  rate > 0 && decimals > 0 */\n      dup1\n      iszero\n      tag_342\n      jumpi\n      pop\n        /* \"token_eco_system_dev_contracts/contracts_ready_for_prod/TokenEcoSystemParticipationV1_0.sol\":7658:7659  0 */\n      0x00\n        /* \"token_eco_system_dev_contracts/contracts_ready_for_prod/TokenEcoSystemParticipationV1_0.sol\":7647:7655  decimals */\n      dup4\n        /* \"token_eco_system_dev_contracts/contracts_ready_for_prod/TokenEcoSystemParticipationV1_0.sol\":7647:7659  decimals > 0 */\n      gt\n        /* \"token_eco_system_dev_contracts/contracts_ready_for_prod/TokenEcoSystemParticipationV1_0.sol\":7635:7659  rate > 0 && decimals > 0 */\n    tag_342:\n        /* \"token_eco_system_dev_contracts/contracts_ready_for_prod/TokenEcoSystemParticipationV1_0.sol\":7635:7681  rate > 0 && decimals > 0 && chargeRateDate > 0 */\n      dup1\n      iszero\n      tag_343\n      jumpi\n      pop\n        /* \"token_eco_system_dev_contracts/contracts_ready_for_prod/TokenEcoSystemParticipationV1_0.sol\":7680:7681  0 */\n      0x00\n        /* \"token_eco_system_dev_contracts/contracts_ready_for_prod/TokenEcoSystemParticipationV1_0.sol\":7663:7677  chargeRateDate */\n      dup2\n        /* \"token_eco_system_dev_contracts/contracts_ready_for_prod/TokenEcoSystemParticipationV1_0.sol\":7663:7681  chargeRateDate > 0 */\n      gt\n        /* \"token_eco_system_dev_contracts/contracts_ready_for_prod/TokenEcoSystemParticipationV1_0.sol\":7635:7681  rate > 0 && decimals > 0 && chargeRateDate > 0 */\n    tag_343:\n        /* \"token_eco_system_dev_contracts/contracts_ready_for_prod/TokenEcoSystemParticipationV1_0.sol\":7627:7697  require(rate > 0 && decimals > 0 && chargeRateDate > 0, \"rate error!\") */\n      tag_344\n      jumpi\n      mload(0x40)\n      0x08c379a000000000000000000000000000000000000000000000000000000000\n      dup2\n      mstore\n      0x04\n      add\n      tag_345\n      swap1\n      tag_346\n      jump\t// in\n    tag_345:\n      mload(0x40)\n      dup1\n      swap2\n      sub\n      swap1\n      revert\n    tag_344:\n        /* \"token_eco_system_dev_contracts/contracts_ready_for_prod/TokenEcoSystemParticipationV1_0.sol\":7707:7721  uint256 points */\n      0x00\n        /* \"token_eco_system_dev_contracts/contracts_ready_for_prod/TokenEcoSystemParticipationV1_0.sol\":7724:7763  calculatePoints(amount, rate, decimals) */\n      tag_347\n        /* \"token_eco_system_dev_contracts/contracts_ready_for_prod/TokenEcoSystemParticipationV1_0.sol\":7740:7746  amount */\n      dup8\n        /* \"token_eco_system_dev_contracts/contracts_ready_for_prod/TokenEcoSystemParticipationV1_0.sol\":7748:7752  rate */\n      dup7\n        /* \"token_eco_system_dev_contracts/contracts_ready_for_prod/TokenEcoSystemParticipationV1_0.sol\":7754:7762  decimals */\n      dup7\n        /* \"token_eco_system_dev_contracts/contracts_ready_for_prod/TokenEcoSystemParticipationV1_0.sol\":7724:7739  calculatePoints */\n      tag_348\n        /* \"token_eco_system_dev_contracts/contracts_ready_for_prod/TokenEcoSystemParticipationV1_0.sol\":7724:7763  calculatePoints(amount, rate, decimals) */\n      jump\t// in\n    tag_347:\n        /* \"token_eco_system_dev_contracts/contracts_ready_for_prod/TokenEcoSystemParticipationV1_0.sol\":7707:7763  uint256 points = calculatePoints(amount, rate, decimals) */\n      swap1\n      pop\n        /* \"token_eco_system_dev_contracts/contracts_ready_for_prod/TokenEcoSystemParticipationV1_0.sol\":7790:7796  points */\n      dup1\n        /* \"token_eco_system_dev_contracts/contracts_ready_for_prod/TokenEcoSystemParticipationV1_0.sol\":7773:7786  pointsBalance */\n      0x04\n      0x00\n        /* \"token_eco_system_dev_contracts/contracts_ready_for_prod/TokenEcoSystemParticipationV1_0.sol\":7773:7796  pointsBalance += points */\n      dup3\n      dup3\n      sload\n      tag_349\n      swap2\n      swap1\n      tag_350\n      jump\t// in\n    tag_349:\n      swap3\n      pop\n      pop\n      dup2\n      swap1\n      sstore\n      pop\n        /* \"token_eco_system_dev_contracts/contracts_ready_for_prod/TokenEcoSystemParticipationV1_0.sol\":7824:7830  points */\n      dup1\n        /* \"token_eco_system_dev_contracts/contracts_ready_for_prod/TokenEcoSystemParticipationV1_0.sol\":7806:7820  totalConverted */\n      0x03\n      0x00\n        /* \"token_eco_system_dev_contracts/contracts_ready_for_prod/TokenEcoSystemParticipationV1_0.sol\":7806:7830  totalConverted += points */\n      dup3\n      dup3\n      sload\n      tag_351\n      swap2\n      swap1\n      tag_350\n      jump\t// in\n    tag_351:\n      swap3\n      pop\n      pop\n      dup2\n      swap1\n      sstore\n      pop\n        /* \"token_eco_system_dev_contracts/contracts_ready_for_prod/TokenEcoSystemParticipationV1_0.sol\":7855:7861  amount */\n      dup7\n        /* \"token_eco_system_dev_contracts/contracts_ready_for_prod/TokenEcoSystemParticipationV1_0.sol\":7840:7851  totalBurned */\n      0x02\n      0x00\n        /* \"token_eco_system_dev_contracts/contracts_ready_for_prod/TokenEcoSystemParticipationV1_0.sol\":7840:7861  totalBurned += amount */\n      dup3\n      dup3\n      sload\n      tag_352\n      swap2\n      swap1\n      tag_350\n      jump\t// in\n    tag_352:\n      swap3\n      pop\n      pop\n      dup2\n      swap1\n      sstore\n      pop\n        /* \"token_eco_system_dev_contracts/contracts_ready_for_prod/TokenEcoSystemParticipationV1_0.sol\":7871:7889  uint256 chargeTime */\n      0x00\n        /* \"token_eco_system_dev_contracts/contracts_ready_for_prod/TokenEcoSystemParticipationV1_0.sol\":7892:7907  block.timestamp */\n      timestamp\n        /* \"token_eco_system_dev_contracts/contracts_ready_for_prod/TokenEcoSystemParticipationV1_0.sol\":7871:7907  uint256 chargeTime = block.timestamp */\n      swap1\n      pop\n        /* \"token_eco_system_dev_contracts/contracts_ready_for_prod/TokenEcoSystemParticipationV1_0.sol\":8088:8098  chargeTime */\n      dup1\n        /* \"token_eco_system_dev_contracts/contracts_ready_for_prod/TokenEcoSystemParticipationV1_0.sol\":8068:8074  amount */\n      dup9\n        /* \"token_eco_system_dev_contracts/contracts_ready_for_prod/TokenEcoSystemParticipationV1_0.sol\":8048:8054  points */\n      dup4\n        /* \"token_eco_system_dev_contracts/contracts_ready_for_prod/TokenEcoSystemParticipationV1_0.sol\":7922:8108  ChargeContract(... */\n      0xb5aeb7b225999adc33232be2121afb1a366c15108c1da745d17fd76108172fe4\n        /* \"token_eco_system_dev_contracts/contracts_ready_for_prod/TokenEcoSystemParticipationV1_0.sol\":7950:7954  rate */\n      dup10\n        /* \"token_eco_system_dev_contracts/contracts_ready_for_prod/TokenEcoSystemParticipationV1_0.sol\":7968:7976  decimals */\n      dup10\n        /* \"token_eco_system_dev_contracts/contracts_ready_for_prod/TokenEcoSystemParticipationV1_0.sol\":7990:8004  chargeRateDate */\n      dup9\n        /* \"token_eco_system_dev_contracts/contracts_ready_for_prod/TokenEcoSystemParticipationV1_0.sol\":8018:8034  chargeRateString */\n      dup11\n        /* \"token_eco_system_dev_contracts/contracts_ready_for_prod/TokenEcoSystemParticipationV1_0.sol\":7922:8108  ChargeContract(... */\n      mload(0x40)\n      tag_353\n      swap5\n      swap4\n      swap3\n      swap2\n      swap1\n      tag_354\n      jump\t// in\n    tag_353:\n      mload(0x40)\n      dup1\n      swap2\n      sub\n      swap1\n      log4\n        /* \"token_eco_system_dev_contracts/contracts_ready_for_prod/TokenEcoSystemParticipationV1_0.sol\":8118:8175  token.safeTransferFrom(msg.sender, address(this), amount) */\n      tag_355\n        /* \"token_eco_system_dev_contracts/contracts_ready_for_prod/TokenEcoSystemParticipationV1_0.sol\":8141:8151  msg.sender */\n      caller\n        /* \"token_eco_system_dev_contracts/contracts_ready_for_prod/TokenEcoSystemParticipationV1_0.sol\":8161:8165  this */\n      address\n        /* \"token_eco_system_dev_contracts/contracts_ready_for_prod/TokenEcoSystemParticipationV1_0.sol\":8168:8174  amount */\n      dup11\n        /* \"token_eco_system_dev_contracts/contracts_ready_for_prod/TokenEcoSystemParticipationV1_0.sol\":8118:8123  token */\n      immutable(\"0x448072f8ce0e9d09a2030ee35ba0d03fccbd0c61c3623f421061fbafdf5a67a9\")\n        /* \"token_eco_system_dev_contracts/contracts_ready_for_prod/TokenEcoSystemParticipationV1_0.sol\":8118:8140  token.safeTransferFrom */\n      0xffffffffffffffffffffffffffffffffffffffff\n      and\n      tag_356\n      swap1\n        /* \"token_eco_system_dev_contracts/contracts_ready_for_prod/TokenEcoSystemParticipationV1_0.sol\":8118:8175  token.safeTransferFrom(msg.sender, address(this), amount) */\n      swap4\n      swap3\n      swap2\n      swap1\n      0xffffffff\n      and\n      jump\t// in\n    tag_355:\n        /* \"token_eco_system_dev_contracts/contracts_ready_for_prod/TokenEcoSystemParticipationV1_0.sol\":8185:8211  burnIncomingTokens(amount) */\n      tag_357\n        /* \"token_eco_system_dev_contracts/contracts_ready_for_prod/TokenEcoSystemParticipationV1_0.sol\":8204:8210  amount */\n      dup9\n        /* \"token_eco_system_dev_contracts/contracts_ready_for_prod/TokenEcoSystemParticipationV1_0.sol\":8185:8203  burnIncomingTokens */\n      tag_358\n        /* \"token_eco_system_dev_contracts/contracts_ready_for_prod/TokenEcoSystemParticipationV1_0.sol\":8185:8211  burnIncomingTokens(amount) */\n      jump\t// in\n    tag_357:\n      pop\n        /* \"token_eco_system_dev_contracts/contracts_ready_for_prod/TokenEcoSystemParticipationV1_0.sol\":8228:8232  true */\n      0x01\n        /* \"token_eco_system_dev_contracts/contracts_ready_for_prod/TokenEcoSystemParticipationV1_0.sol\":8221:8232  return true */\n      swap7\n      pop\n      pop\n      pop\n      pop\n      pop\n      pop\n      pop\n        /* \"token_eco_system_dev_contracts/contracts_ready_for_prod/TokenEcoSystemParticipationV1_0.sol\":7097:8239  function chargeContract(uint256 amount)... */\n      swap2\n      swap1\n      pop\n      jump\t// out\n        /* \"@openzeppelin/contracts/access/Ownable.sol\":2081:2279  function transferOwnership(address newOwner) public virtual onlyOwner {... */\n    tag_124:\n        /* \"@openzeppelin/contracts/access/Ownable.sol\":1094:1107  _checkOwner() */\n      tag_360\n        /* \"@openzeppelin/contracts/access/Ownable.sol\":1094:1105  _checkOwner */\n      tag_127\n        /* \"@openzeppelin/contracts/access/Ownable.sol\":1094:1107  _checkOwner() */\n      jump\t// in\n    tag_360:\n        /* \"@openzeppelin/contracts/access/Ownable.sol\":2189:2190  0 */\n      0x00\n        /* \"@openzeppelin/contracts/access/Ownable.sol\":2169:2191  newOwner != address(0) */\n      0xffffffffffffffffffffffffffffffffffffffff\n      and\n        /* \"@openzeppelin/contracts/access/Ownable.sol\":2169:2177  newOwner */\n      dup2\n        /* \"@openzeppelin/contracts/access/Ownable.sol\":2169:2191  newOwner != address(0) */\n      0xffffffffffffffffffffffffffffffffffffffff\n      and\n      sub\n        /* \"@openzeppelin/contracts/access/Ownable.sol\":2161:2234  require(newOwner != address(0), \"Ownable: new owner is the zero address\") */\n      tag_362\n      jumpi\n      mload(0x40)\n      0x08c379a000000000000000000000000000000000000000000000000000000000\n      dup2\n      mstore\n      0x04\n      add\n      tag_363\n      swap1\n      tag_364\n      jump\t// in\n    tag_363:\n      mload(0x40)\n      dup1\n      swap2\n      sub\n      swap1\n      revert\n    tag_362:\n        /* \"@openzeppelin/contracts/access/Ownable.sol\":2244:2272  _transferOwnership(newOwner) */\n      tag_365\n        /* \"@openzeppelin/contracts/access/Ownable.sol\":2263:2271  newOwner */\n      dup2\n        /* \"@openzeppelin/contracts/access/Ownable.sol\":2244:2262  _transferOwnership */\n      tag_223\n        /* \"@openzeppelin/contracts/access/Ownable.sol\":2244:2272  _transferOwnership(newOwner) */\n      jump\t// in\n    tag_365:\n        /* \"@openzeppelin/contracts/access/Ownable.sol\":2081:2279  function transferOwnership(address newOwner) public virtual onlyOwner {... */\n      pop\n      jump\t// out\n        /* \"@openzeppelin/contracts/access/Ownable.sol\":1359:1489  function _checkOwner() internal view virtual {... */\n    tag_127:\n        /* \"@openzeppelin/contracts/access/Ownable.sol\":1433:1445  _msgSender() */\n      tag_367\n        /* \"@openzeppelin/contracts/access/Ownable.sol\":1433:1443  _msgSender */\n      tag_368\n        /* \"@openzeppelin/contracts/access/Ownable.sol\":1433:1445  _msgSender() */\n      jump\t// in\n    tag_367:\n        /* \"@openzeppelin/contracts/access/Ownable.sol\":1422:1445  owner() == _msgSender() */\n      0xffffffffffffffffffffffffffffffffffffffff\n      and\n        /* \"@openzeppelin/contracts/access/Ownable.sol\":1422:1429  owner() */\n      tag_369\n        /* \"@openzeppelin/contracts/access/Ownable.sol\":1422:1427  owner */\n      tag_83\n        /* \"@openzeppelin/contracts/access/Ownable.sol\":1422:1429  owner() */\n      jump\t// in\n    tag_369:\n        /* \"@openzeppelin/contracts/access/Ownable.sol\":1422:1445  owner() == _msgSender() */\n      0xffffffffffffffffffffffffffffffffffffffff\n      and\n      eq\n        /* \"@openzeppelin/contracts/access/Ownable.sol\":1414:1482  require(owner() == _msgSender(), \"Ownable: caller is not the owner\") */\n      tag_370\n      jumpi\n      mload(0x40)\n      0x08c379a000000000000000000000000000000000000000000000000000000000\n      dup2\n      mstore\n      0x04\n      add\n      tag_371\n      swap1\n      tag_372\n      jump\t// in\n    tag_371:\n      mload(0x40)\n      dup1\n      swap2\n      sub\n      swap1\n      revert\n    tag_370:\n        /* \"@openzeppelin/contracts/access/Ownable.sol\":1359:1489  function _checkOwner() internal view virtual {... */\n      jump\t// out\n        /* \"@openzeppelin/contracts/security/Pausable.sol\":1945:2051  function _requirePaused() internal view virtual {... */\n    tag_144:\n        /* \"@openzeppelin/contracts/security/Pausable.sol\":2011:2019  paused() */\n      tag_374\n        /* \"@openzeppelin/contracts/security/Pausable.sol\":2011:2017  paused */\n      tag_64\n        /* \"@openzeppelin/contracts/security/Pausable.sol\":2011:2019  paused() */\n      jump\t// in\n    tag_374:\n        /* \"@openzeppelin/contracts/security/Pausable.sol\":2003:2044  require(paused(), \"Pausable: not paused\") */\n      tag_375\n      jumpi\n      mload(0x40)\n      0x08c379a000000000000000000000000000000000000000000000000000000000\n      dup2\n      mstore\n      0x04\n      add\n      tag_376\n      swap1\n      tag_377\n      jump\t// in\n    tag_376:\n      mload(0x40)\n      dup1\n      swap2\n      sub\n      swap1\n      revert\n    tag_375:\n        /* \"@openzeppelin/contracts/security/Pausable.sol\":1945:2051  function _requirePaused() internal view virtual {... */\n      jump\t// out\n        /* \"@openzeppelin/contracts/security/Pausable.sol\":2433:2550  function _unpause() internal virtual whenPaused {... */\n    tag_149:\n        /* \"@openzeppelin/contracts/security/Pausable.sol\":1486:1502  _requirePaused() */\n      tag_379\n        /* \"@openzeppelin/contracts/security/Pausable.sol\":1486:1500  _requirePaused */\n      tag_144\n        /* \"@openzeppelin/contracts/security/Pausable.sol\":1486:1502  _requirePaused() */\n      jump\t// in\n    tag_379:\n        /* \"@openzeppelin/contracts/security/Pausable.sol\":2501:2506  false */\n      0x00\n        /* \"@openzeppelin/contracts/security/Pausable.sol\":2491:2498  _paused */\n      dup1\n      0x00\n        /* \"@openzeppelin/contracts/security/Pausable.sol\":2491:2506  _paused = false */\n      0x0100\n      exp\n      dup2\n      sload\n      dup2\n      0xff\n      mul\n      not\n      and\n      swap1\n      dup4\n      iszero\n      iszero\n      mul\n      or\n      swap1\n      sstore\n      pop\n        /* \"@openzeppelin/contracts/security/Pausable.sol\":2521:2543  Unpaused(_msgSender()) */\n      0x5db9ee0a495bf2e6ff9c91a7834c1ba4fdd244a5e8aa4e537bd38aeae4b073aa\n        /* \"@openzeppelin/contracts/security/Pausable.sol\":2530:2542  _msgSender() */\n      tag_381\n        /* \"@openzeppelin/contracts/security/Pausable.sol\":2530:2540  _msgSender */\n      tag_368\n        /* \"@openzeppelin/contracts/security/Pausable.sol\":2530:2542  _msgSender() */\n      jump\t// in\n    tag_381:\n        /* \"@openzeppelin/contracts/security/Pausable.sol\":2521:2543  Unpaused(_msgSender()) */\n      mload(0x40)\n      tag_382\n      swap2\n      swap1\n      tag_47\n      jump\t// in\n    tag_382:\n      mload(0x40)\n      dup1\n      swap2\n      sub\n      swap1\n      log1\n        /* \"@openzeppelin/contracts/security/Pausable.sol\":2433:2550  function _unpause() internal virtual whenPaused {... */\n      jump\t// out\n        /* \"@openzeppelin/contracts/security/Pausable.sol\":1767:1873  function _requireNotPaused() internal view virtual {... */\n    tag_152:\n        /* \"@openzeppelin/contracts/security/Pausable.sol\":1837:1845  paused() */\n      tag_384\n        /* \"@openzeppelin/contracts/security/Pausable.sol\":1837:1843  paused */\n      tag_64\n        /* \"@openzeppelin/contracts/security/Pausable.sol\":1837:1845  paused() */\n      jump\t// in\n    tag_384:\n        /* \"@openzeppelin/contracts/security/Pausable.sol\":1836:1845  !paused() */\n      iszero\n        /* \"@openzeppelin/contracts/security/Pausable.sol\":1828:1866  require(!paused(), \"Pausable: paused\") */\n      tag_385\n      jumpi\n      mload(0x40)\n      0x08c379a000000000000000000000000000000000000000000000000000000000\n      dup2\n      mstore\n      0x04\n      add\n      tag_386\n      swap1\n      tag_387\n      jump\t// in\n    tag_386:\n      mload(0x40)\n      dup1\n      swap2\n      sub\n      swap1\n      revert\n    tag_385:\n        /* \"@openzeppelin/contracts/security/Pausable.sol\":1767:1873  function _requireNotPaused() internal view virtual {... */\n      jump\t// out\n        /* \"@openzeppelin/contracts/security/Pausable.sol\":2186:2301  function _pause() internal virtual whenNotPaused {... */\n    tag_157:\n        /* \"@openzeppelin/contracts/security/Pausable.sol\":1239:1258  _requireNotPaused() */\n      tag_389\n        /* \"@openzeppelin/contracts/security/Pausable.sol\":1239:1256  _requireNotPaused */\n      tag_152\n        /* \"@openzeppelin/contracts/security/Pausable.sol\":1239:1258  _requireNotPaused() */\n      jump\t// in\n    tag_389:\n        /* \"@openzeppelin/contracts/security/Pausable.sol\":2255:2259  true */\n      0x01\n        /* \"@openzeppelin/contracts/security/Pausable.sol\":2245:2252  _paused */\n      0x00\n      dup1\n        /* \"@openzeppelin/contracts/security/Pausable.sol\":2245:2259  _paused = true */\n      0x0100\n      exp\n      dup2\n      sload\n      dup2\n      0xff\n      mul\n      not\n      and\n      swap1\n      dup4\n      iszero\n      iszero\n      mul\n      or\n      swap1\n      sstore\n      pop\n        /* \"@openzeppelin/contracts/security/Pausable.sol\":2274:2294  Paused(_msgSender()) */\n      0x62e78cea01bee320cd4e420270b5ea74000d11b0c9f74754ebdbfc544b05a258\n        /* \"@openzeppelin/contracts/security/Pausable.sol\":2281:2293  _msgSender() */\n      tag_391\n        /* \"@openzeppelin/contracts/security/Pausable.sol\":2281:2291  _msgSender */\n      tag_368\n        /* \"@openzeppelin/contracts/security/Pausable.sol\":2281:2293  _msgSender() */\n      jump\t// in\n    tag_391:\n        /* \"@openzeppelin/contracts/security/Pausable.sol\":2274:2294  Paused(_msgSender()) */\n      mload(0x40)\n      tag_392\n      swap2\n      swap1\n      tag_47\n      jump\t// in\n    tag_392:\n      mload(0x40)\n      dup1\n      swap2\n      sub\n      swap1\n      log1\n        /* \"@openzeppelin/contracts/security/Pausable.sol\":2186:2301  function _pause() internal virtual whenNotPaused {... */\n      jump\t// out\n        /* \"@openzeppelin/contracts/access/Ownable.sol\":2433:2620  function _transferOwnership(address newOwner) internal virtual {... */\n    tag_223:\n        /* \"@openzeppelin/contracts/access/Ownable.sol\":2506:2522  address oldOwner */\n      0x00\n        /* \"@openzeppelin/contracts/access/Ownable.sol\":2525:2531  _owner */\n      dup1\n      0x01\n      swap1\n      sload\n      swap1\n      0x0100\n      exp\n      swap1\n      div\n      0xffffffffffffffffffffffffffffffffffffffff\n      and\n        /* \"@openzeppelin/contracts/access/Ownable.sol\":2506:2531  address oldOwner = _owner */\n      swap1\n      pop\n        /* \"@openzeppelin/contracts/access/Ownable.sol\":2550:2558  newOwner */\n      dup2\n        /* \"@openzeppelin/contracts/access/Ownable.sol\":2541:2547  _owner */\n      0x00\n      0x01\n        /* \"@openzeppelin/contracts/access/Ownable.sol\":2541:2558  _owner = newOwner */\n      0x0100\n      exp\n      dup2\n      sload\n      dup2\n      0xffffffffffffffffffffffffffffffffffffffff\n      mul\n      not\n      and\n      swap1\n      dup4\n      0xffffffffffffffffffffffffffffffffffffffff\n      and\n      mul\n      or\n      swap1\n      sstore\n      pop\n        /* \"@openzeppelin/contracts/access/Ownable.sol\":2604:2612  newOwner */\n      dup2\n        /* \"@openzeppelin/contracts/access/Ownable.sol\":2573:2613  OwnershipTransferred(oldOwner, newOwner) */\n      0xffffffffffffffffffffffffffffffffffffffff\n      and\n        /* \"@openzeppelin/contracts/access/Ownable.sol\":2594:2602  oldOwner */\n      dup2\n        /* \"@openzeppelin/contracts/access/Ownable.sol\":2573:2613  OwnershipTransferred(oldOwner, newOwner) */\n      0xffffffffffffffffffffffffffffffffffffffff\n      and\n      0x8be0079c531659141344cd1fd0a4f28419497f9722a3daafe3b4186f6b6457e0\n      mload(0x40)\n      mload(0x40)\n      dup1\n      swap2\n      sub\n      swap1\n      log3\n        /* \"@openzeppelin/contracts/access/Ownable.sol\":2496:2620  {... */\n      pop\n        /* \"@openzeppelin/contracts/access/Ownable.sol\":2433:2620  function _transferOwnership(address newOwner) internal virtual {... */\n      pop\n      jump\t// out\n        /* \"token_eco_system_dev_contracts/contracts_ready_for_prod/TokenEcoSystemParticipationV1_0.sol\":11138:12063  function getRate()... */\n    tag_341:\n        /* \"token_eco_system_dev_contracts/contracts_ready_for_prod/TokenEcoSystemParticipationV1_0.sol\":11203:11210  uint256 */\n      0x00\n        /* \"token_eco_system_dev_contracts/contracts_ready_for_prod/TokenEcoSystemParticipationV1_0.sol\":11224:11231  uint256 */\n      dup1\n        /* \"token_eco_system_dev_contracts/contracts_ready_for_prod/TokenEcoSystemParticipationV1_0.sol\":11245:11258  string memory */\n      0x60\n        /* \"token_eco_system_dev_contracts/contracts_ready_for_prod/TokenEcoSystemParticipationV1_0.sol\":11272:11279  uint256 */\n      0x00\n        /* \"token_eco_system_dev_contracts/contracts_ready_for_prod/TokenEcoSystemParticipationV1_0.sol\":11308:11320  poolRateFeed */\n      0x01\n      0x14\n      swap1\n      sload\n      swap1\n      0x0100\n      exp\n      swap1\n      div\n      0xff\n      and\n        /* \"token_eco_system_dev_contracts/contracts_ready_for_prod/TokenEcoSystemParticipationV1_0.sol\":11304:11679  if (poolRateFeed) {... */\n      iszero\n      tag_395\n      jumpi\n        /* \"token_eco_system_dev_contracts/contracts_ready_for_prod/TokenEcoSystemParticipationV1_0.sol\":11361:11373  poolRateFeed */\n      0x01\n      0x14\n      swap1\n      sload\n      swap1\n      0x0100\n      exp\n      swap1\n      div\n      0xff\n      and\n        /* \"token_eco_system_dev_contracts/contracts_ready_for_prod/TokenEcoSystemParticipationV1_0.sol\":11361:11414  poolRateFeed && (address(poolConsumer) != address(0)) */\n      dup1\n      iszero\n      tag_396\n      jumpi\n      pop\n        /* \"token_eco_system_dev_contracts/contracts_ready_for_prod/TokenEcoSystemParticipationV1_0.sol\":11411:11412  0 */\n      0x00\n        /* \"token_eco_system_dev_contracts/contracts_ready_for_prod/TokenEcoSystemParticipationV1_0.sol\":11378:11413  address(poolConsumer) != address(0) */\n      0xffffffffffffffffffffffffffffffffffffffff\n      and\n        /* \"token_eco_system_dev_contracts/contracts_ready_for_prod/TokenEcoSystemParticipationV1_0.sol\":11386:11398  poolConsumer */\n      0x06\n      0x00\n      swap1\n      sload\n      swap1\n      0x0100\n      exp\n      swap1\n      div\n      0xffffffffffffffffffffffffffffffffffffffff\n      and\n        /* \"token_eco_system_dev_contracts/contracts_ready_for_prod/TokenEcoSystemParticipationV1_0.sol\":11378:11413  address(poolConsumer) != address(0) */\n      0xffffffffffffffffffffffffffffffffffffffff\n      and\n      eq\n      iszero\n        /* \"token_eco_system_dev_contracts/contracts_ready_for_prod/TokenEcoSystemParticipationV1_0.sol\":11361:11414  poolRateFeed && (address(poolConsumer) != address(0)) */\n    tag_396:\n        /* \"token_eco_system_dev_contracts/contracts_ready_for_prod/TokenEcoSystemParticipationV1_0.sol\":11336:11480  require(... */\n      tag_397\n      jumpi\n      mload(0x40)\n      0x08c379a000000000000000000000000000000000000000000000000000000000\n      dup2\n      mstore\n      0x04\n      add\n      tag_398\n      swap1\n      tag_317\n      jump\t// in\n    tag_398:\n      mload(0x40)\n      dup1\n      swap2\n      sub\n      swap1\n      revert\n    tag_397:\n        /* \"token_eco_system_dev_contracts/contracts_ready_for_prod/TokenEcoSystemParticipationV1_0.sol\":11304:11679  if (poolRateFeed) {... */\n      jump(tag_399)\n    tag_395:\n        /* \"token_eco_system_dev_contracts/contracts_ready_for_prod/TokenEcoSystemParticipationV1_0.sol\":11537:11549  poolRateFeed */\n      0x01\n      0x14\n      swap1\n      sload\n      swap1\n      0x0100\n      exp\n      swap1\n      div\n      0xff\n      and\n        /* \"token_eco_system_dev_contracts/contracts_ready_for_prod/TokenEcoSystemParticipationV1_0.sol\":11536:11549  !poolRateFeed */\n      iszero\n        /* \"token_eco_system_dev_contracts/contracts_ready_for_prod/TokenEcoSystemParticipationV1_0.sol\":11536:11596  !poolRateFeed && (address(aggregatorConsumer) != address(0)) */\n      dup1\n      iszero\n      tag_400\n      jumpi\n      pop\n        /* \"token_eco_system_dev_contracts/contracts_ready_for_prod/TokenEcoSystemParticipationV1_0.sol\":11593:11594  0 */\n      0x00\n        /* \"token_eco_system_dev_contracts/contracts_ready_for_prod/TokenEcoSystemParticipationV1_0.sol\":11554:11595  address(aggregatorConsumer) != address(0) */\n      0xffffffffffffffffffffffffffffffffffffffff\n      and\n        /* \"token_eco_system_dev_contracts/contracts_ready_for_prod/TokenEcoSystemParticipationV1_0.sol\":11562:11580  aggregatorConsumer */\n      0x05\n      0x00\n      swap1\n      sload\n      swap1\n      0x0100\n      exp\n      swap1\n      div\n      0xffffffffffffffffffffffffffffffffffffffff\n      and\n        /* \"token_eco_system_dev_contracts/contracts_ready_for_prod/TokenEcoSystemParticipationV1_0.sol\":11554:11595  address(aggregatorConsumer) != address(0) */\n      0xffffffffffffffffffffffffffffffffffffffff\n      and\n      eq\n      iszero\n        /* \"token_eco_system_dev_contracts/contracts_ready_for_prod/TokenEcoSystemParticipationV1_0.sol\":11536:11596  !poolRateFeed && (address(aggregatorConsumer) != address(0)) */\n    tag_400:\n        /* \"token_eco_system_dev_contracts/contracts_ready_for_prod/TokenEcoSystemParticipationV1_0.sol\":11511:11668  require(... */\n      tag_401\n      jumpi\n      mload(0x40)\n      0x08c379a000000000000000000000000000000000000000000000000000000000\n      dup2\n      mstore\n      0x04\n      add\n      tag_402\n      swap1\n      tag_312\n      jump\t// in\n    tag_402:\n      mload(0x40)\n      dup1\n      swap2\n      sub\n      swap1\n      revert\n    tag_401:\n        /* \"token_eco_system_dev_contracts/contracts_ready_for_prod/TokenEcoSystemParticipationV1_0.sol\":11304:11679  if (poolRateFeed) {... */\n    tag_399:\n        /* \"token_eco_system_dev_contracts/contracts_ready_for_prod/TokenEcoSystemParticipationV1_0.sol\":11703:11715  uint256 rate */\n      0x00\n        /* \"token_eco_system_dev_contracts/contracts_ready_for_prod/TokenEcoSystemParticipationV1_0.sol\":11729:11745  uint256 decimals */\n      dup1\n        /* \"token_eco_system_dev_contracts/contracts_ready_for_prod/TokenEcoSystemParticipationV1_0.sol\":11759:11783  string memory rateString */\n      0x00\n        /* \"token_eco_system_dev_contracts/contracts_ready_for_prod/TokenEcoSystemParticipationV1_0.sol\":11797:11809  uint256 date */\n      dup1\n        /* \"token_eco_system_dev_contracts/contracts_ready_for_prod/TokenEcoSystemParticipationV1_0.sol\":11823:11835  poolRateFeed */\n      0x01\n      0x14\n      swap1\n      sload\n      swap1\n      0x0100\n      exp\n      swap1\n      div\n      0xff\n      and\n        /* \"token_eco_system_dev_contracts/contracts_ready_for_prod/TokenEcoSystemParticipationV1_0.sol\":11822:11835  !poolRateFeed */\n      iszero\n        /* \"token_eco_system_dev_contracts/contracts_ready_for_prod/TokenEcoSystemParticipationV1_0.sol\":11822:11930  !poolRateFeed... */\n      tag_403\n      jumpi\n        /* \"token_eco_system_dev_contracts/contracts_ready_for_prod/TokenEcoSystemParticipationV1_0.sol\":11907:11919  poolConsumer */\n      0x06\n      0x00\n      swap1\n      sload\n      swap1\n      0x0100\n      exp\n      swap1\n      div\n      0xffffffffffffffffffffffffffffffffffffffff\n      and\n        /* \"token_eco_system_dev_contracts/contracts_ready_for_prod/TokenEcoSystemParticipationV1_0.sol\":11907:11928  poolConsumer.poolRate */\n      0xffffffffffffffffffffffffffffffffffffffff\n      and\n      0x85096edc\n        /* \"token_eco_system_dev_contracts/contracts_ready_for_prod/TokenEcoSystemParticipationV1_0.sol\":11907:11930  poolConsumer.poolRate() */\n      mload(0x40)\n      dup2\n      0xffffffff\n      and\n      0xe0\n      shl\n      dup2\n      mstore\n      0x04\n      add\n      0x00\n      mload(0x40)\n      dup1\n      dup4\n      sub\n      dup2\n      0x00\n      dup8\n      gas\n      call\n      iszero\n      dup1\n      iszero\n      tag_405\n      jumpi\n      returndatasize\n      0x00\n      dup1\n      returndatacopy\n      revert(0x00, returndatasize)\n    tag_405:\n      pop\n      pop\n      pop\n      pop\n      mload(0x40)\n      returndatasize\n      0x00\n      dup3\n      returndatacopy\n      returndatasize\n      not(0x1f)\n      0x1f\n      dup3\n      add\n      and\n      dup3\n      add\n      dup1\n      0x40\n      mstore\n      pop\n      dup2\n      add\n      swap1\n      tag_406\n      swap2\n      swap1\n      tag_407\n      jump\t// in\n    tag_406:\n        /* \"token_eco_system_dev_contracts/contracts_ready_for_prod/TokenEcoSystemParticipationV1_0.sol\":11822:11930  !poolRateFeed... */\n      jump(tag_408)\n    tag_403:\n        /* \"token_eco_system_dev_contracts/contracts_ready_for_prod/TokenEcoSystemParticipationV1_0.sol\":11854:11872  aggregatorConsumer */\n      0x05\n      0x00\n      swap1\n      sload\n      swap1\n      0x0100\n      exp\n      swap1\n      div\n      0xffffffffffffffffffffffffffffffffffffffff\n      and\n        /* \"token_eco_system_dev_contracts/contracts_ready_for_prod/TokenEcoSystemParticipationV1_0.sol\":11854:11886  aggregatorConsumer.getLatestRate */\n      0xffffffffffffffffffffffffffffffffffffffff\n      and\n      0xe1e7ff77\n        /* \"token_eco_system_dev_contracts/contracts_ready_for_prod/TokenEcoSystemParticipationV1_0.sol\":11854:11888  aggregatorConsumer.getLatestRate() */\n      mload(0x40)\n      dup2\n      0xffffffff\n      and\n      0xe0\n      shl\n      dup2\n      mstore\n      0x04\n      add\n      0x00\n      mload(0x40)\n      dup1\n      dup4\n      sub\n      dup2\n      0x00\n      dup8\n      gas\n      call\n      iszero\n      dup1\n      iszero\n      tag_410\n      jumpi\n      returndatasize\n      0x00\n      dup1\n      returndatacopy\n      revert(0x00, returndatasize)\n    tag_410:\n      pop\n      pop\n      pop\n      pop\n      mload(0x40)\n      returndatasize\n      0x00\n      dup3\n      returndatacopy\n      returndatasize\n      not(0x1f)\n      0x1f\n      dup3\n      add\n      and\n      dup3\n      add\n      dup1\n      0x40\n      mstore\n      pop\n      dup2\n      add\n      swap1\n      tag_411\n      swap2\n      swap1\n      tag_407\n      jump\t// in\n    tag_411:\n        /* \"token_eco_system_dev_contracts/contracts_ready_for_prod/TokenEcoSystemParticipationV1_0.sol\":11822:11930  !poolRateFeed... */\n    tag_408:\n        /* \"token_eco_system_dev_contracts/contracts_ready_for_prod/TokenEcoSystemParticipationV1_0.sol\":11689:11930  (... */\n      swap4\n      pop\n      swap4\n      pop\n      swap4\n      pop\n      swap4\n      pop\n        /* \"token_eco_system_dev_contracts/contracts_ready_for_prod/TokenEcoSystemParticipationV1_0.sol\":11945:12005  GetRate(rate, decimals, rateString, date, currentRateFeed()) */\n      0xf533c7ebcab9ca95557310f62aa7ad41d3a6b17aebec7762b994ef1a14863865\n        /* \"token_eco_system_dev_contracts/contracts_ready_for_prod/TokenEcoSystemParticipationV1_0.sol\":11953:11957  rate */\n      dup5\n        /* \"token_eco_system_dev_contracts/contracts_ready_for_prod/TokenEcoSystemParticipationV1_0.sol\":11959:11967  decimals */\n      dup5\n        /* \"token_eco_system_dev_contracts/contracts_ready_for_prod/TokenEcoSystemParticipationV1_0.sol\":11969:11979  rateString */\n      dup5\n        /* \"token_eco_system_dev_contracts/contracts_ready_for_prod/TokenEcoSystemParticipationV1_0.sol\":11981:11985  date */\n      dup5\n        /* \"token_eco_system_dev_contracts/contracts_ready_for_prod/TokenEcoSystemParticipationV1_0.sol\":11987:12004  currentRateFeed() */\n      tag_412\n        /* \"token_eco_system_dev_contracts/contracts_ready_for_prod/TokenEcoSystemParticipationV1_0.sol\":11987:12002  currentRateFeed */\n      tag_112\n        /* \"token_eco_system_dev_contracts/contracts_ready_for_prod/TokenEcoSystemParticipationV1_0.sol\":11987:12004  currentRateFeed() */\n      jump\t// in\n    tag_412:\n        /* \"token_eco_system_dev_contracts/contracts_ready_for_prod/TokenEcoSystemParticipationV1_0.sol\":11945:12005  GetRate(rate, decimals, rateString, date, currentRateFeed()) */\n      mload(0x40)\n      tag_413\n      swap6\n      swap5\n      swap4\n      swap3\n      swap2\n      swap1\n      tag_414\n      jump\t// in\n    tag_413:\n      mload(0x40)\n      dup1\n      swap2\n      sub\n      swap1\n      log1\n        /* \"token_eco_system_dev_contracts/contracts_ready_for_prod/TokenEcoSystemParticipationV1_0.sol\":12023:12027  rate */\n      dup4\n        /* \"token_eco_system_dev_contracts/contracts_ready_for_prod/TokenEcoSystemParticipationV1_0.sol\":12029:12037  decimals */\n      dup4\n        /* \"token_eco_system_dev_contracts/contracts_ready_for_prod/TokenEcoSystemParticipationV1_0.sol\":12039:12049  rateString */\n      dup4\n        /* \"token_eco_system_dev_contracts/contracts_ready_for_prod/TokenEcoSystemParticipationV1_0.sol\":12051:12055  date */\n      dup4\n        /* \"token_eco_system_dev_contracts/contracts_ready_for_prod/TokenEcoSystemParticipationV1_0.sol\":12015:12056  return (rate, decimals, rateString, date) */\n      swap8\n      pop\n      swap8\n      pop\n      swap8\n      pop\n      swap8\n      pop\n      pop\n      pop\n      pop\n      pop\n        /* \"token_eco_system_dev_contracts/contracts_ready_for_prod/TokenEcoSystemParticipationV1_0.sol\":11138:12063  function getRate()... */\n      swap1\n      swap2\n      swap3\n      swap4\n      jump\t// out\n        /* \"token_eco_system_dev_contracts/contracts_ready_for_prod/TokenEcoSystemParticipationV1_0.sol\":12132:12320  function calculatePoints(... */\n    tag_348:\n        /* \"token_eco_system_dev_contracts/contracts_ready_for_prod/TokenEcoSystemParticipationV1_0.sol\":12257:12264  uint256 */\n      0x00\n        /* \"token_eco_system_dev_contracts/contracts_ready_for_prod/TokenEcoSystemParticipationV1_0.sol\":12305:12313  decimals */\n      dup2\n        /* \"token_eco_system_dev_contracts/contracts_ready_for_prod/TokenEcoSystemParticipationV1_0.sol\":12301:12303  10 */\n      0x0a\n        /* \"token_eco_system_dev_contracts/contracts_ready_for_prod/TokenEcoSystemParticipationV1_0.sol\":12301:12313  10**decimals */\n      tag_416\n      swap2\n      swap1\n      tag_239\n      jump\t// in\n    tag_416:\n        /* \"token_eco_system_dev_contracts/contracts_ready_for_prod/TokenEcoSystemParticipationV1_0.sol\":12293:12297  rate */\n      dup4\n        /* \"token_eco_system_dev_contracts/contracts_ready_for_prod/TokenEcoSystemParticipationV1_0.sol\":12284:12290  amount */\n      dup6\n        /* \"token_eco_system_dev_contracts/contracts_ready_for_prod/TokenEcoSystemParticipationV1_0.sol\":12284:12297  amount * rate */\n      tag_417\n      swap2\n      swap1\n      tag_241\n      jump\t// in\n    tag_417:\n        /* \"token_eco_system_dev_contracts/contracts_ready_for_prod/TokenEcoSystemParticipationV1_0.sol\":12283:12313  (amount * rate) / 10**decimals */\n      tag_418\n      swap2\n      swap1\n      tag_243\n      jump\t// in\n    tag_418:\n        /* \"token_eco_system_dev_contracts/contracts_ready_for_prod/TokenEcoSystemParticipationV1_0.sol\":12276:12313  return (amount * rate) / 10**decimals */\n      swap1\n      pop\n        /* \"token_eco_system_dev_contracts/contracts_ready_for_prod/TokenEcoSystemParticipationV1_0.sol\":12132:12320  function calculatePoints(... */\n      swap4\n      swap3\n      pop\n      pop\n      pop\n      jump\t// out\n        /* \"@openzeppelin/contracts/token/ERC20/utils/SafeERC20.sol\":974:1215  function safeTransferFrom(... */\n    tag_356:\n        /* \"@openzeppelin/contracts/token/ERC20/utils/SafeERC20.sol\":1112:1208  _callOptionalReturn(token, abi.encodeWithSelector(token.transferFrom.selector, from, to, value)) */\n      tag_420\n        /* \"@openzeppelin/contracts/token/ERC20/utils/SafeERC20.sol\":1132:1137  token */\n      dup5\n        /* \"@openzeppelin/contracts/token/ERC20/utils/SafeERC20.sol\":1162:1189  token.transferFrom.selector */\n      shl(0xe0, 0x23b872dd)\n        /* \"@openzeppelin/contracts/token/ERC20/utils/SafeERC20.sol\":1191:1195  from */\n      dup6\n        /* \"@openzeppelin/contracts/token/ERC20/utils/SafeERC20.sol\":1197:1199  to */\n      dup6\n        /* \"@openzeppelin/contracts/token/ERC20/utils/SafeERC20.sol\":1201:1206  value */\n      dup6\n        /* \"@openzeppelin/contracts/token/ERC20/utils/SafeERC20.sol\":1139:1207  abi.encodeWithSelector(token.transferFrom.selector, from, to, value) */\n      add(0x24, mload(0x40))\n      tag_421\n      swap4\n      swap3\n      swap2\n      swap1\n      tag_422\n      jump\t// in\n    tag_421:\n      mload(0x40)\n      0x20\n      dup2\n      dup4\n      sub\n      sub\n      dup2\n      mstore\n      swap1\n      0x40\n      mstore\n      swap1\n      not(0xffffffffffffffffffffffffffffffffffffffffffffffffffffffff)\n      and\n      0x20\n      dup3\n      add\n      dup1\n      mload\n      0xffffffffffffffffffffffffffffffffffffffffffffffffffffffff\n      dup4\n      dup2\n      dup4\n      and\n      or\n      dup4\n      mstore\n      pop\n      pop\n      pop\n      pop\n        /* \"@openzeppelin/contracts/token/ERC20/utils/SafeERC20.sol\":1112:1131  _callOptionalReturn */\n      tag_423\n        /* \"@openzeppelin/contracts/token/ERC20/utils/SafeERC20.sol\":1112:1208  _callOptionalReturn(token, abi.encodeWithSelector(token.transferFrom.selector, from, to, value)) */\n      jump\t// in\n    tag_420:\n        /* \"@openzeppelin/contracts/token/ERC20/utils/SafeERC20.sol\":974:1215  function safeTransferFrom(... */\n      pop\n      pop\n      pop\n      pop\n      jump\t// out\n        /* \"token_eco_system_dev_contracts/contracts_ready_for_prod/TokenEcoSystemParticipationV1_0.sol\":12378:12687  function burnIncomingTokens(uint256 amount) private returns (bool) {... */\n    tag_358:\n        /* \"token_eco_system_dev_contracts/contracts_ready_for_prod/TokenEcoSystemParticipationV1_0.sol\":12439:12443  bool */\n      0x00\n        /* \"token_eco_system_dev_contracts/contracts_ready_for_prod/TokenEcoSystemParticipationV1_0.sol\":12472:12473  0 */\n      dup1\n        /* \"token_eco_system_dev_contracts/contracts_ready_for_prod/TokenEcoSystemParticipationV1_0.sol\":12463:12469  amount */\n      dup3\n        /* \"token_eco_system_dev_contracts/contracts_ready_for_prod/TokenEcoSystemParticipationV1_0.sol\":12463:12473  amount > 0 */\n      gt\n        /* \"token_eco_system_dev_contracts/contracts_ready_for_prod/TokenEcoSystemParticipationV1_0.sol\":12455:12501  require(amount > 0, \"No tokens to be burned!\") */\n      tag_425\n      jumpi\n      mload(0x40)\n      0x08c379a000000000000000000000000000000000000000000000000000000000\n      dup2\n      mstore\n      0x04\n      add\n      tag_426\n      swap1\n      tag_427\n      jump\t// in\n    tag_426:\n      mload(0x40)\n      dup1\n      swap2\n      sub\n      swap1\n      revert\n    tag_425:\n        /* \"token_eco_system_dev_contracts/contracts_ready_for_prod/TokenEcoSystemParticipationV1_0.sol\":12511:12526  uint256 balance */\n      0x00\n        /* \"token_eco_system_dev_contracts/contracts_ready_for_prod/TokenEcoSystemParticipationV1_0.sol\":12529:12540  balanceOf() */\n      tag_428\n        /* \"token_eco_system_dev_contracts/contracts_ready_for_prod/TokenEcoSystemParticipationV1_0.sol\":12529:12538  balanceOf */\n      tag_75\n        /* \"token_eco_system_dev_contracts/contracts_ready_for_prod/TokenEcoSystemParticipationV1_0.sol\":12529:12540  balanceOf() */\n      jump\t// in\n    tag_428:\n        /* \"token_eco_system_dev_contracts/contracts_ready_for_prod/TokenEcoSystemParticipationV1_0.sol\":12511:12540  uint256 balance = balanceOf() */\n      swap1\n      pop\n        /* \"token_eco_system_dev_contracts/contracts_ready_for_prod/TokenEcoSystemParticipationV1_0.sol\":12550:12555  token */\n      immutable(\"0x448072f8ce0e9d09a2030ee35ba0d03fccbd0c61c3623f421061fbafdf5a67a9\")\n        /* \"token_eco_system_dev_contracts/contracts_ready_for_prod/TokenEcoSystemParticipationV1_0.sol\":12550:12560  token.burn */\n      0xffffffffffffffffffffffffffffffffffffffff\n      and\n      0x42966c68\n        /* \"token_eco_system_dev_contracts/contracts_ready_for_prod/TokenEcoSystemParticipationV1_0.sol\":12561:12567  amount */\n      dup5\n        /* \"token_eco_system_dev_contracts/contracts_ready_for_prod/TokenEcoSystemParticipationV1_0.sol\":12550:12568  token.burn(amount) */\n      mload(0x40)\n      dup3\n      0xffffffff\n      and\n      0xe0\n      shl\n      dup2\n      mstore\n      0x04\n      add\n      tag_429\n      swap2\n      swap1\n      tag_60\n      jump\t// in\n    tag_429:\n      0x00\n      mload(0x40)\n      dup1\n      dup4\n      sub\n      dup2\n      0x00\n      dup8\n      dup1\n      extcodesize\n      iszero\n      dup1\n      iszero\n      tag_430\n      jumpi\n      0x00\n      dup1\n      revert\n    tag_430:\n      pop\n      gas\n      call\n      iszero\n      dup1\n      iszero\n      tag_432\n      jumpi\n      returndatasize\n      0x00\n      dup1\n      returndatacopy\n      revert(0x00, returndatasize)\n    tag_432:\n      pop\n      pop\n      pop\n      pop\n        /* \"token_eco_system_dev_contracts/contracts_ready_for_prod/TokenEcoSystemParticipationV1_0.sol\":12609:12615  amount */\n      dup3\n        /* \"token_eco_system_dev_contracts/contracts_ready_for_prod/TokenEcoSystemParticipationV1_0.sol\":12601:12608  balance */\n      dup2\n        /* \"token_eco_system_dev_contracts/contracts_ready_for_prod/TokenEcoSystemParticipationV1_0.sol\":12601:12615  balance-amount */\n      tag_433\n      swap2\n      swap1\n      tag_141\n      jump\t// in\n    tag_433:\n        /* \"token_eco_system_dev_contracts/contracts_ready_for_prod/TokenEcoSystemParticipationV1_0.sol\":12586:12597  balanceOf() */\n      tag_434\n        /* \"token_eco_system_dev_contracts/contracts_ready_for_prod/TokenEcoSystemParticipationV1_0.sol\":12586:12595  balanceOf */\n      tag_75\n        /* \"token_eco_system_dev_contracts/contracts_ready_for_prod/TokenEcoSystemParticipationV1_0.sol\":12586:12597  balanceOf() */\n      jump\t// in\n    tag_434:\n        /* \"token_eco_system_dev_contracts/contracts_ready_for_prod/TokenEcoSystemParticipationV1_0.sol\":12586:12615  balanceOf() == balance-amount */\n      eq\n        /* \"token_eco_system_dev_contracts/contracts_ready_for_prod/TokenEcoSystemParticipationV1_0.sol\":12578:12659  require(balanceOf() == balance-amount, \"transaction reverted burn unsuccesfull!\") */\n      tag_435\n      jumpi\n      mload(0x40)\n      0x08c379a000000000000000000000000000000000000000000000000000000000\n      dup2\n      mstore\n      0x04\n      add\n      tag_436\n      swap1\n      tag_437\n      jump\t// in\n    tag_436:\n      mload(0x40)\n      dup1\n      swap2\n      sub\n      swap1\n      revert\n    tag_435:\n        /* \"token_eco_system_dev_contracts/contracts_ready_for_prod/TokenEcoSystemParticipationV1_0.sol\":12676:12680  true */\n      0x01\n        /* \"token_eco_system_dev_contracts/contracts_ready_for_prod/TokenEcoSystemParticipationV1_0.sol\":12669:12680  return true */\n      swap2\n      pop\n      pop\n        /* \"token_eco_system_dev_contracts/contracts_ready_for_prod/TokenEcoSystemParticipationV1_0.sol\":12378:12687  function burnIncomingTokens(uint256 amount) private returns (bool) {... */\n      swap2\n      swap1\n      pop\n      jump\t// out\n        /* \"@openzeppelin/contracts/utils/Context.sol\":640:736  function _msgSender() internal view virtual returns (address) {... */\n    tag_368:\n        /* \"@openzeppelin/contracts/utils/Context.sol\":693:700  address */\n      0x00\n        /* \"@openzeppelin/contracts/utils/Context.sol\":719:729  msg.sender */\n      caller\n        /* \"@openzeppelin/contracts/utils/Context.sol\":712:729  return msg.sender */\n      swap1\n      pop\n        /* \"@openzeppelin/contracts/utils/Context.sol\":640:736  function _msgSender() internal view virtual returns (address) {... */\n      swap1\n      jump\t// out\n        /* \"@openzeppelin/contracts/token/ERC20/utils/SafeERC20.sol\":3747:4453  function _callOptionalReturn(IERC20 token, bytes memory data) private {... */\n    tag_423:\n        /* \"@openzeppelin/contracts/token/ERC20/utils/SafeERC20.sol\":4166:4189  bytes memory returndata */\n      0x00\n        /* \"@openzeppelin/contracts/token/ERC20/utils/SafeERC20.sol\":4192:4261  address(token).functionCall(data, \"SafeERC20: low-level call failed\") */\n      tag_440\n        /* \"@openzeppelin/contracts/token/ERC20/utils/SafeERC20.sol\":4220:4224  data */\n      dup3\n        /* \"@openzeppelin/contracts/token/ERC20/utils/SafeERC20.sol\":4192:4261  address(token).functionCall(data, \"SafeERC20: low-level call failed\") */\n      mload(0x40)\n      dup1\n      0x40\n      add\n      0x40\n      mstore\n      dup1\n      0x20\n      dup2\n      mstore\n      0x20\n      add\n      0x5361666545524332303a206c6f772d6c6576656c2063616c6c206661696c6564\n      dup2\n      mstore\n      pop\n        /* \"@openzeppelin/contracts/token/ERC20/utils/SafeERC20.sol\":4200:4205  token */\n      dup6\n        /* \"@openzeppelin/contracts/token/ERC20/utils/SafeERC20.sol\":4192:4219  address(token).functionCall */\n      0xffffffffffffffffffffffffffffffffffffffff\n      and\n      tag_441\n      swap1\n        /* \"@openzeppelin/contracts/token/ERC20/utils/SafeERC20.sol\":4192:4261  address(token).functionCall(data, \"SafeERC20: low-level call failed\") */\n      swap3\n      swap2\n      swap1\n      0xffffffff\n      and\n      jump\t// in\n    tag_440:\n        /* \"@openzeppelin/contracts/token/ERC20/utils/SafeERC20.sol\":4166:4261  bytes memory returndata = address(token).functionCall(data, \"SafeERC20: low-level call failed\") */\n      swap1\n      pop\n        /* \"@openzeppelin/contracts/token/ERC20/utils/SafeERC20.sol\":4295:4296  0 */\n      0x00\n        /* \"@openzeppelin/contracts/token/ERC20/utils/SafeERC20.sol\":4275:4285  returndata */\n      dup2\n        /* \"@openzeppelin/contracts/token/ERC20/utils/SafeERC20.sol\":4275:4292  returndata.length */\n      mload\n        /* \"@openzeppelin/contracts/token/ERC20/utils/SafeERC20.sol\":4275:4296  returndata.length > 0 */\n      gt\n        /* \"@openzeppelin/contracts/token/ERC20/utils/SafeERC20.sol\":4271:4447  if (returndata.length > 0) {... */\n      iszero\n      tag_442\n      jumpi\n        /* \"@openzeppelin/contracts/token/ERC20/utils/SafeERC20.sol\":4370:4380  returndata */\n      dup1\n        /* \"@openzeppelin/contracts/token/ERC20/utils/SafeERC20.sol\":4359:4389  abi.decode(returndata, (bool)) */\n      dup1\n      0x20\n      add\n      swap1\n      mload\n      dup2\n      add\n      swap1\n      tag_443\n      swap2\n      swap1\n      tag_218\n      jump\t// in\n    tag_443:\n        /* \"@openzeppelin/contracts/token/ERC20/utils/SafeERC20.sol\":4351:4436  require(abi.decode(returndata, (bool)), \"SafeERC20: ERC20 operation did not succeed\") */\n      tag_444\n      jumpi\n      mload(0x40)\n      0x08c379a000000000000000000000000000000000000000000000000000000000\n      dup2\n      mstore\n      0x04\n      add\n      tag_445\n      swap1\n      tag_446\n      jump\t// in\n    tag_445:\n      mload(0x40)\n      dup1\n      swap2\n      sub\n      swap1\n      revert\n    tag_444:\n        /* \"@openzeppelin/contracts/token/ERC20/utils/SafeERC20.sol\":4271:4447  if (returndata.length > 0) {... */\n    tag_442:\n        /* \"@openzeppelin/contracts/token/ERC20/utils/SafeERC20.sol\":3817:4453  {... */\n      pop\n        /* \"@openzeppelin/contracts/token/ERC20/utils/SafeERC20.sol\":3747:4453  function _callOptionalReturn(IERC20 token, bytes memory data) private {... */\n      pop\n      pop\n      jump\t// out\n        /* \"@openzeppelin/contracts/utils/Address.sol\":3861:4084  function functionCall(... */\n    tag_441:\n        /* \"@openzeppelin/contracts/utils/Address.sol\":3994:4006  bytes memory */\n      0x60\n        /* \"@openzeppelin/contracts/utils/Address.sol\":4025:4077  functionCallWithValue(target, data, 0, errorMessage) */\n      tag_448\n        /* \"@openzeppelin/contracts/utils/Address.sol\":4047:4053  target */\n      dup5\n        /* \"@openzeppelin/contracts/utils/Address.sol\":4055:4059  data */\n      dup5\n        /* \"@openzeppelin/contracts/utils/Address.sol\":4061:4062  0 */\n      0x00\n        /* \"@openzeppelin/contracts/utils/Address.sol\":4064:4076  errorMessage */\n      dup6\n        /* \"@openzeppelin/contracts/utils/Address.sol\":4025:4046  functionCallWithValue */\n      tag_449\n        /* \"@openzeppelin/contracts/utils/Address.sol\":4025:4077  functionCallWithValue(target, data, 0, errorMessage) */\n      jump\t// in\n    tag_448:\n        /* \"@openzeppelin/contracts/utils/Address.sol\":4018:4077  return functionCallWithValue(target, data, 0, errorMessage) */\n      swap1\n      pop\n        /* \"@openzeppelin/contracts/utils/Address.sol\":3861:4084  function functionCall(... */\n      swap4\n      swap3\n      pop\n      pop\n      pop\n      jump\t// out\n        /* \"@openzeppelin/contracts/utils/Address.sol\":4948:5447  function functionCallWithValue(... */\n    tag_449:\n        /* \"@openzeppelin/contracts/utils/Address.sol\":5113:5125  bytes memory */\n      0x60\n        /* \"@openzeppelin/contracts/utils/Address.sol\":5170:5175  value */\n      dup3\n        /* \"@openzeppelin/contracts/utils/Address.sol\":5145:5166  address(this).balance */\n      selfbalance\n        /* \"@openzeppelin/contracts/utils/Address.sol\":5145:5175  address(this).balance >= value */\n      lt\n      iszero\n        /* \"@openzeppelin/contracts/utils/Address.sol\":5137:5218  require(address(this).balance >= value, \"Address: insufficient balance for call\") */\n      tag_451\n      jumpi\n      mload(0x40)\n      0x08c379a000000000000000000000000000000000000000000000000000000000\n      dup2\n      mstore\n      0x04\n      add\n      tag_452\n      swap1\n      tag_453\n      jump\t// in\n    tag_452:\n      mload(0x40)\n      dup1\n      swap2\n      sub\n      swap1\n      revert\n    tag_451:\n        /* \"@openzeppelin/contracts/utils/Address.sol\":5236:5254  isContract(target) */\n      tag_454\n        /* \"@openzeppelin/contracts/utils/Address.sol\":5247:5253  target */\n      dup6\n        /* \"@openzeppelin/contracts/utils/Address.sol\":5236:5246  isContract */\n      tag_455\n        /* \"@openzeppelin/contracts/utils/Address.sol\":5236:5254  isContract(target) */\n      jump\t// in\n    tag_454:\n        /* \"@openzeppelin/contracts/utils/Address.sol\":5228:5288  require(isContract(target), \"Address: call to non-contract\") */\n      tag_456\n      jumpi\n      mload(0x40)\n      0x08c379a000000000000000000000000000000000000000000000000000000000\n      dup2\n      mstore\n      0x04\n      add\n      tag_457\n      swap1\n      tag_458\n      jump\t// in\n    tag_457:\n      mload(0x40)\n      dup1\n      swap2\n      sub\n      swap1\n      revert\n    tag_456:\n        /* \"@openzeppelin/contracts/utils/Address.sol\":5300:5312  bool success */\n      0x00\n        /* \"@openzeppelin/contracts/utils/Address.sol\":5314:5337  bytes memory returndata */\n      dup1\n        /* \"@openzeppelin/contracts/utils/Address.sol\":5341:5347  target */\n      dup7\n        /* \"@openzeppelin/contracts/utils/Address.sol\":5341:5352  target.call */\n      0xffffffffffffffffffffffffffffffffffffffff\n      and\n        /* \"@openzeppelin/contracts/utils/Address.sol\":5360:5365  value */\n      dup6\n        /* \"@openzeppelin/contracts/utils/Address.sol\":5367:5371  data */\n      dup8\n        /* \"@openzeppelin/contracts/utils/Address.sol\":5341:5372  target.call{value: value}(data) */\n      mload(0x40)\n      tag_459\n      swap2\n      swap1\n      tag_460\n      jump\t// in\n    tag_459:\n      0x00\n      mload(0x40)\n      dup1\n      dup4\n      sub\n      dup2\n      dup6\n      dup8\n      gas\n      call\n      swap3\n      pop\n      pop\n      pop\n      returndatasize\n      dup1\n      0x00\n      dup2\n      eq\n      tag_463\n      jumpi\n      mload(0x40)\n      swap2\n      pop\n      and(add(returndatasize, 0x3f), not(0x1f))\n      dup3\n      add\n      0x40\n      mstore\n      returndatasize\n      dup3\n      mstore\n      returndatasize\n      0x00\n      0x20\n      dup5\n      add\n      returndatacopy\n      jump(tag_462)\n    tag_463:\n      0x60\n      swap2\n      pop\n    tag_462:\n      pop\n        /* \"@openzeppelin/contracts/utils/Address.sol\":5299:5372  (bool success, bytes memory returndata) = target.call{value: value}(data) */\n      swap2\n      pop\n      swap2\n      pop\n        /* \"@openzeppelin/contracts/utils/Address.sol\":5389:5440  verifyCallResult(success, returndata, errorMessage) */\n      tag_464\n        /* \"@openzeppelin/contracts/utils/Address.sol\":5406:5413  success */\n      dup3\n        /* \"@openzeppelin/contracts/utils/Address.sol\":5415:5425  returndata */\n      dup3\n        /* \"@openzeppelin/contracts/utils/Address.sol\":5427:5439  errorMessage */\n      dup7\n        /* \"@openzeppelin/contracts/utils/Address.sol\":5389:5405  verifyCallResult */\n      tag_465\n        /* \"@openzeppelin/contracts/utils/Address.sol\":5389:5440  verifyCallResult(success, returndata, errorMessage) */\n      jump\t// in\n    tag_464:\n        /* \"@openzeppelin/contracts/utils/Address.sol\":5382:5440  return verifyCallResult(success, returndata, errorMessage) */\n      swap3\n      pop\n      pop\n      pop\n        /* \"@openzeppelin/contracts/utils/Address.sol\":4948:5447  function functionCallWithValue(... */\n      swap5\n      swap4\n      pop\n      pop\n      pop\n      pop\n      jump\t// out\n        /* \"@openzeppelin/contracts/utils/Address.sol\":1175:1495  function isContract(address account) internal view returns (bool) {... */\n    tag_455:\n        /* \"@openzeppelin/contracts/utils/Address.sol\":1235:1239  bool */\n      0x00\n        /* \"@openzeppelin/contracts/utils/Address.sol\":1487:1488  0 */\n      dup1\n        /* \"@openzeppelin/contracts/utils/Address.sol\":1465:1472  account */\n      dup3\n        /* \"@openzeppelin/contracts/utils/Address.sol\":1465:1484  account.code.length */\n      0xffffffffffffffffffffffffffffffffffffffff\n      and\n      extcodesize\n        /* \"@openzeppelin/contracts/utils/Address.sol\":1465:1488  account.code.length > 0 */\n      gt\n        /* \"@openzeppelin/contracts/utils/Address.sol\":1458:1488  return account.code.length > 0 */\n      swap1\n      pop\n        /* \"@openzeppelin/contracts/utils/Address.sol\":1175:1495  function isContract(address account) internal view returns (bool) {... */\n      swap2\n      swap1\n      pop\n      jump\t// out\n        /* \"@openzeppelin/contracts/utils/Address.sol\":7561:8303  function verifyCallResult(... */\n    tag_465:\n        /* \"@openzeppelin/contracts/utils/Address.sol\":7707:7719  bytes memory */\n      0x60\n        /* \"@openzeppelin/contracts/utils/Address.sol\":7735:7742  success */\n      dup4\n        /* \"@openzeppelin/contracts/utils/Address.sol\":7731:8297  if (success) {... */\n      iszero\n      tag_468\n      jumpi\n        /* \"@openzeppelin/contracts/utils/Address.sol\":7765:7775  returndata */\n      dup3\n        /* \"@openzeppelin/contracts/utils/Address.sol\":7758:7775  return returndata */\n      swap1\n      pop\n      jump(tag_467)\n        /* \"@openzeppelin/contracts/utils/Address.sol\":7731:8297  if (success) {... */\n    tag_468:\n        /* \"@openzeppelin/contracts/utils/Address.sol\":7896:7897  0 */\n      0x00\n        /* \"@openzeppelin/contracts/utils/Address.sol\":7876:7886  returndata */\n      dup4\n        /* \"@openzeppelin/contracts/utils/Address.sol\":7876:7893  returndata.length */\n      mload\n        /* \"@openzeppelin/contracts/utils/Address.sol\":7876:7897  returndata.length > 0 */\n      gt\n        /* \"@openzeppelin/contracts/utils/Address.sol\":7872:8287  if (returndata.length > 0) {... */\n      iszero\n      tag_470\n      jumpi\n        /* \"@openzeppelin/contracts/utils/Address.sol\":8120:8130  returndata */\n      dup3\n        /* \"@openzeppelin/contracts/utils/Address.sol\":8114:8131  mload(returndata) */\n      mload\n        /* \"@openzeppelin/contracts/utils/Address.sol\":8180:8195  returndata_size */\n      dup1\n        /* \"@openzeppelin/contracts/utils/Address.sol\":8167:8177  returndata */\n      dup5\n        /* \"@openzeppelin/contracts/utils/Address.sol\":8163:8165  32 */\n      0x20\n        /* \"@openzeppelin/contracts/utils/Address.sol\":8159:8178  add(32, returndata) */\n      add\n        /* \"@openzeppelin/contracts/utils/Address.sol\":8152:8196  revert(add(32, returndata), returndata_size) */\n      revert\n        /* \"@openzeppelin/contracts/utils/Address.sol\":7872:8287  if (returndata.length > 0) {... */\n    tag_470:\n        /* \"@openzeppelin/contracts/utils/Address.sol\":8259:8271  errorMessage */\n      dup2\n        /* \"@openzeppelin/contracts/utils/Address.sol\":8252:8272  revert(errorMessage) */\n      mload(0x40)\n      0x08c379a000000000000000000000000000000000000000000000000000000000\n      dup2\n      mstore\n      0x04\n      add\n      tag_472\n      swap2\n      swap1\n      tag_114\n      jump\t// in\n    tag_472:\n      mload(0x40)\n      dup1\n      swap2\n      sub\n      swap1\n      revert\n        /* \"@openzeppelin/contracts/utils/Address.sol\":7561:8303  function verifyCallResult(... */\n    tag_467:\n      swap4\n      swap3\n      pop\n      pop\n      pop\n      jump\t// out\n        /* \"#utility.yul\":7:82   */\n    tag_473:\n        /* \"#utility.yul\":40:46   */\n      0x00\n        /* \"#utility.yul\":73:75   */\n      0x40\n        /* \"#utility.yul\":67:76   */\n      mload\n        /* \"#utility.yul\":57:76   */\n      swap1\n      pop\n        /* \"#utility.yul\":7:82   */\n      swap1\n      jump\t// out\n        /* \"#utility.yul\":88:205   */\n    tag_474:\n        /* \"#utility.yul\":197:198   */\n      0x00\n        /* \"#utility.yul\":194:195   */\n      dup1\n        /* \"#utility.yul\":187:199   */\n      revert\n        /* \"#utility.yul\":211:328   */\n    tag_475:\n        /* \"#utility.yul\":320:321   */\n      0x00\n        /* \"#utility.yul\":317:318   */\n      dup1\n        /* \"#utility.yul\":310:322   */\n      revert\n        /* \"#utility.yul\":334:411   */\n    tag_476:\n        /* \"#utility.yul\":371:378   */\n      0x00\n        /* \"#utility.yul\":400:405   */\n      dup2\n        /* \"#utility.yul\":389:405   */\n      swap1\n      pop\n        /* \"#utility.yul\":334:411   */\n      swap2\n      swap1\n      pop\n      jump\t// out\n        /* \"#utility.yul\":417:539   */\n    tag_477:\n        /* \"#utility.yul\":490:514   */\n      tag_566\n        /* \"#utility.yul\":508:513   */\n      dup2\n        /* \"#utility.yul\":490:514   */\n      tag_476\n      jump\t// in\n    tag_566:\n        /* \"#utility.yul\":483:488   */\n      dup2\n        /* \"#utility.yul\":480:515   */\n      eq\n        /* \"#utility.yul\":470:533   */\n      tag_567\n      jumpi\n        /* \"#utility.yul\":529:530   */\n      0x00\n        /* \"#utility.yul\":526:527   */\n      dup1\n        /* \"#utility.yul\":519:531   */\n      revert\n        /* \"#utility.yul\":470:533   */\n    tag_567:\n        /* \"#utility.yul\":417:539   */\n      pop\n      jump\t// out\n        /* \"#utility.yul\":545:684   */\n    tag_478:\n        /* \"#utility.yul\":591:596   */\n      0x00\n        /* \"#utility.yul\":629:635   */\n      dup2\n        /* \"#utility.yul\":616:636   */\n      calldataload\n        /* \"#utility.yul\":607:636   */\n      swap1\n      pop\n        /* \"#utility.yul\":645:678   */\n      tag_569\n        /* \"#utility.yul\":672:677   */\n      dup2\n        /* \"#utility.yul\":645:678   */\n      tag_477\n      jump\t// in\n    tag_569:\n        /* \"#utility.yul\":545:684   */\n      swap3\n      swap2\n      pop\n      pop\n      jump\t// out\n        /* \"#utility.yul\":690:816   */\n    tag_479:\n        /* \"#utility.yul\":727:734   */\n      0x00\n        /* \"#utility.yul\":767:809   */\n      0xffffffffffffffffffffffffffffffffffffffff\n        /* \"#utility.yul\":760:765   */\n      dup3\n        /* \"#utility.yul\":756:810   */\n      and\n        /* \"#utility.yul\":745:810   */\n      swap1\n      pop\n        /* \"#utility.yul\":690:816   */\n      swap2\n      swap1\n      pop\n      jump\t// out\n        /* \"#utility.yul\":822:918   */\n    tag_480:\n        /* \"#utility.yul\":859:866   */\n      0x00\n        /* \"#utility.yul\":888:912   */\n      tag_572\n        /* \"#utility.yul\":906:911   */\n      dup3\n        /* \"#utility.yul\":888:912   */\n      tag_479\n      jump\t// in\n    tag_572:\n        /* \"#utility.yul\":877:912   */\n      swap1\n      pop\n        /* \"#utility.yul\":822:918   */\n      swap2\n      swap1\n      pop\n      jump\t// out\n        /* \"#utility.yul\":924:1046   */\n    tag_481:\n        /* \"#utility.yul\":997:1021   */\n      tag_574\n        /* \"#utility.yul\":1015:1020   */\n      dup2\n        /* \"#utility.yul\":997:1021   */\n      tag_480\n      jump\t// in\n    tag_574:\n        /* \"#utility.yul\":990:995   */\n      dup2\n        /* \"#utility.yul\":987:1022   */\n      eq\n        /* \"#utility.yul\":977:1040   */\n      tag_575\n      jumpi\n        /* \"#utility.yul\":1036:1037   */\n      0x00\n        /* \"#utility.yul\":1033:1034   */\n      dup1\n        /* \"#utility.yul\":1026:1038   */\n      revert\n        /* \"#utility.yul\":977:1040   */\n    tag_575:\n        /* \"#utility.yul\":924:1046   */\n      pop\n      jump\t// out\n        /* \"#utility.yul\":1052:1191   */\n    tag_482:\n        /* \"#utility.yul\":1098:1103   */\n      0x00\n        /* \"#utility.yul\":1136:1142   */\n      dup2\n        /* \"#utility.yul\":1123:1143   */\n      calldataload\n        /* \"#utility.yul\":1114:1143   */\n      swap1\n      pop\n        /* \"#utility.yul\":1152:1185   */\n      tag_577\n        /* \"#utility.yul\":1179:1184   */\n      dup2\n        /* \"#utility.yul\":1152:1185   */\n      tag_481\n      jump\t// in\n    tag_577:\n        /* \"#utility.yul\":1052:1191   */\n      swap3\n      swap2\n      pop\n      pop\n      jump\t// out\n        /* \"#utility.yul\":1197:1671   */\n    tag_38:\n        /* \"#utility.yul\":1265:1271   */\n      0x00\n        /* \"#utility.yul\":1273:1279   */\n      dup1\n        /* \"#utility.yul\":1322:1324   */\n      0x40\n        /* \"#utility.yul\":1310:1319   */\n      dup4\n        /* \"#utility.yul\":1301:1308   */\n      dup6\n        /* \"#utility.yul\":1297:1320   */\n      sub\n        /* \"#utility.yul\":1293:1325   */\n      slt\n        /* \"#utility.yul\":1290:1409   */\n      iszero\n      tag_579\n      jumpi\n        /* \"#utility.yul\":1328:1407   */\n      tag_580\n      tag_474\n      jump\t// in\n    tag_580:\n        /* \"#utility.yul\":1290:1409   */\n    tag_579:\n        /* \"#utility.yul\":1448:1449   */\n      0x00\n        /* \"#utility.yul\":1473:1526   */\n      tag_581\n        /* \"#utility.yul\":1518:1525   */\n      dup6\n        /* \"#utility.yul\":1509:1515   */\n      dup3\n        /* \"#utility.yul\":1498:1507   */\n      dup7\n        /* \"#utility.yul\":1494:1516   */\n      add\n        /* \"#utility.yul\":1473:1526   */\n      tag_478\n      jump\t// in\n    tag_581:\n        /* \"#utility.yul\":1463:1526   */\n      swap3\n      pop\n        /* \"#utility.yul\":1419:1536   */\n      pop\n        /* \"#utility.yul\":1575:1577   */\n      0x20\n        /* \"#utility.yul\":1601:1654   */\n      tag_582\n        /* \"#utility.yul\":1646:1653   */\n      dup6\n        /* \"#utility.yul\":1637:1643   */\n      dup3\n        /* \"#utility.yul\":1626:1635   */\n      dup7\n        /* \"#utility.yul\":1622:1644   */\n      add\n        /* \"#utility.yul\":1601:1654   */\n      tag_482\n      jump\t// in\n    tag_582:\n        /* \"#utility.yul\":1591:1654   */\n      swap2\n      pop\n        /* \"#utility.yul\":1546:1664   */\n      pop\n        /* \"#utility.yul\":1197:1671   */\n      swap3\n      pop\n      swap3\n      swap1\n      pop\n      jump\t// out\n        /* \"#utility.yul\":1677:1795   */\n    tag_483:\n        /* \"#utility.yul\":1764:1788   */\n      tag_584\n        /* \"#utility.yul\":1782:1787   */\n      dup2\n        /* \"#utility.yul\":1764:1788   */\n      tag_480\n      jump\t// in\n    tag_584:\n        /* \"#utility.yul\":1759:1762   */\n      dup3\n        /* \"#utility.yul\":1752:1789   */\n      mstore\n        /* \"#utility.yul\":1677:1795   */\n      pop\n      pop\n      jump\t// out\n        /* \"#utility.yul\":1801:2023   */\n    tag_47:\n        /* \"#utility.yul\":1894:1898   */\n      0x00\n        /* \"#utility.yul\":1932:1934   */\n      0x20\n        /* \"#utility.yul\":1921:1930   */\n      dup3\n        /* \"#utility.yul\":1917:1935   */\n      add\n        /* \"#utility.yul\":1909:1935   */\n      swap1\n      pop\n        /* \"#utility.yul\":1945:2016   */\n      tag_586\n        /* \"#utility.yul\":2013:2014   */\n      0x00\n        /* \"#utility.yul\":2002:2011   */\n      dup4\n        /* \"#utility.yul\":1998:2015   */\n      add\n        /* \"#utility.yul\":1989:1995   */\n      dup5\n        /* \"#utility.yul\":1945:2016   */\n      tag_483\n      jump\t// in\n    tag_586:\n        /* \"#utility.yul\":1801:2023   */\n      swap3\n      swap2\n      pop\n      pop\n      jump\t// out\n        /* \"#utility.yul\":2029:2358   */\n    tag_50:\n        /* \"#utility.yul\":2088:2094   */\n      0x00\n        /* \"#utility.yul\":2137:2139   */\n      0x20\n        /* \"#utility.yul\":2125:2134   */\n      dup3\n        /* \"#utility.yul\":2116:2123   */\n      dup5\n        /* \"#utility.yul\":2112:2135   */\n      sub\n        /* \"#utility.yul\":2108:2140   */\n      slt\n        /* \"#utility.yul\":2105:2224   */\n      iszero\n      tag_588\n      jumpi\n        /* \"#utility.yul\":2143:2222   */\n      tag_589\n      tag_474\n      jump\t// in\n    tag_589:\n        /* \"#utility.yul\":2105:2224   */\n    tag_588:\n        /* \"#utility.yul\":2263:2264   */\n      0x00\n        /* \"#utility.yul\":2288:2341   */\n      tag_590\n        /* \"#utility.yul\":2333:2340   */\n      dup5\n        /* \"#utility.yul\":2324:2330   */\n      dup3\n        /* \"#utility.yul\":2313:2322   */\n      dup6\n        /* \"#utility.yul\":2309:2331   */\n      add\n        /* \"#utility.yul\":2288:2341   */\n      tag_482\n      jump\t// in\n    tag_590:\n        /* \"#utility.yul\":2278:2341   */\n      swap2\n      pop\n        /* \"#utility.yul\":2234:2351   */\n      pop\n        /* \"#utility.yul\":2029:2358   */\n      swap3\n      swap2\n      pop\n      pop\n      jump\t// out\n        /* \"#utility.yul\":2364:2482   */\n    tag_484:\n        /* \"#utility.yul\":2451:2475   */\n      tag_592\n        /* \"#utility.yul\":2469:2474   */\n      dup2\n        /* \"#utility.yul\":2451:2475   */\n      tag_476\n      jump\t// in\n    tag_592:\n        /* \"#utility.yul\":2446:2449   */\n      dup3\n        /* \"#utility.yul\":2439:2476   */\n      mstore\n        /* \"#utility.yul\":2364:2482   */\n      pop\n      pop\n      jump\t// out\n        /* \"#utility.yul\":2488:2710   */\n    tag_60:\n        /* \"#utility.yul\":2581:2585   */\n      0x00\n        /* \"#utility.yul\":2619:2621   */\n      0x20\n        /* \"#utility.yul\":2608:2617   */\n      dup3\n        /* \"#utility.yul\":2604:2622   */\n      add\n        /* \"#utility.yul\":2596:2622   */\n      swap1\n      pop\n        /* \"#utility.yul\":2632:2703   */\n      tag_594\n        /* \"#utility.yul\":2700:2701   */\n      0x00\n        /* \"#utility.yul\":2689:2698   */\n      dup4\n        /* \"#utility.yul\":2685:2702   */\n      add\n        /* \"#utility.yul\":2676:2682   */\n      dup5\n        /* \"#utility.yul\":2632:2703   */\n      tag_484\n      jump\t// in\n    tag_594:\n        /* \"#utility.yul\":2488:2710   */\n      swap3\n      swap2\n      pop\n      pop\n      jump\t// out\n        /* \"#utility.yul\":2716:2806   */\n    tag_485:\n        /* \"#utility.yul\":2750:2757   */\n      0x00\n        /* \"#utility.yul\":2793:2798   */\n      dup2\n        /* \"#utility.yul\":2786:2799   */\n      iszero\n        /* \"#utility.yul\":2779:2800   */\n      iszero\n        /* \"#utility.yul\":2768:2800   */\n      swap1\n      pop\n        /* \"#utility.yul\":2716:2806   */\n      swap2\n      swap1\n      pop\n      jump\t// out\n        /* \"#utility.yul\":2812:2921   */\n    tag_486:\n        /* \"#utility.yul\":2893:2914   */\n      tag_597\n        /* \"#utility.yul\":2908:2913   */\n      dup2\n        /* \"#utility.yul\":2893:2914   */\n      tag_485\n      jump\t// in\n    tag_597:\n        /* \"#utility.yul\":2888:2891   */\n      dup3\n        /* \"#utility.yul\":2881:2915   */\n      mstore\n        /* \"#utility.yul\":2812:2921   */\n      pop\n      pop\n      jump\t// out\n        /* \"#utility.yul\":2927:3137   */\n    tag_66:\n        /* \"#utility.yul\":3014:3018   */\n      0x00\n        /* \"#utility.yul\":3052:3054   */\n      0x20\n        /* \"#utility.yul\":3041:3050   */\n      dup3\n        /* \"#utility.yul\":3037:3055   */\n      add\n        /* \"#utility.yul\":3029:3055   */\n      swap1\n      pop\n        /* \"#utility.yul\":3065:3130   */\n      tag_599\n        /* \"#utility.yul\":3127:3128   */\n      0x00\n        /* \"#utility.yul\":3116:3125   */\n      dup4\n        /* \"#utility.yul\":3112:3129   */\n      add\n        /* \"#utility.yul\":3103:3109   */\n      dup5\n        /* \"#utility.yul\":3065:3130   */\n      tag_486\n      jump\t// in\n    tag_599:\n        /* \"#utility.yul\":2927:3137   */\n      swap3\n      swap2\n      pop\n      pop\n      jump\t// out\n        /* \"#utility.yul\":3143:3762   */\n    tag_69:\n        /* \"#utility.yul\":3220:3226   */\n      0x00\n        /* \"#utility.yul\":3228:3234   */\n      dup1\n        /* \"#utility.yul\":3236:3242   */\n      0x00\n        /* \"#utility.yul\":3285:3287   */\n      0x60\n        /* \"#utility.yul\":3273:3282   */\n      dup5\n        /* \"#utility.yul\":3264:3271   */\n      dup7\n        /* \"#utility.yul\":3260:3283   */\n      sub\n        /* \"#utility.yul\":3256:3288   */\n      slt\n        /* \"#utility.yul\":3253:3372   */\n      iszero\n      tag_601\n      jumpi\n        /* \"#utility.yul\":3291:3370   */\n      tag_602\n      tag_474\n      jump\t// in\n    tag_602:\n        /* \"#utility.yul\":3253:3372   */\n    tag_601:\n        /* \"#utility.yul\":3411:3412   */\n      0x00\n        /* \"#utility.yul\":3436:3489   */\n      tag_603\n        /* \"#utility.yul\":3481:3488   */\n      dup7\n        /* \"#utility.yul\":3472:3478   */\n      dup3\n        /* \"#utility.yul\":3461:3470   */\n      dup8\n        /* \"#utility.yul\":3457:3479   */\n      add\n        /* \"#utility.yul\":3436:3489   */\n      tag_482\n      jump\t// in\n    tag_603:\n        /* \"#utility.yul\":3426:3489   */\n      swap4\n      pop\n        /* \"#utility.yul\":3382:3499   */\n      pop\n        /* \"#utility.yul\":3538:3540   */\n      0x20\n        /* \"#utility.yul\":3564:3617   */\n      tag_604\n        /* \"#utility.yul\":3609:3616   */\n      dup7\n        /* \"#utility.yul\":3600:3606   */\n      dup3\n        /* \"#utility.yul\":3589:3598   */\n      dup8\n        /* \"#utility.yul\":3585:3607   */\n      add\n        /* \"#utility.yul\":3564:3617   */\n      tag_482\n      jump\t// in\n    tag_604:\n        /* \"#utility.yul\":3554:3617   */\n      swap3\n      pop\n        /* \"#utility.yul\":3509:3627   */\n      pop\n        /* \"#utility.yul\":3666:3668   */\n      0x40\n        /* \"#utility.yul\":3692:3745   */\n      tag_605\n        /* \"#utility.yul\":3737:3744   */\n      dup7\n        /* \"#utility.yul\":3728:3734   */\n      dup3\n        /* \"#utility.yul\":3717:3726   */\n      dup8\n        /* \"#utility.yul\":3713:3735   */\n      add\n        /* \"#utility.yul\":3692:3745   */\n      tag_478\n      jump\t// in\n    tag_605:\n        /* \"#utility.yul\":3682:3745   */\n      swap2\n      pop\n        /* \"#utility.yul\":3637:3755   */\n      pop\n        /* \"#utility.yul\":3143:3762   */\n      swap3\n      pop\n      swap3\n      pop\n      swap3\n      jump\t// out\n        /* \"#utility.yul\":3768:4387   */\n    tag_79:\n        /* \"#utility.yul\":3845:3851   */\n      0x00\n        /* \"#utility.yul\":3853:3859   */\n      dup1\n        /* \"#utility.yul\":3861:3867   */\n      0x00\n        /* \"#utility.yul\":3910:3912   */\n      0x60\n        /* \"#utility.yul\":3898:3907   */\n      dup5\n        /* \"#utility.yul\":3889:3896   */\n      dup7\n        /* \"#utility.yul\":3885:3908   */\n      sub\n        /* \"#utility.yul\":3881:3913   */\n      slt\n        /* \"#utility.yul\":3878:3997   */\n      iszero\n      tag_607\n      jumpi\n        /* \"#utility.yul\":3916:3995   */\n      tag_608\n      tag_474\n      jump\t// in\n    tag_608:\n        /* \"#utility.yul\":3878:3997   */\n    tag_607:\n        /* \"#utility.yul\":4036:4037   */\n      0x00\n        /* \"#utility.yul\":4061:4114   */\n      tag_609\n        /* \"#utility.yul\":4106:4113   */\n      dup7\n        /* \"#utility.yul\":4097:4103   */\n      dup3\n        /* \"#utility.yul\":4086:4095   */\n      dup8\n        /* \"#utility.yul\":4082:4104   */\n      add\n        /* \"#utility.yul\":4061:4114   */\n      tag_478\n      jump\t// in\n    tag_609:\n        /* \"#utility.yul\":4051:4114   */\n      swap4\n      pop\n        /* \"#utility.yul\":4007:4124   */\n      pop\n        /* \"#utility.yul\":4163:4165   */\n      0x20\n        /* \"#utility.yul\":4189:4242   */\n      tag_610\n        /* \"#utility.yul\":4234:4241   */\n      dup7\n        /* \"#utility.yul\":4225:4231   */\n      dup3\n        /* \"#utility.yul\":4214:4223   */\n      dup8\n        /* \"#utility.yul\":4210:4232   */\n      add\n        /* \"#utility.yul\":4189:4242   */\n      tag_478\n      jump\t// in\n    tag_610:\n        /* \"#utility.yul\":4179:4242   */\n      swap3\n      pop\n        /* \"#utility.yul\":4134:4252   */\n      pop\n        /* \"#utility.yul\":4291:4293   */\n      0x40\n        /* \"#utility.yul\":4317:4370   */\n      tag_611\n        /* \"#utility.yul\":4362:4369   */\n      dup7\n        /* \"#utility.yul\":4353:4359   */\n      dup3\n        /* \"#utility.yul\":4342:4351   */\n      dup8\n        /* \"#utility.yul\":4338:4360   */\n      add\n        /* \"#utility.yul\":4317:4370   */\n      tag_478\n      jump\t// in\n    tag_611:\n        /* \"#utility.yul\":4307:4370   */\n      swap2\n      pop\n        /* \"#utility.yul\":4262:4380   */\n      pop\n        /* \"#utility.yul\":3768:4387   */\n      swap3\n      pop\n      swap3\n      pop\n      swap3\n      jump\t// out\n        /* \"#utility.yul\":4393:4492   */\n    tag_487:\n        /* \"#utility.yul\":4445:4451   */\n      0x00\n        /* \"#utility.yul\":4479:4484   */\n      dup2\n        /* \"#utility.yul\":4473:4485   */\n      mload\n        /* \"#utility.yul\":4463:4485   */\n      swap1\n      pop\n        /* \"#utility.yul\":4393:4492   */\n      swap2\n      swap1\n      pop\n      jump\t// out\n        /* \"#utility.yul\":4498:4667   */\n    tag_488:\n        /* \"#utility.yul\":4582:4593   */\n      0x00\n        /* \"#utility.yul\":4616:4622   */\n      dup3\n        /* \"#utility.yul\":4611:4614   */\n      dup3\n        /* \"#utility.yul\":4604:4623   */\n      mstore\n        /* \"#utility.yul\":4656:4660   */\n      0x20\n        /* \"#utility.yul\":4651:4654   */\n      dup3\n        /* \"#utility.yul\":4647:4661   */\n      add\n        /* \"#utility.yul\":4632:4661   */\n      swap1\n      pop\n        /* \"#utility.yul\":4498:4667   */\n      swap3\n      swap2\n      pop\n      pop\n      jump\t// out\n        /* \"#utility.yul\":4673:4919   */\n    tag_489:\n        /* \"#utility.yul\":4754:4755   */\n      0x00\n        /* \"#utility.yul\":4764:4877   */\n    tag_615:\n        /* \"#utility.yul\":4778:4784   */\n      dup4\n        /* \"#utility.yul\":4775:4776   */\n      dup2\n        /* \"#utility.yul\":4772:4785   */\n      lt\n        /* \"#utility.yul\":4764:4877   */\n      iszero\n      tag_617\n      jumpi\n        /* \"#utility.yul\":4863:4864   */\n      dup1\n        /* \"#utility.yul\":4858:4861   */\n      dup3\n        /* \"#utility.yul\":4854:4865   */\n      add\n        /* \"#utility.yul\":4848:4866   */\n      mload\n        /* \"#utility.yul\":4844:4845   */\n      dup2\n        /* \"#utility.yul\":4839:4842   */\n      dup5\n        /* \"#utility.yul\":4835:4846   */\n      add\n        /* \"#utility.yul\":4828:4867   */\n      mstore\n        /* \"#utility.yul\":4800:4802   */\n      0x20\n        /* \"#utility.yul\":4797:4798   */\n      dup2\n        /* \"#utility.yul\":4793:4803   */\n      add\n        /* \"#utility.yul\":4788:4803   */\n      swap1\n      pop\n        /* \"#utility.yul\":4764:4877   */\n      jump(tag_615)\n    tag_617:\n        /* \"#utility.yul\":4911:4912   */\n      0x00\n        /* \"#utility.yul\":4902:4908   */\n      dup5\n        /* \"#utility.yul\":4897:4900   */\n      dup5\n        /* \"#utility.yul\":4893:4909   */\n      add\n        /* \"#utility.yul\":4886:4913   */\n      mstore\n        /* \"#utility.yul\":4735:4919   */\n      pop\n        /* \"#utility.yul\":4673:4919   */\n      pop\n      pop\n      pop\n      jump\t// out\n        /* \"#utility.yul\":4925:5027   */\n    tag_490:\n        /* \"#utility.yul\":4966:4972   */\n      0x00\n        /* \"#utility.yul\":5017:5019   */\n      0x1f\n        /* \"#utility.yul\":5013:5020   */\n      not\n        /* \"#utility.yul\":5008:5010   */\n      0x1f\n        /* \"#utility.yul\":5001:5006   */\n      dup4\n        /* \"#utility.yul\":4997:5011   */\n      add\n        /* \"#utility.yul\":4993:5021   */\n      and\n        /* \"#utility.yul\":4983:5021   */\n      swap1\n      pop\n        /* \"#utility.yul\":4925:5027   */\n      swap2\n      swap1\n      pop\n      jump\t// out\n        /* \"#utility.yul\":5033:5410   */\n    tag_491:\n        /* \"#utility.yul\":5121:5124   */\n      0x00\n        /* \"#utility.yul\":5149:5188   */\n      tag_620\n        /* \"#utility.yul\":5182:5187   */\n      dup3\n        /* \"#utility.yul\":5149:5188   */\n      tag_487\n      jump\t// in\n    tag_620:\n        /* \"#utility.yul\":5204:5275   */\n      tag_621\n        /* \"#utility.yul\":5268:5274   */\n      dup2\n        /* \"#utility.yul\":5263:5266   */\n      dup6\n        /* \"#utility.yul\":5204:5275   */\n      tag_488\n      jump\t// in\n    tag_621:\n        /* \"#utility.yul\":5197:5275   */\n      swap4\n      pop\n        /* \"#utility.yul\":5284:5349   */\n      tag_622\n        /* \"#utility.yul\":5342:5348   */\n      dup2\n        /* \"#utility.yul\":5337:5340   */\n      dup6\n        /* \"#utility.yul\":5330:5334   */\n      0x20\n        /* \"#utility.yul\":5323:5328   */\n      dup7\n        /* \"#utility.yul\":5319:5335   */\n      add\n        /* \"#utility.yul\":5284:5349   */\n      tag_489\n      jump\t// in\n    tag_622:\n        /* \"#utility.yul\":5374:5403   */\n      tag_623\n        /* \"#utility.yul\":5396:5402   */\n      dup2\n        /* \"#utility.yul\":5374:5403   */\n      tag_490\n      jump\t// in\n    tag_623:\n        /* \"#utility.yul\":5369:5372   */\n      dup5\n        /* \"#utility.yul\":5365:5404   */\n      add\n        /* \"#utility.yul\":5358:5404   */\n      swap2\n      pop\n        /* \"#utility.yul\":5125:5410   */\n      pop\n        /* \"#utility.yul\":5033:5410   */\n      swap3\n      swap2\n      pop\n      pop\n      jump\t// out\n        /* \"#utility.yul\":5416:5839   */\n    tag_100:\n        /* \"#utility.yul\":5557:5561   */\n      0x00\n        /* \"#utility.yul\":5595:5597   */\n      0x40\n        /* \"#utility.yul\":5584:5593   */\n      dup3\n        /* \"#utility.yul\":5580:5598   */\n      add\n        /* \"#utility.yul\":5572:5598   */\n      swap1\n      pop\n        /* \"#utility.yul\":5608:5679   */\n      tag_625\n        /* \"#utility.yul\":5676:5677   */\n      0x00\n        /* \"#utility.yul\":5665:5674   */\n      dup4\n        /* \"#utility.yul\":5661:5678   */\n      add\n        /* \"#utility.yul\":5652:5658   */\n      dup6\n        /* \"#utility.yul\":5608:5679   */\n      tag_483\n      jump\t// in\n    tag_625:\n        /* \"#utility.yul\":5726:5735   */\n      dup2\n        /* \"#utility.yul\":5720:5724   */\n      dup2\n        /* \"#utility.yul\":5716:5736   */\n      sub\n        /* \"#utility.yul\":5711:5713   */\n      0x20\n        /* \"#utility.yul\":5700:5709   */\n      dup4\n        /* \"#utility.yul\":5696:5714   */\n      add\n        /* \"#utility.yul\":5689:5737   */\n      mstore\n        /* \"#utility.yul\":5754:5832   */\n      tag_626\n        /* \"#utility.yul\":5827:5831   */\n      dup2\n        /* \"#utility.yul\":5818:5824   */\n      dup5\n        /* \"#utility.yul\":5754:5832   */\n      tag_491\n      jump\t// in\n    tag_626:\n        /* \"#utility.yul\":5746:5832   */\n      swap1\n      pop\n        /* \"#utility.yul\":5416:5839   */\n      swap4\n      swap3\n      pop\n      pop\n      pop\n      jump\t// out\n        /* \"#utility.yul\":5845:6158   */\n    tag_114:\n        /* \"#utility.yul\":5958:5962   */\n      0x00\n        /* \"#utility.yul\":5996:5998   */\n      0x20\n        /* \"#utility.yul\":5985:5994   */\n      dup3\n        /* \"#utility.yul\":5981:5999   */\n      add\n        /* \"#utility.yul\":5973:5999   */\n      swap1\n      pop\n        /* \"#utility.yul\":6045:6054   */\n      dup2\n        /* \"#utility.yul\":6039:6043   */\n      dup2\n        /* \"#utility.yul\":6035:6055   */\n      sub\n        /* \"#utility.yul\":6031:6032   */\n      0x00\n        /* \"#utility.yul\":6020:6029   */\n      dup4\n        /* \"#utility.yul\":6016:6033   */\n      add\n        /* \"#utility.yul\":6009:6056   */\n      mstore\n        /* \"#utility.yul\":6073:6151   */\n      tag_628\n        /* \"#utility.yul\":6146:6150   */\n      dup2\n        /* \"#utility.yul\":6137:6143   */\n      dup5\n        /* \"#utility.yul\":6073:6151   */\n      tag_491\n      jump\t// in\n    tag_628:\n        /* \"#utility.yul\":6065:6151   */\n      swap1\n      pop\n        /* \"#utility.yul\":5845:6158   */\n      swap3\n      swap2\n      pop\n      pop\n      jump\t// out\n        /* \"#utility.yul\":6164:6493   */\n    tag_119:\n        /* \"#utility.yul\":6223:6229   */\n      0x00\n        /* \"#utility.yul\":6272:6274   */\n      0x20\n        /* \"#utility.yul\":6260:6269   */\n      dup3\n        /* \"#utility.yul\":6251:6258   */\n      dup5\n        /* \"#utility.yul\":6247:6270   */\n      sub\n        /* \"#utility.yul\":6243:6275   */\n      slt\n        /* \"#utility.yul\":6240:6359   */\n      iszero\n      tag_630\n      jumpi\n        /* \"#utility.yul\":6278:6357   */\n      tag_631\n      tag_474\n      jump\t// in\n    tag_631:\n        /* \"#utility.yul\":6240:6359   */\n    tag_630:\n        /* \"#utility.yul\":6398:6399   */\n      0x00\n        /* \"#utility.yul\":6423:6476   */\n      tag_632\n        /* \"#utility.yul\":6468:6475   */\n      dup5\n        /* \"#utility.yul\":6459:6465   */\n      dup3\n        /* \"#utility.yul\":6448:6457   */\n      dup6\n        /* \"#utility.yul\":6444:6466   */\n      add\n        /* \"#utility.yul\":6423:6476   */\n      tag_478\n      jump\t// in\n    tag_632:\n        /* \"#utility.yul\":6413:6476   */\n      swap2\n      pop\n        /* \"#utility.yul\":6369:6486   */\n      pop\n        /* \"#utility.yul\":6164:6493   */\n      swap3\n      swap2\n      pop\n      pop\n      jump\t// out\n        /* \"#utility.yul\":6499:6663   */\n    tag_492:\n        /* \"#utility.yul\":6639:6655   */\n      0x4e6f742061637469766174656421000000000000000000000000000000000000\n        /* \"#utility.yul\":6635:6636   */\n      0x00\n        /* \"#utility.yul\":6627:6633   */\n      dup3\n        /* \"#utility.yul\":6623:6637   */\n      add\n        /* \"#utility.yul\":6616:6656   */\n      mstore\n        /* \"#utility.yul\":6499:6663   */\n      pop\n      jump\t// out\n        /* \"#utility.yul\":6669:7035   */\n    tag_493:\n        /* \"#utility.yul\":6811:6814   */\n      0x00\n        /* \"#utility.yul\":6832:6899   */\n      tag_635\n        /* \"#utility.yul\":6896:6898   */\n      0x0e\n        /* \"#utility.yul\":6891:6894   */\n      dup4\n        /* \"#utility.yul\":6832:6899   */\n      tag_488\n      jump\t// in\n    tag_635:\n        /* \"#utility.yul\":6825:6899   */\n      swap2\n      pop\n        /* \"#utility.yul\":6908:7001   */\n      tag_636\n        /* \"#utility.yul\":6997:7000   */\n      dup3\n        /* \"#utility.yul\":6908:7001   */\n      tag_492\n      jump\t// in\n    tag_636:\n        /* \"#utility.yul\":7026:7028   */\n      0x20\n        /* \"#utility.yul\":7021:7024   */\n      dup3\n        /* \"#utility.yul\":7017:7029   */\n      add\n        /* \"#utility.yul\":7010:7029   */\n      swap1\n      pop\n        /* \"#utility.yul\":6669:7035   */\n      swap2\n      swap1\n      pop\n      jump\t// out\n        /* \"#utility.yul\":7041:7460   */\n    tag_131:\n        /* \"#utility.yul\":7207:7211   */\n      0x00\n        /* \"#utility.yul\":7245:7247   */\n      0x20\n        /* \"#utility.yul\":7234:7243   */\n      dup3\n        /* \"#utility.yul\":7230:7248   */\n      add\n        /* \"#utility.yul\":7222:7248   */\n      swap1\n      pop\n        /* \"#utility.yul\":7294:7303   */\n      dup2\n        /* \"#utility.yul\":7288:7292   */\n      dup2\n        /* \"#utility.yul\":7284:7304   */\n      sub\n        /* \"#utility.yul\":7280:7281   */\n      0x00\n        /* \"#utility.yul\":7269:7278   */\n      dup4\n        /* \"#utility.yul\":7265:7282   */\n      add\n        /* \"#utility.yul\":7258:7305   */\n      mstore\n        /* \"#utility.yul\":7322:7453   */\n      tag_638\n        /* \"#utility.yul\":7448:7452   */\n      dup2\n        /* \"#utility.yul\":7322:7453   */\n      tag_493\n      jump\t// in\n    tag_638:\n        /* \"#utility.yul\":7314:7453   */\n      swap1\n      pop\n        /* \"#utility.yul\":7041:7460   */\n      swap2\n      swap1\n      pop\n      jump\t// out\n        /* \"#utility.yul\":7466:7717   */\n    tag_494:\n        /* \"#utility.yul\":7606:7640   */\n      0x4e6f7420656e6f75676820706f696e74732e2054686520636f6e747261637420\n        /* \"#utility.yul\":7602:7603   */\n      0x00\n        /* \"#utility.yul\":7594:7600   */\n      dup3\n        /* \"#utility.yul\":7590:7604   */\n      add\n        /* \"#utility.yul\":7583:7641   */\n      mstore\n        /* \"#utility.yul\":7675:7709   */\n      0x6d75737420626520636861726765642077697468206d6f726520746f6b656e73\n        /* \"#utility.yul\":7670:7672   */\n      0x20\n        /* \"#utility.yul\":7662:7668   */\n      dup3\n        /* \"#utility.yul\":7658:7673   */\n      add\n        /* \"#utility.yul\":7651:7710   */\n      mstore\n        /* \"#utility.yul\":7466:7717   */\n      pop\n      jump\t// out\n        /* \"#utility.yul\":7723:8089   */\n    tag_495:\n        /* \"#utility.yul\":7865:7868   */\n      0x00\n        /* \"#utility.yul\":7886:7953   */\n      tag_641\n        /* \"#utility.yul\":7950:7952   */\n      0x40\n        /* \"#utility.yul\":7945:7948   */\n      dup4\n        /* \"#utility.yul\":7886:7953   */\n      tag_488\n      jump\t// in\n    tag_641:\n        /* \"#utility.yul\":7879:7953   */\n      swap2\n      pop\n        /* \"#utility.yul\":7962:8055   */\n      tag_642\n        /* \"#utility.yul\":8051:8054   */\n      dup3\n        /* \"#utility.yul\":7962:8055   */\n      tag_494\n      jump\t// in\n    tag_642:\n        /* \"#utility.yul\":8080:8082   */\n      0x40\n        /* \"#utility.yul\":8075:8078   */\n      dup3\n        /* \"#utility.yul\":8071:8083   */\n      add\n        /* \"#utility.yul\":8064:8083   */\n      swap1\n      pop\n        /* \"#utility.yul\":7723:8089   */\n      swap2\n      swap1\n      pop\n      jump\t// out\n        /* \"#utility.yul\":8095:8514   */\n    tag_135:\n        /* \"#utility.yul\":8261:8265   */\n      0x00\n        /* \"#utility.yul\":8299:8301   */\n      0x20\n        /* \"#utility.yul\":8288:8297   */\n      dup3\n        /* \"#utility.yul\":8284:8302   */\n      add\n        /* \"#utility.yul\":8276:8302   */\n      swap1\n      pop\n        /* \"#utility.yul\":8348:8357   */\n      dup2\n        /* \"#utility.yul\":8342:8346   */\n      dup2\n        /* \"#utility.yul\":8338:8358   */\n      sub\n        /* \"#utility.yul\":8334:8335   */\n      0x00\n        /* \"#utility.yul\":8323:8332   */\n      dup4\n        /* \"#utility.yul\":8319:8336   */\n      add\n        /* \"#utility.yul\":8312:8359   */\n      mstore\n        /* \"#utility.yul\":8376:8507   */\n      tag_644\n        /* \"#utility.yul\":8502:8506   */\n      dup2\n        /* \"#utility.yul\":8376:8507   */\n      tag_495\n      jump\t// in\n    tag_644:\n        /* \"#utility.yul\":8368:8507   */\n      swap1\n      pop\n        /* \"#utility.yul\":8095:8514   */\n      swap2\n      swap1\n      pop\n      jump\t// out\n        /* \"#utility.yul\":8520:8745   */\n    tag_496:\n        /* \"#utility.yul\":8660:8694   */\n      0x57697468647261772076616c7565206d75737420626520677265617465722074\n        /* \"#utility.yul\":8656:8657   */\n      0x00\n        /* \"#utility.yul\":8648:8654   */\n      dup3\n        /* \"#utility.yul\":8644:8658   */\n      add\n        /* \"#utility.yul\":8637:8695   */\n      mstore\n        /* \"#utility.yul\":8729:8737   */\n      0x68616e2030210000000000000000000000000000000000000000000000000000\n        /* \"#utility.yul\":8724:8726   */\n      0x20\n        /* \"#utility.yul\":8716:8722   */\n      dup3\n        /* \"#utility.yul\":8712:8727   */\n      add\n        /* \"#utility.yul\":8705:8738   */\n      mstore\n        /* \"#utility.yul\":8520:8745   */\n      pop\n      jump\t// out\n        /* \"#utility.yul\":8751:9117   */\n    tag_497:\n        /* \"#utility.yul\":8893:8896   */\n      0x00\n        /* \"#utility.yul\":8914:8981   */\n      tag_647\n        /* \"#utility.yul\":8978:8980   */\n      0x26\n        /* \"#utility.yul\":8973:8976   */\n      dup4\n        /* \"#utility.yul\":8914:8981   */\n      tag_488\n      jump\t// in\n    tag_647:\n        /* \"#utility.yul\":8907:8981   */\n      swap2\n      pop\n        /* \"#utility.yul\":8990:9083   */\n      tag_648\n        /* \"#utility.yul\":9079:9082   */\n      dup3\n        /* \"#utility.yul\":8990:9083   */\n      tag_496\n      jump\t// in\n    tag_648:\n        /* \"#utility.yul\":9108:9110   */\n      0x40\n        /* \"#utility.yul\":9103:9106   */\n      dup3\n        /* \"#utility.yul\":9099:9111   */\n      add\n        /* \"#utility.yul\":9092:9111   */\n      swap1\n      pop\n        /* \"#utility.yul\":8751:9117   */\n      swap2\n      swap1\n      pop\n      jump\t// out\n        /* \"#utility.yul\":9123:9542   */\n    tag_138:\n        /* \"#utility.yul\":9289:9293   */\n      0x00\n        /* \"#utility.yul\":9327:9329   */\n      0x20\n        /* \"#utility.yul\":9316:9325   */\n      dup3\n        /* \"#utility.yul\":9312:9330   */\n      add\n        /* \"#utility.yul\":9304:9330   */\n      swap1\n      pop\n        /* \"#utility.yul\":9376:9385   */\n      dup2\n        /* \"#utility.yul\":9370:9374   */\n      dup2\n        /* \"#utility.yul\":9366:9386   */\n      sub\n        /* \"#utility.yul\":9362:9363   */\n      0x00\n        /* \"#utility.yul\":9351:9360   */\n      dup4\n        /* \"#utility.yul\":9347:9364   */\n      add\n        /* \"#utility.yul\":9340:9387   */\n      mstore\n        /* \"#utility.yul\":9404:9535   */\n      tag_650\n        /* \"#utility.yul\":9530:9534   */\n      dup2\n        /* \"#utility.yul\":9404:9535   */\n      tag_497\n      jump\t// in\n    tag_650:\n        /* \"#utility.yul\":9396:9535   */\n      swap1\n      pop\n        /* \"#utility.yul\":9123:9542   */\n      swap2\n      swap1\n      pop\n      jump\t// out\n        /* \"#utility.yul\":9548:9728   */\n    tag_498:\n        /* \"#utility.yul\":9596:9673   */\n      0x4e487b7100000000000000000000000000000000000000000000000000000000\n        /* \"#utility.yul\":9593:9594   */\n      0x00\n        /* \"#utility.yul\":9586:9674   */\n      mstore\n        /* \"#utility.yul\":9693:9697   */\n      0x11\n        /* \"#utility.yul\":9690:9691   */\n      0x04\n        /* \"#utility.yul\":9683:9698   */\n      mstore\n        /* \"#utility.yul\":9717:9721   */\n      0x24\n        /* \"#utility.yul\":9714:9715   */\n      0x00\n        /* \"#utility.yul\":9707:9722   */\n      revert\n        /* \"#utility.yul\":9734:9928   */\n    tag_141:\n        /* \"#utility.yul\":9774:9778   */\n      0x00\n        /* \"#utility.yul\":9794:9814   */\n      tag_653\n        /* \"#utility.yul\":9812:9813   */\n      dup3\n        /* \"#utility.yul\":9794:9814   */\n      tag_476\n      jump\t// in\n    tag_653:\n        /* \"#utility.yul\":9789:9814   */\n      swap2\n      pop\n        /* \"#utility.yul\":9828:9848   */\n      tag_654\n        /* \"#utility.yul\":9846:9847   */\n      dup4\n        /* \"#utility.yul\":9828:9848   */\n      tag_476\n      jump\t// in\n    tag_654:\n        /* \"#utility.yul\":9823:9848   */\n      swap3\n      pop\n        /* \"#utility.yul\":9872:9873   */\n      dup3\n        /* \"#utility.yul\":9869:9870   */\n      dup3\n        /* \"#utility.yul\":9865:9874   */\n      sub\n        /* \"#utility.yul\":9857:9874   */\n      swap1\n      pop\n        /* \"#utility.yul\":9896:9897   */\n      dup2\n        /* \"#utility.yul\":9890:9894   */\n      dup2\n        /* \"#utility.yul\":9887:9898   */\n      gt\n        /* \"#utility.yul\":9884:9921   */\n      iszero\n      tag_655\n      jumpi\n        /* \"#utility.yul\":9901:9919   */\n      tag_656\n      tag_498\n      jump\t// in\n    tag_656:\n        /* \"#utility.yul\":9884:9921   */\n    tag_655:\n        /* \"#utility.yul\":9734:9928   */\n      swap3\n      swap2\n      pop\n      pop\n      jump\t// out\n        /* \"#utility.yul\":9934:10099   */\n    tag_499:\n        /* \"#utility.yul\":10074:10091   */\n      0x4e6f7420417574686f72697a6564210000000000000000000000000000000000\n        /* \"#utility.yul\":10070:10071   */\n      0x00\n        /* \"#utility.yul\":10062:10068   */\n      dup3\n        /* \"#utility.yul\":10058:10072   */\n      add\n        /* \"#utility.yul\":10051:10092   */\n      mstore\n        /* \"#utility.yul\":9934:10099   */\n      pop\n      jump\t// out\n        /* \"#utility.yul\":10105:10471   */\n    tag_500:\n        /* \"#utility.yul\":10247:10250   */\n      0x00\n        /* \"#utility.yul\":10268:10335   */\n      tag_659\n        /* \"#utility.yul\":10332:10334   */\n      0x0f\n        /* \"#utility.yul\":10327:10330   */\n      dup4\n        /* \"#utility.yul\":10268:10335   */\n      tag_488\n      jump\t// in\n    tag_659:\n        /* \"#utility.yul\":10261:10335   */\n      swap2\n      pop\n        /* \"#utility.yul\":10344:10437   */\n      tag_660\n        /* \"#utility.yul\":10433:10436   */\n      dup3\n        /* \"#utility.yul\":10344:10437   */\n      tag_499\n      jump\t// in\n    tag_660:\n        /* \"#utility.yul\":10462:10464   */\n      0x20\n        /* \"#utility.yul\":10457:10460   */\n      dup3\n        /* \"#utility.yul\":10453:10465   */\n      add\n        /* \"#utility.yul\":10446:10465   */\n      swap1\n      pop\n        /* \"#utility.yul\":10105:10471   */\n      swap2\n      swap1\n      pop\n      jump\t// out\n        /* \"#utility.yul\":10477:10896   */\n    tag_172:\n        /* \"#utility.yul\":10643:10647   */\n      0x00\n        /* \"#utility.yul\":10681:10683   */\n      0x20\n        /* \"#utility.yul\":10670:10679   */\n      dup3\n        /* \"#utility.yul\":10666:10684   */\n      add\n        /* \"#utility.yul\":10658:10684   */\n      swap1\n      pop\n        /* \"#utility.yul\":10730:10739   */\n      dup2\n        /* \"#utility.yul\":10724:10728   */\n      dup2\n        /* \"#utility.yul\":10720:10740   */\n      sub\n        /* \"#utility.yul\":10716:10717   */\n      0x00\n        /* \"#utility.yul\":10705:10714   */\n      dup4\n        /* \"#utility.yul\":10701:10718   */\n      add\n        /* \"#utility.yul\":10694:10741   */\n      mstore\n        /* \"#utility.yul\":10758:10889   */\n      tag_662\n        /* \"#utility.yul\":10884:10888   */\n      dup2\n        /* \"#utility.yul\":10758:10889   */\n      tag_500\n      jump\t// in\n    tag_662:\n        /* \"#utility.yul\":10750:10889   */\n      swap1\n      pop\n        /* \"#utility.yul\":10477:10896   */\n      swap2\n      swap1\n      pop\n      jump\t// out\n        /* \"#utility.yul\":10902:11075   */\n    tag_501:\n        /* \"#utility.yul\":11042:11067   */\n      0x41637469766174696f6e206e6f7420616c6c6f77656421000000000000000000\n        /* \"#utility.yul\":11038:11039   */\n      0x00\n        /* \"#utility.yul\":11030:11036   */\n      dup3\n        /* \"#utility.yul\":11026:11040   */\n      add\n        /* \"#utility.yul\":11019:11068   */\n      mstore\n        /* \"#utility.yul\":10902:11075   */\n      pop\n      jump\t// out\n        /* \"#utility.yul\":11081:11447   */\n    tag_502:\n        /* \"#utility.yul\":11223:11226   */\n      0x00\n        /* \"#utility.yul\":11244:11311   */\n      tag_665\n        /* \"#utility.yul\":11308:11310   */\n      0x17\n        /* \"#utility.yul\":11303:11306   */\n      dup4\n        /* \"#utility.yul\":11244:11311   */\n      tag_488\n      jump\t// in\n    tag_665:\n        /* \"#utility.yul\":11237:11311   */\n      swap2\n      pop\n        /* \"#utility.yul\":11320:11413   */\n      tag_666\n        /* \"#utility.yul\":11409:11412   */\n      dup3\n        /* \"#utility.yul\":11320:11413   */\n      tag_501\n      jump\t// in\n    tag_666:\n        /* \"#utility.yul\":11438:11440   */\n      0x20\n        /* \"#utility.yul\":11433:11436   */\n      dup3\n        /* \"#utility.yul\":11429:11441   */\n      add\n        /* \"#utility.yul\":11422:11441   */\n      swap1\n      pop\n        /* \"#utility.yul\":11081:11447   */\n      swap2\n      swap1\n      pop\n      jump\t// out\n        /* \"#utility.yul\":11453:11872   */\n    tag_180:\n        /* \"#utility.yul\":11619:11623   */\n      0x00\n        /* \"#utility.yul\":11657:11659   */\n      0x20\n        /* \"#utility.yul\":11646:11655   */\n      dup3\n        /* \"#utility.yul\":11642:11660   */\n      add\n        /* \"#utility.yul\":11634:11660   */\n      swap1\n      pop\n        /* \"#utility.yul\":11706:11715   */\n      dup2\n        /* \"#utility.yul\":11700:11704   */\n      dup2\n        /* \"#utility.yul\":11696:11716   */\n      sub\n        /* \"#utility.yul\":11692:11693   */\n      0x00\n        /* \"#utility.yul\":11681:11690   */\n      dup4\n        /* \"#utility.yul\":11677:11694   */\n      add\n        /* \"#utility.yul\":11670:11717   */\n      mstore\n        /* \"#utility.yul\":11734:11865   */\n      tag_668\n        /* \"#utility.yul\":11860:11864   */\n      dup2\n        /* \"#utility.yul\":11734:11865   */\n      tag_502\n      jump\t// in\n    tag_668:\n        /* \"#utility.yul\":11726:11865   */\n      swap1\n      pop\n        /* \"#utility.yul\":11453:11872   */\n      swap2\n      swap1\n      pop\n      jump\t// out\n        /* \"#utility.yul\":11878:12046   */\n    tag_503:\n        /* \"#utility.yul\":12018:12038   */\n      0x416c7265616479206163746976617465642e0000000000000000000000000000\n        /* \"#utility.yul\":12014:12015   */\n      0x00\n        /* \"#utility.yul\":12006:12012   */\n      dup3\n        /* \"#utility.yul\":12002:12016   */\n      add\n        /* \"#utility.yul\":11995:12039   */\n      mstore\n        /* \"#utility.yul\":11878:12046   */\n      pop\n      jump\t// out\n        /* \"#utility.yul\":12052:12418   */\n    tag_504:\n        /* \"#utility.yul\":12194:12197   */\n      0x00\n        /* \"#utility.yul\":12215:12282   */\n      tag_671\n        /* \"#utility.yul\":12279:12281   */\n      0x12\n        /* \"#utility.yul\":12274:12277   */\n      dup4\n        /* \"#utility.yul\":12215:12282   */\n      tag_488\n      jump\t// in\n    tag_671:\n        /* \"#utility.yul\":12208:12282   */\n      swap2\n      pop\n        /* \"#utility.yul\":12291:12384   */\n      tag_672\n        /* \"#utility.yul\":12380:12383   */\n      dup3\n        /* \"#utility.yul\":12291:12384   */\n      tag_503\n      jump\t// in\n    tag_672:\n        /* \"#utility.yul\":12409:12411   */\n      0x20\n        /* \"#utility.yul\":12404:12407   */\n      dup3\n        /* \"#utility.yul\":12400:12412   */\n      add\n        /* \"#utility.yul\":12393:12412   */\n      swap1\n      pop\n        /* \"#utility.yul\":12052:12418   */\n      swap2\n      swap1\n      pop\n      jump\t// out\n        /* \"#utility.yul\":12424:12843   */\n    tag_183:\n        /* \"#utility.yul\":12590:12594   */\n      0x00\n        /* \"#utility.yul\":12628:12630   */\n      0x20\n        /* \"#utility.yul\":12617:12626   */\n      dup3\n        /* \"#utility.yul\":12613:12631   */\n      add\n        /* \"#utility.yul\":12605:12631   */\n      swap1\n      pop\n        /* \"#utility.yul\":12677:12686   */\n      dup2\n        /* \"#utility.yul\":12671:12675   */\n      dup2\n        /* \"#utility.yul\":12667:12687   */\n      sub\n        /* \"#utility.yul\":12663:12664   */\n      0x00\n        /* \"#utility.yul\":12652:12661   */\n      dup4\n        /* \"#utility.yul\":12648:12665   */\n      add\n        /* \"#utility.yul\":12641:12688   */\n      mstore\n        /* \"#utility.yul\":12705:12836   */\n      tag_674\n        /* \"#utility.yul\":12831:12835   */\n      dup2\n        /* \"#utility.yul\":12705:12836   */\n      tag_504\n      jump\t// in\n    tag_674:\n        /* \"#utility.yul\":12697:12836   */\n      swap1\n      pop\n        /* \"#utility.yul\":12424:12843   */\n      swap2\n      swap1\n      pop\n      jump\t// out\n        /* \"#utility.yul\":12849:13100   */\n    tag_505:\n        /* \"#utility.yul\":12989:13023   */\n      0x4f6e6c79204f776e6572206f7220417574686f72697a65642070617274696369\n        /* \"#utility.yul\":12985:12986   */\n      0x00\n        /* \"#utility.yul\":12977:12983   */\n      dup3\n        /* \"#utility.yul\":12973:12987   */\n      add\n        /* \"#utility.yul\":12966:13024   */\n      mstore\n        /* \"#utility.yul\":13058:13092   */\n      0x7061746f722063616e206163636573732074686973206f7065726174696f6e21\n        /* \"#utility.yul\":13053:13055   */\n      0x20\n        /* \"#utility.yul\":13045:13051   */\n      dup3\n        /* \"#utility.yul\":13041:13056   */\n      add\n        /* \"#utility.yul\":13034:13093   */\n      mstore\n        /* \"#utility.yul\":12849:13100   */\n      pop\n      jump\t// out\n        /* \"#utility.yul\":13106:13472   */\n    tag_506:\n        /* \"#utility.yul\":13248:13251   */\n      0x00\n        /* \"#utility.yul\":13269:13336   */\n      tag_677\n        /* \"#utility.yul\":13333:13335   */\n      0x40\n        /* \"#utility.yul\":13328:13331   */\n      dup4\n        /* \"#utility.yul\":13269:13336   */\n      tag_488\n      jump\t// in\n    tag_677:\n        /* \"#utility.yul\":13262:13336   */\n      swap2\n      pop\n        /* \"#utility.yul\":13345:13438   */\n      tag_678\n        /* \"#utility.yul\":13434:13437   */\n      dup3\n        /* \"#utility.yul\":13345:13438   */\n      tag_505\n      jump\t// in\n    tag_678:\n        /* \"#utility.yul\":13463:13465   */\n      0x40\n        /* \"#utility.yul\":13458:13461   */\n      dup3\n        /* \"#utility.yul\":13454:13466   */\n      add\n        /* \"#utility.yul\":13447:13466   */\n      swap1\n      pop\n        /* \"#utility.yul\":13106:13472   */\n      swap2\n      swap1\n      pop\n      jump\t// out\n        /* \"#utility.yul\":13478:13897   */\n    tag_193:\n        /* \"#utility.yul\":13644:13648   */\n      0x00\n        /* \"#utility.yul\":13682:13684   */\n      0x20\n        /* \"#utility.yul\":13671:13680   */\n      dup3\n        /* \"#utility.yul\":13667:13685   */\n      add\n        /* \"#utility.yul\":13659:13685   */\n      swap1\n      pop\n        /* \"#utility.yul\":13731:13740   */\n      dup2\n        /* \"#utility.yul\":13725:13729   */\n      dup2\n        /* \"#utility.yul\":13721:13741   */\n      sub\n        /* \"#utility.yul\":13717:13718   */\n      0x00\n        /* \"#utility.yul\":13706:13715   */\n      dup4\n        /* \"#utility.yul\":13702:13719   */\n      add\n        /* \"#utility.yul\":13695:13742   */\n      mstore\n        /* \"#utility.yul\":13759:13890   */\n      tag_680\n        /* \"#utility.yul\":13885:13889   */\n      dup2\n        /* \"#utility.yul\":13759:13890   */\n      tag_506\n      jump\t// in\n    tag_680:\n        /* \"#utility.yul\":13751:13890   */\n      swap1\n      pop\n        /* \"#utility.yul\":13478:13897   */\n      swap2\n      swap1\n      pop\n      jump\t// out\n        /* \"#utility.yul\":13903:14072   */\n    tag_507:\n        /* \"#utility.yul\":14043:14064   */\n      0x4e6f7420656e6f7567682062616c616e63652100000000000000000000000000\n        /* \"#utility.yul\":14039:14040   */\n      0x00\n        /* \"#utility.yul\":14031:14037   */\n      dup3\n        /* \"#utility.yul\":14027:14041   */\n      add\n        /* \"#utility.yul\":14020:14065   */\n      mstore\n        /* \"#utility.yul\":13903:14072   */\n      pop\n      jump\t// out\n        /* \"#utility.yul\":14078:14444   */\n    tag_508:\n        /* \"#utility.yul\":14220:14223   */\n      0x00\n        /* \"#utility.yul\":14241:14308   */\n      tag_683\n        /* \"#utility.yul\":14305:14307   */\n      0x13\n        /* \"#utility.yul\":14300:14303   */\n      dup4\n        /* \"#utility.yul\":14241:14308   */\n      tag_488\n      jump\t// in\n    tag_683:\n        /* \"#utility.yul\":14234:14308   */\n      swap2\n      pop\n        /* \"#utility.yul\":14317:14410   */\n      tag_684\n        /* \"#utility.yul\":14406:14409   */\n      dup3\n        /* \"#utility.yul\":14317:14410   */\n      tag_507\n      jump\t// in\n    tag_684:\n        /* \"#utility.yul\":14435:14437   */\n      0x20\n        /* \"#utility.yul\":14430:14433   */\n      dup3\n        /* \"#utility.yul\":14426:14438   */\n      add\n        /* \"#utility.yul\":14419:14438   */\n      swap1\n      pop\n        /* \"#utility.yul\":14078:14444   */\n      swap2\n      swap1\n      pop\n      jump\t// out\n        /* \"#utility.yul\":14450:14869   */\n    tag_212:\n        /* \"#utility.yul\":14616:14620   */\n      0x00\n        /* \"#utility.yul\":14654:14656   */\n      0x20\n        /* \"#utility.yul\":14643:14652   */\n      dup3\n        /* \"#utility.yul\":14639:14657   */\n      add\n        /* \"#utility.yul\":14631:14657   */\n      swap1\n      pop\n        /* \"#utility.yul\":14703:14712   */\n      dup2\n        /* \"#utility.yul\":14697:14701   */\n      dup2\n        /* \"#utility.yul\":14693:14713   */\n      sub\n        /* \"#utility.yul\":14689:14690   */\n      0x00\n        /* \"#utility.yul\":14678:14687   */\n      dup4\n        /* \"#utility.yul\":14674:14691   */\n      add\n        /* \"#utility.yul\":14667:14714   */\n      mstore\n        /* \"#utility.yul\":14731:14862   */\n      tag_686\n        /* \"#utility.yul\":14857:14861   */\n      dup2\n        /* \"#utility.yul\":14731:14862   */\n      tag_508\n      jump\t// in\n    tag_686:\n        /* \"#utility.yul\":14723:14862   */\n      swap1\n      pop\n        /* \"#utility.yul\":14450:14869   */\n      swap2\n      swap1\n      pop\n      jump\t// out\n        /* \"#utility.yul\":14875:15207   */\n    tag_214:\n        /* \"#utility.yul\":14996:15000   */\n      0x00\n        /* \"#utility.yul\":15034:15036   */\n      0x40\n        /* \"#utility.yul\":15023:15032   */\n      dup3\n        /* \"#utility.yul\":15019:15037   */\n      add\n        /* \"#utility.yul\":15011:15037   */\n      swap1\n      pop\n        /* \"#utility.yul\":15047:15118   */\n      tag_688\n        /* \"#utility.yul\":15115:15116   */\n      0x00\n        /* \"#utility.yul\":15104:15113   */\n      dup4\n        /* \"#utility.yul\":15100:15117   */\n      add\n        /* \"#utility.yul\":15091:15097   */\n      dup6\n        /* \"#utility.yul\":15047:15118   */\n      tag_483\n      jump\t// in\n    tag_688:\n        /* \"#utility.yul\":15128:15200   */\n      tag_689\n        /* \"#utility.yul\":15196:15198   */\n      0x20\n        /* \"#utility.yul\":15185:15194   */\n      dup4\n        /* \"#utility.yul\":15181:15199   */\n      add\n        /* \"#utility.yul\":15172:15178   */\n      dup5\n        /* \"#utility.yul\":15128:15200   */\n      tag_484\n      jump\t// in\n    tag_689:\n        /* \"#utility.yul\":14875:15207   */\n      swap4\n      swap3\n      pop\n      pop\n      pop\n      jump\t// out\n        /* \"#utility.yul\":15213:15329   */\n    tag_509:\n        /* \"#utility.yul\":15283:15304   */\n      tag_691\n        /* \"#utility.yul\":15298:15303   */\n      dup2\n        /* \"#utility.yul\":15283:15304   */\n      tag_485\n      jump\t// in\n    tag_691:\n        /* \"#utility.yul\":15276:15281   */\n      dup2\n        /* \"#utility.yul\":15273:15305   */\n      eq\n        /* \"#utility.yul\":15263:15323   */\n      tag_692\n      jumpi\n        /* \"#utility.yul\":15319:15320   */\n      0x00\n        /* \"#utility.yul\":15316:15317   */\n      dup1\n        /* \"#utility.yul\":15309:15321   */\n      revert\n        /* \"#utility.yul\":15263:15323   */\n    tag_692:\n        /* \"#utility.yul\":15213:15329   */\n      pop\n      jump\t// out\n        /* \"#utility.yul\":15335:15472   */\n    tag_510:\n        /* \"#utility.yul\":15389:15394   */\n      0x00\n        /* \"#utility.yul\":15420:15426   */\n      dup2\n        /* \"#utility.yul\":15414:15427   */\n      mload\n        /* \"#utility.yul\":15405:15427   */\n      swap1\n      pop\n        /* \"#utility.yul\":15436:15466   */\n      tag_694\n        /* \"#utility.yul\":15460:15465   */\n      dup2\n        /* \"#utility.yul\":15436:15466   */\n      tag_509\n      jump\t// in\n    tag_694:\n        /* \"#utility.yul\":15335:15472   */\n      swap3\n      swap2\n      pop\n      pop\n      jump\t// out\n        /* \"#utility.yul\":15478:15823   */\n    tag_218:\n        /* \"#utility.yul\":15545:15551   */\n      0x00\n        /* \"#utility.yul\":15594:15596   */\n      0x20\n        /* \"#utility.yul\":15582:15591   */\n      dup3\n        /* \"#utility.yul\":15573:15580   */\n      dup5\n        /* \"#utility.yul\":15569:15592   */\n      sub\n        /* \"#utility.yul\":15565:15597   */\n      slt\n        /* \"#utility.yul\":15562:15681   */\n      iszero\n      tag_696\n      jumpi\n        /* \"#utility.yul\":15600:15679   */\n      tag_697\n      tag_474\n      jump\t// in\n    tag_697:\n        /* \"#utility.yul\":15562:15681   */\n    tag_696:\n        /* \"#utility.yul\":15720:15721   */\n      0x00\n        /* \"#utility.yul\":15745:15806   */\n      tag_698\n        /* \"#utility.yul\":15798:15805   */\n      dup5\n        /* \"#utility.yul\":15789:15795   */\n      dup3\n        /* \"#utility.yul\":15778:15787   */\n      dup6\n        /* \"#utility.yul\":15774:15796   */\n      add\n        /* \"#utility.yul\":15745:15806   */\n      tag_510\n      jump\t// in\n    tag_698:\n        /* \"#utility.yul\":15735:15806   */\n      swap2\n      pop\n        /* \"#utility.yul\":15691:15816   */\n      pop\n        /* \"#utility.yul\":15478:15823   */\n      swap3\n      swap2\n      pop\n      pop\n      jump\t// out\n        /* \"#utility.yul\":15829:15972   */\n    tag_511:\n        /* \"#utility.yul\":15886:15891   */\n      0x00\n        /* \"#utility.yul\":15917:15923   */\n      dup2\n        /* \"#utility.yul\":15911:15924   */\n      mload\n        /* \"#utility.yul\":15902:15924   */\n      swap1\n      pop\n        /* \"#utility.yul\":15933:15966   */\n      tag_700\n        /* \"#utility.yul\":15960:15965   */\n      dup2\n        /* \"#utility.yul\":15933:15966   */\n      tag_477\n      jump\t// in\n    tag_700:\n        /* \"#utility.yul\":15829:15972   */\n      swap3\n      swap2\n      pop\n      pop\n      jump\t// out\n        /* \"#utility.yul\":15978:16329   */\n    tag_229:\n        /* \"#utility.yul\":16048:16054   */\n      0x00\n        /* \"#utility.yul\":16097:16099   */\n      0x20\n        /* \"#utility.yul\":16085:16094   */\n      dup3\n        /* \"#utility.yul\":16076:16083   */\n      dup5\n        /* \"#utility.yul\":16072:16095   */\n      sub\n        /* \"#utility.yul\":16068:16100   */\n      slt\n        /* \"#utility.yul\":16065:16184   */\n      iszero\n      tag_702\n      jumpi\n        /* \"#utility.yul\":16103:16182   */\n      tag_703\n      tag_474\n      jump\t// in\n    tag_703:\n        /* \"#utility.yul\":16065:16184   */\n    tag_702:\n        /* \"#utility.yul\":16223:16224   */\n      0x00\n        /* \"#utility.yul\":16248:16312   */\n      tag_704\n        /* \"#utility.yul\":16304:16311   */\n      dup5\n        /* \"#utility.yul\":16295:16301   */\n      dup3\n        /* \"#utility.yul\":16284:16293   */\n      dup6\n        /* \"#utility.yul\":16280:16302   */\n      add\n        /* \"#utility.yul\":16248:16312   */\n      tag_511\n      jump\t// in\n    tag_704:\n        /* \"#utility.yul\":16238:16312   */\n      swap2\n      pop\n        /* \"#utility.yul\":16194:16322   */\n      pop\n        /* \"#utility.yul\":15978:16329   */\n      swap3\n      swap2\n      pop\n      pop\n      jump\t// out\n        /* \"#utility.yul\":16335:16574   */\n    tag_512:\n        /* \"#utility.yul\":16475:16509   */\n      0x526174652c20706f696e747320616e6420646563696d616c73206d7573742062\n        /* \"#utility.yul\":16471:16472   */\n      0x00\n        /* \"#utility.yul\":16463:16469   */\n      dup3\n        /* \"#utility.yul\":16459:16473   */\n      add\n        /* \"#utility.yul\":16452:16510   */\n      mstore\n        /* \"#utility.yul\":16544:16566   */\n      0x652067726561746572207468616e207a65726f21000000000000000000000000\n        /* \"#utility.yul\":16539:16541   */\n      0x20\n        /* \"#utility.yul\":16531:16537   */\n      dup3\n        /* \"#utility.yul\":16527:16542   */\n      add\n        /* \"#utility.yul\":16520:16567   */\n      mstore\n        /* \"#utility.yul\":16335:16574   */\n      pop\n      jump\t// out\n        /* \"#utility.yul\":16580:16946   */\n    tag_513:\n        /* \"#utility.yul\":16722:16725   */\n      0x00\n        /* \"#utility.yul\":16743:16810   */\n      tag_707\n        /* \"#utility.yul\":16807:16809   */\n      0x34\n        /* \"#utility.yul\":16802:16805   */\n      dup4\n        /* \"#utility.yul\":16743:16810   */\n      tag_488\n      jump\t// in\n    tag_707:\n        /* \"#utility.yul\":16736:16810   */\n      swap2\n      pop\n        /* \"#utility.yul\":16819:16912   */\n      tag_708\n        /* \"#utility.yul\":16908:16911   */\n      dup3\n        /* \"#utility.yul\":16819:16912   */\n      tag_512\n      jump\t// in\n    tag_708:\n        /* \"#utility.yul\":16937:16939   */\n      0x40\n        /* \"#utility.yul\":16932:16935   */\n      dup3\n        /* \"#utility.yul\":16928:16940   */\n      add\n        /* \"#utility.yul\":16921:16940   */\n      swap1\n      pop\n        /* \"#utility.yul\":16580:16946   */\n      swap2\n      swap1\n      pop\n      jump\t// out\n        /* \"#utility.yul\":16952:17371   */\n    tag_237:\n        /* \"#utility.yul\":17118:17122   */\n      0x00\n        /* \"#utility.yul\":17156:17158   */\n      0x20\n        /* \"#utility.yul\":17145:17154   */\n      dup3\n        /* \"#utility.yul\":17141:17159   */\n      add\n        /* \"#utility.yul\":17133:17159   */\n      swap1\n      pop\n        /* \"#utility.yul\":17205:17214   */\n      dup2\n        /* \"#utility.yul\":17199:17203   */\n      dup2\n        /* \"#utility.yul\":17195:17215   */\n      sub\n        /* \"#utility.yul\":17191:17192   */\n      0x00\n        /* \"#utility.yul\":17180:17189   */\n      dup4\n        /* \"#utility.yul\":17176:17193   */\n      add\n        /* \"#utility.yul\":17169:17216   */\n      mstore\n        /* \"#utility.yul\":17233:17364   */\n      tag_710\n        /* \"#utility.yul\":17359:17363   */\n      dup2\n        /* \"#utility.yul\":17233:17364   */\n      tag_513\n      jump\t// in\n    tag_710:\n        /* \"#utility.yul\":17225:17364   */\n      swap1\n      pop\n        /* \"#utility.yul\":16952:17371   */\n      swap2\n      swap1\n      pop\n      jump\t// out\n        /* \"#utility.yul\":17377:17479   */\n    tag_514:\n        /* \"#utility.yul\":17419:17427   */\n      0x00\n        /* \"#utility.yul\":17466:17471   */\n      dup2\n        /* \"#utility.yul\":17463:17464   */\n      0x01\n        /* \"#utility.yul\":17459:17472   */\n      shr\n        /* \"#utility.yul\":17438:17472   */\n      swap1\n      pop\n        /* \"#utility.yul\":17377:17479   */\n      swap2\n      swap1\n      pop\n      jump\t// out\n        /* \"#utility.yul\":17485:18333   */\n    tag_515:\n        /* \"#utility.yul\":17546:17551   */\n      0x00\n        /* \"#utility.yul\":17553:17557   */\n      dup1\n        /* \"#utility.yul\":17577:17583   */\n      dup3\n        /* \"#utility.yul\":17568:17583   */\n      swap2\n      pop\n        /* \"#utility.yul\":17601:17606   */\n      dup4\n        /* \"#utility.yul\":17592:17606   */\n      swap1\n      pop\n        /* \"#utility.yul\":17615:18327   */\n    tag_713:\n        /* \"#utility.yul\":17636:17637   */\n      0x01\n        /* \"#utility.yul\":17626:17634   */\n      dup6\n        /* \"#utility.yul\":17623:17638   */\n      gt\n        /* \"#utility.yul\":17615:18327   */\n      iszero\n      tag_715\n      jumpi\n        /* \"#utility.yul\":17731:17735   */\n      dup1\n        /* \"#utility.yul\":17726:17729   */\n      dup7\n        /* \"#utility.yul\":17722:17736   */\n      div\n        /* \"#utility.yul\":17716:17720   */\n      dup2\n        /* \"#utility.yul\":17713:17737   */\n      gt\n        /* \"#utility.yul\":17710:17760   */\n      iszero\n      tag_716\n      jumpi\n        /* \"#utility.yul\":17740:17758   */\n      tag_717\n      tag_498\n      jump\t// in\n    tag_717:\n        /* \"#utility.yul\":17710:17760   */\n    tag_716:\n        /* \"#utility.yul\":17790:17791   */\n      0x01\n        /* \"#utility.yul\":17780:17788   */\n      dup6\n        /* \"#utility.yul\":17776:17792   */\n      and\n        /* \"#utility.yul\":17773:18224   */\n      iszero\n      tag_718\n      jumpi\n        /* \"#utility.yul\":18205:18209   */\n      dup1\n        /* \"#utility.yul\":18198:18203   */\n      dup3\n        /* \"#utility.yul\":18194:18210   */\n      mul\n        /* \"#utility.yul\":18185:18210   */\n      swap2\n      pop\n        /* \"#utility.yul\":17773:18224   */\n    tag_718:\n        /* \"#utility.yul\":18255:18259   */\n      dup1\n        /* \"#utility.yul\":18249:18253   */\n      dup2\n        /* \"#utility.yul\":18245:18260   */\n      mul\n        /* \"#utility.yul\":18237:18260   */\n      swap1\n      pop\n        /* \"#utility.yul\":18285:18317   */\n      tag_719\n        /* \"#utility.yul\":18308:18316   */\n      dup6\n        /* \"#utility.yul\":18285:18317   */\n      tag_514\n      jump\t// in\n    tag_719:\n        /* \"#utility.yul\":18273:18317   */\n      swap5\n      pop\n        /* \"#utility.yul\":17615:18327   */\n      jump(tag_713)\n    tag_715:\n        /* \"#utility.yul\":17485:18333   */\n      swap5\n      pop\n      swap5\n      swap3\n      pop\n      pop\n      pop\n      jump\t// out\n        /* \"#utility.yul\":18339:19412   */\n    tag_516:\n        /* \"#utility.yul\":18393:18398   */\n      0x00\n        /* \"#utility.yul\":18584:18592   */\n      dup3\n        /* \"#utility.yul\":18574:18614   */\n      tag_721\n      jumpi\n        /* \"#utility.yul\":18605:18606   */\n      0x01\n        /* \"#utility.yul\":18596:18606   */\n      swap1\n      pop\n        /* \"#utility.yul\":18607:18612   */\n      jump(tag_720)\n        /* \"#utility.yul\":18574:18614   */\n    tag_721:\n        /* \"#utility.yul\":18633:18637   */\n      dup2\n        /* \"#utility.yul\":18623:18659   */\n      tag_722\n      jumpi\n        /* \"#utility.yul\":18650:18651   */\n      0x00\n        /* \"#utility.yul\":18641:18651   */\n      swap1\n      pop\n        /* \"#utility.yul\":18652:18657   */\n      jump(tag_720)\n        /* \"#utility.yul\":18623:18659   */\n    tag_722:\n        /* \"#utility.yul\":18719:18723   */\n      dup2\n        /* \"#utility.yul\":18767:18768   */\n      0x01\n        /* \"#utility.yul\":18762:18789   */\n      dup2\n      eq\n      tag_724\n      jumpi\n        /* \"#utility.yul\":18803:18804   */\n      0x02\n        /* \"#utility.yul\":18798:18989   */\n      dup2\n      eq\n      tag_725\n      jumpi\n        /* \"#utility.yul\":18712:18989   */\n      jump(tag_723)\n        /* \"#utility.yul\":18762:18789   */\n    tag_724:\n        /* \"#utility.yul\":18780:18781   */\n      0x01\n        /* \"#utility.yul\":18771:18781   */\n      swap2\n      pop\n        /* \"#utility.yul\":18782:18787   */\n      pop\n      jump(tag_720)\n        /* \"#utility.yul\":18798:18989   */\n    tag_725:\n        /* \"#utility.yul\":18843:18846   */\n      0xff\n        /* \"#utility.yul\":18833:18841   */\n      dup5\n        /* \"#utility.yul\":18830:18847   */\n      gt\n        /* \"#utility.yul\":18827:18870   */\n      iszero\n      tag_726\n      jumpi\n        /* \"#utility.yul\":18850:18868   */\n      tag_727\n      tag_498\n      jump\t// in\n    tag_727:\n        /* \"#utility.yul\":18827:18870   */\n    tag_726:\n        /* \"#utility.yul\":18899:18907   */\n      dup4\n        /* \"#utility.yul\":18896:18897   */\n      0x02\n        /* \"#utility.yul\":18892:18908   */\n      exp\n        /* \"#utility.yul\":18883:18908   */\n      swap2\n      pop\n        /* \"#utility.yul\":18934:18937   */\n      dup5\n        /* \"#utility.yul\":18927:18932   */\n      dup3\n        /* \"#utility.yul\":18924:18938   */\n      gt\n        /* \"#utility.yul\":18921:18961   */\n      iszero\n      tag_728\n      jumpi\n        /* \"#utility.yul\":18941:18959   */\n      tag_729\n      tag_498\n      jump\t// in\n    tag_729:\n        /* \"#utility.yul\":18921:18961   */\n    tag_728:\n        /* \"#utility.yul\":18974:18979   */\n      pop\n      jump(tag_720)\n        /* \"#utility.yul\":18712:18989   */\n    tag_723:\n      pop\n        /* \"#utility.yul\":19098:19100   */\n      0x20\n        /* \"#utility.yul\":19088:19096   */\n      dup4\n        /* \"#utility.yul\":19085:19101   */\n      lt\n        /* \"#utility.yul\":19079:19082   */\n      0x0133\n        /* \"#utility.yul\":19073:19077   */\n      dup4\n        /* \"#utility.yul\":19070:19083   */\n      lt\n        /* \"#utility.yul\":19066:19102   */\n      and\n        /* \"#utility.yul\":19048:19050   */\n      0x4e\n        /* \"#utility.yul\":19038:19046   */\n      dup5\n        /* \"#utility.yul\":19035:19051   */\n      lt\n        /* \"#utility.yul\":19030:19032   */\n      0x0b\n        /* \"#utility.yul\":19024:19028   */\n      dup5\n        /* \"#utility.yul\":19021:19033   */\n      lt\n        /* \"#utility.yul\":19017:19052   */\n      and\n        /* \"#utility.yul\":19001:19112   */\n      or\n        /* \"#utility.yul\":18998:19244   */\n      iszero\n      tag_730\n      jumpi\n        /* \"#utility.yul\":19154:19162   */\n      dup3\n        /* \"#utility.yul\":19148:19152   */\n      dup3\n        /* \"#utility.yul\":19144:19163   */\n      exp\n        /* \"#utility.yul\":19135:19163   */\n      swap1\n      pop\n        /* \"#utility.yul\":19189:19192   */\n      dup4\n        /* \"#utility.yul\":19182:19187   */\n      dup2\n        /* \"#utility.yul\":19179:19193   */\n      gt\n        /* \"#utility.yul\":19176:19216   */\n      iszero\n      tag_731\n      jumpi\n        /* \"#utility.yul\":19196:19214   */\n      tag_732\n      tag_498\n      jump\t// in\n    tag_732:\n        /* \"#utility.yul\":19176:19216   */\n    tag_731:\n        /* \"#utility.yul\":19229:19234   */\n      jump(tag_720)\n        /* \"#utility.yul\":18998:19244   */\n    tag_730:\n        /* \"#utility.yul\":19269:19311   */\n      tag_733\n        /* \"#utility.yul\":19307:19310   */\n      dup5\n        /* \"#utility.yul\":19297:19305   */\n      dup5\n        /* \"#utility.yul\":19291:19295   */\n      dup5\n        /* \"#utility.yul\":19288:19289   */\n      0x01\n        /* \"#utility.yul\":19269:19311   */\n      tag_515\n      jump\t// in\n    tag_733:\n        /* \"#utility.yul\":19254:19311   */\n      swap3\n      pop\n      swap1\n      pop\n        /* \"#utility.yul\":19343:19347   */\n      dup2\n        /* \"#utility.yul\":19338:19341   */\n      dup5\n        /* \"#utility.yul\":19334:19348   */\n      div\n        /* \"#utility.yul\":19327:19332   */\n      dup2\n        /* \"#utility.yul\":19324:19349   */\n      gt\n        /* \"#utility.yul\":19321:19372   */\n      iszero\n      tag_734\n      jumpi\n        /* \"#utility.yul\":19352:19370   */\n      tag_735\n      tag_498\n      jump\t// in\n    tag_735:\n        /* \"#utility.yul\":19321:19372   */\n    tag_734:\n        /* \"#utility.yul\":19401:19405   */\n      dup2\n        /* \"#utility.yul\":19394:19399   */\n      dup2\n        /* \"#utility.yul\":19390:19406   */\n      mul\n        /* \"#utility.yul\":19381:19406   */\n      swap1\n      pop\n        /* \"#utility.yul\":18339:19412   */\n    tag_720:\n      swap4\n      swap3\n      pop\n      pop\n      pop\n      jump\t// out\n        /* \"#utility.yul\":19418:19703   */\n    tag_239:\n        /* \"#utility.yul\":19478:19483   */\n      0x00\n        /* \"#utility.yul\":19502:19525   */\n      tag_737\n        /* \"#utility.yul\":19520:19524   */\n      dup3\n        /* \"#utility.yul\":19502:19525   */\n      tag_476\n      jump\t// in\n    tag_737:\n        /* \"#utility.yul\":19494:19525   */\n      swap2\n      pop\n        /* \"#utility.yul\":19546:19573   */\n      tag_738\n        /* \"#utility.yul\":19564:19572   */\n      dup4\n        /* \"#utility.yul\":19546:19573   */\n      tag_476\n      jump\t// in\n    tag_738:\n        /* \"#utility.yul\":19534:19573   */\n      swap3\n      pop\n        /* \"#utility.yul\":19592:19696   */\n      tag_739\n        /* \"#utility.yul\":19629:19695   */\n      0xffffffffffffffffffffffffffffffffffffffffffffffffffffffffffffffff\n        /* \"#utility.yul\":19619:19627   */\n      dup5\n        /* \"#utility.yul\":19613:19617   */\n      dup5\n        /* \"#utility.yul\":19592:19696   */\n      tag_516\n      jump\t// in\n    tag_739:\n        /* \"#utility.yul\":19583:19696   */\n      swap1\n      pop\n        /* \"#utility.yul\":19418:19703   */\n      swap3\n      swap2\n      pop\n      pop\n      jump\t// out\n        /* \"#utility.yul\":19709:20119   */\n    tag_241:\n        /* \"#utility.yul\":19749:19756   */\n      0x00\n        /* \"#utility.yul\":19772:19792   */\n      tag_741\n        /* \"#utility.yul\":19790:19791   */\n      dup3\n        /* \"#utility.yul\":19772:19792   */\n      tag_476\n      jump\t// in\n    tag_741:\n        /* \"#utility.yul\":19767:19792   */\n      swap2\n      pop\n        /* \"#utility.yul\":19806:19826   */\n      tag_742\n        /* \"#utility.yul\":19824:19825   */\n      dup4\n        /* \"#utility.yul\":19806:19826   */\n      tag_476\n      jump\t// in\n    tag_742:\n        /* \"#utility.yul\":19801:19826   */\n      swap3\n      pop\n        /* \"#utility.yul\":19861:19862   */\n      dup3\n        /* \"#utility.yul\":19858:19859   */\n      dup3\n        /* \"#utility.yul\":19854:19863   */\n      mul\n        /* \"#utility.yul\":19883:19913   */\n      tag_743\n        /* \"#utility.yul\":19901:19912   */\n      dup2\n        /* \"#utility.yul\":19883:19913   */\n      tag_476\n      jump\t// in\n    tag_743:\n        /* \"#utility.yul\":19872:19913   */\n      swap2\n      pop\n        /* \"#utility.yul\":20062:20063   */\n      dup3\n        /* \"#utility.yul\":20053:20060   */\n      dup3\n        /* \"#utility.yul\":20049:20064   */\n      div\n        /* \"#utility.yul\":20046:20047   */\n      dup5\n        /* \"#utility.yul\":20043:20065   */\n      eq\n        /* \"#utility.yul\":20023:20024   */\n      dup4\n        /* \"#utility.yul\":20016:20025   */\n      iszero\n        /* \"#utility.yul\":19996:20079   */\n      or\n        /* \"#utility.yul\":19973:20112   */\n      tag_744\n      jumpi\n        /* \"#utility.yul\":20092:20110   */\n      tag_745\n      tag_498\n      jump\t// in\n    tag_745:\n        /* \"#utility.yul\":19973:20112   */\n    tag_744:\n        /* \"#utility.yul\":19757:20119   */\n      pop\n        /* \"#utility.yul\":19709:20119   */\n      swap3\n      swap2\n      pop\n      pop\n      jump\t// out\n        /* \"#utility.yul\":20125:20305   */\n    tag_517:\n        /* \"#utility.yul\":20173:20250   */\n      0x4e487b7100000000000000000000000000000000000000000000000000000000\n        /* \"#utility.yul\":20170:20171   */\n      0x00\n        /* \"#utility.yul\":20163:20251   */\n      mstore\n        /* \"#utility.yul\":20270:20274   */\n      0x12\n        /* \"#utility.yul\":20267:20268   */\n      0x04\n        /* \"#utility.yul\":20260:20275   */\n      mstore\n        /* \"#utility.yul\":20294:20298   */\n      0x24\n        /* \"#utility.yul\":20291:20292   */\n      0x00\n        /* \"#utility.yul\":20284:20299   */\n      revert\n        /* \"#utility.yul\":20311:20496   */\n    tag_243:\n        /* \"#utility.yul\":20351:20352   */\n      0x00\n        /* \"#utility.yul\":20368:20388   */\n      tag_748\n        /* \"#utility.yul\":20386:20387   */\n      dup3\n        /* \"#utility.yul\":20368:20388   */\n      tag_476\n      jump\t// in\n    tag_748:\n        /* \"#utility.yul\":20363:20388   */\n      swap2\n      pop\n        /* \"#utility.yul\":20402:20422   */\n      tag_749\n        /* \"#utility.yul\":20420:20421   */\n      dup4\n        /* \"#utility.yul\":20402:20422   */\n      tag_476\n      jump\t// in\n    tag_749:\n        /* \"#utility.yul\":20397:20422   */\n      swap3\n      pop\n        /* \"#utility.yul\":20441:20442   */\n      dup3\n        /* \"#utility.yul\":20431:20466   */\n      tag_750\n      jumpi\n        /* \"#utility.yul\":20446:20464   */\n      tag_751\n      tag_517\n      jump\t// in\n    tag_751:\n        /* \"#utility.yul\":20431:20466   */\n    tag_750:\n        /* \"#utility.yul\":20488:20489   */\n      dup3\n        /* \"#utility.yul\":20485:20486   */\n      dup3\n        /* \"#utility.yul\":20481:20490   */\n      div\n        /* \"#utility.yul\":20476:20490   */\n      swap1\n      pop\n        /* \"#utility.yul\":20311:20496   */\n      swap3\n      swap2\n      pop\n      pop\n      jump\t// out\n        /* \"#utility.yul\":20502:20834   */\n    tag_261:\n        /* \"#utility.yul\":20623:20627   */\n      0x00\n        /* \"#utility.yul\":20661:20663   */\n      0x40\n        /* \"#utility.yul\":20650:20659   */\n      dup3\n        /* \"#utility.yul\":20646:20664   */\n      add\n        /* \"#utility.yul\":20638:20664   */\n      swap1\n      pop\n        /* \"#utility.yul\":20674:20745   */\n      tag_753\n        /* \"#utility.yul\":20742:20743   */\n      0x00\n        /* \"#utility.yul\":20731:20740   */\n      dup4\n        /* \"#utility.yul\":20727:20744   */\n      add\n        /* \"#utility.yul\":20718:20724   */\n      dup6\n        /* \"#utility.yul\":20674:20745   */\n      tag_483\n      jump\t// in\n    tag_753:\n        /* \"#utility.yul\":20755:20827   */\n      tag_754\n        /* \"#utility.yul\":20823:20825   */\n      0x20\n        /* \"#utility.yul\":20812:20821   */\n      dup4\n        /* \"#utility.yul\":20808:20826   */\n      add\n        /* \"#utility.yul\":20799:20805   */\n      dup5\n        /* \"#utility.yul\":20755:20827   */\n      tag_483\n      jump\t// in\n    tag_754:\n        /* \"#utility.yul\":20502:20834   */\n      swap4\n      swap3\n      pop\n      pop\n      pop\n      jump\t// out\n        /* \"#utility.yul\":20840:20957   */\n    tag_518:\n        /* \"#utility.yul\":20949:20950   */\n      0x00\n        /* \"#utility.yul\":20946:20947   */\n      dup1\n        /* \"#utility.yul\":20939:20951   */\n      revert\n        /* \"#utility.yul\":20963:21080   */\n    tag_519:\n        /* \"#utility.yul\":21072:21073   */\n      0x00\n        /* \"#utility.yul\":21069:21070   */\n      dup1\n        /* \"#utility.yul\":21062:21074   */\n      revert\n        /* \"#utility.yul\":21086:21266   */\n    tag_520:\n        /* \"#utility.yul\":21134:21211   */\n      0x4e487b7100000000000000000000000000000000000000000000000000000000\n        /* \"#utility.yul\":21131:21132   */\n      0x00\n        /* \"#utility.yul\":21124:21212   */\n      mstore\n        /* \"#utility.yul\":21231:21235   */\n      0x41\n        /* \"#utility.yul\":21228:21229   */\n      0x04\n        /* \"#utility.yul\":21221:21236   */\n      mstore\n        /* \"#utility.yul\":21255:21259   */\n      0x24\n        /* \"#utility.yul\":21252:21253   */\n      0x00\n        /* \"#utility.yul\":21245:21260   */\n      revert\n        /* \"#utility.yul\":21272:21553   */\n    tag_521:\n        /* \"#utility.yul\":21355:21382   */\n      tag_759\n        /* \"#utility.yul\":21377:21381   */\n      dup3\n        /* \"#utility.yul\":21355:21382   */\n      tag_490\n      jump\t// in\n    tag_759:\n        /* \"#utility.yul\":21347:21353   */\n      dup2\n        /* \"#utility.yul\":21343:21383   */\n      add\n        /* \"#utility.yul\":21485:21491   */\n      dup2\n        /* \"#utility.yul\":21473:21483   */\n      dup2\n        /* \"#utility.yul\":21470:21492   */\n      lt\n        /* \"#utility.yul\":21449:21467   */\n      0xffffffffffffffff\n        /* \"#utility.yul\":21437:21447   */\n      dup3\n        /* \"#utility.yul\":21434:21468   */\n      gt\n        /* \"#utility.yul\":21431:21493   */\n      or\n        /* \"#utility.yul\":21428:21516   */\n      iszero\n      tag_760\n      jumpi\n        /* \"#utility.yul\":21496:21514   */\n      tag_761\n      tag_520\n      jump\t// in\n    tag_761:\n        /* \"#utility.yul\":21428:21516   */\n    tag_760:\n        /* \"#utility.yul\":21536:21546   */\n      dup1\n        /* \"#utility.yul\":21532:21534   */\n      0x40\n        /* \"#utility.yul\":21525:21547   */\n      mstore\n        /* \"#utility.yul\":21315:21553   */\n      pop\n        /* \"#utility.yul\":21272:21553   */\n      pop\n      pop\n      jump\t// out\n        /* \"#utility.yul\":21559:21688   */\n    tag_522:\n        /* \"#utility.yul\":21593:21599   */\n      0x00\n        /* \"#utility.yul\":21620:21640   */\n      tag_763\n      tag_473\n      jump\t// in\n    tag_763:\n        /* \"#utility.yul\":21610:21640   */\n      swap1\n      pop\n        /* \"#utility.yul\":21649:21682   */\n      tag_764\n        /* \"#utility.yul\":21677:21681   */\n      dup3\n        /* \"#utility.yul\":21669:21675   */\n      dup3\n        /* \"#utility.yul\":21649:21682   */\n      tag_521\n      jump\t// in\n    tag_764:\n        /* \"#utility.yul\":21559:21688   */\n      swap2\n      swap1\n      pop\n      jump\t// out\n        /* \"#utility.yul\":21694:22002   */\n    tag_523:\n        /* \"#utility.yul\":21756:21760   */\n      0x00\n        /* \"#utility.yul\":21846:21864   */\n      0xffffffffffffffff\n        /* \"#utility.yul\":21838:21844   */\n      dup3\n        /* \"#utility.yul\":21835:21865   */\n      gt\n        /* \"#utility.yul\":21832:21888   */\n      iszero\n      tag_766\n      jumpi\n        /* \"#utility.yul\":21868:21886   */\n      tag_767\n      tag_520\n      jump\t// in\n    tag_767:\n        /* \"#utility.yul\":21832:21888   */\n    tag_766:\n        /* \"#utility.yul\":21906:21935   */\n      tag_768\n        /* \"#utility.yul\":21928:21934   */\n      dup3\n        /* \"#utility.yul\":21906:21935   */\n      tag_490\n      jump\t// in\n    tag_768:\n        /* \"#utility.yul\":21898:21935   */\n      swap1\n      pop\n        /* \"#utility.yul\":21990:21994   */\n      0x20\n        /* \"#utility.yul\":21984:21988   */\n      dup2\n        /* \"#utility.yul\":21980:21995   */\n      add\n        /* \"#utility.yul\":21972:21995   */\n      swap1\n      pop\n        /* \"#utility.yul\":21694:22002   */\n      swap2\n      swap1\n      pop\n      jump\t// out\n        /* \"#utility.yul\":22008:22442   */\n    tag_524:\n        /* \"#utility.yul\":22097:22102   */\n      0x00\n        /* \"#utility.yul\":22122:22188   */\n      tag_770\n        /* \"#utility.yul\":22138:22187   */\n      tag_771\n        /* \"#utility.yul\":22180:22186   */\n      dup5\n        /* \"#utility.yul\":22138:22187   */\n      tag_523\n      jump\t// in\n    tag_771:\n        /* \"#utility.yul\":22122:22188   */\n      tag_522\n      jump\t// in\n    tag_770:\n        /* \"#utility.yul\":22113:22188   */\n      swap1\n      pop\n        /* \"#utility.yul\":22211:22217   */\n      dup3\n        /* \"#utility.yul\":22204:22209   */\n      dup2\n        /* \"#utility.yul\":22197:22218   */\n      mstore\n        /* \"#utility.yul\":22249:22253   */\n      0x20\n        /* \"#utility.yul\":22242:22247   */\n      dup2\n        /* \"#utility.yul\":22238:22254   */\n      add\n        /* \"#utility.yul\":22287:22290   */\n      dup5\n        /* \"#utility.yul\":22278:22284   */\n      dup5\n        /* \"#utility.yul\":22273:22276   */\n      dup5\n        /* \"#utility.yul\":22269:22285   */\n      add\n        /* \"#utility.yul\":22266:22291   */\n      gt\n        /* \"#utility.yul\":22263:22375   */\n      iszero\n      tag_772\n      jumpi\n        /* \"#utility.yul\":22294:22373   */\n      tag_773\n      tag_519\n      jump\t// in\n    tag_773:\n        /* \"#utility.yul\":22263:22375   */\n    tag_772:\n        /* \"#utility.yul\":22384:22436   */\n      tag_774\n        /* \"#utility.yul\":22429:22435   */\n      dup5\n        /* \"#utility.yul\":22424:22427   */\n      dup3\n        /* \"#utility.yul\":22419:22422   */\n      dup6\n        /* \"#utility.yul\":22384:22436   */\n      tag_489\n      jump\t// in\n    tag_774:\n        /* \"#utility.yul\":22103:22442   */\n      pop\n        /* \"#utility.yul\":22008:22442   */\n      swap4\n      swap3\n      pop\n      pop\n      pop\n      jump\t// out\n        /* \"#utility.yul\":22462:22817   */\n    tag_525:\n        /* \"#utility.yul\":22529:22534   */\n      0x00\n        /* \"#utility.yul\":22578:22581   */\n      dup3\n        /* \"#utility.yul\":22571:22575   */\n      0x1f\n        /* \"#utility.yul\":22563:22569   */\n      dup4\n        /* \"#utility.yul\":22559:22576   */\n      add\n        /* \"#utility.yul\":22555:22582   */\n      slt\n        /* \"#utility.yul\":22545:22667   */\n      tag_776\n      jumpi\n        /* \"#utility.yul\":22586:22665   */\n      tag_777\n      tag_518\n      jump\t// in\n    tag_777:\n        /* \"#utility.yul\":22545:22667   */\n    tag_776:\n        /* \"#utility.yul\":22696:22702   */\n      dup2\n        /* \"#utility.yul\":22690:22703   */\n      mload\n        /* \"#utility.yul\":22721:22811   */\n      tag_778\n        /* \"#utility.yul\":22807:22810   */\n      dup5\n        /* \"#utility.yul\":22799:22805   */\n      dup3\n        /* \"#utility.yul\":22792:22796   */\n      0x20\n        /* \"#utility.yul\":22784:22790   */\n      dup7\n        /* \"#utility.yul\":22780:22797   */\n      add\n        /* \"#utility.yul\":22721:22811   */\n      tag_524\n      jump\t// in\n    tag_778:\n        /* \"#utility.yul\":22712:22811   */\n      swap2\n      pop\n        /* \"#utility.yul\":22535:22817   */\n      pop\n        /* \"#utility.yul\":22462:22817   */\n      swap3\n      swap2\n      pop\n      pop\n      jump\t// out\n        /* \"#utility.yul\":22823:23347   */\n    tag_289:\n        /* \"#utility.yul\":22903:22909   */\n      0x00\n        /* \"#utility.yul\":22952:22954   */\n      0x20\n        /* \"#utility.yul\":22940:22949   */\n      dup3\n        /* \"#utility.yul\":22931:22938   */\n      dup5\n        /* \"#utility.yul\":22927:22950   */\n      sub\n        /* \"#utility.yul\":22923:22955   */\n      slt\n        /* \"#utility.yul\":22920:23039   */\n      iszero\n      tag_780\n      jumpi\n        /* \"#utility.yul\":22958:23037   */\n      tag_781\n      tag_474\n      jump\t// in\n    tag_781:\n        /* \"#utility.yul\":22920:23039   */\n    tag_780:\n        /* \"#utility.yul\":23099:23100   */\n      0x00\n        /* \"#utility.yul\":23088:23097   */\n      dup3\n        /* \"#utility.yul\":23084:23101   */\n      add\n        /* \"#utility.yul\":23078:23102   */\n      mload\n        /* \"#utility.yul\":23129:23147   */\n      0xffffffffffffffff\n        /* \"#utility.yul\":23121:23127   */\n      dup2\n        /* \"#utility.yul\":23118:23148   */\n      gt\n        /* \"#utility.yul\":23115:23232   */\n      iszero\n      tag_782\n      jumpi\n        /* \"#utility.yul\":23151:23230   */\n      tag_783\n      tag_475\n      jump\t// in\n    tag_783:\n        /* \"#utility.yul\":23115:23232   */\n    tag_782:\n        /* \"#utility.yul\":23256:23330   */\n      tag_784\n        /* \"#utility.yul\":23322:23329   */\n      dup5\n        /* \"#utility.yul\":23313:23319   */\n      dup3\n        /* \"#utility.yul\":23302:23311   */\n      dup6\n        /* \"#utility.yul\":23298:23320   */\n      add\n        /* \"#utility.yul\":23256:23330   */\n      tag_525\n      jump\t// in\n    tag_784:\n        /* \"#utility.yul\":23246:23330   */\n      swap2\n      pop\n        /* \"#utility.yul\":23049:23340   */\n      pop\n        /* \"#utility.yul\":22823:23347   */\n      swap3\n      swap2\n      pop\n      pop\n      jump\t// out\n        /* \"#utility.yul\":23353:23578   */\n    tag_526:\n        /* \"#utility.yul\":23493:23527   */\n      0x41676772656761746f72436f6e73756d6572206973206e6f7420696e69746961\n        /* \"#utility.yul\":23489:23490   */\n      0x00\n        /* \"#utility.yul\":23481:23487   */\n      dup3\n        /* \"#utility.yul\":23477:23491   */\n      add\n        /* \"#utility.yul\":23470:23528   */\n      mstore\n        /* \"#utility.yul\":23562:23570   */\n      0x6c697a6564210000000000000000000000000000000000000000000000000000\n        /* \"#utility.yul\":23557:23559   */\n      0x20\n        /* \"#utility.yul\":23549:23555   */\n      dup3\n        /* \"#utility.yul\":23545:23560   */\n      add\n        /* \"#utility.yul\":23538:23571   */\n      mstore\n        /* \"#utility.yul\":23353:23578   */\n      pop\n      jump\t// out\n        /* \"#utility.yul\":23584:23950   */\n    tag_527:\n        /* \"#utility.yul\":23726:23729   */\n      0x00\n        /* \"#utility.yul\":23747:23814   */\n      tag_787\n        /* \"#utility.yul\":23811:23813   */\n      0x26\n        /* \"#utility.yul\":23806:23809   */\n      dup4\n        /* \"#utility.yul\":23747:23814   */\n      tag_488\n      jump\t// in\n    tag_787:\n        /* \"#utility.yul\":23740:23814   */\n      swap2\n      pop\n        /* \"#utility.yul\":23823:23916   */\n      tag_788\n        /* \"#utility.yul\":23912:23915   */\n      dup3\n        /* \"#utility.yul\":23823:23916   */\n      tag_526\n      jump\t// in\n    tag_788:\n        /* \"#utility.yul\":23941:23943   */\n      0x40\n        /* \"#utility.yul\":23936:23939   */\n      dup3\n        /* \"#utility.yul\":23932:23944   */\n      add\n        /* \"#utility.yul\":23925:23944   */\n      swap1\n      pop\n        /* \"#utility.yul\":23584:23950   */\n      swap2\n      swap1\n      pop\n      jump\t// out\n        /* \"#utility.yul\":23956:24375   */\n    tag_312:\n        /* \"#utility.yul\":24122:24126   */\n      0x00\n        /* \"#utility.yul\":24160:24162   */\n      0x20\n        /* \"#utility.yul\":24149:24158   */\n      dup3\n        /* \"#utility.yul\":24145:24163   */\n      add\n        /* \"#utility.yul\":24137:24163   */\n      swap1\n      pop\n        /* \"#utility.yul\":24209:24218   */\n      dup2\n        /* \"#utility.yul\":24203:24207   */\n      dup2\n        /* \"#utility.yul\":24199:24219   */\n      sub\n        /* \"#utility.yul\":24195:24196   */\n      0x00\n        /* \"#utility.yul\":24184:24193   */\n      dup4\n        /* \"#utility.yul\":24180:24197   */\n      add\n        /* \"#utility.yul\":24173:24220   */\n      mstore\n        /* \"#utility.yul\":24237:24368   */\n      tag_790\n        /* \"#utility.yul\":24363:24367   */\n      dup2\n        /* \"#utility.yul\":24237:24368   */\n      tag_527\n      jump\t// in\n    tag_790:\n        /* \"#utility.yul\":24229:24368   */\n      swap1\n      pop\n        /* \"#utility.yul\":23956:24375   */\n      swap2\n      swap1\n      pop\n      jump\t// out\n        /* \"#utility.yul\":24381:24563   */\n    tag_528:\n        /* \"#utility.yul\":24521:24555   */\n      0x506f6f6c436f6e73756d6572206973206e6f7420696e697469616c697a656421\n        /* \"#utility.yul\":24517:24518   */\n      0x00\n        /* \"#utility.yul\":24509:24515   */\n      dup3\n        /* \"#utility.yul\":24505:24519   */\n      add\n        /* \"#utility.yul\":24498:24556   */\n      mstore\n        /* \"#utility.yul\":24381:24563   */\n      pop\n      jump\t// out\n        /* \"#utility.yul\":24569:24935   */\n    tag_529:\n        /* \"#utility.yul\":24711:24714   */\n      0x00\n        /* \"#utility.yul\":24732:24799   */\n      tag_793\n        /* \"#utility.yul\":24796:24798   */\n      0x20\n        /* \"#utility.yul\":24791:24794   */\n      dup4\n        /* \"#utility.yul\":24732:24799   */\n      tag_488\n      jump\t// in\n    tag_793:\n        /* \"#utility.yul\":24725:24799   */\n      swap2\n      pop\n        /* \"#utility.yul\":24808:24901   */\n      tag_794\n        /* \"#utility.yul\":24897:24900   */\n      dup3\n        /* \"#utility.yul\":24808:24901   */\n      tag_528\n      jump\t// in\n    tag_794:\n        /* \"#utility.yul\":24926:24928   */\n      0x20\n        /* \"#utility.yul\":24921:24924   */\n      dup3\n        /* \"#utility.yul\":24917:24929   */\n      add\n        /* \"#utility.yul\":24910:24929   */\n      swap1\n      pop\n        /* \"#utility.yul\":24569:24935   */\n      swap2\n      swap1\n      pop\n      jump\t// out\n        /* \"#utility.yul\":24941:25360   */\n    tag_317:\n        /* \"#utility.yul\":25107:25111   */\n      0x00\n        /* \"#utility.yul\":25145:25147   */\n      0x20\n        /* \"#utility.yul\":25134:25143   */\n      dup3\n        /* \"#utility.yul\":25130:25148   */\n      add\n        /* \"#utility.yul\":25122:25148   */\n      swap1\n      pop\n        /* \"#utility.yul\":25194:25203   */\n      dup2\n        /* \"#utility.yul\":25188:25192   */\n      dup2\n        /* \"#utility.yul\":25184:25204   */\n      sub\n        /* \"#utility.yul\":25180:25181   */\n      0x00\n        /* \"#utility.yul\":25169:25178   */\n      dup4\n        /* \"#utility.yul\":25165:25182   */\n      add\n        /* \"#utility.yul\":25158:25205   */\n      mstore\n        /* \"#utility.yul\":25222:25353   */\n      tag_796\n        /* \"#utility.yul\":25348:25352   */\n      dup2\n        /* \"#utility.yul\":25222:25353   */\n      tag_529\n      jump\t// in\n    tag_796:\n        /* \"#utility.yul\":25214:25353   */\n      swap1\n      pop\n        /* \"#utility.yul\":24941:25360   */\n      swap2\n      swap1\n      pop\n      jump\t// out\n        /* \"#utility.yul\":25366:25533   */\n    tag_530:\n        /* \"#utility.yul\":25506:25525   */\n      0x4e6f2063686172676520616d6f756e7421000000000000000000000000000000\n        /* \"#utility.yul\":25502:25503   */\n      0x00\n        /* \"#utility.yul\":25494:25500   */\n      dup3\n        /* \"#utility.yul\":25490:25504   */\n      add\n        /* \"#utility.yul\":25483:25526   */\n      mstore\n        /* \"#utility.yul\":25366:25533   */\n      pop\n      jump\t// out\n        /* \"#utility.yul\":25539:25905   */\n    tag_531:\n        /* \"#utility.yul\":25681:25684   */\n      0x00\n        /* \"#utility.yul\":25702:25769   */\n      tag_799\n        /* \"#utility.yul\":25766:25768   */\n      0x11\n        /* \"#utility.yul\":25761:25764   */\n      dup4\n        /* \"#utility.yul\":25702:25769   */\n      tag_488\n      jump\t// in\n    tag_799:\n        /* \"#utility.yul\":25695:25769   */\n      swap2\n      pop\n        /* \"#utility.yul\":25778:25871   */\n      tag_800\n        /* \"#utility.yul\":25867:25870   */\n      dup3\n        /* \"#utility.yul\":25778:25871   */\n      tag_530\n      jump\t// in\n    tag_800:\n        /* \"#utility.yul\":25896:25898   */\n      0x20\n        /* \"#utility.yul\":25891:25894   */\n      dup3\n        /* \"#utility.yul\":25887:25899   */\n      add\n        /* \"#utility.yul\":25880:25899   */\n      swap1\n      pop\n        /* \"#utility.yul\":25539:25905   */\n      swap2\n      swap1\n      pop\n      jump\t// out\n        /* \"#utility.yul\":25911:26330   */\n    tag_331:\n        /* \"#utility.yul\":26077:26081   */\n      0x00\n        /* \"#utility.yul\":26115:26117   */\n      0x20\n        /* \"#utility.yul\":26104:26113   */\n      dup3\n        /* \"#utility.yul\":26100:26118   */\n      add\n        /* \"#utility.yul\":26092:26118   */\n      swap1\n      pop\n        /* \"#utility.yul\":26164:26173   */\n      dup2\n        /* \"#utility.yul\":26158:26162   */\n      dup2\n        /* \"#utility.yul\":26154:26174   */\n      sub\n        /* \"#utility.yul\":26150:26151   */\n      0x00\n        /* \"#utility.yul\":26139:26148   */\n      dup4\n        /* \"#utility.yul\":26135:26152   */\n      add\n        /* \"#utility.yul\":26128:26175   */\n      mstore\n        /* \"#utility.yul\":26192:26323   */\n      tag_802\n        /* \"#utility.yul\":26318:26322   */\n      dup2\n        /* \"#utility.yul\":26192:26323   */\n      tag_531\n      jump\t// in\n    tag_802:\n        /* \"#utility.yul\":26184:26323   */\n      swap1\n      pop\n        /* \"#utility.yul\":25911:26330   */\n      swap2\n      swap1\n      pop\n      jump\t// out\n        /* \"#utility.yul\":26336:26524   */\n    tag_532:\n        /* \"#utility.yul\":26505:26517   */\n      0x436865636b207468652000000000000000000000000000000000000000000000\n        /* \"#utility.yul\":26500:26503   */\n      dup2\n        /* \"#utility.yul\":26493:26518   */\n      mstore\n        /* \"#utility.yul\":26336:26524   */\n      pop\n      jump\t// out\n        /* \"#utility.yul\":26530:26678   */\n    tag_533:\n        /* \"#utility.yul\":26632:26643   */\n      0x00\n        /* \"#utility.yul\":26669:26672   */\n      dup2\n        /* \"#utility.yul\":26654:26672   */\n      swap1\n      pop\n        /* \"#utility.yul\":26530:26678   */\n      swap3\n      swap2\n      pop\n      pop\n      jump\t// out\n        /* \"#utility.yul\":26684:27074   */\n    tag_534:\n        /* \"#utility.yul\":26790:26793   */\n      0x00\n        /* \"#utility.yul\":26818:26857   */\n      tag_806\n        /* \"#utility.yul\":26851:26856   */\n      dup3\n        /* \"#utility.yul\":26818:26857   */\n      tag_487\n      jump\t// in\n    tag_806:\n        /* \"#utility.yul\":26873:26962   */\n      tag_807\n        /* \"#utility.yul\":26955:26961   */\n      dup2\n        /* \"#utility.yul\":26950:26953   */\n      dup6\n        /* \"#utility.yul\":26873:26962   */\n      tag_533\n      jump\t// in\n    tag_807:\n        /* \"#utility.yul\":26866:26962   */\n      swap4\n      pop\n        /* \"#utility.yul\":26971:27036   */\n      tag_808\n        /* \"#utility.yul\":27029:27035   */\n      dup2\n        /* \"#utility.yul\":27024:27027   */\n      dup6\n        /* \"#utility.yul\":27017:27021   */\n      0x20\n        /* \"#utility.yul\":27010:27015   */\n      dup7\n        /* \"#utility.yul\":27006:27022   */\n      add\n        /* \"#utility.yul\":26971:27036   */\n      tag_489\n      jump\t// in\n    tag_808:\n        /* \"#utility.yul\":27061:27067   */\n      dup1\n        /* \"#utility.yul\":27056:27059   */\n      dup5\n        /* \"#utility.yul\":27052:27068   */\n      add\n        /* \"#utility.yul\":27045:27068   */\n      swap2\n      pop\n        /* \"#utility.yul\":26794:27074   */\n      pop\n        /* \"#utility.yul\":26684:27074   */\n      swap3\n      swap2\n      pop\n      pop\n      jump\t// out\n        /* \"#utility.yul\":27080:27264   */\n    tag_535:\n        /* \"#utility.yul\":27248:27257   */\n      0x20746f6b656e2000000000000000000000000000000000000000000000000000\n        /* \"#utility.yul\":27243:27246   */\n      dup2\n        /* \"#utility.yul\":27236:27258   */\n      mstore\n        /* \"#utility.yul\":27080:27264   */\n      pop\n      jump\t// out\n        /* \"#utility.yul\":27270:27458   */\n    tag_536:\n        /* \"#utility.yul\":27439:27451   */\n      0x616c6c6f77616e63652100000000000000000000000000000000000000000000\n        /* \"#utility.yul\":27434:27437   */\n      dup2\n        /* \"#utility.yul\":27427:27452   */\n      mstore\n        /* \"#utility.yul\":27270:27458   */\n      pop\n      jump\t// out\n        /* \"#utility.yul\":27464:28537   */\n    tag_337:\n        /* \"#utility.yul\":27868:27871   */\n      0x00\n        /* \"#utility.yul\":27883:28021   */\n      tag_812\n        /* \"#utility.yul\":28017:28020   */\n      dup3\n        /* \"#utility.yul\":27883:28021   */\n      tag_532\n      jump\t// in\n    tag_812:\n        /* \"#utility.yul\":28046:28048   */\n      0x0a\n        /* \"#utility.yul\":28041:28044   */\n      dup3\n        /* \"#utility.yul\":28037:28049   */\n      add\n        /* \"#utility.yul\":28030:28049   */\n      swap2\n      pop\n        /* \"#utility.yul\":28066:28161   */\n      tag_813\n        /* \"#utility.yul\":28157:28160   */\n      dup3\n        /* \"#utility.yul\":28148:28154   */\n      dup5\n        /* \"#utility.yul\":28066:28161   */\n      tag_534\n      jump\t// in\n    tag_813:\n        /* \"#utility.yul\":28059:28161   */\n      swap2\n      pop\n        /* \"#utility.yul\":28171:28308   */\n      tag_814\n        /* \"#utility.yul\":28304:28307   */\n      dup3\n        /* \"#utility.yul\":28171:28308   */\n      tag_535\n      jump\t// in\n    tag_814:\n        /* \"#utility.yul\":28333:28334   */\n      0x07\n        /* \"#utility.yul\":28328:28331   */\n      dup3\n        /* \"#utility.yul\":28324:28335   */\n      add\n        /* \"#utility.yul\":28317:28335   */\n      swap2\n      pop\n        /* \"#utility.yul\":28345:28483   */\n      tag_815\n        /* \"#utility.yul\":28479:28482   */\n      dup3\n        /* \"#utility.yul\":28345:28483   */\n      tag_536\n      jump\t// in\n    tag_815:\n        /* \"#utility.yul\":28508:28510   */\n      0x0a\n        /* \"#utility.yul\":28503:28506   */\n      dup3\n        /* \"#utility.yul\":28499:28511   */\n      add\n        /* \"#utility.yul\":28492:28511   */\n      swap2\n      pop\n        /* \"#utility.yul\":28528:28531   */\n      dup2\n        /* \"#utility.yul\":28521:28531   */\n      swap1\n      pop\n        /* \"#utility.yul\":27464:28537   */\n      swap3\n      swap2\n      pop\n      pop\n      jump\t// out\n        /* \"#utility.yul\":28543:28704   */\n    tag_537:\n        /* \"#utility.yul\":28683:28696   */\n      0x72617465206572726f7221000000000000000000000000000000000000000000\n        /* \"#utility.yul\":28679:28680   */\n      0x00\n        /* \"#utility.yul\":28671:28677   */\n      dup3\n        /* \"#utility.yul\":28667:28681   */\n      add\n        /* \"#utility.yul\":28660:28697   */\n      mstore\n        /* \"#utility.yul\":28543:28704   */\n      pop\n      jump\t// out\n        /* \"#utility.yul\":28710:29076   */\n    tag_538:\n        /* \"#utility.yul\":28852:28855   */\n      0x00\n        /* \"#utility.yul\":28873:28940   */\n      tag_818\n        /* \"#utility.yul\":28937:28939   */\n      0x0b\n        /* \"#utility.yul\":28932:28935   */\n      dup4\n        /* \"#utility.yul\":28873:28940   */\n      tag_488\n      jump\t// in\n    tag_818:\n        /* \"#utility.yul\":28866:28940   */\n      swap2\n      pop\n        /* \"#utility.yul\":28949:29042   */\n      tag_819\n        /* \"#utility.yul\":29038:29041   */\n      dup3\n        /* \"#utility.yul\":28949:29042   */\n      tag_537\n      jump\t// in\n    tag_819:\n        /* \"#utility.yul\":29067:29069   */\n      0x20\n        /* \"#utility.yul\":29062:29065   */\n      dup3\n        /* \"#utility.yul\":29058:29070   */\n      add\n        /* \"#utility.yul\":29051:29070   */\n      swap1\n      pop\n        /* \"#utility.yul\":28710:29076   */\n      swap2\n      swap1\n      pop\n      jump\t// out\n        /* \"#utility.yul\":29082:29501   */\n    tag_346:\n        /* \"#utility.yul\":29248:29252   */\n      0x00\n        /* \"#utility.yul\":29286:29288   */\n      0x20\n        /* \"#utility.yul\":29275:29284   */\n      dup3\n        /* \"#utility.yul\":29271:29289   */\n      add\n        /* \"#utility.yul\":29263:29289   */\n      swap1\n      pop\n        /* \"#utility.yul\":29335:29344   */\n      dup2\n        /* \"#utility.yul\":29329:29333   */\n      dup2\n        /* \"#utility.yul\":29325:29345   */\n      sub\n        /* \"#utility.yul\":29321:29322   */\n      0x00\n        /* \"#utility.yul\":29310:29319   */\n      dup4\n        /* \"#utility.yul\":29306:29323   */\n      add\n        /* \"#utility.yul\":29299:29346   */\n      mstore\n        /* \"#utility.yul\":29363:29494   */\n      tag_821\n        /* \"#utility.yul\":29489:29493   */\n      dup2\n        /* \"#utility.yul\":29363:29494   */\n      tag_538\n      jump\t// in\n    tag_821:\n        /* \"#utility.yul\":29355:29494   */\n      swap1\n      pop\n        /* \"#utility.yul\":29082:29501   */\n      swap2\n      swap1\n      pop\n      jump\t// out\n        /* \"#utility.yul\":29507:29698   */\n    tag_350:\n        /* \"#utility.yul\":29547:29550   */\n      0x00\n        /* \"#utility.yul\":29566:29586   */\n      tag_823\n        /* \"#utility.yul\":29584:29585   */\n      dup3\n        /* \"#utility.yul\":29566:29586   */\n      tag_476\n      jump\t// in\n    tag_823:\n        /* \"#utility.yul\":29561:29586   */\n      swap2\n      pop\n        /* \"#utility.yul\":29600:29620   */\n      tag_824\n        /* \"#utility.yul\":29618:29619   */\n      dup4\n        /* \"#utility.yul\":29600:29620   */\n      tag_476\n      jump\t// in\n    tag_824:\n        /* \"#utility.yul\":29595:29620   */\n      swap3\n      pop\n        /* \"#utility.yul\":29643:29644   */\n      dup3\n        /* \"#utility.yul\":29640:29641   */\n      dup3\n        /* \"#utility.yul\":29636:29645   */\n      add\n        /* \"#utility.yul\":29629:29645   */\n      swap1\n      pop\n        /* \"#utility.yul\":29664:29667   */\n      dup1\n        /* \"#utility.yul\":29661:29662   */\n      dup3\n        /* \"#utility.yul\":29658:29668   */\n      gt\n        /* \"#utility.yul\":29655:29691   */\n      iszero\n      tag_825\n      jumpi\n        /* \"#utility.yul\":29671:29689   */\n      tag_826\n      tag_498\n      jump\t// in\n    tag_826:\n        /* \"#utility.yul\":29655:29691   */\n    tag_825:\n        /* \"#utility.yul\":29507:29698   */\n      swap3\n      swap2\n      pop\n      pop\n      jump\t// out\n        /* \"#utility.yul\":29704:30348   */\n    tag_354:\n        /* \"#utility.yul\":29901:29905   */\n      0x00\n        /* \"#utility.yul\":29939:29942   */\n      0x80\n        /* \"#utility.yul\":29928:29937   */\n      dup3\n        /* \"#utility.yul\":29924:29943   */\n      add\n        /* \"#utility.yul\":29916:29943   */\n      swap1\n      pop\n        /* \"#utility.yul\":29953:30024   */\n      tag_828\n        /* \"#utility.yul\":30021:30022   */\n      0x00\n        /* \"#utility.yul\":30010:30019   */\n      dup4\n        /* \"#utility.yul\":30006:30023   */\n      add\n        /* \"#utility.yul\":29997:30003   */\n      dup8\n        /* \"#utility.yul\":29953:30024   */\n      tag_484\n      jump\t// in\n    tag_828:\n        /* \"#utility.yul\":30034:30106   */\n      tag_829\n        /* \"#utility.yul\":30102:30104   */\n      0x20\n        /* \"#utility.yul\":30091:30100   */\n      dup4\n        /* \"#utility.yul\":30087:30105   */\n      add\n        /* \"#utility.yul\":30078:30084   */\n      dup7\n        /* \"#utility.yul\":30034:30106   */\n      tag_484\n      jump\t// in\n    tag_829:\n        /* \"#utility.yul\":30116:30188   */\n      tag_830\n        /* \"#utility.yul\":30184:30186   */\n      0x40\n        /* \"#utility.yul\":30173:30182   */\n      dup4\n        /* \"#utility.yul\":30169:30187   */\n      add\n        /* \"#utility.yul\":30160:30166   */\n      dup6\n        /* \"#utility.yul\":30116:30188   */\n      tag_484\n      jump\t// in\n    tag_830:\n        /* \"#utility.yul\":30235:30244   */\n      dup2\n        /* \"#utility.yul\":30229:30233   */\n      dup2\n        /* \"#utility.yul\":30225:30245   */\n      sub\n        /* \"#utility.yul\":30220:30222   */\n      0x60\n        /* \"#utility.yul\":30209:30218   */\n      dup4\n        /* \"#utility.yul\":30205:30223   */\n      add\n        /* \"#utility.yul\":30198:30246   */\n      mstore\n        /* \"#utility.yul\":30263:30341   */\n      tag_831\n        /* \"#utility.yul\":30336:30340   */\n      dup2\n        /* \"#utility.yul\":30327:30333   */\n      dup5\n        /* \"#utility.yul\":30263:30341   */\n      tag_491\n      jump\t// in\n    tag_831:\n        /* \"#utility.yul\":30255:30341   */\n      swap1\n      pop\n        /* \"#utility.yul\":29704:30348   */\n      swap6\n      swap5\n      pop\n      pop\n      pop\n      pop\n      pop\n      jump\t// out\n        /* \"#utility.yul\":30354:30579   */\n    tag_539:\n        /* \"#utility.yul\":30494:30528   */\n      0x4f776e61626c653a206e6577206f776e657220697320746865207a65726f2061\n        /* \"#utility.yul\":30490:30491   */\n      0x00\n        /* \"#utility.yul\":30482:30488   */\n      dup3\n        /* \"#utility.yul\":30478:30492   */\n      add\n        /* \"#utility.yul\":30471:30529   */\n      mstore\n        /* \"#utility.yul\":30563:30571   */\n      0x6464726573730000000000000000000000000000000000000000000000000000\n        /* \"#utility.yul\":30558:30560   */\n      0x20\n        /* \"#utility.yul\":30550:30556   */\n      dup3\n        /* \"#utility.yul\":30546:30561   */\n      add\n        /* \"#utility.yul\":30539:30572   */\n      mstore\n        /* \"#utility.yul\":30354:30579   */\n      pop\n      jump\t// out\n        /* \"#utility.yul\":30585:30951   */\n    tag_540:\n        /* \"#utility.yul\":30727:30730   */\n      0x00\n        /* \"#utility.yul\":30748:30815   */\n      tag_834\n        /* \"#utility.yul\":30812:30814   */\n      0x26\n        /* \"#utility.yul\":30807:30810   */\n      dup4\n        /* \"#utility.yul\":30748:30815   */\n      tag_488\n      jump\t// in\n    tag_834:\n        /* \"#utility.yul\":30741:30815   */\n      swap2\n      pop\n        /* \"#utility.yul\":30824:30917   */\n      tag_835\n        /* \"#utility.yul\":30913:30916   */\n      dup3\n        /* \"#utility.yul\":30824:30917   */\n      tag_539\n      jump\t// in\n    tag_835:\n        /* \"#utility.yul\":30942:30944   */\n      0x40\n        /* \"#utility.yul\":30937:30940   */\n      dup3\n        /* \"#utility.yul\":30933:30945   */\n      add\n        /* \"#utility.yul\":30926:30945   */\n      swap1\n      pop\n        /* \"#utility.yul\":30585:30951   */\n      swap2\n      swap1\n      pop\n      jump\t// out\n        /* \"#utility.yul\":30957:31376   */\n    tag_364:\n        /* \"#utility.yul\":31123:31127   */\n      0x00\n        /* \"#utility.yul\":31161:31163   */\n      0x20\n        /* \"#utility.yul\":31150:31159   */\n      dup3\n        /* \"#utility.yul\":31146:31164   */\n      add\n        /* \"#utility.yul\":31138:31164   */\n      swap1\n      pop\n        /* \"#utility.yul\":31210:31219   */\n      dup2\n        /* \"#utility.yul\":31204:31208   */\n      dup2\n        /* \"#utility.yul\":31200:31220   */\n      sub\n        /* \"#utility.yul\":31196:31197   */\n      0x00\n        /* \"#utility.yul\":31185:31194   */\n      dup4\n        /* \"#utility.yul\":31181:31198   */\n      add\n        /* \"#utility.yul\":31174:31221   */\n      mstore\n        /* \"#utility.yul\":31238:31369   */\n      tag_837\n        /* \"#utility.yul\":31364:31368   */\n      dup2\n        /* \"#utility.yul\":31238:31369   */\n      tag_540\n      jump\t// in\n    tag_837:\n        /* \"#utility.yul\":31230:31369   */\n      swap1\n      pop\n        /* \"#utility.yul\":30957:31376   */\n      swap2\n      swap1\n      pop\n      jump\t// out\n        /* \"#utility.yul\":31382:31564   */\n    tag_541:\n        /* \"#utility.yul\":31522:31556   */\n      0x4f776e61626c653a2063616c6c6572206973206e6f7420746865206f776e6572\n        /* \"#utility.yul\":31518:31519   */\n      0x00\n        /* \"#utility.yul\":31510:31516   */\n      dup3\n        /* \"#utility.yul\":31506:31520   */\n      add\n        /* \"#utility.yul\":31499:31557   */\n      mstore\n        /* \"#utility.yul\":31382:31564   */\n      pop\n      jump\t// out\n        /* \"#utility.yul\":31570:31936   */\n    tag_542:\n        /* \"#utility.yul\":31712:31715   */\n      0x00\n        /* \"#utility.yul\":31733:31800   */\n      tag_840\n        /* \"#utility.yul\":31797:31799   */\n      0x20\n        /* \"#utility.yul\":31792:31795   */\n      dup4\n        /* \"#utility.yul\":31733:31800   */\n      tag_488\n      jump\t// in\n    tag_840:\n        /* \"#utility.yul\":31726:31800   */\n      swap2\n      pop\n        /* \"#utility.yul\":31809:31902   */\n      tag_841\n        /* \"#utility.yul\":31898:31901   */\n      dup3\n        /* \"#utility.yul\":31809:31902   */\n      tag_541\n      jump\t// in\n    tag_841:\n        /* \"#utility.yul\":31927:31929   */\n      0x20\n        /* \"#utility.yul\":31922:31925   */\n      dup3\n        /* \"#utility.yul\":31918:31930   */\n      add\n        /* \"#utility.yul\":31911:31930   */\n      swap1\n      pop\n        /* \"#utility.yul\":31570:31936   */\n      swap2\n      swap1\n      pop\n      jump\t// out\n        /* \"#utility.yul\":31942:32361   */\n    tag_372:\n        /* \"#utility.yul\":32108:32112   */\n      0x00\n        /* \"#utility.yul\":32146:32148   */\n      0x20\n        /* \"#utility.yul\":32135:32144   */\n      dup3\n        /* \"#utility.yul\":32131:32149   */\n      add\n        /* \"#utility.yul\":32123:32149   */\n      swap1\n      pop\n        /* \"#utility.yul\":32195:32204   */\n      dup2\n        /* \"#utility.yul\":32189:32193   */\n      dup2\n        /* \"#utility.yul\":32185:32205   */\n      sub\n        /* \"#utility.yul\":32181:32182   */\n      0x00\n        /* \"#utility.yul\":32170:32179   */\n      dup4\n        /* \"#utility.yul\":32166:32183   */\n      add\n        /* \"#utility.yul\":32159:32206   */\n      mstore\n        /* \"#utility.yul\":32223:32354   */\n      tag_843\n        /* \"#utility.yul\":32349:32353   */\n      dup2\n        /* \"#utility.yul\":32223:32354   */\n      tag_542\n      jump\t// in\n    tag_843:\n        /* \"#utility.yul\":32215:32354   */\n      swap1\n      pop\n        /* \"#utility.yul\":31942:32361   */\n      swap2\n      swap1\n      pop\n      jump\t// out\n        /* \"#utility.yul\":32367:32537   */\n    tag_543:\n        /* \"#utility.yul\":32507:32529   */\n      0x5061757361626c653a206e6f7420706175736564000000000000000000000000\n        /* \"#utility.yul\":32503:32504   */\n      0x00\n        /* \"#utility.yul\":32495:32501   */\n      dup3\n        /* \"#utility.yul\":32491:32505   */\n      add\n        /* \"#utility.yul\":32484:32530   */\n      mstore\n        /* \"#utility.yul\":32367:32537   */\n      pop\n      jump\t// out\n        /* \"#utility.yul\":32543:32909   */\n    tag_544:\n        /* \"#utility.yul\":32685:32688   */\n      0x00\n        /* \"#utility.yul\":32706:32773   */\n      tag_846\n        /* \"#utility.yul\":32770:32772   */\n      0x14\n        /* \"#utility.yul\":32765:32768   */\n      dup4\n        /* \"#utility.yul\":32706:32773   */\n      tag_488\n      jump\t// in\n    tag_846:\n        /* \"#utility.yul\":32699:32773   */\n      swap2\n      pop\n        /* \"#utility.yul\":32782:32875   */\n      tag_847\n        /* \"#utility.yul\":32871:32874   */\n      dup3\n        /* \"#utility.yul\":32782:32875   */\n      tag_543\n      jump\t// in\n    tag_847:\n        /* \"#utility.yul\":32900:32902   */\n      0x20\n        /* \"#utility.yul\":32895:32898   */\n      dup3\n        /* \"#utility.yul\":32891:32903   */\n      add\n        /* \"#utility.yul\":32884:32903   */\n      swap1\n      pop\n        /* \"#utility.yul\":32543:32909   */\n      swap2\n      swap1\n      pop\n      jump\t// out\n        /* \"#utility.yul\":32915:33334   */\n    tag_377:\n        /* \"#utility.yul\":33081:33085   */\n      0x00\n        /* \"#utility.yul\":33119:33121   */\n      0x20\n        /* \"#utility.yul\":33108:33117   */\n      dup3\n        /* \"#utility.yul\":33104:33122   */\n      add\n        /* \"#utility.yul\":33096:33122   */\n      swap1\n      pop\n        /* \"#utility.yul\":33168:33177   */\n      dup2\n        /* \"#utility.yul\":33162:33166   */\n      dup2\n        /* \"#utility.yul\":33158:33178   */\n      sub\n        /* \"#utility.yul\":33154:33155   */\n      0x00\n        /* \"#utility.yul\":33143:33152   */\n      dup4\n        /* \"#utility.yul\":33139:33156   */\n      add\n        /* \"#utility.yul\":33132:33179   */\n      mstore\n        /* \"#utility.yul\":33196:33327   */\n      tag_849\n        /* \"#utility.yul\":33322:33326   */\n      dup2\n        /* \"#utility.yul\":33196:33327   */\n      tag_544\n      jump\t// in\n    tag_849:\n        /* \"#utility.yul\":33188:33327   */\n      swap1\n      pop\n        /* \"#utility.yul\":32915:33334   */\n      swap2\n      swap1\n      pop\n      jump\t// out\n        /* \"#utility.yul\":33340:33506   */\n    tag_545:\n        /* \"#utility.yul\":33480:33498   */\n      0x5061757361626c653a2070617573656400000000000000000000000000000000\n        /* \"#utility.yul\":33476:33477   */\n      0x00\n        /* \"#utility.yul\":33468:33474   */\n      dup3\n        /* \"#utility.yul\":33464:33478   */\n      add\n        /* \"#utility.yul\":33457:33499   */\n      mstore\n        /* \"#utility.yul\":33340:33506   */\n      pop\n      jump\t// out\n        /* \"#utility.yul\":33512:33878   */\n    tag_546:\n        /* \"#utility.yul\":33654:33657   */\n      0x00\n        /* \"#utility.yul\":33675:33742   */\n      tag_852\n        /* \"#utility.yul\":33739:33741   */\n      0x10\n        /* \"#utility.yul\":33734:33737   */\n      dup4\n        /* \"#utility.yul\":33675:33742   */\n      tag_488\n      jump\t// in\n    tag_852:\n        /* \"#utility.yul\":33668:33742   */\n      swap2\n      pop\n        /* \"#utility.yul\":33751:33844   */\n      tag_853\n        /* \"#utility.yul\":33840:33843   */\n      dup3\n        /* \"#utility.yul\":33751:33844   */\n      tag_545\n      jump\t// in\n    tag_853:\n        /* \"#utility.yul\":33869:33871   */\n      0x20\n        /* \"#utility.yul\":33864:33867   */\n      dup3\n        /* \"#utility.yul\":33860:33872   */\n      add\n        /* \"#utility.yul\":33853:33872   */\n      swap1\n      pop\n        /* \"#utility.yul\":33512:33878   */\n      swap2\n      swap1\n      pop\n      jump\t// out\n        /* \"#utility.yul\":33884:34303   */\n    tag_387:\n        /* \"#utility.yul\":34050:34054   */\n      0x00\n        /* \"#utility.yul\":34088:34090   */\n      0x20\n        /* \"#utility.yul\":34077:34086   */\n      dup3\n        /* \"#utility.yul\":34073:34091   */\n      add\n        /* \"#utility.yul\":34065:34091   */\n      swap1\n      pop\n        /* \"#utility.yul\":34137:34146   */\n      dup2\n        /* \"#utility.yul\":34131:34135   */\n      dup2\n        /* \"#utility.yul\":34127:34147   */\n      sub\n        /* \"#utility.yul\":34123:34124   */\n      0x00\n        /* \"#utility.yul\":34112:34121   */\n      dup4\n        /* \"#utility.yul\":34108:34125   */\n      add\n        /* \"#utility.yul\":34101:34148   */\n      mstore\n        /* \"#utility.yul\":34165:34296   */\n      tag_855\n        /* \"#utility.yul\":34291:34295   */\n      dup2\n        /* \"#utility.yul\":34165:34296   */\n      tag_546\n      jump\t// in\n    tag_855:\n        /* \"#utility.yul\":34157:34296   */\n      swap1\n      pop\n        /* \"#utility.yul\":33884:34303   */\n      swap2\n      swap1\n      pop\n      jump\t// out\n        /* \"#utility.yul\":34309:35302   */\n    tag_407:\n        /* \"#utility.yul\":34416:34422   */\n      0x00\n        /* \"#utility.yul\":34424:34430   */\n      dup1\n        /* \"#utility.yul\":34432:34438   */\n      0x00\n        /* \"#utility.yul\":34440:34446   */\n      dup1\n        /* \"#utility.yul\":34489:34492   */\n      0x80\n        /* \"#utility.yul\":34477:34486   */\n      dup6\n        /* \"#utility.yul\":34468:34475   */\n      dup8\n        /* \"#utility.yul\":34464:34487   */\n      sub\n        /* \"#utility.yul\":34460:34493   */\n      slt\n        /* \"#utility.yul\":34457:34577   */\n      iszero\n      tag_857\n      jumpi\n        /* \"#utility.yul\":34496:34575   */\n      tag_858\n      tag_474\n      jump\t// in\n    tag_858:\n        /* \"#utility.yul\":34457:34577   */\n    tag_857:\n        /* \"#utility.yul\":34616:34617   */\n      0x00\n        /* \"#utility.yul\":34641:34705   */\n      tag_859\n        /* \"#utility.yul\":34697:34704   */\n      dup8\n        /* \"#utility.yul\":34688:34694   */\n      dup3\n        /* \"#utility.yul\":34677:34686   */\n      dup9\n        /* \"#utility.yul\":34673:34695   */\n      add\n        /* \"#utility.yul\":34641:34705   */\n      tag_511\n      jump\t// in\n    tag_859:\n        /* \"#utility.yul\":34631:34705   */\n      swap5\n      pop\n        /* \"#utility.yul\":34587:34715   */\n      pop\n        /* \"#utility.yul\":34754:34756   */\n      0x20\n        /* \"#utility.yul\":34780:34844   */\n      tag_860\n        /* \"#utility.yul\":34836:34843   */\n      dup8\n        /* \"#utility.yul\":34827:34833   */\n      dup3\n        /* \"#utility.yul\":34816:34825   */\n      dup9\n        /* \"#utility.yul\":34812:34834   */\n      add\n        /* \"#utility.yul\":34780:34844   */\n      tag_511\n      jump\t// in\n    tag_860:\n        /* \"#utility.yul\":34770:34844   */\n      swap4\n      pop\n        /* \"#utility.yul\":34725:34854   */\n      pop\n        /* \"#utility.yul\":34914:34916   */\n      0x40\n        /* \"#utility.yul\":34903:34912   */\n      dup6\n        /* \"#utility.yul\":34899:34917   */\n      add\n        /* \"#utility.yul\":34893:34918   */\n      mload\n        /* \"#utility.yul\":34945:34963   */\n      0xffffffffffffffff\n        /* \"#utility.yul\":34937:34943   */\n      dup2\n        /* \"#utility.yul\":34934:34964   */\n      gt\n        /* \"#utility.yul\":34931:35048   */\n      iszero\n      tag_861\n      jumpi\n        /* \"#utility.yul\":34967:35046   */\n      tag_862\n      tag_475\n      jump\t// in\n    tag_862:\n        /* \"#utility.yul\":34931:35048   */\n    tag_861:\n        /* \"#utility.yul\":35072:35146   */\n      tag_863\n        /* \"#utility.yul\":35138:35145   */\n      dup8\n        /* \"#utility.yul\":35129:35135   */\n      dup3\n        /* \"#utility.yul\":35118:35127   */\n      dup9\n        /* \"#utility.yul\":35114:35136   */\n      add\n        /* \"#utility.yul\":35072:35146   */\n      tag_525\n      jump\t// in\n    tag_863:\n        /* \"#utility.yul\":35062:35146   */\n      swap3\n      pop\n        /* \"#utility.yul\":34864:35156   */\n      pop\n        /* \"#utility.yul\":35195:35197   */\n      0x60\n        /* \"#utility.yul\":35221:35285   */\n      tag_864\n        /* \"#utility.yul\":35277:35284   */\n      dup8\n        /* \"#utility.yul\":35268:35274   */\n      dup3\n        /* \"#utility.yul\":35257:35266   */\n      dup9\n        /* \"#utility.yul\":35253:35275   */\n      add\n        /* \"#utility.yul\":35221:35285   */\n      tag_511\n      jump\t// in\n    tag_864:\n        /* \"#utility.yul\":35211:35285   */\n      swap2\n      pop\n        /* \"#utility.yul\":35166:35295   */\n      pop\n        /* \"#utility.yul\":34309:35302   */\n      swap3\n      swap6\n      swap2\n      swap5\n      pop\n      swap3\n      pop\n      jump\t// out\n        /* \"#utility.yul\":35308:36154   */\n    tag_414:\n        /* \"#utility.yul\":35553:35557   */\n      0x00\n        /* \"#utility.yul\":35591:35594   */\n      0xa0\n        /* \"#utility.yul\":35580:35589   */\n      dup3\n        /* \"#utility.yul\":35576:35595   */\n      add\n        /* \"#utility.yul\":35568:35595   */\n      swap1\n      pop\n        /* \"#utility.yul\":35605:35676   */\n      tag_866\n        /* \"#utility.yul\":35673:35674   */\n      0x00\n        /* \"#utility.yul\":35662:35671   */\n      dup4\n        /* \"#utility.yul\":35658:35675   */\n      add\n        /* \"#utility.yul\":35649:35655   */\n      dup9\n        /* \"#utility.yul\":35605:35676   */\n      tag_484\n      jump\t// in\n    tag_866:\n        /* \"#utility.yul\":35686:35758   */\n      tag_867\n        /* \"#utility.yul\":35754:35756   */\n      0x20\n        /* \"#utility.yul\":35743:35752   */\n      dup4\n        /* \"#utility.yul\":35739:35757   */\n      add\n        /* \"#utility.yul\":35730:35736   */\n      dup8\n        /* \"#utility.yul\":35686:35758   */\n      tag_484\n      jump\t// in\n    tag_867:\n        /* \"#utility.yul\":35805:35814   */\n      dup2\n        /* \"#utility.yul\":35799:35803   */\n      dup2\n        /* \"#utility.yul\":35795:35815   */\n      sub\n        /* \"#utility.yul\":35790:35792   */\n      0x40\n        /* \"#utility.yul\":35779:35788   */\n      dup4\n        /* \"#utility.yul\":35775:35793   */\n      add\n        /* \"#utility.yul\":35768:35816   */\n      mstore\n        /* \"#utility.yul\":35833:35911   */\n      tag_868\n        /* \"#utility.yul\":35906:35910   */\n      dup2\n        /* \"#utility.yul\":35897:35903   */\n      dup7\n        /* \"#utility.yul\":35833:35911   */\n      tag_491\n      jump\t// in\n    tag_868:\n        /* \"#utility.yul\":35825:35911   */\n      swap1\n      pop\n        /* \"#utility.yul\":35921:35993   */\n      tag_869\n        /* \"#utility.yul\":35989:35991   */\n      0x60\n        /* \"#utility.yul\":35978:35987   */\n      dup4\n        /* \"#utility.yul\":35974:35992   */\n      add\n        /* \"#utility.yul\":35965:35971   */\n      dup6\n        /* \"#utility.yul\":35921:35993   */\n      tag_484\n      jump\t// in\n    tag_869:\n        /* \"#utility.yul\":36041:36050   */\n      dup2\n        /* \"#utility.yul\":36035:36039   */\n      dup2\n        /* \"#utility.yul\":36031:36051   */\n      sub\n        /* \"#utility.yul\":36025:36028   */\n      0x80\n        /* \"#utility.yul\":36014:36023   */\n      dup4\n        /* \"#utility.yul\":36010:36029   */\n      add\n        /* \"#utility.yul\":36003:36052   */\n      mstore\n        /* \"#utility.yul\":36069:36147   */\n      tag_870\n        /* \"#utility.yul\":36142:36146   */\n      dup2\n        /* \"#utility.yul\":36133:36139   */\n      dup5\n        /* \"#utility.yul\":36069:36147   */\n      tag_491\n      jump\t// in\n    tag_870:\n        /* \"#utility.yul\":36061:36147   */\n      swap1\n      pop\n        /* \"#utility.yul\":35308:36154   */\n      swap7\n      swap6\n      pop\n      pop\n      pop\n      pop\n      pop\n      pop\n      jump\t// out\n        /* \"#utility.yul\":36160:36602   */\n    tag_422:\n        /* \"#utility.yul\":36309:36313   */\n      0x00\n        /* \"#utility.yul\":36347:36349   */\n      0x60\n        /* \"#utility.yul\":36336:36345   */\n      dup3\n        /* \"#utility.yul\":36332:36350   */\n      add\n        /* \"#utility.yul\":36324:36350   */\n      swap1\n      pop\n        /* \"#utility.yul\":36360:36431   */\n      tag_872\n        /* \"#utility.yul\":36428:36429   */\n      0x00\n        /* \"#utility.yul\":36417:36426   */\n      dup4\n        /* \"#utility.yul\":36413:36430   */\n      add\n        /* \"#utility.yul\":36404:36410   */\n      dup7\n        /* \"#utility.yul\":36360:36431   */\n      tag_483\n      jump\t// in\n    tag_872:\n        /* \"#utility.yul\":36441:36513   */\n      tag_873\n        /* \"#utility.yul\":36509:36511   */\n      0x20\n        /* \"#utility.yul\":36498:36507   */\n      dup4\n        /* \"#utility.yul\":36494:36512   */\n      add\n        /* \"#utility.yul\":36485:36491   */\n      dup6\n        /* \"#utility.yul\":36441:36513   */\n      tag_483\n      jump\t// in\n    tag_873:\n        /* \"#utility.yul\":36523:36595   */\n      tag_874\n        /* \"#utility.yul\":36591:36593   */\n      0x40\n        /* \"#utility.yul\":36580:36589   */\n      dup4\n        /* \"#utility.yul\":36576:36594   */\n      add\n        /* \"#utility.yul\":36567:36573   */\n      dup5\n        /* \"#utility.yul\":36523:36595   */\n      tag_484\n      jump\t// in\n    tag_874:\n        /* \"#utility.yul\":36160:36602   */\n      swap5\n      swap4\n      pop\n      pop\n      pop\n      pop\n      jump\t// out\n        /* \"#utility.yul\":36608:36781   */\n    tag_547:\n        /* \"#utility.yul\":36748:36773   */\n      0x4e6f20746f6b656e7320746f206265206275726e656421000000000000000000\n        /* \"#utility.yul\":36744:36745   */\n      0x00\n        /* \"#utility.yul\":36736:36742   */\n      dup3\n        /* \"#utility.yul\":36732:36746   */\n      add\n        /* \"#utility.yul\":36725:36774   */\n      mstore\n        /* \"#utility.yul\":36608:36781   */\n      pop\n      jump\t// out\n        /* \"#utility.yul\":36787:37153   */\n    tag_548:\n        /* \"#utility.yul\":36929:36932   */\n      0x00\n        /* \"#utility.yul\":36950:37017   */\n      tag_877\n        /* \"#utility.yul\":37014:37016   */\n      0x17\n        /* \"#utility.yul\":37009:37012   */\n      dup4\n        /* \"#utility.yul\":36950:37017   */\n      tag_488\n      jump\t// in\n    tag_877:\n        /* \"#utility.yul\":36943:37017   */\n      swap2\n      pop\n        /* \"#utility.yul\":37026:37119   */\n      tag_878\n        /* \"#utility.yul\":37115:37118   */\n      dup3\n        /* \"#utility.yul\":37026:37119   */\n      tag_547\n      jump\t// in\n    tag_878:\n        /* \"#utility.yul\":37144:37146   */\n      0x20\n        /* \"#utility.yul\":37139:37142   */\n      dup3\n        /* \"#utility.yul\":37135:37147   */\n      add\n        /* \"#utility.yul\":37128:37147   */\n      swap1\n      pop\n        /* \"#utility.yul\":36787:37153   */\n      swap2\n      swap1\n      pop\n      jump\t// out\n        /* \"#utility.yul\":37159:37578   */\n    tag_427:\n        /* \"#utility.yul\":37325:37329   */\n      0x00\n        /* \"#utility.yul\":37363:37365   */\n      0x20\n        /* \"#utility.yul\":37352:37361   */\n      dup3\n        /* \"#utility.yul\":37348:37366   */\n      add\n        /* \"#utility.yul\":37340:37366   */\n      swap1\n      pop\n        /* \"#utility.yul\":37412:37421   */\n      dup2\n        /* \"#utility.yul\":37406:37410   */\n      dup2\n        /* \"#utility.yul\":37402:37422   */\n      sub\n        /* \"#utility.yul\":37398:37399   */\n      0x00\n        /* \"#utility.yul\":37387:37396   */\n      dup4\n        /* \"#utility.yul\":37383:37400   */\n      add\n        /* \"#utility.yul\":37376:37423   */\n      mstore\n        /* \"#utility.yul\":37440:37571   */\n      tag_880\n        /* \"#utility.yul\":37566:37570   */\n      dup2\n        /* \"#utility.yul\":37440:37571   */\n      tag_548\n      jump\t// in\n    tag_880:\n        /* \"#utility.yul\":37432:37571   */\n      swap1\n      pop\n        /* \"#utility.yul\":37159:37578   */\n      swap2\n      swap1\n      pop\n      jump\t// out\n        /* \"#utility.yul\":37584:37810   */\n    tag_549:\n        /* \"#utility.yul\":37724:37758   */\n      0x7472616e73616374696f6e207265766572746564206275726e20756e73756363\n        /* \"#utility.yul\":37720:37721   */\n      0x00\n        /* \"#utility.yul\":37712:37718   */\n      dup3\n        /* \"#utility.yul\":37708:37722   */\n      add\n        /* \"#utility.yul\":37701:37759   */\n      mstore\n        /* \"#utility.yul\":37793:37802   */\n      0x657366756c6c2100000000000000000000000000000000000000000000000000\n        /* \"#utility.yul\":37788:37790   */\n      0x20\n        /* \"#utility.yul\":37780:37786   */\n      dup3\n        /* \"#utility.yul\":37776:37791   */\n      add\n        /* \"#utility.yul\":37769:37803   */\n      mstore\n        /* \"#utility.yul\":37584:37810   */\n      pop\n      jump\t// out\n        /* \"#utility.yul\":37816:38182   */\n    tag_550:\n        /* \"#utility.yul\":37958:37961   */\n      0x00\n        /* \"#utility.yul\":37979:38046   */\n      tag_883\n        /* \"#utility.yul\":38043:38045   */\n      0x27\n        /* \"#utility.yul\":38038:38041   */\n      dup4\n        /* \"#utility.yul\":37979:38046   */\n      tag_488\n      jump\t// in\n    tag_883:\n        /* \"#utility.yul\":37972:38046   */\n      swap2\n      pop\n        /* \"#utility.yul\":38055:38148   */\n      tag_884\n        /* \"#utility.yul\":38144:38147   */\n      dup3\n        /* \"#utility.yul\":38055:38148   */\n      tag_549\n      jump\t// in\n    tag_884:\n        /* \"#utility.yul\":38173:38175   */\n      0x40\n        /* \"#utility.yul\":38168:38171   */\n      dup3\n        /* \"#utility.yul\":38164:38176   */\n      add\n        /* \"#utility.yul\":38157:38176   */\n      swap1\n      pop\n        /* \"#utility.yul\":37816:38182   */\n      swap2\n      swap1\n      pop\n      jump\t// out\n        /* \"#utility.yul\":38188:38607   */\n    tag_437:\n        /* \"#utility.yul\":38354:38358   */\n      0x00\n        /* \"#utility.yul\":38392:38394   */\n      0x20\n        /* \"#utility.yul\":38381:38390   */\n      dup3\n        /* \"#utility.yul\":38377:38395   */\n      add\n        /* \"#utility.yul\":38369:38395   */\n      swap1\n      pop\n        /* \"#utility.yul\":38441:38450   */\n      dup2\n        /* \"#utility.yul\":38435:38439   */\n      dup2\n        /* \"#utility.yul\":38431:38451   */\n      sub\n        /* \"#utility.yul\":38427:38428   */\n      0x00\n        /* \"#utility.yul\":38416:38425   */\n      dup4\n        /* \"#utility.yul\":38412:38429   */\n      add\n        /* \"#utility.yul\":38405:38452   */\n      mstore\n        /* \"#utility.yul\":38469:38600   */\n      tag_886\n        /* \"#utility.yul\":38595:38599   */\n      dup2\n        /* \"#utility.yul\":38469:38600   */\n      tag_550\n      jump\t// in\n    tag_886:\n        /* \"#utility.yul\":38461:38600   */\n      swap1\n      pop\n        /* \"#utility.yul\":38188:38607   */\n      swap2\n      swap1\n      pop\n      jump\t// out\n        /* \"#utility.yul\":38613:38842   */\n    tag_551:\n        /* \"#utility.yul\":38753:38787   */\n      0x5361666545524332303a204552433230206f7065726174696f6e20646964206e\n        /* \"#utility.yul\":38749:38750   */\n      0x00\n        /* \"#utility.yul\":38741:38747   */\n      dup3\n        /* \"#utility.yul\":38737:38751   */\n      add\n        /* \"#utility.yul\":38730:38788   */\n      mstore\n        /* \"#utility.yul\":38822:38834   */\n      0x6f74207375636365656400000000000000000000000000000000000000000000\n        /* \"#utility.yul\":38817:38819   */\n      0x20\n        /* \"#utility.yul\":38809:38815   */\n      dup3\n        /* \"#utility.yul\":38805:38820   */\n      add\n        /* \"#utility.yul\":38798:38835   */\n      mstore\n        /* \"#utility.yul\":38613:38842   */\n      pop\n      jump\t// out\n        /* \"#utility.yul\":38848:39214   */\n    tag_552:\n        /* \"#utility.yul\":38990:38993   */\n      0x00\n        /* \"#utility.yul\":39011:39078   */\n      tag_889\n        /* \"#utility.yul\":39075:39077   */\n      0x2a\n        /* \"#utility.yul\":39070:39073   */\n      dup4\n        /* \"#utility.yul\":39011:39078   */\n      tag_488\n      jump\t// in\n    tag_889:\n        /* \"#utility.yul\":39004:39078   */\n      swap2\n      pop\n        /* \"#utility.yul\":39087:39180   */\n      tag_890\n        /* \"#utility.yul\":39176:39179   */\n      dup3\n        /* \"#utility.yul\":39087:39180   */\n      tag_551\n      jump\t// in\n    tag_890:\n        /* \"#utility.yul\":39205:39207   */\n      0x40\n        /* \"#utility.yul\":39200:39203   */\n      dup3\n        /* \"#utility.yul\":39196:39208   */\n      add\n        /* \"#utility.yul\":39189:39208   */\n      swap1\n      pop\n        /* \"#utility.yul\":38848:39214   */\n      swap2\n      swap1\n      pop\n      jump\t// out\n        /* \"#utility.yul\":39220:39639   */\n    tag_446:\n        /* \"#utility.yul\":39386:39390   */\n      0x00\n        /* \"#utility.yul\":39424:39426   */\n      0x20\n        /* \"#utility.yul\":39413:39422   */\n      dup3\n        /* \"#utility.yul\":39409:39427   */\n      add\n        /* \"#utility.yul\":39401:39427   */\n      swap1\n      pop\n        /* \"#utility.yul\":39473:39482   */\n      dup2\n        /* \"#utility.yul\":39467:39471   */\n      dup2\n        /* \"#utility.yul\":39463:39483   */\n      sub\n        /* \"#utility.yul\":39459:39460   */\n      0x00\n        /* \"#utility.yul\":39448:39457   */\n      dup4\n        /* \"#utility.yul\":39444:39461   */\n      add\n        /* \"#utility.yul\":39437:39484   */\n      mstore\n        /* \"#utility.yul\":39501:39632   */\n      tag_892\n        /* \"#utility.yul\":39627:39631   */\n      dup2\n        /* \"#utility.yul\":39501:39632   */\n      tag_552\n      jump\t// in\n    tag_892:\n        /* \"#utility.yul\":39493:39632   */\n      swap1\n      pop\n        /* \"#utility.yul\":39220:39639   */\n      swap2\n      swap1\n      pop\n      jump\t// out\n        /* \"#utility.yul\":39645:39870   */\n    tag_553:\n        /* \"#utility.yul\":39785:39819   */\n      0x416464726573733a20696e73756666696369656e742062616c616e636520666f\n        /* \"#utility.yul\":39781:39782   */\n      0x00\n        /* \"#utility.yul\":39773:39779   */\n      dup3\n        /* \"#utility.yul\":39769:39783   */\n      add\n        /* \"#utility.yul\":39762:39820   */\n      mstore\n        /* \"#utility.yul\":39854:39862   */\n      0x722063616c6c0000000000000000000000000000000000000000000000000000\n        /* \"#utility.yul\":39849:39851   */\n      0x20\n        /* \"#utility.yul\":39841:39847   */\n      dup3\n        /* \"#utility.yul\":39837:39852   */\n      add\n        /* \"#utility.yul\":39830:39863   */\n      mstore\n        /* \"#utility.yul\":39645:39870   */\n      pop\n      jump\t// out\n        /* \"#utility.yul\":39876:40242   */\n    tag_554:\n        /* \"#utility.yul\":40018:40021   */\n      0x00\n        /* \"#utility.yul\":40039:40106   */\n      tag_895\n        /* \"#utility.yul\":40103:40105   */\n      0x26\n        /* \"#utility.yul\":40098:40101   */\n      dup4\n        /* \"#utility.yul\":40039:40106   */\n      tag_488\n      jump\t// in\n    tag_895:\n        /* \"#utility.yul\":40032:40106   */\n      swap2\n      pop\n        /* \"#utility.yul\":40115:40208   */\n      tag_896\n        /* \"#utility.yul\":40204:40207   */\n      dup3\n        /* \"#utility.yul\":40115:40208   */\n      tag_553\n      jump\t// in\n    tag_896:\n        /* \"#utility.yul\":40233:40235   */\n      0x40\n        /* \"#utility.yul\":40228:40231   */\n      dup3\n        /* \"#utility.yul\":40224:40236   */\n      add\n        /* \"#utility.yul\":40217:40236   */\n      swap1\n      pop\n        /* \"#utility.yul\":39876:40242   */\n      swap2\n      swap1\n      pop\n      jump\t// out\n        /* \"#utility.yul\":40248:40667   */\n    tag_453:\n        /* \"#utility.yul\":40414:40418   */\n      0x00\n        /* \"#utility.yul\":40452:40454   */\n      0x20\n        /* \"#utility.yul\":40441:40450   */\n      dup3\n        /* \"#utility.yul\":40437:40455   */\n      add\n        /* \"#utility.yul\":40429:40455   */\n      swap1\n      pop\n        /* \"#utility.yul\":40501:40510   */\n      dup2\n        /* \"#utility.yul\":40495:40499   */\n      dup2\n        /* \"#utility.yul\":40491:40511   */\n      sub\n        /* \"#utility.yul\":40487:40488   */\n      0x00\n        /* \"#utility.yul\":40476:40485   */\n      dup4\n        /* \"#utility.yul\":40472:40489   */\n      add\n        /* \"#utility.yul\":40465:40512   */\n      mstore\n        /* \"#utility.yul\":40529:40660   */\n      tag_898\n        /* \"#utility.yul\":40655:40659   */\n      dup2\n        /* \"#utility.yul\":40529:40660   */\n      tag_554\n      jump\t// in\n    tag_898:\n        /* \"#utility.yul\":40521:40660   */\n      swap1\n      pop\n        /* \"#utility.yul\":40248:40667   */\n      swap2\n      swap1\n      pop\n      jump\t// out\n        /* \"#utility.yul\":40673:40852   */\n    tag_555:\n        /* \"#utility.yul\":40813:40844   */\n      0x416464726573733a2063616c6c20746f206e6f6e2d636f6e7472616374000000\n        /* \"#utility.yul\":40809:40810   */\n      0x00\n        /* \"#utility.yul\":40801:40807   */\n      dup3\n        /* \"#utility.yul\":40797:40811   */\n      add\n        /* \"#utility.yul\":40790:40845   */\n      mstore\n        /* \"#utility.yul\":40673:40852   */\n      pop\n      jump\t// out\n        /* \"#utility.yul\":40858:41224   */\n    tag_556:\n        /* \"#utility.yul\":41000:41003   */\n      0x00\n        /* \"#utility.yul\":41021:41088   */\n      tag_901\n        /* \"#utility.yul\":41085:41087   */\n      0x1d\n        /* \"#utility.yul\":41080:41083   */\n      dup4\n        /* \"#utility.yul\":41021:41088   */\n      tag_488\n      jump\t// in\n    tag_901:\n        /* \"#utility.yul\":41014:41088   */\n      swap2\n      pop\n        /* \"#utility.yul\":41097:41190   */\n      tag_902\n        /* \"#utility.yul\":41186:41189   */\n      dup3\n        /* \"#utility.yul\":41097:41190   */\n      tag_555\n      jump\t// in\n    tag_902:\n        /* \"#utility.yul\":41215:41217   */\n      0x20\n        /* \"#utility.yul\":41210:41213   */\n      dup3\n        /* \"#utility.yul\":41206:41218   */\n      add\n        /* \"#utility.yul\":41199:41218   */\n      swap1\n      pop\n        /* \"#utility.yul\":40858:41224   */\n      swap2\n      swap1\n      pop\n      jump\t// out\n        /* \"#utility.yul\":41230:41649   */\n    tag_458:\n        /* \"#utility.yul\":41396:41400   */\n      0x00\n        /* \"#utility.yul\":41434:41436   */\n      0x20\n        /* \"#utility.yul\":41423:41432   */\n      dup3\n        /* \"#utility.yul\":41419:41437   */\n      add\n        /* \"#utility.yul\":41411:41437   */\n      swap1\n      pop\n        /* \"#utility.yul\":41483:41492   */\n      dup2\n        /* \"#utility.yul\":41477:41481   */\n      dup2\n        /* \"#utility.yul\":41473:41493   */\n      sub\n        /* \"#utility.yul\":41469:41470   */\n      0x00\n        /* \"#utility.yul\":41458:41467   */\n      dup4\n        /* \"#utility.yul\":41454:41471   */\n      add\n        /* \"#utility.yul\":41447:41494   */\n      mstore\n        /* \"#utility.yul\":41511:41642   */\n      tag_904\n        /* \"#utility.yul\":41637:41641   */\n      dup2\n        /* \"#utility.yul\":41511:41642   */\n      tag_556\n      jump\t// in\n    tag_904:\n        /* \"#utility.yul\":41503:41642   */\n      swap1\n      pop\n        /* \"#utility.yul\":41230:41649   */\n      swap2\n      swap1\n      pop\n      jump\t// out\n        /* \"#utility.yul\":41655:41753   */\n    tag_557:\n        /* \"#utility.yul\":41706:41712   */\n      0x00\n        /* \"#utility.yul\":41740:41745   */\n      dup2\n        /* \"#utility.yul\":41734:41746   */\n      mload\n        /* \"#utility.yul\":41724:41746   */\n      swap1\n      pop\n        /* \"#utility.yul\":41655:41753   */\n      swap2\n      swap1\n      pop\n      jump\t// out\n        /* \"#utility.yul\":41759:41906   */\n    tag_558:\n        /* \"#utility.yul\":41860:41871   */\n      0x00\n        /* \"#utility.yul\":41897:41900   */\n      dup2\n        /* \"#utility.yul\":41882:41900   */\n      swap1\n      pop\n        /* \"#utility.yul\":41759:41906   */\n      swap3\n      swap2\n      pop\n      pop\n      jump\t// out\n        /* \"#utility.yul\":41912:42298   */\n    tag_559:\n        /* \"#utility.yul\":42016:42019   */\n      0x00\n        /* \"#utility.yul\":42044:42082   */\n      tag_908\n        /* \"#utility.yul\":42076:42081   */\n      dup3\n        /* \"#utility.yul\":42044:42082   */\n      tag_557\n      jump\t// in\n    tag_908:\n        /* \"#utility.yul\":42098:42186   */\n      tag_909\n        /* \"#utility.yul\":42179:42185   */\n      dup2\n        /* \"#utility.yul\":42174:42177   */\n      dup6\n        /* \"#utility.yul\":42098:42186   */\n      tag_558\n      jump\t// in\n    tag_909:\n        /* \"#utility.yul\":42091:42186   */\n      swap4\n      pop\n        /* \"#utility.yul\":42195:42260   */\n      tag_910\n        /* \"#utility.yul\":42253:42259   */\n      dup2\n        /* \"#utility.yul\":42248:42251   */\n      dup6\n        /* \"#utility.yul\":42241:42245   */\n      0x20\n        /* \"#utility.yul\":42234:42239   */\n      dup7\n        /* \"#utility.yul\":42230:42246   */\n      add\n        /* \"#utility.yul\":42195:42260   */\n      tag_489\n      jump\t// in\n    tag_910:\n        /* \"#utility.yul\":42285:42291   */\n      dup1\n        /* \"#utility.yul\":42280:42283   */\n      dup5\n        /* \"#utility.yul\":42276:42292   */\n      add\n        /* \"#utility.yul\":42269:42292   */\n      swap2\n      pop\n        /* \"#utility.yul\":42020:42298   */\n      pop\n        /* \"#utility.yul\":41912:42298   */\n      swap3\n      swap2\n      pop\n      pop\n      jump\t// out\n        /* \"#utility.yul\":42304:42575   */\n    tag_460:\n        /* \"#utility.yul\":42434:42437   */\n      0x00\n        /* \"#utility.yul\":42456:42549   */\n      tag_912\n        /* \"#utility.yul\":42545:42548   */\n      dup3\n        /* \"#utility.yul\":42536:42542   */\n      dup5\n        /* \"#utility.yul\":42456:42549   */\n      tag_559\n      jump\t// in\n    tag_912:\n        /* \"#utility.yul\":42449:42549   */\n      swap2\n      pop\n        /* \"#utility.yul\":42566:42569   */\n      dup2\n        /* \"#utility.yul\":42559:42569   */\n      swap1\n      pop\n        /* \"#utility.yul\":42304:42575   */\n      swap3\n      swap2\n      pop\n      pop\n      jump\t// out\n\n    auxdata: 0xa26469706673582212202080b1fedb72d045ad5c1765c72108ba7258c1582fddbb0a76026c512f98f4d764736f6c63430008170033\n}\n",
				"bytecode": {
					"linkReferences": {},
					"object": "60c060405260018060146101000a81548160ff0219169083151502179055505f6002555f6003555f60045534801562000036575f80fd5b50604051620041ac380380620041ac83398181016040528101906200005c91906200026b565b5f805f6101000a81548160ff02191690831515021790555062000094620000886200013c60201b60201c565b6200014360201b60201c565b5f73ffffffffffffffffffffffffffffffffffffffff168173ffffffffffffffffffffffffffffffffffffffff1603620000cc575f80fd5b8073ffffffffffffffffffffffffffffffffffffffff1660808173ffffffffffffffffffffffffffffffffffffffff16815250508173ffffffffffffffffffffffffffffffffffffffff1660a08173ffffffffffffffffffffffffffffffffffffffff16815250505050620002b0565b5f33905090565b5f8060019054906101000a900473ffffffffffffffffffffffffffffffffffffffff169050815f60016101000a81548173ffffffffffffffffffffffffffffffffffffffff021916908373ffffffffffffffffffffffffffffffffffffffff1602179055508173ffffffffffffffffffffffffffffffffffffffff168173ffffffffffffffffffffffffffffffffffffffff167f8be0079c531659141344cd1fd0a4f28419497f9722a3daafe3b4186f6b6457e060405160405180910390a35050565b5f80fd5b5f73ffffffffffffffffffffffffffffffffffffffff82169050919050565b5f62000235826200020a565b9050919050565b620002478162000229565b811462000252575f80fd5b50565b5f8151905062000265816200023c565b92915050565b5f806040838503121562000284576200028362000206565b5b5f620002938582860162000255565b9250506020620002a68582860162000255565b9150509250929050565b60805160a051613ea9620003035f395f8181610f5e015281816112e1015281816116a9015281816116ca01528181611c7b01528181611e78015261260b01525f818161098d015261186d0152613ea95ff3fe608060405234801561000f575f80fd5b50600436106101a6575f3560e01c80637754723e116100f7578063b0b5e39e11610095578063e6367ebe1161006f578063e6367ebe14610427578063e808876614610445578063ed969c841461044f578063f2fde38b1461047f576101a6565b8063b0b5e39e146103bd578063b99152d0146103d9578063ba007e7514610409576101a6565b80639405de64116100d15780639405de64146103445780639934415e14610362578063a684ab5c14610380578063abb1dc441461039e576101a6565b80637754723e146102d85780638da5cb5b146103085780638eb89a6114610326576101a6565b80630f15f4c0116101645780635c975abb1161013e5780635c975abb146102625780636a9d43dd14610280578063715018a6146102b0578063722713f7146102ba576101a6565b80630f15f4c0146102305780632af0e2511461023a57806351b42b0014610258576101a6565b8062f714ce146101aa578063046f7da2146101c657806307da68f5146101d057806308fadcb0146101da5780630a6cb062146101f85780630ba2f1d814610214575b5f80fd5b6101c460048036038101906101bf9190612a06565b61049b565b005b6101ce610624565b005b6101d861063e565b005b6101e2610658565b6040516101ef9190612a53565b60405180910390f35b610212600480360381019061020d9190612a6c565b61070f565b005b61022e60048036038101906102299190612a6c565b610791565b005b61023861096c565b005b610242610b42565b60405161024f9190612aa6565b60405180910390f35b610260610ca6565b005b61026a610e5c565b6040516102779190612ad9565b60405180910390f35b61029a60048036038101906102959190612af2565b610e70565b6040516102a79190612ad9565b60405180910390f35b6102b8610f48565b005b6102c2610f5b565b6040516102cf9190612aa6565b60405180910390f35b6102f260048036038101906102ed9190612b42565b610ff9565b6040516102ff9190612aa6565b60405180910390f35b610310611086565b60405161031d9190612a53565b60405180910390f35b61032e6110ae565b60405161033b9190612aa6565b60405180910390f35b61034c611212565b6040516103599190612aa6565b60405180910390f35b61036a61137e565b6040516103779190612a53565b60405180910390f35b6103886113e5565b6040516103959190612aa6565b60405180910390f35b6103a6611549565b6040516103b4929190612c1c565b60405180910390f35b6103d760048036038101906103d29190612a6c565b611760565b005b6103f360048036038101906103ee9190612a6c565b6117e2565b6040516104009190612aa6565b60405180910390f35b61041161186a565b60405161041e9190612a53565b60405180910390f35b61042f611891565b60405161043c9190612c4a565b60405180910390f35b61044d611928565b005b61046960048036038101906104649190612c6a565b611ac8565b6040516104769190612ad9565b60405180910390f35b61049960048036038101906104949190612a6c565b611ed6565b005b6104a3611f58565b5f73ffffffffffffffffffffffffffffffffffffffff1660015f9054906101000a900473ffffffffffffffffffffffffffffffffffffffff1673ffffffffffffffffffffffffffffffffffffffff1603610532576040517f08c379a000000000000000000000000000000000000000000000000000000000815260040161052990612cdf565b60405180910390fd5b600454821115610577576040517f08c379a000000000000000000000000000000000000000000000000000000000815260040161056e90612d6d565b60405180910390fd5b5f82116105b9576040517f08c379a00000000000000000000000000000000000000000000000000000000081526004016105b090612dfb565b60405180910390fd5b8073ffffffffffffffffffffffffffffffffffffffff16427f71ef96c43343734b1d843bb85d52ef329f5e9143e4d35827771e3b0dd90c5f84846040516106009190612aa6565b60405180910390a38160045f8282546106199190612e46565b925050819055505050565b61062c611fd6565b610634611f58565b61063c61201f565b565b61064661207f565b61064e611f58565b6106566120c9565b565b5f8073ffffffffffffffffffffffffffffffffffffffff1660015f9054906101000a900473ffffffffffffffffffffffffffffffffffffffff1673ffffffffffffffffffffffffffffffffffffffff16036106e8576040517f08c379a00000000000000000000000000000000000000000000000000000000081526004016106df90612cdf565b60405180910390fd5b60015f9054906101000a900473ffffffffffffffffffffffffffffffffffffffff16905090565b610717611f58565b5f73ffffffffffffffffffffffffffffffffffffffff168173ffffffffffffffffffffffffffffffffffffffff160361074e575f80fd5b8060055f6101000a81548173ffffffffffffffffffffffffffffffffffffffff021916908373ffffffffffffffffffffffffffffffffffffffff16021790555050565b5f73ffffffffffffffffffffffffffffffffffffffff1660015f9054906101000a900473ffffffffffffffffffffffffffffffffffffffff1673ffffffffffffffffffffffffffffffffffffffff1603610820576040517f08c379a000000000000000000000000000000000000000000000000000000000815260040161081790612cdf565b60405180910390fd5b60015f9054906101000a900473ffffffffffffffffffffffffffffffffffffffff1673ffffffffffffffffffffffffffffffffffffffff163373ffffffffffffffffffffffffffffffffffffffff16146108af576040517f08c379a00000000000000000000000000000000000000000000000000000000081526004016108a690612ec3565b60405180910390fd5b5f73ffffffffffffffffffffffffffffffffffffffff168173ffffffffffffffffffffffffffffffffffffffff16036108e6575f80fd5b8060015f6101000a81548173ffffffffffffffffffffffffffffffffffffffff021916908373ffffffffffffffffffffffffffffffffffffffff1602179055508073ffffffffffffffffffffffffffffffffffffffff167f8bbfeb6e784147166691d407a592a09379bbbd56888a96c54793bce54bb5752360405160405180910390a250565b61097461207f565b3373ffffffffffffffffffffffffffffffffffffffff167f000000000000000000000000000000000000000000000000000000000000000073ffffffffffffffffffffffffffffffffffffffff1614610a02576040517f08c379a00000000000000000000000000000000000000000000000000000000081526004016109f990612f2b565b60405180910390fd5b5f73ffffffffffffffffffffffffffffffffffffffff1660015f9054906101000a900473ffffffffffffffffffffffffffffffffffffffff1673ffffffffffffffffffffffffffffffffffffffff1614610a91576040517f08c379a0000000000000000000000000000000000000000000000000000000008152600401610a8890612f93565b60405180910390fd5b3360015f6101000a81548173ffffffffffffffffffffffffffffffffffffffff021916908373ffffffffffffffffffffffffffffffffffffffff16021790555060015f9054906101000a900473ffffffffffffffffffffffffffffffffffffffff1673ffffffffffffffffffffffffffffffffffffffff167ffbd0a3f6e9a0dd5f834515748047e83de8064477489a0a0d6b59c64bbecc992a42604051610b389190612aa6565b60405180910390a2565b5f8073ffffffffffffffffffffffffffffffffffffffff1660015f9054906101000a900473ffffffffffffffffffffffffffffffffffffffff1673ffffffffffffffffffffffffffffffffffffffff1603610bd2576040517f08c379a0000000000000000000000000000000000000000000000000000000008152600401610bc990612cdf565b60405180910390fd5b60015f9054906101000a900473ffffffffffffffffffffffffffffffffffffffff1673ffffffffffffffffffffffffffffffffffffffff163373ffffffffffffffffffffffffffffffffffffffff161480610c5f5750610c30611086565b73ffffffffffffffffffffffffffffffffffffffff163373ffffffffffffffffffffffffffffffffffffffff16145b610c9e576040517f08c379a0000000000000000000000000000000000000000000000000000000008152600401610c9590613021565b60405180910390fd5b600254905090565b5f73ffffffffffffffffffffffffffffffffffffffff1660015f9054906101000a900473ffffffffffffffffffffffffffffffffffffffff1673ffffffffffffffffffffffffffffffffffffffff1603610d35576040517f08c379a0000000000000000000000000000000000000000000000000000000008152600401610d2c90612cdf565b60405180910390fd5b60015f9054906101000a900473ffffffffffffffffffffffffffffffffffffffff1673ffffffffffffffffffffffffffffffffffffffff163373ffffffffffffffffffffffffffffffffffffffff1614610dc4576040517f08c379a0000000000000000000000000000000000000000000000000000000008152600401610dbb90612ec3565b60405180910390fd5b610dcc61207f565b5f60015f6101000a81548173ffffffffffffffffffffffffffffffffffffffff021916908373ffffffffffffffffffffffffffffffffffffffff1602179055503373ffffffffffffffffffffffffffffffffffffffff167f13b865880a841dc469b629159fa1e730fee99568b0decc6737fd688b3624638142604051610e529190612aa6565b60405180910390a2565b5f805f9054906101000a900460ff16905090565b5f610e79611f58565b81610e83856117e2565b1015610ec4576040517f08c379a0000000000000000000000000000000000000000000000000000000008152600401610ebb90613089565b60405180910390fd5b8373ffffffffffffffffffffffffffffffffffffffff1663a9059cbb84846040518363ffffffff1660e01b8152600401610eff9291906130a7565b6020604051808303815f875af1158015610f1b573d5f803e3d5ffd5b505050506040513d601f19601f82011682018060405250810190610f3f91906130f8565b90509392505050565b610f50611f58565b610f595f61212a565b565b5f7f000000000000000000000000000000000000000000000000000000000000000073ffffffffffffffffffffffffffffffffffffffff166370a08231306040518263ffffffff1660e01b8152600401610fb59190612a53565b602060405180830381865afa158015610fd0573d5f803e3d5ffd5b505050506040513d601f19601f82011682018060405250810190610ff49190613137565b905090565b5f611002611f58565b5f8311801561101057505f84115b801561101b57505f82115b61105a576040517f08c379a0000000000000000000000000000000000000000000000000000000008152600401611051906131d2565b60405180910390fd5b8282600a611068919061331f565b856110739190613369565b61107d91906133d7565b90509392505050565b5f8060019054906101000a900473ffffffffffffffffffffffffffffffffffffffff16905090565b5f8073ffffffffffffffffffffffffffffffffffffffff1660015f9054906101000a900473ffffffffffffffffffffffffffffffffffffffff1673ffffffffffffffffffffffffffffffffffffffff160361113e576040517f08c379a000000000000000000000000000000000000000000000000000000000815260040161113590612cdf565b60405180910390fd5b60015f9054906101000a900473ffffffffffffffffffffffffffffffffffffffff1673ffffffffffffffffffffffffffffffffffffffff163373ffffffffffffffffffffffffffffffffffffffff1614806111cb575061119c611086565b73ffffffffffffffffffffffffffffffffffffffff163373ffffffffffffffffffffffffffffffffffffffff16145b61120a576040517f08c379a000000000000000000000000000000000000000000000000000000000815260040161120190613021565b60405180910390fd5b600454905090565b5f60015f9054906101000a900473ffffffffffffffffffffffffffffffffffffffff1673ffffffffffffffffffffffffffffffffffffffff163373ffffffffffffffffffffffffffffffffffffffff1614806112a05750611271611086565b73ffffffffffffffffffffffffffffffffffffffff163373ffffffffffffffffffffffffffffffffffffffff16145b6112df576040517f08c379a00000000000000000000000000000000000000000000000000000000081526004016112d690613021565b60405180910390fd5b7f000000000000000000000000000000000000000000000000000000000000000073ffffffffffffffffffffffffffffffffffffffff1663dd62ed3e33306040518363ffffffff1660e01b815260040161133a929190613407565b602060405180830381865afa158015611355573d5f803e3d5ffd5b505050506040513d601f19601f820116820180604052508101906113799190613137565b905090565b5f600160149054906101000a900460ff16156113bd5760065f9054906101000a900473ffffffffffffffffffffffffffffffffffffffff1690506113e2565b60055f9054906101000a900473ffffffffffffffffffffffffffffffffffffffff1690505b90565b5f8073ffffffffffffffffffffffffffffffffffffffff1660015f9054906101000a900473ffffffffffffffffffffffffffffffffffffffff1673ffffffffffffffffffffffffffffffffffffffff1603611475576040517f08c379a000000000000000000000000000000000000000000000000000000000815260040161146c90612cdf565b60405180910390fd5b60015f9054906101000a900473ffffffffffffffffffffffffffffffffffffffff1673ffffffffffffffffffffffffffffffffffffffff163373ffffffffffffffffffffffffffffffffffffffff16148061150257506114d3611086565b73ffffffffffffffffffffffffffffffffffffffff163373ffffffffffffffffffffffffffffffffffffffff16145b611541576040517f08c379a000000000000000000000000000000000000000000000000000000000815260040161153890613021565b60405180910390fd5b600354905090565b5f60605f73ffffffffffffffffffffffffffffffffffffffff1660015f9054906101000a900473ffffffffffffffffffffffffffffffffffffffff1673ffffffffffffffffffffffffffffffffffffffff16036115db576040517f08c379a00000000000000000000000000000000000000000000000000000000081526004016115d290612cdf565b60405180910390fd5b60015f9054906101000a900473ffffffffffffffffffffffffffffffffffffffff1673ffffffffffffffffffffffffffffffffffffffff163373ffffffffffffffffffffffffffffffffffffffff1614806116685750611639611086565b73ffffffffffffffffffffffffffffffffffffffff163373ffffffffffffffffffffffffffffffffffffffff16145b6116a7576040517f08c379a000000000000000000000000000000000000000000000000000000000815260040161169e90613021565b60405180910390fd5b7f00000000000000000000000000000000000000000000000000000000000000007f000000000000000000000000000000000000000000000000000000000000000073ffffffffffffffffffffffffffffffffffffffff166395d89b416040518163ffffffff1660e01b81526004015f60405180830381865afa158015611730573d5f803e3d5ffd5b505050506040513d5f823e3d601f19601f82011682018060405250810190611758919061354c565b915091509091565b611768611f58565b5f73ffffffffffffffffffffffffffffffffffffffff168173ffffffffffffffffffffffffffffffffffffffff160361179f575f80fd5b8060065f6101000a81548173ffffffffffffffffffffffffffffffffffffffff021916908373ffffffffffffffffffffffffffffffffffffffff16021790555050565b5f6117eb611f58565b8173ffffffffffffffffffffffffffffffffffffffff166370a08231306040518263ffffffff1660e01b81526004016118249190612a53565b602060405180830381865afa15801561183f573d5f803e3d5ffd5b505050506040513d601f19601f820116820180604052508101906118639190613137565b9050919050565b5f7f0000000000000000000000000000000000000000000000000000000000000000905090565b606080600160149054906101000a900460ff166118e6576040518060400160405280600c81526020017f41676772656761746f7256330000000000000000000000000000000000000000815250905080611920565b6040518060400160405280600481526020017f506f6f6c000000000000000000000000000000000000000000000000000000008152509050805b508091505090565b611930611f58565b600160149054906101000a900460ff16156119f257600160149054906101000a900460ff1680156119ae57505f73ffffffffffffffffffffffffffffffffffffffff1660055f9054906101000a900473ffffffffffffffffffffffffffffffffffffffff1673ffffffffffffffffffffffffffffffffffffffff1614155b6119ed576040517f08c379a00000000000000000000000000000000000000000000000000000000081526004016119e490613603565b60405180910390fd5b611a9c565b600160149054906101000a900460ff16158015611a5c57505f73ffffffffffffffffffffffffffffffffffffffff1660065f9054906101000a900473ffffffffffffffffffffffffffffffffffffffff1673ffffffffffffffffffffffffffffffffffffffff1614155b611a9b576040517f08c379a0000000000000000000000000000000000000000000000000000000008152600401611a929061366b565b60405180910390fd5b5b600160149054906101000a900460ff1615600160146101000a81548160ff021916908315150217905550565b5f611ad161207f565b5f73ffffffffffffffffffffffffffffffffffffffff1660015f9054906101000a900473ffffffffffffffffffffffffffffffffffffffff1673ffffffffffffffffffffffffffffffffffffffff1603611b60576040517f08c379a0000000000000000000000000000000000000000000000000000000008152600401611b5790612cdf565b60405180910390fd5b60015f9054906101000a900473ffffffffffffffffffffffffffffffffffffffff1673ffffffffffffffffffffffffffffffffffffffff163373ffffffffffffffffffffffffffffffffffffffff161480611bed5750611bbe611086565b73ffffffffffffffffffffffffffffffffffffffff163373ffffffffffffffffffffffffffffffffffffffff16145b611c2c576040517f08c379a0000000000000000000000000000000000000000000000000000000008152600401611c2390613021565b60405180910390fd5b5f8211611c6e576040517f08c379a0000000000000000000000000000000000000000000000000000000008152600401611c65906136d3565b60405180910390fd5b81611c77611212565b10157f000000000000000000000000000000000000000000000000000000000000000073ffffffffffffffffffffffffffffffffffffffff166395d89b416040518163ffffffff1660e01b81526004015f60405180830381865afa158015611ce1573d5f803e3d5ffd5b505050506040513d5f823e3d601f19601f82011682018060405250810190611d09919061354c565b604051602001611d19919061379d565b60405160208183030381529060405290611d69576040517f08c379a0000000000000000000000000000000000000000000000000000000008152600401611d609190612c4a565b60405180910390fd5b505f805f80611d766121ed565b93509350935093505f84118015611d8c57505f83115b8015611d9757505f81115b611dd6576040517f08c379a0000000000000000000000000000000000000000000000000000000008152600401611dcd9061382a565b60405180910390fd5b5f611de2878686612505565b90508060045f828254611df59190613848565b925050819055508060035f828254611e0d9190613848565b925050819055508660025f828254611e259190613848565b925050819055505f4290508088837fb5aeb7b225999adc33232be2121afb1a366c15108c1da745d17fd76108172fe48989888a604051611e68949392919061387b565b60405180910390a4611ebd33308a7f000000000000000000000000000000000000000000000000000000000000000073ffffffffffffffffffffffffffffffffffffffff16612532909392919063ffffffff16565b611ec6886125bb565b5060019650505050505050919050565b611ede611f58565b5f73ffffffffffffffffffffffffffffffffffffffff168173ffffffffffffffffffffffffffffffffffffffff1603611f4c576040517f08c379a0000000000000000000000000000000000000000000000000000000008152600401611f4390613935565b60405180910390fd5b611f558161212a565b50565b611f606126ed565b73ffffffffffffffffffffffffffffffffffffffff16611f7e611086565b73ffffffffffffffffffffffffffffffffffffffff1614611fd4576040517f08c379a0000000000000000000000000000000000000000000000000000000008152600401611fcb9061399d565b60405180910390fd5b565b611fde610e5c565b61201d576040517f08c379a000000000000000000000000000000000000000000000000000000000815260040161201490613a05565b60405180910390fd5b565b612027611fd6565b5f805f6101000a81548160ff0219169083151502179055507f5db9ee0a495bf2e6ff9c91a7834c1ba4fdd244a5e8aa4e537bd38aeae4b073aa6120686126ed565b6040516120759190612a53565b60405180910390a1565b612087610e5c565b156120c7576040517f08c379a00000000000000000000000000000000000000000000000000000000081526004016120be90613a6d565b60405180910390fd5b565b6120d161207f565b60015f806101000a81548160ff0219169083151502179055507f62e78cea01bee320cd4e420270b5ea74000d11b0c9f74754ebdbfc544b05a2586121136126ed565b6040516121209190612a53565b60405180910390a1565b5f8060019054906101000a900473ffffffffffffffffffffffffffffffffffffffff169050815f60016101000a81548173ffffffffffffffffffffffffffffffffffffffff021916908373ffffffffffffffffffffffffffffffffffffffff1602179055508173ffffffffffffffffffffffffffffffffffffffff168173ffffffffffffffffffffffffffffffffffffffff167f8be0079c531659141344cd1fd0a4f28419497f9722a3daafe3b4186f6b6457e060405160405180910390a35050565b5f8060605f600160149054906101000a900460ff16156122b457600160149054906101000a900460ff16801561227057505f73ffffffffffffffffffffffffffffffffffffffff1660065f9054906101000a900473ffffffffffffffffffffffffffffffffffffffff1673ffffffffffffffffffffffffffffffffffffffff1614155b6122af576040517f08c379a00000000000000000000000000000000000000000000000000000000081526004016122a69061366b565b60405180910390fd5b61235e565b600160149054906101000a900460ff1615801561231e57505f73ffffffffffffffffffffffffffffffffffffffff1660055f9054906101000a900473ffffffffffffffffffffffffffffffffffffffff1673ffffffffffffffffffffffffffffffffffffffff1614155b61235d576040517f08c379a000000000000000000000000000000000000000000000000000000000815260040161235490613603565b60405180910390fd5b5b5f805f80600160149054906101000a900460ff161561240e5760065f9054906101000a900473ffffffffffffffffffffffffffffffffffffffff1673ffffffffffffffffffffffffffffffffffffffff166385096edc6040518163ffffffff1660e01b81526004015f604051808303815f875af11580156123e1573d5f803e3d5ffd5b505050506040513d5f823e3d601f19601f820116820180604052508101906124099190613a8b565b6124a1565b60055f9054906101000a900473ffffffffffffffffffffffffffffffffffffffff1673ffffffffffffffffffffffffffffffffffffffff1663e1e7ff776040518163ffffffff1660e01b81526004015f604051808303815f875af1158015612478573d5f803e3d5ffd5b505050506040513d5f823e3d601f19601f820116820180604052508101906124a09190613a8b565b5b93509350935093507ff533c7ebcab9ca95557310f62aa7ad41d3a6b17aebec7762b994ef1a14863865848484846124d6611891565b6040516124e7959493929190613b0b565b60405180910390a18383838397509750975097505050505090919293565b5f81600a612513919061331f565b838561251f9190613369565b61252991906133d7565b90509392505050565b6125b5846323b872dd60e01b85858560405160240161255393929190613b6a565b604051602081830303815290604052907bffffffffffffffffffffffffffffffffffffffffffffffffffffffff19166020820180517bffffffffffffffffffffffffffffffffffffffffffffffffffffffff83818316178352505050506126f4565b50505050565b5f8082116125fe576040517f08c379a00000000000000000000000000000000000000000000000000000000081526004016125f590613be9565b60405180910390fd5b5f612607610f5b565b90507f000000000000000000000000000000000000000000000000000000000000000073ffffffffffffffffffffffffffffffffffffffff166342966c68846040518263ffffffff1660e01b81526004016126629190612aa6565b5f604051808303815f87803b158015612679575f80fd5b505af115801561268b573d5f803e3d5ffd5b50505050828161269b9190612e46565b6126a3610f5b565b146126e3576040517f08c379a00000000000000000000000000000000000000000000000000000000081526004016126da90613c77565b60405180910390fd5b6001915050919050565b5f33905090565b5f612755826040518060400160405280602081526020017f5361666545524332303a206c6f772d6c6576656c2063616c6c206661696c65648152508573ffffffffffffffffffffffffffffffffffffffff166127b99092919063ffffffff16565b90505f815111156127b4578080602001905181019061277491906130f8565b6127b3576040517f08c379a00000000000000000000000000000000000000000000000000000000081526004016127aa90613d05565b60405180910390fd5b5b505050565b60606127c784845f856127d0565b90509392505050565b606082471015612815576040517f08c379a000000000000000000000000000000000000000000000000000000000815260040161280c90613d93565b60405180910390fd5b61281e856128e0565b61285d576040517f08c379a000000000000000000000000000000000000000000000000000000000815260040161285490613dfb565b60405180910390fd5b5f808673ffffffffffffffffffffffffffffffffffffffff1685876040516128859190613e5d565b5f6040518083038185875af1925050503d805f81146128bf576040519150601f19603f3d011682016040523d82523d5f602084013e6128c4565b606091505b50915091506128d4828286612902565b92505050949350505050565b5f808273ffffffffffffffffffffffffffffffffffffffff163b119050919050565b6060831561291257829050612961565b5f835111156129245782518084602001fd5b816040517f08c379a00000000000000000000000000000000000000000000000000000000081526004016129589190612c4a565b60405180910390fd5b9392505050565b5f604051905090565b5f80fd5b5f80fd5b5f819050919050565b61298b81612979565b8114612995575f80fd5b50565b5f813590506129a681612982565b92915050565b5f73ffffffffffffffffffffffffffffffffffffffff82169050919050565b5f6129d5826129ac565b9050919050565b6129e5816129cb565b81146129ef575f80fd5b50565b5f81359050612a00816129dc565b92915050565b5f8060408385031215612a1c57612a1b612971565b5b5f612a2985828601612998565b9250506020612a3a858286016129f2565b9150509250929050565b612a4d816129cb565b82525050565b5f602082019050612a665f830184612a44565b92915050565b5f60208284031215612a8157612a80612971565b5b5f612a8e848285016129f2565b91505092915050565b612aa081612979565b82525050565b5f602082019050612ab95f830184612a97565b92915050565b5f8115159050919050565b612ad381612abf565b82525050565b5f602082019050612aec5f830184612aca565b92915050565b5f805f60608486031215612b0957612b08612971565b5b5f612b16868287016129f2565b9350506020612b27868287016129f2565b9250506040612b3886828701612998565b9150509250925092565b5f805f60608486031215612b5957612b58612971565b5b5f612b6686828701612998565b9350506020612b7786828701612998565b9250506040612b8886828701612998565b9150509250925092565b5f81519050919050565b5f82825260208201905092915050565b5f5b83811015612bc9578082015181840152602081019050612bae565b5f8484015250505050565b5f601f19601f8301169050919050565b5f612bee82612b92565b612bf88185612b9c565b9350612c08818560208601612bac565b612c1181612bd4565b840191505092915050565b5f604082019050612c2f5f830185612a44565b8181036020830152612c418184612be4565b90509392505050565b5f6020820190508181035f830152612c628184612be4565b905092915050565b5f60208284031215612c7f57612c7e612971565b5b5f612c8c84828501612998565b91505092915050565b7f4e6f7420616374697661746564210000000000000000000000000000000000005f82015250565b5f612cc9600e83612b9c565b9150612cd482612c95565b602082019050919050565b5f6020820190508181035f830152612cf681612cbd565b9050919050565b7f4e6f7420656e6f75676820706f696e74732e2054686520636f6e7472616374205f8201527f6d75737420626520636861726765642077697468206d6f726520746f6b656e73602082015250565b5f612d57604083612b9c565b9150612d6282612cfd565b604082019050919050565b5f6020820190508181035f830152612d8481612d4b565b9050919050565b7f57697468647261772076616c7565206d757374206265206772656174657220745f8201527f68616e2030210000000000000000000000000000000000000000000000000000602082015250565b5f612de5602683612b9c565b9150612df082612d8b565b604082019050919050565b5f6020820190508181035f830152612e1281612dd9565b9050919050565b7f4e487b71000000000000000000000000000000000000000000000000000000005f52601160045260245ffd5b5f612e5082612979565b9150612e5b83612979565b9250828203905081811115612e7357612e72612e19565b5b92915050565b7f4e6f7420417574686f72697a65642100000000000000000000000000000000005f82015250565b5f612ead600f83612b9c565b9150612eb882612e79565b602082019050919050565b5f6020820190508181035f830152612eda81612ea1565b9050919050565b7f41637469766174696f6e206e6f7420616c6c6f776564210000000000000000005f82015250565b5f612f15601783612b9c565b9150612f2082612ee1565b602082019050919050565b5f6020820190508181035f830152612f4281612f09565b9050919050565b7f416c7265616479206163746976617465642e00000000000000000000000000005f82015250565b5f612f7d601283612b9c565b9150612f8882612f49565b602082019050919050565b5f6020820190508181035f830152612faa81612f71565b9050919050565b7f4f6e6c79204f776e6572206f7220417574686f72697a656420706172746963695f8201527f7061746f722063616e206163636573732074686973206f7065726174696f6e21602082015250565b5f61300b604083612b9c565b915061301682612fb1565b604082019050919050565b5f6020820190508181035f83015261303881612fff565b9050919050565b7f4e6f7420656e6f7567682062616c616e636521000000000000000000000000005f82015250565b5f613073601383612b9c565b915061307e8261303f565b602082019050919050565b5f6020820190508181035f8301526130a081613067565b9050919050565b5f6040820190506130ba5f830185612a44565b6130c76020830184612a97565b9392505050565b6130d781612abf565b81146130e1575f80fd5b50565b5f815190506130f2816130ce565b92915050565b5f6020828403121561310d5761310c612971565b5b5f61311a848285016130e4565b91505092915050565b5f8151905061313181612982565b92915050565b5f6020828403121561314c5761314b612971565b5b5f61315984828501613123565b91505092915050565b7f526174652c20706f696e747320616e6420646563696d616c73206d75737420625f8201527f652067726561746572207468616e207a65726f21000000000000000000000000602082015250565b5f6131bc603483612b9c565b91506131c782613162565b604082019050919050565b5f6020820190508181035f8301526131e9816131b0565b9050919050565b5f8160011c9050919050565b5f808291508390505b60018511156132455780860481111561322157613220612e19565b5b60018516156132305780820291505b808102905061323e856131f0565b9450613205565b94509492505050565b5f8261325d5760019050613318565b8161326a575f9050613318565b8160018114613280576002811461328a576132b9565b6001915050613318565b60ff84111561329c5761329b612e19565b5b8360020a9150848211156132b3576132b2612e19565b5b50613318565b5060208310610133831016604e8410600b84101617156132ee5782820a9050838111156132e9576132e8612e19565b5b613318565b6132fb84848460016131fc565b9250905081840481111561331257613311612e19565b5b81810290505b9392505050565b5f61332982612979565b915061333483612979565b92506133617fffffffffffffffffffffffffffffffffffffffffffffffffffffffffffffffff848461324e565b905092915050565b5f61337382612979565b915061337e83612979565b925082820261338c81612979565b915082820484148315176133a3576133a2612e19565b5b5092915050565b7f4e487b71000000000000000000000000000000000000000000000000000000005f52601260045260245ffd5b5f6133e182612979565b91506133ec83612979565b9250826133fc576133fb6133aa565b5b828204905092915050565b5f60408201905061341a5f830185612a44565b6134276020830184612a44565b9392505050565b5f80fd5b5f80fd5b7f4e487b71000000000000000000000000000000000000000000000000000000005f52604160045260245ffd5b61346c82612bd4565b810181811067ffffffffffffffff8211171561348b5761348a613436565b5b80604052505050565b5f61349d612968565b90506134a98282613463565b919050565b5f67ffffffffffffffff8211156134c8576134c7613436565b5b6134d182612bd4565b9050602081019050919050565b5f6134f06134eb846134ae565b613494565b90508281526020810184848401111561350c5761350b613432565b5b613517848285612bac565b509392505050565b5f82601f8301126135335761353261342e565b5b81516135438482602086016134de565b91505092915050565b5f6020828403121561356157613560612971565b5b5f82015167ffffffffffffffff81111561357e5761357d612975565b5b61358a8482850161351f565b91505092915050565b7f41676772656761746f72436f6e73756d6572206973206e6f7420696e697469615f8201527f6c697a6564210000000000000000000000000000000000000000000000000000602082015250565b5f6135ed602683612b9c565b91506135f882613593565b604082019050919050565b5f6020820190508181035f83015261361a816135e1565b9050919050565b7f506f6f6c436f6e73756d6572206973206e6f7420696e697469616c697a6564215f82015250565b5f613655602083612b9c565b915061366082613621565b602082019050919050565b5f6020820190508181035f83015261368281613649565b9050919050565b7f4e6f2063686172676520616d6f756e74210000000000000000000000000000005f82015250565b5f6136bd601183612b9c565b91506136c882613689565b602082019050919050565b5f6020820190508181035f8301526136ea816136b1565b9050919050565b7f436865636b207468652000000000000000000000000000000000000000000000815250565b5f81905092915050565b5f61372b82612b92565b6137358185613717565b9350613745818560208601612bac565b80840191505092915050565b7f20746f6b656e2000000000000000000000000000000000000000000000000000815250565b7f616c6c6f77616e63652100000000000000000000000000000000000000000000815250565b5f6137a7826136f1565b600a820191506137b78284613721565b91506137c282613751565b6007820191506137d182613777565b600a8201915081905092915050565b7f72617465206572726f72210000000000000000000000000000000000000000005f82015250565b5f613814600b83612b9c565b915061381f826137e0565b602082019050919050565b5f6020820190508181035f83015261384181613808565b9050919050565b5f61385282612979565b915061385d83612979565b925082820190508082111561387557613874612e19565b5b92915050565b5f60808201905061388e5f830187612a97565b61389b6020830186612a97565b6138a86040830185612a97565b81810360608301526138ba8184612be4565b905095945050505050565b7f4f776e61626c653a206e6577206f776e657220697320746865207a65726f20615f8201527f6464726573730000000000000000000000000000000000000000000000000000602082015250565b5f61391f602683612b9c565b915061392a826138c5565b604082019050919050565b5f6020820190508181035f83015261394c81613913565b9050919050565b7f4f776e61626c653a2063616c6c6572206973206e6f7420746865206f776e65725f82015250565b5f613987602083612b9c565b915061399282613953565b602082019050919050565b5f6020820190508181035f8301526139b48161397b565b9050919050565b7f5061757361626c653a206e6f74207061757365640000000000000000000000005f82015250565b5f6139ef601483612b9c565b91506139fa826139bb565b602082019050919050565b5f6020820190508181035f830152613a1c816139e3565b9050919050565b7f5061757361626c653a20706175736564000000000000000000000000000000005f82015250565b5f613a57601083612b9c565b9150613a6282613a23565b602082019050919050565b5f6020820190508181035f830152613a8481613a4b565b9050919050565b5f805f8060808587031215613aa357613aa2612971565b5b5f613ab087828801613123565b9450506020613ac187828801613123565b935050604085015167ffffffffffffffff811115613ae257613ae1612975565b5b613aee8782880161351f565b9250506060613aff87828801613123565b91505092959194509250565b5f60a082019050613b1e5f830188612a97565b613b2b6020830187612a97565b8181036040830152613b3d8186612be4565b9050613b4c6060830185612a97565b8181036080830152613b5e8184612be4565b90509695505050505050565b5f606082019050613b7d5f830186612a44565b613b8a6020830185612a44565b613b976040830184612a97565b949350505050565b7f4e6f20746f6b656e7320746f206265206275726e6564210000000000000000005f82015250565b5f613bd3601783612b9c565b9150613bde82613b9f565b602082019050919050565b5f6020820190508181035f830152613c0081613bc7565b9050919050565b7f7472616e73616374696f6e207265766572746564206275726e20756e737563635f8201527f657366756c6c2100000000000000000000000000000000000000000000000000602082015250565b5f613c61602783612b9c565b9150613c6c82613c07565b604082019050919050565b5f6020820190508181035f830152613c8e81613c55565b9050919050565b7f5361666545524332303a204552433230206f7065726174696f6e20646964206e5f8201527f6f74207375636365656400000000000000000000000000000000000000000000602082015250565b5f613cef602a83612b9c565b9150613cfa82613c95565b604082019050919050565b5f6020820190508181035f830152613d1c81613ce3565b9050919050565b7f416464726573733a20696e73756666696369656e742062616c616e636520666f5f8201527f722063616c6c0000000000000000000000000000000000000000000000000000602082015250565b5f613d7d602683612b9c565b9150613d8882613d23565b604082019050919050565b5f6020820190508181035f830152613daa81613d71565b9050919050565b7f416464726573733a2063616c6c20746f206e6f6e2d636f6e74726163740000005f82015250565b5f613de5601d83612b9c565b9150613df082613db1565b602082019050919050565b5f6020820190508181035f830152613e1281613dd9565b9050919050565b5f81519050919050565b5f81905092915050565b5f613e3782613e19565b613e418185613e23565b9350613e51818560208601612bac565b80840191505092915050565b5f613e688284613e2d565b91508190509291505056fea26469706673582212202080b1fedb72d045ad5c1765c72108ba7258c1582fddbb0a76026c512f98f4d764736f6c63430008170033",
					"opcodes": "PUSH1 0xC0 PUSH1 0x40 MSTORE PUSH1 0x1 DUP1 PUSH1 0x14 PUSH2 0x100 EXP DUP2 SLOAD DUP2 PUSH1 0xFF MUL NOT AND SWAP1 DUP4 ISZERO ISZERO MUL OR SWAP1 SSTORE POP PUSH0 PUSH1 0x2 SSTORE PUSH0 PUSH1 0x3 SSTORE PUSH0 PUSH1 0x4 SSTORE CALLVALUE DUP1 ISZERO PUSH3 0x36 JUMPI PUSH0 DUP1 REVERT JUMPDEST POP PUSH1 0x40 MLOAD PUSH3 0x41AC CODESIZE SUB DUP1 PUSH3 0x41AC DUP4 CODECOPY DUP2 DUP2 ADD PUSH1 0x40 MSTORE DUP2 ADD SWAP1 PUSH3 0x5C SWAP2 SWAP1 PUSH3 0x26B JUMP JUMPDEST PUSH0 DUP1 PUSH0 PUSH2 0x100 EXP DUP2 SLOAD DUP2 PUSH1 0xFF MUL NOT AND SWAP1 DUP4 ISZERO ISZERO MUL OR SWAP1 SSTORE POP PUSH3 0x94 PUSH3 0x88 PUSH3 0x13C PUSH1 0x20 SHL PUSH1 0x20 SHR JUMP JUMPDEST PUSH3 0x143 PUSH1 0x20 SHL PUSH1 0x20 SHR JUMP JUMPDEST PUSH0 PUSH20 0xFFFFFFFFFFFFFFFFFFFFFFFFFFFFFFFFFFFFFFFF AND DUP2 PUSH20 0xFFFFFFFFFFFFFFFFFFFFFFFFFFFFFFFFFFFFFFFF AND SUB PUSH3 0xCC JUMPI PUSH0 DUP1 REVERT JUMPDEST DUP1 PUSH20 0xFFFFFFFFFFFFFFFFFFFFFFFFFFFFFFFFFFFFFFFF AND PUSH1 0x80 DUP2 PUSH20 0xFFFFFFFFFFFFFFFFFFFFFFFFFFFFFFFFFFFFFFFF AND DUP2 MSTORE POP POP DUP2 PUSH20 0xFFFFFFFFFFFFFFFFFFFFFFFFFFFFFFFFFFFFFFFF AND PUSH1 0xA0 DUP2 PUSH20 0xFFFFFFFFFFFFFFFFFFFFFFFFFFFFFFFFFFFFFFFF AND DUP2 MSTORE POP POP POP POP PUSH3 0x2B0 JUMP JUMPDEST PUSH0 CALLER SWAP1 POP SWAP1 JUMP JUMPDEST PUSH0 DUP1 PUSH1 0x1 SWAP1 SLOAD SWAP1 PUSH2 0x100 EXP SWAP1 DIV PUSH20 0xFFFFFFFFFFFFFFFFFFFFFFFFFFFFFFFFFFFFFFFF AND SWAP1 POP DUP2 PUSH0 PUSH1 0x1 PUSH2 0x100 EXP DUP2 SLOAD DUP2 PUSH20 0xFFFFFFFFFFFFFFFFFFFFFFFFFFFFFFFFFFFFFFFF MUL NOT AND SWAP1 DUP4 PUSH20 0xFFFFFFFFFFFFFFFFFFFFFFFFFFFFFFFFFFFFFFFF AND MUL OR SWAP1 SSTORE POP DUP2 PUSH20 0xFFFFFFFFFFFFFFFFFFFFFFFFFFFFFFFFFFFFFFFF AND DUP2 PUSH20 0xFFFFFFFFFFFFFFFFFFFFFFFFFFFFFFFFFFFFFFFF AND PUSH32 0x8BE0079C531659141344CD1FD0A4F28419497F9722A3DAAFE3B4186F6B6457E0 PUSH1 0x40 MLOAD PUSH1 0x40 MLOAD DUP1 SWAP2 SUB SWAP1 LOG3 POP POP JUMP JUMPDEST PUSH0 DUP1 REVERT JUMPDEST PUSH0 PUSH20 0xFFFFFFFFFFFFFFFFFFFFFFFFFFFFFFFFFFFFFFFF DUP3 AND SWAP1 POP SWAP2 SWAP1 POP JUMP JUMPDEST PUSH0 PUSH3 0x235 DUP3 PUSH3 0x20A JUMP JUMPDEST SWAP1 POP SWAP2 SWAP1 POP JUMP JUMPDEST PUSH3 0x247 DUP2 PUSH3 0x229 JUMP JUMPDEST DUP2 EQ PUSH3 0x252 JUMPI PUSH0 DUP1 REVERT JUMPDEST POP JUMP JUMPDEST PUSH0 DUP2 MLOAD SWAP1 POP PUSH3 0x265 DUP2 PUSH3 0x23C JUMP JUMPDEST SWAP3 SWAP2 POP POP JUMP JUMPDEST PUSH0 DUP1 PUSH1 0x40 DUP4 DUP6 SUB SLT ISZERO PUSH3 0x284 JUMPI PUSH3 0x283 PUSH3 0x206 JUMP JUMPDEST JUMPDEST PUSH0 PUSH3 0x293 DUP6 DUP3 DUP7 ADD PUSH3 0x255 JUMP JUMPDEST SWAP3 POP POP PUSH1 0x20 PUSH3 0x2A6 DUP6 DUP3 DUP7 ADD PUSH3 0x255 JUMP JUMPDEST SWAP2 POP POP SWAP3 POP SWAP3 SWAP1 POP JUMP JUMPDEST PUSH1 0x80 MLOAD PUSH1 0xA0 MLOAD PUSH2 0x3EA9 PUSH3 0x303 PUSH0 CODECOPY PUSH0 DUP2 DUP2 PUSH2 0xF5E ADD MSTORE DUP2 DUP2 PUSH2 0x12E1 ADD MSTORE DUP2 DUP2 PUSH2 0x16A9 ADD MSTORE DUP2 DUP2 PUSH2 0x16CA ADD MSTORE DUP2 DUP2 PUSH2 0x1C7B ADD MSTORE DUP2 DUP2 PUSH2 0x1E78 ADD MSTORE PUSH2 0x260B ADD MSTORE PUSH0 DUP2 DUP2 PUSH2 0x98D ADD MSTORE PUSH2 0x186D ADD MSTORE PUSH2 0x3EA9 PUSH0 RETURN INVALID PUSH1 0x80 PUSH1 0x40 MSTORE CALLVALUE DUP1 ISZERO PUSH2 0xF JUMPI PUSH0 DUP1 REVERT JUMPDEST POP PUSH1 0x4 CALLDATASIZE LT PUSH2 0x1A6 JUMPI PUSH0 CALLDATALOAD PUSH1 0xE0 SHR DUP1 PUSH4 0x7754723E GT PUSH2 0xF7 JUMPI DUP1 PUSH4 0xB0B5E39E GT PUSH2 0x95 JUMPI DUP1 PUSH4 0xE6367EBE GT PUSH2 0x6F JUMPI DUP1 PUSH4 0xE6367EBE EQ PUSH2 0x427 JUMPI DUP1 PUSH4 0xE8088766 EQ PUSH2 0x445 JUMPI DUP1 PUSH4 0xED969C84 EQ PUSH2 0x44F JUMPI DUP1 PUSH4 0xF2FDE38B EQ PUSH2 0x47F JUMPI PUSH2 0x1A6 JUMP JUMPDEST DUP1 PUSH4 0xB0B5E39E EQ PUSH2 0x3BD JUMPI DUP1 PUSH4 0xB99152D0 EQ PUSH2 0x3D9 JUMPI DUP1 PUSH4 0xBA007E75 EQ PUSH2 0x409 JUMPI PUSH2 0x1A6 JUMP JUMPDEST DUP1 PUSH4 0x9405DE64 GT PUSH2 0xD1 JUMPI DUP1 PUSH4 0x9405DE64 EQ PUSH2 0x344 JUMPI DUP1 PUSH4 0x9934415E EQ PUSH2 0x362 JUMPI DUP1 PUSH4 0xA684AB5C EQ PUSH2 0x380 JUMPI DUP1 PUSH4 0xABB1DC44 EQ PUSH2 0x39E JUMPI PUSH2 0x1A6 JUMP JUMPDEST DUP1 PUSH4 0x7754723E EQ PUSH2 0x2D8 JUMPI DUP1 PUSH4 0x8DA5CB5B EQ PUSH2 0x308 JUMPI DUP1 PUSH4 0x8EB89A61 EQ PUSH2 0x326 JUMPI PUSH2 0x1A6 JUMP JUMPDEST DUP1 PUSH4 0xF15F4C0 GT PUSH2 0x164 JUMPI DUP1 PUSH4 0x5C975ABB GT PUSH2 0x13E JUMPI DUP1 PUSH4 0x5C975ABB EQ PUSH2 0x262 JUMPI DUP1 PUSH4 0x6A9D43DD EQ PUSH2 0x280 JUMPI DUP1 PUSH4 0x715018A6 EQ PUSH2 0x2B0 JUMPI DUP1 PUSH4 0x722713F7 EQ PUSH2 0x2BA JUMPI PUSH2 0x1A6 JUMP JUMPDEST DUP1 PUSH4 0xF15F4C0 EQ PUSH2 0x230 JUMPI DUP1 PUSH4 0x2AF0E251 EQ PUSH2 0x23A JUMPI DUP1 PUSH4 0x51B42B00 EQ PUSH2 0x258 JUMPI PUSH2 0x1A6 JUMP JUMPDEST DUP1 PUSH3 0xF714CE EQ PUSH2 0x1AA JUMPI DUP1 PUSH4 0x46F7DA2 EQ PUSH2 0x1C6 JUMPI DUP1 PUSH4 0x7DA68F5 EQ PUSH2 0x1D0 JUMPI DUP1 PUSH4 0x8FADCB0 EQ PUSH2 0x1DA JUMPI DUP1 PUSH4 0xA6CB062 EQ PUSH2 0x1F8 JUMPI DUP1 PUSH4 0xBA2F1D8 EQ PUSH2 0x214 JUMPI JUMPDEST PUSH0 DUP1 REVERT JUMPDEST PUSH2 0x1C4 PUSH1 0x4 DUP1 CALLDATASIZE SUB DUP2 ADD SWAP1 PUSH2 0x1BF SWAP2 SWAP1 PUSH2 0x2A06 JUMP JUMPDEST PUSH2 0x49B JUMP JUMPDEST STOP JUMPDEST PUSH2 0x1CE PUSH2 0x624 JUMP JUMPDEST STOP JUMPDEST PUSH2 0x1D8 PUSH2 0x63E JUMP JUMPDEST STOP JUMPDEST PUSH2 0x1E2 PUSH2 0x658 JUMP JUMPDEST PUSH1 0x40 MLOAD PUSH2 0x1EF SWAP2 SWAP1 PUSH2 0x2A53 JUMP JUMPDEST PUSH1 0x40 MLOAD DUP1 SWAP2 SUB SWAP1 RETURN JUMPDEST PUSH2 0x212 PUSH1 0x4 DUP1 CALLDATASIZE SUB DUP2 ADD SWAP1 PUSH2 0x20D SWAP2 SWAP1 PUSH2 0x2A6C JUMP JUMPDEST PUSH2 0x70F JUMP JUMPDEST STOP JUMPDEST PUSH2 0x22E PUSH1 0x4 DUP1 CALLDATASIZE SUB DUP2 ADD SWAP1 PUSH2 0x229 SWAP2 SWAP1 PUSH2 0x2A6C JUMP JUMPDEST PUSH2 0x791 JUMP JUMPDEST STOP JUMPDEST PUSH2 0x238 PUSH2 0x96C JUMP JUMPDEST STOP JUMPDEST PUSH2 0x242 PUSH2 0xB42 JUMP JUMPDEST PUSH1 0x40 MLOAD PUSH2 0x24F SWAP2 SWAP1 PUSH2 0x2AA6 JUMP JUMPDEST PUSH1 0x40 MLOAD DUP1 SWAP2 SUB SWAP1 RETURN JUMPDEST PUSH2 0x260 PUSH2 0xCA6 JUMP JUMPDEST STOP JUMPDEST PUSH2 0x26A PUSH2 0xE5C JUMP JUMPDEST PUSH1 0x40 MLOAD PUSH2 0x277 SWAP2 SWAP1 PUSH2 0x2AD9 JUMP JUMPDEST PUSH1 0x40 MLOAD DUP1 SWAP2 SUB SWAP1 RETURN JUMPDEST PUSH2 0x29A PUSH1 0x4 DUP1 CALLDATASIZE SUB DUP2 ADD SWAP1 PUSH2 0x295 SWAP2 SWAP1 PUSH2 0x2AF2 JUMP JUMPDEST PUSH2 0xE70 JUMP JUMPDEST PUSH1 0x40 MLOAD PUSH2 0x2A7 SWAP2 SWAP1 PUSH2 0x2AD9 JUMP JUMPDEST PUSH1 0x40 MLOAD DUP1 SWAP2 SUB SWAP1 RETURN JUMPDEST PUSH2 0x2B8 PUSH2 0xF48 JUMP JUMPDEST STOP JUMPDEST PUSH2 0x2C2 PUSH2 0xF5B JUMP JUMPDEST PUSH1 0x40 MLOAD PUSH2 0x2CF SWAP2 SWAP1 PUSH2 0x2AA6 JUMP JUMPDEST PUSH1 0x40 MLOAD DUP1 SWAP2 SUB SWAP1 RETURN JUMPDEST PUSH2 0x2F2 PUSH1 0x4 DUP1 CALLDATASIZE SUB DUP2 ADD SWAP1 PUSH2 0x2ED SWAP2 SWAP1 PUSH2 0x2B42 JUMP JUMPDEST PUSH2 0xFF9 JUMP JUMPDEST PUSH1 0x40 MLOAD PUSH2 0x2FF SWAP2 SWAP1 PUSH2 0x2AA6 JUMP JUMPDEST PUSH1 0x40 MLOAD DUP1 SWAP2 SUB SWAP1 RETURN JUMPDEST PUSH2 0x310 PUSH2 0x1086 JUMP JUMPDEST PUSH1 0x40 MLOAD PUSH2 0x31D SWAP2 SWAP1 PUSH2 0x2A53 JUMP JUMPDEST PUSH1 0x40 MLOAD DUP1 SWAP2 SUB SWAP1 RETURN JUMPDEST PUSH2 0x32E PUSH2 0x10AE JUMP JUMPDEST PUSH1 0x40 MLOAD PUSH2 0x33B SWAP2 SWAP1 PUSH2 0x2AA6 JUMP JUMPDEST PUSH1 0x40 MLOAD DUP1 SWAP2 SUB SWAP1 RETURN JUMPDEST PUSH2 0x34C PUSH2 0x1212 JUMP JUMPDEST PUSH1 0x40 MLOAD PUSH2 0x359 SWAP2 SWAP1 PUSH2 0x2AA6 JUMP JUMPDEST PUSH1 0x40 MLOAD DUP1 SWAP2 SUB SWAP1 RETURN JUMPDEST PUSH2 0x36A PUSH2 0x137E JUMP JUMPDEST PUSH1 0x40 MLOAD PUSH2 0x377 SWAP2 SWAP1 PUSH2 0x2A53 JUMP JUMPDEST PUSH1 0x40 MLOAD DUP1 SWAP2 SUB SWAP1 RETURN JUMPDEST PUSH2 0x388 PUSH2 0x13E5 JUMP JUMPDEST PUSH1 0x40 MLOAD PUSH2 0x395 SWAP2 SWAP1 PUSH2 0x2AA6 JUMP JUMPDEST PUSH1 0x40 MLOAD DUP1 SWAP2 SUB SWAP1 RETURN JUMPDEST PUSH2 0x3A6 PUSH2 0x1549 JUMP JUMPDEST PUSH1 0x40 MLOAD PUSH2 0x3B4 SWAP3 SWAP2 SWAP1 PUSH2 0x2C1C JUMP JUMPDEST PUSH1 0x40 MLOAD DUP1 SWAP2 SUB SWAP1 RETURN JUMPDEST PUSH2 0x3D7 PUSH1 0x4 DUP1 CALLDATASIZE SUB DUP2 ADD SWAP1 PUSH2 0x3D2 SWAP2 SWAP1 PUSH2 0x2A6C JUMP JUMPDEST PUSH2 0x1760 JUMP JUMPDEST STOP JUMPDEST PUSH2 0x3F3 PUSH1 0x4 DUP1 CALLDATASIZE SUB DUP2 ADD SWAP1 PUSH2 0x3EE SWAP2 SWAP1 PUSH2 0x2A6C JUMP JUMPDEST PUSH2 0x17E2 JUMP JUMPDEST PUSH1 0x40 MLOAD PUSH2 0x400 SWAP2 SWAP1 PUSH2 0x2AA6 JUMP JUMPDEST PUSH1 0x40 MLOAD DUP1 SWAP2 SUB SWAP1 RETURN JUMPDEST PUSH2 0x411 PUSH2 0x186A JUMP JUMPDEST PUSH1 0x40 MLOAD PUSH2 0x41E SWAP2 SWAP1 PUSH2 0x2A53 JUMP JUMPDEST PUSH1 0x40 MLOAD DUP1 SWAP2 SUB SWAP1 RETURN JUMPDEST PUSH2 0x42F PUSH2 0x1891 JUMP JUMPDEST PUSH1 0x40 MLOAD PUSH2 0x43C SWAP2 SWAP1 PUSH2 0x2C4A JUMP JUMPDEST PUSH1 0x40 MLOAD DUP1 SWAP2 SUB SWAP1 RETURN JUMPDEST PUSH2 0x44D PUSH2 0x1928 JUMP JUMPDEST STOP JUMPDEST PUSH2 0x469 PUSH1 0x4 DUP1 CALLDATASIZE SUB DUP2 ADD SWAP1 PUSH2 0x464 SWAP2 SWAP1 PUSH2 0x2C6A JUMP JUMPDEST PUSH2 0x1AC8 JUMP JUMPDEST PUSH1 0x40 MLOAD PUSH2 0x476 SWAP2 SWAP1 PUSH2 0x2AD9 JUMP JUMPDEST PUSH1 0x40 MLOAD DUP1 SWAP2 SUB SWAP1 RETURN JUMPDEST PUSH2 0x499 PUSH1 0x4 DUP1 CALLDATASIZE SUB DUP2 ADD SWAP1 PUSH2 0x494 SWAP2 SWAP1 PUSH2 0x2A6C JUMP JUMPDEST PUSH2 0x1ED6 JUMP JUMPDEST STOP JUMPDEST PUSH2 0x4A3 PUSH2 0x1F58 JUMP JUMPDEST PUSH0 PUSH20 0xFFFFFFFFFFFFFFFFFFFFFFFFFFFFFFFFFFFFFFFF AND PUSH1 0x1 PUSH0 SWAP1 SLOAD SWAP1 PUSH2 0x100 EXP SWAP1 DIV PUSH20 0xFFFFFFFFFFFFFFFFFFFFFFFFFFFFFFFFFFFFFFFF AND PUSH20 0xFFFFFFFFFFFFFFFFFFFFFFFFFFFFFFFFFFFFFFFF AND SUB PUSH2 0x532 JUMPI PUSH1 0x40 MLOAD PUSH32 0x8C379A000000000000000000000000000000000000000000000000000000000 DUP2 MSTORE PUSH1 0x4 ADD PUSH2 0x529 SWAP1 PUSH2 0x2CDF JUMP JUMPDEST PUSH1 0x40 MLOAD DUP1 SWAP2 SUB SWAP1 REVERT JUMPDEST PUSH1 0x4 SLOAD DUP3 GT ISZERO PUSH2 0x577 JUMPI PUSH1 0x40 MLOAD PUSH32 0x8C379A000000000000000000000000000000000000000000000000000000000 DUP2 MSTORE PUSH1 0x4 ADD PUSH2 0x56E SWAP1 PUSH2 0x2D6D JUMP JUMPDEST PUSH1 0x40 MLOAD DUP1 SWAP2 SUB SWAP1 REVERT JUMPDEST PUSH0 DUP3 GT PUSH2 0x5B9 JUMPI PUSH1 0x40 MLOAD PUSH32 0x8C379A000000000000000000000000000000000000000000000000000000000 DUP2 MSTORE PUSH1 0x4 ADD PUSH2 0x5B0 SWAP1 PUSH2 0x2DFB JUMP JUMPDEST PUSH1 0x40 MLOAD DUP1 SWAP2 SUB SWAP1 REVERT JUMPDEST DUP1 PUSH20 0xFFFFFFFFFFFFFFFFFFFFFFFFFFFFFFFFFFFFFFFF AND TIMESTAMP PUSH32 0x71EF96C43343734B1D843BB85D52EF329F5E9143E4D35827771E3B0DD90C5F84 DUP5 PUSH1 0x40 MLOAD PUSH2 0x600 SWAP2 SWAP1 PUSH2 0x2AA6 JUMP JUMPDEST PUSH1 0x40 MLOAD DUP1 SWAP2 SUB SWAP1 LOG3 DUP2 PUSH1 0x4 PUSH0 DUP3 DUP3 SLOAD PUSH2 0x619 SWAP2 SWAP1 PUSH2 0x2E46 JUMP JUMPDEST SWAP3 POP POP DUP2 SWAP1 SSTORE POP POP POP JUMP JUMPDEST PUSH2 0x62C PUSH2 0x1FD6 JUMP JUMPDEST PUSH2 0x634 PUSH2 0x1F58 JUMP JUMPDEST PUSH2 0x63C PUSH2 0x201F JUMP JUMPDEST JUMP JUMPDEST PUSH2 0x646 PUSH2 0x207F JUMP JUMPDEST PUSH2 0x64E PUSH2 0x1F58 JUMP JUMPDEST PUSH2 0x656 PUSH2 0x20C9 JUMP JUMPDEST JUMP JUMPDEST PUSH0 DUP1 PUSH20 0xFFFFFFFFFFFFFFFFFFFFFFFFFFFFFFFFFFFFFFFF AND PUSH1 0x1 PUSH0 SWAP1 SLOAD SWAP1 PUSH2 0x100 EXP SWAP1 DIV PUSH20 0xFFFFFFFFFFFFFFFFFFFFFFFFFFFFFFFFFFFFFFFF AND PUSH20 0xFFFFFFFFFFFFFFFFFFFFFFFFFFFFFFFFFFFFFFFF AND SUB PUSH2 0x6E8 JUMPI PUSH1 0x40 MLOAD PUSH32 0x8C379A000000000000000000000000000000000000000000000000000000000 DUP2 MSTORE PUSH1 0x4 ADD PUSH2 0x6DF SWAP1 PUSH2 0x2CDF JUMP JUMPDEST PUSH1 0x40 MLOAD DUP1 SWAP2 SUB SWAP1 REVERT JUMPDEST PUSH1 0x1 PUSH0 SWAP1 SLOAD SWAP1 PUSH2 0x100 EXP SWAP1 DIV PUSH20 0xFFFFFFFFFFFFFFFFFFFFFFFFFFFFFFFFFFFFFFFF AND SWAP1 POP SWAP1 JUMP JUMPDEST PUSH2 0x717 PUSH2 0x1F58 JUMP JUMPDEST PUSH0 PUSH20 0xFFFFFFFFFFFFFFFFFFFFFFFFFFFFFFFFFFFFFFFF AND DUP2 PUSH20 0xFFFFFFFFFFFFFFFFFFFFFFFFFFFFFFFFFFFFFFFF AND SUB PUSH2 0x74E JUMPI PUSH0 DUP1 REVERT JUMPDEST DUP1 PUSH1 0x5 PUSH0 PUSH2 0x100 EXP DUP2 SLOAD DUP2 PUSH20 0xFFFFFFFFFFFFFFFFFFFFFFFFFFFFFFFFFFFFFFFF MUL NOT AND SWAP1 DUP4 PUSH20 0xFFFFFFFFFFFFFFFFFFFFFFFFFFFFFFFFFFFFFFFF AND MUL OR SWAP1 SSTORE POP POP JUMP JUMPDEST PUSH0 PUSH20 0xFFFFFFFFFFFFFFFFFFFFFFFFFFFFFFFFFFFFFFFF AND PUSH1 0x1 PUSH0 SWAP1 SLOAD SWAP1 PUSH2 0x100 EXP SWAP1 DIV PUSH20 0xFFFFFFFFFFFFFFFFFFFFFFFFFFFFFFFFFFFFFFFF AND PUSH20 0xFFFFFFFFFFFFFFFFFFFFFFFFFFFFFFFFFFFFFFFF AND SUB PUSH2 0x820 JUMPI PUSH1 0x40 MLOAD PUSH32 0x8C379A000000000000000000000000000000000000000000000000000000000 DUP2 MSTORE PUSH1 0x4 ADD PUSH2 0x817 SWAP1 PUSH2 0x2CDF JUMP JUMPDEST PUSH1 0x40 MLOAD DUP1 SWAP2 SUB SWAP1 REVERT JUMPDEST PUSH1 0x1 PUSH0 SWAP1 SLOAD SWAP1 PUSH2 0x100 EXP SWAP1 DIV PUSH20 0xFFFFFFFFFFFFFFFFFFFFFFFFFFFFFFFFFFFFFFFF AND PUSH20 0xFFFFFFFFFFFFFFFFFFFFFFFFFFFFFFFFFFFFFFFF AND CALLER PUSH20 0xFFFFFFFFFFFFFFFFFFFFFFFFFFFFFFFFFFFFFFFF AND EQ PUSH2 0x8AF JUMPI PUSH1 0x40 MLOAD PUSH32 0x8C379A000000000000000000000000000000000000000000000000000000000 DUP2 MSTORE PUSH1 0x4 ADD PUSH2 0x8A6 SWAP1 PUSH2 0x2EC3 JUMP JUMPDEST PUSH1 0x40 MLOAD DUP1 SWAP2 SUB SWAP1 REVERT JUMPDEST PUSH0 PUSH20 0xFFFFFFFFFFFFFFFFFFFFFFFFFFFFFFFFFFFFFFFF AND DUP2 PUSH20 0xFFFFFFFFFFFFFFFFFFFFFFFFFFFFFFFFFFFFFFFF AND SUB PUSH2 0x8E6 JUMPI PUSH0 DUP1 REVERT JUMPDEST DUP1 PUSH1 0x1 PUSH0 PUSH2 0x100 EXP DUP2 SLOAD DUP2 PUSH20 0xFFFFFFFFFFFFFFFFFFFFFFFFFFFFFFFFFFFFFFFF MUL NOT AND SWAP1 DUP4 PUSH20 0xFFFFFFFFFFFFFFFFFFFFFFFFFFFFFFFFFFFFFFFF AND MUL OR SWAP1 SSTORE POP DUP1 PUSH20 0xFFFFFFFFFFFFFFFFFFFFFFFFFFFFFFFFFFFFFFFF AND PUSH32 0x8BBFEB6E784147166691D407A592A09379BBBD56888A96C54793BCE54BB57523 PUSH1 0x40 MLOAD PUSH1 0x40 MLOAD DUP1 SWAP2 SUB SWAP1 LOG2 POP JUMP JUMPDEST PUSH2 0x974 PUSH2 0x207F JUMP JUMPDEST CALLER PUSH20 0xFFFFFFFFFFFFFFFFFFFFFFFFFFFFFFFFFFFFFFFF AND PUSH32 0x0 PUSH20 0xFFFFFFFFFFFFFFFFFFFFFFFFFFFFFFFFFFFFFFFF AND EQ PUSH2 0xA02 JUMPI PUSH1 0x40 MLOAD PUSH32 0x8C379A000000000000000000000000000000000000000000000000000000000 DUP2 MSTORE PUSH1 0x4 ADD PUSH2 0x9F9 SWAP1 PUSH2 0x2F2B JUMP JUMPDEST PUSH1 0x40 MLOAD DUP1 SWAP2 SUB SWAP1 REVERT JUMPDEST PUSH0 PUSH20 0xFFFFFFFFFFFFFFFFFFFFFFFFFFFFFFFFFFFFFFFF AND PUSH1 0x1 PUSH0 SWAP1 SLOAD SWAP1 PUSH2 0x100 EXP SWAP1 DIV PUSH20 0xFFFFFFFFFFFFFFFFFFFFFFFFFFFFFFFFFFFFFFFF AND PUSH20 0xFFFFFFFFFFFFFFFFFFFFFFFFFFFFFFFFFFFFFFFF AND EQ PUSH2 0xA91 JUMPI PUSH1 0x40 MLOAD PUSH32 0x8C379A000000000000000000000000000000000000000000000000000000000 DUP2 MSTORE PUSH1 0x4 ADD PUSH2 0xA88 SWAP1 PUSH2 0x2F93 JUMP JUMPDEST PUSH1 0x40 MLOAD DUP1 SWAP2 SUB SWAP1 REVERT JUMPDEST CALLER PUSH1 0x1 PUSH0 PUSH2 0x100 EXP DUP2 SLOAD DUP2 PUSH20 0xFFFFFFFFFFFFFFFFFFFFFFFFFFFFFFFFFFFFFFFF MUL NOT AND SWAP1 DUP4 PUSH20 0xFFFFFFFFFFFFFFFFFFFFFFFFFFFFFFFFFFFFFFFF AND MUL OR SWAP1 SSTORE POP PUSH1 0x1 PUSH0 SWAP1 SLOAD SWAP1 PUSH2 0x100 EXP SWAP1 DIV PUSH20 0xFFFFFFFFFFFFFFFFFFFFFFFFFFFFFFFFFFFFFFFF AND PUSH20 0xFFFFFFFFFFFFFFFFFFFFFFFFFFFFFFFFFFFFFFFF AND PUSH32 0xFBD0A3F6E9A0DD5F834515748047E83DE8064477489A0A0D6B59C64BBECC992A TIMESTAMP PUSH1 0x40 MLOAD PUSH2 0xB38 SWAP2 SWAP1 PUSH2 0x2AA6 JUMP JUMPDEST PUSH1 0x40 MLOAD DUP1 SWAP2 SUB SWAP1 LOG2 JUMP JUMPDEST PUSH0 DUP1 PUSH20 0xFFFFFFFFFFFFFFFFFFFFFFFFFFFFFFFFFFFFFFFF AND PUSH1 0x1 PUSH0 SWAP1 SLOAD SWAP1 PUSH2 0x100 EXP SWAP1 DIV PUSH20 0xFFFFFFFFFFFFFFFFFFFFFFFFFFFFFFFFFFFFFFFF AND PUSH20 0xFFFFFFFFFFFFFFFFFFFFFFFFFFFFFFFFFFFFFFFF AND SUB PUSH2 0xBD2 JUMPI PUSH1 0x40 MLOAD PUSH32 0x8C379A000000000000000000000000000000000000000000000000000000000 DUP2 MSTORE PUSH1 0x4 ADD PUSH2 0xBC9 SWAP1 PUSH2 0x2CDF JUMP JUMPDEST PUSH1 0x40 MLOAD DUP1 SWAP2 SUB SWAP1 REVERT JUMPDEST PUSH1 0x1 PUSH0 SWAP1 SLOAD SWAP1 PUSH2 0x100 EXP SWAP1 DIV PUSH20 0xFFFFFFFFFFFFFFFFFFFFFFFFFFFFFFFFFFFFFFFF AND PUSH20 0xFFFFFFFFFFFFFFFFFFFFFFFFFFFFFFFFFFFFFFFF AND CALLER PUSH20 0xFFFFFFFFFFFFFFFFFFFFFFFFFFFFFFFFFFFFFFFF AND EQ DUP1 PUSH2 0xC5F JUMPI POP PUSH2 0xC30 PUSH2 0x1086 JUMP JUMPDEST PUSH20 0xFFFFFFFFFFFFFFFFFFFFFFFFFFFFFFFFFFFFFFFF AND CALLER PUSH20 0xFFFFFFFFFFFFFFFFFFFFFFFFFFFFFFFFFFFFFFFF AND EQ JUMPDEST PUSH2 0xC9E JUMPI PUSH1 0x40 MLOAD PUSH32 0x8C379A000000000000000000000000000000000000000000000000000000000 DUP2 MSTORE PUSH1 0x4 ADD PUSH2 0xC95 SWAP1 PUSH2 0x3021 JUMP JUMPDEST PUSH1 0x40 MLOAD DUP1 SWAP2 SUB SWAP1 REVERT JUMPDEST PUSH1 0x2 SLOAD SWAP1 POP SWAP1 JUMP JUMPDEST PUSH0 PUSH20 0xFFFFFFFFFFFFFFFFFFFFFFFFFFFFFFFFFFFFFFFF AND PUSH1 0x1 PUSH0 SWAP1 SLOAD SWAP1 PUSH2 0x100 EXP SWAP1 DIV PUSH20 0xFFFFFFFFFFFFFFFFFFFFFFFFFFFFFFFFFFFFFFFF AND PUSH20 0xFFFFFFFFFFFFFFFFFFFFFFFFFFFFFFFFFFFFFFFF AND SUB PUSH2 0xD35 JUMPI PUSH1 0x40 MLOAD PUSH32 0x8C379A000000000000000000000000000000000000000000000000000000000 DUP2 MSTORE PUSH1 0x4 ADD PUSH2 0xD2C SWAP1 PUSH2 0x2CDF JUMP JUMPDEST PUSH1 0x40 MLOAD DUP1 SWAP2 SUB SWAP1 REVERT JUMPDEST PUSH1 0x1 PUSH0 SWAP1 SLOAD SWAP1 PUSH2 0x100 EXP SWAP1 DIV PUSH20 0xFFFFFFFFFFFFFFFFFFFFFFFFFFFFFFFFFFFFFFFF AND PUSH20 0xFFFFFFFFFFFFFFFFFFFFFFFFFFFFFFFFFFFFFFFF AND CALLER PUSH20 0xFFFFFFFFFFFFFFFFFFFFFFFFFFFFFFFFFFFFFFFF AND EQ PUSH2 0xDC4 JUMPI PUSH1 0x40 MLOAD PUSH32 0x8C379A000000000000000000000000000000000000000000000000000000000 DUP2 MSTORE PUSH1 0x4 ADD PUSH2 0xDBB SWAP1 PUSH2 0x2EC3 JUMP JUMPDEST PUSH1 0x40 MLOAD DUP1 SWAP2 SUB SWAP1 REVERT JUMPDEST PUSH2 0xDCC PUSH2 0x207F JUMP JUMPDEST PUSH0 PUSH1 0x1 PUSH0 PUSH2 0x100 EXP DUP2 SLOAD DUP2 PUSH20 0xFFFFFFFFFFFFFFFFFFFFFFFFFFFFFFFFFFFFFFFF MUL NOT AND SWAP1 DUP4 PUSH20 0xFFFFFFFFFFFFFFFFFFFFFFFFFFFFFFFFFFFFFFFF AND MUL OR SWAP1 SSTORE POP CALLER PUSH20 0xFFFFFFFFFFFFFFFFFFFFFFFFFFFFFFFFFFFFFFFF AND PUSH32 0x13B865880A841DC469B629159FA1E730FEE99568B0DECC6737FD688B36246381 TIMESTAMP PUSH1 0x40 MLOAD PUSH2 0xE52 SWAP2 SWAP1 PUSH2 0x2AA6 JUMP JUMPDEST PUSH1 0x40 MLOAD DUP1 SWAP2 SUB SWAP1 LOG2 JUMP JUMPDEST PUSH0 DUP1 PUSH0 SWAP1 SLOAD SWAP1 PUSH2 0x100 EXP SWAP1 DIV PUSH1 0xFF AND SWAP1 POP SWAP1 JUMP JUMPDEST PUSH0 PUSH2 0xE79 PUSH2 0x1F58 JUMP JUMPDEST DUP2 PUSH2 0xE83 DUP6 PUSH2 0x17E2 JUMP JUMPDEST LT ISZERO PUSH2 0xEC4 JUMPI PUSH1 0x40 MLOAD PUSH32 0x8C379A000000000000000000000000000000000000000000000000000000000 DUP2 MSTORE PUSH1 0x4 ADD PUSH2 0xEBB SWAP1 PUSH2 0x3089 JUMP JUMPDEST PUSH1 0x40 MLOAD DUP1 SWAP2 SUB SWAP1 REVERT JUMPDEST DUP4 PUSH20 0xFFFFFFFFFFFFFFFFFFFFFFFFFFFFFFFFFFFFFFFF AND PUSH4 0xA9059CBB DUP5 DUP5 PUSH1 0x40 MLOAD DUP4 PUSH4 0xFFFFFFFF AND PUSH1 0xE0 SHL DUP2 MSTORE PUSH1 0x4 ADD PUSH2 0xEFF SWAP3 SWAP2 SWAP1 PUSH2 0x30A7 JUMP JUMPDEST PUSH1 0x20 PUSH1 0x40 MLOAD DUP1 DUP4 SUB DUP2 PUSH0 DUP8 GAS CALL ISZERO DUP1 ISZERO PUSH2 0xF1B JUMPI RETURNDATASIZE PUSH0 DUP1 RETURNDATACOPY RETURNDATASIZE PUSH0 REVERT JUMPDEST POP POP POP POP PUSH1 0x40 MLOAD RETURNDATASIZE PUSH1 0x1F NOT PUSH1 0x1F DUP3 ADD AND DUP3 ADD DUP1 PUSH1 0x40 MSTORE POP DUP2 ADD SWAP1 PUSH2 0xF3F SWAP2 SWAP1 PUSH2 0x30F8 JUMP JUMPDEST SWAP1 POP SWAP4 SWAP3 POP POP POP JUMP JUMPDEST PUSH2 0xF50 PUSH2 0x1F58 JUMP JUMPDEST PUSH2 0xF59 PUSH0 PUSH2 0x212A JUMP JUMPDEST JUMP JUMPDEST PUSH0 PUSH32 0x0 PUSH20 0xFFFFFFFFFFFFFFFFFFFFFFFFFFFFFFFFFFFFFFFF AND PUSH4 0x70A08231 ADDRESS PUSH1 0x40 MLOAD DUP3 PUSH4 0xFFFFFFFF AND PUSH1 0xE0 SHL DUP2 MSTORE PUSH1 0x4 ADD PUSH2 0xFB5 SWAP2 SWAP1 PUSH2 0x2A53 JUMP JUMPDEST PUSH1 0x20 PUSH1 0x40 MLOAD DUP1 DUP4 SUB DUP2 DUP7 GAS STATICCALL ISZERO DUP1 ISZERO PUSH2 0xFD0 JUMPI RETURNDATASIZE PUSH0 DUP1 RETURNDATACOPY RETURNDATASIZE PUSH0 REVERT JUMPDEST POP POP POP POP PUSH1 0x40 MLOAD RETURNDATASIZE PUSH1 0x1F NOT PUSH1 0x1F DUP3 ADD AND DUP3 ADD DUP1 PUSH1 0x40 MSTORE POP DUP2 ADD SWAP1 PUSH2 0xFF4 SWAP2 SWAP1 PUSH2 0x3137 JUMP JUMPDEST SWAP1 POP SWAP1 JUMP JUMPDEST PUSH0 PUSH2 0x1002 PUSH2 0x1F58 JUMP JUMPDEST PUSH0 DUP4 GT DUP1 ISZERO PUSH2 0x1010 JUMPI POP PUSH0 DUP5 GT JUMPDEST DUP1 ISZERO PUSH2 0x101B JUMPI POP PUSH0 DUP3 GT JUMPDEST PUSH2 0x105A JUMPI PUSH1 0x40 MLOAD PUSH32 0x8C379A000000000000000000000000000000000000000000000000000000000 DUP2 MSTORE PUSH1 0x4 ADD PUSH2 0x1051 SWAP1 PUSH2 0x31D2 JUMP JUMPDEST PUSH1 0x40 MLOAD DUP1 SWAP2 SUB SWAP1 REVERT JUMPDEST DUP3 DUP3 PUSH1 0xA PUSH2 0x1068 SWAP2 SWAP1 PUSH2 0x331F JUMP JUMPDEST DUP6 PUSH2 0x1073 SWAP2 SWAP1 PUSH2 0x3369 JUMP JUMPDEST PUSH2 0x107D SWAP2 SWAP1 PUSH2 0x33D7 JUMP JUMPDEST SWAP1 POP SWAP4 SWAP3 POP POP POP JUMP JUMPDEST PUSH0 DUP1 PUSH1 0x1 SWAP1 SLOAD SWAP1 PUSH2 0x100 EXP SWAP1 DIV PUSH20 0xFFFFFFFFFFFFFFFFFFFFFFFFFFFFFFFFFFFFFFFF AND SWAP1 POP SWAP1 JUMP JUMPDEST PUSH0 DUP1 PUSH20 0xFFFFFFFFFFFFFFFFFFFFFFFFFFFFFFFFFFFFFFFF AND PUSH1 0x1 PUSH0 SWAP1 SLOAD SWAP1 PUSH2 0x100 EXP SWAP1 DIV PUSH20 0xFFFFFFFFFFFFFFFFFFFFFFFFFFFFFFFFFFFFFFFF AND PUSH20 0xFFFFFFFFFFFFFFFFFFFFFFFFFFFFFFFFFFFFFFFF AND SUB PUSH2 0x113E JUMPI PUSH1 0x40 MLOAD PUSH32 0x8C379A000000000000000000000000000000000000000000000000000000000 DUP2 MSTORE PUSH1 0x4 ADD PUSH2 0x1135 SWAP1 PUSH2 0x2CDF JUMP JUMPDEST PUSH1 0x40 MLOAD DUP1 SWAP2 SUB SWAP1 REVERT JUMPDEST PUSH1 0x1 PUSH0 SWAP1 SLOAD SWAP1 PUSH2 0x100 EXP SWAP1 DIV PUSH20 0xFFFFFFFFFFFFFFFFFFFFFFFFFFFFFFFFFFFFFFFF AND PUSH20 0xFFFFFFFFFFFFFFFFFFFFFFFFFFFFFFFFFFFFFFFF AND CALLER PUSH20 0xFFFFFFFFFFFFFFFFFFFFFFFFFFFFFFFFFFFFFFFF AND EQ DUP1 PUSH2 0x11CB JUMPI POP PUSH2 0x119C PUSH2 0x1086 JUMP JUMPDEST PUSH20 0xFFFFFFFFFFFFFFFFFFFFFFFFFFFFFFFFFFFFFFFF AND CALLER PUSH20 0xFFFFFFFFFFFFFFFFFFFFFFFFFFFFFFFFFFFFFFFF AND EQ JUMPDEST PUSH2 0x120A JUMPI PUSH1 0x40 MLOAD PUSH32 0x8C379A000000000000000000000000000000000000000000000000000000000 DUP2 MSTORE PUSH1 0x4 ADD PUSH2 0x1201 SWAP1 PUSH2 0x3021 JUMP JUMPDEST PUSH1 0x40 MLOAD DUP1 SWAP2 SUB SWAP1 REVERT JUMPDEST PUSH1 0x4 SLOAD SWAP1 POP SWAP1 JUMP JUMPDEST PUSH0 PUSH1 0x1 PUSH0 SWAP1 SLOAD SWAP1 PUSH2 0x100 EXP SWAP1 DIV PUSH20 0xFFFFFFFFFFFFFFFFFFFFFFFFFFFFFFFFFFFFFFFF AND PUSH20 0xFFFFFFFFFFFFFFFFFFFFFFFFFFFFFFFFFFFFFFFF AND CALLER PUSH20 0xFFFFFFFFFFFFFFFFFFFFFFFFFFFFFFFFFFFFFFFF AND EQ DUP1 PUSH2 0x12A0 JUMPI POP PUSH2 0x1271 PUSH2 0x1086 JUMP JUMPDEST PUSH20 0xFFFFFFFFFFFFFFFFFFFFFFFFFFFFFFFFFFFFFFFF AND CALLER PUSH20 0xFFFFFFFFFFFFFFFFFFFFFFFFFFFFFFFFFFFFFFFF AND EQ JUMPDEST PUSH2 0x12DF JUMPI PUSH1 0x40 MLOAD PUSH32 0x8C379A000000000000000000000000000000000000000000000000000000000 DUP2 MSTORE PUSH1 0x4 ADD PUSH2 0x12D6 SWAP1 PUSH2 0x3021 JUMP JUMPDEST PUSH1 0x40 MLOAD DUP1 SWAP2 SUB SWAP1 REVERT JUMPDEST PUSH32 0x0 PUSH20 0xFFFFFFFFFFFFFFFFFFFFFFFFFFFFFFFFFFFFFFFF AND PUSH4 0xDD62ED3E CALLER ADDRESS PUSH1 0x40 MLOAD DUP4 PUSH4 0xFFFFFFFF AND PUSH1 0xE0 SHL DUP2 MSTORE PUSH1 0x4 ADD PUSH2 0x133A SWAP3 SWAP2 SWAP1 PUSH2 0x3407 JUMP JUMPDEST PUSH1 0x20 PUSH1 0x40 MLOAD DUP1 DUP4 SUB DUP2 DUP7 GAS STATICCALL ISZERO DUP1 ISZERO PUSH2 0x1355 JUMPI RETURNDATASIZE PUSH0 DUP1 RETURNDATACOPY RETURNDATASIZE PUSH0 REVERT JUMPDEST POP POP POP POP PUSH1 0x40 MLOAD RETURNDATASIZE PUSH1 0x1F NOT PUSH1 0x1F DUP3 ADD AND DUP3 ADD DUP1 PUSH1 0x40 MSTORE POP DUP2 ADD SWAP1 PUSH2 0x1379 SWAP2 SWAP1 PUSH2 0x3137 JUMP JUMPDEST SWAP1 POP SWAP1 JUMP JUMPDEST PUSH0 PUSH1 0x1 PUSH1 0x14 SWAP1 SLOAD SWAP1 PUSH2 0x100 EXP SWAP1 DIV PUSH1 0xFF AND ISZERO PUSH2 0x13BD JUMPI PUSH1 0x6 PUSH0 SWAP1 SLOAD SWAP1 PUSH2 0x100 EXP SWAP1 DIV PUSH20 0xFFFFFFFFFFFFFFFFFFFFFFFFFFFFFFFFFFFFFFFF AND SWAP1 POP PUSH2 0x13E2 JUMP JUMPDEST PUSH1 0x5 PUSH0 SWAP1 SLOAD SWAP1 PUSH2 0x100 EXP SWAP1 DIV PUSH20 0xFFFFFFFFFFFFFFFFFFFFFFFFFFFFFFFFFFFFFFFF AND SWAP1 POP JUMPDEST SWAP1 JUMP JUMPDEST PUSH0 DUP1 PUSH20 0xFFFFFFFFFFFFFFFFFFFFFFFFFFFFFFFFFFFFFFFF AND PUSH1 0x1 PUSH0 SWAP1 SLOAD SWAP1 PUSH2 0x100 EXP SWAP1 DIV PUSH20 0xFFFFFFFFFFFFFFFFFFFFFFFFFFFFFFFFFFFFFFFF AND PUSH20 0xFFFFFFFFFFFFFFFFFFFFFFFFFFFFFFFFFFFFFFFF AND SUB PUSH2 0x1475 JUMPI PUSH1 0x40 MLOAD PUSH32 0x8C379A000000000000000000000000000000000000000000000000000000000 DUP2 MSTORE PUSH1 0x4 ADD PUSH2 0x146C SWAP1 PUSH2 0x2CDF JUMP JUMPDEST PUSH1 0x40 MLOAD DUP1 SWAP2 SUB SWAP1 REVERT JUMPDEST PUSH1 0x1 PUSH0 SWAP1 SLOAD SWAP1 PUSH2 0x100 EXP SWAP1 DIV PUSH20 0xFFFFFFFFFFFFFFFFFFFFFFFFFFFFFFFFFFFFFFFF AND PUSH20 0xFFFFFFFFFFFFFFFFFFFFFFFFFFFFFFFFFFFFFFFF AND CALLER PUSH20 0xFFFFFFFFFFFFFFFFFFFFFFFFFFFFFFFFFFFFFFFF AND EQ DUP1 PUSH2 0x1502 JUMPI POP PUSH2 0x14D3 PUSH2 0x1086 JUMP JUMPDEST PUSH20 0xFFFFFFFFFFFFFFFFFFFFFFFFFFFFFFFFFFFFFFFF AND CALLER PUSH20 0xFFFFFFFFFFFFFFFFFFFFFFFFFFFFFFFFFFFFFFFF AND EQ JUMPDEST PUSH2 0x1541 JUMPI PUSH1 0x40 MLOAD PUSH32 0x8C379A000000000000000000000000000000000000000000000000000000000 DUP2 MSTORE PUSH1 0x4 ADD PUSH2 0x1538 SWAP1 PUSH2 0x3021 JUMP JUMPDEST PUSH1 0x40 MLOAD DUP1 SWAP2 SUB SWAP1 REVERT JUMPDEST PUSH1 0x3 SLOAD SWAP1 POP SWAP1 JUMP JUMPDEST PUSH0 PUSH1 0x60 PUSH0 PUSH20 0xFFFFFFFFFFFFFFFFFFFFFFFFFFFFFFFFFFFFFFFF AND PUSH1 0x1 PUSH0 SWAP1 SLOAD SWAP1 PUSH2 0x100 EXP SWAP1 DIV PUSH20 0xFFFFFFFFFFFFFFFFFFFFFFFFFFFFFFFFFFFFFFFF AND PUSH20 0xFFFFFFFFFFFFFFFFFFFFFFFFFFFFFFFFFFFFFFFF AND SUB PUSH2 0x15DB JUMPI PUSH1 0x40 MLOAD PUSH32 0x8C379A000000000000000000000000000000000000000000000000000000000 DUP2 MSTORE PUSH1 0x4 ADD PUSH2 0x15D2 SWAP1 PUSH2 0x2CDF JUMP JUMPDEST PUSH1 0x40 MLOAD DUP1 SWAP2 SUB SWAP1 REVERT JUMPDEST PUSH1 0x1 PUSH0 SWAP1 SLOAD SWAP1 PUSH2 0x100 EXP SWAP1 DIV PUSH20 0xFFFFFFFFFFFFFFFFFFFFFFFFFFFFFFFFFFFFFFFF AND PUSH20 0xFFFFFFFFFFFFFFFFFFFFFFFFFFFFFFFFFFFFFFFF AND CALLER PUSH20 0xFFFFFFFFFFFFFFFFFFFFFFFFFFFFFFFFFFFFFFFF AND EQ DUP1 PUSH2 0x1668 JUMPI POP PUSH2 0x1639 PUSH2 0x1086 JUMP JUMPDEST PUSH20 0xFFFFFFFFFFFFFFFFFFFFFFFFFFFFFFFFFFFFFFFF AND CALLER PUSH20 0xFFFFFFFFFFFFFFFFFFFFFFFFFFFFFFFFFFFFFFFF AND EQ JUMPDEST PUSH2 0x16A7 JUMPI PUSH1 0x40 MLOAD PUSH32 0x8C379A000000000000000000000000000000000000000000000000000000000 DUP2 MSTORE PUSH1 0x4 ADD PUSH2 0x169E SWAP1 PUSH2 0x3021 JUMP JUMPDEST PUSH1 0x40 MLOAD DUP1 SWAP2 SUB SWAP1 REVERT JUMPDEST PUSH32 0x0 PUSH32 0x0 PUSH20 0xFFFFFFFFFFFFFFFFFFFFFFFFFFFFFFFFFFFFFFFF AND PUSH4 0x95D89B41 PUSH1 0x40 MLOAD DUP2 PUSH4 0xFFFFFFFF AND PUSH1 0xE0 SHL DUP2 MSTORE PUSH1 0x4 ADD PUSH0 PUSH1 0x40 MLOAD DUP1 DUP4 SUB DUP2 DUP7 GAS STATICCALL ISZERO DUP1 ISZERO PUSH2 0x1730 JUMPI RETURNDATASIZE PUSH0 DUP1 RETURNDATACOPY RETURNDATASIZE PUSH0 REVERT JUMPDEST POP POP POP POP PUSH1 0x40 MLOAD RETURNDATASIZE PUSH0 DUP3 RETURNDATACOPY RETURNDATASIZE PUSH1 0x1F NOT PUSH1 0x1F DUP3 ADD AND DUP3 ADD DUP1 PUSH1 0x40 MSTORE POP DUP2 ADD SWAP1 PUSH2 0x1758 SWAP2 SWAP1 PUSH2 0x354C JUMP JUMPDEST SWAP2 POP SWAP2 POP SWAP1 SWAP2 JUMP JUMPDEST PUSH2 0x1768 PUSH2 0x1F58 JUMP JUMPDEST PUSH0 PUSH20 0xFFFFFFFFFFFFFFFFFFFFFFFFFFFFFFFFFFFFFFFF AND DUP2 PUSH20 0xFFFFFFFFFFFFFFFFFFFFFFFFFFFFFFFFFFFFFFFF AND SUB PUSH2 0x179F JUMPI PUSH0 DUP1 REVERT JUMPDEST DUP1 PUSH1 0x6 PUSH0 PUSH2 0x100 EXP DUP2 SLOAD DUP2 PUSH20 0xFFFFFFFFFFFFFFFFFFFFFFFFFFFFFFFFFFFFFFFF MUL NOT AND SWAP1 DUP4 PUSH20 0xFFFFFFFFFFFFFFFFFFFFFFFFFFFFFFFFFFFFFFFF AND MUL OR SWAP1 SSTORE POP POP JUMP JUMPDEST PUSH0 PUSH2 0x17EB PUSH2 0x1F58 JUMP JUMPDEST DUP2 PUSH20 0xFFFFFFFFFFFFFFFFFFFFFFFFFFFFFFFFFFFFFFFF AND PUSH4 0x70A08231 ADDRESS PUSH1 0x40 MLOAD DUP3 PUSH4 0xFFFFFFFF AND PUSH1 0xE0 SHL DUP2 MSTORE PUSH1 0x4 ADD PUSH2 0x1824 SWAP2 SWAP1 PUSH2 0x2A53 JUMP JUMPDEST PUSH1 0x20 PUSH1 0x40 MLOAD DUP1 DUP4 SUB DUP2 DUP7 GAS STATICCALL ISZERO DUP1 ISZERO PUSH2 0x183F JUMPI RETURNDATASIZE PUSH0 DUP1 RETURNDATACOPY RETURNDATASIZE PUSH0 REVERT JUMPDEST POP POP POP POP PUSH1 0x40 MLOAD RETURNDATASIZE PUSH1 0x1F NOT PUSH1 0x1F DUP3 ADD AND DUP3 ADD DUP1 PUSH1 0x40 MSTORE POP DUP2 ADD SWAP1 PUSH2 0x1863 SWAP2 SWAP1 PUSH2 0x3137 JUMP JUMPDEST SWAP1 POP SWAP2 SWAP1 POP JUMP JUMPDEST PUSH0 PUSH32 0x0 SWAP1 POP SWAP1 JUMP JUMPDEST PUSH1 0x60 DUP1 PUSH1 0x1 PUSH1 0x14 SWAP1 SLOAD SWAP1 PUSH2 0x100 EXP SWAP1 DIV PUSH1 0xFF AND PUSH2 0x18E6 JUMPI PUSH1 0x40 MLOAD DUP1 PUSH1 0x40 ADD PUSH1 0x40 MSTORE DUP1 PUSH1 0xC DUP2 MSTORE PUSH1 0x20 ADD PUSH32 0x41676772656761746F7256330000000000000000000000000000000000000000 DUP2 MSTORE POP SWAP1 POP DUP1 PUSH2 0x1920 JUMP JUMPDEST PUSH1 0x40 MLOAD DUP1 PUSH1 0x40 ADD PUSH1 0x40 MSTORE DUP1 PUSH1 0x4 DUP2 MSTORE PUSH1 0x20 ADD PUSH32 0x506F6F6C00000000000000000000000000000000000000000000000000000000 DUP2 MSTORE POP SWAP1 POP DUP1 JUMPDEST POP DUP1 SWAP2 POP POP SWAP1 JUMP JUMPDEST PUSH2 0x1930 PUSH2 0x1F58 JUMP JUMPDEST PUSH1 0x1 PUSH1 0x14 SWAP1 SLOAD SWAP1 PUSH2 0x100 EXP SWAP1 DIV PUSH1 0xFF AND ISZERO PUSH2 0x19F2 JUMPI PUSH1 0x1 PUSH1 0x14 SWAP1 SLOAD SWAP1 PUSH2 0x100 EXP SWAP1 DIV PUSH1 0xFF AND DUP1 ISZERO PUSH2 0x19AE JUMPI POP PUSH0 PUSH20 0xFFFFFFFFFFFFFFFFFFFFFFFFFFFFFFFFFFFFFFFF AND PUSH1 0x5 PUSH0 SWAP1 SLOAD SWAP1 PUSH2 0x100 EXP SWAP1 DIV PUSH20 0xFFFFFFFFFFFFFFFFFFFFFFFFFFFFFFFFFFFFFFFF AND PUSH20 0xFFFFFFFFFFFFFFFFFFFFFFFFFFFFFFFFFFFFFFFF AND EQ ISZERO JUMPDEST PUSH2 0x19ED JUMPI PUSH1 0x40 MLOAD PUSH32 0x8C379A000000000000000000000000000000000000000000000000000000000 DUP2 MSTORE PUSH1 0x4 ADD PUSH2 0x19E4 SWAP1 PUSH2 0x3603 JUMP JUMPDEST PUSH1 0x40 MLOAD DUP1 SWAP2 SUB SWAP1 REVERT JUMPDEST PUSH2 0x1A9C JUMP JUMPDEST PUSH1 0x1 PUSH1 0x14 SWAP1 SLOAD SWAP1 PUSH2 0x100 EXP SWAP1 DIV PUSH1 0xFF AND ISZERO DUP1 ISZERO PUSH2 0x1A5C JUMPI POP PUSH0 PUSH20 0xFFFFFFFFFFFFFFFFFFFFFFFFFFFFFFFFFFFFFFFF AND PUSH1 0x6 PUSH0 SWAP1 SLOAD SWAP1 PUSH2 0x100 EXP SWAP1 DIV PUSH20 0xFFFFFFFFFFFFFFFFFFFFFFFFFFFFFFFFFFFFFFFF AND PUSH20 0xFFFFFFFFFFFFFFFFFFFFFFFFFFFFFFFFFFFFFFFF AND EQ ISZERO JUMPDEST PUSH2 0x1A9B JUMPI PUSH1 0x40 MLOAD PUSH32 0x8C379A000000000000000000000000000000000000000000000000000000000 DUP2 MSTORE PUSH1 0x4 ADD PUSH2 0x1A92 SWAP1 PUSH2 0x366B JUMP JUMPDEST PUSH1 0x40 MLOAD DUP1 SWAP2 SUB SWAP1 REVERT JUMPDEST JUMPDEST PUSH1 0x1 PUSH1 0x14 SWAP1 SLOAD SWAP1 PUSH2 0x100 EXP SWAP1 DIV PUSH1 0xFF AND ISZERO PUSH1 0x1 PUSH1 0x14 PUSH2 0x100 EXP DUP2 SLOAD DUP2 PUSH1 0xFF MUL NOT AND SWAP1 DUP4 ISZERO ISZERO MUL OR SWAP1 SSTORE POP JUMP JUMPDEST PUSH0 PUSH2 0x1AD1 PUSH2 0x207F JUMP JUMPDEST PUSH0 PUSH20 0xFFFFFFFFFFFFFFFFFFFFFFFFFFFFFFFFFFFFFFFF AND PUSH1 0x1 PUSH0 SWAP1 SLOAD SWAP1 PUSH2 0x100 EXP SWAP1 DIV PUSH20 0xFFFFFFFFFFFFFFFFFFFFFFFFFFFFFFFFFFFFFFFF AND PUSH20 0xFFFFFFFFFFFFFFFFFFFFFFFFFFFFFFFFFFFFFFFF AND SUB PUSH2 0x1B60 JUMPI PUSH1 0x40 MLOAD PUSH32 0x8C379A000000000000000000000000000000000000000000000000000000000 DUP2 MSTORE PUSH1 0x4 ADD PUSH2 0x1B57 SWAP1 PUSH2 0x2CDF JUMP JUMPDEST PUSH1 0x40 MLOAD DUP1 SWAP2 SUB SWAP1 REVERT JUMPDEST PUSH1 0x1 PUSH0 SWAP1 SLOAD SWAP1 PUSH2 0x100 EXP SWAP1 DIV PUSH20 0xFFFFFFFFFFFFFFFFFFFFFFFFFFFFFFFFFFFFFFFF AND PUSH20 0xFFFFFFFFFFFFFFFFFFFFFFFFFFFFFFFFFFFFFFFF AND CALLER PUSH20 0xFFFFFFFFFFFFFFFFFFFFFFFFFFFFFFFFFFFFFFFF AND EQ DUP1 PUSH2 0x1BED JUMPI POP PUSH2 0x1BBE PUSH2 0x1086 JUMP JUMPDEST PUSH20 0xFFFFFFFFFFFFFFFFFFFFFFFFFFFFFFFFFFFFFFFF AND CALLER PUSH20 0xFFFFFFFFFFFFFFFFFFFFFFFFFFFFFFFFFFFFFFFF AND EQ JUMPDEST PUSH2 0x1C2C JUMPI PUSH1 0x40 MLOAD PUSH32 0x8C379A000000000000000000000000000000000000000000000000000000000 DUP2 MSTORE PUSH1 0x4 ADD PUSH2 0x1C23 SWAP1 PUSH2 0x3021 JUMP JUMPDEST PUSH1 0x40 MLOAD DUP1 SWAP2 SUB SWAP1 REVERT JUMPDEST PUSH0 DUP3 GT PUSH2 0x1C6E JUMPI PUSH1 0x40 MLOAD PUSH32 0x8C379A000000000000000000000000000000000000000000000000000000000 DUP2 MSTORE PUSH1 0x4 ADD PUSH2 0x1C65 SWAP1 PUSH2 0x36D3 JUMP JUMPDEST PUSH1 0x40 MLOAD DUP1 SWAP2 SUB SWAP1 REVERT JUMPDEST DUP2 PUSH2 0x1C77 PUSH2 0x1212 JUMP JUMPDEST LT ISZERO PUSH32 0x0 PUSH20 0xFFFFFFFFFFFFFFFFFFFFFFFFFFFFFFFFFFFFFFFF AND PUSH4 0x95D89B41 PUSH1 0x40 MLOAD DUP2 PUSH4 0xFFFFFFFF AND PUSH1 0xE0 SHL DUP2 MSTORE PUSH1 0x4 ADD PUSH0 PUSH1 0x40 MLOAD DUP1 DUP4 SUB DUP2 DUP7 GAS STATICCALL ISZERO DUP1 ISZERO PUSH2 0x1CE1 JUMPI RETURNDATASIZE PUSH0 DUP1 RETURNDATACOPY RETURNDATASIZE PUSH0 REVERT JUMPDEST POP POP POP POP PUSH1 0x40 MLOAD RETURNDATASIZE PUSH0 DUP3 RETURNDATACOPY RETURNDATASIZE PUSH1 0x1F NOT PUSH1 0x1F DUP3 ADD AND DUP3 ADD DUP1 PUSH1 0x40 MSTORE POP DUP2 ADD SWAP1 PUSH2 0x1D09 SWAP2 SWAP1 PUSH2 0x354C JUMP JUMPDEST PUSH1 0x40 MLOAD PUSH1 0x20 ADD PUSH2 0x1D19 SWAP2 SWAP1 PUSH2 0x379D JUMP JUMPDEST PUSH1 0x40 MLOAD PUSH1 0x20 DUP2 DUP4 SUB SUB DUP2 MSTORE SWAP1 PUSH1 0x40 MSTORE SWAP1 PUSH2 0x1D69 JUMPI PUSH1 0x40 MLOAD PUSH32 0x8C379A000000000000000000000000000000000000000000000000000000000 DUP2 MSTORE PUSH1 0x4 ADD PUSH2 0x1D60 SWAP2 SWAP1 PUSH2 0x2C4A JUMP JUMPDEST PUSH1 0x40 MLOAD DUP1 SWAP2 SUB SWAP1 REVERT JUMPDEST POP PUSH0 DUP1 PUSH0 DUP1 PUSH2 0x1D76 PUSH2 0x21ED JUMP JUMPDEST SWAP4 POP SWAP4 POP SWAP4 POP SWAP4 POP PUSH0 DUP5 GT DUP1 ISZERO PUSH2 0x1D8C JUMPI POP PUSH0 DUP4 GT JUMPDEST DUP1 ISZERO PUSH2 0x1D97 JUMPI POP PUSH0 DUP2 GT JUMPDEST PUSH2 0x1DD6 JUMPI PUSH1 0x40 MLOAD PUSH32 0x8C379A000000000000000000000000000000000000000000000000000000000 DUP2 MSTORE PUSH1 0x4 ADD PUSH2 0x1DCD SWAP1 PUSH2 0x382A JUMP JUMPDEST PUSH1 0x40 MLOAD DUP1 SWAP2 SUB SWAP1 REVERT JUMPDEST PUSH0 PUSH2 0x1DE2 DUP8 DUP7 DUP7 PUSH2 0x2505 JUMP JUMPDEST SWAP1 POP DUP1 PUSH1 0x4 PUSH0 DUP3 DUP3 SLOAD PUSH2 0x1DF5 SWAP2 SWAP1 PUSH2 0x3848 JUMP JUMPDEST SWAP3 POP POP DUP2 SWAP1 SSTORE POP DUP1 PUSH1 0x3 PUSH0 DUP3 DUP3 SLOAD PUSH2 0x1E0D SWAP2 SWAP1 PUSH2 0x3848 JUMP JUMPDEST SWAP3 POP POP DUP2 SWAP1 SSTORE POP DUP7 PUSH1 0x2 PUSH0 DUP3 DUP3 SLOAD PUSH2 0x1E25 SWAP2 SWAP1 PUSH2 0x3848 JUMP JUMPDEST SWAP3 POP POP DUP2 SWAP1 SSTORE POP PUSH0 TIMESTAMP SWAP1 POP DUP1 DUP9 DUP4 PUSH32 0xB5AEB7B225999ADC33232BE2121AFB1A366C15108C1DA745D17FD76108172FE4 DUP10 DUP10 DUP9 DUP11 PUSH1 0x40 MLOAD PUSH2 0x1E68 SWAP5 SWAP4 SWAP3 SWAP2 SWAP1 PUSH2 0x387B JUMP JUMPDEST PUSH1 0x40 MLOAD DUP1 SWAP2 SUB SWAP1 LOG4 PUSH2 0x1EBD CALLER ADDRESS DUP11 PUSH32 0x0 PUSH20 0xFFFFFFFFFFFFFFFFFFFFFFFFFFFFFFFFFFFFFFFF AND PUSH2 0x2532 SWAP1 SWAP4 SWAP3 SWAP2 SWAP1 PUSH4 0xFFFFFFFF AND JUMP JUMPDEST PUSH2 0x1EC6 DUP9 PUSH2 0x25BB JUMP JUMPDEST POP PUSH1 0x1 SWAP7 POP POP POP POP POP POP POP SWAP2 SWAP1 POP JUMP JUMPDEST PUSH2 0x1EDE PUSH2 0x1F58 JUMP JUMPDEST PUSH0 PUSH20 0xFFFFFFFFFFFFFFFFFFFFFFFFFFFFFFFFFFFFFFFF AND DUP2 PUSH20 0xFFFFFFFFFFFFFFFFFFFFFFFFFFFFFFFFFFFFFFFF AND SUB PUSH2 0x1F4C JUMPI PUSH1 0x40 MLOAD PUSH32 0x8C379A000000000000000000000000000000000000000000000000000000000 DUP2 MSTORE PUSH1 0x4 ADD PUSH2 0x1F43 SWAP1 PUSH2 0x3935 JUMP JUMPDEST PUSH1 0x40 MLOAD DUP1 SWAP2 SUB SWAP1 REVERT JUMPDEST PUSH2 0x1F55 DUP2 PUSH2 0x212A JUMP JUMPDEST POP JUMP JUMPDEST PUSH2 0x1F60 PUSH2 0x26ED JUMP JUMPDEST PUSH20 0xFFFFFFFFFFFFFFFFFFFFFFFFFFFFFFFFFFFFFFFF AND PUSH2 0x1F7E PUSH2 0x1086 JUMP JUMPDEST PUSH20 0xFFFFFFFFFFFFFFFFFFFFFFFFFFFFFFFFFFFFFFFF AND EQ PUSH2 0x1FD4 JUMPI PUSH1 0x40 MLOAD PUSH32 0x8C379A000000000000000000000000000000000000000000000000000000000 DUP2 MSTORE PUSH1 0x4 ADD PUSH2 0x1FCB SWAP1 PUSH2 0x399D JUMP JUMPDEST PUSH1 0x40 MLOAD DUP1 SWAP2 SUB SWAP1 REVERT JUMPDEST JUMP JUMPDEST PUSH2 0x1FDE PUSH2 0xE5C JUMP JUMPDEST PUSH2 0x201D JUMPI PUSH1 0x40 MLOAD PUSH32 0x8C379A000000000000000000000000000000000000000000000000000000000 DUP2 MSTORE PUSH1 0x4 ADD PUSH2 0x2014 SWAP1 PUSH2 0x3A05 JUMP JUMPDEST PUSH1 0x40 MLOAD DUP1 SWAP2 SUB SWAP1 REVERT JUMPDEST JUMP JUMPDEST PUSH2 0x2027 PUSH2 0x1FD6 JUMP JUMPDEST PUSH0 DUP1 PUSH0 PUSH2 0x100 EXP DUP2 SLOAD DUP2 PUSH1 0xFF MUL NOT AND SWAP1 DUP4 ISZERO ISZERO MUL OR SWAP1 SSTORE POP PUSH32 0x5DB9EE0A495BF2E6FF9C91A7834C1BA4FDD244A5E8AA4E537BD38AEAE4B073AA PUSH2 0x2068 PUSH2 0x26ED JUMP JUMPDEST PUSH1 0x40 MLOAD PUSH2 0x2075 SWAP2 SWAP1 PUSH2 0x2A53 JUMP JUMPDEST PUSH1 0x40 MLOAD DUP1 SWAP2 SUB SWAP1 LOG1 JUMP JUMPDEST PUSH2 0x2087 PUSH2 0xE5C JUMP JUMPDEST ISZERO PUSH2 0x20C7 JUMPI PUSH1 0x40 MLOAD PUSH32 0x8C379A000000000000000000000000000000000000000000000000000000000 DUP2 MSTORE PUSH1 0x4 ADD PUSH2 0x20BE SWAP1 PUSH2 0x3A6D JUMP JUMPDEST PUSH1 0x40 MLOAD DUP1 SWAP2 SUB SWAP1 REVERT JUMPDEST JUMP JUMPDEST PUSH2 0x20D1 PUSH2 0x207F JUMP JUMPDEST PUSH1 0x1 PUSH0 DUP1 PUSH2 0x100 EXP DUP2 SLOAD DUP2 PUSH1 0xFF MUL NOT AND SWAP1 DUP4 ISZERO ISZERO MUL OR SWAP1 SSTORE POP PUSH32 0x62E78CEA01BEE320CD4E420270B5EA74000D11B0C9F74754EBDBFC544B05A258 PUSH2 0x2113 PUSH2 0x26ED JUMP JUMPDEST PUSH1 0x40 MLOAD PUSH2 0x2120 SWAP2 SWAP1 PUSH2 0x2A53 JUMP JUMPDEST PUSH1 0x40 MLOAD DUP1 SWAP2 SUB SWAP1 LOG1 JUMP JUMPDEST PUSH0 DUP1 PUSH1 0x1 SWAP1 SLOAD SWAP1 PUSH2 0x100 EXP SWAP1 DIV PUSH20 0xFFFFFFFFFFFFFFFFFFFFFFFFFFFFFFFFFFFFFFFF AND SWAP1 POP DUP2 PUSH0 PUSH1 0x1 PUSH2 0x100 EXP DUP2 SLOAD DUP2 PUSH20 0xFFFFFFFFFFFFFFFFFFFFFFFFFFFFFFFFFFFFFFFF MUL NOT AND SWAP1 DUP4 PUSH20 0xFFFFFFFFFFFFFFFFFFFFFFFFFFFFFFFFFFFFFFFF AND MUL OR SWAP1 SSTORE POP DUP2 PUSH20 0xFFFFFFFFFFFFFFFFFFFFFFFFFFFFFFFFFFFFFFFF AND DUP2 PUSH20 0xFFFFFFFFFFFFFFFFFFFFFFFFFFFFFFFFFFFFFFFF AND PUSH32 0x8BE0079C531659141344CD1FD0A4F28419497F9722A3DAAFE3B4186F6B6457E0 PUSH1 0x40 MLOAD PUSH1 0x40 MLOAD DUP1 SWAP2 SUB SWAP1 LOG3 POP POP JUMP JUMPDEST PUSH0 DUP1 PUSH1 0x60 PUSH0 PUSH1 0x1 PUSH1 0x14 SWAP1 SLOAD SWAP1 PUSH2 0x100 EXP SWAP1 DIV PUSH1 0xFF AND ISZERO PUSH2 0x22B4 JUMPI PUSH1 0x1 PUSH1 0x14 SWAP1 SLOAD SWAP1 PUSH2 0x100 EXP SWAP1 DIV PUSH1 0xFF AND DUP1 ISZERO PUSH2 0x2270 JUMPI POP PUSH0 PUSH20 0xFFFFFFFFFFFFFFFFFFFFFFFFFFFFFFFFFFFFFFFF AND PUSH1 0x6 PUSH0 SWAP1 SLOAD SWAP1 PUSH2 0x100 EXP SWAP1 DIV PUSH20 0xFFFFFFFFFFFFFFFFFFFFFFFFFFFFFFFFFFFFFFFF AND PUSH20 0xFFFFFFFFFFFFFFFFFFFFFFFFFFFFFFFFFFFFFFFF AND EQ ISZERO JUMPDEST PUSH2 0x22AF JUMPI PUSH1 0x40 MLOAD PUSH32 0x8C379A000000000000000000000000000000000000000000000000000000000 DUP2 MSTORE PUSH1 0x4 ADD PUSH2 0x22A6 SWAP1 PUSH2 0x366B JUMP JUMPDEST PUSH1 0x40 MLOAD DUP1 SWAP2 SUB SWAP1 REVERT JUMPDEST PUSH2 0x235E JUMP JUMPDEST PUSH1 0x1 PUSH1 0x14 SWAP1 SLOAD SWAP1 PUSH2 0x100 EXP SWAP1 DIV PUSH1 0xFF AND ISZERO DUP1 ISZERO PUSH2 0x231E JUMPI POP PUSH0 PUSH20 0xFFFFFFFFFFFFFFFFFFFFFFFFFFFFFFFFFFFFFFFF AND PUSH1 0x5 PUSH0 SWAP1 SLOAD SWAP1 PUSH2 0x100 EXP SWAP1 DIV PUSH20 0xFFFFFFFFFFFFFFFFFFFFFFFFFFFFFFFFFFFFFFFF AND PUSH20 0xFFFFFFFFFFFFFFFFFFFFFFFFFFFFFFFFFFFFFFFF AND EQ ISZERO JUMPDEST PUSH2 0x235D JUMPI PUSH1 0x40 MLOAD PUSH32 0x8C379A000000000000000000000000000000000000000000000000000000000 DUP2 MSTORE PUSH1 0x4 ADD PUSH2 0x2354 SWAP1 PUSH2 0x3603 JUMP JUMPDEST PUSH1 0x40 MLOAD DUP1 SWAP2 SUB SWAP1 REVERT JUMPDEST JUMPDEST PUSH0 DUP1 PUSH0 DUP1 PUSH1 0x1 PUSH1 0x14 SWAP1 SLOAD SWAP1 PUSH2 0x100 EXP SWAP1 DIV PUSH1 0xFF AND ISZERO PUSH2 0x240E JUMPI PUSH1 0x6 PUSH0 SWAP1 SLOAD SWAP1 PUSH2 0x100 EXP SWAP1 DIV PUSH20 0xFFFFFFFFFFFFFFFFFFFFFFFFFFFFFFFFFFFFFFFF AND PUSH20 0xFFFFFFFFFFFFFFFFFFFFFFFFFFFFFFFFFFFFFFFF AND PUSH4 0x85096EDC PUSH1 0x40 MLOAD DUP2 PUSH4 0xFFFFFFFF AND PUSH1 0xE0 SHL DUP2 MSTORE PUSH1 0x4 ADD PUSH0 PUSH1 0x40 MLOAD DUP1 DUP4 SUB DUP2 PUSH0 DUP8 GAS CALL ISZERO DUP1 ISZERO PUSH2 0x23E1 JUMPI RETURNDATASIZE PUSH0 DUP1 RETURNDATACOPY RETURNDATASIZE PUSH0 REVERT JUMPDEST POP POP POP POP PUSH1 0x40 MLOAD RETURNDATASIZE PUSH0 DUP3 RETURNDATACOPY RETURNDATASIZE PUSH1 0x1F NOT PUSH1 0x1F DUP3 ADD AND DUP3 ADD DUP1 PUSH1 0x40 MSTORE POP DUP2 ADD SWAP1 PUSH2 0x2409 SWAP2 SWAP1 PUSH2 0x3A8B JUMP JUMPDEST PUSH2 0x24A1 JUMP JUMPDEST PUSH1 0x5 PUSH0 SWAP1 SLOAD SWAP1 PUSH2 0x100 EXP SWAP1 DIV PUSH20 0xFFFFFFFFFFFFFFFFFFFFFFFFFFFFFFFFFFFFFFFF AND PUSH20 0xFFFFFFFFFFFFFFFFFFFFFFFFFFFFFFFFFFFFFFFF AND PUSH4 0xE1E7FF77 PUSH1 0x40 MLOAD DUP2 PUSH4 0xFFFFFFFF AND PUSH1 0xE0 SHL DUP2 MSTORE PUSH1 0x4 ADD PUSH0 PUSH1 0x40 MLOAD DUP1 DUP4 SUB DUP2 PUSH0 DUP8 GAS CALL ISZERO DUP1 ISZERO PUSH2 0x2478 JUMPI RETURNDATASIZE PUSH0 DUP1 RETURNDATACOPY RETURNDATASIZE PUSH0 REVERT JUMPDEST POP POP POP POP PUSH1 0x40 MLOAD RETURNDATASIZE PUSH0 DUP3 RETURNDATACOPY RETURNDATASIZE PUSH1 0x1F NOT PUSH1 0x1F DUP3 ADD AND DUP3 ADD DUP1 PUSH1 0x40 MSTORE POP DUP2 ADD SWAP1 PUSH2 0x24A0 SWAP2 SWAP1 PUSH2 0x3A8B JUMP JUMPDEST JUMPDEST SWAP4 POP SWAP4 POP SWAP4 POP SWAP4 POP PUSH32 0xF533C7EBCAB9CA95557310F62AA7AD41D3A6B17AEBEC7762B994EF1A14863865 DUP5 DUP5 DUP5 DUP5 PUSH2 0x24D6 PUSH2 0x1891 JUMP JUMPDEST PUSH1 0x40 MLOAD PUSH2 0x24E7 SWAP6 SWAP5 SWAP4 SWAP3 SWAP2 SWAP1 PUSH2 0x3B0B JUMP JUMPDEST PUSH1 0x40 MLOAD DUP1 SWAP2 SUB SWAP1 LOG1 DUP4 DUP4 DUP4 DUP4 SWAP8 POP SWAP8 POP SWAP8 POP SWAP8 POP POP POP POP POP SWAP1 SWAP2 SWAP3 SWAP4 JUMP JUMPDEST PUSH0 DUP2 PUSH1 0xA PUSH2 0x2513 SWAP2 SWAP1 PUSH2 0x331F JUMP JUMPDEST DUP4 DUP6 PUSH2 0x251F SWAP2 SWAP1 PUSH2 0x3369 JUMP JUMPDEST PUSH2 0x2529 SWAP2 SWAP1 PUSH2 0x33D7 JUMP JUMPDEST SWAP1 POP SWAP4 SWAP3 POP POP POP JUMP JUMPDEST PUSH2 0x25B5 DUP5 PUSH4 0x23B872DD PUSH1 0xE0 SHL DUP6 DUP6 DUP6 PUSH1 0x40 MLOAD PUSH1 0x24 ADD PUSH2 0x2553 SWAP4 SWAP3 SWAP2 SWAP1 PUSH2 0x3B6A JUMP JUMPDEST PUSH1 0x40 MLOAD PUSH1 0x20 DUP2 DUP4 SUB SUB DUP2 MSTORE SWAP1 PUSH1 0x40 MSTORE SWAP1 PUSH28 0xFFFFFFFFFFFFFFFFFFFFFFFFFFFFFFFFFFFFFFFFFFFFFFFFFFFFFFFF NOT AND PUSH1 0x20 DUP3 ADD DUP1 MLOAD PUSH28 0xFFFFFFFFFFFFFFFFFFFFFFFFFFFFFFFFFFFFFFFFFFFFFFFFFFFFFFFF DUP4 DUP2 DUP4 AND OR DUP4 MSTORE POP POP POP POP PUSH2 0x26F4 JUMP JUMPDEST POP POP POP POP JUMP JUMPDEST PUSH0 DUP1 DUP3 GT PUSH2 0x25FE JUMPI PUSH1 0x40 MLOAD PUSH32 0x8C379A000000000000000000000000000000000000000000000000000000000 DUP2 MSTORE PUSH1 0x4 ADD PUSH2 0x25F5 SWAP1 PUSH2 0x3BE9 JUMP JUMPDEST PUSH1 0x40 MLOAD DUP1 SWAP2 SUB SWAP1 REVERT JUMPDEST PUSH0 PUSH2 0x2607 PUSH2 0xF5B JUMP JUMPDEST SWAP1 POP PUSH32 0x0 PUSH20 0xFFFFFFFFFFFFFFFFFFFFFFFFFFFFFFFFFFFFFFFF AND PUSH4 0x42966C68 DUP5 PUSH1 0x40 MLOAD DUP3 PUSH4 0xFFFFFFFF AND PUSH1 0xE0 SHL DUP2 MSTORE PUSH1 0x4 ADD PUSH2 0x2662 SWAP2 SWAP1 PUSH2 0x2AA6 JUMP JUMPDEST PUSH0 PUSH1 0x40 MLOAD DUP1 DUP4 SUB DUP2 PUSH0 DUP8 DUP1 EXTCODESIZE ISZERO DUP1 ISZERO PUSH2 0x2679 JUMPI PUSH0 DUP1 REVERT JUMPDEST POP GAS CALL ISZERO DUP1 ISZERO PUSH2 0x268B JUMPI RETURNDATASIZE PUSH0 DUP1 RETURNDATACOPY RETURNDATASIZE PUSH0 REVERT JUMPDEST POP POP POP POP DUP3 DUP2 PUSH2 0x269B SWAP2 SWAP1 PUSH2 0x2E46 JUMP JUMPDEST PUSH2 0x26A3 PUSH2 0xF5B JUMP JUMPDEST EQ PUSH2 0x26E3 JUMPI PUSH1 0x40 MLOAD PUSH32 0x8C379A000000000000000000000000000000000000000000000000000000000 DUP2 MSTORE PUSH1 0x4 ADD PUSH2 0x26DA SWAP1 PUSH2 0x3C77 JUMP JUMPDEST PUSH1 0x40 MLOAD DUP1 SWAP2 SUB SWAP1 REVERT JUMPDEST PUSH1 0x1 SWAP2 POP POP SWAP2 SWAP1 POP JUMP JUMPDEST PUSH0 CALLER SWAP1 POP SWAP1 JUMP JUMPDEST PUSH0 PUSH2 0x2755 DUP3 PUSH1 0x40 MLOAD DUP1 PUSH1 0x40 ADD PUSH1 0x40 MSTORE DUP1 PUSH1 0x20 DUP2 MSTORE PUSH1 0x20 ADD PUSH32 0x5361666545524332303A206C6F772D6C6576656C2063616C6C206661696C6564 DUP2 MSTORE POP DUP6 PUSH20 0xFFFFFFFFFFFFFFFFFFFFFFFFFFFFFFFFFFFFFFFF AND PUSH2 0x27B9 SWAP1 SWAP3 SWAP2 SWAP1 PUSH4 0xFFFFFFFF AND JUMP JUMPDEST SWAP1 POP PUSH0 DUP2 MLOAD GT ISZERO PUSH2 0x27B4 JUMPI DUP1 DUP1 PUSH1 0x20 ADD SWAP1 MLOAD DUP2 ADD SWAP1 PUSH2 0x2774 SWAP2 SWAP1 PUSH2 0x30F8 JUMP JUMPDEST PUSH2 0x27B3 JUMPI PUSH1 0x40 MLOAD PUSH32 0x8C379A000000000000000000000000000000000000000000000000000000000 DUP2 MSTORE PUSH1 0x4 ADD PUSH2 0x27AA SWAP1 PUSH2 0x3D05 JUMP JUMPDEST PUSH1 0x40 MLOAD DUP1 SWAP2 SUB SWAP1 REVERT JUMPDEST JUMPDEST POP POP POP JUMP JUMPDEST PUSH1 0x60 PUSH2 0x27C7 DUP5 DUP5 PUSH0 DUP6 PUSH2 0x27D0 JUMP JUMPDEST SWAP1 POP SWAP4 SWAP3 POP POP POP JUMP JUMPDEST PUSH1 0x60 DUP3 SELFBALANCE LT ISZERO PUSH2 0x2815 JUMPI PUSH1 0x40 MLOAD PUSH32 0x8C379A000000000000000000000000000000000000000000000000000000000 DUP2 MSTORE PUSH1 0x4 ADD PUSH2 0x280C SWAP1 PUSH2 0x3D93 JUMP JUMPDEST PUSH1 0x40 MLOAD DUP1 SWAP2 SUB SWAP1 REVERT JUMPDEST PUSH2 0x281E DUP6 PUSH2 0x28E0 JUMP JUMPDEST PUSH2 0x285D JUMPI PUSH1 0x40 MLOAD PUSH32 0x8C379A000000000000000000000000000000000000000000000000000000000 DUP2 MSTORE PUSH1 0x4 ADD PUSH2 0x2854 SWAP1 PUSH2 0x3DFB JUMP JUMPDEST PUSH1 0x40 MLOAD DUP1 SWAP2 SUB SWAP1 REVERT JUMPDEST PUSH0 DUP1 DUP7 PUSH20 0xFFFFFFFFFFFFFFFFFFFFFFFFFFFFFFFFFFFFFFFF AND DUP6 DUP8 PUSH1 0x40 MLOAD PUSH2 0x2885 SWAP2 SWAP1 PUSH2 0x3E5D JUMP JUMPDEST PUSH0 PUSH1 0x40 MLOAD DUP1 DUP4 SUB DUP2 DUP6 DUP8 GAS CALL SWAP3 POP POP POP RETURNDATASIZE DUP1 PUSH0 DUP2 EQ PUSH2 0x28BF JUMPI PUSH1 0x40 MLOAD SWAP2 POP PUSH1 0x1F NOT PUSH1 0x3F RETURNDATASIZE ADD AND DUP3 ADD PUSH1 0x40 MSTORE RETURNDATASIZE DUP3 MSTORE RETURNDATASIZE PUSH0 PUSH1 0x20 DUP5 ADD RETURNDATACOPY PUSH2 0x28C4 JUMP JUMPDEST PUSH1 0x60 SWAP2 POP JUMPDEST POP SWAP2 POP SWAP2 POP PUSH2 0x28D4 DUP3 DUP3 DUP7 PUSH2 0x2902 JUMP JUMPDEST SWAP3 POP POP POP SWAP5 SWAP4 POP POP POP POP JUMP JUMPDEST PUSH0 DUP1 DUP3 PUSH20 0xFFFFFFFFFFFFFFFFFFFFFFFFFFFFFFFFFFFFFFFF AND EXTCODESIZE GT SWAP1 POP SWAP2 SWAP1 POP JUMP JUMPDEST PUSH1 0x60 DUP4 ISZERO PUSH2 0x2912 JUMPI DUP3 SWAP1 POP PUSH2 0x2961 JUMP JUMPDEST PUSH0 DUP4 MLOAD GT ISZERO PUSH2 0x2924 JUMPI DUP3 MLOAD DUP1 DUP5 PUSH1 0x20 ADD REVERT JUMPDEST DUP2 PUSH1 0x40 MLOAD PUSH32 0x8C379A000000000000000000000000000000000000000000000000000000000 DUP2 MSTORE PUSH1 0x4 ADD PUSH2 0x2958 SWAP2 SWAP1 PUSH2 0x2C4A JUMP JUMPDEST PUSH1 0x40 MLOAD DUP1 SWAP2 SUB SWAP1 REVERT JUMPDEST SWAP4 SWAP3 POP POP POP JUMP JUMPDEST PUSH0 PUSH1 0x40 MLOAD SWAP1 POP SWAP1 JUMP JUMPDEST PUSH0 DUP1 REVERT JUMPDEST PUSH0 DUP1 REVERT JUMPDEST PUSH0 DUP2 SWAP1 POP SWAP2 SWAP1 POP JUMP JUMPDEST PUSH2 0x298B DUP2 PUSH2 0x2979 JUMP JUMPDEST DUP2 EQ PUSH2 0x2995 JUMPI PUSH0 DUP1 REVERT JUMPDEST POP JUMP JUMPDEST PUSH0 DUP2 CALLDATALOAD SWAP1 POP PUSH2 0x29A6 DUP2 PUSH2 0x2982 JUMP JUMPDEST SWAP3 SWAP2 POP POP JUMP JUMPDEST PUSH0 PUSH20 0xFFFFFFFFFFFFFFFFFFFFFFFFFFFFFFFFFFFFFFFF DUP3 AND SWAP1 POP SWAP2 SWAP1 POP JUMP JUMPDEST PUSH0 PUSH2 0x29D5 DUP3 PUSH2 0x29AC JUMP JUMPDEST SWAP1 POP SWAP2 SWAP1 POP JUMP JUMPDEST PUSH2 0x29E5 DUP2 PUSH2 0x29CB JUMP JUMPDEST DUP2 EQ PUSH2 0x29EF JUMPI PUSH0 DUP1 REVERT JUMPDEST POP JUMP JUMPDEST PUSH0 DUP2 CALLDATALOAD SWAP1 POP PUSH2 0x2A00 DUP2 PUSH2 0x29DC JUMP JUMPDEST SWAP3 SWAP2 POP POP JUMP JUMPDEST PUSH0 DUP1 PUSH1 0x40 DUP4 DUP6 SUB SLT ISZERO PUSH2 0x2A1C JUMPI PUSH2 0x2A1B PUSH2 0x2971 JUMP JUMPDEST JUMPDEST PUSH0 PUSH2 0x2A29 DUP6 DUP3 DUP7 ADD PUSH2 0x2998 JUMP JUMPDEST SWAP3 POP POP PUSH1 0x20 PUSH2 0x2A3A DUP6 DUP3 DUP7 ADD PUSH2 0x29F2 JUMP JUMPDEST SWAP2 POP POP SWAP3 POP SWAP3 SWAP1 POP JUMP JUMPDEST PUSH2 0x2A4D DUP2 PUSH2 0x29CB JUMP JUMPDEST DUP3 MSTORE POP POP JUMP JUMPDEST PUSH0 PUSH1 0x20 DUP3 ADD SWAP1 POP PUSH2 0x2A66 PUSH0 DUP4 ADD DUP5 PUSH2 0x2A44 JUMP JUMPDEST SWAP3 SWAP2 POP POP JUMP JUMPDEST PUSH0 PUSH1 0x20 DUP3 DUP5 SUB SLT ISZERO PUSH2 0x2A81 JUMPI PUSH2 0x2A80 PUSH2 0x2971 JUMP JUMPDEST JUMPDEST PUSH0 PUSH2 0x2A8E DUP5 DUP3 DUP6 ADD PUSH2 0x29F2 JUMP JUMPDEST SWAP2 POP POP SWAP3 SWAP2 POP POP JUMP JUMPDEST PUSH2 0x2AA0 DUP2 PUSH2 0x2979 JUMP JUMPDEST DUP3 MSTORE POP POP JUMP JUMPDEST PUSH0 PUSH1 0x20 DUP3 ADD SWAP1 POP PUSH2 0x2AB9 PUSH0 DUP4 ADD DUP5 PUSH2 0x2A97 JUMP JUMPDEST SWAP3 SWAP2 POP POP JUMP JUMPDEST PUSH0 DUP2 ISZERO ISZERO SWAP1 POP SWAP2 SWAP1 POP JUMP JUMPDEST PUSH2 0x2AD3 DUP2 PUSH2 0x2ABF JUMP JUMPDEST DUP3 MSTORE POP POP JUMP JUMPDEST PUSH0 PUSH1 0x20 DUP3 ADD SWAP1 POP PUSH2 0x2AEC PUSH0 DUP4 ADD DUP5 PUSH2 0x2ACA JUMP JUMPDEST SWAP3 SWAP2 POP POP JUMP JUMPDEST PUSH0 DUP1 PUSH0 PUSH1 0x60 DUP5 DUP7 SUB SLT ISZERO PUSH2 0x2B09 JUMPI PUSH2 0x2B08 PUSH2 0x2971 JUMP JUMPDEST JUMPDEST PUSH0 PUSH2 0x2B16 DUP7 DUP3 DUP8 ADD PUSH2 0x29F2 JUMP JUMPDEST SWAP4 POP POP PUSH1 0x20 PUSH2 0x2B27 DUP7 DUP3 DUP8 ADD PUSH2 0x29F2 JUMP JUMPDEST SWAP3 POP POP PUSH1 0x40 PUSH2 0x2B38 DUP7 DUP3 DUP8 ADD PUSH2 0x2998 JUMP JUMPDEST SWAP2 POP POP SWAP3 POP SWAP3 POP SWAP3 JUMP JUMPDEST PUSH0 DUP1 PUSH0 PUSH1 0x60 DUP5 DUP7 SUB SLT ISZERO PUSH2 0x2B59 JUMPI PUSH2 0x2B58 PUSH2 0x2971 JUMP JUMPDEST JUMPDEST PUSH0 PUSH2 0x2B66 DUP7 DUP3 DUP8 ADD PUSH2 0x2998 JUMP JUMPDEST SWAP4 POP POP PUSH1 0x20 PUSH2 0x2B77 DUP7 DUP3 DUP8 ADD PUSH2 0x2998 JUMP JUMPDEST SWAP3 POP POP PUSH1 0x40 PUSH2 0x2B88 DUP7 DUP3 DUP8 ADD PUSH2 0x2998 JUMP JUMPDEST SWAP2 POP POP SWAP3 POP SWAP3 POP SWAP3 JUMP JUMPDEST PUSH0 DUP2 MLOAD SWAP1 POP SWAP2 SWAP1 POP JUMP JUMPDEST PUSH0 DUP3 DUP3 MSTORE PUSH1 0x20 DUP3 ADD SWAP1 POP SWAP3 SWAP2 POP POP JUMP JUMPDEST PUSH0 JUMPDEST DUP4 DUP2 LT ISZERO PUSH2 0x2BC9 JUMPI DUP1 DUP3 ADD MLOAD DUP2 DUP5 ADD MSTORE PUSH1 0x20 DUP2 ADD SWAP1 POP PUSH2 0x2BAE JUMP JUMPDEST PUSH0 DUP5 DUP5 ADD MSTORE POP POP POP POP JUMP JUMPDEST PUSH0 PUSH1 0x1F NOT PUSH1 0x1F DUP4 ADD AND SWAP1 POP SWAP2 SWAP1 POP JUMP JUMPDEST PUSH0 PUSH2 0x2BEE DUP3 PUSH2 0x2B92 JUMP JUMPDEST PUSH2 0x2BF8 DUP2 DUP6 PUSH2 0x2B9C JUMP JUMPDEST SWAP4 POP PUSH2 0x2C08 DUP2 DUP6 PUSH1 0x20 DUP7 ADD PUSH2 0x2BAC JUMP JUMPDEST PUSH2 0x2C11 DUP2 PUSH2 0x2BD4 JUMP JUMPDEST DUP5 ADD SWAP2 POP POP SWAP3 SWAP2 POP POP JUMP JUMPDEST PUSH0 PUSH1 0x40 DUP3 ADD SWAP1 POP PUSH2 0x2C2F PUSH0 DUP4 ADD DUP6 PUSH2 0x2A44 JUMP JUMPDEST DUP2 DUP2 SUB PUSH1 0x20 DUP4 ADD MSTORE PUSH2 0x2C41 DUP2 DUP5 PUSH2 0x2BE4 JUMP JUMPDEST SWAP1 POP SWAP4 SWAP3 POP POP POP JUMP JUMPDEST PUSH0 PUSH1 0x20 DUP3 ADD SWAP1 POP DUP2 DUP2 SUB PUSH0 DUP4 ADD MSTORE PUSH2 0x2C62 DUP2 DUP5 PUSH2 0x2BE4 JUMP JUMPDEST SWAP1 POP SWAP3 SWAP2 POP POP JUMP JUMPDEST PUSH0 PUSH1 0x20 DUP3 DUP5 SUB SLT ISZERO PUSH2 0x2C7F JUMPI PUSH2 0x2C7E PUSH2 0x2971 JUMP JUMPDEST JUMPDEST PUSH0 PUSH2 0x2C8C DUP5 DUP3 DUP6 ADD PUSH2 0x2998 JUMP JUMPDEST SWAP2 POP POP SWAP3 SWAP2 POP POP JUMP JUMPDEST PUSH32 0x4E6F742061637469766174656421000000000000000000000000000000000000 PUSH0 DUP3 ADD MSTORE POP JUMP JUMPDEST PUSH0 PUSH2 0x2CC9 PUSH1 0xE DUP4 PUSH2 0x2B9C JUMP JUMPDEST SWAP2 POP PUSH2 0x2CD4 DUP3 PUSH2 0x2C95 JUMP JUMPDEST PUSH1 0x20 DUP3 ADD SWAP1 POP SWAP2 SWAP1 POP JUMP JUMPDEST PUSH0 PUSH1 0x20 DUP3 ADD SWAP1 POP DUP2 DUP2 SUB PUSH0 DUP4 ADD MSTORE PUSH2 0x2CF6 DUP2 PUSH2 0x2CBD JUMP JUMPDEST SWAP1 POP SWAP2 SWAP1 POP JUMP JUMPDEST PUSH32 0x4E6F7420656E6F75676820706F696E74732E2054686520636F6E747261637420 PUSH0 DUP3 ADD MSTORE PUSH32 0x6D75737420626520636861726765642077697468206D6F726520746F6B656E73 PUSH1 0x20 DUP3 ADD MSTORE POP JUMP JUMPDEST PUSH0 PUSH2 0x2D57 PUSH1 0x40 DUP4 PUSH2 0x2B9C JUMP JUMPDEST SWAP2 POP PUSH2 0x2D62 DUP3 PUSH2 0x2CFD JUMP JUMPDEST PUSH1 0x40 DUP3 ADD SWAP1 POP SWAP2 SWAP1 POP JUMP JUMPDEST PUSH0 PUSH1 0x20 DUP3 ADD SWAP1 POP DUP2 DUP2 SUB PUSH0 DUP4 ADD MSTORE PUSH2 0x2D84 DUP2 PUSH2 0x2D4B JUMP JUMPDEST SWAP1 POP SWAP2 SWAP1 POP JUMP JUMPDEST PUSH32 0x57697468647261772076616C7565206D75737420626520677265617465722074 PUSH0 DUP3 ADD MSTORE PUSH32 0x68616E2030210000000000000000000000000000000000000000000000000000 PUSH1 0x20 DUP3 ADD MSTORE POP JUMP JUMPDEST PUSH0 PUSH2 0x2DE5 PUSH1 0x26 DUP4 PUSH2 0x2B9C JUMP JUMPDEST SWAP2 POP PUSH2 0x2DF0 DUP3 PUSH2 0x2D8B JUMP JUMPDEST PUSH1 0x40 DUP3 ADD SWAP1 POP SWAP2 SWAP1 POP JUMP JUMPDEST PUSH0 PUSH1 0x20 DUP3 ADD SWAP1 POP DUP2 DUP2 SUB PUSH0 DUP4 ADD MSTORE PUSH2 0x2E12 DUP2 PUSH2 0x2DD9 JUMP JUMPDEST SWAP1 POP SWAP2 SWAP1 POP JUMP JUMPDEST PUSH32 0x4E487B7100000000000000000000000000000000000000000000000000000000 PUSH0 MSTORE PUSH1 0x11 PUSH1 0x4 MSTORE PUSH1 0x24 PUSH0 REVERT JUMPDEST PUSH0 PUSH2 0x2E50 DUP3 PUSH2 0x2979 JUMP JUMPDEST SWAP2 POP PUSH2 0x2E5B DUP4 PUSH2 0x2979 JUMP JUMPDEST SWAP3 POP DUP3 DUP3 SUB SWAP1 POP DUP2 DUP2 GT ISZERO PUSH2 0x2E73 JUMPI PUSH2 0x2E72 PUSH2 0x2E19 JUMP JUMPDEST JUMPDEST SWAP3 SWAP2 POP POP JUMP JUMPDEST PUSH32 0x4E6F7420417574686F72697A6564210000000000000000000000000000000000 PUSH0 DUP3 ADD MSTORE POP JUMP JUMPDEST PUSH0 PUSH2 0x2EAD PUSH1 0xF DUP4 PUSH2 0x2B9C JUMP JUMPDEST SWAP2 POP PUSH2 0x2EB8 DUP3 PUSH2 0x2E79 JUMP JUMPDEST PUSH1 0x20 DUP3 ADD SWAP1 POP SWAP2 SWAP1 POP JUMP JUMPDEST PUSH0 PUSH1 0x20 DUP3 ADD SWAP1 POP DUP2 DUP2 SUB PUSH0 DUP4 ADD MSTORE PUSH2 0x2EDA DUP2 PUSH2 0x2EA1 JUMP JUMPDEST SWAP1 POP SWAP2 SWAP1 POP JUMP JUMPDEST PUSH32 0x41637469766174696F6E206E6F7420616C6C6F77656421000000000000000000 PUSH0 DUP3 ADD MSTORE POP JUMP JUMPDEST PUSH0 PUSH2 0x2F15 PUSH1 0x17 DUP4 PUSH2 0x2B9C JUMP JUMPDEST SWAP2 POP PUSH2 0x2F20 DUP3 PUSH2 0x2EE1 JUMP JUMPDEST PUSH1 0x20 DUP3 ADD SWAP1 POP SWAP2 SWAP1 POP JUMP JUMPDEST PUSH0 PUSH1 0x20 DUP3 ADD SWAP1 POP DUP2 DUP2 SUB PUSH0 DUP4 ADD MSTORE PUSH2 0x2F42 DUP2 PUSH2 0x2F09 JUMP JUMPDEST SWAP1 POP SWAP2 SWAP1 POP JUMP JUMPDEST PUSH32 0x416C7265616479206163746976617465642E0000000000000000000000000000 PUSH0 DUP3 ADD MSTORE POP JUMP JUMPDEST PUSH0 PUSH2 0x2F7D PUSH1 0x12 DUP4 PUSH2 0x2B9C JUMP JUMPDEST SWAP2 POP PUSH2 0x2F88 DUP3 PUSH2 0x2F49 JUMP JUMPDEST PUSH1 0x20 DUP3 ADD SWAP1 POP SWAP2 SWAP1 POP JUMP JUMPDEST PUSH0 PUSH1 0x20 DUP3 ADD SWAP1 POP DUP2 DUP2 SUB PUSH0 DUP4 ADD MSTORE PUSH2 0x2FAA DUP2 PUSH2 0x2F71 JUMP JUMPDEST SWAP1 POP SWAP2 SWAP1 POP JUMP JUMPDEST PUSH32 0x4F6E6C79204F776E6572206F7220417574686F72697A65642070617274696369 PUSH0 DUP3 ADD MSTORE PUSH32 0x7061746F722063616E206163636573732074686973206F7065726174696F6E21 PUSH1 0x20 DUP3 ADD MSTORE POP JUMP JUMPDEST PUSH0 PUSH2 0x300B PUSH1 0x40 DUP4 PUSH2 0x2B9C JUMP JUMPDEST SWAP2 POP PUSH2 0x3016 DUP3 PUSH2 0x2FB1 JUMP JUMPDEST PUSH1 0x40 DUP3 ADD SWAP1 POP SWAP2 SWAP1 POP JUMP JUMPDEST PUSH0 PUSH1 0x20 DUP3 ADD SWAP1 POP DUP2 DUP2 SUB PUSH0 DUP4 ADD MSTORE PUSH2 0x3038 DUP2 PUSH2 0x2FFF JUMP JUMPDEST SWAP1 POP SWAP2 SWAP1 POP JUMP JUMPDEST PUSH32 0x4E6F7420656E6F7567682062616C616E63652100000000000000000000000000 PUSH0 DUP3 ADD MSTORE POP JUMP JUMPDEST PUSH0 PUSH2 0x3073 PUSH1 0x13 DUP4 PUSH2 0x2B9C JUMP JUMPDEST SWAP2 POP PUSH2 0x307E DUP3 PUSH2 0x303F JUMP JUMPDEST PUSH1 0x20 DUP3 ADD SWAP1 POP SWAP2 SWAP1 POP JUMP JUMPDEST PUSH0 PUSH1 0x20 DUP3 ADD SWAP1 POP DUP2 DUP2 SUB PUSH0 DUP4 ADD MSTORE PUSH2 0x30A0 DUP2 PUSH2 0x3067 JUMP JUMPDEST SWAP1 POP SWAP2 SWAP1 POP JUMP JUMPDEST PUSH0 PUSH1 0x40 DUP3 ADD SWAP1 POP PUSH2 0x30BA PUSH0 DUP4 ADD DUP6 PUSH2 0x2A44 JUMP JUMPDEST PUSH2 0x30C7 PUSH1 0x20 DUP4 ADD DUP5 PUSH2 0x2A97 JUMP JUMPDEST SWAP4 SWAP3 POP POP POP JUMP JUMPDEST PUSH2 0x30D7 DUP2 PUSH2 0x2ABF JUMP JUMPDEST DUP2 EQ PUSH2 0x30E1 JUMPI PUSH0 DUP1 REVERT JUMPDEST POP JUMP JUMPDEST PUSH0 DUP2 MLOAD SWAP1 POP PUSH2 0x30F2 DUP2 PUSH2 0x30CE JUMP JUMPDEST SWAP3 SWAP2 POP POP JUMP JUMPDEST PUSH0 PUSH1 0x20 DUP3 DUP5 SUB SLT ISZERO PUSH2 0x310D JUMPI PUSH2 0x310C PUSH2 0x2971 JUMP JUMPDEST JUMPDEST PUSH0 PUSH2 0x311A DUP5 DUP3 DUP6 ADD PUSH2 0x30E4 JUMP JUMPDEST SWAP2 POP POP SWAP3 SWAP2 POP POP JUMP JUMPDEST PUSH0 DUP2 MLOAD SWAP1 POP PUSH2 0x3131 DUP2 PUSH2 0x2982 JUMP JUMPDEST SWAP3 SWAP2 POP POP JUMP JUMPDEST PUSH0 PUSH1 0x20 DUP3 DUP5 SUB SLT ISZERO PUSH2 0x314C JUMPI PUSH2 0x314B PUSH2 0x2971 JUMP JUMPDEST JUMPDEST PUSH0 PUSH2 0x3159 DUP5 DUP3 DUP6 ADD PUSH2 0x3123 JUMP JUMPDEST SWAP2 POP POP SWAP3 SWAP2 POP POP JUMP JUMPDEST PUSH32 0x526174652C20706F696E747320616E6420646563696D616C73206D7573742062 PUSH0 DUP3 ADD MSTORE PUSH32 0x652067726561746572207468616E207A65726F21000000000000000000000000 PUSH1 0x20 DUP3 ADD MSTORE POP JUMP JUMPDEST PUSH0 PUSH2 0x31BC PUSH1 0x34 DUP4 PUSH2 0x2B9C JUMP JUMPDEST SWAP2 POP PUSH2 0x31C7 DUP3 PUSH2 0x3162 JUMP JUMPDEST PUSH1 0x40 DUP3 ADD SWAP1 POP SWAP2 SWAP1 POP JUMP JUMPDEST PUSH0 PUSH1 0x20 DUP3 ADD SWAP1 POP DUP2 DUP2 SUB PUSH0 DUP4 ADD MSTORE PUSH2 0x31E9 DUP2 PUSH2 0x31B0 JUMP JUMPDEST SWAP1 POP SWAP2 SWAP1 POP JUMP JUMPDEST PUSH0 DUP2 PUSH1 0x1 SHR SWAP1 POP SWAP2 SWAP1 POP JUMP JUMPDEST PUSH0 DUP1 DUP3 SWAP2 POP DUP4 SWAP1 POP JUMPDEST PUSH1 0x1 DUP6 GT ISZERO PUSH2 0x3245 JUMPI DUP1 DUP7 DIV DUP2 GT ISZERO PUSH2 0x3221 JUMPI PUSH2 0x3220 PUSH2 0x2E19 JUMP JUMPDEST JUMPDEST PUSH1 0x1 DUP6 AND ISZERO PUSH2 0x3230 JUMPI DUP1 DUP3 MUL SWAP2 POP JUMPDEST DUP1 DUP2 MUL SWAP1 POP PUSH2 0x323E DUP6 PUSH2 0x31F0 JUMP JUMPDEST SWAP5 POP PUSH2 0x3205 JUMP JUMPDEST SWAP5 POP SWAP5 SWAP3 POP POP POP JUMP JUMPDEST PUSH0 DUP3 PUSH2 0x325D JUMPI PUSH1 0x1 SWAP1 POP PUSH2 0x3318 JUMP JUMPDEST DUP2 PUSH2 0x326A JUMPI PUSH0 SWAP1 POP PUSH2 0x3318 JUMP JUMPDEST DUP2 PUSH1 0x1 DUP2 EQ PUSH2 0x3280 JUMPI PUSH1 0x2 DUP2 EQ PUSH2 0x328A JUMPI PUSH2 0x32B9 JUMP JUMPDEST PUSH1 0x1 SWAP2 POP POP PUSH2 0x3318 JUMP JUMPDEST PUSH1 0xFF DUP5 GT ISZERO PUSH2 0x329C JUMPI PUSH2 0x329B PUSH2 0x2E19 JUMP JUMPDEST JUMPDEST DUP4 PUSH1 0x2 EXP SWAP2 POP DUP5 DUP3 GT ISZERO PUSH2 0x32B3 JUMPI PUSH2 0x32B2 PUSH2 0x2E19 JUMP JUMPDEST JUMPDEST POP PUSH2 0x3318 JUMP JUMPDEST POP PUSH1 0x20 DUP4 LT PUSH2 0x133 DUP4 LT AND PUSH1 0x4E DUP5 LT PUSH1 0xB DUP5 LT AND OR ISZERO PUSH2 0x32EE JUMPI DUP3 DUP3 EXP SWAP1 POP DUP4 DUP2 GT ISZERO PUSH2 0x32E9 JUMPI PUSH2 0x32E8 PUSH2 0x2E19 JUMP JUMPDEST JUMPDEST PUSH2 0x3318 JUMP JUMPDEST PUSH2 0x32FB DUP5 DUP5 DUP5 PUSH1 0x1 PUSH2 0x31FC JUMP JUMPDEST SWAP3 POP SWAP1 POP DUP2 DUP5 DIV DUP2 GT ISZERO PUSH2 0x3312 JUMPI PUSH2 0x3311 PUSH2 0x2E19 JUMP JUMPDEST JUMPDEST DUP2 DUP2 MUL SWAP1 POP JUMPDEST SWAP4 SWAP3 POP POP POP JUMP JUMPDEST PUSH0 PUSH2 0x3329 DUP3 PUSH2 0x2979 JUMP JUMPDEST SWAP2 POP PUSH2 0x3334 DUP4 PUSH2 0x2979 JUMP JUMPDEST SWAP3 POP PUSH2 0x3361 PUSH32 0xFFFFFFFFFFFFFFFFFFFFFFFFFFFFFFFFFFFFFFFFFFFFFFFFFFFFFFFFFFFFFFFF DUP5 DUP5 PUSH2 0x324E JUMP JUMPDEST SWAP1 POP SWAP3 SWAP2 POP POP JUMP JUMPDEST PUSH0 PUSH2 0x3373 DUP3 PUSH2 0x2979 JUMP JUMPDEST SWAP2 POP PUSH2 0x337E DUP4 PUSH2 0x2979 JUMP JUMPDEST SWAP3 POP DUP3 DUP3 MUL PUSH2 0x338C DUP2 PUSH2 0x2979 JUMP JUMPDEST SWAP2 POP DUP3 DUP3 DIV DUP5 EQ DUP4 ISZERO OR PUSH2 0x33A3 JUMPI PUSH2 0x33A2 PUSH2 0x2E19 JUMP JUMPDEST JUMPDEST POP SWAP3 SWAP2 POP POP JUMP JUMPDEST PUSH32 0x4E487B7100000000000000000000000000000000000000000000000000000000 PUSH0 MSTORE PUSH1 0x12 PUSH1 0x4 MSTORE PUSH1 0x24 PUSH0 REVERT JUMPDEST PUSH0 PUSH2 0x33E1 DUP3 PUSH2 0x2979 JUMP JUMPDEST SWAP2 POP PUSH2 0x33EC DUP4 PUSH2 0x2979 JUMP JUMPDEST SWAP3 POP DUP3 PUSH2 0x33FC JUMPI PUSH2 0x33FB PUSH2 0x33AA JUMP JUMPDEST JUMPDEST DUP3 DUP3 DIV SWAP1 POP SWAP3 SWAP2 POP POP JUMP JUMPDEST PUSH0 PUSH1 0x40 DUP3 ADD SWAP1 POP PUSH2 0x341A PUSH0 DUP4 ADD DUP6 PUSH2 0x2A44 JUMP JUMPDEST PUSH2 0x3427 PUSH1 0x20 DUP4 ADD DUP5 PUSH2 0x2A44 JUMP JUMPDEST SWAP4 SWAP3 POP POP POP JUMP JUMPDEST PUSH0 DUP1 REVERT JUMPDEST PUSH0 DUP1 REVERT JUMPDEST PUSH32 0x4E487B7100000000000000000000000000000000000000000000000000000000 PUSH0 MSTORE PUSH1 0x41 PUSH1 0x4 MSTORE PUSH1 0x24 PUSH0 REVERT JUMPDEST PUSH2 0x346C DUP3 PUSH2 0x2BD4 JUMP JUMPDEST DUP2 ADD DUP2 DUP2 LT PUSH8 0xFFFFFFFFFFFFFFFF DUP3 GT OR ISZERO PUSH2 0x348B JUMPI PUSH2 0x348A PUSH2 0x3436 JUMP JUMPDEST JUMPDEST DUP1 PUSH1 0x40 MSTORE POP POP POP JUMP JUMPDEST PUSH0 PUSH2 0x349D PUSH2 0x2968 JUMP JUMPDEST SWAP1 POP PUSH2 0x34A9 DUP3 DUP3 PUSH2 0x3463 JUMP JUMPDEST SWAP2 SWAP1 POP JUMP JUMPDEST PUSH0 PUSH8 0xFFFFFFFFFFFFFFFF DUP3 GT ISZERO PUSH2 0x34C8 JUMPI PUSH2 0x34C7 PUSH2 0x3436 JUMP JUMPDEST JUMPDEST PUSH2 0x34D1 DUP3 PUSH2 0x2BD4 JUMP JUMPDEST SWAP1 POP PUSH1 0x20 DUP2 ADD SWAP1 POP SWAP2 SWAP1 POP JUMP JUMPDEST PUSH0 PUSH2 0x34F0 PUSH2 0x34EB DUP5 PUSH2 0x34AE JUMP JUMPDEST PUSH2 0x3494 JUMP JUMPDEST SWAP1 POP DUP3 DUP2 MSTORE PUSH1 0x20 DUP2 ADD DUP5 DUP5 DUP5 ADD GT ISZERO PUSH2 0x350C JUMPI PUSH2 0x350B PUSH2 0x3432 JUMP JUMPDEST JUMPDEST PUSH2 0x3517 DUP5 DUP3 DUP6 PUSH2 0x2BAC JUMP JUMPDEST POP SWAP4 SWAP3 POP POP POP JUMP JUMPDEST PUSH0 DUP3 PUSH1 0x1F DUP4 ADD SLT PUSH2 0x3533 JUMPI PUSH2 0x3532 PUSH2 0x342E JUMP JUMPDEST JUMPDEST DUP2 MLOAD PUSH2 0x3543 DUP5 DUP3 PUSH1 0x20 DUP7 ADD PUSH2 0x34DE JUMP JUMPDEST SWAP2 POP POP SWAP3 SWAP2 POP POP JUMP JUMPDEST PUSH0 PUSH1 0x20 DUP3 DUP5 SUB SLT ISZERO PUSH2 0x3561 JUMPI PUSH2 0x3560 PUSH2 0x2971 JUMP JUMPDEST JUMPDEST PUSH0 DUP3 ADD MLOAD PUSH8 0xFFFFFFFFFFFFFFFF DUP2 GT ISZERO PUSH2 0x357E JUMPI PUSH2 0x357D PUSH2 0x2975 JUMP JUMPDEST JUMPDEST PUSH2 0x358A DUP5 DUP3 DUP6 ADD PUSH2 0x351F JUMP JUMPDEST SWAP2 POP POP SWAP3 SWAP2 POP POP JUMP JUMPDEST PUSH32 0x41676772656761746F72436F6E73756D6572206973206E6F7420696E69746961 PUSH0 DUP3 ADD MSTORE PUSH32 0x6C697A6564210000000000000000000000000000000000000000000000000000 PUSH1 0x20 DUP3 ADD MSTORE POP JUMP JUMPDEST PUSH0 PUSH2 0x35ED PUSH1 0x26 DUP4 PUSH2 0x2B9C JUMP JUMPDEST SWAP2 POP PUSH2 0x35F8 DUP3 PUSH2 0x3593 JUMP JUMPDEST PUSH1 0x40 DUP3 ADD SWAP1 POP SWAP2 SWAP1 POP JUMP JUMPDEST PUSH0 PUSH1 0x20 DUP3 ADD SWAP1 POP DUP2 DUP2 SUB PUSH0 DUP4 ADD MSTORE PUSH2 0x361A DUP2 PUSH2 0x35E1 JUMP JUMPDEST SWAP1 POP SWAP2 SWAP1 POP JUMP JUMPDEST PUSH32 0x506F6F6C436F6E73756D6572206973206E6F7420696E697469616C697A656421 PUSH0 DUP3 ADD MSTORE POP JUMP JUMPDEST PUSH0 PUSH2 0x3655 PUSH1 0x20 DUP4 PUSH2 0x2B9C JUMP JUMPDEST SWAP2 POP PUSH2 0x3660 DUP3 PUSH2 0x3621 JUMP JUMPDEST PUSH1 0x20 DUP3 ADD SWAP1 POP SWAP2 SWAP1 POP JUMP JUMPDEST PUSH0 PUSH1 0x20 DUP3 ADD SWAP1 POP DUP2 DUP2 SUB PUSH0 DUP4 ADD MSTORE PUSH2 0x3682 DUP2 PUSH2 0x3649 JUMP JUMPDEST SWAP1 POP SWAP2 SWAP1 POP JUMP JUMPDEST PUSH32 0x4E6F2063686172676520616D6F756E7421000000000000000000000000000000 PUSH0 DUP3 ADD MSTORE POP JUMP JUMPDEST PUSH0 PUSH2 0x36BD PUSH1 0x11 DUP4 PUSH2 0x2B9C JUMP JUMPDEST SWAP2 POP PUSH2 0x36C8 DUP3 PUSH2 0x3689 JUMP JUMPDEST PUSH1 0x20 DUP3 ADD SWAP1 POP SWAP2 SWAP1 POP JUMP JUMPDEST PUSH0 PUSH1 0x20 DUP3 ADD SWAP1 POP DUP2 DUP2 SUB PUSH0 DUP4 ADD MSTORE PUSH2 0x36EA DUP2 PUSH2 0x36B1 JUMP JUMPDEST SWAP1 POP SWAP2 SWAP1 POP JUMP JUMPDEST PUSH32 0x436865636B207468652000000000000000000000000000000000000000000000 DUP2 MSTORE POP JUMP JUMPDEST PUSH0 DUP2 SWAP1 POP SWAP3 SWAP2 POP POP JUMP JUMPDEST PUSH0 PUSH2 0x372B DUP3 PUSH2 0x2B92 JUMP JUMPDEST PUSH2 0x3735 DUP2 DUP6 PUSH2 0x3717 JUMP JUMPDEST SWAP4 POP PUSH2 0x3745 DUP2 DUP6 PUSH1 0x20 DUP7 ADD PUSH2 0x2BAC JUMP JUMPDEST DUP1 DUP5 ADD SWAP2 POP POP SWAP3 SWAP2 POP POP JUMP JUMPDEST PUSH32 0x20746F6B656E2000000000000000000000000000000000000000000000000000 DUP2 MSTORE POP JUMP JUMPDEST PUSH32 0x616C6C6F77616E63652100000000000000000000000000000000000000000000 DUP2 MSTORE POP JUMP JUMPDEST PUSH0 PUSH2 0x37A7 DUP3 PUSH2 0x36F1 JUMP JUMPDEST PUSH1 0xA DUP3 ADD SWAP2 POP PUSH2 0x37B7 DUP3 DUP5 PUSH2 0x3721 JUMP JUMPDEST SWAP2 POP PUSH2 0x37C2 DUP3 PUSH2 0x3751 JUMP JUMPDEST PUSH1 0x7 DUP3 ADD SWAP2 POP PUSH2 0x37D1 DUP3 PUSH2 0x3777 JUMP JUMPDEST PUSH1 0xA DUP3 ADD SWAP2 POP DUP2 SWAP1 POP SWAP3 SWAP2 POP POP JUMP JUMPDEST PUSH32 0x72617465206572726F7221000000000000000000000000000000000000000000 PUSH0 DUP3 ADD MSTORE POP JUMP JUMPDEST PUSH0 PUSH2 0x3814 PUSH1 0xB DUP4 PUSH2 0x2B9C JUMP JUMPDEST SWAP2 POP PUSH2 0x381F DUP3 PUSH2 0x37E0 JUMP JUMPDEST PUSH1 0x20 DUP3 ADD SWAP1 POP SWAP2 SWAP1 POP JUMP JUMPDEST PUSH0 PUSH1 0x20 DUP3 ADD SWAP1 POP DUP2 DUP2 SUB PUSH0 DUP4 ADD MSTORE PUSH2 0x3841 DUP2 PUSH2 0x3808 JUMP JUMPDEST SWAP1 POP SWAP2 SWAP1 POP JUMP JUMPDEST PUSH0 PUSH2 0x3852 DUP3 PUSH2 0x2979 JUMP JUMPDEST SWAP2 POP PUSH2 0x385D DUP4 PUSH2 0x2979 JUMP JUMPDEST SWAP3 POP DUP3 DUP3 ADD SWAP1 POP DUP1 DUP3 GT ISZERO PUSH2 0x3875 JUMPI PUSH2 0x3874 PUSH2 0x2E19 JUMP JUMPDEST JUMPDEST SWAP3 SWAP2 POP POP JUMP JUMPDEST PUSH0 PUSH1 0x80 DUP3 ADD SWAP1 POP PUSH2 0x388E PUSH0 DUP4 ADD DUP8 PUSH2 0x2A97 JUMP JUMPDEST PUSH2 0x389B PUSH1 0x20 DUP4 ADD DUP7 PUSH2 0x2A97 JUMP JUMPDEST PUSH2 0x38A8 PUSH1 0x40 DUP4 ADD DUP6 PUSH2 0x2A97 JUMP JUMPDEST DUP2 DUP2 SUB PUSH1 0x60 DUP4 ADD MSTORE PUSH2 0x38BA DUP2 DUP5 PUSH2 0x2BE4 JUMP JUMPDEST SWAP1 POP SWAP6 SWAP5 POP POP POP POP POP JUMP JUMPDEST PUSH32 0x4F776E61626C653A206E6577206F776E657220697320746865207A65726F2061 PUSH0 DUP3 ADD MSTORE PUSH32 0x6464726573730000000000000000000000000000000000000000000000000000 PUSH1 0x20 DUP3 ADD MSTORE POP JUMP JUMPDEST PUSH0 PUSH2 0x391F PUSH1 0x26 DUP4 PUSH2 0x2B9C JUMP JUMPDEST SWAP2 POP PUSH2 0x392A DUP3 PUSH2 0x38C5 JUMP JUMPDEST PUSH1 0x40 DUP3 ADD SWAP1 POP SWAP2 SWAP1 POP JUMP JUMPDEST PUSH0 PUSH1 0x20 DUP3 ADD SWAP1 POP DUP2 DUP2 SUB PUSH0 DUP4 ADD MSTORE PUSH2 0x394C DUP2 PUSH2 0x3913 JUMP JUMPDEST SWAP1 POP SWAP2 SWAP1 POP JUMP JUMPDEST PUSH32 0x4F776E61626C653A2063616C6C6572206973206E6F7420746865206F776E6572 PUSH0 DUP3 ADD MSTORE POP JUMP JUMPDEST PUSH0 PUSH2 0x3987 PUSH1 0x20 DUP4 PUSH2 0x2B9C JUMP JUMPDEST SWAP2 POP PUSH2 0x3992 DUP3 PUSH2 0x3953 JUMP JUMPDEST PUSH1 0x20 DUP3 ADD SWAP1 POP SWAP2 SWAP1 POP JUMP JUMPDEST PUSH0 PUSH1 0x20 DUP3 ADD SWAP1 POP DUP2 DUP2 SUB PUSH0 DUP4 ADD MSTORE PUSH2 0x39B4 DUP2 PUSH2 0x397B JUMP JUMPDEST SWAP1 POP SWAP2 SWAP1 POP JUMP JUMPDEST PUSH32 0x5061757361626C653A206E6F7420706175736564000000000000000000000000 PUSH0 DUP3 ADD MSTORE POP JUMP JUMPDEST PUSH0 PUSH2 0x39EF PUSH1 0x14 DUP4 PUSH2 0x2B9C JUMP JUMPDEST SWAP2 POP PUSH2 0x39FA DUP3 PUSH2 0x39BB JUMP JUMPDEST PUSH1 0x20 DUP3 ADD SWAP1 POP SWAP2 SWAP1 POP JUMP JUMPDEST PUSH0 PUSH1 0x20 DUP3 ADD SWAP1 POP DUP2 DUP2 SUB PUSH0 DUP4 ADD MSTORE PUSH2 0x3A1C DUP2 PUSH2 0x39E3 JUMP JUMPDEST SWAP1 POP SWAP2 SWAP1 POP JUMP JUMPDEST PUSH32 0x5061757361626C653A2070617573656400000000000000000000000000000000 PUSH0 DUP3 ADD MSTORE POP JUMP JUMPDEST PUSH0 PUSH2 0x3A57 PUSH1 0x10 DUP4 PUSH2 0x2B9C JUMP JUMPDEST SWAP2 POP PUSH2 0x3A62 DUP3 PUSH2 0x3A23 JUMP JUMPDEST PUSH1 0x20 DUP3 ADD SWAP1 POP SWAP2 SWAP1 POP JUMP JUMPDEST PUSH0 PUSH1 0x20 DUP3 ADD SWAP1 POP DUP2 DUP2 SUB PUSH0 DUP4 ADD MSTORE PUSH2 0x3A84 DUP2 PUSH2 0x3A4B JUMP JUMPDEST SWAP1 POP SWAP2 SWAP1 POP JUMP JUMPDEST PUSH0 DUP1 PUSH0 DUP1 PUSH1 0x80 DUP6 DUP8 SUB SLT ISZERO PUSH2 0x3AA3 JUMPI PUSH2 0x3AA2 PUSH2 0x2971 JUMP JUMPDEST JUMPDEST PUSH0 PUSH2 0x3AB0 DUP8 DUP3 DUP9 ADD PUSH2 0x3123 JUMP JUMPDEST SWAP5 POP POP PUSH1 0x20 PUSH2 0x3AC1 DUP8 DUP3 DUP9 ADD PUSH2 0x3123 JUMP JUMPDEST SWAP4 POP POP PUSH1 0x40 DUP6 ADD MLOAD PUSH8 0xFFFFFFFFFFFFFFFF DUP2 GT ISZERO PUSH2 0x3AE2 JUMPI PUSH2 0x3AE1 PUSH2 0x2975 JUMP JUMPDEST JUMPDEST PUSH2 0x3AEE DUP8 DUP3 DUP9 ADD PUSH2 0x351F JUMP JUMPDEST SWAP3 POP POP PUSH1 0x60 PUSH2 0x3AFF DUP8 DUP3 DUP9 ADD PUSH2 0x3123 JUMP JUMPDEST SWAP2 POP POP SWAP3 SWAP6 SWAP2 SWAP5 POP SWAP3 POP JUMP JUMPDEST PUSH0 PUSH1 0xA0 DUP3 ADD SWAP1 POP PUSH2 0x3B1E PUSH0 DUP4 ADD DUP9 PUSH2 0x2A97 JUMP JUMPDEST PUSH2 0x3B2B PUSH1 0x20 DUP4 ADD DUP8 PUSH2 0x2A97 JUMP JUMPDEST DUP2 DUP2 SUB PUSH1 0x40 DUP4 ADD MSTORE PUSH2 0x3B3D DUP2 DUP7 PUSH2 0x2BE4 JUMP JUMPDEST SWAP1 POP PUSH2 0x3B4C PUSH1 0x60 DUP4 ADD DUP6 PUSH2 0x2A97 JUMP JUMPDEST DUP2 DUP2 SUB PUSH1 0x80 DUP4 ADD MSTORE PUSH2 0x3B5E DUP2 DUP5 PUSH2 0x2BE4 JUMP JUMPDEST SWAP1 POP SWAP7 SWAP6 POP POP POP POP POP POP JUMP JUMPDEST PUSH0 PUSH1 0x60 DUP3 ADD SWAP1 POP PUSH2 0x3B7D PUSH0 DUP4 ADD DUP7 PUSH2 0x2A44 JUMP JUMPDEST PUSH2 0x3B8A PUSH1 0x20 DUP4 ADD DUP6 PUSH2 0x2A44 JUMP JUMPDEST PUSH2 0x3B97 PUSH1 0x40 DUP4 ADD DUP5 PUSH2 0x2A97 JUMP JUMPDEST SWAP5 SWAP4 POP POP POP POP JUMP JUMPDEST PUSH32 0x4E6F20746F6B656E7320746F206265206275726E656421000000000000000000 PUSH0 DUP3 ADD MSTORE POP JUMP JUMPDEST PUSH0 PUSH2 0x3BD3 PUSH1 0x17 DUP4 PUSH2 0x2B9C JUMP JUMPDEST SWAP2 POP PUSH2 0x3BDE DUP3 PUSH2 0x3B9F JUMP JUMPDEST PUSH1 0x20 DUP3 ADD SWAP1 POP SWAP2 SWAP1 POP JUMP JUMPDEST PUSH0 PUSH1 0x20 DUP3 ADD SWAP1 POP DUP2 DUP2 SUB PUSH0 DUP4 ADD MSTORE PUSH2 0x3C00 DUP2 PUSH2 0x3BC7 JUMP JUMPDEST SWAP1 POP SWAP2 SWAP1 POP JUMP JUMPDEST PUSH32 0x7472616E73616374696F6E207265766572746564206275726E20756E73756363 PUSH0 DUP3 ADD MSTORE PUSH32 0x657366756C6C2100000000000000000000000000000000000000000000000000 PUSH1 0x20 DUP3 ADD MSTORE POP JUMP JUMPDEST PUSH0 PUSH2 0x3C61 PUSH1 0x27 DUP4 PUSH2 0x2B9C JUMP JUMPDEST SWAP2 POP PUSH2 0x3C6C DUP3 PUSH2 0x3C07 JUMP JUMPDEST PUSH1 0x40 DUP3 ADD SWAP1 POP SWAP2 SWAP1 POP JUMP JUMPDEST PUSH0 PUSH1 0x20 DUP3 ADD SWAP1 POP DUP2 DUP2 SUB PUSH0 DUP4 ADD MSTORE PUSH2 0x3C8E DUP2 PUSH2 0x3C55 JUMP JUMPDEST SWAP1 POP SWAP2 SWAP1 POP JUMP JUMPDEST PUSH32 0x5361666545524332303A204552433230206F7065726174696F6E20646964206E PUSH0 DUP3 ADD MSTORE PUSH32 0x6F74207375636365656400000000000000000000000000000000000000000000 PUSH1 0x20 DUP3 ADD MSTORE POP JUMP JUMPDEST PUSH0 PUSH2 0x3CEF PUSH1 0x2A DUP4 PUSH2 0x2B9C JUMP JUMPDEST SWAP2 POP PUSH2 0x3CFA DUP3 PUSH2 0x3C95 JUMP JUMPDEST PUSH1 0x40 DUP3 ADD SWAP1 POP SWAP2 SWAP1 POP JUMP JUMPDEST PUSH0 PUSH1 0x20 DUP3 ADD SWAP1 POP DUP2 DUP2 SUB PUSH0 DUP4 ADD MSTORE PUSH2 0x3D1C DUP2 PUSH2 0x3CE3 JUMP JUMPDEST SWAP1 POP SWAP2 SWAP1 POP JUMP JUMPDEST PUSH32 0x416464726573733A20696E73756666696369656E742062616C616E636520666F PUSH0 DUP3 ADD MSTORE PUSH32 0x722063616C6C0000000000000000000000000000000000000000000000000000 PUSH1 0x20 DUP3 ADD MSTORE POP JUMP JUMPDEST PUSH0 PUSH2 0x3D7D PUSH1 0x26 DUP4 PUSH2 0x2B9C JUMP JUMPDEST SWAP2 POP PUSH2 0x3D88 DUP3 PUSH2 0x3D23 JUMP JUMPDEST PUSH1 0x40 DUP3 ADD SWAP1 POP SWAP2 SWAP1 POP JUMP JUMPDEST PUSH0 PUSH1 0x20 DUP3 ADD SWAP1 POP DUP2 DUP2 SUB PUSH0 DUP4 ADD MSTORE PUSH2 0x3DAA DUP2 PUSH2 0x3D71 JUMP JUMPDEST SWAP1 POP SWAP2 SWAP1 POP JUMP JUMPDEST PUSH32 0x416464726573733A2063616C6C20746F206E6F6E2D636F6E7472616374000000 PUSH0 DUP3 ADD MSTORE POP JUMP JUMPDEST PUSH0 PUSH2 0x3DE5 PUSH1 0x1D DUP4 PUSH2 0x2B9C JUMP JUMPDEST SWAP2 POP PUSH2 0x3DF0 DUP3 PUSH2 0x3DB1 JUMP JUMPDEST PUSH1 0x20 DUP3 ADD SWAP1 POP SWAP2 SWAP1 POP JUMP JUMPDEST PUSH0 PUSH1 0x20 DUP3 ADD SWAP1 POP DUP2 DUP2 SUB PUSH0 DUP4 ADD MSTORE PUSH2 0x3E12 DUP2 PUSH2 0x3DD9 JUMP JUMPDEST SWAP1 POP SWAP2 SWAP1 POP JUMP JUMPDEST PUSH0 DUP2 MLOAD SWAP1 POP SWAP2 SWAP1 POP JUMP JUMPDEST PUSH0 DUP2 SWAP1 POP SWAP3 SWAP2 POP POP JUMP JUMPDEST PUSH0 PUSH2 0x3E37 DUP3 PUSH2 0x3E19 JUMP JUMPDEST PUSH2 0x3E41 DUP2 DUP6 PUSH2 0x3E23 JUMP JUMPDEST SWAP4 POP PUSH2 0x3E51 DUP2 DUP6 PUSH1 0x20 DUP7 ADD PUSH2 0x2BAC JUMP JUMPDEST DUP1 DUP5 ADD SWAP2 POP POP SWAP3 SWAP2 POP POP JUMP JUMPDEST PUSH0 PUSH2 0x3E68 DUP3 DUP5 PUSH2 0x3E2D JUMP JUMPDEST SWAP2 POP DUP2 SWAP1 POP SWAP3 SWAP2 POP POP JUMP INVALID LOG2 PUSH5 0x6970667358 0x22 SLT KECCAK256 KECCAK256 DUP1 0xB1 INVALID 0xDB PUSH19 0xD045AD5C1765C72108BA7258C1582FDDBB0A76 MUL PUSH13 0x512F98F4D764736F6C63430008 OR STOP CALLER "
				},
				"gasEstimates": {
					"creation": {
						"codeDepositCost": "3208200",
						"executionCost": "infinite",
						"totalCost": "infinite"
					},
					"external": {
						"activate()": "infinite",
						"addNewAggregatorPriceFeed(address)": "27173",
						"addNewPoolRateFeed(address)": "27106",
						"balanceOf()": "infinite",
						"balanceOfToken(address)": "infinite",
						"calculateAmount(uint256,uint256,uint256)": "infinite",
						"changeAcceptedSenderAddress(address)": "30382",
						"changeRateFeed()": "35627",
						"chargeContract(uint256)": "infinite",
						"checkAllowance()": "infinite",
						"currentRateFeed()": "infinite",
						"currentRateFeedAddress()": "4799",
						"deactivate()": "32619",
						"getAcceptedSenderAddress()": "4775",
						"getInitialActivationAddress()": "infinite",
						"getPointsBalance()": "9120",
						"getTokenInfo()": "infinite",
						"getTotalBurnedTokens()": "9098",
						"getTotalPointsGenerated()": "9119",
						"owner()": "2634",
						"paused()": "2518",
						"renounceOwnership()": "30631",
						"resume()": "infinite",
						"stop()": "infinite",
						"transferOfToken(address,address,uint256)": "infinite",
						"transferOwnership(address)": "30993",
						"withdraw(uint256,address)": "infinite"
					},
					"internal": {
						"burnIncomingTokens(uint256)": "infinite",
						"calculatePoints(uint256,uint256,uint256)": "infinite",
						"getRate()": "infinite"
					}
				},
				"methodIdentifiers": {
					"activate()": "0f15f4c0",
					"addNewAggregatorPriceFeed(address)": "0a6cb062",
					"addNewPoolRateFeed(address)": "b0b5e39e",
					"balanceOf()": "722713f7",
					"balanceOfToken(address)": "b99152d0",
					"calculateAmount(uint256,uint256,uint256)": "7754723e",
					"changeAcceptedSenderAddress(address)": "0ba2f1d8",
					"changeRateFeed()": "e8088766",
					"chargeContract(uint256)": "ed969c84",
					"checkAllowance()": "9405de64",
					"currentRateFeed()": "e6367ebe",
					"currentRateFeedAddress()": "9934415e",
					"deactivate()": "51b42b00",
					"getAcceptedSenderAddress()": "08fadcb0",
					"getInitialActivationAddress()": "ba007e75",
					"getPointsBalance()": "8eb89a61",
					"getTokenInfo()": "abb1dc44",
					"getTotalBurnedTokens()": "2af0e251",
					"getTotalPointsGenerated()": "a684ab5c",
					"owner()": "8da5cb5b",
					"paused()": "5c975abb",
					"renounceOwnership()": "715018a6",
					"resume()": "046f7da2",
					"stop()": "07da68f5",
					"transferOfToken(address,address,uint256)": "6a9d43dd",
					"transferOwnership(address)": "f2fde38b",
					"withdraw(uint256,address)": "00f714ce"
				}
			},
			"storageLayout": {
				"storage": [
					{
						"astId": 130,
						"contract": "token_eco_system_dev_contracts/contracts_ready_for_prod/TokenEcoSystemParticipationV1_0.sol:TokenEcoSystemParticipation",
						"label": "_paused",
						"offset": 0,
						"slot": "0",
						"type": "t_bool"
					},
					{
						"astId": 7,
						"contract": "token_eco_system_dev_contracts/contracts_ready_for_prod/TokenEcoSystemParticipationV1_0.sol:TokenEcoSystemParticipation",
						"label": "_owner",
						"offset": 1,
						"slot": "0",
						"type": "t_address"
					},
					{
						"astId": 1013,
						"contract": "token_eco_system_dev_contracts/contracts_ready_for_prod/TokenEcoSystemParticipationV1_0.sol:TokenEcoSystemParticipation",
						"label": "acceptedSenderAddress",
						"offset": 0,
						"slot": "1",
						"type": "t_address"
					},
					{
						"astId": 1016,
						"contract": "token_eco_system_dev_contracts/contracts_ready_for_prod/TokenEcoSystemParticipationV1_0.sol:TokenEcoSystemParticipation",
						"label": "poolRateFeed",
						"offset": 20,
						"slot": "1",
						"type": "t_bool"
					},
					{
						"astId": 1019,
						"contract": "token_eco_system_dev_contracts/contracts_ready_for_prod/TokenEcoSystemParticipationV1_0.sol:TokenEcoSystemParticipation",
						"label": "totalBurned",
						"offset": 0,
						"slot": "2",
						"type": "t_uint256"
					},
					{
						"astId": 1022,
						"contract": "token_eco_system_dev_contracts/contracts_ready_for_prod/TokenEcoSystemParticipationV1_0.sol:TokenEcoSystemParticipation",
						"label": "totalConverted",
						"offset": 0,
						"slot": "3",
						"type": "t_uint256"
					},
					{
						"astId": 1025,
						"contract": "token_eco_system_dev_contracts/contracts_ready_for_prod/TokenEcoSystemParticipationV1_0.sol:TokenEcoSystemParticipation",
						"label": "pointsBalance",
						"offset": 0,
						"slot": "4",
						"type": "t_uint256"
					},
					{
						"astId": 1028,
						"contract": "token_eco_system_dev_contracts/contracts_ready_for_prod/TokenEcoSystemParticipationV1_0.sol:TokenEcoSystemParticipation",
						"label": "aggregatorConsumer",
						"offset": 0,
						"slot": "5",
						"type": "t_contract(AggregatorConsumerInterface)976"
					},
					{
						"astId": 1031,
						"contract": "token_eco_system_dev_contracts/contracts_ready_for_prod/TokenEcoSystemParticipationV1_0.sol:TokenEcoSystemParticipation",
						"label": "poolConsumer",
						"offset": 0,
						"slot": "6",
						"type": "t_contract(PoolConsumerInterface)988"
					}
				],
				"types": {
					"t_address": {
						"encoding": "inplace",
						"label": "address",
						"numberOfBytes": "20"
					},
					"t_bool": {
						"encoding": "inplace",
						"label": "bool",
						"numberOfBytes": "1"
					},
					"t_contract(AggregatorConsumerInterface)976": {
						"encoding": "inplace",
						"label": "contract AggregatorConsumerInterface",
						"numberOfBytes": "20"
					},
					"t_contract(PoolConsumerInterface)988": {
						"encoding": "inplace",
						"label": "contract PoolConsumerInterface",
						"numberOfBytes": "20"
					},
					"t_uint256": {
						"encoding": "inplace",
						"label": "uint256",
						"numberOfBytes": "32"
					}
				}
			},
			"userdoc": {
				"kind": "user",
				"methods": {},
				"version": 1
			}
		}
	}
}