{
	"data": {
		"bytecode": {
			"linkReferences": {},
			"object": "60a06040523480156200001157600080fd5b50604051620061d1380380620061d1833981810160405281019062000037919062000225565b620000576200004b620000db60201b60201c565b620000e360201b60201c565b8073ffffffffffffffffffffffffffffffffffffffff1660808173ffffffffffffffffffffffffffffffffffffffff1681525050600060068190555033600860006101000a81548173ffffffffffffffffffffffffffffffffffffffff021916908373ffffffffffffffffffffffffffffffffffffffff1602179055505062000257565b600033905090565b60008060009054906101000a900473ffffffffffffffffffffffffffffffffffffffff169050816000806101000a81548173ffffffffffffffffffffffffffffffffffffffff021916908373ffffffffffffffffffffffffffffffffffffffff1602179055508173ffffffffffffffffffffffffffffffffffffffff168173ffffffffffffffffffffffffffffffffffffffff167f8be0079c531659141344cd1fd0a4f28419497f9722a3daafe3b4186f6b6457e060405160405180910390a35050565b600080fd5b600073ffffffffffffffffffffffffffffffffffffffff82169050919050565b6000620001d982620001ac565b9050919050565b6000620001ed82620001cc565b9050919050565b620001ff81620001e0565b81146200020b57600080fd5b50565b6000815190506200021f81620001f4565b92915050565b6000602082840312156200023e576200023d620001a7565b5b60006200024e848285016200020e565b91505092915050565b608051615f5062000281600039600081816113c7015281816120970152612f510152615f506000f3fe608060405234801561001057600080fd5b50600436106101a95760003560e01c80638f26fb7f116100f9578063c6c599c111610097578063d95660be11610071578063d95660be14610484578063f2fde38b146104a2578063f61eb2d4146104be578063fc0c546a146104da576101a9565b8063c6c599c114610418578063c9e701ae14610448578063ce845d1d14610466576101a9565b8063a99d38cb116100d3578063a99d38cb14610392578063b347f859146103b0578063b70b64ec146103cc578063c4be66a1146103e8576101a9565b80638f26fb7f1461033c5780639011edb41461035857806395d89b4114610374576101a9565b8063530a60ef11610166578063711ec9b511610140578063711ec9b5146102c6578063715018a6146102e457806381008568146102ee5780638da5cb5b1461031e576101a9565b8063530a60ef1461026e578063545223641461028c57806370c80f99146102a8576101a9565b80630d43848b146101ae578063141a8dd8146101de57806319165587146101fc5780632380996e14610218578063313ce567146102345780633556597214610252575b600080fd5b6101c860048036038101906101c39190613bb4565b6104f8565b6040516101d59190613bf0565b60405180910390f35b6101e6610637565b6040516101f39190613bf0565b60405180910390f35b61021660048036038101906102119190613bb4565b61065d565b005b610232600480360381019061022d9190613ca8565b610b8d565b005b61023c6113c3565b6040516102499190613d35565b60405180910390f35b61026c60048036038101906102679190613dfc565b61145c565b005b610276611660565b6040516102839190613f3b565b60405180910390f35b6102a660048036038101906102a19190613fb3565b6116f6565b005b6102b06117ef565b6040516102bd9190613d35565b60405180910390f35b6102ce611801565b6040516102db9190613f3b565b60405180910390f35b6102ec611897565b005b61030860048036038101906103039190613bb4565b6118da565b60405161031591906141a2565b60405180910390f35b610326611ad9565b6040516103339190613bf0565b60405180910390f35b61035660048036038101906103519190613bb4565b611b02565b005b610372600480360381019061036d91906141c4565b611b8f565b005b61037c612093565b60405161038991906142b4565b60405180910390f35b61039a61212e565b6040516103a79190613d35565b60405180910390f35b6103ca60048036038101906103c59190614302565b612145565b005b6103e660048036038101906103e19190613bb4565b612463565b005b61040260048036038101906103fd9190613bb4565b6128ba565b60405161040f9190614461565b60405180910390f35b610432600480360381019061042d9190613bb4565b612b66565b60405161043f9190614492565b60405180910390f35b610450612cb9565b60405161045d9190613f3b565b60405180910390f35b61046e612d4f565b60405161047b9190613d35565b60405180910390f35b61048c612d66565b6040516104999190613d35565b60405180910390f35b6104bc60048036038101906104b79190613bb4565b612d6e565b005b6104d860048036038101906104d39190613fb3565b612df1565b005b6104e2612f4d565b6040516104ef919061450c565b60405180910390f35b6000610502612f75565b600073ffffffffffffffffffffffffffffffffffffffff16600360008473ffffffffffffffffffffffffffffffffffffffff1673ffffffffffffffffffffffffffffffffffffffff16815260200190815260200160002060009054906101000a900473ffffffffffffffffffffffffffffffffffffffff1673ffffffffffffffffffffffffffffffffffffffff16036105d0576040517f08c379a00000000000000000000000000000000000000000000000000000000081526004016105c790614573565b60405180910390fd5b600360008373ffffffffffffffffffffffffffffffffffffffff1673ffffffffffffffffffffffffffffffffffffffff16815260200190815260200160002060009054906101000a900473ffffffffffffffffffffffffffffffffffffffff169050919050565b600860009054906101000a900473ffffffffffffffffffffffffffffffffffffffff1681565b610665611ad9565b73ffffffffffffffffffffffffffffffffffffffff163373ffffffffffffffffffffffffffffffffffffffff1614806106c957508073ffffffffffffffffffffffffffffffffffffffff163373ffffffffffffffffffffffffffffffffffffffff16145b610708576040517f08c379a00000000000000000000000000000000000000000000000000000000081526004016106ff906145df565b60405180910390fd5b6000600160008373ffffffffffffffffffffffffffffffffffffffff1673ffffffffffffffffffffffffffffffffffffffff168152602001908152602001600020805490501161078d576040517f08c379a00000000000000000000000000000000000000000000000000000000081526004016107849061464b565b60405180910390fd5b600080600190506000600190506000805b600160008773ffffffffffffffffffffffffffffffffffffffff1673ffffffffffffffffffffffffffffffffffffffff16815260200190815260200160002080549050811015610b1f5782600160008873ffffffffffffffffffffffffffffffffffffffff1673ffffffffffffffffffffffffffffffffffffffff168152602001908152602001600020828154811061083a5761083961466b565b5b906000526020600020906004020160026004811061085b5761085a61466b565b5b01540315610b0c5783600160008873ffffffffffffffffffffffffffffffffffffffff1673ffffffffffffffffffffffffffffffffffffffff16815260200190815260200160002082815481106108b5576108b461466b565b5b90600052602060002090600402016003600481106108d6576108d561466b565b5b015403610b0c576108e5612d66565b600160008873ffffffffffffffffffffffffffffffffffffffff1673ffffffffffffffffffffffffffffffffffffffff16815260200190815260200160002082815481106109365761093561466b565b5b90600052602060002090600402016001600481106109575761095661466b565b5b01541015610b1f5782600160008873ffffffffffffffffffffffffffffffffffffffff1673ffffffffffffffffffffffffffffffffffffffff16815260200190815260200160002082815481106109b1576109b061466b565b5b90600052602060002090600402016002600481106109d2576109d161466b565b5b0181905550600160008773ffffffffffffffffffffffffffffffffffffffff1673ffffffffffffffffffffffffffffffffffffffff1681526020019081526020016000208181548110610a2857610a2761466b565b5b9060005260206000209060040201600060048110610a4957610a4861466b565b5b015482610a5691906146c9565b9150610afd86600160008973ffffffffffffffffffffffffffffffffffffffff1673ffffffffffffffffffffffffffffffffffffffff1681526020019081526020016000208381548110610aad57610aac61466b565b5b9060005260206000209060040201600060048110610ace57610acd61466b565b5b0154610ad8612f4d565b73ffffffffffffffffffffffffffffffffffffffff16612ff39092919063ffffffff16565b8480610b08906146fd565b9550505b8080610b17906146fd565b91505061079e565b506000811115610b43578060066000828254610b3b9190614745565b925050819055505b60008403610b86576040517f08c379a0000000000000000000000000000000000000000000000000000000008152600401610b7d906147c5565b60405180910390fd5b5050505050565b610b95612f75565b6002838390501015610bdc576040517f08c379a0000000000000000000000000000000000000000000000000000000008152600401610bd390614831565b60405180910390fd5b6000600160008673ffffffffffffffffffffffffffffffffffffffff1673ffffffffffffffffffffffffffffffffffffffff1681526020019081526020016000208054905011610c61576040517f08c379a0000000000000000000000000000000000000000000000000000000008152600401610c589061464b565b60405180910390fd5b60008060009050600080600160008973ffffffffffffffffffffffffffffffffffffffff1673ffffffffffffffffffffffffffffffffffffffff1681526020019081526020016000208054905090505b600081111561103257600181610cc79190614745565b9350848015610d4957506000600160008a73ffffffffffffffffffffffffffffffffffffffff1673ffffffffffffffffffffffffffffffffffffffff1681526020019081526020016000208581548110610d2457610d2361466b565b5b9060005260206000209060040201600360048110610d4557610d4461466b565b5b0154145b15610e05578280610d59906146fd565b935050600160008973ffffffffffffffffffffffffffffffffffffffff1673ffffffffffffffffffffffffffffffffffffffff1681526020019081526020016000208481548110610dad57610dac61466b565b5b9060005260206000209060040201600060048110610dce57610dcd61466b565b5b015482610ddb91906146c9565b91508686604051602001610df09291906148b6565b6040516020818303038152906040525061101f565b600160008973ffffffffffffffffffffffffffffffffffffffff1673ffffffffffffffffffffffffffffffffffffffff1681526020019081526020016000208481548110610e5657610e5561466b565b5b9060005260206000209060040201600160048110610e7757610e7661466b565b5b0154610e81612d66565b108015610f0157506000600160008a73ffffffffffffffffffffffffffffffffffffffff1673ffffffffffffffffffffffffffffffffffffffff1681526020019081526020016000208581548110610edc57610edb61466b565b5b9060005260206000209060040201600260048110610efd57610efc61466b565b5b0154145b8015610f8057506000600160008a73ffffffffffffffffffffffffffffffffffffffff1673ffffffffffffffffffffffffffffffffffffffff1681526020019081526020016000208581548110610f5b57610f5a61466b565b5b9060005260206000209060040201600360048110610f7c57610f7b61466b565b5b0154145b15611019578280610f90906146fd565b935050600160008973ffffffffffffffffffffffffffffffffffffffff1673ffffffffffffffffffffffffffffffffffffffff1681526020019081526020016000208481548110610fe457610fe361466b565b5b90600052602060002090600402016000600481106110055761100461466b565b5b01548261101291906146c9565b915061101e565b611032565b5b808061102a906148de565b915050610cb1565b5060008211611076576040517f08c379a000000000000000000000000000000000000000000000000000000000815260040161106d90614953565b60405180910390fd5b80600660008282546110889190614745565b92505081905550600260008873ffffffffffffffffffffffffffffffffffffffff1673ffffffffffffffffffffffffffffffffffffffff168152602001908152602001600020868690918060018154018082558091505060019003906000526020600020016000909192909192909192909192509182611109929190614baf565b50611115876005613079565b7f6d904ff1d589bd5804f3ff7c58759be40da60548bbf00c1ca5c9e8ef8e54c5e8816040516111449190613d35565b60405180910390a15b60008211156111da57600160008873ffffffffffffffffffffffffffffffffffffffff1673ffffffffffffffffffffffffffffffffffffffff1681526020019081526020016000208054806111a5576111a4614c7f565b5b600190038181906000526020600020906004020160006111c59190613999565b905581806111d2906148de565b92505061114d565b6000600160008973ffffffffffffffffffffffffffffffffffffffff1673ffffffffffffffffffffffffffffffffffffffff16815260200190815260200160002080549050036113ba57600160008873ffffffffffffffffffffffffffffffffffffffff1673ffffffffffffffffffffffffffffffffffffffff168152602001908152602001600020600061126f91906139b5565b600060078054806020026020016040519081016040528092919081815260200182805480156112f357602002820191906000526020600020905b8160009054906101000a900473ffffffffffffffffffffffffffffffffffffffff1673ffffffffffffffffffffffffffffffffffffffff16815260200190600101908083116112a9575b5050505050905060005b6007805490508110156113a0576007818154811061131e5761131d61466b565b5b9060005260206000200160009054906101000a900473ffffffffffffffffffffffffffffffffffffffff1673ffffffffffffffffffffffffffffffffffffffff168973ffffffffffffffffffffffffffffffffffffffff160361138d57611386816007613183565b91506113a0565b8080611398906146fd565b9150506112fd565b5080600790805190602001906113b79291906139d9565b50505b50505050505050565b60007f000000000000000000000000000000000000000000000000000000000000000073ffffffffffffffffffffffffffffffffffffffff1663313ce5676040518163ffffffff1660e01b8152600401602060405180830381865afa158015611430573d6000803e3d6000fd5b505050506040513d601f19601f820116820180604052508101906114549190614ce7565b60ff16905090565b600860009054906101000a900473ffffffffffffffffffffffffffffffffffffffff1673ffffffffffffffffffffffffffffffffffffffff163373ffffffffffffffffffffffffffffffffffffffff16146114ec576040517f08c379a00000000000000000000000000000000000000000000000000000000081526004016114e390614d86565b60405180910390fd5b60008484905011611532576040517f08c379a000000000000000000000000000000000000000000000000000000000815260040161152990614e18565b60405180910390fd5b83839050828290501461157a576040517f08c379a000000000000000000000000000000000000000000000000000000000815260040161157190614eaa565b60405180910390fd5b60005b8484905081101561165957600083838381811061159d5761159c61466b565b5b90506020028101906115af9190614ed9565b9050116115f1576040517f08c379a00000000000000000000000000000000000000000000000000000000081526004016115e890614fae565b60405180910390fd5b6116468585838181106116075761160661466b565b5b905060200201602081019061161c9190613bb4565b84848481811061162f5761162e61466b565b5b90506020028101906116419190614ed9565b611b8f565b8080611651906146fd565b91505061157d565b5050505050565b606061166a612f75565b60048054806020026020016040519081016040528092919081815260200182805480156116ec57602002820191906000526020600020905b8160009054906101000a900473ffffffffffffffffffffffffffffffffffffffff1673ffffffffffffffffffffffffffffffffffffffff16815260200190600101908083116116a2575b5050505050905090565b6116fe612f75565b8181905084849050148015611717575060018484905010155b611756576040517f08c379a000000000000000000000000000000000000000000000000000000000815260040161174d9061501a565b60405180910390fd5b6000600160008773ffffffffffffffffffffffffffffffffffffffff1673ffffffffffffffffffffffffffffffffffffffff16815260200190815260200160002080549050116117db576040517f08c379a00000000000000000000000000000000000000000000000000000000081526004016117d29061464b565b60405180910390fd5b6117e88585858585613330565b5050505050565b60006117f9612f75565b600654905090565b606061180b612f75565b600780548060200260200160405190810160405280929190818152602001828054801561188d57602002820191906000526020600020905b8160009054906101000a900473ffffffffffffffffffffffffffffffffffffffff1673ffffffffffffffffffffffffffffffffffffffff1681526020019060010190808311611843575b5050505050905090565b61189f612f75565b6040517f08c379a00000000000000000000000000000000000000000000000000000000081526004016118d1906150ac565b60405180910390fd5b60606118e4611ad9565b73ffffffffffffffffffffffffffffffffffffffff163373ffffffffffffffffffffffffffffffffffffffff16148061194857508173ffffffffffffffffffffffffffffffffffffffff163373ffffffffffffffffffffffffffffffffffffffff16145b611987576040517f08c379a000000000000000000000000000000000000000000000000000000000815260040161197e90615118565b60405180910390fd5b6000600160008473ffffffffffffffffffffffffffffffffffffffff1673ffffffffffffffffffffffffffffffffffffffff1681526020019081526020016000208054905011611a0c576040517f08c379a0000000000000000000000000000000000000000000000000000000008152600401611a039061464b565b60405180910390fd5b600160008373ffffffffffffffffffffffffffffffffffffffff1673ffffffffffffffffffffffffffffffffffffffff168152602001908152602001600020805480602002602001604051908101604052809291908181526020016000905b82821015611ace5783829060005260206000209060040201600480602002604051908101604052809291908260048015611aba576020028201915b815481526020019060010190808311611aa6575b505050505081526020019060010190611a6b565b505050509050919050565b60008060009054906101000a900473ffffffffffffffffffffffffffffffffffffffff16905090565b611b0a612f75565b6000611b1461355a565b905060008111611b59576040517f08c379a0000000000000000000000000000000000000000000000000000000008152600401611b5090615184565b60405180910390fd5b611b8b8282611b66612f4d565b73ffffffffffffffffffffffffffffffffffffffff16612ff39092919063ffffffff16565b5050565b600860009054906101000a900473ffffffffffffffffffffffffffffffffffffffff1673ffffffffffffffffffffffffffffffffffffffff163373ffffffffffffffffffffffffffffffffffffffff1614611c1f576040517f08c379a0000000000000000000000000000000000000000000000000000000008152600401611c1690614d86565b60405180910390fd5b60008282905011611c65576040517f08c379a0000000000000000000000000000000000000000000000000000000008152600401611c5c90615216565b60405180910390fd5b6000600160008573ffffffffffffffffffffffffffffffffffffffff1673ffffffffffffffffffffffffffffffffffffffff1681526020019081526020016000208054905011611cea576040517f08c379a0000000000000000000000000000000000000000000000000000000008152600401611ce19061464b565b60405180910390fd5b81819050600160008573ffffffffffffffffffffffffffffffffffffffff1673ffffffffffffffffffffffffffffffffffffffff168152602001908152602001600020805490501015611d72576040517f08c379a0000000000000000000000000000000000000000000000000000000008152600401611d6990615282565b60405180910390fd5b60005b8282905081101561208d57600160008573ffffffffffffffffffffffffffffffffffffffff1673ffffffffffffffffffffffffffffffffffffffff16815260200190815260200160002080549050838383818110611dd657611dd561466b565b5b9050602002013510611e1d576040517f08c379a0000000000000000000000000000000000000000000000000000000008152600401611e14906152ee565b60405180910390fd5b6000600160008673ffffffffffffffffffffffffffffffffffffffff1673ffffffffffffffffffffffffffffffffffffffff168152602001908152602001600020848484818110611e7157611e7061466b565b5b9050602002013581548110611e8957611e8861466b565b5b9060005260206000209060040201600360048110611eaa57611ea961466b565b5b015414611eec576040517f08c379a0000000000000000000000000000000000000000000000000000000008152600401611ee39061535a565b60405180910390fd5b6000838383818110611f0157611f0061466b565b5b905060200201351115611fe95760018060008673ffffffffffffffffffffffffffffffffffffffff1673ffffffffffffffffffffffffffffffffffffffff1681526020019081526020016000206001858585818110611f6357611f6261466b565b5b90506020020135611f749190614745565b81548110611f8557611f8461466b565b5b9060005260206000209060040201600360048110611fa657611fa561466b565b5b015414611fe8576040517f08c379a0000000000000000000000000000000000000000000000000000000008152600401611fdf906153ec565b60405180910390fd5b5b60018060008673ffffffffffffffffffffffffffffffffffffffff1673ffffffffffffffffffffffffffffffffffffffff16815260200190815260200160002084848481811061203c5761203b61466b565b5b90506020020135815481106120545761205361466b565b5b90600052602060002090600402016003600481106120755761207461466b565b5b01819055508080612085906146fd565b915050611d75565b50505050565b60607f000000000000000000000000000000000000000000000000000000000000000073ffffffffffffffffffffffffffffffffffffffff166395d89b416040518163ffffffff1660e01b8152600401600060405180830381865afa158015612100573d6000803e3d6000fd5b505050506040513d6000823e3d601f19601f8201168201806040525081019061212991906154fe565b905090565b6000612138612f75565b61214061355a565b905090565b61214d612f75565b6000600160008573ffffffffffffffffffffffffffffffffffffffff1673ffffffffffffffffffffffffffffffffffffffff16815260200190815260200160002080549050116121d2576040517f08c379a00000000000000000000000000000000000000000000000000000000081526004016121c99061464b565b60405180910390fd5b6121da6135c8565b600654836121e891906146c9565b1115612229576040517f08c379a000000000000000000000000000000000000000000000000000000000815260040161222090615593565b60405180910390fd5b80600160008573ffffffffffffffffffffffffffffffffffffffff1673ffffffffffffffffffffffffffffffffffffffff16815260200190815260200160002060018060008773ffffffffffffffffffffffffffffffffffffffff1673ffffffffffffffffffffffffffffffffffffffff168152602001908152602001600020805490506122b79190614745565b815481106122c8576122c761466b565b5b90600052602060002090600402016001600481106122e9576122e861466b565b5b01541061232b576040517f08c379a000000000000000000000000000000000000000000000000000000000815260040161232290615625565b60405180910390fd5b80612334612d66565b10612374576040517f08c379a000000000000000000000000000000000000000000000000000000000815260040161236b906156b7565b60405180910390fd5b816006600082825461238691906146c9565b925050819055507ff15ee0942522997d9f4605d8b731b728a4125926ad43ab06290856eb6c3978ed826040516123bc9190613d35565b60405180910390a1600160008473ffffffffffffffffffffffffffffffffffffffff1673ffffffffffffffffffffffffffffffffffffffff1681526020019081526020016000206040518060800160405280848152602001838152602001600081526020016000815250908060018154018082558091505060019003906000526020600020906004020160009091909190915090600461245d929190613a63565b50505050565b6000600160003373ffffffffffffffffffffffffffffffffffffffff1673ffffffffffffffffffffffffffffffffffffffff16815260200190815260200160002080549050116124e8576040517f08c379a00000000000000000000000000000000000000000000000000000000081526004016124df90615749565b60405180910390fd5b6000600160008373ffffffffffffffffffffffffffffffffffffffff1673ffffffffffffffffffffffffffffffffffffffff16815260200190815260200160002080549050111561256e576040517f08c379a0000000000000000000000000000000000000000000000000000000008152600401612565906157b5565b60405180910390fd5b6060600160003373ffffffffffffffffffffffffffffffffffffffff1673ffffffffffffffffffffffffffffffffffffffff168152602001908152602001600020805480602002602001604051908101604052809291908181526020016000905b82821015612632578382906000526020600020906004020160048060200260405190810160405280929190826004801561261e576020028201915b81548152602001906001019080831161260a575b5050505050815260200190600101906125cf565b505050509050600160003373ffffffffffffffffffffffffffffffffffffffff1673ffffffffffffffffffffffffffffffffffffffff168152602001908152602001600020600061268391906139b5565b80600160008473ffffffffffffffffffffffffffffffffffffffff1673ffffffffffffffffffffffffffffffffffffffff16815260200190815260200160002090805190602001906126d6929190613aa3565b5060005b6007805490508110156127d457600033905060078281548110612700576126ff61466b565b5b9060005260206000200160009054906101000a900473ffffffffffffffffffffffffffffffffffffffff1673ffffffffffffffffffffffffffffffffffffffff168173ffffffffffffffffffffffffffffffffffffffff16036127c05783600783815481106127725761277161466b565b5b9060005260206000200160006101000a81548173ffffffffffffffffffffffffffffffffffffffff021916908373ffffffffffffffffffffffffffffffffffffffff160217905550506127d4565b5080806127cc906146fd565b9150506126da565b506004339080600181540180825580915050600190039060005260206000200160009091909190916101000a81548173ffffffffffffffffffffffffffffffffffffffff021916908373ffffffffffffffffffffffffffffffffffffffff16021790555081600360003373ffffffffffffffffffffffffffffffffffffffff1673ffffffffffffffffffffffffffffffffffffffff16815260200190815260200160002060006101000a81548173ffffffffffffffffffffffffffffffffffffffff021916908373ffffffffffffffffffffffffffffffffffffffff1602179055505050565b60606128c4611ad9565b73ffffffffffffffffffffffffffffffffffffffff163373ffffffffffffffffffffffffffffffffffffffff16148061292857508173ffffffffffffffffffffffffffffffffffffffff163373ffffffffffffffffffffffffffffffffffffffff16145b612967576040517f08c379a000000000000000000000000000000000000000000000000000000000815260040161295e90615821565b60405180910390fd5b6000805b600580549050811015612a0b576005818154811061298c5761298b61466b565b5b9060005260206000200160009054906101000a900473ffffffffffffffffffffffffffffffffffffffff1673ffffffffffffffffffffffffffffffffffffffff168473ffffffffffffffffffffffffffffffffffffffff16036129f85781806129f4906146fd565b9250505b8080612a03906146fd565b91505061296b565b5060008111612a4f576040517f08c379a0000000000000000000000000000000000000000000000000000000008152600401612a469061588d565b60405180910390fd5b600260008473ffffffffffffffffffffffffffffffffffffffff1673ffffffffffffffffffffffffffffffffffffffff168152602001908152602001600020805480602002602001604051908101604052809291908181526020016000905b82821015612b5a578382906000526020600020018054612acd906149dc565b80601f0160208091040260200160405190810160405280929190818152602001828054612af9906149dc565b8015612b465780601f10612b1b57610100808354040283529160200191612b46565b820191906000526020600020905b815481529060010190602001808311612b2957829003601f168201915b505050505081526020019060010190612aae565b50505050915050919050565b6000612b70612f75565b600860009054906101000a900473ffffffffffffffffffffffffffffffffffffffff1673ffffffffffffffffffffffffffffffffffffffff168273ffffffffffffffffffffffffffffffffffffffff1603612c00576040517f08c379a0000000000000000000000000000000000000000000000000000000008152600401612bf79061591f565b60405180910390fd5b600073ffffffffffffffffffffffffffffffffffffffff168273ffffffffffffffffffffffffffffffffffffffff1603612c6f576040517f08c379a0000000000000000000000000000000000000000000000000000000008152600401612c669061598b565b60405180910390fd5b81600860006101000a81548173ffffffffffffffffffffffffffffffffffffffff021916908373ffffffffffffffffffffffffffffffffffffffff16021790555060019050919050565b6060612cc3612f75565b6005805480602002602001604051908101604052809291908181526020018280548015612d4557602002820191906000526020600020905b8160009054906101000a900473ffffffffffffffffffffffffffffffffffffffff1673ffffffffffffffffffffffffffffffffffffffff1681526020019060010190808311612cfb575b5050505050905090565b6000612d59612f75565b612d616135c8565b905090565b600042905090565b612d76612f75565b600073ffffffffffffffffffffffffffffffffffffffff168173ffffffffffffffffffffffffffffffffffffffff1603612de5576040517f08c379a0000000000000000000000000000000000000000000000000000000008152600401612ddc90615a1d565b60405180910390fd5b612dee81613650565b50565b612df9612f75565b8181905084849050148015612e12575060018484905010155b612e51576040517f08c379a0000000000000000000000000000000000000000000000000000000008152600401612e4890615a89565b60405180910390fd5b6000600160008773ffffffffffffffffffffffffffffffffffffffff1673ffffffffffffffffffffffffffffffffffffffff1681526020019081526020016000208054905014612ed6576040517f08c379a0000000000000000000000000000000000000000000000000000000008152600401612ecd90615af5565b60405180910390fd5b612ee38585858585613330565b6007859080600181540180825580915050600190039060005260206000200160009091909190916101000a81548173ffffffffffffffffffffffffffffffffffffffff021916908373ffffffffffffffffffffffffffffffffffffffff1602179055505050505050565b60007f0000000000000000000000000000000000000000000000000000000000000000905090565b612f7d613714565b73ffffffffffffffffffffffffffffffffffffffff16612f9b611ad9565b73ffffffffffffffffffffffffffffffffffffffff1614612ff1576040517f08c379a0000000000000000000000000000000000000000000000000000000008152600401612fe890615b61565b60405180910390fd5b565b6130748363a9059cbb60e01b8484604051602401613012929190615b81565b604051602081830303815290604052907bffffffffffffffffffffffffffffffffffffffffffffffffffffffff19166020820180517bffffffffffffffffffffffffffffffffffffffffffffffffffffffff838183161783525050505061371c565b505050565b6000805b82805490508110156131155782818154811061309c5761309b61466b565b5b9060005260206000200160009054906101000a900473ffffffffffffffffffffffffffffffffffffffff1673ffffffffffffffffffffffffffffffffffffffff168473ffffffffffffffffffffffffffffffffffffffff16036131025760019150613115565b808061310d906146fd565b91505061307d565b508061317e5781839080600181540180825580915050600190039060005260206000200160009091909190916101000a81548173ffffffffffffffffffffffffffffffffffffffff021916908373ffffffffffffffffffffffffffffffffffffffff1602179055505b505050565b606060008390505b6001838054905061319c9190614745565b81101561325b57826001826131b191906146c9565b815481106131c2576131c161466b565b5b9060005260206000200160009054906101000a900473ffffffffffffffffffffffffffffffffffffffff16838281548110613200576131ff61466b565b5b9060005260206000200160006101000a81548173ffffffffffffffffffffffffffffffffffffffff021916908373ffffffffffffffffffffffffffffffffffffffff1602179055508080613253906146fd565b91505061318b565b508180548061326d5761326c614c7f565b5b6001900381819060005260206000200160006101000a81549073ffffffffffffffffffffffffffffffffffffffff021916905590558180548060200260200160405190810160405280929190818152602001828054801561332357602002820191906000526020600020905b8160009054906101000a900473ffffffffffffffffffffffffffffffffffffffff1673ffffffffffffffffffffffffffffffffffffffff16815260200190600101908083116132d9575b5050505050905092915050565b6000806000805b878790508110156134ff578585828181106133555761335461466b565b5b90506020020135613364612d66565b106133a4576040517f08c379a000000000000000000000000000000000000000000000000000000000815260040161339b90615c1c565b60405180910390fd5b8787828181106133b7576133b661466b565b5b90506020020135826133c991906146c9565b91506133d36135c8565b826006546133e191906146c9565b1115613422576040517f08c379a000000000000000000000000000000000000000000000000000000000815260040161341990615593565b60405180910390fd5b600160008a73ffffffffffffffffffffffffffffffffffffffff1673ffffffffffffffffffffffffffffffffffffffff16815260200190815260200160002060405180608001604052808a8a8581811061347f5761347e61466b565b5b90506020020135815260200188888581811061349e5761349d61466b565b5b9050602002013581526020018681526020018581525090806001815401808255809150506001900390600052602060002090600402016000909190919091509060046134eb929190613a63565b5080806134f7906146fd565b915050613337565b50806006600082825461351291906146c9565b925050819055507ff15ee0942522997d9f4605d8b731b728a4125926ad43ab06290856eb6c3978ed816040516135489190613d35565b60405180910390a15050505050505050565b60006006546135676135c8565b10156135a8576040517f08c379a000000000000000000000000000000000000000000000000000000000815260040161359f90615c88565b60405180910390fd5b60006006546135b56135c8565b6135bf9190614745565b90508091505090565b60006135d2612f4d565b73ffffffffffffffffffffffffffffffffffffffff166370a08231306040518263ffffffff1660e01b815260040161360a9190613bf0565b602060405180830381865afa158015613627573d6000803e3d6000fd5b505050506040513d601f19601f8201168201806040525081019061364b9190615cbd565b905090565b60008060009054906101000a900473ffffffffffffffffffffffffffffffffffffffff169050816000806101000a81548173ffffffffffffffffffffffffffffffffffffffff021916908373ffffffffffffffffffffffffffffffffffffffff1602179055508173ffffffffffffffffffffffffffffffffffffffff168173ffffffffffffffffffffffffffffffffffffffff167f8be0079c531659141344cd1fd0a4f28419497f9722a3daafe3b4186f6b6457e060405160405180910390a35050565b600033905090565b600061377e826040518060400160405280602081526020017f5361666545524332303a206c6f772d6c6576656c2063616c6c206661696c65648152508573ffffffffffffffffffffffffffffffffffffffff166137e39092919063ffffffff16565b90506000815111156137de578080602001905181019061379e9190615cff565b6137dd576040517f08c379a00000000000000000000000000000000000000000000000000000000081526004016137d490615d9e565b60405180910390fd5b5b505050565b60606137f284846000856137fb565b90509392505050565b606082471015613840576040517f08c379a000000000000000000000000000000000000000000000000000000000815260040161383790615e30565b60405180910390fd5b6138498561390f565b613888576040517f08c379a000000000000000000000000000000000000000000000000000000000815260040161387f90615e9c565b60405180910390fd5b6000808673ffffffffffffffffffffffffffffffffffffffff1685876040516138b19190615f03565b60006040518083038185875af1925050503d80600081146138ee576040519150601f19603f3d011682016040523d82523d6000602084013e6138f3565b606091505b5091509150613903828286613932565b92505050949350505050565b6000808273ffffffffffffffffffffffffffffffffffffffff163b119050919050565b6060831561394257829050613992565b6000835111156139555782518084602001fd5b816040517f08c379a000000000000000000000000000000000000000000000000000000000815260040161398991906142b4565b60405180910390fd5b9392505050565b5060008155600101600081556001016000815560010160009055565b50805460008255600402906000526020600020908101906139d69190613b01565b50565b828054828255906000526020600020908101928215613a52579160200282015b82811115613a515782518260006101000a81548173ffffffffffffffffffffffffffffffffffffffff021916908373ffffffffffffffffffffffffffffffffffffffff160217905550916020019190600101906139f9565b5b509050613a5f9190613b25565b5090565b8260048101928215613a92579160200282015b82811115613a91578251825591602001919060010190613a76565b5b509050613a9f9190613b25565b5090565b828054828255906000526020600020906004028101928215613af0579160200282015b82811115613aef57825182906004613adf929190613a63565b5091602001919060040190613ac6565b5b509050613afd9190613b01565b5090565b5b80821115613b215760008181613b189190613999565b50600401613b02565b5090565b5b80821115613b3e576000816000905550600101613b26565b5090565b6000604051905090565b600080fd5b600080fd5b600073ffffffffffffffffffffffffffffffffffffffff82169050919050565b6000613b8182613b56565b9050919050565b613b9181613b76565b8114613b9c57600080fd5b50565b600081359050613bae81613b88565b92915050565b600060208284031215613bca57613bc9613b4c565b5b6000613bd884828501613b9f565b91505092915050565b613bea81613b76565b82525050565b6000602082019050613c056000830184613be1565b92915050565b600080fd5b600080fd5b600080fd5b60008083601f840112613c3057613c2f613c0b565b5b8235905067ffffffffffffffff811115613c4d57613c4c613c10565b5b602083019150836001820283011115613c6957613c68613c15565b5b9250929050565b60008115159050919050565b613c8581613c70565b8114613c9057600080fd5b50565b600081359050613ca281613c7c565b92915050565b60008060008060608587031215613cc257613cc1613b4c565b5b6000613cd087828801613b9f565b945050602085013567ffffffffffffffff811115613cf157613cf0613b51565b5b613cfd87828801613c1a565b93509350506040613d1087828801613c93565b91505092959194509250565b6000819050919050565b613d2f81613d1c565b82525050565b6000602082019050613d4a6000830184613d26565b92915050565b60008083601f840112613d6657613d65613c0b565b5b8235905067ffffffffffffffff811115613d8357613d82613c10565b5b602083019150836020820283011115613d9f57613d9e613c15565b5b9250929050565b60008083601f840112613dbc57613dbb613c0b565b5b8235905067ffffffffffffffff811115613dd957613dd8613c10565b5b602083019150836020820283011115613df557613df4613c15565b5b9250929050565b60008060008060408587031215613e1657613e15613b4c565b5b600085013567ffffffffffffffff811115613e3457613e33613b51565b5b613e4087828801613d50565b9450945050602085013567ffffffffffffffff811115613e6357613e62613b51565b5b613e6f87828801613da6565b925092505092959194509250565b600081519050919050565b600082825260208201905092915050565b6000819050602082019050919050565b613eb281613b76565b82525050565b6000613ec48383613ea9565b60208301905092915050565b6000602082019050919050565b6000613ee882613e7d565b613ef28185613e88565b9350613efd83613e99565b8060005b83811015613f2e578151613f158882613eb8565b9750613f2083613ed0565b925050600181019050613f01565b5085935050505092915050565b60006020820190508181036000830152613f558184613edd565b905092915050565b60008083601f840112613f7357613f72613c0b565b5b8235905067ffffffffffffffff811115613f9057613f8f613c10565b5b602083019150836020820283011115613fac57613fab613c15565b5b9250929050565b600080600080600060608688031215613fcf57613fce613b4c565b5b6000613fdd88828901613b9f565b955050602086013567ffffffffffffffff811115613ffe57613ffd613b51565b5b61400a88828901613f5d565b9450945050604086013567ffffffffffffffff81111561402d5761402c613b51565b5b61403988828901613f5d565b92509250509295509295909350565b600081519050919050565b600082825260208201905092915050565b6000819050602082019050919050565b600060049050919050565b600081905092915050565b6000819050919050565b61409d81613d1c565b82525050565b60006140af8383614094565b60208301905092915050565b6000602082019050919050565b6140d181614074565b6140db818461407f565b92506140e68261408a565b8060005b838110156141175781516140fe87826140a3565b9650614109836140bb565b9250506001810190506140ea565b505050505050565b600061412b83836140c8565b60808301905092915050565b6000602082019050919050565b600061414f82614048565b6141598185614053565b935061416483614064565b8060005b8381101561419557815161417c888261411f565b975061418783614137565b925050600181019050614168565b5085935050505092915050565b600060208201905081810360008301526141bc8184614144565b905092915050565b6000806000604084860312156141dd576141dc613b4c565b5b60006141eb86828701613b9f565b935050602084013567ffffffffffffffff81111561420c5761420b613b51565b5b61421886828701613f5d565b92509250509250925092565b600081519050919050565b600082825260208201905092915050565b60005b8381101561425e578082015181840152602081019050614243565b60008484015250505050565b6000601f19601f8301169050919050565b600061428682614224565b614290818561422f565b93506142a0818560208601614240565b6142a98161426a565b840191505092915050565b600060208201905081810360008301526142ce818461427b565b905092915050565b6142df81613d1c565b81146142ea57600080fd5b50565b6000813590506142fc816142d6565b92915050565b60008060006060848603121561431b5761431a613b4c565b5b600061432986828701613b9f565b935050602061433a868287016142ed565b925050604061434b868287016142ed565b9150509250925092565b600081519050919050565b600082825260208201905092915050565b6000819050602082019050919050565b600082825260208201905092915050565b600061439d82614224565b6143a78185614381565b93506143b7818560208601614240565b6143c08161426a565b840191505092915050565b60006143d78383614392565b905092915050565b6000602082019050919050565b60006143f782614355565b6144018185614360565b93508360208202850161441385614371565b8060005b8581101561444f578484038952815161443085826143cb565b945061443b836143df565b925060208a01995050600181019050614417565b50829750879550505050505092915050565b6000602082019050818103600083015261447b81846143ec565b905092915050565b61448c81613c70565b82525050565b60006020820190506144a76000830184614483565b92915050565b6000819050919050565b60006144d26144cd6144c884613b56565b6144ad565b613b56565b9050919050565b60006144e4826144b7565b9050919050565b60006144f6826144d9565b9050919050565b614506816144eb565b82525050565b600060208201905061452160008301846144fd565b92915050565b7f57616c6c657420686173206e65766572206368616e6765642100000000000000600082015250565b600061455d60198361422f565b915061456882614527565b602082019050919050565b6000602082019050818103600083015261458c81614550565b9050919050565b7f4f6e6c792062656e656669636961727921000000000000000000000000000000600082015250565b60006145c960118361422f565b91506145d482614593565b602082019050919050565b600060208201905081810360008301526145f8816145bc565b9050919050565b7f42656e6566696369617279206e6f74206578697374696e672100000000000000600082015250565b600061463560198361422f565b9150614640826145ff565b602082019050919050565b6000602082019050818103600083015261466481614628565b9050919050565b7f4e487b7100000000000000000000000000000000000000000000000000000000600052603260045260246000fd5b7f4e487b7100000000000000000000000000000000000000000000000000000000600052601160045260246000fd5b60006146d482613d1c565b91506146df83613d1c565b92508282019050808211156146f7576146f661469a565b5b92915050565b600061470882613d1c565b91507fffffffffffffffffffffffffffffffffffffffffffffffffffffffffffffffff820361473a5761473961469a565b5b600182019050919050565b600061475082613d1c565b915061475b83613d1c565b92508282039050818111156147735761477261469a565b5b92915050565b7f4e6f7468696e6720666f72207472616e73666572210000000000000000000000600082015250565b60006147af60158361422f565b91506147ba82614779565b602082019050919050565b600060208201905081810360008301526147de816147a2565b9050919050565b7f6e6f20726561736f6e0000000000000000000000000000000000000000000000600082015250565b600061481b60098361422f565b9150614826826147e5565b602082019050919050565b6000602082019050818103600083015261484a8161480e565b9050919050565b7f466f7263652064656c657465642064756520746f3a2000000000000000000000815250565b600081905092915050565b82818337600083830152505050565b600061489d8385614877565b93506148aa838584614882565b82840190509392505050565b60006148c182614851565b6016820191506148d2828486614891565b91508190509392505050565b60006148e982613d1c565b9150600082036148fc576148fb61469a565b5b600182039050919050565b7f4e6f207061796d656e747320746f2063616e63656c2100000000000000000000600082015250565b600061493d60168361422f565b915061494882614907565b602082019050919050565b6000602082019050818103600083015261496c81614930565b9050919050565b600082905092915050565b7f4e487b7100000000000000000000000000000000000000000000000000000000600052604160045260246000fd5b7f4e487b7100000000000000000000000000000000000000000000000000000000600052602260045260246000fd5b600060028204905060018216806149f457607f821691505b602082108103614a0757614a066149ad565b5b50919050565b60008190508160005260206000209050919050565b60006020601f8301049050919050565b600082821b905092915050565b600060088302614a6f7fffffffffffffffffffffffffffffffffffffffffffffffffffffffffffffffff82614a32565b614a798683614a32565b95508019841693508086168417925050509392505050565b6000614aac614aa7614aa284613d1c565b6144ad565b613d1c565b9050919050565b6000819050919050565b614ac683614a91565b614ada614ad282614ab3565b848454614a3f565b825550505050565b600090565b614aef614ae2565b614afa818484614abd565b505050565b5b81811015614b1e57614b13600082614ae7565b600181019050614b00565b5050565b601f821115614b6357614b3481614a0d565b614b3d84614a22565b81016020851015614b4c578190505b614b60614b5885614a22565b830182614aff565b50505b505050565b600082821c905092915050565b6000614b8660001984600802614b68565b1980831691505092915050565b6000614b9f8383614b75565b9150826002028217905092915050565b614bb98383614973565b67ffffffffffffffff811115614bd257614bd161497e565b5b614bdc82546149dc565b614be7828285614b22565b6000601f831160018114614c165760008415614c04578287013590505b614c0e8582614b93565b865550614c76565b601f198416614c2486614a0d565b60005b82811015614c4c57848901358255600182019150602085019450602081019050614c27565b86831015614c695784890135614c65601f891682614b75565b8355505b6001600288020188555050505b50505050505050565b7f4e487b7100000000000000000000000000000000000000000000000000000000600052603160045260246000fd5b600060ff82169050919050565b614cc481614cae565b8114614ccf57600080fd5b50565b600081519050614ce181614cbb565b92915050565b600060208284031215614cfd57614cfc613b4c565b5b6000614d0b84828501614cd2565b91505092915050565b7f4f6e6c7920617070726f7665722063616e20617070726f7665207061796d656e60008201527f7473210000000000000000000000000000000000000000000000000000000000602082015250565b6000614d7060238361422f565b9150614d7b82614d14565b604082019050919050565b60006020820190508181036000830152614d9f81614d63565b9050919050565b7f4c697374206f662062656e65666963696172696573206973207265717569726560008201527f6400000000000000000000000000000000000000000000000000000000000000602082015250565b6000614e0260218361422f565b9150614e0d82614da6565b604082019050919050565b60006020820190508181036000830152614e3181614df5565b9050919050565b7f496e646578657320666f72207061796d656e7473207065722062656e6566696360008201527f69617279206d7573742062652070726f76696465642100000000000000000000602082015250565b6000614e9460368361422f565b9150614e9f82614e38565b604082019050919050565b60006020820190508181036000830152614ec381614e87565b9050919050565b600080fd5b600080fd5b600080fd5b60008083356001602003843603038112614ef657614ef5614eca565b5b80840192508235915067ffffffffffffffff821115614f1857614f17614ecf565b5b602083019250602082023603831315614f3457614f33614ed4565b5b509250929050565b7f4c697374206f66207061796d656e7473207065722062656e656669636961727960008201527f2063616e277420626520656d7074792100000000000000000000000000000000602082015250565b6000614f9860308361422f565b9150614fa382614f3c565b604082019050919050565b60006020820190508181036000830152614fc781614f8b565b9050919050565b7f496e707574206e6f7420636f7272656374212e00000000000000000000000000600082015250565b600061500460138361422f565b915061500f82614fce565b602082019050919050565b6000602082019050818103600083015261503381614ff7565b9050919050565b7f446f65736e277420737570706f72742072656e6f756e63696e67206f66206f7760008201527f6e65727368697021000000000000000000000000000000000000000000000000602082015250565b600061509660288361422f565b91506150a18261503a565b604082019050919050565b600060208201905081810360008301526150c581615089565b9050919050565b7f4e6f742062656e65666963696172792100000000000000000000000000000000600082015250565b600061510260108361422f565b915061510d826150cc565b602082019050919050565b60006020820190508181036000830152615131816150f5565b9050919050565b7f4e6f20746f6b656e7320746f207472616e736665722100000000000000000000600082015250565b600061516e60168361422f565b915061517982615138565b602082019050919050565b6000602082019050818103600083015261519d81615161565b9050919050565b7f4e6f2073656c6563746564207061796d656e747320666f7220617070726f766160008201527f6c21000000000000000000000000000000000000000000000000000000000000602082015250565b600061520060228361422f565b915061520b826151a4565b604082019050919050565b6000602082019050818103600083015261522f816151f3565b9050919050565b7f57726f6e67207061796d656e7420646174612100000000000000000000000000600082015250565b600061526c60138361422f565b915061527782615236565b602082019050919050565b6000602082019050818103600083015261529b8161525f565b9050919050565b7f496e646578206572726f722c206e6f2073756368207061796d656e7421000000600082015250565b60006152d8601d8361422f565b91506152e3826152a2565b602082019050919050565b60006020820190508181036000830152615307816152cb565b9050919050565b7f5061796d656e7420616c726561647920617070726f7665642100000000000000600082015250565b600061534460198361422f565b915061534f8261530e565b602082019050919050565b6000602082019050818103600083015261537381615337565b9050919050565b7f43616e277420617070726f7665206e657874207061796d656e74206265666f7260008201527f65207468652070726576696f7573206f6e652100000000000000000000000000602082015250565b60006153d660338361422f565b91506153e18261537a565b604082019050919050565b60006020820190508181036000830152615405816153c9565b9050919050565b600080fd5b61541a8261426a565b810181811067ffffffffffffffff821117156154395761543861497e565b5b80604052505050565b600061544c613b42565b90506154588282615411565b919050565b600067ffffffffffffffff8211156154785761547761497e565b5b6154818261426a565b9050602081019050919050565b60006154a161549c8461545d565b615442565b9050828152602081018484840111156154bd576154bc61540c565b5b6154c8848285614240565b509392505050565b600082601f8301126154e5576154e4613c0b565b5b81516154f584826020860161548e565b91505092915050565b60006020828403121561551457615513613b4c565b5b600082015167ffffffffffffffff81111561553257615531613b51565b5b61553e848285016154d0565b91505092915050565b7f496e73756666696369656e742062616c616e6365210000000000000000000000600082015250565b600061557d60158361422f565b915061558882615547565b602082019050919050565b600060208201905081810360008301526155ac81615570565b9050919050565b7f446174652063616e2774206265206c657373207468616e20746865206c61737460008201527f20656e7465726564210000000000000000000000000000000000000000000000602082015250565b600061560f60298361422f565b915061561a826155b3565b604082019050919050565b6000602082019050818103600083015261563e81615602565b9050919050565b7f446174652063616e277420626520657175616c206f72206c657373207468616e60008201527f2063757272656e74206461746521000000000000000000000000000000000000602082015250565b60006156a1602e8361422f565b91506156ac82615645565b604082019050919050565b600060208201905081810360008301526156d081615694565b9050919050565b7f4f6e6c792062656e65666963696172792063616e206368616e67652077616c6c60008201527f6574206164647265737321000000000000000000000000000000000000000000602082015250565b6000615733602b8361422f565b915061573e826156d7565b604082019050919050565b6000602082019050818103600083015261576281615726565b9050919050565b7f416c7265616479206578697374696e6720696e2076657374696e672100000000600082015250565b600061579f601c8361422f565b91506157aa82615769565b602082019050919050565b600060208201905081810360008301526157ce81615792565b9050919050565b7f4f6e6c792062656e6566696369617279206f72206f776e657221000000000000600082015250565b600061580b601a8361422f565b9150615816826157d5565b602082019050919050565b6000602082019050818103600083015261583a816157fe565b9050919050565b7f4e6f2063616e63656c6564207061796d656e7473210000000000000000000000600082015250565b600061587760158361422f565b915061588282615841565b602082019050919050565b600060208201905081810360008301526158a68161586a565b9050919050565b7f43616e2774206368616e67652e2054686973206973207468652063757272656e60008201527f7420617070726f76657221000000000000000000000000000000000000000000602082015250565b6000615909602b8361422f565b9150615914826158ad565b604082019050919050565b60006020820190508181036000830152615938816158fc565b9050919050565b7f43616e2774206265207a65726f20616464726573732100000000000000000000600082015250565b600061597560168361422f565b91506159808261593f565b602082019050919050565b600060208201905081810360008301526159a481615968565b9050919050565b7f4f776e61626c653a206e6577206f776e657220697320746865207a65726f206160008201527f6464726573730000000000000000000000000000000000000000000000000000602082015250565b6000615a0760268361422f565b9150615a12826159ab565b604082019050919050565b60006020820190508181036000830152615a36816159fa565b9050919050565b7f44617461206e6f7420636f727265637421000000000000000000000000000000600082015250565b6000615a7360118361422f565b9150615a7e82615a3d565b602082019050919050565b60006020820190508181036000830152615aa281615a66565b9050919050565b7f42656e656669636961727920616c7265616479206578697374696e6721000000600082015250565b6000615adf601d8361422f565b9150615aea82615aa9565b602082019050919050565b60006020820190508181036000830152615b0e81615ad2565b9050919050565b7f4f776e61626c653a2063616c6c6572206973206e6f7420746865206f776e6572600082015250565b6000615b4b60208361422f565b9150615b5682615b15565b602082019050919050565b60006020820190508181036000830152615b7a81615b3e565b9050919050565b6000604082019050615b966000830185613be1565b615ba36020830184613d26565b9392505050565b7f52656c6561736520646174652063616e277420626520657175616c206f72206c60008201527f657373207468616e2063757272656e7420646174652100000000000000000000602082015250565b6000615c0660368361422f565b9150615c1182615baa565b604082019050919050565b60006020820190508181036000830152615c3581615bf9565b9050919050565b7f3000000000000000000000000000000000000000000000000000000000000000600082015250565b6000615c7260018361422f565b9150615c7d82615c3c565b602082019050919050565b60006020820190508181036000830152615ca181615c65565b9050919050565b600081519050615cb7816142d6565b92915050565b600060208284031215615cd357615cd2613b4c565b5b6000615ce184828501615ca8565b91505092915050565b600081519050615cf981613c7c565b92915050565b600060208284031215615d1557615d14613b4c565b5b6000615d2384828501615cea565b91505092915050565b7f5361666545524332303a204552433230206f7065726174696f6e20646964206e60008201527f6f74207375636365656400000000000000000000000000000000000000000000602082015250565b6000615d88602a8361422f565b9150615d9382615d2c565b604082019050919050565b60006020820190508181036000830152615db781615d7b565b9050919050565b7f416464726573733a20696e73756666696369656e742062616c616e636520666f60008201527f722063616c6c0000000000000000000000000000000000000000000000000000602082015250565b6000615e1a60268361422f565b9150615e2582615dbe565b604082019050919050565b60006020820190508181036000830152615e4981615e0d565b9050919050565b7f416464726573733a2063616c6c20746f206e6f6e2d636f6e7472616374000000600082015250565b6000615e86601d8361422f565b9150615e9182615e50565b602082019050919050565b60006020820190508181036000830152615eb581615e79565b9050919050565b600081519050919050565b600081905092915050565b6000615edd82615ebc565b615ee78185615ec7565b9350615ef7818560208601614240565b80840191505092915050565b6000615f0f8284615ed2565b91508190509291505056fea2646970667358221220e7bdb6fd2e3cf76b44bb985b29eced42a7b6724d93eaa0afe45c2cab83b3c48a64736f6c63430008150033",
			"opcodes": "PUSH1 0xA0 PUSH1 0x40 MSTORE CALLVALUE DUP1 ISZERO PUSH3 0x11 JUMPI PUSH1 0x0 DUP1 REVERT JUMPDEST POP PUSH1 0x40 MLOAD PUSH3 0x61D1 CODESIZE SUB DUP1 PUSH3 0x61D1 DUP4 CODECOPY DUP2 DUP2 ADD PUSH1 0x40 MSTORE DUP2 ADD SWAP1 PUSH3 0x37 SWAP2 SWAP1 PUSH3 0x225 JUMP JUMPDEST PUSH3 0x57 PUSH3 0x4B PUSH3 0xDB PUSH1 0x20 SHL PUSH1 0x20 SHR JUMP JUMPDEST PUSH3 0xE3 PUSH1 0x20 SHL PUSH1 0x20 SHR JUMP JUMPDEST DUP1 PUSH20 0xFFFFFFFFFFFFFFFFFFFFFFFFFFFFFFFFFFFFFFFF AND PUSH1 0x80 DUP2 PUSH20 0xFFFFFFFFFFFFFFFFFFFFFFFFFFFFFFFFFFFFFFFF AND DUP2 MSTORE POP POP PUSH1 0x0 PUSH1 0x6 DUP2 SWAP1 SSTORE POP CALLER PUSH1 0x8 PUSH1 0x0 PUSH2 0x100 EXP DUP2 SLOAD DUP2 PUSH20 0xFFFFFFFFFFFFFFFFFFFFFFFFFFFFFFFFFFFFFFFF MUL NOT AND SWAP1 DUP4 PUSH20 0xFFFFFFFFFFFFFFFFFFFFFFFFFFFFFFFFFFFFFFFF AND MUL OR SWAP1 SSTORE POP POP PUSH3 0x257 JUMP JUMPDEST PUSH1 0x0 CALLER SWAP1 POP SWAP1 JUMP JUMPDEST PUSH1 0x0 DUP1 PUSH1 0x0 SWAP1 SLOAD SWAP1 PUSH2 0x100 EXP SWAP1 DIV PUSH20 0xFFFFFFFFFFFFFFFFFFFFFFFFFFFFFFFFFFFFFFFF AND SWAP1 POP DUP2 PUSH1 0x0 DUP1 PUSH2 0x100 EXP DUP2 SLOAD DUP2 PUSH20 0xFFFFFFFFFFFFFFFFFFFFFFFFFFFFFFFFFFFFFFFF MUL NOT AND SWAP1 DUP4 PUSH20 0xFFFFFFFFFFFFFFFFFFFFFFFFFFFFFFFFFFFFFFFF AND MUL OR SWAP1 SSTORE POP DUP2 PUSH20 0xFFFFFFFFFFFFFFFFFFFFFFFFFFFFFFFFFFFFFFFF AND DUP2 PUSH20 0xFFFFFFFFFFFFFFFFFFFFFFFFFFFFFFFFFFFFFFFF AND PUSH32 0x8BE0079C531659141344CD1FD0A4F28419497F9722A3DAAFE3B4186F6B6457E0 PUSH1 0x40 MLOAD PUSH1 0x40 MLOAD DUP1 SWAP2 SUB SWAP1 LOG3 POP POP JUMP JUMPDEST PUSH1 0x0 DUP1 REVERT JUMPDEST PUSH1 0x0 PUSH20 0xFFFFFFFFFFFFFFFFFFFFFFFFFFFFFFFFFFFFFFFF DUP3 AND SWAP1 POP SWAP2 SWAP1 POP JUMP JUMPDEST PUSH1 0x0 PUSH3 0x1D9 DUP3 PUSH3 0x1AC JUMP JUMPDEST SWAP1 POP SWAP2 SWAP1 POP JUMP JUMPDEST PUSH1 0x0 PUSH3 0x1ED DUP3 PUSH3 0x1CC JUMP JUMPDEST SWAP1 POP SWAP2 SWAP1 POP JUMP JUMPDEST PUSH3 0x1FF DUP2 PUSH3 0x1E0 JUMP JUMPDEST DUP2 EQ PUSH3 0x20B JUMPI PUSH1 0x0 DUP1 REVERT JUMPDEST POP JUMP JUMPDEST PUSH1 0x0 DUP2 MLOAD SWAP1 POP PUSH3 0x21F DUP2 PUSH3 0x1F4 JUMP JUMPDEST SWAP3 SWAP2 POP POP JUMP JUMPDEST PUSH1 0x0 PUSH1 0x20 DUP3 DUP5 SUB SLT ISZERO PUSH3 0x23E JUMPI PUSH3 0x23D PUSH3 0x1A7 JUMP JUMPDEST JUMPDEST PUSH1 0x0 PUSH3 0x24E DUP5 DUP3 DUP6 ADD PUSH3 0x20E JUMP JUMPDEST SWAP2 POP POP SWAP3 SWAP2 POP POP JUMP JUMPDEST PUSH1 0x80 MLOAD PUSH2 0x5F50 PUSH3 0x281 PUSH1 0x0 CODECOPY PUSH1 0x0 DUP2 DUP2 PUSH2 0x13C7 ADD MSTORE DUP2 DUP2 PUSH2 0x2097 ADD MSTORE PUSH2 0x2F51 ADD MSTORE PUSH2 0x5F50 PUSH1 0x0 RETURN INVALID PUSH1 0x80 PUSH1 0x40 MSTORE CALLVALUE DUP1 ISZERO PUSH2 0x10 JUMPI PUSH1 0x0 DUP1 REVERT JUMPDEST POP PUSH1 0x4 CALLDATASIZE LT PUSH2 0x1A9 JUMPI PUSH1 0x0 CALLDATALOAD PUSH1 0xE0 SHR DUP1 PUSH4 0x8F26FB7F GT PUSH2 0xF9 JUMPI DUP1 PUSH4 0xC6C599C1 GT PUSH2 0x97 JUMPI DUP1 PUSH4 0xD95660BE GT PUSH2 0x71 JUMPI DUP1 PUSH4 0xD95660BE EQ PUSH2 0x484 JUMPI DUP1 PUSH4 0xF2FDE38B EQ PUSH2 0x4A2 JUMPI DUP1 PUSH4 0xF61EB2D4 EQ PUSH2 0x4BE JUMPI DUP1 PUSH4 0xFC0C546A EQ PUSH2 0x4DA JUMPI PUSH2 0x1A9 JUMP JUMPDEST DUP1 PUSH4 0xC6C599C1 EQ PUSH2 0x418 JUMPI DUP1 PUSH4 0xC9E701AE EQ PUSH2 0x448 JUMPI DUP1 PUSH4 0xCE845D1D EQ PUSH2 0x466 JUMPI PUSH2 0x1A9 JUMP JUMPDEST DUP1 PUSH4 0xA99D38CB GT PUSH2 0xD3 JUMPI DUP1 PUSH4 0xA99D38CB EQ PUSH2 0x392 JUMPI DUP1 PUSH4 0xB347F859 EQ PUSH2 0x3B0 JUMPI DUP1 PUSH4 0xB70B64EC EQ PUSH2 0x3CC JUMPI DUP1 PUSH4 0xC4BE66A1 EQ PUSH2 0x3E8 JUMPI PUSH2 0x1A9 JUMP JUMPDEST DUP1 PUSH4 0x8F26FB7F EQ PUSH2 0x33C JUMPI DUP1 PUSH4 0x9011EDB4 EQ PUSH2 0x358 JUMPI DUP1 PUSH4 0x95D89B41 EQ PUSH2 0x374 JUMPI PUSH2 0x1A9 JUMP JUMPDEST DUP1 PUSH4 0x530A60EF GT PUSH2 0x166 JUMPI DUP1 PUSH4 0x711EC9B5 GT PUSH2 0x140 JUMPI DUP1 PUSH4 0x711EC9B5 EQ PUSH2 0x2C6 JUMPI DUP1 PUSH4 0x715018A6 EQ PUSH2 0x2E4 JUMPI DUP1 PUSH4 0x81008568 EQ PUSH2 0x2EE JUMPI DUP1 PUSH4 0x8DA5CB5B EQ PUSH2 0x31E JUMPI PUSH2 0x1A9 JUMP JUMPDEST DUP1 PUSH4 0x530A60EF EQ PUSH2 0x26E JUMPI DUP1 PUSH4 0x54522364 EQ PUSH2 0x28C JUMPI DUP1 PUSH4 0x70C80F99 EQ PUSH2 0x2A8 JUMPI PUSH2 0x1A9 JUMP JUMPDEST DUP1 PUSH4 0xD43848B EQ PUSH2 0x1AE JUMPI DUP1 PUSH4 0x141A8DD8 EQ PUSH2 0x1DE JUMPI DUP1 PUSH4 0x19165587 EQ PUSH2 0x1FC JUMPI DUP1 PUSH4 0x2380996E EQ PUSH2 0x218 JUMPI DUP1 PUSH4 0x313CE567 EQ PUSH2 0x234 JUMPI DUP1 PUSH4 0x35565972 EQ PUSH2 0x252 JUMPI JUMPDEST PUSH1 0x0 DUP1 REVERT JUMPDEST PUSH2 0x1C8 PUSH1 0x4 DUP1 CALLDATASIZE SUB DUP2 ADD SWAP1 PUSH2 0x1C3 SWAP2 SWAP1 PUSH2 0x3BB4 JUMP JUMPDEST PUSH2 0x4F8 JUMP JUMPDEST PUSH1 0x40 MLOAD PUSH2 0x1D5 SWAP2 SWAP1 PUSH2 0x3BF0 JUMP JUMPDEST PUSH1 0x40 MLOAD DUP1 SWAP2 SUB SWAP1 RETURN JUMPDEST PUSH2 0x1E6 PUSH2 0x637 JUMP JUMPDEST PUSH1 0x40 MLOAD PUSH2 0x1F3 SWAP2 SWAP1 PUSH2 0x3BF0 JUMP JUMPDEST PUSH1 0x40 MLOAD DUP1 SWAP2 SUB SWAP1 RETURN JUMPDEST PUSH2 0x216 PUSH1 0x4 DUP1 CALLDATASIZE SUB DUP2 ADD SWAP1 PUSH2 0x211 SWAP2 SWAP1 PUSH2 0x3BB4 JUMP JUMPDEST PUSH2 0x65D JUMP JUMPDEST STOP JUMPDEST PUSH2 0x232 PUSH1 0x4 DUP1 CALLDATASIZE SUB DUP2 ADD SWAP1 PUSH2 0x22D SWAP2 SWAP1 PUSH2 0x3CA8 JUMP JUMPDEST PUSH2 0xB8D JUMP JUMPDEST STOP JUMPDEST PUSH2 0x23C PUSH2 0x13C3 JUMP JUMPDEST PUSH1 0x40 MLOAD PUSH2 0x249 SWAP2 SWAP1 PUSH2 0x3D35 JUMP JUMPDEST PUSH1 0x40 MLOAD DUP1 SWAP2 SUB SWAP1 RETURN JUMPDEST PUSH2 0x26C PUSH1 0x4 DUP1 CALLDATASIZE SUB DUP2 ADD SWAP1 PUSH2 0x267 SWAP2 SWAP1 PUSH2 0x3DFC JUMP JUMPDEST PUSH2 0x145C JUMP JUMPDEST STOP JUMPDEST PUSH2 0x276 PUSH2 0x1660 JUMP JUMPDEST PUSH1 0x40 MLOAD PUSH2 0x283 SWAP2 SWAP1 PUSH2 0x3F3B JUMP JUMPDEST PUSH1 0x40 MLOAD DUP1 SWAP2 SUB SWAP1 RETURN JUMPDEST PUSH2 0x2A6 PUSH1 0x4 DUP1 CALLDATASIZE SUB DUP2 ADD SWAP1 PUSH2 0x2A1 SWAP2 SWAP1 PUSH2 0x3FB3 JUMP JUMPDEST PUSH2 0x16F6 JUMP JUMPDEST STOP JUMPDEST PUSH2 0x2B0 PUSH2 0x17EF JUMP JUMPDEST PUSH1 0x40 MLOAD PUSH2 0x2BD SWAP2 SWAP1 PUSH2 0x3D35 JUMP JUMPDEST PUSH1 0x40 MLOAD DUP1 SWAP2 SUB SWAP1 RETURN JUMPDEST PUSH2 0x2CE PUSH2 0x1801 JUMP JUMPDEST PUSH1 0x40 MLOAD PUSH2 0x2DB SWAP2 SWAP1 PUSH2 0x3F3B JUMP JUMPDEST PUSH1 0x40 MLOAD DUP1 SWAP2 SUB SWAP1 RETURN JUMPDEST PUSH2 0x2EC PUSH2 0x1897 JUMP JUMPDEST STOP JUMPDEST PUSH2 0x308 PUSH1 0x4 DUP1 CALLDATASIZE SUB DUP2 ADD SWAP1 PUSH2 0x303 SWAP2 SWAP1 PUSH2 0x3BB4 JUMP JUMPDEST PUSH2 0x18DA JUMP JUMPDEST PUSH1 0x40 MLOAD PUSH2 0x315 SWAP2 SWAP1 PUSH2 0x41A2 JUMP JUMPDEST PUSH1 0x40 MLOAD DUP1 SWAP2 SUB SWAP1 RETURN JUMPDEST PUSH2 0x326 PUSH2 0x1AD9 JUMP JUMPDEST PUSH1 0x40 MLOAD PUSH2 0x333 SWAP2 SWAP1 PUSH2 0x3BF0 JUMP JUMPDEST PUSH1 0x40 MLOAD DUP1 SWAP2 SUB SWAP1 RETURN JUMPDEST PUSH2 0x356 PUSH1 0x4 DUP1 CALLDATASIZE SUB DUP2 ADD SWAP1 PUSH2 0x351 SWAP2 SWAP1 PUSH2 0x3BB4 JUMP JUMPDEST PUSH2 0x1B02 JUMP JUMPDEST STOP JUMPDEST PUSH2 0x372 PUSH1 0x4 DUP1 CALLDATASIZE SUB DUP2 ADD SWAP1 PUSH2 0x36D SWAP2 SWAP1 PUSH2 0x41C4 JUMP JUMPDEST PUSH2 0x1B8F JUMP JUMPDEST STOP JUMPDEST PUSH2 0x37C PUSH2 0x2093 JUMP JUMPDEST PUSH1 0x40 MLOAD PUSH2 0x389 SWAP2 SWAP1 PUSH2 0x42B4 JUMP JUMPDEST PUSH1 0x40 MLOAD DUP1 SWAP2 SUB SWAP1 RETURN JUMPDEST PUSH2 0x39A PUSH2 0x212E JUMP JUMPDEST PUSH1 0x40 MLOAD PUSH2 0x3A7 SWAP2 SWAP1 PUSH2 0x3D35 JUMP JUMPDEST PUSH1 0x40 MLOAD DUP1 SWAP2 SUB SWAP1 RETURN JUMPDEST PUSH2 0x3CA PUSH1 0x4 DUP1 CALLDATASIZE SUB DUP2 ADD SWAP1 PUSH2 0x3C5 SWAP2 SWAP1 PUSH2 0x4302 JUMP JUMPDEST PUSH2 0x2145 JUMP JUMPDEST STOP JUMPDEST PUSH2 0x3E6 PUSH1 0x4 DUP1 CALLDATASIZE SUB DUP2 ADD SWAP1 PUSH2 0x3E1 SWAP2 SWAP1 PUSH2 0x3BB4 JUMP JUMPDEST PUSH2 0x2463 JUMP JUMPDEST STOP JUMPDEST PUSH2 0x402 PUSH1 0x4 DUP1 CALLDATASIZE SUB DUP2 ADD SWAP1 PUSH2 0x3FD SWAP2 SWAP1 PUSH2 0x3BB4 JUMP JUMPDEST PUSH2 0x28BA JUMP JUMPDEST PUSH1 0x40 MLOAD PUSH2 0x40F SWAP2 SWAP1 PUSH2 0x4461 JUMP JUMPDEST PUSH1 0x40 MLOAD DUP1 SWAP2 SUB SWAP1 RETURN JUMPDEST PUSH2 0x432 PUSH1 0x4 DUP1 CALLDATASIZE SUB DUP2 ADD SWAP1 PUSH2 0x42D SWAP2 SWAP1 PUSH2 0x3BB4 JUMP JUMPDEST PUSH2 0x2B66 JUMP JUMPDEST PUSH1 0x40 MLOAD PUSH2 0x43F SWAP2 SWAP1 PUSH2 0x4492 JUMP JUMPDEST PUSH1 0x40 MLOAD DUP1 SWAP2 SUB SWAP1 RETURN JUMPDEST PUSH2 0x450 PUSH2 0x2CB9 JUMP JUMPDEST PUSH1 0x40 MLOAD PUSH2 0x45D SWAP2 SWAP1 PUSH2 0x3F3B JUMP JUMPDEST PUSH1 0x40 MLOAD DUP1 SWAP2 SUB SWAP1 RETURN JUMPDEST PUSH2 0x46E PUSH2 0x2D4F JUMP JUMPDEST PUSH1 0x40 MLOAD PUSH2 0x47B SWAP2 SWAP1 PUSH2 0x3D35 JUMP JUMPDEST PUSH1 0x40 MLOAD DUP1 SWAP2 SUB SWAP1 RETURN JUMPDEST PUSH2 0x48C PUSH2 0x2D66 JUMP JUMPDEST PUSH1 0x40 MLOAD PUSH2 0x499 SWAP2 SWAP1 PUSH2 0x3D35 JUMP JUMPDEST PUSH1 0x40 MLOAD DUP1 SWAP2 SUB SWAP1 RETURN JUMPDEST PUSH2 0x4BC PUSH1 0x4 DUP1 CALLDATASIZE SUB DUP2 ADD SWAP1 PUSH2 0x4B7 SWAP2 SWAP1 PUSH2 0x3BB4 JUMP JUMPDEST PUSH2 0x2D6E JUMP JUMPDEST STOP JUMPDEST PUSH2 0x4D8 PUSH1 0x4 DUP1 CALLDATASIZE SUB DUP2 ADD SWAP1 PUSH2 0x4D3 SWAP2 SWAP1 PUSH2 0x3FB3 JUMP JUMPDEST PUSH2 0x2DF1 JUMP JUMPDEST STOP JUMPDEST PUSH2 0x4E2 PUSH2 0x2F4D JUMP JUMPDEST PUSH1 0x40 MLOAD PUSH2 0x4EF SWAP2 SWAP1 PUSH2 0x450C JUMP JUMPDEST PUSH1 0x40 MLOAD DUP1 SWAP2 SUB SWAP1 RETURN JUMPDEST PUSH1 0x0 PUSH2 0x502 PUSH2 0x2F75 JUMP JUMPDEST PUSH1 0x0 PUSH20 0xFFFFFFFFFFFFFFFFFFFFFFFFFFFFFFFFFFFFFFFF AND PUSH1 0x3 PUSH1 0x0 DUP5 PUSH20 0xFFFFFFFFFFFFFFFFFFFFFFFFFFFFFFFFFFFFFFFF AND PUSH20 0xFFFFFFFFFFFFFFFFFFFFFFFFFFFFFFFFFFFFFFFF AND DUP2 MSTORE PUSH1 0x20 ADD SWAP1 DUP2 MSTORE PUSH1 0x20 ADD PUSH1 0x0 KECCAK256 PUSH1 0x0 SWAP1 SLOAD SWAP1 PUSH2 0x100 EXP SWAP1 DIV PUSH20 0xFFFFFFFFFFFFFFFFFFFFFFFFFFFFFFFFFFFFFFFF AND PUSH20 0xFFFFFFFFFFFFFFFFFFFFFFFFFFFFFFFFFFFFFFFF AND SUB PUSH2 0x5D0 JUMPI PUSH1 0x40 MLOAD PUSH32 0x8C379A000000000000000000000000000000000000000000000000000000000 DUP2 MSTORE PUSH1 0x4 ADD PUSH2 0x5C7 SWAP1 PUSH2 0x4573 JUMP JUMPDEST PUSH1 0x40 MLOAD DUP1 SWAP2 SUB SWAP1 REVERT JUMPDEST PUSH1 0x3 PUSH1 0x0 DUP4 PUSH20 0xFFFFFFFFFFFFFFFFFFFFFFFFFFFFFFFFFFFFFFFF AND PUSH20 0xFFFFFFFFFFFFFFFFFFFFFFFFFFFFFFFFFFFFFFFF AND DUP2 MSTORE PUSH1 0x20 ADD SWAP1 DUP2 MSTORE PUSH1 0x20 ADD PUSH1 0x0 KECCAK256 PUSH1 0x0 SWAP1 SLOAD SWAP1 PUSH2 0x100 EXP SWAP1 DIV PUSH20 0xFFFFFFFFFFFFFFFFFFFFFFFFFFFFFFFFFFFFFFFF AND SWAP1 POP SWAP2 SWAP1 POP JUMP JUMPDEST PUSH1 0x8 PUSH1 0x0 SWAP1 SLOAD SWAP1 PUSH2 0x100 EXP SWAP1 DIV PUSH20 0xFFFFFFFFFFFFFFFFFFFFFFFFFFFFFFFFFFFFFFFF AND DUP2 JUMP JUMPDEST PUSH2 0x665 PUSH2 0x1AD9 JUMP JUMPDEST PUSH20 0xFFFFFFFFFFFFFFFFFFFFFFFFFFFFFFFFFFFFFFFF AND CALLER PUSH20 0xFFFFFFFFFFFFFFFFFFFFFFFFFFFFFFFFFFFFFFFF AND EQ DUP1 PUSH2 0x6C9 JUMPI POP DUP1 PUSH20 0xFFFFFFFFFFFFFFFFFFFFFFFFFFFFFFFFFFFFFFFF AND CALLER PUSH20 0xFFFFFFFFFFFFFFFFFFFFFFFFFFFFFFFFFFFFFFFF AND EQ JUMPDEST PUSH2 0x708 JUMPI PUSH1 0x40 MLOAD PUSH32 0x8C379A000000000000000000000000000000000000000000000000000000000 DUP2 MSTORE PUSH1 0x4 ADD PUSH2 0x6FF SWAP1 PUSH2 0x45DF JUMP JUMPDEST PUSH1 0x40 MLOAD DUP1 SWAP2 SUB SWAP1 REVERT JUMPDEST PUSH1 0x0 PUSH1 0x1 PUSH1 0x0 DUP4 PUSH20 0xFFFFFFFFFFFFFFFFFFFFFFFFFFFFFFFFFFFFFFFF AND PUSH20 0xFFFFFFFFFFFFFFFFFFFFFFFFFFFFFFFFFFFFFFFF AND DUP2 MSTORE PUSH1 0x20 ADD SWAP1 DUP2 MSTORE PUSH1 0x20 ADD PUSH1 0x0 KECCAK256 DUP1 SLOAD SWAP1 POP GT PUSH2 0x78D JUMPI PUSH1 0x40 MLOAD PUSH32 0x8C379A000000000000000000000000000000000000000000000000000000000 DUP2 MSTORE PUSH1 0x4 ADD PUSH2 0x784 SWAP1 PUSH2 0x464B JUMP JUMPDEST PUSH1 0x40 MLOAD DUP1 SWAP2 SUB SWAP1 REVERT JUMPDEST PUSH1 0x0 DUP1 PUSH1 0x1 SWAP1 POP PUSH1 0x0 PUSH1 0x1 SWAP1 POP PUSH1 0x0 DUP1 JUMPDEST PUSH1 0x1 PUSH1 0x0 DUP8 PUSH20 0xFFFFFFFFFFFFFFFFFFFFFFFFFFFFFFFFFFFFFFFF AND PUSH20 0xFFFFFFFFFFFFFFFFFFFFFFFFFFFFFFFFFFFFFFFF AND DUP2 MSTORE PUSH1 0x20 ADD SWAP1 DUP2 MSTORE PUSH1 0x20 ADD PUSH1 0x0 KECCAK256 DUP1 SLOAD SWAP1 POP DUP2 LT ISZERO PUSH2 0xB1F JUMPI DUP3 PUSH1 0x1 PUSH1 0x0 DUP9 PUSH20 0xFFFFFFFFFFFFFFFFFFFFFFFFFFFFFFFFFFFFFFFF AND PUSH20 0xFFFFFFFFFFFFFFFFFFFFFFFFFFFFFFFFFFFFFFFF AND DUP2 MSTORE PUSH1 0x20 ADD SWAP1 DUP2 MSTORE PUSH1 0x20 ADD PUSH1 0x0 KECCAK256 DUP3 DUP2 SLOAD DUP2 LT PUSH2 0x83A JUMPI PUSH2 0x839 PUSH2 0x466B JUMP JUMPDEST JUMPDEST SWAP1 PUSH1 0x0 MSTORE PUSH1 0x20 PUSH1 0x0 KECCAK256 SWAP1 PUSH1 0x4 MUL ADD PUSH1 0x2 PUSH1 0x4 DUP2 LT PUSH2 0x85B JUMPI PUSH2 0x85A PUSH2 0x466B JUMP JUMPDEST JUMPDEST ADD SLOAD SUB ISZERO PUSH2 0xB0C JUMPI DUP4 PUSH1 0x1 PUSH1 0x0 DUP9 PUSH20 0xFFFFFFFFFFFFFFFFFFFFFFFFFFFFFFFFFFFFFFFF AND PUSH20 0xFFFFFFFFFFFFFFFFFFFFFFFFFFFFFFFFFFFFFFFF AND DUP2 MSTORE PUSH1 0x20 ADD SWAP1 DUP2 MSTORE PUSH1 0x20 ADD PUSH1 0x0 KECCAK256 DUP3 DUP2 SLOAD DUP2 LT PUSH2 0x8B5 JUMPI PUSH2 0x8B4 PUSH2 0x466B JUMP JUMPDEST JUMPDEST SWAP1 PUSH1 0x0 MSTORE PUSH1 0x20 PUSH1 0x0 KECCAK256 SWAP1 PUSH1 0x4 MUL ADD PUSH1 0x3 PUSH1 0x4 DUP2 LT PUSH2 0x8D6 JUMPI PUSH2 0x8D5 PUSH2 0x466B JUMP JUMPDEST JUMPDEST ADD SLOAD SUB PUSH2 0xB0C JUMPI PUSH2 0x8E5 PUSH2 0x2D66 JUMP JUMPDEST PUSH1 0x1 PUSH1 0x0 DUP9 PUSH20 0xFFFFFFFFFFFFFFFFFFFFFFFFFFFFFFFFFFFFFFFF AND PUSH20 0xFFFFFFFFFFFFFFFFFFFFFFFFFFFFFFFFFFFFFFFF AND DUP2 MSTORE PUSH1 0x20 ADD SWAP1 DUP2 MSTORE PUSH1 0x20 ADD PUSH1 0x0 KECCAK256 DUP3 DUP2 SLOAD DUP2 LT PUSH2 0x936 JUMPI PUSH2 0x935 PUSH2 0x466B JUMP JUMPDEST JUMPDEST SWAP1 PUSH1 0x0 MSTORE PUSH1 0x20 PUSH1 0x0 KECCAK256 SWAP1 PUSH1 0x4 MUL ADD PUSH1 0x1 PUSH1 0x4 DUP2 LT PUSH2 0x957 JUMPI PUSH2 0x956 PUSH2 0x466B JUMP JUMPDEST JUMPDEST ADD SLOAD LT ISZERO PUSH2 0xB1F JUMPI DUP3 PUSH1 0x1 PUSH1 0x0 DUP9 PUSH20 0xFFFFFFFFFFFFFFFFFFFFFFFFFFFFFFFFFFFFFFFF AND PUSH20 0xFFFFFFFFFFFFFFFFFFFFFFFFFFFFFFFFFFFFFFFF AND DUP2 MSTORE PUSH1 0x20 ADD SWAP1 DUP2 MSTORE PUSH1 0x20 ADD PUSH1 0x0 KECCAK256 DUP3 DUP2 SLOAD DUP2 LT PUSH2 0x9B1 JUMPI PUSH2 0x9B0 PUSH2 0x466B JUMP JUMPDEST JUMPDEST SWAP1 PUSH1 0x0 MSTORE PUSH1 0x20 PUSH1 0x0 KECCAK256 SWAP1 PUSH1 0x4 MUL ADD PUSH1 0x2 PUSH1 0x4 DUP2 LT PUSH2 0x9D2 JUMPI PUSH2 0x9D1 PUSH2 0x466B JUMP JUMPDEST JUMPDEST ADD DUP2 SWAP1 SSTORE POP PUSH1 0x1 PUSH1 0x0 DUP8 PUSH20 0xFFFFFFFFFFFFFFFFFFFFFFFFFFFFFFFFFFFFFFFF AND PUSH20 0xFFFFFFFFFFFFFFFFFFFFFFFFFFFFFFFFFFFFFFFF AND DUP2 MSTORE PUSH1 0x20 ADD SWAP1 DUP2 MSTORE PUSH1 0x20 ADD PUSH1 0x0 KECCAK256 DUP2 DUP2 SLOAD DUP2 LT PUSH2 0xA28 JUMPI PUSH2 0xA27 PUSH2 0x466B JUMP JUMPDEST JUMPDEST SWAP1 PUSH1 0x0 MSTORE PUSH1 0x20 PUSH1 0x0 KECCAK256 SWAP1 PUSH1 0x4 MUL ADD PUSH1 0x0 PUSH1 0x4 DUP2 LT PUSH2 0xA49 JUMPI PUSH2 0xA48 PUSH2 0x466B JUMP JUMPDEST JUMPDEST ADD SLOAD DUP3 PUSH2 0xA56 SWAP2 SWAP1 PUSH2 0x46C9 JUMP JUMPDEST SWAP2 POP PUSH2 0xAFD DUP7 PUSH1 0x1 PUSH1 0x0 DUP10 PUSH20 0xFFFFFFFFFFFFFFFFFFFFFFFFFFFFFFFFFFFFFFFF AND PUSH20 0xFFFFFFFFFFFFFFFFFFFFFFFFFFFFFFFFFFFFFFFF AND DUP2 MSTORE PUSH1 0x20 ADD SWAP1 DUP2 MSTORE PUSH1 0x20 ADD PUSH1 0x0 KECCAK256 DUP4 DUP2 SLOAD DUP2 LT PUSH2 0xAAD JUMPI PUSH2 0xAAC PUSH2 0x466B JUMP JUMPDEST JUMPDEST SWAP1 PUSH1 0x0 MSTORE PUSH1 0x20 PUSH1 0x0 KECCAK256 SWAP1 PUSH1 0x4 MUL ADD PUSH1 0x0 PUSH1 0x4 DUP2 LT PUSH2 0xACE JUMPI PUSH2 0xACD PUSH2 0x466B JUMP JUMPDEST JUMPDEST ADD SLOAD PUSH2 0xAD8 PUSH2 0x2F4D JUMP JUMPDEST PUSH20 0xFFFFFFFFFFFFFFFFFFFFFFFFFFFFFFFFFFFFFFFF AND PUSH2 0x2FF3 SWAP1 SWAP3 SWAP2 SWAP1 PUSH4 0xFFFFFFFF AND JUMP JUMPDEST DUP5 DUP1 PUSH2 0xB08 SWAP1 PUSH2 0x46FD JUMP JUMPDEST SWAP6 POP POP JUMPDEST DUP1 DUP1 PUSH2 0xB17 SWAP1 PUSH2 0x46FD JUMP JUMPDEST SWAP2 POP POP PUSH2 0x79E JUMP JUMPDEST POP PUSH1 0x0 DUP2 GT ISZERO PUSH2 0xB43 JUMPI DUP1 PUSH1 0x6 PUSH1 0x0 DUP3 DUP3 SLOAD PUSH2 0xB3B SWAP2 SWAP1 PUSH2 0x4745 JUMP JUMPDEST SWAP3 POP POP DUP2 SWAP1 SSTORE POP JUMPDEST PUSH1 0x0 DUP5 SUB PUSH2 0xB86 JUMPI PUSH1 0x40 MLOAD PUSH32 0x8C379A000000000000000000000000000000000000000000000000000000000 DUP2 MSTORE PUSH1 0x4 ADD PUSH2 0xB7D SWAP1 PUSH2 0x47C5 JUMP JUMPDEST PUSH1 0x40 MLOAD DUP1 SWAP2 SUB SWAP1 REVERT JUMPDEST POP POP POP POP POP JUMP JUMPDEST PUSH2 0xB95 PUSH2 0x2F75 JUMP JUMPDEST PUSH1 0x2 DUP4 DUP4 SWAP1 POP LT ISZERO PUSH2 0xBDC JUMPI PUSH1 0x40 MLOAD PUSH32 0x8C379A000000000000000000000000000000000000000000000000000000000 DUP2 MSTORE PUSH1 0x4 ADD PUSH2 0xBD3 SWAP1 PUSH2 0x4831 JUMP JUMPDEST PUSH1 0x40 MLOAD DUP1 SWAP2 SUB SWAP1 REVERT JUMPDEST PUSH1 0x0 PUSH1 0x1 PUSH1 0x0 DUP7 PUSH20 0xFFFFFFFFFFFFFFFFFFFFFFFFFFFFFFFFFFFFFFFF AND PUSH20 0xFFFFFFFFFFFFFFFFFFFFFFFFFFFFFFFFFFFFFFFF AND DUP2 MSTORE PUSH1 0x20 ADD SWAP1 DUP2 MSTORE PUSH1 0x20 ADD PUSH1 0x0 KECCAK256 DUP1 SLOAD SWAP1 POP GT PUSH2 0xC61 JUMPI PUSH1 0x40 MLOAD PUSH32 0x8C379A000000000000000000000000000000000000000000000000000000000 DUP2 MSTORE PUSH1 0x4 ADD PUSH2 0xC58 SWAP1 PUSH2 0x464B JUMP JUMPDEST PUSH1 0x40 MLOAD DUP1 SWAP2 SUB SWAP1 REVERT JUMPDEST PUSH1 0x0 DUP1 PUSH1 0x0 SWAP1 POP PUSH1 0x0 DUP1 PUSH1 0x1 PUSH1 0x0 DUP10 PUSH20 0xFFFFFFFFFFFFFFFFFFFFFFFFFFFFFFFFFFFFFFFF AND PUSH20 0xFFFFFFFFFFFFFFFFFFFFFFFFFFFFFFFFFFFFFFFF AND DUP2 MSTORE PUSH1 0x20 ADD SWAP1 DUP2 MSTORE PUSH1 0x20 ADD PUSH1 0x0 KECCAK256 DUP1 SLOAD SWAP1 POP SWAP1 POP JUMPDEST PUSH1 0x0 DUP2 GT ISZERO PUSH2 0x1032 JUMPI PUSH1 0x1 DUP2 PUSH2 0xCC7 SWAP2 SWAP1 PUSH2 0x4745 JUMP JUMPDEST SWAP4 POP DUP5 DUP1 ISZERO PUSH2 0xD49 JUMPI POP PUSH1 0x0 PUSH1 0x1 PUSH1 0x0 DUP11 PUSH20 0xFFFFFFFFFFFFFFFFFFFFFFFFFFFFFFFFFFFFFFFF AND PUSH20 0xFFFFFFFFFFFFFFFFFFFFFFFFFFFFFFFFFFFFFFFF AND DUP2 MSTORE PUSH1 0x20 ADD SWAP1 DUP2 MSTORE PUSH1 0x20 ADD PUSH1 0x0 KECCAK256 DUP6 DUP2 SLOAD DUP2 LT PUSH2 0xD24 JUMPI PUSH2 0xD23 PUSH2 0x466B JUMP JUMPDEST JUMPDEST SWAP1 PUSH1 0x0 MSTORE PUSH1 0x20 PUSH1 0x0 KECCAK256 SWAP1 PUSH1 0x4 MUL ADD PUSH1 0x3 PUSH1 0x4 DUP2 LT PUSH2 0xD45 JUMPI PUSH2 0xD44 PUSH2 0x466B JUMP JUMPDEST JUMPDEST ADD SLOAD EQ JUMPDEST ISZERO PUSH2 0xE05 JUMPI DUP3 DUP1 PUSH2 0xD59 SWAP1 PUSH2 0x46FD JUMP JUMPDEST SWAP4 POP POP PUSH1 0x1 PUSH1 0x0 DUP10 PUSH20 0xFFFFFFFFFFFFFFFFFFFFFFFFFFFFFFFFFFFFFFFF AND PUSH20 0xFFFFFFFFFFFFFFFFFFFFFFFFFFFFFFFFFFFFFFFF AND DUP2 MSTORE PUSH1 0x20 ADD SWAP1 DUP2 MSTORE PUSH1 0x20 ADD PUSH1 0x0 KECCAK256 DUP5 DUP2 SLOAD DUP2 LT PUSH2 0xDAD JUMPI PUSH2 0xDAC PUSH2 0x466B JUMP JUMPDEST JUMPDEST SWAP1 PUSH1 0x0 MSTORE PUSH1 0x20 PUSH1 0x0 KECCAK256 SWAP1 PUSH1 0x4 MUL ADD PUSH1 0x0 PUSH1 0x4 DUP2 LT PUSH2 0xDCE JUMPI PUSH2 0xDCD PUSH2 0x466B JUMP JUMPDEST JUMPDEST ADD SLOAD DUP3 PUSH2 0xDDB SWAP2 SWAP1 PUSH2 0x46C9 JUMP JUMPDEST SWAP2 POP DUP7 DUP7 PUSH1 0x40 MLOAD PUSH1 0x20 ADD PUSH2 0xDF0 SWAP3 SWAP2 SWAP1 PUSH2 0x48B6 JUMP JUMPDEST PUSH1 0x40 MLOAD PUSH1 0x20 DUP2 DUP4 SUB SUB DUP2 MSTORE SWAP1 PUSH1 0x40 MSTORE POP PUSH2 0x101F JUMP JUMPDEST PUSH1 0x1 PUSH1 0x0 DUP10 PUSH20 0xFFFFFFFFFFFFFFFFFFFFFFFFFFFFFFFFFFFFFFFF AND PUSH20 0xFFFFFFFFFFFFFFFFFFFFFFFFFFFFFFFFFFFFFFFF AND DUP2 MSTORE PUSH1 0x20 ADD SWAP1 DUP2 MSTORE PUSH1 0x20 ADD PUSH1 0x0 KECCAK256 DUP5 DUP2 SLOAD DUP2 LT PUSH2 0xE56 JUMPI PUSH2 0xE55 PUSH2 0x466B JUMP JUMPDEST JUMPDEST SWAP1 PUSH1 0x0 MSTORE PUSH1 0x20 PUSH1 0x0 KECCAK256 SWAP1 PUSH1 0x4 MUL ADD PUSH1 0x1 PUSH1 0x4 DUP2 LT PUSH2 0xE77 JUMPI PUSH2 0xE76 PUSH2 0x466B JUMP JUMPDEST JUMPDEST ADD SLOAD PUSH2 0xE81 PUSH2 0x2D66 JUMP JUMPDEST LT DUP1 ISZERO PUSH2 0xF01 JUMPI POP PUSH1 0x0 PUSH1 0x1 PUSH1 0x0 DUP11 PUSH20 0xFFFFFFFFFFFFFFFFFFFFFFFFFFFFFFFFFFFFFFFF AND PUSH20 0xFFFFFFFFFFFFFFFFFFFFFFFFFFFFFFFFFFFFFFFF AND DUP2 MSTORE PUSH1 0x20 ADD SWAP1 DUP2 MSTORE PUSH1 0x20 ADD PUSH1 0x0 KECCAK256 DUP6 DUP2 SLOAD DUP2 LT PUSH2 0xEDC JUMPI PUSH2 0xEDB PUSH2 0x466B JUMP JUMPDEST JUMPDEST SWAP1 PUSH1 0x0 MSTORE PUSH1 0x20 PUSH1 0x0 KECCAK256 SWAP1 PUSH1 0x4 MUL ADD PUSH1 0x2 PUSH1 0x4 DUP2 LT PUSH2 0xEFD JUMPI PUSH2 0xEFC PUSH2 0x466B JUMP JUMPDEST JUMPDEST ADD SLOAD EQ JUMPDEST DUP1 ISZERO PUSH2 0xF80 JUMPI POP PUSH1 0x0 PUSH1 0x1 PUSH1 0x0 DUP11 PUSH20 0xFFFFFFFFFFFFFFFFFFFFFFFFFFFFFFFFFFFFFFFF AND PUSH20 0xFFFFFFFFFFFFFFFFFFFFFFFFFFFFFFFFFFFFFFFF AND DUP2 MSTORE PUSH1 0x20 ADD SWAP1 DUP2 MSTORE PUSH1 0x20 ADD PUSH1 0x0 KECCAK256 DUP6 DUP2 SLOAD DUP2 LT PUSH2 0xF5B JUMPI PUSH2 0xF5A PUSH2 0x466B JUMP JUMPDEST JUMPDEST SWAP1 PUSH1 0x0 MSTORE PUSH1 0x20 PUSH1 0x0 KECCAK256 SWAP1 PUSH1 0x4 MUL ADD PUSH1 0x3 PUSH1 0x4 DUP2 LT PUSH2 0xF7C JUMPI PUSH2 0xF7B PUSH2 0x466B JUMP JUMPDEST JUMPDEST ADD SLOAD EQ JUMPDEST ISZERO PUSH2 0x1019 JUMPI DUP3 DUP1 PUSH2 0xF90 SWAP1 PUSH2 0x46FD JUMP JUMPDEST SWAP4 POP POP PUSH1 0x1 PUSH1 0x0 DUP10 PUSH20 0xFFFFFFFFFFFFFFFFFFFFFFFFFFFFFFFFFFFFFFFF AND PUSH20 0xFFFFFFFFFFFFFFFFFFFFFFFFFFFFFFFFFFFFFFFF AND DUP2 MSTORE PUSH1 0x20 ADD SWAP1 DUP2 MSTORE PUSH1 0x20 ADD PUSH1 0x0 KECCAK256 DUP5 DUP2 SLOAD DUP2 LT PUSH2 0xFE4 JUMPI PUSH2 0xFE3 PUSH2 0x466B JUMP JUMPDEST JUMPDEST SWAP1 PUSH1 0x0 MSTORE PUSH1 0x20 PUSH1 0x0 KECCAK256 SWAP1 PUSH1 0x4 MUL ADD PUSH1 0x0 PUSH1 0x4 DUP2 LT PUSH2 0x1005 JUMPI PUSH2 0x1004 PUSH2 0x466B JUMP JUMPDEST JUMPDEST ADD SLOAD DUP3 PUSH2 0x1012 SWAP2 SWAP1 PUSH2 0x46C9 JUMP JUMPDEST SWAP2 POP PUSH2 0x101E JUMP JUMPDEST PUSH2 0x1032 JUMP JUMPDEST JUMPDEST DUP1 DUP1 PUSH2 0x102A SWAP1 PUSH2 0x48DE JUMP JUMPDEST SWAP2 POP POP PUSH2 0xCB1 JUMP JUMPDEST POP PUSH1 0x0 DUP3 GT PUSH2 0x1076 JUMPI PUSH1 0x40 MLOAD PUSH32 0x8C379A000000000000000000000000000000000000000000000000000000000 DUP2 MSTORE PUSH1 0x4 ADD PUSH2 0x106D SWAP1 PUSH2 0x4953 JUMP JUMPDEST PUSH1 0x40 MLOAD DUP1 SWAP2 SUB SWAP1 REVERT JUMPDEST DUP1 PUSH1 0x6 PUSH1 0x0 DUP3 DUP3 SLOAD PUSH2 0x1088 SWAP2 SWAP1 PUSH2 0x4745 JUMP JUMPDEST SWAP3 POP POP DUP2 SWAP1 SSTORE POP PUSH1 0x2 PUSH1 0x0 DUP9 PUSH20 0xFFFFFFFFFFFFFFFFFFFFFFFFFFFFFFFFFFFFFFFF AND PUSH20 0xFFFFFFFFFFFFFFFFFFFFFFFFFFFFFFFFFFFFFFFF AND DUP2 MSTORE PUSH1 0x20 ADD SWAP1 DUP2 MSTORE PUSH1 0x20 ADD PUSH1 0x0 KECCAK256 DUP7 DUP7 SWAP1 SWAP2 DUP1 PUSH1 0x1 DUP2 SLOAD ADD DUP1 DUP3 SSTORE DUP1 SWAP2 POP POP PUSH1 0x1 SWAP1 SUB SWAP1 PUSH1 0x0 MSTORE PUSH1 0x20 PUSH1 0x0 KECCAK256 ADD PUSH1 0x0 SWAP1 SWAP2 SWAP3 SWAP1 SWAP2 SWAP3 SWAP1 SWAP2 SWAP3 SWAP1 SWAP2 SWAP3 POP SWAP2 DUP3 PUSH2 0x1109 SWAP3 SWAP2 SWAP1 PUSH2 0x4BAF JUMP JUMPDEST POP PUSH2 0x1115 DUP8 PUSH1 0x5 PUSH2 0x3079 JUMP JUMPDEST PUSH32 0x6D904FF1D589BD5804F3FF7C58759BE40DA60548BBF00C1CA5C9E8EF8E54C5E8 DUP2 PUSH1 0x40 MLOAD PUSH2 0x1144 SWAP2 SWAP1 PUSH2 0x3D35 JUMP JUMPDEST PUSH1 0x40 MLOAD DUP1 SWAP2 SUB SWAP1 LOG1 JUMPDEST PUSH1 0x0 DUP3 GT ISZERO PUSH2 0x11DA JUMPI PUSH1 0x1 PUSH1 0x0 DUP9 PUSH20 0xFFFFFFFFFFFFFFFFFFFFFFFFFFFFFFFFFFFFFFFF AND PUSH20 0xFFFFFFFFFFFFFFFFFFFFFFFFFFFFFFFFFFFFFFFF AND DUP2 MSTORE PUSH1 0x20 ADD SWAP1 DUP2 MSTORE PUSH1 0x20 ADD PUSH1 0x0 KECCAK256 DUP1 SLOAD DUP1 PUSH2 0x11A5 JUMPI PUSH2 0x11A4 PUSH2 0x4C7F JUMP JUMPDEST JUMPDEST PUSH1 0x1 SWAP1 SUB DUP2 DUP2 SWAP1 PUSH1 0x0 MSTORE PUSH1 0x20 PUSH1 0x0 KECCAK256 SWAP1 PUSH1 0x4 MUL ADD PUSH1 0x0 PUSH2 0x11C5 SWAP2 SWAP1 PUSH2 0x3999 JUMP JUMPDEST SWAP1 SSTORE DUP2 DUP1 PUSH2 0x11D2 SWAP1 PUSH2 0x48DE JUMP JUMPDEST SWAP3 POP POP PUSH2 0x114D JUMP JUMPDEST PUSH1 0x0 PUSH1 0x1 PUSH1 0x0 DUP10 PUSH20 0xFFFFFFFFFFFFFFFFFFFFFFFFFFFFFFFFFFFFFFFF AND PUSH20 0xFFFFFFFFFFFFFFFFFFFFFFFFFFFFFFFFFFFFFFFF AND DUP2 MSTORE PUSH1 0x20 ADD SWAP1 DUP2 MSTORE PUSH1 0x20 ADD PUSH1 0x0 KECCAK256 DUP1 SLOAD SWAP1 POP SUB PUSH2 0x13BA JUMPI PUSH1 0x1 PUSH1 0x0 DUP9 PUSH20 0xFFFFFFFFFFFFFFFFFFFFFFFFFFFFFFFFFFFFFFFF AND PUSH20 0xFFFFFFFFFFFFFFFFFFFFFFFFFFFFFFFFFFFFFFFF AND DUP2 MSTORE PUSH1 0x20 ADD SWAP1 DUP2 MSTORE PUSH1 0x20 ADD PUSH1 0x0 KECCAK256 PUSH1 0x0 PUSH2 0x126F SWAP2 SWAP1 PUSH2 0x39B5 JUMP JUMPDEST PUSH1 0x0 PUSH1 0x7 DUP1 SLOAD DUP1 PUSH1 0x20 MUL PUSH1 0x20 ADD PUSH1 0x40 MLOAD SWAP1 DUP2 ADD PUSH1 0x40 MSTORE DUP1 SWAP3 SWAP2 SWAP1 DUP2 DUP2 MSTORE PUSH1 0x20 ADD DUP3 DUP1 SLOAD DUP1 ISZERO PUSH2 0x12F3 JUMPI PUSH1 0x20 MUL DUP3 ADD SWAP2 SWAP1 PUSH1 0x0 MSTORE PUSH1 0x20 PUSH1 0x0 KECCAK256 SWAP1 JUMPDEST DUP2 PUSH1 0x0 SWAP1 SLOAD SWAP1 PUSH2 0x100 EXP SWAP1 DIV PUSH20 0xFFFFFFFFFFFFFFFFFFFFFFFFFFFFFFFFFFFFFFFF AND PUSH20 0xFFFFFFFFFFFFFFFFFFFFFFFFFFFFFFFFFFFFFFFF AND DUP2 MSTORE PUSH1 0x20 ADD SWAP1 PUSH1 0x1 ADD SWAP1 DUP1 DUP4 GT PUSH2 0x12A9 JUMPI JUMPDEST POP POP POP POP POP SWAP1 POP PUSH1 0x0 JUMPDEST PUSH1 0x7 DUP1 SLOAD SWAP1 POP DUP2 LT ISZERO PUSH2 0x13A0 JUMPI PUSH1 0x7 DUP2 DUP2 SLOAD DUP2 LT PUSH2 0x131E JUMPI PUSH2 0x131D PUSH2 0x466B JUMP JUMPDEST JUMPDEST SWAP1 PUSH1 0x0 MSTORE PUSH1 0x20 PUSH1 0x0 KECCAK256 ADD PUSH1 0x0 SWAP1 SLOAD SWAP1 PUSH2 0x100 EXP SWAP1 DIV PUSH20 0xFFFFFFFFFFFFFFFFFFFFFFFFFFFFFFFFFFFFFFFF AND PUSH20 0xFFFFFFFFFFFFFFFFFFFFFFFFFFFFFFFFFFFFFFFF AND DUP10 PUSH20 0xFFFFFFFFFFFFFFFFFFFFFFFFFFFFFFFFFFFFFFFF AND SUB PUSH2 0x138D JUMPI PUSH2 0x1386 DUP2 PUSH1 0x7 PUSH2 0x3183 JUMP JUMPDEST SWAP2 POP PUSH2 0x13A0 JUMP JUMPDEST DUP1 DUP1 PUSH2 0x1398 SWAP1 PUSH2 0x46FD JUMP JUMPDEST SWAP2 POP POP PUSH2 0x12FD JUMP JUMPDEST POP DUP1 PUSH1 0x7 SWAP1 DUP1 MLOAD SWAP1 PUSH1 0x20 ADD SWAP1 PUSH2 0x13B7 SWAP3 SWAP2 SWAP1 PUSH2 0x39D9 JUMP JUMPDEST POP POP JUMPDEST POP POP POP POP POP POP POP JUMP JUMPDEST PUSH1 0x0 PUSH32 0x0 PUSH20 0xFFFFFFFFFFFFFFFFFFFFFFFFFFFFFFFFFFFFFFFF AND PUSH4 0x313CE567 PUSH1 0x40 MLOAD DUP2 PUSH4 0xFFFFFFFF AND PUSH1 0xE0 SHL DUP2 MSTORE PUSH1 0x4 ADD PUSH1 0x20 PUSH1 0x40 MLOAD DUP1 DUP4 SUB DUP2 DUP7 GAS STATICCALL ISZERO DUP1 ISZERO PUSH2 0x1430 JUMPI RETURNDATASIZE PUSH1 0x0 DUP1 RETURNDATACOPY RETURNDATASIZE PUSH1 0x0 REVERT JUMPDEST POP POP POP POP PUSH1 0x40 MLOAD RETURNDATASIZE PUSH1 0x1F NOT PUSH1 0x1F DUP3 ADD AND DUP3 ADD DUP1 PUSH1 0x40 MSTORE POP DUP2 ADD SWAP1 PUSH2 0x1454 SWAP2 SWAP1 PUSH2 0x4CE7 JUMP JUMPDEST PUSH1 0xFF AND SWAP1 POP SWAP1 JUMP JUMPDEST PUSH1 0x8 PUSH1 0x0 SWAP1 SLOAD SWAP1 PUSH2 0x100 EXP SWAP1 DIV PUSH20 0xFFFFFFFFFFFFFFFFFFFFFFFFFFFFFFFFFFFFFFFF AND PUSH20 0xFFFFFFFFFFFFFFFFFFFFFFFFFFFFFFFFFFFFFFFF AND CALLER PUSH20 0xFFFFFFFFFFFFFFFFFFFFFFFFFFFFFFFFFFFFFFFF AND EQ PUSH2 0x14EC JUMPI PUSH1 0x40 MLOAD PUSH32 0x8C379A000000000000000000000000000000000000000000000000000000000 DUP2 MSTORE PUSH1 0x4 ADD PUSH2 0x14E3 SWAP1 PUSH2 0x4D86 JUMP JUMPDEST PUSH1 0x40 MLOAD DUP1 SWAP2 SUB SWAP1 REVERT JUMPDEST PUSH1 0x0 DUP5 DUP5 SWAP1 POP GT PUSH2 0x1532 JUMPI PUSH1 0x40 MLOAD PUSH32 0x8C379A000000000000000000000000000000000000000000000000000000000 DUP2 MSTORE PUSH1 0x4 ADD PUSH2 0x1529 SWAP1 PUSH2 0x4E18 JUMP JUMPDEST PUSH1 0x40 MLOAD DUP1 SWAP2 SUB SWAP1 REVERT JUMPDEST DUP4 DUP4 SWAP1 POP DUP3 DUP3 SWAP1 POP EQ PUSH2 0x157A JUMPI PUSH1 0x40 MLOAD PUSH32 0x8C379A000000000000000000000000000000000000000000000000000000000 DUP2 MSTORE PUSH1 0x4 ADD PUSH2 0x1571 SWAP1 PUSH2 0x4EAA JUMP JUMPDEST PUSH1 0x40 MLOAD DUP1 SWAP2 SUB SWAP1 REVERT JUMPDEST PUSH1 0x0 JUMPDEST DUP5 DUP5 SWAP1 POP DUP2 LT ISZERO PUSH2 0x1659 JUMPI PUSH1 0x0 DUP4 DUP4 DUP4 DUP2 DUP2 LT PUSH2 0x159D JUMPI PUSH2 0x159C PUSH2 0x466B JUMP JUMPDEST JUMPDEST SWAP1 POP PUSH1 0x20 MUL DUP2 ADD SWAP1 PUSH2 0x15AF SWAP2 SWAP1 PUSH2 0x4ED9 JUMP JUMPDEST SWAP1 POP GT PUSH2 0x15F1 JUMPI PUSH1 0x40 MLOAD PUSH32 0x8C379A000000000000000000000000000000000000000000000000000000000 DUP2 MSTORE PUSH1 0x4 ADD PUSH2 0x15E8 SWAP1 PUSH2 0x4FAE JUMP JUMPDEST PUSH1 0x40 MLOAD DUP1 SWAP2 SUB SWAP1 REVERT JUMPDEST PUSH2 0x1646 DUP6 DUP6 DUP4 DUP2 DUP2 LT PUSH2 0x1607 JUMPI PUSH2 0x1606 PUSH2 0x466B JUMP JUMPDEST JUMPDEST SWAP1 POP PUSH1 0x20 MUL ADD PUSH1 0x20 DUP2 ADD SWAP1 PUSH2 0x161C SWAP2 SWAP1 PUSH2 0x3BB4 JUMP JUMPDEST DUP5 DUP5 DUP5 DUP2 DUP2 LT PUSH2 0x162F JUMPI PUSH2 0x162E PUSH2 0x466B JUMP JUMPDEST JUMPDEST SWAP1 POP PUSH1 0x20 MUL DUP2 ADD SWAP1 PUSH2 0x1641 SWAP2 SWAP1 PUSH2 0x4ED9 JUMP JUMPDEST PUSH2 0x1B8F JUMP JUMPDEST DUP1 DUP1 PUSH2 0x1651 SWAP1 PUSH2 0x46FD JUMP JUMPDEST SWAP2 POP POP PUSH2 0x157D JUMP JUMPDEST POP POP POP POP POP JUMP JUMPDEST PUSH1 0x60 PUSH2 0x166A PUSH2 0x2F75 JUMP JUMPDEST PUSH1 0x4 DUP1 SLOAD DUP1 PUSH1 0x20 MUL PUSH1 0x20 ADD PUSH1 0x40 MLOAD SWAP1 DUP2 ADD PUSH1 0x40 MSTORE DUP1 SWAP3 SWAP2 SWAP1 DUP2 DUP2 MSTORE PUSH1 0x20 ADD DUP3 DUP1 SLOAD DUP1 ISZERO PUSH2 0x16EC JUMPI PUSH1 0x20 MUL DUP3 ADD SWAP2 SWAP1 PUSH1 0x0 MSTORE PUSH1 0x20 PUSH1 0x0 KECCAK256 SWAP1 JUMPDEST DUP2 PUSH1 0x0 SWAP1 SLOAD SWAP1 PUSH2 0x100 EXP SWAP1 DIV PUSH20 0xFFFFFFFFFFFFFFFFFFFFFFFFFFFFFFFFFFFFFFFF AND PUSH20 0xFFFFFFFFFFFFFFFFFFFFFFFFFFFFFFFFFFFFFFFF AND DUP2 MSTORE PUSH1 0x20 ADD SWAP1 PUSH1 0x1 ADD SWAP1 DUP1 DUP4 GT PUSH2 0x16A2 JUMPI JUMPDEST POP POP POP POP POP SWAP1 POP SWAP1 JUMP JUMPDEST PUSH2 0x16FE PUSH2 0x2F75 JUMP JUMPDEST DUP2 DUP2 SWAP1 POP DUP5 DUP5 SWAP1 POP EQ DUP1 ISZERO PUSH2 0x1717 JUMPI POP PUSH1 0x1 DUP5 DUP5 SWAP1 POP LT ISZERO JUMPDEST PUSH2 0x1756 JUMPI PUSH1 0x40 MLOAD PUSH32 0x8C379A000000000000000000000000000000000000000000000000000000000 DUP2 MSTORE PUSH1 0x4 ADD PUSH2 0x174D SWAP1 PUSH2 0x501A JUMP JUMPDEST PUSH1 0x40 MLOAD DUP1 SWAP2 SUB SWAP1 REVERT JUMPDEST PUSH1 0x0 PUSH1 0x1 PUSH1 0x0 DUP8 PUSH20 0xFFFFFFFFFFFFFFFFFFFFFFFFFFFFFFFFFFFFFFFF AND PUSH20 0xFFFFFFFFFFFFFFFFFFFFFFFFFFFFFFFFFFFFFFFF AND DUP2 MSTORE PUSH1 0x20 ADD SWAP1 DUP2 MSTORE PUSH1 0x20 ADD PUSH1 0x0 KECCAK256 DUP1 SLOAD SWAP1 POP GT PUSH2 0x17DB JUMPI PUSH1 0x40 MLOAD PUSH32 0x8C379A000000000000000000000000000000000000000000000000000000000 DUP2 MSTORE PUSH1 0x4 ADD PUSH2 0x17D2 SWAP1 PUSH2 0x464B JUMP JUMPDEST PUSH1 0x40 MLOAD DUP1 SWAP2 SUB SWAP1 REVERT JUMPDEST PUSH2 0x17E8 DUP6 DUP6 DUP6 DUP6 DUP6 PUSH2 0x3330 JUMP JUMPDEST POP POP POP POP POP JUMP JUMPDEST PUSH1 0x0 PUSH2 0x17F9 PUSH2 0x2F75 JUMP JUMPDEST PUSH1 0x6 SLOAD SWAP1 POP SWAP1 JUMP JUMPDEST PUSH1 0x60 PUSH2 0x180B PUSH2 0x2F75 JUMP JUMPDEST PUSH1 0x7 DUP1 SLOAD DUP1 PUSH1 0x20 MUL PUSH1 0x20 ADD PUSH1 0x40 MLOAD SWAP1 DUP2 ADD PUSH1 0x40 MSTORE DUP1 SWAP3 SWAP2 SWAP1 DUP2 DUP2 MSTORE PUSH1 0x20 ADD DUP3 DUP1 SLOAD DUP1 ISZERO PUSH2 0x188D JUMPI PUSH1 0x20 MUL DUP3 ADD SWAP2 SWAP1 PUSH1 0x0 MSTORE PUSH1 0x20 PUSH1 0x0 KECCAK256 SWAP1 JUMPDEST DUP2 PUSH1 0x0 SWAP1 SLOAD SWAP1 PUSH2 0x100 EXP SWAP1 DIV PUSH20 0xFFFFFFFFFFFFFFFFFFFFFFFFFFFFFFFFFFFFFFFF AND PUSH20 0xFFFFFFFFFFFFFFFFFFFFFFFFFFFFFFFFFFFFFFFF AND DUP2 MSTORE PUSH1 0x20 ADD SWAP1 PUSH1 0x1 ADD SWAP1 DUP1 DUP4 GT PUSH2 0x1843 JUMPI JUMPDEST POP POP POP POP POP SWAP1 POP SWAP1 JUMP JUMPDEST PUSH2 0x189F PUSH2 0x2F75 JUMP JUMPDEST PUSH1 0x40 MLOAD PUSH32 0x8C379A000000000000000000000000000000000000000000000000000000000 DUP2 MSTORE PUSH1 0x4 ADD PUSH2 0x18D1 SWAP1 PUSH2 0x50AC JUMP JUMPDEST PUSH1 0x40 MLOAD DUP1 SWAP2 SUB SWAP1 REVERT JUMPDEST PUSH1 0x60 PUSH2 0x18E4 PUSH2 0x1AD9 JUMP JUMPDEST PUSH20 0xFFFFFFFFFFFFFFFFFFFFFFFFFFFFFFFFFFFFFFFF AND CALLER PUSH20 0xFFFFFFFFFFFFFFFFFFFFFFFFFFFFFFFFFFFFFFFF AND EQ DUP1 PUSH2 0x1948 JUMPI POP DUP2 PUSH20 0xFFFFFFFFFFFFFFFFFFFFFFFFFFFFFFFFFFFFFFFF AND CALLER PUSH20 0xFFFFFFFFFFFFFFFFFFFFFFFFFFFFFFFFFFFFFFFF AND EQ JUMPDEST PUSH2 0x1987 JUMPI PUSH1 0x40 MLOAD PUSH32 0x8C379A000000000000000000000000000000000000000000000000000000000 DUP2 MSTORE PUSH1 0x4 ADD PUSH2 0x197E SWAP1 PUSH2 0x5118 JUMP JUMPDEST PUSH1 0x40 MLOAD DUP1 SWAP2 SUB SWAP1 REVERT JUMPDEST PUSH1 0x0 PUSH1 0x1 PUSH1 0x0 DUP5 PUSH20 0xFFFFFFFFFFFFFFFFFFFFFFFFFFFFFFFFFFFFFFFF AND PUSH20 0xFFFFFFFFFFFFFFFFFFFFFFFFFFFFFFFFFFFFFFFF AND DUP2 MSTORE PUSH1 0x20 ADD SWAP1 DUP2 MSTORE PUSH1 0x20 ADD PUSH1 0x0 KECCAK256 DUP1 SLOAD SWAP1 POP GT PUSH2 0x1A0C JUMPI PUSH1 0x40 MLOAD PUSH32 0x8C379A000000000000000000000000000000000000000000000000000000000 DUP2 MSTORE PUSH1 0x4 ADD PUSH2 0x1A03 SWAP1 PUSH2 0x464B JUMP JUMPDEST PUSH1 0x40 MLOAD DUP1 SWAP2 SUB SWAP1 REVERT JUMPDEST PUSH1 0x1 PUSH1 0x0 DUP4 PUSH20 0xFFFFFFFFFFFFFFFFFFFFFFFFFFFFFFFFFFFFFFFF AND PUSH20 0xFFFFFFFFFFFFFFFFFFFFFFFFFFFFFFFFFFFFFFFF AND DUP2 MSTORE PUSH1 0x20 ADD SWAP1 DUP2 MSTORE PUSH1 0x20 ADD PUSH1 0x0 KECCAK256 DUP1 SLOAD DUP1 PUSH1 0x20 MUL PUSH1 0x20 ADD PUSH1 0x40 MLOAD SWAP1 DUP2 ADD PUSH1 0x40 MSTORE DUP1 SWAP3 SWAP2 SWAP1 DUP2 DUP2 MSTORE PUSH1 0x20 ADD PUSH1 0x0 SWAP1 JUMPDEST DUP3 DUP3 LT ISZERO PUSH2 0x1ACE JUMPI DUP4 DUP3 SWAP1 PUSH1 0x0 MSTORE PUSH1 0x20 PUSH1 0x0 KECCAK256 SWAP1 PUSH1 0x4 MUL ADD PUSH1 0x4 DUP1 PUSH1 0x20 MUL PUSH1 0x40 MLOAD SWAP1 DUP2 ADD PUSH1 0x40 MSTORE DUP1 SWAP3 SWAP2 SWAP1 DUP3 PUSH1 0x4 DUP1 ISZERO PUSH2 0x1ABA JUMPI PUSH1 0x20 MUL DUP3 ADD SWAP2 JUMPDEST DUP2 SLOAD DUP2 MSTORE PUSH1 0x20 ADD SWAP1 PUSH1 0x1 ADD SWAP1 DUP1 DUP4 GT PUSH2 0x1AA6 JUMPI JUMPDEST POP POP POP POP POP DUP2 MSTORE PUSH1 0x20 ADD SWAP1 PUSH1 0x1 ADD SWAP1 PUSH2 0x1A6B JUMP JUMPDEST POP POP POP POP SWAP1 POP SWAP2 SWAP1 POP JUMP JUMPDEST PUSH1 0x0 DUP1 PUSH1 0x0 SWAP1 SLOAD SWAP1 PUSH2 0x100 EXP SWAP1 DIV PUSH20 0xFFFFFFFFFFFFFFFFFFFFFFFFFFFFFFFFFFFFFFFF AND SWAP1 POP SWAP1 JUMP JUMPDEST PUSH2 0x1B0A PUSH2 0x2F75 JUMP JUMPDEST PUSH1 0x0 PUSH2 0x1B14 PUSH2 0x355A JUMP JUMPDEST SWAP1 POP PUSH1 0x0 DUP2 GT PUSH2 0x1B59 JUMPI PUSH1 0x40 MLOAD PUSH32 0x8C379A000000000000000000000000000000000000000000000000000000000 DUP2 MSTORE PUSH1 0x4 ADD PUSH2 0x1B50 SWAP1 PUSH2 0x5184 JUMP JUMPDEST PUSH1 0x40 MLOAD DUP1 SWAP2 SUB SWAP1 REVERT JUMPDEST PUSH2 0x1B8B DUP3 DUP3 PUSH2 0x1B66 PUSH2 0x2F4D JUMP JUMPDEST PUSH20 0xFFFFFFFFFFFFFFFFFFFFFFFFFFFFFFFFFFFFFFFF AND PUSH2 0x2FF3 SWAP1 SWAP3 SWAP2 SWAP1 PUSH4 0xFFFFFFFF AND JUMP JUMPDEST POP POP JUMP JUMPDEST PUSH1 0x8 PUSH1 0x0 SWAP1 SLOAD SWAP1 PUSH2 0x100 EXP SWAP1 DIV PUSH20 0xFFFFFFFFFFFFFFFFFFFFFFFFFFFFFFFFFFFFFFFF AND PUSH20 0xFFFFFFFFFFFFFFFFFFFFFFFFFFFFFFFFFFFFFFFF AND CALLER PUSH20 0xFFFFFFFFFFFFFFFFFFFFFFFFFFFFFFFFFFFFFFFF AND EQ PUSH2 0x1C1F JUMPI PUSH1 0x40 MLOAD PUSH32 0x8C379A000000000000000000000000000000000000000000000000000000000 DUP2 MSTORE PUSH1 0x4 ADD PUSH2 0x1C16 SWAP1 PUSH2 0x4D86 JUMP JUMPDEST PUSH1 0x40 MLOAD DUP1 SWAP2 SUB SWAP1 REVERT JUMPDEST PUSH1 0x0 DUP3 DUP3 SWAP1 POP GT PUSH2 0x1C65 JUMPI PUSH1 0x40 MLOAD PUSH32 0x8C379A000000000000000000000000000000000000000000000000000000000 DUP2 MSTORE PUSH1 0x4 ADD PUSH2 0x1C5C SWAP1 PUSH2 0x5216 JUMP JUMPDEST PUSH1 0x40 MLOAD DUP1 SWAP2 SUB SWAP1 REVERT JUMPDEST PUSH1 0x0 PUSH1 0x1 PUSH1 0x0 DUP6 PUSH20 0xFFFFFFFFFFFFFFFFFFFFFFFFFFFFFFFFFFFFFFFF AND PUSH20 0xFFFFFFFFFFFFFFFFFFFFFFFFFFFFFFFFFFFFFFFF AND DUP2 MSTORE PUSH1 0x20 ADD SWAP1 DUP2 MSTORE PUSH1 0x20 ADD PUSH1 0x0 KECCAK256 DUP1 SLOAD SWAP1 POP GT PUSH2 0x1CEA JUMPI PUSH1 0x40 MLOAD PUSH32 0x8C379A000000000000000000000000000000000000000000000000000000000 DUP2 MSTORE PUSH1 0x4 ADD PUSH2 0x1CE1 SWAP1 PUSH2 0x464B JUMP JUMPDEST PUSH1 0x40 MLOAD DUP1 SWAP2 SUB SWAP1 REVERT JUMPDEST DUP2 DUP2 SWAP1 POP PUSH1 0x1 PUSH1 0x0 DUP6 PUSH20 0xFFFFFFFFFFFFFFFFFFFFFFFFFFFFFFFFFFFFFFFF AND PUSH20 0xFFFFFFFFFFFFFFFFFFFFFFFFFFFFFFFFFFFFFFFF AND DUP2 MSTORE PUSH1 0x20 ADD SWAP1 DUP2 MSTORE PUSH1 0x20 ADD PUSH1 0x0 KECCAK256 DUP1 SLOAD SWAP1 POP LT ISZERO PUSH2 0x1D72 JUMPI PUSH1 0x40 MLOAD PUSH32 0x8C379A000000000000000000000000000000000000000000000000000000000 DUP2 MSTORE PUSH1 0x4 ADD PUSH2 0x1D69 SWAP1 PUSH2 0x5282 JUMP JUMPDEST PUSH1 0x40 MLOAD DUP1 SWAP2 SUB SWAP1 REVERT JUMPDEST PUSH1 0x0 JUMPDEST DUP3 DUP3 SWAP1 POP DUP2 LT ISZERO PUSH2 0x208D JUMPI PUSH1 0x1 PUSH1 0x0 DUP6 PUSH20 0xFFFFFFFFFFFFFFFFFFFFFFFFFFFFFFFFFFFFFFFF AND PUSH20 0xFFFFFFFFFFFFFFFFFFFFFFFFFFFFFFFFFFFFFFFF AND DUP2 MSTORE PUSH1 0x20 ADD SWAP1 DUP2 MSTORE PUSH1 0x20 ADD PUSH1 0x0 KECCAK256 DUP1 SLOAD SWAP1 POP DUP4 DUP4 DUP4 DUP2 DUP2 LT PUSH2 0x1DD6 JUMPI PUSH2 0x1DD5 PUSH2 0x466B JUMP JUMPDEST JUMPDEST SWAP1 POP PUSH1 0x20 MUL ADD CALLDATALOAD LT PUSH2 0x1E1D JUMPI PUSH1 0x40 MLOAD PUSH32 0x8C379A000000000000000000000000000000000000000000000000000000000 DUP2 MSTORE PUSH1 0x4 ADD PUSH2 0x1E14 SWAP1 PUSH2 0x52EE JUMP JUMPDEST PUSH1 0x40 MLOAD DUP1 SWAP2 SUB SWAP1 REVERT JUMPDEST PUSH1 0x0 PUSH1 0x1 PUSH1 0x0 DUP7 PUSH20 0xFFFFFFFFFFFFFFFFFFFFFFFFFFFFFFFFFFFFFFFF AND PUSH20 0xFFFFFFFFFFFFFFFFFFFFFFFFFFFFFFFFFFFFFFFF AND DUP2 MSTORE PUSH1 0x20 ADD SWAP1 DUP2 MSTORE PUSH1 0x20 ADD PUSH1 0x0 KECCAK256 DUP5 DUP5 DUP5 DUP2 DUP2 LT PUSH2 0x1E71 JUMPI PUSH2 0x1E70 PUSH2 0x466B JUMP JUMPDEST JUMPDEST SWAP1 POP PUSH1 0x20 MUL ADD CALLDATALOAD DUP2 SLOAD DUP2 LT PUSH2 0x1E89 JUMPI PUSH2 0x1E88 PUSH2 0x466B JUMP JUMPDEST JUMPDEST SWAP1 PUSH1 0x0 MSTORE PUSH1 0x20 PUSH1 0x0 KECCAK256 SWAP1 PUSH1 0x4 MUL ADD PUSH1 0x3 PUSH1 0x4 DUP2 LT PUSH2 0x1EAA JUMPI PUSH2 0x1EA9 PUSH2 0x466B JUMP JUMPDEST JUMPDEST ADD SLOAD EQ PUSH2 0x1EEC JUMPI PUSH1 0x40 MLOAD PUSH32 0x8C379A000000000000000000000000000000000000000000000000000000000 DUP2 MSTORE PUSH1 0x4 ADD PUSH2 0x1EE3 SWAP1 PUSH2 0x535A JUMP JUMPDEST PUSH1 0x40 MLOAD DUP1 SWAP2 SUB SWAP1 REVERT JUMPDEST PUSH1 0x0 DUP4 DUP4 DUP4 DUP2 DUP2 LT PUSH2 0x1F01 JUMPI PUSH2 0x1F00 PUSH2 0x466B JUMP JUMPDEST JUMPDEST SWAP1 POP PUSH1 0x20 MUL ADD CALLDATALOAD GT ISZERO PUSH2 0x1FE9 JUMPI PUSH1 0x1 DUP1 PUSH1 0x0 DUP7 PUSH20 0xFFFFFFFFFFFFFFFFFFFFFFFFFFFFFFFFFFFFFFFF AND PUSH20 0xFFFFFFFFFFFFFFFFFFFFFFFFFFFFFFFFFFFFFFFF AND DUP2 MSTORE PUSH1 0x20 ADD SWAP1 DUP2 MSTORE PUSH1 0x20 ADD PUSH1 0x0 KECCAK256 PUSH1 0x1 DUP6 DUP6 DUP6 DUP2 DUP2 LT PUSH2 0x1F63 JUMPI PUSH2 0x1F62 PUSH2 0x466B JUMP JUMPDEST JUMPDEST SWAP1 POP PUSH1 0x20 MUL ADD CALLDATALOAD PUSH2 0x1F74 SWAP2 SWAP1 PUSH2 0x4745 JUMP JUMPDEST DUP2 SLOAD DUP2 LT PUSH2 0x1F85 JUMPI PUSH2 0x1F84 PUSH2 0x466B JUMP JUMPDEST JUMPDEST SWAP1 PUSH1 0x0 MSTORE PUSH1 0x20 PUSH1 0x0 KECCAK256 SWAP1 PUSH1 0x4 MUL ADD PUSH1 0x3 PUSH1 0x4 DUP2 LT PUSH2 0x1FA6 JUMPI PUSH2 0x1FA5 PUSH2 0x466B JUMP JUMPDEST JUMPDEST ADD SLOAD EQ PUSH2 0x1FE8 JUMPI PUSH1 0x40 MLOAD PUSH32 0x8C379A000000000000000000000000000000000000000000000000000000000 DUP2 MSTORE PUSH1 0x4 ADD PUSH2 0x1FDF SWAP1 PUSH2 0x53EC JUMP JUMPDEST PUSH1 0x40 MLOAD DUP1 SWAP2 SUB SWAP1 REVERT JUMPDEST JUMPDEST PUSH1 0x1 DUP1 PUSH1 0x0 DUP7 PUSH20 0xFFFFFFFFFFFFFFFFFFFFFFFFFFFFFFFFFFFFFFFF AND PUSH20 0xFFFFFFFFFFFFFFFFFFFFFFFFFFFFFFFFFFFFFFFF AND DUP2 MSTORE PUSH1 0x20 ADD SWAP1 DUP2 MSTORE PUSH1 0x20 ADD PUSH1 0x0 KECCAK256 DUP5 DUP5 DUP5 DUP2 DUP2 LT PUSH2 0x203C JUMPI PUSH2 0x203B PUSH2 0x466B JUMP JUMPDEST JUMPDEST SWAP1 POP PUSH1 0x20 MUL ADD CALLDATALOAD DUP2 SLOAD DUP2 LT PUSH2 0x2054 JUMPI PUSH2 0x2053 PUSH2 0x466B JUMP JUMPDEST JUMPDEST SWAP1 PUSH1 0x0 MSTORE PUSH1 0x20 PUSH1 0x0 KECCAK256 SWAP1 PUSH1 0x4 MUL ADD PUSH1 0x3 PUSH1 0x4 DUP2 LT PUSH2 0x2075 JUMPI PUSH2 0x2074 PUSH2 0x466B JUMP JUMPDEST JUMPDEST ADD DUP2 SWAP1 SSTORE POP DUP1 DUP1 PUSH2 0x2085 SWAP1 PUSH2 0x46FD JUMP JUMPDEST SWAP2 POP POP PUSH2 0x1D75 JUMP JUMPDEST POP POP POP POP JUMP JUMPDEST PUSH1 0x60 PUSH32 0x0 PUSH20 0xFFFFFFFFFFFFFFFFFFFFFFFFFFFFFFFFFFFFFFFF AND PUSH4 0x95D89B41 PUSH1 0x40 MLOAD DUP2 PUSH4 0xFFFFFFFF AND PUSH1 0xE0 SHL DUP2 MSTORE PUSH1 0x4 ADD PUSH1 0x0 PUSH1 0x40 MLOAD DUP1 DUP4 SUB DUP2 DUP7 GAS STATICCALL ISZERO DUP1 ISZERO PUSH2 0x2100 JUMPI RETURNDATASIZE PUSH1 0x0 DUP1 RETURNDATACOPY RETURNDATASIZE PUSH1 0x0 REVERT JUMPDEST POP POP POP POP PUSH1 0x40 MLOAD RETURNDATASIZE PUSH1 0x0 DUP3 RETURNDATACOPY RETURNDATASIZE PUSH1 0x1F NOT PUSH1 0x1F DUP3 ADD AND DUP3 ADD DUP1 PUSH1 0x40 MSTORE POP DUP2 ADD SWAP1 PUSH2 0x2129 SWAP2 SWAP1 PUSH2 0x54FE JUMP JUMPDEST SWAP1 POP SWAP1 JUMP JUMPDEST PUSH1 0x0 PUSH2 0x2138 PUSH2 0x2F75 JUMP JUMPDEST PUSH2 0x2140 PUSH2 0x355A JUMP JUMPDEST SWAP1 POP SWAP1 JUMP JUMPDEST PUSH2 0x214D PUSH2 0x2F75 JUMP JUMPDEST PUSH1 0x0 PUSH1 0x1 PUSH1 0x0 DUP6 PUSH20 0xFFFFFFFFFFFFFFFFFFFFFFFFFFFFFFFFFFFFFFFF AND PUSH20 0xFFFFFFFFFFFFFFFFFFFFFFFFFFFFFFFFFFFFFFFF AND DUP2 MSTORE PUSH1 0x20 ADD SWAP1 DUP2 MSTORE PUSH1 0x20 ADD PUSH1 0x0 KECCAK256 DUP1 SLOAD SWAP1 POP GT PUSH2 0x21D2 JUMPI PUSH1 0x40 MLOAD PUSH32 0x8C379A000000000000000000000000000000000000000000000000000000000 DUP2 MSTORE PUSH1 0x4 ADD PUSH2 0x21C9 SWAP1 PUSH2 0x464B JUMP JUMPDEST PUSH1 0x40 MLOAD DUP1 SWAP2 SUB SWAP1 REVERT JUMPDEST PUSH2 0x21DA PUSH2 0x35C8 JUMP JUMPDEST PUSH1 0x6 SLOAD DUP4 PUSH2 0x21E8 SWAP2 SWAP1 PUSH2 0x46C9 JUMP JUMPDEST GT ISZERO PUSH2 0x2229 JUMPI PUSH1 0x40 MLOAD PUSH32 0x8C379A000000000000000000000000000000000000000000000000000000000 DUP2 MSTORE PUSH1 0x4 ADD PUSH2 0x2220 SWAP1 PUSH2 0x5593 JUMP JUMPDEST PUSH1 0x40 MLOAD DUP1 SWAP2 SUB SWAP1 REVERT JUMPDEST DUP1 PUSH1 0x1 PUSH1 0x0 DUP6 PUSH20 0xFFFFFFFFFFFFFFFFFFFFFFFFFFFFFFFFFFFFFFFF AND PUSH20 0xFFFFFFFFFFFFFFFFFFFFFFFFFFFFFFFFFFFFFFFF AND DUP2 MSTORE PUSH1 0x20 ADD SWAP1 DUP2 MSTORE PUSH1 0x20 ADD PUSH1 0x0 KECCAK256 PUSH1 0x1 DUP1 PUSH1 0x0 DUP8 PUSH20 0xFFFFFFFFFFFFFFFFFFFFFFFFFFFFFFFFFFFFFFFF AND PUSH20 0xFFFFFFFFFFFFFFFFFFFFFFFFFFFFFFFFFFFFFFFF AND DUP2 MSTORE PUSH1 0x20 ADD SWAP1 DUP2 MSTORE PUSH1 0x20 ADD PUSH1 0x0 KECCAK256 DUP1 SLOAD SWAP1 POP PUSH2 0x22B7 SWAP2 SWAP1 PUSH2 0x4745 JUMP JUMPDEST DUP2 SLOAD DUP2 LT PUSH2 0x22C8 JUMPI PUSH2 0x22C7 PUSH2 0x466B JUMP JUMPDEST JUMPDEST SWAP1 PUSH1 0x0 MSTORE PUSH1 0x20 PUSH1 0x0 KECCAK256 SWAP1 PUSH1 0x4 MUL ADD PUSH1 0x1 PUSH1 0x4 DUP2 LT PUSH2 0x22E9 JUMPI PUSH2 0x22E8 PUSH2 0x466B JUMP JUMPDEST JUMPDEST ADD SLOAD LT PUSH2 0x232B JUMPI PUSH1 0x40 MLOAD PUSH32 0x8C379A000000000000000000000000000000000000000000000000000000000 DUP2 MSTORE PUSH1 0x4 ADD PUSH2 0x2322 SWAP1 PUSH2 0x5625 JUMP JUMPDEST PUSH1 0x40 MLOAD DUP1 SWAP2 SUB SWAP1 REVERT JUMPDEST DUP1 PUSH2 0x2334 PUSH2 0x2D66 JUMP JUMPDEST LT PUSH2 0x2374 JUMPI PUSH1 0x40 MLOAD PUSH32 0x8C379A000000000000000000000000000000000000000000000000000000000 DUP2 MSTORE PUSH1 0x4 ADD PUSH2 0x236B SWAP1 PUSH2 0x56B7 JUMP JUMPDEST PUSH1 0x40 MLOAD DUP1 SWAP2 SUB SWAP1 REVERT JUMPDEST DUP2 PUSH1 0x6 PUSH1 0x0 DUP3 DUP3 SLOAD PUSH2 0x2386 SWAP2 SWAP1 PUSH2 0x46C9 JUMP JUMPDEST SWAP3 POP POP DUP2 SWAP1 SSTORE POP PUSH32 0xF15EE0942522997D9F4605D8B731B728A4125926AD43AB06290856EB6C3978ED DUP3 PUSH1 0x40 MLOAD PUSH2 0x23BC SWAP2 SWAP1 PUSH2 0x3D35 JUMP JUMPDEST PUSH1 0x40 MLOAD DUP1 SWAP2 SUB SWAP1 LOG1 PUSH1 0x1 PUSH1 0x0 DUP5 PUSH20 0xFFFFFFFFFFFFFFFFFFFFFFFFFFFFFFFFFFFFFFFF AND PUSH20 0xFFFFFFFFFFFFFFFFFFFFFFFFFFFFFFFFFFFFFFFF AND DUP2 MSTORE PUSH1 0x20 ADD SWAP1 DUP2 MSTORE PUSH1 0x20 ADD PUSH1 0x0 KECCAK256 PUSH1 0x40 MLOAD DUP1 PUSH1 0x80 ADD PUSH1 0x40 MSTORE DUP1 DUP5 DUP2 MSTORE PUSH1 0x20 ADD DUP4 DUP2 MSTORE PUSH1 0x20 ADD PUSH1 0x0 DUP2 MSTORE PUSH1 0x20 ADD PUSH1 0x0 DUP2 MSTORE POP SWAP1 DUP1 PUSH1 0x1 DUP2 SLOAD ADD DUP1 DUP3 SSTORE DUP1 SWAP2 POP POP PUSH1 0x1 SWAP1 SUB SWAP1 PUSH1 0x0 MSTORE PUSH1 0x20 PUSH1 0x0 KECCAK256 SWAP1 PUSH1 0x4 MUL ADD PUSH1 0x0 SWAP1 SWAP2 SWAP1 SWAP2 SWAP1 SWAP2 POP SWAP1 PUSH1 0x4 PUSH2 0x245D SWAP3 SWAP2 SWAP1 PUSH2 0x3A63 JUMP JUMPDEST POP POP POP POP JUMP JUMPDEST PUSH1 0x0 PUSH1 0x1 PUSH1 0x0 CALLER PUSH20 0xFFFFFFFFFFFFFFFFFFFFFFFFFFFFFFFFFFFFFFFF AND PUSH20 0xFFFFFFFFFFFFFFFFFFFFFFFFFFFFFFFFFFFFFFFF AND DUP2 MSTORE PUSH1 0x20 ADD SWAP1 DUP2 MSTORE PUSH1 0x20 ADD PUSH1 0x0 KECCAK256 DUP1 SLOAD SWAP1 POP GT PUSH2 0x24E8 JUMPI PUSH1 0x40 MLOAD PUSH32 0x8C379A000000000000000000000000000000000000000000000000000000000 DUP2 MSTORE PUSH1 0x4 ADD PUSH2 0x24DF SWAP1 PUSH2 0x5749 JUMP JUMPDEST PUSH1 0x40 MLOAD DUP1 SWAP2 SUB SWAP1 REVERT JUMPDEST PUSH1 0x0 PUSH1 0x1 PUSH1 0x0 DUP4 PUSH20 0xFFFFFFFFFFFFFFFFFFFFFFFFFFFFFFFFFFFFFFFF AND PUSH20 0xFFFFFFFFFFFFFFFFFFFFFFFFFFFFFFFFFFFFFFFF AND DUP2 MSTORE PUSH1 0x20 ADD SWAP1 DUP2 MSTORE PUSH1 0x20 ADD PUSH1 0x0 KECCAK256 DUP1 SLOAD SWAP1 POP GT ISZERO PUSH2 0x256E JUMPI PUSH1 0x40 MLOAD PUSH32 0x8C379A000000000000000000000000000000000000000000000000000000000 DUP2 MSTORE PUSH1 0x4 ADD PUSH2 0x2565 SWAP1 PUSH2 0x57B5 JUMP JUMPDEST PUSH1 0x40 MLOAD DUP1 SWAP2 SUB SWAP1 REVERT JUMPDEST PUSH1 0x60 PUSH1 0x1 PUSH1 0x0 CALLER PUSH20 0xFFFFFFFFFFFFFFFFFFFFFFFFFFFFFFFFFFFFFFFF AND PUSH20 0xFFFFFFFFFFFFFFFFFFFFFFFFFFFFFFFFFFFFFFFF AND DUP2 MSTORE PUSH1 0x20 ADD SWAP1 DUP2 MSTORE PUSH1 0x20 ADD PUSH1 0x0 KECCAK256 DUP1 SLOAD DUP1 PUSH1 0x20 MUL PUSH1 0x20 ADD PUSH1 0x40 MLOAD SWAP1 DUP2 ADD PUSH1 0x40 MSTORE DUP1 SWAP3 SWAP2 SWAP1 DUP2 DUP2 MSTORE PUSH1 0x20 ADD PUSH1 0x0 SWAP1 JUMPDEST DUP3 DUP3 LT ISZERO PUSH2 0x2632 JUMPI DUP4 DUP3 SWAP1 PUSH1 0x0 MSTORE PUSH1 0x20 PUSH1 0x0 KECCAK256 SWAP1 PUSH1 0x4 MUL ADD PUSH1 0x4 DUP1 PUSH1 0x20 MUL PUSH1 0x40 MLOAD SWAP1 DUP2 ADD PUSH1 0x40 MSTORE DUP1 SWAP3 SWAP2 SWAP1 DUP3 PUSH1 0x4 DUP1 ISZERO PUSH2 0x261E JUMPI PUSH1 0x20 MUL DUP3 ADD SWAP2 JUMPDEST DUP2 SLOAD DUP2 MSTORE PUSH1 0x20 ADD SWAP1 PUSH1 0x1 ADD SWAP1 DUP1 DUP4 GT PUSH2 0x260A JUMPI JUMPDEST POP POP POP POP POP DUP2 MSTORE PUSH1 0x20 ADD SWAP1 PUSH1 0x1 ADD SWAP1 PUSH2 0x25CF JUMP JUMPDEST POP POP POP POP SWAP1 POP PUSH1 0x1 PUSH1 0x0 CALLER PUSH20 0xFFFFFFFFFFFFFFFFFFFFFFFFFFFFFFFFFFFFFFFF AND PUSH20 0xFFFFFFFFFFFFFFFFFFFFFFFFFFFFFFFFFFFFFFFF AND DUP2 MSTORE PUSH1 0x20 ADD SWAP1 DUP2 MSTORE PUSH1 0x20 ADD PUSH1 0x0 KECCAK256 PUSH1 0x0 PUSH2 0x2683 SWAP2 SWAP1 PUSH2 0x39B5 JUMP JUMPDEST DUP1 PUSH1 0x1 PUSH1 0x0 DUP5 PUSH20 0xFFFFFFFFFFFFFFFFFFFFFFFFFFFFFFFFFFFFFFFF AND PUSH20 0xFFFFFFFFFFFFFFFFFFFFFFFFFFFFFFFFFFFFFFFF AND DUP2 MSTORE PUSH1 0x20 ADD SWAP1 DUP2 MSTORE PUSH1 0x20 ADD PUSH1 0x0 KECCAK256 SWAP1 DUP1 MLOAD SWAP1 PUSH1 0x20 ADD SWAP1 PUSH2 0x26D6 SWAP3 SWAP2 SWAP1 PUSH2 0x3AA3 JUMP JUMPDEST POP PUSH1 0x0 JUMPDEST PUSH1 0x7 DUP1 SLOAD SWAP1 POP DUP2 LT ISZERO PUSH2 0x27D4 JUMPI PUSH1 0x0 CALLER SWAP1 POP PUSH1 0x7 DUP3 DUP2 SLOAD DUP2 LT PUSH2 0x2700 JUMPI PUSH2 0x26FF PUSH2 0x466B JUMP JUMPDEST JUMPDEST SWAP1 PUSH1 0x0 MSTORE PUSH1 0x20 PUSH1 0x0 KECCAK256 ADD PUSH1 0x0 SWAP1 SLOAD SWAP1 PUSH2 0x100 EXP SWAP1 DIV PUSH20 0xFFFFFFFFFFFFFFFFFFFFFFFFFFFFFFFFFFFFFFFF AND PUSH20 0xFFFFFFFFFFFFFFFFFFFFFFFFFFFFFFFFFFFFFFFF AND DUP2 PUSH20 0xFFFFFFFFFFFFFFFFFFFFFFFFFFFFFFFFFFFFFFFF AND SUB PUSH2 0x27C0 JUMPI DUP4 PUSH1 0x7 DUP4 DUP2 SLOAD DUP2 LT PUSH2 0x2772 JUMPI PUSH2 0x2771 PUSH2 0x466B JUMP JUMPDEST JUMPDEST SWAP1 PUSH1 0x0 MSTORE PUSH1 0x20 PUSH1 0x0 KECCAK256 ADD PUSH1 0x0 PUSH2 0x100 EXP DUP2 SLOAD DUP2 PUSH20 0xFFFFFFFFFFFFFFFFFFFFFFFFFFFFFFFFFFFFFFFF MUL NOT AND SWAP1 DUP4 PUSH20 0xFFFFFFFFFFFFFFFFFFFFFFFFFFFFFFFFFFFFFFFF AND MUL OR SWAP1 SSTORE POP POP PUSH2 0x27D4 JUMP JUMPDEST POP DUP1 DUP1 PUSH2 0x27CC SWAP1 PUSH2 0x46FD JUMP JUMPDEST SWAP2 POP POP PUSH2 0x26DA JUMP JUMPDEST POP PUSH1 0x4 CALLER SWAP1 DUP1 PUSH1 0x1 DUP2 SLOAD ADD DUP1 DUP3 SSTORE DUP1 SWAP2 POP POP PUSH1 0x1 SWAP1 SUB SWAP1 PUSH1 0x0 MSTORE PUSH1 0x20 PUSH1 0x0 KECCAK256 ADD PUSH1 0x0 SWAP1 SWAP2 SWAP1 SWAP2 SWAP1 SWAP2 PUSH2 0x100 EXP DUP2 SLOAD DUP2 PUSH20 0xFFFFFFFFFFFFFFFFFFFFFFFFFFFFFFFFFFFFFFFF MUL NOT AND SWAP1 DUP4 PUSH20 0xFFFFFFFFFFFFFFFFFFFFFFFFFFFFFFFFFFFFFFFF AND MUL OR SWAP1 SSTORE POP DUP2 PUSH1 0x3 PUSH1 0x0 CALLER PUSH20 0xFFFFFFFFFFFFFFFFFFFFFFFFFFFFFFFFFFFFFFFF AND PUSH20 0xFFFFFFFFFFFFFFFFFFFFFFFFFFFFFFFFFFFFFFFF AND DUP2 MSTORE PUSH1 0x20 ADD SWAP1 DUP2 MSTORE PUSH1 0x20 ADD PUSH1 0x0 KECCAK256 PUSH1 0x0 PUSH2 0x100 EXP DUP2 SLOAD DUP2 PUSH20 0xFFFFFFFFFFFFFFFFFFFFFFFFFFFFFFFFFFFFFFFF MUL NOT AND SWAP1 DUP4 PUSH20 0xFFFFFFFFFFFFFFFFFFFFFFFFFFFFFFFFFFFFFFFF AND MUL OR SWAP1 SSTORE POP POP POP JUMP JUMPDEST PUSH1 0x60 PUSH2 0x28C4 PUSH2 0x1AD9 JUMP JUMPDEST PUSH20 0xFFFFFFFFFFFFFFFFFFFFFFFFFFFFFFFFFFFFFFFF AND CALLER PUSH20 0xFFFFFFFFFFFFFFFFFFFFFFFFFFFFFFFFFFFFFFFF AND EQ DUP1 PUSH2 0x2928 JUMPI POP DUP2 PUSH20 0xFFFFFFFFFFFFFFFFFFFFFFFFFFFFFFFFFFFFFFFF AND CALLER PUSH20 0xFFFFFFFFFFFFFFFFFFFFFFFFFFFFFFFFFFFFFFFF AND EQ JUMPDEST PUSH2 0x2967 JUMPI PUSH1 0x40 MLOAD PUSH32 0x8C379A000000000000000000000000000000000000000000000000000000000 DUP2 MSTORE PUSH1 0x4 ADD PUSH2 0x295E SWAP1 PUSH2 0x5821 JUMP JUMPDEST PUSH1 0x40 MLOAD DUP1 SWAP2 SUB SWAP1 REVERT JUMPDEST PUSH1 0x0 DUP1 JUMPDEST PUSH1 0x5 DUP1 SLOAD SWAP1 POP DUP2 LT ISZERO PUSH2 0x2A0B JUMPI PUSH1 0x5 DUP2 DUP2 SLOAD DUP2 LT PUSH2 0x298C JUMPI PUSH2 0x298B PUSH2 0x466B JUMP JUMPDEST JUMPDEST SWAP1 PUSH1 0x0 MSTORE PUSH1 0x20 PUSH1 0x0 KECCAK256 ADD PUSH1 0x0 SWAP1 SLOAD SWAP1 PUSH2 0x100 EXP SWAP1 DIV PUSH20 0xFFFFFFFFFFFFFFFFFFFFFFFFFFFFFFFFFFFFFFFF AND PUSH20 0xFFFFFFFFFFFFFFFFFFFFFFFFFFFFFFFFFFFFFFFF AND DUP5 PUSH20 0xFFFFFFFFFFFFFFFFFFFFFFFFFFFFFFFFFFFFFFFF AND SUB PUSH2 0x29F8 JUMPI DUP2 DUP1 PUSH2 0x29F4 SWAP1 PUSH2 0x46FD JUMP JUMPDEST SWAP3 POP POP JUMPDEST DUP1 DUP1 PUSH2 0x2A03 SWAP1 PUSH2 0x46FD JUMP JUMPDEST SWAP2 POP POP PUSH2 0x296B JUMP JUMPDEST POP PUSH1 0x0 DUP2 GT PUSH2 0x2A4F JUMPI PUSH1 0x40 MLOAD PUSH32 0x8C379A000000000000000000000000000000000000000000000000000000000 DUP2 MSTORE PUSH1 0x4 ADD PUSH2 0x2A46 SWAP1 PUSH2 0x588D JUMP JUMPDEST PUSH1 0x40 MLOAD DUP1 SWAP2 SUB SWAP1 REVERT JUMPDEST PUSH1 0x2 PUSH1 0x0 DUP5 PUSH20 0xFFFFFFFFFFFFFFFFFFFFFFFFFFFFFFFFFFFFFFFF AND PUSH20 0xFFFFFFFFFFFFFFFFFFFFFFFFFFFFFFFFFFFFFFFF AND DUP2 MSTORE PUSH1 0x20 ADD SWAP1 DUP2 MSTORE PUSH1 0x20 ADD PUSH1 0x0 KECCAK256 DUP1 SLOAD DUP1 PUSH1 0x20 MUL PUSH1 0x20 ADD PUSH1 0x40 MLOAD SWAP1 DUP2 ADD PUSH1 0x40 MSTORE DUP1 SWAP3 SWAP2 SWAP1 DUP2 DUP2 MSTORE PUSH1 0x20 ADD PUSH1 0x0 SWAP1 JUMPDEST DUP3 DUP3 LT ISZERO PUSH2 0x2B5A JUMPI DUP4 DUP3 SWAP1 PUSH1 0x0 MSTORE PUSH1 0x20 PUSH1 0x0 KECCAK256 ADD DUP1 SLOAD PUSH2 0x2ACD SWAP1 PUSH2 0x49DC JUMP JUMPDEST DUP1 PUSH1 0x1F ADD PUSH1 0x20 DUP1 SWAP2 DIV MUL PUSH1 0x20 ADD PUSH1 0x40 MLOAD SWAP1 DUP2 ADD PUSH1 0x40 MSTORE DUP1 SWAP3 SWAP2 SWAP1 DUP2 DUP2 MSTORE PUSH1 0x20 ADD DUP3 DUP1 SLOAD PUSH2 0x2AF9 SWAP1 PUSH2 0x49DC JUMP JUMPDEST DUP1 ISZERO PUSH2 0x2B46 JUMPI DUP1 PUSH1 0x1F LT PUSH2 0x2B1B JUMPI PUSH2 0x100 DUP1 DUP4 SLOAD DIV MUL DUP4 MSTORE SWAP2 PUSH1 0x20 ADD SWAP2 PUSH2 0x2B46 JUMP JUMPDEST DUP3 ADD SWAP2 SWAP1 PUSH1 0x0 MSTORE PUSH1 0x20 PUSH1 0x0 KECCAK256 SWAP1 JUMPDEST DUP2 SLOAD DUP2 MSTORE SWAP1 PUSH1 0x1 ADD SWAP1 PUSH1 0x20 ADD DUP1 DUP4 GT PUSH2 0x2B29 JUMPI DUP3 SWAP1 SUB PUSH1 0x1F AND DUP3 ADD SWAP2 JUMPDEST POP POP POP POP POP DUP2 MSTORE PUSH1 0x20 ADD SWAP1 PUSH1 0x1 ADD SWAP1 PUSH2 0x2AAE JUMP JUMPDEST POP POP POP POP SWAP2 POP POP SWAP2 SWAP1 POP JUMP JUMPDEST PUSH1 0x0 PUSH2 0x2B70 PUSH2 0x2F75 JUMP JUMPDEST PUSH1 0x8 PUSH1 0x0 SWAP1 SLOAD SWAP1 PUSH2 0x100 EXP SWAP1 DIV PUSH20 0xFFFFFFFFFFFFFFFFFFFFFFFFFFFFFFFFFFFFFFFF AND PUSH20 0xFFFFFFFFFFFFFFFFFFFFFFFFFFFFFFFFFFFFFFFF AND DUP3 PUSH20 0xFFFFFFFFFFFFFFFFFFFFFFFFFFFFFFFFFFFFFFFF AND SUB PUSH2 0x2C00 JUMPI PUSH1 0x40 MLOAD PUSH32 0x8C379A000000000000000000000000000000000000000000000000000000000 DUP2 MSTORE PUSH1 0x4 ADD PUSH2 0x2BF7 SWAP1 PUSH2 0x591F JUMP JUMPDEST PUSH1 0x40 MLOAD DUP1 SWAP2 SUB SWAP1 REVERT JUMPDEST PUSH1 0x0 PUSH20 0xFFFFFFFFFFFFFFFFFFFFFFFFFFFFFFFFFFFFFFFF AND DUP3 PUSH20 0xFFFFFFFFFFFFFFFFFFFFFFFFFFFFFFFFFFFFFFFF AND SUB PUSH2 0x2C6F JUMPI PUSH1 0x40 MLOAD PUSH32 0x8C379A000000000000000000000000000000000000000000000000000000000 DUP2 MSTORE PUSH1 0x4 ADD PUSH2 0x2C66 SWAP1 PUSH2 0x598B JUMP JUMPDEST PUSH1 0x40 MLOAD DUP1 SWAP2 SUB SWAP1 REVERT JUMPDEST DUP2 PUSH1 0x8 PUSH1 0x0 PUSH2 0x100 EXP DUP2 SLOAD DUP2 PUSH20 0xFFFFFFFFFFFFFFFFFFFFFFFFFFFFFFFFFFFFFFFF MUL NOT AND SWAP1 DUP4 PUSH20 0xFFFFFFFFFFFFFFFFFFFFFFFFFFFFFFFFFFFFFFFF AND MUL OR SWAP1 SSTORE POP PUSH1 0x1 SWAP1 POP SWAP2 SWAP1 POP JUMP JUMPDEST PUSH1 0x60 PUSH2 0x2CC3 PUSH2 0x2F75 JUMP JUMPDEST PUSH1 0x5 DUP1 SLOAD DUP1 PUSH1 0x20 MUL PUSH1 0x20 ADD PUSH1 0x40 MLOAD SWAP1 DUP2 ADD PUSH1 0x40 MSTORE DUP1 SWAP3 SWAP2 SWAP1 DUP2 DUP2 MSTORE PUSH1 0x20 ADD DUP3 DUP1 SLOAD DUP1 ISZERO PUSH2 0x2D45 JUMPI PUSH1 0x20 MUL DUP3 ADD SWAP2 SWAP1 PUSH1 0x0 MSTORE PUSH1 0x20 PUSH1 0x0 KECCAK256 SWAP1 JUMPDEST DUP2 PUSH1 0x0 SWAP1 SLOAD SWAP1 PUSH2 0x100 EXP SWAP1 DIV PUSH20 0xFFFFFFFFFFFFFFFFFFFFFFFFFFFFFFFFFFFFFFFF AND PUSH20 0xFFFFFFFFFFFFFFFFFFFFFFFFFFFFFFFFFFFFFFFF AND DUP2 MSTORE PUSH1 0x20 ADD SWAP1 PUSH1 0x1 ADD SWAP1 DUP1 DUP4 GT PUSH2 0x2CFB JUMPI JUMPDEST POP POP POP POP POP SWAP1 POP SWAP1 JUMP JUMPDEST PUSH1 0x0 PUSH2 0x2D59 PUSH2 0x2F75 JUMP JUMPDEST PUSH2 0x2D61 PUSH2 0x35C8 JUMP JUMPDEST SWAP1 POP SWAP1 JUMP JUMPDEST PUSH1 0x0 TIMESTAMP SWAP1 POP SWAP1 JUMP JUMPDEST PUSH2 0x2D76 PUSH2 0x2F75 JUMP JUMPDEST PUSH1 0x0 PUSH20 0xFFFFFFFFFFFFFFFFFFFFFFFFFFFFFFFFFFFFFFFF AND DUP2 PUSH20 0xFFFFFFFFFFFFFFFFFFFFFFFFFFFFFFFFFFFFFFFF AND SUB PUSH2 0x2DE5 JUMPI PUSH1 0x40 MLOAD PUSH32 0x8C379A000000000000000000000000000000000000000000000000000000000 DUP2 MSTORE PUSH1 0x4 ADD PUSH2 0x2DDC SWAP1 PUSH2 0x5A1D JUMP JUMPDEST PUSH1 0x40 MLOAD DUP1 SWAP2 SUB SWAP1 REVERT JUMPDEST PUSH2 0x2DEE DUP2 PUSH2 0x3650 JUMP JUMPDEST POP JUMP JUMPDEST PUSH2 0x2DF9 PUSH2 0x2F75 JUMP JUMPDEST DUP2 DUP2 SWAP1 POP DUP5 DUP5 SWAP1 POP EQ DUP1 ISZERO PUSH2 0x2E12 JUMPI POP PUSH1 0x1 DUP5 DUP5 SWAP1 POP LT ISZERO JUMPDEST PUSH2 0x2E51 JUMPI PUSH1 0x40 MLOAD PUSH32 0x8C379A000000000000000000000000000000000000000000000000000000000 DUP2 MSTORE PUSH1 0x4 ADD PUSH2 0x2E48 SWAP1 PUSH2 0x5A89 JUMP JUMPDEST PUSH1 0x40 MLOAD DUP1 SWAP2 SUB SWAP1 REVERT JUMPDEST PUSH1 0x0 PUSH1 0x1 PUSH1 0x0 DUP8 PUSH20 0xFFFFFFFFFFFFFFFFFFFFFFFFFFFFFFFFFFFFFFFF AND PUSH20 0xFFFFFFFFFFFFFFFFFFFFFFFFFFFFFFFFFFFFFFFF AND DUP2 MSTORE PUSH1 0x20 ADD SWAP1 DUP2 MSTORE PUSH1 0x20 ADD PUSH1 0x0 KECCAK256 DUP1 SLOAD SWAP1 POP EQ PUSH2 0x2ED6 JUMPI PUSH1 0x40 MLOAD PUSH32 0x8C379A000000000000000000000000000000000000000000000000000000000 DUP2 MSTORE PUSH1 0x4 ADD PUSH2 0x2ECD SWAP1 PUSH2 0x5AF5 JUMP JUMPDEST PUSH1 0x40 MLOAD DUP1 SWAP2 SUB SWAP1 REVERT JUMPDEST PUSH2 0x2EE3 DUP6 DUP6 DUP6 DUP6 DUP6 PUSH2 0x3330 JUMP JUMPDEST PUSH1 0x7 DUP6 SWAP1 DUP1 PUSH1 0x1 DUP2 SLOAD ADD DUP1 DUP3 SSTORE DUP1 SWAP2 POP POP PUSH1 0x1 SWAP1 SUB SWAP1 PUSH1 0x0 MSTORE PUSH1 0x20 PUSH1 0x0 KECCAK256 ADD PUSH1 0x0 SWAP1 SWAP2 SWAP1 SWAP2 SWAP1 SWAP2 PUSH2 0x100 EXP DUP2 SLOAD DUP2 PUSH20 0xFFFFFFFFFFFFFFFFFFFFFFFFFFFFFFFFFFFFFFFF MUL NOT AND SWAP1 DUP4 PUSH20 0xFFFFFFFFFFFFFFFFFFFFFFFFFFFFFFFFFFFFFFFF AND MUL OR SWAP1 SSTORE POP POP POP POP POP POP JUMP JUMPDEST PUSH1 0x0 PUSH32 0x0 SWAP1 POP SWAP1 JUMP JUMPDEST PUSH2 0x2F7D PUSH2 0x3714 JUMP JUMPDEST PUSH20 0xFFFFFFFFFFFFFFFFFFFFFFFFFFFFFFFFFFFFFFFF AND PUSH2 0x2F9B PUSH2 0x1AD9 JUMP JUMPDEST PUSH20 0xFFFFFFFFFFFFFFFFFFFFFFFFFFFFFFFFFFFFFFFF AND EQ PUSH2 0x2FF1 JUMPI PUSH1 0x40 MLOAD PUSH32 0x8C379A000000000000000000000000000000000000000000000000000000000 DUP2 MSTORE PUSH1 0x4 ADD PUSH2 0x2FE8 SWAP1 PUSH2 0x5B61 JUMP JUMPDEST PUSH1 0x40 MLOAD DUP1 SWAP2 SUB SWAP1 REVERT JUMPDEST JUMP JUMPDEST PUSH2 0x3074 DUP4 PUSH4 0xA9059CBB PUSH1 0xE0 SHL DUP5 DUP5 PUSH1 0x40 MLOAD PUSH1 0x24 ADD PUSH2 0x3012 SWAP3 SWAP2 SWAP1 PUSH2 0x5B81 JUMP JUMPDEST PUSH1 0x40 MLOAD PUSH1 0x20 DUP2 DUP4 SUB SUB DUP2 MSTORE SWAP1 PUSH1 0x40 MSTORE SWAP1 PUSH28 0xFFFFFFFFFFFFFFFFFFFFFFFFFFFFFFFFFFFFFFFFFFFFFFFFFFFFFFFF NOT AND PUSH1 0x20 DUP3 ADD DUP1 MLOAD PUSH28 0xFFFFFFFFFFFFFFFFFFFFFFFFFFFFFFFFFFFFFFFFFFFFFFFFFFFFFFFF DUP4 DUP2 DUP4 AND OR DUP4 MSTORE POP POP POP POP PUSH2 0x371C JUMP JUMPDEST POP POP POP JUMP JUMPDEST PUSH1 0x0 DUP1 JUMPDEST DUP3 DUP1 SLOAD SWAP1 POP DUP2 LT ISZERO PUSH2 0x3115 JUMPI DUP3 DUP2 DUP2 SLOAD DUP2 LT PUSH2 0x309C JUMPI PUSH2 0x309B PUSH2 0x466B JUMP JUMPDEST JUMPDEST SWAP1 PUSH1 0x0 MSTORE PUSH1 0x20 PUSH1 0x0 KECCAK256 ADD PUSH1 0x0 SWAP1 SLOAD SWAP1 PUSH2 0x100 EXP SWAP1 DIV PUSH20 0xFFFFFFFFFFFFFFFFFFFFFFFFFFFFFFFFFFFFFFFF AND PUSH20 0xFFFFFFFFFFFFFFFFFFFFFFFFFFFFFFFFFFFFFFFF AND DUP5 PUSH20 0xFFFFFFFFFFFFFFFFFFFFFFFFFFFFFFFFFFFFFFFF AND SUB PUSH2 0x3102 JUMPI PUSH1 0x1 SWAP2 POP PUSH2 0x3115 JUMP JUMPDEST DUP1 DUP1 PUSH2 0x310D SWAP1 PUSH2 0x46FD JUMP JUMPDEST SWAP2 POP POP PUSH2 0x307D JUMP JUMPDEST POP DUP1 PUSH2 0x317E JUMPI DUP2 DUP4 SWAP1 DUP1 PUSH1 0x1 DUP2 SLOAD ADD DUP1 DUP3 SSTORE DUP1 SWAP2 POP POP PUSH1 0x1 SWAP1 SUB SWAP1 PUSH1 0x0 MSTORE PUSH1 0x20 PUSH1 0x0 KECCAK256 ADD PUSH1 0x0 SWAP1 SWAP2 SWAP1 SWAP2 SWAP1 SWAP2 PUSH2 0x100 EXP DUP2 SLOAD DUP2 PUSH20 0xFFFFFFFFFFFFFFFFFFFFFFFFFFFFFFFFFFFFFFFF MUL NOT AND SWAP1 DUP4 PUSH20 0xFFFFFFFFFFFFFFFFFFFFFFFFFFFFFFFFFFFFFFFF AND MUL OR SWAP1 SSTORE POP JUMPDEST POP POP POP JUMP JUMPDEST PUSH1 0x60 PUSH1 0x0 DUP4 SWAP1 POP JUMPDEST PUSH1 0x1 DUP4 DUP1 SLOAD SWAP1 POP PUSH2 0x319C SWAP2 SWAP1 PUSH2 0x4745 JUMP JUMPDEST DUP2 LT ISZERO PUSH2 0x325B JUMPI DUP3 PUSH1 0x1 DUP3 PUSH2 0x31B1 SWAP2 SWAP1 PUSH2 0x46C9 JUMP JUMPDEST DUP2 SLOAD DUP2 LT PUSH2 0x31C2 JUMPI PUSH2 0x31C1 PUSH2 0x466B JUMP JUMPDEST JUMPDEST SWAP1 PUSH1 0x0 MSTORE PUSH1 0x20 PUSH1 0x0 KECCAK256 ADD PUSH1 0x0 SWAP1 SLOAD SWAP1 PUSH2 0x100 EXP SWAP1 DIV PUSH20 0xFFFFFFFFFFFFFFFFFFFFFFFFFFFFFFFFFFFFFFFF AND DUP4 DUP3 DUP2 SLOAD DUP2 LT PUSH2 0x3200 JUMPI PUSH2 0x31FF PUSH2 0x466B JUMP JUMPDEST JUMPDEST SWAP1 PUSH1 0x0 MSTORE PUSH1 0x20 PUSH1 0x0 KECCAK256 ADD PUSH1 0x0 PUSH2 0x100 EXP DUP2 SLOAD DUP2 PUSH20 0xFFFFFFFFFFFFFFFFFFFFFFFFFFFFFFFFFFFFFFFF MUL NOT AND SWAP1 DUP4 PUSH20 0xFFFFFFFFFFFFFFFFFFFFFFFFFFFFFFFFFFFFFFFF AND MUL OR SWAP1 SSTORE POP DUP1 DUP1 PUSH2 0x3253 SWAP1 PUSH2 0x46FD JUMP JUMPDEST SWAP2 POP POP PUSH2 0x318B JUMP JUMPDEST POP DUP2 DUP1 SLOAD DUP1 PUSH2 0x326D JUMPI PUSH2 0x326C PUSH2 0x4C7F JUMP JUMPDEST JUMPDEST PUSH1 0x1 SWAP1 SUB DUP2 DUP2 SWAP1 PUSH1 0x0 MSTORE PUSH1 0x20 PUSH1 0x0 KECCAK256 ADD PUSH1 0x0 PUSH2 0x100 EXP DUP2 SLOAD SWAP1 PUSH20 0xFFFFFFFFFFFFFFFFFFFFFFFFFFFFFFFFFFFFFFFF MUL NOT AND SWAP1 SSTORE SWAP1 SSTORE DUP2 DUP1 SLOAD DUP1 PUSH1 0x20 MUL PUSH1 0x20 ADD PUSH1 0x40 MLOAD SWAP1 DUP2 ADD PUSH1 0x40 MSTORE DUP1 SWAP3 SWAP2 SWAP1 DUP2 DUP2 MSTORE PUSH1 0x20 ADD DUP3 DUP1 SLOAD DUP1 ISZERO PUSH2 0x3323 JUMPI PUSH1 0x20 MUL DUP3 ADD SWAP2 SWAP1 PUSH1 0x0 MSTORE PUSH1 0x20 PUSH1 0x0 KECCAK256 SWAP1 JUMPDEST DUP2 PUSH1 0x0 SWAP1 SLOAD SWAP1 PUSH2 0x100 EXP SWAP1 DIV PUSH20 0xFFFFFFFFFFFFFFFFFFFFFFFFFFFFFFFFFFFFFFFF AND PUSH20 0xFFFFFFFFFFFFFFFFFFFFFFFFFFFFFFFFFFFFFFFF AND DUP2 MSTORE PUSH1 0x20 ADD SWAP1 PUSH1 0x1 ADD SWAP1 DUP1 DUP4 GT PUSH2 0x32D9 JUMPI JUMPDEST POP POP POP POP POP SWAP1 POP SWAP3 SWAP2 POP POP JUMP JUMPDEST PUSH1 0x0 DUP1 PUSH1 0x0 DUP1 JUMPDEST DUP8 DUP8 SWAP1 POP DUP2 LT ISZERO PUSH2 0x34FF JUMPI DUP6 DUP6 DUP3 DUP2 DUP2 LT PUSH2 0x3355 JUMPI PUSH2 0x3354 PUSH2 0x466B JUMP JUMPDEST JUMPDEST SWAP1 POP PUSH1 0x20 MUL ADD CALLDATALOAD PUSH2 0x3364 PUSH2 0x2D66 JUMP JUMPDEST LT PUSH2 0x33A4 JUMPI PUSH1 0x40 MLOAD PUSH32 0x8C379A000000000000000000000000000000000000000000000000000000000 DUP2 MSTORE PUSH1 0x4 ADD PUSH2 0x339B SWAP1 PUSH2 0x5C1C JUMP JUMPDEST PUSH1 0x40 MLOAD DUP1 SWAP2 SUB SWAP1 REVERT JUMPDEST DUP8 DUP8 DUP3 DUP2 DUP2 LT PUSH2 0x33B7 JUMPI PUSH2 0x33B6 PUSH2 0x466B JUMP JUMPDEST JUMPDEST SWAP1 POP PUSH1 0x20 MUL ADD CALLDATALOAD DUP3 PUSH2 0x33C9 SWAP2 SWAP1 PUSH2 0x46C9 JUMP JUMPDEST SWAP2 POP PUSH2 0x33D3 PUSH2 0x35C8 JUMP JUMPDEST DUP3 PUSH1 0x6 SLOAD PUSH2 0x33E1 SWAP2 SWAP1 PUSH2 0x46C9 JUMP JUMPDEST GT ISZERO PUSH2 0x3422 JUMPI PUSH1 0x40 MLOAD PUSH32 0x8C379A000000000000000000000000000000000000000000000000000000000 DUP2 MSTORE PUSH1 0x4 ADD PUSH2 0x3419 SWAP1 PUSH2 0x5593 JUMP JUMPDEST PUSH1 0x40 MLOAD DUP1 SWAP2 SUB SWAP1 REVERT JUMPDEST PUSH1 0x1 PUSH1 0x0 DUP11 PUSH20 0xFFFFFFFFFFFFFFFFFFFFFFFFFFFFFFFFFFFFFFFF AND PUSH20 0xFFFFFFFFFFFFFFFFFFFFFFFFFFFFFFFFFFFFFFFF AND DUP2 MSTORE PUSH1 0x20 ADD SWAP1 DUP2 MSTORE PUSH1 0x20 ADD PUSH1 0x0 KECCAK256 PUSH1 0x40 MLOAD DUP1 PUSH1 0x80 ADD PUSH1 0x40 MSTORE DUP1 DUP11 DUP11 DUP6 DUP2 DUP2 LT PUSH2 0x347F JUMPI PUSH2 0x347E PUSH2 0x466B JUMP JUMPDEST JUMPDEST SWAP1 POP PUSH1 0x20 MUL ADD CALLDATALOAD DUP2 MSTORE PUSH1 0x20 ADD DUP9 DUP9 DUP6 DUP2 DUP2 LT PUSH2 0x349E JUMPI PUSH2 0x349D PUSH2 0x466B JUMP JUMPDEST JUMPDEST SWAP1 POP PUSH1 0x20 MUL ADD CALLDATALOAD DUP2 MSTORE PUSH1 0x20 ADD DUP7 DUP2 MSTORE PUSH1 0x20 ADD DUP6 DUP2 MSTORE POP SWAP1 DUP1 PUSH1 0x1 DUP2 SLOAD ADD DUP1 DUP3 SSTORE DUP1 SWAP2 POP POP PUSH1 0x1 SWAP1 SUB SWAP1 PUSH1 0x0 MSTORE PUSH1 0x20 PUSH1 0x0 KECCAK256 SWAP1 PUSH1 0x4 MUL ADD PUSH1 0x0 SWAP1 SWAP2 SWAP1 SWAP2 SWAP1 SWAP2 POP SWAP1 PUSH1 0x4 PUSH2 0x34EB SWAP3 SWAP2 SWAP1 PUSH2 0x3A63 JUMP JUMPDEST POP DUP1 DUP1 PUSH2 0x34F7 SWAP1 PUSH2 0x46FD JUMP JUMPDEST SWAP2 POP POP PUSH2 0x3337 JUMP JUMPDEST POP DUP1 PUSH1 0x6 PUSH1 0x0 DUP3 DUP3 SLOAD PUSH2 0x3512 SWAP2 SWAP1 PUSH2 0x46C9 JUMP JUMPDEST SWAP3 POP POP DUP2 SWAP1 SSTORE POP PUSH32 0xF15EE0942522997D9F4605D8B731B728A4125926AD43AB06290856EB6C3978ED DUP2 PUSH1 0x40 MLOAD PUSH2 0x3548 SWAP2 SWAP1 PUSH2 0x3D35 JUMP JUMPDEST PUSH1 0x40 MLOAD DUP1 SWAP2 SUB SWAP1 LOG1 POP POP POP POP POP POP POP POP JUMP JUMPDEST PUSH1 0x0 PUSH1 0x6 SLOAD PUSH2 0x3567 PUSH2 0x35C8 JUMP JUMPDEST LT ISZERO PUSH2 0x35A8 JUMPI PUSH1 0x40 MLOAD PUSH32 0x8C379A000000000000000000000000000000000000000000000000000000000 DUP2 MSTORE PUSH1 0x4 ADD PUSH2 0x359F SWAP1 PUSH2 0x5C88 JUMP JUMPDEST PUSH1 0x40 MLOAD DUP1 SWAP2 SUB SWAP1 REVERT JUMPDEST PUSH1 0x0 PUSH1 0x6 SLOAD PUSH2 0x35B5 PUSH2 0x35C8 JUMP JUMPDEST PUSH2 0x35BF SWAP2 SWAP1 PUSH2 0x4745 JUMP JUMPDEST SWAP1 POP DUP1 SWAP2 POP POP SWAP1 JUMP JUMPDEST PUSH1 0x0 PUSH2 0x35D2 PUSH2 0x2F4D JUMP JUMPDEST PUSH20 0xFFFFFFFFFFFFFFFFFFFFFFFFFFFFFFFFFFFFFFFF AND PUSH4 0x70A08231 ADDRESS PUSH1 0x40 MLOAD DUP3 PUSH4 0xFFFFFFFF AND PUSH1 0xE0 SHL DUP2 MSTORE PUSH1 0x4 ADD PUSH2 0x360A SWAP2 SWAP1 PUSH2 0x3BF0 JUMP JUMPDEST PUSH1 0x20 PUSH1 0x40 MLOAD DUP1 DUP4 SUB DUP2 DUP7 GAS STATICCALL ISZERO DUP1 ISZERO PUSH2 0x3627 JUMPI RETURNDATASIZE PUSH1 0x0 DUP1 RETURNDATACOPY RETURNDATASIZE PUSH1 0x0 REVERT JUMPDEST POP POP POP POP PUSH1 0x40 MLOAD RETURNDATASIZE PUSH1 0x1F NOT PUSH1 0x1F DUP3 ADD AND DUP3 ADD DUP1 PUSH1 0x40 MSTORE POP DUP2 ADD SWAP1 PUSH2 0x364B SWAP2 SWAP1 PUSH2 0x5CBD JUMP JUMPDEST SWAP1 POP SWAP1 JUMP JUMPDEST PUSH1 0x0 DUP1 PUSH1 0x0 SWAP1 SLOAD SWAP1 PUSH2 0x100 EXP SWAP1 DIV PUSH20 0xFFFFFFFFFFFFFFFFFFFFFFFFFFFFFFFFFFFFFFFF AND SWAP1 POP DUP2 PUSH1 0x0 DUP1 PUSH2 0x100 EXP DUP2 SLOAD DUP2 PUSH20 0xFFFFFFFFFFFFFFFFFFFFFFFFFFFFFFFFFFFFFFFF MUL NOT AND SWAP1 DUP4 PUSH20 0xFFFFFFFFFFFFFFFFFFFFFFFFFFFFFFFFFFFFFFFF AND MUL OR SWAP1 SSTORE POP DUP2 PUSH20 0xFFFFFFFFFFFFFFFFFFFFFFFFFFFFFFFFFFFFFFFF AND DUP2 PUSH20 0xFFFFFFFFFFFFFFFFFFFFFFFFFFFFFFFFFFFFFFFF AND PUSH32 0x8BE0079C531659141344CD1FD0A4F28419497F9722A3DAAFE3B4186F6B6457E0 PUSH1 0x40 MLOAD PUSH1 0x40 MLOAD DUP1 SWAP2 SUB SWAP1 LOG3 POP POP JUMP JUMPDEST PUSH1 0x0 CALLER SWAP1 POP SWAP1 JUMP JUMPDEST PUSH1 0x0 PUSH2 0x377E DUP3 PUSH1 0x40 MLOAD DUP1 PUSH1 0x40 ADD PUSH1 0x40 MSTORE DUP1 PUSH1 0x20 DUP2 MSTORE PUSH1 0x20 ADD PUSH32 0x5361666545524332303A206C6F772D6C6576656C2063616C6C206661696C6564 DUP2 MSTORE POP DUP6 PUSH20 0xFFFFFFFFFFFFFFFFFFFFFFFFFFFFFFFFFFFFFFFF AND PUSH2 0x37E3 SWAP1 SWAP3 SWAP2 SWAP1 PUSH4 0xFFFFFFFF AND JUMP JUMPDEST SWAP1 POP PUSH1 0x0 DUP2 MLOAD GT ISZERO PUSH2 0x37DE JUMPI DUP1 DUP1 PUSH1 0x20 ADD SWAP1 MLOAD DUP2 ADD SWAP1 PUSH2 0x379E SWAP2 SWAP1 PUSH2 0x5CFF JUMP JUMPDEST PUSH2 0x37DD JUMPI PUSH1 0x40 MLOAD PUSH32 0x8C379A000000000000000000000000000000000000000000000000000000000 DUP2 MSTORE PUSH1 0x4 ADD PUSH2 0x37D4 SWAP1 PUSH2 0x5D9E JUMP JUMPDEST PUSH1 0x40 MLOAD DUP1 SWAP2 SUB SWAP1 REVERT JUMPDEST JUMPDEST POP POP POP JUMP JUMPDEST PUSH1 0x60 PUSH2 0x37F2 DUP5 DUP5 PUSH1 0x0 DUP6 PUSH2 0x37FB JUMP JUMPDEST SWAP1 POP SWAP4 SWAP3 POP POP POP JUMP JUMPDEST PUSH1 0x60 DUP3 SELFBALANCE LT ISZERO PUSH2 0x3840 JUMPI PUSH1 0x40 MLOAD PUSH32 0x8C379A000000000000000000000000000000000000000000000000000000000 DUP2 MSTORE PUSH1 0x4 ADD PUSH2 0x3837 SWAP1 PUSH2 0x5E30 JUMP JUMPDEST PUSH1 0x40 MLOAD DUP1 SWAP2 SUB SWAP1 REVERT JUMPDEST PUSH2 0x3849 DUP6 PUSH2 0x390F JUMP JUMPDEST PUSH2 0x3888 JUMPI PUSH1 0x40 MLOAD PUSH32 0x8C379A000000000000000000000000000000000000000000000000000000000 DUP2 MSTORE PUSH1 0x4 ADD PUSH2 0x387F SWAP1 PUSH2 0x5E9C JUMP JUMPDEST PUSH1 0x40 MLOAD DUP1 SWAP2 SUB SWAP1 REVERT JUMPDEST PUSH1 0x0 DUP1 DUP7 PUSH20 0xFFFFFFFFFFFFFFFFFFFFFFFFFFFFFFFFFFFFFFFF AND DUP6 DUP8 PUSH1 0x40 MLOAD PUSH2 0x38B1 SWAP2 SWAP1 PUSH2 0x5F03 JUMP JUMPDEST PUSH1 0x0 PUSH1 0x40 MLOAD DUP1 DUP4 SUB DUP2 DUP6 DUP8 GAS CALL SWAP3 POP POP POP RETURNDATASIZE DUP1 PUSH1 0x0 DUP2 EQ PUSH2 0x38EE JUMPI PUSH1 0x40 MLOAD SWAP2 POP PUSH1 0x1F NOT PUSH1 0x3F RETURNDATASIZE ADD AND DUP3 ADD PUSH1 0x40 MSTORE RETURNDATASIZE DUP3 MSTORE RETURNDATASIZE PUSH1 0x0 PUSH1 0x20 DUP5 ADD RETURNDATACOPY PUSH2 0x38F3 JUMP JUMPDEST PUSH1 0x60 SWAP2 POP JUMPDEST POP SWAP2 POP SWAP2 POP PUSH2 0x3903 DUP3 DUP3 DUP7 PUSH2 0x3932 JUMP JUMPDEST SWAP3 POP POP POP SWAP5 SWAP4 POP POP POP POP JUMP JUMPDEST PUSH1 0x0 DUP1 DUP3 PUSH20 0xFFFFFFFFFFFFFFFFFFFFFFFFFFFFFFFFFFFFFFFF AND EXTCODESIZE GT SWAP1 POP SWAP2 SWAP1 POP JUMP JUMPDEST PUSH1 0x60 DUP4 ISZERO PUSH2 0x3942 JUMPI DUP3 SWAP1 POP PUSH2 0x3992 JUMP JUMPDEST PUSH1 0x0 DUP4 MLOAD GT ISZERO PUSH2 0x3955 JUMPI DUP3 MLOAD DUP1 DUP5 PUSH1 0x20 ADD REVERT JUMPDEST DUP2 PUSH1 0x40 MLOAD PUSH32 0x8C379A000000000000000000000000000000000000000000000000000000000 DUP2 MSTORE PUSH1 0x4 ADD PUSH2 0x3989 SWAP2 SWAP1 PUSH2 0x42B4 JUMP JUMPDEST PUSH1 0x40 MLOAD DUP1 SWAP2 SUB SWAP1 REVERT JUMPDEST SWAP4 SWAP3 POP POP POP JUMP JUMPDEST POP PUSH1 0x0 DUP2 SSTORE PUSH1 0x1 ADD PUSH1 0x0 DUP2 SSTORE PUSH1 0x1 ADD PUSH1 0x0 DUP2 SSTORE PUSH1 0x1 ADD PUSH1 0x0 SWAP1 SSTORE JUMP JUMPDEST POP DUP1 SLOAD PUSH1 0x0 DUP3 SSTORE PUSH1 0x4 MUL SWAP1 PUSH1 0x0 MSTORE PUSH1 0x20 PUSH1 0x0 KECCAK256 SWAP1 DUP2 ADD SWAP1 PUSH2 0x39D6 SWAP2 SWAP1 PUSH2 0x3B01 JUMP JUMPDEST POP JUMP JUMPDEST DUP3 DUP1 SLOAD DUP3 DUP3 SSTORE SWAP1 PUSH1 0x0 MSTORE PUSH1 0x20 PUSH1 0x0 KECCAK256 SWAP1 DUP2 ADD SWAP3 DUP3 ISZERO PUSH2 0x3A52 JUMPI SWAP2 PUSH1 0x20 MUL DUP3 ADD JUMPDEST DUP3 DUP2 GT ISZERO PUSH2 0x3A51 JUMPI DUP3 MLOAD DUP3 PUSH1 0x0 PUSH2 0x100 EXP DUP2 SLOAD DUP2 PUSH20 0xFFFFFFFFFFFFFFFFFFFFFFFFFFFFFFFFFFFFFFFF MUL NOT AND SWAP1 DUP4 PUSH20 0xFFFFFFFFFFFFFFFFFFFFFFFFFFFFFFFFFFFFFFFF AND MUL OR SWAP1 SSTORE POP SWAP2 PUSH1 0x20 ADD SWAP2 SWAP1 PUSH1 0x1 ADD SWAP1 PUSH2 0x39F9 JUMP JUMPDEST JUMPDEST POP SWAP1 POP PUSH2 0x3A5F SWAP2 SWAP1 PUSH2 0x3B25 JUMP JUMPDEST POP SWAP1 JUMP JUMPDEST DUP3 PUSH1 0x4 DUP2 ADD SWAP3 DUP3 ISZERO PUSH2 0x3A92 JUMPI SWAP2 PUSH1 0x20 MUL DUP3 ADD JUMPDEST DUP3 DUP2 GT ISZERO PUSH2 0x3A91 JUMPI DUP3 MLOAD DUP3 SSTORE SWAP2 PUSH1 0x20 ADD SWAP2 SWAP1 PUSH1 0x1 ADD SWAP1 PUSH2 0x3A76 JUMP JUMPDEST JUMPDEST POP SWAP1 POP PUSH2 0x3A9F SWAP2 SWAP1 PUSH2 0x3B25 JUMP JUMPDEST POP SWAP1 JUMP JUMPDEST DUP3 DUP1 SLOAD DUP3 DUP3 SSTORE SWAP1 PUSH1 0x0 MSTORE PUSH1 0x20 PUSH1 0x0 KECCAK256 SWAP1 PUSH1 0x4 MUL DUP2 ADD SWAP3 DUP3 ISZERO PUSH2 0x3AF0 JUMPI SWAP2 PUSH1 0x20 MUL DUP3 ADD JUMPDEST DUP3 DUP2 GT ISZERO PUSH2 0x3AEF JUMPI DUP3 MLOAD DUP3 SWAP1 PUSH1 0x4 PUSH2 0x3ADF SWAP3 SWAP2 SWAP1 PUSH2 0x3A63 JUMP JUMPDEST POP SWAP2 PUSH1 0x20 ADD SWAP2 SWAP1 PUSH1 0x4 ADD SWAP1 PUSH2 0x3AC6 JUMP JUMPDEST JUMPDEST POP SWAP1 POP PUSH2 0x3AFD SWAP2 SWAP1 PUSH2 0x3B01 JUMP JUMPDEST POP SWAP1 JUMP JUMPDEST JUMPDEST DUP1 DUP3 GT ISZERO PUSH2 0x3B21 JUMPI PUSH1 0x0 DUP2 DUP2 PUSH2 0x3B18 SWAP2 SWAP1 PUSH2 0x3999 JUMP JUMPDEST POP PUSH1 0x4 ADD PUSH2 0x3B02 JUMP JUMPDEST POP SWAP1 JUMP JUMPDEST JUMPDEST DUP1 DUP3 GT ISZERO PUSH2 0x3B3E JUMPI PUSH1 0x0 DUP2 PUSH1 0x0 SWAP1 SSTORE POP PUSH1 0x1 ADD PUSH2 0x3B26 JUMP JUMPDEST POP SWAP1 JUMP JUMPDEST PUSH1 0x0 PUSH1 0x40 MLOAD SWAP1 POP SWAP1 JUMP JUMPDEST PUSH1 0x0 DUP1 REVERT JUMPDEST PUSH1 0x0 DUP1 REVERT JUMPDEST PUSH1 0x0 PUSH20 0xFFFFFFFFFFFFFFFFFFFFFFFFFFFFFFFFFFFFFFFF DUP3 AND SWAP1 POP SWAP2 SWAP1 POP JUMP JUMPDEST PUSH1 0x0 PUSH2 0x3B81 DUP3 PUSH2 0x3B56 JUMP JUMPDEST SWAP1 POP SWAP2 SWAP1 POP JUMP JUMPDEST PUSH2 0x3B91 DUP2 PUSH2 0x3B76 JUMP JUMPDEST DUP2 EQ PUSH2 0x3B9C JUMPI PUSH1 0x0 DUP1 REVERT JUMPDEST POP JUMP JUMPDEST PUSH1 0x0 DUP2 CALLDATALOAD SWAP1 POP PUSH2 0x3BAE DUP2 PUSH2 0x3B88 JUMP JUMPDEST SWAP3 SWAP2 POP POP JUMP JUMPDEST PUSH1 0x0 PUSH1 0x20 DUP3 DUP5 SUB SLT ISZERO PUSH2 0x3BCA JUMPI PUSH2 0x3BC9 PUSH2 0x3B4C JUMP JUMPDEST JUMPDEST PUSH1 0x0 PUSH2 0x3BD8 DUP5 DUP3 DUP6 ADD PUSH2 0x3B9F JUMP JUMPDEST SWAP2 POP POP SWAP3 SWAP2 POP POP JUMP JUMPDEST PUSH2 0x3BEA DUP2 PUSH2 0x3B76 JUMP JUMPDEST DUP3 MSTORE POP POP JUMP JUMPDEST PUSH1 0x0 PUSH1 0x20 DUP3 ADD SWAP1 POP PUSH2 0x3C05 PUSH1 0x0 DUP4 ADD DUP5 PUSH2 0x3BE1 JUMP JUMPDEST SWAP3 SWAP2 POP POP JUMP JUMPDEST PUSH1 0x0 DUP1 REVERT JUMPDEST PUSH1 0x0 DUP1 REVERT JUMPDEST PUSH1 0x0 DUP1 REVERT JUMPDEST PUSH1 0x0 DUP1 DUP4 PUSH1 0x1F DUP5 ADD SLT PUSH2 0x3C30 JUMPI PUSH2 0x3C2F PUSH2 0x3C0B JUMP JUMPDEST JUMPDEST DUP3 CALLDATALOAD SWAP1 POP PUSH8 0xFFFFFFFFFFFFFFFF DUP2 GT ISZERO PUSH2 0x3C4D JUMPI PUSH2 0x3C4C PUSH2 0x3C10 JUMP JUMPDEST JUMPDEST PUSH1 0x20 DUP4 ADD SWAP2 POP DUP4 PUSH1 0x1 DUP3 MUL DUP4 ADD GT ISZERO PUSH2 0x3C69 JUMPI PUSH2 0x3C68 PUSH2 0x3C15 JUMP JUMPDEST JUMPDEST SWAP3 POP SWAP3 SWAP1 POP JUMP JUMPDEST PUSH1 0x0 DUP2 ISZERO ISZERO SWAP1 POP SWAP2 SWAP1 POP JUMP JUMPDEST PUSH2 0x3C85 DUP2 PUSH2 0x3C70 JUMP JUMPDEST DUP2 EQ PUSH2 0x3C90 JUMPI PUSH1 0x0 DUP1 REVERT JUMPDEST POP JUMP JUMPDEST PUSH1 0x0 DUP2 CALLDATALOAD SWAP1 POP PUSH2 0x3CA2 DUP2 PUSH2 0x3C7C JUMP JUMPDEST SWAP3 SWAP2 POP POP JUMP JUMPDEST PUSH1 0x0 DUP1 PUSH1 0x0 DUP1 PUSH1 0x60 DUP6 DUP8 SUB SLT ISZERO PUSH2 0x3CC2 JUMPI PUSH2 0x3CC1 PUSH2 0x3B4C JUMP JUMPDEST JUMPDEST PUSH1 0x0 PUSH2 0x3CD0 DUP8 DUP3 DUP9 ADD PUSH2 0x3B9F JUMP JUMPDEST SWAP5 POP POP PUSH1 0x20 DUP6 ADD CALLDATALOAD PUSH8 0xFFFFFFFFFFFFFFFF DUP2 GT ISZERO PUSH2 0x3CF1 JUMPI PUSH2 0x3CF0 PUSH2 0x3B51 JUMP JUMPDEST JUMPDEST PUSH2 0x3CFD DUP8 DUP3 DUP9 ADD PUSH2 0x3C1A JUMP JUMPDEST SWAP4 POP SWAP4 POP POP PUSH1 0x40 PUSH2 0x3D10 DUP8 DUP3 DUP9 ADD PUSH2 0x3C93 JUMP JUMPDEST SWAP2 POP POP SWAP3 SWAP6 SWAP2 SWAP5 POP SWAP3 POP JUMP JUMPDEST PUSH1 0x0 DUP2 SWAP1 POP SWAP2 SWAP1 POP JUMP JUMPDEST PUSH2 0x3D2F DUP2 PUSH2 0x3D1C JUMP JUMPDEST DUP3 MSTORE POP POP JUMP JUMPDEST PUSH1 0x0 PUSH1 0x20 DUP3 ADD SWAP1 POP PUSH2 0x3D4A PUSH1 0x0 DUP4 ADD DUP5 PUSH2 0x3D26 JUMP JUMPDEST SWAP3 SWAP2 POP POP JUMP JUMPDEST PUSH1 0x0 DUP1 DUP4 PUSH1 0x1F DUP5 ADD SLT PUSH2 0x3D66 JUMPI PUSH2 0x3D65 PUSH2 0x3C0B JUMP JUMPDEST JUMPDEST DUP3 CALLDATALOAD SWAP1 POP PUSH8 0xFFFFFFFFFFFFFFFF DUP2 GT ISZERO PUSH2 0x3D83 JUMPI PUSH2 0x3D82 PUSH2 0x3C10 JUMP JUMPDEST JUMPDEST PUSH1 0x20 DUP4 ADD SWAP2 POP DUP4 PUSH1 0x20 DUP3 MUL DUP4 ADD GT ISZERO PUSH2 0x3D9F JUMPI PUSH2 0x3D9E PUSH2 0x3C15 JUMP JUMPDEST JUMPDEST SWAP3 POP SWAP3 SWAP1 POP JUMP JUMPDEST PUSH1 0x0 DUP1 DUP4 PUSH1 0x1F DUP5 ADD SLT PUSH2 0x3DBC JUMPI PUSH2 0x3DBB PUSH2 0x3C0B JUMP JUMPDEST JUMPDEST DUP3 CALLDATALOAD SWAP1 POP PUSH8 0xFFFFFFFFFFFFFFFF DUP2 GT ISZERO PUSH2 0x3DD9 JUMPI PUSH2 0x3DD8 PUSH2 0x3C10 JUMP JUMPDEST JUMPDEST PUSH1 0x20 DUP4 ADD SWAP2 POP DUP4 PUSH1 0x20 DUP3 MUL DUP4 ADD GT ISZERO PUSH2 0x3DF5 JUMPI PUSH2 0x3DF4 PUSH2 0x3C15 JUMP JUMPDEST JUMPDEST SWAP3 POP SWAP3 SWAP1 POP JUMP JUMPDEST PUSH1 0x0 DUP1 PUSH1 0x0 DUP1 PUSH1 0x40 DUP6 DUP8 SUB SLT ISZERO PUSH2 0x3E16 JUMPI PUSH2 0x3E15 PUSH2 0x3B4C JUMP JUMPDEST JUMPDEST PUSH1 0x0 DUP6 ADD CALLDATALOAD PUSH8 0xFFFFFFFFFFFFFFFF DUP2 GT ISZERO PUSH2 0x3E34 JUMPI PUSH2 0x3E33 PUSH2 0x3B51 JUMP JUMPDEST JUMPDEST PUSH2 0x3E40 DUP8 DUP3 DUP9 ADD PUSH2 0x3D50 JUMP JUMPDEST SWAP5 POP SWAP5 POP POP PUSH1 0x20 DUP6 ADD CALLDATALOAD PUSH8 0xFFFFFFFFFFFFFFFF DUP2 GT ISZERO PUSH2 0x3E63 JUMPI PUSH2 0x3E62 PUSH2 0x3B51 JUMP JUMPDEST JUMPDEST PUSH2 0x3E6F DUP8 DUP3 DUP9 ADD PUSH2 0x3DA6 JUMP JUMPDEST SWAP3 POP SWAP3 POP POP SWAP3 SWAP6 SWAP2 SWAP5 POP SWAP3 POP JUMP JUMPDEST PUSH1 0x0 DUP2 MLOAD SWAP1 POP SWAP2 SWAP1 POP JUMP JUMPDEST PUSH1 0x0 DUP3 DUP3 MSTORE PUSH1 0x20 DUP3 ADD SWAP1 POP SWAP3 SWAP2 POP POP JUMP JUMPDEST PUSH1 0x0 DUP2 SWAP1 POP PUSH1 0x20 DUP3 ADD SWAP1 POP SWAP2 SWAP1 POP JUMP JUMPDEST PUSH2 0x3EB2 DUP2 PUSH2 0x3B76 JUMP JUMPDEST DUP3 MSTORE POP POP JUMP JUMPDEST PUSH1 0x0 PUSH2 0x3EC4 DUP4 DUP4 PUSH2 0x3EA9 JUMP JUMPDEST PUSH1 0x20 DUP4 ADD SWAP1 POP SWAP3 SWAP2 POP POP JUMP JUMPDEST PUSH1 0x0 PUSH1 0x20 DUP3 ADD SWAP1 POP SWAP2 SWAP1 POP JUMP JUMPDEST PUSH1 0x0 PUSH2 0x3EE8 DUP3 PUSH2 0x3E7D JUMP JUMPDEST PUSH2 0x3EF2 DUP2 DUP6 PUSH2 0x3E88 JUMP JUMPDEST SWAP4 POP PUSH2 0x3EFD DUP4 PUSH2 0x3E99 JUMP JUMPDEST DUP1 PUSH1 0x0 JUMPDEST DUP4 DUP2 LT ISZERO PUSH2 0x3F2E JUMPI DUP2 MLOAD PUSH2 0x3F15 DUP9 DUP3 PUSH2 0x3EB8 JUMP JUMPDEST SWAP8 POP PUSH2 0x3F20 DUP4 PUSH2 0x3ED0 JUMP JUMPDEST SWAP3 POP POP PUSH1 0x1 DUP2 ADD SWAP1 POP PUSH2 0x3F01 JUMP JUMPDEST POP DUP6 SWAP4 POP POP POP POP SWAP3 SWAP2 POP POP JUMP JUMPDEST PUSH1 0x0 PUSH1 0x20 DUP3 ADD SWAP1 POP DUP2 DUP2 SUB PUSH1 0x0 DUP4 ADD MSTORE PUSH2 0x3F55 DUP2 DUP5 PUSH2 0x3EDD JUMP JUMPDEST SWAP1 POP SWAP3 SWAP2 POP POP JUMP JUMPDEST PUSH1 0x0 DUP1 DUP4 PUSH1 0x1F DUP5 ADD SLT PUSH2 0x3F73 JUMPI PUSH2 0x3F72 PUSH2 0x3C0B JUMP JUMPDEST JUMPDEST DUP3 CALLDATALOAD SWAP1 POP PUSH8 0xFFFFFFFFFFFFFFFF DUP2 GT ISZERO PUSH2 0x3F90 JUMPI PUSH2 0x3F8F PUSH2 0x3C10 JUMP JUMPDEST JUMPDEST PUSH1 0x20 DUP4 ADD SWAP2 POP DUP4 PUSH1 0x20 DUP3 MUL DUP4 ADD GT ISZERO PUSH2 0x3FAC JUMPI PUSH2 0x3FAB PUSH2 0x3C15 JUMP JUMPDEST JUMPDEST SWAP3 POP SWAP3 SWAP1 POP JUMP JUMPDEST PUSH1 0x0 DUP1 PUSH1 0x0 DUP1 PUSH1 0x0 PUSH1 0x60 DUP7 DUP9 SUB SLT ISZERO PUSH2 0x3FCF JUMPI PUSH2 0x3FCE PUSH2 0x3B4C JUMP JUMPDEST JUMPDEST PUSH1 0x0 PUSH2 0x3FDD DUP9 DUP3 DUP10 ADD PUSH2 0x3B9F JUMP JUMPDEST SWAP6 POP POP PUSH1 0x20 DUP7 ADD CALLDATALOAD PUSH8 0xFFFFFFFFFFFFFFFF DUP2 GT ISZERO PUSH2 0x3FFE JUMPI PUSH2 0x3FFD PUSH2 0x3B51 JUMP JUMPDEST JUMPDEST PUSH2 0x400A DUP9 DUP3 DUP10 ADD PUSH2 0x3F5D JUMP JUMPDEST SWAP5 POP SWAP5 POP POP PUSH1 0x40 DUP7 ADD CALLDATALOAD PUSH8 0xFFFFFFFFFFFFFFFF DUP2 GT ISZERO PUSH2 0x402D JUMPI PUSH2 0x402C PUSH2 0x3B51 JUMP JUMPDEST JUMPDEST PUSH2 0x4039 DUP9 DUP3 DUP10 ADD PUSH2 0x3F5D JUMP JUMPDEST SWAP3 POP SWAP3 POP POP SWAP3 SWAP6 POP SWAP3 SWAP6 SWAP1 SWAP4 POP JUMP JUMPDEST PUSH1 0x0 DUP2 MLOAD SWAP1 POP SWAP2 SWAP1 POP JUMP JUMPDEST PUSH1 0x0 DUP3 DUP3 MSTORE PUSH1 0x20 DUP3 ADD SWAP1 POP SWAP3 SWAP2 POP POP JUMP JUMPDEST PUSH1 0x0 DUP2 SWAP1 POP PUSH1 0x20 DUP3 ADD SWAP1 POP SWAP2 SWAP1 POP JUMP JUMPDEST PUSH1 0x0 PUSH1 0x4 SWAP1 POP SWAP2 SWAP1 POP JUMP JUMPDEST PUSH1 0x0 DUP2 SWAP1 POP SWAP3 SWAP2 POP POP JUMP JUMPDEST PUSH1 0x0 DUP2 SWAP1 POP SWAP2 SWAP1 POP JUMP JUMPDEST PUSH2 0x409D DUP2 PUSH2 0x3D1C JUMP JUMPDEST DUP3 MSTORE POP POP JUMP JUMPDEST PUSH1 0x0 PUSH2 0x40AF DUP4 DUP4 PUSH2 0x4094 JUMP JUMPDEST PUSH1 0x20 DUP4 ADD SWAP1 POP SWAP3 SWAP2 POP POP JUMP JUMPDEST PUSH1 0x0 PUSH1 0x20 DUP3 ADD SWAP1 POP SWAP2 SWAP1 POP JUMP JUMPDEST PUSH2 0x40D1 DUP2 PUSH2 0x4074 JUMP JUMPDEST PUSH2 0x40DB DUP2 DUP5 PUSH2 0x407F JUMP JUMPDEST SWAP3 POP PUSH2 0x40E6 DUP3 PUSH2 0x408A JUMP JUMPDEST DUP1 PUSH1 0x0 JUMPDEST DUP4 DUP2 LT ISZERO PUSH2 0x4117 JUMPI DUP2 MLOAD PUSH2 0x40FE DUP8 DUP3 PUSH2 0x40A3 JUMP JUMPDEST SWAP7 POP PUSH2 0x4109 DUP4 PUSH2 0x40BB JUMP JUMPDEST SWAP3 POP POP PUSH1 0x1 DUP2 ADD SWAP1 POP PUSH2 0x40EA JUMP JUMPDEST POP POP POP POP POP POP JUMP JUMPDEST PUSH1 0x0 PUSH2 0x412B DUP4 DUP4 PUSH2 0x40C8 JUMP JUMPDEST PUSH1 0x80 DUP4 ADD SWAP1 POP SWAP3 SWAP2 POP POP JUMP JUMPDEST PUSH1 0x0 PUSH1 0x20 DUP3 ADD SWAP1 POP SWAP2 SWAP1 POP JUMP JUMPDEST PUSH1 0x0 PUSH2 0x414F DUP3 PUSH2 0x4048 JUMP JUMPDEST PUSH2 0x4159 DUP2 DUP6 PUSH2 0x4053 JUMP JUMPDEST SWAP4 POP PUSH2 0x4164 DUP4 PUSH2 0x4064 JUMP JUMPDEST DUP1 PUSH1 0x0 JUMPDEST DUP4 DUP2 LT ISZERO PUSH2 0x4195 JUMPI DUP2 MLOAD PUSH2 0x417C DUP9 DUP3 PUSH2 0x411F JUMP JUMPDEST SWAP8 POP PUSH2 0x4187 DUP4 PUSH2 0x4137 JUMP JUMPDEST SWAP3 POP POP PUSH1 0x1 DUP2 ADD SWAP1 POP PUSH2 0x4168 JUMP JUMPDEST POP DUP6 SWAP4 POP POP POP POP SWAP3 SWAP2 POP POP JUMP JUMPDEST PUSH1 0x0 PUSH1 0x20 DUP3 ADD SWAP1 POP DUP2 DUP2 SUB PUSH1 0x0 DUP4 ADD MSTORE PUSH2 0x41BC DUP2 DUP5 PUSH2 0x4144 JUMP JUMPDEST SWAP1 POP SWAP3 SWAP2 POP POP JUMP JUMPDEST PUSH1 0x0 DUP1 PUSH1 0x0 PUSH1 0x40 DUP5 DUP7 SUB SLT ISZERO PUSH2 0x41DD JUMPI PUSH2 0x41DC PUSH2 0x3B4C JUMP JUMPDEST JUMPDEST PUSH1 0x0 PUSH2 0x41EB DUP7 DUP3 DUP8 ADD PUSH2 0x3B9F JUMP JUMPDEST SWAP4 POP POP PUSH1 0x20 DUP5 ADD CALLDATALOAD PUSH8 0xFFFFFFFFFFFFFFFF DUP2 GT ISZERO PUSH2 0x420C JUMPI PUSH2 0x420B PUSH2 0x3B51 JUMP JUMPDEST JUMPDEST PUSH2 0x4218 DUP7 DUP3 DUP8 ADD PUSH2 0x3F5D JUMP JUMPDEST SWAP3 POP SWAP3 POP POP SWAP3 POP SWAP3 POP SWAP3 JUMP JUMPDEST PUSH1 0x0 DUP2 MLOAD SWAP1 POP SWAP2 SWAP1 POP JUMP JUMPDEST PUSH1 0x0 DUP3 DUP3 MSTORE PUSH1 0x20 DUP3 ADD SWAP1 POP SWAP3 SWAP2 POP POP JUMP JUMPDEST PUSH1 0x0 JUMPDEST DUP4 DUP2 LT ISZERO PUSH2 0x425E JUMPI DUP1 DUP3 ADD MLOAD DUP2 DUP5 ADD MSTORE PUSH1 0x20 DUP2 ADD SWAP1 POP PUSH2 0x4243 JUMP JUMPDEST PUSH1 0x0 DUP5 DUP5 ADD MSTORE POP POP POP POP JUMP JUMPDEST PUSH1 0x0 PUSH1 0x1F NOT PUSH1 0x1F DUP4 ADD AND SWAP1 POP SWAP2 SWAP1 POP JUMP JUMPDEST PUSH1 0x0 PUSH2 0x4286 DUP3 PUSH2 0x4224 JUMP JUMPDEST PUSH2 0x4290 DUP2 DUP6 PUSH2 0x422F JUMP JUMPDEST SWAP4 POP PUSH2 0x42A0 DUP2 DUP6 PUSH1 0x20 DUP7 ADD PUSH2 0x4240 JUMP JUMPDEST PUSH2 0x42A9 DUP2 PUSH2 0x426A JUMP JUMPDEST DUP5 ADD SWAP2 POP POP SWAP3 SWAP2 POP POP JUMP JUMPDEST PUSH1 0x0 PUSH1 0x20 DUP3 ADD SWAP1 POP DUP2 DUP2 SUB PUSH1 0x0 DUP4 ADD MSTORE PUSH2 0x42CE DUP2 DUP5 PUSH2 0x427B JUMP JUMPDEST SWAP1 POP SWAP3 SWAP2 POP POP JUMP JUMPDEST PUSH2 0x42DF DUP2 PUSH2 0x3D1C JUMP JUMPDEST DUP2 EQ PUSH2 0x42EA JUMPI PUSH1 0x0 DUP1 REVERT JUMPDEST POP JUMP JUMPDEST PUSH1 0x0 DUP2 CALLDATALOAD SWAP1 POP PUSH2 0x42FC DUP2 PUSH2 0x42D6 JUMP JUMPDEST SWAP3 SWAP2 POP POP JUMP JUMPDEST PUSH1 0x0 DUP1 PUSH1 0x0 PUSH1 0x60 DUP5 DUP7 SUB SLT ISZERO PUSH2 0x431B JUMPI PUSH2 0x431A PUSH2 0x3B4C JUMP JUMPDEST JUMPDEST PUSH1 0x0 PUSH2 0x4329 DUP7 DUP3 DUP8 ADD PUSH2 0x3B9F JUMP JUMPDEST SWAP4 POP POP PUSH1 0x20 PUSH2 0x433A DUP7 DUP3 DUP8 ADD PUSH2 0x42ED JUMP JUMPDEST SWAP3 POP POP PUSH1 0x40 PUSH2 0x434B DUP7 DUP3 DUP8 ADD PUSH2 0x42ED JUMP JUMPDEST SWAP2 POP POP SWAP3 POP SWAP3 POP SWAP3 JUMP JUMPDEST PUSH1 0x0 DUP2 MLOAD SWAP1 POP SWAP2 SWAP1 POP JUMP JUMPDEST PUSH1 0x0 DUP3 DUP3 MSTORE PUSH1 0x20 DUP3 ADD SWAP1 POP SWAP3 SWAP2 POP POP JUMP JUMPDEST PUSH1 0x0 DUP2 SWAP1 POP PUSH1 0x20 DUP3 ADD SWAP1 POP SWAP2 SWAP1 POP JUMP JUMPDEST PUSH1 0x0 DUP3 DUP3 MSTORE PUSH1 0x20 DUP3 ADD SWAP1 POP SWAP3 SWAP2 POP POP JUMP JUMPDEST PUSH1 0x0 PUSH2 0x439D DUP3 PUSH2 0x4224 JUMP JUMPDEST PUSH2 0x43A7 DUP2 DUP6 PUSH2 0x4381 JUMP JUMPDEST SWAP4 POP PUSH2 0x43B7 DUP2 DUP6 PUSH1 0x20 DUP7 ADD PUSH2 0x4240 JUMP JUMPDEST PUSH2 0x43C0 DUP2 PUSH2 0x426A JUMP JUMPDEST DUP5 ADD SWAP2 POP POP SWAP3 SWAP2 POP POP JUMP JUMPDEST PUSH1 0x0 PUSH2 0x43D7 DUP4 DUP4 PUSH2 0x4392 JUMP JUMPDEST SWAP1 POP SWAP3 SWAP2 POP POP JUMP JUMPDEST PUSH1 0x0 PUSH1 0x20 DUP3 ADD SWAP1 POP SWAP2 SWAP1 POP JUMP JUMPDEST PUSH1 0x0 PUSH2 0x43F7 DUP3 PUSH2 0x4355 JUMP JUMPDEST PUSH2 0x4401 DUP2 DUP6 PUSH2 0x4360 JUMP JUMPDEST SWAP4 POP DUP4 PUSH1 0x20 DUP3 MUL DUP6 ADD PUSH2 0x4413 DUP6 PUSH2 0x4371 JUMP JUMPDEST DUP1 PUSH1 0x0 JUMPDEST DUP6 DUP2 LT ISZERO PUSH2 0x444F JUMPI DUP5 DUP5 SUB DUP10 MSTORE DUP2 MLOAD PUSH2 0x4430 DUP6 DUP3 PUSH2 0x43CB JUMP JUMPDEST SWAP5 POP PUSH2 0x443B DUP4 PUSH2 0x43DF JUMP JUMPDEST SWAP3 POP PUSH1 0x20 DUP11 ADD SWAP10 POP POP PUSH1 0x1 DUP2 ADD SWAP1 POP PUSH2 0x4417 JUMP JUMPDEST POP DUP3 SWAP8 POP DUP8 SWAP6 POP POP POP POP POP POP SWAP3 SWAP2 POP POP JUMP JUMPDEST PUSH1 0x0 PUSH1 0x20 DUP3 ADD SWAP1 POP DUP2 DUP2 SUB PUSH1 0x0 DUP4 ADD MSTORE PUSH2 0x447B DUP2 DUP5 PUSH2 0x43EC JUMP JUMPDEST SWAP1 POP SWAP3 SWAP2 POP POP JUMP JUMPDEST PUSH2 0x448C DUP2 PUSH2 0x3C70 JUMP JUMPDEST DUP3 MSTORE POP POP JUMP JUMPDEST PUSH1 0x0 PUSH1 0x20 DUP3 ADD SWAP1 POP PUSH2 0x44A7 PUSH1 0x0 DUP4 ADD DUP5 PUSH2 0x4483 JUMP JUMPDEST SWAP3 SWAP2 POP POP JUMP JUMPDEST PUSH1 0x0 DUP2 SWAP1 POP SWAP2 SWAP1 POP JUMP JUMPDEST PUSH1 0x0 PUSH2 0x44D2 PUSH2 0x44CD PUSH2 0x44C8 DUP5 PUSH2 0x3B56 JUMP JUMPDEST PUSH2 0x44AD JUMP JUMPDEST PUSH2 0x3B56 JUMP JUMPDEST SWAP1 POP SWAP2 SWAP1 POP JUMP JUMPDEST PUSH1 0x0 PUSH2 0x44E4 DUP3 PUSH2 0x44B7 JUMP JUMPDEST SWAP1 POP SWAP2 SWAP1 POP JUMP JUMPDEST PUSH1 0x0 PUSH2 0x44F6 DUP3 PUSH2 0x44D9 JUMP JUMPDEST SWAP1 POP SWAP2 SWAP1 POP JUMP JUMPDEST PUSH2 0x4506 DUP2 PUSH2 0x44EB JUMP JUMPDEST DUP3 MSTORE POP POP JUMP JUMPDEST PUSH1 0x0 PUSH1 0x20 DUP3 ADD SWAP1 POP PUSH2 0x4521 PUSH1 0x0 DUP4 ADD DUP5 PUSH2 0x44FD JUMP JUMPDEST SWAP3 SWAP2 POP POP JUMP JUMPDEST PUSH32 0x57616C6C657420686173206E65766572206368616E6765642100000000000000 PUSH1 0x0 DUP3 ADD MSTORE POP JUMP JUMPDEST PUSH1 0x0 PUSH2 0x455D PUSH1 0x19 DUP4 PUSH2 0x422F JUMP JUMPDEST SWAP2 POP PUSH2 0x4568 DUP3 PUSH2 0x4527 JUMP JUMPDEST PUSH1 0x20 DUP3 ADD SWAP1 POP SWAP2 SWAP1 POP JUMP JUMPDEST PUSH1 0x0 PUSH1 0x20 DUP3 ADD SWAP1 POP DUP2 DUP2 SUB PUSH1 0x0 DUP4 ADD MSTORE PUSH2 0x458C DUP2 PUSH2 0x4550 JUMP JUMPDEST SWAP1 POP SWAP2 SWAP1 POP JUMP JUMPDEST PUSH32 0x4F6E6C792062656E656669636961727921000000000000000000000000000000 PUSH1 0x0 DUP3 ADD MSTORE POP JUMP JUMPDEST PUSH1 0x0 PUSH2 0x45C9 PUSH1 0x11 DUP4 PUSH2 0x422F JUMP JUMPDEST SWAP2 POP PUSH2 0x45D4 DUP3 PUSH2 0x4593 JUMP JUMPDEST PUSH1 0x20 DUP3 ADD SWAP1 POP SWAP2 SWAP1 POP JUMP JUMPDEST PUSH1 0x0 PUSH1 0x20 DUP3 ADD SWAP1 POP DUP2 DUP2 SUB PUSH1 0x0 DUP4 ADD MSTORE PUSH2 0x45F8 DUP2 PUSH2 0x45BC JUMP JUMPDEST SWAP1 POP SWAP2 SWAP1 POP JUMP JUMPDEST PUSH32 0x42656E6566696369617279206E6F74206578697374696E672100000000000000 PUSH1 0x0 DUP3 ADD MSTORE POP JUMP JUMPDEST PUSH1 0x0 PUSH2 0x4635 PUSH1 0x19 DUP4 PUSH2 0x422F JUMP JUMPDEST SWAP2 POP PUSH2 0x4640 DUP3 PUSH2 0x45FF JUMP JUMPDEST PUSH1 0x20 DUP3 ADD SWAP1 POP SWAP2 SWAP1 POP JUMP JUMPDEST PUSH1 0x0 PUSH1 0x20 DUP3 ADD SWAP1 POP DUP2 DUP2 SUB PUSH1 0x0 DUP4 ADD MSTORE PUSH2 0x4664 DUP2 PUSH2 0x4628 JUMP JUMPDEST SWAP1 POP SWAP2 SWAP1 POP JUMP JUMPDEST PUSH32 0x4E487B7100000000000000000000000000000000000000000000000000000000 PUSH1 0x0 MSTORE PUSH1 0x32 PUSH1 0x4 MSTORE PUSH1 0x24 PUSH1 0x0 REVERT JUMPDEST PUSH32 0x4E487B7100000000000000000000000000000000000000000000000000000000 PUSH1 0x0 MSTORE PUSH1 0x11 PUSH1 0x4 MSTORE PUSH1 0x24 PUSH1 0x0 REVERT JUMPDEST PUSH1 0x0 PUSH2 0x46D4 DUP3 PUSH2 0x3D1C JUMP JUMPDEST SWAP2 POP PUSH2 0x46DF DUP4 PUSH2 0x3D1C JUMP JUMPDEST SWAP3 POP DUP3 DUP3 ADD SWAP1 POP DUP1 DUP3 GT ISZERO PUSH2 0x46F7 JUMPI PUSH2 0x46F6 PUSH2 0x469A JUMP JUMPDEST JUMPDEST SWAP3 SWAP2 POP POP JUMP JUMPDEST PUSH1 0x0 PUSH2 0x4708 DUP3 PUSH2 0x3D1C JUMP JUMPDEST SWAP2 POP PUSH32 0xFFFFFFFFFFFFFFFFFFFFFFFFFFFFFFFFFFFFFFFFFFFFFFFFFFFFFFFFFFFFFFFF DUP3 SUB PUSH2 0x473A JUMPI PUSH2 0x4739 PUSH2 0x469A JUMP JUMPDEST JUMPDEST PUSH1 0x1 DUP3 ADD SWAP1 POP SWAP2 SWAP1 POP JUMP JUMPDEST PUSH1 0x0 PUSH2 0x4750 DUP3 PUSH2 0x3D1C JUMP JUMPDEST SWAP2 POP PUSH2 0x475B DUP4 PUSH2 0x3D1C JUMP JUMPDEST SWAP3 POP DUP3 DUP3 SUB SWAP1 POP DUP2 DUP2 GT ISZERO PUSH2 0x4773 JUMPI PUSH2 0x4772 PUSH2 0x469A JUMP JUMPDEST JUMPDEST SWAP3 SWAP2 POP POP JUMP JUMPDEST PUSH32 0x4E6F7468696E6720666F72207472616E73666572210000000000000000000000 PUSH1 0x0 DUP3 ADD MSTORE POP JUMP JUMPDEST PUSH1 0x0 PUSH2 0x47AF PUSH1 0x15 DUP4 PUSH2 0x422F JUMP JUMPDEST SWAP2 POP PUSH2 0x47BA DUP3 PUSH2 0x4779 JUMP JUMPDEST PUSH1 0x20 DUP3 ADD SWAP1 POP SWAP2 SWAP1 POP JUMP JUMPDEST PUSH1 0x0 PUSH1 0x20 DUP3 ADD SWAP1 POP DUP2 DUP2 SUB PUSH1 0x0 DUP4 ADD MSTORE PUSH2 0x47DE DUP2 PUSH2 0x47A2 JUMP JUMPDEST SWAP1 POP SWAP2 SWAP1 POP JUMP JUMPDEST PUSH32 0x6E6F20726561736F6E0000000000000000000000000000000000000000000000 PUSH1 0x0 DUP3 ADD MSTORE POP JUMP JUMPDEST PUSH1 0x0 PUSH2 0x481B PUSH1 0x9 DUP4 PUSH2 0x422F JUMP JUMPDEST SWAP2 POP PUSH2 0x4826 DUP3 PUSH2 0x47E5 JUMP JUMPDEST PUSH1 0x20 DUP3 ADD SWAP1 POP SWAP2 SWAP1 POP JUMP JUMPDEST PUSH1 0x0 PUSH1 0x20 DUP3 ADD SWAP1 POP DUP2 DUP2 SUB PUSH1 0x0 DUP4 ADD MSTORE PUSH2 0x484A DUP2 PUSH2 0x480E JUMP JUMPDEST SWAP1 POP SWAP2 SWAP1 POP JUMP JUMPDEST PUSH32 0x466F7263652064656C657465642064756520746F3A2000000000000000000000 DUP2 MSTORE POP JUMP JUMPDEST PUSH1 0x0 DUP2 SWAP1 POP SWAP3 SWAP2 POP POP JUMP JUMPDEST DUP3 DUP2 DUP4 CALLDATACOPY PUSH1 0x0 DUP4 DUP4 ADD MSTORE POP POP POP JUMP JUMPDEST PUSH1 0x0 PUSH2 0x489D DUP4 DUP6 PUSH2 0x4877 JUMP JUMPDEST SWAP4 POP PUSH2 0x48AA DUP4 DUP6 DUP5 PUSH2 0x4882 JUMP JUMPDEST DUP3 DUP5 ADD SWAP1 POP SWAP4 SWAP3 POP POP POP JUMP JUMPDEST PUSH1 0x0 PUSH2 0x48C1 DUP3 PUSH2 0x4851 JUMP JUMPDEST PUSH1 0x16 DUP3 ADD SWAP2 POP PUSH2 0x48D2 DUP3 DUP5 DUP7 PUSH2 0x4891 JUMP JUMPDEST SWAP2 POP DUP2 SWAP1 POP SWAP4 SWAP3 POP POP POP JUMP JUMPDEST PUSH1 0x0 PUSH2 0x48E9 DUP3 PUSH2 0x3D1C JUMP JUMPDEST SWAP2 POP PUSH1 0x0 DUP3 SUB PUSH2 0x48FC JUMPI PUSH2 0x48FB PUSH2 0x469A JUMP JUMPDEST JUMPDEST PUSH1 0x1 DUP3 SUB SWAP1 POP SWAP2 SWAP1 POP JUMP JUMPDEST PUSH32 0x4E6F207061796D656E747320746F2063616E63656C2100000000000000000000 PUSH1 0x0 DUP3 ADD MSTORE POP JUMP JUMPDEST PUSH1 0x0 PUSH2 0x493D PUSH1 0x16 DUP4 PUSH2 0x422F JUMP JUMPDEST SWAP2 POP PUSH2 0x4948 DUP3 PUSH2 0x4907 JUMP JUMPDEST PUSH1 0x20 DUP3 ADD SWAP1 POP SWAP2 SWAP1 POP JUMP JUMPDEST PUSH1 0x0 PUSH1 0x20 DUP3 ADD SWAP1 POP DUP2 DUP2 SUB PUSH1 0x0 DUP4 ADD MSTORE PUSH2 0x496C DUP2 PUSH2 0x4930 JUMP JUMPDEST SWAP1 POP SWAP2 SWAP1 POP JUMP JUMPDEST PUSH1 0x0 DUP3 SWAP1 POP SWAP3 SWAP2 POP POP JUMP JUMPDEST PUSH32 0x4E487B7100000000000000000000000000000000000000000000000000000000 PUSH1 0x0 MSTORE PUSH1 0x41 PUSH1 0x4 MSTORE PUSH1 0x24 PUSH1 0x0 REVERT JUMPDEST PUSH32 0x4E487B7100000000000000000000000000000000000000000000000000000000 PUSH1 0x0 MSTORE PUSH1 0x22 PUSH1 0x4 MSTORE PUSH1 0x24 PUSH1 0x0 REVERT JUMPDEST PUSH1 0x0 PUSH1 0x2 DUP3 DIV SWAP1 POP PUSH1 0x1 DUP3 AND DUP1 PUSH2 0x49F4 JUMPI PUSH1 0x7F DUP3 AND SWAP2 POP JUMPDEST PUSH1 0x20 DUP3 LT DUP2 SUB PUSH2 0x4A07 JUMPI PUSH2 0x4A06 PUSH2 0x49AD JUMP JUMPDEST JUMPDEST POP SWAP2 SWAP1 POP JUMP JUMPDEST PUSH1 0x0 DUP2 SWAP1 POP DUP2 PUSH1 0x0 MSTORE PUSH1 0x20 PUSH1 0x0 KECCAK256 SWAP1 POP SWAP2 SWAP1 POP JUMP JUMPDEST PUSH1 0x0 PUSH1 0x20 PUSH1 0x1F DUP4 ADD DIV SWAP1 POP SWAP2 SWAP1 POP JUMP JUMPDEST PUSH1 0x0 DUP3 DUP3 SHL SWAP1 POP SWAP3 SWAP2 POP POP JUMP JUMPDEST PUSH1 0x0 PUSH1 0x8 DUP4 MUL PUSH2 0x4A6F PUSH32 0xFFFFFFFFFFFFFFFFFFFFFFFFFFFFFFFFFFFFFFFFFFFFFFFFFFFFFFFFFFFFFFFF DUP3 PUSH2 0x4A32 JUMP JUMPDEST PUSH2 0x4A79 DUP7 DUP4 PUSH2 0x4A32 JUMP JUMPDEST SWAP6 POP DUP1 NOT DUP5 AND SWAP4 POP DUP1 DUP7 AND DUP5 OR SWAP3 POP POP POP SWAP4 SWAP3 POP POP POP JUMP JUMPDEST PUSH1 0x0 PUSH2 0x4AAC PUSH2 0x4AA7 PUSH2 0x4AA2 DUP5 PUSH2 0x3D1C JUMP JUMPDEST PUSH2 0x44AD JUMP JUMPDEST PUSH2 0x3D1C JUMP JUMPDEST SWAP1 POP SWAP2 SWAP1 POP JUMP JUMPDEST PUSH1 0x0 DUP2 SWAP1 POP SWAP2 SWAP1 POP JUMP JUMPDEST PUSH2 0x4AC6 DUP4 PUSH2 0x4A91 JUMP JUMPDEST PUSH2 0x4ADA PUSH2 0x4AD2 DUP3 PUSH2 0x4AB3 JUMP JUMPDEST DUP5 DUP5 SLOAD PUSH2 0x4A3F JUMP JUMPDEST DUP3 SSTORE POP POP POP POP JUMP JUMPDEST PUSH1 0x0 SWAP1 JUMP JUMPDEST PUSH2 0x4AEF PUSH2 0x4AE2 JUMP JUMPDEST PUSH2 0x4AFA DUP2 DUP5 DUP5 PUSH2 0x4ABD JUMP JUMPDEST POP POP POP JUMP JUMPDEST JUMPDEST DUP2 DUP2 LT ISZERO PUSH2 0x4B1E JUMPI PUSH2 0x4B13 PUSH1 0x0 DUP3 PUSH2 0x4AE7 JUMP JUMPDEST PUSH1 0x1 DUP2 ADD SWAP1 POP PUSH2 0x4B00 JUMP JUMPDEST POP POP JUMP JUMPDEST PUSH1 0x1F DUP3 GT ISZERO PUSH2 0x4B63 JUMPI PUSH2 0x4B34 DUP2 PUSH2 0x4A0D JUMP JUMPDEST PUSH2 0x4B3D DUP5 PUSH2 0x4A22 JUMP JUMPDEST DUP2 ADD PUSH1 0x20 DUP6 LT ISZERO PUSH2 0x4B4C JUMPI DUP2 SWAP1 POP JUMPDEST PUSH2 0x4B60 PUSH2 0x4B58 DUP6 PUSH2 0x4A22 JUMP JUMPDEST DUP4 ADD DUP3 PUSH2 0x4AFF JUMP JUMPDEST POP POP JUMPDEST POP POP POP JUMP JUMPDEST PUSH1 0x0 DUP3 DUP3 SHR SWAP1 POP SWAP3 SWAP2 POP POP JUMP JUMPDEST PUSH1 0x0 PUSH2 0x4B86 PUSH1 0x0 NOT DUP5 PUSH1 0x8 MUL PUSH2 0x4B68 JUMP JUMPDEST NOT DUP1 DUP4 AND SWAP2 POP POP SWAP3 SWAP2 POP POP JUMP JUMPDEST PUSH1 0x0 PUSH2 0x4B9F DUP4 DUP4 PUSH2 0x4B75 JUMP JUMPDEST SWAP2 POP DUP3 PUSH1 0x2 MUL DUP3 OR SWAP1 POP SWAP3 SWAP2 POP POP JUMP JUMPDEST PUSH2 0x4BB9 DUP4 DUP4 PUSH2 0x4973 JUMP JUMPDEST PUSH8 0xFFFFFFFFFFFFFFFF DUP2 GT ISZERO PUSH2 0x4BD2 JUMPI PUSH2 0x4BD1 PUSH2 0x497E JUMP JUMPDEST JUMPDEST PUSH2 0x4BDC DUP3 SLOAD PUSH2 0x49DC JUMP JUMPDEST PUSH2 0x4BE7 DUP3 DUP3 DUP6 PUSH2 0x4B22 JUMP JUMPDEST PUSH1 0x0 PUSH1 0x1F DUP4 GT PUSH1 0x1 DUP2 EQ PUSH2 0x4C16 JUMPI PUSH1 0x0 DUP5 ISZERO PUSH2 0x4C04 JUMPI DUP3 DUP8 ADD CALLDATALOAD SWAP1 POP JUMPDEST PUSH2 0x4C0E DUP6 DUP3 PUSH2 0x4B93 JUMP JUMPDEST DUP7 SSTORE POP PUSH2 0x4C76 JUMP JUMPDEST PUSH1 0x1F NOT DUP5 AND PUSH2 0x4C24 DUP7 PUSH2 0x4A0D JUMP JUMPDEST PUSH1 0x0 JUMPDEST DUP3 DUP2 LT ISZERO PUSH2 0x4C4C JUMPI DUP5 DUP10 ADD CALLDATALOAD DUP3 SSTORE PUSH1 0x1 DUP3 ADD SWAP2 POP PUSH1 0x20 DUP6 ADD SWAP5 POP PUSH1 0x20 DUP2 ADD SWAP1 POP PUSH2 0x4C27 JUMP JUMPDEST DUP7 DUP4 LT ISZERO PUSH2 0x4C69 JUMPI DUP5 DUP10 ADD CALLDATALOAD PUSH2 0x4C65 PUSH1 0x1F DUP10 AND DUP3 PUSH2 0x4B75 JUMP JUMPDEST DUP4 SSTORE POP JUMPDEST PUSH1 0x1 PUSH1 0x2 DUP9 MUL ADD DUP9 SSTORE POP POP POP JUMPDEST POP POP POP POP POP POP POP JUMP JUMPDEST PUSH32 0x4E487B7100000000000000000000000000000000000000000000000000000000 PUSH1 0x0 MSTORE PUSH1 0x31 PUSH1 0x4 MSTORE PUSH1 0x24 PUSH1 0x0 REVERT JUMPDEST PUSH1 0x0 PUSH1 0xFF DUP3 AND SWAP1 POP SWAP2 SWAP1 POP JUMP JUMPDEST PUSH2 0x4CC4 DUP2 PUSH2 0x4CAE JUMP JUMPDEST DUP2 EQ PUSH2 0x4CCF JUMPI PUSH1 0x0 DUP1 REVERT JUMPDEST POP JUMP JUMPDEST PUSH1 0x0 DUP2 MLOAD SWAP1 POP PUSH2 0x4CE1 DUP2 PUSH2 0x4CBB JUMP JUMPDEST SWAP3 SWAP2 POP POP JUMP JUMPDEST PUSH1 0x0 PUSH1 0x20 DUP3 DUP5 SUB SLT ISZERO PUSH2 0x4CFD JUMPI PUSH2 0x4CFC PUSH2 0x3B4C JUMP JUMPDEST JUMPDEST PUSH1 0x0 PUSH2 0x4D0B DUP5 DUP3 DUP6 ADD PUSH2 0x4CD2 JUMP JUMPDEST SWAP2 POP POP SWAP3 SWAP2 POP POP JUMP JUMPDEST PUSH32 0x4F6E6C7920617070726F7665722063616E20617070726F7665207061796D656E PUSH1 0x0 DUP3 ADD MSTORE PUSH32 0x7473210000000000000000000000000000000000000000000000000000000000 PUSH1 0x20 DUP3 ADD MSTORE POP JUMP JUMPDEST PUSH1 0x0 PUSH2 0x4D70 PUSH1 0x23 DUP4 PUSH2 0x422F JUMP JUMPDEST SWAP2 POP PUSH2 0x4D7B DUP3 PUSH2 0x4D14 JUMP JUMPDEST PUSH1 0x40 DUP3 ADD SWAP1 POP SWAP2 SWAP1 POP JUMP JUMPDEST PUSH1 0x0 PUSH1 0x20 DUP3 ADD SWAP1 POP DUP2 DUP2 SUB PUSH1 0x0 DUP4 ADD MSTORE PUSH2 0x4D9F DUP2 PUSH2 0x4D63 JUMP JUMPDEST SWAP1 POP SWAP2 SWAP1 POP JUMP JUMPDEST PUSH32 0x4C697374206F662062656E656669636961726965732069732072657175697265 PUSH1 0x0 DUP3 ADD MSTORE PUSH32 0x6400000000000000000000000000000000000000000000000000000000000000 PUSH1 0x20 DUP3 ADD MSTORE POP JUMP JUMPDEST PUSH1 0x0 PUSH2 0x4E02 PUSH1 0x21 DUP4 PUSH2 0x422F JUMP JUMPDEST SWAP2 POP PUSH2 0x4E0D DUP3 PUSH2 0x4DA6 JUMP JUMPDEST PUSH1 0x40 DUP3 ADD SWAP1 POP SWAP2 SWAP1 POP JUMP JUMPDEST PUSH1 0x0 PUSH1 0x20 DUP3 ADD SWAP1 POP DUP2 DUP2 SUB PUSH1 0x0 DUP4 ADD MSTORE PUSH2 0x4E31 DUP2 PUSH2 0x4DF5 JUMP JUMPDEST SWAP1 POP SWAP2 SWAP1 POP JUMP JUMPDEST PUSH32 0x496E646578657320666F72207061796D656E7473207065722062656E65666963 PUSH1 0x0 DUP3 ADD MSTORE PUSH32 0x69617279206D7573742062652070726F76696465642100000000000000000000 PUSH1 0x20 DUP3 ADD MSTORE POP JUMP JUMPDEST PUSH1 0x0 PUSH2 0x4E94 PUSH1 0x36 DUP4 PUSH2 0x422F JUMP JUMPDEST SWAP2 POP PUSH2 0x4E9F DUP3 PUSH2 0x4E38 JUMP JUMPDEST PUSH1 0x40 DUP3 ADD SWAP1 POP SWAP2 SWAP1 POP JUMP JUMPDEST PUSH1 0x0 PUSH1 0x20 DUP3 ADD SWAP1 POP DUP2 DUP2 SUB PUSH1 0x0 DUP4 ADD MSTORE PUSH2 0x4EC3 DUP2 PUSH2 0x4E87 JUMP JUMPDEST SWAP1 POP SWAP2 SWAP1 POP JUMP JUMPDEST PUSH1 0x0 DUP1 REVERT JUMPDEST PUSH1 0x0 DUP1 REVERT JUMPDEST PUSH1 0x0 DUP1 REVERT JUMPDEST PUSH1 0x0 DUP1 DUP4 CALLDATALOAD PUSH1 0x1 PUSH1 0x20 SUB DUP5 CALLDATASIZE SUB SUB DUP2 SLT PUSH2 0x4EF6 JUMPI PUSH2 0x4EF5 PUSH2 0x4ECA JUMP JUMPDEST JUMPDEST DUP1 DUP5 ADD SWAP3 POP DUP3 CALLDATALOAD SWAP2 POP PUSH8 0xFFFFFFFFFFFFFFFF DUP3 GT ISZERO PUSH2 0x4F18 JUMPI PUSH2 0x4F17 PUSH2 0x4ECF JUMP JUMPDEST JUMPDEST PUSH1 0x20 DUP4 ADD SWAP3 POP PUSH1 0x20 DUP3 MUL CALLDATASIZE SUB DUP4 SGT ISZERO PUSH2 0x4F34 JUMPI PUSH2 0x4F33 PUSH2 0x4ED4 JUMP JUMPDEST JUMPDEST POP SWAP3 POP SWAP3 SWAP1 POP JUMP JUMPDEST PUSH32 0x4C697374206F66207061796D656E7473207065722062656E6566696369617279 PUSH1 0x0 DUP3 ADD MSTORE PUSH32 0x2063616E277420626520656D7074792100000000000000000000000000000000 PUSH1 0x20 DUP3 ADD MSTORE POP JUMP JUMPDEST PUSH1 0x0 PUSH2 0x4F98 PUSH1 0x30 DUP4 PUSH2 0x422F JUMP JUMPDEST SWAP2 POP PUSH2 0x4FA3 DUP3 PUSH2 0x4F3C JUMP JUMPDEST PUSH1 0x40 DUP3 ADD SWAP1 POP SWAP2 SWAP1 POP JUMP JUMPDEST PUSH1 0x0 PUSH1 0x20 DUP3 ADD SWAP1 POP DUP2 DUP2 SUB PUSH1 0x0 DUP4 ADD MSTORE PUSH2 0x4FC7 DUP2 PUSH2 0x4F8B JUMP JUMPDEST SWAP1 POP SWAP2 SWAP1 POP JUMP JUMPDEST PUSH32 0x496E707574206E6F7420636F7272656374212E00000000000000000000000000 PUSH1 0x0 DUP3 ADD MSTORE POP JUMP JUMPDEST PUSH1 0x0 PUSH2 0x5004 PUSH1 0x13 DUP4 PUSH2 0x422F JUMP JUMPDEST SWAP2 POP PUSH2 0x500F DUP3 PUSH2 0x4FCE JUMP JUMPDEST PUSH1 0x20 DUP3 ADD SWAP1 POP SWAP2 SWAP1 POP JUMP JUMPDEST PUSH1 0x0 PUSH1 0x20 DUP3 ADD SWAP1 POP DUP2 DUP2 SUB PUSH1 0x0 DUP4 ADD MSTORE PUSH2 0x5033 DUP2 PUSH2 0x4FF7 JUMP JUMPDEST SWAP1 POP SWAP2 SWAP1 POP JUMP JUMPDEST PUSH32 0x446F65736E277420737570706F72742072656E6F756E63696E67206F66206F77 PUSH1 0x0 DUP3 ADD MSTORE PUSH32 0x6E65727368697021000000000000000000000000000000000000000000000000 PUSH1 0x20 DUP3 ADD MSTORE POP JUMP JUMPDEST PUSH1 0x0 PUSH2 0x5096 PUSH1 0x28 DUP4 PUSH2 0x422F JUMP JUMPDEST SWAP2 POP PUSH2 0x50A1 DUP3 PUSH2 0x503A JUMP JUMPDEST PUSH1 0x40 DUP3 ADD SWAP1 POP SWAP2 SWAP1 POP JUMP JUMPDEST PUSH1 0x0 PUSH1 0x20 DUP3 ADD SWAP1 POP DUP2 DUP2 SUB PUSH1 0x0 DUP4 ADD MSTORE PUSH2 0x50C5 DUP2 PUSH2 0x5089 JUMP JUMPDEST SWAP1 POP SWAP2 SWAP1 POP JUMP JUMPDEST PUSH32 0x4E6F742062656E65666963696172792100000000000000000000000000000000 PUSH1 0x0 DUP3 ADD MSTORE POP JUMP JUMPDEST PUSH1 0x0 PUSH2 0x5102 PUSH1 0x10 DUP4 PUSH2 0x422F JUMP JUMPDEST SWAP2 POP PUSH2 0x510D DUP3 PUSH2 0x50CC JUMP JUMPDEST PUSH1 0x20 DUP3 ADD SWAP1 POP SWAP2 SWAP1 POP JUMP JUMPDEST PUSH1 0x0 PUSH1 0x20 DUP3 ADD SWAP1 POP DUP2 DUP2 SUB PUSH1 0x0 DUP4 ADD MSTORE PUSH2 0x5131 DUP2 PUSH2 0x50F5 JUMP JUMPDEST SWAP1 POP SWAP2 SWAP1 POP JUMP JUMPDEST PUSH32 0x4E6F20746F6B656E7320746F207472616E736665722100000000000000000000 PUSH1 0x0 DUP3 ADD MSTORE POP JUMP JUMPDEST PUSH1 0x0 PUSH2 0x516E PUSH1 0x16 DUP4 PUSH2 0x422F JUMP JUMPDEST SWAP2 POP PUSH2 0x5179 DUP3 PUSH2 0x5138 JUMP JUMPDEST PUSH1 0x20 DUP3 ADD SWAP1 POP SWAP2 SWAP1 POP JUMP JUMPDEST PUSH1 0x0 PUSH1 0x20 DUP3 ADD SWAP1 POP DUP2 DUP2 SUB PUSH1 0x0 DUP4 ADD MSTORE PUSH2 0x519D DUP2 PUSH2 0x5161 JUMP JUMPDEST SWAP1 POP SWAP2 SWAP1 POP JUMP JUMPDEST PUSH32 0x4E6F2073656C6563746564207061796D656E747320666F7220617070726F7661 PUSH1 0x0 DUP3 ADD MSTORE PUSH32 0x6C21000000000000000000000000000000000000000000000000000000000000 PUSH1 0x20 DUP3 ADD MSTORE POP JUMP JUMPDEST PUSH1 0x0 PUSH2 0x5200 PUSH1 0x22 DUP4 PUSH2 0x422F JUMP JUMPDEST SWAP2 POP PUSH2 0x520B DUP3 PUSH2 0x51A4 JUMP JUMPDEST PUSH1 0x40 DUP3 ADD SWAP1 POP SWAP2 SWAP1 POP JUMP JUMPDEST PUSH1 0x0 PUSH1 0x20 DUP3 ADD SWAP1 POP DUP2 DUP2 SUB PUSH1 0x0 DUP4 ADD MSTORE PUSH2 0x522F DUP2 PUSH2 0x51F3 JUMP JUMPDEST SWAP1 POP SWAP2 SWAP1 POP JUMP JUMPDEST PUSH32 0x57726F6E67207061796D656E7420646174612100000000000000000000000000 PUSH1 0x0 DUP3 ADD MSTORE POP JUMP JUMPDEST PUSH1 0x0 PUSH2 0x526C PUSH1 0x13 DUP4 PUSH2 0x422F JUMP JUMPDEST SWAP2 POP PUSH2 0x5277 DUP3 PUSH2 0x5236 JUMP JUMPDEST PUSH1 0x20 DUP3 ADD SWAP1 POP SWAP2 SWAP1 POP JUMP JUMPDEST PUSH1 0x0 PUSH1 0x20 DUP3 ADD SWAP1 POP DUP2 DUP2 SUB PUSH1 0x0 DUP4 ADD MSTORE PUSH2 0x529B DUP2 PUSH2 0x525F JUMP JUMPDEST SWAP1 POP SWAP2 SWAP1 POP JUMP JUMPDEST PUSH32 0x496E646578206572726F722C206E6F2073756368207061796D656E7421000000 PUSH1 0x0 DUP3 ADD MSTORE POP JUMP JUMPDEST PUSH1 0x0 PUSH2 0x52D8 PUSH1 0x1D DUP4 PUSH2 0x422F JUMP JUMPDEST SWAP2 POP PUSH2 0x52E3 DUP3 PUSH2 0x52A2 JUMP JUMPDEST PUSH1 0x20 DUP3 ADD SWAP1 POP SWAP2 SWAP1 POP JUMP JUMPDEST PUSH1 0x0 PUSH1 0x20 DUP3 ADD SWAP1 POP DUP2 DUP2 SUB PUSH1 0x0 DUP4 ADD MSTORE PUSH2 0x5307 DUP2 PUSH2 0x52CB JUMP JUMPDEST SWAP1 POP SWAP2 SWAP1 POP JUMP JUMPDEST PUSH32 0x5061796D656E7420616C726561647920617070726F7665642100000000000000 PUSH1 0x0 DUP3 ADD MSTORE POP JUMP JUMPDEST PUSH1 0x0 PUSH2 0x5344 PUSH1 0x19 DUP4 PUSH2 0x422F JUMP JUMPDEST SWAP2 POP PUSH2 0x534F DUP3 PUSH2 0x530E JUMP JUMPDEST PUSH1 0x20 DUP3 ADD SWAP1 POP SWAP2 SWAP1 POP JUMP JUMPDEST PUSH1 0x0 PUSH1 0x20 DUP3 ADD SWAP1 POP DUP2 DUP2 SUB PUSH1 0x0 DUP4 ADD MSTORE PUSH2 0x5373 DUP2 PUSH2 0x5337 JUMP JUMPDEST SWAP1 POP SWAP2 SWAP1 POP JUMP JUMPDEST PUSH32 0x43616E277420617070726F7665206E657874207061796D656E74206265666F72 PUSH1 0x0 DUP3 ADD MSTORE PUSH32 0x65207468652070726576696F7573206F6E652100000000000000000000000000 PUSH1 0x20 DUP3 ADD MSTORE POP JUMP JUMPDEST PUSH1 0x0 PUSH2 0x53D6 PUSH1 0x33 DUP4 PUSH2 0x422F JUMP JUMPDEST SWAP2 POP PUSH2 0x53E1 DUP3 PUSH2 0x537A JUMP JUMPDEST PUSH1 0x40 DUP3 ADD SWAP1 POP SWAP2 SWAP1 POP JUMP JUMPDEST PUSH1 0x0 PUSH1 0x20 DUP3 ADD SWAP1 POP DUP2 DUP2 SUB PUSH1 0x0 DUP4 ADD MSTORE PUSH2 0x5405 DUP2 PUSH2 0x53C9 JUMP JUMPDEST SWAP1 POP SWAP2 SWAP1 POP JUMP JUMPDEST PUSH1 0x0 DUP1 REVERT JUMPDEST PUSH2 0x541A DUP3 PUSH2 0x426A JUMP JUMPDEST DUP2 ADD DUP2 DUP2 LT PUSH8 0xFFFFFFFFFFFFFFFF DUP3 GT OR ISZERO PUSH2 0x5439 JUMPI PUSH2 0x5438 PUSH2 0x497E JUMP JUMPDEST JUMPDEST DUP1 PUSH1 0x40 MSTORE POP POP POP JUMP JUMPDEST PUSH1 0x0 PUSH2 0x544C PUSH2 0x3B42 JUMP JUMPDEST SWAP1 POP PUSH2 0x5458 DUP3 DUP3 PUSH2 0x5411 JUMP JUMPDEST SWAP2 SWAP1 POP JUMP JUMPDEST PUSH1 0x0 PUSH8 0xFFFFFFFFFFFFFFFF DUP3 GT ISZERO PUSH2 0x5478 JUMPI PUSH2 0x5477 PUSH2 0x497E JUMP JUMPDEST JUMPDEST PUSH2 0x5481 DUP3 PUSH2 0x426A JUMP JUMPDEST SWAP1 POP PUSH1 0x20 DUP2 ADD SWAP1 POP SWAP2 SWAP1 POP JUMP JUMPDEST PUSH1 0x0 PUSH2 0x54A1 PUSH2 0x549C DUP5 PUSH2 0x545D JUMP JUMPDEST PUSH2 0x5442 JUMP JUMPDEST SWAP1 POP DUP3 DUP2 MSTORE PUSH1 0x20 DUP2 ADD DUP5 DUP5 DUP5 ADD GT ISZERO PUSH2 0x54BD JUMPI PUSH2 0x54BC PUSH2 0x540C JUMP JUMPDEST JUMPDEST PUSH2 0x54C8 DUP5 DUP3 DUP6 PUSH2 0x4240 JUMP JUMPDEST POP SWAP4 SWAP3 POP POP POP JUMP JUMPDEST PUSH1 0x0 DUP3 PUSH1 0x1F DUP4 ADD SLT PUSH2 0x54E5 JUMPI PUSH2 0x54E4 PUSH2 0x3C0B JUMP JUMPDEST JUMPDEST DUP2 MLOAD PUSH2 0x54F5 DUP5 DUP3 PUSH1 0x20 DUP7 ADD PUSH2 0x548E JUMP JUMPDEST SWAP2 POP POP SWAP3 SWAP2 POP POP JUMP JUMPDEST PUSH1 0x0 PUSH1 0x20 DUP3 DUP5 SUB SLT ISZERO PUSH2 0x5514 JUMPI PUSH2 0x5513 PUSH2 0x3B4C JUMP JUMPDEST JUMPDEST PUSH1 0x0 DUP3 ADD MLOAD PUSH8 0xFFFFFFFFFFFFFFFF DUP2 GT ISZERO PUSH2 0x5532 JUMPI PUSH2 0x5531 PUSH2 0x3B51 JUMP JUMPDEST JUMPDEST PUSH2 0x553E DUP5 DUP3 DUP6 ADD PUSH2 0x54D0 JUMP JUMPDEST SWAP2 POP POP SWAP3 SWAP2 POP POP JUMP JUMPDEST PUSH32 0x496E73756666696369656E742062616C616E6365210000000000000000000000 PUSH1 0x0 DUP3 ADD MSTORE POP JUMP JUMPDEST PUSH1 0x0 PUSH2 0x557D PUSH1 0x15 DUP4 PUSH2 0x422F JUMP JUMPDEST SWAP2 POP PUSH2 0x5588 DUP3 PUSH2 0x5547 JUMP JUMPDEST PUSH1 0x20 DUP3 ADD SWAP1 POP SWAP2 SWAP1 POP JUMP JUMPDEST PUSH1 0x0 PUSH1 0x20 DUP3 ADD SWAP1 POP DUP2 DUP2 SUB PUSH1 0x0 DUP4 ADD MSTORE PUSH2 0x55AC DUP2 PUSH2 0x5570 JUMP JUMPDEST SWAP1 POP SWAP2 SWAP1 POP JUMP JUMPDEST PUSH32 0x446174652063616E2774206265206C657373207468616E20746865206C617374 PUSH1 0x0 DUP3 ADD MSTORE PUSH32 0x20656E7465726564210000000000000000000000000000000000000000000000 PUSH1 0x20 DUP3 ADD MSTORE POP JUMP JUMPDEST PUSH1 0x0 PUSH2 0x560F PUSH1 0x29 DUP4 PUSH2 0x422F JUMP JUMPDEST SWAP2 POP PUSH2 0x561A DUP3 PUSH2 0x55B3 JUMP JUMPDEST PUSH1 0x40 DUP3 ADD SWAP1 POP SWAP2 SWAP1 POP JUMP JUMPDEST PUSH1 0x0 PUSH1 0x20 DUP3 ADD SWAP1 POP DUP2 DUP2 SUB PUSH1 0x0 DUP4 ADD MSTORE PUSH2 0x563E DUP2 PUSH2 0x5602 JUMP JUMPDEST SWAP1 POP SWAP2 SWAP1 POP JUMP JUMPDEST PUSH32 0x446174652063616E277420626520657175616C206F72206C657373207468616E PUSH1 0x0 DUP3 ADD MSTORE PUSH32 0x2063757272656E74206461746521000000000000000000000000000000000000 PUSH1 0x20 DUP3 ADD MSTORE POP JUMP JUMPDEST PUSH1 0x0 PUSH2 0x56A1 PUSH1 0x2E DUP4 PUSH2 0x422F JUMP JUMPDEST SWAP2 POP PUSH2 0x56AC DUP3 PUSH2 0x5645 JUMP JUMPDEST PUSH1 0x40 DUP3 ADD SWAP1 POP SWAP2 SWAP1 POP JUMP JUMPDEST PUSH1 0x0 PUSH1 0x20 DUP3 ADD SWAP1 POP DUP2 DUP2 SUB PUSH1 0x0 DUP4 ADD MSTORE PUSH2 0x56D0 DUP2 PUSH2 0x5694 JUMP JUMPDEST SWAP1 POP SWAP2 SWAP1 POP JUMP JUMPDEST PUSH32 0x4F6E6C792062656E65666963696172792063616E206368616E67652077616C6C PUSH1 0x0 DUP3 ADD MSTORE PUSH32 0x6574206164647265737321000000000000000000000000000000000000000000 PUSH1 0x20 DUP3 ADD MSTORE POP JUMP JUMPDEST PUSH1 0x0 PUSH2 0x5733 PUSH1 0x2B DUP4 PUSH2 0x422F JUMP JUMPDEST SWAP2 POP PUSH2 0x573E DUP3 PUSH2 0x56D7 JUMP JUMPDEST PUSH1 0x40 DUP3 ADD SWAP1 POP SWAP2 SWAP1 POP JUMP JUMPDEST PUSH1 0x0 PUSH1 0x20 DUP3 ADD SWAP1 POP DUP2 DUP2 SUB PUSH1 0x0 DUP4 ADD MSTORE PUSH2 0x5762 DUP2 PUSH2 0x5726 JUMP JUMPDEST SWAP1 POP SWAP2 SWAP1 POP JUMP JUMPDEST PUSH32 0x416C7265616479206578697374696E6720696E2076657374696E672100000000 PUSH1 0x0 DUP3 ADD MSTORE POP JUMP JUMPDEST PUSH1 0x0 PUSH2 0x579F PUSH1 0x1C DUP4 PUSH2 0x422F JUMP JUMPDEST SWAP2 POP PUSH2 0x57AA DUP3 PUSH2 0x5769 JUMP JUMPDEST PUSH1 0x20 DUP3 ADD SWAP1 POP SWAP2 SWAP1 POP JUMP JUMPDEST PUSH1 0x0 PUSH1 0x20 DUP3 ADD SWAP1 POP DUP2 DUP2 SUB PUSH1 0x0 DUP4 ADD MSTORE PUSH2 0x57CE DUP2 PUSH2 0x5792 JUMP JUMPDEST SWAP1 POP SWAP2 SWAP1 POP JUMP JUMPDEST PUSH32 0x4F6E6C792062656E6566696369617279206F72206F776E657221000000000000 PUSH1 0x0 DUP3 ADD MSTORE POP JUMP JUMPDEST PUSH1 0x0 PUSH2 0x580B PUSH1 0x1A DUP4 PUSH2 0x422F JUMP JUMPDEST SWAP2 POP PUSH2 0x5816 DUP3 PUSH2 0x57D5 JUMP JUMPDEST PUSH1 0x20 DUP3 ADD SWAP1 POP SWAP2 SWAP1 POP JUMP JUMPDEST PUSH1 0x0 PUSH1 0x20 DUP3 ADD SWAP1 POP DUP2 DUP2 SUB PUSH1 0x0 DUP4 ADD MSTORE PUSH2 0x583A DUP2 PUSH2 0x57FE JUMP JUMPDEST SWAP1 POP SWAP2 SWAP1 POP JUMP JUMPDEST PUSH32 0x4E6F2063616E63656C6564207061796D656E7473210000000000000000000000 PUSH1 0x0 DUP3 ADD MSTORE POP JUMP JUMPDEST PUSH1 0x0 PUSH2 0x5877 PUSH1 0x15 DUP4 PUSH2 0x422F JUMP JUMPDEST SWAP2 POP PUSH2 0x5882 DUP3 PUSH2 0x5841 JUMP JUMPDEST PUSH1 0x20 DUP3 ADD SWAP1 POP SWAP2 SWAP1 POP JUMP JUMPDEST PUSH1 0x0 PUSH1 0x20 DUP3 ADD SWAP1 POP DUP2 DUP2 SUB PUSH1 0x0 DUP4 ADD MSTORE PUSH2 0x58A6 DUP2 PUSH2 0x586A JUMP JUMPDEST SWAP1 POP SWAP2 SWAP1 POP JUMP JUMPDEST PUSH32 0x43616E2774206368616E67652E2054686973206973207468652063757272656E PUSH1 0x0 DUP3 ADD MSTORE PUSH32 0x7420617070726F76657221000000000000000000000000000000000000000000 PUSH1 0x20 DUP3 ADD MSTORE POP JUMP JUMPDEST PUSH1 0x0 PUSH2 0x5909 PUSH1 0x2B DUP4 PUSH2 0x422F JUMP JUMPDEST SWAP2 POP PUSH2 0x5914 DUP3 PUSH2 0x58AD JUMP JUMPDEST PUSH1 0x40 DUP3 ADD SWAP1 POP SWAP2 SWAP1 POP JUMP JUMPDEST PUSH1 0x0 PUSH1 0x20 DUP3 ADD SWAP1 POP DUP2 DUP2 SUB PUSH1 0x0 DUP4 ADD MSTORE PUSH2 0x5938 DUP2 PUSH2 0x58FC JUMP JUMPDEST SWAP1 POP SWAP2 SWAP1 POP JUMP JUMPDEST PUSH32 0x43616E2774206265207A65726F20616464726573732100000000000000000000 PUSH1 0x0 DUP3 ADD MSTORE POP JUMP JUMPDEST PUSH1 0x0 PUSH2 0x5975 PUSH1 0x16 DUP4 PUSH2 0x422F JUMP JUMPDEST SWAP2 POP PUSH2 0x5980 DUP3 PUSH2 0x593F JUMP JUMPDEST PUSH1 0x20 DUP3 ADD SWAP1 POP SWAP2 SWAP1 POP JUMP JUMPDEST PUSH1 0x0 PUSH1 0x20 DUP3 ADD SWAP1 POP DUP2 DUP2 SUB PUSH1 0x0 DUP4 ADD MSTORE PUSH2 0x59A4 DUP2 PUSH2 0x5968 JUMP JUMPDEST SWAP1 POP SWAP2 SWAP1 POP JUMP JUMPDEST PUSH32 0x4F776E61626C653A206E6577206F776E657220697320746865207A65726F2061 PUSH1 0x0 DUP3 ADD MSTORE PUSH32 0x6464726573730000000000000000000000000000000000000000000000000000 PUSH1 0x20 DUP3 ADD MSTORE POP JUMP JUMPDEST PUSH1 0x0 PUSH2 0x5A07 PUSH1 0x26 DUP4 PUSH2 0x422F JUMP JUMPDEST SWAP2 POP PUSH2 0x5A12 DUP3 PUSH2 0x59AB JUMP JUMPDEST PUSH1 0x40 DUP3 ADD SWAP1 POP SWAP2 SWAP1 POP JUMP JUMPDEST PUSH1 0x0 PUSH1 0x20 DUP3 ADD SWAP1 POP DUP2 DUP2 SUB PUSH1 0x0 DUP4 ADD MSTORE PUSH2 0x5A36 DUP2 PUSH2 0x59FA JUMP JUMPDEST SWAP1 POP SWAP2 SWAP1 POP JUMP JUMPDEST PUSH32 0x44617461206E6F7420636F727265637421000000000000000000000000000000 PUSH1 0x0 DUP3 ADD MSTORE POP JUMP JUMPDEST PUSH1 0x0 PUSH2 0x5A73 PUSH1 0x11 DUP4 PUSH2 0x422F JUMP JUMPDEST SWAP2 POP PUSH2 0x5A7E DUP3 PUSH2 0x5A3D JUMP JUMPDEST PUSH1 0x20 DUP3 ADD SWAP1 POP SWAP2 SWAP1 POP JUMP JUMPDEST PUSH1 0x0 PUSH1 0x20 DUP3 ADD SWAP1 POP DUP2 DUP2 SUB PUSH1 0x0 DUP4 ADD MSTORE PUSH2 0x5AA2 DUP2 PUSH2 0x5A66 JUMP JUMPDEST SWAP1 POP SWAP2 SWAP1 POP JUMP JUMPDEST PUSH32 0x42656E656669636961727920616C7265616479206578697374696E6721000000 PUSH1 0x0 DUP3 ADD MSTORE POP JUMP JUMPDEST PUSH1 0x0 PUSH2 0x5ADF PUSH1 0x1D DUP4 PUSH2 0x422F JUMP JUMPDEST SWAP2 POP PUSH2 0x5AEA DUP3 PUSH2 0x5AA9 JUMP JUMPDEST PUSH1 0x20 DUP3 ADD SWAP1 POP SWAP2 SWAP1 POP JUMP JUMPDEST PUSH1 0x0 PUSH1 0x20 DUP3 ADD SWAP1 POP DUP2 DUP2 SUB PUSH1 0x0 DUP4 ADD MSTORE PUSH2 0x5B0E DUP2 PUSH2 0x5AD2 JUMP JUMPDEST SWAP1 POP SWAP2 SWAP1 POP JUMP JUMPDEST PUSH32 0x4F776E61626C653A2063616C6C6572206973206E6F7420746865206F776E6572 PUSH1 0x0 DUP3 ADD MSTORE POP JUMP JUMPDEST PUSH1 0x0 PUSH2 0x5B4B PUSH1 0x20 DUP4 PUSH2 0x422F JUMP JUMPDEST SWAP2 POP PUSH2 0x5B56 DUP3 PUSH2 0x5B15 JUMP JUMPDEST PUSH1 0x20 DUP3 ADD SWAP1 POP SWAP2 SWAP1 POP JUMP JUMPDEST PUSH1 0x0 PUSH1 0x20 DUP3 ADD SWAP1 POP DUP2 DUP2 SUB PUSH1 0x0 DUP4 ADD MSTORE PUSH2 0x5B7A DUP2 PUSH2 0x5B3E JUMP JUMPDEST SWAP1 POP SWAP2 SWAP1 POP JUMP JUMPDEST PUSH1 0x0 PUSH1 0x40 DUP3 ADD SWAP1 POP PUSH2 0x5B96 PUSH1 0x0 DUP4 ADD DUP6 PUSH2 0x3BE1 JUMP JUMPDEST PUSH2 0x5BA3 PUSH1 0x20 DUP4 ADD DUP5 PUSH2 0x3D26 JUMP JUMPDEST SWAP4 SWAP3 POP POP POP JUMP JUMPDEST PUSH32 0x52656C6561736520646174652063616E277420626520657175616C206F72206C PUSH1 0x0 DUP3 ADD MSTORE PUSH32 0x657373207468616E2063757272656E7420646174652100000000000000000000 PUSH1 0x20 DUP3 ADD MSTORE POP JUMP JUMPDEST PUSH1 0x0 PUSH2 0x5C06 PUSH1 0x36 DUP4 PUSH2 0x422F JUMP JUMPDEST SWAP2 POP PUSH2 0x5C11 DUP3 PUSH2 0x5BAA JUMP JUMPDEST PUSH1 0x40 DUP3 ADD SWAP1 POP SWAP2 SWAP1 POP JUMP JUMPDEST PUSH1 0x0 PUSH1 0x20 DUP3 ADD SWAP1 POP DUP2 DUP2 SUB PUSH1 0x0 DUP4 ADD MSTORE PUSH2 0x5C35 DUP2 PUSH2 0x5BF9 JUMP JUMPDEST SWAP1 POP SWAP2 SWAP1 POP JUMP JUMPDEST PUSH32 0x3000000000000000000000000000000000000000000000000000000000000000 PUSH1 0x0 DUP3 ADD MSTORE POP JUMP JUMPDEST PUSH1 0x0 PUSH2 0x5C72 PUSH1 0x1 DUP4 PUSH2 0x422F JUMP JUMPDEST SWAP2 POP PUSH2 0x5C7D DUP3 PUSH2 0x5C3C JUMP JUMPDEST PUSH1 0x20 DUP3 ADD SWAP1 POP SWAP2 SWAP1 POP JUMP JUMPDEST PUSH1 0x0 PUSH1 0x20 DUP3 ADD SWAP1 POP DUP2 DUP2 SUB PUSH1 0x0 DUP4 ADD MSTORE PUSH2 0x5CA1 DUP2 PUSH2 0x5C65 JUMP JUMPDEST SWAP1 POP SWAP2 SWAP1 POP JUMP JUMPDEST PUSH1 0x0 DUP2 MLOAD SWAP1 POP PUSH2 0x5CB7 DUP2 PUSH2 0x42D6 JUMP JUMPDEST SWAP3 SWAP2 POP POP JUMP JUMPDEST PUSH1 0x0 PUSH1 0x20 DUP3 DUP5 SUB SLT ISZERO PUSH2 0x5CD3 JUMPI PUSH2 0x5CD2 PUSH2 0x3B4C JUMP JUMPDEST JUMPDEST PUSH1 0x0 PUSH2 0x5CE1 DUP5 DUP3 DUP6 ADD PUSH2 0x5CA8 JUMP JUMPDEST SWAP2 POP POP SWAP3 SWAP2 POP POP JUMP JUMPDEST PUSH1 0x0 DUP2 MLOAD SWAP1 POP PUSH2 0x5CF9 DUP2 PUSH2 0x3C7C JUMP JUMPDEST SWAP3 SWAP2 POP POP JUMP JUMPDEST PUSH1 0x0 PUSH1 0x20 DUP3 DUP5 SUB SLT ISZERO PUSH2 0x5D15 JUMPI PUSH2 0x5D14 PUSH2 0x3B4C JUMP JUMPDEST JUMPDEST PUSH1 0x0 PUSH2 0x5D23 DUP5 DUP3 DUP6 ADD PUSH2 0x5CEA JUMP JUMPDEST SWAP2 POP POP SWAP3 SWAP2 POP POP JUMP JUMPDEST PUSH32 0x5361666545524332303A204552433230206F7065726174696F6E20646964206E PUSH1 0x0 DUP3 ADD MSTORE PUSH32 0x6F74207375636365656400000000000000000000000000000000000000000000 PUSH1 0x20 DUP3 ADD MSTORE POP JUMP JUMPDEST PUSH1 0x0 PUSH2 0x5D88 PUSH1 0x2A DUP4 PUSH2 0x422F JUMP JUMPDEST SWAP2 POP PUSH2 0x5D93 DUP3 PUSH2 0x5D2C JUMP JUMPDEST PUSH1 0x40 DUP3 ADD SWAP1 POP SWAP2 SWAP1 POP JUMP JUMPDEST PUSH1 0x0 PUSH1 0x20 DUP3 ADD SWAP1 POP DUP2 DUP2 SUB PUSH1 0x0 DUP4 ADD MSTORE PUSH2 0x5DB7 DUP2 PUSH2 0x5D7B JUMP JUMPDEST SWAP1 POP SWAP2 SWAP1 POP JUMP JUMPDEST PUSH32 0x416464726573733A20696E73756666696369656E742062616C616E636520666F PUSH1 0x0 DUP3 ADD MSTORE PUSH32 0x722063616C6C0000000000000000000000000000000000000000000000000000 PUSH1 0x20 DUP3 ADD MSTORE POP JUMP JUMPDEST PUSH1 0x0 PUSH2 0x5E1A PUSH1 0x26 DUP4 PUSH2 0x422F JUMP JUMPDEST SWAP2 POP PUSH2 0x5E25 DUP3 PUSH2 0x5DBE JUMP JUMPDEST PUSH1 0x40 DUP3 ADD SWAP1 POP SWAP2 SWAP1 POP JUMP JUMPDEST PUSH1 0x0 PUSH1 0x20 DUP3 ADD SWAP1 POP DUP2 DUP2 SUB PUSH1 0x0 DUP4 ADD MSTORE PUSH2 0x5E49 DUP2 PUSH2 0x5E0D JUMP JUMPDEST SWAP1 POP SWAP2 SWAP1 POP JUMP JUMPDEST PUSH32 0x416464726573733A2063616C6C20746F206E6F6E2D636F6E7472616374000000 PUSH1 0x0 DUP3 ADD MSTORE POP JUMP JUMPDEST PUSH1 0x0 PUSH2 0x5E86 PUSH1 0x1D DUP4 PUSH2 0x422F JUMP JUMPDEST SWAP2 POP PUSH2 0x5E91 DUP3 PUSH2 0x5E50 JUMP JUMPDEST PUSH1 0x20 DUP3 ADD SWAP1 POP SWAP2 SWAP1 POP JUMP JUMPDEST PUSH1 0x0 PUSH1 0x20 DUP3 ADD SWAP1 POP DUP2 DUP2 SUB PUSH1 0x0 DUP4 ADD MSTORE PUSH2 0x5EB5 DUP2 PUSH2 0x5E79 JUMP JUMPDEST SWAP1 POP SWAP2 SWAP1 POP JUMP JUMPDEST PUSH1 0x0 DUP2 MLOAD SWAP1 POP SWAP2 SWAP1 POP JUMP JUMPDEST PUSH1 0x0 DUP2 SWAP1 POP SWAP3 SWAP2 POP POP JUMP JUMPDEST PUSH1 0x0 PUSH2 0x5EDD DUP3 PUSH2 0x5EBC JUMP JUMPDEST PUSH2 0x5EE7 DUP2 DUP6 PUSH2 0x5EC7 JUMP JUMPDEST SWAP4 POP PUSH2 0x5EF7 DUP2 DUP6 PUSH1 0x20 DUP7 ADD PUSH2 0x4240 JUMP JUMPDEST DUP1 DUP5 ADD SWAP2 POP POP SWAP3 SWAP2 POP POP JUMP JUMPDEST PUSH1 0x0 PUSH2 0x5F0F DUP3 DUP5 PUSH2 0x5ED2 JUMP JUMPDEST SWAP2 POP DUP2 SWAP1 POP SWAP3 SWAP2 POP POP JUMP INVALID LOG2 PUSH5 0x6970667358 0x22 SLT KECCAK256 0xE7 0xBD 0xB6 REVERT 0x2E EXTCODECOPY 0xF7 PUSH12 0x44BB985B29ECED42A7B6724D SWAP4 0xEA LOG0 0xAF 0xE4 0x5C 0x2C 0xAB DUP4 0xB3 0xC4 DUP11 PUSH5 0x736F6C6343 STOP ADDMOD ISZERO STOP CALLER "
		},
		"gasEstimates": {
			"creation": {
				"codeDepositCost": "4880000",
				"executionCost": "infinite",
				"totalCost": "infinite"
			},
			"external": {
				"addBeneficiary(address,uint256[],uint256[])": "infinite",
				"addPaymentToBeneficiary(address,uint256,uint256)": "infinite",
				"approvePayment(address,uint256[])": "infinite",
				"approver()": "2560",
				"beneficiary(address)": "infinite",
				"cancelPaymentsToBeneficiary(address,string,bool)": "infinite",
				"changeApprover(address)": "29439",
				"changeBeneficiaryWallet(address)": "infinite",
				"changedWallets()": "infinite",
				"checkWalletChange(address)": "infinite",
				"currentBalance()": "infinite",
				"currentNonUtilizedAmount()": "infinite",
				"decimals()": "infinite",
				"extendExistingVesting(address,uint256[],uint256[])": "infinite",
				"getCanceledPaymentsAddresses()": "infinite",
				"getReasonForCancellation(address)": "infinite",
				"massApproval(address[],uint256[][])": "infinite",
				"owner()": "2633",
				"release(address)": "infinite",
				"renounceOwnership()": "2783",
				"returnBeneficiaryList()": "infinite",
				"symbol()": "infinite",
				"timeNow()": "380",
				"token()": "infinite",
				"totalUnreleasedPayments()": "4791",
				"transferExcessBalance(address)": "infinite",
				"transferOwnership(address)": "30810"
			},
			"internal": {
				"_addElementToArray(address,address[] storage pointer)": "infinite",
				"_addMultiplePayments(address,uint256[] calldata,uint256[] calldata)": "infinite",
				"_currentBalance()": "infinite",
				"_currentNonUtilizedAmount()": "infinite",
				"_orderedRemoveFromBeneficiaryList(uint256,address[] storage pointer)": "infinite"
			}
		},
		"methodIdentifiers": {
			"addBeneficiary(address,uint256[],uint256[])": "f61eb2d4",
			"addPaymentToBeneficiary(address,uint256,uint256)": "b347f859",
			"approvePayment(address,uint256[])": "9011edb4",
			"approver()": "141a8dd8",
			"beneficiary(address)": "81008568",
			"cancelPaymentsToBeneficiary(address,string,bool)": "2380996e",
			"changeApprover(address)": "c6c599c1",
			"changeBeneficiaryWallet(address)": "b70b64ec",
			"changedWallets()": "530a60ef",
			"checkWalletChange(address)": "0d43848b",
			"currentBalance()": "ce845d1d",
			"currentNonUtilizedAmount()": "a99d38cb",
			"decimals()": "313ce567",
			"extendExistingVesting(address,uint256[],uint256[])": "54522364",
			"getCanceledPaymentsAddresses()": "c9e701ae",
			"getReasonForCancellation(address)": "c4be66a1",
			"massApproval(address[],uint256[][])": "35565972",
			"owner()": "8da5cb5b",
			"release(address)": "19165587",
			"renounceOwnership()": "715018a6",
			"returnBeneficiaryList()": "711ec9b5",
			"symbol()": "95d89b41",
			"timeNow()": "d95660be",
			"token()": "fc0c546a",
			"totalUnreleasedPayments()": "70c80f99",
			"transferExcessBalance(address)": "8f26fb7f",
			"transferOwnership(address)": "f2fde38b"
		}
	},
	"abi": [
		{
			"inputs": [
				{
					"internalType": "contract DummyToken",
					"name": "token_",
					"type": "address"
				}
			],
			"stateMutability": "nonpayable",
			"type": "constructor"
		},
		{
			"anonymous": false,
			"inputs": [
				{
					"indexed": true,
					"internalType": "address",
					"name": "previousOwner",
					"type": "address"
				},
				{
					"indexed": true,
					"internalType": "address",
					"name": "newOwner",
					"type": "address"
				}
			],
			"name": "OwnershipTransferred",
			"type": "event"
		},
		{
			"anonymous": false,
			"inputs": [
				{
					"indexed": false,
					"internalType": "uint256",
					"name": "_value",
					"type": "uint256"
				}
			],
			"name": "TotalBeneficiariesAmountDecrease",
			"type": "event"
		},
		{
			"anonymous": false,
			"inputs": [
				{
					"indexed": false,
					"internalType": "uint256",
					"name": "_value",
					"type": "uint256"
				}
			],
			"name": "TotalBeneficiariesAmountIncrease",
			"type": "event"
		},
		{
			"inputs": [
				{
					"internalType": "address",
					"name": "beneficiary_",
					"type": "address"
				},
				{
					"internalType": "uint256[]",
					"name": "amounts",
					"type": "uint256[]"
				},
				{
					"internalType": "uint256[]",
					"name": "releaseDates",
					"type": "uint256[]"
				}
			],
			"name": "addBeneficiary",
			"outputs": [],
			"stateMutability": "nonpayable",
			"type": "function"
		},
		{
			"inputs": [
				{
					"internalType": "address",
					"name": "beneficiary_",
					"type": "address"
				},
				{
					"internalType": "uint256",
					"name": "amount",
					"type": "uint256"
				},
				{
					"internalType": "uint256",
					"name": "releaseDate",
					"type": "uint256"
				}
			],
			"name": "addPaymentToBeneficiary",
			"outputs": [],
			"stateMutability": "nonpayable",
			"type": "function"
		},
		{
			"inputs": [
				{
					"internalType": "address",
					"name": "beneficiary_",
					"type": "address"
				},
				{
					"internalType": "uint256[]",
					"name": "indexes",
					"type": "uint256[]"
				}
			],
			"name": "approvePayment",
			"outputs": [],
			"stateMutability": "nonpayable",
			"type": "function"
		},
		{
			"inputs": [],
			"name": "approver",
			"outputs": [
				{
					"internalType": "address",
					"name": "",
					"type": "address"
				}
			],
			"stateMutability": "view",
			"type": "function"
		},
		{
			"inputs": [
				{
					"internalType": "address",
					"name": "beneficiary_",
					"type": "address"
				}
			],
			"name": "beneficiary",
			"outputs": [
				{
					"internalType": "uint256[4][]",
					"name": "",
					"type": "uint256[4][]"
				}
			],
			"stateMutability": "view",
			"type": "function"
		},
		{
			"inputs": [
				{
					"internalType": "address",
					"name": "beneficiary_",
					"type": "address"
				},
				{
					"internalType": "string",
					"name": "reason",
					"type": "string"
				},
				{
					"internalType": "bool",
					"name": "forceDelete",
					"type": "bool"
				}
			],
			"name": "cancelPaymentsToBeneficiary",
			"outputs": [],
			"stateMutability": "nonpayable",
			"type": "function"
		},
		{
			"inputs": [
				{
					"internalType": "address",
					"name": "wallet",
					"type": "address"
				}
			],
			"name": "changeApprover",
			"outputs": [
				{
					"internalType": "bool",
					"name": "",
					"type": "bool"
				}
			],
			"stateMutability": "nonpayable",
			"type": "function"
		},
		{
			"inputs": [
				{
					"internalType": "address",
					"name": "newBeneficiary",
					"type": "address"
				}
			],
			"name": "changeBeneficiaryWallet",
			"outputs": [],
			"stateMutability": "nonpayable",
			"type": "function"
		},
		{
			"inputs": [],
			"name": "changedWallets",
			"outputs": [
				{
					"internalType": "address[]",
					"name": "",
					"type": "address[]"
				}
			],
			"stateMutability": "view",
			"type": "function"
		},
		{
			"inputs": [
				{
					"internalType": "address",
					"name": "wallet",
					"type": "address"
				}
			],
			"name": "checkWalletChange",
			"outputs": [
				{
					"internalType": "address",
					"name": "",
					"type": "address"
				}
			],
			"stateMutability": "view",
			"type": "function"
		},
		{
			"inputs": [],
			"name": "currentBalance",
			"outputs": [
				{
					"internalType": "uint256",
					"name": "",
					"type": "uint256"
				}
			],
			"stateMutability": "view",
			"type": "function"
		},
		{
			"inputs": [],
			"name": "currentNonUtilizedAmount",
			"outputs": [
				{
					"internalType": "uint256",
					"name": "",
					"type": "uint256"
				}
			],
			"stateMutability": "view",
			"type": "function"
		},
		{
			"inputs": [],
			"name": "decimals",
			"outputs": [
				{
					"internalType": "uint256",
					"name": "",
					"type": "uint256"
				}
			],
			"stateMutability": "view",
			"type": "function"
		},
		{
			"inputs": [
				{
					"internalType": "address",
					"name": "beneficiary_",
					"type": "address"
				},
				{
					"internalType": "uint256[]",
					"name": "amounts",
					"type": "uint256[]"
				},
				{
					"internalType": "uint256[]",
					"name": "releaseDates",
					"type": "uint256[]"
				}
			],
			"name": "extendExistingVesting",
			"outputs": [],
			"stateMutability": "nonpayable",
			"type": "function"
		},
		{
			"inputs": [],
			"name": "getCanceledPaymentsAddresses",
			"outputs": [
				{
					"internalType": "address[]",
					"name": "",
					"type": "address[]"
				}
			],
			"stateMutability": "view",
			"type": "function"
		},
		{
			"inputs": [
				{
					"internalType": "address",
					"name": "beneficiary_",
					"type": "address"
				}
			],
			"name": "getReasonForCancellation",
			"outputs": [
				{
					"internalType": "string[]",
					"name": "",
					"type": "string[]"
				}
			],
			"stateMutability": "view",
			"type": "function"
		},
		{
			"inputs": [
				{
					"internalType": "address[]",
					"name": "beneficiaries",
					"type": "address[]"
				},
				{
					"internalType": "uint256[][]",
					"name": "indexesPerBeneficiary",
					"type": "uint256[][]"
				}
			],
			"name": "massApproval",
			"outputs": [],
			"stateMutability": "nonpayable",
			"type": "function"
		},
		{
			"inputs": [],
			"name": "owner",
			"outputs": [
				{
					"internalType": "address",
					"name": "",
					"type": "address"
				}
			],
			"stateMutability": "view",
			"type": "function"
		},
		{
			"inputs": [
				{
					"internalType": "address",
					"name": "beneficiary_",
					"type": "address"
				}
			],
			"name": "release",
			"outputs": [],
			"stateMutability": "nonpayable",
			"type": "function"
		},
		{
			"inputs": [],
			"name": "renounceOwnership",
			"outputs": [],
			"stateMutability": "view",
			"type": "function"
		},
		{
			"inputs": [],
			"name": "returnBeneficiaryList",
			"outputs": [
				{
					"internalType": "address[]",
					"name": "",
					"type": "address[]"
				}
			],
			"stateMutability": "view",
			"type": "function"
		},
		{
			"inputs": [],
			"name": "symbol",
			"outputs": [
				{
					"internalType": "string",
					"name": "",
					"type": "string"
				}
			],
			"stateMutability": "view",
			"type": "function"
		},
		{
			"inputs": [],
			"name": "timeNow",
			"outputs": [
				{
					"internalType": "uint256",
					"name": "",
					"type": "uint256"
				}
			],
			"stateMutability": "view",
			"type": "function"
		},
		{
			"inputs": [],
			"name": "token",
			"outputs": [
				{
					"internalType": "contract DummyToken",
					"name": "",
					"type": "address"
				}
			],
			"stateMutability": "view",
			"type": "function"
		},
		{
			"inputs": [],
			"name": "totalUnreleasedPayments",
			"outputs": [
				{
					"internalType": "uint256",
					"name": "",
					"type": "uint256"
				}
			],
			"stateMutability": "view",
			"type": "function"
		},
		{
			"inputs": [
				{
					"internalType": "address",
					"name": "wallet",
					"type": "address"
				}
			],
			"name": "transferExcessBalance",
			"outputs": [],
			"stateMutability": "nonpayable",
			"type": "function"
		},
		{
			"inputs": [
				{
					"internalType": "address",
					"name": "newOwner",
					"type": "address"
				}
			],
			"name": "transferOwnership",
			"outputs": [],
			"stateMutability": "nonpayable",
			"type": "function"
		}
	]
}